{"abi":[{"type":"constructor","inputs":[{"name":"_hex","type":"address","internalType":"address"}],"stateMutability":"nonpayable"},{"type":"function","name":"rule741","inputs":[],"outputs":[{"name":"","type":"address","internalType":"address"}],"stateMutability":"view"},{"type":"function","name":"transferRequest","inputs":[],"outputs":[{"name":"","type":"address","internalType":"address"}],"stateMutability":"view"}],"bytecode":{"object":"0x6080346200012d57601f62006ec638819003918201601f19168301926001600160401b0392909183851183861017620001175781602092849260409788528339810103126200012d57516001600160a01b0390818116908190036200012d578351906147fa9182810192818410868511176200011757620026cc823981835260208160009403019083f09384156200010d5782549484166001600160a01b03199586161783558551916124c98084019284841090841117620000f957918391602093620002038439815203019082f0908115620000ee5750169060015416176001555160d09081620001338239f35b8451903d90823e3d90fd5b634e487b7160e01b85526041600452602485fd5b85513d84823e3d90fd5b634e487b7160e01b600052604160045260246000fd5b600080fdfe6080806040526004361015601257600080fd5b600090813560e01c9081630a5b38ab1460685750633da8676f14603457600080fd5b3460655780600319360112606557602073ffffffffffffffffffffffffffffffffffffffff60015416604051908152f35b80fd5b9050346096578160031936011260965773ffffffffffffffffffffffffffffffffffffffff60209254168152f35b5080fdfea2646970667358221220a65fc34dc171b560da455b5381acba23e5a4df0be92ccd62ca3f7bc7e8c281e964736f6c634300081400336080346100ca57601f6124c938819003918201601f19168301916001600160401b038311848410176100cf578084926020946040528339810103126100ca57516001600160a01b038116908190036100ca5780156100855760018060a01b031933816001541617600155600054161760005560016003556040516123e390816100e68239f35b60405162461bcd60e51b815260206004820152601360248201527f6f776e2e696e76616c69642e68657862617365000000000000000000000000006044820152606490fd5b600080fd5b634e487b7160e01b600052604160045260246000fdfe60806040526004361015610018575b361561001657005b005b60003560e01c806312065fe0146101a857806318c864e3146101a35780631f185d161461019e57806324480afe146101995780633294adf0146101945780633676bd1f1461018f5780633b9b79551461018a578063479fa2c31461018557806349fbed12146101805780634ef260a91461017b5780638da5cb5b14610176578063a1f7f53914610171578063ab7e46ae1461016c578063ac23334514610167578063af48452614610162578063b8f1759a1461015d578063b90306ad14610158578063c1e6cec214610153578063c54e44b01461014e578063cab3cc8d14610149578063e01ad5fd14610144578063e0a9bc2b1461013f578063e846034a1461013a578063fdc10bc9146101355763ff585caf0361000e57610ec8565b610ea5565b610e87565b610de8565b610d4e565b610d30565b610c8e565b610c50565b610b34565b610ae0565b610aaf565b610a77565b610a23565b610965565b61093e565b61086a565b610732565b610689565b610662565b61063d565b610400565b6103e2565b6102b9565b610230565b346101c45760003660031901126101c457602047604051908152f35b600080fd5b60209060031901126101c45760043590565b634e487b7160e01b600052603260045260246000fd5b60055481101561022b57600560005260021b7f036b6384b5eca791c62761152d0c79bb0604c104a5fb6f4eb0703f3154bb3db00190600090565b6101db565b346101c45761023e366101c9565b6005548110156101c45761025360c0916101f1565b5060ff6001600160a01b03808354169282600182015460036002840154930154936040519687528116602087015260a01c161515604085015260608401528181161515608084015260081c16151560a0820152f35b6001600160a01b038116036101c457565b346101c4576020806003193601126101c4576004908135906102da826102a8565b806102fc6102f06000546001600160a01b031690565b6001600160a01b031690565b60405194858092634bf9c0ad60e11b82525afa9182156103dd5761035061038a9361036c9261039c966000926103aa575b5061035e906040519384918783019190916001600160a01b036020820193169052565b03601f198101845283611023565b610366611f0c565b9061210f565b9190806103a0575b61037d90611f45565b8082518301019101611dca565b60405190151581529081906020820190565b0390f35b5081518114610374565b61035e9192506103cf90863d88116103d6575b6103c78183611023565b810190611045565b919061032d565b503d6103bd565b61105d565b346101c45760003660031901126101c4576020600754604051908152f35b346101c4576020806003193601126101c45760043561041e816102a8565b6001600160a01b038116156105f95761045461044d336001600160a01b03166000526004602052604060002090565b5415610f37565b61048a61045f610f98565b509182906001600160a01b031673ffffffffffffffffffffffffffffffffffffffff19825416179055565b60018101805473ffffffffffffffffffffffffffffffffffffffff191633178155916104ef906004906005546040519384917fff585caf0000000000000000000000000000000000000000000000000000000084840152602483019190602083019252565b03610502601f1991828101865285611023565b816105186102f06000546001600160a01b031690565b60405194858092630536340960e21b82525afa9283156103dd576002946105a29461059593610584936000926105d8575b5061059091926040519485917fd3a308490000000000000000000000000000000000000000000000000000000089840152306024840161108c565b03908101845283611023565b6122b8565b805181018201910161110c565b9101556105d56105bc60055492546001600160a01b031690565b6001600160a01b03166000526004602052604060002090565b55005b61059092506105f390873d89116103d6576103c78183611023565b91610549565b6064826040519062461bcd60e51b82526004820152601260248201527f6f776e2e64656661756c742e73656e64657200000000000000000000000000006044820152fd5b346101c45761065b61064e366101c9565b610656611b89565b611752565b6001600355005b346101c45760003660031901126101c45760206001600160a01b0360005416604051908152f35b346101c457610697366101c9565b80151580610726575b6106a990611166565b6000198101908111610721576106be906101f1565b50805460018201546003830154600290930154604080516001600160a01b039485168152938316602085015260ff80861615159185019190915260089490941c84161515606084015260a091821c9093161515608083015281019190915260c090f35b6111b1565b506005548111156106a0565b346101c457610740366101c9565b610748611b89565b610755606482111561148f565b61076661076130611e62565b6114da565b6107856007916107808354610779611f90565b1015611c62565b611cc5565b9060005b82518110156107be576107b9906107b46107af8454806107a98589611cf7565b526115ce565b600755565b6115ce565b610789565b82600460206107d86102f06000546001600160a01b031690565b6040519283809263ab6e844f60e01b82525afa80156103dd5761083b9261035092600092610846575b50610590906040519384917f7aefe0bb00000000000000000000000000000000000000000000000000000000602084015260248301611d0b565b506100166001600355565b6105909192506108639060203d81116103d6576103c78183611023565b9190610801565b346101c45760203660031901126101c4576001600160a01b0360043561088f816102a8565b16600090808252600460205260408220546000198101908111610721576108b76003916101f1565b500161010061ff001982541617905580825260046020528160408120556006546801000000000000000081101561093957600181018060065581101561022b577ff652222313e28459528d920b65115c16c04f3efc82aaedc97be59f3f377c0d3f019073ffffffffffffffffffffffffffffffffffffffff1982541617905580f35b610f82565b346101c45760003660031901126101c45760206001600160a01b0360015416604051908152f35b346101c45760003660031901126101c457600460206001600160a01b03600054166040519283809263d1f956b160e01b82525afa9081156103dd5761039c916109f591600091610a05575b506040516109bd81610feb565b601381527f67657464656c656761746f72436f756e7428290000000000000000000000000060208201526109ef6111f2565b91612232565b6040519081529081906020820190565b610a1d915060203d81116103d6576103c78183611023565b386109b0565b346101c457610a31366101c9565b6006548110156101c4576001600160a01b0360209160066000527ff652222313e28459528d920b65115c16c04f3efc82aaedc97be59f3f377c0d3f015416604051908152f35b346101c45760203660031901126101c4576020610a9e600435610a99816102a8565b6113ba565b6001600160a01b0360405191168152f35b346101c45760203660031901126101c4576020610ad6600435610ad1816102a8565b611e62565b6040519015158152f35b346101c457610aee366101c9565b60065481101561022b576001600160a01b0360209160066000527ff652222313e28459528d920b65115c16c04f3efc82aaedc97be59f3f377c0d3f015416604051908152f35b346101c457610b42366101c9565b6001600160a01b0390600091808354169060405190630536340960e21b82526020928383600481845afa9283156103dd576004938593610b8c928992610c31575b5016331461111b565b604051928380927f46f991ac0000000000000000000000000000000000000000000000000000000082525afa9182156103dd57848085610be395829583958492610c14575b50505af1610bdd612069565b50612099565b60405190815233907fcdcc745fe377b103b45fa0cec23ae3ef93d6fc6a84a01f0d18c40b354dd1d5d890602090a280f35b610c2a9250803d106103d6576103c78183611023565b3880610bd1565b610c49919250853d87116103d6576103c78183611023565b9038610b83565b346101c45760203660031901126101c4576001600160a01b03600435610c75816102a8565b1660005260046020526020604060002054604051908152f35b346101c45760203660031901126101c457600435610cab816102a8565b803b6000610cb8826111d6565b92610cc66040519485611023565b82845260208401903c602d815110610cec57602a015160405160609190911c8152602090f35b606460405162461bcd60e51b815260206004820152601360248201527f4e6f742061206d696e696d616c2070726f7879000000000000000000000000006044820152fd5b346101c45760003660031901126101c4576020600554604051908152f35b346101c4576020806003193601126101c45760048035610d6d816102a8565b6001600160a01b03928084600054166040519485809263d1f956b160e01b82525afa9081156103dd5761039c9461038a94600093610dc9575b506040519316818401528252610dbb82610feb565b610dc3612030565b906121f6565b610de1919350823d84116103d6576103c78183611023565b9138610da6565b346101c45760003660031901126101c4576001600160a01b03600054166040518091634bf9c0ad60e11b825281600460209384935afa9081156103dd57610e4f61038a9261039c94600091610e6a575b50610e41611d46565b610e496111f2565b9161210f565b919080610e60575b61037d90611d7f565b5081518114610e57565b610e819150833d85116103d6576103c78183611023565b38610e38565b346101c45760003660031901126101c4576020600654604051908152f35b346101c45760003660031901126101c4576020610ec0611f90565b604051908152f35b346101c457610ed6366101c9565b6001600160a01b039060046020836000541660405192838092630536340960e21b82525afa80156103dd5761001693610f1992600092610f1e575016331461111b565b611284565b610c4991925060203d81116103d6576103c78183611023565b15610f3e57565b606460405162461bcd60e51b815260206004820152601260248201527f70726f706f7365722e746f2e65786973747300000000000000000000000000006044820152fd5b634e487b7160e01b600052604160045260246000fd5b6005546801000000000000000081101561093957600181018060055581101561022b57600560005260021b7f036b6384b5eca791c62761152d0c79bb0604c104a5fb6f4eb0703f3154bb3db00190600090565b6040810190811067ffffffffffffffff82111761093957604052565b6020810190811067ffffffffffffffff82111761093957604052565b90601f8019910116810190811067ffffffffffffffff82111761093957604052565b908160209103126101c4575161105a816102a8565b90565b6040513d6000823e3d90fd5b60005b83811061107c5750506000910152565b818101518382015260200161106c565b92916080906001600160a01b03600a9360a08752600d60a08801527f55736572205472616e736665720000000000000000000000000000000000000060c08801521660208601526000604086015260e0606086015280518060e08701526110fd81610100936020858a019101611069565b601f8019910116850101930152565b908160209103126101c4575190565b1561112257565b606460405162461bcd60e51b815260206004820152600f60248201527f6f776e2e6e6f6e617574682e44414f00000000000000000000000000000000006044820152fd5b1561116d57565b606460405162461bcd60e51b815260206004820152601760248201527f70726f706f7365722e696e76616c69642e666f726d69640000000000000000006044820152fd5b634e487b7160e01b600052601160045260246000fd5b60001981019190821161072157565b67ffffffffffffffff811161093957601f01601f191660200190565b604051906111ff82611007565b60008252565b6040519061121282610feb565b601282527f676574526573756c742875696e743235362900000000000000000000000000006020830152565b519081151582036101c457565b91908260c09103126101c45781519160208101519160408201519160608101519161105a60a061127d6080850161123e565b930161123e565b80156113b7576112a46112a99161129f600554821115611166565b6111c7565b6101f1565b506112bf6102f06000546001600160a01b031690565b604051918291630536340960e21b835282600460209485935afa9081156103dd57611333611386936113266103506003956113989860009161139a575b5061131860028701546040519384918783019190602083019252565b611320611205565b906120e4565b805181018201910161124b565b9794509250505060018301907fffffffffffffffffffffff00ffffffffffffffffffffffffffffffffffffffff74ff0000000000000000000000000000000000000000835492151560a01b169116179055565b019060ff801983541691151516179055565b565b6113b19150843d86116103d6576103c78183611023565b386112fc565b50565b6113d7816001600160a01b03166000526004602052604060002090565b548015159081611482575b501561147c576112a461140b611411926001600160a01b03166000526004602052604060002090565b546111c7565b50600181015460a01c60ff169081611466575b81611445575b6000911561144157546001600160a01b0316905090565b5090565b905061146061145c600383015460ff9060081c1690565b1590565b9061142a565b9050611476600382015460ff1690565b90611424565b50600090565b90506005541015386113e2565b1561149657565b606460405162461bcd60e51b815260206004820152601c60248201527f7574696c6974792e62617463682e6c696d69742e6578636565646564000000006044820152fd5b156114e157565b606460405162461bcd60e51b815260206004820152601760248201527f7574696c6974792e756e7365637572652e6661696c65640000000000000000006044820152fd5b60405161153181611007565b60008152906000368137565b6040519061154a82610feb565b600f82527f6765744e6f646573436f756e74282900000000000000000000000000000000006020830152565b1561157d57565b606460405162461bcd60e51b815260206004820152601360248201527f7574696c6974792e696d706f72742e646f6e65000000000000000000000000006044820152fd5b9190820180921161072157565b60001981146107215760010190565b604051906115ea82610feb565b601782527f6765744e6f64654279496e6465782875696e74323536290000000000000000006020830152565b1561161d57565b606460405162461bcd60e51b815260206004820152601660248201527f70726f78792e696e76616c69642e696e7374616e6365000000000000000000006044820152fd5b6040519061166e82610feb565b601382527f496e7374546f55736572286164647265737329000000000000000000000000006020830152565b156116a157565b606460405162461bcd60e51b815260206004820152601260248201527f70726f78792e696e76616c69642e6e6f646500000000000000000000000000006044820152fd5b604051906116f282610feb565b601082527f6765744e6f6465286164647265737329000000000000000000000000000000006020830152565b908160a09103126101c457805191602082015161173a816102a8565b9160408101519161105a608061127d6060850161123e565b61175f606482111561148f565b61176b61076130611e62565b6000906117826102f083546001600160a01b031690565b9160409081519163111ea8c160e21b9485845260209060049482818781855afa80156103dd576117cb918691611b72575b506117bc611525565b906117c561153d565b90612232565b958615611b685783518381888163ab6e844f60e01b968782525afa9081156103dd5761181691611804918891611b4b57506117bc611525565b91611810838a11611576565b826115c1565b96808811611b43575b505b868110611832575050505050505050565b6118466102f086546001600160a01b031690565b9084519189835284838981845afa9283156103dd578793611b24575b5061189c86518061187a858983019190602083019252565b039461188e601f1996878101845283611023565b6118966115dd565b906121a5565b906001600160a01b036118b28184161515611616565b87518c815287818c81865afa80156103dd57611907918b91611b07575b508951906118ff826118f3888d83019190916001600160a01b036020820193169052565b03898101845283611023565b611896611661565b91611915828416151561169a565b8851938d855288858d81855afa9485156103dd576119726001928c8f988f611980958f9192611ae2575b5091516001600160a01b039093169183019182529061196a9083906020015b038c8101845283611023565b6113206116e5565b8a808251830101910161171e565b505050939093169261199381151561169a565b148015611ad9575b611a5c575b506119ab8280611bc4565b866119c06102f08b546001600160a01b031690565b8951948580928a82525afa80156103dd57611a3695611a30948b92611a3b575b5089517f50db85d1000000000000000000000000000000000000000000000000000000008a8201526001600160a01b03938416602482015293909216604484015290610590908360648101610584565b506115ce565b611821565b6105909250611a56908a3d8c116103d6576103c78183611023565b916119e0565b928c88918a518096819382525afa9283156103dd578a93611ab092611aa4928c92611ab6575b506118ff908b519384918c83019190916001600160a01b036020820193169052565b03888101845283611023565b386119a0565b6118ff919250611ad2908b3d8d116103d6576103c78183611023565b9190611a82565b5081151561199b565b61196a9250611b0061195e91833d85116103d6576103c78183611023565b925061193f565b611b1e9150893d8b116103d6576103c78183611023565b386118cf565b611b3c919350853d87116103d6576103c78183611023565b9138611862565b96503861181f565b611b629150863d88116103d6576103c78183611023565b386117b3565b5050505050505050565b611b629150843d86116103d6576103c78183611023565b600260035414611b9a576002600355565b60046040517f3ee5aeb5000000000000000000000000000000000000000000000000000000008152fd5b600554906801000000000000000082101561093957611bee61045f836001600395016005556101f1565b600181810180547fffffffffffffffffffffff000000000000000000000000000000000000000000166001600160a01b0395909516948517740100000000000000000000000000000000000000001790559101805461ffff1916909117905560055460009182526004602052604090912055565b15611c6957565b606460405162461bcd60e51b815260206004820152601060248201527f7574696c6974792e6167652e646f6e65000000000000000000000000000000006044820152fd5b67ffffffffffffffff81116109395760051b60200190565b90611ccf82611cad565b611cdc6040519182611023565b8281528092611ced601f1991611cad565b0190602036910137565b805182101561022b5760209160051b010190565b6020908160408183019282815285518094520193019160005b828110611d32575050505090565b835185529381019392810192600101611d24565b60405190611d5382610feb565b600882527f69735361666528290000000000000000000000000000000000000000000000006020830152565b15611d8657565b606460405162461bcd60e51b815260206004820152601960248201527f6f776e2e7361666567756172642e63616c6c2e6661696c6564000000000000006044820152fd5b908160209103126101c45761105a9061123e565b60405190611deb82610feb565b601582527f69735365637572654261736528616464726573732900000000000000000000006020830152565b15611e1e57565b606460405162461bcd60e51b815260206004820152601a60248201527f6f776e2e736563757265626173652e63616c6c2e6661696c65640000000000006044820152fd5b6000546001600160a01b0316604051918291634bf9c0ad60e11b835282600460209485935afa9283156103dd5761105a93611ece9261035092600092611ee9575b50611ec6906040519384918783019190916001600160a01b036020820193169052565b610366611dde565b919080611edf575b61037d90611e17565b5081518114611ed6565b611ec6919250611f0590863d88116103d6576103c78183611023565b9190611ea3565b60405190611f1982610feb565b601182527f69735369676e65722861646472657373290000000000000000000000000000006020830152565b15611f4c57565b606460405162461bcd60e51b815260206004820152601660248201527f6f776e2e7369676e65722e63616c6c2e6661696c6564000000000000000000006044820152fd5b600460206001600160a01b03600054166040519283809263111ea8c160e21b82525afa80156103dd5761105a91600091612012575b50604051611fd281610feb565b600581527f616765282900000000000000000000000000000000000000000000000000000060208201526040519161200983611007565b60008352612232565b61202a915060203d81116103d6576103c78183611023565b38611fc5565b6040519061203d82610feb565b601882527f697364656c656761746f724e6f646528616464726573732900000000000000006020830152565b3d15612094573d9061207a826111d6565b916120886040519384611023565b82523d6000602084013e565b606090565b156120a057565b606460405162461bcd60e51b815260206004820152600f60248201527f6f776e2e6275726e2e6661696c656400000000000000000000000000000000006044820152fd5b906120ef929161210f565b90600090156120fc575090565b604051915061210a82611007565b815290565b803b1561218c576000927fffffffff00000000000000000000000000000000000000000000000000000000836020869551910120169061217960246040518093602082019586526121698151809260208686019101611069565b8101036004810184520182611023565b5191620dbba0fa612188612069565b9091565b50505060009060405161219e81611007565b6000815290565b92916121b39160009461210f565b90806121eb575b6121c15750565b9091506020818051810103126101c45760206001600160a01b039101516121e7816102a8565b1690565b5060208151146121ba565b92916122049160009461210f565b9080612227575b6122125750565b61105a91925060208082518301019101611dca565b50602081511461220b565b92916122409160009461210f565b9080612263575b61224e5750565b61105a9192506020808251830101910161110c565b506020815114612247565b90602082519201517fffffffff000000000000000000000000000000000000000000000000000000009081811693600481106122a957505050565b60040360031b82901b16169150565b6001600160a01b0381161561236957600080918351908260208601915af1906122df612069565b91156122e9575090565b80516000919060041161236357612300915061226e565b8151156123105750805190602001fd5b6024907fffffffff00000000000000000000000000000000000000000000000000000000604051917f21c09d34000000000000000000000000000000000000000000000000000000008352166004820152fd5b50612300565b606460405162461bcd60e51b815260206004820152601260248201527f6f776e2e696e76616c69642e74617267657400000000000000000000000000006044820152fdfea26469706673582212207ef72ef6759327f3b239265d1ce534fcd2b5046f4776aa11a2bcfa0338e9235464736f6c634300081400336080346200196957601f620047fa38819003918201601f19168301916001600160401b038311848410176200196e578084926020946040528339810103126200196957516001600160a01b0381169081900362001969578015620019245760018060a01b0319338160015416176001556000541617600055601e60255560036026556004602755600160285560016029556002602a5561c350602b55610258602c556003602d556019602e5568878678326eac900000602f55670de0b6b3a764000060315569021e19e0c9bab2400000603255600160335561014060345560a0603555600560365560ff196037541660375561025860c06200010062001a04565b6002815260646020820152600160408201526023606082015260646080820152600160a082015201526002600755606460085560016009556023600a556064600b556001600c55610258600d556200015762001984565b6002815261025860c06103f29283602082015260016040820152600b6060820152600a6080820152600160a082015201526002600e5580600f556001601055600b601155600a601255600160135561025860145561025860c0620001ba62001984565b60028152836020820152600160408201526044606082015260646080820152600160a0820152015260026015556016556001601755604460185560646019556001601a55610258601b55605a60406200021262001a39565b60198152600a602082015201526019601c55600a601d55605a601e5560406200023a62001a39565b600581526001602082015261016891829101526005601f556001602055602155600160a06200026862001a04565b60048152826020820152826040820152826060820152826080820152600060c08201520152600460225564010101010165ffffffffffff1960235416176023556200031e620002b6620019a4565b680821ab0d44149800008152601e602080830191825260016000526030905290517fc7874712a1c7fb891b421aa6c0d42dbf3cd912d7a18f183783fb32e938cbaa0155517fc7874712a1c7fb891b421aa6c0d42dbf3cd912d7a18f183783fb32e938cbaa0255565b620003946200032c620019a4565b681043561a88293000008152601e602080830191825260026000526030905290517f89a47dfbb363dd4e64da56b4585033c9abd8a425d24b94630469c44bee7189c255517f89a47dfbb363dd4e64da56b4585033c9abd8a425d24b94630469c44bee7189c355565b6200040a620003a2620019a4565b682086ac3510526000008152601e602080830191825260036000526030905290517f11a30d68d5ffd3a101d3683e9a6997d49d9351e95dc004c6a4e652b897626df755517f11a30d68d5ffd3a101d3683e9a6997d49d9351e95dc004c6a4e652b897626df855565b6200048062000418620019a4565b6830ca024f987b9000008152601e602080830191825260046000526030905290517f2f780f5a40ea4901ca784926540b83b7459f13a98fc8f78e5634eb2a01df3af555517f2f780f5a40ea4901ca784926540b83b7459f13a98fc8f78e5634eb2a01df3af655565b620004f66200048e620019a4565b685150ae84a8cdf000008152601e602080830191825260056000526030905290517f9d0b70a39d4b3569f175af8ea51ae318eac80460c467ee4a16ee63ec5720706e55517f9d0b70a39d4b3569f175af8ea51ae318eac80460c467ee4a16ee63ec5720706f55565b6200056c62000504620019a4565b6871d75ab9b9205000008152601e602080830191825260066000526030905290517fd558ed0e54509c62efb2aedb46e6ad1b04c7bdca351e3613e136c946b91686d855517fd558ed0e54509c62efb2aedb46e6ad1b04c7bdca351e3613e136c946b91686d955565b620005e26200057a620019a4565b68a2a15d09519be000008152601e602080830191825260076000526030905290517f4ebb69666752feecd656ebf5f8cd3c2f1c70bb06a0c3d3744be479e4a580c23355517f4ebb69666752feecd656ebf5f8cd3c2f1c70bb06a0c3d3744be479e4a580c23455565b62000650620005f0620019a4565b600781526019602080830191825260016000526004905290517fabd6e7cb50984ff9c2f3e18a2660c3353dadf4e3291deeb275dae2cd1e44fe0555517fabd6e7cb50984ff9c2f3e18a2660c3353dadf4e3291deeb275dae2cd1e44fe0655565b620006be6200065e620019a4565b600781526064602080830191825260026000526004905290517f91da3fd0782e51c6b3986e9e672fd566868e71f3dbc2d6c2cd6fbb3e361af2a755517f91da3fd0782e51c6b3986e9e672fd566868e71f3dbc2d6c2cd6fbb3e361af2a855565b6200072d620006cc620019a4565b600781526101f4602080830191825260036000526004905290517f2e174c10e159ea99b867ce3205125c24a42d128804e4070ed6fcc8cc98166aa055517f2e174c10e159ea99b867ce3205125c24a42d128804e4070ed6fcc8cc98166aa155565b6200079c6200073b620019a4565b600781526107d0602080830191825260046000819052905290517f1a1e6821cde7d0159c0d293177871e09677b4e42307c7db3ba94f8648a5a050f55517f1a1e6821cde7d0159c0d293177871e09677b4e42307c7db3ba94f8648a5a051055565b6200080b620007aa620019a4565b60078152611388602080830191825260056000526004905290517f04cde762ef08b6b6c5ded8e8c4c0b3f4e5c9ad7342c88fcc93681b4588b73f0555517f04cde762ef08b6b6c5ded8e8c4c0b3f4e5c9ad7342c88fcc93681b4588b73f0655565b6200087a62000819620019a4565b60078152612710602080830191825260066000526004905290517fc59312466997bb42aaaf719ece141047820e6b34531e1670dc1852a453648f0f55517fc59312466997bb42aaaf719ece141047820e6b34531e1670dc1852a453648f1055565b620008ec62000888620019a4565b60078082526161a86020808401918252600092909252600490915290517fbeb3bad75134cb432e5707980e3245c52c5998a1125ee30f2f0dbf3925b1e55155517fbeb3bad75134cb432e5707980e3245c52c5998a1125ee30f2f0dbf3925b1e55255565b620008f6620019c4565b60008082526006602080840182815260016040860181815260056060880190815260808801838152929096529390925293517f3e5fec24aa4dc4e5aee2e025e51e1392c72a2500577559fae9665c6d52bd6a315592517f3e5fec24aa4dc4e5aee2e025e51e1392c72a2500577559fae9665c6d52bd6a3255517f3e5fec24aa4dc4e5aee2e025e51e1392c72a2500577559fae9665c6d52bd6a3355517f3e5fec24aa4dc4e5aee2e025e51e1392c72a2500577559fae9665c6d52bd6a3455517f3e5fec24aa4dc4e5aee2e025e51e1392c72a2500577559fae9665c6d52bd6a3555620009e1620019c4565b60018082526003602080840191825260408401838152600560608601908152608086019485526002600052600690925293517f8819ef417987f8ae7a81f42cdfb18815282fe989326fbff903d13cf0e03ace295590517f8819ef417987f8ae7a81f42cdfb18815282fe989326fbff903d13cf0e03ace2a5591517f8819ef417987f8ae7a81f42cdfb18815282fe989326fbff903d13cf0e03ace2b5590517f8819ef417987f8ae7a81f42cdfb18815282fe989326fbff903d13cf0e03ace2c55517f8819ef417987f8ae7a81f42cdfb18815282fe989326fbff903d13cf0e03ace2d5562000ace620019c4565b60028152600f6020808301918252600a604084019081526005606085019081526001608086019081526003600052600690935293517f75f96ab15d697e93042dc45b5c896c4b27e89bb6eaf39475c5c371cb2513f7d25591517f75f96ab15d697e93042dc45b5c896c4b27e89bb6eaf39475c5c371cb2513f7d35590517f75f96ab15d697e93042dc45b5c896c4b27e89bb6eaf39475c5c371cb2513f7d45590517f75f96ab15d697e93042dc45b5c896c4b27e89bb6eaf39475c5c371cb2513f7d555517f75f96ab15d697e93042dc45b5c896c4b27e89bb6eaf39475c5c371cb2513f7d65562000bbe620019c4565b60028152600f6020808301918252600a604084019081526005606085019081526001608086019081526004600052600690935293517fc5069e24aaadb2addc3e52e868fcf3f4f8acf5a87e24300992fd4540c2a87eed5591517fc5069e24aaadb2addc3e52e868fcf3f4f8acf5a87e24300992fd4540c2a87eee5590517fc5069e24aaadb2addc3e52e868fcf3f4f8acf5a87e24300992fd4540c2a87eef5590517fc5069e24aaadb2addc3e52e868fcf3f4f8acf5a87e24300992fd4540c2a87ef055517fc5069e24aaadb2addc3e52e868fcf3f4f8acf5a87e24300992fd4540c2a87ef15562000cae620019c4565b60028152600f6020808301918252600a60408401908152600560608501818152600160808701908152600092909252600690935293517fbfd358e93f18da3ed276c3afdbdba00b8f0b6008a03476a6a86bd6320ee6938b5591517fbfd358e93f18da3ed276c3afdbdba00b8f0b6008a03476a6a86bd6320ee6938c5590517fbfd358e93f18da3ed276c3afdbdba00b8f0b6008a03476a6a86bd6320ee6938d55517fbfd358e93f18da3ed276c3afdbdba00b8f0b6008a03476a6a86bd6320ee6938e55517fbfd358e93f18da3ed276c3afdbdba00b8f0b6008a03476a6a86bd6320ee6938f5562000d9e620019c4565b60028152604b602080830191825260646040840181815260fa60608601908152608086019283526006600081905290935293517f697b2bd7bb2984c4e0dc14c79c987d37818484a62958b9c45a0e8b962f20650f5591517f697b2bd7bb2984c4e0dc14c79c987d37818484a62958b9c45a0e8b962f2065105591517f697b2bd7bb2984c4e0dc14c79c987d37818484a62958b9c45a0e8b962f2065115590517f697b2bd7bb2984c4e0dc14c79c987d37818484a62958b9c45a0e8b962f20651255517f697b2bd7bb2984c4e0dc14c79c987d37818484a62958b9c45a0e8b962f2065135562000e8c620019c4565b60028152604b602080830191825260646040840181815260fa60608601908152608086019283526007600052600690935293517f4ced6d0d36392b04cc5d8761b1327b3bbba6e1089c77f60a9a9ca18e05e4f00e5591517f4ced6d0d36392b04cc5d8761b1327b3bbba6e1089c77f60a9a9ca18e05e4f00f5591517f4ced6d0d36392b04cc5d8761b1327b3bbba6e1089c77f60a9a9ca18e05e4f0105590517f4ced6d0d36392b04cc5d8761b1327b3bbba6e1089c77f60a9a9ca18e05e4f01155517f4ced6d0d36392b04cc5d8761b1327b3bbba6e1089c77f60a9a9ca18e05e4f0125562000f7a620019c4565b60028152604b602080830191825260646040840181815260fa60608601908152608086019283526008600052600690935293517fb8d683c9d414f481826f3e7fe14b3ac6ae8c73450778287390c4bb8cb9f2e80b5591517fb8d683c9d414f481826f3e7fe14b3ac6ae8c73450778287390c4bb8cb9f2e80c5591517fb8d683c9d414f481826f3e7fe14b3ac6ae8c73450778287390c4bb8cb9f2e80d5590517fb8d683c9d414f481826f3e7fe14b3ac6ae8c73450778287390c4bb8cb9f2e80e55517fb8d683c9d414f481826f3e7fe14b3ac6ae8c73450778287390c4bb8cb9f2e80f5562001068620019c4565b60028152604b602080830191825260646040840181815260fa60608601908152608086019283526009600052600690935293517fca4d0c6c94a9477136dd41a99cc19ecbe441c8f6609efe7c6fa65be007a473235591517fca4d0c6c94a9477136dd41a99cc19ecbe441c8f6609efe7c6fa65be007a473245591517fca4d0c6c94a9477136dd41a99cc19ecbe441c8f6609efe7c6fa65be007a473255590517fca4d0c6c94a9477136dd41a99cc19ecbe441c8f6609efe7c6fa65be007a4732655517fca4d0c6c94a9477136dd41a99cc19ecbe441c8f6609efe7c6fa65be007a473275562001156620019c4565b60028152604b602080830191825260646040840181815260fa6060860190815260808601928352600a600052600690935293517f4da38fc8e544afc56a4c2a17752b8ddb67d8e23ac4583c9029d2e2d1dbe6c9885591517f4da38fc8e544afc56a4c2a17752b8ddb67d8e23ac4583c9029d2e2d1dbe6c9895591517f4da38fc8e544afc56a4c2a17752b8ddb67d8e23ac4583c9029d2e2d1dbe6c98a5590517f4da38fc8e544afc56a4c2a17752b8ddb67d8e23ac4583c9029d2e2d1dbe6c98b55517f4da38fc8e544afc56a4c2a17752b8ddb67d8e23ac4583c9029d2e2d1dbe6c98c5562001244620019c4565b60028152604b602080830191825260646040840181815260fa6060860190815260808601928352600b600052600690935293517f85291c2e7881182c13e19eca9b58927ebfdc2c5d04882018eeb33d8241d357115591517f85291c2e7881182c13e19eca9b58927ebfdc2c5d04882018eeb33d8241d357125591517f85291c2e7881182c13e19eca9b58927ebfdc2c5d04882018eeb33d8241d357135590517f85291c2e7881182c13e19eca9b58927ebfdc2c5d04882018eeb33d8241d3571455517f85291c2e7881182c13e19eca9b58927ebfdc2c5d04882018eeb33d8241d357155562001332620019c4565b60028152604b602080830191825260646040840181815260fa6060860190815260808601928352600c600052600690935293517f0b94fa1b86997cc1f1148bfbe25b674e8cefc7cc6f976aa8d7c7966bd4cca3475591517f0b94fa1b86997cc1f1148bfbe25b674e8cefc7cc6f976aa8d7c7966bd4cca3485591517f0b94fa1b86997cc1f1148bfbe25b674e8cefc7cc6f976aa8d7c7966bd4cca3495590517f0b94fa1b86997cc1f1148bfbe25b674e8cefc7cc6f976aa8d7c7966bd4cca34a55517f0b94fa1b86997cc1f1148bfbe25b674e8cefc7cc6f976aa8d7c7966bd4cca34b5562001420620019c4565b60028152604b602080830191825260646040840181815260fa6060860190815260808601928352600d600052600690935293517f248457bacb20e239ae314d8db91c0f270e453c28ee138c84f97aea6cfcf9a4995591517f248457bacb20e239ae314d8db91c0f270e453c28ee138c84f97aea6cfcf9a49a5591517f248457bacb20e239ae314d8db91c0f270e453c28ee138c84f97aea6cfcf9a49b5590517f248457bacb20e239ae314d8db91c0f270e453c28ee138c84f97aea6cfcf9a49c55517f248457bacb20e239ae314d8db91c0f270e453c28ee138c84f97aea6cfcf9a49d556200150e620019c4565b60028152604b602080830191825260646040840181815260fa6060860190815260808601928352600e600052600690935293517faca6cdb4b5fe0ec50731a73f714dd191dc1911bfeb3f9eeb9e94ed0f6065ef8d5591517faca6cdb4b5fe0ec50731a73f714dd191dc1911bfeb3f9eeb9e94ed0f6065ef8e5591517faca6cdb4b5fe0ec50731a73f714dd191dc1911bfeb3f9eeb9e94ed0f6065ef8f5590517faca6cdb4b5fe0ec50731a73f714dd191dc1911bfeb3f9eeb9e94ed0f6065ef9055517faca6cdb4b5fe0ec50731a73f714dd191dc1911bfeb3f9eeb9e94ed0f6065ef9155620015fc620019c4565b60028152604b602080830191825260646040840181815260fa6060860190815260808601928352600f600052600690935293517ff130046d53bc87538ab17e4752ba5f5082985eecc06ccb932c5a55e8242dd5025591517ff130046d53bc87538ab17e4752ba5f5082985eecc06ccb932c5a55e8242dd5035591517ff130046d53bc87538ab17e4752ba5f5082985eecc06ccb932c5a55e8242dd5045590517ff130046d53bc87538ab17e4752ba5f5082985eecc06ccb932c5a55e8242dd50555517ff130046d53bc87538ab17e4752ba5f5082985eecc06ccb932c5a55e8242dd506556200177b620016ee620019e4565b60128152600a6020808301918252602d604084019081526003600052600590915291517fa9bc9a3a348c357ba16b37005d7e6b3236198c0e939f4af8c5f19b8deeb8ebc055517fa9bc9a3a348c357ba16b37005d7e6b3236198c0e939f4af8c5f19b8deeb8ebc155517fa9bc9a3a348c357ba16b37005d7e6b3236198c0e939f4af8c5f19b8deeb8ebc255565b6200181662001789620019e4565b60128152600a6020808301918252605a604084019081526005600081905290915291517f458b30c2d72bfd2c6317304a4594ecbafe5f729d3111b65fdc3a33bd48e5432d55517f458b30c2d72bfd2c6317304a4594ecbafe5f729d3111b65fdc3a33bd48e5432e55517f458b30c2d72bfd2c6317304a4594ecbafe5f729d3111b65fdc3a33bd48e5432f55565b620018b262001824620019e4565b60098152600a602080830191825261270f604084019081526007600052600590915291517feddb6698d7c569ff62ff64f1f1492bf14a54594835ba0faac91f84b4f5d8146055517feddb6698d7c569ff62ff64f1f1492bf14a54594835ba0faac91f84b4f5d8146155517feddb6698d7c569ff62ff64f1f1492bf14a54594835ba0faac91f84b4f5d8146255565b60036020526802b5e3af16b18800007fc3a24b0501bd2c13a7e57f2db4369ec4c223447539fc0724a9d55ac4a06ebd4d556004600052683635c9adc5dea000007f83ec6a1f0257b830b5e016457c9cf1435391bf56cc98f369a58a54fe9377246555604051612da1908162001a598239f35b60405162461bcd60e51b815260206004820152601360248201527f6f776e2e696e76616c69642e68657862617365000000000000000000000000006044820152606490fd5b600080fd5b634e487b7160e01b600052604160045260246000fd5b6040519060e082016001600160401b038111838210176200196e57604052565b60408051919082016001600160401b038111838210176200196e57604052565b6040519060a082016001600160401b038111838210176200196e57604052565b60405190606082016001600160401b038111838210176200196e57604052565b62001a0e62001984565b9060008083528060208401528060408401528060608401528060808401528060a084015260c0830152565b62001a43620019e4565b9060008252600060208301526000604083015256fe60806040526004361015610018575b361561001657005b005b60003560e01c80630609a0e31461044857806307175c831461044357806309307c621461043e5780630b225f1a146104395780630ea0d2221461043457806311df44db1461042f57806312065fe01461042a57806314be92a51461042557806315a544ed146104205780631605aed91461041b57806316f0115b14610416578063192b48ee146104115780631f185d161461040c57806326c5adae14610407578063298fc460146104025780633688236d146103fd5780633b9b7955146103f85780634151331d146103f3578063438fe192146103ee57806343c06bc4146103e957806344ec16bc146103e45780634b62954f146103df5780634dd4396c146103da57806353423e86146103d5578063541d7667146103d057806354541683146103cb5780635640dbfc146103c6578063582003d1146103c1578063592a02a8146103bc5780635962205f146103b75780635a0e9038146103b257806363b2b474146103ad5780636b81c82f146103a85780636c7deb5d146103a35780636f092c5e1461039e5780637687e3711461039957806378ef376f146103945780637bc908c61461038f57806388ed3bb51461038a5780638da5cb5b146103855780638e3719e71461038057806391fc8aa81461037b5780639319d0b514610376578063991bf5cc146103715780639ce7ce0f1461036c5780639eb8b44e14610367578063a1f7f53914610362578063a88fcea61461035d578063a9df70b914610358578063aebcd32a14610353578063af0b21d31461034e578063af48452614610349578063b49c064c14610344578063b5939a371461033f578063b85f1f8d1461033a578063b90306ad14610335578063bcf71cd814610330578063c54e44b01461032b578063c5a136d414610326578063e01ad5fd14610321578063e0a9bc2b1461031c578063e2a1f69a14610317578063eddd0d9c14610312578063f2a6bbc71461030d578063f4fe8e3c14610308578063fc0e74d1146103035763fdc10bc90361000e57612130565b61210d565b612067565b611fc4565b611f21565b611ec9565b611eae565b611e14565b611d29565b611c87565b611bde565b611b22565b611af0565b611ad2565b611aaf565b611a7e565b611a60565b611a1b565b611972565b611954565b6118a6565b6116e3565b6115e5565b6114f0565b61144d565b61142f565b611411565b6113ea565b6113cc565b6113ae565b61130b565b61124a565b61121e565b61117b565b6110a4565b611068565b611036565b610fde565b610f2c565b610f03565b610e96565b610e78565b610e0a565b610dec565b610da7565b610cfe565b610c5b565b610bb2565b610b94565b610b47565b610b20565b610b02565b610a41565b610980565b610870565b6107bc565b610764565b610746565b610728565b610685565b610669565b61060d565b6105ef565b6105d1565b610528565b61050a565b3461050557602036600319011261050557610469610464612360565b61285a565b610472336124a4565b801561048d575b610482906128a5565b610016600435602555565b5060046001600160a01b036020816000541660405193848092630536340960e21b82525afa90811561050057610482926000926104d0575b501633149050610479565b6104f291925060203d81116104f9575b6104ea818361227c565b81019061229e565b90386104c5565b503d6104e0565b6122b6565b600080fd5b34610505576000366003190112610505576020602e54604051908152f35b3461050557604036600319011261050557610544610464612360565b61054d336124a4565b801561056e575b61055d906128a5565b610016602435600435603155603255565b5060046001600160a01b036020816000541660405193848092630536340960e21b82525afa9081156105005761055d926000926105b1575b501633149050610554565b6105ca91925060203d81116104f9576104ea818361227c565b90386105a6565b34610505576000366003190112610505576020603654604051908152f35b34610505576000366003190112610505576020602c54604051908152f35b3461050557600036600319011261050557600e54600f54601054601154601254601354601454604080519788526020880196909652948601939093526060850191909152608084015260a083015260c082015260e090f35b0390f35b3461050557600036600319011261050557602047604051908152f35b34610505576020366003190112610505576106a1610464612360565b6106aa336124a4565b80156106c5575b6106ba906128a5565b610016600435602c55565b5060046001600160a01b036020816000541660405193848092630536340960e21b82525afa908115610500576106ba92600092610708575b5016331490506106b1565b61072191925060203d81116104f9576104ea818361227c565b90386106fd565b34610505576000366003190112610505576020603254604051908152f35b34610505576000366003190112610505576020603154604051908152f35b3461050557600036600319011261050557600754600854600954600a54600b54600c54600d54604080519788526020880196909652948601939093526060850191909152608084015260a083015260c082015260e090f35b34610505576020366003190112610505576107d8610464612360565b6107e1336124a4565b80156107fc575b6107f1906128a5565b610016600435612936565b5060046001600160a01b036020816000541660405193848092630536340960e21b82525afa908115610500576107f19260009261083f575b5016331490506107e8565b61085891925060203d81116104f9576104ea818361227c565b9038610834565b6001600160a01b0381160361050557565b3461050557602080600319360112610505576004908135906108918261085f565b806108b36108a76000546001600160a01b031690565b6001600160a01b031690565b60405194858092634bf9c0ad60e11b82525afa9182156105005761090761094193610923926106659660009261095d575b50610915906040519384918783019190916001600160a01b036020820193169052565b03601f19810184528361227c565b61091d61254e565b9061272f565b919080610953575b61093490612587565b808251830101910161234b565b60405190151581529081906020820190565b508151811461092b565b61091591925061097990863d88116104f9576104ea818361227c565b91906108e4565b3461050557602036600319011261050557600460206001600160a01b0360005416604051928380926369e8d84b60e11b82525afa8015610500576109e5610a099161066593600091610a19575b506109d6612cfa565b906109df612d12565b9061281c565b610a04600435916109ff6109fa602e546128f0565b6128f0565b612d4b565b612923565b6040519081529081906020820190565b610a31915060203d81116104f9576104ea818361227c565b386109cd565b8015150361050557565b3461050557602036600319011261050557600435610a5e81610a37565b610a69610464612360565b610a72336124a4565b8015610a98575b90610a86610016926128a5565b60ff8019603754169115151617603755565b506001600160a01b039060046020836000541660405192838092630536340960e21b82525afa80156105005761001693610a8692600092610ae2575b503391161491925050610a79565b610afb91925060203d81116104f9576104ea818361227c565b9038610ad4565b34610505576000366003190112610505576020602b54604051908152f35b346105055760003660031901126105055760206001600160a01b0360005416604051908152f35b346105055760203660031901126105055760043560005260056020526040600020805461066560026001840154930154604051938493846040919493926060820195825260208201520152565b34610505576000366003190112610505576020602954604051908152f35b3461050557606036600319011261050557610bce610464612360565b610bd7336124a4565b8015610bf8575b610be7906128a5565b610016604435602435600435612a5e565b5060046001600160a01b036020816000541660405193848092630536340960e21b82525afa90811561050057610be792600092610c3b575b501633149050610bde565b610c5491925060203d81116104f9576104ea818361227c565b9038610c30565b3461050557602036600319011261050557610c77610464612360565b610c80336124a4565b8015610c9b575b610c90906128a5565b610016600435602855565b5060046001600160a01b036020816000541660405193848092630536340960e21b82525afa90811561050057610c9092600092610cde575b501633149050610c87565b610cf791925060203d81116104f9576104ea818361227c565b9038610cd3565b3461050557604036600319011261050557610d1a610464612360565b610d23336124a4565b8015610d44575b610d33906128a5565b610016602435600435602a55602b55565b5060046001600160a01b036020816000541660405193848092630536340960e21b82525afa90811561050057610d3392600092610d87575b501633149050610d2a565b610da091925060203d81116104f9576104ea818361227c565b9038610d7c565b34610505576020366003190112610505576004356000526030602052604060002060018154910154906106656040519283928360209093929193604081019481520152565b34610505576000366003190112610505576020602d54604051908152f35b3461050557602036600319011261050557600460206001600160a01b0360005416604051928380926369e8d84b60e11b82525afa801561050057610e5f610a099161066593600091610a1957506109d6612cfa565b60043560005260036020526109ff6040600020546128f0565b34610505576000366003190112610505576020602854604051908152f35b346105055760003660031901126105055760e060225460235460405191825260ff9081811615156020840152818160081c1615156040840152818160101c1615156060840152818160181c1615156080840152818160201c16151560a084015260281c16151560c0820152f35b346105055760003660031901126105055760265460275460408051928352602083019190915290f35b346105055760c036600319011261050557610f48610464612360565b610f51336124a4565b8015610f7b575b610f61906128a5565b61001660a435608435606435604435602435600435612944565b5060046001600160a01b036020816000541660405193848092630536340960e21b82525afa90811561050057610f6192600092610fbe575b501633149050610f58565b610fd791925060203d81116104f9576104ea818361227c565b9038610fb3565b3461050557602036600319011261050557600435600052600660205260a06040600020805490600181015490600281015460046003830154920154926040519485526020850152604084015260608301526080820152f35b3461050557600036600319011261050557601c54601d54601e5460408051938452602084019290925290820152606090f35b34610505576000366003190112610505576020602654604051908152f35b60809060031901126105055760043590602435906044359060643590565b34610505576110b236611086565b926110c1610464939293612360565b6110ca336124a4565b8015611112575b906110dd6002926128a5565b6110e5612bc2565b5060018114611101575b146110f657005b601f55602055602155005b82601c5583601d5584601e556110ef565b506001600160a01b039060046020836000541660405192838092630536340960e21b82525afa8015610500576002936110dd9260009261115b575b5033911614919250506110d1565b61117491925060203d81116104f9576104ea818361227c565b903861114d565b3461050557602036600319011261050557611197610464612360565b6111a0336124a4565b80156111bb575b6111b0906128a5565b610016600435602d55565b5060046001600160a01b036020816000541660405193848092630536340960e21b82525afa908115610500576111b0926000926111fe575b5016331490506111a7565b61121791925060203d81116104f9576104ea818361227c565b90386111f3565b346105055760203660031901126105055760043560005260036020526020604060002054604051908152f35b346105055760203660031901126105055760043561126781610a37565b611272610464612360565b61127b336124a4565b80156112a1575b9061128f610016926128a5565b60ff8019602454169115151617602455565b506001600160a01b039060046020836000541660405192838092630536340960e21b82525afa8015610500576100169361128f926000926112eb575b503391161491925050611282565b61130491925060203d81116104f9576104ea818361227c565b90386112dd565b3461050557602036600319011261050557611327610464612360565b611330336124a4565b801561134b575b611340906128a5565b610016600435603355565b5060046001600160a01b036020816000541660405193848092630536340960e21b82525afa908115610500576113409260009261138e575b501633149050611337565b6113a791925060203d81116104f9576104ea818361227c565b9038611383565b34610505576000366003190112610505576020603354604051908152f35b34610505576000366003190112610505576020603454604051908152f35b346105055760003660031901126105055760206001600160a01b0360015416604051908152f35b34610505576000366003190112610505576020602754604051908152f35b34610505576000366003190112610505576020602f54604051908152f35b3461050557602036600319011261050557611469610464612360565b611472336124a4565b801561148d575b611482906128a5565b610016600435602955565b5060046001600160a01b036020816000541660405193848092630536340960e21b82525afa90811561050057611482926000926114d0575b501633149050611479565b6114e991925060203d81116104f9576104ea818361227c565b90386114c5565b346105055760e03660031901126105055760243561150d81610a37565b60443561151981610a37565b60643561152581610a37565b60843561153181610a37565b60a4359161153e83610a37565b60c4359361154b85610a37565b611556610464612360565b61155f336124a4565b801561157b575b95611573610016976128a5565b600435612aad565b506001600160a01b039560046020886000541660405192838092630536340960e21b82525afa80156105005761001698611573926000926115c5575b503391161491975050611566565b6115de91925060203d81116104f9576104ea818361227c565b90386115b7565b346105055761010036600319011261050557611602610464612360565b61160b336124a4565b801561163b575b61161b906128a5565b61001660e43560c43560a435608435606435604435602435600435612c09565b5060046001600160a01b036020816000541660405193848092630536340960e21b82525afa9081156105005761161b9260009261167e575b501633149050611612565b61169791925060203d81116104f9576104ea818361227c565b9038611673565b6102a0810192916000915b600783106116b657505050565b600190606083519182518152602092838101518483015260408091015190820152019201920191906116a9565b346105055760003660031901126105055760405161170081612207565b60005b60e08110611891576106656117166122c2565b6001600052600560205261174e7f1471eb6eb2c5e789fc3de43f8ce62938c7d1836ec861730447e2ada8fd81017b612be1565b612be1565b8152600260005260056020526117837f89832631fb3c3307a103ba2c84ab569c64d6182a18893dcd163f0f1c2090733a612be1565b60208201526117a061174960036000526005602052604060002090565b6040820152600460005260056020526117d87f3eec716f11ba9e820c81ca75eb978ffb45831ef8b7a53e5e422c26008e1ca6d5612be1565b6060820152600560008190526020526118107f458b30c2d72bfd2c6317304a4594ecbafe5f729d3111b65fdc3a33bd48e5432d612be1565b6080820152600660005260056020526118487f069400f22b28c6c362558d92f66163cec5671cba50b61abd2eecfcd0eaeac518612be1565b60a0820152600760005260056020526118807feddb6698d7c569ff62ff64f1f1492bf14a54594835ba0faac91f84b4f5d81460612be1565b60c08201526040519182918261169e565b60209061189c612bc2565b8184015201611703565b3461050557600036600319011261050557600460206001600160a01b03600054166040519283809263d1f956b160e01b82525afa9081156105005761066591610a0991600091611936575b506040516118fe81612244565b601381527f67657464656c656761746f72436f756e7428290000000000000000000000000060208201526119306122ed565b9161281c565b61194e915060203d81116104f9576104ea818361227c565b386118f1565b34610505576000366003190112610505576020602a54604051908152f35b346105055760403660031901126105055761198e610464612360565b611997336124a4565b80156119b8575b6119a7906128a5565b610016602435600435603455603555565b5060046001600160a01b036020816000541660405193848092630536340960e21b82525afa908115610500576119a7926000926119fb575b50163314905061199e565b611a1491925060203d81116104f9576104ea818361227c565b90386119f0565b34610505576020366003190112610505576004356000526004602052604060002060018154910154906106656040519283928360209093929193604081019481520152565b34610505576000366003190112610505576020602554604051908152f35b34610505576020366003190112610505576020611aa5600435611aa08161085f565b6124a4565b6040519015158152f35b3461050557600036600319011261050557602060ff603754166040519015158152f35b34610505576000366003190112610505576020603554604051908152f35b3461050557600036600319011261050557601f5460208054602154604080519485529284019190915290820152606090f35b346105055760203660031901126105055760046001600160a01b036020816000541660405193848092630536340960e21b82525afa91821561050057600092611bbe575b5033911603611b7a5761001660043561263b565b606460405162461bcd60e51b815260206004820152600f60248201527f6f776e2e6e6f6e617574682e44414f00000000000000000000000000000000006044820152fd5b611bd791925060203d81116104f9576104ea818361227c565b9038611b66565b3461050557604036600319011261050557611bfa610464612360565b611c03336124a4565b8015611c24575b611c13906128a5565b610016602435600435602655602755565b5060046001600160a01b036020816000541660405193848092630536340960e21b82525afa90811561050057611c1392600092611c67575b501633149050611c0a565b611c8091925060203d81116104f9576104ea818361227c565b9038611c5c565b3461050557602036600319011261050557600435611ca48161085f565b803b6000611cb1826122d1565b92611cbf604051948561227c565b82845260208401903c602d815110611ce557602a015160405160609190911c8152602090f35b606460405162461bcd60e51b815260206004820152601360248201527f4e6f742061206d696e696d616c2070726f7879000000000000000000000000006044820152fd5b3461050557611d3736611086565b90611d46610464949394612360565b611d4f336124a4565b8015611dab575b92611d626002946128a5565b611d6e60088210612a13565b60405194611d7b86612228565b85526020850191825260408501928352600052600560205260406000209351845551600184015551910155600080f35b506001600160a01b039260046020856000541660405192838092630536340960e21b82525afa801561050057600295611d6292600092611df4575b503391161491945050611d56565b611e0d91925060203d81116104f9576104ea818361227c565b9038611de6565b34610505576020806003193601126105055760048035611e338161085f565b6001600160a01b03928084600054166040519485809263d1f956b160e01b82525afa908115610500576106659461094194600093611e8f575b506040519316818401528252611e8182612244565b611e896125d2565b906127e0565b611ea7919350823d84116104f9576104ea818361227c565b9138611e6c565b34610505576000366003190112610505576020611aa5612360565b3461050557600036600319011261050557601554601654601754601854601954601a54601b54604080519788526020880196909652948601939093526060850191909152608084015260a083015260c082015260e090f35b3461050557602036600319011261050557611f3d610464612360565b611f46336124a4565b8015611f61575b611f56906128a5565b610016600435602e55565b5060046001600160a01b036020816000541660405193848092630536340960e21b82525afa90811561050057611f5692600092611fa4575b501633149050611f4d565b611fbd91925060203d81116104f9576104ea818361227c565b9038611f99565b3461050557602036600319011261050557611fe0610464612360565b611fe9336124a4565b8015612004575b611ff9906128a5565b610016600435603655565b5060046001600160a01b036020816000541660405193848092630536340960e21b82525afa90811561050057611ff992600092612047575b501633149050611ff0565b61206091925060203d81116104f9576104ea818361227c565b903861203c565b3461050557604036600319011261050557612083610464612360565b61208c336124a4565b80156120aa575b61209c906128a5565b610016602435600435612ba6565b5060046001600160a01b036020816000541660405193848092630536340960e21b82525afa9081156105005761209c926000926120ed575b501633149050612093565b61210691925060203d81116104f9576104ea818361227c565b90386120e2565b3461050557600036600319011261050557602060ff602454166040519015158152f35b3461050557600036600319011261050557600460206001600160a01b0360005416604051928380927f447aa3040000000000000000000000000000000000000000000000000000000082525afa9081156105005761066591610a09916000916121d3575b506040516121a181612244565b600581527f616765282900000000000000000000000000000000000000000000000000000060208201526119306122ed565b6121eb915060203d81116104f9576104ea818361227c565b38612194565b634e487b7160e01b600052604160045260246000fd5b60e0810190811067ffffffffffffffff82111761222357604052565b6121f1565b6060810190811067ffffffffffffffff82111761222357604052565b6040810190811067ffffffffffffffff82111761222357604052565b6020810190811067ffffffffffffffff82111761222357604052565b90601f8019910116810190811067ffffffffffffffff82111761222357604052565b9081602091031261050557516122b38161085f565b90565b6040513d6000823e3d90fd5b604051906122cf82612207565b565b67ffffffffffffffff811161222357601f01601f191660200190565b604051906122fa82612260565b60008252565b1561230757565b606460405162461bcd60e51b815260206004820152601960248201527f6f776e2e7361666567756172642e63616c6c2e6661696c6564000000000000006044820152fd5b9081602091031261050557516122b381610a37565b6001600160a01b03600054166040518091634bf9c0ad60e11b825281600460209384935afa918215610500576122b3926123e891600091612403575b506040516123a981612244565b600881527f697353616665282900000000000000000000000000000000000000000000000084820152604051916123df83612260565b6000835261272f565b9190806123f9575b61093490612300565b50815181146123f0565b61241a9150833d85116104f9576104ea818361227c565b3861239c565b6040519061242d82612244565b601582527f69735365637572654261736528616464726573732900000000000000000000006020830152565b1561246057565b606460405162461bcd60e51b815260206004820152601a60248201527f6f776e2e736563757265626173652e63616c6c2e6661696c65640000000000006044820152fd5b6000546001600160a01b0316604051918291634bf9c0ad60e11b835282600460209485935afa928315610500576122b393612510926109079260009261252b575b50612508906040519384918783019190916001600160a01b036020820193169052565b61091d612420565b919080612521575b61093490612459565b5081518114612518565b61250891925061254790863d88116104f9576104ea818361227c565b91906124e5565b6040519061255b82612244565b601182527f69735369676e65722861646472657373290000000000000000000000000000006020830152565b1561258e57565b606460405162461bcd60e51b815260206004820152601660248201527f6f776e2e7369676e65722e63616c6c2e6661696c6564000000000000000000006044820152fd5b604051906125df82612244565b601882527f697364656c656761746f724e6f646528616464726573732900000000000000006020830152565b3d15612636573d9061261c826122d1565b9161262a604051938461227c565b82523d6000602084013e565b606090565b6000600460206001600160a01b03835416604051928380927f46f991ac0000000000000000000000000000000000000000000000000000000082525afa908115610500578284819382938391612711575b505af161269761260b565b50156126cd5760405190815233907fcdcc745fe377b103b45fa0cec23ae3ef93d6fc6a84a01f0d18c40b354dd1d5d890602090a2565b606460405162461bcd60e51b815260206004820152600f60248201527f6f776e2e6275726e2e6661696c656400000000000000000000000000000000006044820152fd5b612729915060203d81116104f9576104ea818361227c565b3861268c565b9190823b156127c7577fffffffff00000000000000000000000000000000000000000000000000000000815160208093012016916040519180830193845281519160005b8381106127b35750505091816127a06024826000979596889701878382015203600481018452018261227c565b5191620dbba0fa6127af61260b565b9091565b818101830151858201602401528201612773565b5050506000906040516127d981612260565b6000815290565b92916127ee9160009461272f565b9080612811575b6127fc5750565b6122b39192506020808251830101910161234b565b5060208151146127f5565b929161282a9160009461272f565b908061284f575b6128385750565b909150602081805181010312610505576020015190565b506020815114612831565b1561286157565b606460405162461bcd60e51b815260206004820152601260248201527f6f776e2e696e76616c69642e69735361666500000000000000000000000000006044820152fd5b156128ac57565b606460405162461bcd60e51b815260206004820152601b60248201527f6f776e2e6e6f6e617574682e44414f6f725365637572656261736500000000006044820152fd5b90670de0b6b3a76400009182810292818404149015171561290d57565b634e487b7160e01b600052601160045260246000fd5b8181029291811591840414171561290d57565b61293f906128f0565b602f55565b91929394909460108310156129cf576040519460a086019486861067ffffffffffffffff871117612223576122cf976129a096604052875260208701526040860152606085015260808401526000526006602052604060002090565b906080600491805184556020810151600185015560408101516002850155606081015160038501550151910155565b606460405162461bcd60e51b815260206004820152600d60248201527f696e76616c6964206c6576656c000000000000000000000000000000000000006044820152fd5b15612a1a57565b606460405162461bcd60e51b815260206004820152600c60248201527f696e76616c69642072616e6b00000000000000000000000000000000000000006044820152fd5b91612a6b60088410612a13565b60405192604084019284841067ffffffffffffffff85111761222357600193604052845260208401918252600052600460205260406000209251835551910155565b612b85946122cf9794612b1e612b6695612b499460c09a9660405190612ad282612207565b8282521515928360208301521515948560408301521515958660608301521515978860808301521515998a60a083015215159b8c91015260225560ff8019602354169115151617602355565b6023805462ffff00191660089290921b61ff00169190911791151560101b62ff000016919091179055565b63ff00000060235491151560181b169063ff000000191617602355565b64ff0000000060235491151560201b169064ff00000000191617602355565b65ff000000000060235491151560281b169065ff0000000000191617602355565b612bb260088210612a13565b6000526003602052604060002055565b60405190612bcf82612228565b60006040838281528260208201520152565b90604051612bee81612228565b60406002829480548452600181015460208501520154910152565b949192600396939794919760405198612c218a612207565b808a528160208b01528260408b01528360608b01528460808b01528560a08b01528660c08b015260018814612cd9575b5050505050505060028114612c9f575b14612c695750565b8051601555602081015160165560408101516017556060810151601855608081015160195560a0810151601a5560c00151601b55565b8251600e556020830151600f5560408301516010556060830151601155608083015160125560a083015160135560c0830151601455612c61565b600755600855600955600a55600b55600c55600d5538808080808080612c51565b604051612d0681612260565b60008152906000368137565b60405190612d1f82612244565b601282527f6f7a6f6e655072696365496e55534454282900000000000000000000000000006020830152565b8115612d55570490565b634e487b7160e01b600052601260045260246000fdfea26469706673582212204475014e62345a44748015a05c5e4df8f68755b70d46a4eeb1a134a50ba6a8d664736f6c63430008140033","linkReferences":{}},"methodIdentifiers":{"rule741()":"0a5b38ab","transferRequest()":"3da8676f"},"id":68}