{"abi":[{"type":"constructor","inputs":[{"name":"_hex","type":"address","internalType":"address"},{"name":"_price","type":"address","internalType":"address"},{"name":"_old741","type":"address","internalType":"address"}],"stateMutability":"nonpayable"},{"type":"function","name":"dAOAssembly","inputs":[],"outputs":[{"name":"","type":"address","internalType":"address"}],"stateMutability":"view"},{"type":"function","name":"daocore","inputs":[],"outputs":[{"name":"","type":"address","internalType":"address"}],"stateMutability":"view"},{"type":"function","name":"nested741","inputs":[],"outputs":[{"name":"","type":"address","internalType":"address"}],"stateMutability":"view"},{"type":"function","name":"old741","inputs":[],"outputs":[{"name":"","type":"address","internalType":"address"}],"stateMutability":"view"},{"type":"function","name":"price","inputs":[],"outputs":[{"name":"","type":"address","internalType":"address"}],"stateMutability":"view"}],"bytecode":{"object":"0x6080346101b757601f6192ae38819003918201601f19168301926001600160401b03929091838511838610176101a15781606092849260409788528339810103126101b75761004d816101bc565b6100648461005d602085016101bc565b93016101bc565b9160018060a01b03199273c0cee8b561cc4f60869776ca5b0b7a295e04f5af846001541617600155855161120a9586820196828810828911176101a15761032583396001600160a01b039485168088526000979092908190036020019088f080156101835785168660035416176003558751615e21808201908282108483111761018d57602091839161348d833985815203019088f08015610183578516866002541617600255875191611f5e808401928484109084111761016f5791839160209361152f8439815203019086f080156101655790838092168560045416176004551683600154161760015516908254161790555161015490816101d18239f35b86513d87823e3d90fd5b634e487b7160e01b89526041600452602489fd5b88513d89823e3d90fd5b634e487b7160e01b8a52604160045260248afd5b634e487b7160e01b600052604160045260246000fd5b600080fd5b51906001600160a01b03821682036101b75756fe608080604052600436101561001357600080fd5b600090813560e01c90816314837455146100f55750806314d8d024146100ce57806345cff900146100a75780635540c5ac146100805763a035b1fe1461005857600080fd5b3461007d578060031936011261007d576001600160a01b036020915416604051908152f35b80fd5b503461007d578060031936011261007d5760206001600160a01b0360015416604051908152f35b503461007d578060031936011261007d5760206001600160a01b0360025416604051908152f35b503461007d578060031936011261007d5760206001600160a01b0360045416604051908152f35b90503461011a578160031936011261011a576020906001600160a01b03600354168152f35b5080fdfea2646970667358221220e549b0479011086785cf3deb0ff006f15a3009792be2820512a14c7096b41db364736f6c6343000814003360803461009757601f61120a38819003918201601f19168301916001600160401b0383118484101761009c5780849260209460405283398101031261009757516001600160a01b038116908190036100975780156100855760018060a01b0319338160015416176001556000541617600055600060035560405161115790816100b38239f35b60405163e6c4247b60e01b8152600490fd5b600080fd5b634e487b7160e01b600052604160045260246000fdfe60806040526004361015610018575b361561001657005b005b60003560e01c806312065fe0146101085780631f185d161461010357806325924f34146100fe5780633b9b7955146100f957806361b7fbd9146100f45780638da5cb5b146100ef578063a1f7f539146100ea578063af484526146100e5578063b90306ad146100e0578063c54e44b0146100db578063c89b84fd146100d6578063dbac26e9146100d1578063e01ad5fd146100cc578063e0a9bc2b146100c75763fdc10bc90361000e576108bc565b610837565b61079d565b61075a565b610650565b6105ca565b610543565b610496565b6103d8565b6103b1565b6102ea565b6102b9565b610288565b61013a565b3461012457600036600319011261012457602047604051908152f35b600080fd5b6001600160a01b0381160361012457565b34610124576020806003193601126101245760043561015881610129565b60048261017c6101706000546001600160a01b031690565b6001600160a01b031690565b60405192838092634bf9c0ad60e11b82525afa8015610283576101e4926101c892600092610250575b506101d6906040519384918783019190916001600160a01b036020820193169052565b03601f198101845283610932565b6101de610d19565b90610fa8565b919080610246575b1561021c5781816102069261021894518301019101610ccb565b60405190151581529081906020820190565b0390f35b60046040517f3204506f000000000000000000000000000000000000000000000000000000008152fd5b50808251146101ec565b6101d691925061027590863d881161027c575b61026d8183610932565b810190610954565b91906101a5565b503d610263565b61096c565b346101245760203660031901126101245760206102af6004356102aa81610129565b610a8b565b6040519015158152f35b346101245760003660031901126101245760206001600160a01b0360005416604051908152f35b8015150361012457565b346101245760403660031901126101245760043561030781610129565b602435610313816102e0565b60046001600160a01b03602061033382600054166001600160a01b031690565b60405193848092630536340960e21b82525afa91821561028357600092610391575b50339116036103675761001691610c3b565b60046040517fea8e4eb5000000000000000000000000000000000000000000000000000000008152fd5b6103aa91925060203d811161027c5761026d8183610932565b9038610355565b346101245760003660031901126101245760206001600160a01b0360015416604051908152f35b3461012457600036600319011261012457600460206001600160a01b03600054166040519283809263d1f956b160e01b82525afa908115610283576102189161046891600091610478575b50604051610430816108f5565b601381527f67657464656c656761746f72436f756e742829000000000000000000000000006020820152610462610994565b916110e3565b6040519081529081906020820190565b610490915060203d811161027c5761026d8183610932565b38610423565b3461012457602080600319360112610124576004356104b481610129565b6004826104cc6101706000546001600160a01b031690565b60405192838092634bf9c0ad60e11b82525afa8015610283576101e4926101c892600092610520575b50610518906040519384918783019190916001600160a01b036020820193169052565b6101de610ce0565b61051891925061053c90863d881161027c5761026d8183610932565b91906104f5565b346101245760203660031901126101245760046001600160a01b03602061057482600054166001600160a01b031690565b60405193848092630536340960e21b82525afa918215610283576000926105aa575b503391160361036757610016600435610e74565b6105c391925060203d811161027c5761026d8183610932565b9038610596565b34610124576020366003190112610124576004356105e781610129565b803b60006105f482610978565b926106026040519485610932565b82845260208401903c602d81511061062657602a602091015160601c604051908152f35b60046040517fbaf3f0f7000000000000000000000000000000000000000000000000000000008152fd5b34610124576000806003193601126107575761067661017082546001600160a01b031690565b906040519163cfbffe5360e01b835260208084600481855afa8015610283576106b58291600496869161073a575b506106ad6109a7565b610462610994565b926040519586809263ab6e844f60e01b82525afa90811561028357610218946104689492610717575b50610709906101c86106ee610d52565b94604051958693840160209093929193604081019481520152565b610711610bec565b906110e3565b81925061073390610709923d851161027c5761026d8183610932565b91906106de565b6107519150833d851161027c5761026d8183610932565b386106a4565b80fd5b34610124576020366003190112610124576001600160a01b0360043561077f81610129565b166000526002602052602060ff604060002054166040519015158152f35b346101245760208060031936011261012457600480356107bc81610129565b6001600160a01b03928084600054166040519485809263d1f956b160e01b82525afa908115610283576102189461020694600093610818575b50604051931681840152825261080a826108f5565b610812610e0b565b906110a7565b610830919350823d841161027c5761026d8183610932565b91386107f5565b346101245760003660031901126101245761085d6101706000546001600160a01b031690565b6040518091634bf9c0ad60e11b825281600460209485935afa8015610283576101e49160009161089f575b50610891610c92565b610899610994565b91610fa8565b6108b69150833d851161027c5761026d8183610932565b38610888565b346101245760003660031901126101245760206108d7610d52565b604051908152f35b634e487b7160e01b600052604160045260246000fd5b6040810190811067ffffffffffffffff82111761091157604052565b6108df565b6020810190811067ffffffffffffffff82111761091157604052565b90601f8019910116810190811067ffffffffffffffff82111761091157604052565b90816020910312610124575161096981610129565b90565b6040513d6000823e3d90fd5b67ffffffffffffffff811161091157601f01601f191660200190565b604051906109a182610916565b60008252565b604051906109b4826108f5565b600c82527f72616e6b666f7244414f282900000000000000000000000000000000000000006020830152565b604051906109ed826108f5565b601682527f67657455736572546f53746f72286164647265737329000000000000000000006020830152565b60405190610a26826108f5565b600682527f72616e6b282900000000000000000000000000000000000000000000000000006020830152565b60405190610a5f826108f5565b600882527f69734c6f636b28290000000000000000000000000000000000000000000000006020830152565b610aa06101706000546001600160a01b031690565b9060405163cfbffe5360e01b81526020908181600481875afa801561028357610ad7839160049360009161073a57506106ad6109a7565b946040519283809263ab6e844f60e01b82525afa801561028357610b30928492600092610bc9575b506040516001600160a01b03909316908301908152610b229083906020016101c8565b610b2a6109e0565b90611056565b916001600160a01b03831615610bc157610b74610b5d610b4e610a19565b610b56610994565b90866110e3565b93610b66610a52565b610b6e610994565b916110a7565b9210159182610bb8575b5081610b88575090565b6109699150610bad610bb4916001600160a01b03166000526002602052604060002090565b5460ff1690565b1590565b15915038610b7e565b505050600090565b819250610be590610b22923d851161027c5761026d8183610932565b9190610aff565b60405190610bf9826108f5565b601d82527f67657472616e6b636f756e742875696e743235362c75696e74323536290000006020830152565b634e487b7160e01b600052601160045260246000fd5b6001600160a01b03166000526002602052604060002060ff1981541660ff83151516179055600014610c80576003546000198114610c7b57600101600355565b610c25565b6003548015610c7b5760001901600355565b60405190610c9f826108f5565b600882527f69735361666528290000000000000000000000000000000000000000000000006020830152565b908160209103126101245751610969816102e0565b60405190610ced826108f5565b601582527f69735365637572654261736528616464726573732900000000000000000000006020830152565b60405190610d26826108f5565b601182527f69735369676e65722861646472657373290000000000000000000000000000006020830152565b600460206001600160a01b0360005416604051928380927f447aa3040000000000000000000000000000000000000000000000000000000082525afa80156102835761096991600091610ded575b50604051610dad816108f5565b600581527f6167652829000000000000000000000000000000000000000000000000000000602082015260405191610de483610916565b600083526110e3565b610e05915060203d811161027c5761026d8183610932565b38610da0565b60405190610e18826108f5565b601882527f697364656c656761746f724e6f646528616464726573732900000000000000006020830152565b3d15610e6f573d90610e5582610978565b91610e636040519384610932565b82523d6000602084013e565b606090565b6000610e8a61017082546001600160a01b031690565b9060405180927f46f991ac00000000000000000000000000000000000000000000000000000000825281600460209586935afa80156102835782808681949382948391610f8b575b505af1610edd610e44565b501561021c57600482610efa61017084546001600160a01b031690565b604051928380927f5e09dbe70000000000000000000000000000000000000000000000000000000082525afa908115610283577fcdcc745fe377b103b45fa0cec23ae3ef93d6fc6a84a01f0d18c40b354dd1d5d8936001600160a01b039392610f6e575b50506040519384521691602090a2565b610f849250803d1061027c5761026d8183610932565b3880610f5e565b610fa29150883d8a1161027c5761026d8183610932565b38610ed2565b9190823b1561103d577fffffffff00000000000000000000000000000000000000000000000000000000815160208093012016916040519180830193845281519160005b83811061102957505050918161101960248260009795968897018783820152036004810184520182610932565b51915afa611025610e44565b9091565b818101830151858201602401528201610fec565b50505060009060405161104f81610916565b6000815290565b929161106491600094610fa8565b908061109c575b6110725750565b9091506020818051810103126101245760206001600160a01b0391015161109881610129565b1690565b50602081511461106b565b92916110b591600094610fa8565b90806110d8575b6110c35750565b61096991925060208082518301019101610ccb565b5060208151146110bc565b92916110f191600094610fa8565b9080611116575b6110ff5750565b909150602081805181010312610124576020015190565b5060208151146110f856fea26469706673582212208343f5ff974a81e5a378a1b64189c24796b8a74dac4ec95391ce3c4c63dbec0264736f6c6343000814003360803461009b57601f611f5e38819003918201601f19168301916001600160401b038311848410176100a05780849260209460405283398101031261009b57516001600160a01b0381169081900361009b5780156100895760018060a01b0319338160015416176001556000541617600055603360025560038055604051611ea790816100b78239f35b60405163e6c4247b60e01b8152600490fd5b600080fd5b634e487b7160e01b600052604160045260246000fdfe60806040526004361015610018575b361561001657005b005b60003560e01c8063013cf08b1461018857806312065fe0146101835780631f185d161461017e5780633b9b7955146101795780634072265b14610174578063438596321461016f5780635c622a0e1461016a57806365153c4b14610165578063709df8d9146101605780638da5cb5b1461015b57806398e527d314610156578063995e433914610151578063a1f7f5391461014c578063af48452614610147578063b90306ad14610142578063c54e44b01461013d578063c7f758a814610138578063c9d27afe14610133578063d153356b1461012e578063e01ad5fd14610129578063e0a9bc2b14610124578063fdc10bc91461011f5763ffa734f00361000e57610ee1565b610e98565b610e7d565b610e56565b610db5565b610c27565b610ba7565b610adb565b610a3b565b6108f1565b6108ce565b61084a565b61082c565b610805565b6107c6565b610667565b610611565b6105ac565b61056f565b610548565b610517565b6104ea565b610425565b6004548110156101c857600c906004600052027f8a35acfbc15ff81a39ae7d344fd709f28e8600b4aa8c65c6b64bfe7fe36bd19b0190600090565b634e487b7160e01b600052603260045260246000fd5b90600182811c9216801561020e575b60208310146101f857565b634e487b7160e01b600052602260045260246000fd5b91607f16916101ed565b9060009291805491610229836101de565b91828252600193848116908160001461028b575060011461024b575b50505050565b90919394506000526020928360002092846000945b838610610277575050505001019038808080610245565b805485870183015294019385908201610260565b9294505050602093945060ff191683830152151560051b01019038808080610245565b634e487b7160e01b600052604160045260246000fd5b6020810190811067ffffffffffffffff8211176102e057604052565b6102ae565b6040810190811067ffffffffffffffff8211176102e057604052565b90601f8019910116810190811067ffffffffffffffff8211176102e057604052565b9061033e6103379260405193848092610218565b0383610301565b565b60005b8381106103535750506000910152565b8181015183820152602001610343565b9060209161037c81518092818552858086019101610340565b601f01601f1916010190565b9b9997959392909e9d9c9a9896949e8c6101c08091528d016103a991610363565b916001600160a01b031660208d015260408c01528a810360608c01526103ce91610363565b9b60808a015260a089015260c088015260e087015261010086015261012085016103f89115159052565b15156101408401526001600160a01b031661016083015215156101808201526101a00161033e9115159052565b346104e55760203660031901126104e5576004356004548110156104e55761044c9061018d565b506040519061045f826103378184610218565b6104e161047660018301546001600160a01b031690565b60028301549061048860038501610323565b946004850154946005810154966006820154916007810154600a6008830154920154936040519a8b9a8b9560ff8860b81c169a60ff8960b01c169a6001600160a01b038a60101c169a60ff808c60081c169b1699610388565b0390f35b600080fd5b346104e55760003660031901126104e557602047604051908152f35b6001600160a01b038116036104e557565b346104e55760203660031901126104e557602061053e60043561053981610506565b611867565b6040519015158152f35b346104e55760003660031901126104e55760206001600160a01b0360005416604051908152f35b346104e55760203660031901126104e55760043560001981019081116105a757600561059c60209261018d565b500154604051908152f35b611282565b346104e55760403660031901126104e5576004356024356105cc81610506565b60001982019182116105a75761060560ff9160096105eb60209561018d565b5001906001600160a01b0316600052602052604060002090565b54166040519015158152f35b346104e55760203660031901126104e55760043560001981019081116105a757600a61063e60409261018d565b50015460ff825191818160b01c161515835260b81c1615156020820152f35b801515036104e557565b346104e55760403660031901126104e5576004356024356106878161065d565b61069033611867565b1561079c5760056106a86106a384611311565b61018d565b5061076c61075f600b83016106e96106e46106e06106d93385906001600160a01b0316600052602052604060002090565b5460ff1690565b1590565b611497565b610747600a85015461070160ff8260b81c16156113b6565b61071060ff8260081c16611320565b61071c60ff82166114e2565b6107336107276118fa565b6007880154111561152d565b60101c6001600160a01b031633141561144c565b336001600160a01b0316600052602052604060002090565b805460ff19166001179055565b016107778154611578565b809155600354148015610794575b61078b57005b6100169161164a565b508015610785565b60046040517fea8e4eb5000000000000000000000000000000000000000000000000000000008152fd5b346104e55760403660031901126104e5576004356024356107e681610506565b60001982019182116105a75761060560ff91600b6105eb60209561018d565b346104e55760003660031901126104e55760206001600160a01b0360015416604051908152f35b346104e55760003660031901126104e5576020600454604051908152f35b346104e55760203660031901126104e55760043560001981019081116105a7576108739061018d565b506004810154600682015460078301546008840154600a9094015460408051948552602085019390935291830152606082019290925260ff60b083901c81161515608083015260b89290921c909116151560a082015260c090f35b346104e55760003660031901126104e55760206108e9611a94565b604051908152f35b346104e5576020806003193601126104e55760043561090f81610506565b6004826109336109276000546001600160a01b031690565b6001600160a01b031690565b60405192838092634bf9c0ad60e11b82525afa8015610a365761099b9261097f92600092610a03575b5061098d906040519384918783019190916001600160a01b036020820193169052565b03601f198101845283610301565b6109956117f5565b90611c8f565b9190806109f9575b156109cf5781816109bd926104e194518301019101611721565b60405190151581529081906020820190565b60046040517f3204506f000000000000000000000000000000000000000000000000000000008152fd5b50808251146109a3565b61098d919250610a2890863d8811610a2f575b610a208183610301565b8101906116ce565b919061095c565b503d610a16565b6116e6565b346104e55760203660031901126104e55760046001600160a01b036020610a6c82600054166001600160a01b031690565b604051938480927f14d8d0240000000000000000000000000000000000000000000000000000000082525afa918215610a3657600092610abb575b503391160361079c57610016600435611b5b565b610ad491925060203d8111610a2f57610a208183610301565b9038610aa7565b346104e55760203660031901126104e557600435610af881610506565b803b6000610b05826116f2565b92610b136040519485610301565b82845260208401903c602d815110610b3757602a602091015160601c604051908152f35b60046040517fbaf3f0f7000000000000000000000000000000000000000000000000000000008152fd5b94919093610b7d60a0959897949860c0885260c0880190610363565b976001600160a01b0380931660208801526040870152166060850152151560808401521515910152565b346104e55760203660031901126104e55760043560001981019081116105a757610bd09061018d565b506001600160a01b036104e18160018401541691600284015493610c02610c09600a8301549260405192838092610218565b0382610301565b60405195869560ff84169460ff8560081c169460101c169287610b61565b346104e55760403660031901126104e557600435602435610c478161065d565b610c5033611867565b8015610d92575b610c60906112c6565b610c6c6106a383611311565b50600a8101906008825493610c8560ff86841c16611320565b610c9c6007840154610c956118fa565b111561136b565b610cac60ff8660b81c16156113b6565b610cdf6009840195610733610cda6106e06106d9338b906001600160a01b0316600052602052604060002090565b611401565b60008115610d8c57506001905b610cfe60ff60048601931683546112b9565b8255600090610d7f5750610d3e61075f6001965b610d2460ff60068801991689546112b9565b8855336001600160a01b0316600052602052604060002090565b5491015480911092831593610d73575b505081610d66575b50610d5d57005b61001690611587565b5460ff1615905038610d56565b54101591503880610d4e565b61075f610d3e9196610d12565b90610cec565b50610d9b611736565b8015610c575750610c60610dae336119b3565b9050610c57565b346104e55760403660031901126104e557610dce611736565b15610e2c57333003610de857600435600255602435600355005b606460405162461bcd60e51b815260206004820152600d60248201527f64616f2e66616b652e636f7265000000000000000000000000000000000000006044820152fd5b60046040517f9dc4246e000000000000000000000000000000000000000000000000000000008152fd5b346104e55760203660031901126104e557602061053e600435610e7881610506565b6119b3565b346104e55760003660031901126104e557602061053e611736565b346104e55760003660031901126104e55760206108e96118fa565b9181601f840112156104e55782359167ffffffffffffffff83116104e557602083818601950101116104e557565b346104e55760c03660031901126104e55767ffffffffffffffff600480358281116104e557610f139036908301610eb3565b9092602435610f2181610506565b6064358281116104e557610f389036908601610eb3565b9160a43594610f468661065d565b6001600160a01b0382161561115657865490680100000000000000008210156102e057610f796001928381018a5561018d565b509581116102e057610f9581610f8f88546101de565b88611166565b6000601f82116001146110d85761101c93600a9693836110bc9a99979461100b946104e19e6000926110cd575b5050600019600383901b1c191690821b1787555b8601906001600160a01b03167fffffffffffffffffffffffff0000000000000000000000000000000000000000825416179055565b6044356002850155600384016111ba565b61104261103b61103661102d611a94565b60025490611298565b6112ab565b6064900490565b600882015561105a6084356110556118fa565b6112b9565b60078201550180543360101b75ffffffffffffffffffffffffffffffffffffffff0000167fffffffffffffffffffff000000000000000000000000000000000000000000ff909116176101001760ff191660ff92151592909216919091179055565b546040519081529081906020820190565b013590503880610fc2565b601f198216906110ed88600052602060002090565b91815b818110611140575093808461100b946104e19e61101c99956110bc9e9d9b98600a9d9a10611126575b505050811b018755610fd6565b0135600019600384901b60f8161c19169055388080611119565b8c830135845592850192602092830192016110f0565b8660405163e6c4247b60e01b8152fd5b90601f811161117457505050565b600091825260208220906020601f850160051c830194106111b0575b601f0160051c01915b8281106111a557505050565b818155600101611199565b9092508290611190565b90929167ffffffffffffffff81116102e0576111e0816111da84546101de565b84611166565b6000601f821160011461121a578192939460009261120f575b50508160011b916000199060031b1c1916179055565b0135905038806111f9565b601f1982169461122f84600052602060002090565b91805b87811061126a575083600195969710611250575b505050811b019055565b0135600019600384901b60f8161c19169055388080611246565b90926020600181928686013581550194019101611232565b634e487b7160e01b600052601160045260246000fd5b818102929181159184041417156105a757565b90606382018092116105a757565b919082018092116105a757565b156112cd57565b606460405162461bcd60e51b815260206004820152601660248201527f64616f2e6e6f6e617574682e64656c656761746f7273000000000000000000006044820152fd5b6000198101919082116105a757565b1561132757565b606460405162461bcd60e51b815260206004820152601160248201527f64616f2e70726f702e6e6f7465786973740000000000000000000000000000006044820152fd5b1561137257565b606460405162461bcd60e51b815260206004820152601060248201527f64616f2e766f74696e672e656e646564000000000000000000000000000000006044820152fd5b156113bd57565b606460405162461bcd60e51b815260206004820152601560248201527f64616f2e616c72656164792e636f6d706c6574656400000000000000000000006044820152fd5b1561140857565b606460405162461bcd60e51b815260206004820152601160248201527f64616f2e616c72656164792e766f7465640000000000000000000000000000006044820152fd5b1561145357565b606460405162461bcd60e51b815260206004820152601260248201527f64616f2e766f7465722e726573747269637400000000000000000000000000006044820152fd5b1561149e57565b606460405162461bcd60e51b815260206004820152601260248201527f64616f2e616c72656164792e7369676e656400000000000000000000000000006044820152fd5b156114e957565b606460405162461bcd60e51b815260206004820152601360248201527f64616f2e70726f702e6d7573747369676e6564000000000000000000000000006044820152fd5b1561153457565b606460405162461bcd60e51b815260206004820152601360248201527f64616f2e6265666f72652e646561646c696e65000000000000000000000000006044820152fd5b60001981146105a75760010190565b6106a361159391611311565b5060ff600a82016115b181600160b81b60ff60b81b19825416179055565b6115e360048401546008850154811015908161163c575b50825460ff60b01b191690151560b01b60ff60b01b16178255565b5460b01c1680611627575b6115f55750565b8061160d60016116249301546001600160a01b031690565b61161e600360028401549301610323565b90611daa565b50565b5061163560038201546101de565b15156115ee565b9050600685015410386115c8565b6116596106a361169f92611311565b50600a8101805460ff60b81b1916600160b81b1781559092806116bc575b806116ab575b815460ff60b01b191690151560b01b60ff60b01b161781555460b01c60ff1690565b80611627576115f55750565b50600483015460068401541061167d565b50600483015460088401541115611677565b908160209103126104e557516116e381610506565b90565b6040513d6000823e3d90fd5b67ffffffffffffffff81116102e057601f01601f191660200190565b6040519061171b826102c4565b60008252565b908160209103126104e557516116e38161065d565b6001600160a01b03600054166040518091634bf9c0ad60e11b825281600460209485935afa8015610a36576117b1916000916117d8575b5060405161177a816102e5565b600881527f6973536166652829000000000000000000000000000000000000000000000000848201526117ab61170e565b91611c8f565b90806117ce575b156109cf57816116e39282518301019101611721565b50818151146117b8565b6117ef9150833d8511610a2f57610a208183610301565b3861176d565b60405190611802826102e5565b601582527f69735365637572654261736528616464726573732900000000000000000000006020830152565b6040519061183b826102e5565b601182527f69735369676e65722861646472657373290000000000000000000000000000006020830152565b61187c6109276000546001600160a01b031690565b906040518092634bf9c0ad60e11b825281600460209586935afa8015610a36576117b19261097f926000926118d7575b506118cf906040519384918783019190916001600160a01b036020820193169052565b61099561182e565b6118cf9192506118f390863d8811610a2f57610a208183610301565b91906118ac565b600460206001600160a01b0360005416604051928380927f447aa3040000000000000000000000000000000000000000000000000000000082525afa8015610a36576116e391600091611995575b50604051611955816102e5565b600581527f616765282900000000000000000000000000000000000000000000000000000060208201526040519161198c836102c4565b60008352611d22565b6119ad915060203d8111610a2f57610a208183610301565b38611948565b6001600160a01b039081600054169060405192839263d1f956b160e01b845283600460209586935afa938415610a3657600094611a6f575b50604051911682820152818152611a4290611a05816102e5565b604051611a11816102e5565b601881527f697364656c656761746f724e6f6465286164647265737329000000000000000084820152600094611c8f565b919080611a65575b611a5357505090565b6116e392508082518301019101611721565b5080825114611a4a565b611a4292919450611a8c90843d8611610a2f57610a208183610301565b9390916119eb565b600460206001600160a01b03600054166040519283809263d1f956b160e01b82525afa8015610a36576116e391600091611b0d575b50604051611ad6816102e5565b601381527f67657464656c656761746f72436f756e7428290000000000000000000000000060208201526040519161198c836102c4565b611b25915060203d8111610a2f57610a208183610301565b38611ac9565b3d15611b56573d90611b3c826116f2565b91611b4a6040519384610301565b82523d6000602084013e565b606090565b6000611b7161092782546001600160a01b031690565b9060405180927f46f991ac00000000000000000000000000000000000000000000000000000000825281600460209586935afa8015610a365782808681949382948391611c72575b505af1611bc4611b2b565b50156109cf57600482611be161092784546001600160a01b031690565b604051928380927f5e09dbe70000000000000000000000000000000000000000000000000000000082525afa908115610a36577fcdcc745fe377b103b45fa0cec23ae3ef93d6fc6a84a01f0d18c40b354dd1d5d8936001600160a01b039392611c55575b50506040519384521691602090a2565b611c6b9250803d10610a2f57610a208183610301565b3880611c45565b611c899150883d8a11610a2f57610a208183610301565b38611bb9565b803b15611d09576000927fffffffff000000000000000000000000000000000000000000000000000000008360208695519101201690611cf96024604051809360208201958652611ce98151809260208686019101610340565b8101036004810184520182610301565b51915afa611d05611b2b565b9091565b505050600090604051611d1b816102c4565b6000815290565b9291611d3091600094611c8f565b9080611d55575b611d3e5750565b9091506020818051810103126104e5576020015190565b506020815114611d37565b90602082519201517fffffffff00000000000000000000000000000000000000000000000000000000908181169360048110611d9b57505050565b60040360031b82901b16169150565b9190916001600160a01b03811615611e6057600091829184519160208601915af190611dd4611b2b565b9115611dde575090565b805160009190600411611e5a57611df59150611d60565b815115611e055750805190602001fd5b6040517f21c09d340000000000000000000000000000000000000000000000000000000081527fffffffff00000000000000000000000000000000000000000000000000000000919091166004820152602490fd5b50611df5565b600460405163e6c4247b60e01b8152fdfea26469706673582212205b2f1c95d0cfaf7f122aaf2c1528c860b01bba26943cb04d9ce4f84e3ecbcea564736f6c634300081400336080346200009e57601f62005e2138819003918201601f19168301916001600160401b03831184841017620000a3578084926020946040528339810103126200009e57516001600160a01b038116908190036200009e5780156200008c5760018060a01b03193381600154161760015560005416176000556001600255604051615d679081620000ba8239f35b60405163e6c4247b60e01b8152600490fd5b600080fd5b634e487b7160e01b600052604160045260246000fdfe60806040526004361015610018575b361561001657005b005b60003560e01c80629db65514610367578063033eeffb146103625780630e5fd00b1461035d57806312065fe0146103585780631bb49f02146103535780631c53c2801461034e5780631f185d16146103495780632a687c87146103445780632fefc0bf1461033f578063307673e81461033a57806332ff4eab1461033557806333b59a5b146103305780633a7b55b81461032b5780633b9b7955146103265780633baee0ea14610321578063419cb27b1461031c57806342cc9d5714610317578063445850971461031257806344668f231461030d5780634f0f4aa914610308578063509222cd1461030357806350db85d1146102fe57806361ea7208146102f9578063629d671e146102f457806365d2fbd3146102ef5780636a811244146102ea5780636fb412ab146102e557806376fe6c45146102e05780637bb98498146102db57806380f85e33146102d6578063849c22ad146102d1578063896c354a146102cc5780638da5cb5b146102c757806395f72f49146102c257806398b3f215146102bd578063a1f7f539146102b8578063a89d693b146102b3578063af484526146102ae578063b1c49079146102a9578063b366335e146102a4578063b90306ad1461029f578063c43792e31461029a578063c54e44b014610295578063c871372b14610290578063d1e0bbc61461028b578063dcb3fc4a14610286578063e01ad5fd14610281578063e0a9bc2b1461027c578063eb95c66214610277578063eb9e9e2c14610272578063f3ca71241461026d578063fd38093b146102685763fdc10bc90361000e576130a9565b613039565b61300d565b612dda565b612dae565b612d93565b612cf9565b612b17565b612add565b612a5f565b6129d9565b6129ad565b612926565b61287b565b6126ff565b6126d8565b6125b9565b6124cc565b6124a0565b6123f2565b6123cb565b61238b565b61235c565b612322565b612274565b612224565b612080565b6119fd565b6115e6565b6115a8565b61158a565b6114c9565b611475565b611388565b61136a565b611332565b611303565b6112c9565b610bf5565b610ba6565b610a3a565b61095e565b6108b0565b6107df565b6107a7565b6106f9565b6105d0565b61059b565b610536565b61051a565b6104ca565b61048d565b346104885760203660031901126104885761038761038361569b565b1590565b61045e5761039433615793565b80156103d2575b156103a8576100166150dd565b60046040517fea8e4eb5000000000000000000000000000000000000000000000000000000008152fd5b50600460206103f86103ec6000546001600160a01b031690565b6001600160a01b031690565b60405192838092630536340960e21b82525afa9081156104595760009161042b575b506001600160a01b0316331461039b565b61044c915060203d8111610452575b6104448183613157565b810190613428565b3861041a565b503d61043a565b61343d565b60046040517f9dc4246e000000000000000000000000000000000000000000000000000000008152fd5b600080fd5b3461048857602036600319011261048857600435600052600a6020526020604060002054604051908152f35b6001600160a01b0381160361048857565b346104885760203660031901126104885760206004356104e9816104b9565b6001600160a01b03809116600052600382526040600020546000526006825260046040600020015416604051908152f35b3461048857600036600319011261048857602047604051908152f35b3461048857602036600319011261048857600435610553816104b9565b6001600160a01b0390811660009081526003602090815260408083205483526006825280832060020154808452600483529281902054815193845290931690820152f35b0390f35b3461048857602036600319011261048857600435600052600460205260206001600160a01b0360406000205416604051908152f35b3461048857602080600319360112610488576004356105ee816104b9565b6004826106066103ec6000546001600160a01b031690565b60405192838092634bf9c0ad60e11b82525afa80156104595761066e92610652926000926106d6575b50610660906040519384918783019190916001600160a01b036020820193169052565b03601f198101845283613157565b610668615826565b90615aae565b9190806106cc575b156106a25781816106909261059794518301019101615687565b60405190151581529081906020820190565b60046040517f3204506f000000000000000000000000000000000000000000000000000000008152fd5b5080825114610676565b6106609192506106f290863d8811610452576104448183613157565b919061062f565b346104885760403660031901126104885761071561038361569b565b61045e5761072233615793565b801561073c575b156103a857610016602435600435615468565b50600460206107566103ec6000546001600160a01b031690565b60405192838092630536340960e21b82525afa90811561045957600091610789575b506001600160a01b03163314610729565b6107a1915060203d8111610452576104448183613157565b38610778565b3461048857602036600319011261048857600435600052600660205260206001600160a01b0360056040600020015416604051908152f35b346104885760203660031901126104885760043560009033825260036020526108256108206040842054600052600660205260ff6001604060002001541690565b614083565b808252600f60205260ff600260408420015460081c161561086c5761085761086991600052600f602052604060002090565b60026000918281558260018201550155565b80f35b606460405162461bcd60e51b815260206004820152601360248201527f6e65737465642e7265712e6e6f746578697374000000000000000000000000006044820152fd5b34610488576040366003190112610488576108cc61038361569b565b61045e576108d933615793565b80156108f3575b156103a8576100166024356004356154bc565b506004602061090d6103ec6000546001600160a01b031690565b60405192838092630536340960e21b82525afa90811561045957600091610940575b506001600160a01b031633146108e0565b610958915060203d8111610452576104448183613157565b3861092f565b346104885760403660031901126104885761097a61038361569b565b61045e5761098733615793565b80156109a1575b156103a857610016602435600435615558565b50600460206109bb6103ec6000546001600160a01b031690565b60405192838092630536340960e21b82525afa908115610459576000916109ee575b506001600160a01b0316331461098e565b610a06915060203d8111610452576104448183613157565b386109dd565b60e0810192916000915b60078310610a2357505050565b600190825181526020809101920192019190610a16565b3461048857602036600319011261048857610597600435610b94610b8460405192610a6484613103565b60e0368537610a90610a80826000526008602052604060002090565b6001600052602052604060002090565b548452610aba610aaa826000526008602052604060002090565b6002600052602052604060002090565b546020850152610ae7610ad7826000526008602052604060002090565b6003600052602052604060002090565b546040850152610b14610b04826000526008602052604060002090565b6004600052602052604060002090565b546060850152610b41610b31826000526008602052604060002090565b6005600052602052604060002090565b546080850152610b6e610b5e826000526008602052604060002090565b6006600052602052604060002090565b5460a08501526000526008602052604060002090565b6007600052602052604060002090565b5460c082015260405191829182610a0c565b346104885760003660031901126104885760206001600160a01b0360005416604051908152f35b604090600319011261048857600435610be5816104b9565b90602435610bf2816104b9565b90565b3461048857610c53610c0636610bcd565b90610c0f6133ef565b610c28610c1a6131a8565b610c226131c0565b33615b41565b91610c3c610c346131a8565b610c226131f9565b6001600160a01b0382811695909485168614613232565b610c7860009185610c706103ec828654166001600160a01b031690565b91161461327d565b610c83851515613f69565b610ca0826001600160a01b03166000526003602052604060002090565b541580156112be575b610cb290613fb4565b610cda610cd2846001600160a01b03166000526003602052604060002090565b541515613fff565b610d1e6005610d10610cff866001600160a01b03166000526003602052604060002090565b546000526006602052604060002090565b01546001600160a01b031690565b9360409182516020977f880cdc310000000000000000000000000000000000000000000000000000000089830152610d8860249280610d6f898683019190916001600160a01b036020820193169052565b0399610d83601f199b8c8101845283613157565b615c54565b50600493610db36103ec86610d10610cff8c6001600160a01b03166000526003602052604060002090565b1561116757610e26610ddf86610d10610cff8c6001600160a01b03166000526003602052604060002090565b87517f0399c93c000000000000000000000000000000000000000000000000000000008d82015233868201908152909190610d839083906020015b038d8101845283613157565b505b610e45886001600160a01b03166000526003602052604060002090565b54610e63886001600160a01b03166000526003602052604060002090565b55610ec187610e99610e888b6001600160a01b03166000526003602052604060002090565b546000526004602052604060002090565b906001600160a01b031673ffffffffffffffffffffffffffffffffffffffff19825416179055565b610f0f3386610ee6610cff8b6001600160a01b03166000526003602052604060002090565b01906001600160a01b031673ffffffffffffffffffffffffffffffffffffffff19825416179055565b871614159485611143575b610f37816001600160a01b03166000526003602052604060002090565b5497610f526005610d108b6000526006602052604060002090565b99610f8e610f816002610f6f8d6000526006602052604060002090565b01546000526004602052604060002090565b546001600160a01b031690565b971561108d5780610fa96103ec87546001600160a01b031690565b8851978880926314ac1b5960e21b82525afa9283156104595761059799611032977fe3d1d5bf000000000000000000000000000000000000000000000000000000009795611064575b509061102691610d8395968a5198899586015284019060209093929360408301946001600160a01b03809216845216910152565b03908101845283613157565b505b61103e6001600255565b519283526001600160a01b03938416602084015290921660408201529081906060820190565b610d839550906110846110269392853d8711610452576104448183613157565b95509091610ff2565b8092506110a46103ec86546001600160a01b031690565b8751968780926314ac1b5960e21b82525afa9182156104595761059798611116967f9498d88b00000000000000000000000000000000000000000000000000000000969461111c575b5061102690610d839495895197889485015283019190916001600160a01b036020820193169052565b50611034565b610d8394509061113b61102692843d8611610452576104448183613157565b9450906110ed565b82611161886001600160a01b03166000526003602052604060002090565b55610f1a565b848a61117d6103ec87546001600160a01b031690565b88519283809263111ea8c160e21b82525afa908115610459576111d3918a9187916112a1575b5088516001600160a01b03909216828e019081526111c5908390602001610e1a565b6111cd61404a565b90615b41565b818116151580611297575b6111e9575b50610e28565b86517f4fb2e45d00000000000000000000000000000000000000000000000000000000818d015233858201908152611290929161123d91611237908e90839060200103908101835282613157565b82615c54565b508751907fa3e884b0000000000000000000000000000000000000000000000000000000008d830152610d8382610e1a888201906007606060808401936000815260006020820152600060408201520152565b50386111e3565b50803115156111de565b6112b891508d803d10610452576104448183613157565b386111a3565b508284168514610ca9565b346104885760203660031901126104885760206112f9600435600052600660205260ff6001604060002001541690565b6040519015158152f35b346104885760203660031901126104885760043560005260066020526020600360406000200154604051908152f35b3461048857602036600319011261048857600435600052600660205260206001600160a01b0360046040600020015416604051908152f35b34610488576000366003190112610488576020601054604051908152f35b346104885760203660031901126104885760043580600052600660205260406000205460046020526105976001600160a01b03806040600020541693600660205260406000209160046002840154930154166113f36005610d10846000526006602052604060002090565b90600361142b61141a6001611412876000526006602052604060002090565b015460ff1690565b946000526006602052604060002090565b01549360405197889788939160c09591989796939260e086019986526001600160a01b03938480931660208801526040870152166060850152166080830152151560a08201520152565b34610488576020366003190112610488576001600160a01b0360043561149a816104b9565b1660005260036020526040600020546000526006602052602060ff600160406000200154166040519015158152f35b34610488576114d736610bcd565b6114e261038361569b565b61045e576114ef33615793565b801561151f575b156103a85761150491613449565b604080519283526001600160a01b0391909116602083015290f35b50600460206115396103ec6000546001600160a01b031690565b60405192838092630536340960e21b82525afa9081156104595760009161156c575b506001600160a01b031633146114f6565b611584915060203d8111610452576104448183613157565b3861155b565b34610488576000366003190112610488576020600554604051908152f35b34610488576020366003190112610488576001600160a01b036004356115cd816104b9565b1660005260036020526020604060002054604051908152f35b3461048857602036600319011261048857600435600161161c61161782611412856000526006602052604060002090565b613ebd565b61163082600052600f602052604060002090565b906002908183019260ff8454818160081c16806119f4575b611651906144be565b60101c16611878575061167b82611672866000526006602052604060002090565b01541515614554565b6000815b61174d575b5050806116ef846001600160a01b036116c76005610d106000976116b56100169b6000526006602052604060002090565b01546000526006602052604060002090565b16611702575b84546116df9060101c60ff16826145ec565b6000526006602052604060002090565b0155805462ff0000191662010000179055565b6117476117226005610d10866116b5866000526006602052604060002090565b604051636f58dd0f60e11b60208201526000602482015290610d838260448101610652565b506116cd565b600380611768856116b5896000526006602052604060002090565b015482101561187257856117a26117988484611792896116b5876000526006602052604060002090565b01613d82565b90549060031b1c90565b146117b757506117b190613a44565b8161167f565b839250946118688661184a6116ef946118316118176117986100169c6117ed60009c6116b58b6000526006602052604060002090565b016118118761180a8d6116b58d6000526006602052604060002090565b015461375b565b90613d82565b91846117928a6116b58a6000526006602052604060002090565b90919082549060031b91821b91600019901b1916179055565b611862856116b5856000526006602052604060002090565b0161459f565b9450819250611684565b50611684565b8261192461191e610857966118ea8960036118e461199b99610652996118b86100169f9d6118b0876000526006602052604060002090565b015415614509565b0197885480916118d2866000526006602052604060002090565b01556000526006602052604060002090565b01613d9f565b83546001600160a01b0361190d6005610d10846000526006602052604060002090565b166119ac575b505460101c60ff1690565b856145ec565b610d83611958610f816119466004610d10896000526006602052604060002090565b93546000526004602052604060002090565b6040517f1499c5920000000000000000000000000000000000000000000000000000000060208201526001600160a01b0390911660248201529283906044820190565b50600052600f602052604060002090565b6119c86005610d106119ed936000526006602052604060002090565b604051636f58dd0f60e11b60208201526001602482015290610d838260448101610652565b5038611913565b50808216611648565b34610488576040806003193601126104885760048035611a1b6133ef565b611a376116176001611412846000526006602052604060002090565b611a5c611a556103ec84610d10856000526006602052604060002090565b33146141df565b611a646137bd565b611a7d6005610d10836000526006602052604060002090565b601054908451611af1611ae36020927f02a085f2000000000000000000000000000000000000000000000000000000008482015280611acf602497883589840160209093929193604081019481520152565b0394610d83601f1996878101845283613157565b828082518301019101614976565b94868651948783611b07868301988951906133e2565b97611b17858401998a51906133e2565b611b2760608501918251906133e2565b9188611b3960808701948551906133e2565b97611b4a60a08801998a51906133e2565b96611b63611b5e60c08301998a51906133e2565b61540e565b51611fa4575b8251611ebc575b5050508051611dca575b508051611cdd575b5050611b9183518251906133e2565b611bd3575b89896105976101008a611bae8d60e086015190614aa7565b5192015192611bbd6001600255565b5191825260208201929092529081906040820190565b84611bef6103ec60009a969799989a546001600160a01b031690565b8b51968780927f24768d910000000000000000000000000000000000000000000000000000000082525afa80156104595761059798610100988c611c999663a9059cbb60e01b968996611bae9b600097611ca4575b5090611c74611026949392611c6a610f81610d839a9b6000526004602052604060002090565b93519051906133e2565b92519889958601528401602090939291936001600160a01b0360408201951681520152565b509382933880611b96565b610d83975061102694939291611c6a610f81611ccf611c74948a3d8c11610452576104448183613157565b9a5050509192939450611c44565b86611cf36103ec6000546001600160a01b031690565b8d51938480927f9dc969a80000000000000000000000000000000000000000000000000000000082525afa91821561045957611d93928d928c928a600093611d9b575b5050611d87611d56610f81610d8394956000526004602052604060002090565b9151945194859263a9059cbb60e01b8d850152898401602090939291936001600160a01b0360408201951681520152565b038a8101845283613157565b508338611b82565b610d839350610f81611dc0611d879383611d5694903d10610452576104448183613157565b945050508a611d36565b91878d611de26103ec6000546001600160a01b031690565b9051928380927faa0ddc160000000000000000000000000000000000000000000000000000000082525afa908115610459578b611e84928f8b908b9763a9059cbb60e01b95600094611e8b575b5090611e7891611e50610f81610d8396976000526004602052604060002090565b905191519687948501528b8401602090939291936001600160a01b0360408201951681520152565b038c8101845283613157565b5038611b7a565b610d83945090611e50610f81611eb1611e789594873d8911610452576104448183613157565b965050509091611e2f565b611ed46103ec6000979497546001600160a01b031690565b9051928380927f30125cf50000000000000000000000000000000000000000000000000000000082525afa908115610459578c8f928b611f6a948c9863a9059cbb60e01b95600094611f73575b5090610e1a91611f42610f81610d8396976000526004602052604060002090565b905191519687948501528c8401602090939291936001600160a01b0360408201951681520152565b5038888e611b70565b610d83945090611f42610f81611f99610e1a9594873d8911610452576104448183613157565b965050509091611f21565b611fb96103ec6000546001600160a01b031690565b9051958680927f640274270000000000000000000000000000000000000000000000000000000082525afa938415610459578e61204d8f8f8c988f8f968d90600093612053575b5061102661201f610f81610d8395966000526004602052604060002090565b9551885163a9059cbb60e01b8b8201526001600160a01b039097169287019283526020830152859160400190565b50611b69565b610d83935061201f610f81612077611026938c8d3d10610452576104448183613157565b95505050612000565b346104885760403660031901126104885760043560243561209f6133ef565b6120bb6116176001611412856000526006602052604060002090565b6120df6120d86103ec610f81856000526004602052604060002090565b3314614083565b6121116120fb6005610d10856000526006602052604060002090565b6121036140ce565b61210b613195565b91615a83565b9080612127602093848082518301019101614107565b1015612138575b6100166001600255565b826122156001600160a01b03927ff526f68a00000000000000000000000000000000000000000000000000000000946122096121ee610f816121d96121cb6121a96121956005610d1061221b9f6000526006602052604060002090565b976040519182918983019190602083019252565b03976121bd601f19998a8101845283613157565b6121c5614116565b90615a83565b85808251830101910161414f565b99925050506000526004602052604060002090565b6121f66131a8565b90604051988994850152602484016141bf565b03908101855284613157565b16615c54565b5038808061212e565b34610488576020366003190112610488576020600435612243816104b9565b6001600160a01b03809116600052600382526040600020546000526006825260056040600020015416604051908152f35b346104885760403660031901126104885761229061038361569b565b61045e5761229d33615793565b80156122b7575b156103a8576100166024356004356143d1565b50600460206122d16103ec6000546001600160a01b031690565b60405192838092630536340960e21b82525afa90811561045957600091612304575b506001600160a01b031633146122a4565b61231c915060203d8111610452576104448183613157565b386122f3565b3461048857604036600319011261048857600435600052600760205260406000206024356000526020526020604060002054604051908152f35b346104885760203660031901126104885760043560005260066020526020600260406000200154604051908152f35b3461048857604036600319011261048857600435600052600660205260206123bc6024356003604060002001613d82565b90549060031b1c604051908152f35b346104885760003660031901126104885760206001600160a01b0360015416604051908152f35b346104885760403660031901126104885761240e61038361569b565b61045e5761241b33615793565b8015612435575b156103a857610016602435600435615492565b506004602061244f6103ec6000546001600160a01b031690565b60405192838092630536340960e21b82525afa90811561045957600091612482575b506001600160a01b03163314612422565b61249a915060203d8111610452576104448183613157565b38612471565b3461048857602036600319011261048857600435600052600e6020526020604060002054604051908152f35b3461048857600036600319011261048857600460206001600160a01b03600054166040519283809263d1f956b160e01b82525afa908115610459576105979161255c9160009161256c575b506040516125248161311f565b601381527f67657464656c656761746f72436f756e742829000000000000000000000000006020820152612556613195565b91615bce565b6040519081529081906020820190565b612584915060203d8111610452576104448183613157565b38612517565b610100810192916000915b600883106125a257505050565b600190825181526020809101920192019190612595565b34610488576020366003190112610488576105976004356126c6610b846125de615391565b926126056125f6826000526007602052604060002090565b60008052602052604060002090565b54845261261f610a80826000526007602052604060002090565b54602085015261263c610aaa826000526007602052604060002090565b546040850152612659610ad7826000526007602052604060002090565b546060850152612676610b04826000526007602052604060002090565b546080850152612693610b31826000526007602052604060002090565b5460a08501526126b0610b5e826000526007602052604060002090565b5460c08501526000526007602052604060002090565b5460e08201526040519182918261258a565b346104885760203660031901126104885760206112f96004356126fa816104b9565b615793565b346104885761280761271036610bcd565b906127196133ef565b612762612727610c1a6131a8565b612732610c346131a8565b9061274b6001600160a01b039182808816911614613232565b610c706103ec82600054166001600160a01b031690565b61278f61278a6001611412610cff856001600160a01b03166000526003602052604060002090565b6132c8565b6127f86127ee6127df6127bd6005610d10610cff876001600160a01b03166000526003602052604060002090565b604051906127d78261065260208201906000602083019252565b6121c5613313565b6020808251830101910161334c565b505050151561336e565b612800613777565b3390613a53565b6128206125f66010546000526007602052604060002090565b61282a81546133cf565b905561283461543a565b61284d6005610d10836000526006602052604060002090565b9061285781613f08565b6128616001600255565b604080519182526001600160a01b03929092166020820152f35b346104885760203660031901126104885761289761038361569b565b61045e576128a433615793565b80156128bb575b156103a857610016600435613801565b50600460206128d56103ec6000546001600160a01b031690565b60405192838092630536340960e21b82525afa90811561045957600091612908575b506001600160a01b031633146128ab565b612920915060203d8111610452576104448183613157565b386128f7565b346104885760203660031901126104885760046001600160a01b03602061295782600054166001600160a01b031690565b60405193848092630536340960e21b82525afa9182156104595760009261298d575b50339116036103a857610016600435615968565b6129a691925060203d8111610452576104448183613157565b9038612979565b3461048857602036600319011261048857600435600052600c6020526020604060002054604051908152f35b34610488576020366003190112610488576004356129f6816104b9565b803b6000612a0382613179565b92612a116040519485613157565b82845260208401903c602d815110612a3557602a602091015160601c604051908152f35b60046040517fbaf3f0f7000000000000000000000000000000000000000000000000000000008152fd5b604036600319011261048857600435612a766133ef565b6000908082526006602052612a9460ff600160408520015416613ebd565b81526006602052612ad46001600160a01b036005604084200154166040519062a0e53360e51b6020830152602435602483015260248252610d83826130e2565b50600160025580f35b3461048857604036600319011261048857600435600052600960205260406000206024356000526020526020604060002054604051908152f35b346104885760c036600319011261048857602435600435612b37826104b9565b6064359060843590612b476133ef565b612b636116176001611412846000526006602052604060002090565b612b82611a556103ec6004610d10856000526006602052604060002090565b612b8a6137bd565b612b93826153b6565b612b9c836153e2565b612c45612c37612bbb6005610d10856000526006602052604060002090565b6010546040517fa6630304000000000000000000000000000000000000000000000000000000006020808301919091526001600160a01b03999099166024820152604480359082015260648101889052608481019690965260a480359087015260c4808701919091528552601f19969490610d8360e483613157565b83808251830101910161422a565b929080612c59575b505061212e9350614dee565b60049082612c726103ec6000546001600160a01b031690565b60405193848092635e09dbe760e01b82525afa80156104595761212e97612ccc9463a9059cbb60e01b94600093612cd4575b5060405190810194909452336024850152604484019290925290610d83908360648101611026565b503880612c4d565b610d839350612cf261102691833d8511610452576104448183613157565b9350612ca4565b34610488576020806003193601126104885760048035612d18816104b9565b6001600160a01b03928084600054166040519485809263d1f956b160e01b82525afa908115610459576105979461069094600093612d74575b506040519316818401528252612d668261311f565b612d6e6158ff565b90615b92565b612d8c919350823d8411610452576104448183613157565b9138612d51565b346104885760003660031901126104885760206112f961569b565b3461048857602036600319011261048857600435600052600b6020526020604060002054604051908152f35b346104885760403660031901126104885760043560243590612e2d610820612e15336001600160a01b03166000526003602052604060002090565b54600052600660205260ff6001604060002001541690565b612e496116176001611412846000526006602052604060002090565b612e6a612e656001611412856000526006602052604060002090565b614240565b612e836005610d10846000526006602052604060002090565b600483604051612ec96127ee612ebb60209380612ea7868201906000602083019252565b03976127d7601f19998a8101845283613157565b83808251830101910161334c565b612edd85600052600f602052604060002090565b93612f456002860196612f00612efb6103838a5460ff9060081c1690565b61428b565b6040517f7bb984980000000000000000000000000000000000000000000000000000000085820152602481019190915260448101989098526064828101895288613157565b81612f5b6103ec6000546001600160a01b031690565b60405195868092630536340960e21b82525afa9384156104595761001697612fdb95612fc89361102693600092612fec575b50610d8391926040519485917fffa734f0000000000000000000000000000000000000000000000000000000008984015230602484016142d6565b9160018501558082518301019101614107565b9055805461ff001916610100179055565b610d83925061300790873d8911610452576104448183613157565b91612f8d565b3461048857602036600319011261048857600435600052600d6020526020604060002054604051908152f35b3461048857604080600319360112610488576001600160a01b0360043561305f816104b9565b16600081815260036020818152848320548352600a815284832054938352908152838220548252600981528382206024358352815290839020549251918252810191909152604090f35b346104885760003660031901126104885760206130c461585f565b604051908152f35b634e487b7160e01b600052604160045260246000fd5b6060810190811067ffffffffffffffff8211176130fe57604052565b6130cc565b60e0810190811067ffffffffffffffff8211176130fe57604052565b6040810190811067ffffffffffffffff8211176130fe57604052565b6020810190811067ffffffffffffffff8211176130fe57604052565b90601f8019910116810190811067ffffffffffffffff8211176130fe57604052565b67ffffffffffffffff81116130fe57601f01601f191660200190565b604051906131a28261313b565b60008252565b6040516131b48161313b565b60008152906000368137565b604051906131cd8261311f565b600782527f6f776e65722829000000000000000000000000000000000000000000000000006020830152565b604051906132068261311f565b600c82527f67657448657862617365282900000000000000000000000000000000000000006020830152565b1561323957565b606460405162461bcd60e51b815260206004820152601760248201527f6e65737465642e696e76616c69642e696e7374616e63650000000000000000006044820152fd5b1561328457565b606460405162461bcd60e51b815260206004820152601660248201527f6e65737465642e696e76616c69642e68657862617365000000000000000000006044820152fd5b156132cf57565b606460405162461bcd60e51b815260206004820152601860248201527f6e65737465642e706172656e742e6e6f742e65786973747300000000000000006044820152fd5b604051906133208261311f565b601282527f6765744e6f64654c422875696e743235362900000000000000000000000000006020830152565b9190826080910312610488578151916020810151916060604083015192015190565b1561337557565b606460405162461bcd60e51b815260206004820152601960248201527f6e65737465642e706172656e742e6e6f2e627573696e657373000000000000006044820152fd5b634e487b7160e01b600052601160045260246000fd5b90600182018092116133dd57565b6133b9565b919082018092116133dd57565b60028054146133fe5760028055565b60046040517f3ee5aeb5000000000000000000000000000000000000000000000000000000008152fd5b908160209103126104885751610bf2816104b9565b6040513d6000823e3d90fd5b91906134536133ef565b61348361347e6103836001611412610cff866001600160a01b03166000526003602052604060002090565b6139f9565b60056134976134928254613a44565b600555565b6134ed8154946134b584610e99886000526004602052604060002090565b856134d3856001600160a01b03166000526003602052604060002090565b556001600160a01b03166000526003602052604060002090565b546134f88582613dc7565b61352f6004613511876000526006602052604060002090565b0173ffffffffffffffffffffffffffffffffffffffff198154169055565b60006135456103ec82546001600160a01b031690565b91604092835191829163e09d394d60e01b835282600460209485935afa80156104595761357f61359491600495879161373e575b50613cec565b87610ee68c6000526006602052604060002090565b856135ad81610d108c6000526006602052604060002090565b91613600898c611acf6135ca6103ec8b546001600160a01b031690565b8b516352902c5960e01b8a8201526001600160a01b03918216602482015293166044840152606483019190915281906084820190565b5080151580613715575b6136c7575b5050816136266103ec86546001600160a01b031690565b8651948580926318c9774160e21b82525afa928315610459576001600160a01b039760069461368a936110269388926136a6575b50610d839192895194859163d5ec0ea160e01b89840152602483019190916001600160a01b036020820193169052565b5087835252200154169161369d81613f08565b91906001600255565b610d8392506136c190873d8911610452576104448183613157565b9161365a565b61370d91610d106136e2926000526006602052604060002090565b8651636f58dd0f60e11b858201526001602482015290610d8382604481015b03858101845283613157565b50853861360f565b506001600160a01b0361373683610d10846000526006602052604060002090565b16151561360a565b6137559150853d8711610452576104448183613157565b38613579565b6000198101919082116133dd57565b919082039182116133dd57565b61377f61585f565b60105410613797575b613795600560105461384a565b565b61379f61585f565b8060105560001981019081116133dd576137b89061524b565b613788565b6137c561585f565b601054106137db575b613795600260105461384a565b6137e361585f565b8060105560001981019081116133dd576137fc9061524b565b6137ce565b61380961585f565b6010541061381e575b6137959060105461384a565b61382661585f565b908160105560001982019182116133dd576138436137959261524b565b9050613812565b906138626125f6836000526007602052604060002090565b5415806139ef575b806139e6575b613878575050565b6138949061388e6138888461375b565b9161375b565b9061384a565b6138b36125f66138a38361375b565b6000526007602052604060002090565b546138cb6125f6836000526007602052604060002090565b556138db610a806138a38361375b565b546138f3610a80836000526007602052604060002090565b55613903610aaa6138a38361375b565b5461391b610aaa836000526007602052604060002090565b5561392b610ad76138a38361375b565b54613943610ad7836000526007602052604060002090565b55613953610b046138a38361375b565b5461396b610b04836000526007602052604060002090565b5561397b610b316138a38361375b565b54613993610b31836000526007602052604060002090565b556139a3610b5e6138a38361375b565b546139bb610b5e836000526007602052604060002090565b556139e3610b846139d1610b846138a38561375b565b54926000526007602052604060002090565b55565b50801515613870565b506001821161386a565b15613a0057565b606460405162461bcd60e51b815260206004820152601560248201527f6e65737465642e616c72656164792e65786973747300000000000000000000006044820152fd5b60001981146133dd5760010190565b9190613a8061347e6103836001611412610cff876001600160a01b03166000526003602052604060002090565b600591613a906134928454613a44565b613af1613acf845495613ab184610e99896000526004602052604060002090565b866134d3856001600160a01b03166000526003602052604060002090565b5492613adb8685613dc7565b6004610ee6876000526006602052604060002090565b613b066103ec6000546001600160a01b031690565b9160405193849363e09d394d60e01b855284600460209788935afa801561045957613b3e613b5391600496600091613cd55750613cec565b82610ee6896000526006602052604060002090565b613b6b81610d10886000526006602052604060002090565b91613bbc84613b856103ec6000546001600160a01b031690565b6040516352902c5960e01b8a8201526001600160a01b03918216602482015291166044820152606481018990528060848101611acf565b5080151580613cac575b613c65575b505083613be36103ec6000546001600160a01b031690565b604051948580926318c9774160e21b82525afa90811561045957613c3c9463d5ec0ea160e01b94600093613c40575b50604051908101949094526001600160a01b03909216602484015290610d83908360448101611026565b5090565b610d839350613c5e61102691833d8511610452576104448183613157565b9350613c12565b613ca491610d10613c80926000526006602052604060002090565b604051636f58dd0f60e11b878201526001602482015290610d838260448101613701565b503880613bcb565b506001600160a01b03613ccd83610d10846000526006602052604060002090565b161515613bc6565b6137559150883d8a11610452576104448183613157565b6e5af43d82803e903d91602b57fd5bf390763d602d80600a3d3981f3363d3d373d3d3d363d7300000062ffffff8260881c161760005260781b17602052603760096000f0906001600160a01b03821615613d4257565b60046040517fb06ebf3d000000000000000000000000000000000000000000000000000000008152fd5b634e487b7160e01b600052603260045260246000fd5b8054821015613d9a5760005260206000200190600090565b613d6c565b90815491680100000000000000008310156130fe578261183191600161379595018155613d82565b919091600092808452602091600683526040808620956002948386890155846001988981018a60ff198254161790555587613e0c866000526009602052604060002090565b83805282528489858520555b613e2757505050505050509050565b613e95613e84828b8a9414613e9e575b613e4b886000526009602052604060002090565b8187528552868620613e5d81546133cf565b9055613e7388600052600a602052604060002090565b613e7d81546133cf565b9055613a44565b956000526006602052604060002090565b01549384613e18565b613eb88960036118e48b6000526006602052604060002090565b613e37565b15613ec457565b606460405162461bcd60e51b815260206004820152601560248201527f6e65737465642e757365722e6e6f7461637469766500000000000000000000006044820152fd5b806000526006602052613f2560ff60016040600020015416613ebd565b6000526006602052613f666001600160a01b03600560406000200154166040519062a0e53360e51b60208301526001602483015260248252610d83826130e2565b50565b15613f7057565b606460405162461bcd60e51b815260206004820152601360248201527f6e65737465642e7a65726f2e61646472657373000000000000000000000000006044820152fd5b15613fbb57565b606460405162461bcd60e51b815260206004820152601460248201527f6e65737465642e7461726765742e6578697374730000000000000000000000006044820152fd5b1561400657565b606460405162461bcd60e51b815260206004820152601760248201527f6e65737465642e736f757263652e6e6f744578697374730000000000000000006044820152fd5b604051906140578261311f565b601382527f55736572546f496e7374286164647265737329000000000000000000000000006020830152565b1561408a57565b606460405162461bcd60e51b815260206004820152601560248201527f6e65737465642e696e76616c69642e73656e64657200000000000000000000006044820152fd5b604051906140db8261311f565b600b82527f6d696e74436f756e7428290000000000000000000000000000000000000000006020830152565b90816020910312610488575190565b604051906141238261311f565b600e82527f6d696e74732875696e74323536290000000000000000000000000000000000006020830152565b91908260809103126104885781519160208101519160606040830151920151610bf2816104b9565b60005b83811061418a5750506000910152565b818101518382015260200161417a565b906020916141b381518092818552858086019101614177565b601f01601f1916010190565b6040906001600160a01b03610bf29493168152816020820152019061419a565b156141e657565b606460405162461bcd60e51b815260206004820152601b60248201527f6e65737465642e757365722e696e76616c6964696e7374616e636500000000006044820152fd5b9190826040910312610488576020825192015190565b1561424757565b606460405162461bcd60e51b815260206004820152601560248201527f6e65737465642e696e76616c69642e706172656e7400000000000000000000006044820152fd5b1561429257565b606460405162461bcd60e51b815260206004820152601760248201527f6e65737465642e7265712e616c726561647965786973740000000000000000006044820152fd5b929161435e60a0916001600160a01b0360009460c08852602460c08901527f547269676765722e6e65737465642e70726f706f73616c2e6d6f7665646f776e60e08901527f6c696e650000000000000000000000000000000000000000000000000000000061010089015216602087015283604087015261012080606088015286019061419a565b93600a60808201520152565b604051906143778261311f565b601282527f6765745374617475732875696e743235362900000000000000000000000000006020830152565b5190811515820361048857565b919082604091031261048857610bf260206143ca846143a3565b93016143a3565b614404614410916143f46116176001611412846000526006602052604060002090565b600052600f602052604060002090565b91600183015414614240565b6144256103ec6000546001600160a01b031690565b906040518092630536340960e21b825281600460209586935afa908115610459576137959361448061065260029461448d946000916144a1575b5061447887546040519384918783019190602083019252565b6121c561436a565b80518101820191016143b0565b5091019060ff801983541691151516179055565b6144b89150843d8611610452576104448183613157565b3861445f565b156144c557565b606460405162461bcd60e51b815260206004820152601660248201527f6e65737465642e7265712e6e6f74617070726f766564000000000000000000006044820152fd5b1561451057565b606460405162461bcd60e51b815260206004820152601860248201527f6e65737465642e757365722e6e6f742e646574616368656400000000000000006044820152fd5b1561455b57565b606460405162461bcd60e51b815260206004820152601b60248201527f6e65737465642e757365722e616c726564792e646574616368656400000000006044820152fd5b80549081156145c957600019918201916145b98383613d82565b909182549160031b1b1916905555565b634e487b7160e01b600052603160045260246000fd5b80156133dd576000190190565b9061460a61460483600052600a602052604060002090565b546133cf565b9160029081614623826000526006602052604060002090565b0154906001938492835b61463b575b50505050505050565b600f808511158061496d575b15614967578590600561466b6103ec82610d10876000526006602052604060002090565b614698575b5050614689614691926000526006602052604060002090565b015493613a44565b928561462d565b865b828111156147a257505050614689614691928460001461473f576146e26146cb876000526009602052604060002090565b6146d48961375b565b600052602052604060002090565b5461471561470d896146fe856000526009602052604060002090565b90600052602052604060002090565b9182546133e2565b905561472b81600052600a602052604060002090565b6147368b82546133e2565b90555b92614670565b6147566146cb876000526009602052604060002090565b5461477a614772896146fe856000526009602052604060002090565b91825461376a565b905561479081600052600a602052604060002090565b61479b8b825461376a565b9055614739565b909192506147be82610d10886000526006602052604060002090565b6147c8888361376a565b6040918761480a6147fc8551806147e86020978883019190602083019252565b03946127d7601f1996878101845283613157565b84808251830101910161334c565b50509290878a82158061495f575b61494e57926148a09492611026614845610d8394610d106148ad9b9a986000526006602052604060002090565b9460109a8c8c5491519889957f7b058ac1000000000000000000000000000000000000000000000000000000008d8801526024870193909594919260809360a086019786526020860152604085015260608401521515910152565b805181018201910161422a565b908715614904575b8082116148d1575050506148c890613a44565b9087929161469a565b6148da90613a44565b6148f3816146fe85546000526007602052604060002090565b6148fd81546133cf565b90556148b5565b9190915b82811161491b575050506148c890613a44565b80614938614949926146fe85546000526007602052604060002090565b614942815461375b565b90556145df565b614908565b50505050505050506148c890613a44565b508515614818565b50614632565b50811515614647565b9061012080838303126104885781601f84011215610488576040519281840184811067ffffffffffffffff8211176130fe576040528391810192831161048857905b8282106149c55750505090565b81518152602091820191016149b8565b604051906149e28261311f565b600f82527f66726565496e74657276616c73282900000000000000000000000000000000006020830152565b60405190614a1b8261311f565b601582527f67657452616e6b5769746841676556616c7565282900000000000000000000006020830152565b60405190614a548261311f565b601382527f72616e6b436c617573652875696e7432353629000000000000000000000000006020830152565b908160a0910312610488578051916020820151916040810151916080606083015192015190565b91906004906020614ac36103ec6000546001600160a01b031690565b6040519384809263cfbffe5360e01b82525afa91821561045957600092614dcd575b50614aff614af16131a8565b614af96149d5565b84615bce565b906000809360009060009560009360009260009a5b600f8c111580614dc4575b15614db657614b406103ec6005610d10846000526006602052604060002090565b614b6c575b6002614b5e614b66926000526006602052604060002090565b01549b613a44565b9a614b14565b8b614ba3614b94614b8c6005610d10866000526006602052604060002090565b612103614a0e565b6020808251830101910161422a565b82919215614d6d575b81151580614d64575b8015614d5c575b614bc9575b505050614b45565b838b9184959e8e949503614c9a575b5092614c5c92610d83614c4d936106528e614c056005610d10614c629b6000526006602052604060002090565b9460105460405197889563208bffb160e21b60208801526024870193909594919260a09360c08601978652600060208701526040860152606085015260808401521515910152565b60208082518301019101614107565b916133cf565b80821015614c7757509860028c614b66614bc1565b80613e73614c95926146fe6010546000526007602052604060002090565b614c62565b939a50505050838211614ced575b5088888b86841080801591614cc4575b50159992919038614bd8565b8a861015915081614ce5575b5080614cdd575b38614cb8565b508715614cd7565b905038614cd0565b93509350935050614d3e614d2f604051614d2181614d1387602083019190602083019252565b03601f198101835282613157565b614d29614a47565b86615a83565b60208082518301019101614a80565b949350909591509492614d54859360105461376a565b119338614ca8565b506000614bbc565b508a1515614bb5565b96505099509250935050614d96614d2f604051614d2181614d138c602083019190602083019252565b9a9350909591509492828c819b614daf8860105461376a565b1196614bac565b505050505050505050509050565b50801515614b1f565b614de791925060203d602011610452576104448183613157565b9038614ae5565b929160046000926020614e0b6103ec86546001600160a01b031690565b6040519384809263cfbffe5360e01b82525afa9182156104595784926150bc575b50614e38614af16131a8565b918480809181978294839b5b600f8d1115806150b3575b156150a457614e706103ec6005610d10846000526006602052604060002090565b614e9c575b6002614e8e614e96926000526006602052604060002090565b01549c613a44565b9b614e44565b8c614ebc614b94614b8c6005610d10866000526006602052604060002090565b829192158061504b575b1580615042575b8015615039575b614ee1575b505050614e75565b8b849e948c928f95968703614f9f575b5092610d83614c4d936106528e614f679895614f1f6005610d10614c5c9b6000526006602052604060002090565b956010549060405198899663208bffb160e21b60208901526024880194919260a0949197969360c0870198875260208701526040860152606085015260808401521515910152565b80821015614f7c57509960028d614e96614ed9565b80613e73614f9a926146fe6010546000526007602052604060002090565b614f67565b94505050509750838211614ff5575b5087898c8c87851080801591614fcc575b50159a9290939138614ef1565b8b871015915081614fed575b5080614fe5575b38614fbf565b508815614fdf565b905038614fd8565b9350935093505061501b614d2f604051614d2181614d1387602083019190602083019252565b949350909591509492615031859360105461376a565b119338614fae565b508c1515614ed4565b508a1515614ecd565b9750945050935094509850615083614d2f60405161507581614d1387602083019190602083019252565b61507d614a47565b8c615a83565b9c93509096915095938d8194829d61509d8260105461376a565b1197614ec6565b50505050505050505050509050565b50801515614e4f565b6150d691925060203d602011610452576104448183613157565b9038614e2c565b60105460001981019081116133dd576137959061524b565b156150fc57565b606460405162461bcd60e51b815260206004820152601260248201527f6e65737465642e696e76616c69642e61676500000000000000000000000000006044820152fd5b6040519061514d8261311f565b601882527f6765744261746368526f79616c7479436c6175736573282900000000000000006020830152565b6102a09081818403126104885782601f8201121561048857604080519361519f85613103565b849383019281841161048857935b8385106151bc57505050505090565b6060858303126104885782516060916151d4826130e2565b86518252602091828801518382015285880151868201528152019401936151ad565b906007811015613d9a5760051b0190565b90816064029160648304036133dd57565b818102929181159184041417156133dd57565b8115615235570490565b634e487b7160e01b600052601260045260246000fd5b6152568115156150f5565b61526b6103ec6000546001600160a01b031690565b90604051809263cfbffe5360e01b825281600460209586935afa908115610459576152b3916152a591600091615374575b50612103615140565b838082518301019101615179565b6152c782600052600b602052604060002090565b5460015b60078111156152db575050505050565b806152f7615360926146fe876000526007602052604060002090565b54801561536e5761531061530a8361375b565b866151f6565b518781519283156153655761533761533c9261532f615342968a615218565b940151615207565b615218565b9061522b565b61535a826146fe886000526008602052604060002090565b55613a44565b6152cb565b50505050613a44565b50613a44565b61538b9150853d8711610452576104448183613157565b3861529c565b6040519061010080830183811067ffffffffffffffff8211176130fe57604052368337565b60105480600052600b6020526040600020549182018092116133dd57600052600b602052604060002055565b60105480600052600c6020526040600020549182018092116133dd57600052600c602052604060002055565b60105480600052600d6020526040600020549182018092116133dd57600052600d602052604060002055565b60105480600052600e60205260406000205490600182018092116133dd57600052600e602052604060002055565b9080600052600b6020526040600020549182018092116133dd57600052600b602052604060002055565b9080600052600d6020526040600020549182018092116133dd57600052600d602052604060002055565b9080600052600e6020526040600020549182018092116133dd57600052600e602052604060002055565b604051906154f38261311f565b601482527f676574627573696e6573732875696e74323536290000000000000000000000006020830152565b6040519061552c8261311f565b601d82527f67657472616e6b436f756e742875696e743235362c75696e74323536290000006020830152565b60009061556f6103ec83546001600160a01b031690565b91604092835192839163111ea8c160e21b835282600460209485935afa938415610459578394615668575b505b858111156155ac57505050505050565b8451828101828152819003808252601f19916155dd916155cf9060200182613157565b6155d76154e6565b87615bce565b6155f461470d84600052600b602052604060002090565b9055835b6008811061561057505061560b90613a44565b61559c565b865184810184815260208101839052615663929161564b9161563d90829060400103868101835282613157565b61564561551f565b89615bce565b61535a826146fe876000526007602052604060002090565b6155f8565b615680919450823d8411610452576104448183613157565b923861559a565b9081602091031261048857610bf2906143a3565b6001600160a01b03600054166040518091634bf9c0ad60e11b825281600460209485935afa8015610459576157169160009161573d575b506040516156df8161311f565b600881527f697353616665282900000000000000000000000000000000000000000000000084820152615710613195565b91615aae565b9080615733575b156106a25781610bf29282518301019101615687565b508181511461571d565b6157549150833d8511610452576104448183613157565b386156d2565b604051906157678261311f565b601582527f69735365637572654261736528616464726573732900000000000000000000006020830152565b6157a86103ec6000546001600160a01b031690565b906040518092634bf9c0ad60e11b825281600460209586935afa8015610459576157169261065292600092615803575b506157fb906040519384918783019190916001600160a01b036020820193169052565b61066861575a565b6157fb91925061581f90863d8811610452576104448183613157565b91906157d8565b604051906158338261311f565b601182527f69735369676e65722861646472657373290000000000000000000000000000006020830152565b600460206001600160a01b03600054166040519283809263111ea8c160e21b82525afa801561045957610bf2916000916158e1575b506040516158a18161311f565b600581527f61676528290000000000000000000000000000000000000000000000000000006020820152604051916158d88361313b565b60008352615bce565b6158f9915060203d8111610452576104448183613157565b38615894565b6040519061590c8261311f565b601882527f697364656c656761746f724e6f646528616464726573732900000000000000006020830152565b3d15615963573d9061594982613179565b916159576040519384613157565b82523d6000602084013e565b606090565b600061597e6103ec82546001600160a01b031690565b9060405180927f46f991ac00000000000000000000000000000000000000000000000000000000825281600460209586935afa80156104595782808681949382948391615a66575b505af16159d1615938565b50156106a2576004826159ee6103ec84546001600160a01b031690565b60405192838092635e09dbe760e01b82525afa908115610459577fcdcc745fe377b103b45fa0cec23ae3ef93d6fc6a84a01f0d18c40b354dd1d5d8936001600160a01b039392615a49575b50506040519384521691602090a2565b615a5f9250803d10610452576104448183613157565b3880615a39565b615a7d9150883d8a11610452576104448183613157565b386159c6565b90615a8e9291615aae565b9060009015615a9b575090565b6040519150615aa98261313b565b815290565b803b15615b28576000927fffffffff000000000000000000000000000000000000000000000000000000008360208695519101201690615b186024604051809360208201958652615b088151809260208686019101614177565b8101036004810184520182613157565b51915afa615b24615938565b9091565b505050600090604051615b3a8161313b565b6000815290565b9291615b4f91600094615aae565b9080615b87575b615b5d5750565b9091506020818051810103126104885760206001600160a01b03910151615b83816104b9565b1690565b506020815114615b56565b9291615ba091600094615aae565b9080615bc3575b615bae5750565b610bf291925060208082518301019101615687565b506020815114615ba7565b9291615bdc91600094615aae565b9080615bff575b615bea5750565b610bf291925060208082518301019101614107565b506020815114615be3565b90602082519201517fffffffff00000000000000000000000000000000000000000000000000000000908181169360048110615c4557505050565b60040360031b82901b16169150565b6001600160a01b03811615615d0757600080918351908260208601915af190615c7b615938565b9115615c85575090565b805160009190600411615d0157615c9c9150615c0a565b815115615cac5750805190602001fd5b6040517f21c09d340000000000000000000000000000000000000000000000000000000081527fffffffff00000000000000000000000000000000000000000000000000000000919091166004820152602490fd5b50615c9c565b60046040517fe6c4247b000000000000000000000000000000000000000000000000000000008152fdfea264697066735822122078b64a76e5445a114d4e9b7a7dda2da9ba9e35ec2ff5e95d6b2a0274a369bd3164736f6c63430008140033","linkReferences":{}},"methodIdentifiers":{"dAOAssembly()":"14837455","daocore()":"14d8d024","nested741()":"45cff900","old741()":"5540c5ac","price()":"a035b1fe"},"id":69}