{"abi":[{"type":"function","name":"_instanceStor","inputs":[],"outputs":[{"name":"","type":"address","internalType":"address"}],"stateMutability":"view"},{"type":"function","name":"deployInstanceStor","inputs":[],"outputs":[],"stateMutability":"nonpayable"}],"bytecode":{"object":"0x6080806040523461001657615fa3908161001c8239f35b600080fdfe608080604052600436101561001357600080fd5b600090813560e01c9081634d057ca5146100b8575063ac00742d1461003757600080fd5b346100b557806003193601126100b557604051615e8d8082019082821067ffffffffffffffff8311176100a1579082916100e18339039082f080156100945781546001600160a01b0319166001600160a01b039190911617815580f35b50604051903d90823e3d90fd5b634e487b7160e01b84526041600452602484fd5b80fd5b9050346100dc57816003193601126100dc5790546001600160a01b03168152602090f35b5080fdfe608080604052346100335760018060a01b03198060015416600155600054166000556000601955615e549081620000398239f35b600080fdfe60806040526004361015610018575b361561001657005b005b60003560e01c806302a085f21461037857806309d8da2e146103735780630b98f9751461036e57806312065fe0146103695780631348065f1461036457806313ab4dc51461035f578063141ca6601461035a57806318a54198146103555780631f185d1614610350578063222b14071461034b57806340124ece146103465780634702c08f1461034157806349f601df1461033c5780634a65786c1461033757806351bfd3ae1461033257806352902c591461032d5780635ed86d5c146103285780636195685b14610323578063619d51941461031e5780636350b2c214610319578063678a763414610314578063692450091461030f578063723f0d851461030a578063725b6fff1461030557806373f42561146103005780637b058ac1146102fb5780637bfbfecb146102f6578063812600df146102f1578063880cdc31146102ec5780638da5cb5b146102e7578063901bcdd4146102e257806391b0d21c146102dd578063932ca2d6146102d8578063934209ce146102d35780639659867e146102ce578063a1f7f539146102c9578063a45c004a146102c4578063a98bf4f9146102bf578063a9bf285b146102ba578063af40048a146102b5578063af484526146102b0578063af640d0f146102ab578063b90306ad146102a6578063bd6bf403146102a1578063c32487aa1461029c578063c4cb291e14610297578063c54e44b014610292578063c6a9c45e1461028d578063d3a1a49914610288578063dcdd04a614610283578063e01ad5fd1461027e578063e0a9bc2b14610279578063fd915ef2146102745763fdc10bc90361000e576118c1565b611844565b611829565b611790565b61168d565b611661565b61160d565b6115d4565b611557565b611497565b611479565b6113c5565b6113a7565b611376565b6112bf565b6112a1565b611275565b611241565b611199565b61117b565b61115d565b61108b565b611060565b61102f565b611006565b610f31565b610f05565b610e35565b610d5f565b610d34565b610d16565b610c6b565b610c4d565b610bfc565b610ba6565b610aee565b610a9d565b610a36565b61098b565b610832565b61080f565b6107e3565b6107bd565b610791565b610773565b6106c2565b610685565b6105cf565b6105a3565b610577565b61055b565b6104b3565b610490565b604036600319011261048b5761039360ff60035416156118e4565b6103a361039e614531565b61191e565b6103ac3361431b565b801561040e575b6103bc90611a28565b61040a6103cd602435600435611c41565b604080519889526020890197909752958701949094526060860192909252608085015260a084015260c083015260e0820152908190610100820190565b0390f35b50600054604051630536340960e21b8152906001600160a01b03906020908390600490829085165afa908115610486576103bc92600092610455575b5016331490506103b3565b61047891925060203d60201161047f575b61047081836119e2565b810190611a04565b903861044a565b503d610466565b611a1c565b600080fd5b3461048b57600036600319011261048b57602060ff600354166040519015158152f35b3461048b57602036600319011261048b576104cf61039e614531565b6104d83361431b565b80156104f3575b6104e890611a28565b610016600435601655565b50600054604051630536340960e21b8152906001600160a01b03906020908390600490829085165afa908115610486576104e89260009261053a575b5016331490506104df565b61055491925060203d60201161047f5761047081836119e2565b903861052f565b3461048b57600036600319011261048b57602047604051908152f35b3461048b57602036600319011261048b5760043560005260176020526020604060002054604051908152f35b3461048b57602036600319011261048b5760043560005260216020526020604060002054604051908152f35b602036600319011261048b576105e661039e614531565b6105ef3361431b565b801561061d575b6105ff90611a28565b61040a61060d600435612bb4565b6040519081529081906020820190565b50600054604051630536340960e21b8152906001600160a01b03906020908390600490829085165afa908115610486576105ff92600092610664575b5016331490506105f6565b61067e91925060203d60201161047f5761047081836119e2565b9038610659565b3461048b57602036600319011261048b5760043560005260236020526020604060002054604051908152f35b6001600160a01b0381160361048b57565b3461048b5760208060031936011261048b57600480356106e1816106b1565b600054604051634bf9c0ad60e11b81526001600160a01b03949093909182918591829088165afa9081156104865761040a9461074294600093610754575b5060405193168184015282526107348261198e565b61073c613827565b9061515e565b60405190151581529081906020820190565b61076c919350823d841161047f5761047081836119e2565b913861071f565b3461048b57600036600319011261048b576020600b54604051908152f35b3461048b57602036600319011261048b5760043560005260226020526020604060002054604051908152f35b3461048b57600036600319011261048b57602060ff60145460081c166040519015158152f35b3461048b57602036600319011261048b57600435600052601e6020526020604060002054604051908152f35b3461048b57600036600319011261048b57602060ff601454166040519015158152f35b3461048b57602036600319011261048b5760048035610850816106b1565b600054602090610870906001600160a01b03165b6001600160a01b031690565b60405163ab6e844f60e01b815293849182905afa9182156104865761040a926108de926108c292600092610966575b50604080516001600160a01b03909216602083015290926108d091849190820190565b03601f1981018452836119e2565b6108d8612737565b90614d25565b6001600160a01b038116159061091e6109076108f8613854565b610900611a90565b908461515e565b9161091061387b565b610918611a90565b9161515e565b8290811561093c575b50506040519115158252509081906020820190565b919250908261095e575b5081610956575b50388080610927565b90503861094d565b915038610946565b6108d09192506109849060203d60201161047f5761047081836119e2565b919061089f565b3461048b57606036600319011261048b576004356109a8816106b1565b6024356109b4816106b1565b6000546001600160a01b03928382166109fb5760018054949091166001600160a01b03199283161760005592166001600160a01b0391909116179055610016604435600655565b60405162461bcd60e51b81526020600482015260136024820152721cdd1bdc8b9c1c995a5b9a5d0b99985a5b1959606a1b6044820152606490fd5b3461048b57602036600319011261048b5761040a610a65610a60600435610a5b6151a2565b614a2a565b6152dd565b50604080519788526020880196909652948601939093526060850191909152608084015260a083015260c082015290819060e0820190565b3461048b57600036600319011261048b57601f600052600460209081527f4c55bec45be59a99d441ccb7880f9b68f316b687ab5ac77efc4386a80700776854604051908152f35b8015150361048b57565b3461048b57602036600319011261048b57600435610b0b81610ae4565b610b1661039e614531565b610b1f3361431b565b8015610b38575b90610b3361001692611a28565b61389f565b50600054604051630536340960e21b81526001600160a01b0392916020908290600490829087165afa80156104865761001693610b3392600092610b85575b503391161491925050610b26565b610b9f91925060203d60201161047f5761047081836119e2565b9038610b77565b3461048b57602036600319011261048b57600435600052601a60205260806040600020805490600181015490600360018060a01b0360028301541691015491604051938452602084015260408301526060820152f35b3461048b57602036600319011261048b57600435601b5481101561048b57602090601b6000527f3ad8aa4f87544323a9d1e5dd902f40c356527a7955687113db5f9a85ad579dc10154604051908152f35b3461048b57600036600319011261048b576020600954604051908152f35b3461048b57604036600319011261048b57610c8761039e614531565b610c903361431b565b8015610cae575b610ca090611a28565b61001660243560043561391a565b50600054604051630536340960e21b8152906001600160a01b03906020908390600490829085165afa90811561048657610ca092600092610cf5575b501633149050610c97565b610d0f91925060203d60201161047f5761047081836119e2565b9038610cea565b3461048b57600036600319011261048b576020600754604051908152f35b3461048b57600080600319360112610d5c576040818060209352600483522054604051908152f35b80fd5b3461048b5760a036600319011261048b57608435610d7c81610ae4565b610d8761039e614531565b610d903361431b565b8015610dc7575b90610da4610db592611a28565b606435604435602435600435613a2b565b60408051928352602083019190915290f35b50600054604051630536340960e21b81526001600160a01b0392916020908290600490829087165afa801561048657610db593610da492600092610e14575b503391161491925050610d97565b610e2e91925060203d60201161047f5761047081836119e2565b9038610e06565b600080600319360112610d5c57610e5160ff60035416156118e4565b610e596151a2565b60025580803415610efc575b81808092813491f11561048657808052600460205260408120805490348201809211610ef75755610eb0610e9761463f565b61ff0060145491151560081b169061ff00191617601455565b600254604080513381526000602082018190529181019190915234606082015260808101919091526103e860a0820152600080516020615cff8339815191529060c090a180f35b611aed565b506108fc610e65565b3461048b57602036600319011261048b5760043560005260046020526020604060002054604051908152f35b3461048b57602036600319011261048b57600435610f4e816106b1565b610f5961039e614531565b610f623361431b565b8015610f98575b90610f7661001692611a28565b60018060a01b03166bffffffffffffffffffffffff60a01b6001541617600155565b50600054604051630536340960e21b81526001600160a01b0392916020908290600490829087165afa80156104865761001693610f7692600092610fe5575b503391161491925050610f69565b610fff91925060203d60201161047f5761047081836119e2565b9038610fd7565b3461048b57600036600319011261048b576001546040516001600160a01b039091168152602090f35b3461048b57602036600319011261048b576004356000526005602052602060ff604060002054166040519015158152f35b3461048b57602036600319011261048b57600435600052602080526020604060002054604051908152f35b60a036600319011261048b576004356110a3816106b1565b6110b260ff60035416156118e4565b6110bd61039e614531565b6110c63361431b565b80156110ef575b906110da610db592611a28565b60843590606435906044359060243590613c9b565b50600054604051630536340960e21b81526001600160a01b0392916020908290600490829087165afa801561048657610db5936110da9260009261113c575b5033911614919250506110cd565b61115691925060203d60201161047f5761047081836119e2565b903861112e565b3461048b57600036600319011261048b576020600a54604051908152f35b3461048b57600036600319011261048b576020601954604051908152f35b3461048b57600036600319011261048b5760005460405163d1f956b160e01b815290602090829060049082906001600160a01b03165afa9081156104865761040a9161060d91600091611222575b506040516111f48161198e565b601381527267657464656c656761746f72436f756e74282960681b602082015261121c611a90565b91614ce7565b61123b915060203d60201161047f5761047081836119e2565b386111e7565b3461048b57602036600319011261048b57600435600052601c602052602060018060a01b0360406000205416604051908152f35b3461048b57602036600319011261048b57600435600052601f6020526020604060002054604051908152f35b3461048b57600036600319011261048b576020600854604051908152f35b3461048b5760c036600319011261048b576112db61039e614531565b6112e43361431b565b801561130e575b6112f490611a28565b610db560a435608435606435604435602435600435613fb5565b50600054604051630536340960e21b8152906001600160a01b03906020908390600490829085165afa908115610486576112f492600092611355575b5016331490506112eb565b61136f91925060203d60201161047f5761047081836119e2565b903861134a565b3461048b57602036600319011261048b57602061139d600435611398816106b1565b61431b565b6040519015158152f35b3461048b57600036600319011261048b576020600654604051908152f35b3461048b57602036600319011261048b57600054604051630536340960e21b8152906001600160a01b03906020908390600490829085165afa91821561048657600092611458575b5033911603611421576100166004356143c0565b60405162461bcd60e51b815260206004820152600f60248201526e6f776e2e6e6f6e617574682e44414f60881b6044820152606490fd5b61147291925060203d60201161047f5761047081836119e2565b903861140d565b3461048b57600036600319011261048b576020601554604051908152f35b3461048b57600080600319360112610d5c57600881526004602052604061040a8183205491600984528084205493600a81528181205490600b8152828082205491600c81522054906114f4600d6000526004602052604060002090565b54600e6000526004602052927feb3e677499e881fe1bdbc344a49c412138038a9f40883b6dc68f713aab4835235b5494519788978893909796959260c0959260e08601998652602086015260408501526060840152608083015260a08201520152565b3461048b57600080600319360112610d5c57600f81526004602052604061040a818320549160108452808420549360118152818120549060128152828082205491601381522054906115b460146000526004602052604060002090565b546015600052600460205292600080516020615d3f833981519152611522565b3461048b57602036600319011261048b5760206115fb6004356115f6816106b1565b6143e1565b6040516001600160a01b039091168152f35b3461048b57602036600319011261048b57600435600052601d6020526020604060002054604051908152f35b600881101561164b57600c0190600090565b634e487b7160e01b600052603260045260246000fd5b3461048b57602036600319011261048b57600435600881101561048b57602090600c0154604051908152f35b3461048b5760e036600319011261048b576004356116aa81610ae4565b6024356116b681610ae4565b6044356116c281610ae4565b6064356116ce81610ae4565b608435906116db82610ae4565b60a435926116e884610ae4565b60c435946116f586610ae4565b61170061039e614531565b6117093361431b565b8015611722575b9661171d61001698611a28565b614453565b50600054604051630536340960e21b81526001600160a01b039891602090829060049082908d165afa8015610486576100169961171d9260009261176f575b503391161491985050611710565b61178991925060203d60201161047f5761047081836119e2565b9038611761565b3461048b5760208060031936011261048b57600480356117af816106b1565b60005460405163d1f956b160e01b81526001600160a01b03949093909182918591829088165afa9081156104865761040a946107429460009361180a575b5060405193168184015282526118028261198e565b61073c614504565b611822919350823d841161047f5761047081836119e2565b91386117ed565b3461048b57600036600319011261048b57602061139d614531565b3461048b57600080600319360112610d5c57600181526004602052604061040a818320549160028452808420549360038152818120549060048152828082205491600581522054906118a160066000526004602052604060002090565b546007600052600460205292600080516020615d7f833981519152611522565b3461048b57600036600319011261048b5760206118dc6151a2565b604051908152f35b156118eb57565b60405162461bcd60e51b815260206004820152600b60248201526a1cdd1bdc8b9b1bd8dad95960aa1b6044820152606490fd5b1561192557565b60405162461bcd60e51b81526020600482015260126024820152716f776e2e696e76616c69642e69735361666560701b6044820152606490fd5b634e487b7160e01b600052604160045260246000fd5b67ffffffffffffffff811161198957604052565b61195f565b6040810190811067ffffffffffffffff82111761198957604052565b6020810190811067ffffffffffffffff82111761198957604052565b60e0810190811067ffffffffffffffff82111761198957604052565b90601f8019910116810190811067ffffffffffffffff82111761198957604052565b9081602091031261048b5751611a19816106b1565b90565b6040513d6000823e3d90fd5b15611a2f57565b60405162461bcd60e51b815260206004820152601b60248201527f6f776e2e6e6f6e617574682e44414f6f725365637572656261736500000000006044820152606490fd5b67ffffffffffffffff811161198957601f01601f191660200190565b60405190611a9d826119aa565b60008252565b604051611aaf816119aa565b60008152906000368137565b60405190611ac88261198e565b60168252757769746864726177496e74657276616c44617973282960501b6020830152565b634e487b7160e01b600052601160045260246000fd5b9060018201809211610ef757565b91908201809211610ef757565b60405190611b2b8261198e565b601082526f6d696e436c61696d506572446179282960801b6020830152565b60405190611b578261198e565b601082526f6d6178436c61696d506572446179282960801b6020830152565b60405190611b838261198e565b60168252756d6178476c6f62616c436c61696d506572446179282960501b6020830152565b60405190611bb58261198e565b601582527467657477697468647261776e2875696e743235362960581b6020830152565b15611be057565b60405162461bcd60e51b815260206004820152601e60248201527f73746f722e676c6f62616c2e706f6f6c2e6c696d69742e7265616368656400006044820152606490fd5b600019810191908211610ef757565b91908203918211610ef757565b909160009260009182938380938193829383611c5d8194600255565b8054611c71906001600160a01b0316610864565b6040805163cfbffe5360e01b815290936020928390839060049082905afa918215610486578492612710575b50611cc9611cce91611cbc611cb860145460ff9060081c1690565b1590565b612700575b600254614a2a565b614a48565b611cf3611cea611cdc611aa3565b611ce4611abb565b84614ce7565b60085490611b11565b9160025492831015611d07575b5050505050565b611d1a611d12611aa3565b611ce4611b1e565b92611d34611d26611aa3565b611d2e611b4a565b85614ce7565b600f600052600460205292611e18611dfa611ddc611dbe611da0611d82600080516020615ddf8339815191525460106000526004602052600080516020615dff8339815191525b5490611b11565b60116000526004602052600080516020615d5f833981519152611d7b565b60126000526004602052600080516020615d9f833981519152611d7b565b60136000526004602052600080516020615dbf833981519152611d7b565b60146000526004602052600080516020615d1f833981519152611d7b565b60156000526004602052600080516020615d3f833981519152611d7b565b94851015611e28575b5050611d00565b959d5097509750975097509750611e5691995060049250611e47611aa3565b90611e50611b76565b90614ce7565b86549092908490611e6f906001600160a01b0316610864565b895163ab6e844f60e01b815293849182905afa801561048657611ebd94611eb79389926126dd575b50895190810192835291611eaf9083906020016108c2565b611e50611ba8565b10611bd9565b808211156126d557611ece91611c34565b600f60005260046020528080600080516020615ddf833981519152541061268c5750600f6000526004602052611f1490600080516020615ddf8339815191525b54611c34565b600f600052600460205292600080516020615ddf833981519152611f39858254611c34565b9055815b6010600052600460205280600080516020615dff83398151915254106126445760106000526004602052611f7f90600080516020615dff833981519152611f0e565b6010600052600460205292600080516020615dff833981519152611fa4858254611c34565b9055825b6011600052600460205280600080516020615d5f83398151915254106125fc5760116000526004602052611fea90600080516020615d5f833981519152611f0e565b6011600052600460205292600080516020615d5f83398151915261200f858254611c34565b9055805b6012600052600460205280600080516020615d9f83398151915254106125b4576012600052600460205261205590600080516020615d9f833981519152611f0e565b6012600052600460205292600080516020615d9f83398151915261207a858254611c34565b9055815b6013600052600460205280600080516020615dbf833981519152541061256c57601360005260046020526120c090600080516020615dbf833981519152611f0e565b6013600052600460205292600080516020615dbf8339815191526120e5858254611c34565b9055825b6014600052600460205280600080516020615d1f8339815191525410612525576014600052600460205261212b90600080516020615d1f833981519152611f0e565b6014600052600460205292600080516020615d1f833981519152612150858254611c34565b9055805b6015600052600460205281600080516020615d3f83398151915254106124da57506015600052600460205261219790600080516020615d3f833981519152611f0e565b6015600052600460205291600080516020615d3f8339815191526121bc848254611c34565b90555b600160005260046020527fabd6e7cb50984ff9c2f3e18a2660c3353dadf4e3291deeb275dae2cd1e44fe056121f58a8254611b11565b9055600260005260046020527f91da3fd0782e51c6b3986e9e672fd566868e71f3dbc2d6c2cd6fbb3e361af2a761222d898254611b11565b9055600360005260046020527f2e174c10e159ea99b867ce3205125c24a42d128804e4070ed6fcc8cc98166aa0612265888254611b11565b9055600460008190526020527f1a1e6821cde7d0159c0d293177871e09677b4e42307c7db3ba94f8648a5a050f61229d878254611b11565b9055600560005260046020527f04cde762ef08b6b6c5ded8e8c4c0b3f4e5c9ad7342c88fcc93681b4588b73f056122d5868254611b11565b9055600660005260046020527fc59312466997bb42aaaf719ece141047820e6b34531e1670dc1852a453648f0f61230d858254611b11565b905560076000526004602052600080516020615d7f833981519152612333848254611b11565b9055601f60005260046020527f4c55bec45be59a99d441ccb7880f9b68f316b687ab5ac77efc4386a807007768549161236d600254600855565b60085481513381526000602082018190526040820152606081018c905260808101829052604760a0820152600080516020615cff833981519152926124cb9291849060c090a180513381526000602082018190526040820152606081018d905260808101839052604860a0820152849060c090a180513381526000602082018190526040820152606081018c905260808101839052604960a0820152849060c090a180513381526000602082018190526040820152606081018b905260808101839052604a60a0820152849060c090a180513381526000602082018190526040820152606081018a905260808101839052604b60a0820152849060c090a1805133815260006020820181905260408201526060810189905260808101839052604c60a0820152849060c090a1513381526000602082018190526040820152606081018790526080810191909152604d60a082015290819060c0820190565b0390a138808080808080611e21565b60156000526004602052929061250190600080516020615d3f8339815191525b5490611c34565b5060156000526004602052600080516020615d3f83398151915280549390556121bf565b6014600052600460205261254790600080516020615d1f8339815191526124fa565b60146000526004602052600080516020615d1f83398151915280549085905593612154565b6013600052600460205261258e90600080516020615dbf8339815191526124fa565b60136000526004602052600080516020615dbf83398151915280549084905593906120e9565b601260005260046020526125d690600080516020615d9f8339815191526124fa565b60126000526004602052600080516020615d9f833981519152805490839055939061207e565b6011600052600460205261261e90600080516020615d5f8339815191526124fa565b60116000526004602052600080516020615d5f8339815191528054908590559390612013565b6010600052600460205261266690600080516020615dff8339815191526124fa565b60106000526004602052600080516020615dff8339815191528054908490559390611fa8565b600f60005260046020526126af9150600080516020615ddf8339815191526124fa565b600f6000526004602052600080516020615ddf8339815191528054908390559390611f3d565b505080611ece565b8192506126f990611eaf923d851161047f5761047081836119e2565b9190611e97565b61270b610e9761463f565b611cc1565b611cce91925061272f611cc991853d871161047f5761047081836119e2565b929150611c9d565b604051906127448261198e565b601382527255736572546f496e737428616464726573732960681b6020830152565b604051906127738261198e565b600b82526a6d696e74436f756e74282960a81b6020830152565b6000198114610ef75760010190565b604051906127a98261198e565b600e82526d6d696e74732875696e743235362960901b6020830152565b604051906127d38261198e565b600b82526a6d696e746564416765282960a81b6020830152565b604051906127fa8261198e565b600b82526a6d696e746564717479282960a81b6020830152565b604051906128218261198e565b600c82526b6964732875696e743235362960a01b6020830152565b604051906128498261198e565b60098252686d696e74416d74282960b81b6020830152565b1561286857565b60405162461bcd60e51b815260206004820152601560248201527473746f722e756e7365637572652e4f52433131353560581b6044820152606490fd5b604051906080820182811067ffffffffffffffff8211176119895760405260006060838281528260208201528260408201520152565b604051906128e88261198e565b600a825269647261776e616765282960b01b6020830152565b6040519061290e8261198e565b600c82526b4c53422875696e743235362960a01b6020830152565b604051906129368261198e565b6007825266647261776e282960c81b6020830152565b91908260c091031261048b5781519160208101519160408201519160608101519160a0608083015192015190565b604051906129878261198e565b60138252726765745265776172647328616464726573732960681b6020830152565b919082604091031261048b576020825192015190565b604051906129cc8261198e565b6007825266626f6e7573282960c81b6020830152565b604051906129ef8261198e565b600682526563616765282960d01b6020830152565b60405190612a118261198e565b601982527f67657445666665637469766552616e6b286164647265737329000000000000006020830152565b60405190612a4a8261198e565b601c82527f6765744e6f646544697265637473436f756e74286164647265737329000000006020830152565b60405190612a838261198e565b601f82527f6765746e6f646572616e6b61676528616464726573732c75696e7432353629006020830152565b60405190612abc8261198e565b601082526f6765744e6f646528616464726573732960801b6020830152565b908160a091031261048b578051916020820151612af7816106b1565b9160408101519160806060830151612b0e81610ae4565b920151611a1981610ae4565b60405190612b278261198e565b601582527467657444656c656761746f7228616464726573732960581b6020830152565b60405190612b588261198e565b6014825273697344656c656761746f7228616464726573732960601b6020830152565b60405190612b888261198e565b601a82527f77697468647261776e496e636f6d654f662861646472657373290000000000006020830152565b60005460049190602090612bd0906001600160a01b0316610864565b60405163111ea8c160e21b815293849182905afa91821561048657600092613806575b50600154604080516001600160a01b039092166020830152612c359190612c2790829081015b03601f1981018352826119e2565b612c2f612737565b84614d25565b906001600160a01b0382161580156137fa575b6137e057612c5f612c57611aa3565b611ce4612766565b90601954612c6d8183611b11565b8311156137d857612c7d91611b11565b8161346b575b508060195414908115613462575b50612c9f575b5050600a5490565b612cba612cb5612cad611aa3565b611ce46128db565b600955565b600954600790600754811161341a575b50612cf6612ce7612cd9611aa3565b612ce1612929565b8561500c565b6020808251830101910161294c565b600460209081527fabd6e7cb50984ff9c2f3e18a2660c3353dadf4e3291deeb275dae2cd1e44fe05969096557f91da3fd0782e51c6b3986e9e672fd566868e71f3dbc2d6c2cd6fbb3e361af2a7949094557f2e174c10e159ea99b867ce3205125c24a42d128804e4070ed6fcc8cc98166aa0929092557f1a1e6821cde7d0159c0d293177871e09677b4e42307c7db3ba94f8648a5a050f557f04cde762ef08b6b6c5ded8e8c4c0b3f4e5c9ad7342c88fcc93681b4588b73f055560066000527fc59312466997bb42aaaf719ece141047820e6b34531e1670dc1852a453648f0f55604080516001600160a01b03851692810192909252612e1e91612e0f91612e019082908101612c19565b612e0961297a565b8661500c565b602080825183010191016129a9565b60046020527ffe4d1297c5434445a55041cf44037c0799556cc55064da684dc6eed1a5dccabf9190915560686000527f1bb2e115e3876ad5c8aaab5c92f44bb73687e05843787aa070fd74a36346258855612e8a612e85612e7d611aa3565b611d2e6129bf565b601655565b612ea0612cb5612e98611aa3565b611d2e6129e2565b604080516001600160a01b0384166020820152612edc91612ed79190612ec99082908101612c19565b612ed1612a04565b86614ce7565b600a55565b604080516001600160a01b0384166020820152612f1291612f0d9190612f059082908101612c19565b612ed1612a3d565b600b55565b60005b600f81111561330b575050604080516001600160a01b039092166020830152612f8492612f6d92612f5e92909190612f5090839081016108c2565b612f58612aaf565b9061500c565b60208082518301019101612adb565b935050505060ff8019600354169115151617600355565b6131446131146003612fd7612f9a825460ff1690565b600160005260056020527f1471eb6eb2c5e789fc3de43f8ce62938c7d1836ec861730447e2ada8fd81017b5b9060ff801983541691151516179055565b613015612fe5825460ff1690565b600260005260056020527f89832631fb3c3307a103ba2c84ab569c64d6182a18893dcd163f0f1c2090733a612fc6565b613053613023825460ff1690565b600360005260056020527fa9bc9a3a348c357ba16b37005d7e6b3236198c0e939f4af8c5f19b8deeb8ebc0612fc6565b613091613061825460ff1690565b600460005260056020527f3eec716f11ba9e820c81ca75eb978ffb45831ef8b7a53e5e422c26008e1ca6d5612fc6565b6130cf61309f825460ff1690565b600560008190526020527f458b30c2d72bfd2c6317304a4594ecbafe5f729d3111b65fdc3a33bd48e5432d612fc6565b61310d6130dd825460ff1690565b600660005260056020527f069400f22b28c6c362558d92f66163cec5671cba50b61abd2eecfcd0eaeac518612fc6565b5460ff1690565b600760005260056020527feddb6698d7c569ff62ff64f1f1492bf14a54594835ba0faac91f84b4f5d81460612fc6565b600054613159906001600160a01b0316610864565b604051906314ac1b5960e21b808352602083600481855afa928315610486576000936132ea575b506001546131bc906001600160a01b0316604080516001600160a01b03831660208201529195906131b490839081016108c2565b6108d8612b1a565b604051828152602081600481875afa80156104865761320c926108c2926000926132c5575b50604080516001600160a01b039092166020830152909261320491849190820190565b61073c612b4b565b61322d575b505050613226600160ff196014541617601455565b3880612c97565b60209060046040518094819382525afa80156104865761327e926108c2926000926132a0575b50604080516001600160a01b039092166020830152909261327691849190820190565b611e50612b7b565b60076000526004602052600080516020615d7f83398151915255388080613211565b6132769192506132be9060203d60201161047f5761047081836119e2565b9190613253565b6132049192506132e39060203d60201161047f5761047081836119e2565b91906131e1565b61330491935060203d60201161047f5761047081836119e2565b9138613180565b80613323916133aa575b82811115613328575b61278d565b612f15565b600a548082116133915750604080516001600160a01b038616602082015290810182905261331e9061336f906133618160608101612c19565b613369612a76565b88614ce7565b61337883611639565b90919082549060031b91821b91600019901b1916179055565b61336f6133a061331e92611639565b90549060031b1c90565b604051632994ed6560e11b60208201526001600160a01b0385166024820152604481018290526133eb90612e0f906133e58160648101612c19565b876150a7565b6133fe8360005260208052604060002090565b90613413846000526021602052604060002090565b5555613315565b600755613445612c1961343d600954604051928391602083019190602083019252565b611ce4612901565b61345b600754600052601f602052604060002090565b5538612cca565b90501538612c91565b939192905b601954858110156137cc5761348761348c9161278d565b601955565b6134ba612c196134ac601954604051928391602083019190602083019252565b6134b461279c565b86614d25565b6134d56134d06134c8611aa3565b611ce46127c6565b600255565b6134ee6134e0611aa3565b6134e86127ed565b83614ce7565b61357461351560405161350d81612c1960208201906000602083019252565b611d2e612814565b9261353261352c613524611aa3565b611ce461283c565b916143e1565b60005460209061354a906001600160a01b0316610864565b6040516333ea87db60e21b81526001600160a01b0390931660048401529193849081906024820190565b0381845afa928315610486576000936137ab575b506001600160a01b03831615613738575b50613721906136e4600080516020615cff833981519152956135c26135bd8661431b565b612861565b6136556135eb84886135d26128a5565b948286528160208701526002998a546060880152614d70565b6001600160a01b031660408301908152915b613613601954600052601a602052604060002090565b90606060039180518455602081015160018501556002840160018060a01b036040830151166bffffffffffffffffffffffff60a01b8254161790550151910155565b61365e83614e9a565b50600160195414613729575b60008052602080527f29ab76e7ca72530a8284597fb76b039d796325740b21528d71ade454c6f2dbe961369e848254611b11565b90556000805260216020527f97ea4a93fb5e400340102ffa4fa5d31ef170c1e583d2cb268c876db385f80bb06136d5878254611b11565b9055516001600160a01b031690565b9254604080513381526001600160a01b03909516602086015284019490945260608301526080820192909252600060a082015290819060c0820190565b0390a1613470565b6137338554600755565b61366a565b604051635bb8e44b60e11b815260006004820152949250602090859060249082905afa908115610486576136e461372192600080516020615cff8339815191529660009161378c575b509395505090613599565b6137a5915060203d60201161047f5761047081836119e2565b38613781565b6137c591935060203d60201161047f5761047081836119e2565b9138613588565b50909291935038612c83565b505080612c7d565b5050506137f5600160ff196014541617601455565b600090565b5060145460ff16612c48565b61382091925060203d60201161047f5761047081836119e2565b9038612bf3565b604051906138348261198e565b601182527069735369676e657228616464726573732960781b6020830152565b604051906138618261198e565b600b82526a697353757370656e64282960a81b6020830152565b604051906138888261198e565b600882526769734c6f636b282960c01b6020830152565b600360005260056020527fa9bc9a3a348c357ba16b37005d7e6b3236198c0e939f4af8c5f19b8deeb8ebc05460ff166138e45760ff8019600354169115151617600355565b60405162461bcd60e51b815260206004820152600e60248201526d1cdd1bdc8b9cdd5cdc195b99195960921b6044820152606490fd5b60ff60145460081c161561392c575050565b600560008190526020527f458b30c2d72bfd2c6317304a4594ecbafe5f729d3111b65fdc3a33bd48e5432d5460ff1615613a0c57600c60005260046020527f140aabff1a85df08546c9a350c79ae18341bde4a2cef5d2fd460885c0128ce26555b6006600052600560205260ff7f069400f22b28c6c362558d92f66163cec5671cba50b61abd2eecfcd0eaeac5185416156139f057600d60005260046020527fa5022b2bfd144bf9103d80168549b5df7c72ab60bd51bf71a02a08d844853b4a555b565b60146000526004602052600080516020615d1f83398151915255565b60136000526004602052600080516020615dbf8339815191525561398d565b9493909291928315613ace57613a8c93600a549683600014613aa15781613a6591613a6d613a65613a7f9560005260208052604060002090565b918254611b11565b90556000526021602052604060002090565b90555b15613a9257615655565b600a5490565b613a9c6000600a55565b615655565b81613abf91613a6d613abf613ac79560005260208052604060002090565b918254611c34565b9055613a82565b60405162461bcd60e51b815260206004820152600f60248201526e73746f722e6c6576656c2e7a65726f60881b6044820152606490fd5b60405190613b128261198e565b600f82526e6d696e744379636c6544617973282960881b6020830152565b8115613b3a570490565b634e487b7160e01b600052601260045260246000fd5b60405190613b5d8261198e565b60128252716d61784d696e74735065724379636c65282960701b6020830152565b15613b8557565b60405162461bcd60e51b815260206004820152601760248201527f73746f722e6d696e746c696d69742e65786365656465640000000000000000006044820152606490fd5b60405190613bd78261198e565b600c82526b6d696e4d696e74517479282960a01b6020830152565b60405190613bff8261198e565b600c82526b6d61784d696e74517479282960a01b6020830152565b15613c2157565b60405162461bcd60e51b815260206004820152601060248201526f73746f722e6c6f776f6d61782e71747960801b6044820152606490fd5b15613c6057565b60405162461bcd60e51b815260206004820152601360248201527273746f722e66616b652e6d696e7476616c756560681b6044820152606490fd5b94919093613caa6134d06151a2565b600054600490602090613cc5906001600160a01b0316610864565b60405163cfbffe5360e01b815292839182905afa801561048657613d6a91600091613f05575b50613d31613d0d613d05613cfd611aa3565b611d2e613b05565b600254613b30565b613d2b613d23613d1b611aa3565b612ed1613b50565b601954613b30565b14613b7e565b613d59613d47613d3f611aa3565b611ce4613bca565b91613d50611aa3565b90611e50613bf2565b908410159081613efa575b50613c1a565b613d766135bd8761431b565b8360018214613e83575b50613df4613dde8584600080516020615cff83398151915296979860195415600014613e7e57613db1600254600755565b613dbf61348760195461278d565b613dc76128a5565b9a838c528260208d015260025460608d0152614d70565b6001600160a01b031660408801908152966135fd565b613e69613e29613e0387614e9a565b97613e17611cb860145460ff9060081c1690565b613e6e575b516001600160a01b031690565b600254604080513381526001600160a01b03909316602084015282019490945260608101879052608081019390935260a0830191909152819060c0820190565b0390a1565b613e79610e9761463f565b613e1c565b613db1565b600080516020615cff833981519152939450613dde613df49184613ecf98613ed4612e85613eb084615764565b809c819682151580613ee0575b613ec690613c59565b60165490611b11565b611c34565b98505095945050613d80565b50613ec683613ef160165484611b11565b10159050613ebd565b905083111538613d64565b613f1e915060203d60201161047f5761047081836119e2565b38613ceb565b60405190613f318261198e565b60148252736c6576656c436c617573652875696e743235362960601b6020830152565b908160a091031261048b578051916020820151916040810151916080606083015192015190565b9081606402916064830403610ef757565b90606482029180830460641490151715610ef757565b81810292918115918404141715610ef757565b909594929192600a5496613fd28460005260208052604060002090565b613fdd848254611b11565b9055613ff3846000526021602052604060002090565b613ffe828254611b11565b905560008052602080527f29ab76e7ca72530a8284597fb76b039d796325740b21528d71ade454c6f2dbe954151580614312575b614043575b505050505050600a5490565b614304575b60005461405d906001600160a01b0316610864565b604051809163cfbffe5360e01b825281600460209384935afa918215610486576140bc926140af916000916142e7575b50604051906140a7826108c28a8783019190602083019252565b612f58613f24565b8051810182019101613f54565b9490919360028811918215926142ba575b50506140db575b5050614037565b6141016140fb936140fb6140f56140f59561410799613fa2565b91613f7b565b90613b30565b96613fa2565b50600160005260056020527f1471eb6eb2c5e789fc3de43f8ce62938c7d1836ec861730447e2ada8fd81017b5460ff16806142ab575b1561428557600860005260046020527f2645749a946633740611cfc8178319f0958659d6922e4bf7e3a08b44789f53a4614178838254611b11565b90555b600460005260056020526141ae7f3eec716f11ba9e820c81ca75eb978ffb45831ef8b7a53e5e422c26008e1ca6d561310d565b80614276575b156142585750600b60005260046020526141ed7f0c1469ad586d86b6976c45826d7ae56d76ee516e37a2bccffbe904b74dbae7ea613a65565b90555b6014546142019060081c60ff161590565b614212575b808080808080806140d4565b61423f9061421e61463f565b9081614245575b5061ff0060145491151560081b169061ff00191617601455565b38614206565b611cc98161425292614a2a565b38614225565b613a6561426f916000526023602052604060002090565b90556141f0565b5060145460081c60ff166141b4565b614299816000526022602052604060002090565b6142a4838254611b11565b905561417b565b5060145460081c60ff1661413d565b9091506142c96009548b611c34565b109081156142da575b5038806140cd565b9050600a541015386142d2565b6142fe9150833d851161047f5761047081836119e2565b3861408d565b61430d85615655565b614048565b50831515614032565b600054604051634bf9c0ad60e11b815291906020906001600160a01b039082908590600490829085165afa90811561048657611a19946000926143a1575b5060405193168284015281835261436f8361198e565b7469735365637572654261736528616464726573732960581b604051926143958461198e565b6015845283015261515e565b6143b9919250833d851161047f5761047081836119e2565b9038614359565b6000808080938181156143d8575b8290f11561048657565b506108fc6143ce565b803b60006143ee82611a74565b926143fc60405194856119e2565b82845260208401903c602d81511061441857602a015160601c90565b60405162461bcd60e51b81526020600482015260136024820152724e6f742061206d696e696d616c2070726f787960681b6044820152606490fd5b6139ee969593613061613114946130236144df9895612fe56144ab966144776151a2565b8060025560ff60145460081c16156144f1575b506001600052600560205260406000209060ff801983541691151516179055565b600560008190526020526130dd817f458b30c2d72bfd2c6317304a4594ecbafe5f729d3111b65fdc3a33bd48e5432d612fc6565b60ff8019600354169115151617600355565b611cc9816144fe92614a2a565b3861448a565b604051906145118261198e565b6011825270697364656c656761746f724e6f6465282960781b6020830152565b600054604051634bf9c0ad60e11b815290602090829060049082906001600160a01b03165afa801561048657611a19916000916145a1575b506040516145768161198e565b6008815267697353616665282960c01b602082015260405191614598836119aa565b6000835261515e565b6145ba915060203d60201161047f5761047081836119e2565b38614569565b604051906145cd8261198e565b600982526863617070696e67282960b81b6020830152565b908160e091031261048b57805191602082015161460181610ae4565b91604081015161461081610ae4565b91606082015161461f81610ae4565b91608081015161462e81610ae4565b9160c060a0830151612b0e81610ae4565b60005460049060209061465a906001600160a01b0316610864565b60405163cfbffe5360e01b815292839182905afa908115610486576146ab9161469c91600091614a0b575b5061468e6145c0565b614696611a90565b9161500c565b602080825183010191016145e5565b60008052602080529395929492939290917f29ab76e7ca72530a8284597fb76b039d796325740b21528d71ade454c6f2dbe954956146e98688613fa2565b976146f261580b565b946149ca575b50614946575b6148e0575b61489f575b506147c9575b614761575b6000805260046020527f17ef568e3e12ab5b9c7254a8d58478811de00f9e6eb34345acd53bf8fd09d3ec5461474791613fa2565b8082101561475457501190565b61475d91611c34565b1190565b6007600052600460205290614747906147c1906147bb611dfa600080516020615d7f8339815191525b54600e60005260046020527feb3e677499e881fe1bdbc344a49c412138038a9f40883b6dc68f713aab483523611d7b565b90611b11565b919050614713565b6005600052600460205291614899906147bb614869614839611ddc611dbe7f04cde762ef08b6b6c5ded8e8c4c0b3f4e5c9ad7342c88fcc93681b4588b73f0554600660005260046020527fc59312466997bb42aaaf719ece141047820e6b34531e1670dc1852a453648f0f611d7b565b600c60005260046020527f140aabff1a85df08546c9a350c79ae18341bde4a2cef5d2fd460885c0128ce26611d7b565b600d60005260046020527fa5022b2bfd144bf9103d80168549b5df7c72ab60bd51bf71a02a08d844853b4a611d7b565b9161470e565b600b600052600460205290936148d9916147bb907f0c1469ad586d86b6976c45826d7ae56d76ee516e37a2bccffbe904b74dbae7ea611d7b565b9238614708565b60046020527f2e174c10e159ea99b867ce3205125c24a42d128804e4070ed6fcc8cc98166aa054600a6000529095614940916147bb90611d82907f5c6b02db8b672415ffad906d7ccee10bd53dbad7d0b29e2bc0e50c93d5f31093611d7b565b94614703565b60046020527f91da3fd0782e51c6b3986e9e672fd566868e71f3dbc2d6c2cd6fbb3e361af2a754600960005290966149c4916147bb906149a6907f4ad5a04d53b5856f318545bb721f67d3f6d0a5a999f25eec7e20eaeb4c47b933611d7b565b60106000526004602052600080516020615dff833981519152611d7b565b956146fe565b600860005260046020529097614a04916147bb907f2645749a946633740611cfc8178319f0958659d6922e4bf7e3a08b44789f53a4611d7b565b96386146f8565b614a24915060203d60201161047f5761047081836119e2565b38614685565b600754918201809211610ef75781811115614a43575090565b905090565b6139ee90614a55816152dd565b9593925093959050614a75613a65600f6000526004602052604060002090565b905560126000526004602052614a98600080516020615d9f833981519152613a65565b905560026000526005602052614acd7f89832631fb3c3307a103ba2c84ab569c64d6182a18893dcd163f0f1c2090733a61310d565b80614cd8575b15614cb05760096000526004602052614b0b7f4ad5a04d53b5856f318545bb721f67d3f6d0a5a999f25eec7e20eaeb4c47b933613a65565b90555b60036000526005602052614b417fa9bc9a3a348c357ba16b37005d7e6b3236198c0e939f4af8c5f19b8deeb8ebc061310d565b80614ca1575b15614c7657600a60005260046020527f5c6b02db8b672415ffad906d7ccee10bd53dbad7d0b29e2bc0e50c93d5f31093614b82848254611b11565b90555b60076000526005602052614bb87feddb6698d7c569ff62ff64f1f1492bf14a54594835ba0faac91f84b4f5d8146061310d565b80614c67575b15614c3f57600e6000526004602052614bf67feb3e677499e881fe1bdbc344a49c412138038a9f40883b6dc68f713aab483523613a65565b90555b614c0d83600052601f602052604060002090565b55601f60005260046020527f4c55bec45be59a99d441ccb7880f9b68f316b687ab5ac77efc4386a80700776855600755565b60156000526004602052614c60600080516020615d3f833981519152613a65565b9055614bf9565b5060145460081c60ff16614bbe565b60116000526004602052600080516020615d5f833981519152614c9a848254611b11565b9055614b85565b5060145460081c60ff16614b47565b60106000526004602052614cd1600080516020615dff833981519152613a65565b9055614b0e565b5060145460081c60ff16614ad3565b9291614cf5916000946158cc565b9080614d1a575b614d035750565b90915060208180518101031261048b576020015190565b506020815114614cfc565b9291614d33916000946158cc565b9080614d65575b614d415750565b80519192506001600160a01b0391614d6191602091810182019101611a04565b1690565b506020815114614d3a565b91614dd692614dc79260018060a01b0395866001541693600254926040519563c85700fb60e01b6020880152602487015260448601526064850152608484015260a483015260a48252614dc2826119c6565b6150a7565b60208082518301019101611a04565b168015614de05790565b60405162461bcd60e51b815260206004820152601060248201526f1cdd1bdc8b9b5a5b9d0b99985a5b195960821b6044820152606490fd5b60405190614e258261198e565b6006825265706f6f6c282960d01b6020830152565b908160e091031261048b5780519160208201519160408101519160608201519160808101519160c060a083015192015190565b91909160008382019384129112908015821691151617610ef757565b600160ff1b8114610ef75760000390565b60005460049190602090614eb6906001600160a01b0316610864565b60405163cfbffe5360e01b815293849182905afa801561048657614f32614f276140fb614f276140fb95614f17614f08614f2d97611a199a600091614f92575b50614eff611aa3565b90612f58614e18565b60208082518301019101614e3a565b9b959c9394919992969050613fa2565b91613f8c565b613fa2565b91614f52614f4282600254611b11565b600052601f602052604060002090565b614f5d848254614e6d565b9055614f8b614f83614f4284614f7e614f7588614e89565b95600254611b11565b611b11565b918254614e6d565b9055613fa2565b614fab915060203d60201161047f5761047081836119e2565b38614ef6565b9081519160005b838110614fc9575050016000815290565b8060208092840101518185015201614fb8565b3d15615007573d90614fed82611a74565b91614ffb60405193846119e2565b82523d6000602084013e565b606090565b919091803b1561509857600092612c1961506f859461503f6040519463ffffffff60e01b90602081519101201694611975565b604051936020850152600484526150558461198e565b604051928391615069602084018097614fb1565b90614fb1565b51915afa61507b614fdc565b90156150845790565b50604051615091816119aa565b6000815290565b505050604051615091816119aa565b6001600160a01b038116156151245781600092918360208194519301915af16150ce614fdc565b90156150d75790565b8051156150e657805190602001fd5b60405162461bcd60e51b81526020600482015260166024820152751bdddb8b9d185c99d95d0b98d85b1b0b99985a5b195960521b6044820152606490fd5b60405162461bcd60e51b81526020600482015260126024820152711bdddb8b9a5b9d985b1a590b9d185c99d95d60721b6044820152606490fd5b929161516c916000946158cc565b9080615197575b61517a5750565b90915060208180518101031261048b5760200151611a1981610ae4565b506020815114615173565b60005460405163111ea8c160e21b815290602090829060049082906001600160a01b03165afa801561048657611a199160009161520f575b506040516151e78161198e565b6005815264616765282960d81b602082015260405191615206836119aa565b60008352614ce7565b615228915060203d60201161047f5761047081836119e2565b386151da565b6040519061523b8261198e565b600a82526973687574646f776e282960b01b6020830152565b818102929160008212600160ff1b821416610ef7578184051490151715610ef757565b604051906152848261198e565b601882527f676574557365724964546f496e73742875696e743235362900000000000000006020830152565b604051906152bd8261198e565b6011825270696e636f6d654f6628616464726573732960781b6020830152565b90600090600092838485866152fb610864895460018060a01b031690565b9560409687519963cfbffe5360e01b8b5260209a8b81600481865afa80156104865761533a918391615609575b50615331611aa3565b9061073c61522e565b9a615343615921565b99909c8391600754908215915b81811061558f575050506000146155895750895163ab6e844f60e01b81528181600481875afa908115610486576153ae916108c291859161556c575b506153a68d60065490519384918783019190602083019252565b6108d8615277565b31995b80516314ac1b5960e21b80825292908181600481895afa90811561048657859161554f575b5060015483516001600160a01b039091168382018181528290038083529095601f1993909261540f929091906131b490602001836119e2565b845182815284816004818c5afa80156104865761546192615455928a9261552c575b5087516001600160a01b039091168782019081529092613204918491602090910190565b038681018452836119e2565b61546f575b50505050505050565b8394959697995060048394939293518099819382525afa918215610486576154fa966154d09693615507575b5092516001600160a01b0390941692840192835290916154c8919084906020015b039081018452836119e2565b611e506152b0565b600760005260046020526154f4611dfa600080516020615d7f83398151915261478a565b90611c34565b9138808080808080615466565b6154c893506155256154bc91833d851161047f5761047081836119e2565b935061549b565b61320491925061554890883d8a1161047f5761047081836119e2565b9190615431565b6155669150823d841161047f5761047081836119e2565b386153d6565b6155839150843d861161047f5761047081836119e2565b3861538c565b996153b1565b829f61559e906147bb83615ae4565b9f6155ac575b600101615350565b93986156016155d26001926155cb88600052601f602052604060002090565b5490614e6d565b9a6155fb6155ea88600052601f602052604060002090565b546155f58987611c34565b90615254565b90614e6d565b9490506155a4565b61562091508d803d1061047f5761047081836119e2565b38615328565b604051906156338261198e565b601382527272616e6b436c617573652875696e743235362960681b6020830152565b600a615662600a54611b03565b6008811061566f57505050565b60008054909190615688906001600160a01b0316610864565b91604092835191829163cfbffe5360e01b835282600460209485935afa8015610486576001956156e9946156dc9392615745575b5051906156d4826108c2888783019190602083019252565b612f58615626565b80518101820191016129a9565b90600b541015908161571e575b50615710575b61570a846133788554611639565b01615662565b61571981600a55565b6156fc565b905061573c61572c83611c25565b6000526021602052604060002090565b541015386156f6565b61575d919250843d861161047f5761047081836119e2565b90386156bc565b60005460405163cfbffe5360e01b815291906020908190849060049082906001600160a01b03165afa801561048657611a19936000916157ee575b5060405192828401528183526157b48361198e565b7f636f6d707574654d696e7456616c75652875696e743235362900000000000000604051926157e28461198e565b60198452830152614ce7565b6158059150823d841161047f5761047081836119e2565b3861579f565b600090816001815b600f82111561588c575050606560005260046020527ffe4d1297c5434445a55041cf44037c0799556cc55064da684dc6eed1a5dccabf548101809111610ef75760686000526004602052917f1bb2e115e3876ad5c8aaab5c92f44bb73687e05843787aa070fd74a363462588548101809111610ef75790565b909384825260209260228452604090818420548101809111610ef75760239094878552528220548101809111610ef7576158c6909461278d565b90615813565b919091803b1561590f57600092612c196158ff859461503f6040519463ffffffff60e01b90602081519101201694611975565b51915afa61590b614fdc565b9091565b505050600090604051615091816119aa565b61592961580b565b60046020527fabd6e7cb50984ff9c2f3e18a2660c3353dadf4e3291deeb275dae2cd1e44fe0554600860009081527f2645749a946633740611cfc8178319f0958659d6922e4bf7e3a08b44789f53a454929493928201918210610ef75780600f60409252600460205220548101809111610ef7578103908111610ef75760046020527f1a1e6821cde7d0159c0d293177871e09677b4e42307c7db3ba94f8648a5a050f54600b6000527f0c1469ad586d86b6976c45826d7ae56d76ee516e37a2bccffbe904b74dbae7ea54919391810191908210610ef75760126000526004602052611a19916154f490600080516020615d9f833981519152611d7b565b60405190615a348261198e565b6014825273676574627573696e6573732875696e743235362960601b6020830152565b60405190615a648261198e565b601d82527f67657472616e6b436f756e742875696e743235362c75696e74323536290000006020830152565b60405190615a9d8261198e565b601782527f726f79616c697479436c617573652875696e74323536290000000000000000006020830152565b9081606091031261048b578051916040602083015192015190565b60008054909291908390615b00906001600160a01b0316610864565b9160405163ab6e844f60e01b8152602081600481875afa801561048657615b4f91600091615cdf575b5060409593955190615b47826108c286602083019190602083019252565b611e50615a27565b92600192600a54955b8685111580615cd6575b15615ccc5760405163ab6e844f60e01b8152602081600481875afa801561048657615bb6918a91615cad575b50604080516020810188905290810188905290615bae82606081016108c2565b611e50615a57565b8015615ca25760405163cfbffe5360e01b8152602081600481885afa801561048657615c0b615c1a918a938d91615c83575b5060405190615c03826108c28d602083019190602083019252565b612f58615a90565b60208082518301019101615ac9565b8293919315615c7457615c3390614f7e6133a08c611639565b8811615c665792615c55615c6095936140fb6140f56147bb95615c5a98613fa2565b613b30565b9461278d565b93615b58565b5050505093615c609061278d565b505050505093615c609061278d565b615c9c915060203d60201161047f5761047081836119e2565b38615be8565b5093615c609061278d565b615cc6915060203d60201161047f5761047081836119e2565b38615b8e565b9650945050505050565b50851515615b62565b615cf8915060203d60201161047f5761047081836119e2565b38615b2956fe1517c86fcf2bfb8e3468afcc539b0004955da8027797c497ea51d1f1094ab898f7deed9399d719bf61dcb1322c056a03a885c275ab093673b0cc182b84bea0611bb30a1647f6f6723cb3a88838ce0319afabe51263fc466f2f669a7a24ad88c6ac375bcb880242328180c23d4a918023a12a7caf7cf12b8c4074e4a3f39900a0beb3bad75134cb432e5707980e3245c52c5998a1125ee30f2f0dbf3925b1e5517f6fa3f34639ea1891363ca773619dbd5f652d7ab50411111dde2f57e3ae13ad9bbf2ad10217b6212df1939350a047a69b6887b770020d3fa8c328c0653ee98766b61daf77b854ca6ba000a8d4b340eafcdb71b6583753b4af89fceb54988fff4a597304b2df0a7a7b428b3c24c35ba6373aabebf9972387f5610f74a01b21bda2646970667358221220fa53dc54ea98217f6aa2a02eb78338cd65d606f1b016635c9daa00a84600b0c664736f6c63430008180033a2646970667358221220cbd5b6b143df0a8100b5fdfcef6611a773071b15d5a4ade5024b0efb33dc6b2564736f6c63430008180033","linkReferences":{}},"methodIdentifiers":{"_instanceStor()":"4d057ca5","deployInstanceStor()":"ac00742d"},"id":32}