{"abi":[{"type":"constructor","inputs":[{"name":"_hex","type":"address","internalType":"address"},{"name":"_price","type":"address","internalType":"address"},{"name":"_old741","type":"address","internalType":"address"}],"stateMutability":"nonpayable"},{"type":"function","name":"dAOAssembly","inputs":[],"outputs":[{"name":"","type":"address","internalType":"address"}],"stateMutability":"view"},{"type":"function","name":"daocore","inputs":[],"outputs":[{"name":"","type":"address","internalType":"address"}],"stateMutability":"view"},{"type":"function","name":"nested741","inputs":[],"outputs":[{"name":"","type":"address","internalType":"address"}],"stateMutability":"view"},{"type":"function","name":"old741","inputs":[],"outputs":[{"name":"","type":"address","internalType":"address"}],"stateMutability":"view"},{"type":"function","name":"price","inputs":[],"outputs":[{"name":"","type":"address","internalType":"address"}],"stateMutability":"view"}],"bytecode":{"object":"0x6080346101b757601f61928c38819003918201601f19168301926001600160401b03929091838511838610176101a15781606092849260409788528339810103126101b75761004d816101bc565b6100648461005d602085016101bc565b93016101bc565b9160018060a01b03199273c0cee8b561cc4f60869776ca5b0b7a295e04f5af846001541617600155855161120a9586820196828810828911176101a15761032583396001600160a01b039485168088526000979092908190036020019088f080156101835785168660035416176003558751615dfd808201908282108483111761018d57602091839161348f833985815203019088f08015610183578516866002541617600255875191611f60808401928484109084111761016f5791839160209361152f8439815203019086f080156101655790838092168560045416176004551683600154161760015516908254161790555161015490816101d18239f35b86513d87823e3d90fd5b634e487b7160e01b89526041600452602489fd5b88513d89823e3d90fd5b634e487b7160e01b8a52604160045260248afd5b634e487b7160e01b600052604160045260246000fd5b600080fd5b51906001600160a01b03821682036101b75756fe608080604052600436101561001357600080fd5b600090813560e01c90816314837455146100f55750806314d8d024146100ce57806345cff900146100a75780635540c5ac146100805763a035b1fe1461005857600080fd5b3461007d578060031936011261007d576001600160a01b036020915416604051908152f35b80fd5b503461007d578060031936011261007d5760206001600160a01b0360015416604051908152f35b503461007d578060031936011261007d5760206001600160a01b0360025416604051908152f35b503461007d578060031936011261007d5760206001600160a01b0360045416604051908152f35b90503461011a578160031936011261011a576020906001600160a01b03600354168152f35b5080fdfea264697066735822122013ba13ae4e4bfcffa4cd9869e45468cb6f61d0cf8884a28f98c50e2a66acc45864736f6c6343000814003360803461009757601f61120a38819003918201601f19168301916001600160401b0383118484101761009c5780849260209460405283398101031261009757516001600160a01b038116908190036100975780156100855760018060a01b0319338160015416176001556000541617600055600060045560405161115790816100b38239f35b60405163e6c4247b60e01b8152600490fd5b600080fd5b634e487b7160e01b600052604160045260246000fdfe60806040526004361015610018575b361561001657005b005b60003560e01c806312065fe0146101085780631f185d161461010357806325924f34146100fe5780633b9b7955146100f957806361b7fbd9146100f45780638da5cb5b146100ef578063a1f7f539146100ea578063af484526146100e5578063b90306ad146100e0578063c54e44b0146100db578063c89b84fd146100d6578063dbac26e9146100d1578063e01ad5fd146100cc578063e0a9bc2b146100c75763fdc10bc90361000e576108bc565b610837565b61079d565b61075a565b610650565b6105ca565b610543565b610496565b6103d8565b6103b1565b6102ea565b6102b9565b610288565b61013a565b3461012457600036600319011261012457602047604051908152f35b600080fd5b6001600160a01b0381160361012457565b34610124576020806003193601126101245760043561015881610129565b60048261017c6101706000546001600160a01b031690565b6001600160a01b031690565b60405192838092634bf9c0ad60e11b82525afa8015610283576101e4926101c892600092610250575b506101d6906040519384918783019190916001600160a01b036020820193169052565b03601f198101845283610932565b6101de610d19565b90610fa8565b919080610246575b1561021c5781816102069261021894518301019101610ccb565b60405190151581529081906020820190565b0390f35b60046040517f3204506f000000000000000000000000000000000000000000000000000000008152fd5b50808251146101ec565b6101d691925061027590863d881161027c575b61026d8183610932565b810190610954565b91906101a5565b503d610263565b61096c565b346101245760203660031901126101245760206102af6004356102aa81610129565b610a8b565b6040519015158152f35b346101245760003660031901126101245760206001600160a01b0360005416604051908152f35b8015150361012457565b346101245760403660031901126101245760043561030781610129565b602435610313816102e0565b60046001600160a01b03602061033382600054166001600160a01b031690565b60405193848092630536340960e21b82525afa91821561028357600092610391575b50339116036103675761001691610c3b565b60046040517fea8e4eb5000000000000000000000000000000000000000000000000000000008152fd5b6103aa91925060203d811161027c5761026d8183610932565b9038610355565b346101245760003660031901126101245760206001600160a01b0360015416604051908152f35b3461012457600036600319011261012457600460206001600160a01b03600054166040519283809263d1f956b160e01b82525afa908115610283576102189161046891600091610478575b50604051610430816108f5565b601381527f67657464656c656761746f72436f756e742829000000000000000000000000006020820152610462610994565b916110e3565b6040519081529081906020820190565b610490915060203d811161027c5761026d8183610932565b38610423565b3461012457602080600319360112610124576004356104b481610129565b6004826104cc6101706000546001600160a01b031690565b60405192838092634bf9c0ad60e11b82525afa8015610283576101e4926101c892600092610520575b50610518906040519384918783019190916001600160a01b036020820193169052565b6101de610ce0565b61051891925061053c90863d881161027c5761026d8183610932565b91906104f5565b346101245760203660031901126101245760046001600160a01b03602061057482600054166001600160a01b031690565b60405193848092630536340960e21b82525afa918215610283576000926105aa575b503391160361036757610016600435610e74565b6105c391925060203d811161027c5761026d8183610932565b9038610596565b34610124576020366003190112610124576004356105e781610129565b803b60006105f482610978565b926106026040519485610932565b82845260208401903c602d81511061062657602a602091015160601c604051908152f35b60046040517fbaf3f0f7000000000000000000000000000000000000000000000000000000008152fd5b34610124576000806003193601126107575761067661017082546001600160a01b031690565b906040519163cfbffe5360e01b835260208084600481855afa8015610283576106b58291600496869161073a575b506106ad6109a7565b610462610994565b926040519586809263ab6e844f60e01b82525afa90811561028357610218946104689492610717575b50610709906101c86106ee610d52565b94604051958693840160209093929193604081019481520152565b610711610bec565b906110e3565b81925061073390610709923d851161027c5761026d8183610932565b91906106de565b6107519150833d851161027c5761026d8183610932565b386106a4565b80fd5b34610124576020366003190112610124576001600160a01b0360043561077f81610129565b166000526003602052602060ff604060002054166040519015158152f35b346101245760208060031936011261012457600480356107bc81610129565b6001600160a01b03928084600054166040519485809263d1f956b160e01b82525afa908115610283576102189461020694600093610818575b50604051931681840152825261080a826108f5565b610812610e0b565b906110a7565b610830919350823d841161027c5761026d8183610932565b91386107f5565b346101245760003660031901126101245761085d6101706000546001600160a01b031690565b6040518091634bf9c0ad60e11b825281600460209485935afa8015610283576101e49160009161089f575b50610891610c92565b610899610994565b91610fa8565b6108b69150833d851161027c5761026d8183610932565b38610888565b346101245760003660031901126101245760206108d7610d52565b604051908152f35b634e487b7160e01b600052604160045260246000fd5b6040810190811067ffffffffffffffff82111761091157604052565b6108df565b6020810190811067ffffffffffffffff82111761091157604052565b90601f8019910116810190811067ffffffffffffffff82111761091157604052565b90816020910312610124575161096981610129565b90565b6040513d6000823e3d90fd5b67ffffffffffffffff811161091157601f01601f191660200190565b604051906109a182610916565b60008252565b604051906109b4826108f5565b600c82527f72616e6b666f7244414f282900000000000000000000000000000000000000006020830152565b604051906109ed826108f5565b601682527f67657455736572546f53746f72286164647265737329000000000000000000006020830152565b60405190610a26826108f5565b600682527f72616e6b282900000000000000000000000000000000000000000000000000006020830152565b60405190610a5f826108f5565b600882527f69734c6f636b28290000000000000000000000000000000000000000000000006020830152565b610aa06101706000546001600160a01b031690565b9060405163cfbffe5360e01b81526020908181600481875afa801561028357610ad7839160049360009161073a57506106ad6109a7565b946040519283809263ab6e844f60e01b82525afa801561028357610b30928492600092610bc9575b506040516001600160a01b03909316908301908152610b229083906020016101c8565b610b2a6109e0565b90611056565b916001600160a01b03831615610bc157610b74610b5d610b4e610a19565b610b56610994565b90866110e3565b93610b66610a52565b610b6e610994565b916110a7565b9210159182610bb8575b5081610b88575090565b6109699150610bad610bb4916001600160a01b03166000526003602052604060002090565b5460ff1690565b1590565b15915038610b7e565b505050600090565b819250610be590610b22923d851161027c5761026d8183610932565b9190610aff565b60405190610bf9826108f5565b601d82527f67657472616e6b636f756e742875696e743235362c75696e74323536290000006020830152565b634e487b7160e01b600052601160045260246000fd5b6001600160a01b03166000526003602052604060002060ff1981541660ff83151516179055600014610c80576004546000198114610c7b57600101600455565b610c25565b6004548015610c7b5760001901600455565b60405190610c9f826108f5565b600882527f69735361666528290000000000000000000000000000000000000000000000006020830152565b908160209103126101245751610969816102e0565b60405190610ced826108f5565b601582527f69735365637572654261736528616464726573732900000000000000000000006020830152565b60405190610d26826108f5565b601182527f69735369676e65722861646472657373290000000000000000000000000000006020830152565b600460206001600160a01b0360005416604051928380927f447aa3040000000000000000000000000000000000000000000000000000000082525afa80156102835761096991600091610ded575b50604051610dad816108f5565b600581527f6167652829000000000000000000000000000000000000000000000000000000602082015260405191610de483610916565b600083526110e3565b610e05915060203d811161027c5761026d8183610932565b38610da0565b60405190610e18826108f5565b601882527f697364656c656761746f724e6f646528616464726573732900000000000000006020830152565b3d15610e6f573d90610e5582610978565b91610e636040519384610932565b82523d6000602084013e565b606090565b6000610e8a61017082546001600160a01b031690565b9060405180927f46f991ac00000000000000000000000000000000000000000000000000000000825281600460209586935afa80156102835782808681949382948391610f8b575b505af1610edd610e44565b501561021c57600482610efa61017084546001600160a01b031690565b604051928380927f5e09dbe70000000000000000000000000000000000000000000000000000000082525afa908115610283577fcdcc745fe377b103b45fa0cec23ae3ef93d6fc6a84a01f0d18c40b354dd1d5d8936001600160a01b039392610f6e575b50506040519384521691602090a2565b610f849250803d1061027c5761026d8183610932565b3880610f5e565b610fa29150883d8a1161027c5761026d8183610932565b38610ed2565b9190823b1561103d577fffffffff00000000000000000000000000000000000000000000000000000000815160208093012016916040519180830193845281519160005b83811061102957505050918161101960248260009795968897018783820152036004810184520182610932565b51915afa611025610e44565b9091565b818101830151858201602401528201610fec565b50505060009060405161104f81610916565b6000815290565b929161106491600094610fa8565b908061109c575b6110725750565b9091506020818051810103126101245760206001600160a01b0391015161109881610129565b1690565b50602081511461106b565b92916110b591600094610fa8565b90806110d8575b6110c35750565b61096991925060208082518301019101610ccb565b5060208151146110bc565b92916110f191600094610fa8565b9080611116575b6110ff5750565b909150602081805181010312610124576020015190565b5060208151146110f856fea26469706673582212209dcda87576441fd2f4da9de00325e569560e9e6792736271fcdf75ddd160634b64736f6c6343000814003360803461009c57601f611f6038819003918201601f19168301916001600160401b038311848410176100a15780849260209460405283398101031261009c57516001600160a01b0381169081900361009c57801561008a5760018060a01b031933816001541617600155600054161760005560336003556003600455604051611ea890816100b88239f35b60405163e6c4247b60e01b8152600490fd5b600080fd5b634e487b7160e01b600052604160045260246000fdfe60806040526004361015610018575b361561001657005b005b60003560e01c8063013cf08b1461018857806312065fe0146101835780631f185d161461017e5780633b9b7955146101795780634072265b14610174578063438596321461016f5780635c622a0e1461016a57806365153c4b14610165578063709df8d9146101605780638da5cb5b1461015b57806398e527d314610156578063995e433914610151578063a1f7f5391461014c578063af48452614610147578063b90306ad14610142578063c54e44b01461013d578063c7f758a814610138578063c9d27afe14610133578063d153356b1461012e578063e01ad5fd14610129578063e0a9bc2b14610124578063fdc10bc91461011f5763ffa734f00361000e57610ee1565b610e98565b610e7d565b610e56565b610db5565b610c27565b610ba7565b610adb565b610a3b565b6108f1565b6108ce565b61084a565b61082c565b610805565b6107c6565b610667565b610611565b6105ac565b61056f565b610548565b610517565b6104ea565b610425565b6005548110156101c857600c906005600052027f036b6384b5eca791c62761152d0c79bb0604c104a5fb6f4eb0703f3154bb3db00190600090565b634e487b7160e01b600052603260045260246000fd5b90600182811c9216801561020e575b60208310146101f857565b634e487b7160e01b600052602260045260246000fd5b91607f16916101ed565b9060009291805491610229836101de565b91828252600193848116908160001461028b575060011461024b575b50505050565b90919394506000526020928360002092846000945b838610610277575050505001019038808080610245565b805485870183015294019385908201610260565b9294505050602093945060ff191683830152151560051b01019038808080610245565b634e487b7160e01b600052604160045260246000fd5b6020810190811067ffffffffffffffff8211176102e057604052565b6102ae565b6040810190811067ffffffffffffffff8211176102e057604052565b90601f8019910116810190811067ffffffffffffffff8211176102e057604052565b9061033e6103379260405193848092610218565b0383610301565b565b60005b8381106103535750506000910152565b8181015183820152602001610343565b9060209161037c81518092818552858086019101610340565b601f01601f1916010190565b9b9997959392909e9d9c9a9896949e8c6101c08091528d016103a991610363565b916001600160a01b031660208d015260408c01528a810360608c01526103ce91610363565b9b60808a015260a089015260c088015260e087015261010086015261012085016103f89115159052565b15156101408401526001600160a01b031661016083015215156101808201526101a00161033e9115159052565b346104e55760203660031901126104e5576004356005548110156104e55761044c9061018d565b506040519061045f826103378184610218565b6104e161047660018301546001600160a01b031690565b60028301549061048860038501610323565b946004850154946005810154966006820154916007810154600a6008830154920154936040519a8b9a8b9560ff8860b81c169a60ff8960b01c169a6001600160a01b038a60101c169a60ff808c60081c169b1699610388565b0390f35b600080fd5b346104e55760003660031901126104e557602047604051908152f35b6001600160a01b038116036104e557565b346104e55760203660031901126104e557602061053e60043561053981610506565b611879565b6040519015158152f35b346104e55760003660031901126104e55760206001600160a01b0360005416604051908152f35b346104e55760203660031901126104e55760043560001981019081116105a757600561059c60209261018d565b500154604051908152f35b611294565b346104e55760403660031901126104e5576004356024356105cc81610506565b60001982019182116105a75761060560ff9160096105eb60209561018d565b5001906001600160a01b0316600052602052604060002090565b54166040519015158152f35b346104e55760203660031901126104e55760043560001981019081116105a757600a61063e60409261018d565b50015460ff825191818160b01c161515835260b81c1615156020820152f35b801515036104e557565b346104e55760403660031901126104e5576004356024356106878161065d565b61069033611879565b1561079c5760056106a86106a384611323565b61018d565b5061076c61075f600b83016106e96106e46106e06106d93385906001600160a01b0316600052602052604060002090565b5460ff1690565b1590565b6114a9565b610747600a85015461070160ff8260b81c16156113c8565b61071060ff8260081c16611332565b61071c60ff82166114f4565b61073361072761190c565b6007880154111561153f565b60101c6001600160a01b031633141561145e565b336001600160a01b0316600052602052604060002090565b805460ff19166001179055565b01610777815461158a565b809155600454148015610794575b61078b57005b6100169161165c565b508015610785565b60046040517fea8e4eb5000000000000000000000000000000000000000000000000000000008152fd5b346104e55760403660031901126104e5576004356024356107e681610506565b60001982019182116105a75761060560ff91600b6105eb60209561018d565b346104e55760003660031901126104e55760206001600160a01b0360015416604051908152f35b346104e55760003660031901126104e5576020600554604051908152f35b346104e55760203660031901126104e55760043560001981019081116105a7576108739061018d565b506004810154600682015460078301546008840154600a9094015460408051948552602085019390935291830152606082019290925260ff60b083901c81161515608083015260b89290921c909116151560a082015260c090f35b346104e55760003660031901126104e55760206108e9611aa6565b604051908152f35b346104e5576020806003193601126104e55760043561090f81610506565b6004826109336109276000546001600160a01b031690565b6001600160a01b031690565b60405192838092634bf9c0ad60e11b82525afa8015610a365761099b9261097f92600092610a03575b5061098d906040519384918783019190916001600160a01b036020820193169052565b03601f198101845283610301565b610995611807565b90611ca1565b9190806109f9575b156109cf5781816109bd926104e194518301019101611733565b60405190151581529081906020820190565b60046040517f3204506f000000000000000000000000000000000000000000000000000000008152fd5b50808251146109a3565b61098d919250610a2890863d8811610a2f575b610a208183610301565b8101906116e0565b919061095c565b503d610a16565b6116f8565b346104e55760203660031901126104e55760046001600160a01b036020610a6c82600054166001600160a01b031690565b604051938480927f14d8d0240000000000000000000000000000000000000000000000000000000082525afa918215610a3657600092610abb575b503391160361079c57610016600435611b6d565b610ad491925060203d8111610a2f57610a208183610301565b9038610aa7565b346104e55760203660031901126104e557600435610af881610506565b803b6000610b0582611704565b92610b136040519485610301565b82845260208401903c602d815110610b3757602a602091015160601c604051908152f35b60046040517fbaf3f0f7000000000000000000000000000000000000000000000000000000008152fd5b94919093610b7d60a0959897949860c0885260c0880190610363565b976001600160a01b0380931660208801526040870152166060850152151560808401521515910152565b346104e55760203660031901126104e55760043560001981019081116105a757610bd09061018d565b506001600160a01b036104e18160018401541691600284015493610c02610c09600a8301549260405192838092610218565b0382610301565b60405195869560ff84169460ff8560081c169460101c169287610b61565b346104e55760403660031901126104e557600435602435610c478161065d565b610c5033611879565b8015610d92575b610c60906112d8565b610c6c6106a383611323565b50600a8101906008825493610c8560ff86841c16611332565b610c9c6007840154610c9561190c565b111561137d565b610cac60ff8660b81c16156113c8565b610cdf6009840195610733610cda6106e06106d9338b906001600160a01b0316600052602052604060002090565b611413565b60008115610d8c57506001905b610cfe60ff60048601931683546112cb565b8255600090610d7f5750610d3e61075f6001965b610d2460ff60068801991689546112cb565b8855336001600160a01b0316600052602052604060002090565b5491015480911092831593610d73575b505081610d66575b50610d5d57005b61001690611599565b5460ff1615905038610d56565b54101591503880610d4e565b61075f610d3e9196610d12565b90610cec565b50610d9b611748565b8015610c575750610c60610dae336119c5565b9050610c57565b346104e55760403660031901126104e557610dce611748565b15610e2c57333003610de857600480356003556024359055005b606460405162461bcd60e51b815260206004820152600d60248201527f64616f2e66616b652e636f7265000000000000000000000000000000000000006044820152fd5b60046040517f9dc4246e000000000000000000000000000000000000000000000000000000008152fd5b346104e55760203660031901126104e557602061053e600435610e7881610506565b6119c5565b346104e55760003660031901126104e557602061053e611748565b346104e55760003660031901126104e55760206108e961190c565b9181601f840112156104e55782359167ffffffffffffffff83116104e557602083818601950101116104e557565b346104e55760c03660031901126104e55767ffffffffffffffff6004358181116104e557610f13903690600401610eb3565b9091602435610f2181610506565b6064358281116104e557610f39903690600401610eb3565b9160a43594610f478661065d565b6001600160a01b0382161561114e5760055490680100000000000000008210156102e057610f7c60019283810160055561018d565b509581116102e057610f9881610f9288546101de565b88611178565b6000601f82116001146110d4579261101b94928261100a93600a9998966110bb9c6000926110c9575b5050600019600383901b1c191690821b1787555b8601906001600160a01b03167fffffffffffffffffffffffff0000000000000000000000000000000000000000825416179055565b6044356002850155600384016111cc565b61104161103a61103561102c611aa6565b600354906112aa565b6112bd565b6064900490565b600882015561105960843561105461190c565b6112cb565b60078201550180543360101b75ffffffffffffffffffffffffffffffffffffffff0000167fffffffffffffffffffff000000000000000000000000000000000000000000ff909116176101001760ff191660ff92151592909216919091179055565b600554604051908152602090f35b013590503880610fc1565b601f198216906110e988600052602060002090565b91815b81811061113857509383600a999896936110bb9c839461100a9761101b9b991061111e575b505050811b018755610fd5565b0135600019600384901b60f8161c19169055388080611111565b8b830135845592850192602092830192016110ec565b60046040517fe6c4247b000000000000000000000000000000000000000000000000000000008152fd5b90601f811161118657505050565b600091825260208220906020601f850160051c830194106111c2575b601f0160051c01915b8281106111b757505050565b8181556001016111ab565b90925082906111a2565b90929167ffffffffffffffff81116102e0576111f2816111ec84546101de565b84611178565b6000601f821160011461122c5781929394600092611221575b50508160011b916000199060031b1c1916179055565b01359050388061120b565b601f1982169461124184600052602060002090565b91805b87811061127c575083600195969710611262575b505050811b019055565b0135600019600384901b60f8161c19169055388080611258565b90926020600181928686013581550194019101611244565b634e487b7160e01b600052601160045260246000fd5b818102929181159184041417156105a757565b90606382018092116105a757565b919082018092116105a757565b156112df57565b606460405162461bcd60e51b815260206004820152601660248201527f64616f2e6e6f6e617574682e64656c656761746f7273000000000000000000006044820152fd5b6000198101919082116105a757565b1561133957565b606460405162461bcd60e51b815260206004820152601160248201527f64616f2e70726f702e6e6f7465786973740000000000000000000000000000006044820152fd5b1561138457565b606460405162461bcd60e51b815260206004820152601060248201527f64616f2e766f74696e672e656e646564000000000000000000000000000000006044820152fd5b156113cf57565b606460405162461bcd60e51b815260206004820152601560248201527f64616f2e616c72656164792e636f6d706c6574656400000000000000000000006044820152fd5b1561141a57565b606460405162461bcd60e51b815260206004820152601160248201527f64616f2e616c72656164792e766f7465640000000000000000000000000000006044820152fd5b1561146557565b606460405162461bcd60e51b815260206004820152601260248201527f64616f2e766f7465722e726573747269637400000000000000000000000000006044820152fd5b156114b057565b606460405162461bcd60e51b815260206004820152601260248201527f64616f2e616c72656164792e7369676e656400000000000000000000000000006044820152fd5b156114fb57565b606460405162461bcd60e51b815260206004820152601360248201527f64616f2e70726f702e6d7573747369676e6564000000000000000000000000006044820152fd5b1561154657565b606460405162461bcd60e51b815260206004820152601360248201527f64616f2e6265666f72652e646561646c696e65000000000000000000000000006044820152fd5b60001981146105a75760010190565b6106a36115a591611323565b5060ff600a82016115c381600160b81b60ff60b81b19825416179055565b6115f560048401546008850154811015908161164e575b50825460ff60b01b191690151560b01b60ff60b01b16178255565b5460b01c1680611639575b6116075750565b8061161f60016116369301546001600160a01b031690565b611630600360028401549301610323565b90611dbc565b50565b5061164760038201546101de565b1515611600565b9050600685015410386115da565b61166b6106a36116b192611323565b50600a8101805460ff60b81b1916600160b81b1781559092806116ce575b806116bd575b815460ff60b01b191690151560b01b60ff60b01b161781555460b01c60ff1690565b80611639576116075750565b50600483015460068401541061168f565b50600483015460088401541115611689565b908160209103126104e557516116f581610506565b90565b6040513d6000823e3d90fd5b67ffffffffffffffff81116102e057601f01601f191660200190565b6040519061172d826102c4565b60008252565b908160209103126104e557516116f58161065d565b6001600160a01b03600054166040518091634bf9c0ad60e11b825281600460209485935afa8015610a36576117c3916000916117ea575b5060405161178c816102e5565b600881527f6973536166652829000000000000000000000000000000000000000000000000848201526117bd611720565b91611ca1565b90806117e0575b156109cf57816116f59282518301019101611733565b50818151146117ca565b6118019150833d8511610a2f57610a208183610301565b3861177f565b60405190611814826102e5565b601582527f69735365637572654261736528616464726573732900000000000000000000006020830152565b6040519061184d826102e5565b601182527f69735369676e65722861646472657373290000000000000000000000000000006020830152565b61188e6109276000546001600160a01b031690565b906040518092634bf9c0ad60e11b825281600460209586935afa8015610a36576117c39261097f926000926118e9575b506118e1906040519384918783019190916001600160a01b036020820193169052565b610995611840565b6118e191925061190590863d8811610a2f57610a208183610301565b91906118be565b600460206001600160a01b0360005416604051928380927f447aa3040000000000000000000000000000000000000000000000000000000082525afa8015610a36576116f5916000916119a7575b50604051611967816102e5565b600581527f616765282900000000000000000000000000000000000000000000000000000060208201526040519161199e836102c4565b60008352611d34565b6119bf915060203d8111610a2f57610a208183610301565b3861195a565b6001600160a01b039081600054169060405192839263d1f956b160e01b845283600460209586935afa938415610a3657600094611a81575b50604051911682820152818152611a5490611a17816102e5565b604051611a23816102e5565b601881527f697364656c656761746f724e6f6465286164647265737329000000000000000084820152600094611ca1565b919080611a77575b611a6557505090565b6116f592508082518301019101611733565b5080825114611a5c565b611a5492919450611a9e90843d8611610a2f57610a208183610301565b9390916119fd565b600460206001600160a01b03600054166040519283809263d1f956b160e01b82525afa8015610a36576116f591600091611b1f575b50604051611ae8816102e5565b601381527f67657464656c656761746f72436f756e7428290000000000000000000000000060208201526040519161199e836102c4565b611b37915060203d8111610a2f57610a208183610301565b38611adb565b3d15611b68573d90611b4e82611704565b91611b5c6040519384610301565b82523d6000602084013e565b606090565b6000611b8361092782546001600160a01b031690565b9060405180927f46f991ac00000000000000000000000000000000000000000000000000000000825281600460209586935afa8015610a365782808681949382948391611c84575b505af1611bd6611b3d565b50156109cf57600482611bf361092784546001600160a01b031690565b604051928380927f5e09dbe70000000000000000000000000000000000000000000000000000000082525afa908115610a36577fcdcc745fe377b103b45fa0cec23ae3ef93d6fc6a84a01f0d18c40b354dd1d5d8936001600160a01b039392611c67575b50506040519384521691602090a2565b611c7d9250803d10610a2f57610a208183610301565b3880611c57565b611c9b9150883d8a11610a2f57610a208183610301565b38611bcb565b803b15611d1b576000927fffffffff000000000000000000000000000000000000000000000000000000008360208695519101201690611d0b6024604051809360208201958652611cfb8151809260208686019101610340565b8101036004810184520182610301565b51915afa611d17611b3d565b9091565b505050600090604051611d2d816102c4565b6000815290565b9291611d4291600094611ca1565b9080611d67575b611d505750565b9091506020818051810103126104e5576020015190565b506020815114611d49565b90602082519201517fffffffff00000000000000000000000000000000000000000000000000000000908181169360048110611dad57505050565b60040360031b82901b16169150565b9190916001600160a01b0381161561114e57600091829184519160208601915af190611de6611b3d565b9115611df0575090565b805160009190600411611e6c57611e079150611d72565b815115611e175750805190602001fd5b6040517f21c09d340000000000000000000000000000000000000000000000000000000081527fffffffff00000000000000000000000000000000000000000000000000000000919091166004820152602490fd5b50611e0756fea26469706673582212206b1fca8795906cac6fef0d0a5295dee28ba79c20c73920b2918b0f8ea77db71a64736f6c634300081400336080346200009e57601f62005dfd38819003918201601f19168301916001600160401b03831184841017620000a3578084926020946040528339810103126200009e57516001600160a01b038116908190036200009e5780156200008c5760018060a01b03193381600154161760015560005416176000556001600355604051615d439081620000ba8239f35b60405163e6c4247b60e01b8152600490fd5b600080fd5b634e487b7160e01b600052604160045260246000fdfe60806040526004361015610018575b361561001657005b005b60003560e01c80629db65514610357578063033eeffb146103525780630e5fd00b1461034d57806312065fe0146103485780631bb49f02146103435780631c53c2801461033e5780631f185d16146103395780632a687c87146103345780632fefc0bf1461032f578063307673e81461032a57806332ff4eab1461032557806333b59a5b146103205780633a7b55b81461031b5780633b9b7955146103165780633baee0ea14610311578063419cb27b1461030c57806342cc9d571461030757806344585097146103025780634f0f4aa9146102fd578063509222cd146102f857806350db85d1146102f357806361ea7208146102ee578063629d671e146102e957806365d2fbd3146102e45780636a811244146102df5780636fb412ab146102da57806376fe6c45146102d55780637bb98498146102d057806380f85e33146102cb578063849c22ad146102c6578063896c354a146102c15780638da5cb5b146102bc57806395f72f49146102b757806398b3f215146102b2578063a1f7f539146102ad578063a89d693b146102a8578063af484526146102a3578063b1c490791461029e578063b366335e14610299578063b90306ad14610294578063c43792e31461028f578063c54e44b01461028a578063c871372b14610285578063d1e0bbc614610280578063dcb3fc4a1461027b578063e01ad5fd14610276578063e0a9bc2b14610271578063eb95c6621461026c578063eb9e9e2c14610267578063f3ca712414610262578063fd38093b1461025d5763fdc10bc90361000e5761307f565b61300f565b612fe3565b612db0565b612d84565b612d69565b612ccf565b612ae9565b612aaf565b612a31565b6129ab565b61297f565b6128f8565b61284d565b6126d1565b6126aa565b61258b565b61249e565b612472565b6123c4565b61239d565b61235d565b61232e565b6122f4565b612246565b6121f6565b612052565b6119cf565b6115b8565b61157a565b61155c565b61149b565b611447565b61135a565b611322565b6112f3565b6112b9565b610be5565b610b96565b610a2a565b61094e565b6108a0565b6107cf565b610797565b6106e9565b6105c0565b61058b565b610526565b61050a565b6104ba565b61047d565b3461047857602036600319011261047857610377610373615677565b1590565b61044e576103843361576f565b80156103c2575b15610398576100166150b9565b60046040517fea8e4eb5000000000000000000000000000000000000000000000000000000008152fd5b50600460206103e86103dc6000546001600160a01b031690565b6001600160a01b031690565b60405192838092630536340960e21b82525afa9081156104495760009161041b575b506001600160a01b0316331461038b565b61043c915060203d8111610442575b610434818361312d565b810190613400565b3861040a565b503d61042a565b613415565b60046040517f9dc4246e000000000000000000000000000000000000000000000000000000008152fd5b600080fd5b3461047857602036600319011261047857600435600052600b6020526020604060002054604051908152f35b6001600160a01b0381160361047857565b346104785760203660031901126104785760206004356104d9816104a9565b6001600160a01b03809116600052600482526040600020546000526007825260046040600020015416604051908152f35b3461047857600036600319011261047857602047604051908152f35b3461047857602036600319011261047857600435610543816104a9565b6001600160a01b0390811660009081526004602090815260408083205483526007825280832060020154808452600583529281902054815193845290931690820152f35b0390f35b3461047857602036600319011261047857600435600052600560205260206001600160a01b0360406000205416604051908152f35b3461047857602080600319360112610478576004356105de816104a9565b6004826105f66103dc6000546001600160a01b031690565b60405192838092634bf9c0ad60e11b82525afa80156104495761065e92610642926000926106c6575b50610650906040519384918783019190916001600160a01b036020820193169052565b03601f19810184528361312d565b610658615802565b90615a8a565b9190806106bc575b156106925781816106809261058794518301019101615663565b60405190151581529081906020820190565b60046040517f3204506f000000000000000000000000000000000000000000000000000000008152fd5b5080825114610666565b6106509192506106e290863d881161044257610434818361312d565b919061061f565b3461047857604036600319011261047857610705610373615677565b61044e576107123361576f565b801561072c575b1561039857610016602435600435615444565b50600460206107466103dc6000546001600160a01b031690565b60405192838092630536340960e21b82525afa90811561044957600091610779575b506001600160a01b03163314610719565b610791915060203d811161044257610434818361312d565b38610768565b3461047857602036600319011261047857600435600052600760205260206001600160a01b0360056040600020015416604051908152f35b346104785760203660031901126104785760043560009033825260046020526108156108106040842054600052600760205260ff6001604060002001541690565b614066565b808252601060205260ff600260408420015460081c161561085c57610847610859916000526010602052604060002090565b60026000918281558260018201550155565b80f35b606460405162461bcd60e51b815260206004820152601360248201527f6e65737465642e7265712e6e6f746578697374000000000000000000000000006044820152fd5b34610478576040366003190112610478576108bc610373615677565b61044e576108c93361576f565b80156108e3575b1561039857610016602435600435615498565b50600460206108fd6103dc6000546001600160a01b031690565b60405192838092630536340960e21b82525afa90811561044957600091610930575b506001600160a01b031633146108d0565b610948915060203d811161044257610434818361312d565b3861091f565b346104785760403660031901126104785761096a610373615677565b61044e576109773361576f565b8015610991575b1561039857610016602435600435615534565b50600460206109ab6103dc6000546001600160a01b031690565b60405192838092630536340960e21b82525afa908115610449576000916109de575b506001600160a01b0316331461097e565b6109f6915060203d811161044257610434818361312d565b386109cd565b60e0810192916000915b60078310610a1357505050565b600190825181526020809101920192019190610a06565b3461047857602036600319011261047857610587600435610b84610b7460405192610a54846130d9565b60e0368537610a80610a70826000526009602052604060002090565b6001600052602052604060002090565b548452610aaa610a9a826000526009602052604060002090565b6002600052602052604060002090565b546020850152610ad7610ac7826000526009602052604060002090565b6003600052602052604060002090565b546040850152610b04610af4826000526009602052604060002090565b6004600052602052604060002090565b546060850152610b31610b21826000526009602052604060002090565b6005600052602052604060002090565b546080850152610b5e610b4e826000526009602052604060002090565b6006600052602052604060002090565b5460a08501526000526009602052604060002090565b6007600052602052604060002090565b5460c0820152604051918291826109fc565b346104785760003660031901126104785760206001600160a01b0360005416604051908152f35b604090600319011261047857600435610bd5816104a9565b90602435610be2816104a9565b90565b3461047857610c43610bf636610bbd565b90610bff6133c5565b610c18610c0a61317e565b610c12613196565b33615b1d565b91610c2c610c2461317e565b610c126131cf565b6001600160a01b0382811695909485168614613208565b610c6860009185610c606103dc828654166001600160a01b031690565b911614613253565b610c73851515613f4c565b610c90826001600160a01b03166000526004602052604060002090565b541580156112ae575b610ca290613f97565b610cca610cc2846001600160a01b03166000526004602052604060002090565b541515613fe2565b610d0e6005610d00610cef866001600160a01b03166000526004602052604060002090565b546000526007602052604060002090565b01546001600160a01b031690565b9360409182516020977f880cdc310000000000000000000000000000000000000000000000000000000089830152610d7860249280610d5f898683019190916001600160a01b036020820193169052565b0399610d73601f199b8c810184528361312d565b615c30565b50600493610da36103dc86610d00610cef8c6001600160a01b03166000526004602052604060002090565b1561115757610e16610dcf86610d00610cef8c6001600160a01b03166000526004602052604060002090565b87517f0399c93c000000000000000000000000000000000000000000000000000000008d82015233868201908152909190610d739083906020015b038d810184528361312d565b505b610e35886001600160a01b03166000526004602052604060002090565b54610e53886001600160a01b03166000526004602052604060002090565b55610eb187610e89610e788b6001600160a01b03166000526004602052604060002090565b546000526005602052604060002090565b906001600160a01b031673ffffffffffffffffffffffffffffffffffffffff19825416179055565b610eff3386610ed6610cef8b6001600160a01b03166000526004602052604060002090565b01906001600160a01b031673ffffffffffffffffffffffffffffffffffffffff19825416179055565b871614159485611133575b610f27816001600160a01b03166000526004602052604060002090565b5497610f426005610d008b6000526007602052604060002090565b99610f7e610f716002610f5f8d6000526007602052604060002090565b01546000526005602052604060002090565b546001600160a01b031690565b971561107d5780610f996103dc87546001600160a01b031690565b8851978880926314ac1b5960e21b82525afa9283156104495761058799611022977fe3d1d5bf000000000000000000000000000000000000000000000000000000009795611054575b509061101691610d7395968a5198899586015284019060209093929360408301946001600160a01b03809216845216910152565b0390810184528361312d565b505b61102e6001600355565b519283526001600160a01b03938416602084015290921660408201529081906060820190565b610d739550906110746110169392853d871161044257610434818361312d565b95509091610fe2565b8092506110946103dc86546001600160a01b031690565b8751968780926314ac1b5960e21b82525afa9182156104495761058798611106967f9498d88b00000000000000000000000000000000000000000000000000000000969461110c575b5061101690610d739495895197889485015283019190916001600160a01b036020820193169052565b50611024565b610d7394509061112b61101692843d861161044257610434818361312d565b9450906110dd565b82611151886001600160a01b03166000526004602052604060002090565b55610f0a565b848a61116d6103dc87546001600160a01b031690565b88519283809263111ea8c160e21b82525afa908115610449576111c3918a918791611291575b5088516001600160a01b03909216828e019081526111b5908390602001610e0a565b6111bd61402d565b90615b1d565b818116151580611287575b6111d9575b50610e18565b86517f4fb2e45d00000000000000000000000000000000000000000000000000000000818d015233858201908152611280929161122d91611227908e9083906020010390810183528261312d565b82615c30565b508751907fa3e884b0000000000000000000000000000000000000000000000000000000008d830152610d7382610e0a888201906007606060808401936000815260006020820152600060408201520152565b50386111d3565b50803115156111ce565b6112a891508d803d1061044257610434818361312d565b38611193565b508284168514610c99565b346104785760203660031901126104785760206112e9600435600052600760205260ff6001604060002001541690565b6040519015158152f35b346104785760203660031901126104785760043560005260076020526020600360406000200154604051908152f35b3461047857602036600319011261047857600435600052600760205260206001600160a01b0360046040600020015416604051908152f35b346104785760203660031901126104785760043580600052600760205260406000205460056020526105876001600160a01b03806040600020541693600760205260406000209160046002840154930154166113c56005610d00846000526007602052604060002090565b9060036113fd6113ec60016113e4876000526007602052604060002090565b015460ff1690565b946000526007602052604060002090565b01549360405197889788939160c09591989796939260e086019986526001600160a01b03938480931660208801526040870152166060850152166080830152151560a08201520152565b34610478576020366003190112610478576001600160a01b0360043561146c816104a9565b1660005260046020526040600020546000526007602052602060ff600160406000200154166040519015158152f35b34610478576114a936610bbd565b6114b4610373615677565b61044e576114c13361576f565b80156114f1575b15610398576114d691613421565b604080519283526001600160a01b0391909116602083015290f35b506004602061150b6103dc6000546001600160a01b031690565b60405192838092630536340960e21b82525afa9081156104495760009161153e575b506001600160a01b031633146114c8565b611556915060203d811161044257610434818361312d565b3861152d565b34610478576000366003190112610478576020600654604051908152f35b34610478576020366003190112610478576001600160a01b0360043561159f816104a9565b1660005260046020526020604060002054604051908152f35b346104785760203660031901126104785760043560016115ee6115e9826113e4856000526007602052604060002090565b613ea0565b611602826000526010602052604060002090565b906002908183019260ff8454818160081c16806119c6575b611623906144a1565b60101c1661184a575061164d82611644866000526007602052604060002090565b01541515614537565b6000815b61171f575b5050806116c1846001600160a01b036116996005610d006000976116876100169b6000526007602052604060002090565b01546000526007602052604060002090565b166116d4575b84546116b19060101c60ff16826145cf565b6000526007602052604060002090565b0155805462ff0000191662010000179055565b6117196116f46005610d0086611687866000526007602052604060002090565b604051636f58dd0f60e11b60208201526000602482015290610d738260448101610642565b5061169f565b60038061173a85611687896000526007602052604060002090565b0154821015611844578561177461176a848461176489611687876000526007602052604060002090565b01613d65565b90549060031b1c90565b14611789575061178390613a19565b81611651565b8392509461183a8661181c6116c1946118036117e961176a6100169c6117bf60009c6116878b6000526007602052604060002090565b016117e3876117dc8d6116878d6000526007602052604060002090565b0154613731565b90613d65565b91846117648a6116878a6000526007602052604060002090565b90919082549060031b91821b91600019901b1916179055565b61183485611687856000526007602052604060002090565b01614582565b9450819250611656565b50611656565b826118f66118f0610847966118bc8960036118b661196d996106429961188a6100169f9d611882876000526007602052604060002090565b0154156144ec565b0197885480916118a4866000526007602052604060002090565b01556000526007602052604060002090565b01613d82565b83546001600160a01b036118df6005610d00846000526007602052604060002090565b1661197e575b505460101c60ff1690565b856145cf565b610d7361192a610f716119186004610d00896000526007602052604060002090565b93546000526005602052604060002090565b6040517f1499c5920000000000000000000000000000000000000000000000000000000060208201526001600160a01b0390911660248201529283906044820190565b506000526010602052604060002090565b61199a6005610d006119bf936000526007602052604060002090565b604051636f58dd0f60e11b60208201526001602482015290610d738260448101610642565b50386118e5565b5080821661161a565b346104785760408060031936011261047857600480356119ed6133c5565b611a096115e960016113e4846000526007602052604060002090565b611a2e611a276103dc84610d00856000526007602052604060002090565b33146141c2565b611a36613793565b611a4f6005610d00836000526007602052604060002090565b600254908451611ac3611ab56020927f02a085f2000000000000000000000000000000000000000000000000000000008482015280611aa1602497883589840160209093929193604081019481520152565b0394610d73601f199687810184528361312d565b828082518301019101614952565b94868651948783611ad9868301988951906133b8565b97611ae9858401998a51906133b8565b611af960608501918251906133b8565b9188611b0b60808701948551906133b8565b97611b1c60a08801998a51906133b8565b96611b35611b3060c08301998a51906133b8565b6153ea565b51611f76575b8251611e8e575b5050508051611d9c575b508051611caf575b5050611b6383518251906133b8565b611ba5575b89896105876101008a611b808d60e086015190614a83565b5192015192611b8f6001600355565b5191825260208201929092529081906040820190565b84611bc16103dc60009a969799989a546001600160a01b031690565b8b51968780927f24768d910000000000000000000000000000000000000000000000000000000082525afa80156104495761058798610100988c611c6b9663a9059cbb60e01b968996611b809b600097611c76575b5090611c46611016949392611c3c610f71610d739a9b6000526005602052604060002090565b93519051906133b8565b92519889958601528401602090939291936001600160a01b0360408201951681520152565b509382933880611b68565b610d73975061101694939291611c3c610f71611ca1611c46948a3d8c1161044257610434818361312d565b9a5050509192939450611c16565b86611cc56103dc6000546001600160a01b031690565b8d51938480927f9dc969a80000000000000000000000000000000000000000000000000000000082525afa91821561044957611d65928d928c928a600093611d6d575b5050611d59611d28610f71610d7394956000526005602052604060002090565b9151945194859263a9059cbb60e01b8d850152898401602090939291936001600160a01b0360408201951681520152565b038a810184528361312d565b508338611b54565b610d739350610f71611d92611d599383611d2894903d1061044257610434818361312d565b945050508a611d08565b91878d611db46103dc6000546001600160a01b031690565b9051928380927faa0ddc160000000000000000000000000000000000000000000000000000000082525afa908115610449578b611e56928f8b908b9763a9059cbb60e01b95600094611e5d575b5090611e4a91611e22610f71610d7396976000526005602052604060002090565b905191519687948501528b8401602090939291936001600160a01b0360408201951681520152565b038c810184528361312d565b5038611b4c565b610d73945090611e22610f71611e83611e4a9594873d891161044257610434818361312d565b965050509091611e01565b611ea66103dc6000979497546001600160a01b031690565b9051928380927f30125cf50000000000000000000000000000000000000000000000000000000082525afa908115610449578c8f928b611f3c948c9863a9059cbb60e01b95600094611f45575b5090610e0a91611f14610f71610d7396976000526005602052604060002090565b905191519687948501528c8401602090939291936001600160a01b0360408201951681520152565b5038888e611b42565b610d73945090611f14610f71611f6b610e0a9594873d891161044257610434818361312d565b965050509091611ef3565b611f8b6103dc6000546001600160a01b031690565b9051958680927f640274270000000000000000000000000000000000000000000000000000000082525afa938415610449578e61201f8f8f8c988f8f968d90600093612025575b50611016611ff1610f71610d7395966000526005602052604060002090565b9551885163a9059cbb60e01b8b8201526001600160a01b039097169287019283526020830152859160400190565b50611b3b565b610d739350611ff1610f71612049611016938c8d3d1061044257610434818361312d565b95505050611fd2565b34610478576040366003190112610478576004356024356120716133c5565b61208d6115e960016113e4856000526007602052604060002090565b6120b16120aa6103dc610f71856000526005602052604060002090565b3314614066565b6120e36120cd6005610d00856000526007602052604060002090565b6120d56140b1565b6120dd61316b565b91615a5f565b90806120f96020938480825183010191016140ea565b101561210a575b6100166001600355565b826121e76001600160a01b03927ff526f68a00000000000000000000000000000000000000000000000000000000946121db6121c0610f716121ab61219d61217b6121676005610d006121ed9f6000526007602052604060002090565b976040519182918983019190602083019252565b039761218f601f19998a810184528361312d565b6121976140f9565b90615a5f565b858082518301019101614132565b99925050506000526005602052604060002090565b6121c861317e565b90604051988994850152602484016141a2565b0390810185528461312d565b16615c30565b50388080612100565b34610478576020366003190112610478576020600435612215816104a9565b6001600160a01b03809116600052600482526040600020546000526007825260056040600020015416604051908152f35b3461047857604036600319011261047857612262610373615677565b61044e5761226f3361576f565b8015612289575b15610398576100166024356004356143b4565b50600460206122a36103dc6000546001600160a01b031690565b60405192838092630536340960e21b82525afa908115610449576000916122d6575b506001600160a01b03163314612276565b6122ee915060203d811161044257610434818361312d565b386122c5565b3461047857604036600319011261047857600435600052600860205260406000206024356000526020526020604060002054604051908152f35b346104785760203660031901126104785760043560005260076020526020600260406000200154604051908152f35b34610478576040366003190112610478576004356000526007602052602061238e6024356003604060002001613d65565b90549060031b1c604051908152f35b346104785760003660031901126104785760206001600160a01b0360015416604051908152f35b34610478576040366003190112610478576123e0610373615677565b61044e576123ed3361576f565b8015612407575b156103985761001660243560043561546e565b50600460206124216103dc6000546001600160a01b031690565b60405192838092630536340960e21b82525afa90811561044957600091612454575b506001600160a01b031633146123f4565b61246c915060203d811161044257610434818361312d565b38612443565b3461047857602036600319011261047857600435600052600f6020526020604060002054604051908152f35b3461047857600036600319011261047857600460206001600160a01b03600054166040519283809263d1f956b160e01b82525afa908115610449576105879161252e9160009161253e575b506040516124f6816130f5565b601381527f67657464656c656761746f72436f756e74282900000000000000000000000000602082015261252861316b565b91615baa565b6040519081529081906020820190565b612556915060203d811161044257610434818361312d565b386124e9565b610100810192916000915b6008831061257457505050565b600190825181526020809101920192019190612567565b3461047857602036600319011261047857610587600435612698610b746125b061536d565b926125d76125c8826000526008602052604060002090565b60008052602052604060002090565b5484526125f1610a70826000526008602052604060002090565b54602085015261260e610a9a826000526008602052604060002090565b54604085015261262b610ac7826000526008602052604060002090565b546060850152612648610af4826000526008602052604060002090565b546080850152612665610b21826000526008602052604060002090565b5460a0850152612682610b4e826000526008602052604060002090565b5460c08501526000526008602052604060002090565b5460e08201526040519182918261255c565b346104785760203660031901126104785760206112e96004356126cc816104a9565b61576f565b34610478576127d96126e236610bbd565b906126eb6133c5565b6127346126f9610c0a61317e565b612704610c2461317e565b9061271d6001600160a01b039182808816911614613208565b610c606103dc82600054166001600160a01b031690565b61276161275c60016113e4610cef856001600160a01b03166000526004602052604060002090565b61329e565b6127ca6127c06127b161278f6005610d00610cef876001600160a01b03166000526004602052604060002090565b604051906127a98261064260208201906000602083019252565b6121976132e9565b60208082518301019101613322565b5050501515613344565b6127d261374d565b3390613a28565b6127f26125c86002546000526008602052604060002090565b6127fc81546133a5565b9055612806615416565b61281f6005610d00836000526007602052604060002090565b9061282981613eeb565b6128336001600355565b604080519182526001600160a01b03929092166020820152f35b3461047857602036600319011261047857612869610373615677565b61044e576128763361576f565b801561288d575b15610398576100166004356137d6565b50600460206128a76103dc6000546001600160a01b031690565b60405192838092630536340960e21b82525afa908115610449576000916128da575b506001600160a01b0316331461287d565b6128f2915060203d811161044257610434818361312d565b386128c9565b346104785760203660031901126104785760046001600160a01b03602061292982600054166001600160a01b031690565b60405193848092630536340960e21b82525afa9182156104495760009261295f575b503391160361039857610016600435615944565b61297891925060203d811161044257610434818361312d565b903861294b565b3461047857602036600319011261047857600435600052600d6020526020604060002054604051908152f35b34610478576020366003190112610478576004356129c8816104a9565b803b60006129d58261314f565b926129e3604051948561312d565b82845260208401903c602d815110612a0757602a602091015160601c604051908152f35b60046040517fbaf3f0f7000000000000000000000000000000000000000000000000000000008152fd5b604036600319011261047857600435612a486133c5565b6000908082526007602052612a6660ff600160408520015416613ea0565b81526007602052612aa66001600160a01b036005604084200154166040519062a0e53360e51b6020830152602435602483015260248252610d73826130b8565b50600160035580f35b3461047857604036600319011261047857600435600052600a60205260406000206024356000526020526020604060002054604051908152f35b346104785760c036600319011261047857602435600435612b09826104a9565b6064359060843590612b196133c5565b612b356115e960016113e4846000526007602052604060002090565b612b54611a276103dc6004610d00856000526007602052604060002090565b612b5c613793565b612b6582615392565b612b6e836153be565b612c1b612c0d612bf9612b906005610d00866000526007602052604060002090565b966040519182916020977f932ca2d600000000000000000000000000000000000000000000000000000000898501528960a435926044359060248701919260809396959491966001600160a01b0360a08501981684526020840152604083015260608201520152565b0396610d73601f199889810184528361312d565b83808251830101910161420d565b929080612c2f575b50506121009350614dca565b60049082612c486103dc6000546001600160a01b031690565b60405193848092635e09dbe760e01b82525afa80156104495761210097612ca29463a9059cbb60e01b94600093612caa575b5060405190810194909452336024850152604484019290925290610d73908360648101611016565b503880612c23565b610d739350612cc861101691833d851161044257610434818361312d565b9350612c7a565b34610478576020806003193601126104785760048035612cee816104a9565b6001600160a01b03928084600054166040519485809263d1f956b160e01b82525afa908115610449576105879461068094600093612d4a575b506040519316818401528252612d3c826130f5565b612d446158db565b90615b6e565b612d62919350823d841161044257610434818361312d565b9138612d27565b346104785760003660031901126104785760206112e9615677565b3461047857602036600319011261047857600435600052600c6020526020604060002054604051908152f35b346104785760403660031901126104785760043560243590612e03610810612deb336001600160a01b03166000526004602052604060002090565b54600052600760205260ff6001604060002001541690565b612e1f6115e960016113e4846000526007602052604060002090565b612e40612e3b60016113e4856000526007602052604060002090565b614223565b612e596005610d00846000526007602052604060002090565b600483604051612e9f6127c0612e9160209380612e7d868201906000602083019252565b03976127a9601f19998a810184528361312d565b838082518301019101613322565b612eb3856000526010602052604060002090565b93612f1b6002860196612ed6612ed16103738a5460ff9060081c1690565b61426e565b6040517f7bb98498000000000000000000000000000000000000000000000000000000008582015260248101919091526044810198909852606482810189528861312d565b81612f316103dc6000546001600160a01b031690565b60405195868092630536340960e21b82525afa9384156104495761001697612fb195612f9e9361101693600092612fc2575b50610d7391926040519485917fffa734f0000000000000000000000000000000000000000000000000000000008984015230602484016142b9565b91600185015580825183010191016140ea565b9055805461ff001916610100179055565b610d739250612fdd90873d891161044257610434818361312d565b91612f63565b3461047857602036600319011261047857600435600052600e6020526020604060002054604051908152f35b3461047857604080600319360112610478576001600160a01b03600435613035816104a9565b16600081815260046020818152848320548352600b815284832054938352908152838220548252600a81528382206024358352815290839020549251918252810191909152604090f35b3461047857600036600319011261047857602061309a61583b565b604051908152f35b634e487b7160e01b600052604160045260246000fd5b6060810190811067ffffffffffffffff8211176130d457604052565b6130a2565b60e0810190811067ffffffffffffffff8211176130d457604052565b6040810190811067ffffffffffffffff8211176130d457604052565b6020810190811067ffffffffffffffff8211176130d457604052565b90601f8019910116810190811067ffffffffffffffff8211176130d457604052565b67ffffffffffffffff81116130d457601f01601f191660200190565b6040519061317882613111565b60008252565b60405161318a81613111565b60008152906000368137565b604051906131a3826130f5565b600782527f6f776e65722829000000000000000000000000000000000000000000000000006020830152565b604051906131dc826130f5565b600c82527f67657448657862617365282900000000000000000000000000000000000000006020830152565b1561320f57565b606460405162461bcd60e51b815260206004820152601760248201527f6e65737465642e696e76616c69642e696e7374616e63650000000000000000006044820152fd5b1561325a57565b606460405162461bcd60e51b815260206004820152601660248201527f6e65737465642e696e76616c69642e68657862617365000000000000000000006044820152fd5b156132a557565b606460405162461bcd60e51b815260206004820152601860248201527f6e65737465642e706172656e742e6e6f742e65786973747300000000000000006044820152fd5b604051906132f6826130f5565b601282527f6765744e6f64654c422875696e743235362900000000000000000000000000006020830152565b9190826080910312610478578151916020810151916060604083015192015190565b1561334b57565b606460405162461bcd60e51b815260206004820152601960248201527f6e65737465642e706172656e742e6e6f2e627573696e657373000000000000006044820152fd5b634e487b7160e01b600052601160045260246000fd5b90600182018092116133b357565b61338f565b919082018092116133b357565b6002600354146133d6576002600355565b60046040517f3ee5aeb5000000000000000000000000000000000000000000000000000000008152fd5b908160209103126104785751610be2816104a9565b6040513d6000823e3d90fd5b919061342b6133c5565b61345b61345661037360016113e4610cef866001600160a01b03166000526004602052604060002090565b6139ce565b61346e613469600654613a19565b600655565b6134c56006549361348d83610e89876000526005602052604060002090565b846134ab846001600160a01b03166000526004602052604060002090565b556001600160a01b03166000526004602052604060002090565b54906134d18483613daa565b61350860046134ea866000526007602052604060002090565b0173ffffffffffffffffffffffffffffffffffffffff198154169055565b60009161351f6103dc84546001600160a01b031690565b926040918251809563e09d394d60e01b825281600460209384935afa80156104495761355861356e916004988691613714575b50613ccf565b6005610ed68b6000526007602052604060002090565b6135876005610d008a6000526007602052604060002090565b916135d6866135a06103dc87546001600160a01b031690565b87516352902c5960e01b868201526001600160a01b03918216602482015291166044820152606481018b90528060848101611aa1565b50801515806136ea575b61369e575b50806135fb6103dc85546001600160a01b031690565b8551978880926318c9774160e21b82525afa91821561044957611016600596600794613661936001600160a01b039a889261367d575b50610d739192895194859163d5ec0ea160e01b89840152602483019190916001600160a01b036020820193169052565b5087835252200154169161367481613eeb565b91906001600355565b610d73925061369890873d891161044257610434818361312d565b91613631565b6136ba6005610d006136e3936000526007602052604060002090565b8551636f58dd0f60e11b848201526001602482015260448581018252909190610d73908361312d565b50386135e5565b506001600160a01b0361370c6005610d00846000526007602052604060002090565b1615156135e0565b61372b9150843d861161044257610434818361312d565b38613552565b6000198101919082116133b357565b919082039182116133b357565b61375561583b565b6002541061376d575b61376b600560025461381f565b565b61377561583b565b8060025560001981019081116133b35761378e90615227565b61375e565b61379b61583b565b600254106137b0575b61376b6002805461381f565b6137b861583b565b8060025560001981019081116133b3576137d190615227565b6137a4565b6137de61583b565b600254106137f3575b61376b9060025461381f565b6137fb61583b565b908160025560001982019182116133b35761381861376b92615227565b90506137e7565b906138376125c8836000526008602052604060002090565b5415806139c4575b806139bb575b61384d575050565b6138699061386361385d84613731565b91613731565b9061381f565b6138886125c861387883613731565b6000526008602052604060002090565b546138a06125c8836000526008602052604060002090565b556138b0610a7061387883613731565b546138c8610a70836000526008602052604060002090565b556138d8610a9a61387883613731565b546138f0610a9a836000526008602052604060002090565b55613900610ac761387883613731565b54613918610ac7836000526008602052604060002090565b55613928610af461387883613731565b54613940610af4836000526008602052604060002090565b55613950610b2161387883613731565b54613968610b21836000526008602052604060002090565b55613978610b4e61387883613731565b54613990610b4e836000526008602052604060002090565b556139b8610b746139a6610b7461387885613731565b54926000526008602052604060002090565b55565b50801515613845565b506001821161383f565b156139d557565b606460405162461bcd60e51b815260206004820152601560248201527f6e65737465642e616c72656164792e65786973747300000000000000000000006044820152fd5b60001981146133b35760010190565b91613a5461345661037360016113e4610cef866001600160a01b03166000526004602052604060002090565b613a62613469600654613a19565b613ac4613aa260065494613a8484610e89886000526005602052604060002090565b856134ab856001600160a01b03166000526004602052604060002090565b5492613aae8585613daa565b6004610ed6866000526007602052604060002090565b613ad96103dc6000546001600160a01b031690565b9060405192839263e09d394d60e01b845283600460209687935afa801561044957613b11613b2791600495600091613cb85750613ccf565b6005610ed6886000526007602052604060002090565b613b406005610d00876000526007602052604060002090565b90613b9983613b5a6103dc6000546001600160a01b031690565b6040516352902c5960e01b898201526001600160a01b0391821660248201529116604482015260648082018990528152601f1993610d7360848361312d565b5080151580613c8e575b613c41575b5083613bbf6103dc6000546001600160a01b031690565b604051948580926318c9774160e21b82525afa90811561044957613c189463d5ec0ea160e01b94600093613c1c575b50604051908101949094526001600160a01b03909216602484015290610d73908360448101611016565b5090565b610d739350613c3a61101691833d851161044257610434818361312d565b9350613bee565b613c5d6005610d00613c87936000526007602052604060002090565b604051636f58dd0f60e11b878201526001602482015260448481018252909190610d73908361312d565b5038613ba8565b506001600160a01b03613cb06005610d00846000526007602052604060002090565b161515613ba3565b61372b9150873d891161044257610434818361312d565b6e5af43d82803e903d91602b57fd5bf390763d602d80600a3d3981f3363d3d373d3d3d363d7300000062ffffff8260881c161760005260781b17602052603760096000f0906001600160a01b03821615613d2557565b60046040517fb06ebf3d000000000000000000000000000000000000000000000000000000008152fd5b634e487b7160e01b600052603260045260246000fd5b8054821015613d7d5760005260206000200190600090565b613d4f565b90815491680100000000000000008310156130d4578261180391600161376b95018155613d65565b919091600092808452602091600783526040808620956002948386890155846001988981018a60ff198254161790555587613def86600052600a602052604060002090565b83805282528489858520555b613e0a57505050505050509050565b613e78613e67828b8a9414613e81575b613e2e88600052600a602052604060002090565b8187528552868620613e4081546133a5565b9055613e5688600052600b602052604060002090565b613e6081546133a5565b9055613a19565b956000526007602052604060002090565b01549384613dfb565b613e9b8960036118b68b6000526007602052604060002090565b613e1a565b15613ea757565b606460405162461bcd60e51b815260206004820152601560248201527f6e65737465642e757365722e6e6f7461637469766500000000000000000000006044820152fd5b806000526007602052613f0860ff60016040600020015416613ea0565b6000526007602052613f496001600160a01b03600560406000200154166040519062a0e53360e51b60208301526001602483015260248252610d73826130b8565b50565b15613f5357565b606460405162461bcd60e51b815260206004820152601360248201527f6e65737465642e7a65726f2e61646472657373000000000000000000000000006044820152fd5b15613f9e57565b606460405162461bcd60e51b815260206004820152601460248201527f6e65737465642e7461726765742e6578697374730000000000000000000000006044820152fd5b15613fe957565b606460405162461bcd60e51b815260206004820152601760248201527f6e65737465642e736f757263652e6e6f744578697374730000000000000000006044820152fd5b6040519061403a826130f5565b601382527f55736572546f496e7374286164647265737329000000000000000000000000006020830152565b1561406d57565b606460405162461bcd60e51b815260206004820152601560248201527f6e65737465642e696e76616c69642e73656e64657200000000000000000000006044820152fd5b604051906140be826130f5565b600b82527f6d696e74436f756e7428290000000000000000000000000000000000000000006020830152565b90816020910312610478575190565b60405190614106826130f5565b600e82527f6d696e74732875696e74323536290000000000000000000000000000000000006020830152565b91908260809103126104785781519160208101519160606040830151920151610be2816104a9565b60005b83811061416d5750506000910152565b818101518382015260200161415d565b906020916141968151809281855285808601910161415a565b601f01601f1916010190565b6040906001600160a01b03610be29493168152816020820152019061417d565b156141c957565b606460405162461bcd60e51b815260206004820152601b60248201527f6e65737465642e757365722e696e76616c6964696e7374616e636500000000006044820152fd5b9190826040910312610478576020825192015190565b1561422a57565b606460405162461bcd60e51b815260206004820152601560248201527f6e65737465642e696e76616c69642e706172656e7400000000000000000000006044820152fd5b1561427557565b606460405162461bcd60e51b815260206004820152601760248201527f6e65737465642e7265712e616c726561647965786973740000000000000000006044820152fd5b929161434160a0916001600160a01b0360009460c08852602460c08901527f547269676765722e6e65737465642e70726f706f73616c2e6d6f7665646f776e60e08901527f6c696e650000000000000000000000000000000000000000000000000000000061010089015216602087015283604087015261012080606088015286019061417d565b93600a60808201520152565b6040519061435a826130f5565b601282527f6765745374617475732875696e743235362900000000000000000000000000006020830152565b5190811515820361047857565b919082604091031261047857610be260206143ad84614386565b9301614386565b6143e76143f3916143d76115e960016113e4846000526007602052604060002090565b6000526010602052604060002090565b91600183015414614223565b6144086103dc6000546001600160a01b031690565b906040518092630536340960e21b825281600460209586935afa9081156104495761376b9361446361064260029461447094600091614484575b5061445b87546040519384918783019190602083019252565b61219761434d565b8051810182019101614393565b5091019060ff801983541691151516179055565b61449b9150843d861161044257610434818361312d565b38614442565b156144a857565b606460405162461bcd60e51b815260206004820152601660248201527f6e65737465642e7265712e6e6f74617070726f766564000000000000000000006044820152fd5b156144f357565b606460405162461bcd60e51b815260206004820152601860248201527f6e65737465642e757365722e6e6f742e646574616368656400000000000000006044820152fd5b1561453e57565b606460405162461bcd60e51b815260206004820152601b60248201527f6e65737465642e757365722e616c726564792e646574616368656400000000006044820152fd5b80549081156145ac576000199182019161459c8383613d65565b909182549160031b1b1916905555565b634e487b7160e01b600052603160045260246000fd5b80156133b3576000190190565b6145ec6145e682600052600b602052604060002090565b546133a5565b60029081614604846000526007602052604060002090565b0154906001938492835b61461c575b50505050505050565b600f8085111580614949575b15614943578590600561464c6103dc82610d00876000526007602052604060002090565b614679575b505061466a614672926000526007602052604060002090565b015493613a19565b928561460e565b865b828111156147835750505061466a6146729289600014614720576146c36146ac86600052600a602052604060002090565b6146b589613731565b600052602052604060002090565b546146f66146ee896146df85600052600a602052604060002090565b90600052602052604060002090565b9182546133b8565b905561470c81600052600b602052604060002090565b6147178782546133b8565b90555b92614651565b6147376146ac86600052600a602052604060002090565b5461475b614753896146df85600052600a602052604060002090565b918254613740565b905561477181600052600b602052604060002090565b61477c878254613740565b905561471a565b9091925061479f82610d00876000526007602052604060002090565b8a896147ab8a85613740565b9260406147ec6147de8251806147ca6020998a83019190602083019252565b03946127a9601f199687810184528361312d565b868082518301019101613322565b5050949091888b84158061493b575b61492957610d739361488e999896938b61482b6148819a9895610d00611016966000526007602052604060002090565b975491519889957f7b058ac1000000000000000000000000000000000000000000000000000000008d8801526024870193909594919260809360a086019786526020860152604085015260608401521515910152565b805181018201910161420d565b908b156148e4575b8082116148b15750506148a890613a19565b9087929161467b565b6148ba90613a19565b6148d3816146df8c546000526008602052604060002090565b6148dd81546133a5565b9055614896565b8181116148f65750506148a890613a19565b80614913614924926146df8d546000526008602052604060002090565b61491d8154613731565b90556145c2565b6148e4565b5050505050505050506148a890613a19565b5087156147fb565b50614613565b50811515614628565b9061012080838303126104785781601f84011215610478576040519281840184811067ffffffffffffffff8211176130d4576040528391810192831161047857905b8282106149a15750505090565b8151815260209182019101614994565b604051906149be826130f5565b600f82527f66726565496e74657276616c73282900000000000000000000000000000000006020830152565b604051906149f7826130f5565b601582527f67657452616e6b5769746841676556616c7565282900000000000000000000006020830152565b60405190614a30826130f5565b601382527f72616e6b436c617573652875696e7432353629000000000000000000000000006020830152565b908160a0910312610478578051916020820151916040810151916080606083015192015190565b91906004906020614a9f6103dc6000546001600160a01b031690565b6040519384809263cfbffe5360e01b82525afa91821561044957600092614da9575b50614adb614acd61317e565b614ad56149b1565b84615baa565b906000809360009060009560009360009260009a5b600f8c111580614da0575b15614d9257614b1c6103dc6005610d00846000526007602052604060002090565b614b48575b6002614b3a614b42926000526007602052604060002090565b01549b613a19565b9a614af0565b8b614b7f614b70614b686005610d00866000526007602052604060002090565b6120d56149ea565b6020808251830101910161420d565b82919215614d49575b81151580614d40575b8015614d38575b614ba5575b505050614b21565b838b9184959e8e949503614c76575b5092614c3892610d73614c29936106428e614be16005610d00614c3e9b6000526007602052604060002090565b9460025460405197889563208bffb160e21b60208801526024870193909594919260a09360c08601978652600060208701526040860152606085015260808401521515910152565b602080825183010191016140ea565b916133a5565b80821015614c5357509860028c614b42614b9d565b80613e56614c71926146df6002546000526008602052604060002090565b614c3e565b939a50505050838211614cc9575b5088888b86841080801591614ca0575b50159992919038614bb4565b8a861015915081614cc1575b5080614cb9575b38614c94565b508715614cb3565b905038614cac565b93509350935050614d1a614d0b604051614cfd81614cef87602083019190602083019252565b03601f19810183528261312d565b614d05614a23565b86615a5f565b60208082518301019101614a5c565b949350909591509492614d308593600254613740565b119338614c84565b506000614b98565b508a1515614b91565b96505099509250935050614d72614d0b604051614cfd81614cef8c602083019190602083019252565b9a9350909591509492828c819b614d8b88600254613740565b1196614b88565b505050505050505050509050565b50801515614afb565b614dc391925060203d60201161044257610434818361312d565b9038614ac1565b929160046000926020614de76103dc86546001600160a01b031690565b6040519384809263cfbffe5360e01b82525afa918215610449578492615098575b50614e14614acd61317e565b918480809181978294839b5b600f8d11158061508f575b1561508057614e4c6103dc6005610d00846000526007602052604060002090565b614e78575b6002614e6a614e72926000526007602052604060002090565b01549c613a19565b9b614e20565b8c614e98614b70614b686005610d00866000526007602052604060002090565b8291921580615027575b158061501e575b8015615015575b614ebd575b505050614e51565b8b849e948c928f95968703614f7b575b5092610d73614c29936106428e614f439895614efb6005610d00614c389b6000526007602052604060002090565b956002549060405198899663208bffb160e21b60208901526024880194919260a0949197969360c0870198875260208701526040860152606085015260808401521515910152565b80821015614f5857509960028d614e72614eb5565b80613e56614f76926146df6002546000526008602052604060002090565b614f43565b94505050509750838211614fd1575b5087898c8c87851080801591614fa8575b50159a9290939138614ecd565b8b871015915081614fc9575b5080614fc1575b38614f9b565b508815614fbb565b905038614fb4565b93509350935050614ff7614d0b604051614cfd81614cef87602083019190602083019252565b94935090959150949261500d8593600254613740565b119338614f8a565b508c1515614eb0565b508a1515614ea9565b975094505093509450985061505f614d0b60405161505181614cef87602083019190602083019252565b615059614a23565b8c615a5f565b9c93509096915095938d8194829d61507982600254613740565b1197614ea2565b50505050505050505050509050565b50801515614e2b565b6150b291925060203d60201161044257610434818361312d565b9038614e08565b60025460001981019081116133b35761376b90615227565b156150d857565b606460405162461bcd60e51b815260206004820152601260248201527f6e65737465642e696e76616c69642e61676500000000000000000000000000006044820152fd5b60405190615129826130f5565b601882527f6765744261746368526f79616c7479436c6175736573282900000000000000006020830152565b6102a09081818403126104785782601f8201121561047857604080519361517b856130d9565b849383019281841161047857935b83851061519857505050505090565b6060858303126104785782516060916151b0826130b8565b8651825260209182880151838201528588015186820152815201940193615189565b906007811015613d7d5760051b0190565b90816064029160648304036133b357565b818102929181159184041417156133b357565b8115615211570490565b634e487b7160e01b600052601260045260246000fd5b6152328115156150d1565b6152476103dc6000546001600160a01b031690565b90604051809263cfbffe5360e01b825281600460209586935afa9081156104495761528f9161528191600091615350575b506120d561511c565b838082518301019101615155565b6152a382600052600c602052604060002090565b5460015b60078111156152b7575050505050565b806152d361533c926146df876000526008602052604060002090565b54801561534a576152ec6152e683613731565b866151d2565b51878151928315615341576153136153189261530b61531e968a6151f4565b9401516151e3565b6151f4565b90615207565b615336826146df886000526009602052604060002090565b55613a19565b6152a7565b50505050613a19565b50613a19565b6153679150853d871161044257610434818361312d565b38615278565b6040519061010080830183811067ffffffffffffffff8211176130d457604052368337565b60025480600052600c6020526040600020549182018092116133b357600052600c602052604060002055565b60025480600052600d6020526040600020549182018092116133b357600052600d602052604060002055565b60025480600052600e6020526040600020549182018092116133b357600052600e602052604060002055565b60025480600052600f60205260406000205490600182018092116133b357600052600f602052604060002055565b9080600052600c6020526040600020549182018092116133b357600052600c602052604060002055565b9080600052600e6020526040600020549182018092116133b357600052600e602052604060002055565b9080600052600f6020526040600020549182018092116133b357600052600f602052604060002055565b604051906154cf826130f5565b601482527f676574627573696e6573732875696e74323536290000000000000000000000006020830152565b60405190615508826130f5565b601d82527f67657472616e6b436f756e742875696e743235362c75696e74323536290000006020830152565b60009061554b6103dc83546001600160a01b031690565b91604092835192839163111ea8c160e21b835282600460209485935afa938415610449578394615644575b505b8581111561558857505050505050565b8451828101828152819003808252601f19916155b9916155ab906020018261312d565b6155b36154c2565b87615baa565b6155d06146ee84600052600c602052604060002090565b9055835b600881106155ec5750506155e790613a19565b615578565b86518481018481526020810183905261563f9291615627916156199082906040010386810183528261312d565b6156216154fb565b89615baa565b615336826146df876000526008602052604060002090565b6155d4565b61565c919450823d841161044257610434818361312d565b9238615576565b9081602091031261047857610be290614386565b6001600160a01b03600054166040518091634bf9c0ad60e11b825281600460209485935afa8015610449576156f291600091615719575b506040516156bb816130f5565b600881527f6973536166652829000000000000000000000000000000000000000000000000848201526156ec61316b565b91615a8a565b908061570f575b156106925781610be29282518301019101615663565b50818151146156f9565b6157309150833d851161044257610434818361312d565b386156ae565b60405190615743826130f5565b601582527f69735365637572654261736528616464726573732900000000000000000000006020830152565b6157846103dc6000546001600160a01b031690565b906040518092634bf9c0ad60e11b825281600460209586935afa8015610449576156f292610642926000926157df575b506157d7906040519384918783019190916001600160a01b036020820193169052565b610658615736565b6157d79192506157fb90863d881161044257610434818361312d565b91906157b4565b6040519061580f826130f5565b601182527f69735369676e65722861646472657373290000000000000000000000000000006020830152565b600460206001600160a01b03600054166040519283809263111ea8c160e21b82525afa801561044957610be2916000916158bd575b5060405161587d816130f5565b600581527f61676528290000000000000000000000000000000000000000000000000000006020820152604051916158b483613111565b60008352615baa565b6158d5915060203d811161044257610434818361312d565b38615870565b604051906158e8826130f5565b601882527f697364656c656761746f724e6f646528616464726573732900000000000000006020830152565b3d1561593f573d906159258261314f565b91615933604051938461312d565b82523d6000602084013e565b606090565b600061595a6103dc82546001600160a01b031690565b9060405180927f46f991ac00000000000000000000000000000000000000000000000000000000825281600460209586935afa80156104495782808681949382948391615a42575b505af16159ad615914565b5015610692576004826159ca6103dc84546001600160a01b031690565b60405192838092635e09dbe760e01b82525afa908115610449577fcdcc745fe377b103b45fa0cec23ae3ef93d6fc6a84a01f0d18c40b354dd1d5d8936001600160a01b039392615a25575b50506040519384521691602090a2565b615a3b9250803d1061044257610434818361312d565b3880615a15565b615a599150883d8a1161044257610434818361312d565b386159a2565b90615a6a9291615a8a565b9060009015615a77575090565b6040519150615a8582613111565b815290565b803b15615b04576000927fffffffff000000000000000000000000000000000000000000000000000000008360208695519101201690615af46024604051809360208201958652615ae4815180926020868601910161415a565b810103600481018452018261312d565b51915afa615b00615914565b9091565b505050600090604051615b1681613111565b6000815290565b9291615b2b91600094615a8a565b9080615b63575b615b395750565b9091506020818051810103126104785760206001600160a01b03910151615b5f816104a9565b1690565b506020815114615b32565b9291615b7c91600094615a8a565b9080615b9f575b615b8a5750565b610be291925060208082518301019101615663565b506020815114615b83565b9291615bb891600094615a8a565b9080615bdb575b615bc65750565b610be2919250602080825183010191016140ea565b506020815114615bbf565b90602082519201517fffffffff00000000000000000000000000000000000000000000000000000000908181169360048110615c2157505050565b60040360031b82901b16169150565b6001600160a01b03811615615ce357600080918351908260208601915af190615c57615914565b9115615c61575090565b805160009190600411615cdd57615c789150615be6565b815115615c885750805190602001fd5b6040517f21c09d340000000000000000000000000000000000000000000000000000000081527fffffffff00000000000000000000000000000000000000000000000000000000919091166004820152602490fd5b50615c78565b60046040517fe6c4247b000000000000000000000000000000000000000000000000000000008152fdfea26469706673582212206925cdaee72235f38dc67d25c57dc50dbf57897d26228fd5c1d9cf6a8915ca4a64736f6c63430008140033","linkReferences":{}},"methodIdentifiers":{"dAOAssembly()":"14837455","daocore()":"14d8d024","nested741()":"45cff900","old741()":"5540c5ac","price()":"a035b1fe"},"id":69}