{"abi":[{"type":"constructor","inputs":[{"name":"_hex","type":"address","internalType":"address"}],"stateMutability":"nonpayable"},{"type":"function","name":"instanceStor","inputs":[],"outputs":[{"name":"","type":"address","internalType":"address"}],"stateMutability":"view"}],"bytecode":{"object":"0x6080346100c5576001600160401b0390601f616e6d38819003918201601f1916830191848311848410176100af578084926020946040528339810103126100c557516001600160a01b039190828116908190036100c55760405191616d1490818401908111848210176100af576020928492610159843981520301906000f080156100a3571660018060a01b03196000541617600055604051608e90816100cb8239f35b6040513d6000823e3d90fd5b634e487b7160e01b600052604160045260246000fd5b600080fdfe6080806040526004361015601257600080fd5b600090813560e01c63131c73ad14602857600080fd5b346054578160031936011260545773ffffffffffffffffffffffffffffffffffffffff60209254168152f35b5080fdfea264697066735822122025e1befcb91c81242667fa380b1cecfab32f0ffc856ac186175e0da49850a94764736f6c63430008140033608034620000b357601f62006d1438819003918201601f19168301916001600160401b03831184841017620000b857808492602094604052833981010312620000b357516001600160a01b03811690819003620000b3578015620000a15760018060a01b03199033826001541617600155600091825416178155600160025580600355806004558060055580600655600755604051616c459081620000cf8239f35b60405163e6c4247b60e01b8152600490fd5b600080fd5b634e487b7160e01b600052604160045260246000fdfe60806040526004361015610018575b361561001657005b005b60003560e01c806302a085f214610358578063043719b41461035357806309d8da2e1461034e5780630b98f975146103495780630c19aef81461034457806312065fe01461033f578063141ca6601461033a578063143ec3b7146103355780631f185d161461033057806324a8166e1461032b57806329ee350e146103265780632c2838e81461032157806339b4d61b1461031c5780633b9b79551461031757806343a1b5ab146103125780634a65786c1461030d57806352902c5914610308578063619d5194146103035780636350b2c2146102fe57806366eace10146102f957806369245009146102f45780636de97c66146102ef5780636f493aad146102ea578063725b6fff146102e5578063759f22bd146102e057806375b4d78c146102db5780637b058ac1146102d6578063822ffec4146102d1578063880cdc31146102cc5780638da5cb5b146102c7578063934209ce146102c25780639659867e146102bd578063a1531545146102b8578063a1f7f539146102b3578063a20199ac146102ae578063a6630304146102a9578063a9bf285b146102a4578063af4845261461029f578063af640d0f1461029a578063b90306ad14610295578063bab2f55214610290578063c54e44b01461028b578063c8ef7b1a14610286578063ce6e73ac14610281578063d2a159041461027c578063d3a1a49914610277578063da02133514610272578063deb1ba1e1461026d578063e01ad5fd14610268578063e0a9bc2b14610263578063e164980c1461025e5763fdc10bc90361000e57611f6c565b611f4e565b611f33565b611e99565b611de4565b611d5e565b611d32565b611cec565b61199a565b6118e2565b6118aa565b61188c565b611805565b6117e7565b6117b6565b611798565b6116d4565b611688565b6115da565b61159d565b61157f565b611561565b61153a565b611485565b6113ae565b6112db565b6112bd565b611208565b611184565b61114a565b6110b8565b61105f565b611041565b610fea565b610f28565b610e2e565b610e08565b610dea565b610dc3565b610d97565b610cdb565b610ca2565b610843565b61071a565b6106dd565b610637565b61061b565b6105ec565b61051f565b6104fc565b6104c0565b61038c565b610120810192916000915b6009831061037557505050565b600190825181526020809101920192019190610368565b6040806003193601126104bb578051906103a582611fe2565b61012036833760ff600854166104ab576103c46103c0616422565b1590565b61049b576103d13361651a565b8015610410575b15610400576103f16103fc926024359060043590612c6f565b90519182918261035d565b0390f35b6004905163ea8e4eb560e01b8152fd5b506004602061043661042a6000546001600160a01b031690565b6001600160a01b031690565b835192838092630536340960e21b82525afa90811561049657600091610468575b506001600160a01b031633146103d8565b610489915060203d811161048f575b6104818183612053565b810190612075565b38610457565b503d610477565b61208d565b60049051634ee2123760e11b8152fd5b600490516334c2d01160e11b8152fd5b600080fd5b346104bb5760403660031901126104bb57600435600052602160205260206104ee60243560406000206120ad565b90546040519160031b1c8152f35b346104bb5760003660031901126104bb57602060ff600854166040519015158152f35b346104bb5760203660031901126104bb5761053b6103c0616422565b6105db576105483361651a565b8015610570575b1561055f57610016600435600955565b600460405163ea8e4eb560e01b8152fd5b506004602061058a61042a6000546001600160a01b031690565b60405192838092630536340960e21b82525afa908115610496576000916105bd575b506001600160a01b0316331461054f565b6105d5915060203d811161048f576104818183612053565b386105ac565b6004604051634ee2123760e11b8152fd5b346104bb5760003660031901126104bb576100166106086165e6565b610610614e9a565b509392505050612106565b346104bb5760003660031901126104bb57602047604051908152f35b60203660031901126104bb5761064e6103c0616422565b6105db5761065b3361651a565b8015610672575b1561055f57610016600435613307565b506004602061068c61042a6000546001600160a01b031690565b60405192838092630536340960e21b82525afa908115610496576000916106bf575b506001600160a01b03163314610662565b6106d7915060203d811161048f576104818183612053565b386106ae565b346104bb5760203660031901126104bb5760043560005260216020526020604060002054604051908152f35b6001600160a01b038116036104bb57565b346104bb576020806003193601126104bb5760043561073881610709565b60048261075061042a6000546001600160a01b031690565b60405192838092634bf9c0ad60e11b82525afa8015610496576107b89261079c92600092610820575b506107aa906040519384918783019190916001600160a01b036020820193169052565b03601f198101845283612053565b6107b26165ad565b90616904565b919080610816575b156107ec5781816107da926103fc9451830101910161640d565b60405190151581529081906020820190565b60046040517f3204506f000000000000000000000000000000000000000000000000000000008152fd5b50808251146107c0565b6107aa91925061083c90863d881161048f576104818183612053565b9190610779565b346104bb57600080600319360112610c9f57808061086b61042a82546001600160a01b031690565b9160405193849363cfbffe5360e01b855284600460209788935afa938415610496578394610c7c575b506103fc9293946108c56108b76108a96128c6565b6108b1616297565b896168d9565b8280825183010191016162d0565b6108dc6108d39a949a6165e6565b600e5490612a62565b11610b73575b5050610a74610a42610a106109de6109ac61097a61094860016109106001600052601c602052604060002090565b01546004600052601c60205260017fadacb2ae086d090ae1cbb87d66774fa6d708dd14d5bdc5b6c1e455aa2020dfb75b015490612a37565b6002600052601c60205260017ff5b6e61a0c14f171ef1c86f003900ef0305e4159fff3317e4fb7c351f2050c87610940565b6003600052601c60205260017fb0deb225ecd3a242ef7d55f0f81ae3b924e0b6f9da8bc33b306fb32ca5f287f7610940565b6001600052601c60205260037f6de76108811faf2f94afbe5ac6c98e8393206cd093932de1fbfd61bbeec43a02610940565b6004600052601c60205260037fadacb2ae086d090ae1cbb87d66774fa6d708dd14d5bdc5b6c1e455aa2020dfb7610940565b6002600052601c60205260037ff5b6e61a0c14f171ef1c86f003900ef0305e4159fff3317e4fb7c351f2050c87610940565b60036000819052601c6020527fb0deb225ecd3a242ef7d55f0f81ae3b924e0b6f9da8bc33b306fb32ca5f287f7610940565b958615610b665750610ad9610ad4610aca610abc604051610aae81610aa08d8a83019190602083019252565b03601f198101835282612053565b610ab66162f2565b866168d9565b85808251830101910161632b565b985b600554612b6e565b612b13565b87151580610b5d575b610b0d575b505050604051948594859094939260609260808301968352602083015260408201520152565b610b54939450610b4791610b39610b2761079c938b612a62565b60405186810191825293849160200190565b610b416132ce565b906168d9565b805181018201910161632b565b90388080610ae7565b50808811610ae2565b610ad4610ad99198610acc565b601c6020527f6de76108811faf2f94afbe5ac6c98e8393206cd093932de1fbfd61bbeec43a065460046000819052610c3891610c0691610bd491907fadacb2ae086d090ae1cbb87d66774fa6d708dd14d5bdc5b6c1e455aa2020dfb7610940565b6002600052601c60205260047ff5b6e61a0c14f171ef1c86f003900ef0305e4159fff3317e4fb7c351f2050c87610940565b6003600052601c60205260047fb0deb225ecd3a242ef7d55f0f81ae3b924e0b6f9da8bc33b306fb32ca5f287f7610940565b9182610c45575b506108e2565b829550610c58610c5e91610c6494612b6e565b91612afd565b90612917565b92808411610c74575b8080610c3f565b925038610c6d565b6103fc939450610c9890863d881161048f576104818183612053565b9392610894565b80fd5b346104bb5760003660031901126104bb576010546008811015610cd657601281015460408051928352602083019190915290f35b611d0a565b346104bb5760203660031901126104bb576101e0610cfa6004356151c3565b60405190805182526020810151602083015260408101516040830152606081015160608301526080810151608083015260a081015160a083015260c081015160c083015260e081015160e0830152610100808201519083015261012080820151908301526101408082015190830152610160808201519083015261018080820151908301526101a080820151908301526101c08091015190820152f35b346104bb5760203660031901126104bb57600435600052601b6020526020604060002054604051908152f35b346104bb5760003660031901126104bb5760206001600160a01b0360005416604051908152f35b346104bb5760003660031901126104bb576020601e54604051908152f35b346104bb5760003660031901126104bb57602060ff60085460081c166040519015158152f35b346104bb5760603660031901126104bb57600435610e4b81610709565b602435610e5781610709565b6001600160a01b03809216908115808015610f14575b610efc57610ed257610ec49160009384548273ffffffffffffffffffffffffffffffffffffffff198216178655167fe939feee179e631422bcc8f6e6d7d908cb3f8af38f5372f17c77e15aea5c80ee8580a36166bf565b610ecf604435600b55565b80f35b60046040517fe6c4247b000000000000000000000000000000000000000000000000000000008152fd5b6024604051635258db5f60e01b815260016004820152fd5b5083821615610e6d565b801515036104bb57565b346104bb5760203660031901126104bb57600435610f4581610f1e565b610f506103c0616422565b6105db57610f5d3361651a565b8015610f7f575b1561055f576100169060ff8019600854169115151617600855565b5060046020610f9961042a6000546001600160a01b031690565b60405192838092630536340960e21b82525afa90811561049657600091610fcc575b506001600160a01b03163314610f64565b610fe4915060203d811161048f576104818183612053565b38610fbb565b346104bb5760203660031901126104bb57600435600052601d602052608060406000208054906001810154906001600160a01b03600360028301549201541691604051938452602084015260408301526060820152f35b346104bb5760003660031901126104bb576020600554604051908152f35b346104bb5760003660031901126104bb576020600f54604051908152f35b6020908160408183019282815285518094520193019160005b8281106110a4575050505090565b835185529381019392810192600101611096565b346104bb5760003660031901126104bb576010546001810190818111611145576110e182616391565b916110ef6040519384612053565b8083526110fe601f1991616391565b0136602084013760005b8181111561111e57604051806103fc858261107d565b6008811015610cd65780611140916012015461113a82866163f9565b5261219e565b611108565b612188565b346104bb5760403660031901126104bb57600435600052601f60205260406000206024356000526020526020604060002054604051908152f35b346104bb5760003660031901126104bb576020600c54604051908152f35b6020908160408183019282815285518094520193019160005b8281106111c9575050505090565b90919293826080826111fc6001948951606080918051845260208101516020850152604081015160408501520151910152565b019501939291016111bb565b346104bb5760403660031901126104bb576004356024358082116112a557818103908111611145576001810180911161114557611244816163a9565b9160005b82811061125d57604051806103fc86826111a2565b806112856112806112716112a09486612a37565b60005260208052604060002090565b61635f565b61128f82876163f9565b5261129a81866163f9565b5061219e565b611248565b6024604051635258db5f60e01b8152600d6004820152fd5b346104bb5760003660031901126104bb576020600954604051908152f35b346104bb5760a03660031901126104bb576084356112f881610f1e565b6113036103c0616422565b6105db576113103361651a565b8015611343575b1561055f576113319060643560443560243560043561432a565b60408051928352602083019190915290f35b506004602061135d61042a6000546001600160a01b031690565b60405192838092630536340960e21b82525afa90811561049657600091611390575b506001600160a01b03163314611317565b6113a8915060203d811161048f576104818183612053565b3861137f565b346104bb5760c03660031901126104bb5760a4356113cb81610f1e565b6113d66103c0616422565b6105db576113e33361651a565b801561141a575b1561055f5761140a6103fc9160843560643560443560243560043561444f565b6040519081529081906020820190565b506004602061143461042a6000546001600160a01b031690565b60405192838092630536340960e21b82525afa90811561049657600091611467575b506001600160a01b031633146113ea565b61147f915060203d811161048f576104818183612053565b38611456565b346104bb5760203660031901126104bb576004356114a281610709565b6114ad6103c0616422565b6105db576114ba3361651a565b80156114cf575b1561055f57610016906121d4565b50600460206114e961042a6000546001600160a01b031690565b60405192838092630536340960e21b82525afa9081156104965760009161151c575b506001600160a01b031633146114c1565b611534915060203d811161048f576104818183612053565b3861150b565b346104bb5760003660031901126104bb5760206001600160a01b0360015416604051908152f35b346104bb5760003660031901126104bb576020601054604051908152f35b346104bb5760003660031901126104bb576020600a54604051908152f35b346104bb5760003660031901126104bb5760a06115b8614e9a565b9260409291925194855260208501526040840152151560608301526080820152f35b346104bb5760003660031901126104bb57600460206001600160a01b03600054166040519283809263d1f956b160e01b82525afa908115610496576103fc9161140a9160009161166a575b5060405161163281611fff565b601381527f67657464656c656761746f72436f756e74282900000000000000000000000000602082015261166461287a565b91616a37565b611682915060203d811161048f576104818183612053565b38611625565b346104bb5760403660031901126104bb576116a7602435600435615fa4565b60405190600090825b600783106116bd5760e084f35b6001908251815260208091019201920191906116b0565b60c03660031901126104bb576004356116ec81610709565b6116f76103c0616422565b6105db576117043361651a565b801561172d575b1561055f576113319060a435906084359060643590604435906024359061222e565b506004602061174761042a6000546001600160a01b031690565b60405192838092630536340960e21b82525afa9081156104965760009161177a575b506001600160a01b0316331461170b565b611792915060203d811161048f576104818183612053565b38611769565b346104bb5760003660031901126104bb576020600d54604051908152f35b346104bb5760203660031901126104bb5760206117dd6004356117d881610709565b61651a565b6040519015158152f35b346104bb5760003660031901126104bb576020600b54604051908152f35b346104bb5760203660031901126104bb5760046001600160a01b03602061183682600054166001600160a01b031690565b60405193848092630536340960e21b82525afa9182156104965760009261186c575b503391160361055f576100166004356167a5565b61188591925060203d811161048f576104818183612053565b9038611858565b346104bb5760003660031901126104bb576020601a54604051908152f35b346104bb5760203660031901126104bb5760206118d16004356118cc81610709565b616bae565b6001600160a01b0360405191168152f35b346104bb5760403660031901126104bb576024356118ff81610f1e565b61190a6103c0616422565b6105db576119173361651a565b801561192f575b1561055f5761001690600435612099565b506004602061194961042a6000546001600160a01b031690565b60405192838092630536340960e21b82525afa9081156104965760009161197c575b506001600160a01b0316331461191e565b611994915060203d811161048f576104818183612053565b3861196b565b6020806003193601126104bb5760049081359160ff60085416611cdd576119bf612c22565b806000936119d761042a86546001600160a01b031690565b908460409283519586809263ab6e844f60e01b82525afa938415610496578694611cbe575b50611a056165e6565b93611a30611a2b611a25611a176128c6565b611a1f6128de565b85616a37565b87612917565b601a55565b611a46601a54600052601b602052604060002090565b54611a60611a526128c6565b611a5a612937565b84616a37565b03611ca1576103e760005260216020526001611a9e7fb149ba332085eda4d73c14ffa5390e0d7d3e897d4b6450481101115a495082e75b5460011690565b1480611c6d575b611c50578251868101838152611ad29290611ac490839060200161079c565b611acc6132ce565b90616a37565b3403611c3357611aec61042a87546001600160a01b031690565b825191868386817f1b4fc17b00000000000000000000000000000000000000000000000000000000958682525afa90811561049657611b39611b529289958b91611c16575b503490616749565b611b4d611b4834600354612a37565b600355565b600455565b611b5b85612216565b50611b7061042a88546001600160a01b031690565b9383518095819382525afa918215610496577f1517c86fcf2bfb8e3468afcc539b0004955da8027797c497ea51d1f1094ab898948693611bf1575b5050513381526001600160a01b0390911660208201526000604082015234606082015260808101919091526103e860a08201528060c081015b0390a1610ecf6001600255565b611be49293509081611c0e92903d1061048f576104818183612053565b919038611bab565b611c2d9150863d881161048f576104818183612053565b38611b31565b815163cdab4c8760e01b8152600981850190815281906020010390fd5b8251635258db5f60e01b8152600681860190815281906020010390fd5b50600b548351878101918252611c9991611c8b908290602001610aa0565b611c9361288d565b836169b2565b311515611aa5565b825163cdab4c8760e01b8152600581860190815281906020010390fd5b611cd6919450853d871161048f576104818183612053565b92386119fc565b6040516334c2d01160e11b8152fd5b346104bb5760003660031901126104bb576020601154604051908152f35b634e487b7160e01b600052603260045260246000fd5b6008811015610cd65760120190600090565b346104bb5760203660031901126104bb5760043560088110156104bb5760209060120154604051908152f35b346104bb5760203660031901126104bb57611d7761633a565b506004356000526020805260806040600020600360405191611d9883611fa5565b80548352600181015460208401526002810154604084015201546060820152611de26040518092606080918051845260208101516020850152604081015160408501520151910152565bf35b346104bb5760203660031901126104bb57600435611e0181610f1e565b611e0c6103c0616422565b6105db57611e193361651a565b8015611e2e575b1561055f57610016906121ad565b5060046020611e4861042a6000546001600160a01b031690565b60405192838092630536340960e21b82525afa90811561049657600091611e7b575b506001600160a01b03163314611e20565b611e93915060203d811161048f576104818183612053565b38611e6a565b346104bb576020806003193601126104bb5760048035611eb881610709565b6001600160a01b03928084600054166040519485809263d1f956b160e01b82525afa908115610496576103fc946107da94600093611f14575b506040519316818401528252611f0682611fff565b611f0e616686565b906169fb565b611f2c919350823d841161048f576104818183612053565b9138611ef1565b346104bb5760003660031901126104bb5760206117dd616422565b346104bb5760003660031901126104bb576020600e54604051908152f35b346104bb5760003660031901126104bb576020611f876165e6565b604051908152f35b634e487b7160e01b600052604160045260246000fd5b6080810190811067ffffffffffffffff821117611fc157604052565b611f8f565b6060810190811067ffffffffffffffff821117611fc157604052565b610120810190811067ffffffffffffffff821117611fc157604052565b6040810190811067ffffffffffffffff821117611fc157604052565b6020810190811067ffffffffffffffff821117611fc157604052565b60e0810190811067ffffffffffffffff821117611fc157604052565b90601f8019910116810190811067ffffffffffffffff821117611fc157604052565b908160209103126104bb575161208a81610709565b90565b6040513d6000823e3d90fd5b906120ab916120a66165e6565b61215a565b565b8054821015610cd65760005260206000200190600090565b9081549168010000000000000000831015611fc157826120ed9160016120ab950181556120ad565b90919082549060031b91821b91600019901b1916179055565b6103e760005260216020526040600020918254801580612152575b61214c5760019115612141571615612138575b5050565b6120ab916120c5565b811614612138575050565b50505050565b508115612121565b90600052602160205260406000209182548015806121525761214c5760019115612141571615612138575050565b634e487b7160e01b600052601160045260246000fd5b60001981146111455760010190565b156121c2576121bd60115461219e565b601155565b60115480156111455760001901601155565b6001600160a01b038116156121ec576120ab906166bf565b60046040517fab8a0360000000000000000000000000000000000000000000000000000000008152fd5b61208a612221614e9a565b5094915050839150612106565b90939295949160ff600854166127a057612246612c22565b6103e76000526021602052600161227c7fb149ba332085eda4d73c14ffa5390e0d7d3e897d4b6450481101115a495082e7611a97565b14806127b1575b6127a0576122936103c08361651a565b6121ec576000936122ae61042a86546001600160a01b031690565b6040918251809563cfbffe5360e01b938483528260046020998a935afa918215610496578992612781575b506122ff611a2b6122f96122eb6128c6565b6122f36128de565b86616a37565b8a612917565b601a5461231681600052601b602052604060002090565b5461232a6123226128c6565b6122f3612937565b1180159061274b575b6127335761234b90600052601b602052604060002090565b80546001019055600183149b8c1561272c5761237f865161237781610aa08b8d83019190602083019252565b611a1f6129e2565b9c5b6126df575b50600a54156126bf575b600a5461239c9061219e565b600a55856123a8612844565b9a8d8c5281898d015289878d015260608c019b8b8d52600a546123d590600052601d602052604060002090565b906123df91612a6f565b8d8a6001546123f4906001600160a01b031690565b895163c85700fb60e01b8d8201526001600160a01b0391909116602482015260448101939093526064830193909352608482015260a48082019290925290815261243f60c482612053565b61244891616afb565b8680825183010191019061245b91612075565b6001600160a01b0316808a52156126a7576124ed6124e56124df6124f2936124ce61248d8e516001600160a01b031690565b60036124a5600a54600052601d602052604060002090565b01906001600160a01b031673ffffffffffffffffffffffffffffffffffffffff19825416179055565b6124d66128c6565b90611acc612ac4565b87612b6e565b600554612a37565b600555565b8461250761042a89546001600160a01b031690565b92600485518095819382525afa948515610496578a6126376126296125a461259f6126176125af8661267b9f8f997f1517c86fcf2bfb8e3468afcc539b0004955da8027797c497ea51d1f1094ab8989f6125aa916125836126739f9261259093610c5e969161268a575b5061257a6128c6565b90610b41612b81565b8051810182019101612bba565b9c9491959b9293989050612b6e565b612b6e565b93612b6e565b612b30565b916125e16125c9601e54600052601f602052604060002090565b6125d3838b612a37565b600052602052604060002090565b6125ec848254612bed565b90556125d38461261261260b601e54600052601f602052604060002090565b938b612a37565b612a37565b612622828254612c09565b9055612b6e565b9a516001600160a01b031690565b945195869533879260a09491979695929760c08501986001600160a01b0380921686521660208501526040840152606083015260808201520152565b0390a1612216565b506126866001600255565b9190565b6126a19150833d851161048f576104818183612053565b38612571565b8351635258db5f60e01b815260026004820152602490fd5b6126c888600c55565b6126d188600d55565b6126da88600e55565b612390565b600954908d6126ee8383612a37565b10612714578d61270461270e9361270993612a37565b612a62565b600955565b38612386565b8651635258db5f60e01b815260056004820152602490fd5b809c612381565b855163cdab4c8760e01b815260016004820152602490fd5b5061275f6127576128c6565b611a1f612970565b871080612333575061277a6127726128c6565b611a1f6129a9565b8711612333565b612799919250873d891161048f576104818183612053565b90386122d9565b60046040516334c2d01160e11b8152fd5b50600460206127cb61042a6000546001600160a01b031690565b6040519283809263ab6e844f60e01b82525afa9081156104965761281e9161079c91600091612826575b50612810600b54604051938491602083019190602083019252565b61281861288d565b906169b2565b311515612283565b61283e915060203d811161048f576104818183612053565b386127f5565b604051906120ab82611fa5565b604051906120ab82612037565b67ffffffffffffffff8111611fc157601f01601f191660200190565b604051906128878261201b565b60008252565b6040519061289a82611fff565b601882527f676574557365724964546f496e73742875696e743235362900000000000000006020830152565b6040516128d28161201b565b60008152906000368137565b604051906128eb82611fff565b600f82527f6d696e744379636c6544617973282900000000000000000000000000000000006020830152565b8115612921570490565b634e487b7160e01b600052601260045260246000fd5b6040519061294482611fff565b601282527f6d61784d696e74735065724379636c65282900000000000000000000000000006020830152565b6040519061297d82611fff565b600c82527f6d696e4d696e74517479282900000000000000000000000000000000000000006020830152565b604051906129b682611fff565b600c82527f6d61784d696e74517479282900000000000000000000000000000000000000006020830152565b604051906129ef82611fff565b601982527f636f6d707574654d696e7456616c75652875696e7432353629000000000000006020830152565b604601908160461161114557565b906001820180921161114557565b9190820180921161114557565b60001981019190821161114557565b60011981019190821161114557565b9190820391821161114557565b60036001600160a01b0360606120ab948051855560208101516001860155604081015160028601550151169101906001600160a01b031673ffffffffffffffffffffffffffffffffffffffff19825416179055565b60405190612ad182611fff565b600f82527f6d696e74466565506572517479282900000000000000000000000000000000006020830152565b9060648202918083046064149015171561114557565b90670de0b6b3a76400009182810292818404149015171561114557565b906127109182810292818404149015171561114557565b9060198202918083046019149015171561114557565b908160640291606483040361114557565b8181029291811591840414171561114557565b60405190612b8e82611fff565b600682527f706f6f6c282900000000000000000000000000000000000000000000000000006020830152565b908160e09103126104bb5780519160208201519160408101519160608201519160808101519160c060a083015192015190565b9190916000838201938412911290801582169115161761114557565b8181039291600013801582851316918412161761114557565b6002805414612c315760028055565b60046040517f3ee5aeb5000000000000000000000000000000000000000000000000000000008152fd5b60405190612c6882612037565b60e0368337565b90612c829291612c7d612c22565b612db8565b906001600255565b60405190612c9782611fff565b601082527f65616368636c61696d4379636c652829000000000000000000000000000000006020830152565b60405190612cd082611fff565b601082527f6d6178436c61696d5065724461792829000000000000000000000000000000006020830152565b60405190612d0982611fff565b601082527f6d696e436c61696d5065724461792829000000000000000000000000000000006020830152565b60405190612d4282611fff565b601682527f6d6178476c6f62616c436c61696d5065724461792829000000000000000000006020830152565b60405190612d7b82611fff565b601582527f67657477697468647261776e2875696e743235362900000000000000000000006020830152565b906009811015610cd65760051b0190565b9291908382156131eb57506000612dd961042a82546001600160a01b031690565b604090815193849163cfbffe5360e01b835282600460209788935afa9182156104965784926131cc575b50612e0d86612216565b94600c5491612e1c8184612a37565b8811156131bf57612e3a612e3260329285612a37565b935b84612a62565b116131b657612e5e612e55612e4d6128c6565b6122f3612c8a565b600d5490612a37565b871061319e57612e80612e7a612e726128c6565b6122f3612cc3565b92614ad5565b612e886131f1565b9283151580613175575b1561315d57612eac90612ea36128c6565b90611acc612d35565b90600481612ec461042a89546001600160a01b031690565b87519283809263ab6e844f60e01b82525afa801561049657612f09928a92899261313a575b50875190810192835291612f0190839060200161079c565b611acc612d6e565b1015613123578082111561311b57612f2091612a62565b600192835b6007811115612f91575050505050906120ab9160065460e08601526007548061010087015281612f87575b50612f6f575b612f606000600655565b612f6a6000600755565b600d55565b612f82612f7d601e5461219e565b601e55565b612f56565b9050151538612f50565b600380612fa883600052601c602052604060002090565b0154908461308c579083839288612fcc61308796600052601c602052604060002090565b01612fd8848254612a37565b9055612fee84600052601c602052604060002090565b0155613002612ffc83612a44565b8c612da7565b525b7f1517c86fcf2bfb8e3468afcc539b0004955da8027797c497ea51d1f1094ab8988861303861303284612a44565b8d612da7565b5161307f61304585612a1b565b895193849333859094939260a0926001600160a01b0360c08401971683526000602084015260006040840152606083015260808201520152565b0390a161219e565b612f25565b9093808511156130fd57906130d26130a8613087949387612a62565b8096896130bf86600052601c602052604060002090565b016130cb838254612a37565b9055612a62565b906130e783600052601c602052604060002090565b015582936130f7612ffc83612a44565b52613004565b61310d9150936130879294612a62565b92826130f7612ffc83612a44565b505081612f20565b825163cdab4c8760e01b8152600480820152602490fd5b81925061315690612f01923d851161048f576104818183612053565b9190612ee9565b845163cdab4c8760e01b8152600a6004820152602490fd5b5061318f6131816128c6565b613189612cfc565b83616a37565b84101580612e92575086612e92565b835163cdab4c8760e01b815260026004820152602490fd5b50505050505050565b506032612e3a8893612e34565b6131e4919250853d871161048f576104818183612053565b9038612e03565b93505050565b6000808060018082815b61321a575b505050818111156132155761208a9250612a62565b505090565b60048084116132c857839483948852601c602052600360408920015491821515806132bf575b613259575b50839161325191612a37565b9401926131fb565b9293509091838311156132b85783905b8161327a575b859493929150613245565b926132ae826132a8818998613251968a989d996132a18e600052601c602052604060002090565b0155612a62565b95612a37565b979250929361326f565b8290613269565b50831515613240565b50613200565b604051906132db82611fff565b601d82527f636f6d70757465446f6c6c6172546f4f7a6f6e652875696e74323536290000006020830152565b61331890613313612c22565b61376b565b6001600255565b6040519061332c82611fff565b601382527f55736572546f496e7374286164647265737329000000000000000000000000006020830152565b6040519061336582611fff565b600b82527f6d696e74436f756e7428290000000000000000000000000000000000000000006020830152565b6040519061339e82611fff565b600e82527f6d696e74732875696e74323536290000000000000000000000000000000000006020830152565b604051906133d782611fff565b600b82527f6d696e74656441676528290000000000000000000000000000000000000000006020830152565b6040519061341082611fff565b600b82527f6d696e74656471747928290000000000000000000000000000000000000000006020830152565b6040519061344982611fff565b600c82527f6964732875696e743235362900000000000000000000000000000000000000006020830152565b6040519061348282611fff565b600982527f6d696e74416d74282900000000000000000000000000000000000000000000006020830152565b604051906134bb82611fff565b600a82527f647261776e6167652829000000000000000000000000000000000000000000006020830152565b604051906134f482611fff565b600c82527f4c53422875696e743235362900000000000000000000000000000000000000006020830152565b6040519061352d82611fff565b600782527f647261776e2829000000000000000000000000000000000000000000000000006020830152565b91908260c09103126104bb5781519160208101519160408201519160608101519160a0608083015192015190565b6040519061359482611fff565b601382527f67657452657761726473286164647265737329000000000000000000000000006020830152565b91908260409103126104bb576020825192015190565b604051906135e382611fff565b600782527f626f6e75732829000000000000000000000000000000000000000000000000006020830152565b6040519061361c82611fff565b600682527f63616765282900000000000000000000000000000000000000000000000000006020830152565b6040519061365582611fff565b601982527f67657445666665637469766552616e6b286164647265737329000000000000006020830152565b6040519061368e82611fff565b601f82527f6765746e6f646572616e6b61676528616464726573732c75696e7432353629006020830152565b604051906136c782611fff565b601082527f6765744e6f6465286164647265737329000000000000000000000000000000006020830152565b908160a09103126104bb57805191602082015161370f81610709565b916040810151916080606083015161372681610f1e565b92015161208a81610f1e565b6040519061373f82611fff565b601a82527f77697468647261776e496e636f6d654f662861646472657373290000000000006020830152565b60088054901c60ff1661432757600490602061379261042a6000546001600160a01b031690565b6040519384809263111ea8c160e21b82525afa91821561049657600092614306575b506137fb610aa06137ed6137d06001546001600160a01b031690565b604080516001600160a01b03909216602083015290928391820190565b6137f561331f565b846169b2565b906001600160a01b038216156142e257600581116142c95761382661381e6128c6565b611a5a613358565b90600a546138348183612a37565b8311156142c15761384491612a37565b81613d7b575b5080600a5414908115613d72575b50613861575050565b61387c61387761386f6128c6565b611a5a6134ae565b600f55565b600f8054600c548111613d11575b506138b66138a76138996128c6565b6138a1613520565b856168d9565b60208082518301019101613559565b9460016138d49592959493946001600052601c602052604060002090565b01557ff5b6e61a0c14f171ef1c86f003900ef0305e4159fff3317e4fb7c351f2050c88557fb0deb225ecd3a242ef7d55f0f81ae3b924e0b6f9da8bc33b306fb32ca5f287f8557fadacb2ae086d090ae1cbb87d66774fa6d708dd14d5bdc5b6c1e455aa2020dfb8557fb2d730c3da277545f6c9f2c922ea3d0e9fcbd74e29d321b995a837ef61c283f1557ff83d70dc1f3bc56ae93d2f099ba46d689c41cc22a3494b582010b224cccab8fc5560008052602080527f29ab76e7ca72530a8284597fb76b039d796325740b21528d71ade454c6f2dbea546139b7906124ed90612b47565b6139f86139e96040516139e181610aa087602083019190916001600160a01b036020820193169052565b610ab6613587565b602080825183010191016135c0565b601c6020527f6de76108811faf2f94afbe5ac6c98e8393206cd093932de1fbfd61bbeec43a029190915560046000527fadacb2ae086d090ae1cbb87d66774fa6d708dd14d5bdc5b6c1e455aa2020dfb755613a5f612709613a576128c6565b611a1f6135d6565b613a75613877613a6d6128c6565b611a1f61360f565b613aac613aa7604051613a9f81610aa087602083019190916001600160a01b036020820193169052565b6122f3613648565b601055565b60005b81811115613c1e575050613af161079c613b1793613ae9613b0094604051938491602083019190916001600160a01b036020820193169052565b610b416136ba565b602080825183010191016136f3565b935050505060ff8019600854169115151617600855565b60046020613b3061042a6000546001600160a01b031690565b604051928380927f6325dd040000000000000000000000000000000000000000000000000000000082525afa90811561049657613bae9161079c91600091613bff575b50613ba6613b896001546001600160a01b031690565b604080516001600160a01b03909216602083015290938491820190565b611acc613732565b6005600052601c6020527f0de3fcd0b495fcf96d4f4ab29f8e12012b60a56d458f4c95fdde42b927ce97a155600c54600d55613beb600c54600e55565b6120ab61010061ff00196008541617600855565b613c18915060203d60201161048f576104818183612053565b38613b73565b80613c3791613c86575b601054811115613c3c5761219e565b613aaf565b604080516001600160a01b0386166020820152908101829052613c8190613c7890613c6a8160608101610aa0565b613c72613681565b88616a37565b6120ed83611d20565b61219e565b6040517f5329daca0000000000000000000000000000000000000000000000000000000060208201526001600160a01b038516602482015260448101829052613ce0906139e990613cda8160648101610aa0565b87616afb565b90613cf48360005260208052604060002090565b556001613d0a8360005260208052604060002090565b0155613c28565b600c55613d41610aa0613d338354604051928391602083019190602083019252565b613d3b6134e7565b84616a73565b613d6b613d5a601e54600052601f602052604060002090565b600c54600052602052604060002090565b553861388a565b90501538613858565b60008052602080527f29ab76e7ca72530a8284597fb76b039d796325740b21528d71ade454c6f2dbe9547f29ab76e7ca72530a8284597fb76b039d796325740b21528d71ade454c6f2dbea549395909491929091905b600a548481101561426357613de8613ded9161219e565b600a55565b600a5495613e1b604051613e0d81610aa08b602083019190602083019252565b613e15613391565b8a6169b2565b90613e2f613e276128c6565b611a5a6133ca565b91613e43613e3b6128c6565b613189613403565b91613e68604051613e6081610aa060208201906000602083019252565b611a5a61343c565b90613e85613e7f613e776128c6565b6122f3613475565b93616bae565b9a613e9b61042a6000546001600160a01b031690565b6040517fcfaa1f6c0000000000000000000000000000000000000000000000000000000081526001600160a01b039d909d1660048e015260208d602481845afa9c8d156104965760009d614242575b506001600160a01b038d16156141d0575b50613f086103c08d61651a565b6121ec57613fe792613f7686613f708761042a9681613f34613fd898600052601d602052604060002090565b55836001613f4e600a54600052601d602052604060002090565b01558b6002613f69600a54600052601d602052604060002090565b0155612a37565b9d612a37565b9c613fd3613f8c6001546001600160a01b031690565b60405163c85700fb60e01b60208201526001600160a01b0390911660248201526044810193909352606483018890526084830187905260a483018990528260c4810161079c565b616afb565b60208082518301019101612075565b926001600160a01b038416156141b757600490614017600395866124a5600a54600052601d602052604060002090565b602061402e61042a6000546001600160a01b031690565b6040519384809263cfbffe5360e01b82525afa8015610496577f1517c86fcf2bfb8e3468afcc539b0004955da8027797c497ea51d1f1094ab898956125a461411761410f61259f6125d36140be8a610c5e6125aa6140af6140a06141489c6141859f60009161419e575061257a6128c6565b60208082518301019101612bba565b9e9491959b9293989050612b6e565b94612612614108601e6140ea8c6125d3886140e48554600052601f602052604060002090565b92612a37565b6140f58a8254612bed565b905554600052601f602052604060002090565b938a612a37565b918254612c09565b90556001600a5414614190575b61413a600a54600052601d602052604060002090565b01546001600160a01b031690565b604080513381526001600160a01b03909216602083015281019490945260608401929092526080830191909152600060a0830152819060c0820190565b0390a1949394613dd1565b61419983600c55565b614124565b6126a1915060203d60201161048f576104818183612053565b604051635258db5f60e01b815260026004820152602490fd5b6040517fb771c89600000000000000000000000000000000000000000000000000000000815260006004820152919c50602090829060249082905afa90811561049657600091614223575b509a38613efb565b61423c915060203d60201161048f576104818183612053565b3861421b565b61425c919d5060203d60201161048f576104818183612053565b9b38613eea565b5060008052602080527f29ab76e7ca72530a8284597fb76b039d796325740b21528d71ade454c6f2dbe9959095557f29ab76e7ca72530a8284597fb76b039d796325740b21528d71ade454c6f2dbea9390935593919290503861384a565b505080613844565b60405163cdab4c8760e01b815260036004820152602490fd5b5050506142f06138776165e6565b6142fb600f54600c55565b613beb600f54600d55565b61432091925060203d60201161048f576104818183612053565b90386137b4565b50565b919394929460009560009580614342575b5050505050565b60105497509495509193909283156143af5760016143918361439a936143806143786143a19a9760005260208052604060002090565b918254612a37565b905560005260208052604060002090565b01918254612a37565b9055614903565b60105490388080808061433b565b8160005260208052604060002080549182039182116111455755600052602080526001604060002001928354908103908111611145576143a19355614903565b604051906143fc82611fff565b601482527f6c6576656c436c617573652875696e74323536290000000000000000000000006020830152565b908160a09103126104bb578051916020820151916040810151916080606083015192015190565b939091929360009161446b61042a84546001600160a01b031690565b9160405194859363cfbffe5360e01b855284600460209889935afa938415610496578594614752575b506144a88760005260208052604060002090565b6144b3838254612a37565b905560016144ca8860005260208052604060002090565b016144d6828254612a37565b905560008052602080527f29ab76e7ca72530a8284597fb76b039d796325740b21528d71ade454c6f2dbe954151580614749575b61451e575b50505050505050505060105490565b61455e9015956145518715958661473b575b604051906145498261079c8d8783019190602083019252565b610b416143ef565b8051810182019101614428565b94939197929b9095614572600f548d612a62565b1091821561472e575b5081614725575b5061458e575b5061450f565b614679996003966145ef961561471c57610c5e6145ae6145b49386612b6e565b91612b5d565b965b1561471257506145ae6145cc93610c5e92612b6e565b935b60026145e38260005260208052604060002090565b01614380858254612a37565b016145fb838254612a37565b905561460683612216565b906001614621611a9760016000526021602052604060002090565b14801561470b575b6146ce575b506004600052602160205260016146647f1ae06646c6742a506302a1833f6c3f508643fd4c5dcb1e323706d5c3441af298611a97565b149081156146c6575b50614689575b50612216565b5038808080808080808080614588565b6004600052601c6020526146be60027fadacb2ae086d090ae1cbb87d66774fa6d708dd14d5bdc5b6c1e455aa2020dfb7614391565b905538614673565b90503861466d565b6001600052601c60205261470360027f6de76108811faf2f94afbe5ac6c98e8393206cd093932de1fbfd61bbeec43a02614391565b90553861462e565b5081614629565b92505050936145ce565b505080966145b6565b90501538614582565b601054101591503861457b565b6147448b6147aa565b614530565b5086151561450a565b61476a919450863d881161048f576104818183612053565b9238614494565b6040519061477e82611fff565b601382527f72616e6b436c617573652875696e7432353629000000000000000000000000006020830152565b6147bf61042a6000546001600160a01b031690565b604091825180809363cfbffe5360e01b8252602091829160049485915afa938415610496576000946148e4575b506010906147fa8254612a29565b6008811061480b5750505050505050565b61483e614830885161482881610aa0868883019190602083019252565b6108b1614771565b838082518301019101614428565b50505090811580156148dc575b6148bf579061487192916011541015908161489e575b508061488c575b6148765761219e565b6147fa565b61487f81601055565b613c81866120ed83611d20565b50835461489882612a44565b14614868565b905060016148b58360005260208052604060002090565b0154101538614861565b8851635258db5f60e01b8152600381880190815281906020010390fd5b50801561484b565b816148fc9295503d861161048f576104818183612053565b92386147ec565b9061491961042a6000546001600160a01b031690565b9160409283518093819263cfbffe5360e01b8352602092839160049586915afa94851561049657600095614ab6575b50156149c75760109061495b8254612a29565b6008811061496c5750505050505050565b614989614830885161482881610aa0868883019190602083019252565b50505090811580156149bf575b6148bf57906149ba92916011541015908161489e57508061488c576148765761219e565b61495b565b508015614996565b91509160009493945b6010548111614aae57614a0c6149fe87516149f681610aa0868983019190602083019252565b6138a1614771565b848082518301019101614428565b5050509082151580614a9e575b614a815790614a3e929160115410159081614a60575b5015614a4357613c8181601055565b6149d0565b613c81614a4f82611d20565b8154906000199060031b1b19169055565b90506001614a778360005260208052604060002090565b0154101538614a2f565b8751635258db5f60e01b8152600481880190815281906020010390fd5b50811580614a1957508015614a19565b505050509050565b614ace919550823d841161048f576104818183612053565b9338614948565b6120ab90614e20614e1b614ae8836151c3565b80516001600052601c602052614e1290614e0d90600390614b29827f6de76108811faf2f94afbe5ac6c98e8393206cd093932de1fbfd61bbeec43a02614391565b905560608401516004600052601c602052614b64827fadacb2ae086d090ae1cbb87d66774fa6d708dd14d5bdc5b6c1e455aa2020dfb7614391565b90556020848101516002600052601c909152614ba0827ff5b6e61a0c14f171ef1c86f003900ef0305e4159fff3317e4fb7c351f2050c87614391565b90556040840180516003600052601c602052909190614bdf827fb0deb225ecd3a242ef7d55f0f81ae3b924e0b6f9da8bc33b306fb32ca5f287f7614391565b905560808501516005600052601c602052614c1a827f0de3fcd0b495fcf96d4f4ab29f8e12012b60a56d458f4c95fdde42b927ce97a0614391565b905560a08501516006600052601c602052614c55827fb2d730c3da277545f6c9f2c922ea3d0e9fcbd74e29d321b995a837ef61c283f0614391565b905560c08501516007600052601c60205290614c91907ff83d70dc1f3bc56ae93d2f099ba46d689c41cc22a3494b582010b224cccab8fb614391565b905561010084015160026000819052601c602052614ccf907ff5b6e61a0c14f171ef1c86f003900ef0305e4159fff3317e4fb7c351f2050c87614391565b9055610120840180516003600052601c60205290946101c091614d1360027fb0deb225ecd3a242ef7d55f0f81ae3b924e0b6f9da8bc33b306fb32ca5f287f7614391565b90556101608101516005600052601c602052614d5060027f0de3fcd0b495fcf96d4f4ab29f8e12012b60a56d458f4c95fdde42b927ce97a0614391565b90556101808101516006600052601c602052614d8d60027fb2d730c3da277545f6c9f2c922ea3d0e9fcbd74e29d321b995a837ef61c283f0614391565b90556101a08101516007600052601c602052614dca60027ff83d70dc1f3bc56ae93d2f099ba46d689c41cc22a3494b582010b224cccab8fb614391565b90550151614e02614dfa89614deb601e54600052601f602052604060002090565b90600052602052604060002090565b918254612bed565b905551600654612a37565b600655565b51600754612a37565b600755565b600c55565b60405190614e3282611fff565b600982527f63617070696e67282900000000000000000000000000000000000000000000006020830152565b908160a09103126104bb578051916020820151614e7a81610f1e565b916040810151614e8981610f1e565b916080606083015161372681610f1e565b60009060046020614eb661042a6000546001600160a01b031690565b6040519283809263cfbffe5360e01b82525afa90811561049657614f0691614ef791600091615079575b50614ee9614e25565b614ef161287a565b916168d9565b60208082518301019101614e5e565b60008052602080529194929190614f4a614f41867f29ab76e7ca72530a8284597fb76b039d796325740b21528d71ade454c6f2dbe954612b6e565b95600354612b6e565b95614f53615ee0565b94615071575b50615007575b614f99575b614f88575b50828410614f8157614f7b8385612a62565b82811191565b6000614f7b565b614f929194612a37565b9238614f69565b6003600052601c6020527fb0deb225ecd3a242ef7d55f0f81ae3b924e0b6f9da8bc33b306fb32ca5f287f854909561500191614ffb90610a429060027fb0deb225ecd3a242ef7d55f0f81ae3b924e0b6f9da8bc33b306fb32ca5f287f7610940565b90612a37565b94614f64565b60026000819052601c6020527ff5b6e61a0c14f171ef1c86f003900ef0305e4159fff3317e4fb7c351f2050c8854919761506b929091614ffb91610a10917ff5b6e61a0c14f171ef1c86f003900ef0305e4159fff3317e4fb7c351f2050c87610940565b95614f5f565b975038614f59565b615091915060203d811161048f576104818183612053565b38614ee0565b604051906101e0820182811067ffffffffffffffff821117611fc157604052816101c06000918281528260208201528260408201528260608201528260808201528260a08201528260c08201528260e08201528261010082015282610120820152826101408201528261016082015282610180820152826101a08201520152565b6040519061512582611fff565b600a82527f73687574646f776e2829000000000000000000000000000000000000000000006020830152565b6040519061515e82611fff565b601182527f696e636f6d654f662861646472657373290000000000000000000000000000006020830152565b6040519061519782611fff565b601482527f636f6d70757465546f75722875696e74323536290000000000000000000000006020830152565b906151cc615097565b916000906151e461042a83546001600160a01b031690565b604080519163ab6e844f60e01b835260208084600481855afa93841561049657869461586a575b5082519163cfbffe5360e01b83528183600481845afa928315610496578793615849575b50819085828b61523d615118565b61524561287a565b61524f91896169fb565b615257615ee0565b6060840190815281845260016000819052601c6020527f6de76108811faf2f94afbe5ac6c98e8393206cd093932de1fbfd61bbeec43a03547f6de76108811faf2f94afbe5ac6c98e8393206cd093932de1fbfd61bbeec43a0554919e93916152be91612a37565b6001600052601c6020527f6de76108811faf2f94afbe5ac6c98e8393206cd093932de1fbfd61bbeec43a04546152f391612a37565b6152fc91612a62565b845280516004600052601c6020527fadacb2ae086d090ae1cbb87d66774fa6d708dd14d5bdc5b6c1e455aa2020dfb78e01547fadacb2ae086d090ae1cbb87d66774fa6d708dd14d5bdc5b6c1e455aa2020dfba5461535991612a37565b6004600052601c6020527fadacb2ae086d090ae1cbb87d66774fa6d708dd14d5bdc5b6c1e455aa2020dfb95461538e91612a37565b61539791612a62565b90526103e7600052602160205281898d7fb149ba332085eda4d73c14ffa5390e0d7d3e897d4b6450481101115a495082e754600116149c6153d793615aa0565b96929095916101c08301526101008201520152600014986004996158075750505061079c61541791612810600b5489519384918883019190602083019252565b31858b01525b8451958680927f52b06d640000000000000000000000000000000000000000000000000000000082525afa91821561049657869485936157e8575b506154a961548d61547088546001600160a01b031690565b86519182918683019190916001600160a01b036020820193169052565b03946154a1601f1996878101845283612053565b611acc615151565b6005600052601c60205293615542615510887f0de3fcd0b495fcf96d4f4ab29f8e12012b60a56d458f4c95fdde42b927ce97a001546005600052601c60205260027f0de3fcd0b495fcf96d4f4ab29f8e12012b60a56d458f4c95fdde42b927ce97a0610940565b6005600052601c60205260037f0de3fcd0b495fcf96d4f4ab29f8e12012b60a56d458f4c95fdde42b927ce97a0610940565b60808b0181815295818111156157da5761555f9150865190612a62565b85526004601054600281101580615761575b615729575b1015806156b0575b615671575b5050600560005250506021602052826155bb7ffb8633a1617da4af6a760ee9a6f35275b7a2d26730de1bb585e883dd94ef868f611a97565b14615661575b505060066000526021602052806155f77f1e9146371cd3d4aba9c38f989c3ffa4877e0f71f671d10756cafc7d2b05d7f7e611a97565b14908115615625575b506156085750565b8060a0840180516101808601525260c0830180516101a085015252565b60076000526021602052905061565a7f179bb4a3e3b811a5a7f3a6ad1b01db6cfc15b3d397314eec0425cf5b96616d82611a97565b1438615600565b80516101608701525281386155c1565b6156a29361568e9361569a92519485918201906004602083019252565b03908101845283612053565b611acc61518a565b60c087015238808080615583565b506007600052601c6020527ff83d70dc1f3bc56ae93d2f099ba46d689c41cc22a3494b582010b224cccab8fb80880154615723916156f19190600290610940565b6007600052601c60205260037ff83d70dc1f3bc56ae93d2f099ba46d689c41cc22a3494b582010b224cccab8fb610940565b1561557e565b615757835161574f81615743898201906002602083019252565b03898101835282612053565b6122f361518a565b60a08d0152615576565b506006600052601c6020527fb2d730c3da277545f6c9f2c922ea3d0e9fcbd74e29d321b995a837ef61c283f0808a01546157d4916157a29190600290610940565b6006600052601c60205260037fb2d730c3da277545f6c9f2c922ea3d0e9fcbd74e29d321b995a837ef61c283f0610940565b15615571565b6157e391612a62565b61555f565b615800919350823d841161048f576104818183612053565b9138615458565b1561583957505061079c61582d91612810600b5489519384918883019190602083019252565b316101208b015261541d565b8c8801526101208c01525061541d565b8291935061586390823d841161048f576104818183612053565b929061522f565b816158829295503d861161048f576104818183612053565b923861520b565b604051906040820182811067ffffffffffffffff821117611fc15760405260006020838281520152565b6040519060a0820182811067ffffffffffffffff821117611fc157604052816158da615889565b81526158e4615889565b60208201526158f1615889565b60408201526158fe615889565b6060820152608061590d615889565b910152565b6040519061591f82611fff565b601882527f6765744261746368526f79616c7479436c6175736573282900000000000000006020830152565b6102a09081818403126104bb5782601f820112156104bb57604080519361597185612037565b84938301928184116104bb57935b83851061598e57505050505090565b6060858303126104bb5782516060916159a682611fc6565b865182526020918288015183820152858801518682015281520194019361597f565b604051906159d582611fff565b601f82527f676574526f79616c697479416d6f756e7442617463682875696e7432353629006020830152565b9060e0828203126104bb5780601f830112156104bb5760405191615a2483612037565b829060e081019283116104bb57905b828210615a405750505090565b8151815260209182019101615a33565b906007811015610cd65760051b0190565b8181029291600082127f800000000000000000000000000000000000000000000000000000000000000082141661114557818405149015171561114557565b919091600094600094600094600094600094615b02615af3615ac06158b3565b93615aca84615d9a565b602087015190602082015252615adf84615e3e565b604087015190602082015252614ee9615912565b6020808251830101910161594b565b93600c54601054905b838110615b1b5750505050505050565b615b51615b42604051615b3a81610aa086602083019190602083019252565b6108b16159c8565b60208082518301019101615a01565b6001905b83821115615c745750508215615b74575b615b6f9061219e565b615b0b565b615b99615b9182614deb601e54600052601f602052604060002090565b54809c612bed565b9a615ba48286612a62565b9060009160408801518051888110615c1e575b5050808311615c16575b82615bcb91612a62565b9180615c00575b5081615be0575b5050615b66565b9a615bf2615bf892615b6f949d615a61565b90612bed565b999038615bd9565b9a615bf2829c615c0f93615a61565b9938615bd2565b915081615bc1565b80861115615c6b5750602085915b01615c378151612a29565b891015615c5c5750875b81811115615bb757615c54929450612a62565b913880615bb7565b615c669051612a29565b615c41565b60209091615c2c565b909c615c88615c828f612a44565b8a615a50565b5151158015615d3a575b615d3057865180518410159081615d21575b508015615cfa575b15615cde57615cd2615cd8918f615cc5615ccb91612a44565b85615a50565b5190612a37565b9d61219e565b90615b55565b9c9d615cf48f91615ccb615cc5615cd894612a44565b9e61219e565b50602087015180518410159081615d12575b50615cac565b60209150015183111538615d0c565b60209150015183111538615ca4565b9c615cd89061219e565b508d615d52615d4882611d20565b90549060031b1c90565b8410159081615d63575b5015615c92565b615d9191506040615d88615d82615d7c615d4885611d20565b93612a44565b8d615a50565b51015190612a37565b8311158e615d5c565b6002600090815260216020527f914a2534c436de5a3f77164e6b9b90d20144139ce899b6a8d30a442e7b9ef5338054919392908215615e365760018316615e1c575050615d4890600284526021602052615dfe6040615e04818720615dfe85612a53565b906120ad565b90549060031b1c956002815260216020522091612a44565b909350615dfe615e2b92612a44565b90549060031b1c9190565b509250508190565b6003600081815260216020527fbae8fb7bb9008c9bfa6625328b7613a2bedfb2f936a7718f51173039a77c107c8054919493908215615ed75760018316615ebf575050615eb7908285526021602052615dfe6040615ea1818820615dfe85612a53565b905490861b1c9685815260216020522091612a44565b9054911b1c90565b909450615dfe615ece92612a44565b9054911b1c9190565b50935050508190565b600090816001815b600f821115615f615750506001600052601c6020527f6de76108811faf2f94afbe5ac6c98e8393206cd093932de1fbfd61bbeec43a02548101809111611145576004600052601c602052917fadacb2ae086d090ae1cbb87d66774fa6d708dd14d5bdc5b6c1e455aa2020dfb75481018091116111455790565b909384825260209283805260406002818520015482018092116111455760039194878552805283200154810180911161114557615f9e909461219e565b90615ee8565b919091615faf612c5b565b92600180831461628a5750600280831461628a5750600380831461628a57600480841461614f57600584146160d057505061601090615fec6165e6565b90600c54615ffa8282612a37565b8311156160c95761600b9250612a37565b6151c3565b906006811461607a576007146160235750565b9091506101a0616031612851565b9160e08101518352610100810151602084015261012081015160408401526101408101516060840152610160810151608084015261018081015160a0840152015160c082015290565b5090915060c0616088612851565b91805183526020810151602084015260408101516040840152606081015160608401526080810151608084015260a081015160a0840152015160c082015290565b50506151c3565b9250929350506160de612851565b915482525460208201526006546040820152600754606082015261610d6001600052601c602052604060002090565b5460808201526004600052601c6020527fadacb2ae086d090ae1cbb87d66774fa6d708dd14d5bdc5b6c1e455aa2020dfb75460a0820152600e5460c082015290565b93945050505061615d612851565b7f6de76108811faf2f94afbe5ac6c98e8393206cd093932de1fbfd61bbeec43a0282015481527ff5b6e61a0c14f171ef1c86f003900ef0305e4159fff3317e4fb7c351f2050c878201546020808301919091527fb0deb225ecd3a242ef7d55f0f81ae3b924e0b6f9da8bc33b306fb32ca5f287f783015460408301527fadacb2ae086d090ae1cbb87d66774fa6d708dd14d5bdc5b6c1e455aa2020dfb783015460608301527f0de3fcd0b495fcf96d4f4ab29f8e12012b60a56d458f4c95fdde42b927ce97a083015460808301527fb2d730c3da277545f6c9f2c922ea3d0e9fcbd74e29d321b995a837ef61c283f083015460a08301526007600052601c90527ff83d70dc1f3bc56ae93d2f099ba46d689c41cc22a3494b582010b224cccab8fb9091015460c082015290565b929350505061615d612851565b604051906162a482611fff565b600782527f7661756c742829000000000000000000000000000000000000000000000000006020830152565b91908260809103126104bb578151916020810151916060604083015192015190565b604051906162ff82611fff565b601d82527f636f6d707574654f7a6f6e65546f446f6c6c61722875696e74323536290000006020830152565b908160209103126104bb575190565b6040519061634782611fa5565b60006060838281528260208201528260408201520152565b9060405161636c81611fa5565b6060600382948054845260018101546020850152600281015460408501520154910152565b67ffffffffffffffff8111611fc15760051b60200190565b906163b382616391565b6163c06040519182612053565b82815280926163d1601f1991616391565b019060005b8281106163e257505050565b6020906163ed61633a565b828285010152016163d6565b8051821015610cd65760209160051b010190565b908160209103126104bb575161208a81610f1e565b6001600160a01b03600054166040518091634bf9c0ad60e11b825281600460209485935afa80156104965761649d916000916164c4575b5060405161646681611fff565b600881527f69735361666528290000000000000000000000000000000000000000000000008482015261649761287a565b91616904565b90806164ba575b156107ec578161208a928251830101910161640d565b50818151146164a4565b6164db9150833d851161048f576104818183612053565b38616459565b604051906164ee82611fff565b601582527f69735365637572654261736528616464726573732900000000000000000000006020830152565b61652f61042a6000546001600160a01b031690565b906040518092634bf9c0ad60e11b825281600460209586935afa80156104965761649d9261079c9260009261658a575b50616582906040519384918783019190916001600160a01b036020820193169052565b6107b26164e1565b6165829192506165a690863d881161048f576104818183612053565b919061655f565b604051906165ba82611fff565b601182527f69735369676e65722861646472657373290000000000000000000000000000006020830152565b600460206001600160a01b03600054166040519283809263111ea8c160e21b82525afa80156104965761208a91600091616668575b5060405161662881611fff565b600581527f616765282900000000000000000000000000000000000000000000000000000060208201526040519161665f8361201b565b60008352616a37565b616680915060203d811161048f576104818183612053565b3861661b565b6040519061669382611fff565b601882527f697364656c656761746f724e6f646528616464726573732900000000000000006020830152565b6001600160a01b03809116908115610ed2576001548273ffffffffffffffffffffffffffffffffffffffff19821617600155167f8292fce18fa69edf4db7b94ea2e58241df0ae57f97e0a6c9b29067028bf92d76600080a3565b3d15616744573d9061672a8261285e565b916167386040519384612053565b82523d6000602084013e565b606090565b908015612134576001600160a01b038216918215610ed257600080808481945af1616772616719565b50156107ec5760207fcec1f18c3ab8ddaaa107a1591e3c369667eec613626611a8deaedef43069fcdd91604051908152a2565b60006167bb61042a82546001600160a01b031690565b9060405180927f46f991ac00000000000000000000000000000000000000000000000000000000825281600460209586935afa801561049657828086819493829483916168bc575b505af161680e616719565b50156107ec5760048261682b61042a84546001600160a01b031690565b604051928380927f5e09dbe70000000000000000000000000000000000000000000000000000000082525afa908115610496577fcdcc745fe377b103b45fa0cec23ae3ef93d6fc6a84a01f0d18c40b354dd1d5d8936001600160a01b03939261689f575b50506040519384521691602090a2565b6168b59250803d1061048f576104818183612053565b388061688f565b6168d39150883d8a1161048f576104818183612053565b38616803565b906168e49291616904565b90600090156168f1575090565b60405191506168ff8261201b565b815290565b9190823b15616999577fffffffff00000000000000000000000000000000000000000000000000000000815160208093012016916040519180830193845281519160005b83811061698557505050918161697560248260009795968897018783820152036004810184520182612053565b51915afa616981616719565b9091565b818101830151858201602401528201616948565b5050506000906040516169ab8161201b565b6000815290565b92916169c091600094616904565b90806169f0575b6169ce5750565b6001600160a01b03919250806020806169ec93518301019101612075565b1690565b5060208151146169c7565b9291616a0991600094616904565b9080616a2c575b616a175750565b61208a9192506020808251830101910161640d565b506020815114616a10565b9291616a4591600094616904565b9080616a68575b616a535750565b61208a9192506020808251830101910161632b565b506020815114616a4c565b9291616a8191600094616904565b9080616aa6575b616a8f5750565b9091506020818051810103126104bb576020015190565b506020815114616a88565b90602082519201517fffffffff00000000000000000000000000000000000000000000000000000000908181169360048110616aec57505050565b60040360031b82901b16169150565b6001600160a01b03811615610ed257600080918351908260208601915af190616b22616719565b9115616b2c575090565b805160009190600411616ba857616b439150616ab1565b815115616b535750805190602001fd5b6040517f21c09d340000000000000000000000000000000000000000000000000000000081527fffffffff00000000000000000000000000000000000000000000000000000000919091166004820152602490fd5b50616b43565b803b6000616bbb8261285e565b92616bc96040519485612053565b82845260208401903c602d815110616be557602a015160601c90565b60046040517fbaf3f0f7000000000000000000000000000000000000000000000000000000008152fdfea2646970667358221220ca0e5199183973c6942b2705f132b96fb8ca8852b7ca80505f845b9a1643fc2964736f6c63430008140033","linkReferences":{}},"methodIdentifiers":{"instanceStor()":"131c73ad"},"id":69}