{"abi":[{"type":"constructor","inputs":[{"name":"_hex","type":"address","internalType":"address"}],"stateMutability":"nonpayable"},{"type":"function","name":"instance","inputs":[],"outputs":[{"name":"","type":"address","internalType":"address"}],"stateMutability":"view"},{"type":"function","name":"tVLFactory","inputs":[],"outputs":[{"name":"","type":"address","internalType":"address"}],"stateMutability":"view"},{"type":"function","name":"tVLMining","inputs":[],"outputs":[{"name":"","type":"address","internalType":"address"}],"stateMutability":"view"},{"type":"function","name":"tVLReward","inputs":[],"outputs":[{"name":"","type":"address","internalType":"address"}],"stateMutability":"view"},{"type":"function","name":"tVLRoyality","inputs":[],"outputs":[{"name":"","type":"address","internalType":"address"}],"stateMutability":"view"},{"type":"function","name":"tVLTour","inputs":[],"outputs":[{"name":"","type":"address","internalType":"address"}],"stateMutability":"view"},{"type":"function","name":"tVLValidator","inputs":[],"outputs":[{"name":"","type":"address","internalType":"address"}],"stateMutability":"view"}],"bytecode":{"object":"0x60803461023957601f61370a38819003918201601f19168301926001600160401b039290919083851183861017610223578083926040968752833960209283918101031261023957516001600160a01b0391908281169081900361023957845191612335928381019381851087861117610223576103f482398284528681600095868582015203019084f09485156102195783549585166001600160a01b03199687161784558651610fe18082019491808610848711176101e7578481612729978489833985815203019087f080156101fb578716886001541617600155885181810181811085821117610205578186918489833985815203019087f080156101fb578716886002541617600255885181810181811085821117610205578186918489833985815203019087f080156101fb578716886003541617600355885181810181811085821117610205578186918489833985815203019087f080156101fb578716886004541617600455885181810181811085821117610205578186918489833985815203019087f080156101fb57871688600554161760055588519481860193868510908511176101e75790859392918439815203019082f09081156101dc575016906006541617600655516101b5908161023f8239f35b8451903d90823e3d90fd5b634e487b7160e01b87526041600452602487fd5b89513d88823e3d90fd5b634e487b7160e01b88526041600452602488fd5b86513d85823e3d90fd5b634e487b7160e01b600052604160045260246000fd5b600080fdfe60806040818152600436101561001457600080fd5b600091823560e01c908163022ec0951461015c575080639443767c146101355780639ba540fb1461010e578063a50c0bc0146100e7578063b85c9faf146100c0578063d795ff38146100995763dabf429d1461006f57600080fd5b346100955781600319360112610095576020906001600160a01b03600554169051908152f35b5080fd5b50346100955781600319360112610095576020906001600160a01b03600254169051908152f35b50346100955781600319360112610095576020906001600160a01b03600354169051908152f35b50346100955781600319360112610095576020906001600160a01b03600654169051908152f35b50346100955781600319360112610095576020906001600160a01b03600154169051908152f35b50346100955781600319360112610095576020906001600160a01b03600454169051908152f35b8390346100955781600319360112610095576001600160a01b0360209254168152f3fea2646970667358221220f453413515b18595a6f6187c08a45df613f3502481721e420be81b8ec416a15864736f6c63430008140033608034620000c157601f6200233538819003918201601f19168301916001600160401b03831184841017620000c6578084926040948552833981010312620000c1576200005a60206200005283620000dc565b9201620000dc565b6001600160a01b0391821691908215620000af5760018060a01b031992836001541690846000541617600055600160035533908433161717600155169060045416176004556040516122439081620000f28239f35b60405163e6c4247b60e01b8152600490fd5b600080fd5b634e487b7160e01b600052604160045260246000fd5b51906001600160a01b0382168203620000c15756fe60806040526004361015610018575b361561001657005b005b60003560e01c80630399c93c1461016857806306fdde031461016357806312065fe01461015e5780631499c592146101595780631f185d16146101545780633b9b79551461014f57806360f96a8f1461014a5780638129fc1c146101455780638da5cb5b14610140578063a1f7f5391461013b578063a3e884b014610136578063af48452614610131578063af640d0f1461012c578063b28175c414610127578063b90306ad14610122578063c107930a1461011d578063c47f002714610118578063c54e44b014610113578063e01ad5fd1461010e578063e0a9bc2b146101095763fdc10bc90361000e576112b3565b611298565b6111fe565b611178565b611105565b61103a565b610fb3565b610f8c565b610f6e565b610f3d565b610c6b565b610b86565b610b5f565b6106f9565b6106d2565b6106ab565b610582565b6104cd565b6104b1565b6103cc565b610183565b6001600160a01b0381160361017e57565b600080fd5b3461017e57602036600319011261017e576004356101a08161016d565b6101af6101ab611bdd565b1590565b610287576101bc33611cd5565b80156101fb575b156101d15761001690611af0565b60046040517fea8e4eb5000000000000000000000000000000000000000000000000000000008152fd5b50600460206102216102156000546001600160a01b031690565b6001600160a01b031690565b60405192838092630536340960e21b82525afa90811561028257600091610254575b506001600160a01b031633146101c3565b610275915060203d811161027b575b61026d818361035b565b8101906113af565b38610243565b503d610263565b6113c7565b60046040517f9dc4246e000000000000000000000000000000000000000000000000000000008152fd5b90600182811c921680156102e1575b60208310146102cb57565b634e487b7160e01b600052602260045260246000fd5b91607f16916102c0565b634e487b7160e01b600052604160045260246000fd5b6040810190811067ffffffffffffffff82111761031d57604052565b6102eb565b6020810190811067ffffffffffffffff82111761031d57604052565b610100810190811067ffffffffffffffff82111761031d57604052565b90601f8019910116810190811067ffffffffffffffff82111761031d57604052565b60005b8381106103905750506000910152565b8181015183820152602001610380565b604091602082526103c0815180928160208601526020868601910161037d565b601f01601f1916010190565b3461017e576000806003193601126104ae5760405190806006546103ef816102b1565b808552916001918083169081156104845750600114610429575b610425856104198187038261035b565b604051918291826103a0565b0390f35b9250600683527ff652222313e28459528d920b65115c16c04f3efc82aaedc97be59f3f377c0d3f5b82841061046c57505050810160200161041982610425610409565b80546020858701810191909152909301928101610451565b8695506104259693506020925061041994915060ff191682840152151560051b8201019293610409565b80fd5b3461017e57600036600319011261017e57602047604051908152f35b3461017e57602036600319011261017e576004356104ea8161016d565b6104f56101ab611bdd565b6102875761050233611cd5565b8015610517575b156101d15761001690611b76565b50600460206105316102156000546001600160a01b031690565b60405192838092630536340960e21b82525afa90811561028257600091610564575b506001600160a01b03163314610509565b61057c915060203d811161027b5761026d818361035b565b38610553565b3461017e5760208060031936011261017e576004356105a08161016d565b6004826105b86102156000546001600160a01b031690565b60405192838092634bf9c0ad60e11b82525afa8015610282576106209261060492600092610688575b50610612906040519384918783019190916001600160a01b036020820193169052565b03601f19810184528361035b565b61061a611d68565b90611faf565b91908061067e575b156106545781816106429261042594518301019101611bc5565b60405190151581529081906020820190565b60046040517f3204506f000000000000000000000000000000000000000000000000000000008152fd5b5080825114610628565b6106129192506106a490863d881161027b5761026d818361035b565b91906105e1565b3461017e57600036600319011261017e5760206001600160a01b0360005416604051908152f35b3461017e57600036600319011261017e5760206001600160a01b0360045416604051908152f35b6000806003193601126104ae5761070e611374565b600754610b1b5761072961021582546001600160a01b031690565b60408051907f013cf08b000000000000000000000000000000000000000000000000000000009182815260209384828061076b60048201906000602083019252565b0381845afa918215610282578692610afc575b5060015483516001600160a01b03909116868201818152829003808352601f199491926107c29290916107b4906020018361035b565b6107bc6113e6565b90612045565b916001600160a01b038316156109fe5750506004856107eb61021589546001600160a01b031690565b85519283809263ab6e844f60e01b82525afa908115610282576108a46108967f3baee0ea000000000000000000000000000000000000000000000000000000006108ff956108d1958b6108fa968e926109d9575b50610885610891929361085a6001546001600160a01b031690565b8d51938401969096526001600160a01b03908116602484015290941660448201529283906064820190565b0389810184528361035b565b61215a565b88808251830101910161143b565b939091936001600160a01b031673ffffffffffffffffffffffffffffffffffffffff196004541617600455565b6001600160a01b031673ffffffffffffffffffffffffffffffffffffffff196005541617600555565b600755565b8361091461021587546001600160a01b031690565b835194855260006004860152849060249082905afa908115610282576109a5947f4ef260a9000000000000000000000000000000000000000000000000000000009487936109b4575b5061099961089193946109786001546001600160a01b031690565b9051968793840152602483019190916001600160a01b036020820193169052565b0390810184528361035b565b505b6109b16001600355565b80f35b61089193506109d261099991833d851161027b5761026d818361035b565b935061095d565b61089192506109f761088591833d851161027b5761026d818361035b565b925061083f565b869394809792965060049350519283809263ab6e844f60e01b82525afa93841561028257610ad6956108fa95610aaa95610a9d948a92610adb575b506108919192610999610a546004546001600160a01b031690565b91517fb1c4907900000000000000000000000000000000000000000000000000000000898201526001600160a01b03928316602482015295909116604486015284906064820190565b805181018201910161141f565b9190916001600160a01b031673ffffffffffffffffffffffffffffffffffffffff196005541617600555565b6109a7565b6108919250610af690873d891161027b5761026d818361035b565b91610a39565b610b14919250853d871161027b5761026d818361035b565b903861077e565b606460405162461bcd60e51b815260206004820152601660248201527f6d652e616c72656164792e696e697469616c697a6564000000000000000000006044820152fd5b3461017e57600036600319011261017e5760206001600160a01b0360015416604051908152f35b3461017e57600036600319011261017e57600460206001600160a01b03600054166040519283809263d1f956b160e01b82525afa9081156102825761042591610c1691600091610c26575b50604051610bde81610301565b601381527f67657464656c656761746f72436f756e742829000000000000000000000000006020820152610c106113d3565b916120d2565b6040519081529081906020820190565b610c3e915060203d811161027b5761026d818361035b565b38610bd1565b608090600319011261017e57600435610c5c8161016d565b90602435906044359060643590565b610c7436610c44565b92610c856007939293541515611465565b610c8d611374565b60018403610ca957610c9f935061184b565b6100166001600355565b50916007915014610cbb575b50610c9f565b600090610cd261021583546001600160a01b031690565b906040908151809363ab6e844f60e01b825281600460209687935afa91821561028257610d5a92610d4c928791610f20575b5060075485517f6a8112440000000000000000000000000000000000000000000000000000000088820152602481019190915260448101929092526108918260648101610604565b8380825183010191016117e1565b819291471015610e9a575b80471015610d77575b50505050610cb5565b610d8b61021586546001600160a01b031690565b9082519085826004817faa0ddc1600000000000000000000000000000000000000000000000000000000968782525afa801561028257610dd2928891610e7d575b50611e0a565b83610de761021587546001600160a01b031690565b91600484518094819382525afa938415610282577f992e981f1f6d8cb3a32ce3b31107393c58fbd9a9052cb415a19d578833bf80d69594610e58575b5050516001600160a01b03909216825260208201524260408201526000606082015280608081015b0390a13880808080610d6e565b610e4b9294509081610e7592903d1061027b5761026d818361035b565b929038610e23565b610e949150873d891161027b5761026d818361035b565b38610dcc565b610eb583610eb06001546001600160a01b031690565b611e0a565b7f992e981f1f6d8cb3a32ce3b31107393c58fbd9a9052cb415a19d578833bf80d6610f18610eeb6001546001600160a01b031690565b84516001600160a01b03909116815260208101869052426040820152600060608201529081906080820190565b0390a1610d65565b610f379150863d881161027b5761026d818361035b565b38610d04565b3461017e57602036600319011261017e576020610f64600435610f5f8161016d565b611cd5565b6040519015158152f35b3461017e57600036600319011261017e576020600754604051908152f35b3461017e57600036600319011261017e5760206001600160a01b0360055416604051908152f35b3461017e57602036600319011261017e5760046001600160a01b036020610fe482600054166001600160a01b031690565b60405193848092630536340960e21b82525afa9182156102825760009261101a575b50339116036101d157610016600435611e94565b61103391925060203d811161027b5761026d818361035b565b9038611006565b61104336610c44565b916110516007541515611465565b61105c6101ab611bdd565b6102875761106933611cd5565b801561107e575b156101d157610016936114b0565b50600460206110986102156000546001600160a01b031690565b60405192838092630536340960e21b82525afa908115610282576000916110cb575b506001600160a01b03163314611070565b6110e3915060203d811161027b5761026d818361035b565b386110ba565b67ffffffffffffffff811161031d57601f01601f191660200190565b3461017e57602036600319011261017e5760043567ffffffffffffffff811161017e573660238201121561017e578060040135611141816110e9565b9061114f604051928361035b565b808252366024828501011161017e5760208160009260246100169601838601378301015261155f565b3461017e57602036600319011261017e576004356111958161016d565b803b60006111a2826110e9565b926111b0604051948561035b565b82845260208401903c602d8151106111d457602a602091015160601c604051908152f35b60046040517fbaf3f0f7000000000000000000000000000000000000000000000000000000008152fd5b3461017e5760208060031936011261017e576004803561121d8161016d565b6001600160a01b03928084600054166040519485809263d1f956b160e01b82525afa908115610282576104259461064294600093611279575b50604051931681840152825261126b82610301565b611273611da1565b90612096565b611291919350823d841161027b5761026d818361035b565b9138611256565b3461017e57600036600319011261017e576020610f64611bdd565b3461017e57600036600319011261017e57600460206001600160a01b0360005416604051928380927f447aa3040000000000000000000000000000000000000000000000000000000082525afa9081156102825761042591610c1691600091611356575b5060405161132481610301565b600581527f61676528290000000000000000000000000000000000000000000000000000006020820152610c106113d3565b61136e915060203d811161027b5761026d818361035b565b38611317565b600260035414611385576002600355565b60046040517f3ee5aeb5000000000000000000000000000000000000000000000000000000008152fd5b9081602091031261017e57516113c48161016d565b90565b6040513d6000823e3d90fd5b604051906113e082610322565b60008252565b604051906113f382610301565b601e82527f7265736f6c76655472616e7366657254617267657428616464726573732900006020830152565b919082604091031261017e57602082519201516113c48161016d565b9081606091031261017e57805191604060208301516114598161016d565b9201516113c48161016d565b1561146c57565b606460405162461bcd60e51b815260206004820152600f60248201527f6d652e696e76616c69642e696e697400000000000000000000000000000000006044820152fd5b9291906114bb611374565b6114c66101ab611bdd565b610287576114d333611cd5565b80156114f4575b156101d1576114e89361172e565b6114f26001600355565b565b506004602061150e6102156000546001600160a01b031690565b60405192838092630536340960e21b82525afa90811561028257600091611541575b506001600160a01b031633146114da565b611559915060203d811161027b5761026d818361035b565b38611530565b61156c6007541515611465565b611574611bdd565b15610287576001906001600160a01b0382541633036101d15780519067ffffffffffffffff821161031d576115b3826115ae6006546102b1565b611672565b60209081601f84116001146115f057509282939183926000946115e5575b50501b916000199060031b1c191617600655565b0151925038806115d1565b6006600052919083601f1981167ff652222313e28459528d920b65115c16c04f3efc82aaedc97be59f3f377c0d3f946000905b88838310611658575050501061163f575b505050811b01600655565b015160001960f88460031b161c19169055388080611634565b858701518855909601959485019487935090810190611623565b601f811161167e575050565b600090600682527ff652222313e28459528d920b65115c16c04f3efc82aaedc97be59f3f377c0d3f906020601f850160051c830194106116d9575b601f0160051c01915b8281106116ce57505050565b8181556001016116c2565b90925082906116b9565b156116ea57565b606460405162461bcd60e51b815260206004820152601360248201527f6d652e756e7365637572652e4f524331313535000000000000000000000000006044820152fd5b919260049361174461173f85611cd5565b6116e3565b6001600160a01b0392602084600054166040519788809263ab6e844f60e01b82525afa938415610282576117be966000956117c1575b506007549560405196636e59fe2560e11b602089015260248801521660448601526064850152608484015260a4830152600060c483015260c482526108918261033e565b50565b6117da91955060203d811161027b5761026d818361035b565b933861177a565b919082604091031261017e576020825192015190565b634e487b7160e01b600052601160045260246000fd5b9060158202918083046015149015171561182357565b6117f7565b90602d820291808304602d149015171561182357565b9190820391821161182357565b61185761173f82611cd5565b3461186157505050565b61187461186d3461180d565b6064900490565b9161188961188134611828565b6103e8900490565b9361189661188134611828565b946118ae866118a9836118a9893461183e565b61183e565b916000956118c661021588546001600160a01b031690565b926040938451958691635e09dbe760e01b83528260046020998a935afa8015610282576118f9928b91611ad95750611e0a565b6004856119106102158b546001600160a01b031690565b8651928380927f640274270000000000000000000000000000000000000000000000000000000082525afa92831561028257600493611955928b91611ad95750611e0a565b8461196a6102158a546001600160a01b031690565b8551938480927f30125cf50000000000000000000000000000000000000000000000000000000082525afa8015610282576119ab928991611ac25750611e0a565b6004836119c261021589546001600160a01b031690565b8451928380927f24768d910000000000000000000000000000000000000000000000000000000082525afa97881561028257600498611a07928991611ac25750611e0a565b82611a1c61021588546001600160a01b031690565b83519889809263ab6e844f60e01b82525afa938415610282576117be97636e59fe2560e11b9795611a97575b5060075492519384019690965260248301919091526001600160a01b039093166044820152606481019390935260848301919091523460a4830152600160c48301526108918260e48101610604565b610891955090611ab8610604949392863d881161027b5761026d818361035b565b9550909192611a48565b610e949150863d881161027b5761026d818361035b565b610e949150883d8a1161027b5761026d818361035b565b611b2490611b016007541515611465565b611b09611374565b611b1d6001600160a01b0382161515611b2b565b4790611e0a565b6001600355565b15611b3257565b606460405162461bcd60e51b815260206004820152600f60248201527f6d652e7a65726f2e6164647265737300000000000000000000000000000000006044820152fd5b6001600160a01b0390611b8c6007541515611465565b611b94611374565b16611ba0811515611b2b565b73ffffffffffffffffffffffffffffffffffffffff1960045416176004556001600355565b9081602091031261017e5751801515810361017e5790565b6001600160a01b03600054166040518091634bf9c0ad60e11b825281600460209485935afa801561028257611c5891600091611c7f575b50604051611c2181610301565b600881527f697353616665282900000000000000000000000000000000000000000000000084820152611c526113d3565b91611faf565b9080611c75575b1561065457816113c49282518301019101611bc5565b5081815114611c5f565b611c969150833d851161027b5761026d818361035b565b38611c14565b60405190611ca982610301565b601582527f69735365637572654261736528616464726573732900000000000000000000006020830152565b611cea6102156000546001600160a01b031690565b906040518092634bf9c0ad60e11b825281600460209586935afa801561028257611c589261060492600092611d45575b50611d3d906040519384918783019190916001600160a01b036020820193169052565b61061a611c9c565b611d3d919250611d6190863d881161027b5761026d818361035b565b9190611d1a565b60405190611d7582610301565b601182527f69735369676e65722861646472657373290000000000000000000000000000006020830152565b60405190611dae82610301565b601882527f697364656c656761746f724e6f646528616464726573732900000000000000006020830152565b3d15611e05573d90611deb826110e9565b91611df9604051938461035b565b82523d6000602084013e565b606090565b908015611e90576001600160a01b038216918215611e6657600080808481945af1611e33611dda565b50156106545760207fcec1f18c3ab8ddaaa107a1591e3c369667eec613626611a8deaedef43069fcdd91604051908152a2565b60046040517fe6c4247b000000000000000000000000000000000000000000000000000000008152fd5b5050565b6000611eaa61021582546001600160a01b031690565b9060405180927f46f991ac00000000000000000000000000000000000000000000000000000000825281600460209586935afa80156102825782808681949382948391611f92575b505af1611efd611dda565b501561065457600482611f1a61021584546001600160a01b031690565b60405192838092635e09dbe760e01b82525afa908115610282577fcdcc745fe377b103b45fa0cec23ae3ef93d6fc6a84a01f0d18c40b354dd1d5d8936001600160a01b039392611f75575b50506040519384521691602090a2565b611f8b9250803d1061027b5761026d818361035b565b3880611f65565b611fa99150883d8a1161027b5761026d818361035b565b38611ef2565b803b1561202c576000927fffffffff0000000000000000000000000000000000000000000000000000000083602086955191012016906120196024604051809360208201958652612009815180926020868601910161037d565b810103600481018452018261035b565b5191620dbba0fa612028611dda565b9091565b50505060009060405161203e81610322565b6000815290565b929161205391600094611faf565b908061208b575b6120615750565b90915060208180518101031261017e5760206001600160a01b039101516120878161016d565b1690565b50602081511461205a565b92916120a491600094611faf565b90806120c7575b6120b25750565b6113c491925060208082518301019101611bc5565b5060208151146120ab565b92916120e091600094611faf565b9080612105575b6120ee5750565b90915060208180518101031261017e576020015190565b5060208151146120e7565b90602082519201517fffffffff0000000000000000000000000000000000000000000000000000000090818116936004811061214b57505050565b60040360031b82901b16169150565b6001600160a01b03811615611e6657600080918351908260208601915af190612181611dda565b911561218b575090565b805160009190600411612207576121a29150612110565b8151156121b25750805190602001fd5b6040517f21c09d340000000000000000000000000000000000000000000000000000000081527fffffffff00000000000000000000000000000000000000000000000000000000919091166004820152602490fd5b506121a256fea2646970667358221220008928f10dff38789fa713854963535e9c550b3e9afecaed4e27baf8c881c53a64736f6c6343000814003360803461009257601f610fe138819003918201601f19168301916001600160401b038311848410176100975780849260209460405283398101031261009257516001600160a01b038116908190036100925780156100805760018060a01b0319338160015416176001556000541617600055604051610f3390816100ae8239f35b60405163e6c4247b60e01b8152600490fd5b600080fd5b634e487b7160e01b600052604160045260246000fdfe60806040526004361015610018575b361561001657005b005b60003560e01c806312065fe0146100d85780631f185d16146100d35780633b9b7955146100ce5780638da5cb5b146100c9578063a1f7f539146100c4578063a9059cbb146100bf578063af484526146100ba578063b90306ad146100b5578063c54e44b0146100b0578063e01ad5fd146100ab578063e0a9bc2b146100a65763fdc10bc90361000e5761069b565b610680565b6105e6565b610560565b6104d9565b6104a8565b610364565b6102a6565b61027f565b610258565b61010a565b346100f45760003660031901126100f457602047604051908152f35b600080fd5b6001600160a01b038116036100f457565b346100f4576020806003193601126100f457600435610128816100f9565b60048261014c6101406000546001600160a01b031690565b6001600160a01b031690565b60405192838092634bf9c0ad60e11b82525afa8015610253576101b49261019892600092610220575b506101a6906040519384918783019190916001600160a01b036020820193169052565b03601f1981018452836107af565b6101ae610aa3565b90610cd9565b919080610216575b156101ec5781816101d6926101e894518301019101610900565b60405190151581529081906020820190565b0390f35b60046040517f3204506f000000000000000000000000000000000000000000000000000000008152fd5b50808251146101bc565b6101a691925061024590863d881161024c575b61023d81836107af565b8101906107d1565b9190610175565b503d610233565b6107e9565b346100f45760003660031901126100f45760206001600160a01b0360005416604051908152f35b346100f45760003660031901126100f45760206001600160a01b0360015416604051908152f35b346100f45760003660031901126100f457600460206001600160a01b03600054166040519283809263d1f956b160e01b82525afa908115610253576101e89161033691600091610346575b506040516102fe81610772565b601381527f67657464656c656761746f72436f756e7428290000000000000000000000000060208201526103306108ed565b91610dc6565b6040519081529081906020820190565b61035e915060203d811161024c5761023d81836107af565b386102f1565b60403660031901126100f45760043561037c816100f9565b6001600160a01b038082161561047e5761039b610397610918565b1590565b610454576103a833610a10565b9081156103ed575b50156103c35761001690602435906107f5565b60046040517fea8e4eb5000000000000000000000000000000000000000000000000000000008152fd5b6004915060206104086101406000546001600160a01b031690565b60405193848092630536340960e21b82525afa91821561025357600092610434575b50163314386103b0565b61044d91925060203d811161024c5761023d81836107af565b903861042a565b60046040517f9dc4246e000000000000000000000000000000000000000000000000000000008152fd5b60046040517fe6c4247b000000000000000000000000000000000000000000000000000000008152fd5b346100f45760203660031901126100f45760206104cf6004356104ca816100f9565b610a10565b6040519015158152f35b346100f45760203660031901126100f45760046001600160a01b03602061050a82600054166001600160a01b031690565b60405193848092630536340960e21b82525afa91821561025357600092610540575b50339116036103c357610016600435610ba5565b61055991925060203d811161024c5761023d81836107af565b903861052c565b346100f45760203660031901126100f45760043561057d816100f9565b803b600061058a826108d1565b9261059860405194856107af565b82845260208401903c602d8151106105bc57602a602091015160601c604051908152f35b60046040517fbaf3f0f7000000000000000000000000000000000000000000000000000000008152fd5b346100f4576020806003193601126100f45760048035610605816100f9565b6001600160a01b03928084600054166040519485809263d1f956b160e01b82525afa908115610253576101e8946101d694600093610661575b50604051931681840152825261065382610772565b61065b610adc565b90610d8a565b610679919350823d841161024c5761023d81836107af565b913861063e565b346100f45760003660031901126100f45760206104cf610918565b346100f45760003660031901126100f457600460206001600160a01b0360005416604051928380927f447aa3040000000000000000000000000000000000000000000000000000000082525afa908115610253576101e8916103369160009161073e575b5060405161070c81610772565b600581527f616765282900000000000000000000000000000000000000000000000000000060208201526103306108ed565b610756915060203d811161024c5761023d81836107af565b386106ff565b634e487b7160e01b600052604160045260246000fd5b6040810190811067ffffffffffffffff82111761078e57604052565b61075c565b6020810190811067ffffffffffffffff82111761078e57604052565b90601f8019910116810190811067ffffffffffffffff82111761078e57604052565b908160209103126100f457516107e6816100f9565b90565b6040513d6000823e3d90fd5b90804710610842575b6108088183610b45565b60405190815233916001600160a01b0316907f1e70cf59d0c7a20c88704bfce5a47e636dfa577ebf52a7166641741cef34366190602090a3565b68056bc75e2d63100000810181116108bb57671bc16d674ec8000081018082116108bb576040517fa9059cbb0000000000000000000000000000000000000000000000000000000060208201523060248201526044808201929092529081526108b5906108b06064826107af565b610e04565b506107fe565b634e487b7160e01b600052601160045260246000fd5b67ffffffffffffffff811161078e57601f01601f191660200190565b604051906108fa82610793565b60008252565b908160209103126100f4575180151581036100f45790565b6001600160a01b03600054166040518091634bf9c0ad60e11b825281600460209485935afa801561025357610993916000916109ba575b5060405161095c81610772565b600881527f69735361666528290000000000000000000000000000000000000000000000008482015261098d6108ed565b91610cd9565b90806109b0575b156101ec57816107e69282518301019101610900565b508181511461099a565b6109d19150833d851161024c5761023d81836107af565b3861094f565b604051906109e482610772565b601582527f69735365637572654261736528616464726573732900000000000000000000006020830152565b610a256101406000546001600160a01b031690565b906040518092634bf9c0ad60e11b825281600460209586935afa8015610253576109939261019892600092610a80575b50610a78906040519384918783019190916001600160a01b036020820193169052565b6101ae6109d7565b610a78919250610a9c90863d881161024c5761023d81836107af565b9190610a55565b60405190610ab082610772565b601182527f69735369676e65722861646472657373290000000000000000000000000000006020830152565b60405190610ae982610772565b601882527f697364656c656761746f724e6f646528616464726573732900000000000000006020830152565b3d15610b40573d90610b26826108d1565b91610b3460405193846107af565b82523d6000602084013e565b606090565b908015610ba1576001600160a01b03821691821561047e57600080808481945af1610b6e610b15565b50156101ec5760207fcec1f18c3ab8ddaaa107a1591e3c369667eec613626611a8deaedef43069fcdd91604051908152a2565b5050565b6000610bbb61014082546001600160a01b031690565b9060405180927f46f991ac00000000000000000000000000000000000000000000000000000000825281600460209586935afa80156102535782808681949382948391610cbc575b505af1610c0e610b15565b50156101ec57600482610c2b61014084546001600160a01b031690565b604051928380927f5e09dbe70000000000000000000000000000000000000000000000000000000082525afa908115610253577fcdcc745fe377b103b45fa0cec23ae3ef93d6fc6a84a01f0d18c40b354dd1d5d8936001600160a01b039392610c9f575b50506040519384521691602090a2565b610cb59250803d1061024c5761023d81836107af565b3880610c8f565b610cd39150883d8a1161024c5761023d81836107af565b38610c03565b9190823b15610d71577fffffffff00000000000000000000000000000000000000000000000000000000815160208093012016916040519180830193845281519160005b838110610d5d575050509181610d4a602482600097959688970187838201520360048101845201826107af565b5191620dbba0fa610d59610b15565b9091565b818101830151858201602401528201610d1d565b505050600090604051610d8381610793565b6000815290565b9291610d9891600094610cd9565b9080610dbb575b610da65750565b6107e691925060208082518301019101610900565b506020815114610d9f565b9291610dd491600094610cd9565b9080610df9575b610de25750565b9091506020818051810103126100f4576020015190565b506020815114610ddb565b602081016000808084518482732fb8b5508b072e1d0e0d2e7e4a1a1a7955589a9a5af192610e30610b15565b9315610e3c5750505090565b5191600483109182610ef45750517fffffffff000000000000000000000000000000000000000000000000000000009283821692610edf575b505090505b815115610e8a5750805190602001fd5b6040517f21c09d340000000000000000000000000000000000000000000000000000000081527fffffffff00000000000000000000000000000000000000000000000000000000919091166004820152602490fd5b8391925060040360031b1b1616808380610e75565b92505050610e7a56fea26469706673582212206f66467cdc5110414f6278018150eaa3f9dfef452d9b05820d0ad0578ffe3a0d64736f6c63430008140033","linkReferences":{}},"methodIdentifiers":{"instance()":"022ec095","tVLFactory()":"9ba540fb","tVLMining()":"d795ff38","tVLReward()":"b85c9faf","tVLRoyality()":"9443767c","tVLTour()":"dabf429d","tVLValidator()":"a50c0bc0"},"id":69}