{"abi":[{"type":"constructor","inputs":[{"name":"_hex","type":"address","internalType":"address"}],"stateMutability":"nonpayable"},{"type":"function","name":"rule741","inputs":[],"outputs":[{"name":"","type":"address","internalType":"address"}],"stateMutability":"view"},{"type":"function","name":"transferRequest","inputs":[],"outputs":[{"name":"","type":"address","internalType":"address"}],"stateMutability":"view"}],"bytecode":{"object":"0x60803461012557601f6200648e38819003918201601f19168301926001600160401b039290918385118386101761010f57816020928492604097885283398101031261012557516001600160a01b0390818116908190036101255783519061414091828101928184108685111761010f576200234e823981835260208160009403019083f09384156101055782549484166001600160a01b031995861617835585519161216a80840192848410908411176100f157918391602093620001e48439815203019082f09081156100e65750169060015416176001555160b990816200012b8239f35b8451903d90823e3d90fd5b634e487b7160e01b85526041600452602485fd5b85513d84823e3d90fd5b634e487b7160e01b600052604160045260246000fd5b600080fdfe6080806040526004361015601257600080fd5b600090813560e01c9081630a5b38ab14605d5750633da8676f14603457600080fd5b34605a5780600319360112605a576001546040516001600160a01b039091168152602090f35b80fd5b905034607f5781600319360112607f5790546001600160a01b03168152602090f35b5080fdfea26469706673582212202bc0543122b85aa240a40c5afda888ab39c83f677e2a46993fcb1b01e056f05364736f6c634300081400336080346100ca57601f61216a38819003918201601f19168301916001600160401b038311848410176100cf578084926020946040528339810103126100ca57516001600160a01b038116908190036100ca5780156100855760018060a01b0319338160015416176001556000541617600055600160035560405161208490816100e68239f35b60405162461bcd60e51b815260206004820152601360248201527f6f776e2e696e76616c69642e68657862617365000000000000000000000000006044820152606490fd5b600080fd5b634e487b7160e01b600052604160045260246000fdfe60806040526004361015610018575b361561001657005b005b60003560e01c806312065fe0146101a857806318c864e3146101a35780631f185d161461019e57806324480afe146101995780633294adf0146101945780633676bd1f1461018f5780633b9b79551461018a578063479fa2c31461018557806349fbed12146101805780634ef260a91461017b5780638da5cb5b14610176578063a1f7f53914610171578063ab7e46ae1461016c578063ac23334514610167578063af48452614610162578063b8f1759a1461015d578063b90306ad14610158578063c1e6cec214610153578063c54e44b01461014e578063cab3cc8d14610149578063e01ad5fd14610144578063e0a9bc2b1461013f578063e846034a1461013a578063fdc10bc9146101355763ff585caf0361000e57610daf565b610d8c565b610d6e565b610ccc565b610c2d565b610c0f565b610b73565b610b36565b610a18565b6109d5565b6109a4565b61096b565b610928565b610871565b610848565b610790565b610676565b6105cd565b6105a4565b61056c565b6103d3565b6103b5565b6102a9565b610221565b346101c45760003660031901126101c457602047604051908152f35b600080fd5b60209060031901126101c45760043590565b634e487b7160e01b600052603260045260246000fd5b60055481101561021057600560005260206000209060021b0190600090565b6101db565b6001600160a01b031690565b346101c45761022f366101c9565b6005548110156101c45761024460c0916101f1565b5060ff60018060a01b03808354169282600182015460036002840154930154936040519687528116602087015260a01c161515604085015260608401528181161515608084015260081c16151560a0820152f35b6001600160a01b038116036101c457565b346101c4576020806003193601126101c4576004908135906102ca82610298565b806102de6102d9600054610215565b610215565b604051634bf9c0ad60e11b815294859182905afa9182156103b05761032361035d9361033f9261036f9660009261037d575b5061033190604051938491878301610591565b03601f198101845283610f00565b610339611c3e565b90611e08565b919080610373575b61035090611c6b565b8082518301019101611b0d565b60405190151581529081906020820190565b0390f35b5081518114610347565b6103319192506103a290863d88116103a9575b61039a8183610f00565b810190610f23565b9190610310565b503d610390565b610f3b565b346101c45760003660031901126101c4576020600754604051908152f35b346101c4576020806003193601126101c4576004356103f181610298565b6001600160a01b038116156105325761041361040c33610b1c565b5415610e21565b61042661041e610e78565b509182610eab565b6104616004600183019361043a3386610eab565b600554604051600162a7a35160e01b03198382015260248101919091529283906044820190565b03610474601f1991828101865285610f00565b816104836102d9600054610215565b604051630536340960e21b815294859182905afa9283156103b0576002946104f6946104e9936104d893600092610511575b5060405163d3a3084960e01b878201529391926104e49285913060248401610f6a565b03908101845283610f00565b611f73565b8051810182019101610fd9565b91015561050e6105096005549254610215565b610b1c565b55005b6104e4925061052c90873d89116103a95761039a8183610f00565b916104b5565b60405162461bcd60e51b815260048101839052601260248201527137bbb7173232b330bab63a1739b2b73232b960711b6044820152606490fd5b346101c45761058a61057d366101c9565b610585611946565b61155a565b6001600355005b6001600160a01b03909116815260200190565b346101c45760003660031901126101c4576000546040516001600160a01b039091168152602090f35b346101c4576105db366101c9565b8015158061066a575b6105ed90611026565b600019810190811161066557610602906101f1565b50805460018201546003830154600290930154604080516001600160a01b039485168152938316602085015260ff80861615159185019190915260089490941c84161515606084015260a091821c9093161515608083015281019190915260c090f35b61106c565b506005548111156105e4565b346101c457610684366101c9565b61068c611946565b61069960648211156112e0565b6106aa6106a530611b9b565b61132b565b6106c96007916106c483546106bd611cb0565b10156119ca565b611a20565b9060005b8251811015610702576106fd906106f86106f38454806106ed8589611a52565b52611403565b600755565b611403565b6106cd565b82600460206107156102d9600054610215565b60405163ab6e844f60e01b815292839182905afa80156103b057610761926103239260009261076c575b50604051637aefe0bb60e01b6020820152926104e49184919060248301611a66565b506100166001600355565b6104e49192506107899060203d81116103a95761039a8183610f00565b919061073f565b346101c45760203660031901126101c4576004356107ad81610298565b6001600160a01b03166000818152600460205260408120549091906000198101908111610665576107df6003916101f1565b5001805461ff001916610100179055808252600460205260408220829055600654600160401b811015610843576001810180600655811015610210576006835260008051602061202f8339815191520180546001600160a01b031916909117905580f35b610e62565b346101c45760003660031901126101c4576001546040516001600160a01b039091168152602090f35b346101c45760003660031901126101c45760005460405163d1f956b160e01b815290602090829060049082906001600160a01b03165afa9081156103b05761036f916108fa9160009161090a575b506040516108cc81610eca565b601381527267657464656c656761746f72436f756e74282960681b60208201526108f46110ac565b91611f06565b6040519081529081906020820190565b610922915060203d81116103a95761039a8183610f00565b386108bf565b346101c457610936366101c9565b6006548110156101c457600660005260008051602061202f83398151915201546040516001600160a01b039091168152602090f35b346101c45760203660031901126101c457602061099260043561098d81610298565b611237565b6040516001600160a01b039091168152f35b346101c45760203660031901126101c45760206109cb6004356109c681610298565b611b9b565b6040519015158152f35b346101c4576109e3366101c9565b60065481101561021057600660005260008051602061202f83398151915201546040516001600160a01b039091168152602090f35b346101c457610a26366101c9565b60008054604051630536340960e21b81529192916020916001600160a01b039081168383600481845afa9283156103b0576004938593610a70928992610afd575b50163314610fe8565b6040516311be646b60e21b815292839182905afa9182156103b057848085610aaf95829583958492610ae0575b50505af1610aa9611d6f565b50611d9f565b60405190815233907fcdcc745fe377b103b45fa0cec23ae3ef93d6fc6a84a01f0d18c40b354dd1d5d890602090a280f35b610af69250803d106103a95761039a8183610f00565b3880610a9d565b610b15919250853d87116103a95761039a8183610f00565b9038610a67565b6001600160a01b0316600090815260046020526040902090565b346101c45760203660031901126101c457600435610b5381610298565b60018060a01b031660005260046020526020604060002054604051908152f35b346101c45760203660031901126101c457600435610b9081610298565b803b6000610b9d82611091565b92610bab6040519485610f00565b82845260208401903c602d815110610bd457602a61036f91015160601c60405191829182610591565b60405162461bcd60e51b81526020600482015260136024820152724e6f742061206d696e696d616c2070726f787960681b6044820152606490fd5b346101c45760003660031901126101c4576020600554604051908152f35b346101c4576020806003193601126101c45760048035610c4c81610298565b60005460405163d1f956b160e01b81526001600160a01b03949093909182918591829088165afa9081156103b05761036f9461035d94600093610cad575b506040519316818401528252610c9f82610eca565b610ca7611d3b565b90611eca565b610cc5919350823d84116103a95761039a8183610f00565b9138610c8a565b346101c45760003660031901126101c457600054604051634bf9c0ad60e11b8152906020908190839060049082906001600160a01b03165afa9081156103b057610d3661035d9261036f94600091610d51575b50610d28611aa1565b610d306110ac565b91611e08565b919080610d47575b61035090611ac5565b5081518114610d3e565b610d689150833d85116103a95761039a8183610f00565b38610d1f565b346101c45760003660031901126101c4576020600654604051908152f35b346101c45760003660031901126101c4576020610da7611cb0565b604051908152f35b346101c457610dbd366101c9565b600054604051630536340960e21b81526001600160a01b0392916020908290600490829087165afa80156103b05761001693610e0392600092610e085750163314610fe8565b611133565b610b1591925060203d81116103a95761039a8183610f00565b15610e2857565b60405162461bcd60e51b815260206004820152601260248201527170726f706f7365722e746f2e65786973747360701b6044820152606490fd5b634e487b7160e01b600052604160045260246000fd5b600554600160401b81101561084357600181018060055581101561021057600560005260206000209060021b0190600090565b80546001600160a01b0319166001600160a01b03909216919091179055565b604081019081106001600160401b0382111761084357604052565b602081019081106001600160401b0382111761084357604052565b601f909101601f19168101906001600160401b0382119082101761084357604052565b908160209103126101c45751610f3881610298565b90565b6040513d6000823e3d90fd5b60005b838110610f5a5750506000910152565b8181015183820152602001610f4a565b9291608090600a9260a08652600d60a08701526c2ab9b2b9102a3930b739b332b960991b60c087015260018060a01b031660208601526000604086015260e0606086015280518060e0870152610fca81610100936020858a019101610f47565b601f8019910116850101930152565b908160209103126101c4575190565b15610fef57565b60405162461bcd60e51b815260206004820152600f60248201526e6f776e2e6e6f6e617574682e44414f60881b6044820152606490fd5b1561102d57565b60405162461bcd60e51b81526020600482015260176024820152761c1c9bdc1bdcd95c8b9a5b9d985b1a590b999bdc9b5a59604a1b6044820152606490fd5b634e487b7160e01b600052601160045260246000fd5b60001981019190821161066557565b6001600160401b03811161084357601f01601f191660200190565b604051906110b982610ee5565b60008252565b604051906110cc82610eca565b6012825271676574526573756c742875696e743235362960701b6020830152565b519081151582036101c457565b91908260c09103126101c457815191602081015191604082015191606081015191610f3860a061112c608085016110ed565b93016110ed565b8015611234576111536111589161114e600554821115611026565b611082565b6101f1565b506111676102d9600054610215565b604051918291630536340960e21b835282600460209485935afa9081156103b0576111db611203936111ce61032360039561121598600091611217575b506111c060028701546040519384918783019190602083019252565b6111c86110bf565b90611ddd565b80518101820191016110fa565b60018701805460ff60a01b191692151560a01b60ff60a01b1692909217909155969350505050565b019060ff801983541691151516179055565b565b61122e9150843d86116103a95761039a8183610f00565b386111a4565b50565b61124081610b1c565b5480151590816112d3575b50156112cd5761115361126061126692610b1c565b54611082565b50600181015460a01c60ff1690816112b7575b81611296575b6000911561129257610f38915054610215565b5090565b90506112b16112ad600383015460ff9060081c1690565b1590565b9061127f565b90506112c7600382015460ff1690565b90611279565b50600090565b905060055410153861124b565b156112e757565b60405162461bcd60e51b815260206004820152601c60248201527b1d5d1a5b1a5d1e4b98985d18da0b9b1a5b5a5d0b995e18d95959195960221b6044820152606490fd5b1561133257565b60405162461bcd60e51b81526020600482015260176024820152761d5d1a5b1a5d1e4b9d5b9cd958dd5c994b99985a5b1959604a1b6044820152606490fd5b60405161137d81610ee5565b60008152906000368137565b6040519061139682610eca565b600f82526e6765744e6f646573436f756e74282960881b6020830152565b156113bb57565b60405162461bcd60e51b81526020600482015260136024820152727574696c6974792e696d706f72742e646f6e6560681b6044820152606490fd5b9190820180921161066557565b60001981146106655760010190565b6040519061141f82610eca565b60178252766765744e6f64654279496e6465782875696e743235362960481b6020830152565b1561144c57565b60405162461bcd60e51b815260206004820152601660248201527570726f78792e696e76616c69642e696e7374616e636560501b6044820152606490fd5b6040519061149782610eca565b6013825272496e7374546f5573657228616464726573732960681b6020830152565b156114c057565b60405162461bcd60e51b815260206004820152601260248201527170726f78792e696e76616c69642e6e6f646560701b6044820152606490fd5b6040519061150782610eca565b601082526f6765744e6f646528616464726573732960801b6020830152565b908160a09103126101c457805191602082015161154281610298565b91604081015191610f38608061112c606085016110ed565b61156760648211156112e0565b6115736106a530611b9b565b6000906115836102d98354610215565b6040805163111ea8c160e21b808252600495939092916020919082818981855afa80156103b0576115cd91879161192f575b506115be611371565b906115c7611389565b90611f06565b95861561192557835183818a8163ab6e844f60e01b968782525afa9081156103b0576116189161160691899161190857506115be611371565b91611612838a116113b4565b826113f6565b96808811611900575b505b868110611634575050505050505050565b6116416102d98754610215565b90845186815284818b81865afa9283156103b0578a9189946118e1575b50611698875180611676868a83019190602083019252565b039561168a601f1997888101845283610f00565b611692611412565b90611e86565b6001600160a01b03906116ae8183161515611445565b87895180958c825281865afa9384156103b057818a8f968b8f946116fa95926118bc575b506116e66116f29293519485928301610591565b038a8101845283610f00565b61169261148a565b9261170883851615156114b9565b888a5180968d825281845afa80156103b05761176a8f966117488f6001948f91978f989461175c959261189b575b506117549192519384918a8301610591565b038d8101845283610f00565b6111c86114fa565b848082518301019101611526565b505050949094169361177d8115156114b9565b148015611892575b611827575b50506117968280611969565b866117a46102d98c54610215565b8951948580928a82525afa80156103b057611801956117fb948c92611806575b5089516350db85d160e01b8a8201526001600160a01b039384166024820152939092166044840152906104e49083606481016104d8565b50611403565b611623565b6104e49250611821908a3d8c116103a95761039a8183610f00565b916117c4565b8951948580928d82525afa9283156103b0578c936118689261185c928d9261186f575b506116f2908b519384918c8301610591565b03888101845283610f00565b863861178a565b6116f291925061188b908b3d8d116103a95761039a8183610f00565b919061184a565b50821515611785565b61175492506118b6908a3d8c116103a95761039a8183610f00565b91611736565b6116f292506118da6116e691833d85116103a95761039a8183610f00565b92506116d2565b6118f9919450863d88116103a95761039a8183610f00565b923861165e565b965038611621565b61191f9150863d88116103a95761039a8183610f00565b386115b5565b5050505050505050565b61191f9150843d86116103a95761039a8183610f00565b600260035414611957576002600355565b604051633ee5aeb560e01b8152600490fd5b60055490600160401b8210156108435761198e61041e836001600395016005556101f1565b6001810161199c8482610eab565b805460ff60a01b1916600160a01b17905501805461ffff19166001179055600554906119c790610b1c565b55565b156119d157565b60405162461bcd60e51b815260206004820152601060248201526f7574696c6974792e6167652e646f6e6560801b6044820152606490fd5b6001600160401b0381116108435760051b60200190565b90611a2a82611a09565b611a376040519182610f00565b8281528092611a48601f1991611a09565b0190602036910137565b80518210156102105760209160051b010190565b6020908160408183019282815285518094520193019160005b828110611a8d575050505090565b835185529381019392810192600101611a7f565b60405190611aae82610eca565b6008825267697353616665282960c01b6020830152565b15611acc57565b60405162461bcd60e51b81526020600482015260196024820152781bdddb8b9cd8599959dd585c990b98d85b1b0b99985a5b1959603a1b6044820152606490fd5b908160209103126101c457610f38906110ed565b60405190611b2e82610eca565b601582527469735365637572654261736528616464726573732960581b6020830152565b15611b5957565b60405162461bcd60e51b815260206004820152601a6024820152791bdddb8b9cd958dd5c9958985cd94b98d85b1b0b99985a5b195960321b6044820152606490fd5b600054611bb0906001600160a01b0316610215565b604051918291634bf9c0ad60e11b835282600460209485935afa9283156103b057610f3893611c009261032392600092611c1b575b50611bf890604051938491878301610591565b610339611b21565b919080611c11575b61035090611b52565b5081518114611c08565b611bf8919250611c3790863d88116103a95761039a8183610f00565b9190611be5565b60405190611c4b82610eca565b601182527069735369676e657228616464726573732960781b6020830152565b15611c7257565b60405162461bcd60e51b81526020600482015260166024820152751bdddb8b9cda59db995c8b98d85b1b0b99985a5b195960521b6044820152606490fd5b60005460405163111ea8c160e21b815290602090829060049082906001600160a01b03165afa80156103b057610f3891600091611d1d575b50604051611cf581610eca565b6005815264616765282960d81b602082015260405191611d1483610ee5565b60008352611f06565b611d35915060203d81116103a95761039a8183610f00565b38611ce8565b60405190611d4882610eca565b6018825277697364656c656761746f724e6f646528616464726573732960401b6020830152565b3d15611d9a573d90611d8082611091565b91611d8e6040519384610f00565b82523d6000602084013e565b606090565b15611da657565b60405162461bcd60e51b815260206004820152600f60248201526e1bdddb8b989d5c9b8b99985a5b1959608a1b6044820152606490fd5b90611de89291611e08565b9060009015611df5575090565b6040519150611e0382610ee5565b815290565b803b15611e6d57600092839263ffffffff60e01b90602081519101201690611e5a6024604051809360208201958652611e4a8151809260208686019101610f47565b8101036004810184520182610f00565b5191620dbba0fa611e69611d6f565b9091565b505050600090604051611e7f81610ee5565b6000815290565b9291611e9491600094611e08565b9080611ebf575b611ea25750565b9091506020818051810103126101c4576020015161021581610298565b506020815114611e9b565b9291611ed891600094611e08565b9080611efb575b611ee65750565b610f3891925060208082518301019101611b0d565b506020815114611edf565b9291611f1491600094611e08565b9080611f37575b611f225750565b610f3891925060208082518301019101610fd9565b506020815114611f1b565b906020825192015163ffffffff60e01b908181169360048110611f6457505050565b60040360031b82901b16169150565b6001600160a01b03811615611ff457600080918351908260208601915af190611f9a611d6f565b9115611fa4575090565b805160009190600411611fee57611fbb9150611f42565b815115611fcb5750805190602001fd5b604051630870274d60e21b81526001600160e01b03199091166004820152602490fd5b50611fbb565b60405162461bcd60e51b81526020600482015260126024820152711bdddb8b9a5b9d985b1a590b9d185c99d95d60721b6044820152606490fdfef652222313e28459528d920b65115c16c04f3efc82aaedc97be59f3f377c0d3fa2646970667358221220ccd0de30bb0e54aeab98d76f12406b2eb9d6790cdedf367d56412b6b03209c8b64736f6c634300081400336080346200145457601f6200414038819003918201601f19168301916001600160401b0383118484101762001459578084926020946040528339810103126200145457516001600160a01b03811690819003620014545780156200140f5760018060a01b0319338160015416176001556000541617600055601e601755600360185560046019556001601a556001601b556002601c5561c350601d55610258601e556003601f55601960205568878678326eac900000602155670de0b6b3a764000060235569021e19e0c9bab240000060245560016025556005602e5560ff19602f5416602f5561025860c0620000f5620014cf565b6002815260646020820152600160408201526023606082015260646080820152600160a082015201526002600755606460085560016009556023600a556064600b556001600c55610258600d55605a60406200015062001518565b60198152600a602082015201526019600e55600a600f55605a60105560406200017862001518565b6005815260016020820152610168918291015260056011556001601255601355600160a0620001a6620014cf565b60048152826020820152826040820152826060820152826080820152600060c08201520152600460145564010101010165ffffffffffff196015541617601555620001f062001552565b610258606061014092838152600b6020820152600a60408201520152602655600b602755600a60285561025860295561025860606200022e62001552565b60d28152600b6020820152600a6040820152015260d2602a55600b602b55600a602c55610258602d556200028d620002656200146f565b680821ab0d44149800008152601e602082015260016000526022602052604060002062001588565b620002c36200029b6200146f565b681043561a88293000008152601e602082015260026000526022602052604060002062001588565b620002f9620002d16200146f565b682086ac3510526000008152601e602082015260036000526022602052604060002062001588565b6200032f620003076200146f565b6830ca024f987b9000008152601e602082015260046000526022602052604060002062001588565b620003656200033d6200146f565b685150ae84a8cdf000008152601e602082015260056000526022602052604060002062001588565b6200039b620003736200146f565b6871d75ab9b9205000008152601e602082015260066000526022602052604060002062001588565b620003d1620003a96200146f565b68a2a15d09519be000008152601e602082015260076000526022602052604060002062001588565b620003ff620003df6200146f565b600781526019602082015260016000526004602052604060002062001588565b6200042d6200040d6200146f565b600781526064602082015260026000526004602052604060002062001588565b6200045c6200043b6200146f565b600781526101f4602082015260036000526004602052604060002062001588565b6200048b6200046a6200146f565b600781526107d0602082015260046000526004602052604060002062001588565b620004ba620004996200146f565b60078152611388602082015260056000526004602052604060002062001588565b620004e9620004c86200146f565b60078152612710602082015260066000526004602052604060002062001588565b62000518620004f76200146f565b600781526161a8602082015260076000526004602052604060002062001588565b620005226200148f565b60008082526006602080840182815260016040860181815260056060880190815260808801838152929096529390925293517f3e5fec24aa4dc4e5aee2e025e51e1392c72a2500577559fae9665c6d52bd6a315592517f3e5fec24aa4dc4e5aee2e025e51e1392c72a2500577559fae9665c6d52bd6a3255517f3e5fec24aa4dc4e5aee2e025e51e1392c72a2500577559fae9665c6d52bd6a3355517f3e5fec24aa4dc4e5aee2e025e51e1392c72a2500577559fae9665c6d52bd6a3455517f3e5fec24aa4dc4e5aee2e025e51e1392c72a2500577559fae9665c6d52bd6a35556200060d6200148f565b600080825260036020808401918252600160408501818152600560608701908152608087019283526002909552600690925293517f8819ef417987f8ae7a81f42cdfb18815282fe989326fbff903d13cf0e03ace295590517f8819ef417987f8ae7a81f42cdfb18815282fe989326fbff903d13cf0e03ace2a55517f8819ef417987f8ae7a81f42cdfb18815282fe989326fbff903d13cf0e03ace2b55517f8819ef417987f8ae7a81f42cdfb18815282fe989326fbff903d13cf0e03ace2c55517f8819ef417987f8ae7a81f42cdfb18815282fe989326fbff903d13cf0e03ace2d55620006fa6200148f565b60028152600f6020808301918252600a604084019081526005606085019081526001608086019081526003600052600690935293517f75f96ab15d697e93042dc45b5c896c4b27e89bb6eaf39475c5c371cb2513f7d25591517f75f96ab15d697e93042dc45b5c896c4b27e89bb6eaf39475c5c371cb2513f7d35590517f75f96ab15d697e93042dc45b5c896c4b27e89bb6eaf39475c5c371cb2513f7d45590517f75f96ab15d697e93042dc45b5c896c4b27e89bb6eaf39475c5c371cb2513f7d555517f75f96ab15d697e93042dc45b5c896c4b27e89bb6eaf39475c5c371cb2513f7d655620007ea6200148f565b60028152600f6020808301918252600a604084019081526005606085019081526001608086019081526004600052600690935293517fc5069e24aaadb2addc3e52e868fcf3f4f8acf5a87e24300992fd4540c2a87eed5591517fc5069e24aaadb2addc3e52e868fcf3f4f8acf5a87e24300992fd4540c2a87eee5590517fc5069e24aaadb2addc3e52e868fcf3f4f8acf5a87e24300992fd4540c2a87eef5590517fc5069e24aaadb2addc3e52e868fcf3f4f8acf5a87e24300992fd4540c2a87ef055517fc5069e24aaadb2addc3e52e868fcf3f4f8acf5a87e24300992fd4540c2a87ef155620008da6200148f565b60028152600f6020808301918252600a60408401908152600560608501818152600160808701908152600092909252600690935293517fbfd358e93f18da3ed276c3afdbdba00b8f0b6008a03476a6a86bd6320ee6938b5591517fbfd358e93f18da3ed276c3afdbdba00b8f0b6008a03476a6a86bd6320ee6938c5590517fbfd358e93f18da3ed276c3afdbdba00b8f0b6008a03476a6a86bd6320ee6938d55517fbfd358e93f18da3ed276c3afdbdba00b8f0b6008a03476a6a86bd6320ee6938e55517fbfd358e93f18da3ed276c3afdbdba00b8f0b6008a03476a6a86bd6320ee6938f55620009ca6200148f565b60028152604b602080830191825260646040840181815260fa60608601908152608086019283526006600081905290935293517f697b2bd7bb2984c4e0dc14c79c987d37818484a62958b9c45a0e8b962f20650f5591517f697b2bd7bb2984c4e0dc14c79c987d37818484a62958b9c45a0e8b962f2065105591517f697b2bd7bb2984c4e0dc14c79c987d37818484a62958b9c45a0e8b962f2065115590517f697b2bd7bb2984c4e0dc14c79c987d37818484a62958b9c45a0e8b962f20651255517f697b2bd7bb2984c4e0dc14c79c987d37818484a62958b9c45a0e8b962f2065135562000ab86200148f565b60028152604b602080830191825260646040840181815260fa60608601908152608086019283526007600052600690935293517f4ced6d0d36392b04cc5d8761b1327b3bbba6e1089c77f60a9a9ca18e05e4f00e5591517f4ced6d0d36392b04cc5d8761b1327b3bbba6e1089c77f60a9a9ca18e05e4f00f5591517f4ced6d0d36392b04cc5d8761b1327b3bbba6e1089c77f60a9a9ca18e05e4f0105590517f4ced6d0d36392b04cc5d8761b1327b3bbba6e1089c77f60a9a9ca18e05e4f01155517f4ced6d0d36392b04cc5d8761b1327b3bbba6e1089c77f60a9a9ca18e05e4f0125562000ba66200148f565b60028152604b602080830191825260646040840181815260fa60608601908152608086019283526008600052600690935293517fb8d683c9d414f481826f3e7fe14b3ac6ae8c73450778287390c4bb8cb9f2e80b5591517fb8d683c9d414f481826f3e7fe14b3ac6ae8c73450778287390c4bb8cb9f2e80c5591517fb8d683c9d414f481826f3e7fe14b3ac6ae8c73450778287390c4bb8cb9f2e80d5590517fb8d683c9d414f481826f3e7fe14b3ac6ae8c73450778287390c4bb8cb9f2e80e55517fb8d683c9d414f481826f3e7fe14b3ac6ae8c73450778287390c4bb8cb9f2e80f5562000c946200148f565b60028152604b602080830191825260646040840181815260fa60608601908152608086019283526009600052600690935293517fca4d0c6c94a9477136dd41a99cc19ecbe441c8f6609efe7c6fa65be007a473235591517fca4d0c6c94a9477136dd41a99cc19ecbe441c8f6609efe7c6fa65be007a473245591517fca4d0c6c94a9477136dd41a99cc19ecbe441c8f6609efe7c6fa65be007a473255590517fca4d0c6c94a9477136dd41a99cc19ecbe441c8f6609efe7c6fa65be007a4732655517fca4d0c6c94a9477136dd41a99cc19ecbe441c8f6609efe7c6fa65be007a473275562000d826200148f565b60028152604b602080830191825260646040840181815260fa6060860190815260808601928352600a600052600690935293517f4da38fc8e544afc56a4c2a17752b8ddb67d8e23ac4583c9029d2e2d1dbe6c9885591517f4da38fc8e544afc56a4c2a17752b8ddb67d8e23ac4583c9029d2e2d1dbe6c9895591517f4da38fc8e544afc56a4c2a17752b8ddb67d8e23ac4583c9029d2e2d1dbe6c98a5590517f4da38fc8e544afc56a4c2a17752b8ddb67d8e23ac4583c9029d2e2d1dbe6c98b55517f4da38fc8e544afc56a4c2a17752b8ddb67d8e23ac4583c9029d2e2d1dbe6c98c5562000e706200148f565b60028152604b602080830191825260646040840181815260fa6060860190815260808601928352600b600052600690935293517f85291c2e7881182c13e19eca9b58927ebfdc2c5d04882018eeb33d8241d357115591517f85291c2e7881182c13e19eca9b58927ebfdc2c5d04882018eeb33d8241d357125591517f85291c2e7881182c13e19eca9b58927ebfdc2c5d04882018eeb33d8241d357135590517f85291c2e7881182c13e19eca9b58927ebfdc2c5d04882018eeb33d8241d3571455517f85291c2e7881182c13e19eca9b58927ebfdc2c5d04882018eeb33d8241d357155562000f5e6200148f565b60028152604b602080830191825260646040840181815260fa6060860190815260808601928352600c600052600690935293517f0b94fa1b86997cc1f1148bfbe25b674e8cefc7cc6f976aa8d7c7966bd4cca3475591517f0b94fa1b86997cc1f1148bfbe25b674e8cefc7cc6f976aa8d7c7966bd4cca3485591517f0b94fa1b86997cc1f1148bfbe25b674e8cefc7cc6f976aa8d7c7966bd4cca3495590517f0b94fa1b86997cc1f1148bfbe25b674e8cefc7cc6f976aa8d7c7966bd4cca34a55517f0b94fa1b86997cc1f1148bfbe25b674e8cefc7cc6f976aa8d7c7966bd4cca34b556200104c6200148f565b60028152604b602080830191825260646040840181815260fa6060860190815260808601928352600d600052600690935293517f248457bacb20e239ae314d8db91c0f270e453c28ee138c84f97aea6cfcf9a4995591517f248457bacb20e239ae314d8db91c0f270e453c28ee138c84f97aea6cfcf9a49a5591517f248457bacb20e239ae314d8db91c0f270e453c28ee138c84f97aea6cfcf9a49b5590517f248457bacb20e239ae314d8db91c0f270e453c28ee138c84f97aea6cfcf9a49c55517f248457bacb20e239ae314d8db91c0f270e453c28ee138c84f97aea6cfcf9a49d556200113a6200148f565b60028152604b602080830191825260646040840181815260fa6060860190815260808601928352600e600052600690935293517faca6cdb4b5fe0ec50731a73f714dd191dc1911bfeb3f9eeb9e94ed0f6065ef8d5591517faca6cdb4b5fe0ec50731a73f714dd191dc1911bfeb3f9eeb9e94ed0f6065ef8e5591517faca6cdb4b5fe0ec50731a73f714dd191dc1911bfeb3f9eeb9e94ed0f6065ef8f5590517faca6cdb4b5fe0ec50731a73f714dd191dc1911bfeb3f9eeb9e94ed0f6065ef9055517faca6cdb4b5fe0ec50731a73f714dd191dc1911bfeb3f9eeb9e94ed0f6065ef9155620012286200148f565b60028152604b602080830191825260646040840181815260fa6060860190815260808601928352600f600052600690935293517ff130046d53bc87538ab17e4752ba5f5082985eecc06ccb932c5a55e8242dd5025591517ff130046d53bc87538ab17e4752ba5f5082985eecc06ccb932c5a55e8242dd5035591517ff130046d53bc87538ab17e4752ba5f5082985eecc06ccb932c5a55e8242dd5045590517ff130046d53bc87538ab17e4752ba5f5082985eecc06ccb932c5a55e8242dd50555517ff130046d53bc87538ab17e4752ba5f5082985eecc06ccb932c5a55e8242dd50655620013416200131a620014af565b60128152600a6020820152602d604082015260036000526005602052604060002062001537565b620013766200134f620014af565b60128152600a6020820152605a604082015260056000526005602052604060002062001537565b620013ac62001384620014af565b60098152600a602082015261270f604082015260076000526005602052604060002062001537565b600360205260327fc3a24b0501bd2c13a7e57f2db4369ec4c223447539fc0724a9d55ac4a06ebd4d5560046000526101f47f83ec6a1f0257b830b5e016457c9cf1435391bf56cc98f369a58a54fe9377246555604051612ba690816200159a8239f35b60405162461bcd60e51b815260206004820152601360248201527f6f776e2e696e76616c69642e68657862617365000000000000000000000000006044820152606490fd5b600080fd5b634e487b7160e01b600052604160045260246000fd5b60408051919082016001600160401b038111838210176200145957604052565b6040519060a082016001600160401b038111838210176200145957604052565b60405190606082016001600160401b038111838210176200145957604052565b6040519060e082016001600160401b0381118382101762001459576040528160c06000918281528260208201528260408201528260608201528260808201528260a08201520152565b62001522620014af565b90600082526000602083015260006040830152565b90604060029180518455602081015160018501550151910155565b60405190608082016001600160401b03811183821017620014595760405260006060838281528260208201528260408201520152565b90602060019180518455015191015556fe60806040526004361015610018575b361561001657005b005b60003560e01c80630609a0e31461041857806307175c831461041357806309307c621461040e5780630b225f1a146104095780630ea0d2221461040457806312065fe0146103ff57806314be92a5146103fa57806315a544ed146103f55780631605aed9146103f057806316f0115b146103eb578063192b48ee146103e65780631ef6a864146103e15780631f185d16146103dc57806326c5adae146103d7578063298fc460146103d25780633688236d146103cd5780633b9b7955146103c85780634151331d146103c3578063438fe192146103be57806343c06bc4146103b957806344ec16bc146103b45780634b62954f146103af5780634dd4396c146103aa57806353423e86146103a5578063541d7667146103a0578063545416831461039b5780635640dbfc14610396578063582003d114610391578063592a02a81461038c5780635962205f146103875780635a0e90381461038257806363b2b4741461037d5780636b81c82f146103785780636c7deb5d146103735780636f092c5e1461036e5780637687e3711461036957806378ef376f146103645780637bc908c61461035f5780638da5cb5b1461035a5780638e3719e71461035557806391fc8aa8146103505780639319d0b51461034b578063991bf5cc146103465780639d80ab9b146103415780639eb8b44e1461033c578063a19841dd14610337578063a1f7f53914610332578063a88fcea61461032d578063aebcd32a14610328578063af0b21d314610323578063af4845261461031e578063b49c064c14610319578063b85f1f8d14610314578063b90306ad1461030f578063bcf71cd81461030a578063c54e44b014610305578063c5a136d414610300578063e01ad5fd146102fb578063e0a9bc2b146102f6578063eddd0d9c146102f1578063f2a6bbc7146102ec578063f4fe8e3c146102e7578063fc0e74d1146102e25763fdc10bc90361000e5761201a565b611ff7565b611f4d565b611ea6565b611dff565b611de4565b611d45565b611c57565b611bbb565b611b0e565b611a5b565b611a31565b611a0e565b6119dd565b6119bf565b611987565b611969565b6118c2565b611894565b6116d1565b61165e565b61154a565b6114a3565b611485565b611467565b61143e565b611420565b611379565b6112b5565b611289565b6111e2565b611108565b6110cc565b6110a2565b61104a565b610f94565b610f6d565b610f00565b610ee2565b610e63565b610e45565b610e0d565b610d4f565b610ca8565b610bfb565b610bdd565b610ba1565b610b62565b610b31565b610a6d565b610990565b61089f565b6107db565b610734565b6106e3565b6106c5565b6106a7565b610600565b6105e4565b6105c6565b6105a8565b6104fb565b6104de565b346104d95760203660031901126104d957610439610434612215565b612692565b6104423361233d565b801561045d575b610452906126d3565b610016600435601755565b50600054604051630536340960e21b8152906001600160a01b03906020908390600490829085165afa9081156104d457610452926000926104a4575b501633149050610449565b6104c691925060203d81116104cd575b6104be8183612134565b810190612157565b9038610499565b503d6104b4565b61216f565b600080fd5b346104d95760003660031901126104d95760208054604051908152f35b346104d95760403660031901126104d957610517610434612215565b6105203361233d565b8015610541575b610530906126d3565b610016602435600435602355602455565b50600054604051630536340960e21b8152906001600160a01b03906020908390600490829085165afa9081156104d45761053092600092610588575b501633149050610527565b6105a191925060203d81116104cd576104be8183612134565b903861057d565b346104d95760003660031901126104d9576020602e54604051908152f35b346104d95760003660031901126104d9576020601e54604051908152f35b346104d95760003660031901126104d957602047604051908152f35b346104d95760203660031901126104d95761061c610434612215565b6106253361233d565b8015610640575b610635906126d3565b610016600435601e55565b50600054604051630536340960e21b8152906001600160a01b03906020908390600490829085165afa9081156104d45761063592600092610687575b50163314905061062c565b6106a091925060203d81116104cd576104be8183612134565b903861067c565b346104d95760003660031901126104d9576020602454604051908152f35b346104d95760003660031901126104d9576020602354604051908152f35b346104d95760003660031901126104d95760e0600754600854600954600a54600b5490600c5492600d5494604051968752602087015260408601526060850152608084015260a083015260c0820152f35b346104d95760203660031901126104d957610750610434612215565b6107593361233d565b8015610774575b610769906126d3565b610016600435612763565b50600054604051630536340960e21b8152906001600160a01b03906020908390600490829085165afa9081156104d457610769926000926107bb575b501633149050610760565b6107d491925060203d81116104cd576104be8183612134565b90386107b0565b346104d95760a03660031901126104d9576107f7610434612215565b6108003361233d565b8015610827575b610810906126d3565b610016608435606435604435602435600435612a24565b50600054604051630536340960e21b8152906001600160a01b03906020908390600490829085165afa9081156104d4576108109260009261086e575b501633149050610807565b61088791925060203d81116104cd576104be8183612134565b9038610863565b6001600160a01b038116036104d957565b346104d9576020806003193601126104d9576004908135906108c08261088e565b60005481906001600160a01b0316604051634bf9c0ad60e11b815294859182905afa9182156104d45761091361094d9361092f9261095f9660009261096d575b5061092190604051938491878301610b4f565b03601f198101845283612134565b6109296123d7565b9061257e565b919080610963575b61094090612404565b8082518301019101612200565b60405190151581529081906020820190565b0390f35b5081518114610937565b61092191925061098990863d88116104cd576104be8183612134565b9190610900565b346104d95760203660031901126104d9576000546040516369e8d84b60e11b815290602090829060049082906001600160a01b03165afa80156104d4576109f191600091610a45575b506109e2612a99565b906109eb612ab1565b90612654565b60205490670de0b6b3a764000091828102928184041490151715610a405761095f91610a2b610a3092610a2660043593612733565b612adf565b612750565b6040519081529081906020820190565b61271d565b610a5d915060203d81116104cd576104be8183612134565b386109d9565b801515036104d957565b346104d95760203660031901126104d957600435610a8a81610a63565b610a95610434612215565b610a9e3361233d565b8015610ac4575b90610ab2610016926126d3565b60ff8019602f54169115151617602f55565b50600054604051630536340960e21b81526001600160a01b0392916020908290600490829087165afa80156104d45761001693610ab292600092610b11575b503391161491925050610aa5565b610b2a91925060203d81116104cd576104be8183612134565b9038610b03565b346104d95760003660031901126104d9576020601d54604051908152f35b6001600160a01b03909116815260200190565b346104d95760003660031901126104d9576000546040516001600160a01b039091168152602090f35b6040919493926060820195825260208201520152565b346104d95760203660031901126104d95760043560005260056020526040600020805461095f6002600184015493015460405193849384610b8b565b346104d95760003660031901126104d9576020601b54604051908152f35b346104d95760603660031901126104d957610c17610434612215565b610c203361233d565b8015610c41575b610c30906126d3565b61001660443560243560043561287c565b50600054604051630536340960e21b8152906001600160a01b03906020908390600490829085165afa9081156104d457610c3092600092610c88575b501633149050610c27565b610ca191925060203d81116104cd576104be8183612134565b9038610c7d565b346104d95760203660031901126104d957610cc4610434612215565b610ccd3361233d565b8015610ce8575b610cdd906126d3565b610016600435601a55565b50600054604051630536340960e21b8152906001600160a01b03906020908390600490829085165afa9081156104d457610cdd92600092610d2f575b501633149050610cd4565b610d4891925060203d81116104cd576104be8183612134565b9038610d24565b346104d95760403660031901126104d957610d6b610434612215565b610d743361233d565b8015610d95575b610d84906126d3565b610016602435600435601c55601d55565b50600054604051630536340960e21b8152906001600160a01b03906020908390600490829085165afa9081156104d457610d8492600092610ddc575b501633149050610d7b565b610df591925060203d81116104cd576104be8183612134565b9038610dd1565b908152602081019190915260400190565b346104d95760203660031901126104d95760043560005260226020526040600020600181549101549061095f60405192839283610dfc565b346104d95760003660031901126104d9576020601f54604051908152f35b346104d95760203660031901126104d9576000546040516369e8d84b60e11b815290602090829060049082906001600160a01b03165afa80156104d457610ebb610a309161095f93600091610a4557506109e2612a99565b610a26610edd610ed76004356000526003602052604060002090565b54612aff565b612733565b346104d95760003660031901126104d9576020601a54604051908152f35b346104d95760003660031901126104d95760e060145460155460405191825260ff9081811615156020840152818160081c1615156040840152818160101c1615156060840152818160181c1615156080840152818160201c16151560a084015260281c16151560c0820152f35b346104d95760003660031901126104d9576018546019549061095f60405192839283610dfc565b346104d95760c03660031901126104d957610fb0610434612215565b610fb93361233d565b8015610fe3575b610fc9906126d3565b61001660a435608435606435604435602435600435612782565b50600054604051630536340960e21b8152906001600160a01b03906020908390600490829085165afa9081156104d457610fc99260009261102a575b501633149050610fc0565b61104391925060203d81116104cd576104be8183612134565b903861101f565b346104d95760203660031901126104d957600435600052600660205260a06040600020805490600181015490600281015460046003830154920154926040519485526020850152604084015260608301526080820152f35b346104d95760003660031901126104d957600e54600f549061095f60105460405193849384610b8b565b346104d95760003660031901126104d9576020601854604051908152f35b60809060031901126104d95760043590602435906044359060643590565b346104d957611116366110ea565b92611125610434939293612215565b61112e3361233d565b8015611176575b906111416002926126d3565b6111496129dd565b5060018114611165575b1461115a57005b601155601255601355005b82600e5583600f5584601055611153565b50600054604051630536340960e21b81526001600160a01b0392916020908290600490829087165afa80156104d457600293611141926000926111c2575b503391161491925050611135565b6111db91925060203d81116104cd576104be8183612134565b90386111b4565b346104d95760203660031901126104d9576111fe610434612215565b6112073361233d565b8015611222575b611217906126d3565b610016600435601f55565b50600054604051630536340960e21b8152906001600160a01b03906020908390600490829085165afa9081156104d45761121792600092611269575b50163314905061120e565b61128291925060203d81116104cd576104be8183612134565b903861125e565b346104d95760203660031901126104d95760043560005260036020526020604060002054604051908152f35b346104d95760203660031901126104d9576004356112d281610a63565b6112dd610434612215565b6112e63361233d565b801561130c575b906112fa610016926126d3565b60ff8019601654169115151617601655565b50600054604051630536340960e21b81526001600160a01b0392916020908290600490829087165afa80156104d457610016936112fa92600092611359575b5033911614919250506112ed565b61137291925060203d81116104cd576104be8183612134565b903861134b565b346104d95760203660031901126104d957611395610434612215565b61139e3361233d565b80156113b9575b6113ae906126d3565b610016600435602555565b50600054604051630536340960e21b8152906001600160a01b03906020908390600490829085165afa9081156104d4576113ae92600092611400575b5016331490506113a5565b61141991925060203d81116104cd576104be8183612134565b90386113f5565b346104d95760003660031901126104d9576020602554604051908152f35b346104d95760003660031901126104d9576001546040516001600160a01b039091168152602090f35b346104d95760003660031901126104d9576020601954604051908152f35b346104d95760003660031901126104d9576020602154604051908152f35b346104d95760203660031901126104d9576114bf610434612215565b6114c83361233d565b80156114e3575b6114d8906126d3565b610016600435601b55565b50600054604051630536340960e21b8152906001600160a01b03906020908390600490829085165afa9081156104d4576114d89260009261152a575b5016331490506114cf565b61154391925060203d81116104cd576104be8183612134565b903861151f565b346104d95760e03660031901126104d95760243561156781610a63565b60443561157381610a63565b60643561157f81610a63565b60843561158b81610a63565b60a4359161159883610a63565b60c435936115a585610a63565b6115b0610434612215565b6115b93361233d565b80156115d5575b956115cd610016976126d3565b6004356128ca565b50600054604051630536340960e21b81526001600160a01b039791602090829060049082908c165afa80156104d457610016986115cd92600092611622575b5033911614919750506115c0565b61163b91925060203d81116104cd576104be8183612134565b9038611614565b9094939260609260808301968352602083015260408201520152565b346104d95760003660031901126104d9576026546027549061095f6028546029549060405194859485611642565b6102a0810192916000915b600783106116a457505050565b60019060608351918251815260209283810151848301526040809101519082015201920192019190611697565b346104d95760003660031901126104d9576040516116ee816120c3565b60005b60e0811061187f5761095f61170461217b565b6001600052600560205261173c7f1471eb6eb2c5e789fc3de43f8ce62938c7d1836ec861730447e2ada8fd81017b6129fc565b6129fc565b8152600260005260056020526117717f89832631fb3c3307a103ba2c84ab569c64d6182a18893dcd163f0f1c2090733a6129fc565b602082015261178e61173760036000526005602052604060002090565b6040820152600460005260056020526117c67f3eec716f11ba9e820c81ca75eb978ffb45831ef8b7a53e5e422c26008e1ca6d56129fc565b6060820152600560008190526020526117fe7f458b30c2d72bfd2c6317304a4594ecbafe5f729d3111b65fdc3a33bd48e5432d6129fc565b6080820152600660005260056020526118367f069400f22b28c6c362558d92f66163cec5671cba50b61abd2eecfcd0eaeac5186129fc565b60a08201526007600052600560205261186e7feddb6698d7c569ff62ff64f1f1492bf14a54594835ba0faac91f84b4f5d814606129fc565b60c08201526040519182918261168c565b60209061188a6129dd565b81840152016116f1565b346104d95760003660031901126104d957602a54602b549061095f602c54602d549060405194859485611642565b346104d95760003660031901126104d95760005460405163d1f956b160e01b815290602090829060049082906001600160a01b03165afa9081156104d45761095f91610a309160009161194b575b5060405161191d816120fe565b601381527267657464656c656761746f72436f756e74282960681b60208201526119456121a5565b91612654565b611963915060203d81116104cd576104be8183612134565b38611910565b346104d95760003660031901126104d9576020601c54604051908152f35b346104d95760203660031901126104d95760043560005260046020526040600020600181549101549061095f60405192839283610dfc565b346104d95760003660031901126104d9576020601754604051908152f35b346104d95760203660031901126104d9576020611a046004356119ff8161088e565b61233d565b6040519015158152f35b346104d95760003660031901126104d957602060ff602f54166040519015158152f35b346104d95760003660031901126104d9576011546012549061095f60135460405193849384610b8b565b346104d95760203660031901126104d957600054604051630536340960e21b8152906001600160a01b03906020908390600490829085165afa9182156104d457600092611aee575b5033911603611ab7576100166004356124ad565b60405162461bcd60e51b815260206004820152600f60248201526e6f776e2e6e6f6e617574682e44414f60881b6044820152606490fd5b611b0791925060203d81116104cd576104be8183612134565b9038611aa3565b346104d95760403660031901126104d957611b2a610434612215565b611b333361233d565b8015611b54575b611b43906126d3565b610016602435600435601855601955565b50600054604051630536340960e21b8152906001600160a01b03906020908390600490829085165afa9081156104d457611b4392600092611b9b575b501633149050611b3a565b611bb491925060203d81116104cd576104be8183612134565b9038611b90565b346104d95760203660031901126104d957600435611bd88161088e565b803b6000611be58261218a565b92611bf36040519485612134565b82845260208401903c602d815110611c1c57602a61095f91015160601c60405191829182610b4f565b60405162461bcd60e51b81526020600482015260136024820152724e6f742061206d696e696d616c2070726f787960681b6044820152606490fd5b346104d957611c65366110ea565b90611c74610434949394612215565b611c7d3361233d565b8015611cd9575b92611c906002946126d3565b611c9c60088210612841565b60405194611ca9866120e3565b85526020850191825260408501928352600052600560205260406000209351845551600184015551910155600080f35b50600054604051630536340960e21b81526001600160a01b0394916020908290600490829089165afa80156104d457600295611c9092600092611d25575b503391161491945050611c84565b611d3e91925060203d81116104cd576104be8183612134565b9038611d17565b346104d9576020806003193601126104d95760048035611d648161088e565b60005460405163d1f956b160e01b81526001600160a01b03949093909182918591829088165afa9081156104d45761095f9461094d94600093611dc5575b506040519316818401528252611db7826120fe565b611dbf612449565b90612618565b611ddd919350823d84116104cd576104be8183612134565b9138611da2565b346104d95760003660031901126104d9576020611a04612215565b346104d95760203660031901126104d957611e1b610434612215565b611e243361233d565b8015611e3f575b611e34906126d3565b610016600435602055565b50600054604051630536340960e21b8152906001600160a01b03906020908390600490829085165afa9081156104d457611e3492600092611e86575b501633149050611e2b565b611e9f91925060203d81116104cd576104be8183612134565b9038611e7b565b346104d95760203660031901126104d957611ec2610434612215565b611ecb3361233d565b8015611ee6575b611edb906126d3565b610016600435602e55565b50600054604051630536340960e21b8152906001600160a01b03906020908390600490829085165afa9081156104d457611edb92600092611f2d575b501633149050611ed2565b611f4691925060203d81116104cd576104be8183612134565b9038611f22565b346104d95760403660031901126104d957611f69610434612215565b611f723361233d565b8015611f90575b611f82906126d3565b6100166024356004356129c1565b50600054604051630536340960e21b8152906001600160a01b03906020908390600490829085165afa9081156104d457611f8292600092611fd7575b501633149050611f79565b611ff091925060203d81116104cd576104be8183612134565b9038611fcc565b346104d95760003660031901126104d957602060ff601654166040519015158152f35b346104d95760003660031901126104d95760005460405163111ea8c160e21b815290602090829060049082906001600160a01b03165afa9081156104d45761095f91610a309160009161208f575b50604051612075816120fe565b6005815264616765282960d81b60208201526119456121a5565b6120a7915060203d81116104cd576104be8183612134565b38612068565b634e487b7160e01b600052604160045260246000fd5b60e081019081106001600160401b038211176120de57604052565b6120ad565b606081019081106001600160401b038211176120de57604052565b604081019081106001600160401b038211176120de57604052565b602081019081106001600160401b038211176120de57604052565b601f909101601f19168101906001600160401b038211908210176120de57604052565b908160209103126104d9575161216c8161088e565b90565b6040513d6000823e3d90fd5b60405190612188826120c3565b565b6001600160401b0381116120de57601f01601f191660200190565b604051906121b282612119565b60008252565b156121bf57565b60405162461bcd60e51b81526020600482015260196024820152781bdddb8b9cd8599959dd585c990b98d85b1b0b99985a5b1959603a1b6044820152606490fd5b908160209103126104d9575161216c81610a63565b600054604051634bf9c0ad60e11b8152906020908190839060049082906001600160a01b03165afa9182156104d45761216c9261228b916000916122a6575b50604051612261816120fe565b6008815267697353616665282960c01b848201526040519161228283612119565b6000835261257e565b91908061229c575b610940906121b8565b5081518114612293565b6122bd9150833d85116104cd576104be8183612134565b38612254565b604051906122d0826120fe565b601582527469735365637572654261736528616464726573732960581b6020830152565b156122fb57565b60405162461bcd60e51b815260206004820152601a6024820152791bdddb8b9cd958dd5c9958985cd94b98d85b1b0b99985a5b195960321b6044820152606490fd5b6000546001600160a01b0316604051918291634bf9c0ad60e11b835282600460209485935afa9283156104d45761216c9361239992610913926000926123b4575b5061239190604051938491878301610b4f565b6109296122c3565b9190806123aa575b610940906122f4565b50815181146123a1565b6123919192506123d090863d88116104cd576104be8183612134565b919061237e565b604051906123e4826120fe565b601182527069735369676e657228616464726573732960781b6020830152565b1561240b57565b60405162461bcd60e51b81526020600482015260166024820152751bdddb8b9cda59db995c8b98d85b1b0b99985a5b195960521b6044820152606490fd5b60405190612456826120fe565b6018825277697364656c656761746f724e6f646528616464726573732960401b6020830152565b3d156124a8573d9061248e8261218a565b9161249c6040519384612134565b82523d6000602084013e565b606090565b600080546040516311be646b60e21b815290602090829060049082906001600160a01b03165afa9081156104d4578284819382938391612560575b505af16124f361247d565b50156125295760405190815233907fcdcc745fe377b103b45fa0cec23ae3ef93d6fc6a84a01f0d18c40b354dd1d5d890602090a2565b60405162461bcd60e51b815260206004820152600f60248201526e1bdddb8b989d5c9b8b99985a5b1959608a1b6044820152606490fd5b612578915060203d81116104cd576104be8183612134565b386124e8565b9190823b156125ff578051906020918263ffffffff60e01b92012016916040519180830193845281519160005b8381106125eb5750505091816125d860248260009795968897018783820152036004810184520182612134565b5191620dbba0fa6125e761247d565b9091565b8181018301518582016024015282016125ab565b50505060009060405161261181612119565b6000815290565b92916126269160009461257e565b9080612649575b6126345750565b61216c91925060208082518301019101612200565b50602081511461262d565b92916126629160009461257e565b9080612687575b6126705750565b9091506020818051810103126104d9576020015190565b506020815114612669565b1561269957565b60405162461bcd60e51b81526020600482015260126024820152716f776e2e696e76616c69642e69735361666560701b6044820152606490fd5b156126da57565b60405162461bcd60e51b815260206004820152601b60248201527a6f776e2e6e6f6e617574682e44414f6f725365637572656261736560281b6044820152606490fd5b634e487b7160e01b600052601160045260246000fd5b90670de0b6b3a764000091828102928184041490151715610a4057565b81810292918115918404141715610a4057565b670de0b6b3a764000090818102918183041490151715610a4057602155565b919293949094601083101561280c576040519460a08601946001600160401b038611878710176120de57612188976127dd96604052875260208701526040860152606085015260808401526000526006602052604060002090565b906080600491805184556020810151600185015560408101516002850155606081015160038501550151910155565b60405162461bcd60e51b815260206004820152600d60248201526c1a5b9d985b1a59081b195d995b609a1b6044820152606490fd5b1561284857565b60405162461bcd60e51b815260206004820152600c60248201526b696e76616c69642072616e6b60a01b6044820152606490fd5b9161288960088410612841565b6040805193908401926001600160401b038411858510176120de57600193604052845260208401918252600052600460205260406000209251835551910155565b6129a294612188979461293b612983956129669460c09a96604051906128ef826120c3565b8282521515928360208301521515948560408301521515958660608301521515978860808301521515998a60a083015215159b8c91015260145560ff8019601554169115151617601555565b6015805462ffff00191660089290921b61ff00169190911791151560101b62ff000016919091179055565b63ff00000060155491151560181b169063ff000000191617601555565b6015805460ff60201b191691151560201b60ff60201b16919091179055565b6015805460ff60281b191691151560281b60ff60281b16919091179055565b6129cd60088210612841565b6000526003602052604060002055565b604051906129ea826120e3565b60006040838281528260208201520152565b90604051612a09816120e3565b60406002829480548452600181015460208501520154910152565b6040516080810191906001600160401b038311818410176120de5760608791600294604052858152866020820152876040820152015260018114612a84575b14612a6f575b50505050565b602a55602b55602c55602d5538808080612a69565b82602655836027558460285585602955612a63565b604051612aa581612119565b60008152906000368137565b60405190612abe826120fe565b60128252716f7a6f6e655072696365496e55534454282960701b6020830152565b8115612ae9570490565b634e487b7160e01b600052601260045260246000fd5b8015612b6a578080600114612b6357600214610a40576001670de0b6b3a7640000815b808211612b3a57505081600019048111610a40570290565b909280600019048111610a4057818416612b5a575b800292811c90612b22565b80920291612b4f565b5050600190565b5060009056fea2646970667358221220c5d2c6908cd82638f54ee0df4db94c8f151208d88ce3738a02fb5de93c3b34cc64736f6c63430008140033","linkReferences":{}},"methodIdentifiers":{"rule741()":"0a5b38ab","transferRequest()":"3da8676f"},"id":34}