{"abi":[{"type":"constructor","inputs":[{"name":"_hex","type":"address","internalType":"address"}],"stateMutability":"nonpayable"},{"type":"function","name":"rule741","inputs":[],"outputs":[{"name":"","type":"address","internalType":"address"}],"stateMutability":"view"},{"type":"function","name":"transferRequest","inputs":[],"outputs":[{"name":"","type":"address","internalType":"address"}],"stateMutability":"view"}],"bytecode":{"object":"0x60803461012157601f61566338819003918201601f19168301926001600160401b039290918385118386101761010b57816020928492604097885283398101031261012157516001600160a01b0390818116908190036101215783519061344691828101928184108685111761010b5761221d823981835260208160009403019083f09384156101015782549484166001600160a01b031995861617835585519161203d80840192848410908411176100ed579183916020936101e08439815203019082f09081156100e25750169060015416176001555160b990816101278239f35b8451903d90823e3d90fd5b634e487b7160e01b85526041600452602485fd5b85513d84823e3d90fd5b634e487b7160e01b600052604160045260246000fd5b600080fdfe6080806040526004361015601257600080fd5b600090813560e01c9081630a5b38ab14605d5750633da8676f14603457600080fd5b34605a5780600319360112605a576001546040516001600160a01b039091168152602090f35b80fd5b905034607f5781600319360112607f5790546001600160a01b03168152602090f35b5080fdfea2646970667358221220ad57a1b6493710c10a372386fbb1ecac652dfab948a14a392f5a4cbd1662030164736f6c634300081400336080346100ca57601f61203d38819003918201601f19168301916001600160401b038311848410176100cf578084926020946040528339810103126100ca57516001600160a01b038116908190036100ca5780156100855760018060a01b03193381600154161760015560005416176000556001600355604051611f5790816100e68239f35b60405162461bcd60e51b815260206004820152601360248201527f6f776e2e696e76616c69642e68657862617365000000000000000000000000006044820152606490fd5b600080fd5b634e487b7160e01b600052604160045260246000fdfe60806040526004361015610018575b361561001657005b005b60003560e01c806312065fe01461019857806318c864e3146101935780631f185d161461018e5780633676bd1f146101895780633b9b795514610184578063479fa2c31461017f5780634ef260a91461017a5780638da5cb5b146101755780639fb3953b14610170578063a1f7f5391461016b578063ab7e46ae14610166578063ac23334514610161578063af4845261461015c578063b8f1759a14610157578063b90306ad14610152578063c1e6cec21461014d578063c54e44b014610148578063cab3cc8d14610143578063e01ad5fd1461013e578063e0a9bc2b14610139578063e846034a14610134578063e84adc131461012f578063e981bcad1461012a5763fdc10bc90361000e57610e5b565b610d9f565b610c14565b610bf6565b610b54565b610ab5565b610a97565b6109fb565b6109be565b6108f1565b6108a8565b610877565b61083e565b6107f5565b610723565b6105a8565b61057f565b6104bf565b610405565b6103dc565b61039e565b610296565b610229565b346101b45760003660031901126101b457602047604051908152f35b600080fd5b634e487b7160e01b600052603260045260246000fd5b6005548110156101ee57600560005260206000209060021b0190600090565b6101b9565b6001600160a01b031690565b6001600160a01b039182168152911660208201526040810191909152901515606082015260800190565b346101b45760203660031901126101b4576004356005548110156101b457610250906101cf565b5060018060a01b0361028181835416916001840154169260ff600360028301549201541690604051948594856101ff565b0390f35b6001600160a01b038116036101b457565b346101b4576020806003193601126101b4576004908135906102b782610285565b806102cb6102c66000546101f3565b6101f3565b604051634bf9c0ad60e11b815294859182905afa9182156103995761031061034a9361032c9261028196600092610366575b5061031e906040519384918783016103c9565b03601f198101845283610f8c565b610326611b09565b90611cdb565b91908061035c575b61033d90611b36565b80825183010191016119d8565b60405190151581529081906020820190565b5081518114610334565b61031e91925061038b90863d8811610392575b6103838183610f8c565b810190610ff5565b91906102fd565b503d610379565b61100d565b346101b45760203660031901126101b4576103b76118b2565b6103c26004356114cc565b6001600355005b6001600160a01b03909116815260200190565b346101b45760003660031901126101b4576000546040516001600160a01b039091168152602090f35b346101b45760203660031901126101b457600435801515806104b3575b1561047457610433610438916110f5565b6101cf565b5061044381546101f3565b61028161045360018401546101f3565b926104676003600283015492015460ff1690565b90604051948594856101ff565b60405162461bcd60e51b81526020600482015260176024820152761c1c9bdc1bdcd95c8b9a5b9d985b1a590b999bdc9b5a59604a1b6044820152606490fd5b50600554811115610422565b346101b45760203660031901126101b4576004356104dc81610285565b6001600160a01b039081166000818152600460205260408120549092919080151580610573575b61050b578380f35b600019810190811161056e57610520906101cf565b5050808352600460205260408320839055600654600160401b8110156105695780600161055092016006556107da565b909283549160031b92831b921b19161790553880808380f35b610eee565b6110df565b50600554811115610503565b346101b45760003660031901126101b4576001546040516001600160a01b039091168152602090f35b60803660031901126101b4576004356105c081610285565b6105c86118b2565b6105d66102c66000546101f3565b60405163ab6e844f60e01b815291906020908184600481845afa938415610399576000946106ff575b50816004916040519283809263de433f1760e01b82525afa9081156103995761065f9161063d916000916106e2575b506040519182918583016103c9565b0394610651601f1996878101845283610f8c565b61065961193a565b90611d59565b906001600160a01b038216610679575b6100166001600355565b604051636083c98560e11b918101919091526001600160a01b0390921660248084019190915235604480840191909152356064808401919091523560848301526106d8926106d3908360a481015b03908101845283610f8c565b611e46565b503880808061066f565b6106f99150843d8611610392576103838183610f8c565b3861062e565b600491945061071b8391823d8411610392576103838183610f8c565b9491506105ff565b346101b45760003660031901126101b45760005460405163d1f956b160e01b815290602090829060049082906001600160a01b03165afa90811561039957610281916107ac916000916107bc575b5060405161077e81610f56565b601381527267657464656c656761746f72436f756e74282960681b60208201526107a6610fca565b91611dd9565b6040519081529081906020820190565b6107d4915060203d8111610392576103838183610f8c565b38610771565b6006548110156101ee57600660005260206000200190600090565b346101b45760203660031901126101b4576004356006548110156101b4576006600052600080516020611f0283398151915201546040516001600160a01b039091168152602090f35b346101b45760203660031901126101b457602061086560043561086081610285565b611160565b6040516001600160a01b039091168152f35b346101b45760203660031901126101b457602061089e60043561089981610285565b611a66565b6040519015158152f35b346101b45760203660031901126101b4576004356006548110156101ee576006600052600080516020611f0283398151915201546040516001600160a01b039091168152602090f35b346101b45760203660031901126101b457600054604051630536340960e21b8152906001600160a01b03906020908390600490829085165afa91821561039957600092610984575b503391160361094d57610016600435611bdf565b60405162461bcd60e51b815260206004820152600f60248201526e6f776e2e6e6f6e617574682e44414f60881b6044820152606490fd5b61099d91925060203d8111610392576103838183610f8c565b9038610939565b6001600160a01b0316600090815260046020526040902090565b346101b45760203660031901126101b4576004356109db81610285565b60018060a01b031660005260046020526020604060002054604051908152f35b346101b45760203660031901126101b457600435610a1881610285565b803b6000610a2582610faf565b92610a336040519485610f8c565b82845260208401903c602d815110610a5c57602a61028191015160601c604051918291826103c9565b60405162461bcd60e51b81526020600482015260136024820152724e6f742061206d696e696d616c2070726f787960681b6044820152606490fd5b346101b45760003660031901126101b4576020600554604051908152f35b346101b4576020806003193601126101b45760048035610ad481610285565b60005460405163d1f956b160e01b81526001600160a01b03949093909182918591829088165afa908115610399576102819461034a94600093610b35575b506040519316818401528252610b2782610f56565b610b2f611b7b565b90611d9d565b610b4d919350823d8411610392576103838183610f8c565b9138610b12565b346101b45760003660031901126101b457600054604051634bf9c0ad60e11b8152906020908190839060049082906001600160a01b03165afa90811561039957610bbe61034a9261028194600091610bd9575b50610bb061196c565b610bb8610fca565b91611cdb565b919080610bcf575b61033d90611990565b5081518114610bc6565b610bf09150833d8511610392576103838183610f8c565b38610ba7565b346101b45760003660031901126101b4576020600654604051908152f35b346101b4576040806003193601126101b45760043590610c3382610285565b6001600160a01b03821615610d67576000913383526020916004835280842054610d2f57610c6a610c62610f04565b509283610f37565b60046001830193610c7b3386610f37565b610c83610fdd565b81610c916102c689546101f3565b8551630536340960e21b815294859182905afa92831561039957600294610cf294610ce593610310938b92610d0e575b506106d3919251938491630ffa734f60e41b8884015260243590306024850161103c565b80518101820191016110d0565b910155610d0a610d0560055492546101f3565b6109a4565b5580f35b6106d39250610d2990873d8911610392576103838183610f8c565b91610cc1565b5162461bcd60e51b815260048101839052601260248201527170726f706f7365722e746f2e65786973747360701b6044820152606490fd5b5162461bcd60e51b815260206004820152601260248201527137bbb7173232b330bab63a1739b2b73232b960711b6044820152606490fd5b346101b45760403660031901126101b457610db86118b2565b610dc9610dc430611a66565b6112b5565b60046020610ddb6102c66000546101f3565b60405163ab6e844f60e01b815292839182905afa801561039957610e3291600091610e3d575b506040516333b59a5b60e01b6020820152600435602480830191909152356044820152906106d38260648101610310565b506100166001600355565b610e55915060203d8111610392576103838183610f8c565b38610e01565b346101b45760003660031901126101b45760005460405163111ea8c160e21b815290602090829060049082906001600160a01b03165afa90811561039957610281916107ac91600091610ed0575b50604051610eb681610f56565b6005815264616765282960d81b60208201526107a6610fca565b610ee8915060203d8111610392576103838183610f8c565b38610ea9565b634e487b7160e01b600052604160045260246000fd5b600554600160401b8110156105695760018101806005558110156101ee57600560005260206000209060021b0190600090565b80546001600160a01b0319166001600160a01b03909216919091179055565b604081019081106001600160401b0382111761056957604052565b602081019081106001600160401b0382111761056957604052565b601f909101601f19168101906001600160401b0382119082101761056957604052565b6001600160401b03811161056957601f01601f191660200190565b60405190610fd782610f71565b60008252565b604051610fe981610f71565b60008152906000368137565b908160209103126101b4575161100a81610285565b90565b6040513d6000823e3d90fd5b60005b83811061102c5750506000910152565b818101518382015260200161101c565b60009260a09295949560c08352602660c08401527f547269676765722e496e7374616e63652e70726f706f73616c2e55736572547260e08401526530b739b332b960d11b610100840152600180851b03166020830152836040830152610120806060840152815180918401526110bc816101409360208587019101611019565b601f80199101168201019460808201520152565b908160209103126101b4575190565b634e487b7160e01b600052601160045260246000fd5b60001981019190821161056e57565b6040519061111182610f56565b60128252716765745374617475732875696e743235362960701b6020830152565b519081151582036101b457565b91908260409103126101b45761100a602061115984611132565b9301611132565b611169906109a4565b548015158061125e575b1561125857610433611184916110f5565b50600381015460ff1661124e5761119f6102c66000546101f3565b6040518091630536340960e21b825281600460209384935afa8015610399576103106111fb9161120894600091611231575b506111ed60028701546040519384918783019190602083019252565b6111f5611104565b90611cb0565b805181018201910161113f565b81929192611229575b50600091156112255761100a9150546101f3565b5090565b915038611211565b6112489150843d8611610392576103838183610f8c565b386111d1565b61100a90546101f3565b50600090565b50600554811115611173565b1561127157565b60405162461bcd60e51b815260206004820152601c60248201527b1d5d1a5b1a5d1e4b98985d18da0b9b1a5b5a5d0b995e18d95959195960221b6044820152606490fd5b156112bc57565b60405162461bcd60e51b81526020600482015260176024820152761d5d1a5b1a5d1e4b9d5b9cd958dd5c994b99985a5b1959604a1b6044820152606490fd5b6040519061130882610f56565b600f82526e6765744e6f646573436f756e74282960881b6020830152565b1561132d57565b60405162461bcd60e51b81526020600482015260136024820152727574696c6974792e696d706f72742e646f6e6560681b6044820152606490fd5b9190820180921161056e57565b600019811461056e5760010190565b6040519061139182610f56565b60178252766765744e6f64654279496e6465782875696e743235362960481b6020830152565b156113be57565b60405162461bcd60e51b815260206004820152601660248201527570726f78792e696e76616c69642e696e7374616e636560501b6044820152606490fd5b6040519061140982610f56565b6013825272496e7374546f5573657228616464726573732960681b6020830152565b1561143257565b60405162461bcd60e51b815260206004820152601260248201527170726f78792e696e76616c69642e6e6f646560701b6044820152606490fd5b6040519061147982610f56565b601082526f6765744e6f646528616464726573732960801b6020830152565b908160a09103126101b45780519160208201516114b481610285565b9160408101519161100a608061115960608501611132565b6114d9606482111561126a565b6114e5610dc430611a66565b6000906114f56102c683546101f3565b6040805163111ea8c160e21b808252600495939092916020919082818981855afa80156103995761153f91879161189b575b50611530610fdd565b906115396112fb565b90611dd9565b95861561189157835183818a8163ab6e844f60e01b968782525afa9081156103995761158a916115789189916118745750611530610fdd565b91611584838a11611326565b82611368565b9680881161186c575b505b8681106115a6575050505050505050565b6115b36102c687546101f3565b90845186815284818b81865afa928315610399578a91899461184d575b506116048751806115e8868a83019190602083019252565b03956115fc601f1997888101845283610f8c565b610659611384565b6001600160a01b039061161a81831615156113b7565b87895180958c825281865afa93841561039957818a8f968b8f946116669592611828575b5061165261165e92935194859283016103c9565b038a8101845283610f8c565b6106596113fc565b92611674838516151561142b565b888a5180968d825281845afa8015610399576116d68f966116b48f6001948f91978f98946116c89592611807575b506116c09192519384918a83016103c9565b038d8101845283610f8c565b6111f561146c565b848082518301019101611498565b50505094909416936116e981151561142b565b1480156117fe575b611793575b505061170282806118d5565b866117106102c68c546101f3565b8951948580928a82525afa80156103995761176d95611767948c92611772575b5089516350db85d160e01b8a8201526001600160a01b039384166024820152939092166044840152906106d39083606481016106c7565b50611375565b611595565b6106d3925061178d908a3d8c11610392576103838183610f8c565b91611730565b8951948580928d82525afa928315610399578c936117d4926117c8928d926117db575b5061165e908b519384918c83016103c9565b03888101845283610f8c565b86386116f6565b61165e9192506117f7908b3d8d11610392576103838183610f8c565b91906117b6565b508215156116f1565b6116c09250611822908a3d8c11610392576103838183610f8c565b916116a2565b61165e925061184661165291833d8511610392576103838183610f8c565b925061163e565b611865919450863d8811610392576103838183610f8c565b92386115d0565b965038611593565b61188b9150863d8811610392576103838183610f8c565b38611527565b5050505050505050565b61188b9150843d8611610392576103838183610f8c565b6002600354146118c3576002600355565b604051633ee5aeb560e01b8152600490fd5b60055490600160401b821015610569576119026118fa836001600395016005556101cf565b509182610f37565b61190f8360018301610f37565b01805460ff191660011790556005546001600160a01b03909116600090815260046020526040902055565b6040519061194782610f56565b601682527567657455736572546f496e737428616464726573732960501b6020830152565b6040519061197982610f56565b6008825267697353616665282960c01b6020830152565b1561199757565b60405162461bcd60e51b81526020600482015260196024820152781bdddb8b9cd8599959dd585c990b98d85b1b0b99985a5b1959603a1b6044820152606490fd5b908160209103126101b45761100a90611132565b604051906119f982610f56565b601582527469735365637572654261736528616464726573732960581b6020830152565b15611a2457565b60405162461bcd60e51b815260206004820152601a6024820152791bdddb8b9cd958dd5c9958985cd94b98d85b1b0b99985a5b195960321b6044820152606490fd5b600054611a7b906001600160a01b03166101f3565b604051918291634bf9c0ad60e11b835282600460209485935afa9283156103995761100a93611acb9261031092600092611ae6575b50611ac3906040519384918783016103c9565b6103266119ec565b919080611adc575b61033d90611a1d565b5081518114611ad3565b611ac3919250611b0290863d8811610392576103838183610f8c565b9190611ab0565b60405190611b1682610f56565b601182527069735369676e657228616464726573732960781b6020830152565b15611b3d57565b60405162461bcd60e51b81526020600482015260166024820152751bdddb8b9cda59db995c8b98d85b1b0b99985a5b195960521b6044820152606490fd5b60405190611b8882610f56565b6018825277697364656c656761746f724e6f646528616464726573732960401b6020830152565b3d15611bda573d90611bc082610faf565b91611bce6040519384610f8c565b82523d6000602084013e565b606090565b600080546040516311be646b60e21b815290602090829060049082906001600160a01b03165afa908115610399578284819382938391611c92575b505af1611c25611baf565b5015611c5b5760405190815233907fcdcc745fe377b103b45fa0cec23ae3ef93d6fc6a84a01f0d18c40b354dd1d5d890602090a2565b60405162461bcd60e51b815260206004820152600f60248201526e1bdddb8b989d5c9b8b99985a5b1959608a1b6044820152606490fd5b611caa915060203d8111610392576103838183610f8c565b38611c1a565b90611cbb9291611cdb565b9060009015611cc8575090565b6040519150611cd682610f71565b815290565b803b15611d4057600092839263ffffffff60e01b90602081519101201690611d2d6024604051809360208201958652611d1d8151809260208686019101611019565b8101036004810184520182610f8c565b5191620dbba0fa611d3c611baf565b9091565b505050600090604051611d5281610f71565b6000815290565b9291611d6791600094611cdb565b9080611d92575b611d755750565b9091506020818051810103126101b457602001516101f381610285565b506020815114611d6e565b9291611dab91600094611cdb565b9080611dce575b611db95750565b61100a919250602080825183010191016119d8565b506020815114611db2565b9291611de791600094611cdb565b9080611e0a575b611df55750565b61100a919250602080825183010191016110d0565b506020815114611dee565b906020825192015163ffffffff60e01b908181169360048110611e3757505050565b60040360031b82901b16169150565b6001600160a01b03811615611ec757600080918351908260208601915af190611e6d611baf565b9115611e77575090565b805160009190600411611ec157611e8e9150611e15565b815115611e9e5750805190602001fd5b604051630870274d60e21b81526001600160e01b03199091166004820152602490fd5b50611e8e565b60405162461bcd60e51b81526020600482015260126024820152711bdddb8b9a5b9d985b1a590b9d185c99d95d60721b6044820152606490fdfef652222313e28459528d920b65115c16c04f3efc82aaedc97be59f3f377c0d3fa2646970667358221220f55b7f1b321aa3eeae9f4d6d120edf9879b467d45143afe5dd6229fd0f9a398264736f6c634300081400336080346200099557601f6200344638819003918201601f19168301916001600160401b038311848410176200099a578084926020946040528339810103126200099557516001600160a01b0381169081900362000995578015620009505760018060a01b0319338160015416176001556000541617600055601e601755600160185560016019556002601a5561c350601b55610258601c556003601d556019601e5568878678326eac900000601f55670de0b6b3a764000060205569021e19e0c9bab240000060215560016022556005602b5560ff19602c5416602c5561025860c0620000eb620009f0565b6002815260646020820152600160408201526023606082015260646080820152600160a082015201526002600755606460085560016009556023600a556064600b556001600c55610258600d55605a60406200014662000a39565b60198152600a602082015201526019600e55600a600f55605a60105560406200016e62000a39565b6005815260016020820152610168918291015260056011556001601255601355600160a06200019c620009f0565b600481528260208201528260408201528260608201528260808201528260c0820152015260046014556501010101010165ffffffffffff196015541617601555620001e662000a73565b610258606061014092838152600b6020820152600a60408201520152602355600b602455600a60255561025860265561025860606200022462000a73565b60d28152600b6020820152600a6040820152015260d2602755600b602855600a602955610258602a55620002906200025b620009b0565b6000815260006020820152600060408201526000606082015261270f6080820152600080526004602052604060002062000aa9565b620002d46200029e620009b0565b6007815260196020820152600060408201526000606082015261270f608082015260016000526004602052604060002062000aa9565b62000318620002e2620009b0565b6007815260646020820152600060408201526000606082015261270f608082015260026000526004602052604060002062000aa9565b6200035c62000326620009b0565b600781526101f460208201526003604082015260006060820152601e608082015260036000526004602052604060002062000aa9565b620003a06200036a620009b0565b600781526107d060208201526004604082015260006060820152601e608082015260046000526004602052604060002062000aa9565b620003e5620003ae620009b0565b600781526113886020820152600460408201526004606082015261270f608082015260056000526004602052604060002062000aa9565b6200042a620003f3620009b0565b600781526127106020820152600460408201526004606082015261270f608082015260066000526004602052604060002062000aa9565b6200046f62000438620009b0565b600781526161a86020820152600460408201526004606082015261270f608082015260076000526004602052604060002062000aa9565b620004b26200047d620009b0565b600081526006602082015260016040820152600560608201526001608082015260016000526006602052604060002062000aa9565b620004f5620004c0620009b0565b600081526003602082015260016040820152600560608201526001608082015260026000526006602052604060002062000aa9565b6200053862000503620009b0565b60028152600f6020820152600a6040820152600560608201526001608082015260036000526006602052604060002062000aa9565b6200057b62000546620009b0565b60028152600f6020820152600a6040820152600560608201526001608082015260046000526006602052604060002062000aa9565b620005be62000589620009b0565b60028152600f6020820152600a6040820152600560608201526001608082015260056000526006602052604060002062000aa9565b6200084d620005cc620009b0565b60028152604b90816020820152606460408201526200060960fa918260608201526064608082015260066000526006602052604060002062000aa9565b6200064a62000617620009b0565b60028152836020820152606460408201528260608201526064608082015260076000526006602052604060002062000aa9565b6200068b62000658620009b0565b60028152836020820152606460408201528260608201526064608082015260086000526006602052604060002062000aa9565b620006cc62000699620009b0565b60028152836020820152606460408201528260608201526064608082015260096000526006602052604060002062000aa9565b6200070d620006da620009b0565b600281528360208201526064604082015282606082015260646080820152600a6000526006602052604060002062000aa9565b6200074e6200071b620009b0565b600281528360208201526064604082015282606082015260646080820152600b6000526006602052604060002062000aa9565b6200078f6200075c620009b0565b600281528360208201526064604082015282606082015260646080820152600c6000526006602052604060002062000aa9565b620007d06200079d620009b0565b600281528360208201526064604082015282606082015260646080820152600d6000526006602052604060002062000aa9565b62000811620007de620009b0565b600281528360208201526064604082015282606082015260646080820152600e6000526006602052604060002062000aa9565b6200081b620009b0565b9160028352602083015260646040830152606082015260646080820152600f6000526006602052604060002062000aa9565b620008826200085b620009d0565b60128152600a6020820152602d604082015260036000526005602052604060002062000a58565b620008b762000890620009d0565b60128152600a6020820152605a604082015260056000526005602052604060002062000a58565b620008ed620008c5620009d0565b60098152600a602082015261270f604082015260076000526005602052604060002062000a58565b600360205260327fc3a24b0501bd2c13a7e57f2db4369ec4c223447539fc0724a9d55ac4a06ebd4d5560046000526101f47f83ec6a1f0257b830b5e016457c9cf1435391bf56cc98f369a58a54fe937724655560405161296d908162000ad98239f35b60405162461bcd60e51b815260206004820152601360248201527f6f776e2e696e76616c69642e68657862617365000000000000000000000000006044820152606490fd5b600080fd5b634e487b7160e01b600052604160045260246000fd5b6040519060a082016001600160401b038111838210176200099a57604052565b60405190606082016001600160401b038111838210176200099a57604052565b6040519060e082016001600160401b038111838210176200099a576040528160c06000918281528260208201528260408201528260608201528260808201528260a08201520152565b62000a43620009d0565b90600082526000602083015260006040830152565b90604060029180518455602081015160018501550151910155565b60405190608082016001600160401b038111838210176200099a5760405260006060838281528260208201528260408201520152565b90608060049180518455602081015160018501556040810151600285015560608101516003850155015191015556fe60806040526004361015610018575b361561001657005b005b60003560e01c80630609a0e3146103c857806307175c83146103c357806309307c62146103be5780630b225f1a146103b95780630ea0d222146103b457806312065fe0146103af57806314be92a5146103aa57806315a544ed146103a55780631605aed9146103a057806316f0115b1461039b578063192b48ee146103965780631ef6a864146103915780631f185d161461038c57806326c5adae14610387578063298fc460146103825780633688236d1461037d5780633b9b7955146103785780634151331d14610373578063438fe1921461036e57806344ec16bc146103695780634b62954f1461036457806353423e861461035f578063541d76671461035a57806354541683146103555780635640dbfc14610350578063592a02a81461034b5780635962205f146103465780635a0e9038146103415780636b81c82f1461033c5780636c7deb5d146103375780636f092c5e146103325780637687e3711461032d57806378ef376f146103285780637bc908c6146103235780638da5cb5b1461031e57806391fc8aa8146103195780639319d0b514610314578063991bf5cc1461030f5780639d80ab9b1461030a5780639eb8b44e14610305578063a19841dd14610300578063a1f7f539146102fb578063a88fcea6146102f6578063aebcd32a146102f1578063af0b21d3146102ec578063af484526146102e7578063b49c064c146102e2578063b85f1f8d146102dd578063b90306ad146102d8578063c54e44b0146102d3578063c5a136d4146102ce578063e01ad5fd146102c9578063e0a9bc2b146102c4578063eddd0d9c146102bf578063f27c35c6146102ba578063f2a6bbc7146102b5578063f4fe8e3c146102b0578063fc0e74d1146102ab5763fdc10bc90361000e57611f26565b611f03565b611e59565b611db2565b611cd6565b611c2f565b611c14565b611b75565b611a87565b6119eb565b611938565b61190e565b6118eb565b6118ba565b61189c565b611853565b611835565b61178e565b611760565b61159d565b61152a565b611416565b61136f565b611351565b611328565b61130a565b611263565b61119f565b611173565b6110cc565b610ff2565b610faa565b610f61565b610e29565b610d96565b610d78565b610d04565b610ce6565b610c39565b610b92565b610b74565b610b38565b610af9565b610ac8565b610a04565b610940565b61084f565b61078b565b6106e4565b610693565b610676565b610658565b6105b1565b610595565b610577565b610559565b6104ac565b61048e565b34610489576020366003190112610489576103e96103e461213c565b6125b9565b6103f233612264565b801561040d575b610402906125fa565b610016600435601755565b50600054604051630536340960e21b8152906001600160a01b03906020908390600490829085165afa9081156104845761040292600092610454575b5016331490506103f9565b61047691925060203d811161047d575b61046e818361205b565b81019061207e565b9038610449565b503d610464565b612096565b600080fd5b34610489576000366003190112610489576020601e54604051908152f35b34610489576040366003190112610489576104c86103e461213c565b6104d133612264565b80156104f2575b6104e1906125fa565b610016602435600435602055602155565b50600054604051630536340960e21b8152906001600160a01b03906020908390600490829085165afa908115610484576104e192600092610539575b5016331490506104d8565b61055291925060203d811161047d5761046e818361205b565b903861052e565b34610489576000366003190112610489576020602b54604051908152f35b34610489576000366003190112610489576020601c54604051908152f35b3461048957600036600319011261048957602047604051908152f35b34610489576020366003190112610489576105cd6103e461213c565b6105d633612264565b80156105f1575b6105e6906125fa565b610016600435601c55565b50600054604051630536340960e21b8152906001600160a01b03906020908390600490829085165afa908115610484576105e692600092610638575b5016331490506105dd565b61065191925060203d811161047d5761046e818361205b565b903861062d565b34610489576000366003190112610489576020602154604051908152f35b346104895760003660031901126104895760208054604051908152f35b346104895760003660031901126104895760e0600754600854600954600a54600b5490600c5492600d5494604051968752602087015260408601526060850152608084015260a083015260c0820152f35b34610489576020366003190112610489576107006103e461213c565b61070933612264565b8015610724575b610719906125fa565b61001660043561268a565b50600054604051630536340960e21b8152906001600160a01b03906020908390600490829085165afa908115610484576107199260009261076b575b501633149050610710565b61078491925060203d811161047d5761046e818361205b565b9038610760565b346104895760a0366003190112610489576107a76103e461213c565b6107b033612264565b80156107d7575b6107c0906125fa565b61001660843560643560443560243560043561285c565b50600054604051630536340960e21b8152906001600160a01b03906020908390600490829085165afa908115610484576107c09260009261081e575b5016331490506107b7565b61083791925060203d811161047d5761046e818361205b565b9038610813565b6001600160a01b0381160361048957565b3461048957602080600319360112610489576004908135906108708261083e565b60005481906001600160a01b0316604051634bf9c0ad60e11b815294859182905afa918215610484576108c36108fd936108df9261090f9660009261091d575b506108d190604051938491878301610ae6565b03601f19810184528361205b565b6108d96122fe565b906124a5565b919080610913575b6108f09061232b565b8082518301019101612127565b60405190151581529081906020820190565b0390f35b50815181146108e7565b6108d191925061093990863d881161047d5761046e818361205b565b91906108b0565b34610489576020366003190112610489576000546040516369e8d84b60e11b815290602090829060049082906001600160a01b03165afa8015610484576109a86109cc9161090f936000916109dc575b506109996128d1565b906109a26128e9565b9061257b565b6109c7600435916109c26109bd601e54612644565b612644565b612917565b612677565b6040519081529081906020820190565b6109f4915060203d811161047d5761046e818361205b565b38610990565b8015150361048957565b3461048957602036600319011261048957600435610a21816109fa565b610a2c6103e461213c565b610a3533612264565b8015610a5b575b90610a49610016926125fa565b60ff8019602c54169115151617602c55565b50600054604051630536340960e21b81526001600160a01b0392916020908290600490829087165afa80156104845761001693610a4992600092610aa8575b503391161491925050610a3c565b610ac191925060203d811161047d5761046e818361205b565b9038610a9a565b34610489576000366003190112610489576020601b54604051908152f35b6001600160a01b03909116815260200190565b34610489576000366003190112610489576000546040516001600160a01b039091168152602090f35b6040919493926060820195825260208201520152565b346104895760203660031901126104895760043560005260056020526040600020805461090f6002600184015493015460405193849384610b22565b34610489576000366003190112610489576020601954604051908152f35b3461048957602036600319011261048957610bae6103e461213c565b610bb733612264565b8015610bd2575b610bc7906125fa565b610016600435601855565b50600054604051630536340960e21b8152906001600160a01b03906020908390600490829085165afa90811561048457610bc792600092610c19575b501633149050610bbe565b610c3291925060203d811161047d5761046e818361205b565b9038610c0e565b3461048957604036600319011261048957610c556103e461213c565b610c5e33612264565b8015610c7f575b610c6e906125fa565b610016602435600435601a55601b55565b50600054604051630536340960e21b8152906001600160a01b03906020908390600490829085165afa90811561048457610c6e92600092610cc6575b501633149050610c65565b610cdf91925060203d811161047d5761046e818361205b565b9038610cbb565b34610489576000366003190112610489576020601d54604051908152f35b34610489576020366003190112610489576000546040516369e8d84b60e11b815290602090829060049082906001600160a01b03165afa801561048457610d5c6109cc9161090f936000916109dc57506109996128d1565b60043560005260036020526109c26109bd604060002054612644565b34610489576000366003190112610489576020601854604051908152f35b346104895760003660031901126104895760e060145460155460405191825260ff9081811615156020840152818160081c1615156040840152818160101c1615156060840152818160181c1615156080840152818160201c16151560a084015260281c16151560c0820152f35b60c090600319011261048957600435906024359060443590606435906084359060a43590565b3461048957610e3736610e03565b91610e466103e496949661213c565b610e4f33612264565b8015610ed6575b610e5f906125fa565b6010841015610ea1576100169560405195610e7987611fcf565b8652602086015260408501526060840152608083015260005260066020526040600020612698565b60405162461bcd60e51b815260206004820152600d60248201526c1a5b9d985b1a59081b195d995b609a1b6044820152606490fd5b50600054604051630536340960e21b8152906001600160a01b03906020908390600490829085165afa90811561048457610e5f92600092610f1d575b501633149050610e56565b610f3691925060203d811161047d5761046e818361205b565b9038610f12565b9192608093969594919660a084019784526020840152604083015260608201520152565b346104895760203660031901126104895760043560005260066020526040600020805461090f600183015492600281015490600460038201549101549160405195869586610f3d565b3461048957600036600319011261048957600e54600f549061090f60105460405193849384610b22565b60809060031901126104895760043590602435906044359060643590565b346104895761100036610fd4565b9261100f6103e493929361213c565b61101833612264565b8015611060575b9061102b6002926125fa565b611033612815565b506001811461104f575b1461104457005b601155601255601355005b82600e5583600f558460105561103d565b50600054604051630536340960e21b81526001600160a01b0392916020908290600490829087165afa80156104845760029361102b926000926110ac575b50339116149192505061101f565b6110c591925060203d811161047d5761046e818361205b565b903861109e565b34610489576020366003190112610489576110e86103e461213c565b6110f133612264565b801561110c575b611101906125fa565b610016600435601d55565b50600054604051630536340960e21b8152906001600160a01b03906020908390600490829085165afa9081156104845761110192600092611153575b5016331490506110f8565b61116c91925060203d811161047d5761046e818361205b565b9038611148565b346104895760203660031901126104895760043560005260036020526020604060002054604051908152f35b34610489576020366003190112610489576004356111bc816109fa565b6111c76103e461213c565b6111d033612264565b80156111f6575b906111e4610016926125fa565b60ff8019601654169115151617601655565b50600054604051630536340960e21b81526001600160a01b0392916020908290600490829087165afa801561048457610016936111e492600092611243575b5033911614919250506111d7565b61125c91925060203d811161047d5761046e818361205b565b9038611235565b346104895760203660031901126104895761127f6103e461213c565b61128833612264565b80156112a3575b611298906125fa565b610016600435602255565b50600054604051630536340960e21b8152906001600160a01b03906020908390600490829085165afa90811561048457611298926000926112ea575b50163314905061128f565b61130391925060203d811161047d5761046e818361205b565b90386112df565b34610489576000366003190112610489576020602254604051908152f35b34610489576000366003190112610489576001546040516001600160a01b039091168152602090f35b34610489576000366003190112610489576020601f54604051908152f35b346104895760203660031901126104895761138b6103e461213c565b61139433612264565b80156113af575b6113a4906125fa565b610016600435601955565b50600054604051630536340960e21b8152906001600160a01b03906020908390600490829085165afa908115610484576113a4926000926113f6575b50163314905061139b565b61140f91925060203d811161047d5761046e818361205b565b90386113eb565b346104895760e036600319011261048957602435611433816109fa565b60443561143f816109fa565b60643561144b816109fa565b608435611457816109fa565b60a43591611464836109fa565b60c43593611471856109fa565b61147c6103e461213c565b61148533612264565b80156114a1575b95611499610016976125fa565b6004356126c7565b50600054604051630536340960e21b81526001600160a01b039791602090829060049082908c165afa80156104845761001698611499926000926114ee575b50339116149197505061148c565b61150791925060203d811161047d5761046e818361205b565b90386114e0565b9094939260609260808301968352602083015260408201520152565b34610489576000366003190112610489576023546024549061090f602554602654906040519485948561150e565b6102a0810192916000915b6007831061157057505050565b60019060608351918251815260209283810151848301526040809101519082015201920192019190611563565b34610489576000366003190112610489576040516115ba81611fef565b60005b60e0811061174b5761090f6115d06120a2565b600160005260056020526116087f1471eb6eb2c5e789fc3de43f8ce62938c7d1836ec861730447e2ada8fd81017b612834565b612834565b81526002600052600560205261163d7f89832631fb3c3307a103ba2c84ab569c64d6182a18893dcd163f0f1c2090733a612834565b602082015261165a61160360036000526005602052604060002090565b6040820152600460005260056020526116927f3eec716f11ba9e820c81ca75eb978ffb45831ef8b7a53e5e422c26008e1ca6d5612834565b6060820152600560008190526020526116ca7f458b30c2d72bfd2c6317304a4594ecbafe5f729d3111b65fdc3a33bd48e5432d612834565b6080820152600660005260056020526117027f069400f22b28c6c362558d92f66163cec5671cba50b61abd2eecfcd0eaeac518612834565b60a08201526007600052600560205261173a7feddb6698d7c569ff62ff64f1f1492bf14a54594835ba0faac91f84b4f5d81460612834565b60c082015260405191829182611558565b602090611756612815565b81840152016115bd565b34610489576000366003190112610489576027546028549061090f602954602a54906040519485948561150e565b346104895760003660031901126104895760005460405163d1f956b160e01b815290602090829060049082906001600160a01b03165afa9081156104845761090f916109cc91600091611817575b506040516117e981612025565b601381527267657464656c656761746f72436f756e74282960681b60208201526118116120cc565b9161257b565b61182f915060203d811161047d5761046e818361205b565b386117dc565b34610489576000366003190112610489576020601a54604051908152f35b346104895760203660031901126104895760043560005260046020526040600020805461090f600183015492600281015490600460038201549101549160405195869586610f3d565b34610489576000366003190112610489576020601754604051908152f35b346104895760203660031901126104895760206118e16004356118dc8161083e565b612264565b6040519015158152f35b3461048957600036600319011261048957602060ff602c54166040519015158152f35b34610489576000366003190112610489576011546012549061090f60135460405193849384610b22565b3461048957602036600319011261048957600054604051630536340960e21b8152906001600160a01b03906020908390600490829085165afa918215610484576000926119cb575b5033911603611994576100166004356123d4565b60405162461bcd60e51b815260206004820152600f60248201526e6f776e2e6e6f6e617574682e44414f60881b6044820152606490fd5b6119e491925060203d811161047d5761046e818361205b565b9038611980565b3461048957602036600319011261048957600435611a088161083e565b803b6000611a15826120b1565b92611a23604051948561205b565b82845260208401903c602d815110611a4c57602a61090f91015160601c60405191829182610ae6565b60405162461bcd60e51b81526020600482015260136024820152724e6f742061206d696e696d616c2070726f787960681b6044820152606490fd5b3461048957611a9536610fd4565b90611aa46103e494939461213c565b611aad33612264565b8015611b09575b92611ac06002946125fa565b611acc600882106127be565b60405194611ad98661200a565b85526020850191825260408501928352600052600560205260406000209351845551600184015551910155600080f35b50600054604051630536340960e21b81526001600160a01b0394916020908290600490829089165afa801561048457600295611ac092600092611b55575b503391161491945050611ab4565b611b6e91925060203d811161047d5761046e818361205b565b9038611b47565b34610489576020806003193601126104895760048035611b948161083e565b60005460405163d1f956b160e01b81526001600160a01b03949093909182918591829088165afa9081156104845761090f946108fd94600093611bf5575b506040519316818401528252611be782612025565b611bef612370565b9061253f565b611c0d919350823d841161047d5761046e818361205b565b9138611bd2565b346104895760003660031901126104895760206118e161213c565b3461048957602036600319011261048957611c4b6103e461213c565b611c5433612264565b8015611c6f575b611c64906125fa565b610016600435601e55565b50600054604051630536340960e21b8152906001600160a01b03906020908390600490829085165afa90811561048457611c6492600092611cb6575b501633149050611c5b565b611ccf91925060203d811161047d5761046e818361205b565b9038611cab565b3461048957611ce436610e03565b91611cf36103e496949661213c565b611cfc33612264565b8015611d45575b95611d10610016976125fa565b60405195611d1d87611fcf565b8652602086015260408501526060840152608083015260005260046020526040600020612698565b50600054604051630536340960e21b81526001600160a01b039791602090829060049082908c165afa80156104845761001698611d1092600092611d92575b503391161491975050611d03565b611dab91925060203d811161047d5761046e818361205b565b9038611d84565b3461048957602036600319011261048957611dce6103e461213c565b611dd733612264565b8015611df2575b611de7906125fa565b610016600435602b55565b50600054604051630536340960e21b8152906001600160a01b03906020908390600490829085165afa90811561048457611de792600092611e39575b501633149050611dde565b611e5291925060203d811161047d5761046e818361205b565b9038611e2e565b3461048957604036600319011261048957611e756103e461213c565b611e7e33612264565b8015611e9c575b611e8e906125fa565b6100166024356004356127f9565b50600054604051630536340960e21b8152906001600160a01b03906020908390600490829085165afa90811561048457611e8e92600092611ee3575b501633149050611e85565b611efc91925060203d811161047d5761046e818361205b565b9038611ed8565b3461048957600036600319011261048957602060ff601654166040519015158152f35b346104895760003660031901126104895760005460405163111ea8c160e21b815290602090829060049082906001600160a01b03165afa9081156104845761090f916109cc91600091611f9b575b50604051611f8181612025565b6005815264616765282960d81b60208201526118116120cc565b611fb3915060203d811161047d5761046e818361205b565b38611f74565b634e487b7160e01b600052604160045260246000fd5b60a081019081106001600160401b03821117611fea57604052565b611fb9565b60e081019081106001600160401b03821117611fea57604052565b606081019081106001600160401b03821117611fea57604052565b604081019081106001600160401b03821117611fea57604052565b602081019081106001600160401b03821117611fea57604052565b601f909101601f19168101906001600160401b03821190821017611fea57604052565b9081602091031261048957516120938161083e565b90565b6040513d6000823e3d90fd5b604051906120af82611fef565b565b6001600160401b038111611fea57601f01601f191660200190565b604051906120d982612040565b60008252565b156120e657565b60405162461bcd60e51b81526020600482015260196024820152781bdddb8b9cd8599959dd585c990b98d85b1b0b99985a5b1959603a1b6044820152606490fd5b908160209103126104895751612093816109fa565b600054604051634bf9c0ad60e11b8152906020908190839060049082906001600160a01b03165afa91821561048457612093926121b2916000916121cd575b5060405161218881612025565b6008815267697353616665282960c01b84820152604051916121a983612040565b600083526124a5565b9190806121c3575b6108f0906120df565b50815181146121ba565b6121e49150833d851161047d5761046e818361205b565b3861217b565b604051906121f782612025565b601582527469735365637572654261736528616464726573732960581b6020830152565b1561222257565b60405162461bcd60e51b815260206004820152601a6024820152791bdddb8b9cd958dd5c9958985cd94b98d85b1b0b99985a5b195960321b6044820152606490fd5b6000546001600160a01b0316604051918291634bf9c0ad60e11b835282600460209485935afa92831561048457612093936122c0926108c3926000926122db575b506122b890604051938491878301610ae6565b6108d96121ea565b9190806122d1575b6108f09061221b565b50815181146122c8565b6122b89192506122f790863d881161047d5761046e818361205b565b91906122a5565b6040519061230b82612025565b601182527069735369676e657228616464726573732960781b6020830152565b1561233257565b60405162461bcd60e51b81526020600482015260166024820152751bdddb8b9cda59db995c8b98d85b1b0b99985a5b195960521b6044820152606490fd5b6040519061237d82612025565b6018825277697364656c656761746f724e6f646528616464726573732960401b6020830152565b3d156123cf573d906123b5826120b1565b916123c3604051938461205b565b82523d6000602084013e565b606090565b600080546040516311be646b60e21b815290602090829060049082906001600160a01b03165afa908115610484578284819382938391612487575b505af161241a6123a4565b50156124505760405190815233907fcdcc745fe377b103b45fa0cec23ae3ef93d6fc6a84a01f0d18c40b354dd1d5d890602090a2565b60405162461bcd60e51b815260206004820152600f60248201526e1bdddb8b989d5c9b8b99985a5b1959608a1b6044820152606490fd5b61249f915060203d811161047d5761046e818361205b565b3861240f565b9190823b15612526578051906020918263ffffffff60e01b92012016916040519180830193845281519160005b8381106125125750505091816124ff6024826000979596889701878382015203600481018452018261205b565b5191620dbba0fa61250e6123a4565b9091565b8181018301518582016024015282016124d2565b50505060009060405161253881612040565b6000815290565b929161254d916000946124a5565b9080612570575b61255b5750565b61209391925060208082518301019101612127565b506020815114612554565b9291612589916000946124a5565b90806125ae575b6125975750565b909150602081805181010312610489576020015190565b506020815114612590565b156125c057565b60405162461bcd60e51b81526020600482015260126024820152716f776e2e696e76616c69642e69735361666560701b6044820152606490fd5b1561260157565b60405162461bcd60e51b815260206004820152601b60248201527a6f776e2e6e6f6e617574682e44414f6f725365637572656261736560281b6044820152606490fd5b90670de0b6b3a76400009182810292818404149015171561266157565b634e487b7160e01b600052601160045260246000fd5b8181029291811591840414171561266157565b61269390612644565b601f55565b906080600491805184556020810151600185015560408101516002850155606081015160038501550151910155565b61279f946120af9794612738612780956127639460c09a96604051906126ec82611fef565b8282521515928360208301521515948560408301521515958660608301521515978860808301521515998a60a083015215159b8c91015260145560ff8019601554169115151617601555565b6015805462ffff00191660089290921b61ff00169190911791151560101b62ff000016919091179055565b63ff00000060155491151560181b169063ff000000191617601555565b6015805460ff60201b191691151560201b60ff60201b16919091179055565b6015805460ff60281b191691151560281b60ff60281b16919091179055565b156127c557565b60405162461bcd60e51b815260206004820152600c60248201526b696e76616c69642072616e6b60a01b6044820152606490fd5b612805600882106127be565b6000526003602052604060002055565b604051906128228261200a565b60006040838281528260208201520152565b906040516128418161200a565b60406002829480548452600181015460208501520154910152565b6040516080810191906001600160401b03831181841017611fea57606087916002946040528581528660208201528760408201520152600181146128bc575b146128a7575b50505050565b602755602855602955602a55388080806128a1565b8260235583602455846025558560265561289b565b6040516128dd81612040565b60008152906000368137565b604051906128f682612025565b60128252716f7a6f6e655072696365496e55534454282960701b6020830152565b8115612921570490565b634e487b7160e01b600052601260045260246000fdfea264697066735822122090a762038d31c82dfef6997fce011f200d20f0ae2352ab9dca029910f0d8c65864736f6c63430008140033","linkReferences":{}},"methodIdentifiers":{"rule741()":"0a5b38ab","transferRequest()":"3da8676f"},"id":34}