{"abi":[{"type":"constructor","inputs":[{"name":"_hex","type":"address","internalType":"address"}],"stateMutability":"nonpayable"},{"type":"function","name":"rule741","inputs":[],"outputs":[{"name":"","type":"address","internalType":"address"}],"stateMutability":"view"},{"type":"function","name":"transferRequest","inputs":[],"outputs":[{"name":"","type":"address","internalType":"address"}],"stateMutability":"view"}],"bytecode":{"object":"0x6080346200012d57601f62006eba38819003918201601f19168301926001600160401b0392909183851183861017620001175781602092849260409788528339810103126200012d57516001600160a01b0390818116908190036200012d578351906149179182810192818410868511176200011757620025a3823981835260208160009403019083f09384156200010d5782549484166001600160a01b03199586161783558551916123a08084019284841090841117620000f957918391602093620002038439815203019082f0908115620000ee5750169060015416176001555160d09081620001338239f35b8451903d90823e3d90fd5b634e487b7160e01b85526041600452602485fd5b85513d84823e3d90fd5b634e487b7160e01b600052604160045260246000fd5b600080fdfe6080806040526004361015601257600080fd5b600090813560e01c9081630a5b38ab1460685750633da8676f14603457600080fd5b3460655780600319360112606557602073ffffffffffffffffffffffffffffffffffffffff60015416604051908152f35b80fd5b9050346096578160031936011260965773ffffffffffffffffffffffffffffffffffffffff60209254168152f35b5080fdfea26469706673582212209af729e24db8ecde0761b20272bbecc3d7a65eaef85ff944238d405e42bbb15164736f6c634300081400336080346100ca57601f6123a038819003918201601f19168301916001600160401b038311848410176100cf578084926020946040528339810103126100ca57516001600160a01b038116908190036100ca5780156100855760018060a01b031933816001541617600155600054161760005560016003556040516122ba90816100e68239f35b60405162461bcd60e51b815260206004820152601360248201527f6f776e2e696e76616c69642e68657862617365000000000000000000000000006044820152606490fd5b600080fd5b634e487b7160e01b600052604160045260246000fdfe60806040526004361015610018575b361561001657005b005b60003560e01c806312065fe01461019857806318c864e3146101935780631f185d161461018e5780633676bd1f146101895780633b9b795514610184578063479fa2c31461017f5780634ef260a91461017a5780638da5cb5b146101755780639fb3953b14610170578063a1f7f5391461016b578063ab7e46ae14610166578063ac23334514610161578063af4845261461015c578063b8f1759a14610157578063b90306ad14610152578063c1e6cec21461014d578063c54e44b014610148578063cab3cc8d14610143578063e01ad5fd1461013e578063e0a9bc2b14610139578063e846034a14610134578063e84adc131461012f578063e981bcad1461012a5763fdc10bc90361000e57610faf565b610ed4565b610cc2565b610ca4565b610c05565b610b6b565b610b4d565b610aab565b610a6d565b6109b1565b610957565b610926565b6108ee565b610894565b61079f565b6105d8565b6105b1565b6104ef565b610406565b6103df565b6103b4565b61028f565b61020e565b346101b45760003660031901126101b457602047604051908152f35b600080fd5b634e487b7160e01b600052603260045260246000fd5b60055481101561020957600560005260021b7f036b6384b5eca791c62761152d0c79bb0604c104a5fb6f4eb0703f3154bb3db00190600090565b6101b9565b346101b45760203660031901126101b4576004356005548110156101b457610235906101cf565b50805460018201546002830154600390930154604080516001600160a01b0394851681529390921660208401529082019290925260ff90911615156060820152608090f35b0390f35b6001600160a01b038116036101b457565b346101b4576020806003193601126101b4576004908135906102b08261027e565b806102d26102c66000546001600160a01b031690565b6001600160a01b031690565b60405194858092634bf9c0ad60e11b82525afa9182156103af57610326610360936103429261027a9660009261037c575b50610334906040519384918783019190916001600160a01b036020820193169052565b03601f1981018452836110f8565b61033c611dda565b90611fe6565b919080610372575b61035390611e13565b8082518301019101611c98565b60405190151581529081906020820190565b508151811461034a565b6103349192506103a190863d88116103a8575b61039981836110f8565b810190611161565b9190610303565b503d61038f565b611179565b346101b45760203660031901126101b4576103cd611af8565b6103d86004356116c7565b6001600355005b346101b45760003660031901126101b45760206001600160a01b0360005416604051908152f35b346101b45760203660031901126101b457600435801515806104e3575b1561049f576104346104399161127a565b6101cf565b5080546001600160a01b031661027a61045c60018401546001600160a01b031690565b926104706003600283015492015460ff1690565b604080516001600160a01b03958616815295909416602086015292840152901515606083015281906080820190565b606460405162461bcd60e51b815260206004820152601760248201527f70726f706f7365722e696e76616c69642e666f726d69640000000000000000006044820152fd5b50600554811115610423565b346101b45760203660031901126101b45760043561050c8161027e565b6001600160a01b038091169060009180835260046020526040832054801515806105a5575b610539578380f35b60001981019081116105a05761054e906101cf565b505080835260046020528260408120556006546801000000000000000081101561059b57806001610582920160065561085d565b909283549160031b92831b921b19161790553880808380f35b611057565b611264565b50600554811115610531565b346101b45760003660031901126101b45760206001600160a01b0360015416604051908152f35b60803660031901126101b4576004356105f08161027e565b6105f8611af8565b61060d6102c66000546001600160a01b031690565b6040519163ab6e844f60e01b83526020918284600481845afa9384156103af5760009461077b575b5082600491604051928380927fde433f170000000000000000000000000000000000000000000000000000000082525afa9081156103af576106be9161069c9160009161075e575b506040519182918683019190916001600160a01b036020820193169052565b03946106b0601f19968781018452836110f8565b6106b8611bdb565b9061207c565b906001600160a01b0382166106d8575b6100166001600355565b610754937fc107930a000000000000000000000000000000000000000000000000000000009361074361074f9360405196879384015260643590604435906024359060248601909493926060926001600160a01b036080840197168352602083015260408201520152565b039081018452836110f8565b61218f565b50388080806106ce565b6107759150853d87116103a85761039981836110f8565b3861067d565b60049194506107978491823d84116103a85761039981836110f8565b949150610635565b346101b45760003660031901126101b457600460206001600160a01b03600054166040519283809263d1f956b160e01b82525afa9081156103af5761027a9161082f9160009161083f575b506040516107f7816110c0565b601381527f67657464656c656761746f72436f756e742829000000000000000000000000006020820152610829611136565b91612109565b6040519081529081906020820190565b610857915060203d81116103a85761039981836110f8565b386107ea565b6006548110156102095760066000527ff652222313e28459528d920b65115c16c04f3efc82aaedc97be59f3f377c0d3f0190600090565b346101b45760203660031901126101b4576004356006548110156101b4576001600160a01b0360209160066000527ff652222313e28459528d920b65115c16c04f3efc82aaedc97be59f3f377c0d3f015416604051908152f35b346101b45760203660031901126101b45760206109156004356109108161027e565b6112f0565b6001600160a01b0360405191168152f35b346101b45760203660031901126101b457602061094d6004356109488161027e565b611d30565b6040519015158152f35b346101b45760203660031901126101b457600435600654811015610209576001600160a01b0360209160066000527ff652222313e28459528d920b65115c16c04f3efc82aaedc97be59f3f377c0d3f015416604051908152f35b346101b45760203660031901126101b45760046001600160a01b036020816000541660405193848092630536340960e21b82525afa9182156103af57600092610a4d575b5033911603610a0957610016600435611ec7565b606460405162461bcd60e51b815260206004820152600f60248201527f6f776e2e6e6f6e617574682e44414f00000000000000000000000000000000006044820152fd5b610a6691925060203d81116103a85761039981836110f8565b90386109f5565b346101b45760203660031901126101b4576001600160a01b03600435610a928161027e565b1660005260046020526020604060002054604051908152f35b346101b45760203660031901126101b457600435610ac88161027e565b803b6000610ad58261111a565b92610ae360405194856110f8565b82845260208401903c602d815110610b0957602a015160405160609190911c8152602090f35b606460405162461bcd60e51b815260206004820152601360248201527f4e6f742061206d696e696d616c2070726f7879000000000000000000000000006044820152fd5b346101b45760003660031901126101b4576020600554604051908152f35b346101b4576020806003193601126101b45760048035610b8a8161027e565b6001600160a01b03928084600054166040519485809263d1f956b160e01b82525afa9081156103af5761027a9461036094600093610be6575b506040519316818401528252610bd8826110c0565b610be0611e5e565b906120cd565b610bfe919350823d84116103a85761039981836110f8565b9138610bc3565b346101b45760003660031901126101b4576001600160a01b03600054166040518091634bf9c0ad60e11b825281600460209384935afa9081156103af57610c6c6103609261027a94600091610c87575b50610c5e611c14565b610c66611136565b91611fe6565b919080610c7d575b61035390611c4d565b5081518114610c74565b610c9e9150833d85116103a85761039981836110f8565b38610c55565b346101b45760003660031901126101b4576020600654604051908152f35b346101b4576040806003193601126101b45760043590610ce18261027e565b6001600160a01b03821615610e91576000913383526020916004835280842054610e4e57610d3b610d1061106d565b509283906001600160a01b031673ffffffffffffffffffffffffffffffffffffffff19825416179055565b60018201805473ffffffffffffffffffffffffffffffffffffffff19163317815592600490610d68611149565b81610d7d6102c689546001600160a01b031690565b855194858092630536340960e21b82525afa9283156103af57600294610df694610de993610326938b92610e2d575b5061074f9192519384917fffa734f000000000000000000000000000000000000000000000000000000000888401526024359030602485016111a8565b8051810182019101611255565b910155610e29610e1060055492546001600160a01b031690565b6001600160a01b03166000526004602052604060002090565b5580f35b61074f9250610e4890873d89116103a85761039981836110f8565b91610dac565b82606491519062461bcd60e51b82526004820152601260248201527f70726f706f7365722e746f2e65786973747300000000000000000000000000006044820152fd5b6064905162461bcd60e51b815260206004820152601260248201527f6f776e2e64656661756c742e73656e64657200000000000000000000000000006044820152fd5b346101b45760403660031901126101b457610eed611af8565b610efe610ef930611d30565b611467565b60046020610f176102c66000546001600160a01b031690565b6040519283809263ab6e844f60e01b82525afa80156103af57610f8691600091610f91575b506040517f33b59a5b0000000000000000000000000000000000000000000000000000000060208201526004356024808301919091523560448201529061074f8260648101610326565b506100166001600355565b610fa9915060203d81116103a85761039981836110f8565b38610f3c565b346101b45760003660031901126101b457600460206001600160a01b03600054166040519283809263111ea8c160e21b82525afa9081156103af5761027a9161082f91600091611039575b50604051611007816110c0565b600581527f61676528290000000000000000000000000000000000000000000000000000006020820152610829611136565b611051915060203d81116103a85761039981836110f8565b38610ffa565b634e487b7160e01b600052604160045260246000fd5b6005546801000000000000000081101561059b57600181018060055581101561020957600560005260021b7f036b6384b5eca791c62761152d0c79bb0604c104a5fb6f4eb0703f3154bb3db00190600090565b6040810190811067ffffffffffffffff82111761059b57604052565b6020810190811067ffffffffffffffff82111761059b57604052565b90601f8019910116810190811067ffffffffffffffff82111761059b57604052565b67ffffffffffffffff811161059b57601f01601f191660200190565b60405190611143826110dc565b60008252565b604051611155816110dc565b60008152906000368137565b908160209103126101b457516111768161027e565b90565b6040513d6000823e3d90fd5b60005b8381106111985750506000910152565b8181015183820152602001611188565b6000926001600160a01b0360a09396959660c08452602660c08501527f547269676765722e496e7374616e63652e70726f706f73616c2e55736572547260e08501527f616e73666572000000000000000000000000000000000000000000000000000061010085015216602083015283604083015261012080606084015281518091840152611241816101409360208587019101611185565b601f80199101168201019460808201520152565b908160209103126101b4575190565b634e487b7160e01b600052601160045260246000fd5b6000198101919082116105a057565b60405190611296826110c0565b601282527f6765745374617475732875696e743235362900000000000000000000000000006020830152565b519081151582036101b457565b91908260409103126101b45761117660206112e9846112c2565b93016112c2565b61130d906001600160a01b03166000526004602052604060002090565b5480151580611410575b1561140a576104346113289161127a565b50600381015460ff166113fd5761134a6102c66000546001600160a01b031690565b6040518091630536340960e21b825281600460209384935afa80156103af576103266113a6916113b3946000916113e0575b5061139860028701546040519384918783019190602083019252565b6113a0611289565b90611fbb565b80518101820191016112cf565b819291926113d8575b50600091156113d457546001600160a01b0316905090565b5090565b9150386113bc565b6113f79150843d86116103a85761039981836110f8565b3861137c565b546001600160a01b031690565b50600090565b50600554811115611317565b1561142357565b606460405162461bcd60e51b815260206004820152601c60248201527f7574696c6974792e62617463682e6c696d69742e6578636565646564000000006044820152fd5b1561146e57565b606460405162461bcd60e51b815260206004820152601760248201527f7574696c6974792e756e7365637572652e6661696c65640000000000000000006044820152fd5b604051906114bf826110c0565b600f82527f6765744e6f646573436f756e74282900000000000000000000000000000000006020830152565b156114f257565b606460405162461bcd60e51b815260206004820152601360248201527f7574696c6974792e696d706f72742e646f6e65000000000000000000000000006044820152fd5b919082018092116105a057565b60001981146105a05760010190565b6040519061155f826110c0565b601782527f6765744e6f64654279496e6465782875696e74323536290000000000000000006020830152565b1561159257565b606460405162461bcd60e51b815260206004820152601660248201527f70726f78792e696e76616c69642e696e7374616e6365000000000000000000006044820152fd5b604051906115e3826110c0565b601382527f496e7374546f55736572286164647265737329000000000000000000000000006020830152565b1561161657565b606460405162461bcd60e51b815260206004820152601260248201527f70726f78792e696e76616c69642e6e6f646500000000000000000000000000006044820152fd5b60405190611667826110c0565b601082527f6765744e6f6465286164647265737329000000000000000000000000000000006020830152565b908160a09103126101b45780519160208201516116af8161027e565b9160408101519161117660806112e9606085016112c2565b6116d4606482111561141c565b6116e0610ef930611d30565b6000906116f76102c683546001600160a01b031690565b9160409081519163111ea8c160e21b9485845260209060049482818781855afa80156103af57611740918691611ae1575b50611731611149565b9061173a6114b2565b90612109565b958615611ad75783518381888163ab6e844f60e01b968782525afa9081156103af5761178b91611779918891611aba5750611731611149565b91611785838a116114eb565b82611536565b96808811611ab2575b505b8681106117a7575050505050505050565b6117bb6102c686546001600160a01b031690565b9084519189835284838981845afa9283156103af578793611a93575b5061180b8651806117ef858983019190602083019252565b0394611803601f19968781018452836110f8565b6106b8611552565b906001600160a01b03611821818416151561158b565b87518c815287818c81865afa80156103af57611876918b91611a76575b5089519061186e82611862888d83019190916001600160a01b036020820193169052565b038981018452836110f8565b6106b86115d6565b91611884828416151561160f565b8851938d855288858d81855afa9485156103af576118e16001928c8f988f6118ef958f9192611a51575b5091516001600160a01b03909316918301918252906118d99083906020015b038c81018452836110f8565b6113a061165a565b8a8082518301019101611693565b505050939093169261190281151561160f565b148015611a48575b6119cb575b5061191a8280611b33565b8661192f6102c68b546001600160a01b031690565b8951948580928a82525afa80156103af576119a59561199f948b926119aa575b5089517f50db85d1000000000000000000000000000000000000000000000000000000008a8201526001600160a01b0393841660248201529390921660448401529061074f908360648101610743565b50611543565b611796565b61074f92506119c5908a3d8c116103a85761039981836110f8565b9161194f565b928c88918a518096819382525afa9283156103af578a93611a1f92611a13928c92611a25575b5061186e908b519384918c83019190916001600160a01b036020820193169052565b038881018452836110f8565b3861190f565b61186e919250611a41908b3d8d116103a85761039981836110f8565b91906119f1565b5081151561190a565b6118d99250611a6f6118cd91833d85116103a85761039981836110f8565b92506118ae565b611a8d9150893d8b116103a85761039981836110f8565b3861183e565b611aab919350853d87116103a85761039981836110f8565b91386117d7565b965038611794565b611ad19150863d88116103a85761039981836110f8565b38611728565b5050505050505050565b611ad19150843d86116103a85761039981836110f8565b600260035414611b09576002600355565b60046040517f3ee5aeb5000000000000000000000000000000000000000000000000000000008152fd5b600554906801000000000000000082101561059b57611b88611b5d836001600395016005556101cf565b509182906001600160a01b031673ffffffffffffffffffffffffffffffffffffffff19825416179055565b60018101805473ffffffffffffffffffffffffffffffffffffffff19166001600160a01b03851617905501600160ff198254161790556001600160a01b0360055491166000526004602052604060002055565b60405190611be8826110c0565b601682527f67657455736572546f496e7374286164647265737329000000000000000000006020830152565b60405190611c21826110c0565b600882527f69735361666528290000000000000000000000000000000000000000000000006020830152565b15611c5457565b606460405162461bcd60e51b815260206004820152601960248201527f6f776e2e7361666567756172642e63616c6c2e6661696c6564000000000000006044820152fd5b908160209103126101b457611176906112c2565b60405190611cb9826110c0565b601582527f69735365637572654261736528616464726573732900000000000000000000006020830152565b15611cec57565b606460405162461bcd60e51b815260206004820152601a60248201527f6f776e2e736563757265626173652e63616c6c2e6661696c65640000000000006044820152fd5b6000546001600160a01b0316604051918291634bf9c0ad60e11b835282600460209485935afa9283156103af5761117693611d9c9261032692600092611db7575b50611d94906040519384918783019190916001600160a01b036020820193169052565b61033c611cac565b919080611dad575b61035390611ce5565b5081518114611da4565b611d94919250611dd390863d88116103a85761039981836110f8565b9190611d71565b60405190611de7826110c0565b601182527f69735369676e65722861646472657373290000000000000000000000000000006020830152565b15611e1a57565b606460405162461bcd60e51b815260206004820152601660248201527f6f776e2e7369676e65722e63616c6c2e6661696c6564000000000000000000006044820152fd5b60405190611e6b826110c0565b601882527f697364656c656761746f724e6f646528616464726573732900000000000000006020830152565b3d15611ec2573d90611ea88261111a565b91611eb660405193846110f8565b82523d6000602084013e565b606090565b6000600460206001600160a01b03835416604051928380927f46f991ac0000000000000000000000000000000000000000000000000000000082525afa9081156103af578284819382938391611f9d575b505af1611f23611e97565b5015611f595760405190815233907fcdcc745fe377b103b45fa0cec23ae3ef93d6fc6a84a01f0d18c40b354dd1d5d890602090a2565b606460405162461bcd60e51b815260206004820152600f60248201527f6f776e2e6275726e2e6661696c656400000000000000000000000000000000006044820152fd5b611fb5915060203d81116103a85761039981836110f8565b38611f18565b90611fc69291611fe6565b9060009015611fd3575090565b6040519150611fe1826110dc565b815290565b803b15612063576000927fffffffff00000000000000000000000000000000000000000000000000000000836020869551910120169061205060246040518093602082019586526120408151809260208686019101611185565b81010360048101845201826110f8565b5191620dbba0fa61205f611e97565b9091565b505050600090604051612075816110dc565b6000815290565b929161208a91600094611fe6565b90806120c2575b6120985750565b9091506020818051810103126101b45760206001600160a01b039101516120be8161027e565b1690565b506020815114612091565b92916120db91600094611fe6565b90806120fe575b6120e95750565b61117691925060208082518301019101611c98565b5060208151146120e2565b929161211791600094611fe6565b908061213a575b6121255750565b61117691925060208082518301019101611255565b50602081511461211e565b90602082519201517fffffffff0000000000000000000000000000000000000000000000000000000090818116936004811061218057505050565b60040360031b82901b16169150565b6001600160a01b0381161561224057600080918351908260208601915af1906121b6611e97565b91156121c0575090565b80516000919060041161223a576121d79150612145565b8151156121e75750805190602001fd5b6024907fffffffff00000000000000000000000000000000000000000000000000000000604051917f21c09d34000000000000000000000000000000000000000000000000000000008352166004820152fd5b506121d7565b606460405162461bcd60e51b815260206004820152601260248201527f6f776e2e696e76616c69642e74617267657400000000000000000000000000006044820152fdfea26469706673582212202a4503b58edd93aa20b89aff89a807c3322de73325dc061ca57e9f526c96baaa64736f6c6343000814003360803462001add57601f6200491738819003918201601f19168301916001600160401b0383118484101762001ae25780849260209460405283398101031262001add57516001600160a01b0381169081900362001add57801562001a985760018060a01b031933816001541617600155600054161760005560a760165561010e601755601e601b556001601c556001601d556002601e5561c350601f556102586020556003602155601960225568878678326eac900000602355670de0b6b3a764000060245569021e19e0c9bab240000060255560016026556005602f5560ff196030541660305561025860c0620000f662001b38565b6002815260646020820152600160408201526023606082015260646080820152600160a082015201526002600755606460085560016009556023600a556064600b556001600c55610258600d5560b460606200015162001b81565b60198152600a6020820152605a604082015201526019600e55600a600f55605a60105560b46011556200018362001b81565b600581526001602082015260b460606101689283604082015201526005601255600160135560145560b4601555600160a0620001be62001b38565b600481528260208201528260408201528260608201528260808201528260c0820152015260046018556501010101010165ffffffffffff1960195416176019556200020862001b81565b610258606061014092838152600b6020820152600a60408201520152602755600b602855600a602955610258602a5561025860606200024662001b81565b60d28152600b6020820152600a6040820152015260d2602b55600b602c55600a602d55610258602e556200035e6200027d62001af8565b60008082526020808301828152604084018381526060850184815261270f60808701908152948052600490935293517f17ef568e3e12ab5b9c7254a8d58478811de00f9e6eb34345acd53bf8fd09d3ec55517f17ef568e3e12ab5b9c7254a8d58478811de00f9e6eb34345acd53bf8fd09d3ed5591517f17ef568e3e12ab5b9c7254a8d58478811de00f9e6eb34345acd53bf8fd09d3ee5590517f17ef568e3e12ab5b9c7254a8d58478811de00f9e6eb34345acd53bf8fd09d3ef55517f17ef568e3e12ab5b9c7254a8d58478811de00f9e6eb34345acd53bf8fd09d3f055565b620004536200036c62001af8565b60078152601960208083019182526000604084018181526060850182815261270f608087019081526001909352600490935293517fabd6e7cb50984ff9c2f3e18a2660c3353dadf4e3291deeb275dae2cd1e44fe055591517fabd6e7cb50984ff9c2f3e18a2660c3353dadf4e3291deeb275dae2cd1e44fe065591517fabd6e7cb50984ff9c2f3e18a2660c3353dadf4e3291deeb275dae2cd1e44fe075590517fabd6e7cb50984ff9c2f3e18a2660c3353dadf4e3291deeb275dae2cd1e44fe0855517fabd6e7cb50984ff9c2f3e18a2660c3353dadf4e3291deeb275dae2cd1e44fe0955565b620005486200046162001af8565b60078152606460208083019182526000604084018181526060850182815261270f608087019081526002909352600490935293517f91da3fd0782e51c6b3986e9e672fd566868e71f3dbc2d6c2cd6fbb3e361af2a75591517f91da3fd0782e51c6b3986e9e672fd566868e71f3dbc2d6c2cd6fbb3e361af2a85591517f91da3fd0782e51c6b3986e9e672fd566868e71f3dbc2d6c2cd6fbb3e361af2a95590517f91da3fd0782e51c6b3986e9e672fd566868e71f3dbc2d6c2cd6fbb3e361af2aa55517f91da3fd0782e51c6b3986e9e672fd566868e71f3dbc2d6c2cd6fbb3e361af2ab55565b6200063e6200055662001af8565b600781526101f46020808301918252600360408401818152600060608601818152601e6080880190815293909152600490935293517f2e174c10e159ea99b867ce3205125c24a42d128804e4070ed6fcc8cc98166aa05591517f2e174c10e159ea99b867ce3205125c24a42d128804e4070ed6fcc8cc98166aa15591517f2e174c10e159ea99b867ce3205125c24a42d128804e4070ed6fcc8cc98166aa25590517f2e174c10e159ea99b867ce3205125c24a42d128804e4070ed6fcc8cc98166aa355517f2e174c10e159ea99b867ce3205125c24a42d128804e4070ed6fcc8cc98166aa455565b620007326200064c62001af8565b600781526107d06020808301918252600460408401818152600060608601818152601e60808801908152918490529290935293517f1a1e6821cde7d0159c0d293177871e09677b4e42307c7db3ba94f8648a5a050f5591517f1a1e6821cde7d0159c0d293177871e09677b4e42307c7db3ba94f8648a5a05105591517f1a1e6821cde7d0159c0d293177871e09677b4e42307c7db3ba94f8648a5a051155517f1a1e6821cde7d0159c0d293177871e09677b4e42307c7db3ba94f8648a5a051255517f1a1e6821cde7d0159c0d293177871e09677b4e42307c7db3ba94f8648a5a051355565b620008276200074062001af8565b6007815261138860208083019182526004604084018181526060850182815261270f6080870190815260056000529290935293517f04cde762ef08b6b6c5ded8e8c4c0b3f4e5c9ad7342c88fcc93681b4588b73f055591517f04cde762ef08b6b6c5ded8e8c4c0b3f4e5c9ad7342c88fcc93681b4588b73f065591517f04cde762ef08b6b6c5ded8e8c4c0b3f4e5c9ad7342c88fcc93681b4588b73f075590517f04cde762ef08b6b6c5ded8e8c4c0b3f4e5c9ad7342c88fcc93681b4588b73f0855517f04cde762ef08b6b6c5ded8e8c4c0b3f4e5c9ad7342c88fcc93681b4588b73f0955565b6200091c6200083562001af8565b6007815261271060208083019182526004604084018181526060850182815261270f6080870190815260066000529290935293517fc59312466997bb42aaaf719ece141047820e6b34531e1670dc1852a453648f0f5591517fc59312466997bb42aaaf719ece141047820e6b34531e1670dc1852a453648f105591517fc59312466997bb42aaaf719ece141047820e6b34531e1670dc1852a453648f115590517fc59312466997bb42aaaf719ece141047820e6b34531e1670dc1852a453648f1255517fc59312466997bb42aaaf719ece141047820e6b34531e1670dc1852a453648f1355565b62000a126200092a62001af8565b60078082526161a860208084019182526004604085018181526060860182815261270f608088019081526000969096529190925293517fbeb3bad75134cb432e5707980e3245c52c5998a1125ee30f2f0dbf3925b1e5515590517fbeb3bad75134cb432e5707980e3245c52c5998a1125ee30f2f0dbf3925b1e55255517fbeb3bad75134cb432e5707980e3245c52c5998a1125ee30f2f0dbf3925b1e5535590517fbeb3bad75134cb432e5707980e3245c52c5998a1125ee30f2f0dbf3925b1e55455517fbeb3bad75134cb432e5707980e3245c52c5998a1125ee30f2f0dbf3925b1e55555565b62000b0362000a2062001af8565b60008082526006602080840182815260016040860181815260056060880190815260808801838152929096529390925293517f3e5fec24aa4dc4e5aee2e025e51e1392c72a2500577559fae9665c6d52bd6a315592517f3e5fec24aa4dc4e5aee2e025e51e1392c72a2500577559fae9665c6d52bd6a3255517f3e5fec24aa4dc4e5aee2e025e51e1392c72a2500577559fae9665c6d52bd6a3355517f3e5fec24aa4dc4e5aee2e025e51e1392c72a2500577559fae9665c6d52bd6a3455517f3e5fec24aa4dc4e5aee2e025e51e1392c72a2500577559fae9665c6d52bd6a3555565b62000bf662000b1162001af8565b600080825260036020808401918252600160408501818152600560608701908152608087019283526002909552600690925293517f8819ef417987f8ae7a81f42cdfb18815282fe989326fbff903d13cf0e03ace295590517f8819ef417987f8ae7a81f42cdfb18815282fe989326fbff903d13cf0e03ace2a55517f8819ef417987f8ae7a81f42cdfb18815282fe989326fbff903d13cf0e03ace2b55517f8819ef417987f8ae7a81f42cdfb18815282fe989326fbff903d13cf0e03ace2c55517f8819ef417987f8ae7a81f42cdfb18815282fe989326fbff903d13cf0e03ace2d55565b62000cec62000c0462001af8565b60028152600f6020808301918252600a604084019081526005606085019081526001608086019081526003600052600690935293517f75f96ab15d697e93042dc45b5c896c4b27e89bb6eaf39475c5c371cb2513f7d25591517f75f96ab15d697e93042dc45b5c896c4b27e89bb6eaf39475c5c371cb2513f7d35590517f75f96ab15d697e93042dc45b5c896c4b27e89bb6eaf39475c5c371cb2513f7d45590517f75f96ab15d697e93042dc45b5c896c4b27e89bb6eaf39475c5c371cb2513f7d555517f75f96ab15d697e93042dc45b5c896c4b27e89bb6eaf39475c5c371cb2513f7d655565b62000de262000cfa62001af8565b60028152600f6020808301918252600a604084019081526005606085019081526001608086019081526004600052600690935293517fc5069e24aaadb2addc3e52e868fcf3f4f8acf5a87e24300992fd4540c2a87eed5591517fc5069e24aaadb2addc3e52e868fcf3f4f8acf5a87e24300992fd4540c2a87eee5590517fc5069e24aaadb2addc3e52e868fcf3f4f8acf5a87e24300992fd4540c2a87eef5590517fc5069e24aaadb2addc3e52e868fcf3f4f8acf5a87e24300992fd4540c2a87ef055517fc5069e24aaadb2addc3e52e868fcf3f4f8acf5a87e24300992fd4540c2a87ef155565b62000ed862000df062001af8565b60028152600f6020808301918252600a60408401908152600560608501818152600160808701908152600092909252600690935293517fbfd358e93f18da3ed276c3afdbdba00b8f0b6008a03476a6a86bd6320ee6938b5591517fbfd358e93f18da3ed276c3afdbdba00b8f0b6008a03476a6a86bd6320ee6938c5590517fbfd358e93f18da3ed276c3afdbdba00b8f0b6008a03476a6a86bd6320ee6938d55517fbfd358e93f18da3ed276c3afdbdba00b8f0b6008a03476a6a86bd6320ee6938e55517fbfd358e93f18da3ed276c3afdbdba00b8f0b6008a03476a6a86bd6320ee6938f55565b62000fcc62000ee662001af8565b60028152604b602080830191825260646040840181815260fa60608601908152608086019283526006600081905290935293517f697b2bd7bb2984c4e0dc14c79c987d37818484a62958b9c45a0e8b962f20650f5591517f697b2bd7bb2984c4e0dc14c79c987d37818484a62958b9c45a0e8b962f2065105591517f697b2bd7bb2984c4e0dc14c79c987d37818484a62958b9c45a0e8b962f2065115590517f697b2bd7bb2984c4e0dc14c79c987d37818484a62958b9c45a0e8b962f20651255517f697b2bd7bb2984c4e0dc14c79c987d37818484a62958b9c45a0e8b962f20651355565b620010c062000fda62001af8565b60028152604b602080830191825260646040840181815260fa60608601908152608086019283526007600052600690935293517f4ced6d0d36392b04cc5d8761b1327b3bbba6e1089c77f60a9a9ca18e05e4f00e5591517f4ced6d0d36392b04cc5d8761b1327b3bbba6e1089c77f60a9a9ca18e05e4f00f5591517f4ced6d0d36392b04cc5d8761b1327b3bbba6e1089c77f60a9a9ca18e05e4f0105590517f4ced6d0d36392b04cc5d8761b1327b3bbba6e1089c77f60a9a9ca18e05e4f01155517f4ced6d0d36392b04cc5d8761b1327b3bbba6e1089c77f60a9a9ca18e05e4f01255565b620011b4620010ce62001af8565b60028152604b602080830191825260646040840181815260fa60608601908152608086019283526008600052600690935293517fb8d683c9d414f481826f3e7fe14b3ac6ae8c73450778287390c4bb8cb9f2e80b5591517fb8d683c9d414f481826f3e7fe14b3ac6ae8c73450778287390c4bb8cb9f2e80c5591517fb8d683c9d414f481826f3e7fe14b3ac6ae8c73450778287390c4bb8cb9f2e80d5590517fb8d683c9d414f481826f3e7fe14b3ac6ae8c73450778287390c4bb8cb9f2e80e55517fb8d683c9d414f481826f3e7fe14b3ac6ae8c73450778287390c4bb8cb9f2e80f55565b620012a8620011c262001af8565b60028152604b602080830191825260646040840181815260fa60608601908152608086019283526009600052600690935293517fca4d0c6c94a9477136dd41a99cc19ecbe441c8f6609efe7c6fa65be007a473235591517fca4d0c6c94a9477136dd41a99cc19ecbe441c8f6609efe7c6fa65be007a473245591517fca4d0c6c94a9477136dd41a99cc19ecbe441c8f6609efe7c6fa65be007a473255590517fca4d0c6c94a9477136dd41a99cc19ecbe441c8f6609efe7c6fa65be007a4732655517fca4d0c6c94a9477136dd41a99cc19ecbe441c8f6609efe7c6fa65be007a4732755565b6200139c620012b662001af8565b60028152604b602080830191825260646040840181815260fa6060860190815260808601928352600a600052600690935293517f4da38fc8e544afc56a4c2a17752b8ddb67d8e23ac4583c9029d2e2d1dbe6c9885591517f4da38fc8e544afc56a4c2a17752b8ddb67d8e23ac4583c9029d2e2d1dbe6c9895591517f4da38fc8e544afc56a4c2a17752b8ddb67d8e23ac4583c9029d2e2d1dbe6c98a5590517f4da38fc8e544afc56a4c2a17752b8ddb67d8e23ac4583c9029d2e2d1dbe6c98b55517f4da38fc8e544afc56a4c2a17752b8ddb67d8e23ac4583c9029d2e2d1dbe6c98c55565b62001490620013aa62001af8565b60028152604b602080830191825260646040840181815260fa6060860190815260808601928352600b600052600690935293517f85291c2e7881182c13e19eca9b58927ebfdc2c5d04882018eeb33d8241d357115591517f85291c2e7881182c13e19eca9b58927ebfdc2c5d04882018eeb33d8241d357125591517f85291c2e7881182c13e19eca9b58927ebfdc2c5d04882018eeb33d8241d357135590517f85291c2e7881182c13e19eca9b58927ebfdc2c5d04882018eeb33d8241d3571455517f85291c2e7881182c13e19eca9b58927ebfdc2c5d04882018eeb33d8241d3571555565b620015846200149e62001af8565b60028152604b602080830191825260646040840181815260fa6060860190815260808601928352600c600052600690935293517f0b94fa1b86997cc1f1148bfbe25b674e8cefc7cc6f976aa8d7c7966bd4cca3475591517f0b94fa1b86997cc1f1148bfbe25b674e8cefc7cc6f976aa8d7c7966bd4cca3485591517f0b94fa1b86997cc1f1148bfbe25b674e8cefc7cc6f976aa8d7c7966bd4cca3495590517f0b94fa1b86997cc1f1148bfbe25b674e8cefc7cc6f976aa8d7c7966bd4cca34a55517f0b94fa1b86997cc1f1148bfbe25b674e8cefc7cc6f976aa8d7c7966bd4cca34b55565b620016786200159262001af8565b60028152604b602080830191825260646040840181815260fa6060860190815260808601928352600d600052600690935293517f248457bacb20e239ae314d8db91c0f270e453c28ee138c84f97aea6cfcf9a4995591517f248457bacb20e239ae314d8db91c0f270e453c28ee138c84f97aea6cfcf9a49a5591517f248457bacb20e239ae314d8db91c0f270e453c28ee138c84f97aea6cfcf9a49b5590517f248457bacb20e239ae314d8db91c0f270e453c28ee138c84f97aea6cfcf9a49c55517f248457bacb20e239ae314d8db91c0f270e453c28ee138c84f97aea6cfcf9a49d55565b6200176c6200168662001af8565b60028152604b602080830191825260646040840181815260fa6060860190815260808601928352600e600052600690935293517faca6cdb4b5fe0ec50731a73f714dd191dc1911bfeb3f9eeb9e94ed0f6065ef8d5591517faca6cdb4b5fe0ec50731a73f714dd191dc1911bfeb3f9eeb9e94ed0f6065ef8e5591517faca6cdb4b5fe0ec50731a73f714dd191dc1911bfeb3f9eeb9e94ed0f6065ef8f5590517faca6cdb4b5fe0ec50731a73f714dd191dc1911bfeb3f9eeb9e94ed0f6065ef9055517faca6cdb4b5fe0ec50731a73f714dd191dc1911bfeb3f9eeb9e94ed0f6065ef9155565b620018606200177a62001af8565b60028152604b602080830191825260646040840181815260fa6060860190815260808601928352600f600052600690935293517ff130046d53bc87538ab17e4752ba5f5082985eecc06ccb932c5a55e8242dd5025591517ff130046d53bc87538ab17e4752ba5f5082985eecc06ccb932c5a55e8242dd5035591517ff130046d53bc87538ab17e4752ba5f5082985eecc06ccb932c5a55e8242dd5045590517ff130046d53bc87538ab17e4752ba5f5082985eecc06ccb932c5a55e8242dd50555517ff130046d53bc87538ab17e4752ba5f5082985eecc06ccb932c5a55e8242dd50655565b6200186a62001b18565b60128152600a6020808301918252602d604084019081526003600052600590915291517fa9bc9a3a348c357ba16b37005d7e6b3236198c0e939f4af8c5f19b8deeb8ebc055517fa9bc9a3a348c357ba16b37005d7e6b3236198c0e939f4af8c5f19b8deeb8ebc155517fa9bc9a3a348c357ba16b37005d7e6b3236198c0e939f4af8c5f19b8deeb8ebc255620018ff62001b18565b60128152600a6020808301918252605a604084019081526005600081905290915291517f458b30c2d72bfd2c6317304a4594ecbafe5f729d3111b65fdc3a33bd48e5432d55517f458b30c2d72bfd2c6317304a4594ecbafe5f729d3111b65fdc3a33bd48e5432e55517f458b30c2d72bfd2c6317304a4594ecbafe5f729d3111b65fdc3a33bd48e5432f556200199462001b18565b60098152600a602080830182815261270f604080860191825260076000908152600580865296517feddb6698d7c569ff62ff64f1f1492bf14a54594835ba0faac91f84b4f5d814605592517feddb6698d7c569ff62ff64f1f1492bf14a54594835ba0faac91f84b4f5d814615590517feddb6698d7c569ff62ff64f1f1492bf14a54594835ba0faac91f84b4f5d8146255600390925260327fc3a24b0501bd2c13a7e57f2db4369ec4c223447539fc0724a9d55ac4a06ebd4d55600490526101f47f83ec6a1f0257b830b5e016457c9cf1435391bf56cc98f369a58a54fe9377246555601092909255601481905560a760165560175551612d5f908162001bb88239f35b60405162461bcd60e51b815260206004820152601360248201527f6f776e2e696e76616c69642e68657862617365000000000000000000000000006044820152606490fd5b600080fd5b634e487b7160e01b600052604160045260246000fd5b6040519060a082016001600160401b0381118382101762001ae257604052565b60405190606082016001600160401b0381118382101762001ae257604052565b6040519060e082016001600160401b0381118382101762001ae2576040528160c06000918281528260208201528260408201528260608201528260808201528260a08201520152565b60405190608082016001600160401b0381118382101762001ae2576040526000606083828152826020820152826040820152015256fe60806040526004361015610018575b361561001657005b005b60003560e01c806304ce9f80146104185780630609a0e31461041357806307175c831461040e57806309307c62146104095780630b225f1a146104045780630ea0d222146103ff57806312065fe0146103fa57806314be92a5146103f557806315a544ed146103f05780631605aed9146103eb57806316f0115b146103e6578063179b570a146103e1578063192b48ee146103dc5780631ef6a864146103d75780631f185d16146103d2578063203bab66146103cd57806326c5adae146103c8578063298fc460146103c35780633688236d146103be5780633b9b7955146103b95780634151331d146103b4578063438fe192146103af57806344ec16bc146103aa5780634b62954f146103a557806353423e86146103a0578063541d76671461039b57806354541683146103965780635640dbfc14610391578063592a02a81461038c5780635962205f146103875780635a0e9038146103825780636c7deb5d1461037d5780636f092c5e146103785780637687e3711461037357806378ef376f1461036e5780637bc908c6146103695780638da5cb5b1461036457806391fc8aa81461035f5780639319d0b51461035a578063991bf5cc146103555780639d80ab9b146103505780639eb8b44e1461034b5780639f70207d14610346578063a19841dd14610341578063a1f7f5391461033c578063a88fcea614610337578063aebcd32a14610332578063af0b21d31461032d578063af48452614610328578063b49c064c14610323578063b85f1f8d1461031e578063b90306ad14610319578063c54e44b014610314578063c5a136d41461030f578063dbad649c1461030a578063e01ad5fd14610305578063e0a9bc2b14610300578063e19a5bcf146102fb578063eddd0d9c146102f6578063f27c35c6146102f1578063f2a6bbc7146102ec578063f4fe8e3c146102e7578063fc0e74d1146102e25763fdc10bc90361000e57612234565b612211565b61216b565b6120c8565b611fc5565b611f22565b611e44565b611e29565b611d8f565b611d71565b611cc5565b611c23565b611b67565b611b2d565b611b0a565b611ad9565b611abb565b611a53565b611a35565b611987565b61194d565b61192f565b611758565b6116d9565b6115e4565b611541565b611523565b6114fc565b6114de565b61143b565b61137a565b61134e565b6112ab565b611271565b611209565b6110c0565b61102d565b61100f565b610f9e565b610f80565b610ed7565b610e34565b610e16565b610dd3565b610dac565b610d8e565b610ccd565b610c0c565b610b57565b610a47565b610958565b610893565b6107ea565b610799565b61077b565b61075d565b6106ba565b61069e565b610681565b610663565b6105ba565b61059c565b6104df565b346104da5760403660031901126104da576000808080602435600435600181146104a4575b600214610472575b509061046e91604051948594859094939260609260808301968352602083015260408201520152565b0390f35b60125460135460145460165492975090955061046e945092501161049c576017545b929091610445565b601554610494565b935093505050600e5491600f54601054918060165411156000146104d05760026017545b94905061043d565b60026011546104c8565b600080fd5b346104da5760203660031901126104da576105006104fb612480565b61297a565b610509336125c4565b8015610524575b610519906129c5565b610016600435601b55565b5060046001600160a01b036020816000541660405193848092630536340960e21b82525afa9081156105975761051992600092610567575b501633149050610510565b61058991925060203d8111610590575b610581818361239c565b8101906123be565b903861055c565b503d610577565b6123d6565b346104da5760003660031901126104da576020602254604051908152f35b346104da5760403660031901126104da576105d66104fb612480565b6105df336125c4565b8015610600575b6105ef906129c5565b610016602435600435602455602555565b5060046001600160a01b036020816000541660405193848092630536340960e21b82525afa908115610597576105ef92600092610643575b5016331490506105e6565b61065c91925060203d811161059057610581818361239c565b9038610638565b346104da5760003660031901126104da576020602f54604051908152f35b346104da5760003660031901126104da5760208054604051908152f35b346104da5760003660031901126104da57602047604051908152f35b346104da5760203660031901126104da576106d66104fb612480565b6106df336125c4565b80156106fa575b6106ef906129c5565b610016600435602055565b5060046001600160a01b036020816000541660405193848092630536340960e21b82525afa908115610597576106ef9260009261073d575b5016331490506106e6565b61075691925060203d811161059057610581818361239c565b9038610732565b346104da5760003660031901126104da576020602554604051908152f35b346104da5760003660031901126104da576020602454604051908152f35b346104da5760003660031901126104da5760e0600754600854600954600a54600b5490600c5492600d5494604051968752602087015260408601526060850152608084015260a083015260c0820152f35b346104da5760403660031901126104da576108066104fb612480565b61080f336125c4565b8015610830575b61081f906129c5565b610016602435600435601655601755565b5060046001600160a01b036020816000541660405193848092630536340960e21b82525afa9081156105975761081f92600092610873575b501633149050610816565b61088c91925060203d811161059057610581818361239c565b9038610868565b346104da5760203660031901126104da576108af6104fb612480565b6108b8336125c4565b80156108d3575b6108c8906129c5565b610016600435612a56565b5060046001600160a01b036020816000541660405193848092630536340960e21b82525afa908115610597576108c892600092610916575b5016331490506108bf565b61092f91925060203d811161059057610581818361239c565b903861090b565b60a09060031901126104da576004359060243590604435906064359060843590565b346104da5761096636610936565b936109756104fb949294612480565b61097e336125c4565b80156109cd575b906109916002926129c5565b610999612c5a565b50600181146109b8575b146109aa57005b602b55602c55602d55602e55005b82602755836028558460295585602a556109a3565b506001600160a01b039060046020836000541660405192838092630536340960e21b82525afa80156105975760029361099192600092610a16575b503391161491925050610985565b610a2f91925060203d811161059057610581818361239c565b9038610a08565b6001600160a01b038116036104da57565b346104da576020806003193601126104da57600490813590610a6882610a36565b80610a8a610a7e6000546001600160a01b031690565b6001600160a01b031690565b60405194858092634bf9c0ad60e11b82525afa91821561059757610ade610b1893610afa9261046e96600092610b34575b50610aec906040519384918783019190916001600160a01b036020820193169052565b03601f19810184528361239c565b610af461266e565b9061284f565b919080610b2a575b610b0b906126a7565b808251830101910161246b565b60405190151581529081906020820190565b5081518114610b02565b610aec919250610b5090863d881161059057610581818361239c565b9190610abb565b346104da5760e03660031901126104da57610b736104fb612480565b610b7c336125c4565b8015610ba9575b610b8c906129c5565b61001660c43560a435608435606435604435602435600435612c11565b5060046001600160a01b036020816000541660405193848092630536340960e21b82525afa90811561059757610b8c92600092610bec575b501633149050610b83565b610c0591925060203d811161059057610581818361239c565b9038610be1565b346104da5760203660031901126104da57600460206001600160a01b0360005416604051928380926369e8d84b60e11b82525afa801561059757610c71610c959161046e93600091610ca5575b50610c62612cb8565b90610c6b612cd0565b9061293c565b610c9060043591610c8b610c86602254612a10565b612a10565b612d09565b612a43565b6040519081529081906020820190565b610cbd915060203d811161059057610581818361239c565b38610c59565b801515036104da57565b346104da5760203660031901126104da57600435610cea81610cc3565b610cf56104fb612480565b610cfe336125c4565b8015610d24575b90610d12610016926129c5565b60ff8019603054169115151617603055565b506001600160a01b039060046020836000541660405192838092630536340960e21b82525afa80156105975761001693610d1292600092610d6e575b503391161491925050610d05565b610d8791925060203d811161059057610581818361239c565b9038610d60565b346104da5760003660031901126104da576020601f54604051908152f35b346104da5760003660031901126104da5760206001600160a01b0360005416604051908152f35b346104da5760203660031901126104da57600435600052600560205260606040600020805490600260018201549101549060405192835260208301526040820152f35b346104da5760003660031901126104da576020601d54604051908152f35b346104da5760203660031901126104da57610e506104fb612480565b610e59336125c4565b8015610e74575b610e69906129c5565b610016600435601c55565b5060046001600160a01b036020816000541660405193848092630536340960e21b82525afa90811561059757610e6992600092610eb7575b501633149050610e60565b610ed091925060203d811161059057610581818361239c565b9038610eac565b346104da5760403660031901126104da57610ef36104fb612480565b610efc336125c4565b8015610f1d575b610f0c906129c5565b610016602435600435601e55601f55565b5060046001600160a01b036020816000541660405193848092630536340960e21b82525afa90811561059757610f0c92600092610f60575b501633149050610f03565b610f7991925060203d811161059057610581818361239c565b9038610f55565b346104da5760003660031901126104da576020602154604051908152f35b346104da5760203660031901126104da57600460206001600160a01b0360005416604051928380926369e8d84b60e11b82525afa801561059757610ff3610c959161046e93600091610ca55750610c62612cb8565b6004356000526003602052610c8b610c86604060002054612a10565b346104da5760003660031901126104da576020601c54604051908152f35b346104da5760003660031901126104da5760e060185460195460405191825260ff9081811615156020840152818160081c1615156040840152818160101c1615156060840152818160181c1615156080840152818160201c16151560a084015260281c16151560c0820152f35b60c09060031901126104da57600435906024359060443590606435906084359060a43590565b346104da576110ce3661109a565b916110dd6104fb969496612480565b6110e6336125c4565b80156111a6575b6110f6906129c5565b60108410156111625761001695604051956111108761232c565b8652602086015260408501526060840152608083015260005260066020526040600020906080600491805184556020810151600185015560408101516002850155606081015160038501550151910155565b606460405162461bcd60e51b815260206004820152600d60248201527f696e76616c6964206c6576656c000000000000000000000000000000000000006044820152fd5b5060046001600160a01b036020816000541660405193848092630536340960e21b82525afa908115610597576110f6926000926111e9575b5016331490506110ed565b61120291925060203d811161059057610581818361239c565b90386111de565b346104da5760203660031901126104da5760043560005260066020526040600020805461046e6001830154926002810154906004600382015491015491604051958695869192608093969594919660a084019784526020840152604083015260608201520152565b346104da5760003660031901126104da57600e54600f54601054601154604080519485526020850193909352918301526060820152608090f35b346104da5760203660031901126104da576112c76104fb612480565b6112d0336125c4565b80156112eb575b6112e0906129c5565b610016600435602155565b5060046001600160a01b036020816000541660405193848092630536340960e21b82525afa908115610597576112e09260009261132e575b5016331490506112d7565b61134791925060203d811161059057610581818361239c565b9038611323565b346104da5760203660031901126104da5760043560005260036020526020604060002054604051908152f35b346104da5760203660031901126104da5760043561139781610cc3565b6113a26104fb612480565b6113ab336125c4565b80156113d1575b906113bf610016926129c5565b60ff8019601a54169115151617601a55565b506001600160a01b039060046020836000541660405192838092630536340960e21b82525afa801561059757610016936113bf9260009261141b575b5033911614919250506113b2565b61143491925060203d811161059057610581818361239c565b903861140d565b346104da5760203660031901126104da576114576104fb612480565b611460336125c4565b801561147b575b611470906129c5565b610016600435602655565b5060046001600160a01b036020816000541660405193848092630536340960e21b82525afa90811561059757611470926000926114be575b501633149050611467565b6114d791925060203d811161059057610581818361239c565b90386114b3565b346104da5760003660031901126104da576020602654604051908152f35b346104da5760003660031901126104da5760206001600160a01b0360015416604051908152f35b346104da5760003660031901126104da576020602354604051908152f35b346104da5760203660031901126104da5761155d6104fb612480565b611566336125c4565b8015611581575b611576906129c5565b610016600435601d55565b5060046001600160a01b036020816000541660405193848092630536340960e21b82525afa90811561059757611576926000926115c4575b50163314905061156d565b6115dd91925060203d811161059057610581818361239c565b90386115b9565b346104da5760e03660031901126104da5760243561160181610cc3565b60443561160d81610cc3565b60643561161981610cc3565b60843561162581610cc3565b60a4359161163283610cc3565b60c4359361163f85610cc3565b61164a6104fb612480565b611653336125c4565b801561166f575b95611667610016976129c5565b600435612a64565b506001600160a01b039560046020886000541660405192838092630536340960e21b82525afa80156105975761001698611667926000926116b9575b50339116149197505061165a565b6116d291925060203d811161059057610581818361239c565b90386116ab565b346104da5760003660031901126104da57602754602854602954602a54604080519485526020850193909352918301526060820152608090f35b6102a0810192916000915b6007831061172b57505050565b6001906060835191825181526020928381015184830152604080910151908201520192019201919061171e565b346104da5760008060031936011261192c57604090815161177881612348565b815b60e081106119075761046e8461178e6123e2565b60016000526005602052906117c77f1471eb6eb2c5e789fc3de43f8ce62938c7d1836ec861730447e2ada8fd81017b612c90565b612c90565b8252600260005260056020526117fc7f89832631fb3c3307a103ba2c84ab569c64d6182a18893dcd163f0f1c2090733a612c90565b60208301526118196117c260036000526005602052604060002090565b82820152600460005260056020526118507f3eec716f11ba9e820c81ca75eb978ffb45831ef8b7a53e5e422c26008e1ca6d5612c90565b6060830152600560008190526020526118887f458b30c2d72bfd2c6317304a4594ecbafe5f729d3111b65fdc3a33bd48e5432d612c90565b6080830152600660005260056020526118c07f069400f22b28c6c362558d92f66163cec5671cba50b61abd2eecfcd0eaeac518612c90565b60a0830152600760005260056020526118f87feddb6698d7c569ff62ff64f1f1492bf14a54594835ba0faac91f84b4f5d81460612c90565b60c08301525191829182611713565b60209084516119158161230b565b84815284838201528486820152818401520161177a565b80fd5b346104da5760003660031901126104da576020601654604051908152f35b346104da5760003660031901126104da57602b54602c54602d54602e54604080519485526020850193909352918301526060820152608090f35b346104da5760003660031901126104da57600460206001600160a01b03600054166040519283809263d1f956b160e01b82525afa9081156105975761046e91610c9591600091611a17575b506040516119df81612364565b601381527f67657464656c656761746f72436f756e742829000000000000000000000000006020820152611a1161240d565b9161293c565b611a2f915060203d811161059057610581818361239c565b386119d2565b346104da5760003660031901126104da576020601e54604051908152f35b346104da5760203660031901126104da5760043560005260046020526040600020805461046e6001830154926002810154906004600382015491015491604051958695869192608093969594919660a084019784526020840152604083015260608201520152565b346104da5760003660031901126104da576020601b54604051908152f35b346104da5760203660031901126104da576020611b00600435611afb81610a36565b6125c4565b6040519015158152f35b346104da5760003660031901126104da57602060ff603054166040519015158152f35b346104da5760003660031901126104da57601254601354601454601554604080519485526020850193909352918301526060820152608090f35b346104da5760203660031901126104da5760046001600160a01b036020816000541660405193848092630536340960e21b82525afa91821561059757600092611c03575b5033911603611bbf5761001660043561275b565b606460405162461bcd60e51b815260206004820152600f60248201527f6f776e2e6e6f6e617574682e44414f00000000000000000000000000000000006044820152fd5b611c1c91925060203d811161059057610581818361239c565b9038611bab565b346104da5760203660031901126104da57600435611c4081610a36565b803b6000611c4d826123f1565b92611c5b604051948561239c565b82845260208401903c602d815110611c8157602a015160405160609190911c8152602090f35b606460405162461bcd60e51b815260206004820152601360248201527f4e6f742061206d696e696d616c2070726f7879000000000000000000000000006044820152fd5b346104da5760803660031901126104da57611ce16104fb612480565b611cea336125c4565b8015611d0e575b611cfa906129c5565b610016606435604435602435600435612ba8565b5060046001600160a01b036020816000541660405193848092630536340960e21b82525afa90811561059757611cfa92600092611d51575b501633149050611cf1565b611d6a91925060203d811161059057610581818361239c565b9038611d46565b346104da5760003660031901126104da576020601754604051908152f35b346104da576020806003193601126104da5760048035611dae81610a36565b6001600160a01b03928084600054166040519485809263d1f956b160e01b82525afa9081156105975761046e94610b1894600093611e0a575b506040519316818401528252611dfc82612364565b611e046126f2565b90612900565b611e22919350823d841161059057610581818361239c565b9138611de7565b346104da5760003660031901126104da576020611b00612480565b346104da57611e5236610936565b93611e616104fb949294612480565b611e6a336125c4565b8015611eb9575b90611e7d6002926129c5565b611e85612c5a565b5060018114611ea4575b14611e9657005b601255601355601455601555005b82600e5583600f558460105585601155611e8f565b506001600160a01b039060046020836000541660405192838092630536340960e21b82525afa801561059757600293611e7d92600092611f02575b503391161491925050611e71565b611f1b91925060203d811161059057610581818361239c565b9038611ef4565b346104da5760203660031901126104da57611f3e6104fb612480565b611f47336125c4565b8015611f62575b611f57906129c5565b610016600435602255565b5060046001600160a01b036020816000541660405193848092630536340960e21b82525afa90811561059757611f5792600092611fa5575b501633149050611f4e565b611fbe91925060203d811161059057610581818361239c565b9038611f9a565b346104da57611fd33661109a565b91611fe26104fb969496612480565b611feb336125c4565b801561205e575b95611fff610016976129c5565b6040519561200c8761232c565b8652602086015260408501526060840152608083015260005260046020526040600020906080600491805184556020810151600185015560408101516002850155606081015160038501550151910155565b506001600160a01b039560046020886000541660405192838092630536340960e21b82525afa80156105975761001698611fff926000926120a8575b503391161491975050611ff2565b6120c191925060203d811161059057610581818361239c565b903861209a565b346104da5760203660031901126104da576120e46104fb612480565b6120ed336125c4565b8015612108575b6120fd906129c5565b610016600435602f55565b5060046001600160a01b036020816000541660405193848092630536340960e21b82525afa908115610597576120fd9260009261214b575b5016331490506120f4565b61216491925060203d811161059057610581818361239c565b9038612140565b346104da5760403660031901126104da576121876104fb612480565b612190336125c4565b80156121ae575b6121a0906129c5565b610016602435600435612bf5565b5060046001600160a01b036020816000541660405193848092630536340960e21b82525afa908115610597576121a0926000926121f1575b501633149050612197565b61220a91925060203d811161059057610581818361239c565b90386121e6565b346104da5760003660031901126104da57602060ff601a54166040519015158152f35b346104da5760003660031901126104da57600460206001600160a01b0360005416604051928380927f447aa3040000000000000000000000000000000000000000000000000000000082525afa9081156105975761046e91610c95916000916122d7575b506040516122a581612364565b600581527f61676528290000000000000000000000000000000000000000000000000000006020820152611a1161240d565b6122ef915060203d811161059057610581818361239c565b38612298565b634e487b7160e01b600052604160045260246000fd5b6060810190811067ffffffffffffffff82111761232757604052565b6122f5565b60a0810190811067ffffffffffffffff82111761232757604052565b60e0810190811067ffffffffffffffff82111761232757604052565b6040810190811067ffffffffffffffff82111761232757604052565b6020810190811067ffffffffffffffff82111761232757604052565b90601f8019910116810190811067ffffffffffffffff82111761232757604052565b908160209103126104da57516123d381610a36565b90565b6040513d6000823e3d90fd5b604051906123ef82612348565b565b67ffffffffffffffff811161232757601f01601f191660200190565b6040519061241a82612380565b60008252565b1561242757565b606460405162461bcd60e51b815260206004820152601960248201527f6f776e2e7361666567756172642e63616c6c2e6661696c6564000000000000006044820152fd5b908160209103126104da57516123d381610cc3565b6001600160a01b03600054166040518091634bf9c0ad60e11b825281600460209384935afa918215610597576123d39261250891600091612523575b506040516124c981612364565b600881527f697353616665282900000000000000000000000000000000000000000000000084820152604051916124ff83612380565b6000835261284f565b919080612519575b610b0b90612420565b5081518114612510565b61253a9150833d851161059057610581818361239c565b386124bc565b6040519061254d82612364565b601582527f69735365637572654261736528616464726573732900000000000000000000006020830152565b1561258057565b606460405162461bcd60e51b815260206004820152601a60248201527f6f776e2e736563757265626173652e63616c6c2e6661696c65640000000000006044820152fd5b6000546001600160a01b0316604051918291634bf9c0ad60e11b835282600460209485935afa928315610597576123d39361263092610ade9260009261264b575b50612628906040519384918783019190916001600160a01b036020820193169052565b610af4612540565b919080612641575b610b0b90612579565b5081518114612638565b61262891925061266790863d881161059057610581818361239c565b9190612605565b6040519061267b82612364565b601182527f69735369676e65722861646472657373290000000000000000000000000000006020830152565b156126ae57565b606460405162461bcd60e51b815260206004820152601660248201527f6f776e2e7369676e65722e63616c6c2e6661696c6564000000000000000000006044820152fd5b604051906126ff82612364565b601882527f697364656c656761746f724e6f646528616464726573732900000000000000006020830152565b3d15612756573d9061273c826123f1565b9161274a604051938461239c565b82523d6000602084013e565b606090565b6000600460206001600160a01b03835416604051928380927f46f991ac0000000000000000000000000000000000000000000000000000000082525afa908115610597578284819382938391612831575b505af16127b761272b565b50156127ed5760405190815233907fcdcc745fe377b103b45fa0cec23ae3ef93d6fc6a84a01f0d18c40b354dd1d5d890602090a2565b606460405162461bcd60e51b815260206004820152600f60248201527f6f776e2e6275726e2e6661696c656400000000000000000000000000000000006044820152fd5b612849915060203d811161059057610581818361239c565b386127ac565b9190823b156128e7577fffffffff00000000000000000000000000000000000000000000000000000000815160208093012016916040519180830193845281519160005b8381106128d35750505091816128c06024826000979596889701878382015203600481018452018261239c565b5191620dbba0fa6128cf61272b565b9091565b818101830151858201602401528201612893565b5050506000906040516128f981612380565b6000815290565b929161290e9160009461284f565b9080612931575b61291c5750565b6123d39192506020808251830101910161246b565b506020815114612915565b929161294a9160009461284f565b908061296f575b6129585750565b9091506020818051810103126104da576020015190565b506020815114612951565b1561298157565b606460405162461bcd60e51b815260206004820152601260248201527f6f776e2e696e76616c69642e69735361666500000000000000000000000000006044820152fd5b156129cc57565b606460405162461bcd60e51b815260206004820152601b60248201527f6f776e2e6e6f6e617574682e44414f6f725365637572656261736500000000006044820152fd5b90670de0b6b3a764000091828102928184041490151715612a2d57565b634e487b7160e01b600052601160045260246000fd5b81810292918115918404141715612a2d57565b612a5f90612a10565b602355565b612b3c946123ef9794612ad5612b1d95612b009460c09a9660405190612a8982612348565b8282521515928360208301521515948560408301521515958660608301521515978860808301521515998a60a083015215159b8c91015260185560ff8019601954169115151617601955565b6019805462ffff00191660089290921b61ff00169190911791151560101b62ff000016919091179055565b63ff00000060195491151560181b169063ff000000191617601955565b64ff0000000060195491151560201b169064ff00000000191617601955565b65ff000000000060195491151560281b169065ff0000000000191617601955565b15612b6457565b606460405162461bcd60e51b815260206004820152600c60248201527f696e76616c69642072616e6b00000000000000000000000000000000000000006044820152fd5b91600292939193612bbb60088210612b5d565b60405194612bc88661230b565b85526020850191825260408501928352600052600560205260406000209351845551600184015551910155565b612c0160088210612b5d565b6000526003602052604060002055565b8660c0604051612c2081612348565b8381528460208201528560408201528660608201528760808201528860a08201520152600755600855600955600a55600b55600c55600d55565b604051906080820182811067ffffffffffffffff8211176123275760405260006060838281528260208201528260408201520152565b90604051612c9d8161230b565b60406002829480548452600181015460208501520154910152565b604051612cc481612380565b60008152906000368137565b60405190612cdd82612364565b601282527f6f7a6f6e655072696365496e55534454282900000000000000000000000000006020830152565b8115612d13570490565b634e487b7160e01b600052601260045260246000fdfea2646970667358221220b860fb754006fbd76f9dc36813e5f9833d143de06be7072a78116569a7966ebb64736f6c63430008140033","linkReferences":{}},"methodIdentifiers":{"rule741()":"0a5b38ab","transferRequest()":"3da8676f"},"id":69}