{"abi":[{"type":"constructor","inputs":[{"name":"_hex","type":"address","internalType":"address"}],"stateMutability":"nonpayable"},{"type":"function","name":"rule741","inputs":[],"outputs":[{"name":"","type":"address","internalType":"address"}],"stateMutability":"view"},{"type":"function","name":"transferRequest","inputs":[],"outputs":[{"name":"","type":"address","internalType":"address"}],"stateMutability":"view"}],"bytecode":{"object":"0x6080346200012d57601f62006bb538819003918201601f19168301926001600160401b0392909183851183861017620001175781602092849260409788528339810103126200012d57516001600160a01b0390818116908190036200012d578351906144e19182810192818410868511176200011757620026d4823981835260208160009403019083f09384156200010d5782549484166001600160a01b03199586161783558551916124e88084019284841090841117620000f957918391602093620001ec8439815203019082f0908115620000ee5750169060015416176001555160b99081620001338239f35b8451903d90823e3d90fd5b634e487b7160e01b85526041600452602485fd5b85513d84823e3d90fd5b634e487b7160e01b600052604160045260246000fd5b600080fdfe6080806040526004361015601257600080fd5b600090813560e01c9081630a5b38ab14605d5750633da8676f14603457600080fd5b34605a5780600319360112605a576001546040516001600160a01b039091168152602090f35b80fd5b905034607f5781600319360112607f5790546001600160a01b03168152602090f35b5080fdfea2646970667358221220c8bb225c391fe2b7ff7543cd9eee7052430e93341a6765880a2aab7c9c0128e164736f6c634300081400336080346100ca57601f6124e838819003918201601f19168301916001600160401b038311848410176100cf578084926020946040528339810103126100ca57516001600160a01b038116908190036100ca5780156100855760018060a01b0319338160015416176001556000541617600055600160035560405161240290816100e68239f35b60405162461bcd60e51b815260206004820152601360248201527f6f776e2e696e76616c69642e68657862617365000000000000000000000000006044820152606490fd5b600080fd5b634e487b7160e01b600052604160045260246000fdfe60806040526004361015610018575b361561001657005b005b60003560e01c806312065fe0146101c857806313a52c8c146101c357806318c864e3146101be5780631f185d16146101b957806324480afe146101b45780633676bd1f146101af5780633b9b7955146101aa578063479fa2c3146101a557806349fbed12146101a05780634ef260a91461019b57806376e8217d146101965780638da5cb5b14610191578063a1f7f5391461018c578063ab7e46ae14610187578063ac23334514610182578063af4845261461017d578063b8f1759a14610178578063b90306ad14610173578063c1e6cec21461016e578063c54e44b014610169578063cab3cc8d14610164578063cb84b34b1461015f578063e01ad5fd1461015a578063e0a9bc2b14610155578063e846034a14610150578063fdc10bc91461014b5763ff585caf0361000e57610e9f565b610e7c565b610e5e565b610dbc565b610d1d565b610cc7565b610ca9565b610c10565b610bd3565b610acc565b610a71565b610a40565b610a07565b6109ac565b6108dd565b6108b4565b610842565b610782565b610653565b6105a2565b610579565b61054e565b610530565b61040b565b61037c565b610287565b346101e45760003660031901126101e457602047604051908152f35b600080fd5b6001600160a01b038116036101e457565b634e487b7160e01b600052604160045260246000fd5b6040810190811067ffffffffffffffff82111761022c57604052565b6101fa565b6020810190811067ffffffffffffffff82111761022c57604052565b90601f8019910116810190811067ffffffffffffffff82111761022c57604052565b67ffffffffffffffff811161022c5760051b60200190565b346101e45760403660031901126101e4576004356102a4816101e9565b60243567ffffffffffffffff81116101e457366023820112156101e45780600401356102cf8161026f565b916102dd604051938461024d565b81835260209160248385019160051b830101913683116101e457602401905b82821061030d576100168587610f17565b838091833561031b816101e9565b8152019101906102fc565b634e487b7160e01b600052603260045260246000fd5b600554811015610377576006906005600052027f036b6384b5eca791c62761152d0c79bb0604c104a5fb6f4eb0703f3154bb3db00190600090565b610326565b346101e45760203660031901126101e4576004356005548110156101e4576103a39061033c565b508054600182015460038301546004840154600590940154604080516001600160a01b03958616815294909316602085015260ff91821615159284019290925260608301939093528281161515608083015260081c909116151560a082015260c090f35b0390f35b346101e4576020806003193601126101e45760049081359061042c826101e9565b600054819061044b906001600160a01b03165b6001600160a01b031690565b604051634bf9c0ad60e11b815294859182905afa91821561052b576104a26104dc936104be92610407966000926104f8575b506040516001600160a01b0390911685820190815290926104b0918491602090910190565b03601f19810184528361024d565b6104b8611fe3565b906121a6565b9190806104ee575b6104cf90612010565b8082518301019101611ea6565b60405190151581529081906020820190565b50815181146104c6565b6104b091925061051d90863d8811610524575b610515818361024d565b81019061125c565b919061047d565b503d61050b565b611274565b346101e45760003660031901126101e4576020600754604051908152f35b346101e45760203660031901126101e457610567611cd7565b6105726004356118a4565b6001600355005b346101e45760003660031901126101e4576000546040516001600160a01b039091168152602090f35b346101e45760203660031901126101e45760043580151580610647575b6105c89061135f565b6000198101908111610642576105dd9061033c565b508054600182015460058301546003840154600490940154604080516001600160a01b03958616815294909316602085015260ff80831615159385019390935260089190911c82161515606084015292161515608082015260a081019190915260c090f35b611176565b506005548111156105bf565b346101e45760203660031901126101e45760043561066f611cd7565b61067c6064821115611609565b61068d61068830611f37565b611655565b6106ac6007916106a783546106a0612055565b1015611d76565b611db5565b9060005b82518110156106e5576106e0906106db6106d68454806106d08589611de7565b52611733565b600755565b611733565b6106b0565b6000548390600490602090610702906001600160a01b031661043f565b60405163ab6e844f60e01b815292839182905afa801561052b57610753926104a29260009261075e575b50604051637aefe0bb60e01b60208201529261074e9184919060248301611dfb565b612311565b506100166001600355565b61074e91925061077b9060203d811161052457610515818361024d565b919061072c565b346101e45760203660031901126101e45760043561079f816101e9565b6001600160a01b03166000818152600460205260408120549091906000198101908111610642576107d160059161033c565b500161010061ff00198254161790558082526004602052816040812055600654600160401b81101561022c576001810180600655811015610377577ff652222313e28459528d920b65115c16c04f3efc82aaedc97be59f3f377c0d3f0180546001600160a01b031916909117905580f35b346101e45760403660031901126101e457600435801515806108a8575b6108689061135f565b60001981019081116106425761088f61088260209261033c565b5060026024359101610994565b905460405160039290921b1c6001600160a01b03168152f35b5060055481111561085f565b346101e45760003660031901126101e4576001546040516001600160a01b039091168152602090f35b346101e45760003660031901126101e45760005460405163d1f956b160e01b815290602090829060049082906001600160a01b03165afa90811561052b576104079161096691600091610976575b5060405161093881610210565b601381527267657464656c656761746f72436f756e74282960681b60208201526109606113d6565b916122a4565b6040519081529081906020820190565b61098e915060203d811161052457610515818361024d565b3861092b565b80548210156103775760005260206000200190600090565b346101e45760203660031901126101e4576004356006548110156101e45760066000527ff652222313e28459528d920b65115c16c04f3efc82aaedc97be59f3f377c0d3f01546040516001600160a01b039091168152602090f35b346101e45760203660031901126101e4576020610a2e600435610a29816101e9565b611540565b6040516001600160a01b039091168152f35b346101e45760203660031901126101e4576020610a67600435610a62816101e9565b611f37565b6040519015158152f35b346101e45760203660031901126101e4576004356006548110156103775760066000527ff652222313e28459528d920b65115c16c04f3efc82aaedc97be59f3f377c0d3f01546040516001600160a01b039091168152602090f35b346101e4576020806003193601126101e45760043560018060a01b0391600092808454169060405191630536340960e21b83528383600481845afa92831561052b576004938593610b27928992610bb4575b50163314611321565b6040516311be646b60e21b815292839182905afa91821561052b57848085610b6695829583958492610b97575b50505af1610b6061210d565b5061213d565b60405190815233907fcdcc745fe377b103b45fa0cec23ae3ef93d6fc6a84a01f0d18c40b354dd1d5d890602090a280f35b610bad9250803d1061052457610515818361024d565b3880610b54565b610bcc919250853d871161052457610515818361024d565b9038610b1e565b346101e45760203660031901126101e457600435610bf0816101e9565b60018060a01b031660005260046020526020604060002054604051908152f35b346101e45760203660031901126101e457600435610c2d816101e9565b803b6000610c3a826113ba565b92610c48604051948561024d565b82845260208401903c602d815110610c6e57602a015160405160609190911c8152602090f35b60405162461bcd60e51b81526020600482015260136024820152724e6f742061206d696e696d616c2070726f787960681b6044820152606490fd5b346101e45760003660031901126101e4576020600554604051908152f35b346101e45760203660031901126101e45760043580151580610d11575b610ced9061135f565b6000198101908111610642576002610d0660209261033c565b500154604051908152f35b50600554811115610ce4565b346101e4576020806003193601126101e45760048035610d3c816101e9565b60005460405163d1f956b160e01b81526001600160a01b03949093909182918591829088165afa90811561052b57610407946104dc94600093610d9d575b506040519316818401528252610d8f82610210565b610d976120e0565b90612268565b610db5919350823d841161052457610515818361024d565b9138610d7a565b346101e45760003660031901126101e457600054604051634bf9c0ad60e11b8152906020908190839060049082906001600160a01b03165afa90811561052b57610e266104dc9261040794600091610e41575b50610e18611e36565b610e206113d6565b916121a6565b919080610e37575b6104cf90611e5a565b5081518114610e2e565b610e589150833d851161052457610515818361024d565b38610e0f565b346101e45760003660031901126101e4576020600654604051908152f35b346101e45760003660031901126101e4576020610e97612055565b604051908152f35b346101e45760203660031901126101e457600054604051630536340960e21b8152906001600160a01b03906020908390600490829085165afa90811561052b57610ef392600092610efe5750163314611321565b61001660043561143e565b610bcc91925060203d811161052457610515818361024d565b6001600160a01b038116156110ac57336000908152600460205260409020610f409054156110e6565b610f6b610f4b611127565b5080546001600160a01b0319166001600160a01b03909316929092178255565b6001810180546001600160a01b0319163317815591610fa490610f9260028401918261118c565b6001546001600160a01b031690611221565b60055460046040519182610fce60209263ff585caf60e01b84840152602483019190602083019252565b03610fe1601f199182810186528561024d565b6000548290610ff8906001600160a01b031661043f565b604051630536340960e21b815294859182905afa92831561052b57600494611066946110599361104d9360009261108b575b5060405163d3a3084960e01b8782015293919261074e92859130602484016112a3565b0390810184528361024d565b8051810182019101611312565b91015560055490546001600160a01b0316600090815260046020526040902055565b55565b61074e92506110a690873d891161052457610515818361024d565b9161102a565b60405162461bcd60e51b815260206004820152601260248201527137bbb7173232b330bab63a1739b2b73232b960711b6044820152606490fd5b156110ed57565b60405162461bcd60e51b815260206004820152601260248201527170726f706f7365722e746f2e65786973747360701b6044820152606490fd5b600554600160401b81101561022c576001810180600555811015610377576006906005600052027f036b6384b5eca791c62761152d0c79bb0604c104a5fb6f4eb0703f3154bb3db00190600090565b634e487b7160e01b600052601160045260246000fd5b81519167ffffffffffffffff831161022c57600160401b831161022c5781548383558084106111f8575b506111cb602080920192600052602060002090565b9060005b8481106111dd575050505050565b83516001600160a01b031683820155928101926001016111cf565b6000838152846020822092830192015b8281106112165750506111b6565b818155600101611208565b8054600160401b81101561022c5761123e91600182018155610994565b819291549060031b9160018060a01b03809116831b921b1916179055565b908160209103126101e45751611271816101e9565b90565b6040513d6000823e3d90fd5b60005b8381106112935750506000910152565b8181015183820152602001611283565b929160809060079260a08652600d60a08701526c2ab9b2b9102a3930b739b332b960991b60c087015260018060a01b031660208601526000604086015260e0606086015280518060e087015261130381610100936020858a019101611280565b601f8019910116850101930152565b908160209103126101e4575190565b1561132857565b60405162461bcd60e51b815260206004820152600f60248201526e6f776e2e6e6f6e617574682e44414f60881b6044820152606490fd5b1561136657565b60405162461bcd60e51b815260206004820152601760248201527f70726f706f7365722e696e76616c69642e666f726d69640000000000000000006044820152606490fd5b60001981019190821161064257565b67ffffffffffffffff811161022c57601f01601f191660200190565b604051906113e382610231565b60008252565b604051906113f682610210565b6012825271676574526573756c742875696e743235362960701b6020830152565b908160a09103126101e4578051916020820151916040810151916080606083015192015190565b801561153d5761145e6114639161145960055482111561135f565b6113ab565b61033c565b50600054611479906001600160a01b031661043f565b906040518092630536340960e21b825281600460209384935afa801561052b576114eb6005926114de6104a260039461151e98600091611520575b506114d060048901546040519384918783019190602083019252565b6114d86113e9565b9061217b565b8051810182019101611417565b858801805460ff19166004831460ff16179055935061150992505050565b101591019060ff801983541691151516179055565b565b6115379150843d861161052457610515818361024d565b386114b4565b50565b6001600160a01b03811660009081526004602052604090205480151590816115fc575b50156115f6576001600160a01b0316600090815260046020526040902061158e9061145e90546113ab565b50600381015460ff1690816115e0575b816115bf575b600091156115bb57546001600160a01b0316905090565b5090565b90506115da6115d6600583015460ff9060081c1690565b1590565b906115a4565b90506115f0600582015460ff1690565b9061159e565b50600090565b9050600554101538611563565b1561161057565b60405162461bcd60e51b815260206004820152601c60248201527f7574696c6974792e62617463682e6c696d69742e6578636565646564000000006044820152606490fd5b1561165c57565b60405162461bcd60e51b815260206004820152601760248201527f7574696c6974792e756e7365637572652e6661696c65640000000000000000006044820152606490fd5b6040516116ad81610231565b60008152906000368137565b604051906116c682610210565b600f82526e6765744e6f646573436f756e74282960881b6020830152565b156116eb57565b60405162461bcd60e51b81526020600482015260136024820152727574696c6974792e696d706f72742e646f6e6560681b6044820152606490fd5b9190820180921161064257565b60001981146106425760010190565b6040519061174f82610210565b601782527f6765744e6f64654279496e6465782875696e74323536290000000000000000006020830152565b1561178257565b60405162461bcd60e51b815260206004820152601660248201527570726f78792e696e76616c69642e696e7374616e636560501b6044820152606490fd5b604051906117cd82610210565b6013825272496e7374546f5573657228616464726573732960681b6020830152565b156117f657565b60405162461bcd60e51b815260206004820152601260248201527170726f78792e696e76616c69642e6e6f646560701b6044820152606490fd5b6040519061183d82610210565b601082526f6765744e6f646528616464726573732960801b6020830152565b519081151582036101e457565b908160a09103126101e4578051916020820151611885816101e9565b91604081015191611271608061189d6060850161185c565b930161185c565b6118b16064821115611609565b6118bd61068830611f37565b600080549091906118d6906001600160a01b031661043f565b6040805163111ea8c160e21b808252600495939092916020919082818981855afa801561052b57611920918791611cc0575b506119116116a1565b9061191a6116b9565b906122a4565b958615611cb657835183818a8163ab6e844f60e01b968782525afa90811561052b5761196b91611959918991611c9957506119116116a1565b91611965838a116116e4565b82611726565b96808811611c91575b505b868110611987575050505050505050565b855461199b906001600160a01b031661043f565b90845186815284818b81865afa92831561052b578a918994611c72575b506119f28751806119d0868a83019190602083019252565b03956119e4601f199788810184528361024d565b6119ec611742565b90612224565b6001600160a01b0390611a08818316151561177b565b87895180958c825281865afa93841561052b57818a8f968b8f94611a5f9592611c4d575b5091516001600160a01b0390931691830191825290611a579083906020015b038a810184528361024d565b6119ec6117c0565b92611a6d83851615156117ef565b888a5180968d825281845afa801561052b57611ae18f96611abf8f6001948f91978f9894611ad39592611c2c575b5091516001600160a01b0390921688830190815291929091611acb91849160200190565b038d810184528361024d565b6114d8611830565b848082518301019101611869565b5050509490941693611af48115156117ef565b148015611c23575b611ba6575b5050611b0d8280611cfa565b89548790611b23906001600160a01b031661043f565b8951948580928a82525afa801561052b57611b8095611b7a948c92611b85575b5089516350db85d160e01b8a8201526001600160a01b0393841660248201529390921660448401529061074e90836064810161104d565b50611733565b611976565b61074e9250611ba0908a3d8c1161052457610515818361024d565b91611b43565b8951948580928d82525afa92831561052b578c93611bf992611bed928d92611c00575b508a516001600160a01b039091168a82019081529092611a57918491602090910190565b0388810184528361024d565b8638611b01565b611a57919250611c1c908b3d8d1161052457610515818361024d565b9190611bc9565b50821515611afc565b611acb9250611c47908a3d8c1161052457610515818361024d565b91611a9b565b611a579250611c6b611a4b91833d851161052457610515818361024d565b9250611a2c565b611c8a919450863d881161052457610515818361024d565b92386119b8565b965038611974565b611cb09150863d881161052457610515818361024d565b38611908565b5050505050505050565b611cb09150843d861161052457610515818361024d565b600260035414611ce8576002600355565b604051633ee5aeb560e01b8152600490fd5b60055490600160401b82101561022c57611d1e610f4b83600160059501855561033c565b6001810180546001600160a01b0319166001600160a01b03851617905560038101600160ff1982541617905501600161ffff198254161790556110886005549160018060a01b03166000526004602052604060002090565b15611d7d57565b60405162461bcd60e51b815260206004820152601060248201526f7574696c6974792e6167652e646f6e6560801b6044820152606490fd5b90611dbf8261026f565b611dcc604051918261024d565b8281528092611ddd601f199161026f565b0190602036910137565b80518210156103775760209160051b010190565b6020908160408183019282815285518094520193019160005b828110611e22575050505090565b835185529381019392810192600101611e14565b60405190611e4382610210565b6008825267697353616665282960c01b6020830152565b15611e6157565b60405162461bcd60e51b815260206004820152601960248201527f6f776e2e7361666567756172642e63616c6c2e6661696c6564000000000000006044820152606490fd5b908160209103126101e4576112719061185c565b60405190611ec782610210565b601582527469735365637572654261736528616464726573732960581b6020830152565b15611ef257565b60405162461bcd60e51b815260206004820152601a60248201527f6f776e2e736563757265626173652e63616c6c2e6661696c65640000000000006044820152606490fd5b6000546001600160a01b0316604051918291634bf9c0ad60e11b835282600460209485935afa92831561052b5761127193611fa5926104a292600092611fc0575b506040516001600160a01b039091168582019081529092611f9d918491602090910190565b6104b8611eba565b919080611fb6575b6104cf90611eeb565b5081518114611fad565b611f9d919250611fdc90863d881161052457610515818361024d565b9190611f78565b60405190611ff082610210565b601182527069735369676e657228616464726573732960781b6020830152565b1561201757565b60405162461bcd60e51b81526020600482015260166024820152751bdddb8b9cda59db995c8b98d85b1b0b99985a5b195960521b6044820152606490fd5b60005460405163111ea8c160e21b815290602090829060049082906001600160a01b03165afa801561052b57611271916000916120c2575b5060405161209a81610210565b6005815264616765282960d81b6020820152604051916120b983610231565b600083526122a4565b6120da915060203d811161052457610515818361024d565b3861208d565b604051906120ed82610210565b6011825270697364656c656761746f724e6f6465282960781b6020830152565b3d15612138573d9061211e826113ba565b9161212c604051938461024d565b82523d6000602084013e565b606090565b1561214457565b60405162461bcd60e51b815260206004820152600f60248201526e1bdddb8b989d5c9b8b99985a5b1959608a1b6044820152606490fd5b9061218692916121a6565b9060009015612193575090565b60405191506121a182610231565b815290565b803b1561220b57600092839263ffffffff60e01b906020815191012016906121f860246040518093602082019586526121e88151809260208686019101611280565b810103600481018452018261024d565b5191620dbba0fa61220761210d565b9091565b50505060009060405161221d81610231565b6000815290565b9291612232916000946121a6565b908061225d575b6122405750565b9091506020818051810103126101e4576020015161043f816101e9565b506020815114612239565b9291612276916000946121a6565b9080612299575b6122845750565b61127191925060208082518301019101611ea6565b50602081511461227d565b92916122b2916000946121a6565b90806122d5575b6122c05750565b61127191925060208082518301019101611312565b5060208151146122b9565b906020825192015163ffffffff60e01b90818116936004811061230257505050565b60040360031b82901b16169150565b6001600160a01b0381161561239257600080918351908260208601915af19061233861210d565b9115612342575090565b80516000919060041161238c5761235991506122e0565b8151156123695750805190602001fd5b604051630870274d60e21b81526001600160e01b03199091166004820152602490fd5b50612359565b60405162461bcd60e51b81526020600482015260126024820152711bdddb8b9a5b9d985b1a590b9d185c99d95d60721b6044820152606490fdfea26469706673582212203772a7db1781d965aec4ce0c76072282e8ebfd3bbb2172b5f24bcca4253806e264736f6c634300081400336080346200198157601f620044e138819003918201601f19168301916001600160401b0383118484101762001986578084926020946040528339810103126200198157516001600160a01b03811690819003620019815780156200193c5760018060a01b0319338160015416176001556000541617600055601e6025556001602655600160275560026028556103e8602955610258602a556003602b556019602c5568878678326eac900000602d55670de0b6b3a7640000602f5569021e19e0c9bab2400000603055600160315561014060325560a0603355600560345560ff196035541660355561025860c0620000f662001a1c565b6002815260646020820152600160408201526023606082015260646080820152600160a082015201526002600755606460085560016009556023600a556064600b556001600c55610258600d556200014d6200199c565b6002815261025860c06103f29283602082015260016040820152600b6060820152600a6080820152600160a082015201526002600e5580600f556001601055600b601155600a601255600160135561025860145561025860c0620001b06200199c565b60028152836020820152600160408201526044606082015260646080820152600160a0820152015260026015556016556001601755604460185560646019556001601a55610258601b55607860406200020862001a51565b60198152600a602082015201526019601c55600a601d556078601e5560406200023062001a51565b600a8152600160208201526101689182910152600a601f556001602055602155600160c06200025e62001a1c565b600481528260208201528260408201528260608201528260808201528260a0820152015260046022556501010101010165ffffffffffff19602354161760235562000314620002ac620019bc565b680821ab0d44149800008152601e60208083019182526001600052602e905290517f4e1bfaee23456dd6cf092fb5066e35933f450286bf7ee4d24ec3330c285e042155517f4e1bfaee23456dd6cf092fb5066e35933f450286bf7ee4d24ec3330c285e042255565b6200038a62000322620019bc565b681043561a88293000008152601e60208083019182526002600052602e905290517fd94e2bcc6ed143dd333bd53f075a84d4f0c4906d562552f27ce799455ef3fbfe55517fd94e2bcc6ed143dd333bd53f075a84d4f0c4906d562552f27ce799455ef3fbff55565b6200040062000398620019bc565b682086ac3510526000008152601e60208083019182526003600052602e905290517f9195d495cacf52be485273f02d3734fd98a3782a837f8c47cb8eb6f21940a5b455517f9195d495cacf52be485273f02d3734fd98a3782a837f8c47cb8eb6f21940a5b555565b620004766200040e620019bc565b6830ca024f987b9000008152601e60208083019182526004600052602e905290517f5cde18e55ce81c08b9cd5550e62ab78f9cf8322cd1e8450162ad320300213e1055517f5cde18e55ce81c08b9cd5550e62ab78f9cf8322cd1e8450162ad320300213e1155565b620004ec62000484620019bc565b685150ae84a8cdf000008152601e60208083019182526005600052602e905290517f3390e21c5e6493f95cabf8d53d3fcd6c294d36805c68a3e820e0999fed12367555517f3390e21c5e6493f95cabf8d53d3fcd6c294d36805c68a3e820e0999fed12367655565b62000562620004fa620019bc565b6871d75ab9b9205000008152601e60208083019182526006600052602e905290517ff7ff29c252773d06b0d3e0fc4b8fcea5da74f25b364cda586b7e40ecbb6e01da55517ff7ff29c252773d06b0d3e0fc4b8fcea5da74f25b364cda586b7e40ecbb6e01db55565b620005d862000570620019bc565b68a2a15d09519be000008152601e60208083019182526007600052602e905290517f192bdc05a7b013438e82d7997fc71a400da7596202a0b5448662f297c1b564e055517f192bdc05a7b013438e82d7997fc71a400da7596202a0b5448662f297c1b564e155565b62000646620005e6620019bc565b600781526019602080830191825260016000526003905290517fa15bc60c955c405d20d9149c709e2460f1c2d9a497496a7f46004d1772c3054c55517fa15bc60c955c405d20d9149c709e2460f1c2d9a497496a7f46004d1772c3054d55565b620006b462000654620019bc565b600781526064602080830191825260026000526003905290517fc3a24b0501bd2c13a7e57f2db4369ec4c223447539fc0724a9d55ac4a06ebd4d55517fc3a24b0501bd2c13a7e57f2db4369ec4c223447539fc0724a9d55ac4a06ebd4e55565b62000723620006c2620019bc565b600781526101f4602080830191825260036000819052905290517fcbc4e5fb02c3d1de23a9f1e014b4d2ee5aeaea9505df5e855c9210bf472495af55517fcbc4e5fb02c3d1de23a9f1e014b4d2ee5aeaea9505df5e855c9210bf472495b055565b6200079262000731620019bc565b600781526107d0602080830191825260046000526003905290517f83ec6a1f0257b830b5e016457c9cf1435391bf56cc98f369a58a54fe9377246555517f83ec6a1f0257b830b5e016457c9cf1435391bf56cc98f369a58a54fe9377246655565b62000801620007a0620019bc565b60078152611388602080830191825260056000526003905290517f405aad32e1adbac89bb7f176e338b8fc6e994ca210c9bb7bdca249b46594225055517f405aad32e1adbac89bb7f176e338b8fc6e994ca210c9bb7bdca249b46594225155565b620008706200080f620019bc565b60078152612710602080830191825260066000526003905290517fc69056f16cbaa3c616b828e333ab7d3a32310765507f8f58359e99ebb7a885f355517fc69056f16cbaa3c616b828e333ab7d3a32310765507f8f58359e99ebb7a885f455565b620008e26200087e620019bc565b60078082526161a86020808401918252600092909252600390915290517ff2c49132ed1cee2a7e75bde50d332a2f81f1d01e5456d8a19d1df09bd561dbd255517ff2c49132ed1cee2a7e75bde50d332a2f81f1d01e5456d8a19d1df09bd561dbd355565b620008ec620019dc565b60008082526006602080840182815260016040860181815260056060880190815260808801838152929096529390925293517f3e5fec24aa4dc4e5aee2e025e51e1392c72a2500577559fae9665c6d52bd6a315592517f3e5fec24aa4dc4e5aee2e025e51e1392c72a2500577559fae9665c6d52bd6a3255517f3e5fec24aa4dc4e5aee2e025e51e1392c72a2500577559fae9665c6d52bd6a3355517f3e5fec24aa4dc4e5aee2e025e51e1392c72a2500577559fae9665c6d52bd6a3455517f3e5fec24aa4dc4e5aee2e025e51e1392c72a2500577559fae9665c6d52bd6a3555620009d7620019dc565b60018082526003602080840191825260408401838152600560608601908152608086019485526002600052600690925293517f8819ef417987f8ae7a81f42cdfb18815282fe989326fbff903d13cf0e03ace295590517f8819ef417987f8ae7a81f42cdfb18815282fe989326fbff903d13cf0e03ace2a5591517f8819ef417987f8ae7a81f42cdfb18815282fe989326fbff903d13cf0e03ace2b5590517f8819ef417987f8ae7a81f42cdfb18815282fe989326fbff903d13cf0e03ace2c55517f8819ef417987f8ae7a81f42cdfb18815282fe989326fbff903d13cf0e03ace2d5562000ac4620019dc565b60028152600f6020808301918252600a604084019081526005606085019081526001608086019081526003600052600690935293517f75f96ab15d697e93042dc45b5c896c4b27e89bb6eaf39475c5c371cb2513f7d25591517f75f96ab15d697e93042dc45b5c896c4b27e89bb6eaf39475c5c371cb2513f7d35590517f75f96ab15d697e93042dc45b5c896c4b27e89bb6eaf39475c5c371cb2513f7d45590517f75f96ab15d697e93042dc45b5c896c4b27e89bb6eaf39475c5c371cb2513f7d555517f75f96ab15d697e93042dc45b5c896c4b27e89bb6eaf39475c5c371cb2513f7d65562000bb4620019dc565b60028152600f6020808301918252600a604084019081526005606085019081526001608086019081526004600052600690935293517fc5069e24aaadb2addc3e52e868fcf3f4f8acf5a87e24300992fd4540c2a87eed5591517fc5069e24aaadb2addc3e52e868fcf3f4f8acf5a87e24300992fd4540c2a87eee5590517fc5069e24aaadb2addc3e52e868fcf3f4f8acf5a87e24300992fd4540c2a87eef5590517fc5069e24aaadb2addc3e52e868fcf3f4f8acf5a87e24300992fd4540c2a87ef055517fc5069e24aaadb2addc3e52e868fcf3f4f8acf5a87e24300992fd4540c2a87ef15562000ca4620019dc565b60028152600f6020808301918252600a60408401908152600560608501818152600160808701908152600092909252600690935293517fbfd358e93f18da3ed276c3afdbdba00b8f0b6008a03476a6a86bd6320ee6938b5591517fbfd358e93f18da3ed276c3afdbdba00b8f0b6008a03476a6a86bd6320ee6938c5590517fbfd358e93f18da3ed276c3afdbdba00b8f0b6008a03476a6a86bd6320ee6938d55517fbfd358e93f18da3ed276c3afdbdba00b8f0b6008a03476a6a86bd6320ee6938e55517fbfd358e93f18da3ed276c3afdbdba00b8f0b6008a03476a6a86bd6320ee6938f5562000d94620019dc565b60028152604b602080830191825260646040840181815260fa60608601908152608086019283526006600081905290935293517f697b2bd7bb2984c4e0dc14c79c987d37818484a62958b9c45a0e8b962f20650f5591517f697b2bd7bb2984c4e0dc14c79c987d37818484a62958b9c45a0e8b962f2065105591517f697b2bd7bb2984c4e0dc14c79c987d37818484a62958b9c45a0e8b962f2065115590517f697b2bd7bb2984c4e0dc14c79c987d37818484a62958b9c45a0e8b962f20651255517f697b2bd7bb2984c4e0dc14c79c987d37818484a62958b9c45a0e8b962f2065135562000e82620019dc565b60028152604b602080830191825260646040840181815260fa60608601908152608086019283526007600052600690935293517f4ced6d0d36392b04cc5d8761b1327b3bbba6e1089c77f60a9a9ca18e05e4f00e5591517f4ced6d0d36392b04cc5d8761b1327b3bbba6e1089c77f60a9a9ca18e05e4f00f5591517f4ced6d0d36392b04cc5d8761b1327b3bbba6e1089c77f60a9a9ca18e05e4f0105590517f4ced6d0d36392b04cc5d8761b1327b3bbba6e1089c77f60a9a9ca18e05e4f01155517f4ced6d0d36392b04cc5d8761b1327b3bbba6e1089c77f60a9a9ca18e05e4f0125562000f70620019dc565b60028152604b602080830191825260646040840181815260fa60608601908152608086019283526008600052600690935293517fb8d683c9d414f481826f3e7fe14b3ac6ae8c73450778287390c4bb8cb9f2e80b5591517fb8d683c9d414f481826f3e7fe14b3ac6ae8c73450778287390c4bb8cb9f2e80c5591517fb8d683c9d414f481826f3e7fe14b3ac6ae8c73450778287390c4bb8cb9f2e80d5590517fb8d683c9d414f481826f3e7fe14b3ac6ae8c73450778287390c4bb8cb9f2e80e55517fb8d683c9d414f481826f3e7fe14b3ac6ae8c73450778287390c4bb8cb9f2e80f556200105e620019dc565b60028152604b602080830191825260646040840181815260fa60608601908152608086019283526009600052600690935293517fca4d0c6c94a9477136dd41a99cc19ecbe441c8f6609efe7c6fa65be007a473235591517fca4d0c6c94a9477136dd41a99cc19ecbe441c8f6609efe7c6fa65be007a473245591517fca4d0c6c94a9477136dd41a99cc19ecbe441c8f6609efe7c6fa65be007a473255590517fca4d0c6c94a9477136dd41a99cc19ecbe441c8f6609efe7c6fa65be007a4732655517fca4d0c6c94a9477136dd41a99cc19ecbe441c8f6609efe7c6fa65be007a47327556200114c620019dc565b60028152604b602080830191825260646040840181815260fa6060860190815260808601928352600a600052600690935293517f4da38fc8e544afc56a4c2a17752b8ddb67d8e23ac4583c9029d2e2d1dbe6c9885591517f4da38fc8e544afc56a4c2a17752b8ddb67d8e23ac4583c9029d2e2d1dbe6c9895591517f4da38fc8e544afc56a4c2a17752b8ddb67d8e23ac4583c9029d2e2d1dbe6c98a5590517f4da38fc8e544afc56a4c2a17752b8ddb67d8e23ac4583c9029d2e2d1dbe6c98b55517f4da38fc8e544afc56a4c2a17752b8ddb67d8e23ac4583c9029d2e2d1dbe6c98c556200123a620019dc565b60028152604b602080830191825260646040840181815260fa6060860190815260808601928352600b600052600690935293517f85291c2e7881182c13e19eca9b58927ebfdc2c5d04882018eeb33d8241d357115591517f85291c2e7881182c13e19eca9b58927ebfdc2c5d04882018eeb33d8241d357125591517f85291c2e7881182c13e19eca9b58927ebfdc2c5d04882018eeb33d8241d357135590517f85291c2e7881182c13e19eca9b58927ebfdc2c5d04882018eeb33d8241d3571455517f85291c2e7881182c13e19eca9b58927ebfdc2c5d04882018eeb33d8241d357155562001328620019dc565b60028152604b602080830191825260646040840181815260fa6060860190815260808601928352600c600052600690935293517f0b94fa1b86997cc1f1148bfbe25b674e8cefc7cc6f976aa8d7c7966bd4cca3475591517f0b94fa1b86997cc1f1148bfbe25b674e8cefc7cc6f976aa8d7c7966bd4cca3485591517f0b94fa1b86997cc1f1148bfbe25b674e8cefc7cc6f976aa8d7c7966bd4cca3495590517f0b94fa1b86997cc1f1148bfbe25b674e8cefc7cc6f976aa8d7c7966bd4cca34a55517f0b94fa1b86997cc1f1148bfbe25b674e8cefc7cc6f976aa8d7c7966bd4cca34b5562001416620019dc565b60028152604b602080830191825260646040840181815260fa6060860190815260808601928352600d600052600690935293517f248457bacb20e239ae314d8db91c0f270e453c28ee138c84f97aea6cfcf9a4995591517f248457bacb20e239ae314d8db91c0f270e453c28ee138c84f97aea6cfcf9a49a5591517f248457bacb20e239ae314d8db91c0f270e453c28ee138c84f97aea6cfcf9a49b5590517f248457bacb20e239ae314d8db91c0f270e453c28ee138c84f97aea6cfcf9a49c55517f248457bacb20e239ae314d8db91c0f270e453c28ee138c84f97aea6cfcf9a49d5562001504620019dc565b60028152604b602080830191825260646040840181815260fa6060860190815260808601928352600e600052600690935293517faca6cdb4b5fe0ec50731a73f714dd191dc1911bfeb3f9eeb9e94ed0f6065ef8d5591517faca6cdb4b5fe0ec50731a73f714dd191dc1911bfeb3f9eeb9e94ed0f6065ef8e5591517faca6cdb4b5fe0ec50731a73f714dd191dc1911bfeb3f9eeb9e94ed0f6065ef8f5590517faca6cdb4b5fe0ec50731a73f714dd191dc1911bfeb3f9eeb9e94ed0f6065ef9055517faca6cdb4b5fe0ec50731a73f714dd191dc1911bfeb3f9eeb9e94ed0f6065ef9155620015f2620019dc565b60028152604b602080830191825260646040840181815260fa6060860190815260808601928352600f600052600690935293517ff130046d53bc87538ab17e4752ba5f5082985eecc06ccb932c5a55e8242dd5025591517ff130046d53bc87538ab17e4752ba5f5082985eecc06ccb932c5a55e8242dd5035591517ff130046d53bc87538ab17e4752ba5f5082985eecc06ccb932c5a55e8242dd5045590517ff130046d53bc87538ab17e4752ba5f5082985eecc06ccb932c5a55e8242dd50555517ff130046d53bc87538ab17e4752ba5f5082985eecc06ccb932c5a55e8242dd5065562001771620016e4620019fc565b60128152600a6020808301918252602d604084019081526003600052600490915291517f2e174c10e159ea99b867ce3205125c24a42d128804e4070ed6fcc8cc98166aa055517f2e174c10e159ea99b867ce3205125c24a42d128804e4070ed6fcc8cc98166aa155517f2e174c10e159ea99b867ce3205125c24a42d128804e4070ed6fcc8cc98166aa255565b6200180c6200177f620019fc565b60128152600a6020808301918252605a604084019081526005600052600490915291517f04cde762ef08b6b6c5ded8e8c4c0b3f4e5c9ad7342c88fcc93681b4588b73f0555517f04cde762ef08b6b6c5ded8e8c4c0b3f4e5c9ad7342c88fcc93681b4588b73f0655517f04cde762ef08b6b6c5ded8e8c4c0b3f4e5c9ad7342c88fcc93681b4588b73f0755565b620018a86200181a620019fc565b60098152600a602080830191825261270f604084019081526007600052600490915291517fbeb3bad75134cb432e5707980e3245c52c5998a1125ee30f2f0dbf3925b1e55155517fbeb3bad75134cb432e5707980e3245c52c5998a1125ee30f2f0dbf3925b1e55255517fbeb3bad75134cb432e5707980e3245c52c5998a1125ee30f2f0dbf3925b1e55355565b60056020526802b5e3af16b18800007f89832631fb3c3307a103ba2c84ab569c64d6182a18893dcd163f0f1c2090733a5560046000908152683635c9adc5dea000007f3eec716f11ba9e820c81ca75eb978ffb45831ef8b7a53e5e422c26008e1ca6d5556034556035805460ff1916600117905566038d7ea4c68000602f55600a602c55604051612a70908162001a718239f35b60405162461bcd60e51b815260206004820152601360248201527f6f776e2e696e76616c69642e68657862617365000000000000000000000000006044820152606490fd5b600080fd5b634e487b7160e01b600052604160045260246000fd5b6040519060e082016001600160401b038111838210176200198657604052565b60408051919082016001600160401b038111838210176200198657604052565b6040519060a082016001600160401b038111838210176200198657604052565b60405190606082016001600160401b038111838210176200198657604052565b62001a266200199c565b9060008083528060208401528060408401528060608401528060808401528060a084015260c0830152565b62001a5b620019fc565b9060008252600060208301526000604083015256fe60806040526004361015610018575b361561001657005b005b60003560e01c806307175c83146103e857806309307c62146103e35780630b225f1a146103de5780630ea0d222146103d957806311df44db146103d457806312065fe0146103cf57806314be92a5146103ca57806315a544ed146103c55780631605aed9146103c057806316f0115b146103bb578063192b48ee146103b65780631f185d16146103b157806326c5adae146103ac578063298fc460146103a75780633688236d146103a25780633b9b79551461039d5780634151331d14610398578063438fe1921461039357806343c06bc41461038e57806344ec16bc146103895780634b62954f146103845780634dd4396c1461037f57806353423e861461037a57806354541683146103755780635640dbfc14610370578063592a02a81461036b5780635962205f146103665780635a0e9038146103615780636b81c82f1461035c5780636c7deb5d146103575780636f092c5e146103525780637687e3711461034d57806378ef376f146103485780637bc908c61461034357806388ed3bb51461033e5780638da5cb5b1461033957806391fc8aa8146103345780639319d0b51461032f578063991bf5cc1461032a5780639ce7ce0f146103255780639eb8b44e14610320578063a1f7f5391461031b578063a88fcea614610316578063a9df70b914610311578063aebcd32a1461030c578063af0b21d314610307578063af48452614610302578063b49c064c146102fd578063b5939a37146102f8578063b85f1f8d146102f3578063b90306ad146102ee578063c54e44b0146102e9578063c5a136d4146102e4578063e01ad5fd146102df578063e0a9bc2b146102da578063e2a1f69a146102d5578063eddd0d9c146102d0578063f2a6bbc7146102cb578063f4fe8e3c146102c6578063fc0e74d1146102c15763fdc10bc90361000e57611ee6565b611ec3565b611e19565b611d72565b611ccb565b611c73565b611c58565b611bb9565b611acb565b611a32565b61197f565b61194d565b61192f565b61190c565b6118db565b6118bd565b611878565b6117cb565b6117ad565b611706565b611543565b611441565b611349565b6112a2565b611284565b61125b565b61123d565b61121f565b611178565b6110b4565b611088565b610fe1565b610f07565b610eb7565b610e5f565b610da9565b610d3c565b610d1e565b610d00565b610cbb565b610c0e565b610b67565b610aba565b610a9c565b610a4f565b610a26565b610a08565b610944565b610878565b610779565b6106c1565b610669565b61064b565b61062d565b610586565b61056a565b61050e565b6104f0565b6104d2565b61040b565b34610406576000366003190112610406576020602c54604051908152f35b600080fd5b346104065760403660031901126104065761042c6104276120e9565b612574565b61043533612214565b8015610456575b610445906125b5565b610016602435600435602f55603055565b50600054604051630536340960e21b8152906001600160a01b03906020908390600490829085165afa9081156104cd576104459260009261049d575b50163314905061043c565b6104bf91925060203d81116104c6575b6104b78183612004565b810190612026565b9038610492565b503d6104ad565b61203e565b34610406576000366003190112610406576020603454604051908152f35b34610406576000366003190112610406576020602a54604051908152f35b3461040657600036600319011261040657600e54600f54601054601154601254601354601454604080519788526020880196909652948601939093526060850191909152608084015260a083015260c082015260e090f35b0390f35b3461040657600036600319011261040657602047604051908152f35b34610406576020366003190112610406576105a26104276120e9565b6105ab33612214565b80156105c6575b6105bb906125b5565b610016600435602a55565b50600054604051630536340960e21b8152906001600160a01b03906020908390600490829085165afa9081156104cd576105bb9260009261060d575b5016331490506105b2565b61062691925060203d81116104c6576104b78183612004565b9038610602565b34610406576000366003190112610406576020603054604051908152f35b34610406576000366003190112610406576020602f54604051908152f35b3461040657600036600319011261040657600754600854600954600a54600b54600c54600d54604080519788526020880196909652948601939093526060850191909152608084015260a083015260c082015260e090f35b34610406576020366003190112610406576106dd6104276120e9565b6106e633612214565b8015610701575b6106f6906125b5565b610016600435612647565b50600054604051630536340960e21b8152906001600160a01b03906020908390600490829085165afa9081156104cd576106f692600092610748575b5016331490506106ed565b61076191925060203d81116104c6576104b78183612004565b903861073d565b6001600160a01b0381160361040657565b34610406576020806003193601126104065760049081359061079a82610768565b60005481906001600160a01b0316604051634bf9c0ad60e11b815294859182905afa9182156104cd576107ff6108399361081b9261056696600092610855575b506040516001600160a01b03909116858201908152909261080d918491602090910190565b03601f198101845283612004565b6108156122c0565b90612460565b91908061084b575b61082c906122ed565b80825183010191016120d4565b60405190151581529081906020820190565b5081518114610823565b61080d91925061087190863d88116104c6576104b78183612004565b91906107da565b34610406576020366003190112610406576000546040516369e8d84b60e11b815290602090829060049082906001600160a01b03165afa80156104cd576108e861090c916105669360009161091c575b50604051906108d682611fcc565b600082526108e26129ec565b90612536565b610907600435916109026108fd602c54612601565b612601565b612a1a565b612634565b6040519081529081906020820190565b610934915060203d81116104c6576104b78183612004565b386108c8565b8015150361040657565b34610406576020366003190112610406576004356109618161093a565b61096c6104276120e9565b61097533612214565b801561099b575b90610989610016926125b5565b60ff8019603554169115151617603555565b50600054604051630536340960e21b81526001600160a01b0392916020908290600490829087165afa80156104cd5761001693610989926000926109e8575b50339116149192505061097c565b610a0191925060203d81116104c6576104b78183612004565b90386109da565b34610406576000366003190112610406576020602954604051908152f35b34610406576000366003190112610406576000546040516001600160a01b039091168152602090f35b346104065760203660031901126104065760043560005260046020526040600020805461056660026001840154930154604051938493846040919493926060820195825260208201520152565b34610406576000366003190112610406576020602754604051908152f35b3461040657606036600319011261040657610ad66104276120e9565b610adf33612214565b8015610b00575b610aef906125b5565b610016604435602435600435612750565b50600054604051630536340960e21b8152906001600160a01b03906020908390600490829085165afa9081156104cd57610aef92600092610b47575b501633149050610ae6565b610b6091925060203d81116104c6576104b78183612004565b9038610b3c565b3461040657602036600319011261040657610b836104276120e9565b610b8c33612214565b8015610ba7575b610b9c906125b5565b610016600435602655565b50600054604051630536340960e21b8152906001600160a01b03906020908390600490829085165afa9081156104cd57610b9c92600092610bee575b501633149050610b93565b610c0791925060203d81116104c6576104b78183612004565b9038610be3565b3461040657604036600319011261040657610c2a6104276120e9565b610c3333612214565b8015610c54575b610c43906125b5565b610016602435600435602855602955565b50600054604051630536340960e21b8152906001600160a01b03906020908390600490829085165afa9081156104cd57610c4392600092610c9b575b501633149050610c3a565b610cb491925060203d81116104c6576104b78183612004565b9038610c90565b3461040657602036600319011261040657600435600052602e602052604060002060018154910154906105666040519283928360209093929193604081019481520152565b34610406576000366003190112610406576020602b54604051908152f35b34610406576000366003190112610406576020602654604051908152f35b346104065760003660031901126104065760e060225460235460405191825260ff9081811615156020840152818160081c1615156040840152818160101c1615156060840152818160181c1615156080840152818160201c16151560a084015260281c16151560c0820152f35b346104065760c036600319011261040657610dc56104276120e9565b610dce33612214565b8015610df8575b610dde906125b5565b61001660a435608435606435604435602435600435612655565b50600054604051630536340960e21b8152906001600160a01b03906020908390600490829085165afa9081156104cd57610dde92600092610e3f575b501633149050610dd5565b610e5891925060203d81116104c6576104b78183612004565b9038610e34565b3461040657602036600319011261040657600435600052600660205260a06040600020805490600181015490600281015460046003830154920154926040519485526020850152604084015260608301526080820152f35b3461040657600036600319011261040657601c54601d54601e5460408051938452602084019290925290820152606090f35b60809060031901126104065760043590602435906044359060643590565b3461040657610f1536610ee9565b92610f246104279392936120e9565b610f2d33612214565b8015610f75575b90610f406002926125b5565b610f48612898565b5060018114610f64575b14610f5957005b601f55602055602155005b82601c5583601d5584601e55610f52565b50600054604051630536340960e21b81526001600160a01b0392916020908290600490829087165afa80156104cd57600293610f4092600092610fc1575b503391161491925050610f34565b610fda91925060203d81116104c6576104b78183612004565b9038610fb3565b3461040657602036600319011261040657610ffd6104276120e9565b61100633612214565b8015611021575b611016906125b5565b610016600435602b55565b50600054604051630536340960e21b8152906001600160a01b03906020908390600490829085165afa9081156104cd5761101692600092611068575b50163314905061100d565b61108191925060203d81116104c6576104b78183612004565b903861105d565b346104065760203660031901126104065760043560005260056020526020604060002054604051908152f35b34610406576020366003190112610406576004356110d18161093a565b6110dc6104276120e9565b6110e533612214565b801561110b575b906110f9610016926125b5565b60ff8019602454169115151617602455565b50600054604051630536340960e21b81526001600160a01b0392916020908290600490829087165afa80156104cd57610016936110f992600092611158575b5033911614919250506110ec565b61117191925060203d81116104c6576104b78183612004565b903861114a565b34610406576020366003190112610406576111946104276120e9565b61119d33612214565b80156111b8575b6111ad906125b5565b610016600435603155565b50600054604051630536340960e21b8152906001600160a01b03906020908390600490829085165afa9081156104cd576111ad926000926111ff575b5016331490506111a4565b61121891925060203d81116104c6576104b78183612004565b90386111f4565b34610406576000366003190112610406576020603154604051908152f35b34610406576000366003190112610406576020603254604051908152f35b34610406576000366003190112610406576001546040516001600160a01b039091168152602090f35b34610406576000366003190112610406576020602d54604051908152f35b34610406576020366003190112610406576112be6104276120e9565b6112c733612214565b80156112e2575b6112d7906125b5565b610016600435602755565b50600054604051630536340960e21b8152906001600160a01b03906020908390600490829085165afa9081156104cd576112d792600092611329575b5016331490506112ce565b61134291925060203d81116104c6576104b78183612004565b903861131e565b346104065760e0366003190112610406576024356113668161093a565b6044356113728161093a565b60643561137e8161093a565b60843561138a8161093a565b60a435916113978361093a565b60c435936113a48561093a565b6113af6104276120e9565b6113b833612214565b80156113d4575b956113cc610016976125b5565b60043561279f565b50600054604051630536340960e21b81526001600160a01b039791602090829060049082908c165afa80156104cd57610016986113cc92600092611421575b5033911614919750506113bf565b61143a91925060203d81116104c6576104b78183612004565b9038611413565b34610406576101003660031901126104065761145e6104276120e9565b61146733612214565b8015611497575b611477906125b5565b61001660e43560c43560a4356084356064356044356024356004356128fb565b50600054604051630536340960e21b8152906001600160a01b03906020908390600490829085165afa9081156104cd57611477926000926114de575b50163314905061146e565b6114f791925060203d81116104c6576104b78183612004565b90386114d3565b6102a0810192916000915b6007831061151657505050565b60019060608351918251815260209283810151848301526040809101519082015201920192019190611509565b346104065760003660031901126104065760405161156081611f8f565b60005b60e081106116f15761056661157661204a565b600160005260046020526115ae7fabd6e7cb50984ff9c2f3e18a2660c3353dadf4e3291deeb275dae2cd1e44fe056128b7565b6128b7565b8152600260005260046020526115e37f91da3fd0782e51c6b3986e9e672fd566868e71f3dbc2d6c2cd6fbb3e361af2a76128b7565b60208201526116006115a960036000526004602052604060002090565b6040820152600460008190526020526116387f1a1e6821cde7d0159c0d293177871e09677b4e42307c7db3ba94f8648a5a050f6128b7565b6060820152600560005260046020526116707f04cde762ef08b6b6c5ded8e8c4c0b3f4e5c9ad7342c88fcc93681b4588b73f056128b7565b6080820152600660005260046020526116a87fc59312466997bb42aaaf719ece141047820e6b34531e1670dc1852a453648f0f6128b7565b60a0820152600760005260046020526116e07fbeb3bad75134cb432e5707980e3245c52c5998a1125ee30f2f0dbf3925b1e5516128b7565b60c0820152604051918291826114fe565b6020906116fc612898565b8184015201611563565b346104065760003660031901126104065760005460405163d1f956b160e01b815290602090829060049082906001600160a01b03165afa9081156104cd576105669161090c9160009161178f575b5060405161176181611fe8565b601381527267657464656c656761746f72436f756e74282960681b6020820152611789612075565b91612536565b6117a7915060203d81116104c6576104b78183612004565b38611754565b34610406576000366003190112610406576020602854604051908152f35b34610406576040366003190112610406576117e76104276120e9565b6117f033612214565b8015611811575b611800906125b5565b610016602435600435603255603355565b50600054604051630536340960e21b8152906001600160a01b03906020908390600490829085165afa9081156104cd5761180092600092611858575b5016331490506117f7565b61187191925060203d81116104c6576104b78183612004565b903861184d565b34610406576020366003190112610406576004356000526003602052604060002060018154910154906105666040519283928360209093929193604081019481520152565b34610406576000366003190112610406576020602554604051908152f35b346104065760203660031901126104065760206119026004356118fd81610768565b612214565b6040519015158152f35b3461040657600036600319011261040657602060ff603554166040519015158152f35b34610406576000366003190112610406576020603354604051908152f35b3461040657600036600319011261040657601f5460208054602154604080519485529284019190915290820152606090f35b3461040657602036600319011261040657600054604051630536340960e21b8152906001600160a01b03906020908390600490829085165afa9182156104cd57600092611a12575b50339116036119db5761001660043561238f565b60405162461bcd60e51b815260206004820152600f60248201526e6f776e2e6e6f6e617574682e44414f60881b6044820152606490fd5b611a2b91925060203d81116104c6576104b78183612004565b90386119c7565b3461040657602036600319011261040657600435611a4f81610768565b803b6000611a5c82612059565b92611a6a6040519485612004565b82845260208401903c602d815110611a9057602a015160405160609190911c8152602090f35b60405162461bcd60e51b81526020600482015260136024820152724e6f742061206d696e696d616c2070726f787960681b6044820152606490fd5b3461040657611ad936610ee9565b90611ae86104279493946120e9565b611af133612214565b8015611b4d575b92611b046002946125b5565b611b1060088210612715565b60405194611b1d86611fb0565b85526020850191825260408501928352600052600460205260406000209351845551600184015551910155600080f35b50600054604051630536340960e21b81526001600160a01b0394916020908290600490829089165afa80156104cd57600295611b0492600092611b99575b503391161491945050611af8565b611bb291925060203d81116104c6576104b78183612004565b9038611b8b565b34610406576020806003193601126104065760048035611bd881610768565b60005460405163d1f956b160e01b81526001600160a01b03949093909182918591829088165afa9081156104cd576105669461083994600093611c39575b506040519316818401528252611c2b82611fe8565b611c33612332565b906124fa565b611c51919350823d84116104c6576104b78183612004565b9138611c16565b346104065760003660031901126104065760206119026120e9565b3461040657600036600319011261040657601554601654601754601854601954601a54601b54604080519788526020880196909652948601939093526060850191909152608084015260a083015260c082015260e090f35b3461040657602036600319011261040657611ce76104276120e9565b611cf033612214565b8015611d0b575b611d00906125b5565b610016600435602c55565b50600054604051630536340960e21b8152906001600160a01b03906020908390600490829085165afa9081156104cd57611d0092600092611d52575b501633149050611cf7565b611d6b91925060203d81116104c6576104b78183612004565b9038611d47565b3461040657602036600319011261040657611d8e6104276120e9565b611d9733612214565b8015611db2575b611da7906125b5565b610016600435603455565b50600054604051630536340960e21b8152906001600160a01b03906020908390600490829085165afa9081156104cd57611da792600092611df9575b501633149050611d9e565b611e1291925060203d81116104c6576104b78183612004565b9038611dee565b3461040657604036600319011261040657611e356104276120e9565b611e3e33612214565b8015611e5c575b611e4e906125b5565b6100166024356004356128df565b50600054604051630536340960e21b8152906001600160a01b03906020908390600490829085165afa9081156104cd57611e4e92600092611ea3575b501633149050611e45565b611ebc91925060203d81116104c6576104b78183612004565b9038611e98565b3461040657600036600319011261040657602060ff602454166040519015158152f35b346104065760003660031901126104065760005460405163111ea8c160e21b815290602090829060049082906001600160a01b03165afa9081156104cd576105669161090c91600091611f5b575b50604051611f4181611fe8565b6005815264616765282960d81b6020820152611789612075565b611f73915060203d81116104c6576104b78183612004565b38611f34565b634e487b7160e01b600052604160045260246000fd5b60e0810190811067ffffffffffffffff821117611fab57604052565b611f79565b6060810190811067ffffffffffffffff821117611fab57604052565b6020810190811067ffffffffffffffff821117611fab57604052565b6040810190811067ffffffffffffffff821117611fab57604052565b90601f8019910116810190811067ffffffffffffffff821117611fab57604052565b90816020910312610406575161203b81610768565b90565b6040513d6000823e3d90fd5b6040519061205782611f8f565b565b67ffffffffffffffff8111611fab57601f01601f191660200190565b6040519061208282611fcc565b60008252565b1561208f57565b60405162461bcd60e51b815260206004820152601960248201527f6f776e2e7361666567756172642e63616c6c2e6661696c6564000000000000006044820152606490fd5b90816020910312610406575161203b8161093a565b600054604051634bf9c0ad60e11b8152906020908190839060049082906001600160a01b03165afa9182156104cd5761203b9261215f9160009161217a575b5060405161213581611fe8565b6008815267697353616665282960c01b848201526040519161215683611fcc565b60008352612460565b919080612170575b61082c90612088565b5081518114612167565b6121919150833d85116104c6576104b78183612004565b38612128565b604051906121a482611fe8565b601582527469735365637572654261736528616464726573732960581b6020830152565b156121cf57565b60405162461bcd60e51b815260206004820152601a60248201527f6f776e2e736563757265626173652e63616c6c2e6661696c65640000000000006044820152606490fd5b6000546001600160a01b0316604051918291634bf9c0ad60e11b835282600460209485935afa9283156104cd5761203b93612282926107ff9260009261229d575b506040516001600160a01b03909116858201908152909261227a918491602090910190565b610815612197565b919080612293575b61082c906121c8565b508151811461228a565b61227a9192506122b990863d88116104c6576104b78183612004565b9190612255565b604051906122cd82611fe8565b601182527069735369676e657228616464726573732960781b6020830152565b156122f457565b60405162461bcd60e51b81526020600482015260166024820152751bdddb8b9cda59db995c8b98d85b1b0b99985a5b195960521b6044820152606490fd5b6040519061233f82611fe8565b6011825270697364656c656761746f724e6f6465282960781b6020830152565b3d1561238a573d9061237082612059565b9161237e6040519384612004565b82523d6000602084013e565b606090565b600080546040516311be646b60e21b815290602090829060049082906001600160a01b03165afa9081156104cd578284819382938391612442575b505af16123d561235f565b501561240b5760405190815233907fcdcc745fe377b103b45fa0cec23ae3ef93d6fc6a84a01f0d18c40b354dd1d5d890602090a2565b60405162461bcd60e51b815260206004820152600f60248201526e1bdddb8b989d5c9b8b99985a5b1959608a1b6044820152606490fd5b61245a915060203d81116104c6576104b78183612004565b386123ca565b9190823b156124e1578051906020918263ffffffff60e01b92012016916040519180830193845281519160005b8381106124cd5750505091816124ba60248260009795968897018783820152036004810184520182612004565b5191620dbba0fa6124c961235f565b9091565b81810183015185820160240152820161248d565b5050506000906040516124f381611fcc565b6000815290565b929161250891600094612460565b908061252b575b6125165750565b61203b919250602080825183010191016120d4565b50602081511461250f565b929161254491600094612460565b9080612569575b6125525750565b909150602081805181010312610406576020015190565b50602081511461254b565b1561257b57565b60405162461bcd60e51b81526020600482015260126024820152716f776e2e696e76616c69642e69735361666560701b6044820152606490fd5b156125bc57565b60405162461bcd60e51b815260206004820152601b60248201527f6f776e2e6e6f6e617574682e44414f6f725365637572656261736500000000006044820152606490fd5b90670de0b6b3a76400009182810292818404149015171561261e57565b634e487b7160e01b600052601160045260246000fd5b8181029291811591840414171561261e57565b61265090612601565b602d55565b91929394909460108310156126e0576040519460a086019486861067ffffffffffffffff871117611fab57612057976126b196604052875260208701526040860152606085015260808401526000526006602052604060002090565b906080600491805184556020810151600185015560408101516002850155606081015160038501550151910155565b60405162461bcd60e51b815260206004820152600d60248201526c1a5b9d985b1a59081b195d995b609a1b6044820152606490fd5b1561271c57565b60405162461bcd60e51b815260206004820152600c60248201526b696e76616c69642072616e6b60a01b6044820152606490fd5b9161275d60088410612715565b60405192604084019284841067ffffffffffffffff851117611fab57600193604052845260208401918252600052600360205260406000209251835551910155565b6128779461205797946128106128589561283b9460c09a96604051906127c482611f8f565b8282521515928360208301521515948560408301521515958660608301521515978860808301521515998a60a083015215159b8c91015260225560ff8019602354169115151617602355565b6023805462ffff00191660089290921b61ff00169190911791151560101b62ff000016919091179055565b63ff00000060235491151560181b169063ff000000191617602355565b64ff0000000060235491151560201b169064ff00000000191617602355565b65ff000000000060235491151560281b169065ff0000000000191617602355565b604051906128a582611fb0565b60006040838281528260208201520152565b906040516128c481611fb0565b60406002829480548452600181015460208501520154910152565b6128eb60088210612715565b6000526005602052604060002055565b9491926003969397949197604051986129138a611f8f565b808a528160208b01528260408b01528360608b01528460808b01528560a08b01528660c08b0152600188146129cb575b5050505050505060028114612991575b1461295b5750565b8051601555602081015160165560408101516017556060810151601855608081015160195560a0810151601a5560c00151601b55565b8251600e556020830151600f5560408301516010556060830151601155608083015160125560a083015160135560c0830151601455612953565b600755600855600955600a55600b55600c55600d5538808080808080612943565b604051906129f982611fe8565b60128252716f7a6f6e655072696365496e55534454282960701b6020830152565b8115612a24570490565b634e487b7160e01b600052601260045260246000fdfea2646970667358221220f767239548e5a222295fa7efb89ae3030c05b1c5114cbad8e00b5596a1cbe89164736f6c63430008140033","linkReferences":{}},"methodIdentifiers":{"rule741()":"0a5b38ab","transferRequest()":"3da8676f"},"id":33}