{"abi":[{"type":"constructor","inputs":[{"name":"_hex","type":"address","internalType":"address"}],"stateMutability":"nonpayable"},{"type":"function","name":"rule741","inputs":[],"outputs":[{"name":"","type":"address","internalType":"address"}],"stateMutability":"view"},{"type":"function","name":"transferRequest","inputs":[],"outputs":[{"name":"","type":"address","internalType":"address"}],"stateMutability":"view"}],"bytecode":{"object":"0x6080346200012d57601f620072aa38819003918201601f19168301926001600160401b0392909183851183861017620001175781602092849260409788528339810103126200012d57516001600160a01b0390818116908190036200012d57835190614bde9182810192818410868511176200011757620026cc823981835260208160009403019083f09384156200010d5782549484166001600160a01b03199586161783558551916124c98084019284841090841117620000f957918391602093620002038439815203019082f0908115620000ee5750169060015416176001555160d09081620001338239f35b8451903d90823e3d90fd5b634e487b7160e01b85526041600452602485fd5b85513d84823e3d90fd5b634e487b7160e01b600052604160045260246000fd5b600080fdfe6080806040526004361015601257600080fd5b600090813560e01c9081630a5b38ab1460685750633da8676f14603457600080fd5b3460655780600319360112606557602073ffffffffffffffffffffffffffffffffffffffff60015416604051908152f35b80fd5b9050346096578160031936011260965773ffffffffffffffffffffffffffffffffffffffff60209254168152f35b5080fdfea2646970667358221220a7637f5986ef89b16e2e03e7dcb93329e293775347073a7a6c5aca4b7868b3c664736f6c634300081400336080346100ca57601f6124c938819003918201601f19168301916001600160401b038311848410176100cf578084926020946040528339810103126100ca57516001600160a01b038116908190036100ca5780156100855760018060a01b031933816001541617600155600054161760005560016003556040516123e390816100e68239f35b60405162461bcd60e51b815260206004820152601360248201527f6f776e2e696e76616c69642e68657862617365000000000000000000000000006044820152606490fd5b600080fd5b634e487b7160e01b600052604160045260246000fdfe60806040526004361015610018575b361561001657005b005b60003560e01c806312065fe0146101a857806318c864e3146101a35780631f185d161461019e57806324480afe146101995780633294adf0146101945780633676bd1f1461018f5780633b9b79551461018a578063479fa2c31461018557806349fbed12146101805780634ef260a91461017b5780638da5cb5b14610176578063a1f7f53914610171578063ab7e46ae1461016c578063ac23334514610167578063af48452614610162578063b8f1759a1461015d578063b90306ad14610158578063c1e6cec214610153578063c54e44b01461014e578063cab3cc8d14610149578063e01ad5fd14610144578063e0a9bc2b1461013f578063e846034a1461013a578063fdc10bc9146101355763ff585caf0361000e57610ec8565b610ea5565b610e87565b610de8565b610d4e565b610d30565b610c8e565b610c50565b610b34565b610ae0565b610aaf565b610a77565b610a23565b610965565b61093e565b61086a565b610732565b610689565b610662565b61063d565b610400565b6103e2565b6102b9565b610230565b346101c45760003660031901126101c457602047604051908152f35b600080fd5b60209060031901126101c45760043590565b634e487b7160e01b600052603260045260246000fd5b60055481101561022b57600560005260021b7f036b6384b5eca791c62761152d0c79bb0604c104a5fb6f4eb0703f3154bb3db00190600090565b6101db565b346101c45761023e366101c9565b6005548110156101c45761025360c0916101f1565b5060ff6001600160a01b03808354169282600182015460036002840154930154936040519687528116602087015260a01c161515604085015260608401528181161515608084015260081c16151560a0820152f35b6001600160a01b038116036101c457565b346101c4576020806003193601126101c4576004908135906102da826102a8565b806102fc6102f06000546001600160a01b031690565b6001600160a01b031690565b60405194858092634bf9c0ad60e11b82525afa9182156103dd5761035061038a9361036c9261039c966000926103aa575b5061035e906040519384918783019190916001600160a01b036020820193169052565b03601f198101845283611023565b610366611f0c565b9061210f565b9190806103a0575b61037d90611f45565b8082518301019101611dca565b60405190151581529081906020820190565b0390f35b5081518114610374565b61035e9192506103cf90863d88116103d6575b6103c78183611023565b810190611045565b919061032d565b503d6103bd565b61105d565b346101c45760003660031901126101c4576020600754604051908152f35b346101c4576020806003193601126101c45760043561041e816102a8565b6001600160a01b038116156105f95761045461044d336001600160a01b03166000526004602052604060002090565b5415610f37565b61048a61045f610f98565b509182906001600160a01b031673ffffffffffffffffffffffffffffffffffffffff19825416179055565b60018101805473ffffffffffffffffffffffffffffffffffffffff191633178155916104ef906004906005546040519384917fff585caf0000000000000000000000000000000000000000000000000000000084840152602483019190602083019252565b03610502601f1991828101865285611023565b816105186102f06000546001600160a01b031690565b60405194858092630536340960e21b82525afa9283156103dd576002946105a29461059593610584936000926105d8575b5061059091926040519485917fd3a308490000000000000000000000000000000000000000000000000000000089840152306024840161108c565b03908101845283611023565b6122b8565b805181018201910161110c565b9101556105d56105bc60055492546001600160a01b031690565b6001600160a01b03166000526004602052604060002090565b55005b61059092506105f390873d89116103d6576103c78183611023565b91610549565b6064826040519062461bcd60e51b82526004820152601260248201527f6f776e2e64656661756c742e73656e64657200000000000000000000000000006044820152fd5b346101c45761065b61064e366101c9565b610656611b89565b611752565b6001600355005b346101c45760003660031901126101c45760206001600160a01b0360005416604051908152f35b346101c457610697366101c9565b80151580610726575b6106a990611166565b6000198101908111610721576106be906101f1565b50805460018201546003830154600290930154604080516001600160a01b039485168152938316602085015260ff80861615159185019190915260089490941c84161515606084015260a091821c9093161515608083015281019190915260c090f35b6111b1565b506005548111156106a0565b346101c457610740366101c9565b610748611b89565b610755606482111561148f565b61076661076130611e62565b6114da565b6107856007916107808354610779611f90565b1015611c62565b611cc5565b9060005b82518110156107be576107b9906107b46107af8454806107a98589611cf7565b526115ce565b600755565b6115ce565b610789565b82600460206107d86102f06000546001600160a01b031690565b6040519283809263ab6e844f60e01b82525afa80156103dd5761083b9261035092600092610846575b50610590906040519384917f7aefe0bb00000000000000000000000000000000000000000000000000000000602084015260248301611d0b565b506100166001600355565b6105909192506108639060203d81116103d6576103c78183611023565b9190610801565b346101c45760203660031901126101c4576001600160a01b0360043561088f816102a8565b16600090808252600460205260408220546000198101908111610721576108b76003916101f1565b500161010061ff001982541617905580825260046020528160408120556006546801000000000000000081101561093957600181018060065581101561022b577ff652222313e28459528d920b65115c16c04f3efc82aaedc97be59f3f377c0d3f019073ffffffffffffffffffffffffffffffffffffffff1982541617905580f35b610f82565b346101c45760003660031901126101c45760206001600160a01b0360015416604051908152f35b346101c45760003660031901126101c457600460206001600160a01b03600054166040519283809263d1f956b160e01b82525afa9081156103dd5761039c916109f591600091610a05575b506040516109bd81610feb565b601381527f67657464656c656761746f72436f756e7428290000000000000000000000000060208201526109ef6111f2565b91612232565b6040519081529081906020820190565b610a1d915060203d81116103d6576103c78183611023565b386109b0565b346101c457610a31366101c9565b6006548110156101c4576001600160a01b0360209160066000527ff652222313e28459528d920b65115c16c04f3efc82aaedc97be59f3f377c0d3f015416604051908152f35b346101c45760203660031901126101c4576020610a9e600435610a99816102a8565b6113ba565b6001600160a01b0360405191168152f35b346101c45760203660031901126101c4576020610ad6600435610ad1816102a8565b611e62565b6040519015158152f35b346101c457610aee366101c9565b60065481101561022b576001600160a01b0360209160066000527ff652222313e28459528d920b65115c16c04f3efc82aaedc97be59f3f377c0d3f015416604051908152f35b346101c457610b42366101c9565b6001600160a01b0390600091808354169060405190630536340960e21b82526020928383600481845afa9283156103dd576004938593610b8c928992610c31575b5016331461111b565b604051928380927f46f991ac0000000000000000000000000000000000000000000000000000000082525afa9182156103dd57848085610be395829583958492610c14575b50505af1610bdd612069565b50612099565b60405190815233907fcdcc745fe377b103b45fa0cec23ae3ef93d6fc6a84a01f0d18c40b354dd1d5d890602090a280f35b610c2a9250803d106103d6576103c78183611023565b3880610bd1565b610c49919250853d87116103d6576103c78183611023565b9038610b83565b346101c45760203660031901126101c4576001600160a01b03600435610c75816102a8565b1660005260046020526020604060002054604051908152f35b346101c45760203660031901126101c457600435610cab816102a8565b803b6000610cb8826111d6565b92610cc66040519485611023565b82845260208401903c602d815110610cec57602a015160405160609190911c8152602090f35b606460405162461bcd60e51b815260206004820152601360248201527f4e6f742061206d696e696d616c2070726f7879000000000000000000000000006044820152fd5b346101c45760003660031901126101c4576020600554604051908152f35b346101c4576020806003193601126101c45760048035610d6d816102a8565b6001600160a01b03928084600054166040519485809263d1f956b160e01b82525afa9081156103dd5761039c9461038a94600093610dc9575b506040519316818401528252610dbb82610feb565b610dc3612030565b906121f6565b610de1919350823d84116103d6576103c78183611023565b9138610da6565b346101c45760003660031901126101c4576001600160a01b03600054166040518091634bf9c0ad60e11b825281600460209384935afa9081156103dd57610e4f61038a9261039c94600091610e6a575b50610e41611d46565b610e496111f2565b9161210f565b919080610e60575b61037d90611d7f565b5081518114610e57565b610e819150833d85116103d6576103c78183611023565b38610e38565b346101c45760003660031901126101c4576020600654604051908152f35b346101c45760003660031901126101c4576020610ec0611f90565b604051908152f35b346101c457610ed6366101c9565b6001600160a01b039060046020836000541660405192838092630536340960e21b82525afa80156103dd5761001693610f1992600092610f1e575016331461111b565b611284565b610c4991925060203d81116103d6576103c78183611023565b15610f3e57565b606460405162461bcd60e51b815260206004820152601260248201527f70726f706f7365722e746f2e65786973747300000000000000000000000000006044820152fd5b634e487b7160e01b600052604160045260246000fd5b6005546801000000000000000081101561093957600181018060055581101561022b57600560005260021b7f036b6384b5eca791c62761152d0c79bb0604c104a5fb6f4eb0703f3154bb3db00190600090565b6040810190811067ffffffffffffffff82111761093957604052565b6020810190811067ffffffffffffffff82111761093957604052565b90601f8019910116810190811067ffffffffffffffff82111761093957604052565b908160209103126101c4575161105a816102a8565b90565b6040513d6000823e3d90fd5b60005b83811061107c5750506000910152565b818101518382015260200161106c565b92916080906001600160a01b03600a9360a08752600d60a08801527f55736572205472616e736665720000000000000000000000000000000000000060c08801521660208601526000604086015260e0606086015280518060e08701526110fd81610100936020858a019101611069565b601f8019910116850101930152565b908160209103126101c4575190565b1561112257565b606460405162461bcd60e51b815260206004820152600f60248201527f6f776e2e6e6f6e617574682e44414f00000000000000000000000000000000006044820152fd5b1561116d57565b606460405162461bcd60e51b815260206004820152601760248201527f70726f706f7365722e696e76616c69642e666f726d69640000000000000000006044820152fd5b634e487b7160e01b600052601160045260246000fd5b60001981019190821161072157565b67ffffffffffffffff811161093957601f01601f191660200190565b604051906111ff82611007565b60008252565b6040519061121282610feb565b601282527f676574526573756c742875696e743235362900000000000000000000000000006020830152565b519081151582036101c457565b91908260c09103126101c45781519160208101519160408201519160608101519161105a60a061127d6080850161123e565b930161123e565b80156113b7576112a46112a99161129f600554821115611166565b6111c7565b6101f1565b506112bf6102f06000546001600160a01b031690565b604051918291630536340960e21b835282600460209485935afa9081156103dd57611333611386936113266103506003956113989860009161139a575b5061131860028701546040519384918783019190602083019252565b611320611205565b906120e4565b805181018201910161124b565b9794509250505060018301907fffffffffffffffffffffff00ffffffffffffffffffffffffffffffffffffffff74ff0000000000000000000000000000000000000000835492151560a01b169116179055565b019060ff801983541691151516179055565b565b6113b19150843d86116103d6576103c78183611023565b386112fc565b50565b6113d7816001600160a01b03166000526004602052604060002090565b548015159081611482575b501561147c576112a461140b611411926001600160a01b03166000526004602052604060002090565b546111c7565b50600181015460a01c60ff169081611466575b81611445575b6000911561144157546001600160a01b0316905090565b5090565b905061146061145c600383015460ff9060081c1690565b1590565b9061142a565b9050611476600382015460ff1690565b90611424565b50600090565b90506005541015386113e2565b1561149657565b606460405162461bcd60e51b815260206004820152601c60248201527f7574696c6974792e62617463682e6c696d69742e6578636565646564000000006044820152fd5b156114e157565b606460405162461bcd60e51b815260206004820152601760248201527f7574696c6974792e756e7365637572652e6661696c65640000000000000000006044820152fd5b60405161153181611007565b60008152906000368137565b6040519061154a82610feb565b600f82527f6765744e6f646573436f756e74282900000000000000000000000000000000006020830152565b1561157d57565b606460405162461bcd60e51b815260206004820152601360248201527f7574696c6974792e696d706f72742e646f6e65000000000000000000000000006044820152fd5b9190820180921161072157565b60001981146107215760010190565b604051906115ea82610feb565b601782527f6765744e6f64654279496e6465782875696e74323536290000000000000000006020830152565b1561161d57565b606460405162461bcd60e51b815260206004820152601660248201527f70726f78792e696e76616c69642e696e7374616e6365000000000000000000006044820152fd5b6040519061166e82610feb565b601382527f496e7374546f55736572286164647265737329000000000000000000000000006020830152565b156116a157565b606460405162461bcd60e51b815260206004820152601260248201527f70726f78792e696e76616c69642e6e6f646500000000000000000000000000006044820152fd5b604051906116f282610feb565b601082527f6765744e6f6465286164647265737329000000000000000000000000000000006020830152565b908160a09103126101c457805191602082015161173a816102a8565b9160408101519161105a608061127d6060850161123e565b61175f606482111561148f565b61176b61076130611e62565b6000906117826102f083546001600160a01b031690565b9160409081519163111ea8c160e21b9485845260209060049482818781855afa80156103dd576117cb918691611b72575b506117bc611525565b906117c561153d565b90612232565b958615611b685783518381888163ab6e844f60e01b968782525afa9081156103dd5761181691611804918891611b4b57506117bc611525565b91611810838a11611576565b826115c1565b96808811611b43575b505b868110611832575050505050505050565b6118466102f086546001600160a01b031690565b9084519189835284838981845afa9283156103dd578793611b24575b5061189c86518061187a858983019190602083019252565b039461188e601f1996878101845283611023565b6118966115dd565b906121a5565b906001600160a01b036118b28184161515611616565b87518c815287818c81865afa80156103dd57611907918b91611b07575b508951906118ff826118f3888d83019190916001600160a01b036020820193169052565b03898101845283611023565b611896611661565b91611915828416151561169a565b8851938d855288858d81855afa9485156103dd576119726001928c8f988f611980958f9192611ae2575b5091516001600160a01b039093169183019182529061196a9083906020015b038c8101845283611023565b6113206116e5565b8a808251830101910161171e565b505050939093169261199381151561169a565b148015611ad9575b611a5c575b506119ab8280611bc4565b866119c06102f08b546001600160a01b031690565b8951948580928a82525afa80156103dd57611a3695611a30948b92611a3b575b5089517f50db85d1000000000000000000000000000000000000000000000000000000008a8201526001600160a01b03938416602482015293909216604484015290610590908360648101610584565b506115ce565b611821565b6105909250611a56908a3d8c116103d6576103c78183611023565b916119e0565b928c88918a518096819382525afa9283156103dd578a93611ab092611aa4928c92611ab6575b506118ff908b519384918c83019190916001600160a01b036020820193169052565b03888101845283611023565b386119a0565b6118ff919250611ad2908b3d8d116103d6576103c78183611023565b9190611a82565b5081151561199b565b61196a9250611b0061195e91833d85116103d6576103c78183611023565b925061193f565b611b1e9150893d8b116103d6576103c78183611023565b386118cf565b611b3c919350853d87116103d6576103c78183611023565b9138611862565b96503861181f565b611b629150863d88116103d6576103c78183611023565b386117b3565b5050505050505050565b611b629150843d86116103d6576103c78183611023565b600260035414611b9a576002600355565b60046040517f3ee5aeb5000000000000000000000000000000000000000000000000000000008152fd5b600554906801000000000000000082101561093957611bee61045f836001600395016005556101f1565b600181810180547fffffffffffffffffffffff000000000000000000000000000000000000000000166001600160a01b0395909516948517740100000000000000000000000000000000000000001790559101805461ffff1916909117905560055460009182526004602052604090912055565b15611c6957565b606460405162461bcd60e51b815260206004820152601060248201527f7574696c6974792e6167652e646f6e65000000000000000000000000000000006044820152fd5b67ffffffffffffffff81116109395760051b60200190565b90611ccf82611cad565b611cdc6040519182611023565b8281528092611ced601f1991611cad565b0190602036910137565b805182101561022b5760209160051b010190565b6020908160408183019282815285518094520193019160005b828110611d32575050505090565b835185529381019392810192600101611d24565b60405190611d5382610feb565b600882527f69735361666528290000000000000000000000000000000000000000000000006020830152565b15611d8657565b606460405162461bcd60e51b815260206004820152601960248201527f6f776e2e7361666567756172642e63616c6c2e6661696c6564000000000000006044820152fd5b908160209103126101c45761105a9061123e565b60405190611deb82610feb565b601582527f69735365637572654261736528616464726573732900000000000000000000006020830152565b15611e1e57565b606460405162461bcd60e51b815260206004820152601a60248201527f6f776e2e736563757265626173652e63616c6c2e6661696c65640000000000006044820152fd5b6000546001600160a01b0316604051918291634bf9c0ad60e11b835282600460209485935afa9283156103dd5761105a93611ece9261035092600092611ee9575b50611ec6906040519384918783019190916001600160a01b036020820193169052565b610366611dde565b919080611edf575b61037d90611e17565b5081518114611ed6565b611ec6919250611f0590863d88116103d6576103c78183611023565b9190611ea3565b60405190611f1982610feb565b601182527f69735369676e65722861646472657373290000000000000000000000000000006020830152565b15611f4c57565b606460405162461bcd60e51b815260206004820152601660248201527f6f776e2e7369676e65722e63616c6c2e6661696c6564000000000000000000006044820152fd5b600460206001600160a01b03600054166040519283809263111ea8c160e21b82525afa80156103dd5761105a91600091612012575b50604051611fd281610feb565b600581527f616765282900000000000000000000000000000000000000000000000000000060208201526040519161200983611007565b60008352612232565b61202a915060203d81116103d6576103c78183611023565b38611fc5565b6040519061203d82610feb565b601882527f697364656c656761746f724e6f646528616464726573732900000000000000006020830152565b3d15612094573d9061207a826111d6565b916120886040519384611023565b82523d6000602084013e565b606090565b156120a057565b606460405162461bcd60e51b815260206004820152600f60248201527f6f776e2e6275726e2e6661696c656400000000000000000000000000000000006044820152fd5b906120ef929161210f565b90600090156120fc575090565b604051915061210a82611007565b815290565b803b1561218c576000927fffffffff00000000000000000000000000000000000000000000000000000000836020869551910120169061217960246040518093602082019586526121698151809260208686019101611069565b8101036004810184520182611023565b5191620dbba0fa612188612069565b9091565b50505060009060405161219e81611007565b6000815290565b92916121b39160009461210f565b90806121eb575b6121c15750565b9091506020818051810103126101c45760206001600160a01b039101516121e7816102a8565b1690565b5060208151146121ba565b92916122049160009461210f565b9080612227575b6122125750565b61105a91925060208082518301019101611dca565b50602081511461220b565b92916122409160009461210f565b9080612263575b61224e5750565b61105a9192506020808251830101910161110c565b506020815114612247565b90602082519201517fffffffff000000000000000000000000000000000000000000000000000000009081811693600481106122a957505050565b60040360031b82901b16169150565b6001600160a01b0381161561236957600080918351908260208601915af1906122df612069565b91156122e9575090565b80516000919060041161236357612300915061226e565b8151156123105750805190602001fd5b6024907fffffffff00000000000000000000000000000000000000000000000000000000604051917f21c09d34000000000000000000000000000000000000000000000000000000008352166004820152fd5b50612300565b606460405162461bcd60e51b815260206004820152601260248201527f6f776e2e696e76616c69642e74617267657400000000000000000000000000006044820152fdfea26469706673582212207ef72ef6759327f3b239265d1ce534fcd2b5046f4776aa11a2bcfa0338e9235464736f6c6343000814003360803462001bfa57601f62004bde38819003918201601f19168301916001600160401b0383118484101762001bff5780849260209460405283398101031262001bfa57516001600160a01b0381169081900362001bfa57801562001bb55760018060a01b0319338160015416176001556000541617600055601e602555600460265560016027556001602855600260295561c350602a55610258602b556003602c556019602d5568878678326eac900000602e55670de0b6b3a764000060305569021e19e0c9bab2400000603155600160325561014060335560a0603455600560355560ff196036541660365561025860c0620000fb62001c95565b6002815260646020820152600160408201526023606082015260646080820152600160a082015201526002600755606460085560016009556023600a556064600b556001600c55610258600d556200015262001c15565b6002815261025860c06103f29283602082015260016040820152600b6060820152600a6080820152600160a082015201526002600e5580600f556001601055600b601155600a601255600160135561025860145561025860c0620001b562001c15565b60028152836020820152600160408201526044606082015260646080820152600160a0820152015260026015556016556001601755604460185560646019556001601a55610258601b55607860406200020d62001cca565b60198152600a602082015201526019601c55600a601d556078601e5560406200023562001cca565b600a8152600160208201526101689182910152600a601f556001602055602155600160a06200026362001c95565b60048152826020820152826040820152826060820152826080820152600060c08201520152600460225564010101010165ffffffffffff19602354161760235562000319620002b162001c35565b680821ab0d44149800008152601e60208083019182526001600052602f905290517f2fedb8cac919e2d61802d3f3f65600df9e1e136f03180ed4a848faa78b371a4855517f2fedb8cac919e2d61802d3f3f65600df9e1e136f03180ed4a848faa78b371a4955565b6200038f6200032762001c35565b681043561a88293000008152601e60208083019182526002600052602f905290517f014b8a03cd231876281bd1c72bfaaaa56c5e28d94a079079d6276f161baaafc655517f014b8a03cd231876281bd1c72bfaaaa56c5e28d94a079079d6276f161baaafc755565b620004056200039d62001c35565b682086ac3510526000008152601e60208083019182526003600052602f905290517f6946d7b77f6712e5465457e0b8828a369ba183c282ff32d70c4d14f56c38af3b55517f6946d7b77f6712e5465457e0b8828a369ba183c282ff32d70c4d14f56c38af3c55565b6200047b6200041362001c35565b6830ca024f987b9000008152601e60208083019182526004600052602f905290517f15eee9062fb2abbd5c8f975fac073fbc5ed41f2bf904160d62b2385ce780014a55517f15eee9062fb2abbd5c8f975fac073fbc5ed41f2bf904160d62b2385ce780014b55565b620004f16200048962001c35565b685150ae84a8cdf000008152601e60208083019182526005600052602f905290517feec64d5dda487ea59dae031701df1508fd2c6247ced62c090355fccc9512689755517feec64d5dda487ea59dae031701df1508fd2c6247ced62c090355fccc9512689855565b62000567620004ff62001c35565b6871d75ab9b9205000008152601e60208083019182526006600052602f905290517fb1e05c74c5637032eeab8969e48b7886201bcb2bcd88c913d8894ee6167826cc55517fb1e05c74c5637032eeab8969e48b7886201bcb2bcd88c913d8894ee6167826cd55565b620005dd6200057562001c35565b68a2a15d09519be000008152601e60208083019182526007600052602f905290517f6e6d8a6182b12fe087e792c7254c053796aaa778bbef7a6545596339fbf8905555517f6e6d8a6182b12fe087e792c7254c053796aaa778bbef7a6545596339fbf8905655565b62000629620005eb62001c35565b6007815260196020808301918252600160005260049052905160008051602062004a5e833981519152555160008051602062004b9e83398151915255565b620006756200063762001c35565b6007815260646020808301918252600260005260049052905160008051602062004bbe833981519152555160008051602062004b7e83398151915255565b620006c26200068362001c35565b600781526101f46020808301918252600360005260049052905160008051602062004ade833981519152555160008051602062004a3e83398151915255565b6200070f620006d062001c35565b600781526107d06020808301918252600460008190529052905160008051602062004b3e833981519152555160008051602062004a7e83398151915255565b6200075c6200071d62001c35565b600781526113886020808301918252600560005260049052905160008051602062004abe833981519152555160008051602062004b5e83398151915255565b620007a96200076a62001c35565b600781526127106020808301918252600660005260049052905160008051602062004a9e833981519152555160008051602062004b1e83398151915255565b620007f9620007b762001c35565b60078082526161a860208084019182526000929092526004909152905160008051602062004afe833981519152555160008051602062004a1e83398151915255565b6200080362001c55565b60008082526006602080840182815260016040860181815260056060880190815260808801838152929096529390925293517f3e5fec24aa4dc4e5aee2e025e51e1392c72a2500577559fae9665c6d52bd6a315592517f3e5fec24aa4dc4e5aee2e025e51e1392c72a2500577559fae9665c6d52bd6a3255517f3e5fec24aa4dc4e5aee2e025e51e1392c72a2500577559fae9665c6d52bd6a3355517f3e5fec24aa4dc4e5aee2e025e51e1392c72a2500577559fae9665c6d52bd6a3455517f3e5fec24aa4dc4e5aee2e025e51e1392c72a2500577559fae9665c6d52bd6a3555620008ee62001c55565b60018082526003602080840191825260408401838152600560608601908152608086019485526002600052600690925293517f8819ef417987f8ae7a81f42cdfb18815282fe989326fbff903d13cf0e03ace295590517f8819ef417987f8ae7a81f42cdfb18815282fe989326fbff903d13cf0e03ace2a5591517f8819ef417987f8ae7a81f42cdfb18815282fe989326fbff903d13cf0e03ace2b5590517f8819ef417987f8ae7a81f42cdfb18815282fe989326fbff903d13cf0e03ace2c55517f8819ef417987f8ae7a81f42cdfb18815282fe989326fbff903d13cf0e03ace2d55620009db62001c55565b60028152600f6020808301918252600a604084019081526005606085019081526001608086019081526003600052600690935293517f75f96ab15d697e93042dc45b5c896c4b27e89bb6eaf39475c5c371cb2513f7d25591517f75f96ab15d697e93042dc45b5c896c4b27e89bb6eaf39475c5c371cb2513f7d35590517f75f96ab15d697e93042dc45b5c896c4b27e89bb6eaf39475c5c371cb2513f7d45590517f75f96ab15d697e93042dc45b5c896c4b27e89bb6eaf39475c5c371cb2513f7d555517f75f96ab15d697e93042dc45b5c896c4b27e89bb6eaf39475c5c371cb2513f7d65562000acb62001c55565b60028152600f6020808301918252600a604084019081526005606085019081526001608086019081526004600052600690935293517fc5069e24aaadb2addc3e52e868fcf3f4f8acf5a87e24300992fd4540c2a87eed5591517fc5069e24aaadb2addc3e52e868fcf3f4f8acf5a87e24300992fd4540c2a87eee5590517fc5069e24aaadb2addc3e52e868fcf3f4f8acf5a87e24300992fd4540c2a87eef5590517fc5069e24aaadb2addc3e52e868fcf3f4f8acf5a87e24300992fd4540c2a87ef055517fc5069e24aaadb2addc3e52e868fcf3f4f8acf5a87e24300992fd4540c2a87ef15562000bbb62001c55565b60028152600f6020808301918252600a60408401908152600560608501818152600160808701908152600092909252600690935293517fbfd358e93f18da3ed276c3afdbdba00b8f0b6008a03476a6a86bd6320ee6938b5591517fbfd358e93f18da3ed276c3afdbdba00b8f0b6008a03476a6a86bd6320ee6938c5590517fbfd358e93f18da3ed276c3afdbdba00b8f0b6008a03476a6a86bd6320ee6938d55517fbfd358e93f18da3ed276c3afdbdba00b8f0b6008a03476a6a86bd6320ee6938e55517fbfd358e93f18da3ed276c3afdbdba00b8f0b6008a03476a6a86bd6320ee6938f5562000cab62001c55565b60028152604b602080830191825260646040840181815260fa60608601908152608086019283526006600081905290935293517f697b2bd7bb2984c4e0dc14c79c987d37818484a62958b9c45a0e8b962f20650f5591517f697b2bd7bb2984c4e0dc14c79c987d37818484a62958b9c45a0e8b962f2065105591517f697b2bd7bb2984c4e0dc14c79c987d37818484a62958b9c45a0e8b962f2065115590517f697b2bd7bb2984c4e0dc14c79c987d37818484a62958b9c45a0e8b962f20651255517f697b2bd7bb2984c4e0dc14c79c987d37818484a62958b9c45a0e8b962f2065135562000d9962001c55565b60028152604b602080830191825260646040840181815260fa60608601908152608086019283526007600052600690935293517f4ced6d0d36392b04cc5d8761b1327b3bbba6e1089c77f60a9a9ca18e05e4f00e5591517f4ced6d0d36392b04cc5d8761b1327b3bbba6e1089c77f60a9a9ca18e05e4f00f5591517f4ced6d0d36392b04cc5d8761b1327b3bbba6e1089c77f60a9a9ca18e05e4f0105590517f4ced6d0d36392b04cc5d8761b1327b3bbba6e1089c77f60a9a9ca18e05e4f01155517f4ced6d0d36392b04cc5d8761b1327b3bbba6e1089c77f60a9a9ca18e05e4f0125562000e8762001c55565b60028152604b602080830191825260646040840181815260fa60608601908152608086019283526008600052600690935293517fb8d683c9d414f481826f3e7fe14b3ac6ae8c73450778287390c4bb8cb9f2e80b5591517fb8d683c9d414f481826f3e7fe14b3ac6ae8c73450778287390c4bb8cb9f2e80c5591517fb8d683c9d414f481826f3e7fe14b3ac6ae8c73450778287390c4bb8cb9f2e80d5590517fb8d683c9d414f481826f3e7fe14b3ac6ae8c73450778287390c4bb8cb9f2e80e55517fb8d683c9d414f481826f3e7fe14b3ac6ae8c73450778287390c4bb8cb9f2e80f5562000f7562001c55565b60028152604b602080830191825260646040840181815260fa60608601908152608086019283526009600052600690935293517fca4d0c6c94a9477136dd41a99cc19ecbe441c8f6609efe7c6fa65be007a473235591517fca4d0c6c94a9477136dd41a99cc19ecbe441c8f6609efe7c6fa65be007a473245591517fca4d0c6c94a9477136dd41a99cc19ecbe441c8f6609efe7c6fa65be007a473255590517fca4d0c6c94a9477136dd41a99cc19ecbe441c8f6609efe7c6fa65be007a4732655517fca4d0c6c94a9477136dd41a99cc19ecbe441c8f6609efe7c6fa65be007a47327556200106362001c55565b60028152604b602080830191825260646040840181815260fa6060860190815260808601928352600a600052600690935293517f4da38fc8e544afc56a4c2a17752b8ddb67d8e23ac4583c9029d2e2d1dbe6c9885591517f4da38fc8e544afc56a4c2a17752b8ddb67d8e23ac4583c9029d2e2d1dbe6c9895591517f4da38fc8e544afc56a4c2a17752b8ddb67d8e23ac4583c9029d2e2d1dbe6c98a5590517f4da38fc8e544afc56a4c2a17752b8ddb67d8e23ac4583c9029d2e2d1dbe6c98b55517f4da38fc8e544afc56a4c2a17752b8ddb67d8e23ac4583c9029d2e2d1dbe6c98c556200115162001c55565b60028152604b602080830191825260646040840181815260fa6060860190815260808601928352600b600052600690935293517f85291c2e7881182c13e19eca9b58927ebfdc2c5d04882018eeb33d8241d357115591517f85291c2e7881182c13e19eca9b58927ebfdc2c5d04882018eeb33d8241d357125591517f85291c2e7881182c13e19eca9b58927ebfdc2c5d04882018eeb33d8241d357135590517f85291c2e7881182c13e19eca9b58927ebfdc2c5d04882018eeb33d8241d3571455517f85291c2e7881182c13e19eca9b58927ebfdc2c5d04882018eeb33d8241d35715556200123f62001c55565b60028152604b602080830191825260646040840181815260fa6060860190815260808601928352600c600052600690935293517f0b94fa1b86997cc1f1148bfbe25b674e8cefc7cc6f976aa8d7c7966bd4cca3475591517f0b94fa1b86997cc1f1148bfbe25b674e8cefc7cc6f976aa8d7c7966bd4cca3485591517f0b94fa1b86997cc1f1148bfbe25b674e8cefc7cc6f976aa8d7c7966bd4cca3495590517f0b94fa1b86997cc1f1148bfbe25b674e8cefc7cc6f976aa8d7c7966bd4cca34a55517f0b94fa1b86997cc1f1148bfbe25b674e8cefc7cc6f976aa8d7c7966bd4cca34b556200132d62001c55565b60028152604b602080830191825260646040840181815260fa6060860190815260808601928352600d600052600690935293517f248457bacb20e239ae314d8db91c0f270e453c28ee138c84f97aea6cfcf9a4995591517f248457bacb20e239ae314d8db91c0f270e453c28ee138c84f97aea6cfcf9a49a5591517f248457bacb20e239ae314d8db91c0f270e453c28ee138c84f97aea6cfcf9a49b5590517f248457bacb20e239ae314d8db91c0f270e453c28ee138c84f97aea6cfcf9a49c55517f248457bacb20e239ae314d8db91c0f270e453c28ee138c84f97aea6cfcf9a49d556200141b62001c55565b60028152604b602080830191825260646040840181815260fa6060860190815260808601928352600e600052600690935293517faca6cdb4b5fe0ec50731a73f714dd191dc1911bfeb3f9eeb9e94ed0f6065ef8d5591517faca6cdb4b5fe0ec50731a73f714dd191dc1911bfeb3f9eeb9e94ed0f6065ef8e5591517faca6cdb4b5fe0ec50731a73f714dd191dc1911bfeb3f9eeb9e94ed0f6065ef8f5590517faca6cdb4b5fe0ec50731a73f714dd191dc1911bfeb3f9eeb9e94ed0f6065ef9055517faca6cdb4b5fe0ec50731a73f714dd191dc1911bfeb3f9eeb9e94ed0f6065ef91556200150962001c55565b60028152604b602080830191825260646040840181815260fa6060860190815260808601928352600f600052600690935293517ff130046d53bc87538ab17e4752ba5f5082985eecc06ccb932c5a55e8242dd5025591517ff130046d53bc87538ab17e4752ba5f5082985eecc06ccb932c5a55e8242dd5035591517ff130046d53bc87538ab17e4752ba5f5082985eecc06ccb932c5a55e8242dd5045590517ff130046d53bc87538ab17e4752ba5f5082985eecc06ccb932c5a55e8242dd50555517ff130046d53bc87538ab17e4752ba5f5082985eecc06ccb932c5a55e8242dd5065562001688620015fb62001c75565b60128152600a6020808301918252602d604084019081526003600052600590915291517fa9bc9a3a348c357ba16b37005d7e6b3236198c0e939f4af8c5f19b8deeb8ebc055517fa9bc9a3a348c357ba16b37005d7e6b3236198c0e939f4af8c5f19b8deeb8ebc155517fa9bc9a3a348c357ba16b37005d7e6b3236198c0e939f4af8c5f19b8deeb8ebc255565b620017236200169662001c75565b60128152600a6020808301918252605a604084019081526005600081905290915291517f458b30c2d72bfd2c6317304a4594ecbafe5f729d3111b65fdc3a33bd48e5432d55517f458b30c2d72bfd2c6317304a4594ecbafe5f729d3111b65fdc3a33bd48e5432e55517f458b30c2d72bfd2c6317304a4594ecbafe5f729d3111b65fdc3a33bd48e5432f55565b620017bf6200173162001c75565b60098152600a602080830191825261270f604084019081526007600052600590915291517feddb6698d7c569ff62ff64f1f1492bf14a54594835ba0faac91f84b4f5d8146055517feddb6698d7c569ff62ff64f1f1492bf14a54594835ba0faac91f84b4f5d8146155517feddb6698d7c569ff62ff64f1f1492bf14a54594835ba0faac91f84b4f5d8146255565b60036020526802b5e3af16b18800007fc3a24b0501bd2c13a7e57f2db4369ec4c223447539fc0724a9d55ac4a06ebd4d556004600052683635c9adc5dea000007f83ec6a1f0257b830b5e016457c9cf1435391bf56cc98f369a58a54fe9377246555600160358190556036805460ff1916909117905566038d7ea4c68000603055600a602d55620018916200185362001c35565b6002815260196020808301918252600160005260049052905160008051602062004a5e833981519152555160008051602062004b9e83398151915255565b620018e06200189f62001c35565b6002808252606460208084019182526000929092526004909152905160008051602062004bbe833981519152555160008051602062004b7e83398151915255565b6200192d620018ee62001c35565b600281526101f46020808301918252600360005260049052905160008051602062004ade833981519152555160008051602062004a3e83398151915255565b6200197a6200193b62001c35565b600281526107d06020808301918252600460008190529052905160008051602062004b3e833981519152555160008051602062004a7e83398151915255565b620019c76200198862001c35565b600281526113886020808301918252600560005260049052905160008051602062004abe833981519152555160008051602062004b5e83398151915255565b62001a14620019d562001c35565b600281526127106020808301918252600660005260049052905160008051602062004a9e833981519152555160008051602062004b1e83398151915255565b62001a6162001a2262001c35565b600281526161a86020808301918252600760005260049052905160008051602062004afe833981519152555160008051602062004a1e83398151915255565b62001afc62001a6f62001c75565b60128152600a6020808301918252602d604084019081526002600052600590915291517f89832631fb3c3307a103ba2c84ab569c64d6182a18893dcd163f0f1c2090733a55517f89832631fb3c3307a103ba2c84ab569c64d6182a18893dcd163f0f1c2090733b55517f89832631fb3c3307a103ba2c84ab569c64d6182a18893dcd163f0f1c2090733c55565b62001b9762001b0a62001c75565b60128152600a6020808301918252605a604084019081526004600052600590915291517f3eec716f11ba9e820c81ca75eb978ffb45831ef8b7a53e5e422c26008e1ca6d555517f3eec716f11ba9e820c81ca75eb978ffb45831ef8b7a53e5e422c26008e1ca6d655517f3eec716f11ba9e820c81ca75eb978ffb45831ef8b7a53e5e422c26008e1ca6d755565b62001ba56200173162001c75565b604051612d34908162001cea8239f35b60405162461bcd60e51b815260206004820152601360248201527f6f776e2e696e76616c69642e68657862617365000000000000000000000000006044820152606490fd5b600080fd5b634e487b7160e01b600052604160045260246000fd5b6040519060e082016001600160401b0381118382101762001bff57604052565b60408051919082016001600160401b0381118382101762001bff57604052565b6040519060a082016001600160401b0381118382101762001bff57604052565b60405190606082016001600160401b0381118382101762001bff57604052565b62001c9f62001c15565b9060008083528060208401528060408401528060608401528060808401528060a084015260c0830152565b62001cd462001c75565b9060008252600060208301526000604083015256fe60806040526004361015610018575b361561001657005b005b60003560e01c80630609a0e31461042857806307175c831461042357806309307c621461041e5780630b225f1a146104195780630ea0d2221461041457806311df44db1461040f57806312065fe01461040a57806314be92a51461040557806315a544ed146104005780631605aed9146103fb57806316f0115b146103f6578063192b48ee146103f15780631f185d16146103ec57806326c5adae146103e7578063298fc460146103e25780632e1fd49d146103dd5780633688236d146103d85780633b9b7955146103d35780634151331d146103ce578063438fe192146103c957806343c06bc4146103c457806344ec16bc146103bf5780634b62954f146103ba5780634dd4396c146103b557806353423e86146103b0578063541d7667146103ab57806354541683146103a65780635640dbfc146103a1578063592a02a81461039c5780635962205f146103975780635a0e9038146103925780636b81c82f1461038d5780636c7deb5d146103885780636f092c5e146103835780637687e3711461037e57806378ef376f146103795780637bc908c61461037457806388ed3bb51461036f5780638da5cb5b1461036a57806391fc8aa8146103655780639319d0b514610360578063991bf5cc1461035b5780639ce7ce0f146103565780639eb8b44e14610351578063a1f7f5391461034c578063a88fcea614610347578063a9df70b914610342578063aebcd32a1461033d578063af0b21d314610338578063af48452614610333578063b49c064c1461032e578063b5939a3714610329578063b85f1f8d14610324578063b90306ad1461031f578063c54e44b01461031a578063c5a136d414610315578063e01ad5fd14610310578063e0a9bc2b1461030b578063e2a1f69a14610306578063e7ed24f114610301578063eddd0d9c146102fc578063f2a6bbc7146102f7578063f4fe8e3c146102f2578063fc0e74d1146102ed5763fdc10bc90361000e576120c3565b6120a0565b611ffa565b611f57565b611eb4565b611e11565b611db9565b611d9e565b611d04565b611c19565b611b77565b611abb565b611a89565b611a6b565b611a48565b611a17565b6119f9565b6119b4565b61190b565b6118ed565b61183f565b61167c565b61157e565b611489565b6113e6565b6113c8565b6113a1565b611383565b611365565b6112c2565b611201565b6111d5565b611132565b61105b565b61100b565b610fb3565b610f01565b610e94565b610e76565b610e08565b610dea565b610da5565b610cfc565b610c59565b610bb0565b610b92565b610b45565b610b1e565b610b00565b610ae2565b610a21565b610960565b610850565b61079c565b610744565b610726565b610708565b610665565b610649565b6105ed565b6105cf565b6105b1565b610508565b6104ea565b346104e55760203660031901126104e5576104496104446122f3565b6127ed565b61045233612437565b801561046d575b61046290612838565b610016600435602555565b5060046001600160a01b036020816000541660405193848092630536340960e21b82525afa9081156104e057610462926000926104b0575b501633149050610459565b6104d291925060203d81116104d9575b6104ca818361220f565b810190612231565b90386104a5565b503d6104c0565b612249565b600080fd5b346104e55760003660031901126104e5576020602d54604051908152f35b346104e55760403660031901126104e5576105246104446122f3565b61052d33612437565b801561054e575b61053d90612838565b610016602435600435603055603155565b5060046001600160a01b036020816000541660405193848092630536340960e21b82525afa9081156104e05761053d92600092610591575b501633149050610534565b6105aa91925060203d81116104d9576104ca818361220f565b9038610586565b346104e55760003660031901126104e5576020603554604051908152f35b346104e55760003660031901126104e5576020602b54604051908152f35b346104e55760003660031901126104e557600e54600f54601054601154601254601354601454604080519788526020880196909652948601939093526060850191909152608084015260a083015260c082015260e090f35b0390f35b346104e55760003660031901126104e557602047604051908152f35b346104e55760203660031901126104e5576106816104446122f3565b61068a33612437565b80156106a5575b61069a90612838565b610016600435602b55565b5060046001600160a01b036020816000541660405193848092630536340960e21b82525afa9081156104e05761069a926000926106e8575b501633149050610691565b61070191925060203d81116104d9576104ca818361220f565b90386106dd565b346104e55760003660031901126104e5576020603154604051908152f35b346104e55760003660031901126104e5576020603054604051908152f35b346104e55760003660031901126104e557600754600854600954600a54600b54600c54600d54604080519788526020880196909652948601939093526060850191909152608084015260a083015260c082015260e090f35b346104e55760203660031901126104e5576107b86104446122f3565b6107c133612437565b80156107dc575b6107d190612838565b6100166004356128c9565b5060046001600160a01b036020816000541660405193848092630536340960e21b82525afa9081156104e0576107d19260009261081f575b5016331490506107c8565b61083891925060203d81116104d9576104ca818361220f565b9038610814565b6001600160a01b038116036104e557565b346104e5576020806003193601126104e5576004908135906108718261083f565b806108936108876000546001600160a01b031690565b6001600160a01b031690565b60405194858092634bf9c0ad60e11b82525afa9182156104e0576108e761092193610903926106459660009261093d575b506108f5906040519384918783019190916001600160a01b036020820193169052565b03601f19810184528361220f565b6108fd6124e1565b906126c2565b919080610933575b6109149061251a565b80825183010191016122de565b60405190151581529081906020820190565b508151811461090b565b6108f591925061095990863d88116104d9576104ca818361220f565b91906108c4565b346104e55760203660031901126104e557600460206001600160a01b0360005416604051928380926369e8d84b60e11b82525afa80156104e0576109c56109e991610645936000916109f9575b506109b6612c8d565b906109bf612ca5565b906127af565b6109e4600435916109df6109da602d54612883565b612883565b612cde565b6128b6565b6040519081529081906020820190565b610a11915060203d81116104d9576104ca818361220f565b386109ad565b801515036104e557565b346104e55760203660031901126104e557600435610a3e81610a17565b610a496104446122f3565b610a5233612437565b8015610a78575b90610a6661001692612838565b60ff8019603654169115151617603655565b506001600160a01b039060046020836000541660405192838092630536340960e21b82525afa80156104e05761001693610a6692600092610ac2575b503391161491925050610a59565b610adb91925060203d81116104d9576104ca818361220f565b9038610ab4565b346104e55760003660031901126104e5576020602654604051908152f35b346104e55760003660031901126104e5576020602a54604051908152f35b346104e55760003660031901126104e55760206001600160a01b0360005416604051908152f35b346104e55760203660031901126104e55760043560005260056020526040600020805461064560026001840154930154604051938493846040919493926060820195825260208201520152565b346104e55760003660031901126104e5576020602854604051908152f35b346104e55760603660031901126104e557610bcc6104446122f3565b610bd533612437565b8015610bf6575b610be590612838565b6100166044356024356004356129f1565b5060046001600160a01b036020816000541660405193848092630536340960e21b82525afa9081156104e057610be592600092610c39575b501633149050610bdc565b610c5291925060203d81116104d9576104ca818361220f565b9038610c2e565b346104e55760203660031901126104e557610c756104446122f3565b610c7e33612437565b8015610c99575b610c8e90612838565b610016600435602755565b5060046001600160a01b036020816000541660405193848092630536340960e21b82525afa9081156104e057610c8e92600092610cdc575b501633149050610c85565b610cf591925060203d81116104d9576104ca818361220f565b9038610cd1565b346104e55760403660031901126104e557610d186104446122f3565b610d2133612437565b8015610d42575b610d3190612838565b610016602435600435602955602a55565b5060046001600160a01b036020816000541660405193848092630536340960e21b82525afa9081156104e057610d3192600092610d85575b501633149050610d28565b610d9e91925060203d81116104d9576104ca818361220f565b9038610d7a565b346104e55760203660031901126104e557600435600052602f602052604060002060018154910154906106456040519283928360209093929193604081019481520152565b346104e55760003660031901126104e5576020602c54604051908152f35b346104e55760203660031901126104e557600460206001600160a01b0360005416604051928380926369e8d84b60e11b82525afa80156104e057610e5d6109e991610645936000916109f957506109b6612c8d565b60043560005260036020526109df604060002054612883565b346104e55760003660031901126104e5576020602754604051908152f35b346104e55760003660031901126104e55760e060225460235460405191825260ff9081811615156020840152818160081c1615156040840152818160101c1615156060840152818160181c1615156080840152818160201c16151560a084015260281c16151560c0820152f35b346104e55760c03660031901126104e557610f1d6104446122f3565b610f2633612437565b8015610f50575b610f3690612838565b61001660a4356084356064356044356024356004356128d7565b5060046001600160a01b036020816000541660405193848092630536340960e21b82525afa9081156104e057610f3692600092610f93575b501633149050610f2d565b610fac91925060203d81116104d9576104ca818361220f565b9038610f88565b346104e55760203660031901126104e557600435600052600660205260a06040600020805490600181015490600281015460046003830154920154926040519485526020850152604084015260608301526080820152f35b346104e55760003660031901126104e557601c54601d54601e5460408051938452602084019290925290820152606090f35b60809060031901126104e55760043590602435906044359060643590565b346104e5576110693661103d565b926110786104449392936122f3565b61108133612437565b80156110c9575b90611094600292612838565b61109c612b55565b50600181146110b8575b146110ad57005b601f55602055602155005b82601c5583601d5584601e556110a6565b506001600160a01b039060046020836000541660405192838092630536340960e21b82525afa80156104e05760029361109492600092611112575b503391161491925050611088565b61112b91925060203d81116104d9576104ca818361220f565b9038611104565b346104e55760203660031901126104e55761114e6104446122f3565b61115733612437565b8015611172575b61116790612838565b610016600435602c55565b5060046001600160a01b036020816000541660405193848092630536340960e21b82525afa9081156104e057611167926000926111b5575b50163314905061115e565b6111ce91925060203d81116104d9576104ca818361220f565b90386111aa565b346104e55760203660031901126104e55760043560005260036020526020604060002054604051908152f35b346104e55760203660031901126104e55760043561121e81610a17565b6112296104446122f3565b61123233612437565b8015611258575b9061124661001692612838565b60ff8019602454169115151617602455565b506001600160a01b039060046020836000541660405192838092630536340960e21b82525afa80156104e05761001693611246926000926112a2575b503391161491925050611239565b6112bb91925060203d81116104d9576104ca818361220f565b9038611294565b346104e55760203660031901126104e5576112de6104446122f3565b6112e733612437565b8015611302575b6112f790612838565b610016600435603255565b5060046001600160a01b036020816000541660405193848092630536340960e21b82525afa9081156104e0576112f792600092611345575b5016331490506112ee565b61135e91925060203d81116104d9576104ca818361220f565b903861133a565b346104e55760003660031901126104e5576020603254604051908152f35b346104e55760003660031901126104e5576020603354604051908152f35b346104e55760003660031901126104e55760206001600160a01b0360015416604051908152f35b346104e55760003660031901126104e5576020602e54604051908152f35b346104e55760203660031901126104e5576114026104446122f3565b61140b33612437565b8015611426575b61141b90612838565b610016600435602855565b5060046001600160a01b036020816000541660405193848092630536340960e21b82525afa9081156104e05761141b92600092611469575b501633149050611412565b61148291925060203d81116104d9576104ca818361220f565b903861145e565b346104e55760e03660031901126104e5576024356114a681610a17565b6044356114b281610a17565b6064356114be81610a17565b6084356114ca81610a17565b60a435916114d783610a17565b60c435936114e485610a17565b6114ef6104446122f3565b6114f833612437565b8015611514575b9561150c61001697612838565b600435612a40565b506001600160a01b039560046020886000541660405192838092630536340960e21b82525afa80156104e0576100169861150c9260009261155e575b5033911614919750506114ff565b61157791925060203d81116104d9576104ca818361220f565b9038611550565b346104e5576101003660031901126104e55761159b6104446122f3565b6115a433612437565b80156115d4575b6115b490612838565b61001660e43560c43560a435608435606435604435602435600435612b9c565b5060046001600160a01b036020816000541660405193848092630536340960e21b82525afa9081156104e0576115b492600092611617575b5016331490506115ab565b61163091925060203d81116104d9576104ca818361220f565b903861160c565b6102a0810192916000915b6007831061164f57505050565b60019060608351918251815260209283810151848301526040809101519082015201920192019190611642565b346104e55760003660031901126104e5576040516116998161219a565b60005b60e0811061182a576106456116af612255565b600160005260056020526116e77f1471eb6eb2c5e789fc3de43f8ce62938c7d1836ec861730447e2ada8fd81017b612b74565b612b74565b81526002600052600560205261171c7f89832631fb3c3307a103ba2c84ab569c64d6182a18893dcd163f0f1c2090733a612b74565b60208201526117396116e260036000526005602052604060002090565b6040820152600460005260056020526117717f3eec716f11ba9e820c81ca75eb978ffb45831ef8b7a53e5e422c26008e1ca6d5612b74565b6060820152600560008190526020526117a97f458b30c2d72bfd2c6317304a4594ecbafe5f729d3111b65fdc3a33bd48e5432d612b74565b6080820152600660005260056020526117e17f069400f22b28c6c362558d92f66163cec5671cba50b61abd2eecfcd0eaeac518612b74565b60a0820152600760005260056020526118197feddb6698d7c569ff62ff64f1f1492bf14a54594835ba0faac91f84b4f5d81460612b74565b60c082015260405191829182611637565b602090611835612b55565b818401520161169c565b346104e55760003660031901126104e557600460206001600160a01b03600054166040519283809263d1f956b160e01b82525afa9081156104e057610645916109e9916000916118cf575b50604051611897816121d7565b601381527f67657464656c656761746f72436f756e7428290000000000000000000000000060208201526118c9612280565b916127af565b6118e7915060203d81116104d9576104ca818361220f565b3861188a565b346104e55760003660031901126104e5576020602954604051908152f35b346104e55760403660031901126104e5576119276104446122f3565b61193033612437565b8015611951575b61194090612838565b610016602435600435603355603455565b5060046001600160a01b036020816000541660405193848092630536340960e21b82525afa9081156104e05761194092600092611994575b501633149050611937565b6119ad91925060203d81116104d9576104ca818361220f565b9038611989565b346104e55760203660031901126104e5576004356000526004602052604060002060018154910154906106456040519283928360209093929193604081019481520152565b346104e55760003660031901126104e5576020602554604051908152f35b346104e55760203660031901126104e5576020611a3e600435611a398161083f565b612437565b6040519015158152f35b346104e55760003660031901126104e557602060ff603654166040519015158152f35b346104e55760003660031901126104e5576020603454604051908152f35b346104e55760003660031901126104e557601f5460208054602154604080519485529284019190915290820152606090f35b346104e55760203660031901126104e55760046001600160a01b036020816000541660405193848092630536340960e21b82525afa9182156104e057600092611b57575b5033911603611b13576100166004356125ce565b606460405162461bcd60e51b815260206004820152600f60248201527f6f776e2e6e6f6e617574682e44414f00000000000000000000000000000000006044820152fd5b611b7091925060203d81116104d9576104ca818361220f565b9038611aff565b346104e55760203660031901126104e557600435611b948161083f565b803b6000611ba182612264565b92611baf604051948561220f565b82845260208401903c602d815110611bd557602a015160405160609190911c8152602090f35b606460405162461bcd60e51b815260206004820152601360248201527f4e6f742061206d696e696d616c2070726f7879000000000000000000000000006044820152fd5b346104e557611c273661103d565b90611c366104449493946122f3565b611c3f33612437565b8015611c9b575b92611c52600294612838565b611c5e600882106129a6565b60405194611c6b866121bb565b85526020850191825260408501928352600052600560205260406000209351845551600184015551910155600080f35b506001600160a01b039260046020856000541660405192838092630536340960e21b82525afa80156104e057600295611c5292600092611ce4575b503391161491945050611c46565b611cfd91925060203d81116104d9576104ca818361220f565b9038611cd6565b346104e5576020806003193601126104e55760048035611d238161083f565b6001600160a01b03928084600054166040519485809263d1f956b160e01b82525afa9081156104e0576106459461092194600093611d7f575b506040519316818401528252611d71826121d7565b611d79612565565b90612773565b611d97919350823d84116104d9576104ca818361220f565b9138611d5c565b346104e55760003660031901126104e5576020611a3e6122f3565b346104e55760003660031901126104e557601554601654601754601854601954601a54601b54604080519788526020880196909652948601939093526060850191909152608084015260a083015260c082015260e090f35b346104e55760203660031901126104e557611e2d6104446122f3565b611e3633612437565b8015611e51575b611e4690612838565b610016600435602655565b5060046001600160a01b036020816000541660405193848092630536340960e21b82525afa9081156104e057611e4692600092611e94575b501633149050611e3d565b611ead91925060203d81116104d9576104ca818361220f565b9038611e89565b346104e55760203660031901126104e557611ed06104446122f3565b611ed933612437565b8015611ef4575b611ee990612838565b610016600435602d55565b5060046001600160a01b036020816000541660405193848092630536340960e21b82525afa9081156104e057611ee992600092611f37575b501633149050611ee0565b611f5091925060203d81116104d9576104ca818361220f565b9038611f2c565b346104e55760203660031901126104e557611f736104446122f3565b611f7c33612437565b8015611f97575b611f8c90612838565b610016600435603555565b5060046001600160a01b036020816000541660405193848092630536340960e21b82525afa9081156104e057611f8c92600092611fda575b501633149050611f83565b611ff391925060203d81116104d9576104ca818361220f565b9038611fcf565b346104e55760403660031901126104e5576120166104446122f3565b61201f33612437565b801561203d575b61202f90612838565b610016602435600435612b39565b5060046001600160a01b036020816000541660405193848092630536340960e21b82525afa9081156104e05761202f92600092612080575b501633149050612026565b61209991925060203d81116104d9576104ca818361220f565b9038612075565b346104e55760003660031901126104e557602060ff602454166040519015158152f35b346104e55760003660031901126104e557600460206001600160a01b0360005416604051928380927f447aa3040000000000000000000000000000000000000000000000000000000082525afa9081156104e057610645916109e991600091612166575b50604051612134816121d7565b600581527f616765282900000000000000000000000000000000000000000000000000000060208201526118c9612280565b61217e915060203d81116104d9576104ca818361220f565b38612127565b634e487b7160e01b600052604160045260246000fd5b60e0810190811067ffffffffffffffff8211176121b657604052565b612184565b6060810190811067ffffffffffffffff8211176121b657604052565b6040810190811067ffffffffffffffff8211176121b657604052565b6020810190811067ffffffffffffffff8211176121b657604052565b90601f8019910116810190811067ffffffffffffffff8211176121b657604052565b908160209103126104e557516122468161083f565b90565b6040513d6000823e3d90fd5b604051906122628261219a565b565b67ffffffffffffffff81116121b657601f01601f191660200190565b6040519061228d826121f3565b60008252565b1561229a57565b606460405162461bcd60e51b815260206004820152601960248201527f6f776e2e7361666567756172642e63616c6c2e6661696c6564000000000000006044820152fd5b908160209103126104e5575161224681610a17565b6001600160a01b03600054166040518091634bf9c0ad60e11b825281600460209384935afa9182156104e0576122469261237b91600091612396575b5060405161233c816121d7565b600881527f69735361666528290000000000000000000000000000000000000000000000008482015260405191612372836121f3565b600083526126c2565b91908061238c575b61091490612293565b5081518114612383565b6123ad9150833d85116104d9576104ca818361220f565b3861232f565b604051906123c0826121d7565b601582527f69735365637572654261736528616464726573732900000000000000000000006020830152565b156123f357565b606460405162461bcd60e51b815260206004820152601a60248201527f6f776e2e736563757265626173652e63616c6c2e6661696c65640000000000006044820152fd5b6000546001600160a01b0316604051918291634bf9c0ad60e11b835282600460209485935afa9283156104e057612246936124a3926108e7926000926124be575b5061249b906040519384918783019190916001600160a01b036020820193169052565b6108fd6123b3565b9190806124b4575b610914906123ec565b50815181146124ab565b61249b9192506124da90863d88116104d9576104ca818361220f565b9190612478565b604051906124ee826121d7565b601182527f69735369676e65722861646472657373290000000000000000000000000000006020830152565b1561252157565b606460405162461bcd60e51b815260206004820152601660248201527f6f776e2e7369676e65722e63616c6c2e6661696c6564000000000000000000006044820152fd5b60405190612572826121d7565b601882527f697364656c656761746f724e6f646528616464726573732900000000000000006020830152565b3d156125c9573d906125af82612264565b916125bd604051938461220f565b82523d6000602084013e565b606090565b6000600460206001600160a01b03835416604051928380927f46f991ac0000000000000000000000000000000000000000000000000000000082525afa9081156104e05782848193829383916126a4575b505af161262a61259e565b50156126605760405190815233907fcdcc745fe377b103b45fa0cec23ae3ef93d6fc6a84a01f0d18c40b354dd1d5d890602090a2565b606460405162461bcd60e51b815260206004820152600f60248201527f6f776e2e6275726e2e6661696c656400000000000000000000000000000000006044820152fd5b6126bc915060203d81116104d9576104ca818361220f565b3861261f565b9190823b1561275a577fffffffff00000000000000000000000000000000000000000000000000000000815160208093012016916040519180830193845281519160005b8381106127465750505091816127336024826000979596889701878382015203600481018452018261220f565b5191620dbba0fa61274261259e565b9091565b818101830151858201602401528201612706565b50505060009060405161276c816121f3565b6000815290565b9291612781916000946126c2565b90806127a4575b61278f5750565b612246919250602080825183010191016122de565b506020815114612788565b92916127bd916000946126c2565b90806127e2575b6127cb5750565b9091506020818051810103126104e5576020015190565b5060208151146127c4565b156127f457565b606460405162461bcd60e51b815260206004820152601260248201527f6f776e2e696e76616c69642e69735361666500000000000000000000000000006044820152fd5b1561283f57565b606460405162461bcd60e51b815260206004820152601b60248201527f6f776e2e6e6f6e617574682e44414f6f725365637572656261736500000000006044820152fd5b90670de0b6b3a7640000918281029281840414901517156128a057565b634e487b7160e01b600052601160045260246000fd5b818102929181159184041417156128a057565b6128d290612883565b602e55565b9192939490946010831015612962576040519460a086019486861067ffffffffffffffff8711176121b6576122629761293396604052875260208701526040860152606085015260808401526000526006602052604060002090565b906080600491805184556020810151600185015560408101516002850155606081015160038501550151910155565b606460405162461bcd60e51b815260206004820152600d60248201527f696e76616c6964206c6576656c000000000000000000000000000000000000006044820152fd5b156129ad57565b606460405162461bcd60e51b815260206004820152600c60248201527f696e76616c69642072616e6b00000000000000000000000000000000000000006044820152fd5b916129fe600884106129a6565b60405192604084019284841067ffffffffffffffff8511176121b657600193604052845260208401918252600052600460205260406000209251835551910155565b612b18946122629794612ab1612af995612adc9460c09a9660405190612a658261219a565b8282521515928360208301521515948560408301521515958660608301521515978860808301521515998a60a083015215159b8c91015260225560ff8019602354169115151617602355565b6023805462ffff00191660089290921b61ff00169190911791151560101b62ff000016919091179055565b63ff00000060235491151560181b169063ff000000191617602355565b64ff0000000060235491151560201b169064ff00000000191617602355565b65ff000000000060235491151560281b169065ff0000000000191617602355565b612b45600882106129a6565b6000526003602052604060002055565b60405190612b62826121bb565b60006040838281528260208201520152565b90604051612b81816121bb565b60406002829480548452600181015460208501520154910152565b949192600396939794919760405198612bb48a61219a565b808a528160208b01528260408b01528360608b01528460808b01528560a08b01528660c08b015260018814612c6c575b5050505050505060028114612c32575b14612bfc5750565b8051601555602081015160165560408101516017556060810151601855608081015160195560a0810151601a5560c00151601b55565b8251600e556020830151600f5560408301516010556060830151601155608083015160125560a083015160135560c0830151601455612bf4565b600755600855600955600a55600b55600c55600d5538808080808080612be4565b604051612c99816121f3565b60008152906000368137565b60405190612cb2826121d7565b601282527f6f7a6f6e655072696365496e55534454282900000000000000000000000000006020830152565b8115612ce8570490565b634e487b7160e01b600052601260045260246000fdfea2646970667358221220fced545f59f4d3be324609066bd86efe42422726d6cf8034e044f76ea422422864736f6c63430008140033beb3bad75134cb432e5707980e3245c52c5998a1125ee30f2f0dbf3925b1e5522e174c10e159ea99b867ce3205125c24a42d128804e4070ed6fcc8cc98166aa1abd6e7cb50984ff9c2f3e18a2660c3353dadf4e3291deeb275dae2cd1e44fe051a1e6821cde7d0159c0d293177871e09677b4e42307c7db3ba94f8648a5a0510c59312466997bb42aaaf719ece141047820e6b34531e1670dc1852a453648f0f04cde762ef08b6b6c5ded8e8c4c0b3f4e5c9ad7342c88fcc93681b4588b73f052e174c10e159ea99b867ce3205125c24a42d128804e4070ed6fcc8cc98166aa0beb3bad75134cb432e5707980e3245c52c5998a1125ee30f2f0dbf3925b1e551c59312466997bb42aaaf719ece141047820e6b34531e1670dc1852a453648f101a1e6821cde7d0159c0d293177871e09677b4e42307c7db3ba94f8648a5a050f04cde762ef08b6b6c5ded8e8c4c0b3f4e5c9ad7342c88fcc93681b4588b73f0691da3fd0782e51c6b3986e9e672fd566868e71f3dbc2d6c2cd6fbb3e361af2a8abd6e7cb50984ff9c2f3e18a2660c3353dadf4e3291deeb275dae2cd1e44fe0691da3fd0782e51c6b3986e9e672fd566868e71f3dbc2d6c2cd6fbb3e361af2a7","linkReferences":{}},"methodIdentifiers":{"rule741()":"0a5b38ab","transferRequest()":"3da8676f"},"id":68}