{"abi":[{"type":"constructor","inputs":[{"name":"_hex","type":"address","internalType":"address"},{"name":"_price","type":"address","internalType":"address"},{"name":"_old741","type":"address","internalType":"address"}],"stateMutability":"nonpayable"},{"type":"function","name":"dAOAssembly","inputs":[],"outputs":[{"name":"","type":"address","internalType":"address"}],"stateMutability":"view"},{"type":"function","name":"daocore","inputs":[],"outputs":[{"name":"","type":"address","internalType":"address"}],"stateMutability":"view"},{"type":"function","name":"nested741","inputs":[],"outputs":[{"name":"","type":"address","internalType":"address"}],"stateMutability":"view"},{"type":"function","name":"old741","inputs":[],"outputs":[{"name":"","type":"address","internalType":"address"}],"stateMutability":"view"},{"type":"function","name":"price","inputs":[],"outputs":[{"name":"","type":"address","internalType":"address"}],"stateMutability":"view"}],"bytecode":{"object":"0x6080346101b757601f61960838819003918201601f19168301926001600160401b03929091838511838610176101a15781606092849260409788528339810103126101b75761004d816101bc565b6100648461005d602085016101bc565b93016101bc565b9160018060a01b03199273c0cee8b561cc4f60869776ca5b0b7a295e04f5af846001541617600155855161130a9586820196828810828911176101a15761032583396001600160a01b039485168088526000979092908190036020019088f080156101835785168660035416176003558751615edf808201908282108483111761018d576020918391613729833985815203019088f080156101835785168660025416176002558751916120fa808401928484109084111761016f5791839160209361162f8439815203019086f080156101655790838092168560045416176004551683600154161760015516908254161790555161015490816101d18239f35b86513d87823e3d90fd5b634e487b7160e01b89526041600452602489fd5b88513d89823e3d90fd5b634e487b7160e01b8a52604160045260248afd5b634e487b7160e01b600052604160045260246000fd5b600080fd5b51906001600160a01b03821682036101b75756fe608080604052600436101561001357600080fd5b600090813560e01c90816314837455146100f55750806314d8d024146100ce57806345cff900146100a75780635540c5ac146100805763a035b1fe1461005857600080fd5b3461007d578060031936011261007d576001600160a01b036020915416604051908152f35b80fd5b503461007d578060031936011261007d5760206001600160a01b0360015416604051908152f35b503461007d578060031936011261007d5760206001600160a01b0360025416604051908152f35b503461007d578060031936011261007d5760206001600160a01b0360045416604051908152f35b90503461011a578160031936011261011a576020906001600160a01b03600354168152f35b5080fdfea2646970667358221220e828b586a857f5c5fcc23e5a3bd2b18ec85b4101b3622cec17cf7d2d2230570064736f6c634300081400336080346100ca57601f61130a38819003918201601f19168301916001600160401b038311848410176100cf578084926020946040528339810103126100ca57516001600160a01b038116908190036100ca5780156100855760018060a01b0319338160015416176001556000541617600055600060045560405161122490816100e68239f35b60405162461bcd60e51b815260206004820152601360248201527f6f776e2e696e76616c69642e68657862617365000000000000000000000000006044820152606490fd5b600080fd5b634e487b7160e01b600052604160045260246000fdfe60806040526004361015610018575b361561001657005b005b60003560e01c806312065fe0146101085780631f185d161461010357806325924f34146100fe5780633b9b7955146100f957806361b7fbd9146100f45780638da5cb5b146100ef578063a1f7f539146100ea578063af484526146100e5578063b90306ad146100e0578063c54e44b0146100db578063c89b84fd146100d6578063dbac26e9146100d1578063e01ad5fd146100cc578063e0a9bc2b146100c75763fdc10bc90361000e5761099a565b6108fb565b610861565b61081e565b610714565b610672565b610552565b610481565b6103c3565b61039c565b6102c5565b610294565b610263565b61013a565b3461012457600036600319011261012457602047604051908152f35b600080fd5b6001600160a01b0381160361012457565b34610124576020806003193601126101245760049081359061015b82610129565b8061017d6101716000546001600160a01b031690565b6001600160a01b031690565b60405194858092634bf9c0ad60e11b82525afa91821561025e576101d161020b936101ed9261021d9660009261022b575b506101df906040519384918783019190916001600160a01b036020820193169052565b03601f198101845283610a10565b6101e7610e81565b90611072565b919080610221575b6101fe90610eba565b8082518301019101610de8565b60405190151581529081906020820190565b0390f35b50815181146101f5565b6101df91925061025090863d8811610257575b6102488183610a10565b810190610a32565b91906101ae565b503d61023e565b610a4a565b3461012457602036600319011261012457602061028a60043561028581610129565b610b69565b6040519015158152f35b346101245760003660031901126101245760206001600160a01b0360005416604051908152f35b8015150361012457565b34610124576040366003190112610124576004356102e281610129565b6024356102ee816102bb565b6001600160a01b03600092600460208386541660405192838092630536340960e21b82525afa801561025e5761032f91869161037e575b5083163314610d03565b16825260036020526040822060ff1981541660ff8315151617905560001461036b5760045460001981146103665760010160045580f35b610d4e565b6004548015610366576000190160045580f35b610396915060203d8111610257576102488183610a10565b38610325565b346101245760003660031901126101245760206001600160a01b0360015416604051908152f35b3461012457600036600319011261012457600460206001600160a01b03600054166040519283809263d1f956b160e01b82525afa90811561025e5761021d9161045391600091610463575b5060405161041b816109d3565b601381527f67657464656c656761746f72436f756e74282900000000000000000000000000602082015261044d610a72565b916111b0565b6040519081529081906020820190565b61047b915060203d8111610257576102488183610a10565b3861040e565b3461012457602080600319360112610124576004908135906104a282610129565b806104b86101716000546001600160a01b031690565b60405194858092634bf9c0ad60e11b82525afa91821561025e576101d161020b936105149261021d9660009261052f575b5061050c906040519384918783019190916001600160a01b036020820193169052565b6101e7610dfd565b919080610525575b6101fe90610e36565b508151811461051c565b61050c91925061054b90863d8811610257576102488183610a10565b91906104e9565b3461012457602080600319360112610124576004356001600160a01b0391600092808454169060405191630536340960e21b83528383600481845afa92831561025e5760049385936105ae928992610653575b50163314610d03565b604051928380927f46f991ac0000000000000000000000000000000000000000000000000000000082525afa91821561025e5784808561060595829583958492610636575b50505af16105ff610ff7565b50611027565b60405190815233907fcdcc745fe377b103b45fa0cec23ae3ef93d6fc6a84a01f0d18c40b354dd1d5d890602090a280f35b61064c9250803d10610257576102488183610a10565b38806105f3565b61066b919250853d8711610257576102488183610a10565b90386105a5565b346101245760203660031901126101245760043561068f81610129565b803b600061069c82610a56565b926106aa6040519485610a10565b82845260208401903c602d8151106106d057602a015160405160609190911c8152602090f35b606460405162461bcd60e51b815260206004820152601360248201527f4e6f742061206d696e696d616c2070726f7879000000000000000000000000006044820152fd5b346101245760008060031936011261081b5761073a61017182546001600160a01b031690565b906040519163cfbffe5360e01b835260208084600481855afa801561025e57610779829160049686916107fe575b50610771610a85565b61044d610a72565b926040519586809263ab6e844f60e01b82525afa90811561025e5761021d9461045394926107db575b506107cd906101d16107b2610f05565b94604051958693840160209093929193604081019481520152565b6107d5610cca565b906111b0565b8192506107f7906107cd923d8511610257576102488183610a10565b91906107a2565b6108159150833d8511610257576102488183610a10565b38610768565b80fd5b34610124576020366003190112610124576001600160a01b0360043561084381610129565b166000526003602052602060ff604060002054166040519015158152f35b3461012457602080600319360112610124576004803561088081610129565b6001600160a01b03928084600054166040519485809263d1f956b160e01b82525afa90811561025e5761021d9461020b946000936108dc575b5060405193168184015282526108ce826109d3565b6108d6610fbe565b90611174565b6108f4919350823d8411610257576102488183610a10565b91386108b9565b34610124576000366003190112610124576001600160a01b03600054166040518091634bf9c0ad60e11b825281600460209384935afa90811561025e5761096261020b9261021d9460009161097d575b50610954610d64565b61095c610a72565b91611072565b919080610973575b6101fe90610d9d565b508151811461096a565b6109949150833d8511610257576102488183610a10565b3861094b565b346101245760003660031901126101245760206109b5610f05565b604051908152f35b634e487b7160e01b600052604160045260246000fd5b6040810190811067ffffffffffffffff8211176109ef57604052565b6109bd565b6020810190811067ffffffffffffffff8211176109ef57604052565b90601f8019910116810190811067ffffffffffffffff8211176109ef57604052565b908160209103126101245751610a4781610129565b90565b6040513d6000823e3d90fd5b67ffffffffffffffff81116109ef57601f01601f191660200190565b60405190610a7f826109f4565b60008252565b60405190610a92826109d3565b600c82527f72616e6b666f7244414f282900000000000000000000000000000000000000006020830152565b60405190610acb826109d3565b601682527f67657455736572546f53746f72286164647265737329000000000000000000006020830152565b60405190610b04826109d3565b600682527f72616e6b282900000000000000000000000000000000000000000000000000006020830152565b60405190610b3d826109d3565b600882527f69734c6f636b28290000000000000000000000000000000000000000000000006020830152565b610b7e6101716000546001600160a01b031690565b9060405163cfbffe5360e01b81526020908181600481875afa801561025e57610bb583916004936000916107fe5750610771610a85565b946040519283809263ab6e844f60e01b82525afa801561025e57610c0e928492600092610ca7575b506040516001600160a01b03909316908301908152610c009083906020016101d1565b610c08610abe565b90611123565b916001600160a01b03831615610c9f57610c52610c3b610c2c610af7565b610c34610a72565b90866111b0565b93610c44610b30565b610c4c610a72565b91611174565b9210159182610c96575b5081610c66575090565b610a479150610c8b610c92916001600160a01b03166000526003602052604060002090565b5460ff1690565b1590565b15915038610c5c565b505050600090565b819250610cc390610c00923d8511610257576102488183610a10565b9190610bdd565b60405190610cd7826109d3565b601d82527f67657472616e6b636f756e742875696e743235362c75696e74323536290000006020830152565b15610d0a57565b606460405162461bcd60e51b815260206004820152600f60248201527f6f776e2e6e6f6e617574682e44414f00000000000000000000000000000000006044820152fd5b634e487b7160e01b600052601160045260246000fd5b60405190610d71826109d3565b600882527f69735361666528290000000000000000000000000000000000000000000000006020830152565b15610da457565b606460405162461bcd60e51b815260206004820152601960248201527f6f776e2e7361666567756172642e63616c6c2e6661696c6564000000000000006044820152fd5b908160209103126101245751610a47816102bb565b60405190610e0a826109d3565b601582527f69735365637572654261736528616464726573732900000000000000000000006020830152565b15610e3d57565b606460405162461bcd60e51b815260206004820152601a60248201527f6f776e2e736563757265626173652e63616c6c2e6661696c65640000000000006044820152fd5b60405190610e8e826109d3565b601182527f69735369676e65722861646472657373290000000000000000000000000000006020830152565b15610ec157565b606460405162461bcd60e51b815260206004820152601660248201527f6f776e2e7369676e65722e63616c6c2e6661696c6564000000000000000000006044820152fd5b600460206001600160a01b0360005416604051928380927f447aa3040000000000000000000000000000000000000000000000000000000082525afa801561025e57610a4791600091610fa0575b50604051610f60816109d3565b600581527f6167652829000000000000000000000000000000000000000000000000000000602082015260405191610f97836109f4565b600083526111b0565b610fb8915060203d8111610257576102488183610a10565b38610f53565b60405190610fcb826109d3565b601882527f697364656c656761746f724e6f646528616464726573732900000000000000006020830152565b3d15611022573d9061100882610a56565b916110166040519384610a10565b82523d6000602084013e565b606090565b1561102e57565b606460405162461bcd60e51b815260206004820152600f60248201527f6f776e2e6275726e2e6661696c656400000000000000000000000000000000006044820152fd5b9190823b1561110a577fffffffff00000000000000000000000000000000000000000000000000000000815160208093012016916040519180830193845281519160005b8381106110f65750505091816110e360248260009795968897018783820152036004810184520182610a10565b5191620dbba0fa6110f2610ff7565b9091565b8181018301518582016024015282016110b6565b50505060009060405161111c816109f4565b6000815290565b929161113191600094611072565b9080611169575b61113f5750565b9091506020818051810103126101245760206001600160a01b0391015161116581610129565b1690565b506020815114611138565b929161118291600094611072565b90806111a5575b6111905750565b610a4791925060208082518301019101610de8565b506020815114611189565b92916111be91600094611072565b90806111e3575b6111cc5750565b909150602081805181010312610124576020015190565b5060208151146111c556fea2646970667358221220eaef448ad9487daeb65d893b870f1c83da5b3723d4eaf4bb5197f2218f82def664736f6c634300081400336080346100cf57601f6120fa38819003918201601f19168301916001600160401b038311848410176100d4578084926020946040528339810103126100cf57516001600160a01b038116908190036100cf57801561008a5760018060a01b03193381600154161760015560005416176000556033600355600360045560405161200f90816100eb8239f35b60405162461bcd60e51b815260206004820152601360248201527f6f776e2e696e76616c69642e68657862617365000000000000000000000000006044820152606490fd5b600080fd5b634e487b7160e01b600052604160045260246000fdfe60806040526004361015610018575b361561001657005b005b60003560e01c8063013cf08b1461018857806312065fe0146101835780631f185d161461017e5780633b9b7955146101795780634072265b14610174578063438596321461016f5780635c622a0e1461016a57806365153c4b14610165578063709df8d9146101605780638da5cb5b1461015b57806398e527d314610156578063995e433914610151578063a1f7f5391461014c578063af48452614610147578063b90306ad14610142578063c54e44b01461013d578063c7f758a814610138578063c9d27afe14610133578063d153356b1461012e578063e01ad5fd14610129578063e0a9bc2b14610124578063fdc10bc91461011f5763ffa734f00361000e57610f41565b610ef8565b610edd565b610eb6565b610dfb565b610c6d565b610bed565b610b05565b610a30565b61090b565b6108e8565b610864565b610846565b61081f565b6107e0565b610667565b610611565b6105ac565b61056f565b610548565b610517565b6104ea565b610425565b6005548110156101c857600c906005600052027f036b6384b5eca791c62761152d0c79bb0604c104a5fb6f4eb0703f3154bb3db00190600090565b634e487b7160e01b600052603260045260246000fd5b90600182811c9216801561020e575b60208310146101f857565b634e487b7160e01b600052602260045260246000fd5b91607f16916101ed565b9060009291805491610229836101de565b91828252600193848116908160001461028b575060011461024b575b50505050565b90919394506000526020928360002092846000945b838610610277575050505001019038808080610245565b805485870183015294019385908201610260565b9294505050602093945060ff191683830152151560051b01019038808080610245565b634e487b7160e01b600052604160045260246000fd5b6020810190811067ffffffffffffffff8211176102e057604052565b6102ae565b6040810190811067ffffffffffffffff8211176102e057604052565b90601f8019910116810190811067ffffffffffffffff8211176102e057604052565b9061033e6103379260405193848092610218565b0383610301565b565b60005b8381106103535750506000910152565b8181015183820152602001610343565b9060209161037c81518092818552858086019101610340565b601f01601f1916010190565b9b9997959392909e9d9c9a9896949e8c6101c08091528d016103a991610363565b916001600160a01b031660208d015260408c01528a810360608c01526103ce91610363565b9b60808a015260a089015260c088015260e087015261010086015261012085016103f89115159052565b15156101408401526001600160a01b031661016083015215156101808201526101a00161033e9115159052565b346104e55760203660031901126104e5576004356005548110156104e55761044c9061018d565b506040519061045f826103378184610218565b6104e161047660018301546001600160a01b031690565b60028301549061048860038501610323565b946004850154946005810154966006820154916007810154600a6008830154920154936040519a8b9a8b9560ff8860b81c169a60ff8960b01c169a6001600160a01b038a60101c169a60ff808c60081c169b1699610388565b0390f35b600080fd5b346104e55760003660031901126104e557602047604051908152f35b6001600160a01b038116036104e557565b346104e55760203660031901126104e557602061053e60043561053981610506565b6119c2565b6040519015158152f35b346104e55760003660031901126104e55760206001600160a01b0360005416604051908152f35b346104e55760203660031901126104e55760043560001981019081116105a757600561059c60209261018d565b500154604051908152f35b61130e565b346104e55760403660031901126104e5576004356024356105cc81610506565b60001982019182116105a75761060560ff9160096105eb60209561018d565b5001906001600160a01b0316600052602052604060002090565b54166040519015158152f35b346104e55760203660031901126104e55760043560001981019081116105a757600a61063e60409261018d565b50015460ff825191818160b01c161515835260b81c1615156020820152f35b801515036104e557565b346104e55760403660031901126104e5576004356024356106878161065d565b610690336119c2565b1561079c5760056106a86106a38461139d565b61018d565b5061076c61075f600b83016106e96106e46106e06106d93385906001600160a01b0316600052602052604060002090565b5460ff1690565b1590565b611523565b610747600a85015461070160ff8260b81c1615611442565b61071060ff8260081c166113ac565b61071c60ff821661156e565b610733610727611a6c565b600788015411156115b9565b60101c6001600160a01b03163314156114d8565b336001600160a01b0316600052602052604060002090565b805460ff19166001179055565b016107778154611604565b809155600454148015610794575b61078b57005b610016916116d6565b508015610785565b606460405162461bcd60e51b815260206004820152601260248201527f6f776e2e696e76616c69642e7369676e657200000000000000000000000000006044820152fd5b346104e55760403660031901126104e55760043560243561080081610506565b60001982019182116105a75761060560ff91600b6105eb60209561018d565b346104e55760003660031901126104e55760206001600160a01b0360015416604051908152f35b346104e55760003660031901126104e5576020600554604051908152f35b346104e55760203660031901126104e55760043560001981019081116105a75761088d9061018d565b506004810154600682015460078301546008840154600a9094015460408051948552602085019390935291830152606082019290925260ff60b083901c81161515608083015260b89290921c909116151560a082015260c090f35b346104e55760003660031901126104e5576020610903611c06565b604051908152f35b346104e5576020806003193601126104e55760049081359061092c82610506565b8061094e6109426000546001600160a01b031690565b6001600160a01b031690565b60405194858092634bf9c0ad60e11b82525afa918215610a2b576109a26109dc936109be926104e1966000926109f8575b506109b0906040519384918783019190916001600160a01b036020820193169052565b03601f198101845283610301565b6109b86118ba565b90611dc1565b9190806109ee575b6109cf906118f3565b80825183010191016117e5565b60405190151581529081906020820190565b50815181146109c6565b6109b0919250610a1d90863d8811610a24575b610a158183610301565b81019061175a565b919061097f565b503d610a0b565b611772565b346104e55760203660031901126104e55760046001600160a01b0360208160005416604051938480927f14d8d0240000000000000000000000000000000000000000000000000000000082525afa918215610a2b57600092610ae5575b5033911603610aa157610016600435611ccd565b606460405162461bcd60e51b815260206004820152600f60248201527f6f776e2e6e6f6e617574682e44414f00000000000000000000000000000000006044820152fd5b610afe91925060203d8111610a2457610a158183610301565b9038610a8d565b346104e55760203660031901126104e557600435610b2281610506565b803b6000610b2f8261177e565b92610b3d6040519485610301565b82845260208401903c602d815110610b6357602a015160405160609190911c8152602090f35b606460405162461bcd60e51b815260206004820152601360248201527f4e6f742061206d696e696d616c2070726f7879000000000000000000000000006044820152fd5b94919093610bc360a0959897949860c0885260c0880190610363565b976001600160a01b0380931660208801526040870152166060850152151560808401521515910152565b346104e55760203660031901126104e55760043560001981019081116105a757610c169061018d565b506001600160a01b036104e18160018401541691600284015493610c48610c4f600a8301549260405192838092610218565b0382610301565b60405195869560ff84169460ff8560081c169460101c169287610ba7565b346104e55760403660031901126104e557600435602435610c8d8161065d565b610c96336119c2565b8015610dd8575b610ca690611352565b610cb26106a38361139d565b50600a8101906008825493610ccb60ff86841c166113ac565b610ce26007840154610cdb611a6c565b11156113f7565b610cf260ff8660b81c1615611442565b610d256009840195610733610d206106e06106d9338b906001600160a01b0316600052602052604060002090565b61148d565b60008115610dd257506001905b610d4460ff6004860193168354611345565b8255600090610dc55750610d8461075f6001965b610d6a60ff6006880199168954611345565b8855336001600160a01b0316600052602052604060002090565b5491015480911092831593610db9575b505081610dac575b50610da357005b61001690611613565b5460ff1615905038610d9c565b54101591503880610d94565b61075f610d849196610d58565b90610d32565b50610de16117fa565b8015610c9d5750610ca6610df433611b25565b9050610c9d565b346104e55760403660031901126104e557610e146117fa565b15610e7257333003610e2e57600480356003556024359055005b606460405162461bcd60e51b815260206004820152600d60248201527f64616f2e66616b652e636f7265000000000000000000000000000000000000006044820152fd5b606460405162461bcd60e51b815260206004820152601260248201527f6f776e2e696e76616c69642e69735361666500000000000000000000000000006044820152fd5b346104e55760203660031901126104e557602061053e600435610ed881610506565b611b25565b346104e55760003660031901126104e557602061053e6117fa565b346104e55760003660031901126104e5576020610903611a6c565b9181601f840112156104e55782359167ffffffffffffffff83116104e557602083818601950101116104e557565b346104e55760c03660031901126104e55767ffffffffffffffff6004358181116104e557610f73903690600401610f13565b9091602435610f8181610506565b6064358281116104e557610f99903690600401610f13565b9160a43594610fa78661065d565b6001600160a01b038216156111ae5760055490680100000000000000008210156102e057610fdc60019283810160055561018d565b509581116102e057610ff881610ff288546101de565b886111f2565b6000601f8211600114611134579261107b94928261106a93600a99989661111b9c600092611129575b5050600019600383901b1c191690821b1787555b8601906001600160a01b03167fffffffffffffffffffffffff0000000000000000000000000000000000000000825416179055565b604435600285015560038401611246565b6110a161109a61109561108c611c06565b60035490611324565b611337565b6064900490565b60088201556110b96084356110b4611a6c565b611345565b60078201550180543360101b75ffffffffffffffffffffffffffffffffffffffff0000167fffffffffffffffffffff000000000000000000000000000000000000000000ff909116176101001760ff191660ff92151592909216919091179055565b600554604051908152602090f35b013590503880611021565b601f1982169061114988600052602060002090565b91815b81811061119857509383600a9998969361111b9c839461106a9761107b9b991061117e575b505050811b018755611035565b0135600019600384901b60f8161c19169055388080611171565b8b8301358455928501926020928301920161114c565b606460405162461bcd60e51b815260206004820152601260248201527f6f776e2e64656661756c742e73656e64657200000000000000000000000000006044820152fd5b90601f811161120057505050565b600091825260208220906020601f850160051c8301941061123c575b601f0160051c01915b82811061123157505050565b818155600101611225565b909250829061121c565b90929167ffffffffffffffff81116102e05761126c8161126684546101de565b846111f2565b6000601f82116001146112a6578192939460009261129b575b50508160011b916000199060031b1c1916179055565b013590503880611285565b601f198216946112bb84600052602060002090565b91805b8781106112f65750836001959697106112dc575b505050811b019055565b0135600019600384901b60f8161c191690553880806112d2565b909260206001819286860135815501940191016112be565b634e487b7160e01b600052601160045260246000fd5b818102929181159184041417156105a757565b90606382018092116105a757565b919082018092116105a757565b1561135957565b606460405162461bcd60e51b815260206004820152601660248201527f64616f2e6e6f6e617574682e64656c656761746f7273000000000000000000006044820152fd5b6000198101919082116105a757565b156113b357565b606460405162461bcd60e51b815260206004820152601160248201527f64616f2e70726f702e6e6f7465786973740000000000000000000000000000006044820152fd5b156113fe57565b606460405162461bcd60e51b815260206004820152601060248201527f64616f2e766f74696e672e656e646564000000000000000000000000000000006044820152fd5b1561144957565b606460405162461bcd60e51b815260206004820152601560248201527f64616f2e616c72656164792e636f6d706c6574656400000000000000000000006044820152fd5b1561149457565b606460405162461bcd60e51b815260206004820152601160248201527f64616f2e616c72656164792e766f7465640000000000000000000000000000006044820152fd5b156114df57565b606460405162461bcd60e51b815260206004820152601260248201527f64616f2e766f7465722e726573747269637400000000000000000000000000006044820152fd5b1561152a57565b606460405162461bcd60e51b815260206004820152601260248201527f64616f2e616c72656164792e7369676e656400000000000000000000000000006044820152fd5b1561157557565b606460405162461bcd60e51b815260206004820152601360248201527f64616f2e70726f702e6d7573747369676e6564000000000000000000000000006044820152fd5b156115c057565b606460405162461bcd60e51b815260206004820152601360248201527f64616f2e6265666f72652e646561646c696e65000000000000000000000000006044820152fd5b60001981146105a75760010190565b6106a361161f9161139d565b5060ff600a820161163d81600160b81b60ff60b81b19825416179055565b61166f6004840154600885015481101590816116c8575b50825460ff60b01b191690151560b01b60ff60b01b16178255565b5460b01c16806116b3575b6116815750565b8061169960016116b09301546001600160a01b031690565b6116aa600360028401549301610323565b90611edf565b50565b506116c160038201546101de565b151561167a565b905060068501541038611654565b6116e56106a361172b9261139d565b50600a8101805460ff60b81b1916600160b81b178155909280611748575b80611737575b815460ff60b01b191690151560b01b60ff60b01b161781555460b01c60ff1690565b806116b3576116815750565b506004830154600684015410611709565b50600483015460088401541115611703565b908160209103126104e5575161176f81610506565b90565b6040513d6000823e3d90fd5b67ffffffffffffffff81116102e057601f01601f191660200190565b156117a157565b606460405162461bcd60e51b815260206004820152601960248201527f6f776e2e7361666567756172642e63616c6c2e6661696c6564000000000000006044820152fd5b908160209103126104e5575161176f8161065d565b6001600160a01b03600054166040518091634bf9c0ad60e11b825281600460209384935afa918215610a2b5761176f926118829160009161189d575b50604051611843816102e5565b600881527f69735361666528290000000000000000000000000000000000000000000000008482015260405191611879836102c4565b60008352611dc1565b919080611893575b6109cf9061179a565b508151811461188a565b6118b49150833d8511610a2457610a158183610301565b38611836565b604051906118c7826102e5565b601582527f69735365637572654261736528616464726573732900000000000000000000006020830152565b156118fa57565b606460405162461bcd60e51b815260206004820152601a60248201527f6f776e2e736563757265626173652e63616c6c2e6661696c65640000000000006044820152fd5b6040519061194b826102e5565b601182527f69735369676e65722861646472657373290000000000000000000000000000006020830152565b1561197e57565b606460405162461bcd60e51b815260206004820152601660248201527f6f776e2e7369676e65722e63616c6c2e6661696c6564000000000000000000006044820152fd5b6000546001600160a01b0316604051918291634bf9c0ad60e11b835282600460209485935afa928315610a2b5761176f93611a2e926109a292600092611a49575b50611a26906040519384918783019190916001600160a01b036020820193169052565b6109b861193e565b919080611a3f575b6109cf90611977565b5081518114611a36565b611a26919250611a6590863d8811610a2457610a158183610301565b9190611a03565b600460206001600160a01b0360005416604051928380927f447aa3040000000000000000000000000000000000000000000000000000000082525afa8015610a2b5761176f91600091611b07575b50604051611ac7816102e5565b600581527f6167652829000000000000000000000000000000000000000000000000000000602082015260405191611afe836102c4565b60008352611e57565b611b1f915060203d8111610a2457610a158183610301565b38611aba565b6001600160a01b039081600054169060405192839263d1f956b160e01b845283600460209586935afa938415610a2b57600094611be1575b50604051911682820152818152611bb490611b77816102e5565b604051611b83816102e5565b601881527f697364656c656761746f724e6f6465286164647265737329000000000000000084820152600094611dc1565b919080611bd7575b611bc557505090565b61176f925080825183010191016117e5565b5080825114611bbc565b611bb492919450611bfe90843d8611610a2457610a158183610301565b939091611b5d565b600460206001600160a01b03600054166040519283809263d1f956b160e01b82525afa8015610a2b5761176f91600091611c7f575b50604051611c48816102e5565b601381527f67657464656c656761746f72436f756e74282900000000000000000000000000602082015260405191611afe836102c4565b611c97915060203d8111610a2457610a158183610301565b38611c3b565b3d15611cc8573d90611cae8261177e565b91611cbc6040519384610301565b82523d6000602084013e565b606090565b6000600460206001600160a01b03835416604051928380927f46f991ac0000000000000000000000000000000000000000000000000000000082525afa908115610a2b578284819382938391611da3575b505af1611d29611c9d565b5015611d5f5760405190815233907fcdcc745fe377b103b45fa0cec23ae3ef93d6fc6a84a01f0d18c40b354dd1d5d890602090a2565b606460405162461bcd60e51b815260206004820152600f60248201527f6f776e2e6275726e2e6661696c656400000000000000000000000000000000006044820152fd5b611dbb915060203d8111610a2457610a158183610301565b38611d1e565b803b15611e3e576000927fffffffff000000000000000000000000000000000000000000000000000000008360208695519101201690611e2b6024604051809360208201958652611e1b8151809260208686019101610340565b8101036004810184520182610301565b5191620dbba0fa611e3a611c9d565b9091565b505050600090604051611e50816102c4565b6000815290565b9291611e6591600094611dc1565b9080611e8a575b611e735750565b9091506020818051810103126104e5576020015190565b506020815114611e6c565b90602082519201517fffffffff00000000000000000000000000000000000000000000000000000000908181169360048110611ed057505050565b60040360031b82901b16169150565b9190916001600160a01b03811615611f9557600091829184519160208601915af190611f09611c9d565b9115611f13575090565b805160009190600411611f8f57611f2a9150611e95565b815115611f3a5750805190602001fd5b6040517f21c09d340000000000000000000000000000000000000000000000000000000081527fffffffff00000000000000000000000000000000000000000000000000000000919091166004820152602490fd5b50611f2a565b606460405162461bcd60e51b815260206004820152601260248201527f6f776e2e696e76616c69642e74617267657400000000000000000000000000006044820152fdfea264697066735822122077207168870ce1ca9d617f99b8a709d017e2d3446c12fecb53fbcd48abecaff464736f6c63430008140033608034620000d157601f62005edf38819003918201601f19168301916001600160401b03831184841017620000d657808492602094604052833981010312620000d157516001600160a01b03811690819003620000d15780156200008c5760018060a01b03193381600154161760015560005416176000556001600355604051615df29081620000ed8239f35b60405162461bcd60e51b815260206004820152601360248201527f6f776e2e696e76616c69642e68657862617365000000000000000000000000006044820152606490fd5b600080fd5b634e487b7160e01b600052604160045260246000fdfe60806040526004361015610018575b361561001657005b005b60003560e01c80629db65514610347578063033eeffb146103425780630e5fd00b1461033d57806312065fe0146103385780631bb49f02146103335780631c53c2801461032e5780631f185d16146103295780632a687c87146103245780632fefc0bf1461031f578063307673e81461031a57806332ff4eab1461031557806333b59a5b146103105780633a7b55b81461030b5780633b9b7955146103065780633baee0ea14610301578063419cb27b146102fc57806342cc9d57146102f757806344585097146102f25780634f0f4aa9146102ed578063509222cd146102e857806350db85d1146102e357806361ea7208146102de578063629d671e146102d957806365d2fbd3146102d45780636a811244146102cf5780636fb412ab146102ca57806376fe6c45146102c55780637bb98498146102c057806380f85e33146102bb578063849c22ad146102b6578063896c354a146102b15780638da5cb5b146102ac57806395f72f49146102a757806398b3f215146102a2578063a1f7f5391461029d578063a89d693b14610298578063af48452614610293578063b1c490791461028e578063b366335e14610289578063b90306ad14610284578063c54e44b01461027f578063c871372b1461027a578063d1e0bbc614610275578063dcb3fc4a14610270578063e01ad5fd1461026b578063e0a9bc2b14610266578063eb95c66214610261578063eb9e9e2c1461025c578063f3ca712414610257578063fd38093b146102525763fdc10bc90361000e576130d5565b613065565b613039565b612e02565b612dd6565b612dbb565b612d21565b612b22565b612ae8565b612a6a565b6129c8565b61290c565b61285c565b6126e0565b6126b9565b61259a565b6124ad565b612481565b6123db565b6123b4565b612374565b612345565b61230b565b612265565b612215565b612071565b6119ee565b6115d7565b611599565b61157b565b6114bb565b611467565b61137a565b611342565b611313565b6112d9565b610b3d565b610aee565b610982565b6108ae565b610808565b610737565b6106ff565b610659565b610549565b610514565b6104af565b610493565b610443565b610406565b3461040157602036600319011261040157610368610363615684565b613456565b610371336157c8565b8015610389575b610381906134c2565b61001661507b565b5060046001600160a01b036020816000541660405193848092630536340960e21b82525afa9081156103fc57610381926000926103cc575b501633149050610378565b6103ee91925060203d81116103f5575b6103e68183613183565b8101906134a1565b90386103c1565b503d6103dc565b6134b6565b600080fd5b3461040157602036600319011261040157600435600052600b6020526020604060002054604051908152f35b6001600160a01b0381160361040157565b3461040157602036600319011261040157602060043561046281610432565b6001600160a01b03809116600052600482526040600020546000526007825260046040600020015416604051908152f35b3461040157600036600319011261040157602047604051908152f35b34610401576020366003190112610401576004356104cc81610432565b6001600160a01b0390811660009081526004602090815260408083205483526007825280832060020154808452600583529281902054815193845290931690820152f35b0390f35b3461040157602036600319011261040157600435600052600560205260206001600160a01b0360406000205416604051908152f35b34610401576020806003193601126104015760049081359061056a82610432565b8061058c6105806000546001600160a01b031690565b6001600160a01b031690565b60405194858092634bf9c0ad60e11b82525afa9182156103fc576105e061061a936105fc9261051096600092610636575b506105ee906040519384918783019190916001600160a01b036020820193169052565b03601f198101845283613183565b6105f6615872565b90615b1e565b91908061062c575b61060d906158ab565b8082518301019101615670565b60405190151581529081906020820190565b5081518114610604565b6105ee91925061065290863d88116103f5576103e68183613183565b91906105bd565b3461040157604036600319011261040157610675610363615684565b61067e336157c8565b801561069c575b61068e906134c2565b610016602435600435615406565b5060046001600160a01b036020816000541660405193848092630536340960e21b82525afa9081156103fc5761068e926000926106df575b501633149050610685565b6106f891925060203d81116103f5576103e68183613183565b90386106d4565b3461040157602036600319011261040157600435600052600760205260206001600160a01b0360056040600020015416604051908152f35b3461040157602036600319011261040157600435600090338252600460205261077d6107786040842054600052600760205260ff6001604060002001541690565b614028565b808252601060205260ff600260408420015460081c16156107c4576107af6107c1916000526010602052604060002090565b60026000918281558260018201550155565b80f35b606460405162461bcd60e51b815260206004820152601360248201527f6e65737465642e7265712e6e6f746578697374000000000000000000000000006044820152fd5b3461040157604036600319011261040157610824610363615684565b61082d336157c8565b801561084b575b61083d906134c2565b61001660243560043561545a565b5060046001600160a01b036020816000541660405193848092630536340960e21b82525afa9081156103fc5761083d9260009261088e575b501633149050610834565b6108a791925060203d81116103f5576103e68183613183565b9038610883565b34610401576040366003190112610401576108ca610363615684565b6108d3336157c8565b80156108f1575b6108e3906134c2565b6100166024356004356154f6565b5060046001600160a01b036020816000541660405193848092630536340960e21b82525afa9081156103fc576108e392600092610934575b5016331490506108da565b61094d91925060203d81116103f5576103e68183613183565b9038610929565b60e0810192916000915b6007831061096b57505050565b60019082518152602080910192019201919061095e565b3461040157602036600319011261040157610510600435610adc610acc604051926109ac8461312f565b60e03685376109d86109c8826000526009602052604060002090565b6001600052602052604060002090565b548452610a026109f2826000526009602052604060002090565b6002600052602052604060002090565b546020850152610a2f610a1f826000526009602052604060002090565b6003600052602052604060002090565b546040850152610a5c610a4c826000526009602052604060002090565b6004600052602052604060002090565b546060850152610a89610a79826000526009602052604060002090565b6005600052602052604060002090565b546080850152610ab6610aa6826000526009602052604060002090565b6006600052602052604060002090565b5460a08501526000526009602052604060002090565b6007600052602052604060002090565b5460c082015260405191829182610954565b346104015760003660031901126104015760206001600160a01b0360005416604051908152f35b604090600319011261040157600435610b2d81610432565b90602435610b3a81610432565b90565b3461040157610b9b610b4e36610b15565b90610b5761341b565b610b70610b626131d4565b610b6a6131ec565b33615bb4565b91610b84610b7c6131d4565b610b6a613225565b6001600160a01b038281169590948516861461325e565b610bc060009185610bb8610580828654166001600160a01b031690565b9116146132a9565b610bcb851515613f0e565b610be8826001600160a01b03166000526004602052604060002090565b541580156112ce575b610bfa90613f59565b610c22610c1a846001600160a01b03166000526004602052604060002090565b541515613fa4565b610c666005610c58610c47866001600160a01b03166000526004602052604060002090565b546000526007602052604060002090565b01546001600160a01b031690565b9360409182516020977f880cdc310000000000000000000000000000000000000000000000000000000089830152610cd060249280610cb7898683019190916001600160a01b036020820193169052565b0399610ccb601f199b8c8101845283613183565b615cc7565b50600493610cfb61058086610c58610c478c6001600160a01b03166000526004602052604060002090565b1561117757610d6e610d2786610c58610c478c6001600160a01b03166000526004602052604060002090565b87517f0399c93c000000000000000000000000000000000000000000000000000000008d82015233868201908152909190610ccb9083906020015b038d8101845283613183565b505b610d8d886001600160a01b03166000526004602052604060002090565b54610dab886001600160a01b03166000526004602052604060002090565b55610e0987610de1610dd08b6001600160a01b03166000526004602052604060002090565b546000526005602052604060002090565b906001600160a01b031673ffffffffffffffffffffffffffffffffffffffff19825416179055565b610e573386610e2e610c478b6001600160a01b03166000526004602052604060002090565b01906001600160a01b031673ffffffffffffffffffffffffffffffffffffffff19825416179055565b871614159485611153575b610e7f816001600160a01b03166000526004602052604060002090565b5497610e9a6005610c588b6000526007602052604060002090565b99610ed6610ec96002610eb78d6000526007602052604060002090565b01546000526005602052604060002090565b546001600160a01b031690565b978682610eed61058089546001600160a01b031690565b8a51928380927f6325dd040000000000000000000000000000000000000000000000000000000082525afa9081156103fc57610f8191610f75918991611136575b50610ccb8d8c519384917fd5ec0ea100000000000000000000000000000000000000000000000000000000898401528b83019190916001600160a01b036020820193169052565b03878101845283613183565b50156110805780610f9c61058087546001600160a01b031690565b8851978880926314ac1b5960e21b82525afa9283156103fc5761051099611025977fe3d1d5bf000000000000000000000000000000000000000000000000000000009795611057575b509061101991610ccb95968a5198899586015284019060209093929360408301946001600160a01b03809216845216910152565b03908101845283613183565b505b6110316001600355565b519283526001600160a01b03938416602084015290921660408201529081906060820190565b610ccb9550906110776110199392853d87116103f5576103e68183613183565b95509091610fe5565b80925061109761058086546001600160a01b031690565b8751968780926314ac1b5960e21b82525afa9182156103fc5761051098611109967f9498d88b00000000000000000000000000000000000000000000000000000000969461110f575b5061101990610ccb9495895197889485015283019190916001600160a01b036020820193169052565b50611027565b610ccb94509061112e61101992843d86116103f5576103e68183613183565b9450906110e0565b61114d9150853d87116103f5576103e68183613183565b38610f2e565b82611171886001600160a01b03166000526004602052604060002090565b55610e62565b848a61118d61058087546001600160a01b031690565b88519283809263111ea8c160e21b82525afa9081156103fc576111e3918a9187916112b1575b5088516001600160a01b03909216828e019081526111d5908390602001610d62565b6111dd613fef565b90615bb4565b8181161515806112a7575b6111f9575b50610d70565b86517f4fb2e45d00000000000000000000000000000000000000000000000000000000818d0152338582019081526112a0929161124d91611247908e90839060200103908101835282613183565b82615cc7565b508751907fa3e884b0000000000000000000000000000000000000000000000000000000008d830152610ccb82610d62888201906007606060808401936000815260006020820152600060408201520152565b50386111f3565b50803115156111ee565b6112c891508d803d106103f5576103e68183613183565b386111b3565b508284168514610bf1565b34610401576020366003190112610401576020611309600435600052600760205260ff6001604060002001541690565b6040519015158152f35b346104015760203660031901126104015760043560005260076020526020600360406000200154604051908152f35b3461040157602036600319011261040157600435600052600760205260206001600160a01b0360046040600020015416604051908152f35b346104015760203660031901126104015760043580600052600760205260406000205460056020526105106001600160a01b03806040600020541693600760205260406000209160046002840154930154166113e56005610c58846000526007602052604060002090565b90600361141d61140c6001611404876000526007602052604060002090565b015460ff1690565b946000526007602052604060002090565b01549360405197889788939160c09591989796939260e086019986526001600160a01b03938480931660208801526040870152166060850152166080830152151560a08201520152565b34610401576020366003190112610401576001600160a01b0360043561148c81610432565b1660005260046020526040600020546000526007602052602060ff600160406000200154166040519015158152f35b34610401576114c936610b15565b6114d4610363615684565b6114dd336157c8565b8015611511575b916114f16114f6936134c2565b61350d565b604080519283526001600160a01b0391909116602083015290f35b506001600160a01b039160046020846000541660405192838092630536340960e21b82525afa80156103fc576114f6946114f19260009261155b575b5033911614919350506114e4565b61157491925060203d81116103f5576103e68183613183565b903861154d565b34610401576000366003190112610401576020600654604051908152f35b34610401576020366003190112610401576001600160a01b036004356115be81610432565b1660005260046020526020604060002054604051908152f35b3461040157602036600319011261040157600435600161160d61160882611404856000526007602052604060002090565b613e62565b611621826000526010602052604060002090565b906002908183019260ff8454818160081c16806119e5575b61164290614463565b60101c16611869575061166c82611663866000526007602052604060002090565b015415156144f9565b6000815b61173e575b5050806116e0846001600160a01b036116b86005610c586000976116a66100169b6000526007602052604060002090565b01546000526007602052604060002090565b166116f3575b84546116d09060101c60ff1682614591565b6000526007602052604060002090565b0155805462ff0000191662010000179055565b6117386117136005610c58866116a6866000526007602052604060002090565b604051636f58dd0f60e11b60208201526000602482015290610ccb82604481016105e0565b506116be565b600380611759856116a6896000526007602052604060002090565b015482101561186357856117936117898484611783896116a6876000526007602052604060002090565b01613d27565b90549060031b1c90565b146117a857506117a290613a83565b81611670565b839250946118598661183b6116e0946118226118086117896100169c6117de60009c6116a68b6000526007602052604060002090565b01611802876117fb8d6116a68d6000526007602052604060002090565b015461379b565b90613d27565b91846117838a6116a68a6000526007602052604060002090565b90919082549060031b91821b91600019901b1916179055565b611853856116a6856000526007602052604060002090565b01614544565b9450819250611675565b50611675565b8261191561190f6107af966118db8960036118d561198c996105e0996118a96100169f9d6118a1876000526007602052604060002090565b0154156144ae565b0197885480916118c3866000526007602052604060002090565b01556000526007602052604060002090565b01613d44565b83546001600160a01b036118fe6005610c58846000526007602052604060002090565b1661199d575b505460101c60ff1690565b85614591565b610ccb611949610ec96119376004610c58896000526007602052604060002090565b93546000526005602052604060002090565b6040517f1499c5920000000000000000000000000000000000000000000000000000000060208201526001600160a01b0390911660248201529283906044820190565b506000526010602052604060002090565b6119b96005610c586119de936000526007602052604060002090565b604051636f58dd0f60e11b60208201526001602482015290610ccb82604481016105e0565b5038611904565b50808216611639565b34610401576040806003193601126104015760048035611a0c61341b565b611a286116086001611404846000526007602052604060002090565b611a4d611a4661058084610c58856000526007602052604060002090565b3314614184565b611a556137fd565b611a6e6005610c58836000526007602052604060002090565b600254908451611ae2611ad46020927f02a085f2000000000000000000000000000000000000000000000000000000008482015280611ac0602497883589840160209093929193604081019481520152565b0394610ccb601f1996878101845283613183565b828082518301019101614914565b94868651948783611af88683019889519061340e565b97611b08858401998a519061340e565b611b18606085019182519061340e565b9188611b2a608087019485519061340e565b97611b3b60a08801998a519061340e565b96611b54611b4f60c08301998a519061340e565b6153ac565b51611f95575b8251611ead575b5050508051611dbb575b508051611cce575b5050611b82835182519061340e565b611bc4575b89896105106101008a611b9f8d60e086015190614a45565b5192015192611bae6001600355565b5191825260208201929092529081906040820190565b84611be061058060009a969799989a546001600160a01b031690565b8b51968780927f24768d910000000000000000000000000000000000000000000000000000000082525afa80156103fc5761051098610100988c611c8a9663a9059cbb60e01b968996611b9f9b600097611c95575b5090611c65611019949392611c5b610ec9610ccb9a9b6000526005602052604060002090565b935190519061340e565b92519889958601528401602090939291936001600160a01b0360408201951681520152565b509382933880611b87565b610ccb975061101994939291611c5b610ec9611cc0611c65948a3d8c116103f5576103e68183613183565b9a5050509192939450611c35565b86611ce46105806000546001600160a01b031690565b8d51938480927f9dc969a80000000000000000000000000000000000000000000000000000000082525afa9182156103fc57611d84928d928c928a600093611d8c575b5050611d78611d47610ec9610ccb94956000526005602052604060002090565b9151945194859263a9059cbb60e01b8d850152898401602090939291936001600160a01b0360408201951681520152565b038a8101845283613183565b508338611b73565b610ccb9350610ec9611db1611d789383611d4794903d106103f5576103e68183613183565b945050508a611d27565b91878d611dd36105806000546001600160a01b031690565b9051928380927faa0ddc160000000000000000000000000000000000000000000000000000000082525afa9081156103fc578b611e75928f8b908b9763a9059cbb60e01b95600094611e7c575b5090611e6991611e41610ec9610ccb96976000526005602052604060002090565b905191519687948501528b8401602090939291936001600160a01b0360408201951681520152565b038c8101845283613183565b5038611b6b565b610ccb945090611e41610ec9611ea2611e699594873d89116103f5576103e68183613183565b965050509091611e20565b611ec56105806000979497546001600160a01b031690565b9051928380927f30125cf50000000000000000000000000000000000000000000000000000000082525afa9081156103fc578c8f928b611f5b948c9863a9059cbb60e01b95600094611f64575b5090610d6291611f33610ec9610ccb96976000526005602052604060002090565b905191519687948501528c8401602090939291936001600160a01b0360408201951681520152565b5038888e611b61565b610ccb945090611f33610ec9611f8a610d629594873d89116103f5576103e68183613183565b965050509091611f12565b611faa6105806000546001600160a01b031690565b9051958680927f640274270000000000000000000000000000000000000000000000000000000082525afa9384156103fc578e61203e8f8f8c988f8f968d90600093612044575b50611019612010610ec9610ccb95966000526005602052604060002090565b9551885163a9059cbb60e01b8b8201526001600160a01b039097169287019283526020830152859160400190565b50611b5a565b610ccb9350612010610ec9612068611019938c8d3d106103f5576103e68183613183565b95505050611ff1565b346104015760403660031901126104015760043560243561209061341b565b6120ac6116086001611404856000526007602052604060002090565b6120d06120c9610580610ec9856000526005602052604060002090565b3314614028565b6121026120ec6005610c58856000526007602052604060002090565b6120f4614073565b6120fc6131c1565b91615af3565b90806121186020938480825183010191016140ac565b1015612129575b6100166001600355565b826122066001600160a01b03927ff526f68a00000000000000000000000000000000000000000000000000000000946121fa6121df610ec96121ca6121bc61219a6121866005610c5861220c9f6000526007602052604060002090565b976040519182918983019190602083019252565b03976121ae601f19998a8101845283613183565b6121b66140bb565b90615af3565b8580825183010191016140f4565b99925050506000526005602052604060002090565b6121e76131d4565b9060405198899485015260248401614164565b03908101855284613183565b16615cc7565b5038808061211f565b3461040157602036600319011261040157602060043561223481610432565b6001600160a01b03809116600052600482526040600020546000526007825260056040600020015416604051908152f35b3461040157604036600319011261040157612281610363615684565b61228a336157c8565b80156122a8575b61229a906134c2565b610016602435600435614376565b5060046001600160a01b036020816000541660405193848092630536340960e21b82525afa9081156103fc5761229a926000926122eb575b501633149050612291565b61230491925060203d81116103f5576103e68183613183565b90386122e0565b3461040157604036600319011261040157600435600052600860205260406000206024356000526020526020604060002054604051908152f35b346104015760203660031901126104015760043560005260076020526020600260406000200154604051908152f35b3461040157604036600319011261040157600435600052600760205260206123a56024356003604060002001613d27565b90549060031b1c604051908152f35b346104015760003660031901126104015760206001600160a01b0360015416604051908152f35b34610401576040366003190112610401576123f7610363615684565b612400336157c8565b801561241e575b612410906134c2565b610016602435600435615430565b5060046001600160a01b036020816000541660405193848092630536340960e21b82525afa9081156103fc5761241092600092612461575b501633149050612407565b61247a91925060203d81116103f5576103e68183613183565b9038612456565b3461040157602036600319011261040157600435600052600f6020526020604060002054604051908152f35b3461040157600036600319011261040157600460206001600160a01b03600054166040519283809263d1f956b160e01b82525afa9081156103fc576105109161253d9160009161254d575b506040516125058161314b565b601381527f67657464656c656761746f72436f756e7428290000000000000000000000000060208201526125376131c1565b91615c41565b6040519081529081906020820190565b612565915060203d81116103f5576103e68183613183565b386124f8565b610100810192916000915b6008831061258357505050565b600190825181526020809101920192019190612576565b34610401576020366003190112610401576105106004356126a7610acc6125bf61532f565b926125e66125d7826000526008602052604060002090565b60008052602052604060002090565b5484526126006109c8826000526008602052604060002090565b54602085015261261d6109f2826000526008602052604060002090565b54604085015261263a610a1f826000526008602052604060002090565b546060850152612657610a4c826000526008602052604060002090565b546080850152612674610a79826000526008602052604060002090565b5460a0850152612691610aa6826000526008602052604060002090565b5460c08501526000526008602052604060002090565b5460e08201526040519182918261256b565b346104015760203660031901126104015760206113096004356126db81610432565b6157c8565b34610401576127e86126f136610b15565b906126fa61341b565b612743612708610b626131d4565b612713610b7c6131d4565b9061272c6001600160a01b03918280881691161461325e565b610bb861058082600054166001600160a01b031690565b61277061276b6001611404610c47856001600160a01b03166000526004602052604060002090565b6132f4565b6127d96127cf6127c061279e6005610c58610c47876001600160a01b03166000526004602052604060002090565b604051906127b8826105e060208201906000602083019252565b6121b661333f565b60208082518301019101613378565b505050151561339a565b6127e16137b7565b3390613a92565b6128016125d76002546000526008602052604060002090565b61280b81546133fb565b90556128156153d8565b61282e6005610c58836000526007602052604060002090565b9061283881613ead565b6128426001600355565b604080519182526001600160a01b03929092166020820152f35b3461040157602036600319011261040157612878610363615684565b612881336157c8565b801561289c575b612891906134c2565b610016600435613840565b50600460206128b66105806000546001600160a01b031690565b60405192838092630536340960e21b82525afa80156103fc57612891916000916128ee575b506001600160a01b031633149050612888565b612906915060203d81116103f5576103e68183613183565b386128db565b346104015760203660031901126104015760046001600160a01b036020816000541660405193848092630536340960e21b82525afa9182156103fc576000926129a8575b5033911603612964576100166004356159ff565b606460405162461bcd60e51b815260206004820152600f60248201527f6f776e2e6e6f6e617574682e44414f00000000000000000000000000000000006044820152fd5b6129c191925060203d81116103f5576103e68183613183565b9038612950565b34610401576020366003190112610401576004356129e581610432565b803b60006129f2826131a5565b92612a006040519485613183565b82845260208401903c602d815110612a2657602a015160405160609190911c8152602090f35b606460405162461bcd60e51b815260206004820152601360248201527f4e6f742061206d696e696d616c2070726f7879000000000000000000000000006044820152fd5b604036600319011261040157600435612a8161341b565b6000908082526007602052612a9f60ff600160408520015416613e62565b81526007602052612adf6001600160a01b036005604084200154166040519062a0e53360e51b6020830152602435602483015260248252610ccb8261310e565b50600160035580f35b3461040157604036600319011261040157600435600052600a60205260406000206024356000526020526020604060002054604051908152f35b346104015760c036600319011261040157602435600435612b4282610432565b6064359060843590612b5261341b565b612b6e6116086001611404846000526007602052604060002090565b612b8d611a466105806004610c58856000526007602052604060002090565b612b956137fd565b612b9e82615354565b612ba783615380565b612c54612c46612c32612bc96005610c58866000526007602052604060002090565b966040519182916020977f932ca2d600000000000000000000000000000000000000000000000000000000898501528960a435926044359060248701919260809396959491966001600160a01b0360a08501981684526020840152604083015260608201520152565b0396610ccb601f1998898101845283613183565b8380825183010191016141cf565b929080612c68575b505061211f9350614d8c565b60049082612c816105806000546001600160a01b031690565b604051938480927f5e09dbe70000000000000000000000000000000000000000000000000000000082525afa80156103fc5761211f97612cf49463a9059cbb60e01b94600093612cfc575b5060405190810194909452336024850152604484019290925290610ccb908360648101611019565b503880612c5c565b610ccb9350612d1a61101991833d85116103f5576103e68183613183565b9350612ccc565b34610401576020806003193601126104015760048035612d4081610432565b6001600160a01b03928084600054166040519485809263d1f956b160e01b82525afa9081156103fc576105109461061a94600093612d9c575b506040519316818401528252612d8e8261314b565b612d96615996565b90615c05565b612db4919350823d84116103f5576103e68183613183565b9138612d79565b34610401576000366003190112610401576020611309615684565b3461040157602036600319011261040157600435600052600c6020526020604060002054604051908152f35b346104015760403660031901126104015760043560243590612e55610778612e3d336001600160a01b03166000526004602052604060002090565b54600052600760205260ff6001604060002001541690565b612e716116086001611404846000526007602052604060002090565b612e92612e8d6001611404856000526007602052604060002090565b6141e5565b612eab6005610c58846000526007602052604060002090565b600483604051612ef16127cf612ee360209380612ecf868201906000602083019252565b03976127b8601f19998a8101845283613183565b838082518301019101613378565b612f05856000526010602052604060002090565b93612f716002860196612f2c612f27612f238a5460ff9060081c1690565b1590565b614230565b6040517f7bb984980000000000000000000000000000000000000000000000000000000085820152602481019190915260448101989098526064828101895288613183565b81612f876105806000546001600160a01b031690565b60405195868092630536340960e21b82525afa9384156103fc576100169761300795612ff49361101993600092613018575b50610ccb91926040519485917fffa734f00000000000000000000000000000000000000000000000000000000089840152306024840161427b565b91600185015580825183010191016140ac565b9055805461ff001916610100179055565b610ccb925061303390873d89116103f5576103e68183613183565b91612fb9565b3461040157602036600319011261040157600435600052600e6020526020604060002054604051908152f35b3461040157604080600319360112610401576001600160a01b0360043561308b81610432565b16600081815260046020818152848320548352600b815284832054938352908152838220548252600a81528382206024358352815290839020549251918252810191909152604090f35b346104015760003660031901126104015760206130f06158f6565b604051908152f35b634e487b7160e01b600052604160045260246000fd5b6060810190811067ffffffffffffffff82111761312a57604052565b6130f8565b60e0810190811067ffffffffffffffff82111761312a57604052565b6040810190811067ffffffffffffffff82111761312a57604052565b6020810190811067ffffffffffffffff82111761312a57604052565b90601f8019910116810190811067ffffffffffffffff82111761312a57604052565b67ffffffffffffffff811161312a57601f01601f191660200190565b604051906131ce82613167565b60008252565b6040516131e081613167565b60008152906000368137565b604051906131f98261314b565b600782527f6f776e65722829000000000000000000000000000000000000000000000000006020830152565b604051906132328261314b565b600c82527f67657448657862617365282900000000000000000000000000000000000000006020830152565b1561326557565b606460405162461bcd60e51b815260206004820152601760248201527f6e65737465642e696e76616c69642e696e7374616e63650000000000000000006044820152fd5b156132b057565b606460405162461bcd60e51b815260206004820152601660248201527f6e65737465642e696e76616c69642e68657862617365000000000000000000006044820152fd5b156132fb57565b606460405162461bcd60e51b815260206004820152601860248201527f6e65737465642e706172656e742e6e6f742e65786973747300000000000000006044820152fd5b6040519061334c8261314b565b601282527f6765744e6f64654c422875696e743235362900000000000000000000000000006020830152565b9190826080910312610401578151916020810151916060604083015192015190565b156133a157565b606460405162461bcd60e51b815260206004820152601960248201527f6e65737465642e706172656e742e6e6f2e627573696e657373000000000000006044820152fd5b634e487b7160e01b600052601160045260246000fd5b906001820180921161340957565b6133e5565b9190820180921161340957565b60026003541461342c576002600355565b60046040517f3ee5aeb5000000000000000000000000000000000000000000000000000000008152fd5b1561345d57565b606460405162461bcd60e51b815260206004820152601260248201527f6f776e2e696e76616c69642e69735361666500000000000000000000000000006044820152fd5b908160209103126104015751610b3a81610432565b6040513d6000823e3d90fd5b156134c957565b606460405162461bcd60e51b815260206004820152601b60248201527f6f776e2e6e6f6e617574682e44414f6f725365637572656261736500000000006044820152fd5b919061351761341b565b613547613542612f236001611404610c47866001600160a01b03166000526004602052604060002090565b613a38565b61355a613555600654613a83565b600655565b6135b16006549361357983610de1876000526005602052604060002090565b84613597846001600160a01b03166000526004602052604060002090565b556001600160a01b03166000526004602052604060002090565b546135bc8482613d6c565b6135f360046135d5866000526007602052604060002090565b0173ffffffffffffffffffffffffffffffffffffffff198154169055565b6136086105806000546001600160a01b031690565b9060405192839263e09d394d60e01b845283600460209586935afa80156103fc576136416136579160079660009161377e575b50613c91565b6005610e2e896000526007602052604060002090565b6136d06136736005610c58896000526007602052604060002090565b916136896105806000546001600160a01b031690565b6040516352902c5960e01b878201526001600160a01b039182166024820152911660448201526064810188905280608481015b0392610ccb601f1994858101845283613183565b5081151580613754575b61370b575b505083600052526001600160a01b03600560406000200154169161370281613ead565b91906001600355565b6137276005610c5861374c946000526007602052604060002090565b604051636f58dd0f60e11b858201526001602482015291610ccb908360448101611019565b5038806136df565b506001600160a01b036137766005610c58856000526007602052604060002090565b1615156136da565b6137959150863d88116103f5576103e68183613183565b3861363b565b60001981019190821161340957565b9190820391821161340957565b6137bf6158f6565b600254106137d7575b6137d56005600254613889565b565b6137df6158f6565b806002556000198101908111613409576137f8906151e9565b6137c8565b6138056158f6565b6002541061381a575b6137d560028054613889565b6138226158f6565b8060025560001981019081116134095761383b906151e9565b61380e565b6138486158f6565b6002541061385d575b6137d590600254613889565b6138656158f6565b90816002556000198201918211613409576138826137d5926151e9565b9050613851565b906138a16125d7836000526008602052604060002090565b541580613a2e575b80613a25575b6138b7575050565b6138d3906138cd6138c78461379b565b9161379b565b90613889565b6138f26125d76138e28361379b565b6000526008602052604060002090565b5461390a6125d7836000526008602052604060002090565b5561391a6109c86138e28361379b565b546139326109c8836000526008602052604060002090565b556139426109f26138e28361379b565b5461395a6109f2836000526008602052604060002090565b5561396a610a1f6138e28361379b565b54613982610a1f836000526008602052604060002090565b55613992610a4c6138e28361379b565b546139aa610a4c836000526008602052604060002090565b556139ba610a796138e28361379b565b546139d2610a79836000526008602052604060002090565b556139e2610aa66138e28361379b565b546139fa610aa6836000526008602052604060002090565b55613a22610acc613a10610acc6138e28561379b565b54926000526008602052604060002090565b55565b508015156138af565b50600182116138a9565b15613a3f57565b606460405162461bcd60e51b815260206004820152601560248201527f6e65737465642e616c72656164792e65786973747300000000000000000000006044820152fd5b60001981146134095760010190565b91613abe613542612f236001611404610c47866001600160a01b03166000526004602052604060002090565b613acc613555600654613a83565b613b2e613b0c60065494613aee84610de1886000526005602052604060002090565b85613597856001600160a01b03166000526004602052604060002090565b5492613b188585613d6c565b6004610e2e866000526007602052604060002090565b60046020613b476105806000546001600160a01b031690565b6040519283809263e09d394d60e01b82525afa9081156103fc57613b8c91613b7691600091613c795750613c91565b6005610e2e866000526007602052604060002090565b613bf6613ba86005610c58866000526007602052604060002090565b91613bbe6105806000546001600160a01b031690565b6040516352902c5960e01b60208201526001600160a01b039182166024820152911660448201526064810185905280608481016136bc565b5081151580613c4f575b613c0957505090565b613c256005610c58613c4b946000526007602052604060002090565b604051636f58dd0f60e11b60208201526001602482015291610ccb908360448101611019565b5090565b506001600160a01b03613c716005610c58856000526007602052604060002090565b161515613c00565b613795915060203d81116103f5576103e68183613183565b6e5af43d82803e903d91602b57fd5bf390763d602d80600a3d3981f3363d3d373d3d3d363d7300000062ffffff8260881c161760005260781b17602052603760096000f0906001600160a01b03821615613ce757565b60046040517fb06ebf3d000000000000000000000000000000000000000000000000000000008152fd5b634e487b7160e01b600052603260045260246000fd5b8054821015613d3f5760005260206000200190600090565b613d11565b908154916801000000000000000083101561312a57826118229160016137d595018155613d27565b919091600092808452602091600783526040808620956002948386890155846001988981018a60ff198254161790555587613db186600052600a602052604060002090565b83805282528489858520555b613dcc57505050505050509050565b613e3a613e29828b8a9414613e43575b613df088600052600a602052604060002090565b8187528552868620613e0281546133fb565b9055613e1888600052600b602052604060002090565b613e2281546133fb565b9055613a83565b956000526007602052604060002090565b01549384613dbd565b613e5d8960036118d58b6000526007602052604060002090565b613ddc565b15613e6957565b606460405162461bcd60e51b815260206004820152601560248201527f6e65737465642e757365722e6e6f7461637469766500000000000000000000006044820152fd5b806000526007602052613eca60ff60016040600020015416613e62565b6000526007602052613f0b6001600160a01b03600560406000200154166040519062a0e53360e51b60208301526001602483015260248252610ccb8261310e565b50565b15613f1557565b606460405162461bcd60e51b815260206004820152601360248201527f6e65737465642e7a65726f2e61646472657373000000000000000000000000006044820152fd5b15613f6057565b606460405162461bcd60e51b815260206004820152601460248201527f6e65737465642e7461726765742e6578697374730000000000000000000000006044820152fd5b15613fab57565b606460405162461bcd60e51b815260206004820152601760248201527f6e65737465642e736f757263652e6e6f744578697374730000000000000000006044820152fd5b60405190613ffc8261314b565b601382527f55736572546f496e7374286164647265737329000000000000000000000000006020830152565b1561402f57565b606460405162461bcd60e51b815260206004820152601560248201527f6e65737465642e696e76616c69642e73656e64657200000000000000000000006044820152fd5b604051906140808261314b565b600b82527f6d696e74436f756e7428290000000000000000000000000000000000000000006020830152565b90816020910312610401575190565b604051906140c88261314b565b600e82527f6d696e74732875696e74323536290000000000000000000000000000000000006020830152565b91908260809103126104015781519160208101519160606040830151920151610b3a81610432565b60005b83811061412f5750506000910152565b818101518382015260200161411f565b906020916141588151809281855285808601910161411c565b601f01601f1916010190565b6040906001600160a01b03610b3a9493168152816020820152019061413f565b1561418b57565b606460405162461bcd60e51b815260206004820152601b60248201527f6e65737465642e757365722e696e76616c6964696e7374616e636500000000006044820152fd5b9190826040910312610401576020825192015190565b156141ec57565b606460405162461bcd60e51b815260206004820152601560248201527f6e65737465642e696e76616c69642e706172656e7400000000000000000000006044820152fd5b1561423757565b606460405162461bcd60e51b815260206004820152601760248201527f6e65737465642e7265712e616c726561647965786973740000000000000000006044820152fd5b929161430360a0916001600160a01b0360009460c08852602460c08901527f547269676765722e6e65737465642e70726f706f73616c2e6d6f7665646f776e60e08901527f6c696e650000000000000000000000000000000000000000000000000000000061010089015216602087015283604087015261012080606088015286019061413f565b93600a60808201520152565b6040519061431c8261314b565b601282527f6765745374617475732875696e743235362900000000000000000000000000006020830152565b5190811515820361040157565b919082604091031261040157610b3a602061436f84614348565b9301614348565b6143a96143b5916143996116086001611404846000526007602052604060002090565b6000526010602052604060002090565b916001830154146141e5565b6143ca6105806000546001600160a01b031690565b906040518092630536340960e21b825281600460209586935afa9081156103fc576137d5936144256105e060029461443294600091614446575b5061441d87546040519384918783019190602083019252565b6121b661430f565b8051810182019101614355565b5091019060ff801983541691151516179055565b61445d9150843d86116103f5576103e68183613183565b38614404565b1561446a57565b606460405162461bcd60e51b815260206004820152601660248201527f6e65737465642e7265712e6e6f74617070726f766564000000000000000000006044820152fd5b156144b557565b606460405162461bcd60e51b815260206004820152601860248201527f6e65737465642e757365722e6e6f742e646574616368656400000000000000006044820152fd5b1561450057565b606460405162461bcd60e51b815260206004820152601b60248201527f6e65737465642e757365722e616c726564792e646574616368656400000000006044820152fd5b805490811561456e576000199182019161455e8383613d27565b909182549160031b1b1916905555565b634e487b7160e01b600052603160045260246000fd5b8015613409576000190190565b6145ae6145a882600052600b602052604060002090565b546133fb565b600290816145c6846000526007602052604060002090565b0154906001938492835b6145de575b50505050505050565b600f808511158061490b575b15614905578590600561460e61058082610c58876000526007602052604060002090565b61463b575b505061462c614634926000526007602052604060002090565b015493613a83565b92856145d0565b865b828111156147455750505061462c61463492896000146146e25761468561466e86600052600a602052604060002090565b6146778961379b565b600052602052604060002090565b546146b86146b0896146a185600052600a602052604060002090565b90600052602052604060002090565b91825461340e565b90556146ce81600052600b602052604060002090565b6146d987825461340e565b90555b92614613565b6146f961466e86600052600a602052604060002090565b5461471d614715896146a185600052600a602052604060002090565b9182546137aa565b905561473381600052600b602052604060002090565b61473e8782546137aa565b90556146dc565b9091925061476182610c58876000526007602052604060002090565b8a8961476d8a856137aa565b9260406147ae6147a082518061478c6020998a83019190602083019252565b03946127b8601f1996878101845283613183565b868082518301019101613378565b5050949091888b8415806148fd575b6148eb57610ccb93614850999896938b6147ed6148439a9895610c58611019966000526007602052604060002090565b975491519889957f7b058ac1000000000000000000000000000000000000000000000000000000008d8801526024870193909594919260809360a086019786526020860152604085015260608401521515910152565b80518101820191016141cf565b908b156148a6575b80821161487357505061486a90613a83565b9087929161463d565b61487c90613a83565b614895816146a18c546000526008602052604060002090565b61489f81546133fb565b9055614858565b8181116148b857505061486a90613a83565b806148d56148e6926146a18d546000526008602052604060002090565b6148df815461379b565b9055614584565b6148a6565b50505050505050505061486a90613a83565b5087156147bd565b506145d5565b508115156145ea565b9061012080838303126104015781601f84011215610401576040519281840184811067ffffffffffffffff82111761312a576040528391810192831161040157905b8282106149635750505090565b8151815260209182019101614956565b604051906149808261314b565b600f82527f66726565496e74657276616c73282900000000000000000000000000000000006020830152565b604051906149b98261314b565b601582527f67657452616e6b5769746841676556616c7565282900000000000000000000006020830152565b604051906149f28261314b565b601382527f72616e6b436c617573652875696e7432353629000000000000000000000000006020830152565b908160a0910312610401578051916020820151916040810151916080606083015192015190565b91906004906020614a616105806000546001600160a01b031690565b6040519384809263cfbffe5360e01b82525afa9182156103fc57600092614d6b575b50614a9d614a8f6131d4565b614a97614973565b84615c41565b906000809360009060009560009360009260009a5b600f8c111580614d62575b15614d5457614ade6105806005610c58846000526007602052604060002090565b614b0a575b6002614afc614b04926000526007602052604060002090565b01549b613a83565b9a614ab2565b8b614b41614b32614b2a6005610c58866000526007602052604060002090565b6120f46149ac565b602080825183010191016141cf565b82919215614d0b575b81151580614d02575b8015614cfa575b614b67575b505050614ae3565b838b9184959e8e949503614c38575b5092614bfa92610ccb614beb936105e08e614ba36005610c58614c009b6000526007602052604060002090565b9460025460405197889563208bffb160e21b60208801526024870193909594919260a09360c08601978652600060208701526040860152606085015260808401521515910152565b602080825183010191016140ac565b916133fb565b80821015614c1557509860028c614b04614b5f565b80613e18614c33926146a16002546000526008602052604060002090565b614c00565b939a50505050838211614c8b575b5088888b86841080801591614c62575b50159992919038614b76565b8a861015915081614c83575b5080614c7b575b38614c56565b508715614c75565b905038614c6e565b93509350935050614cdc614ccd604051614cbf81614cb187602083019190602083019252565b03601f198101835282613183565b614cc76149e5565b86615af3565b60208082518301019101614a1e565b949350909591509492614cf285936002546137aa565b119338614c46565b506000614b5a565b508a1515614b53565b96505099509250935050614d34614ccd604051614cbf81614cb18c602083019190602083019252565b9a9350909591509492828c819b614d4d886002546137aa565b1196614b4a565b505050505050505050509050565b50801515614abd565b614d8591925060203d6020116103f5576103e68183613183565b9038614a83565b929160046000926020614da961058086546001600160a01b031690565b6040519384809263cfbffe5360e01b82525afa9182156103fc57849261505a575b50614dd6614a8f6131d4565b918480809181978294839b5b600f8d111580615051575b1561504257614e0e6105806005610c58846000526007602052604060002090565b614e3a575b6002614e2c614e34926000526007602052604060002090565b01549c613a83565b9b614de2565b8c614e5a614b32614b2a6005610c58866000526007602052604060002090565b8291921580614fe9575b1580614fe0575b8015614fd7575b614e7f575b505050614e13565b8b849e948c928f95968703614f3d575b5092610ccb614beb936105e08e614f059895614ebd6005610c58614bfa9b6000526007602052604060002090565b956002549060405198899663208bffb160e21b60208901526024880194919260a0949197969360c0870198875260208701526040860152606085015260808401521515910152565b80821015614f1a57509960028d614e34614e77565b80613e18614f38926146a16002546000526008602052604060002090565b614f05565b94505050509750838211614f93575b5087898c8c87851080801591614f6a575b50159a9290939138614e8f565b8b871015915081614f8b575b5080614f83575b38614f5d565b508815614f7d565b905038614f76565b93509350935050614fb9614ccd604051614cbf81614cb187602083019190602083019252565b949350909591509492614fcf85936002546137aa565b119338614f4c565b508c1515614e72565b508a1515614e6b565b9750945050935094509850615021614ccd60405161501381614cb187602083019190602083019252565b61501b6149e5565b8c615af3565b9c93509096915095938d8194829d61503b826002546137aa565b1197614e64565b50505050505050505050509050565b50801515614ded565b61507491925060203d6020116103f5576103e68183613183565b9038614dca565b6002546000198101908111613409576137d5906151e9565b1561509a57565b606460405162461bcd60e51b815260206004820152601260248201527f6e65737465642e696e76616c69642e61676500000000000000000000000000006044820152fd5b604051906150eb8261314b565b601882527f6765744261746368526f79616c7479436c6175736573282900000000000000006020830152565b6102a09081818403126104015782601f8201121561040157604080519361513d8561312f565b849383019281841161040157935b83851061515a57505050505090565b6060858303126104015782516060916151728261310e565b865182526020918288015183820152858801518682015281520194019361514b565b906007811015613d3f5760051b0190565b908160640291606483040361340957565b8181029291811591840414171561340957565b81156151d3570490565b634e487b7160e01b600052601260045260246000fd5b6151f4811515615093565b6152096105806000546001600160a01b031690565b90604051809263cfbffe5360e01b825281600460209586935afa9081156103fc576152519161524391600091615312575b506120f46150de565b838082518301019101615117565b61526582600052600c602052604060002090565b5460015b6007811115615279575050505050565b806152956152fe926146a1876000526008602052604060002090565b54801561530c576152ae6152a88361379b565b86615194565b51878151928315615303576152d56152da926152cd6152e0968a6151b6565b9401516151a5565b6151b6565b906151c9565b6152f8826146a1886000526009602052604060002090565b55613a83565b615269565b50505050613a83565b50613a83565b6153299150853d87116103f5576103e68183613183565b3861523a565b6040519061010080830183811067ffffffffffffffff82111761312a57604052368337565b60025480600052600c60205260406000205491820180921161340957600052600c602052604060002055565b60025480600052600d60205260406000205491820180921161340957600052600d602052604060002055565b60025480600052600e60205260406000205491820180921161340957600052600e602052604060002055565b60025480600052600f602052604060002054906001820180921161340957600052600f602052604060002055565b9080600052600c60205260406000205491820180921161340957600052600c602052604060002055565b9080600052600e60205260406000205491820180921161340957600052600e602052604060002055565b9080600052600f60205260406000205491820180921161340957600052600f602052604060002055565b604051906154918261314b565b601482527f676574627573696e6573732875696e74323536290000000000000000000000006020830152565b604051906154ca8261314b565b601d82527f67657472616e6b436f756e742875696e743235362c75696e74323536290000006020830152565b60009061550d61058083546001600160a01b031690565b91604092835192839163111ea8c160e21b835282600460209485935afa9384156103fc578394615606575b505b8581111561554a57505050505050565b8451828101828152819003808252601f199161557b9161556d9060200182613183565b615575615484565b87615c41565b6155926146b084600052600c602052604060002090565b9055835b600881106155ae5750506155a990613a83565b61553a565b86518481018481526020810183905261560192916155e9916155db90829060400103868101835282613183565b6155e36154bd565b89615c41565b6152f8826146a1876000526008602052604060002090565b615596565b61561e919450823d84116103f5576103e68183613183565b9238615538565b1561562c57565b606460405162461bcd60e51b815260206004820152601960248201527f6f776e2e7361666567756172642e63616c6c2e6661696c6564000000000000006044820152fd5b9081602091031261040157610b3a90614348565b6001600160a01b03600054166040518091634bf9c0ad60e11b825281600460209384935afa9182156103fc57610b3a9261570c91600091615727575b506040516156cd8161314b565b600881527f6973536166652829000000000000000000000000000000000000000000000000848201526040519161570383613167565b60008352615b1e565b91908061571d575b61060d90615625565b5081518114615714565b61573e9150833d85116103f5576103e68183613183565b386156c0565b604051906157518261314b565b601582527f69735365637572654261736528616464726573732900000000000000000000006020830152565b1561578457565b606460405162461bcd60e51b815260206004820152601a60248201527f6f776e2e736563757265626173652e63616c6c2e6661696c65640000000000006044820152fd5b6000546001600160a01b0316604051918291634bf9c0ad60e11b835282600460209485935afa9283156103fc57610b3a93615834926105e09260009261584f575b5061582c906040519384918783019190916001600160a01b036020820193169052565b6105f6615744565b919080615845575b61060d9061577d565b508151811461583c565b61582c91925061586b90863d88116103f5576103e68183613183565b9190615809565b6040519061587f8261314b565b601182527f69735369676e65722861646472657373290000000000000000000000000000006020830152565b156158b257565b606460405162461bcd60e51b815260206004820152601660248201527f6f776e2e7369676e65722e63616c6c2e6661696c6564000000000000000000006044820152fd5b600460206001600160a01b03600054166040519283809263111ea8c160e21b82525afa80156103fc57610b3a91600091615978575b506040516159388161314b565b600581527f616765282900000000000000000000000000000000000000000000000000000060208201526040519161596f83613167565b60008352615c41565b615990915060203d81116103f5576103e68183613183565b3861592b565b604051906159a38261314b565b601882527f697364656c656761746f724e6f646528616464726573732900000000000000006020830152565b3d156159fa573d906159e0826131a5565b916159ee6040519384613183565b82523d6000602084013e565b606090565b6000600460206001600160a01b03835416604051928380927f46f991ac0000000000000000000000000000000000000000000000000000000082525afa9081156103fc578284819382938391615ad5575b505af1615a5b6159cf565b5015615a915760405190815233907fcdcc745fe377b103b45fa0cec23ae3ef93d6fc6a84a01f0d18c40b354dd1d5d890602090a2565b606460405162461bcd60e51b815260206004820152600f60248201527f6f776e2e6275726e2e6661696c656400000000000000000000000000000000006044820152fd5b615aed915060203d81116103f5576103e68183613183565b38615a50565b90615afe9291615b1e565b9060009015615b0b575090565b6040519150615b1982613167565b815290565b803b15615b9b576000927fffffffff000000000000000000000000000000000000000000000000000000008360208695519101201690615b886024604051809360208201958652615b78815180926020868601910161411c565b8101036004810184520182613183565b5191620dbba0fa615b976159cf565b9091565b505050600090604051615bad81613167565b6000815290565b9291615bc291600094615b1e565b9080615bfa575b615bd05750565b9091506020818051810103126104015760206001600160a01b03910151615bf681610432565b1690565b506020815114615bc9565b9291615c1391600094615b1e565b9080615c36575b615c215750565b610b3a91925060208082518301019101615670565b506020815114615c1a565b9291615c4f91600094615b1e565b9080615c72575b615c5d5750565b610b3a919250602080825183010191016140ac565b506020815114615c56565b90602082519201517fffffffff00000000000000000000000000000000000000000000000000000000908181169360048110615cb857505050565b60040360031b82901b16169150565b6001600160a01b03811615615d7857600080918351908260208601915af190615cee6159cf565b9115615cf8575090565b805160009190600411615d7257615d0f9150615c7d565b815115615d1f5750805190602001fd5b6024907fffffffff00000000000000000000000000000000000000000000000000000000604051917f21c09d34000000000000000000000000000000000000000000000000000000008352166004820152fd5b50615d0f565b606460405162461bcd60e51b815260206004820152601260248201527f6f776e2e696e76616c69642e74617267657400000000000000000000000000006044820152fdfea2646970667358221220f1662f90f8d04e6e803c60957d72354372fa682d2314ebbd15f859bf73457cfe64736f6c63430008140033","linkReferences":{}},"methodIdentifiers":{"dAOAssembly()":"14837455","daocore()":"14d8d024","nested741()":"45cff900","old741()":"5540c5ac","price()":"a035b1fe"},"id":69}