{"abi":[{"type":"constructor","inputs":[{"name":"_hex","type":"address","internalType":"address"}],"stateMutability":"nonpayable"},{"type":"function","name":"instance","inputs":[],"outputs":[{"name":"","type":"address","internalType":"address"}],"stateMutability":"view"},{"type":"function","name":"tVLFactory","inputs":[],"outputs":[{"name":"","type":"address","internalType":"address"}],"stateMutability":"view"},{"type":"function","name":"tVLMining","inputs":[],"outputs":[{"name":"","type":"address","internalType":"address"}],"stateMutability":"view"},{"type":"function","name":"tVLReward","inputs":[],"outputs":[{"name":"","type":"address","internalType":"address"}],"stateMutability":"view"},{"type":"function","name":"tVLRoyality","inputs":[],"outputs":[{"name":"","type":"address","internalType":"address"}],"stateMutability":"view"},{"type":"function","name":"tVLTour","inputs":[],"outputs":[{"name":"","type":"address","internalType":"address"}],"stateMutability":"view"},{"type":"function","name":"tVLValidator","inputs":[],"outputs":[{"name":"","type":"address","internalType":"address"}],"stateMutability":"view"}],"bytecode":{"object":"0x60803461023957601f6137b038819003918201601f19168301926001600160401b039290919083851183861017610223578083926040968752833960209283918101031261023957516001600160a01b03919082811690819003610239578451916121d6928381019381851087861117610223576103f482398284528681600095868582015203019084f09485156102195783549585166001600160a01b031996871617845586516111e68082019491808610848711176101e75784816125ca978489833985815203019087f080156101fb578716886001541617600155885181810181811085821117610205578186918489833985815203019087f080156101fb578716886002541617600255885181810181811085821117610205578186918489833985815203019087f080156101fb578716886003541617600355885181810181811085821117610205578186918489833985815203019087f080156101fb578716886004541617600455885181810181811085821117610205578186918489833985815203019087f080156101fb57871688600554161760055588519481860193868510908511176101e75790859392918439815203019082f09081156101dc575016906006541617600655516101b5908161023f8239f35b8451903d90823e3d90fd5b634e487b7160e01b87526041600452602487fd5b89513d88823e3d90fd5b634e487b7160e01b88526041600452602488fd5b86513d85823e3d90fd5b634e487b7160e01b600052604160045260246000fd5b600080fdfe60806040818152600436101561001457600080fd5b600091823560e01c908163022ec0951461015c575080639443767c146101355780639ba540fb1461010e578063a50c0bc0146100e7578063b85c9faf146100c0578063d795ff38146100995763dabf429d1461006f57600080fd5b346100955781600319360112610095576020906001600160a01b03600554169051908152f35b5080fd5b50346100955781600319360112610095576020906001600160a01b03600254169051908152f35b50346100955781600319360112610095576020906001600160a01b03600354169051908152f35b50346100955781600319360112610095576020906001600160a01b03600654169051908152f35b50346100955781600319360112610095576020906001600160a01b03600154169051908152f35b50346100955781600319360112610095576020906001600160a01b03600454169051908152f35b8390346100955781600319360112610095576001600160a01b0360209254168152f3fea2646970667358221220fa2d8aff3ca98d38e16c771e804dea2e1cdd3876275556802880e860a24c0da664736f6c63430008140033608034620000f457601f620021d638819003918201601f19168301916001600160401b03831184841017620000f9578084926040948552833981010312620000f4576200005a602062000052836200010f565b92016200010f565b6001600160a01b0391821691908215620000af5760018060a01b031992836001541690846000541617600055600160035533908433161717600155169060045416176004556040516120b19081620001258239f35b60405162461bcd60e51b815260206004820152601360248201527f6f776e2e696e76616c69642e68657862617365000000000000000000000000006044820152606490fd5b600080fd5b634e487b7160e01b600052604160045260246000fd5b51906001600160a01b0382168203620000f45756fe60806040526004361015610018575b361561001657005b005b60003560e01c80630399c93c1461014857806312065fe0146101435780631499c5921461013e5780631f185d16146101395780633b9b79551461013457806360f96a8f1461012f5780638129fc1c1461012a5780638da5cb5b14610125578063a1f7f53914610120578063a3e884b01461011b578063af48452614610116578063af640d0f14610111578063b28175c41461010c578063b90306ad14610107578063c107930a14610102578063c54e44b0146100fd578063e01ad5fd146100f8578063e0a9bc2b146100f35763fdc10bc90361000e5761112d565b611112565b611078565b610fd6565b610dce565b610d12565b610ceb565b610ccd565b610c9c565b6109d8565b6108f3565b6108cc565b610463565b61043c565b610415565b610301565b61024d565b610231565b610163565b6001600160a01b0381160361015e57565b600080fd5b3461015e57602036600319011261015e576004356101808161014d565b61019061018b6118ff565b6113bb565b61019933611a43565b80156101b2575b906101ad61001692611406565b6117c7565b506001600160a01b039060046020836000541660405192838092630536340960e21b82525afa801561022c57610016936101ad926000926101fc575b5033911614919250506101a0565b61021e91925060203d8111610225575b610216818361127c565b81019061129e565b90386101ee565b503d61020c565b6112b6565b3461015e57600036600319011261015e57602047604051908152f35b3461015e57602036600319011261015e5760043561026a8161014d565b61027561018b6118ff565b61027e33611a43565b8015610297575b9061029261001692611406565b61184d565b506001600160a01b039060046020836000541660405192838092630536340960e21b82525afa801561022c5761001693610292926000926102e1575b503391161491925050610285565b6102fa91925060203d811161022557610216818361127c565b90386102d3565b3461015e5760208060031936011261015e576004908135906103228261014d565b806103446103386000546001600160a01b031690565b6001600160a01b031690565b60405194858092634bf9c0ad60e11b82525afa91821561022c576103986103d2936103b4926103e4966000926103f2575b506103a6906040519384918783019190916001600160a01b036020820193169052565b03601f19810184528361127c565b6103ae611aed565b90611dc0565b9190806103e8575b6103c590611b26565b80825183010191016118e7565b60405190151581529081906020820190565b0390f35b50815181146103bc565b6103a691925061040e90863d881161022557610216818361127c565b9190610375565b3461015e57600036600319011261015e5760206001600160a01b0360005416604051908152f35b3461015e57600036600319011261015e5760206001600160a01b0360045416604051908152f35b6000806003193601126108c9576104786111ee565b6006546108855761049361033882546001600160a01b031690565b60408051907f013cf08b00000000000000000000000000000000000000000000000000000000918281526020938482806104d560048201906000602083019252565b0381845afa91821561022c578692610866575b5060015483516001600160a01b03909116868201818152829003808352601f1994919261052c92909161051e906020018361127c565b6105266112f1565b90611e71565b916001600160a01b0383161561076857505060048561055561033889546001600160a01b031690565b85519283809263ab6e844f60e01b82525afa90811561022c5761060e6106007f3baee0ea000000000000000000000000000000000000000000000000000000006106699561063b958b610664968e92610743575b506105ef6105fb92936105c46001546001600160a01b031690565b8d51938401969096526001600160a01b03908116602484015290941660448201529283906064820190565b0389810184528361127c565b611f86565b888082518301019101611346565b939091936001600160a01b031673ffffffffffffffffffffffffffffffffffffffff196004541617600455565b6001600160a01b031673ffffffffffffffffffffffffffffffffffffffff196005541617600555565b600655565b8361067e61033887546001600160a01b031690565b835194855260006004860152849060249082905afa90811561022c5761070f947f4ef260a90000000000000000000000000000000000000000000000000000000094879361071e575b506107036105fb93946106e26001546001600160a01b031690565b9051968793840152602483019190916001600160a01b036020820193169052565b0390810184528361127c565b505b61071b6001600355565b80f35b6105fb935061073c61070391833d851161022557610216818361127c565b93506106c7565b6105fb92506107616105ef91833d851161022557610216818361127c565b92506105a9565b869394809792965060049350519283809263ab6e844f60e01b82525afa93841561022c57610840956106649561081495610807948a92610845575b506105fb91926107036107be6004546001600160a01b031690565b91517fb1c4907900000000000000000000000000000000000000000000000000000000898201526001600160a01b03928316602482015295909116604486015284906064820190565b805181018201910161132a565b9190916001600160a01b031673ffffffffffffffffffffffffffffffffffffffff196005541617600555565b610711565b6105fb925061086090873d891161022557610216818361127c565b916107a3565b61087e919250853d871161022557610216818361127c565b90386104e8565b606460405162461bcd60e51b815260206004820152601660248201527f6d652e616c72656164792e696e697469616c697a6564000000000000000000006044820152fd5b80fd5b3461015e57600036600319011261015e5760206001600160a01b0360015416604051908152f35b3461015e57600036600319011261015e57600460206001600160a01b03600054166040519283809263d1f956b160e01b82525afa90811561022c576103e49161098391600091610993575b5060405161094b8161123f565b601381527f67657464656c656761746f72436f756e74282900000000000000000000000000602082015261097d6112de565b91611efe565b6040519081529081906020820190565b6109ab915060203d811161022557610216818361127c565b3861093e565b608090600319011261015e576004356109c98161014d565b90602435906044359060643590565b6109e1366109b1565b926109f26006939293541515611370565b6109fa6111ee565b60018403610a1657610a0c9350611506565b6100166001600355565b50916007915014610a28575b50610a0c565b600090610a3f61033883546001600160a01b031690565b906040908151809363ab6e844f60e01b825281600460209687935afa91821561022c57610ac792610ab9928791610c7f575b5060065485517f6a8112440000000000000000000000000000000000000000000000000000000088820152602481019190915260448101929092526105fb8260648101610398565b83808251830101910161149c565b819291471015610c00575b80471015610ae4575b50505050610a22565b610af861033886546001600160a01b031690565b9082519085826004817faa0ddc1600000000000000000000000000000000000000000000000000000000968782525afa801561022c57610b3f928891610be3575b50611bda565b83610b5461033887546001600160a01b031690565b91600484518094819382525afa93841561022c577f7d4a1422ffa08136e1bf377ead2864b211694a782b7a63c0ffc9852048b99b349594610bbe575b5050516001600160a01b039092168252602082015242604082015280606081015b0390a13880808080610adb565b610bb19294509081610bdb92903d1061022557610216818361127c565b929038610b90565b610bfa9150873d891161022557610216818361127c565b38610b39565b610c1b83610c166001546001600160a01b031690565b611bda565b7f7d4a1422ffa08136e1bf377ead2864b211694a782b7a63c0ffc9852048b99b34610c77610c516001546001600160a01b031690565b84516001600160a01b039091168152602081018690524260408201529081906060820190565b0390a1610ad2565b610c969150863d881161022557610216818361127c565b38610a71565b3461015e57602036600319011261015e576020610cc3600435610cbe8161014d565b611a43565b6040519015158152f35b3461015e57600036600319011261015e576020600654604051908152f35b3461015e57600036600319011261015e5760206001600160a01b0360055416604051908152f35b3461015e57602036600319011261015e5760046001600160a01b036020816000541660405193848092630536340960e21b82525afa91821561022c57600092610dae575b5033911603610d6a57610016600435611cc8565b606460405162461bcd60e51b815260206004820152600f60248201527f6f776e2e6e6f6e617574682e44414f00000000000000000000000000000000006044820152fd5b610dc791925060203d811161022557610216818361127c565b9038610d56565b610dd7366109b1565b610de76006949394541515611370565b610df261018b6118ff565b610dfb33611a43565b8015610f73575b610e0b90611406565b610e136111ee565b610e1e61018b6118ff565b610e2733611a43565b8015610f0a575b93610e3a600495611406565b610e4b610e4685611a43565b611451565b60206001600160a01b03600054166040519687809263ab6e844f60e01b82525afa91821561022c57610ed795600093610ee2575b50600654604051636e59fe2560e11b602082015260248101919091526001600160a01b0390951660448601526064850191909152608484019290925260a4830191909152600060c48301526105fb8260e48101610398565b506100166001600355565b6105fb935090610f026103989260203d811161022557610216818361127c565b935090610e7f565b506001600160a01b039360046020866000541660405192838092630536340960e21b82525afa801561022c57600496610e3a92600092610f53575b503391161491955050610e2e565b610f6c91925060203d811161022557610216818361127c565b9038610f45565b5060046001600160a01b036020816000541660405193848092630536340960e21b82525afa90811561022c57610e0b92600092610fb6575b501633149050610e02565b610fcf91925060203d811161022557610216818361127c565b9038610fab565b3461015e57602036600319011261015e57600435610ff38161014d565b803b6000611000826112c2565b9261100e604051948561127c565b82845260208401903c602d81511061103457602a015160405160609190911c8152602090f35b606460405162461bcd60e51b815260206004820152601360248201527f4e6f742061206d696e696d616c2070726f7879000000000000000000000000006044820152fd5b3461015e5760208060031936011261015e57600480356110978161014d565b6001600160a01b03928084600054166040519485809263d1f956b160e01b82525afa90811561022c576103e4946103d2946000936110f3575b5060405193168184015282526110e58261123f565b6110ed611b71565b90611ec2565b61110b919350823d841161022557610216818361127c565b91386110d0565b3461015e57600036600319011261015e576020610cc36118ff565b3461015e57600036600319011261015e57600460206001600160a01b0360005416604051928380927f447aa3040000000000000000000000000000000000000000000000000000000082525afa90811561022c576103e491610983916000916111d0575b5060405161119e8161123f565b600581527f6167652829000000000000000000000000000000000000000000000000000000602082015261097d6112de565b6111e8915060203d811161022557610216818361127c565b38611191565b6002600354146111ff576002600355565b60046040517f3ee5aeb5000000000000000000000000000000000000000000000000000000008152fd5b634e487b7160e01b600052604160045260246000fd5b6040810190811067ffffffffffffffff82111761125b57604052565b611229565b6020810190811067ffffffffffffffff82111761125b57604052565b90601f8019910116810190811067ffffffffffffffff82111761125b57604052565b9081602091031261015e57516112b38161014d565b90565b6040513d6000823e3d90fd5b67ffffffffffffffff811161125b57601f01601f191660200190565b604051906112eb82611260565b60008252565b604051906112fe8261123f565b601e82527f7265736f6c76655472616e7366657254617267657428616464726573732900006020830152565b919082604091031261015e57602082519201516112b38161014d565b9081606091031261015e57805191604060208301516113648161014d565b9201516112b38161014d565b1561137757565b606460405162461bcd60e51b815260206004820152600f60248201527f6d652e696e76616c69642e696e697400000000000000000000000000000000006044820152fd5b156113c257565b606460405162461bcd60e51b815260206004820152601260248201527f6f776e2e696e76616c69642e69735361666500000000000000000000000000006044820152fd5b1561140d57565b606460405162461bcd60e51b815260206004820152601b60248201527f6f776e2e6e6f6e617574682e44414f6f725365637572656261736500000000006044820152fd5b1561145857565b606460405162461bcd60e51b815260206004820152601360248201527f6d652e756e7365637572652e4f524331313535000000000000000000000000006044820152fd5b919082604091031261015e576020825192015190565b634e487b7160e01b600052601160045260246000fd5b906015820291808304601514901517156114de57565b6114b2565b90602d820291808304602d14901517156114de57565b919082039182116114de57565b611512610e4682611a43565b3461151c57505050565b61152f611528346114c8565b6064900490565b9161154461153c346114e3565b6103e8900490565b9361155161153c346114e3565b94611569866115648361156489346114f9565b6114f9565b9160009561158161033888546001600160a01b031690565b9260409384519586917f5e09dbe70000000000000000000000000000000000000000000000000000000083528260046020998a935afa801561022c576115cd928b916117b05750611bda565b6004856115e46103388b546001600160a01b031690565b8651928380927f640274270000000000000000000000000000000000000000000000000000000082525afa92831561022c57600493611629928b916117b05750611bda565b8461163e6103388a546001600160a01b031690565b8551938480927f30125cf50000000000000000000000000000000000000000000000000000000082525afa801561022c5761167f9289916117995750611bda565b60048361169661033889546001600160a01b031690565b8451928380927f24768d910000000000000000000000000000000000000000000000000000000082525afa97881561022c576004986116db9289916117995750611bda565b826116f061033888546001600160a01b031690565b83519889809263ab6e844f60e01b82525afa93841561022c5761176b97636e59fe2560e11b979561176e575b5060065492519384019690965260248301919091526001600160a01b039093166044820152606481019390935260848301919091523460a4830152600160c48301526105fb8260e48101610398565b50565b6105fb95509061178f610398949392863d881161022557610216818361127c565b955090919261171c565b610bfa9150863d881161022557610216818361127c565b610bfa9150883d8a1161022557610216818361127c565b6117fb906117d86006541515611370565b6117e06111ee565b6117f46001600160a01b0382161515611802565b4790611bda565b6001600355565b1561180957565b606460405162461bcd60e51b815260206004820152600f60248201527f6d652e7a65726f2e6164647265737300000000000000000000000000000000006044820152fd5b6001600160a01b03906118636006541515611370565b61186b6111ee565b16611877811515611802565b73ffffffffffffffffffffffffffffffffffffffff1960045416176004556001600355565b156118a357565b606460405162461bcd60e51b815260206004820152601960248201527f6f776e2e7361666567756172642e63616c6c2e6661696c6564000000000000006044820152fd5b9081602091031261015e5751801515810361015e5790565b6001600160a01b03600054166040518091634bf9c0ad60e11b825281600460209384935afa91821561022c576112b392611987916000916119a2575b506040516119488161123f565b600881527f6973536166652829000000000000000000000000000000000000000000000000848201526040519161197e83611260565b60008352611dc0565b919080611998575b6103c59061189c565b508151811461198f565b6119b99150833d851161022557610216818361127c565b3861193b565b604051906119cc8261123f565b601582527f69735365637572654261736528616464726573732900000000000000000000006020830152565b156119ff57565b606460405162461bcd60e51b815260206004820152601a60248201527f6f776e2e736563757265626173652e63616c6c2e6661696c65640000000000006044820152fd5b6000546001600160a01b0316604051918291634bf9c0ad60e11b835282600460209485935afa92831561022c576112b393611aaf9261039892600092611aca575b50611aa7906040519384918783019190916001600160a01b036020820193169052565b6103ae6119bf565b919080611ac0575b6103c5906119f8565b5081518114611ab7565b611aa7919250611ae690863d881161022557610216818361127c565b9190611a84565b60405190611afa8261123f565b601182527f69735369676e65722861646472657373290000000000000000000000000000006020830152565b15611b2d57565b606460405162461bcd60e51b815260206004820152601660248201527f6f776e2e7369676e65722e63616c6c2e6661696c6564000000000000000000006044820152fd5b60405190611b7e8261123f565b601882527f697364656c656761746f724e6f646528616464726573732900000000000000006020830152565b3d15611bd5573d90611bbb826112c2565b91611bc9604051938461127c565b82523d6000602084013e565b606090565b908015611cc4576001600160a01b038216918215611c8057600080808481945af1611c03611baa565b5015611c3c576040519081527fcec1f18c3ab8ddaaa107a1591e3c369667eec613626611a8deaedef43069fcdd9080602081015b0390a2565b606460405162461bcd60e51b815260206004820152601360248201527f6f776e2e7472616e736665722e6661696c6564000000000000000000000000006044820152fd5b606460405162461bcd60e51b815260206004820152600e60248201527f6f776e2e696e76616c69642e746f0000000000000000000000000000000000006044820152fd5b5050565b6000600460206001600160a01b03835416604051928380927f46f991ac0000000000000000000000000000000000000000000000000000000082525afa90811561022c578284819382938391611da2575b505af1611d24611baa565b5015611d5e5760405190815233907fcdcc745fe377b103b45fa0cec23ae3ef93d6fc6a84a01f0d18c40b354dd1d5d8908060208101611c37565b606460405162461bcd60e51b815260206004820152600f60248201527f6f776e2e6275726e2e6661696c656400000000000000000000000000000000006044820152fd5b611dba915060203d811161022557610216818361127c565b38611d19565b9190823b15611e58577fffffffff00000000000000000000000000000000000000000000000000000000815160208093012016916040519180830193845281519160005b838110611e44575050509181611e316024826000979596889701878382015203600481018452018261127c565b5191620dbba0fa611e40611baa565b9091565b818101830151858201602401528201611e04565b505050600090604051611e6a81611260565b6000815290565b9291611e7f91600094611dc0565b9080611eb7575b611e8d5750565b90915060208180518101031261015e5760206001600160a01b03910151611eb38161014d565b1690565b506020815114611e86565b9291611ed091600094611dc0565b9080611ef3575b611ede5750565b6112b3919250602080825183010191016118e7565b506020815114611ed7565b9291611f0c91600094611dc0565b9080611f31575b611f1a5750565b90915060208180518101031261015e576020015190565b506020815114611f13565b90602082519201517fffffffff00000000000000000000000000000000000000000000000000000000908181169360048110611f7757505050565b60040360031b82901b16169150565b6001600160a01b0381161561203757600080918351908260208601915af190611fad611baa565b9115611fb7575090565b80516000919060041161203157611fce9150611f3c565b815115611fde5750805190602001fd5b6024907fffffffff00000000000000000000000000000000000000000000000000000000604051917f21c09d34000000000000000000000000000000000000000000000000000000008352166004820152fd5b50611fce565b606460405162461bcd60e51b815260206004820152601260248201527f6f776e2e696e76616c69642e74617267657400000000000000000000000000006044820152fdfea264697066735822122006f88cd0bef4b51144b039d592c78b83838433843b841be34dcdd4cd851c3f6b64736f6c634300081400336080346100c557601f6111e638819003918201601f19168301916001600160401b038311848410176100ca578084926020946040528339810103126100c557516001600160a01b038116908190036100c55780156100805760018060a01b031933816001541617600155600054161760005560405161110590816100e18239f35b60405162461bcd60e51b815260206004820152601360248201527f6f776e2e696e76616c69642e68657862617365000000000000000000000000006044820152606490fd5b600080fd5b634e487b7160e01b600052604160045260246000fdfe60806040526004361015610018575b361561001657005b005b60003560e01c806312065fe0146100d85780631f185d16146100d35780633b9b7955146100ce5780638da5cb5b146100c9578063a1f7f539146100c4578063a9059cbb146100bf578063af484526146100ba578063b90306ad146100b5578063c54e44b0146100b0578063e01ad5fd146100ab578063e0a9bc2b146100a65763fdc10bc90361000e576106d7565b6106bc565b610622565b610580565b6104c4565b610493565b61033f565b610281565b61025a565b610233565b61010a565b346100f45760003660031901126100f457602047604051908152f35b600080fd5b6001600160a01b038116036100f457565b346100f4576020806003193601126100f45760049081359061012b826100f9565b8061014d6101416000546001600160a01b031690565b6001600160a01b031690565b60405194858092634bf9c0ad60e11b82525afa91821561022e576101a16101db936101bd926101ed966000926101fb575b506101af906040519384918783019190916001600160a01b036020820193169052565b03601f1981018452836107eb565b6101b7610bd8565b90610eab565b9190806101f1575b6101ce90610c11565b80825183010191016109d2565b60405190151581529081906020820190565b0390f35b50815181146101c5565b6101af91925061022090863d8811610227575b61021881836107eb565b81019061080d565b919061017e565b503d61020e565b610825565b346100f45760003660031901126100f45760206001600160a01b0360005416604051908152f35b346100f45760003660031901126100f45760206001600160a01b0360015416604051908152f35b346100f45760003660031901126100f457600460206001600160a01b03600054166040519283809263d1f956b160e01b82525afa90811561022e576101ed9161031191600091610321575b506040516102d9816107ae565b601381527f67657464656c656761746f72436f756e74282900000000000000000000000000602082015261030b610974565b91610f98565b6040519081529081906020820190565b610339915060203d81116102275761021881836107eb565b386102cc565b60403660031901126100f457600435610357816100f9565b6001600160a01b03908181161561044f576103706109ea565b1561040b5761037e33610b2e565b91821561039c575b5061039361001692610831565b6024359061087c565b9150600460206103b76101416000546001600160a01b031690565b60405192838092630536340960e21b82525afa801561022e5761001693610393926000926103eb575b501633149250610386565b61040491925060203d81116102275761021881836107eb565b90386103e0565b606460405162461bcd60e51b815260206004820152601260248201527f6f776e2e696e76616c69642e69735361666500000000000000000000000000006044820152fd5b606460405162461bcd60e51b815260206004820152601260248201527f6f776e2e64656661756c742e73656e64657200000000000000000000000000006044820152fd5b346100f45760203660031901126100f45760206104ba6004356104b5816100f9565b610b2e565b6040519015158152f35b346100f45760203660031901126100f45760046001600160a01b036020816000541660405193848092630536340960e21b82525afa91821561022e57600092610560575b503391160361051c57610016600435610db3565b606460405162461bcd60e51b815260206004820152600f60248201527f6f776e2e6e6f6e617574682e44414f00000000000000000000000000000000006044820152fd5b61057991925060203d81116102275761021881836107eb565b9038610508565b346100f45760203660031901126100f45760043561059d816100f9565b803b60006105aa82610958565b926105b860405194856107eb565b82845260208401903c602d8151106105de57602a015160405160609190911c8152602090f35b606460405162461bcd60e51b815260206004820152601360248201527f4e6f742061206d696e696d616c2070726f7879000000000000000000000000006044820152fd5b346100f4576020806003193601126100f45760048035610641816100f9565b6001600160a01b03928084600054166040519485809263d1f956b160e01b82525afa90811561022e576101ed946101db9460009361069d575b50604051931681840152825261068f826107ae565b610697610c5c565b90610f5c565b6106b5919350823d84116102275761021881836107eb565b913861067a565b346100f45760003660031901126100f45760206104ba6109ea565b346100f45760003660031901126100f457600460206001600160a01b0360005416604051928380927f447aa3040000000000000000000000000000000000000000000000000000000082525afa90811561022e576101ed916103119160009161077a575b50604051610748816107ae565b600581527f6167652829000000000000000000000000000000000000000000000000000000602082015261030b610974565b610792915060203d81116102275761021881836107eb565b3861073b565b634e487b7160e01b600052604160045260246000fd5b6040810190811067ffffffffffffffff8211176107ca57604052565b610798565b6020810190811067ffffffffffffffff8211176107ca57604052565b90601f8019910116810190811067ffffffffffffffff8211176107ca57604052565b908160209103126100f45751610822816100f9565b90565b6040513d6000823e3d90fd5b1561083857565b606460405162461bcd60e51b815260206004820152601b60248201527f6f776e2e6e6f6e617574682e44414f6f725365637572656261736500000000006044820152fd5b908047106108c9575b61088f8183610cc5565b60405190815233916001600160a01b0316907f1e70cf59d0c7a20c88704bfce5a47e636dfa577ebf52a7166641741cef34366190602090a3565b68056bc75e2d631000008101811161094257671bc16d674ec800008101808211610942576040517fa9059cbb00000000000000000000000000000000000000000000000000000000602082015230602482015260448082019290925290815261093c906109376064826107eb565b610fd6565b50610885565b634e487b7160e01b600052601160045260246000fd5b67ffffffffffffffff81116107ca57601f01601f191660200190565b60405190610981826107cf565b60008252565b1561098e57565b606460405162461bcd60e51b815260206004820152601960248201527f6f776e2e7361666567756172642e63616c6c2e6661696c6564000000000000006044820152fd5b908160209103126100f4575180151581036100f45790565b6001600160a01b03600054166040518091634bf9c0ad60e11b825281600460209384935afa91821561022e5761082292610a7291600091610a8d575b50604051610a33816107ae565b600881527f69735361666528290000000000000000000000000000000000000000000000008482015260405191610a69836107cf565b60008352610eab565b919080610a83575b6101ce90610987565b5081518114610a7a565b610aa49150833d85116102275761021881836107eb565b38610a26565b60405190610ab7826107ae565b601582527f69735365637572654261736528616464726573732900000000000000000000006020830152565b15610aea57565b606460405162461bcd60e51b815260206004820152601a60248201527f6f776e2e736563757265626173652e63616c6c2e6661696c65640000000000006044820152fd5b6000546001600160a01b0316604051918291634bf9c0ad60e11b835282600460209485935afa92831561022e5761082293610b9a926101a192600092610bb5575b50610b92906040519384918783019190916001600160a01b036020820193169052565b6101b7610aaa565b919080610bab575b6101ce90610ae3565b5081518114610ba2565b610b92919250610bd190863d88116102275761021881836107eb565b9190610b6f565b60405190610be5826107ae565b601182527f69735369676e65722861646472657373290000000000000000000000000000006020830152565b15610c1857565b606460405162461bcd60e51b815260206004820152601660248201527f6f776e2e7369676e65722e63616c6c2e6661696c6564000000000000000000006044820152fd5b60405190610c69826107ae565b601882527f697364656c656761746f724e6f646528616464726573732900000000000000006020830152565b3d15610cc0573d90610ca682610958565b91610cb460405193846107eb565b82523d6000602084013e565b606090565b908015610daf576001600160a01b038216918215610d6b57600080808481945af1610cee610c95565b5015610d27576040519081527fcec1f18c3ab8ddaaa107a1591e3c369667eec613626611a8deaedef43069fcdd9080602081015b0390a2565b606460405162461bcd60e51b815260206004820152601360248201527f6f776e2e7472616e736665722e6661696c6564000000000000000000000000006044820152fd5b606460405162461bcd60e51b815260206004820152600e60248201527f6f776e2e696e76616c69642e746f0000000000000000000000000000000000006044820152fd5b5050565b6000600460206001600160a01b03835416604051928380927f46f991ac0000000000000000000000000000000000000000000000000000000082525afa90811561022e578284819382938391610e8d575b505af1610e0f610c95565b5015610e495760405190815233907fcdcc745fe377b103b45fa0cec23ae3ef93d6fc6a84a01f0d18c40b354dd1d5d8908060208101610d22565b606460405162461bcd60e51b815260206004820152600f60248201527f6f776e2e6275726e2e6661696c656400000000000000000000000000000000006044820152fd5b610ea5915060203d81116102275761021881836107eb565b38610e04565b9190823b15610f43577fffffffff00000000000000000000000000000000000000000000000000000000815160208093012016916040519180830193845281519160005b838110610f2f575050509181610f1c602482600097959688970187838201520360048101845201826107eb565b5191620dbba0fa610f2b610c95565b9091565b818101830151858201602401528201610eef565b505050600090604051610f55816107cf565b6000815290565b9291610f6a91600094610eab565b9080610f8d575b610f785750565b610822919250602080825183010191016109d2565b506020815114610f71565b9291610fa691600094610eab565b9080610fcb575b610fb45750565b9091506020818051810103126100f4576020015190565b506020815114610fad565b602081016000808084518482732fb8b5508b072e1d0e0d2e7e4a1a1a7955589a9a5af192611002610c95565b931561100e5750505090565b51916004831091826110c65750517fffffffff0000000000000000000000000000000000000000000000000000000092838216926110b1575b505090505b81511561105c5750805190602001fd5b6040517f21c09d340000000000000000000000000000000000000000000000000000000081527fffffffff00000000000000000000000000000000000000000000000000000000919091166004820152602490fd5b8391925060040360031b1b1616808380611047565b9250505061104c56fea2646970667358221220fd4a3498359bbc753bce2f1abd8bedd2d402255e46bee53dd25730fd7b4c8c7e64736f6c63430008140033","linkReferences":{}},"methodIdentifiers":{"instance()":"022ec095","tVLFactory()":"9ba540fb","tVLMining()":"d795ff38","tVLReward()":"b85c9faf","tVLRoyality()":"9443767c","tVLTour()":"dabf429d","tVLValidator()":"a50c0bc0"},"id":69}