{"abi":[{"type":"constructor","inputs":[],"stateMutability":"nonpayable"},{"type":"fallback","stateMutability":"payable"},{"type":"receive","stateMutability":"payable"},{"type":"function","name":"addOrc1155","inputs":[{"name":"newAddr","type":"address","internalType":"address"},{"name":"oldAddr","type":"address","internalType":"address"},{"name":"oldAddrV1","type":"address","internalType":"address"}],"outputs":[],"stateMutability":"nonpayable"},{"type":"function","name":"addOrc1155Prime","inputs":[{"name":"params","type":"bytes","internalType":"bytes"},{"name":"oldAddr","type":"address","internalType":"address"}],"outputs":[],"stateMutability":"nonpayable"},{"type":"function","name":"addProposer","inputs":[{"name":"_a","type":"address","internalType":"address"}],"outputs":[],"stateMutability":"nonpayable"},{"type":"function","name":"daoassembly","inputs":[],"outputs":[{"name":"","type":"address","internalType":"address"}],"stateMutability":"view"},{"type":"function","name":"daocore","inputs":[],"outputs":[{"name":"","type":"address","internalType":"address"}],"stateMutability":"view"},{"type":"function","name":"getProposalsCount","inputs":[],"outputs":[{"name":"","type":"uint256","internalType":"uint256"}],"stateMutability":"view"},{"type":"function","name":"importRankBusiness","inputs":[{"name":"frmage","type":"uint256","internalType":"uint256"},{"name":"toage","type":"uint256","internalType":"uint256"}],"outputs":[],"stateMutability":"nonpayable"},{"type":"function","name":"importuser","inputs":[{"name":"limit","type":"uint256","internalType":"uint256"}],"outputs":[],"stateMutability":"nonpayable"},{"type":"function","name":"in741","inputs":[],"outputs":[{"name":"","type":"address","internalType":"address"}],"stateMutability":"view"},{"type":"function","name":"in741Old","inputs":[],"outputs":[{"name":"","type":"address","internalType":"address"}],"stateMutability":"view"},{"type":"function","name":"in741Prime","inputs":[],"outputs":[{"name":"","type":"address","internalType":"address"}],"stateMutability":"view"},{"type":"function","name":"in741PrimeOld","inputs":[],"outputs":[{"name":"","type":"address","internalType":"address"}],"stateMutability":"view"},{"type":"function","name":"in741Primev3Old","inputs":[],"outputs":[{"name":"","type":"address","internalType":"address"}],"stateMutability":"view"},{"type":"function","name":"in741Rule","inputs":[],"outputs":[{"name":"","type":"address","internalType":"address"}],"stateMutability":"view"},{"type":"function","name":"in741RuleOld","inputs":[],"outputs":[{"name":"","type":"address","internalType":"address"}],"stateMutability":"view"},{"type":"function","name":"in741RulePrime","inputs":[],"outputs":[{"name":"","type":"address","internalType":"address"}],"stateMutability":"view"},{"type":"function","name":"in741RulePrimeOld","inputs":[],"outputs":[{"name":"","type":"address","internalType":"address"}],"stateMutability":"view"},{"type":"function","name":"inDEAD","inputs":[],"outputs":[{"name":"","type":"address","internalType":"address"}],"stateMutability":"view"},{"type":"function","name":"inDeployerAService","inputs":[],"outputs":[{"name":"","type":"address","internalType":"address"}],"stateMutability":"view"},{"type":"function","name":"inDeployerAsRoot","inputs":[],"outputs":[{"name":"","type":"address","internalType":"address"}],"stateMutability":"view"},{"type":"function","name":"inImportForgePrimeold","inputs":[],"outputs":[{"name":"","type":"address","internalType":"address"}],"stateMutability":"view"},{"type":"function","name":"inInstance","inputs":[],"outputs":[{"name":"","type":"address","internalType":"address"}],"stateMutability":"view"},{"type":"function","name":"inInstancePrime","inputs":[],"outputs":[{"name":"","type":"address","internalType":"address"}],"stateMutability":"view"},{"type":"function","name":"inInstanceStor","inputs":[],"outputs":[{"name":"","type":"address","internalType":"address"}],"stateMutability":"view"},{"type":"function","name":"inNftFactory","inputs":[],"outputs":[{"name":"","type":"address","internalType":"address"}],"stateMutability":"view"},{"type":"function","name":"inNftProxy","inputs":[],"outputs":[{"name":"","type":"address","internalType":"address"}],"stateMutability":"view"},{"type":"function","name":"inOrc1155","inputs":[{"name":"","type":"uint256","internalType":"uint256"}],"outputs":[{"name":"","type":"address","internalType":"address"}],"stateMutability":"view"},{"type":"function","name":"inOrc1155Old","inputs":[{"name":"","type":"uint256","internalType":"uint256"}],"outputs":[{"name":"","type":"address","internalType":"address"}],"stateMutability":"view"},{"type":"function","name":"inOrc1155OldV1","inputs":[{"name":"","type":"uint256","internalType":"uint256"}],"outputs":[{"name":"","type":"address","internalType":"address"}],"stateMutability":"view"},{"type":"function","name":"inOrc1155Prime","inputs":[{"name":"","type":"uint256","internalType":"uint256"}],"outputs":[{"name":"","type":"address","internalType":"address"}],"stateMutability":"view"},{"type":"function","name":"inOrc1155PrimeOld","inputs":[],"outputs":[{"name":"","type":"address","internalType":"address"}],"stateMutability":"view"},{"type":"function","name":"inOrc1155PrimeOldV1","inputs":[],"outputs":[{"name":"","type":"address","internalType":"address"}],"stateMutability":"view"},{"type":"function","name":"inOrc1155machinebullold","inputs":[],"outputs":[{"name":"","type":"address","internalType":"address"}],"stateMutability":"view"},{"type":"function","name":"inPrice","inputs":[],"outputs":[{"name":"","type":"address","internalType":"address"}],"stateMutability":"view"},{"type":"function","name":"inPrimeData","inputs":[],"outputs":[{"name":"","type":"address","internalType":"address"}],"stateMutability":"view"},{"type":"function","name":"inPrimeProxy","inputs":[],"outputs":[{"name":"","type":"address","internalType":"address"}],"stateMutability":"view"},{"type":"function","name":"inTransferPrimeold","inputs":[],"outputs":[{"name":"","type":"address","internalType":"address"}],"stateMutability":"view"},{"type":"function","name":"inTransferold","inputs":[],"outputs":[{"name":"","type":"address","internalType":"address"}],"stateMutability":"view"},{"type":"function","name":"inTreaseryFactory","inputs":[],"outputs":[{"name":"","type":"address","internalType":"address"}],"stateMutability":"view"},{"type":"function","name":"inTreaseryTVLMining","inputs":[],"outputs":[{"name":"","type":"address","internalType":"address"}],"stateMutability":"view"},{"type":"function","name":"inTreaseryTVLMiningImport","inputs":[],"outputs":[{"name":"","type":"address","internalType":"address"}],"stateMutability":"view"},{"type":"function","name":"inTreaseryTVLMiningPrime","inputs":[],"outputs":[{"name":"","type":"address","internalType":"address"}],"stateMutability":"view"},{"type":"function","name":"inTreaseryTVLReward","inputs":[],"outputs":[{"name":"","type":"address","internalType":"address"}],"stateMutability":"view"},{"type":"function","name":"inTreaseryTVLRoyality","inputs":[],"outputs":[{"name":"","type":"address","internalType":"address"}],"stateMutability":"view"},{"type":"function","name":"inTreaseryTVLTour","inputs":[],"outputs":[{"name":"","type":"address","internalType":"address"}],"stateMutability":"view"},{"type":"function","name":"inTreaseryTVLValidator","inputs":[],"outputs":[{"name":"","type":"address","internalType":"address"}],"stateMutability":"view"},{"type":"function","name":"inblank","inputs":[],"outputs":[{"name":"","type":"address","internalType":"address"}],"stateMutability":"view"},{"type":"function","name":"incointransfer","inputs":[],"outputs":[{"name":"","type":"address","internalType":"address"}],"stateMutability":"view"},{"type":"function","name":"infactoryold","inputs":[],"outputs":[{"name":"","type":"address","internalType":"address"}],"stateMutability":"view"},{"type":"function","name":"infactoryprimeold","inputs":[],"outputs":[{"name":"","type":"address","internalType":"address"}],"stateMutability":"view"},{"type":"function","name":"insafeguard","inputs":[],"outputs":[{"name":"","type":"address","internalType":"address"}],"stateMutability":"view"},{"type":"function","name":"insafeguardOld","inputs":[],"outputs":[{"name":"","type":"address","internalType":"address"}],"stateMutability":"view"},{"type":"function","name":"insafeguardPrime","inputs":[],"outputs":[{"name":"","type":"address","internalType":"address"}],"stateMutability":"view"},{"type":"function","name":"insafeguardPrimeOld","inputs":[],"outputs":[{"name":"","type":"address","internalType":"address"}],"stateMutability":"view"},{"type":"function","name":"invalidator","inputs":[],"outputs":[{"name":"","type":"address","internalType":"address"}],"stateMutability":"view"},{"type":"function","name":"invalidatorOld","inputs":[],"outputs":[{"name":"","type":"address","internalType":"address"}],"stateMutability":"view"},{"type":"function","name":"mapOldORC1155","inputs":[{"name":"","type":"address","internalType":"address"}],"outputs":[{"name":"","type":"address","internalType":"address"}],"stateMutability":"view"},{"type":"function","name":"mapOldORC1155Prime","inputs":[{"name":"","type":"address","internalType":"address"}],"outputs":[{"name":"","type":"address","internalType":"address"}],"stateMutability":"view"},{"type":"function","name":"proposals","inputs":[{"name":"","type":"uint256","internalType":"uint256"}],"outputs":[{"name":"","type":"address","internalType":"address"}],"stateMutability":"view"},{"type":"function","name":"s1","inputs":[],"outputs":[{"name":"","type":"address","internalType":"address"}],"stateMutability":"view"},{"type":"function","name":"s2","inputs":[],"outputs":[{"name":"","type":"address","internalType":"address"}],"stateMutability":"view"},{"type":"function","name":"s3","inputs":[],"outputs":[{"name":"","type":"address","internalType":"address"}],"stateMutability":"view"},{"type":"function","name":"submit","inputs":[{"name":"_hexNFTEngine","type":"address","internalType":"address"},{"name":"_hexDaoCore","type":"address","internalType":"address"},{"name":"_hexRules","type":"address","internalType":"address"},{"name":"_hexUserEngine","type":"address","internalType":"address"},{"name":"_hexInstanceEngine","type":"address","internalType":"address"}],"outputs":[],"stateMutability":"nonpayable"},{"type":"function","name":"testTxnSys","inputs":[],"outputs":[],"stateMutability":"nonpayable"},{"type":"function","name":"update741","inputs":[{"name":"addr","type":"address","internalType":"address"}],"outputs":[],"stateMutability":"nonpayable"},{"type":"function","name":"update741Old","inputs":[{"name":"addr","type":"address","internalType":"address"}],"outputs":[],"stateMutability":"nonpayable"},{"type":"function","name":"update741Prime","inputs":[{"name":"addr","type":"address","internalType":"address"}],"outputs":[],"stateMutability":"nonpayable"},{"type":"function","name":"update741PrimeOld","inputs":[{"name":"addr","type":"address","internalType":"address"}],"outputs":[],"stateMutability":"nonpayable"},{"type":"function","name":"update741Primev3Old","inputs":[{"name":"addr","type":"address","internalType":"address"}],"outputs":[],"stateMutability":"nonpayable"},{"type":"function","name":"update741Rule","inputs":[{"name":"addr","type":"address","internalType":"address"}],"outputs":[],"stateMutability":"nonpayable"},{"type":"function","name":"update741RuleOld","inputs":[{"name":"addr","type":"address","internalType":"address"}],"outputs":[],"stateMutability":"nonpayable"},{"type":"function","name":"update741RulePrime","inputs":[{"name":"addr","type":"address","internalType":"address"}],"outputs":[],"stateMutability":"nonpayable"},{"type":"function","name":"update741RulePrimeOld","inputs":[{"name":"addr","type":"address","internalType":"address"}],"outputs":[],"stateMutability":"nonpayable"},{"type":"function","name":"updateCoinTransfer","inputs":[{"name":"addr","type":"address","internalType":"address"}],"outputs":[],"stateMutability":"nonpayable"},{"type":"function","name":"updateDAOAssembly","inputs":[{"name":"_dao","type":"address","internalType":"address"}],"outputs":[],"stateMutability":"nonpayable"},{"type":"function","name":"updateDAOCore","inputs":[{"name":"_dao","type":"address","internalType":"address"}],"outputs":[],"stateMutability":"nonpayable"},{"type":"function","name":"updateDEAD","inputs":[{"name":"addr","type":"address","internalType":"address"}],"outputs":[],"stateMutability":"nonpayable"},{"type":"function","name":"updateFactoryOld","inputs":[{"name":"addr","type":"address","internalType":"address"}],"outputs":[],"stateMutability":"nonpayable"},{"type":"function","name":"updateFactoryPrimeOld","inputs":[{"name":"addr","type":"address","internalType":"address"}],"outputs":[],"stateMutability":"nonpayable"},{"type":"function","name":"updateImportForgePrimeold","inputs":[{"name":"addr","type":"address","internalType":"address"}],"outputs":[],"stateMutability":"nonpayable"},{"type":"function","name":"updateInTransferOld","inputs":[{"name":"addr","type":"address","internalType":"address"}],"outputs":[],"stateMutability":"nonpayable"},{"type":"function","name":"updateInTransferPrimeOld","inputs":[{"name":"addr","type":"address","internalType":"address"}],"outputs":[],"stateMutability":"nonpayable"},{"type":"function","name":"updateInstance","inputs":[{"name":"addr","type":"address","internalType":"address"}],"outputs":[],"stateMutability":"nonpayable"},{"type":"function","name":"updateInstancePrime","inputs":[{"name":"addr","type":"address","internalType":"address"}],"outputs":[],"stateMutability":"nonpayable"},{"type":"function","name":"updateInstanceStor","inputs":[{"name":"addr","type":"address","internalType":"address"}],"outputs":[],"stateMutability":"nonpayable"},{"type":"function","name":"updateNftProxy","inputs":[{"name":"addr","type":"address","internalType":"address"}],"outputs":[],"stateMutability":"nonpayable"},{"type":"function","name":"updateOrc1155","inputs":[{"name":"_o","type":"address","internalType":"address"},{"name":"oldAddr","type":"address","internalType":"address"},{"name":"idx","type":"uint256","internalType":"uint256"}],"outputs":[],"stateMutability":"nonpayable"},{"type":"function","name":"updateOrc1155MachineBullOld","inputs":[{"name":"addr","type":"address","internalType":"address"}],"outputs":[],"stateMutability":"nonpayable"},{"type":"function","name":"updateOrc1155Prime","inputs":[{"name":"_o","type":"address","internalType":"address"},{"name":"oldAddr","type":"address","internalType":"address"},{"name":"idx","type":"uint256","internalType":"uint256"}],"outputs":[],"stateMutability":"nonpayable"},{"type":"function","name":"updateOrc1155PrimeOld","inputs":[{"name":"addr","type":"address","internalType":"address"}],"outputs":[],"stateMutability":"nonpayable"},{"type":"function","name":"updateOrc1155PrimeOldV1","inputs":[{"name":"addr","type":"address","internalType":"address"}],"outputs":[],"stateMutability":"nonpayable"},{"type":"function","name":"updatePrice","inputs":[{"name":"addr","type":"address","internalType":"address"}],"outputs":[],"stateMutability":"nonpayable"},{"type":"function","name":"updatePrimeData","inputs":[{"name":"addr","type":"address","internalType":"address"}],"outputs":[],"stateMutability":"nonpayable"},{"type":"function","name":"updatePrimeProxy","inputs":[{"name":"addr","type":"address","internalType":"address"}],"outputs":[],"stateMutability":"nonpayable"},{"type":"function","name":"updateProposals","inputs":[{"name":"_a","type":"address","internalType":"address"},{"name":"idx","type":"uint256","internalType":"uint256"}],"outputs":[],"stateMutability":"nonpayable"},{"type":"function","name":"updateSafeguard","inputs":[{"name":"addr","type":"address","internalType":"address"}],"outputs":[],"stateMutability":"nonpayable"},{"type":"function","name":"updateSafeguardOld","inputs":[{"name":"addr","type":"address","internalType":"address"}],"outputs":[],"stateMutability":"nonpayable"},{"type":"function","name":"updateSafeguardPrime","inputs":[{"name":"addr","type":"address","internalType":"address"}],"outputs":[],"stateMutability":"nonpayable"},{"type":"function","name":"updateSafeguardPrimeOld","inputs":[{"name":"addr","type":"address","internalType":"address"}],"outputs":[],"stateMutability":"nonpayable"},{"type":"function","name":"updateTreaseryFactory","inputs":[{"name":"addr","type":"address","internalType":"address"}],"outputs":[],"stateMutability":"nonpayable"},{"type":"function","name":"updateTreaseryTVLMiningImport","inputs":[{"name":"addr","type":"address","internalType":"address"}],"outputs":[],"stateMutability":"nonpayable"},{"type":"function","name":"updateTreaseryTVLValidator","inputs":[{"name":"addr","type":"address","internalType":"address"}],"outputs":[],"stateMutability":"nonpayable"},{"type":"function","name":"updateTreasuryTVLMining","inputs":[{"name":"addr","type":"address","internalType":"address"}],"outputs":[],"stateMutability":"nonpayable"},{"type":"function","name":"updateTreasuryTVLMiningPrime","inputs":[{"name":"addr","type":"address","internalType":"address"}],"outputs":[],"stateMutability":"nonpayable"},{"type":"function","name":"updateTreasuryTVLReward","inputs":[{"name":"addr","type":"address","internalType":"address"}],"outputs":[],"stateMutability":"nonpayable"},{"type":"function","name":"updateTreasuryTVLRoyality","inputs":[{"name":"addr","type":"address","internalType":"address"}],"outputs":[],"stateMutability":"nonpayable"},{"type":"function","name":"updateTreasuryTVLTour","inputs":[{"name":"addr","type":"address","internalType":"address"}],"outputs":[],"stateMutability":"nonpayable"},{"type":"function","name":"updateValidator","inputs":[{"name":"addr","type":"address","internalType":"address"}],"outputs":[],"stateMutability":"nonpayable"}],"bytecode":{"object":"0x6080604052346200050b5760018060a01b0319600090808254168255600173376c3a0babd0ce07b78f82fc862a6cb7c82342d282825416178155816002541660025573301cad03ad5f18e71e0bf6d578820c5e836201c9826003541617600355735731f74dd52839d69b2b4427ce1439431f76a2ce8260045416176004556005734a516f5916d53ece27c00ab5e3923872ed19f090838254161781558260065416600655826007541660075582600954166009557360c95eb879eec03a0af4528a16f192e61a198f4083600a541617600a557308ff697696398fac0dcee979bb0f1fb7b7fc380b83600b541617600b5582600c5416600c5582600d5416600d5573f134e58248ab8380e911d36c21e1015e5e84814183600e541617600e5582600f5416600f5573882bf41aa8e3fad0695be39e4434af54786eb24a83601054161760105573c0cee8b561cc4f60869776ca5b0b7a295e04f5af808460115416176011558360125416601255836013541617601355739f33b44587a57758c1413dbab6640f6abea5cef483601454161760145573804f8004e7d361ab2a4335685d7c6893e67af7c1836015541617601555620001b962000510565b9173d03060e8ed7754aeed63e4e56b0457662d8164aa8352602091733dbd81ab6b37360016fbc6c96937c60334aaede48385015273085052532254e12989413f7c84dd32686bce74e19384604082015273284bf1d323c35b47fe1991cde5af634e3a661253606082015273b33443339919b2ae34888890d6c28b5666daaa3f6080820152601a5482601a55808310620004e0575b50601a87528387209083885b848110620004c457505050506200026f62000510565b73b8193c79fc3f1d7dfaa0bae85fe3b1bff0558abb8152736e5aa0e705b69459e1525b2c720e820cf3322f1b8482015273ef8fe7c57b613624c06f5ede5ebd639f6d5108176040820152735f141ba4a79fdc86ec5c8c044f721ce873db91b96060820152737117638c0dc12ffffdddf3630ac4ce5c9705e6ff6080820152601b5482601b5580831062000499575b50601b8752838720875b8381106200047e57505050505073951a7bbd21b4a6f49e62e040b992eed7120fcdd983601c541617601c55732463fc29b8b635c4120c4fe32aadc580d199348083601d541617601d55737e2baf007a3761d33afee572a7e7a08c1499b99d9081848254161790557343a87925ba12b33f0e2a40da70e239775db21169836025541617602555730fda18c5b31b5417478c012837909927361143ab83602a541617602a55730239667fa9f2269e36f32daf2ab391dc1ad9373883602b541617602b5573648565deb50c503ef59860d92942eaece0c3e17283602c541617602c5582602d541617602d5581602e541617602e55736c96f2d0c9a8b7fb472a319b1ecf7e8626c7b2ba81602f541617602f55739bfc2af8a5e49a72bfb58e22312ce07d61fe77398160305416176030557321608df4d0d716aedd54fd2f9bd138e7a98dfe2781603154161760315561dead816034541617603455806035541660355533908254161790556040516160cb9081620005478239f35b82516001600160a01b03168282015591850191840162000307565b601b88528383868a2092830192015b828110620004b8575050620002fd565b898155018490620004a8565b82516001600160a01b0316848201559186019185910162000259565b601a88528383868a2092830192015b828110620004ff5750506200024d565b898155018490620004ef565b600080fd5b6040519060a082016001600160401b038111838210176200053057604052565b634e487b7160e01b600052604160045260246000fdfe6040608081526004803610156200001e575b505036156200001c57005b005b600091823560e01c918263013cf08b1462003142578263014519e614620030f557826301c0d48b14620030cb578263050564b31462002fdd57826305abae0d1462002f90578263069f3e721462002f4357826308a887af1462002f195782630a4c99391462002ecc5782630c32145a1462002e7f5782631162a5b11462002e32578263130fba6d1462002de55782631477e1941462002d9057826314d8d0241462002d665782631654f3311462002d195782631a47ded51462002ccc5782631b4fc17b1462002ca25782631b67970a1462002c5557826321c826771462002c2b578263236b04021462002bde57826323db61491462002b9157826324768d911462002b67578263275424d01462002b1a57826330125cf51462002af0578263335ab5f21462002aa3578383633676bd1f1462002a215750826336c24c4614620029d457826342ac8f79146200298757826343af1d9d146200295d578263447aa3041462002933578263447bf0e21462002909578263448f3eef14620028df5782634588d010146200289257826345d96de8146200284557826346f991ac146200281b5782634b849a5414620027ce578263507aa64f146200278157826351ffe4c5146200275757826352b06d64146200272d578263595e1dd214620026f45782635ad64af114620026ca5782635c727e80146200266b5782635e09dbe714620026415782636325dd041462002617578263635b277014620025ca5782636402742714620025a0578263666585841462002553578263677494d814620025295782636b4aefc614620025005782636cc014de14620024d65782636fa16598146200248957826370ee2af8146200243c57826374dfe23614620023ef57826374fad9f914620023a2578263753e7d3314620023555782638360701d1462002308578263839a47a414620022bb578263891e91a5146200226e5782639669f18f146200222157826396e85ced14620021d457826397f3815a14620021aa57826398e527d314620021895782639dc969a8146200215f578263a0449f451462002112578263a0b8cbb814620020e8578263a11abe2a14620010f7578263a2672aa814620010aa578263a314150f14620010815783908363a5b277f21462001057578363a5d666a9146200102d578363a66bcbe21462001003578363a7acacf81462000fd9578363a7d7fa501462000faf578363a9d5ae6f1462000f62578363aa0ddc161462000f38578363ab6e844f1462000f0e578363aeb140201462000ec1578363af0deb951462000e97578363af2331901462000e6d578363b03cd4181462000e2d578363b113bd201462000c3a578363b3a86ab01462000c10578363b771c8961462000bc9578363bb2458961462000b9f578363bd811bce1462000b75578363c16addd01462000b13578363c5a90db11462000ae9578363c7bb7d4d1462000a9c578363cc7cf18e1462000a3c578363cfaa1f6c14620009fe578363cfacc01014620009b1578363cfbffe531462000987578363d1f956b1146200095d578363d3d1b0961462000933578363da1be7d01462000909578363de433f1714620008e1578363e09d394d14620008b7578363e0cf4e9e146200086e578363e1f4cd241462000844578363e257681914620007f7578363e61dfd5814620007cd578363e7531fc014620007a3578363e981bcad14620006f65750508163ed15cbf714620006b8578163ef140ed31462000638578163efed51bb146200060e578163f144dff014620005e057508063f606564914620005935763fc58f3531462000544578062000011565b346200059057602036600319011262000590576200056162003269565b6001600160a01b03906200057b8260065416331462003334565b166001600160a01b0319601254161760125580f35b80fd5b5034620005905760203660031901126200059057620005b162003269565b6001600160a01b0390620005cb8260065416331462003334565b166001600160a01b0319603654161760365580f35b9050346200060a57816003193601126200060a576020906001600160a01b03602d54169051908152f35b5080fd5b9050346200060a57816003193601126200060a576020906001600160a01b03601054169051908152f35b9050346200060a576200067a6200064f36620032fc565b906200069a836001600160a01b03969496958694620006748660065416331462003334565b620031f9565b90919082549060031b916001600160a01b03809116831b921b1916179055565b1684526019602052832091166001600160a01b031982541617905580f35b9050346200060a5760203660031901126200060a57602091816001600160a01b039182620006e562003269565b168152601985522054169051908152f35b8192346200079f57806003193601126200079f576001600160a01b036200071c620031c4565b90549060031b1c1691823b156200079a57839260448492845195869384927fe981bcad00000000000000000000000000000000000000000000000000000000845280359084015260243560248401525af19081156200079157506200077e5750f35b6200078990620032ae565b620005905780f35b513d84823e3d90fd5b505050fd5b5050fd5b5090346200060a57816003193601126200060a576020906001600160a01b03602b54169051908152f35b5090346200060a57816003193601126200060a576020906001600160a01b03602654169051908152f35b50346200059057602036600319011262000590576200081562003269565b6001600160a01b03906200082f8260065416331462003334565b166001600160a01b0319602254161760225580f35b5090346200060a57816003193601126200060a576020906001600160a01b03600f54169051908152f35b5090346200060a573660031901126200059057620008b46200088f62003269565b620008a76001600160a01b0360065416331462003334565b6200067a60243562003176565b80f35b5090346200060a57816003193601126200060a576020906001600160a01b03602754169051908152f35b5090346200060a57816003193601126200060a576001600160a01b0360209254169051908152f35b5090346200060a57816003193601126200060a576020906001600160a01b03603054169051908152f35b5090346200060a57816003193601126200060a576020906001600160a01b03602954169051908152f35b5090346200060a57816003193601126200060a576020906001600160a01b03600754169051908152f35b5090346200060a57816003193601126200060a576020906001600160a01b03600d54169051908152f35b5034620005905760203660031901126200059057620009cf62003269565b6001600160a01b0390620009e98260065416331462003334565b166001600160a01b0319600f541617600f5580f35b5090346200060a5760203660031901126200060a57602091816001600160a01b03918262000a2b62003269565b168152601885522054169051908152f35b5090346200060a576200067a62000a5336620032fc565b9062000a7e836001600160a01b0396949695869462000a788660065416331462003334565b62003231565b1684526018602052832091166001600160a01b031982541617905580f35b503462000590576020366003190112620005905762000aba62003269565b6001600160a01b039062000ad48260065416331462003334565b166001600160a01b0319602e541617602e5580f35b5090346200060a57816003193601126200060a576020906001600160a01b03602c54169051908152f35b82903462000b7157602036600319011262000b71573591601a548310156200059057506001600160a01b03602092601a6000527f057c384a7d1c54f3a1b2e5e67b2617b8224fdfd1ea7234eea573a6ff665ff63e0154169051908152f35b8280fd5b5090346200060a57816003193601126200060a576020906001600160a01b03601554169051908152f35b5090346200060a57816003193601126200060a576020906001600160a01b03600e54169051908152f35b82903462000b7157602036600319011262000b715735916016548310156200059057506001600160a01b0362000c0160209362003231565b92905490519260031b1c168152f35b5090346200060a57816003193601126200060a576020906001600160a01b03601d54169051908152f35b823462000b71578060031936011262000b715767ffffffffffffffff90823582811162000e29573660238201121562000e29578084013592831162000e165781519385602092601f199562000c978588601f8401160189620032d9565b808852366024828401011162000b7157806024869399989901838901378601015262000cc262003280565b90826001600160a01b039562000cde8760065416331462003334565b8660375416898751998a937f165fd13f0000000000000000000000000000000000000000000000000000000085523087860152896024860152805190816044870152835b82811062000df8575050848392601f8383966064809686010152011681010301925af195861562000dee57879662000db8575b50601754906801000000000000000082101562000da357506019929162000d89876200067a8460018a9601601755620031f9565b16865252832091166001600160a01b031982541617905580f35b604190634e487b7160e01b6000525260246000fd5b62000dde919650833d851162000de6575b62000dd58183620032d9565b81019062003466565b948762000d55565b503d62000dc9565b84513d89823e3d90fd5b8181018801519681016064019690965289968d968f95500162000d22565b602485604186634e487b7160e01b835252fd5b8480fd5b5034620005905760203660031901126200059057620008b462000e4f62003269565b62000e676001600160a01b0360065416331462003334565b62003380565b5090346200060a57816003193601126200060a576020906001600160a01b03602854169051908152f35b5090346200060a57816003193601126200060a576020906001600160a01b03600c54169051908152f35b503462000590576020366003190112620005905762000edf62003269565b6001600160a01b039062000ef98260065416331462003334565b166001600160a01b0319601154161760115580f35b5090346200060a57816003193601126200060a576020906001600160a01b03601154169051908152f35b5090346200060a57816003193601126200060a576020906001600160a01b03601f54169051908152f35b503462000590576020366003190112620005905762000f8062003269565b6001600160a01b039062000f9a8260065416331462003334565b166001600160a01b0319600c541617600c5580f35b5090346200060a57816003193601126200060a576020906001600160a01b03600b54169051908152f35b5090346200060a57816003193601126200060a576020906001600160a01b03601c54169051908152f35b5090346200060a57816003193601126200060a576020906001600160a01b03601254169051908152f35b5090346200060a57816003193601126200060a576020906001600160a01b03600554169051908152f35b5090346200060a57816003193601126200060a576020906001600160a01b03602e54169051908152f35b9083346200059057806003193601126200059057506001600160a01b0360209254169051908152f35b8334620005905760203660031901126200059057620010c862003269565b6001600160a01b0390620010e28260065416331462003334565b166001600160a01b0319602c541617602c5580f35b9091503462000b715760a036600319011262000b71576200111762003269565b916200112262003280565b916200112d62003297565b92606435946001600160a01b0394858716809703620020e35760843592868416809403620020e357868954163303620020a05786600954166200205d578616928551977fa035b1fe000000000000000000000000000000000000000000000000000000008952602092838a8881895afa998a1562002053578b9a6200202f575b50886001600160a01b03199a168a602954161760295587517f5540c5ac000000000000000000000000000000000000000000000000000000008152848189818a5afa90811562001dba57908a918d916200200d575b50168a60135416176013558751957f45cff90000000000000000000000000000000000000000000000000000000000875284878981845afa96871562001dba578c9762001fe9575b5089601197168b88541617875588517f1483745500000000000000000000000000000000000000000000000000000000815285818a81855afa908d821562001fde5787928b94928e929162001fbc575b50168d60075416176007558a51928380927f14d8d0240000000000000000000000000000000000000000000000000000000082525afa908c821562001f8f578b939284929062001f9a575b50168b60065416176006551687517f0a5b38ab00000000000000000000000000000000000000000000000000000000815284818981855afa908c821562001f8f5786928a94928d929162001f6d575b50168c600d541617600d558951928380927f3da8676f0000000000000000000000000000000000000000000000000000000082525afa908b821562001f625785928994926200138b929162001f40575b5062003380565b8851928380927f131c73ad0000000000000000000000000000000000000000000000000000000082525afa90811562001e08579088918b9162001f1e575b501688602754161760275585517f022ec09500000000000000000000000000000000000000000000000000000000815282818781855afa90811562001e08579088918b9162001efc575b501688602654161760265585517f9ba540fb00000000000000000000000000000000000000000000000000000000815282818781855afa90811562001e08579088918b9162001eda575b501688601e541617601e5585517fd795ff3800000000000000000000000000000000000000000000000000000000815282818781855afa90811562001e08579088918b9162001eb8575b501688601f541617601f5585517fb85c9faf00000000000000000000000000000000000000000000000000000000815282818781855afa90811562001e08579088918b9162001e96575b501688602154161760215585517f9443767c00000000000000000000000000000000000000000000000000000000815282818781855afa90811562001e08579088918b9162001e74575b501688602254161760225585517fdabf429d00000000000000000000000000000000000000000000000000000000815282818781855afa90811562001e085791888493928895938d9162001e52575b50168a60235416176023558751968780927fa50c0bc00000000000000000000000000000000000000000000000000000000082525afa94851562001e4857899562001e24575b508660249516888654161785558551611a249081810167ffffffffffffffff928282108483111762001e1257849183916200348883393081520301908bf093841562001e0857889081603296168b875416178655169387517fa4ac704e00000000000000000000000000000000000000000000000000000000815283818681895afa90811562001dba57908a918d9162001de6575b50168a603654161760365587517fd63843cd00000000000000000000000000000000000000000000000000000000815283818681895afa90811562001dba57908a918d9162001dc4575b50168a603754161760375587517f1a1575a500000000000000000000000000000000000000000000000000000000815283818681895afa90811562001dba578c9162001d98575b50601a541562001d8557897f057c384a7d1c54f3a1b2e5e67b2617b8224fdfd1ea7234eea573a6ff665ff63e541690601b9182541562001cbc57906200176591836000528c7f3ad8aa4f87544323a9d1e5dd902f40c356527a7955687113db5f9a85ad579dc1541691620033ae565b8851957f1697db0500000000000000000000000000000000000000000000000000000000875284878781845afa96871562001d7b578d9762001d57575b50601a549660019788101562001cbc578b7f057c384a7d1c54f3a1b2e5e67b2617b8224fdfd1ea7234eea573a6ff665ff63f5416835489101562001ca957906200181591846000528d7f3ad8aa4f87544323a9d1e5dd902f40c356527a7955687113db5f9a85ad579dc2541691620033ae565b8c8a517fde04dae400000000000000000000000000000000000000000000000000000000815286818981865afa91821562001cf3579162001d35575b50601a546002101562001cbc578b7f057c384a7d1c54f3a1b2e5e67b2617b8224fdfd1ea7234eea573a6ff665ff640541683546002101562001ca9578392918f94918e620018c6936000527f3ad8aa4f87544323a9d1e5dd902f40c356527a7955687113db5f9a85ad579dc3541691620033ae565b8a517fa0f0e54f00000000000000000000000000000000000000000000000000000000815286818981855afa93841562001cf3579362001d11575b50601a549260039384101562001ca9578c7f057c384a7d1c54f3a1b2e5e67b2617b8224fdfd1ea7234eea573a6ff665ff6415416835485101562001cfe578f93926200197a8f938a938c95876000527f3ad8aa4f87544323a9d1e5dd902f40c356527a7955687113db5f9a85ad579dc4541691620033ae565b8d51928380927f209d197a0000000000000000000000000000000000000000000000000000000082525afa92831562001cf3579262001ccf575b50601a5487101562001cbc578b7f057c384a7d1c54f3a1b2e5e67b2617b8224fdfd1ea7234eea573a6ff665ff642541690805488101562001ca9579062001a2492916000528c7f3ad8aa4f87544323a9d1e5dd902f40c356527a7955687113db5f9a85ad579dc5541691620033ae565b8851916101e083018381108582111762001c95578a52600e83528c85840198886101c09283368d37905b62001c25575b508c62001a60620031c4565b905490861b1c1685516005101562001c1257908d9160c0870152541684516006101562001bff5760e08501528b601e541684516007101562001bff576101008501528b601f541684516008101562001bff576101208501528b6021541684516009101562001bff576101408501528b602254168451600a101562001bff576101608501528b602354168451600b101562001bff576101808501528b8a54168451600c101562001bff576101a08501528b885416918451600d101562001bec5750908b9291840152818d54168c6033541617603355541693898154168a60055416918a51996111ea91828c01968c88109088111762001bda5750509160c093918a99989697959362004eac8b3960a08401958452878401528a83015230606083015260a06080830152518093520193928a5b82811062001bc1575050505050039085f090811562001bb857501690600954161760095580f35b513d85823e3d90fd5b84518a1686528796509481019493810193830162001b91565b8f90604190634e487b7160e01b835252fd5b8a9088634e487b7160e01b600052526000fd5b8a8389634e487b7160e01b600052526000fd5b8b848a634e487b7160e01b600052526000fd5b60058e8183101562001c8d5762001c3c8362003231565b905490881b1c1690875183101562001c7a5782901b8701890152600019811462001c695789018962001a4e565b50634e487b7160e01b8f528752898efd5b8d868c634e487b7160e01b600052526000fd5b505062001a54565b89604188634e487b7160e01b600052526000fd5b8a8589634e487b7160e01b600052526000fd5b898488634e487b7160e01b600052526000fd5b62001ceb919250863d881162000de65762000dd58183620032d9565b9038620019b4565b8c51903d90823e3d90fd5b8b868a634e487b7160e01b600052526000fd5b62001d2d919350863d881162000de65762000dd58183620032d9565b913862001901565b62001d509150863d881162000de65762000dd58183620032d9565b3862001851565b62001d73919750853d871162000de65762000dd58183620032d9565b9538620017a2565b8a513d8f823e3d90fd5b878286634e487b7160e01b600052526000fd5b62001db39150843d861162000de65762000dd58183620032d9565b38620016f6565b89513d8e823e3d90fd5b62001ddf9150853d871162000de65762000dd58183620032d9565b38620016af565b62001e019150853d871162000de65762000dd58183620032d9565b3862001665565b87513d8c823e3d90fd5b888d604188634e487b7160e01b835252fd5b8162001e409296503d871162000de65762000dd58183620032d9565b9338620015d0565b86513d8b823e3d90fd5b62001e6d9150843d861162000de65762000dd58183620032d9565b386200158a565b62001e8f9150843d861162000de65762000dd58183620032d9565b386200153b565b62001eb19150843d861162000de65762000dd58183620032d9565b38620014f1565b62001ed39150843d861162000de65762000dd58183620032d9565b38620014a7565b62001ef59150843d861162000de65762000dd58183620032d9565b386200145d565b62001f179150843d861162000de65762000dd58183620032d9565b3862001413565b62001f399150843d861162000de65762000dd58183620032d9565b38620013c9565b62001f5b9150843d861162000de65762000dd58183620032d9565b3862001384565b8951903d90823e3d90fd5b62001f889150843d861162000de65762000dd58183620032d9565b3862001334565b8a51903d90823e3d90fd5b62001fb59150873d891162000de65762000dd58183620032d9565b38620012e5565b62001fd79150843d861162000de65762000dd58183620032d9565b386200129a565b8b51903d90823e3d90fd5b62002005919750853d871162000de65762000dd58183620032d9565b95386200124a565b620020289150863d881162000de65762000dd58183620032d9565b3862001202565b6200204b919a50843d861162000de65762000dd58183620032d9565b9838620011ad565b88513d8d823e3d90fd5b606485602088519162461bcd60e51b8352820152601960248201527f686578626173652e616c72656164792e7375626d6974746564000000000000006044820152fd5b606485602088519162461bcd60e51b8352820152600e60248201527f4e6f7420617574686f72697a65640000000000000000000000000000000000006044820152fd5b600080fd5b8382346200060a57816003193601126200060a576020906001600160a01b03603554169051908152f35b83346200059057602036600319011262000590576200213062003269565b6001600160a01b03906200214a8260065416331462003334565b166001600160a01b0319600a541617600a5580f35b8382346200060a57816003193601126200060a576020906001600160a01b03602454169051908152f35b8382346200060a57816003193601126200060a576020906008549051908152f35b8382346200060a57816003193601126200060a576020906001600160a01b03600954169051908152f35b8334620005905760203660031901126200059057620021f262003269565b6001600160a01b03906200220c8260065416331462003334565b166001600160a01b0319602954161760295580f35b83346200059057602036600319011262000590576200223f62003269565b6001600160a01b0390620022598260065416331462003334565b166001600160a01b0319600b541617600b5580f35b83346200059057602036600319011262000590576200228c62003269565b6001600160a01b0319600654916001600160a01b0390620022b1338386161462003334565b1691161760065580f35b8334620005905760203660031901126200059057620022d962003269565b6001600160a01b0390620022f38260065416331462003334565b166001600160a01b0319602854161760285580f35b83346200059057602036600319011262000590576200232662003269565b6001600160a01b0390620023408260065416331462003334565b166001600160a01b0319601554161760155580f35b83346200059057602036600319011262000590576200237362003269565b6001600160a01b03906200238d8260065416331462003334565b166001600160a01b0319600d541617600d5580f35b8334620005905760203660031901126200059057620023c062003269565b6001600160a01b0390620023da8260065416331462003334565b166001600160a01b0319602b541617602b5580f35b83346200059057602036600319011262000590576200240d62003269565b6001600160a01b0390620024278260065416331462003334565b166001600160a01b0319601054161760105580f35b83346200059057602036600319011262000590576200245a62003269565b6001600160a01b0390620024748260065416331462003334565b166001600160a01b0319601e541617601e5580f35b8334620005905760203660031901126200059057620024a762003269565b6001600160a01b0390620024c18260065416331462003334565b166001600160a01b0319602754161760275580f35b8382346200060a57816003193601126200060a576020906001600160a01b03600354169051908152f35b8382346200060a57816003193601126200060a576020906001600160a01b038254169051908152f35b8382346200060a57816003193601126200060a576020906001600160a01b03600154169051908152f35b83346200059057602036600319011262000590576200257162003269565b6001600160a01b03906200258b8260065416331462003334565b166001600160a01b0319601454161760145580f35b8382346200060a57816003193601126200060a576020906001600160a01b03602154169051908152f35b8334620005905760203660031901126200059057620025e862003269565b6001600160a01b0390620026028260065416331462003334565b166001600160a01b0319603254161760325580f35b8382346200060a57816003193601126200060a576020906001600160a01b03603154169051908152f35b8382346200060a57816003193601126200060a576020906001600160a01b03601e54169051908152f35b9091503462000b7157602036600319011262000b71573591601b548310156200059057506001600160a01b03602092601b6000527f3ad8aa4f87544323a9d1e5dd902f40c356527a7955687113db5f9a85ad579dc10154169051908152f35b8382346200060a57816003193601126200060a576020906001600160a01b03602f54169051908152f35b9091503462000b7157602036600319011262000b715735916017548310156200059057506001600160a01b0362000c01602093620031f9565b8382346200060a57816003193601126200060a576020906001600160a01b03603254169051908152f35b8382346200060a57816003193601126200060a576020906001600160a01b03600a54169051908152f35b83346200059057602036600319011262000590576200279f62003269565b6001600160a01b0390620027b98260065416331462003334565b166001600160a01b0319600e541617600e5580f35b8334620005905760203660031901126200059057620027ec62003269565b6001600160a01b0390620028068260065416331462003334565b166001600160a01b0319602454161760245580f35b8382346200060a57816003193601126200060a576020906001600160a01b03603454169051908152f35b83346200059057602036600319011262000590576200286362003269565b6001600160a01b03906200287d8260065416331462003334565b166001600160a01b0319600754161760075580f35b8334620005905760203660031901126200059057620028b062003269565b6001600160a01b0390620028ca8260065416331462003334565b166001600160a01b0319603554161760355580f35b8382346200060a57816003193601126200060a576020906001600160a01b03600254169051908152f35b8382346200060a57816003193601126200060a576020906001600160a01b03601454169051908152f35b8382346200060a57816003193601126200060a576020906001600160a01b03601354169051908152f35b8382346200060a57816003193601126200060a576020906001600160a01b03603654169051908152f35b8334620005905760203660031901126200059057620029a562003269565b6001600160a01b0390620029bf8260065416331462003334565b166001600160a01b0319602f541617602f5580f35b8334620005905760203660031901126200059057620029f262003269565b6001600160a01b039062002a0c8260065416331462003334565b166001600160a01b0319602054161760205580f35b925090346200079f5760203660031901126200079f576001600160a01b0362002a49620031c4565b90549060031b1c1691823b156200079a57839260248492845195869384927f3676bd1f0000000000000000000000000000000000000000000000000000000084528035908401525af19081156200079157506200077e5750f35b833462000590576020366003190112620005905762002ac162003269565b6001600160a01b039062002adb8260065416331462003334565b166001600160a01b0319602a541617602a5580f35b8382346200060a57816003193601126200060a576020906001600160a01b03602254169051908152f35b833462000590576020366003190112620005905762002b3862003269565b6001600160a01b039062002b528260065416331462003334565b166001600160a01b0319602654161760265580f35b8382346200060a57816003193601126200060a576020906001600160a01b03602354169051908152f35b833462000590576020366003190112620005905762002baf62003269565b6001600160a01b039062002bc98260065416331462003334565b166001600160a01b0319603354161760335580f35b833462000590576020366003190112620005905762002bfc62003269565b6001600160a01b039062002c168260065416331462003334565b166001600160a01b0319601354161760135580f35b8382346200060a57816003193601126200060a576020906001600160a01b03602554169051908152f35b833462000590576020366003190112620005905762002c7362003269565b6001600160a01b039062002c8d8260065416331462003334565b166001600160a01b0319602354161760235580f35b8382346200060a57816003193601126200060a576020906001600160a01b03603354169051908152f35b833462000590576020366003190112620005905762002cea62003269565b6001600160a01b039062002d048260065416331462003334565b166001600160a01b0319601c541617601c5580f35b833462000590576020366003190112620005905762002d3762003269565b6001600160a01b039062002d518260065416331462003334565b166001600160a01b0319603054161760305580f35b8382346200060a57816003193601126200060a576020906001600160a01b03600654169051908152f35b8334620005905760603660031901126200059057620008b462002db262003269565b62002dbc62003280565b62002dc662003297565b9162002ddf6001600160a01b0360065416331462003334565b620033ae565b833462000590576020366003190112620005905762002e0362003269565b6001600160a01b039062002e1d8260065416331462003334565b166001600160a01b0319601f541617601f5580f35b833462000590576020366003190112620005905762002e5062003269565b6001600160a01b039062002e6a8260065416331462003334565b166001600160a01b0319600954161760095580f35b833462000590576020366003190112620005905762002e9d62003269565b6001600160a01b039062002eb78260065416331462003334565b166001600160a01b0319601d541617601d5580f35b833462000590576020366003190112620005905762002eea62003269565b6001600160a01b039062002f048260065416331462003334565b166001600160a01b0319603454161760345580f35b8382346200060a57816003193601126200060a576020906001600160a01b03603754169051908152f35b833462000590576020366003190112620005905762002f6162003269565b6001600160a01b039062002f7b8260065416331462003334565b166001600160a01b0319602d541617602d5580f35b833462000590576020366003190112620005905762002fae62003269565b6001600160a01b039062002fc88260065416331462003334565b166001600160a01b0319602154161760215580f35b91503462000b71578260031936011262000b715762002ffb620031c4565b92906001600160a01b03938491549060031b1c169260165415620030b857908491601683527fd833147d7dc355ba459fc788f669e58cfaf9dc25ddcd0702e87d69c7b5124289541690843b1562000b715760849083855196879485937f9fb3953b00000000000000000000000000000000000000000000000000000000855284015260056024840152600a6044840152678ac7230489e8000060648401525af1908115620007915750620030ad575080f35b620008b490620032ae565b602485603284634e487b7160e01b835252fd5b8382346200060a57816003193601126200060a576020906001600160a01b03602a54169051908152f35b83346200059057602036600319011262000590576200311362003269565b6001600160a01b03906200312d8260065416331462003334565b166001600160a01b0319602554161760255580f35b9091503462000b7157602036600319011262000b715735916008548310156200059057506001600160a01b0362000c016020935b600854811015620031ae5760086000527ff3f7a9fe364faab93b216da50a3214154f22a0a2b415b23a84c8169e8b636ee30190600090565b634e487b7160e01b600052603260045260246000fd5b60085415620031ae5760086000527ff3f7a9fe364faab93b216da50a3214154f22a0a2b415b23a84c8169e8b636ee390600090565b601754811015620031ae5760176000527fc624b66cc0138b8fabc209247f72d758e1cf3343756d543badbf24212bed8c150190600090565b601654811015620031ae5760166000527fd833147d7dc355ba459fc788f669e58cfaf9dc25ddcd0702e87d69c7b51242890190600090565b600435906001600160a01b0382168203620020e357565b602435906001600160a01b0382168203620020e357565b604435906001600160a01b0382168203620020e357565b67ffffffffffffffff8111620032c357604052565b634e487b7160e01b600052604160045260246000fd5b90601f8019910116810190811067ffffffffffffffff821117620032c357604052565b6060906003190112620020e3576001600160a01b03906004358281168103620020e357916024359081168103620020e3579060443590565b156200333c57565b606460405162461bcd60e51b815260206004820152600f60248201527f6f776e2e6e6f6e617574682e44414f00000000000000000000000000000000006044820152fd5b6008549068010000000000000000821015620032c3576200067a826001620033ac940160085562003176565b565b9060165468010000000000000000811015620032c357826200067a826001620033db940160165562003231565b6001600160a01b0392838092168062003440575b5016806200341a575b50168060005260186020526040600020906001600160a01b0319825416179055565b600052601860205260406000208282166001600160a01b031982541617905538620033f8565b600052601860205260406000208284166001600160a01b031982541617905538620033ef565b90816020910312620020e357516001600160a01b0381168103620020e3579056fe6080346100ca57601f611a2438819003918201601f19168301916001600160401b038311848410176100cf578084926020946040528339810103126100ca57516001600160a01b038116908190036100ca5780156100855760018060a01b0319338160015416176001556000541617600055600160035560405161193e90816100e68239f35b60405162461bcd60e51b815260206004820152601360248201527f6f776e2e696e76616c69642e68657862617365000000000000000000000000006044820152606490fd5b600080fd5b634e487b7160e01b600052604160045260246000fdfe60806040526004361015610018575b361561001657005b005b60003560e01c806312065fe0146101385780631f185d16146101335780633b9b79551461012e5780633cce8eaf146101295780636ec35cd5146101245780638da5cb5b1461011f5780638dab13dc1461011a5780639b03bea6146101155780639fb2726b14610110578063a1f7f5391461010b578063af48452614610106578063b90306ad14610101578063c54e44b0146100fc578063d7a83fc6146100f7578063e01ad5fd146100f2578063e0a9bc2b146100ed578063e1430d4f146100e85763fdc10bc90361000e57610ed4565b610b95565b610b7a565b610ae0565b610aa0565b6109fe565b610942565b610911565b610853565b610760565b610718565b61068e565b610667565b610561565b6102e2565b610293565b61016a565b3461015457600036600319011261015457602047604051908152f35b600080fd5b6001600160a01b0381160361015457565b34610154576020806003193601126101545760049081359061018b82610159565b806101ad6101a16000546001600160a01b031690565b6001600160a01b031690565b60405194858092634bf9c0ad60e11b82525afa91821561028e5761020161023b9361021d9261024d9660009261025b575b5061020f906040519384918783019190916001600160a01b036020820193169052565b03601f198101845283610fe8565b6102176115d3565b906117df565b919080610251575b61022e9061160c565b80825183010191016113d0565b60405190151581529081906020820190565b0390f35b5081518114610225565b61020f91925061028090863d8811610287575b6102788183610fe8565b81019061100a565b91906101de565b503d61026e565b61101f565b346101545760003660031901126101545760206001600160a01b0360005416604051908152f35b6040906003190112610154576004356102d281610159565b906024356102df81610159565b90565b34610154576102f0366102ba565b6001600160a01b03808316156104e9576103156101a16000546001600160a01b031690565b60405180917fab6e844f00000000000000000000000000000000000000000000000000000000825281600460209384935afa90811561028e576103946101a1926103a194600091610513575b5060405190610386826102018b8783019190916001600160a01b036020820193169052565b61038e61105a565b906117b4565b805181018201910161100a565b156104e9576103f06103ec6103e5336103cd866001600160a01b03166000526004602052604060002090565b906001600160a01b0316600052602052604060002090565b5460ff1690565b1590565b6104bf578161045f7fae0545a793105c92763ffd2d1a106bc1e148f147ed5796b8706ba246e751d30d93610437866001600160a01b03166000526006602052604060002090565b906001600160a01b031673ffffffffffffffffffffffffffffffffffffffff19825416179055565b61048033610437866001600160a01b03166000526007602052604060002090565b6104a184610437336001600160a01b03166000526005602052604060002090565b604080513381526001600160a01b03959095166020860152911692a2005b60046040517f747845de000000000000000000000000000000000000000000000000000000008152fd5b60046040517fd92e233d000000000000000000000000000000000000000000000000000000008152fd5b61052a9150833d8511610287576102788183610fe8565b38610361565b9181601f840112156101545782359167ffffffffffffffff8311610154576020808501948460051b01011161015457565b346101545760603660031901126101545767ffffffffffffffff60043581811161015457610593903690600401610530565b602492919235828111610154576105ae903690600401610530565b9092604435908111610154576105c8903690600401610530565b9390926105db6105d66113e5565b611093565b6105e433611529565b80156105fd575b956105f8610016976110de565b611159565b506001600160a01b039560046020886000541660405192838092630536340960e21b82525afa801561028e57610016986105f892600092610647575b5033911614919750506105eb565b61066091925060203d8111610287576102788183610fe8565b9038610639565b346101545760003660031901126101545760206001600160a01b0360015416604051908152f35b346101545760203660031901126101545760606004356106ad81610159565b6001600160a01b03809116600052600660205280604060002054169060076020526040600020541681600052600460205260ff610701826040600020906001600160a01b0316600052602052604060002090565b541690604051928352602083015215156040820152f35b34610154576020366003190112610154576001600160a01b0360043561073d81610159565b1660005260086020526020604060002054604051908152f35b8015150361015457565b346101545760803660031901126101545767ffffffffffffffff60043581811161015457610792903690600401610530565b91602435908111610154576107ab903690600401610530565b604435916107b883610756565b6107c36105d66113e5565b6107cc33611529565b80156107e9575b946107e0610016966110de565b6064359461124a565b506001600160a01b039460046020876000541660405192838092630536340960e21b82525afa801561028e57610016976107e092600092610833575b5033911614919650506107d3565b61084c91925060203d8111610287576102788183610fe8565b9038610825565b3461015457600036600319011261015457600460206001600160a01b03600054166040519283809263d1f956b160e01b82525afa90811561028e5761024d916108e3916000916108f3575b506040516108ab81610fab565b601381527f67657464656c656761746f72436f756e7428290000000000000000000000000060208201526108dd611047565b916118cc565b6040519081529081906020820190565b61090b915060203d8111610287576102788183610fe8565b3861089e565b3461015457602036600319011261015457602061093860043561093381610159565b611529565b6040519015158152f35b346101545760203660031901126101545760046001600160a01b036020816000541660405193848092630536340960e21b82525afa91821561028e576000926109de575b503391160361099a576100166004356116c0565b606460405162461bcd60e51b815260206004820152600f60248201527f6f776e2e6e6f6e617574682e44414f00000000000000000000000000000000006044820152fd5b6109f791925060203d8111610287576102788183610fe8565b9038610986565b3461015457602036600319011261015457600435610a1b81610159565b803b6000610a288261102b565b92610a366040519485610fe8565b82845260208401903c602d815110610a5c57602a015160405160609190911c8152602090f35b606460405162461bcd60e51b815260206004820152601360248201527f4e6f742061206d696e696d616c2070726f7879000000000000000000000000006044820152fd5b34610154576020366003190112610154576020600435610abf81610159565b6001600160a01b038091166000526005825260406000205416604051908152f35b34610154576020806003193601126101545760048035610aff81610159565b6001600160a01b03928084600054166040519485809263d1f956b160e01b82525afa90811561028e5761024d9461023b94600093610b5b575b506040519316818401528252610b4d82610fab565b610b55611657565b90611890565b610b73919350823d8411610287576102788183610fe8565b9138610b38565b346101545760003660031901126101545760206109386113e5565b3461015457610ba3366102ba565b90610baf6105d66113e5565b610bb833611529565b8015610e71575b610bc8906110de565b6001600160a01b03918282169283156104e95781169182156104e957600093610bfb6101a186546001600160a01b031690565b9360405180957f6325dd0400000000000000000000000000000000000000000000000000000000825281600460209384935afa90811561028e57610c72610c7f9289988991610e54575b5060405190610c6a826102018a8783019190916001600160a01b036020820193169052565b61038e61133d565b8051810182019101611376565b610ca7610c9f856001600160a01b03166000526008602052604060002090565b91825461123d565b905503610cb2575050f35b610e5091610cd3826001600160a01b03166000526008602052604060002090565b54610cf1826001600160a01b03166000526008602052604060002090565b55610d3f610d22610d15846001600160a01b03166000526006602052604060002090565b546001600160a01b031690565b610437836001600160a01b03166000526006602052604060002090565b610d7f610d62610d15846001600160a01b03166000526006602052604060002090565b610437836001600160a01b03166000526007602052604060002090565b610dba610d9f836001600160a01b03166000526009602052604060002090565b54916001600160a01b03166000526009602052604060002090565b5582610dd9826001600160a01b03166000526008602052604060002090565b55610e17610dfa826001600160a01b03166000526006602052604060002090565b73ffffffffffffffffffffffffffffffffffffffff198154169055565b610e37610dfa826001600160a01b03166000526007602052604060002090565b6001600160a01b03166000526009602052604060002090565b5580f35b610e6b9150833d8511610287576102788183610fe8565b38610c45565b5060046001600160a01b036020816000541660405193848092630536340960e21b82525afa90811561028e57610bc892600092610eb4575b501633149050610bbf565b610ecd91925060203d8111610287576102788183610fe8565b9038610ea9565b3461015457600036600319011261015457600460206001600160a01b0360005416604051928380927f447aa3040000000000000000000000000000000000000000000000000000000082525afa90811561028e5761024d916108e391600091610f77575b50604051610f4581610fab565b600581527f616765282900000000000000000000000000000000000000000000000000000060208201526108dd611047565b610f8f915060203d8111610287576102788183610fe8565b38610f38565b634e487b7160e01b600052604160045260246000fd5b6040810190811067ffffffffffffffff821117610fc757604052565b610f95565b6020810190811067ffffffffffffffff821117610fc757604052565b90601f8019910116810190811067ffffffffffffffff821117610fc757604052565b9081602091031261015457516102df81610159565b6040513d6000823e3d90fd5b67ffffffffffffffff8111610fc757601f01601f191660200190565b6040519061105482610fcc565b60008252565b6040519061106782610fab565b601682527f67657455736572546f496e7374286164647265737329000000000000000000006020830152565b1561109a57565b606460405162461bcd60e51b815260206004820152601260248201527f6f776e2e696e76616c69642e69735361666500000000000000000000000000006044820152fd5b156110e557565b606460405162461bcd60e51b815260206004820152601b60248201527f6f776e2e6e6f6e617574682e44414f6f725365637572656261736500000000006044820152fd5b91908110156111395760051b0190565b634e487b7160e01b600052603260045260246000fd5b356102df81610159565b9394909291928183036111eb57600091825b84811061117c575050505050505050565b8061118a600192848b611129565b3561119481610756565b6001600160a01b036111a783878c611129565b356111b181610159565b16865260046020526111d6604087206111cb848a8c611129565b35906103cd82610159565b9060ff8019835416911515161790550161116b565b60046040517fff633a38000000000000000000000000000000000000000000000000000000008152fd5b634e487b7160e01b600052601160045260246000fd5b9190820391821161123857565b611215565b9190820180921161123857565b92918282036111eb5760005b8281106112665750505050505050565b851561130b5786611283610e3761127e84878a611129565b61114f565b54036112b35760046040517fe3913549000000000000000000000000000000000000000000000000000000008152fd5b80876112c8610e3761127e600195888b611129565b556112d4818685611129565b35611302610c9f6112e961127e85898c611129565b6001600160a01b03166000526008602052604060002090565b90555b01611256565b806113196001928685611129565b3561133661132e6112e961127e85898c611129565b91825461122b565b9055611305565b6040519061134a82610fab565b601182527f696e636f6d654f662861646472657373290000000000000000000000000000006020830152565b90816020910312610154575190565b1561138c57565b606460405162461bcd60e51b815260206004820152601960248201527f6f776e2e7361666567756172642e63616c6c2e6661696c6564000000000000006044820152fd5b9081602091031261015457516102df81610756565b6001600160a01b03600054166040518091634bf9c0ad60e11b825281600460209384935afa91821561028e576102df9261146d91600091611488575b5060405161142e81610fab565b600881527f6973536166652829000000000000000000000000000000000000000000000000848201526040519161146483610fcc565b600083526117df565b91908061147e575b61022e90611385565b5081518114611475565b61149f9150833d8511610287576102788183610fe8565b38611421565b604051906114b282610fab565b601582527f69735365637572654261736528616464726573732900000000000000000000006020830152565b156114e557565b606460405162461bcd60e51b815260206004820152601a60248201527f6f776e2e736563757265626173652e63616c6c2e6661696c65640000000000006044820152fd5b6000546001600160a01b0316604051918291634bf9c0ad60e11b835282600460209485935afa92831561028e576102df9361159592610201926000926115b0575b5061158d906040519384918783019190916001600160a01b036020820193169052565b6102176114a5565b9190806115a6575b61022e906114de565b508151811461159d565b61158d9192506115cc90863d8811610287576102788183610fe8565b919061156a565b604051906115e082610fab565b601182527f69735369676e65722861646472657373290000000000000000000000000000006020830152565b1561161357565b606460405162461bcd60e51b815260206004820152601660248201527f6f776e2e7369676e65722e63616c6c2e6661696c6564000000000000000000006044820152fd5b6040519061166482610fab565b601882527f697364656c656761746f724e6f646528616464726573732900000000000000006020830152565b3d156116bb573d906116a18261102b565b916116af6040519384610fe8565b82523d6000602084013e565b606090565b6000600460206001600160a01b03835416604051928380927f46f991ac0000000000000000000000000000000000000000000000000000000082525afa90811561028e578284819382938391611796575b505af161171c611690565b50156117525760405190815233907fcdcc745fe377b103b45fa0cec23ae3ef93d6fc6a84a01f0d18c40b354dd1d5d890602090a2565b606460405162461bcd60e51b815260206004820152600f60248201527f6f776e2e6275726e2e6661696c656400000000000000000000000000000000006044820152fd5b6117ae915060203d8111610287576102788183610fe8565b38611711565b906117bf92916117df565b90600090156117cc575090565b60405191506117da82610fcc565b815290565b9190823b15611877577fffffffff00000000000000000000000000000000000000000000000000000000815160208093012016916040519180830193845281519160005b83811061186357505050918161185060248260009795968897018783820152036004810184520182610fe8565b5191620dbba0fa61185f611690565b9091565b818101830151858201602401528201611823565b50505060009060405161188981610fcc565b6000815290565b929161189e916000946117df565b90806118c1575b6118ac5750565b6102df919250602080825183010191016113d0565b5060208151146118a5565b92916118da916000946117df565b90806118fd575b6118e85750565b6102df91925060208082518301019101611376565b5060208151146118e156fea2646970667358221220e2b30430ce878a66c92bc86945861000e3ae22e168e64fd886702ec88c7eb85464736f6c63430008140033604060808152346200021a57620011ea803803806200001e8162000235565b928339810160a0828203126200021a5762000039826200025b565b602090620000498285016200025b565b91620000578686016200025b565b9462000066606082016200025b565b608082015190916001600160401b0391908282116200021a57019580601f880112156200021a5786519182116200021f5760059682881b908580620000ad81850162000235565b8096815201928201019283116200021a5785809101915b838310620001ff575050506001600160a01b039283169790508715620001bb5782908160018060a01b03199760019a338a8d5416178c556000998a54161789558160ff19988c8a60035416176003551689528987528b89208b8982541617905516875289872089878254161790551685528785208785825416179055805195855b8781106200015c578951610f799081620002718239f35b8251811015620001a75780821b83018501518416875260048552898720805487168a17905560001981146200019357880162000145565b634e487b7160e01b87526011600452602487fd5b634e487b7160e01b87526032600452602487fd5b885162461bcd60e51b815260048101859052601360248201527f6f776e2e696e76616c69642e68657862617365000000000000000000000000006044820152606490fd5b81906200020c846200025b565b8152019101908590620000c4565b600080fd5b634e487b7160e01b600052604160045260246000fd5b6040519190601f01601f191682016001600160401b038111838210176200021f57604052565b51906001600160a01b03821682036200021a5756fe60806040526004361015610018575b361561001657005b005b60003560e01c806312065fe0146101285780631d0c00e4146101235780631f185d161461011e5780633b9b7955146101195780636a276f9d146101145780637df73e271461010f57806384a8d0451461010a5780638da5cb5b14610105578063a1f7f53914610100578063af484526146100fb578063b90306ad146100f6578063c54e44b0146100f1578063dc3163e8146100ec578063e01ad5fd146100e7578063e0a9bc2b146100e2578063ef9eab9d146100dd5763fdc10bc90361000e576109d9565b610996565b6108f7565b61085d565b6107d9565b610737565b61061f565b61054e565b610490565b610469565b6103d7565b610394565b610371565b61034a565b610236565b61018c565b3461014457600036600319011261014457602047604051908152f35b600080fd5b6001600160a01b0381160361014457565b8015150361014457565b60409060031901126101445760043561017c81610149565b906024356101898161015a565b90565b3461014457600461019c36610164565b6001600160a01b0392919260009360208286541660405195868092630536340960e21b82525afa93841561023157610200946101e3918791610203575b5083163314610d52565b1683526004602052604083209060ff801983541691151516179055565b80f35b610224915060203d811161022a575b61021c8183610b06565b810190610b28565b386101d9565b503d610212565b610b3d565b34610144576020806003193601126101445760049081359061025782610149565b8061027961026d6000546001600160a01b031690565b6001600160a01b031690565b60405194858092634bf9c0ad60e11b82525afa918215610231576102cd610307936102e99261031996600092610327575b506102db906040519384918783019190916001600160a01b036020820193169052565b03601f198101845283610b06565b6102e3610c95565b90610e18565b91908061031d575b6102fa90610cce565b8082518301019101610bfc565b60405190151581529081906020820190565b0390f35b50815181146102f1565b6102db91925061034390863d881161022a5761021c8183610b06565b91906102aa565b346101445760003660031901126101445760206001600160a01b0360005416604051908152f35b3461014457600036600319011261014457602060ff600354166040519015158152f35b34610144576020366003190112610144576001600160a01b036004356103b981610149565b166000526005602052602060ff604060002054166040519015158152f35b34610144576020366003190112610144576004356103f48161015a565b60046001600160a01b036020816000541660405193848092630536340960e21b82525afa9081156102315761043492600092610449575b50163314610d52565b60ff8019600354169115151617600355600080f35b61046291925060203d811161022a5761021c8183610b06565b903861042b565b346101445760003660031901126101445760206001600160a01b0360015416604051908152f35b3461014457600036600319011261014457600460206001600160a01b03600054166040519283809263d1f956b160e01b82525afa908115610231576103199161052091600091610530575b506040516104e881610ac9565b601381527f67657464656c656761746f72436f756e74282900000000000000000000000000602082015261051a610b65565b91610f05565b6040519081529081906020820190565b610548915060203d811161022a5761021c8183610b06565b386104db565b34610144576020806003193601126101445760049081359061056f82610149565b8061058561026d6000546001600160a01b031690565b60405194858092634bf9c0ad60e11b82525afa918215610231576102cd610307936105e192610319966000926105fc575b506105d9906040519384918783019190916001600160a01b036020820193169052565b6102e3610c11565b9190806105f2575b6102fa90610c4a565b50815181146105e9565b6105d991925061061890863d881161022a5761021c8183610b06565b91906105b6565b3461014457602080600319360112610144576004356001600160a01b0391600092808454169060405191630536340960e21b83528383600481845afa92831561023157600493859361067a92899261071f5750163314610d52565b604051928380927f46f991ac0000000000000000000000000000000000000000000000000000000082525afa918215610231578480856106d195829583958492610702575b50505af16106cb610d9d565b50610dcd565b60405190815233907fcdcc745fe377b103b45fa0cec23ae3ef93d6fc6a84a01f0d18c40b354dd1d5d890602090a280f35b6107189250803d1061022a5761021c8183610b06565b38806106bf565b610462919250853d871161022a5761021c8183610b06565b346101445760203660031901126101445760043561075481610149565b803b600061076182610b49565b9261076f6040519485610b06565b82845260208401903c602d81511061079557602a015160405160609190911c8152602090f35b606460405162461bcd60e51b815260206004820152601360248201527f4e6f742061206d696e696d616c2070726f7879000000000000000000000000006044820152fd5b34610144576107e736610164565b6001600160a01b03600092600460208386541660405192838092630536340960e21b82525afa801561023157610827918691610203575083163314610d52565b168252600560205261084881604084209060ff801983541691151516179055565b156108505780f35b60ff196003541660035580f35b3461014457602080600319360112610144576004803561087c81610149565b6001600160a01b03928084600054166040519485809263d1f956b160e01b82525afa9081156102315761031994610307946000936108d8575b5060405193168184015282526108ca82610ac9565b6108d2610d19565b90610ec9565b6108f0919350823d841161022a5761021c8183610b06565b91386108b5565b34610144576000366003190112610144576001600160a01b03600054166040518091634bf9c0ad60e11b825281600460209384935afa9081156102315761095e6103079261031994600091610979575b50610950610b78565b610958610b65565b91610e18565b91908061096f575b6102fa90610bb1565b5081518114610966565b6109909150833d851161022a5761021c8183610b06565b38610947565b34610144576020366003190112610144576001600160a01b036004356109bb81610149565b166000526004602052602060ff604060002054166040519015158152f35b3461014457600036600319011261014457600460206001600160a01b0360005416604051928380927f447aa3040000000000000000000000000000000000000000000000000000000082525afa908115610231576103199161052091600091610a7c575b50604051610a4a81610ac9565b600581527f6167652829000000000000000000000000000000000000000000000000000000602082015261051a610b65565b610a94915060203d811161022a5761021c8183610b06565b38610a3d565b7f4e487b7100000000000000000000000000000000000000000000000000000000600052604160045260246000fd5b6040810190811067ffffffffffffffff821117610ae557604052565b610a9a565b6020810190811067ffffffffffffffff821117610ae557604052565b90601f8019910116810190811067ffffffffffffffff821117610ae557604052565b90816020910312610144575161018981610149565b6040513d6000823e3d90fd5b67ffffffffffffffff8111610ae557601f01601f191660200190565b60405190610b7282610aea565b60008252565b60405190610b8582610ac9565b600882527f69735361666528290000000000000000000000000000000000000000000000006020830152565b15610bb857565b606460405162461bcd60e51b815260206004820152601960248201527f6f776e2e7361666567756172642e63616c6c2e6661696c6564000000000000006044820152fd5b9081602091031261014457516101898161015a565b60405190610c1e82610ac9565b601582527f69735365637572654261736528616464726573732900000000000000000000006020830152565b15610c5157565b606460405162461bcd60e51b815260206004820152601a60248201527f6f776e2e736563757265626173652e63616c6c2e6661696c65640000000000006044820152fd5b60405190610ca282610ac9565b601182527f69735369676e65722861646472657373290000000000000000000000000000006020830152565b15610cd557565b606460405162461bcd60e51b815260206004820152601660248201527f6f776e2e7369676e65722e63616c6c2e6661696c6564000000000000000000006044820152fd5b60405190610d2682610ac9565b601882527f697364656c656761746f724e6f646528616464726573732900000000000000006020830152565b15610d5957565b606460405162461bcd60e51b815260206004820152600f60248201527f6f776e2e6e6f6e617574682e44414f00000000000000000000000000000000006044820152fd5b3d15610dc8573d90610dae82610b49565b91610dbc6040519384610b06565b82523d6000602084013e565b606090565b15610dd457565b606460405162461bcd60e51b815260206004820152600f60248201527f6f776e2e6275726e2e6661696c656400000000000000000000000000000000006044820152fd5b9190823b15610eb0577fffffffff00000000000000000000000000000000000000000000000000000000815160208093012016916040519180830193845281519160005b838110610e9c575050509181610e8960248260009795968897018783820152036004810184520182610b06565b5191620dbba0fa610e98610d9d565b9091565b818101830151858201602401528201610e5c565b505050600090604051610ec281610aea565b6000815290565b9291610ed791600094610e18565b9080610efa575b610ee55750565b61018991925060208082518301019101610bfc565b506020815114610ede565b9291610f1391600094610e18565b9080610f38575b610f215750565b909150602081805181010312610144576020015190565b506020815114610f1a56fea26469706673582212206071207e386b31161d369732225bbbdfc228236aad0615fd90f18124dab61c6564736f6c63430008140033a26469706673582212207b3744964103ce9e4de3d026620177cdcb8614183583723fc3bec517ddf9106c64736f6c63430008140033","linkReferences":{}},"methodIdentifiers":{"addOrc1155(address,address,address)":"1477e194","addOrc1155Prime(bytes,address)":"b113bd20","addProposer(address)":"b03cd418","daoassembly()":"d1f956b1","daocore()":"14d8d024","getProposalsCount()":"98e527d3","importRankBusiness(uint256,uint256)":"e981bcad","importuser(uint256)":"3676bd1f","in741()":"ab6e844f","in741Old()":"447aa304","in741Prime()":"a66bcbe2","in741PrimeOld()":"447bf0e2","in741Primev3Old()":"bd811bce","in741Rule()":"cfbffe53","in741RuleOld()":"bb245896","in741RulePrime()":"e1f4cd24","in741RulePrimeOld()":"efed51bb","inDEAD()":"46f991ac","inDeployerAService()":"677494d8","inDeployerAsRoot()":"de433f17","inImportForgePrimeold()":"e7531fc0","inInstance()":"e61dfd58","inInstancePrime()":"af233190","inInstanceStor()":"e09d394d","inNftFactory()":"08a887af","inNftProxy()":"43af1d9d","inOrc1155(uint256)":"b771c896","inOrc1155Old(uint256)":"c16addd0","inOrc1155OldV1(uint256)":"5c727e80","inOrc1155Prime(uint256)":"595e1dd2","inOrc1155PrimeOld()":"a7acacf8","inOrc1155PrimeOldV1()":"b3a86ab0","inOrc1155machinebullold()":"a5b277f2","inPrice()":"d3d1b096","inPrimeData()":"01c0d48b","inPrimeProxy()":"a0b8cbb8","inTransferPrimeold()":"f144dff0","inTransferold()":"c5a90db1","inTreaseryFactory()":"5e09dbe7","inTreaseryTVLMining()":"aa0ddc16","inTreaseryTVLMiningImport()":"21c82677","inTreaseryTVLMiningPrime()":"6b4aefc6","inTreaseryTVLReward()":"64027427","inTreaseryTVLRoyality()":"30125cf5","inTreaseryTVLTour()":"24768d91","inTreaseryTVLValidator()":"9dc969a8","inblank()":"448f3eef","incointransfer()":"1b4fc17b","infactoryold()":"5ad64af1","infactoryprimeold()":"da1be7d0","insafeguard()":"97f3815a","insafeguardOld()":"51ffe4c5","insafeguardPrime()":"af0deb95","insafeguardPrimeOld()":"a7d7fa50","invalidator()":"52b06d64","invalidatorOld()":"6325dd04","mapOldORC1155(address)":"cfaa1f6c","mapOldORC1155Prime(address)":"ed15cbf7","proposals(uint256)":"013cf08b","s1()":"6cc014de","s2()":"a314150f","s3()":"a5d666a9","submit(address,address,address,address,address)":"a11abe2a","testTxnSys()":"050564b3","update741(address)":"aeb14020","update741Old(address)":"236b0402","update741Prime(address)":"fc58f353","update741PrimeOld(address)":"66658584","update741Primev3Old(address)":"8360701d","update741Rule(address)":"753e7d33","update741RuleOld(address)":"507aa64f","update741RulePrime(address)":"cfacc010","update741RulePrimeOld(address)":"74dfe236","updateCoinTransfer(address)":"23db6149","updateDAOAssembly(address)":"45d96de8","updateDAOCore(address)":"891e91a5","updateDEAD(address)":"0a4c9939","updateFactoryOld(address)":"42ac8f79","updateFactoryPrimeOld(address)":"1654f331","updateImportForgePrimeold(address)":"74fad9f9","updateInTransferOld(address)":"a2672aa8","updateInTransferPrimeOld(address)":"069f3e72","updateInstance(address)":"275424d0","updateInstancePrime(address)":"839a47a4","updateInstanceStor(address)":"6fa16598","updateNftProxy(address)":"f6065649","updateOrc1155(address,address,uint256)":"cc7cf18e","updateOrc1155MachineBullOld(address)":"c7bb7d4d","updateOrc1155Prime(address,address,uint256)":"ef140ed3","updateOrc1155PrimeOld(address)":"1a47ded5","updateOrc1155PrimeOldV1(address)":"0c32145a","updatePrice(address)":"96e85ced","updatePrimeData(address)":"335ab5f2","updatePrimeProxy(address)":"4588d010","updateProposals(address,uint256)":"e0cf4e9e","updateSafeguard(address)":"1162a5b1","updateSafeguardOld(address)":"a0449f45","updateSafeguardPrime(address)":"a9d5ae6f","updateSafeguardPrimeOld(address)":"9669f18f","updateTreaseryFactory(address)":"70ee2af8","updateTreaseryTVLMiningImport(address)":"014519e6","updateTreaseryTVLValidator(address)":"4b849a54","updateTreasuryTVLMining(address)":"130fba6d","updateTreasuryTVLMiningPrime(address)":"36c24c46","updateTreasuryTVLReward(address)":"05abae0d","updateTreasuryTVLRoyality(address)":"e2576819","updateTreasuryTVLTour(address)":"1b67970a","updateValidator(address)":"635b2770"},"id":69}