{"abi":[{"type":"constructor","inputs":[{"name":"_hex","type":"address","internalType":"address"}],"stateMutability":"nonpayable"},{"type":"function","name":"rule741","inputs":[],"outputs":[{"name":"","type":"address","internalType":"address"}],"stateMutability":"view"},{"type":"function","name":"transferRequest","inputs":[],"outputs":[{"name":"","type":"address","internalType":"address"}],"stateMutability":"view"}],"bytecode":{"object":"0x6080346200012d57601f62006ee538819003918201601f19168301926001600160401b0392909183851183861017620001175781602092849260409788528339810103126200012d57516001600160a01b0390818116908190036200012d57835190614a8b91828101928184108685111762000117576200245a823981835260208160009403019083f09384156200010d5782549484166001600160a01b03199586161783558551916122578084019284841090841117620000f957918391602093620002038439815203019082f0908115620000ee5750169060015416176001555160d09081620001338239f35b8451903d90823e3d90fd5b634e487b7160e01b85526041600452602485fd5b85513d84823e3d90fd5b634e487b7160e01b600052604160045260246000fd5b600080fdfe6080806040526004361015601257600080fd5b600090813560e01c9081630a5b38ab1460685750633da8676f14603457600080fd5b3460655780600319360112606557602073ffffffffffffffffffffffffffffffffffffffff60015416604051908152f35b80fd5b9050346096578160031936011260965773ffffffffffffffffffffffffffffffffffffffff60209254168152f35b5080fdfea2646970667358221220bf2c00504868fd934bde6db86464886c12819673c9e2ae9e41106dbae318ec8d64736f6c6343000814003360803461009757601f61225738819003918201601f19168301916001600160401b0383118484101761009c5780849260209460405283398101031261009757516001600160a01b038116908190036100975780156100855760018060a01b031933816001541617600155600054161760005560016002556040516121a490816100b38239f35b60405163e6c4247b60e01b8152600490fd5b600080fd5b634e487b7160e01b600052604160045260246000fdfe60806040526004361015610018575b361561001657005b005b60003560e01c806312065fe01461019857806318c864e3146101935780631f185d161461018e5780633676bd1f146101895780633b9b795514610184578063479fa2c31461017f5780634ef260a91461017a5780638da5cb5b146101755780639fb3953b14610170578063a1f7f5391461016b578063ab7e46ae14610166578063ac23334514610161578063af4845261461015c578063b8f1759a14610157578063b90306ad14610152578063c1e6cec21461014d578063c54e44b014610148578063cab3cc8d14610143578063e01ad5fd1461013e578063e0a9bc2b14610139578063e846034a14610134578063e84adc131461012f578063e981bcad1461012a5763fdc10bc90361000e57610f60565b610e85565b610ca6565b610c88565b610c03565b610b69565b610b4b565b610ac5565b610a87565b6109d6565b61097c565b61094b565b610913565b6108b9565b6107c4565b6105fd565b6105d6565b610514565b61042b565b610404565b6103d9565b61028f565b61020e565b346101b45760003660031901126101b457602047604051908152f35b600080fd5b634e487b7160e01b600052603260045260246000fd5b60045481101561020957600460005260021b7f8a35acfbc15ff81a39ae7d344fd709f28e8600b4aa8c65c6b64bfe7fe36bd19b0190600090565b6101b9565b346101b45760203660031901126101b4576004356004548110156101b457610235906101cf565b50805460018201546002830154600390930154604080516001600160a01b0394851681529390921660208401529082019290925260ff90911615156060820152608090f35b0390f35b6001600160a01b038116036101b457565b346101b4576020806003193601126101b4576004356102ad8161027e565b6004826102d16102c56000546001600160a01b031690565b6001600160a01b031690565b60405192838092634bf9c0ad60e11b82525afa80156103d4576103399261031d926000926103a1575b5061032b906040519384918783019190916001600160a01b036020820193169052565b03601f1981018452836110a9565b610333611d03565b90611f04565b919080610397575b1561036d57818161035b9261027a94518301019101611bfc565b60405190151581529081906020820190565b60046040517f3204506f000000000000000000000000000000000000000000000000000000008152fd5b5080825114610341565b61032b9192506103c690863d88116103cd575b6103be81836110a9565b810190611112565b91906102fa565b503d6103b4565b61112a565b346101b45760203660031901126101b4576103f2611aa9565b6103fd600435611678565b6001600255005b346101b45760003660031901126101b45760206001600160a01b0360005416604051908152f35b346101b45760203660031901126101b45760043580151580610508575b156104c45761045961045e9161122b565b6101cf565b5080546001600160a01b031661027a61048160018401546001600160a01b031690565b926104956003600283015492015460ff1690565b604080516001600160a01b03958616815295909416602086015292840152901515606083015281906080820190565b606460405162461bcd60e51b815260206004820152601760248201527f70726f706f7365722e696e76616c69642e666f726d69640000000000000000006044820152fd5b50600454811115610448565b346101b45760203660031901126101b4576004356105318161027e565b6001600160a01b038091169060009180835260036020526040832054801515806105ca575b61055e578380f35b60001981019081116105c557610573906101cf565b50508083526003602052826040812055600554680100000000000000008110156105c0578060016105a79201600555610882565b909283549160031b92831b921b19161790553880808380f35b611008565b611215565b50600454811115610556565b346101b45760003660031901126101b45760206001600160a01b0360015416604051908152f35b60803660031901126101b4576004356106158161027e565b61061d611aa9565b6106326102c56000546001600160a01b031690565b6040519163ab6e844f60e01b83526020918284600481845afa9384156103d4576000946107a0575b5082600491604051928380927fde433f170000000000000000000000000000000000000000000000000000000082525afa9081156103d4576106e3916106c191600091610783575b506040519182918683019190916001600160a01b036020820193169052565b03946106d5601f19968781018452836110a9565b6106dd611b8a565b90611f97565b906001600160a01b0382166106fd575b6100166001600255565b610779937fc107930a00000000000000000000000000000000000000000000000000000000936107686107749360405196879384015260643590604435906024359060248601909493926060926001600160a01b036080840197168352602083015260408201520152565b039081018452836110a9565b6120aa565b50388080806106f3565b61079a9150853d87116103cd576103be81836110a9565b386106a2565b60049194506107bc8491823d84116103cd576103be81836110a9565b94915061065a565b346101b45760003660031901126101b457600460206001600160a01b03600054166040519283809263d1f956b160e01b82525afa9081156103d45761027a9161085491600091610864575b5060405161081c81611071565b601381527f67657464656c656761746f72436f756e74282900000000000000000000000000602082015261084e6110e7565b91612024565b6040519081529081906020820190565b61087c915060203d81116103cd576103be81836110a9565b3861080f565b6005548110156102095760056000527f036b6384b5eca791c62761152d0c79bb0604c104a5fb6f4eb0703f3154bb3db00190600090565b346101b45760203660031901126101b4576004356005548110156101b4576001600160a01b0360209160056000527f036b6384b5eca791c62761152d0c79bb0604c104a5fb6f4eb0703f3154bb3db0015416604051908152f35b346101b45760203660031901126101b457602061093a6004356109358161027e565b6112a1565b6001600160a01b0360405191168152f35b346101b45760203660031901126101b457602061097260043561096d8161027e565b611c49565b6040519015158152f35b346101b45760203660031901126101b457600435600554811015610209576001600160a01b0360209160056000527f036b6384b5eca791c62761152d0c79bb0604c104a5fb6f4eb0703f3154bb3db0015416604051908152f35b346101b45760203660031901126101b45760046001600160a01b036020610a0782600054166001600160a01b031690565b60405193848092630536340960e21b82525afa9182156103d457600092610a67575b5033911603610a3d57610016600435611da5565b60046040517fea8e4eb5000000000000000000000000000000000000000000000000000000008152fd5b610a8091925060203d81116103cd576103be81836110a9565b9038610a29565b346101b45760203660031901126101b4576001600160a01b03600435610aac8161027e565b1660005260036020526020604060002054604051908152f35b346101b45760203660031901126101b457600435610ae28161027e565b803b6000610aef826110cb565b92610afd60405194856110a9565b82845260208401903c602d815110610b2157602a602091015160601c604051908152f35b60046040517fbaf3f0f7000000000000000000000000000000000000000000000000000000008152fd5b346101b45760003660031901126101b4576020600454604051908152f35b346101b4576020806003193601126101b45760048035610b888161027e565b6001600160a01b03928084600054166040519485809263d1f956b160e01b82525afa9081156103d45761027a9461035b94600093610be4575b506040519316818401528252610bd682611071565b610bde611d3c565b90611fe8565b610bfc919350823d84116103cd576103be81836110a9565b9138610bc1565b346101b45760003660031901126101b457610c296102c56000546001600160a01b031690565b6040518091634bf9c0ad60e11b825281600460209485935afa80156103d45761033991600091610c6b575b50610c5d611bc3565b610c656110e7565b91611f04565b610c829150833d85116103cd576103be81836110a9565b38610c54565b346101b45760003660031901126101b4576020600554604051908152f35b346101b4576040806003193601126101b45760043590610cc58261027e565b6001600160a01b03821615610e75576000913383526020916003835280842054610e3257610d1f610cf461101e565b509283906001600160a01b031673ffffffffffffffffffffffffffffffffffffffff19825416179055565b60018201805473ffffffffffffffffffffffffffffffffffffffff19163317815592600490610d4c6110fa565b81610d616102c589546001600160a01b031690565b855194858092630536340960e21b82525afa9283156103d457600294610dda94610dcd9361031d938b92610e11575b506107749192519384917fffa734f00000000000000000000000000000000000000000000000000000000088840152602435903060248501611159565b8051810182019101611206565b910155610e0d610df460045492546001600160a01b031690565b6001600160a01b03166000526003602052604060002090565b5580f35b6107749250610e2c90873d89116103cd576103be81836110a9565b91610d90565b82606491519062461bcd60e51b82526004820152601260248201527f70726f706f7365722e746f2e65786973747300000000000000000000000000006044820152fd5b6004905163e6c4247b60e01b8152fd5b346101b45760403660031901126101b457610e9e611aa9565b610eaf610eaa30611c49565b611418565b60046020610ec86102c56000546001600160a01b031690565b6040519283809263ab6e844f60e01b82525afa80156103d457610f3791600091610f42575b506040517f33b59a5b00000000000000000000000000000000000000000000000000000000602082015260043560248083019190915235604482015290610774826064810161031d565b506100166001600255565b610f5a915060203d81116103cd576103be81836110a9565b38610eed565b346101b45760003660031901126101b457600460206001600160a01b03600054166040519283809263111ea8c160e21b82525afa9081156103d45761027a9161085491600091610fea575b50604051610fb881611071565b600581527f6167652829000000000000000000000000000000000000000000000000000000602082015261084e6110e7565b611002915060203d81116103cd576103be81836110a9565b38610fab565b634e487b7160e01b600052604160045260246000fd5b600454680100000000000000008110156105c057600181018060045581101561020957600460005260021b7f8a35acfbc15ff81a39ae7d344fd709f28e8600b4aa8c65c6b64bfe7fe36bd19b0190600090565b6040810190811067ffffffffffffffff8211176105c057604052565b6020810190811067ffffffffffffffff8211176105c057604052565b90601f8019910116810190811067ffffffffffffffff8211176105c057604052565b67ffffffffffffffff81116105c057601f01601f191660200190565b604051906110f48261108d565b60008252565b6040516111068161108d565b60008152906000368137565b908160209103126101b457516111278161027e565b90565b6040513d6000823e3d90fd5b60005b8381106111495750506000910152565b8181015183820152602001611139565b6000926001600160a01b0360a09396959660c08452602660c08501527f547269676765722e496e7374616e63652e70726f706f73616c2e55736572547260e08501527f616e736665720000000000000000000000000000000000000000000000000000610100850152166020830152836040830152610120806060840152815180918401526111f2816101409360208587019101611136565b601f80199101168201019460808201520152565b908160209103126101b4575190565b634e487b7160e01b600052601160045260246000fd5b6000198101919082116105c557565b6040519061124782611071565b601282527f6765745374617475732875696e743235362900000000000000000000000000006020830152565b519081151582036101b457565b91908260409103126101b457611127602061129a84611273565b9301611273565b6112be906001600160a01b03166000526003602052604060002090565b54801515806113c1575b156113bb576104596112d99161122b565b50600381015460ff166113ae576112fb6102c56000546001600160a01b031690565b6040518091630536340960e21b825281600460209384935afa80156103d45761031d6113579161136494600091611391575b5061134960028701546040519384918783019190602083019252565b61135161123a565b90611ed9565b8051810182019101611280565b81929192611389575b506000911561138557546001600160a01b0316905090565b5090565b91503861136d565b6113a89150843d86116103cd576103be81836110a9565b3861132d565b546001600160a01b031690565b50600090565b506004548111156112c8565b156113d457565b606460405162461bcd60e51b815260206004820152601c60248201527f7574696c6974792e62617463682e6c696d69742e6578636565646564000000006044820152fd5b1561141f57565b606460405162461bcd60e51b815260206004820152601760248201527f7574696c6974792e756e7365637572652e6661696c65640000000000000000006044820152fd5b6040519061147082611071565b600f82527f6765744e6f646573436f756e74282900000000000000000000000000000000006020830152565b156114a357565b606460405162461bcd60e51b815260206004820152601360248201527f7574696c6974792e696d706f72742e646f6e65000000000000000000000000006044820152fd5b919082018092116105c557565b60001981146105c55760010190565b6040519061151082611071565b601782527f6765744e6f64654279496e6465782875696e74323536290000000000000000006020830152565b1561154357565b606460405162461bcd60e51b815260206004820152601660248201527f70726f78792e696e76616c69642e696e7374616e6365000000000000000000006044820152fd5b6040519061159482611071565b601382527f496e7374546f55736572286164647265737329000000000000000000000000006020830152565b156115c757565b606460405162461bcd60e51b815260206004820152601260248201527f70726f78792e696e76616c69642e6e6f646500000000000000000000000000006044820152fd5b6040519061161882611071565b601082527f6765744e6f6465286164647265737329000000000000000000000000000000006020830152565b908160a09103126101b45780519160208201516116608161027e565b91604081015191611127608061129a60608501611273565b61168560648211156113cd565b611691610eaa30611c49565b6000906116a86102c583546001600160a01b031690565b9160409081519163111ea8c160e21b9485845260209060049482818781855afa80156103d4576116f1918691611a92575b506116e26110fa565b906116eb611463565b90612024565b958615611a885783518381888163ab6e844f60e01b968782525afa9081156103d45761173c9161172a918891611a6b57506116e26110fa565b91611736838a1161149c565b826114e7565b96808811611a63575b505b868110611758575050505050505050565b61176c6102c586546001600160a01b031690565b9084519189835284838981845afa9283156103d4578793611a44575b506117bc8651806117a0858983019190602083019252565b03946117b4601f19968781018452836110a9565b6106dd611503565b906001600160a01b036117d2818416151561153c565b87518c815287818c81865afa80156103d457611827918b91611a27575b5089519061181f82611813888d83019190916001600160a01b036020820193169052565b038981018452836110a9565b6106dd611587565b9161183582841615156115c0565b8851938d855288858d81855afa9485156103d4576118926001928c8f988f6118a0958f9192611a02575b5091516001600160a01b039093169183019182529061188a9083906020015b038c81018452836110a9565b61135161160b565b8a8082518301019101611644565b50505093909316926118b38115156115c0565b1480156119f9575b61197c575b506118cb8280611ae2565b866118e06102c58b546001600160a01b031690565b8951948580928a82525afa80156103d45761195695611950948b9261195b575b5089517f50db85d1000000000000000000000000000000000000000000000000000000008a8201526001600160a01b03938416602482015293909216604484015290610774908360648101610768565b506114f4565b611747565b6107749250611976908a3d8c116103cd576103be81836110a9565b91611900565b928c88918a518096819382525afa9283156103d4578a936119d0926119c4928c926119d6575b5061181f908b519384918c83019190916001600160a01b036020820193169052565b038881018452836110a9565b386118c0565b61181f9192506119f2908b3d8d116103cd576103be81836110a9565b91906119a2565b508115156118bb565b61188a9250611a2061187e91833d85116103cd576103be81836110a9565b925061185f565b611a3e9150893d8b116103cd576103be81836110a9565b386117ef565b611a5c919350853d87116103cd576103be81836110a9565b9138611788565b965038611745565b611a829150863d88116103cd576103be81836110a9565b386116d9565b5050505050505050565b611a829150843d86116103cd576103be81836110a9565b6002805414611ab85760028055565b60046040517f3ee5aeb5000000000000000000000000000000000000000000000000000000008152fd5b60045490680100000000000000008210156105c057611b37611b0c836001600395016004556101cf565b509182906001600160a01b031673ffffffffffffffffffffffffffffffffffffffff19825416179055565b60018101805473ffffffffffffffffffffffffffffffffffffffff19166001600160a01b03851617905501600160ff198254161790556001600160a01b0360045491166000526003602052604060002055565b60405190611b9782611071565b601682527f67657455736572546f496e7374286164647265737329000000000000000000006020830152565b60405190611bd082611071565b600882527f69735361666528290000000000000000000000000000000000000000000000006020830152565b908160209103126101b45761112790611273565b60405190611c1d82611071565b601582527f69735365637572654261736528616464726573732900000000000000000000006020830152565b611c5e6102c56000546001600160a01b031690565b906040518092634bf9c0ad60e11b825281600460209586935afa80156103d457611cb99261031d92600092611ce0575b50611cb1906040519384918783019190916001600160a01b036020820193169052565b610333611c10565b9080611cd6575b1561036d57816111279282518301019101611bfc565b5081815114611cc0565b611cb1919250611cfc90863d88116103cd576103be81836110a9565b9190611c8e565b60405190611d1082611071565b601182527f69735369676e65722861646472657373290000000000000000000000000000006020830152565b60405190611d4982611071565b601882527f697364656c656761746f724e6f646528616464726573732900000000000000006020830152565b3d15611da0573d90611d86826110cb565b91611d9460405193846110a9565b82523d6000602084013e565b606090565b6000611dbb6102c582546001600160a01b031690565b9060405180927f46f991ac00000000000000000000000000000000000000000000000000000000825281600460209586935afa80156103d45782808681949382948391611ebc575b505af1611e0e611d75565b501561036d57600482611e2b6102c584546001600160a01b031690565b604051928380927f5e09dbe70000000000000000000000000000000000000000000000000000000082525afa9081156103d4577fcdcc745fe377b103b45fa0cec23ae3ef93d6fc6a84a01f0d18c40b354dd1d5d8936001600160a01b039392611e9f575b50506040519384521691602090a2565b611eb59250803d106103cd576103be81836110a9565b3880611e8f565b611ed39150883d8a116103cd576103be81836110a9565b38611e03565b90611ee49291611f04565b9060009015611ef1575090565b6040519150611eff8261108d565b815290565b803b15611f7e576000927fffffffff000000000000000000000000000000000000000000000000000000008360208695519101201690611f6e6024604051809360208201958652611f5e8151809260208686019101611136565b81010360048101845201826110a9565b51915afa611f7a611d75565b9091565b505050600090604051611f908161108d565b6000815290565b9291611fa591600094611f04565b9080611fdd575b611fb35750565b9091506020818051810103126101b45760206001600160a01b03910151611fd98161027e565b1690565b506020815114611fac565b9291611ff691600094611f04565b9080612019575b6120045750565b61112791925060208082518301019101611bfc565b506020815114611ffd565b929161203291600094611f04565b9080612055575b6120405750565b61112791925060208082518301019101611206565b506020815114612039565b90602082519201517fffffffff0000000000000000000000000000000000000000000000000000000090818116936004811061209b57505050565b60040360031b82901b16169150565b6001600160a01b0381161561215d57600080918351908260208601915af1906120d1611d75565b91156120db575090565b805160009190600411612157576120f29150612060565b8151156121025750805190602001fd5b6040517f21c09d340000000000000000000000000000000000000000000000000000000081527fffffffff00000000000000000000000000000000000000000000000000000000919091166004820152602490fd5b506120f2565b600460405163e6c4247b60e01b8152fdfea2646970667358221220b4a102a0f368d0be1dcb1b0ae0898007f813994faabcb0aff0e385f08f02403f64736f6c6343000814003360803462001afd576001600160401b0390601f62004a8b38819003918201601f19168301918483118484101762001ad55780849260209460405283398101031262001afd57516001600160a01b0381169081900362001afd57801562001aeb5760018060a01b031933816001541617600155600054161760005560a760155561010e601655601e601a556001601b556001601c556002601d5561c350601e55610258601f556003602055601960215568878678326eac900000602255670de0b6b3a764000060235569021e19e0c9bab24000006024556001602555600360265560016027556007602855600560355560ff19603654166036556040519060e08201908282109082111762001ad5576102589160c0916040526002815260646020820152600160408201526023606082015260646080820152600160a0820152015260026006556064600755600160085560236009556064600a556001600b55610258600c5560b460606200017262001b42565b60198152600a6020820152605a604082015201526019600d55600a600e55605a600f5560b4601055620001a462001b42565b600581526001602082015260b460606101689283604082015201526005601155600160125560135560b460145560016080620001df62001b02565b6003815282602082015282604082015282606082015201526003601755630101010163ffffffff1960185416176018556200021962001b42565b610258606061014092838152600b6020820152600a60408201520152602955600b602a55600a602b55610258602c5561025860606200025762001b42565b60d28152600b6020820152600a6040820152015260d2602d55600b602e55600a602f55610258603055600760606200028e62001b42565b60038152600160208201526001604082015201526003603155600160325560016033556007603455620003a5620002c462001b02565b60008082526020808301828152604084018381526060850184815261270f60808701908152948052600390935293517f3617319a054d772f909f7c479a2cebe5066e836a939412e32403c99029b92eff55517f3617319a054d772f909f7c479a2cebe5066e836a939412e32403c99029b92f005591517f3617319a054d772f909f7c479a2cebe5066e836a939412e32403c99029b92f015590517f3617319a054d772f909f7c479a2cebe5066e836a939412e32403c99029b92f0255517f3617319a054d772f909f7c479a2cebe5066e836a939412e32403c99029b92f0355565b6200049a620003b362001b02565b60078152601960208083019182526000604084018181526060850182815261270f608087019081526001909352600390935293517fa15bc60c955c405d20d9149c709e2460f1c2d9a497496a7f46004d1772c3054c5591517fa15bc60c955c405d20d9149c709e2460f1c2d9a497496a7f46004d1772c3054d5591517fa15bc60c955c405d20d9149c709e2460f1c2d9a497496a7f46004d1772c3054e5590517fa15bc60c955c405d20d9149c709e2460f1c2d9a497496a7f46004d1772c3054f55517fa15bc60c955c405d20d9149c709e2460f1c2d9a497496a7f46004d1772c3055055565b6200058f620004a862001b02565b60078152606460208083019182526000604084018181526060850182815261270f608087019081526002909352600390935293517fc3a24b0501bd2c13a7e57f2db4369ec4c223447539fc0724a9d55ac4a06ebd4d5591517fc3a24b0501bd2c13a7e57f2db4369ec4c223447539fc0724a9d55ac4a06ebd4e5591517fc3a24b0501bd2c13a7e57f2db4369ec4c223447539fc0724a9d55ac4a06ebd4f5590517fc3a24b0501bd2c13a7e57f2db4369ec4c223447539fc0724a9d55ac4a06ebd5055517fc3a24b0501bd2c13a7e57f2db4369ec4c223447539fc0724a9d55ac4a06ebd5155565b620006836200059d62001b02565b600781526101f46020808301918252600360408401818152600060608601818152601e60808801908152918490529290935293517fcbc4e5fb02c3d1de23a9f1e014b4d2ee5aeaea9505df5e855c9210bf472495af5591517fcbc4e5fb02c3d1de23a9f1e014b4d2ee5aeaea9505df5e855c9210bf472495b05591517fcbc4e5fb02c3d1de23a9f1e014b4d2ee5aeaea9505df5e855c9210bf472495b155517fcbc4e5fb02c3d1de23a9f1e014b4d2ee5aeaea9505df5e855c9210bf472495b255517fcbc4e5fb02c3d1de23a9f1e014b4d2ee5aeaea9505df5e855c9210bf472495b355565b620007786200069162001b02565b600781526107d06020808301918252600460408401818152600360608601818152601e60808801908152600094909452935293517f83ec6a1f0257b830b5e016457c9cf1435391bf56cc98f369a58a54fe937724655591517f83ec6a1f0257b830b5e016457c9cf1435391bf56cc98f369a58a54fe937724665591517f83ec6a1f0257b830b5e016457c9cf1435391bf56cc98f369a58a54fe937724675590517f83ec6a1f0257b830b5e016457c9cf1435391bf56cc98f369a58a54fe9377246855517f83ec6a1f0257b830b5e016457c9cf1435391bf56cc98f369a58a54fe9377246955565b6200086d6200078662001b02565b6007815261138860208083019182526004604084018181526060850191825261270f608086019081526005600052600390935293517f405aad32e1adbac89bb7f176e338b8fc6e994ca210c9bb7bdca249b4659422505591517f405aad32e1adbac89bb7f176e338b8fc6e994ca210c9bb7bdca249b4659422515591517f405aad32e1adbac89bb7f176e338b8fc6e994ca210c9bb7bdca249b46594225255517f405aad32e1adbac89bb7f176e338b8fc6e994ca210c9bb7bdca249b46594225355517f405aad32e1adbac89bb7f176e338b8fc6e994ca210c9bb7bdca249b46594225455565b620009626200087b62001b02565b6007815261271060208083019182526004604084018181526060850191825261270f608086019081526006600052600390935293517fc69056f16cbaa3c616b828e333ab7d3a32310765507f8f58359e99ebb7a885f35591517fc69056f16cbaa3c616b828e333ab7d3a32310765507f8f58359e99ebb7a885f45591517fc69056f16cbaa3c616b828e333ab7d3a32310765507f8f58359e99ebb7a885f555517fc69056f16cbaa3c616b828e333ab7d3a32310765507f8f58359e99ebb7a885f655517fc69056f16cbaa3c616b828e333ab7d3a32310765507f8f58359e99ebb7a885f755565b62000a596200097062001b02565b60078082526161a860208084019182526004604085018181526060860191825261270f60808701908152600095909552600390925293517ff2c49132ed1cee2a7e75bde50d332a2f81f1d01e5456d8a19d1df09bd561dbd25590517ff2c49132ed1cee2a7e75bde50d332a2f81f1d01e5456d8a19d1df09bd561dbd355517ff2c49132ed1cee2a7e75bde50d332a2f81f1d01e5456d8a19d1df09bd561dbd45590517ff2c49132ed1cee2a7e75bde50d332a2f81f1d01e5456d8a19d1df09bd561dbd555517ff2c49132ed1cee2a7e75bde50d332a2f81f1d01e5456d8a19d1df09bd561dbd655565b62000b4962000a6762001b02565b600080825260066020808401918252600160408501818152600560608701818152608088018481529390965290925293517f1471eb6eb2c5e789fc3de43f8ce62938c7d1836ec861730447e2ada8fd81017b5590517f1471eb6eb2c5e789fc3de43f8ce62938c7d1836ec861730447e2ada8fd81017c55517f1471eb6eb2c5e789fc3de43f8ce62938c7d1836ec861730447e2ada8fd81017d55517f1471eb6eb2c5e789fc3de43f8ce62938c7d1836ec861730447e2ada8fd81017e55517f1471eb6eb2c5e789fc3de43f8ce62938c7d1836ec861730447e2ada8fd81017f55565b62000c3a62000b5762001b02565b60008082526003602080840191825260016040850181815260056060870181815260808801938452600290965290925293517f89832631fb3c3307a103ba2c84ab569c64d6182a18893dcd163f0f1c2090733a5590517f89832631fb3c3307a103ba2c84ab569c64d6182a18893dcd163f0f1c2090733b55517f89832631fb3c3307a103ba2c84ab569c64d6182a18893dcd163f0f1c2090733c55517f89832631fb3c3307a103ba2c84ab569c64d6182a18893dcd163f0f1c2090733d55517f89832631fb3c3307a103ba2c84ab569c64d6182a18893dcd163f0f1c2090733e55565b62000d2e62000c4862001b02565b60028152600f6020808301918252600a6040840190815260056060850181815260016080870190815260036000529190935293517fa9bc9a3a348c357ba16b37005d7e6b3236198c0e939f4af8c5f19b8deeb8ebc05591517fa9bc9a3a348c357ba16b37005d7e6b3236198c0e939f4af8c5f19b8deeb8ebc15590517fa9bc9a3a348c357ba16b37005d7e6b3236198c0e939f4af8c5f19b8deeb8ebc255517fa9bc9a3a348c357ba16b37005d7e6b3236198c0e939f4af8c5f19b8deeb8ebc355517fa9bc9a3a348c357ba16b37005d7e6b3236198c0e939f4af8c5f19b8deeb8ebc455565b62000e2262000d3c62001b02565b60028152600f6020808301918252600a6040840190815260056060850181815260016080870190815260046000529190935293517f3eec716f11ba9e820c81ca75eb978ffb45831ef8b7a53e5e422c26008e1ca6d55591517f3eec716f11ba9e820c81ca75eb978ffb45831ef8b7a53e5e422c26008e1ca6d65590517f3eec716f11ba9e820c81ca75eb978ffb45831ef8b7a53e5e422c26008e1ca6d755517f3eec716f11ba9e820c81ca75eb978ffb45831ef8b7a53e5e422c26008e1ca6d855517f3eec716f11ba9e820c81ca75eb978ffb45831ef8b7a53e5e422c26008e1ca6d955565b62000f1662000e3062001b02565b60028152600f6020808301918252600a6040840190815260056060850181815260016080870190815260008390529190935293517f458b30c2d72bfd2c6317304a4594ecbafe5f729d3111b65fdc3a33bd48e5432d5591517f458b30c2d72bfd2c6317304a4594ecbafe5f729d3111b65fdc3a33bd48e5432e5590517f458b30c2d72bfd2c6317304a4594ecbafe5f729d3111b65fdc3a33bd48e5432f55517f458b30c2d72bfd2c6317304a4594ecbafe5f729d3111b65fdc3a33bd48e5433055517f458b30c2d72bfd2c6317304a4594ecbafe5f729d3111b65fdc3a33bd48e5433155565b6200100a62000f2462001b02565b60028152604b602080830191825260646040840181815260fa60608601908152608086019283526006600052600590935293517f069400f22b28c6c362558d92f66163cec5671cba50b61abd2eecfcd0eaeac5185591517f069400f22b28c6c362558d92f66163cec5671cba50b61abd2eecfcd0eaeac5195591517f069400f22b28c6c362558d92f66163cec5671cba50b61abd2eecfcd0eaeac51a5590517f069400f22b28c6c362558d92f66163cec5671cba50b61abd2eecfcd0eaeac51b55517f069400f22b28c6c362558d92f66163cec5671cba50b61abd2eecfcd0eaeac51c55565b620010fe6200101862001b02565b60028152604b602080830191825260646040840181815260fa60608601908152608086019283526007600052600590935293517feddb6698d7c569ff62ff64f1f1492bf14a54594835ba0faac91f84b4f5d814605591517feddb6698d7c569ff62ff64f1f1492bf14a54594835ba0faac91f84b4f5d814615591517feddb6698d7c569ff62ff64f1f1492bf14a54594835ba0faac91f84b4f5d814625590517feddb6698d7c569ff62ff64f1f1492bf14a54594835ba0faac91f84b4f5d8146355517feddb6698d7c569ff62ff64f1f1492bf14a54594835ba0faac91f84b4f5d8146455565b620011f26200110c62001b02565b60028152604b602080830191825260646040840181815260fa60608601908152608086019283526008600052600590935293517ffb33122aa9f93cc639ebe80a7bc4784c11e6053dde89c6f4f7e268c6a623da1e5591517ffb33122aa9f93cc639ebe80a7bc4784c11e6053dde89c6f4f7e268c6a623da1f5591517ffb33122aa9f93cc639ebe80a7bc4784c11e6053dde89c6f4f7e268c6a623da205590517ffb33122aa9f93cc639ebe80a7bc4784c11e6053dde89c6f4f7e268c6a623da2155517ffb33122aa9f93cc639ebe80a7bc4784c11e6053dde89c6f4f7e268c6a623da2255565b620012e66200120062001b02565b60028152604b602080830191825260646040840181815260fa60608601908152608086019283526009600052600590935293517fc0a4a8be475dfebc377ebef2d7c4ff47656f572a08dd92b81017efcdba0febe15591517fc0a4a8be475dfebc377ebef2d7c4ff47656f572a08dd92b81017efcdba0febe25591517fc0a4a8be475dfebc377ebef2d7c4ff47656f572a08dd92b81017efcdba0febe35590517fc0a4a8be475dfebc377ebef2d7c4ff47656f572a08dd92b81017efcdba0febe455517fc0a4a8be475dfebc377ebef2d7c4ff47656f572a08dd92b81017efcdba0febe555565b620013da620012f462001b02565b60028152604b602080830191825260646040840181815260fa6060860190815260808601928352600a600052600590935293517fa18b128af1c8fc61ff46f02d146e54546f34d340574cf2cef6a753cba6b6701d5591517fa18b128af1c8fc61ff46f02d146e54546f34d340574cf2cef6a753cba6b6701e5591517fa18b128af1c8fc61ff46f02d146e54546f34d340574cf2cef6a753cba6b6701f5590517fa18b128af1c8fc61ff46f02d146e54546f34d340574cf2cef6a753cba6b6702055517fa18b128af1c8fc61ff46f02d146e54546f34d340574cf2cef6a753cba6b6702155565b620014ce620013e862001b02565b60028152604b602080830191825260646040840181815260fa6060860190815260808601928352600b600052600590935293517f40f28f99a40bc9f6beea1013afdbc3cdcc689eb76b82c4de06c0acf1e1932ed55591517f40f28f99a40bc9f6beea1013afdbc3cdcc689eb76b82c4de06c0acf1e1932ed65591517f40f28f99a40bc9f6beea1013afdbc3cdcc689eb76b82c4de06c0acf1e1932ed75590517f40f28f99a40bc9f6beea1013afdbc3cdcc689eb76b82c4de06c0acf1e1932ed855517f40f28f99a40bc9f6beea1013afdbc3cdcc689eb76b82c4de06c0acf1e1932ed955565b620015c2620014dc62001b02565b60028152604b602080830191825260646040840181815260fa6060860190815260808601928352600c600052600590935293517ff907e7e6656fa73566b18c1215272fe9fca2c55c552e62c923e21e000ac4b4e65591517ff907e7e6656fa73566b18c1215272fe9fca2c55c552e62c923e21e000ac4b4e75591517ff907e7e6656fa73566b18c1215272fe9fca2c55c552e62c923e21e000ac4b4e85590517ff907e7e6656fa73566b18c1215272fe9fca2c55c552e62c923e21e000ac4b4e955517ff907e7e6656fa73566b18c1215272fe9fca2c55c552e62c923e21e000ac4b4ea55565b620016b6620015d062001b02565b60028152604b602080830191825260646040840181815260fa6060860190815260808601928352600d600052600590935293517f03145c75015e7a856ecd94c41432ef3cb669d6360af23433588937fefdfac8255591517f03145c75015e7a856ecd94c41432ef3cb669d6360af23433588937fefdfac8265591517f03145c75015e7a856ecd94c41432ef3cb669d6360af23433588937fefdfac8275590517f03145c75015e7a856ecd94c41432ef3cb669d6360af23433588937fefdfac82855517f03145c75015e7a856ecd94c41432ef3cb669d6360af23433588937fefdfac82955565b620017aa620016c462001b02565b60028152604b602080830191825260646040840181815260fa6060860190815260808601928352600e600052600590935293517f783638979e3582b3ffd6d53fc06c949ac31d1ac75a5e2c3531fbe1f91045eb535591517f783638979e3582b3ffd6d53fc06c949ac31d1ac75a5e2c3531fbe1f91045eb545591517f783638979e3582b3ffd6d53fc06c949ac31d1ac75a5e2c3531fbe1f91045eb555590517f783638979e3582b3ffd6d53fc06c949ac31d1ac75a5e2c3531fbe1f91045eb5655517f783638979e3582b3ffd6d53fc06c949ac31d1ac75a5e2c3531fbe1f91045eb5755565b6200189e620017b862001b02565b60028152604b602080830191825260646040840181815260fa6060860190815260808601928352600f600052600590935293517f58f00e8ecc6f5419941dd0bafec65a4cc188d31713fb1fe224257460930df8af5591517f58f00e8ecc6f5419941dd0bafec65a4cc188d31713fb1fe224257460930df8b05591517f58f00e8ecc6f5419941dd0bafec65a4cc188d31713fb1fe224257460930df8b15590517f58f00e8ecc6f5419941dd0bafec65a4cc188d31713fb1fe224257460930df8b255517f58f00e8ecc6f5419941dd0bafec65a4cc188d31713fb1fe224257460930df8b355565b620018a862001b22565b60128152600a6020808301918252602d604084019081526003600052600490915291517f2e174c10e159ea99b867ce3205125c24a42d128804e4070ed6fcc8cc98166aa055517f2e174c10e159ea99b867ce3205125c24a42d128804e4070ed6fcc8cc98166aa155517f2e174c10e159ea99b867ce3205125c24a42d128804e4070ed6fcc8cc98166aa2556200193d62001b22565b60128152600a6020808301918252605a604084019081526005600052600490915291517f04cde762ef08b6b6c5ded8e8c4c0b3f4e5c9ad7342c88fcc93681b4588b73f0555517f04cde762ef08b6b6c5ded8e8c4c0b3f4e5c9ad7342c88fcc93681b4588b73f0655517f04cde762ef08b6b6c5ded8e8c4c0b3f4e5c9ad7342c88fcc93681b4588b73f0755620019d262001b22565b60098152600a602080830182815261270f604080860191825260076000908152600480865296517fbeb3bad75134cb432e5707980e3245c52c5998a1125ee30f2f0dbf3925b1e5515592517fbeb3bad75134cb432e5707980e3245c52c5998a1125ee30f2f0dbf3925b1e5525590517fbeb3bad75134cb432e5707980e3245c52c5998a1125ee30f2f0dbf3925b1e55355600290925260327f679795a0195a1b76cdebb7c51d74e058aee92919b8c3389af86ef24535e8a28c55929092526101f47fee60d0579bcffd98e668647d59fec1ff86a7fb340ce572e844f234ae73a6918f556005600f55601381905560a760155560165551612f12908162001b798239f35b634e487b7160e01b600052604160045260246000fd5b60405163e6c4247b60e01b8152600490fd5b600080fd5b6040519060a082016001600160401b0381118382101762001ad557604052565b60405190606082016001600160401b0381118382101762001ad557604052565b60405190608082016001600160401b0381118382101762001ad5576040526000606083828152826020820152826040820152015256fe60806040526004361015610018575b361561001657005b005b60003560e01c806304ce9f80146104885780630609a0e31461048357806307175c831461047e57806309307c62146104795780630b225f1a146104745780630ea0d2221461046f57806312065fe01461046a57806314be92a51461046557806315a544ed146104605780631605aed91461045b57806316f0115b14610456578063179b570a14610451578063192b48ee1461044c5780631ef6a864146104475780631f185d1614610442578063203bab661461043d57806326c5adae14610438578063298fc460146104335780633688236d1461042e5780633b9b7955146104295780634151331d14610424578063438fe1921461041f57806344ec16bc1461041a5780634b62954f1461041557806353423e8614610410578063541d76671461040b57806354541683146104065780635640dbfc14610401578063592a02a8146103fc5780635962205f146103f75780635a0e9038146103f2578063622fe2ed146103ed57806368400cb3146103e85780636c7deb5d146103e35780636f092c5e146103de5780637687e371146103d957806378ef376f146103d45780637bc908c6146103cf578063840bbc1e146103ca5780638da5cb5b146103c557806391fc8aa8146103c05780639319d0b5146103bb57806395cea094146103b65780639d80ab9b146103b15780639eb8b44e146103ac5780639f70207d146103a7578063a19841dd146103a2578063a1f7f5391461039d578063a88fcea614610398578063aebcd32a14610393578063af0b21d31461038e578063af48452614610389578063b338677514610384578063b49c064c1461037f578063b85f1f8d1461037a578063b90306ad14610375578063c54e44b014610370578063c5a136d41461036b578063dbad649c14610366578063e01ad5fd14610361578063e0a9bc2b1461035c578063e19a5bcf14610357578063eddd0d9c14610352578063f27c35c61461034d578063f2a6bbc714610348578063f4fe8e3c14610343578063f5de7bd21461033e578063f7a9783e14610339578063fbfa77cf14610334578063fc0e74d11461032f5763fdc10bc90361000e576123d6565b6123b3565b612379565b612319565b612262565b6121b4565b612109565b61205f565b611fb4565b611f0a565b611eef565b611e55565b611e37565b611d83565b611cfd565b611c76565b611c3c565b611c19565b611bfb565b611bca565b611bac565b611b44565b611b26565b611a78565b611a3e565b611a20565b611849565b6117ca565b6117ac565b611701565b6116e3565b6116bc565b611643565b611625565b61157a565b6114b8565b61148c565b6113e1565b6113c3565b6112e6565b6112ac565b611244565b61119a565b611122565b611104565b611093565b611076565b610fc5565b610f1a565b610efc565b610eb9565b610e92565b610e74565b610db2565b610cf1565b610c34565b610b0b565b610a50565b610983565b6108d2565b610881565b610863565b610845565b61079a565b61077e565b610760565b610742565b610691565b610673565b61054f565b3461054a57604036600319011261054a57600080808060243560043560018114610514575b6002146104e2575b50906104de91604051948594859094939260609260808301968352602083015260408201520152565b0390f35b6011546012546013546015549297509095506104de945092501161050c576016545b9290916104b5565b601454610504565b935093505050600d5491600e54600f54918060155411156000146105405760026016545b9490506104ad565b6002601054610538565b600080fd5b3461054a57602036600319011261054a5761056f61056b6125d7565b1590565b6106495761057c336126cf565b80156105bd575b1561059357610016600435601a55565b60046040517fea8e4eb5000000000000000000000000000000000000000000000000000000008152fd5b50600460206105e36105d76000546001600160a01b031690565b6001600160a01b031690565b60405192838092630536340960e21b82525afa90811561064457600091610616575b506001600160a01b03163314610583565b610637915060203d811161063d575b61062f818361253e565b810190612560565b38610605565b503d610625565b612578565b60046040517f9dc4246e000000000000000000000000000000000000000000000000000000008152fd5b3461054a57600036600319011261054a576020602154604051908152f35b3461054a57604036600319011261054a576106ad61056b6125d7565b610649576106ba336126cf565b80156106d7575b1561059357610016602435600435602355602455565b50600460206106f16105d76000546001600160a01b031690565b60405192838092630536340960e21b82525afa90811561064457600091610724575b506001600160a01b031633146106c1565b61073c915060203d811161063d5761062f818361253e565b38610713565b3461054a57600036600319011261054a576020603554604051908152f35b3461054a57600036600319011261054a576020601f54604051908152f35b3461054a57600036600319011261054a57602047604051908152f35b3461054a57602036600319011261054a576107b661056b6125d7565b610649576107c3336126cf565b80156107da575b1561059357610016600435601f55565b50600460206107f46105d76000546001600160a01b031690565b60405192838092630536340960e21b82525afa90811561064457600091610827575b506001600160a01b031633146107ca565b61083f915060203d811161063d5761062f818361253e565b38610816565b3461054a57600036600319011261054a576020602454604051908152f35b3461054a57600036600319011261054a576020602354604051908152f35b3461054a57600036600319011261054a5760e0600654600754600854600954600a5490600b5492600c5494604051968752602087015260408601526060850152608084015260a083015260c0820152f35b3461054a57604036600319011261054a576108ee61056b6125d7565b610649576108fb336126cf565b8015610918575b1561059357610016602435600435601555601655565b50600460206109326105d76000546001600160a01b031690565b60405192838092630536340960e21b82525afa90811561064457600091610965575b506001600160a01b03163314610902565b61097d915060203d811161063d5761062f818361253e565b38610954565b3461054a57602036600319011261054a5761099f61056b6125d7565b610649576109ac336126cf565b80156109c3575b1561059357610016600435612aa6565b50600460206109dd6105d76000546001600160a01b031690565b60405192838092630536340960e21b82525afa90811561064457600091610a10575b506001600160a01b031633146109b3565b610a28915060203d811161063d5761062f818361253e565b386109ff565b60a090600319011261054a576004359060243590604435906064359060843590565b3461054a57610a5e36610a2e565b92610a6d61056b9392936125d7565b61064957610a7a336126cf565b8015610a8f575b156105935761001694612de6565b5060046020610aa96105d76000546001600160a01b031690565b60405192838092630536340960e21b82525afa90811561064457600091610adc575b506001600160a01b03163314610a81565b610af4915060203d811161063d5761062f818361253e565b38610acb565b6001600160a01b0381160361054a57565b3461054a5760208060031936011261054a57600435610b2981610afa565b600482610b416105d76000546001600160a01b031690565b60405192838092634bf9c0ad60e11b82525afa801561064457610ba992610b8d92600092610c11575b50610b9b906040519384918783019190916001600160a01b036020820193169052565b03601f19810184528361253e565b610ba3612762565b90612938565b919080610c07575b15610bdd578181610bcb926104de945183010191016125c2565b60405190151581529081906020820190565b60046040517f3204506f000000000000000000000000000000000000000000000000000000008152fd5b5080825114610bb1565b610b9b919250610c2d90863d881161063d5761062f818361253e565b9190610b6a565b3461054a5760e036600319011261054a57610c5061056b6125d7565b61064957610c5d336126cf565b8015610c86575b156105935761001660c43560a435608435606435604435602435600435612cf6565b5060046020610ca06105d76000546001600160a01b031690565b60405192838092630536340960e21b82525afa90811561064457600091610cd3575b506001600160a01b03163314610c64565b610ceb915060203d811161063d5761062f818361253e565b38610cc2565b3461054a57602036600319011261054a57600460206001600160a01b0360005416604051928380926369e8d84b60e11b82525afa801561064457610d56610d7a916104de93600091610d8a575b50610d47612e6b565b90610d50612e83565b90612a22565b610d7560043591610d70610d6b602154612a60565b612a60565b612ebc565b612a93565b6040519081529081906020820190565b610da2915060203d811161063d5761062f818361253e565b38610d3e565b8015150361054a57565b3461054a57602036600319011261054a57600435610dcf81610da8565b610dda61056b6125d7565b61064957610de7336126cf565b8015610e09575b15610593576100169060ff8019603654169115151617603655565b5060046020610e236105d76000546001600160a01b031690565b60405192838092630536340960e21b82525afa90811561064457600091610e56575b506001600160a01b03163314610dee565b610e6e915060203d811161063d5761062f818361253e565b38610e45565b3461054a57600036600319011261054a576020601e54604051908152f35b3461054a57600036600319011261054a5760206001600160a01b0360005416604051908152f35b3461054a57602036600319011261054a57600435600052600460205260606040600020805490600260018201549101549060405192835260208301526040820152f35b3461054a57600036600319011261054a576020601c54604051908152f35b3461054a57602036600319011261054a57610f3661056b6125d7565b61064957610f43336126cf565b8015610f5a575b1561059357610016600435601b55565b5060046020610f746105d76000546001600160a01b031690565b60405192838092630536340960e21b82525afa90811561064457600091610fa7575b506001600160a01b03163314610f4a565b610fbf915060203d811161063d5761062f818361253e565b38610f96565b3461054a57604036600319011261054a57610fe161056b6125d7565b61064957610fee336126cf565b801561100b575b1561059357610016602435600435601d55601e55565b50600460206110256105d76000546001600160a01b031690565b60405192838092630536340960e21b82525afa90811561064457600091611058575b506001600160a01b03163314610ff5565b611070915060203d811161063d5761062f818361253e565b38611047565b3461054a57600036600319011261054a5760208054604051908152f35b3461054a57602036600319011261054a57600460206001600160a01b0360005416604051928380926369e8d84b60e11b82525afa8015610644576110e8610d7a916104de93600091610d8a5750610d47612e6b565b6004356000526002602052610d70610d6b604060002054612a60565b3461054a57600036600319011261054a576020601b54604051908152f35b3461054a57600036600319011261054a5760a060175460ff60185460405192835281811615156020840152818160081c1615156040840152818160101c161515606084015260181c1615156080820152f35b60c090600319011261054a57600435906024359060443590606435906084359060a43590565b3461054a576111a836611174565b936111b761056b9492946125d7565b610649576111c4336126cf565b80156111d9575b156105935761001695612ab4565b50600460206111f36105d76000546001600160a01b031690565b60405192838092630536340960e21b82525afa90811561064457600091611226575b506001600160a01b031633146111cb565b61123e915060203d811161063d5761062f818361253e565b38611215565b3461054a57602036600319011261054a576004356000526005602052604060002080546104de6001830154926002810154906004600382015491015491604051958695869192608093969594919660a084019784526020840152604083015260608201520152565b3461054a57600036600319011261054a57600d54600e54600f54601054604080519485526020850193909352918301526060820152608090f35b3461054a5760a036600319011261054a5760243561130381610da8565b60443561130f81610da8565b60643561131b81610da8565b6084359161132883610da8565b61133361056b6125d7565b61064957611340336126cf565b8015611358575b156105935761001693600435612bd3565b50600460206113726105d76000546001600160a01b031690565b60405192838092630536340960e21b82525afa908115610644576000916113a5575b506001600160a01b03163314611347565b6113bd915060203d811161063d5761062f818361253e565b38611394565b3461054a57600036600319011261054a576020602754604051908152f35b3461054a57602036600319011261054a576113fd61056b6125d7565b6106495761140a336126cf565b8015611421575b1561059357610016600435602055565b506004602061143b6105d76000546001600160a01b031690565b60405192838092630536340960e21b82525afa9081156106445760009161146e575b506001600160a01b03163314611411565b611486915060203d811161063d5761062f818361253e565b3861145d565b3461054a57602036600319011261054a5760043560005260026020526020604060002054604051908152f35b3461054a57602036600319011261054a576004356114d581610da8565b6114e061056b6125d7565b610649576114ed336126cf565b801561150f575b15610593576100169060ff8019601954169115151617601955565b50600460206115296105d76000546001600160a01b031690565b60405192838092630536340960e21b82525afa9081156106445760009161155c575b506001600160a01b031633146114f4565b611574915060203d811161063d5761062f818361253e565b3861154b565b3461054a57602036600319011261054a5761159661056b6125d7565b610649576115a3336126cf565b80156115ba575b1561059357610016600435602555565b50600460206115d46105d76000546001600160a01b031690565b60405192838092630536340960e21b82525afa90811561064457600091611607575b506001600160a01b031633146115aa565b61161f915060203d811161063d5761062f818361253e565b386115f6565b3461054a57600036600319011261054a576020602554604051908152f35b3461054a57602036600319011261054a57600460206001600160a01b0360005416604051928380926369e8d84b60e11b82525afa908115610644576116aa6116a26104de93670de0b6b3a764000093600091610d8a5750610d47612e6b565b600435612a93565b04604051918291829190602083019252565b3461054a57600036600319011261054a5760206001600160a01b0360015416604051908152f35b3461054a57600036600319011261054a576020602254604051908152f35b3461054a57602036600319011261054a5761171d61056b6125d7565b6106495761172a336126cf565b8015611741575b1561059357610016600435601c55565b506004602061175b6105d76000546001600160a01b031690565b60405192838092630536340960e21b82525afa9081156106445760009161178e575b506001600160a01b03163314611731565b6117a6915060203d811161063d5761062f818361253e565b3861177d565b3461054a57600036600319011261054a576020602854604051908152f35b3461054a57600036600319011261054a57602954602a54602b54602c54604080519485526020850193909352918301526060820152608090f35b6102a0810192916000915b6007831061181c57505050565b6001906060835191825181526020928381015184830152604080910151908201520192019201919061180f565b3461054a57600080600319360112611a1d576040908151611869816124ea565b815b60e081106119f8576104de8461187f612584565b60016000526004602052906118b87fabd6e7cb50984ff9c2f3e18a2660c3353dadf4e3291deeb275dae2cd1e44fe05612e43565b612e43565b8252600260005260046020526118ed7f91da3fd0782e51c6b3986e9e672fd566868e71f3dbc2d6c2cd6fbb3e361af2a7612e43565b602083015261190a6118b360036000526004602052604060002090565b82820152600460008190526020526119417f1a1e6821cde7d0159c0d293177871e09677b4e42307c7db3ba94f8648a5a050f612e43565b6060830152600560005260046020526119797f04cde762ef08b6b6c5ded8e8c4c0b3f4e5c9ad7342c88fcc93681b4588b73f05612e43565b6080830152600660005260046020526119b17fc59312466997bb42aaaf719ece141047820e6b34531e1670dc1852a453648f0f612e43565b60a0830152600760005260046020526119e97fbeb3bad75134cb432e5707980e3245c52c5998a1125ee30f2f0dbf3925b1e551612e43565b60c08301525191829182611804565b6020908451611a06816124ad565b84815284838201528486820152818401520161186b565b80fd5b3461054a57600036600319011261054a576020601554604051908152f35b3461054a57600036600319011261054a57602d54602e54602f54603054604080519485526020850193909352918301526060820152608090f35b3461054a57600036600319011261054a57600460206001600160a01b03600054166040519283809263d1f956b160e01b82525afa908115610644576104de91610d7a91600091611b08575b50604051611ad081612506565b601381527f67657464656c656761746f72436f756e742829000000000000000000000000006020820152611b026125af565b91612a22565b611b20915060203d811161063d5761062f818361253e565b38611ac3565b3461054a57600036600319011261054a576020601d54604051908152f35b3461054a57602036600319011261054a576004356000526003602052604060002080546104de6001830154926002810154906004600382015491015491604051958695869192608093969594919660a084019784526020840152604083015260608201520152565b3461054a57600036600319011261054a576020601a54604051908152f35b3461054a57602036600319011261054a576020611bf1600435611bec81610afa565b6126cf565b6040519015158152f35b3461054a57600036600319011261054a576020602654604051908152f35b3461054a57600036600319011261054a57602060ff603654166040519015158152f35b3461054a57600036600319011261054a57601154601254601354601454604080519485526020850193909352918301526060820152608090f35b3461054a57602036600319011261054a5760046001600160a01b036020611ca782600054166001600160a01b031690565b60405193848092630536340960e21b82525afa91821561064457600092611cdd575b503391160361059357610016600435612804565b611cf691925060203d811161063d5761062f818361253e565b9038611cc9565b3461054a57602036600319011261054a57600435611d1a81610afa565b803b6000611d2782612593565b92611d35604051948561253e565b82845260208401903c602d815110611d5957602a602091015160601c604051908152f35b60046040517fbaf3f0f7000000000000000000000000000000000000000000000000000000008152fd5b3461054a57608036600319011261054a57611d9f61056b6125d7565b61064957611dac336126cf565b8015611dcc575b1561059357610016606435604435602435600435612c8d565b5060046020611de66105d76000546001600160a01b031690565b60405192838092630536340960e21b82525afa90811561064457600091611e19575b506001600160a01b03163314611db3565b611e31915060203d811161063d5761062f818361253e565b38611e08565b3461054a57600036600319011261054a576020601654604051908152f35b3461054a5760208060031936011261054a5760048035611e7481610afa565b6001600160a01b03928084600054166040519485809263d1f956b160e01b82525afa908115610644576104de94610bcb94600093611ed0575b506040519316818401528252611ec282612506565b611eca61279b565b906129e6565b611ee8919350823d841161063d5761062f818361253e565b9138611ead565b3461054a57600036600319011261054a576020611bf16125d7565b3461054a57611f1836610a2e565b92611f2761056b9392936125d7565b61064957611f34336126cf565b8015611f49575b156105935761001694612d88565b5060046020611f636105d76000546001600160a01b031690565b60405192838092630536340960e21b82525afa90811561064457600091611f96575b506001600160a01b03163314611f3b565b611fae915060203d811161063d5761062f818361253e565b38611f85565b3461054a57602036600319011261054a57611fd061056b6125d7565b61064957611fdd336126cf565b8015611ff4575b1561059357610016600435602155565b506004602061200e6105d76000546001600160a01b031690565b60405192838092630536340960e21b82525afa90811561064457600091612041575b506001600160a01b03163314611fe4565b612059915060203d811161063d5761062f818361253e565b38612030565b3461054a5761206d36611174565b9361207c61056b9492946125d7565b61064957612089336126cf565b801561209e575b156105935761001695612b6b565b50600460206120b86105d76000546001600160a01b031690565b60405192838092630536340960e21b82525afa908115610644576000916120eb575b506001600160a01b03163314612090565b612103915060203d811161063d5761062f818361253e565b386120da565b3461054a57602036600319011261054a5761212561056b6125d7565b61064957612132336126cf565b8015612149575b1561059357610016600435603555565b50600460206121636105d76000546001600160a01b031690565b60405192838092630536340960e21b82525afa90811561064457600091612196575b506001600160a01b03163314612139565b6121ae915060203d811161063d5761062f818361253e565b38612185565b3461054a57604036600319011261054a576121d061056b6125d7565b610649576121dd336126cf565b80156121f7575b1561059357610016602435600435612cda565b50600460206122116105d76000546001600160a01b031690565b60405192838092630536340960e21b82525afa90811561064457600091612244575b506001600160a01b031633146121e4565b61225c915060203d811161063d5761062f818361253e565b38612233565b3461054a57606036600319011261054a5761227e61056b6125d7565b6106495761228b336126cf565b80156122ae575b1561059357610016604435602435600435602755602655602855565b50600460206122c86105d76000546001600160a01b031690565b60405192838092630536340960e21b82525afa908115610644576000916122fb575b506001600160a01b03163314612292565b612313915060203d811161063d5761062f818361253e565b386122ea565b3461054a57602036600319011261054a57600460206001600160a01b0360005416604051928380926369e8d84b60e11b82525afa80156106445761236e610d7a916104de93600091610d8a5750610d47612e6b565b610d70600435612a60565b3461054a57600036600319011261054a57603154603254603354603454604080519485526020850193909352918301526060820152608090f35b3461054a57600036600319011261054a57602060ff601954166040519015158152f35b3461054a57600036600319011261054a57600460206001600160a01b0360005416604051928380927f447aa3040000000000000000000000000000000000000000000000000000000082525afa908115610644576104de91610d7a91600091612479575b5060405161244781612506565b600581527f61676528290000000000000000000000000000000000000000000000000000006020820152611b026125af565b612491915060203d811161063d5761062f818361253e565b3861243a565b634e487b7160e01b600052604160045260246000fd5b6060810190811067ffffffffffffffff8211176124c957604052565b612497565b60a0810190811067ffffffffffffffff8211176124c957604052565b60e0810190811067ffffffffffffffff8211176124c957604052565b6040810190811067ffffffffffffffff8211176124c957604052565b6020810190811067ffffffffffffffff8211176124c957604052565b90601f8019910116810190811067ffffffffffffffff8211176124c957604052565b9081602091031261054a575161257581610afa565b90565b6040513d6000823e3d90fd5b60405190612591826124ea565b565b67ffffffffffffffff81116124c957601f01601f191660200190565b604051906125bc82612522565b60008252565b9081602091031261054a575161257581610da8565b6001600160a01b03600054166040518091634bf9c0ad60e11b825281600460209485935afa80156106445761265291600091612679575b5060405161261b81612506565b600881527f69735361666528290000000000000000000000000000000000000000000000008482015261264c6125af565b91612938565b908061266f575b15610bdd578161257592825183010191016125c2565b5081815114612659565b6126909150833d851161063d5761062f818361253e565b3861260e565b604051906126a382612506565b601582527f69735365637572654261736528616464726573732900000000000000000000006020830152565b6126e46105d76000546001600160a01b031690565b906040518092634bf9c0ad60e11b825281600460209586935afa80156106445761265292610b8d9260009261273f575b50612737906040519384918783019190916001600160a01b036020820193169052565b610ba3612696565b61273791925061275b90863d881161063d5761062f818361253e565b9190612714565b6040519061276f82612506565b601182527f69735369676e65722861646472657373290000000000000000000000000000006020830152565b604051906127a882612506565b601882527f697364656c656761746f724e6f646528616464726573732900000000000000006020830152565b3d156127ff573d906127e582612593565b916127f3604051938461253e565b82523d6000602084013e565b606090565b600061281a6105d782546001600160a01b031690565b9060405180927f46f991ac00000000000000000000000000000000000000000000000000000000825281600460209586935afa8015610644578280868194938294839161291b575b505af161286d6127d4565b5015610bdd5760048261288a6105d784546001600160a01b031690565b604051928380927f5e09dbe70000000000000000000000000000000000000000000000000000000082525afa908115610644577fcdcc745fe377b103b45fa0cec23ae3ef93d6fc6a84a01f0d18c40b354dd1d5d8936001600160a01b0393926128fe575b50506040519384521691602090a2565b6129149250803d1061063d5761062f818361253e565b38806128ee565b6129329150883d8a1161063d5761062f818361253e565b38612862565b9190823b156129cd577fffffffff00000000000000000000000000000000000000000000000000000000815160208093012016916040519180830193845281519160005b8381106129b95750505091816129a96024826000979596889701878382015203600481018452018261253e565b51915afa6129b56127d4565b9091565b81810183015185820160240152820161297c565b5050506000906040516129df81612522565b6000815290565b92916129f491600094612938565b9080612a17575b612a025750565b612575919250602080825183010191016125c2565b5060208151146129fb565b9291612a3091600094612938565b9080612a55575b612a3e5750565b90915060208180518101031261054a576020015190565b506020815114612a37565b90670de0b6b3a764000091828102928184041490151715612a7d57565b634e487b7160e01b600052601160045260246000fd5b81810292918115918404141715612a7d57565b612aaf90612a60565b602255565b929491949390936010841015612b27576125919560405195612ad5876124ce565b8652602086015260408501526060840152608083015260005260056020526040600020906080600491805184556020810151600185015560408101516002850155606081015160038501550151910155565b606460405162461bcd60e51b815260206004820152600d60248201527f696e76616c6964206c6576656c000000000000000000000000000000000000006044820152fd5b92612591959294919460405195612b81876124ce565b8652602086015260408501526060840152608083015260005260036020526040600020906080600491805184556020810151600185015560408101516002850155606081015160038501550151910155565b608061ff009162ff00009496959360405190612bee826124ce565b8282521515978860208301521515948560408301521515968760608301521515928391015260175560ff63ff0000006018549260181b1696169063ffffffff1916179160081b16179160101b161717601855565b15612c4957565b606460405162461bcd60e51b815260206004820152600c60248201527f696e76616c69642072616e6b00000000000000000000000000000000000000006044820152fd5b91600292939193612ca060088210612c42565b60405194612cad866124ad565b85526020850191825260408501928352600052600460205260406000209351845551600184015551910155565b612ce660088210612c42565b6000526002602052604060002055565b60405160e0810181811067ffffffffffffffff8211176124c957889160c0916040528381528460208201528560408201528660608201528760808201528860a08201520152600655600755600855600955600a55600b55600c55565b604051906080820182811067ffffffffffffffff8211176124c95760405260006060838281528260208201528260408201520152565b600290856060612d96612d52565b858152866020820152876040820152015260018114612dd1575b14612dbc575b50505050565b60115560125560135560145538808080612db6565b82600d5583600e5584600f5585601055612db0565b600290856060612df4612d52565b858152866020820152876040820152015260018114612e2e575b14612e195750505050565b602d55602e55602f5560305538808080612db6565b8260295583602a5584602b5585602c55612e0e565b90604051612e50816124ad565b60406002829480548452600181015460208501520154910152565b604051612e7781612522565b60008152906000368137565b60405190612e9082612506565b601282527f6f7a6f6e655072696365496e55534454282900000000000000000000000000006020830152565b8115612ec6570490565b634e487b7160e01b600052601260045260246000fdfea2646970667358221220017b8908b8cb71bf895b86e6843187e9cb28f2c45294b62e04cb18f1a790df8e64736f6c63430008140033","linkReferences":{}},"methodIdentifiers":{"rule741()":"0a5b38ab","transferRequest()":"3da8676f"},"id":69}