{"abi":[{"type":"constructor","inputs":[{"name":"_hex","type":"address","internalType":"address"}],"stateMutability":"nonpayable"},{"type":"function","name":"rule741","inputs":[],"outputs":[{"name":"","type":"address","internalType":"address"}],"stateMutability":"view"},{"type":"function","name":"transferRequest","inputs":[],"outputs":[{"name":"","type":"address","internalType":"address"}],"stateMutability":"view"}],"bytecode":{"object":"0x60803461012157601f61587f38819003918201601f19168301926001600160401b039290918385118386101761010b57816020928492604097885283398101031261012157516001600160a01b0390818116908190036101215783519061366291828101928184108685111761010b5761221d823981835260208160009403019083f09384156101015782549484166001600160a01b031995861617835585519161203d80840192848410908411176100ed579183916020936101e08439815203019082f09081156100e25750169060015416176001555160b990816101278239f35b8451903d90823e3d90fd5b634e487b7160e01b85526041600452602485fd5b85513d84823e3d90fd5b634e487b7160e01b600052604160045260246000fd5b600080fdfe6080806040526004361015601257600080fd5b600090813560e01c9081630a5b38ab14605d5750633da8676f14603457600080fd5b34605a5780600319360112605a576001546040516001600160a01b039091168152602090f35b80fd5b905034607f5781600319360112607f5790546001600160a01b03168152602090f35b5080fdfea26469706673582212200e4e7ed60455dc970c19778b1ffb6388aa33dc83e49181a2f78d12dec90364d864736f6c634300081400336080346100ca57601f61203d38819003918201601f19168301916001600160401b038311848410176100cf578084926020946040528339810103126100ca57516001600160a01b038116908190036100ca5780156100855760018060a01b03193381600154161760015560005416176000556001600355604051611f5790816100e68239f35b60405162461bcd60e51b815260206004820152601360248201527f6f776e2e696e76616c69642e68657862617365000000000000000000000000006044820152606490fd5b600080fd5b634e487b7160e01b600052604160045260246000fdfe60806040526004361015610018575b361561001657005b005b60003560e01c806312065fe01461019857806318c864e3146101935780631f185d161461018e5780633676bd1f146101895780633b9b795514610184578063479fa2c31461017f5780634ef260a91461017a5780638da5cb5b146101755780639fb3953b14610170578063a1f7f5391461016b578063ab7e46ae14610166578063ac23334514610161578063af4845261461015c578063b8f1759a14610157578063b90306ad14610152578063c1e6cec21461014d578063c54e44b014610148578063cab3cc8d14610143578063e01ad5fd1461013e578063e0a9bc2b14610139578063e846034a14610134578063e84adc131461012f578063e981bcad1461012a5763fdc10bc90361000e57610e5b565b610d9f565b610c14565b610bf6565b610b54565b610ab5565b610a97565b6109fb565b6109be565b6108f1565b6108a8565b610877565b61083e565b6107f5565b610723565b6105a8565b61057f565b6104bf565b610405565b6103dc565b61039e565b610296565b610229565b346101b45760003660031901126101b457602047604051908152f35b600080fd5b634e487b7160e01b600052603260045260246000fd5b6005548110156101ee57600560005260206000209060021b0190600090565b6101b9565b6001600160a01b031690565b6001600160a01b039182168152911660208201526040810191909152901515606082015260800190565b346101b45760203660031901126101b4576004356005548110156101b457610250906101cf565b5060018060a01b0361028181835416916001840154169260ff600360028301549201541690604051948594856101ff565b0390f35b6001600160a01b038116036101b457565b346101b4576020806003193601126101b4576004908135906102b782610285565b806102cb6102c66000546101f3565b6101f3565b604051634bf9c0ad60e11b815294859182905afa9182156103995761031061034a9361032c9261028196600092610366575b5061031e906040519384918783016103c9565b03601f198101845283610f8c565b610326611b09565b90611cdb565b91908061035c575b61033d90611b36565b80825183010191016119d8565b60405190151581529081906020820190565b5081518114610334565b61031e91925061038b90863d8811610392575b6103838183610f8c565b810190610ff5565b91906102fd565b503d610379565b61100d565b346101b45760203660031901126101b4576103b76118b2565b6103c26004356114cc565b6001600355005b6001600160a01b03909116815260200190565b346101b45760003660031901126101b4576000546040516001600160a01b039091168152602090f35b346101b45760203660031901126101b457600435801515806104b3575b1561047457610433610438916110f5565b6101cf565b5061044381546101f3565b61028161045360018401546101f3565b926104676003600283015492015460ff1690565b90604051948594856101ff565b60405162461bcd60e51b81526020600482015260176024820152761c1c9bdc1bdcd95c8b9a5b9d985b1a590b999bdc9b5a59604a1b6044820152606490fd5b50600554811115610422565b346101b45760203660031901126101b4576004356104dc81610285565b6001600160a01b039081166000818152600460205260408120549092919080151580610573575b61050b578380f35b600019810190811161056e57610520906101cf565b5050808352600460205260408320839055600654600160401b8110156105695780600161055092016006556107da565b909283549160031b92831b921b19161790553880808380f35b610eee565b6110df565b50600554811115610503565b346101b45760003660031901126101b4576001546040516001600160a01b039091168152602090f35b60803660031901126101b4576004356105c081610285565b6105c86118b2565b6105d66102c66000546101f3565b60405163ab6e844f60e01b815291906020908184600481845afa938415610399576000946106ff575b50816004916040519283809263de433f1760e01b82525afa9081156103995761065f9161063d916000916106e2575b506040519182918583016103c9565b0394610651601f1996878101845283610f8c565b61065961193a565b90611d59565b906001600160a01b038216610679575b6100166001600355565b604051636083c98560e11b918101919091526001600160a01b0390921660248084019190915235604480840191909152356064808401919091523560848301526106d8926106d3908360a481015b03908101845283610f8c565b611e46565b503880808061066f565b6106f99150843d8611610392576103838183610f8c565b3861062e565b600491945061071b8391823d8411610392576103838183610f8c565b9491506105ff565b346101b45760003660031901126101b45760005460405163d1f956b160e01b815290602090829060049082906001600160a01b03165afa90811561039957610281916107ac916000916107bc575b5060405161077e81610f56565b601381527267657464656c656761746f72436f756e74282960681b60208201526107a6610fca565b91611dd9565b6040519081529081906020820190565b6107d4915060203d8111610392576103838183610f8c565b38610771565b6006548110156101ee57600660005260206000200190600090565b346101b45760203660031901126101b4576004356006548110156101b4576006600052600080516020611f0283398151915201546040516001600160a01b039091168152602090f35b346101b45760203660031901126101b457602061086560043561086081610285565b611160565b6040516001600160a01b039091168152f35b346101b45760203660031901126101b457602061089e60043561089981610285565b611a66565b6040519015158152f35b346101b45760203660031901126101b4576004356006548110156101ee576006600052600080516020611f0283398151915201546040516001600160a01b039091168152602090f35b346101b45760203660031901126101b457600054604051630536340960e21b8152906001600160a01b03906020908390600490829085165afa91821561039957600092610984575b503391160361094d57610016600435611bdf565b60405162461bcd60e51b815260206004820152600f60248201526e6f776e2e6e6f6e617574682e44414f60881b6044820152606490fd5b61099d91925060203d8111610392576103838183610f8c565b9038610939565b6001600160a01b0316600090815260046020526040902090565b346101b45760203660031901126101b4576004356109db81610285565b60018060a01b031660005260046020526020604060002054604051908152f35b346101b45760203660031901126101b457600435610a1881610285565b803b6000610a2582610faf565b92610a336040519485610f8c565b82845260208401903c602d815110610a5c57602a61028191015160601c604051918291826103c9565b60405162461bcd60e51b81526020600482015260136024820152724e6f742061206d696e696d616c2070726f787960681b6044820152606490fd5b346101b45760003660031901126101b4576020600554604051908152f35b346101b4576020806003193601126101b45760048035610ad481610285565b60005460405163d1f956b160e01b81526001600160a01b03949093909182918591829088165afa908115610399576102819461034a94600093610b35575b506040519316818401528252610b2782610f56565b610b2f611b7b565b90611d9d565b610b4d919350823d8411610392576103838183610f8c565b9138610b12565b346101b45760003660031901126101b457600054604051634bf9c0ad60e11b8152906020908190839060049082906001600160a01b03165afa90811561039957610bbe61034a9261028194600091610bd9575b50610bb061196c565b610bb8610fca565b91611cdb565b919080610bcf575b61033d90611990565b5081518114610bc6565b610bf09150833d8511610392576103838183610f8c565b38610ba7565b346101b45760003660031901126101b4576020600654604051908152f35b346101b4576040806003193601126101b45760043590610c3382610285565b6001600160a01b03821615610d67576000913383526020916004835280842054610d2f57610c6a610c62610f04565b509283610f37565b60046001830193610c7b3386610f37565b610c83610fdd565b81610c916102c689546101f3565b8551630536340960e21b815294859182905afa92831561039957600294610cf294610ce593610310938b92610d0e575b506106d3919251938491630ffa734f60e41b8884015260243590306024850161103c565b80518101820191016110d0565b910155610d0a610d0560055492546101f3565b6109a4565b5580f35b6106d39250610d2990873d8911610392576103838183610f8c565b91610cc1565b5162461bcd60e51b815260048101839052601260248201527170726f706f7365722e746f2e65786973747360701b6044820152606490fd5b5162461bcd60e51b815260206004820152601260248201527137bbb7173232b330bab63a1739b2b73232b960711b6044820152606490fd5b346101b45760403660031901126101b457610db86118b2565b610dc9610dc430611a66565b6112b5565b60046020610ddb6102c66000546101f3565b60405163ab6e844f60e01b815292839182905afa801561039957610e3291600091610e3d575b506040516333b59a5b60e01b6020820152600435602480830191909152356044820152906106d38260648101610310565b506100166001600355565b610e55915060203d8111610392576103838183610f8c565b38610e01565b346101b45760003660031901126101b45760005460405163111ea8c160e21b815290602090829060049082906001600160a01b03165afa90811561039957610281916107ac91600091610ed0575b50604051610eb681610f56565b6005815264616765282960d81b60208201526107a6610fca565b610ee8915060203d8111610392576103838183610f8c565b38610ea9565b634e487b7160e01b600052604160045260246000fd5b600554600160401b8110156105695760018101806005558110156101ee57600560005260206000209060021b0190600090565b80546001600160a01b0319166001600160a01b03909216919091179055565b604081019081106001600160401b0382111761056957604052565b602081019081106001600160401b0382111761056957604052565b601f909101601f19168101906001600160401b0382119082101761056957604052565b6001600160401b03811161056957601f01601f191660200190565b60405190610fd782610f71565b60008252565b604051610fe981610f71565b60008152906000368137565b908160209103126101b4575161100a81610285565b90565b6040513d6000823e3d90fd5b60005b83811061102c5750506000910152565b818101518382015260200161101c565b60009260a09295949560c08352602660c08401527f547269676765722e496e7374616e63652e70726f706f73616c2e55736572547260e08401526530b739b332b960d11b610100840152600180851b03166020830152836040830152610120806060840152815180918401526110bc816101409360208587019101611019565b601f80199101168201019460808201520152565b908160209103126101b4575190565b634e487b7160e01b600052601160045260246000fd5b60001981019190821161056e57565b6040519061111182610f56565b60128252716765745374617475732875696e743235362960701b6020830152565b519081151582036101b457565b91908260409103126101b45761100a602061115984611132565b9301611132565b611169906109a4565b548015158061125e575b1561125857610433611184916110f5565b50600381015460ff1661124e5761119f6102c66000546101f3565b6040518091630536340960e21b825281600460209384935afa8015610399576103106111fb9161120894600091611231575b506111ed60028701546040519384918783019190602083019252565b6111f5611104565b90611cb0565b805181018201910161113f565b81929192611229575b50600091156112255761100a9150546101f3565b5090565b915038611211565b6112489150843d8611610392576103838183610f8c565b386111d1565b61100a90546101f3565b50600090565b50600554811115611173565b1561127157565b60405162461bcd60e51b815260206004820152601c60248201527b1d5d1a5b1a5d1e4b98985d18da0b9b1a5b5a5d0b995e18d95959195960221b6044820152606490fd5b156112bc57565b60405162461bcd60e51b81526020600482015260176024820152761d5d1a5b1a5d1e4b9d5b9cd958dd5c994b99985a5b1959604a1b6044820152606490fd5b6040519061130882610f56565b600f82526e6765744e6f646573436f756e74282960881b6020830152565b1561132d57565b60405162461bcd60e51b81526020600482015260136024820152727574696c6974792e696d706f72742e646f6e6560681b6044820152606490fd5b9190820180921161056e57565b600019811461056e5760010190565b6040519061139182610f56565b60178252766765744e6f64654279496e6465782875696e743235362960481b6020830152565b156113be57565b60405162461bcd60e51b815260206004820152601660248201527570726f78792e696e76616c69642e696e7374616e636560501b6044820152606490fd5b6040519061140982610f56565b6013825272496e7374546f5573657228616464726573732960681b6020830152565b1561143257565b60405162461bcd60e51b815260206004820152601260248201527170726f78792e696e76616c69642e6e6f646560701b6044820152606490fd5b6040519061147982610f56565b601082526f6765744e6f646528616464726573732960801b6020830152565b908160a09103126101b45780519160208201516114b481610285565b9160408101519161100a608061115960608501611132565b6114d9606482111561126a565b6114e5610dc430611a66565b6000906114f56102c683546101f3565b6040805163111ea8c160e21b808252600495939092916020919082818981855afa80156103995761153f91879161189b575b50611530610fdd565b906115396112fb565b90611dd9565b95861561189157835183818a8163ab6e844f60e01b968782525afa9081156103995761158a916115789189916118745750611530610fdd565b91611584838a11611326565b82611368565b9680881161186c575b505b8681106115a6575050505050505050565b6115b36102c687546101f3565b90845186815284818b81865afa928315610399578a91899461184d575b506116048751806115e8868a83019190602083019252565b03956115fc601f1997888101845283610f8c565b610659611384565b6001600160a01b039061161a81831615156113b7565b87895180958c825281865afa93841561039957818a8f968b8f946116669592611828575b5061165261165e92935194859283016103c9565b038a8101845283610f8c565b6106596113fc565b92611674838516151561142b565b888a5180968d825281845afa8015610399576116d68f966116b48f6001948f91978f98946116c89592611807575b506116c09192519384918a83016103c9565b038d8101845283610f8c565b6111f561146c565b848082518301019101611498565b50505094909416936116e981151561142b565b1480156117fe575b611793575b505061170282806118d5565b866117106102c68c546101f3565b8951948580928a82525afa80156103995761176d95611767948c92611772575b5089516350db85d160e01b8a8201526001600160a01b039384166024820152939092166044840152906106d39083606481016106c7565b50611375565b611595565b6106d3925061178d908a3d8c11610392576103838183610f8c565b91611730565b8951948580928d82525afa928315610399578c936117d4926117c8928d926117db575b5061165e908b519384918c83016103c9565b03888101845283610f8c565b86386116f6565b61165e9192506117f7908b3d8d11610392576103838183610f8c565b91906117b6565b508215156116f1565b6116c09250611822908a3d8c11610392576103838183610f8c565b916116a2565b61165e925061184661165291833d8511610392576103838183610f8c565b925061163e565b611865919450863d8811610392576103838183610f8c565b92386115d0565b965038611593565b61188b9150863d8811610392576103838183610f8c565b38611527565b5050505050505050565b61188b9150843d8611610392576103838183610f8c565b6002600354146118c3576002600355565b604051633ee5aeb560e01b8152600490fd5b60055490600160401b821015610569576119026118fa836001600395016005556101cf565b509182610f37565b61190f8360018301610f37565b01805460ff191660011790556005546001600160a01b03909116600090815260046020526040902055565b6040519061194782610f56565b601682527567657455736572546f496e737428616464726573732960501b6020830152565b6040519061197982610f56565b6008825267697353616665282960c01b6020830152565b1561199757565b60405162461bcd60e51b81526020600482015260196024820152781bdddb8b9cd8599959dd585c990b98d85b1b0b99985a5b1959603a1b6044820152606490fd5b908160209103126101b45761100a90611132565b604051906119f982610f56565b601582527469735365637572654261736528616464726573732960581b6020830152565b15611a2457565b60405162461bcd60e51b815260206004820152601a6024820152791bdddb8b9cd958dd5c9958985cd94b98d85b1b0b99985a5b195960321b6044820152606490fd5b600054611a7b906001600160a01b03166101f3565b604051918291634bf9c0ad60e11b835282600460209485935afa9283156103995761100a93611acb9261031092600092611ae6575b50611ac3906040519384918783016103c9565b6103266119ec565b919080611adc575b61033d90611a1d565b5081518114611ad3565b611ac3919250611b0290863d8811610392576103838183610f8c565b9190611ab0565b60405190611b1682610f56565b601182527069735369676e657228616464726573732960781b6020830152565b15611b3d57565b60405162461bcd60e51b81526020600482015260166024820152751bdddb8b9cda59db995c8b98d85b1b0b99985a5b195960521b6044820152606490fd5b60405190611b8882610f56565b6018825277697364656c656761746f724e6f646528616464726573732960401b6020830152565b3d15611bda573d90611bc082610faf565b91611bce6040519384610f8c565b82523d6000602084013e565b606090565b600080546040516311be646b60e21b815290602090829060049082906001600160a01b03165afa908115610399578284819382938391611c92575b505af1611c25611baf565b5015611c5b5760405190815233907fcdcc745fe377b103b45fa0cec23ae3ef93d6fc6a84a01f0d18c40b354dd1d5d890602090a2565b60405162461bcd60e51b815260206004820152600f60248201526e1bdddb8b989d5c9b8b99985a5b1959608a1b6044820152606490fd5b611caa915060203d8111610392576103838183610f8c565b38611c1a565b90611cbb9291611cdb565b9060009015611cc8575090565b6040519150611cd682610f71565b815290565b803b15611d4057600092839263ffffffff60e01b90602081519101201690611d2d6024604051809360208201958652611d1d8151809260208686019101611019565b8101036004810184520182610f8c565b5191620dbba0fa611d3c611baf565b9091565b505050600090604051611d5281610f71565b6000815290565b9291611d6791600094611cdb565b9080611d92575b611d755750565b9091506020818051810103126101b457602001516101f381610285565b506020815114611d6e565b9291611dab91600094611cdb565b9080611dce575b611db95750565b61100a919250602080825183010191016119d8565b506020815114611db2565b9291611de791600094611cdb565b9080611e0a575b611df55750565b61100a919250602080825183010191016110d0565b506020815114611dee565b906020825192015163ffffffff60e01b908181169360048110611e3757505050565b60040360031b82901b16169150565b6001600160a01b03811615611ec757600080918351908260208601915af190611e6d611baf565b9115611e77575090565b805160009190600411611ec157611e8e9150611e15565b815115611e9e5750805190602001fd5b604051630870274d60e21b81526001600160e01b03199091166004820152602490fd5b50611e8e565b60405162461bcd60e51b81526020600482015260126024820152711bdddb8b9a5b9d985b1a590b9d185c99d95d60721b6044820152606490fdfef652222313e28459528d920b65115c16c04f3efc82aaedc97be59f3f377c0d3fa2646970667358221220f55b7f1b321aa3eeae9f4d6d120edf9879b467d45143afe5dd6229fd0f9a398264736f6c63430008140033608034620009cd57601f6200366238819003918201601f19168301916001600160401b03831184841017620009d257808492602094604052833981010312620009cd57516001600160a01b03811690819003620009cd578015620009885760018060a01b031933816001541617600155600054161760005560a760145561010e60155560b4601655601e601a556001601b556001601c556002601d5561c350601e55610258601f556003602055601960215568878678326eac900000602255670de0b6b3a764000060235569021e19e0c9bab240000060245560016025556005602e5560ff19602f5416602f5561025860c0620000fb62000a28565b6002815260646020820152600160408201526023606082015260646080820152600160a082015201526002600755606460085560016009556023600a556064600b556001600c55610258600d55605a60406200015662000a71565b60198152600a602082015201526019600e55600a600f55605a60105560406200017e62000a71565b6005815260016020820152610168918291015260056011556001601255601355600160a0620001ac62000a28565b600481528260208201528260408201528260608201528260808201528260c0820152015260046017556501010101010165ffffffffffff196018541617601855620001f662000aab565b610258606061014092838152600b6020820152600a60408201520152602655600b602755600a60285561025860295561025860606200023462000aab565b60d28152600b6020820152600a6040820152015260d2602a55600b602b55600a602c55610258602d55620002a06200026b620009e8565b6000815260006020820152600060408201526000606082015261270f6080820152600080526004602052604060002062000ae1565b620002e4620002ae620009e8565b6007815260196020820152600060408201526000606082015261270f608082015260016000526004602052604060002062000ae1565b62000328620002f2620009e8565b6007815260646020820152600060408201526000606082015261270f608082015260026000526004602052604060002062000ae1565b6200036c62000336620009e8565b600781526101f460208201526003604082015260006060820152601e608082015260036000526004602052604060002062000ae1565b620003b06200037a620009e8565b600781526107d060208201526004604082015260006060820152601e608082015260046000526004602052604060002062000ae1565b620003f5620003be620009e8565b600781526113886020820152600460408201526004606082015261270f608082015260056000526004602052604060002062000ae1565b6200043a62000403620009e8565b600781526127106020820152600460408201526004606082015261270f608082015260066000526004602052604060002062000ae1565b6200047f62000448620009e8565b600781526161a86020820152600460408201526004606082015261270f608082015260076000526004602052604060002062000ae1565b620004c26200048d620009e8565b600081526006602082015260016040820152600560608201526001608082015260016000526006602052604060002062000ae1565b62000505620004d0620009e8565b600081526003602082015260016040820152600560608201526001608082015260026000526006602052604060002062000ae1565b6200054862000513620009e8565b60028152600f6020820152600a6040820152600560608201526001608082015260036000526006602052604060002062000ae1565b6200058b62000556620009e8565b60028152600f6020820152600a6040820152600560608201526001608082015260046000526006602052604060002062000ae1565b620005ce62000599620009e8565b60028152600f6020820152600a6040820152600560608201526001608082015260056000526006602052604060002062000ae1565b62000611620005dc620009e8565b60028152604b60208201526064604082015260fa60608201526064608082015260066000526006602052604060002062000ae1565b620006546200061f620009e8565b60028152604b60208201526064604082015260fa60608201526064608082015260076000526006602052604060002062000ae1565b6200069762000662620009e8565b60028152604b60208201526064604082015260fa60608201526064608082015260086000526006602052604060002062000ae1565b620006da620006a5620009e8565b60028152604b60208201526064604082015260fa60608201526064608082015260096000526006602052604060002062000ae1565b6200071d620006e8620009e8565b60028152604b60208201526064604082015260fa606082015260646080820152600a6000526006602052604060002062000ae1565b620007606200072b620009e8565b60028152604b60208201526064604082015260fa606082015260646080820152600b6000526006602052604060002062000ae1565b620007a36200076e620009e8565b60028152604b60208201526064604082015260fa606082015260646080820152600c6000526006602052604060002062000ae1565b620007e6620007b1620009e8565b60028152604b60208201526064604082015260fa606082015260646080820152600d6000526006602052604060002062000ae1565b62000829620007f4620009e8565b60028152604b60208201526064604082015260fa606082015260646080820152600e6000526006602052604060002062000ae1565b6200086c62000837620009e8565b60028152604b60208201526064604082015260fa606082015260646080820152600f6000526006602052604060002062000ae1565b620008a16200087a62000a08565b60128152600a6020820152602d604082015260036000526005602052604060002062000a90565b620008d6620008af62000a08565b60128152600a6020820152605a604082015260056000526005602052604060002062000a90565b6200090c620008e462000a08565b60098152600a602082015261270f604082015260076000526005602052604060002062000a90565b600360205260327fc3a24b0501bd2c13a7e57f2db4369ec4c223447539fc0724a9d55ac4a06ebd4d5560046000526101f47f83ec6a1f0257b830b5e016457c9cf1435391bf56cc98f369a58a54fe937724655560056010819055600a601381905560a7601455601555601655604051612b51908162000b118239f35b60405162461bcd60e51b815260206004820152601360248201527f6f776e2e696e76616c69642e68657862617365000000000000000000000000006044820152606490fd5b600080fd5b634e487b7160e01b600052604160045260246000fd5b6040519060a082016001600160401b03811183821017620009d257604052565b60405190606082016001600160401b03811183821017620009d257604052565b6040519060e082016001600160401b03811183821017620009d2576040528160c06000918281528260208201528260408201528260608201528260808201528260a08201520152565b62000a7b62000a08565b90600082526000602083015260006040830152565b90604060029180518455602081015160018501550151910155565b60405190608082016001600160401b03811183821017620009d25760405260006060838281528260208201528260408201520152565b90608060049180518455602081015160018501556040810151600285015560608101516003850155015191015556fe60806040526004361015610018575b361561001657005b005b60003560e01c806304ce9f80146104185780630609a0e31461041357806307175c831461040e57806309307c62146104095780630a22e3aa146104045780630b225f1a146103ff5780630ea0d222146103fa57806312065fe0146103f557806314be92a5146103f057806315a544ed146103eb5780631605aed9146103e657806316f0115b146103e1578063192b48ee146103dc5780631ef6a864146103d75780631f185d16146103d257806326c5adae146103cd57806326fcdebd146103c8578063298fc460146103c35780633688236d146103be5780633b9b7955146103b95780634151331d146103b4578063438fe192146103af57806344ec16bc146103aa5780634b62954f146103a557806353423e86146103a0578063541d76671461039b57806354541683146103965780635640dbfc14610391578063592a02a81461038c5780635962205f146103875780635a0e9038146103825780636b81c82f1461037d5780636c7deb5d146103785780636f092c5e146103735780637687e3711461036e57806378ef376f146103695780637bc908c6146103645780638da5cb5b1461035f57806391fc8aa81461035a5780639319d0b514610355578063991bf5cc146103505780639d80ab9b1461034b5780639eb8b44e146103465780639f70207d14610341578063a19841dd1461033c578063a1f7f53914610337578063a88fcea614610332578063aebcd32a1461032d578063af0b21d314610328578063af48452614610323578063b49c064c1461031e578063b85f1f8d14610319578063b90306ad14610314578063c54e44b01461030f578063c5a136d41461030a578063dbad649c14610305578063e01ad5fd14610300578063e0a9bc2b146102fb578063eddd0d9c146102f6578063f27c35c6146102f1578063f2a6bbc7146102ec578063f4fe8e3c146102e7578063fc0e74d1146102e25763fdc10bc90361000e5761210a565b6120e7565b61203d565b611f96565b611eba565b611e13565b611df8565b611d59565b611d3b565b611c4d565b611bb1565b611afe565b611ad4565b611ab1565b611a80565b611a62565b611a19565b6119fb565b611954565b611926565b611908565b611745565b6116d2565b6115da565b611533565b611515565b6114ec565b6114ce565b611427565b611363565b611337565b611290565b6111b6565b61116e565b611125565b610fed565b610f5a565b610f3c565b610ec8565b610eab565b610dfe565b610d57565b610d39565b610cfd565b610cbe565b610c8d565b610bc9565b610ba1565b610ae7565b6109fa565b610936565b61088f565b61083e565b610820565b610802565b61075b565b61073f565b610721565b610703565b610650565b6105a3565b610585565b6104c4565b610439565b9094939260609260808301968352602083015260408201520152565b346104bf5760403660031901126104bf5760043560009060008060243560145411156000146104b657601554925b600181146104a0575b60021461048d575b90610489916040519485948561041d565b0390f35b5050601154601254601354919350610478565b600e54600f546010549196509093509150610470565b60165492610467565b600080fd5b346104bf5760203660031901126104bf576104e56104e0612320565b61279d565b6104ee33612448565b8015610509575b6104fe906127de565b610016600435601a55565b50600054604051630536340960e21b8152906001600160a01b03906020908390600490829085165afa908115610580576104fe92600092610550575b5016331490506104f5565b61057291925060203d8111610579575b61056a818361223f565b810190612262565b9038610545565b503d610560565b61227a565b346104bf5760003660031901126104bf576020602154604051908152f35b346104bf5760403660031901126104bf576105bf6104e0612320565b6105c833612448565b80156105e9575b6105d8906127de565b610016602435600435602355602455565b50600054604051630536340960e21b8152906001600160a01b03906020908390600490829085165afa908115610580576105d892600092610630575b5016331490506105cf565b61064991925060203d81116105795761056a818361223f565b9038610625565b346104bf5760603660031901126104bf5761066c6104e0612320565b61067533612448565b801561069c575b610685906127de565b610016604435602435600435601455601555601655565b50600054604051630536340960e21b8152906001600160a01b03906020908390600490829085165afa90811561058057610685926000926106e3575b50163314905061067c565b6106fc91925060203d81116105795761056a818361223f565b90386106d8565b346104bf5760003660031901126104bf576020602e54604051908152f35b346104bf5760003660031901126104bf576020601f54604051908152f35b346104bf5760003660031901126104bf57602047604051908152f35b346104bf5760203660031901126104bf576107776104e0612320565b61078033612448565b801561079b575b610790906127de565b610016600435601f55565b50600054604051630536340960e21b8152906001600160a01b03906020908390600490829085165afa90811561058057610790926000926107e2575b501633149050610787565b6107fb91925060203d81116105795761056a818361223f565b90386107d7565b346104bf5760003660031901126104bf576020602454604051908152f35b346104bf5760003660031901126104bf576020602354604051908152f35b346104bf5760003660031901126104bf5760e0600754600854600954600a54600b5490600c5492600d5494604051968752602087015260408601526060850152608084015260a083015260c0820152f35b346104bf5760203660031901126104bf576108ab6104e0612320565b6108b433612448565b80156108cf575b6108c4906127de565b61001660043561286e565b50600054604051630536340960e21b8152906001600160a01b03906020908390600490829085165afa908115610580576108c492600092610916575b5016331490506108bb565b61092f91925060203d81116105795761056a818361223f565b903861090b565b346104bf5760a03660031901126104bf576109526104e0612320565b61095b33612448565b8015610982575b61096b906127de565b610016608435606435604435602435600435612a40565b50600054604051630536340960e21b8152906001600160a01b03906020908390600490829085165afa9081156105805761096b926000926109c9575b501633149050610962565b6109e291925060203d81116105795761056a818361223f565b90386109be565b6001600160a01b038116036104bf57565b346104bf576020806003193601126104bf57600490813590610a1b826109e9565b60005481906001600160a01b0316604051634bf9c0ad60e11b815294859182905afa91821561058057610a6e610aa893610a8a9261048996600092610ac4575b50610a7c90604051938491878301610cab565b03601f19810184528361223f565b610a846124e2565b90612689565b919080610aba575b610a9b9061250f565b808251830101910161230b565b60405190151581529081906020820190565b5081518114610a92565b610a7c919250610ae090863d88116105795761056a818361223f565b9190610a5b565b346104bf5760203660031901126104bf576000546040516369e8d84b60e11b815290602090829060049082906001600160a01b03165afa801561058057610b4f610b739161048993600091610b83575b50610b40612ab5565b90610b49612acd565b9061275f565b610b6e60043591610b69610b64602154612828565b612828565b612afb565b61285b565b6040519081529081906020820190565b610b9b915060203d81116105795761056a818361223f565b38610b37565b346104bf5760003660031901126104bf576020601654604051908152f35b801515036104bf57565b346104bf5760203660031901126104bf57600435610be681610bbf565b610bf16104e0612320565b610bfa33612448565b8015610c20575b90610c0e610016926127de565b60ff8019602f54169115151617602f55565b50600054604051630536340960e21b81526001600160a01b0392916020908290600490829087165afa80156105805761001693610c0e92600092610c6d575b503391161491925050610c01565b610c8691925060203d81116105795761056a818361223f565b9038610c5f565b346104bf5760003660031901126104bf576020601e54604051908152f35b6001600160a01b03909116815260200190565b346104bf5760003660031901126104bf576000546040516001600160a01b039091168152602090f35b6040919493926060820195825260208201520152565b346104bf5760203660031901126104bf576004356000526005602052604060002080546104896002600184015493015460405193849384610ce7565b346104bf5760003660031901126104bf576020601c54604051908152f35b346104bf5760203660031901126104bf57610d736104e0612320565b610d7c33612448565b8015610d97575b610d8c906127de565b610016600435601b55565b50600054604051630536340960e21b8152906001600160a01b03906020908390600490829085165afa90811561058057610d8c92600092610dde575b501633149050610d83565b610df791925060203d81116105795761056a818361223f565b9038610dd3565b346104bf5760403660031901126104bf57610e1a6104e0612320565b610e2333612448565b8015610e44575b610e33906127de565b610016602435600435601d55601e55565b50600054604051630536340960e21b8152906001600160a01b03906020908390600490829085165afa90811561058057610e3392600092610e8b575b501633149050610e2a565b610ea491925060203d81116105795761056a818361223f565b9038610e80565b346104bf5760003660031901126104bf5760208054604051908152f35b346104bf5760203660031901126104bf576000546040516369e8d84b60e11b815290602090829060049082906001600160a01b03165afa801561058057610f20610b739161048993600091610b835750610b40612ab5565b6004356000526003602052610b69610b64604060002054612828565b346104bf5760003660031901126104bf576020601b54604051908152f35b346104bf5760003660031901126104bf5760e060175460185460405191825260ff9081811615156020840152818160081c1615156040840152818160101c1615156060840152818160181c1615156080840152818160201c16151560a084015260281c16151560c0820152f35b60c09060031901126104bf57600435906024359060443590606435906084359060a43590565b346104bf57610ffb36610fc7565b9161100a6104e0969496612320565b61101333612448565b801561109a575b611023906127de565b601084101561106557610016956040519561103d876121b3565b865260208601526040850152606084015260808301526000526006602052604060002061287c565b60405162461bcd60e51b815260206004820152600d60248201526c1a5b9d985b1a59081b195d995b609a1b6044820152606490fd5b50600054604051630536340960e21b8152906001600160a01b03906020908390600490829085165afa90811561058057611023926000926110e1575b50163314905061101a565b6110fa91925060203d81116105795761056a818361223f565b90386110d6565b9192608093969594919660a084019784526020840152604083015260608201520152565b346104bf5760203660031901126104bf57600435600052600660205260406000208054610489600183015492600281015490600460038201549101549160405195869586611101565b346104bf5760003660031901126104bf57600e54600f549061048960105460405193849384610ce7565b60809060031901126104bf5760043590602435906044359060643590565b346104bf576111c436611198565b926111d36104e0939293612320565b6111dc33612448565b8015611224575b906111ef6002926127de565b6111f76129f9565b5060018114611213575b1461120857005b601155601255601355005b82600e5583600f5584601055611201565b50600054604051630536340960e21b81526001600160a01b0392916020908290600490829087165afa8015610580576002936111ef92600092611270575b5033911614919250506111e3565b61128991925060203d81116105795761056a818361223f565b9038611262565b346104bf5760203660031901126104bf576112ac6104e0612320565b6112b533612448565b80156112d0575b6112c5906127de565b610016600435602055565b50600054604051630536340960e21b8152906001600160a01b03906020908390600490829085165afa908115610580576112c592600092611317575b5016331490506112bc565b61133091925060203d81116105795761056a818361223f565b903861130c565b346104bf5760203660031901126104bf5760043560005260036020526020604060002054604051908152f35b346104bf5760203660031901126104bf5760043561138081610bbf565b61138b6104e0612320565b61139433612448565b80156113ba575b906113a8610016926127de565b60ff8019601954169115151617601955565b50600054604051630536340960e21b81526001600160a01b0392916020908290600490829087165afa801561058057610016936113a892600092611407575b50339116149192505061139b565b61142091925060203d81116105795761056a818361223f565b90386113f9565b346104bf5760203660031901126104bf576114436104e0612320565b61144c33612448565b8015611467575b61145c906127de565b610016600435602555565b50600054604051630536340960e21b8152906001600160a01b03906020908390600490829085165afa9081156105805761145c926000926114ae575b501633149050611453565b6114c791925060203d81116105795761056a818361223f565b90386114a3565b346104bf5760003660031901126104bf576020602554604051908152f35b346104bf5760003660031901126104bf576001546040516001600160a01b039091168152602090f35b346104bf5760003660031901126104bf576020602254604051908152f35b346104bf5760203660031901126104bf5761154f6104e0612320565b61155833612448565b8015611573575b611568906127de565b610016600435601c55565b50600054604051630536340960e21b8152906001600160a01b03906020908390600490829085165afa90811561058057611568926000926115ba575b50163314905061155f565b6115d391925060203d81116105795761056a818361223f565b90386115af565b346104bf5760e03660031901126104bf576024356115f781610bbf565b60443561160381610bbf565b60643561160f81610bbf565b60843561161b81610bbf565b60a4359161162883610bbf565b60c4359361163585610bbf565b6116406104e0612320565b61164933612448565b8015611665575b9561165d610016976127de565b6004356128ab565b50600054604051630536340960e21b81526001600160a01b039791602090829060049082908c165afa8015610580576100169861165d926000926116b2575b503391161491975050611650565b6116cb91925060203d81116105795761056a818361223f565b90386116a4565b346104bf5760003660031901126104bf5760265460275490610489602854602954906040519485948561041d565b6102a0810192916000915b6007831061171857505050565b6001906060835191825181526020928381015184830152604080910151908201520192019201919061170b565b346104bf5760003660031901126104bf57604051611762816121d3565b60005b60e081106118f357610489611778612286565b600160005260056020526117b07f1471eb6eb2c5e789fc3de43f8ce62938c7d1836ec861730447e2ada8fd81017b612a18565b612a18565b8152600260005260056020526117e57f89832631fb3c3307a103ba2c84ab569c64d6182a18893dcd163f0f1c2090733a612a18565b60208201526118026117ab60036000526005602052604060002090565b60408201526004600052600560205261183a7f3eec716f11ba9e820c81ca75eb978ffb45831ef8b7a53e5e422c26008e1ca6d5612a18565b6060820152600560008190526020526118727f458b30c2d72bfd2c6317304a4594ecbafe5f729d3111b65fdc3a33bd48e5432d612a18565b6080820152600660005260056020526118aa7f069400f22b28c6c362558d92f66163cec5671cba50b61abd2eecfcd0eaeac518612a18565b60a0820152600760005260056020526118e27feddb6698d7c569ff62ff64f1f1492bf14a54594835ba0faac91f84b4f5d81460612a18565b60c082015260405191829182611700565b6020906118fe6129f9565b8184015201611765565b346104bf5760003660031901126104bf576020601454604051908152f35b346104bf5760003660031901126104bf57602a54602b5490610489602c54602d54906040519485948561041d565b346104bf5760003660031901126104bf5760005460405163d1f956b160e01b815290602090829060049082906001600160a01b03165afa9081156105805761048991610b73916000916119dd575b506040516119af81612209565b601381527267657464656c656761746f72436f756e74282960681b60208201526119d76122b0565b9161275f565b6119f5915060203d81116105795761056a818361223f565b386119a2565b346104bf5760003660031901126104bf576020601d54604051908152f35b346104bf5760203660031901126104bf57600435600052600460205260406000208054610489600183015492600281015490600460038201549101549160405195869586611101565b346104bf5760003660031901126104bf576020601a54604051908152f35b346104bf5760203660031901126104bf576020611aa7600435611aa2816109e9565b612448565b6040519015158152f35b346104bf5760003660031901126104bf57602060ff602f54166040519015158152f35b346104bf5760003660031901126104bf576011546012549061048960135460405193849384610ce7565b346104bf5760203660031901126104bf57600054604051630536340960e21b8152906001600160a01b03906020908390600490829085165afa91821561058057600092611b91575b5033911603611b5a576100166004356125b8565b60405162461bcd60e51b815260206004820152600f60248201526e6f776e2e6e6f6e617574682e44414f60881b6044820152606490fd5b611baa91925060203d81116105795761056a818361223f565b9038611b46565b346104bf5760203660031901126104bf57600435611bce816109e9565b803b6000611bdb82612295565b92611be9604051948561223f565b82845260208401903c602d815110611c1257602a61048991015160601c60405191829182610cab565b60405162461bcd60e51b81526020600482015260136024820152724e6f742061206d696e696d616c2070726f787960681b6044820152606490fd5b346104bf57611c5b36611198565b90611c6a6104e0949394612320565b611c7333612448565b8015611ccf575b92611c866002946127de565b611c92600882106129a2565b60405194611c9f866121ee565b85526020850191825260408501928352600052600560205260406000209351845551600184015551910155600080f35b50600054604051630536340960e21b81526001600160a01b0394916020908290600490829089165afa801561058057600295611c8692600092611d1b575b503391161491945050611c7a565b611d3491925060203d81116105795761056a818361223f565b9038611d0d565b346104bf5760003660031901126104bf576020601554604051908152f35b346104bf576020806003193601126104bf5760048035611d78816109e9565b60005460405163d1f956b160e01b81526001600160a01b03949093909182918591829088165afa9081156105805761048994610aa894600093611dd9575b506040519316818401528252611dcb82612209565b611dd3612554565b90612723565b611df1919350823d84116105795761056a818361223f565b9138611db6565b346104bf5760003660031901126104bf576020611aa7612320565b346104bf5760203660031901126104bf57611e2f6104e0612320565b611e3833612448565b8015611e53575b611e48906127de565b610016600435602155565b50600054604051630536340960e21b8152906001600160a01b03906020908390600490829085165afa90811561058057611e4892600092611e9a575b501633149050611e3f565b611eb391925060203d81116105795761056a818361223f565b9038611e8f565b346104bf57611ec836610fc7565b91611ed76104e0969496612320565b611ee033612448565b8015611f29575b95611ef4610016976127de565b60405195611f01876121b3565b865260208601526040850152606084015260808301526000526004602052604060002061287c565b50600054604051630536340960e21b81526001600160a01b039791602090829060049082908c165afa80156105805761001698611ef492600092611f76575b503391161491975050611ee7565b611f8f91925060203d81116105795761056a818361223f565b9038611f68565b346104bf5760203660031901126104bf57611fb26104e0612320565b611fbb33612448565b8015611fd6575b611fcb906127de565b610016600435602e55565b50600054604051630536340960e21b8152906001600160a01b03906020908390600490829085165afa90811561058057611fcb9260009261201d575b501633149050611fc2565b61203691925060203d81116105795761056a818361223f565b9038612012565b346104bf5760403660031901126104bf576120596104e0612320565b61206233612448565b8015612080575b612072906127de565b6100166024356004356129dd565b50600054604051630536340960e21b8152906001600160a01b03906020908390600490829085165afa90811561058057612072926000926120c7575b501633149050612069565b6120e091925060203d81116105795761056a818361223f565b90386120bc565b346104bf5760003660031901126104bf57602060ff601954166040519015158152f35b346104bf5760003660031901126104bf5760005460405163111ea8c160e21b815290602090829060049082906001600160a01b03165afa9081156105805761048991610b739160009161217f575b5060405161216581612209565b6005815264616765282960d81b60208201526119d76122b0565b612197915060203d81116105795761056a818361223f565b38612158565b634e487b7160e01b600052604160045260246000fd5b60a081019081106001600160401b038211176121ce57604052565b61219d565b60e081019081106001600160401b038211176121ce57604052565b606081019081106001600160401b038211176121ce57604052565b604081019081106001600160401b038211176121ce57604052565b602081019081106001600160401b038211176121ce57604052565b601f909101601f19168101906001600160401b038211908210176121ce57604052565b908160209103126104bf5751612277816109e9565b90565b6040513d6000823e3d90fd5b60405190612293826121d3565b565b6001600160401b0381116121ce57601f01601f191660200190565b604051906122bd82612224565b60008252565b156122ca57565b60405162461bcd60e51b81526020600482015260196024820152781bdddb8b9cd8599959dd585c990b98d85b1b0b99985a5b1959603a1b6044820152606490fd5b908160209103126104bf575161227781610bbf565b600054604051634bf9c0ad60e11b8152906020908190839060049082906001600160a01b03165afa9182156105805761227792612396916000916123b1575b5060405161236c81612209565b6008815267697353616665282960c01b848201526040519161238d83612224565b60008352612689565b9190806123a7575b610a9b906122c3565b508151811461239e565b6123c89150833d85116105795761056a818361223f565b3861235f565b604051906123db82612209565b601582527469735365637572654261736528616464726573732960581b6020830152565b1561240657565b60405162461bcd60e51b815260206004820152601a6024820152791bdddb8b9cd958dd5c9958985cd94b98d85b1b0b99985a5b195960321b6044820152606490fd5b6000546001600160a01b0316604051918291634bf9c0ad60e11b835282600460209485935afa92831561058057612277936124a492610a6e926000926124bf575b5061249c90604051938491878301610cab565b610a846123ce565b9190806124b5575b610a9b906123ff565b50815181146124ac565b61249c9192506124db90863d88116105795761056a818361223f565b9190612489565b604051906124ef82612209565b601182527069735369676e657228616464726573732960781b6020830152565b1561251657565b60405162461bcd60e51b81526020600482015260166024820152751bdddb8b9cda59db995c8b98d85b1b0b99985a5b195960521b6044820152606490fd5b6040519061256182612209565b6018825277697364656c656761746f724e6f646528616464726573732960401b6020830152565b3d156125b3573d9061259982612295565b916125a7604051938461223f565b82523d6000602084013e565b606090565b600080546040516311be646b60e21b815290602090829060049082906001600160a01b03165afa90811561058057828481938293839161266b575b505af16125fe612588565b50156126345760405190815233907fcdcc745fe377b103b45fa0cec23ae3ef93d6fc6a84a01f0d18c40b354dd1d5d890602090a2565b60405162461bcd60e51b815260206004820152600f60248201526e1bdddb8b989d5c9b8b99985a5b1959608a1b6044820152606490fd5b612683915060203d81116105795761056a818361223f565b386125f3565b9190823b1561270a578051906020918263ffffffff60e01b92012016916040519180830193845281519160005b8381106126f65750505091816126e36024826000979596889701878382015203600481018452018261223f565b5191620dbba0fa6126f2612588565b9091565b8181018301518582016024015282016126b6565b50505060009060405161271c81612224565b6000815290565b929161273191600094612689565b9080612754575b61273f5750565b6122779192506020808251830101910161230b565b506020815114612738565b929161276d91600094612689565b9080612792575b61277b5750565b9091506020818051810103126104bf576020015190565b506020815114612774565b156127a457565b60405162461bcd60e51b81526020600482015260126024820152716f776e2e696e76616c69642e69735361666560701b6044820152606490fd5b156127e557565b60405162461bcd60e51b815260206004820152601b60248201527a6f776e2e6e6f6e617574682e44414f6f725365637572656261736560281b6044820152606490fd5b90670de0b6b3a76400009182810292818404149015171561284557565b634e487b7160e01b600052601160045260246000fd5b8181029291811591840414171561284557565b61287790612828565b602255565b906080600491805184556020810151600185015560408101516002850155606081015160038501550151910155565b61298394612293979461291c612964956129479460c09a96604051906128d0826121d3565b8282521515928360208301521515948560408301521515958660608301521515978860808301521515998a60a083015215159b8c91015260175560ff8019601854169115151617601855565b6018805462ffff00191660089290921b61ff00169190911791151560101b62ff000016919091179055565b63ff00000060185491151560181b169063ff000000191617601855565b6018805460ff60201b191691151560201b60ff60201b16919091179055565b6018805460ff60281b191691151560281b60ff60281b16919091179055565b156129a957565b60405162461bcd60e51b815260206004820152600c60248201526b696e76616c69642072616e6b60a01b6044820152606490fd5b6129e9600882106129a2565b6000526003602052604060002055565b60405190612a06826121ee565b60006040838281528260208201520152565b90604051612a25816121ee565b60406002829480548452600181015460208501520154910152565b6040516080810191906001600160401b038311818410176121ce5760608791600294604052858152866020820152876040820152015260018114612aa0575b14612a8b575b50505050565b602a55602b55602c55602d5538808080612a85565b82602655836027558460285585602955612a7f565b604051612ac181612224565b60008152906000368137565b60405190612ada82612209565b60128252716f7a6f6e655072696365496e55534454282960701b6020830152565b8115612b05570490565b634e487b7160e01b600052601260045260246000fdfea2646970667358221220de0d4441eef83d76d3b6421f8606cc4c3528b929f3cb67cb07af551825eb430064736f6c63430008140033","linkReferences":{}},"methodIdentifiers":{"rule741()":"0a5b38ab","transferRequest()":"3da8676f"},"id":34}