{"abi":[{"type":"constructor","inputs":[],"stateMutability":"nonpayable"},{"type":"fallback","stateMutability":"payable"},{"type":"receive","stateMutability":"payable"},{"type":"function","name":"addOrc1155","inputs":[{"name":"newAddr","type":"address","internalType":"address"},{"name":"oldAddr","type":"address","internalType":"address"},{"name":"oldAddrV1","type":"address","internalType":"address"}],"outputs":[],"stateMutability":"nonpayable"},{"type":"function","name":"addOrc1155Prime","inputs":[{"name":"params","type":"bytes","internalType":"bytes"},{"name":"oldAddr","type":"address","internalType":"address"}],"outputs":[],"stateMutability":"nonpayable"},{"type":"function","name":"addProposer","inputs":[{"name":"_a","type":"address","internalType":"address"}],"outputs":[],"stateMutability":"nonpayable"},{"type":"function","name":"daoassembly","inputs":[],"outputs":[{"name":"","type":"address","internalType":"address"}],"stateMutability":"view"},{"type":"function","name":"daocore","inputs":[],"outputs":[{"name":"","type":"address","internalType":"address"}],"stateMutability":"view"},{"type":"function","name":"getProposalsCount","inputs":[],"outputs":[{"name":"","type":"uint256","internalType":"uint256"}],"stateMutability":"view"},{"type":"function","name":"importBusiness","inputs":[{"name":"limit","type":"uint256","internalType":"uint256"}],"outputs":[],"stateMutability":"nonpayable"},{"type":"function","name":"importuser","inputs":[{"name":"limit","type":"uint256","internalType":"uint256"}],"outputs":[],"stateMutability":"nonpayable"},{"type":"function","name":"in741","inputs":[],"outputs":[{"name":"","type":"address","internalType":"address"}],"stateMutability":"view"},{"type":"function","name":"in741Old","inputs":[],"outputs":[{"name":"","type":"address","internalType":"address"}],"stateMutability":"view"},{"type":"function","name":"in741Prime","inputs":[],"outputs":[{"name":"","type":"address","internalType":"address"}],"stateMutability":"view"},{"type":"function","name":"in741PrimeOld","inputs":[],"outputs":[{"name":"","type":"address","internalType":"address"}],"stateMutability":"view"},{"type":"function","name":"in741Primev3Old","inputs":[],"outputs":[{"name":"","type":"address","internalType":"address"}],"stateMutability":"view"},{"type":"function","name":"in741Rule","inputs":[],"outputs":[{"name":"","type":"address","internalType":"address"}],"stateMutability":"view"},{"type":"function","name":"in741RuleOld","inputs":[],"outputs":[{"name":"","type":"address","internalType":"address"}],"stateMutability":"view"},{"type":"function","name":"in741RulePrime","inputs":[],"outputs":[{"name":"","type":"address","internalType":"address"}],"stateMutability":"view"},{"type":"function","name":"in741RulePrimeOld","inputs":[],"outputs":[{"name":"","type":"address","internalType":"address"}],"stateMutability":"view"},{"type":"function","name":"inDEAD","inputs":[],"outputs":[{"name":"","type":"address","internalType":"address"}],"stateMutability":"view"},{"type":"function","name":"inDeployerAService","inputs":[],"outputs":[{"name":"","type":"address","internalType":"address"}],"stateMutability":"view"},{"type":"function","name":"inDeployerAsRoot","inputs":[],"outputs":[{"name":"","type":"address","internalType":"address"}],"stateMutability":"view"},{"type":"function","name":"inImportForgePrimeold","inputs":[],"outputs":[{"name":"","type":"address","internalType":"address"}],"stateMutability":"view"},{"type":"function","name":"inInstance","inputs":[],"outputs":[{"name":"","type":"address","internalType":"address"}],"stateMutability":"view"},{"type":"function","name":"inInstancePrime","inputs":[],"outputs":[{"name":"","type":"address","internalType":"address"}],"stateMutability":"view"},{"type":"function","name":"inInstanceStor","inputs":[],"outputs":[{"name":"","type":"address","internalType":"address"}],"stateMutability":"view"},{"type":"function","name":"inNftFactory","inputs":[],"outputs":[{"name":"","type":"address","internalType":"address"}],"stateMutability":"view"},{"type":"function","name":"inNftProxy","inputs":[],"outputs":[{"name":"","type":"address","internalType":"address"}],"stateMutability":"view"},{"type":"function","name":"inOrc1155","inputs":[{"name":"","type":"uint256","internalType":"uint256"}],"outputs":[{"name":"","type":"address","internalType":"address"}],"stateMutability":"view"},{"type":"function","name":"inOrc1155Old","inputs":[{"name":"","type":"uint256","internalType":"uint256"}],"outputs":[{"name":"","type":"address","internalType":"address"}],"stateMutability":"view"},{"type":"function","name":"inOrc1155OldV1","inputs":[{"name":"","type":"uint256","internalType":"uint256"}],"outputs":[{"name":"","type":"address","internalType":"address"}],"stateMutability":"view"},{"type":"function","name":"inOrc1155Prime","inputs":[{"name":"","type":"uint256","internalType":"uint256"}],"outputs":[{"name":"","type":"address","internalType":"address"}],"stateMutability":"view"},{"type":"function","name":"inOrc1155PrimeOld","inputs":[],"outputs":[{"name":"","type":"address","internalType":"address"}],"stateMutability":"view"},{"type":"function","name":"inOrc1155PrimeOldV1","inputs":[],"outputs":[{"name":"","type":"address","internalType":"address"}],"stateMutability":"view"},{"type":"function","name":"inOrc1155machinebullold","inputs":[],"outputs":[{"name":"","type":"address","internalType":"address"}],"stateMutability":"view"},{"type":"function","name":"inPrice","inputs":[],"outputs":[{"name":"","type":"address","internalType":"address"}],"stateMutability":"view"},{"type":"function","name":"inPrimeData","inputs":[],"outputs":[{"name":"","type":"address","internalType":"address"}],"stateMutability":"view"},{"type":"function","name":"inPrimeProxy","inputs":[],"outputs":[{"name":"","type":"address","internalType":"address"}],"stateMutability":"view"},{"type":"function","name":"inTransferPrimeold","inputs":[],"outputs":[{"name":"","type":"address","internalType":"address"}],"stateMutability":"view"},{"type":"function","name":"inTransferold","inputs":[],"outputs":[{"name":"","type":"address","internalType":"address"}],"stateMutability":"view"},{"type":"function","name":"inTreaseryFactory","inputs":[],"outputs":[{"name":"","type":"address","internalType":"address"}],"stateMutability":"view"},{"type":"function","name":"inTreaseryTVLMining","inputs":[],"outputs":[{"name":"","type":"address","internalType":"address"}],"stateMutability":"view"},{"type":"function","name":"inTreaseryTVLMiningImport","inputs":[],"outputs":[{"name":"","type":"address","internalType":"address"}],"stateMutability":"view"},{"type":"function","name":"inTreaseryTVLMiningPrime","inputs":[],"outputs":[{"name":"","type":"address","internalType":"address"}],"stateMutability":"view"},{"type":"function","name":"inTreaseryTVLReward","inputs":[],"outputs":[{"name":"","type":"address","internalType":"address"}],"stateMutability":"view"},{"type":"function","name":"inTreaseryTVLRoyality","inputs":[],"outputs":[{"name":"","type":"address","internalType":"address"}],"stateMutability":"view"},{"type":"function","name":"inTreaseryTVLTour","inputs":[],"outputs":[{"name":"","type":"address","internalType":"address"}],"stateMutability":"view"},{"type":"function","name":"inTreaseryTVLValidator","inputs":[],"outputs":[{"name":"","type":"address","internalType":"address"}],"stateMutability":"view"},{"type":"function","name":"inblank","inputs":[],"outputs":[{"name":"","type":"address","internalType":"address"}],"stateMutability":"view"},{"type":"function","name":"infactoryold","inputs":[],"outputs":[{"name":"","type":"address","internalType":"address"}],"stateMutability":"view"},{"type":"function","name":"infactoryprimeold","inputs":[],"outputs":[{"name":"","type":"address","internalType":"address"}],"stateMutability":"view"},{"type":"function","name":"insafeguard","inputs":[],"outputs":[{"name":"","type":"address","internalType":"address"}],"stateMutability":"view"},{"type":"function","name":"insafeguardOld","inputs":[],"outputs":[{"name":"","type":"address","internalType":"address"}],"stateMutability":"view"},{"type":"function","name":"insafeguardPrime","inputs":[],"outputs":[{"name":"","type":"address","internalType":"address"}],"stateMutability":"view"},{"type":"function","name":"insafeguardPrimeOld","inputs":[],"outputs":[{"name":"","type":"address","internalType":"address"}],"stateMutability":"view"},{"type":"function","name":"invalidator","inputs":[],"outputs":[{"name":"","type":"address","internalType":"address"}],"stateMutability":"view"},{"type":"function","name":"invalidatorOld","inputs":[],"outputs":[{"name":"","type":"address","internalType":"address"}],"stateMutability":"view"},{"type":"function","name":"mapOldORC1155","inputs":[{"name":"","type":"address","internalType":"address"}],"outputs":[{"name":"","type":"address","internalType":"address"}],"stateMutability":"view"},{"type":"function","name":"mapOldORC1155Prime","inputs":[{"name":"","type":"address","internalType":"address"}],"outputs":[{"name":"","type":"address","internalType":"address"}],"stateMutability":"view"},{"type":"function","name":"proposals","inputs":[{"name":"","type":"uint256","internalType":"uint256"}],"outputs":[{"name":"","type":"address","internalType":"address"}],"stateMutability":"view"},{"type":"function","name":"s1","inputs":[],"outputs":[{"name":"","type":"address","internalType":"address"}],"stateMutability":"view"},{"type":"function","name":"s2","inputs":[],"outputs":[{"name":"","type":"address","internalType":"address"}],"stateMutability":"view"},{"type":"function","name":"s3","inputs":[],"outputs":[{"name":"","type":"address","internalType":"address"}],"stateMutability":"view"},{"type":"function","name":"submit","inputs":[{"name":"_hexNFTEngine","type":"address","internalType":"address"},{"name":"_hexDaoCore","type":"address","internalType":"address"},{"name":"_hexRules","type":"address","internalType":"address"},{"name":"_hexUserEngine","type":"address","internalType":"address"},{"name":"_hexInstanceEngine","type":"address","internalType":"address"}],"outputs":[],"stateMutability":"nonpayable"},{"type":"function","name":"update741","inputs":[{"name":"addr","type":"address","internalType":"address"}],"outputs":[],"stateMutability":"nonpayable"},{"type":"function","name":"update741Old","inputs":[{"name":"addr","type":"address","internalType":"address"}],"outputs":[],"stateMutability":"nonpayable"},{"type":"function","name":"update741Prime","inputs":[{"name":"addr","type":"address","internalType":"address"}],"outputs":[],"stateMutability":"nonpayable"},{"type":"function","name":"update741PrimeOld","inputs":[{"name":"addr","type":"address","internalType":"address"}],"outputs":[],"stateMutability":"nonpayable"},{"type":"function","name":"update741Primev3Old","inputs":[{"name":"addr","type":"address","internalType":"address"}],"outputs":[],"stateMutability":"nonpayable"},{"type":"function","name":"update741Rule","inputs":[{"name":"addr","type":"address","internalType":"address"}],"outputs":[],"stateMutability":"nonpayable"},{"type":"function","name":"update741RuleOld","inputs":[{"name":"addr","type":"address","internalType":"address"}],"outputs":[],"stateMutability":"nonpayable"},{"type":"function","name":"update741RulePrime","inputs":[{"name":"addr","type":"address","internalType":"address"}],"outputs":[],"stateMutability":"nonpayable"},{"type":"function","name":"update741RulePrimeOld","inputs":[{"name":"addr","type":"address","internalType":"address"}],"outputs":[],"stateMutability":"nonpayable"},{"type":"function","name":"updateDAOAssembly","inputs":[{"name":"_dao","type":"address","internalType":"address"}],"outputs":[],"stateMutability":"nonpayable"},{"type":"function","name":"updateDAOCore","inputs":[{"name":"_dao","type":"address","internalType":"address"}],"outputs":[],"stateMutability":"nonpayable"},{"type":"function","name":"updateDEAD","inputs":[{"name":"addr","type":"address","internalType":"address"}],"outputs":[],"stateMutability":"nonpayable"},{"type":"function","name":"updateFactoryOld","inputs":[{"name":"addr","type":"address","internalType":"address"}],"outputs":[],"stateMutability":"nonpayable"},{"type":"function","name":"updateFactoryPrimeOld","inputs":[{"name":"addr","type":"address","internalType":"address"}],"outputs":[],"stateMutability":"nonpayable"},{"type":"function","name":"updateImportForgePrimeold","inputs":[{"name":"addr","type":"address","internalType":"address"}],"outputs":[],"stateMutability":"nonpayable"},{"type":"function","name":"updateInTransferOld","inputs":[{"name":"addr","type":"address","internalType":"address"}],"outputs":[],"stateMutability":"nonpayable"},{"type":"function","name":"updateInTransferPrimeOld","inputs":[{"name":"addr","type":"address","internalType":"address"}],"outputs":[],"stateMutability":"nonpayable"},{"type":"function","name":"updateInstance","inputs":[{"name":"addr","type":"address","internalType":"address"}],"outputs":[],"stateMutability":"nonpayable"},{"type":"function","name":"updateInstancePrime","inputs":[{"name":"addr","type":"address","internalType":"address"}],"outputs":[],"stateMutability":"nonpayable"},{"type":"function","name":"updateInstanceStor","inputs":[{"name":"addr","type":"address","internalType":"address"}],"outputs":[],"stateMutability":"nonpayable"},{"type":"function","name":"updateNftProxy","inputs":[{"name":"addr","type":"address","internalType":"address"}],"outputs":[],"stateMutability":"nonpayable"},{"type":"function","name":"updateOrc1155","inputs":[{"name":"_o","type":"address","internalType":"address"},{"name":"oldAddr","type":"address","internalType":"address"},{"name":"idx","type":"uint256","internalType":"uint256"}],"outputs":[],"stateMutability":"nonpayable"},{"type":"function","name":"updateOrc1155MachineBullOld","inputs":[{"name":"addr","type":"address","internalType":"address"}],"outputs":[],"stateMutability":"nonpayable"},{"type":"function","name":"updateOrc1155Prime","inputs":[{"name":"_o","type":"address","internalType":"address"},{"name":"oldAddr","type":"address","internalType":"address"},{"name":"idx","type":"uint256","internalType":"uint256"}],"outputs":[],"stateMutability":"nonpayable"},{"type":"function","name":"updateOrc1155PrimeOld","inputs":[{"name":"addr","type":"address","internalType":"address"}],"outputs":[],"stateMutability":"nonpayable"},{"type":"function","name":"updateOrc1155PrimeOldV1","inputs":[{"name":"addr","type":"address","internalType":"address"}],"outputs":[],"stateMutability":"nonpayable"},{"type":"function","name":"updatePrice","inputs":[{"name":"addr","type":"address","internalType":"address"}],"outputs":[],"stateMutability":"nonpayable"},{"type":"function","name":"updatePrimeData","inputs":[{"name":"addr","type":"address","internalType":"address"}],"outputs":[],"stateMutability":"nonpayable"},{"type":"function","name":"updatePrimeProxy","inputs":[{"name":"addr","type":"address","internalType":"address"}],"outputs":[],"stateMutability":"nonpayable"},{"type":"function","name":"updateProposals","inputs":[{"name":"_a","type":"address","internalType":"address"},{"name":"idx","type":"uint256","internalType":"uint256"}],"outputs":[],"stateMutability":"nonpayable"},{"type":"function","name":"updateSafeguard","inputs":[{"name":"addr","type":"address","internalType":"address"}],"outputs":[],"stateMutability":"nonpayable"},{"type":"function","name":"updateSafeguardOld","inputs":[{"name":"addr","type":"address","internalType":"address"}],"outputs":[],"stateMutability":"nonpayable"},{"type":"function","name":"updateSafeguardPrime","inputs":[{"name":"addr","type":"address","internalType":"address"}],"outputs":[],"stateMutability":"nonpayable"},{"type":"function","name":"updateSafeguardPrimeOld","inputs":[{"name":"addr","type":"address","internalType":"address"}],"outputs":[],"stateMutability":"nonpayable"},{"type":"function","name":"updateTreaseryFactory","inputs":[{"name":"addr","type":"address","internalType":"address"}],"outputs":[],"stateMutability":"nonpayable"},{"type":"function","name":"updateTreaseryTVLMiningImport","inputs":[{"name":"addr","type":"address","internalType":"address"}],"outputs":[],"stateMutability":"nonpayable"},{"type":"function","name":"updateTreaseryTVLValidator","inputs":[{"name":"addr","type":"address","internalType":"address"}],"outputs":[],"stateMutability":"nonpayable"},{"type":"function","name":"updateTreasuryTVLMining","inputs":[{"name":"addr","type":"address","internalType":"address"}],"outputs":[],"stateMutability":"nonpayable"},{"type":"function","name":"updateTreasuryTVLMiningPrime","inputs":[{"name":"addr","type":"address","internalType":"address"}],"outputs":[],"stateMutability":"nonpayable"},{"type":"function","name":"updateTreasuryTVLReward","inputs":[{"name":"addr","type":"address","internalType":"address"}],"outputs":[],"stateMutability":"nonpayable"},{"type":"function","name":"updateTreasuryTVLRoyality","inputs":[{"name":"addr","type":"address","internalType":"address"}],"outputs":[],"stateMutability":"nonpayable"},{"type":"function","name":"updateTreasuryTVLTour","inputs":[{"name":"addr","type":"address","internalType":"address"}],"outputs":[],"stateMutability":"nonpayable"},{"type":"function","name":"updateValidator","inputs":[{"name":"addr","type":"address","internalType":"address"}],"outputs":[],"stateMutability":"nonpayable"}],"bytecode":{"object":"0x6080604052346200050b5760018060a01b0319600090808254168255600173376c3a0babd0ce07b78f82fc862a6cb7c82342d282825416178155816002541660025573301cad03ad5f18e71e0bf6d578820c5e836201c9826003541617600355735731f74dd52839d69b2b4427ce1439431f76a2ce8260045416176004556005734a516f5916d53ece27c00ab5e3923872ed19f090838254161781558260065416600655826007541660075582600954166009557360c95eb879eec03a0af4528a16f192e61a198f4083600a541617600a557308ff697696398fac0dcee979bb0f1fb7b7fc380b83600b541617600b5582600c5416600c5582600d5416600d5573f134e58248ab8380e911d36c21e1015e5e84814183600e541617600e5582600f5416600f5573882bf41aa8e3fad0695be39e4434af54786eb24a83601054161760105573c0cee8b561cc4f60869776ca5b0b7a295e04f5af808460115416176011558360125416601255836013541617601355739f33b44587a57758c1413dbab6640f6abea5cef483601454161760145573804f8004e7d361ab2a4335685d7c6893e67af7c1836015541617601555620001b962000510565b9173d03060e8ed7754aeed63e4e56b0457662d8164aa8352602091733dbd81ab6b37360016fbc6c96937c60334aaede48385015273085052532254e12989413f7c84dd32686bce74e19384604082015273284bf1d323c35b47fe1991cde5af634e3a661253606082015273b33443339919b2ae34888890d6c28b5666daaa3f6080820152601a5482601a55808310620004e0575b50601a87528387209083885b848110620004c457505050506200026f62000510565b73b8193c79fc3f1d7dfaa0bae85fe3b1bff0558abb8152736e5aa0e705b69459e1525b2c720e820cf3322f1b8482015273ef8fe7c57b613624c06f5ede5ebd639f6d5108176040820152735f141ba4a79fdc86ec5c8c044f721ce873db91b96060820152737117638c0dc12ffffdddf3630ac4ce5c9705e6ff6080820152601b5482601b5580831062000499575b50601b8752838720875b8381106200047e57505050505073951a7bbd21b4a6f49e62e040b992eed7120fcdd983601c541617601c55732463fc29b8b635c4120c4fe32aadc580d199348083601d541617601d55737e2baf007a3761d33afee572a7e7a08c1499b99d9081848254161790557343a87925ba12b33f0e2a40da70e239775db21169836025541617602555730fda18c5b31b5417478c012837909927361143ab83602a541617602a55730239667fa9f2269e36f32daf2ab391dc1ad9373883602b541617602b5573648565deb50c503ef59860d92942eaece0c3e17283602c541617602c5582602d541617602d5581602e541617602e55736c96f2d0c9a8b7fb472a319b1ecf7e8626c7b2ba81602f541617602f55739bfc2af8a5e49a72bfb58e22312ce07d61fe77398160305416176030557321608df4d0d716aedd54fd2f9bd138e7a98dfe2781603154161760315561dead81603354161760335580603454166034553390825416179055604051615c039081620005478239f35b82516001600160a01b03168282015591850191840162000307565b601b88528383868a2092830192015b828110620004b8575050620002fd565b898155018490620004a8565b82516001600160a01b0316848201559186019185910162000259565b601a88528383868a2092830192015b828110620004ff5750506200024d565b898155018490620004ef565b600080fd5b6040519060a082016001600160401b038111838210176200053057604052565b634e487b7160e01b600052604160045260246000fdfe6040608081526004803610156200001e575b505036156200001c57005b005b600091823560e01c918263013cf08b1462002fb0578263014519e61462002f6357826301c0d48b1462002f3957826305abae0d1462002eec578263069f3e721462002e9f57826308a887af1462002e755782630a4c99391462002e285782630c32145a1462002ddb5782631162a5b11462002d8e578263130fba6d1462002d415782631477e1941462002cec57826314d8d0241462002cc25782631654f3311462002c755782631a47ded51462002c285782631b67970a1462002bdb57826321c826771462002bb1578263236b04021462002b6457826324768d911462002b3a578263275424d01462002aed57826330125cf51462002ac3578263335ab5f21462002a76578383633676bd1f14620029ec5750826336c24c46146200299f57826342ac8f79146200295257826343af1d9d1462002928578263447aa30414620028fe578263447bf0e214620028d4578263448f3eef14620028aa5782634588d010146200285d57826345d96de8146200281057826346f991ac14620027e65783836349fbed12146200273f575082634b849a5414620026f2578263507aa64f14620026a557826351ffe4c5146200267b57826352b06d641462002651578263595e1dd214620026185782635ad64af114620025ee5782635c727e80146200258f5782635e09dbe714620025655782636325dd04146200253b578263635b277014620024ee5782636402742714620024c4578263666585841462002477578263677494d8146200244d5782636b4aefc614620024245782636cc014de14620023fa5782636fa1659814620023ad57826370ee2af8146200236057826374dfe236146200231357826374fad9f914620022c6578263753e7d3314620022795782638360701d146200222c578263839a47a414620021df578263891e91a514620021925782639669f18f146200214557826396e85ced14620020f857826397f3815a14620020ce57826398e527d314620020ad5782639dc969a81462002083578263a0449f451462002036578263a0b8cbb8146200200c578263a11abe2a1462001028578263a2672aa81462000fdb578263a314150f1462000fb2578263a5b277f21462000f88578263a5d666a91462000f5e578263a66bcbe21462000f34578263a7acacf81462000f0a578263a7d7fa501462000ee0578263a9d5ae6f1462000e93578263aa0ddc161462000e69578263ab6e844f1462000e3f578263aeb140201462000df2578263af0deb951462000dc8578263af2331901462000d9e578263b03cd4181462000d5e578263b113bd201462000b6a578263b3a86ab01462000b40578263b771c8961462000af8578263bb2458961462000ace578263bd811bce1462000aa4578263c16addd01462000a4157508163c5a90db11462000a17578163c7bb7d4d14620009ca578163cc7cf18e146200096a578163cfaa1f6c146200092c578163cfacc01014620008df578163cfbffe5314620008b5578163d1f956b1146200088b578163d3d1b0961462000861578163da1be7d01462000837578163de433f17146200080f578163e09d394d14620007e5578163e0cf4e9e146200079c578163e1f4cd241462000772578163e25768191462000725578163e61dfd5814620006fb578163e7531fc014620006d1578163ed15cbf71462000693578163ef140ed31462000613578163efed51bb14620005e9578163f144dff014620005bb57508063f6065649146200056e5763fc58f353146200051f578062000011565b346200056b5760203660031901126200056b576200053c620030d7565b6001600160a01b03906200055682600654163314620031a2565b166001600160a01b0319601254161760125580f35b80fd5b50346200056b5760203660031901126200056b576200058c620030d7565b6001600160a01b0390620005a682600654163314620031a2565b166001600160a01b0319603554161760355580f35b905034620005e55781600319360112620005e5576020906001600160a01b03602d54169051908152f35b5080fd5b905034620005e55781600319360112620005e5576020906001600160a01b03601054169051908152f35b905034620005e557620006556200062a366200316a565b9062000675836001600160a01b039694969586946200064f86600654163314620031a2565b62003067565b90919082549060031b916001600160a01b03809116831b921b1916179055565b1684526019602052832091166001600160a01b031982541617905580f35b905034620005e5576020366003190112620005e557602091816001600160a01b039182620006c0620030d7565b168152601985522054169051908152f35b905034620005e55781600319360112620005e5576020906001600160a01b03602b54169051908152f35b905034620005e55781600319360112620005e5576020906001600160a01b03602654169051908152f35b82346200056b5760203660031901126200056b5762000743620030d7565b6001600160a01b03906200075d82600654163314620031a2565b166001600160a01b0319602254161760225580f35b905034620005e55781600319360112620005e5576020906001600160a01b03600f54169051908152f35b905034620005e5573660031901126200056b57620007e2620007bd620030d7565b620007d56001600160a01b03600654163314620031a2565b6200065560243562002fe4565b80f35b905034620005e55781600319360112620005e5576020906001600160a01b03602754169051908152f35b905034620005e55781600319360112620005e5576001600160a01b0360209254169051908152f35b905034620005e55781600319360112620005e5576020906001600160a01b03603054169051908152f35b905034620005e55781600319360112620005e5576020906001600160a01b03602954169051908152f35b905034620005e55781600319360112620005e5576020906001600160a01b03600754169051908152f35b905034620005e55781600319360112620005e5576020906001600160a01b03600d54169051908152f35b82346200056b5760203660031901126200056b57620008fd620030d7565b6001600160a01b03906200091782600654163314620031a2565b166001600160a01b0319600f541617600f5580f35b905034620005e5576020366003190112620005e557602091816001600160a01b03918262000959620030d7565b168152601885522054169051908152f35b905034620005e5576200065562000981366200316a565b90620009ac836001600160a01b03969496958694620009a686600654163314620031a2565b6200309f565b1684526018602052832091166001600160a01b031982541617905580f35b82346200056b5760203660031901126200056b57620009e8620030d7565b6001600160a01b039062000a0282600654163314620031a2565b166001600160a01b0319602e541617602e5580f35b905034620005e55781600319360112620005e5576020906001600160a01b03602c54169051908152f35b9091503462000aa057602036600319011262000aa0573591601a548310156200056b57506001600160a01b03602092601a6000527f057c384a7d1c54f3a1b2e5e67b2617b8224fdfd1ea7234eea573a6ff665ff63e0154169051908152f35b8280fd5b838234620005e55781600319360112620005e5576020906001600160a01b03601554169051908152f35b838234620005e55781600319360112620005e5576020906001600160a01b03600e54169051908152f35b9091503462000aa057602036600319011262000aa05735916016548310156200056b57506001600160a01b0362000b316020936200309f565b92905490519260031b1c168152f35b838234620005e55781600319360112620005e5576020906001600160a01b03601d54169051908152f35b91503462000aa0578060031936011262000aa05767ffffffffffffffff90823582811162000d5a573660238201121562000d5a578084013592831162000d475781519385602092601f199562000bc88588601f840116018962003147565b808852366024828401011162000aa057806024869399989901838901378601015262000bf3620030ee565b90826001600160a01b039562000c0f87600654163314620031a2565b8660365416898751998a937f165fd13f0000000000000000000000000000000000000000000000000000000085523087860152896024860152805190816044870152835b82811062000d29575050848392601f8383966064809686010152011681010301925af195861562000d1f57879662000ce9575b50601754906801000000000000000082101562000cd457506019929162000cba87620006558460018a960160175562003067565b16865252832091166001600160a01b031982541617905580f35b604190634e487b7160e01b6000525260246000fd5b62000d0f919650833d851162000d17575b62000d06818362003147565b810190620032d4565b943862000c86565b503d62000cfa565b84513d89823e3d90fd5b8181018801519681016064019690965289968d968f95500162000c53565b602485604186634e487b7160e01b835252fd5b8480fd5b83346200056b5760203660031901126200056b57620007e262000d80620030d7565b62000d986001600160a01b03600654163314620031a2565b620031ee565b838234620005e55781600319360112620005e5576020906001600160a01b03602854169051908152f35b838234620005e55781600319360112620005e5576020906001600160a01b03600c54169051908152f35b83346200056b5760203660031901126200056b5762000e10620030d7565b6001600160a01b039062000e2a82600654163314620031a2565b166001600160a01b0319601154161760115580f35b838234620005e55781600319360112620005e5576020906001600160a01b03601154169051908152f35b838234620005e55781600319360112620005e5576020906001600160a01b03601f54169051908152f35b83346200056b5760203660031901126200056b5762000eb1620030d7565b6001600160a01b039062000ecb82600654163314620031a2565b166001600160a01b0319600c541617600c5580f35b838234620005e55781600319360112620005e5576020906001600160a01b03600b54169051908152f35b838234620005e55781600319360112620005e5576020906001600160a01b03601c54169051908152f35b838234620005e55781600319360112620005e5576020906001600160a01b03601254169051908152f35b838234620005e55781600319360112620005e5576020906001600160a01b03600554169051908152f35b838234620005e55781600319360112620005e5576020906001600160a01b03602e54169051908152f35b9083346200056b57806003193601126200056b57506001600160a01b0360209254169051908152f35b83346200056b5760203660031901126200056b5762000ff9620030d7565b6001600160a01b03906200101382600654163314620031a2565b166001600160a01b0319602c541617602c5580f35b9091503462000aa05760a036600319011262000aa05762001048620030d7565b9162001053620030ee565b916200105e62003105565b92606435946001600160a01b0394858716809703620020075760843592868416809403620020075786895416330362001fc457866009541662001f81578616928551977fa035b1fe000000000000000000000000000000000000000000000000000000008952602092838a8881895afa998a1562001f77578b9a62001f53575b50886001600160a01b03199a168a602954161760295587517f5540c5ac000000000000000000000000000000000000000000000000000000008152848189818a5afa90811562001cde57908a918d9162001f31575b50168a60135416176013558751957f45cff90000000000000000000000000000000000000000000000000000000000875284878981845afa96871562001cde578c9762001f0d575b5089601197168b88541617875588517f1483745500000000000000000000000000000000000000000000000000000000815285818a81855afa908d821562001f025787928b94928e929162001ee0575b50168d60075416176007558a51928380927f14d8d0240000000000000000000000000000000000000000000000000000000082525afa908c821562001eb3578b939284929062001ebe575b50168b60065416176006551687517f0a5b38ab00000000000000000000000000000000000000000000000000000000815284818981855afa908c821562001eb35786928a94928d929162001e91575b50168c600d541617600d558951928380927f3da8676f0000000000000000000000000000000000000000000000000000000082525afa908b821562001e86578592899492620012bc929162001e64575b50620031ee565b8851928380927f131c73ad0000000000000000000000000000000000000000000000000000000082525afa90811562001d2c579088918b9162001e42575b501688602754161760275585517f022ec09500000000000000000000000000000000000000000000000000000000815282818781855afa90811562001d2c579088918b9162001e20575b501688602654161760265585517f9ba540fb00000000000000000000000000000000000000000000000000000000815282818781855afa90811562001d2c579088918b9162001dfe575b501688601e541617601e5585517fd795ff3800000000000000000000000000000000000000000000000000000000815282818781855afa90811562001d2c579088918b9162001ddc575b501688601f541617601f5585517fb85c9faf00000000000000000000000000000000000000000000000000000000815282818781855afa90811562001d2c579088918b9162001dba575b501688602154161760215585517f9443767c00000000000000000000000000000000000000000000000000000000815282818781855afa90811562001d2c579088918b9162001d98575b501688602254161760225585517fdabf429d00000000000000000000000000000000000000000000000000000000815282818781855afa90811562001d2c5791888493928895938d9162001d76575b50168a60235416176023558751968780927fa50c0bc00000000000000000000000000000000000000000000000000000000082525afa94851562001d6c57899562001d48575b5086602495168886541617855585516116ee9081810167ffffffffffffffff928282108483111762001d365784918391620032f683393081520301908bf093841562001d2c57889081603296168b875416178655169387517fa4ac704e00000000000000000000000000000000000000000000000000000000815283818681895afa90811562001cde57908a918d9162001d0a575b50168a603554161760355587517fd63843cd00000000000000000000000000000000000000000000000000000000815283818681895afa90811562001cde57908a918d9162001ce8575b50168a603654161760365587517f1a1575a500000000000000000000000000000000000000000000000000000000815283818681895afa90811562001cde578c9162001cbc575b50601a541562001ca957897f057c384a7d1c54f3a1b2e5e67b2617b8224fdfd1ea7234eea573a6ff665ff63e541690601b9182541562001be057906200169691836000528c7f3ad8aa4f87544323a9d1e5dd902f40c356527a7955687113db5f9a85ad579dc15416916200321c565b8851957f1697db0500000000000000000000000000000000000000000000000000000000875284878781845afa96871562001c9f578d9762001c7b575b50601a549660019788101562001be0578b7f057c384a7d1c54f3a1b2e5e67b2617b8224fdfd1ea7234eea573a6ff665ff63f5416835489101562001bcd57906200174691846000528d7f3ad8aa4f87544323a9d1e5dd902f40c356527a7955687113db5f9a85ad579dc25416916200321c565b8c8a517fde04dae400000000000000000000000000000000000000000000000000000000815286818981865afa91821562001c17579162001c59575b50601a546002101562001be0578b7f057c384a7d1c54f3a1b2e5e67b2617b8224fdfd1ea7234eea573a6ff665ff640541683546002101562001bcd578392918f94918e620017f7936000527f3ad8aa4f87544323a9d1e5dd902f40c356527a7955687113db5f9a85ad579dc35416916200321c565b8a517fa0f0e54f00000000000000000000000000000000000000000000000000000000815286818981855afa93841562001c17579362001c35575b50601a549260039384101562001bcd578c7f057c384a7d1c54f3a1b2e5e67b2617b8224fdfd1ea7234eea573a6ff665ff6415416835485101562001c22578f9392620018ab8f938a938c95876000527f3ad8aa4f87544323a9d1e5dd902f40c356527a7955687113db5f9a85ad579dc45416916200321c565b8d51928380927f209d197a0000000000000000000000000000000000000000000000000000000082525afa92831562001c17579262001bf3575b50601a5487101562001be0578b7f057c384a7d1c54f3a1b2e5e67b2617b8224fdfd1ea7234eea573a6ff665ff642541690805488101562001bcd57906200195592916000528c7f3ad8aa4f87544323a9d1e5dd902f40c356527a7955687113db5f9a85ad579dc55416916200321c565b8851916101e083018381108582111762001bb9578a52600e83528c85840198886101c09283368d37905b62001b49575b508c6200199162003032565b905490861b1c1685516005101562001b3657908d9160c0870152541684516006101562001b235760e08501528b601e541684516007101562001b23576101008501528b601f541684516008101562001b23576101208501528b6021541684516009101562001b23576101408501528b602254168451600a101562001b23576101608501528b602354168451600b101562001b23576101808501528b8a54168451600c101562001b23576101a08501528b885416918451600d101562001b105750908b9291840152541693898154168a60055416918a51996111ea91828c01968c88109088111762001afe5750509160c093918a999896979593620049e48b3960a08401958452878401528a83015230606083015260a06080830152518093520193928a5b82811062001ae5575050505050039085f090811562001adc57501690600954161760095580f35b513d85823e3d90fd5b84518a1686528796509481019493810193830162001ab5565b8f90604190634e487b7160e01b835252fd5b8a9088634e487b7160e01b600052526000fd5b8a8389634e487b7160e01b600052526000fd5b8b848a634e487b7160e01b600052526000fd5b60058e8183101562001bb15762001b60836200309f565b905490881b1c1690875183101562001b9e5782901b8701890152600019811462001b8d578901896200197f565b50634e487b7160e01b8f528752898efd5b8d868c634e487b7160e01b600052526000fd5b505062001985565b89604188634e487b7160e01b600052526000fd5b8a8589634e487b7160e01b600052526000fd5b898488634e487b7160e01b600052526000fd5b62001c0f919250863d881162000d175762000d06818362003147565b9038620018e5565b8c51903d90823e3d90fd5b8b868a634e487b7160e01b600052526000fd5b62001c51919350863d881162000d175762000d06818362003147565b913862001832565b62001c749150863d881162000d175762000d06818362003147565b3862001782565b62001c97919750853d871162000d175762000d06818362003147565b9538620016d3565b8a513d8f823e3d90fd5b878286634e487b7160e01b600052526000fd5b62001cd79150843d861162000d175762000d06818362003147565b3862001627565b89513d8e823e3d90fd5b62001d039150853d871162000d175762000d06818362003147565b38620015e0565b62001d259150853d871162000d175762000d06818362003147565b3862001596565b87513d8c823e3d90fd5b888d604188634e487b7160e01b835252fd5b8162001d649296503d871162000d175762000d06818362003147565b933862001501565b86513d8b823e3d90fd5b62001d919150843d861162000d175762000d06818362003147565b38620014bb565b62001db39150843d861162000d175762000d06818362003147565b386200146c565b62001dd59150843d861162000d175762000d06818362003147565b3862001422565b62001df79150843d861162000d175762000d06818362003147565b38620013d8565b62001e199150843d861162000d175762000d06818362003147565b386200138e565b62001e3b9150843d861162000d175762000d06818362003147565b3862001344565b62001e5d9150843d861162000d175762000d06818362003147565b38620012fa565b62001e7f9150843d861162000d175762000d06818362003147565b38620012b5565b8951903d90823e3d90fd5b62001eac9150843d861162000d175762000d06818362003147565b3862001265565b8a51903d90823e3d90fd5b62001ed99150873d891162000d175762000d06818362003147565b3862001216565b62001efb9150843d861162000d175762000d06818362003147565b38620011cb565b8b51903d90823e3d90fd5b62001f29919750853d871162000d175762000d06818362003147565b95386200117b565b62001f4c9150863d881162000d175762000d06818362003147565b3862001133565b62001f6f919a50843d861162000d175762000d06818362003147565b9838620010de565b88513d8d823e3d90fd5b606485602088519162461bcd60e51b8352820152601960248201527f686578626173652e616c72656164792e7375626d6974746564000000000000006044820152fd5b606485602088519162461bcd60e51b8352820152600e60248201527f4e6f7420617574686f72697a65640000000000000000000000000000000000006044820152fd5b600080fd5b838234620005e55781600319360112620005e5576020906001600160a01b03603454169051908152f35b83346200056b5760203660031901126200056b5762002054620030d7565b6001600160a01b03906200206e82600654163314620031a2565b166001600160a01b0319600a541617600a5580f35b838234620005e55781600319360112620005e5576020906001600160a01b03602454169051908152f35b838234620005e55781600319360112620005e5576020906008549051908152f35b838234620005e55781600319360112620005e5576020906001600160a01b03600954169051908152f35b83346200056b5760203660031901126200056b5762002116620030d7565b6001600160a01b03906200213082600654163314620031a2565b166001600160a01b0319602954161760295580f35b83346200056b5760203660031901126200056b5762002163620030d7565b6001600160a01b03906200217d82600654163314620031a2565b166001600160a01b0319600b541617600b5580f35b83346200056b5760203660031901126200056b57620021b0620030d7565b6001600160a01b0319600654916001600160a01b0390620021d53383861614620031a2565b1691161760065580f35b83346200056b5760203660031901126200056b57620021fd620030d7565b6001600160a01b03906200221782600654163314620031a2565b166001600160a01b0319602854161760285580f35b83346200056b5760203660031901126200056b576200224a620030d7565b6001600160a01b03906200226482600654163314620031a2565b166001600160a01b0319601554161760155580f35b83346200056b5760203660031901126200056b5762002297620030d7565b6001600160a01b0390620022b182600654163314620031a2565b166001600160a01b0319600d541617600d5580f35b83346200056b5760203660031901126200056b57620022e4620030d7565b6001600160a01b0390620022fe82600654163314620031a2565b166001600160a01b0319602b541617602b5580f35b83346200056b5760203660031901126200056b5762002331620030d7565b6001600160a01b03906200234b82600654163314620031a2565b166001600160a01b0319601054161760105580f35b83346200056b5760203660031901126200056b576200237e620030d7565b6001600160a01b03906200239882600654163314620031a2565b166001600160a01b0319601e541617601e5580f35b83346200056b5760203660031901126200056b57620023cb620030d7565b6001600160a01b0390620023e582600654163314620031a2565b166001600160a01b0319602754161760275580f35b838234620005e55781600319360112620005e5576020906001600160a01b03600354169051908152f35b838234620005e55781600319360112620005e5576020906001600160a01b038254169051908152f35b838234620005e55781600319360112620005e5576020906001600160a01b03600154169051908152f35b83346200056b5760203660031901126200056b5762002495620030d7565b6001600160a01b0390620024af82600654163314620031a2565b166001600160a01b0319601454161760145580f35b838234620005e55781600319360112620005e5576020906001600160a01b03602154169051908152f35b83346200056b5760203660031901126200056b576200250c620030d7565b6001600160a01b03906200252682600654163314620031a2565b166001600160a01b0319603254161760325580f35b838234620005e55781600319360112620005e5576020906001600160a01b03603154169051908152f35b838234620005e55781600319360112620005e5576020906001600160a01b03601e54169051908152f35b9091503462000aa057602036600319011262000aa0573591601b548310156200056b57506001600160a01b03602092601b6000527f3ad8aa4f87544323a9d1e5dd902f40c356527a7955687113db5f9a85ad579dc10154169051908152f35b838234620005e55781600319360112620005e5576020906001600160a01b03602f54169051908152f35b9091503462000aa057602036600319011262000aa05735916017548310156200056b57506001600160a01b0362000b3160209362003067565b838234620005e55781600319360112620005e5576020906001600160a01b03603254169051908152f35b838234620005e55781600319360112620005e5576020906001600160a01b03600a54169051908152f35b83346200056b5760203660031901126200056b57620026c3620030d7565b6001600160a01b0390620026dd82600654163314620031a2565b166001600160a01b0319600e541617600e5580f35b83346200056b5760203660031901126200056b5762002710620030d7565b6001600160a01b03906200272a82600654163314620031a2565b166001600160a01b0319602454161760245580f35b92509034620027e2576020366003190112620027e2576001600160a01b036200276762003032565b90549060031b1c1691823b15620027dd57839260248492845195869384927f49fbed120000000000000000000000000000000000000000000000000000000084528035908401525af1908115620027d45750620027c15750f35b620027cc906200311c565b6200056b5780f35b513d84823e3d90fd5b505050fd5b5050fd5b838234620005e55781600319360112620005e5576020906001600160a01b03603354169051908152f35b83346200056b5760203660031901126200056b576200282e620030d7565b6001600160a01b03906200284882600654163314620031a2565b166001600160a01b0319600754161760075580f35b83346200056b5760203660031901126200056b576200287b620030d7565b6001600160a01b03906200289582600654163314620031a2565b166001600160a01b0319603454161760345580f35b838234620005e55781600319360112620005e5576020906001600160a01b03600254169051908152f35b838234620005e55781600319360112620005e5576020906001600160a01b03601454169051908152f35b838234620005e55781600319360112620005e5576020906001600160a01b03601354169051908152f35b838234620005e55781600319360112620005e5576020906001600160a01b03603554169051908152f35b83346200056b5760203660031901126200056b5762002970620030d7565b6001600160a01b03906200298a82600654163314620031a2565b166001600160a01b0319602f541617602f5580f35b83346200056b5760203660031901126200056b57620029bd620030d7565b6001600160a01b0390620029d782600654163314620031a2565b166001600160a01b0319602054161760205580f35b925034620027e2576020366003190112620027e2576001600160a01b0362002a1362003032565b90549060031b1c16803b15620027dd5760248492845195869384927f3676bd1f0000000000000000000000000000000000000000000000000000000084528035908401525af1908115620027d4575062002a6b575080f35b620007e2906200311c565b83346200056b5760203660031901126200056b5762002a94620030d7565b6001600160a01b039062002aae82600654163314620031a2565b166001600160a01b0319602a541617602a5580f35b838234620005e55781600319360112620005e5576020906001600160a01b03602254169051908152f35b83346200056b5760203660031901126200056b5762002b0b620030d7565b6001600160a01b039062002b2582600654163314620031a2565b166001600160a01b0319602654161760265580f35b838234620005e55781600319360112620005e5576020906001600160a01b03602354169051908152f35b83346200056b5760203660031901126200056b5762002b82620030d7565b6001600160a01b039062002b9c82600654163314620031a2565b166001600160a01b0319601354161760135580f35b838234620005e55781600319360112620005e5576020906001600160a01b03602554169051908152f35b83346200056b5760203660031901126200056b5762002bf9620030d7565b6001600160a01b039062002c1382600654163314620031a2565b166001600160a01b0319602354161760235580f35b83346200056b5760203660031901126200056b5762002c46620030d7565b6001600160a01b039062002c6082600654163314620031a2565b166001600160a01b0319601c541617601c5580f35b83346200056b5760203660031901126200056b5762002c93620030d7565b6001600160a01b039062002cad82600654163314620031a2565b166001600160a01b0319603054161760305580f35b838234620005e55781600319360112620005e5576020906001600160a01b03600654169051908152f35b83346200056b5760603660031901126200056b57620007e262002d0e620030d7565b62002d18620030ee565b62002d2262003105565b9162002d3b6001600160a01b03600654163314620031a2565b6200321c565b83346200056b5760203660031901126200056b5762002d5f620030d7565b6001600160a01b039062002d7982600654163314620031a2565b166001600160a01b0319601f541617601f5580f35b83346200056b5760203660031901126200056b5762002dac620030d7565b6001600160a01b039062002dc682600654163314620031a2565b166001600160a01b0319600954161760095580f35b83346200056b5760203660031901126200056b5762002df9620030d7565b6001600160a01b039062002e1382600654163314620031a2565b166001600160a01b0319601d541617601d5580f35b83346200056b5760203660031901126200056b5762002e46620030d7565b6001600160a01b039062002e6082600654163314620031a2565b166001600160a01b0319603354161760335580f35b838234620005e55781600319360112620005e5576020906001600160a01b03603654169051908152f35b83346200056b5760203660031901126200056b5762002ebd620030d7565b6001600160a01b039062002ed782600654163314620031a2565b166001600160a01b0319602d541617602d5580f35b83346200056b5760203660031901126200056b5762002f0a620030d7565b6001600160a01b039062002f2482600654163314620031a2565b166001600160a01b0319602154161760215580f35b838234620005e55781600319360112620005e5576020906001600160a01b03602a54169051908152f35b83346200056b5760203660031901126200056b5762002f81620030d7565b6001600160a01b039062002f9b82600654163314620031a2565b166001600160a01b0319602554161760255580f35b9091503462000aa057602036600319011262000aa05735916008548310156200056b57506001600160a01b0362000b316020935b6008548110156200301c5760086000527ff3f7a9fe364faab93b216da50a3214154f22a0a2b415b23a84c8169e8b636ee30190600090565b634e487b7160e01b600052603260045260246000fd5b600854156200301c5760086000527ff3f7a9fe364faab93b216da50a3214154f22a0a2b415b23a84c8169e8b636ee390600090565b6017548110156200301c5760176000527fc624b66cc0138b8fabc209247f72d758e1cf3343756d543badbf24212bed8c150190600090565b6016548110156200301c5760166000527fd833147d7dc355ba459fc788f669e58cfaf9dc25ddcd0702e87d69c7b51242890190600090565b600435906001600160a01b03821682036200200757565b602435906001600160a01b03821682036200200757565b604435906001600160a01b03821682036200200757565b67ffffffffffffffff81116200313157604052565b634e487b7160e01b600052604160045260246000fd5b90601f8019910116810190811067ffffffffffffffff8211176200313157604052565b606090600319011262002007576001600160a01b03906004358281168103620020075791602435908116810362002007579060443590565b15620031aa57565b606460405162461bcd60e51b815260206004820152600f60248201527f6f776e2e6e6f6e617574682e44414f00000000000000000000000000000000006044820152fd5b60085490680100000000000000008210156200313157620006558260016200321a940160085562002fe4565b565b9060165468010000000000000000811015620031315782620006558260016200324994016016556200309f565b6001600160a01b03928380921680620032ae575b50168062003288575b50168060005260186020526040600020906001600160a01b0319825416179055565b600052601860205260406000208282166001600160a01b03198254161790553862003266565b600052601860205260406000208284166001600160a01b0319825416179055386200325d565b908160209103126200200757516001600160a01b038116810362002007579056fe6080346100ca57601f6116ee38819003918201601f19168301916001600160401b038311848410176100cf578084926020946040528339810103126100ca57516001600160a01b038116908190036100ca5780156100855760018060a01b0319338160015416176001556000541617600055600160035560405161160890816100e68239f35b60405162461bcd60e51b815260206004820152601360248201527f6f776e2e696e76616c69642e68657862617365000000000000000000000000006044820152606490fd5b600080fd5b634e487b7160e01b600052604160045260246000fdfe60806040526004361015610018575b361561001657005b005b60003560e01c806312065fe0146101385780631f185d16146101335780633b9b79551461012e5780636ec35cd5146101295780638da5cb5b146101245780638dab13dc1461011f5780639b03bea61461011a5780639fb2726b14610115578063a1f7f53914610110578063a8ce509b1461010b578063acbd63af14610106578063af48452614610101578063b90306ad146100fc578063c54e44b0146100f7578063d7a83fc6146100f2578063e01ad5fd146100ed578063e0a9bc2b146100e85763fdc10bc90361000e57610c27565b610c0c565b610b72565b610b32565b610a90565b6109d4565b6109a3565b610954565b61068c565b6105a6565b6104b3565b61046b565b610418565b6103f1565b6102eb565b610293565b61016a565b3461015457600036600319011261015457602047604051908152f35b600080fd5b6001600160a01b0381160361015457565b34610154576020806003193601126101545760049081359061018b82610159565b806101ad6101a16000546001600160a01b031690565b6001600160a01b031690565b60405194858092634bf9c0ad60e11b82525afa91821561028e5761020161023b9361021d9261024d9660009261025b575b5061020f906040519384918783019190916001600160a01b036020820193169052565b03601f198101845283610d3b565b6102176112f6565b906114a7565b919080610251575b61022e9061132f565b80825183010191016110f3565b60405190151581529081906020820190565b0390f35b5081518114610225565b61020f91925061028090863d8811610287575b6102788183610d3b565b810190610d5d565b91906101de565b503d61026e565b610d72565b346101545760003660031901126101545760206001600160a01b0360005416604051908152f35b9181601f840112156101545782359167ffffffffffffffff8311610154576020808501948460051b01011161015457565b346101545760603660031901126101545767ffffffffffffffff6004358181116101545761031d9036906004016102ba565b602492919235828111610154576103389036906004016102ba565b9092604435908111610154576103529036906004016102ba565b939092610365610360611108565b610ddd565b61036e3361124c565b8015610387575b9561038261001697610e28565b610ea3565b506001600160a01b039560046020886000541660405192838092630536340960e21b82525afa801561028e5761001698610382926000926103d1575b503391161491975050610375565b6103ea91925060203d8111610287576102788183610d3b565b90386103c3565b346101545760003660031901126101545760206001600160a01b0360015416604051908152f35b346101545760203660031901126101545760043561043581610159565b6001600160a01b039081166000908152600660209081526040808320546007835292819020548151938516845290931690820152f35b34610154576020366003190112610154576001600160a01b0360043561049081610159565b1660005260086020526020604060002054604051908152f35b8015150361015457565b346101545760803660031901126101545767ffffffffffffffff600435818111610154576104e59036906004016102ba565b91602435908111610154576104fe9036906004016102ba565b6044359161050b836104a9565b610516610360611108565b61051f3361124c565b801561053c575b9461053361001696610e28565b60643594610f94565b506001600160a01b039460046020876000541660405192838092630536340960e21b82525afa801561028e576100169761053392600092610586575b503391161491965050610526565b61059f91925060203d8111610287576102788183610d3b565b9038610578565b3461015457600036600319011261015457600460206001600160a01b03600054166040519283809263d1f956b160e01b82525afa90811561028e5761024d9161063691600091610646575b506040516105fe81610cfe565b601381527f67657464656c656761746f72436f756e742829000000000000000000000000006020820152610630610d9a565b91611594565b6040519081529081906020820190565b61065e915060203d8111610287576102788183610d3b565b386105f1565b60409060031901126101545760043561067c81610159565b9060243561068981610159565b90565b346101545761069a36610664565b906001600160a01b0391828216156108ae576106f66106f26106eb336106d3856001600160a01b03166000526004602052604060002090565b906001600160a01b0316600052602052604060002090565b5460ff1690565b1590565b61092a576000926107116101a185546001600160a01b031690565b60405180917fab6e844f00000000000000000000000000000000000000000000000000000000825281600460209485935afa90811561028e5786918291829161090d575b506040517f45145fd7000000000000000000000000000000000000000000000000000000008582019081526001600160a01b0389166024808401919091528252906107a1604482610d3b565b51915afa6107ad610dad565b90158015610902575b6108d8576101a181836107d2946101a194518301019101610d5d565b156108ae578161084d7fae0545a793105c92763ffd2d1a106bc1e148f147ed5796b8706ba246e751d30d9361081a866001600160a01b03166000526006602052604060002090565b906001600160a01b03167fffffffffffffffffffffffff0000000000000000000000000000000000000000825416179055565b61086e3361081a866001600160a01b03166000526007602052604060002090565b61088f8461081a336001600160a01b03166000526005602052604060002090565b604080513381526001600160a01b03959095166020860152911692a280f35b60046040517fd92e233d000000000000000000000000000000000000000000000000000000008152fd5b60046040517fe10bf1cc000000000000000000000000000000000000000000000000000000008152fd5b5081815114156107b6565b6109249150843d8611610287576102788183610d3b565b38610755565b60046040517f747845de000000000000000000000000000000000000000000000000000000008152fd5b3461015457602060ff6109976001600160a01b0361097136610664565b9116600052600484526040600020906001600160a01b0316600052602052604060002090565b54166040519015158152f35b346101545760203660031901126101545760206109ca6004356109c581610159565b61124c565b6040519015158152f35b346101545760203660031901126101545760046001600160a01b036020816000541660405193848092630536340960e21b82525afa91821561028e57600092610a70575b5033911603610a2c576100166004356113b3565b606460405162461bcd60e51b815260206004820152600f60248201527f6f776e2e6e6f6e617574682e44414f00000000000000000000000000000000006044820152fd5b610a8991925060203d8111610287576102788183610d3b565b9038610a18565b3461015457602036600319011261015457600435610aad81610159565b803b6000610aba82610d7e565b92610ac86040519485610d3b565b82845260208401903c602d815110610aee57602a015160405160609190911c8152602090f35b606460405162461bcd60e51b815260206004820152601360248201527f4e6f742061206d696e696d616c2070726f7879000000000000000000000000006044820152fd5b34610154576020366003190112610154576020600435610b5181610159565b6001600160a01b038091166000526005825260406000205416604051908152f35b34610154576020806003193601126101545760048035610b9181610159565b6001600160a01b03928084600054166040519485809263d1f956b160e01b82525afa90811561028e5761024d9461023b94600093610bed575b506040519316818401528252610bdf82610cfe565b610be761137a565b90611558565b610c05919350823d8411610287576102788183610d3b565b9138610bca565b346101545760003660031901126101545760206109ca611108565b3461015457600036600319011261015457600460206001600160a01b0360005416604051928380927f447aa3040000000000000000000000000000000000000000000000000000000082525afa90811561028e5761024d9161063691600091610cca575b50604051610c9881610cfe565b600581527f61676528290000000000000000000000000000000000000000000000000000006020820152610630610d9a565b610ce2915060203d8111610287576102788183610d3b565b38610c8b565b634e487b7160e01b600052604160045260246000fd5b6040810190811067ffffffffffffffff821117610d1a57604052565b610ce8565b6020810190811067ffffffffffffffff821117610d1a57604052565b90601f8019910116810190811067ffffffffffffffff821117610d1a57604052565b90816020910312610154575161068981610159565b6040513d6000823e3d90fd5b67ffffffffffffffff8111610d1a57601f01601f191660200190565b60405190610da782610d1f565b60008252565b3d15610dd8573d90610dbe82610d7e565b91610dcc6040519384610d3b565b82523d6000602084013e565b606090565b15610de457565b606460405162461bcd60e51b815260206004820152601260248201527f6f776e2e696e76616c69642e69735361666500000000000000000000000000006044820152fd5b15610e2f57565b606460405162461bcd60e51b815260206004820152601b60248201527f6f776e2e6e6f6e617574682e44414f6f725365637572656261736500000000006044820152fd5b9190811015610e835760051b0190565b634e487b7160e01b600052603260045260246000fd5b3561068981610159565b939490929192818303610f3557600091825b848110610ec6575050505050505050565b80610ed4600192848b610e73565b35610ede816104a9565b6001600160a01b03610ef183878c610e73565b35610efb81610159565b1686526004602052610f2060408720610f15848a8c610e73565b35906106d382610159565b9060ff80198354169115151617905501610eb5565b60046040517fff633a38000000000000000000000000000000000000000000000000000000008152fd5b634e487b7160e01b600052601160045260246000fd5b91908203918211610f8257565b610f5f565b91908201809211610f8257565b9291828203610f355760005b828110610fb05750505050505050565b85156110765786610fe6610fcd610fc884878a610e73565b610e99565b6001600160a01b03166000526009602052604060002090565b54036110165760046040517fe3913549000000000000000000000000000000000000000000000000000000008152fd5b808761102b610fcd610fc8600195888b610e73565b55611037818685610e73565b3561106d61106561104c610fc885898c610e73565b6001600160a01b03166000526008602052604060002090565b918254610f87565b90555b01610fa0565b806110846001928685610e73565b356110a161109961104c610fc885898c610e73565b918254610f75565b9055611070565b156110af57565b606460405162461bcd60e51b815260206004820152601960248201527f6f776e2e7361666567756172642e63616c6c2e6661696c6564000000000000006044820152fd5b908160209103126101545751610689816104a9565b6001600160a01b03600054166040518091634bf9c0ad60e11b825281600460209384935afa91821561028e5761068992611190916000916111ab575b5060405161115181610cfe565b600881527f6973536166652829000000000000000000000000000000000000000000000000848201526040519161118783610d1f565b600083526114a7565b9190806111a1575b61022e906110a8565b5081518114611198565b6111c29150833d8511610287576102788183610d3b565b38611144565b604051906111d582610cfe565b601582527f69735365637572654261736528616464726573732900000000000000000000006020830152565b1561120857565b606460405162461bcd60e51b815260206004820152601a60248201527f6f776e2e736563757265626173652e63616c6c2e6661696c65640000000000006044820152fd5b6000546001600160a01b0316604051918291634bf9c0ad60e11b835282600460209485935afa92831561028e57610689936112b892610201926000926112d3575b506112b0906040519384918783019190916001600160a01b036020820193169052565b6102176111c8565b9190806112c9575b61022e90611201565b50815181146112c0565b6112b09192506112ef90863d8811610287576102788183610d3b565b919061128d565b6040519061130382610cfe565b601182527f69735369676e65722861646472657373290000000000000000000000000000006020830152565b1561133657565b606460405162461bcd60e51b815260206004820152601660248201527f6f776e2e7369676e65722e63616c6c2e6661696c6564000000000000000000006044820152fd5b6040519061138782610cfe565b601882527f697364656c656761746f724e6f646528616464726573732900000000000000006020830152565b6000600460206001600160a01b03835416604051928380927f46f991ac0000000000000000000000000000000000000000000000000000000082525afa90811561028e578284819382938391611489575b505af161140f610dad565b50156114455760405190815233907fcdcc745fe377b103b45fa0cec23ae3ef93d6fc6a84a01f0d18c40b354dd1d5d890602090a2565b606460405162461bcd60e51b815260206004820152600f60248201527f6f776e2e6275726e2e6661696c656400000000000000000000000000000000006044820152fd5b6114a1915060203d8111610287576102788183610d3b565b38611404565b9190823b1561153f577fffffffff00000000000000000000000000000000000000000000000000000000815160208093012016916040519180830193845281519160005b83811061152b57505050918161151860248260009795968897018783820152036004810184520182610d3b565b5191620dbba0fa611527610dad565b9091565b8181018301518582016024015282016114eb565b50505060009060405161155181610d1f565b6000815290565b9291611566916000946114a7565b9080611589575b6115745750565b610689919250602080825183010191016110f3565b50602081511461156d565b92916115a2916000946114a7565b90806115c7575b6115b05750565b909150602081805181010312610154576020015190565b5060208151146115a956fea2646970667358221220890f2910789c6bed7ef876a03ac9224629b1b4d5fcae22e01001b6722890fa1964736f6c63430008140033604060808152346200021a57620011ea803803806200001e8162000235565b928339810160a0828203126200021a5762000039826200025b565b602090620000498285016200025b565b91620000578686016200025b565b9462000066606082016200025b565b608082015190916001600160401b0391908282116200021a57019580601f880112156200021a5786519182116200021f5760059682881b908580620000ad81850162000235565b8096815201928201019283116200021a5785809101915b838310620001ff575050506001600160a01b039283169790508715620001bb5782908160018060a01b03199760019a338a8d5416178c556000998a54161789558160ff19988c8a60035416176003551689528987528b89208b8982541617905516875289872089878254161790551685528785208785825416179055805195855b8781106200015c578951610f799081620002718239f35b8251811015620001a75780821b83018501518416875260048552898720805487168a17905560001981146200019357880162000145565b634e487b7160e01b87526011600452602487fd5b634e487b7160e01b87526032600452602487fd5b885162461bcd60e51b815260048101859052601360248201527f6f776e2e696e76616c69642e68657862617365000000000000000000000000006044820152606490fd5b81906200020c846200025b565b8152019101908590620000c4565b600080fd5b634e487b7160e01b600052604160045260246000fd5b6040519190601f01601f191682016001600160401b038111838210176200021f57604052565b51906001600160a01b03821682036200021a5756fe60806040526004361015610018575b361561001657005b005b60003560e01c806312065fe0146101285780631d0c00e4146101235780631f185d161461011e5780633b9b7955146101195780636a276f9d146101145780637df73e271461010f57806384a8d0451461010a5780638da5cb5b14610105578063a1f7f53914610100578063af484526146100fb578063b90306ad146100f6578063c54e44b0146100f1578063dc3163e8146100ec578063e01ad5fd146100e7578063e0a9bc2b146100e2578063ef9eab9d146100dd5763fdc10bc90361000e576109d9565b610996565b6108f7565b61085d565b6107d9565b610737565b61061f565b61054e565b610490565b610469565b6103d7565b610394565b610371565b61034a565b610236565b61018c565b3461014457600036600319011261014457602047604051908152f35b600080fd5b6001600160a01b0381160361014457565b8015150361014457565b60409060031901126101445760043561017c81610149565b906024356101898161015a565b90565b3461014457600461019c36610164565b6001600160a01b0392919260009360208286541660405195868092630536340960e21b82525afa93841561023157610200946101e3918791610203575b5083163314610d52565b1683526004602052604083209060ff801983541691151516179055565b80f35b610224915060203d811161022a575b61021c8183610b06565b810190610b28565b386101d9565b503d610212565b610b3d565b34610144576020806003193601126101445760049081359061025782610149565b8061027961026d6000546001600160a01b031690565b6001600160a01b031690565b60405194858092634bf9c0ad60e11b82525afa918215610231576102cd610307936102e99261031996600092610327575b506102db906040519384918783019190916001600160a01b036020820193169052565b03601f198101845283610b06565b6102e3610c95565b90610e18565b91908061031d575b6102fa90610cce565b8082518301019101610bfc565b60405190151581529081906020820190565b0390f35b50815181146102f1565b6102db91925061034390863d881161022a5761021c8183610b06565b91906102aa565b346101445760003660031901126101445760206001600160a01b0360005416604051908152f35b3461014457600036600319011261014457602060ff600354166040519015158152f35b34610144576020366003190112610144576001600160a01b036004356103b981610149565b166000526005602052602060ff604060002054166040519015158152f35b34610144576020366003190112610144576004356103f48161015a565b60046001600160a01b036020816000541660405193848092630536340960e21b82525afa9081156102315761043492600092610449575b50163314610d52565b60ff8019600354169115151617600355600080f35b61046291925060203d811161022a5761021c8183610b06565b903861042b565b346101445760003660031901126101445760206001600160a01b0360015416604051908152f35b3461014457600036600319011261014457600460206001600160a01b03600054166040519283809263d1f956b160e01b82525afa908115610231576103199161052091600091610530575b506040516104e881610ac9565b601381527f67657464656c656761746f72436f756e74282900000000000000000000000000602082015261051a610b65565b91610f05565b6040519081529081906020820190565b610548915060203d811161022a5761021c8183610b06565b386104db565b34610144576020806003193601126101445760049081359061056f82610149565b8061058561026d6000546001600160a01b031690565b60405194858092634bf9c0ad60e11b82525afa918215610231576102cd610307936105e192610319966000926105fc575b506105d9906040519384918783019190916001600160a01b036020820193169052565b6102e3610c11565b9190806105f2575b6102fa90610c4a565b50815181146105e9565b6105d991925061061890863d881161022a5761021c8183610b06565b91906105b6565b3461014457602080600319360112610144576004356001600160a01b0391600092808454169060405191630536340960e21b83528383600481845afa92831561023157600493859361067a92899261071f5750163314610d52565b604051928380927f46f991ac0000000000000000000000000000000000000000000000000000000082525afa918215610231578480856106d195829583958492610702575b50505af16106cb610d9d565b50610dcd565b60405190815233907fcdcc745fe377b103b45fa0cec23ae3ef93d6fc6a84a01f0d18c40b354dd1d5d890602090a280f35b6107189250803d1061022a5761021c8183610b06565b38806106bf565b610462919250853d871161022a5761021c8183610b06565b346101445760203660031901126101445760043561075481610149565b803b600061076182610b49565b9261076f6040519485610b06565b82845260208401903c602d81511061079557602a015160405160609190911c8152602090f35b606460405162461bcd60e51b815260206004820152601360248201527f4e6f742061206d696e696d616c2070726f7879000000000000000000000000006044820152fd5b34610144576107e736610164565b6001600160a01b03600092600460208386541660405192838092630536340960e21b82525afa801561023157610827918691610203575083163314610d52565b168252600560205261084881604084209060ff801983541691151516179055565b156108505780f35b60ff196003541660035580f35b3461014457602080600319360112610144576004803561087c81610149565b6001600160a01b03928084600054166040519485809263d1f956b160e01b82525afa9081156102315761031994610307946000936108d8575b5060405193168184015282526108ca82610ac9565b6108d2610d19565b90610ec9565b6108f0919350823d841161022a5761021c8183610b06565b91386108b5565b34610144576000366003190112610144576001600160a01b03600054166040518091634bf9c0ad60e11b825281600460209384935afa9081156102315761095e6103079261031994600091610979575b50610950610b78565b610958610b65565b91610e18565b91908061096f575b6102fa90610bb1565b5081518114610966565b6109909150833d851161022a5761021c8183610b06565b38610947565b34610144576020366003190112610144576001600160a01b036004356109bb81610149565b166000526004602052602060ff604060002054166040519015158152f35b3461014457600036600319011261014457600460206001600160a01b0360005416604051928380927f447aa3040000000000000000000000000000000000000000000000000000000082525afa908115610231576103199161052091600091610a7c575b50604051610a4a81610ac9565b600581527f6167652829000000000000000000000000000000000000000000000000000000602082015261051a610b65565b610a94915060203d811161022a5761021c8183610b06565b38610a3d565b7f4e487b7100000000000000000000000000000000000000000000000000000000600052604160045260246000fd5b6040810190811067ffffffffffffffff821117610ae557604052565b610a9a565b6020810190811067ffffffffffffffff821117610ae557604052565b90601f8019910116810190811067ffffffffffffffff821117610ae557604052565b90816020910312610144575161018981610149565b6040513d6000823e3d90fd5b67ffffffffffffffff8111610ae557601f01601f191660200190565b60405190610b7282610aea565b60008252565b60405190610b8582610ac9565b600882527f69735361666528290000000000000000000000000000000000000000000000006020830152565b15610bb857565b606460405162461bcd60e51b815260206004820152601960248201527f6f776e2e7361666567756172642e63616c6c2e6661696c6564000000000000006044820152fd5b9081602091031261014457516101898161015a565b60405190610c1e82610ac9565b601582527f69735365637572654261736528616464726573732900000000000000000000006020830152565b15610c5157565b606460405162461bcd60e51b815260206004820152601a60248201527f6f776e2e736563757265626173652e63616c6c2e6661696c65640000000000006044820152fd5b60405190610ca282610ac9565b601182527f69735369676e65722861646472657373290000000000000000000000000000006020830152565b15610cd557565b606460405162461bcd60e51b815260206004820152601660248201527f6f776e2e7369676e65722e63616c6c2e6661696c6564000000000000000000006044820152fd5b60405190610d2682610ac9565b601882527f697364656c656761746f724e6f646528616464726573732900000000000000006020830152565b15610d5957565b606460405162461bcd60e51b815260206004820152600f60248201527f6f776e2e6e6f6e617574682e44414f00000000000000000000000000000000006044820152fd5b3d15610dc8573d90610dae82610b49565b91610dbc6040519384610b06565b82523d6000602084013e565b606090565b15610dd457565b606460405162461bcd60e51b815260206004820152600f60248201527f6f776e2e6275726e2e6661696c656400000000000000000000000000000000006044820152fd5b9190823b15610eb0577fffffffff00000000000000000000000000000000000000000000000000000000815160208093012016916040519180830193845281519160005b838110610e9c575050509181610e8960248260009795968897018783820152036004810184520182610b06565b5191620dbba0fa610e98610d9d565b9091565b818101830151858201602401528201610e5c565b505050600090604051610ec281610aea565b6000815290565b9291610ed791600094610e18565b9080610efa575b610ee55750565b61018991925060208082518301019101610bfc565b506020815114610ede565b9291610f1391600094610e18565b9080610f38575b610f215750565b909150602081805181010312610144576020015190565b506020815114610f1a56fea2646970667358221220de8c9b6b64e3dcdc1675f872ca269495c06ea1d5f39158f4b58ad38f3012ffe064736f6c63430008140033a2646970667358221220e3c9aed083a14f32815667eb2282e949ab7b4a9ad6b6f42ce21d414456039b0164736f6c63430008140033","linkReferences":{}},"methodIdentifiers":{"addOrc1155(address,address,address)":"1477e194","addOrc1155Prime(bytes,address)":"b113bd20","addProposer(address)":"b03cd418","daoassembly()":"d1f956b1","daocore()":"14d8d024","getProposalsCount()":"98e527d3","importBusiness(uint256)":"49fbed12","importuser(uint256)":"3676bd1f","in741()":"ab6e844f","in741Old()":"447aa304","in741Prime()":"a66bcbe2","in741PrimeOld()":"447bf0e2","in741Primev3Old()":"bd811bce","in741Rule()":"cfbffe53","in741RuleOld()":"bb245896","in741RulePrime()":"e1f4cd24","in741RulePrimeOld()":"efed51bb","inDEAD()":"46f991ac","inDeployerAService()":"677494d8","inDeployerAsRoot()":"de433f17","inImportForgePrimeold()":"e7531fc0","inInstance()":"e61dfd58","inInstancePrime()":"af233190","inInstanceStor()":"e09d394d","inNftFactory()":"08a887af","inNftProxy()":"43af1d9d","inOrc1155(uint256)":"b771c896","inOrc1155Old(uint256)":"c16addd0","inOrc1155OldV1(uint256)":"5c727e80","inOrc1155Prime(uint256)":"595e1dd2","inOrc1155PrimeOld()":"a7acacf8","inOrc1155PrimeOldV1()":"b3a86ab0","inOrc1155machinebullold()":"a5b277f2","inPrice()":"d3d1b096","inPrimeData()":"01c0d48b","inPrimeProxy()":"a0b8cbb8","inTransferPrimeold()":"f144dff0","inTransferold()":"c5a90db1","inTreaseryFactory()":"5e09dbe7","inTreaseryTVLMining()":"aa0ddc16","inTreaseryTVLMiningImport()":"21c82677","inTreaseryTVLMiningPrime()":"6b4aefc6","inTreaseryTVLReward()":"64027427","inTreaseryTVLRoyality()":"30125cf5","inTreaseryTVLTour()":"24768d91","inTreaseryTVLValidator()":"9dc969a8","inblank()":"448f3eef","infactoryold()":"5ad64af1","infactoryprimeold()":"da1be7d0","insafeguard()":"97f3815a","insafeguardOld()":"51ffe4c5","insafeguardPrime()":"af0deb95","insafeguardPrimeOld()":"a7d7fa50","invalidator()":"52b06d64","invalidatorOld()":"6325dd04","mapOldORC1155(address)":"cfaa1f6c","mapOldORC1155Prime(address)":"ed15cbf7","proposals(uint256)":"013cf08b","s1()":"6cc014de","s2()":"a314150f","s3()":"a5d666a9","submit(address,address,address,address,address)":"a11abe2a","update741(address)":"aeb14020","update741Old(address)":"236b0402","update741Prime(address)":"fc58f353","update741PrimeOld(address)":"66658584","update741Primev3Old(address)":"8360701d","update741Rule(address)":"753e7d33","update741RuleOld(address)":"507aa64f","update741RulePrime(address)":"cfacc010","update741RulePrimeOld(address)":"74dfe236","updateDAOAssembly(address)":"45d96de8","updateDAOCore(address)":"891e91a5","updateDEAD(address)":"0a4c9939","updateFactoryOld(address)":"42ac8f79","updateFactoryPrimeOld(address)":"1654f331","updateImportForgePrimeold(address)":"74fad9f9","updateInTransferOld(address)":"a2672aa8","updateInTransferPrimeOld(address)":"069f3e72","updateInstance(address)":"275424d0","updateInstancePrime(address)":"839a47a4","updateInstanceStor(address)":"6fa16598","updateNftProxy(address)":"f6065649","updateOrc1155(address,address,uint256)":"cc7cf18e","updateOrc1155MachineBullOld(address)":"c7bb7d4d","updateOrc1155Prime(address,address,uint256)":"ef140ed3","updateOrc1155PrimeOld(address)":"1a47ded5","updateOrc1155PrimeOldV1(address)":"0c32145a","updatePrice(address)":"96e85ced","updatePrimeData(address)":"335ab5f2","updatePrimeProxy(address)":"4588d010","updateProposals(address,uint256)":"e0cf4e9e","updateSafeguard(address)":"1162a5b1","updateSafeguardOld(address)":"a0449f45","updateSafeguardPrime(address)":"a9d5ae6f","updateSafeguardPrimeOld(address)":"9669f18f","updateTreaseryFactory(address)":"70ee2af8","updateTreaseryTVLMiningImport(address)":"014519e6","updateTreaseryTVLValidator(address)":"4b849a54","updateTreasuryTVLMining(address)":"130fba6d","updateTreasuryTVLMiningPrime(address)":"36c24c46","updateTreasuryTVLReward(address)":"05abae0d","updateTreasuryTVLRoyality(address)":"e2576819","updateTreasuryTVLTour(address)":"1b67970a","updateValidator(address)":"635b2770"},"id":68}