{"abi":[{"type":"constructor","inputs":[],"stateMutability":"nonpayable"},{"type":"fallback","stateMutability":"payable"},{"type":"receive","stateMutability":"payable"},{"type":"function","name":"addOrc1155","inputs":[{"name":"newAddr","type":"address","internalType":"address"},{"name":"oldAddr","type":"address","internalType":"address"},{"name":"oldAddrV1","type":"address","internalType":"address"}],"outputs":[],"stateMutability":"nonpayable"},{"type":"function","name":"addOrc1155Prime","inputs":[{"name":"params","type":"bytes","internalType":"bytes"},{"name":"oldAddr","type":"address","internalType":"address"}],"outputs":[],"stateMutability":"nonpayable"},{"type":"function","name":"addProposer","inputs":[{"name":"_a","type":"address","internalType":"address"}],"outputs":[],"stateMutability":"nonpayable"},{"type":"function","name":"daoassembly","inputs":[],"outputs":[{"name":"","type":"address","internalType":"address"}],"stateMutability":"view"},{"type":"function","name":"daocore","inputs":[],"outputs":[{"name":"","type":"address","internalType":"address"}],"stateMutability":"view"},{"type":"function","name":"getProposalsCount","inputs":[],"outputs":[{"name":"","type":"uint256","internalType":"uint256"}],"stateMutability":"view"},{"type":"function","name":"in741","inputs":[],"outputs":[{"name":"","type":"address","internalType":"address"}],"stateMutability":"view"},{"type":"function","name":"in741Old","inputs":[],"outputs":[{"name":"","type":"address","internalType":"address"}],"stateMutability":"view"},{"type":"function","name":"in741Prime","inputs":[],"outputs":[{"name":"","type":"address","internalType":"address"}],"stateMutability":"view"},{"type":"function","name":"in741PrimeOld","inputs":[],"outputs":[{"name":"","type":"address","internalType":"address"}],"stateMutability":"view"},{"type":"function","name":"in741Primev3Old","inputs":[],"outputs":[{"name":"","type":"address","internalType":"address"}],"stateMutability":"view"},{"type":"function","name":"in741Rule","inputs":[],"outputs":[{"name":"","type":"address","internalType":"address"}],"stateMutability":"view"},{"type":"function","name":"in741RuleOld","inputs":[],"outputs":[{"name":"","type":"address","internalType":"address"}],"stateMutability":"view"},{"type":"function","name":"in741RulePrime","inputs":[],"outputs":[{"name":"","type":"address","internalType":"address"}],"stateMutability":"view"},{"type":"function","name":"in741RulePrimeOld","inputs":[],"outputs":[{"name":"","type":"address","internalType":"address"}],"stateMutability":"view"},{"type":"function","name":"inDEAD","inputs":[],"outputs":[{"name":"","type":"address","internalType":"address"}],"stateMutability":"view"},{"type":"function","name":"inDeployerAService","inputs":[],"outputs":[{"name":"","type":"address","internalType":"address"}],"stateMutability":"view"},{"type":"function","name":"inDeployerAsRoot","inputs":[],"outputs":[{"name":"","type":"address","internalType":"address"}],"stateMutability":"view"},{"type":"function","name":"inImportForgePrimeold","inputs":[],"outputs":[{"name":"","type":"address","internalType":"address"}],"stateMutability":"view"},{"type":"function","name":"inInstance","inputs":[],"outputs":[{"name":"","type":"address","internalType":"address"}],"stateMutability":"view"},{"type":"function","name":"inInstancePrime","inputs":[],"outputs":[{"name":"","type":"address","internalType":"address"}],"stateMutability":"view"},{"type":"function","name":"inInstanceStor","inputs":[],"outputs":[{"name":"","type":"address","internalType":"address"}],"stateMutability":"view"},{"type":"function","name":"inNftFactory","inputs":[],"outputs":[{"name":"","type":"address","internalType":"address"}],"stateMutability":"view"},{"type":"function","name":"inNftProxy","inputs":[],"outputs":[{"name":"","type":"address","internalType":"address"}],"stateMutability":"view"},{"type":"function","name":"inOrc1155","inputs":[{"name":"","type":"uint256","internalType":"uint256"}],"outputs":[{"name":"","type":"address","internalType":"address"}],"stateMutability":"view"},{"type":"function","name":"inOrc1155Old","inputs":[{"name":"","type":"uint256","internalType":"uint256"}],"outputs":[{"name":"","type":"address","internalType":"address"}],"stateMutability":"view"},{"type":"function","name":"inOrc1155OldV1","inputs":[{"name":"","type":"uint256","internalType":"uint256"}],"outputs":[{"name":"","type":"address","internalType":"address"}],"stateMutability":"view"},{"type":"function","name":"inOrc1155Prime","inputs":[{"name":"","type":"uint256","internalType":"uint256"}],"outputs":[{"name":"","type":"address","internalType":"address"}],"stateMutability":"view"},{"type":"function","name":"inOrc1155PrimeOld","inputs":[],"outputs":[{"name":"","type":"address","internalType":"address"}],"stateMutability":"view"},{"type":"function","name":"inOrc1155PrimeOldV1","inputs":[],"outputs":[{"name":"","type":"address","internalType":"address"}],"stateMutability":"view"},{"type":"function","name":"inOrc1155machinebullold","inputs":[],"outputs":[{"name":"","type":"address","internalType":"address"}],"stateMutability":"view"},{"type":"function","name":"inPrice","inputs":[],"outputs":[{"name":"","type":"address","internalType":"address"}],"stateMutability":"view"},{"type":"function","name":"inPrimeData","inputs":[],"outputs":[{"name":"","type":"address","internalType":"address"}],"stateMutability":"view"},{"type":"function","name":"inPrimeProxy","inputs":[],"outputs":[{"name":"","type":"address","internalType":"address"}],"stateMutability":"view"},{"type":"function","name":"inTransferPrimeold","inputs":[],"outputs":[{"name":"","type":"address","internalType":"address"}],"stateMutability":"view"},{"type":"function","name":"inTransferold","inputs":[],"outputs":[{"name":"","type":"address","internalType":"address"}],"stateMutability":"view"},{"type":"function","name":"inTreaseryFactory","inputs":[],"outputs":[{"name":"","type":"address","internalType":"address"}],"stateMutability":"view"},{"type":"function","name":"inTreaseryTVLMining","inputs":[],"outputs":[{"name":"","type":"address","internalType":"address"}],"stateMutability":"view"},{"type":"function","name":"inTreaseryTVLMiningImport","inputs":[],"outputs":[{"name":"","type":"address","internalType":"address"}],"stateMutability":"view"},{"type":"function","name":"inTreaseryTVLMiningPrime","inputs":[],"outputs":[{"name":"","type":"address","internalType":"address"}],"stateMutability":"view"},{"type":"function","name":"inblank","inputs":[],"outputs":[{"name":"","type":"address","internalType":"address"}],"stateMutability":"view"},{"type":"function","name":"incointransfer","inputs":[],"outputs":[{"name":"","type":"address","internalType":"address"}],"stateMutability":"view"},{"type":"function","name":"infactoryold","inputs":[],"outputs":[{"name":"","type":"address","internalType":"address"}],"stateMutability":"view"},{"type":"function","name":"infactoryprimeold","inputs":[],"outputs":[{"name":"","type":"address","internalType":"address"}],"stateMutability":"view"},{"type":"function","name":"insafeguard","inputs":[],"outputs":[{"name":"","type":"address","internalType":"address"}],"stateMutability":"view"},{"type":"function","name":"insafeguardOld","inputs":[],"outputs":[{"name":"","type":"address","internalType":"address"}],"stateMutability":"view"},{"type":"function","name":"insafeguardPrime","inputs":[],"outputs":[{"name":"","type":"address","internalType":"address"}],"stateMutability":"view"},{"type":"function","name":"insafeguardPrimeOld","inputs":[],"outputs":[{"name":"","type":"address","internalType":"address"}],"stateMutability":"view"},{"type":"function","name":"invalidator","inputs":[],"outputs":[{"name":"","type":"address","internalType":"address"}],"stateMutability":"view"},{"type":"function","name":"invalidatorOld","inputs":[],"outputs":[{"name":"","type":"address","internalType":"address"}],"stateMutability":"view"},{"type":"function","name":"mapOldORC1155","inputs":[{"name":"","type":"address","internalType":"address"}],"outputs":[{"name":"","type":"address","internalType":"address"}],"stateMutability":"view"},{"type":"function","name":"mapOldORC1155Prime","inputs":[{"name":"","type":"address","internalType":"address"}],"outputs":[{"name":"","type":"address","internalType":"address"}],"stateMutability":"view"},{"type":"function","name":"proposals","inputs":[{"name":"","type":"uint256","internalType":"uint256"}],"outputs":[{"name":"","type":"address","internalType":"address"}],"stateMutability":"view"},{"type":"function","name":"s1","inputs":[],"outputs":[{"name":"","type":"address","internalType":"address"}],"stateMutability":"view"},{"type":"function","name":"s2","inputs":[],"outputs":[{"name":"","type":"address","internalType":"address"}],"stateMutability":"view"},{"type":"function","name":"s3","inputs":[],"outputs":[{"name":"","type":"address","internalType":"address"}],"stateMutability":"view"},{"type":"function","name":"submit","inputs":[{"name":"_hexNFTEngine","type":"address","internalType":"address"},{"name":"_hexDaoCore","type":"address","internalType":"address"},{"name":"_hexRules","type":"address","internalType":"address"},{"name":"_hexUserEngine","type":"address","internalType":"address"},{"name":"_hexInstanceEngine","type":"address","internalType":"address"}],"outputs":[],"stateMutability":"nonpayable"},{"type":"function","name":"update741","inputs":[{"name":"addr","type":"address","internalType":"address"}],"outputs":[],"stateMutability":"nonpayable"},{"type":"function","name":"update741Old","inputs":[{"name":"addr","type":"address","internalType":"address"}],"outputs":[],"stateMutability":"nonpayable"},{"type":"function","name":"update741Prime","inputs":[{"name":"addr","type":"address","internalType":"address"}],"outputs":[],"stateMutability":"nonpayable"},{"type":"function","name":"update741PrimeOld","inputs":[{"name":"addr","type":"address","internalType":"address"}],"outputs":[],"stateMutability":"nonpayable"},{"type":"function","name":"update741Primev3Old","inputs":[{"name":"addr","type":"address","internalType":"address"}],"outputs":[],"stateMutability":"nonpayable"},{"type":"function","name":"update741Rule","inputs":[{"name":"addr","type":"address","internalType":"address"}],"outputs":[],"stateMutability":"nonpayable"},{"type":"function","name":"update741RuleOld","inputs":[{"name":"addr","type":"address","internalType":"address"}],"outputs":[],"stateMutability":"nonpayable"},{"type":"function","name":"update741RulePrime","inputs":[{"name":"addr","type":"address","internalType":"address"}],"outputs":[],"stateMutability":"nonpayable"},{"type":"function","name":"update741RulePrimeOld","inputs":[{"name":"addr","type":"address","internalType":"address"}],"outputs":[],"stateMutability":"nonpayable"},{"type":"function","name":"updateCoinTransfer","inputs":[{"name":"addr","type":"address","internalType":"address"}],"outputs":[],"stateMutability":"nonpayable"},{"type":"function","name":"updateDAOAssembly","inputs":[{"name":"_dao","type":"address","internalType":"address"}],"outputs":[],"stateMutability":"nonpayable"},{"type":"function","name":"updateDAOCore","inputs":[{"name":"_dao","type":"address","internalType":"address"}],"outputs":[],"stateMutability":"nonpayable"},{"type":"function","name":"updateDEAD","inputs":[{"name":"addr","type":"address","internalType":"address"}],"outputs":[],"stateMutability":"nonpayable"},{"type":"function","name":"updateFactoryOld","inputs":[{"name":"addr","type":"address","internalType":"address"}],"outputs":[],"stateMutability":"nonpayable"},{"type":"function","name":"updateFactoryPrimeOld","inputs":[{"name":"addr","type":"address","internalType":"address"}],"outputs":[],"stateMutability":"nonpayable"},{"type":"function","name":"updateImportForgePrimeold","inputs":[{"name":"addr","type":"address","internalType":"address"}],"outputs":[],"stateMutability":"nonpayable"},{"type":"function","name":"updateInTransferOld","inputs":[{"name":"addr","type":"address","internalType":"address"}],"outputs":[],"stateMutability":"nonpayable"},{"type":"function","name":"updateInTransferPrimeOld","inputs":[{"name":"addr","type":"address","internalType":"address"}],"outputs":[],"stateMutability":"nonpayable"},{"type":"function","name":"updateInstance","inputs":[{"name":"addr","type":"address","internalType":"address"}],"outputs":[],"stateMutability":"nonpayable"},{"type":"function","name":"updateInstancePrime","inputs":[{"name":"addr","type":"address","internalType":"address"}],"outputs":[],"stateMutability":"nonpayable"},{"type":"function","name":"updateInstanceStor","inputs":[{"name":"addr","type":"address","internalType":"address"}],"outputs":[],"stateMutability":"nonpayable"},{"type":"function","name":"updateNftProxy","inputs":[{"name":"addr","type":"address","internalType":"address"}],"outputs":[],"stateMutability":"nonpayable"},{"type":"function","name":"updateOrc1155","inputs":[{"name":"_o","type":"address","internalType":"address"},{"name":"oldAddr","type":"address","internalType":"address"},{"name":"idx","type":"uint256","internalType":"uint256"}],"outputs":[],"stateMutability":"nonpayable"},{"type":"function","name":"updateOrc1155MachineBullOld","inputs":[{"name":"addr","type":"address","internalType":"address"}],"outputs":[],"stateMutability":"nonpayable"},{"type":"function","name":"updateOrc1155Prime","inputs":[{"name":"_o","type":"address","internalType":"address"},{"name":"oldAddr","type":"address","internalType":"address"},{"name":"idx","type":"uint256","internalType":"uint256"}],"outputs":[],"stateMutability":"nonpayable"},{"type":"function","name":"updateOrc1155PrimeOld","inputs":[{"name":"addr","type":"address","internalType":"address"}],"outputs":[],"stateMutability":"nonpayable"},{"type":"function","name":"updateOrc1155PrimeOldV1","inputs":[{"name":"addr","type":"address","internalType":"address"}],"outputs":[],"stateMutability":"nonpayable"},{"type":"function","name":"updatePrice","inputs":[{"name":"addr","type":"address","internalType":"address"}],"outputs":[],"stateMutability":"nonpayable"},{"type":"function","name":"updatePrimeData","inputs":[{"name":"addr","type":"address","internalType":"address"}],"outputs":[],"stateMutability":"nonpayable"},{"type":"function","name":"updatePrimeProxy","inputs":[{"name":"addr","type":"address","internalType":"address"}],"outputs":[],"stateMutability":"nonpayable"},{"type":"function","name":"updateProposals","inputs":[{"name":"_a","type":"address","internalType":"address"},{"name":"idx","type":"uint256","internalType":"uint256"}],"outputs":[],"stateMutability":"nonpayable"},{"type":"function","name":"updateSafeguard","inputs":[{"name":"addr","type":"address","internalType":"address"}],"outputs":[],"stateMutability":"nonpayable"},{"type":"function","name":"updateSafeguardOld","inputs":[{"name":"addr","type":"address","internalType":"address"}],"outputs":[],"stateMutability":"nonpayable"},{"type":"function","name":"updateSafeguardPrime","inputs":[{"name":"addr","type":"address","internalType":"address"}],"outputs":[],"stateMutability":"nonpayable"},{"type":"function","name":"updateSafeguardPrimeOld","inputs":[{"name":"addr","type":"address","internalType":"address"}],"outputs":[],"stateMutability":"nonpayable"},{"type":"function","name":"updateTreaseryFactory","inputs":[{"name":"addr","type":"address","internalType":"address"}],"outputs":[],"stateMutability":"nonpayable"},{"type":"function","name":"updateTreaseryTVLMiningImport","inputs":[{"name":"addr","type":"address","internalType":"address"}],"outputs":[],"stateMutability":"nonpayable"},{"type":"function","name":"updateTreasuryTVLMining","inputs":[{"name":"addr","type":"address","internalType":"address"}],"outputs":[],"stateMutability":"nonpayable"},{"type":"function","name":"updateTreasuryTVLMiningPrime","inputs":[{"name":"addr","type":"address","internalType":"address"}],"outputs":[],"stateMutability":"nonpayable"},{"type":"function","name":"updateValidator","inputs":[{"name":"addr","type":"address","internalType":"address"}],"outputs":[],"stateMutability":"nonpayable"},{"type":"function","name":"updateValidatorOld","inputs":[{"name":"addr","type":"address","internalType":"address"}],"outputs":[],"stateMutability":"nonpayable"},{"type":"error","name":"AlreadySubmitted","inputs":[]},{"type":"error","name":"NotAuthorized","inputs":[]}],"bytecode":{"object":"0x6080604052346200050b5760018060a01b0319600090808254168255600173376c3a0babd0ce07b78f82fc862a6cb7c82342d282825416178155816002541660025573301cad03ad5f18e71e0bf6d578820c5e836201c9826003541617600355735731f74dd52839d69b2b4427ce1439431f76a2ce8260045416176004556005734a516f5916d53ece27c00ab5e3923872ed19f090838254161781558260065416600655826007541660075582600954166009557360c95eb879eec03a0af4528a16f192e61a198f4083600a541617600a557308ff697696398fac0dcee979bb0f1fb7b7fc380b83600b541617600b5582600c5416600c5582600d5416600d5573f134e58248ab8380e911d36c21e1015e5e84814183600e541617600e5582600f5416600f5573882bf41aa8e3fad0695be39e4434af54786eb24a83601054161760105573c0cee8b561cc4f60869776ca5b0b7a295e04f5af808460115416176011558360125416601255836013541617601355739f33b44587a57758c1413dbab6640f6abea5cef483601454161760145573804f8004e7d361ab2a4335685d7c6893e67af7c1836015541617601555620001b962000510565b9173d03060e8ed7754aeed63e4e56b0457662d8164aa8352602091733dbd81ab6b37360016fbc6c96937c60334aaede48385015273085052532254e12989413f7c84dd32686bce74e19384604082015273284bf1d323c35b47fe1991cde5af634e3a661253606082015273b33443339919b2ae34888890d6c28b5666daaa3f6080820152601a5482601a55808310620004e0575b50601a87528387209083885b848110620004c457505050506200026f62000510565b73b8193c79fc3f1d7dfaa0bae85fe3b1bff0558abb8152736e5aa0e705b69459e1525b2c720e820cf3322f1b8482015273ef8fe7c57b613624c06f5ede5ebd639f6d5108176040820152735f141ba4a79fdc86ec5c8c044f721ce873db91b96060820152737117638c0dc12ffffdddf3630ac4ce5c9705e6ff6080820152601b5482601b5580831062000499575b50601b8752838720875b8381106200047e57505050505073951a7bbd21b4a6f49e62e040b992eed7120fcdd983601c541617601c55732463fc29b8b635c4120c4fe32aadc580d199348083601d541617601d55737e2baf007a3761d33afee572a7e7a08c1499b99d9081848254161790557343a87925ba12b33f0e2a40da70e239775db21169836021541617602155730fda18c5b31b5417478c012837909927361143ab836026541617602655730239667fa9f2269e36f32daf2ab391dc1ad9373883602754161760275573648565deb50c503ef59860d92942eaece0c3e17283602854161760285582602954161760295581602a541617602a55736c96f2d0c9a8b7fb472a319b1ecf7e8626c7b2ba81602b541617602b55739bfc2af8a5e49a72bfb58e22312ce07d61fe773981602c541617602c5573da61aaffd272e8755639544b0466e6fa1920b7b681602d541617602d5561dead816030541617603055806031541660315533908254161790556040516143b89081620005478239f35b82516001600160a01b03168282015591850191840162000307565b601b88528383868a2092830192015b828110620004b8575050620002fd565b898155018490620004a8565b82516001600160a01b0316848201559186019185910162000259565b601a88528383868a2092830192015b828110620004ff5750506200024d565b898155018490620004ef565b600080fd5b6040519060a082016001600160401b038111838210176200053057604052565b634e487b7160e01b600052604160045260246000fdfe604060808152600490813610156200001f575b505036156200001d57005b005b600091823560e01c8063013cf08b1462002803578063014519e614620027b657806301c0d48b146200278b578063069f3e72146200273e57806308a887af14620027135780630a4c993914620026c65780630c32145a14620026795780631162a5b1146200262c578063130fba6d14620025df5780631477e194146200257757806314d8d024146200254c5780631654f33114620024ff5780631a47ded514620024b25780631b4fc17b146200248757806321c82677146200245c578063236b0402146200240f57806323db614914620023c2578063275424d01462002375578063335ab5f2146200232857806336c24c4614620022db57806342ac8f79146200228e57806343af1d9d1462002263578063447aa3041462002238578063447bf0e2146200220d578063448f3eef14620021e25780634588d010146200219557806345d96de8146200214857806346f991ac146200211d578063507aa64f14620020d057806351ffe4c514620020a557806352b06d64146200207a578063595e1dd2146200204b5780635ad64af114620020205780635c727e801462001fc25780635e09dbe71462001f975780636325dd041462001f6c578063635b27701462001f1f578063666585841462001ed2578063677494d81462001ea75780636b4aefc61462001e7d5780636cc014de1462001e525780636fa165981462001e0557806370ee2af81462001db857806374dfe2361462001d6b57806374fad9f91462001d1e578063753e7d331462001cd15780638360701d1462001c84578063839a47a41462001c37578063891e91a51462001bea5780639669f18f1462001b9d57806396e85ced1462001b5057806397f3815a1462001b2557806398e527d31462001b04578063a0449f451462001ab7578063a0b8cbb81462001a8c578063a11abe2a1462000fe8578063a2672aa81462000f9b578063a314150f1462000f72578063a5b277f21462000f47578063a5d666a91462000f1c578063a66bcbe21462000ef1578063a7acacf81462000ec6578063a7d7fa501462000e9b578063a9d5ae6f1462000e4e578063aa0ddc161462000e23578063ab6e844f1462000df8578063aeb140201462000dab578063af0deb951462000d80578063af2331901462000d55578063b03cd4181462000d15578063b113bd201462000b34578063b3a86ab01462000b09578063b771c8961462000ac1578063bb2458961462000a96578063bd811bce1462000a6b578063c16addd01462000a0d578063c5a90db114620009e2578063c7bb7d4d1462000995578063cc7cf18e1462000937578063cfaa1f6c14620008f8578063cfacc01014620008ab578063cfbffe531462000880578063d1f956b11462000855578063d3d1b096146200082a578063da1be7d014620007ff578063de433f1714620007d5578063e09d394d14620007aa578063e0cf4e9e1462000761578063e1f4cd241462000736578063e61dfd58146200070b578063e7531fc014620006e0578063ed15cbf714620006a1578063ef140ed31462000616578063efed51bb14620005eb578063f144dff014620005bc578063f1cdfda3146200056f578063f606564914620005225763fc58f35314620004c5575062000012565b346200051e5760203660031901126200051e57620004e262002897565b6006546001600160a01b03939192919084163303620005115750501660018060a01b0319601254161760125580f35b5163ea8e4eb560e01b8152fd5b8280fd5b50346200051e5760203660031901126200051e576200054062002897565b6006546001600160a01b03939192919084163303620005115750501660018060a01b0319603254161760325580f35b50346200051e5760203660031901126200051e576200058d62002897565b6006546001600160a01b03939192919084163303620005115750501660018060a01b0319602d541617602d5580f35b505034620005e75781600319360112620005e75760295490516001600160a01b039091168152602090f35b5080fd5b505034620005e75781600319360112620005e75760105490516001600160a01b039091168152602090f35b50346200051e5762000628366200291b565b60065492946001600160a01b03949093851633036200069357509062000673856200065486946200285f565b90919082549060031b9160018060a01b03809116831b921b1916179055565b1684526019602052832080546001600160a01b0319169190921617905580f35b835163ea8e4eb560e01b8152fd5b505034620005e7576020366003190112620005e7576020916001600160a01b0390829082620006cf62002897565b168152601985522054169051908152f35b505034620005e75781600319360112620005e75760275490516001600160a01b039091168152602090f35b505034620005e75781600319360112620005e75760225490516001600160a01b039091168152602090f35b505034620005e75781600319360112620005e757600f5490516001600160a01b039091168152602090f35b50346200051e57816003193601126200051e576200077e62002897565b6006549092906001600160a01b03163303620005115783620007a784620006546024356200282d565b80f35b505034620005e75781600319360112620005e75760235490516001600160a01b039091168152602090f35b505034620005e75781600319360112620005e757905490516001600160a01b039091168152602090f35b505034620005e75781600319360112620005e757602c5490516001600160a01b039091168152602090f35b505034620005e75781600319360112620005e75760255490516001600160a01b039091168152602090f35b505034620005e75781600319360112620005e75760075490516001600160a01b039091168152602090f35b505034620005e75781600319360112620005e757600d5490516001600160a01b039091168152602090f35b50346200051e5760203660031901126200051e57620008c962002897565b6006546001600160a01b03939192919084163303620005115750501660018060a01b0319600f541617600f5580f35b505034620005e7576020366003190112620005e7576020916001600160a01b03908290826200092662002897565b168152601885522054169051908152f35b50346200051e5762000949366200291b565b60065492946001600160a01b03949093851633036200069357509062000975856200065486946200287b565b1684526018602052832080546001600160a01b0319169190921617905580f35b50346200051e5760203660031901126200051e57620009b362002897565b6006546001600160a01b03939192919084163303620005115750501660018060a01b0319602a541617602a5580f35b505034620005e75781600319360112620005e75760285490516001600160a01b039091168152602090f35b50346200051e5760203660031901126200051e5735601a548110156200051e57601a9092527f057c384a7d1c54f3a1b2e5e67b2617b8224fdfd1ea7234eea573a6ff665ff63e9091015490516001600160a01b039091168152602090f35b505034620005e75781600319360112620005e75760155490516001600160a01b039091168152602090f35b505034620005e75781600319360112620005e757600e5490516001600160a01b039091168152602090f35b50346200051e5760203660031901126200051e57359160165483101562000b06575062000af06020926200287b565b905491519160018060a01b039160031b1c168152f35b80fd5b505034620005e75781600319360112620005e757601d5490516001600160a01b039091168152602090f35b5090346200051e57806003193601126200051e576001600160401b0390823582811162000d11573660238201121562000d11578084013592831162000cfe5781519385602092601f199562000b918588601f8401160189620028e1565b80885236602482840101116200051e57806024869301838a01378701015262000bb9620028b3565b6006546001600160a01b0395919291908616330362000cef579583908660335416898751998a9363165fd13f60e01b85523087860152896024860152805190816044870152835b82811062000cd1575050848392601f8383966064809686010152011681010301925af195861562000cc757879662000c91575b5060175490600160401b82101562000c7e57506019929162000c6287620006548460018a96016017556200285f565b16865252832080546001600160a01b0319169190921617905580f35b634e487b7160e01b885260419052602487fd5b62000cb7919650833d851162000cbf575b62000cae8183620028e1565b81019062002a32565b943862000c33565b503d62000ca2565b84513d89823e3d90fd5b8181018801519681016064019690965289968d968f95500162000c00565b50835163ea8e4eb560e01b8152fd5b634e487b7160e01b855260418452602485fd5b8480fd5b50346200051e5760203660031901126200051e5762000d3362002897565b6006549092906001600160a01b03163303620005115783620007a78462002953565b505034620005e75781600319360112620005e75760245490516001600160a01b039091168152602090f35b505034620005e75781600319360112620005e757600c5490516001600160a01b039091168152602090f35b50346200051e5760203660031901126200051e5762000dc962002897565b6006546001600160a01b03939192919084163303620005115750501660018060a01b0319601154161760115580f35b505034620005e75781600319360112620005e75760115490516001600160a01b039091168152602090f35b505034620005e75781600319360112620005e757601f5490516001600160a01b039091168152602090f35b50346200051e5760203660031901126200051e5762000e6c62002897565b6006546001600160a01b03939192919084163303620005115750501660018060a01b0319600c541617600c5580f35b505034620005e75781600319360112620005e757600b5490516001600160a01b039091168152602090f35b505034620005e75781600319360112620005e757601c5490516001600160a01b039091168152602090f35b505034620005e75781600319360112620005e75760125490516001600160a01b039091168152602090f35b505034620005e75781600319360112620005e75760055490516001600160a01b039091168152602090f35b505034620005e75781600319360112620005e757602a5490516001600160a01b039091168152602090f35b50346200051e57826003193601126200051e575490516001600160a01b03909116815260209150f35b50346200051e5760203660031901126200051e5762000fb962002897565b6006546001600160a01b03939192919084163303620005115750501660018060a01b0319602854161760285580f35b5090346200051e5760a03660031901126200051e576200100762002897565b9062001012620028b3565b926200101d620028ca565b936001600160a01b03936064358581169081900362001a88576084359286841680940362001a845786895416330362001a7457866009541662001a6457855163501ad8ff60e11b815297602094918816858a8881845afa998a1562001810578b9a62001a40575b50602580549a8a166001600160a01b03199b8c161790558751631550316b60e21b815286818981855afa9081156200177857908a918d9162001a1e575b50168a601354161760135587516245cff960e81b815286818981855afa9081156200177857908a918d91620019fc575b50168a60115416176011558751631483745560e01b815286818981855afa908c8215620019f15788928a94928d9291620019cf575b50168c6007541617600755895192838092630536340960e21b82525afa908115620018105789929183918d91620019ad575b50168a600654161760065516918651630a5b38ab60e01b815285818881875afa90811562001810579089918c916200198b575b501689600d541617600d558651633da8676f60e01b815285818881875afa908b821562001980578792899492620011ca92916200195e575b5062002953565b885163131c73ad60e01b815292839182905afa90811562001910579088918b916200193c575b5016886023541617602355855163022ec09560e01b815284818781855afa90811562001910579088918b916200191a575b50168860225416176022558551639ba540fb60e01b815284818781855afa90811562001910579188869288948d91620018ee575b50168a601e541617601e55875192838092631af2bfe760e31b82525afa90811562001850579187859287948c91620018cc575b501689601f541617601f558651928380926314ac1b5960e21b82525afa908115620018a05786929183918a91620018aa575b501687602e541617602e551690835191635256382760e11b835281838581845afa928315620018a05788936200187c575b50856032931687845416178355845163d63843cd60e01b815282818681855afa90811562001850579087918a916200185a575b5016876033541617603355845191631a1575a560e01b835280838681855afa928315620018505789936200182c575b50601a928354156200181a57838a5287828b20541690601b9182541562001742579062001384918a858e868152205416916200297c565b8651631697db0560e01b81529382858881875afa94851562001810578b95620017ec575b5080549460019586101562001742578986858e858152200154168354871015620017945790620013e5918b888f80888a925220015416916200297c565b875163378136b960e21b815283818981885afa90811562001778578c91620017ca575b508154600210156200174257896002858e8581522001541683546002101562001794579062001445918b60028f80888a925220015416916200297c565b875163a0f0e54f60e01b81529383858981845afa94851562001778578c95620017a6575b5081549460039586101562001794578a86868f868152200154168454871015620017825791620014ab86928f948e8a868f9a99988a815220015416916200297c565b8a5163104e8cbd60e11b815294859182905afa92831562001778578c9362001754575b50805488101562001742578b528887848d200154169080548810156200174257908988858e620015069695815220015416916200297c565b8551916001600160401b03906101808401828111858210176200172f578852600b84528284019561016090813689378c875b620016db575b5060085415620016ca578a858e60088152205416865160051015620016b85760c08701528a60115416865160061015620016b85760e08701528a601e541691865160071015620016b857826101008801528b601f5416875160081015620016a6576101208801528b885416875160091015620016a6578e8d916101408a01525416918751600a1015620016955750908b9392918701528b602f541617602f555416928887541689600554169089519861192f90818b01958b8710908711176200168257509160c093918a99989697959362002a548b3960a08401958452878401528a83015230606083015260a06080830152518093520193928a5b82811062001669575050505050039085f09081156200166057501690600954161760095580f35b513d85823e3d90fd5b84518a1686528796509481019493810193830162001639565b634e487b7160e01b8f526041905260248efd5b634e487b7160e01b8f528a5260248efd5b634e487b7160e01b8f52828b5260248ffd5b634e487b7160e01b8e52818a5260248efd5b634e487b7160e01b8d52885260248cfd5b60058082101562001728578c620016f2836200287b565b905490871b1c16908851831015620017155782901b880187015287018762001538565b50634e487b7160e01b8f52828b5260248ffd5b506200153e565b634e487b7160e01b8c526041885260248cfd5b634e487b7160e01b8c5286885260248cfd5b62001770919350843d861162000cbf5762000cae8183620028e1565b9138620014ce565b89513d8e823e3d90fd5b634e487b7160e01b8e52888a5260248efd5b634e487b7160e01b8d5287895260248dfd5b620017c2919550843d861162000cbf5762000cae8183620028e1565b933862001469565b620017e59150843d861162000cbf5762000cae8183620028e1565b3862001408565b62001808919550833d851162000cbf5762000cae8183620028e1565b9338620013a8565b88513d8d823e3d90fd5b634e487b7160e01b8a5284865260248afd5b81620018489294503d851162000cbf5762000cae8183620028e1565b91386200134d565b86513d8b823e3d90fd5b620018759150843d861162000cbf5762000cae8183620028e1565b386200131e565b62001898919350823d841162000cbf5762000cae8183620028e1565b9138620012eb565b85513d8a823e3d90fd5b620018c59150853d871162000cbf5762000cae8183620028e1565b38620012ba565b620018e79150843d861162000cbf5762000cae8183620028e1565b3862001288565b620019099150843d861162000cbf5762000cae8183620028e1565b3862001255565b87513d8c823e3d90fd5b620019359150863d881162000cbf5762000cae8183620028e1565b3862001221565b620019579150863d881162000cbf5762000cae8183620028e1565b38620011f0565b620019799150843d861162000cbf5762000cae8183620028e1565b38620011c3565b8951903d90823e3d90fd5b620019a69150873d891162000cbf5762000cae8183620028e1565b386200118b565b620019c89150883d8a1162000cbf5762000cae8183620028e1565b3862001158565b620019ea9150843d861162000cbf5762000cae8183620028e1565b3862001126565b8a51903d90823e3d90fd5b62001a179150883d8a1162000cbf5762000cae8183620028e1565b38620010f1565b62001a399150883d8a1162000cbf5762000cae8183620028e1565b38620010c1565b62001a5c919a50863d881162000cbf5762000cae8183620028e1565b983862001084565b8551639fbfc58960e01b81528590fd5b855163ea8e4eb560e01b81528590fd5b8880fd5b8780fd5b505034620005e75781600319360112620005e75760315490516001600160a01b039091168152602090f35b50346200051e5760203660031901126200051e5762001ad562002897565b6006546001600160a01b03939192919084163303620005115750501660018060a01b0319600a541617600a5580f35b505034620005e75781600319360112620005e7576020906008549051908152f35b505034620005e75781600319360112620005e75760095490516001600160a01b039091168152602090f35b50346200051e5760203660031901126200051e5762001b6e62002897565b6006546001600160a01b03939192919084163303620005115750501660018060a01b0319602554161760255580f35b50346200051e5760203660031901126200051e5762001bbb62002897565b6006546001600160a01b03939192919084163303620005115750501660018060a01b0319600b541617600b5580f35b5090346200051e5760203660031901126200051e5762001c0962002897565b600654926001600160a01b03923384861603620005115750506001600160a01b031990921691161760065580f35b50346200051e5760203660031901126200051e5762001c5562002897565b6006546001600160a01b03939192919084163303620005115750501660018060a01b0319602454161760245580f35b50346200051e5760203660031901126200051e5762001ca262002897565b6006546001600160a01b03939192919084163303620005115750501660018060a01b0319601554161760155580f35b50346200051e5760203660031901126200051e5762001cef62002897565b6006546001600160a01b03939192919084163303620005115750501660018060a01b0319600d541617600d5580f35b50346200051e5760203660031901126200051e5762001d3c62002897565b6006546001600160a01b03939192919084163303620005115750501660018060a01b0319602754161760275580f35b50346200051e5760203660031901126200051e5762001d8962002897565b6006546001600160a01b03939192919084163303620005115750501660018060a01b0319601054161760105580f35b50346200051e5760203660031901126200051e5762001dd662002897565b6006546001600160a01b03939192919084163303620005115750501660018060a01b0319601e541617601e5580f35b50346200051e5760203660031901126200051e5762001e2362002897565b6006546001600160a01b03939192919084163303620005115750501660018060a01b0319602354161760235580f35b505034620005e75781600319360112620005e75760035490516001600160a01b039091168152602090f35b505034620005e75781600319360112620005e7576020805491516001600160a01b03909216825290f35b505034620005e75781600319360112620005e75760015490516001600160a01b039091168152602090f35b50346200051e5760203660031901126200051e5762001ef062002897565b6006546001600160a01b03939192919084163303620005115750501660018060a01b0319601454161760145580f35b50346200051e5760203660031901126200051e5762001f3d62002897565b6006546001600160a01b03939192919084163303620005115750501660018060a01b0319602e541617602e5580f35b505034620005e75781600319360112620005e757602d5490516001600160a01b039091168152602090f35b505034620005e75781600319360112620005e757601e5490516001600160a01b039091168152602090f35b50346200051e5760203660031901126200051e5735601b548110156200051e57601b9092527f3ad8aa4f87544323a9d1e5dd902f40c356527a7955687113db5f9a85ad579dc19091015490516001600160a01b039091168152602090f35b505034620005e75781600319360112620005e757602b5490516001600160a01b039091168152602090f35b50346200051e5760203660031901126200051e57359160175483101562000b06575062000af06020926200285f565b505034620005e75781600319360112620005e757602e5490516001600160a01b039091168152602090f35b505034620005e75781600319360112620005e757600a5490516001600160a01b039091168152602090f35b50346200051e5760203660031901126200051e57620020ee62002897565b6006546001600160a01b03939192919084163303620005115750501660018060a01b0319600e541617600e5580f35b505034620005e75781600319360112620005e75760305490516001600160a01b039091168152602090f35b50346200051e5760203660031901126200051e576200216662002897565b6006546001600160a01b03939192919084163303620005115750501660018060a01b0319600754161760075580f35b50346200051e5760203660031901126200051e57620021b362002897565b6006546001600160a01b03939192919084163303620005115750501660018060a01b0319603154161760315580f35b505034620005e75781600319360112620005e75760025490516001600160a01b039091168152602090f35b505034620005e75781600319360112620005e75760145490516001600160a01b039091168152602090f35b505034620005e75781600319360112620005e75760135490516001600160a01b039091168152602090f35b505034620005e75781600319360112620005e75760325490516001600160a01b039091168152602090f35b50346200051e5760203660031901126200051e57620022ac62002897565b6006546001600160a01b03939192919084163303620005115750501660018060a01b0319602b541617602b5580f35b50346200051e5760203660031901126200051e57620022f962002897565b6006546001600160a01b03939192919084163303620005115750501660018060a01b0319602054161760205580f35b50346200051e5760203660031901126200051e576200234662002897565b6006546001600160a01b03939192919084163303620005115750501660018060a01b0319602654161760265580f35b50346200051e5760203660031901126200051e576200239362002897565b6006546001600160a01b03939192919084163303620005115750501660018060a01b0319602254161760225580f35b50346200051e5760203660031901126200051e57620023e062002897565b6006546001600160a01b03939192919084163303620005115750501660018060a01b0319602f541617602f5580f35b50346200051e5760203660031901126200051e576200242d62002897565b6006546001600160a01b03939192919084163303620005115750501660018060a01b0319601354161760135580f35b505034620005e75781600319360112620005e75760215490516001600160a01b039091168152602090f35b505034620005e75781600319360112620005e757602f5490516001600160a01b039091168152602090f35b50346200051e5760203660031901126200051e57620024d062002897565b6006546001600160a01b03939192919084163303620005115750501660018060a01b0319601c541617601c5580f35b50346200051e5760203660031901126200051e576200251d62002897565b6006546001600160a01b03939192919084163303620005115750501660018060a01b0319602c541617602c5580f35b505034620005e75781600319360112620005e75760065490516001600160a01b039091168152602090f35b50919034620005e7576060366003190112620005e7576200259762002897565b620025a1620028b3565b90620025ac620028ca565b6006549093906001600160a01b03163303620025d05750620007a79394506200297c565b5163ea8e4eb560e01b81528590fd5b50346200051e5760203660031901126200051e57620025fd62002897565b6006546001600160a01b03939192919084163303620005115750501660018060a01b0319601f541617601f5580f35b50346200051e5760203660031901126200051e576200264a62002897565b6006546001600160a01b03939192919084163303620005115750501660018060a01b0319600954161760095580f35b50346200051e5760203660031901126200051e576200269762002897565b6006546001600160a01b03939192919084163303620005115750501660018060a01b0319601d541617601d5580f35b50346200051e5760203660031901126200051e57620026e462002897565b6006546001600160a01b03939192919084163303620005115750501660018060a01b0319603054161760305580f35b505034620005e75781600319360112620005e75760335490516001600160a01b039091168152602090f35b50346200051e5760203660031901126200051e576200275c62002897565b6006546001600160a01b03939192919084163303620005115750501660018060a01b0319602954161760295580f35b505034620005e75781600319360112620005e75760265490516001600160a01b039091168152602090f35b50346200051e5760203660031901126200051e57620027d462002897565b6006546001600160a01b03939192919084163303620005115750501660018060a01b0319602154161760215580f35b50346200051e5760203660031901126200051e57359160085483101562000b06575062000af06020925b6008548110156200284957600860005260206000200190600090565b634e487b7160e01b600052603260045260246000fd5b6017548110156200284957601760005260206000200190600090565b6016548110156200284957601660005260206000200190600090565b600435906001600160a01b0382168203620028ae57565b600080fd5b602435906001600160a01b0382168203620028ae57565b604435906001600160a01b0382168203620028ae57565b601f909101601f19168101906001600160401b038211908210176200290557604052565b634e487b7160e01b600052604160045260246000fd5b6060906003190112620028ae576001600160a01b03906004358281168103620028ae57916024359081168103620028ae579060443590565b60085490600160401b8210156200290557620006548260016200297a94016008556200282d565b565b90601654600160401b81101562002905578262000654826001620029a494016016556200287b565b6001600160a01b0392839182168062002a0b575b501680620029e4575b5016600081815260186020526040902080546001600160a01b0319169091179055565b600090815260186020526040902080546001600160a01b03191682841617905538620029c1565b600090815260186020526040902080546001600160a01b03191684841617905538620029b8565b90816020910312620028ae57516001600160a01b0381168103620028ae579056fe604060808152346200022a576200192f803803806200001e8162000245565b928339810160a0828203126200022a5762000039826200026b565b602090620000498285016200026b565b91620000578686016200026b565b9462000066606082016200026b565b608082015190916001600160401b0391908282116200022a57019580601f880112156200022a5786519182116200022f5760059682881b908580620000ad81850162000245565b8096815201928201019283116200022a5785809101915b8383106200020f575050506001600160a01b039283169790508715620001fe5760018060a01b03199560019833888b5416178a556000978854161787558360ff19968a88600d541617600d551680158015620001f3575b8015620001e8575b620001d7578752600f8552898720805487168a1790558316865288862080548616891790558216855287852080548516881790556003601055805195855b878110620001785789516116ae9081620002818239f35b8251811015620001c35780821b830185015184168752600e8552898720805487168a1790556000198114620001af57880162000161565b634e487b7160e01b87526011600452602487fd5b634e487b7160e01b87526032600452602487fd5b8a5163e6c4247b60e01b8152600490fd5b508483161562000123565b50848216156200011b565b885163e6c4247b60e01b8152600490fd5b81906200021c846200026b565b8152019101908590620000c4565b600080fd5b634e487b7160e01b600052604160045260246000fd5b6040519190601f01601f191682016001600160401b038111838210176200022f57604052565b51906001600160a01b03821682036200022a5756fe60806040526004361015610018575b361561001657005b005b60003560e01c80630a0d32ca146101a857806312065fe0146101a3578063198e206d1461019e5780631f185d1614610199578063339459a6146101945780633b9b79551461018f57806342f693db1461018a57806360bcf662146101855780636a276f9d146101805780637df73e271461017b57806388f87759146101765780638da5cb5b146101715780638f41f4e61461016c5780639dcba53014610167578063a1f7f53914610162578063af4845261461015d578063b72d419514610158578063b8df453314610153578063b90306ad1461014e578063c54e44b014610149578063d1a6264814610144578063e01ad5fd1461013f578063e0a9bc2b1461013a578063ef9eab9d146101355763fdc10bc90361000e576110d2565b611090565b61106b565b610fa4565b610f86565b610f2a565b610e42565b610e24565b610e06565b610d8f565b610d25565b610cbc565b610c9e565b610c75565b610c2d565b610beb565b610bc8565b610abb565b6109fb565b6109d2565b610605565b61053e565b610292565b610244565b610200565b6001600160a01b031690565b6001600160a01b038116036101ca57565b600080fd5b6001600160a01b03166000908152600f6020526040902090565b9060018060a01b0316600052602052604060002090565b346101ca5760403660031901126101ca57602060ff610238602435610224816101b9565b6004356000526013845260406000206101e9565b54166040519015158152f35b346101ca5760003660031901126101ca57602047604051908152f35b801515036101ca57565b60409060031901126101ca57600435610282816101b9565b9060243561028f81610260565b90565b346101ca576102a03661026a565b33600052600f602052604060ff8160002054161561052e576001600160a01b03831692831561051d576001600160a01b038116600090815260146020526040902060028101906102f1825460ff1690565b801561050d575b156104ed57805460ff191660ff8615151617815560006001820155815460ff1916825560165460038201555b60165461035261034b3361034687610346866000526015602052604060002090565b6101e9565b5460ff1690565b6104dc5760029161038861037b6001936103468861034633936000526015602052604060002090565b805460ff19166001179055565b0161039381546115c7565b908190558451861515815260208101829052879033907ff8c8cd35a98d3e7fc3355d901460945a800b136955f0ce345ed35692537ee2ce90604090a310156103d757005b805460ff191660011790558215610464576103f461034b826101cf565b610453579161044e9161041861037b600080516020611659833981519152956101cf565b61042b6104266010546115c7565b601055565b61043e6104396016546115c7565b601655565b5191829182901515815260200190565b0390a2005b815163baf3f0f760e01b8152600490fd5b61047761047361034b836101cf565b1590565b6104cb5760016010541115610453579161044e916104b06104a6600080516020611659833981519152956101cf565b805460ff19169055565b6104be6104266010546115f0565b6104c66115fd565b61042b565b815163ea8e4eb560e01b8152600490fd5b845163baf3f0f760e01b8152600490fd5b805460ff1615158515151461032457835163baf3f0f760e01b8152600490fd5b50600381015460165414156102f8565b815163e6c4247b60e01b8152600490fd5b5163ea8e4eb560e01b8152600490fd5b346101ca576020806003193601126101ca576105b160043561055f816101b9565b6002546040516001600160a01b0392831685820152848152911661058282611134565b6040519061058f82611134565b601182527069735369676e657228616464726573732960781b858301526114dc565b9190806105fb575b156105e95781816105d3926105e594518301019101611425565b60405191829182901515815260200190565b0390f35b60405163baf3f0f760e01b8152600490fd5b50808251146105b9565b346101ca576000806003193601126109cf5761062961062482546101ad565b6101ad565b60408051634bf9c0ad60e11b81529160049190602080858581855afa9485156108965786956109b0575b50825163cfbffe5360e01b81529281848681865afa938415610896578794610991575b50805163ab6e844f60e01b815282818781875afa908115610896578891610974575b508151630536340960e21b815283818881885afa908115610896578991610957575b50825163d1f956b160e01b81529084828981895afa918215610896578a92610938575b508351631cc3bfab60e31b81529285848a818a5afa938415610896578b94610919575b50845163e09d394d60e01b81529486868b818b5afa958615610896578c966108fa575b5080516314ac1b5960e21b815298878a8c818c5afa9788156108965761076a9a8e996108db575b50808c8451809d819263013cf08b60e01b83528201906000602083019252565b03818d5afa998a15610896578c9b8f9b6108bc575b50818451809d635e09dbe760e01b825281845afa9b8c15610896578f9c61089b575b50819084519d8e8092635506ee0b60e11b82525afa9b8c15610896578e9c610867575b506107cd6111b3565b9c6107d8908e6111d3565b8c01906107e4916111d3565b8a01906107f0916111d3565b6107fd9060608a016111d3565b61080a90608089016111d3565b6108179060a088016111d3565b6108249060c087016111d3565b6108319060e086016111d3565b61083f9061010085016111d3565b61084d9061012084016111d3565b61085b9061014083016111d3565b610864906111e2565b80f35b81610888929d508d3d1061088f575b610880818361116f565b810190611192565b9a386107c4565b503d610876565b6111a7565b82919c506108b590823d841161088f57610880818361116f565b9b906107a1565b6108d4919b50823d841161088f57610880818361116f565b993861077f565b816108f3929a503d8b1161088f57610880818361116f565b973861074a565b610912919650873d891161088f57610880818361116f565b9438610723565b610931919450863d881161088f57610880818361116f565b9238610700565b610950919250853d871161088f57610880818361116f565b90386106dd565b61096e9150843d861161088f57610880818361116f565b386106ba565b61098b9150833d851161088f57610880818361116f565b38610698565b6109a9919450823d841161088f57610880818361116f565b9238610676565b816109c89296503d871161088f57610880818361116f565b9338610653565b80fd5b346101ca5760003660031901126101ca576000546040516001600160a01b039091168152602090f35b346101ca57610a093661026a565b90610a1261143a565b15610aa9576005546001600160a01b03919082163303610a975716908115610a855760207fa65933db1726765ba3710fce8d88f0eae1bce0b3609d21f958a3e0e9daa8717d9183600052600e8252610a7a8160406000209060ff801983541691151516179055565b6040519015158152a2005b60405163e6c4247b60e01b8152600490fd5b60405163ea8e4eb560e01b8152600490fd5b604051634ee2123760e11b8152600490fd5b346101ca576000806003193601126109cf57338152600f602052604060ff81832054161561052e57600d5460ff16610bb857601154610b0b61034b33610346846000526013602052604060002090565b6104535761037b610b2b9161034633916000526013602052604060002090565b610b3e610b396012546115c7565b601255565b60125460105482518281526020810182905290919033907f20671cfeca0a197284b9e2d72d8b6e1e147012ff9c4c4970975ab2f3660d905190604090a21015610b85575080f35b60008051602061163983398151915290610ba7600160ff19600d541617600d55565b5160018152602090a16108646115db565b5163baf3f0f760e01b8152600490fd5b346101ca5760003660031901126101ca57602060ff600d54166040519015158152f35b346101ca5760203660031901126101ca57600435610c08816101b9565b60018060a01b0316600052600f602052602060ff604060002054166040519015158152f35b346101ca5760603660031901126101ca57602060ff610238602435610c51816101b9565b61034660443591610c61836101b9565b6004356000526015865260406000206101e9565b346101ca5760003660031901126101ca576001546040516001600160a01b039091168152602090f35b346101ca5760003660031901126101ca576020601654604051908152f35b346101ca5760203660031901126101ca57600435610cd9816101b9565b60018060a01b031660005260146020526080604060002060ff81541690600181015490600360ff6002830154169101549160405193151584526020840152151560408301526060820152f35b346101ca5760003660031901126101ca576020610d8760018060a01b0360065416604051610d5281611134565b601381527267657464656c656761746f72436f756e74282960681b8482015260405191610d7e83611154565b60008352611573565b604051908152f35b346101ca576020806003193601126101ca576105b1600435610db0816101b9565b6002546040516001600160a01b03928316858201528481529116610dd382611134565b60405190610de082611134565b601582527469735365637572654261736528616464726573732960581b858301526114dc565b346101ca5760003660031901126101ca576020601154604051908152f35b346101ca5760003660031901126101ca576020601254604051908152f35b346101ca5760203660031901126101ca57600435610e5e61143a565b15610aa9576005546001600160a01b03163303610a975760009060046020610e8961062485546101ad565b6040516311be646b60e21b815292839182905afa80156108965783808481949382948391610f0c575b505af1610ebd6114ac565b50156105e9577fcdcc745fe377b103b45fa0cec23ae3ef93d6fc6a84a01f0d18c40b354dd1d5d8610f06610ef5610624600b546101ad565b604051938452929081906020820190565b0390a280f35b610f24915060203d811161088f57610880818361116f565b38610eb2565b346101ca5760203660031901126101ca57600435610f47816101b9565b803b6000610f548261140a565b92610f62604051948561116f565b82845260208401903c602d8151106105e957602a602091015160601c604051908152f35b346101ca5760003660031901126101ca576020601054604051908152f35b346101ca576020806003193601126101ca576105e59060043590610fc7826101b9565b6006546040516001600160a01b039384168382015282815292169161102790610fef81611134565b604051610ffb81611134565b6018815277697364656c656761746f724e6f646528616464726573732960401b848201526000946114dc565b919080611061575b611048575b505060405191829182901515815260200190565b61105a92508082518301019101611425565b3880611034565b508082511461102f565b346101ca5760003660031901126101ca57602061108661143a565b6040519015158152f35b346101ca5760203660031901126101ca576004356110ad816101b9565b60018060a01b0316600052600e602052602060ff604060002054166040519015158152f35b346101ca5760003660031901126101ca576020610d8760018060a01b03600354166040516110ff81611134565b600681526569416765282960d01b8482015260405191610d7e83611154565b634e487b7160e01b600052604160045260246000fd5b604081019081106001600160401b0382111761114f57604052565b61111e565b602081019081106001600160401b0382111761114f57604052565b601f909101601f19168101906001600160401b0382119082101761114f57604052565b908160209103126101ca575161028f816101b9565b6040513d6000823e3d90fd5b6040519061016082016001600160401b0381118382101761114f57604052565b6001600160a01b039091169052565b6113e66101406114089261121b6111f982516101ad565b600280546001600160a01b0319166001600160a01b0392909216919091179055565b61124d61122b60208301516101ad565b600380546001600160a01b0319166001600160a01b0392909216919091179055565b61127f61125d60408301516101ad565b600480546001600160a01b0319166001600160a01b0392909216919091179055565b6112b161128f60608301516101ad565b600580546001600160a01b0319166001600160a01b0392909216919091179055565b6112e36112c160808301516101ad565b600680546001600160a01b0319166001600160a01b0392909216919091179055565b6113156112f360a08301516101ad565b600780546001600160a01b0319166001600160a01b0392909216919091179055565b61134761132560c08301516101ad565b600880546001600160a01b0319166001600160a01b0392909216919091179055565b61137961135760e08301516101ad565b600980546001600160a01b0319166001600160a01b0392909216919091179055565b6113ac61138a6101008301516101ad565b600a80546001600160a01b0319166001600160a01b0392909216919091179055565b6113df6113bd6101208301516101ad565b600b80546001600160a01b0319166001600160a01b0392909216919091179055565b01516101ad565b600c80546001600160a01b0319166001600160a01b0392909216919091179055565b565b6001600160401b03811161114f57601f01601f191660200190565b908160209103126101ca575161028f81610260565b600254604051611482916001600160a01b03169061145781611134565b6008815267697353616665282960c01b60208201526040519161147983611154565b600083526114dc565b90806114a1575b156105e9578060208061028f93518301019101611425565b506020815114611489565b3d156114d7573d906114bd8261140a565b916114cb604051938461116f565b82523d6000602084013e565b606090565b9190823b1561155a578051906020918263ffffffff60e01b92012016916040519180830193845281519160005b8381106115465750505091816115366024826000979596889701878382015203600481018452018261116f565b51915afa6115426114ac565b9091565b818101830151858201602401528201611509565b50505060009060405161156c81611154565b6000815290565b9291611581916000946114dc565b90806115a6575b61158f5750565b9091506020818051810103126101ca576020015190565b506020815114611588565b634e487b7160e01b600052601160045260246000fd5b60001981146115d65760010190565b6115b1565b6115e66011546115c7565b6011556000601255565b80156115d6576000190190565b600d5460ff8116611612575b506114086115db565b60ff1916600d55600080516020611639833981519152602060405160008152a13861160956fe076cac55475ef0bf37a3223aa6260a31b7df55505a72abbd629afe9f79b1d5b2fcaa24b1276bfa7dbf77797c0a984b9df924acbeaabd48cd2f1b0eca379b78faa264697066735822122033632b7af0f747e9efbe25662c007d03671b91414b4207350adad7e35931f62e64736f6c63430008140033a2646970667358221220c29fdd9869e8174b754ff6d968691f819d9a30bfc8fb0637f7686cffedd4110364736f6c63430008140033","linkReferences":{}},"methodIdentifiers":{"addOrc1155(address,address,address)":"1477e194","addOrc1155Prime(bytes,address)":"b113bd20","addProposer(address)":"b03cd418","daoassembly()":"d1f956b1","daocore()":"14d8d024","getProposalsCount()":"98e527d3","in741()":"ab6e844f","in741Old()":"447aa304","in741Prime()":"a66bcbe2","in741PrimeOld()":"447bf0e2","in741Primev3Old()":"bd811bce","in741Rule()":"cfbffe53","in741RuleOld()":"bb245896","in741RulePrime()":"e1f4cd24","in741RulePrimeOld()":"efed51bb","inDEAD()":"46f991ac","inDeployerAService()":"677494d8","inDeployerAsRoot()":"de433f17","inImportForgePrimeold()":"e7531fc0","inInstance()":"e61dfd58","inInstancePrime()":"af233190","inInstanceStor()":"e09d394d","inNftFactory()":"08a887af","inNftProxy()":"43af1d9d","inOrc1155(uint256)":"b771c896","inOrc1155Old(uint256)":"c16addd0","inOrc1155OldV1(uint256)":"5c727e80","inOrc1155Prime(uint256)":"595e1dd2","inOrc1155PrimeOld()":"a7acacf8","inOrc1155PrimeOldV1()":"b3a86ab0","inOrc1155machinebullold()":"a5b277f2","inPrice()":"d3d1b096","inPrimeData()":"01c0d48b","inPrimeProxy()":"a0b8cbb8","inTransferPrimeold()":"f144dff0","inTransferold()":"c5a90db1","inTreaseryFactory()":"5e09dbe7","inTreaseryTVLMining()":"aa0ddc16","inTreaseryTVLMiningImport()":"21c82677","inTreaseryTVLMiningPrime()":"6b4aefc6","inblank()":"448f3eef","incointransfer()":"1b4fc17b","infactoryold()":"5ad64af1","infactoryprimeold()":"da1be7d0","insafeguard()":"97f3815a","insafeguardOld()":"51ffe4c5","insafeguardPrime()":"af0deb95","insafeguardPrimeOld()":"a7d7fa50","invalidator()":"52b06d64","invalidatorOld()":"6325dd04","mapOldORC1155(address)":"cfaa1f6c","mapOldORC1155Prime(address)":"ed15cbf7","proposals(uint256)":"013cf08b","s1()":"6cc014de","s2()":"a314150f","s3()":"a5d666a9","submit(address,address,address,address,address)":"a11abe2a","update741(address)":"aeb14020","update741Old(address)":"236b0402","update741Prime(address)":"fc58f353","update741PrimeOld(address)":"66658584","update741Primev3Old(address)":"8360701d","update741Rule(address)":"753e7d33","update741RuleOld(address)":"507aa64f","update741RulePrime(address)":"cfacc010","update741RulePrimeOld(address)":"74dfe236","updateCoinTransfer(address)":"23db6149","updateDAOAssembly(address)":"45d96de8","updateDAOCore(address)":"891e91a5","updateDEAD(address)":"0a4c9939","updateFactoryOld(address)":"42ac8f79","updateFactoryPrimeOld(address)":"1654f331","updateImportForgePrimeold(address)":"74fad9f9","updateInTransferOld(address)":"a2672aa8","updateInTransferPrimeOld(address)":"069f3e72","updateInstance(address)":"275424d0","updateInstancePrime(address)":"839a47a4","updateInstanceStor(address)":"6fa16598","updateNftProxy(address)":"f6065649","updateOrc1155(address,address,uint256)":"cc7cf18e","updateOrc1155MachineBullOld(address)":"c7bb7d4d","updateOrc1155Prime(address,address,uint256)":"ef140ed3","updateOrc1155PrimeOld(address)":"1a47ded5","updateOrc1155PrimeOldV1(address)":"0c32145a","updatePrice(address)":"96e85ced","updatePrimeData(address)":"335ab5f2","updatePrimeProxy(address)":"4588d010","updateProposals(address,uint256)":"e0cf4e9e","updateSafeguard(address)":"1162a5b1","updateSafeguardOld(address)":"a0449f45","updateSafeguardPrime(address)":"a9d5ae6f","updateSafeguardPrimeOld(address)":"9669f18f","updateTreaseryFactory(address)":"70ee2af8","updateTreaseryTVLMiningImport(address)":"014519e6","updateTreasuryTVLMining(address)":"130fba6d","updateTreasuryTVLMiningPrime(address)":"36c24c46","updateValidator(address)":"635b2770","updateValidatorOld(address)":"f1cdfda3"},"id":79}