{"abi":[{"type":"function","name":"deployNFT","inputs":[{"name":"_hex","type":"address","internalType":"address"},{"name":"params","type":"bytes","internalType":"bytes"}],"outputs":[{"name":"","type":"address","internalType":"address"}],"stateMutability":"nonpayable"},{"type":"function","name":"getCatNFTParamsEncoded","inputs":[],"outputs":[{"name":"","type":"bytes","internalType":"bytes"}],"stateMutability":"pure"},{"type":"function","name":"getDragonNFTParamsEncoded","inputs":[],"outputs":[{"name":"","type":"bytes","internalType":"bytes"}],"stateMutability":"pure"},{"type":"function","name":"getLionNFTParamsEncoded","inputs":[],"outputs":[{"name":"","type":"bytes","internalType":"bytes"}],"stateMutability":"pure"},{"type":"function","name":"getMachineBullNFTParamsEncoded","inputs":[],"outputs":[{"name":"","type":"bytes","internalType":"bytes"}],"stateMutability":"pure"},{"type":"function","name":"getMonalisaNFTParamsEncoded","inputs":[],"outputs":[{"name":"","type":"bytes","internalType":"bytes"}],"stateMutability":"pure"},{"type":"function","name":"getNeonlitNFTParamsEncoded","inputs":[],"outputs":[{"name":"","type":"bytes","internalType":"bytes"}],"stateMutability":"pure"}],"bytecode":{"object":"0x6080806040523461001657615f6d908161001c8239f35b600080fdfe60808060405260043610156200001457600080fd5b60003560e01c9081630c5b0ac61462000bf657508063145d523f1462000a31578063165fd13f14620007bb5780634c54bc5514620005f65780638cfa829d1462000448578063d127b27814620002c65763f0ea4497146200007457600080fd5b34620002c1576000366003190112620002c15760405161034081018181106001600160401b03821117620002ab57604052601980825260005b610320811062000299575060005b8181106200020057620001a883620001e6604051620000da8162000dae565b60048152620001d7602093632634b7b760e11b85840152604051620000ff8162000d92565b604481527f68747470733a2f2f6f7a6f6e6531336164633764613864323537636163643631868201527f3163306432386539383661663235376232323931302e6f7a6f6e6573746f72656040820152632e696f2f60e01b6060820152604051936200016a8562000d92565b8452858401908152604084019164174876e800835260608501908152620001bf6040519889968980890152516080604089015260c088019062000d6b565b925192603f19938488830301606089015262000d6b565b9251608086015251908483030160a085015262000e55565b03601f19810184528362000dca565b620001fc60405192828493845283019062000d6b565b0390f35b600181019081811162000283576200021c6200027d9262000f5d565b6200025d6040519182602091654c696f6e5f5f60d01b838301526200024c81518092602695868601910162000d46565b810103600681018452018262000dca565b62000269828662000ec5565b5262000276818562000ec5565b5062000eb5565b620000bb565b634e487b7160e01b600052601160045260246000fd5b806060602080938601015201620000ad565b634e487b7160e01b600052604160045260246000fd5b600080fd5b34620002c1576000366003190112620002c1576040516101e081018181106001600160401b03821117620002ab57604052600e80825260005b6101c0811062000436575060005b818110620003cc57620001fc620003b7846040516200032c8162000dae565b600c81526b135858da1a5b9948109d5b1b60a21b602082015260405190620003548262000d92565b604482527f68747470733a2f2f6f7a6f6e653561346630623564623737626637336239353460208301527f6461363430336162326433313138633463616436632e6f7a6f6e6573746f72656040830152632e696f2f60e01b606083015262000ef0565b60405191829160208352602083019062000d6b565b60018101908181116200028357620003e8620004309262000f5d565b6200025d60405191826020916d4d616368696e652042756c6c5f5f60901b838301526200042081518092602e95868601910162000d46565b8101038681018452018262000dca565b6200030d565b806060602080938601015201620002ff565b34620002c1576000366003190112620002c15760405161020081018181106001600160401b03821117620002ab57604052600f80825260005b6101e08110620005e4575060005b8181106200057957620001a883620001e6604051620004ae8162000dae565b60038152620001d76020936210d85d60ea1b85840152604051620004d28162000d92565b604481527f68747470733a2f2f6f7a6f6e6563383433313931313037663531656665363762868201527f3736636637333932366563353831353232343461332e6f7a6f6e6573746f72656040820152632e696f2f60e01b6060820152604051936200053d8562000d92565b84528584019081526040840191620493e0835260608501908152620001bf6040519889968980890152516080604089015260c088019062000d6b565b6001810190818111620002835762000595620005de9262000f5d565b6200025d60405191826020916d02a34329029ba3cb6329021b0ba160951b83830152620005cd81518092602e95868601910162000d46565b810103600e81018452018262000dca565b6200048f565b80606060208093860101520162000481565b34620002c1576000366003190112620002c15760405160a081018181106001600160401b03821117620002ab576040526004815260005b60808110620007a9575060005b600481106200072a57620001a882620001e66040516200065a8162000dae565b60088152620001d7602093674d6f6e616c69736160c01b85840152604051620006838162000d92565b604481527f68747470733a2f2f6f7a6f6e6533643262323938313134653364633732616436868201527f3636386366616635383931373433656562343237352e6f7a6f6e6573746f72656040820152632e696f2f60e01b606082015260405193620006ee8562000d92565b84528584019081526040840191620186a0835260608501908152620001bf6040519889968980890152516080604089015260c088019062000d6b565b6001810190818111620002835762000746620007a39262000f5d565b6200078a604051918260209168026b7b730b634b9b0960bd1b838301526200077981518092602995868601910162000d46565b810103600981018452018262000dca565b62000796828562000ec5565b5262000276818462000ec5565b6200063a565b8060606020809385010152016200062d565b34620002c1576040366003190112620002c1576004356001600160a01b03811690819003620002c157602435906001600160401b038211620002c15736602383011215620002c15781600401356001600160401b038111620002c157820191366024840111620002c157602081840312620002c1576024810135906001600160401b038211620002c1570191608083820312620002c15760405191620008618362000d92565b60248401356001600160401b038111620002c157620008899060248085019187010162000e08565b835260448401356001600160401b038111620002c157620008b39060248085019187010162000e08565b92602081019384526040810194606481013586526084810135906001600160401b038211620002c157602485016043838301011215620002c15760248282010135946001600160401b038611620002ab578560051b91604051966200091c602085018962000dca565b8752602087019060248301604485878401010111620002c157604485820101915b60448587840101018310620009f75750505050505082606082015251925193519360405194614f0590818701948786106001600160401b03871117620002ab57620009b3608094620009a48a99620009c796620010338c3960a08a5260a08a019062000d6b565b9088820360208a015262000d6b565b916040870152858203606087015262000e55565b92015203906000f08015620009eb576040516001600160a01b039091168152602090f35b6040513d6000823e3d90fd5b6001600160401b03833511620002c15760208060449262000a23602488018588358c8901010162000e08565b81520193019290506200093d565b34620002c1576000366003190112620002c15760405161024081018181106001600160401b03821117620002ab57604052601180825260005b610220811062000be4575060005b81811062000b6a57620001a883620001e660405162000a978162000dae565b60068152620001d760209365223930b3b7b760d11b8584015260405162000abe8162000d92565b604481527f68747470733a2f2f6f7a6f6e6536306436366338373231663436653434653735868201527f3662366130383461663936643830336632623936362e6f7a6f6e6573746f72656040820152632e696f2f60e01b60608201526040519362000b298562000d92565b8452858401908152604084019167016345785d8a0000835260608501908152620001bf6040519889968980890152516080604089015260c088019062000d6b565b6001810180821162000bcf579062000b8662000bc99262000f5d565b6200025d604051918260209167447261676f6e5f5f60c01b8383015262000bb881518092602895868601910162000d46565b810103600881018452018262000dca565b62000a78565b82634e487b7160e01b60005260045260246000fd5b80606060208093860101520162000a6a565b34620002c1576000366003190112620002c15761032081018181106001600160401b03821117620002ab57604052601880825260005b610300811062000d34575060005b81811062000cdf57620001fc620003b78460405162000c598162000dae565b600781526613995bdb9b1a5d60ca1b60208201526040519062000c7c8262000d92565b604482527f68747470733a2f2f6f7a6f6e653962373834363336616238633665343162636360208301527f6464643336646136356234663461626334323736652e6f7a6f6e6573746f72656040830152632e696f2f60e01b606083015262000ef0565b6001810190818111620002835762000cfb62000d2e9262000f5d565b6200025d6040519182602091684e656f6e6c69745f5f60b81b838301526200077981518092602995868601910162000d46565b62000c3a565b80606060208093860101520162000c2c565b60005b83811062000d5a5750506000910152565b818101518382015260200162000d49565b9060209162000d868151809281855285808601910162000d46565b601f01601f1916010190565b608081019081106001600160401b03821117620002ab57604052565b604081019081106001600160401b03821117620002ab57604052565b90601f801991011681019081106001600160401b03821117620002ab57604052565b6001600160401b038111620002ab57601f01601f191660200190565b81601f82011215620002c15780359062000e228262000dec565b9262000e32604051948562000dca565b82845260208383010111620002c157816000926020809301838601378301015290565b908082519081815260208091019281808460051b8301019501936000915b84831062000e845750505050505090565b909192939495848062000ea4600193601f198682030187528a5162000d6b565b980193019301919493929062000e73565b6000198114620002835760010190565b805182101562000eda5760209160051b010190565b634e487b7160e01b600052603260045260246000fd5b62000f4b620001a89362000f5a936040519362000f0d8562000d92565b845260208401908152604084019162030d40835260608501908152620001bf604051978896602080890152516080604089015260c088019062000d6b565b03601f19810183528262000dca565b90565b80156200101257600081805b62000ffb575062000f7a8162000dec565b9162000f8a604051938462000dca565b81835280601f1962000f9c8462000dec565b01926020933685870137905b62000fb35750505090565b80156200028357600019018091600a91603083830681018091116200028357865182101562000eda5760f81b6001600160f81b03191660001a90860185015304908162000fa8565b9062001009600a9162000eb5565b91048062000f69565b50604051620010218162000dae565b60018152600360fc1b60208201529056fe604060808152346200062f5762004f0590813803806200001f8162000673565b93843982019160a0818403126200062f5780516001600160401b0391908281116200062f578462000052918301620006be565b906020808201518481116200062f57866200006f918401620006be565b91858101519260608201518681116200062f57820191601f98808a850112156200062f578351938885116200065d578460051b8680620000b181840162000673565b809881520191830101928084116200062f57878301915b84831062000634575050505050608001519360018060a01b0385168095036200062f57620000f68262000715565b8415620005eb5760018060a01b03199660049533898854161787556003988954161788556001978860065560009788601255886013556014948986556200013d8162000715565b805190848211620005d8576009548c81811c91168015620005cd575b8a821014620005ba5782918f918281116200055b575b508a918311600114620004ed578c92620004e1575b505060001982851b1c1916908b1b176009555b8051928311620004ce57600a548a81811c91168015620004c3575b88821014620004b0578c811162000467575b50869b8311600114620003f85790899a9b83928a93620003ec575b5050828a1b92600019911b1c191617600a559796975b60135584975b62000210575b865161453c9081620009c98239f35b8151881015620003e6576200022688836200099d565b51836200023c8951928381519384920162000699565b8101908481600b938481520301902054620003a5576008908154908882019182811162000392576801000000000000000093848210156200037f57838155838210156200036c57878c85948f620002a984918f998098848c620002bc9a620002e39e522001558c6200099d565b5192519483868095519384920162000699565b82019081520301902055620002d28b866200099d565b51908852600c865289882062000865565b620002ef89846200099d565b519060078054918210156200035957888201808255821015620003465787528487206200031e92910162000865565b600019881462000333579685019685620001fb565b634e487b7160e01b855260118452602485fd5b634e487b7160e01b885260328752602488fd5b634e487b7160e01b885260418752602488fd5b634e487b7160e01b8a526032895260248afd5b634e487b7160e01b8a526041895260248afd5b634e487b7160e01b895260118852602489fd5b60648583868b519262461bcd60e51b845283015260248201527f6f7263313135352e746f6b656e2e6661696c65640000000000000000000000006044820152fd5b62000201565b015191503880620001df565b600a8952868920929b90601f198d168a5b818110620004515750918d93918c9d9e8d96941062000436575b50505050811b01600a55979697620001f5565b01519060f884600019921b161c191690553880808062000423565b828401518655948c019492890192890162000409565b600a8a52878a208d80860160051c8201928a8710620004a6575b0160051c01908b905b8281106200049a575050620001c4565b8b8155018b906200048a565b9250819262000481565b634e487b7160e01b8a526022895260248afd5b90607f1690620001b2565b634e487b7160e01b895260418852602489fd5b01519050388062000184565b60098d528a8d208e94509190601f1984168e5b8d8282106200053b575050841162000522575b505050811b0160095562000197565b015160001983871b60f8161c1916905538808062000513565b91929395968291958786015181550195019301908f959493929162000500565b60098e528b8e2091935084830160051c820192908c8610620005b0575b8f9092828796949593950160051c01915b828110620005995750506200016f565b8f91939550809294505501918f918e859462000589565b9250819262000578565b634e487b7160e01b8c5260228b5260248cfd5b90607f169062000159565b634e487b7160e01b8b5260418a5260248bfd5b875162461bcd60e51b815260048101859052601360248201527f6f776e2e696e76616c69642e68657862617365000000000000000000000000006044820152606490fd5b600080fd5b82518c81116200062f5789916200065184848094890101620006be565b815201920191620000c8565b634e487b7160e01b600052604160045260246000fd5b6040519190601f01601f191682016001600160401b038111838210176200065d57604052565b60005b838110620006ad5750506000910152565b81810151838201526020016200069c565b81601f820112156200062f5780516001600160401b0381116200065d57620006f0601f8201601f191660200162000673565b92818452602082840101116200062f5762000712916020808501910162000699565b90565b80516001600160401b0381116200065d5760025460019283821691841c82156200085c575b602092838210146200084657601f8111620007f7575b5081601f84116001146200078e575092829391839260009462000782575b50501b916000199060031b1c191617600255565b0151925038806200076e565b919083601f198116600260005284600020946000905b88838310620007dc5750505010620007c2575b505050811b01600255565b015160001960f88460031b161c19169055388080620007b7565b858701518855909601959485019487935090810190620007a4565b600260005282600020601f850160051c8101918486106200083b575b601f0160051c019085905b8281106200082e57505062000750565b600081550185906200081e565b909150819062000813565b634e487b7160e01b600052602260045260246000fd5b607f166200073a565b81519091906001600160401b0381116200065d57825460019283821691841c821562000994575b602092838210146200084657601f811162000946575b5081601f8411600114620008df5750928293918392600094620008d3575b50501b916000199060031b1c1916179055565b015192503880620008c0565b919083601f1981168760005284600020946000905b888383106200092b575050501062000911575b505050811b019055565b015160001960f88460031b161c1916905538808062000907565b858701518855909601959485019487935090810190620008f4565b8560005282600020601f850160051c81019184861062000989575b601f0160051c019085905b8281106200097c575050620008a2565b600081550185906200096c565b909150819062000961565b607f166200088c565b8051821015620009b25760209160051b010190565b634e487b7160e01b600052603260045260246000fdfe60806040526004361015610018575b361561001657005b005b60003560e01c8062fdd58e1461031757806301ffc9a71461031257806302fe53051461030d57806306fdde03146103085780630e89341c1461030357806312065fe0146102fe57806318dcfd71146102f95780631b038e51146102f45780631f185d16146102ef5780632796f7c6146102ea5780632eb2c2d6146102e5578063364410b3146102e05780633b9b7955146102db5780634622ab03146102d65780634e1273f4146102d15780635009dde2146102cc578063548800e0146102c75780635718e17b146102c25780635b2bd79e146102bd5780635fac2d9d146102b85780636930e471146102b35780636c51797b146102ae57806378a89567146102a957806380c9d8eb146102a457806381fbf0a51461029f5780638da5cb5b1461029a578063a1f7f53914610295578063a22cb46514610290578063abbbf8d71461028b578063af48452614610286578063b505c66d14610281578063b90306ad1461027c578063b91e9afb14610277578063c3c916d914610272578063c54e44b01461026d578063c85700fb14610268578063d878fe1014610263578063e01ad5fd1461025e578063e0a9bc2b14610259578063e834a83414610254578063e985e9c51461024f578063f242432a1461024a578063f356eedb14610245578063f6d8f2cb14610240578063f9ffedb71461023b578063fac333ac14610236578063fcf56368146102315763fdc10bc90361000e57611ba4565b611b7b565b611b2a565b611b0c565b611af4565b611a99565b611a3e565b6119d6565b6119b8565b611916565b611877565b61181b565b611727565b61168e565b611670565b61163d565b61153b565b6114af565b61147e565b6113df565b61132b565b61126a565b611241565b611223565b6110ea565b6110cc565b6110ae565b611016565b610ff8565b610f63565b610f24565b610eea565b610eca565b610e0f565b610d8b565b610cee565b610cae565b610b83565b610ab2565b6109a2565b610979565b61095b565b61093f565b6107ad565b6106da565b610514565b6103a5565b610342565b6001600160a01b0381160361032d57565b600080fd5b61010435906103408261031c565b565b3461032d57604036600319011261032d57602061038a6004356103648161031c565b6024356000526000835260406000209060018060a01b0316600052602052604060002090565b54604051908152f35b6001600160e01b031981160361032d57565b3461032d57602036600319011261032d5760206004356103c481610393565b63ffffffff60e01b16636cdb3d1360e11b8114908115610402575b81156103f1575b506040519015158152f35b6301ffc9a760e01b149050386103e6565b6303a24d0760e21b811491506103df565b634e487b7160e01b600052604160045260246000fd5b602081019081106001600160401b0382111761044457604052565b610413565b604081019081106001600160401b0382111761044457604052565b90601f801991011681019081106001600160401b0382111761044457604052565b6001600160401b03811161044457601f01601f191660200190565b81601f8201121561032d578035906104b782610485565b926104c56040519485610464565b8284526020838301011161032d57816000926020809301838601378301015290565b602060031982011261032d57600435906001600160401b03821161032d57610511916004016104a0565b90565b3461032d57610522366104e7565b600354604051630536340960e21b81526001600160a01b0392916020908290600490829087165afa801561059e57610016936105699260009261056e575b50163314612570565b612980565b61059091925060203d8111610597575b6105888183610464565b81019061255b565b9038610560565b503d61057e565b61228f565b90600182811c921680156105d3575b60208310146105bd57565b634e487b7160e01b600052602260045260246000fd5b91607f16916105b2565b90604051918260008254926105f1846105a3565b90818452600194858116908160001461065e575060011461061b575b505061034092500383610464565b9093915060005260209081600020936000915b8183106106465750506103409350820101388061060d565b8554888401850152948501948794509183019161062e565b91505061034094506020925060ff191682840152151560051b820101388061060d565b60005b8381106106945750506000910152565b8181015183820152602001610684565b906020916106bd81518092818552858086019101610681565b601f01601f1916010190565b9060206105119281815201906106a4565b3461032d576000806003193601126107aa576040519080600a546106fd816105a3565b808552916001918083169081156107805750600114610737575b6107338561072781870382610464565b604051918291826106c9565b0390f35b9250600a83526000805160206144a78339815191525b82841061076857505050810160200161072782610733610717565b8054602085870181019190915290930192810161074d565b8695506107339693506020925061072794915060ff191682840152151560051b8201019293610717565b80fd5b3461032d57602036600319011261032d576000600435807a184f03e93ff9f4daa797ed6e38ed64bf6a1f01000000000000000080821015610931575b506d04ee2d6d415b85acef810000000080831015610922575b50662386f26fc1000080831015610913575b506305f5e10080831015610904575b50612710808310156108f5575b5060648210156108e5575b600a809210156108db575b60019081602161085782870161262b565b95860101905b6108a5575b60405161073390610727816108976108868a610880602085016125ae565b90611ab7565b64173539b7b760d91b815260050190565b03601f198101835282610464565b600019019083906f181899199a1a9b1b9c1cb0b131b232b360811b8282061a8353049182156108d65791908261085d565b610862565b9160010191610846565b919060646002910491019161083b565b60049193920491019138610830565b60089193920491019138610823565b60109193920491019138610814565b60209193920491019138610802565b6040935081049150386107e9565b3461032d57600036600319011261032d57602047604051908152f35b3461032d57600036600319011261032d576020601554604051908152f35b3461032d57600036600319011261032d57600d546040516001600160a01b039091168152602090f35b3461032d5760208060031936011261032d576004908135906109c38261031c565b60035481906109e2906001600160a01b03165b6001600160a01b031690565b604051634bf9c0ad60e11b815294859182905afa91821561059e57610a39610a7393610a559261073396600092610a8f575b506040516001600160a01b039091168582019081529092610a47918491602090910190565b03601f198101845283610464565b610a4f61405e565b9061427e565b919080610a85575b610a669061408b565b808251830101910161388f565b60405190151581529081906020820190565b5081518114610a5d565b610a47919250610aab90863d8811610597576105888183610464565b9190610a14565b3461032d57602036600319011261032d57600354604051630536340960e21b8152906001600160a01b03906020908390600490829085165afa90811561059e57610b069260009261056e5750163314612570565b600435601455005b6001600160401b0381116104445760051b60200190565b81601f8201121561032d57803591610b3c83610b0e565b92610b4a6040519485610464565b808452602092838086019260051b82010192831161032d578301905b828210610b74575050505090565b81358152908301908301610b66565b3461032d5760a036600319011261032d5760048035610ba18161031c565b602435610bad8161031c565b6001600160401b039060443582811161032d57610bcd9036908601610b25565b9060643583811161032d57610be59036908701610b25565b9260843590811161032d57610bfd90369087016104a0565b936001600160a01b03808216903382141580610c8a575b610c5d57831615610c455715610c2e576100169550611dc5565b604051626a0d4560e21b8152600081880152602490fd5b604051632bfa23e760e11b8152600081890152602490fd5b6040805163711bec9160e11b815233818b019081526001600160a01b038616602082015290918291010390fd5b50600082815260016020908152604080832033845290915290205460ff1615610c14565b3461032d57602036600319011261032d57600435600052600c602052610733610cda60406000206105dd565b6040519182916020835260208301906106a4565b3461032d57600036600319011261032d576003546040516001600160a01b039091168152602090f35b634e487b7160e01b600052603260045260246000fd5b600754811015610d525760076000526000805160206144c78339815191520190600090565b610d17565b60085415610d525760086000527ff3f7a9fe364faab93b216da50a3214154f22a0a2b415b23a84c8169e8b636ee390600090565b3461032d57602036600319011261032d5760043560075481101561032d57610cda6107339160076000526000805160206144c7833981519152016105dd565b90815180825260208080930193019160005b828110610dea575050505090565b835185529381019392810192600101610ddc565b906020610511928181520190610dca565b3461032d57604036600319011261032d576004356001600160401b0380821161032d573660238301121561032d578160040135610e4b81610b0e565b92610e596040519485610464565b81845260209160248386019160051b8301019136831161032d57602401905b828210610eb1578560243586811161032d5761073391610e9f610ea5923690600401610b25565b90611c0a565b60405191829182610dfe565b8380918335610ebf8161031c565b815201910190610e78565b3461032d57604036600319011261032d57610016602435600435336138f0565b3461032d57604036600319011261032d5760ff196001816017541617601755610f18602435600435336138f0565b60175416601755600080f35b3461032d57602036600319011261032d57600435600754811015610d5257610cda6107339160076000526000805160206144c7833981519152016105dd565b3461032d576000806003193601126107aa576040519080600954610f86816105a3565b808552916001918083169081156107805750600114610faf576107338561072781870382610464565b9250600983526000805160206144e78339815191525b828410610fe057505050810160200161072782610733610717565b80546020858701810191909152909301928101610fc5565b3461032d57600036600319011261032d576020601454604051908152f35b3461032d57608036600319011261032d576004356110338161031c565b6110ab6024356110428161031c565b604435926064359061106c906001600160a01b03906110648583161515612d92565b161515612d92565b60008481526020818152604080832033845290915281209094906110959083905b541015613813565b604051926110a284610429565b85845233611ccf565b80f35b3461032d57600036600319011261032d576020600f54604051908152f35b3461032d57600036600319011261032d576020600854604051908152f35b3461032d57606036600319011261032d576004356111078161031c565b602435906044356111226001600160a01b0383161515612d92565b60035460049060209061113d906001600160a01b03166109d6565b60405163cfbffe5360e01b815292839182905afa90811561059e5761118f9161118091600091611205575b506111716135a0565b9061117a61385f565b90614253565b6020808251830101910161388f565b611198816138a4565b61119e57005b6111f6926111d58261108d336111be856000526000602052604060002090565b9060018060a01b0316600052602052604060002090565b6111e7600160ff196017541617601755565b6111ef61229b565b9233611d45565b61001660ff1960175416601755565b61121d915060203d8111610597576105888183610464565b38611168565b3461032d57600036600319011261032d576020601354604051908152f35b3461032d57600036600319011261032d576004546040516001600160a01b039091168152602090f35b3461032d57600036600319011261032d5760035460405163d1f956b160e01b815290602090829060049082906001600160a01b03165afa90811561059e57610733916112f391600091611303575b506040516112c581610449565b601381527267657464656c656761746f72436f756e74282960681b60208201526112ed61229b565b9161437c565b6040519081529081906020820190565b61131b915060203d8111610597576105888183610464565b386112b8565b8015150361032d57565b3461032d57604036600319011261032d576004356113488161031c565b60243561135481611321565b6001600160a01b0382169182156113c7573360009081526001602090815260408083206001600160a01b039094168352929052209015159060ff1981541660ff83161790556040519081527f17307eab39ab6107e8899845ad3d59bd9653f200f220920489ca2b5937696c3160203392a3005b60405162ced3e160e81b815260006004820152602490fd5b3461032d5760208060031936011261032d576001600160401b0360043581811161032d573660238201121561032d57806004013561141c81610b0e565b9261142a6040519485610464565b818452848401906024809360051b8501019336851161032d57838101925b858410611458576100168761267d565b833583811161032d57889161147383928836918701016104a0565b815201930192611448565b3461032d57602036600319011261032d5760206114a56004356114a08161031c565b613fa9565b6040519015158152f35b61012036600319011261032d576001600160401b0360043581811161032d576114dc9036906004016104a0565b60243582811161032d576114f49036906004016104a0565b9060443592831161032d576115106100169336906004016104a0565b6084359261151d8461031c565b611525610332565b9360e4359360c4359360a43593606435926132b1565b3461032d5760208060031936011261032d57600354604051630536340960e21b81526004803593926001600160a01b0391908216908490849081845afa92831561059e576004938593611598926000926116255750163314612570565b6040516311be646b60e21b815292839182905afa91821561059e57600080856115d895829583958492611608575b50505af16115d26122ae565b50614215565b60405190815233907fcdcc745fe377b103b45fa0cec23ae3ef93d6fc6a84a01f0d18c40b354dd1d5d890602090a2005b61161e9250803d10610597576105888183610464565b38806115c6565b610590919250853d8711610597576105888183610464565b3461032d57604036600319011261032d57602061166860043561165f8161031c565b60243590613698565b604051908152f35b3461032d57600036600319011261032d576020601654604051908152f35b3461032d57602036600319011261032d576004356116ab8161031c565b803b60006116b882610485565b926116c66040519485610464565b82845260208401903c602d8151106116ec57602a015160405160609190911c8152602090f35b60405162461bcd60e51b81526020600482015260136024820152724e6f742061206d696e696d616c2070726f787960681b6044820152606490fd5b60a036600319011261032d57600480356117408161031c565b600354602090611758906001600160a01b03166109d6565b60405163ab6e844f60e01b815293849182905afa90811561059e576117ce6117e392610733946000916117fd575b50604080516001600160a01b038516602082015291906117a99083908101610a39565b33916001600160a01b03916117c791906117c1612d22565b906142fc565b1614612d54565b60843590606435906044359060243590612dd3565b6040516001600160a01b0390911681529081906020820190565b611815915060203d8111610597576105888183610464565b38611786565b3461032d57602036600319011261032d57600354604051630536340960e21b8152906001600160a01b03906020908390600490829085165afa90811561059e5761186f9260009261056e5750163314612570565b600435601355005b3461032d5760208060031936011261032d57600480356118968161031c565b60035460405163d1f956b160e01b81526001600160a01b03949093909182918591829088165afa90811561059e5761073394610a73946000936118f7575b5060405193168184015282526118e982610449565b6118f161415b565b90614340565b61190f919350823d8411610597576105888183610464565b91386118d4565b3461032d57600036600319011261032d57600354604051634bf9c0ad60e11b8152906020908190839060049082906001600160a01b03165afa90811561059e57611980610a73926107339460009161199b575b50611972613ebc565b61197a61229b565b9161427e565b919080611991575b610a6690613ee0565b5081518114611988565b6119b29150833d8511610597576105888183610464565b38611969565b3461032d57600036600319011261032d576020601254604051908152f35b3461032d57604036600319011261032d57602060ff611a326004356119fa8161031c565b60243590611a078261031c565b60018060a01b03166000526001845260406000209060018060a01b0316600052602052604060002090565b54166040519015158152f35b3461032d5760a036600319011261032d57600435611a5b8161031c565b60243590611a688261031c565b608435916001600160401b03831161032d57611a8b6100169336906004016104a0565b916064359160443591611ccf565b3461032d57600036600319011261032d576020601054604051908152f35b90611aca60209282815194859201610681565b0190565b6020611ae7918160405193828580945193849201610681565b8101600b81520301902090565b3461032d57602061038a611b07366104e7565b611ace565b3461032d57600036600319011261032d576020601154604051908152f35b3461032d57602036600319011261032d5760043560085481101561032d5760209060086000527ff3f7a9fe364faab93b216da50a3214154f22a0a2b415b23a84c8169e8b636ee30154604051908152f35b3461032d57600036600319011261032d57600e546040516001600160a01b039091168152602090f35b3461032d57600036600319011261032d5760206116686140d0565b634e487b7160e01b600052601160045260246000fd5b6000198114611be45760010190565b611bbf565b805115610d525760200190565b8051821015610d525760209160051b010190565b91909180518351808203611cad575050805190611c2682610b0e565b91611c346040519384610464565b808352611c43601f1991610b0e565b0190602091368385013760005b8151811015611ca557600581901b8281018401519087018401516000908152602081815260408083206001600160a01b0390941683529290522054611ca09190611c9a8287611bf6565b52611bd5565b611c50565b509193505050565b604051635b05999160e01b815260048101919091526024810191909152604490fd5b94939291906001600160a01b038616338114159081611d1f575b50611cf8576103409495611d45565b60405163711bec9160e11b81523360048201526001600160a01b0387166024820152604490fd5b6000908152600160209081526040808320338452909152902060ff915054161538611ce9565b92939290916001600160a01b0380841615611dac57821615611d945761034094611d8c60405192600184526020840152604083019160018352606084015260808301604052565b929091611dc5565b604051626a0d4560e21b815260006004820152602490fd5b604051632bfa23e760e11b815260006004820152602490fd5b9190949394611dd261317d565b6001600160a01b039483861680151590816121f7575b50806121e2575b611f69575b611e0085848487613c81565b611e0f60ff1960175416601755565b600096875b8451811015611f1357600354611e32906001600160a01b03166109d6565b906040918251928391634311742160e01b835282600460209485935afa93841561059e57611ed794611ed1938b938f8b8f918e968a9196611edc575b5090611e8e82611e87610a39969594611ecc999a611bf6565b5193611bf6565b519251978895636930e47160e01b90870152602486019092606092959493608083019660018060a01b03809216845216602083015260408201520152565b6143eb565b50611bd5565b611e14565b611ecc965081611e87610a3996959493611f05611e8e948a3d8c11610597576105888183610464565b995050509192939450611e6e565b50949295909650611f246001600655565b8116611f32575b5050505050565b8451600103611f5857602080611f4e96015192015192336123d8565b3880808080611f2b565b611f6494919233612524565b611f4e565b600f54601254809111611f94575b50611f8f601254611f8787611be9565b511115613af0565b611df4565b600354611fa9906001600160a01b03166109d6565b60405163ab6e844f60e01b8152602092908381600481865afa801561059e57612001916000916121c5575b506040516001600160a01b038a16868201908152909190611ff9908390602001610a39565b6117c161398d565b90888a8316612014575b50505050611f77565b61204961204560049461203461202c61204e95611be9565b5115156139bf565b61203c6135a0565b906118f16139fd565b1590565b613a1f565b836120576140d0565b936040519384809263cfbffe5360e01b82525afa91821561059e57612111946000936121a0575b50506120939061208e8484613698565b612edd565b916120d36120cb6120b36120a56135a0565b6120ad613a5e565b8661437c565b936120bc6135a0565b906120c5613a86565b9061437c565b6015546127a8565b81101561218d575b50601654816120f36120ec8b611be9565b51836127a8565b11612173575b5050801515908161215f575b8161214b575b50613ab3565b61212e61212961212087611be9565b516012546127a8565b601255565b61214161213c601654611bd5565b601655565b388080808861200b565b905061215687611be9565b5111153861210b565b905061216a87611be9565b51151590612105565b61217c91612edd565b61218588611be9565b5238806120f9565b60155561219a6000601655565b386120db565b61209392935090816121bd92903d10610597576105888183610464565b91903861207e565b6121dc9150853d8711610597576105888183610464565b38611fd4565b506121f261204560175460ff1690565b611def565b600e5490915061220f906001600160a01b03166109d6565b1438611de8565b9081602091031261032d575161051181610393565b909260a0926105119594600180861b03168352600060208401526040830152606082015281608082015201906106a4565b919261051195949160a094600180871b0380921685521660208401526040830152606082015281608082015201906106a4565b6040513d6000823e3d90fd5b604051906122a882610429565b60008252565b3d156122d9573d906122bf82610485565b916122cd6040519384610464565b82523d6000602084013e565b606090565b9293919093843b6122f0575050505050565b602091612313604051948593849363f23a6e6160e01b988986526004860161222b565b038160006001600160a01b0388165af1600091816123a8575b5061236b578261233a6122ae565b805191908261236457604051632bfa23e760e11b81526001600160a01b0383166004820152602490fd5b9050602001fd5b6001600160e01b0319160361238557503880808080611f2b565b604051632bfa23e760e11b81526001600160a01b03919091166004820152602490fd5b6123ca91925060203d81116123d1575b6123c28183610464565b810190612216565b903861232c565b503d6123b8565b939290949194853b6123ed575b505050505050565b612410602093604051958694859463f23a6e6160e01b998a87526004870161225c565b038160006001600160a01b0388165af160009181612452575b50612437578261233a6122ae565b6001600160e01b0319160361238557503880808080806123e5565b61246b91925060203d81116123d1576123c28183610464565b9038612429565b926124a161051195936124af9360018060a01b031686526000602087015260a0604087015260a0860190610dca565b908482036060860152610dca565b9160808184039101526106a4565b939061051195936124a1916124af9460018060a01b03809216885216602087015260a0604087015260a0860190610dca565b9293919093843b612501575050505050565b602091612313604051948593849363bc197c8160e01b9889865260048601612472565b939290949194853b61253857505050505050565b612410602093604051958694859463bc197c8160e01b998a8752600487016124bd565b9081602091031261032d57516105118161031c565b1561257757565b60405162461bcd60e51b815260206004820152600f60248201526e6f776e2e6e6f6e617574682e44414f60881b6044820152606490fd5b600954600092916125be826105a3565b9160019081811690811561261857506001146125d957505050565b909192935060096000526000805160206144e7833981519152906000915b848310612605575050500190565b81816020925485870152019201916125f7565b60ff191683525050811515909102019150565b9061263582610485565b6126426040519182610464565b8281528092612653601f1991610485565b0190602036910137565b8115612667570490565b634e487b7160e01b600052601260045260246000fd5b60035460408051630536340960e21b815292939260049260209291906001600160a01b0390849083908790829085165afa90811561059e576126c9926000926116255750163314612570565b60005b8551811015612792576126e86126e28288611bf6565b51611ace565b54612759576127549061273c6008612708612703825461279a565b6127b5565b54806127176126e2858c611bf6565b55612737612725848b611bf6565b5191600052600c602052604060002090565b612c17565b61274f6127498289611bf6565b51612ce5565b611bd5565b6126cc565b505162461bcd60e51b81529182015260146024820152731bdc98cc4c4d4d4b9d1bdad95b8b99985a5b195960621b604482015260649150fd5b505050509050565b9060018201809211611be457565b91908201809211611be457565b600854600160401b811015610444576001810180600855811015610d525760086000527ff3f7a9fe364faab93b216da50a3214154f22a0a2b415b23a84c8169e8b636ee30155565b601f8111612809575050565b600090600282527f405787fa12a823e0f2b7631cc41b3ba8828b3321ca811111fa75cd3aa3bb5ace906020601f850160051c83019410612864575b601f0160051c01915b82811061285957505050565b81815560010161284d565b9092508290612844565b601f811161287a575050565b600090600982526000805160206144e7833981519152906020601f850160051c830194106128c3575b601f0160051c01915b8281106128b857505050565b8181556001016128ac565b90925082906128a3565b601f81116128d9575050565b600090600a82526000805160206144a7833981519152906020601f850160051c83019410612922575b601f0160051c01915b82811061291757505050565b81815560010161290b565b9092508290612902565b90601f811161293a57505050565b600091825260208220906020601f850160051c83019410612976575b601f0160051c01915b82811061296b57505050565b81815560010161295f565b9092508290612956565b9081516001600160401b038111610444576129a5816129a06002546105a3565b6127fd565b602080601f83116001146129e157508192936000926129d6575b50508160011b916000199060031b1c191617600255565b0151905038806129bf565b90601f19831694612a1460026000527f405787fa12a823e0f2b7631cc41b3ba8828b3321ca811111fa75cd3aa3bb5ace90565b926000905b878210612a51575050836001959610612a38575b505050811b01600255565b015160001960f88460031b161c19169055388080612a2d565b80600185968294968601518155019501930190612a19565b9081516001600160401b03811161044457612a8e81612a896009546105a3565b61286e565b602080601f8311600114612aca5750819293600092612abf575b50508160011b916000199060031b1c191617600955565b015190503880612aa8565b90601f19831694612aeb60096000526000805160206144e783398151915290565b926000905b878210612b28575050836001959610612b0f575b505050811b01600955565b015160001960f88460031b161c19169055388080612b04565b80600185968294968601518155019501930190612af0565b9081516001600160401b03811161044457612b6581612b60600a546105a3565b6128cd565b602080601f8311600114612ba15750819293600092612b96575b50508160011b916000199060031b1c191617600a55565b015190503880612b7f565b90601f19831694612bc2600a6000526000805160206144a783398151915290565b926000905b878210612bff575050836001959610612be6575b505050811b01600a55565b015160001960f88460031b161c19169055388080612bdb565b80600185968294968601518155019501930190612bc7565b91909182516001600160401b03811161044457612c3e81612c3884546105a3565b8461292c565b602080601f8311600114612c7a575081929394600092612c6f575b50508160011b916000199060031b1c1916179055565b015190503880612c59565b90601f19831695612c9085600052602060002090565b926000905b888210612ccd57505083600195969710612cb4575b505050811b019055565b015160001960f88460031b161c19169055388080612caa565b80600185968294968601518155019501930190612c95565b60075490600160401b821015610444576001820180600755821015610d52576103409160076000526000805160206144c783398151915201612c17565b60405190612d2f82610449565b601682527567657455736572546f53746f7228616464726573732960501b6020830152565b15612d5b57565b60405162461bcd60e51b815260206004820152600f60248201526e37bbb7173ab730baba341739ba37b960891b6044820152606490fd5b15612d9957565b60405162461bcd60e51b815260206004820152601260248201527137bbb7173232b330bab63a1739b2b73232b960711b6044820152606490fd5b92939091612deb6001600160a01b0385161515612d92565b612df361317d565b6013546014549082820190818311611be45710612e8957612e7e94612e7893612e27612e2285610897956127a8565b601455565b612e3030613115565b97612e42612e3d88612ece565b610d2d565b50600354909590612e5b906001600160a01b03166109d6565b9360405198899763b505c66d60e01b60208a015260248901613012565b826143eb565b506105116001600655565b60405162461bcd60e51b815260206004820152601760248201527f6f7263313135352e737570706c792e62726561636865640000000000000000006044820152606490fd5b600019810191908211611be457565b91908203918211611be457565b60095460009291612efa826105a3565b80825291600190818116908115612f5f5750600114612f1857505050565b9192935060096000526000805160206144e7833981519152916000925b848410612f4757505060209250010190565b80546020858501810191909152909301928101612f35565b915050602093945060ff929192191683830152151560051b010190565b9060009291805491612f8d836105a3565b918282526001938481169081600014612fef5750600114612faf575b50505050565b90919394506000526020928360002092846000945b838610612fdb575050505001019038808080612fa9565b805485870183015294019385908201612fc4565b9294505050602093945060ff191683830152151560051b01019038808080612fa9565b9490979591969293610120808752600090600a5461302f816105a3565b80928a015260019081811690816000146130ed57506001146130a4575b5050869798996130698261010099613077940360208c0152612eea565b9089820360408b0152612f7c565b60608801999099526001600160a01b03948516608088015260a087015260c086015260e085015216910152565b600a600090815292506000805160206144a78339815191525b8284106130d6575050508601610140018961306961304c565b8054848b01610140015260209093019281016130bd565b60ff1916610140808c019190915292151560051b8a0190920192508b9150613069905061304c565b6e5af43d82803e903d91602b57fd5bf390763d602d80600a3d3981f3363d3d373d3d3d363d7300000062ffffff8260881c161760005260781b17602052603760096000f0906001600160a01b0382161561316b57565b60405163b06ebf3d60e01b8152600490fd5b60026006541461318e576002600655565b604051633ee5aeb560e01b8152600490fd5b156131a757565b60405162461bcd60e51b815260206004820152601060248201526f6f7263313135352e7174792e7a65726f60801b6044820152606490fd5b156131e657565b60405162461bcd60e51b81526020600482015260146024820152736f7263313135352e6163636f756e742e7a65726f60601b6044820152606490fd5b1561322957565b60405162461bcd60e51b81526020600482015260146024820152731bdc98cc4c4d4d4b985b1c9958591e4b9a5b9a5d60621b6044820152606490fd5b1561326c57565b60405162461bcd60e51b815260206004820152601760248201527f6f7263313135352e756e7365637572652e6661696c65640000000000000000006044820152606490fd5b93979496939593946001600160a01b0394939192858216156133db576133546133979861334f613359966133416133c79e61332b8f986133056133929e6132fc6127039c15156131a0565b841615156131df565b60035461332690613320906109d6906001600160a01b031681565b15613222565b613e2d565b61333c61333733613fa9565b613265565b614188565b61334a81612980565b612a69565b612b40565b612ce5565b600454600e80546001600160a01b0319166001600160a01b0390921691909117905561338485600f55565b61338d83601155565b601055565b601555565b6004546001600160a01b0316906133b96133af610d57565b90549060031b1c90565b6133c161229b565b92613419565b600d80546001600160a01b03191633179055565b60405162461bcd60e51b81526020600482015260166024820152751bdc98cc4c4d4d4b9a195e18985cd94b99985a5b195960521b6044820152606490fd5b916001600160a01b03831615611dac5761345060405192600184526020840152604083019160018352606084015260808301604052565b919061345a61317d565b613465838284613b61565b61347460ff1960175416601755565b600094855b825181101561356757600354613497906001600160a01b03166109d6565b906040918251928391634311742160e01b835282600460209485935afa93841561059e5761352f94611ed1938a93868a948f94613534575b50906134ed826134e6610a3994611ecc9798611bf6565b5197611bf6565b519051636930e47160e01b93810193909352600060248401526001600160a01b038c1660448401526064830195909552608482019490945292839060a4820190565b613479565b611ecc9450816134e6610a39949361355b6134ed94883d8a11610597576105888183610464565b975050509192506134cf565b509450929190926135786001600655565b805160010361359657906020806103409593015191015191336122de565b61034093336124ef565b6040516135ac81610429565b60008152906000368137565b604051906135c582610449565b600a82526973687574646f776e282960b01b6020830152565b604051906135eb82610449565b600a825269706f6f6c4e465431282960b01b6020830152565b908160a091031261032d578051916020820151916040810151916080606083015192015161051181611321565b90670de0b6b3a764000091828102928184041490151715611be457565b9081606402916064830403611be457565b81810292918115918404141715611be457565b6040519061367f82610449565b600a825269706f6f6c4e465432282960b01b6020830152565b6000906136b46136a66135a0565b6136ae6135b8565b83614340565b61380a57670de0b6b3a7640000926136ed6136de6136d06135a0565b6136d86135de565b85614253565b60208082518301019101613604565b50916011959395549561370084886127a8565b8610156137c4575b505050506136de6137249161371b6135a0565b9061117a613672565b509190939261373383876127a8565b841015613759575b50505050505004600f5490818111600014613754575090565b905090565b936137a36137b997969461379d6137ad956137976137a89661379161378b6137b39c613786600f54613631565b61365f565b9161364e565b9061265d565b976127a8565b90612edd565b61265d565b61279a565b9061365f565b906127a8565b38808080808061373b565b6137249497506137a8613801936137a36137fb6137f46136de989661379161378b6137ad98613786600f54613631565b958b6127a8565b89612edd565b94913880613708565b505050600f5490565b1561381a57565b60405162461bcd60e51b815260206004820152601760248201527f6f7263313135352e7472616e736665722e6661696c65640000000000000000006044820152606490fd5b6040519061386c82610449565b6014825273616c6c6f77466f7263655472616e73666572282960601b6020830152565b9081602091031261032d575161051181611321565b156138ab57565b60405162461bcd60e51b815260206004820152601c60248201527f6f7263313135352e666f7263655472616e736665722e6661696c6564000000006044820152606490fd5b90916004928060005260006020526139228261108d8560406000209060018060a01b0316600052602052604060002090565b6003546040516311be646b60e21b81529460209186919082906001600160a01b03165afa801561059e576103409460009161396f575b506040519361396685610429565b60008552611ccf565b613987915060203d8111610597576105888183610464565b38613958565b6040519061399a82610449565b601682527567657455736572546f496e737428616464726573732960501b6020830152565b156139c657565b60405162461bcd60e51b815260206004820152600f60248201526e6f7263313135352e6c65737351747960881b6044820152606490fd5b60405190613a0a82610449565b600682526573746f70282960d01b6020830152565b15613a2657565b60405162461bcd60e51b815260206004820152601060248201526f6f7263313135352e696e61637469766560801b6044820152606490fd5b60405190613a6b82610449565b600c82526b6d61784e465453656e64282960a01b6020830152565b60405190613a9382610449565b60118252704e465453656e645065724379636c65282960781b6020830152565b15613aba57565b60405162461bcd60e51b815260206004820152600e60248201526d1bdc98cc4c4d4d4b9b1bd8dad95960921b6044820152606490fd5b15613af757565b60405162461bcd60e51b815260206004820152601c60248201527f6f7263313135352e7472616e7366657228307830292e6661696c6564000000006044820152606490fd5b9091613b5361051193604084526040840190610dca565b916020818403910152610dca565b9190918251825190818103611cad57505060005b8351811015613be157600581901b8481016020908101519185010151613baf929184906001600160a01b038216613bb4575b505050611bd5565b613b75565b613bd7916111be613bcf926000526000602052604060002090565b9182546127a8565b9055388381613ba7565b50916001815114600014613c42576020908101519181015160408051938452918301526001600160a01b039092169160009133917fc3d58168c5ae7397731d063d5bbf3d657854427343f4c083240f7aacaa2d0f629190819081015b0390a4565b7f4a39dc06d4c0dbc64b70af90fd698a233a518aa5d07e595d983b8c0526c8f7fb613c3d6000939460405191829160018060a01b031696339583613b3c565b9392918051835190818103611cad57505060005b8151811015613d8857600581901b82810160209081015191860101516001600160a01b0392918590898516613d01575b613cd7948216613cdc57505050611bd5565b613c95565b613cf7916111be613bcf926000526000602052604060002090565b9055388481613ba7565b9192939050613d1e896111be846000526000602052604060002090565b54838110613d515791869184613cd796959403613d498c6111be856000526000602052604060002090565b559450613cc5565b6040516303dee4c560e01b81526001600160a01b038b16600482015260248101919091526044810184905260648101839052608490fd5b508051939493919291600103613dea576020908101519181015160408051938452918301526001600160a01b03928316939092169133917fc3d58168c5ae7397731d063d5bbf3d657854427343f4c083240f7aacaa2d0f629181908101613c3d565b6040516001600160a01b03938416949093169233927f4a39dc06d4c0dbc64b70af90fd698a233a518aa5d07e595d983b8c0526c8f7fb928291613c3d9183613b3c565b6001600160a01b03908116908115613e8157600354826bffffffffffffffffffffffff60a01b821617600355167fe939feee179e631422bcc8f6e6d7d908cb3f8af38f5372f17c77e15aea5c80ee600080a3565b60405162461bcd60e51b81526020600482015260136024820152726f776e2e696e76616c69642e6865786261736560681b6044820152606490fd5b60405190613ec982610449565b6008825267697353616665282960c01b6020830152565b15613ee757565b60405162461bcd60e51b815260206004820152601960248201527f6f776e2e7361666567756172642e63616c6c2e6661696c6564000000000000006044820152606490fd5b60405190613f3982610449565b601582527469735365637572654261736528616464726573732960581b6020830152565b15613f6457565b60405162461bcd60e51b815260206004820152601a60248201527f6f776e2e736563757265626173652e63616c6c2e6661696c65640000000000006044820152606490fd5b600354613fbe906001600160a01b03166109d6565b604051918291634bf9c0ad60e11b835282600460209485935afa92831561059e576105119361402092610a399260009261403b575b506040516001600160a01b039091168582019081529092614018918491602090910190565b610a4f613f2c565b919080614031575b610a6690613f5d565b5081518114614028565b61401891925061405790863d8811610597576105888183610464565b9190613ff3565b6040519061406b82610449565b601182527069735369676e657228616464726573732960781b6020830152565b1561409257565b60405162461bcd60e51b81526020600482015260166024820152751bdddb8b9cda59db995c8b98d85b1b0b99985a5b195960521b6044820152606490fd5b60035460405163111ea8c160e21b815290602090829060049082906001600160a01b03165afa801561059e576105119160009161413d575b5060405161411581610449565b6005815264616765282960d81b60208201526040519161413483610429565b6000835261437c565b614155915060203d8111610597576105888183610464565b38614108565b6040519061416882610449565b6011825270697364656c656761746f724e6f6465282960781b6020830152565b6001600160a01b039081169081156141dc57600454826bffffffffffffffffffffffff60a01b821617600455167f8292fce18fa69edf4db7b94ea2e58241df0ae57f97e0a6c9b29067028bf92d76600080a3565b60405162461bcd60e51b815260206004820152601160248201527037bbb71734b73b30b634b21737bbb732b960791b6044820152606490fd5b1561421c57565b60405162461bcd60e51b815260206004820152600f60248201526e1bdddb8b989d5c9b8b99985a5b1959608a1b6044820152606490fd5b9061425e929161427e565b906000901561426b575090565b604051915061427982610429565b815290565b803b156142e357600092839263ffffffff60e01b906020815191012016906142d060246040518093602082019586526142c08151809260208686019101610681565b8101036004810184520182610464565b5191620dbba0fa6142df6122ae565b9091565b5050506000906040516142f581610429565b6000815290565b929161430a9160009461427e565b9080614335575b6143185750565b90915060208180518101031261032d57602001516109d68161031c565b506020815114614311565b929161434e9160009461427e565b9080614371575b61435c5750565b6105119192506020808251830101910161388f565b506020815114614355565b929161438a9160009461427e565b90806143af575b6143985750565b90915060208180518101031261032d576020015190565b506020815114614391565b906020825192015163ffffffff60e01b9081811693600481106143dc57505050565b60040360031b82901b16169150565b6001600160a01b0381161561446c57600080918351908260208601915af1906144126122ae565b911561441c575090565b8051600091906004116144665761443391506143ba565b8151156144435750805190602001fd5b604051630870274d60e21b81526001600160e01b03199091166004820152602490fd5b50614433565b60405162461bcd60e51b81526020600482015260126024820152711bdddb8b9a5b9d985b1a590b9d185c99d95d60721b6044820152606490fdfec65a7bb8d6351c1cf70c95a316cc6a92839c986682d98bc35f958f4883f9d2a8a66cc928b5edb82af9bd49922954155ab7b0942694bea4ce44661d9a8736c6886e1540171b6c0c960b71a7020d9f60077f6af931a8bbf590da0223dacf75c7afa2646970667358221220ecc8ad489225a1f1518d3ab663e5493cce9abddddcd0fb8d7c144d0890a83c5f64736f6c63430008140033a2646970667358221220ad059b64369635daa1afa03e33adcc48727df7d85842e57e32d705d074c276d864736f6c63430008140033","linkReferences":{}},"methodIdentifiers":{"deployNFT(address,bytes)":"165fd13f","getCatNFTParamsEncoded()":"8cfa829d","getDragonNFTParamsEncoded()":"145d523f","getLionNFTParamsEncoded()":"f0ea4497","getMachineBullNFTParamsEncoded()":"d127b278","getMonalisaNFTParamsEncoded()":"4c54bc55","getNeonlitNFTParamsEncoded()":"0c5b0ac6"},"id":53}