{"abi":[{"type":"constructor","inputs":[{"name":"_hex","type":"address","internalType":"address"}],"stateMutability":"nonpayable"},{"type":"fallback","stateMutability":"payable"},{"type":"receive","stateMutability":"payable"},{"type":"function","name":"Burn","inputs":[{"name":"amount","type":"uint256","internalType":"uint256"}],"outputs":[],"stateMutability":"nonpayable"},{"type":"function","name":"JoinAsUser","inputs":[],"outputs":[],"stateMutability":"nonpayable"},{"type":"function","name":"TVLrefresh","inputs":[{"name":"user","type":"address","internalType":"address"},{"name":"maxint","type":"uint256","internalType":"uint256"},{"name":"issend","type":"bool","internalType":"bool"}],"outputs":[],"stateMutability":"nonpayable"},{"type":"function","name":"Withdraw","inputs":[],"outputs":[],"stateMutability":"nonpayable"},{"type":"function","name":"_delegatorCount","inputs":[],"outputs":[{"name":"","type":"uint256","internalType":"uint256"}],"stateMutability":"view"},{"type":"function","name":"_getImplementation","inputs":[{"name":"clone","type":"address","internalType":"address"}],"outputs":[{"name":"impl","type":"address","internalType":"address"}],"stateMutability":"view"},{"type":"function","name":"_isDelegatorNode","inputs":[{"name":"sender","type":"address","internalType":"address"}],"outputs":[{"name":"","type":"bool","internalType":"bool"}],"stateMutability":"view"},{"type":"function","name":"_isSafe","inputs":[],"outputs":[{"name":"","type":"bool","internalType":"bool"}],"stateMutability":"view"},{"type":"function","name":"_isSecureBase","inputs":[{"name":"sender","type":"address","internalType":"address"}],"outputs":[{"name":"","type":"bool","internalType":"bool"}],"stateMutability":"view"},{"type":"function","name":"_isSigner","inputs":[{"name":"sender","type":"address","internalType":"address"}],"outputs":[{"name":"","type":"bool","internalType":"bool"}],"stateMutability":"view"},{"type":"function","name":"currentnode","inputs":[],"outputs":[{"name":"","type":"uint256","internalType":"uint256"}],"stateMutability":"view"},{"type":"function","name":"getBalance","inputs":[],"outputs":[{"name":"","type":"uint256","internalType":"uint256"}],"stateMutability":"view"},{"type":"function","name":"getHexbase","inputs":[],"outputs":[{"name":"","type":"address","internalType":"address"}],"stateMutability":"view"},{"type":"function","name":"owner","inputs":[],"outputs":[{"name":"","type":"address","internalType":"address"}],"stateMutability":"view"},{"type":"function","name":"ownerChange","inputs":[{"name":"batch","type":"uint256","internalType":"uint256"}],"outputs":[],"stateMutability":"nonpayable"},{"type":"function","name":"setStoppedUsers","inputs":[{"name":"users","type":"address[]","internalType":"address[]"},{"name":"status","type":"bool","internalType":"bool"}],"outputs":[],"stateMutability":"nonpayable"},{"type":"function","name":"stoppedUser","inputs":[{"name":"","type":"address","internalType":"address"}],"outputs":[{"name":"","type":"bool","internalType":"bool"}],"stateMutability":"view"},{"type":"function","name":"syncBaseAddr","inputs":[],"outputs":[],"stateMutability":"nonpayable"},{"type":"function","name":"systemAge","inputs":[],"outputs":[{"name":"","type":"uint256","internalType":"uint256"}],"stateMutability":"view"},{"type":"event","name":"EthBurned","inputs":[{"name":"sender","type":"address","indexed":true,"internalType":"address"},{"name":"amount","type":"uint256","indexed":false,"internalType":"uint256"}],"anonymous":false},{"type":"event","name":"EthTransferred","inputs":[{"name":"to","type":"address","indexed":true,"internalType":"address"},{"name":"amount","type":"uint256","indexed":false,"internalType":"uint256"}],"anonymous":false},{"type":"event","name":"HexBaseUpdated","inputs":[{"name":"previousHexBase","type":"address","indexed":true,"internalType":"address"},{"name":"newHexBase","type":"address","indexed":true,"internalType":"address"}],"anonymous":false},{"type":"event","name":"OwnerUpdated","inputs":[{"name":"previousOwner","type":"address","indexed":true,"internalType":"address"},{"name":"newOwner","type":"address","indexed":true,"internalType":"address"}],"anonymous":false},{"type":"error","name":"CallFailed","inputs":[]},{"type":"error","name":"InvalidAddress","inputs":[]},{"type":"error","name":"InvalidState","inputs":[]},{"type":"error","name":"NotAuthorized","inputs":[]},{"type":"error","name":"NotSafe","inputs":[]},{"type":"error","name":"ReentrancyGuardReentrantCall","inputs":[]},{"type":"error","name":"TargetCallFailed","inputs":[{"name":"selector","type":"bytes4","internalType":"bytes4"}]}],"bytecode":{"object":"0x60803461117e57601f61335338819003918201601f191683019291906001600160401b0384118385101761118357816020928492604096875283398101031261117e57516001600160a01b0381169081900361117e57801561116d5760018060a01b0319906001903383835416178255600092835416178255806011557393afb986791330fafc1d6a8a2dc3c57d1a4d7b7f82526012602052828083209260ff1993838582541617905572175e018f62d9eea225849386c8947c9b3224448152818120838582541617905573e7747aa78f1adadeafce880dc5bf6dff93bebcdf8152818120838582541617905573f951210b6916e6d44f318229ae67cc217408c3ec8152818120838582541617905573ec215e40cac0712c364a65f119b241596111f790815281812083858254161790557360f0775f586d54eee0bc56e71e4347fdb0d21514815281812083858254161790557399def2a97bfc5ef1e802968fcbcba2858eb689b58152818120838582541617905573f1a028797af8cc4d9fafdb8c1a59addd4cb593fc8152818120838582541617905573cc76d7ab8b1d3b4bb60a3f40c4afc53a8708baa981528181208385825416179055734f0e87222732bca851597316a3dcda3bf474a526815281812083858254161790557337af2e67651eb2798d9c5a520b8068f585124a99815281812083858254161790557345133247e97f90fe403f460442152680ebd05865815281812083858254161790557309d2079a5351279c57fcec40a7978e6e3e08c4a78152818120838582541617905573c167e97064275e2ac88335a09307eadfdb4a7d218152818120838582541617905573a161adc509d6fe8db00f511968cebd6533ad796a8152818120838582541617905573c7924f5c743d5714eb36aad5f0ccabda3a65949881528181208385825416179055730631ebe5a8a2f0759534cd9879a19c61170ab65181528181208385825416179055739871d3799735429a3bddbba8777d5bd45baa3b628152818120838582541617905573e23bb0861b4065643e1979cf95d74c049c530a058152818120838582541617905573fcfc949aede640d82e9c5de63c15752c23898410815281812083858254161790557342ae1ee6b6fc1fab01fc0865812c5b182b32bdd6815281812083858254161790557351aa8d8cf12175e822a98dc65bb5535f58b80b1381528181208385825416179055728b8fbb43c20be52219ad56aaec27cb250953bd8152818120838582541617905573969557fa4fde2bdddf943ccacbfc836efd7df26281528181208385825416179055734122fed51ba462129520e8032a68ba5b7c932df281528181208385825416179055730267bde9db5843b1425c97d97fb7377a2b8ebac88152818120838582541617905573e8ee79d3e242a4a189ab2863a70b44478c89042d81528181208385825416179055734035f3c9a15f157f94e31db8e2f14820be873a4e8152818120838582541617905573ce6c5d01680fe5890e1f0cc401ad912c61558f588152818120838582541617905573c5cb7eabb25f6dfb1db627e2305ee33fde3465178152818120838582541617905573a855b30614e8d3bc1d2d8d7f68db033fb3611c9b8152818120838582541617905573aa29e3e6ee0e69960bba15cc5d65c5321e7067f88152818120838582541617905573b18f6576fe746bb960d55809cfd8aa127731ac3f815281812083858254161790557327c4b008144741b199beabc11510541354c9b43481528181208385825416179055734a3a8bd8e6c2cac6ce47260b53ace71c6993258181528181208385825416179055730bc627c356ed631b2ba6fade8b244c96d44f8a8e8152818120838582541617905573d975bb250824eec9e90056f966fda8fec35c7621815281812083858254161790557377929ee9be56115a7145d4f83b32b522f6c0b697815281812083858254161790557377343858c49b52395255ef52b0d728f8c1c8ea6d8152818120838582541617905573e214094ae6bf3e94fcb8aac375f812ea773b8c3181528181208385825416179055737d78514da9692e3760509f0603c7eaba08c8d3958152818120838582541617905573aeea3c073ba66e369bd3b156c523d8c16ecbc91181528181208385825416179055738b1195b56a6d9bd5fb59052cb1077663538747c18152818120838582541617905573dbd7a48b6fcc7aa0d78f7f30328fcb3e5173dde88152818120838582541617905573725dac59c63ef40d7bb7b43d3acef4545f74f29281528181208385825416179055739822b97a65154064092432a1723e60b71d1086e1815281812083858254161790557337f42508e41e4324f65a924612345f6cc7cc3f368152818120838582541617905573a644d8c7e4df214cf7f8db4aaa45d0d6a8feb7e98152818120838582541617905573ab985b5ef79391479d6c4e9f973715d04e6f3f7181528181208385825416179055733df658b12c0986c25ffb071c6aa95fe02ba45ce2815281812083858254161790557315cdd2eec56cc2a02dee1ef465c9371353e5546781528181208385825416179055731b1f61361a968e5d4e883e18907a1fb7322d93ef81528181208385825416179055732ac4b4f0eae802a27cecf8e2592547a3e849a5d481528181208385825416179055730877f8ce9beec53b37462b93f591b3bd359a2d3081528181208385825416179055736dc76d02a9e8ee0365b71ab60e56f53878b79cc181528181208385825416179055732170a4ea7d39a00db440f323f7227f7010cbe5658152818120838582541617905573deabad12f748300b1f44110e96a88f931f94f97281528181208385825416179055733b75d5e9a7173bb69b388de55ce4290244ea499a81528181208385825416179055735bc0ef13a3e3d65ea1cdc9f0860797a459901c01815281812083858254161790557354a655c311326e422e7acbea569eeba72dd81d488152818120838582541617905573048d2a08719e10cb2ec1259419e6c32753704fe18152818120838582541617905573e155fdca0c48d88eba018b4ecaa3d65779797c6b81528181208385825416179055732983e96bcc9ca7eb3db754a1c5f14872bd0b0aaf81528181208385825416179055737cf1d8b3a1096d079d91e37e97d50a0115ed035a815281812083858254161790557385cb5af682112bc95d63ccb19337f86997242fb9815281812083858254161790557337b50af0de4f09dd1a8fea1b7e52b0b79894a0448152818120838582541617905573b8e2f0c4ad00bdae98fd55e1c18138f717a7e73681528181208385825416179055731347fa324215c7e4d033cf770070274068f35d36815281812083858254161790557384c36b288666073649b363ba0a30182fa2b0e12981528181208385825416179055735432beea62916364101e377e141a904a74272c538152818120838582541617905573eaa9d50d2cddc305b81356d9305c8917c23983388152818120838582541617905573f2ea5a47c978c7e246a6f07ed1b0902f9550094f8152818120838582541617905573c8737e46fa4d458f0f4f0954d5d37e69fd731b91815281812083858254161790557387d9be3ea1952690803dea5d3d5f140b61805d0081528181208385825416179055736b293af931d91ff4f9fa6b769be7deb3b242014f8152818120838582541617905573b1385158a8bd6a539023a3c9962b8d7348bad98481528181208385825416179055734ce2cd1f26f07a6c406554ffd4ce3fa621790ed08152818120838582541617905573190fbcbf15f6f4a0426f0cebb2cac7004c1d212981528181208385825416179055734b6dffd8d75a5e3a89b76f9c3c2d4f41462071ce81528181208385825416179055733e522136d908141470ccf96377f2a2d5e56d38d081528181208385825416179055738b741f7986eccdb092c1292de0bd02d32a250a4081528181208385825416179055734a5d698c5f25326926bd26e1e89f6d6e78a126ed81528181208385825416179055733380ea16078da578298faf53640f207c9e990f0e815281812083858254161790557372bac68a0e704edbb3ad478fef9e81ba0b025fd1815281812083858254161790557348aae34ce2f4772334743c17f12983e84c6bd2f58152818120838582541617905573c14df72d144da6ff6d4791353c37cad1801809358152818120838582541617905573210304cf280536733a7f6c79278d9ec643174ee98152818120838582541617905573831a99efd7927d5cac44329bd2e3d918035b4c7781528181208385825416179055731bc5cde28a9f30e65e2c422d44a139ad06d089748152818120838582541617905573492336fc5dbdb362c3902972c3ec187175fa10fb8152818120838582541617905573e9509759784f43193b6442ab7609de29bfa335f181528181208385825416179055736e180c692241493a6582e59e176119a0ec1b79d181528181208385825416179055730238df72920b02478e2a268f8b43b5b716032bd9815281812083858254161790557339a4d428fbc8f889e9295c926a32b60cb64c310a815281812083858254161790557344ae0bb46da7cad0b4fae8606a82b23d8ab91577815281812083858254161790557397e761b93d322b9a23f23d32ab69b83bceaf21a181528181208385825416179055736eddc4b007f4d62229f571f958b1492b8ba624058152818120838582541617905573cafbca546c247fcb8ce61b807fcc604952041d5281528181208385825416179055736b234c3749f7e4672212995e0a69d78c6d57a24081528181208385825416179055739bca42b1b0a9d62822c87cc02a44209260a4127f8152818120838582541617905573698c5992951f2409a2c3cabb6235eb14b232fc44815281812083858254161790557363105c87522b6177e0ddf06180961faa21ba65808152818120838582541617905573084aacf1452b2bdd547a5c0049245eeadeb90e8f8152818120838582541617905573398b445b332d3590e00b4e09504fcf1c985cc34e8152818120838582541617905573c4af9e5e07221592357e0a04c6118167b95c5ef08152818120838582541617905573dc8adf6f282faa8ecf6a54946a462abcf9ce907b8152818120838582541617905573b1656c30fab874e2cc86e6271793ebd13060a9bd81528181208385825416179055737433d91babfdaca751fa502b87d70f2eefee339d815281812083858254161790557398c1a33330119245d6cf2ca98685c5c102b0f848815281812083858254161790557379f754b64656723c9abcab0b66d6945ea75aa1c4815281812083858254161790557396c15f431947527d460b602617ffcbc53065ee7f8152818120838582541617905573a3649e0a1a6e89616122a7c8ae6d9198566956e68152818120838582541617905573f5ed0fc55b3862541895ff172e3530d3c028084b8152818120838582541617905573b958254103d6e9f281c96b7f91c774d70e4e18d88152818120838582541617905573d3785c2526a64f38ff250f48f50b26f16b7aded7815281812083858254161790557312cc04ba00358b3f1dc4bb2533273c721bab50ab81528181208385825416179055734a3cab10fbaf5fd99fd9f8c7d54db161a632621081528181208385825416179055731c9b52cb18bbe3a5413c7416fd38cc192c7580ae81528181208385825416179055734762e83384cdbf63b957a1f8db5a51c8c78cea2581528181208385825416179055730f6d72839ad70f33125e00c4cffef7279704c2ac8152818120838582541617905573712d1571b2e800471773ebe70040d2eab5797a51815281812083858254161790557335ff30ca4606917a20d3575ba50efb4018214b3d815281812083858254161790557322e0aa6acf7d0bfcc5cdd2300648aa79d8f04a3081528181208385825416179055739f4d37a352e84ba2f04bec54a93aafadbbb56c148152818120838582541617905573cf06c07239c5533a916a8f9a1415756efc427b8881528181208385825416179055731bf468def329b583e585c31200ee35ae9f47a6a58152818120838582541617905573cc0dc351db595fd83130bf2cd547be9f927e718281522091825416179055516121b9908161119a8239f35b815163e6c4247b60e01b8152600490fd5b600080fd5b634e487b7160e01b600052604160045260246000fdfe60806040526004361015610018575b361561001657005b005b60003560e01c8063032e6875146101485780630fee94951461014357806312065fe01461013e5780631252bf74146101395780631f185d1614610134578063339459a61461012f5780633b9b79551461012a57806357ea89b614610125578063767b64a2146101205780638da5cb5b1461011b578063a1f7f53914610116578063af48452614610111578063b2eb1c001461010c578063b90306ad14610107578063c54e44b014610102578063e01ad5fd146100fd578063e0a9bc2b146100f8578063edd3ceb6146100f35763fdc10bc90361000e57611648565b61162a565b61160f565b611544565b6114be565b6113b0565b6110d5565b6110a4565b61102f565b611008565b610f09565b610e67565b610e40565b610782565b610697565b610654565b610638565b6101cf565b61015c565b8015150361015757565b600080fd5b346101575760403660031901126101575767ffffffffffffffff6004358181116101575736602382011215610157578060040135918211610157573660248360051b83010111610157576100169160248035926101b88461014d565b016116ac565b6001600160a01b0381160361015757565b3461015757606036600319011261015757600480356101ed816101be565b6044356101f98161014d565b6102016117fc565b610228610221836001600160a01b03166000526012602052604060002090565b5460ff1690565b1561043f5750906102506102446000546001600160a01b031690565b6001600160a01b031690565b9060405192839263ab6e844f60e01b8452838360209586935afa93841561043a576000946103ed575b506102f361031b926102ff6102df6102d16102af61030d966040519182918b83019190916001600160a01b036020820193169052565b03996102c3601f199b8c81018452836117b6565b6102cb6119e2565b9061200e565b92546001600160a01b031690565b916040519384918883019190602083019252565b038781018452836117b6565b6103076118e0565b90611efc565b828082518301019101611919565b50506001600160a01b0390811694501691508190506103a6575b508061034a575b5050505b6100166001601155565b61039861039d937f619d519400000000000000000000000000000000000000000000000000000000604051948501528361038c60248201906001602083019252565b039081018452836117b6565b61207e565b5038808061033c565b6040517f641657cb0000000000000000000000000000000000000000000000000000000084820152600160248201526103e69161039882604481016102f3565b5038610335565b61030d91945061031b926102ff6102df6102d16102af6104256102f3968a3d8c11610433575b61041d81836117b6565b8101906117d8565b999650505050509250610279565b503d610413565b6117f0565b6104546102446000546001600160a01b031690565b9160409081519063ab6e844f60e01b825260209081838881895afa92831561043a57600093610619575b5083516001600160a01b038216838201908152819003808252601f19946104bb92916104ad90602001836117b6565b6104b56119a9565b90611fbd565b966001600160a01b03968789161561060a57839086519283809263111ea8c160e21b82525afa801561043a5761052d92610519926000926105e7575b506105259087519384918783019190916001600160a01b036020820193169052565b038681018452836117b6565b6104b5611970565b9283319584161515806105de575b61054c575b50505050505050610340565b517fa3e884b000000000000000000000000000000000000000000000000000000000918101919091526000602480830182905235604483015260648201526007608482015260a491820181526105ac916105a690826117b6565b8261207e565b50311590816105d6575b506105c6575b8080808080610540565b6105cf91611e72565b38806105bc565b9050386105b6565b5085151561053b565b61052591925061060390863d88116104335761041d81836117b6565b91906104f7565b50845163ea8e4eb560e01b8152fd5b610631919350823d84116104335761041d81836117b6565b913861047e565b3461015757600036600319011261015757602047604051908152f35b34610157576020366003190112610157576001600160a01b03600435610679816101be565b166000526012602052602060ff604060002054166040519015158152f35b3461015757602080600319360112610157576107166004356106b8816101be565b6001600160a01b038060025416906040519216848301528382526106db82611779565b604051906106e882611779565b601182527f69735369676e657228616464726573732900000000000000000000000000000085830152611f27565b919080610778575b1561074e5781816107389261074a94518301019101611d1e565b60405190151581529081906020820190565b0390f35b60046040517f3204506f000000000000000000000000000000000000000000000000000000008152fd5b508082511461071e565b34610157576000366003190112610157576107a86102446000546001600160a01b031690565b604051907f97f3815a000000000000000000000000000000000000000000000000000000008252602082600481845afa91821561043a57600092610e1f575b50604051917fcfbffe53000000000000000000000000000000000000000000000000000000008352602083600481855afa92831561043a57600093610dfe575b506040519063ab6e844f60e01b8252602082600481865afa91821561043a57600092610ddd575b50604051917f14d8d024000000000000000000000000000000000000000000000000000000008352602083600481875afa92831561043a57600093610dbc575b50604051927fd1f956b1000000000000000000000000000000000000000000000000000000008452602084600481885afa93841561043a57600094610d9b575b50604051937fe61dfd58000000000000000000000000000000000000000000000000000000008552602085600481895afa94851561043a57600095610d7a575b506040517fe09d394d0000000000000000000000000000000000000000000000000000000081526020816004818a5afa90811561043a57600091610d5b575b506040517f52b06d640000000000000000000000000000000000000000000000000000000081526020816004818b5afa90811561043a57600091610d3c575b506040517f013cf08b00000000000000000000000000000000000000000000000000000000815260006004820152916020836024818c5afa92831561043a57600093610d1b575b50604051977f5e09dbe70000000000000000000000000000000000000000000000000000000089526020896004818d5afa94851561043a57600499600096610cfa575b5060208b6040519b8c80927faa0ddc160000000000000000000000000000000000000000000000000000000082525afa96871561043a5760049a600098610cd9575b5060208c6040519c8d80927f640274270000000000000000000000000000000000000000000000000000000082525afa98891561043a5760049b60009a610cb8575b5060208d6040519d8e80927f30125cf50000000000000000000000000000000000000000000000000000000082525afa9a8b1561043a578d60049d60009d610c96575b506020906040519e8f80927f24768d910000000000000000000000000000000000000000000000000000000082525afa9c8d1561043a5760009d610c75575b50604051809e81907f9dc969a80000000000000000000000000000000000000000000000000000000082525a92600491602094fa9d8e1561043a5760009e610c54575b50610b68611837565b6001600160a01b0390911681529d8e906001600160a01b0316602082015260400190610b9c91906001600160a01b03169052565b6001600160a01b031660608d01526001600160a01b031660808c01526001600160a01b031660a08b01526001600160a01b031660c08a01526001600160a01b031660e08901526001600160a01b03166101008801526001600160a01b03166101208701526001600160a01b03166101408601526001600160a01b03166101608501526001600160a01b03166101808401526001600160a01b03166101a08301526001600160a01b03166101c082015261001690611a1b565b610c6e919e5060203d6020116104335761041d81836117b6565b9c38610b5f565b610c8f919d5060203d6020116104335761041d81836117b6565b9b38610b1c565b6020919d50610cb190823d84116104335761041d81836117b6565b9c90610add565b610cd2919a5060203d6020116104335761041d81836117b6565b9838610a9a565b610cf391985060203d6020116104335761041d81836117b6565b9638610a58565b610d1491965060203d6020116104335761041d81836117b6565b9438610a16565b610d3591935060203d6020116104335761041d81836117b6565b91386109d3565b610d55915060203d6020116104335761041d81836117b6565b3861098c565b610d74915060203d6020116104335761041d81836117b6565b3861094d565b610d9491955060203d6020116104335761041d81836117b6565b933861090e565b610db591945060203d6020116104335761041d81836117b6565b92386108ce565b610dd691935060203d6020116104335761041d81836117b6565b913861088e565b610df791925060203d6020116104335761041d81836117b6565b903861084e565b610e1891935060203d6020116104335761041d81836117b6565b9138610827565b610e3991925060203d6020116104335761041d81836117b6565b90386107e7565b346101575760003660031901126101575760206001600160a01b0360005416604051908152f35b3461015757600080600319360112610f0657610e81611d33565b15610edc576001600160a01b0380600154163303610ecb578180808093610ea66117fc565b600154164790828215610ec2575bf11561043a57600160115580f35b506108fc610eb4565b600460405163ea8e4eb560e01b8152fd5b60046040517f9dc4246e000000000000000000000000000000000000000000000000000000008152fd5b80fd5b3461015757600080600319360112610f0657610f236117fc565b60046020610f3b61024484546001600160a01b031690565b604051928380927fde433f170000000000000000000000000000000000000000000000000000000082525afa801561043a57610fd7610fc991610fdc938591610fea575b506040517f4159b3f50000000000000000000000000000000000000000000000000000000060208201523060248201526001600160a01b0390911660448201529182906064820190565b03601f1981018352826117b6565b612100565b50610fe76001601155565b80f35b611002915060203d81116104335761041d81836117b6565b38610f7f565b346101575760003660031901126101575760206001600160a01b0360015416604051908152f35b3461015757600036600319011261015757602061109c6001600160a01b036006541660405161105d81611779565b601381527f67657464656c656761746f72436f756e7428290000000000000000000000000084820152604051916110938361179a565b6000835261200e565b604051908152f35b346101575760203660031901126101575760206110cb6004356110c6816101be565b611db8565b6040519015158152f35b3461015757602080600319360112610157576110ef6117fc565b600461111661110582546001600160a01b031690565b61110d611874565b906102cb61188c565b91601392611126833585546118d3565b908082116113a8575b505b83548181101561034057839061115761115183546001600160a01b031690565b916118c5565b61119761118961117560409384519182918a83019190602083019252565b03946102ff601f19968781018452836117b6565b868082518301019101611919565b5050935050506001600160a01b03808092169216938415158061139f575b6111d7575b5050505050506111d26111cd855461174f565b601355565b611131565b600092886111ef61024486546001600160a01b031690565b86519889809263111ea8c160e21b82525afa91821561043a57611294978a9593611380575b5061125486516112468161123a868a83019190916001600160a01b036020820193169052565b038481018352826117b6565b61124e611970565b85611fbd565b9384166112a0575b505050505051907fab57c03a000000000000000000000000000000000000000000000000000000008583015285825261039882611779565b508238808080806111ba565b6113759461038c610398937f957138a4000000000000000000000000000000000000000000000000000000009661134d6102218b51937f4fb2e45d000000000000000000000000000000000000000000000000000000008786015261133360249561132d81611321308a83019190916001600160a01b036020820193169052565b038b81018352826117b6565b8561207e565b506001600160a01b03166000526012602052604060002090565b918a5198899586015284019092916020906001600160a01b0360408401951683521515910152565b50843880808061125c565b611398919350853d87116104335761041d81836117b6565b9138611214565b508215156111b5565b90503861112f565b34610157576020366003190112610157576004356113cc611d33565b15610edc576001600160a01b03600554163303610ecb57600090600460206113fe61024485546001600160a01b031690565b604051928380927f46f991ac0000000000000000000000000000000000000000000000000000000082525afa801561043a57838084819493829483916114a0575b505af161144a611e42565b501561074e577fcdcc745fe377b103b45fa0cec23ae3ef93d6fc6a84a01f0d18c40b354dd1d5d861149a611489610244600b546001600160a01b031690565b604051938452929081906020820190565b0390a280f35b6114b8915060203d81116104335761041d81836117b6565b3861143f565b34610157576020366003190112610157576004356114db816101be565b803b60006114e882611858565b926114f660405194856117b6565b82845260208401903c602d81511061151a57602a602091015160601c604051908152f35b60046040517fbaf3f0f7000000000000000000000000000000000000000000000000000000008152fd5b34610157576020806003193601126101575761074a9060043590611567826101be565b6115cb6001600160a01b039283600654169360405191168382015282815261158e81611779565b60405161159a81611779565b601881527f697364656c656761746f724e6f6465286164647265737329000000000000000084820152600094611f27565b919080611605575b6115ec575b505060405190151581529081906020820190565b6115fe92508082518301019101611d1e565b38806115d8565b50808251146115d3565b346101575760003660031901126101575760206110cb611d33565b34610157576000366003190112610157576020601354604051908152f35b3461015757600036600319011261015757602061109c6001600160a01b036003541660405161167681611779565b600681527f694167652829000000000000000000000000000000000000000000000000000084820152604051916110938361179a565b9190916116b7611d33565b15610edc576116c533611db8565b8015611725575b15610ecb57600090815b8481106116e4575050505050565b806001600160a01b036117209260051b840135611700816101be565b16845260126020526040842060ff1981541660ff8715151617905561174f565b6116d6565b50336001600160a01b0360055416146116cc565b634e487b7160e01b600052601160045260246000fd5b600019811461175e5760010190565b611739565b634e487b7160e01b600052604160045260246000fd5b6040810190811067ffffffffffffffff82111761179557604052565b611763565b6020810190811067ffffffffffffffff82111761179557604052565b90601f8019910116810190811067ffffffffffffffff82111761179557604052565b9081602091031261015757516117ed816101be565b90565b6040513d6000823e3d90fd5b60026011541461180d576002601155565b60046040517f3ee5aeb5000000000000000000000000000000000000000000000000000000008152fd5b604051906101e0820182811067ffffffffffffffff82111761179557604052565b67ffffffffffffffff811161179557601f01601f191660200190565b6040516118808161179a565b60008152906000368137565b6040519061189982611779565b600f82527f6765744e6f646573436f756e74282900000000000000000000000000000000006020830152565b906001820180921161175e57565b9190820180921161175e57565b604051906118ed82611779565b601082527f6765744e6f64652875696e7432353629000000000000000000000000000000006020830152565b908160e0910312610157578051916020820151611935816101be565b91604081015191606082015161194a816101be565b916080810151611959816101be565b9160c060a083015161196a8161014d565b92015190565b6040519061197d82611779565b601382527f55736572546f496e7374286164647265737329000000000000000000000000006020830152565b604051906119b682611779565b601682527f67657455736572546f496e7374286164647265737329000000000000000000006020830152565b604051906119ef82611779565b601182527f55736572546f49642861646472657373290000000000000000000000000000006020830152565b611d006101c0611d1c92611a55611a3982516001600160a01b031690565b6001600160a01b03166001600160a01b03196002541617600255565b611a88611a6c60208301516001600160a01b031690565b6001600160a01b03166001600160a01b03196003541617600355565b611abb611a9f60408301516001600160a01b031690565b6001600160a01b03166001600160a01b03196004541617600455565b611aee611ad260608301516001600160a01b031690565b6001600160a01b03166001600160a01b03196005541617600555565b611b21611b0560808301516001600160a01b031690565b6001600160a01b03166001600160a01b03196006541617600655565b611b54611b3860a08301516001600160a01b031690565b6001600160a01b03166001600160a01b03196007541617600755565b611b87611b6b60c08301516001600160a01b031690565b6001600160a01b03166001600160a01b03196008541617600855565b611bba611b9e60e08301516001600160a01b031690565b6001600160a01b03166001600160a01b03196009541617600955565b611bee611bd26101008301516001600160a01b031690565b6001600160a01b03166001600160a01b0319600a541617600a55565b611c22611c066101208301516001600160a01b031690565b6001600160a01b03166001600160a01b0319600b541617600b55565b611c56611c3a6101408301516001600160a01b031690565b6001600160a01b03166001600160a01b0319600c541617600c55565b611c8a611c6e6101608301516001600160a01b031690565b6001600160a01b03166001600160a01b0319600d541617600d55565b611cbe611ca26101808301516001600160a01b031690565b6001600160a01b03166001600160a01b0319600e541617600e55565b611cf2611cd66101a08301516001600160a01b031690565b6001600160a01b03166001600160a01b0319600f541617600f55565b01516001600160a01b031690565b6001600160a01b03166001600160a01b03196010541617601055565b565b9081602091031261015757516117ed8161014d565b611d8e6001600160a01b0360025416604051611d4e81611779565b600881527f6973536166652829000000000000000000000000000000000000000000000000602082015260405191611d858361179a565b60008352611f27565b9080611dad575b1561074e57806020806117ed93518301019101611d1e565b506020815114611d95565b611e1b6001600160a01b038060025416604051916020941684830152838252611de082611779565b60405190611ded82611779565b601582527f697353656375726542617365286164647265737329000000000000000000000085830152611f27565b9080611e38575b1561074e57816117ed9282518301019101611d1e565b5081815114611e22565b3d15611e6d573d90611e5382611858565b91611e6160405193846117b6565b82523d6000602084013e565b606090565b908015611ef8576001600160a01b038216918215611ece57600080808481945af1611e9b611e42565b501561074e5760207fcec1f18c3ab8ddaaa107a1591e3c369667eec613626611a8deaedef43069fcdd91604051908152a2565b60046040517fe6c4247b000000000000000000000000000000000000000000000000000000008152fd5b5050565b90611f079291611f27565b9060009015611f14575090565b6040519150611f228261179a565b815290565b9190823b15611fa4576001600160e01b0319815160208093012016916040519180830193845281519160005b838110611f90575050509181611f80602482600097959688970187838201520360048101845201826117b6565b51915afa611f8c611e42565b9091565b818101830151858201602401528201611f53565b505050600090604051611fb68161179a565b6000815290565b9291611fcb91600094611f27565b9080612003575b611fd95750565b9091506020818051810103126101575760206001600160a01b03910151611fff816101be565b1690565b506020815114611fd2565b929161201c91600094611f27565b9080612041575b61202a5750565b909150602081805181010312610157576020015190565b506020815114612023565b90602082519201516001600160e01b031990818116936004811061206f57505050565b60040360031b82901b16169150565b6001600160a01b03811615611ece57600080918351908260208601915af1906120a5611e42565b91156120af575090565b8051600091906004116120fa576120c6915061204c565b8151156120d65750805190602001fd5b604051630870274d60e21b81526001600160e01b0319919091166004820152602490fd5b506120c6565b60008082516020840182736c96f2d0c9a8b7fb472a319b1ecf7e8626c7b2ba5af19061212a611e42565b9115612134575090565b80516000919060041161217d5761214b915061204c565b81511561215b5750805190602001fd5b6024906001600160e01b031960405191630870274d60e21b8352166004820152fd5b5061214b56fea264697066735822122013e8f02d9f37421af7fec49c3c9febb5175898c36bf8d3ea1c95c98d4291566264736f6c63430008140033","linkReferences":{}},"methodIdentifiers":{"Burn(uint256)":"b90306ad","JoinAsUser()":"767b64a2","TVLrefresh(address,uint256,bool)":"0fee9495","Withdraw()":"57ea89b6","_delegatorCount()":"a1f7f539","_getImplementation(address)":"c54e44b0","_isDelegatorNode(address)":"e01ad5fd","_isSafe()":"e0a9bc2b","_isSecureBase(address)":"af484526","_isSigner(address)":"1f185d16","currentnode()":"edd3ceb6","getBalance()":"12065fe0","getHexbase()":"3b9b7955","owner()":"8da5cb5b","ownerChange(uint256)":"b2eb1c00","setStoppedUsers(address[],bool)":"032e6875","stoppedUser(address)":"1252bf74","syncBaseAddr()":"339459a6","systemAge()":"fdc10bc9"},"id":59}