{"abi":[{"type":"constructor","inputs":[{"name":"_hex","type":"address","internalType":"address"}],"stateMutability":"nonpayable"},{"type":"fallback","stateMutability":"payable"},{"type":"receive","stateMutability":"payable"},{"type":"function","name":"Burn","inputs":[{"name":"amount","type":"uint256","internalType":"uint256"}],"outputs":[],"stateMutability":"nonpayable"},{"type":"function","name":"JoinAsUser","inputs":[],"outputs":[],"stateMutability":"nonpayable"},{"type":"function","name":"TVLrefresh","inputs":[{"name":"user","type":"address","internalType":"address"},{"name":"maxint","type":"uint256","internalType":"uint256"},{"name":"issend","type":"bool","internalType":"bool"}],"outputs":[],"stateMutability":"nonpayable"},{"type":"function","name":"Withdraw","inputs":[],"outputs":[],"stateMutability":"nonpayable"},{"type":"function","name":"_delegatorCount","inputs":[],"outputs":[{"name":"","type":"uint256","internalType":"uint256"}],"stateMutability":"view"},{"type":"function","name":"_getImplementation","inputs":[{"name":"clone","type":"address","internalType":"address"}],"outputs":[{"name":"impl","type":"address","internalType":"address"}],"stateMutability":"view"},{"type":"function","name":"_isDelegatorNode","inputs":[{"name":"sender","type":"address","internalType":"address"}],"outputs":[{"name":"","type":"bool","internalType":"bool"}],"stateMutability":"view"},{"type":"function","name":"_isSafe","inputs":[],"outputs":[{"name":"","type":"bool","internalType":"bool"}],"stateMutability":"view"},{"type":"function","name":"_isSecureBase","inputs":[{"name":"sender","type":"address","internalType":"address"}],"outputs":[{"name":"","type":"bool","internalType":"bool"}],"stateMutability":"view"},{"type":"function","name":"_isSigner","inputs":[{"name":"sender","type":"address","internalType":"address"}],"outputs":[{"name":"","type":"bool","internalType":"bool"}],"stateMutability":"view"},{"type":"function","name":"currentnode","inputs":[],"outputs":[{"name":"","type":"uint256","internalType":"uint256"}],"stateMutability":"view"},{"type":"function","name":"getBalance","inputs":[],"outputs":[{"name":"","type":"uint256","internalType":"uint256"}],"stateMutability":"view"},{"type":"function","name":"getHexbase","inputs":[],"outputs":[{"name":"","type":"address","internalType":"address"}],"stateMutability":"view"},{"type":"function","name":"owner","inputs":[],"outputs":[{"name":"","type":"address","internalType":"address"}],"stateMutability":"view"},{"type":"function","name":"ownerChange","inputs":[{"name":"batch","type":"uint256","internalType":"uint256"}],"outputs":[],"stateMutability":"nonpayable"},{"type":"function","name":"syncBaseAddr","inputs":[],"outputs":[],"stateMutability":"nonpayable"},{"type":"function","name":"systemAge","inputs":[],"outputs":[{"name":"","type":"uint256","internalType":"uint256"}],"stateMutability":"view"},{"type":"event","name":"EthBurned","inputs":[{"name":"sender","type":"address","indexed":true,"internalType":"address"},{"name":"amount","type":"uint256","indexed":false,"internalType":"uint256"}],"anonymous":false},{"type":"event","name":"EthTransferred","inputs":[{"name":"to","type":"address","indexed":true,"internalType":"address"},{"name":"amount","type":"uint256","indexed":false,"internalType":"uint256"}],"anonymous":false},{"type":"event","name":"HexBaseUpdated","inputs":[{"name":"previousHexBase","type":"address","indexed":true,"internalType":"address"},{"name":"newHexBase","type":"address","indexed":true,"internalType":"address"}],"anonymous":false},{"type":"event","name":"OwnerUpdated","inputs":[{"name":"previousOwner","type":"address","indexed":true,"internalType":"address"},{"name":"newOwner","type":"address","indexed":true,"internalType":"address"}],"anonymous":false},{"type":"error","name":"CallFailed","inputs":[]},{"type":"error","name":"InvalidAddress","inputs":[]},{"type":"error","name":"InvalidState","inputs":[]},{"type":"error","name":"NotAuthorized","inputs":[]},{"type":"error","name":"NotSafe","inputs":[]},{"type":"error","name":"ReentrancyGuardReentrantCall","inputs":[]},{"type":"error","name":"TargetCallFailed","inputs":[{"name":"selector","type":"bytes4","internalType":"bytes4"}]}],"bytecode":{"object":"0x60803461009757601f611ea738819003918201601f19168301916001600160401b0383118484101761009c5780849260209460405283398101031261009757516001600160a01b038116908190036100975780156100855760018060a01b03193381600154161760015560005416176000556001601155604051611df490816100b38239f35b60405163e6c4247b60e01b8152600490fd5b600080fd5b634e487b7160e01b600052604160045260246000fdfe60806040526004361015610018575b361561001657005b005b60003560e01c80630fee94951461012857806312065fe0146101235780631f185d161461011e578063339459a6146101195780633b9b79551461011457806357ea89b61461010f578063767b64a21461010a5780638da5cb5b14610105578063a1f7f53914610100578063af484526146100fb578063b2eb1c00146100f6578063b90306ad146100f1578063c54e44b0146100ec578063e01ad5fd146100e7578063e0a9bc2b146100e2578063edd3ceb6146100dd5763fdc10bc90361000e576111fb565b6111dd565b6111b8565b6110ed565b611067565b610f59565b610c74565b610bf5565b610b80565b610b59565b610a5a565b61099f565b610978565b610299565b6101ae565b610192565b61014d565b6001600160a01b0381160361013e57565b600080fd5b8015150361013e57565b3461013e57606036600319011261013e5761018b60043561016d8161012d565b6044359061017a82610143565b6101826112f8565b602435906114dc565b6001601155005b3461013e57600036600319011261013e57602047604051908152f35b3461013e5760208060031936011261013e5761022d6004356101cf8161012d565b6001600160a01b038060025416906040519216848301528382526101f282611275565b604051906101ff82611275565b601182527f69735369676e657228616464726573732900000000000000000000000000000085830152611b62565b91908061028f575b1561026557818161024f9261026194518301019101611a0e565b60405190151581529081906020820190565b0390f35b60046040517f3204506f000000000000000000000000000000000000000000000000000000008152fd5b5080825114610235565b3461013e57600036600319011261013e576102cb6102bf6000546001600160a01b031690565b6001600160a01b031690565b604051907f97f3815a000000000000000000000000000000000000000000000000000000008252602082600481845afa9182156107a857600092610957575b50604051917fcfbffe53000000000000000000000000000000000000000000000000000000008352602083600481855afa9283156107a857600093610936575b506040519063ab6e844f60e01b8252602082600481865afa9182156107a857600092610915575b50604051917f14d8d024000000000000000000000000000000000000000000000000000000008352602083600481875afa9283156107a8576000936108f4575b50604051927fd1f956b1000000000000000000000000000000000000000000000000000000008452602084600481885afa9384156107a8576000946108d3575b50604051937fe61dfd58000000000000000000000000000000000000000000000000000000008552602085600481895afa9485156107a8576000956108b2575b506040517fe09d394d0000000000000000000000000000000000000000000000000000000081526020816004818a5afa9081156107a857600091610893575b506040517f52b06d640000000000000000000000000000000000000000000000000000000081526020816004818b5afa9081156107a857600091610874575b506040517f013cf08b00000000000000000000000000000000000000000000000000000000815260006004820152916020836024818c5afa9283156107a857600093610853575b50604051977f5e09dbe70000000000000000000000000000000000000000000000000000000089526020896004818d5afa9485156107a857600499600096610832575b5060208b6040519b8c80927faa0ddc160000000000000000000000000000000000000000000000000000000082525afa9687156107a85760049a600098610811575b5060208c6040519c8d80927f640274270000000000000000000000000000000000000000000000000000000082525afa9889156107a85760049b60009a6107f0575b5060208d6040519d8e80927f30125cf50000000000000000000000000000000000000000000000000000000082525afa9a8b156107a8578d60049d60009d6107ce575b506020906040519e8f80927f24768d910000000000000000000000000000000000000000000000000000000082525afa9c8d156107a85760009d6107ad575b50604051809e81907f9dc969a80000000000000000000000000000000000000000000000000000000082525a92600491602094fa9d8e156107a85760009e610777575b5061068b611333565b6001600160a01b0390911681529d8e906001600160a01b03166020820152604001906106bf91906001600160a01b03169052565b6001600160a01b031660608d01526001600160a01b031660808c01526001600160a01b031660a08b01526001600160a01b031660c08a01526001600160a01b031660e08901526001600160a01b03166101008801526001600160a01b03166101208701526001600160a01b03166101408601526001600160a01b03166101608501526001600160a01b03166101808401526001600160a01b03166101a08301526001600160a01b03166101c08201526100169061170b565b61079a919e5060203d6020116107a1575b61079281836112b2565b8101906112d4565b9c38610682565b503d610788565b6112ec565b6107c7919d5060203d6020116107a15761079281836112b2565b9b3861063f565b6020919d506107e990823d84116107a15761079281836112b2565b9c90610600565b61080a919a5060203d6020116107a15761079281836112b2565b98386105bd565b61082b91985060203d6020116107a15761079281836112b2565b963861057b565b61084c91965060203d6020116107a15761079281836112b2565b9438610539565b61086d91935060203d6020116107a15761079281836112b2565b91386104f6565b61088d915060203d6020116107a15761079281836112b2565b386104af565b6108ac915060203d6020116107a15761079281836112b2565b38610470565b6108cc91955060203d6020116107a15761079281836112b2565b9338610431565b6108ed91945060203d6020116107a15761079281836112b2565b92386103f1565b61090e91935060203d6020116107a15761079281836112b2565b91386103b1565b61092f91925060203d6020116107a15761079281836112b2565b9038610371565b61095091935060203d6020116107a15761079281836112b2565b913861034a565b61097191925060203d6020116107a15761079281836112b2565b903861030a565b3461013e57600036600319011261013e5760206001600160a01b0360005416604051908152f35b3461013e57600080600319360112610a57576109b9611a23565b15610a2d576001600160a01b0380600154163303610a035781808080936109de6112f8565b6001541647908282156109fa575bf1156107a857600160115580f35b506108fc6109ec565b60046040517fea8e4eb5000000000000000000000000000000000000000000000000000000008152fd5b60046040517f9dc4246e000000000000000000000000000000000000000000000000000000008152fd5b80fd5b3461013e57600080600319360112610a5757610a746112f8565b60046020610a8c6102bf84546001600160a01b031690565b604051928380927fde433f170000000000000000000000000000000000000000000000000000000082525afa80156107a857610b28610b1a91610b2d938591610b3b575b506040517f4159b3f50000000000000000000000000000000000000000000000000000000060208201523060248201526001600160a01b0390911660448201529182906064820190565b03601f1981018352826112b2565b611cb9565b50610b386001601155565b80f35b610b53915060203d81116107a15761079281836112b2565b38610ad0565b3461013e57600036600319011261013e5760206001600160a01b0360015416604051908152f35b3461013e57600036600319011261013e576020610bed6001600160a01b0360065416604051610bae81611275565b601381527f67657464656c656761746f72436f756e742829000000000000000000000000008482015260405191610be483611296565b60008352611c49565b604051908152f35b3461013e5760208060031936011261013e5761022d600435610c168161012d565b6001600160a01b03806002541690604051921684830152838252610c3982611275565b60405190610c4682611275565b601582527f697353656375726542617365286164647265737329000000000000000000000085830152611b62565b3461013e5760208060031936011261013e57610c8e6112f8565b600490610cbc610ca583546001600160a01b031690565b610cad611370565b90610cb6611388565b90611c49565b91601292610ccc823585546113d7565b90808211610f51575b505b835481811015610f4757610ced610cf2916113e9565b601255565b6000610d086102bf82546001600160a01b031690565b9060409182519163ab6e844f60e01b9182845287848881845afa9384156107a8578294610f28575b5088548551808a01828152610d6a916102bf9181906020010397610d5c601f19998a81018452836112b2565b610d646113f8565b90611bf8565b610d7a575b505050505050610cd7565b855193845288848981855afa9081156107a857610db68a92610dca928b978792610f05575b50610dc2908a519384918783019190602083019252565b038981018452836112b2565b610d64611431565b9186519485809263111ea8c160e21b82525afa9081156107a857610e2893610e149392610ee2575b50610e209086519384918b83019190916001600160a01b036020820193169052565b038581018452836112b2565b610d6461146a565b6001600160a01b038116610e3f575b808080610d6f565b610ed4610ec89284610ed99551907f4fb2e45d000000000000000000000000000000000000000000000000000000008a830152610eaa602492610ea481610e98308783019190916001600160a01b036020820193169052565b038681018352826112b2565b86611d3c565b505194859163d57d418f60e01b8b8401528201906001602083019252565b039081018452836112b2565b611d3c565b50388080610e37565b610e20919250610efe908a3d8c116107a15761079281836112b2565b9190610df2565b610dc2919250610f2190863d88116107a15761079281836112b2565b9190610d9f565b610f40919450883d8a116107a15761079281836112b2565b9238610d30565b6100166001601155565b905038610cd5565b3461013e57602036600319011261013e57600435610f75611a23565b15610a2d576001600160a01b03600554163303610a035760009060046020610fa76102bf85546001600160a01b031690565b604051928380927f46f991ac0000000000000000000000000000000000000000000000000000000082525afa80156107a85783808481949382948391611049575b505af1610ff3611aa8565b5015610265577fcdcc745fe377b103b45fa0cec23ae3ef93d6fc6a84a01f0d18c40b354dd1d5d86110436110326102bf600b546001600160a01b031690565b604051938452929081906020820190565b0390a280f35b611061915060203d81116107a15761079281836112b2565b38610fe8565b3461013e57602036600319011261013e576004356110848161012d565b803b600061109182611354565b9261109f60405194856112b2565b82845260208401903c602d8151106110c357602a602091015160601c604051908152f35b60046040517fbaf3f0f7000000000000000000000000000000000000000000000000000000008152fd5b3461013e5760208060031936011261013e5761026190600435906111108261012d565b6111746001600160a01b039283600654169360405191168382015282815261113781611275565b60405161114381611275565b601881527f697364656c656761746f724e6f6465286164647265737329000000000000000084820152600094611b62565b9190806111ae575b611195575b505060405190151581529081906020820190565b6111a792508082518301019101611a0e565b3880611181565b508082511461117c565b3461013e57600036600319011261013e5760206111d3611a23565b6040519015158152f35b3461013e57600036600319011261013e576020601254604051908152f35b3461013e57600036600319011261013e576020610bed6001600160a01b036003541660405161122981611275565b600681527f69416765282900000000000000000000000000000000000000000000000000008482015260405191610be483611296565b634e487b7160e01b600052604160045260246000fd5b6040810190811067ffffffffffffffff82111761129157604052565b61125f565b6020810190811067ffffffffffffffff82111761129157604052565b90601f8019910116810190811067ffffffffffffffff82111761129157604052565b9081602091031261013e57516112e98161012d565b90565b6040513d6000823e3d90fd5b600260115414611309576002601155565b60046040517f3ee5aeb5000000000000000000000000000000000000000000000000000000008152fd5b604051906101e0820182811067ffffffffffffffff82111761129157604052565b67ffffffffffffffff811161129157601f01601f191660200190565b60405161137c81611296565b60008152906000368137565b6040519061139582611275565b600f82527f6765744e6f646573436f756e74282900000000000000000000000000000000006020830152565b634e487b7160e01b600052601160045260246000fd5b919082018092116113e457565b6113c1565b60001981146113e45760010190565b6040519061140582611275565b601882527f676574557365724964546f496e73742875696e743235362900000000000000006020830152565b6040519061143e82611275565b600e82527f6e6f6465732875696e74323536290000000000000000000000000000000000006020830152565b6040519061147782611275565b601382527f55736572546f496e7374286164647265737329000000000000000000000000006020830152565b604051906114b082611275565b601682527f67657455736572546f496e7374286164647265737329000000000000000000006020830152565b916114f26102bf6000546001600160a01b031690565b9160409081519163ab6e844f60e01b83526020918284600481895afa9384156107a8576000946116ec575b5081516001600160a01b038816848201908152819003808252601f1995611554929161154c90602001836112b2565b610d646114a3565b966001600160a01b0396878916156116e1578460049185519283809263111ea8c160e21b82525afa80156107a8576115c0926115b4926000926116be575b50610e209086519384918983019190916001600160a01b036020820193169052565b038881018452836112b2565b9384319685161515806116b5575b6115dd575b5050505050505050565b6116829361167061167c93856116437fa3e884b000000000000000000000000000000000000000000000000000000000975163d57d418f60e01b8682015261163d8161163160248201906000602083019252565b038881018352826112b2565b8a611d3c565b50519586938401526024830160606007919392936080810194600082526020820152600060408201520152565b039081018352826112b2565b82611d3c565b50311590816116ad575b5061169d575b8080808080806115d3565b6116a691611ad8565b3880611692565b90503861168c565b508615156115ce565b610e209192506116da90883d8a116107a15761079281836112b2565b9190611592565b505050505050505050565b611704919450833d85116107a15761079281836112b2565b923861151d565b6119f06101c0611a0c9261174561172982516001600160a01b031690565b6001600160a01b03166001600160a01b03196002541617600255565b61177861175c60208301516001600160a01b031690565b6001600160a01b03166001600160a01b03196003541617600355565b6117ab61178f60408301516001600160a01b031690565b6001600160a01b03166001600160a01b03196004541617600455565b6117de6117c260608301516001600160a01b031690565b6001600160a01b03166001600160a01b03196005541617600555565b6118116117f560808301516001600160a01b031690565b6001600160a01b03166001600160a01b03196006541617600655565b61184461182860a08301516001600160a01b031690565b6001600160a01b03166001600160a01b03196007541617600755565b61187761185b60c08301516001600160a01b031690565b6001600160a01b03166001600160a01b03196008541617600855565b6118aa61188e60e08301516001600160a01b031690565b6001600160a01b03166001600160a01b03196009541617600955565b6118de6118c26101008301516001600160a01b031690565b6001600160a01b03166001600160a01b0319600a541617600a55565b6119126118f66101208301516001600160a01b031690565b6001600160a01b03166001600160a01b0319600b541617600b55565b61194661192a6101408301516001600160a01b031690565b6001600160a01b03166001600160a01b0319600c541617600c55565b61197a61195e6101608301516001600160a01b031690565b6001600160a01b03166001600160a01b0319600d541617600d55565b6119ae6119926101808301516001600160a01b031690565b6001600160a01b03166001600160a01b0319600e541617600e55565b6119e26119c66101a08301516001600160a01b031690565b6001600160a01b03166001600160a01b0319600f541617600f55565b01516001600160a01b031690565b6001600160a01b03166001600160a01b03196010541617601055565b565b9081602091031261013e57516112e981610143565b611a7e6001600160a01b0360025416604051611a3e81611275565b600881527f6973536166652829000000000000000000000000000000000000000000000000602082015260405191611a7583611296565b60008352611b62565b9080611a9d575b1561026557806020806112e993518301019101611a0e565b506020815114611a85565b3d15611ad3573d90611ab982611354565b91611ac760405193846112b2565b82523d6000602084013e565b606090565b908015611b5e576001600160a01b038216918215611b3457600080808481945af1611b01611aa8565b50156102655760207fcec1f18c3ab8ddaaa107a1591e3c369667eec613626611a8deaedef43069fcdd91604051908152a2565b60046040517fe6c4247b000000000000000000000000000000000000000000000000000000008152fd5b5050565b9190823b15611bdf576001600160e01b0319815160208093012016916040519180830193845281519160005b838110611bcb575050509181611bbb602482600097959688970187838201520360048101845201826112b2565b51915afa611bc7611aa8565b9091565b818101830151858201602401528201611b8e565b505050600090604051611bf181611296565b6000815290565b9291611c0691600094611b62565b9080611c3e575b611c145750565b90915060208180518101031261013e5760206001600160a01b03910151611c3a8161012d565b1690565b506020815114611c0d565b9291611c5791600094611b62565b9080611c7c575b611c655750565b90915060208180518101031261013e576020015190565b506020815114611c5e565b90602082519201516001600160e01b0319908181169360048110611caa57505050565b60040360031b82901b16169150565b60008082516020840182736c96f2d0c9a8b7fb472a319b1ecf7e8626c7b2ba5af190611ce3611aa8565b9115611ced575090565b805160009190600411611d3657611d049150611c87565b815115611d145750805190602001fd5b6024906001600160e01b031960405191630870274d60e21b8352166004820152fd5b50611d04565b6001600160a01b03811615611b3457600080918351908260208601915af190611d63611aa8565b9115611d6d575090565b805160009190600411611db857611d849150611c87565b815115611d945750805190602001fd5b604051630870274d60e21b81526001600160e01b0319919091166004820152602490fd5b50611d8456fea2646970667358221220022a4a8964192fd8d2fdad16fab13a8a994ce6739808ba7221b05a8b4cbd1d5e64736f6c63430008140033","linkReferences":{}},"methodIdentifiers":{"Burn(uint256)":"b90306ad","JoinAsUser()":"767b64a2","TVLrefresh(address,uint256,bool)":"0fee9495","Withdraw()":"57ea89b6","_delegatorCount()":"a1f7f539","_getImplementation(address)":"c54e44b0","_isDelegatorNode(address)":"e01ad5fd","_isSafe()":"e0a9bc2b","_isSecureBase(address)":"af484526","_isSigner(address)":"1f185d16","currentnode()":"edd3ceb6","getBalance()":"12065fe0","getHexbase()":"3b9b7955","owner()":"8da5cb5b","ownerChange(uint256)":"b2eb1c00","syncBaseAddr()":"339459a6","systemAge()":"fdc10bc9"},"id":59}