{"abi":[{"type":"constructor","inputs":[],"stateMutability":"nonpayable"},{"type":"fallback","stateMutability":"payable"},{"type":"receive","stateMutability":"payable"},{"type":"function","name":"Burn","inputs":[{"name":"amount","type":"uint256","internalType":"uint256"}],"outputs":[],"stateMutability":"payable"},{"type":"function","name":"InstToUser","inputs":[{"name":"","type":"address","internalType":"address"}],"outputs":[{"name":"","type":"address","internalType":"address"}],"stateMutability":"view"},{"type":"function","name":"UserToInst","inputs":[{"name":"","type":"address","internalType":"address"}],"outputs":[{"name":"","type":"address","internalType":"address"}],"stateMutability":"view"},{"type":"function","name":"_addBusiness","inputs":[{"name":"uinst","type":"address","internalType":"address"},{"name":"amount","type":"uint256","internalType":"uint256"},{"name":"qty","type":"uint256","internalType":"uint256"}],"outputs":[],"stateMutability":"nonpayable"},{"type":"function","name":"_addParentYei","inputs":[{"name":"self","type":"uint256","internalType":"uint256"}],"outputs":[],"stateMutability":"nonpayable"},{"type":"function","name":"_createInstance","inputs":[{"name":"user","type":"address","internalType":"address"},{"name":"inst","type":"address","internalType":"address"}],"outputs":[],"stateMutability":"nonpayable"},{"type":"function","name":"_nested","inputs":[{"name":"pInst","type":"address","internalType":"address"},{"name":"uinst","type":"address","internalType":"address"},{"name":"ct","type":"uint256","internalType":"uint256"}],"outputs":[{"name":"id","type":"uint256","internalType":"uint256"}],"stateMutability":"nonpayable"},{"type":"function","name":"_setInstOfUser","inputs":[{"name":"from","type":"address","internalType":"address"},{"name":"to","type":"address","internalType":"address"}],"outputs":[],"stateMutability":"nonpayable"},{"type":"function","name":"_setOwner","inputs":[{"name":"user","type":"address","internalType":"address"}],"outputs":[],"stateMutability":"nonpayable"},{"type":"function","name":"age","inputs":[],"outputs":[{"name":"","type":"uint256","internalType":"uint256"}],"stateMutability":"view"},{"type":"function","name":"at","inputs":[{"name":"_addr","type":"address","internalType":"address"}],"outputs":[{"name":"o_code","type":"bytes","internalType":"bytes"}],"stateMutability":"view"},{"type":"function","name":"daytimestamp","inputs":[],"outputs":[{"name":"","type":"uint256","internalType":"uint256"}],"stateMutability":"view"},{"type":"function","name":"getAdd","inputs":[],"outputs":[{"name":"","type":"address","internalType":"address"}],"stateMutability":"view"},{"type":"function","name":"getBalance","inputs":[],"outputs":[{"name":"","type":"uint256","internalType":"uint256"}],"stateMutability":"view"},{"type":"function","name":"getNode","inputs":[{"name":"uinst","type":"address","internalType":"address"}],"outputs":[{"name":"i","type":"uint256","internalType":"uint256"},{"name":"pa","type":"address","internalType":"address"},{"name":"cage","type":"uint256","internalType":"uint256"},{"name":"rnk","type":"uint256","internalType":"uint256"},{"name":"active","type":"bool","internalType":"bool"}],"stateMutability":"view"},{"type":"function","name":"getNodeByIndex","inputs":[{"name":"index","type":"uint256","internalType":"uint256"}],"outputs":[{"name":"node","type":"address","internalType":"address"}],"stateMutability":"view"},{"type":"function","name":"getNodeChild","inputs":[{"name":"uinst","type":"address","internalType":"address"},{"name":"inx","type":"uint256","internalType":"uint256"}],"outputs":[{"name":"child","type":"address","internalType":"address"}],"stateMutability":"view"},{"type":"function","name":"getNodeDirectsCount","inputs":[{"name":"uinst","type":"address","internalType":"address"}],"outputs":[{"name":"count","type":"uint256","internalType":"uint256"}],"stateMutability":"view"},{"type":"function","name":"getNodeLB","inputs":[{"name":"uinst","type":"address","internalType":"address"},{"name":"lvl","type":"uint256","internalType":"uint256"}],"outputs":[{"name":"levelbusiness","type":"uint256","internalType":"uint256"},{"name":"levelqty","type":"uint256","internalType":"uint256"}],"stateMutability":"view"},{"type":"function","name":"getNodeLvlDepth","inputs":[{"name":"uinst","type":"address","internalType":"address"}],"outputs":[{"name":"depth","type":"uint256","internalType":"uint256"}],"stateMutability":"view"},{"type":"function","name":"getNodeParent","inputs":[{"name":"uinst","type":"address","internalType":"address"}],"outputs":[{"name":"","type":"address","internalType":"address"}],"stateMutability":"view"},{"type":"function","name":"getNodesCount","inputs":[],"outputs":[{"name":"nodesCount","type":"uint256","internalType":"uint256"}],"stateMutability":"view"},{"type":"function","name":"getRewards","inputs":[{"name":"uinst","type":"address","internalType":"address"}],"outputs":[{"name":"rw","type":"uint256","internalType":"uint256"},{"name":"yei","type":"uint256","internalType":"uint256"}],"stateMutability":"view"},{"type":"function","name":"getavgRwrds","inputs":[{"name":"_rnk","type":"uint256","internalType":"uint256"},{"name":"ag","type":"uint256","internalType":"uint256"}],"outputs":[{"name":"","type":"uint256","internalType":"uint256"}],"stateMutability":"view"},{"type":"function","name":"getbusiness","inputs":[{"name":"ag","type":"uint256","internalType":"uint256"}],"outputs":[{"name":"","type":"uint256","internalType":"uint256"}],"stateMutability":"view"},{"type":"function","name":"getnodeRnk","inputs":[{"name":"uinst","type":"address","internalType":"address"}],"outputs":[{"name":"rank","type":"uint256","internalType":"uint256"}],"stateMutability":"view"},{"type":"function","name":"getnodeRnkAge","inputs":[{"name":"uinst","type":"address","internalType":"address"},{"name":"_rnk","type":"uint256","internalType":"uint256"}],"outputs":[{"name":"","type":"uint256","internalType":"uint256"}],"stateMutability":"view"},{"type":"function","name":"getrankCount","inputs":[{"name":"rnk","type":"uint256","internalType":"uint256"}],"outputs":[{"name":"count","type":"uint256","internalType":"uint256"}],"stateMutability":"view"},{"type":"function","name":"isCreated","inputs":[{"name":"node","type":"address","internalType":"address"}],"outputs":[{"name":"","type":"bool","internalType":"bool"}],"stateMutability":"view"},{"type":"function","name":"isInstance","inputs":[{"name":"inst","type":"address","internalType":"address"}],"outputs":[{"name":"","type":"bool","internalType":"bool"}],"stateMutability":"view"},{"type":"function","name":"isNode","inputs":[{"name":"uinst","type":"address","internalType":"address"}],"outputs":[{"name":"","type":"bool","internalType":"bool"}],"stateMutability":"view"},{"type":"function","name":"isUserInst","inputs":[{"name":"node","type":"address","internalType":"address"},{"name":"_ins","type":"address","internalType":"address"}],"outputs":[{"name":"isIndeed","type":"bool","internalType":"bool"}],"stateMutability":"view"},{"type":"function","name":"owner","inputs":[],"outputs":[{"name":"","type":"address","internalType":"address"}],"stateMutability":"view"},{"type":"function","name":"setParam","inputs":[{"name":"s","type":"address","internalType":"address"},{"name":"r","type":"address","internalType":"address"},{"name":"m","type":"address","internalType":"address"},{"name":"f","type":"address","internalType":"address"},{"name":"cl","type":"address","internalType":"address"}],"outputs":[],"stateMutability":"nonpayable"},{"type":"function","name":"setactive","inputs":[{"name":"uinst","type":"address","internalType":"address"},{"name":"flag","type":"bool","internalType":"bool"}],"outputs":[],"stateMutability":"nonpayable"},{"type":"function","name":"withdraw","inputs":[{"name":"amount","type":"uint256","internalType":"uint256"}],"outputs":[],"stateMutability":"payable"}],"bytecode":{"object":"0x60806040525f80546001600160a01b0319908116734ba1c6ce515736036d50303827b36c5266241ca317825560018054821673902e066c1a020558509bbc139a943ac3290a39c517905560028054821673c889be0ab0ff3910cc0f5e0140f08222cbc989cc17905560038054821673ab3ff3103e0f97d73ced41cd9dc0297d9e28af6717905560048054821673c3cc31756cd35552ca0289e77f02c92bfe03a436179055600580548216733c3f4530595d75d194c9b071e307c404297aae7d17905560068054821673225f8b54006e04239d3ba378a132393109f4fac31790556007805490911673f73b2a6f34bad8fd50d57feebdc4d44ad64b1820179055600f5534801561010c575f80fd5b50600880546001600160a01b0319163217905542600f556126cc806101305f395ff3fe6080604052600436106101fa575f3560e01c80636b44e6be1161010b578063b90306ad11610099578063dd1b98ac1161006b578063dd1b98ac1461071c578063e4a312d11461073b578063eb95c6621461075a578063f802729614610785578063fc201122146107be57005b8063b90306ad146106a2578063c4cf0e3f146106b5578063d14d42ba146106d4578063dce4a447146106f057005b80638954eb7a116100dd5780638954eb7a146105935780638da5cb5b146105be578063965c90e3146105db5780639d209048146105fa578063b07518231461068357005b80636b44e6be146104fd578063710a4ddc1461053657806379ee54f714610555578063886d66ec1461057457005b8063321f4f211161018857806345675cc81161015a57806345675cc8146104585780634aa247a2146104775780635329daca146104965780635d423396146104ca57806361ea7208146104e957005b8063321f4f2114610375578063389fac60146103ac5780633ddce00b146103e357806345145fd71461042457005b80631e1f3188116101cc5780631e1f3188146102e557806320808d48146102fb578063247349d51461031a578063262a9dff1461034e5780632e1a7d4d1461036257005b8063017501521461020357806308a391111461023757806312065fe01461027c5780631bb49f021461028e57005b3661020157005b005b34801561020e575f80fd5b5061022261021d3660046122a8565b6107dd565b60405190151581526020015b60405180910390f35b348015610242575f80fd5b5061026e6102513660046122a8565b6001600160a01b03165f908152600d602052604090206004015490565b60405190815260200161022e565b348015610287575f80fd5b504761026e565b348015610299575f80fd5b506102cd6102a83660046122a8565b6001600160a01b039081165f908152600d602052604090206001015461010090041690565b6040516001600160a01b03909116815260200161022e565b3480156102f0575f80fd5b5061026e6201518081565b348015610306575f80fd5b5061026e6103153660046122c1565b6107fd565b348015610325575f80fd5b506102cd6103343660046122a8565b600a6020525f90815260409020546001600160a01b031681565b348015610359575f80fd5b5061026e61081d565b6102016103703660046122e1565b61082b565b348015610380575f80fd5b5061026e61038f3660046122a8565b6001600160a01b03165f908152600d602052604090206003015490565b3480156103b7575f80fd5b5061026e6103c63660046122a8565b6001600160a01b03165f908152600d602052604090206007015490565b3480156103ee575f80fd5b5061026e6103fd3660046122f8565b6001600160a01b03919091165f908152600c60209081526040808320938352929052205490565b34801561042f575f80fd5b506102cd61043e3660046122a8565b60096020525f90815260409020546001600160a01b031681565b348015610463575f80fd5b506102cd6104723660046122f8565b61088f565b348015610482575f80fd5b50610201610491366004612330565b6108d6565b3480156104a1575f80fd5b506104b56104b03660046122f8565b610a30565b6040805192835260208301919091520161022e565b3480156104d5575f80fd5b506102226104e4366004612365565b610ab3565b3480156104f4575f80fd5b50600e5461026e565b348015610508575f80fd5b506102226105173660046122a8565b6001600160a01b039081165f908152600a602052604090205416151590565b348015610541575f80fd5b50610201610550366004612365565b610b26565b348015610560575f80fd5b506104b561056f3660046122a8565b610da5565b34801561057f575f80fd5b5061020161058e366004612365565b610f66565b34801561059e575f80fd5b5061026e6105ad3660046122e1565b5f9081526011602052604090205490565b3480156105c9575f80fd5b506008546001600160a01b03166102cd565b3480156105e6575f80fd5b506102cd6105f53660046122e1565b61111a565b348015610605575f80fd5b506106516106143660046122a8565b6001600160a01b039081165f908152600d60205260409020805460018201546006830154600790930154919461010082049094169360ff90911690565b604080519586526001600160a01b0390941660208601529284019190915260608301521515608082015260a00161022e565b34801561068e575f80fd5b5061020161069d366004612396565b611148565b6102016106b03660046122e1565b6112bb565b3480156106c0575f80fd5b506102016106cf3660046123f7565b6112e9565b3480156106df575f80fd5b505f546001600160a01b03166102cd565b3480156106fb575f80fd5b5061070f61070a3660046122a8565b611a10565b60405161022e9190612449565b348015610727575f80fd5b506102016107363660046122e1565b611a41565b348015610746575f80fd5b5061026e61075536600461247b565b611b2c565b348015610765575f80fd5b5061026e6107743660046122e1565b5f9081526010602052604090205490565b348015610790575f80fd5b5061022261079f3660046122a8565b6001600160a01b039081165f9081526009602052604090205416151590565b3480156107c9575f80fd5b506102016107d83660046122a8565b611d4e565b6001600160a01b03165f908152600d602052604090206001015460ff1690565b5f8181526012602090815260408083208584529091529020545b92915050565b5f610826611df7565b905090565b60085432906001600160a01b031681146108605760405162461bcd60e51b8152600401610857906124b4565b60405180910390fd5b604051329083156108fc029084905f818181858888f1935050505015801561088a573d5f803e3d5ffd5b505050565b6001600160a01b0382165f908152600d602052604081206003018054839081106108bb576108bb6124dc565b5f918252602090912001546001600160a01b03169392505050565b5f8054906101000a90046001600160a01b03166001600160a01b0316636a276f9d6040518163ffffffff1660e01b8152600401602060405180830381865afa158015610924573d5f803e3d5ffd5b505050506040513d601f19601f8201168201806040525081019061094891906124f0565b6109645760405162461bcd60e51b8152600401610857906124b4565b5f546040516319c0642960e01b81523360048201819052916001600160a01b0316906319c0642990602401602060405180830381865afa1580156109aa573d5f803e3d5ffd5b505050506040513d601f19601f820116820180604052508101906109ce91906124f0565b806109e657506008546001600160a01b038281169116145b610a025760405162461bcd60e51b8152600401610857906124b4565b506001600160a01b03919091165f908152600d60205260409020600101805460ff1916911515919091179055565b6001600160a01b0382165f908152600d60205260408120600401805482919084908110610a5f57610a5f6124dc565b905f5260205f200154600d5f866001600160a01b03166001600160a01b031681526020019081526020015f206005018481548110610a9f57610a9f6124dc565b905f5260205f200154915091509250929050565b6001600160a01b038281165f9081526009602052604081205490911615801590610af857506001600160a01b038381165f908152600960205260409020548116908316145b8015610b1f57506001600160a01b038281165f908152600a60205260409020548116908416145b9392505050565b5f8054906101000a90046001600160a01b03166001600160a01b0316636a276f9d6040518163ffffffff1660e01b8152600401602060405180830381865afa158015610b74573d5f803e3d5ffd5b505050506040513d601f19601f82011682018060405250810190610b9891906124f0565b610bb45760405162461bcd60e51b8152600401610857906124b4565b806001600160a01b038116610bdb5760405162461bcd60e51b8152600401610857906124b4565b5f546040516319c0642960e01b81523360048201819052916001600160a01b0316906319c0642990602401602060405180830381865afa158015610c21573d5f803e3d5ffd5b505050506040513d601f19601f82011682018060405250810190610c4591906124f0565b610c615760405162461bcd60e51b8152600401610857906124b4565b6001600160a01b038085165f908152600960205260409020541615158015610ca057506001600160a01b038381165f9081526009602052604090205416155b610ce45760405162461bcd60e51b81526020600482015260156024820152741b9bdd08195e1a5cdd1cc81bdc881a5b9d985b1a59605a1b6044820152606401610857565b6001600160a01b038481165f908152600960209081526040808320805488861680865283862080549288166001600160a01b0319938416179055825487168652600a85528386208054909216179055549093168252600d905220548390600e90610d509060019061251f565b81548110610d6057610d606124dc565b5f918252602080832090910180546001600160a01b039485166001600160a01b0319918216179091559690921681526009909152604090208054909416909355505050565b5f8060015b600f8111610f60576001600160a01b03841615610f60576001546001600160a01b038581165f908152600d6020526040808220600781015460069091015491516307135b0360e41b815292948594859485949190921692637135b03092610e26928a916004019283526020830191909152604082015260600190565b608060405180830381865afa158015610e41573d5f803e3d5ffd5b505050506040513d601f19601f82011682018060405250810190610e659190612532565b9350935093509350826064610e7a9190612565565b6001600160a01b0389165f908152600d60205260409020600401805486919088908110610ea957610ea96124dc565b905f5260205f200154610ebc9190612565565b610ec6919061257c565b610ed0908861259b565b9650610edd816064612565565b6001600160a01b0389165f908152600b60209081526040808320898452909152902054610f0b908490612565565b610f15919061257c565b610f1f908761259b565b6001600160a01b039889165f908152600d60205260409020600101546101009004909816979550849350610f5892508391506125ae9050565b915050610daa565b50915091565b5f8054906101000a90046001600160a01b03166001600160a01b0316636a276f9d6040518163ffffffff1660e01b8152600401602060405180830381865afa158015610fb4573d5f803e3d5ffd5b505050506040513d601f19601f82011682018060405250810190610fd891906124f0565b610ff45760405162461bcd60e51b8152600401610857906124b4565b5f546040516319c0642960e01b81523360048201819052916001600160a01b0316906319c0642990602401602060405180830381865afa15801561103a573d5f803e3d5ffd5b505050506040513d601f19601f8201168201806040525081019061105e91906124f0565b61107a5760405162461bcd60e51b8152600401610857906124b4565b6001600160a01b038084165f9081526009602052604090205416156110d25760405162461bcd60e51b815260206004820152600e60248201526d616c72656164792065786973747360901b6044820152606401610857565b506001600160a01b039182165f8181526009602090815260408083208054969095166001600160a01b03199687168117909555938252600a9052919091208054909216179055565b5f600e828154811061112e5761112e6124dc565b5f918252602090912001546001600160a01b031692915050565b5f8054906101000a90046001600160a01b03166001600160a01b0316636a276f9d6040518163ffffffff1660e01b8152600401602060405180830381865afa158015611196573d5f803e3d5ffd5b505050506040513d601f19601f820116820180604052508101906111ba91906124f0565b6111d65760405162461bcd60e51b8152600401610857906124b4565b5f546040516319c0642960e01b81523360048201819052916001600160a01b0316906319c0642990602401602060405180830381865afa15801561121c573d5f803e3d5ffd5b505050506040513d601f19601f8201168201806040525081019061124091906124f0565b61125c5760405162461bcd60e51b8152600401610857906124b4565b505f80546001600160a01b03199081166001600160a01b03978816179091556001805482169587169590951790945560028054851693861693909317909255600780548416918516919091179055600680549092169216919091179055565b6040515f9082156108fc0290839083818181858288f193505050501580156112e5573d5f803e3d5ffd5b5050565b5f546040516319c0642960e01b81523360048201819052916001600160a01b0316906319c0642990602401602060405180830381865afa15801561132f573d5f803e3d5ffd5b505050506040513d601f19601f8201168201806040525081019061135391906124f0565b61136f5760405162461bcd60e51b8152600401610857906124b4565b61137883611e19565b6001600160a01b0384165f908152600d6020526040812060040180548592906113a3576113a36124dc565b905f5260205f20015f8282546113b9919061259b565b90915550506001600160a01b0384165f908152600d6020526040812060050180548492906113e9576113e96124dc565b905f5260205f20015f8282546113ff919061259b565b909155505f905060015b600f811161164c576001600160a01b039586165f908152600d6020526040902060010154610100900490951694851561164c576001600160a01b0386165f908152600d6020526040902060040180548691908390811061146b5761146b6124dc565b905f5260205f20015f828254611481919061259b565b90915550506001600160a01b0386165f908152600d602052604090206005018054859190839081106114b5576114b56124dc565b905f5260205f20015f8282546114cb919061259b565b909155505060088110156115a5576001546001600160a01b038781165f908152600d602052604090206007810154600382015460059092018054939094169363fdcb9dac939192869290919083908110611527576115276124dc565b5f918252602090912001546040516001600160e01b031960e087901b1681526004810194909452602484019290925260448301526064820152608401602060405180830381865afa15801561157e573d5f803e3d5ffd5b505050506040513d601f19601f820116820180604052508101906115a291906125c6565b91505b6001600160a01b0386165f908152600d60205260409020600701546115cb90600161259b565b820361163a576001600160a01b0386165f908152600d602052604090206007018290556115f6611df7565b6001600160a01b0387165f908152600c602090815260408083208684528252808320939093556011905290812080546001929061163490849061259b565b90915550505b80611644816125ae565b915050611409565b5060025f5260116020527f08037d7b151cc412d25674a4e66b334d9ae9d2e5517a7feaae5cdb828bf1c628541561178c57600154604051634151331d60e01b8152600260048201525f9182916001600160a01b0390911690634151331d90602401606060405180830381865afa1580156116c8573d5f803e3d5ffd5b505050506040513d601f19601f820116820180604052508101906116ec91906125dd565b5060025f5260116020527f08037d7b151cc412d25674a4e66b334d9ae9d2e5517a7feaae5cdb828bf1c628549193509150611728826064612565565b8360105f611734611df7565b81526020019081526020015f205461174c9190612565565b611756919061257c565b611760919061257c565b60125f61176b611df7565b815260208082019290925260409081015f9081206002825290925290205550505b60045f5260116020527f251164fe1d8864fe5e86082eae9c288bc2b58695a4d28538dfe86e9e4f17558554156118ca57600154604051634151331d60e01b81526004808201525f9182916001600160a01b0390911690634151331d90602401606060405180830381865afa158015611806573d5f803e3d5ffd5b505050506040513d601f19601f8201168201806040525081019061182a91906125dd565b5060045f5260116020527f251164fe1d8864fe5e86082eae9c288bc2b58695a4d28538dfe86e9e4f175585549193509150611866826064612565565b8360105f611872611df7565b81526020019081526020015f205461188a9190612565565b611894919061257c565b61189e919061257c565b60125f6118a9611df7565b815260208082019290925260409081015f9081206004825290925290205550505b60075f5260116020527f98ae0176de2844d118e1a6decfe92f97691bedbc578c71fc8d5c4374be77e50c5415611a0957600154604051634151331d60e01b8152600760048201525f9182916001600160a01b0390911690634151331d90602401606060405180830381865afa158015611945573d5f803e3d5ffd5b505050506040513d601f19601f8201168201806040525081019061196991906125dd565b5060075f5260116020527f98ae0176de2844d118e1a6decfe92f97691bedbc578c71fc8d5c4374be77e50c5491935091506119a5826064612565565b8360105f6119b1611df7565b81526020019081526020015f20546119c99190612565565b6119d3919061257c565b6119dd919061257c565b60125f6119e8611df7565b815260208082019290925260409081015f9081206007825290925290205550505b5050505050565b6060611a1b82611e5b565b604051602001611a2b9190612608565b6040516020818303038152906040529050919050565b611a4a336107dd565b611a835760405162461bcd60e51b815260206004820152600a6024820152691ddc9bdb99c818d85b1b60b21b6044820152606401610857565b335f908152600d6020526040902060019081015461010090046001600160a01b0316905b600f811161088a576001600160a01b0382161561088a576001600160a01b0382165f908152600b6020908152604080832084845290915281208054859290611af090849061259b565b90915550506001600160a01b039182165f908152600d602052604090206001015461010090049091169080611b24816125ae565b915050611aa7565b5f805f9054906101000a90046001600160a01b03166001600160a01b0316636a276f9d6040518163ffffffff1660e01b8152600401602060405180830381865afa158015611b7c573d5f803e3d5ffd5b505050506040513d601f19601f82011682018060405250810190611ba091906124f0565b611bbc5760405162461bcd60e51b8152600401610857906124b4565b611bc5836107dd565b158015611be85750335f908152600a60205260409020546001600160a01b031615155b8015611c1f5750611bf8846107dd565b80611c1f57506001600160a01b038416158015611c1f57506008546001600160a01b031632145b611c6b5760405162461bcd60e51b815260206004820152601960248201527f616c726561647920657869737473206f7220696e76616c6964000000000000006044820152606401610857565b6008546001600160a01b0316321480611cb457506001600160a01b0384165f908152600d6020526040812060040180548290611ca957611ca96124dc565b905f5260205f200154115b611cef5760405162461bcd60e51b815260206004820152600c60248201526b6c6f7720627573696e65737360a01b6044820152606401610857565b611cfa848484611e88565b50600e80546001810182555f8290527fbb7b4a454dc3493923482f07822329ed19e8244eff582cc204f8554c3620c3fd0180546001600160a01b0385166001600160a01b0319909116179055549392505050565b5f546040516319c0642960e01b81523360048201819052916001600160a01b0316906319c0642990602401602060405180830381865afa158015611d94573d5f803e3d5ffd5b505050506040513d601f19601f82011682018060405250810190611db891906124f0565b611dd45760405162461bcd60e51b8152600401610857906124b4565b50600880546001600160a01b0319166001600160a01b0392909216919091179055565b5f611e0e600f5442611e09919061251f565b61217d565b61082690600161259b565b8060105f611e25611df7565b81526020019081526020015f2054611e3d919061259b565b60105f611e48611df7565b815260208101919091526040015f205550565b6060816001600160a01b0316803b806020016040519081016040528181525f908060200190933c92915050565b611edc6040518061012001604052805f81526020015f151581526020015f6001600160a01b031681526020015f81526020016060815260200160608152602001606081526020015f81526020015f81525090565b6001600160a01b0384166040820152600160208201525f60608201528115611f045781611f0c565b611f0c611df7565b60e08201526001600160a01b03841615611f3057611f2a848461218b565b60608201525b6001600160a01b038084165f908152600d602090815260409182902084518155818501516001820180549487015190951661010002610100600160a81b0319911515919091166001600160a81b0319909416939093179290921790925560608301516002820155608083015180518493611fb19260038501929101906121dd565b5060a08201518051611fcd916004840191602090910190612240565b5060c08201518051611fe9916005840191602090910190612240565b5060e0820151600682015561010090910151600790910155600e546001600160a01b038085165f908152600d60205260409020918255600490910190851615612032575f612035565b60015b8154600181810184555f938452602080852060ff90941693909201929092556001600160a01b0386168352600d8152604083206005018054808401825590845290832001919091555b600f8111611a09576001600160a01b03851615611a09576120a081600161259b565b6001600160a01b0386165f908152600d602052604090206004015410156120ee576001600160a01b0385165f908152600d602090815260408220600401805460018101825590835290822001555b6120f981600161259b565b6001600160a01b0386165f908152600d60205260409020600501541015612147576001600160a01b0385165f908152600d602090815260408220600501805460018101825590835290822001555b6001600160a01b038085165f908152600d6020526040902060010154610100900416945080612175816125ae565b91505061207e565b5f610817620151808361257c565b6001600160a01b038281165f818152600d6020908152604082206003018054600180820183558285529284200180546001600160a01b031916958716959095179094559181529154610b1f919061251f565b828054828255905f5260205f20908101928215612230579160200282015b8281111561223057825182546001600160a01b0319166001600160a01b039091161782556020909201916001909101906121fb565b5061223c929150612279565b5090565b828054828255905f5260205f20908101928215612230579160200282015b8281111561223057825182559160200191906001019061225e565b5b8082111561223c575f815560010161227a565b80356001600160a01b03811681146122a3575f80fd5b919050565b5f602082840312156122b8575f80fd5b610b1f8261228d565b5f80604083850312156122d2575f80fd5b50508035926020909101359150565b5f602082840312156122f1575f80fd5b5035919050565b5f8060408385031215612309575f80fd5b6123128361228d565b946020939093013593505050565b801515811461232d575f80fd5b50565b5f8060408385031215612341575f80fd5b61234a8361228d565b9150602083013561235a81612320565b809150509250929050565b5f8060408385031215612376575f80fd5b61237f8361228d565b915061238d6020840161228d565b90509250929050565b5f805f805f60a086880312156123aa575f80fd5b6123b38661228d565b94506123c16020870161228d565b93506123cf6040870161228d565b92506123dd6060870161228d565b91506123eb6080870161228d565b90509295509295909350565b5f805f60608486031215612409575f80fd5b6124128461228d565b95602085013595506040909401359392505050565b5f5b83811015612441578181015183820152602001612429565b50505f910152565b602081525f8251806020840152612467816040850160208701612427565b601f01601f19169190910160400192915050565b5f805f6060848603121561248d575f80fd5b6124968461228d565b92506124a46020850161228d565b9150604084013590509250925092565b6020808252600e908201526d24b73b30b634b21039b2b73232b960911b604082015260600190565b634e487b7160e01b5f52603260045260245ffd5b5f60208284031215612500575f80fd5b8151610b1f81612320565b634e487b7160e01b5f52601160045260245ffd5b818103818111156108175761081761250b565b5f805f8060808587031215612545575f80fd5b505082516020840151604085015160609095015191969095509092509050565b80820281158282048414176108175761081761250b565b5f8261259657634e487b7160e01b5f52601260045260245ffd5b500490565b808201808211156108175761081761250b565b5f600182016125bf576125bf61250b565b5060010190565b5f602082840312156125d6575f80fd5b5051919050565b5f805f606084860312156125ef575f80fd5b8351925060208401519150604084015190509250925092565b5f8251612619818460208701612427565b730468e8dc225c4746454419c9dcccb59a581434b160631b92019182525073d416952dc46fce2775e90571d46a79565d04cb2560601b602082015273094c37fb9b5b2065409a5c7cb9bff71c4d49bf4160601b604082015273fe69687ce9c746c10e1c2af1e3f5d1475df4300f60601b606082015260740191905056fea2646970667358221220b540ca4d691b18a083479d3e4af4d8f31467e3ffb6b9a26c097e1e58b1cfa74164736f6c63430008140033","linkReferences":{}},"methodIdentifiers":{"Burn(uint256)":"b90306ad","InstToUser(address)":"247349d5","UserToInst(address)":"45145fd7","_addBusiness(address,uint256,uint256)":"c4cf0e3f","_addParentYei(uint256)":"dd1b98ac","_createInstance(address,address)":"886d66ec","_nested(address,address,uint256)":"e4a312d1","_setInstOfUser(address,address)":"710a4ddc","_setOwner(address)":"fc201122","age()":"262a9dff","at(address)":"dce4a447","daytimestamp()":"1e1f3188","getAdd()":"d14d42ba","getBalance()":"12065fe0","getNode(address)":"9d209048","getNodeByIndex(uint256)":"965c90e3","getNodeChild(address,uint256)":"45675cc8","getNodeDirectsCount(address)":"321f4f21","getNodeLB(address,uint256)":"5329daca","getNodeLvlDepth(address)":"08a39111","getNodeParent(address)":"1bb49f02","getNodesCount()":"61ea7208","getRewards(address)":"79ee54f7","getavgRwrds(uint256,uint256)":"20808d48","getbusiness(uint256)":"eb95c662","getnodeRnk(address)":"389fac60","getnodeRnkAge(address,uint256)":"3ddce00b","getrankCount(uint256)":"8954eb7a","isCreated(address)":"f8027296","isInstance(address)":"6b44e6be","isNode(address)":"01750152","isUserInst(address,address)":"5d423396","owner()":"8da5cb5b","setParam(address,address,address,address,address)":"b0751823","setactive(address,bool)":"4aa247a2","withdraw(uint256)":"2e1a7d4d"},"id":0}