{"abi":[{"type":"constructor","inputs":[{"name":"_hex","type":"address","internalType":"address"}],"stateMutability":"nonpayable"},{"type":"fallback","stateMutability":"payable"},{"type":"receive","stateMutability":"payable"},{"type":"function","name":"Burn","inputs":[{"name":"amount","type":"uint256","internalType":"uint256"}],"outputs":[],"stateMutability":"nonpayable"},{"type":"function","name":"_delegatorCount","inputs":[],"outputs":[{"name":"","type":"uint256","internalType":"uint256"}],"stateMutability":"view"},{"type":"function","name":"_getImplementation","inputs":[{"name":"clone","type":"address","internalType":"address"}],"outputs":[{"name":"impl","type":"address","internalType":"address"}],"stateMutability":"view"},{"type":"function","name":"_isDelegatorNode","inputs":[{"name":"sender","type":"address","internalType":"address"}],"outputs":[{"name":"","type":"bool","internalType":"bool"}],"stateMutability":"view"},{"type":"function","name":"_isSafe","inputs":[],"outputs":[{"name":"","type":"bool","internalType":"bool"}],"stateMutability":"view"},{"type":"function","name":"_isSecureBase","inputs":[{"name":"sender","type":"address","internalType":"address"}],"outputs":[{"name":"","type":"bool","internalType":"bool"}],"stateMutability":"view"},{"type":"function","name":"_isSigner","inputs":[{"name":"sender","type":"address","internalType":"address"}],"outputs":[{"name":"","type":"bool","internalType":"bool"}],"stateMutability":"view"},{"type":"function","name":"getBalance","inputs":[],"outputs":[{"name":"","type":"uint256","internalType":"uint256"}],"stateMutability":"view"},{"type":"function","name":"getHexbase","inputs":[],"outputs":[{"name":"","type":"address","internalType":"address"}],"stateMutability":"view"},{"type":"function","name":"owner","inputs":[],"outputs":[{"name":"","type":"address","internalType":"address"}],"stateMutability":"view"},{"type":"function","name":"syncBaseAddr","inputs":[],"outputs":[],"stateMutability":"nonpayable"},{"type":"function","name":"systemAge","inputs":[],"outputs":[{"name":"","type":"uint256","internalType":"uint256"}],"stateMutability":"view"},{"type":"function","name":"transfer","inputs":[{"name":"u","type":"address","internalType":"address"},{"name":"p","type":"uint256","internalType":"uint256"}],"outputs":[],"stateMutability":"payable"},{"type":"event","name":"EthBurned","inputs":[{"name":"sender","type":"address","indexed":true,"internalType":"address"},{"name":"amount","type":"uint256","indexed":false,"internalType":"uint256"}],"anonymous":false},{"type":"event","name":"EthTransferred","inputs":[{"name":"to","type":"address","indexed":true,"internalType":"address"},{"name":"amount","type":"uint256","indexed":false,"internalType":"uint256"}],"anonymous":false},{"type":"event","name":"HexBaseUpdated","inputs":[{"name":"previousHexBase","type":"address","indexed":true,"internalType":"address"},{"name":"newHexBase","type":"address","indexed":true,"internalType":"address"}],"anonymous":false},{"type":"event","name":"OwnerUpdated","inputs":[{"name":"previousOwner","type":"address","indexed":true,"internalType":"address"},{"name":"newOwner","type":"address","indexed":true,"internalType":"address"}],"anonymous":false},{"type":"event","name":"TreasuryTransfer","inputs":[{"name":"to","type":"address","indexed":true,"internalType":"address"},{"name":"amount","type":"uint256","indexed":false,"internalType":"uint256"},{"name":"executor","type":"address","indexed":true,"internalType":"address"}],"anonymous":false},{"type":"error","name":"CallFailed","inputs":[]},{"type":"error","name":"InvalidAddress","inputs":[]},{"type":"error","name":"InvalidState","inputs":[]},{"type":"error","name":"NotAuthorized","inputs":[]},{"type":"error","name":"NotSafe","inputs":[]},{"type":"error","name":"TargetCallFailed","inputs":[{"name":"selector","type":"bytes4","internalType":"bytes4"}]}],"bytecode":{"object":"0x60803461009257601f61141e38819003918201601f19168301916001600160401b038311848410176100975780849260209460405283398101031261009257516001600160a01b038116908190036100925780156100805760018060a01b031933816001541617600155600054161760005560405161137090816100ae8239f35b60405163e6c4247b60e01b8152600490fd5b600080fd5b634e487b7160e01b600052604160045260246000fdfe60806040526004361015610018575b361561001657005b005b60003560e01c806312065fe0146100e85780631f185d16146100e3578063339459a6146100de5780633b9b7955146100d95780638da5cb5b146100d4578063a1f7f539146100cf578063a9059cbb146100ca578063af484526146100c5578063b90306ad146100c0578063c54e44b0146100bb578063e01ad5fd146100b6578063e0a9bc2b146100b15763fdc10bc90361000e57610ba5565b610b8a565b610ac3565b610a55565b610967565b610936565b610806565b61079c565b610773565b61074a565b6101ed565b610126565b3461010457600036600319011261010457602047604051908152f35b600080fd5b6001600160a01b031690565b6001600160a01b0381160361010457565b34610104576020806003193601126101045761019960043561014781610115565b6002546040516001600160a01b0392831685820152848152911661016a82610c48565b6040519061017782610c48565b601182527069735369676e657228616464726573732960781b858301526111b5565b9190806101e3575b156101d15781816101bb926101cd94518301019101611008565b60405190151581529081906020820190565b0390f35b604051633204506f60e01b8152600490fd5b50808251146101a1565b346101045760003660031901126101045761021161020c600054610109565b610109565b604051634bf9c0ad60e11b815290602082600481845afa91821561057a57600092610729575b5060405163cfbffe5360e01b815291602083600481855afa92831561057a57600093610708575b5060405163ab6e844f60e01b815290602082600481865afa91821561057a576000926106e7575b50604051630536340960e21b815291602083600481875afa92831561057a576000936106c6575b5060405163d1f956b160e01b815292602084600481885afa93841561057a576000946106a5575b50604051631cc3bfab60e31b815293602085600481895afa94851561057a57600095610684575b5060405163e09d394d60e01b81526020816004818a5afa90811561057a57600091610665575b506040516314ac1b5960e21b81526020816004818b5afa90811561057a57600091610646575b5060405163013cf08b60e01b815260006004820152916020836024818c5afa92831561057a57600093610625575b50604051635e09dbe760e01b8152976020896004818d5afa94851561057a57600499600096610604575b50604051635506ee0b60e11b8152996020908b90818e5afa96871561057a5760049a6000986105e3575b50604051636402742760e01b81529a6020908c90818f5afa98891561057a5760049b60009a6105c2575b5060208d6040519d8e80926330125cf560e01b82525afa9a8b1561057a578d60049d60009d6105a0575b506020906040519e8f80926324768d9160e01b82525afa9c8d1561057a5760009d61057f575b506040516313b92d3560e31b81529d8e9081905a92600491602094fa9d8e1561057a5760009e610549575b50610476610cca565b9e8f916104839083610cea565b6104909060208301610cea565b6040019061049d91610cea565b6104aa9060608e01610cea565b6104b79060808d01610cea565b6104c49060a08c01610cea565b6104d19060c08b01610cea565b6104de9060e08a01610cea565b6104ec906101008901610cea565b6104fa906101208801610cea565b610508906101408701610cea565b610516906101608601610cea565b610524906101808501610cea565b610532906101a08401610cea565b610540906101c08301610cea565b61001690610cf9565b61056c919e5060203d602011610573575b6105648183610c83565b810190610ca6565b9c3861046d565b503d61055a565b610cbe565b610599919d5060203d602011610573576105648183610c83565b9b38610442565b6020919d506105bb90823d8411610573576105648183610c83565b9c9061041c565b6105dc919a5060203d602011610573576105648183610c83565b98386103f2565b6105fd91985060203d602011610573576105648183610c83565b96386103c8565b61061e91965060203d602011610573576105648183610c83565b943861039e565b61063f91935060203d602011610573576105648183610c83565b9138610374565b61065f915060203d602011610573576105648183610c83565b38610346565b61067e915060203d602011610573576105648183610c83565b38610320565b61069e91955060203d602011610573576105648183610c83565b93386102fa565b6106bf91945060203d602011610573576105648183610c83565b92386102d3565b6106e091935060203d602011610573576105648183610c83565b91386102ac565b61070191925060203d602011610573576105648183610c83565b9038610285565b61072291935060203d602011610573576105648183610c83565b913861025e565b61074391925060203d602011610573576105648183610c83565b9038610237565b34610104576000366003190112610104576000546040516001600160a01b039091168152602090f35b34610104576000366003190112610104576001546040516001600160a01b039091168152602090f35b346101045760003660031901126101045760206107fe60018060a01b03600654166040516107c981610c48565b601381527267657464656c656761746f72436f756e74282960681b84820152604051916107f583610c68565b6000835261124c565b604051908152f35b6040806003193601126101045760043561081f81610115565b602435916001600160a01b03828116929083156109255761083e611020565b156109145761084c33611092565b908115610906575b50156108f5579061088d847f1e70cf59d0c7a20c88704bfce5a47e636dfa577ebf52a7166641741cef3436619381471061089957611143565b519283523392602090a3005b6108a282610bf1565b506108ef6108dc6108ea6108b585610c1d565b875163a9059cbb60e01b602082015230602482015260448101919091529182906064820190565b03601f198101835282610c83565b61128a565b50611143565b815163ea8e4eb560e01b8152600490fd5b600554163314905038610854565b8251634ee2123760e11b8152600490fd5b825163e6c4247b60e01b8152600490fd5b3461010457602036600319011261010457602061095d60043561095881610115565b611092565b6040519015158152f35b3461010457602036600319011261010457600554600435906001600160a01b03163303610a4357600090600460206109a261020c8554610109565b6040516311be646b60e21b815292839182905afa801561057a5783808481949382948391610a25575b505af16109d6611113565b50156101d1577fcdcc745fe377b103b45fa0cec23ae3ef93d6fc6a84a01f0d18c40b354dd1d5d8610a1f610a0e61020c600b54610109565b604051938452929081906020820190565b0390a280f35b610a3d915060203d8111610573576105648183610c83565b386109cb565b60405163ea8e4eb560e01b8152600490fd5b3461010457602036600319011261010457600435610a7281610115565b803b6000610a7f82610fed565b92610a8d6040519485610c83565b82845260208401903c602d815110610ab157602a602091015160601c604051908152f35b60405163baf3f0f760e01b8152600490fd5b3461010457602080600319360112610104576101cd9060043590610ae682610115565b6006546040516001600160a01b0393841683820152828152921691610b4690610b0e81610c48565b604051610b1a81610c48565b6018815277697364656c656761746f724e6f646528616464726573732960401b848201526000946111b5565b919080610b80575b610b67575b505060405190151581529081906020820190565b610b7992508082518301019101611008565b3880610b53565b5080825114610b4e565b3461010457600036600319011261010457602061095d611020565b346101045760003660031901126101045760206107fe60018060a01b0360035416604051610bd281610c48565b600681526569416765282960d01b84820152604051916107f583610c68565b9068056bc75e2d631000008201809211610c0757565b634e487b7160e01b600052601160045260246000fd5b90671bc16d674ec800008201809211610c0757565b634e487b7160e01b600052604160045260246000fd5b604081019081106001600160401b03821117610c6357604052565b610c32565b602081019081106001600160401b03821117610c6357604052565b601f909101601f19168101906001600160401b03821190821017610c6357604052565b908160209103126101045751610cbb81610115565b90565b6040513d6000823e3d90fd5b604051906101e082016001600160401b03811183821017610c6357604052565b6001600160a01b039091169052565b610fc96101c0610feb92610d32610d108251610109565b600280546001600160a01b0319166001600160a01b0392909216919091179055565b610d64610d426020830151610109565b600380546001600160a01b0319166001600160a01b0392909216919091179055565b610d96610d746040830151610109565b600480546001600160a01b0319166001600160a01b0392909216919091179055565b610dc8610da66060830151610109565b600580546001600160a01b0319166001600160a01b0392909216919091179055565b610dfa610dd86080830151610109565b600680546001600160a01b0319166001600160a01b0392909216919091179055565b610e2c610e0a60a0830151610109565b600780546001600160a01b0319166001600160a01b0392909216919091179055565b610e5e610e3c60c0830151610109565b600880546001600160a01b0319166001600160a01b0392909216919091179055565b610e90610e6e60e0830151610109565b600980546001600160a01b0319166001600160a01b0392909216919091179055565b610ec3610ea1610100830151610109565b600a80546001600160a01b0319166001600160a01b0392909216919091179055565b610ef6610ed4610120830151610109565b600b80546001600160a01b0319166001600160a01b0392909216919091179055565b610f29610f07610140830151610109565b600c80546001600160a01b0319166001600160a01b0392909216919091179055565b610f5c610f3a610160830151610109565b600d80546001600160a01b0319166001600160a01b0392909216919091179055565b610f8f610f6d610180830151610109565b600e80546001600160a01b0319166001600160a01b0392909216919091179055565b610fc2610fa06101a0830151610109565b600f80546001600160a01b0319166001600160a01b0392909216919091179055565b0151610109565b601080546001600160a01b0319166001600160a01b0392909216919091179055565b565b6001600160401b038111610c6357601f01601f191660200190565b90816020910312610104575180151581036101045790565b600254604051611068916001600160a01b03169061103d81610c48565b6008815267697353616665282960c01b60208201526040519161105f83610c68565b600083526111b5565b9080611087575b156101d15780602080610cbb93518301019101611008565b50602081511461106f565b6110ec60018060a01b0380600254166040519160209416848301528382526110b982610c48565b604051906110c682610c48565b601582527469735365637572654261736528616464726573732960581b858301526111b5565b9080611109575b156101d15781610cbb9282518301019101611008565b50818151146110f3565b3d1561113e573d9061112482610fed565b916111326040519384610c83565b82523d6000602084013e565b606090565b9080156111b1576001600160a01b03821691821561119f57600080808481945af161116c611113565b50156101d15760207fcec1f18c3ab8ddaaa107a1591e3c369667eec613626611a8deaedef43069fcdd91604051908152a2565b60405163e6c4247b60e01b8152600490fd5b5050565b9190823b15611233578051906020918263ffffffff60e01b92012016916040519180830193845281519160005b83811061121f57505050918161120f60248260009795968897018783820152036004810184520182610c83565b51915afa61121b611113565b9091565b8181018301518582016024015282016111e2565b50505060009060405161124581610c68565b6000815290565b929161125a916000946111b5565b908061127f575b6112685750565b909150602081805181010312610104576020015190565b506020815114611261565b602081016000808084518482732fb8b5508b072e1d0e0d2e7e4a1a1a7955589a9a5af1926112b6611113565b93156112c25750505090565b51916004831091826113315750516001600160e01b0319928382169261131c575b505090505b8151156112f85750805190602001fd5b604051630870274d60e21b81526001600160e01b0319919091166004820152602490fd5b8391925060040360031b1b16168083806112e3565b925050506112e856fea26469706673582212208fd1a505cf17d732d725c9cb1122abf94b201221ca7e8b2432807076d7b08e9364736f6c63430008140033","linkReferences":{}},"methodIdentifiers":{"Burn(uint256)":"b90306ad","_delegatorCount()":"a1f7f539","_getImplementation(address)":"c54e44b0","_isDelegatorNode(address)":"e01ad5fd","_isSafe()":"e0a9bc2b","_isSecureBase(address)":"af484526","_isSigner(address)":"1f185d16","getBalance()":"12065fe0","getHexbase()":"3b9b7955","owner()":"8da5cb5b","syncBaseAddr()":"339459a6","systemAge()":"fdc10bc9","transfer(address,uint256)":"a9059cbb"},"id":30}