{"abi":[{"type":"constructor","inputs":[{"name":"_hex","type":"address","internalType":"address"}],"stateMutability":"nonpayable"},{"type":"fallback","stateMutability":"payable"},{"type":"receive","stateMutability":"payable"},{"type":"function","name":"Burn","inputs":[{"name":"amount","type":"uint256","internalType":"uint256"}],"outputs":[],"stateMutability":"nonpayable"},{"type":"function","name":"_delegatorCount","inputs":[],"outputs":[{"name":"","type":"uint256","internalType":"uint256"}],"stateMutability":"view"},{"type":"function","name":"_getImplementation","inputs":[{"name":"clone","type":"address","internalType":"address"}],"outputs":[{"name":"impl","type":"address","internalType":"address"}],"stateMutability":"view"},{"type":"function","name":"_isDelegatorNode","inputs":[{"name":"sender","type":"address","internalType":"address"}],"outputs":[{"name":"","type":"bool","internalType":"bool"}],"stateMutability":"view"},{"type":"function","name":"_isSafe","inputs":[],"outputs":[{"name":"","type":"bool","internalType":"bool"}],"stateMutability":"view"},{"type":"function","name":"_isSecureBase","inputs":[{"name":"sender","type":"address","internalType":"address"}],"outputs":[{"name":"","type":"bool","internalType":"bool"}],"stateMutability":"view"},{"type":"function","name":"_isSigner","inputs":[{"name":"sender","type":"address","internalType":"address"}],"outputs":[{"name":"","type":"bool","internalType":"bool"}],"stateMutability":"view"},{"type":"function","name":"getBalance","inputs":[],"outputs":[{"name":"","type":"uint256","internalType":"uint256"}],"stateMutability":"view"},{"type":"function","name":"getHexbase","inputs":[],"outputs":[{"name":"","type":"address","internalType":"address"}],"stateMutability":"view"},{"type":"function","name":"owner","inputs":[],"outputs":[{"name":"","type":"address","internalType":"address"}],"stateMutability":"view"},{"type":"function","name":"systemAge","inputs":[],"outputs":[{"name":"","type":"uint256","internalType":"uint256"}],"stateMutability":"view"},{"type":"function","name":"transfer","inputs":[{"name":"u","type":"address","internalType":"address"},{"name":"p","type":"uint256","internalType":"uint256"}],"outputs":[],"stateMutability":"payable"},{"type":"event","name":"EthBurned","inputs":[{"name":"sender","type":"address","indexed":true,"internalType":"address"},{"name":"amount","type":"uint256","indexed":false,"internalType":"uint256"}],"anonymous":false},{"type":"event","name":"EthTransferred","inputs":[{"name":"to","type":"address","indexed":true,"internalType":"address"},{"name":"amount","type":"uint256","indexed":false,"internalType":"uint256"}],"anonymous":false},{"type":"event","name":"HexBaseUpdated","inputs":[{"name":"previousHexBase","type":"address","indexed":true,"internalType":"address"},{"name":"newHexBase","type":"address","indexed":true,"internalType":"address"}],"anonymous":false},{"type":"event","name":"OwnerUpdated","inputs":[{"name":"previousOwner","type":"address","indexed":true,"internalType":"address"},{"name":"newOwner","type":"address","indexed":true,"internalType":"address"}],"anonymous":false},{"type":"event","name":"TreasuryTransfer","inputs":[{"name":"to","type":"address","indexed":true,"internalType":"address"},{"name":"amount","type":"uint256","indexed":false,"internalType":"uint256"},{"name":"executor","type":"address","indexed":true,"internalType":"address"}],"anonymous":false},{"type":"error","name":"TargetCallFailed","inputs":[{"name":"selector","type":"bytes4","internalType":"bytes4"}]}],"bytecode":{"object":"0x6080346100c557601f6110be38819003918201601f19168301916001600160401b038311848410176100ca578084926020946040528339810103126100c557516001600160a01b038116908190036100c55780156100805760018060a01b0319338160015416176001556000541617600055604051610fdd90816100e18239f35b60405162461bcd60e51b815260206004820152601360248201527f6f776e2e696e76616c69642e68657862617365000000000000000000000000006044820152606490fd5b600080fd5b634e487b7160e01b600052604160045260246000fdfe60806040526004361015610018575b361561001657005b005b60003560e01c806312065fe0146100d85780631f185d16146100d35780633b9b7955146100ce5780638da5cb5b146100c9578063a1f7f539146100c4578063a9059cbb146100bf578063af484526146100ba578063b90306ad146100b5578063c54e44b0146100b0578063e01ad5fd146100ab578063e0a9bc2b146100a65763fdc10bc90361000e576106b7565b61069c565b6105fd565b610564565b6104b1565b610480565b61033c565b610285565b61025c565b610233565b61010a565b346100f45760003660031901126100f457602047604051908152f35b600080fd5b6001600160a01b038116036100f457565b346100f4576020806003193601126100f45760049081359061012b826100f9565b600054819061014a906001600160a01b03165b6001600160a01b031690565b604051634bf9c0ad60e11b815294859182905afa91821561022e576101a16101db936101bd926101ed966000926101fb575b506040516001600160a01b0390911685820190815290926101af918491602090910190565b03601f19810184528361079d565b6101b7610b5c565b90610de3565b9190806101f1575b6101ce90610b89565b808251830101910161096d565b60405190151581529081906020820190565b0390f35b50815181146101c5565b6101af91925061022090863d8811610227575b610218818361079d565b8101906107bf565b919061017c565b503d61020e565b6107d7565b346100f45760003660031901126100f4576000546040516001600160a01b039091168152602090f35b346100f45760003660031901126100f4576001546040516001600160a01b039091168152602090f35b346100f45760003660031901126100f45760005460405163d1f956b160e01b815290602090829060049082906001600160a01b03165afa90811561022e576101ed9161030e9160009161031e575b506040516102e081610760565b601381527267657464656c656761746f72436f756e74282960681b602082015261030861090e565b91610eb9565b6040519081529081906020820190565b610336915060203d811161022757610218818361079d565b386102d3565b60403660031901126100f457600435610354816100f9565b6001600160a01b0390808216156104465761036d610985565b1561040c5761037b33610ab0565b918215610399575b50610390610016926107e3565b6024359061082f565b6000549092506004906020906103b7906001600160a01b031661013e565b604051630536340960e21b815292839182905afa801561022e5761001693610390926000926103ec575b501633149250610383565b61040591925060203d811161022757610218818361079d565b90386103e1565b60405162461bcd60e51b81526020600482015260126024820152716f776e2e696e76616c69642e69735361666560701b6044820152606490fd5b60405162461bcd60e51b815260206004820152601260248201527137bbb7173232b330bab63a1739b2b73232b960711b6044820152606490fd5b346100f45760203660031901126100f45760206104a76004356104a2816100f9565b610ab0565b6040519015158152f35b346100f45760203660031901126100f457600054604051630536340960e21b8152906001600160a01b03906020908390600490829085165afa91821561022e57600092610544575b503391160361050d57610016600435610d0e565b60405162461bcd60e51b815260206004820152600f60248201526e6f776e2e6e6f6e617574682e44414f60881b6044820152606490fd5b61055d91925060203d811161022757610218818361079d565b90386104f9565b346100f45760203660031901126100f457600435610581816100f9565b803b600061058e826108f2565b9261059c604051948561079d565b82845260208401903c602d8151106105c257602a015160405160609190911c8152602090f35b60405162461bcd60e51b81526020600482015260136024820152724e6f742061206d696e696d616c2070726f787960681b6044820152606490fd5b346100f4576020806003193601126100f4576004803561061c816100f9565b60005460405163d1f956b160e01b81526001600160a01b03949093909182918591829088165afa90811561022e576101ed946101db9460009361067d575b50604051931681840152825261066f82610760565b610677610bce565b90610e7d565b610695919350823d841161022757610218818361079d565b913861065a565b346100f45760003660031901126100f45760206104a7610985565b346100f45760003660031901126100f45760005460405163111ea8c160e21b815290602090829060049082906001600160a01b03165afa90811561022e576101ed9161030e9160009161072c575b5060405161071281610760565b6005815264616765282960d81b602082015261030861090e565b610744915060203d811161022757610218818361079d565b38610705565b634e487b7160e01b600052604160045260246000fd5b6040810190811067ffffffffffffffff82111761077c57604052565b61074a565b6020810190811067ffffffffffffffff82111761077c57604052565b90601f8019910116810190811067ffffffffffffffff82111761077c57604052565b908160209103126100f457516107d4816100f9565b90565b6040513d6000823e3d90fd5b156107ea57565b60405162461bcd60e51b815260206004820152601b60248201527f6f776e2e6e6f6e617574682e44414f6f725365637572656261736500000000006044820152606490fd5b9080471061087c575b6108428183610c37565b60405190815233916001600160a01b0316907f1e70cf59d0c7a20c88704bfce5a47e636dfa577ebf52a7166641741cef34366190602090a3565b68056bc75e2d63100000810181116108dc57671bc16d674ec8000081018082116108dc5760405163a9059cbb60e01b60208201523060248201526044808201929092529081526108d6906108d160648261079d565b610ef7565b50610838565b634e487b7160e01b600052601160045260246000fd5b67ffffffffffffffff811161077c57601f01601f191660200190565b6040519061091b82610781565b60008252565b1561092857565b60405162461bcd60e51b815260206004820152601960248201527f6f776e2e7361666567756172642e63616c6c2e6661696c6564000000000000006044820152606490fd5b908160209103126100f4575180151581036100f45790565b600054604051634bf9c0ad60e11b8152906020908190839060049082906001600160a01b03165afa91821561022e576107d4926109fb91600091610a16575b506040516109d181610760565b6008815267697353616665282960c01b84820152604051916109f283610781565b60008352610de3565b919080610a0c575b6101ce90610921565b5081518114610a03565b610a2d9150833d851161022757610218818361079d565b386109c4565b60405190610a4082610760565b601582527469735365637572654261736528616464726573732960581b6020830152565b15610a6b57565b60405162461bcd60e51b815260206004820152601a60248201527f6f776e2e736563757265626173652e63616c6c2e6661696c65640000000000006044820152606490fd5b6000546001600160a01b0316604051918291634bf9c0ad60e11b835282600460209485935afa92831561022e576107d493610b1e926101a192600092610b39575b506040516001600160a01b039091168582019081529092610b16918491602090910190565b6101b7610a33565b919080610b2f575b6101ce90610a64565b5081518114610b26565b610b16919250610b5590863d881161022757610218818361079d565b9190610af1565b60405190610b6982610760565b601182527069735369676e657228616464726573732960781b6020830152565b15610b9057565b60405162461bcd60e51b81526020600482015260166024820152751bdddb8b9cda59db995c8b98d85b1b0b99985a5b195960521b6044820152606490fd5b60405190610bdb82610760565b601882527f697364656c656761746f724e6f646528616464726573732900000000000000006020830152565b3d15610c32573d90610c18826108f2565b91610c26604051938461079d565b82523d6000602084013e565b606090565b908015610d0a576001600160a01b038216918215610cd457600080808481945af1610c60610c07565b5015610c99576040519081527fcec1f18c3ab8ddaaa107a1591e3c369667eec613626611a8deaedef43069fcdd9080602081015b0390a2565b60405162461bcd60e51b81526020600482015260136024820152721bdddb8b9d1c985b9cd9995c8b99985a5b1959606a1b6044820152606490fd5b60405162461bcd60e51b815260206004820152600e60248201526d6f776e2e696e76616c69642e746f60901b6044820152606490fd5b5050565b600080546040516311be646b60e21b815290602090829060049082906001600160a01b03165afa90811561022e578284819382938391610dc5575b505af1610d54610c07565b5015610d8e5760405190815233907fcdcc745fe377b103b45fa0cec23ae3ef93d6fc6a84a01f0d18c40b354dd1d5d8908060208101610c94565b60405162461bcd60e51b815260206004820152600f60248201526e1bdddb8b989d5c9b8b99985a5b1959608a1b6044820152606490fd5b610ddd915060203d811161022757610218818361079d565b38610d49565b9190823b15610e64578051906020918263ffffffff60e01b92012016916040519180830193845281519160005b838110610e50575050509181610e3d6024826000979596889701878382015203600481018452018261079d565b5191620dbba0fa610e4c610c07565b9091565b818101830151858201602401528201610e10565b505050600090604051610e7681610781565b6000815290565b9291610e8b91600094610de3565b9080610eae575b610e995750565b6107d49192506020808251830101910161096d565b506020815114610e92565b9291610ec791600094610de3565b9080610eec575b610ed55750565b9091506020818051810103126100f4576020015190565b506020815114610ece565b602081016000808084518482732fb8b5508b072e1d0e0d2e7e4a1a1a7955589a9a5af192610f23610c07565b9315610f2f5750505090565b5191600483109182610f9e5750516001600160e01b03199283821692610f89575b505090505b815115610f655750805190602001fd5b604051630870274d60e21b81526001600160e01b0319919091166004820152602490fd5b8391925060040360031b1b1616808380610f50565b92505050610f5556fea26469706673582212206a4b85df294c8642ed05e6e46d0fafac2f525e8b8ea0d726978c84e2bd09b87b64736f6c63430008140033","linkReferences":{}},"methodIdentifiers":{"Burn(uint256)":"b90306ad","_delegatorCount()":"a1f7f539","_getImplementation(address)":"c54e44b0","_isDelegatorNode(address)":"e01ad5fd","_isSafe()":"e0a9bc2b","_isSecureBase(address)":"af484526","_isSigner(address)":"1f185d16","getBalance()":"12065fe0","getHexbase()":"3b9b7955","owner()":"8da5cb5b","systemAge()":"fdc10bc9","transfer(address,uint256)":"a9059cbb"},"id":59}