{"abi":[{"type":"constructor","inputs":[{"name":"_hex","type":"address","internalType":"address"}],"stateMutability":"nonpayable"},{"type":"fallback","stateMutability":"payable"},{"type":"receive","stateMutability":"payable"},{"type":"function","name":"Burn","inputs":[{"name":"amount","type":"uint256","internalType":"uint256"}],"outputs":[],"stateMutability":"nonpayable"},{"type":"function","name":"_delegatorCount","inputs":[],"outputs":[{"name":"","type":"uint256","internalType":"uint256"}],"stateMutability":"view"},{"type":"function","name":"_getImplementation","inputs":[{"name":"clone","type":"address","internalType":"address"}],"outputs":[{"name":"impl","type":"address","internalType":"address"}],"stateMutability":"view"},{"type":"function","name":"_isDelegatorNode","inputs":[{"name":"sender","type":"address","internalType":"address"}],"outputs":[{"name":"","type":"bool","internalType":"bool"}],"stateMutability":"view"},{"type":"function","name":"_isSafe","inputs":[],"outputs":[{"name":"","type":"bool","internalType":"bool"}],"stateMutability":"view"},{"type":"function","name":"_isSecureBase","inputs":[{"name":"sender","type":"address","internalType":"address"}],"outputs":[{"name":"","type":"bool","internalType":"bool"}],"stateMutability":"view"},{"type":"function","name":"_isSigner","inputs":[{"name":"sender","type":"address","internalType":"address"}],"outputs":[{"name":"","type":"bool","internalType":"bool"}],"stateMutability":"view"},{"type":"function","name":"getBalance","inputs":[],"outputs":[{"name":"","type":"uint256","internalType":"uint256"}],"stateMutability":"view"},{"type":"function","name":"getHexbase","inputs":[],"outputs":[{"name":"","type":"address","internalType":"address"}],"stateMutability":"view"},{"type":"function","name":"owner","inputs":[],"outputs":[{"name":"","type":"address","internalType":"address"}],"stateMutability":"view"},{"type":"function","name":"syncBaseAddr","inputs":[],"outputs":[],"stateMutability":"nonpayable"},{"type":"function","name":"systemAge","inputs":[],"outputs":[{"name":"","type":"uint256","internalType":"uint256"}],"stateMutability":"view"},{"type":"function","name":"transfer","inputs":[{"name":"u","type":"address","internalType":"address"},{"name":"p","type":"uint256","internalType":"uint256"}],"outputs":[],"stateMutability":"payable"},{"type":"event","name":"EthBurned","inputs":[{"name":"sender","type":"address","indexed":true,"internalType":"address"},{"name":"amount","type":"uint256","indexed":false,"internalType":"uint256"}],"anonymous":false},{"type":"event","name":"EthTransferred","inputs":[{"name":"to","type":"address","indexed":true,"internalType":"address"},{"name":"amount","type":"uint256","indexed":false,"internalType":"uint256"}],"anonymous":false},{"type":"event","name":"HexBaseUpdated","inputs":[{"name":"previousHexBase","type":"address","indexed":true,"internalType":"address"},{"name":"newHexBase","type":"address","indexed":true,"internalType":"address"}],"anonymous":false},{"type":"event","name":"OwnerUpdated","inputs":[{"name":"previousOwner","type":"address","indexed":true,"internalType":"address"},{"name":"newOwner","type":"address","indexed":true,"internalType":"address"}],"anonymous":false},{"type":"event","name":"TreasuryTransfer","inputs":[{"name":"to","type":"address","indexed":true,"internalType":"address"},{"name":"amount","type":"uint256","indexed":false,"internalType":"uint256"},{"name":"executor","type":"address","indexed":true,"internalType":"address"}],"anonymous":false},{"type":"error","name":"CallFailed","inputs":[]},{"type":"error","name":"InvalidAddress","inputs":[]},{"type":"error","name":"InvalidState","inputs":[]},{"type":"error","name":"NotAuthorized","inputs":[]},{"type":"error","name":"NotSafe","inputs":[]},{"type":"error","name":"TargetCallFailed","inputs":[{"name":"selector","type":"bytes4","internalType":"bytes4"}]}],"bytecode":{"object":"0x60803461009257601f6111fb38819003918201601f19168301916001600160401b038311848410176100975780849260209460405283398101031261009257516001600160a01b038116908190036100925780156100805760018060a01b031933816001541617600155600054161760005560405161114d90816100ae8239f35b60405163e6c4247b60e01b8152600490fd5b600080fd5b634e487b7160e01b600052604160045260246000fdfe60806040526004361015610018575b361561001657005b005b60003560e01c806312065fe0146100e85780631f185d16146100e3578063339459a6146100de5780633b9b7955146100d95780638da5cb5b146100d4578063a1f7f539146100cf578063a9059cbb146100ca578063af484526146100c5578063b90306ad146100c0578063c54e44b0146100bb578063e01ad5fd146100b6578063e0a9bc2b146100b15763fdc10bc90361000e57610a6c565b610a51565b61098a565b61091c565b610810565b6107df565b610676565b61060c565b6105e3565b6105ba565b6101ed565b610126565b3461010457600036600319011261010457602047604051908152f35b600080fd5b6001600160a01b031690565b6001600160a01b0381160361010457565b34610104576020806003193601126101045761019960043561014781610115565b6002546040516001600160a01b0392831685820152848152911661016a82610ace565b6040519061017782610ace565b601182527069735369676e657228616464726573732960781b85830152610f6f565b9190806101e3575b156101d15781816101bb926101cd94518301019101610dc2565b60405190151581529081906020820190565b0390f35b604051633204506f60e01b8152600490fd5b50808251146101a1565b34610104576000806003193601126105b75761021161020c8254610109565b610109565b60408051634bf9c0ad60e11b81529160049190602080858581855afa94851561047e578695610598575b50825163cfbffe5360e01b81529281848681865afa93841561047e578794610579575b50805163ab6e844f60e01b815282818781875afa90811561047e57889161055c575b508151630536340960e21b815283818881885afa90811561047e57899161053f575b50825163d1f956b160e01b81529084828981895afa91821561047e578a92610520575b508351631cc3bfab60e31b81529285848a818a5afa93841561047e578b94610501575b50845163e09d394d60e01b81529486868b818b5afa95861561047e578c966104e2575b5080516314ac1b5960e21b815298878a8c818c5afa97881561047e576103529a8e996104c3575b50808c8451809d819263013cf08b60e01b83528201906000602083019252565b03818d5afa998a1561047e578c9b8f9b6104a4575b50818451809d635e09dbe760e01b825281845afa9b8c1561047e578f9c610483575b50819084519d8e8092635506ee0b60e11b82525afa9b8c1561047e578e9c61044f575b506103b5610b50565b9c6103c0908e610b70565b8c01906103cc91610b70565b8a01906103d891610b70565b6103e59060608a01610b70565b6103f29060808901610b70565b6103ff9060a08801610b70565b61040c9060c08701610b70565b6104199060e08601610b70565b610427906101008501610b70565b610435906101208401610b70565b610443906101408301610b70565b61044c90610b7f565b80f35b81610470929d508d3d10610477575b6104688183610b09565b810190610b2c565b9a386103ac565b503d61045e565b610b44565b82919c5061049d90823d8411610477576104688183610b09565b9b90610389565b6104bc919b50823d8411610477576104688183610b09565b9938610367565b816104db929a503d8b11610477576104688183610b09565b9738610332565b6104fa919650873d8911610477576104688183610b09565b943861030b565b610519919450863d8811610477576104688183610b09565b92386102e8565b610538919250853d8711610477576104688183610b09565b90386102c5565b6105569150843d8611610477576104688183610b09565b386102a2565b6105739150833d8511610477576104688183610b09565b38610280565b610591919450823d8411610477576104688183610b09565b923861025e565b816105b09296503d8711610477576104688183610b09565b933861023b565b80fd5b34610104576000366003190112610104576000546040516001600160a01b039091168152602090f35b34610104576000366003190112610104576001546040516001600160a01b039091168152602090f35b3461010457600036600319011261010457602061066e60018060a01b036006541660405161063981610ace565b601381527267657464656c656761746f72436f756e74282960681b848201526040519161066583610aee565b60008352611006565b604051908152f35b604080600319360112610104576004359061069082610115565b602435916001600160a01b03808216929083156107ce576106af610dda565b156107bd576106bd33610e4c565b9081156107af575b501561079f57838047106106f9575b6106ed906000805160206110f883398151915293610efd565b519283523392602090a3005b506004602061070c61020c600054610109565b8351635e09dbe760e01b815292839182905afa801561047e576000805160206110f88339815191529361077787926106ed94600091610781575b50855163a9059cbb60e01b60208201523060248201526044808201869052815290610772606483610b09565b611075565b50935090506106d4565b610799915060203d8111610477576104688183610b09565b38610746565b5163ea8e4eb560e01b8152600490fd5b6005541633149050386106c5565b8151634ee2123760e11b8152600490fd5b815163e6c4247b60e01b8152600490fd5b3461010457602036600319011261010457602061080660043561080181610115565b610e4c565b6040519015158152f35b346101045760203660031901126101045760043561082c610dda565b1561090a576005546001600160a01b031633036108f8576000906004602061085761020c8554610109565b6040516311be646b60e21b815292839182905afa801561047e57838084819493829483916108da575b505af161088b610ecd565b50156101d1577fcdcc745fe377b103b45fa0cec23ae3ef93d6fc6a84a01f0d18c40b354dd1d5d86108d46108c361020c600b54610109565b604051938452929081906020820190565b0390a280f35b6108f2915060203d8111610477576104688183610b09565b38610880565b60405163ea8e4eb560e01b8152600490fd5b604051634ee2123760e11b8152600490fd5b346101045760203660031901126101045760043561093981610115565b803b600061094682610da7565b926109546040519485610b09565b82845260208401903c602d81511061097857602a602091015160601c604051908152f35b60405163baf3f0f760e01b8152600490fd5b3461010457602080600319360112610104576101cd90600435906109ad82610115565b6006546040516001600160a01b0393841683820152828152921691610a0d906109d581610ace565b6040516109e181610ace565b6018815277697364656c656761746f724e6f646528616464726573732960401b84820152600094610f6f565b919080610a47575b610a2e575b505060405190151581529081906020820190565b610a4092508082518301019101610dc2565b3880610a1a565b5080825114610a15565b34610104576000366003190112610104576020610806610dda565b3461010457600036600319011261010457602061066e60018060a01b0360035416604051610a9981610ace565b600681526569416765282960d01b848201526040519161066583610aee565b634e487b7160e01b600052604160045260246000fd5b604081019081106001600160401b03821117610ae957604052565b610ab8565b602081019081106001600160401b03821117610ae957604052565b601f909101601f19168101906001600160401b03821190821017610ae957604052565b908160209103126101045751610b4181610115565b90565b6040513d6000823e3d90fd5b6040519061016082016001600160401b03811183821017610ae957604052565b6001600160a01b039091169052565b610d83610140610da592610bb8610b968251610109565b600280546001600160a01b0319166001600160a01b0392909216919091179055565b610bea610bc86020830151610109565b600380546001600160a01b0319166001600160a01b0392909216919091179055565b610c1c610bfa6040830151610109565b600480546001600160a01b0319166001600160a01b0392909216919091179055565b610c4e610c2c6060830151610109565b600580546001600160a01b0319166001600160a01b0392909216919091179055565b610c80610c5e6080830151610109565b600680546001600160a01b0319166001600160a01b0392909216919091179055565b610cb2610c9060a0830151610109565b600780546001600160a01b0319166001600160a01b0392909216919091179055565b610ce4610cc260c0830151610109565b600880546001600160a01b0319166001600160a01b0392909216919091179055565b610d16610cf460e0830151610109565b600980546001600160a01b0319166001600160a01b0392909216919091179055565b610d49610d27610100830151610109565b600a80546001600160a01b0319166001600160a01b0392909216919091179055565b610d7c610d5a610120830151610109565b600b80546001600160a01b0319166001600160a01b0392909216919091179055565b0151610109565b600c80546001600160a01b0319166001600160a01b0392909216919091179055565b565b6001600160401b038111610ae957601f01601f191660200190565b90816020910312610104575180151581036101045790565b600254604051610e22916001600160a01b031690610df781610ace565b6008815267697353616665282960c01b602082015260405191610e1983610aee565b60008352610f6f565b9080610e41575b156101d15780602080610b4193518301019101610dc2565b506020815114610e29565b610ea660018060a01b038060025416604051916020941684830152838252610e7382610ace565b60405190610e8082610ace565b601582527469735365637572654261736528616464726573732960581b85830152610f6f565b9080610ec3575b156101d15781610b419282518301019101610dc2565b5081815114610ead565b3d15610ef8573d90610ede82610da7565b91610eec6040519384610b09565b82523d6000602084013e565b606090565b908015610f6b576001600160a01b038216918215610f5957600080808481945af1610f26610ecd565b50156101d15760207fcec1f18c3ab8ddaaa107a1591e3c369667eec613626611a8deaedef43069fcdd91604051908152a2565b60405163e6c4247b60e01b8152600490fd5b5050565b9190823b15610fed578051906020918263ffffffff60e01b92012016916040519180830193845281519160005b838110610fd9575050509181610fc960248260009795968897018783820152036004810184520182610b09565b51915afa610fd5610ecd565b9091565b818101830151858201602401528201610f9c565b505050600090604051610fff81610aee565b6000815290565b929161101491600094610f6f565b9080611039575b6110225750565b909150602081805181010312610104576020015190565b50602081511461101b565b906020825192015163ffffffff60e01b90818116936004811061106657505050565b60040360031b82901b16169150565b6001600160a01b03811615610f5957600080918351908260208601915af19061109c610ecd565b91156110a6575090565b8051600091906004116110f1576110bd9150611044565b8151156110cd5750805190602001fd5b604051630870274d60e21b81526001600160e01b0319919091166004820152602490fd5b506110bd56fe1e70cf59d0c7a20c88704bfce5a47e636dfa577ebf52a7166641741cef343661a2646970667358221220e61380f58f5433c3012851b19ed18ef5a99c6695cefcd4ca9d08247c5481bb6564736f6c63430008140033","linkReferences":{}},"methodIdentifiers":{"Burn(uint256)":"b90306ad","_delegatorCount()":"a1f7f539","_getImplementation(address)":"c54e44b0","_isDelegatorNode(address)":"e01ad5fd","_isSafe()":"e0a9bc2b","_isSecureBase(address)":"af484526","_isSigner(address)":"1f185d16","getBalance()":"12065fe0","getHexbase()":"3b9b7955","owner()":"8da5cb5b","syncBaseAddr()":"339459a6","systemAge()":"fdc10bc9","transfer(address,uint256)":"a9059cbb"},"id":30}