{"abi":[{"type":"constructor","inputs":[{"name":"_hex","type":"address","internalType":"address"}],"stateMutability":"nonpayable"},{"type":"fallback","stateMutability":"payable"},{"type":"receive","stateMutability":"payable"},{"type":"function","name":"Burn","inputs":[{"name":"amount","type":"uint256","internalType":"uint256"}],"outputs":[],"stateMutability":"nonpayable"},{"type":"function","name":"_delegatorCount","inputs":[],"outputs":[{"name":"","type":"uint256","internalType":"uint256"}],"stateMutability":"view"},{"type":"function","name":"_getImplementation","inputs":[{"name":"clone","type":"address","internalType":"address"}],"outputs":[{"name":"impl","type":"address","internalType":"address"}],"stateMutability":"view"},{"type":"function","name":"_isDelegatorNode","inputs":[{"name":"sender","type":"address","internalType":"address"}],"outputs":[{"name":"","type":"bool","internalType":"bool"}],"stateMutability":"view"},{"type":"function","name":"_isSafe","inputs":[],"outputs":[{"name":"","type":"bool","internalType":"bool"}],"stateMutability":"view"},{"type":"function","name":"_isSecureBase","inputs":[{"name":"sender","type":"address","internalType":"address"}],"outputs":[{"name":"","type":"bool","internalType":"bool"}],"stateMutability":"view"},{"type":"function","name":"_isSigner","inputs":[{"name":"sender","type":"address","internalType":"address"}],"outputs":[{"name":"","type":"bool","internalType":"bool"}],"stateMutability":"view"},{"type":"function","name":"getBalance","inputs":[],"outputs":[{"name":"","type":"uint256","internalType":"uint256"}],"stateMutability":"view"},{"type":"function","name":"getHexbase","inputs":[],"outputs":[{"name":"","type":"address","internalType":"address"}],"stateMutability":"view"},{"type":"function","name":"owner","inputs":[],"outputs":[{"name":"","type":"address","internalType":"address"}],"stateMutability":"view"},{"type":"function","name":"systemAge","inputs":[],"outputs":[{"name":"","type":"uint256","internalType":"uint256"}],"stateMutability":"view"},{"type":"function","name":"transfer","inputs":[{"name":"u","type":"address","internalType":"address"},{"name":"p","type":"uint256","internalType":"uint256"}],"outputs":[],"stateMutability":"payable"},{"type":"event","name":"EthBurned","inputs":[{"name":"sender","type":"address","indexed":true,"internalType":"address"},{"name":"amount","type":"uint256","indexed":false,"internalType":"uint256"}],"anonymous":false},{"type":"event","name":"EthTransferred","inputs":[{"name":"to","type":"address","indexed":true,"internalType":"address"},{"name":"amount","type":"uint256","indexed":false,"internalType":"uint256"}],"anonymous":false},{"type":"event","name":"HexBaseUpdated","inputs":[{"name":"previousHexBase","type":"address","indexed":true,"internalType":"address"},{"name":"newHexBase","type":"address","indexed":true,"internalType":"address"}],"anonymous":false},{"type":"event","name":"OwnerUpdated","inputs":[{"name":"previousOwner","type":"address","indexed":true,"internalType":"address"},{"name":"newOwner","type":"address","indexed":true,"internalType":"address"}],"anonymous":false},{"type":"event","name":"TreasuryTransfer","inputs":[{"name":"to","type":"address","indexed":true,"internalType":"address"},{"name":"amount","type":"uint256","indexed":false,"internalType":"uint256"},{"name":"executor","type":"address","indexed":true,"internalType":"address"}],"anonymous":false},{"type":"error","name":"CallFailed","inputs":[]},{"type":"error","name":"InvalidAddress","inputs":[]},{"type":"error","name":"InvalidState","inputs":[]},{"type":"error","name":"NotAuthorized","inputs":[]},{"type":"error","name":"NotSafe","inputs":[]},{"type":"error","name":"TargetCallFailed","inputs":[{"name":"selector","type":"bytes4","internalType":"bytes4"}]}],"bytecode":{"object":"0x60803461009257601f610fde38819003918201601f19168301916001600160401b038311848410176100975780849260209460405283398101031261009257516001600160a01b038116908190036100925780156100805760018060a01b0319338160015416176001556000541617600055604051610f3090816100ae8239f35b60405163e6c4247b60e01b8152600490fd5b600080fd5b634e487b7160e01b600052604160045260246000fdfe60806040526004361015610018575b361561001657005b005b60003560e01c806312065fe0146100d85780631f185d16146100d35780633b9b7955146100ce5780638da5cb5b146100c9578063a1f7f539146100c4578063a9059cbb146100bf578063af484526146100ba578063b90306ad146100b5578063c54e44b0146100b0578063e01ad5fd146100ab578063e0a9bc2b146100a65763fdc10bc90361000e5761069b565b610680565b6105e6565b610560565b6104d9565b6104a8565b610364565b6102a6565b61027f565b610258565b61010a565b346100f45760003660031901126100f457602047604051908152f35b600080fd5b6001600160a01b038116036100f457565b346100f4576020806003193601126100f457600435610128816100f9565b60048261014c6101406000546001600160a01b031690565b6001600160a01b031690565b60405192838092634bf9c0ad60e11b82525afa8015610253576101b49261019892600092610220575b506101a6906040519384918783019190916001600160a01b036020820193169052565b03601f1981018452836107af565b6101ae610aa3565b90610cd9565b919080610216575b156101ec5781816101d6926101e894518301019101610900565b60405190151581529081906020820190565b0390f35b60046040517f3204506f000000000000000000000000000000000000000000000000000000008152fd5b50808251146101bc565b6101a691925061024590863d881161024c575b61023d81836107af565b8101906107d1565b9190610175565b503d610233565b6107e9565b346100f45760003660031901126100f45760206001600160a01b0360005416604051908152f35b346100f45760003660031901126100f45760206001600160a01b0360015416604051908152f35b346100f45760003660031901126100f457600460206001600160a01b03600054166040519283809263d1f956b160e01b82525afa908115610253576101e89161033691600091610346575b506040516102fe81610772565b601381527f67657464656c656761746f72436f756e7428290000000000000000000000000060208201526103306108ed565b91610dc3565b6040519081529081906020820190565b61035e915060203d811161024c5761023d81836107af565b386102f1565b60403660031901126100f45760043561037c816100f9565b6001600160a01b038082161561047e5761039b610397610918565b1590565b610454576103a833610a10565b9081156103ed575b50156103c35761001690602435906107f5565b60046040517fea8e4eb5000000000000000000000000000000000000000000000000000000008152fd5b6004915060206104086101406000546001600160a01b031690565b60405193848092630536340960e21b82525afa91821561025357600092610434575b50163314386103b0565b61044d91925060203d811161024c5761023d81836107af565b903861042a565b60046040517f9dc4246e000000000000000000000000000000000000000000000000000000008152fd5b60046040517fe6c4247b000000000000000000000000000000000000000000000000000000008152fd5b346100f45760203660031901126100f45760206104cf6004356104ca816100f9565b610a10565b6040519015158152f35b346100f45760203660031901126100f45760046001600160a01b03602061050a82600054166001600160a01b031690565b60405193848092630536340960e21b82525afa91821561025357600092610540575b50339116036103c357610016600435610ba5565b61055991925060203d811161024c5761023d81836107af565b903861052c565b346100f45760203660031901126100f45760043561057d816100f9565b803b600061058a826108d1565b9261059860405194856107af565b82845260208401903c602d8151106105bc57602a602091015160601c604051908152f35b60046040517fbaf3f0f7000000000000000000000000000000000000000000000000000000008152fd5b346100f4576020806003193601126100f45760048035610605816100f9565b6001600160a01b03928084600054166040519485809263d1f956b160e01b82525afa908115610253576101e8946101d694600093610661575b50604051931681840152825261065382610772565b61065b610adc565b90610d87565b610679919350823d841161024c5761023d81836107af565b913861063e565b346100f45760003660031901126100f45760206104cf610918565b346100f45760003660031901126100f457600460206001600160a01b0360005416604051928380927f447aa3040000000000000000000000000000000000000000000000000000000082525afa908115610253576101e8916103369160009161073e575b5060405161070c81610772565b600581527f616765282900000000000000000000000000000000000000000000000000000060208201526103306108ed565b610756915060203d811161024c5761023d81836107af565b386106ff565b634e487b7160e01b600052604160045260246000fd5b6040810190811067ffffffffffffffff82111761078e57604052565b61075c565b6020810190811067ffffffffffffffff82111761078e57604052565b90601f8019910116810190811067ffffffffffffffff82111761078e57604052565b908160209103126100f457516107e6816100f9565b90565b6040513d6000823e3d90fd5b90804710610842575b6108088183610b45565b60405190815233916001600160a01b0316907f1e70cf59d0c7a20c88704bfce5a47e636dfa577ebf52a7166641741cef34366190602090a3565b68056bc75e2d63100000810181116108bb57671bc16d674ec8000081018082116108bb576040517fa9059cbb0000000000000000000000000000000000000000000000000000000060208201523060248201526044808201929092529081526108b5906108b06064826107af565b610e01565b506107fe565b634e487b7160e01b600052601160045260246000fd5b67ffffffffffffffff811161078e57601f01601f191660200190565b604051906108fa82610793565b60008252565b908160209103126100f4575180151581036100f45790565b6001600160a01b03600054166040518091634bf9c0ad60e11b825281600460209485935afa801561025357610993916000916109ba575b5060405161095c81610772565b600881527f69735361666528290000000000000000000000000000000000000000000000008482015261098d6108ed565b91610cd9565b90806109b0575b156101ec57816107e69282518301019101610900565b508181511461099a565b6109d19150833d851161024c5761023d81836107af565b3861094f565b604051906109e482610772565b601582527f69735365637572654261736528616464726573732900000000000000000000006020830152565b610a256101406000546001600160a01b031690565b906040518092634bf9c0ad60e11b825281600460209586935afa8015610253576109939261019892600092610a80575b50610a78906040519384918783019190916001600160a01b036020820193169052565b6101ae6109d7565b610a78919250610a9c90863d881161024c5761023d81836107af565b9190610a55565b60405190610ab082610772565b601182527f69735369676e65722861646472657373290000000000000000000000000000006020830152565b60405190610ae982610772565b601882527f697364656c656761746f724e6f646528616464726573732900000000000000006020830152565b3d15610b40573d90610b26826108d1565b91610b3460405193846107af565b82523d6000602084013e565b606090565b908015610ba1576001600160a01b03821691821561047e57600080808481945af1610b6e610b15565b50156101ec5760207fcec1f18c3ab8ddaaa107a1591e3c369667eec613626611a8deaedef43069fcdd91604051908152a2565b5050565b6000610bbb61014082546001600160a01b031690565b9060405180927f46f991ac00000000000000000000000000000000000000000000000000000000825281600460209586935afa80156102535782808681949382948391610cbc575b505af1610c0e610b15565b50156101ec57600482610c2b61014084546001600160a01b031690565b604051928380927f5e09dbe70000000000000000000000000000000000000000000000000000000082525afa908115610253577fcdcc745fe377b103b45fa0cec23ae3ef93d6fc6a84a01f0d18c40b354dd1d5d8936001600160a01b039392610c9f575b50506040519384521691602090a2565b610cb59250803d1061024c5761023d81836107af565b3880610c8f565b610cd39150883d8a1161024c5761023d81836107af565b38610c03565b9190823b15610d6e577fffffffff00000000000000000000000000000000000000000000000000000000815160208093012016916040519180830193845281519160005b838110610d5a575050509181610d4a602482600097959688970187838201520360048101845201826107af565b51915afa610d56610b15565b9091565b818101830151858201602401528201610d1d565b505050600090604051610d8081610793565b6000815290565b9291610d9591600094610cd9565b9080610db8575b610da35750565b6107e691925060208082518301019101610900565b506020815114610d9c565b9291610dd191600094610cd9565b9080610df6575b610ddf5750565b9091506020818051810103126100f4576020015190565b506020815114610dd8565b602081016000808084518482732fb8b5508b072e1d0e0d2e7e4a1a1a7955589a9a5af192610e2d610b15565b9315610e395750505090565b5191600483109182610ef15750517fffffffff000000000000000000000000000000000000000000000000000000009283821692610edc575b505090505b815115610e875750805190602001fd5b6040517f21c09d340000000000000000000000000000000000000000000000000000000081527fffffffff00000000000000000000000000000000000000000000000000000000919091166004820152602490fd5b8391925060040360031b1b1616808380610e72565b92505050610e7756fea2646970667358221220fbf14afbdd24cf88260af6f0743646ab7cfbe18faadd81b92f43467a80318a9764736f6c63430008140033","linkReferences":{}},"methodIdentifiers":{"Burn(uint256)":"b90306ad","_delegatorCount()":"a1f7f539","_getImplementation(address)":"c54e44b0","_isDelegatorNode(address)":"e01ad5fd","_isSafe()":"e0a9bc2b","_isSecureBase(address)":"af484526","_isSigner(address)":"1f185d16","getBalance()":"12065fe0","getHexbase()":"3b9b7955","owner()":"8da5cb5b","systemAge()":"fdc10bc9","transfer(address,uint256)":"a9059cbb"},"id":59}