{"abi":[{"type":"constructor","inputs":[{"name":"_hex","type":"address","internalType":"address"}],"stateMutability":"nonpayable"},{"type":"fallback","stateMutability":"payable"},{"type":"receive","stateMutability":"payable"},{"type":"function","name":"Burn","inputs":[{"name":"amount","type":"uint256","internalType":"uint256"}],"outputs":[],"stateMutability":"nonpayable"},{"type":"function","name":"UserToId","inputs":[{"name":"","type":"address","internalType":"address"}],"outputs":[{"name":"","type":"uint256","internalType":"uint256"}],"stateMutability":"view"},{"type":"function","name":"UserToInst","inputs":[{"name":"node","type":"address","internalType":"address"}],"outputs":[{"name":"","type":"address","internalType":"address"}],"stateMutability":"view"},{"type":"function","name":"_ageNow","inputs":[],"outputs":[{"name":"","type":"uint256","internalType":"uint256"}],"stateMutability":"view"},{"type":"function","name":"_delegatorCount","inputs":[],"outputs":[{"name":"","type":"uint256","internalType":"uint256"}],"stateMutability":"view"},{"type":"function","name":"_getImplementation","inputs":[{"name":"clone","type":"address","internalType":"address"}],"outputs":[{"name":"impl","type":"address","internalType":"address"}],"stateMutability":"view"},{"type":"function","name":"_isDelegatorNode","inputs":[{"name":"sender","type":"address","internalType":"address"}],"outputs":[{"name":"","type":"bool","internalType":"bool"}],"stateMutability":"view"},{"type":"function","name":"_isSafe","inputs":[],"outputs":[{"name":"","type":"bool","internalType":"bool"}],"stateMutability":"view"},{"type":"function","name":"_isSecureBase","inputs":[{"name":"sender","type":"address","internalType":"address"}],"outputs":[{"name":"","type":"bool","internalType":"bool"}],"stateMutability":"view"},{"type":"function","name":"_isSigner","inputs":[{"name":"sender","type":"address","internalType":"address"}],"outputs":[{"name":"","type":"bool","internalType":"bool"}],"stateMutability":"view"},{"type":"function","name":"addBusiness","inputs":[{"name":"_id","type":"uint256","internalType":"uint256"},{"name":"_paramAdd","type":"address","internalType":"address"},{"name":"_tokenid","type":"uint256","internalType":"uint256"},{"name":"_qty","type":"uint256","internalType":"uint256"},{"name":"_msgValue","type":"uint256","internalType":"uint256"},{"name":"_type","type":"uint256","internalType":"uint256"}],"outputs":[],"stateMutability":"nonpayable"},{"type":"function","name":"claimIncome","inputs":[{"name":"_id","type":"uint256","internalType":"uint256"},{"name":"_maxint","type":"uint256","internalType":"uint256"}],"outputs":[{"name":"","type":"uint256","internalType":"uint256"},{"name":"","type":"uint256","internalType":"uint256"}],"stateMutability":"nonpayable"},{"type":"function","name":"closemdform","inputs":[{"name":"uid","type":"uint256","internalType":"uint256"}],"outputs":[],"stateMutability":"nonpayable"},{"type":"function","name":"compileRoyality","inputs":[{"name":"prevAge","type":"uint256","internalType":"uint256"},{"name":"_cnt","type":"uint256[7]","internalType":"uint256[7]"}],"outputs":[],"stateMutability":"nonpayable"},{"type":"function","name":"createmdform","inputs":[{"name":"uid","type":"uint256","internalType":"uint256"},{"name":"newpid","type":"uint256","internalType":"uint256"}],"outputs":[],"stateMutability":"nonpayable"},{"type":"function","name":"getBalance","inputs":[],"outputs":[{"name":"","type":"uint256","internalType":"uint256"}],"stateMutability":"view"},{"type":"function","name":"getBatchRankCounts","inputs":[{"name":"ag","type":"uint256","internalType":"uint256"}],"outputs":[{"name":"counts","type":"uint256[8]","internalType":"uint256[8]"}],"stateMutability":"view"},{"type":"function","name":"getDownlineCountByLevel","inputs":[{"name":"uid","type":"uint256","internalType":"uint256"},{"name":"lvl","type":"uint256","internalType":"uint256"}],"outputs":[{"name":"","type":"uint256","internalType":"uint256"}],"stateMutability":"view"},{"type":"function","name":"getEffectiveRank","inputs":[{"name":"uinst","type":"address","internalType":"address"}],"outputs":[{"name":"","type":"uint256","internalType":"uint256"}],"stateMutability":"view"},{"type":"function","name":"getHexbase","inputs":[],"outputs":[{"name":"","type":"address","internalType":"address"}],"stateMutability":"view"},{"type":"function","name":"getMoveDownline","inputs":[{"name":"uid","type":"uint256","internalType":"uint256"}],"outputs":[{"name":"newpid","type":"uint256","internalType":"uint256"},{"name":"exist","type":"bool","internalType":"bool"},{"name":"op","type":"bool","internalType":"bool"}],"stateMutability":"view"},{"type":"function","name":"getNode","inputs":[{"name":"_id","type":"uint256","internalType":"uint256"}],"outputs":[{"name":"_i","type":"uint256","internalType":"uint256"},{"name":"_node","type":"address","internalType":"address"},{"name":"_pid","type":"uint256","internalType":"uint256"},{"name":"_inst","type":"address","internalType":"address"},{"name":"_stor","type":"address","internalType":"address"},{"name":"_active","type":"bool","internalType":"bool"},{"name":"_direcCount","type":"uint256","internalType":"uint256"}],"stateMutability":"view"},{"type":"function","name":"getNodeChild","inputs":[{"name":"_id","type":"uint256","internalType":"uint256"},{"name":"inx","type":"uint256","internalType":"uint256"}],"outputs":[{"name":"child","type":"uint256","internalType":"uint256"}],"stateMutability":"view"},{"type":"function","name":"getNodeDirectsCount","inputs":[{"name":"_id","type":"uint256","internalType":"uint256"}],"outputs":[{"name":"count","type":"uint256","internalType":"uint256"}],"stateMutability":"view"},{"type":"function","name":"getNodeInstStor","inputs":[{"name":"_id","type":"uint256","internalType":"uint256"}],"outputs":[{"name":"_inst","type":"address","internalType":"address"},{"name":"_stor","type":"address","internalType":"address"}],"stateMutability":"view"},{"type":"function","name":"getNodeParent","inputs":[{"name":"_user","type":"address","internalType":"address"}],"outputs":[{"name":"","type":"address","internalType":"address"}],"stateMutability":"view"},{"type":"function","name":"getNodeParentId","inputs":[{"name":"_id","type":"uint256","internalType":"uint256"}],"outputs":[{"name":"","type":"uint256","internalType":"uint256"}],"stateMutability":"view"},{"type":"function","name":"getNodeParentwithId","inputs":[{"name":"_user","type":"address","internalType":"address"}],"outputs":[{"name":"","type":"uint256","internalType":"uint256"},{"name":"","type":"address","internalType":"address"}],"stateMutability":"view"},{"type":"function","name":"getNodesCount","inputs":[],"outputs":[{"name":"nodesCount","type":"uint256","internalType":"uint256"}],"stateMutability":"view"},{"type":"function","name":"getRoyalityAmountBatch","inputs":[{"name":"ag","type":"uint256","internalType":"uint256"}],"outputs":[{"name":"royal","type":"uint256[7]","internalType":"uint256[7]"}],"stateMutability":"view"},{"type":"function","name":"getTeamSize","inputs":[{"name":"uid","type":"uint256","internalType":"uint256"}],"outputs":[{"name":"","type":"uint256","internalType":"uint256"}],"stateMutability":"view"},{"type":"function","name":"getTotalTeamSizeWithLevel","inputs":[{"name":"_user","type":"address","internalType":"address"},{"name":"lvl","type":"uint256","internalType":"uint256"}],"outputs":[{"name":"","type":"uint256","internalType":"uint256"},{"name":"","type":"uint256","internalType":"uint256"}],"stateMutability":"view"},{"type":"function","name":"getUserIdToInst","inputs":[{"name":"_id","type":"uint256","internalType":"uint256"}],"outputs":[{"name":"","type":"address","internalType":"address"}],"stateMutability":"view"},{"type":"function","name":"getUserIdToStor","inputs":[{"name":"_id","type":"uint256","internalType":"uint256"}],"outputs":[{"name":"","type":"address","internalType":"address"}],"stateMutability":"view"},{"type":"function","name":"getUserToInst","inputs":[{"name":"node","type":"address","internalType":"address"}],"outputs":[{"name":"","type":"address","internalType":"address"}],"stateMutability":"view"},{"type":"function","name":"getUserToStor","inputs":[{"name":"_user","type":"address","internalType":"address"}],"outputs":[{"name":"","type":"address","internalType":"address"}],"stateMutability":"view"},{"type":"function","name":"getbusiness","inputs":[{"name":"ag","type":"uint256","internalType":"uint256"}],"outputs":[{"name":"","type":"uint256","internalType":"uint256"}],"stateMutability":"view"},{"type":"function","name":"getjoining","inputs":[{"name":"ag","type":"uint256","internalType":"uint256"}],"outputs":[{"name":"","type":"uint256","internalType":"uint256"}],"stateMutability":"view"},{"type":"function","name":"getrankCount","inputs":[{"name":"ag","type":"uint256","internalType":"uint256"},{"name":"rnk","type":"uint256","internalType":"uint256"}],"outputs":[{"name":"count","type":"uint256","internalType":"uint256"}],"stateMutability":"view"},{"type":"function","name":"gettotqty","inputs":[{"name":"ag","type":"uint256","internalType":"uint256"}],"outputs":[{"name":"","type":"uint256","internalType":"uint256"}],"stateMutability":"view"},{"type":"function","name":"getwithdrawn","inputs":[{"name":"ag","type":"uint256","internalType":"uint256"}],"outputs":[{"name":"","type":"uint256","internalType":"uint256"}],"stateMutability":"view"},{"type":"function","name":"importBusiness","inputs":[{"name":"_amt","type":"uint256","internalType":"uint256"},{"name":"_ag","type":"uint256","internalType":"uint256"}],"outputs":[],"stateMutability":"nonpayable"},{"type":"function","name":"importJoining","inputs":[{"name":"_cnt","type":"uint256","internalType":"uint256"},{"name":"_ag","type":"uint256","internalType":"uint256"}],"outputs":[],"stateMutability":"nonpayable"},{"type":"function","name":"importNode","inputs":[{"name":"limit","type":"uint256","internalType":"uint256"}],"outputs":[],"stateMutability":"nonpayable"},{"type":"function","name":"importOld","inputs":[{"name":"_id","type":"uint256","internalType":"uint256"},{"name":"_limit","type":"uint256","internalType":"uint256"}],"outputs":[],"stateMutability":"payable"},{"type":"function","name":"importRankNOther","inputs":[{"name":"from","type":"uint256","internalType":"uint256"},{"name":"to","type":"uint256","internalType":"uint256"}],"outputs":[],"stateMutability":"nonpayable"},{"type":"function","name":"importWithdrawal","inputs":[{"name":"_amt","type":"uint256","internalType":"uint256"},{"name":"_ag","type":"uint256","internalType":"uint256"}],"outputs":[],"stateMutability":"nonpayable"},{"type":"function","name":"isNode","inputs":[{"name":"_id","type":"uint256","internalType":"uint256"}],"outputs":[{"name":"","type":"bool","internalType":"bool"}],"stateMutability":"view"},{"type":"function","name":"isStop","inputs":[{"name":"uinst","type":"address","internalType":"address"}],"outputs":[{"name":"","type":"bool","internalType":"bool"}],"stateMutability":"view"},{"type":"function","name":"isUserExists","inputs":[{"name":"node","type":"address","internalType":"address"}],"outputs":[{"name":"","type":"bool","internalType":"bool"}],"stateMutability":"view"},{"type":"function","name":"join","inputs":[{"name":"_parent","type":"address","internalType":"address"},{"name":"_user","type":"address","internalType":"address"}],"outputs":[{"name":"_id","type":"uint256","internalType":"uint256"},{"name":"_stor","type":"address","internalType":"address"}],"stateMutability":"nonpayable"},{"type":"function","name":"joinImport","inputs":[{"name":"_parent","type":"address","internalType":"address"},{"name":"_user","type":"address","internalType":"address"}],"outputs":[{"name":"_id","type":"uint256","internalType":"uint256"},{"name":"_stor","type":"address","internalType":"address"}],"stateMutability":"nonpayable"},{"type":"function","name":"moveDownline","inputs":[{"name":"uid","type":"uint256","internalType":"uint256"}],"outputs":[],"stateMutability":"nonpayable"},{"type":"function","name":"nodes","inputs":[{"name":"","type":"uint256","internalType":"uint256"}],"outputs":[{"name":"","type":"address","internalType":"address"}],"stateMutability":"view"},{"type":"function","name":"owner","inputs":[],"outputs":[{"name":"","type":"address","internalType":"address"}],"stateMutability":"view"},{"type":"function","name":"setDefaultRankCount","inputs":[{"name":"_limit","type":"uint256","internalType":"uint256"}],"outputs":[],"stateMutability":"nonpayable"},{"type":"function","name":"syncBaseAddr","inputs":[],"outputs":[],"stateMutability":"nonpayable"},{"type":"function","name":"systemAge","inputs":[],"outputs":[{"name":"","type":"uint256","internalType":"uint256"}],"stateMutability":"view"},{"type":"function","name":"tokenImport","inputs":[{"name":"_id","type":"uint256","internalType":"uint256"},{"name":"mintid","type":"uint256","internalType":"uint256"}],"outputs":[],"stateMutability":"nonpayable"},{"type":"function","name":"updateUsers","inputs":[{"name":"from","type":"address","internalType":"address"},{"name":"to","type":"address","internalType":"address"}],"outputs":[{"name":"_id","type":"uint256","internalType":"uint256"},{"name":"_stor","type":"address","internalType":"address"},{"name":"_parent","type":"address","internalType":"address"}],"stateMutability":"nonpayable"},{"type":"event","name":"EthBurned","inputs":[{"name":"sender","type":"address","indexed":true,"internalType":"address"},{"name":"amount","type":"uint256","indexed":false,"internalType":"uint256"}],"anonymous":false},{"type":"event","name":"EthTransferred","inputs":[{"name":"to","type":"address","indexed":true,"internalType":"address"},{"name":"amount","type":"uint256","indexed":false,"internalType":"uint256"}],"anonymous":false},{"type":"event","name":"HexBaseUpdated","inputs":[{"name":"previousHexBase","type":"address","indexed":true,"internalType":"address"},{"name":"newHexBase","type":"address","indexed":true,"internalType":"address"}],"anonymous":false},{"type":"event","name":"OwnerUpdated","inputs":[{"name":"previousOwner","type":"address","indexed":true,"internalType":"address"},{"name":"newOwner","type":"address","indexed":true,"internalType":"address"}],"anonymous":false},{"type":"error","name":"CallFailed","inputs":[]},{"type":"error","name":"FailedDeployment","inputs":[]},{"type":"error","name":"InsufficientBalance","inputs":[{"name":"balance","type":"uint256","internalType":"uint256"},{"name":"needed","type":"uint256","internalType":"uint256"}]},{"type":"error","name":"InvalidAddress","inputs":[]},{"type":"error","name":"InvalidState","inputs":[]},{"type":"error","name":"NotAuthorized","inputs":[]},{"type":"error","name":"NotSafe","inputs":[]},{"type":"error","name":"ReentrancyGuardReentrantCall","inputs":[]},{"type":"error","name":"TargetCallFailed","inputs":[{"name":"selector","type":"bytes4","internalType":"bytes4"}]}],"bytecode":{"object":"0x6080346200009e57601f6200622938819003918201601f19168301916001600160401b03831184841017620000a3578084926020946040528339810103126200009e57516001600160a01b038116908190036200009e5780156200008c5760018060a01b0319338160015416176001556000541617600055600160115560405161616f9081620000ba8239f35b60405163e6c4247b60e01b8152600490fd5b600080fd5b634e487b7160e01b600052604160045260246000fdfe60806040526004361015610018575b361561001657005b005b60003560e01c8063033eeffb146103d35780630e5fd00b1461036a5780631157a849146103ce57806312065fe0146103c957806313508e37146103c45780631bb49f02146103bf5780631c53c280146103ba5780631f185d16146103b55780631f5fa838146103b05780632a687c87146103ab5780632bbae52e146103a65780632fefc0bf146103a157806332ff4eab1461039c578063339459a6146103975780633a7b55b8146103925780633b9b79551461038d5780633baee0ea146103885780633e38e3da14610383578063419cb27b1461037e57806342cc9d5714610379578063445850971461037457806344668f231461036f57806345145fd71461036a5780634d1ec452146103655780634f0f4aa914610360578063509222cd1461035b57806350db85d11461035657806361ea720814610351578063629d671e1461034c57806365d2fbd3146103475780636a811244146103425780636b90905b1461033d5780636fb412ab1461033857806376fe6c45146103335780637818cdd71461032e57806380f85e3314610329578063849c22ad14610324578063896c354a1461031f5780638da5cb5b1461031a57806395f72f491461031557806398b3f21514610310578063a1f7f5391461030b578063a89d693b14610306578063af48452614610301578063b1c49079146102fc578063b366335e146102f7578063b90306ad146102f2578063c43792e3146102ed578063c54e44b0146102e8578063c871372b146102e3578063cf359165146102de578063d1e0bbc6146102d9578063dcb3fc4a146102d4578063e01ad5fd146102cf578063e0a9bc2b146102ca578063eb95c662146102c5578063f047bdeb146102c0578063f3ca7124146102bb578063fd38093b146102b65763fdc10bc90361000e57613a00565b613990565b613964565b613783565b613757565b61373c565b6136bc565b61344a565b613410565b61338e565b61330f565b613289565b61325d565b61314f565b6130d9565b612fec565b612fbb565b612eab565b612e10565b612de4565b612d6e565b612d47565b612d07565b612cd8565b612c9e565b612c45565b612b27565b61298a565b612851565b612448565b611e7d565b611e3f565b611e21565b611cd3565b611c7f565b611b92565b611b31565b610415565b611b13565b611adb565b611aac565b611a78565b61173c565b611288565b611239565b6110cd565b6109a7565b610931565b6108f9565b6108b0565b610813565b61071e565b610633565b6105fe565b6105a7565b61055e565b610542565b610465565b346103ff5760203660031901126103ff5760043560005260196020526020604060002054604051908152f35b600080fd5b6001600160a01b038116036103ff57565b346103ff5760203660031901126103ff57602060043561043481610404565b6001600160a01b03809116600052601282526040600020546000526015825260046040600020015416604051908152f35b346103ff5760203660031901126103ff57600435610481613be6565b600090808252601560205261049f60ff60016040852001541661451b565b33825260126020526104b66040832054821461451b565b808252601e60205260ff600160408420015416156104fe576104e56104f191600052601e602052604060002090565b60016000918281550155565b6104fb6001601155565b80f35b606460405162461bcd60e51b815260206004820152601360248201527f6e65737465642e7265712e6e6f746578697374000000000000000000000000006044820152fd5b346103ff5760003660031901126103ff57602047604051908152f35b346103ff5760203660031901126103ff57600435600052601e6020526060604060002060ff600182549201546040519283528181161515602084015260081c1615156040820152f35b346103ff5760203660031901126103ff5760206004356105c681610404565b60406001600160a01b039182600091168152601284528181205481526015845260028282200154815260138452205416604051908152f35b346103ff5760203660031901126103ff57600435600052601360205260206001600160a01b0360406000205416604051908152f35b346103ff576020806003193601126103ff576106b260043561065481610404565b6001600160a01b0380600254169060405192168483015283825261067782612bae565b6040519061068482612bae565b601182527f69735369676e657228616464726573732900000000000000000000000000000085830152615f2a565b919080610714575b156106ea5781816106d4926106e694518301019101615c54565b60405190151581529081906020820190565b0390f35b60046040517f3204506f000000000000000000000000000000000000000000000000000000008152fd5b50808251146106ba565b346103ff5760203660031901126103ff5761075c60043561073e81610404565b610746615631565b6040519161075383612bca565b60008352615f6c565b6001600160a01b038116156107ce576107be6106e69160405161077e81612bae565b600681527f72616e6b282900000000000000000000000000000000000000000000000000006020820152604051916107b583612bca565b60008352616034565b6040519081529081906020820190565b60405162461bcd60e51b815260206004820152601560248201527f6e65737465642e73746f722e6e6f7465786973747300000000000000000000006044820152606490fd5b346103ff5760403660031901126103ff5760243561082f615c68565b1561089f5761083d33615ced565b801561088b575b1561087a57600090808252601a6020526040822054906004358201809211610875578252601a602052604082205580f35b613bb5565b600460405163ea8e4eb560e01b8152fd5b50336001600160a01b036005541614610844565b6004604051634ee2123760e11b8152fd5b346103ff5760203660031901126103ff57600480356000908152601560209081526040918290209283015460059093015482516001600160a01b03948516815293169083015290f35b346103ff5760203660031901126103ff57600435600052601560205260206001600160a01b0360056040600020015416604051908152f35b346103ff5760403660031901126103ff5760243561094d615c68565b1561089f5761095b33615ced565b8015610993575b1561087a57600090808252601d6020526040822054906004358201809211610875578252601d602052604082205580f35b50336001600160a01b036005541614610962565b346103ff5760003660031901126103ff576109d96109cd6000546001600160a01b031690565b6001600160a01b031690565b604051907f97f3815a000000000000000000000000000000000000000000000000000000008252602082600481845afa918215610ecf5760009261107e575b50604051917fcfbffe53000000000000000000000000000000000000000000000000000000008352602083600481855afa928315610ecf5760009361105d575b50604051907fab6e844f000000000000000000000000000000000000000000000000000000008252602082600481865afa918215610ecf5760009261103c575b50604051917f14d8d024000000000000000000000000000000000000000000000000000000008352602083600481875afa928315610ecf5760009361101b575b50604051927fd1f956b1000000000000000000000000000000000000000000000000000000008452602084600481885afa938415610ecf57600094610ffa575b50604051937fe61dfd58000000000000000000000000000000000000000000000000000000008552602085600481895afa948515610ecf57600095610fd9575b506040517fe09d394d0000000000000000000000000000000000000000000000000000000081526020816004818a5afa908115610ecf57600091610fba575b506040517f52b06d640000000000000000000000000000000000000000000000000000000081526020816004818b5afa908115610ecf57600091610f9b575b506040517f013cf08b00000000000000000000000000000000000000000000000000000000815260006004820152916020836024818c5afa928315610ecf57600093610f7a575b50604051977f5e09dbe70000000000000000000000000000000000000000000000000000000089526020896004818d5afa948515610ecf57600499600096610f59575b5060208b6040519b8c80927faa0ddc160000000000000000000000000000000000000000000000000000000082525afa968715610ecf5760049a600098610f38575b5060208c6040519c8d80927f640274270000000000000000000000000000000000000000000000000000000082525afa988915610ecf5760049b60009a610f17575b5060208d6040519d8e80927f30125cf50000000000000000000000000000000000000000000000000000000082525afa9a8b15610ecf578d60049d60009d610ef5575b506020906040519e8f80927f24768d910000000000000000000000000000000000000000000000000000000082525afa9c8d15610ecf5760009d610ed4575b50604051809e81907f9dc969a80000000000000000000000000000000000000000000000000000000082525a92600491602094fa9d8e15610ecf5760009e610e9e575b50610db2612c24565b6001600160a01b0390911681529d8e906001600160a01b0316602082015260400190610de691906001600160a01b03169052565b6001600160a01b031660608d01526001600160a01b031660808c01526001600160a01b031660a08b01526001600160a01b031660c08a01526001600160a01b031660e08901526001600160a01b03166101008801526001600160a01b03166101208701526001600160a01b03166101408601526001600160a01b03166101608501526001600160a01b03166101808401526001600160a01b03166101a08301526001600160a01b03166101c082015261001690615953565b610ec1919e5060203d602011610ec8575b610eb98183612c02565b810190615932565b9c38610da9565b503d610eaf565b615947565b610eee919d5060203d602011610ec857610eb98183612c02565b9b38610d66565b6020919d50610f1090823d8411610ec857610eb98183612c02565b9c90610d27565b610f31919a5060203d602011610ec857610eb98183612c02565b9838610ce4565b610f5291985060203d602011610ec857610eb98183612c02565b9638610ca2565b610f7391965060203d602011610ec857610eb98183612c02565b9438610c60565b610f9491935060203d602011610ec857610eb98183612c02565b9138610c1d565b610fb4915060203d602011610ec857610eb98183612c02565b38610bd6565b610fd3915060203d602011610ec857610eb98183612c02565b38610b97565b610ff391955060203d602011610ec857610eb98183612c02565b9338610b58565b61101491945060203d602011610ec857610eb98183612c02565b9238610b18565b61103591935060203d602011610ec857610eb98183612c02565b9138610ad8565b61105691925060203d602011610ec857610eb98183612c02565b9038610a98565b61107791935060203d602011610ec857610eb98183612c02565b9138610a58565b61109891925060203d602011610ec857610eb98183612c02565b9038610a18565b60e0810192916000915b600783106110b657505050565b6001908251815260208091019201920191906110a9565b346103ff5760203660031901126103ff576106e6600435611227611217604051926110f784612be6565b60e0368537611123611113826000526017602052604060002090565b6001600052602052604060002090565b54845261114d61113d826000526017602052604060002090565b6002600052602052604060002090565b54602085015261117a61116a826000526017602052604060002090565b6003600052602052604060002090565b5460408501526111a7611197826000526017602052604060002090565b6004600052602052604060002090565b5460608501526111d46111c4826000526017602052604060002090565b6005600052602052604060002090565b5460808501526112016111f1826000526017602052604060002090565b6006600052602052604060002090565b5460a08501526000526017602052604060002090565b6007600052602052604060002090565b5460c08201526040519182918261109f565b346103ff5760003660031901126103ff5760206001600160a01b0360005416604051908152f35b60409060031901126103ff5760043561127881610404565b9060243561128581610404565b90565b346103ff5761129636611260565b61129e613be6565b6106e66112e96112bd6112af613a4a565b6112b7613a62565b33615f6c565b6113096112d36112cb613a4a565b6112b7613a9b565b6001600160a01b03938685169385168414613ad4565b836113016109cd82600054166001600160a01b031690565b911614613b1f565b61131481151561443a565b611331846001600160a01b03166000526012602052604060002090565b54158015611731575b61134390614485565b61136b611363866001600160a01b03166000526012602052604060002090565b5415156144d0565b6113af60056113a1611390886001600160a01b03166000526012602052604060002090565b546000526015602052604060002090565b01546001600160a01b031690565b6040517f880cdc310000000000000000000000000000000000000000000000000000000060208201526001600160a01b038616602482015290929061140d9080604481015b0394611408601f1996878101845283612c02565b616074565b506114366109cd60046113a16113908a6001600160a01b03166000526012602052604060002090565b6116be575b611458866001600160a01b03166000526012602052604060002090565b54611476866001600160a01b03166000526012602052604060002090565b556114c7856114ac61149b896001600160a01b03166000526012602052604060002090565b546000526013602052604060002090565b906001600160a01b03166001600160a01b0319825416179055565b6115093360046114ed611390896001600160a01b03166000526012602052604060002090565b01906001600160a01b03166001600160a01b0319825416179055565b851614159081611699575b611531846001600160a01b03166000526012602052604060002090565b549361154c60056113a1876000526015602052604060002090565b9561158861157b6002611569896000526015602052604060002090565b01546000526013602052604060002090565b546001600160a01b031690565b9315611631576114086115fb936115a76009546001600160a01b031690565b6040517fe3d1d5bf0000000000000000000000000000000000000000000000000000000060208201526001600160a01b03948516602482015294909316604485015283606481015b03908101845283612c02565b505b6116076001601155565b60405193849384916040919493606084019584526001600160a01b03809216602085015216910152565b6115ef91506114086116939361164f6009546001600160a01b031690565b6040517f9498d88b0000000000000000000000000000000000000000000000000000000060208201526001600160a01b039094166024850152929384906044820190565b506115fd565b60006116b8866001600160a01b03166000526012602052604060002090565b55611514565b61172b6116e660046113a16113908a6001600160a01b03166000526012602052604060002090565b6040517f0399c93c0000000000000000000000000000000000000000000000000000000060208201523360248201529061140882604481015b03878101845283612c02565b5061143b565b50848216811461133a565b346103ff576020806003193601126103ff57611756615c68565b1561089f5761176433615ced565b8015611a64575b1561087a576004359061178d61177f61585e565b611787613a37565b90615ff9565b905b601492835480841180611a5b575b15610016576117c06117ef6117e160409384519384918883019190602083019252565b03926117d4601f1994858101835282612c02565b6117dc615897565b615df9565b8580825183010191016158dd565b5050505093916001600160a01b0380921694611839819683611824826001600160a01b03166000526012602052604060002090565b556114ac846000526013602052604060002090565b61184d826000526015602052604060002090565b90600290818301558260019261186c848201600160ff19825416179055565b55818761189e611898611889876000526018602052604060002090565b60008052602052604060002090565b60019055565b6119b05750505092869798926113a1611939969361191961190b6118f161193e9c6118fd6118de6119349c60059889916000526015602052604060002090565b9188519384918201906000602083019252565b03898101845283612c02565b6119056146b9565b90615e2d565b8c80825183010191016146f2565b50505015908161198d575b50611945575b5050505054613eb6565b601455565b614916565b919061178f565b611963611408916113a1611983966000526015602052604060002090565b9151636f58dd0f60e11b8b820152600060248201529283604481016115ef565b503880808061192a565b90506119a7826113a1876000526015602052604060002090565b16151538611924565b611a2c611a1b828a8787879614611a35575b50816119db6119ea926000526018602052604060002090565b90600052602052604060002090565b6119f48154613bcb565b9055611a0a8b6000526019602052604060002090565b611a148154613bcb565b9055613eb6565b986000526015602052604060002090565b0154968761189e565b6003611a4e611a54936000526015602052604060002090565b0161427a565b8a876119c2565b5081151561179d565b50336001600160a01b03600554161461176b565b346103ff5760203660031901126103ff576004356000526015602052602060ff600160406000200154166040519015158152f35b346103ff5760203660031901126103ff5760043560005260156020526020600360406000200154604051908152f35b346103ff5760203660031901126103ff57600435600052601560205260206001600160a01b0360046040600020015416604051908152f35b346103ff5760003660031901126103ff576020601f54604051908152f35b346103ff5760203660031901126103ff57600435611b4e81610404565b6001600160a01b0390811660009081526012602090815260408083205483526015825280832060020154808452601383529281902054815193845290931690820152f35b346103ff5760203660031901126103ff5760043580600052601560205260406000205460136020526106e66001600160a01b0380604060002054169360156020526040600020916004600284015493015416611bfd60056113a1846000526015602052604060002090565b906003611c35611c246001611c1c876000526015602052604060002090565b015460ff1690565b946000526015602052604060002090565b01549360405197889788939160c09591989796939260e086019986526001600160a01b03938480931660208801526040870152166060850152166080830152151560a08201520152565b346103ff5760203660031901126103ff576001600160a01b03600435611ca481610404565b1660005260126020526040600020546000526015602052602060ff600160406000200154166040519015158152f35b346103ff57611ce136611260565b90611cea615c68565b1561089f57611cf833615ced565b8015611e0d575b1561087a5781611d1691611d11613be6565b613ec5565b806000526015602052611ddf611d65611dd9611d95611d86611d4760056040600020016001600160a01b0390541690565b604080516001600160a01b0390991660208a01529097948591820190565b0393611d79601f1995868101835282612c02565b611d81613c21565b615e23565b60208082518301019101613c5a565b6040517f654c668e00000000000000000000000000000000000000000000000000000000602082015260248101929092526044820152606492830181529182612c02565b83616074565b50611de9816143d8565b611df36001601155565b604080519182526001600160a01b03929092166020820152f35b50336001600160a01b036005541614611cff565b346103ff5760003660031901126103ff576020601454604051908152f35b346103ff5760203660031901126103ff576001600160a01b03600435611e6481610404565b1660005260126020526020604060002054604051908152f35b346103ff576020806003193601126103ff5760043590611e9b613be6565b6001611ebd611eb882611c1c866000526015602052604060002090565b61438d565b611ee5611edd336001600160a01b03166000526012602052604060002090565b54841461451b565b611ef983600052601e602052604060002090565b9281840192611f11611f0c855460ff1690565b6147f5565b611f19613c70565b600594611f34866113a1856000526015602052604060002090565b95604091611f74611f66845180611f52888201906000602083019252565b039a6118fd601f199c8d8101845283612c02565b8580825183010191016146f2565b50505090611f8e611f8a895460ff9060081c1690565b1590565b156122495750600295611fb887611faf886000526015602052604060002090565b0154151561488b565b6000815b6120f4575b505092849261140861208e99631867546560e21b61204386888c8261207d9c60009f9e61201d61205a9d6113a18661200b6001600160a01b03956000526015602052604060002090565b01546000526015602052604060002090565b16151590816120ea575b50612098575b50506113a1906000526015602052604060002090565b9351948501526001602485015283604481016115ef565b50845461206d9060081c60ff1682614923565b6000526015602052604060002090565b0155805461ff001916610100179055565b6100166001601155565b6113a16120b69261200b6120e1956000526015602052604060002090565b8751636f58dd0f60e11b8a820152600060248201529061140882604481015b03888101845283612c02565b50888b8261202d565b9050151538612027565b60038061210f8a61200b8b6000526015602052604060002090565b0154821015612243578761214961213f84846121398e61200b876000526015602052604060002090565b0161425d565b90549060031b1c90565b1461215e575061215890613eb6565b81611fbc565b8795925099631867546560e21b61204386888c61208e9f9961207d9c9960009f9e8c61220f6114089b61205a9f6121dc61213f866121d6846121cf8d61200b6121f6986121bd8361222d9f61200b906000526015602052604060002090565b01956000526015602052604060002090565b0154613ca0565b9061425d565b91846121398a61200b8d6000526015602052604060002090565b90919082549060031b91821b91600019901b1916179055565b6122278561200b886000526015602052604060002090565b016148d6565b999c505050509650505099508194969750611fc1565b50611fc1565b859650612344838787631867546560e21b9461230e61230861236c9f989e6104e59f9a6114089b61235b9f600261228d612295926000526015602052604060002090565b015415614840565b6122c9886003611a4e89548060026122b7866000526015602052604060002090565b01556000526015602052604060002090565b8554906001600160a01b036122ec846113a1856000526015602052604060002090565b161515908161243e575b506123f7575b50505460081c60ff1690565b84614923565b61232a6109cd60046113a1866000526015602052604060002090565b6123715750506113a1906000526015602052604060002090565b9351948501526000602485015283604481016115ef565b50600052601e602052604060002090565b61208e565b6114087f1499c59200000000000000000000000000000000000000000000000000000000926120d56123cd61157b6123bb60046113a16123ee9a6000526015602052604060002090565b95546000526013602052604060002090565b8c51958693840152602483019190916001600160a01b036020820193169052565b5088873861202d565b612436916113a1612412926000526015602052604060002090565b8d51636f58dd0f60e11b8882015260016024820152906114088d83604481016115ef565b5086386122fc565b90501515386122f6565b346103ff576040806003193601126103ff57600435612465613be6565b612481611eb86001611c1c846000526015602052604060002090565b6124a76124a06109cd60046113a1856000526015602052604060002090565b331461466e565b6124af613c70565b6106e66101006124ce60056113a1856000526015602052604060002090565b6125f2601f549486805193826125356125276020977f02a085f20000000000000000000000000000000000000000000000000000000089820152806113f460249d8e803590840160209093929193604081019481520152565b878082518301019101614c9f565b98895192612548888c0194855190613bd9565b978b6125598782019a8b5190613bd9565b6125696060830191825190613bd9565b9061257a6080840192835190613bd9565b97868a8961258e60a088019c8d5190613bd9565b966125a76125a260c08301998a5190613bd9565b6156e7565b8881516127d5575b50509091508251612768575b50505080516126fe575b508051612694575b506125db8651825190613bd9565b612617575b5050505050505060e086015190614dd0565b51920151926126016001601155565b5191825260208201929092529081906040820190565b6126879663a9059cbb60e01b96611408956126626115ef9461265861157b612647600f546001600160a01b031690565b9b6000526013602052604060002090565b9351905190613bd9565b92519889958601528401602090939291936001600160a01b0360408201951681520152565b50863882818080806125e0565b6126f7906126aa6010546001600160a01b031690565b6114086126c461157b8a6000526013602052604060002090565b92518b5163a9059cbb60e01b888201526001600160a01b039094168985019081526020810191909152839060400161171f565b50386125cd565b61276190612714600c546001600160a01b031690565b61140861272e61157b8b6000526013602052604060002090565b92518c5163a9059cbb60e01b898201526001600160a01b039094168a8501908152602081019190915283906040016120d5565b50386125c5565b6114086127cc936118f161279b61157b61278a600e546001600160a01b031690565b956000526013602052604060002090565b9151945194859263a9059cbb60e01b8c8501528d8401602090939291936001600160a01b0360408201951681520152565b503889886125bb565b61283963a9059cbb60e01b94611408936128459761281261157b612801600d546001600160a01b031690565b986000526013602052604060002090565b915192519788958601528401602090939291936001600160a01b0360408201951681520152565b038a8101845283612c02565b508f8a898992886125af565b346103ff5760403660031901126103ff57600435602435612870615c68565b1561089f5761287e33615ced565b8015612976575b1561087a5761294c61208e92612899613be6565b8060005260156020526128b8611eb8600160406000200160ff90541690565b6128d96128d46001611c1c866000526015602052604060002090565b614714565b61293c6129326129236128fb60056113a1886000526015602052604060002090565b604051906118fd8261291560208201906000602083019252565b03601f198101845283612c02565b602080825183010191016146f2565b505050151561475f565b600052601e602052604060002090565b906001820191612968612963611f8a855460ff1690565b6147aa565b55805460ff19166001179055565b50336001600160a01b036005541614612885565b346103ff5760403660031901126103ff576004356024356129a9613be6565b6129c5611eb86001611c1c856000526015602052604060002090565b6129e96129e26109cd61157b856000526013602052604060002090565b331461451b565b612a1b612a0560056113a1856000526015602052604060002090565b612a0d614566565b612a15613a37565b91615e2d565b9080612a3160209384808251830101910161459f565b1015612a41576100166001601155565b82612b186001600160a01b03927ff526f68a0000000000000000000000000000000000000000000000000000000094612b0c612af161157b612adc612ace612ab2612a9e60056113a1612b1e9f6000526015602052604060002090565b976040519182918983019190602083019252565b0397612ac6601f19998a8101845283612c02565b6119056145ae565b8580825183010191016145e7565b99925050506000526013602052604060002090565b612af9613a4a565b9060405198899485015260248401614632565b03908101855284612c02565b16616074565b5038808061208e565b346103ff5760203660031901126103ff576020600435612b4681610404565b6001600160a01b03809116600052601282526040600020546000526015825260056040600020015416604051908152f35b634e487b7160e01b600052604160045260246000fd5b6060810190811067ffffffffffffffff821117612ba957604052565b612b77565b6040810190811067ffffffffffffffff821117612ba957604052565b6020810190811067ffffffffffffffff821117612ba957604052565b60e0810190811067ffffffffffffffff821117612ba957604052565b90601f8019910116810190811067ffffffffffffffff821117612ba957604052565b604051906101e0820182811067ffffffffffffffff821117612ba957604052565b346103ff576101003660031901126103ff5736604312156103ff57604051612c6c81612be6565b610104813682116103ff576024905b828210612c8e57610016846004356153ae565b8135815260209182019101612c7b565b346103ff5760403660031901126103ff57600435600052601660205260406000206024356000526020526020604060002054604051908152f35b346103ff5760203660031901126103ff5760043560005260156020526020600260406000200154604051908152f35b346103ff5760403660031901126103ff5760043560005260156020526020612d38602435600360406000200161425d565b90549060031b1c604051908152f35b346103ff5760003660031901126103ff5760206001600160a01b0360015416604051908152f35b346103ff5760403660031901126103ff57602435612d8a615c68565b1561089f57612d9833615ced565b8015612dd0575b1561087a57600090808252601c6020526040822054906004358201809211610875578252601c602052604082205580f35b50336001600160a01b036005541614612d9f565b346103ff5760203660031901126103ff57600435600052601d6020526020604060002054604051908152f35b346103ff5760003660031901126103ff576020612e746001600160a01b0360065416604051612e3e81612bae565b601381527f67657464656c656761746f72436f756e7428290000000000000000000000000084820152604051916107b583612bca565b604051908152f35b610100810192916000915b60088310612e9457505050565b600190825181526020809101920192019190612e87565b346103ff5760203660031901126103ff576106e6600435612fa9611217612ed061566a565b92612ee8611889826000526016602052604060002090565b548452612f02611113826000526016602052604060002090565b546020850152612f1f61113d826000526016602052604060002090565b546040850152612f3c61116a826000526016602052604060002090565b546060850152612f59611197826000526016602052604060002090565b546080850152612f766111c4826000526016602052604060002090565b5460a0850152612f936111f1826000526016602052604060002090565b5460c08501526000526016602052604060002090565b5460e082015260405191829182612e7c565b346103ff5760203660031901126103ff576020612fe2600435612fdd81610404565b615ced565b6040519015158152f35b346103ff57613088612ffd36611260565b90613006613be6565b61304c6130146112af613a4a565b61301f6112cb613a4a565b906130386001600160a01b039182808816911614613ad4565b61130181600054166001600160a01b031690565b6130796130746001611c1c611390856001600160a01b03166000526012602052604060002090565b613b6a565b613081613c70565b33906140a2565b6130a1611889601f546000526016602052604060002090565b6130ab8154613bcb565b90556130b5615713565b6130ce60056113a1836000526015602052604060002090565b90611df36001601155565b346103ff5760203660031901126103ff576130f2615c68565b1561089f5761310033615ced565b801561313b575b1561087a57613114615d77565b601f541061312b575b610016600435601f54613cbc565b613133615d77565b601f5561311d565b50336001600160a01b036005541614613107565b346103ff5760203660031901126103ff5760043561316b615c68565b1561089f576001600160a01b0360055416330361087a576000906004602061319d6109cd85546001600160a01b031690565b604051928380927f46f991ac0000000000000000000000000000000000000000000000000000000082525afa8015610ecf578380848194938294839161323f575b505af16131e9615dc9565b50156106ea577fcdcc745fe377b103b45fa0cec23ae3ef93d6fc6a84a01f0d18c40b354dd1d5d86132396132286109cd600b546001600160a01b031690565b604051938452929081906020820190565b0390a280f35b613257915060203d8111610ec857610eb98183612c02565b386131de565b346103ff5760203660031901126103ff57600435600052601b6020526020604060002054604051908152f35b346103ff5760203660031901126103ff576004356132a681610404565b803b60006132b382613a1b565b926132c16040519485612c02565b82845260208401903c602d8151106132e557602a602091015160601c604051908152f35b60046040517fbaf3f0f7000000000000000000000000000000000000000000000000000000008152fd5b60403660031901126103ff57600435613326613be6565b600090808252601560205261334460ff60016040852001541661438d565b815260156020526133856001600160a01b036005604084200154166040519063d3abb8a360e01b602083015260243560248301526024825261140882612b8d565b50600160115580f35b346103ff5760203660031901126103ff576133ae60043561073e81610404565b6001600160a01b038116156107ce576106d46106e6916040516133d081612bae565b600881527f69734c6f636b282900000000000000000000000000000000000000000000000060208201526040519161340783612bca565b60008352615fbd565b346103ff5760403660031901126103ff57600435600052601860205260406000206024356000526020526020604060002054604051908152f35b346103ff5760c03660031901126103ff5761208e60043560243561346d81610404565b6064359161357b611d8660843593613483613be6565b61349f611eb86001611c1c876000526015602052604060002090565b6134be6124a06109cd60046113a1886000526015602052604060002090565b6134c6613c70565b6134cf8561568f565b6134d8866156bb565b60026134ee856000526015602052604060002090565b01546135d7575b61350e60056113a1866000526015602052604060002090565b601f546040517fa66303040000000000000000000000000000000000000000000000000000000060208201526001600160a01b039093166024840152604480359084015260648301889052608483019690965260a480359083015260c48201959095528060e481016113f4565b9281613589575b50506150f2565b6135cf916114086115ef926135a6600b546001600160a01b031690565b60405163a9059cbb60e01b60208201523360248201526044810194909452929384906064820190565b503880613582565b6135f560056113a1600261200b886000526015602052604060002090565b6136256129236040518061361160208201906000602083019252565b03936118fd601f1995868101845283612c02565b5050506001600160a01b0361364e60056113a1600261200b8b6000526015602052604060002090565b16151590816136b3575b50613664575b506134f5565b6136ac9061368660056113a1600261200b8a6000526015602052604060002090565b604051636f58dd0f60e11b602082015260016024820152916114089083604481016115ef565b503861365e565b90501538613658565b346103ff5760203660031901126103ff576020612fe26004356136de81610404565b6001600160a01b0380600654169060405192168483015283825261370182612bae565b6040519061370e82612bae565b601882527f697364656c656761746f724e6f6465286164647265737329000000000000000085830152615fbd565b346103ff5760003660031901126103ff576020612fe2615c68565b346103ff5760203660031901126103ff57600435600052601a6020526020604060002054604051908152f35b346103ff576040806003193601126103ff57602435906137a1615c68565b15613954576137af33615ced565b8015613940575b15613930576004355b828111156137c957005b81516020808201839052808252601f19916137f6906137e9604082612c02565b6137f1615741565b615ff9565b61380a84600052601a602052604060002090565b55613839845161383181613825878683019190602083019252565b03858101835282612c02565b6137f161577a565b61384d84600052601c602052604060002090565b55613870845161386881613825878683019190602083019252565b6137f16157b3565b61388484600052601d602052604060002090565b556138a7845161389f81613825878683019190602083019252565b6137f16157ec565b6138bb84600052601b602052604060002090565b5560005b600881106138d8575050506138d390613eb6565b6137bf565b84518281018581526020810183905261392b929161390d9161390590829060400103878101835282612c02565b6137f1615825565b613925826119db886000526016602052604060002090565b55613eb6565b6138bf565b6004905163ea8e4eb560e01b8152fd5b50336001600160a01b0360055416146137b6565b60049051634ee2123760e11b8152fd5b346103ff5760203660031901126103ff57600435600052601c6020526020604060002054604051908152f35b346103ff576040806003193601126103ff576001600160a01b036004356139b681610404565b166000818152601260208181528483205483526019815284832054938352908152838220548252601881528382206024358352815290839020549251918252810191909152604090f35b346103ff5760003660031901126103ff576020612e74615d77565b67ffffffffffffffff8111612ba957601f01601f191660200190565b60405190613a4482612bca565b60008252565b604051613a5681612bca565b60008152906000368137565b60405190613a6f82612bae565b600782527f6f776e65722829000000000000000000000000000000000000000000000000006020830152565b60405190613aa882612bae565b600c82527f67657448657862617365282900000000000000000000000000000000000000006020830152565b15613adb57565b606460405162461bcd60e51b815260206004820152601760248201527f6e65737465642e696e76616c69642e696e7374616e63650000000000000000006044820152fd5b15613b2657565b606460405162461bcd60e51b815260206004820152601660248201527f6e65737465642e696e76616c69642e68657862617365000000000000000000006044820152fd5b15613b7157565b606460405162461bcd60e51b815260206004820152601860248201527f6e65737465642e706172656e742e6e6f742e65786973747300000000000000006044820152fd5b634e487b7160e01b600052601160045260246000fd5b906001820180921161087557565b9190820180921161087557565b600260115414613bf7576002601155565b60046040517f3ee5aeb5000000000000000000000000000000000000000000000000000000008152fd5b60405190613c2e82612bae565b601582527f676574436c61696d496e666f28616464726573732900000000000000000000006020830152565b91908260409103126103ff576020825192015190565b613c78615d77565b601f5410613c90575b613c8e6005601f54613cbc565b565b613c98615d77565b601f55613c81565b60001981019190821161087557565b9190820391821161087557565b90613cd4611889836000526016602052604060002090565b541580613e61575b80613e58575b613cea575050565b613d0690613d00613cfa84613ca0565b91613ca0565b90613cbc565b613d25611889613d1583613ca0565b6000526016602052604060002090565b54613d3d611889836000526016602052604060002090565b55613d4d611113613d1583613ca0565b54613d65611113836000526016602052604060002090565b55613d7561113d613d1583613ca0565b54613d8d61113d836000526016602052604060002090565b55613d9d61116a613d1583613ca0565b54613db561116a836000526016602052604060002090565b55613dc5611197613d1583613ca0565b54613ddd611197836000526016602052604060002090565b55613ded6111c4613d1583613ca0565b54613e056111c4836000526016602052604060002090565b55613e156111f1613d1583613ca0565b54613e2d6111f1836000526016602052604060002090565b55613e55611217613e43611217613d1585613ca0565b54926000526016602052604060002090565b55565b50801515613ce2565b5060018211613cdc565b15613e7257565b606460405162461bcd60e51b815260206004820152601560248201527f6e65737465642e616c72656164792e65786973747300000000000000000000006044820152fd5b60001981146108755760010190565b90613ef6613ef1611f8a6001611c1c611390866001600160a01b03166000526012602052604060002090565b613e6b565b613f04611934601454613eb6565b613f5b60145492613f23836114ac866000526013602052604060002090565b83613f41846001600160a01b03166000526012602052604060002090565b556001600160a01b03166000526012602052604060002090565b5490613f6783836142a2565b613f916004613f80856000526015602052604060002090565b016001600160a01b03198154169055565b613fc4613fae613fa96008546001600160a01b031690565b6141c7565b60056114ed866000526015602052604060002090565b614045613fe060056113a1866000526015602052604060002090565b91613ff66109cd6000546001600160a01b031690565b60405163134bd3bd60e11b60208201526001600160a01b0391821660248201529116604482015260648101859052600060848201528060a481015b0392611408601f1994858101845283612c02565b5081151580614078575b61405857505090565b61368660056113a1614074946000526015602052604060002090565b5090565b506001600160a01b0361409a60056113a1856000526015602052604060002090565b16151561404f565b916140ce613ef1611f8a6001611c1c611390866001600160a01b03166000526012602052604060002090565b6140dc611934601454613eb6565b61413e61411c601454946140fe846114ac886000526013602052604060002090565b85613f41856001600160a01b03166000526012602052604060002090565b549261412885856142a2565b60046114ed866000526015602052604060002090565b614156613fae613fa96008546001600160a01b031690565b61404561417260056113a1866000526015602052604060002090565b916141886109cd6000546001600160a01b031690565b60405163134bd3bd60e11b60208201526001600160a01b0391821660248201529116604482015260648101859052600160848201528060a48101614031565b6e5af43d82803e903d91602b57fd5bf390763d602d80600a3d3981f3363d3d373d3d3d363d7300000062ffffff8260881c161760005260781b17602052603760096000f0906001600160a01b0382161561421d57565b60046040517fb06ebf3d000000000000000000000000000000000000000000000000000000008152fd5b634e487b7160e01b600052603260045260246000fd5b80548210156142755760005260206000200190600090565b614247565b9081549168010000000000000000831015612ba957826121f6916001613c8e9501815561425d565b919091600092808452602091601583526040808620956002948386890155846001986142d78a8201600160ff19825416179055565b55876142ed866000526018602052604060002090565b83805282528489858520555b61430857505050505050509050565b614365614354828b8a941461436e575b61432c886000526018602052604060002090565b818752855286862061433e8154613bcb565b9055611a0a886000526019602052604060002090565b956000526015602052604060002090565b015493846142f9565b614388896003611a4e8b6000526015602052604060002090565b614318565b1561439457565b606460405162461bcd60e51b815260206004820152601560248201527f6e65737465642e757365722e6e6f7461637469766500000000000000000000006044820152fd5b8060005260156020526143f560ff6001604060002001541661438d565b60005260156020526144376001600160a01b03600560406000200154166040519063d3abb8a360e01b6020830152600160248301526024825261140882612b8d565b50565b1561444157565b606460405162461bcd60e51b815260206004820152601360248201527f6e65737465642e7a65726f2e61646472657373000000000000000000000000006044820152fd5b1561448c57565b606460405162461bcd60e51b815260206004820152601460248201527f6e65737465642e7461726765742e6578697374730000000000000000000000006044820152fd5b156144d757565b606460405162461bcd60e51b815260206004820152601760248201527f6e65737465642e736f757263652e6e6f744578697374730000000000000000006044820152fd5b1561452257565b606460405162461bcd60e51b815260206004820152601560248201527f6e65737465642e696e76616c69642e73656e64657200000000000000000000006044820152fd5b6040519061457382612bae565b600b82527f6d696e74436f756e7428290000000000000000000000000000000000000000006020830152565b908160209103126103ff575190565b604051906145bb82612bae565b600e82527f6d696e74732875696e74323536290000000000000000000000000000000000006020830152565b91908260809103126103ff578151916020810151916060604083015192015161128581610404565b60005b8381106146225750506000910152565b8181015183820152602001614612565b90916001600160a01b0360609316825260406020830152614662815180928160408601526020868601910161460f565b601f01601f1916010190565b1561467557565b606460405162461bcd60e51b815260206004820152601b60248201527f6e65737465642e757365722e696e76616c6964696e7374616e636500000000006044820152fd5b604051906146c682612bae565b601282527f6765744e6f64654c422875696e743235362900000000000000000000000000006020830152565b91908260809103126103ff578151916020810151916060604083015192015190565b1561471b57565b606460405162461bcd60e51b815260206004820152601560248201527f6e65737465642e696e76616c69642e706172656e7400000000000000000000006044820152fd5b1561476657565b606460405162461bcd60e51b815260206004820152601960248201527f6e65737465642e706172656e742e6e6f2e627573696e657373000000000000006044820152fd5b156147b157565b606460405162461bcd60e51b815260206004820152601760248201527f6e65737465642e7265712e616c726561647965786973740000000000000000006044820152fd5b156147fc57565b606460405162461bcd60e51b815260206004820152601460248201527f6e65737465642e7265712e6e6f746578697374730000000000000000000000006044820152fd5b1561484757565b606460405162461bcd60e51b815260206004820152601860248201527f6e65737465642e757365722e6e6f742e646574616368656400000000000000006044820152fd5b1561489257565b606460405162461bcd60e51b815260206004820152601c60248201527f6e65737465642e757365722e616c72656164792e6465746163686564000000006044820152fd5b805490811561490057600019918201916148f0838361425d565b909182549160031b1b1916905555565b634e487b7160e01b600052603160045260246000fd5b8015610875576000190190565b9061494161493b836000526019602052604060002090565b54613bcb565b916002908161495a826000526015602052604060002090565b0154906001938492835b614972575b50505050505050565b600f8085111580614c96575b15614c9057859060056149a26109cd826113a1876000526015602052604060002090565b6149cf575b50506149c06149c8926000526015602052604060002090565b015493613eb6565b9285614964565b865b82811115614aca575050506149c06149c89284600014614a6757614a19614a02876000526018602052604060002090565b614a0b89613ca0565b600052602052604060002090565b54614a3d614a35896119db856000526018602052604060002090565b918254613bd9565b9055614a53816000526019602052604060002090565b614a5e8b8254613bd9565b90555b926149a7565b614a7e614a02876000526018602052604060002090565b54614aa2614a9a896119db856000526018602052604060002090565b918254613caf565b9055614ab8816000526019602052604060002090565b614ac38b8254613caf565b9055614a61565b90919250614ae6826113a1886000526015602052604060002090565b614af08883613caf565b60409187614b32614b24855180614b106020978883019190602083019252565b03946118fd601f1996878101845283612c02565b8480825183010191016146f2565b50509290878a821580614c88575b614c775792614bc894926115ef614b6d611408946113a1614bd59b9a986000526015602052604060002090565b94601f9a8c8c5491519889957f7b058ac1000000000000000000000000000000000000000000000000000000008d8801526024870193909594919260809360a086019786526020860152604085015260608401521515910152565b8051810182019101613c5a565b908715614c2d575b808211614bfa57505050614bf1905b613eb6565b908792916149d1565b614c0390613eb6565b614c1c816119db85546000526016602052604060002090565b614c268154613bcb565b9055614bdd565b9190915b828111614c4457505050614bf190613eb6565b80614c61614c72926119db85546000526016602052604060002090565b614c6b8154613ca0565b9055614916565b614c31565b5050505050505050614bf190613eb6565b508515614b40565b50614969565b5081151561497e565b9061012080838303126103ff5781601f840112156103ff576040519281840184811067ffffffffffffffff821117612ba957604052839181019283116103ff57905b828210614cee5750505090565b8151815260209182019101614ce1565b60405190614d0b82612bae565b600f82527f66726565496e74657276616c73282900000000000000000000000000000000006020830152565b60405190614d4482612bae565b601582527f67657452616e6b5769746841676556616c7565282900000000000000000000006020830152565b60405190614d7d82612bae565b601382527f72616e6b436c617573652875696e7432353629000000000000000000000000006020830152565b908160a09103126103ff578051916020820151916040810151916080606083015192015190565b919091600392614e01614dea85546001600160a01b031690565b614df2613a4a565b90614dfb614cfe565b90616034565b9360008092819082948392849185985b600f8a1115806150e9575b156150db576005614e3e6109cd826113a1856000526015602052604060002090565b614e6b575b506002614e5d614e65926000526015602052604060002090565b015499613eb6565b98614e11565b8c614e8f614e87836113a1866000526015602052604060002090565b612a0d614d37565b8c614ea4602092838082518301019101613c5a565b829591951580615072575b1580615069575b8015615061575b614ecc575b5050505050614e43565b869e8697929394959603614fa0575b50614f5d928b6114088c612915614f07614f6399976113a1614f50986000526015602052604060002090565b93601f9a8b5460405197889563208bffb160e21b8c8801526024870193909594919260a09360c08601978652600060208701526040860152606085015260808401521515910152565b805181018201910161459f565b92613bcb565b80831015614f7e57509098905060028c614e658c3880614ec2565b80611a0a614f9b926119db85546000526016602052604060002090565b614f63565b9193929a50508a8511614ff3575b509087918c86861080801591614fca575b50159a929193614edb565b89881015915081614feb575b5080614fe3575b38614fbf565b508815614fdd565b905038614fd6565b9950955093508592506150426150346150138b546001600160a01b031690565b6040519061502c82612915888c83019190602083019252565b611905614d70565b868082518301019101614da9565b969350909691509594615058859b601f54613caf565b11969091614fae565b506000614ebd565b508a1515614eb6565b99509b50955095509a506150bb6150ad838d61502c6150988f546001600160a01b031690565b60405192830193845291928390602001612915565b8c8082518301019101614da9565b9e9350909791509695849b859e6150d482601f54613caf565b1199614eaf565b505050505050505050509050565b50801515614e1c565b9092919261510b614dea6003546001600160a01b031690565b93600091829083809481938280985b600f8a1115806153a5575b156150db576151466109cd60056113a1846000526015602052604060002090565b61516a575b6002614e5d615164926000526015602052604060002090565b9861511a565b8b8a61518b611d86614e8760056113a1876000526015602052604060002090565b8293919315615348575b8215158061533f575b8015615336575b6151b3575b5050505061514b565b938394819d8d949503615280575b5061524792614f5d926114088c6129158f6151ee60056113a1615238996000526015602052604060002090565b94601f9a8b549060405198899663208bffb160e21b60208901526024880194919260a0949197969360c0870198875260208701526040860152606085015260808401521515910152565b6020808251830101910161459f565b8083101561525e57509098905060028a8d386151aa565b80611a0a61527b926119db85546000526016602052604060002090565b615247565b9350505097508282116152d2575b50898c878b868510808015916152a9575b50159a92916151c1565b898710159150816152ca575b50806152c2575b3861529f565b5088156152bc565b9050386152b5565b93509350505061531961530a6152f06003546001600160a01b031690565b6040519061502c8261291588602083019190602083019252565b60208082518301019101614da9565b935090939150929161532e8592601f54613caf565b11933861528e565b508b15156151a5565b5089151561519e565b9750505093509750505061538461530a61536a6003546001600160a01b031690565b6040519061502c8261291587602083019190602083019252565b999350909391509291818a8d829b61539e89601f54613caf565b1197615195565b50801515615125565b6153b6615c68565b1561089f576153c433615ced565b80156154c7575b1561087a576153d8613c70565b6153e38115156154db565b6154006153f86003546001600160a01b031690565b612a0d615526565b61541460209182808251830101910161555f565b9261542983600052601a602052604060002090565b549160005b6007811061543e57505050505050565b8061544c6154ba92856155dc565b5115614bec5761545c81886155dc565b518051908482156154bf576154836154949161547b61549a958b6155fe565b9301516155ed565b61548d85896155dc565b51906155fe565b90615611565b6139256154b1886000526017602052604060002090565b614a0b84613bcb565b61542e565b505050613eb6565b50336001600160a01b0360055416146153cb565b156154e257565b606460405162461bcd60e51b815260206004820152601260248201527f6e65737465642e696e76616c69642e61676500000000000000000000000000006044820152fd5b6040519061553382612bae565b601882527f6765744261746368526f79616c7479436c6175736573282900000000000000006020830152565b6102a09081818403126103ff5782601f820112156103ff57604080519361558585612be6565b84938301928184116103ff57935b8385106155a257505050505090565b6060858303126103ff5782516060916155ba82612b8d565b8651825260209182880151838201528588015186820152815201940193615593565b9060078110156142755760051b0190565b908160640291606483040361087557565b8181029291811591840414171561087557565b811561561b570490565b634e487b7160e01b600052601260045260246000fd5b6040519061563e82612bae565b600682527f73746f72282900000000000000000000000000000000000000000000000000006020830152565b6040519061010080830183811067ffffffffffffffff821117612ba957604052368337565b601f5480600052601a60205260406000205491820180921161087557600052601a602052604060002055565b601f5480600052601b60205260406000205491820180921161087557600052601b602052604060002055565b601f5480600052601c60205260406000205491820180921161087557600052601c602052604060002055565b601f5480600052601d602052604060002054906001820180921161087557600052601d602052604060002055565b6040519061574e82612bae565b601482527f676574627573696e6573732875696e74323536290000000000000000000000006020830152565b6040519061578782612bae565b601582527f67657477697468647261776e2875696e743235362900000000000000000000006020830152565b604051906157c082612bae565b601382527f6765746a6f696e696e672875696e7432353629000000000000000000000000006020830152565b604051906157f982612bae565b601282527f676574746f747174792875696e743235362900000000000000000000000000006020830152565b6040519061583282612bae565b601d82527f67657472616e6b436f756e742875696e743235362c75696e74323536290000006020830152565b6040519061586b82612bae565b600f82527f6765744e6f646573436f756e74282900000000000000000000000000000000006020830152565b604051906158a482612bae565b601082527f6765744e6f64652875696e7432353629000000000000000000000000000000006020830152565b519081151582036103ff57565b908160e09103126103ff5780519160208201516158f981610404565b91604081015191606082015161590e81610404565b91608081015161591d81610404565b9160c061592c60a084016158d0565b92015190565b908160209103126103ff575161128581610404565b6040513d6000823e3d90fd5b615c386101c0613c8e9261598d61597182516001600160a01b031690565b6001600160a01b03166001600160a01b03196002541617600255565b6159c06159a460208301516001600160a01b031690565b6001600160a01b03166001600160a01b03196003541617600355565b6159f36159d760408301516001600160a01b031690565b6001600160a01b03166001600160a01b03196004541617600455565b615a26615a0a60608301516001600160a01b031690565b6001600160a01b03166001600160a01b03196005541617600555565b615a59615a3d60808301516001600160a01b031690565b6001600160a01b03166001600160a01b03196006541617600655565b615a8c615a7060a08301516001600160a01b031690565b6001600160a01b03166001600160a01b03196007541617600755565b615abf615aa360c08301516001600160a01b031690565b6001600160a01b03166001600160a01b03196008541617600855565b615af2615ad660e08301516001600160a01b031690565b6001600160a01b03166001600160a01b03196009541617600955565b615b26615b0a6101008301516001600160a01b031690565b6001600160a01b03166001600160a01b0319600a541617600a55565b615b5a615b3e6101208301516001600160a01b031690565b6001600160a01b03166001600160a01b0319600b541617600b55565b615b8e615b726101408301516001600160a01b031690565b6001600160a01b03166001600160a01b0319600c541617600c55565b615bc2615ba66101608301516001600160a01b031690565b6001600160a01b03166001600160a01b0319600d541617600d55565b615bf6615bda6101808301516001600160a01b031690565b6001600160a01b03166001600160a01b0319600e541617600e55565b615c2a615c0e6101a08301516001600160a01b031690565b6001600160a01b03166001600160a01b0319600f541617600f55565b01516001600160a01b031690565b6001600160a01b03166001600160a01b03196010541617601055565b908160209103126103ff57611285906158d0565b615cc36001600160a01b0360025416604051615c8381612bae565b600881527f6973536166652829000000000000000000000000000000000000000000000000602082015260405191615cba83612bca565b60008352615f2a565b9080615ce2575b156106ea578060208061128593518301019101615c54565b506020815114615cca565b615d506001600160a01b038060025416604051916020941684830152838252615d1582612bae565b60405190615d2282612bae565b601582527f697353656375726542617365286164647265737329000000000000000000000085830152615f2a565b9080615d6d575b156106ea57816112859282518301019101615c54565b5081815114615d57565b6112856001600160a01b0360035416604051615d9281612bae565b600681527f69416765282900000000000000000000000000000000000000000000000000006020820152604051916107b583612bca565b3d15615df4573d90615dda82613a1b565b91615de86040519384612c02565b82523d6000602084013e565b606090565b90615e0391615e38565b9060009015615e10575090565b6040519150615e1e82612bca565b815290565b90615e0391615eae565b90615e039291615f2a565b90600091823b15615e9d57906001600160e01b03198260208594519101201690615e8c6024604051809360208201958652615e7c815180926020868601910161460f565b8101036004810184520182612c02565b5190825afa615e99615dc9565b9091565b5050908160405190615e1e82612bca565b73c7aff2414b0436ddf2d5d72e582feb8930af67f1803b15615f11576000926001600160e01b03198360208695519101201690615f056024604051809360208201958652615e7c815180926020868601910161460f565b51915afa615e99615dc9565b505050600090604051615f2381612bca565b6000815290565b803b15615f11576000926001600160e01b03198360208695519101201690615f056024604051809360208201958652615e7c815180926020868601910161460f565b9291615f7a91600094615f2a565b9080615fb2575b615f885750565b9091506020818051810103126103ff5760206001600160a01b03910151615fae81610404565b1690565b506020815114615f81565b9291615fcb91600094615f2a565b9080615fee575b615fd95750565b61128591925060208082518301019101615c54565b506020815114615fd2565b6000929161600691615e38565b9080616029575b6160145750565b6112859192506020808251830101910161459f565b50602081511461600d565b929161600691600094615f2a565b90602082519201516001600160e01b031990818116936004811061606557505050565b60040360031b82901b16169150565b6001600160a01b0381161561610f57600080918351908260208601915af19061609b615dc9565b91156160a5575090565b805160009190600411616109576160bc9150616042565b8151156160cc5750805190602001fd5b6040517f21c09d340000000000000000000000000000000000000000000000000000000081526001600160e01b0319919091166004820152602490fd5b506160bc565b60046040517fe6c4247b000000000000000000000000000000000000000000000000000000008152fdfea26469706673582212206292443a742b4caff49bd427b021603c9073a8601882c635c0dc31d81277020464736f6c63430008140033","linkReferences":{}},"methodIdentifiers":{"Burn(uint256)":"b90306ad","UserToId(address)":"629d671e","UserToInst(address)":"45145fd7","_ageNow()":"44668f23","_delegatorCount()":"a1f7f539","_getImplementation(address)":"c54e44b0","_isDelegatorNode(address)":"e01ad5fd","_isSafe()":"e0a9bc2b","_isSecureBase(address)":"af484526","_isSigner(address)":"1f185d16","addBusiness(uint256,address,uint256,uint256,uint256,uint256)":"dcb3fc4a","claimIncome(uint256,uint256)":"6a811244","closemdform(uint256)":"1157a849","compileRoyality(uint256,uint256[7])":"7818cdd7","createmdform(uint256,uint256)":"6b90905b","getBalance()":"12065fe0","getBatchRankCounts(uint256)":"a89d693b","getDownlineCountByLevel(uint256,uint256)":"d1e0bbc6","getEffectiveRank(address)":"1f5fa838","getHexbase()":"3b9b7955","getMoveDownline(uint256)":"13508e37","getNode(uint256)":"4f0f4aa9","getNodeChild(uint256,uint256)":"896c354a","getNodeDirectsCount(uint256)":"42cc9d57","getNodeInstStor(uint256)":"2bbae52e","getNodeParent(address)":"1bb49f02","getNodeParentId(uint256)":"849c22ad","getNodeParentwithId(address)":"4d1ec452","getNodesCount()":"61ea7208","getRoyalityAmountBatch(uint256)":"3a7b55b8","getTeamSize(uint256)":"033eeffb","getTotalTeamSizeWithLevel(address,uint256)":"fd38093b","getUserIdToInst(uint256)":"44585097","getUserIdToStor(uint256)":"2fefc0bf","getUserToInst(address)":"0e5fd00b","getUserToStor(address)":"76fe6c45","getbusiness(uint256)":"eb95c662","getjoining(uint256)":"98b3f215","getrankCount(uint256,uint256)":"80f85e33","gettotqty(uint256)":"c43792e3","getwithdrawn(uint256)":"f3ca7124","importBusiness(uint256,uint256)":"2a687c87","importJoining(uint256,uint256)":"32ff4eab","importNode(uint256)":"3e38e3da","importOld(uint256,uint256)":"c871372b","importRankNOther(uint256,uint256)":"f047bdeb","importWithdrawal(uint256,uint256)":"95f72f49","isNode(uint256)":"419cb27b","isStop(address)":"cf359165","isUserExists(address)":"509222cd","join(address,address)":"b1c49079","joinImport(address,address)":"50db85d1","moveDownline(uint256)":"65d2fbd3","nodes(uint256)":"1c53c280","owner()":"8da5cb5b","setDefaultRankCount(uint256)":"b366335e","syncBaseAddr()":"339459a6","systemAge()":"fdc10bc9","tokenImport(uint256,uint256)":"6fb412ab","updateUsers(address,address)":"3baee0ea"},"id":60}