{"abi":[{"type":"constructor","inputs":[{"name":"_hex","type":"address","internalType":"address"},{"name":"_parent","type":"address","internalType":"address"}],"stateMutability":"nonpayable"},{"type":"fallback","stateMutability":"payable"},{"type":"receive","stateMutability":"payable"},{"type":"function","name":"Burn","inputs":[{"name":"amount","type":"uint256","internalType":"uint256"}],"outputs":[],"stateMutability":"nonpayable"},{"type":"function","name":"Txn","inputs":[{"name":"paramAdd","type":"address","internalType":"address"},{"name":"_id_maxint","type":"uint256","internalType":"uint256"},{"name":"_qty","type":"uint256","internalType":"uint256"},{"name":"_type","type":"uint256","internalType":"uint256"}],"outputs":[],"stateMutability":"payable"},{"type":"function","name":"TxnSys","inputs":[{"name":"paramAdd","type":"address","internalType":"address"},{"name":"_id_maxint","type":"uint256","internalType":"uint256"},{"name":"_qty","type":"uint256","internalType":"uint256"},{"name":"_amt","type":"uint256","internalType":"uint256"}],"outputs":[],"stateMutability":"payable"},{"type":"function","name":"_delegatorCount","inputs":[],"outputs":[{"name":"","type":"uint256","internalType":"uint256"}],"stateMutability":"view"},{"type":"function","name":"_getImplementation","inputs":[{"name":"clone","type":"address","internalType":"address"}],"outputs":[{"name":"impl","type":"address","internalType":"address"}],"stateMutability":"view"},{"type":"function","name":"_isDelegatorNode","inputs":[{"name":"sender","type":"address","internalType":"address"}],"outputs":[{"name":"","type":"bool","internalType":"bool"}],"stateMutability":"view"},{"type":"function","name":"_isSafe","inputs":[],"outputs":[{"name":"","type":"bool","internalType":"bool"}],"stateMutability":"view"},{"type":"function","name":"_isSecureBase","inputs":[{"name":"sender","type":"address","internalType":"address"}],"outputs":[{"name":"","type":"bool","internalType":"bool"}],"stateMutability":"view"},{"type":"function","name":"_isSigner","inputs":[{"name":"sender","type":"address","internalType":"address"}],"outputs":[{"name":"","type":"bool","internalType":"bool"}],"stateMutability":"view"},{"type":"function","name":"forceTransfer","inputs":[{"name":"_inst","type":"address","internalType":"address"}],"outputs":[],"stateMutability":"nonpayable"},{"type":"function","name":"getBalance","inputs":[],"outputs":[{"name":"","type":"uint256","internalType":"uint256"}],"stateMutability":"view"},{"type":"function","name":"getHexbase","inputs":[],"outputs":[{"name":"","type":"address","internalType":"address"}],"stateMutability":"view"},{"type":"function","name":"id","inputs":[],"outputs":[{"name":"","type":"uint256","internalType":"uint256"}],"stateMutability":"view"},{"type":"function","name":"initialize","inputs":[],"outputs":[],"stateMutability":"payable"},{"type":"function","name":"name","inputs":[],"outputs":[{"name":"","type":"string","internalType":"string"}],"stateMutability":"view"},{"type":"function","name":"owner","inputs":[],"outputs":[{"name":"","type":"address","internalType":"address"}],"stateMutability":"view"},{"type":"function","name":"parent","inputs":[],"outputs":[{"name":"","type":"address","internalType":"address"}],"stateMutability":"view"},{"type":"function","name":"setName","inputs":[{"name":"_name","type":"string","internalType":"string"}],"outputs":[],"stateMutability":"nonpayable"},{"type":"function","name":"setParent","inputs":[{"name":"newparent","type":"address","internalType":"address"}],"outputs":[],"stateMutability":"nonpayable"},{"type":"function","name":"stor","inputs":[],"outputs":[{"name":"","type":"address","internalType":"address"}],"stateMutability":"view"},{"type":"function","name":"syncBaseAddr","inputs":[],"outputs":[],"stateMutability":"nonpayable"},{"type":"function","name":"systemAge","inputs":[],"outputs":[{"name":"","type":"uint256","internalType":"uint256"}],"stateMutability":"view"},{"type":"event","name":"EthBurned","inputs":[{"name":"sender","type":"address","indexed":true,"internalType":"address"},{"name":"amount","type":"uint256","indexed":false,"internalType":"uint256"}],"anonymous":false},{"type":"event","name":"EthTransferred","inputs":[{"name":"to","type":"address","indexed":true,"internalType":"address"},{"name":"amount","type":"uint256","indexed":false,"internalType":"uint256"}],"anonymous":false},{"type":"event","name":"HexBaseUpdated","inputs":[{"name":"previousHexBase","type":"address","indexed":true,"internalType":"address"},{"name":"newHexBase","type":"address","indexed":true,"internalType":"address"}],"anonymous":false},{"type":"event","name":"OwnerUpdated","inputs":[{"name":"previousOwner","type":"address","indexed":true,"internalType":"address"},{"name":"newOwner","type":"address","indexed":true,"internalType":"address"}],"anonymous":false},{"type":"event","name":"TVLClaimTxnLog","inputs":[{"name":"to","type":"address","indexed":false,"internalType":"address"},{"name":"_value","type":"uint256","indexed":false,"internalType":"uint256"},{"name":"_time","type":"uint256","indexed":false,"internalType":"uint256"},{"name":"prime","type":"bool","indexed":false,"internalType":"bool"}],"anonymous":false},{"type":"error","name":"CallFailed","inputs":[]},{"type":"error","name":"InvalidAddress","inputs":[]},{"type":"error","name":"InvalidState","inputs":[]},{"type":"error","name":"NotAuthorized","inputs":[]},{"type":"error","name":"NotSafe","inputs":[]},{"type":"error","name":"ReentrancyGuardReentrantCall","inputs":[]},{"type":"error","name":"TargetCallFailed","inputs":[{"name":"selector","type":"bytes4","internalType":"bytes4"}]}],"bytecode":{"object":"0x608034620000c157601f620024d138819003918201601f19168301916001600160401b03831184841017620000c6578084926040948552833981010312620000c1576200005a60206200005283620000dc565b9201620000dc565b6001600160a01b0391821691908215620000af5760018060a01b031992836001541690846000541617600055600160115533908433161717600155169060125416176012556040516123df9081620000f28239f35b60405163e6c4247b60e01b8152600490fd5b600080fd5b634e487b7160e01b600052604160045260246000fd5b51906001600160a01b0382168203620000c15756fe60806040526004361015610018575b361561001657005b005b60003560e01c80630399c93c1461017857806306fdde031461017357806312065fe01461016e5780631499c592146101695780631f185d1614610164578063339459a61461015f5780633b9b79551461015a57806360f96a8f146101555780638129fc1c146101505780638da5cb5b1461014b578063a1f7f53914610146578063a3e884b014610141578063af4845261461013c578063af640d0f14610137578063b28175c414610132578063b90306ad1461012d578063c107930a14610128578063c47f002714610123578063c54e44b01461011e578063e01ad5fd14610119578063e0a9bc2b146101145763fdc10bc90361000e576110ac565b611091565b610fc6565b610f40565b610ecd565b610d9b565b610c79565b610c52565b610c34565b610c03565b610a35565b610999565b610972565b610677565b610650565b610629565b610610565b610529565b610491565b610475565b610390565b610193565b6001600160a01b0381160361018e57565b600080fd5b3461018e57602036600319011261018e576004356101b08161017d565b6101b8611fc1565b1561024b576101c633612046565b8015610237575b1561020d57610206906101e360155415156111cd565b6101eb611110565b6101ff6001600160a01b0382161515611574565b4790612100565b6001601155005b60046040517fea8e4eb5000000000000000000000000000000000000000000000000000000008152fd5b50336001600160a01b0360055416146101cd565b60046040517f9dc4246e000000000000000000000000000000000000000000000000000000008152fd5b90600182811c921680156102a5575b602083101461028f57565b634e487b7160e01b600052602260045260246000fd5b91607f1691610284565b634e487b7160e01b600052604160045260246000fd5b6040810190811067ffffffffffffffff8211176102e157604052565b6102af565b6020810190811067ffffffffffffffff8211176102e157604052565b610100810190811067ffffffffffffffff8211176102e157604052565b90601f8019910116810190811067ffffffffffffffff8211176102e157604052565b60005b8381106103545750506000910152565b8181015183820152602001610344565b604091602082526103848151809281602086015260208686019101610341565b601f01601f1916010190565b3461018e576000806003193601126104725760405190806014546103b381610275565b8085529160019180831690811561044857506001146103ed575b6103e9856103dd8187038261031f565b60405191829182610364565b0390f35b9250601483527fce6d7b5282bd9a3661ae061feed1dbda4e52ab073b1f9285be6e155d9c38d4ec5b8284106104305750505081016020016103dd826103e96103cd565b80546020858701810191909152909301928101610415565b8695506103e9969350602092506103dd94915060ff191682840152151560051b82010192936103cd565b80fd5b3461018e57600036600319011261018e57602047604051908152f35b3461018e57602036600319011261018e576004356104ae8161017d565b6104b6611fc1565b1561024b576104c433612046565b8015610515575b1561020d576001600160a01b03906104e660155415156111cd565b6104ee611110565b166104fa811515611574565b6001600160a01b031960125416176012556001601155600080f35b50336001600160a01b0360055416146104cb565b3461018e5760208060031936011261018e576105a860043561054a8161017d565b6001600160a01b0380600254169060405192168483015283825261056d826102c5565b6040519061057a826102c5565b601182527f69735369676e65722861646472657373290000000000000000000000000000008583015261218a565b919080610606575b156105dc5781816105ca926103e994518301019101611fa9565b60405190151581529081906020820190565b60046040517f3204506f000000000000000000000000000000000000000000000000000000008152fd5b50808251146105b0565b3461018e57600036600319011261018e576100166118e3565b3461018e57600036600319011261018e5760206001600160a01b0360005416604051908152f35b3461018e57600036600319011261018e5760206001600160a01b0360125416604051908152f35b600036600319011261018e5761068b611110565b60155461092e5761069a6118e3565b600a546001600160a01b03166001546001600160a01b031690604051916106fc602093806106da848783019190916001600160a01b036020820193169052565b03936106ee601f199586810184528361031f565b6106f661114b565b9061221d565b906001600160a01b0382161561087b5750916107cb7f4ef260a9000000000000000000000000000000000000000000000000000000009261081f6107fe61081a6107de6107d07f3baee0ea0000000000000000000000000000000000000000000000000000000061086f9a6107cb8a6107bf6107806004546001600160a01b031690565b936107936001546001600160a01b031690565b604051938401969096526001600160a01b03908116602484015290941660448201529283906064820190565b0389810184528361031f565b6122f6565b8780825183010191016111a3565b939091936001600160a01b03166001600160a01b03196012541617601255565b6001600160a01b03166001600160a01b03196013541617601355565b601555565b600a546001600160a01b0316926108636108416001546001600160a01b031690565b604051968793840152602483019190916001600160a01b036020820193169052565b0390810184528361031f565b505b6100166001601155565b61090a9150926108fd6109299461081a946107cb6108a16004546001600160a01b031690565b916108b46012546001600160a01b031690565b6040517fb1c4907900000000000000000000000000000000000000000000000000000000888201526001600160a01b039182166024820152941660448501528360648101610863565b8051810182019101611184565b9190916001600160a01b03166001600160a01b03196013541617601355565b610871565b606460405162461bcd60e51b815260206004820152601660248201527f6d652e616c72656164792e696e697469616c697a6564000000000000000000006044820152fd5b3461018e57600036600319011261018e5760206001600160a01b0360015416604051908152f35b3461018e57600036600319011261018e576020610a066001600160a01b03600654166040516109c7816102c5565b601381527f67657464656c656761746f72436f756e7428290000000000000000000000000084820152604051916109fd836102e6565b6000835261226e565b604051908152f35b608090600319011261018e57600435610a268161017d565b90602435906044359060643590565b610a3e36610a0e565b92610a4f60159392935415156111cd565b610a57611110565b60018403610a69576108719350611451565b50916007915014610a7b575b50610871565b610ae7610af691610a946004546001600160a01b031690565b6015546040517f6a811244000000000000000000000000000000000000000000000000000000006020820152602481019190915260448101929092526107cb82606481015b03601f19810184528361031f565b602080825183010191016113e7565b9080471015610b81575b81471015610b0f575b50610a75565b610b4b7f992e981f1f6d8cb3a32ce3b31107393c58fbd9a9052cb415a19d578833bf80d692610b46600c546001600160a01b031690565b612100565b600c54604080516001600160a01b0390921682526020820192909252429181019190915260006060820152608090a13880610b09565b610b9781610b466001546001600160a01b031690565b7f992e981f1f6d8cb3a32ce3b31107393c58fbd9a9052cb415a19d578833bf80d6610bfb610bcd6001546001600160a01b031690565b604080516001600160a01b039092168252602082018590524290820152600060608201529081906080820190565b0390a1610b00565b3461018e57602036600319011261018e576020610c2a600435610c258161017d565b612046565b6040519015158152f35b3461018e57600036600319011261018e576020601554604051908152f35b3461018e57600036600319011261018e5760206001600160a01b0360135416604051908152f35b3461018e57602036600319011261018e576004356001600160a01b0360055416330361020d5760009060046020610cc6610cba85546001600160a01b031690565b6001600160a01b031690565b604051928380927f46f991ac0000000000000000000000000000000000000000000000000000000082525afa8015610d965783808481949382948391610d68575b505af1610d126120d0565b50156105dc577fcdcc745fe377b103b45fa0cec23ae3ef93d6fc6a84a01f0d18c40b354dd1d5d8610d62610d51610cba600b546001600160a01b031690565b604051938452929081906020820190565b0390a280f35b610d89915060203d8111610d8f575b610d81818361031f565b8101906115bf565b38610d07565b503d610d77565b6115d4565b610da436610a0e565b610db56015949392945415156111cd565b610dbd611fc1565b1561024b57610dcb33612046565b8015610e7c575b1561020d57610ddf611110565b610de7611fc1565b1561024b57610df533612046565b8015610e68575b1561020d5761086f93610e16610e1185612046565b61139c565b6001600160a01b03928360045416936015549560405196636e59fe2560e11b602089015260248801521660448601526064850152608484015260a4830152600060c483015260c482526107cb82610302565b50336001600160a01b036005541614610dfc565b50336001600160a01b036005541614610dd2565b604051906101e0820182811067ffffffffffffffff8211176102e157604052565b67ffffffffffffffff81116102e157601f01601f191660200190565b3461018e57602036600319011261018e5760043567ffffffffffffffff811161018e573660238201121561018e578060040135610f0981610eb1565b90610f17604051928361031f565b808252366024828501011161018e57602081600092602461001696018386013783010152611218565b3461018e57602036600319011261018e57600435610f5d8161017d565b803b6000610f6a82610eb1565b92610f78604051948561031f565b82845260208401903c602d815110610f9c57602a602091015160601c604051908152f35b60046040517fbaf3f0f7000000000000000000000000000000000000000000000000000000008152fd5b3461018e5760208060031936011261018e576103e99060043590610fe98261017d565b61104d6001600160a01b0392836006541693604051911683820152828152611010816102c5565b60405161101c816102c5565b601881527f697364656c656761746f724e6f646528616464726573732900000000000000008482015260009461218a565b919080611087575b61106e575b505060405190151581529081906020820190565b61108092508082518301019101611fa9565b388061105a565b5080825114611055565b3461018e57600036600319011261018e576020610c2a611fc1565b3461018e57600036600319011261018e576020610a066001600160a01b03600354166040516110da816102c5565b600681527f694167652829000000000000000000000000000000000000000000000000000084820152604051916109fd836102e6565b600260115414611121576002601155565b60046040517f3ee5aeb5000000000000000000000000000000000000000000000000000000008152fd5b60405190611158826102c5565b601e82527f7265736f6c76655472616e7366657254617267657428616464726573732900006020830152565b919082604091031261018e57602082519201516111a08161017d565b90565b9081606091031261018e57805191604060208301516111c18161017d565b9201516111a08161017d565b156111d457565b606460405162461bcd60e51b815260206004820152600f60248201527f6d652e696e76616c69642e696e697400000000000000000000000000000000006044820152fd5b61122560155415156111cd565b61122d611fc1565b1561024b576001906001600160a01b03825416330361020d5780519067ffffffffffffffff82116102e15761126c82611267601454610275565b61132b565b60209081601f84116001146112a9575092829391839260009461129e575b50501b916000199060031b1c191617601455565b01519250388061128a565b6014600052919083601f1981167fce6d7b5282bd9a3661ae061feed1dbda4e52ab073b1f9285be6e155d9c38d4ec946000905b8883831061131157505050106112f8575b505050811b01601455565b015160001960f88460031b161c191690553880806112ed565b8587015188559096019594850194879350908101906112dc565b601f8111611337575050565b600090601482527fce6d7b5282bd9a3661ae061feed1dbda4e52ab073b1f9285be6e155d9c38d4ec906020601f850160051c83019410611392575b601f0160051c01915b82811061138757505050565b81815560010161137b565b9092508290611372565b156113a357565b606460405162461bcd60e51b815260206004820152601360248201527f6d652e756e7365637572652e4f524331313535000000000000000000000000006044820152fd5b919082604091031261018e576020825192015190565b634e487b7160e01b600052601160045260246000fd5b9060158202918083046015149015171561142957565b6113fd565b90602d820291808304602d149015171561142957565b9190820391821161142957565b9161145e610e1184612046565b3461146857505050565b6107cb6115719361150a61148561147e34611413565b6064900490565b6114f961149c6114943461142e565b6103e8900490565b6114e86114ab6114943461142e565b936114d76114c6866114c1866114c18634611444565b611444565b600b546001600160a01b0316612100565b600d546001600160a01b0316612100565b600e546001600160a01b0316612100565b600f546001600160a01b0316612100565b610ad961151f6004546001600160a01b031690565b9360155490604051968794636e59fe2560e11b6020870152349360248701919360a0936001600160a01b036001969897939860c086019986521660208501526040840152606083015260808201520152565b50565b1561157b57565b606460405162461bcd60e51b815260206004820152600f60248201527f6d652e7a65726f2e6164647265737300000000000000000000000000000000006044820152fd5b9081602091031261018e57516111a08161017d565b6040513d6000823e3d90fd5b6118c56101c06118e19261161a6115fe82516001600160a01b031690565b6001600160a01b03166001600160a01b03196002541617600255565b61164d61163160208301516001600160a01b031690565b6001600160a01b03166001600160a01b03196003541617600355565b61168061166460408301516001600160a01b031690565b6001600160a01b03166001600160a01b03196004541617600455565b6116b361169760608301516001600160a01b031690565b6001600160a01b03166001600160a01b03196005541617600555565b6116e66116ca60808301516001600160a01b031690565b6001600160a01b03166001600160a01b03196006541617600655565b6117196116fd60a08301516001600160a01b031690565b6001600160a01b03166001600160a01b03196007541617600755565b61174c61173060c08301516001600160a01b031690565b6001600160a01b03166001600160a01b03196008541617600855565b61177f61176360e08301516001600160a01b031690565b6001600160a01b03166001600160a01b03196009541617600955565b6117b36117976101008301516001600160a01b031690565b6001600160a01b03166001600160a01b0319600a541617600a55565b6117e76117cb6101208301516001600160a01b031690565b6001600160a01b03166001600160a01b0319600b541617600b55565b61181b6117ff6101408301516001600160a01b031690565b6001600160a01b03166001600160a01b0319600c541617600c55565b61184f6118336101608301516001600160a01b031690565b6001600160a01b03166001600160a01b0319600d541617600d55565b6118836118676101808301516001600160a01b031690565b6001600160a01b03166001600160a01b0319600e541617600e55565b6118b761189b6101a08301516001600160a01b031690565b6001600160a01b03166001600160a01b0319600f541617600f55565b01516001600160a01b031690565b6001600160a01b03166001600160a01b03196010541617601055565b565b6118f8610cba6000546001600160a01b031690565b604051907f97f3815a000000000000000000000000000000000000000000000000000000008252602082600481845afa918215610d9657600092611f88575b50604051917fcfbffe53000000000000000000000000000000000000000000000000000000008352602083600481855afa928315610d9657600093611f67575b50604051907fab6e844f000000000000000000000000000000000000000000000000000000008252602082600481865afa918215610d9657600092611f46575b50604051917f14d8d024000000000000000000000000000000000000000000000000000000008352602083600481875afa928315610d9657600093611f25575b50604051927fd1f956b1000000000000000000000000000000000000000000000000000000008452602084600481885afa938415610d9657600094611f04575b50604051937fe61dfd58000000000000000000000000000000000000000000000000000000008552602085600481895afa948515610d9657600095611ee3575b506040517fe09d394d0000000000000000000000000000000000000000000000000000000081526020816004818a5afa908115610d9657600091611ec4575b506040517f52b06d640000000000000000000000000000000000000000000000000000000081526020816004818b5afa908115610d9657600091611ea5575b506040517f013cf08b00000000000000000000000000000000000000000000000000000000815260006004820152916020836024818c5afa928315610d9657600093611e84575b50604051977f5e09dbe70000000000000000000000000000000000000000000000000000000089526020896004818d5afa948515610d9657600499600096611e63575b5060208b6040519b8c80927faa0ddc160000000000000000000000000000000000000000000000000000000082525afa968715610d965760049a600098611e42575b5060208c6040519c8d80927f640274270000000000000000000000000000000000000000000000000000000082525afa988915610d965760049b60009a611e21575b5060208d6040519d8e80927f30125cf50000000000000000000000000000000000000000000000000000000082525afa9a8b15610d96578d60049d60009d611dff575b506020906040519e8f80927f24768d910000000000000000000000000000000000000000000000000000000082525afa9c8d15610d965760009d611dde575b50604051809e81907f9dc969a80000000000000000000000000000000000000000000000000000000082525a92600491602094fa9d8e15610d965760009e611dbd575b50611cd1610e90565b6001600160a01b0390911681529d8e906001600160a01b0316602082015260400190611d0591906001600160a01b03169052565b6001600160a01b031660608d01526001600160a01b031660808c01526001600160a01b031660a08b01526001600160a01b031660c08a01526001600160a01b031660e08901526001600160a01b03166101008801526001600160a01b03166101208701526001600160a01b03166101408601526001600160a01b03166101608501526001600160a01b03166101808401526001600160a01b03166101a08301526001600160a01b03166101c08201526118e1906115e0565b611dd7919e5060203d602011610d8f57610d81818361031f565b9c38611cc8565b611df8919d5060203d602011610d8f57610d81818361031f565b9b38611c85565b6020919d50611e1a90823d8411610d8f57610d81818361031f565b9c90611c46565b611e3b919a5060203d602011610d8f57610d81818361031f565b9838611c03565b611e5c91985060203d602011610d8f57610d81818361031f565b9638611bc1565b611e7d91965060203d602011610d8f57610d81818361031f565b9438611b7f565b611e9e91935060203d602011610d8f57610d81818361031f565b9138611b3c565b611ebe915060203d602011610d8f57610d81818361031f565b38611af5565b611edd915060203d602011610d8f57610d81818361031f565b38611ab6565b611efd91955060203d602011610d8f57610d81818361031f565b9338611a77565b611f1e91945060203d602011610d8f57610d81818361031f565b9238611a37565b611f3f91935060203d602011610d8f57610d81818361031f565b91386119f7565b611f6091925060203d602011610d8f57610d81818361031f565b90386119b7565b611f8191935060203d602011610d8f57610d81818361031f565b9138611977565b611fa291925060203d602011610d8f57610d81818361031f565b9038611937565b9081602091031261018e5751801515810361018e5790565b61201c6001600160a01b0360025416604051611fdc816102c5565b600881527f6973536166652829000000000000000000000000000000000000000000000000602082015260405191612013836102e6565b6000835261218a565b908061203b575b156105dc57806020806111a093518301019101611fa9565b506020815114612023565b6120a96001600160a01b03806002541660405191602094168483015283825261206e826102c5565b6040519061207b826102c5565b601582527f69735365637572654261736528616464726573732900000000000000000000008583015261218a565b90806120c6575b156105dc57816111a09282518301019101611fa9565b50818151146120b0565b3d156120fb573d906120e182610eb1565b916120ef604051938461031f565b82523d6000602084013e565b606090565b908015612186576001600160a01b03821691821561215c57600080808481945af16121296120d0565b50156105dc5760207fcec1f18c3ab8ddaaa107a1591e3c369667eec613626611a8deaedef43069fcdd91604051908152a2565b60046040517fe6c4247b000000000000000000000000000000000000000000000000000000008152fd5b5050565b803b15612204576000927fffffffff0000000000000000000000000000000000000000000000000000000083602086955191012016906121f460246040518093602082019586526121e48151809260208686019101610341565b810103600481018452018261031f565b51915afa6122006120d0565b9091565b505050600090604051612216816102e6565b6000815290565b929161222b9160009461218a565b9080612263575b6122395750565b90915060208180518101031261018e5760206001600160a01b0391015161225f8161017d565b1690565b506020815114612232565b929161227c9160009461218a565b90806122a1575b61228a5750565b90915060208180518101031261018e576020015190565b506020815114612283565b90602082519201517fffffffff000000000000000000000000000000000000000000000000000000009081811693600481106122e757505050565b60040360031b82901b16169150565b6001600160a01b0381161561215c57600080918351908260208601915af19061231d6120d0565b9115612327575090565b8051600091906004116123a35761233e91506122ac565b81511561234e5750805190602001fd5b6040517f21c09d340000000000000000000000000000000000000000000000000000000081527fffffffff00000000000000000000000000000000000000000000000000000000919091166004820152602490fd5b5061233e56fea2646970667358221220be442ae0a0eb5fc80ba2308b6afc54a331a1be9de3bd106cd6daa9b4f012754364736f6c63430008140033","linkReferences":{}},"methodIdentifiers":{"Burn(uint256)":"b90306ad","Txn(address,uint256,uint256,uint256)":"a3e884b0","TxnSys(address,uint256,uint256,uint256)":"c107930a","_delegatorCount()":"a1f7f539","_getImplementation(address)":"c54e44b0","_isDelegatorNode(address)":"e01ad5fd","_isSafe()":"e0a9bc2b","_isSecureBase(address)":"af484526","_isSigner(address)":"1f185d16","forceTransfer(address)":"0399c93c","getBalance()":"12065fe0","getHexbase()":"3b9b7955","id()":"af640d0f","initialize()":"8129fc1c","name()":"06fdde03","owner()":"8da5cb5b","parent()":"60f96a8f","setName(string)":"c47f0027","setParent(address)":"1499c592","stor()":"b28175c4","syncBaseAddr()":"339459a6","systemAge()":"fdc10bc9"},"id":57}