{"abi":[{"type":"constructor","inputs":[{"name":"_hex","type":"address","internalType":"address"},{"name":"_parent","type":"address","internalType":"address"}],"stateMutability":"nonpayable"},{"type":"fallback","stateMutability":"payable"},{"type":"receive","stateMutability":"payable"},{"type":"function","name":"Burn","inputs":[{"name":"amount","type":"uint256","internalType":"uint256"}],"outputs":[],"stateMutability":"nonpayable"},{"type":"function","name":"Txn","inputs":[{"name":"paramAdd","type":"address","internalType":"address"},{"name":"_id_maxint","type":"uint256","internalType":"uint256"},{"name":"_qty","type":"uint256","internalType":"uint256"},{"name":"_type","type":"uint256","internalType":"uint256"}],"outputs":[],"stateMutability":"payable"},{"type":"function","name":"TxnSys","inputs":[{"name":"paramAdd","type":"address","internalType":"address"},{"name":"_id_maxint","type":"uint256","internalType":"uint256"},{"name":"_qty","type":"uint256","internalType":"uint256"},{"name":"_amt","type":"uint256","internalType":"uint256"}],"outputs":[],"stateMutability":"payable"},{"type":"function","name":"_delegatorCount","inputs":[],"outputs":[{"name":"","type":"uint256","internalType":"uint256"}],"stateMutability":"view"},{"type":"function","name":"_getImplementation","inputs":[{"name":"clone","type":"address","internalType":"address"}],"outputs":[{"name":"impl","type":"address","internalType":"address"}],"stateMutability":"view"},{"type":"function","name":"_isDelegatorNode","inputs":[{"name":"sender","type":"address","internalType":"address"}],"outputs":[{"name":"","type":"bool","internalType":"bool"}],"stateMutability":"view"},{"type":"function","name":"_isSafe","inputs":[],"outputs":[{"name":"","type":"bool","internalType":"bool"}],"stateMutability":"view"},{"type":"function","name":"_isSecureBase","inputs":[{"name":"sender","type":"address","internalType":"address"}],"outputs":[{"name":"","type":"bool","internalType":"bool"}],"stateMutability":"view"},{"type":"function","name":"_isSigner","inputs":[{"name":"sender","type":"address","internalType":"address"}],"outputs":[{"name":"","type":"bool","internalType":"bool"}],"stateMutability":"view"},{"type":"function","name":"forceTransfer","inputs":[{"name":"_inst","type":"address","internalType":"address"}],"outputs":[],"stateMutability":"nonpayable"},{"type":"function","name":"getBalance","inputs":[],"outputs":[{"name":"","type":"uint256","internalType":"uint256"}],"stateMutability":"view"},{"type":"function","name":"getHexbase","inputs":[],"outputs":[{"name":"","type":"address","internalType":"address"}],"stateMutability":"view"},{"type":"function","name":"id","inputs":[],"outputs":[{"name":"","type":"uint256","internalType":"uint256"}],"stateMutability":"view"},{"type":"function","name":"initialize","inputs":[],"outputs":[],"stateMutability":"payable"},{"type":"function","name":"moveDownline","inputs":[{"name":"_op","type":"bool","internalType":"bool"},{"name":"newparent","type":"address","internalType":"address"}],"outputs":[],"stateMutability":"nonpayable"},{"type":"function","name":"owner","inputs":[],"outputs":[{"name":"","type":"address","internalType":"address"}],"stateMutability":"view"},{"type":"function","name":"parent","inputs":[],"outputs":[{"name":"","type":"address","internalType":"address"}],"stateMutability":"view"},{"type":"function","name":"stor","inputs":[],"outputs":[{"name":"","type":"address","internalType":"address"}],"stateMutability":"view"},{"type":"function","name":"systemAge","inputs":[],"outputs":[{"name":"","type":"uint256","internalType":"uint256"}],"stateMutability":"view"},{"type":"event","name":"EthBurned","inputs":[{"name":"sender","type":"address","indexed":true,"internalType":"address"},{"name":"amount","type":"uint256","indexed":false,"internalType":"uint256"}],"anonymous":false},{"type":"event","name":"EthTransferred","inputs":[{"name":"to","type":"address","indexed":true,"internalType":"address"},{"name":"amount","type":"uint256","indexed":false,"internalType":"uint256"}],"anonymous":false},{"type":"event","name":"HexBaseUpdated","inputs":[{"name":"previousHexBase","type":"address","indexed":true,"internalType":"address"},{"name":"newHexBase","type":"address","indexed":true,"internalType":"address"}],"anonymous":false},{"type":"event","name":"OwnerUpdated","inputs":[{"name":"previousOwner","type":"address","indexed":true,"internalType":"address"},{"name":"newOwner","type":"address","indexed":true,"internalType":"address"}],"anonymous":false},{"type":"event","name":"TVLClaimTxnLog","inputs":[{"name":"_value","type":"uint256","indexed":false,"internalType":"uint256"},{"name":"_time","type":"uint256","indexed":false,"internalType":"uint256"}],"anonymous":false},{"type":"error","name":"ReentrancyGuardReentrantCall","inputs":[]},{"type":"error","name":"TargetCallFailed","inputs":[{"name":"selector","type":"bytes4","internalType":"bytes4"}]}],"bytecode":{"object":"0x608034620000f457601f62001ef338819003918201601f19168301916001600160401b03831184841017620000f9578084926040948552833981010312620000f4576200005a602062000052836200010f565b92016200010f565b6001600160a01b0391821691908215620000af5760018060a01b03199283600154169084600054161760005560016003553390843316171760015516906004541617600455604051611dce9081620001258239f35b60405162461bcd60e51b815260206004820152601360248201527f6f776e2e696e76616c69642e68657862617365000000000000000000000000006044820152606490fd5b600080fd5b634e487b7160e01b600052604160045260246000fd5b51906001600160a01b0382168203620000f45756fe60806040526004361015610018575b361561001657005b005b60003560e01c80630399c93c1461014857806312065fe0146101435780631f185d161461013e5780633b9b79551461013957806360f96a8f146101345780638129fc1c1461012f578063859d603c1461012a5780638da5cb5b14610125578063a1f7f53914610120578063a3e884b01461011b578063af48452614610116578063af640d0f14610111578063b28175c41461010c578063b90306ad14610107578063c107930a14610102578063c54e44b0146100fd578063e01ad5fd146100f8578063e0a9bc2b146100f35763fdc10bc90361000e57610ef7565b610edc565b610e3d565b610da4565b610b92565b610adf565b610ab6565b610a98565b610a67565b610915565b610837565b61080e565b61074b565b6103b6565b61038d565b610364565b610250565b610234565b610163565b6001600160a01b0381160361015e57565b600080fd5b3461015e57602036600319011261015e576004356101808161014d565b61019061018b611720565b611132565b6101993361184b565b80156101b2575b906101ad61001692611173565b6114d0565b50600054604051630536340960e21b81526001600160a01b0392916020908290600490829087165afa801561022f57610016936101ad926000926101ff575b5033911614919250506101a0565b61022191925060203d8111610228575b6102198183611000565b810190611022565b90386101f1565b503d61020f565b61103a565b3461015e57600036600319011261015e57602047604051908152f35b3461015e5760208060031936011261015e576004908135906102718261014d565b6000548190610290906001600160a01b03165b6001600160a01b031690565b604051634bf9c0ad60e11b815294859182905afa91821561022f576102e7610321936103039261033396600092610341575b506040516001600160a01b0390911685820190815290926102f5918491602090910190565b03601f198101845283611000565b6102fd6118f7565b90611b72565b919080610337575b61031490611924565b808251830101910161170b565b60405190151581529081906020820190565b0390f35b508151811461030b565b6102f591925061035d90863d8811610228576102198183611000565b91906102c2565b3461015e57600036600319011261015e576000546040516001600160a01b039091168152602090f35b3461015e57600036600319011261015e576004546040516001600160a01b039091168152602090f35b60008060031936011261073e576103cb610f8a565b6006546107005780546103e6906001600160a01b0316610284565b6040805163013cf08b60e01b8082526000600483015292602091908282602481845afa91821561022f5786926106e1575b5060015484516001600160a01b03909116848201818152829003808352601f1994919261045b92909161044d9060200183611000565b610455611075565b90611bf0565b916001600160a01b0383161561061757505085546004908490610486906001600160a01b0316610284565b865163ab6e844f60e01b815292839182905afa91821561022f576105066104f861054b9261055095610529958c916105fa575b506001548a51631dd7707560e11b8b8201526001600160a01b03938416602482015292166044830152606488810183526104f39083611000565b611cdd565b8680825183010191016110ca565b600480546001600160a01b0319166001600160a01b039092169190911790559092565b60018060a01b03166bffffffffffffffffffffffff60a01b6005541617600555565b600655565b84548290610566906001600160a01b0316610284565b845195865260006004870152859060249082905afa90811561022f576105ca9486926105d9575b506001549351634ef260a960e01b938101939093526001600160a01b03909316602483015290916104f39083604481015b03908101845283611000565b505b6105d66001600355565b80f35b6104f392506105f490843d8611610228576102198183611000565b9161058d565b6106119150893d8b11610228576102198183611000565b386104b9565b858594959296975060049350519283809263ab6e844f60e01b82525afa93841561022f576106bb9561054b956106999561068c948a926106c0575b50600454925163b1c4907960e01b878201526001600160a01b039384166024820152939092166044840152906104f39083606481016105be565b80518101820191016110ae565b600580546001600160a01b0319166001600160a01b0390921691909117905590565b6105cc565b6104f392506106db90873d8911610228576102198183611000565b91610652565b6106f9919250833d8511610228576102198183611000565b9038610417565b60405162461bcd60e51b81526020600482015260166024820152751b594b985b1c9958591e4b9a5b9a5d1a585b1a5e995960521b6044820152606490fd5b80fd5b8015150361015e57565b3461015e57604036600319011261015e5760043561076881610741565b6024356107748161014d565b61077f61018b611720565b6107883361184b565b80156107a1575b9161079c61001693611173565b611549565b50600054604051630536340960e21b81526001600160a01b0393916020908290600490829088165afa801561022f576100169461079c926000926107ee575b50339116149193505061078f565b61080791925060203d8111610228576102198183611000565b90386107e0565b3461015e57600036600319011261015e576001546040516001600160a01b039091168152602090f35b3461015e57600036600319011261015e5760005460405163d1f956b160e01b815290602090829060049082906001600160a01b03165afa90811561022f57610333916108c0916000916108d0575b5060405161089281610fc3565b601381527267657464656c656761746f72436f756e74282960681b60208201526108ba611062565b91611c70565b6040519081529081906020820190565b6108e8915060203d8111610228576102198183611000565b38610885565b608090600319011261015e576004356109068161014d565b90602435906044359060643590565b61091e366108ee565b9261092f60069392935415156110f4565b610937610f8a565b60018403610953576109499350611264565b6100166001600355565b50916007915014610965575b50610949565b60005461097a906001600160a01b0316610284565b604051809163ab6e844f60e01b825281600460209485935afa92831561022f576109e7936109da92600091610a4a575b50600654604051631aa0449160e21b86820152602481019190915260448101929092526104f382606481016102e7565b8051810182019101611201565b80471061095f576001547f9e02be43f018109b8d6e8d5b1dbc2539fcd1630bee6f79c4df7989d895fe798f91610a4191610a2b9082906001600160a01b03166119c6565b6040805191825242602083015290918291820190565b0390a13861095f565b610a619150843d8611610228576102198183611000565b386109aa565b3461015e57602036600319011261015e576020610a8e600435610a898161014d565b61184b565b6040519015158152f35b3461015e57600036600319011261015e576020600654604051908152f35b3461015e57600036600319011261015e576005546040516001600160a01b039091168152602090f35b3461015e57602036600319011261015e57600054604051630536340960e21b8152906001600160a01b03906020908390600490829085165afa91821561022f57600092610b72575b5033911603610b3b57610016600435611a9d565b60405162461bcd60e51b815260206004820152600f60248201526e6f776e2e6e6f6e617574682e44414f60881b6044820152606490fd5b610b8b91925060203d8111610228576102198183611000565b9038610b27565b610b9b366108ee565b610bab60069493945415156110f4565b610bb661018b611720565b610bbf3361184b565b8015610d3d575b610bcf90611173565b610bd7610f8a565b610be261018b611720565b610beb3361184b565b8015610cd1575b93610bfe600495611173565b610c0f610c0a8561184b565b6111bf565b60005460405163ab6e844f60e01b81529560209187919082906001600160a01b03165afa91821561022f57610c9e95600093610ca9575b50600654604051636e59fe2560e11b602082015260248101919091526001600160a01b0390951660448601526064850191909152608484019290925260a4830191909152600060c48301526104f38260e481016102e7565b506100166001600355565b6104f3935090610cc96102e79260203d8111610228576102198183611000565b935090610c46565b50600054604051630536340960e21b81526001600160a01b039591602090829060049082908a165afa801561022f57600496610bfe92600092610d1d575b503391161491955050610bf2565b610d3691925060203d8111610228576102198183611000565b9038610d0f565b50600054604051630536340960e21b8152906001600160a01b03906020908390600490829085165afa90811561022f57610bcf92600092610d84575b501633149050610bc6565b610d9d91925060203d8111610228576102198183611000565b9038610d79565b3461015e57602036600319011261015e57600435610dc18161014d565b803b6000610dce82611046565b92610ddc6040519485611000565b82845260208401903c602d815110610e0257602a015160405160609190911c8152602090f35b60405162461bcd60e51b81526020600482015260136024820152724e6f742061206d696e696d616c2070726f787960681b6044820152606490fd5b3461015e5760208060031936011261015e5760048035610e5c8161014d565b60005460405163d1f956b160e01b81526001600160a01b03949093909182918591829088165afa90811561022f576103339461032194600093610ebd575b506040519316818401528252610eaf82610fc3565b610eb7611969565b90611c34565b610ed5919350823d8411610228576102198183611000565b9138610e9a565b3461015e57600036600319011261015e576020610a8e611720565b3461015e57600036600319011261015e5760005460405163111ea8c160e21b815290602090829060049082906001600160a01b03165afa90811561022f57610333916108c091600091610f6c575b50604051610f5281610fc3565b6005815264616765282960d81b60208201526108ba611062565b610f84915060203d8111610228576102198183611000565b38610f45565b600260035414610f9b576002600355565b604051633ee5aeb560e01b8152600490fd5b634e487b7160e01b600052604160045260246000fd5b6040810190811067ffffffffffffffff821117610fdf57604052565b610fad565b6020810190811067ffffffffffffffff821117610fdf57604052565b90601f8019910116810190811067ffffffffffffffff821117610fdf57604052565b9081602091031261015e57516110378161014d565b90565b6040513d6000823e3d90fd5b67ffffffffffffffff8111610fdf57601f01601f191660200190565b6040519061106f82610fe4565b60008252565b6040519061108282610fc3565b601e82527f7265736f6c76655472616e7366657254617267657428616464726573732900006020830152565b919082604091031261015e57602082519201516110378161014d565b9081606091031261015e57805191604060208301516110e88161014d565b9201516110378161014d565b156110fb57565b60405162461bcd60e51b815260206004820152600f60248201526e1b594b9a5b9d985b1a590b9a5b9a5d608a1b6044820152606490fd5b1561113957565b60405162461bcd60e51b81526020600482015260126024820152716f776e2e696e76616c69642e69735361666560701b6044820152606490fd5b1561117a57565b60405162461bcd60e51b815260206004820152601b60248201527f6f776e2e6e6f6e617574682e44414f6f725365637572656261736500000000006044820152606490fd5b156111c657565b60405162461bcd60e51b81526020600482015260136024820152726d652e756e7365637572652e4f52433131353560681b6044820152606490fd5b9081602091031261015e575190565b634e487b7160e01b600052601160045260246000fd5b9060158202918083046015149015171561123c57565b611210565b90602d820291808304602d149015171561123c57565b9190820391821161123c57565b90611271610c0a8361184b565b3461127b57505050565b61128e61128734611226565b6064900490565b926112a361129b34611241565b6103e8900490565b906112b061129b34611241565b916112c8836112c3836112c38a34611257565b611257565b916000966112df610284895460018060a01b031690565b926040938451958691635e09dbe760e01b83528260046020998a935afa801561022f57611313928c916114b9575b506119c6565b8854600490869061132c906001600160a01b0316610284565b8651636402742760e01b815292839182905afa92831561022f57600493611359928c916114b957506119c6565b8854859061136f906001600160a01b0316610284565b85516330125cf560e01b815293849182905afa801561022f57611398928a9161149c57506119c6565b865460049084906113b1906001600160a01b0316610284565b84516324768d9160e01b815292839182905afa94851561022f576004956113de928a9161149c57506119c6565b865483906113f4906001600160a01b0316610284565b835163ab6e844f60e01b815295869182905afa93841561022f576114709794611473575b506006549151636e59fe2560e11b9381019390935260248301919091526001600160a01b039094166044820152606481019290925260848201929092523460a4820152600160c4820152906104f38260e481016102e7565b50565b6104f39450906114936102e79392853d8711610228576102198183611000565b94509091611418565b6114b39150863d8811610228576102198183611000565b3861130d565b6114b39150883d8a11610228576102198183611000565b611504906114e160065415156110f4565b6114e9610f8a565b6114fd6001600160a01b038216151561150b565b47906119c6565b6001600355565b1561151257565b60405162461bcd60e51b815260206004820152600f60248201526e6d652e7a65726f2e6164647265737360881b6044820152606490fd5b9061155760065415156110f4565b61155f610f8a565b6115736001600160a01b038216151561150b565b60005460049060209061158e906001600160a01b0316610284565b60405163ab6e844f60e01b815292839182905afa90811561022f576116429361161f92846105be9360009261164e575b506006546040805160208101929092526001600160a01b0392909216918101919091529115156060808401919091528252906104f390601f1990611603608082611000565b60405163a87af76960e01b602082015294859160248301611693565b5060018060a01b03166bffffffffffffffffffffffff60a01b6004541617600455565b61164c6001600355565b565b6104f3925061166a9060203d8111610228576102198183611000565b916115be565b60005b8381106116835750506000910152565b8181015183820152602001611673565b604091602082526116b38151809281602086015260208686019101611670565b601f01601f1916010190565b156116c657565b60405162461bcd60e51b815260206004820152601960248201527f6f776e2e7361666567756172642e63616c6c2e6661696c6564000000000000006044820152606490fd5b9081602091031261015e575161103781610741565b600054604051634bf9c0ad60e11b8152906020908190839060049082906001600160a01b03165afa91821561022f5761103792611796916000916117b1575b5060405161176c81610fc3565b6008815267697353616665282960c01b848201526040519161178d83610fe4565b60008352611b72565b9190806117a7575b610314906116bf565b508151811461179e565b6117c89150833d8511610228576102198183611000565b3861175f565b604051906117db82610fc3565b601582527469735365637572654261736528616464726573732960581b6020830152565b1561180657565b60405162461bcd60e51b815260206004820152601a60248201527f6f776e2e736563757265626173652e63616c6c2e6661696c65640000000000006044820152606490fd5b6000546001600160a01b0316604051918291634bf9c0ad60e11b835282600460209485935afa92831561022f57611037936118b9926102e7926000926118d4575b506040516001600160a01b0390911685820190815290926118b1918491602090910190565b6102fd6117ce565b9190806118ca575b610314906117ff565b50815181146118c1565b6118b19192506118f090863d8811610228576102198183611000565b919061188c565b6040519061190482610fc3565b601182527069735369676e657228616464726573732960781b6020830152565b1561192b57565b60405162461bcd60e51b81526020600482015260166024820152751bdddb8b9cda59db995c8b98d85b1b0b99985a5b195960521b6044820152606490fd5b6040519061197682610fc3565b6011825270697364656c656761746f724e6f6465282960781b6020830152565b3d156119c1573d906119a782611046565b916119b56040519384611000565b82523d6000602084013e565b606090565b908015611a99576001600160a01b038216918215611a6357600080808481945af16119ef611996565b5015611a28576040519081527fcec1f18c3ab8ddaaa107a1591e3c369667eec613626611a8deaedef43069fcdd9080602081015b0390a2565b60405162461bcd60e51b81526020600482015260136024820152721bdddb8b9d1c985b9cd9995c8b99985a5b1959606a1b6044820152606490fd5b60405162461bcd60e51b815260206004820152600e60248201526d6f776e2e696e76616c69642e746f60901b6044820152606490fd5b5050565b600080546040516311be646b60e21b815290602090829060049082906001600160a01b03165afa90811561022f578284819382938391611b54575b505af1611ae3611996565b5015611b1d5760405190815233907fcdcc745fe377b103b45fa0cec23ae3ef93d6fc6a84a01f0d18c40b354dd1d5d8908060208101611a23565b60405162461bcd60e51b815260206004820152600f60248201526e1bdddb8b989d5c9b8b99985a5b1959608a1b6044820152606490fd5b611b6c915060203d8111610228576102198183611000565b38611ad8565b803b15611bd757600092839263ffffffff60e01b90602081519101201690611bc46024604051809360208201958652611bb48151809260208686019101611670565b8101036004810184520182611000565b5191620dbba0fa611bd3611996565b9091565b505050600090604051611be981610fe4565b6000815290565b9291611bfe91600094611b72565b9080611c29575b611c0c5750565b90915060208180518101031261015e57602001516102848161014d565b506020815114611c05565b9291611c4291600094611b72565b9080611c65575b611c505750565b6110379192506020808251830101910161170b565b506020815114611c49565b9291611c7e91600094611b72565b9080611ca1575b611c8c5750565b61103791925060208082518301019101611201565b506020815114611c85565b906020825192015163ffffffff60e01b908181169360048110611cce57505050565b60040360031b82901b16169150565b6001600160a01b03811615611d5e57600080918351908260208601915af190611d04611996565b9115611d0e575090565b805160009190600411611d5857611d259150611cac565b815115611d355750805190602001fd5b604051630870274d60e21b81526001600160e01b03199091166004820152602490fd5b50611d25565b60405162461bcd60e51b81526020600482015260126024820152711bdddb8b9a5b9d985b1a590b9d185c99d95d60721b6044820152606490fdfea264697066735822122048529157eebfd52650c7654073672b0509b2a4a511761025fe955e3e0bea9ae664736f6c63430008140033","linkReferences":{}},"methodIdentifiers":{"Burn(uint256)":"b90306ad","Txn(address,uint256,uint256,uint256)":"a3e884b0","TxnSys(address,uint256,uint256,uint256)":"c107930a","_delegatorCount()":"a1f7f539","_getImplementation(address)":"c54e44b0","_isDelegatorNode(address)":"e01ad5fd","_isSafe()":"e0a9bc2b","_isSecureBase(address)":"af484526","_isSigner(address)":"1f185d16","forceTransfer(address)":"0399c93c","getBalance()":"12065fe0","getHexbase()":"3b9b7955","id()":"af640d0f","initialize()":"8129fc1c","moveDownline(bool,address)":"859d603c","owner()":"8da5cb5b","parent()":"60f96a8f","stor()":"b28175c4","systemAge()":"fdc10bc9"},"id":47}