{"abi":[{"type":"constructor","inputs":[{"name":"_hex","type":"address","internalType":"address"},{"name":"_parent","type":"address","internalType":"address"}],"stateMutability":"nonpayable"},{"type":"fallback","stateMutability":"payable"},{"type":"receive","stateMutability":"payable"},{"type":"function","name":"Burn","inputs":[{"name":"amount","type":"uint256","internalType":"uint256"}],"outputs":[],"stateMutability":"nonpayable"},{"type":"function","name":"Txn","inputs":[{"name":"paramAdd","type":"address","internalType":"address"},{"name":"_id_maxint","type":"uint256","internalType":"uint256"},{"name":"_qty","type":"uint256","internalType":"uint256"},{"name":"_type","type":"uint256","internalType":"uint256"}],"outputs":[],"stateMutability":"payable"},{"type":"function","name":"TxnSys","inputs":[{"name":"paramAdd","type":"address","internalType":"address"},{"name":"_id_maxint","type":"uint256","internalType":"uint256"},{"name":"_qty","type":"uint256","internalType":"uint256"},{"name":"_amt","type":"uint256","internalType":"uint256"}],"outputs":[],"stateMutability":"payable"},{"type":"function","name":"_delegatorCount","inputs":[],"outputs":[{"name":"","type":"uint256","internalType":"uint256"}],"stateMutability":"view"},{"type":"function","name":"_getImplementation","inputs":[{"name":"clone","type":"address","internalType":"address"}],"outputs":[{"name":"impl","type":"address","internalType":"address"}],"stateMutability":"view"},{"type":"function","name":"_isDelegatorNode","inputs":[{"name":"sender","type":"address","internalType":"address"}],"outputs":[{"name":"","type":"bool","internalType":"bool"}],"stateMutability":"view"},{"type":"function","name":"_isSafe","inputs":[],"outputs":[{"name":"","type":"bool","internalType":"bool"}],"stateMutability":"view"},{"type":"function","name":"_isSecureBase","inputs":[{"name":"sender","type":"address","internalType":"address"}],"outputs":[{"name":"","type":"bool","internalType":"bool"}],"stateMutability":"view"},{"type":"function","name":"_isSigner","inputs":[{"name":"sender","type":"address","internalType":"address"}],"outputs":[{"name":"","type":"bool","internalType":"bool"}],"stateMutability":"view"},{"type":"function","name":"forceTransfer","inputs":[{"name":"_inst","type":"address","internalType":"address"}],"outputs":[],"stateMutability":"nonpayable"},{"type":"function","name":"getBalance","inputs":[],"outputs":[{"name":"","type":"uint256","internalType":"uint256"}],"stateMutability":"view"},{"type":"function","name":"getHexbase","inputs":[],"outputs":[{"name":"","type":"address","internalType":"address"}],"stateMutability":"view"},{"type":"function","name":"id","inputs":[],"outputs":[{"name":"","type":"uint256","internalType":"uint256"}],"stateMutability":"view"},{"type":"function","name":"initialize","inputs":[],"outputs":[],"stateMutability":"payable"},{"type":"function","name":"login","inputs":[{"name":"_maxinterval","type":"uint256","internalType":"uint256"}],"outputs":[],"stateMutability":"nonpayable"},{"type":"function","name":"logout","inputs":[],"outputs":[],"stateMutability":"nonpayable"},{"type":"function","name":"name","inputs":[],"outputs":[{"name":"","type":"string","internalType":"string"}],"stateMutability":"view"},{"type":"function","name":"owner","inputs":[],"outputs":[{"name":"","type":"address","internalType":"address"}],"stateMutability":"view"},{"type":"function","name":"parent","inputs":[],"outputs":[{"name":"","type":"address","internalType":"address"}],"stateMutability":"view"},{"type":"function","name":"refresh","inputs":[{"name":"_maxinterval","type":"uint256","internalType":"uint256"}],"outputs":[],"stateMutability":"nonpayable"},{"type":"function","name":"setName","inputs":[{"name":"_name","type":"string","internalType":"string"}],"outputs":[],"stateMutability":"nonpayable"},{"type":"function","name":"setParent","inputs":[{"name":"newparent","type":"address","internalType":"address"}],"outputs":[],"stateMutability":"nonpayable"},{"type":"function","name":"stor","inputs":[],"outputs":[{"name":"","type":"address","internalType":"address"}],"stateMutability":"view"},{"type":"function","name":"syncBaseAddr","inputs":[],"outputs":[],"stateMutability":"nonpayable"},{"type":"function","name":"systemAge","inputs":[],"outputs":[{"name":"","type":"uint256","internalType":"uint256"}],"stateMutability":"view"},{"type":"function","name":"validateToken","inputs":[],"outputs":[{"name":"","type":"bool","internalType":"bool"}],"stateMutability":"view"},{"type":"event","name":"EthBurned","inputs":[{"name":"sender","type":"address","indexed":true,"internalType":"address"},{"name":"amount","type":"uint256","indexed":false,"internalType":"uint256"}],"anonymous":false},{"type":"event","name":"EthTransferred","inputs":[{"name":"to","type":"address","indexed":true,"internalType":"address"},{"name":"amount","type":"uint256","indexed":false,"internalType":"uint256"}],"anonymous":false},{"type":"event","name":"HexBaseUpdated","inputs":[{"name":"previousHexBase","type":"address","indexed":true,"internalType":"address"},{"name":"newHexBase","type":"address","indexed":true,"internalType":"address"}],"anonymous":false},{"type":"event","name":"OwnerUpdated","inputs":[{"name":"previousOwner","type":"address","indexed":true,"internalType":"address"},{"name":"newOwner","type":"address","indexed":true,"internalType":"address"}],"anonymous":false},{"type":"event","name":"TVLClaimTxnLog","inputs":[{"name":"to","type":"address","indexed":false,"internalType":"address"},{"name":"_value","type":"uint256","indexed":false,"internalType":"uint256"},{"name":"_time","type":"uint256","indexed":false,"internalType":"uint256"},{"name":"prime","type":"bool","indexed":false,"internalType":"bool"}],"anonymous":false},{"type":"error","name":"CallFailed","inputs":[]},{"type":"error","name":"InvalidAddress","inputs":[]},{"type":"error","name":"InvalidState","inputs":[]},{"type":"error","name":"NotAuthorized","inputs":[]},{"type":"error","name":"NotSafe","inputs":[]},{"type":"error","name":"ReentrancyGuardReentrantCall","inputs":[]},{"type":"error","name":"SessionExpired","inputs":[]},{"type":"error","name":"TargetCallFailed","inputs":[{"name":"selector","type":"bytes4","internalType":"bytes4"}]}],"bytecode":{"object":"0x608034620000c157601f6200283538819003918201601f19168301916001600160401b03831184841017620000c6578084926040948552833981010312620000c1576200005a60206200005283620000dc565b9201620000dc565b6001600160a01b0391821691908215620000af5760018060a01b031992836001541690846000541617600055600160115533908433161717600155169060125416176012556040516127439081620000f28239f35b60405163e6c4247b60e01b8152600490fd5b600080fd5b634e487b7160e01b600052604160045260246000fd5b51906001600160a01b0382168203620000c15756fe60806040526004361015610018575b361561001657005b005b60003560e01c80630399c93c146101b857806306fdde03146101b357806312065fe0146101ae5780631499c592146101a95780631f185d16146101a45780631f3c99c31461019f578063339459a61461019a5780633b9b7955146101955780633dbfd97c1461019057806360f96a8f1461018b5780638129fc1c146101865780638da5cb5b146101815780639c75dd351461017c578063a1f7f53914610177578063a3e884b014610172578063af4845261461016d578063af640d0f14610168578063b28175c414610163578063b90306ad1461015e578063c107930a14610159578063c47f002714610154578063c54e44b01461014f578063d4ace81b1461014a578063e01ad5fd14610145578063e0a9bc2b146101405763fdc10bc90361000e5761116e565b611153565b6110d3565b6110b3565b61102d565b610fba565b610e8d565b610d5e565b610d37565b610d19565b610ce8565b610b5d565b610ac1565b610aa5565b610a7e565b610783565b61075c565b6106c9565b6106a2565b610689565b610650565b610569565b6104d1565b6104b5565b6103d0565b6101d3565b6001600160a01b038116036101ce57565b600080fd5b346101ce5760203660031901126101ce576004356101f0816101bd565b6101f86122e9565b1561028b576102063361236e565b8015610277575b1561024d576102469061022360155415156114a7565b61022b6113ea565b61023f6001600160a01b038216151561189e565b4790612428565b6001601155005b60046040517fea8e4eb5000000000000000000000000000000000000000000000000000000008152fd5b50336001600160a01b03600554161461020d565b60046040517f9dc4246e000000000000000000000000000000000000000000000000000000008152fd5b90600182811c921680156102e5575b60208310146102cf57565b634e487b7160e01b600052602260045260246000fd5b91607f16916102c4565b634e487b7160e01b600052604160045260246000fd5b6040810190811067ffffffffffffffff82111761032157604052565b6102ef565b6020810190811067ffffffffffffffff82111761032157604052565b610100810190811067ffffffffffffffff82111761032157604052565b90601f8019910116810190811067ffffffffffffffff82111761032157604052565b60005b8381106103945750506000910152565b8181015183820152602001610384565b604091602082526103c48151809281602086015260208686019101610381565b601f01601f1916010190565b346101ce576000806003193601126104b25760405190806014546103f3816102b5565b80855291600191808316908115610488575060011461042d575b6104298561041d8187038261035f565b604051918291826103a4565b0390f35b9250601483527fce6d7b5282bd9a3661ae061feed1dbda4e52ab073b1f9285be6e155d9c38d4ec5b82841061047057505050810160200161041d8261042961040d565b80546020858701810191909152909301928101610455565b8695506104299693506020925061041d94915060ff191682840152151560051b820101929361040d565b80fd5b346101ce5760003660031901126101ce57602047604051908152f35b346101ce5760203660031901126101ce576004356104ee816101bd565b6104f66122e9565b1561028b576105043361236e565b8015610555575b1561024d576001600160a01b039061052660155415156114a7565b61052e6113ea565b1661053a81151561189e565b6001600160a01b031960125416176012556001601155600080f35b50336001600160a01b03600554161461050b565b346101ce576020806003193601126101ce576105e860043561058a816101bd565b6001600160a01b038060025416906040519216848301528382526105ad82610305565b604051906105ba82610305565b601182527f69735369676e6572286164647265737329000000000000000000000000000000858301526124b2565b919080610646575b1561061c57818161060a92610429945183010191016122d1565b60405190151581529081906020820190565b60046040517f3204506f000000000000000000000000000000000000000000000000000000008152fd5b50808251146105f0565b346101ce5760003660031901126101ce576001600160a01b0360015416330361024d57600019420142811161068457601655005b61120b565b346101ce5760003660031901126101ce57610016611c0b565b346101ce5760003660031901126101ce5760206001600160a01b0360005416604051908152f35b346101ce5760203660031901126101ce576001546001600160a01b03163381900361024d5761074961072d61074d9261073b61070d6004546001600160a01b031690565b91604051938491602083019190916001600160a01b036020820193169052565b03601f19810184528361035f565b6107436111d2565b90612596565b1590565b61024d57610016600435611221565b346101ce5760003660031901126101ce5760206001600160a01b0360125416604051908152f35b60003660031901126101ce576107976113ea565b601554610a3a576107a6611c0b565b600a546001600160a01b03166001546001600160a01b03169060405191610808602093806107e6848783019190916001600160a01b036020820193169052565b03936107fa601f199586810184528361035f565b610802611425565b90612545565b906001600160a01b038216156109875750916108d77f4ef260a9000000000000000000000000000000000000000000000000000000009261092b61090a6109266108ea6108dc7f3baee0ea0000000000000000000000000000000000000000000000000000000061097b9a6108d78a6108cb61088c6004546001600160a01b031690565b9361089f6001546001600160a01b031690565b604051938401969096526001600160a01b03908116602484015290941660448201529283906064820190565b0389810184528361035f565b61265a565b87808251830101910161147d565b939091936001600160a01b03166001600160a01b03196012541617601255565b6001600160a01b03166001600160a01b03196013541617601355565b601555565b600a546001600160a01b03169261096f61094d6001546001600160a01b031690565b604051968793840152602483019190916001600160a01b036020820193169052565b0390810184528361035f565b505b6100166001601155565b610a16915092610a09610a3594610926946108d76109ad6004546001600160a01b031690565b916109c06012546001600160a01b031690565b6040517fb1c4907900000000000000000000000000000000000000000000000000000000888201526001600160a01b03918216602482015294166044850152836064810161096f565b805181018201910161145e565b9190916001600160a01b03166001600160a01b03196013541617601355565b61097d565b606460405162461bcd60e51b815260206004820152601660248201527f6d652e616c72656164792e696e697469616c697a6564000000000000000000006044820152fd5b346101ce5760003660031901126101ce5760206001600160a01b0360015416604051908152f35b346101ce5760203660031901126101ce576100166004356112f5565b346101ce5760003660031901126101ce576020610b2e6001600160a01b0360065416604051610aef81610305565b601381527f67657464656c656761746f72436f756e742829000000000000000000000000008482015260405191610b2583610326565b600083526125d2565b604051908152f35b60809060031901126101ce57600435610b4e816101bd565b90602435906044359060643590565b610b6636610b36565b610b7360155415156114a7565b610b7b6114f2565b610b836113ea565b60018103610cc75750610b9d610b988461236e565b611827565b34610bb0575b5050506100166001601155565b6108d7610cbe93610c57610bcd610bc634611872565b6064900490565b610c46610be4610bdc34611888565b6103e8900490565b610c35610bf3610bdc34611888565b93610c24610c0e86610c0986610c0986346113dd565b6113dd565b600b546001600160a01b0316612428565b612428565b600d546001600160a01b0316612428565b600e546001600160a01b0316612428565b600f546001600160a01b0316612428565b61072d610c6c6004546001600160a01b031690565b9360155490604051968794636e59fe2560e11b6020870152349360248701919360a0936001600160a01b036001969897939860c086019986521660208501526040840152606083015260808201520152565b50388080610ba3565b91925050600714610cd9575b5061097d565b610ce2906116ca565b38610cd3565b346101ce5760203660031901126101ce576020610d0f600435610d0a816101bd565b61236e565b6040519015158152f35b346101ce5760003660031901126101ce576020601554604051908152f35b346101ce5760003660031901126101ce5760206001600160a01b0360135416604051908152f35b346101ce5760203660031901126101ce57600435610d7a6122e9565b1561028b576001600160a01b0360055416330361024d5760009060046020610db8610dac85546001600160a01b031690565b6001600160a01b031690565b604051928380927f46f991ac0000000000000000000000000000000000000000000000000000000082525afa8015610e885783808481949382948391610e5a575b505af1610e046123f8565b501561061c577fcdcc745fe377b103b45fa0cec23ae3ef93d6fc6a84a01f0d18c40b354dd1d5d8610e54610e43610dac600b546001600160a01b031690565b604051938452929081906020820190565b0390a280f35b610e7b915060203d8111610e81575b610e73818361035f565b8101906118e9565b38610df9565b503d610e69565b6118fe565b610e9636610b36565b610ea76015949392945415156114a7565b610eaf6122e9565b1561028b57610ebd3361236e565b8015610f69575b1561024d57610ed16113ea565b610ed96122e9565b1561028b57610ee73361236e565b8015610f55575b1561024d5761097b93610f03610b988561236e565b6001600160a01b03928360045416936015549560405196636e59fe2560e11b602089015260248801521660448601526064850152608484015260a4830152600060c483015260c482526108d782610342565b50336001600160a01b036005541614610eee565b50336001600160a01b036005541614610ec4565b604051906101e0820182811067ffffffffffffffff82111761032157604052565b67ffffffffffffffff811161032157601f01601f191660200190565b346101ce5760203660031901126101ce5760043567ffffffffffffffff81116101ce57366023820112156101ce578060040135610ff681610f9e565b90611004604051928361035f565b80825236602482850101116101ce57602081600092602461001696018386013783010152611528565b346101ce5760203660031901126101ce5760043561104a816101bd565b803b600061105782610f9e565b92611065604051948561035f565b82845260208401903c602d81511061108957602a602091015160601c604051908152f35b60046040517fbaf3f0f7000000000000000000000000000000000000000000000000000000008152fd5b346101ce5760003660031901126101ce5760206016544210604051908152f35b346101ce5760203660031901126101ce576020610d0f6004356110f5816101bd565b6001600160a01b0380600654169060405192168483015283825261111882610305565b6040519061112582610305565b601882527f697364656c656761746f724e6f6465286164647265737329000000000000000085830152612596565b346101ce5760003660031901126101ce576020610d0f6122e9565b346101ce5760003660031901126101ce576020610b2e6001600160a01b036003541660405161119c81610305565b600681527f69416765282900000000000000000000000000000000000000000000000000008482015260405191610b2583610326565b604051906111df82610305565b601582527f69735573657245786973747328616464726573732900000000000000000000006020830152565b634e487b7160e01b600052601160045260246000fd5b61127d6001600160a01b03600354166040519061123d82610326565b600082526040519061124e82610305565b601382527f73657373696f6e54544c5365636f6e647328290000000000000000000000000060208301526125d2565b42019081421161068457611293916016556112f5565b565b9060e0828203126101ce5780601f830112156101ce576040519160e0830183811067ffffffffffffffff82111761032157604052829060e081019283116101ce57905b8282106112e55750505090565b81518152602091820191016112d8565b6001600160a01b0360135416604051600161135a6020926103e78482015283815261131f81610305565b60405161132b81610305565b601a81527f676574546f67676c65416765436f756e742875696e743235362900000000000085820152856125d2565b161561136557505050565b6113c56113cb916113b8600194604051907f1296412000000000000000000000000000000000000000000000000000000000848301526108d78261072d8a60248301919060206040840193600881520152565b8051810182019101611295565b60800190565b51146113d45750565b611293906116ca565b9190820391821161068457565b6002601154146113fb576002601155565b60046040517f3ee5aeb5000000000000000000000000000000000000000000000000000000008152fd5b6040519061143282610305565b601e82527f7265736f6c76655472616e7366657254617267657428616464726573732900006020830152565b91908260409103126101ce576020825192015161147a816101bd565b90565b908160609103126101ce578051916040602083015161149b816101bd565b92015161147a816101bd565b156114ae57565b606460405162461bcd60e51b815260206004820152600f60248201527f6d652e696e76616c69642e696e697400000000000000000000000000000000006044820152fd5b6016544210156114fe57565b60046040517f1fd05a4a000000000000000000000000000000000000000000000000000000008152fd5b61153560155415156114a7565b61153d6114f2565b6115456122e9565b1561028b576001906001600160a01b03825416330361024d5780519067ffffffffffffffff8211610321576115848261157f6014546102b5565b611643565b60209081601f84116001146115c157509282939183926000946115b6575b50501b916000199060031b1c191617601455565b0151925038806115a2565b6014600052919083601f1981167fce6d7b5282bd9a3661ae061feed1dbda4e52ab073b1f9285be6e155d9c38d4ec946000905b888383106116295750505010611610575b505050811b01601455565b015160001960f88460031b161c19169055388080611605565b8587015188559096019594850194879350908101906115f4565b601f811161164f575050565b600090601482527fce6d7b5282bd9a3661ae061feed1dbda4e52ab073b1f9285be6e155d9c38d4ec906020601f850160051c830194106116aa575b601f0160051c01915b82811061169f57505050565b818155600101611693565b909250829061168a565b91908260409103126101ce576020825192015190565b61172c61173b916116e36004546001600160a01b031690565b6015546040517f6a811244000000000000000000000000000000000000000000000000000000006020820152602481019190915260448101929092526108d7826064810161072d565b602080825183010191016116b4565b90804710156117ba575b50804710156117515750565b806117897f992e981f1f6d8cb3a32ce3b31107393c58fbd9a9052cb415a19d578833bf80d692610c1f600c546001600160a01b031690565b600c54604080516001600160a01b0390921682526020820192909252429181019190915260006060820152608090a1565b806117f27f992e981f1f6d8cb3a32ce3b31107393c58fbd9a9052cb415a19d578833bf80d692610c1f6001546001600160a01b031690565b600154604080516001600160a01b0390921682526020820192909252429181019190915260006060820152608090a138611745565b1561182e57565b606460405162461bcd60e51b815260206004820152601360248201527f6d652e756e7365637572652e4f524331313535000000000000000000000000006044820152fd5b9060158202918083046015149015171561068457565b90602d820291808304602d149015171561068457565b156118a557565b606460405162461bcd60e51b815260206004820152600f60248201527f6d652e7a65726f2e6164647265737300000000000000000000000000000000006044820152fd5b908160209103126101ce575161147a816101bd565b6040513d6000823e3d90fd5b611bef6101c06112939261194461192882516001600160a01b031690565b6001600160a01b03166001600160a01b03196002541617600255565b61197761195b60208301516001600160a01b031690565b6001600160a01b03166001600160a01b03196003541617600355565b6119aa61198e60408301516001600160a01b031690565b6001600160a01b03166001600160a01b03196004541617600455565b6119dd6119c160608301516001600160a01b031690565b6001600160a01b03166001600160a01b03196005541617600555565b611a106119f460808301516001600160a01b031690565b6001600160a01b03166001600160a01b03196006541617600655565b611a43611a2760a08301516001600160a01b031690565b6001600160a01b03166001600160a01b03196007541617600755565b611a76611a5a60c08301516001600160a01b031690565b6001600160a01b03166001600160a01b03196008541617600855565b611aa9611a8d60e08301516001600160a01b031690565b6001600160a01b03166001600160a01b03196009541617600955565b611add611ac16101008301516001600160a01b031690565b6001600160a01b03166001600160a01b0319600a541617600a55565b611b11611af56101208301516001600160a01b031690565b6001600160a01b03166001600160a01b0319600b541617600b55565b611b45611b296101408301516001600160a01b031690565b6001600160a01b03166001600160a01b0319600c541617600c55565b611b79611b5d6101608301516001600160a01b031690565b6001600160a01b03166001600160a01b0319600d541617600d55565b611bad611b916101808301516001600160a01b031690565b6001600160a01b03166001600160a01b0319600e541617600e55565b611be1611bc56101a08301516001600160a01b031690565b6001600160a01b03166001600160a01b0319600f541617600f55565b01516001600160a01b031690565b6001600160a01b03166001600160a01b03196010541617601055565b611c20610dac6000546001600160a01b031690565b604051907f97f3815a000000000000000000000000000000000000000000000000000000008252602082600481845afa918215610e88576000926122b0575b50604051917fcfbffe53000000000000000000000000000000000000000000000000000000008352602083600481855afa928315610e885760009361228f575b50604051907fab6e844f000000000000000000000000000000000000000000000000000000008252602082600481865afa918215610e885760009261226e575b50604051917f14d8d024000000000000000000000000000000000000000000000000000000008352602083600481875afa928315610e885760009361224d575b50604051927fd1f956b1000000000000000000000000000000000000000000000000000000008452602084600481885afa938415610e885760009461222c575b50604051937fe61dfd58000000000000000000000000000000000000000000000000000000008552602085600481895afa948515610e885760009561220b575b506040517fe09d394d0000000000000000000000000000000000000000000000000000000081526020816004818a5afa908115610e88576000916121ec575b506040517f52b06d640000000000000000000000000000000000000000000000000000000081526020816004818b5afa908115610e88576000916121cd575b506040517f013cf08b00000000000000000000000000000000000000000000000000000000815260006004820152916020836024818c5afa928315610e88576000936121ac575b50604051977f5e09dbe70000000000000000000000000000000000000000000000000000000089526020896004818d5afa948515610e885760049960009661218b575b5060208b6040519b8c80927faa0ddc160000000000000000000000000000000000000000000000000000000082525afa968715610e885760049a60009861216a575b5060208c6040519c8d80927f640274270000000000000000000000000000000000000000000000000000000082525afa988915610e885760049b60009a612149575b5060208d6040519d8e80927f30125cf50000000000000000000000000000000000000000000000000000000082525afa9a8b15610e88578d60049d60009d612127575b506020906040519e8f80927f24768d910000000000000000000000000000000000000000000000000000000082525afa9c8d15610e885760009d612106575b50604051809e81907f9dc969a80000000000000000000000000000000000000000000000000000000082525a92600491602094fa9d8e15610e885760009e6120e5575b50611ff9610f7d565b6001600160a01b0390911681529d8e906001600160a01b031660208201526040019061202d91906001600160a01b03169052565b6001600160a01b031660608d01526001600160a01b031660808c01526001600160a01b031660a08b01526001600160a01b031660c08a01526001600160a01b031660e08901526001600160a01b03166101008801526001600160a01b03166101208701526001600160a01b03166101408601526001600160a01b03166101608501526001600160a01b03166101808401526001600160a01b03166101a08301526001600160a01b03166101c08201526112939061190a565b6120ff919e5060203d602011610e8157610e73818361035f565b9c38611ff0565b612120919d5060203d602011610e8157610e73818361035f565b9b38611fad565b6020919d5061214290823d8411610e8157610e73818361035f565b9c90611f6e565b612163919a5060203d602011610e8157610e73818361035f565b9838611f2b565b61218491985060203d602011610e8157610e73818361035f565b9638611ee9565b6121a591965060203d602011610e8157610e73818361035f565b9438611ea7565b6121c691935060203d602011610e8157610e73818361035f565b9138611e64565b6121e6915060203d602011610e8157610e73818361035f565b38611e1d565b612205915060203d602011610e8157610e73818361035f565b38611dde565b61222591955060203d602011610e8157610e73818361035f565b9338611d9f565b61224691945060203d602011610e8157610e73818361035f565b9238611d5f565b61226791935060203d602011610e8157610e73818361035f565b9138611d1f565b61228891925060203d602011610e8157610e73818361035f565b9038611cdf565b6122a991935060203d602011610e8157610e73818361035f565b9138611c9f565b6122ca91925060203d602011610e8157610e73818361035f565b9038611c5f565b908160209103126101ce575180151581036101ce5790565b6123446001600160a01b036002541660405161230481610305565b600881527f697353616665282900000000000000000000000000000000000000000000000060208201526040519161233b83610326565b600083526124b2565b9080612363575b1561061c578060208061147a935183010191016122d1565b50602081511461234b565b6123d16001600160a01b03806002541660405191602094168483015283825261239682610305565b604051906123a382610305565b601582527f6973536563757265426173652861646472657373290000000000000000000000858301526124b2565b90806123ee575b1561061c578161147a92825183010191016122d1565b50818151146123d8565b3d15612423573d9061240982610f9e565b91612417604051938461035f565b82523d6000602084013e565b606090565b9080156124ae576001600160a01b03821691821561248457600080808481945af16124516123f8565b501561061c5760207fcec1f18c3ab8ddaaa107a1591e3c369667eec613626611a8deaedef43069fcdd91604051908152a2565b60046040517fe6c4247b000000000000000000000000000000000000000000000000000000008152fd5b5050565b803b1561252c576000927fffffffff00000000000000000000000000000000000000000000000000000000836020869551910120169061251c602460405180936020820195865261250c8151809260208686019101610381565b810103600481018452018261035f565b51915afa6125286123f8565b9091565b50505060009060405161253e81610326565b6000815290565b9291612553916000946124b2565b908061258b575b6125615750565b9091506020818051810103126101ce5760206001600160a01b03910151612587816101bd565b1690565b50602081511461255a565b92916125a4916000946124b2565b90806125c7575b6125b25750565b61147a919250602080825183010191016122d1565b5060208151146125ab565b92916125e0916000946124b2565b9080612605575b6125ee5750565b9091506020818051810103126101ce576020015190565b5060208151146125e7565b90602082519201517fffffffff0000000000000000000000000000000000000000000000000000000090818116936004811061264b57505050565b60040360031b82901b16169150565b6001600160a01b0381161561248457600080918351908260208601915af1906126816123f8565b911561268b575090565b805160009190600411612707576126a29150612610565b8151156126b25750805190602001fd5b6040517f21c09d340000000000000000000000000000000000000000000000000000000081527fffffffff00000000000000000000000000000000000000000000000000000000919091166004820152602490fd5b506126a256fea26469706673582212202a182b885d01864b7c5da285e7d098a34c4389e83b6bc19aab11f82eca3ddb6e64736f6c63430008140033","linkReferences":{}},"methodIdentifiers":{"Burn(uint256)":"b90306ad","Txn(address,uint256,uint256,uint256)":"a3e884b0","TxnSys(address,uint256,uint256,uint256)":"c107930a","_delegatorCount()":"a1f7f539","_getImplementation(address)":"c54e44b0","_isDelegatorNode(address)":"e01ad5fd","_isSafe()":"e0a9bc2b","_isSecureBase(address)":"af484526","_isSigner(address)":"1f185d16","forceTransfer(address)":"0399c93c","getBalance()":"12065fe0","getHexbase()":"3b9b7955","id()":"af640d0f","initialize()":"8129fc1c","login(uint256)":"3dbfd97c","logout()":"1f3c99c3","name()":"06fdde03","owner()":"8da5cb5b","parent()":"60f96a8f","refresh(uint256)":"9c75dd35","setName(string)":"c47f0027","setParent(address)":"1499c592","stor()":"b28175c4","syncBaseAddr()":"339459a6","systemAge()":"fdc10bc9","validateToken()":"d4ace81b"},"id":58}