{"abi":[{"type":"constructor","inputs":[{"name":"_hex","type":"address","internalType":"address"},{"name":"_parent","type":"address","internalType":"address"}],"stateMutability":"nonpayable"},{"type":"fallback","stateMutability":"payable"},{"type":"receive","stateMutability":"payable"},{"type":"function","name":"Burn","inputs":[{"name":"amount","type":"uint256","internalType":"uint256"}],"outputs":[],"stateMutability":"nonpayable"},{"type":"function","name":"Txn","inputs":[{"name":"paramAdd","type":"address","internalType":"address"},{"name":"_id_maxint","type":"uint256","internalType":"uint256"},{"name":"_qty","type":"uint256","internalType":"uint256"},{"name":"_type","type":"uint256","internalType":"uint256"}],"outputs":[],"stateMutability":"payable"},{"type":"function","name":"TxnSys","inputs":[{"name":"paramAdd","type":"address","internalType":"address"},{"name":"_id_maxint","type":"uint256","internalType":"uint256"},{"name":"_qty","type":"uint256","internalType":"uint256"},{"name":"_amt","type":"uint256","internalType":"uint256"}],"outputs":[],"stateMutability":"payable"},{"type":"function","name":"_delegatorCount","inputs":[],"outputs":[{"name":"","type":"uint256","internalType":"uint256"}],"stateMutability":"view"},{"type":"function","name":"_getImplementation","inputs":[{"name":"clone","type":"address","internalType":"address"}],"outputs":[{"name":"impl","type":"address","internalType":"address"}],"stateMutability":"view"},{"type":"function","name":"_isDelegatorNode","inputs":[{"name":"sender","type":"address","internalType":"address"}],"outputs":[{"name":"","type":"bool","internalType":"bool"}],"stateMutability":"view"},{"type":"function","name":"_isSafe","inputs":[],"outputs":[{"name":"","type":"bool","internalType":"bool"}],"stateMutability":"view"},{"type":"function","name":"_isSecureBase","inputs":[{"name":"sender","type":"address","internalType":"address"}],"outputs":[{"name":"","type":"bool","internalType":"bool"}],"stateMutability":"view"},{"type":"function","name":"_isSigner","inputs":[{"name":"sender","type":"address","internalType":"address"}],"outputs":[{"name":"","type":"bool","internalType":"bool"}],"stateMutability":"view"},{"type":"function","name":"forceTransfer","inputs":[{"name":"_inst","type":"address","internalType":"address"}],"outputs":[],"stateMutability":"nonpayable"},{"type":"function","name":"getBalance","inputs":[],"outputs":[{"name":"","type":"uint256","internalType":"uint256"}],"stateMutability":"view"},{"type":"function","name":"getHexbase","inputs":[],"outputs":[{"name":"","type":"address","internalType":"address"}],"stateMutability":"view"},{"type":"function","name":"id","inputs":[],"outputs":[{"name":"","type":"uint256","internalType":"uint256"}],"stateMutability":"view"},{"type":"function","name":"initialize","inputs":[],"outputs":[],"stateMutability":"payable"},{"type":"function","name":"login","inputs":[{"name":"_maxinterval","type":"uint256","internalType":"uint256"}],"outputs":[],"stateMutability":"nonpayable"},{"type":"function","name":"name","inputs":[],"outputs":[{"name":"","type":"string","internalType":"string"}],"stateMutability":"view"},{"type":"function","name":"owner","inputs":[],"outputs":[{"name":"","type":"address","internalType":"address"}],"stateMutability":"view"},{"type":"function","name":"parent","inputs":[],"outputs":[{"name":"","type":"address","internalType":"address"}],"stateMutability":"view"},{"type":"function","name":"setName","inputs":[{"name":"_name","type":"string","internalType":"string"}],"outputs":[],"stateMutability":"nonpayable"},{"type":"function","name":"setParent","inputs":[{"name":"newparent","type":"address","internalType":"address"}],"outputs":[],"stateMutability":"nonpayable"},{"type":"function","name":"stor","inputs":[],"outputs":[{"name":"","type":"address","internalType":"address"}],"stateMutability":"view"},{"type":"function","name":"syncBaseAddr","inputs":[],"outputs":[],"stateMutability":"nonpayable"},{"type":"function","name":"systemAge","inputs":[],"outputs":[{"name":"","type":"uint256","internalType":"uint256"}],"stateMutability":"view"},{"type":"function","name":"validateToken","inputs":[],"outputs":[{"name":"","type":"bool","internalType":"bool"}],"stateMutability":"view"},{"type":"event","name":"EthBurned","inputs":[{"name":"sender","type":"address","indexed":true,"internalType":"address"},{"name":"amount","type":"uint256","indexed":false,"internalType":"uint256"}],"anonymous":false},{"type":"event","name":"EthTransferred","inputs":[{"name":"to","type":"address","indexed":true,"internalType":"address"},{"name":"amount","type":"uint256","indexed":false,"internalType":"uint256"}],"anonymous":false},{"type":"event","name":"HexBaseUpdated","inputs":[{"name":"previousHexBase","type":"address","indexed":true,"internalType":"address"},{"name":"newHexBase","type":"address","indexed":true,"internalType":"address"}],"anonymous":false},{"type":"event","name":"OwnerUpdated","inputs":[{"name":"previousOwner","type":"address","indexed":true,"internalType":"address"},{"name":"newOwner","type":"address","indexed":true,"internalType":"address"}],"anonymous":false},{"type":"event","name":"TVLClaimTxnLog","inputs":[{"name":"to","type":"address","indexed":false,"internalType":"address"},{"name":"_value","type":"uint256","indexed":false,"internalType":"uint256"},{"name":"_time","type":"uint256","indexed":false,"internalType":"uint256"},{"name":"prime","type":"bool","indexed":false,"internalType":"bool"}],"anonymous":false},{"type":"error","name":"CallFailed","inputs":[]},{"type":"error","name":"InvalidAddress","inputs":[]},{"type":"error","name":"InvalidSessionToken","inputs":[]},{"type":"error","name":"InvalidState","inputs":[]},{"type":"error","name":"NotAuthorized","inputs":[]},{"type":"error","name":"NotSafe","inputs":[]},{"type":"error","name":"ReentrancyGuardReentrantCall","inputs":[]},{"type":"error","name":"SessionExpired","inputs":[]},{"type":"error","name":"TargetCallFailed","inputs":[{"name":"selector","type":"bytes4","internalType":"bytes4"}]},{"type":"error","name":"Unauthorized","inputs":[]}],"bytecode":{"object":"0x608034620000c157601f6200231138819003918201601f19168301916001600160401b03831184841017620000c6578084926040948552833981010312620000c1576200005a60206200005283620000dc565b9201620000dc565b6001600160a01b0391821691908215620000af5760018060a01b0319928360015416908460005416176000556001601155339084331617176001551690601254161760125560405161221f9081620000f28239f35b60405163e6c4247b60e01b8152600490fd5b600080fd5b634e487b7160e01b600052604160045260246000fd5b51906001600160a01b0382168203620000c15756fe60806040526004361015610018575b361561001657005b005b60003560e01c80630399c93c1461019857806306fdde031461019357806312065fe01461018e5780631499c592146101895780631f185d1614610184578063339459a61461017f5780633b9b79551461017a5780633dbfd97c1461017557806360f96a8f146101705780638129fc1c1461016b5780638da5cb5b14610166578063a1f7f53914610161578063a3e884b01461015c578063af48452614610157578063af640d0f14610152578063b28175c41461014d578063b90306ad14610148578063c107930a14610143578063c47f00271461013e578063c54e44b014610139578063d4ace81b14610134578063e01ad5fd1461012f578063e0a9bc2b1461012a5763fdc10bc90361000e57610f2e565b610f13565b610e98565b610e64565b610df6565b610d84565b610c55565b610b5f565b610b36565b610b18565b610ae7565b6109a7565b610916565b6108ed565b6106e0565b6106b7565b610623565b6105fa565b6105ce565b61050b565b610474565b610458565b61038a565b6101bf565b6001600160a01b031690565b6001600160a01b038116036101ba57565b600080fd5b346101ba5760203660031901126101ba576004356101dc816101a9565b6101e4611e28565b1561025f576101f233611e9a565b801561024b575b15610239576102329061020f60155415156111f9565b610217611118565b61022b6001600160a01b038216151561157c565b4790611f4b565b6001601155005b60405163ea8e4eb560e01b8152600490fd5b506005546001600160a01b031633146101f9565b604051634ee2123760e11b8152600490fd5b90600182811c921680156102a1575b602083101461028b57565b634e487b7160e01b600052602260045260246000fd5b91607f1691610280565b634e487b7160e01b600052604160045260246000fd5b604081019081106001600160401b038211176102dc57604052565b6102ab565b602081019081106001600160401b038211176102dc57604052565b61010081019081106001600160401b038211176102dc57604052565b601f909101601f19168101906001600160401b038211908210176102dc57604052565b60005b83811061034e5750506000910152565b818101518382015260200161033e565b6040916020825261037e815180928160208601526020868601910161033b565b601f01601f1916010190565b346101ba5760008060031936011261045557604051816014546103ac81610271565b8084529060019081811690811561042d57506001146103e6575b6103e2846103d681880382610318565b6040519182918261035e565b0390f35b60148352602094506000805160206121ca8339815191525b82841061041a57505050816103e2936103d692820101936103c6565b80548585018701529285019281016103fe565b6103e296506103d69450602092508593915060ff191682840152151560051b820101936103c6565b80fd5b346101ba5760003660031901126101ba57602047604051908152f35b346101ba5760203660031901126101ba57600435610491816101a9565b610499611e28565b1561025f576104a733611e9a565b80156104f7575b15610239576104c060155415156111f9565b6104c8611118565b6001600160a01b03166104dc81151561157c565b601280546001600160a01b0319169190911790556001601155005b506005546001600160a01b031633146104ae565b346101ba576020806003193601126101ba5761057e60043561052c816101a9565b6002546040516001600160a01b0392831685820152848152911661054f826102c1565b6040519061055c826102c1565b601182527069735369676e657228616464726573732960781b85830152611fbd565b9190806105c4575b156105b25781816105a0926103e294518301019101611e10565b60405190151581529081906020820190565b604051633204506f60e01b8152600490fd5b5080825114610586565b346101ba5760003660031901126101ba576100166118de565b6001600160a01b03909116815260200190565b346101ba5760003660031901126101ba576000546040516001600160a01b039091168152602090f35b346101ba5760203660031901126101ba5761063f60015461019d565b6001600160a01b03811633036106a6576106936106776106979261068561066760045461019d565b91604051938491602083016105e7565b03601f198101845283610318565b61068d610f7a565b9061207c565b1590565b6106a657610016600435611029565b6040516282b42960e81b8152600490fd5b346101ba5760003660031901126101ba576012546040516001600160a01b039091168152602090f35b60003660031901126101ba576106f4611118565b6015546108af576107036118de565b61070e600a5461019d565b61071960015461019d565b906040519061075360209280610731868683016105e7565b0392610745601f1994858101845283610318565b61074d61113b565b90612038565b926001600160a01b0384161561084c57506107fb6107f16107f66107ce6107c06108409761078260045461019d565b6107bb61079060015461019d565b604051631dd7707560e11b8c8201529384916107af9160248401611174565b03898101845283610318565b612127565b8680825183010191016111cf565b601280546001600160a01b0319166001600160a01b039092169190911790559092565b6111ad565b601555565b6107bb610809600a5461019d565b9161081560015461019d565b93610834604051958692634ef260a960e01b90840152602483016105e7565b03908101845283610318565b505b6100166001601155565b6108aa9350916108956107f6936108a2936107bb61086b60045461019d565b9161087760125461019d565b61083460405195869263b1c4907960e01b8a85015260248401611174565b805181018201910161118e565b9190916111ad565b610842565b60405162461bcd60e51b81526020600482015260166024820152751b594b985b1c9958591e4b9a5b9a5d1a585b1a5e995960521b6044820152606490fd5b346101ba5760003660031901126101ba576001546040516001600160a01b039091168152602090f35b346101ba5760003660031901126101ba57602061097860018060a01b0360065416604051610943816102c1565b601381527267657464656c656761746f72436f756e74282960681b848201526040519161096f836102e1565b600083526120b8565b604051908152f35b60809060031901126101ba57600435610998816101a9565b90602435906044359060643590565b6109b036610980565b926109c160159392935415156111f9565b6109c9611237565b6109d1611118565b600184036109e357610842935061147a565b509160079150146109f5575b50610842565b610a37610a4691610a0760045461019d565b601554604051631aa0449160e21b6020820152602481019190915260448101929092526107bb8260648101610677565b602080825183010191016113c4565b9080471015610aa2575b508047106109ef5780610a7c6000805160206121aa83398151915292610a77600c5461019d565b611f4b565b610a87600c5461019d565b90610a996040519283924291846113da565b0390a1386109ef565b80610ac16000805160206121aa83398151915292610a7760015461019d565b610acc60015461019d565b90610ade6040519283924291846113da565b0390a138610a50565b346101ba5760203660031901126101ba576020610b0e600435610b09816101a9565b611e9a565b6040519015158152f35b346101ba5760003660031901126101ba576020601554604051908152f35b346101ba5760003660031901126101ba576013546040516001600160a01b039091168152602090f35b346101ba5760203660031901126101ba57600554600435906001600160a01b031633036102395760009060046020610b9f610b9a855461019d565b61019d565b6040516311be646b60e21b815292839182905afa8015610c505783808481949382948391610c22575b505af1610bd3611f1b565b50156105b2577fcdcc745fe377b103b45fa0cec23ae3ef93d6fc6a84a01f0d18c40b354dd1d5d8610c1c610c0b610b9a600b5461019d565b604051938452929081906020820190565b0390a280f35b610c43915060203d8111610c49575b610c3b8183610318565b8101906115ba565b38610bc8565b503d610c31565b6115cf565b610c5e36610980565b610c6f6015949392945415156111f9565b610c77611e28565b1561025f57610c8533611e9a565b8015610d35575b1561023957610c99611118565b610ca1611e28565b1561025f57610caf33611e9a565b8015610d21575b156102395761084093610cd0610ccb85611e9a565b6113ff565b60018060a01b03928360045416936015549560405196636e59fe2560e11b602089015260248801521660448601526064850152608484015260a4830152600060c483015260c482526107bb826102fc565b506005546001600160a01b03163314610cb6565b506005546001600160a01b03163314610c8c565b604051906101e082016001600160401b038111838210176102dc57604052565b6001600160401b0381116102dc57601f01601f191660200190565b346101ba5760203660031901126101ba576004356001600160401b0381116101ba57366023820112156101ba578060040135610dbf81610d69565b90610dcd6040519283610318565b80825236602482850101116101ba57602081600092602461001696018386013783010152611266565b346101ba5760203660031901126101ba57600435610e13816101a9565b803b6000610e2082610d69565b92610e2e6040519485610318565b82845260208401903c602d815110610e5257602a602091015160601c604051908152f35b60405163baf3f0f760e01b8152600490fd5b346101ba5760003660031901126101ba57601654151580610e8d575b6020906040519015158152f35b506017544210610e80565b346101ba5760203660031901126101ba576020610b0e600435610eba816101a9565b6006546040516001600160a01b03928316858201528481529116610edd826102c1565b60405190610eea826102c1565b6018825277697364656c656761746f724e6f646528616464726573732960401b8583015261207c565b346101ba5760003660031901126101ba576020610b0e611e28565b346101ba5760003660031901126101ba57602061097860018060a01b0360035416604051610f5b816102c1565b600681526569416765282960d01b848201526040519161096f836102e1565b60405190610f87826102c1565b601582527469735573657245786973747328616464726573732960581b6020830152565b634e487b7160e01b600052601160045260246000fd5b6000198114610fd05760010190565b610fab565b604051610fe1816102e1565b60008152906000368137565b60405190610ffa826102c1565b601382527273657373696f6e54544c5365636f6e6473282960681b6020830152565b91908201809211610fd057565b610834611115916107bb6110956110b161104460015461019d565b61104f601854610fc1565b61105881601855565b60408051466020820190815230928201929092526001600160a01b03909316606084015242608084015260a08301919091529092839060c0820190565b03926110a9601f1994858101835282610318565b519020601655565b6110e76110e26110dc6110c560035461019d565b6110cd610fd5565b906110d6610fed565b906120b8565b4261101c565b601755565b6110f260135461019d565b604051631c21e34160e21b60208201526024810194909452929384906044820190565b50565b600260115414611129576002601155565b604051633ee5aeb560e01b8152600490fd5b60405190611148826102c1565b601e82527f7265736f6c76655472616e7366657254617267657428616464726573732900006020830152565b6001600160a01b0391821681529116602082015260400190565b91908260409103126101ba57602082519201516111aa816101a9565b90565b601380546001600160a01b0319166001600160a01b0392909216919091179055565b908160609103126101ba57805191604060208301516111ed816101a9565b9201516111aa816101a9565b1561120057565b60405162461bcd60e51b815260206004820152600f60248201526e1b594b9a5b9d985b1a590b9a5b9a5d608a1b6044820152606490fd5b60165415801561125a575b61124857565b604051630fe82d2560e11b8152600490fd5b50601754421015611242565b61127360155415156111f9565b61127b611237565b611283611e28565b1561025f57600180549091906001600160a01b03163303610239578051906001600160401b0382116102dc576112c3826112be601454610271565b611370565b60209081601f841160011461130057509282939183926000946112f5575b50501b916000199060031b1c191617601455565b0151925038806112e1565b6014600052919083601f1981166000805160206121ca833981519152946000905b88838310611356575050501061133d575b505050811b01601455565b015160001960f88460031b161c19169055388080611332565b858701518855909601959485019487935090810190611321565b601f811161137c575050565b6000906014825260208220906020601f850160051c830194106113ba575b601f0160051c01915b8281106113af57505050565b8181556001016113a3565b909250829061139a565b91908260409103126101ba576020825192015190565b6060919493600093608083019660018060a01b03168352602083015260408201520152565b1561140657565b60405162461bcd60e51b81526020600482015260136024820152726d652e756e7365637572652e4f52433131353560681b6044820152606490fd5b90601582029180830460151490151715610fd057565b90602d820291808304602d1490151715610fd057565b91908203918211610fd057565b91611487610ccb84611e9a565b3461149157505050565b6107bb6111159361151b6114ae6114a734611441565b6064900490565b6115106114c56114bd34611457565b6103e8900490565b6115056114d46114bd34611457565b936114fa6114ef866114ea866114ea863461146d565b61146d565b610a77600b5461019d565b610a77600d5461019d565b610a77600e5461019d565b610a77600f5461019d565b61067761152960045461019d565b601554604051636e59fe2560e11b602082015260248101919091526001600160a01b039093166044840152606483019590955260848201939093523460a4820152600160c48201529291839060e4820190565b1561158357565b60405162461bcd60e51b815260206004820152600f60248201526e6d652e7a65726f2e6164647265737360881b6044820152606490fd5b908160209103126101ba57516111aa816101a9565b6040513d6000823e3d90fd5b6001600160a01b039091169052565b6118ba6101c06118dc92611623611601825161019d565b600280546001600160a01b0319166001600160a01b0392909216919091179055565b611655611633602083015161019d565b600380546001600160a01b0319166001600160a01b0392909216919091179055565b611687611665604083015161019d565b600480546001600160a01b0319166001600160a01b0392909216919091179055565b6116b9611697606083015161019d565b600580546001600160a01b0319166001600160a01b0392909216919091179055565b6116eb6116c9608083015161019d565b600680546001600160a01b0319166001600160a01b0392909216919091179055565b61171d6116fb60a083015161019d565b600780546001600160a01b0319166001600160a01b0392909216919091179055565b61174f61172d60c083015161019d565b600880546001600160a01b0319166001600160a01b0392909216919091179055565b61178161175f60e083015161019d565b600980546001600160a01b0319166001600160a01b0392909216919091179055565b6117b461179261010083015161019d565b600a80546001600160a01b0319166001600160a01b0392909216919091179055565b6117e76117c561012083015161019d565b600b80546001600160a01b0319166001600160a01b0392909216919091179055565b61181a6117f861014083015161019d565b600c80546001600160a01b0319166001600160a01b0392909216919091179055565b61184d61182b61016083015161019d565b600d80546001600160a01b0319166001600160a01b0392909216919091179055565b61188061185e61018083015161019d565b600e80546001600160a01b0319166001600160a01b0392909216919091179055565b6118b36118916101a083015161019d565b600f80546001600160a01b0319166001600160a01b0392909216919091179055565b015161019d565b601080546001600160a01b0319166001600160a01b0392909216919091179055565b565b6118ec610b9a60005461019d565b604051634bf9c0ad60e11b815290602082600481845afa918215610c5057600092611def575b5060405163cfbffe5360e01b815291602083600481855afa928315610c5057600093611dce575b5060405163ab6e844f60e01b815290602082600481865afa918215610c5057600092611dad575b50604051630536340960e21b815291602083600481875afa928315610c5057600093611d8c575b5060405163d1f956b160e01b815292602084600481885afa938415610c5057600094611d6b575b50604051631cc3bfab60e31b815293602085600481895afa948515610c5057600095611d4a575b5060405163e09d394d60e01b81526020816004818a5afa908115610c5057600091611d2b575b506040516314ac1b5960e21b81526020816004818b5afa908115610c5057600091611d0c575b5060405163013cf08b60e01b815260006004820152916020836024818c5afa928315610c5057600093611ceb575b50604051635e09dbe760e01b8152976020896004818d5afa948515610c5057600499600096611cca575b50604051635506ee0b60e11b8152996020908b90818e5afa968715610c505760049a600098611ca9575b50604051636402742760e01b81529a6020908c90818f5afa988915610c505760049b60009a611c88575b5060208d6040519d8e80926330125cf560e01b82525afa9a8b15610c50578d60049d60009d611c66575b506020906040519e8f80926324768d9160e01b82525afa9c8d15610c505760009d611c45575b506040516313b92d3560e31b81529d8e9081905a92600491602094fa9d8e15610c505760009e611c24575b50611b51610d49565b9e8f91611b5e90836115db565b611b6b90602083016115db565b60400190611b78916115db565b611b859060608e016115db565b611b929060808d016115db565b611b9f9060a08c016115db565b611bac9060c08b016115db565b611bb99060e08a016115db565b611bc79061010089016115db565b611bd59061012088016115db565b611be39061014087016115db565b611bf19061016086016115db565b611bff9061018085016115db565b611c0d906101a084016115db565b611c1b906101c083016115db565b6118dc906115ea565b611c3e919e5060203d602011610c4957610c3b8183610318565b9c38611b48565b611c5f919d5060203d602011610c4957610c3b8183610318565b9b38611b1d565b6020919d50611c8190823d8411610c4957610c3b8183610318565b9c90611af7565b611ca2919a5060203d602011610c4957610c3b8183610318565b9838611acd565b611cc391985060203d602011610c4957610c3b8183610318565b9638611aa3565b611ce491965060203d602011610c4957610c3b8183610318565b9438611a79565b611d0591935060203d602011610c4957610c3b8183610318565b9138611a4f565b611d25915060203d602011610c4957610c3b8183610318565b38611a21565b611d44915060203d602011610c4957610c3b8183610318565b386119fb565b611d6491955060203d602011610c4957610c3b8183610318565b93386119d5565b611d8591945060203d602011610c4957610c3b8183610318565b92386119ae565b611da691935060203d602011610c4957610c3b8183610318565b9138611987565b611dc791925060203d602011610c4957610c3b8183610318565b9038611960565b611de891935060203d602011610c4957610c3b8183610318565b9138611939565b611e0991925060203d602011610c4957610c3b8183610318565b9038611912565b908160209103126101ba575180151581036101ba5790565b600254604051611e70916001600160a01b031690611e45816102c1565b6008815267697353616665282960c01b602082015260405191611e67836102e1565b60008352611fbd565b9080611e8f575b156105b257806020806111aa93518301019101611e10565b506020815114611e77565b611ef460018060a01b038060025416604051916020941684830152838252611ec1826102c1565b60405190611ece826102c1565b601582527469735365637572654261736528616464726573732960581b85830152611fbd565b9080611f11575b156105b257816111aa9282518301019101611e10565b5081815114611efb565b3d15611f46573d90611f2c82610d69565b91611f3a6040519384610318565b82523d6000602084013e565b606090565b908015611fb9576001600160a01b038216918215611fa757600080808481945af1611f74611f1b565b50156105b25760207fcec1f18c3ab8ddaaa107a1591e3c369667eec613626611a8deaedef43069fcdd91604051908152a2565b60405163e6c4247b60e01b8152600490fd5b5050565b803b1561201f57600092839263ffffffff60e01b9060208151910120169061200f6024604051809360208201958652611fff815180926020868601910161033b565b8101036004810184520182610318565b51915afa61201b611f1b565b9091565b505050600090604051612031816102e1565b6000815290565b929161204691600094611fbd565b9080612071575b6120545750565b9091506020818051810103126101ba576020015161019d816101a9565b50602081511461204d565b929161208a91600094611fbd565b90806120ad575b6120985750565b6111aa91925060208082518301019101611e10565b506020815114612091565b92916120c691600094611fbd565b90806120eb575b6120d45750565b9091506020818051810103126101ba576020015190565b5060208151146120cd565b906020825192015163ffffffff60e01b90818116936004811061211857505050565b60040360031b82901b16169150565b6001600160a01b03811615611fa757600080918351908260208601915af19061214e611f1b565b9115612158575090565b8051600091906004116121a35761216f91506120f6565b81511561217f5750805190602001fd5b604051630870274d60e21b81526001600160e01b0319919091166004820152602490fd5b5061216f56fe992e981f1f6d8cb3a32ce3b31107393c58fbd9a9052cb415a19d578833bf80d6ce6d7b5282bd9a3661ae061feed1dbda4e52ab073b1f9285be6e155d9c38d4eca264697066735822122062296a575ba7dd5ca7db6ade0c6eaf1a961b21693afc5480de78bff710b287b164736f6c63430008140033","linkReferences":{}},"methodIdentifiers":{"Burn(uint256)":"b90306ad","Txn(address,uint256,uint256,uint256)":"a3e884b0","TxnSys(address,uint256,uint256,uint256)":"c107930a","_delegatorCount()":"a1f7f539","_getImplementation(address)":"c54e44b0","_isDelegatorNode(address)":"e01ad5fd","_isSafe()":"e0a9bc2b","_isSecureBase(address)":"af484526","_isSigner(address)":"1f185d16","forceTransfer(address)":"0399c93c","getBalance()":"12065fe0","getHexbase()":"3b9b7955","id()":"af640d0f","initialize()":"8129fc1c","login(uint256)":"3dbfd97c","name()":"06fdde03","owner()":"8da5cb5b","parent()":"60f96a8f","setName(string)":"c47f0027","setParent(address)":"1499c592","stor()":"b28175c4","syncBaseAddr()":"339459a6","systemAge()":"fdc10bc9","validateToken()":"d4ace81b"},"id":28}