{"abi":[{"type":"constructor","inputs":[{"name":"_hex","type":"address","internalType":"address"},{"name":"_parent","type":"address","internalType":"address"}],"stateMutability":"nonpayable"},{"type":"fallback","stateMutability":"payable"},{"type":"receive","stateMutability":"payable"},{"type":"function","name":"Burn","inputs":[{"name":"amount","type":"uint256","internalType":"uint256"}],"outputs":[],"stateMutability":"nonpayable"},{"type":"function","name":"CALC_SELF","inputs":[],"outputs":[{"name":"","type":"uint256","internalType":"uint256"}],"stateMutability":"view"},{"type":"function","name":"CALC_SELF_FLUSH","inputs":[],"outputs":[{"name":"","type":"uint256","internalType":"uint256"}],"stateMutability":"view"},{"type":"function","name":"Txn","inputs":[{"name":"paramAdd","type":"address","internalType":"address"},{"name":"_id_maxint","type":"uint256","internalType":"uint256"},{"name":"_qty","type":"uint256","internalType":"uint256"},{"name":"_type","type":"uint256","internalType":"uint256"}],"outputs":[],"stateMutability":"payable"},{"type":"function","name":"TxnSys","inputs":[{"name":"paramAdd","type":"address","internalType":"address"},{"name":"_id_maxint","type":"uint256","internalType":"uint256"},{"name":"_qty","type":"uint256","internalType":"uint256"},{"name":"_amt","type":"uint256","internalType":"uint256"}],"outputs":[],"stateMutability":"payable"},{"type":"function","name":"_delegatorCount","inputs":[],"outputs":[{"name":"","type":"uint256","internalType":"uint256"}],"stateMutability":"view"},{"type":"function","name":"_getImplementation","inputs":[{"name":"clone","type":"address","internalType":"address"}],"outputs":[{"name":"impl","type":"address","internalType":"address"}],"stateMutability":"view"},{"type":"function","name":"_isDelegatorNode","inputs":[{"name":"sender","type":"address","internalType":"address"}],"outputs":[{"name":"","type":"bool","internalType":"bool"}],"stateMutability":"view"},{"type":"function","name":"_isSafe","inputs":[],"outputs":[{"name":"","type":"bool","internalType":"bool"}],"stateMutability":"view"},{"type":"function","name":"_isSecureBase","inputs":[{"name":"sender","type":"address","internalType":"address"}],"outputs":[{"name":"","type":"bool","internalType":"bool"}],"stateMutability":"view"},{"type":"function","name":"_isSigner","inputs":[{"name":"sender","type":"address","internalType":"address"}],"outputs":[{"name":"","type":"bool","internalType":"bool"}],"stateMutability":"view"},{"type":"function","name":"forceTransfer","inputs":[{"name":"_inst","type":"address","internalType":"address"}],"outputs":[],"stateMutability":"nonpayable"},{"type":"function","name":"getBalance","inputs":[],"outputs":[{"name":"","type":"uint256","internalType":"uint256"}],"stateMutability":"view"},{"type":"function","name":"getHexbase","inputs":[],"outputs":[{"name":"","type":"address","internalType":"address"}],"stateMutability":"view"},{"type":"function","name":"id","inputs":[],"outputs":[{"name":"","type":"uint256","internalType":"uint256"}],"stateMutability":"view"},{"type":"function","name":"initialize","inputs":[],"outputs":[],"stateMutability":"payable"},{"type":"function","name":"login","inputs":[{"name":"_maxinterval","type":"uint256","internalType":"uint256"},{"name":"doClaim","type":"bool","internalType":"bool"}],"outputs":[],"stateMutability":"nonpayable"},{"type":"function","name":"logout","inputs":[],"outputs":[],"stateMutability":"nonpayable"},{"type":"function","name":"name","inputs":[],"outputs":[{"name":"","type":"string","internalType":"string"}],"stateMutability":"view"},{"type":"function","name":"owner","inputs":[],"outputs":[{"name":"","type":"address","internalType":"address"}],"stateMutability":"view"},{"type":"function","name":"parent","inputs":[],"outputs":[{"name":"","type":"address","internalType":"address"}],"stateMutability":"view"},{"type":"function","name":"refresh","inputs":[{"name":"_maxinterval","type":"uint256","internalType":"uint256"}],"outputs":[],"stateMutability":"nonpayable"},{"type":"function","name":"setName","inputs":[{"name":"_name","type":"string","internalType":"string"}],"outputs":[],"stateMutability":"nonpayable"},{"type":"function","name":"setParent","inputs":[{"name":"newparent","type":"address","internalType":"address"}],"outputs":[],"stateMutability":"nonpayable"},{"type":"function","name":"setStop","inputs":[{"name":"s","type":"bool","internalType":"bool"}],"outputs":[],"stateMutability":"nonpayable"},{"type":"function","name":"stopLogin","inputs":[],"outputs":[{"name":"","type":"bool","internalType":"bool"}],"stateMutability":"view"},{"type":"function","name":"stor","inputs":[],"outputs":[{"name":"","type":"address","internalType":"address"}],"stateMutability":"view"},{"type":"function","name":"syncBaseAddr","inputs":[],"outputs":[],"stateMutability":"nonpayable"},{"type":"function","name":"systemAge","inputs":[],"outputs":[{"name":"","type":"uint256","internalType":"uint256"}],"stateMutability":"view"},{"type":"function","name":"triggerautoClaim","inputs":[{"name":"_maxinterval","type":"uint256","internalType":"uint256"},{"name":"doClaim","type":"bool","internalType":"bool"}],"outputs":[],"stateMutability":"nonpayable"},{"type":"function","name":"validateToken","inputs":[],"outputs":[{"name":"","type":"bool","internalType":"bool"}],"stateMutability":"view"},{"type":"event","name":"EthBurned","inputs":[{"name":"sender","type":"address","indexed":true,"internalType":"address"},{"name":"amount","type":"uint256","indexed":false,"internalType":"uint256"}],"anonymous":false},{"type":"event","name":"EthTransferred","inputs":[{"name":"to","type":"address","indexed":true,"internalType":"address"},{"name":"amount","type":"uint256","indexed":false,"internalType":"uint256"}],"anonymous":false},{"type":"event","name":"HexBaseUpdated","inputs":[{"name":"previousHexBase","type":"address","indexed":true,"internalType":"address"},{"name":"newHexBase","type":"address","indexed":true,"internalType":"address"}],"anonymous":false},{"type":"event","name":"OwnerUpdated","inputs":[{"name":"previousOwner","type":"address","indexed":true,"internalType":"address"},{"name":"newOwner","type":"address","indexed":true,"internalType":"address"}],"anonymous":false},{"type":"event","name":"TVLClaimTxnLog","inputs":[{"name":"to","type":"address","indexed":false,"internalType":"address"},{"name":"value","type":"uint256","indexed":false,"internalType":"uint256"},{"name":"flush","type":"uint256","indexed":false,"internalType":"uint256"},{"name":"_time","type":"uint256","indexed":false,"internalType":"uint256"}],"anonymous":false},{"type":"error","name":"CallFailed","inputs":[]},{"type":"error","name":"InvalidAddress","inputs":[]},{"type":"error","name":"InvalidState","inputs":[]},{"type":"error","name":"MeAlreadyInit","inputs":[]},{"type":"error","name":"MeInvalidInit","inputs":[]},{"type":"error","name":"MeInvalidStopped","inputs":[]},{"type":"error","name":"MeUnsecureORC","inputs":[]},{"type":"error","name":"MeZeroAddr","inputs":[]},{"type":"error","name":"NotAuthorized","inputs":[]},{"type":"error","name":"NotSafe","inputs":[]},{"type":"error","name":"ReentrancyGuardReentrantCall","inputs":[]},{"type":"error","name":"SessionExpired","inputs":[]},{"type":"error","name":"TargetCallFailed","inputs":[{"name":"selector","type":"bytes4","internalType":"bytes4"}]}],"bytecode":{"object":"0x608034620000c157601f620027de38819003918201601f19168301916001600160401b03831184841017620000c6578084926040948552833981010312620000c1576200005a60206200005283620000dc565b9201620000dc565b6001600160a01b0391821691908215620000af5760018060a01b0319928360015416908460005416176000556001600d55339084331617176001551690600e541617600e556040516126ec9081620000f28239f35b60405163e6c4247b60e01b8152600490fd5b600080fd5b634e487b7160e01b600052604160045260246000fd5b51906001600160a01b0382168203620000c15756fe60806040526004361015610018575b361561001657005b005b60003560e01c80630399c93c1461020857806306fdde031461020357806312065fe0146101fe578063129d99c3146101f95780631499c592146101f45780631f185d16146101ef5780631f3c99c3146101ea578063339459a6146101e557806335718f6d146101e05780633b9b7955146101db57806360f96a8f146101d6578063641657cb146101d15780638129fc1c146101cc5780638da5cb5b146101c75780639c06f470146101c25780639c75dd35146101bd578063a1f7f539146101b8578063a3e884b0146101b3578063af484526146101ae578063af640d0f146101a9578063b28175c4146101a4578063b90306ad1461019f578063c107930a1461019a578063c46b5ce614610195578063c47f002714610190578063c54e44b01461018b578063cfcf2c2d14610186578063d4ace81b14610181578063e01ad5fd1461017c578063e0a9bc2b146101775763fdc10bc90361000e5761141c565b611401565b61133a565b61131a565b6112f7565b611289565b611217565b61115d565b61100c565b610f14565b610eeb565b610ecd565b610e9c565b610da8565b610d17565b610cfb565b610a9b565b610a72565b6107bd565b61074d565b61071a565b6106f1565b6106c0565b6106a7565b61066e565b6105ab565b61051e565b610500565b6104e4565b610416565b61022f565b6001600160a01b031690565b6001600160a01b0381160361022a57565b600080fd5b3461022a57602036600319011261022a5760043561024c81610219565b6102546123cd565b156102e9576102623361243f565b80156102d5575b156102c357601154156102b15761027e611977565b6001600160a01b0381161561029f5761029890479061252d565b6001600d55005b604051631f2cdc6960e01b8152600490fd5b6040516301b3ca9d60e41b8152600490fd5b60405163ea8e4eb560e01b8152600490fd5b506005546001600160a01b03163314610269565b604051634ee2123760e11b8152600490fd5b600091031261022a57565b90600182811c92168015610336575b602083101461032057565b634e487b7160e01b600052602260045260246000fd5b91607f1691610315565b634e487b7160e01b600052604160045260246000fd5b6001600160401b03811161036957604052565b610340565b604081019081106001600160401b0382111761036957604052565b602081019081106001600160401b0382111761036957604052565b601f909101601f19168101906001600160401b0382119082101761036957604052565b60005b8381106103da5750506000910152565b81810151838201526020016103ca565b6040916020825261040a81518092816020860152602086860191016103c7565b601f01601f1916010190565b3461022a576000806003193601126104e1576040518160105461043881610306565b808452906001908181169081156104b95750600114610472575b61046e84610462818803826103a4565b604051918291826103ea565b0390f35b60108352602094506000805160206126978339815191525b8284106104a6575050508161046e936104629282010193610452565b805485850187015292850192810161048a565b61046e96506104629450602092508593915060ff191682840152151560051b82010193610452565b80fd5b3461022a57600036600319011261022a57602047604051908152f35b3461022a57600036600319011261022a576020601554604051908152f35b3461022a57602036600319011261022a5760043561053b81610219565b6105436123cd565b156102e9576105513361243f565b8015610597575b156102c357601154156102b15761056d611977565b6001600160a01b0316801561029f57600e80546001600160a01b0319169190911790556001600d55005b506005546001600160a01b03163314610558565b3461022a5760208060031936011261022a5761061e6004356105cc81610219565b6002546040516001600160a01b039283168582015284815291166105ef8261036e565b604051906105fc8261036e565b601182527069735369676e657228616464726573732960781b8583015261259b565b919080610664575b156106525781816106409261046e94518301019101611444565b60405190151581529081906020820190565b604051633204506f60e01b8152600490fd5b5080825114610626565b3461022a57600036600319011261022a576001546001600160a01b031633036102c35760001942014281116106a257601255005b6114d8565b3461022a57600036600319011261022a5761001661202f565b3461022a57600036600319011261022a576020601654604051908152f35b6001600160a01b03909116815260200190565b3461022a57600036600319011261022a576000546040516001600160a01b039091168152602090f35b3461022a57600036600319011261022a57600e546040516001600160a01b039091168152602090f35b8015150361022a57565b3461022a57602036600319011261022a5760043561076a81610743565b601154156102b15761077a6123cd565b156102e9576107883361243f565b80156107a9575b156102c35760ff8019601454169115151617601455600080f35b506005546001600160a01b0316331461078f565b6000806003193601126104e1576107d2611977565b601154610a60576107e161202f565b6107fa6107f56107f56107f560035461020d565b61020d565b60c06040918251918280926395bf75fd60e01b825260049485915afa9081156109625784908592610a2a575b50610832600a5461020d565b61087161084060015461020d565b918651906108638261085586602083016106de565b03601f1981018452836103a4565b61086b61199a565b90612616565b926001600160a01b03841615610976575050156109675791816108ca93856108a46107f56107f56107f56060985461020d565b926108b060015461020d565b9451631dd7707560e11b81529687958694859384016119ef565b03925af19081156109625761091991839084908590610926575b600e80546001600160a01b0319166001600160a01b0390921691909117905590915061091490611a09565b611a09565b601155565b6109236001600d55565b80f35b50505061091461094f61090f9260603d811161095b575b61094781836103a4565b810190611a2b565b919350839250906108e4565b503d61093d565b61145c565b509051633204506f60e01b8152fd5b915092915015610a1c579180918361099a6107f56107f56107f56109c2985461020d565b90866109a7600e5461020d565b855163b1c4907960e01b8152978895869485939084016119ef565b03925af18015610962576109e492849285926109e9575b505061091490611a09565b610919565b6109149350610a0d9250803d10610a15575b610a0581836103a4565b8101906119d3565b9091386109d9565b503d6109fb565b8251633204506f60e01b8152fd5b9050610a4d915060c03d8111610a59575b610a4581836103a4565b810190611468565b50935091505038610826565b503d610a3b565b6040516304223ebf60e11b8152600490fd5b3461022a57600036600319011261022a576001546040516001600160a01b039091168152602090f35b3461022a5760408060031936011261022a57602435610ab981610743565b60ff60145416610cea5760115415610cd957610ad660015461020d565b6001600160a01b033382821614801590610cc5575b610cb45792610b2793600492610b096107f56107f58487541661020d565b908351809263509222cd60e01b8252818060209a8b958a83016106de565b03915afa90811561096257600091610c97575b5015610c5c578285610b556107f56107f585600f541661020d565b84516312995e1b60e21b815292839182905afa90811561096257600091610c6a575b5015610c5c576107f56107f5610b90926003541661020d565b9080516395bf75fd60e01b815260c0818581865afa90811561096257600091610c39575b5015610c2a575162aa4b7560e41b81529084908290849082905afa9384156109625761001694610bf792610bf292600092610bfd575b5050426114ee565b601255565b356117a1565b610c1c9250803d10610c23575b610c1481836103a4565b8101906114c9565b3880610bea565b503d610c0a565b51633204506f60e01b81529050fd5b610c51915060c03d8111610a5957610a4581836103a4565b505050505038610bb4565b505163ea8e4eb560e01b8152fd5b610c8a9150863d8811610c90575b610c8281836103a4565b810190611444565b38610b77565b503d610c78565b610cae9150863d8811610c9057610c8281836103a4565b38610b3a565b835163ea8e4eb560e01b8152600490fd5b5080610cd2600f5461020d565b1615610aeb565b81516301b3ca9d60e41b8152600490fd5b8151632100644360e11b8152600490fd5b3461022a57602036600319011261022a5761001660043561162f565b3461022a57600036600319011261022a576020610d7960018060a01b0360065416604051610d448161036e565b601381527267657464656c656761746f72436f756e74282960681b8482015260405191610d7083610389565b6000835261265a565b604051908152f35b608090600319011261022a57600435610d9981610219565b90602435906044359060643590565b610db136610d81565b601192919254156102b15760ff60145416610e8a57600490610dd1611a55565b610dd9611977565b60c0610def6107f56107f56107f560035461020d565b6040516395bf75fd60e01b815293849182905afa908115610962576000928392610e61575b5060658103610e375750501561065257610e2d92611d33565b6100166001600d55565b929450925050606b14610e4c575b5050610e2d565b1561065257610e5a90611bec565b3880610e45565b909250610e7c915060c03d8111610a5957610a4581836103a4565b505050929150919038610e14565b604051632100644360e11b8152600490fd5b3461022a57602036600319011261022a576020610ec3600435610ebe81610219565b61243f565b6040519015158152f35b3461022a57600036600319011261022a576020601154604051908152f35b3461022a57600036600319011261022a57600f546040516001600160a01b039091168152602090f35b3461022a57602036600319011261022a57600435610f306123cd565b156102e9576005546001600160a01b031633036102c35760009060046020610f5b6107f5855461020d565b6040516311be646b60e21b815292839182905afa80156109625783808481949382948391610fde575b505af1610f8f6124fd565b5015610652577fcdcc745fe377b103b45fa0cec23ae3ef93d6fc6a84a01f0d18c40b354dd1d5d8610fd8610fc76107f5600b5461020d565b604051938452929081906020820190565b0390a280f35b610fff915060203d8111611005575b610ff781836103a4565b810190611de5565b38610f84565b503d610fed565b61101536610d81565b919092601154156102b1576110286123cd565b156102e9576110363361243f565b8015611149575b156102c35761104a611977565b6110526123cd565b156102e9576110603361243f565b8015611135575b156102c35761107c6110788261243f565b1590565b611123576110946107f56107f56107f560045461020d565b9060115493823b1561022a57604051636e59fe2560e11b815260048101959095526001600160a01b039190911660248501526044840192909252606480840194909452608483019190915260a482019290925290600090829060c490829084905af180156109625761110a576100166001600d55565b8061111761111d92610356565b806102fb565b38610e2d565b60405163667313f360e11b8152600490fd5b506005546001600160a01b03163314611067565b506005546001600160a01b0316331461103d565b3461022a57604036600319011261022a5760243561117a81610743565b6111826123cd565b156102e9576111903361243f565b80156111a8575b156102c357610016906004356117a1565b506005546001600160a01b03163314611197565b6040519061030082016001600160401b0381118382101761036957604052565b6040519061016082016001600160401b0381118382101761036957604052565b6001600160401b03811161036957601f01601f191660200190565b3461022a57602036600319011261022a576004356001600160401b03811161022a573660238201121561022a578060040135611252816111fc565b9061126060405192836103a4565b808252366024828501011161022a57602081600092602461001696018386013783010152611a73565b3461022a57602036600319011261022a576004356112a681610219565b803b60006112b3826111fc565b926112c160405194856103a4565b82845260208401903c602d8151106112e557602a602091015160601c604051908152f35b60405163baf3f0f760e01b8152600490fd5b3461022a57600036600319011261022a57602060ff601454166040519015158152f35b3461022a57600036600319011261022a5760206012544210604051908152f35b3461022a5760208060031936011261022a5761046e906004359061135d82610219565b6006546040516001600160a01b03938416838201528281529216916113bd906113858161036e565b6040516113918161036e565b6018815277697364656c656761746f724e6f646528616464726573732960401b8482015260009461259b565b9190806113f7575b6113de575b505060405190151581529081906020820190565b6113f092508082518301019101611444565b38806113ca565b50808251146113c5565b3461022a57600036600319011261022a576020610ec36123cd565b3461022a57600036600319011261022a576020610d796124c0565b519061144282610743565b565b9081602091031261022a575161145981610743565b90565b6040513d6000823e3d90fd5b91908260c091031261022a57815161147f81610743565b91602081015161148e81610743565b91604082015161149d81610743565b9160608101516114ac81610743565b9160a060808301516114bd81610743565b92015161145981610743565b9081602091031261022a575190565b634e487b7160e01b600052601160045260246000fd5b919082018092116106a257565b919082039182116106a257565b908161030091031261022a5761151c6111bc565b90805182526020810151602083015260408101516040830152606081015160608301526080810151608083015260a081015160a083015260c081015160c083015260e081015160e0830152610100808201519083015261012080820151908301526101408082015190830152610160808201519083015261018080820151908301526101a080820151908301526101c080820151908301526101e08082015190830152610200808201519083015261022080820151908301526102408082015190830152610260808201519083015261028080820151908301526102a0611604818301611437565b908301526102c0611616818301611437565b908301526116286102e0809201611437565b9082015290565b6116436107f56107f56107f5600f5461020d565b604051809163725b6fff60e01b825281600460209485935afa90811561096257600091611784575b5061167d836116786124c0565b6114fb565b1161177a576116966107f56107f56107f5600f5461020d565b60405163143ec3b760e01b81526103e760048201529091908181602481865afa9081156109625760019260009261175d575b505016156116d4575050565b604051632e7c68e560e21b815260048101839052610300918290829060249082905afa91821561096257611720926102a09261171992600092611730575b5050611856565b0151151590565b6117275750565b61144290611bec565b61174f9250803d10611756575b61174781836103a4565b810190611508565b3880611712565b503d61173d565b6117739250803d10610c2357610c1481836103a4565b38806116c8565b5061144290611bec565b61179b9150823d8411610c2357610c1481836103a4565b3861166b565b9061162f5750565b5050565b6117b56111bc565b9060008083528060208401528060408401528060608401528060808401528060a08401528060c08401528060e08401528061010084015280610120840152806101408401528061016084015280610180840152806101a0840152806101c0840152806101e08401528061020084015280610220840152806102408401528061026084015280610280840152806102a0840152806102c08401526102e0830152565b906114426118626117ad565b92805184526020810151602085015260408101516040850152606081015160608501526080810151608085015260a081015160a085015260c081015160c085015260e081015160e0850152610100808201519085015261012080820151908501526101408082015190850152610160808201519085015261018080820151908501526101a080820151908501526101c080820151908501526101e08082015190850152610200808201519085015261022080820151908501526102408082015190850152610260808201519085015261028080820151908501526119566102a061194e81840151151590565b151590860152565b6119686102c061194e81840151151590565b6102e090810151151590840152565b6002600d5414611988576002600d55565b604051633ee5aeb560e01b8152600490fd5b604051906119a78261036e565b601e82527f7265736f6c76655472616e7366657254617267657428616464726573732900006020830152565b919082604091031261022a576020825192015161145981610219565b6001600160a01b0391821681529116602082015260400190565b600f80546001600160a01b0319166001600160a01b0392909216919091179055565b9081606091031261022a5780519160406020830151611a4981610219565b92015161145981610219565b601254421015611a6157565b604051630fe82d2560e11b8152600490fd5b601154156102b157611a83611a55565b60ff60145416610e8a57611a956123cd565b156102e957600180549091906001600160a01b031633036102c3578051906001600160401b03821161036957611ad582611ad0601054610306565b611b82565b60209081601f8411600114611b125750928293918392600094611b07575b50501b916000199060031b1c191617601055565b015192503880611af3565b6010600052919083601f198116600080516020612697833981519152946000905b88838310611b685750505010611b4f575b505050811b01601055565b015160001960f88460031b161c19169055388080611b44565b858701518855909601959485019487935090810190611b33565b601f8111611b8e575050565b6000906010825260208220906020601f850160051c83019410611bcc575b601f0160051c01915b828110611bc157505050565b818155600101611bb5565b9092508290611bac565b919082604091031261022a576020825192015190565b6040611c3391611c066107f56107f56107f560045461020d565b60115460008451809681958294631aa0449160e21b84526004840160209093929193604081019481520152565b03925af18015610962577f651be9e06b82f2bfd92524ddb5eab4f5bce9aec2963c2417fa0337eb9cdd65ee916000908192611d02575b5080611cda575b81611cad575b611ca8611c816124c0565b60408051308152602081019490945283019390935260608201929092529081906080820190565b0390a1565b611cc182611cbc600c5461020d565b61252d565b611cd5611cd0836016546114ee565b601655565b611c76565b611ce981611cbc60015461020d565b611cfd611cf8826015546114ee565b601555565b611c70565b9050611d25915060403d8111611d2c575b611d1d81836103a4565b810190611bd6565b9038611c69565b503d611d13565b9091611d416110788361243f565b6111235734611d4f57505050565b611d5e34611cbc600b5461020d565b611d726107f56107f56107f560045461020d565b60115493813b1561022a57604051636e59fe2560e11b815260048101959095526001600160a01b0393909316602485015260448401929092526064830152346084830152606560a4830152600090829060c490829084905af1801561096257611dd85750565b8061111761144292610356565b9081602091031261022a575161145981610219565b6001600160a01b039091169052565b61200d61014061144292611e42611e20825161020d565b600280546001600160a01b0319166001600160a01b0392909216919091179055565b611e74611e52602083015161020d565b600380546001600160a01b0319166001600160a01b0392909216919091179055565b611ea6611e84604083015161020d565b600480546001600160a01b0319166001600160a01b0392909216919091179055565b611ed8611eb6606083015161020d565b600580546001600160a01b0319166001600160a01b0392909216919091179055565b611f0a611ee8608083015161020d565b600680546001600160a01b0319166001600160a01b0392909216919091179055565b611f3c611f1a60a083015161020d565b600780546001600160a01b0319166001600160a01b0392909216919091179055565b611f6e611f4c60c083015161020d565b600880546001600160a01b0319166001600160a01b0392909216919091179055565b611fa0611f7e60e083015161020d565b600980546001600160a01b0319166001600160a01b0392909216919091179055565b611fd3611fb161010083015161020d565b600a80546001600160a01b0319166001600160a01b0392909216919091179055565b612006611fe461012083015161020d565b600b80546001600160a01b0319166001600160a01b0392909216919091179055565b015161020d565b600c80546001600160a01b0319166001600160a01b0392909216919091179055565b600061203e6107f5825461020d565b60408051634bf9c0ad60e11b8152929190600490602080868481875afa9586156109625785966123ae575b50815163cfbffe5360e01b81529181838581885afa92831561096257869361238f575b50805163ab6e844f60e01b815282818681895afa908115610962578791612372575b508151630536340960e21b8152838187818a5afa908115610962578891612355575b50825163d1f956b160e01b815291848388818b5afa928315610962578993612336575b508351631cc3bfab60e31b815293858589818c5afa948515610962578a95612317575b50805163e09d394d60e01b81529686888a818d5afa9687156109625789988c986122f8575b5082516314ac1b5960e21b81529881908a90818e5afa988915610962578c996122d9575b5082519963013cf08b60e01b8b52818b8d8180612183868201906000602083019252565b03915afa9a8b15610962578d9b6122ba575b508351635e09dbe760e01b81529b828d8381845afa9c8d15610962578e9d612299575b508290855192838092635506ee0b60e11b82525afa9c8d15610962579c61227a575b506121e36111dc565b9c6121ee908e611dfa565b8c01906121fa91611dfa565b8a019061220691611dfa565b6122139060608a01611dfa565b6122209060808901611dfa565b61222d9060a08801611dfa565b61223a9060c08701611dfa565b6122479060e08601611dfa565b612255906101008501611dfa565b612263906101208401611dfa565b612271906101408301611dfa565b61144290611e09565b81612292929d508d3d1061100557610ff781836103a4565b9a386121da565b83919d506122b390823d841161100557610ff781836103a4565b9c906121b8565b6122d2919b50823d841161100557610ff781836103a4565b9938612195565b816122f1929a503d8b1161100557610ff781836103a4565b973861215f565b816123109299503d8a1161100557610ff781836103a4565b963861213b565b61232f919550863d881161100557610ff781836103a4565b9338612116565b61234e919350853d871161100557610ff781836103a4565b91386120f3565b61236c9150843d861161100557610ff781836103a4565b386120d0565b6123899150833d851161100557610ff781836103a4565b386120ae565b6123a7919350823d841161100557610ff781836103a4565b913861208c565b816123c69297503d881161100557610ff781836103a4565b9438612069565b600254604051612415916001600160a01b0316906123ea8161036e565b6008815267697353616665282960c01b60208201526040519161240c83610389565b6000835261259b565b9080612434575b15610652578060208061145993518301019101611444565b50602081511461241c565b61249960018060a01b0380600254166040519160209416848301528382526124668261036e565b604051906124738261036e565b601582527469735365637572654261736528616464726573732960581b8583015261259b565b90806124b6575b1561065257816114599282518301019101611444565b50818151146124a0565b600354604051611459916001600160a01b0316906124dd8161036e565b600681526569416765282960d01b602082015260405191610d7083610389565b3d15612528573d9061250e826111fc565b9161251c60405193846103a4565b82523d6000602084013e565b606090565b9080156117a9576001600160a01b03821691821561258957600080808481945af16125566124fd565b50156106525760207fcec1f18c3ab8ddaaa107a1591e3c369667eec613626611a8deaedef43069fcdd91604051908152a2565b60405163e6c4247b60e01b8152600490fd5b803b156125fd57600092839263ffffffff60e01b906020815191012016906125ed60246040518093602082019586526125dd81518092602086860191016103c7565b81010360048101845201826103a4565b51915afa6125f96124fd565b9091565b50505060009060405161260f81610389565b6000815290565b92916126249160009461259b565b908061264f575b6126325750565b90915060208180518101031261022a576020015161020d81610219565b50602081511461262b565b92916126689160009461259b565b908061268b575b6126765750565b611459919250602080825183010191016114c9565b50602081511461266f56fe1b6847dc741a1b0cd08d278845f9d819d87b734759afb55fe2de5cb82a9ae672a264697066735822122047c9df0baeca345bcf764b9551e411af3ec1b30e84f6362c12f203fe7b813be364736f6c63430008140033","linkReferences":{}},"methodIdentifiers":{"Burn(uint256)":"b90306ad","CALC_SELF()":"129d99c3","CALC_SELF_FLUSH()":"35718f6d","Txn(address,uint256,uint256,uint256)":"a3e884b0","TxnSys(address,uint256,uint256,uint256)":"c107930a","_delegatorCount()":"a1f7f539","_getImplementation(address)":"c54e44b0","_isDelegatorNode(address)":"e01ad5fd","_isSafe()":"e0a9bc2b","_isSecureBase(address)":"af484526","_isSigner(address)":"1f185d16","forceTransfer(address)":"0399c93c","getBalance()":"12065fe0","getHexbase()":"3b9b7955","id()":"af640d0f","initialize()":"8129fc1c","login(uint256,bool)":"9c06f470","logout()":"1f3c99c3","name()":"06fdde03","owner()":"8da5cb5b","parent()":"60f96a8f","refresh(uint256)":"9c75dd35","setName(string)":"c47f0027","setParent(address)":"1499c592","setStop(bool)":"641657cb","stopLogin()":"cfcf2c2d","stor()":"b28175c4","syncBaseAddr()":"339459a6","systemAge()":"fdc10bc9","triggerautoClaim(uint256,bool)":"c46b5ce6","validateToken()":"d4ace81b"},"id":28}