{"abi":[{"type":"constructor","inputs":[{"name":"_hex","type":"address","internalType":"address"},{"name":"_parent","type":"address","internalType":"address"}],"stateMutability":"nonpayable"},{"type":"fallback","stateMutability":"payable"},{"type":"receive","stateMutability":"payable"},{"type":"function","name":"Burn","inputs":[{"name":"amount","type":"uint256","internalType":"uint256"}],"outputs":[],"stateMutability":"nonpayable"},{"type":"function","name":"Txn","inputs":[{"name":"paramAdd","type":"address","internalType":"address"},{"name":"_id_maxint","type":"uint256","internalType":"uint256"},{"name":"_qty","type":"uint256","internalType":"uint256"},{"name":"_type","type":"uint256","internalType":"uint256"}],"outputs":[],"stateMutability":"payable"},{"type":"function","name":"TxnSys","inputs":[{"name":"paramAdd","type":"address","internalType":"address"},{"name":"_id_maxint","type":"uint256","internalType":"uint256"},{"name":"_qty","type":"uint256","internalType":"uint256"},{"name":"_amt","type":"uint256","internalType":"uint256"}],"outputs":[],"stateMutability":"payable"},{"type":"function","name":"_delegatorCount","inputs":[],"outputs":[{"name":"","type":"uint256","internalType":"uint256"}],"stateMutability":"view"},{"type":"function","name":"_getImplementation","inputs":[{"name":"clone","type":"address","internalType":"address"}],"outputs":[{"name":"impl","type":"address","internalType":"address"}],"stateMutability":"view"},{"type":"function","name":"_isDelegatorNode","inputs":[{"name":"sender","type":"address","internalType":"address"}],"outputs":[{"name":"","type":"bool","internalType":"bool"}],"stateMutability":"view"},{"type":"function","name":"_isSafe","inputs":[],"outputs":[{"name":"","type":"bool","internalType":"bool"}],"stateMutability":"view"},{"type":"function","name":"_isSecureBase","inputs":[{"name":"sender","type":"address","internalType":"address"}],"outputs":[{"name":"","type":"bool","internalType":"bool"}],"stateMutability":"view"},{"type":"function","name":"_isSigner","inputs":[{"name":"sender","type":"address","internalType":"address"}],"outputs":[{"name":"","type":"bool","internalType":"bool"}],"stateMutability":"view"},{"type":"function","name":"forceTransfer","inputs":[{"name":"_inst","type":"address","internalType":"address"}],"outputs":[],"stateMutability":"nonpayable"},{"type":"function","name":"getBalance","inputs":[],"outputs":[{"name":"","type":"uint256","internalType":"uint256"}],"stateMutability":"view"},{"type":"function","name":"getHexbase","inputs":[],"outputs":[{"name":"","type":"address","internalType":"address"}],"stateMutability":"view"},{"type":"function","name":"id","inputs":[],"outputs":[{"name":"","type":"uint256","internalType":"uint256"}],"stateMutability":"view"},{"type":"function","name":"initialize","inputs":[],"outputs":[],"stateMutability":"payable"},{"type":"function","name":"owner","inputs":[],"outputs":[{"name":"","type":"address","internalType":"address"}],"stateMutability":"view"},{"type":"function","name":"parent","inputs":[],"outputs":[{"name":"","type":"address","internalType":"address"}],"stateMutability":"view"},{"type":"function","name":"setParent","inputs":[{"name":"newparent","type":"address","internalType":"address"}],"outputs":[],"stateMutability":"nonpayable"},{"type":"function","name":"stor","inputs":[],"outputs":[{"name":"","type":"address","internalType":"address"}],"stateMutability":"view"},{"type":"function","name":"systemAge","inputs":[],"outputs":[{"name":"","type":"uint256","internalType":"uint256"}],"stateMutability":"view"},{"type":"event","name":"EthBurned","inputs":[{"name":"sender","type":"address","indexed":true,"internalType":"address"},{"name":"amount","type":"uint256","indexed":false,"internalType":"uint256"}],"anonymous":false},{"type":"event","name":"EthTransferred","inputs":[{"name":"to","type":"address","indexed":true,"internalType":"address"},{"name":"amount","type":"uint256","indexed":false,"internalType":"uint256"}],"anonymous":false},{"type":"event","name":"HexBaseUpdated","inputs":[{"name":"previousHexBase","type":"address","indexed":true,"internalType":"address"},{"name":"newHexBase","type":"address","indexed":true,"internalType":"address"}],"anonymous":false},{"type":"event","name":"OwnerUpdated","inputs":[{"name":"previousOwner","type":"address","indexed":true,"internalType":"address"},{"name":"newOwner","type":"address","indexed":true,"internalType":"address"}],"anonymous":false},{"type":"event","name":"TVLClaimTxnLog","inputs":[{"name":"to","type":"address","indexed":false,"internalType":"address"},{"name":"_value","type":"uint256","indexed":false,"internalType":"uint256"},{"name":"_time","type":"uint256","indexed":false,"internalType":"uint256"}],"anonymous":false},{"type":"error","name":"ReentrancyGuardReentrantCall","inputs":[]},{"type":"error","name":"TargetCallFailed","inputs":[{"name":"selector","type":"bytes4","internalType":"bytes4"}]}],"bytecode":{"object":"0x608034620000f457601f62001e8538819003918201601f19168301916001600160401b03831184841017620000f9578084926040948552833981010312620000f4576200005a602062000052836200010f565b92016200010f565b6001600160a01b0391821691908215620000af5760018060a01b03199283600154169084600054161760005560016003553390843316171760015516906004541617600455604051611d609081620001258239f35b60405162461bcd60e51b815260206004820152601360248201527f6f776e2e696e76616c69642e68657862617365000000000000000000000000006044820152606490fd5b600080fd5b634e487b7160e01b600052604160045260246000fd5b51906001600160a01b0382168203620000f45756fe60806040526004361015610018575b361561001657005b005b60003560e01c80630399c93c1461014857806312065fe0146101435780631499c5921461013e5780631f185d16146101395780633b9b79551461013457806360f96a8f1461012f5780638129fc1c1461012a5780638da5cb5b14610125578063a1f7f53914610120578063a3e884b01461011b578063af48452614610116578063af640d0f14610111578063b28175c41461010c578063b90306ad14610107578063c107930a14610102578063c54e44b0146100fd578063e01ad5fd146100f8578063e0a9bc2b146100f35763fdc10bc90361000e57610f49565b610f2e565b610e8f565b610df3565b610be1565b610b2e565b610b05565b610ae7565b610ab6565b610892565b6107b4565b61078b565b610463565b61043a565b610411565b610307565b610250565b610234565b610163565b6001600160a01b0381160361015e57565b600080fd5b3461015e57602036600319011261015e576004356101808161014d565b61019061018b611679565b6111ca565b610199336117a1565b80156101b2575b906101ad6100169261120b565b61155c565b50600054604051630536340960e21b81526001600160a01b0392916020908290600490829087165afa801561022f57610016936101ad926000926101ff575b5033911614919250506101a0565b61022191925060203d8111610228575b610219818361105c565b81019061107f565b90386101f1565b503d61020f565b611097565b3461015e57600036600319011261015e57602047604051908152f35b3461015e57602036600319011261015e5760043561026d8161014d565b61027861018b611679565b610281336117a1565b801561029a575b906102956100169261120b565b6115d5565b50600054604051630536340960e21b81526001600160a01b0392916020908290600490829087165afa801561022f5761001693610295926000926102e7575b503391161491925050610288565b61030091925060203d811161022857610219818361105c565b90386102d9565b3461015e5760208060031936011261015e576004908135906103288261014d565b8061033c610337600054610fff565b610fff565b604051634bf9c0ad60e11b815294859182905afa91821561022f576103816103bb9361039d926103cd966000926103db575b5061038f906040519384918783016103fe565b03601f19810184528361105c565b610397611844565b90611ac6565b9190806103d1575b6103ae90611871565b8082518301019101611661565b60405190151581529081906020820190565b0390f35b50815181146103a5565b61038f9192506103f790863d881161022857610219818361105c565b919061036e565b6001600160a01b03909116815260200190565b3461015e57600036600319011261015e576000546040516001600160a01b039091168152602090f35b3461015e57600036600319011261015e576004546040516001600160a01b039091168152602090f35b60008060031936011261078857610478610fdc565b60065461074a5761048c6103378254610fff565b6040805163013cf08b60e01b8082526000600483015292602091908282602481845afa91821561022f57869261072b575b506104c9600154610fff565b6104fd8551806104db848883016103fe565b03946104ef601f199687810184528361105c565b6104f76110d1565b90611b60565b916001600160a01b0383161561068757505060048361051f6103378954610fff565b865163ab6e844f60e01b815292839182905afa91821561022f5761059e6105906105c6926105cb956105c1958c9161066a575b5061058b610561600154610fff565b8b51631dd7707560e11b8c82015293849161057f916024840161110a565b0389810184528361105c565b611c4f565b868082518301019101611162565b600480546001600160a01b0319166001600160a01b039092169190911790559092565b611140565b600655565b816105d96103378754610fff565b845195865260006004870152859060249082905afa90811561022f5761063a948692610649575b5061058b919261062e610614600154610fff565b9551958692634ef260a960e01b90840152602483016103fe565b0390810184528361105c565b505b6106466001600355565b80f35b61058b925061066490843d861161022857610219818361105c565b91610600565b6106819150893d8b1161022857610219818361105c565b38610552565b858594959296975060049350519283809263ab6e844f60e01b82525afa93841561022f57610705956105c6956106fd956106f0948a9261070a575b5061058b919261062e6106d6600454610fff565b915163b1c4907960e01b898201529586926024840161110a565b8051810182019101611124565b919091611140565b61063c565b61058b925061072590873d891161022857610219818361105c565b916106c2565b610743919250833d851161022857610219818361105c565b90386104bd565b60405162461bcd60e51b81526020600482015260166024820152751b594b985b1c9958591e4b9a5b9a5d1a585b1a5e995960521b6044820152606490fd5b80fd5b3461015e57600036600319011261015e576001546040516001600160a01b039091168152602090f35b3461015e57600036600319011261015e5760005460405163d1f956b160e01b815290602090829060049082906001600160a01b03165afa90811561022f576103cd9161083d9160009161084d575b5060405161080f81611021565b601381527267657464656c656761746f72436f756e74282960681b60208201526108376110be565b91611be0565b6040519081529081906020820190565b610865915060203d811161022857610219818361105c565b38610802565b608090600319011261015e576004356108838161014d565b90602435906044359060643590565b61089b3661086b565b926108ac600693929354151561118c565b6108b4610fdc565b600184036108d0576108c6935061131f565b6100166001600355565b509160079150146108e2575b506108c6565b6000906108f26103378354610fff565b906040908151809363ab6e844f60e01b825281600460209687935afa91821561022f5761096192610953928791610a99575b506006548551631aa0449160e21b888201526024810191909152604481019290925261058b8260648101610381565b838082518301019101611297565b819291471015610a52575b8047101561097e575b505050506108dc565b61098b6103378654610fff565b908251908582600481635506ee0b60e11b968782525afa801561022f576109b9928891610a35575b5061191a565b836109c76103378754610fff565b91600484518094819382525afa93841561022f57600080516020611d0b8339815191529594610a10575b5050610a0390519283924291846112ad565b0390a13880808080610975565b610a039294509081610a2d92903d1061022857610219818361105c565b9290386109f1565b610a4c9150873d891161022857610219818361105c565b386109b3565b610a6683610a61600154610fff565b61191a565b600080516020611d0b833981519152610a91610a83600154610fff565b8451918291874291846112ad565b0390a161096c565b610ab09150863d881161022857610219818361105c565b38610924565b3461015e57602036600319011261015e576020610add600435610ad88161014d565b6117a1565b6040519015158152f35b3461015e57600036600319011261015e576020600654604051908152f35b3461015e57600036600319011261015e576005546040516001600160a01b039091168152602090f35b3461015e57602036600319011261015e57600054604051630536340960e21b8152906001600160a01b03906020908390600490829085165afa91821561022f57600092610bc1575b5033911603610b8a576100166004356119f1565b60405162461bcd60e51b815260206004820152600f60248201526e6f776e2e6e6f6e617574682e44414f60881b6044820152606490fd5b610bda91925060203d811161022857610219818361105c565b9038610b76565b610bea3661086b565b610bfa600694939454151561118c565b610c0561018b611679565b610c0e336117a1565b8015610d8c575b610c1e9061120b565b610c26610fdc565b610c3161018b611679565b610c3a336117a1565b8015610d20575b93610c4d60049561120b565b610c5e610c59856117a1565b611255565b60005460405163ab6e844f60e01b81529560209187919082906001600160a01b03165afa91821561022f57610ced95600093610cf8575b50600654604051636e59fe2560e11b602082015260248101919091526001600160a01b0390951660448601526064850191909152608484019290925260a4830191909152600060c483015261058b8260e48101610381565b506100166001600355565b61058b935090610d186103819260203d811161022857610219818361105c565b935090610c95565b50600054604051630536340960e21b81526001600160a01b039591602090829060049082908a165afa801561022f57600496610c4d92600092610d6c575b503391161491955050610c41565b610d8591925060203d811161022857610219818361105c565b9038610d5e565b50600054604051630536340960e21b8152906001600160a01b03906020908390600490829085165afa90811561022f57610c1e92600092610dd3575b501633149050610c15565b610dec91925060203d811161022857610219818361105c565b9038610dc8565b3461015e57602036600319011261015e57600435610e108161014d565b803b6000610e1d826110a3565b92610e2b604051948561105c565b82845260208401903c602d815110610e5457602a6103cd91015160601c604051918291826103fe565b60405162461bcd60e51b81526020600482015260136024820152724e6f742061206d696e696d616c2070726f787960681b6044820152606490fd5b3461015e5760208060031936011261015e5760048035610eae8161014d565b60005460405163d1f956b160e01b81526001600160a01b03949093909182918591829088165afa90811561022f576103cd946103bb94600093610f0f575b506040519316818401528252610f0182611021565b610f096118b6565b90611ba4565b610f27919350823d841161022857610219818361105c565b9138610eec565b3461015e57600036600319011261015e576020610add611679565b3461015e57600036600319011261015e5760005460405163111ea8c160e21b815290602090829060049082906001600160a01b03165afa90811561022f576103cd9161083d91600091610fbe575b50604051610fa481611021565b6005815264616765282960d81b60208201526108376110be565b610fd6915060203d811161022857610219818361105c565b38610f97565b600260035414610fed576002600355565b604051633ee5aeb560e01b8152600490fd5b6001600160a01b031690565b634e487b7160e01b600052604160045260246000fd5b604081019081106001600160401b0382111761103c57604052565b61100b565b602081019081106001600160401b0382111761103c57604052565b601f909101601f19168101906001600160401b0382119082101761103c57604052565b9081602091031261015e57516110948161014d565b90565b6040513d6000823e3d90fd5b6001600160401b03811161103c57601f01601f191660200190565b604051906110cb82611041565b60008252565b604051906110de82611021565b601e82527f7265736f6c76655472616e7366657254617267657428616464726573732900006020830152565b6001600160a01b0391821681529116602082015260400190565b919082604091031261015e57602082519201516110948161014d565b600580546001600160a01b0319166001600160a01b0392909216919091179055565b9081606091031261015e57805191604060208301516111808161014d565b9201516110948161014d565b1561119357565b60405162461bcd60e51b815260206004820152600f60248201526e1b594b9a5b9d985b1a590b9a5b9a5d608a1b6044820152606490fd5b156111d157565b60405162461bcd60e51b81526020600482015260126024820152716f776e2e696e76616c69642e69735361666560701b6044820152606490fd5b1561121257565b60405162461bcd60e51b815260206004820152601b60248201527a6f776e2e6e6f6e617574682e44414f6f725365637572656261736560281b6044820152606490fd5b1561125c57565b60405162461bcd60e51b81526020600482015260136024820152726d652e756e7365637572652e4f52433131353560681b6044820152606490fd5b919082604091031261015e576020825192015190565b604091949392606082019560018060a01b0316825260208201520152565b634e487b7160e01b600052601160045260246000fd5b906015820291808304601514901517156112f757565b6112cb565b90602d820291808304602d14901517156112f757565b919082039182116112f757565b9061132c610c59836117a1565b3461133657505050565b611349611342346112e1565b6064900490565b9261135e611356346112fc565b6103e8900490565b9061136b611356346112fc565b916113838361137e8361137e8a34611312565b611312565b916000966113946103378954610fff565b926040938451958691635e09dbe760e01b83528260046020998a935afa801561022f576113c7928c91611545575061191a565b6004856113d76103378c54610fff565b8651636402742760e01b815292839182905afa92831561022f57600493611404928c91611545575061191a565b846114126103378b54610fff565b85516330125cf560e01b815293849182905afa801561022f5761143b928a9161152e575061191a565b60048361144b6103378a54610fff565b84516324768d9160e01b815292839182905afa94851561022f57600495611478928a9161152e575061191a565b826114866103378954610fff565b835163ab6e844f60e01b815295869182905afa93841561022f576115029794611505575b506006549151636e59fe2560e11b9381019390935260248301919091526001600160a01b039094166044820152606481019290925260848201929092523460a4820152600160c48201529061058b8260e48101610381565b50565b61058b9450906115256103819392853d871161022857610219818361105c565b945090916114aa565b610a4c9150863d881161022857610219818361105c565b610a4c9150883d8a1161022857610219818361105c565b6115909061156d600654151561118c565b611575610fdc565b6115896001600160a01b0382161515611597565b479061191a565b6001600355565b1561159e57565b60405162461bcd60e51b815260206004820152600f60248201526e6d652e7a65726f2e6164647265737360881b6044820152606490fd5b6115e2600654151561118c565b6115ea610fdc565b6001600160a01b03166115fe811515611597565b600480546001600160a01b0319169190911790556001600355565b1561162057565b60405162461bcd60e51b81526020600482015260196024820152781bdddb8b9cd8599959dd585c990b98d85b1b0b99985a5b1959603a1b6044820152606490fd5b9081602091031261015e5751801515810361015e5790565b600054604051634bf9c0ad60e11b8152906020908190839060049082906001600160a01b03165afa91821561022f57611094926116ef9160009161170a575b506040516116c581611021565b6008815267697353616665282960c01b84820152604051916116e683611041565b60008352611ac6565b919080611700575b6103ae90611619565b50815181146116f7565b6117219150833d851161022857610219818361105c565b386116b8565b6040519061173482611021565b601582527469735365637572654261736528616464726573732960581b6020830152565b1561175f57565b60405162461bcd60e51b815260206004820152601a6024820152791bdddb8b9cd958dd5c9958985cd94b98d85b1b0b99985a5b195960321b6044820152606490fd5b6000546117b6906001600160a01b0316610fff565b604051918291634bf9c0ad60e11b835282600460209485935afa92831561022f57611094936118069261038192600092611821575b506117fe906040519384918783016103fe565b610397611727565b919080611817575b6103ae90611758565b508151811461180e565b6117fe91925061183d90863d881161022857610219818361105c565b91906117eb565b6040519061185182611021565b601182527069735369676e657228616464726573732960781b6020830152565b1561187857565b60405162461bcd60e51b81526020600482015260166024820152751bdddb8b9cda59db995c8b98d85b1b0b99985a5b195960521b6044820152606490fd5b604051906118c382611021565b6018825277697364656c656761746f724e6f646528616464726573732960401b6020830152565b3d15611915573d906118fb826110a3565b91611909604051938461105c565b82523d6000602084013e565b606090565b9080156119ed576001600160a01b0382169182156119b757600080808481945af16119436118ea565b501561197c576040519081527fcec1f18c3ab8ddaaa107a1591e3c369667eec613626611a8deaedef43069fcdd9080602081015b0390a2565b60405162461bcd60e51b81526020600482015260136024820152721bdddb8b9d1c985b9cd9995c8b99985a5b1959606a1b6044820152606490fd5b60405162461bcd60e51b815260206004820152600e60248201526d6f776e2e696e76616c69642e746f60901b6044820152606490fd5b5050565b600080546040516311be646b60e21b815290602090829060049082906001600160a01b03165afa90811561022f578284819382938391611aa8575b505af1611a376118ea565b5015611a715760405190815233907fcdcc745fe377b103b45fa0cec23ae3ef93d6fc6a84a01f0d18c40b354dd1d5d8908060208101611977565b60405162461bcd60e51b815260206004820152600f60248201526e1bdddb8b989d5c9b8b99985a5b1959608a1b6044820152606490fd5b611ac0915060203d811161022857610219818361105c565b38611a2c565b9190823b15611b47578051906020918263ffffffff60e01b92012016916040519180830193845281519160005b838110611b33575050509181611b206024826000979596889701878382015203600481018452018261105c565b5191620dbba0fa611b2f6118ea565b9091565b818101830151858201602401528201611af3565b505050600090604051611b5981611041565b6000815290565b9291611b6e91600094611ac6565b9080611b99575b611b7c5750565b90915060208180518101031261015e5760200151610fff8161014d565b506020815114611b75565b9291611bb291600094611ac6565b9080611bd5575b611bc05750565b61109491925060208082518301019101611661565b506020815114611bb9565b9291611bee91600094611ac6565b9080611c13575b611bfc5750565b90915060208180518101031261015e576020015190565b506020815114611bf5565b906020825192015163ffffffff60e01b908181169360048110611c4057505050565b60040360031b82901b16169150565b6001600160a01b03811615611cd057600080918351908260208601915af190611c766118ea565b9115611c80575090565b805160009190600411611cca57611c979150611c1e565b815115611ca75750805190602001fd5b604051630870274d60e21b81526001600160e01b03199091166004820152602490fd5b50611c97565b60405162461bcd60e51b81526020600482015260126024820152711bdddb8b9a5b9d985b1a590b9d185c99d95d60721b6044820152606490fdfe7d4a1422ffa08136e1bf377ead2864b211694a782b7a63c0ffc9852048b99b34a26469706673582212202acf96ecf9f120ce21372e4c51215ca77c7cc53d61e6516fdec8bfa067fe255364736f6c63430008140033","linkReferences":{}},"methodIdentifiers":{"Burn(uint256)":"b90306ad","Txn(address,uint256,uint256,uint256)":"a3e884b0","TxnSys(address,uint256,uint256,uint256)":"c107930a","_delegatorCount()":"a1f7f539","_getImplementation(address)":"c54e44b0","_isDelegatorNode(address)":"e01ad5fd","_isSafe()":"e0a9bc2b","_isSecureBase(address)":"af484526","_isSigner(address)":"1f185d16","forceTransfer(address)":"0399c93c","getBalance()":"12065fe0","getHexbase()":"3b9b7955","id()":"af640d0f","initialize()":"8129fc1c","owner()":"8da5cb5b","parent()":"60f96a8f","setParent(address)":"1499c592","stor()":"b28175c4","systemAge()":"fdc10bc9"},"id":29}