{"abi":[{"type":"constructor","inputs":[{"name":"_hex","type":"address","internalType":"address"},{"name":"_parent","type":"address","internalType":"address"}],"stateMutability":"nonpayable"},{"type":"fallback","stateMutability":"payable"},{"type":"receive","stateMutability":"payable"},{"type":"function","name":"Burn","inputs":[{"name":"amount","type":"uint256","internalType":"uint256"}],"outputs":[],"stateMutability":"nonpayable"},{"type":"function","name":"Txn","inputs":[{"name":"paramAdd","type":"address","internalType":"address"},{"name":"_id_maxint","type":"uint256","internalType":"uint256"},{"name":"_qty","type":"uint256","internalType":"uint256"},{"name":"_type","type":"uint256","internalType":"uint256"}],"outputs":[],"stateMutability":"payable"},{"type":"function","name":"TxnSys","inputs":[{"name":"paramAdd","type":"address","internalType":"address"},{"name":"_id_maxint","type":"uint256","internalType":"uint256"},{"name":"_qty","type":"uint256","internalType":"uint256"},{"name":"_amt","type":"uint256","internalType":"uint256"}],"outputs":[],"stateMutability":"payable"},{"type":"function","name":"_delegatorCount","inputs":[],"outputs":[{"name":"","type":"uint256","internalType":"uint256"}],"stateMutability":"view"},{"type":"function","name":"_getImplementation","inputs":[{"name":"clone","type":"address","internalType":"address"}],"outputs":[{"name":"impl","type":"address","internalType":"address"}],"stateMutability":"view"},{"type":"function","name":"_isDelegatorNode","inputs":[{"name":"sender","type":"address","internalType":"address"}],"outputs":[{"name":"","type":"bool","internalType":"bool"}],"stateMutability":"view"},{"type":"function","name":"_isSafe","inputs":[],"outputs":[{"name":"","type":"bool","internalType":"bool"}],"stateMutability":"view"},{"type":"function","name":"_isSecureBase","inputs":[{"name":"sender","type":"address","internalType":"address"}],"outputs":[{"name":"","type":"bool","internalType":"bool"}],"stateMutability":"view"},{"type":"function","name":"_isSigner","inputs":[{"name":"sender","type":"address","internalType":"address"}],"outputs":[{"name":"","type":"bool","internalType":"bool"}],"stateMutability":"view"},{"type":"function","name":"forceTransfer","inputs":[{"name":"_inst","type":"address","internalType":"address"}],"outputs":[],"stateMutability":"nonpayable"},{"type":"function","name":"getBalance","inputs":[],"outputs":[{"name":"","type":"uint256","internalType":"uint256"}],"stateMutability":"view"},{"type":"function","name":"getHexbase","inputs":[],"outputs":[{"name":"","type":"address","internalType":"address"}],"stateMutability":"view"},{"type":"function","name":"id","inputs":[],"outputs":[{"name":"","type":"uint256","internalType":"uint256"}],"stateMutability":"view"},{"type":"function","name":"initialize","inputs":[],"outputs":[],"stateMutability":"payable"},{"type":"function","name":"name","inputs":[],"outputs":[{"name":"","type":"string","internalType":"string"}],"stateMutability":"view"},{"type":"function","name":"owner","inputs":[],"outputs":[{"name":"","type":"address","internalType":"address"}],"stateMutability":"view"},{"type":"function","name":"parent","inputs":[],"outputs":[{"name":"","type":"address","internalType":"address"}],"stateMutability":"view"},{"type":"function","name":"setName","inputs":[{"name":"_name","type":"string","internalType":"string"}],"outputs":[],"stateMutability":"nonpayable"},{"type":"function","name":"setParent","inputs":[{"name":"newparent","type":"address","internalType":"address"}],"outputs":[],"stateMutability":"nonpayable"},{"type":"function","name":"stor","inputs":[],"outputs":[{"name":"","type":"address","internalType":"address"}],"stateMutability":"view"},{"type":"function","name":"systemAge","inputs":[],"outputs":[{"name":"","type":"uint256","internalType":"uint256"}],"stateMutability":"view"},{"type":"event","name":"EthBurned","inputs":[{"name":"sender","type":"address","indexed":true,"internalType":"address"},{"name":"amount","type":"uint256","indexed":false,"internalType":"uint256"}],"anonymous":false},{"type":"event","name":"EthTransferred","inputs":[{"name":"to","type":"address","indexed":true,"internalType":"address"},{"name":"amount","type":"uint256","indexed":false,"internalType":"uint256"}],"anonymous":false},{"type":"event","name":"HexBaseUpdated","inputs":[{"name":"previousHexBase","type":"address","indexed":true,"internalType":"address"},{"name":"newHexBase","type":"address","indexed":true,"internalType":"address"}],"anonymous":false},{"type":"event","name":"OwnerUpdated","inputs":[{"name":"previousOwner","type":"address","indexed":true,"internalType":"address"},{"name":"newOwner","type":"address","indexed":true,"internalType":"address"}],"anonymous":false},{"type":"event","name":"TVLClaimTxnLog","inputs":[{"name":"to","type":"address","indexed":false,"internalType":"address"},{"name":"_value","type":"uint256","indexed":false,"internalType":"uint256"},{"name":"_time","type":"uint256","indexed":false,"internalType":"uint256"},{"name":"prime","type":"bool","indexed":false,"internalType":"bool"}],"anonymous":false},{"type":"error","name":"CallFailed","inputs":[]},{"type":"error","name":"InvalidAddress","inputs":[]},{"type":"error","name":"InvalidState","inputs":[]},{"type":"error","name":"NotAuthorized","inputs":[]},{"type":"error","name":"NotSafe","inputs":[]},{"type":"error","name":"ReentrancyGuardReentrantCall","inputs":[]},{"type":"error","name":"TargetCallFailed","inputs":[{"name":"selector","type":"bytes4","internalType":"bytes4"}]}],"bytecode":{"object":"0x608034620000c157601f62001f6238819003918201601f19168301916001600160401b03831184841017620000c6578084926040948552833981010312620000c1576200005a60206200005283620000dc565b9201620000dc565b6001600160a01b0391821691908215620000af5760018060a01b03199283600154169084600054161760005560016002553390843316171760015516906003541617600355604051611e709081620000f28239f35b60405163e6c4247b60e01b8152600490fd5b600080fd5b634e487b7160e01b600052604160045260246000fd5b51906001600160a01b0382168203620000c15756fe60806040526004361015610018575b361561001657005b005b60003560e01c80630399c93c1461016857806306fdde031461016357806312065fe01461015e5780631499c592146101595780631f185d16146101545780633b9b79551461014f57806360f96a8f1461014a5780638129fc1c146101455780638da5cb5b14610140578063a1f7f5391461013b578063a3e884b014610136578063af48452614610131578063af640d0f1461012c578063b28175c414610127578063b90306ad14610122578063c107930a1461011d578063c47f002714610118578063c54e44b014610113578063e01ad5fd1461010e578063e0a9bc2b146101095763fdc10bc90361000e5761102c565b611011565b610f72565b610f04565b610e92565b610dce565b610d4e565b610d25565b610d07565b610cd6565b610ab2565b6109d4565b6109ab565b610686565b61065d565b610634565b610526565b610477565b61045b565b61038d565b610183565b6001600160a01b0381160361017e57565b600080fd5b3461017e57602036600319011261017e576004356101a08161016d565b6101af6101ab6118b1565b1590565b610262576101bc3361198e565b80156101e3575b156101d157610016906117dc565b60405163ea8e4eb560e01b8152600490fd5b50600460206101fb6101f66000546110e0565b6110e0565b604051630536340960e21b815292839182905afa90811561025d5760009161022f575b506001600160a01b031633146101c3565b610250915060203d8111610256575b610248818361031b565b8101906110ec565b3861021e565b503d61023e565b611104565b604051634ee2123760e11b8152600490fd5b90600182811c921680156102a4575b602083101461028e57565b634e487b7160e01b600052602260045260246000fd5b91607f1691610283565b634e487b7160e01b600052604160045260246000fd5b604081019081106001600160401b038211176102df57604052565b6102ae565b602081019081106001600160401b038211176102df57604052565b61010081019081106001600160401b038211176102df57604052565b601f909101601f19168101906001600160401b038211908210176102df57604052565b60005b8381106103515750506000910152565b8181015183820152602001610341565b60409160208252610381815180928160208601526020868601910161033e565b601f01601f1916010190565b3461017e5760008060031936011261045857604051816005546103af81610274565b8084529060019081811690811561043057506001146103e9575b6103e5846103d98188038261031b565b60405191829182610361565b0390f35b6005835260209450600080516020611dfb8339815191525b82841061041d57505050816103e5936103d992820101936103c9565b8054858501870152928501928101610401565b6103e596506103d99450602092508593915060ff191682840152151560051b820101936103c9565b80fd5b3461017e57600036600319011261017e57602047604051908152f35b3461017e57602036600319011261017e576004356104948161016d565b61049f6101ab6118b1565b610262576104ac3361198e565b80156104c1575b156101d15761001690611855565b50600460206104d46101f66000546110e0565b604051630536340960e21b815292839182905afa90811561025d57600091610508575b506001600160a01b031633146104b3565b610520915060203d811161025657610248818361031b565b386104f7565b3461017e5760208060031936011261017e576004356105448161016d565b6004826105556101f66000546110e0565b604051634bf9c0ad60e11b815292839182905afa801561025d576105ae92610592926000926105fe575b506105a090604051938491878301610621565b03601f19810184528361031b565b6105a8611a0a565b90611c0e565b9190806105f4575b156105e25781816105d0926103e594518301019101611899565b60405190151581529081906020820190565b604051633204506f60e01b8152600490fd5b50808251146105b6565b6105a091925061061a90863d881161025657610248818361031b565b919061057f565b6001600160a01b03909116815260200190565b3461017e57600036600319011261017e576000546040516001600160a01b039091168152602090f35b3461017e57600036600319011261017e576003546040516001600160a01b039091168152602090f35b6000806003193601126104585761069b6110bf565b60065461096d576106af6101f682546110e0565b6040805163013cf08b60e01b8082526000600483015292602091908282602481845afa91821561025d57869261094e575b506106ec6001546110e0565b6107208551806106fe84888301610621565b0394610712601f199687810184528361031b565b61071a611123565b90611c89565b916001600160a01b038316156108aa5750506004836107426101f689546110e0565b865163ab6e844f60e01b815292839182905afa91821561025d576107c16107b36107e9926107ee956107e4958c9161088d575b506107ae6107846001546110e0565b8b51631dd7707560e11b8c8201529384916107a2916024840161115c565b0389810184528361031b565b611d78565b8680825183010191016111b4565b600380546001600160a01b0319166001600160a01b039092169190911790559092565b611192565b600655565b816107fc6101f687546110e0565b845195865260006004870152859060249082905afa90811561025d5761085d94869261086c575b506107ae91926108516108376001546110e0565b9551958692634ef260a960e01b9084015260248301610621565b0390810184528361031b565b505b6108696001600255565b80f35b6107ae925061088790843d861161025657610248818361031b565b91610823565b6108a49150893d8b1161025657610248818361031b565b38610775565b858594959296975060049350519283809263ab6e844f60e01b82525afa93841561025d57610928956107e99561092095610913948a9261092d575b506107ae91926108516108f96003546110e0565b915163b1c4907960e01b898201529586926024840161115c565b8051810182019101611176565b919091611192565b61085f565b6107ae925061094890873d891161025657610248818361031b565b916108e5565b610966919250833d851161025657610248818361031b565b90386106e0565b60405162461bcd60e51b81526020600482015260166024820152751b594b985b1c9958591e4b9a5b9a5d1a585b1a5e995960521b6044820152606490fd5b3461017e57600036600319011261017e576001546040516001600160a01b039091168152602090f35b3461017e57600036600319011261017e5760005460405163d1f956b160e01b815290602090829060049082906001600160a01b03165afa90811561025d576103e591610a5d91600091610a6d575b50604051610a2f816102c4565b601381527267657464656c656761746f72436f756e74282960681b6020820152610a57611110565b91611d09565b6040519081529081906020820190565b610a85915060203d811161025657610248818361031b565b38610a22565b608090600319011261017e57600435610aa38161016d565b90602435906044359060643590565b610abb36610a8b565b92610acc60069392935415156111de565b610ad46110bf565b60018403610af057610ae693506115a2565b6100166001600255565b50916007915014610b02575b50610ae6565b600090610b126101f683546110e0565b906040908151809363ab6e844f60e01b825281600460209687935afa91821561025d57610b8192610b73928791610cb9575b506006548551631aa0449160e21b88820152602481019190915260448101929092526107ae8260648101610592565b838082518301019101611513565b819291471015610c72575b80471015610b9e575b50505050610afc565b610bab6101f686546110e0565b908251908582600481635506ee0b60e11b968782525afa801561025d57610bd9928891610c55575b50611a9b565b83610be76101f687546110e0565b91600484518094819382525afa93841561025d57600080516020611e1b8339815191529594610c30575b5050610c239051928392429184611529565b0390a13880808080610b95565b610c239294509081610c4d92903d1061025657610248818361031b565b929038610c11565b610c6c9150873d891161025657610248818361031b565b38610bd3565b610c8683610c816001546110e0565b611a9b565b600080516020611e1b833981519152610cb1610ca36001546110e0565b845191829187429184611529565b0390a1610b8c565b610cd09150863d881161025657610248818361031b565b38610b44565b3461017e57602036600319011261017e576020610cfd600435610cf88161016d565b61198e565b6040519015158152f35b3461017e57600036600319011261017e576020600654604051908152f35b3461017e57600036600319011261017e576004546040516001600160a01b039091168152602090f35b3461017e57602036600319011261017e57600460018060a01b036020610d7782600054166110e0565b604051630536340960e21b815293849182905afa91821561025d57600092610dae575b50339116036101d157610016600435611b0d565b610dc791925060203d811161025657610248818361031b565b9038610d9a565b610dd736610a8b565b91610de560065415156111de565b610df06101ab6118b1565b61026257610dfd3361198e565b8015610e12575b156101d1576100169361121c565b5060046020610e256101f66000546110e0565b604051630536340960e21b815292839182905afa90811561025d57600091610e59575b506001600160a01b03163314610e04565b610e71915060203d811161025657610248818361031b565b38610e48565b6001600160401b0381116102df57601f01601f191660200190565b3461017e57602036600319011261017e576004356001600160401b03811161017e573660238201121561017e578060040135610ecd81610e77565b90610edb604051928361031b565b808252366024828501011161017e576020816000926024610016960183860137830101526112c5565b3461017e57602036600319011261017e57600435610f218161016d565b803b6000610f2e82610e77565b92610f3c604051948561031b565b82845260208401903c602d815110610f6057602a602091015160601c604051908152f35b60405163baf3f0f760e01b8152600490fd5b3461017e5760208060031936011261017e5760048035610f918161016d565b60005460405163d1f956b160e01b81526001600160a01b03949093909182918591829088165afa90811561025d576103e5946105d094600093610ff2575b506040519316818401528252610fe4826102c4565b610fec611a37565b90611ccd565b61100a919350823d841161025657610248818361031b565b9138610fcf565b3461017e57600036600319011261017e576020610cfd6118b1565b3461017e57600036600319011261017e5760005460405163111ea8c160e21b815290602090829060049082906001600160a01b03165afa90811561025d576103e591610a5d916000916110a1575b50604051611087816102c4565b6005815264616765282960d81b6020820152610a57611110565b6110b9915060203d811161025657610248818361031b565b3861107a565b60028054146110ce5760028055565b604051633ee5aeb560e01b8152600490fd5b6001600160a01b031690565b9081602091031261017e57516111018161016d565b90565b6040513d6000823e3d90fd5b6040519061111d826102e4565b60008252565b60405190611130826102c4565b601e82527f7265736f6c76655472616e7366657254617267657428616464726573732900006020830152565b6001600160a01b0391821681529116602082015260400190565b919082604091031261017e57602082519201516111018161016d565b600480546001600160a01b0319166001600160a01b0392909216919091179055565b9081606091031261017e57805191604060208301516111d28161016d565b9201516111018161016d565b156111e557565b60405162461bcd60e51b815260206004820152600f60248201526e1b594b9a5b9d985b1a590b9a5b9a5d608a1b6044820152606490fd5b9291906112276110bf565b6112326101ab6118b1565b6102625761123f3361198e565b8015611260575b156101d1576112549361145d565b61125e6001600255565b565b50600460206112736101f66000546110e0565b604051630536340960e21b815292839182905afa90811561025d576000916112a7575b506001600160a01b03163314611246565b6112bf915060203d811161025657610248818361031b565b38611296565b6112d260065415156111de565b6112da6118b1565b1561026257600180549091906001600160a01b031633036101d1578051906001600160401b0382116102df5761131a82611315600554610274565b6113c7565b60209081601f8411600114611357575092829391839260009461134c575b50501b916000199060031b1c191617600555565b015192503880611338565b6005600052919083601f198116600080516020611dfb833981519152946000905b888383106113ad5750505010611394575b505050811b01600555565b015160001960f88460031b161c19169055388080611389565b858701518855909601959485019487935090810190611378565b601f81116113d3575050565b6000906005825260208220906020601f850160051c83019410611411575b601f0160051c01915b82811061140657505050565b8181556001016113fa565b90925082906113f1565b1561142257565b60405162461bcd60e51b81526020600482015260136024820152726d652e756e7365637572652e4f52433131353560681b6044820152606490fd5b919260049361147361146e8561198e565b61141b565b60005460405163ab6e844f60e01b8152956001600160a01b0394916020918891829088165afa93841561025d576114f0966000956114f3575b506006549560405196636e59fe2560e11b602089015260248801521660448601526064850152608484015260a4830152600060c483015260c482526107ae826102ff565b50565b61150c91955060203d811161025657610248818361031b565b93386114ac565b919082604091031261017e576020825192015190565b6060919493600093608083019660018060a01b03168352602083015260408201520152565b634e487b7160e01b600052601160045260246000fd5b9060158202918083046015149015171561157a57565b61154e565b90602d820291808304602d149015171561157a57565b9190820391821161157a57565b906115af61146e8361198e565b346115b957505050565b6115cc6115c534611564565b6064900490565b926115e16115d93461157f565b6103e8900490565b906115ee6115d93461157f565b9161160683611601836116018a34611595565b611595565b916000966116176101f689546110e0565b926040938451958691635e09dbe760e01b83528260046020998a935afa801561025d5761164a928c916117c55750611a9b565b60048561165a6101f68c546110e0565b8651636402742760e01b815292839182905afa92831561025d57600493611687928c916117c55750611a9b565b846116956101f68b546110e0565b85516330125cf560e01b815293849182905afa801561025d576116be928a916117ae5750611a9b565b6004836116ce6101f68a546110e0565b84516324768d9160e01b815292839182905afa94851561025d576004956116fb928a916117ae5750611a9b565b826117096101f689546110e0565b835163ab6e844f60e01b815295869182905afa93841561025d576114f09794611785575b506006549151636e59fe2560e11b9381019390935260248301919091526001600160a01b039094166044820152606481019290925260848201929092523460a4820152600160c4820152906107ae8260e48101610592565b6107ae9450906117a56105929392853d871161025657610248818361031b565b9450909161172d565b610c6c9150863d881161025657610248818361031b565b610c6c9150883d8a1161025657610248818361031b565b611810906117ed60065415156111de565b6117f56110bf565b6118096001600160a01b0382161515611817565b4790611a9b565b6001600255565b1561181e57565b60405162461bcd60e51b815260206004820152600f60248201526e6d652e7a65726f2e6164647265737360881b6044820152606490fd5b61186260065415156111de565b61186a6110bf565b6001600160a01b031661187e811515611817565b600380546001600160a01b0319169190911790556001600255565b9081602091031261017e5751801515810361017e5790565b600054604051634bf9c0ad60e11b81526020918290829060049082906001600160a01b03165afa801561025d5761191991600091611940575b506040516118f7816102c4565b6008815267697353616665282960c01b84820152611913611110565b91611c0e565b9080611936575b156105e257816111019282518301019101611899565b5081815114611920565b6119579150833d851161025657610248818361031b565b386118ea565b6040519061196a826102c4565b601582527469735365637572654261736528616464726573732960581b6020830152565b61199c6101f66000546110e0565b906040518092634bf9c0ad60e11b825281600460209586935afa801561025d5761191992610592926000926119e7575b506119df90604051938491878301610621565b6105a861195d565b6119df919250611a0390863d881161025657610248818361031b565b91906119cc565b60405190611a17826102c4565b601182527069735369676e657228616464726573732960781b6020830152565b60405190611a44826102c4565b6018825277697364656c656761746f724e6f646528616464726573732960401b6020830152565b3d15611a96573d90611a7c82610e77565b91611a8a604051938461031b565b82523d6000602084013e565b606090565b908015611b09576001600160a01b038216918215611af757600080808481945af1611ac4611a6b565b50156105e25760207fcec1f18c3ab8ddaaa107a1591e3c369667eec613626611a8deaedef43069fcdd91604051908152a2565b60405163e6c4247b60e01b8152600490fd5b5050565b6000611b1c6101f682546110e0565b9060405180926311be646b60e21b825281600460209586935afa801561025d5782808681949382948391611bf1575b505af1611b56611a6b565b50156105e257600482611b6c6101f684546110e0565b604051635e09dbe760e01b815292839182905afa90811561025d577fcdcc745fe377b103b45fa0cec23ae3ef93d6fc6a84a01f0d18c40b354dd1d5d893611bcf9392611bd4575b50506040519384526001600160a01b0316929081906020820190565b0390a2565b611bea9250803d1061025657610248818361031b565b3880611bb3565b611c089150883d8a1161025657610248818361031b565b38611b4b565b803b15611c7057600092839263ffffffff60e01b90602081519101201690611c606024604051809360208201958652611c50815180926020868601910161033e565b810103600481018452018261031b565b51915afa611c6c611a6b565b9091565b505050600090604051611c82816102e4565b6000815290565b9291611c9791600094611c0e565b9080611cc2575b611ca55750565b90915060208180518101031261017e57602001516110e08161016d565b506020815114611c9e565b9291611cdb91600094611c0e565b9080611cfe575b611ce95750565b61110191925060208082518301019101611899565b506020815114611ce2565b9291611d1791600094611c0e565b9080611d3c575b611d255750565b90915060208180518101031261017e576020015190565b506020815114611d1e565b906020825192015163ffffffff60e01b908181169360048110611d6957505050565b60040360031b82901b16169150565b6001600160a01b03811615611af757600080918351908260208601915af190611d9f611a6b565b9115611da9575090565b805160009190600411611df457611dc09150611d47565b815115611dd05750805190602001fd5b604051630870274d60e21b81526001600160e01b0319919091166004820152602490fd5b50611dc056fe036b6384b5eca791c62761152d0c79bb0604c104a5fb6f4eb0703f3154bb3db0992e981f1f6d8cb3a32ce3b31107393c58fbd9a9052cb415a19d578833bf80d6a2646970667358221220b11403b89b27bc72f0133f96f8e31953615fb6f745f5fd6ec25727f73fbafa5964736f6c63430008140033","linkReferences":{}},"methodIdentifiers":{"Burn(uint256)":"b90306ad","Txn(address,uint256,uint256,uint256)":"a3e884b0","TxnSys(address,uint256,uint256,uint256)":"c107930a","_delegatorCount()":"a1f7f539","_getImplementation(address)":"c54e44b0","_isDelegatorNode(address)":"e01ad5fd","_isSafe()":"e0a9bc2b","_isSecureBase(address)":"af484526","_isSigner(address)":"1f185d16","forceTransfer(address)":"0399c93c","getBalance()":"12065fe0","getHexbase()":"3b9b7955","id()":"af640d0f","initialize()":"8129fc1c","name()":"06fdde03","owner()":"8da5cb5b","parent()":"60f96a8f","setName(string)":"c47f0027","setParent(address)":"1499c592","stor()":"b28175c4","systemAge()":"fdc10bc9"},"id":29}