{"abi":[{"type":"constructor","inputs":[{"name":"_hex","type":"address","internalType":"address"}],"stateMutability":"nonpayable"},{"type":"fallback","stateMutability":"payable"},{"type":"receive","stateMutability":"payable"},{"type":"function","name":"Burn","inputs":[{"name":"amount","type":"uint256","internalType":"uint256"}],"outputs":[],"stateMutability":"nonpayable"},{"type":"function","name":"_delegatorCount","inputs":[],"outputs":[{"name":"","type":"uint256","internalType":"uint256"}],"stateMutability":"view"},{"type":"function","name":"_getImplementation","inputs":[{"name":"clone","type":"address","internalType":"address"}],"outputs":[{"name":"impl","type":"address","internalType":"address"}],"stateMutability":"view"},{"type":"function","name":"_isDelegatorNode","inputs":[{"name":"sender","type":"address","internalType":"address"}],"outputs":[{"name":"","type":"bool","internalType":"bool"}],"stateMutability":"view"},{"type":"function","name":"_isSafe","inputs":[],"outputs":[{"name":"","type":"bool","internalType":"bool"}],"stateMutability":"view"},{"type":"function","name":"_isSecureBase","inputs":[{"name":"sender","type":"address","internalType":"address"}],"outputs":[{"name":"","type":"bool","internalType":"bool"}],"stateMutability":"view"},{"type":"function","name":"_isSigner","inputs":[{"name":"sender","type":"address","internalType":"address"}],"outputs":[{"name":"","type":"bool","internalType":"bool"}],"stateMutability":"view"},{"type":"function","name":"getBalance","inputs":[],"outputs":[{"name":"","type":"uint256","internalType":"uint256"}],"stateMutability":"view"},{"type":"function","name":"getHexbase","inputs":[],"outputs":[{"name":"","type":"address","internalType":"address"}],"stateMutability":"view"},{"type":"function","name":"getUserFromDelegator","inputs":[{"name":"delegator","type":"address","internalType":"address"}],"outputs":[{"name":"","type":"address","internalType":"address"}],"stateMutability":"view"},{"type":"function","name":"getValidatorDelegatorOfUser","inputs":[{"name":"user","type":"address","internalType":"address"}],"outputs":[{"name":"","type":"address","internalType":"address"},{"name":"","type":"address","internalType":"address"},{"name":"","type":"bool","internalType":"bool"}],"stateMutability":"view"},{"type":"function","name":"importIncome","inputs":[{"name":"userfrom","type":"address","internalType":"address"},{"name":"userto","type":"address","internalType":"address"}],"outputs":[],"stateMutability":"nonpayable"},{"type":"function","name":"incomeOf","inputs":[{"name":"user","type":"address","internalType":"address"}],"outputs":[{"name":"","type":"uint256","internalType":"uint256"}],"stateMutability":"view"},{"type":"function","name":"mapValidatorDelegator","inputs":[{"name":"user","type":"address","internalType":"address"},{"name":"vald","type":"address","internalType":"address"}],"outputs":[],"stateMutability":"nonpayable"},{"type":"function","name":"owner","inputs":[],"outputs":[{"name":"","type":"address","internalType":"address"}],"stateMutability":"view"},{"type":"function","name":"systemAge","inputs":[],"outputs":[{"name":"","type":"uint256","internalType":"uint256"}],"stateMutability":"view"},{"type":"function","name":"updateDelegators","inputs":[{"name":"valds","type":"address[]","internalType":"address[]"},{"name":"dels","type":"address[]","internalType":"address[]"},{"name":"active","type":"bool[]","internalType":"bool[]"}],"outputs":[],"stateMutability":"nonpayable"},{"type":"function","name":"updateIncome","inputs":[{"name":"users","type":"address[]","internalType":"address[]"},{"name":"amounts","type":"uint256[]","internalType":"uint256[]"},{"name":"increase","type":"bool","internalType":"bool"},{"name":"_age","type":"uint256","internalType":"uint256"}],"outputs":[],"stateMutability":"nonpayable"},{"type":"event","name":"DelegatorMapped","inputs":[{"name":"validator","type":"address","indexed":true,"internalType":"address"},{"name":"delegator","type":"address","indexed":false,"internalType":"address"},{"name":"user","type":"address","indexed":false,"internalType":"address"}],"anonymous":false},{"type":"event","name":"EthBurned","inputs":[{"name":"sender","type":"address","indexed":true,"internalType":"address"},{"name":"amount","type":"uint256","indexed":false,"internalType":"uint256"}],"anonymous":false},{"type":"event","name":"EthTransferred","inputs":[{"name":"to","type":"address","indexed":true,"internalType":"address"},{"name":"amount","type":"uint256","indexed":false,"internalType":"uint256"}],"anonymous":false},{"type":"event","name":"HexBaseUpdated","inputs":[{"name":"previousHexBase","type":"address","indexed":true,"internalType":"address"},{"name":"newHexBase","type":"address","indexed":true,"internalType":"address"}],"anonymous":false},{"type":"event","name":"OwnerUpdated","inputs":[{"name":"previousOwner","type":"address","indexed":true,"internalType":"address"},{"name":"newOwner","type":"address","indexed":true,"internalType":"address"}],"anonymous":false},{"type":"error","name":"AlreadyMapped","inputs":[]},{"type":"error","name":"AlreadyUpdatedForToDay","inputs":[]},{"type":"error","name":"ClaimLimitReached","inputs":[]},{"type":"error","name":"InactiveDelegator","inputs":[]},{"type":"error","name":"InsufficientIncome","inputs":[]},{"type":"error","name":"LengthMismatch","inputs":[]},{"type":"error","name":"NotExists","inputs":[]},{"type":"error","name":"NotMapped","inputs":[]},{"type":"error","name":"ReentrancyGuardReentrantCall","inputs":[]},{"type":"error","name":"StaticCallFailed","inputs":[]},{"type":"error","name":"TargetCallFailed","inputs":[{"name":"selector","type":"bytes4","internalType":"bytes4"}]},{"type":"error","name":"TransferFailed","inputs":[]},{"type":"error","name":"ZeroAddress","inputs":[]}],"bytecode":{"object":"0x6080346100ca57601f611a2438819003918201601f19168301916001600160401b038311848410176100cf578084926020946040528339810103126100ca57516001600160a01b038116908190036100ca5780156100855760018060a01b0319338160015416176001556000541617600055600160035560405161193e90816100e68239f35b60405162461bcd60e51b815260206004820152601360248201527f6f776e2e696e76616c69642e68657862617365000000000000000000000000006044820152606490fd5b600080fd5b634e487b7160e01b600052604160045260246000fdfe60806040526004361015610018575b361561001657005b005b60003560e01c806312065fe0146101385780631f185d16146101335780633b9b79551461012e5780633cce8eaf146101295780636ec35cd5146101245780638da5cb5b1461011f5780638dab13dc1461011a5780639b03bea6146101155780639fb2726b14610110578063a1f7f5391461010b578063af48452614610106578063b90306ad14610101578063c54e44b0146100fc578063d7a83fc6146100f7578063e01ad5fd146100f2578063e0a9bc2b146100ed578063e1430d4f146100e85763fdc10bc90361000e57610ed4565b610b95565b610b7a565b610ae0565b610aa0565b6109fe565b610942565b610911565b610853565b610760565b610718565b61068e565b610667565b610561565b6102e2565b610293565b61016a565b3461015457600036600319011261015457602047604051908152f35b600080fd5b6001600160a01b0381160361015457565b34610154576020806003193601126101545760049081359061018b82610159565b806101ad6101a16000546001600160a01b031690565b6001600160a01b031690565b60405194858092634bf9c0ad60e11b82525afa91821561028e5761020161023b9361021d9261024d9660009261025b575b5061020f906040519384918783019190916001600160a01b036020820193169052565b03601f198101845283610fe8565b6102176115d3565b906117df565b919080610251575b61022e9061160c565b80825183010191016113d0565b60405190151581529081906020820190565b0390f35b5081518114610225565b61020f91925061028090863d8811610287575b6102788183610fe8565b81019061100a565b91906101de565b503d61026e565b61101f565b346101545760003660031901126101545760206001600160a01b0360005416604051908152f35b6040906003190112610154576004356102d281610159565b906024356102df81610159565b90565b34610154576102f0366102ba565b6001600160a01b03808316156104e9576103156101a16000546001600160a01b031690565b60405180917fab6e844f00000000000000000000000000000000000000000000000000000000825281600460209384935afa90811561028e576103946101a1926103a194600091610513575b5060405190610386826102018b8783019190916001600160a01b036020820193169052565b61038e61105a565b906117b4565b805181018201910161100a565b156104e9576103f06103ec6103e5336103cd866001600160a01b03166000526004602052604060002090565b906001600160a01b0316600052602052604060002090565b5460ff1690565b1590565b6104bf578161045f7fae0545a793105c92763ffd2d1a106bc1e148f147ed5796b8706ba246e751d30d93610437866001600160a01b03166000526006602052604060002090565b906001600160a01b031673ffffffffffffffffffffffffffffffffffffffff19825416179055565b61048033610437866001600160a01b03166000526007602052604060002090565b6104a184610437336001600160a01b03166000526005602052604060002090565b604080513381526001600160a01b03959095166020860152911692a2005b60046040517f747845de000000000000000000000000000000000000000000000000000000008152fd5b60046040517fd92e233d000000000000000000000000000000000000000000000000000000008152fd5b61052a9150833d8511610287576102788183610fe8565b38610361565b9181601f840112156101545782359167ffffffffffffffff8311610154576020808501948460051b01011161015457565b346101545760603660031901126101545767ffffffffffffffff60043581811161015457610593903690600401610530565b602492919235828111610154576105ae903690600401610530565b9092604435908111610154576105c8903690600401610530565b9390926105db6105d66113e5565b611093565b6105e433611529565b80156105fd575b956105f8610016976110de565b611159565b506001600160a01b039560046020886000541660405192838092630536340960e21b82525afa801561028e57610016986105f892600092610647575b5033911614919750506105eb565b61066091925060203d8111610287576102788183610fe8565b9038610639565b346101545760003660031901126101545760206001600160a01b0360015416604051908152f35b346101545760203660031901126101545760606004356106ad81610159565b6001600160a01b03809116600052600660205280604060002054169060076020526040600020541681600052600460205260ff610701826040600020906001600160a01b0316600052602052604060002090565b541690604051928352602083015215156040820152f35b34610154576020366003190112610154576001600160a01b0360043561073d81610159565b1660005260086020526020604060002054604051908152f35b8015150361015457565b346101545760803660031901126101545767ffffffffffffffff60043581811161015457610792903690600401610530565b91602435908111610154576107ab903690600401610530565b604435916107b883610756565b6107c36105d66113e5565b6107cc33611529565b80156107e9575b946107e0610016966110de565b6064359461124a565b506001600160a01b039460046020876000541660405192838092630536340960e21b82525afa801561028e57610016976107e092600092610833575b5033911614919650506107d3565b61084c91925060203d8111610287576102788183610fe8565b9038610825565b3461015457600036600319011261015457600460206001600160a01b03600054166040519283809263d1f956b160e01b82525afa90811561028e5761024d916108e3916000916108f3575b506040516108ab81610fab565b601381527f67657464656c656761746f72436f756e7428290000000000000000000000000060208201526108dd611047565b916118cc565b6040519081529081906020820190565b61090b915060203d8111610287576102788183610fe8565b3861089e565b3461015457602036600319011261015457602061093860043561093381610159565b611529565b6040519015158152f35b346101545760203660031901126101545760046001600160a01b036020816000541660405193848092630536340960e21b82525afa91821561028e576000926109de575b503391160361099a576100166004356116c0565b606460405162461bcd60e51b815260206004820152600f60248201527f6f776e2e6e6f6e617574682e44414f00000000000000000000000000000000006044820152fd5b6109f791925060203d8111610287576102788183610fe8565b9038610986565b3461015457602036600319011261015457600435610a1b81610159565b803b6000610a288261102b565b92610a366040519485610fe8565b82845260208401903c602d815110610a5c57602a015160405160609190911c8152602090f35b606460405162461bcd60e51b815260206004820152601360248201527f4e6f742061206d696e696d616c2070726f7879000000000000000000000000006044820152fd5b34610154576020366003190112610154576020600435610abf81610159565b6001600160a01b038091166000526005825260406000205416604051908152f35b34610154576020806003193601126101545760048035610aff81610159565b6001600160a01b03928084600054166040519485809263d1f956b160e01b82525afa90811561028e5761024d9461023b94600093610b5b575b506040519316818401528252610b4d82610fab565b610b55611657565b90611890565b610b73919350823d8411610287576102788183610fe8565b9138610b38565b346101545760003660031901126101545760206109386113e5565b3461015457610ba3366102ba565b90610baf6105d66113e5565b610bb833611529565b8015610e71575b610bc8906110de565b6001600160a01b03918282169283156104e95781169182156104e957600093610bfb6101a186546001600160a01b031690565b9360405180957f6325dd0400000000000000000000000000000000000000000000000000000000825281600460209384935afa90811561028e57610c72610c7f9289988991610e54575b5060405190610c6a826102018a8783019190916001600160a01b036020820193169052565b61038e61133d565b8051810182019101611376565b610ca7610c9f856001600160a01b03166000526008602052604060002090565b91825461123d565b905503610cb2575050f35b610e5091610cd3826001600160a01b03166000526008602052604060002090565b54610cf1826001600160a01b03166000526008602052604060002090565b55610d3f610d22610d15846001600160a01b03166000526006602052604060002090565b546001600160a01b031690565b610437836001600160a01b03166000526006602052604060002090565b610d7f610d62610d15846001600160a01b03166000526006602052604060002090565b610437836001600160a01b03166000526007602052604060002090565b610dba610d9f836001600160a01b03166000526009602052604060002090565b54916001600160a01b03166000526009602052604060002090565b5582610dd9826001600160a01b03166000526008602052604060002090565b55610e17610dfa826001600160a01b03166000526006602052604060002090565b73ffffffffffffffffffffffffffffffffffffffff198154169055565b610e37610dfa826001600160a01b03166000526007602052604060002090565b6001600160a01b03166000526009602052604060002090565b5580f35b610e6b9150833d8511610287576102788183610fe8565b38610c45565b5060046001600160a01b036020816000541660405193848092630536340960e21b82525afa90811561028e57610bc892600092610eb4575b501633149050610bbf565b610ecd91925060203d8111610287576102788183610fe8565b9038610ea9565b3461015457600036600319011261015457600460206001600160a01b0360005416604051928380927f447aa3040000000000000000000000000000000000000000000000000000000082525afa90811561028e5761024d916108e391600091610f77575b50604051610f4581610fab565b600581527f616765282900000000000000000000000000000000000000000000000000000060208201526108dd611047565b610f8f915060203d8111610287576102788183610fe8565b38610f38565b634e487b7160e01b600052604160045260246000fd5b6040810190811067ffffffffffffffff821117610fc757604052565b610f95565b6020810190811067ffffffffffffffff821117610fc757604052565b90601f8019910116810190811067ffffffffffffffff821117610fc757604052565b9081602091031261015457516102df81610159565b6040513d6000823e3d90fd5b67ffffffffffffffff8111610fc757601f01601f191660200190565b6040519061105482610fcc565b60008252565b6040519061106782610fab565b601682527f67657455736572546f496e7374286164647265737329000000000000000000006020830152565b1561109a57565b606460405162461bcd60e51b815260206004820152601260248201527f6f776e2e696e76616c69642e69735361666500000000000000000000000000006044820152fd5b156110e557565b606460405162461bcd60e51b815260206004820152601b60248201527f6f776e2e6e6f6e617574682e44414f6f725365637572656261736500000000006044820152fd5b91908110156111395760051b0190565b634e487b7160e01b600052603260045260246000fd5b356102df81610159565b9394909291928183036111eb57600091825b84811061117c575050505050505050565b8061118a600192848b611129565b3561119481610756565b6001600160a01b036111a783878c611129565b356111b181610159565b16865260046020526111d6604087206111cb848a8c611129565b35906103cd82610159565b9060ff8019835416911515161790550161116b565b60046040517fff633a38000000000000000000000000000000000000000000000000000000008152fd5b634e487b7160e01b600052601160045260246000fd5b9190820391821161123857565b611215565b9190820180921161123857565b92918282036111eb5760005b8281106112665750505050505050565b851561130b5786611283610e3761127e84878a611129565b61114f565b54036112b35760046040517fe3913549000000000000000000000000000000000000000000000000000000008152fd5b80876112c8610e3761127e600195888b611129565b556112d4818685611129565b35611302610c9f6112e961127e85898c611129565b6001600160a01b03166000526008602052604060002090565b90555b01611256565b806113196001928685611129565b3561133661132e6112e961127e85898c611129565b91825461122b565b9055611305565b6040519061134a82610fab565b601182527f696e636f6d654f662861646472657373290000000000000000000000000000006020830152565b90816020910312610154575190565b1561138c57565b606460405162461bcd60e51b815260206004820152601960248201527f6f776e2e7361666567756172642e63616c6c2e6661696c6564000000000000006044820152fd5b9081602091031261015457516102df81610756565b6001600160a01b03600054166040518091634bf9c0ad60e11b825281600460209384935afa91821561028e576102df9261146d91600091611488575b5060405161142e81610fab565b600881527f6973536166652829000000000000000000000000000000000000000000000000848201526040519161146483610fcc565b600083526117df565b91908061147e575b61022e90611385565b5081518114611475565b61149f9150833d8511610287576102788183610fe8565b38611421565b604051906114b282610fab565b601582527f69735365637572654261736528616464726573732900000000000000000000006020830152565b156114e557565b606460405162461bcd60e51b815260206004820152601a60248201527f6f776e2e736563757265626173652e63616c6c2e6661696c65640000000000006044820152fd5b6000546001600160a01b0316604051918291634bf9c0ad60e11b835282600460209485935afa92831561028e576102df9361159592610201926000926115b0575b5061158d906040519384918783019190916001600160a01b036020820193169052565b6102176114a5565b9190806115a6575b61022e906114de565b508151811461159d565b61158d9192506115cc90863d8811610287576102788183610fe8565b919061156a565b604051906115e082610fab565b601182527f69735369676e65722861646472657373290000000000000000000000000000006020830152565b1561161357565b606460405162461bcd60e51b815260206004820152601660248201527f6f776e2e7369676e65722e63616c6c2e6661696c6564000000000000000000006044820152fd5b6040519061166482610fab565b601882527f697364656c656761746f724e6f646528616464726573732900000000000000006020830152565b3d156116bb573d906116a18261102b565b916116af6040519384610fe8565b82523d6000602084013e565b606090565b6000600460206001600160a01b03835416604051928380927f46f991ac0000000000000000000000000000000000000000000000000000000082525afa90811561028e578284819382938391611796575b505af161171c611690565b50156117525760405190815233907fcdcc745fe377b103b45fa0cec23ae3ef93d6fc6a84a01f0d18c40b354dd1d5d890602090a2565b606460405162461bcd60e51b815260206004820152600f60248201527f6f776e2e6275726e2e6661696c656400000000000000000000000000000000006044820152fd5b6117ae915060203d8111610287576102788183610fe8565b38611711565b906117bf92916117df565b90600090156117cc575090565b60405191506117da82610fcc565b815290565b9190823b15611877577fffffffff00000000000000000000000000000000000000000000000000000000815160208093012016916040519180830193845281519160005b83811061186357505050918161185060248260009795968897018783820152036004810184520182610fe8565b5191620dbba0fa61185f611690565b9091565b818101830151858201602401528201611823565b50505060009060405161188981610fcc565b6000815290565b929161189e916000946117df565b90806118c1575b6118ac5750565b6102df919250602080825183010191016113d0565b5060208151146118a5565b92916118da916000946117df565b90806118fd575b6118e85750565b6102df91925060208082518301019101611376565b5060208151146118e156fea2646970667358221220e2b30430ce878a66c92bc86945861000e3ae22e168e64fd886702ec88c7eb85464736f6c63430008140033","linkReferences":{}},"methodIdentifiers":{"Burn(uint256)":"b90306ad","_delegatorCount()":"a1f7f539","_getImplementation(address)":"c54e44b0","_isDelegatorNode(address)":"e01ad5fd","_isSafe()":"e0a9bc2b","_isSecureBase(address)":"af484526","_isSigner(address)":"1f185d16","getBalance()":"12065fe0","getHexbase()":"3b9b7955","getUserFromDelegator(address)":"d7a83fc6","getValidatorDelegatorOfUser(address)":"8dab13dc","importIncome(address,address)":"e1430d4f","incomeOf(address)":"9b03bea6","mapValidatorDelegator(address,address)":"3cce8eaf","owner()":"8da5cb5b","systemAge()":"fdc10bc9","updateDelegators(address[],address[],bool[])":"6ec35cd5","updateIncome(address[],uint256[],bool,uint256)":"9fb2726b"},"id":55}