{"abi":[{"type":"constructor","inputs":[{"name":"_hex","type":"address","internalType":"address"}],"stateMutability":"nonpayable"},{"type":"fallback","stateMutability":"payable"},{"type":"receive","stateMutability":"payable"},{"type":"function","name":"Burn","inputs":[{"name":"amount","type":"uint256","internalType":"uint256"}],"outputs":[],"stateMutability":"nonpayable"},{"type":"function","name":"_delegatorCount","inputs":[],"outputs":[{"name":"","type":"uint256","internalType":"uint256"}],"stateMutability":"view"},{"type":"function","name":"_getImplementation","inputs":[{"name":"clone","type":"address","internalType":"address"}],"outputs":[{"name":"impl","type":"address","internalType":"address"}],"stateMutability":"view"},{"type":"function","name":"_isDelegatorNode","inputs":[{"name":"sender","type":"address","internalType":"address"}],"outputs":[{"name":"","type":"bool","internalType":"bool"}],"stateMutability":"view"},{"type":"function","name":"_isSafe","inputs":[],"outputs":[{"name":"","type":"bool","internalType":"bool"}],"stateMutability":"view"},{"type":"function","name":"_isSecureBase","inputs":[{"name":"sender","type":"address","internalType":"address"}],"outputs":[{"name":"","type":"bool","internalType":"bool"}],"stateMutability":"view"},{"type":"function","name":"_isSigner","inputs":[{"name":"sender","type":"address","internalType":"address"}],"outputs":[{"name":"","type":"bool","internalType":"bool"}],"stateMutability":"view"},{"type":"function","name":"getBalance","inputs":[],"outputs":[{"name":"","type":"uint256","internalType":"uint256"}],"stateMutability":"view"},{"type":"function","name":"getHexbase","inputs":[],"outputs":[{"name":"","type":"address","internalType":"address"}],"stateMutability":"view"},{"type":"function","name":"getUserFromDelegator","inputs":[{"name":"delegator","type":"address","internalType":"address"}],"outputs":[{"name":"","type":"address","internalType":"address"}],"stateMutability":"view"},{"type":"function","name":"getValidatorDelegator","inputs":[{"name":"_v","type":"address","internalType":"address"},{"name":"_d","type":"address","internalType":"address"}],"outputs":[{"name":"","type":"bool","internalType":"bool"}],"stateMutability":"view"},{"type":"function","name":"getValidatorDelegatorOfUser","inputs":[{"name":"user","type":"address","internalType":"address"}],"outputs":[{"name":"","type":"address","internalType":"address"},{"name":"","type":"address","internalType":"address"},{"name":"","type":"bool","internalType":"bool"}],"stateMutability":"view"},{"type":"function","name":"importIncome","inputs":[{"name":"userfrom","type":"address","internalType":"address"},{"name":"userto","type":"address","internalType":"address"}],"outputs":[],"stateMutability":"nonpayable"},{"type":"function","name":"incomeOf","inputs":[{"name":"user","type":"address","internalType":"address"}],"outputs":[{"name":"","type":"uint256","internalType":"uint256"}],"stateMutability":"view"},{"type":"function","name":"mapValidatorDelegator","inputs":[{"name":"user","type":"address","internalType":"address"},{"name":"vald","type":"address","internalType":"address"},{"name":"activate","type":"bool","internalType":"bool"}],"outputs":[],"stateMutability":"nonpayable"},{"type":"function","name":"owner","inputs":[],"outputs":[{"name":"","type":"address","internalType":"address"}],"stateMutability":"view"},{"type":"function","name":"systemAge","inputs":[],"outputs":[{"name":"","type":"uint256","internalType":"uint256"}],"stateMutability":"view"},{"type":"function","name":"updateDelegators","inputs":[{"name":"valds","type":"address[]","internalType":"address[]"},{"name":"dels","type":"address[]","internalType":"address[]"},{"name":"active","type":"bool[]","internalType":"bool[]"}],"outputs":[],"stateMutability":"nonpayable"},{"type":"function","name":"updateIncome","inputs":[{"name":"users","type":"address[]","internalType":"address[]"},{"name":"amounts","type":"uint256[]","internalType":"uint256[]"},{"name":"increase","type":"bool","internalType":"bool"},{"name":"_age","type":"uint256","internalType":"uint256"}],"outputs":[],"stateMutability":"nonpayable"},{"type":"event","name":"DelegatorMapped","inputs":[{"name":"validator","type":"address","indexed":true,"internalType":"address"},{"name":"delegator","type":"address","indexed":false,"internalType":"address"},{"name":"user","type":"address","indexed":false,"internalType":"address"},{"name":"activate","type":"bool","indexed":false,"internalType":"bool"}],"anonymous":false},{"type":"event","name":"EthBurned","inputs":[{"name":"sender","type":"address","indexed":true,"internalType":"address"},{"name":"amount","type":"uint256","indexed":false,"internalType":"uint256"}],"anonymous":false},{"type":"event","name":"EthTransferred","inputs":[{"name":"to","type":"address","indexed":true,"internalType":"address"},{"name":"amount","type":"uint256","indexed":false,"internalType":"uint256"}],"anonymous":false},{"type":"event","name":"HexBaseUpdated","inputs":[{"name":"previousHexBase","type":"address","indexed":true,"internalType":"address"},{"name":"newHexBase","type":"address","indexed":true,"internalType":"address"}],"anonymous":false},{"type":"event","name":"OwnerUpdated","inputs":[{"name":"previousOwner","type":"address","indexed":true,"internalType":"address"},{"name":"newOwner","type":"address","indexed":true,"internalType":"address"}],"anonymous":false},{"type":"error","name":"AlreadyMapped","inputs":[]},{"type":"error","name":"AlreadyUpdatedForToDay","inputs":[]},{"type":"error","name":"LengthMismatch","inputs":[]},{"type":"error","name":"NotMapped","inputs":[]},{"type":"error","name":"ReentrancyGuardReentrantCall","inputs":[]},{"type":"error","name":"StaticCallFailed","inputs":[]},{"type":"error","name":"TargetCallFailed","inputs":[{"name":"selector","type":"bytes4","internalType":"bytes4"}]},{"type":"error","name":"ZeroAddress","inputs":[]}],"bytecode":{"object":"0x6080346100ca57601f61192538819003918201601f19168301916001600160401b038311848410176100cf578084926020946040528339810103126100ca57516001600160a01b038116908190036100ca5780156100855760018060a01b0319338160015416176001556000541617600055600160035560405161183f90816100e68239f35b60405162461bcd60e51b815260206004820152601360248201527f6f776e2e696e76616c69642e68657862617365000000000000000000000000006044820152606490fd5b600080fd5b634e487b7160e01b600052604160045260246000fdfe60806040526004361015610018575b361561001657005b005b60003560e01c80631133b8861461014857806312065fe0146101435780631f185d161461013e5780633b9b7955146101395780636ec35cd5146101345780638da5cb5b1461012f5780638dab13dc1461012a5780639b03bea6146101255780639fb2726b14610120578063a1f7f5391461011b578063af48452614610116578063b90306ad14610111578063c54e44b01461010c578063d7a83fc614610107578063e01ad5fd14610102578063e0a9bc2b146100fd578063e1430d4f146100f8578063f5caf38c146100f35763fdc10bc90361000e57610c02565b610bc4565b61098b565b610970565b6108d1565b610892565b6107f6565b610743565b610712565b61065b565b610566565b61051f565b6104b0565b610465565b61035d565b610304565b6101e5565b6101c9565b61018b565b6001600160a01b0381160361015e57565b600080fd5b604090600319011261015e5760043561017b8161014d565b906024356101888161014d565b90565b3461015e57602060ff6101bd6101a036610163565b6001600160a01b0390911660009081526004855260409020610d23565b54166040519015158152f35b3461015e57600036600319011261015e57602047604051908152f35b3461015e5760208060031936011261015e576004908135906102068261014d565b8061021a610215600054610c95565b610c95565b604051634bf9c0ad60e11b815294859182905afa9182156102ec5761025f6102999361027b926102ab966000926102b9575b5061026d906040519384918783016102f1565b03601f198101845283610d8b565b610275611501565b906116d7565b9190806102af575b61028c9061152e565b8082518301019101611321565b60405190151581529081906020820190565b0390f35b5081518114610283565b61026d9192506102de90863d88116102e5575b6102d68183610d8b565b810190610dae565b919061024c565b503d6102cc565b610dc3565b6001600160a01b03909116815260200190565b3461015e57600036600319011261015e576000546040516001600160a01b039091168152602090f35b9181601f8401121561015e578235916001600160401b03831161015e576020808501948460051b01011161015e57565b3461015e57606036600319011261015e576001600160401b0360043581811161015e5761038e90369060040161032d565b60249291923582811161015e576103a990369060040161032d565b909260443590811161015e576103c390369060040161032d565b9390926103d66103d1611336565b611041565b6103df3361145e565b80156103f8575b956103f361001697611082565b6110fc565b50600054604051630536340960e21b81526001600160a01b039791602090829060049082908c165afa80156102ec57610016986103f392600092610445575b5033911614919750506103e6565b61045e91925060203d81116102e5576102d68183610d8b565b9038610437565b3461015e57600036600319011261015e576001546040516001600160a01b039091168152602090f35b6001600160a01b03918216815291166020820152901515604082015260600190565b3461015e57602036600319011261015e576004356104cd8161014d565b60018060a01b038091166000526006602052806040600020541690600760205260406000205416908060005260046020526102ab60ff610511846040600020610d23565b54166040519384938461048e565b3461015e57602036600319011261015e5760043561053c8161014d565b60018060a01b031660005260086020526020604060002054604051908152f35b8015150361015e57565b3461015e57608036600319011261015e576001600160401b0360043581811161015e5761059790369060040161032d565b9160243590811161015e576105b090369060040161032d565b604435916105bd8361055c565b6105c86103d1611336565b6105d13361145e565b80156105ee575b946105e561001696611082565b606435946111d6565b50600054604051630536340960e21b81526001600160a01b039691602090829060049082908b165afa80156102ec57610016976105e59260009261063b575b5033911614919650506105d8565b61065491925060203d81116102e5576102d68183610d8b565b903861062d565b3461015e57600036600319011261015e5760005460405163d1f956b160e01b815290602090829060049082906001600160a01b03165afa9081156102ec576102ab916106e4916000916106f4575b506040516106b681610d50565b601381527267657464656c656761746f72436f756e74282960681b60208201526106de610dea565b916117ad565b6040519081529081906020820190565b61070c915060203d81116102e5576102d68183610d8b565b386106a9565b3461015e57602036600319011261015e5760206107396004356107348161014d565b61145e565b6040519015158152f35b3461015e57602036600319011261015e57600054604051630536340960e21b8152906001600160a01b03906020908390600490829085165afa9182156102ec576000926107d6575b503391160361079f576100166004356115d7565b60405162461bcd60e51b815260206004820152600f60248201526e6f776e2e6e6f6e617574682e44414f60881b6044820152606490fd5b6107ef91925060203d81116102e5576102d68183610d8b565b903861078b565b3461015e57602036600319011261015e576004356108138161014d565b803b600061082082610dcf565b9261082e6040519485610d8b565b82845260208401903c602d81511061085757602a6102ab91015160601c604051918291826102f1565b60405162461bcd60e51b81526020600482015260136024820152724e6f742061206d696e696d616c2070726f787960681b6044820152606490fd5b3461015e57602036600319011261015e5760206004356108b18161014d565b60018060a01b038091166000526005825260406000205416604051908152f35b3461015e5760208060031936011261015e57600480356108f08161014d565b60005460405163d1f956b160e01b81526001600160a01b03949093909182918591829088165afa9081156102ec576102ab9461029994600093610951575b50604051931681840152825261094382610d50565b61094b611573565b90611771565b610969919350823d84116102e5576102d68183610d8b565b913861092e565b3461015e57600036600319011261015e576020610739611336565b3461015e5761099936610163565b906109a56103d1611336565b6109ae3361145e565b8015610b5d575b6109be90611082565b6001600160a01b0381811692908315610b4b578116918215610b4b576000936109ea6102158654610c95565b9360405180956318c9774160e21b825281600460209384935afa9081156102ec57610a3e610a4b9289988991610b2e575b5060405190610a308261025f8a8783016102f1565b610a3861129d565b906116ac565b80518101820191016112ca565b610a5f610a5785610cef565b9182546111c9565b905503610a6a575050f35b610b2a91610a7782610cef565b54610a8182610cef565b55610ac6610a9e610a9184610cbb565b546001600160a01b031690565b610aa783610cbb565b80546001600160a01b0319166001600160a01b03909216919091179055565b610ade610ad5610a9184610cd5565b610aa783610cd5565b610af1610aea83610d09565b5491610d09565b5582610afc82610cef565b55610b19610b0982610cbb565b80546001600160a01b0319169055565b610b25610b0982610cd5565b610d09565b5580f35b610b459150833d85116102e5576102d68183610d8b565b38610a1b565b60405163d92e233d60e01b8152600490fd5b50600054604051630536340960e21b8152906001600160a01b03906020908390600490829085165afa9081156102ec576109be92600092610ba4575b5016331490506109b5565b610bbd91925060203d81116102e5576102d68183610d8b565b9038610b99565b3461015e57606036600319011261015e57610016600435610be48161014d565b602435610bf08161014d565b60443591610bfd8361055c565b610e2f565b3461015e57600036600319011261015e5760005460405163111ea8c160e21b815290602090829060049082906001600160a01b03165afa9081156102ec576102ab916106e491600091610c77575b50604051610c5d81610d50565b6005815264616765282960d81b60208201526106de610dea565b610c8f915060203d81116102e5576102d68183610d8b565b38610c50565b6001600160a01b031690565b6001600160a01b0316600090815260056020526040902090565b6001600160a01b0316600090815260066020526040902090565b6001600160a01b0316600090815260076020526040902090565b6001600160a01b0316600090815260086020526040902090565b6001600160a01b0316600090815260096020526040902090565b9060018060a01b0316600052602052604060002090565b634e487b7160e01b600052604160045260246000fd5b604081019081106001600160401b03821117610d6b57604052565b610d3a565b602081019081106001600160401b03821117610d6b57604052565b601f909101601f19168101906001600160401b03821190821017610d6b57604052565b9081602091031261015e57516101888161014d565b6040513d6000823e3d90fd5b6001600160401b038111610d6b57601f01601f191660200190565b60405190610df782610d70565b60008252565b60405190610e0a82610d50565b601682527567657455736572546f496e737428616464726573732960501b6020830152565b6001600160a01b0393929084811615610b4b57848316928315610b4b57610e82610e7e610e7733610e728560018060a01b03166000526004602052604060002090565b610d23565b5460ff1690565b1590565b61102f57610e94610215600054610c95565b956040968751809163ab6e844f60e01b825281600460209384935afa9081156102ec57610ee661021592610ef394600091611012575b508b5190610ede8261025f8b8783016102f1565b610a38610dfd565b8051810182019101610dae565b1561100157610f04610a9133610ca1565b8415610f6c5716610f5b576000805160206117ea833981519152939495610f31610f5692610aa785610cbb565b610f3e33610aa785610cd5565b610f4b83610aa733610ca1565b51928392338461048e565b0390a2565b8551632a431ae760e11b8152600490fd5b93509350505081819493941615610ffc57610fee926000805160206117ea833981519152610b0993610fa0610a9185610cbb565b610fda85610fb0610a9182610cd5565b95516001600160a01b03968716815295166020860152600060408601529116929081906060820190565b0390a2610fe9610b0982610cbb565b610cd5565b610ffa610b0933610ca1565b565b505050565b865163d92e233d60e01b8152600490fd5b6110299150833d85116102e5576102d68183610d8b565b38610eca565b604051633a3c22ef60e11b8152600490fd5b1561104857565b60405162461bcd60e51b81526020600482015260126024820152716f776e2e696e76616c69642e69735361666560701b6044820152606490fd5b1561108957565b60405162461bcd60e51b815260206004820152601b60248201527a6f776e2e6e6f6e617574682e44414f6f725365637572656261736560281b6044820152606490fd5b91908110156110dc5760051b0190565b634e487b7160e01b600052603260045260246000fd5b356101888161014d565b93949092919281830361118c57600091825b84811061111f575050505050505050565b8061112d600192848b6110cc565b356111378161055c565b61114282868b6110cc565b3561114c8161014d565b838060a01b0316865260046020526111776040872061116c848a8c6110cc565b3590610e728261014d565b9060ff8019835416911515161790550161110e565b6040516001621398b960e31b03198152600490fd5b634e487b7160e01b600052601160045260246000fd5b919082039182116111c457565b6111a1565b919082018092116111c457565b929182820361118c5760005b8281106111f25750505050505050565b851561126b578661120f610b2561120a84878a6110cc565b6110f2565b54036112275760405163e391354960e01b8152600490fd5b808761123c610b2561120a600195888b6110cc565b556112488186856110cc565b35611262610a5761125d61120a85898c6110cc565b610cef565b90555b016111e2565b8061127960019286856110cc565b3561129661128e61125d61120a85898c6110cc565b9182546111b7565b9055611265565b604051906112aa82610d50565b6011825270696e636f6d654f6628616464726573732960781b6020830152565b9081602091031261015e575190565b156112e057565b60405162461bcd60e51b81526020600482015260196024820152781bdddb8b9cd8599959dd585c990b98d85b1b0b99985a5b1959603a1b6044820152606490fd5b9081602091031261015e57516101888161055c565b600054604051634bf9c0ad60e11b8152906020908190839060049082906001600160a01b03165afa9182156102ec57610188926113ac916000916113c7575b5060405161138281610d50565b6008815267697353616665282960c01b84820152604051916113a383610d70565b600083526116d7565b9190806113bd575b61028c906112d9565b50815181146113b4565b6113de9150833d85116102e5576102d68183610d8b565b38611375565b604051906113f182610d50565b601582527469735365637572654261736528616464726573732960581b6020830152565b1561141c57565b60405162461bcd60e51b815260206004820152601a6024820152791bdddb8b9cd958dd5c9958985cd94b98d85b1b0b99985a5b195960321b6044820152606490fd5b600054611473906001600160a01b0316610c95565b604051918291634bf9c0ad60e11b835282600460209485935afa9283156102ec57610188936114c39261025f926000926114de575b506114bb906040519384918783016102f1565b6102756113e4565b9190806114d4575b61028c90611415565b50815181146114cb565b6114bb9192506114fa90863d88116102e5576102d68183610d8b565b91906114a8565b6040519061150e82610d50565b601182527069735369676e657228616464726573732960781b6020830152565b1561153557565b60405162461bcd60e51b81526020600482015260166024820152751bdddb8b9cda59db995c8b98d85b1b0b99985a5b195960521b6044820152606490fd5b6040519061158082610d50565b6018825277697364656c656761746f724e6f646528616464726573732960401b6020830152565b3d156115d2573d906115b882610dcf565b916115c66040519384610d8b565b82523d6000602084013e565b606090565b600080546040516311be646b60e21b815290602090829060049082906001600160a01b03165afa9081156102ec57828481938293839161168e575b505af161161d6115a7565b50156116575760405190815233907fcdcc745fe377b103b45fa0cec23ae3ef93d6fc6a84a01f0d18c40b354dd1d5d8908060208101610f56565b60405162461bcd60e51b815260206004820152600f60248201526e1bdddb8b989d5c9b8b99985a5b1959608a1b6044820152606490fd5b6116a6915060203d81116102e5576102d68183610d8b565b38611612565b906116b792916116d7565b90600090156116c4575090565b60405191506116d282610d70565b815290565b9190823b15611758578051906020918263ffffffff60e01b92012016916040519180830193845281519160005b83811061174457505050918161173160248260009795968897018783820152036004810184520182610d8b565b5191620dbba0fa6117406115a7565b9091565b818101830151858201602401528201611704565b50505060009060405161176a81610d70565b6000815290565b929161177f916000946116d7565b90806117a2575b61178d5750565b61018891925060208082518301019101611321565b506020815114611786565b92916117bb916000946116d7565b90806117de575b6117c95750565b610188919250602080825183010191016112ca565b5060208151146117c256fe73e162dc4d0165c5ab2c676b5ce1e58e8333a5e1b0e75ea3957f2ca0aa8abc2ea2646970667358221220f12e04bf6886b4fb30dbd388b41410e0c3e45b3c690b2bc19154c10cae87499864736f6c63430008140033","linkReferences":{}},"methodIdentifiers":{"Burn(uint256)":"b90306ad","_delegatorCount()":"a1f7f539","_getImplementation(address)":"c54e44b0","_isDelegatorNode(address)":"e01ad5fd","_isSafe()":"e0a9bc2b","_isSecureBase(address)":"af484526","_isSigner(address)":"1f185d16","getBalance()":"12065fe0","getHexbase()":"3b9b7955","getUserFromDelegator(address)":"d7a83fc6","getValidatorDelegator(address,address)":"1133b886","getValidatorDelegatorOfUser(address)":"8dab13dc","importIncome(address,address)":"e1430d4f","incomeOf(address)":"9b03bea6","mapValidatorDelegator(address,address,bool)":"f5caf38c","owner()":"8da5cb5b","systemAge()":"fdc10bc9","updateDelegators(address[],address[],bool[])":"6ec35cd5","updateIncome(address[],uint256[],bool,uint256)":"9fb2726b"},"id":27}