{"abi":[{"type":"constructor","inputs":[{"name":"_hex","type":"address","internalType":"address"}],"stateMutability":"nonpayable"},{"type":"fallback","stateMutability":"payable"},{"type":"receive","stateMutability":"payable"},{"type":"function","name":"Burn","inputs":[{"name":"amount","type":"uint256","internalType":"uint256"}],"outputs":[],"stateMutability":"nonpayable"},{"type":"function","name":"_delegatorCount","inputs":[],"outputs":[{"name":"","type":"uint256","internalType":"uint256"}],"stateMutability":"view"},{"type":"function","name":"_getImplementation","inputs":[{"name":"clone","type":"address","internalType":"address"}],"outputs":[{"name":"impl","type":"address","internalType":"address"}],"stateMutability":"view"},{"type":"function","name":"_isDelegatorNode","inputs":[{"name":"sender","type":"address","internalType":"address"}],"outputs":[{"name":"","type":"bool","internalType":"bool"}],"stateMutability":"view"},{"type":"function","name":"_isSafe","inputs":[],"outputs":[{"name":"","type":"bool","internalType":"bool"}],"stateMutability":"view"},{"type":"function","name":"_isSecureBase","inputs":[{"name":"sender","type":"address","internalType":"address"}],"outputs":[{"name":"","type":"bool","internalType":"bool"}],"stateMutability":"view"},{"type":"function","name":"_isSigner","inputs":[{"name":"sender","type":"address","internalType":"address"}],"outputs":[{"name":"","type":"bool","internalType":"bool"}],"stateMutability":"view"},{"type":"function","name":"getBalance","inputs":[],"outputs":[{"name":"","type":"uint256","internalType":"uint256"}],"stateMutability":"view"},{"type":"function","name":"getHexbase","inputs":[],"outputs":[{"name":"","type":"address","internalType":"address"}],"stateMutability":"view"},{"type":"function","name":"getUserFromDelegator","inputs":[{"name":"delegator","type":"address","internalType":"address"}],"outputs":[{"name":"","type":"address","internalType":"address"}],"stateMutability":"view"},{"type":"function","name":"getValidatorDelegator","inputs":[{"name":"_v","type":"address","internalType":"address"},{"name":"_d","type":"address","internalType":"address"}],"outputs":[{"name":"","type":"bool","internalType":"bool"}],"stateMutability":"view"},{"type":"function","name":"getValidatorDelegatorOfUser","inputs":[{"name":"user","type":"address","internalType":"address"}],"outputs":[{"name":"","type":"address","internalType":"address"},{"name":"","type":"address","internalType":"address"},{"name":"","type":"bool","internalType":"bool"}],"stateMutability":"view"},{"type":"function","name":"importIncome","inputs":[{"name":"userfrom","type":"address","internalType":"address"},{"name":"userto","type":"address","internalType":"address"}],"outputs":[],"stateMutability":"nonpayable"},{"type":"function","name":"incomeOf","inputs":[{"name":"user","type":"address","internalType":"address"}],"outputs":[{"name":"","type":"uint256","internalType":"uint256"}],"stateMutability":"view"},{"type":"function","name":"mapValidatorDelegator","inputs":[{"name":"user","type":"address","internalType":"address"},{"name":"vald","type":"address","internalType":"address"},{"name":"activate","type":"bool","internalType":"bool"}],"outputs":[],"stateMutability":"nonpayable"},{"type":"function","name":"owner","inputs":[],"outputs":[{"name":"","type":"address","internalType":"address"}],"stateMutability":"view"},{"type":"function","name":"systemAge","inputs":[],"outputs":[{"name":"","type":"uint256","internalType":"uint256"}],"stateMutability":"view"},{"type":"function","name":"updateDelegators","inputs":[{"name":"valds","type":"address[]","internalType":"address[]"},{"name":"dels","type":"address[]","internalType":"address[]"},{"name":"active","type":"bool[]","internalType":"bool[]"}],"outputs":[],"stateMutability":"nonpayable"},{"type":"function","name":"updateIncome","inputs":[{"name":"users","type":"address[]","internalType":"address[]"},{"name":"amounts","type":"uint256[]","internalType":"uint256[]"},{"name":"increase","type":"bool","internalType":"bool"},{"name":"_age","type":"uint256","internalType":"uint256"}],"outputs":[],"stateMutability":"nonpayable"},{"type":"event","name":"DelegatorMapped","inputs":[{"name":"validator","type":"address","indexed":true,"internalType":"address"},{"name":"delegator","type":"address","indexed":false,"internalType":"address"},{"name":"user","type":"address","indexed":false,"internalType":"address"},{"name":"activate","type":"bool","indexed":false,"internalType":"bool"}],"anonymous":false},{"type":"event","name":"EthBurned","inputs":[{"name":"sender","type":"address","indexed":true,"internalType":"address"},{"name":"amount","type":"uint256","indexed":false,"internalType":"uint256"}],"anonymous":false},{"type":"event","name":"EthTransferred","inputs":[{"name":"to","type":"address","indexed":true,"internalType":"address"},{"name":"amount","type":"uint256","indexed":false,"internalType":"uint256"}],"anonymous":false},{"type":"event","name":"HexBaseUpdated","inputs":[{"name":"previousHexBase","type":"address","indexed":true,"internalType":"address"},{"name":"newHexBase","type":"address","indexed":true,"internalType":"address"}],"anonymous":false},{"type":"event","name":"OwnerUpdated","inputs":[{"name":"previousOwner","type":"address","indexed":true,"internalType":"address"},{"name":"newOwner","type":"address","indexed":true,"internalType":"address"}],"anonymous":false},{"type":"error","name":"AlreadyMapped","inputs":[]},{"type":"error","name":"AlreadyUpdatedForToDay","inputs":[]},{"type":"error","name":"LengthMismatch","inputs":[]},{"type":"error","name":"NotMapped","inputs":[]},{"type":"error","name":"ReentrancyGuardReentrantCall","inputs":[]},{"type":"error","name":"StaticCallFailed","inputs":[]},{"type":"error","name":"TargetCallFailed","inputs":[{"name":"selector","type":"bytes4","internalType":"bytes4"}]},{"type":"error","name":"ZeroAddress","inputs":[]}],"bytecode":{"object":"0x6080346100ca57601f611c4c38819003918201601f19168301916001600160401b038311848410176100cf578084926020946040528339810103126100ca57516001600160a01b038116908190036100ca5780156100855760018060a01b03193381600154161760015560005416176000556001600355604051611b6690816100e68239f35b60405162461bcd60e51b815260206004820152601360248201527f6f776e2e696e76616c69642e68657862617365000000000000000000000000006044820152606490fd5b600080fd5b634e487b7160e01b600052604160045260246000fdfe60806040526004361015610018575b361561001657005b005b60003560e01c80631133b8861461014857806312065fe0146101435780631f185d161461013e5780633b9b7955146101395780636ec35cd5146101345780638da5cb5b1461012f5780638dab13dc1461012a5780639b03bea6146101255780639fb2726b14610120578063a1f7f5391461011b578063af48452614610116578063b90306ad14610111578063c54e44b01461010c578063d7a83fc614610107578063e01ad5fd14610102578063e0a9bc2b146100fd578063e1430d4f146100f8578063f5caf38c146100f35763fdc10bc90361000e57610d80565b610d42565b6109c4565b6109a9565b61090f565b6108cf565b61082d565b610771565b610740565b610682565b61058f565b610547565b6104a4565b61047d565b610377565b61031f565b6101f6565b6101da565b61018b565b6001600160a01b0381160361015e57565b600080fd5b604090600319011261015e5760043561017b8161014d565b906024356101888161014d565b90565b3461015e57602060ff6101ce6001600160a01b036101a836610163565b9116600052600484526040600020906001600160a01b0316600052602052604060002090565b54166040519015158152f35b3461015e57600036600319011261015e57602047604051908152f35b3461015e5760208060031936011261015e576004908135906102178261014d565b8061023961022d6000546001600160a01b031690565b6001600160a01b031690565b60405194858092634bf9c0ad60e11b82525afa91821561031a5761028d6102c7936102a9926102d9966000926102e7575b5061029b906040519384918783019190916001600160a01b036020820193169052565b03601f198101845283610e94565b6102a36117f7565b90611a07565b9190806102dd575b6102ba90611830565b80825183010191016115f4565b60405190151581529081906020820190565b0390f35b50815181146102b1565b61029b91925061030c90863d8811610313575b6103048183610e94565b810190610eb6565b919061026a565b503d6102fa565b610ecb565b3461015e57600036600319011261015e5760206001600160a01b0360005416604051908152f35b9181601f8401121561015e5782359167ffffffffffffffff831161015e576020808501948460051b01011161015e57565b3461015e57606036600319011261015e5767ffffffffffffffff60043581811161015e576103a9903690600401610346565b60249291923582811161015e576103c4903690600401610346565b909260443590811161015e576103de903690600401610346565b9390926103f16103ec611609565b6112b7565b6103fa3361174d565b8015610413575b9561040e61001697611302565b61137d565b506001600160a01b039560046020886000541660405192838092630536340960e21b82525afa801561031a576100169861040e9260009261045d575b503391161491975050610401565b61047691925060203d8111610313576103048183610e94565b903861044f565b3461015e57600036600319011261015e5760206001600160a01b0360015416604051908152f35b3461015e57602036600319011261015e576004356104c18161014d565b6001600160a01b038091166000526006602052806040600020541690600760205260406000205416908060005260046020526102d960ff610519846040600020906001600160a01b0316600052602052604060002090565b54166040519384938491939260409160608401956001600160a01b0380921685521660208401521515910152565b3461015e57602036600319011261015e576001600160a01b0360043561056c8161014d565b1660005260086020526020604060002054604051908152f35b8015150361015e57565b3461015e57608036600319011261015e5767ffffffffffffffff60043581811161015e576105c1903690600401610346565b9160243590811161015e576105da903690600401610346565b604435916105e783610585565b6105f26103ec611609565b6105fb3361174d565b8015610618575b9461060f61001696611302565b6064359461146e565b506001600160a01b039460046020876000541660405192838092630536340960e21b82525afa801561031a576100169761060f92600092610662575b503391161491965050610602565b61067b91925060203d8111610313576103048183610e94565b9038610654565b3461015e57600036600319011261015e57600460206001600160a01b03600054166040519283809263d1f956b160e01b82525afa90811561031a576102d99161071291600091610722575b506040516106da81610e57565b601381527f67657464656c656761746f72436f756e74282900000000000000000000000000602082015261070c610ef3565b91611af4565b6040519081529081906020820190565b61073a915060203d8111610313576103048183610e94565b386106cd565b3461015e57602036600319011261015e5760206107676004356107628161014d565b61174d565b6040519015158152f35b3461015e57602036600319011261015e5760046001600160a01b036020816000541660405193848092630536340960e21b82525afa91821561031a5760009261080d575b50339116036107c9576100166004356118e4565b606460405162461bcd60e51b815260206004820152600f60248201527f6f776e2e6e6f6e617574682e44414f00000000000000000000000000000000006044820152fd5b61082691925060203d8111610313576103048183610e94565b90386107b5565b3461015e57602036600319011261015e5760043561084a8161014d565b803b600061085782610ed7565b926108656040519485610e94565b82845260208401903c602d81511061088b57602a015160405160609190911c8152602090f35b606460405162461bcd60e51b815260206004820152601360248201527f4e6f742061206d696e696d616c2070726f7879000000000000000000000000006044820152fd5b3461015e57602036600319011261015e5760206004356108ee8161014d565b6001600160a01b038091166000526005825260406000205416604051908152f35b3461015e5760208060031936011261015e576004803561092e8161014d565b6001600160a01b03928084600054166040519485809263d1f956b160e01b82525afa90811561031a576102d9946102c79460009361098a575b50604051931681840152825261097c82610e57565b61098461187b565b90611ab8565b6109a2919350823d8411610313576103048183610e94565b9138610967565b3461015e57600036600319011261015e576020610767611609565b3461015e576109d236610163565b906109de6103ec611609565b6109e73361174d565b8015610cdf575b6109f790611302565b6001600160a01b0391828216928315610cce578116918215610cce57600093610a2a61022d86546001600160a01b031690565b9360405180957f6325dd0400000000000000000000000000000000000000000000000000000000825281600460209384935afa90811561031a57610aa7610ab49289988991610cb1575b5060405190610a998261028d8a8783019190916001600160a01b036020820193169052565b610aa1611561565b906119dc565b805181018201910161159a565b610adc610ad4856001600160a01b03166000526008602052604060002090565b918254611461565b905503610ae7575050f35b610cad91610b08826001600160a01b03166000526008602052604060002090565b54610b26826001600160a01b03166000526008602052604060002090565b55610b9c610b57610b4a846001600160a01b03166000526006602052604060002090565b546001600160a01b031690565b610b74836001600160a01b03166000526006602052604060002090565b906001600160a01b031673ffffffffffffffffffffffffffffffffffffffff19825416179055565b610bdc610bbf610b4a846001600160a01b03166000526007602052604060002090565b610b74836001600160a01b03166000526007602052604060002090565b610c17610bfc836001600160a01b03166000526009602052604060002090565b54916001600160a01b03166000526009602052604060002090565b5582610c36826001600160a01b03166000526008602052604060002090565b55610c74610c57826001600160a01b03166000526006602052604060002090565b73ffffffffffffffffffffffffffffffffffffffff198154169055565b610c94610c57826001600160a01b03166000526007602052604060002090565b6001600160a01b03166000526009602052604060002090565b5580f35b610cc89150833d8511610313576103048183610e94565b38610a74565b600460405163d92e233d60e01b8152fd5b5060046001600160a01b036020816000541660405193848092630536340960e21b82525afa90811561031a576109f792600092610d22575b5016331490506109ee565b610d3b91925060203d8111610313576103048183610e94565b9038610d17565b3461015e57606036600319011261015e57610016600435610d628161014d565b602435610d6e8161014d565b60443591610d7b83610585565b610f3f565b3461015e57600036600319011261015e57600460206001600160a01b0360005416604051928380927f447aa3040000000000000000000000000000000000000000000000000000000082525afa90811561031a576102d99161071291600091610e23575b50604051610df181610e57565b600581527f6167652829000000000000000000000000000000000000000000000000000000602082015261070c610ef3565b610e3b915060203d8111610313576103048183610e94565b38610de4565b634e487b7160e01b600052604160045260246000fd5b6040810190811067ffffffffffffffff821117610e7357604052565b610e41565b6020810190811067ffffffffffffffff821117610e7357604052565b90601f8019910116810190811067ffffffffffffffff821117610e7357604052565b9081602091031261015e57516101888161014d565b6040513d6000823e3d90fd5b67ffffffffffffffff8111610e7357601f01601f191660200190565b60405190610f0082610e78565b60008252565b60405190610f1382610e57565b601682527f67657455736572546f496e7374286164647265737329000000000000000000006020830152565b92916001600160a01b039384811615610cce57848316928315610cce57610fa6610fa2610f9b33610f83856001600160a01b03166000526004602052604060002090565b906001600160a01b0316600052602052604060002090565b5460ff1690565b1590565b61128d57610fbf61022d6000546001600160a01b031690565b95604096875180917fab6e844f00000000000000000000000000000000000000000000000000000000825281600460209384935afa90811561031a5761103a61022d9261104794600091611270575b508b51906110328261028d8b8783019190916001600160a01b036020820193169052565b610aa1610f06565b8051810182019101610eb6565b156112605761106c610b4a336001600160a01b03166000526005602052604060002090565b8415611155571661112c577f73e162dc4d0165c5ab2c676b5ce1e58e8333a5e1b0e75ea3957f2ca0aa8abc2e9394956110bf61112792610b74856001600160a01b03166000526006602052604060002090565b6110e033610b74856001600160a01b03166000526007602052604060002090565b61110183610b74336001600160a01b03166000526005602052604060002090565b513381526001600160a01b03909216602083015291151560408201529081906060820190565b0390a2565b600486517f548635ce000000000000000000000000000000000000000000000000000000008152fd5b9350935050508181949394161561125b57611239927f73e162dc4d0165c5ab2c676b5ce1e58e8333a5e1b0e75ea3957f2ca0aa8abc2e610c57936111af610b4a856001600160a01b03166000526006602052604060002090565b6111fd856111d3610b4a826001600160a01b03166000526007602052604060002090565b95516001600160a01b03968716815295166020860152600060408601529116929081906060820190565b0390a2611220610c57826001600160a01b03166000526006602052604060002090565b6001600160a01b03166000526007602052604060002090565b611259610c57336001600160a01b03166000526005602052604060002090565b565b505050565b6004875163d92e233d60e01b8152fd5b6112879150833d8511610313576103048183610e94565b3861100e565b60046040517f747845de000000000000000000000000000000000000000000000000000000008152fd5b156112be57565b606460405162461bcd60e51b815260206004820152601260248201527f6f776e2e696e76616c69642e69735361666500000000000000000000000000006044820152fd5b1561130957565b606460405162461bcd60e51b815260206004820152601b60248201527f6f776e2e6e6f6e617574682e44414f6f725365637572656261736500000000006044820152fd5b919081101561135d5760051b0190565b634e487b7160e01b600052603260045260246000fd5b356101888161014d565b93949092919281830361140f57600091825b8481106113a0575050505050505050565b806113ae600192848b61134d565b356113b881610585565b6001600160a01b036113cb83878c61134d565b356113d58161014d565b16865260046020526113fa604087206113ef848a8c61134d565b3590610f838261014d565b9060ff8019835416911515161790550161138f565b60046040517fff633a38000000000000000000000000000000000000000000000000000000008152fd5b634e487b7160e01b600052601160045260246000fd5b9190820391821161145c57565b611439565b9190820180921161145c57565b929182820361140f5760005b82811061148a5750505050505050565b851561152f57866114a7610c946114a284878a61134d565b611373565b54036114d75760046040517fe3913549000000000000000000000000000000000000000000000000000000008152fd5b80876114ec610c946114a2600195888b61134d565b556114f881868561134d565b35611526610ad461150d6114a285898c61134d565b6001600160a01b03166000526008602052604060002090565b90555b0161147a565b8061153d600192868561134d565b3561155a61155261150d6114a285898c61134d565b91825461144f565b9055611529565b6040519061156e82610e57565b601182527f696e636f6d654f662861646472657373290000000000000000000000000000006020830152565b9081602091031261015e575190565b156115b057565b606460405162461bcd60e51b815260206004820152601960248201527f6f776e2e7361666567756172642e63616c6c2e6661696c6564000000000000006044820152fd5b9081602091031261015e575161018881610585565b6001600160a01b03600054166040518091634bf9c0ad60e11b825281600460209384935afa91821561031a5761018892611691916000916116ac575b5060405161165281610e57565b600881527f6973536166652829000000000000000000000000000000000000000000000000848201526040519161168883610e78565b60008352611a07565b9190806116a2575b6102ba906115a9565b5081518114611699565b6116c39150833d8511610313576103048183610e94565b38611645565b604051906116d682610e57565b601582527f69735365637572654261736528616464726573732900000000000000000000006020830152565b1561170957565b606460405162461bcd60e51b815260206004820152601a60248201527f6f776e2e736563757265626173652e63616c6c2e6661696c65640000000000006044820152fd5b6000546001600160a01b0316604051918291634bf9c0ad60e11b835282600460209485935afa92831561031a57610188936117b99261028d926000926117d4575b506117b1906040519384918783019190916001600160a01b036020820193169052565b6102a36116c9565b9190806117ca575b6102ba90611702565b50815181146117c1565b6117b19192506117f090863d8811610313576103048183610e94565b919061178e565b6040519061180482610e57565b601182527f69735369676e65722861646472657373290000000000000000000000000000006020830152565b1561183757565b606460405162461bcd60e51b815260206004820152601660248201527f6f776e2e7369676e65722e63616c6c2e6661696c6564000000000000000000006044820152fd5b6040519061188882610e57565b601882527f697364656c656761746f724e6f646528616464726573732900000000000000006020830152565b3d156118df573d906118c582610ed7565b916118d36040519384610e94565b82523d6000602084013e565b606090565b6000600460206001600160a01b03835416604051928380927f46f991ac0000000000000000000000000000000000000000000000000000000082525afa90811561031a5782848193829383916119be575b505af16119406118b4565b501561197a5760405190815233907fcdcc745fe377b103b45fa0cec23ae3ef93d6fc6a84a01f0d18c40b354dd1d5d8908060208101611127565b606460405162461bcd60e51b815260206004820152600f60248201527f6f776e2e6275726e2e6661696c656400000000000000000000000000000000006044820152fd5b6119d6915060203d8111610313576103048183610e94565b38611935565b906119e79291611a07565b90600090156119f4575090565b6040519150611a0282610e78565b815290565b9190823b15611a9f577fffffffff00000000000000000000000000000000000000000000000000000000815160208093012016916040519180830193845281519160005b838110611a8b575050509181611a7860248260009795968897018783820152036004810184520182610e94565b5191620dbba0fa611a876118b4565b9091565b818101830151858201602401528201611a4b565b505050600090604051611ab181610e78565b6000815290565b9291611ac691600094611a07565b9080611ae9575b611ad45750565b610188919250602080825183010191016115f4565b506020815114611acd565b9291611b0291600094611a07565b9080611b25575b611b105750565b6101889192506020808251830101910161159a565b506020815114611b0956fea26469706673582212200b76acca10f454025c5ad4bec49dbd02c34d028b378c96f7e82703d8d4a6287164736f6c63430008140033","linkReferences":{}},"methodIdentifiers":{"Burn(uint256)":"b90306ad","_delegatorCount()":"a1f7f539","_getImplementation(address)":"c54e44b0","_isDelegatorNode(address)":"e01ad5fd","_isSafe()":"e0a9bc2b","_isSecureBase(address)":"af484526","_isSigner(address)":"1f185d16","getBalance()":"12065fe0","getHexbase()":"3b9b7955","getUserFromDelegator(address)":"d7a83fc6","getValidatorDelegator(address,address)":"1133b886","getValidatorDelegatorOfUser(address)":"8dab13dc","importIncome(address,address)":"e1430d4f","incomeOf(address)":"9b03bea6","mapValidatorDelegator(address,address,bool)":"f5caf38c","owner()":"8da5cb5b","systemAge()":"fdc10bc9","updateDelegators(address[],address[],bool[])":"6ec35cd5","updateIncome(address[],uint256[],bool,uint256)":"9fb2726b"},"id":55}