{"abi":[{"type":"constructor","inputs":[{"name":"_hex","type":"address","internalType":"address"}],"stateMutability":"nonpayable"},{"type":"fallback","stateMutability":"payable"},{"type":"receive","stateMutability":"payable"},{"type":"function","name":"Burn","inputs":[{"name":"amount","type":"uint256","internalType":"uint256"}],"outputs":[],"stateMutability":"nonpayable"},{"type":"function","name":"_delegatorCount","inputs":[],"outputs":[{"name":"","type":"uint256","internalType":"uint256"}],"stateMutability":"view"},{"type":"function","name":"_getImplementation","inputs":[{"name":"clone","type":"address","internalType":"address"}],"outputs":[{"name":"impl","type":"address","internalType":"address"}],"stateMutability":"view"},{"type":"function","name":"_isDelegatorNode","inputs":[{"name":"sender","type":"address","internalType":"address"}],"outputs":[{"name":"","type":"bool","internalType":"bool"}],"stateMutability":"view"},{"type":"function","name":"_isSafe","inputs":[],"outputs":[{"name":"","type":"bool","internalType":"bool"}],"stateMutability":"view"},{"type":"function","name":"_isSecureBase","inputs":[{"name":"sender","type":"address","internalType":"address"}],"outputs":[{"name":"","type":"bool","internalType":"bool"}],"stateMutability":"view"},{"type":"function","name":"_isSigner","inputs":[{"name":"sender","type":"address","internalType":"address"}],"outputs":[{"name":"","type":"bool","internalType":"bool"}],"stateMutability":"view"},{"type":"function","name":"getBalance","inputs":[],"outputs":[{"name":"","type":"uint256","internalType":"uint256"}],"stateMutability":"view"},{"type":"function","name":"getHexbase","inputs":[],"outputs":[{"name":"","type":"address","internalType":"address"}],"stateMutability":"view"},{"type":"function","name":"getUserFromDelegator","inputs":[{"name":"delegator","type":"address","internalType":"address"}],"outputs":[{"name":"","type":"address","internalType":"address"}],"stateMutability":"view"},{"type":"function","name":"getValidatorDelegator","inputs":[{"name":"_v","type":"address","internalType":"address"},{"name":"_d","type":"address","internalType":"address"}],"outputs":[{"name":"","type":"bool","internalType":"bool"}],"stateMutability":"view"},{"type":"function","name":"getValidatorDelegatorCount","inputs":[{"name":"_v","type":"address","internalType":"address"},{"name":"_d","type":"address","internalType":"address"}],"outputs":[{"name":"","type":"uint256","internalType":"uint256"}],"stateMutability":"view"},{"type":"function","name":"getValidatorDelegatorOfUser","inputs":[{"name":"user","type":"address","internalType":"address"}],"outputs":[{"name":"","type":"address","internalType":"address"},{"name":"","type":"address","internalType":"address"},{"name":"","type":"bool","internalType":"bool"}],"stateMutability":"view"},{"type":"function","name":"importData","inputs":[{"name":"_u","type":"address","internalType":"address"}],"outputs":[],"stateMutability":"nonpayable"},{"type":"function","name":"incomeOf","inputs":[{"name":"user","type":"address","internalType":"address"}],"outputs":[{"name":"","type":"uint256","internalType":"uint256"}],"stateMutability":"view"},{"type":"function","name":"lastUpdatedEpochOf","inputs":[{"name":"user","type":"address","internalType":"address"}],"outputs":[{"name":"","type":"uint256","internalType":"uint256"}],"stateMutability":"view"},{"type":"function","name":"mapValidatorDelegator","inputs":[{"name":"user","type":"address","internalType":"address"},{"name":"vald","type":"address","internalType":"address"},{"name":"activate","type":"bool","internalType":"bool"}],"outputs":[],"stateMutability":"nonpayable"},{"type":"function","name":"owner","inputs":[],"outputs":[{"name":"","type":"address","internalType":"address"}],"stateMutability":"view"},{"type":"function","name":"setBase","inputs":[{"name":"_f","type":"address","internalType":"address"}],"outputs":[],"stateMutability":"nonpayable"},{"type":"function","name":"syncBaseAddr","inputs":[],"outputs":[],"stateMutability":"nonpayable"},{"type":"function","name":"systemAge","inputs":[],"outputs":[{"name":"","type":"uint256","internalType":"uint256"}],"stateMutability":"view"},{"type":"function","name":"transferUser","inputs":[{"name":"userfrom","type":"address","internalType":"address"},{"name":"userto","type":"address","internalType":"address"}],"outputs":[],"stateMutability":"nonpayable"},{"type":"function","name":"updateDelegators","inputs":[{"name":"valds","type":"address[]","internalType":"address[]"},{"name":"dels","type":"address[]","internalType":"address[]"},{"name":"active","type":"bool[]","internalType":"bool[]"}],"outputs":[],"stateMutability":"nonpayable"},{"type":"function","name":"updateIncome","inputs":[{"name":"users","type":"address[]","internalType":"address[]"},{"name":"amounts","type":"uint256[]","internalType":"uint256[]"},{"name":"increase","type":"bool","internalType":"bool"},{"name":"_age","type":"uint256","internalType":"uint256"}],"outputs":[],"stateMutability":"nonpayable"},{"type":"event","name":"DelegatorMapped","inputs":[{"name":"validator","type":"address","indexed":true,"internalType":"address"},{"name":"delegator","type":"address","indexed":false,"internalType":"address"},{"name":"user","type":"address","indexed":false,"internalType":"address"},{"name":"activate","type":"bool","indexed":false,"internalType":"bool"}],"anonymous":false},{"type":"event","name":"EthBurned","inputs":[{"name":"sender","type":"address","indexed":true,"internalType":"address"},{"name":"amount","type":"uint256","indexed":false,"internalType":"uint256"}],"anonymous":false},{"type":"event","name":"EthTransferred","inputs":[{"name":"to","type":"address","indexed":true,"internalType":"address"},{"name":"amount","type":"uint256","indexed":false,"internalType":"uint256"}],"anonymous":false},{"type":"event","name":"HexBaseUpdated","inputs":[{"name":"previousHexBase","type":"address","indexed":true,"internalType":"address"},{"name":"newHexBase","type":"address","indexed":true,"internalType":"address"}],"anonymous":false},{"type":"event","name":"OwnerUpdated","inputs":[{"name":"previousOwner","type":"address","indexed":true,"internalType":"address"},{"name":"newOwner","type":"address","indexed":true,"internalType":"address"}],"anonymous":false},{"type":"error","name":"AlreadyMapped","inputs":[]},{"type":"error","name":"AlreadyUpdatedForToDay","inputs":[]},{"type":"error","name":"InvalidAddress","inputs":[]},{"type":"error","name":"InvalidState","inputs":[]},{"type":"error","name":"LengthMismatch","inputs":[]},{"type":"error","name":"MapLimitOver","inputs":[]},{"type":"error","name":"NotAuthorized","inputs":[]},{"type":"error","name":"NotMapped","inputs":[]},{"type":"error","name":"NotSafe","inputs":[]},{"type":"error","name":"ReentrancyGuardReentrantCall","inputs":[]},{"type":"error","name":"StaticCallFailed","inputs":[]},{"type":"error","name":"TargetCallFailed","inputs":[{"name":"selector","type":"bytes4","internalType":"bytes4"}]},{"type":"error","name":"ZeroAddress","inputs":[]}],"bytecode":{"object":"0x60803461009757601f611def38819003918201601f19168301916001600160401b0383118484101761009c5780849260209460405283398101031261009757516001600160a01b038116908190036100975780156100855760018060a01b03193381600154161760015560005416176000556001600d55604051611d3c90816100b38239f35b60405163e6c4247b60e01b8152600490fd5b600080fd5b634e487b7160e01b600052604160045260246000fdfe60806040526004361015610018575b361561001657005b005b60003560e01c80631133b8861461019857806312065fe0146101935780631f185d161461018e578063339459a6146101895780633b9b7955146101845780633c00e40d1461017f5780636ec35cd51461017a5780638da5cb5b146101755780638dab13dc146101705780639498d88b1461016b5780639b03bea6146101665780639fb2726b14610161578063a1f7f5391461015c578063ae9568d714610157578063af48452614610152578063b90306ad1461014d578063be17fe6214610148578063c54e44b014610143578063d7a83fc61461013e578063e01ad5fd14610139578063e0a9bc2b14610134578063e3d1d5bf1461012f578063f5caf38c1461012a5763fdc10bc90361000e57611161565b611123565b610fcc565b610fb1565b610eea565b610eab565b610e4f565b610d9c565b610cb4565b610c83565b610c4a565b610be0565b610a55565b610a0e565b61098e565b61091f565b6108d4565b61077e565b610711565b6106e8565b610308565b610241565b610225565b6101e7565b6001600160a01b031690565b6001600160a01b038116036101ba57565b600080fd5b60409060031901126101ba576004356101d7816101a9565b906024356101e4816101a9565b90565b346101ba57602060ff6102196101fc366101bf565b6001600160a01b039091166000908152600e855260409020611263565b54166040519015158152f35b346101ba5760003660031901126101ba57602047604051908152f35b346101ba576020806003193601126101ba576102b4600435610262816101a9565b6002546040516001600160a01b03928316858201528481529116610285826112c7565b60405190610292826112c7565b601182527069735369676e657228616464726573732960781b85830152611c1a565b9190806102fe575b156102ec5781816102d6926102e894518301019101611b12565b60405190151581529081906020820190565b0390f35b60405163baf3f0f760e01b8152600490fd5b50808251146102bc565b346101ba576000806003193601126106d25761032c610327825461019d565b61019d565b60408051634bf9c0ad60e11b81529160049190602080858581855afa9485156105995786956106b3575b50825163cfbffe5360e01b81529281848681865afa938415610599578794610694575b50805163ab6e844f60e01b815282818781875afa908115610599578891610677575b508151630536340960e21b815283818881885afa90811561059957899161065a575b50825163d1f956b160e01b81529084828981895afa918215610599578a9261063b575b508351631cc3bfab60e31b81529285848a818a5afa938415610599578b9461061c575b50845163e09d394d60e01b81529486868b818b5afa958615610599578c966105fd575b5080516314ac1b5960e21b815298878a8c818c5afa9788156105995761046d9a8e996105de575b50808c8451809d819263013cf08b60e01b83528201906000602083019252565b03818d5afa998a15610599578c9b8f9b6105bf575b50818451809d635e09dbe760e01b825281845afa9b8c15610599578f9c61059e575b50819084519d8e8092635506ee0b60e11b82525afa9b8c15610599578e9c61056a575b506104d06115ca565b9c6104db908e6118dd565b8c01906104e7916118dd565b8a01906104f3916118dd565b6105009060608a016118dd565b61050d90608089016118dd565b61051a9060a088016118dd565b6105279060c087016118dd565b6105349060e086016118dd565b6105429061010085016118dd565b6105509061012084016118dd565b61055e9061014083016118dd565b610567906118ec565b80f35b8161058b929d508d3d10610592575b6105838183611302565b810190611325565b9a386104c7565b503d610579565b61133a565b82919c506105b890823d8411610592576105838183611302565b9b906104a4565b6105d7919b50823d8411610592576105838183611302565b9938610482565b816105f6929a503d8b11610592576105838183611302565b973861044d565b610615919650873d8911610592576105838183611302565b9438610426565b610634919450863d8811610592576105838183611302565b9238610403565b610653919250853d8711610592576105838183611302565b90386103e0565b6106719150843d8611610592576105838183611302565b386103bd565b61068e9150833d8511610592576105838183611302565b3861039b565b6106ac919450823d8411610592576105838183611302565b9238610379565b816106cb9296503d8711610592576105838183611302565b9338610356565b80fd5b6001600160a01b03909116815260200190565b346101ba5760003660031901126101ba576000546040516001600160a01b039091168152602090f35b346101ba5760203660031901126101ba5760043561072e816101a9565b60018060a01b031660005260146020526020604060002054604051908152f35b9181601f840112156101ba578235916001600160401b0383116101ba576020808501948460051b0101116101ba57565b346101ba5760603660031901126101ba5760046001600160401b0381358181116101ba576107af903690840161074e565b906024358381116101ba576107c7903690860161074e565b90936044359081116101ba576107e0903690870161074e565b9490956107eb611b27565b156108c5576107f933611b99565b80156108b1575b156108a257858303610890575060005b82811061081957005b8061088a61082a600193898b6116ab565b3561083481610a4b565b61083f8389896116ab565b35610849816101a9565b848060a01b0316600052600e602052610879604060002061087361086e868a8a6116ab565b6116d1565b90611263565b9060ff801983541691151516179055565b01610810565b6040516001621398b960e31b03198152fd5b60405163ea8e4eb560e01b8152fd5b506005546001600160a01b03163314610800565b604051634ee2123760e11b8152fd5b346101ba5760003660031901126101ba576001546040516001600160a01b039091168152602090f35b6001600160a01b03918216815291166020820152901515604082015260600190565b346101ba5760203660031901126101ba5760043561093c816101a9565b60018060a01b0380911660005260116020528060406000205416906012602052604060002054169080600052600e6020526102e860ff610980846040600020611263565b5416604051938493846108fd565b346101ba5760203660031901126101ba576004356109ab816101a9565b6109b3611b27565b156109fc576109c133611b99565b80156109e8575b156109d6576100169061170e565b60405163ea8e4eb560e01b8152600490fd5b506005546001600160a01b031633146109c8565b604051634ee2123760e11b8152600490fd5b346101ba5760203660031901126101ba57600435610a2b816101a9565b60018060a01b031660005260136020526020604060002054604051908152f35b801515036101ba57565b346101ba5760803660031901126101ba5760046001600160401b0381358181116101ba57610a86903690840161074e565b916024359081116101ba57610a9e903690850161074e565b6044359391610aac85610a4b565b606435610ab7611b27565b15610bcf57610ac533611b99565b8015610bbb575b15610baa57828403610b965760005b848110610ae457005b8615610b645781610b01610afc61086e84898b6116ab565b6111c7565b5403610b185760405163e391354960e01b81528890fd5b8082610b2d610afc61086e6001958a8c6116ab565b55610b398186866116ab565b35610b5b610b53610b4e61086e858b8d6116ab565b6111ad565b918254611363565b90555b01610adb565b80610b7260019286866116ab565b35610b8f610b87610b4e61086e858b8d6116ab565b9182546112a4565b9055610b5e565b6040516001621398b960e31b031981528790fd5b60405163ea8e4eb560e01b81528790fd5b506005546001600160a01b03163314610acc565b604051634ee2123760e11b81528790fd5b346101ba5760003660031901126101ba576020610c4260018060a01b0360065416604051610c0d816112c7565b601381527267657464656c656761746f72436f756e74282960681b8482015260405191610c39836112e7565b60008352611caa565b604051908152f35b346101ba576020610c7a610c5d366101bf565b6001600160a01b039091166000908152600f845260409020611263565b54604051908152f35b346101ba5760203660031901126101ba576020610caa600435610ca5816101a9565b611b99565b6040519015158152f35b346101ba5760203660031901126101ba57600435610cd0611b27565b156109fc576005546001600160a01b031633036109d65760009060046020610cfb610327855461019d565b6040516311be646b60e21b815292839182905afa80156105995783808481949382948391610d7e575b505af1610d2f611605565b50156102ec577fcdcc745fe377b103b45fa0cec23ae3ef93d6fc6a84a01f0d18c40b354dd1d5d8610d78610d67610327600b5461019d565b604051938452929081906020820190565b0390a280f35b610d96915060203d8111610592576105838183611302565b38610d24565b346101ba5760203660031901126101ba57600435610db9816101a9565b610dc1611b27565b156109fc57610dcf33611b99565b8015610e3b575b156109d6576001600160a01b039081168015610e2957600080546001600160a01b03198116831782559092167fe939feee179e631422bcc8f6e6d7d908cb3f8af38f5372f17c77e15aea5c80ee8380a380f35b60405163e6c4247b60e01b8152600490fd5b506005546001600160a01b03163314610dd6565b346101ba5760203660031901126101ba57600435610e6c816101a9565b803b6000610e79826115ea565b92610e876040519485611302565b82845260208401903c602d8151106102ec57602a602091015160601c604051908152f35b346101ba5760203660031901126101ba576020600435610eca816101a9565b60018060a01b038091166000526010825260406000205416604051908152f35b346101ba576020806003193601126101ba576102e89060043590610f0d826101a9565b6006546040516001600160a01b0393841683820152828152921691610f6d90610f35816112c7565b604051610f41816112c7565b6018815277697364656c656761746f724e6f646528616464726573732960401b84820152600094611c1a565b919080610fa7575b610f8e575b505060405190151581529081906020820190565b610fa092508082518301019101611b12565b3880610f7a565b5080825114610f75565b346101ba5760003660031901126101ba576020610caa611b27565b346101ba57610fda366101bf565b610fe2611b27565b156109fc57610ff033611b99565b801561110f575b156109d6576001600160a01b039180831680156110fd5783831680156110fd570361101e57005b6000926110e79261103e611031846111e1565b546001600160a01b031690565b91611048846111ad565b54611052836111ad565b5561108a611062611031866111fb565b61106b846111fb565b80546001600160a01b0319166001600160a01b03909216919091179055565b6110978361106b846111e1565b6110a0846111c7565b546110aa836111c7565b5582166110ea575b5050826110be826111ad565b556110db6110cb826111fb565b80546001600160a01b0319169055565b610afc6110cb826111e1565b55005b61106b6110f692611215565b38806110b2565b60405163d92e233d60e01b8152600490fd5b506005546001600160a01b03163314610ff7565b346101ba5760603660031901126101ba57610016600435611143816101a9565b60243561114f816101a9565b6044359161115c83610a4b565b611370565b346101ba5760003660031901126101ba576020610c4260018060a01b036003541660405161118e816112c7565b600681526569416765282960d01b8482015260405191610c39836112e7565b6001600160a01b0316600090815260136020526040902090565b6001600160a01b0316600090815260146020526040902090565b6001600160a01b0316600090815260126020526040902090565b6001600160a01b0316600090815260116020526040902090565b6001600160a01b0316600090815260106020526040902090565b6001600160a01b03166000908152600f6020526040902090565b6001600160a01b03166000908152600e6020526040902090565b9060018060a01b0316600052602052604060002090565b634e487b7160e01b600052601160045260246000fd5b60001981019190821161129f57565b61127a565b9190820391821161129f57565b634e487b7160e01b600052604160045260246000fd5b604081019081106001600160401b038211176112e257604052565b6112b1565b602081019081106001600160401b038211176112e257604052565b601f909101601f19168101906001600160401b038211908210176112e257604052565b908160209103126101ba57516101e4816101a9565b6040513d6000823e3d90fd5b908160209103126101ba575190565b906001820180921161129f57565b9190820180921161129f57565b9161137d61103133611215565b928115611506576001600160a01b03818116156110fd578084169485156110fd576113c16113bd6113b6336113b189611249565b611263565b5460ff1690565b1590565b6114f4576113d961032761032761032760045461019d565b60206040518092630e5fd00b60e01b825281806113f989600483016106d5565b03915afa80156105995783916000916114d6575b5016156110fd57166114c457611449611436611427611635565b60208082518301019101611346565b611443336113b18761122f565b54101590565b6114b2576114918361146d600080516020611ce78339815191529561106b856111fb565b61147a3361106b856111e1565b6114878361106b33611215565b6113b1339161122f565b61149b8154611355565b90556114ad60405192839233846108fd565b0390a2565b60405163b111d8ef60e01b8152600490fd5b604051632a431ae760e11b8152600490fd5b6114ee915060203d8111610592576105838183611302565b3861140d565b604051633a3c22ef60e11b8152600490fd5b506001600160a01b0392915050808216156115c6576115796110cb61152d611031846111fb565b604080513381526001600160a01b03861660208201526000918101919091529094851693908490600080516020611ce783398151915290606090a26115746110cb826111fb565b6111e1565b6115856110cb33611215565b1515806115b0575b6115945750565b6115a2906113b1339161122f565b6115ac8154611290565b9055565b506115be336113b18361122f565b54151561158d565b5050565b6040519061016082016001600160401b038111838210176112e257604052565b6001600160401b0381116112e257601f01601f191660200190565b3d15611630573d90611616826115ea565b916116246040519384611302565b82523d6000602084013e565b606090565b6003546001600160a01b0316803b156116975760008091604051602081019063a896d82560e01b82526004815261166b816112c7565b51915afa611677611605565b9060009015611684575090565b6040519150611692826112e7565b815290565b506040516116a4816112e7565b6000815290565b91908110156116bb5760051b0190565b634e487b7160e01b600052603260045260246000fd5b356101e4816101a9565b908160609103126101ba5780516116f1816101a9565b9160406020830151611702816101a9565b9201516101e481610a4b565b6001600160a01b0390808216156115c65761172e610327611031836111fb565b6115c657600091611742610327845461019d565b9060405180926318c9774160e21b825281600460209586935afa801561059957829186916118c0575b5060405163236ac4f760e21b81529291166060838061178d88600483016106d5565b0381845afa93841561059957869287948896611886575b5080841615908161187b575b5061187257806040518093634d81df5360e11b825281806117d48b600483016106d5565b03915afa9283156105995761182d61106b966118329587956113b1956118439c92611845575b50506118058a6111ad565b556118138361106b8b6111fb565b6118208561106b8b6111e1565b610879856113b185611249565b61122f565b61183c8154611355565b9055611215565b565b6118649250803d1061186b575b61185c8183611302565b810190611346565b38806117fa565b503d611852565b50505050505050565b9050841615386117b0565b91935094506118ad91935060603d81116118b9575b6118a58183611302565b8101906116db565b939192909394386117a4565b503d61189b565b6118d79150843d8611610592576105838183611302565b3861176b565b6001600160a01b039091169052565b611af061014061184392611925611903825161019d565b600280546001600160a01b0319166001600160a01b0392909216919091179055565b611957611935602083015161019d565b600380546001600160a01b0319166001600160a01b0392909216919091179055565b611989611967604083015161019d565b600480546001600160a01b0319166001600160a01b0392909216919091179055565b6119bb611999606083015161019d565b600580546001600160a01b0319166001600160a01b0392909216919091179055565b6119ed6119cb608083015161019d565b600680546001600160a01b0319166001600160a01b0392909216919091179055565b611a1f6119fd60a083015161019d565b600780546001600160a01b0319166001600160a01b0392909216919091179055565b611a51611a2f60c083015161019d565b600880546001600160a01b0319166001600160a01b0392909216919091179055565b611a83611a6160e083015161019d565b600980546001600160a01b0319166001600160a01b0392909216919091179055565b611ab6611a9461010083015161019d565b600a80546001600160a01b0319166001600160a01b0392909216919091179055565b611ae9611ac761012083015161019d565b600b80546001600160a01b0319166001600160a01b0392909216919091179055565b015161019d565b600c80546001600160a01b0319166001600160a01b0392909216919091179055565b908160209103126101ba57516101e481610a4b565b600254604051611b6f916001600160a01b031690611b44816112c7565b6008815267697353616665282960c01b602082015260405191611b66836112e7565b60008352611c1a565b9080611b8e575b156102ec57806020806101e493518301019101611b12565b506020815114611b76565b611bf360018060a01b038060025416604051916020941684830152838252611bc0826112c7565b60405190611bcd826112c7565b601582527469735365637572654261736528616464726573732960581b85830152611c1a565b9080611c10575b156102ec57816101e49282518301019101611b12565b5081815114611bfa565b9190823b15611c98578051906020918263ffffffff60e01b92012016916040519180830193845281519160005b838110611c84575050509181611c7460248260009795968897018783820152036004810184520182611302565b51915afa611c80611605565b9091565b818101830151858201602401528201611c47565b5050506000906040516116a4816112e7565b9291611cb891600094611c1a565b9080611cdb575b611cc65750565b6101e491925060208082518301019101611346565b506020815114611cbf56fe73e162dc4d0165c5ab2c676b5ce1e58e8333a5e1b0e75ea3957f2ca0aa8abc2ea2646970667358221220c989f55175a07b44f0539c19b4f69465f895080c18e160bfe1fe026ab89a4ddd64736f6c63430008140033","linkReferences":{}},"methodIdentifiers":{"Burn(uint256)":"b90306ad","_delegatorCount()":"a1f7f539","_getImplementation(address)":"c54e44b0","_isDelegatorNode(address)":"e01ad5fd","_isSafe()":"e0a9bc2b","_isSecureBase(address)":"af484526","_isSigner(address)":"1f185d16","getBalance()":"12065fe0","getHexbase()":"3b9b7955","getUserFromDelegator(address)":"d7a83fc6","getValidatorDelegator(address,address)":"1133b886","getValidatorDelegatorCount(address,address)":"ae9568d7","getValidatorDelegatorOfUser(address)":"8dab13dc","importData(address)":"9498d88b","incomeOf(address)":"9b03bea6","lastUpdatedEpochOf(address)":"3c00e40d","mapValidatorDelegator(address,address,bool)":"f5caf38c","owner()":"8da5cb5b","setBase(address)":"be17fe62","syncBaseAddr()":"339459a6","systemAge()":"fdc10bc9","transferUser(address,address)":"e3d1d5bf","updateDelegators(address[],address[],bool[])":"6ec35cd5","updateIncome(address[],uint256[],bool,uint256)":"9fb2726b"},"id":26}