{"abi":[{"type":"constructor","inputs":[{"name":"_hex","type":"address","internalType":"address"}],"stateMutability":"nonpayable"},{"type":"fallback","stateMutability":"payable"},{"type":"receive","stateMutability":"payable"},{"type":"function","name":"Burn","inputs":[{"name":"amount","type":"uint256","internalType":"uint256"}],"outputs":[],"stateMutability":"nonpayable"},{"type":"function","name":"_delegatorCount","inputs":[],"outputs":[{"name":"","type":"uint256","internalType":"uint256"}],"stateMutability":"view"},{"type":"function","name":"_getImplementation","inputs":[{"name":"clone","type":"address","internalType":"address"}],"outputs":[{"name":"impl","type":"address","internalType":"address"}],"stateMutability":"view"},{"type":"function","name":"_isDelegatorNode","inputs":[{"name":"sender","type":"address","internalType":"address"}],"outputs":[{"name":"","type":"bool","internalType":"bool"}],"stateMutability":"view"},{"type":"function","name":"_isSafe","inputs":[],"outputs":[{"name":"","type":"bool","internalType":"bool"}],"stateMutability":"view"},{"type":"function","name":"_isSecureBase","inputs":[{"name":"sender","type":"address","internalType":"address"}],"outputs":[{"name":"","type":"bool","internalType":"bool"}],"stateMutability":"view"},{"type":"function","name":"_isSigner","inputs":[{"name":"sender","type":"address","internalType":"address"}],"outputs":[{"name":"","type":"bool","internalType":"bool"}],"stateMutability":"view"},{"type":"function","name":"getBalance","inputs":[],"outputs":[{"name":"","type":"uint256","internalType":"uint256"}],"stateMutability":"view"},{"type":"function","name":"getHexbase","inputs":[],"outputs":[{"name":"","type":"address","internalType":"address"}],"stateMutability":"view"},{"type":"function","name":"getUserFromDelegator","inputs":[{"name":"delegator","type":"address","internalType":"address"}],"outputs":[{"name":"","type":"address","internalType":"address"}],"stateMutability":"view"},{"type":"function","name":"getValidatorDelegator","inputs":[{"name":"_v","type":"address","internalType":"address"},{"name":"_d","type":"address","internalType":"address"}],"outputs":[{"name":"","type":"bool","internalType":"bool"}],"stateMutability":"view"},{"type":"function","name":"getValidatorDelegatorCount","inputs":[{"name":"_v","type":"address","internalType":"address"},{"name":"_d","type":"address","internalType":"address"}],"outputs":[{"name":"","type":"uint256","internalType":"uint256"}],"stateMutability":"view"},{"type":"function","name":"getValidatorDelegatorOfUser","inputs":[{"name":"user","type":"address","internalType":"address"}],"outputs":[{"name":"","type":"address","internalType":"address"},{"name":"","type":"address","internalType":"address"},{"name":"","type":"bool","internalType":"bool"}],"stateMutability":"view"},{"type":"function","name":"importData","inputs":[{"name":"_u","type":"address","internalType":"address"}],"outputs":[],"stateMutability":"nonpayable"},{"type":"function","name":"incomeOf","inputs":[{"name":"user","type":"address","internalType":"address"}],"outputs":[{"name":"","type":"uint256","internalType":"uint256"}],"stateMutability":"view"},{"type":"function","name":"mapValidatorDelegator","inputs":[{"name":"user","type":"address","internalType":"address"},{"name":"vald","type":"address","internalType":"address"},{"name":"activate","type":"bool","internalType":"bool"}],"outputs":[],"stateMutability":"nonpayable"},{"type":"function","name":"owner","inputs":[],"outputs":[{"name":"","type":"address","internalType":"address"}],"stateMutability":"view"},{"type":"function","name":"systemAge","inputs":[],"outputs":[{"name":"","type":"uint256","internalType":"uint256"}],"stateMutability":"view"},{"type":"function","name":"transferUser","inputs":[{"name":"userfrom","type":"address","internalType":"address"},{"name":"userto","type":"address","internalType":"address"}],"outputs":[],"stateMutability":"nonpayable"},{"type":"function","name":"updateDelegators","inputs":[{"name":"valds","type":"address[]","internalType":"address[]"},{"name":"dels","type":"address[]","internalType":"address[]"},{"name":"active","type":"bool[]","internalType":"bool[]"}],"outputs":[],"stateMutability":"nonpayable"},{"type":"function","name":"updateIncome","inputs":[{"name":"users","type":"address[]","internalType":"address[]"},{"name":"amounts","type":"uint256[]","internalType":"uint256[]"},{"name":"increase","type":"bool","internalType":"bool"},{"name":"_age","type":"uint256","internalType":"uint256"}],"outputs":[],"stateMutability":"nonpayable"},{"type":"event","name":"DelegatorMapped","inputs":[{"name":"validator","type":"address","indexed":true,"internalType":"address"},{"name":"delegator","type":"address","indexed":false,"internalType":"address"},{"name":"user","type":"address","indexed":false,"internalType":"address"},{"name":"activate","type":"bool","indexed":false,"internalType":"bool"}],"anonymous":false},{"type":"event","name":"EthBurned","inputs":[{"name":"sender","type":"address","indexed":true,"internalType":"address"},{"name":"amount","type":"uint256","indexed":false,"internalType":"uint256"}],"anonymous":false},{"type":"event","name":"EthTransferred","inputs":[{"name":"to","type":"address","indexed":true,"internalType":"address"},{"name":"amount","type":"uint256","indexed":false,"internalType":"uint256"}],"anonymous":false},{"type":"event","name":"HexBaseUpdated","inputs":[{"name":"previousHexBase","type":"address","indexed":true,"internalType":"address"},{"name":"newHexBase","type":"address","indexed":true,"internalType":"address"}],"anonymous":false},{"type":"event","name":"OwnerUpdated","inputs":[{"name":"previousOwner","type":"address","indexed":true,"internalType":"address"},{"name":"newOwner","type":"address","indexed":true,"internalType":"address"}],"anonymous":false},{"type":"error","name":"AlreadyMapped","inputs":[]},{"type":"error","name":"AlreadyUpdatedForToDay","inputs":[]},{"type":"error","name":"CallFailed","inputs":[]},{"type":"error","name":"InvalidAddress","inputs":[]},{"type":"error","name":"InvalidState","inputs":[]},{"type":"error","name":"LengthMismatch","inputs":[]},{"type":"error","name":"MapLimitOver","inputs":[]},{"type":"error","name":"NotAuthorized","inputs":[]},{"type":"error","name":"NotMapped","inputs":[]},{"type":"error","name":"NotSafe","inputs":[]},{"type":"error","name":"ReentrancyGuardReentrantCall","inputs":[]},{"type":"error","name":"StaticCallFailed","inputs":[]},{"type":"error","name":"TargetCallFailed","inputs":[{"name":"selector","type":"bytes4","internalType":"bytes4"}]},{"type":"error","name":"ZeroAddress","inputs":[]}],"bytecode":{"object":"0x60803461009757601f611baa38819003918201601f19168301916001600160401b0383118484101761009c5780849260209460405283398101031261009757516001600160a01b038116908190036100975780156100855760018060a01b03193381600154161760015560005416176000556001600255604051611af790816100b38239f35b60405163e6c4247b60e01b8152600490fd5b600080fd5b634e487b7160e01b600052604160045260246000fdfe60806040526004361015610018575b361561001657005b005b60003560e01c80631133b8861461016857806312065fe0146101635780631f185d161461015e5780633b9b7955146101595780636ec35cd5146101545780638da5cb5b1461014f5780638dab13dc1461014a5780639498d88b146101455780639b03bea6146101405780639fb2726b1461013b578063a1f7f53914610136578063ae9568d714610131578063af4845261461012c578063b90306ad14610127578063c54e44b014610122578063d7a83fc61461011d578063e01ad5fd14610118578063e0a9bc2b14610113578063e3d1d5bf1461010e578063f5caf38c146101095763fdc10bc90361000e57610b70565b610b32565b610a92565b610a77565b6109d8565b610999565b61092b565b6108ab565b61087a565b610841565b61078a565b61067a565b610633565b610560565b6104f1565b6104a6565b61038a565b610331565b610205565b6101e9565b6101ab565b6001600160a01b0381160361017e57565b600080fd5b604090600319011261017e5760043561019b8161016d565b906024356101a88161016d565b90565b3461017e57602060ff6101dd6101c036610183565b6001600160a01b0390911660009081526003855260409020610cc5565b54166040519015158152f35b3461017e57600036600319011261017e57602047604051908152f35b3461017e5760208060031936011261017e576004356102238161016d565b600482610239610234600054610c03565b610c03565b604051634bf9c0ad60e11b815292839182905afa80156103195761029292610276926000926102e6575b506102849060405193849187830161031e565b03601f198101845283610d2d565b61028c6117da565b90611992565b9190806102dc575b156102ca5781816102b4926102c69451830101910161166c565b60405190151581529081906020820190565b0390f35b604051633204506f60e01b8152600490fd5b508082511461029a565b61028491925061030b90863d8811610312575b6103038183610d2d565b810190610d50565b9190610263565b503d6102f9565b610d65565b6001600160a01b03909116815260200190565b3461017e57600036600319011261017e576000546040516001600160a01b039091168152602090f35b9181601f8401121561017e578235916001600160401b03831161017e576020808501948460051b01011161017e57565b3461017e57606036600319011261017e5760046001600160401b03813581811161017e576103bb903690840161035a565b9160243581811161017e576103d3903690860161035a565b9160443590811161017e576103eb903690870161035a565b9490936103fd6103f9611681565b1590565b6104955761040a3361175e565b8015610431575b156104205761001696506111e1565b60405163ea8e4eb560e01b81528790fd5b50866020610443610234600054610c03565b604051630536340960e21b815292839182905afa90811561031957600091610477575b506001600160a01b03163314610411565b61048f915060203d8111610312576103038183610d2d565b38610466565b604051634ee2123760e11b81528790fd5b3461017e57600036600319011261017e576001546040516001600160a01b039091168152602090f35b6001600160a01b03918216815291166020820152901515604082015260600190565b3461017e57602036600319011261017e5760043561050e8161016d565b60018060a01b038091166000526006602052806040600020541690600760205260406000205416908060005260036020526102c660ff610552846040600020610cc5565b5416604051938493846104cf565b3461017e57602036600319011261017e5760043561057d8161016d565b6105886103f9611681565b610621576105953361175e565b80156105bc575b156105aa57610016906114e8565b60405163ea8e4eb560e01b8152600490fd5b50600460206105cf610234600054610c03565b604051630536340960e21b815292839182905afa90811561031957600091610603575b506001600160a01b0316331461059c565b61061b915060203d8111610312576103038183610d2d565b386105f2565b604051634ee2123760e11b8152600490fd5b3461017e57602036600319011261017e576004356106508161016d565b60018060a01b031660005260086020526020604060002054604051908152f35b8015150361017e57565b3461017e57608036600319011261017e5760046001600160401b03813581811161017e576106ab903690840161035a565b909160243590811161017e576106c4903690850161035a565b90604435926106d284610670565b6106dd6103f9611681565b610779576106ea3361175e565b8015610715575b156107045761001695506064359461128b565b60405163ea8e4eb560e01b81528690fd5b50856020610727610234600054610c03565b604051630536340960e21b815292839182905afa9081156103195760009161075b575b506001600160a01b031633146106f1565b610773915060203d8111610312576103038183610d2d565b3861074a565b604051634ee2123760e11b81528690fd5b3461017e57600036600319011261017e5760005460405163d1f956b160e01b815290602090829060049082906001600160a01b03165afa908115610319576102c69161081391600091610823575b506040516107e581610cf2565b601381527267657464656c656761746f72436f756e74282960681b602082015261080d610d8c565b91611a65565b6040519081529081906020820190565b61083b915060203d8111610312576103038183610d2d565b386107d8565b3461017e57602061087161085436610183565b6001600160a01b0390911660009081526004845260409020610cc5565b54604051908152f35b3461017e57602036600319011261017e5760206108a160043561089c8161016d565b61175e565b6040519015158152f35b3461017e57602036600319011261017e57600460018060a01b0360206108d48260005416610c03565b604051630536340960e21b815293849182905afa9182156103195760009261090b575b50339116036105aa5761001660043561186b565b61092491925060203d8111610312576103038183610d2d565b90386108f7565b3461017e57602036600319011261017e576004356109488161016d565b803b600061095582610d71565b926109636040519485610d2d565b82845260208401903c602d81511061098757602a602091015160601c604051908152f35b60405163baf3f0f760e01b8152600490fd5b3461017e57602036600319011261017e5760206004356109b88161016d565b60018060a01b038091166000526005825260406000205416604051908152f35b3461017e5760208060031936011261017e57600480356109f78161016d565b60005460405163d1f956b160e01b81526001600160a01b03949093909182918591829088165afa908115610319576102c6946102b494600093610a58575b506040519316818401528252610a4a82610cf2565b610a52611807565b90611a29565b610a70919350823d8411610312576103038183610d2d565b9138610a35565b3461017e57600036600319011261017e5760206108a1611681565b3461017e57610aa036610183565b610aab6103f9611681565b61062157610ab83361175e565b8015610acd575b156105aa576100169161135f565b5060046020610ae0610234600054610c03565b604051630536340960e21b815292839182905afa90811561031957600091610b14575b506001600160a01b03163314610abf565b610b2c915060203d8111610312576103038183610d2d565b38610b03565b3461017e57606036600319011261017e57610016600435610b528161016d565b602435610b5e8161016d565b60443591610b6b83610670565b610e76565b3461017e57600036600319011261017e5760005460405163111ea8c160e21b815290602090829060049082906001600160a01b03165afa908115610319576102c69161081391600091610be5575b50604051610bcb81610cf2565b6005815264616765282960d81b602082015261080d610d8c565b610bfd915060203d8111610312576103038183610d2d565b38610bbe565b6001600160a01b031690565b6001600160a01b0316600090815260036020526040902090565b6001600160a01b0316600090815260056020526040902090565b6001600160a01b0316600090815260066020526040902090565b6001600160a01b0316600090815260076020526040902090565b6001600160a01b0316600090815260046020526040902090565b6001600160a01b0316600090815260086020526040902090565b6001600160a01b0316600090815260096020526040902090565b9060018060a01b0316600052602052604060002090565b634e487b7160e01b600052604160045260246000fd5b604081019081106001600160401b03821117610d0d57604052565b610cdc565b602081019081106001600160401b03821117610d0d57604052565b601f909101601f19168101906001600160401b03821190821017610d0d57604052565b9081602091031261017e57516101a88161016d565b6040513d6000823e3d90fd5b6001600160401b038111610d0d57601f01601f191660200190565b60405190610d9982610d12565b60008252565b60405190610dac82610cf2565b601682527567657455736572546f496e737428616464726573732960501b6020830152565b634e487b7160e01b600052601160045260246000fd5b600019810191908211610df657565b610dd1565b91908203918211610df657565b604051610e1481610d12565b60008152906000368137565b60405190610e2d82610cf2565b601082526f6d61784d61707065644c696d6974282960801b6020830152565b9081602091031261017e575190565b9060018201809211610df657565b91908201809211610df657565b6001600160a01b039392908481161561119f5784831692831561119f57610eb26103f9610eab33610ea685610c0f565b610cc5565b5460ff1690565b61118d57610ec4610234600054610c03565b6040968751809263ab6e844f60e01b825281600460209586935afa801561031957610f1a61023491610f2893600091611170575b508b5190610f0c826102768b8a830161031e565b610f14610d9f565b90611967565b848082518301019101610d50565b1561115f57610f46610f3933610c29565b546001600160a01b031690565b851561108a57166110795780600491610f63610234600054610c03565b895163cfbffe5360e01b815293849182905afa90811561031957610fa2610faf92610fc29460009161105c575b50610f99610e08565b90610f14610e20565b8051810182019101610e4c565b610fbc33610ea685610c77565b54101590565b61104b57600080516020611aa283398151915293949561102f8261100b61104694610fec87610c43565b80546001600160a01b0319166001600160a01b03909216919091179055565b61101833610fec87610c5d565b61102585610fec33610c29565b610ea63391610c77565b6110398154610e5b565b90555192839233846104cf565b0390a2565b855163b111d8ef60e01b8152600490fd5b6110739150833d8511610312576103038183610d2d565b38610f90565b8651632a431ae760e11b8152600490fd5b935093505093949250818116156111595761111c92600080516020611aa2833981519152611107936110be610f3985610c43565b6110f8856110ce610f3982610c5d565b95516001600160a01b03968716815295166020860152600060408601529116929081906060820190565b0390a261111761110782610c43565b80546001600160a01b0319169055565b610c5d565b61112861110733610c29565b61113533610ea683610c77565b5461113d5750565b61114b90610ea63391610c77565b6111558154610de7565b9055565b50505050565b875163d92e233d60e01b8152600490fd5b6111879150863d8811610312576103038183610d2d565b38610ef8565b604051633a3c22ef60e11b8152600490fd5b60405163d92e233d60e01b8152600490fd5b91908110156111c15760051b0190565b634e487b7160e01b600052603260045260246000fd5b356101a88161016d565b93949092919281830361127657600091825b848110611204575050505050505050565b80611270611215600193858c6111b1565b3561121f81610670565b61122a83878c6111b1565b356112348161016d565b848060a01b03168752600360205261125f60408820611254858b8d6111b1565b3590610ea68261016d565b9060ff801983541691151516179055565b016111f3565b6040516001621398b960e31b03198152600490fd5b92918282036112765760005b8281106112a75750505050505050565b851561132d57866112c96112c46112bf84878a6111b1565b6111d7565b610cab565b54036112e15760405163e391354960e01b8152600490fd5b80876112f66112c46112bf600195888b6111b1565b556113028186856111b1565b3561132461131c6113176112bf85898c6111b1565b610c91565b918254610e69565b90555b01611297565b8061133b60019286856111b1565b356113586113506113176112bf85898c6111b1565b918254610dfb565b9055611327565b906001600160a01b0380831690811561119f578216801561119f5703611383575050565b8161142f91611393600094610c91565b5461139d82610c91565b556113b66113ad610f3984610c43565b610fec83610c43565b6113ce6113c5610f3984610c5d565b610fec83610c5d565b6113e681610fec6113e1610f3983610c5d565b610c29565b6113f96113f283610cab565b5491610cab565b558261140482610c91565b556114176111076113e1610f3984610c5d565b61142361110782610c43565b6112c461110782610c5d565b55565b60405190606082016001600160401b03811183821017610d0d5760405260248252636573732960e01b6040837f67657456616c696461746f7244656c656761746f724f6655736572286164647260208201520152565b9081606091031261017e57805161149e8161016d565b91604060208301516114af8161016d565b9201516101a881610670565b604051906114c882610cf2565b6011825270696e636f6d654f6628616464726573732960781b6020830152565b6001600160a01b03908082161561119f57611507610234600054610c03565b6040516318c9774160e21b80825290916020908184600481845afa91821561031957869460009361164d575b50806115756115676040518061154b8b86830161031e565b039661155f601f1998898101845283610d2d565b610f14611432565b828082518301019101611488565b97919990991698169460046040518095819382525afa96871561031957611614610fec966115e389610ea69561162a9c611619998b9960009261162c575b506115d591926115c9604051958692830161031e565b03908101845283610d2d565b6115dd6114bb565b90611a65565b6115ec8a610c91565b556115fa83610fec8b610c43565b61160785610fec8b610c5d565b61125f85610ea685610c0f565b610c77565b6116238154610e5b565b9055610c29565b565b6115d5925061164790843d8611610312576103038183610d2d565b916115b3565b816116659294503d8511610312576103038183610d2d565b9138611533565b9081602091031261017e57516101a881610670565b600054604051634bf9c0ad60e11b81526020918290829060049082906001600160a01b03165afa8015610319576116e991600091611710575b506040516116c781610cf2565b6008815267697353616665282960c01b848201526116e3610d8c565b91611992565b9080611706575b156102ca57816101a8928251830101910161166c565b50818151146116f0565b6117279150833d8511610312576103038183610d2d565b386116ba565b6040519061173a82610cf2565b601582527469735365637572654261736528616464726573732960581b6020830152565b61176c610234600054610c03565b906040518092634bf9c0ad60e11b825281600460209586935afa8015610319576116e992610276926000926117b7575b506117af9060405193849187830161031e565b61028c61172d565b6117af9192506117d390863d8811610312576103038183610d2d565b919061179c565b604051906117e782610cf2565b601182527069735369676e657228616464726573732960781b6020830152565b6040519061181482610cf2565b6018825277697364656c656761746f724e6f646528616464726573732960401b6020830152565b3d15611866573d9061184c82610d71565b9161185a6040519384610d2d565b82523d6000602084013e565b606090565b600061187a6102348254610c03565b9060405180926311be646b60e21b825281600460209586935afa8015610319578280868194938294839161194a575b505af16118b461183b565b50156102ca576004826118ca6102348454610c03565b604051635e09dbe760e01b815292839182905afa908115610319577fcdcc745fe377b103b45fa0cec23ae3ef93d6fc6a84a01f0d18c40b354dd1d5d893611046939261192d575b50506040519384526001600160a01b0316929081906020820190565b6119439250803d10610312576103038183610d2d565b3880611911565b6119619150883d8a11610312576103038183610d2d565b386118a9565b906119729291611992565b906000901561197f575090565b604051915061198d82610d12565b815290565b9190823b15611a10578051906020918263ffffffff60e01b92012016916040519180830193845281519160005b8381106119fc5750505091816119ec60248260009795968897018783820152036004810184520182610d2d565b51915afa6119f861183b565b9091565b8181018301518582016024015282016119bf565b505050600090604051611a2281610d12565b6000815290565b9291611a3791600094611992565b9080611a5a575b611a455750565b6101a89192506020808251830101910161166c565b506020815114611a3e565b9291611a7391600094611992565b9080611a96575b611a815750565b6101a891925060208082518301019101610e4c565b506020815114611a7a56fe73e162dc4d0165c5ab2c676b5ce1e58e8333a5e1b0e75ea3957f2ca0aa8abc2ea264697066735822122056a98afa467f5117e3934693ff60a6e5d3fa30774e36ec6c47f8c52036f0607864736f6c63430008140033","linkReferences":{}},"methodIdentifiers":{"Burn(uint256)":"b90306ad","_delegatorCount()":"a1f7f539","_getImplementation(address)":"c54e44b0","_isDelegatorNode(address)":"e01ad5fd","_isSafe()":"e0a9bc2b","_isSecureBase(address)":"af484526","_isSigner(address)":"1f185d16","getBalance()":"12065fe0","getHexbase()":"3b9b7955","getUserFromDelegator(address)":"d7a83fc6","getValidatorDelegator(address,address)":"1133b886","getValidatorDelegatorCount(address,address)":"ae9568d7","getValidatorDelegatorOfUser(address)":"8dab13dc","importData(address)":"9498d88b","incomeOf(address)":"9b03bea6","mapValidatorDelegator(address,address,bool)":"f5caf38c","owner()":"8da5cb5b","systemAge()":"fdc10bc9","transferUser(address,address)":"e3d1d5bf","updateDelegators(address[],address[],bool[])":"6ec35cd5","updateIncome(address[],uint256[],bool,uint256)":"9fb2726b"},"id":27}