{"abi":[{"type":"constructor","inputs":[{"name":"_hex","type":"address","internalType":"address"}],"stateMutability":"nonpayable"},{"type":"fallback","stateMutability":"payable"},{"type":"receive","stateMutability":"payable"},{"type":"function","name":"Burn","inputs":[{"name":"amount","type":"uint256","internalType":"uint256"}],"outputs":[],"stateMutability":"nonpayable"},{"type":"function","name":"_delegatorCount","inputs":[],"outputs":[{"name":"","type":"uint256","internalType":"uint256"}],"stateMutability":"view"},{"type":"function","name":"_getImplementation","inputs":[{"name":"clone","type":"address","internalType":"address"}],"outputs":[{"name":"impl","type":"address","internalType":"address"}],"stateMutability":"view"},{"type":"function","name":"_isDelegatorNode","inputs":[{"name":"sender","type":"address","internalType":"address"}],"outputs":[{"name":"","type":"bool","internalType":"bool"}],"stateMutability":"view"},{"type":"function","name":"_isSafe","inputs":[],"outputs":[{"name":"","type":"bool","internalType":"bool"}],"stateMutability":"view"},{"type":"function","name":"_isSecureBase","inputs":[{"name":"sender","type":"address","internalType":"address"}],"outputs":[{"name":"","type":"bool","internalType":"bool"}],"stateMutability":"view"},{"type":"function","name":"_isSigner","inputs":[{"name":"sender","type":"address","internalType":"address"}],"outputs":[{"name":"","type":"bool","internalType":"bool"}],"stateMutability":"view"},{"type":"function","name":"getBalance","inputs":[],"outputs":[{"name":"","type":"uint256","internalType":"uint256"}],"stateMutability":"view"},{"type":"function","name":"getHexbase","inputs":[],"outputs":[{"name":"","type":"address","internalType":"address"}],"stateMutability":"view"},{"type":"function","name":"getUserFromDelegator","inputs":[{"name":"delegator","type":"address","internalType":"address"}],"outputs":[{"name":"","type":"address","internalType":"address"}],"stateMutability":"view"},{"type":"function","name":"getValidatorDelegator","inputs":[{"name":"_v","type":"address","internalType":"address"},{"name":"_d","type":"address","internalType":"address"}],"outputs":[{"name":"","type":"bool","internalType":"bool"}],"stateMutability":"view"},{"type":"function","name":"getValidatorDelegatorCount","inputs":[{"name":"_v","type":"address","internalType":"address"},{"name":"_d","type":"address","internalType":"address"}],"outputs":[{"name":"","type":"uint256","internalType":"uint256"}],"stateMutability":"view"},{"type":"function","name":"getValidatorDelegatorOfUser","inputs":[{"name":"user","type":"address","internalType":"address"}],"outputs":[{"name":"","type":"address","internalType":"address"},{"name":"","type":"address","internalType":"address"},{"name":"","type":"bool","internalType":"bool"}],"stateMutability":"view"},{"type":"function","name":"importData","inputs":[{"name":"_u","type":"address","internalType":"address"}],"outputs":[],"stateMutability":"nonpayable"},{"type":"function","name":"incomeOf","inputs":[{"name":"user","type":"address","internalType":"address"}],"outputs":[{"name":"","type":"uint256","internalType":"uint256"}],"stateMutability":"view"},{"type":"function","name":"lastUpdatedEpochOf","inputs":[{"name":"user","type":"address","internalType":"address"}],"outputs":[{"name":"","type":"uint256","internalType":"uint256"}],"stateMutability":"view"},{"type":"function","name":"mapValidatorDelegator","inputs":[{"name":"user","type":"address","internalType":"address"},{"name":"vald","type":"address","internalType":"address"},{"name":"activate","type":"bool","internalType":"bool"}],"outputs":[],"stateMutability":"nonpayable"},{"type":"function","name":"owner","inputs":[],"outputs":[{"name":"","type":"address","internalType":"address"}],"stateMutability":"view"},{"type":"function","name":"syncBaseAddr","inputs":[],"outputs":[],"stateMutability":"nonpayable"},{"type":"function","name":"systemAge","inputs":[],"outputs":[{"name":"","type":"uint256","internalType":"uint256"}],"stateMutability":"view"},{"type":"function","name":"transferUser","inputs":[{"name":"userfrom","type":"address","internalType":"address"},{"name":"userto","type":"address","internalType":"address"}],"outputs":[],"stateMutability":"nonpayable"},{"type":"function","name":"updateDelegators","inputs":[{"name":"valds","type":"address[]","internalType":"address[]"},{"name":"dels","type":"address[]","internalType":"address[]"},{"name":"active","type":"bool[]","internalType":"bool[]"}],"outputs":[],"stateMutability":"nonpayable"},{"type":"function","name":"updateIncome","inputs":[{"name":"users","type":"address[]","internalType":"address[]"},{"name":"amounts","type":"uint256[]","internalType":"uint256[]"},{"name":"increase","type":"bool","internalType":"bool"},{"name":"_age","type":"uint256","internalType":"uint256"}],"outputs":[],"stateMutability":"nonpayable"},{"type":"event","name":"DelegatorMapped","inputs":[{"name":"validator","type":"address","indexed":true,"internalType":"address"},{"name":"delegator","type":"address","indexed":false,"internalType":"address"},{"name":"user","type":"address","indexed":false,"internalType":"address"},{"name":"activate","type":"bool","indexed":false,"internalType":"bool"}],"anonymous":false},{"type":"event","name":"EthBurned","inputs":[{"name":"sender","type":"address","indexed":true,"internalType":"address"},{"name":"amount","type":"uint256","indexed":false,"internalType":"uint256"}],"anonymous":false},{"type":"event","name":"EthTransferred","inputs":[{"name":"to","type":"address","indexed":true,"internalType":"address"},{"name":"amount","type":"uint256","indexed":false,"internalType":"uint256"}],"anonymous":false},{"type":"event","name":"HexBaseUpdated","inputs":[{"name":"previousHexBase","type":"address","indexed":true,"internalType":"address"},{"name":"newHexBase","type":"address","indexed":true,"internalType":"address"}],"anonymous":false},{"type":"event","name":"OwnerUpdated","inputs":[{"name":"previousOwner","type":"address","indexed":true,"internalType":"address"},{"name":"newOwner","type":"address","indexed":true,"internalType":"address"}],"anonymous":false},{"type":"error","name":"AlreadyMapped","inputs":[]},{"type":"error","name":"AlreadyUpdatedForToDay","inputs":[]},{"type":"error","name":"CallFailed","inputs":[]},{"type":"error","name":"InvalidAddress","inputs":[]},{"type":"error","name":"InvalidState","inputs":[]},{"type":"error","name":"LengthMismatch","inputs":[]},{"type":"error","name":"MapLimitOver","inputs":[]},{"type":"error","name":"NotAuthorized","inputs":[]},{"type":"error","name":"NotMapped","inputs":[]},{"type":"error","name":"NotSafe","inputs":[]},{"type":"error","name":"ReentrancyGuardReentrantCall","inputs":[]},{"type":"error","name":"StaticCallFailed","inputs":[]},{"type":"error","name":"TargetCallFailed","inputs":[{"name":"selector","type":"bytes4","internalType":"bytes4"}]},{"type":"error","name":"ZeroAddress","inputs":[]}],"bytecode":{"object":"0x60803461009757601f61202c38819003918201601f19168301916001600160401b0383118484101761009c5780849260209460405283398101031261009757516001600160a01b038116908190036100975780156100855760018060a01b03193381600154161760015560005416176000556001601155604051611f7990816100b38239f35b60405163e6c4247b60e01b8152600490fd5b600080fd5b634e487b7160e01b600052604160045260246000fdfe60806040526004361015610018575b361561001657005b005b60003560e01c80631133b8861461018857806312065fe0146101835780631f185d161461017e578063339459a6146101795780633b9b7955146101745780633c00e40d1461016f5780636ec35cd51461016a5780638da5cb5b146101655780638dab13dc146101605780639498d88b1461015b5780639b03bea6146101565780639fb2726b14610151578063a1f7f5391461014c578063ae9568d714610147578063af48452614610142578063b90306ad1461013d578063c54e44b014610138578063d7a83fc614610133578063e01ad5fd1461012e578063e0a9bc2b14610129578063e3d1d5bf14610124578063f5caf38c1461011f5763fdc10bc90361000e57611234565b6111f6565b61109f565b611084565b610fbd565b610f7e565b610f10565b610e34565b610e03565b610dca565b610d60565b610bd5565b610b8e565b610b0e565b610a9f565b610a54565b6108fe565b610891565b610868565b6102f8565b610231565b610215565b6101d7565b6001600160a01b031690565b6001600160a01b038116036101aa57565b600080fd5b60409060031901126101aa576004356101c781610199565b906024356101d481610199565b90565b346101aa57602060ff6102096101ec366101af565b6001600160a01b0390911660009081526012855260409020611336565b54166040519015158152f35b346101aa5760003660031901126101aa57602047604051908152f35b346101aa576020806003193601126101aa576102a460043561025281610199565b6002546040516001600160a01b039283168582015284815291166102758261139a565b604051906102828261139a565b601182527069735369676e657228616464726573732960781b85830152611e50565b9190806102ee575b156102dc5781816102c6926102d894518301019101611ced565b60405190151581529081906020820190565b0390f35b604051633204506f60e01b8152600490fd5b50808251146102ac565b346101aa5760003660031901126101aa5761031c61031760005461018d565b61018d565b604051634bf9c0ad60e11b815290602082600481845afa91821561068557600092610834575b5060405163cfbffe5360e01b815291602083600481855afa92831561068557600093610813575b5060405163ab6e844f60e01b815290602082600481865afa918215610685576000926107f2575b50604051630536340960e21b815291602083600481875afa928315610685576000936107d1575b5060405163d1f956b160e01b815292602084600481885afa938415610685576000946107b0575b50604051631cc3bfab60e31b815293602085600481895afa9485156106855760009561078f575b5060405163e09d394d60e01b81526020816004818a5afa90811561068557600091610770575b506040516314ac1b5960e21b81526020816004818b5afa90811561068557600091610751575b5060405163013cf08b60e01b815260006004820152916020836024818c5afa92831561068557600093610730575b50604051635e09dbe760e01b8152976020896004818d5afa9485156106855760049960009661070f575b50604051635506ee0b60e11b8152996020908b90818e5afa9687156106855760049a6000986106ee575b50604051636402742760e01b81529a6020908c90818f5afa9889156106855760049b60009a6106cd575b5060208d6040519d8e80926330125cf560e01b82525afa9a8b15610685578d60049d60009d6106ab575b506020906040519e8f80926324768d9160e01b82525afa9c8d156106855760009d61068a575b506040516313b92d3560e31b81529d8e9081905a92600491602094fa9d8e156106855760009e610654575b506105816113f8565b9e8f9161058e90836119ec565b61059b90602083016119ec565b604001906105a8916119ec565b6105b59060608e016119ec565b6105c29060808d016119ec565b6105cf9060a08c016119ec565b6105dc9060c08b016119ec565b6105e99060e08a016119ec565b6105f79061010089016119ec565b6106059061012088016119ec565b6106139061014087016119ec565b6106219061016086016119ec565b61062f9061018085016119ec565b61063d906101a084016119ec565b61064b906101c083016119ec565b610016906119fb565b610677919e5060203d60201161067e575b61066f81836113d5565b810190611465565b9c38610578565b503d610665565b611775565b6106a4919d5060203d60201161067e5761066f81836113d5565b9b3861054d565b6020919d506106c690823d841161067e5761066f81836113d5565b9c90610527565b6106e7919a5060203d60201161067e5761066f81836113d5565b98386104fd565b61070891985060203d60201161067e5761066f81836113d5565b96386104d3565b61072991965060203d60201161067e5761066f81836113d5565b94386104a9565b61074a91935060203d60201161067e5761066f81836113d5565b913861047f565b61076a915060203d60201161067e5761066f81836113d5565b38610451565b610789915060203d60201161067e5761066f81836113d5565b3861042b565b6107a991955060203d60201161067e5761066f81836113d5565b9338610405565b6107ca91945060203d60201161067e5761066f81836113d5565b92386103de565b6107eb91935060203d60201161067e5761066f81836113d5565b91386103b7565b61080c91925060203d60201161067e5761066f81836113d5565b9038610390565b61082d91935060203d60201161067e5761066f81836113d5565b9138610369565b61084e91925060203d60201161067e5761066f81836113d5565b9038610342565b6001600160a01b03909116815260200190565b346101aa5760003660031901126101aa576000546040516001600160a01b039091168152602090f35b346101aa5760203660031901126101aa576004356108ae81610199565b60018060a01b031660005260186020526020604060002054604051908152f35b9181601f840112156101aa578235916001600160401b0383116101aa576020808501948460051b0101116101aa57565b346101aa5760603660031901126101aa5760046001600160401b0381358181116101aa5761092f90369084016108ce565b906024358381116101aa5761094790369086016108ce565b90936044359081116101aa5761096090369087016108ce565b94909561096b611d02565b15610a455761097933611d74565b8015610a31575b15610a2257858303610a10575060005b82811061099957005b80610a0a6109aa600193898b611745565b356109b481610bcb565b6109bf838989611745565b356109c981610199565b848060a01b031660005260126020526109f960406000206109f36109ee868a8a611745565b61176b565b90611336565b9060ff801983541691151516179055565b01610990565b6040516001621398b960e31b03198152fd5b60405163ea8e4eb560e01b8152fd5b506005546001600160a01b03163314610980565b604051634ee2123760e11b8152fd5b346101aa5760003660031901126101aa576001546040516001600160a01b039091168152602090f35b6001600160a01b03918216815291166020820152901515604082015260600190565b346101aa5760203660031901126101aa57600435610abc81610199565b60018060a01b038091166000526015602052806040600020541690601660205260406000205416908060005260126020526102d860ff610b00846040600020611336565b541660405193849384610a7d565b346101aa5760203660031901126101aa57600435610b2b81610199565b610b33611d02565b15610b7c57610b4133611d74565b8015610b68575b15610b565761001690611837565b60405163ea8e4eb560e01b8152600490fd5b506005546001600160a01b03163314610b48565b604051634ee2123760e11b8152600490fd5b346101aa5760203660031901126101aa57600435610bab81610199565b60018060a01b031660005260176020526020604060002054604051908152f35b801515036101aa57565b346101aa5760803660031901126101aa5760046001600160401b0381358181116101aa57610c0690369084016108ce565b916024359081116101aa57610c1e90369085016108ce565b6044359391610c2c85610bcb565b606435610c37611d02565b15610d4f57610c4533611d74565b8015610d3b575b15610d2a57828403610d165760005b848110610c6457005b8615610ce45781610c81610c7c6109ee84898b611745565b61129a565b5403610c985760405163e391354960e01b81528890fd5b8082610cad610c7c6109ee6001958a8c611745565b55610cb9818686611745565b35610cdb610cd3610cce6109ee858b8d611745565b611280565b9182546114db565b90555b01610c5b565b80610cf26001928686611745565b35610d0f610d07610cce6109ee858b8d611745565b918254611377565b9055610cde565b6040516001621398b960e31b031981528790fd5b60405163ea8e4eb560e01b81528790fd5b506005546001600160a01b03163314610c4c565b604051634ee2123760e11b81528790fd5b346101aa5760003660031901126101aa576020610dc260018060a01b0360065416604051610d8d8161139a565b601381527267657464656c656761746f72436f756e74282960681b8482015260405191610db9836113ba565b60008352611ee7565b604051908152f35b346101aa576020610dfa610ddd366101af565b6001600160a01b0390911660009081526013845260409020611336565b54604051908152f35b346101aa5760203660031901126101aa576020610e2a600435610e2581610199565b611d74565b6040519015158152f35b346101aa5760203660031901126101aa57600554600435906001600160a01b03163303610b565760009060046020610e6f610317855461018d565b6040516311be646b60e21b815292839182905afa80156106855783808481949382948391610ef2575b505af1610ea3611df5565b50156102dc577fcdcc745fe377b103b45fa0cec23ae3ef93d6fc6a84a01f0d18c40b354dd1d5d8610eec610edb610317600b5461018d565b604051938452929081906020820190565b0390a280f35b610f0a915060203d811161067e5761066f81836113d5565b38610e98565b346101aa5760203660031901126101aa57600435610f2d81610199565b803b6000610f3a82611418565b92610f4860405194856113d5565b82845260208401903c602d815110610f6c57602a602091015160601c604051908152f35b60405163baf3f0f760e01b8152600490fd5b346101aa5760203660031901126101aa576020600435610f9d81610199565b60018060a01b038091166000526014825260406000205416604051908152f35b346101aa576020806003193601126101aa576102d89060043590610fe082610199565b6006546040516001600160a01b0393841683820152828152921691611040906110088161139a565b6040516110148161139a565b6018815277697364656c656761746f724e6f646528616464726573732960401b84820152600094611e50565b91908061107a575b611061575b505060405190151581529081906020820190565b61107392508082518301019101611ced565b388061104d565b5080825114611048565b346101aa5760003660031901126101aa576020610e2a611d02565b346101aa576110ad366101af565b6110b5611d02565b15610b7c576110c333611d74565b80156111e2575b15610b56576001600160a01b039180831680156111d05783831680156111d057036110f157005b6000926111ba92611111611104846112b4565b546001600160a01b031690565b9161111b84611280565b5461112583611280565b5561115d611135611104866112ce565b61113e846112ce565b80546001600160a01b0319166001600160a01b03909216919091179055565b61116a8361113e846112b4565b6111738461129a565b5461117d8361129a565b5582166111bd575b50508261119182611280565b556111ae61119e826112ce565b80546001600160a01b0319169055565b610c7c61119e826112b4565b55005b61113e6111c9926112e8565b3880611185565b60405163d92e233d60e01b8152600490fd5b506005546001600160a01b031633146110ca565b346101aa5760603660031901126101aa5761001660043561121681610199565b60243561122281610199565b6044359161122f83610bcb565b6114e8565b346101aa5760003660031901126101aa576020610dc260018060a01b03600354166040516112618161139a565b600681526569416765282960d01b8482015260405191610db9836113ba565b6001600160a01b0316600090815260176020526040902090565b6001600160a01b0316600090815260186020526040902090565b6001600160a01b0316600090815260166020526040902090565b6001600160a01b0316600090815260156020526040902090565b6001600160a01b0316600090815260146020526040902090565b6001600160a01b0316600090815260136020526040902090565b6001600160a01b0316600090815260126020526040902090565b9060018060a01b0316600052602052604060002090565b634e487b7160e01b600052601160045260246000fd5b60001981019190821161137257565b61134d565b9190820391821161137257565b634e487b7160e01b600052604160045260246000fd5b604081019081106001600160401b038211176113b557604052565b611384565b602081019081106001600160401b038211176113b557604052565b601f909101601f19168101906001600160401b038211908210176113b557604052565b604051906101e082016001600160401b038111838210176113b557604052565b6001600160401b0381116113b557601f01601f191660200190565b604051906114408261139a565b601682527567657455736572546f496e737428616464726573732960501b6020830152565b908160209103126101aa57516101d481610199565b604051611486816113ba565b60008152906000368137565b6040519061149f8261139a565b601082526f6d61784d61707065644c696d6974282960801b6020830152565b908160209103126101aa575190565b906001820180921161137257565b9190820180921161137257565b916114f5611104336112e8565b928115611681576001600160a01b03818116156111d0578084169485156111d05761153961153561152e336115298961131c565b611336565b5460ff1690565b1590565b61166f5761159161031761158261155160045461018d565b60405190611574826115668a60208301610855565b03601f1981018452836113d5565b61157c611433565b90611e25565b60208082518301019101611465565b156111d0571661165d576115e26115cf6115c06115af60035461018d565b6115b761147a565b9061157c611492565b602080825183010191016114be565b6115dc3361152987611302565b54101590565b61164b5761162a83611606600080516020611f248339815191529561113e856112ce565b6116133361113e856112b4565b6116208361113e336112e8565b6115293391611302565b61163481546114cd565b90556116466040519283923384610a7d565b0390a2565b60405163b111d8ef60e01b8152600490fd5b604051632a431ae760e11b8152600490fd5b604051633a3c22ef60e11b8152600490fd5b506001600160a01b039291505080821615611741576116f461119e6116a8611104846112ce565b604080513381526001600160a01b03861660208201526000918101919091529094851693908490600080516020611f2483398151915290606090a26116ef61119e826112ce565b6112b4565b61170061119e336112e8565b15158061172b575b61170f5750565b61171d906115293391611302565b6117278154611363565b9055565b506117393361152983611302565b541515611708565b5050565b91908110156117555760051b0190565b634e487b7160e01b600052603260045260246000fd5b356101d481610199565b6040513d6000823e3d90fd5b60405190606082016001600160401b038111838210176113b55760405260248252636573732960e01b6040837f67657456616c696461746f7244656c656761746f724f6655736572286164647260208201520152565b908160609103126101aa5780516117ed81610199565b91604060208301516117fe81610199565b9201516101d481610bcb565b604051906118178261139a565b6011825270696e636f6d654f6628616464726573732960781b6020830152565b6001600160a01b03908082161561174157611857610317611104836112ce565b6117415761186961031760005461018d565b6040516318c9774160e21b80825290916020908184600481845afa9182156106855786946000936119cd575b506118d66118c8604051806118ac8a868301610855565b03956118c0601f19978881018452836113d5565b61157c611781565b8280825183010191016117d7565b98909116979516938715806119c5575b6119bb57819060046040518095819382525afa9687156106855761198261113e9661195189611529956119989c611987998b9960009261199a575b5061194391926119376040519586928301610855565b039081018452836113d5565b61194b61180a565b90611ee7565b61195a8a611280565b556119688361113e8b6112ce565b6119758561113e8b6112b4565b6109f9856115298561131c565b611302565b61199181546114cd565b90556112e8565b565b61194392506119b590843d861161067e5761066f81836113d5565b91611921565b5050505050505050565b5084156118e6565b816119e59294503d851161067e5761066f81836113d5565b9138611895565b6001600160a01b039091169052565b611ccb6101c061199892611a34611a12825161018d565b600280546001600160a01b0319166001600160a01b0392909216919091179055565b611a66611a44602083015161018d565b600380546001600160a01b0319166001600160a01b0392909216919091179055565b611a98611a76604083015161018d565b600480546001600160a01b0319166001600160a01b0392909216919091179055565b611aca611aa8606083015161018d565b600580546001600160a01b0319166001600160a01b0392909216919091179055565b611afc611ada608083015161018d565b600680546001600160a01b0319166001600160a01b0392909216919091179055565b611b2e611b0c60a083015161018d565b600780546001600160a01b0319166001600160a01b0392909216919091179055565b611b60611b3e60c083015161018d565b600880546001600160a01b0319166001600160a01b0392909216919091179055565b611b92611b7060e083015161018d565b600980546001600160a01b0319166001600160a01b0392909216919091179055565b611bc5611ba361010083015161018d565b600a80546001600160a01b0319166001600160a01b0392909216919091179055565b611bf8611bd661012083015161018d565b600b80546001600160a01b0319166001600160a01b0392909216919091179055565b611c2b611c0961014083015161018d565b600c80546001600160a01b0319166001600160a01b0392909216919091179055565b611c5e611c3c61016083015161018d565b600d80546001600160a01b0319166001600160a01b0392909216919091179055565b611c91611c6f61018083015161018d565b600e80546001600160a01b0319166001600160a01b0392909216919091179055565b611cc4611ca26101a083015161018d565b600f80546001600160a01b0319166001600160a01b0392909216919091179055565b015161018d565b601080546001600160a01b0319166001600160a01b0392909216919091179055565b908160209103126101aa57516101d481610bcb565b600254604051611d4a916001600160a01b031690611d1f8161139a565b6008815267697353616665282960c01b602082015260405191611d41836113ba565b60008352611e50565b9080611d69575b156102dc57806020806101d493518301019101611ced565b506020815114611d51565b611dce60018060a01b038060025416604051916020941684830152838252611d9b8261139a565b60405190611da88261139a565b601582527469735365637572654261736528616464726573732960581b85830152611e50565b9080611deb575b156102dc57816101d49282518301019101611ced565b5081815114611dd5565b3d15611e20573d90611e0682611418565b91611e1460405193846113d5565b82523d6000602084013e565b606090565b90611e309291611e50565b9060009015611e3d575090565b6040519150611e4b826113ba565b815290565b9190823b15611ece578051906020918263ffffffff60e01b92012016916040519180830193845281519160005b838110611eba575050509181611eaa602482600097959688970187838201520360048101845201826113d5565b51915afa611eb6611df5565b9091565b818101830151858201602401528201611e7d565b505050600090604051611ee0816113ba565b6000815290565b9291611ef591600094611e50565b9080611f18575b611f035750565b6101d4919250602080825183010191016114be565b506020815114611efc56fe73e162dc4d0165c5ab2c676b5ce1e58e8333a5e1b0e75ea3957f2ca0aa8abc2ea26469706673582212201fb9c5a5541258221bc3258213eedb9f0280b19d382bb824c7b280d6a653fec664736f6c63430008140033","linkReferences":{}},"methodIdentifiers":{"Burn(uint256)":"b90306ad","_delegatorCount()":"a1f7f539","_getImplementation(address)":"c54e44b0","_isDelegatorNode(address)":"e01ad5fd","_isSafe()":"e0a9bc2b","_isSecureBase(address)":"af484526","_isSigner(address)":"1f185d16","getBalance()":"12065fe0","getHexbase()":"3b9b7955","getUserFromDelegator(address)":"d7a83fc6","getValidatorDelegator(address,address)":"1133b886","getValidatorDelegatorCount(address,address)":"ae9568d7","getValidatorDelegatorOfUser(address)":"8dab13dc","importData(address)":"9498d88b","incomeOf(address)":"9b03bea6","lastUpdatedEpochOf(address)":"3c00e40d","mapValidatorDelegator(address,address,bool)":"f5caf38c","owner()":"8da5cb5b","syncBaseAddr()":"339459a6","systemAge()":"fdc10bc9","transferUser(address,address)":"e3d1d5bf","updateDelegators(address[],address[],bool[])":"6ec35cd5","updateIncome(address[],uint256[],bool,uint256)":"9fb2726b"},"id":26}