{"abi":[{"type":"constructor","inputs":[{"name":"_hex","type":"address","internalType":"address"}],"stateMutability":"nonpayable"},{"type":"fallback","stateMutability":"payable"},{"type":"receive","stateMutability":"payable"},{"type":"function","name":"Burn","inputs":[{"name":"amount","type":"uint256","internalType":"uint256"}],"outputs":[],"stateMutability":"nonpayable"},{"type":"function","name":"_delegatorCount","inputs":[],"outputs":[{"name":"","type":"uint256","internalType":"uint256"}],"stateMutability":"view"},{"type":"function","name":"_getImplementation","inputs":[{"name":"clone","type":"address","internalType":"address"}],"outputs":[{"name":"impl","type":"address","internalType":"address"}],"stateMutability":"view"},{"type":"function","name":"_isDelegatorNode","inputs":[{"name":"sender","type":"address","internalType":"address"}],"outputs":[{"name":"","type":"bool","internalType":"bool"}],"stateMutability":"view"},{"type":"function","name":"_isSafe","inputs":[],"outputs":[{"name":"","type":"bool","internalType":"bool"}],"stateMutability":"view"},{"type":"function","name":"_isSecureBase","inputs":[{"name":"sender","type":"address","internalType":"address"}],"outputs":[{"name":"","type":"bool","internalType":"bool"}],"stateMutability":"view"},{"type":"function","name":"_isSigner","inputs":[{"name":"sender","type":"address","internalType":"address"}],"outputs":[{"name":"","type":"bool","internalType":"bool"}],"stateMutability":"view"},{"type":"function","name":"getBalance","inputs":[],"outputs":[{"name":"","type":"uint256","internalType":"uint256"}],"stateMutability":"view"},{"type":"function","name":"getHexbase","inputs":[],"outputs":[{"name":"","type":"address","internalType":"address"}],"stateMutability":"view"},{"type":"function","name":"getUserFromDelegator","inputs":[{"name":"delegator","type":"address","internalType":"address"}],"outputs":[{"name":"","type":"address","internalType":"address"}],"stateMutability":"view"},{"type":"function","name":"getValidatorDelegator","inputs":[{"name":"_v","type":"address","internalType":"address"},{"name":"_d","type":"address","internalType":"address"}],"outputs":[{"name":"","type":"bool","internalType":"bool"}],"stateMutability":"view"},{"type":"function","name":"getValidatorDelegatorCount","inputs":[{"name":"_v","type":"address","internalType":"address"},{"name":"_d","type":"address","internalType":"address"}],"outputs":[{"name":"","type":"uint256","internalType":"uint256"}],"stateMutability":"view"},{"type":"function","name":"getValidatorDelegatorOfUser","inputs":[{"name":"user","type":"address","internalType":"address"}],"outputs":[{"name":"","type":"address","internalType":"address"},{"name":"","type":"address","internalType":"address"},{"name":"","type":"bool","internalType":"bool"}],"stateMutability":"view"},{"type":"function","name":"importData","inputs":[{"name":"_u","type":"address","internalType":"address"}],"outputs":[],"stateMutability":"nonpayable"},{"type":"function","name":"incomeOf","inputs":[{"name":"user","type":"address","internalType":"address"}],"outputs":[{"name":"","type":"uint256","internalType":"uint256"}],"stateMutability":"view"},{"type":"function","name":"mapValidatorDelegator","inputs":[{"name":"user","type":"address","internalType":"address"},{"name":"vald","type":"address","internalType":"address"},{"name":"activate","type":"bool","internalType":"bool"}],"outputs":[],"stateMutability":"nonpayable"},{"type":"function","name":"owner","inputs":[],"outputs":[{"name":"","type":"address","internalType":"address"}],"stateMutability":"view"},{"type":"function","name":"systemAge","inputs":[],"outputs":[{"name":"","type":"uint256","internalType":"uint256"}],"stateMutability":"view"},{"type":"function","name":"transferUser","inputs":[{"name":"userfrom","type":"address","internalType":"address"},{"name":"userto","type":"address","internalType":"address"}],"outputs":[],"stateMutability":"nonpayable"},{"type":"function","name":"updateDelegators","inputs":[{"name":"valds","type":"address[]","internalType":"address[]"},{"name":"dels","type":"address[]","internalType":"address[]"},{"name":"active","type":"bool[]","internalType":"bool[]"}],"outputs":[],"stateMutability":"nonpayable"},{"type":"function","name":"updateIncome","inputs":[{"name":"users","type":"address[]","internalType":"address[]"},{"name":"amounts","type":"uint256[]","internalType":"uint256[]"},{"name":"increase","type":"bool","internalType":"bool"},{"name":"_age","type":"uint256","internalType":"uint256"}],"outputs":[],"stateMutability":"nonpayable"},{"type":"event","name":"DelegatorMapped","inputs":[{"name":"validator","type":"address","indexed":true,"internalType":"address"},{"name":"delegator","type":"address","indexed":false,"internalType":"address"},{"name":"user","type":"address","indexed":false,"internalType":"address"},{"name":"activate","type":"bool","indexed":false,"internalType":"bool"}],"anonymous":false},{"type":"event","name":"EthBurned","inputs":[{"name":"sender","type":"address","indexed":true,"internalType":"address"},{"name":"amount","type":"uint256","indexed":false,"internalType":"uint256"}],"anonymous":false},{"type":"event","name":"EthTransferred","inputs":[{"name":"to","type":"address","indexed":true,"internalType":"address"},{"name":"amount","type":"uint256","indexed":false,"internalType":"uint256"}],"anonymous":false},{"type":"event","name":"HexBaseUpdated","inputs":[{"name":"previousHexBase","type":"address","indexed":true,"internalType":"address"},{"name":"newHexBase","type":"address","indexed":true,"internalType":"address"}],"anonymous":false},{"type":"event","name":"OwnerUpdated","inputs":[{"name":"previousOwner","type":"address","indexed":true,"internalType":"address"},{"name":"newOwner","type":"address","indexed":true,"internalType":"address"}],"anonymous":false},{"type":"error","name":"AlreadyMapped","inputs":[]},{"type":"error","name":"AlreadyUpdatedForToDay","inputs":[]},{"type":"error","name":"LengthMismatch","inputs":[]},{"type":"error","name":"MapLimitOver","inputs":[]},{"type":"error","name":"NotMapped","inputs":[]},{"type":"error","name":"ReentrancyGuardReentrantCall","inputs":[]},{"type":"error","name":"StaticCallFailed","inputs":[]},{"type":"error","name":"TargetCallFailed","inputs":[{"name":"selector","type":"bytes4","internalType":"bytes4"}]},{"type":"error","name":"ZeroAddress","inputs":[]}],"bytecode":{"object":"0x6080346100ca57601f6121b838819003918201601f19168301916001600160401b038311848410176100cf578084926020946040528339810103126100ca57516001600160a01b038116908190036100ca5780156100855760018060a01b031933816001541617600155600054161760005560016003556040516120d290816100e68239f35b60405162461bcd60e51b815260206004820152601360248201527f6f776e2e696e76616c69642e68657862617365000000000000000000000000006044820152606490fd5b600080fd5b634e487b7160e01b600052604160045260246000fdfe60806040526004361015610018575b361561001657005b005b60003560e01c80631133b8861461016857806312065fe0146101635780631f185d161461015e5780633b9b7955146101595780636ec35cd5146101545780638da5cb5b1461014f5780638dab13dc1461014a5780639498d88b146101455780639b03bea6146101405780639fb2726b1461013b578063a1f7f53914610136578063ae9568d714610131578063af4845261461012c578063b90306ad14610127578063c54e44b014610122578063d7a83fc61461011d578063e01ad5fd14610118578063e0a9bc2b14610113578063e3d1d5bf1461010e578063f5caf38c146101095763fdc10bc90361000e57610e19565b610ddb565b610ae2565b610ac7565b610a2d565b6109ed565b61094b565b61088f565b61085e565b610814565b610756565b610663565b61061b565b610567565b6104c4565b61049d565b610397565b61033f565b610216565b6101fa565b6101ab565b6001600160a01b0381160361017e57565b600080fd5b604090600319011261017e5760043561019b8161016d565b906024356101a88161016d565b90565b3461017e57602060ff6101ee6001600160a01b036101c836610183565b9116600052600484526040600020906001600160a01b0316600052602052604060002090565b54166040519015158152f35b3461017e57600036600319011261017e57602047604051908152f35b3461017e5760208060031936011261017e576004908135906102378261016d565b8061025961024d6000546001600160a01b031690565b6001600160a01b031690565b60405194858092634bf9c0ad60e11b82525afa91821561033a576102ad6102e7936102c9926102f996600092610307575b506102bb906040519384918783019190916001600160a01b036020820193169052565b03601f198101845283610f2d565b6102c3611d63565b90611f73565b9190806102fd575b6102da90611d9c565b8082518301019101611b60565b60405190151581529081906020820190565b0390f35b50815181146102d1565b6102bb91925061032c90863d8811610333575b6103248183610f2d565b810190610f4f565b919061028a565b503d61031a565b610f64565b3461017e57600036600319011261017e5760206001600160a01b0360005416604051908152f35b9181601f8401121561017e5782359167ffffffffffffffff831161017e576020808501948460051b01011161017e57565b3461017e57606036600319011261017e5767ffffffffffffffff60043581811161017e576103c9903690600401610366565b60249291923582811161017e576103e4903690600401610366565b909260443590811161017e576103fe903690600401610366565b93909261041161040c611b75565b61157b565b61041a33611cb9565b8015610433575b9561042e610016976115c6565b611641565b506001600160a01b039560046020886000541660405192838092630536340960e21b82525afa801561033a576100169861042e9260009261047d575b503391161491975050610421565b61049691925060203d8111610333576103248183610f2d565b903861046f565b3461017e57600036600319011261017e5760206001600160a01b0360015416604051908152f35b3461017e57602036600319011261017e576004356104e18161016d565b6001600160a01b038091166000526007602052806040600020541690600860205260406000205416908060005260046020526102f960ff610539846040600020906001600160a01b0316600052602052604060002090565b54166040519384938491939260409160608401956001600160a01b0380921685521660208401521515910152565b3461017e57602036600319011261017e576004356105848161016d565b61058f61040c611b75565b61059833611cb9565b80156105b1575b906105ac610016926115c6565b6118d9565b506001600160a01b039060046020836000541660405192838092630536340960e21b82525afa801561033a57610016936105ac926000926105fb575b50339116149192505061059f565b61061491925060203d8111610333576103248183610f2d565b90386105ed565b3461017e57602036600319011261017e576001600160a01b036004356106408161016d565b1660005260096020526020604060002054604051908152f35b8015150361017e57565b3461017e57608036600319011261017e5767ffffffffffffffff60043581811161017e57610695903690600401610366565b9160243590811161017e576106ae903690600401610366565b604435916106bb83610659565b6106c661040c611b75565b6106cf33611cb9565b80156106ec575b946106e3610016966115c6565b60643594611702565b506001600160a01b039460046020876000541660405192838092630536340960e21b82525afa801561033a57610016976106e392600092610736575b5033911614919650506106d6565b61074f91925060203d8111610333576103248183610f2d565b9038610728565b3461017e57600036600319011261017e57600460206001600160a01b03600054166040519283809263d1f956b160e01b82525afa90811561033a576102f9916107e6916000916107f6575b506040516107ae81610ef0565b601381527f67657464656c656761746f72436f756e7428290000000000000000000000000060208201526107e0610f8c565b91612060565b6040519081529081906020820190565b61080e915060203d8111610333576103248183610f2d565b386107a1565b3461017e5760206108556001600160a01b0361082f36610183565b9116600052600583526040600020906001600160a01b0316600052602052604060002090565b54604051908152f35b3461017e57602036600319011261017e5760206108856004356108808161016d565b611cb9565b6040519015158152f35b3461017e57602036600319011261017e5760046001600160a01b036020816000541660405193848092630536340960e21b82525afa91821561033a5760009261092b575b50339116036108e757610016600435611e50565b606460405162461bcd60e51b815260206004820152600f60248201527f6f776e2e6e6f6e617574682e44414f00000000000000000000000000000000006044820152fd5b61094491925060203d8111610333576103248183610f2d565b90386108d3565b3461017e57602036600319011261017e576004356109688161016d565b803b600061097582610f70565b926109836040519485610f2d565b82845260208401903c602d8151106109a957602a015160405160609190911c8152602090f35b606460405162461bcd60e51b815260206004820152601360248201527f4e6f742061206d696e696d616c2070726f7879000000000000000000000000006044820152fd5b3461017e57602036600319011261017e576020600435610a0c8161016d565b6001600160a01b038091166000526006825260406000205416604051908152f35b3461017e5760208060031936011261017e5760048035610a4c8161016d565b6001600160a01b03928084600054166040519485809263d1f956b160e01b82525afa90811561033a576102f9946102e794600093610aa8575b506040519316818401528252610a9a82610ef0565b610aa2611de7565b90612024565b610ac0919350823d8411610333576103248183610f2d565b9138610a85565b3461017e57600036600319011261017e576020610885611b75565b3461017e57610af036610183565b610afb61040c611b75565b610b0433611cb9565b8015610d78575b610b14906115c6565b6001600160a01b03808316908115610d675782168015610d675703610b3557005b81610d6491610b596000946001600160a01b03166000526009602052604060002090565b54610b77826001600160a01b03166000526009602052604060002090565b55610bed610ba8610b9b846001600160a01b03166000526007602052604060002090565b546001600160a01b031690565b610bc5836001600160a01b03166000526007602052604060002090565b906001600160a01b031673ffffffffffffffffffffffffffffffffffffffff19825416179055565b610c2d610c10610b9b846001600160a01b03166000526008602052604060002090565b610bc5836001600160a01b03166000526008602052604060002090565b610c6d81610bc5610c54610b9b836001600160a01b03166000526008602052604060002090565b6001600160a01b03166000526006602052604060002090565b610ca8610c8d836001600160a01b0316600052600a602052604060002090565b54916001600160a01b0316600052600a602052604060002090565b5582610cc7826001600160a01b03166000526009602052604060002090565b55610d0b610cee610c54610b9b846001600160a01b03166000526008602052604060002090565b73ffffffffffffffffffffffffffffffffffffffff198154169055565b610d2b610cee826001600160a01b03166000526007602052604060002090565b610d4b610cee826001600160a01b03166000526008602052604060002090565b6001600160a01b0316600052600a602052604060002090565b55005b600460405163d92e233d60e01b8152fd5b5060046001600160a01b036020816000541660405193848092630536340960e21b82525afa90811561033a57610b1492600092610dbb575b501633149050610b0b565b610dd491925060203d8111610333576103248183610f2d565b9038610db0565b3461017e57606036600319011261017e57610016600435610dfb8161016d565b602435610e078161016d565b60443591610e1483610659565b61108a565b3461017e57600036600319011261017e57600460206001600160a01b0360005416604051928380927f447aa3040000000000000000000000000000000000000000000000000000000082525afa90811561033a576102f9916107e691600091610ebc575b50604051610e8a81610ef0565b600581527f616765282900000000000000000000000000000000000000000000000000000060208201526107e0610f8c565b610ed4915060203d8111610333576103248183610f2d565b38610e7d565b634e487b7160e01b600052604160045260246000fd5b6040810190811067ffffffffffffffff821117610f0c57604052565b610eda565b6020810190811067ffffffffffffffff821117610f0c57604052565b90601f8019910116810190811067ffffffffffffffff821117610f0c57604052565b9081602091031261017e57516101a88161016d565b6040513d6000823e3d90fd5b67ffffffffffffffff8111610f0c57601f01601f191660200190565b60405190610f9982610f11565b60008252565b60405190610fac82610ef0565b601682527f67657455736572546f496e7374286164647265737329000000000000000000006020830152565b634e487b7160e01b600052601160045260246000fd5b600019810191908211610ffd57565b610fd8565b91908203918211610ffd57565b60405161101b81610f11565b60008152906000368137565b6040519061103482610ef0565b601082527f6d61784d61707065644c696d69742829000000000000000000000000000000006020830152565b9081602091031261017e575190565b9060018201809211610ffd57565b91908201809211610ffd57565b92916001600160a01b039384811615610d6757848316928315610d67576110f16110ed6110e6336110ce856001600160a01b03166000526004602052604060002090565b906001600160a01b0316600052602052604060002090565b5460ff1690565b1590565b6115515761110a61024d6000546001600160a01b031690565b604096875180927fab6e844f00000000000000000000000000000000000000000000000000000000825281600460209586935afa801561033a5761118961024d9161119793600091611534575b508b519061117b826102ad8b8a83019190916001600160a01b036020820193169052565b611183610f9f565b90611f48565b848082518301019101610f4f565b15611524576111bc610b9b336001600160a01b03166000526006602052604060002090565b85156113c1571661139857806004916111e061024d6000546001600160a01b031690565b8951938480927fcfbffe530000000000000000000000000000000000000000000000000000000082525afa90811561033a576112376112449261126b9460009161137b575b5061122e61100f565b90611183611027565b8051810182019101611060565b611265336110ce856001600160a01b03166000526005602052604060002090565b54101590565b611352577f73e162dc4d0165c5ab2c676b5ce1e58e8333a5e1b0e75ea3957f2ca0aa8abc2e93949561131b826112bb61134d94610bc5876001600160a01b03166000526007602052604060002090565b6112dc33610bc5876001600160a01b03166000526008602052604060002090565b6112fd85610bc5336001600160a01b03166000526006602052604060002090565b6110ce33916001600160a01b03166000526005602052604060002090565b611325815461106f565b9055513381526001600160a01b03909216602083015291151560408201529081906060820190565b0390a2565b600486517fb111d8ef000000000000000000000000000000000000000000000000000000008152fd5b6113929150833d8511610333576103248183610f2d565b38611225565b600487517f548635ce000000000000000000000000000000000000000000000000000000008152fd5b9350935050939492508181161561151e576114a5927f73e162dc4d0165c5ab2c676b5ce1e58e8333a5e1b0e75ea3957f2ca0aa8abc2e610cee9361141b610b9b856001600160a01b03166000526007602052604060002090565b6114698561143f610b9b826001600160a01b03166000526008602052604060002090565b95516001600160a01b03968716815295166020860152600060408601529116929081906060820190565b0390a261148c610cee826001600160a01b03166000526007602052604060002090565b6001600160a01b03166000526008602052604060002090565b6114c5610cee336001600160a01b03166000526006602052604060002090565b6114e6336110ce836001600160a01b03166000526005602052604060002090565b546114ee5750565b611510906110ce33916001600160a01b03166000526005602052604060002090565b61151a8154610fee565b9055565b50505050565b6004885163d92e233d60e01b8152fd5b61154b9150863d8811610333576103248183610f2d565b38611157565b60046040517f747845de000000000000000000000000000000000000000000000000000000008152fd5b1561158257565b606460405162461bcd60e51b815260206004820152601260248201527f6f776e2e696e76616c69642e69735361666500000000000000000000000000006044820152fd5b156115cd57565b606460405162461bcd60e51b815260206004820152601b60248201527f6f776e2e6e6f6e617574682e44414f6f725365637572656261736500000000006044820152fd5b91908110156116215760051b0190565b634e487b7160e01b600052603260045260246000fd5b356101a88161016d565b9394909291928183036116d857600091825b848110611664575050505050505050565b806116d2611675600193858c611611565b3561167f81610659565b6001600160a01b0361169284888d611611565b3561169c8161016d565b16875260046020526116c1604088206116b6858b8d611611565b35906110ce8261016d565b9060ff801983541691151516179055565b01611653565b60046040517fff633a38000000000000000000000000000000000000000000000000000000008152fd5b92918282036116d85760005b82811061171e5750505050505050565b85156117cb578661173b610d4b61173684878a611611565b611637565b540361176b5760046040517fe3913549000000000000000000000000000000000000000000000000000000008152fd5b8087611780610d4b611736600195888b611611565b5561178c818685611611565b356117c26117ba6117a161173685898c611611565b6001600160a01b03166000526009602052604060002090565b91825461107d565b90555b0161170e565b806117d96001928685611611565b356117f66117ee6117a161173685898c611611565b918254611002565b90556117c5565b604051906060820182811067ffffffffffffffff821117610f0c57604052602482527f65737329000000000000000000000000000000000000000000000000000000006040837f67657456616c696461746f7244656c656761746f724f6655736572286164647260208201520152565b9081606091031261017e5780516118838161016d565b91604060208301516118948161016d565b9201516101a881610659565b604051906118ad82610ef0565b601182527f696e636f6d654f662861646472657373290000000000000000000000000000006020830152565b6001600160a01b039081811615610d67576118ff61024d6000546001600160a01b031690565b604051907f6325dd0400000000000000000000000000000000000000000000000000000000908183526020908184600481845afa91821561033a578694600093611af6575b50806119966119886040518061196c8b8683019190916001600160a01b036020820193169052565b0396611980601f1998898101845283610f2d565b6111836117fd565b82808251830101910161186d565b97919990991698169460046040518095819382525afa96871561033a57611a95610bc596611a14896110ce95611ad39c611aae998b99600092611ad5575b50611a0691926119fa60405195869283019190916001600160a01b036020820193169052565b03908101845283610f2d565b611a0e6118a0565b90612060565b611a318a6001600160a01b03166000526009602052604060002090565b55611a5383610bc58b6001600160a01b03166000526007602052604060002090565b611a7485610bc58b6001600160a01b03166000526008602052604060002090565b6116c1856110ce856001600160a01b03166000526004602052604060002090565b6001600160a01b03166000526005602052604060002090565b611ab8815461106f565b90556001600160a01b03166000526006602052604060002090565b565b611a069250611af090843d8611610333576103248183610f2d565b916119d4565b81611b0e9294503d8511610333576103248183610f2d565b9138611944565b15611b1c57565b606460405162461bcd60e51b815260206004820152601960248201527f6f776e2e7361666567756172642e63616c6c2e6661696c6564000000000000006044820152fd5b9081602091031261017e57516101a881610659565b6001600160a01b03600054166040518091634bf9c0ad60e11b825281600460209384935afa91821561033a576101a892611bfd91600091611c18575b50604051611bbe81610ef0565b600881527f69735361666528290000000000000000000000000000000000000000000000008482015260405191611bf483610f11565b60008352611f73565b919080611c0e575b6102da90611b15565b5081518114611c05565b611c2f9150833d8511610333576103248183610f2d565b38611bb1565b60405190611c4282610ef0565b601582527f69735365637572654261736528616464726573732900000000000000000000006020830152565b15611c7557565b606460405162461bcd60e51b815260206004820152601a60248201527f6f776e2e736563757265626173652e63616c6c2e6661696c65640000000000006044820152fd5b6000546001600160a01b0316604051918291634bf9c0ad60e11b835282600460209485935afa92831561033a576101a893611d25926102ad92600092611d40575b50611d1d906040519384918783019190916001600160a01b036020820193169052565b6102c3611c35565b919080611d36575b6102da90611c6e565b5081518114611d2d565b611d1d919250611d5c90863d8811610333576103248183610f2d565b9190611cfa565b60405190611d7082610ef0565b601182527f69735369676e65722861646472657373290000000000000000000000000000006020830152565b15611da357565b606460405162461bcd60e51b815260206004820152601660248201527f6f776e2e7369676e65722e63616c6c2e6661696c6564000000000000000000006044820152fd5b60405190611df482610ef0565b601882527f697364656c656761746f724e6f646528616464726573732900000000000000006020830152565b3d15611e4b573d90611e3182610f70565b91611e3f6040519384610f2d565b82523d6000602084013e565b606090565b6000600460206001600160a01b03835416604051928380927f46f991ac0000000000000000000000000000000000000000000000000000000082525afa90811561033a578284819382938391611f2a575b505af1611eac611e20565b5015611ee65760405190815233907fcdcc745fe377b103b45fa0cec23ae3ef93d6fc6a84a01f0d18c40b354dd1d5d890806020810161134d565b606460405162461bcd60e51b815260206004820152600f60248201527f6f776e2e6275726e2e6661696c656400000000000000000000000000000000006044820152fd5b611f42915060203d8111610333576103248183610f2d565b38611ea1565b90611f539291611f73565b9060009015611f60575090565b6040519150611f6e82610f11565b815290565b9190823b1561200b577fffffffff00000000000000000000000000000000000000000000000000000000815160208093012016916040519180830193845281519160005b838110611ff7575050509181611fe460248260009795968897018783820152036004810184520182610f2d565b5191620dbba0fa611ff3611e20565b9091565b818101830151858201602401528201611fb7565b50505060009060405161201d81610f11565b6000815290565b929161203291600094611f73565b9080612055575b6120405750565b6101a891925060208082518301019101611b60565b506020815114612039565b929161206e91600094611f73565b9080612091575b61207c5750565b6101a891925060208082518301019101611060565b50602081511461207556fea2646970667358221220a0787f096bbff55ec0c4e61572be1360c3bc24e3f14fd2d8f288129aea06489564736f6c63430008140033","linkReferences":{}},"methodIdentifiers":{"Burn(uint256)":"b90306ad","_delegatorCount()":"a1f7f539","_getImplementation(address)":"c54e44b0","_isDelegatorNode(address)":"e01ad5fd","_isSafe()":"e0a9bc2b","_isSecureBase(address)":"af484526","_isSigner(address)":"1f185d16","getBalance()":"12065fe0","getHexbase()":"3b9b7955","getUserFromDelegator(address)":"d7a83fc6","getValidatorDelegator(address,address)":"1133b886","getValidatorDelegatorCount(address,address)":"ae9568d7","getValidatorDelegatorOfUser(address)":"8dab13dc","importData(address)":"9498d88b","incomeOf(address)":"9b03bea6","mapValidatorDelegator(address,address,bool)":"f5caf38c","owner()":"8da5cb5b","systemAge()":"fdc10bc9","transferUser(address,address)":"e3d1d5bf","updateDelegators(address[],address[],bool[])":"6ec35cd5","updateIncome(address[],uint256[],bool,uint256)":"9fb2726b"},"id":54}