{"abi":[{"type":"constructor","inputs":[{"name":"_hex","type":"address","internalType":"address"}],"stateMutability":"nonpayable"},{"type":"fallback","stateMutability":"payable"},{"type":"receive","stateMutability":"payable"},{"type":"function","name":"Burn","inputs":[{"name":"amount","type":"uint256","internalType":"uint256"}],"outputs":[],"stateMutability":"nonpayable"},{"type":"function","name":"_delegatorCount","inputs":[],"outputs":[{"name":"","type":"uint256","internalType":"uint256"}],"stateMutability":"view"},{"type":"function","name":"_getImplementation","inputs":[{"name":"clone","type":"address","internalType":"address"}],"outputs":[{"name":"impl","type":"address","internalType":"address"}],"stateMutability":"view"},{"type":"function","name":"_isDelegatorNode","inputs":[{"name":"sender","type":"address","internalType":"address"}],"outputs":[{"name":"","type":"bool","internalType":"bool"}],"stateMutability":"view"},{"type":"function","name":"_isSafe","inputs":[],"outputs":[{"name":"","type":"bool","internalType":"bool"}],"stateMutability":"view"},{"type":"function","name":"_isSecureBase","inputs":[{"name":"sender","type":"address","internalType":"address"}],"outputs":[{"name":"","type":"bool","internalType":"bool"}],"stateMutability":"view"},{"type":"function","name":"_isSigner","inputs":[{"name":"sender","type":"address","internalType":"address"}],"outputs":[{"name":"","type":"bool","internalType":"bool"}],"stateMutability":"view"},{"type":"function","name":"getBalance","inputs":[],"outputs":[{"name":"","type":"uint256","internalType":"uint256"}],"stateMutability":"view"},{"type":"function","name":"getHexbase","inputs":[],"outputs":[{"name":"","type":"address","internalType":"address"}],"stateMutability":"view"},{"type":"function","name":"getUserFromDelegator","inputs":[{"name":"delegator","type":"address","internalType":"address"}],"outputs":[{"name":"","type":"address","internalType":"address"}],"stateMutability":"view"},{"type":"function","name":"getValidatorDelegator","inputs":[{"name":"_v","type":"address","internalType":"address"},{"name":"_d","type":"address","internalType":"address"}],"outputs":[{"name":"","type":"bool","internalType":"bool"}],"stateMutability":"view"},{"type":"function","name":"getValidatorDelegatorCount","inputs":[{"name":"_v","type":"address","internalType":"address"},{"name":"_d","type":"address","internalType":"address"}],"outputs":[{"name":"","type":"uint256","internalType":"uint256"}],"stateMutability":"view"},{"type":"function","name":"getValidatorDelegatorOfUser","inputs":[{"name":"user","type":"address","internalType":"address"}],"outputs":[{"name":"","type":"address","internalType":"address"},{"name":"","type":"address","internalType":"address"},{"name":"","type":"bool","internalType":"bool"}],"stateMutability":"view"},{"type":"function","name":"importData","inputs":[{"name":"_u","type":"address","internalType":"address"}],"outputs":[],"stateMutability":"nonpayable"},{"type":"function","name":"incomeOf","inputs":[{"name":"user","type":"address","internalType":"address"}],"outputs":[{"name":"","type":"uint256","internalType":"uint256"}],"stateMutability":"view"},{"type":"function","name":"mapValidatorDelegator","inputs":[{"name":"user","type":"address","internalType":"address"},{"name":"vald","type":"address","internalType":"address"},{"name":"activate","type":"bool","internalType":"bool"}],"outputs":[],"stateMutability":"nonpayable"},{"type":"function","name":"owner","inputs":[],"outputs":[{"name":"","type":"address","internalType":"address"}],"stateMutability":"view"},{"type":"function","name":"syncBaseAddr","inputs":[],"outputs":[],"stateMutability":"nonpayable"},{"type":"function","name":"systemAge","inputs":[],"outputs":[{"name":"","type":"uint256","internalType":"uint256"}],"stateMutability":"view"},{"type":"function","name":"transferUser","inputs":[{"name":"userfrom","type":"address","internalType":"address"},{"name":"userto","type":"address","internalType":"address"}],"outputs":[],"stateMutability":"nonpayable"},{"type":"function","name":"updateDelegators","inputs":[{"name":"valds","type":"address[]","internalType":"address[]"},{"name":"dels","type":"address[]","internalType":"address[]"},{"name":"active","type":"bool[]","internalType":"bool[]"}],"outputs":[],"stateMutability":"nonpayable"},{"type":"function","name":"updateIncome","inputs":[{"name":"users","type":"address[]","internalType":"address[]"},{"name":"amounts","type":"uint256[]","internalType":"uint256[]"},{"name":"increase","type":"bool","internalType":"bool"},{"name":"_age","type":"uint256","internalType":"uint256"}],"outputs":[],"stateMutability":"nonpayable"},{"type":"event","name":"DelegatorMapped","inputs":[{"name":"validator","type":"address","indexed":true,"internalType":"address"},{"name":"delegator","type":"address","indexed":false,"internalType":"address"},{"name":"user","type":"address","indexed":false,"internalType":"address"},{"name":"activate","type":"bool","indexed":false,"internalType":"bool"}],"anonymous":false},{"type":"event","name":"EthBurned","inputs":[{"name":"sender","type":"address","indexed":true,"internalType":"address"},{"name":"amount","type":"uint256","indexed":false,"internalType":"uint256"}],"anonymous":false},{"type":"event","name":"EthTransferred","inputs":[{"name":"to","type":"address","indexed":true,"internalType":"address"},{"name":"amount","type":"uint256","indexed":false,"internalType":"uint256"}],"anonymous":false},{"type":"event","name":"HexBaseUpdated","inputs":[{"name":"previousHexBase","type":"address","indexed":true,"internalType":"address"},{"name":"newHexBase","type":"address","indexed":true,"internalType":"address"}],"anonymous":false},{"type":"event","name":"OwnerUpdated","inputs":[{"name":"previousOwner","type":"address","indexed":true,"internalType":"address"},{"name":"newOwner","type":"address","indexed":true,"internalType":"address"}],"anonymous":false},{"type":"error","name":"AlreadyMapped","inputs":[]},{"type":"error","name":"AlreadyUpdatedForToDay","inputs":[]},{"type":"error","name":"CallFailed","inputs":[]},{"type":"error","name":"InvalidAddress","inputs":[]},{"type":"error","name":"InvalidState","inputs":[]},{"type":"error","name":"LengthMismatch","inputs":[]},{"type":"error","name":"MapLimitOver","inputs":[]},{"type":"error","name":"NotAuthorized","inputs":[]},{"type":"error","name":"NotMapped","inputs":[]},{"type":"error","name":"NotSafe","inputs":[]},{"type":"error","name":"ReentrancyGuardReentrantCall","inputs":[]},{"type":"error","name":"StaticCallFailed","inputs":[]},{"type":"error","name":"TargetCallFailed","inputs":[{"name":"selector","type":"bytes4","internalType":"bytes4"}]},{"type":"error","name":"ZeroAddress","inputs":[]}],"bytecode":{"object":"0x60803461009957601f620025b038819003918201601f19168301916001600160401b0383118484101761009e5780849260209460405283398101031261009957516001600160a01b038116908190036100995780156100875760018060a01b031933816001541617600155600054161760005560016011556040516124fb9081620000b58239f35b60405163e6c4247b60e01b8152600490fd5b600080fd5b634e487b7160e01b600052604160045260246000fdfe60806040526004361015610018575b361561001657005b005b60003560e01c80631133b8861461017857806312065fe0146101735780631f185d161461016e578063339459a6146101695780633b9b7955146101645780636ec35cd51461015f5780638da5cb5b1461015a5780638dab13dc146101555780639498d88b146101505780639b03bea61461014b5780639fb2726b14610146578063a1f7f53914610141578063ae9568d71461013c578063af48452614610137578063b90306ad14610132578063c54e44b01461012d578063d7a83fc614610128578063e01ad5fd14610123578063e0a9bc2b1461011e578063e3d1d5bf14610119578063f5caf38c146101145763fdc10bc90361000e57611821565b6117e3565b611578565b61155d565b611492565b611452565b6113cc565b6112ba565b611289565b61123f565b6111ca565b610feb565b610fa3565b610cac565b610c09565b610be2565b610a61565b610a09565b610311565b610226565b61020a565b6101bb565b6001600160a01b0381160361018e57565b600080fd5b604090600319011261018e576004356101ab8161017d565b906024356101b88161017d565b90565b3461018e57602060ff6101fe6001600160a01b036101d836610193565b9116600052601284526040600020906001600160a01b0316600052602052604060002090565b54166040519015158152f35b3461018e57600036600319011261018e57602047604051908152f35b3461018e5760208060031936011261018e576102a56004356102478161017d565b6001600160a01b0380600254169060405192168483015283825261026a8261189b565b604051906102778261189b565b601182527f69735369676e6572286164647265737329000000000000000000000000000000858301526123db565b919080610307575b156102dd5781816102c7926102d99451830101910161225c565b60405190151581529081906020820190565b0390f35b60046040517f3204506f000000000000000000000000000000000000000000000000000000008152fd5b50808251146102ad565b3461018e57600036600319011261018e576103436103376000546001600160a01b031690565b6001600160a01b031690565b604051907f97f3815a000000000000000000000000000000000000000000000000000000008252602082600481845afa918215610839576000926109e8575b50604051917fcfbffe53000000000000000000000000000000000000000000000000000000008352602083600481855afa928315610839576000936109c7575b50604051907fab6e844f000000000000000000000000000000000000000000000000000000008252602082600481865afa918215610839576000926109a6575b50604051917f14d8d024000000000000000000000000000000000000000000000000000000008352602083600481875afa92831561083957600093610985575b50604051927fd1f956b1000000000000000000000000000000000000000000000000000000008452602084600481885afa93841561083957600094610964575b50604051937fe61dfd58000000000000000000000000000000000000000000000000000000008552602085600481895afa94851561083957600095610943575b506040517fe09d394d0000000000000000000000000000000000000000000000000000000081526020816004818a5afa90811561083957600091610924575b506040517f52b06d640000000000000000000000000000000000000000000000000000000081526020816004818b5afa90811561083957600091610905575b506040517f013cf08b00000000000000000000000000000000000000000000000000000000815260006004820152916020836024818c5afa928315610839576000936108e4575b50604051977f5e09dbe70000000000000000000000000000000000000000000000000000000089526020896004818d5afa948515610839576004996000966108c3575b5060208b6040519b8c80927faa0ddc160000000000000000000000000000000000000000000000000000000082525afa9687156108395760049a6000986108a2575b5060208c6040519c8d80927f640274270000000000000000000000000000000000000000000000000000000082525afa9889156108395760049b60009a610881575b5060208d6040519d8e80927f30125cf50000000000000000000000000000000000000000000000000000000082525afa9a8b15610839578d60049d60009d61085f575b506020906040519e8f80927f24768d910000000000000000000000000000000000000000000000000000000082525afa9c8d156108395760009d61083e575b50604051809e81907f9dc969a80000000000000000000000000000000000000000000000000000000082525a92600491602094fa9d8e156108395760009e610808575b5061071c6118fa565b6001600160a01b0390911681529d8e906001600160a01b031660208201526040019061075091906001600160a01b03169052565b6001600160a01b031660608d01526001600160a01b031660808c01526001600160a01b031660a08b01526001600160a01b031660c08a01526001600160a01b031660e08901526001600160a01b03166101008801526001600160a01b03166101208701526001600160a01b03166101408601526001600160a01b03166101608501526001600160a01b03166101808401526001600160a01b03166101a08301526001600160a01b03166101c082015261001690611f59565b61082b919e5060203d602011610832575b61082381836118d8565b810190611970565b9c38610713565b503d610819565b611e71565b610858919d5060203d6020116108325761082381836118d8565b9b386106d0565b6020919d5061087a90823d84116108325761082381836118d8565b9c90610691565b61089b919a5060203d6020116108325761082381836118d8565b983861064e565b6108bc91985060203d6020116108325761082381836118d8565b963861060c565b6108dd91965060203d6020116108325761082381836118d8565b94386105ca565b6108fe91935060203d6020116108325761082381836118d8565b9138610587565b61091e915060203d6020116108325761082381836118d8565b38610540565b61093d915060203d6020116108325761082381836118d8565b38610501565b61095d91955060203d6020116108325761082381836118d8565b93386104c2565b61097e91945060203d6020116108325761082381836118d8565b9238610482565b61099f91935060203d6020116108325761082381836118d8565b9138610442565b6109c091925060203d6020116108325761082381836118d8565b9038610402565b6109e191935060203d6020116108325761082381836118d8565b91386103c2565b610a0291925060203d6020116108325761082381836118d8565b9038610382565b3461018e57600036600319011261018e5760206001600160a01b0360005416604051908152f35b9181601f8401121561018e5782359167ffffffffffffffff831161018e576020808501948460051b01011161018e57565b3461018e57606036600319011261018e5767ffffffffffffffff6004803582811161018e57610a939036908301610a30565b919060243584811161018e57610aac9036908401610a30565b909460443590811161018e57610ac59036908501610a30565b959093610ad0612271565b15610bd357610ade336122f6565b8015610bbf575b15610bb057868303610b88575060005b828110610afe57005b80610b82610b0f6001938a89611e41565b35610b1981610fe1565b6001600160a01b03610b2c848b8a611e41565b35610b368161017d565b166000526012602052610b716040600020610b5a610b55868a8a611e41565b611e67565b6001600160a01b0316600052602052604060002090565b9060ff801983541691151516179055565b01610af5565b6040517fff633a38000000000000000000000000000000000000000000000000000000008152fd5b60405163ea8e4eb560e01b8152fd5b50336001600160a01b036005541614610ae5565b604051634ee2123760e11b8152fd5b3461018e57600036600319011261018e5760206001600160a01b0360015416604051908152f35b3461018e57602036600319011261018e57600435610c268161017d565b6001600160a01b038091166000526015602052806040600020541690601660205260406000205416908060005260126020526102d960ff610c7e846040600020906001600160a01b0316600052602052604060002090565b54166040519384938491939260409160608401956001600160a01b0380921685521660208401521515910152565b3461018e5760208060031936011261018e57600490813590610ccd8261017d565b610cd5612271565b15610f9357610ce3336122f6565b8015610f7f575b15610f6f576001600160a01b039283831615610f6057610d156103376000546001600160a01b031690565b91604051927f6325dd04000000000000000000000000000000000000000000000000000000009182855280858581855afa928315610839578795600094610f3f575b508190610db0610da260405180610d808c8783019190916001600160a01b036020820193169052565b0397610d94601f19998a81018452836118d8565b610d9c611e7d565b906123b0565b838082518301019101611eed565b98919a909a169916956040518095819382525afa96871561083957610ee0610e6b96610e2c89610ec8956100169c610ef9998b99600092610f1e575b50610e1e9192610e1260405195869283019190916001600160a01b036020820193169052565b039081018452836118d8565b610e26611f20565b90612489565b610e498a6001600160a01b03166000526017602052604060002090565b55610e8683610e6b8b6001600160a01b03166000526015602052604060002090565b906001600160a01b03166001600160a01b0319825416179055565b610ea785610e6b8b6001600160a01b03166000526016602052604060002090565b610b7185610ec8856001600160a01b03166000526012602052604060002090565b906001600160a01b0316600052602052604060002090565b6001600160a01b03166000526013602052604060002090565b610f038154611a1c565b90556001600160a01b03166000526014602052604060002090565b610e1e9250610f3990843d86116108325761082381836118d8565b91610dec565b82919450610f5990823d84116108325761082381836118d8565b9390610d57565b60405163d92e233d60e01b8152fd5b8260405163ea8e4eb560e01b8152fd5b50336001600160a01b036005541614610cea565b82604051634ee2123760e11b8152fd5b3461018e57602036600319011261018e576001600160a01b03600435610fc88161017d565b1660005260176020526020604060002054604051908152f35b8015150361018e57565b3461018e57608036600319011261018e57600467ffffffffffffffff813581811161018e5761101d9036908401610a30565b9160243590811161018e576110359036908501610a30565b604435939161104385610fe1565b60643561104e612271565b156111ba5761105c336122f6565b80156111a6575b156111965782840361116d5760005b84811061107b57005b861561113b57816110ac611093610b5584898b611e41565b6001600160a01b03166000526018602052604060002090565b54036110db57876040517fe3913549000000000000000000000000000000000000000000000000000000008152fd5b80826110f0611093610b556001958a8c611e41565b556110fc818686611e41565b3561113261112a611111610b55858b8d611e41565b6001600160a01b03166000526017602052604060002090565b918254611a2a565b90555b01611072565b806111496001928686611e41565b3561116661115e611111610b55858b8d611e41565b9182546119af565b9055611135565b866040517fff633a38000000000000000000000000000000000000000000000000000000008152fd5b8660405163ea8e4eb560e01b8152fd5b50336001600160a01b036005541614611063565b86604051634ee2123760e11b8152fd5b3461018e57600036600319011261018e5760206112376001600160a01b03600654166040516111f88161189b565b601381527f67657464656c656761746f72436f756e74282900000000000000000000000000848201526040519161122e836118bc565b60008352612489565b604051908152f35b3461018e5760206112806001600160a01b0361125a36610193565b9116600052601383526040600020906001600160a01b0316600052602052604060002090565b54604051908152f35b3461018e57602036600319011261018e5760206112b06004356112ab8161017d565b6122f6565b6040519015158152f35b3461018e57602036600319011261018e576004356001600160a01b036005541633036113bb57600090600460206112fb61033785546001600160a01b031690565b604051928380927f46f991ac0000000000000000000000000000000000000000000000000000000082525afa8015610839578380848194938294839161139d575b505af1611347612380565b50156102dd577fcdcc745fe377b103b45fa0cec23ae3ef93d6fc6a84a01f0d18c40b354dd1d5d8611397611386610337600b546001600160a01b031690565b604051938452929081906020820190565b0390a280f35b6113b5915060203d81116108325761082381836118d8565b3861133c565b600460405163ea8e4eb560e01b8152fd5b3461018e57602036600319011261018e576004356113e98161017d565b803b60006113f68261191b565b9261140460405194856118d8565b82845260208401903c602d81511061142857602a602091015160601c604051908152f35b60046040517fbaf3f0f7000000000000000000000000000000000000000000000000000000008152fd5b3461018e57602036600319011261018e5760206004356114718161017d565b6001600160a01b038091166000526014825260406000205416604051908152f35b3461018e5760208060031936011261018e576102d990600435906114b58261017d565b6115196001600160a01b03928360065416936040519116838201528281526114dc8161189b565b6040516114e88161189b565b601881527f697364656c656761746f724e6f64652861646472657373290000000000000000848201526000946123db565b919080611553575b61153a575b505060405190151581529081906020820190565b61154c9250808251830101910161225c565b3880611526565b5080825114611521565b3461018e57600036600319011261018e5760206112b0612271565b3461018e5761158636610193565b61158e612271565b156117d25761159c336122f6565b80156117be575b156113bb576001600160a01b038083169081156117ad57821680156117ad57036115c957005b816117aa916115ed6000946001600160a01b03166000526017602052604060002090565b5461160b826001600160a01b03166000526017602052604060002090565b5561165961163c61162f846001600160a01b03166000526015602052604060002090565b546001600160a01b031690565b610e6b836001600160a01b03166000526015602052604060002090565b61169961167c61162f846001600160a01b03166000526016602052604060002090565b610e6b836001600160a01b03166000526016602052604060002090565b6116d981610e6b6116c061162f836001600160a01b03166000526016602052604060002090565b6001600160a01b03166000526014602052604060002090565b6117146116f9836001600160a01b03166000526018602052604060002090565b54916001600160a01b03166000526018602052604060002090565b5582611733826001600160a01b03166000526017602052604060002090565b5561176a61175a6116c061162f846001600160a01b03166000526016602052604060002090565b6001600160a01b03198154169055565b61178a61175a826001600160a01b03166000526015602052604060002090565b61109361175a826001600160a01b03166000526016602052604060002090565b55005b600460405163d92e233d60e01b8152fd5b50336001600160a01b0360055416146115a3565b6004604051634ee2123760e11b8152fd5b3461018e57606036600319011261018e576100166004356118038161017d565b60243561180f8161017d565b6044359161181c83610fe1565b611a37565b3461018e57600036600319011261018e5760206112376001600160a01b036003541660405161184f8161189b565b600681527f6941676528290000000000000000000000000000000000000000000000000000848201526040519161122e836118bc565b634e487b7160e01b600052604160045260246000fd5b6040810190811067ffffffffffffffff8211176118b757604052565b611885565b6020810190811067ffffffffffffffff8211176118b757604052565b90601f8019910116810190811067ffffffffffffffff8211176118b757604052565b604051906101e0820182811067ffffffffffffffff8211176118b757604052565b67ffffffffffffffff81116118b757601f01601f191660200190565b604051906119448261189b565b601682527f67657455736572546f496e7374286164647265737329000000000000000000006020830152565b9081602091031261018e57516101b88161017d565b634e487b7160e01b600052601160045260246000fd5b6000198101919082116119aa57565b611985565b919082039182116119aa57565b6040516119c8816118bc565b60008152906000368137565b604051906119e18261189b565b601082527f6d61784d61707065644c696d69742829000000000000000000000000000000006020830152565b9081602091031261018e575190565b90600182018092116119aa57565b919082018092116119aa57565b92916001600160a01b0393848116156117ad578483169283156117ad57611a86611a82611a7b33610ec8856001600160a01b03166000526012602052604060002090565b5460ff1690565b1590565b611e1757600454604080516001600160a01b038581166020808401919091528252919892611ada9261033792611acb92909116611ac38c836118d8565b610d9c611937565b60208082518301019101611970565b15611e0757611aff61162f336001600160a01b03166000526014602052604060002090565b8415611ca55716611c7c57611b6c611b45611b36611b256003546001600160a01b031690565b611b2d6119bc565b90610d9c6119d4565b60208082518301019101611a0d565b611b6633610ec8856001600160a01b03166000526013602052604060002090565b54101590565b611c53577f73e162dc4d0165c5ab2c676b5ce1e58e8333a5e1b0e75ea3957f2ca0aa8abc2e939495611c1c82611bbc611c4e94610e6b876001600160a01b03166000526015602052604060002090565b611bdd33610e6b876001600160a01b03166000526016602052604060002090565b611bfe85610e6b336001600160a01b03166000526014602052604060002090565b610ec833916001600160a01b03166000526013602052604060002090565b611c268154611a1c565b9055513381526001600160a01b03909216602083015291151560408201529081906060820190565b0390a2565b600486517fb111d8ef000000000000000000000000000000000000000000000000000000008152fd5b600486517f548635ce000000000000000000000000000000000000000000000000000000008152fd5b925092509394925081811615611e0157611d88927f73e162dc4d0165c5ab2c676b5ce1e58e8333a5e1b0e75ea3957f2ca0aa8abc2e61175a93611cfe61162f856001600160a01b03166000526015602052604060002090565b611d4c85611d2261162f826001600160a01b03166000526016602052604060002090565b95516001600160a01b03968716815295166020860152600060408601529116929081906060820190565b0390a2611d6f61175a826001600160a01b03166000526015602052604060002090565b6001600160a01b03166000526016602052604060002090565b611da861175a336001600160a01b03166000526014602052604060002090565b611dc933610ec8836001600160a01b03166000526013602052604060002090565b54611dd15750565b611df390610ec833916001600160a01b03166000526013602052604060002090565b611dfd815461199b565b9055565b50505050565b6004875163d92e233d60e01b8152fd5b60046040517f747845de000000000000000000000000000000000000000000000000000000008152fd5b9190811015611e515760051b0190565b634e487b7160e01b600052603260045260246000fd5b356101b88161017d565b6040513d6000823e3d90fd5b604051906060820182811067ffffffffffffffff8211176118b757604052602482527f65737329000000000000000000000000000000000000000000000000000000006040837f67657456616c696461746f7244656c656761746f724f6655736572286164647260208201520152565b9081606091031261018e578051611f038161017d565b9160406020830151611f148161017d565b9201516101b881610fe1565b60405190611f2d8261189b565b601182527f696e636f6d654f662861646472657373290000000000000000000000000000006020830152565b61223e6101c061225a92611f93611f7782516001600160a01b031690565b6001600160a01b03166001600160a01b03196002541617600255565b611fc6611faa60208301516001600160a01b031690565b6001600160a01b03166001600160a01b03196003541617600355565b611ff9611fdd60408301516001600160a01b031690565b6001600160a01b03166001600160a01b03196004541617600455565b61202c61201060608301516001600160a01b031690565b6001600160a01b03166001600160a01b03196005541617600555565b61205f61204360808301516001600160a01b031690565b6001600160a01b03166001600160a01b03196006541617600655565b61209261207660a08301516001600160a01b031690565b6001600160a01b03166001600160a01b03196007541617600755565b6120c56120a960c08301516001600160a01b031690565b6001600160a01b03166001600160a01b03196008541617600855565b6120f86120dc60e08301516001600160a01b031690565b6001600160a01b03166001600160a01b03196009541617600955565b61212c6121106101008301516001600160a01b031690565b6001600160a01b03166001600160a01b0319600a541617600a55565b6121606121446101208301516001600160a01b031690565b6001600160a01b03166001600160a01b0319600b541617600b55565b6121946121786101408301516001600160a01b031690565b6001600160a01b03166001600160a01b0319600c541617600c55565b6121c86121ac6101608301516001600160a01b031690565b6001600160a01b03166001600160a01b0319600d541617600d55565b6121fc6121e06101808301516001600160a01b031690565b6001600160a01b03166001600160a01b0319600e541617600e55565b6122306122146101a08301516001600160a01b031690565b6001600160a01b03166001600160a01b0319600f541617600f55565b01516001600160a01b031690565b6001600160a01b03166001600160a01b03196010541617601055565b565b9081602091031261018e57516101b881610fe1565b6122cc6001600160a01b036002541660405161228c8161189b565b600881527f69735361666528290000000000000000000000000000000000000000000000006020820152604051916122c3836118bc565b600083526123db565b90806122eb575b156102dd57806020806101b89351830101910161225c565b5060208151146122d3565b6123596001600160a01b03806002541660405191602094168483015283825261231e8261189b565b6040519061232b8261189b565b601582527f6973536563757265426173652861646472657373290000000000000000000000858301526123db565b9080612376575b156102dd57816101b8928251830101910161225c565b5081815114612360565b3d156123ab573d906123918261191b565b9161239f60405193846118d8565b82523d6000602084013e565b606090565b906123bb92916123db565b90600090156123c8575090565b60405191506123d6826118bc565b815290565b9190823b15612470577fffffffff00000000000000000000000000000000000000000000000000000000815160208093012016916040519180830193845281519160005b83811061245c57505050918161244c602482600097959688970187838201520360048101845201826118d8565b51915afa612458612380565b9091565b81810183015185820160240152820161241f565b505050600090604051612482816118bc565b6000815290565b9291612497916000946123db565b90806124ba575b6124a55750565b6101b891925060208082518301019101611a0d565b50602081511461249e56fea26469706673582212203a44ac4e8eeeb9c9c2aef181791e8e02cf4bba9c53c01284ea2aa266a0dd7b9264736f6c63430008140033","linkReferences":{}},"methodIdentifiers":{"Burn(uint256)":"b90306ad","_delegatorCount()":"a1f7f539","_getImplementation(address)":"c54e44b0","_isDelegatorNode(address)":"e01ad5fd","_isSafe()":"e0a9bc2b","_isSecureBase(address)":"af484526","_isSigner(address)":"1f185d16","getBalance()":"12065fe0","getHexbase()":"3b9b7955","getUserFromDelegator(address)":"d7a83fc6","getValidatorDelegator(address,address)":"1133b886","getValidatorDelegatorCount(address,address)":"ae9568d7","getValidatorDelegatorOfUser(address)":"8dab13dc","importData(address)":"9498d88b","incomeOf(address)":"9b03bea6","mapValidatorDelegator(address,address,bool)":"f5caf38c","owner()":"8da5cb5b","syncBaseAddr()":"339459a6","systemAge()":"fdc10bc9","transferUser(address,address)":"e3d1d5bf","updateDelegators(address[],address[],bool[])":"6ec35cd5","updateIncome(address[],uint256[],bool,uint256)":"9fb2726b"},"id":54}