{"abi":[{"type":"constructor","inputs":[{"name":"_hex","type":"address","internalType":"address"}],"stateMutability":"nonpayable"},{"type":"fallback","stateMutability":"payable"},{"type":"receive","stateMutability":"payable"},{"type":"function","name":"Burn","inputs":[{"name":"amount","type":"uint256","internalType":"uint256"}],"outputs":[],"stateMutability":"nonpayable"},{"type":"function","name":"_delegatorCount","inputs":[],"outputs":[{"name":"","type":"uint256","internalType":"uint256"}],"stateMutability":"view"},{"type":"function","name":"_getImplementation","inputs":[{"name":"clone","type":"address","internalType":"address"}],"outputs":[{"name":"impl","type":"address","internalType":"address"}],"stateMutability":"view"},{"type":"function","name":"_isDelegatorNode","inputs":[{"name":"sender","type":"address","internalType":"address"}],"outputs":[{"name":"","type":"bool","internalType":"bool"}],"stateMutability":"view"},{"type":"function","name":"_isSafe","inputs":[],"outputs":[{"name":"","type":"bool","internalType":"bool"}],"stateMutability":"view"},{"type":"function","name":"_isSecureBase","inputs":[{"name":"sender","type":"address","internalType":"address"}],"outputs":[{"name":"","type":"bool","internalType":"bool"}],"stateMutability":"view"},{"type":"function","name":"_isSigner","inputs":[{"name":"sender","type":"address","internalType":"address"}],"outputs":[{"name":"","type":"bool","internalType":"bool"}],"stateMutability":"view"},{"type":"function","name":"getBalance","inputs":[],"outputs":[{"name":"","type":"uint256","internalType":"uint256"}],"stateMutability":"view"},{"type":"function","name":"getHexbase","inputs":[],"outputs":[{"name":"","type":"address","internalType":"address"}],"stateMutability":"view"},{"type":"function","name":"getUserFromDelegator","inputs":[{"name":"delegator","type":"address","internalType":"address"}],"outputs":[{"name":"","type":"address","internalType":"address"}],"stateMutability":"view"},{"type":"function","name":"getValidatorDelegator","inputs":[{"name":"_v","type":"address","internalType":"address"},{"name":"_d","type":"address","internalType":"address"}],"outputs":[{"name":"","type":"bool","internalType":"bool"}],"stateMutability":"view"},{"type":"function","name":"getValidatorDelegatorCount","inputs":[{"name":"_v","type":"address","internalType":"address"},{"name":"_d","type":"address","internalType":"address"}],"outputs":[{"name":"","type":"uint256","internalType":"uint256"}],"stateMutability":"view"},{"type":"function","name":"getValidatorDelegatorOfUser","inputs":[{"name":"user","type":"address","internalType":"address"}],"outputs":[{"name":"","type":"address","internalType":"address"},{"name":"","type":"address","internalType":"address"},{"name":"","type":"bool","internalType":"bool"}],"stateMutability":"view"},{"type":"function","name":"importData","inputs":[{"name":"_u","type":"address","internalType":"address"}],"outputs":[],"stateMutability":"nonpayable"},{"type":"function","name":"incomeOf","inputs":[{"name":"user","type":"address","internalType":"address"}],"outputs":[{"name":"","type":"uint256","internalType":"uint256"}],"stateMutability":"view"},{"type":"function","name":"lastUpdatedEpochOf","inputs":[{"name":"user","type":"address","internalType":"address"}],"outputs":[{"name":"","type":"uint256","internalType":"uint256"}],"stateMutability":"view"},{"type":"function","name":"mapValidatorDelegator","inputs":[{"name":"user","type":"address","internalType":"address"},{"name":"vald","type":"address","internalType":"address"},{"name":"activate","type":"bool","internalType":"bool"}],"outputs":[],"stateMutability":"nonpayable"},{"type":"function","name":"owner","inputs":[],"outputs":[{"name":"","type":"address","internalType":"address"}],"stateMutability":"view"},{"type":"function","name":"syncBaseAddr","inputs":[],"outputs":[],"stateMutability":"nonpayable"},{"type":"function","name":"systemAge","inputs":[],"outputs":[{"name":"","type":"uint256","internalType":"uint256"}],"stateMutability":"view"},{"type":"function","name":"transferUser","inputs":[{"name":"userfrom","type":"address","internalType":"address"},{"name":"userto","type":"address","internalType":"address"}],"outputs":[],"stateMutability":"nonpayable"},{"type":"function","name":"updateDelegators","inputs":[{"name":"valds","type":"address[]","internalType":"address[]"},{"name":"dels","type":"address[]","internalType":"address[]"},{"name":"active","type":"bool[]","internalType":"bool[]"}],"outputs":[],"stateMutability":"nonpayable"},{"type":"function","name":"updateIncome","inputs":[{"name":"users","type":"address[]","internalType":"address[]"},{"name":"amounts","type":"uint256[]","internalType":"uint256[]"},{"name":"increase","type":"bool","internalType":"bool"},{"name":"_age","type":"uint256","internalType":"uint256"}],"outputs":[],"stateMutability":"nonpayable"},{"type":"event","name":"DelegatorMapped","inputs":[{"name":"validator","type":"address","indexed":true,"internalType":"address"},{"name":"delegator","type":"address","indexed":false,"internalType":"address"},{"name":"user","type":"address","indexed":false,"internalType":"address"},{"name":"activate","type":"bool","indexed":false,"internalType":"bool"}],"anonymous":false},{"type":"event","name":"EthBurned","inputs":[{"name":"sender","type":"address","indexed":true,"internalType":"address"},{"name":"amount","type":"uint256","indexed":false,"internalType":"uint256"}],"anonymous":false},{"type":"event","name":"EthTransferred","inputs":[{"name":"to","type":"address","indexed":true,"internalType":"address"},{"name":"amount","type":"uint256","indexed":false,"internalType":"uint256"}],"anonymous":false},{"type":"event","name":"HexBaseUpdated","inputs":[{"name":"previousHexBase","type":"address","indexed":true,"internalType":"address"},{"name":"newHexBase","type":"address","indexed":true,"internalType":"address"}],"anonymous":false},{"type":"event","name":"OwnerUpdated","inputs":[{"name":"previousOwner","type":"address","indexed":true,"internalType":"address"},{"name":"newOwner","type":"address","indexed":true,"internalType":"address"}],"anonymous":false},{"type":"error","name":"AlreadyMapped","inputs":[]},{"type":"error","name":"AlreadyUpdatedForToDay","inputs":[]},{"type":"error","name":"CallFailed","inputs":[]},{"type":"error","name":"InvalidAddress","inputs":[]},{"type":"error","name":"InvalidState","inputs":[]},{"type":"error","name":"LengthMismatch","inputs":[]},{"type":"error","name":"MapLimitOver","inputs":[]},{"type":"error","name":"NotAuthorized","inputs":[]},{"type":"error","name":"NotMapped","inputs":[]},{"type":"error","name":"NotSafe","inputs":[]},{"type":"error","name":"ReentrancyGuardReentrantCall","inputs":[]},{"type":"error","name":"StaticCallFailed","inputs":[]},{"type":"error","name":"TargetCallFailed","inputs":[{"name":"selector","type":"bytes4","internalType":"bytes4"}]},{"type":"error","name":"ZeroAddress","inputs":[]}],"bytecode":{"object":"0x60803461009957601f620025d538819003918201601f19168301916001600160401b0383118484101761009e5780849260209460405283398101031261009957516001600160a01b038116908190036100995780156100875760018060a01b031933816001541617600155600054161760005560016011556040516125209081620000b58239f35b60405163e6c4247b60e01b8152600490fd5b600080fd5b634e487b7160e01b600052604160045260246000fdfe60806040526004361015610018575b361561001657005b005b60003560e01c80631133b8861461018857806312065fe0146101835780631f185d161461017e578063339459a6146101795780633b9b7955146101745780633c00e40d1461016f5780636ec35cd51461016a5780638da5cb5b146101655780638dab13dc146101605780639498d88b1461015b5780639b03bea6146101565780639fb2726b14610151578063a1f7f5391461014c578063ae9568d714610147578063af48452614610142578063b90306ad1461013d578063c54e44b014610138578063d7a83fc614610133578063e01ad5fd1461012e578063e0a9bc2b14610129578063e3d1d5bf14610124578063f5caf38c1461011f5763fdc10bc90361000e576115d5565b611597565b61133c565b611321565b611256565b611216565b611190565b61108f565b61105e565b611014565b610f9f565b610dc0565b610d78565b610cfa565b610c57565b610c30565b610aaf565b610a40565b610a19565b610321565b610236565b61021a565b6101cb565b6001600160a01b0381160361019e57565b600080fd5b604090600319011261019e576004356101bb8161018d565b906024356101c88161018d565b90565b3461019e57602060ff61020e6001600160a01b036101e8366101a3565b9116600052601284526040600020906001600160a01b0316600052602052604060002090565b54166040519015158152f35b3461019e57600036600319011261019e57602047604051908152f35b3461019e5760208060031936011261019e576102b56004356102578161018d565b6001600160a01b0380600254169060405192168483015283825261027a82611686565b6040519061028782611686565b601182527f69735369676e657228616464726573732900000000000000000000000000000085830152612400565b919080610317575b156102ed5781816102d7926102e994518301019101612281565b60405190151581529081906020820190565b0390f35b60046040517f3204506f000000000000000000000000000000000000000000000000000000008152fd5b50808251146102bd565b3461019e57600036600319011261019e576103536103476000546001600160a01b031690565b6001600160a01b031690565b604051907f97f3815a000000000000000000000000000000000000000000000000000000008252602082600481845afa918215610849576000926109f8575b50604051917fcfbffe53000000000000000000000000000000000000000000000000000000008352602083600481855afa928315610849576000936109d7575b50604051907fab6e844f000000000000000000000000000000000000000000000000000000008252602082600481865afa918215610849576000926109b6575b50604051917f14d8d024000000000000000000000000000000000000000000000000000000008352602083600481875afa92831561084957600093610995575b50604051927fd1f956b1000000000000000000000000000000000000000000000000000000008452602084600481885afa93841561084957600094610974575b50604051937fe61dfd58000000000000000000000000000000000000000000000000000000008552602085600481895afa94851561084957600095610953575b506040517fe09d394d0000000000000000000000000000000000000000000000000000000081526020816004818a5afa90811561084957600091610934575b506040517f52b06d640000000000000000000000000000000000000000000000000000000081526020816004818b5afa90811561084957600091610915575b506040517f013cf08b00000000000000000000000000000000000000000000000000000000815260006004820152916020836024818c5afa928315610849576000936108f4575b50604051977f5e09dbe70000000000000000000000000000000000000000000000000000000089526020896004818d5afa948515610849576004996000966108d3575b5060208b6040519b8c80927faa0ddc160000000000000000000000000000000000000000000000000000000082525afa9687156108495760049a6000986108b2575b5060208c6040519c8d80927f640274270000000000000000000000000000000000000000000000000000000082525afa9889156108495760049b60009a610891575b5060208d6040519d8e80927f30125cf50000000000000000000000000000000000000000000000000000000082525afa9a8b15610849578d60049d60009d61086f575b506020906040519e8f80927f24768d910000000000000000000000000000000000000000000000000000000082525afa9c8d156108495760009d61084e575b50604051809e81907f9dc969a80000000000000000000000000000000000000000000000000000000082525a92600491602094fa9d8e156108495760009e610818575b5061072c6116e5565b6001600160a01b0390911681529d8e906001600160a01b031660208201526040019061076091906001600160a01b03169052565b6001600160a01b031660608d01526001600160a01b031660808c01526001600160a01b031660a08b01526001600160a01b031660c08a01526001600160a01b031660e08901526001600160a01b03166101008801526001600160a01b03166101208701526001600160a01b03166101408601526001600160a01b03166101608501526001600160a01b03166101808401526001600160a01b03166101a08301526001600160a01b03166101c082015261001690611f80565b61083b919e5060203d602011610842575b61083381836116c3565b81019061175b565b9c38610723565b503d610829565b611c1d565b610868919d5060203d6020116108425761083381836116c3565b9b386106e0565b6020919d5061088a90823d84116108425761083381836116c3565b9c906106a1565b6108ab919a5060203d6020116108425761083381836116c3565b983861065e565b6108cc91985060203d6020116108425761083381836116c3565b963861061c565b6108ed91965060203d6020116108425761083381836116c3565b94386105da565b61090e91935060203d6020116108425761083381836116c3565b9138610597565b61092e915060203d6020116108425761083381836116c3565b38610550565b61094d915060203d6020116108425761083381836116c3565b38610511565b61096d91955060203d6020116108425761083381836116c3565b93386104d2565b61098e91945060203d6020116108425761083381836116c3565b9238610492565b6109af91935060203d6020116108425761083381836116c3565b9138610452565b6109d091925060203d6020116108425761083381836116c3565b9038610412565b6109f191935060203d6020116108425761083381836116c3565b91386103d2565b610a1291925060203d6020116108425761083381836116c3565b9038610392565b3461019e57600036600319011261019e5760206001600160a01b0360005416604051908152f35b3461019e57602036600319011261019e576001600160a01b03600435610a658161018d565b1660005260186020526020604060002054604051908152f35b9181601f8401121561019e5782359167ffffffffffffffff831161019e576020808501948460051b01011161019e57565b3461019e57606036600319011261019e5767ffffffffffffffff6004803582811161019e57610ae19036908301610a7e565b919060243584811161019e57610afa9036908401610a7e565b909460443590811161019e57610b139036908501610a7e565b959093610b1e612296565b15610c2157610b2c3361231b565b8015610c0d575b15610bfe57868303610bd6575060005b828110610b4c57005b80610bd0610b5d6001938a89611bed565b35610b6781610db6565b6001600160a01b03610b7a848b8a611bed565b35610b848161018d565b166000526012602052610bbf6040600020610ba8610ba3868a8a611bed565b611c13565b6001600160a01b0316600052602052604060002090565b9060ff801983541691151516179055565b01610b43565b6040517fff633a38000000000000000000000000000000000000000000000000000000008152fd5b60405163ea8e4eb560e01b8152fd5b50336001600160a01b036005541614610b33565b604051634ee2123760e11b8152fd5b3461019e57600036600319011261019e5760206001600160a01b0360015416604051908152f35b3461019e57602036600319011261019e57600435610c748161018d565b6001600160a01b038091166000526015602052806040600020541690601660205260406000205416908060005260126020526102e960ff610ccc846040600020906001600160a01b0316600052602052604060002090565b54166040519384938491939260409160608401956001600160a01b0380921685521660208401521515910152565b3461019e57602036600319011261019e57600435610d178161018d565b610d1f612296565b15610d6757610d2d3361231b565b8015610d53575b15610d425761001690611d05565b600460405163ea8e4eb560e01b8152fd5b50336001600160a01b036005541614610d34565b6004604051634ee2123760e11b8152fd5b3461019e57602036600319011261019e576001600160a01b03600435610d9d8161018d565b1660005260176020526020604060002054604051908152f35b8015150361019e57565b3461019e57608036600319011261019e57600467ffffffffffffffff813581811161019e57610df29036908401610a7e565b9160243590811161019e57610e0a9036908501610a7e565b6044359391610e1885610db6565b606435610e23612296565b15610f8f57610e313361231b565b8015610f7b575b15610f6b57828403610f425760005b848110610e5057005b8615610f105781610e81610e68610ba384898b611bed565b6001600160a01b03166000526018602052604060002090565b5403610eb057876040517fe3913549000000000000000000000000000000000000000000000000000000008152fd5b8082610ec5610e68610ba36001958a8c611bed565b55610ed1818686611bed565b35610f07610eff610ee6610ba3858b8d611bed565b6001600160a01b03166000526017602052604060002090565b9182546117de565b90555b01610e47565b80610f1e6001928686611bed565b35610f3b610f33610ee6610ba3858b8d611bed565b918254611663565b9055610f0a565b866040517fff633a38000000000000000000000000000000000000000000000000000000008152fd5b8660405163ea8e4eb560e01b8152fd5b50336001600160a01b036005541614610e38565b86604051634ee2123760e11b8152fd5b3461019e57600036600319011261019e57602061100c6001600160a01b0360065416604051610fcd81611686565b601381527f67657464656c656761746f72436f756e742829000000000000000000000000008482015260405191611003836116a7565b600083526124ae565b604051908152f35b3461019e5760206110556001600160a01b0361102f366101a3565b9116600052601383526040600020906001600160a01b0316600052602052604060002090565b54604051908152f35b3461019e57602036600319011261019e5760206110856004356110808161018d565b61231b565b6040519015158152f35b3461019e57602036600319011261019e576004356001600160a01b03600554163303610d4257600090600460206110d061034785546001600160a01b031690565b604051928380927f46f991ac0000000000000000000000000000000000000000000000000000000082525afa80156108495783808481949382948391611172575b505af161111c6123a5565b50156102ed577fcdcc745fe377b103b45fa0cec23ae3ef93d6fc6a84a01f0d18c40b354dd1d5d861116c61115b610347600b546001600160a01b031690565b604051938452929081906020820190565b0390a280f35b61118a915060203d81116108425761083381836116c3565b38611111565b3461019e57602036600319011261019e576004356111ad8161018d565b803b60006111ba82611706565b926111c860405194856116c3565b82845260208401903c602d8151106111ec57602a602091015160601c604051908152f35b60046040517fbaf3f0f7000000000000000000000000000000000000000000000000000000008152fd5b3461019e57602036600319011261019e5760206004356112358161018d565b6001600160a01b038091166000526014825260406000205416604051908152f35b3461019e5760208060031936011261019e576102e990600435906112798261018d565b6112dd6001600160a01b03928360065416936040519116838201528281526112a081611686565b6040516112ac81611686565b601881527f697364656c656761746f724e6f6465286164647265737329000000000000000084820152600094612400565b919080611317575b6112fe575b505060405190151581529081906020820190565b61131092508082518301019101612281565b38806112ea565b50808251146112e5565b3461019e57600036600319011261019e576020611085612296565b3461019e5761134a366101a3565b611352612296565b15610d67576113603361231b565b8015611583575b15610d42576001600160a01b03918281168015611559578383168015611559570361138e57005b60009261152f926113c26113b5846001600160a01b03166000526016602052604060002090565b546001600160a01b031690565b916113e0846001600160a01b03166000526017602052604060002090565b546113fe836001600160a01b03166000526017602052604060002090565b5561145a6114226113b5866001600160a01b03166000526015602052604060002090565b61143f846001600160a01b03166000526015602052604060002090565b906001600160a01b03166001600160a01b0319825416179055565b61147b8361143f846001600160a01b03166000526016602052604060002090565b611498846001600160a01b03166000526018602052604060002090565b546114b6836001600160a01b03166000526018602052604060002090565b558216611532575b5050826114de826001600160a01b03166000526017602052604060002090565b5561150f6114ff826001600160a01b03166000526015602052604060002090565b6001600160a01b03198154169055565b610e686114ff826001600160a01b03166000526016602052604060002090565b55005b61143f611552926001600160a01b03166000526014602052604060002090565b38806114be565b60046040517fd92e233d000000000000000000000000000000000000000000000000000000008152fd5b50336001600160a01b036005541614611367565b3461019e57606036600319011261019e576100166004356115b78161018d565b6024356115c38161018d565b604435916115d083610db6565b6117eb565b3461019e57600036600319011261019e57602061100c6001600160a01b036003541660405161160381611686565b600681527f69416765282900000000000000000000000000000000000000000000000000008482015260405191611003836116a7565b634e487b7160e01b600052601160045260246000fd5b60001981019190821161165e57565b611639565b9190820391821161165e57565b634e487b7160e01b600052604160045260246000fd5b6040810190811067ffffffffffffffff8211176116a257604052565b611670565b6020810190811067ffffffffffffffff8211176116a257604052565b90601f8019910116810190811067ffffffffffffffff8211176116a257604052565b604051906101e0820182811067ffffffffffffffff8211176116a257604052565b67ffffffffffffffff81116116a257601f01601f191660200190565b6040519061172f82611686565b601682527f67657455736572546f496e7374286164647265737329000000000000000000006020830152565b9081602091031261019e57516101c88161018d565b60405161177c816116a7565b60008152906000368137565b6040519061179582611686565b601082527f6d61784d61707065644c696d69742829000000000000000000000000000000006020830152565b9081602091031261019e575190565b906001820180921161165e57565b9190820180921161165e57565b9161180c6113b5336001600160a01b03166000526014602052604060002090565b928115611aa0576001600160a01b0380821615611559578084169485156115595761187761187361186c33611854896001600160a01b03166000526012602052604060002090565b906001600160a01b0316600052602052604060002090565b5460ff1690565b1590565b611a76576118d86103476118c96118966004546001600160a01b031690565b604080516001600160a01b038916602080830191909152815291906118bb90836116c3565b6118c3611722565b906123d5565b6020808251830101910161175b565b156115595716611a4c5761194461191d61190e6118fd6003546001600160a01b031690565b611905611770565b906118c3611788565b602080825183010191016117c1565b61193e33611854876001600160a01b03166000526013602052604060002090565b54101590565b611a22576119ee8361198e7f73e162dc4d0165c5ab2c676b5ce1e58e8333a5e1b0e75ea3957f2ca0aa8abc2e9561143f856001600160a01b03166000526015602052604060002090565b6119af3361143f856001600160a01b03166000526016602052604060002090565b6119d08361143f336001600160a01b03166000526014602052604060002090565b61185433916001600160a01b03166000526013602052604060002090565b6119f881546117d0565b9055604080513381526001600160a01b0392909216602083015291151591810191909152606090a2565b60046040517fb111d8ef000000000000000000000000000000000000000000000000000000008152fd5b60046040517f548635ce000000000000000000000000000000000000000000000000000000008152fd5b60046040517f747845de000000000000000000000000000000000000000000000000000000008152fd5b5050506001600160a01b039081811615611be957611b606114ff611ada6113b5846001600160a01b03166000526015602052604060002090565b604080513381526001600160a01b038616602082015260009181019190915290948516939084907f73e162dc4d0165c5ab2c676b5ce1e58e8333a5e1b0e75ea3957f2ca0aa8abc2e90606090a2611b476114ff826001600160a01b03166000526015602052604060002090565b6001600160a01b03166000526016602052604060002090565b611b806114ff336001600160a01b03166000526014602052604060002090565b151580611bbf575b611b8f5750565b611bb19061185433916001600160a01b03166000526013602052604060002090565b611bbb815461164f565b9055565b50611be133611854836001600160a01b03166000526013602052604060002090565b541515611b88565b5050565b9190811015611bfd5760051b0190565b634e487b7160e01b600052603260045260246000fd5b356101c88161018d565b6040513d6000823e3d90fd5b604051906060820182811067ffffffffffffffff8211176116a257604052602482527f65737329000000000000000000000000000000000000000000000000000000006040837f67657456616c696461746f7244656c656761746f724f6655736572286164647260208201520152565b9081606091031261019e578051611caf8161018d565b9160406020830151611cc08161018d565b9201516101c881610db6565b60405190611cd982611686565b601182527f696e636f6d654f662861646472657373290000000000000000000000000000006020830152565b6001600160a01b039081811615611be957611d396103476113b5836001600160a01b03166000526015602052604060002090565b611be957611d526103476000546001600160a01b031690565b604051907f6325dd0400000000000000000000000000000000000000000000000000000000908183526020908184600481845afa918215610849578694600093611f61575b506040516001600160a01b038716828201908152611de291611dd49181906020010395611dcc601f19978881018452836116c3565b6118c3611c29565b828082518301019101611c99565b9890911697951693871580611f59575b611f4f57819060046040518095819382525afa96871561084957611eee61143f96611e6d8961185495611f2c9c611f07998b99600092611f2e575b50611e5f9192611e5360405195869283019190916001600160a01b036020820193169052565b039081018452836116c3565b611e67611ccc565b906124ae565b611e8a8a6001600160a01b03166000526017602052604060002090565b55611eac8361143f8b6001600160a01b03166000526015602052604060002090565b611ecd8561143f8b6001600160a01b03166000526016602052604060002090565b610bbf85611854856001600160a01b03166000526012602052604060002090565b6001600160a01b03166000526013602052604060002090565b611f1181546117d0565b90556001600160a01b03166000526014602052604060002090565b565b611e5f9250611f4990843d86116108425761083381836116c3565b91611e2d565b5050505050505050565b508415611df2565b81611f799294503d85116108425761083381836116c3565b9138611d97565b6122656101c0611f2c92611fba611f9e82516001600160a01b031690565b6001600160a01b03166001600160a01b03196002541617600255565b611fed611fd160208301516001600160a01b031690565b6001600160a01b03166001600160a01b03196003541617600355565b61202061200460408301516001600160a01b031690565b6001600160a01b03166001600160a01b03196004541617600455565b61205361203760608301516001600160a01b031690565b6001600160a01b03166001600160a01b03196005541617600555565b61208661206a60808301516001600160a01b031690565b6001600160a01b03166001600160a01b03196006541617600655565b6120b961209d60a08301516001600160a01b031690565b6001600160a01b03166001600160a01b03196007541617600755565b6120ec6120d060c08301516001600160a01b031690565b6001600160a01b03166001600160a01b03196008541617600855565b61211f61210360e08301516001600160a01b031690565b6001600160a01b03166001600160a01b03196009541617600955565b6121536121376101008301516001600160a01b031690565b6001600160a01b03166001600160a01b0319600a541617600a55565b61218761216b6101208301516001600160a01b031690565b6001600160a01b03166001600160a01b0319600b541617600b55565b6121bb61219f6101408301516001600160a01b031690565b6001600160a01b03166001600160a01b0319600c541617600c55565b6121ef6121d36101608301516001600160a01b031690565b6001600160a01b03166001600160a01b0319600d541617600d55565b6122236122076101808301516001600160a01b031690565b6001600160a01b03166001600160a01b0319600e541617600e55565b61225761223b6101a08301516001600160a01b031690565b6001600160a01b03166001600160a01b0319600f541617600f55565b01516001600160a01b031690565b6001600160a01b03166001600160a01b03196010541617601055565b9081602091031261019e57516101c881610db6565b6122f16001600160a01b03600254166040516122b181611686565b600881527f69735361666528290000000000000000000000000000000000000000000000006020820152604051916122e8836116a7565b60008352612400565b9080612310575b156102ed57806020806101c893518301019101612281565b5060208151146122f8565b61237e6001600160a01b03806002541660405191602094168483015283825261234382611686565b6040519061235082611686565b601582527f697353656375726542617365286164647265737329000000000000000000000085830152612400565b908061239b575b156102ed57816101c89282518301019101612281565b5081815114612385565b3d156123d0573d906123b682611706565b916123c460405193846116c3565b82523d6000602084013e565b606090565b906123e09291612400565b90600090156123ed575090565b60405191506123fb826116a7565b815290565b9190823b15612495577fffffffff00000000000000000000000000000000000000000000000000000000815160208093012016916040519180830193845281519160005b838110612481575050509181612471602482600097959688970187838201520360048101845201826116c3565b51915afa61247d6123a5565b9091565b818101830151858201602401528201612444565b5050506000906040516124a7816116a7565b6000815290565b92916124bc91600094612400565b90806124df575b6124ca5750565b6101c8919250602080825183010191016117c1565b5060208151146124c356fea26469706673582212203eaeb32616f4c1fbd3c613e09fdf2e91d2d6eb858cfc3a3803ff269281b0072a64736f6c63430008140033","linkReferences":{}},"methodIdentifiers":{"Burn(uint256)":"b90306ad","_delegatorCount()":"a1f7f539","_getImplementation(address)":"c54e44b0","_isDelegatorNode(address)":"e01ad5fd","_isSafe()":"e0a9bc2b","_isSecureBase(address)":"af484526","_isSigner(address)":"1f185d16","getBalance()":"12065fe0","getHexbase()":"3b9b7955","getUserFromDelegator(address)":"d7a83fc6","getValidatorDelegator(address,address)":"1133b886","getValidatorDelegatorCount(address,address)":"ae9568d7","getValidatorDelegatorOfUser(address)":"8dab13dc","importData(address)":"9498d88b","incomeOf(address)":"9b03bea6","lastUpdatedEpochOf(address)":"3c00e40d","mapValidatorDelegator(address,address,bool)":"f5caf38c","owner()":"8da5cb5b","syncBaseAddr()":"339459a6","systemAge()":"fdc10bc9","transferUser(address,address)":"e3d1d5bf","updateDelegators(address[],address[],bool[])":"6ec35cd5","updateIncome(address[],uint256[],bool,uint256)":"9fb2726b"},"id":54}