{"abi":[{"type":"constructor","inputs":[{"name":"_contractName","type":"string","internalType":"string"},{"name":"_uri","type":"string","internalType":"string"},{"name":"_names","type":"string[]","internalType":"string[]"},{"name":"_ids","type":"uint256[]","internalType":"uint256[]"}],"stateMutability":"nonpayable"},{"type":"function","name":"_factory","inputs":[],"outputs":[{"name":"","type":"address","internalType":"address"}],"stateMutability":"view"},{"type":"function","name":"balanceOf","inputs":[{"name":"account","type":"address","internalType":"address"},{"name":"id","type":"uint256","internalType":"uint256"}],"outputs":[{"name":"","type":"uint256","internalType":"uint256"}],"stateMutability":"view"},{"type":"function","name":"balanceOfBatch","inputs":[{"name":"accounts","type":"address[]","internalType":"address[]"},{"name":"ids","type":"uint256[]","internalType":"uint256[]"}],"outputs":[{"name":"","type":"uint256[]","internalType":"uint256[]"}],"stateMutability":"view"},{"type":"function","name":"baseMetadataURI","inputs":[],"outputs":[{"name":"","type":"string","internalType":"string"}],"stateMutability":"view"},{"type":"function","name":"getFactory","inputs":[],"outputs":[{"name":"","type":"address","internalType":"address"}],"stateMutability":"view"},{"type":"function","name":"getNames","inputs":[],"outputs":[{"name":"","type":"string[]","internalType":"string[]"}],"stateMutability":"view"},{"type":"function","name":"idToName","inputs":[{"name":"","type":"uint256","internalType":"uint256"}],"outputs":[{"name":"","type":"string","internalType":"string"}],"stateMutability":"view"},{"type":"function","name":"ids","inputs":[{"name":"","type":"uint256","internalType":"uint256"}],"outputs":[{"name":"","type":"uint256","internalType":"uint256"}],"stateMutability":"view"},{"type":"function","name":"isApprovedForAll","inputs":[{"name":"account","type":"address","internalType":"address"},{"name":"operator","type":"address","internalType":"address"}],"outputs":[{"name":"","type":"bool","internalType":"bool"}],"stateMutability":"view"},{"type":"function","name":"mint","inputs":[{"name":"account","type":"address","internalType":"address"},{"name":"_id","type":"uint256","internalType":"uint256"},{"name":"amount","type":"uint256","internalType":"uint256"}],"outputs":[{"name":"","type":"uint256","internalType":"uint256"}],"stateMutability":"payable"},{"type":"function","name":"mintBatch","inputs":[{"name":"to","type":"address","internalType":"address"},{"name":"_ids","type":"uint256[]","internalType":"uint256[]"},{"name":"amounts","type":"uint256[]","internalType":"uint256[]"},{"name":"data","type":"bytes","internalType":"bytes"}],"outputs":[],"stateMutability":"nonpayable"},{"type":"function","name":"mintFee","inputs":[],"outputs":[{"name":"","type":"uint256","internalType":"uint256"}],"stateMutability":"view"},{"type":"function","name":"name","inputs":[],"outputs":[{"name":"","type":"string","internalType":"string"}],"stateMutability":"view"},{"type":"function","name":"nameToId","inputs":[{"name":"","type":"string","internalType":"string"}],"outputs":[{"name":"","type":"uint256","internalType":"uint256"}],"stateMutability":"view"},{"type":"function","name":"names","inputs":[{"name":"","type":"uint256","internalType":"uint256"}],"outputs":[{"name":"","type":"string","internalType":"string"}],"stateMutability":"view"},{"type":"function","name":"owner","inputs":[],"outputs":[{"name":"","type":"address","internalType":"address"}],"stateMutability":"view"},{"type":"function","name":"renounceOwnership","inputs":[],"outputs":[],"stateMutability":"nonpayable"},{"type":"function","name":"safeBatchTransferFrom","inputs":[{"name":"from","type":"address","internalType":"address"},{"name":"to","type":"address","internalType":"address"},{"name":"_ids","type":"uint256[]","internalType":"uint256[]"},{"name":"amounts","type":"uint256[]","internalType":"uint256[]"},{"name":"data","type":"bytes","internalType":"bytes"}],"outputs":[],"stateMutability":"nonpayable"},{"type":"function","name":"safeTransferFrom","inputs":[{"name":"from","type":"address","internalType":"address"},{"name":"to","type":"address","internalType":"address"},{"name":"id","type":"uint256","internalType":"uint256"},{"name":"amount","type":"uint256","internalType":"uint256"},{"name":"data","type":"bytes","internalType":"bytes"}],"outputs":[],"stateMutability":"nonpayable"},{"type":"function","name":"setApprovalForAll","inputs":[{"name":"operator","type":"address","internalType":"address"},{"name":"approved","type":"bool","internalType":"bool"}],"outputs":[],"stateMutability":"nonpayable"},{"type":"function","name":"setFee","inputs":[{"name":"_fee","type":"uint256","internalType":"uint256"}],"outputs":[],"stateMutability":"nonpayable"},{"type":"function","name":"setURI","inputs":[{"name":"newuri","type":"string","internalType":"string"}],"outputs":[],"stateMutability":"nonpayable"},{"type":"function","name":"supportsInterface","inputs":[{"name":"interfaceId","type":"bytes4","internalType":"bytes4"}],"outputs":[{"name":"","type":"bool","internalType":"bool"}],"stateMutability":"view"},{"type":"function","name":"transferOwnership","inputs":[{"name":"newOwner","type":"address","internalType":"address"}],"outputs":[],"stateMutability":"nonpayable"},{"type":"function","name":"uri","inputs":[{"name":"_tokenid","type":"uint256","internalType":"uint256"}],"outputs":[{"name":"","type":"string","internalType":"string"}],"stateMutability":"view"},{"type":"event","name":"ApprovalForAll","inputs":[{"name":"account","type":"address","indexed":true,"internalType":"address"},{"name":"operator","type":"address","indexed":true,"internalType":"address"},{"name":"approved","type":"bool","indexed":false,"internalType":"bool"}],"anonymous":false},{"type":"event","name":"OwnershipTransferred","inputs":[{"name":"previousOwner","type":"address","indexed":true,"internalType":"address"},{"name":"newOwner","type":"address","indexed":true,"internalType":"address"}],"anonymous":false},{"type":"event","name":"TransferBatch","inputs":[{"name":"operator","type":"address","indexed":true,"internalType":"address"},{"name":"from","type":"address","indexed":true,"internalType":"address"},{"name":"to","type":"address","indexed":true,"internalType":"address"},{"name":"ids","type":"uint256[]","indexed":false,"internalType":"uint256[]"},{"name":"values","type":"uint256[]","indexed":false,"internalType":"uint256[]"}],"anonymous":false},{"type":"event","name":"TransferSingle","inputs":[{"name":"operator","type":"address","indexed":true,"internalType":"address"},{"name":"from","type":"address","indexed":true,"internalType":"address"},{"name":"to","type":"address","indexed":true,"internalType":"address"},{"name":"id","type":"uint256","indexed":false,"internalType":"uint256"},{"name":"value","type":"uint256","indexed":false,"internalType":"uint256"}],"anonymous":false},{"type":"event","name":"URI","inputs":[{"name":"value","type":"string","indexed":false,"internalType":"string"},{"name":"id","type":"uint256","indexed":true,"internalType":"uint256"}],"anonymous":false},{"type":"error","name":"ERC1155InsufficientBalance","inputs":[{"name":"sender","type":"address","internalType":"address"},{"name":"balance","type":"uint256","internalType":"uint256"},{"name":"needed","type":"uint256","internalType":"uint256"},{"name":"tokenId","type":"uint256","internalType":"uint256"}]},{"type":"error","name":"ERC1155InvalidApprover","inputs":[{"name":"approver","type":"address","internalType":"address"}]},{"type":"error","name":"ERC1155InvalidArrayLength","inputs":[{"name":"idsLength","type":"uint256","internalType":"uint256"},{"name":"valuesLength","type":"uint256","internalType":"uint256"}]},{"type":"error","name":"ERC1155InvalidOperator","inputs":[{"name":"operator","type":"address","internalType":"address"}]},{"type":"error","name":"ERC1155InvalidReceiver","inputs":[{"name":"receiver","type":"address","internalType":"address"}]},{"type":"error","name":"ERC1155InvalidSender","inputs":[{"name":"sender","type":"address","internalType":"address"}]},{"type":"error","name":"ERC1155MissingApprovalForAll","inputs":[{"name":"operator","type":"address","internalType":"address"},{"name":"owner","type":"address","internalType":"address"}]},{"type":"error","name":"OwnableInvalidOwner","inputs":[{"name":"owner","type":"address","internalType":"address"}]},{"type":"error","name":"OwnableUnauthorizedAccount","inputs":[{"name":"account","type":"address","internalType":"address"}]}],"bytecode":{"object":"0x608060405234620007f0576200296b803803806200001d8162000826565b928339810190608081830312620007f05780516001600160401b038111620007f057826200004d9183016200084c565b60208201519092906001600160401b038111620007f05781620000729184016200084c565b60408301519092906001600160401b038111620007f05781019082601f83011215620007f057815190620000b0620000aa83620008be565b62000826565b8281529260208085019360051b8201019083868311620007f05760208201905b838210620007f557505050506060810151906001600160401b038211620007f057019183601f84011215620007f05782519362000111620000aa86620008be565b9360208587815201906020829760051b820101928311620007f057602001905b828210620007df57505050620001478562000aad565b3315620007c65760038054336001600160a01b0319821681179092556001600160a01b03167f8be0079c531659141344cd1fd0a4f28419497f9722a3daafe3b4186f6b6457e0600080a360006008555190680100000000000000008211620004ff576004548260045580831062000729575b50600460009081527f8a35acfbc15ff81a39ae7d344fd709f28e8600b4aa8c65c6b64bfe7fe36bd19b92915b828210620006325750509151929150506001600160401b038211620004ff57680100000000000000008211620004ff5760055482600555808310620005f4575b506005600052602060002060005b838110620005df57600086865b6005548310156200033b5762000256836200096c565b90549060031b1c9262000269816200099e565b5093604051946000908054906200028082620008d6565b9160018116908115620003225750600114620002e9575b50509460208187600a6001979899520301902055620002e0620002ba826200099e565b50620002c6836200096c565b90549060031b1c600052600b6020526040600020620009ba565b01919062000240565b90915060005260206000206000905b8282106200030d575050850160208662000297565b60018160209254848b015201910190620002f8565b60ff191689525050801515028601905060208662000297565b90620003478262000aad565b81516001600160401b038111620004ff5762000365600654620008d6565b601f81116200058c575b50602092601f82116001146200052157620003a59293829160009262000515575b50508160011b916000199060031b1c19161790565b6006555b80516001600160401b038111620004ff57620003c7600754620008d6565b601f8111620004a0575b50602091601f821160011462000436576200040492600091836200042a5750508160011b916000199060031b1c19161790565b6007555b600980546001600160a01b03191633179055604051611d9a908162000bd18239f35b01519050838062000390565b601f19821692600760005260206000209160005b85811062000487575083600195106200046d575b505050811b0160075562000408565b015160001960f88460031b161c191690558280806200045e565b919260206001819286850151815501940192016200044a565b6007600052620004ed907fa66cc928b5edb82af9bd49922954155ab7b0942694bea4ce44661d9a8736c688601f840160051c81019160208510620004f4575b601f0160051c019062000913565b82620003d1565b9091508190620004df565b634e487b7160e01b600052604160045260246000fd5b01519050848062000390565b601f19821693600660005260206000209160005b86811062000573575083600195961062000559575b505050811b01600655620003a9565b015160001960f88460031b161c191690558380806200054a565b9192602060018192868501518155019401920162000535565b6006600052620005d8907ff652222313e28459528d920b65115c16c04f3efc82aaedc97be59f3f377c0d3f601f840160051c81019160208510620004f457601f0160051c019062000913565b836200036f565b60019060208451940193818401550162000233565b60056000526200062b907f036b6384b5eca791c62761152d0c79bb0604c104a5fb6f4eb0703f3154bb3db090810190840162000913565b3862000225565b80518051906001600160401b038211620004ff576200065e82620006578854620008d6565b886200092c565b602090601f8311600114620006b557926200069983600195946020948796600092620006a95750508160011b916000199060031b1c19161790565b87555b01940191019092620001e5565b01519050388062000390565b908660005260206000209160005b601f19851681106200071057509260209260019592869583601f19811610620006f6575b505050831b830187556200069c565b015160001960f88460031b161c19169055388080620006e7565b91926020600181928685015181550194019201620006c3565b60046000527f8a35acfbc15ff81a39ae7d344fd709f28e8600b4aa8c65c6b64bfe7fe36bd19b908382015b818301811062000766575050620001b9565b806200077560019254620008d6565b8062000784575b500162000754565b601f811183146200079c5750600081555b386200077c565b600090828252620007bc601f60208420920160051c820185830162000913565b8183555562000795565b604051631e4fbdf760e01b815260006004820152602490fd5b815181526020918201910162000131565b600080fd5b81516001600160401b038111620007f0576020916200081a8a8480948801016200084c565b815201910190620000d0565b6040519190601f01601f191682016001600160401b03811183821017620004ff57604052565b919080601f84011215620007f05782516001600160401b038111620004ff5760209062000882601f8201601f1916830162000826565b92818452828287010111620007f05760005b818110620008aa57508260009394955001015290565b858101830151848201840152820162000894565b6001600160401b038111620004ff5760051b60200190565b90600182811c9216801562000908575b6020831014620008f257565b634e487b7160e01b600052602260045260246000fd5b91607f1691620008e6565b8181106200091f575050565b6000815560010162000913565b9190601f81116200093c57505050565b6200096a926000526020600020906020601f840160051c83019310620004f457601f0160051c019062000913565b565b6005548110156200098857600560005260206000200190600090565b634e487b7160e01b600052603260045260246000fd5b6004548110156200098857600460005260206000200190600090565b9080821462000aa957620009cf8154620008d6565b906001600160401b038211620004ff57620009f782620009f08554620008d6565b856200092c565b600090601f831160011462000a3a5762000a2a92916000918362000a2e5750508160011b916000199060031b1c19161790565b9055565b01549050388062000390565b815260208082208483528183209291601f1985169083905b82821062000a8f57505090846001959493921062000a75575b505050811b019055565b015460001960f88460031b161c1916905538808062000a6b565b849581929585015481556001809101960194019062000a52565b5050565b80519091906001600160401b038111620004ff5762000ace600254620008d6565b601f811162000b7d575b50602080601f831160011462000b135750819062000b0e9394600092620006a95750508160011b916000199060031b1c19161790565b600255565b90601f1983169460026000526020600020926000905b87821062000b6457505083600195961062000b4a575b505050811b01600255565b015160001960f88460031b161c1916905538808062000b3f565b8060018596829496860151815501950193019062000b29565b600260005262000bc9907f405787fa12a823e0f2b7631cc41b3ba8828b3321ca811111fa75cd3aa3bb5ace601f840160051c81019160208510620004f457601f0160051c019062000913565b3862000ad856fe6080604052600436101561001257600080fd5b60003560e01c8062fdd58e146101a157806301ffc9a71461019c57806302fe53051461019757806306fdde03146101925780630e89341c1461018d57806313966db514610188578063156e29f6146101835780631f7fdffa1461017e5780632eb2c2d614610179578063364410b3146101745780634622ab031461016f5780634e1273f41461016a5780635b2bd79e1461016557806369fe0e2d14610160578063715018a61461015b57806388cc58e41461014c5780638da5cb5b14610156578063a22cb46514610151578063c5cc6b6a1461014c578063cd838f0f14610147578063e985e9c514610142578063f242432a1461013d578063f2fde38b14610138578063f6d8f2cb146101335763fac333ac1461012e57600080fd5b611345565b61130b565b611266565b6110f9565b61109c565b610fb5565b610ea6565b610ef8565b610ecf565b610e48565b610e27565b610d7f565b610cc4565b610c2e565b610bee565b610a51565b6109c2565b61087c565b61085e565b6106cb565b6105e2565b61039b565b61024a565b6101eb565b600435906001600160a01b03821682036101bc57565b600080fd5b602435906001600160a01b03821682036101bc57565b35906001600160a01b03821682036101bc57565b346101bc5760403660031901126101bc57602061022f6102096101a6565b6024356000526000835260406000209060018060a01b0316600052602052604060002090565b54604051908152f35b6001600160e01b03198116036101bc57565b346101bc5760203660031901126101bc57602060043561026981610238565b63ffffffff60e01b16636cdb3d1360e11b81149081156102a7575b8115610296575b506040519015158152f35b6301ffc9a760e01b1490503861028b565b6303a24d0760e21b81149150610284565b634e487b7160e01b600052604160045260246000fd5b67ffffffffffffffff81116102e257604052565b6102b8565b90601f8019910116810190811067ffffffffffffffff8211176102e257604052565b67ffffffffffffffff81116102e257601f01601f191660200190565b92919261033182610309565b9161033f60405193846102e7565b8294818452818301116101bc578281602093846000960137010152565b60206003198201126101bc576004359067ffffffffffffffff82116101bc57806023830112156101bc5781602461039893600401359101610325565b90565b346101bc576103a93661035c565b6103b1611557565b805167ffffffffffffffff81116102e2576103d6816103d16002546104aa565b6115b0565b602080601f8311600114610418575081906104089360009261040d575b50508160011b916000199060031b1c19161790565b600255005b0151905038806103f3565b90601f1983169361044b60026000527f405787fa12a823e0f2b7631cc41b3ba8828b3321ca811111fa75cd3aa3bb5ace90565b926000905b868210610487575050836001951061046e575b505050811b01600255005b015160001960f88460031b161c19169055388080610463565b80600185968294968601518155019501930190610450565b60009103126101bc57565b90600182811c921680156104da575b60208310146104c457565b634e487b7160e01b600052602260045260246000fd5b91607f16916104b9565b906040519182600082546104f7816104aa565b908184526020946001916001811690816000146105675750600114610528575b505050610526925003836102e7565b565b600090815285812095935091905b81831061054f5750506105269350820101388080610517565b85548884018501529485019487945091830191610536565b9250505061052694925060ff191682840152151560051b820101388080610517565b60005b83811061059c5750506000910152565b818101518382015260200161058c565b906020916105c581518092818552858086019101610589565b601f01601f1916010190565b9060206103989281815201906105ac565b346101bc576000806003193601126106c857604051908060075490610606826104aa565b8085529160209160019182811690811561069b5750600114610643575b61063f86610633818803826102e7565b604051918291826105d1565b0390f35b9350600784527fa66cc928b5edb82af9bd49922954155ab7b0942694bea4ce44661d9a8736c6885b838510610688575050505081016020016106338261063f38610623565b805486860184015293820193810161066b565b905086955061063f9693506020925061063394915060ff191682840152151560051b820101929338610623565b80fd5b346101bc5760203660031901126101bc576000600435807a184f03e93ff9f4daa797ed6e38ed64bf6a1f01000000000000000080821015610850575b506d04ee2d6d415b85acef810000000080831015610841575b50662386f26fc1000080831015610832575b506305f5e10080831015610823575b5061271080831015610814575b506064821015610804575b600a809210156107fa575b60019081602161077660018701611622565b95860101905b6107c4575b60405161063f90610633816107b66107a58a61079f60208501611396565b906112f4565b64173539b7b760d91b815260050190565b03601f1981018352826102e7565b600019019083906f181899199a1a9b1b9c1cb0b131b232b360811b8282061a8353049182156107f55791908261077c565b610781565b9160010191610764565b9190606460029104910191610759565b6004919392049101913861074e565b60089193920491019138610741565b60109193920491019138610732565b60209193920491019138610720565b604093508104915038610707565b346101bc5760003660031901126101bc576020600854604051908152f35b60603660031901126101bc576108906101a6565b60243561089b611557565b60085434036101bc57604051916020830183811067ffffffffffffffff8211176102e257604052600083526001600160a01b038116156109165760209261090e91610908604435859160405192600184526020840152604083019160018352606084015260808301604052565b91611680565b604051908152f35b604051632bfa23e760e11b815260006004820152602490fd5b67ffffffffffffffff81116102e25760051b60200190565b9080601f830112156101bc5760209082356109618161092f565b9361096f60405195866102e7565b81855260208086019260051b8201019283116101bc57602001905b828210610998575050505090565b8135815290830190830161098a565b9080601f830112156101bc5781602061039893359101610325565b346101bc5760803660031901126101bc576109db6101a6565b67ffffffffffffffff6024358181116101bc576109fc903690600401610947565b906044358181116101bc57610a15903690600401610947565b906064359081116101bc57610a2e9036906004016109a7565b91610a37611557565b6001600160a01b0384161561091657610a4f93611680565b005b346101bc5760a03660031901126101bc57610a6a6101a6565b610a726101c1565b6044359067ffffffffffffffff8083116101bc57610a9560049336908501610947565b936064358281116101bc57610aad9036908601610947565b916084359081116101bc57610ac590369086016109a7565b6001600160a01b03828116903382141580610bca575b610b9d57851615610b855715610b6e57610af890838786856117fb565b600954610b1b90610b0f906001600160a01b031681565b6001600160a01b031690565b91823b156101bc57600094610b46869260405198899788968795632aace7bb60e01b87528601611425565b03925af18015610b6957610b5657005b80610b63610a4f926102ce565b8061049f565b611462565b604051626a0d4560e21b8152600081870152602490fd5b604051632bfa23e760e11b8152600081880152602490fd5b6040805163711bec9160e11b815233818a019081526001600160a01b038716602082015290918291010390fd5b50600082815260016020908152604080832033845290915290205460ff1615610adb565b346101bc5760203660031901126101bc57600435600052600b60205261063f610c1a60406000206104e4565b6040519182916020835260208301906105ac565b346101bc5760203660031901126101bc576004356004548110156101bc57610c1a61063f9160046000527f8a35acfbc15ff81a39ae7d344fd709f28e8600b4aa8c65c6b64bfe7fe36bd19b016104e4565b90815180825260208080930193019160005b828110610c9f575050505090565b835185529381019392810192600101610c91565b906020610398928181520190610c7f565b346101bc5760403660031901126101bc5760043567ffffffffffffffff8082116101bc57366023830112156101bc578160040135610d018161092f565b92610d0f60405194856102e7565b8184526020916024602086019160051b830101913683116101bc57602401905b828210610d6857856024358681116101bc5761063f91610d56610d5c923690600401610947565b90611498565b60405191829182610cb3565b838091610d74846101d7565b815201910190610d2f565b346101bc576000806003193601126106c857604051908060065490610da3826104aa565b8085529160209160019182811690811561069b5750600114610dcf5761063f86610633818803826102e7565b9350600684527ff652222313e28459528d920b65115c16c04f3efc82aaedc97be59f3f377c0d3f5b838510610e14575050505081016020016106338261063f38610623565b8054868601840152938201938101610df7565b346101bc5760203660031901126101bc57610e40611557565b600435600855005b346101bc576000806003193601126106c857610e62611654565b600380546001600160a01b0319811690915581906001600160a01b03167f8be0079c531659141344cd1fd0a4f28419497f9722a3daafe3b4186f6b6457e08280a380f35b346101bc5760003660031901126101bc576009546040516001600160a01b039091168152602090f35b346101bc5760003660031901126101bc576003546040516001600160a01b039091168152602090f35b346101bc5760403660031901126101bc57610f116101a6565b6024358015158082036101bc576001600160a01b038316928315610f9d573360009081526001602090815260408083206001600160a01b039094168352929052209060ff801983541691161790557f17307eab39ab6107e8899845ad3d59bd9653f200f220920489ca2b5937696c3160405180610f98339482919091602081019215159052565b0390a3005b60405162ced3e160e81b815260006004820152602490fd5b346101bc576000806003193601126106c857600454610fd38161092f565b90610fe160405192836102e7565b8082526004835260209283830191817f8a35acfbc15ff81a39ae7d344fd709f28e8600b4aa8c65c6b64bfe7fe36bd19b845b8383106110785750505050604051928484019085855251809152604084019460408260051b8601019392955b82871061104c5785850386f35b909192938280611068600193603f198a820301865288516105ac565b960192019601959291909261103f565b600188819261108a859b9a989b6104e4565b81520192019201919096939596611013565b346101bc5760403660031901126101bc57602060ff6110ed6110bc6101a6565b6110c46101c1565b6001600160a01b0391821660009081526001865260408082209290931681526020919091522090565b54166040519015158152f35b346101bc5760a03660031901126101bc576111126101a6565b61111a6101c1565b906044356064359260843567ffffffffffffffff81116101bc576111429036906004016109a7565b6001600160a01b03848116903382141580611242575b61121b5783161561091657156112035761119e9061119686859160405192600184526020840152604083019160018352606084015260808301604052565b9084876117fb565b6009546111b590610b0f906001600160a01b031681565b90813b156101bc5760405163a29e74c760e01b81526001600160a01b039485166004820152931660248401526044830191909152606482019290925290600090829081838160848101610b46565b604051626a0d4560e21b815260006004820152602490fd5b60405163711bec9160e11b81523360048201526001600160a01b0387166024820152604490fd5b50600082815260016020908152604080832033845290915290205460ff1615611158565b346101bc5760203660031901126101bc5761127f6101a6565b611287611654565b6001600160a01b039081169081156112db57600354826bffffffffffffffffffffffff60a01b821617600355167f8be0079c531659141344cd1fd0a4f28419497f9722a3daafe3b4186f6b6457e0600080a3005b604051631e4fbdf760e01b815260006004820152602490fd5b9061130760209282815194859201610589565b0190565b346101bc5760206113328161131f3661035c565b8160405193828580945193849201610589565b8101600a81520301902054604051908152f35b346101bc5760203660031901126101bc576004356005548110156101bc5760209060056000527f036b6384b5eca791c62761152d0c79bb0604c104a5fb6f4eb0703f3154bb3db00154604051908152f35b600654600092916113a6826104aa565b9160019081811690811561141257506001146113c157505050565b909192935060066000527ff652222313e28459528d920b65115c16c04f3efc82aaedc97be59f3f377c0d3f906000915b8483106113ff575050500190565b81816020925485870152019201916113f1565b60ff191683525050811515909102019150565b6001600160a01b0391821681529116602082015260806040820181905261039893919261145491840190610c7f565b916060818403910152610c7f565b6040513d6000823e3d90fd5b80518210156114825760209160051b010190565b634e487b7160e01b600052603260045260246000fd5b919091805183518082036115355750508051906114cd6114b78361092f565b926114c560405194856102e7565b80845261092f565b60209190601f1901368484013760005b815181101561152d57600581901b8281018401519087018401516000908152602081815260408083206001600160a01b039094168352929052205460019190611526828761146e565b52016114dd565b509193505050565b604051635b05999160e01b815260048101919091526024810191909152604490fd5b6009546001600160a01b0316330361156b57565b60405162461bcd60e51b815260206004820152601a60248201527f4f6e6c7920666163746f72792063616e2063616c6c20746869730000000000006044820152606490fd5b601f81116115bc575050565b60009060026000527f405787fa12a823e0f2b7631cc41b3ba8828b3321ca811111fa75cd3aa3bb5ace906020601f850160051c83019410611618575b601f0160051c01915b82811061160d57505050565b818155600101611601565b90925082906115f8565b9061162c82610309565b61163960405191826102e7565b828152809261164a601f1991610309565b0190602036910137565b6003546001600160a01b0316330361166857565b60405163118cdaa760e01b8152336004820152602490fd5b90805183519081810361153557505060005b815181101561171057600581901b82810160209081015191860101516001929185906001600160a01b0382166116cc575b50505001611692565b611706916116e76116fe926000526000602052604060002090565b9060018060a01b0316600052602052604060002090565b9182546119f4565b90553884816116c3565b508051919392916001036117b2576020818101518382015160408051928352928201526001600160a01b0386169160009133917fc3d58168c5ae7397731d063d5bbf3d657854427343f4c083240f7aacaa2d0f6291a45b6001600160a01b03841661177c575b50505050565b80516001036117a3579060208061179a959301519101519133611cf8565b38808080611776565b6117ad9333611afe565b61179a565b6040516001600160a01b0385169060009033907f4a39dc06d4c0dbc64b70af90fd698a233a518aa5d07e595d983b8c0526c8f7fb90806117f3888883611a17565b0390a4611767565b94919091815184519081810361153557505060005b82518110156118fe57600581901b83810160209081015191870101516001600160a01b03929186908a8516611878575b6001948216611853575b50505001611810565b61186e916116e76116fe926000526000602052604060002090565b905538858161184a565b91929390506118958a6116e7846000526000602052604060002090565b548381106118c757918791846001969594036118bf8d6116e7856000526000602052604060002090565b559450611840565b6040516303dee4c560e01b81526001600160a01b038c16600482015260248101919091526044810184905260648101839052608490fd5b5094919392909360018551146000146119a9576020858101518382015160408051928352928201526001600160a01b03838116929086169133917fc3d58168c5ae7397731d063d5bbf3d657854427343f4c083240f7aacaa2d0f6291a45b6001600160a01b038116611972575b5050505050565b84516001036119985760208061198e9601519201519233611d2d565b388080808061196b565b6119a494919233611bf9565b61198e565b6040516001600160a01b03828116919085169033907f4a39dc06d4c0dbc64b70af90fd698a233a518aa5d07e595d983b8c0526c8f7fb90806119ec888c83611a17565b0390a461195c565b91908201809211611a0157565b634e487b7160e01b600052601160045260246000fd5b9091611a2e61039893604084526040840190610c7f565b916020818403910152610c7f565b908160209103126101bc575161039881610238565b92611a806103989593611a8e9360018060a01b031686526000602087015260a0604087015260a0860190610c7f565b908482036060860152610c7f565b9160808184039101526105ac565b93906103989593611a8091611a8e9460018060a01b03809216885216602087015260a0604087015260a0860190610c7f565b3d15611af9573d90611adf82610309565b91611aed60405193846102e7565b82523d6000602084013e565b606090565b9293919093843b611b10575050505050565b602091611b33604051948593849363bc197c8160e01b9889865260048601611a51565b038160006001600160a01b0388165af160009181611bc8575b50611b8b5782611b5a611ace565b8051919082611b8457604051632bfa23e760e11b81526001600160a01b0383166004820152602490fd5b6020915001fd5b6001600160e01b03191603611ba55750388080808061196b565b604051632bfa23e760e11b81526001600160a01b03919091166004820152602490fd5b611beb91925060203d602011611bf2575b611be381836102e7565b810190611a3c565b9038611b4c565b503d611bd9565b939290949194853b611c0e575b505050505050565b611c31602093604051958694859463bc197c8160e01b998a875260048701611a9c565b038160006001600160a01b0388165af160009181611c73575b50611c585782611b5a611ace565b6001600160e01b03191603611ba55750388080808080611c06565b611c8d91925060203d602011611bf257611be381836102e7565b9038611c4a565b909260a0926103989594600180861b03168352600060208401526040830152606082015281608082015201906105ac565b919261039895949160a094600180871b0380921685521660208401526040830152606082015281608082015201906105ac565b9293919093843b611d0a575050505050565b602091611b33604051948593849363f23a6e6160e01b9889865260048601611c94565b939290949194853b611d4157505050505050565b611c31602093604051958694859463f23a6e6160e01b998a875260048701611cc556fea2646970667358221220ab259c38c00ec7d861b958012ebac3b541867a2a7a9ad27dd1eb2beea95e5a1f64736f6c63430008180033","linkReferences":{}},"methodIdentifiers":{"_factory()":"c5cc6b6a","balanceOf(address,uint256)":"00fdd58e","balanceOfBatch(address[],uint256[])":"4e1273f4","baseMetadataURI()":"5b2bd79e","getFactory()":"88cc58e4","getNames()":"cd838f0f","idToName(uint256)":"364410b3","ids(uint256)":"fac333ac","isApprovedForAll(address,address)":"e985e9c5","mint(address,uint256,uint256)":"156e29f6","mintBatch(address,uint256[],uint256[],bytes)":"1f7fdffa","mintFee()":"13966db5","name()":"06fdde03","nameToId(string)":"f6d8f2cb","names(uint256)":"4622ab03","owner()":"8da5cb5b","renounceOwnership()":"715018a6","safeBatchTransferFrom(address,address,uint256[],uint256[],bytes)":"2eb2c2d6","safeTransferFrom(address,address,uint256,uint256,bytes)":"f242432a","setApprovalForAll(address,bool)":"a22cb465","setFee(uint256)":"69fe0e2d","setURI(string)":"02fe5305","supportsInterface(bytes4)":"01ffc9a7","transferOwnership(address)":"f2fde38b","uri(uint256)":"0e89341c"},"id":0}