{"abi":[{"type":"constructor","inputs":[{"name":"_backend","type":"address","internalType":"address"},{"name":"_hex","type":"address","internalType":"address"}],"stateMutability":"nonpayable"},{"type":"fallback","stateMutability":"payable"},{"type":"receive","stateMutability":"payable"},{"type":"function","name":"Burn","inputs":[{"name":"amount","type":"uint256","internalType":"uint256"}],"outputs":[],"stateMutability":"nonpayable"},{"type":"function","name":"_delegatorCount","inputs":[],"outputs":[{"name":"","type":"uint256","internalType":"uint256"}],"stateMutability":"view"},{"type":"function","name":"_getImplementation","inputs":[{"name":"clone","type":"address","internalType":"address"}],"outputs":[{"name":"impl","type":"address","internalType":"address"}],"stateMutability":"view"},{"type":"function","name":"_isDelegatorNode","inputs":[{"name":"sender","type":"address","internalType":"address"}],"outputs":[{"name":"","type":"bool","internalType":"bool"}],"stateMutability":"view"},{"type":"function","name":"_isSafe","inputs":[],"outputs":[{"name":"","type":"bool","internalType":"bool"}],"stateMutability":"view"},{"type":"function","name":"_isSecureBase","inputs":[{"name":"sender","type":"address","internalType":"address"}],"outputs":[{"name":"","type":"bool","internalType":"bool"}],"stateMutability":"view"},{"type":"function","name":"_isSigner","inputs":[{"name":"sender","type":"address","internalType":"address"}],"outputs":[{"name":"","type":"bool","internalType":"bool"}],"stateMutability":"view"},{"type":"function","name":"backendSigner","inputs":[],"outputs":[{"name":"","type":"address","internalType":"address"}],"stateMutability":"view"},{"type":"function","name":"getBalance","inputs":[],"outputs":[{"name":"","type":"uint256","internalType":"uint256"}],"stateMutability":"view"},{"type":"function","name":"getHexbase","inputs":[],"outputs":[{"name":"","type":"address","internalType":"address"}],"stateMutability":"view"},{"type":"function","name":"owner","inputs":[],"outputs":[{"name":"","type":"address","internalType":"address"}],"stateMutability":"view"},{"type":"function","name":"sendOzone","inputs":[{"name":"user","type":"address","internalType":"address"},{"name":"amount","type":"uint256","internalType":"uint256"}],"outputs":[],"stateMutability":"nonpayable"},{"type":"function","name":"setBackend","inputs":[{"name":"newBackend","type":"address","internalType":"address"}],"outputs":[],"stateMutability":"nonpayable"},{"type":"function","name":"syncBaseAddr","inputs":[],"outputs":[],"stateMutability":"nonpayable"},{"type":"function","name":"systemAge","inputs":[],"outputs":[{"name":"","type":"uint256","internalType":"uint256"}],"stateMutability":"view"},{"type":"event","name":"BackendUpdated","inputs":[{"name":"oldBackend","type":"address","indexed":false,"internalType":"address"},{"name":"newBackend","type":"address","indexed":false,"internalType":"address"}],"anonymous":false},{"type":"event","name":"EthBurned","inputs":[{"name":"sender","type":"address","indexed":true,"internalType":"address"},{"name":"amount","type":"uint256","indexed":false,"internalType":"uint256"}],"anonymous":false},{"type":"event","name":"EthTransferred","inputs":[{"name":"to","type":"address","indexed":true,"internalType":"address"},{"name":"amount","type":"uint256","indexed":false,"internalType":"uint256"}],"anonymous":false},{"type":"event","name":"HexBaseUpdated","inputs":[{"name":"previousHexBase","type":"address","indexed":true,"internalType":"address"},{"name":"newHexBase","type":"address","indexed":true,"internalType":"address"}],"anonymous":false},{"type":"event","name":"OwnerUpdated","inputs":[{"name":"previousOwner","type":"address","indexed":true,"internalType":"address"},{"name":"newOwner","type":"address","indexed":true,"internalType":"address"}],"anonymous":false},{"type":"event","name":"OzoneSent","inputs":[{"name":"user","type":"address","indexed":true,"internalType":"address"},{"name":"amount","type":"uint256","indexed":false,"internalType":"uint256"},{"name":"backend","type":"address","indexed":true,"internalType":"address"},{"name":"timestamp","type":"uint256","indexed":false,"internalType":"uint256"}],"anonymous":false},{"type":"error","name":"CallFailed","inputs":[]},{"type":"error","name":"InvalidAddress","inputs":[]},{"type":"error","name":"InvalidState","inputs":[]},{"type":"error","name":"NotAuthorized","inputs":[]},{"type":"error","name":"NotSafe","inputs":[]},{"type":"error","name":"TargetCallFailed","inputs":[{"name":"selector","type":"bytes4","internalType":"bytes4"}]}],"bytecode":{"object":"0x608034610120576200184f90601f38839003908101601f19168201906001600160401b038211838310176101255780839160409586948552833981010312610120578061004d60209261013b565b6001600160a01b039290918391610064910161013b565b1690811561010f57829060018060a01b03199233846001541617600155836000541617600055169182156100d9577f37f6c561371bb449a598aaf7e5528fc87ad233e82669756cd67fec9c5f665a7b846011549281519084168152856020820152a11617601155516116ff9081620001508239f35b835162461bcd60e51b815260206004820152600f60248201526e1253959053125117d09050d2d15391608a1b6044820152606490fd5b835163e6c4247b60e01b8152600490fd5b600080fd5b634e487b7160e01b600052604160045260246000fd5b51906001600160a01b03821682036101205756fe60806040526004361015610018575b361561001657005b005b60003560e01c806312065fe0146101085780631f185d1614610103578063339459a6146100fe5780633b9b7955146100f957806365d65e86146100f45780638da5cb5b146100ef578063a1f7f539146100ea578063a455f523146100e5578063af484526146100e0578063b90306ad146100db578063c54e44b0146100d6578063da7fc24f146100d1578063e01ad5fd146100cc578063e0a9bc2b146100c75763fdc10bc90361000e57610f93565b610f6e565b610ea3565b610dc4565b610d3e565b610bdc565b610b5d565b6109ee565b610979565b610952565b61092b565b610904565b610225565b61013a565b3461012457600036600319011261012457602047604051908152f35b600080fd5b6001600160a01b0381160361012457565b3461012457602080600319360112610124576101b960043561015b81610129565b6001600160a01b0380600254169060405192168483015283825261017e82611026565b6040519061018b82611026565b601182527f69735369676e6572286164647265737329000000000000000000000000000000858301526114b6565b91908061021b575b156101f15781816101db926101ed945183010191016113e9565b60405190151581529081906020820190565b0390f35b60046040517f3204506f000000000000000000000000000000000000000000000000000000008152fd5b50808251146101c1565b346101245760003660031901126101245761025761024b6000546001600160a01b031690565b6001600160a01b031690565b604051907f97f3815a000000000000000000000000000000000000000000000000000000008252602082600481845afa918215610734576000926108e3575b50604051917fcfbffe53000000000000000000000000000000000000000000000000000000008352602083600481855afa928315610734576000936108c2575b50604051907fab6e844f000000000000000000000000000000000000000000000000000000008252602082600481865afa918215610734576000926108a1575b50604051917f14d8d024000000000000000000000000000000000000000000000000000000008352602083600481875afa92831561073457600093610880575b50604051927fd1f956b1000000000000000000000000000000000000000000000000000000008452602084600481885afa9384156107345760009461085f575b50604051937fe61dfd58000000000000000000000000000000000000000000000000000000008552602085600481895afa9485156107345760009561083e575b506040517fe09d394d0000000000000000000000000000000000000000000000000000000081526020816004818a5afa9081156107345760009161081f575b506040517f52b06d640000000000000000000000000000000000000000000000000000000081526020816004818b5afa90811561073457600091610800575b506040517f013cf08b00000000000000000000000000000000000000000000000000000000815260006004820152916020836024818c5afa928315610734576000936107df575b5060405197635e09dbe760e01b89526020896004818d5afa948515610734576004996000966107be575b5060208b6040519b8c80927faa0ddc160000000000000000000000000000000000000000000000000000000082525afa9687156107345760049a60009861079d575b5060208c6040519c8d80927f640274270000000000000000000000000000000000000000000000000000000082525afa9889156107345760049b60009a61077c575b5060208d6040519d8e80927f30125cf50000000000000000000000000000000000000000000000000000000082525afa9a8b15610734578d60049d60009d61075a575b506020906040519e8f80927f24768d910000000000000000000000000000000000000000000000000000000082525afa9c8d156107345760009d610739575b50604051809e81907f9dc969a80000000000000000000000000000000000000000000000000000000082525a92600491602094fa9d8e156107345760009e610703575b506106176110a9565b6001600160a01b0390911681529d8e906001600160a01b031660208201526040019061064b91906001600160a01b03169052565b6001600160a01b031660608d01526001600160a01b031660808c01526001600160a01b031660a08b01526001600160a01b031660c08a01526001600160a01b031660e08901526001600160a01b03166101008801526001600160a01b03166101208701526001600160a01b03166101408601526001600160a01b03166101608501526001600160a01b03166101808401526001600160a01b03166101a08301526001600160a01b03166101c0820152610016906110ca565b610726919e5060203d60201161072d575b61071e8183611063565b810190611085565b9c3861060e565b503d610714565b61109d565b610753919d5060203d60201161072d5761071e8183611063565b9b386105cb565b6020919d5061077590823d841161072d5761071e8183611063565b9c9061058c565b610796919a5060203d60201161072d5761071e8183611063565b9838610549565b6107b791985060203d60201161072d5761071e8183611063565b9638610507565b6107d891965060203d60201161072d5761071e8183611063565b94386104c5565b6107f991935060203d60201161072d5761071e8183611063565b913861049b565b610819915060203d60201161072d5761071e8183611063565b38610454565b610838915060203d60201161072d5761071e8183611063565b38610415565b61085891955060203d60201161072d5761071e8183611063565b93386103d6565b61087991945060203d60201161072d5761071e8183611063565b9238610396565b61089a91935060203d60201161072d5761071e8183611063565b9138610356565b6108bb91925060203d60201161072d5761071e8183611063565b9038610316565b6108dc91935060203d60201161072d5761071e8183611063565b91386102d6565b6108fd91925060203d60201161072d5761071e8183611063565b9038610296565b346101245760003660031901126101245760206001600160a01b0360005416604051908152f35b346101245760003660031901126101245760206001600160a01b0360115416604051908152f35b346101245760003660031901126101245760206001600160a01b0360015416604051908152f35b346101245760003660031901126101245760206109e66001600160a01b03600654166040516109a781611026565b601381527f67657464656c656761746f72436f756e7428290000000000000000000000000084820152604051916109dd83611047565b60008352611564565b604051908152f35b3461012457604036600319011261012457600435610a0b81610129565b6024356001600160a01b0380601154163303610b19576004906020610a3b61024b6000546001600160a01b031690565b60405193848092635e09dbe760e01b82525afa90811561073457610ada610af6927f5c7efd9fe7386a807127cbd8ca38d5a25c41c1399367144da5d403dbe5cd4f7294600091610afb575b506040517fa9059cbb0000000000000000000000000000000000000000000000000000000060208201526001600160a01b03881660248201526044808201889052815290610ad5606483611063565b6115ec565b5060408051948552426020860152339590911693918291820190565b0390a3005b610b13915060203d811161072d5761071e8183611063565b38610a86565b606460405162461bcd60e51b815260206004820152600b60248201527f4e4f545f4241434b454e440000000000000000000000000000000000000000006044820152fd5b3461012457602080600319360112610124576101b9600435610b7e81610129565b6001600160a01b03806002541690604051921684830152838252610ba182611026565b60405190610bae82611026565b601582527f6973536563757265426173652861646472657373290000000000000000000000858301526114b6565b3461012457602036600319011261012457600435610bf8611401565b15610d14576001600160a01b03600554163303610cea5760009060046020610c2a61024b85546001600160a01b031690565b604051928380927f46f991ac0000000000000000000000000000000000000000000000000000000082525afa80156107345783808481949382948391610ccc575b505af1610c76611486565b50156101f1577fcdcc745fe377b103b45fa0cec23ae3ef93d6fc6a84a01f0d18c40b354dd1d5d8610cc6610cb561024b600b546001600160a01b031690565b604051938452929081906020820190565b0390a280f35b610ce4915060203d811161072d5761071e8183611063565b38610c6b565b60046040517fea8e4eb5000000000000000000000000000000000000000000000000000000008152fd5b60046040517f9dc4246e000000000000000000000000000000000000000000000000000000008152fd5b3461012457602036600319011261012457600435610d5b81610129565b803b6000610d68826113cd565b92610d766040519485611063565b82845260208401903c602d815110610d9a57602a602091015160601c604051908152f35b60046040517fbaf3f0f7000000000000000000000000000000000000000000000000000000008152fd5b3461012457602036600319011261012457600435610de181610129565b610de9611401565b15610d14576001600160a01b039081600154163303610cea578181168015610e5f5760407f37f6c561371bb449a598aaf7e5528fc87ad233e82669756cd67fec9c5f665a7b9161001694601154169082519182526020820152a16001600160a01b03166001600160a01b03196011541617601155565b606460405162461bcd60e51b815260206004820152600f60248201527f494e56414c49445f4241434b454e4400000000000000000000000000000000006044820152fd5b3461012457602080600319360112610124576101ed9060043590610ec682610129565b610f2a6001600160a01b0392836006541693604051911683820152828152610eed81611026565b604051610ef981611026565b601881527f697364656c656761746f724e6f64652861646472657373290000000000000000848201526000946114b6565b919080610f64575b610f4b575b505060405190151581529081906020820190565b610f5d925080825183010191016113e9565b3880610f37565b5080825114610f32565b34610124576000366003190112610124576020610f89611401565b6040519015158152f35b346101245760003660031901126101245760206109e66001600160a01b0360035416604051610fc181611026565b600681527f694167652829000000000000000000000000000000000000000000000000000084820152604051916109dd83611047565b7f4e487b7100000000000000000000000000000000000000000000000000000000600052604160045260246000fd5b6040810190811067ffffffffffffffff82111761104257604052565b610ff7565b6020810190811067ffffffffffffffff82111761104257604052565b90601f8019910116810190811067ffffffffffffffff82111761104257604052565b90816020910312610124575161109a81610129565b90565b6040513d6000823e3d90fd5b604051906101e0820182811067ffffffffffffffff82111761104257604052565b6113af6101c06113cb926111046110e882516001600160a01b031690565b6001600160a01b03166001600160a01b03196002541617600255565b61113761111b60208301516001600160a01b031690565b6001600160a01b03166001600160a01b03196003541617600355565b61116a61114e60408301516001600160a01b031690565b6001600160a01b03166001600160a01b03196004541617600455565b61119d61118160608301516001600160a01b031690565b6001600160a01b03166001600160a01b03196005541617600555565b6111d06111b460808301516001600160a01b031690565b6001600160a01b03166001600160a01b03196006541617600655565b6112036111e760a08301516001600160a01b031690565b6001600160a01b03166001600160a01b03196007541617600755565b61123661121a60c08301516001600160a01b031690565b6001600160a01b03166001600160a01b03196008541617600855565b61126961124d60e08301516001600160a01b031690565b6001600160a01b03166001600160a01b03196009541617600955565b61129d6112816101008301516001600160a01b031690565b6001600160a01b03166001600160a01b0319600a541617600a55565b6112d16112b56101208301516001600160a01b031690565b6001600160a01b03166001600160a01b0319600b541617600b55565b6113056112e96101408301516001600160a01b031690565b6001600160a01b03166001600160a01b0319600c541617600c55565b61133961131d6101608301516001600160a01b031690565b6001600160a01b03166001600160a01b0319600d541617600d55565b61136d6113516101808301516001600160a01b031690565b6001600160a01b03166001600160a01b0319600e541617600e55565b6113a16113856101a08301516001600160a01b031690565b6001600160a01b03166001600160a01b0319600f541617600f55565b01516001600160a01b031690565b6001600160a01b03166001600160a01b03196010541617601055565b565b67ffffffffffffffff811161104257601f01601f191660200190565b90816020910312610124575180151581036101245790565b61145c6001600160a01b036002541660405161141c81611026565b600881527f697353616665282900000000000000000000000000000000000000000000000060208201526040519161145383611047565b600083526114b6565b908061147b575b156101f1578060208061109a935183010191016113e9565b506020815114611463565b3d156114b1573d90611497826113cd565b916114a56040519384611063565b82523d6000602084013e565b606090565b9190823b1561154b577fffffffff00000000000000000000000000000000000000000000000000000000815160208093012016916040519180830193845281519160005b83811061153757505050918161152760248260009795968897018783820152036004810184520182611063565b51915afa611533611486565b9091565b8181018301518582016024015282016114fa565b50505060009060405161155d81611047565b6000815290565b9291611572916000946114b6565b9080611597575b6115805750565b909150602081805181010312610124576020015190565b506020815114611579565b90602082519201517fffffffff000000000000000000000000000000000000000000000000000000009081811693600481106115dd57505050565b60040360031b82901b16169150565b6001600160a01b0381161561169f57600080918351908260208601915af190611613611486565b911561161d575090565b8051600091906004116116995761163491506115a2565b8151156116445750805190602001fd5b6040517f21c09d340000000000000000000000000000000000000000000000000000000081527fffffffff00000000000000000000000000000000000000000000000000000000919091166004820152602490fd5b50611634565b60046040517fe6c4247b000000000000000000000000000000000000000000000000000000008152fdfea26469706673582212200a40a06138ae4bf92b547ff3b7ccf7c2cbd25ba9030896823af9722a13ef8acb64736f6c63430008140033","linkReferences":{}},"methodIdentifiers":{"Burn(uint256)":"b90306ad","_delegatorCount()":"a1f7f539","_getImplementation(address)":"c54e44b0","_isDelegatorNode(address)":"e01ad5fd","_isSafe()":"e0a9bc2b","_isSecureBase(address)":"af484526","_isSigner(address)":"1f185d16","backendSigner()":"65d65e86","getBalance()":"12065fe0","getHexbase()":"3b9b7955","owner()":"8da5cb5b","sendOzone(address,uint256)":"a455f523","setBackend(address)":"da7fc24f","syncBaseAddr()":"339459a6","systemAge()":"fdc10bc9"},"id":123}