{"abi":[{"type":"constructor","inputs":[{"name":"_hex","type":"address","internalType":"address"}],"stateMutability":"nonpayable"},{"type":"fallback","stateMutability":"payable"},{"type":"receive","stateMutability":"payable"},{"type":"function","name":"Burn","inputs":[{"name":"amount","type":"uint256","internalType":"uint256"}],"outputs":[],"stateMutability":"nonpayable"},{"type":"function","name":"_delegatorCount","inputs":[],"outputs":[{"name":"","type":"uint256","internalType":"uint256"}],"stateMutability":"view"},{"type":"function","name":"_getImplementation","inputs":[{"name":"clone","type":"address","internalType":"address"}],"outputs":[{"name":"impl","type":"address","internalType":"address"}],"stateMutability":"view"},{"type":"function","name":"_isDelegatorNode","inputs":[{"name":"sender","type":"address","internalType":"address"}],"outputs":[{"name":"","type":"bool","internalType":"bool"}],"stateMutability":"view"},{"type":"function","name":"_isSafe","inputs":[],"outputs":[{"name":"","type":"bool","internalType":"bool"}],"stateMutability":"view"},{"type":"function","name":"_isSecureBase","inputs":[{"name":"sender","type":"address","internalType":"address"}],"outputs":[{"name":"","type":"bool","internalType":"bool"}],"stateMutability":"view"},{"type":"function","name":"_isSigner","inputs":[{"name":"sender","type":"address","internalType":"address"}],"outputs":[{"name":"","type":"bool","internalType":"bool"}],"stateMutability":"view"},{"type":"function","name":"getBalance","inputs":[],"outputs":[{"name":"","type":"uint256","internalType":"uint256"}],"stateMutability":"view"},{"type":"function","name":"getHexbase","inputs":[],"outputs":[{"name":"","type":"address","internalType":"address"}],"stateMutability":"view"},{"type":"function","name":"onCallback","inputs":[{"name":"payload","type":"bytes","internalType":"bytes"}],"outputs":[],"stateMutability":"nonpayable"},{"type":"function","name":"owner","inputs":[],"outputs":[{"name":"","type":"address","internalType":"address"}],"stateMutability":"view"},{"type":"function","name":"systemAge","inputs":[],"outputs":[{"name":"","type":"uint256","internalType":"uint256"}],"stateMutability":"view"},{"type":"event","name":"EthBurned","inputs":[{"name":"sender","type":"address","indexed":true,"internalType":"address"},{"name":"amount","type":"uint256","indexed":false,"internalType":"uint256"}],"anonymous":false},{"type":"event","name":"EthTransferred","inputs":[{"name":"to","type":"address","indexed":true,"internalType":"address"},{"name":"amount","type":"uint256","indexed":false,"internalType":"uint256"}],"anonymous":false},{"type":"event","name":"HexBaseUpdated","inputs":[{"name":"previousHexBase","type":"address","indexed":true,"internalType":"address"},{"name":"newHexBase","type":"address","indexed":true,"internalType":"address"}],"anonymous":false},{"type":"event","name":"OwnerUpdated","inputs":[{"name":"previousOwner","type":"address","indexed":true,"internalType":"address"},{"name":"newOwner","type":"address","indexed":true,"internalType":"address"}],"anonymous":false},{"type":"error","name":"TargetCallFailed","inputs":[{"name":"selector","type":"bytes4","internalType":"bytes4"}]}],"bytecode":{"object":"0x6080346100c557601f610fa838819003918201601f19168301916001600160401b038311848410176100ca578084926020946040528339810103126100c557516001600160a01b038116908190036100c55780156100805760018060a01b0319338160015416176001556000541617600055604051610ec790816100e18239f35b60405162461bcd60e51b815260206004820152601360248201527f6f776e2e696e76616c69642e68657862617365000000000000000000000000006044820152606490fd5b600080fd5b634e487b7160e01b600052604160045260246000fdfe60806040526004361015610018575b361561001657005b005b60003560e01c806312065fe0146100d85780631f185d16146100d35780633b9b7955146100ce5780638da5cb5b146100c95780639e6c4bd1146100c4578063a1f7f539146100bf578063af484526146100ba578063b90306ad146100b5578063c54e44b0146100b0578063e01ad5fd146100ab578063e0a9bc2b146100a65763fdc10bc90361000e57610791565b6106ef565b610650565b6105b4565b610501565b61043e565b610387565b610315565b61025d565b610234565b61010a565b346100f45760003660031901126100f457602047604051908152f35b600080fd5b6001600160a01b038116036100f457565b346100f4576020806003193601126100f45760049081359061012b826100f9565b600054819061014a906001600160a01b03165b6001600160a01b031690565b604051634bf9c0ad60e11b815294859182905afa91821561021c5761018f6101c9936101ab926101db966000926101e9575b5061019d90604051938491878301610221565b03601f1981018452836102d7565b6101a5610c3f565b90610db6565b9190806101df575b6101bc90610c6c565b8082518301019101610bad565b60405191829182901515815260200190565b0390f35b50815181146101b3565b61019d91925061020e90863d8811610215575b61020681836102d7565b810190610b1d565b919061017c565b503d6101fc565b610b35565b6001600160a01b03909116815260200190565b346100f45760003660031901126100f4576000546040516001600160a01b039091168152602090f35b346100f45760003660031901126100f4576001546040516001600160a01b039091168152602090f35b634e487b7160e01b600052604160045260246000fd5b604081019081106001600160401b038211176102b757604052565b610286565b602081019081106001600160401b038211176102b757604052565b601f909101601f19168101906001600160401b038211908210176102b757604052565b6001600160401b0381116102b757601f01601f191660200190565b346100f45760203660031901126100f4576004356001600160401b0381116100f457366023820112156100f4578060040135610350816102fa565b9061035e60405192836102d7565b80825236602482850101116100f457602081600092602461001696018386013783010152610824565b346100f45760003660031901126100f45760005460405163d1f956b160e01b815290602090829060049082906001600160a01b03165afa90811561021c576101db9161041091600091610420575b506040516103e28161029c565b601381527267657464656c656761746f72436f756e74282960681b602082015261040a6108c9565b91610e53565b6040519081529081906020820190565b610438915060203d81116102155761020681836102d7565b386103d5565b346100f4576020806003193601126100f45760049081359061045f826100f9565b6000548190610476906001600160a01b031661013e565b604051634bf9c0ad60e11b815294859182905afa91821561021c5761018f6101c9936104c3926101db966000926104de575b506104bb90604051938491878301610221565b6101a5610bc5565b9190806104d4575b6101bc90610bf6565b50815181146104cb565b6104bb9192506104fa90863d88116102155761020681836102d7565b91906104a8565b346100f45760203660031901126100f457600054604051630536340960e21b8152906001600160a01b03906020908390600490829085165afa91821561021c57600092610594575b503391160361055d57610016600435610ce5565b60405162461bcd60e51b815260206004820152600f60248201526e6f776e2e6e6f6e617574682e44414f60881b6044820152606490fd5b6105ad91925060203d81116102155761020681836102d7565b9038610549565b346100f45760203660031901126100f4576004356105d1816100f9565b803b60006105de826102fa565b926105ec60405194856102d7565b82845260208401903c602d81511061061557602a6101db91015160601c60405191829182610221565b60405162461bcd60e51b81526020600482015260136024820152724e6f742061206d696e696d616c2070726f787960681b6044820152606490fd5b346100f4576020806003193601126100f4576004803561066f816100f9565b60005460405163d1f956b160e01b81526001600160a01b03949093909182918591829088165afa90811561021c576101db946101c9946000936106d0575b5060405193168184015282526106c28261029c565b6106ca610cb1565b90610e17565b6106e8919350823d84116102155761020681836102d7565b91386106ad565b346100f45760003660031901126100f457600054604051634bf9c0ad60e11b8152906020908190839060049082906001600160a01b03165afa90811561021c576107596101c9926101db94600091610774575b5061074b610b41565b6107536108c9565b91610db6565b91908061076a575b6101bc90610b65565b5081518114610761565b61078b9150833d85116102155761020681836102d7565b38610742565b346100f45760003660031901126100f45760005460405163111ea8c160e21b815290602090829060049082906001600160a01b03165afa90811561021c576101db9161041091600091610806575b506040516107ec8161029c565b6005815264616765282960d81b602082015261040a6108c9565b61081e915060203d81116102155761020681836102d7565b386107df565b805161082d5750565b610836906109d9565b565b8051601410156108485760340190565b634e487b7160e01b600052603260045260246000fd5b8051601510156108485760350190565b8051601610156108485760360190565b8051601710156108485760370190565b908151811015610848570160200190565b634e487b7160e01b600052601160045260246000fd5b6017198101919082116108c457565b61089f565b604051906108d6826102bc565b60008252565b906108e6826102fa565b6108f360405191826102d7565b8281528092610904601f19916102fa565b0190602036910137565b60001981146108c45760010190565b90601882018092116108c457565b6001600160e01b0319909116815281519160005b8381106109555750509060049101016000815290565b806020809284010151600482860101520161093f565b3d15610996573d9061097c826102fa565b9161098a60405193846102d7565b82523d6000602084013e565b606090565b156109a257565b60405162461bcd60e51b815260206004820152600f60248201526e18d85b1b189858dac819985a5b1959608a1b6044820152606490fd5b90815115610b1957602082015160601c91610a24610a17610a0a6109fc84610838565b516001600160f81b03191690565b6001600160f81b03191690565b6001600160e01b03191690565b610a44610a36610a0a6109fc8561085e565b60081c62ffffff60e01b1690565b17610a64610a57610a0a6109fc8561086e565b60101c61ffff60e01b1690565b17610a83610a77610a0a6109fc8561087e565b60181c60ff60e01b1690565b1791610a97610a9283516108b5565b6108dc565b9360005b8551811015610ad55780610abd6109fc610ab7610ad09461091d565b8761088e565b60001a610aca828961088e565b5361090e565b610a9b565b50600092506108369383610af9610b0782959860405192839160208301968761092b565b03601f1981018352826102d7565b51925af1610b1361096b565b5061099b565b9050565b908160209103126100f45751610b32816100f9565b90565b6040513d6000823e3d90fd5b60405190610b4e8261029c565b6008825267697353616665282960c01b6020830152565b15610b6c57565b60405162461bcd60e51b81526020600482015260196024820152781bdddb8b9cd8599959dd585c990b98d85b1b0b99985a5b1959603a1b6044820152606490fd5b908160209103126100f4575180151581036100f45790565b60405190610bd28261029c565b601582527469735365637572654261736528616464726573732960581b6020830152565b15610bfd57565b60405162461bcd60e51b815260206004820152601a6024820152791bdddb8b9cd958dd5c9958985cd94b98d85b1b0b99985a5b195960321b6044820152606490fd5b60405190610c4c8261029c565b601182527069735369676e657228616464726573732960781b6020830152565b15610c7357565b60405162461bcd60e51b81526020600482015260166024820152751bdddb8b9cda59db995c8b98d85b1b0b99985a5b195960521b6044820152606490fd5b60405190610cbe8261029c565b6018825277697364656c656761746f724e6f646528616464726573732960401b6020830152565b600080546040516311be646b60e21b815290602090829060049082906001600160a01b03165afa90811561021c578284819382938391610d98575b505af1610d2b61096b565b5015610d615760405190815233907fcdcc745fe377b103b45fa0cec23ae3ef93d6fc6a84a01f0d18c40b354dd1d5d890602090a2565b60405162461bcd60e51b815260206004820152600f60248201526e1bdddb8b989d5c9b8b99985a5b1959608a1b6044820152606490fd5b610db0915060203d81116102155761020681836102d7565b38610d20565b803b15610dfe5781516020928301206040516000948594820192610deb918391610af991906001600160e01b0319168661092b565b5191620dbba0fa610dfa61096b565b9091565b505050600090604051610e10816102bc565b6000815290565b9291610e2591600094610db6565b9080610e48575b610e335750565b610b3291925060208082518301019101610bad565b506020815114610e2c565b9291610e6191600094610db6565b9080610e86575b610e6f5750565b9091506020818051810103126100f4576020015190565b506020815114610e6856fea26469706673582212205ae6332dc6d31f1c83712c64e7a1bf1dd26f423720fe64e1e0b69d752294bbe164736f6c63430008140033","linkReferences":{}},"methodIdentifiers":{"Burn(uint256)":"b90306ad","_delegatorCount()":"a1f7f539","_getImplementation(address)":"c54e44b0","_isDelegatorNode(address)":"e01ad5fd","_isSafe()":"e0a9bc2b","_isSecureBase(address)":"af484526","_isSigner(address)":"1f185d16","getBalance()":"12065fe0","getHexbase()":"3b9b7955","onCallback(bytes)":"9e6c4bd1","owner()":"8da5cb5b","systemAge()":"fdc10bc9"},"id":26}