{"abi":[{"type":"constructor","inputs":[{"name":"_hex","type":"address","internalType":"address"}],"stateMutability":"nonpayable"},{"type":"fallback","stateMutability":"payable"},{"type":"receive","stateMutability":"payable"},{"type":"function","name":"Burn","inputs":[{"name":"amount","type":"uint256","internalType":"uint256"}],"outputs":[],"stateMutability":"nonpayable"},{"type":"function","name":"_delegatorCount","inputs":[],"outputs":[{"name":"","type":"uint256","internalType":"uint256"}],"stateMutability":"view"},{"type":"function","name":"_getImplementation","inputs":[{"name":"clone","type":"address","internalType":"address"}],"outputs":[{"name":"impl","type":"address","internalType":"address"}],"stateMutability":"view"},{"type":"function","name":"_isDelegatorNode","inputs":[{"name":"sender","type":"address","internalType":"address"}],"outputs":[{"name":"","type":"bool","internalType":"bool"}],"stateMutability":"view"},{"type":"function","name":"_isSafe","inputs":[],"outputs":[{"name":"","type":"bool","internalType":"bool"}],"stateMutability":"view"},{"type":"function","name":"_isSecureBase","inputs":[{"name":"sender","type":"address","internalType":"address"}],"outputs":[{"name":"","type":"bool","internalType":"bool"}],"stateMutability":"view"},{"type":"function","name":"_isSigner","inputs":[{"name":"sender","type":"address","internalType":"address"}],"outputs":[{"name":"","type":"bool","internalType":"bool"}],"stateMutability":"view"},{"type":"function","name":"getBalance","inputs":[],"outputs":[{"name":"","type":"uint256","internalType":"uint256"}],"stateMutability":"view"},{"type":"function","name":"getHexbase","inputs":[],"outputs":[{"name":"","type":"address","internalType":"address"}],"stateMutability":"view"},{"type":"function","name":"onCallback","inputs":[{"name":"payload","type":"bytes","internalType":"bytes"}],"outputs":[],"stateMutability":"nonpayable"},{"type":"function","name":"owner","inputs":[],"outputs":[{"name":"","type":"address","internalType":"address"}],"stateMutability":"view"},{"type":"function","name":"syncBaseAddr","inputs":[],"outputs":[],"stateMutability":"nonpayable"},{"type":"function","name":"systemAge","inputs":[],"outputs":[{"name":"","type":"uint256","internalType":"uint256"}],"stateMutability":"view"},{"type":"event","name":"EthBurned","inputs":[{"name":"sender","type":"address","indexed":true,"internalType":"address"},{"name":"amount","type":"uint256","indexed":false,"internalType":"uint256"}],"anonymous":false},{"type":"event","name":"EthTransferred","inputs":[{"name":"to","type":"address","indexed":true,"internalType":"address"},{"name":"amount","type":"uint256","indexed":false,"internalType":"uint256"}],"anonymous":false},{"type":"event","name":"HexBaseUpdated","inputs":[{"name":"previousHexBase","type":"address","indexed":true,"internalType":"address"},{"name":"newHexBase","type":"address","indexed":true,"internalType":"address"}],"anonymous":false},{"type":"event","name":"OwnerUpdated","inputs":[{"name":"previousOwner","type":"address","indexed":true,"internalType":"address"},{"name":"newOwner","type":"address","indexed":true,"internalType":"address"}],"anonymous":false},{"type":"error","name":"CallFailed","inputs":[]},{"type":"error","name":"InvalidAddress","inputs":[]},{"type":"error","name":"InvalidState","inputs":[]},{"type":"error","name":"NotAuthorized","inputs":[]},{"type":"error","name":"NotSafe","inputs":[]},{"type":"error","name":"TargetCallFailed","inputs":[{"name":"selector","type":"bytes4","internalType":"bytes4"}]}],"bytecode":{"object":"0x60803461009257601f6118d638819003918201601f19168301916001600160401b038311848410176100975780849260209460405283398101031261009257516001600160a01b038116908190036100925780156100805760018060a01b031933816001541617600155600054161760005560405161182890816100ae8239f35b60405163e6c4247b60e01b8152600490fd5b600080fd5b634e487b7160e01b600052604160045260246000fdfe60806040526004361015610018575b361561001657005b005b60003560e01c806312065fe0146100e85780631f185d16146100e3578063339459a6146100de5780633b9b7955146100d95780638da5cb5b146100d45780639e6c4bd1146100cf578063a1f7f539146100ca578063af484526146100c5578063b90306ad146100c0578063c54e44b0146100bb578063e01ad5fd146100b6578063e0a9bc2b146100b15763fdc10bc90361000e57610d96565b610d7b565b610cb0565b610c78565b610b16565b610ae5565b610a70565b6109fd565b610924565b6108fd565b610205565b61011a565b3461010457600036600319011261010457602047604051908152f35b600080fd5b6001600160a01b0381160361010457565b34610104576020806003193601126101045761019960043561013b81610109565b6001600160a01b0380600254169060405192168483015283825261015e82610961565b6040519061016b82610961565b601182527f69735369676e6572286164647265737329000000000000000000000000000000858301526116dd565b9190806101fb575b156101d15781816101bb926101cd945183010191016115b6565b60405190151581529081906020820190565b0390f35b60046040517f3204506f000000000000000000000000000000000000000000000000000000008152fd5b50808251146101a1565b346101045760003660031901126101045761023761022b6000546001600160a01b031690565b6001600160a01b031690565b604051907f97f3815a000000000000000000000000000000000000000000000000000000008252602082600481845afa91821561072d576000926108dc575b50604051917fcfbffe53000000000000000000000000000000000000000000000000000000008352602083600481855afa92831561072d576000936108bb575b50604051907fab6e844f000000000000000000000000000000000000000000000000000000008252602082600481865afa91821561072d5760009261089a575b50604051917f14d8d024000000000000000000000000000000000000000000000000000000008352602083600481875afa92831561072d57600093610879575b50604051927fd1f956b1000000000000000000000000000000000000000000000000000000008452602084600481885afa93841561072d57600094610858575b50604051937fe61dfd58000000000000000000000000000000000000000000000000000000008552602085600481895afa94851561072d57600095610837575b506040517fe09d394d0000000000000000000000000000000000000000000000000000000081526020816004818a5afa90811561072d57600091610818575b506040517f52b06d640000000000000000000000000000000000000000000000000000000081526020816004818b5afa90811561072d576000916107f9575b506040517f013cf08b00000000000000000000000000000000000000000000000000000000815260006004820152916020836024818c5afa92831561072d576000936107d8575b50604051977f5e09dbe70000000000000000000000000000000000000000000000000000000089526020896004818d5afa94851561072d576004996000966107b7575b5060208b6040519b8c80927faa0ddc160000000000000000000000000000000000000000000000000000000082525afa96871561072d5760049a600098610796575b5060208c6040519c8d80927f640274270000000000000000000000000000000000000000000000000000000082525afa98891561072d5760049b60009a610775575b5060208d6040519d8e80927f30125cf50000000000000000000000000000000000000000000000000000000082525afa9a8b1561072d578d60049d60009d610753575b506020906040519e8f80927f24768d910000000000000000000000000000000000000000000000000000000082525afa9c8d1561072d5760009d610732575b50604051809e81907f9dc969a80000000000000000000000000000000000000000000000000000000082525a92600491602094fa9d8e1561072d5760009e6106fc575b506106106109c0565b6001600160a01b0390911681529d8e906001600160a01b031660208201526040019061064491906001600160a01b03169052565b6001600160a01b031660608d01526001600160a01b031660808c01526001600160a01b031660a08b01526001600160a01b031660c08a01526001600160a01b031660e08901526001600160a01b03166101008801526001600160a01b03166101208701526001600160a01b03166101408601526001600160a01b03166101608501526001600160a01b03166101808401526001600160a01b03166101a08301526001600160a01b03166101c0820152610016906112b5565b61071f919e5060203d602011610726575b610717818361099e565b810190610dfa565b9c38610607565b503d61070d565b610e12565b61074c919d5060203d60201161072657610717818361099e565b9b386105c4565b6020919d5061076e90823d841161072657610717818361099e565b9c90610585565b61078f919a5060203d60201161072657610717818361099e565b9838610542565b6107b091985060203d60201161072657610717818361099e565b9638610500565b6107d191965060203d60201161072657610717818361099e565b94386104be565b6107f291935060203d60201161072657610717818361099e565b913861047b565b610812915060203d60201161072657610717818361099e565b38610434565b610831915060203d60201161072657610717818361099e565b386103f5565b61085191955060203d60201161072657610717818361099e565b93386103b6565b61087291945060203d60201161072657610717818361099e565b9238610376565b61089391935060203d60201161072657610717818361099e565b9138610336565b6108b491925060203d60201161072657610717818361099e565b90386102f6565b6108d591935060203d60201161072657610717818361099e565b91386102b6565b6108f691925060203d60201161072657610717818361099e565b9038610276565b346101045760003660031901126101045760206001600160a01b0360005416604051908152f35b346101045760003660031901126101045760206001600160a01b0360015416604051908152f35b634e487b7160e01b600052604160045260246000fd5b6040810190811067ffffffffffffffff82111761097d57604052565b61094b565b6020810190811067ffffffffffffffff82111761097d57604052565b90601f8019910116810190811067ffffffffffffffff82111761097d57604052565b604051906101e0820182811067ffffffffffffffff82111761097d57604052565b67ffffffffffffffff811161097d57601f01601f191660200190565b346101045760203660031901126101045760043567ffffffffffffffff81116101045736602382011215610104578060040135610a39816109e1565b90610a47604051928361099e565b808252366024828501011161010457602081600092602461001696018386013783010152610e1e565b34610104576000366003190112610104576020610add6001600160a01b0360065416604051610a9e81610961565b601381527f67657464656c656761746f72436f756e742829000000000000000000000000008482015260405191610ad483610982565b60008352611753565b604051908152f35b34610104576020366003190112610104576020610b0c600435610b0781610109565b611653565b6040519015158152f35b3461010457602036600319011261010457600435610b326115ce565b15610c4e576001600160a01b03600554163303610c245760009060046020610b6461022b85546001600160a01b031690565b604051928380927f46f991ac0000000000000000000000000000000000000000000000000000000082525afa801561072d5783808481949382948391610c06575b505af1610bb061106e565b50156101d1577fcdcc745fe377b103b45fa0cec23ae3ef93d6fc6a84a01f0d18c40b354dd1d5d8610c00610bef61022b600b546001600160a01b031690565b604051938452929081906020820190565b0390a280f35b610c1e915060203d811161072657610717818361099e565b38610ba5565b60046040517fea8e4eb5000000000000000000000000000000000000000000000000000000008152fd5b60046040517f9dc4246e000000000000000000000000000000000000000000000000000000008152fd5b34610104576020366003190112610104576020610c9f600435610c9a81610109565b611791565b6001600160a01b0360405191168152f35b3461010457602080600319360112610104576101cd9060043590610cd382610109565b610d376001600160a01b0392836006541693604051911683820152828152610cfa81610961565b604051610d0681610961565b601881527f697364656c656761746f724e6f64652861646472657373290000000000000000848201526000946116dd565b919080610d71575b610d58575b505060405190151581529081906020820190565b610d6a925080825183010191016115b6565b3880610d44565b5080825114610d3f565b34610104576000366003190112610104576020610b0c6115ce565b34610104576000366003190112610104576020610add6001600160a01b0360035416604051610dc481610961565b600681527f69416765282900000000000000000000000000000000000000000000000000008482015260405191610ad483610982565b908160209103126101045751610e0f81610109565b90565b6040513d6000823e3d90fd5b610e856020610e2c33611791565b610e4161022b6000546001600160a01b031690565b60405180809581947fcfaa1f6c000000000000000000000000000000000000000000000000000000008352600483019190916001600160a01b036020820193169052565b03915afa90811561072d57600091610f19575b506001600160a01b03811615159081610f09575b50610ef7575b60405162461bcd60e51b815260206004820152600a60248201527f496e76616c6964204f70000000000000000000000000000000000000000000006044820152606490fd5b805115610eb257610f07906110e9565b565b610f139150611653565b38610eac565b610f31915060203d811161072657610717818361099e565b38610e98565b805160141015610f475760340190565b634e487b7160e01b600052603260045260246000fd5b805160151015610f475760350190565b805160161015610f475760360190565b805160171015610f475760370190565b908151811015610f47570160200190565b634e487b7160e01b600052601160045260246000fd5b601719810191908211610fc357565b610f9e565b90610fd2826109e1565b610fdf604051918261099e565b8281528092610ff0601f19916109e1565b0190602036910137565b6000198114610fc35760010190565b9060188201809211610fc357565b907fffffffff0000000000000000000000000000000000000000000000000000000016815281519160005b8381106110585750509060049101016000815290565b8060208092840101516004828601015201611042565b3d15611099573d9061107f826109e1565b9161108d604051938461099e565b82523d6000602084013e565b606090565b156110a557565b606460405162461bcd60e51b815260206004820152600f60248201527f63616c6c6261636b206661696c656400000000000000000000000000000000006044820152fd5b90602082015160601c9161117561115061112b61110584610f37565b517fff000000000000000000000000000000000000000000000000000000000000001690565b7fff000000000000000000000000000000000000000000000000000000000000001690565b7fffffffff000000000000000000000000000000000000000000000000000000001690565b6111ae61118761112b61110585610f5d565b60081c7effffff000000000000000000000000000000000000000000000000000000001690565b176111e76111c161112b61110585610f6d565b60101c7dffff000000000000000000000000000000000000000000000000000000001690565b1761121f6111fa61112b61110585610f7d565b60181c7cff000000000000000000000000000000000000000000000000000000001690565b179161123361122e8351610fb4565b610fc8565b9360005b8551811015611271578061125961110561125361126c94611009565b87610f8d565b60001a6112668289610f8d565b53610ffa565b611237565b5060009250610f0793836112956112a3829598604051928391602083019687611017565b03601f19810183528261099e565b51925af16112af61106e565b5061109e565b61159a6101c0610f07926112ef6112d382516001600160a01b031690565b6001600160a01b03166001600160a01b03196002541617600255565b61132261130660208301516001600160a01b031690565b6001600160a01b03166001600160a01b03196003541617600355565b61135561133960408301516001600160a01b031690565b6001600160a01b03166001600160a01b03196004541617600455565b61138861136c60608301516001600160a01b031690565b6001600160a01b03166001600160a01b03196005541617600555565b6113bb61139f60808301516001600160a01b031690565b6001600160a01b03166001600160a01b03196006541617600655565b6113ee6113d260a08301516001600160a01b031690565b6001600160a01b03166001600160a01b03196007541617600755565b61142161140560c08301516001600160a01b031690565b6001600160a01b03166001600160a01b03196008541617600855565b61145461143860e08301516001600160a01b031690565b6001600160a01b03166001600160a01b03196009541617600955565b61148861146c6101008301516001600160a01b031690565b6001600160a01b03166001600160a01b0319600a541617600a55565b6114bc6114a06101208301516001600160a01b031690565b6001600160a01b03166001600160a01b0319600b541617600b55565b6114f06114d46101408301516001600160a01b031690565b6001600160a01b03166001600160a01b0319600c541617600c55565b6115246115086101608301516001600160a01b031690565b6001600160a01b03166001600160a01b0319600d541617600d55565b61155861153c6101808301516001600160a01b031690565b6001600160a01b03166001600160a01b0319600e541617600e55565b61158c6115706101a08301516001600160a01b031690565b6001600160a01b03166001600160a01b0319600f541617600f55565b01516001600160a01b031690565b6001600160a01b03166001600160a01b03196010541617601055565b90816020910312610104575180151581036101045790565b6116296001600160a01b03600254166040516115e981610961565b600881527f697353616665282900000000000000000000000000000000000000000000000060208201526040519161162083610982565b600083526116dd565b9080611648575b156101d15780602080610e0f935183010191016115b6565b506020815114611630565b6116b66001600160a01b03806002541660405191602094168483015283825261167b82610961565b6040519061168882610961565b601582527f6973536563757265426173652861646472657373290000000000000000000000858301526116dd565b90806116d3575b156101d15781610e0f92825183010191016115b6565b50818151146116bd565b803b1561173a5760009261129561172a7fffffffff000000000000000000000000000000000000000000000000000000008560208897519101201692604051928391602083019586611017565b51915afa61173661106e565b9091565b50505060009060405161174c81610982565b6000815290565b9291611761916000946116dd565b9080611786575b61176f5750565b909150602081805181010312610104576020015190565b506020815114611768565b803b600061179e826109e1565b926117ac604051948561099e565b82845260208401903c602d8151106117c857602a015160601c90565b60046040517fbaf3f0f7000000000000000000000000000000000000000000000000000000008152fdfea2646970667358221220a10bbb996c0a9196d67d6b19ec6e2cb8aff8444c61ab6f964a4b0f572d3d1b8b64736f6c63430008140033","linkReferences":{}},"methodIdentifiers":{"Burn(uint256)":"b90306ad","_delegatorCount()":"a1f7f539","_getImplementation(address)":"c54e44b0","_isDelegatorNode(address)":"e01ad5fd","_isSafe()":"e0a9bc2b","_isSecureBase(address)":"af484526","_isSigner(address)":"1f185d16","getBalance()":"12065fe0","getHexbase()":"3b9b7955","onCallback(bytes)":"9e6c4bd1","owner()":"8da5cb5b","syncBaseAddr()":"339459a6","systemAge()":"fdc10bc9"},"id":55}