{"abi":[{"type":"constructor","inputs":[{"name":"_hex","type":"address","internalType":"address"}],"stateMutability":"nonpayable"},{"type":"fallback","stateMutability":"payable"},{"type":"receive","stateMutability":"payable"},{"type":"function","name":"Burn","inputs":[{"name":"amount","type":"uint256","internalType":"uint256"}],"outputs":[],"stateMutability":"nonpayable"},{"type":"function","name":"_delegatorCount","inputs":[],"outputs":[{"name":"","type":"uint256","internalType":"uint256"}],"stateMutability":"view"},{"type":"function","name":"_getImplementation","inputs":[{"name":"clone","type":"address","internalType":"address"}],"outputs":[{"name":"impl","type":"address","internalType":"address"}],"stateMutability":"view"},{"type":"function","name":"_isDelegatorNode","inputs":[{"name":"sender","type":"address","internalType":"address"}],"outputs":[{"name":"","type":"bool","internalType":"bool"}],"stateMutability":"view"},{"type":"function","name":"_isSafe","inputs":[],"outputs":[{"name":"","type":"bool","internalType":"bool"}],"stateMutability":"view"},{"type":"function","name":"_isSecureBase","inputs":[{"name":"sender","type":"address","internalType":"address"}],"outputs":[{"name":"","type":"bool","internalType":"bool"}],"stateMutability":"view"},{"type":"function","name":"_isSigner","inputs":[{"name":"sender","type":"address","internalType":"address"}],"outputs":[{"name":"","type":"bool","internalType":"bool"}],"stateMutability":"view"},{"type":"function","name":"getBalance","inputs":[],"outputs":[{"name":"","type":"uint256","internalType":"uint256"}],"stateMutability":"view"},{"type":"function","name":"getHexbase","inputs":[],"outputs":[{"name":"","type":"address","internalType":"address"}],"stateMutability":"view"},{"type":"function","name":"onCallback","inputs":[{"name":"payload","type":"bytes","internalType":"bytes"}],"outputs":[],"stateMutability":"nonpayable"},{"type":"function","name":"owner","inputs":[],"outputs":[{"name":"","type":"address","internalType":"address"}],"stateMutability":"view"},{"type":"function","name":"systemAge","inputs":[],"outputs":[{"name":"","type":"uint256","internalType":"uint256"}],"stateMutability":"view"},{"type":"event","name":"EthBurned","inputs":[{"name":"sender","type":"address","indexed":true,"internalType":"address"},{"name":"amount","type":"uint256","indexed":false,"internalType":"uint256"}],"anonymous":false},{"type":"event","name":"EthTransferred","inputs":[{"name":"to","type":"address","indexed":true,"internalType":"address"},{"name":"amount","type":"uint256","indexed":false,"internalType":"uint256"}],"anonymous":false},{"type":"event","name":"HexBaseUpdated","inputs":[{"name":"previousHexBase","type":"address","indexed":true,"internalType":"address"},{"name":"newHexBase","type":"address","indexed":true,"internalType":"address"}],"anonymous":false},{"type":"event","name":"OwnerUpdated","inputs":[{"name":"previousOwner","type":"address","indexed":true,"internalType":"address"},{"name":"newOwner","type":"address","indexed":true,"internalType":"address"}],"anonymous":false},{"type":"error","name":"TargetCallFailed","inputs":[{"name":"selector","type":"bytes4","internalType":"bytes4"}]}],"bytecode":{"object":"0x6080346100c557601f61113438819003918201601f19168301916001600160401b038311848410176100ca578084926020946040528339810103126100c557516001600160a01b038116908190036100c55780156100805760018060a01b031933816001541617600155600054161760005560405161105390816100e18239f35b60405162461bcd60e51b815260206004820152601360248201527f6f776e2e696e76616c69642e68657862617365000000000000000000000000006044820152606490fd5b600080fd5b634e487b7160e01b600052604160045260246000fdfe60806040526004361015610018575b361561001657005b005b60003560e01c806312065fe0146100d85780631f185d16146100d35780633b9b7955146100ce5780638da5cb5b146100c95780639e6c4bd1146100c4578063a1f7f539146100bf578063af484526146100ba578063b90306ad146100b5578063c54e44b0146100b0578063e01ad5fd146100ab578063e0a9bc2b146100a65763fdc10bc90361000e576107c4565b610725565b61068b565b6105e9565b610514565b610443565b610385565b610312565b61025a565b610233565b61010a565b346100f45760003660031901126100f457602047604051908152f35b600080fd5b6001600160a01b038116036100f457565b346100f4576020806003193601126100f45760049081359061012b826100f9565b8061014d6101416000546001600160a01b031690565b6001600160a01b031690565b60405194858092634bf9c0ad60e11b82525afa91821561022e576101a16101db936101bd926101ed966000926101fb575b506101af906040519384918783019190916001600160a01b036020820193169052565b03601f1981018452836102d4565b6101b7610d79565b90610f2a565b9190806101f1575b6101ce90610db2565b8082518301019101610cdd565b60405190151581529081906020820190565b0390f35b50815181146101c5565b6101af91925061022090863d8811610227575b61021881836102d4565b810190610c35565b919061017e565b503d61020e565b610c4d565b346100f45760003660031901126100f45760206001600160a01b0360005416604051908152f35b346100f45760003660031901126100f45760206001600160a01b0360015416604051908152f35b634e487b7160e01b600052604160045260246000fd5b6040810190811067ffffffffffffffff8211176102b357604052565b610281565b6020810190811067ffffffffffffffff8211176102b357604052565b90601f8019910116810190811067ffffffffffffffff8211176102b357604052565b67ffffffffffffffff81116102b357601f01601f191660200190565b346100f45760203660031901126100f45760043567ffffffffffffffff81116100f457366023820112156100f457806004013561034e816102f6565b9061035c60405192836102d4565b80825236602482850101116100f457602081600092602461001696018386013783010152610885565b346100f45760003660031901126100f457600460206001600160a01b03600054166040519283809263d1f956b160e01b82525afa90811561022e576101ed9161041591600091610425575b506040516103dd81610297565b601381527f67657464656c656761746f72436f756e74282900000000000000000000000000602082015261040f61092a565b91610fdf565b6040519081529081906020820190565b61043d915060203d81116102275761021881836102d4565b386103d0565b346100f4576020806003193601126100f457600490813590610464826100f9565b8061047a6101416000546001600160a01b031690565b60405194858092634bf9c0ad60e11b82525afa91821561022e576101a16101db936104d6926101ed966000926104f1575b506104ce906040519384918783019190916001600160a01b036020820193169052565b6101b7610cf5565b9190806104e7575b6101ce90610d2e565b50815181146104de565b6104ce91925061050d90863d88116102275761021881836102d4565b91906104ab565b346100f45760203660031901126100f45760046001600160a01b0360208160005416604051938480927f14d8d0240000000000000000000000000000000000000000000000000000000082525afa91821561022e576000926105c9575b503391160361058557610016600435610e36565b606460405162461bcd60e51b815260206004820152600f60248201527f6f776e2e6e6f6e617574682e44414f00000000000000000000000000000000006044820152fd5b6105e291925060203d81116102275761021881836102d4565b9038610571565b346100f45760203660031901126100f457600435610606816100f9565b803b6000610613826102f6565b9261062160405194856102d4565b82845260208401903c602d81511061064757602a015160405160609190911c8152602090f35b606460405162461bcd60e51b815260206004820152601360248201527f4e6f742061206d696e696d616c2070726f7879000000000000000000000000006044820152fd5b346100f4576020806003193601126100f457600480356106aa816100f9565b6001600160a01b03928084600054166040519485809263d1f956b160e01b82525afa90811561022e576101ed946101db94600093610706575b5060405193168184015282526106f882610297565b610700610dfd565b90610fa3565b61071e919350823d84116102275761021881836102d4565b91386106e3565b346100f45760003660031901126100f4576001600160a01b03600054166040518091634bf9c0ad60e11b825281600460209384935afa90811561022e5761078c6101db926101ed946000916107a7575b5061077e610c59565b61078661092a565b91610f2a565b91908061079d575b6101ce90610c92565b5081518114610794565b6107be9150833d85116102275761021881836102d4565b38610775565b346100f45760003660031901126100f457600460206001600160a01b0360005416604051928380927f447aa3040000000000000000000000000000000000000000000000000000000082525afa90811561022e576101ed9161041591600091610867575b5060405161083581610297565b600581527f6167652829000000000000000000000000000000000000000000000000000000602082015261040f61092a565b61087f915060203d81116102275761021881836102d4565b38610828565b805161088e5750565b61089790610a5e565b565b8051601410156108a95760340190565b634e487b7160e01b600052603260045260246000fd5b8051601510156108a95760350190565b8051601610156108a95760360190565b8051601710156108a95760370190565b9081518110156108a9570160200190565b634e487b7160e01b600052601160045260246000fd5b60171981019190821161092557565b610900565b60405190610937826102b8565b60008252565b90610947826102f6565b61095460405191826102d4565b8281528092610965601f19916102f6565b0190602036910137565b60001981146109255760010190565b906018820180921161092557565b907fffffffff0000000000000000000000000000000000000000000000000000000016815281519160005b8381106109cd5750509060049101016000815290565b80602080928401015160048286010152016109b7565b3d15610a0e573d906109f4826102f6565b91610a0260405193846102d4565b82523d6000602084013e565b606090565b15610a1a57565b606460405162461bcd60e51b815260206004820152600f60248201527f63616c6c6261636b206661696c656400000000000000000000000000000000006044820152fd5b90815115610c3157602082015160601c91610af1610acc610aa7610a8184610899565b517fff000000000000000000000000000000000000000000000000000000000000001690565b7fff000000000000000000000000000000000000000000000000000000000000001690565b7fffffffff000000000000000000000000000000000000000000000000000000001690565b610b2a610b03610aa7610a81856108bf565b60081c7effffff000000000000000000000000000000000000000000000000000000001690565b17610b63610b3d610aa7610a81856108cf565b60101c7dffff000000000000000000000000000000000000000000000000000000001690565b17610b9b610b76610aa7610a81856108df565b60181c7cff000000000000000000000000000000000000000000000000000000001690565b1791610baf610baa8351610916565b61093d565b9360005b8551811015610bed5780610bd5610a81610bcf610be89461097e565b876108ef565b60001a610be282896108ef565b5361096f565b610bb3565b50600092506108979383610c11610c1f82959860405192839160208301968761098c565b03601f1981018352826102d4565b51925af1610c2b6109e3565b50610a13565b9050565b908160209103126100f45751610c4a816100f9565b90565b6040513d6000823e3d90fd5b60405190610c6682610297565b600882527f69735361666528290000000000000000000000000000000000000000000000006020830152565b15610c9957565b606460405162461bcd60e51b815260206004820152601960248201527f6f776e2e7361666567756172642e63616c6c2e6661696c6564000000000000006044820152fd5b908160209103126100f4575180151581036100f45790565b60405190610d0282610297565b601582527f69735365637572654261736528616464726573732900000000000000000000006020830152565b15610d3557565b606460405162461bcd60e51b815260206004820152601a60248201527f6f776e2e736563757265626173652e63616c6c2e6661696c65640000000000006044820152fd5b60405190610d8682610297565b601182527f69735369676e65722861646472657373290000000000000000000000000000006020830152565b15610db957565b606460405162461bcd60e51b815260206004820152601660248201527f6f776e2e7369676e65722e63616c6c2e6661696c6564000000000000000000006044820152fd5b60405190610e0a82610297565b601882527f697364656c656761746f724e6f646528616464726573732900000000000000006020830152565b6000600460206001600160a01b03835416604051928380927f46f991ac0000000000000000000000000000000000000000000000000000000082525afa90811561022e578284819382938391610f0c575b505af1610e926109e3565b5015610ec85760405190815233907fcdcc745fe377b103b45fa0cec23ae3ef93d6fc6a84a01f0d18c40b354dd1d5d890602090a2565b606460405162461bcd60e51b815260206004820152600f60248201527f6f776e2e6275726e2e6661696c656400000000000000000000000000000000006044820152fd5b610f24915060203d81116102275761021881836102d4565b38610e87565b803b15610f8a57600092610c11610f777fffffffff00000000000000000000000000000000000000000000000000000000856020889751910120169260405192839160208301958661098c565b5191620dbba0fa610f866109e3565b9091565b505050600090604051610f9c816102b8565b6000815290565b9291610fb191600094610f2a565b9080610fd4575b610fbf5750565b610c4a91925060208082518301019101610cdd565b506020815114610fb8565b9291610fed91600094610f2a565b9080611012575b610ffb5750565b9091506020818051810103126100f4576020015190565b506020815114610ff456fea2646970667358221220402069d642384690c01afb1891f372cec1343da8b65254c3e5260b5f9b437eff64736f6c63430008140033","linkReferences":{}},"methodIdentifiers":{"Burn(uint256)":"b90306ad","_delegatorCount()":"a1f7f539","_getImplementation(address)":"c54e44b0","_isDelegatorNode(address)":"e01ad5fd","_isSafe()":"e0a9bc2b","_isSecureBase(address)":"af484526","_isSigner(address)":"1f185d16","getBalance()":"12065fe0","getHexbase()":"3b9b7955","onCallback(bytes)":"9e6c4bd1","owner()":"8da5cb5b","systemAge()":"fdc10bc9"},"id":54}