{"abi":[{"type":"constructor","inputs":[{"name":"_contractName","type":"string","internalType":"string"},{"name":"_uri","type":"string","internalType":"string"},{"name":"_supply","type":"uint256","internalType":"uint256"},{"name":"_names","type":"string[]","internalType":"string[]"}],"stateMutability":"nonpayable"},{"type":"fallback","stateMutability":"payable"},{"type":"receive","stateMutability":"payable"},{"type":"function","name":"Burn","inputs":[{"name":"amount","type":"uint256","internalType":"uint256"}],"outputs":[],"stateMutability":"payable"},{"type":"function","name":"Init","inputs":[{"name":"account","type":"address","internalType":"address"},{"name":"_id","type":"uint256","internalType":"uint256"},{"name":"qty","type":"uint256","internalType":"uint256"},{"name":"amt","type":"uint256","internalType":"uint256"},{"name":"_ag","type":"uint256","internalType":"uint256"}],"outputs":[{"name":"","type":"address","internalType":"address"}],"stateMutability":"payable"},{"type":"function","name":"PostInit","inputs":[{"name":"_h","type":"address","internalType":"address"},{"name":"_contractName","type":"string","internalType":"string"},{"name":"_uri","type":"string","internalType":"string"},{"name":"_name","type":"string","internalType":"string"},{"name":"_nid","type":"uint256","internalType":"uint256"},{"name":"account","type":"address","internalType":"address"},{"name":"qty","type":"uint256","internalType":"uint256"},{"name":"amt","type":"uint256","internalType":"uint256"},{"name":"_ag","type":"uint256","internalType":"uint256"}],"outputs":[],"stateMutability":"nonpayable"},{"type":"function","name":"_getUnlockedNFT","inputs":[],"outputs":[{"name":"_NFT","type":"uint256","internalType":"uint256"}],"stateMutability":"view"},{"type":"function","name":"_setOwner","inputs":[{"name":"own","type":"address","internalType":"address"},{"name":"isApproved","type":"bool","internalType":"bool"}],"outputs":[],"stateMutability":"nonpayable"},{"type":"function","name":"_setReq","inputs":[{"name":"own","type":"address","internalType":"address"}],"outputs":[],"stateMutability":"nonpayable"},{"type":"function","name":"addToken","inputs":[{"name":"_names","type":"string[]","internalType":"string[]"}],"outputs":[],"stateMutability":"nonpayable"},{"type":"function","name":"balanceOf","inputs":[{"name":"account","type":"address","internalType":"address"},{"name":"id","type":"uint256","internalType":"uint256"}],"outputs":[{"name":"","type":"uint256","internalType":"uint256"}],"stateMutability":"view"},{"type":"function","name":"balanceOfBatch","inputs":[{"name":"accounts","type":"address[]","internalType":"address[]"},{"name":"ids","type":"uint256[]","internalType":"uint256[]"}],"outputs":[{"name":"","type":"uint256[]","internalType":"uint256[]"}],"stateMutability":"view"},{"type":"function","name":"baseMetadataURI","inputs":[],"outputs":[{"name":"","type":"string","internalType":"string"}],"stateMutability":"view"},{"type":"function","name":"burn","inputs":[{"name":"from","type":"address","internalType":"address"},{"name":"id","type":"uint256","internalType":"uint256"},{"name":"amount","type":"uint256","internalType":"uint256"}],"outputs":[],"stateMutability":"nonpayable"},{"type":"function","name":"claimed","inputs":[],"outputs":[{"name":"","type":"uint256","internalType":"uint256"}],"stateMutability":"view"},{"type":"function","name":"cloned","inputs":[{"name":"","type":"uint256","internalType":"uint256"},{"name":"","type":"uint256","internalType":"uint256"}],"outputs":[{"name":"","type":"address","internalType":"address"}],"stateMutability":"view"},{"type":"function","name":"curSupply","inputs":[],"outputs":[{"name":"","type":"uint256","internalType":"uint256"}],"stateMutability":"view"},{"type":"function","name":"getBalance","inputs":[],"outputs":[{"name":"","type":"uint256","internalType":"uint256"}],"stateMutability":"view"},{"type":"function","name":"getCloneCountByToken","inputs":[{"name":"_id","type":"uint256","internalType":"uint256"}],"outputs":[{"name":"","type":"uint256","internalType":"uint256"}],"stateMutability":"view"},{"type":"function","name":"getNames","inputs":[{"name":"inx","type":"uint256","internalType":"uint256"}],"outputs":[{"name":"","type":"string","internalType":"string"}],"stateMutability":"view"},{"type":"function","name":"getTokenCount","inputs":[],"outputs":[{"name":"","type":"uint256","internalType":"uint256"}],"stateMutability":"view"},{"type":"function","name":"idToName","inputs":[{"name":"","type":"uint256","internalType":"uint256"}],"outputs":[{"name":"","type":"string","internalType":"string"}],"stateMutability":"view"},{"type":"function","name":"ids","inputs":[{"name":"","type":"uint256","internalType":"uint256"}],"outputs":[{"name":"","type":"uint256","internalType":"uint256"}],"stateMutability":"view"},{"type":"function","name":"isApprovedForAll","inputs":[{"name":"account","type":"address","internalType":"address"},{"name":"operator","type":"address","internalType":"address"}],"outputs":[{"name":"","type":"bool","internalType":"bool"}],"stateMutability":"view"},{"type":"function","name":"isOwnerOrSafeOwner","inputs":[{"name":"sender","type":"address","internalType":"address"}],"outputs":[{"name":"","type":"bool","internalType":"bool"}],"stateMutability":"view"},{"type":"function","name":"isclone","inputs":[{"name":"","type":"address","internalType":"address"}],"outputs":[{"name":"","type":"bool","internalType":"bool"}],"stateMutability":"view"},{"type":"function","name":"mintAmt","inputs":[],"outputs":[{"name":"","type":"uint256","internalType":"uint256"}],"stateMutability":"view"},{"type":"function","name":"mintedAge","inputs":[],"outputs":[{"name":"","type":"uint256","internalType":"uint256"}],"stateMutability":"view"},{"type":"function","name":"mintedUser","inputs":[],"outputs":[{"name":"","type":"address","internalType":"address"}],"stateMutability":"view"},{"type":"function","name":"mintedqty","inputs":[],"outputs":[{"name":"","type":"uint256","internalType":"uint256"}],"stateMutability":"view"},{"type":"function","name":"name","inputs":[],"outputs":[{"name":"","type":"string","internalType":"string"}],"stateMutability":"view"},{"type":"function","name":"nameToId","inputs":[{"name":"","type":"string","internalType":"string"}],"outputs":[{"name":"","type":"uint256","internalType":"uint256"}],"stateMutability":"view"},{"type":"function","name":"names","inputs":[{"name":"","type":"uint256","internalType":"uint256"}],"outputs":[{"name":"","type":"string","internalType":"string"}],"stateMutability":"view"},{"type":"function","name":"own_reinit","inputs":[{"name":"_h","type":"address","internalType":"address"}],"outputs":[],"stateMutability":"nonpayable"},{"type":"function","name":"owner","inputs":[],"outputs":[{"name":"","type":"address","internalType":"address"}],"stateMutability":"view"},{"type":"function","name":"req","inputs":[],"outputs":[{"name":"newowner","type":"address","internalType":"address"},{"name":"isReq","type":"bool","internalType":"bool"},{"name":"isVer1","type":"bool","internalType":"bool"},{"name":"isVer2","type":"bool","internalType":"bool"},{"name":"isVer3","type":"bool","internalType":"bool"}],"stateMutability":"view"},{"type":"function","name":"safeBatchTransferFrom","inputs":[{"name":"from","type":"address","internalType":"address"},{"name":"to","type":"address","internalType":"address"},{"name":"ids","type":"uint256[]","internalType":"uint256[]"},{"name":"values","type":"uint256[]","internalType":"uint256[]"},{"name":"data","type":"bytes","internalType":"bytes"}],"outputs":[],"stateMutability":"nonpayable"},{"type":"function","name":"safeTransferFrom","inputs":[{"name":"from","type":"address","internalType":"address"},{"name":"to","type":"address","internalType":"address"},{"name":"id","type":"uint256","internalType":"uint256"},{"name":"value","type":"uint256","internalType":"uint256"},{"name":"data","type":"bytes","internalType":"bytes"}],"outputs":[],"stateMutability":"nonpayable"},{"type":"function","name":"setApprovalForAll","inputs":[{"name":"operator","type":"address","internalType":"address"},{"name":"approved","type":"bool","internalType":"bool"}],"outputs":[],"stateMutability":"nonpayable"},{"type":"function","name":"setFeeAmt","inputs":[{"name":"_fee","type":"uint256","internalType":"uint256"}],"outputs":[],"stateMutability":"nonpayable"},{"type":"function","name":"setURI","inputs":[{"name":"newuri","type":"string","internalType":"string"}],"outputs":[],"stateMutability":"nonpayable"},{"type":"function","name":"setsupply","inputs":[{"name":"_s","type":"uint256","internalType":"uint256"}],"outputs":[],"stateMutability":"nonpayable"},{"type":"function","name":"supportsInterface","inputs":[{"name":"interfaceId","type":"bytes4","internalType":"bytes4"}],"outputs":[{"name":"","type":"bool","internalType":"bool"}],"stateMutability":"view"},{"type":"function","name":"totSupply","inputs":[],"outputs":[{"name":"","type":"uint256","internalType":"uint256"}],"stateMutability":"view"},{"type":"function","name":"uri","inputs":[{"name":"_tokenid","type":"uint256","internalType":"uint256"}],"outputs":[{"name":"","type":"string","internalType":"string"}],"stateMutability":"view"},{"type":"function","name":"withdraw","inputs":[{"name":"to","type":"address","internalType":"address"},{"name":"amount","type":"uint256","internalType":"uint256"}],"outputs":[],"stateMutability":"payable"},{"type":"event","name":"ApprovalForAll","inputs":[{"name":"account","type":"address","indexed":true,"internalType":"address"},{"name":"operator","type":"address","indexed":true,"internalType":"address"},{"name":"approved","type":"bool","indexed":false,"internalType":"bool"}],"anonymous":false},{"type":"event","name":"TransferBatch","inputs":[{"name":"operator","type":"address","indexed":true,"internalType":"address"},{"name":"from","type":"address","indexed":true,"internalType":"address"},{"name":"to","type":"address","indexed":true,"internalType":"address"},{"name":"ids","type":"uint256[]","indexed":false,"internalType":"uint256[]"},{"name":"values","type":"uint256[]","indexed":false,"internalType":"uint256[]"}],"anonymous":false},{"type":"event","name":"TransferSingle","inputs":[{"name":"operator","type":"address","indexed":true,"internalType":"address"},{"name":"from","type":"address","indexed":true,"internalType":"address"},{"name":"to","type":"address","indexed":true,"internalType":"address"},{"name":"id","type":"uint256","indexed":false,"internalType":"uint256"},{"name":"value","type":"uint256","indexed":false,"internalType":"uint256"}],"anonymous":false},{"type":"event","name":"URI","inputs":[{"name":"value","type":"string","indexed":false,"internalType":"string"},{"name":"id","type":"uint256","indexed":true,"internalType":"uint256"}],"anonymous":false},{"type":"error","name":"ERC1155InsufficientBalance","inputs":[{"name":"sender","type":"address","internalType":"address"},{"name":"balance","type":"uint256","internalType":"uint256"},{"name":"needed","type":"uint256","internalType":"uint256"},{"name":"tokenId","type":"uint256","internalType":"uint256"}]},{"type":"error","name":"ERC1155InvalidApprover","inputs":[{"name":"approver","type":"address","internalType":"address"}]},{"type":"error","name":"ERC1155InvalidArrayLength","inputs":[{"name":"idsLength","type":"uint256","internalType":"uint256"},{"name":"valuesLength","type":"uint256","internalType":"uint256"}]},{"type":"error","name":"ERC1155InvalidOperator","inputs":[{"name":"operator","type":"address","internalType":"address"}]},{"type":"error","name":"ERC1155InvalidReceiver","inputs":[{"name":"receiver","type":"address","internalType":"address"}]},{"type":"error","name":"ERC1155InvalidSender","inputs":[{"name":"sender","type":"address","internalType":"address"}]},{"type":"error","name":"ERC1155MissingApprovalForAll","inputs":[{"name":"operator","type":"address","internalType":"address"},{"name":"owner","type":"address","internalType":"address"}]}],"bytecode":{"object":"0x6080604052346200003b576200002262000018620002f2565b929190916200098e565b6200002c62000041565b6169b562000b7d82396169b590f35b62000047565b60405190565b5f80fd5b601f801991011690565b634e487b7160e01b5f52604160045260245ffd5b9062000075906200004b565b810190811060018060401b038211176200008e57604052565b62000055565b90620000ab620000a362000041565b928362000069565b565b5f80fd5b5f80fd5b5f80fd5b5f80fd5b60018060401b038111620000dc57620000d86020916200004b565b0190565b62000055565b5f5b838110620000f5575050905f910152565b806020918301518185015201620000e4565b90929192620001206200011a82620000bd565b62000094565b938185526020850190828401116200013f576200013d92620000e2565b565b620000b9565b9080601f830112156200016657816020620001639351910162000107565b90565b620000b5565b90565b6200017a816200016c565b036200018257565b5f80fd5b9050519062000195826200016f565b565b60018060401b038111620001ae5760208091020190565b62000055565b5f80fd5b929190620001d0620001ca8262000197565b62000094565b93818552602080860192028101918383116200022c5781905b838210620001f8575050505050565b815160018060401b03811162000226576020916200021a878493870162000145565b815201910190620001e9565b620000b5565b620001b4565b9080601f8301121562000253578160206200025093519101620001b8565b90565b620000b5565b90608082820312620002ec575f82015160018060401b038111620002e657816200028591840162000145565b92602083015160018060401b038111620002e05782620002a791850162000145565b92620002b7836040830162000186565b92606082015160018060401b038111620002da57620002d7920162000232565b90565b620000b1565b620000b1565b620000b1565b620000ad565b620003156200753280380380620003098162000094565b92833981019062000259565b90919293565b5f1b90565b906200032e5f19916200031b565b9181191691161790565b90565b90565b62000357620003516200035d9262000338565b6200033b565b6200016c565b90565b90565b906200037d6200037762000385926200033e565b62000360565b825462000320565b9055565b634e487b7160e01b5f525f60045260245ffd5b5190565b634e487b7160e01b5f52602260045260245ffd5b9060016002830492168015620003d7575b6020831014620003d157565b620003a0565b91607f1691620003c5565b5f5260205f2090565b601f602091010490565b1b90565b9190600862000418910291620004115f1984620003f5565b92620003f5565b9181191691161790565b6200043b6200043562000441926200016c565b6200033b565b6200016c565b90565b91906200045f62000459620004689362000422565b62000360565b908354620003f9565b9055565b5f90565b62000486916200047f6200046c565b9162000444565b565b5b81811062000495575050565b80620004a45f60019362000470565b0162000489565b9190601f8111620004bc575b505050565b620004cb620004f693620003e2565b906020620004d984620003eb565b83019310620004ff575b620004ee90620003eb565b019062000488565b5f8080620004b7565b9150620004ee81929050620004e3565b1c90565b9062000525905f19906008026200050f565b191690565b81620005369162000513565b906002021790565b906200054a816200039c565b9060018060401b0382116200061b5762000571826200056a8554620003b4565b85620004ab565b602090601f8311600114620005aa5791809162000598935f926200059d575b50506200052a565b90555b565b90915001515f8062000590565b601f19831691620005bb85620003e2565b925f5b8181106200060257509160029391856001969410620005e5575b505050020190556200059b565b620005f7910151601f84169062000513565b90555f8080620005d8565b91936020600181928787015181550195019201620005be565b62000055565b906200062d916200053e565b565b906200064962000643620006519262000422565b62000360565b825462000320565b9055565b60016200066391016200016c565b90565b5190565b634e487b7160e01b5f52603260045260245ffd5b906200068a8262000666565b8110156200069c576020809102010190565b6200066a565b905090565b620006d2620006c892602092620006be816200039c565b94858093620006a2565b93849101620000e2565b0190565b90565b620006e8620006ee916200016c565b620006d6565b9052565b620007056200070d9160209493620006a7565b8092620006d9565b0190565b620007296200071f62000041565b92839283620006f2565b03902090565b6200073a9162000711565b90565b5f1c90565b90565b620007546200075a916200073d565b62000742565b90565b62000769905462000745565b90565b60209181520190565b5f7f6f72632e746f6b656e2e6661696c656400000000000000000000000000000000910152565b620007ab60106020926200076c565b620007b68162000775565b0190565b620007d19060208101905f8183039101526200079c565b90565b15620007dc57565b620007e662000041565b62461bcd60e51b815280620007fe60048201620007ba565b0390fd5b90565b5490565b90565b620008256200081f6200082b9262000809565b6200033b565b6200016c565b90565b634e487b7160e01b5f52601160045260245ffd5b620008546200085b919392936200016c565b926200016c565b82018092116200086757565b6200082e565b5f5260205f2090565b5490565b620008858162000876565b821015620008a2576200089a6001916200086d565b910201905f90565b6200066a565b9081549168010000000000000000831015620008dd5782620008d4916001620008db950181556200087a565b9062000444565b565b62000055565b90620008ef9062000422565b5f5260205260405f2090565b90565b5f5260205f2090565b5490565b620009168162000907565b82101562000933576200092b600191620008fe565b910201905f90565b6200066a565b91906200094d576200094b916200053e565b565b62000389565b90815491680100000000000000008310156200098857826200097f91600162000986950181556200090b565b9062000939565b565b62000055565b620009fa90620009f262000a029493969596620009ab8162000b53565b620009b85f601c62000363565b620009c55f601d62000363565b620009d25f601e62000363565b620009df5f601f62000363565b620009ea8162000b6d565b601362000621565b601462000621565b601e6200062f565b62000a0d5f6200033e565b5b8062000a2f62000a2862000a228662000666565b6200016c565b916200016c565b101562000b4e5762000b489062000a8162000a6462000a5e601562000a568886906200067e565b51906200072f565b6200075d565b62000a7a62000a735f6200033e565b916200016c565b14620007d4565b62000abb62000a91601262000802565b62000ab462000aa1601262000805565b62000aad60016200080c565b9062000842565b90620008a8565b62000aec62000acb601262000805565b62000ae6601562000ade8886906200067e565b51906200072f565b6200062f565b62000b1d62000afd8583906200067e565b5162000b17601662000b10601262000805565b90620008e3565b62000621565b62000b4262000b2d6011620008fb565b62000b3a8684906200067e565b519062000953565b62000655565b62000a0e565b509050565b62000b5e9062000b60565b565b62000b6b9062000b6d565b565b62000b7a90600262000621565b56fe60806040526004361015610018575b361561001657005b005b6100225f356102d0565b8062fdd58e146102cb57806301ffc9a7146102c657806302fe5305146102c157806306fdde03146102bc5780630d43aaf2146102b75780630e89341c146102b257806312065fe0146102ad5780631f5ae5f3146102a85780632eb2c2d6146102a3578063364410b31461029e578063379a423c1461029957806341ffe7c4146102945780634622ab031461028f5780634e1273f41461028a5780635718e17b1461028557806357e0e465146102805780635b2bd79e1461027b5780635fac2d9d1461027657806360af454d146102715780636589c2521461026c5780636c51797b146102675780636db49b131461026257806378a895671461025d57806381fbf0a5146102585780638da5cb5b1461025357806392b31d871461024e578063a22cb46514610249578063abb8c96514610244578063abbbf8d71461023f578063b90306ad1461023a578063d366062314610235578063d878fe1014610230578063d92f24ae1461022b578063e834a83414610226578063e985e9c514610221578063f242432a1461021c578063f3fef3a314610217578063f5298aca14610212578063f6d8f2cb1461020d578063f9ffedb714610208578063fac333ac14610203578063fcf56368146101fe5763fcfa53e10361000e57611ba1565b611b16565b611ad2565b611a3c565b6119f8565b611924565b6118c0565b611889565b6117e4565b611782565b61173e565b6116fc565b6116c7565b61169e565b61166b565b611552565b61151e565b611498565b611390565b611346565b611302565b6112c5565b6111b8565b611176565b611143565b61110e565b6110a1565b61105d565b610f9b565b610f65565b610d9d565b610cf5565b610cc0565b610c6d565b610be8565b6109fd565b6109c8565b610993565b61093c565b61079b565b61059b565b610441565b610397565b60e01c90565b60405190565b5f80fd5b5f80fd5b5f80fd5b60018060a01b031690565b6102fc906102e8565b90565b610308816102f3565b0361030f57565b5f80fd5b90503590610320826102ff565b565b90565b61032e81610322565b0361033557565b5f80fd5b9050359061034682610325565b565b9190604083820312610370578061036461036d925f8601610313565b93602001610339565b90565b6102e0565b61037e90610322565b9052565b9190610395905f60208501940190610375565b565b346103c8576103c46103b36103ad366004610348565b90611c21565b6103bb6102d6565b91829182610382565b0390f35b6102dc565b63ffffffff60e01b1690565b6103e2816103cd565b036103e957565b5f80fd5b905035906103fa826103d9565b565b9060208282031261041557610412915f016103ed565b90565b6102e0565b151590565b6104289061041a565b9052565b919061043f905f6020850194019061041f565b565b346104715761046d61045c6104573660046103fc565b611c4c565b6104646102d6565b9182918261042c565b0390f35b6102dc565b5f80fd5b5f80fd5b601f801991011690565b634e487b7160e01b5f52604160045260245ffd5b906104a69061047e565b810190811067ffffffffffffffff8211176104c057604052565b610488565b906104d86104d16102d6565b928361049c565b565b67ffffffffffffffff81116104f8576104f460209161047e565b0190565b610488565b90825f939282370152565b9092919261051d610518826104da565b6104c5565b9381855260208501908284011161053957610537926104fd565b565b61047a565b9080601f8301121561055c5781602061055993359101610508565b90565b610476565b90602082820312610591575f82013567ffffffffffffffff811161058c57610589920161053e565b90565b6102e4565b6102e0565b5f0190565b346105c9576105b36105ae366004610561565b611f3f565b6105bb6102d6565b806105c581610596565b0390f35b6102dc565b5f9103126105d857565b6102e0565b634e487b7160e01b5f525f60045260245ffd5b634e487b7160e01b5f52602260045260245ffd5b9060016002830492168015610624575b602083101461061f57565b6105f0565b91607f1691610614565b60209181520190565b5f5260205f2090565b905f929180549061065a61065383610604565b809461062e565b916001811690815f146106b15750600114610675575b505050565b6106829192939450610637565b915f925b81841061069957505001905f8080610670565b60018160209295939554848601520191019290610686565b92949550505060ff19168252151560200201905f8080610670565b906106d691610640565b90565b906106f96106f2926106e96102d6565b938480926106cc565b038361049c565b565b905f1061070e5761070b906106d9565b90565b6105dd565b61071f60145f906106fb565b90565b5190565b60209181520190565b5f5b838110610741575050905f910152565b806020918301518185015201610731565b61077161077a60209361077f9361076881610722565b93848093610726565b9586910161072f565b61047e565b0190565b6107989160208201915f818403910152610752565b90565b346107cb576107ab3660046105ce565b6107c76107b6610713565b6107be6102d6565b91829182610783565b0390f35b6102dc565b5f1c90565b60018060a01b031690565b6107ec6107f1916107d0565b6107d5565b90565b6107fe90546107e0565b90565b60a01c90565b60ff1690565b61081961081e91610801565b610807565b90565b61082b905461080d565b90565b60a81c90565b6108406108459161082e565b610807565b90565b6108529054610834565b90565b60b01c90565b61086761086c91610855565b610807565b90565b610879905461085b565b90565b60b81c90565b61088e6108939161087c565b610807565b90565b6108a09054610882565b90565b60106108b05f82016107f4565b916108bc5f8301610821565b916108c85f8201610848565b916108df5f6108d881850161086f565b9301610896565b90565b6108eb906102f3565b9052565b9095949261093a946109296109339261091f60809661091560a088019c5f8901906108e2565b602087019061041f565b604085019061041f565b606083019061041f565b019061041f565b565b346109705761094c3660046105ce565b61096c6109576108a3565b916109639593956102d6565b958695866108ef565b0390f35b6102dc565b9060208282031261098e5761098b915f01610339565b90565b6102e0565b346109c3576109bf6109ae6109a9366004610975565b612037565b6109b66102d6565b91829182610783565b0390f35b6102dc565b346109f8576109d83660046105ce565b6109f46109e361208d565b6109eb6102d6565b91829182610382565b0390f35b6102dc565b34610a2d57610a29610a18610a13366004610975565b6120a3565b610a206102d6565b91829182610382565b0390f35b6102dc565b67ffffffffffffffff8111610a4a5760208091020190565b610488565b5f80fd5b90929192610a68610a6382610a32565b6104c5565b9381855260208086019202830192818411610aa557915b838310610a8c5750505050565b60208091610a9a8486610339565b815201920191610a7f565b610a4f565b9080601f83011215610ac857816020610ac593359101610a53565b90565b610476565b67ffffffffffffffff8111610aeb57610ae760209161047e565b0190565b610488565b90929192610b05610b0082610acd565b6104c5565b93818552602085019082840111610b2157610b1f926104fd565b565b61047a565b9080601f83011215610b4457816020610b4193359101610af0565b90565b610476565b91909160a081840312610be357610b62835f8301610313565b92610b708160208401610313565b92604083013567ffffffffffffffff8111610bde5782610b91918501610aaa565b92606081013567ffffffffffffffff8111610bd95783610bb2918301610aaa565b92608082013567ffffffffffffffff8111610bd457610bd19201610b26565b90565b6102e4565b6102e4565b6102e4565b6102e0565b34610c1a57610c04610bfb366004610b49565b939290926120e5565b610c0c6102d6565b80610c1681610596565b0390f35b6102dc565b90565b610c36610c31610c3b92610322565b610c1f565b610322565b90565b90610c4890610c22565b5f5260205260405f2090565b610c6a90610c656016915f92610c3e565b6106fb565b90565b34610c9d57610c99610c88610c83366004610975565b610c54565b610c906102d6565b91829182610783565b0390f35b6102dc565b90602082820312610cbb57610cb8915f01610313565b90565b6102e0565b34610cf057610cec610cdb610cd6366004610ca2565b612165565b610ce36102d6565b9182918261042c565b0390f35b6102dc565b34610d2357610d0d610d08366004610ca2565b612849565b610d156102d6565b80610d1f81610596565b0390f35b6102dc565b634e487b7160e01b5f52603260045260245ffd5b5490565b5f5260205f2090565b610d5281610d3c565b821015610d6c57610d64600191610d40565b910201905f90565b610d28565b6011610d7c81610d3c565b821015610d9957610d9691610d9091610d49565b906106fb565b90565b5f80fd5b34610dcd57610dc9610db8610db3366004610975565b610d71565b610dc06102d6565b91829182610783565b0390f35b6102dc565b67ffffffffffffffff8111610dea5760208091020190565b610488565b90929192610e04610dff82610dd2565b6104c5565b9381855260208086019202830192818411610e4157915b838310610e285750505050565b60208091610e368486610313565b815201920191610e1b565b610a4f565b9080601f83011215610e6457816020610e6193359101610def565b90565b610476565b919091604081840312610ec1575f81013567ffffffffffffffff8111610ebc5783610e95918301610e46565b92602082013567ffffffffffffffff8111610eb757610eb49201610aaa565b90565b6102e4565b6102e4565b6102e0565b5190565b60209181520190565b60200190565b610ee290610322565b9052565b90610ef381602093610ed9565b0190565b60200190565b90610f1a610f14610f0d84610ec6565b8093610eca565b92610ed3565b905f5b818110610f2a5750505090565b909192610f43610f3d6001928651610ee6565b94610ef7565b9101919091610f1d565b610f629160208201915f818403910152610efd565b90565b34610f9657610f92610f81610f7b366004610e69565b9061291f565b610f896102d6565b91829182610f4d565b0390f35b6102dc565b34610fcb57610fc7610fb6610fb1366004610975565b612a1a565b610fbe6102d6565b91829182610783565b0390f35b6102dc565b610fe4610fdf610fe9926102e8565b610c1f565b6102e8565b90565b610ff590610fd0565b90565b61100190610fec565b90565b9061100e90610ff8565b5f5260205260405f2090565b1c90565b61102e906008611033930261101a565b610807565b90565b90611041915461101e565b90565b61105a906110556017915f92611004565b611036565b90565b3461108d57611089611078611073366004610ca2565b611044565b6110806102d6565b9182918261042c565b0390f35b6102dc565b61109e60135f906106fb565b90565b346110d1576110b13660046105ce565b6110cd6110bc611092565b6110c46102d6565b91829182610783565b0390f35b6102dc565b90565b6110e99060086110ee930261101a565b6110d6565b90565b906110fc91546110d9565b90565b61110b601f5f906110f1565b90565b3461113e5761111e3660046105ce565b61113a6111296110ff565b6111316102d6565b91829182610382565b0390f35b6102dc565b346111715761115b611156366004610ca2565b612b7b565b6111636102d6565b8061116d81610596565b0390f35b6102dc565b346111a45761118e611189366004610975565b612ceb565b6111966102d6565b806111a081610596565b0390f35b6102dc565b6111b5601a5f906110f1565b90565b346111e8576111c83660046105ce565b6111e46111d36111a9565b6111db6102d6565b91829182610382565b0390f35b6102dc565b9091610120828403126112c057611206835f8401610313565b92602083013567ffffffffffffffff81116112bb578161122791850161053e565b92604081013567ffffffffffffffff81116112b6578261124891830161053e565b92606082013567ffffffffffffffff81116112b1578361126991840161053e565b926112778160808501610339565b926112858260a08301610313565b926112ae6112968460c08501610339565b936112a48160e08601610339565b9361010001610339565b90565b6102e4565b6102e4565b6102e4565b6102e0565b346112fd576112e76112d83660046111ed565b97969096959195949294613077565b6112ef6102d6565b806112f981610596565b0390f35b6102dc565b34611332576113123660046105ce565b61132e61131d613179565b6113256102d6565b91829182610382565b0390f35b6102dc565b611343601e5f906110f1565b90565b34611376576113563660046105ce565b611372611361611337565b6113696102d6565b91829182610382565b0390f35b6102dc565b919061138e905f602085019401906108e2565b565b346113c0576113a03660046105ce565b6113bc6113ab613193565b6113b36102d6565b9182918261137b565b0390f35b6102dc565b91906040838203126113ed57806113e16113ea925f8601610339565b93602001610339565b90565b6102e0565b906113fc90610c22565b5f5260205260405f2090565b5490565b5f5260205f2090565b61141e81611408565b8210156114385761143060019161140c565b910201905f90565b610d28565b61144d906008611452930261101a565b6107d5565b90565b90611460915461143d565b90565b61146e9060186113f2565b61147781611408565b821015611494576114919161148b91611415565b90611455565b90565b5f80fd5b346114c9576114c56114b46114ae3660046113c5565b90611463565b6114bc6102d6565b9182918261137b565b0390f35b6102dc565b6114d78161041a565b036114de57565b5f80fd5b905035906114ef826114ce565b565b9190604083820312611519578061150d611516925f8601610313565b936020016114e2565b90565b6102e0565b3461154d576115376115313660046114f1565b906131a9565b61153f6102d6565b8061154981610596565b0390f35b6102dc565b346115815761156b6115653660046114f1565b9061363a565b6115736102d6565b8061157d81610596565b0390f35b6102dc565b67ffffffffffffffff811161159e5760208091020190565b610488565b9291906115b76115b282611586565b6104c5565b938185526020808601920281019183831161160e5781905b8382106115dd575050505050565b813567ffffffffffffffff8111611609576020916115fe878493870161053e565b8152019101906115cf565b610476565b610a4f565b9080601f830112156116315781602061162e933591016115a3565b90565b610476565b90602082820312611666575f82013567ffffffffffffffff81116116615761165e9201611613565b90565b6102e4565b6102e0565b346116995761168361167e366004611636565b61398a565b61168b6102d6565b8061169581610596565b0390f35b6102dc565b6116b16116ac366004610975565b613aa2565b6116b96102d6565b806116c381610596565b0390f35b346116f7576116d73660046105ce565b6116f36116e2613bed565b6116ea6102d6565b91829182610382565b0390f35b6102dc565b3461172a5761171461170f366004610975565b613fdc565b61171c6102d6565b8061172681610596565b0390f35b6102dc565b61173b601d5f906110f1565b90565b3461176e5761174e3660046105ce565b61176a61175961172f565b6117616102d6565b91829182610382565b0390f35b6102dc565b61177f601c5f906110f1565b90565b346117b2576117923660046105ce565b6117ae61179d611773565b6117a56102d6565b91829182610382565b0390f35b6102dc565b91906040838203126117df57806117d36117dc925f8601610313565b93602001610313565b90565b6102e0565b34611815576118116118006117fa3660046117b7565b9061401e565b6118086102d6565b9182918261042c565b0390f35b6102dc565b91909160a08184031261188457611833835f8301610313565b926118418160208401610313565b9261184f8260408501610339565b9261185d8360608301610339565b92608082013567ffffffffffffffff811161187f5761187c9201610b26565b90565b6102e4565b6102e0565b346118bb576118a561189c36600461181a565b93929092614046565b6118ad6102d6565b806118b781610596565b0390f35b6102dc565b6118d46118ce366004610348565b90614155565b6118dc6102d6565b806118e681610596565b0390f35b909160608284031261191f5761191c611905845f8501610313565b936119138160208601610339565b93604001610339565b90565b6102e0565b346119535761193d6119373660046118ea565b91614237565b6119456102d6565b8061194f81610596565b0390f35b6102dc565b905090565b6119826119799260209261197081610722565b94858093611958565b9384910161072f565b0190565b90565b61199561199a91610322565b611986565b9052565b6119ae6119b5916020949361195d565b8092611989565b0190565b6119cd6119c46102d6565b9283928361199e565b03902090565b6119dc916119b9565b90565b6119f5906119f06015915f926119d3565b6110f1565b90565b34611a2857611a24611a13611a0e366004610561565b6119df565b611a1b6102d6565b91829182610382565b0390f35b6102dc565b611a39601b5f906110f1565b90565b34611a6c57611a4c3660046105ce565b611a68611a57611a2d565b611a5f6102d6565b91829182610382565b0390f35b6102dc565b5490565b5f5260205f2090565b611a8781611a71565b821015611aa157611a99600191611a75565b910201905f90565b610d28565b6012611ab181611a71565b821015611ace57611acb91611ac591611a7e565b906110f1565b90565b5f80fd5b34611b0257611afe611aed611ae8366004610975565b611aa6565b611af56102d6565b91829182610382565b0390f35b6102dc565b611b1360195f90611455565b90565b34611b4657611b263660046105ce565b611b42611b31611b07565b611b396102d6565b9182918261137b565b0390f35b6102dc565b919060a083820312611b9c57611b63815f8501610313565b92611b718260208301610339565b92611b99611b828460408501610339565b93611b908160608601610339565b93608001610339565b90565b6102e0565b611bcc611bbb611bb2366004611b4b565b93929092614931565b611bc36102d6565b9182918261137b565b0390f35b5f90565b90611bde90610c22565b5f5260205260405f2090565b90611bf490610ff8565b5f5260205260405f2090565b611c0c611c11916107d0565b6110d6565b90565b611c1e9054611c00565b90565b611c4090611c3b611c4593611c34611bd0565b505f611bd4565b611bea565b611c14565b90565b5f90565b611c54611c48565b5080611c6f611c69636cdb3d1360e11b6103cd565b916103cd565b148015611c93575b908115611c83575b5090565b611c8d9150614949565b5f611c7f565b5080611cae611ca86303a24d0760e21b6103cd565b916103cd565b14611c77565b60018060a01b031690565b611ccb611cd0916107d0565b611cb4565b90565b611cdd9054611cbf565b90565b611ce990610fec565b90565b5f80fd5b60e01b90565b90505190611d03826114ce565b565b90602082820312611d1e57611d1b915f01611cf6565b90565b6102e0565b611d2b6102d6565b3d5f823e3d90fd5b5f7f6f776e2e696e76616c69642e6973536166650000000000000000000000000000910152565b611d676012602092610726565b611d7081611d33565b0190565b611d899060208101905f818303910152611d5a565b90565b15611d9357565b611d9b6102d6565b62461bcd60e51b815280611db160048201611d74565b0390fd5b60018060a01b031690565b611dcc611dd1916107d0565b611db5565b90565b611dde9054611dc0565b90565b611dea90610fec565b90565b5f7f6f776e2e6e6f6e617574682e44414f0000000000000000000000000000000000910152565b611e21600f602092610726565b611e2a81611ded565b0190565b611e439060208101905f818303910152611e14565b90565b15611e4d57565b611e556102d6565b62461bcd60e51b815280611e6b60048201611e2e565b0390fd5b611e9d906020611e87611e826005611cd3565b611ce0565b636a276f9d90611e956102d6565b948592611cf0565b82528180611ead60048201610596565b03915afa918215611f2f57611eff92611ecd915f91611f01575b50611d8c565b611efa611ee2611edd6004611dd4565b611de1565b611ef4611eee336102f3565b916102f3565b14611e46565b611f34565b565b611f22915060203d8111611f28575b611f1a818361049c565b810190611d05565b5f611ec7565b503d611f10565b611d23565b611f3d9061496f565b565b611f4890611e6f565b565b606090565b905f9291805490611f69611f6283610604565b8094611958565b916001811690815f14611fbb5750600114611f84575b505050565b611f919192939450610637565b5f905b838210611fa757505001905f8080611f7f565b600181602092548486015201910190611f94565b92949550505060ff191682528015150201905f8080611f7f565b5f7f2e6a736f6e000000000000000000000000000000000000000000000000000000910152565b61200860058092611958565b61201181611fd5565b0190565b916120266120319361202c93611f4f565b9061195d565b611ffc565b90565b90565b61207e90612043611f4a565b50612079612052601392614a06565b9161206a61205e6102d6565b93849260208401612015565b6020820181038252038261049c565b612034565b90565b61208a90610fec565b90565b612095611bd0565b5061209f30612081565b3190565b6120ba6120bf916120b2611bd0565b5060186113f2565b611408565b90565b9160206120e39294936120dc60408201965f8301906108e2565b01906108e2565b565b9493919290926120f3614aaf565b86612106612100836102f3565b916102f3565b14158061214b575b612124575061212294959390919293614abc565b565b86906121476121316102d6565b92839263711bec9160e11b8452600484016120c2565b0390fd5b5061216061215a88839061401e565b1561041a565b61210e565b61216d611c48565b506121af60206121856121806005611cd3565b611ce0565b6319c06429906121a485926121986102d6565b95869485938493611cf0565b83526004830161137b565b03915afa908115612221575f916121f3575b509081156121ce575b5090565b90506121ec6121e66121e0600f6107f4565b926102f3565b916102f3565b145f6121ca565b612214915060203d811161221a575b61220c818361049c565b810190611d05565b5f6121c1565b503d612202565b611d23565b5f7f6f776d2e66616b652e2064656c65676174650000000000000000000000000000910152565b61225a6012602092610726565b61226381612226565b0190565b61227c9060208101905f81830391015261224d565b90565b1561228657565b61228e6102d6565b62461bcd60e51b8152806122a460048201612267565b0390fd5b6122d560206122bf6122ba6005611cd3565b611ce0565b636a276f9d906122cd6102d6565b938492611cf0565b825281806122e560048201610596565b03915afa801561240757612300915f916123d9575b50611d8c565b61231261230d6004611dd4565b611de1565b61232461231e336102f3565b916102f3565b14908115612340575b61233961233e9261227f565b61270a565b565b612383915060206123596123546005611cd3565b611ce0565b637df73e2790612378339261236c6102d6565b96879485938493611cf0565b83526004830161137b565b03915afa9182156123d45761233e92612339915f916123a6575b5092505061232d565b6123c7915060203d81116123cd575b6123bf818361049c565b810190611d05565b5f61239d565b503d6123b5565b611d23565b6123fa915060203d8111612400575b6123f2818361049c565b810190611d05565b5f6122fa565b503d6123e8565b611d23565b9050519061241982610325565b565b9060208282031261243457612431915f0161240c565b90565b6102e0565b61244360a06104c5565b90565b5f90565b5f90565b612456612439565b9060208080808086612466612446565b81520161247161244a565b81520161247c61244a565b81520161248761244a565b81520161249261244a565b81525050565b6124a061244e565b90565b906124ad9061041a565b9052565b90565b6124c86124c36124cd926124b1565b610c1f565b610322565b90565b90565b6124e76124e26124ec926124d0565b610c1f565b610322565b90565b90565b61250661250161250b926124ef565b610c1f565b610322565b90565b90612518906102f3565b9052565b61252690516102f3565b90565b5f1b90565b9061253f60018060a01b0391612529565b9181191691161790565b90565b9061256161255c61256892610ff8565b612549565b825461252e565b9055565b612576905161041a565b90565b60a01b90565b9061258e60ff60a01b91612579565b9181191691161790565b6125a19061041a565b90565b90565b906125bc6125b76125c392612598565b6125a4565b825461257f565b9055565b60a81b90565b906125dc60ff60a81b916125c7565b9181191691161790565b906125fb6125f661260292612598565b6125a4565b82546125cd565b9055565b60b01b90565b9061261b60ff60b01b91612606565b9181191691161790565b9061263a61263561264192612598565b6125a4565b825461260c565b9055565b60b81b90565b9061265a60ff60b81b91612645565b9181191691161790565b9061267961267461268092612598565b6125a4565b825461264b565b9055565b906126f660805f6126fc946126a68282016126a084880161251c565b9061254c565b6126be8282016126b86020880161256c565b906125a7565b6126d68282016126d06040880161256c565b906125e6565b6126ee8282016126e86060880161256c565b90612625565b01920161256c565b90612664565b565b9061270891612684565b565b61274c90602061272261271d6005611cd3565b611ce0565b631d84be449061274133926127356102d6565b96879485938493611cf0565b83526004830161137b565b03915afa918215612844576127db926127d4915f91612816575b5091612770612498565b9261277f6001602086016124a3565b8061279361278d60016124b4565b91610322565b14612803575b806127ad6127a760026124d3565b91610322565b146127f0575b6127c66127c060036124f2565b91610322565b146127dd575b5f830161250e565b60106126fe565b565b6127eb6001608085016124a3565b6127cc565b6127fe6001606086016124a3565b6127b3565b6128116001604086016124a3565b612799565b612837915060203d811161283d575b61282f818361049c565b81019061241b565b5f612766565b503d612825565b611d23565b612852906122a8565b565b606090565b5190565b91602061287e92949361287760408201965f830190610375565b0190610375565b565b9061289261288d83610a32565b6104c5565b918252565b369037565b906128c16128a983612880565b926020806128b78693610a32565b9201910390612897565b565b90565b6128da6128d56128df926128c3565b610c1f565b610322565b90565b60016128ee9101610322565b90565b906128fb82610ec6565b81101561290c576020809102010190565b610d28565b9061291b90610322565b9052565b90612928612854565b5061293282612859565b61294c61294661294184610ec6565b610322565b91610322565b036129d65761296261295d83612859565b61289c565b9161296c5f6128c6565b5b8061298861298261297d85612859565b610322565b91610322565b10156129d0576129cb906129c66129b46129a3858490614b6c565b6129ae878590614b82565b90611c21565b6129c187918490926128f1565b612911565b6128e2565b61296d565b50505090565b6129e26129e891610ec6565b91612859565b90612a0a6129f46102d6565b928392635b05999160e01b84526004840161285d565b0390fd5b612a17906106d9565b90565b612a31612a3791612a29611f4a565b506011610d49565b50612a0e565b90565b60018060a01b031690565b612a51612a56916107d0565b612a3a565b90565b612a639054612a45565b90565b612a6f90610fec565b90565b612a86612a81612a8b926128c3565b610c1f565b6102e8565b90565b612a9790612a72565b90565b5f7f6f776e2e686578626173652e6661696c65640000000000000000000000000000910152565b612ace6012602092610726565b612ad781612a9a565b0190565b612af09060208101905f818303910152612ac1565b90565b15612afa57565b612b026102d6565b62461bcd60e51b815280612b1860048201612adb565b0390fd5b612b2590610fd0565b90565b612b3190612b1c565b90565b612b3d90610fd0565b90565b612b4990612b34565b90565b612b5590612b34565b90565b90565b90612b70612b6b612b7792612b4c565b612b58565b825461252e565b9055565b612bcf612bca612bd692612bba612b9a612b956003612a59565b612a66565b612bb4612bae612ba95f612a8e565b6102f3565b916102f3565b14612af3565b612bc532600f61254c565b612b28565b612b40565b6003612b5b565b612bde614d10565b565b612c0e906020612bf8612bf36005611cd3565b611ce0565b636a276f9d90612c066102d6565b948592611cf0565b82528180612c1e60048201610596565b03915afa918215612ca057612c7092612c3e915f91612c72575b50611d8c565b612c6b612c53612c4e6004611dd4565b611de1565b612c65612c5f336102f3565b916102f3565b14611e46565b612cde565b565b612c93915060203d8111612c99575b612c8b818361049c565b810190611d05565b5f612c38565b503d612c81565b611d23565b90612cb15f1991612529565b9181191691161790565b90565b90612cd3612cce612cda92610c22565b612cbb565b8254612ca5565b9055565b612ce990601d612cbe565b565b612cf490612be0565b565b5f7f6f72632e616c72656164792e6d696e7465640000000000000000000000000000910152565b612d2a6012602092610726565b612d3381612cf6565b0190565b612d4c9060208101905f818303910152612d1d565b90565b15612d5657565b612d5e6102d6565b62461bcd60e51b815280612d7460048201612d37565b0390fd5b601f602091010490565b1b90565b91906008612da1910291612d9b5f1984612d82565b92612d82565b9181191691161790565b9190612dc1612dbc612dc993610c22565b612cbb565b908354612d86565b9055565b612ddf91612dd9611bd0565b91612dab565b565b5b818110612ded575050565b80612dfa5f600193612dcd565b01612de2565b9190601f8111612e10575b505050565b612e1c612e4193610637565b906020612e2884612d78565b83019310612e49575b612e3a90612d78565b0190612de1565b5f8080612e0b565b9150612e3a81929050612e31565b90612e67905f199060080261101a565b191690565b81612e7691612e57565b906002021790565b90612e8881610722565b9067ffffffffffffffff8211612f4857612eac82612ea68554610604565b85612e00565b602090601f8311600114612ee057918091612ecf935f92612ed4575b5050612e6c565b90555b565b90915001515f80612ec8565b601f19831691612eef85610637565b925f5b818110612f3057509160029391856001969410612f16575b50505002019055612ed2565b612f26910151601f841690612e57565b90555f8080612f0a565b91936020600181928787015181550195019201612ef2565b610488565b90612f5791612e7e565b565b90565b5f5260205f2090565b5490565b612f7281612f65565b821015612f8c57612f84600191612f5c565b910201905f90565b610d28565b9190612fa257612fa091612e7e565b565b6105dd565b9081549168010000000000000000831015612fd75782612fcf916001612fd595018155612f69565b90612f91565b565b610488565b90565b5f5260205f2090565b5490565b612ff581612fe8565b82101561300f57613007600191612fdf565b910201905f90565b610d28565b9081549168010000000000000000831015613044578261303c91600161304295018155612fec565b90612dab565b565b610488565b9061305b613056836104da565b6104c5565b918252565b6130695f613049565b90565b613074613060565b90565b61316698959697936130e161311c96936130da6130ff966130bf6130f0966130ba6130a2601b611c14565b6130b46130ae5f6128c6565b91610322565b14612d4f565b612b7b565b6130ca8c600f61254c565b6130d38161496f565b6013612f4d565b6014612f4d565b6130eb6011612f59565b612fa7565b6130fa6012612fdc565b613014565b61310a84601961254c565b61311585601a612cbe565b601d612cbe565b8061312f6131295f6128c6565b91610322565b115f1461316857613142905b601b612cbe565b9061315861315260125f90611a7e565b906110f1565b61316061306c565b92615415565b565b50613142613174615386565b61313b565b613181611bd0565b5061318c6012611a71565b90565b5f90565b61319b61318f565b506131a6600f6107f4565b90565b6131bd916131b5614aaf565b919091615489565b565b906131ed60206131d76131d26005611cd3565b611ce0565b636a276f9d906131e56102d6565b938492611cf0565b825281806131fd60048201610596565b03915afa801561331f57613218915f916132f1575b50611d8c565b61322a6132256004611dd4565b611de1565b61323c613236336102f3565b916102f3565b14918215613258575b6132516132569361227f565b613354565b565b61329b9250602061327161326c6005611cd3565b611ce0565b637df73e279061329033926132846102d6565b97889485938493611cf0565b83526004830161137b565b03915afa9283156132ec5761325693613251915f916132be575b50935050613245565b6132df915060203d81116132e5575b6132d7818361049c565b810190611d05565b5f6132b5565b503d6132cd565b611d23565b613312915060203d8111613318575b61330a818361049c565b810190611d05565b5f613212565b503d613300565b611d23565b634e487b7160e01b5f52601160045260245ffd5b61334190610322565b5f19811461334f5760010190565b613324565b905f146136225761339c602061337261336d6005611cd3565b611ce0565b631d84be449061339133926133856102d6565b95869485938493611cf0565b83526004830161137b565b03915afa90811561361d575f916135ef575b506133bb5f601001610821565b806135d4575b806135af575b61359c575b6133d85f601001610821565b80613581575b8061355c575b613549575b6133f55f601001610821565b908161352d575b5080613508575b6134f5575b6134115f6128c6565b61341d5f601001610848565b6134e7575b61342e5f60100161086f565b6134d9575b61343f5f601001610896565b6134cb575b6134505f601001610821565b90816134af575b508061348a575b613467575b505b565b61347290600f61254c565b61348461347d612498565b60106126fe565b5f613463565b506134975f6010016107f4565b6134a96134a3836102f3565b916102f3565b1461345e565b90506134c46134be60026124d3565b91610322565b145f613457565b6134d490613338565b613444565b6134e290613338565b613433565b6134f090613338565b613422565b61350360015f601001612664565b613408565b506135155f6010016107f4565b613527613521836102f3565b916102f3565b14613403565b905061354261353c60036124f2565b91610322565b145f6133fc565b61355760015f601001612625565b6133e9565b506135695f6010016107f4565b61357b613575846102f3565b916102f3565b146133e4565b508061359661359060026124d3565b91610322565b146133de565b6135aa60015f6010016125e6565b6133cc565b506135bc5f6010016107f4565b6135ce6135c8846102f3565b916102f3565b146133c7565b50806135e96135e360016124b4565b91610322565b146133c1565b613610915060203d8111613616575b613608818361049c565b81019061241b565b5f6133ae565b503d6135fe565b611d23565b5061363561362e612498565b60106126fe565b613465565b90613644916131bf565b565b61367490602061365e6136596005611cd3565b611ce0565b636a276f9d9061366c6102d6565b948592611cf0565b8252818061368460048201610596565b03915afa9182156137a0576136e2926136a4915f91613772575b50611d8c565b60206136b86136b36005611cd3565b611ce0565b6319c06429906136d733926136cb6102d6565b96879485938493611cf0565b83526004830161137b565b03915afa801561376d5761370d925f9161373f575b50801561370f575b61370890611e46565b613870565b565b506137086137256137206004611dd4565b611de1565b613737613731336102f3565b916102f3565b1490506136ff565b613760915060203d8111613766575b613758818361049c565b810190611d05565b5f6136f7565b503d61374e565b611d23565b613793915060203d8111613799575b61378b818361049c565b810190611d05565b5f61369e565b503d613781565b611d23565b5190565b906137b3826137a5565b8110156137c4576020809102010190565b610d28565b5f7f6f72632e746f6b656e2e6661696c656400000000000000000000000000000000910152565b6137fd6010602092610726565b613806816137c9565b0190565b61381f9060208101905f8183039101526137f0565b90565b1561382957565b6138316102d6565b62461bcd60e51b8152806138476004820161380a565b0390fd5b61385a61386091939293610322565b92610322565b820180921161386b57565b613324565b9061387a5f6128c6565b5b8061389661389061388b866137a5565b610322565b91610322565b101561398557613980906138da6138c26138bd60156138b68886906137a9565b51906119d3565b611c14565b6138d46138ce5f6128c6565b91610322565b14613822565b61390a6138e76012612fdc565b6139046138f46012611a71565b6138fe60016124b4565b9061384b565b90613014565b6139336139176012611a71565b61392e60156139278886906137a9565b51906119d3565b612cbe565b61395c6139418583906137a9565b5161395760166139516012611a71565b90610c3e565b612f4d565b61397b6139696011612f59565b6139748684906137a9565b5190612fa7565b6128e2565b61387b565b509050565b61399390613646565b565b6139c39060206139ad6139a86005611cd3565b611ce0565b636a276f9d906139bb6102d6565b948592611cf0565b825281806139d360048201610596565b03915afa918215613a5557613a25926139f3915f91613a27575b50611d8c565b613a20613a08613a036004611dd4565b611de1565b613a1a613a14336102f3565b916102f3565b14611e46565b613a66565b565b613a48915060203d8111613a4e575b613a40818361049c565b810190611d05565b5f6139ed565b503d613a36565b611d23565b613a6390610fec565b90565b5f80808093613a84613a7f613a7a84612a8e565b612b28565b613a5a565b828215613a99575bf115613a9457565b611d23565b506108fc613a8c565b613aab90613995565b565b60018060a01b031690565b613ac4613ac9916107d0565b613aad565b90565b613ad69054613ab8565b90565b613ae290610fec565b90565b9091606082840312613b1a57613b17613b00845f850161240c565b93613b0e816020860161240c565b9360400161240c565b90565b6102e0565b90565b613b36613b31613b3b92613b1f565b610c1f565b610322565b90565b613b4d613b5391939293610322565b92610322565b91613b5f838202610322565b928184041490151715613b6e57565b613324565b90565b613b8a613b85613b8f92613b73565b610c1f565b610322565b90565b634e487b7160e01b5f52601260045260245ffd5b613bb2613bb891610322565b91610322565b908115613bc3570490565b613b92565b613bd7613bdd91939293610322565b92610322565b8203918211613be857565b613324565b613bf5611bd0565b50613c236020613c0d613c086006613acc565b613ad9565b63fc0e74d190613c1b6102d6565b938492611cf0565b82528180613c3360048201610596565b03915afa908115613f05575f91613ed7575b50613eca57613c52615386565b613c7f6060613c69613c646006613acc565b613ad9565b635a0e903890613c776102d6565b938492611cf0565b82528180613c8f60048201610596565b03915afa8015613ec557613d4991613d1f915f8080919092613e84575b613d1992935090613cf9613ce9613cff93959295613ce4613ccd601a611c14565b613cde670de0b6b3a7640000613b22565b90613b3e565b613b3e565b91613cf46064613b76565b613b3e565b90613ba6565b91613d1486613d0e601b611c14565b90613bc8565b613ba6565b90613b3e565b6060613d33613d2e6006613acc565b613ad9565b63b85f1f8d90613d416102d6565b948592611cf0565b82528180613d5960048201610596565b03915afa918215613e7f57613e0793613de4613dea92613df0955f808092613e3e575b613ddf92935090613dc8613db8613dce939592613db3613d9c601a611c14565b613dad670de0b6b3a7640000613b22565b90613b3e565b613b3e565b91613dc36064613b76565b613b3e565b90613ba6565b93613dd9601b611c14565b90613bc8565b613ba6565b90613b3e565b9061384b565b613e01670de0b6b3a7640000613b22565b90613ba6565b80613e23613e1d613e18601a611c14565b610322565b91610322565b115f14613e395750613e35601a611c14565b5b90565b613e36565b505050613ddf613dce613db8613e6d613dc89460603d8111613e78575b613e65818361049c565b810190613ae5565b925093509150613d7c565b503d613e5b565b611d23565b505050613d19613cff613cf9613eb3613ce99460603d8111613ebe575b613eab818361049c565b810190613ae5565b935093509050613cac565b503d613ea1565b611d23565b613ed4601a611c14565b90565b613ef8915060203d8111613efe575b613ef0818361049c565b810190611d05565b5f613c45565b503d613ee6565b611d23565b613f38906020613f22613f1d6005611cd3565b611ce0565b636a276f9d90613f306102d6565b948592611cf0565b82528180613f4860048201610596565b03915afa918215613fca57613f9a92613f68915f91613f9c575b50611d8c565b613f95613f7d613f786004611dd4565b611de1565b613f8f613f89336102f3565b916102f3565b14611e46565b613fcf565b565b613fbd915060203d8111613fc3575b613fb5818361049c565b810190611d05565b5f613f62565b503d613fab565b611d23565b613fda90601e612cbe565b565b613fe590613f0a565b565b90613ff190610ff8565b5f5260205260405f2090565b61400961400e916107d0565b610807565b90565b61401b9054613ffd565b90565b6140439161403961403e92614031611c48565b506001613fe7565b611004565b614011565b90565b949391929092614054614aaf565b86614067614061836102f3565b916102f3565b1415806140ac575b614085575061408394959390919293615548565b565b86906140a86140926102d6565b92839263711bec9160e11b8452600484016120c2565b0390fd5b506140c16140bb88839061401e565b1561041a565b61406f565b5f7f6f776e2e72657374726963746564000000000000000000000000000000000000910152565b6140fa600e602092610726565b614103816140c6565b0190565b61411c9060208101905f8183039101526140ed565b90565b1561412657565b61412e6102d6565b62461bcd60e51b81528061414460048201614107565b0390fd5b50506141535f61411f565b565b9061415f91614148565b565b906141919291602061417b6141766005611cd3565b611ce0565b636a276f9d906141896102d6565b968792611cf0565b825281806141a160048201610596565b03915afa938415614223576141f3946141c1915f916141f5575b50611d8c565b6141ee6141d66141d16004611dd4565b611de1565b6141e86141e2336102f3565b916102f3565b14611e46565b614228565b565b614216915060203d811161421c575b61420e818361049c565b810190611d05565b5f6141bb565b503d614204565b611d23565b9161423592919091615601565b565b906142429291614161565b565b5f7f6f776e2e64656661756c742e73656e6465720000000000000000000000000000910152565b6142786012602092610726565b61428181614244565b0190565b61429a9060208101905f81830391015261426b565b90565b156142a457565b6142ac6102d6565b62461bcd60e51b8152806142c260048201614285565b0390fd5b906142f995949392916142f4826142ed6142e76142e25f612a8e565b6102f3565b916102f3565b141561429d565b6143b6565b90565b60018060a01b031690565b614313614318916107d0565b6142fc565b90565b6143259054614307565b90565b61433190610fec565b90565b5f7f6f776e2e66616b652e696e7374616e6365000000000000000000000000000000910152565b6143686011602092610726565b61437181614334565b0190565b61438a9060208101905f81830391015261435b565b90565b1561439457565b61439c6102d6565b62461bcd60e51b8152806143b260048201614375565b0390fd5b906143e9959493929160206143d36143ce6005611cd3565b611ce0565b636a276f9d906143e16102d6565b998a92611cf0565b825281806143f960048201610596565b03915afa9687156144e05761445797614419915f916144b2575b50611d8c565b602061442d614428600761431b565b614328565b633e7634899061444c33926144406102d6565b9b8c9485938493611cf0565b83526004830161137b565b03915afa9687156144ad5761447c97614477915f9161447f575b5061438d565b6147b6565b90565b6144a0915060203d81116144a6575b614498818361049c565b810190611d05565b5f614471565b503d61448e565b611d23565b6144d3915060203d81116144d9575b6144cb818361049c565b810190611d05565b5f614413565b503d6144c1565b611d23565b5f7f6f72632e737570706c792e627265616368656400000000000000000000000000910152565b6145196013602092610726565b614522816144e5565b0190565b61453b9060208101905f81830391015261450c565b90565b1561454557565b61454d6102d6565b62461bcd60e51b81528061456360048201614526565b0390fd5b61457090610fec565b90565b61457c90610fd0565b90565b61458890614573565b90565b61459490610fec565b90565b5f9103126145a157565b6102e0565b905f92918054906145c06145b983610604565b8094610726565b916001811690815f1461461757506001146145db575b505050565b6145e89192939450610637565b915f925b8184106145ff57505001905f80806145d6565b600181602092959395548486015201910192906145ec565b92949550505060ff19168252151560200201905f80806145d6565b9499989690610100966146a06146956146be976146876146c59d986146786146aa976146b49a8e61466b6101208201935f8301906108e2565b60208184039101526145a6565b908c60408184039101526145a6565b908a820360608c01526145a6565b9c6080890190610375565b60a08701906108e2565b60c0850190610375565b60e0830190610375565b0190610375565b565b90565b5f5260205f2090565b5490565b6146e0816146d3565b8210156146fa576146f26001916146ca565b910201905f90565b610d28565b9190600861471f91029161471960018060a01b0384612d82565b92612d82565b9181191691161790565b919061473f61473a61474793610ff8565b612549565b9083546146ff565b9055565b908154916801000000000000000083101561477b5782614773916001614779950181556146d7565b90614729565b565b610488565b9061478c60ff91612529565b9181191691161790565b906147ab6147a66147b292612598565b6125a4565b8254614780565b9055565b929192506147f36147c7601e611c14565b6147ec6147e66147e16147da601f611c14565b879061384b565b610322565b91610322565b101561453e565b61480e6147ff30614567565b6148085f6128c6565b90615779565b9461482061481b8761457f565b61458b565b91636db49b13906148396148346003612a59565b612a66565b9060149360139861485f60116148598b61485360016124b4565b90613bc8565b90610d49565b50928989929394893b1561492c576148756102d6565b9c8d996148828b9a611cf0565b8a5260048a019861489299614632565b03815a5f948591f1918215614927576148c56148c06148cc926148f8966148f1966148fb575b5060186113f2565b6146c7565b859061474b565b6148e260016148dd60178790611004565b614796565b6148ec601f611c14565b61384b565b601f612cbe565b90565b61491a905f3d8111614920575b614912818361049c565b810190614597565b5f6148b8565b503d614908565b611d23565b611cec565b906149469493929161494161318f565b6142c6565b90565b614951611c48565b5061496b6149656301ffc9a760e01b6103cd565b916103cd565b1490565b61497a906002612f4d565b565b906149879101610322565b90565b369037565b906149b461499c83613049565b926020806149aa86936104da565b920191039061498a565b565b60016149c29103610322565b90565b90565b6149dc6149d76149e1926149c5565b610c1f565b610322565b90565b6149f06149f691610322565b91610322565b908115614a01570490565b613b92565b614a0e611f4a565b50614a2b614a1b82615963565b614a2560016124b4565b9061497c565b90614a358261498f565b91614a3e611bd0565b5060208301015b600115614aa857614a58614a84916149b6565b916f181899199a1a9b1b9c1cb0b131b232b360811b600a82061a8353614a7e600a6149c8565b906149e4565b80614a97614a915f6128c6565b91610322565b14614aa25790614a45565b50505b90565b5050614aa5565b614ab761318f565b503390565b939192909283614adc614ad6614ad15f612a8e565b6102f3565b916102f3565b14614b3e5784614afc614af6614af15f612a8e565b6102f3565b916102f3565b14614b1157614b0f949390919293615bc4565b565b614b3a614b1d5f612a8e565b614b256102d6565b918291626a0d4560e21b83526004830161137b565b0390fd5b614b68614b4a5f612a8e565b614b526102d6565b918291632bfa23e760e11b83526004830161137b565b0390fd5b9060208091614b7961318f565b50029101015190565b9060208091614b8f611bd0565b50029101015190565b90505190614ba5826102ff565b565b90602082820312614bc057614bbd915f01614b98565b90565b6102e0565b614bce90610fd0565b90565b614bda90614bc5565b90565b614be690614bc5565b90565b90565b90614c01614bfc614c0892614bdd565b614be9565b825461252e565b9055565b614c1590610fd0565b90565b614c2190614c0c565b90565b614c2d90614c0c565b90565b90565b90614c48614c43614c4f92614c24565b614c30565b825461252e565b9055565b614c5c90610fd0565b90565b614c6890614c53565b90565b614c7490614c53565b90565b90565b90614c8f614c8a614c9692614c6b565b614c77565b825461252e565b9055565b614ca390610fd0565b90565b614caf90614c9a565b90565b614cbb90614c9a565b90565b90565b90614cd6614cd1614cdd92614cb2565b614cbe565b825461252e565b9055565b614cea90614573565b90565b90565b90614d05614d00614d0c92614ce1565b614ced565b825461252e565b9055565b614d22614d1d6003612a59565b612a66565b614d3c614d36614d315f612a8e565b6102f3565b916102f3565b1461538457614d6e6020614d58614d536003612a59565b612a66565b634162169f90614d666102d6565b938492611cf0565b82528180614d7e60048201610596565b03915afa90811561537f57614da591614d9e915f91615351575b50614bd1565b6004614bec565b614dd26020614dbc614db76003612a59565b612a66565b63b57dbdc690614dca6102d6565b938492611cf0565b82528180614de260048201610596565b03915afa90811561534c57614e0991614e02915f9161531e575b50614c18565b6005614c33565b614e366020614e20614e1b6003612a59565b612a66565b63cfbffe5390614e2e6102d6565b938492611cf0565b82528180614e4660048201610596565b03915afa90811561531957614e6d91614e66915f916152eb575b50614c5f565b6006614c7a565b614e9a6020614e84614e7f6003612a59565b612a66565b63ab6e844f90614e926102d6565b938492611cf0565b82528180614eaa60048201610596565b03915afa9081156152e657614ed191614eca915f916152b8575b50614ca6565b6007614cc1565b614efe6020614ee8614ee36003612a59565b612a66565b639a7c407790614ef66102d6565b938492611cf0565b82528180614f0e60048201610596565b03915afa9081156152b357614f3591614f2e915f91615285575b5061457f565b6008614cf0565b614f626020614f4c614f476003612a59565b612a66565b63aa0ddc1690614f5a6102d6565b938492611cf0565b82528180614f7260048201610596565b03915afa801561528057614f8f915f91615252575b50600a61254c565b614fbc6020614fa6614fa16003612a59565b612a66565b636b4aefc690614fb46102d6565b938492611cf0565b82528180614fcc60048201610596565b03915afa801561524d57614fe9915f9161521f575b50600b61254c565b6150166020615000614ffb6003612a59565b612a66565b6324768d919061500e6102d6565b938492611cf0565b8252818061502660048201610596565b03915afa801561521a57615043915f916151ec575b50600e61254c565b615070602061505a6150556003612a59565b612a66565b6364027427906150686102d6565b938492611cf0565b8252818061508060048201610596565b03915afa80156151e75761509d915f916151b9575b50600c61254c565b6150ca60206150b46150af6003612a59565b612a66565b6330125cf5906150c26102d6565b938492611cf0565b825281806150da60048201610596565b03915afa80156151b4576150f7915f91615186575b50600d61254c565b615124602061510e6151096003612a59565b612a66565b63d3d1b0969061511c6102d6565b938492611cf0565b8252818061513460048201610596565b03915afa801561518157615151915f91615153575b50600961254c565b565b615174915060203d811161517a575b61516c818361049c565b810190614ba7565b5f615149565b503d615162565b611d23565b6151a7915060203d81116151ad575b61519f818361049c565b810190614ba7565b5f6150ef565b503d615195565b611d23565b6151da915060203d81116151e0575b6151d2818361049c565b810190614ba7565b5f615095565b503d6151c8565b611d23565b61520d915060203d8111615213575b615205818361049c565b810190614ba7565b5f61503b565b503d6151fb565b611d23565b615240915060203d8111615246575b615238818361049c565b810190614ba7565b5f614fe1565b503d61522e565b611d23565b615273915060203d8111615279575b61526b818361049c565b810190614ba7565b5f614f87565b503d615261565b611d23565b6152a6915060203d81116152ac575b61529e818361049c565b810190614ba7565b5f614f28565b503d615294565b611d23565b6152d9915060203d81116152df575b6152d1818361049c565b810190614ba7565b5f614ec4565b503d6152c7565b611d23565b61530c915060203d8111615312575b615304818361049c565b810190614ba7565b5f614e60565b503d6152fa565b611d23565b61533f915060203d8111615345575b615337818361049c565b810190614ba7565b5f614dfc565b503d61532d565b611d23565b615372915060203d8111615378575b61536a818361049c565b810190614ba7565b5f614d98565b503d615360565b611d23565b565b61538e611bd0565b506153bc60206153a66153a16005611cd3565b611ce0565b63262a9dff906153b46102d6565b938492611cf0565b825281806153cc60048201610596565b03915afa908115615410575f916153e2575b5090565b615403915060203d8111615409575b6153fb818361049c565b81019061241b565b5f6153de565b503d6153f1565b611d23565b9192908261543361542d6154285f612a8e565b6102f3565b916102f3565b1461545b576154599361544591615c80565b9061544f5f612a8e565b9390919293615bc4565b565b6154856154675f612a8e565b61546f6102d6565b918291632bfa23e760e11b83526004830161137b565b0390fd5b919091826154a76154a161549c5f612a8e565b6102f3565b916102f3565b1461551b576154cb826154c66154bf60018590613fe7565b8690611004565b614796565b9190916155166155046154fe7f17307eab39ab6107e8899845ad3d59bd9653f200f220920489ca2b5937696c3193610ff8565b93610ff8565b9361550d6102d6565b9182918261042c565b0390a3565b6155446155275f612a8e565b61552f6102d6565b91829162ced3e160e81b83526004830161137b565b0390fd5b909293918361556761556161555c5f612a8e565b6102f3565b916102f3565b146155d3578161558761558161557c5f612a8e565b6102f3565b916102f3565b146155a6576155a49461559991615c80565b919390919293615bc4565b565b6155cf6155b25f612a8e565b6155ba6102d6565b918291626a0d4560e21b83526004830161137b565b0390fd5b6155fd6155df5f612a8e565b6155e76102d6565b918291632bfa23e760e11b83526004830161137b565b0390fd5b908161561d6156176156125f612a8e565b6102f3565b916102f3565b1461564b576156499261562f91615c80565b6156385f612a8e565b91909161564361306c565b93615bc4565b565b6156746156575f612a8e565b61565f6102d6565b918291626a0d4560e21b83526004830161137b565b0390fd5b60207f73732874686973292e62616c616e63652c2076616c7565290000000000000000917f4572726f72732e496e73756666696369656e7442616c616e63652861646472655f8201520152565b6156d26038604092610726565b6156db81615678565b0190565b6156f49060208101905f8183039101526156c5565b90565b5f7f6f72632e436c6f6e65466163746f72792e6372656174652e6661696c65640000910152565b61572b601e602092610726565b615734816156f7565b0190565b61574d9060208101905f81830391015261571e565b90565b1561575757565b61575f6102d6565b62461bcd60e51b81528061577560048201615738565b0390fd5b61578161318f565b5061578b30614567565b3161579e61579884610322565b91610322565b1061580b576037916e5af43d82803e903d91602b57fd5bf382763d602d80600a3d3981f3363d3d373d3d3d363d7300000060099460601b60e81c175f5260781b17602052f090615809826158026157fc6157f75f612a8e565b6102f3565b916102f3565b1415615750565b565b6158136102d6565b62461bcd60e51b815280615829600482016156df565b0390fd5b90565b61584461583f6158499261582d565b610c1f565b610322565b90565b90565b61586361585e6158689261584c565b610c1f565b610322565b90565b90565b61588261587d6158879261586b565b610c1f565b610322565b90565b90565b6158a161589c6158a69261588a565b610c1f565b610322565b90565b90565b6158c06158bb6158c5926158a9565b610c1f565b610322565b90565b90565b6158df6158da6158e4926158c8565b610c1f565b610322565b90565b90565b6158fe6158f9615903926158e7565b610c1f565b610322565b90565b90565b61591d61591861592292615906565b610c1f565b610322565b90565b90565b61593c61593761594192615925565b610c1f565b610322565b90565b90565b61595b61595661596092615944565b610c1f565b610322565b90565b61596b611bd0565b506159755f6128c6565b90806159a461599e7a184f03e93ff9f4daa797ed6e38ed64bf6a1f010000000000000000615830565b91610322565b1015615b7c575b806159cc6159c66d04ee2d6d415b85acef810000000061586e565b91610322565b1015615b41575b806159ed6159e7662386f26fc100006158ac565b91610322565b1015615b0d575b80615a0b615a056305f5e1006158ea565b91610322565b1015615adc575b80615a27615a21612710615928565b91610322565b1015615aad575b80615a42615a3c6064613b76565b91610322565b1015615a7f575b615a5c615a56600a6149c8565b91610322565b1015615a66575b90565b615a7a90615a7460016124b4565b9061497c565b615a63565b615a96615aa791615a906064613b76565b906149e4565b91615aa160026124d3565b9061497c565b90615a49565b615ac5615ad691615abf612710615928565b906149e4565b91615ad06004615947565b9061497c565b90615a2e565b615af6615b0791615af06305f5e1006158ea565b906149e4565b91615b016008615909565b9061497c565b90615a12565b615b2a615b3b91615b24662386f26fc100006158ac565b906149e4565b91615b3560106158cb565b9061497c565b906159f4565b615b65615b7691615b5f6d04ee2d6d415b85acef810000000061586e565b906149e4565b91615b70602061588d565b9061497c565b906159d3565b615bad615bbe91615ba77a184f03e93ff9f4daa797ed6e38ed64bf6a1f010000000000000000615830565b906149e4565b91615bb8604061584f565b9061497c565b906159ab565b92939193615bd68483879084926161c8565b81615bf1615beb615be65f612a8e565b6102f3565b916102f3565b03615bfe575b5050505050565b615c06614aaf565b91615c1086610ec6565b615c23615c1d60016124b4565b91610322565b145f14615c6a57615c53615c43615c5f97615c3d5f6128c6565b90614b82565b92615c4d5f6128c6565b90614b82565b929490919293946164c1565b5b5f80808080615bf7565b615c7b959192949091929394616303565b615c60565b91615c89612854565b50615c92612854565b5060405192600184526020840152604083019160018352602083015260408201604052565b90615ce89392916020615cd2615ccd6005611cd3565b611ce0565b636a276f9d90615ce06102d6565b978892611cf0565b82528180615cf860048201610596565b03915afa948515615d4d57615d1d95615d18915f91615d1f575b50611d8c565b615ee5565b565b615d40915060203d8111615d46575b615d38818361049c565b810190611d05565b5f615d12565b503d615d2e565b611d23565b615d5c9051610322565b90565b5f7f6f72632e6c6573732e7174790000000000000000000000000000000000000000910152565b615d93600c602092610726565b615d9c81615d5f565b0190565b615db59060208101905f818303910152615d86565b90565b15615dbf57565b615dc76102d6565b62461bcd60e51b815280615ddd60048201615da0565b0390fd5b5f7f6f72632e696e6163746976650000000000000000000000000000000000000000910152565b615e15600c602092610726565b615e1e81615de1565b0190565b615e379060208101905f818303910152615e08565b90565b15615e4157565b615e496102d6565b62461bcd60e51b815280615e5f60048201615e22565b0390fd5b5f7f6f72632e6c6f636b656400000000000000000000000000000000000000000000910152565b615e97600a602092610726565b615ea081615e63565b0190565b615eb99060208101905f818303910152615e8a565b90565b15615ec357565b615ecb6102d6565b62461bcd60e51b815280615ee160048201615ea4565b0390fd5b929091615f20615f06615f0184615efb5f6128c6565b906128f1565b615d52565b615f19615f1360016124b4565b91610322565b1015615db8565b83615f3b615f35615f305f612a8e565b6102f3565b916102f3565b1415806161a5575b80616179575b615f5d575b615f5b93929091926166a5565b565b615f9e6020615f74615f6f600761431b565b614328565b632b956ff790615f938892615f876102d6565b95869485938493611cf0565b83526004830161137b565b03915afa908115616174575f91616146575b509384615fc5615fbf5f6128c6565b91610322565b1180616123575b615fd8575b9350615f4e565b602061601795615ff0615feb600761431b565b614328565b61600c633a109e926160006102d6565b998a9485938493611cf0565b835260048301610382565b03915afa801561611e5761603a61603f91615f5b975f916160f0575b501561041a565b615e3a565b61606b61604a613bed565b8061605d6160575f6128c6565b91610322565b1190816160a7575b50615ebc565b6160a261609b61608c616087866160815f6128c6565b906128f1565b615d52565b616096601c611c14565b61384b565b601c612cbe565b615fd1565b6160bc91506160b6601c611c14565b90613bc8565b6160e86160e26160dd6160d8886160d25f6128c6565b906128f1565b615d52565b610322565b91610322565b10155f616065565b616111915060203d8111616117575b616109818361049c565b810190611d05565b5f616033565b503d6160ff565b611d23565b5061612e60196107f4565b61614061613a836102f3565b916102f3565b14615fcc565b616167915060203d811161616d575b61615f818361049c565b81019061241b565b5f615fb0565b503d616155565b611d23565b50616184601a611c14565b61619f616199616194601c611c14565b610322565b91610322565b11615f49565b50826161c16161bb6161b65f612a8e565b6102f3565b916102f3565b1415615f43565b906161d4939291615cb7565b565b6161df90610fd0565b90565b6161eb906161d6565b90565b6161f790610fec565b90565b90505190616207826103d9565b565b906020828203126162225761621f915f016161fa565b90565b6102e0565b5190565b60209181520190565b61625361625c6020936162619361624a81616227565b9384809361622b565b9586910161072f565b61047e565b0190565b939061629f906162bb96946162926162ad9561628860a08a01945f8b01906108e2565b60208901906108e2565b8682036040880152610efd565b908482036060860152610efd565b916080818403910152616234565b90565b906162d06162cb83610acd565b6104c5565b918252565b606090565b3d5f146162f5576162ea3d6162be565b903d5f602084013e5b565b6162fd6162d5565b906162f3565b94909194939293853b61631e6163185f6128c6565b91610322565b1161632c575b505050505050565b5f616368916163736020966163486163438b6161e2565b6161ee565b9563bc197c8193979991909161635c6102d6565b9a8b998a988997611cf0565b875260048701616265565b03925af180915f92616440575b50155f146163f65750600161639c57505b5f8080808080616324565b6163a46162da565b906163ae82616227565b6163c06163ba5f6128c6565b91610322565b145f146163ed576163e9906163d36102d6565b918291632bfa23e760e11b83526004830161137b565b0390fd5b50602081519101fd5b61640f61640963bc197c8160e01b6103cd565b916103cd565b0361641a5750616391565b61643c906164266102d6565b918291632bfa23e760e11b83526004830161137b565b0390fd5b61646291925060203d8111616469575b61645a818361049c565b810190616209565b905f616380565b503d616450565b91936164a76164be969461649d6164b1949761649360a08801995f8901906108e2565b60208701906108e2565b6040850190610375565b6060830190610375565b6080818403910152616234565b90565b94909194939293853b6164dc6164d65f6128c6565b91610322565b116164ea575b505050505050565b5f616526916165316020966165066165018b6161e2565b6161ee565b9563f23a6e6193979991909161651a6102d6565b9a8b998a988997611cf0565b875260048701616470565b03925af180915f926165fe575b50155f146165b45750600161655a57505b5f80808080806164e2565b6165626162da565b9061656c82616227565b61657e6165785f6128c6565b91610322565b145f146165ab576165a7906165916102d6565b918291632bfa23e760e11b83526004830161137b565b0390fd5b50602081519101fd5b6165cd6165c763f23a6e6160e01b6103cd565b916103cd565b036165d8575061654f565b6165fa906165e46102d6565b918291632bfa23e760e11b83526004830161137b565b0390fd5b61662091925060203d8111616627575b616618818361049c565b810190616209565b905f61653e565b503d61660e565b61666361666a9461665960609498979561664f608086019a5f8701906108e2565b6020850190610375565b6040830190610375565b0190610375565b565b906166779103610322565b90565b90916166946166a29360408401908482035f860152610efd565b916020818403910152610efd565b90565b939290916166b281610ec6565b6166cc6166c66166c185610ec6565b610322565b91610322565b03616947576166d9614aaf565b936166e35f6128c6565b5b806166ff6166f96166f486610ec6565b610322565b91610322565b101561683d57616710838290614b82565b61671b858390614b82565b908861673761673161672c5f612a8e565b6102f3565b916102f3565b036167a7575b9061676b92918761675e6167586167535f612a8e565b6102f3565b916102f3565b03616770575b50506128e2565b6166e4565b61679a61678b6167846167a094935f611bd4565b8a90611bea565b9161679583611c14565b61384b565b90612cbe565b5f80616764565b6167c46167bf6167b85f8490611bd4565b8b90611bea565b611c14565b806167d76167d185610322565b91610322565b10616813579061680a6167f061676b959493849061666c565b6168056167fe5f8590611bd4565b8d90611bea565b612cbe565b9091925061673d565b90616839908a92936168236102d6565b9485946303dee4c560e01b86526004860161662e565b0390fd5b50949092919261684c81610ec6565b61685f61685960016124b4565b91610322565b145f146168e85761687c61688c916168765f6128c6565b90614b82565b936168865f6128c6565b90614b82565b93909192936168cd6168c76168c17fc3d58168c5ae7397731d063d5bbf3d657854427343f4c083240f7aacaa2d0f6294610ff8565b94610ff8565b94610ff8565b946168e26168d96102d6565b9283928361285d565b0390a45b565b92939091929361692a61692461691e7f4a39dc06d4c0dbc64b70af90fd698a233a518aa5d07e595d983b8c0526c8f7fb94610ff8565b94610ff8565b94610ff8565b9461693f6169366102d6565b9283928361667a565b0390a46168e6565b61695361695991610ec6565b91610ec6565b9061697b6169656102d6565b928392635b05999160e01b84526004840161285d565b0390fdfea264697066735822122010127079fa3fb930213080591e28d309edbe2301f117c3380c34c90cb3f19d3264736f6c63430008180033","linkReferences":{}},"methodIdentifiers":{"Burn(uint256)":"b90306ad","Init(address,uint256,uint256,uint256,uint256)":"fcfa53e1","PostInit(address,string,string,string,uint256,address,uint256,uint256,uint256)":"6db49b13","_getUnlockedNFT()":"d3660623","_setOwner(address,bool)":"abb8c965","_setReq(address)":"41ffe7c4","addToken(string[])":"abbbf8d7","balanceOf(address,uint256)":"00fdd58e","balanceOfBatch(address[],uint256[])":"4e1273f4","baseMetadataURI()":"5b2bd79e","burn(address,uint256,uint256)":"f5298aca","claimed()":"e834a834","cloned(uint256,uint256)":"92b31d87","curSupply()":"5fac2d9d","getBalance()":"12065fe0","getCloneCountByToken(uint256)":"1f5ae5f3","getNames(uint256)":"5718e17b","getTokenCount()":"78a89567","idToName(uint256)":"364410b3","ids(uint256)":"fac333ac","isApprovedForAll(address,address)":"e985e9c5","isOwnerOrSafeOwner(address)":"379a423c","isclone(address)":"57e0e465","mintAmt()":"d92f24ae","mintedAge()":"f9ffedb7","mintedUser()":"fcf56368","mintedqty()":"6c51797b","name()":"06fdde03","nameToId(string)":"f6d8f2cb","names(uint256)":"4622ab03","own_reinit(address)":"60af454d","owner()":"8da5cb5b","req()":"0d43aaf2","safeBatchTransferFrom(address,address,uint256[],uint256[],bytes)":"2eb2c2d6","safeTransferFrom(address,address,uint256,uint256,bytes)":"f242432a","setApprovalForAll(address,bool)":"a22cb465","setFeeAmt(uint256)":"6589c252","setURI(string)":"02fe5305","setsupply(uint256)":"d878fe10","supportsInterface(bytes4)":"01ffc9a7","totSupply()":"81fbf0a5","uri(uint256)":"0e89341c","withdraw(address,uint256)":"f3fef3a3"},"id":41}