{"abi":[{"type":"fallback","stateMutability":"payable"},{"type":"receive","stateMutability":"payable"},{"type":"function","name":"Burn","inputs":[{"name":"amount","type":"uint256","internalType":"uint256"}],"outputs":[],"stateMutability":"payable"},{"type":"function","name":"_setOwner","inputs":[{"name":"own","type":"address","internalType":"address"},{"name":"isApproved","type":"bool","internalType":"bool"}],"outputs":[],"stateMutability":"nonpayable"},{"type":"function","name":"_setReq","inputs":[{"name":"own","type":"address","internalType":"address"}],"outputs":[],"stateMutability":"nonpayable"},{"type":"function","name":"at","inputs":[{"name":"_addr","type":"address","internalType":"address"}],"outputs":[{"name":"o_code","type":"bytes","internalType":"bytes"}],"stateMutability":"view"},{"type":"function","name":"claim","inputs":[],"outputs":[],"stateMutability":"payable"},{"type":"function","name":"getBalance","inputs":[],"outputs":[{"name":"","type":"uint256","internalType":"uint256"}],"stateMutability":"view"},{"type":"function","name":"isAccountSafeOwner","inputs":[{"name":"sender","type":"address","internalType":"address"}],"outputs":[{"name":"","type":"bool","internalType":"bool"}],"stateMutability":"view"},{"type":"function","name":"isOwnerOrSafeOwner","inputs":[{"name":"sender","type":"address","internalType":"address"}],"outputs":[{"name":"","type":"bool","internalType":"bool"}],"stateMutability":"view"},{"type":"function","name":"owner","inputs":[],"outputs":[{"name":"","type":"address","internalType":"address"}],"stateMutability":"view"},{"type":"function","name":"req","inputs":[],"outputs":[{"name":"newowner","type":"address","internalType":"address"},{"name":"isReq","type":"bool","internalType":"bool"},{"name":"isVer1","type":"bool","internalType":"bool"},{"name":"isVer2","type":"bool","internalType":"bool"},{"name":"isVer3","type":"bool","internalType":"bool"}],"stateMutability":"view"},{"type":"function","name":"setParam","inputs":[{"name":"s","type":"address","internalType":"address"},{"name":"r","type":"address","internalType":"address"},{"name":"m","type":"address","internalType":"address"},{"name":"f","type":"address","internalType":"address"},{"name":"t","type":"address","internalType":"address"}],"outputs":[],"stateMutability":"nonpayable"},{"type":"function","name":"transfer","inputs":[{"name":"u","type":"address","internalType":"address"},{"name":"p","type":"uint256","internalType":"uint256"}],"outputs":[],"stateMutability":"payable"},{"type":"function","name":"withdraw","inputs":[{"name":"to","type":"address","internalType":"address"},{"name":"amount","type":"uint256","internalType":"uint256"}],"outputs":[],"stateMutability":"payable"}],"bytecode":{"object":"0x608060405234801561001057600080fd5b506100f4600080546001600160a01b03199081167308ff697696398fac0dcee979bb0f1fb7b7fc380b1790915560018054821673882bf41aa8e3fad0695be39e4434af54786eb24a179055600280548216739f33b44587a57758c1413dbab6640f6abea5cef417905560038054821673951a7bbd21b4a6f49e62e040b992eed7120fcdd9179055600480548216730356a936a48a15a7f0e394b8bede265da21476a2179055600580548216739ead7fb4cfd35f92deb28fdd9e43ae4481ba858f1790556006805490911673894f85898a6a6f72c67c6a6e22d4eee6fcbbf80e179055565b600780546001600160a01b03191632179055611427806101156000396000f3fe6080604052600436106100bd5760003560e01c8063a9059cbb11610079578063b90306ad11610056578063b90306ad1461023d578063c3bd18c314610250578063dce4a44714610270578063f3fef3a31461029d57005b8063a9059cbb146101ea578063abb8c965146101fd578063b07518231461021d57005b80630d43aaf2146100c657806312065fe01461014f578063379a423c1461016a57806341ffe7c41461019a5780634e71d92d146101ba5780638da5cb5b146101c257005b366100c457005b005b3480156100d257600080fd5b50600854610110906001600160a01b0381169060ff600160a01b8204811691600160a81b8104821691600160b01b8204811691600160b81b90041685565b604080516001600160a01b03909616865293151560208601529115159284019290925290151560608301521515608082015260a0015b60405180910390f35b34801561015b57600080fd5b50604051478152602001610146565b34801561017657600080fd5b5061018a610185366004611116565b6102b0565b6040519015158152602001610146565b3480156101a657600080fd5b506100c46101b5366004611116565b61033d565b6100c4610535565b3480156101ce57600080fd5b506007546040516001600160a01b039091168152602001610146565b6100c46101f8366004611138565b6106ab565b34801561020957600080fd5b506100c4610218366004611173565b6109dc565b34801561022957600080fd5b506100c46102383660046111aa565b610cf2565b6100c461024b36600461120f565b610e90565b34801561025c57600080fd5b5061018a61026b366004611116565b610f6a565b34801561027c57600080fd5b5061029061028b366004611116565b610fd9565b604051610146919061124c565b6100c46102ab366004611138565b61100a565b600080546040516319c0642960e01b81526001600160a01b038481166004830152909116906319c0642990602401602060405180830381865afa1580156102fb573d6000803e3d6000fd5b505050506040513d601f19601f8201168201806040525081019061031f919061127f565b8061033757506007546001600160a01b038381169116145b92915050565b600054604051637df73e2760e01b81523360048201819052916001600160a01b031690637df73e2790602401602060405180830381865afa158015610386573d6000803e3d6000fd5b505050506040513d601f19601f820116820180604052508101906103aa919061127f565b6103cf5760405162461bcd60e51b81526004016103c69061129c565b60405180910390fd5b600080546040516307612f9160e21b81523360048201526001600160a01b0390911690631d84be44906024016020604051808303816000875af115801561041a573d6000803e3d6000fd5b505050506040513d601f19601f8201168201806040525081019061043e91906112c3565b90506104716040805160a08101825260008082526020820181905291810182905260608101829052608081019190915290565b60016020820181905282900361048957600160408201525b8160020361049957600160608201525b816003036104a957600160808201525b6001600160a01b03909316808452600880546020860151604087015160608801516080909801511515600160b81b0260ff60b81b19981515600160b01b0260ff60b01b19921515600160a81b029290921661ffff60a81b19931515600160a01b026001600160a81b03199095169096179390931791909116939093179290921794909416179092555050565b60008054906101000a90046001600160a01b03166001600160a01b0316636a276f9d6040518163ffffffff1660e01b8152600401602060405180830381865afa158015610586573d6000803e3d6000fd5b505050506040513d601f19601f820116820180604052508101906105aa919061127f565b6105c65760405162461bcd60e51b81526004016103c6906112dc565b600054604051637df73e2760e01b81523360048201819052916001600160a01b031690637df73e2790602401602060405180830381865afa15801561060f573d6000803e3d6000fd5b505050506040513d601f19601f82011682018060405250810190610633919061127f565b61064f5760405162461bcd60e51b81526004016103c69061129c565b338061066d5760405162461bcd60e51b81526004016103c690611313565b6007546040516001600160a01b03909116904780156108fc02916000818181858888f193505050501580156106a6573d6000803e3d6000fd5b505050565b60008054906101000a90046001600160a01b03166001600160a01b0316636a276f9d6040518163ffffffff1660e01b8152600401602060405180830381865afa1580156106fc573d6000803e3d6000fd5b505050506040513d601f19601f82011682018060405250810190610720919061127f565b61073c5760405162461bcd60e51b81526004016103c6906112dc565b816001600160a01b0381166107635760405162461bcd60e51b81526004016103c690611313565b33806107815760405162461bcd60e51b81526004016103c690611313565b6000831180156107915750824710155b6107ce5760405162461bcd60e51b815260206004820152600e60248201526d1b9bdd081cdd59999a58da595b9d60921b60448201526064016103c6565b60025460405162ba80a960e11b81523360048201526001600160a01b0390911690630175015290602401602060405180830381865afa158015610815573d6000803e3d6000fd5b505050506040513d601f19601f82011682018060405250810190610839919061127f565b80610848575061084833610f6a565b6108845760405162461bcd60e51b815260206004820152600d60248201526c3ab730baba341031b0b63632b960991b60448201526064016103c6565b600254604051637c01394b60e11b81526001600160a01b0386811660048301529091169063f802729690602401602060405180830381865afa1580156108ce573d6000803e3d6000fd5b505050506040513d601f19601f820116820180604052508101906108f2919061127f565b80610965575060025460405162ba80a960e11b81526001600160a01b03868116600483015290911690630175015290602401602060405180830381865afa158015610941573d6000803e3d6000fd5b505050506040513d601f19601f82011682018060405250810190610965919061127f565b61099f5760405162461bcd60e51b815260206004820152600b60248201526a3ab730baba34103ab9b2b960a91b60448201526064016103c6565b6040516001600160a01b0385169084156108fc029085906000818181858888f193505050501580156109d5573d6000803e3d6000fd5b5050505050565b600054604051637df73e2760e01b81523360048201819052916001600160a01b031690637df73e2790602401602060405180830381865afa158015610a25573d6000803e3d6000fd5b505050506040513d601f19601f82011682018060405250810190610a49919061127f565b610a655760405162461bcd60e51b81526004016103c69061129c565b8115610cb657600080546040516307612f9160e21b81523360048201526001600160a01b0390911690631d84be44906024016020604051808303816000875af1158015610ab6573d6000803e3d6000fd5b505050506040513d601f19601f82011682018060405250810190610ada91906112c3565b600854909150600160a01b900460ff168015610af65750806001145b8015610b0f57506008546001600160a01b038581169116145b15610b28576008805460ff60a81b1916600160a81b1790555b600854600160a01b900460ff168015610b415750806002145b8015610b5a57506008546001600160a01b038581169116145b15610b73576008805460ff60b01b1916600160b01b1790555b600854600160a01b900460ff168015610b8c5750806003145b8015610ba557506008546001600160a01b038581169116145b15610bbe576008805460ff60b81b1916600160b81b1790555b600854600090600160a81b900460ff1615610be15780610bdd8161133b565b9150505b600854600160b01b900460ff1615610c015780610bfd8161133b565b9150505b600854600160b81b900460ff1615610c215780610c1d8161133b565b9150505b600854600160a01b900460ff168015610c3a5750806002145b8015610c5357506008546001600160a01b038681169116145b156109d5575050600780546001600160a01b0319166001600160a01b03949094169390931790925550506040805160a0810182526000808252602082018190529181018290526060810182905260800152600880546001600160c01b0319169055565b50506040805160a081018252600080825260208201819052918101829052606081018290526080015250600880546001600160c01b0319169055565b60008054906101000a90046001600160a01b03166001600160a01b0316636a276f9d6040518163ffffffff1660e01b8152600401602060405180830381865afa158015610d43573d6000803e3d6000fd5b505050506040513d601f19601f82011682018060405250810190610d67919061127f565b610d835760405162461bcd60e51b81526004016103c6906112dc565b6000546040516319c0642960e01b81523360048201819052916001600160a01b0316906319c0642990602401602060405180830381865afa158015610dcc573d6000803e3d6000fd5b505050506040513d601f19601f82011682018060405250810190610df0919061127f565b610e305760405162461bcd60e51b815260206004820152601160248201527024b73b30b634b21029b0b332a7bbb732b960791b60448201526064016103c6565b50600080546001600160a01b03199081166001600160a01b03978816179091556001805482169587169590951790945560028054851693861693909317909255600680548416918516919091179055600480549092169216919091179055565b6000546040516319c0642960e01b81523260048201819052916001600160a01b0316906319c0642990602401602060405180830381865afa158015610ed9573d6000803e3d6000fd5b505050506040513d601f19601f82011682018060405250810190610efd919061127f565b610f3d5760405162461bcd60e51b815260206004820152601160248201527024b73b30b634b21029b0b332a7bbb732b960791b60448201526064016103c6565b60405160009083156108fc0290849083818181858288f193505050501580156106a6573d6000803e3d6000fd5b60008054604051633f978d1f60e11b81526001600160a01b03848116600483015290911690637f2f1a3e90602401602060405180830381865afa158015610fb5573d6000803e3d6000fd5b505050506040513d601f19601f82011682018060405250810190610337919061127f565b6060610fe4826110cc565b604051602001610ff49190611362565b6040516020818303038152906040529050919050565b60008054906101000a90046001600160a01b03166001600160a01b0316636a276f9d6040518163ffffffff1660e01b8152600401602060405180830381865afa15801561105b573d6000803e3d6000fd5b505050506040513d601f19601f8201168201806040525081019061107f919061127f565b61109b5760405162461bcd60e51b81526004016103c6906112dc565b60405162461bcd60e51b815260206004820152600660248201526519985a5b195960d21b60448201526064016103c6565b6060816001600160a01b0316803b806020016040519081016040528181526000908060200190933c92915050565b80356001600160a01b038116811461111157600080fd5b919050565b60006020828403121561112857600080fd5b611131826110fa565b9392505050565b6000806040838503121561114b57600080fd5b611154836110fa565b946020939093013593505050565b801515811461117057600080fd5b50565b6000806040838503121561118657600080fd5b61118f836110fa565b9150602083013561119f81611162565b809150509250929050565b600080600080600060a086880312156111c257600080fd5b6111cb866110fa565b94506111d9602087016110fa565b93506111e7604087016110fa565b92506111f5606087016110fa565b9150611203608087016110fa565b90509295509295909350565b60006020828403121561122157600080fd5b5035919050565b60005b8381101561124357818101518382015260200161122b565b50506000910152565b602081526000825180602084015261126b816040850160208701611228565b601f01601f19169190910160400192915050565b60006020828403121561129157600080fd5b815161113181611162565b6020808252600d908201526c24b73b30b634b21027bbb732b960991b604082015260600190565b6000602082840312156112d557600080fd5b5051919050565b6020808252601a908201527f496e76616c6964205361666567756172642e6973536166652829000000000000604082015260600190565b6020808252600e908201526d3232b330bab63a1039b2b73232b960911b604082015260600190565b60006001820161135b57634e487b7160e01b600052601160045260246000fd5b5060010190565b60008251611374818460208701611228565b730468e8dc225c4746454419c9dcccb59a581434b160631b92019182525073d416952dc46fce2775e90571d46a79565d04cb2560601b602082015273094c37fb9b5b2065409a5c7cb9bff71c4d49bf4160601b604082015273fe69687ce9c746c10e1c2af1e3f5d1475df4300f60601b606082015260740191905056fea26469706673582212205bb3e85ea212cd2e2570de0c2874138c6a461ad2a4fe4c4c7636bb428578d0d964736f6c63430008140033","linkReferences":{}},"methodIdentifiers":{"Burn(uint256)":"b90306ad","_setOwner(address,bool)":"abb8c965","_setReq(address)":"41ffe7c4","at(address)":"dce4a447","claim()":"4e71d92d","getBalance()":"12065fe0","isAccountSafeOwner(address)":"c3bd18c3","isOwnerOrSafeOwner(address)":"379a423c","owner()":"8da5cb5b","req()":"0d43aaf2","setParam(address,address,address,address,address)":"b0751823","transfer(address,uint256)":"a9059cbb","withdraw(address,uint256)":"f3fef3a3"},"id":0}