{"abi":[{"type":"constructor","inputs":[{"name":"_hex","type":"address","internalType":"address"}],"stateMutability":"nonpayable"},{"type":"fallback","stateMutability":"payable"},{"type":"receive","stateMutability":"payable"},{"type":"function","name":"Burn","inputs":[{"name":"amount","type":"uint256","internalType":"uint256"}],"outputs":[],"stateMutability":"nonpayable"},{"type":"function","name":"NFTSendPerCycle","inputs":[],"outputs":[{"name":"","type":"uint256","internalType":"uint256"}],"stateMutability":"view"},{"type":"function","name":"_delegatorCount","inputs":[],"outputs":[{"name":"","type":"uint256","internalType":"uint256"}],"stateMutability":"view"},{"type":"function","name":"_getImplementation","inputs":[{"name":"clone","type":"address","internalType":"address"}],"outputs":[{"name":"impl","type":"address","internalType":"address"}],"stateMutability":"view"},{"type":"function","name":"_isDelegatorNode","inputs":[{"name":"sender","type":"address","internalType":"address"}],"outputs":[{"name":"","type":"bool","internalType":"bool"}],"stateMutability":"view"},{"type":"function","name":"_isSafe","inputs":[],"outputs":[{"name":"","type":"bool","internalType":"bool"}],"stateMutability":"view"},{"type":"function","name":"_isSecureBase","inputs":[{"name":"sender","type":"address","internalType":"address"}],"outputs":[{"name":"","type":"bool","internalType":"bool"}],"stateMutability":"view"},{"type":"function","name":"_isSigner","inputs":[{"name":"sender","type":"address","internalType":"address"}],"outputs":[{"name":"","type":"bool","internalType":"bool"}],"stateMutability":"view"},{"type":"function","name":"allowForceTransfer","inputs":[],"outputs":[{"name":"","type":"bool","internalType":"bool"}],"stateMutability":"view"},{"type":"function","name":"capOnRank","inputs":[{"name":"","type":"uint256","internalType":"uint256"}],"outputs":[{"name":"maxClaim","type":"uint256","internalType":"uint256"},{"name":"cycleDays","type":"uint256","internalType":"uint256"}],"stateMutability":"view"},{"type":"function","name":"capping","inputs":[],"outputs":[{"name":"multiple","type":"uint256","internalType":"uint256"},{"name":"rw","type":"bool","internalType":"bool"},{"name":"ry","type":"bool","internalType":"bool"},{"name":"self","type":"bool","internalType":"bool"},{"name":"yei","type":"bool","internalType":"bool"},{"name":"tour","type":"bool","internalType":"bool"},{"name":"val","type":"bool","internalType":"bool"}],"stateMutability":"view"},{"type":"function","name":"computeMintValue","inputs":[{"name":"_qty","type":"uint256","internalType":"uint256"}],"outputs":[{"name":"","type":"uint256","internalType":"uint256"}],"stateMutability":"view"},{"type":"function","name":"delegateamtprivate","inputs":[],"outputs":[{"name":"","type":"uint256","internalType":"uint256"}],"stateMutability":"view"},{"type":"function","name":"delegateamtpublic","inputs":[],"outputs":[{"name":"","type":"uint256","internalType":"uint256"}],"stateMutability":"view"},{"type":"function","name":"eachclaimCycle","inputs":[],"outputs":[{"name":"","type":"uint256","internalType":"uint256"}],"stateMutability":"view"},{"type":"function","name":"freeIntervals","inputs":[],"outputs":[{"name":"","type":"uint256","internalType":"uint256"}],"stateMutability":"view"},{"type":"function","name":"getBalance","inputs":[],"outputs":[{"name":"","type":"uint256","internalType":"uint256"}],"stateMutability":"view"},{"type":"function","name":"getBatchRoyaltyClauses","inputs":[],"outputs":[{"name":"clauses","type":"tuple[7]","internalType":"struct lib741Rules.RoyalityStr[7]","components":[{"name":"rwNum","type":"uint256","internalType":"uint256"},{"name":"rwDen","type":"uint256","internalType":"uint256"},{"name":"rwEnd","type":"uint256","internalType":"uint256"}]}],"stateMutability":"view"},{"type":"function","name":"getHexbase","inputs":[],"outputs":[{"name":"","type":"address","internalType":"address"}],"stateMutability":"view"},{"type":"function","name":"levelClause","inputs":[{"name":"","type":"uint256","internalType":"uint256"}],"outputs":[{"name":"rank","type":"uint256","internalType":"uint256"},{"name":"rwNum","type":"uint256","internalType":"uint256"},{"name":"rwrDen","type":"uint256","internalType":"uint256"},{"name":"yeiNum","type":"uint256","internalType":"uint256"},{"name":"yeiDen","type":"uint256","internalType":"uint256"}],"stateMutability":"view"},{"type":"function","name":"maxClaimPerDay","inputs":[],"outputs":[{"name":"","type":"uint256","internalType":"uint256"}],"stateMutability":"view"},{"type":"function","name":"maxGlobalClaimPerDay","inputs":[],"outputs":[{"name":"","type":"uint256","internalType":"uint256"}],"stateMutability":"view"},{"type":"function","name":"maxMintQty","inputs":[],"outputs":[{"name":"","type":"uint256","internalType":"uint256"}],"stateMutability":"view"},{"type":"function","name":"maxMintsPerCycle","inputs":[],"outputs":[{"name":"","type":"uint256","internalType":"uint256"}],"stateMutability":"view"},{"type":"function","name":"maxNFTSend","inputs":[],"outputs":[{"name":"","type":"uint256","internalType":"uint256"}],"stateMutability":"view"},{"type":"function","name":"minClaimPerDay","inputs":[],"outputs":[{"name":"","type":"uint256","internalType":"uint256"}],"stateMutability":"view"},{"type":"function","name":"minMintQty","inputs":[],"outputs":[{"name":"","type":"uint256","internalType":"uint256"}],"stateMutability":"view"},{"type":"function","name":"mintCycleDays","inputs":[],"outputs":[{"name":"","type":"uint256","internalType":"uint256"}],"stateMutability":"view"},{"type":"function","name":"mintFeePerQty","inputs":[],"outputs":[{"name":"","type":"uint256","internalType":"uint256"}],"stateMutability":"view"},{"type":"function","name":"owner","inputs":[],"outputs":[{"name":"","type":"address","internalType":"address"}],"stateMutability":"view"},{"type":"function","name":"pool","inputs":[],"outputs":[{"name":"startafter","type":"uint256","internalType":"uint256"},{"name":"stakeN","type":"uint256","internalType":"uint256"},{"name":"stakeD","type":"uint256","internalType":"uint256"},{"name":"roiN","type":"uint256","internalType":"uint256"},{"name":"roiD","type":"uint256","internalType":"uint256"},{"name":"roiInt","type":"uint256","internalType":"uint256"},{"name":"roiEnd","type":"uint256","internalType":"uint256"}],"stateMutability":"view"},{"type":"function","name":"poolNFT1","inputs":[],"outputs":[{"name":"roiN","type":"uint256","internalType":"uint256"},{"name":"roiD","type":"uint256","internalType":"uint256"},{"name":"roiInt","type":"uint256","internalType":"uint256"}],"stateMutability":"view"},{"type":"function","name":"poolNFT2","inputs":[],"outputs":[{"name":"roiN","type":"uint256","internalType":"uint256"},{"name":"roiD","type":"uint256","internalType":"uint256"},{"name":"roiInt","type":"uint256","internalType":"uint256"}],"stateMutability":"view"},{"type":"function","name":"poolValprivate","inputs":[],"outputs":[{"name":"startafter","type":"uint256","internalType":"uint256"},{"name":"stakeN","type":"uint256","internalType":"uint256"},{"name":"stakeD","type":"uint256","internalType":"uint256"},{"name":"roiN","type":"uint256","internalType":"uint256"},{"name":"roiD","type":"uint256","internalType":"uint256"},{"name":"roiInt","type":"uint256","internalType":"uint256"},{"name":"roiEnd","type":"uint256","internalType":"uint256"}],"stateMutability":"view"},{"type":"function","name":"poolValpublic","inputs":[],"outputs":[{"name":"startafter","type":"uint256","internalType":"uint256"},{"name":"stakeN","type":"uint256","internalType":"uint256"},{"name":"stakeD","type":"uint256","internalType":"uint256"},{"name":"roiN","type":"uint256","internalType":"uint256"},{"name":"roiD","type":"uint256","internalType":"uint256"},{"name":"roiInt","type":"uint256","internalType":"uint256"},{"name":"roiEnd","type":"uint256","internalType":"uint256"}],"stateMutability":"view"},{"type":"function","name":"rankClause","inputs":[{"name":"","type":"uint256","internalType":"uint256"}],"outputs":[{"name":"direct","type":"uint256","internalType":"uint256"},{"name":"nftAmount","type":"uint256","internalType":"uint256"}],"stateMutability":"view"},{"type":"function","name":"rankforDAO","inputs":[],"outputs":[{"name":"","type":"uint256","internalType":"uint256"}],"stateMutability":"view"},{"type":"function","name":"royalityClause","inputs":[{"name":"","type":"uint256","internalType":"uint256"}],"outputs":[{"name":"rwNum","type":"uint256","internalType":"uint256"},{"name":"rwDen","type":"uint256","internalType":"uint256"},{"name":"rwEnd","type":"uint256","internalType":"uint256"}],"stateMutability":"view"},{"type":"function","name":"setAllowForceTransfer","inputs":[{"name":"_f","type":"bool","internalType":"bool"}],"outputs":[],"stateMutability":"nonpayable"},{"type":"function","name":"setCapping","inputs":[{"name":"_multiple","type":"uint256","internalType":"uint256"},{"name":"_rw","type":"bool","internalType":"bool"},{"name":"_ry","type":"bool","internalType":"bool"},{"name":"_self","type":"bool","internalType":"bool"},{"name":"_yei","type":"bool","internalType":"bool"},{"name":"_tour","type":"bool","internalType":"bool"},{"name":"_val","type":"bool","internalType":"bool"}],"outputs":[],"stateMutability":"nonpayable"},{"type":"function","name":"setClaimPerDay","inputs":[{"name":"_min","type":"uint256","internalType":"uint256"},{"name":"_max","type":"uint256","internalType":"uint256"}],"outputs":[],"stateMutability":"nonpayable"},{"type":"function","name":"setCoinPool","inputs":[{"name":"_type","type":"uint256","internalType":"uint256"},{"name":"_start","type":"uint256","internalType":"uint256"},{"name":"_stakeN","type":"uint256","internalType":"uint256"},{"name":"_stakeD","type":"uint256","internalType":"uint256"},{"name":"_roiN","type":"uint256","internalType":"uint256"},{"name":"_roiD","type":"uint256","internalType":"uint256"},{"name":"_roiInt","type":"uint256","internalType":"uint256"},{"name":"_roiEnd","type":"uint256","internalType":"uint256"}],"outputs":[],"stateMutability":"nonpayable"},{"type":"function","name":"setGlobalClaimPerDay","inputs":[{"name":"_ac","type":"uint256","internalType":"uint256"}],"outputs":[],"stateMutability":"nonpayable"},{"type":"function","name":"setMaxMintsPerCycle","inputs":[{"name":"_max","type":"uint256","internalType":"uint256"}],"outputs":[],"stateMutability":"nonpayable"},{"type":"function","name":"setMaxNFTSend","inputs":[{"name":"_d","type":"uint256","internalType":"uint256"}],"outputs":[],"stateMutability":"nonpayable"},{"type":"function","name":"setMintCycleDays","inputs":[{"name":"_d","type":"uint256","internalType":"uint256"}],"outputs":[],"stateMutability":"nonpayable"},{"type":"function","name":"setMintFee","inputs":[{"name":"_fe","type":"uint256","internalType":"uint256"}],"outputs":[],"stateMutability":"nonpayable"},{"type":"function","name":"setMintQty","inputs":[{"name":"_min","type":"uint256","internalType":"uint256"},{"name":"_max","type":"uint256","internalType":"uint256"}],"outputs":[],"stateMutability":"nonpayable"},{"type":"function","name":"setNFTSendPerCycle","inputs":[{"name":"_d","type":"uint256","internalType":"uint256"}],"outputs":[],"stateMutability":"nonpayable"},{"type":"function","name":"setNftPool","inputs":[{"name":"_type","type":"uint256","internalType":"uint256"},{"name":"_roiN","type":"uint256","internalType":"uint256"},{"name":"_roiD","type":"uint256","internalType":"uint256"},{"name":"_roiInt","type":"uint256","internalType":"uint256"}],"outputs":[],"stateMutability":"nonpayable"},{"type":"function","name":"setRoyalityClause","inputs":[{"name":"_rank","type":"uint256","internalType":"uint256"},{"name":"_rwNum","type":"uint256","internalType":"uint256"},{"name":"_rwDen","type":"uint256","internalType":"uint256"},{"name":"_rwEnd","type":"uint256","internalType":"uint256"}],"outputs":[],"stateMutability":"nonpayable"},{"type":"function","name":"setTourClause","inputs":[{"name":"_rank","type":"uint256","internalType":"uint256"},{"name":"_tw","type":"uint256","internalType":"uint256"}],"outputs":[],"stateMutability":"nonpayable"},{"type":"function","name":"setclaimCycle","inputs":[{"name":"_d","type":"uint256","internalType":"uint256"}],"outputs":[],"stateMutability":"nonpayable"},{"type":"function","name":"setlevelClause","inputs":[{"name":"lvl","type":"uint256","internalType":"uint256"},{"name":"_rank","type":"uint256","internalType":"uint256"},{"name":"_rpernum","type":"uint256","internalType":"uint256"},{"name":"_rperden","type":"uint256","internalType":"uint256"},{"name":"_ypernum","type":"uint256","internalType":"uint256"},{"name":"_yperden","type":"uint256","internalType":"uint256"}],"outputs":[],"stateMutability":"nonpayable"},{"type":"function","name":"setrankClause","inputs":[{"name":"rank","type":"uint256","internalType":"uint256"},{"name":"direct","type":"uint256","internalType":"uint256"},{"name":"nftAmount","type":"uint256","internalType":"uint256"}],"outputs":[],"stateMutability":"nonpayable"},{"type":"function","name":"setrankforDAO","inputs":[{"name":"_r","type":"uint256","internalType":"uint256"}],"outputs":[],"stateMutability":"nonpayable"},{"type":"function","name":"setshutdown","inputs":[{"name":"_shutdown","type":"bool","internalType":"bool"}],"outputs":[],"stateMutability":"nonpayable"},{"type":"function","name":"setvalidatorPrice","inputs":[{"name":"_pri","type":"uint256","internalType":"uint256"},{"name":"_pub","type":"uint256","internalType":"uint256"}],"outputs":[],"stateMutability":"nonpayable"},{"type":"function","name":"shutdown","inputs":[],"outputs":[{"name":"","type":"bool","internalType":"bool"}],"stateMutability":"view"},{"type":"function","name":"systemAge","inputs":[],"outputs":[{"name":"","type":"uint256","internalType":"uint256"}],"stateMutability":"view"},{"type":"function","name":"tourClause","inputs":[{"name":"","type":"uint256","internalType":"uint256"}],"outputs":[{"name":"","type":"uint256","internalType":"uint256"}],"stateMutability":"view"},{"type":"event","name":"EthBurned","inputs":[{"name":"sender","type":"address","indexed":true,"internalType":"address"},{"name":"amount","type":"uint256","indexed":false,"internalType":"uint256"}],"anonymous":false},{"type":"event","name":"EthTransferred","inputs":[{"name":"to","type":"address","indexed":true,"internalType":"address"},{"name":"amount","type":"uint256","indexed":false,"internalType":"uint256"}],"anonymous":false},{"type":"event","name":"HexBaseUpdated","inputs":[{"name":"previousHexBase","type":"address","indexed":true,"internalType":"address"},{"name":"newHexBase","type":"address","indexed":true,"internalType":"address"}],"anonymous":false},{"type":"event","name":"OwnerUpdated","inputs":[{"name":"previousOwner","type":"address","indexed":true,"internalType":"address"},{"name":"newOwner","type":"address","indexed":true,"internalType":"address"}],"anonymous":false},{"type":"error","name":"TargetCallFailed","inputs":[{"name":"selector","type":"bytes4","internalType":"bytes4"}]}],"bytecode":{"object":"0x6080346200198157601f620044e138819003918201601f19168301916001600160401b0383118484101762001986578084926020946040528339810103126200198157516001600160a01b03811690819003620019815780156200193c5760018060a01b0319338160015416176001556000541617600055601e6025556001602655600160275560026028556103e8602955610258602a556003602b556019602c5568878678326eac900000602d55670de0b6b3a7640000602f5569021e19e0c9bab2400000603055600160315561014060325560a0603355600560345560ff196035541660355561025860c0620000f662001a1c565b6002815260646020820152600160408201526023606082015260646080820152600160a082015201526002600755606460085560016009556023600a556064600b556001600c55610258600d556200014d6200199c565b6002815261025860c06103f29283602082015260016040820152600b6060820152600a6080820152600160a082015201526002600e5580600f556001601055600b601155600a601255600160135561025860145561025860c0620001b06200199c565b60028152836020820152600160408201526044606082015260646080820152600160a0820152015260026015556016556001601755604460185560646019556001601a55610258601b55607860406200020862001a51565b60198152600a602082015201526019601c55600a601d556078601e5560406200023062001a51565b600a8152600160208201526101689182910152600a601f556001602055602155600160c06200025e62001a1c565b600481528260208201528260408201528260608201528260808201528260a0820152015260046022556501010101010165ffffffffffff19602354161760235562000314620002ac620019bc565b680821ab0d44149800008152601e60208083019182526001600052602e905290517f4e1bfaee23456dd6cf092fb5066e35933f450286bf7ee4d24ec3330c285e042155517f4e1bfaee23456dd6cf092fb5066e35933f450286bf7ee4d24ec3330c285e042255565b6200038a62000322620019bc565b681043561a88293000008152601e60208083019182526002600052602e905290517fd94e2bcc6ed143dd333bd53f075a84d4f0c4906d562552f27ce799455ef3fbfe55517fd94e2bcc6ed143dd333bd53f075a84d4f0c4906d562552f27ce799455ef3fbff55565b6200040062000398620019bc565b682086ac3510526000008152601e60208083019182526003600052602e905290517f9195d495cacf52be485273f02d3734fd98a3782a837f8c47cb8eb6f21940a5b455517f9195d495cacf52be485273f02d3734fd98a3782a837f8c47cb8eb6f21940a5b555565b620004766200040e620019bc565b6830ca024f987b9000008152601e60208083019182526004600052602e905290517f5cde18e55ce81c08b9cd5550e62ab78f9cf8322cd1e8450162ad320300213e1055517f5cde18e55ce81c08b9cd5550e62ab78f9cf8322cd1e8450162ad320300213e1155565b620004ec62000484620019bc565b685150ae84a8cdf000008152601e60208083019182526005600052602e905290517f3390e21c5e6493f95cabf8d53d3fcd6c294d36805c68a3e820e0999fed12367555517f3390e21c5e6493f95cabf8d53d3fcd6c294d36805c68a3e820e0999fed12367655565b62000562620004fa620019bc565b6871d75ab9b9205000008152601e60208083019182526006600052602e905290517ff7ff29c252773d06b0d3e0fc4b8fcea5da74f25b364cda586b7e40ecbb6e01da55517ff7ff29c252773d06b0d3e0fc4b8fcea5da74f25b364cda586b7e40ecbb6e01db55565b620005d862000570620019bc565b68a2a15d09519be000008152601e60208083019182526007600052602e905290517f192bdc05a7b013438e82d7997fc71a400da7596202a0b5448662f297c1b564e055517f192bdc05a7b013438e82d7997fc71a400da7596202a0b5448662f297c1b564e155565b62000646620005e6620019bc565b600781526019602080830191825260016000526003905290517fa15bc60c955c405d20d9149c709e2460f1c2d9a497496a7f46004d1772c3054c55517fa15bc60c955c405d20d9149c709e2460f1c2d9a497496a7f46004d1772c3054d55565b620006b462000654620019bc565b600781526064602080830191825260026000526003905290517fc3a24b0501bd2c13a7e57f2db4369ec4c223447539fc0724a9d55ac4a06ebd4d55517fc3a24b0501bd2c13a7e57f2db4369ec4c223447539fc0724a9d55ac4a06ebd4e55565b62000723620006c2620019bc565b600781526101f4602080830191825260036000819052905290517fcbc4e5fb02c3d1de23a9f1e014b4d2ee5aeaea9505df5e855c9210bf472495af55517fcbc4e5fb02c3d1de23a9f1e014b4d2ee5aeaea9505df5e855c9210bf472495b055565b6200079262000731620019bc565b600781526107d0602080830191825260046000526003905290517f83ec6a1f0257b830b5e016457c9cf1435391bf56cc98f369a58a54fe9377246555517f83ec6a1f0257b830b5e016457c9cf1435391bf56cc98f369a58a54fe9377246655565b62000801620007a0620019bc565b60078152611388602080830191825260056000526003905290517f405aad32e1adbac89bb7f176e338b8fc6e994ca210c9bb7bdca249b46594225055517f405aad32e1adbac89bb7f176e338b8fc6e994ca210c9bb7bdca249b46594225155565b620008706200080f620019bc565b60078152612710602080830191825260066000526003905290517fc69056f16cbaa3c616b828e333ab7d3a32310765507f8f58359e99ebb7a885f355517fc69056f16cbaa3c616b828e333ab7d3a32310765507f8f58359e99ebb7a885f455565b620008e26200087e620019bc565b60078082526161a86020808401918252600092909252600390915290517ff2c49132ed1cee2a7e75bde50d332a2f81f1d01e5456d8a19d1df09bd561dbd255517ff2c49132ed1cee2a7e75bde50d332a2f81f1d01e5456d8a19d1df09bd561dbd355565b620008ec620019dc565b60008082526006602080840182815260016040860181815260056060880190815260808801838152929096529390925293517f3e5fec24aa4dc4e5aee2e025e51e1392c72a2500577559fae9665c6d52bd6a315592517f3e5fec24aa4dc4e5aee2e025e51e1392c72a2500577559fae9665c6d52bd6a3255517f3e5fec24aa4dc4e5aee2e025e51e1392c72a2500577559fae9665c6d52bd6a3355517f3e5fec24aa4dc4e5aee2e025e51e1392c72a2500577559fae9665c6d52bd6a3455517f3e5fec24aa4dc4e5aee2e025e51e1392c72a2500577559fae9665c6d52bd6a3555620009d7620019dc565b60018082526003602080840191825260408401838152600560608601908152608086019485526002600052600690925293517f8819ef417987f8ae7a81f42cdfb18815282fe989326fbff903d13cf0e03ace295590517f8819ef417987f8ae7a81f42cdfb18815282fe989326fbff903d13cf0e03ace2a5591517f8819ef417987f8ae7a81f42cdfb18815282fe989326fbff903d13cf0e03ace2b5590517f8819ef417987f8ae7a81f42cdfb18815282fe989326fbff903d13cf0e03ace2c55517f8819ef417987f8ae7a81f42cdfb18815282fe989326fbff903d13cf0e03ace2d5562000ac4620019dc565b60028152600f6020808301918252600a604084019081526005606085019081526001608086019081526003600052600690935293517f75f96ab15d697e93042dc45b5c896c4b27e89bb6eaf39475c5c371cb2513f7d25591517f75f96ab15d697e93042dc45b5c896c4b27e89bb6eaf39475c5c371cb2513f7d35590517f75f96ab15d697e93042dc45b5c896c4b27e89bb6eaf39475c5c371cb2513f7d45590517f75f96ab15d697e93042dc45b5c896c4b27e89bb6eaf39475c5c371cb2513f7d555517f75f96ab15d697e93042dc45b5c896c4b27e89bb6eaf39475c5c371cb2513f7d65562000bb4620019dc565b60028152600f6020808301918252600a604084019081526005606085019081526001608086019081526004600052600690935293517fc5069e24aaadb2addc3e52e868fcf3f4f8acf5a87e24300992fd4540c2a87eed5591517fc5069e24aaadb2addc3e52e868fcf3f4f8acf5a87e24300992fd4540c2a87eee5590517fc5069e24aaadb2addc3e52e868fcf3f4f8acf5a87e24300992fd4540c2a87eef5590517fc5069e24aaadb2addc3e52e868fcf3f4f8acf5a87e24300992fd4540c2a87ef055517fc5069e24aaadb2addc3e52e868fcf3f4f8acf5a87e24300992fd4540c2a87ef15562000ca4620019dc565b60028152600f6020808301918252600a60408401908152600560608501818152600160808701908152600092909252600690935293517fbfd358e93f18da3ed276c3afdbdba00b8f0b6008a03476a6a86bd6320ee6938b5591517fbfd358e93f18da3ed276c3afdbdba00b8f0b6008a03476a6a86bd6320ee6938c5590517fbfd358e93f18da3ed276c3afdbdba00b8f0b6008a03476a6a86bd6320ee6938d55517fbfd358e93f18da3ed276c3afdbdba00b8f0b6008a03476a6a86bd6320ee6938e55517fbfd358e93f18da3ed276c3afdbdba00b8f0b6008a03476a6a86bd6320ee6938f5562000d94620019dc565b60028152604b602080830191825260646040840181815260fa60608601908152608086019283526006600081905290935293517f697b2bd7bb2984c4e0dc14c79c987d37818484a62958b9c45a0e8b962f20650f5591517f697b2bd7bb2984c4e0dc14c79c987d37818484a62958b9c45a0e8b962f2065105591517f697b2bd7bb2984c4e0dc14c79c987d37818484a62958b9c45a0e8b962f2065115590517f697b2bd7bb2984c4e0dc14c79c987d37818484a62958b9c45a0e8b962f20651255517f697b2bd7bb2984c4e0dc14c79c987d37818484a62958b9c45a0e8b962f2065135562000e82620019dc565b60028152604b602080830191825260646040840181815260fa60608601908152608086019283526007600052600690935293517f4ced6d0d36392b04cc5d8761b1327b3bbba6e1089c77f60a9a9ca18e05e4f00e5591517f4ced6d0d36392b04cc5d8761b1327b3bbba6e1089c77f60a9a9ca18e05e4f00f5591517f4ced6d0d36392b04cc5d8761b1327b3bbba6e1089c77f60a9a9ca18e05e4f0105590517f4ced6d0d36392b04cc5d8761b1327b3bbba6e1089c77f60a9a9ca18e05e4f01155517f4ced6d0d36392b04cc5d8761b1327b3bbba6e1089c77f60a9a9ca18e05e4f0125562000f70620019dc565b60028152604b602080830191825260646040840181815260fa60608601908152608086019283526008600052600690935293517fb8d683c9d414f481826f3e7fe14b3ac6ae8c73450778287390c4bb8cb9f2e80b5591517fb8d683c9d414f481826f3e7fe14b3ac6ae8c73450778287390c4bb8cb9f2e80c5591517fb8d683c9d414f481826f3e7fe14b3ac6ae8c73450778287390c4bb8cb9f2e80d5590517fb8d683c9d414f481826f3e7fe14b3ac6ae8c73450778287390c4bb8cb9f2e80e55517fb8d683c9d414f481826f3e7fe14b3ac6ae8c73450778287390c4bb8cb9f2e80f556200105e620019dc565b60028152604b602080830191825260646040840181815260fa60608601908152608086019283526009600052600690935293517fca4d0c6c94a9477136dd41a99cc19ecbe441c8f6609efe7c6fa65be007a473235591517fca4d0c6c94a9477136dd41a99cc19ecbe441c8f6609efe7c6fa65be007a473245591517fca4d0c6c94a9477136dd41a99cc19ecbe441c8f6609efe7c6fa65be007a473255590517fca4d0c6c94a9477136dd41a99cc19ecbe441c8f6609efe7c6fa65be007a4732655517fca4d0c6c94a9477136dd41a99cc19ecbe441c8f6609efe7c6fa65be007a47327556200114c620019dc565b60028152604b602080830191825260646040840181815260fa6060860190815260808601928352600a600052600690935293517f4da38fc8e544afc56a4c2a17752b8ddb67d8e23ac4583c9029d2e2d1dbe6c9885591517f4da38fc8e544afc56a4c2a17752b8ddb67d8e23ac4583c9029d2e2d1dbe6c9895591517f4da38fc8e544afc56a4c2a17752b8ddb67d8e23ac4583c9029d2e2d1dbe6c98a5590517f4da38fc8e544afc56a4c2a17752b8ddb67d8e23ac4583c9029d2e2d1dbe6c98b55517f4da38fc8e544afc56a4c2a17752b8ddb67d8e23ac4583c9029d2e2d1dbe6c98c556200123a620019dc565b60028152604b602080830191825260646040840181815260fa6060860190815260808601928352600b600052600690935293517f85291c2e7881182c13e19eca9b58927ebfdc2c5d04882018eeb33d8241d357115591517f85291c2e7881182c13e19eca9b58927ebfdc2c5d04882018eeb33d8241d357125591517f85291c2e7881182c13e19eca9b58927ebfdc2c5d04882018eeb33d8241d357135590517f85291c2e7881182c13e19eca9b58927ebfdc2c5d04882018eeb33d8241d3571455517f85291c2e7881182c13e19eca9b58927ebfdc2c5d04882018eeb33d8241d357155562001328620019dc565b60028152604b602080830191825260646040840181815260fa6060860190815260808601928352600c600052600690935293517f0b94fa1b86997cc1f1148bfbe25b674e8cefc7cc6f976aa8d7c7966bd4cca3475591517f0b94fa1b86997cc1f1148bfbe25b674e8cefc7cc6f976aa8d7c7966bd4cca3485591517f0b94fa1b86997cc1f1148bfbe25b674e8cefc7cc6f976aa8d7c7966bd4cca3495590517f0b94fa1b86997cc1f1148bfbe25b674e8cefc7cc6f976aa8d7c7966bd4cca34a55517f0b94fa1b86997cc1f1148bfbe25b674e8cefc7cc6f976aa8d7c7966bd4cca34b5562001416620019dc565b60028152604b602080830191825260646040840181815260fa6060860190815260808601928352600d600052600690935293517f248457bacb20e239ae314d8db91c0f270e453c28ee138c84f97aea6cfcf9a4995591517f248457bacb20e239ae314d8db91c0f270e453c28ee138c84f97aea6cfcf9a49a5591517f248457bacb20e239ae314d8db91c0f270e453c28ee138c84f97aea6cfcf9a49b5590517f248457bacb20e239ae314d8db91c0f270e453c28ee138c84f97aea6cfcf9a49c55517f248457bacb20e239ae314d8db91c0f270e453c28ee138c84f97aea6cfcf9a49d5562001504620019dc565b60028152604b602080830191825260646040840181815260fa6060860190815260808601928352600e600052600690935293517faca6cdb4b5fe0ec50731a73f714dd191dc1911bfeb3f9eeb9e94ed0f6065ef8d5591517faca6cdb4b5fe0ec50731a73f714dd191dc1911bfeb3f9eeb9e94ed0f6065ef8e5591517faca6cdb4b5fe0ec50731a73f714dd191dc1911bfeb3f9eeb9e94ed0f6065ef8f5590517faca6cdb4b5fe0ec50731a73f714dd191dc1911bfeb3f9eeb9e94ed0f6065ef9055517faca6cdb4b5fe0ec50731a73f714dd191dc1911bfeb3f9eeb9e94ed0f6065ef9155620015f2620019dc565b60028152604b602080830191825260646040840181815260fa6060860190815260808601928352600f600052600690935293517ff130046d53bc87538ab17e4752ba5f5082985eecc06ccb932c5a55e8242dd5025591517ff130046d53bc87538ab17e4752ba5f5082985eecc06ccb932c5a55e8242dd5035591517ff130046d53bc87538ab17e4752ba5f5082985eecc06ccb932c5a55e8242dd5045590517ff130046d53bc87538ab17e4752ba5f5082985eecc06ccb932c5a55e8242dd50555517ff130046d53bc87538ab17e4752ba5f5082985eecc06ccb932c5a55e8242dd5065562001771620016e4620019fc565b60128152600a6020808301918252602d604084019081526003600052600490915291517f2e174c10e159ea99b867ce3205125c24a42d128804e4070ed6fcc8cc98166aa055517f2e174c10e159ea99b867ce3205125c24a42d128804e4070ed6fcc8cc98166aa155517f2e174c10e159ea99b867ce3205125c24a42d128804e4070ed6fcc8cc98166aa255565b6200180c6200177f620019fc565b60128152600a6020808301918252605a604084019081526005600052600490915291517f04cde762ef08b6b6c5ded8e8c4c0b3f4e5c9ad7342c88fcc93681b4588b73f0555517f04cde762ef08b6b6c5ded8e8c4c0b3f4e5c9ad7342c88fcc93681b4588b73f0655517f04cde762ef08b6b6c5ded8e8c4c0b3f4e5c9ad7342c88fcc93681b4588b73f0755565b620018a86200181a620019fc565b60098152600a602080830191825261270f604084019081526007600052600490915291517fbeb3bad75134cb432e5707980e3245c52c5998a1125ee30f2f0dbf3925b1e55155517fbeb3bad75134cb432e5707980e3245c52c5998a1125ee30f2f0dbf3925b1e55255517fbeb3bad75134cb432e5707980e3245c52c5998a1125ee30f2f0dbf3925b1e55355565b60056020526802b5e3af16b18800007f89832631fb3c3307a103ba2c84ab569c64d6182a18893dcd163f0f1c2090733a5560046000908152683635c9adc5dea000007f3eec716f11ba9e820c81ca75eb978ffb45831ef8b7a53e5e422c26008e1ca6d5556034556035805460ff1916600117905566038d7ea4c68000602f55600a602c55604051612a70908162001a718239f35b60405162461bcd60e51b815260206004820152601360248201527f6f776e2e696e76616c69642e68657862617365000000000000000000000000006044820152606490fd5b600080fd5b634e487b7160e01b600052604160045260246000fd5b6040519060e082016001600160401b038111838210176200198657604052565b60408051919082016001600160401b038111838210176200198657604052565b6040519060a082016001600160401b038111838210176200198657604052565b60405190606082016001600160401b038111838210176200198657604052565b62001a266200199c565b9060008083528060208401528060408401528060608401528060808401528060a084015260c0830152565b62001a5b620019fc565b9060008252600060208301526000604083015256fe60806040526004361015610018575b361561001657005b005b60003560e01c806307175c83146103e857806309307c62146103e35780630b225f1a146103de5780630ea0d222146103d957806311df44db146103d457806312065fe0146103cf57806314be92a5146103ca57806315a544ed146103c55780631605aed9146103c057806316f0115b146103bb578063192b48ee146103b65780631f185d16146103b157806326c5adae146103ac578063298fc460146103a75780633688236d146103a25780633b9b79551461039d5780634151331d14610398578063438fe1921461039357806343c06bc41461038e57806344ec16bc146103895780634b62954f146103845780634dd4396c1461037f57806353423e861461037a57806354541683146103755780635640dbfc14610370578063592a02a81461036b5780635962205f146103665780635a0e9038146103615780636b81c82f1461035c5780636c7deb5d146103575780636f092c5e146103525780637687e3711461034d57806378ef376f146103485780637bc908c61461034357806388ed3bb51461033e5780638da5cb5b1461033957806391fc8aa8146103345780639319d0b51461032f578063991bf5cc1461032a5780639ce7ce0f146103255780639eb8b44e14610320578063a1f7f5391461031b578063a88fcea614610316578063a9df70b914610311578063aebcd32a1461030c578063af0b21d314610307578063af48452614610302578063b49c064c146102fd578063b5939a37146102f8578063b85f1f8d146102f3578063b90306ad146102ee578063c54e44b0146102e9578063c5a136d4146102e4578063e01ad5fd146102df578063e0a9bc2b146102da578063e2a1f69a146102d5578063eddd0d9c146102d0578063f2a6bbc7146102cb578063f4fe8e3c146102c6578063fc0e74d1146102c15763fdc10bc90361000e57611ee6565b611ec3565b611e19565b611d72565b611ccb565b611c73565b611c58565b611bb9565b611acb565b611a32565b61197f565b61194d565b61192f565b61190c565b6118db565b6118bd565b611878565b6117cb565b6117ad565b611706565b611543565b611441565b611349565b6112a2565b611284565b61125b565b61123d565b61121f565b611178565b6110b4565b611088565b610fe1565b610f07565b610eb7565b610e5f565b610da9565b610d3c565b610d1e565b610d00565b610cbb565b610c0e565b610b67565b610aba565b610a9c565b610a4f565b610a26565b610a08565b610944565b610878565b610779565b6106c1565b610669565b61064b565b61062d565b610586565b61056a565b61050e565b6104f0565b6104d2565b61040b565b34610406576000366003190112610406576020602c54604051908152f35b600080fd5b346104065760403660031901126104065761042c6104276120e9565b612574565b61043533612214565b8015610456575b610445906125b5565b610016602435600435602f55603055565b50600054604051630536340960e21b8152906001600160a01b03906020908390600490829085165afa9081156104cd576104459260009261049d575b50163314905061043c565b6104bf91925060203d81116104c6575b6104b78183612004565b810190612026565b9038610492565b503d6104ad565b61203e565b34610406576000366003190112610406576020603454604051908152f35b34610406576000366003190112610406576020602a54604051908152f35b3461040657600036600319011261040657600e54600f54601054601154601254601354601454604080519788526020880196909652948601939093526060850191909152608084015260a083015260c082015260e090f35b0390f35b3461040657600036600319011261040657602047604051908152f35b34610406576020366003190112610406576105a26104276120e9565b6105ab33612214565b80156105c6575b6105bb906125b5565b610016600435602a55565b50600054604051630536340960e21b8152906001600160a01b03906020908390600490829085165afa9081156104cd576105bb9260009261060d575b5016331490506105b2565b61062691925060203d81116104c6576104b78183612004565b9038610602565b34610406576000366003190112610406576020603054604051908152f35b34610406576000366003190112610406576020602f54604051908152f35b3461040657600036600319011261040657600754600854600954600a54600b54600c54600d54604080519788526020880196909652948601939093526060850191909152608084015260a083015260c082015260e090f35b34610406576020366003190112610406576106dd6104276120e9565b6106e633612214565b8015610701575b6106f6906125b5565b610016600435612647565b50600054604051630536340960e21b8152906001600160a01b03906020908390600490829085165afa9081156104cd576106f692600092610748575b5016331490506106ed565b61076191925060203d81116104c6576104b78183612004565b903861073d565b6001600160a01b0381160361040657565b34610406576020806003193601126104065760049081359061079a82610768565b60005481906001600160a01b0316604051634bf9c0ad60e11b815294859182905afa9182156104cd576107ff6108399361081b9261056696600092610855575b506040516001600160a01b03909116858201908152909261080d918491602090910190565b03601f198101845283612004565b6108156122c0565b90612460565b91908061084b575b61082c906122ed565b80825183010191016120d4565b60405190151581529081906020820190565b5081518114610823565b61080d91925061087190863d88116104c6576104b78183612004565b91906107da565b34610406576020366003190112610406576000546040516369e8d84b60e11b815290602090829060049082906001600160a01b03165afa80156104cd576108e861090c916105669360009161091c575b50604051906108d682611fcc565b600082526108e26129ec565b90612536565b610907600435916109026108fd602c54612601565b612601565b612a1a565b612634565b6040519081529081906020820190565b610934915060203d81116104c6576104b78183612004565b386108c8565b8015150361040657565b34610406576020366003190112610406576004356109618161093a565b61096c6104276120e9565b61097533612214565b801561099b575b90610989610016926125b5565b60ff8019603554169115151617603555565b50600054604051630536340960e21b81526001600160a01b0392916020908290600490829087165afa80156104cd5761001693610989926000926109e8575b50339116149192505061097c565b610a0191925060203d81116104c6576104b78183612004565b90386109da565b34610406576000366003190112610406576020602954604051908152f35b34610406576000366003190112610406576000546040516001600160a01b039091168152602090f35b346104065760203660031901126104065760043560005260046020526040600020805461056660026001840154930154604051938493846040919493926060820195825260208201520152565b34610406576000366003190112610406576020602754604051908152f35b3461040657606036600319011261040657610ad66104276120e9565b610adf33612214565b8015610b00575b610aef906125b5565b610016604435602435600435612750565b50600054604051630536340960e21b8152906001600160a01b03906020908390600490829085165afa9081156104cd57610aef92600092610b47575b501633149050610ae6565b610b6091925060203d81116104c6576104b78183612004565b9038610b3c565b3461040657602036600319011261040657610b836104276120e9565b610b8c33612214565b8015610ba7575b610b9c906125b5565b610016600435602655565b50600054604051630536340960e21b8152906001600160a01b03906020908390600490829085165afa9081156104cd57610b9c92600092610bee575b501633149050610b93565b610c0791925060203d81116104c6576104b78183612004565b9038610be3565b3461040657604036600319011261040657610c2a6104276120e9565b610c3333612214565b8015610c54575b610c43906125b5565b610016602435600435602855602955565b50600054604051630536340960e21b8152906001600160a01b03906020908390600490829085165afa9081156104cd57610c4392600092610c9b575b501633149050610c3a565b610cb491925060203d81116104c6576104b78183612004565b9038610c90565b3461040657602036600319011261040657600435600052602e602052604060002060018154910154906105666040519283928360209093929193604081019481520152565b34610406576000366003190112610406576020602b54604051908152f35b34610406576000366003190112610406576020602654604051908152f35b346104065760003660031901126104065760e060225460235460405191825260ff9081811615156020840152818160081c1615156040840152818160101c1615156060840152818160181c1615156080840152818160201c16151560a084015260281c16151560c0820152f35b346104065760c036600319011261040657610dc56104276120e9565b610dce33612214565b8015610df8575b610dde906125b5565b61001660a435608435606435604435602435600435612655565b50600054604051630536340960e21b8152906001600160a01b03906020908390600490829085165afa9081156104cd57610dde92600092610e3f575b501633149050610dd5565b610e5891925060203d81116104c6576104b78183612004565b9038610e34565b3461040657602036600319011261040657600435600052600660205260a06040600020805490600181015490600281015460046003830154920154926040519485526020850152604084015260608301526080820152f35b3461040657600036600319011261040657601c54601d54601e5460408051938452602084019290925290820152606090f35b60809060031901126104065760043590602435906044359060643590565b3461040657610f1536610ee9565b92610f246104279392936120e9565b610f2d33612214565b8015610f75575b90610f406002926125b5565b610f48612898565b5060018114610f64575b14610f5957005b601f55602055602155005b82601c5583601d5584601e55610f52565b50600054604051630536340960e21b81526001600160a01b0392916020908290600490829087165afa80156104cd57600293610f4092600092610fc1575b503391161491925050610f34565b610fda91925060203d81116104c6576104b78183612004565b9038610fb3565b3461040657602036600319011261040657610ffd6104276120e9565b61100633612214565b8015611021575b611016906125b5565b610016600435602b55565b50600054604051630536340960e21b8152906001600160a01b03906020908390600490829085165afa9081156104cd5761101692600092611068575b50163314905061100d565b61108191925060203d81116104c6576104b78183612004565b903861105d565b346104065760203660031901126104065760043560005260056020526020604060002054604051908152f35b34610406576020366003190112610406576004356110d18161093a565b6110dc6104276120e9565b6110e533612214565b801561110b575b906110f9610016926125b5565b60ff8019602454169115151617602455565b50600054604051630536340960e21b81526001600160a01b0392916020908290600490829087165afa80156104cd57610016936110f992600092611158575b5033911614919250506110ec565b61117191925060203d81116104c6576104b78183612004565b903861114a565b34610406576020366003190112610406576111946104276120e9565b61119d33612214565b80156111b8575b6111ad906125b5565b610016600435603155565b50600054604051630536340960e21b8152906001600160a01b03906020908390600490829085165afa9081156104cd576111ad926000926111ff575b5016331490506111a4565b61121891925060203d81116104c6576104b78183612004565b90386111f4565b34610406576000366003190112610406576020603154604051908152f35b34610406576000366003190112610406576020603254604051908152f35b34610406576000366003190112610406576001546040516001600160a01b039091168152602090f35b34610406576000366003190112610406576020602d54604051908152f35b34610406576020366003190112610406576112be6104276120e9565b6112c733612214565b80156112e2575b6112d7906125b5565b610016600435602755565b50600054604051630536340960e21b8152906001600160a01b03906020908390600490829085165afa9081156104cd576112d792600092611329575b5016331490506112ce565b61134291925060203d81116104c6576104b78183612004565b903861131e565b346104065760e0366003190112610406576024356113668161093a565b6044356113728161093a565b60643561137e8161093a565b60843561138a8161093a565b60a435916113978361093a565b60c435936113a48561093a565b6113af6104276120e9565b6113b833612214565b80156113d4575b956113cc610016976125b5565b60043561279f565b50600054604051630536340960e21b81526001600160a01b039791602090829060049082908c165afa80156104cd57610016986113cc92600092611421575b5033911614919750506113bf565b61143a91925060203d81116104c6576104b78183612004565b9038611413565b34610406576101003660031901126104065761145e6104276120e9565b61146733612214565b8015611497575b611477906125b5565b61001660e43560c43560a4356084356064356044356024356004356128fb565b50600054604051630536340960e21b8152906001600160a01b03906020908390600490829085165afa9081156104cd57611477926000926114de575b50163314905061146e565b6114f791925060203d81116104c6576104b78183612004565b90386114d3565b6102a0810192916000915b6007831061151657505050565b60019060608351918251815260209283810151848301526040809101519082015201920192019190611509565b346104065760003660031901126104065760405161156081611f8f565b60005b60e081106116f15761056661157661204a565b600160005260046020526115ae7fabd6e7cb50984ff9c2f3e18a2660c3353dadf4e3291deeb275dae2cd1e44fe056128b7565b6128b7565b8152600260005260046020526115e37f91da3fd0782e51c6b3986e9e672fd566868e71f3dbc2d6c2cd6fbb3e361af2a76128b7565b60208201526116006115a960036000526004602052604060002090565b6040820152600460008190526020526116387f1a1e6821cde7d0159c0d293177871e09677b4e42307c7db3ba94f8648a5a050f6128b7565b6060820152600560005260046020526116707f04cde762ef08b6b6c5ded8e8c4c0b3f4e5c9ad7342c88fcc93681b4588b73f056128b7565b6080820152600660005260046020526116a87fc59312466997bb42aaaf719ece141047820e6b34531e1670dc1852a453648f0f6128b7565b60a0820152600760005260046020526116e07fbeb3bad75134cb432e5707980e3245c52c5998a1125ee30f2f0dbf3925b1e5516128b7565b60c0820152604051918291826114fe565b6020906116fc612898565b8184015201611563565b346104065760003660031901126104065760005460405163d1f956b160e01b815290602090829060049082906001600160a01b03165afa9081156104cd576105669161090c9160009161178f575b5060405161176181611fe8565b601381527267657464656c656761746f72436f756e74282960681b6020820152611789612075565b91612536565b6117a7915060203d81116104c6576104b78183612004565b38611754565b34610406576000366003190112610406576020602854604051908152f35b34610406576040366003190112610406576117e76104276120e9565b6117f033612214565b8015611811575b611800906125b5565b610016602435600435603255603355565b50600054604051630536340960e21b8152906001600160a01b03906020908390600490829085165afa9081156104cd5761180092600092611858575b5016331490506117f7565b61187191925060203d81116104c6576104b78183612004565b903861184d565b34610406576020366003190112610406576004356000526003602052604060002060018154910154906105666040519283928360209093929193604081019481520152565b34610406576000366003190112610406576020602554604051908152f35b346104065760203660031901126104065760206119026004356118fd81610768565b612214565b6040519015158152f35b3461040657600036600319011261040657602060ff603554166040519015158152f35b34610406576000366003190112610406576020603354604051908152f35b3461040657600036600319011261040657601f5460208054602154604080519485529284019190915290820152606090f35b3461040657602036600319011261040657600054604051630536340960e21b8152906001600160a01b03906020908390600490829085165afa9182156104cd57600092611a12575b50339116036119db5761001660043561238f565b60405162461bcd60e51b815260206004820152600f60248201526e6f776e2e6e6f6e617574682e44414f60881b6044820152606490fd5b611a2b91925060203d81116104c6576104b78183612004565b90386119c7565b3461040657602036600319011261040657600435611a4f81610768565b803b6000611a5c82612059565b92611a6a6040519485612004565b82845260208401903c602d815110611a9057602a015160405160609190911c8152602090f35b60405162461bcd60e51b81526020600482015260136024820152724e6f742061206d696e696d616c2070726f787960681b6044820152606490fd5b3461040657611ad936610ee9565b90611ae86104279493946120e9565b611af133612214565b8015611b4d575b92611b046002946125b5565b611b1060088210612715565b60405194611b1d86611fb0565b85526020850191825260408501928352600052600460205260406000209351845551600184015551910155600080f35b50600054604051630536340960e21b81526001600160a01b0394916020908290600490829089165afa80156104cd57600295611b0492600092611b99575b503391161491945050611af8565b611bb291925060203d81116104c6576104b78183612004565b9038611b8b565b34610406576020806003193601126104065760048035611bd881610768565b60005460405163d1f956b160e01b81526001600160a01b03949093909182918591829088165afa9081156104cd576105669461083994600093611c39575b506040519316818401528252611c2b82611fe8565b611c33612332565b906124fa565b611c51919350823d84116104c6576104b78183612004565b9138611c16565b346104065760003660031901126104065760206119026120e9565b3461040657600036600319011261040657601554601654601754601854601954601a54601b54604080519788526020880196909652948601939093526060850191909152608084015260a083015260c082015260e090f35b3461040657602036600319011261040657611ce76104276120e9565b611cf033612214565b8015611d0b575b611d00906125b5565b610016600435602c55565b50600054604051630536340960e21b8152906001600160a01b03906020908390600490829085165afa9081156104cd57611d0092600092611d52575b501633149050611cf7565b611d6b91925060203d81116104c6576104b78183612004565b9038611d47565b3461040657602036600319011261040657611d8e6104276120e9565b611d9733612214565b8015611db2575b611da7906125b5565b610016600435603455565b50600054604051630536340960e21b8152906001600160a01b03906020908390600490829085165afa9081156104cd57611da792600092611df9575b501633149050611d9e565b611e1291925060203d81116104c6576104b78183612004565b9038611dee565b3461040657604036600319011261040657611e356104276120e9565b611e3e33612214565b8015611e5c575b611e4e906125b5565b6100166024356004356128df565b50600054604051630536340960e21b8152906001600160a01b03906020908390600490829085165afa9081156104cd57611e4e92600092611ea3575b501633149050611e45565b611ebc91925060203d81116104c6576104b78183612004565b9038611e98565b3461040657600036600319011261040657602060ff602454166040519015158152f35b346104065760003660031901126104065760005460405163111ea8c160e21b815290602090829060049082906001600160a01b03165afa9081156104cd576105669161090c91600091611f5b575b50604051611f4181611fe8565b6005815264616765282960d81b6020820152611789612075565b611f73915060203d81116104c6576104b78183612004565b38611f34565b634e487b7160e01b600052604160045260246000fd5b60e0810190811067ffffffffffffffff821117611fab57604052565b611f79565b6060810190811067ffffffffffffffff821117611fab57604052565b6020810190811067ffffffffffffffff821117611fab57604052565b6040810190811067ffffffffffffffff821117611fab57604052565b90601f8019910116810190811067ffffffffffffffff821117611fab57604052565b90816020910312610406575161203b81610768565b90565b6040513d6000823e3d90fd5b6040519061205782611f8f565b565b67ffffffffffffffff8111611fab57601f01601f191660200190565b6040519061208282611fcc565b60008252565b1561208f57565b60405162461bcd60e51b815260206004820152601960248201527f6f776e2e7361666567756172642e63616c6c2e6661696c6564000000000000006044820152606490fd5b90816020910312610406575161203b8161093a565b600054604051634bf9c0ad60e11b8152906020908190839060049082906001600160a01b03165afa9182156104cd5761203b9261215f9160009161217a575b5060405161213581611fe8565b6008815267697353616665282960c01b848201526040519161215683611fcc565b60008352612460565b919080612170575b61082c90612088565b5081518114612167565b6121919150833d85116104c6576104b78183612004565b38612128565b604051906121a482611fe8565b601582527469735365637572654261736528616464726573732960581b6020830152565b156121cf57565b60405162461bcd60e51b815260206004820152601a60248201527f6f776e2e736563757265626173652e63616c6c2e6661696c65640000000000006044820152606490fd5b6000546001600160a01b0316604051918291634bf9c0ad60e11b835282600460209485935afa9283156104cd5761203b93612282926107ff9260009261229d575b506040516001600160a01b03909116858201908152909261227a918491602090910190565b610815612197565b919080612293575b61082c906121c8565b508151811461228a565b61227a9192506122b990863d88116104c6576104b78183612004565b9190612255565b604051906122cd82611fe8565b601182527069735369676e657228616464726573732960781b6020830152565b156122f457565b60405162461bcd60e51b81526020600482015260166024820152751bdddb8b9cda59db995c8b98d85b1b0b99985a5b195960521b6044820152606490fd5b6040519061233f82611fe8565b6011825270697364656c656761746f724e6f6465282960781b6020830152565b3d1561238a573d9061237082612059565b9161237e6040519384612004565b82523d6000602084013e565b606090565b600080546040516311be646b60e21b815290602090829060049082906001600160a01b03165afa9081156104cd578284819382938391612442575b505af16123d561235f565b501561240b5760405190815233907fcdcc745fe377b103b45fa0cec23ae3ef93d6fc6a84a01f0d18c40b354dd1d5d890602090a2565b60405162461bcd60e51b815260206004820152600f60248201526e1bdddb8b989d5c9b8b99985a5b1959608a1b6044820152606490fd5b61245a915060203d81116104c6576104b78183612004565b386123ca565b9190823b156124e1578051906020918263ffffffff60e01b92012016916040519180830193845281519160005b8381106124cd5750505091816124ba60248260009795968897018783820152036004810184520182612004565b5191620dbba0fa6124c961235f565b9091565b81810183015185820160240152820161248d565b5050506000906040516124f381611fcc565b6000815290565b929161250891600094612460565b908061252b575b6125165750565b61203b919250602080825183010191016120d4565b50602081511461250f565b929161254491600094612460565b9080612569575b6125525750565b909150602081805181010312610406576020015190565b50602081511461254b565b1561257b57565b60405162461bcd60e51b81526020600482015260126024820152716f776e2e696e76616c69642e69735361666560701b6044820152606490fd5b156125bc57565b60405162461bcd60e51b815260206004820152601b60248201527f6f776e2e6e6f6e617574682e44414f6f725365637572656261736500000000006044820152606490fd5b90670de0b6b3a76400009182810292818404149015171561261e57565b634e487b7160e01b600052601160045260246000fd5b8181029291811591840414171561261e57565b61265090612601565b602d55565b91929394909460108310156126e0576040519460a086019486861067ffffffffffffffff871117611fab57612057976126b196604052875260208701526040860152606085015260808401526000526006602052604060002090565b906080600491805184556020810151600185015560408101516002850155606081015160038501550151910155565b60405162461bcd60e51b815260206004820152600d60248201526c1a5b9d985b1a59081b195d995b609a1b6044820152606490fd5b1561271c57565b60405162461bcd60e51b815260206004820152600c60248201526b696e76616c69642072616e6b60a01b6044820152606490fd5b9161275d60088410612715565b60405192604084019284841067ffffffffffffffff851117611fab57600193604052845260208401918252600052600360205260406000209251835551910155565b6128779461205797946128106128589561283b9460c09a96604051906127c482611f8f565b8282521515928360208301521515948560408301521515958660608301521515978860808301521515998a60a083015215159b8c91015260225560ff8019602354169115151617602355565b6023805462ffff00191660089290921b61ff00169190911791151560101b62ff000016919091179055565b63ff00000060235491151560181b169063ff000000191617602355565b64ff0000000060235491151560201b169064ff00000000191617602355565b65ff000000000060235491151560281b169065ff0000000000191617602355565b604051906128a582611fb0565b60006040838281528260208201520152565b906040516128c481611fb0565b60406002829480548452600181015460208501520154910152565b6128eb60088210612715565b6000526005602052604060002055565b9491926003969397949197604051986129138a611f8f565b808a528160208b01528260408b01528360608b01528460808b01528560a08b01528660c08b0152600188146129cb575b5050505050505060028114612991575b1461295b5750565b8051601555602081015160165560408101516017556060810151601855608081015160195560a0810151601a5560c00151601b55565b8251600e556020830151600f5560408301516010556060830151601155608083015160125560a083015160135560c0830151601455612953565b600755600855600955600a55600b55600c55600d5538808080808080612943565b604051906129f982611fe8565b60128252716f7a6f6e655072696365496e55534454282960701b6020830152565b8115612a24570490565b634e487b7160e01b600052601260045260246000fdfea2646970667358221220f767239548e5a222295fa7efb89ae3030c05b1c5114cbad8e00b5596a1cbe89164736f6c63430008140033","linkReferences":{}},"methodIdentifiers":{"Burn(uint256)":"b90306ad","NFTSendPerCycle()":"438fe192","_delegatorCount()":"a1f7f539","_getImplementation(address)":"c54e44b0","_isDelegatorNode(address)":"e01ad5fd","_isSafe()":"e0a9bc2b","_isSecureBase(address)":"af484526","_isSigner(address)":"1f185d16","allowForceTransfer()":"b49c064c","capOnRank(uint256)":"4dd4396c","capping()":"5640dbfc","computeMintValue(uint256)":"26c5adae","delegateamtprivate()":"88ed3bb5","delegateamtpublic()":"b5939a37","eachclaimCycle()":"7bc908c6","freeIntervals()":"af0b21d3","getBalance()":"12065fe0","getBatchRoyaltyClauses()":"9eb8b44e","getHexbase()":"3b9b7955","levelClause(uint256)":"5962205f","maxClaimPerDay()":"15a544ed","maxGlobalClaimPerDay()":"91fc8aa8","maxMintQty()":"3688236d","maxMintsPerCycle()":"53423e86","maxNFTSend()":"54541683","minClaimPerDay()":"1605aed9","minMintQty()":"a88fcea6","mintCycleDays()":"0ea0d222","mintFeePerQty()":"07175c83","owner()":"8da5cb5b","pool()":"16f0115b","poolNFT1()":"5a0e9038","poolNFT2()":"b85f1f8d","poolValprivate()":"11df44db","poolValpublic()":"e2a1f69a","rankClause(uint256)":"aebcd32a","rankforDAO()":"0b225f1a","royalityClause(uint256)":"4151331d","setAllowForceTransfer(bool)":"298fc460","setCapping(uint256,bool,bool,bool,bool,bool,bool)":"991bf5cc","setClaimPerDay(uint256,uint256)":"09307c62","setCoinPool(uint256,uint256,uint256,uint256,uint256,uint256,uint256,uint256)":"9ce7ce0f","setGlobalClaimPerDay(uint256)":"192b48ee","setMaxMintsPerCycle(uint256)":"6c7deb5d","setMaxNFTSend(uint256)":"44ec16bc","setMintCycleDays(uint256)":"14be92a5","setMintFee(uint256)":"eddd0d9c","setMintQty(uint256,uint256)":"4b62954f","setNFTSendPerCycle(uint256)":"9319d0b5","setNftPool(uint256,uint256,uint256,uint256)":"6b81c82f","setRoyalityClause(uint256,uint256,uint256,uint256)":"c5a136d4","setTourClause(uint256,uint256)":"f4fe8e3c","setclaimCycle(uint256)":"78ef376f","setlevelClause(uint256,uint256,uint256,uint256,uint256,uint256)":"592a02a8","setrankClause(uint256,uint256,uint256)":"43c06bc4","setrankforDAO(uint256)":"f2a6bbc7","setshutdown(bool)":"7687e371","setvalidatorPrice(uint256,uint256)":"a9df70b9","shutdown()":"fc0e74d1","systemAge()":"fdc10bc9","tourClause(uint256)":"6f092c5e"},"id":35}