{"abi":[{"type":"constructor","inputs":[{"name":"_hex","type":"address","internalType":"address"}],"stateMutability":"nonpayable"},{"type":"fallback","stateMutability":"payable"},{"type":"receive","stateMutability":"payable"},{"type":"function","name":"Burn","inputs":[{"name":"amount","type":"uint256","internalType":"uint256"}],"outputs":[],"stateMutability":"nonpayable"},{"type":"function","name":"NFTSendPerCycle","inputs":[],"outputs":[{"name":"","type":"uint256","internalType":"uint256"}],"stateMutability":"view"},{"type":"function","name":"_delegatorCount","inputs":[],"outputs":[{"name":"","type":"uint256","internalType":"uint256"}],"stateMutability":"view"},{"type":"function","name":"_getImplementation","inputs":[{"name":"clone","type":"address","internalType":"address"}],"outputs":[{"name":"impl","type":"address","internalType":"address"}],"stateMutability":"view"},{"type":"function","name":"_isDelegatorNode","inputs":[{"name":"sender","type":"address","internalType":"address"}],"outputs":[{"name":"","type":"bool","internalType":"bool"}],"stateMutability":"view"},{"type":"function","name":"_isSafe","inputs":[],"outputs":[{"name":"","type":"bool","internalType":"bool"}],"stateMutability":"view"},{"type":"function","name":"_isSecureBase","inputs":[{"name":"sender","type":"address","internalType":"address"}],"outputs":[{"name":"","type":"bool","internalType":"bool"}],"stateMutability":"view"},{"type":"function","name":"_isSigner","inputs":[{"name":"sender","type":"address","internalType":"address"}],"outputs":[{"name":"","type":"bool","internalType":"bool"}],"stateMutability":"view"},{"type":"function","name":"allowForceTransfer","inputs":[],"outputs":[{"name":"","type":"bool","internalType":"bool"}],"stateMutability":"view"},{"type":"function","name":"capping","inputs":[],"outputs":[{"name":"multiple","type":"uint256","internalType":"uint256"},{"name":"rw","type":"bool","internalType":"bool"},{"name":"ry","type":"bool","internalType":"bool"},{"name":"self","type":"bool","internalType":"bool"},{"name":"yei","type":"bool","internalType":"bool"},{"name":"val","type":"bool","internalType":"bool"},{"name":"tour","type":"bool","internalType":"bool"}],"stateMutability":"view"},{"type":"function","name":"computeMintValue","inputs":[{"name":"_qty","type":"uint256","internalType":"uint256"}],"outputs":[{"name":"","type":"uint256","internalType":"uint256"}],"stateMutability":"view"},{"type":"function","name":"computeTour","inputs":[{"name":"_r","type":"uint256","internalType":"uint256"}],"outputs":[{"name":"","type":"uint256","internalType":"uint256"}],"stateMutability":"view"},{"type":"function","name":"eachclaimCycle","inputs":[],"outputs":[{"name":"","type":"uint256","internalType":"uint256"}],"stateMutability":"view"},{"type":"function","name":"freeIntervals","inputs":[],"outputs":[{"name":"","type":"uint256","internalType":"uint256"}],"stateMutability":"view"},{"type":"function","name":"getBalance","inputs":[],"outputs":[{"name":"","type":"uint256","internalType":"uint256"}],"stateMutability":"view"},{"type":"function","name":"getBatchRoyaltyClauses","inputs":[],"outputs":[{"name":"clauses","type":"tuple[7]","internalType":"struct lib741Rules.RoyalityStr[7]","components":[{"name":"rwNum","type":"uint256","internalType":"uint256"},{"name":"rwDen","type":"uint256","internalType":"uint256"},{"name":"rwEnd","type":"uint256","internalType":"uint256"}]}],"stateMutability":"view"},{"type":"function","name":"getHexbase","inputs":[],"outputs":[{"name":"","type":"address","internalType":"address"}],"stateMutability":"view"},{"type":"function","name":"getLevelIncomeOnRank","inputs":[],"outputs":[{"name":"","type":"uint256","internalType":"uint256"},{"name":"","type":"uint256","internalType":"uint256"}],"stateMutability":"view"},{"type":"function","name":"levelClause","inputs":[{"name":"","type":"uint256","internalType":"uint256"}],"outputs":[{"name":"rank","type":"uint256","internalType":"uint256"},{"name":"rwNum","type":"uint256","internalType":"uint256"},{"name":"rwrDen","type":"uint256","internalType":"uint256"},{"name":"yeiNum","type":"uint256","internalType":"uint256"},{"name":"yeiDen","type":"uint256","internalType":"uint256"}],"stateMutability":"view"},{"type":"function","name":"lvlincrankmax","inputs":[],"outputs":[{"name":"","type":"uint256","internalType":"uint256"}],"stateMutability":"view"},{"type":"function","name":"lvlincrankmin","inputs":[],"outputs":[{"name":"","type":"uint256","internalType":"uint256"}],"stateMutability":"view"},{"type":"function","name":"maxClaimPerDay","inputs":[],"outputs":[{"name":"","type":"uint256","internalType":"uint256"}],"stateMutability":"view"},{"type":"function","name":"maxGlobalClaimPerDay","inputs":[],"outputs":[{"name":"","type":"uint256","internalType":"uint256"}],"stateMutability":"view"},{"type":"function","name":"maxMintQty","inputs":[],"outputs":[{"name":"","type":"uint256","internalType":"uint256"}],"stateMutability":"view"},{"type":"function","name":"maxMintsPerCycle","inputs":[],"outputs":[{"name":"","type":"uint256","internalType":"uint256"}],"stateMutability":"view"},{"type":"function","name":"maxNFTSend","inputs":[],"outputs":[{"name":"","type":"uint256","internalType":"uint256"}],"stateMutability":"view"},{"type":"function","name":"minClaimPerDay","inputs":[],"outputs":[{"name":"","type":"uint256","internalType":"uint256"}],"stateMutability":"view"},{"type":"function","name":"minMintQty","inputs":[],"outputs":[{"name":"","type":"uint256","internalType":"uint256"}],"stateMutability":"view"},{"type":"function","name":"mintCycleDays","inputs":[],"outputs":[{"name":"","type":"uint256","internalType":"uint256"}],"stateMutability":"view"},{"type":"function","name":"mintFeePerQty","inputs":[],"outputs":[{"name":"","type":"uint256","internalType":"uint256"}],"stateMutability":"view"},{"type":"function","name":"owner","inputs":[],"outputs":[{"name":"","type":"address","internalType":"address"}],"stateMutability":"view"},{"type":"function","name":"pool","inputs":[],"outputs":[{"name":"startafter","type":"uint256","internalType":"uint256"},{"name":"stakeN","type":"uint256","internalType":"uint256"},{"name":"stakeD","type":"uint256","internalType":"uint256"},{"name":"roiN","type":"uint256","internalType":"uint256"},{"name":"roiD","type":"uint256","internalType":"uint256"},{"name":"roiInt","type":"uint256","internalType":"uint256"},{"name":"roiEnd","type":"uint256","internalType":"uint256"}],"stateMutability":"view"},{"type":"function","name":"poolNFT1","inputs":[],"outputs":[{"name":"roiN","type":"uint256","internalType":"uint256"},{"name":"roiD","type":"uint256","internalType":"uint256"},{"name":"roiInt","type":"uint256","internalType":"uint256"}],"stateMutability":"view"},{"type":"function","name":"poolNFT2","inputs":[],"outputs":[{"name":"roiN","type":"uint256","internalType":"uint256"},{"name":"roiD","type":"uint256","internalType":"uint256"},{"name":"roiInt","type":"uint256","internalType":"uint256"}],"stateMutability":"view"},{"type":"function","name":"rankClause","inputs":[{"name":"","type":"uint256","internalType":"uint256"}],"outputs":[{"name":"direct","type":"uint256","internalType":"uint256"},{"name":"nftAmount","type":"uint256","internalType":"uint256"}],"stateMutability":"view"},{"type":"function","name":"rankforDAO","inputs":[],"outputs":[{"name":"","type":"uint256","internalType":"uint256"}],"stateMutability":"view"},{"type":"function","name":"royalityClause","inputs":[{"name":"","type":"uint256","internalType":"uint256"}],"outputs":[{"name":"rwNum","type":"uint256","internalType":"uint256"},{"name":"rwDen","type":"uint256","internalType":"uint256"},{"name":"rwEnd","type":"uint256","internalType":"uint256"}],"stateMutability":"view"},{"type":"function","name":"setAllowForceTransfer","inputs":[{"name":"_f","type":"bool","internalType":"bool"}],"outputs":[],"stateMutability":"nonpayable"},{"type":"function","name":"setCapping","inputs":[{"name":"_multiple","type":"uint256","internalType":"uint256"},{"name":"_rw","type":"bool","internalType":"bool"},{"name":"_ry","type":"bool","internalType":"bool"},{"name":"_self","type":"bool","internalType":"bool"},{"name":"_yei","type":"bool","internalType":"bool"},{"name":"_val","type":"bool","internalType":"bool"},{"name":"_tour","type":"bool","internalType":"bool"}],"outputs":[],"stateMutability":"nonpayable"},{"type":"function","name":"setClaimPerDay","inputs":[{"name":"_min","type":"uint256","internalType":"uint256"},{"name":"_max","type":"uint256","internalType":"uint256"}],"outputs":[],"stateMutability":"nonpayable"},{"type":"function","name":"setFreeIntervals","inputs":[{"name":"_d","type":"uint256","internalType":"uint256"}],"outputs":[],"stateMutability":"nonpayable"},{"type":"function","name":"setGlobalClaimPerDay","inputs":[{"name":"_ac","type":"uint256","internalType":"uint256"}],"outputs":[],"stateMutability":"nonpayable"},{"type":"function","name":"setLevelIncomeOnRank","inputs":[{"name":"_min","type":"uint256","internalType":"uint256"},{"name":"_max","type":"uint256","internalType":"uint256"}],"outputs":[],"stateMutability":"nonpayable"},{"type":"function","name":"setMaxMintsPerCycle","inputs":[{"name":"_max","type":"uint256","internalType":"uint256"}],"outputs":[],"stateMutability":"nonpayable"},{"type":"function","name":"setMaxNFTSend","inputs":[{"name":"_d","type":"uint256","internalType":"uint256"}],"outputs":[],"stateMutability":"nonpayable"},{"type":"function","name":"setMintCycleDays","inputs":[{"name":"_d","type":"uint256","internalType":"uint256"}],"outputs":[],"stateMutability":"nonpayable"},{"type":"function","name":"setMintFee","inputs":[{"name":"_fe","type":"uint256","internalType":"uint256"}],"outputs":[],"stateMutability":"nonpayable"},{"type":"function","name":"setMintQty","inputs":[{"name":"_min","type":"uint256","internalType":"uint256"},{"name":"_max","type":"uint256","internalType":"uint256"}],"outputs":[],"stateMutability":"nonpayable"},{"type":"function","name":"setNFTSendPerCycle","inputs":[{"name":"_d","type":"uint256","internalType":"uint256"}],"outputs":[],"stateMutability":"nonpayable"},{"type":"function","name":"setNftPool","inputs":[{"name":"_type","type":"uint256","internalType":"uint256"},{"name":"_roiN","type":"uint256","internalType":"uint256"},{"name":"_roiD","type":"uint256","internalType":"uint256"},{"name":"_roiInt","type":"uint256","internalType":"uint256"}],"outputs":[],"stateMutability":"nonpayable"},{"type":"function","name":"setRoyalityClause","inputs":[{"name":"_rank","type":"uint256","internalType":"uint256"},{"name":"_rwNum","type":"uint256","internalType":"uint256"},{"name":"_rwDen","type":"uint256","internalType":"uint256"},{"name":"_rwEnd","type":"uint256","internalType":"uint256"}],"outputs":[],"stateMutability":"nonpayable"},{"type":"function","name":"setTourClause","inputs":[{"name":"_rank","type":"uint256","internalType":"uint256"},{"name":"_tw","type":"uint256","internalType":"uint256"}],"outputs":[],"stateMutability":"nonpayable"},{"type":"function","name":"setValidatorPool","inputs":[{"name":"_type","type":"uint256","internalType":"uint256"},{"name":"_qty","type":"uint256","internalType":"uint256"},{"name":"_roiN","type":"uint256","internalType":"uint256"},{"name":"_roiD","type":"uint256","internalType":"uint256"},{"name":"_roiInt","type":"uint256","internalType":"uint256"}],"outputs":[],"stateMutability":"nonpayable"},{"type":"function","name":"setclaimCycle","inputs":[{"name":"_d","type":"uint256","internalType":"uint256"}],"outputs":[],"stateMutability":"nonpayable"},{"type":"function","name":"setlevelClause","inputs":[{"name":"lvl","type":"uint256","internalType":"uint256"},{"name":"_rank","type":"uint256","internalType":"uint256"},{"name":"_rpernum","type":"uint256","internalType":"uint256"},{"name":"_rperden","type":"uint256","internalType":"uint256"},{"name":"_ypernum","type":"uint256","internalType":"uint256"},{"name":"_yperden","type":"uint256","internalType":"uint256"}],"outputs":[],"stateMutability":"nonpayable"},{"type":"function","name":"setrankClause","inputs":[{"name":"rank","type":"uint256","internalType":"uint256"},{"name":"direct","type":"uint256","internalType":"uint256"},{"name":"nftAmount","type":"uint256","internalType":"uint256"}],"outputs":[],"stateMutability":"nonpayable"},{"type":"function","name":"setrankforDAO","inputs":[{"name":"_r","type":"uint256","internalType":"uint256"}],"outputs":[],"stateMutability":"nonpayable"},{"type":"function","name":"setshutdown","inputs":[{"name":"_shutdown","type":"bool","internalType":"bool"}],"outputs":[],"stateMutability":"nonpayable"},{"type":"function","name":"shutdown","inputs":[],"outputs":[{"name":"","type":"bool","internalType":"bool"}],"stateMutability":"view"},{"type":"function","name":"systemAge","inputs":[],"outputs":[{"name":"","type":"uint256","internalType":"uint256"}],"stateMutability":"view"},{"type":"function","name":"tourClause","inputs":[{"name":"","type":"uint256","internalType":"uint256"}],"outputs":[{"name":"","type":"uint256","internalType":"uint256"}],"stateMutability":"view"},{"type":"function","name":"valExternal","inputs":[],"outputs":[{"name":"qty","type":"uint256","internalType":"uint256"},{"name":"roiN","type":"uint256","internalType":"uint256"},{"name":"roiD","type":"uint256","internalType":"uint256"},{"name":"roiInt","type":"uint256","internalType":"uint256"}],"stateMutability":"view"},{"type":"function","name":"valInternal","inputs":[],"outputs":[{"name":"qty","type":"uint256","internalType":"uint256"},{"name":"roiN","type":"uint256","internalType":"uint256"},{"name":"roiD","type":"uint256","internalType":"uint256"},{"name":"roiInt","type":"uint256","internalType":"uint256"}],"stateMutability":"view"},{"type":"event","name":"EthBurned","inputs":[{"name":"sender","type":"address","indexed":true,"internalType":"address"},{"name":"amount","type":"uint256","indexed":false,"internalType":"uint256"}],"anonymous":false},{"type":"event","name":"EthTransferred","inputs":[{"name":"to","type":"address","indexed":true,"internalType":"address"},{"name":"amount","type":"uint256","indexed":false,"internalType":"uint256"}],"anonymous":false},{"type":"event","name":"HexBaseUpdated","inputs":[{"name":"previousHexBase","type":"address","indexed":true,"internalType":"address"},{"name":"newHexBase","type":"address","indexed":true,"internalType":"address"}],"anonymous":false},{"type":"event","name":"OwnerUpdated","inputs":[{"name":"previousOwner","type":"address","indexed":true,"internalType":"address"},{"name":"newOwner","type":"address","indexed":true,"internalType":"address"}],"anonymous":false},{"type":"error","name":"TargetCallFailed","inputs":[{"name":"selector","type":"bytes4","internalType":"bytes4"}]}],"bytecode":{"object":"0x6080346200156957601f620041f438819003918201601f19168301916001600160401b038311848410176200156e578084926020946040528339810103126200156957516001600160a01b0381169081900362001569578015620015245760018060a01b0319338160015416176001556000541617600055601e601755600360185560046019556001601a556001601b556002601c5561c350601d55610258601e556003601f55601960205568878678326eac900000602155670de0b6b3a764000060225569021e19e0c9bab240000060235560016024556005602d5560ff19602e5416602e5561025860c0620000f5620015e4565b6002815260646020820152600160408201526023606082015260646080820152600160a082015201526002600755606460085560016009556023600a556064600b556001600c55610258600d55605a6040620001506200162d565b60198152600a602082015201526019600e55600a600f55605a6010556040620001786200162d565b6005815260016020820152610168918291015260056011556001601255601355600160a0620001a6620015e4565b600481528260208201528260408201528260608201528260808201528260c0820152015260046014556501010101010165ffffffffffff196015541617601555620001f06200164c565b610258606061014092838152600b6020820152600a60408201520152602555600b602655600a60275561025860285561025860606200022e6200164c565b60d28152600b6020820152600a6040820152015260d2602955600b602a55600a602b55610258602c556200026162001584565b600781526019602080830191825260016000526004905290517fabd6e7cb50984ff9c2f3e18a2660c3353dadf4e3291deeb275dae2cd1e44fe0555517fabd6e7cb50984ff9c2f3e18a2660c3353dadf4e3291deeb275dae2cd1e44fe0655620002c962001584565b600781526064602080830191825260026000526004905290517f91da3fd0782e51c6b3986e9e672fd566868e71f3dbc2d6c2cd6fbb3e361af2a755517f91da3fd0782e51c6b3986e9e672fd566868e71f3dbc2d6c2cd6fbb3e361af2a8556200033162001584565b600781526101f4602080830191825260036000526004905290517f2e174c10e159ea99b867ce3205125c24a42d128804e4070ed6fcc8cc98166aa055517f2e174c10e159ea99b867ce3205125c24a42d128804e4070ed6fcc8cc98166aa1556200039a62001584565b600781526107d0602080830191825260046000819052905290517f1a1e6821cde7d0159c0d293177871e09677b4e42307c7db3ba94f8648a5a050f55517f1a1e6821cde7d0159c0d293177871e09677b4e42307c7db3ba94f8648a5a0510556200040362001584565b60078152611388602080830191825260056000526004905290517f04cde762ef08b6b6c5ded8e8c4c0b3f4e5c9ad7342c88fcc93681b4588b73f0555517f04cde762ef08b6b6c5ded8e8c4c0b3f4e5c9ad7342c88fcc93681b4588b73f06556200046c62001584565b60078152612710602080830191825260066000526004905290517fc59312466997bb42aaaf719ece141047820e6b34531e1670dc1852a453648f0f55517fc59312466997bb42aaaf719ece141047820e6b34531e1670dc1852a453648f1055620004d562001584565b600781526001602082016161a88152600760005260046020526040600020925183555191015562000505620015a4565b60008082526006602080840182815260016040860181815260056060880190815260808801838152929096529390925293517f3e5fec24aa4dc4e5aee2e025e51e1392c72a2500577559fae9665c6d52bd6a315592517f3e5fec24aa4dc4e5aee2e025e51e1392c72a2500577559fae9665c6d52bd6a3255517f3e5fec24aa4dc4e5aee2e025e51e1392c72a2500577559fae9665c6d52bd6a3355517f3e5fec24aa4dc4e5aee2e025e51e1392c72a2500577559fae9665c6d52bd6a3455517f3e5fec24aa4dc4e5aee2e025e51e1392c72a2500577559fae9665c6d52bd6a3555620005f0620015a4565b600080825260036020808401918252600160408501818152600560608701908152608087019283526002909552600690925293517f8819ef417987f8ae7a81f42cdfb18815282fe989326fbff903d13cf0e03ace295590517f8819ef417987f8ae7a81f42cdfb18815282fe989326fbff903d13cf0e03ace2a55517f8819ef417987f8ae7a81f42cdfb18815282fe989326fbff903d13cf0e03ace2b55517f8819ef417987f8ae7a81f42cdfb18815282fe989326fbff903d13cf0e03ace2c55517f8819ef417987f8ae7a81f42cdfb18815282fe989326fbff903d13cf0e03ace2d55620006dd620015a4565b60028152600f6020808301918252600a604084019081526005606085019081526001608086019081526003600052600690935293517f75f96ab15d697e93042dc45b5c896c4b27e89bb6eaf39475c5c371cb2513f7d25591517f75f96ab15d697e93042dc45b5c896c4b27e89bb6eaf39475c5c371cb2513f7d35590517f75f96ab15d697e93042dc45b5c896c4b27e89bb6eaf39475c5c371cb2513f7d45590517f75f96ab15d697e93042dc45b5c896c4b27e89bb6eaf39475c5c371cb2513f7d555517f75f96ab15d697e93042dc45b5c896c4b27e89bb6eaf39475c5c371cb2513f7d655620007cd620015a4565b60028152600f6020808301918252600a604084019081526005606085019081526001608086019081526004600052600690935293517fc5069e24aaadb2addc3e52e868fcf3f4f8acf5a87e24300992fd4540c2a87eed5591517fc5069e24aaadb2addc3e52e868fcf3f4f8acf5a87e24300992fd4540c2a87eee5590517fc5069e24aaadb2addc3e52e868fcf3f4f8acf5a87e24300992fd4540c2a87eef5590517fc5069e24aaadb2addc3e52e868fcf3f4f8acf5a87e24300992fd4540c2a87ef055517fc5069e24aaadb2addc3e52e868fcf3f4f8acf5a87e24300992fd4540c2a87ef155620008bd620015a4565b60028152600f6020808301918252600a60408401908152600560608501818152600160808701908152600092909252600690935293517fbfd358e93f18da3ed276c3afdbdba00b8f0b6008a03476a6a86bd6320ee6938b5591517fbfd358e93f18da3ed276c3afdbdba00b8f0b6008a03476a6a86bd6320ee6938c5590517fbfd358e93f18da3ed276c3afdbdba00b8f0b6008a03476a6a86bd6320ee6938d55517fbfd358e93f18da3ed276c3afdbdba00b8f0b6008a03476a6a86bd6320ee6938e55517fbfd358e93f18da3ed276c3afdbdba00b8f0b6008a03476a6a86bd6320ee6938f55620009ad620015a4565b60028152604b602080830191825260646040840181815260fa60608601908152608086019283526006600081905290935293517f697b2bd7bb2984c4e0dc14c79c987d37818484a62958b9c45a0e8b962f20650f5591517f697b2bd7bb2984c4e0dc14c79c987d37818484a62958b9c45a0e8b962f2065105591517f697b2bd7bb2984c4e0dc14c79c987d37818484a62958b9c45a0e8b962f2065115590517f697b2bd7bb2984c4e0dc14c79c987d37818484a62958b9c45a0e8b962f20651255517f697b2bd7bb2984c4e0dc14c79c987d37818484a62958b9c45a0e8b962f2065135562000a9b620015a4565b60028152604b602080830191825260646040840181815260fa60608601908152608086019283526007600052600690935293517f4ced6d0d36392b04cc5d8761b1327b3bbba6e1089c77f60a9a9ca18e05e4f00e5591517f4ced6d0d36392b04cc5d8761b1327b3bbba6e1089c77f60a9a9ca18e05e4f00f5591517f4ced6d0d36392b04cc5d8761b1327b3bbba6e1089c77f60a9a9ca18e05e4f0105590517f4ced6d0d36392b04cc5d8761b1327b3bbba6e1089c77f60a9a9ca18e05e4f01155517f4ced6d0d36392b04cc5d8761b1327b3bbba6e1089c77f60a9a9ca18e05e4f0125562000b89620015a4565b60028152604b602080830191825260646040840181815260fa60608601908152608086019283526008600052600690935293517fb8d683c9d414f481826f3e7fe14b3ac6ae8c73450778287390c4bb8cb9f2e80b5591517fb8d683c9d414f481826f3e7fe14b3ac6ae8c73450778287390c4bb8cb9f2e80c5591517fb8d683c9d414f481826f3e7fe14b3ac6ae8c73450778287390c4bb8cb9f2e80d5590517fb8d683c9d414f481826f3e7fe14b3ac6ae8c73450778287390c4bb8cb9f2e80e55517fb8d683c9d414f481826f3e7fe14b3ac6ae8c73450778287390c4bb8cb9f2e80f5562000c77620015a4565b60028152604b602080830191825260646040840181815260fa60608601908152608086019283526009600052600690935293517fca4d0c6c94a9477136dd41a99cc19ecbe441c8f6609efe7c6fa65be007a473235591517fca4d0c6c94a9477136dd41a99cc19ecbe441c8f6609efe7c6fa65be007a473245591517fca4d0c6c94a9477136dd41a99cc19ecbe441c8f6609efe7c6fa65be007a473255590517fca4d0c6c94a9477136dd41a99cc19ecbe441c8f6609efe7c6fa65be007a4732655517fca4d0c6c94a9477136dd41a99cc19ecbe441c8f6609efe7c6fa65be007a473275562000d65620015a4565b60028152604b602080830191825260646040840181815260fa6060860190815260808601928352600a600052600690935293517f4da38fc8e544afc56a4c2a17752b8ddb67d8e23ac4583c9029d2e2d1dbe6c9885591517f4da38fc8e544afc56a4c2a17752b8ddb67d8e23ac4583c9029d2e2d1dbe6c9895591517f4da38fc8e544afc56a4c2a17752b8ddb67d8e23ac4583c9029d2e2d1dbe6c98a5590517f4da38fc8e544afc56a4c2a17752b8ddb67d8e23ac4583c9029d2e2d1dbe6c98b55517f4da38fc8e544afc56a4c2a17752b8ddb67d8e23ac4583c9029d2e2d1dbe6c98c5562000e53620015a4565b60028152604b602080830191825260646040840181815260fa6060860190815260808601928352600b600052600690935293517f85291c2e7881182c13e19eca9b58927ebfdc2c5d04882018eeb33d8241d357115591517f85291c2e7881182c13e19eca9b58927ebfdc2c5d04882018eeb33d8241d357125591517f85291c2e7881182c13e19eca9b58927ebfdc2c5d04882018eeb33d8241d357135590517f85291c2e7881182c13e19eca9b58927ebfdc2c5d04882018eeb33d8241d3571455517f85291c2e7881182c13e19eca9b58927ebfdc2c5d04882018eeb33d8241d357155562000f41620015a4565b60028152604b602080830191825260646040840181815260fa6060860190815260808601928352600c600052600690935293517f0b94fa1b86997cc1f1148bfbe25b674e8cefc7cc6f976aa8d7c7966bd4cca3475591517f0b94fa1b86997cc1f1148bfbe25b674e8cefc7cc6f976aa8d7c7966bd4cca3485591517f0b94fa1b86997cc1f1148bfbe25b674e8cefc7cc6f976aa8d7c7966bd4cca3495590517f0b94fa1b86997cc1f1148bfbe25b674e8cefc7cc6f976aa8d7c7966bd4cca34a55517f0b94fa1b86997cc1f1148bfbe25b674e8cefc7cc6f976aa8d7c7966bd4cca34b556200102f620015a4565b60028152604b602080830191825260646040840181815260fa6060860190815260808601928352600d600052600690935293517f248457bacb20e239ae314d8db91c0f270e453c28ee138c84f97aea6cfcf9a4995591517f248457bacb20e239ae314d8db91c0f270e453c28ee138c84f97aea6cfcf9a49a5591517f248457bacb20e239ae314d8db91c0f270e453c28ee138c84f97aea6cfcf9a49b5590517f248457bacb20e239ae314d8db91c0f270e453c28ee138c84f97aea6cfcf9a49c55517f248457bacb20e239ae314d8db91c0f270e453c28ee138c84f97aea6cfcf9a49d556200111d620015a4565b60028152604b602080830191825260646040840181815260fa6060860190815260808601928352600e600052600690935293517faca6cdb4b5fe0ec50731a73f714dd191dc1911bfeb3f9eeb9e94ed0f6065ef8d5591517faca6cdb4b5fe0ec50731a73f714dd191dc1911bfeb3f9eeb9e94ed0f6065ef8e5591517faca6cdb4b5fe0ec50731a73f714dd191dc1911bfeb3f9eeb9e94ed0f6065ef8f5590517faca6cdb4b5fe0ec50731a73f714dd191dc1911bfeb3f9eeb9e94ed0f6065ef9055517faca6cdb4b5fe0ec50731a73f714dd191dc1911bfeb3f9eeb9e94ed0f6065ef91556200120b620015a4565b60028152604b602080830191825260646040840181815260fa6060860190815260808601928352600f600052600690935293517ff130046d53bc87538ab17e4752ba5f5082985eecc06ccb932c5a55e8242dd5025591517ff130046d53bc87538ab17e4752ba5f5082985eecc06ccb932c5a55e8242dd5035591517ff130046d53bc87538ab17e4752ba5f5082985eecc06ccb932c5a55e8242dd5045590517ff130046d53bc87538ab17e4752ba5f5082985eecc06ccb932c5a55e8242dd50555517ff130046d53bc87538ab17e4752ba5f5082985eecc06ccb932c5a55e8242dd506556200138a620012fd620015c4565b60128152600a6020808301918252602d604084019081526003600052600590915291517fa9bc9a3a348c357ba16b37005d7e6b3236198c0e939f4af8c5f19b8deeb8ebc055517fa9bc9a3a348c357ba16b37005d7e6b3236198c0e939f4af8c5f19b8deeb8ebc155517fa9bc9a3a348c357ba16b37005d7e6b3236198c0e939f4af8c5f19b8deeb8ebc255565b6200142562001398620015c4565b60128152600a6020808301918252605a604084019081526005600081905290915291517f458b30c2d72bfd2c6317304a4594ecbafe5f729d3111b65fdc3a33bd48e5432d55517f458b30c2d72bfd2c6317304a4594ecbafe5f729d3111b65fdc3a33bd48e5432e55517f458b30c2d72bfd2c6317304a4594ecbafe5f729d3111b65fdc3a33bd48e5432f55565b620014c162001433620015c4565b60098152600a602080830191825261270f604084019081526007600052600590915291517feddb6698d7c569ff62ff64f1f1492bf14a54594835ba0faac91f84b4f5d8146055517feddb6698d7c569ff62ff64f1f1492bf14a54594835ba0faac91f84b4f5d8146155517feddb6698d7c569ff62ff64f1f1492bf14a54594835ba0faac91f84b4f5d8146255565b600360205260327fc3a24b0501bd2c13a7e57f2db4369ec4c223447539fc0724a9d55ac4a06ebd4d5560046000526101f47f83ec6a1f0257b830b5e016457c9cf1435391bf56cc98f369a58a54fe9377246555604051612b719081620016838239f35b60405162461bcd60e51b815260206004820152601360248201527f6f776e2e696e76616c69642e68657862617365000000000000000000000000006044820152606490fd5b600080fd5b634e487b7160e01b600052604160045260246000fd5b60408051919082016001600160401b038111838210176200156e57604052565b6040519060a082016001600160401b038111838210176200156e57604052565b60405190606082016001600160401b038111838210176200156e57604052565b6040519060e082016001600160401b038111838210176200156e576040528160c06000918281528260208201528260408201528260608201528260808201528260a08201520152565b62001637620015c4565b90600082526000602083015260006040830152565b60405190608082016001600160401b038111838210176200156e576040526000606083828152826020820152826040820152015256fe60806040526004361015610018575b361561001657005b005b60003560e01c80630609a0e31461040857806307175c831461040357806309307c62146103fe5780630b225f1a146103f95780630ea0d222146103f457806312065fe0146103ef57806314be92a5146103ea57806315a544ed146103e55780631605aed9146103e057806316f0115b146103db578063192b48ee146103d65780631ef6a864146103d15780631f185d16146103cc57806326c5adae146103c7578063298fc460146103c25780633688236d146103bd5780633b9b7955146103b85780634151331d146103b3578063438fe192146103ae57806343c06bc4146103a957806344ec16bc146103a45780634b62954f1461039f57806353423e861461039a578063541d76671461039557806354541683146103905780635640dbfc1461038b578063582003d114610386578063592a02a8146103815780635962205f1461037c5780635a0e90381461037757806363b2b474146103725780636b81c82f1461036d5780636c7deb5d146103685780636f092c5e146103635780637687e3711461035e57806378ef376f146103595780637bc908c6146103545780638da5cb5b1461034f5780638e3719e71461034a57806391fc8aa8146103455780639319d0b514610340578063991bf5cc1461033b5780639d80ab9b146103365780639eb8b44e14610331578063a19841dd1461032c578063a1f7f53914610327578063a88fcea614610322578063aebcd32a1461031d578063af0b21d314610318578063af48452614610313578063b49c064c1461030e578063b85f1f8d14610309578063b90306ad14610304578063bcf71cd8146102ff578063c54e44b0146102fa578063c5a136d4146102f5578063e01ad5fd146102f0578063e0a9bc2b146102eb578063eddd0d9c146102e6578063f2a6bbc7146102e1578063f4fe8e3c146102dc578063fc0e74d1146102d75763fdc10bc90361000e57611f7b565b611f58565b611eb2565b611e0f565b611d6c565b611d51565b611cb7565b611bcc565b611b2a565b611a81565b6119c5565b611993565b611970565b61193f565b611921565b6118dc565b6118be565b611810565b6117d6565b611613565b611594565b61149f565b6113fc565b6113de565b6113c0565b611399565b61137b565b6112d8565b611217565b6111eb565b611148565b611071565b611035565b611003565b610fab565b610ef9565b610ed0565b610e63565b610e45565b610dd4565b610db6565b610d0d565b610c6a565b610bc1565b610ba3565b610b56565b610b2f565b610b11565b610a50565b61098f565b61087b565b6107bb565b610718565b6106c7565b6106a9565b61068b565b6105e8565b6105cc565b6105ae565b610590565b6104e7565b6104ca565b346104c55760203660031901126104c5576104296104246121ab565b6126a5565b610432336122ef565b801561044d575b610442906126f0565b610016600435601755565b5060046001600160a01b036020816000541660405193848092630536340960e21b82525afa9081156104c05761044292600092610490575b501633149050610439565b6104b291925060203d81116104b9575b6104aa81836120c7565b8101906120e9565b9038610485565b503d6104a0565b612101565b600080fd5b346104c55760003660031901126104c55760208054604051908152f35b346104c55760403660031901126104c5576105036104246121ab565b61050c336122ef565b801561052d575b61051c906126f0565b610016602435600435602255602355565b5060046001600160a01b036020816000541660405193848092630536340960e21b82525afa9081156104c05761051c92600092610570575b501633149050610513565b61058991925060203d81116104b9576104aa81836120c7565b9038610565565b346104c55760003660031901126104c5576020602d54604051908152f35b346104c55760003660031901126104c5576020601e54604051908152f35b346104c55760003660031901126104c557602047604051908152f35b346104c55760203660031901126104c5576106046104246121ab565b61060d336122ef565b8015610628575b61061d906126f0565b610016600435601e55565b5060046001600160a01b036020816000541660405193848092630536340960e21b82525afa9081156104c05761061d9260009261066b575b501633149050610614565b61068491925060203d81116104b9576104aa81836120c7565b9038610660565b346104c55760003660031901126104c5576020602354604051908152f35b346104c55760003660031901126104c5576020602254604051908152f35b346104c55760003660031901126104c55760e0600754600854600954600a54600b5490600c5492600d5494604051968752602087015260408601526060850152608084015260a083015260c0820152f35b346104c55760203660031901126104c5576107346104246121ab565b61073d336122ef565b8015610758575b61074d906126f0565b610016600435612781565b5060046001600160a01b036020816000541660405193848092630536340960e21b82525afa9081156104c05761074d9260009261079b575b501633149050610744565b6107b491925060203d81116104b9576104aa81836120c7565b9038610790565b346104c55760a03660031901126104c5576107d76104246121ab565b6107e0336122ef565b8015610807575b6107f0906126f0565b610016608435606435604435602435600435612a54565b5060046001600160a01b036020816000541660405193848092630536340960e21b82525afa9081156104c0576107f09260009261084a575b5016331490506107e7565b61086391925060203d81116104b9576104aa81836120c7565b903861083f565b6001600160a01b038116036104c557565b346104c5576020806003193601126104c55760049081359061089c8261086a565b806108be6108b26000546001600160a01b031690565b6001600160a01b031690565b60405194858092634bf9c0ad60e11b82525afa9182156104c05761091261094c9361092e9261095e9660009261096c575b50610920906040519384918783019190916001600160a01b036020820193169052565b03601f1981018452836120c7565b610928612399565b9061257a565b919080610962575b61093f906123d2565b8082518301019101612196565b60405190151581529081906020820190565b0390f35b5081518114610936565b61092091925061098890863d88116104b9576104aa81836120c7565b91906108ef565b346104c55760203660031901126104c557600460206001600160a01b0360005416604051928380926369e8d84b60e11b82525afa80156104c0576109f4610a189161095e93600091610a28575b506109e5612aca565b906109ee612ae2565b90612667565b610a1360043591610a0e610a0960205461273b565b61273b565b612b1b565b61276e565b6040519081529081906020820190565b610a40915060203d81116104b9576104aa81836120c7565b386109dc565b801515036104c557565b346104c55760203660031901126104c557600435610a6d81610a46565b610a786104246121ab565b610a81336122ef565b8015610aa7575b90610a95610016926126f0565b60ff8019602e54169115151617602e55565b506001600160a01b039060046020836000541660405192838092630536340960e21b82525afa80156104c05761001693610a9592600092610af1575b503391161491925050610a88565b610b0a91925060203d81116104b9576104aa81836120c7565b9038610ae3565b346104c55760003660031901126104c5576020601d54604051908152f35b346104c55760003660031901126104c55760206001600160a01b0360005416604051908152f35b346104c55760203660031901126104c55760043560005260056020526040600020805461095e60026001840154930154604051938493846040919493926060820195825260208201520152565b346104c55760003660031901126104c5576020601b54604051908152f35b346104c55760603660031901126104c557610bdd6104246121ab565b610be6336122ef565b8015610c07575b610bf6906126f0565b6100166044356024356004356128a9565b5060046001600160a01b036020816000541660405193848092630536340960e21b82525afa9081156104c057610bf692600092610c4a575b501633149050610bed565b610c6391925060203d81116104b9576104aa81836120c7565b9038610c3f565b346104c55760203660031901126104c557610c866104246121ab565b610c8f336122ef565b8015610caa575b610c9f906126f0565b610016600435601a55565b5060046001600160a01b036020816000541660405193848092630536340960e21b82525afa9081156104c057610c9f92600092610ced575b501633149050610c96565b610d0691925060203d81116104b9576104aa81836120c7565b9038610ce2565b346104c55760403660031901126104c557610d296104246121ab565b610d32336122ef565b8015610d53575b610d42906126f0565b610016602435600435601c55601d55565b5060046001600160a01b036020816000541660405193848092630536340960e21b82525afa9081156104c057610d4292600092610d96575b501633149050610d39565b610daf91925060203d81116104b9576104aa81836120c7565b9038610d8b565b346104c55760003660031901126104c5576020601f54604051908152f35b346104c55760203660031901126104c557600460206001600160a01b0360005416604051928380926369e8d84b60e11b82525afa80156104c057610e29610a189161095e93600091610a2857506109e5612aca565b6004356000526003602052610a0e610a0960406000205461273b565b346104c55760003660031901126104c5576020601a54604051908152f35b346104c55760003660031901126104c55760e060145460155460405191825260ff9081811615156020840152818160081c1615156040840152818160101c1615156060840152818160181c1615156080840152818160201c16151560a084015260281c16151560c0820152f35b346104c55760003660031901126104c55760185460195460408051928352602083019190915290f35b346104c55760c03660031901126104c557610f156104246121ab565b610f1e336122ef565b8015610f48575b610f2e906126f0565b61001660a43560843560643560443560243560043561278f565b5060046001600160a01b036020816000541660405193848092630536340960e21b82525afa9081156104c057610f2e92600092610f8b575b501633149050610f25565b610fa491925060203d81116104b9576104aa81836120c7565b9038610f80565b346104c55760203660031901126104c557600435600052600660205260a06040600020805490600181015490600281015460046003830154920154926040519485526020850152604084015260608301526080820152f35b346104c55760003660031901126104c557600e54600f5460105460408051938452602084019290925290820152606090f35b346104c55760003660031901126104c5576020601854604051908152f35b60809060031901126104c55760043590602435906044359060643590565b346104c55761107f36611053565b9261108e6104249392936121ab565b611097336122ef565b80156110df575b906110aa6002926126f0565b6110b2612a0d565b50600181146110ce575b146110c357005b601155601255601355005b82600e5583600f55846010556110bc565b506001600160a01b039060046020836000541660405192838092630536340960e21b82525afa80156104c0576002936110aa92600092611128575b50339116149192505061109e565b61114191925060203d81116104b9576104aa81836120c7565b903861111a565b346104c55760203660031901126104c5576111646104246121ab565b61116d336122ef565b8015611188575b61117d906126f0565b610016600435601f55565b5060046001600160a01b036020816000541660405193848092630536340960e21b82525afa9081156104c05761117d926000926111cb575b501633149050611174565b6111e491925060203d81116104b9576104aa81836120c7565b90386111c0565b346104c55760203660031901126104c55760043560005260036020526020604060002054604051908152f35b346104c55760203660031901126104c55760043561123481610a46565b61123f6104246121ab565b611248336122ef565b801561126e575b9061125c610016926126f0565b60ff8019601654169115151617601655565b506001600160a01b039060046020836000541660405192838092630536340960e21b82525afa80156104c0576100169361125c926000926112b8575b50339116149192505061124f565b6112d191925060203d81116104b9576104aa81836120c7565b90386112aa565b346104c55760203660031901126104c5576112f46104246121ab565b6112fd336122ef565b8015611318575b61130d906126f0565b610016600435602455565b5060046001600160a01b036020816000541660405193848092630536340960e21b82525afa9081156104c05761130d9260009261135b575b501633149050611304565b61137491925060203d81116104b9576104aa81836120c7565b9038611350565b346104c55760003660031901126104c5576020602454604051908152f35b346104c55760003660031901126104c55760206001600160a01b0360015416604051908152f35b346104c55760003660031901126104c5576020601954604051908152f35b346104c55760003660031901126104c5576020602154604051908152f35b346104c55760203660031901126104c5576114186104246121ab565b611421336122ef565b801561143c575b611431906126f0565b610016600435601b55565b5060046001600160a01b036020816000541660405193848092630536340960e21b82525afa9081156104c0576114319260009261147f575b501633149050611428565b61149891925060203d81116104b9576104aa81836120c7565b9038611474565b346104c55760e03660031901126104c5576024356114bc81610a46565b6044356114c881610a46565b6064356114d481610a46565b6084356114e081610a46565b60a435916114ed83610a46565b60c435936114fa85610a46565b6115056104246121ab565b61150e336122ef565b801561152a575b95611522610016976126f0565b6004356128f8565b506001600160a01b039560046020886000541660405192838092630536340960e21b82525afa80156104c0576100169861152292600092611574575b503391161491975050611515565b61158d91925060203d81116104b9576104aa81836120c7565b9038611566565b346104c55760003660031901126104c557602554602654602754602854604080519485526020850193909352918301526060820152608090f35b6102a0810192916000915b600783106115e657505050565b600190606083519182518152602092838101518483015260408091015190820152019201920191906115d9565b346104c55760003660031901126104c55760405161163081612052565b60005b60e081106117c15761095e61164661210d565b6001600052600560205261167e7f1471eb6eb2c5e789fc3de43f8ce62938c7d1836ec861730447e2ada8fd81017b612a2c565b612a2c565b8152600260005260056020526116b37f89832631fb3c3307a103ba2c84ab569c64d6182a18893dcd163f0f1c2090733a612a2c565b60208201526116d061167960036000526005602052604060002090565b6040820152600460005260056020526117087f3eec716f11ba9e820c81ca75eb978ffb45831ef8b7a53e5e422c26008e1ca6d5612a2c565b6060820152600560008190526020526117407f458b30c2d72bfd2c6317304a4594ecbafe5f729d3111b65fdc3a33bd48e5432d612a2c565b6080820152600660005260056020526117787f069400f22b28c6c362558d92f66163cec5671cba50b61abd2eecfcd0eaeac518612a2c565b60a0820152600760005260056020526117b07feddb6698d7c569ff62ff64f1f1492bf14a54594835ba0faac91f84b4f5d81460612a2c565b60c0820152604051918291826115ce565b6020906117cc612a0d565b8184015201611633565b346104c55760003660031901126104c557602954602a54602b54602c54604080519485526020850193909352918301526060820152608090f35b346104c55760003660031901126104c557600460206001600160a01b03600054166040519283809263d1f956b160e01b82525afa9081156104c05761095e91610a18916000916118a0575b506040516118688161208f565b601381527f67657464656c656761746f72436f756e74282900000000000000000000000000602082015261189a612138565b91612667565b6118b8915060203d81116104b9576104aa81836120c7565b3861185b565b346104c55760003660031901126104c5576020601c54604051908152f35b346104c55760203660031901126104c55760043560005260046020526040600020600181549101549061095e6040519283928360209093929193604081019481520152565b346104c55760003660031901126104c5576020601754604051908152f35b346104c55760203660031901126104c55760206119666004356119618161086a565b6122ef565b6040519015158152f35b346104c55760003660031901126104c557602060ff602e54166040519015158152f35b346104c55760003660031901126104c55760115460125460135460408051938452602084019290925290820152606090f35b346104c55760203660031901126104c55760046001600160a01b036020816000541660405193848092630536340960e21b82525afa9182156104c057600092611a61575b5033911603611a1d57610016600435612486565b606460405162461bcd60e51b815260206004820152600f60248201527f6f776e2e6e6f6e617574682e44414f00000000000000000000000000000000006044820152fd5b611a7a91925060203d81116104b9576104aa81836120c7565b9038611a09565b346104c55760403660031901126104c557611a9d6104246121ab565b611aa6336122ef565b8015611ac7575b611ab6906126f0565b610016602435600435601855601955565b5060046001600160a01b036020816000541660405193848092630536340960e21b82525afa9081156104c057611ab692600092611b0a575b501633149050611aad565b611b2391925060203d81116104b9576104aa81836120c7565b9038611aff565b346104c55760203660031901126104c557600435611b478161086a565b803b6000611b548261211c565b92611b6260405194856120c7565b82845260208401903c602d815110611b8857602a015160405160609190911c8152602090f35b606460405162461bcd60e51b815260206004820152601360248201527f4e6f742061206d696e696d616c2070726f7879000000000000000000000000006044820152fd5b346104c557611bda36611053565b90611be96104249493946121ab565b611bf2336122ef565b8015611c4e575b92611c056002946126f0565b611c116008821061285e565b60405194611c1e86612073565b85526020850191825260408501928352600052600560205260406000209351845551600184015551910155600080f35b506001600160a01b039260046020856000541660405192838092630536340960e21b82525afa80156104c057600295611c0592600092611c97575b503391161491945050611bf9565b611cb091925060203d81116104b9576104aa81836120c7565b9038611c89565b346104c5576020806003193601126104c55760048035611cd68161086a565b6001600160a01b03928084600054166040519485809263d1f956b160e01b82525afa9081156104c05761095e9461094c94600093611d32575b506040519316818401528252611d248261208f565b611d2c61241d565b9061262b565b611d4a919350823d84116104b9576104aa81836120c7565b9138611d0f565b346104c55760003660031901126104c55760206119666121ab565b346104c55760203660031901126104c557611d886104246121ab565b611d91336122ef565b8015611dac575b611da1906126f0565b610016600435602055565b5060046001600160a01b036020816000541660405193848092630536340960e21b82525afa9081156104c057611da192600092611def575b501633149050611d98565b611e0891925060203d81116104b9576104aa81836120c7565b9038611de4565b346104c55760203660031901126104c557611e2b6104246121ab565b611e34336122ef565b8015611e4f575b611e44906126f0565b610016600435602d55565b5060046001600160a01b036020816000541660405193848092630536340960e21b82525afa9081156104c057611e4492600092611e92575b501633149050611e3b565b611eab91925060203d81116104b9576104aa81836120c7565b9038611e87565b346104c55760403660031901126104c557611ece6104246121ab565b611ed7336122ef565b8015611ef5575b611ee7906126f0565b6100166024356004356129f1565b5060046001600160a01b036020816000541660405193848092630536340960e21b82525afa9081156104c057611ee792600092611f38575b501633149050611ede565b611f5191925060203d81116104b9576104aa81836120c7565b9038611f2d565b346104c55760003660031901126104c557602060ff601654166040519015158152f35b346104c55760003660031901126104c557600460206001600160a01b0360005416604051928380927f447aa3040000000000000000000000000000000000000000000000000000000082525afa9081156104c05761095e91610a189160009161201e575b50604051611fec8161208f565b600581527f6167652829000000000000000000000000000000000000000000000000000000602082015261189a612138565b612036915060203d81116104b9576104aa81836120c7565b38611fdf565b634e487b7160e01b600052604160045260246000fd5b60e0810190811067ffffffffffffffff82111761206e57604052565b61203c565b6060810190811067ffffffffffffffff82111761206e57604052565b6040810190811067ffffffffffffffff82111761206e57604052565b6020810190811067ffffffffffffffff82111761206e57604052565b90601f8019910116810190811067ffffffffffffffff82111761206e57604052565b908160209103126104c557516120fe8161086a565b90565b6040513d6000823e3d90fd5b6040519061211a82612052565b565b67ffffffffffffffff811161206e57601f01601f191660200190565b60405190612145826120ab565b60008252565b1561215257565b606460405162461bcd60e51b815260206004820152601960248201527f6f776e2e7361666567756172642e63616c6c2e6661696c6564000000000000006044820152fd5b908160209103126104c557516120fe81610a46565b6001600160a01b03600054166040518091634bf9c0ad60e11b825281600460209384935afa9182156104c0576120fe926122339160009161224e575b506040516121f48161208f565b600881527f6973536166652829000000000000000000000000000000000000000000000000848201526040519161222a836120ab565b6000835261257a565b919080612244575b61093f9061214b565b508151811461223b565b6122659150833d85116104b9576104aa81836120c7565b386121e7565b604051906122788261208f565b601582527f69735365637572654261736528616464726573732900000000000000000000006020830152565b156122ab57565b606460405162461bcd60e51b815260206004820152601a60248201527f6f776e2e736563757265626173652e63616c6c2e6661696c65640000000000006044820152fd5b6000546001600160a01b0316604051918291634bf9c0ad60e11b835282600460209485935afa9283156104c0576120fe9361235b9261091292600092612376575b50612353906040519384918783019190916001600160a01b036020820193169052565b61092861226b565b91908061236c575b61093f906122a4565b5081518114612363565b61235391925061239290863d88116104b9576104aa81836120c7565b9190612330565b604051906123a68261208f565b601182527f69735369676e65722861646472657373290000000000000000000000000000006020830152565b156123d957565b606460405162461bcd60e51b815260206004820152601660248201527f6f776e2e7369676e65722e63616c6c2e6661696c6564000000000000000000006044820152fd5b6040519061242a8261208f565b601882527f697364656c656761746f724e6f646528616464726573732900000000000000006020830152565b3d15612481573d906124678261211c565b9161247560405193846120c7565b82523d6000602084013e565b606090565b6000600460206001600160a01b03835416604051928380927f46f991ac0000000000000000000000000000000000000000000000000000000082525afa9081156104c057828481938293839161255c575b505af16124e2612456565b50156125185760405190815233907fcdcc745fe377b103b45fa0cec23ae3ef93d6fc6a84a01f0d18c40b354dd1d5d890602090a2565b606460405162461bcd60e51b815260206004820152600f60248201527f6f776e2e6275726e2e6661696c656400000000000000000000000000000000006044820152fd5b612574915060203d81116104b9576104aa81836120c7565b386124d7565b9190823b15612612577fffffffff00000000000000000000000000000000000000000000000000000000815160208093012016916040519180830193845281519160005b8381106125fe5750505091816125eb602482600097959688970187838201520360048101845201826120c7565b5191620dbba0fa6125fa612456565b9091565b8181018301518582016024015282016125be565b505050600090604051612624816120ab565b6000815290565b92916126399160009461257a565b908061265c575b6126475750565b6120fe91925060208082518301019101612196565b506020815114612640565b92916126759160009461257a565b908061269a575b6126835750565b9091506020818051810103126104c5576020015190565b50602081511461267c565b156126ac57565b606460405162461bcd60e51b815260206004820152601260248201527f6f776e2e696e76616c69642e69735361666500000000000000000000000000006044820152fd5b156126f757565b606460405162461bcd60e51b815260206004820152601b60248201527f6f776e2e6e6f6e617574682e44414f6f725365637572656261736500000000006044820152fd5b90670de0b6b3a76400009182810292818404149015171561275857565b634e487b7160e01b600052601160045260246000fd5b8181029291811591840414171561275857565b61278a9061273b565b602155565b919293949094601083101561281a576040519460a086019486861067ffffffffffffffff87111761206e5761211a976127eb96604052875260208701526040860152606085015260808401526000526006602052604060002090565b906080600491805184556020810151600185015560408101516002850155606081015160038501550151910155565b606460405162461bcd60e51b815260206004820152600d60248201527f696e76616c6964206c6576656c000000000000000000000000000000000000006044820152fd5b1561286557565b606460405162461bcd60e51b815260206004820152600c60248201527f696e76616c69642072616e6b00000000000000000000000000000000000000006044820152fd5b916128b66008841061285e565b60405192604084019284841067ffffffffffffffff85111761206e57600193604052845260208401918252600052600460205260406000209251835551910155565b6129d09461211a97946129696129b1956129949460c09a966040519061291d82612052565b8282521515928360208301521515948560408301521515958660608301521515978860808301521515998a60a083015215159b8c91015260145560ff8019601554169115151617601555565b6015805462ffff00191660089290921b61ff00169190911791151560101b62ff000016919091179055565b63ff00000060155491151560181b169063ff000000191617601555565b64ff0000000060155491151560201b169064ff00000000191617601555565b65ff000000000060155491151560281b169065ff0000000000191617601555565b6129fd6008821061285e565b6000526003602052604060002055565b60405190612a1a82612073565b60006040838281528260208201520152565b90604051612a3981612073565b60406002829480548452600181015460208501520154910152565b60405190608082019180831067ffffffffffffffff84111761206e5760608791600294604052858152866020820152876040820152015260018114612ab5575b14612aa0575b50505050565b602955602a55602b55602c5538808080612a9a565b82602555836026558460275585602855612a94565b604051612ad6816120ab565b60008152906000368137565b60405190612aef8261208f565b601282527f6f7a6f6e655072696365496e55534454282900000000000000000000000000006020830152565b8115612b25570490565b634e487b7160e01b600052601260045260246000fdfea2646970667358221220b843614934f7000910a9cc32c244b68245a0baed6df81c849c9eb0154d00468b64736f6c63430008140033","linkReferences":{}},"methodIdentifiers":{"Burn(uint256)":"b90306ad","NFTSendPerCycle()":"438fe192","_delegatorCount()":"a1f7f539","_getImplementation(address)":"c54e44b0","_isDelegatorNode(address)":"e01ad5fd","_isSafe()":"e0a9bc2b","_isSecureBase(address)":"af484526","_isSigner(address)":"1f185d16","allowForceTransfer()":"b49c064c","capping()":"5640dbfc","computeMintValue(uint256)":"26c5adae","computeTour(uint256)":"541d7667","eachclaimCycle()":"7bc908c6","freeIntervals()":"af0b21d3","getBalance()":"12065fe0","getBatchRoyaltyClauses()":"9eb8b44e","getHexbase()":"3b9b7955","getLevelIncomeOnRank()":"582003d1","levelClause(uint256)":"5962205f","lvlincrankmax()":"8e3719e7","lvlincrankmin()":"63b2b474","maxClaimPerDay()":"15a544ed","maxGlobalClaimPerDay()":"91fc8aa8","maxMintQty()":"3688236d","maxMintsPerCycle()":"53423e86","maxNFTSend()":"54541683","minClaimPerDay()":"1605aed9","minMintQty()":"a88fcea6","mintCycleDays()":"0ea0d222","mintFeePerQty()":"07175c83","owner()":"8da5cb5b","pool()":"16f0115b","poolNFT1()":"5a0e9038","poolNFT2()":"b85f1f8d","rankClause(uint256)":"aebcd32a","rankforDAO()":"0b225f1a","royalityClause(uint256)":"4151331d","setAllowForceTransfer(bool)":"298fc460","setCapping(uint256,bool,bool,bool,bool,bool,bool)":"991bf5cc","setClaimPerDay(uint256,uint256)":"09307c62","setFreeIntervals(uint256)":"0609a0e3","setGlobalClaimPerDay(uint256)":"192b48ee","setLevelIncomeOnRank(uint256,uint256)":"bcf71cd8","setMaxMintsPerCycle(uint256)":"6c7deb5d","setMaxNFTSend(uint256)":"44ec16bc","setMintCycleDays(uint256)":"14be92a5","setMintFee(uint256)":"eddd0d9c","setMintQty(uint256,uint256)":"4b62954f","setNFTSendPerCycle(uint256)":"9319d0b5","setNftPool(uint256,uint256,uint256,uint256)":"6b81c82f","setRoyalityClause(uint256,uint256,uint256,uint256)":"c5a136d4","setTourClause(uint256,uint256)":"f4fe8e3c","setValidatorPool(uint256,uint256,uint256,uint256,uint256)":"1ef6a864","setclaimCycle(uint256)":"78ef376f","setlevelClause(uint256,uint256,uint256,uint256,uint256,uint256)":"592a02a8","setrankClause(uint256,uint256,uint256)":"43c06bc4","setrankforDAO(uint256)":"f2a6bbc7","setshutdown(bool)":"7687e371","shutdown()":"fc0e74d1","systemAge()":"fdc10bc9","tourClause(uint256)":"6f092c5e","valExternal()":"a19841dd","valInternal()":"9d80ab9b"},"id":71}