{"abi":[{"type":"constructor","inputs":[{"name":"_hex","type":"address","internalType":"address"}],"stateMutability":"nonpayable"},{"type":"fallback","stateMutability":"payable"},{"type":"receive","stateMutability":"payable"},{"type":"function","name":"Burn","inputs":[{"name":"amount","type":"uint256","internalType":"uint256"}],"outputs":[],"stateMutability":"nonpayable"},{"type":"function","name":"NFTAgePointer","inputs":[],"outputs":[{"name":"","type":"uint256","internalType":"uint256"}],"stateMutability":"view"},{"type":"function","name":"NFTSendPerCycle","inputs":[],"outputs":[{"name":"","type":"uint256","internalType":"uint256"}],"stateMutability":"view"},{"type":"function","name":"StartAgePointerLEQ","inputs":[],"outputs":[{"name":"","type":"uint256","internalType":"uint256"}],"stateMutability":"view"},{"type":"function","name":"_delegatorCount","inputs":[],"outputs":[{"name":"","type":"uint256","internalType":"uint256"}],"stateMutability":"view"},{"type":"function","name":"_getImplementation","inputs":[{"name":"clone","type":"address","internalType":"address"}],"outputs":[{"name":"impl","type":"address","internalType":"address"}],"stateMutability":"view"},{"type":"function","name":"_isDelegatorNode","inputs":[{"name":"sender","type":"address","internalType":"address"}],"outputs":[{"name":"","type":"bool","internalType":"bool"}],"stateMutability":"view"},{"type":"function","name":"_isSafe","inputs":[],"outputs":[{"name":"","type":"bool","internalType":"bool"}],"stateMutability":"view"},{"type":"function","name":"_isSecureBase","inputs":[{"name":"sender","type":"address","internalType":"address"}],"outputs":[{"name":"","type":"bool","internalType":"bool"}],"stateMutability":"view"},{"type":"function","name":"_isSigner","inputs":[{"name":"sender","type":"address","internalType":"address"}],"outputs":[{"name":"","type":"bool","internalType":"bool"}],"stateMutability":"view"},{"type":"function","name":"allowForceTransfer","inputs":[],"outputs":[{"name":"","type":"bool","internalType":"bool"}],"stateMutability":"view"},{"type":"function","name":"burncnfg","inputs":[],"outputs":[{"name":"target1","type":"address","internalType":"address"},{"name":"roiN1","type":"uint256","internalType":"uint256"},{"name":"roiD1","type":"uint256","internalType":"uint256"},{"name":"target2","type":"address","internalType":"address"},{"name":"roiN2","type":"uint256","internalType":"uint256"},{"name":"roiD2","type":"uint256","internalType":"uint256"}],"stateMutability":"view"},{"type":"function","name":"capping","inputs":[],"outputs":[{"name":"multiple","type":"uint256","internalType":"uint256"},{"name":"multipledollar","type":"uint256","internalType":"uint256"},{"name":"rw","type":"bool","internalType":"bool"},{"name":"ry","type":"bool","internalType":"bool"},{"name":"self","type":"bool","internalType":"bool"},{"name":"yei","type":"bool","internalType":"bool"}],"stateMutability":"view"},{"type":"function","name":"computeDollarToOzone","inputs":[{"name":"_dollar","type":"uint256","internalType":"uint256"}],"outputs":[{"name":"","type":"uint256","internalType":"uint256"}],"stateMutability":"view"},{"type":"function","name":"computeMintValue","inputs":[{"name":"_qty","type":"uint256","internalType":"uint256"}],"outputs":[{"name":"","type":"uint256","internalType":"uint256"}],"stateMutability":"view"},{"type":"function","name":"computeOzoneToDollar","inputs":[{"name":"_ozone","type":"uint256","internalType":"uint256"}],"outputs":[{"name":"","type":"uint256","internalType":"uint256"}],"stateMutability":"view"},{"type":"function","name":"computeTour","inputs":[{"name":"_r","type":"uint256","internalType":"uint256"}],"outputs":[{"name":"","type":"uint256","internalType":"uint256"}],"stateMutability":"view"},{"type":"function","name":"eachclaimCycle","inputs":[],"outputs":[{"name":"","type":"uint256","internalType":"uint256"}],"stateMutability":"view"},{"type":"function","name":"freeIntervals","inputs":[],"outputs":[{"name":"","type":"uint256","internalType":"uint256"}],"stateMutability":"view"},{"type":"function","name":"getBalance","inputs":[],"outputs":[{"name":"","type":"uint256","internalType":"uint256"}],"stateMutability":"view"},{"type":"function","name":"getBatchRoyaltyClauses","inputs":[],"outputs":[{"name":"clauses","type":"tuple[7]","internalType":"struct lib741Rules.RoyalityStr[7]","components":[{"name":"rwNum","type":"uint256","internalType":"uint256"},{"name":"rwDen","type":"uint256","internalType":"uint256"},{"name":"rwEnd","type":"uint256","internalType":"uint256"}]}],"stateMutability":"view"},{"type":"function","name":"getHexbase","inputs":[],"outputs":[{"name":"","type":"address","internalType":"address"}],"stateMutability":"view"},{"type":"function","name":"getNftPool","inputs":[{"name":"_type","type":"uint256","internalType":"uint256"},{"name":"_mintage","type":"uint256","internalType":"uint256"}],"outputs":[{"name":"_startfrom","type":"uint256","internalType":"uint256"},{"name":"_roiN","type":"uint256","internalType":"uint256"},{"name":"_roiD","type":"uint256","internalType":"uint256"},{"name":"_roiInt","type":"uint256","internalType":"uint256"}],"stateMutability":"nonpayable"},{"type":"function","name":"iAge","inputs":[],"outputs":[{"name":"","type":"uint256","internalType":"uint256"}],"stateMutability":"view"},{"type":"function","name":"levelClause","inputs":[{"name":"","type":"uint256","internalType":"uint256"}],"outputs":[{"name":"rank","type":"uint256","internalType":"uint256"},{"name":"rwNum","type":"uint256","internalType":"uint256"},{"name":"rwrDen","type":"uint256","internalType":"uint256"},{"name":"yeiNum","type":"uint256","internalType":"uint256"},{"name":"yeiDen","type":"uint256","internalType":"uint256"}],"stateMutability":"view"},{"type":"function","name":"maxClaimPerDay","inputs":[],"outputs":[{"name":"","type":"uint256","internalType":"uint256"}],"stateMutability":"view"},{"type":"function","name":"maxGlobalClaimPerDay","inputs":[],"outputs":[{"name":"","type":"uint256","internalType":"uint256"}],"stateMutability":"view"},{"type":"function","name":"maxMintQty","inputs":[],"outputs":[{"name":"","type":"uint256","internalType":"uint256"}],"stateMutability":"view"},{"type":"function","name":"maxMintsPerCycle","inputs":[],"outputs":[{"name":"","type":"uint256","internalType":"uint256"}],"stateMutability":"view"},{"type":"function","name":"maxNFTSend","inputs":[],"outputs":[{"name":"","type":"uint256","internalType":"uint256"}],"stateMutability":"view"},{"type":"function","name":"maxVaultSend","inputs":[],"outputs":[{"name":"","type":"uint256","internalType":"uint256"}],"stateMutability":"view"},{"type":"function","name":"minClaimPerDay","inputs":[],"outputs":[{"name":"","type":"uint256","internalType":"uint256"}],"stateMutability":"view"},{"type":"function","name":"minMintQty","inputs":[],"outputs":[{"name":"","type":"uint256","internalType":"uint256"}],"stateMutability":"view"},{"type":"function","name":"mintCycleDays","inputs":[],"outputs":[{"name":"","type":"uint256","internalType":"uint256"}],"stateMutability":"view"},{"type":"function","name":"mintFeePerQty","inputs":[],"outputs":[{"name":"","type":"uint256","internalType":"uint256"}],"stateMutability":"view"},{"type":"function","name":"owner","inputs":[],"outputs":[{"name":"","type":"address","internalType":"address"}],"stateMutability":"view"},{"type":"function","name":"pool","inputs":[],"outputs":[{"name":"startafter","type":"uint256","internalType":"uint256"},{"name":"stakeN","type":"uint256","internalType":"uint256"},{"name":"stakeD","type":"uint256","internalType":"uint256"},{"name":"roiN","type":"uint256","internalType":"uint256"},{"name":"roiD","type":"uint256","internalType":"uint256"},{"name":"roiInt","type":"uint256","internalType":"uint256"},{"name":"roiEnd","type":"uint256","internalType":"uint256"}],"stateMutability":"view"},{"type":"function","name":"poolNFT1","inputs":[],"outputs":[{"name":"roiN","type":"uint256","internalType":"uint256"},{"name":"roiD","type":"uint256","internalType":"uint256"},{"name":"roiInt","type":"uint256","internalType":"uint256"},{"name":"startfrom","type":"uint256","internalType":"uint256"}],"stateMutability":"view"},{"type":"function","name":"poolNFT2","inputs":[],"outputs":[{"name":"roiN","type":"uint256","internalType":"uint256"},{"name":"roiD","type":"uint256","internalType":"uint256"},{"name":"roiInt","type":"uint256","internalType":"uint256"},{"name":"startfrom","type":"uint256","internalType":"uint256"}],"stateMutability":"view"},{"type":"function","name":"rankClause","inputs":[{"name":"","type":"uint256","internalType":"uint256"}],"outputs":[{"name":"direct","type":"uint256","internalType":"uint256"},{"name":"nftAmount","type":"uint256","internalType":"uint256"},{"name":"eRnk","type":"uint256","internalType":"uint256"},{"name":"gRnk","type":"uint256","internalType":"uint256"},{"name":"gPrd","type":"uint256","internalType":"uint256"}],"stateMutability":"view"},{"type":"function","name":"rankforDAO","inputs":[],"outputs":[{"name":"","type":"uint256","internalType":"uint256"}],"stateMutability":"view"},{"type":"function","name":"royalityClause","inputs":[{"name":"","type":"uint256","internalType":"uint256"}],"outputs":[{"name":"rwNum","type":"uint256","internalType":"uint256"},{"name":"rwDen","type":"uint256","internalType":"uint256"},{"name":"rwEnd","type":"uint256","internalType":"uint256"}],"stateMutability":"view"},{"type":"function","name":"setAllowForceTransfer","inputs":[{"name":"_f","type":"bool","internalType":"bool"}],"outputs":[],"stateMutability":"nonpayable"},{"type":"function","name":"setBurnConfig","inputs":[{"name":"_target1","type":"address","internalType":"address"},{"name":"_roiN1","type":"uint256","internalType":"uint256"},{"name":"_roiD1","type":"uint256","internalType":"uint256"},{"name":"_target2","type":"address","internalType":"address"},{"name":"_roiN2","type":"uint256","internalType":"uint256"},{"name":"_roiD2","type":"uint256","internalType":"uint256"}],"outputs":[],"stateMutability":"nonpayable"},{"type":"function","name":"setCapping","inputs":[{"name":"_multiple","type":"uint256","internalType":"uint256"},{"name":"_multipledollar","type":"uint256","internalType":"uint256"},{"name":"_rw","type":"bool","internalType":"bool"},{"name":"_ry","type":"bool","internalType":"bool"},{"name":"_self","type":"bool","internalType":"bool"},{"name":"_yei","type":"bool","internalType":"bool"}],"outputs":[],"stateMutability":"nonpayable"},{"type":"function","name":"setClaimPerDay","inputs":[{"name":"_min","type":"uint256","internalType":"uint256"},{"name":"_max","type":"uint256","internalType":"uint256"}],"outputs":[],"stateMutability":"nonpayable"},{"type":"function","name":"setCoinPool","inputs":[{"name":"_start","type":"uint256","internalType":"uint256"},{"name":"_stakeN","type":"uint256","internalType":"uint256"},{"name":"_stakeD","type":"uint256","internalType":"uint256"},{"name":"_roiN","type":"uint256","internalType":"uint256"},{"name":"_roiD","type":"uint256","internalType":"uint256"},{"name":"_roiInt","type":"uint256","internalType":"uint256"},{"name":"_roiEnd","type":"uint256","internalType":"uint256"}],"outputs":[],"stateMutability":"nonpayable"},{"type":"function","name":"setFreeIntervals","inputs":[{"name":"_d","type":"uint256","internalType":"uint256"}],"outputs":[],"stateMutability":"nonpayable"},{"type":"function","name":"setGlobalClaimPerDay","inputs":[{"name":"_ac","type":"uint256","internalType":"uint256"}],"outputs":[],"stateMutability":"nonpayable"},{"type":"function","name":"setMaxMintsPerCycle","inputs":[{"name":"_max","type":"uint256","internalType":"uint256"}],"outputs":[],"stateMutability":"nonpayable"},{"type":"function","name":"setMaxNFTSend","inputs":[{"name":"_d","type":"uint256","internalType":"uint256"}],"outputs":[],"stateMutability":"nonpayable"},{"type":"function","name":"setMintCycleDays","inputs":[{"name":"_d","type":"uint256","internalType":"uint256"}],"outputs":[],"stateMutability":"nonpayable"},{"type":"function","name":"setMintFee","inputs":[{"name":"_fe","type":"uint256","internalType":"uint256"}],"outputs":[],"stateMutability":"nonpayable"},{"type":"function","name":"setMintQty","inputs":[{"name":"_min","type":"uint256","internalType":"uint256"},{"name":"_max","type":"uint256","internalType":"uint256"}],"outputs":[],"stateMutability":"nonpayable"},{"type":"function","name":"setNFTAgePointer","inputs":[{"name":"_point","type":"uint256","internalType":"uint256"},{"name":"_leq","type":"uint256","internalType":"uint256"}],"outputs":[],"stateMutability":"nonpayable"},{"type":"function","name":"setNFTSendPerCycle","inputs":[{"name":"_d","type":"uint256","internalType":"uint256"}],"outputs":[],"stateMutability":"nonpayable"},{"type":"function","name":"setNftPool","inputs":[{"name":"_type","type":"uint256","internalType":"uint256"},{"name":"_roiN","type":"uint256","internalType":"uint256"},{"name":"_roiD","type":"uint256","internalType":"uint256"},{"name":"_roiInt","type":"uint256","internalType":"uint256"},{"name":"_startfrom","type":"uint256","internalType":"uint256"}],"outputs":[],"stateMutability":"nonpayable"},{"type":"function","name":"setRoyalityClause","inputs":[{"name":"_rank","type":"uint256","internalType":"uint256"},{"name":"_rwNum","type":"uint256","internalType":"uint256"},{"name":"_rwDen","type":"uint256","internalType":"uint256"},{"name":"_rwEnd","type":"uint256","internalType":"uint256"}],"outputs":[],"stateMutability":"nonpayable"},{"type":"function","name":"setTourClause","inputs":[{"name":"_rank","type":"uint256","internalType":"uint256"},{"name":"_tw","type":"uint256","internalType":"uint256"}],"outputs":[],"stateMutability":"nonpayable"},{"type":"function","name":"setValidatorPool","inputs":[{"name":"_type","type":"uint256","internalType":"uint256"},{"name":"_qty","type":"uint256","internalType":"uint256"},{"name":"_roiN","type":"uint256","internalType":"uint256"},{"name":"_roiD","type":"uint256","internalType":"uint256"},{"name":"_roiInt","type":"uint256","internalType":"uint256"}],"outputs":[],"stateMutability":"nonpayable"},{"type":"function","name":"setVaultData","inputs":[{"name":"_d","type":"uint256","internalType":"uint256"},{"name":"_v","type":"uint256","internalType":"uint256"},{"name":"_c","type":"uint256","internalType":"uint256"}],"outputs":[],"stateMutability":"nonpayable"},{"type":"function","name":"setclaimCycle","inputs":[{"name":"_d","type":"uint256","internalType":"uint256"}],"outputs":[],"stateMutability":"nonpayable"},{"type":"function","name":"setlevelClause","inputs":[{"name":"lvl","type":"uint256","internalType":"uint256"},{"name":"_rank","type":"uint256","internalType":"uint256"},{"name":"_rpernum","type":"uint256","internalType":"uint256"},{"name":"_rperden","type":"uint256","internalType":"uint256"},{"name":"_ypernum","type":"uint256","internalType":"uint256"},{"name":"_yperden","type":"uint256","internalType":"uint256"}],"outputs":[],"stateMutability":"nonpayable"},{"type":"function","name":"setrankClause","inputs":[{"name":"rnk","type":"uint256","internalType":"uint256"},{"name":"dirc","type":"uint256","internalType":"uint256"},{"name":"nftAmt","type":"uint256","internalType":"uint256"},{"name":"ernk","type":"uint256","internalType":"uint256"},{"name":"grnk","type":"uint256","internalType":"uint256"},{"name":"gprd","type":"uint256","internalType":"uint256"}],"outputs":[],"stateMutability":"nonpayable"},{"type":"function","name":"setrankforDAO","inputs":[{"name":"_r","type":"uint256","internalType":"uint256"}],"outputs":[],"stateMutability":"nonpayable"},{"type":"function","name":"setshutdown","inputs":[{"name":"_shutdown","type":"bool","internalType":"bool"}],"outputs":[],"stateMutability":"nonpayable"},{"type":"function","name":"shutdown","inputs":[],"outputs":[{"name":"","type":"bool","internalType":"bool"}],"stateMutability":"view"},{"type":"function","name":"syncBaseAddr","inputs":[],"outputs":[],"stateMutability":"nonpayable"},{"type":"function","name":"systemAge","inputs":[],"outputs":[{"name":"","type":"uint256","internalType":"uint256"}],"stateMutability":"view"},{"type":"function","name":"tourClause","inputs":[{"name":"","type":"uint256","internalType":"uint256"}],"outputs":[{"name":"","type":"uint256","internalType":"uint256"}],"stateMutability":"view"},{"type":"function","name":"valExternal","inputs":[],"outputs":[{"name":"qtyORmul","type":"uint256","internalType":"uint256"},{"name":"roiN","type":"uint256","internalType":"uint256"},{"name":"roiD","type":"uint256","internalType":"uint256"},{"name":"roiInt","type":"uint256","internalType":"uint256"}],"stateMutability":"view"},{"type":"function","name":"valInternal","inputs":[],"outputs":[{"name":"qtyORmul","type":"uint256","internalType":"uint256"},{"name":"roiN","type":"uint256","internalType":"uint256"},{"name":"roiD","type":"uint256","internalType":"uint256"},{"name":"roiInt","type":"uint256","internalType":"uint256"}],"stateMutability":"view"},{"type":"function","name":"vaultOnStakeAmt","inputs":[],"outputs":[{"name":"","type":"uint256","internalType":"uint256"}],"stateMutability":"view"},{"type":"function","name":"vaultSendPerCycle","inputs":[],"outputs":[{"name":"","type":"uint256","internalType":"uint256"}],"stateMutability":"view"},{"type":"event","name":"EthBurned","inputs":[{"name":"sender","type":"address","indexed":true,"internalType":"address"},{"name":"amount","type":"uint256","indexed":false,"internalType":"uint256"}],"anonymous":false},{"type":"event","name":"EthTransferred","inputs":[{"name":"to","type":"address","indexed":true,"internalType":"address"},{"name":"amount","type":"uint256","indexed":false,"internalType":"uint256"}],"anonymous":false},{"type":"event","name":"HexBaseUpdated","inputs":[{"name":"previousHexBase","type":"address","indexed":true,"internalType":"address"},{"name":"newHexBase","type":"address","indexed":true,"internalType":"address"}],"anonymous":false},{"type":"event","name":"OwnerUpdated","inputs":[{"name":"previousOwner","type":"address","indexed":true,"internalType":"address"},{"name":"newOwner","type":"address","indexed":true,"internalType":"address"}],"anonymous":false},{"type":"error","name":"CallFailed","inputs":[]},{"type":"error","name":"InvalidAddress","inputs":[]},{"type":"error","name":"InvalidState","inputs":[]},{"type":"error","name":"NotAuthorized","inputs":[]},{"type":"error","name":"NotSafe","inputs":[]},{"type":"error","name":"TargetCallFailed","inputs":[{"name":"selector","type":"bytes4","internalType":"bytes4"}]}],"bytecode":{"object":"0x6080806040523462001c44576200003962004cea91823803809362000025828462001c81565b82396001600160a01b039281019062001ca5565b16801562001c3257600180546001600160a01b03199081163317825560008054909116831790554260115560a760255561010e602655601e602b55602c819055602d8190556002602e5561c350602f5561025860305560036031819055601960325568878678326eac900000603355670de0b6b3a764000060345569021e19e0c9bab24000006035556036829055603755603855600760395560056048556049805460ff1916905560405160e081016001600160401b0381118282101762001c1c576102589160c0916040526002815260646020820152600160408201526023606082015260646080820152600160a0820152015260026016556064601755600160185560236019556064601a556001601b55610258601c5560b460606200016062001cc6565b60198152600a6020820152605a604082015201526019601d55600a601e55605a601f5560b46020556200019262001cc6565b600581526001602082015260b460606101689283604082015201526005602155600160225560235560b4602455600160a0620001cd62001cfc565b6003815260036020820152826040820152826060820152826080820152015260036027556003602855630101010163ffffffff1960295416176029556200021362001cc6565b610258606061014092838152600b6020820152600a60408201520152603a55600b603b55600a603c55610258603d5561025860606200025162001cc6565b60d28152600b6020820152600a6040820152015260d2603e55600b603f55600a6040556102586041556200028462001cfc565b90604051635e09dbe760e01b8152602081600481855afa91821562001bee5760049260209260009162001bfa575b506001600160a01b03168452605f828501526001604080860191909152516311be646b60e21b815292839182905afa801562001bee5760409160009162001bb8575b5060018060a01b03169182606082015260056080820152600160a082015260018060a01b0381511660018060a01b031960425416176042556020810151604355015160445560018060a01b031960455416176045556005604655600160475562000446604051620003658162001c49565b60008082526020808301828152604084018381526060850184815261270f60808701908152948052601390935293517f8fa6efc3be94b5b348b21fea823fe8d100408cee9b7f90524494500445d8ff6c55517f8fa6efc3be94b5b348b21fea823fe8d100408cee9b7f90524494500445d8ff6d5591517f8fa6efc3be94b5b348b21fea823fe8d100408cee9b7f90524494500445d8ff6e5590517f8fa6efc3be94b5b348b21fea823fe8d100408cee9b7f90524494500445d8ff6f55517f8fa6efc3be94b5b348b21fea823fe8d100408cee9b7f90524494500445d8ff7055565b6200053f604051620004588162001c49565b60078152601960208083019182526000604084018181526060850182815261270f608087019081526001909352601390935293517f4155c2f711f2cdd34f8262ab8fb9b7020a700fe7b6948222152f7670d1fdf34d5591517f4155c2f711f2cdd34f8262ab8fb9b7020a700fe7b6948222152f7670d1fdf34e5591517f4155c2f711f2cdd34f8262ab8fb9b7020a700fe7b6948222152f7670d1fdf34f5590517f4155c2f711f2cdd34f8262ab8fb9b7020a700fe7b6948222152f7670d1fdf35055517f4155c2f711f2cdd34f8262ab8fb9b7020a700fe7b6948222152f7670d1fdf35155565b62000638604051620005518162001c49565b60078152606460208083019182526000604084018181526060850182815261270f608087019081526002909352601390935293517f0b9d2c0c271bb30544eb78c59bdaebdae2728e5f65814c07768a0abe90ed19235591517f0b9d2c0c271bb30544eb78c59bdaebdae2728e5f65814c07768a0abe90ed19245591517f0b9d2c0c271bb30544eb78c59bdaebdae2728e5f65814c07768a0abe90ed19255590517f0b9d2c0c271bb30544eb78c59bdaebdae2728e5f65814c07768a0abe90ed192655517f0b9d2c0c271bb30544eb78c59bdaebdae2728e5f65814c07768a0abe90ed192755565b620007326040516200064a8162001c49565b600781526101f46020808301918252600360408401818152600060608601818152601e6080880190815293909152601390935293517f0d2a6872ef858a7f8ead18dc4f3f2e8d35c853d47e2816cbb9cdd49202554e0c5591517f0d2a6872ef858a7f8ead18dc4f3f2e8d35c853d47e2816cbb9cdd49202554e0d5591517f0d2a6872ef858a7f8ead18dc4f3f2e8d35c853d47e2816cbb9cdd49202554e0e5590517f0d2a6872ef858a7f8ead18dc4f3f2e8d35c853d47e2816cbb9cdd49202554e0f55517f0d2a6872ef858a7f8ead18dc4f3f2e8d35c853d47e2816cbb9cdd49202554e1055565b6200082e604051620007448162001c49565b600781526107d06020808301918252600460408401818152600360608601908152601e60808701908152600093909352601390935293517f01413ff7a3b1d5b6c016c061d48e2c7014700c777a29fcd068fff04265813d5d5591517f01413ff7a3b1d5b6c016c061d48e2c7014700c777a29fcd068fff04265813d5e5591517f01413ff7a3b1d5b6c016c061d48e2c7014700c777a29fcd068fff04265813d5f5590517f01413ff7a3b1d5b6c016c061d48e2c7014700c777a29fcd068fff04265813d6055517f01413ff7a3b1d5b6c016c061d48e2c7014700c777a29fcd068fff04265813d6155565b62000927604051620008408162001c49565b6007815261138860208083019182526004604084018181526060850191825261270f608086019081526005600052601390935293517ff4b2859895858d6aa26d656e4999d552f6a869b74c43bba7d2a941c4d22c35595591517ff4b2859895858d6aa26d656e4999d552f6a869b74c43bba7d2a941c4d22c355a5591517ff4b2859895858d6aa26d656e4999d552f6a869b74c43bba7d2a941c4d22c355b55517ff4b2859895858d6aa26d656e4999d552f6a869b74c43bba7d2a941c4d22c355c55517ff4b2859895858d6aa26d656e4999d552f6a869b74c43bba7d2a941c4d22c355d55565b62000a20604051620009398162001c49565b6007815261271060208083019182526004604084018181526060850191825261270f608086019081526006600052601390935293517f709d0e3cf89777a1e1f9c99632e4494f29b0327befd0df15e277a12d948257955591517f709d0e3cf89777a1e1f9c99632e4494f29b0327befd0df15e277a12d948257965591517f709d0e3cf89777a1e1f9c99632e4494f29b0327befd0df15e277a12d9482579755517f709d0e3cf89777a1e1f9c99632e4494f29b0327befd0df15e277a12d9482579855517f709d0e3cf89777a1e1f9c99632e4494f29b0327befd0df15e277a12d9482579955565b62000b1b60405162000a328162001c49565b60078082526161a860208084019182526004604085018181526060860191825261270f60808701908152600095909552601390925293517f8ba6fb577925b0796671c737df59b8aaae861b630513fb12823699e3e0e3ee605590517f8ba6fb577925b0796671c737df59b8aaae861b630513fb12823699e3e0e3ee6155517f8ba6fb577925b0796671c737df59b8aaae861b630513fb12823699e3e0e3ee625590517f8ba6fb577925b0796671c737df59b8aaae861b630513fb12823699e3e0e3ee6355517f8ba6fb577925b0796671c737df59b8aaae861b630513fb12823699e3e0e3ee6455565b62000c1160405162000b2d8162001c49565b6000808252600660208084019182526001604085018181526005606087019081526080870183815292909552601590925293517f27739e4bb5e6f8b5e4b57a047dca8767cc9b982a011081e086cbb0dfa9de818d5590517f27739e4bb5e6f8b5e4b57a047dca8767cc9b982a011081e086cbb0dfa9de818e55517f27739e4bb5e6f8b5e4b57a047dca8767cc9b982a011081e086cbb0dfa9de818f55517f27739e4bb5e6f8b5e4b57a047dca8767cc9b982a011081e086cbb0dfa9de819055517f27739e4bb5e6f8b5e4b57a047dca8767cc9b982a011081e086cbb0dfa9de819155565b62000d0860405162000c238162001c49565b600080825260036020808401918252600160408501818152600560608701908152608087019283526002909552601590925293517f07d4ff730d9753101d832555708a37d38c2c45fce8cacaefc99f06074e93fe0b5590517f07d4ff730d9753101d832555708a37d38c2c45fce8cacaefc99f06074e93fe0c55517f07d4ff730d9753101d832555708a37d38c2c45fce8cacaefc99f06074e93fe0d55517f07d4ff730d9753101d832555708a37d38c2c45fce8cacaefc99f06074e93fe0e55517f07d4ff730d9753101d832555708a37d38c2c45fce8cacaefc99f06074e93fe0f55565b62000e0260405162000d1a8162001c49565b60028152600f6020808301918252600a604084019081526005606085019081526001608086019081526003600052601590935293517fb3a65e8276bd33b3e4f7d6081ebd9899187264822358758dca2e2bc37b2a9c275591517fb3a65e8276bd33b3e4f7d6081ebd9899187264822358758dca2e2bc37b2a9c285590517fb3a65e8276bd33b3e4f7d6081ebd9899187264822358758dca2e2bc37b2a9c295590517fb3a65e8276bd33b3e4f7d6081ebd9899187264822358758dca2e2bc37b2a9c2a55517fb3a65e8276bd33b3e4f7d6081ebd9899187264822358758dca2e2bc37b2a9c2b55565b62000efc60405162000e148162001c49565b60028152600f6020808301918252600a604084019081526005606085019081526001608086019081526004600052601590935293517f8191f4eb6b8bafbfe9a5389c8d07d7f5fd81137a7ee653fc4358269845ee1d2e5591517f8191f4eb6b8bafbfe9a5389c8d07d7f5fd81137a7ee653fc4358269845ee1d2f5590517f8191f4eb6b8bafbfe9a5389c8d07d7f5fd81137a7ee653fc4358269845ee1d305590517f8191f4eb6b8bafbfe9a5389c8d07d7f5fd81137a7ee653fc4358269845ee1d3155517f8191f4eb6b8bafbfe9a5389c8d07d7f5fd81137a7ee653fc4358269845ee1d3255565b62000ff660405162000f0e8162001c49565b60028152600f6020808301918252600a60408401908152600560608501818152600160808701908152600092909252601590935293517fbab719002e4be320868650dc7456e9a1d245e4d5dd64765588e2f21529d871d35591517fbab719002e4be320868650dc7456e9a1d245e4d5dd64765588e2f21529d871d45590517fbab719002e4be320868650dc7456e9a1d245e4d5dd64765588e2f21529d871d555517fbab719002e4be320868650dc7456e9a1d245e4d5dd64765588e2f21529d871d655517fbab719002e4be320868650dc7456e9a1d245e4d5dd64765588e2f21529d871d755565b62001974604051620010088162001c49565b60028152604b602080830182815260646040850181815260fa60608701818152608088019384526006600052601590955295517f25847c9ccf691da811a9f934d6b3b92e6062ef92feb71bf4cb08cbb4fad8d6525591517f25847c9ccf691da811a9f934d6b3b92e6062ef92feb71bf4cb08cbb4fad8d6535590517f25847c9ccf691da811a9f934d6b3b92e6062ef92feb71bf4cb08cbb4fad8d6545590517f25847c9ccf691da811a9f934d6b3b92e6062ef92feb71bf4cb08cbb4fad8d65555517f25847c9ccf691da811a9f934d6b3b92e6062ef92feb71bf4cb08cbb4fad8d6565590620011e0604051620010ff8162001c49565b60028152602080820185815260646040840181815260608501878152608086019283526007600052601590945293517f5d0f48e37dc1225cdee8d6f2a0315d796f55423522fe638d7d95421802dfc0065590517f5d0f48e37dc1225cdee8d6f2a0315d796f55423522fe638d7d95421802dfc0075591517f5d0f48e37dc1225cdee8d6f2a0315d796f55423522fe638d7d95421802dfc00855517f5d0f48e37dc1225cdee8d6f2a0315d796f55423522fe638d7d95421802dfc00955517f5d0f48e37dc1225cdee8d6f2a0315d796f55423522fe638d7d95421802dfc00a55565b620012d3604051620011f28162001c49565b60028152602080820185815260646040840181815260608501878152608086019283526008600052601590945293517f2d0e46a571fdfbe57c7c718891a8a12999c102dfffa2b3314ea165dedd1684f55590517f2d0e46a571fdfbe57c7c718891a8a12999c102dfffa2b3314ea165dedd1684f65591517f2d0e46a571fdfbe57c7c718891a8a12999c102dfffa2b3314ea165dedd1684f755517f2d0e46a571fdfbe57c7c718891a8a12999c102dfffa2b3314ea165dedd1684f855517f2d0e46a571fdfbe57c7c718891a8a12999c102dfffa2b3314ea165dedd1684f955565b620013c6604051620012e58162001c49565b60028152602080820185815260646040840181815260608501878152608086019283526009600052601590945293517f497613c0658032a90a449a944031c57b1d03996c3a6148fe12146c45cf3214005590517f497613c0658032a90a449a944031c57b1d03996c3a6148fe12146c45cf3214015591517f497613c0658032a90a449a944031c57b1d03996c3a6148fe12146c45cf32140255517f497613c0658032a90a449a944031c57b1d03996c3a6148fe12146c45cf32140355517f497613c0658032a90a449a944031c57b1d03996c3a6148fe12146c45cf32140455565b620014b9604051620013d88162001c49565b6002815260208082018581526064604084018181526060850187815260808601928352600a600052601590945293517f0cfcac9f3767130657d3b01a9146da544eeb39eb9670066ace5e84da7fc4319f5590517f0cfcac9f3767130657d3b01a9146da544eeb39eb9670066ace5e84da7fc431a05591517f0cfcac9f3767130657d3b01a9146da544eeb39eb9670066ace5e84da7fc431a155517f0cfcac9f3767130657d3b01a9146da544eeb39eb9670066ace5e84da7fc431a255517f0cfcac9f3767130657d3b01a9146da544eeb39eb9670066ace5e84da7fc431a355565b620015ac604051620014cb8162001c49565b6002815260208082018581526064604084018181526060850187815260808601928352600b600052601590945293517fcaeae41dfed97dfd8c41876ff591faa3e36cda388621c550caa3321a2a624e5f5590517fcaeae41dfed97dfd8c41876ff591faa3e36cda388621c550caa3321a2a624e605591517fcaeae41dfed97dfd8c41876ff591faa3e36cda388621c550caa3321a2a624e6155517fcaeae41dfed97dfd8c41876ff591faa3e36cda388621c550caa3321a2a624e6255517fcaeae41dfed97dfd8c41876ff591faa3e36cda388621c550caa3321a2a624e6355565b6200169f604051620015be8162001c49565b6002815260208082018581526064604084018181526060850187815260808601928352600c600052601590945293517f74c10a04815bbeaf3165dab0bd11b69aae73edf00a48b27ec8c53ac5b61d47fd5590517f74c10a04815bbeaf3165dab0bd11b69aae73edf00a48b27ec8c53ac5b61d47fe5591517f74c10a04815bbeaf3165dab0bd11b69aae73edf00a48b27ec8c53ac5b61d47ff55517f74c10a04815bbeaf3165dab0bd11b69aae73edf00a48b27ec8c53ac5b61d480055517f74c10a04815bbeaf3165dab0bd11b69aae73edf00a48b27ec8c53ac5b61d480155565b62001792604051620016b18162001c49565b6002815260208082018581526064604084018181526060850187815260808601928352600d600052601590945293517fe3e3bb3f660b5aca6f44f8cdafd6456c07cd53888341ab748ffc02d532ccc70e5590517fe3e3bb3f660b5aca6f44f8cdafd6456c07cd53888341ab748ffc02d532ccc70f5591517fe3e3bb3f660b5aca6f44f8cdafd6456c07cd53888341ab748ffc02d532ccc71055517fe3e3bb3f660b5aca6f44f8cdafd6456c07cd53888341ab748ffc02d532ccc71155517fe3e3bb3f660b5aca6f44f8cdafd6456c07cd53888341ab748ffc02d532ccc71255565b62001885604051620017a48162001c49565b6002815260208082018581526064604084018181526060850187815260808601928352600e600052601590945293517f39f65be0de5254440eb2b93b160b1af3a4f45fe0571eaea7ef454b27b7f02d185590517f39f65be0de5254440eb2b93b160b1af3a4f45fe0571eaea7ef454b27b7f02d195591517f39f65be0de5254440eb2b93b160b1af3a4f45fe0571eaea7ef454b27b7f02d1a55517f39f65be0de5254440eb2b93b160b1af3a4f45fe0571eaea7ef454b27b7f02d1b55517f39f65be0de5254440eb2b93b160b1af3a4f45fe0571eaea7ef454b27b7f02d1c55565b60405191620018948362001c49565b6002835260208084019182526064604085018181526060860194855260808601918252600f600052601590925293517f3bda72f6153f13a10a865b9a6397e1123f4aa6a1726e0e1349cd07eb0e24d8155590517f3bda72f6153f13a10a865b9a6397e1123f4aa6a1726e0e1349cd07eb0e24d81655517f3bda72f6153f13a10a865b9a6397e1123f4aa6a1726e0e1349cd07eb0e24d81755517f3bda72f6153f13a10a865b9a6397e1123f4aa6a1726e0e1349cd07eb0e24d81855517f3bda72f6153f13a10a865b9a6397e1123f4aa6a1726e0e1349cd07eb0e24d81955565b604051620019828162001c65565b60128152600a6020808301918252602d60408085019182526003600052601490925292517f63d87a887046e0430be80fdeb014107d7198c879cbf2cddf39a6df195c86cb385590517f63d87a887046e0430be80fdeb014107d7198c879cbf2cddf39a6df195c86cb395590517f63d87a887046e0430be80fdeb014107d7198c879cbf2cddf39a6df195c86cb3a555162001a1c8162001c65565b60128152600a6020808301918252605a60408085019182526005600052601490925292517f116126bec5aaa49b347e966c49378cf0c441de9121e306ea3d824584a9615aa25590517f116126bec5aaa49b347e966c49378cf0c441de9121e306ea3d824584a9615aa35590517f116126bec5aaa49b347e966c49378cf0c441de9121e306ea3d824584a9615aa4555162001ab68162001c65565b60098152600a602080830182815261270f6040808601918252600760009081526014855295517f904977a779b22381a36c6463d4166ef55ee8cb3392c83093cb1750f1a00c9d945591517f904977a779b22381a36c6463d4166ef55ee8cb3392c83093cb1750f1a00c9d9555517f904977a779b22381a36c6463d4166ef55ee8cb3392c83093cb1750f1a00c9d9655601290915260327f8e1fee8c88a9e04123b21e90cae2727a7715bf522a1e46eb5934ccd05203a6b25560049092526101f47fb4fcd034df3d20faa1c133b66d862ce92732727d40916b48ffb4020cb00fe053556005601f55602381905560a760255560265551612faa908162001d408239f35b62001bdf915060203d60201162001be6575b62001bd6818362001c81565b81019062001ca5565b38620002f4565b503d62001bca565b6040513d6000823e3d90fd5b62001c159150833d851162001be65762001bd6818362001c81565b38620002b2565b634e487b7160e01b600052604160045260246000fd5b60405163e6c4247b60e01b8152600490fd5b600080fd5b60a081019081106001600160401b0382111762001c1c57604052565b606081019081106001600160401b0382111762001c1c57604052565b601f909101601f19168101906001600160401b0382119082101762001c1c57604052565b9081602091031262001c4457516001600160a01b038116810362001c445790565b60405190608082016001600160401b0381118382101762001c1c5760405260006060838281528260208201528260408201520152565b6040519060c082016001600160401b0381118382101762001c1c576040528160a0600091828152826020820152826040820152826060820152826080820152015256fe60806040526004361015610018575b361561001657005b005b60003560e01c806304ce9f80146104b85780630609a0e3146104b357806307175c83146104ae57806309307c62146104a95780630b225f1a146104a45780630ea0d2221461049f57806312065fe01461049a57806314be92a51461049557806315a544ed146104905780631605aed91461048b57806316f0115b14610486578063179b570a14610481578063192b48ee1461047c5780631ef6a864146104775780631f185d1614610472578063203bab661461046d57806326c5adae14610468578063298fc46014610463578063339459a61461045e5780633688236d146104595780633b9b7955146104545780634151331d1461044f578063438fe1921461044a57806344ec16bc146104455780634b62954f1461044057806353423e861461043b578063541d76671461043657806354541683146104315780635640dbfc1461042c578063592a02a8146104275780635962205f146104225780635a0e90381461041d57806368400cb3146104185780636c7deb5d146104135780636f092c5e1461040e5780637687e3711461040957806378ef376f146104045780637bc908c6146103ff57806382a3c503146103fa578063840bbc1e146103f55780638da5cb5b146103f057806391fc8aa8146103eb5780639319d0b5146103e657806395cea094146103e15780639d80ab9b146103dc5780639eb8b44e146103d75780639f70207d146103d2578063a19841dd146103cd578063a1f7f539146103c8578063a88fcea6146103c3578063ac14611a146103be578063aebcd32a146103b9578063af0b21d3146103b4578063af484526146103af578063b3386775146103aa578063b49c064c146103a5578063b85f1f8d146103a0578063b90306ad1461039b578063c54e44b014610396578063c5a136d414610391578063d0bb2ddf1461038c578063dbad649c14610387578063e01ad5fd14610382578063e0a9bc2b1461037d578063e19a5bcf14610378578063e6a7791914610373578063eddd0d9c1461036e578063f27c35c614610369578063f2a6bbc714610364578063f4fe8e3c1461035f578063f5de7bd21461035a578063f7a9783e14610355578063fc0e74d1146103505763fdc10bc90361000e5761271a565b6126f7565b61267e565b612623565b6125b7565b612568565b6124bd565b61246e565b612374565b6122b8565b61229d565b6121d2565b6121b4565b61215e565b6120c1565b61203b565b611f3a565b611f00565b611edd565b611ebf565b611e8e565b611e70565b611e08565b611db6565b611d98565b611d23565b611cea565b611ccc565b611af5565b611a76565b611a58565b611a09565b6119eb565b6119c4565b61194b565b6118a7565b611889565b61183a565b6117d2565b6117a6565b611757565b611739565b611700565b611698565b611599565b611518565b6114fa565b611484565b611466565b611411565b6113c2565b6113a4565b611361565b61133a565b61131c565b610c39565b610bd1565b610ae7565b610a5c565b610975565b6108ae565b61081e565b6107c9565b610778565b61075a565b61073c565b6106ed565b6106d1565b6106b3565b610695565b610640565b610622565b61057f565b3461057a57604036600319011261057a57600080808060243560043560018114610544575b600214610512575b509061050e91604051948594859094939260609260808301968352602083015260408201520152565b0390f35b60215460225460235460255492975090955061050e945092501161053c576026545b9290916104e5565b602454610534565b935093505050601d5491601e54601f54918060255411156000146105705760026026545b9490506104dd565b6002602054610568565b600080fd5b3461057a57602036600319011261057a57610598612be9565b156105f8576105a633612c6e565b80156105e4575b156105ba57600435602b55005b60046040517fea8e4eb5000000000000000000000000000000000000000000000000000000008152fd5b50336001600160a01b0360055416146105ad565b60046040517f9dc4246e000000000000000000000000000000000000000000000000000000008152fd5b3461057a57600036600319011261057a576020603254604051908152f35b3461057a57604036600319011261057a57610659612be9565b156105f85761066733612c6e565b8015610681575b156105ba57600435603455602435603555005b50336001600160a01b03600554161461066e565b3461057a57600036600319011261057a576020604854604051908152f35b3461057a57600036600319011261057a576020603054604051908152f35b3461057a57600036600319011261057a57602047604051908152f35b3461057a57602036600319011261057a57610706612be9565b156105f85761071433612c6e565b8015610728575b156105ba57600435603055005b50336001600160a01b03600554161461071b565b3461057a57600036600319011261057a576020603554604051908152f35b3461057a57600036600319011261057a576020603454604051908152f35b3461057a57600036600319011261057a5760e0601654601754601854601954601a5490601b5492601c5494604051968752602087015260408601526060850152608084015260a083015260c0820152f35b3461057a57604036600319011261057a576107e2612be9565b156105f8576107f033612c6e565b801561080a575b156105ba57600435602555602435602655005b50336001600160a01b0360055416146107f7565b3461057a57602036600319011261057a5760043561083a612be9565b156105f85761084833612c6e565b8015610878575b156105ba57670de0b6b3a76400009081810291818304149015171561087357603355005b612e14565b50336001600160a01b03600554161461084f565b60a090600319011261057a576004359060243590604435906064359060843590565b3461057a576108bc3661088c565b906108c994929394612be9565b156105f8576108d733612c6e565b8015610950575b156105ba576002936108ee612ec5565b9586526020860152604085015260608401526001811461092e575b1461091057005b8051603e556020810151603f55604080820151905560600151604155005b8251603a556020830151603b556040830151603c556060830151603d55610909565b50336001600160a01b0360055416146108de565b6001600160a01b0381160361057a57565b3461057a5760208060031936011261057a576109f460043561099681610964565b6001600160a01b038060025416906040519216848301528382526109b982612809565b604051906109c682612809565b601182527f69735369676e657228616464726573732900000000000000000000000000000085830152612d28565b919080610a52575b15610a28578181610a169261050e94518301019101612bd4565b60405190151581529081906020820190565b60046040517f3204506f000000000000000000000000000000000000000000000000000000008152fd5b50808251146109fc565b3461057a5760e036600319011261057a57610a75612be9565b156105f857610a8333612c6e565b8015610ad3575b156105ba57610a9a604051612794565b600435601655602435601755604435601855606435601955610abd608435601a55565b610ac860a435601b55565b61001660c435601c55565b50336001600160a01b036005541614610a8a565b3461057a57602036600319011261057a57600460206001600160a01b0360005416604051928380926369e8d84b60e11b82525afa8015610bc257610b4591600091610b94575b50610b36612f23565b90610b3f612f3b565b90612dd6565b60325490670de0b6b3a7640000918281029281840414901517156108735761050e91610b7f610b8492610b7a60043593612e2a565b612e5a565b612e47565b6040519081529081906020820190565b610bb5915060203d8111610bbb575b610bad8183612841565b810190612863565b38610b2d565b503d610ba3565b61287b565b8015150361057a57565b3461057a57602036600319011261057a57600435610bee81610bc7565b610bf6612be9565b156105f857610c0433612c6e565b8015610c25575b156105ba5760ff8019604954169115151617604955600080f35b50336001600160a01b036005541614610c0b565b3461057a57600036600319011261057a57610c6b610c5f6000546001600160a01b031690565b6001600160a01b031690565b604051907f97f3815a000000000000000000000000000000000000000000000000000000008252602082600481845afa918215610bc2576000926112fb575b50604051917fcfbffe53000000000000000000000000000000000000000000000000000000008352602083600481855afa928315610bc2576000936112da575b50604051907fab6e844f000000000000000000000000000000000000000000000000000000008252602082600481865afa918215610bc2576000926112b9575b50604051917f14d8d024000000000000000000000000000000000000000000000000000000008352602083600481875afa928315610bc257600093611298575b50604051927fd1f956b1000000000000000000000000000000000000000000000000000000008452602084600481885afa938415610bc257600094611277575b50604051937fe61dfd58000000000000000000000000000000000000000000000000000000008552602085600481895afa948515610bc257600095611256575b506040517fe09d394d0000000000000000000000000000000000000000000000000000000081526020816004818a5afa908115610bc257600091611237575b506040517f52b06d640000000000000000000000000000000000000000000000000000000081526020816004818b5afa908115610bc257600091611218575b506040517f013cf08b00000000000000000000000000000000000000000000000000000000815260006004820152916020836024818c5afa928315610bc2576000936111f7575b50604051977f5e09dbe70000000000000000000000000000000000000000000000000000000089526020896004818d5afa948515610bc2576004996000966111d6575b5060208b6040519b8c80927faa0ddc160000000000000000000000000000000000000000000000000000000082525afa968715610bc25760049a6000986111b5575b5060208c6040519c8d80927f640274270000000000000000000000000000000000000000000000000000000082525afa988915610bc25760049b60009a611194575b5060208d6040519d8e80927f30125cf50000000000000000000000000000000000000000000000000000000082525afa9a8b15610bc2578d60049d60009d611172575b506020906040519e8f80927f24768d910000000000000000000000000000000000000000000000000000000082525afa9c8d15610bc25760009d611151575b50604051809e81907f9dc969a80000000000000000000000000000000000000000000000000000000082525a92600491602094fa9d8e15610bc25760009e611130575b50611044612887565b6001600160a01b0390911681529d8e906001600160a01b031660208201526040019061107891906001600160a01b03169052565b6001600160a01b031660608d01526001600160a01b031660808c01526001600160a01b031660a08b01526001600160a01b031660c08a01526001600160a01b031660e08901526001600160a01b03166101008801526001600160a01b03166101208701526001600160a01b03166101408601526001600160a01b03166101608501526001600160a01b03166101808401526001600160a01b03166101a08301526001600160a01b03166101c0820152610016906128b7565b61114a919e5060203d602011610bbb57610bad8183612841565b9c3861103b565b61116b919d5060203d602011610bbb57610bad8183612841565b9b38610ff8565b6020919d5061118d90823d8411610bbb57610bad8183612841565b9c90610fb9565b6111ae919a5060203d602011610bbb57610bad8183612841565b9838610f76565b6111cf91985060203d602011610bbb57610bad8183612841565b9638610f34565b6111f091965060203d602011610bbb57610bad8183612841565b9438610ef2565b61121191935060203d602011610bbb57610bad8183612841565b9138610eaf565b611231915060203d602011610bbb57610bad8183612841565b38610e68565b611250915060203d602011610bbb57610bad8183612841565b38610e29565b61127091955060203d602011610bbb57610bad8183612841565b9338610dea565b61129191945060203d602011610bbb57610bad8183612841565b9238610daa565b6112b291935060203d602011610bbb57610bad8183612841565b9138610d6a565b6112d391925060203d602011610bbb57610bad8183612841565b9038610d2a565b6112f491935060203d602011610bbb57610bad8183612841565b9138610cea565b61131591925060203d602011610bbb57610bad8183612841565b9038610caa565b3461057a57600036600319011261057a576020602f54604051908152f35b3461057a57600036600319011261057a5760206001600160a01b0360005416604051908152f35b3461057a57602036600319011261057a57600435600052601460205260606040600020805490600260018201549101549060405192835260208301526040820152f35b3461057a57600036600319011261057a576020602d54604051908152f35b3461057a57602036600319011261057a576113db612be9565b156105f8576113e933612c6e565b80156113fd575b156105ba57600435602c55005b50336001600160a01b0360055416146113f0565b3461057a57604036600319011261057a5761142a612be9565b156105f85761143833612c6e565b8015611452575b156105ba57600435602e55602435602f55005b50336001600160a01b03600554161461143f565b3461057a57600036600319011261057a576020603154604051908152f35b3461057a57602036600319011261057a57600460206001600160a01b0360005416604051928380926369e8d84b60e11b82525afa8015610bc2576114d9610b849161050e93600091610b945750610b36612f23565b6004356000526012602052610b7a6114f5604060002054612e2a565b612e2a565b3461057a57600036600319011261057a576020602c54604051908152f35b3461057a57600036600319011261057a5760c060275460ff60285460295490604051938452602084015281811615156040840152818160081c1615156060840152818160101c161515608084015260181c16151560a0820152f35b60c090600319011261057a57600435906024359060443590606435906084359060a43590565b3461057a576115a736611573565b906115b3959295612be9565b156105f8576115c133612c6e565b8015611684575b156105ba576010831015611640576100169561161194604051966115eb886127b5565b875260208701526040860152606085015260808401526000526015602052604060002090565b906080600491805184556020810151600185015560408101516002850155606081015160038501550151910155565b606460405162461bcd60e51b815260206004820152600d60248201527f696e76616c6964206c6576656c000000000000000000000000000000000000006044820152fd5b50336001600160a01b0360055416146115c8565b3461057a57602036600319011261057a5760043560005260156020526040600020805461050e6001830154926002810154906004600382015491015491604051958695869192608093969594919660a084019784526020840152604083015260608201520152565b3461057a57600036600319011261057a57601d54601e54601f546020805460408051958652918501939093528301526060820152608090f35b3461057a57600036600319011261057a576020603854604051908152f35b3461057a57602036600319011261057a57611770612be9565b156105f85761177e33612c6e565b8015611792575b156105ba57600435603155005b50336001600160a01b036005541614611785565b3461057a57602036600319011261057a5760043560005260126020526020604060002054604051908152f35b3461057a57602036600319011261057a576004356117ef81610bc7565b6117f7612be9565b156105f85761180533612c6e565b8015611826575b156105ba5760ff8019602a54169115151617602a55600080f35b50336001600160a01b03600554161461180c565b3461057a57602036600319011261057a57611853612be9565b156105f85761186133612c6e565b8015611875575b156105ba57600435603655005b50336001600160a01b036005541614611868565b3461057a57600036600319011261057a576020603654604051908152f35b3461057a5760c036600319011261057a576004356118c481610964565b6064356118d081610964565b6118d8612be9565b156105f8576118e633612c6e565b8015611937575b156105ba576001600160a01b0390816001600160a01b031993168360425416176042556024356043556044356044551690604554161760455560843560465560a435604755600080f35b50336001600160a01b0360055416146118ed565b3461057a57602036600319011261057a57600460206001600160a01b0360005416604051928380926369e8d84b60e11b82525afa908115610bc2576119b26119aa61050e93670de0b6b3a764000093600091610b945750610b36612f23565b600435612e47565b04604051918291829190602083019252565b3461057a57600036600319011261057a5760206001600160a01b0360015416604051908152f35b3461057a57600036600319011261057a576020603354604051908152f35b3461057a57602036600319011261057a57611a22612be9565b156105f857611a3033612c6e565b8015611a44575b156105ba57600435602d55005b50336001600160a01b036005541614611a37565b3461057a57600036600319011261057a576020603954604051908152f35b3461057a57600036600319011261057a57603a54603b54603c54603d54604080519485526020850193909352918301526060820152608090f35b6102a0810192916000915b60078310611ac857505050565b60019060608351918251815260209283810151848301526040809101519082015201920192019190611abb565b3461057a57600080600319360112611cc9576040908151611b1581612794565b815b60e08110611ca45761050e84611b2b6128a8565b6001600052601460205290611b647fb6c61a840592cc84133e4b25bd509abf4659307c57b160799b38490a5aa48f2c612efb565b612efb565b825260026000526014602052611b997fa1930aa930426c54c34daad2b9ada7c5d0ef0c96078a3c5bb79f6fa6602c4a7a612efb565b6020830152611bb6611b5f60036000526014602052604060002090565b8282015260046000526014602052611bed7f52102136546d97ed3f65ec1070a32935d3048ea12f310d29c378dc9d6555c0d6612efb565b606083015260056000526014602052611c257f116126bec5aaa49b347e966c49378cf0c441de9121e306ea3d824584a9615aa2612efb565b608083015260066000526014602052611c5d7fe1f6b6a5fb7e47dad87547d4b0671e7e995a1dae22fbe5b3b5d10e2a77ed7aff612efb565b60a083015260076000526014602052611c957f904977a779b22381a36c6463d4166ef55ee8cb3392c83093cb1750f1a00c9d94612efb565b60c08301525191829182611ab0565b6020908451611cb2816127d1565b848152848382015284868201528184015201611b17565b80fd5b3461057a57600036600319011261057a576020602554604051908152f35b3461057a57600036600319011261057a57603e54603f546040805460415482519485526020850193909352908301526060820152608090f35b3461057a57600036600319011261057a576020611d906001600160a01b0360065416604051611d5181612809565b601381527f67657464656c656761746f72436f756e742829000000000000000000000000008482015260405191611d8783612825565b60008352612dd6565b604051908152f35b3461057a57600036600319011261057a576020602e54604051908152f35b3461057a57600036600319011261057a57601154614d588082018092116108735742018042116108735761012c809104910481039081116108735761011e810180911161087357602090604051908152f35b3461057a57602036600319011261057a5760043560005260136020526040600020805461050e6001830154926002810154906004600382015491015491604051958695869192608093969594919660a084019784526020840152604083015260608201520152565b3461057a57600036600319011261057a576020602b54604051908152f35b3461057a57602036600319011261057a576020611eb5600435611eb081610964565b612c6e565b6040519015158152f35b3461057a57600036600319011261057a576020603754604051908152f35b3461057a57600036600319011261057a57602060ff604954166040519015158152f35b3461057a57600036600319011261057a57602154602254602354602454604080519485526020850193909352918301526060820152608090f35b3461057a57602036600319011261057a576004356001600160a01b036005541633036105ba5760009060046020611f7b610c5f85546001600160a01b031690565b604051928380927f46f991ac0000000000000000000000000000000000000000000000000000000082525afa8015610bc2578380848194938294839161201d575b505af1611fc7612cf8565b5015610a28577fcdcc745fe377b103b45fa0cec23ae3ef93d6fc6a84a01f0d18c40b354dd1d5d8612017612006610c5f600b546001600160a01b031690565b604051938452929081906020820190565b0390a280f35b612035915060203d8111610bbb57610bad8183612841565b38611fbc565b3461057a57602036600319011261057a5760043561205881610964565b803b600061206582612bb8565b926120736040519485612841565b82845260208401903c602d81511061209757602a602091015160601c604051908152f35b60046040517fbaf3f0f7000000000000000000000000000000000000000000000000000000008152fd5b3461057a57608036600319011261057a576004356120dd612be9565b156105f8576120eb33612c6e565b801561214a575b156105ba5761210360088210612e7a565b600260405191612112836127d1565b602435835260208301604435815260408401916064358352600052601460205260406000209351845551600184015551910155600080f35b50336001600160a01b0360055416146120f2565b3461057a57600036600319011261057a5760c06001600160a01b038060425416906043549060445490604554166046549160475493604051958652602086015260408501526060840152608083015260a0820152f35b3461057a57600036600319011261057a576020602654604051908152f35b3461057a5760208060031936011261057a5761050e90600435906121f582610964565b6122596001600160a01b039283600654169360405191168382015282815261221c81612809565b60405161222881612809565b601881527f697364656c656761746f724e6f6465286164647265737329000000000000000084820152600094612d28565b919080612293575b61227a575b505060405190151581529081906020820190565b61228c92508082518301019101612bd4565b3880612266565b5080825114612261565b3461057a57600036600319011261057a576020611eb5612be9565b3461057a576122c63661088c565b906122d394929394612be9565b156105f8576122e133612c6e565b8015612360575b156105ba576002936122f8612ec5565b95865260208601526040850152606084015260018114612338575b1461231a57005b80516021556020810151602255604081015160235560600151602455005b61235b836060908051601d556020810151601e556040810151601f550151602055565b612313565b50336001600160a01b0360055416146122e8565b3461057a5760c036600319011261057a5760443561239181610bc7565b6064359061239e82610bc7565b608435906123ab82610bc7565b60a435916123b883610bc7565b6123c0612be9565b156105f8576123ce33612c6e565b801561245a575b156105ba576100169361241061243b936123f06040516127ed565b600435602755602435602855151560ff8019602954169115151617602955565b6029805462ffff00191691151560081b61ff00169190911791151560101b62ff000016919091179055565b151563ff00000060295491151560181b169063ff000000191617602955565b50336001600160a01b0360055416146123d5565b3461057a57602036600319011261057a57612487612be9565b156105f85761249533612c6e565b80156124a9575b156105ba57600435603255005b50336001600160a01b03600554161461249c565b3461057a576124cb36611573565b916124d7959395612be9565b156105f8576124e533612c6e565b8015612554575b156105ba576100169560405195612502876127b5565b8652602086015260408501526060840152608083015260005260136020526040600020906080600491805184556020810151600185015560408101516002850155606081015160038501550151910155565b50336001600160a01b0360055416146124ec565b3461057a57602036600319011261057a57612581612be9565b156105f85761258f33612c6e565b80156125a3575b156105ba57600435604855005b50336001600160a01b036005541614612596565b3461057a57604036600319011261057a576004356125d3612be9565b156105f8576125e133612c6e565b801561260f575b156105ba576125f960088210612e7a565b6000526012602052602435604060002055600080f35b50336001600160a01b0360055416146125e8565b3461057a57606036600319011261057a5761263c612be9565b156105f85761264a33612c6e565b801561266a575b156105ba57600435603855602435603755604435603955005b50336001600160a01b036005541614612651565b3461057a57602036600319011261057a57600435600460206001600160a01b0360005416604051928380926369e8d84b60e11b82525afa8015610bc2576126cf91600091610b945750610b36612f23565b90670de0b6b3a7640000908181029181830414901517156108735761050e91610b8491612e5a565b3461057a57600036600319011261057a57602060ff602a54166040519015158152f35b3461057a57600036600319011261057a576020611d906001600160a01b036003541660405161274881612809565b600681527f69416765282900000000000000000000000000000000000000000000000000008482015260405191611d8783612825565b634e487b7160e01b600052604160045260246000fd5b60e0810190811067ffffffffffffffff8211176127b057604052565b61277e565b60a0810190811067ffffffffffffffff8211176127b057604052565b6060810190811067ffffffffffffffff8211176127b057604052565b60c0810190811067ffffffffffffffff8211176127b057604052565b6040810190811067ffffffffffffffff8211176127b057604052565b6020810190811067ffffffffffffffff8211176127b057604052565b90601f8019910116810190811067ffffffffffffffff8211176127b057604052565b9081602091031261057a575161287881610964565b90565b6040513d6000823e3d90fd5b604051906101e0820182811067ffffffffffffffff8211176127b057604052565b604051906128b582612794565b565b612b9c6101c06128b5926128f16128d582516001600160a01b031690565b6001600160a01b03166001600160a01b03196002541617600255565b61292461290860208301516001600160a01b031690565b6001600160a01b03166001600160a01b03196003541617600355565b61295761293b60408301516001600160a01b031690565b6001600160a01b03166001600160a01b03196004541617600455565b61298a61296e60608301516001600160a01b031690565b6001600160a01b03166001600160a01b03196005541617600555565b6129bd6129a160808301516001600160a01b031690565b6001600160a01b03166001600160a01b03196006541617600655565b6129f06129d460a08301516001600160a01b031690565b6001600160a01b03166001600160a01b03196007541617600755565b612a23612a0760c08301516001600160a01b031690565b6001600160a01b03166001600160a01b03196008541617600855565b612a56612a3a60e08301516001600160a01b031690565b6001600160a01b03166001600160a01b03196009541617600955565b612a8a612a6e6101008301516001600160a01b031690565b6001600160a01b03166001600160a01b0319600a541617600a55565b612abe612aa26101208301516001600160a01b031690565b6001600160a01b03166001600160a01b0319600b541617600b55565b612af2612ad66101408301516001600160a01b031690565b6001600160a01b03166001600160a01b0319600c541617600c55565b612b26612b0a6101608301516001600160a01b031690565b6001600160a01b03166001600160a01b0319600d541617600d55565b612b5a612b3e6101808301516001600160a01b031690565b6001600160a01b03166001600160a01b0319600e541617600e55565b612b8e612b726101a08301516001600160a01b031690565b6001600160a01b03166001600160a01b0319600f541617600f55565b01516001600160a01b031690565b6001600160a01b03166001600160a01b03196010541617601055565b67ffffffffffffffff81116127b057601f01601f191660200190565b9081602091031261057a575161287881610bc7565b612c446001600160a01b0360025416604051612c0481612809565b600881527f6973536166652829000000000000000000000000000000000000000000000000602082015260405191612c3b83612825565b60008352612d28565b9080612c63575b15610a28578060208061287893518301019101612bd4565b506020815114612c4b565b612cd16001600160a01b038060025416604051916020941684830152838252612c9682612809565b60405190612ca382612809565b601582527f697353656375726542617365286164647265737329000000000000000000000085830152612d28565b9080612cee575b15610a2857816128789282518301019101612bd4565b5081815114612cd8565b3d15612d23573d90612d0982612bb8565b91612d176040519384612841565b82523d6000602084013e565b606090565b9190823b15612dbd577fffffffff00000000000000000000000000000000000000000000000000000000815160208093012016916040519180830193845281519160005b838110612da9575050509181612d9960248260009795968897018783820152036004810184520182612841565b51915afa612da5612cf8565b9091565b818101830151858201602401528201612d6c565b505050600090604051612dcf81612825565b6000815290565b9291612de491600094612d28565b9080612e09575b612df25750565b90915060208180518101031261057a576020015190565b506020815114612deb565b634e487b7160e01b600052601160045260246000fd5b90670de0b6b3a76400009182810292818404149015171561087357565b8181029291811591840414171561087357565b8115612e64570490565b634e487b7160e01b600052601260045260246000fd5b15612e8157565b606460405162461bcd60e51b815260206004820152600c60248201527f696e76616c69642072616e6b00000000000000000000000000000000000000006044820152fd5b604051906080820182811067ffffffffffffffff8211176127b05760405260006060838281528260208201528260408201520152565b90604051612f08816127d1565b60406002829480548452600181015460208501520154910152565b604051612f2f81612825565b60008152906000368137565b60405190612f4882612809565b601282527f6f7a6f6e655072696365496e5553445428290000000000000000000000000000602083015256fea26469706673582212200830c0a794d99e81039eb8e9dadd4ac005438c568ef1499859118274c503ad5264736f6c63430008140033","linkReferences":{}},"methodIdentifiers":{"Burn(uint256)":"b90306ad","NFTAgePointer()":"9f70207d","NFTSendPerCycle()":"438fe192","StartAgePointerLEQ()":"dbad649c","_delegatorCount()":"a1f7f539","_getImplementation(address)":"c54e44b0","_isDelegatorNode(address)":"e01ad5fd","_isSafe()":"e0a9bc2b","_isSecureBase(address)":"af484526","_isSigner(address)":"1f185d16","allowForceTransfer()":"b49c064c","burncnfg()":"d0bb2ddf","capping()":"5640dbfc","computeDollarToOzone(uint256)":"f7a9783e","computeMintValue(uint256)":"26c5adae","computeOzoneToDollar(uint256)":"840bbc1e","computeTour(uint256)":"541d7667","eachclaimCycle()":"7bc908c6","freeIntervals()":"af0b21d3","getBalance()":"12065fe0","getBatchRoyaltyClauses()":"9eb8b44e","getHexbase()":"3b9b7955","getNftPool(uint256,uint256)":"04ce9f80","iAge()":"ac14611a","levelClause(uint256)":"5962205f","maxClaimPerDay()":"15a544ed","maxGlobalClaimPerDay()":"91fc8aa8","maxMintQty()":"3688236d","maxMintsPerCycle()":"53423e86","maxNFTSend()":"54541683","maxVaultSend()":"68400cb3","minClaimPerDay()":"1605aed9","minMintQty()":"a88fcea6","mintCycleDays()":"0ea0d222","mintFeePerQty()":"07175c83","owner()":"8da5cb5b","pool()":"16f0115b","poolNFT1()":"5a0e9038","poolNFT2()":"b85f1f8d","rankClause(uint256)":"aebcd32a","rankforDAO()":"0b225f1a","royalityClause(uint256)":"4151331d","setAllowForceTransfer(bool)":"298fc460","setBurnConfig(address,uint256,uint256,address,uint256,uint256)":"82a3c503","setCapping(uint256,uint256,bool,bool,bool,bool)":"e6a77919","setClaimPerDay(uint256,uint256)":"09307c62","setCoinPool(uint256,uint256,uint256,uint256,uint256,uint256,uint256)":"203bab66","setFreeIntervals(uint256)":"0609a0e3","setGlobalClaimPerDay(uint256)":"192b48ee","setMaxMintsPerCycle(uint256)":"6c7deb5d","setMaxNFTSend(uint256)":"44ec16bc","setMintCycleDays(uint256)":"14be92a5","setMintFee(uint256)":"eddd0d9c","setMintQty(uint256,uint256)":"4b62954f","setNFTAgePointer(uint256,uint256)":"179b570a","setNFTSendPerCycle(uint256)":"9319d0b5","setNftPool(uint256,uint256,uint256,uint256,uint256)":"e19a5bcf","setRoyalityClause(uint256,uint256,uint256,uint256)":"c5a136d4","setTourClause(uint256,uint256)":"f4fe8e3c","setValidatorPool(uint256,uint256,uint256,uint256,uint256)":"1ef6a864","setVaultData(uint256,uint256,uint256)":"f5de7bd2","setclaimCycle(uint256)":"78ef376f","setlevelClause(uint256,uint256,uint256,uint256,uint256,uint256)":"592a02a8","setrankClause(uint256,uint256,uint256,uint256,uint256,uint256)":"f27c35c6","setrankforDAO(uint256)":"f2a6bbc7","setshutdown(bool)":"7687e371","shutdown()":"fc0e74d1","syncBaseAddr()":"339459a6","systemAge()":"fdc10bc9","tourClause(uint256)":"6f092c5e","valExternal()":"a19841dd","valInternal()":"9d80ab9b","vaultOnStakeAmt()":"b3386775","vaultSendPerCycle()":"95cea094"},"id":80}