{"abi":[{"type":"constructor","inputs":[{"name":"_hex","type":"address","internalType":"address"}],"stateMutability":"nonpayable"},{"type":"fallback","stateMutability":"payable"},{"type":"receive","stateMutability":"payable"},{"type":"function","name":"Burn","inputs":[{"name":"amount","type":"uint256","internalType":"uint256"}],"outputs":[],"stateMutability":"nonpayable"},{"type":"function","name":"NFTAgePointer","inputs":[],"outputs":[{"name":"","type":"uint256","internalType":"uint256"}],"stateMutability":"view"},{"type":"function","name":"NFTSendPerCycle","inputs":[],"outputs":[{"name":"","type":"uint256","internalType":"uint256"}],"stateMutability":"view"},{"type":"function","name":"START_DAY","inputs":[],"outputs":[{"name":"","type":"uint256","internalType":"uint256"}],"stateMutability":"view"},{"type":"function","name":"StartAgePointerLEQ","inputs":[],"outputs":[{"name":"","type":"uint256","internalType":"uint256"}],"stateMutability":"view"},{"type":"function","name":"_delegatorCount","inputs":[],"outputs":[{"name":"","type":"uint256","internalType":"uint256"}],"stateMutability":"view"},{"type":"function","name":"_getImplementation","inputs":[{"name":"clone","type":"address","internalType":"address"}],"outputs":[{"name":"impl","type":"address","internalType":"address"}],"stateMutability":"view"},{"type":"function","name":"_isDelegatorNode","inputs":[{"name":"sender","type":"address","internalType":"address"}],"outputs":[{"name":"","type":"bool","internalType":"bool"}],"stateMutability":"view"},{"type":"function","name":"_isSafe","inputs":[],"outputs":[{"name":"","type":"bool","internalType":"bool"}],"stateMutability":"view"},{"type":"function","name":"_isSecureBase","inputs":[{"name":"sender","type":"address","internalType":"address"}],"outputs":[{"name":"","type":"bool","internalType":"bool"}],"stateMutability":"view"},{"type":"function","name":"_isSigner","inputs":[{"name":"sender","type":"address","internalType":"address"}],"outputs":[{"name":"","type":"bool","internalType":"bool"}],"stateMutability":"view"},{"type":"function","name":"allowForceTransfer","inputs":[],"outputs":[{"name":"","type":"bool","internalType":"bool"}],"stateMutability":"view"},{"type":"function","name":"burncnfg","inputs":[],"outputs":[{"name":"target1","type":"address","internalType":"address"},{"name":"roiN1","type":"uint256","internalType":"uint256"},{"name":"roiD1","type":"uint256","internalType":"uint256"},{"name":"target2","type":"address","internalType":"address"},{"name":"roiN2","type":"uint256","internalType":"uint256"},{"name":"roiD2","type":"uint256","internalType":"uint256"}],"stateMutability":"view"},{"type":"function","name":"capping","inputs":[],"outputs":[{"name":"multiple","type":"uint256","internalType":"uint256"},{"name":"multipledollar","type":"uint256","internalType":"uint256"},{"name":"onOzone","type":"bool","internalType":"bool"},{"name":"onDollar","type":"bool","internalType":"bool"}],"stateMutability":"view"},{"type":"function","name":"computeDollarToOzone","inputs":[{"name":"_dollar","type":"uint256","internalType":"uint256"}],"outputs":[{"name":"","type":"uint256","internalType":"uint256"}],"stateMutability":"view"},{"type":"function","name":"computeMintValue","inputs":[{"name":"_qty","type":"uint256","internalType":"uint256"}],"outputs":[{"name":"","type":"uint256","internalType":"uint256"}],"stateMutability":"view"},{"type":"function","name":"computeOzoneToDollar","inputs":[{"name":"_ozone","type":"uint256","internalType":"uint256"}],"outputs":[{"name":"","type":"uint256","internalType":"uint256"}],"stateMutability":"view"},{"type":"function","name":"computeTour","inputs":[{"name":"_r","type":"uint256","internalType":"uint256"}],"outputs":[{"name":"","type":"uint256","internalType":"uint256"}],"stateMutability":"view"},{"type":"function","name":"daySeconds","inputs":[],"outputs":[{"name":"","type":"uint256","internalType":"uint256"}],"stateMutability":"view"},{"type":"function","name":"eachclaimCycle","inputs":[],"outputs":[{"name":"","type":"uint256","internalType":"uint256"}],"stateMutability":"view"},{"type":"function","name":"freeIntervals","inputs":[],"outputs":[{"name":"","type":"uint256","internalType":"uint256"}],"stateMutability":"view"},{"type":"function","name":"getBalance","inputs":[],"outputs":[{"name":"","type":"uint256","internalType":"uint256"}],"stateMutability":"view"},{"type":"function","name":"getBatchRoyaltyClauses","inputs":[],"outputs":[{"name":"clauses","type":"tuple[7]","internalType":"struct lib741Rules.RoyalityStr[7]","components":[{"name":"rwNum","type":"uint256","internalType":"uint256"},{"name":"rwDen","type":"uint256","internalType":"uint256"},{"name":"rwEnd","type":"uint256","internalType":"uint256"}]}],"stateMutability":"view"},{"type":"function","name":"getHexbase","inputs":[],"outputs":[{"name":"","type":"address","internalType":"address"}],"stateMutability":"view"},{"type":"function","name":"getNftPool","inputs":[{"name":"_type","type":"uint256","internalType":"uint256"},{"name":"_mintage","type":"uint256","internalType":"uint256"}],"outputs":[{"name":"_startfrom","type":"uint256","internalType":"uint256"},{"name":"_roiN","type":"uint256","internalType":"uint256"},{"name":"_roiD","type":"uint256","internalType":"uint256"},{"name":"_roiInt","type":"uint256","internalType":"uint256"}],"stateMutability":"nonpayable"},{"type":"function","name":"iAge","inputs":[],"outputs":[{"name":"","type":"uint256","internalType":"uint256"}],"stateMutability":"view"},{"type":"function","name":"levelClause","inputs":[{"name":"","type":"uint256","internalType":"uint256"}],"outputs":[{"name":"rank","type":"uint256","internalType":"uint256"},{"name":"rwNum","type":"uint256","internalType":"uint256"},{"name":"rwrDen","type":"uint256","internalType":"uint256"},{"name":"yeiNum","type":"uint256","internalType":"uint256"},{"name":"yeiDen","type":"uint256","internalType":"uint256"}],"stateMutability":"view"},{"type":"function","name":"loaddefaultvalue","inputs":[],"outputs":[],"stateMutability":"nonpayable"},{"type":"function","name":"maxClaimPerDay","inputs":[],"outputs":[{"name":"","type":"uint256","internalType":"uint256"}],"stateMutability":"view"},{"type":"function","name":"maxGlobalClaimPerDay","inputs":[],"outputs":[{"name":"","type":"uint256","internalType":"uint256"}],"stateMutability":"view"},{"type":"function","name":"maxMappedLimit","inputs":[],"outputs":[{"name":"","type":"uint256","internalType":"uint256"}],"stateMutability":"pure"},{"type":"function","name":"maxMintQty","inputs":[],"outputs":[{"name":"","type":"uint256","internalType":"uint256"}],"stateMutability":"view"},{"type":"function","name":"maxMintsPerCycle","inputs":[],"outputs":[{"name":"","type":"uint256","internalType":"uint256"}],"stateMutability":"view"},{"type":"function","name":"maxNFTSend","inputs":[],"outputs":[{"name":"","type":"uint256","internalType":"uint256"}],"stateMutability":"view"},{"type":"function","name":"minClaimPerDay","inputs":[],"outputs":[{"name":"","type":"uint256","internalType":"uint256"}],"stateMutability":"view"},{"type":"function","name":"minMintQty","inputs":[],"outputs":[{"name":"","type":"uint256","internalType":"uint256"}],"stateMutability":"view"},{"type":"function","name":"mintCycleDays","inputs":[],"outputs":[{"name":"","type":"uint256","internalType":"uint256"}],"stateMutability":"view"},{"type":"function","name":"mintFeePerQty","inputs":[],"outputs":[{"name":"","type":"uint256","internalType":"uint256"}],"stateMutability":"view"},{"type":"function","name":"owner","inputs":[],"outputs":[{"name":"","type":"address","internalType":"address"}],"stateMutability":"view"},{"type":"function","name":"pool","inputs":[],"outputs":[{"name":"startafter","type":"uint256","internalType":"uint256"},{"name":"stakeN","type":"uint256","internalType":"uint256"},{"name":"stakeD","type":"uint256","internalType":"uint256"},{"name":"roiN","type":"uint256","internalType":"uint256"},{"name":"roiD","type":"uint256","internalType":"uint256"},{"name":"roiInt","type":"uint256","internalType":"uint256"},{"name":"roiEnd","type":"uint256","internalType":"uint256"}],"stateMutability":"view"},{"type":"function","name":"poolNFT1","inputs":[],"outputs":[{"name":"roiN","type":"uint256","internalType":"uint256"},{"name":"roiD","type":"uint256","internalType":"uint256"},{"name":"roiInt","type":"uint256","internalType":"uint256"},{"name":"startfrom","type":"uint256","internalType":"uint256"}],"stateMutability":"view"},{"type":"function","name":"poolNFT2","inputs":[],"outputs":[{"name":"roiN","type":"uint256","internalType":"uint256"},{"name":"roiD","type":"uint256","internalType":"uint256"},{"name":"roiInt","type":"uint256","internalType":"uint256"},{"name":"startfrom","type":"uint256","internalType":"uint256"}],"stateMutability":"view"},{"type":"function","name":"rankClause","inputs":[{"name":"","type":"uint256","internalType":"uint256"}],"outputs":[{"name":"direct","type":"uint256","internalType":"uint256"},{"name":"nftAmount","type":"uint256","internalType":"uint256"},{"name":"eRnk","type":"uint256","internalType":"uint256"},{"name":"gRnk","type":"uint256","internalType":"uint256"},{"name":"gPrd","type":"uint256","internalType":"uint256"}],"stateMutability":"view"},{"type":"function","name":"rankforDAO","inputs":[],"outputs":[{"name":"","type":"uint256","internalType":"uint256"}],"stateMutability":"view"},{"type":"function","name":"royalityClause","inputs":[{"name":"","type":"uint256","internalType":"uint256"}],"outputs":[{"name":"rwNum","type":"uint256","internalType":"uint256"},{"name":"rwDen","type":"uint256","internalType":"uint256"},{"name":"rwEnd","type":"uint256","internalType":"uint256"}],"stateMutability":"view"},{"type":"function","name":"sessionTTLSeconds","inputs":[],"outputs":[{"name":"","type":"uint256","internalType":"uint256"}],"stateMutability":"view"},{"type":"function","name":"setAllowForceTransfer","inputs":[{"name":"_f","type":"bool","internalType":"bool"}],"outputs":[],"stateMutability":"nonpayable"},{"type":"function","name":"setBurnConfig","inputs":[{"name":"_target1","type":"address","internalType":"address"},{"name":"_roiN1","type":"uint256","internalType":"uint256"},{"name":"_roiD1","type":"uint256","internalType":"uint256"},{"name":"_target2","type":"address","internalType":"address"},{"name":"_roiN2","type":"uint256","internalType":"uint256"},{"name":"_roiD2","type":"uint256","internalType":"uint256"}],"outputs":[],"stateMutability":"nonpayable"},{"type":"function","name":"setCapping","inputs":[{"name":"_multiple","type":"uint256","internalType":"uint256"},{"name":"_multipledollar","type":"uint256","internalType":"uint256"},{"name":"_onOzone","type":"bool","internalType":"bool"},{"name":"_onDollar","type":"bool","internalType":"bool"}],"outputs":[],"stateMutability":"nonpayable"},{"type":"function","name":"setClaimPerDay","inputs":[{"name":"_min","type":"uint256","internalType":"uint256"},{"name":"_max","type":"uint256","internalType":"uint256"}],"outputs":[],"stateMutability":"nonpayable"},{"type":"function","name":"setCoinPool","inputs":[{"name":"_start","type":"uint256","internalType":"uint256"},{"name":"_stakeN","type":"uint256","internalType":"uint256"},{"name":"_stakeD","type":"uint256","internalType":"uint256"},{"name":"_roiN","type":"uint256","internalType":"uint256"},{"name":"_roiD","type":"uint256","internalType":"uint256"},{"name":"_roiInt","type":"uint256","internalType":"uint256"},{"name":"_roiEnd","type":"uint256","internalType":"uint256"}],"outputs":[],"stateMutability":"nonpayable"},{"type":"function","name":"setDaySeconds","inputs":[{"name":"_seconds","type":"uint256","internalType":"uint256"}],"outputs":[],"stateMutability":"nonpayable"},{"type":"function","name":"setFreeIntervals","inputs":[{"name":"_d","type":"uint256","internalType":"uint256"}],"outputs":[],"stateMutability":"nonpayable"},{"type":"function","name":"setGlobalClaimPerDay","inputs":[{"name":"_ac","type":"uint256","internalType":"uint256"}],"outputs":[],"stateMutability":"nonpayable"},{"type":"function","name":"setMaxMintsPerCycle","inputs":[{"name":"_max","type":"uint256","internalType":"uint256"}],"outputs":[],"stateMutability":"nonpayable"},{"type":"function","name":"setMaxNFTSend","inputs":[{"name":"_d","type":"uint256","internalType":"uint256"}],"outputs":[],"stateMutability":"nonpayable"},{"type":"function","name":"setMintCycleDays","inputs":[{"name":"_d","type":"uint256","internalType":"uint256"}],"outputs":[],"stateMutability":"nonpayable"},{"type":"function","name":"setMintFee","inputs":[{"name":"_fe","type":"uint256","internalType":"uint256"}],"outputs":[],"stateMutability":"nonpayable"},{"type":"function","name":"setMintQty","inputs":[{"name":"_min","type":"uint256","internalType":"uint256"},{"name":"_max","type":"uint256","internalType":"uint256"}],"outputs":[],"stateMutability":"nonpayable"},{"type":"function","name":"setNFTAgePointer","inputs":[{"name":"_point","type":"uint256","internalType":"uint256"},{"name":"_leq","type":"uint256","internalType":"uint256"}],"outputs":[],"stateMutability":"nonpayable"},{"type":"function","name":"setNFTSendPerCycle","inputs":[{"name":"_d","type":"uint256","internalType":"uint256"}],"outputs":[],"stateMutability":"nonpayable"},{"type":"function","name":"setNftPool","inputs":[{"name":"_type","type":"uint256","internalType":"uint256"},{"name":"_roiN","type":"uint256","internalType":"uint256"},{"name":"_roiD","type":"uint256","internalType":"uint256"},{"name":"_roiInt","type":"uint256","internalType":"uint256"},{"name":"_startfrom","type":"uint256","internalType":"uint256"}],"outputs":[],"stateMutability":"nonpayable"},{"type":"function","name":"setPauseSystem","inputs":[{"name":"_login","type":"bool","internalType":"bool"},{"name":"_mint","type":"bool","internalType":"bool"},{"name":"_claim","type":"bool","internalType":"bool"},{"name":"_reJoin","type":"bool","internalType":"bool"},{"name":"_newJoin","type":"bool","internalType":"bool"},{"name":"_shutdown","type":"bool","internalType":"bool"}],"outputs":[],"stateMutability":"nonpayable"},{"type":"function","name":"setRoyalityClause","inputs":[{"name":"_rank","type":"uint256","internalType":"uint256"},{"name":"_rwNum","type":"uint256","internalType":"uint256"},{"name":"_rwDen","type":"uint256","internalType":"uint256"},{"name":"_rwEnd","type":"uint256","internalType":"uint256"}],"outputs":[],"stateMutability":"nonpayable"},{"type":"function","name":"setSessionTTL","inputs":[{"name":"_s","type":"uint256","internalType":"uint256"}],"outputs":[],"stateMutability":"nonpayable"},{"type":"function","name":"setTourClause","inputs":[{"name":"_rank","type":"uint256","internalType":"uint256"},{"name":"_tw","type":"uint256","internalType":"uint256"}],"outputs":[],"stateMutability":"nonpayable"},{"type":"function","name":"setValidatorPool","inputs":[{"name":"_type","type":"uint256","internalType":"uint256"},{"name":"_qty","type":"uint256","internalType":"uint256"},{"name":"_roiN","type":"uint256","internalType":"uint256"},{"name":"_roiD","type":"uint256","internalType":"uint256"},{"name":"_roiInt","type":"uint256","internalType":"uint256"}],"outputs":[],"stateMutability":"nonpayable"},{"type":"function","name":"setclaimCycle","inputs":[{"name":"_d","type":"uint256","internalType":"uint256"}],"outputs":[],"stateMutability":"nonpayable"},{"type":"function","name":"setlevelClause","inputs":[{"name":"lvl","type":"uint256","internalType":"uint256"},{"name":"_rank","type":"uint256","internalType":"uint256"},{"name":"_rpernum","type":"uint256","internalType":"uint256"},{"name":"_rperden","type":"uint256","internalType":"uint256"},{"name":"_ypernum","type":"uint256","internalType":"uint256"},{"name":"_yperden","type":"uint256","internalType":"uint256"}],"outputs":[],"stateMutability":"nonpayable"},{"type":"function","name":"setrankClause","inputs":[{"name":"rnk","type":"uint256","internalType":"uint256"},{"name":"dirc","type":"uint256","internalType":"uint256"},{"name":"nftAmt","type":"uint256","internalType":"uint256"},{"name":"ernk","type":"uint256","internalType":"uint256"},{"name":"grnk","type":"uint256","internalType":"uint256"},{"name":"gprd","type":"uint256","internalType":"uint256"}],"outputs":[],"stateMutability":"nonpayable"},{"type":"function","name":"setrankforDAO","inputs":[{"name":"_r","type":"uint256","internalType":"uint256"}],"outputs":[],"stateMutability":"nonpayable"},{"type":"function","name":"syncBaseAddr","inputs":[],"outputs":[],"stateMutability":"nonpayable"},{"type":"function","name":"system","inputs":[],"outputs":[{"name":"login","type":"bool","internalType":"bool"},{"name":"mint","type":"bool","internalType":"bool"},{"name":"claim","type":"bool","internalType":"bool"},{"name":"reJoin","type":"bool","internalType":"bool"},{"name":"newJoin","type":"bool","internalType":"bool"},{"name":"shutdown","type":"bool","internalType":"bool"}],"stateMutability":"view"},{"type":"function","name":"systemAge","inputs":[],"outputs":[{"name":"","type":"uint256","internalType":"uint256"}],"stateMutability":"view"},{"type":"function","name":"tourClause","inputs":[{"name":"","type":"uint256","internalType":"uint256"}],"outputs":[{"name":"","type":"uint256","internalType":"uint256"}],"stateMutability":"view"},{"type":"function","name":"valExternal","inputs":[],"outputs":[{"name":"qtyORmul","type":"uint256","internalType":"uint256"},{"name":"roiN","type":"uint256","internalType":"uint256"},{"name":"roiD","type":"uint256","internalType":"uint256"},{"name":"roiInt","type":"uint256","internalType":"uint256"}],"stateMutability":"view"},{"type":"function","name":"valInternal","inputs":[],"outputs":[{"name":"qtyORmul","type":"uint256","internalType":"uint256"},{"name":"roiN","type":"uint256","internalType":"uint256"},{"name":"roiD","type":"uint256","internalType":"uint256"},{"name":"roiInt","type":"uint256","internalType":"uint256"}],"stateMutability":"view"},{"type":"event","name":"EthBurned","inputs":[{"name":"sender","type":"address","indexed":true,"internalType":"address"},{"name":"amount","type":"uint256","indexed":false,"internalType":"uint256"}],"anonymous":false},{"type":"event","name":"EthTransferred","inputs":[{"name":"to","type":"address","indexed":true,"internalType":"address"},{"name":"amount","type":"uint256","indexed":false,"internalType":"uint256"}],"anonymous":false},{"type":"event","name":"HexBaseUpdated","inputs":[{"name":"previousHexBase","type":"address","indexed":true,"internalType":"address"},{"name":"newHexBase","type":"address","indexed":true,"internalType":"address"}],"anonymous":false},{"type":"event","name":"OwnerUpdated","inputs":[{"name":"previousOwner","type":"address","indexed":true,"internalType":"address"},{"name":"newOwner","type":"address","indexed":true,"internalType":"address"}],"anonymous":false},{"type":"error","name":"CallFailed","inputs":[]},{"type":"error","name":"InvalidAddress","inputs":[]},{"type":"error","name":"InvalidDaySeconds","inputs":[]},{"type":"error","name":"InvalidLevel","inputs":[]},{"type":"error","name":"InvalidRank","inputs":[]},{"type":"error","name":"InvalidState","inputs":[]},{"type":"error","name":"NotAuthorized","inputs":[]},{"type":"error","name":"NotSafe","inputs":[]},{"type":"error","name":"TargetCallFailed","inputs":[{"name":"selector","type":"bytes4","internalType":"bytes4"}]}],"bytecode":{"object":"0x6080806040523462000a6d5762000039620040b991823803809362000025828462000aaa565b82396001600160a01b039281019062000ace565b16801562000a5b573360018060a01b031960015416176001558060018060a01b0319600054161760005542600d556201518080600e5560a760235560b4602455601e6029556001602a556001602b556002602c5561c350602d55610258602e556003602f55601960305569054b40b1f852bda00000603155670de0b6b3a764000060325569021e19e0c9bab24000006033556001603455610384603555600560445560ff1960455416604555614d584201804211620009cb5704600f5560405160e081016001600160401b0381118282101762000a45576102589160c0916040526002815260646020820152600160408201526023606082015260646080820152600160a08201520152600260145560646015556001601655602360175560646018556001601955610258601a55605a60606200017562000aef565b60198152600a602082015282604082015201526019601b55600a601c55605a601d55605a601e55620001a662000aef565b6005815260016020820152605a60606101689283604082015201526005601f556001602055602155605a602255600060a0620001e162000b25565b828152826020820152826040820152826060820152826080820152015265ffffffffffff1960285416602855600160406200021b62000aef565b600381526003602082015282606082015201526003602555600360265561010161ffff1960275416176027556200025162000aef565b610258606061014092838152600b6020820152600a60408201520152603655600b603755600a60385561025860395561025860606200028f62000aef565b60d28152600b6020820152600a6040820152015260d2603a55600b603b55600a603c55610258603d55620002c262000b25565b90604051635e09dbe760e01b8152602081600481855afa91821562000a175760049260209260009162000a23575b506001600160a01b03168452605f828501526001604080860191909152516311be646b60e21b815292839182905afa801562000a1757604091600091620009e1575b5060018060a01b03169182606082015260056080820152600160a082015260018060a01b0381511660018060a01b0319603e541617603e556020810151603f55015160405560018060a01b0319604154161760415560056042556001604355620003d8604051620003a38162000a72565b6000815260006020820152600060408201526000606082015261270f6080820152600080526011602052604060002062000b68565b62000420604051620003ea8162000a72565b6007815260196020820152600060408201526000606082015261270f608082015260016000526011602052604060002062000b68565b62000468604051620004328162000a72565b6007815260646020820152600060408201526000606082015261270f608082015260026000526011602052604060002062000b68565b620004b06040516200047a8162000a72565b600781526101f460208201526003604082015260006060820152601e608082015260036000526011602052604060002062000b68565b620004f8604051620004c28162000a72565b600781526107d060208201526004604082015260036060820152601e608082015260046000526011602052604060002062000b68565b620005416040516200050a8162000a72565b600781526113886020820152600460408201526004606082015261270f608082015260056000526011602052604060002062000b68565b6200058a604051620005538162000a72565b600781526127106020820152600460408201526004606082015261270f608082015260066000526011602052604060002062000b68565b620005d36040516200059c8162000a72565b600781526161a86020820152600460408201526004606082015261270f608082015260076000526011602052604060002062000b68565b6200061a604051620005e58162000a72565b600081526006602082015260016040820152600560608201526001608082015260016000526013602052604060002062000b68565b620006616040516200062c8162000a72565b600081526003602082015260016040820152600560608201526001608082015260026000526013602052604060002062000b68565b620006a8604051620006738162000a72565b60028152600f6020820152600a6040820152600560608201526001608082015260036000526013602052604060002062000b68565b620006ef604051620006ba8162000a72565b60028152600f6020820152600a6040820152600560608201526001608082015260046000526013602052604060002062000b68565b62000736604051620007018162000a72565b60028152600f6020820152600a6040820152600560608201526001608082015260056000526013602052604060002062000b68565b60065b600f8111156200097257604051620007518162000a8e565b6012808252600a6020808401918252602d604080860191825260036000529390915292517f0f36ad39aee03e7108cc48f54934702a5f0d4066f10344cebf8198978d86976a55517f0f36ad39aee03e7108cc48f54934702a5f0d4066f10344cebf8198978d86976b5590517f0f36ad39aee03e7108cc48f54934702a5f0d4066f10344cebf8198978d86976c5551620007ea8162000a8e565b6012808252600a6020808401918252605a604080860191825260056000529390915292517f45429b9195d4ec5c0cf6c69e9c21a4ca0ea773b702c2de5735f85d2631f2674655517f45429b9195d4ec5c0cf6c69e9c21a4ca0ea773b702c2de5735f85d2631f267475590517f45429b9195d4ec5c0cf6c69e9c21a4ca0ea773b702c2de5735f85d2631f267485551620008838162000a8e565b60098152600a602080830191825261270f6040808501918252600760009081526012845294517f724fd36bd271795fe7866d4cc83b61084ef704502b00c2e0b28047123b3c1acc5592517f724fd36bd271795fe7866d4cc83b61084ef704502b00c2e0b28047123b3c1acd55517f724fd36bd271795fe7866d4cc83b61084ef704502b00c2e0b28047123b3c1ace556010905260327f853b2fefe141400fef543280f93d98bd49996069f632d0d20236afeeed8e46a25560049091526101f47f1588ac671d87f82adc0e6ae8ab009c0de98f92a20243897597e566bc59b9c1265551613521908162000b988239f35b620009b8604051620009848162000a72565b60028152604b60208201526064604082015260fa606082015260646080820152826000526013602052604060002062000b68565b6000198114620009cb5760010162000739565b634e487b7160e01b600052601160045260246000fd5b62000a08915060203d60201162000a0f575b620009ff818362000aaa565b81019062000ace565b3862000332565b503d620009f3565b6040513d6000823e3d90fd5b62000a3e9150833d851162000a0f57620009ff818362000aaa565b38620002f0565b634e487b7160e01b600052604160045260246000fd5b60405163e6c4247b60e01b8152600490fd5b600080fd5b60a081019081106001600160401b0382111762000a4557604052565b606081019081106001600160401b0382111762000a4557604052565b601f909101601f19168101906001600160401b0382119082101762000a4557604052565b9081602091031262000a6d57516001600160a01b038116810362000a6d5790565b60405190608082016001600160401b0381118382101762000a455760405260006060838281528260208201528260408201520152565b6040519060c082016001600160401b0381118382101762000a45576040528160a06000918281528260208201528260408201528260608201528260808201520152565b90608060049180518455602081015160018501556040810151600285015560608101516003850155015191015556fe60806040526004361015610018575b361561001657005b005b60003560e01c806304ce9f80146104e85780630609a0e3146104e357806307175c83146104de57806309307c62146104d95780630aa4b750146104d45780630b225f1a146104cf5780630ea0d222146104ca57806312065fe0146104c557806314be92a5146104c057806315a544ed146104bb5780631605aed9146104b657806316f0115b146104b1578063179b570a146104ac578063192b48ee146104a75780631ef6a864146104a25780631f185d161461049d578063203bab661461049857806326c5adae14610493578063298fc4601461048e57806332b55dd014610489578063339459a6146104845780633688236d1461047f5780633b9b79551461047a5780633eb71c06146104755780634151331d14610470578063438fe1921461046b57806344ec16bc146104665780634b62954f1461046157806353423e861461045c578063541d76671461045757806354541683146104525780635640dbfc1461044d578063592a02a8146104485780635962205f146104435780635a0e90381461043e5780636c7deb5d146104395780636f092c5e1461043457806378ef376f1461042f5780637bc908c61461042a5780637ca4b9c11461042557806382a3c50314610420578063840bbc1e1461041b5780638da5cb5b1461041657806391fc8aa8146104115780639319d0b51461040c57806395bf75fd146104075780639624e4ff146104025780639d80ab9b146103fd5780639eb8b44e146103f85780639f70207d146103f3578063a19841dd146103ee578063a1f7f539146103e9578063a88fcea6146103e4578063a896d825146103df578063ac14611a146103da578063aebcd32a146103d5578063af0b21d3146103d0578063af484526146103cb578063b49c064c146103c6578063b85f1f8d146103c1578063b90306ad146103bc578063b993418d146103b7578063c3c360ba146103b2578063c54e44b0146103ad578063c5a136d4146103a8578063d0bb2ddf146103a3578063dbad649c1461039e578063e01ad5fd14610399578063e0a9bc2b14610394578063e19a5bcf1461038f578063eddd0d9c1461038a578063f27c35c614610385578063f2a6bbc714610380578063f4fe8e3c1461037b578063f7a9783e14610376578063fcd8e61a146103715763fdc10bc90361000e57612b02565b612ae4565b612aa3565b612a3a565b6129eb565b61296a565b61291b565b61288e565b612873565b6127ac565b61278e565b612739565b61268d565b61261f565b611da2565b611d21565b611c39565b611c0b565b611be8565b611bb7565b611b99565b611b50565b611b03565b611ae6565b611ac8565b611a66565b611a38565b611a1a565b61186a565b6117f7565b6117d9565b611774565b611725565b611707565b6116de565b6116a6565b611601565b611508565b6114ea565b61149b565b61146f565b611420565b6113f2565b6113a9565b6112e9565b611282565b611264565b6111e5565b6111c7565b611172565b611123565b611105565b6110c2565b611073565b61104a565b61102c565b610c5f565b610bb3565b610b4b565b610acc565b610a43565b610980565b6108d6565b610846565b6107f1565b6107a0565b610782565b610764565b610715565b6106f9565b6106db565b6106bd565b61069f565b61064a565b61062c565b6105b9565b610509565b9094939260609260808301968352602083015260408201520152565b346105b45760403660031901126105b45760008080806024356004356001811461057e575b60021461054c575b509061054891604051948594856104ed565b0390f35b601f546020546021546023549297509095506105489450925010610576576024545b929091610536565b60225461056e565b935093505050601b5491601c54601d54918060235410156000146105aa5760026024545b94905061052e565b6002601e546105a2565b600080fd5b346105b45760203660031901126105b4576105d2612f1b565b1561061a576105e033612f8d565b8015610606575b156105f457600435602955005b60405163ea8e4eb560e01b8152600490fd5b506005546001600160a01b031633146105e7565b604051634ee2123760e11b8152600490fd5b346105b45760003660031901126105b4576020603054604051908152f35b346105b45760403660031901126105b457610663612f1b565b1561061a5761067133612f8d565b801561068b575b156105f457600435603255602435603355005b506005546001600160a01b03163314610678565b346105b45760003660031901126105b4576020603554604051908152f35b346105b45760003660031901126105b4576020604454604051908152f35b346105b45760003660031901126105b4576020602e54604051908152f35b346105b45760003660031901126105b457602047604051908152f35b346105b45760203660031901126105b45761072e612f1b565b1561061a5761073c33612f8d565b8015610750575b156105f457600435602e55005b506005546001600160a01b03163314610743565b346105b45760003660031901126105b4576020603354604051908152f35b346105b45760003660031901126105b4576020603254604051908152f35b346105b45760003660031901126105b45760e06014546015546016546017546018549060195492601a5494604051968752602087015260408601526060850152608084015260a083015260c0820152f35b346105b45760403660031901126105b45761080a612f1b565b1561061a5761081833612f8d565b8015610832575b156105f457600435602355602480359055005b506005546001600160a01b0316331461081f565b346105b45760203660031901126105b457600435610862612f1b565b1561061a5761087033612f8d565b80156108a0575b156105f457670de0b6b3a76400009081810291818304149015171561089b57603155005b613120565b506005546001600160a01b03163314610877565b60a09060031901126105b4576004359060243590604435906064359060843590565b346105b4576108e4366108b4565b906108f194929394612f1b565b1561061a576108ff33612f8d565b801561094f575b156105f4576002936109166131ad565b95865260208601526040850152606084015260018114610941575b1461093857005b610016906131f0565b61094a836131d2565b610931565b506005546001600160a01b03163314610906565b6001600160a01b031690565b6001600160a01b038116036105b457565b346105b4576020806003193601126105b4576109f36004356109a18161096f565b6002546040516001600160a01b039283168582015284815291166109c482612bd5565b604051906109d182612bd5565b601182527069735369676e657228616464726573732960781b8583015261303e565b919080610a39575b15610a27578181610a159261054894518301019101612f06565b60405190151581529081906020820190565b604051633204506f60e01b8152600490fd5b50808251146109fb565b346105b45760e03660031901126105b457610a5c612f1b565b1561061a57610a6a33612f8d565b8015610ab8575b156105f457610a7e613165565b50600435601455602435601555604435601655606435601755610aa2608435601855565b610aad60a435601955565b61001660c435601a55565b506005546001600160a01b03163314610a71565b346105b45760203660031901126105b457610ae56133fc565b60305490670de0b6b3a7640000918281029080820484148115171561089b576a0c097ce7bc90715b34b9f160241b0292811591840414171561089b57602091610b34610b399260043592613145565b6133c1565b604051908152f35b801515036105b457565b346105b45760203660031901126105b457600435610b6881610b41565b610b70612f1b565b1561061a57610b7e33612f8d565b8015610b9f575b156105f45760ff8019604554169115151617604555600080f35b506005546001600160a01b03163314610b85565b346105b45760803660031901126105b457604435610bd081610b41565b606435610bdc81610b41565b610be4612f1b565b1561061a57610bf233612f8d565b8015610c4b575b156105f457610c3061001692610c10604051612b64565b600435602555602435602655151560ff8019602754169115151617602755565b151561ff0060275491151560081b169061ff00191617602755565b506005546001600160a01b03163314610bf9565b346105b45760008060031936011261102957610c83610c7e8254610963565b610963565b60408051634bf9c0ad60e11b81529160049190602080858581855afa948515610ef057869561100a575b50825163cfbffe5360e01b81529281848681865afa938415610ef0578794610feb575b50805163ab6e844f60e01b815282818781875afa908115610ef0578891610fce575b508151630536340960e21b815283818881885afa908115610ef0578991610fb1575b50825163d1f956b160e01b81529084828981895afa918215610ef0578a92610f92575b508351631cc3bfab60e31b81529285848a818a5afa938415610ef0578b94610f73575b50845163e09d394d60e01b81529486868b818b5afa958615610ef0578c96610f54575b5080516314ac1b5960e21b815298878a8c818c5afa978815610ef057610dc49a8e99610f35575b50808c8451809d819263013cf08b60e01b83528201906000602083019252565b03818d5afa998a15610ef0578c9b8f9b610f16575b50818451809d635e09dbe760e01b825281845afa9b8c15610ef0578f9c610ef5575b50819084519d8e8092635506ee0b60e11b82525afa9b8c15610ef0578e9c610ec1575b50610e27612c6d565b9c610e32908e612cb6565b8c0190610e3e91612cb6565b8a0190610e4a91612cb6565b610e579060608a01612cb6565b610e649060808901612cb6565b610e719060a08801612cb6565b610e7e9060c08701612cb6565b610e8b9060e08601612cb6565b610e99906101008501612cb6565b610ea7906101208401612cb6565b610eb5906101408301612cb6565b610ebe90612cc5565b80f35b81610ee2929d508d3d10610ee9575b610eda8183612c26565b810190612c49565b9a38610e1e565b503d610ed0565b612c61565b82919c50610f0f90823d8411610ee957610eda8183612c26565b9b90610dfb565b610f2e919b50823d8411610ee957610eda8183612c26565b9938610dd9565b81610f4d929a503d8b11610ee957610eda8183612c26565b9738610da4565b610f6c919650873d8911610ee957610eda8183612c26565b9438610d7d565b610f8b919450863d8811610ee957610eda8183612c26565b9238610d5a565b610faa919250853d8711610ee957610eda8183612c26565b9038610d37565b610fc89150843d8611610ee957610eda8183612c26565b38610d14565b610fe59150833d8511610ee957610eda8183612c26565b38610cf2565b611003919450823d8411610ee957610eda8183612c26565b9238610cd0565b816110229296503d8711610ee957610eda8183612c26565b9338610cad565b80fd5b346105b45760003660031901126105b4576020602d54604051908152f35b346105b45760003660031901126105b4576000546040516001600160a01b039091168152602090f35b346105b45760203660031901126105b45761108c612f1b565b1561061a5761109a33612f8d565b80156110ae575b156105f457600435603555005b506005546001600160a01b031633146110a1565b346105b45760203660031901126105b457600435600052601260205260606040600020805490600260018201549101549060405192835260208301526040820152f35b346105b45760003660031901126105b4576020602b54604051908152f35b346105b45760203660031901126105b45761113c612f1b565b1561061a5761114a33612f8d565b801561115e575b156105f457600435602a55005b506005546001600160a01b03163314611151565b346105b45760403660031901126105b45761118b612f1b565b1561061a5761119933612f8d565b80156111b3575b156105f457600435602c55602435602d55005b506005546001600160a01b031633146111a0565b346105b45760003660031901126105b4576020602f54604051908152f35b346105b45760203660031901126105b4576111fe6133fc565b6004356000526010602052604060002054670de0b6b3a7640000908181029080820483148115171561089b576a0c097ce7bc90715b34b9f160241b0291811591830414171561089b576105489161125491613145565b6040519081529081906020820190565b346105b45760003660031901126105b4576020602a54604051908152f35b346105b45760003660031901126105b457608060255460ff6026546027549060405193845260208401528181161515604084015260081c1615156060820152f35b60c09060031901126105b457600435906024359060443590606435906084359060a43590565b346105b4576112f7366112c3565b91611303959395612f1b565b1561061a5761131133612f8d565b8015611371575b156105f457601084101561135f57610016956040519561133787612b84565b8652602086015260408501526060840152608083015260005260136020526040600020613368565b60405163d1459f7960e01b8152600490fd5b506005546001600160a01b03163314611318565b9192608093969594919660a084019784526020840152604083015260608201520152565b346105b45760203660031901126105b457600435600052601360205260406000208054610548600183015492600281015490600460038201549101549160405195869586611385565b346105b45760003660031901126105b457601b54601c5490610548601d54601e5490604051948594856104ed565b346105b45760203660031901126105b457611439612f1b565b1561061a5761144733612f8d565b801561145b575b156105f457600435602f55005b506005546001600160a01b0316331461144e565b346105b45760203660031901126105b45760043560005260106020526020604060002054604051908152f35b346105b45760203660031901126105b4576114b4612f1b565b1561061a576114c233612f8d565b80156114d6575b156105f457600435603455005b506005546001600160a01b031633146114c9565b346105b45760003660031901126105b4576020603454604051908152f35b346105b45760c03660031901126105b45760043561152581610b41565b60243561153181610b41565b6044359161153e83610b41565b6064359161154b83610b41565b6084359061155882610b41565b60a4359361156585610b41565b61156d612f1b565b1561061a5761157b33612f8d565b80156115ed575b156105f457610016956115bf6115df936115b86115e6976115a4604051612b9f565b151560ff8019602854169115151617602855565b151561327d565b62ff000060285491151560101b169062ff00001916176028551515613296565b15156132b3565b15156132d2565b506005546001600160a01b03163314611582565b346105b45760c03660031901126105b45760043561161e8161096f565b60643561162a8161096f565b611632612f1b565b1561061a5761164033612f8d565b8015611692575b156105f457603e80546001600160a01b039384166001600160a01b031991821617909155602435603f556044356040556041805492909316911617905560843560425560a435604355005b506005546001600160a01b03163314611647565b346105b45760203660031901126105b4576020670de0b6b3a76400006116d56116cd6133fc565b6004356133c1565b04604051908152f35b346105b45760003660031901126105b4576001546040516001600160a01b039091168152602090f35b346105b45760003660031901126105b4576020603154604051908152f35b346105b45760203660031901126105b45761173e612f1b565b1561061a5761174c33612f8d565b8015611760575b156105f457600435602b55005b506005546001600160a01b03163314611753565b346105b45760003660031901126105b45760c06028546040519060ff9081811615158352818160081c1615156020840152818160101c1615156040840152818160181c1615156060840152818160201c161515608084015260281c16151560a0820152f35b346105b45760003660031901126105b4576020600e54604051908152f35b346105b45760003660031901126105b4576036546037549061054860385460395490604051948594856104ed565b6102a0810192916000915b6007831061183d57505050565b60019060608351918251815260209283810151848301526040809101519082015201920192019190611830565b346105b45760008060031936011261102957604090815161188a81612bf0565b815b60e081106119f557610548846118a0612ca9565b60016000526012602052906118d97f71a67924699a20698523213e55fe499d539379d7769cd5567e2c45d583f815a36133d4565b6133d4565b82526002600052601260205261190e7f8e1fee8c88a9e04123b21e90cae2727a7715bf522a1e46eb5934ccd05203a6b26133d4565b602083015261192b6118d460036000526012602052604060002090565b82820152600460005260126020526119627fb4fcd034df3d20faa1c133b66d862ce92732727d40916b48ffb4020cb00fe0536133d4565b6060830152600560005260126020526119886000805160206134ac8339815191526133d4565b6080830152600660005260126020526119c07f1223f9031f9dca49a7844c397098ce9a4e80513444d0a8bb59820dff564808e46133d4565b60a0830152600760005260126020526119e66000805160206134cc8339815191526133d4565b60c08301525191829182611825565b6020908451611a0381612bba565b84815284838201528486820152818401520161188c565b346105b45760003660031901126105b4576020602354604051908152f35b346105b45760003660031901126105b457603a54603b5490610548603c54603d5490604051948594856104ed565b346105b45760003660031901126105b4576020610b3960018060a01b0360065416604051611a9381612bd5565b601381527267657464656c656761746f72436f756e74282960681b8482015260405191611abf83612c0b565b600083526130e4565b346105b45760003660031901126105b4576020602c54604051908152f35b346105b45760003660031901126105b45760206040516000198152f35b346105b45760003660031901126105b457614d58420180421161089b57600e54611b2c91613145565b600f54810390811161089b5761012b90810180911161089b57602090604051908152f35b346105b45760203660031901126105b457600435600052601160205260406000208054610548600183015492600281015490600460038201549101549160405195869586611385565b346105b45760003660031901126105b4576020602954604051908152f35b346105b45760203660031901126105b4576020611bde600435611bd98161096f565b612f8d565b6040519015158152f35b346105b45760003660031901126105b457602060ff604554166040519015158152f35b346105b45760003660031901126105b457601f546020549061054860215460225490604051948594856104ed565b346105b45760203660031901126105b457600435611c55612f1b565b1561061a576005546001600160a01b031633036105f45760009060046020611c80610c7e8554610963565b6040516311be646b60e21b815292839182905afa8015610ef05783808481949382948391611d03575b505af1611cb461300e565b5015610a27577fcdcc745fe377b103b45fa0cec23ae3ef93d6fc6a84a01f0d18c40b354dd1d5d8611cfd611cec610c7e600b54610963565b604051938452929081906020820190565b0390a280f35b611d1b915060203d8111610ee957610eda8183612c26565b38611ca9565b346105b45760203660031901126105b457600435611d3d612f1b565b1561061a57611d4b33612f8d565b8015611d8e575b156105f4578015611d7c5780600e55614d5842019081421161089b57611d7791613145565b600f55005b6040516327fa89e360e21b8152600490fd5b506005546001600160a01b03163314611d52565b346105b45760008060031936011261102957611dbc612f1b565b1561061a57611dca33612f8d565b801561260b575b156105f457611df3611dee611de542613136565b600e5490613145565b600f55565b611dfb613165565b90600280835260649260209184838301526001906040918083850152606091602383860152608088818701528260a0870152611e71610258968760c082015260c0908051601455602081015160155560408101516016556060810151601755608081015160185560a08101516019550151601a55565b611e796131ad565b9360198552611e9a600a95868a820152605a88820152605a8382015261320e565b611f90611ea56131ad565b97611ec66005998a8152878c8201526101688a820152605a8582015261322c565b611ef3611ed161324b565b8c81528c8c8201528c8a8201528c858201528c868201528c60a08201526132f0565b611f4a611efe6131ad565b60038082528c8201526001858201526001818b015280516025556020810151602655604081015115159060ff61ff006060602754930151151560081b1692169061ffff19161717602755565b611f6f611f556131ad565b6101408152600b8c820152888a82015282858201526131d2565b611f776131ad565b9060d28252600b8b8301528789830152838201526131f0565b611f9861324b565b96611fa6610c7e8b54610963565b8751635e09dbe760e01b8152600499918b828c81845afa908115610ef057611fda8d928f948e95916125ee575b5085612cb6565b605f82850152888b8501528a51928380926311be646b60e21b82525afa908115610ef0578c916125d1575b5061201290828501612cb6565b83810182905260a081018690528051603e80546001600160a01b039283166001600160a01b0319918216179091556020830151603f556040808401519055606083015160418054919093169116179055608001516042556043859055612076612c8d565b978a89528a8a8a01528a888a01528a838a015261270f9889858201526120a6600080526011602052604060002090565b906120b091613368565b6120b8612c8d565b600780825260198c8301528982018d90528482018d90528582018b905260016000526011602052919061210b907f17bc176d2408558f6e4111feebc3cab4e16b63e967be91cde721f4c8a488b552613368565b612113612c8d565b8281528d8c8201528c8a8201528c858201528a8682015261213f60026000526011602052604060002090565b9061214991613368565b612151612c8d565b8281526101f48c82015260038a82018190528582018e9052601e8783015260005260116020526121a1907f9bfbaa59f8e10e7868f8b402de9d605a390c45ddaebd8c9de3c6f31e733c87ff613368565b6121a9612c8d565b8281526107d08c820152898101829052600385820152601e86820152600460005260116020526121f9907f251164fe1d8864fe5e86082eae9c288bc2b58695a4d28538dfe86e9e4f175585613368565b612201612c8d565b8281526113888c8201528981018290528481018290528581018b905260056000526011602052612251907fc550213cee30afd5e67ccba7be3d381bbc169034ae08eb3ec9168caca9fe55e7613368565b612259612c8d565b8281526127108c8201528981018290528481018290528581018b9052600660005260116020526122a9907ffb9ce45064c7e7d9bf9deb4750ba7c94ab3d6e7418c5d76bf69966d39a9d42f6613368565b6122b1612c8d565b9182526161a88b83015288820181905283820152838101899052600760005260116020526122ff907f98ae0176de2844d118e1a6decfe92f97691bedbc578c71fc8d5c4374be77e50c613368565b612307612c8d565b8a815260068a82015287810186905282810182905283810186905260016000526013602052612356907f4155c2f711f2cdd34f8262ab8fb9b7020a700fe7b6948222152f7670d1fdf34d613368565b61235e612c8d565b8a815260038a820152878101869052828101829052838101869052600260005260136020526123ad907f0b9d2c0c271bb30544eb78c59bdaebdae2728e5f65814c07768a0abe90ed1923613368565b6123b5612c8d565b94848652600f95868b8201528789820152828482015281858201526123e560036000526013602052604060002090565b906123ef91613368565b6123f7612c8d565b858152868b82015287898201528284820152818582015261242360046000526013602052604060002090565b9061242d91613368565b612435612c8d565b91858352868b8401528789840152838301528382015261246060056000526013602052604060002090565b9061246a91613368565b60065b8481111561258657896125308a8a8a8a6124c7612488612c9c565b6012808252868201849052602d8583015260036000526020527f0f36ad39aee03e7108cc48f54934702a5f0d4066f10344cebf8198978d86976a6133a6565b6124ff6124d2612c9c565b6012808252868201849052605a8583015260056000526020526000805160206134ac8339815191526133a6565b612507612c9c565b6009815293840152820152600760005260126020526000805160206134cc8339815191526133a6565b601060205260327f853b2fefe141400fef543280f93d98bd49996069f632d0d20236afeeed8e46a25560046000526101f47f1588ac671d87f82adc0e6ae8ab009c0de98f92a20243897597e566bc59b9c1265580f35b6125cc906125c7612595612c8d565b868152604b8c8201528d8a82015260fa858201528d868201526125c2836000526013602052604060002090565b613368565b613397565b61246d565b6125e891508b3d8d11610ee957610eda8183612c26565b38612005565b6126059150843d8611610ee957610eda8183612c26565b38611fd3565b506005546001600160a01b03163314611dd1565b346105b45760203660031901126105b45760043561263c8161096f565b803b600061264982612eeb565b926126576040519485612c26565b82845260208401903c602d81511061267b57602a602091015160601c604051908152f35b60405163baf3f0f760e01b8152600490fd5b346105b45760803660031901126105b4576004356126a9612f1b565b1561061a576126b733612f8d565b8015612725575b156105f4576008811015612713576002604051916126db83612bba565b602435835260208301604435815260408401916064358352600052601260205260406000209351845551600184015551910155600080f35b6040516302ba562960e61b8152600490fd5b506005546001600160a01b031633146126be565b346105b45760003660031901126105b45760c060018060a01b0380603e541690603f549060405490604154166042549160435493604051958652602086015260408501526060840152608083015260a0820152f35b346105b45760003660031901126105b4576020602454604051908152f35b346105b4576020806003193601126105b45761054890600435906127cf8261096f565b6006546040516001600160a01b039384168382015282815292169161282f906127f781612bd5565b60405161280381612bd5565b6018815277697364656c656761746f724e6f646528616464726573732960401b8482015260009461303e565b919080612869575b612850575b505060405190151581529081906020820190565b61286292508082518301019101612f06565b388061283c565b5080825114612837565b346105b45760003660031901126105b4576020611bde612f1b565b346105b45761289c366108b4565b906128a994929394612f1b565b1561061a576128b733612f8d565b8015612907575b156105f4576002936128ce6131ad565b958652602086015260408501526060840152600181146128f9575b146128f057005b6100169061322c565b6129028361320e565b6128e9565b506005546001600160a01b031633146128be565b346105b45760203660031901126105b457612934612f1b565b1561061a5761294233612f8d565b8015612956575b156105f457600435603055005b506005546001600160a01b03163314612949565b346105b457612978366112c3565b91612984959395612f1b565b1561061a5761299233612f8d565b80156129d7575b156105f45761001695604051956129af87612b84565b8652602086015260408501526060840152608083015260005260116020526040600020613368565b506005546001600160a01b03163314612999565b346105b45760203660031901126105b457612a04612f1b565b1561061a57612a1233612f8d565b8015612a26575b156105f457600435604455005b506005546001600160a01b03163314612a19565b346105b45760403660031901126105b457600435612a56612f1b565b1561061a57612a6433612f8d565b8015612a8f575b156105f4576008811015612713576000526010602052602435604060002055600080f35b506005546001600160a01b03163314612a6b565b346105b45760203660031901126105b457670de0b6b3a764000060043581810291811591830414171561089b57610b39602091612ade6133fc565b90613145565b346105b45760003660031901126105b4576020600f54604051908152f35b346105b45760003660031901126105b4576020610b3960018060a01b0360035416604051612b2f81612bd5565b600681526569416765282960d01b8482015260405191611abf83612c0b565b634e487b7160e01b600052604160045260246000fd5b608081019081106001600160401b03821117612b7f57604052565b612b4e565b60a081019081106001600160401b03821117612b7f57604052565b60c081019081106001600160401b03821117612b7f57604052565b606081019081106001600160401b03821117612b7f57604052565b604081019081106001600160401b03821117612b7f57604052565b60e081019081106001600160401b03821117612b7f57604052565b602081019081106001600160401b03821117612b7f57604052565b601f909101601f19168101906001600160401b03821190821017612b7f57604052565b908160209103126105b45751612c5e8161096f565b90565b6040513d6000823e3d90fd5b6040519061016082016001600160401b03811183821017612b7f57604052565b60405190612c9a82612b84565b565b60405190612c9a82612bba565b60405190612c9a82612bf0565b6001600160a01b039091169052565b612ec9610140612c9a92612cfe612cdc8251610963565b600280546001600160a01b0319166001600160a01b0392909216919091179055565b612d30612d0e6020830151610963565b600380546001600160a01b0319166001600160a01b0392909216919091179055565b612d62612d406040830151610963565b600480546001600160a01b0319166001600160a01b0392909216919091179055565b612d94612d726060830151610963565b600580546001600160a01b0319166001600160a01b0392909216919091179055565b612dc6612da46080830151610963565b600680546001600160a01b0319166001600160a01b0392909216919091179055565b612df8612dd660a0830151610963565b600780546001600160a01b0319166001600160a01b0392909216919091179055565b612e2a612e0860c0830151610963565b600880546001600160a01b0319166001600160a01b0392909216919091179055565b612e5c612e3a60e0830151610963565b600980546001600160a01b0319166001600160a01b0392909216919091179055565b612e8f612e6d610100830151610963565b600a80546001600160a01b0319166001600160a01b0392909216919091179055565b612ec2612ea0610120830151610963565b600b80546001600160a01b0319166001600160a01b0392909216919091179055565b0151610963565b600c80546001600160a01b0319166001600160a01b0392909216919091179055565b6001600160401b038111612b7f57601f01601f191660200190565b908160209103126105b45751612c5e81610b41565b600254604051612f63916001600160a01b031690612f3881612bd5565b6008815267697353616665282960c01b602082015260405191612f5a83612c0b565b6000835261303e565b9080612f82575b15610a275780602080612c5e93518301019101612f06565b506020815114612f6a565b612fe760018060a01b038060025416604051916020941684830152838252612fb482612bd5565b60405190612fc182612bd5565b601582527469735365637572654261736528616464726573732960581b8583015261303e565b9080613004575b15610a275781612c5e9282518301019101612f06565b5081815114612fee565b3d15613039573d9061301f82612eeb565b9161302d6040519384612c26565b82523d6000602084013e565b606090565b9190823b156130bc578051906020918263ffffffff60e01b92012016916040519180830193845281519160005b8381106130a857505050918161309860248260009795968897018783820152036004810184520182612c26565b51915afa6130a461300e565b9091565b81810183015185820160240152820161306b565b5050506000906040516130ce81612c0b565b6000815290565b908160209103126105b4575190565b92916130f29160009461303e565b9080613115575b6131005750565b612c5e919250602080825183010191016130d5565b5060208151146130f9565b634e487b7160e01b600052601160045260246000fd5b90614d58820180921161089b57565b811561314f570490565b634e487b7160e01b600052601260045260246000fd5b6040519060e082016001600160401b03811183821017612b7f576040528160c06000918281528260208201528260408201528260608201528260808201528260a08201520152565b604051906131ba82612b64565b60006060838281528260208201528260408201520152565b80516036556020810151603755604081015160385560600151603955565b8051603a556020810151603b556040810151603c5560600151603d55565b8051601b556020810151601c556040810151601d5560600151601e55565b6060908051601f55602081015160205560408101516021550151602255565b6040519061325882612b9f565b8160a06000918281528260208201528260408201528260608201528260808201520152565b61ff0060285491151560081b169061ff00191617602855565b63ff00000060285491151560181b169063ff000000191617602855565b6028805460ff60201b191691151560201b60ff60201b16919091179055565b6028805460ff60281b1916911515811b60ff60281b16919091179055565b61336360a0612c9a928051151560ff80196028541691161760285561331a6020820151151561327d565b6040810151151562ff00006028549160101b169062ff000019161760285561334760608201511515613296565b61335c6133576080830151151590565b6132b3565b0151151590565b6132d2565b906080600491805184556020810151600185015560408101516002850155606081015160038501550151910155565b600019811461089b5760010190565b90604060029180518455602081015160018501550151910155565b8181029291811591840414171561089b57565b906040516133e181612bba565b60406002829480548452600181015460208501520154910152565b61340a610c7e600054610963565b60405180916369e8d84b60e11b825281600460209485935afa908115610ef057600491839160009161348e575b50604051633ec7601d60e11b815292839182906001600160a01b03165afa918215610ef05760009261346857505090565b612c5e9250803d10613487575b61347f8183612c26565b8101906130d5565b503d613475565b6134a59150823d8411610ee957610eda8183612c26565b3861343756fe45429b9195d4ec5c0cf6c69e9c21a4ca0ea773b702c2de5735f85d2631f26746724fd36bd271795fe7866d4cc83b61084ef704502b00c2e0b28047123b3c1acca2646970667358221220ca50bd6c446db4fba6bc3f798d8faaad431f6fb1d3379b0fc6ff1b36051929ae64736f6c63430008140033","linkReferences":{}},"methodIdentifiers":{"Burn(uint256)":"b90306ad","NFTAgePointer()":"9f70207d","NFTSendPerCycle()":"438fe192","START_DAY()":"fcd8e61a","StartAgePointerLEQ()":"dbad649c","_delegatorCount()":"a1f7f539","_getImplementation(address)":"c54e44b0","_isDelegatorNode(address)":"e01ad5fd","_isSafe()":"e0a9bc2b","_isSecureBase(address)":"af484526","_isSigner(address)":"1f185d16","allowForceTransfer()":"b49c064c","burncnfg()":"d0bb2ddf","capping()":"5640dbfc","computeDollarToOzone(uint256)":"f7a9783e","computeMintValue(uint256)":"26c5adae","computeOzoneToDollar(uint256)":"840bbc1e","computeTour(uint256)":"541d7667","daySeconds()":"9624e4ff","eachclaimCycle()":"7bc908c6","freeIntervals()":"af0b21d3","getBalance()":"12065fe0","getBatchRoyaltyClauses()":"9eb8b44e","getHexbase()":"3b9b7955","getNftPool(uint256,uint256)":"04ce9f80","iAge()":"ac14611a","levelClause(uint256)":"5962205f","loaddefaultvalue()":"c3c360ba","maxClaimPerDay()":"15a544ed","maxGlobalClaimPerDay()":"91fc8aa8","maxMappedLimit()":"a896d825","maxMintQty()":"3688236d","maxMintsPerCycle()":"53423e86","maxNFTSend()":"54541683","minClaimPerDay()":"1605aed9","minMintQty()":"a88fcea6","mintCycleDays()":"0ea0d222","mintFeePerQty()":"07175c83","owner()":"8da5cb5b","pool()":"16f0115b","poolNFT1()":"5a0e9038","poolNFT2()":"b85f1f8d","rankClause(uint256)":"aebcd32a","rankforDAO()":"0b225f1a","royalityClause(uint256)":"4151331d","sessionTTLSeconds()":"0aa4b750","setAllowForceTransfer(bool)":"298fc460","setBurnConfig(address,uint256,uint256,address,uint256,uint256)":"82a3c503","setCapping(uint256,uint256,bool,bool)":"32b55dd0","setClaimPerDay(uint256,uint256)":"09307c62","setCoinPool(uint256,uint256,uint256,uint256,uint256,uint256,uint256)":"203bab66","setDaySeconds(uint256)":"b993418d","setFreeIntervals(uint256)":"0609a0e3","setGlobalClaimPerDay(uint256)":"192b48ee","setMaxMintsPerCycle(uint256)":"6c7deb5d","setMaxNFTSend(uint256)":"44ec16bc","setMintCycleDays(uint256)":"14be92a5","setMintFee(uint256)":"eddd0d9c","setMintQty(uint256,uint256)":"4b62954f","setNFTAgePointer(uint256,uint256)":"179b570a","setNFTSendPerCycle(uint256)":"9319d0b5","setNftPool(uint256,uint256,uint256,uint256,uint256)":"e19a5bcf","setPauseSystem(bool,bool,bool,bool,bool,bool)":"7ca4b9c1","setRoyalityClause(uint256,uint256,uint256,uint256)":"c5a136d4","setSessionTTL(uint256)":"3eb71c06","setTourClause(uint256,uint256)":"f4fe8e3c","setValidatorPool(uint256,uint256,uint256,uint256,uint256)":"1ef6a864","setclaimCycle(uint256)":"78ef376f","setlevelClause(uint256,uint256,uint256,uint256,uint256,uint256)":"592a02a8","setrankClause(uint256,uint256,uint256,uint256,uint256,uint256)":"f27c35c6","setrankforDAO(uint256)":"f2a6bbc7","syncBaseAddr()":"339459a6","system()":"95bf75fd","systemAge()":"fdc10bc9","tourClause(uint256)":"6f092c5e","valExternal()":"a19841dd","valInternal()":"9d80ab9b"},"id":40}