{"abi":[{"type":"constructor","inputs":[{"name":"_hex","type":"address","internalType":"address"}],"stateMutability":"nonpayable"},{"type":"fallback","stateMutability":"payable"},{"type":"receive","stateMutability":"payable"},{"type":"function","name":"Burn","inputs":[{"name":"amount","type":"uint256","internalType":"uint256"}],"outputs":[],"stateMutability":"nonpayable"},{"type":"function","name":"NFTSendPerCycle","inputs":[],"outputs":[{"name":"","type":"uint256","internalType":"uint256"}],"stateMutability":"view"},{"type":"function","name":"_delegatorCount","inputs":[],"outputs":[{"name":"","type":"uint256","internalType":"uint256"}],"stateMutability":"view"},{"type":"function","name":"_getImplementation","inputs":[{"name":"clone","type":"address","internalType":"address"}],"outputs":[{"name":"impl","type":"address","internalType":"address"}],"stateMutability":"view"},{"type":"function","name":"_isDelegatorNode","inputs":[{"name":"sender","type":"address","internalType":"address"}],"outputs":[{"name":"","type":"bool","internalType":"bool"}],"stateMutability":"view"},{"type":"function","name":"_isSafe","inputs":[],"outputs":[{"name":"","type":"bool","internalType":"bool"}],"stateMutability":"view"},{"type":"function","name":"_isSecureBase","inputs":[{"name":"sender","type":"address","internalType":"address"}],"outputs":[{"name":"","type":"bool","internalType":"bool"}],"stateMutability":"view"},{"type":"function","name":"_isSigner","inputs":[{"name":"sender","type":"address","internalType":"address"}],"outputs":[{"name":"","type":"bool","internalType":"bool"}],"stateMutability":"view"},{"type":"function","name":"allowForceTransfer","inputs":[],"outputs":[{"name":"","type":"bool","internalType":"bool"}],"stateMutability":"view"},{"type":"function","name":"capping","inputs":[],"outputs":[{"name":"multiple","type":"uint256","internalType":"uint256"},{"name":"rw","type":"bool","internalType":"bool"},{"name":"ry","type":"bool","internalType":"bool"},{"name":"self","type":"bool","internalType":"bool"},{"name":"yei","type":"bool","internalType":"bool"},{"name":"val","type":"bool","internalType":"bool"},{"name":"tour","type":"bool","internalType":"bool"}],"stateMutability":"view"},{"type":"function","name":"computeMintValue","inputs":[{"name":"_qty","type":"uint256","internalType":"uint256"}],"outputs":[{"name":"","type":"uint256","internalType":"uint256"}],"stateMutability":"view"},{"type":"function","name":"computeTour","inputs":[{"name":"_r","type":"uint256","internalType":"uint256"}],"outputs":[{"name":"","type":"uint256","internalType":"uint256"}],"stateMutability":"view"},{"type":"function","name":"eachclaimCycle","inputs":[],"outputs":[{"name":"","type":"uint256","internalType":"uint256"}],"stateMutability":"view"},{"type":"function","name":"freeIntervals","inputs":[],"outputs":[{"name":"","type":"uint256","internalType":"uint256"}],"stateMutability":"view"},{"type":"function","name":"getBalance","inputs":[],"outputs":[{"name":"","type":"uint256","internalType":"uint256"}],"stateMutability":"view"},{"type":"function","name":"getBatchRoyaltyClauses","inputs":[],"outputs":[{"name":"clauses","type":"tuple[7]","internalType":"struct lib741Rules.RoyalityStr[7]","components":[{"name":"rwNum","type":"uint256","internalType":"uint256"},{"name":"rwDen","type":"uint256","internalType":"uint256"},{"name":"rwEnd","type":"uint256","internalType":"uint256"}]}],"stateMutability":"view"},{"type":"function","name":"getHexbase","inputs":[],"outputs":[{"name":"","type":"address","internalType":"address"}],"stateMutability":"view"},{"type":"function","name":"levelClause","inputs":[{"name":"","type":"uint256","internalType":"uint256"}],"outputs":[{"name":"rank","type":"uint256","internalType":"uint256"},{"name":"rwNum","type":"uint256","internalType":"uint256"},{"name":"rwrDen","type":"uint256","internalType":"uint256"},{"name":"yeiNum","type":"uint256","internalType":"uint256"},{"name":"yeiDen","type":"uint256","internalType":"uint256"}],"stateMutability":"view"},{"type":"function","name":"maxClaimPerDay","inputs":[],"outputs":[{"name":"","type":"uint256","internalType":"uint256"}],"stateMutability":"view"},{"type":"function","name":"maxGlobalClaimPerDay","inputs":[],"outputs":[{"name":"","type":"uint256","internalType":"uint256"}],"stateMutability":"view"},{"type":"function","name":"maxMintQty","inputs":[],"outputs":[{"name":"","type":"uint256","internalType":"uint256"}],"stateMutability":"view"},{"type":"function","name":"maxMintsPerCycle","inputs":[],"outputs":[{"name":"","type":"uint256","internalType":"uint256"}],"stateMutability":"view"},{"type":"function","name":"maxNFTSend","inputs":[],"outputs":[{"name":"","type":"uint256","internalType":"uint256"}],"stateMutability":"view"},{"type":"function","name":"minClaimPerDay","inputs":[],"outputs":[{"name":"","type":"uint256","internalType":"uint256"}],"stateMutability":"view"},{"type":"function","name":"minMintQty","inputs":[],"outputs":[{"name":"","type":"uint256","internalType":"uint256"}],"stateMutability":"view"},{"type":"function","name":"mintCycleDays","inputs":[],"outputs":[{"name":"","type":"uint256","internalType":"uint256"}],"stateMutability":"view"},{"type":"function","name":"mintFeePerQty","inputs":[],"outputs":[{"name":"","type":"uint256","internalType":"uint256"}],"stateMutability":"view"},{"type":"function","name":"owner","inputs":[],"outputs":[{"name":"","type":"address","internalType":"address"}],"stateMutability":"view"},{"type":"function","name":"pool","inputs":[],"outputs":[{"name":"startafter","type":"uint256","internalType":"uint256"},{"name":"stakeN","type":"uint256","internalType":"uint256"},{"name":"stakeD","type":"uint256","internalType":"uint256"},{"name":"roiN","type":"uint256","internalType":"uint256"},{"name":"roiD","type":"uint256","internalType":"uint256"},{"name":"roiInt","type":"uint256","internalType":"uint256"},{"name":"roiEnd","type":"uint256","internalType":"uint256"}],"stateMutability":"view"},{"type":"function","name":"poolNFT1","inputs":[],"outputs":[{"name":"roiN","type":"uint256","internalType":"uint256"},{"name":"roiD","type":"uint256","internalType":"uint256"},{"name":"roiInt","type":"uint256","internalType":"uint256"}],"stateMutability":"view"},{"type":"function","name":"poolNFT2","inputs":[],"outputs":[{"name":"roiN","type":"uint256","internalType":"uint256"},{"name":"roiD","type":"uint256","internalType":"uint256"},{"name":"roiInt","type":"uint256","internalType":"uint256"}],"stateMutability":"view"},{"type":"function","name":"rankClause","inputs":[{"name":"","type":"uint256","internalType":"uint256"}],"outputs":[{"name":"direct","type":"uint256","internalType":"uint256"},{"name":"nftAmount","type":"uint256","internalType":"uint256"},{"name":"eRnk","type":"uint256","internalType":"uint256"},{"name":"gRnk","type":"uint256","internalType":"uint256"},{"name":"gPrd","type":"uint256","internalType":"uint256"}],"stateMutability":"view"},{"type":"function","name":"rankforDAO","inputs":[],"outputs":[{"name":"","type":"uint256","internalType":"uint256"}],"stateMutability":"view"},{"type":"function","name":"royalityClause","inputs":[{"name":"","type":"uint256","internalType":"uint256"}],"outputs":[{"name":"rwNum","type":"uint256","internalType":"uint256"},{"name":"rwDen","type":"uint256","internalType":"uint256"},{"name":"rwEnd","type":"uint256","internalType":"uint256"}],"stateMutability":"view"},{"type":"function","name":"setAllowForceTransfer","inputs":[{"name":"_f","type":"bool","internalType":"bool"}],"outputs":[],"stateMutability":"nonpayable"},{"type":"function","name":"setCapping","inputs":[{"name":"_multiple","type":"uint256","internalType":"uint256"},{"name":"_rw","type":"bool","internalType":"bool"},{"name":"_ry","type":"bool","internalType":"bool"},{"name":"_self","type":"bool","internalType":"bool"},{"name":"_yei","type":"bool","internalType":"bool"},{"name":"_val","type":"bool","internalType":"bool"},{"name":"_tour","type":"bool","internalType":"bool"}],"outputs":[],"stateMutability":"nonpayable"},{"type":"function","name":"setClaimPerDay","inputs":[{"name":"_min","type":"uint256","internalType":"uint256"},{"name":"_max","type":"uint256","internalType":"uint256"}],"outputs":[],"stateMutability":"nonpayable"},{"type":"function","name":"setFreeIntervals","inputs":[{"name":"_d","type":"uint256","internalType":"uint256"}],"outputs":[],"stateMutability":"nonpayable"},{"type":"function","name":"setGlobalClaimPerDay","inputs":[{"name":"_ac","type":"uint256","internalType":"uint256"}],"outputs":[],"stateMutability":"nonpayable"},{"type":"function","name":"setMaxMintsPerCycle","inputs":[{"name":"_max","type":"uint256","internalType":"uint256"}],"outputs":[],"stateMutability":"nonpayable"},{"type":"function","name":"setMaxNFTSend","inputs":[{"name":"_d","type":"uint256","internalType":"uint256"}],"outputs":[],"stateMutability":"nonpayable"},{"type":"function","name":"setMintCycleDays","inputs":[{"name":"_d","type":"uint256","internalType":"uint256"}],"outputs":[],"stateMutability":"nonpayable"},{"type":"function","name":"setMintFee","inputs":[{"name":"_fe","type":"uint256","internalType":"uint256"}],"outputs":[],"stateMutability":"nonpayable"},{"type":"function","name":"setMintQty","inputs":[{"name":"_min","type":"uint256","internalType":"uint256"},{"name":"_max","type":"uint256","internalType":"uint256"}],"outputs":[],"stateMutability":"nonpayable"},{"type":"function","name":"setNFTSendPerCycle","inputs":[{"name":"_d","type":"uint256","internalType":"uint256"}],"outputs":[],"stateMutability":"nonpayable"},{"type":"function","name":"setNftPool","inputs":[{"name":"_type","type":"uint256","internalType":"uint256"},{"name":"_roiN","type":"uint256","internalType":"uint256"},{"name":"_roiD","type":"uint256","internalType":"uint256"},{"name":"_roiInt","type":"uint256","internalType":"uint256"}],"outputs":[],"stateMutability":"nonpayable"},{"type":"function","name":"setRoyalityClause","inputs":[{"name":"_rank","type":"uint256","internalType":"uint256"},{"name":"_rwNum","type":"uint256","internalType":"uint256"},{"name":"_rwDen","type":"uint256","internalType":"uint256"},{"name":"_rwEnd","type":"uint256","internalType":"uint256"}],"outputs":[],"stateMutability":"nonpayable"},{"type":"function","name":"setTourClause","inputs":[{"name":"_rank","type":"uint256","internalType":"uint256"},{"name":"_tw","type":"uint256","internalType":"uint256"}],"outputs":[],"stateMutability":"nonpayable"},{"type":"function","name":"setValidatorPool","inputs":[{"name":"_type","type":"uint256","internalType":"uint256"},{"name":"_qty","type":"uint256","internalType":"uint256"},{"name":"_roiN","type":"uint256","internalType":"uint256"},{"name":"_roiD","type":"uint256","internalType":"uint256"},{"name":"_roiInt","type":"uint256","internalType":"uint256"}],"outputs":[],"stateMutability":"nonpayable"},{"type":"function","name":"setclaimCycle","inputs":[{"name":"_d","type":"uint256","internalType":"uint256"}],"outputs":[],"stateMutability":"nonpayable"},{"type":"function","name":"setlevelClause","inputs":[{"name":"lvl","type":"uint256","internalType":"uint256"},{"name":"_rank","type":"uint256","internalType":"uint256"},{"name":"_rpernum","type":"uint256","internalType":"uint256"},{"name":"_rperden","type":"uint256","internalType":"uint256"},{"name":"_ypernum","type":"uint256","internalType":"uint256"},{"name":"_yperden","type":"uint256","internalType":"uint256"}],"outputs":[],"stateMutability":"nonpayable"},{"type":"function","name":"setrankClause","inputs":[{"name":"rnk","type":"uint256","internalType":"uint256"},{"name":"dirc","type":"uint256","internalType":"uint256"},{"name":"nftAmt","type":"uint256","internalType":"uint256"},{"name":"ernk","type":"uint256","internalType":"uint256"},{"name":"grnk","type":"uint256","internalType":"uint256"},{"name":"gprd","type":"uint256","internalType":"uint256"}],"outputs":[],"stateMutability":"nonpayable"},{"type":"function","name":"setrankforDAO","inputs":[{"name":"_r","type":"uint256","internalType":"uint256"}],"outputs":[],"stateMutability":"nonpayable"},{"type":"function","name":"setshutdown","inputs":[{"name":"_shutdown","type":"bool","internalType":"bool"}],"outputs":[],"stateMutability":"nonpayable"},{"type":"function","name":"shutdown","inputs":[],"outputs":[{"name":"","type":"bool","internalType":"bool"}],"stateMutability":"view"},{"type":"function","name":"systemAge","inputs":[],"outputs":[{"name":"","type":"uint256","internalType":"uint256"}],"stateMutability":"view"},{"type":"function","name":"tourClause","inputs":[{"name":"","type":"uint256","internalType":"uint256"}],"outputs":[{"name":"","type":"uint256","internalType":"uint256"}],"stateMutability":"view"},{"type":"function","name":"valExternal","inputs":[],"outputs":[{"name":"qty","type":"uint256","internalType":"uint256"},{"name":"roiN","type":"uint256","internalType":"uint256"},{"name":"roiD","type":"uint256","internalType":"uint256"},{"name":"roiInt","type":"uint256","internalType":"uint256"}],"stateMutability":"view"},{"type":"function","name":"valInternal","inputs":[],"outputs":[{"name":"qty","type":"uint256","internalType":"uint256"},{"name":"roiN","type":"uint256","internalType":"uint256"},{"name":"roiD","type":"uint256","internalType":"uint256"},{"name":"roiInt","type":"uint256","internalType":"uint256"}],"stateMutability":"view"},{"type":"event","name":"EthBurned","inputs":[{"name":"sender","type":"address","indexed":true,"internalType":"address"},{"name":"amount","type":"uint256","indexed":false,"internalType":"uint256"}],"anonymous":false},{"type":"event","name":"EthTransferred","inputs":[{"name":"to","type":"address","indexed":true,"internalType":"address"},{"name":"amount","type":"uint256","indexed":false,"internalType":"uint256"}],"anonymous":false},{"type":"event","name":"HexBaseUpdated","inputs":[{"name":"previousHexBase","type":"address","indexed":true,"internalType":"address"},{"name":"newHexBase","type":"address","indexed":true,"internalType":"address"}],"anonymous":false},{"type":"event","name":"OwnerUpdated","inputs":[{"name":"previousOwner","type":"address","indexed":true,"internalType":"address"},{"name":"newOwner","type":"address","indexed":true,"internalType":"address"}],"anonymous":false},{"type":"error","name":"TargetCallFailed","inputs":[{"name":"selector","type":"bytes4","internalType":"bytes4"}]}],"bytecode":{"object":"0x60803462001a8657601f620045eb38819003918201601f19168301916001600160401b0383118484101762001a8b5780849260209460405283398101031262001a8657516001600160a01b0381169081900362001a8657801562001a415760018060a01b0319338160015416176001556000541617600055601e601755600160185560016019556002601a5561c350601b55610258601c556003601d556019601e5568878678326eac900000601f55670de0b6b3a764000060205569021e19e0c9bab240000060215560016022556005602b5560ff19602c5416602c5561025860c0620000eb62001ae1565b6002815260646020820152600160408201526023606082015260646080820152600160a082015201526002600755606460085560016009556023600a556064600b556001600c55610258600d55605a60406200014662001b2a565b60198152600a602082015201526019600e55600a600f55605a60105560406200016e62001b2a565b6005815260016020820152610168918291015260056011556001601255601355600160a06200019c62001ae1565b600481528260208201528260408201528260608201528260808201528260c0820152015260046014556501010101010165ffffffffffff196015541617601555620001e662001b49565b610258606061014092838152600b6020820152600a60408201520152602355600b602455600a60255561025860265561025860606200022462001b49565b60d28152600b6020820152600a6040820152015260d2602755600b602855600a602955610258602a556200033c6200025b62001aa1565b60008082526020808301828152604084018381526060850184815261270f60808701908152948052600490935293517f17ef568e3e12ab5b9c7254a8d58478811de00f9e6eb34345acd53bf8fd09d3ec55517f17ef568e3e12ab5b9c7254a8d58478811de00f9e6eb34345acd53bf8fd09d3ed5591517f17ef568e3e12ab5b9c7254a8d58478811de00f9e6eb34345acd53bf8fd09d3ee5590517f17ef568e3e12ab5b9c7254a8d58478811de00f9e6eb34345acd53bf8fd09d3ef55517f17ef568e3e12ab5b9c7254a8d58478811de00f9e6eb34345acd53bf8fd09d3f055565b620004316200034a62001aa1565b60078152601960208083019182526000604084018181526060850182815261270f608087019081526001909352600490935293517fabd6e7cb50984ff9c2f3e18a2660c3353dadf4e3291deeb275dae2cd1e44fe055591517fabd6e7cb50984ff9c2f3e18a2660c3353dadf4e3291deeb275dae2cd1e44fe065591517fabd6e7cb50984ff9c2f3e18a2660c3353dadf4e3291deeb275dae2cd1e44fe075590517fabd6e7cb50984ff9c2f3e18a2660c3353dadf4e3291deeb275dae2cd1e44fe0855517fabd6e7cb50984ff9c2f3e18a2660c3353dadf4e3291deeb275dae2cd1e44fe0955565b620005266200043f62001aa1565b60078152606460208083019182526000604084018181526060850182815261270f608087019081526002909352600490935293517f91da3fd0782e51c6b3986e9e672fd566868e71f3dbc2d6c2cd6fbb3e361af2a75591517f91da3fd0782e51c6b3986e9e672fd566868e71f3dbc2d6c2cd6fbb3e361af2a85591517f91da3fd0782e51c6b3986e9e672fd566868e71f3dbc2d6c2cd6fbb3e361af2a95590517f91da3fd0782e51c6b3986e9e672fd566868e71f3dbc2d6c2cd6fbb3e361af2aa55517f91da3fd0782e51c6b3986e9e672fd566868e71f3dbc2d6c2cd6fbb3e361af2ab55565b6200061c6200053462001aa1565b600781526101f46020808301918252600360408401818152600060608601818152601e6080880190815293909152600490935293517f2e174c10e159ea99b867ce3205125c24a42d128804e4070ed6fcc8cc98166aa05591517f2e174c10e159ea99b867ce3205125c24a42d128804e4070ed6fcc8cc98166aa15591517f2e174c10e159ea99b867ce3205125c24a42d128804e4070ed6fcc8cc98166aa25590517f2e174c10e159ea99b867ce3205125c24a42d128804e4070ed6fcc8cc98166aa355517f2e174c10e159ea99b867ce3205125c24a42d128804e4070ed6fcc8cc98166aa455565b620007106200062a62001aa1565b600781526107d06020808301918252600460408401818152600060608601818152601e60808801908152918490529290935293517f1a1e6821cde7d0159c0d293177871e09677b4e42307c7db3ba94f8648a5a050f5591517f1a1e6821cde7d0159c0d293177871e09677b4e42307c7db3ba94f8648a5a05105591517f1a1e6821cde7d0159c0d293177871e09677b4e42307c7db3ba94f8648a5a051155517f1a1e6821cde7d0159c0d293177871e09677b4e42307c7db3ba94f8648a5a051255517f1a1e6821cde7d0159c0d293177871e09677b4e42307c7db3ba94f8648a5a051355565b620008056200071e62001aa1565b6007815261138860208083019182526004604084018181526060850182815261270f6080870190815260056000529290935293517f04cde762ef08b6b6c5ded8e8c4c0b3f4e5c9ad7342c88fcc93681b4588b73f055591517f04cde762ef08b6b6c5ded8e8c4c0b3f4e5c9ad7342c88fcc93681b4588b73f065591517f04cde762ef08b6b6c5ded8e8c4c0b3f4e5c9ad7342c88fcc93681b4588b73f075590517f04cde762ef08b6b6c5ded8e8c4c0b3f4e5c9ad7342c88fcc93681b4588b73f0855517f04cde762ef08b6b6c5ded8e8c4c0b3f4e5c9ad7342c88fcc93681b4588b73f0955565b620008fa6200081362001aa1565b6007815261271060208083019182526004604084018181526060850182815261270f6080870190815260066000529290935293517fc59312466997bb42aaaf719ece141047820e6b34531e1670dc1852a453648f0f5591517fc59312466997bb42aaaf719ece141047820e6b34531e1670dc1852a453648f105591517fc59312466997bb42aaaf719ece141047820e6b34531e1670dc1852a453648f115590517fc59312466997bb42aaaf719ece141047820e6b34531e1670dc1852a453648f1255517fc59312466997bb42aaaf719ece141047820e6b34531e1670dc1852a453648f1355565b620009f06200090862001aa1565b60078082526161a860208084019182526004604085018181526060860182815261270f608088019081526000969096529190925293517fbeb3bad75134cb432e5707980e3245c52c5998a1125ee30f2f0dbf3925b1e5515590517fbeb3bad75134cb432e5707980e3245c52c5998a1125ee30f2f0dbf3925b1e55255517fbeb3bad75134cb432e5707980e3245c52c5998a1125ee30f2f0dbf3925b1e5535590517fbeb3bad75134cb432e5707980e3245c52c5998a1125ee30f2f0dbf3925b1e55455517fbeb3bad75134cb432e5707980e3245c52c5998a1125ee30f2f0dbf3925b1e55555565b62000ae1620009fe62001aa1565b60008082526006602080840182815260016040860181815260056060880190815260808801838152929096529390925293517f3e5fec24aa4dc4e5aee2e025e51e1392c72a2500577559fae9665c6d52bd6a315592517f3e5fec24aa4dc4e5aee2e025e51e1392c72a2500577559fae9665c6d52bd6a3255517f3e5fec24aa4dc4e5aee2e025e51e1392c72a2500577559fae9665c6d52bd6a3355517f3e5fec24aa4dc4e5aee2e025e51e1392c72a2500577559fae9665c6d52bd6a3455517f3e5fec24aa4dc4e5aee2e025e51e1392c72a2500577559fae9665c6d52bd6a3555565b62000bd462000aef62001aa1565b600080825260036020808401918252600160408501818152600560608701908152608087019283526002909552600690925293517f8819ef417987f8ae7a81f42cdfb18815282fe989326fbff903d13cf0e03ace295590517f8819ef417987f8ae7a81f42cdfb18815282fe989326fbff903d13cf0e03ace2a55517f8819ef417987f8ae7a81f42cdfb18815282fe989326fbff903d13cf0e03ace2b55517f8819ef417987f8ae7a81f42cdfb18815282fe989326fbff903d13cf0e03ace2c55517f8819ef417987f8ae7a81f42cdfb18815282fe989326fbff903d13cf0e03ace2d55565b62000cca62000be262001aa1565b60028152600f6020808301918252600a604084019081526005606085019081526001608086019081526003600052600690935293517f75f96ab15d697e93042dc45b5c896c4b27e89bb6eaf39475c5c371cb2513f7d25591517f75f96ab15d697e93042dc45b5c896c4b27e89bb6eaf39475c5c371cb2513f7d35590517f75f96ab15d697e93042dc45b5c896c4b27e89bb6eaf39475c5c371cb2513f7d45590517f75f96ab15d697e93042dc45b5c896c4b27e89bb6eaf39475c5c371cb2513f7d555517f75f96ab15d697e93042dc45b5c896c4b27e89bb6eaf39475c5c371cb2513f7d655565b62000dc062000cd862001aa1565b60028152600f6020808301918252600a604084019081526005606085019081526001608086019081526004600052600690935293517fc5069e24aaadb2addc3e52e868fcf3f4f8acf5a87e24300992fd4540c2a87eed5591517fc5069e24aaadb2addc3e52e868fcf3f4f8acf5a87e24300992fd4540c2a87eee5590517fc5069e24aaadb2addc3e52e868fcf3f4f8acf5a87e24300992fd4540c2a87eef5590517fc5069e24aaadb2addc3e52e868fcf3f4f8acf5a87e24300992fd4540c2a87ef055517fc5069e24aaadb2addc3e52e868fcf3f4f8acf5a87e24300992fd4540c2a87ef155565b62000eb662000dce62001aa1565b60028152600f6020808301918252600a60408401908152600560608501818152600160808701908152600092909252600690935293517fbfd358e93f18da3ed276c3afdbdba00b8f0b6008a03476a6a86bd6320ee6938b5591517fbfd358e93f18da3ed276c3afdbdba00b8f0b6008a03476a6a86bd6320ee6938c5590517fbfd358e93f18da3ed276c3afdbdba00b8f0b6008a03476a6a86bd6320ee6938d55517fbfd358e93f18da3ed276c3afdbdba00b8f0b6008a03476a6a86bd6320ee6938e55517fbfd358e93f18da3ed276c3afdbdba00b8f0b6008a03476a6a86bd6320ee6938f55565b6200180c62000ec462001aa1565b60028152604b602080830182815260646040850181815260fa60608701818152608088019384526006600081905290955295517f697b2bd7bb2984c4e0dc14c79c987d37818484a62958b9c45a0e8b962f20650f5591517f697b2bd7bb2984c4e0dc14c79c987d37818484a62958b9c45a0e8b962f2065105590517f697b2bd7bb2984c4e0dc14c79c987d37818484a62958b9c45a0e8b962f2065115590517f697b2bd7bb2984c4e0dc14c79c987d37818484a62958b9c45a0e8b962f20651255517f697b2bd7bb2984c4e0dc14c79c987d37818484a62958b9c45a0e8b962f20651355906200109862000fb762001aa1565b60028152602080820185815260646040840181815260608501878152608086019283526007600052600690945293517f4ced6d0d36392b04cc5d8761b1327b3bbba6e1089c77f60a9a9ca18e05e4f00e5590517f4ced6d0d36392b04cc5d8761b1327b3bbba6e1089c77f60a9a9ca18e05e4f00f5591517f4ced6d0d36392b04cc5d8761b1327b3bbba6e1089c77f60a9a9ca18e05e4f01055517f4ced6d0d36392b04cc5d8761b1327b3bbba6e1089c77f60a9a9ca18e05e4f01155517f4ced6d0d36392b04cc5d8761b1327b3bbba6e1089c77f60a9a9ca18e05e4f01255565b62001187620010a662001aa1565b60028152602080820185815260646040840181815260608501878152608086019283526008600052600690945293517fb8d683c9d414f481826f3e7fe14b3ac6ae8c73450778287390c4bb8cb9f2e80b5590517fb8d683c9d414f481826f3e7fe14b3ac6ae8c73450778287390c4bb8cb9f2e80c5591517fb8d683c9d414f481826f3e7fe14b3ac6ae8c73450778287390c4bb8cb9f2e80d55517fb8d683c9d414f481826f3e7fe14b3ac6ae8c73450778287390c4bb8cb9f2e80e55517fb8d683c9d414f481826f3e7fe14b3ac6ae8c73450778287390c4bb8cb9f2e80f55565b620012766200119562001aa1565b60028152602080820185815260646040840181815260608501878152608086019283526009600052600690945293517fca4d0c6c94a9477136dd41a99cc19ecbe441c8f6609efe7c6fa65be007a473235590517fca4d0c6c94a9477136dd41a99cc19ecbe441c8f6609efe7c6fa65be007a473245591517fca4d0c6c94a9477136dd41a99cc19ecbe441c8f6609efe7c6fa65be007a4732555517fca4d0c6c94a9477136dd41a99cc19ecbe441c8f6609efe7c6fa65be007a4732655517fca4d0c6c94a9477136dd41a99cc19ecbe441c8f6609efe7c6fa65be007a4732755565b620013656200128462001aa1565b6002815260208082018581526064604084018181526060850187815260808601928352600a600052600690945293517f4da38fc8e544afc56a4c2a17752b8ddb67d8e23ac4583c9029d2e2d1dbe6c9885590517f4da38fc8e544afc56a4c2a17752b8ddb67d8e23ac4583c9029d2e2d1dbe6c9895591517f4da38fc8e544afc56a4c2a17752b8ddb67d8e23ac4583c9029d2e2d1dbe6c98a55517f4da38fc8e544afc56a4c2a17752b8ddb67d8e23ac4583c9029d2e2d1dbe6c98b55517f4da38fc8e544afc56a4c2a17752b8ddb67d8e23ac4583c9029d2e2d1dbe6c98c55565b620014546200137362001aa1565b6002815260208082018581526064604084018181526060850187815260808601928352600b600052600690945293517f85291c2e7881182c13e19eca9b58927ebfdc2c5d04882018eeb33d8241d357115590517f85291c2e7881182c13e19eca9b58927ebfdc2c5d04882018eeb33d8241d357125591517f85291c2e7881182c13e19eca9b58927ebfdc2c5d04882018eeb33d8241d3571355517f85291c2e7881182c13e19eca9b58927ebfdc2c5d04882018eeb33d8241d3571455517f85291c2e7881182c13e19eca9b58927ebfdc2c5d04882018eeb33d8241d3571555565b620015436200146262001aa1565b6002815260208082018581526064604084018181526060850187815260808601928352600c600052600690945293517f0b94fa1b86997cc1f1148bfbe25b674e8cefc7cc6f976aa8d7c7966bd4cca3475590517f0b94fa1b86997cc1f1148bfbe25b674e8cefc7cc6f976aa8d7c7966bd4cca3485591517f0b94fa1b86997cc1f1148bfbe25b674e8cefc7cc6f976aa8d7c7966bd4cca34955517f0b94fa1b86997cc1f1148bfbe25b674e8cefc7cc6f976aa8d7c7966bd4cca34a55517f0b94fa1b86997cc1f1148bfbe25b674e8cefc7cc6f976aa8d7c7966bd4cca34b55565b620016326200155162001aa1565b6002815260208082018581526064604084018181526060850187815260808601928352600d600052600690945293517f248457bacb20e239ae314d8db91c0f270e453c28ee138c84f97aea6cfcf9a4995590517f248457bacb20e239ae314d8db91c0f270e453c28ee138c84f97aea6cfcf9a49a5591517f248457bacb20e239ae314d8db91c0f270e453c28ee138c84f97aea6cfcf9a49b55517f248457bacb20e239ae314d8db91c0f270e453c28ee138c84f97aea6cfcf9a49c55517f248457bacb20e239ae314d8db91c0f270e453c28ee138c84f97aea6cfcf9a49d55565b620017216200164062001aa1565b6002815260208082018581526064604084018181526060850187815260808601928352600e600052600690945293517faca6cdb4b5fe0ec50731a73f714dd191dc1911bfeb3f9eeb9e94ed0f6065ef8d5590517faca6cdb4b5fe0ec50731a73f714dd191dc1911bfeb3f9eeb9e94ed0f6065ef8e5591517faca6cdb4b5fe0ec50731a73f714dd191dc1911bfeb3f9eeb9e94ed0f6065ef8f55517faca6cdb4b5fe0ec50731a73f714dd191dc1911bfeb3f9eeb9e94ed0f6065ef9055517faca6cdb4b5fe0ec50731a73f714dd191dc1911bfeb3f9eeb9e94ed0f6065ef9155565b6200172b62001aa1565b6002815260208082019384526064604083018181526060840194855260808401918252600f600052600690925291517ff130046d53bc87538ab17e4752ba5f5082985eecc06ccb932c5a55e8242dd5025592517ff130046d53bc87538ab17e4752ba5f5082985eecc06ccb932c5a55e8242dd5035591517ff130046d53bc87538ab17e4752ba5f5082985eecc06ccb932c5a55e8242dd50455517ff130046d53bc87538ab17e4752ba5f5082985eecc06ccb932c5a55e8242dd50555517ff130046d53bc87538ab17e4752ba5f5082985eecc06ccb932c5a55e8242dd50655565b620018a76200181a62001ac1565b60128152600a6020808301918252602d604084019081526003600052600590915291517fa9bc9a3a348c357ba16b37005d7e6b3236198c0e939f4af8c5f19b8deeb8ebc055517fa9bc9a3a348c357ba16b37005d7e6b3236198c0e939f4af8c5f19b8deeb8ebc155517fa9bc9a3a348c357ba16b37005d7e6b3236198c0e939f4af8c5f19b8deeb8ebc255565b62001942620018b562001ac1565b60128152600a6020808301918252605a604084019081526005600081905290915291517f458b30c2d72bfd2c6317304a4594ecbafe5f729d3111b65fdc3a33bd48e5432d55517f458b30c2d72bfd2c6317304a4594ecbafe5f729d3111b65fdc3a33bd48e5432e55517f458b30c2d72bfd2c6317304a4594ecbafe5f729d3111b65fdc3a33bd48e5432f55565b620019de6200195062001ac1565b60098152600a602080830191825261270f604084019081526007600052600590915291517feddb6698d7c569ff62ff64f1f1492bf14a54594835ba0faac91f84b4f5d8146055517feddb6698d7c569ff62ff64f1f1492bf14a54594835ba0faac91f84b4f5d8146155517feddb6698d7c569ff62ff64f1f1492bf14a54594835ba0faac91f84b4f5d8146255565b600360205260327fc3a24b0501bd2c13a7e57f2db4369ec4c223447539fc0724a9d55ac4a06ebd4d5560046000526101f47f83ec6a1f0257b830b5e016457c9cf1435391bf56cc98f369a58a54fe9377246555604051612a6b908162001b808239f35b60405162461bcd60e51b815260206004820152601360248201527f6f776e2e696e76616c69642e68657862617365000000000000000000000000006044820152606490fd5b600080fd5b634e487b7160e01b600052604160045260246000fd5b6040519060a082016001600160401b0381118382101762001a8b57604052565b60405190606082016001600160401b0381118382101762001a8b57604052565b6040519060e082016001600160401b0381118382101762001a8b576040528160c06000918281528260208201528260408201528260608201528260808201528260a08201520152565b62001b3462001ac1565b90600082526000602083015260006040830152565b60405190608082016001600160401b0381118382101762001a8b576040526000606083828152826020820152826040820152015256fe60806040526004361015610018575b361561001657005b005b60003560e01c80630609a0e3146103c857806307175c83146103c357806309307c62146103be5780630b225f1a146103b95780630ea0d222146103b457806312065fe0146103af57806314be92a5146103aa57806315a544ed146103a55780631605aed9146103a057806316f0115b1461039b578063192b48ee146103965780631ef6a864146103915780631f185d161461038c57806326c5adae14610387578063298fc460146103825780633688236d1461037d5780633b9b7955146103785780634151331d14610373578063438fe1921461036e57806344ec16bc146103695780634b62954f1461036457806353423e861461035f578063541d76671461035a57806354541683146103555780635640dbfc14610350578063592a02a81461034b5780635962205f146103465780635a0e9038146103415780636b81c82f1461033c5780636c7deb5d146103375780636f092c5e146103325780637687e3711461032d57806378ef376f146103285780637bc908c6146103235780638da5cb5b1461031e57806391fc8aa8146103195780639319d0b514610314578063991bf5cc1461030f5780639d80ab9b1461030a5780639eb8b44e14610305578063a19841dd14610300578063a1f7f539146102fb578063a88fcea6146102f6578063aebcd32a146102f1578063af0b21d3146102ec578063af484526146102e7578063b49c064c146102e2578063b85f1f8d146102dd578063b90306ad146102d8578063c54e44b0146102d3578063c5a136d4146102ce578063e01ad5fd146102c9578063e0a9bc2b146102c4578063eddd0d9c146102bf578063f27c35c6146102ba578063f2a6bbc7146102b5578063f4fe8e3c146102b0578063fc0e74d1146102ab5763fdc10bc90361000e57611f77565b611f54565b611eae565b611e0b565b611d08565b611c65565b611c4a565b611bb0565b611ac5565b611a23565b611967565b611935565b611912565b6118e1565b6118c3565b61185b565b61183d565b61178f565b611755565b611592565b611513565b61141e565b61137b565b61135d565b611336565b611318565b611275565b6111b4565b611188565b6110e5565b61100e565b610fbe565b610f56565b610e0d565b610d7a565b610d5c565b610ceb565b610ccd565b610c24565b610b81565b610b63565b610b16565b610aef565b610ad1565b610a10565b61094f565b61083b565b61077b565b6106d8565b610687565b61066a565b61064c565b6105a9565b61058d565b61056f565b610551565b6104a8565b61048a565b34610485576020366003190112610485576103e96103e46121c3565b6126bd565b6103f233612307565b801561040d575b61040290612708565b610016600435601755565b5060046001600160a01b036020816000541660405193848092630536340960e21b82525afa9081156104805761040292600092610450575b5016331490506103f9565b61047291925060203d8111610479575b61046a81836120df565b810190612101565b9038610445565b503d610460565b612119565b600080fd5b34610485576000366003190112610485576020601e54604051908152f35b34610485576040366003190112610485576104c46103e46121c3565b6104cd33612307565b80156104ee575b6104dd90612708565b610016602435600435602055602155565b5060046001600160a01b036020816000541660405193848092630536340960e21b82525afa908115610480576104dd92600092610531575b5016331490506104d4565b61054a91925060203d81116104795761046a81836120df565b9038610526565b34610485576000366003190112610485576020602b54604051908152f35b34610485576000366003190112610485576020601c54604051908152f35b3461048557600036600319011261048557602047604051908152f35b34610485576020366003190112610485576105c56103e46121c3565b6105ce33612307565b80156105e9575b6105de90612708565b610016600435601c55565b5060046001600160a01b036020816000541660405193848092630536340960e21b82525afa908115610480576105de9260009261062c575b5016331490506105d5565b61064591925060203d81116104795761046a81836120df565b9038610621565b34610485576000366003190112610485576020602154604051908152f35b346104855760003660031901126104855760208054604051908152f35b346104855760003660031901126104855760e0600754600854600954600a54600b5490600c5492600d5494604051968752602087015260408601526060850152608084015260a083015260c0820152f35b34610485576020366003190112610485576106f46103e46121c3565b6106fd33612307565b8015610718575b61070d90612708565b610016600435612799565b5060046001600160a01b036020816000541660405193848092630536340960e21b82525afa9081156104805761070d9260009261075b575b501633149050610704565b61077491925060203d81116104795761046a81836120df565b9038610750565b346104855760a0366003190112610485576107976103e46121c3565b6107a033612307565b80156107c7575b6107b090612708565b61001660843560643560443560243560043561294e565b5060046001600160a01b036020816000541660405193848092630536340960e21b82525afa908115610480576107b09260009261080a575b5016331490506107a7565b61082391925060203d81116104795761046a81836120df565b90386107ff565b6001600160a01b0381160361048557565b34610485576020806003193601126104855760049081359061085c8261082a565b8061087e6108726000546001600160a01b031690565b6001600160a01b031690565b60405194858092634bf9c0ad60e11b82525afa918215610480576108d261090c936108ee9261091e9660009261092c575b506108e0906040519384918783019190916001600160a01b036020820193169052565b03601f1981018452836120df565b6108e86123b1565b90612592565b919080610922575b6108ff906123ea565b80825183010191016121ae565b60405190151581529081906020820190565b0390f35b50815181146108f6565b6108e091925061094890863d88116104795761046a81836120df565b91906108af565b3461048557602036600319011261048557600460206001600160a01b0360005416604051928380926369e8d84b60e11b82525afa8015610480576109b46109d89161091e936000916109e8575b506109a56129c4565b906109ae6129dc565b9061267f565b6109d3600435916109ce6109c9601e54612753565b612753565b612a15565b612786565b6040519081529081906020820190565b610a00915060203d81116104795761046a81836120df565b3861099c565b8015150361048557565b3461048557602036600319011261048557600435610a2d81610a06565b610a386103e46121c3565b610a4133612307565b8015610a67575b90610a5561001692612708565b60ff8019602c54169115151617602c55565b506001600160a01b039060046020836000541660405192838092630536340960e21b82525afa80156104805761001693610a5592600092610ab1575b503391161491925050610a48565b610aca91925060203d81116104795761046a81836120df565b9038610aa3565b34610485576000366003190112610485576020601b54604051908152f35b346104855760003660031901126104855760206001600160a01b0360005416604051908152f35b346104855760203660031901126104855760043560005260056020526040600020805461091e60026001840154930154604051938493846040919493926060820195825260208201520152565b34610485576000366003190112610485576020601954604051908152f35b3461048557602036600319011261048557610b9d6103e46121c3565b610ba633612307565b8015610bc1575b610bb690612708565b610016600435601855565b5060046001600160a01b036020816000541660405193848092630536340960e21b82525afa90811561048057610bb692600092610c04575b501633149050610bad565b610c1d91925060203d81116104795761046a81836120df565b9038610bf9565b3461048557604036600319011261048557610c406103e46121c3565b610c4933612307565b8015610c6a575b610c5990612708565b610016602435600435601a55601b55565b5060046001600160a01b036020816000541660405193848092630536340960e21b82525afa90811561048057610c5992600092610cad575b501633149050610c50565b610cc691925060203d81116104795761046a81836120df565b9038610ca2565b34610485576000366003190112610485576020601d54604051908152f35b3461048557602036600319011261048557600460206001600160a01b0360005416604051928380926369e8d84b60e11b82525afa801561048057610d406109d89161091e936000916109e857506109a56129c4565b60043560005260036020526109ce6109c9604060002054612753565b34610485576000366003190112610485576020601854604051908152f35b346104855760003660031901126104855760e060145460155460405191825260ff9081811615156020840152818160081c1615156040840152818160101c1615156060840152818160181c1615156080840152818160201c16151560a084015260281c16151560c0820152f35b60c090600319011261048557600435906024359060443590606435906084359060a43590565b3461048557610e1b36610de7565b91610e2a6103e49694966121c3565b610e3333612307565b8015610ef3575b610e4390612708565b6010841015610eaf576100169560405195610e5d8761204e565b8652602086015260408501526060840152608083015260005260066020526040600020906080600491805184556020810151600185015560408101516002850155606081015160038501550151910155565b606460405162461bcd60e51b815260206004820152600d60248201527f696e76616c6964206c6576656c000000000000000000000000000000000000006044820152fd5b5060046001600160a01b036020816000541660405193848092630536340960e21b82525afa90811561048057610e4392600092610f36575b501633149050610e3a565b610f4f91925060203d81116104795761046a81836120df565b9038610f2b565b346104855760203660031901126104855760043560005260066020526040600020805461091e6001830154926002810154906004600382015491015491604051958695869192608093969594919660a084019784526020840152604083015260608201520152565b3461048557600036600319011261048557600e54600f5460105460408051938452602084019290925290820152606090f35b60809060031901126104855760043590602435906044359060643590565b346104855761101c36610ff0565b9261102b6103e49392936121c3565b61103433612307565b801561107c575b90611047600292612708565b61104f612907565b506001811461106b575b1461106057005b601155601255601355005b82600e5583600f5584601055611059565b506001600160a01b039060046020836000541660405192838092630536340960e21b82525afa801561048057600293611047926000926110c5575b50339116149192505061103b565b6110de91925060203d81116104795761046a81836120df565b90386110b7565b34610485576020366003190112610485576111016103e46121c3565b61110a33612307565b8015611125575b61111a90612708565b610016600435601d55565b5060046001600160a01b036020816000541660405193848092630536340960e21b82525afa9081156104805761111a92600092611168575b501633149050611111565b61118191925060203d81116104795761046a81836120df565b903861115d565b346104855760203660031901126104855760043560005260036020526020604060002054604051908152f35b34610485576020366003190112610485576004356111d181610a06565b6111dc6103e46121c3565b6111e533612307565b801561120b575b906111f961001692612708565b60ff8019601654169115151617601655565b506001600160a01b039060046020836000541660405192838092630536340960e21b82525afa801561048057610016936111f992600092611255575b5033911614919250506111ec565b61126e91925060203d81116104795761046a81836120df565b9038611247565b34610485576020366003190112610485576112916103e46121c3565b61129a33612307565b80156112b5575b6112aa90612708565b610016600435602255565b5060046001600160a01b036020816000541660405193848092630536340960e21b82525afa908115610480576112aa926000926112f8575b5016331490506112a1565b61131191925060203d81116104795761046a81836120df565b90386112ed565b34610485576000366003190112610485576020602254604051908152f35b346104855760003660031901126104855760206001600160a01b0360015416604051908152f35b34610485576000366003190112610485576020601f54604051908152f35b34610485576020366003190112610485576113976103e46121c3565b6113a033612307565b80156113bb575b6113b090612708565b610016600435601955565b5060046001600160a01b036020816000541660405193848092630536340960e21b82525afa908115610480576113b0926000926113fe575b5016331490506113a7565b61141791925060203d81116104795761046a81836120df565b90386113f3565b346104855760e03660031901126104855760243561143b81610a06565b60443561144781610a06565b60643561145381610a06565b60843561145f81610a06565b60a4359161146c83610a06565b60c4359361147985610a06565b6114846103e46121c3565b61148d33612307565b80156114a9575b956114a161001697612708565b6004356127a7565b506001600160a01b039560046020886000541660405192838092630536340960e21b82525afa801561048057610016986114a1926000926114f3575b503391161491975050611494565b61150c91925060203d81116104795761046a81836120df565b90386114e5565b3461048557600036600319011261048557602354602454602554602654604080519485526020850193909352918301526060820152608090f35b6102a0810192916000915b6007831061156557505050565b60019060608351918251815260209283810151848301526040809101519082015201920192019190611558565b34610485576000366003190112610485576040516115af8161206f565b60005b60e081106117405761091e6115c5612125565b600160005260056020526115fd7f1471eb6eb2c5e789fc3de43f8ce62938c7d1836ec861730447e2ada8fd81017b612926565b612926565b8152600260005260056020526116327f89832631fb3c3307a103ba2c84ab569c64d6182a18893dcd163f0f1c2090733a612926565b602082015261164f6115f860036000526005602052604060002090565b6040820152600460005260056020526116877f3eec716f11ba9e820c81ca75eb978ffb45831ef8b7a53e5e422c26008e1ca6d5612926565b6060820152600560008190526020526116bf7f458b30c2d72bfd2c6317304a4594ecbafe5f729d3111b65fdc3a33bd48e5432d612926565b6080820152600660005260056020526116f77f069400f22b28c6c362558d92f66163cec5671cba50b61abd2eecfcd0eaeac518612926565b60a08201526007600052600560205261172f7feddb6698d7c569ff62ff64f1f1492bf14a54594835ba0faac91f84b4f5d81460612926565b60c08201526040519182918261154d565b60209061174b612907565b81840152016115b2565b3461048557600036600319011261048557602754602854602954602a54604080519485526020850193909352918301526060820152608090f35b3461048557600036600319011261048557600460206001600160a01b03600054166040519283809263d1f956b160e01b82525afa9081156104805761091e916109d89160009161181f575b506040516117e7816120a7565b601381527f67657464656c656761746f72436f756e742829000000000000000000000000006020820152611819612150565b9161267f565b611837915060203d81116104795761046a81836120df565b386117da565b34610485576000366003190112610485576020601a54604051908152f35b346104855760203660031901126104855760043560005260046020526040600020805461091e6001830154926002810154906004600382015491015491604051958695869192608093969594919660a084019784526020840152604083015260608201520152565b34610485576000366003190112610485576020601754604051908152f35b346104855760203660031901126104855760206119086004356119038161082a565b612307565b6040519015158152f35b3461048557600036600319011261048557602060ff602c54166040519015158152f35b346104855760003660031901126104855760115460125460135460408051938452602084019290925290820152606090f35b346104855760203660031901126104855760046001600160a01b036020816000541660405193848092630536340960e21b82525afa91821561048057600092611a03575b50339116036119bf5761001660043561249e565b606460405162461bcd60e51b815260206004820152600f60248201527f6f776e2e6e6f6e617574682e44414f00000000000000000000000000000000006044820152fd5b611a1c91925060203d81116104795761046a81836120df565b90386119ab565b3461048557602036600319011261048557600435611a408161082a565b803b6000611a4d82612134565b92611a5b60405194856120df565b82845260208401903c602d815110611a8157602a015160405160609190911c8152602090f35b606460405162461bcd60e51b815260206004820152601360248201527f4e6f742061206d696e696d616c2070726f7879000000000000000000000000006044820152fd5b3461048557611ad336610ff0565b90611ae26103e49493946121c3565b611aeb33612307565b8015611b47575b92611afe600294612708565b611b0a600882106128a0565b60405194611b178661208b565b85526020850191825260408501928352600052600560205260406000209351845551600184015551910155600080f35b506001600160a01b039260046020856000541660405192838092630536340960e21b82525afa801561048057600295611afe92600092611b90575b503391161491945050611af2565b611ba991925060203d81116104795761046a81836120df565b9038611b82565b34610485576020806003193601126104855760048035611bcf8161082a565b6001600160a01b03928084600054166040519485809263d1f956b160e01b82525afa9081156104805761091e9461090c94600093611c2b575b506040519316818401528252611c1d826120a7565b611c25612435565b90612643565b611c43919350823d84116104795761046a81836120df565b9138611c08565b346104855760003660031901126104855760206119086121c3565b3461048557602036600319011261048557611c816103e46121c3565b611c8a33612307565b8015611ca5575b611c9a90612708565b610016600435601e55565b5060046001600160a01b036020816000541660405193848092630536340960e21b82525afa90811561048057611c9a92600092611ce8575b501633149050611c91565b611d0191925060203d81116104795761046a81836120df565b9038611cdd565b3461048557611d1636610de7565b91611d256103e49694966121c3565b611d2e33612307565b8015611da1575b95611d4261001697612708565b60405195611d4f8761204e565b8652602086015260408501526060840152608083015260005260046020526040600020906080600491805184556020810151600185015560408101516002850155606081015160038501550151910155565b506001600160a01b039560046020886000541660405192838092630536340960e21b82525afa80156104805761001698611d4292600092611deb575b503391161491975050611d35565b611e0491925060203d81116104795761046a81836120df565b9038611ddd565b3461048557602036600319011261048557611e276103e46121c3565b611e3033612307565b8015611e4b575b611e4090612708565b610016600435602b55565b5060046001600160a01b036020816000541660405193848092630536340960e21b82525afa90811561048057611e4092600092611e8e575b501633149050611e37565b611ea791925060203d81116104795761046a81836120df565b9038611e83565b3461048557604036600319011261048557611eca6103e46121c3565b611ed333612307565b8015611ef1575b611ee390612708565b6100166024356004356128eb565b5060046001600160a01b036020816000541660405193848092630536340960e21b82525afa90811561048057611ee392600092611f34575b501633149050611eda565b611f4d91925060203d81116104795761046a81836120df565b9038611f29565b3461048557600036600319011261048557602060ff601654166040519015158152f35b3461048557600036600319011261048557600460206001600160a01b0360005416604051928380927f447aa3040000000000000000000000000000000000000000000000000000000082525afa9081156104805761091e916109d89160009161201a575b50604051611fe8816120a7565b600581527f61676528290000000000000000000000000000000000000000000000000000006020820152611819612150565b612032915060203d81116104795761046a81836120df565b38611fdb565b634e487b7160e01b600052604160045260246000fd5b60a0810190811067ffffffffffffffff82111761206a57604052565b612038565b60e0810190811067ffffffffffffffff82111761206a57604052565b6060810190811067ffffffffffffffff82111761206a57604052565b6040810190811067ffffffffffffffff82111761206a57604052565b6020810190811067ffffffffffffffff82111761206a57604052565b90601f8019910116810190811067ffffffffffffffff82111761206a57604052565b9081602091031261048557516121168161082a565b90565b6040513d6000823e3d90fd5b604051906121328261206f565b565b67ffffffffffffffff811161206a57601f01601f191660200190565b6040519061215d826120c3565b60008252565b1561216a57565b606460405162461bcd60e51b815260206004820152601960248201527f6f776e2e7361666567756172642e63616c6c2e6661696c6564000000000000006044820152fd5b90816020910312610485575161211681610a06565b6001600160a01b03600054166040518091634bf9c0ad60e11b825281600460209384935afa918215610480576121169261224b91600091612266575b5060405161220c816120a7565b600881527f69735361666528290000000000000000000000000000000000000000000000008482015260405191612242836120c3565b60008352612592565b91908061225c575b6108ff90612163565b5081518114612253565b61227d9150833d85116104795761046a81836120df565b386121ff565b60405190612290826120a7565b601582527f69735365637572654261736528616464726573732900000000000000000000006020830152565b156122c357565b606460405162461bcd60e51b815260206004820152601a60248201527f6f776e2e736563757265626173652e63616c6c2e6661696c65640000000000006044820152fd5b6000546001600160a01b0316604051918291634bf9c0ad60e11b835282600460209485935afa9283156104805761211693612373926108d29260009261238e575b5061236b906040519384918783019190916001600160a01b036020820193169052565b6108e8612283565b919080612384575b6108ff906122bc565b508151811461237b565b61236b9192506123aa90863d88116104795761046a81836120df565b9190612348565b604051906123be826120a7565b601182527f69735369676e65722861646472657373290000000000000000000000000000006020830152565b156123f157565b606460405162461bcd60e51b815260206004820152601660248201527f6f776e2e7369676e65722e63616c6c2e6661696c6564000000000000000000006044820152fd5b60405190612442826120a7565b601882527f697364656c656761746f724e6f646528616464726573732900000000000000006020830152565b3d15612499573d9061247f82612134565b9161248d60405193846120df565b82523d6000602084013e565b606090565b6000600460206001600160a01b03835416604051928380927f46f991ac0000000000000000000000000000000000000000000000000000000082525afa908115610480578284819382938391612574575b505af16124fa61246e565b50156125305760405190815233907fcdcc745fe377b103b45fa0cec23ae3ef93d6fc6a84a01f0d18c40b354dd1d5d890602090a2565b606460405162461bcd60e51b815260206004820152600f60248201527f6f776e2e6275726e2e6661696c656400000000000000000000000000000000006044820152fd5b61258c915060203d81116104795761046a81836120df565b386124ef565b9190823b1561262a577fffffffff00000000000000000000000000000000000000000000000000000000815160208093012016916040519180830193845281519160005b838110612616575050509181612603602482600097959688970187838201520360048101845201826120df565b5191620dbba0fa61261261246e565b9091565b8181018301518582016024015282016125d6565b50505060009060405161263c816120c3565b6000815290565b929161265191600094612592565b9080612674575b61265f5750565b612116919250602080825183010191016121ae565b506020815114612658565b929161268d91600094612592565b90806126b2575b61269b5750565b909150602081805181010312610485576020015190565b506020815114612694565b156126c457565b606460405162461bcd60e51b815260206004820152601260248201527f6f776e2e696e76616c69642e69735361666500000000000000000000000000006044820152fd5b1561270f57565b606460405162461bcd60e51b815260206004820152601b60248201527f6f776e2e6e6f6e617574682e44414f6f725365637572656261736500000000006044820152fd5b90670de0b6b3a76400009182810292818404149015171561277057565b634e487b7160e01b600052601160045260246000fd5b8181029291811591840414171561277057565b6127a290612753565b601f55565b61287f946121329794612818612860956128439460c09a96604051906127cc8261206f565b8282521515928360208301521515948560408301521515958660608301521515978860808301521515998a60a083015215159b8c91015260145560ff8019601554169115151617601555565b6015805462ffff00191660089290921b61ff00169190911791151560101b62ff000016919091179055565b63ff00000060155491151560181b169063ff000000191617601555565b64ff0000000060155491151560201b169064ff00000000191617601555565b65ff000000000060155491151560281b169065ff0000000000191617601555565b156128a757565b606460405162461bcd60e51b815260206004820152600c60248201527f696e76616c69642072616e6b00000000000000000000000000000000000000006044820152fd5b6128f7600882106128a0565b6000526003602052604060002055565b604051906129148261208b565b60006040838281528260208201520152565b906040516129338161208b565b60406002829480548452600181015460208501520154910152565b60405190608082019180831067ffffffffffffffff84111761206a57606087916002946040528581528660208201528760408201520152600181146129af575b1461299a575b50505050565b602755602855602955602a5538808080612994565b8260235583602455846025558560265561298e565b6040516129d0816120c3565b60008152906000368137565b604051906129e9826120a7565b601282527f6f7a6f6e655072696365496e55534454282900000000000000000000000000006020830152565b8115612a1f570490565b634e487b7160e01b600052601260045260246000fdfea2646970667358221220d043aaaed648725609c437110c421f8ee629b1212cf23d914c5aef60a425d3b964736f6c63430008140033","linkReferences":{}},"methodIdentifiers":{"Burn(uint256)":"b90306ad","NFTSendPerCycle()":"438fe192","_delegatorCount()":"a1f7f539","_getImplementation(address)":"c54e44b0","_isDelegatorNode(address)":"e01ad5fd","_isSafe()":"e0a9bc2b","_isSecureBase(address)":"af484526","_isSigner(address)":"1f185d16","allowForceTransfer()":"b49c064c","capping()":"5640dbfc","computeMintValue(uint256)":"26c5adae","computeTour(uint256)":"541d7667","eachclaimCycle()":"7bc908c6","freeIntervals()":"af0b21d3","getBalance()":"12065fe0","getBatchRoyaltyClauses()":"9eb8b44e","getHexbase()":"3b9b7955","levelClause(uint256)":"5962205f","maxClaimPerDay()":"15a544ed","maxGlobalClaimPerDay()":"91fc8aa8","maxMintQty()":"3688236d","maxMintsPerCycle()":"53423e86","maxNFTSend()":"54541683","minClaimPerDay()":"1605aed9","minMintQty()":"a88fcea6","mintCycleDays()":"0ea0d222","mintFeePerQty()":"07175c83","owner()":"8da5cb5b","pool()":"16f0115b","poolNFT1()":"5a0e9038","poolNFT2()":"b85f1f8d","rankClause(uint256)":"aebcd32a","rankforDAO()":"0b225f1a","royalityClause(uint256)":"4151331d","setAllowForceTransfer(bool)":"298fc460","setCapping(uint256,bool,bool,bool,bool,bool,bool)":"991bf5cc","setClaimPerDay(uint256,uint256)":"09307c62","setFreeIntervals(uint256)":"0609a0e3","setGlobalClaimPerDay(uint256)":"192b48ee","setMaxMintsPerCycle(uint256)":"6c7deb5d","setMaxNFTSend(uint256)":"44ec16bc","setMintCycleDays(uint256)":"14be92a5","setMintFee(uint256)":"eddd0d9c","setMintQty(uint256,uint256)":"4b62954f","setNFTSendPerCycle(uint256)":"9319d0b5","setNftPool(uint256,uint256,uint256,uint256)":"6b81c82f","setRoyalityClause(uint256,uint256,uint256,uint256)":"c5a136d4","setTourClause(uint256,uint256)":"f4fe8e3c","setValidatorPool(uint256,uint256,uint256,uint256,uint256)":"1ef6a864","setclaimCycle(uint256)":"78ef376f","setlevelClause(uint256,uint256,uint256,uint256,uint256,uint256)":"592a02a8","setrankClause(uint256,uint256,uint256,uint256,uint256,uint256)":"f27c35c6","setrankforDAO(uint256)":"f2a6bbc7","setshutdown(bool)":"7687e371","shutdown()":"fc0e74d1","systemAge()":"fdc10bc9","tourClause(uint256)":"6f092c5e","valExternal()":"a19841dd","valInternal()":"9d80ab9b"},"id":71}