{"abi":[{"type":"constructor","inputs":[{"name":"_hex","type":"address","internalType":"address"}],"stateMutability":"nonpayable"},{"type":"fallback","stateMutability":"payable"},{"type":"receive","stateMutability":"payable"},{"type":"function","name":"Burn","inputs":[{"name":"amount","type":"uint256","internalType":"uint256"}],"outputs":[],"stateMutability":"nonpayable"},{"type":"function","name":"NFTSendPerCycle","inputs":[],"outputs":[{"name":"","type":"uint256","internalType":"uint256"}],"stateMutability":"view"},{"type":"function","name":"_delegatorCount","inputs":[],"outputs":[{"name":"","type":"uint256","internalType":"uint256"}],"stateMutability":"view"},{"type":"function","name":"_getImplementation","inputs":[{"name":"clone","type":"address","internalType":"address"}],"outputs":[{"name":"impl","type":"address","internalType":"address"}],"stateMutability":"view"},{"type":"function","name":"_isDelegatorNode","inputs":[{"name":"sender","type":"address","internalType":"address"}],"outputs":[{"name":"","type":"bool","internalType":"bool"}],"stateMutability":"view"},{"type":"function","name":"_isSafe","inputs":[],"outputs":[{"name":"","type":"bool","internalType":"bool"}],"stateMutability":"view"},{"type":"function","name":"_isSecureBase","inputs":[{"name":"sender","type":"address","internalType":"address"}],"outputs":[{"name":"","type":"bool","internalType":"bool"}],"stateMutability":"view"},{"type":"function","name":"_isSigner","inputs":[{"name":"sender","type":"address","internalType":"address"}],"outputs":[{"name":"","type":"bool","internalType":"bool"}],"stateMutability":"view"},{"type":"function","name":"allowForceTransfer","inputs":[],"outputs":[{"name":"","type":"bool","internalType":"bool"}],"stateMutability":"view"},{"type":"function","name":"capping","inputs":[],"outputs":[{"name":"multiple","type":"uint256","internalType":"uint256"},{"name":"rw","type":"bool","internalType":"bool"},{"name":"ry","type":"bool","internalType":"bool"},{"name":"self","type":"bool","internalType":"bool"},{"name":"yei","type":"bool","internalType":"bool"},{"name":"val","type":"bool","internalType":"bool"},{"name":"tour","type":"bool","internalType":"bool"}],"stateMutability":"view"},{"type":"function","name":"computeMintValue","inputs":[{"name":"_qty","type":"uint256","internalType":"uint256"}],"outputs":[{"name":"","type":"uint256","internalType":"uint256"}],"stateMutability":"view"},{"type":"function","name":"computeTour","inputs":[{"name":"_r","type":"uint256","internalType":"uint256"}],"outputs":[{"name":"","type":"uint256","internalType":"uint256"}],"stateMutability":"view"},{"type":"function","name":"eachclaimCycle","inputs":[],"outputs":[{"name":"","type":"uint256","internalType":"uint256"}],"stateMutability":"view"},{"type":"function","name":"freeIntervals","inputs":[],"outputs":[{"name":"","type":"uint256","internalType":"uint256"}],"stateMutability":"view"},{"type":"function","name":"getBalance","inputs":[],"outputs":[{"name":"","type":"uint256","internalType":"uint256"}],"stateMutability":"view"},{"type":"function","name":"getBatchRoyaltyClauses","inputs":[],"outputs":[{"name":"clauses","type":"tuple[7]","internalType":"struct lib741Rules.RoyalityStr[7]","components":[{"name":"rwNum","type":"uint256","internalType":"uint256"},{"name":"rwDen","type":"uint256","internalType":"uint256"},{"name":"rwEnd","type":"uint256","internalType":"uint256"}]}],"stateMutability":"view"},{"type":"function","name":"getHexbase","inputs":[],"outputs":[{"name":"","type":"address","internalType":"address"}],"stateMutability":"view"},{"type":"function","name":"levelClause","inputs":[{"name":"","type":"uint256","internalType":"uint256"}],"outputs":[{"name":"rank","type":"uint256","internalType":"uint256"},{"name":"rwNum","type":"uint256","internalType":"uint256"},{"name":"rwrDen","type":"uint256","internalType":"uint256"},{"name":"yeiNum","type":"uint256","internalType":"uint256"},{"name":"yeiDen","type":"uint256","internalType":"uint256"}],"stateMutability":"view"},{"type":"function","name":"maxClaimPerDay","inputs":[],"outputs":[{"name":"","type":"uint256","internalType":"uint256"}],"stateMutability":"view"},{"type":"function","name":"maxGlobalClaimPerDay","inputs":[],"outputs":[{"name":"","type":"uint256","internalType":"uint256"}],"stateMutability":"view"},{"type":"function","name":"maxMintQty","inputs":[],"outputs":[{"name":"","type":"uint256","internalType":"uint256"}],"stateMutability":"view"},{"type":"function","name":"maxMintsPerCycle","inputs":[],"outputs":[{"name":"","type":"uint256","internalType":"uint256"}],"stateMutability":"view"},{"type":"function","name":"maxNFTSend","inputs":[],"outputs":[{"name":"","type":"uint256","internalType":"uint256"}],"stateMutability":"view"},{"type":"function","name":"minClaimPerDay","inputs":[],"outputs":[{"name":"","type":"uint256","internalType":"uint256"}],"stateMutability":"view"},{"type":"function","name":"minMintQty","inputs":[],"outputs":[{"name":"","type":"uint256","internalType":"uint256"}],"stateMutability":"view"},{"type":"function","name":"mintCycleDays","inputs":[],"outputs":[{"name":"","type":"uint256","internalType":"uint256"}],"stateMutability":"view"},{"type":"function","name":"mintFeePerQty","inputs":[],"outputs":[{"name":"","type":"uint256","internalType":"uint256"}],"stateMutability":"view"},{"type":"function","name":"owner","inputs":[],"outputs":[{"name":"","type":"address","internalType":"address"}],"stateMutability":"view"},{"type":"function","name":"pool","inputs":[],"outputs":[{"name":"startafter","type":"uint256","internalType":"uint256"},{"name":"stakeN","type":"uint256","internalType":"uint256"},{"name":"stakeD","type":"uint256","internalType":"uint256"},{"name":"roiN","type":"uint256","internalType":"uint256"},{"name":"roiD","type":"uint256","internalType":"uint256"},{"name":"roiInt","type":"uint256","internalType":"uint256"},{"name":"roiEnd","type":"uint256","internalType":"uint256"}],"stateMutability":"view"},{"type":"function","name":"poolNFT1","inputs":[],"outputs":[{"name":"roiN","type":"uint256","internalType":"uint256"},{"name":"roiD","type":"uint256","internalType":"uint256"},{"name":"roiInt","type":"uint256","internalType":"uint256"}],"stateMutability":"view"},{"type":"function","name":"poolNFT2","inputs":[],"outputs":[{"name":"roiN","type":"uint256","internalType":"uint256"},{"name":"roiD","type":"uint256","internalType":"uint256"},{"name":"roiInt","type":"uint256","internalType":"uint256"}],"stateMutability":"view"},{"type":"function","name":"rankClause","inputs":[{"name":"","type":"uint256","internalType":"uint256"}],"outputs":[{"name":"direct","type":"uint256","internalType":"uint256"},{"name":"nftAmount","type":"uint256","internalType":"uint256"},{"name":"eRnk","type":"uint256","internalType":"uint256"},{"name":"gRnk","type":"uint256","internalType":"uint256"},{"name":"gPrd","type":"uint256","internalType":"uint256"}],"stateMutability":"view"},{"type":"function","name":"rankforDAO","inputs":[],"outputs":[{"name":"","type":"uint256","internalType":"uint256"}],"stateMutability":"view"},{"type":"function","name":"royalityClause","inputs":[{"name":"","type":"uint256","internalType":"uint256"}],"outputs":[{"name":"rwNum","type":"uint256","internalType":"uint256"},{"name":"rwDen","type":"uint256","internalType":"uint256"},{"name":"rwEnd","type":"uint256","internalType":"uint256"}],"stateMutability":"view"},{"type":"function","name":"setAllowForceTransfer","inputs":[{"name":"_f","type":"bool","internalType":"bool"}],"outputs":[],"stateMutability":"nonpayable"},{"type":"function","name":"setCapping","inputs":[{"name":"_multiple","type":"uint256","internalType":"uint256"},{"name":"_rw","type":"bool","internalType":"bool"},{"name":"_ry","type":"bool","internalType":"bool"},{"name":"_self","type":"bool","internalType":"bool"},{"name":"_yei","type":"bool","internalType":"bool"},{"name":"_val","type":"bool","internalType":"bool"},{"name":"_tour","type":"bool","internalType":"bool"}],"outputs":[],"stateMutability":"nonpayable"},{"type":"function","name":"setClaimPerDay","inputs":[{"name":"_min","type":"uint256","internalType":"uint256"},{"name":"_max","type":"uint256","internalType":"uint256"}],"outputs":[],"stateMutability":"nonpayable"},{"type":"function","name":"setFreeIntervals","inputs":[{"name":"_d","type":"uint256","internalType":"uint256"}],"outputs":[],"stateMutability":"nonpayable"},{"type":"function","name":"setGlobalClaimPerDay","inputs":[{"name":"_ac","type":"uint256","internalType":"uint256"}],"outputs":[],"stateMutability":"nonpayable"},{"type":"function","name":"setMaxMintsPerCycle","inputs":[{"name":"_max","type":"uint256","internalType":"uint256"}],"outputs":[],"stateMutability":"nonpayable"},{"type":"function","name":"setMaxNFTSend","inputs":[{"name":"_d","type":"uint256","internalType":"uint256"}],"outputs":[],"stateMutability":"nonpayable"},{"type":"function","name":"setMintCycleDays","inputs":[{"name":"_d","type":"uint256","internalType":"uint256"}],"outputs":[],"stateMutability":"nonpayable"},{"type":"function","name":"setMintFee","inputs":[{"name":"_fe","type":"uint256","internalType":"uint256"}],"outputs":[],"stateMutability":"nonpayable"},{"type":"function","name":"setMintQty","inputs":[{"name":"_min","type":"uint256","internalType":"uint256"},{"name":"_max","type":"uint256","internalType":"uint256"}],"outputs":[],"stateMutability":"nonpayable"},{"type":"function","name":"setNFTSendPerCycle","inputs":[{"name":"_d","type":"uint256","internalType":"uint256"}],"outputs":[],"stateMutability":"nonpayable"},{"type":"function","name":"setNftPool","inputs":[{"name":"_type","type":"uint256","internalType":"uint256"},{"name":"_roiN","type":"uint256","internalType":"uint256"},{"name":"_roiD","type":"uint256","internalType":"uint256"},{"name":"_roiInt","type":"uint256","internalType":"uint256"}],"outputs":[],"stateMutability":"nonpayable"},{"type":"function","name":"setRoyalityClause","inputs":[{"name":"_rank","type":"uint256","internalType":"uint256"},{"name":"_rwNum","type":"uint256","internalType":"uint256"},{"name":"_rwDen","type":"uint256","internalType":"uint256"},{"name":"_rwEnd","type":"uint256","internalType":"uint256"}],"outputs":[],"stateMutability":"nonpayable"},{"type":"function","name":"setTourClause","inputs":[{"name":"_rank","type":"uint256","internalType":"uint256"},{"name":"_tw","type":"uint256","internalType":"uint256"}],"outputs":[],"stateMutability":"nonpayable"},{"type":"function","name":"setValidatorPool","inputs":[{"name":"_type","type":"uint256","internalType":"uint256"},{"name":"_qty","type":"uint256","internalType":"uint256"},{"name":"_roiN","type":"uint256","internalType":"uint256"},{"name":"_roiD","type":"uint256","internalType":"uint256"},{"name":"_roiInt","type":"uint256","internalType":"uint256"}],"outputs":[],"stateMutability":"nonpayable"},{"type":"function","name":"setclaimCycle","inputs":[{"name":"_d","type":"uint256","internalType":"uint256"}],"outputs":[],"stateMutability":"nonpayable"},{"type":"function","name":"setlevelClause","inputs":[{"name":"lvl","type":"uint256","internalType":"uint256"},{"name":"_rank","type":"uint256","internalType":"uint256"},{"name":"_rpernum","type":"uint256","internalType":"uint256"},{"name":"_rperden","type":"uint256","internalType":"uint256"},{"name":"_ypernum","type":"uint256","internalType":"uint256"},{"name":"_yperden","type":"uint256","internalType":"uint256"}],"outputs":[],"stateMutability":"nonpayable"},{"type":"function","name":"setrankClause","inputs":[{"name":"rnk","type":"uint256","internalType":"uint256"},{"name":"dirc","type":"uint256","internalType":"uint256"},{"name":"nftAmt","type":"uint256","internalType":"uint256"},{"name":"ernk","type":"uint256","internalType":"uint256"},{"name":"grnk","type":"uint256","internalType":"uint256"},{"name":"gprd","type":"uint256","internalType":"uint256"}],"outputs":[],"stateMutability":"nonpayable"},{"type":"function","name":"setrankforDAO","inputs":[{"name":"_r","type":"uint256","internalType":"uint256"}],"outputs":[],"stateMutability":"nonpayable"},{"type":"function","name":"setshutdown","inputs":[{"name":"_shutdown","type":"bool","internalType":"bool"}],"outputs":[],"stateMutability":"nonpayable"},{"type":"function","name":"shutdown","inputs":[],"outputs":[{"name":"","type":"bool","internalType":"bool"}],"stateMutability":"view"},{"type":"function","name":"systemAge","inputs":[],"outputs":[{"name":"","type":"uint256","internalType":"uint256"}],"stateMutability":"view"},{"type":"function","name":"tourClause","inputs":[{"name":"","type":"uint256","internalType":"uint256"}],"outputs":[{"name":"","type":"uint256","internalType":"uint256"}],"stateMutability":"view"},{"type":"function","name":"valExternal","inputs":[],"outputs":[{"name":"qty","type":"uint256","internalType":"uint256"},{"name":"roiN","type":"uint256","internalType":"uint256"},{"name":"roiD","type":"uint256","internalType":"uint256"},{"name":"roiInt","type":"uint256","internalType":"uint256"}],"stateMutability":"view"},{"type":"function","name":"valInternal","inputs":[],"outputs":[{"name":"qty","type":"uint256","internalType":"uint256"},{"name":"roiN","type":"uint256","internalType":"uint256"},{"name":"roiD","type":"uint256","internalType":"uint256"},{"name":"roiInt","type":"uint256","internalType":"uint256"}],"stateMutability":"view"},{"type":"event","name":"EthBurned","inputs":[{"name":"sender","type":"address","indexed":true,"internalType":"address"},{"name":"amount","type":"uint256","indexed":false,"internalType":"uint256"}],"anonymous":false},{"type":"event","name":"EthTransferred","inputs":[{"name":"to","type":"address","indexed":true,"internalType":"address"},{"name":"amount","type":"uint256","indexed":false,"internalType":"uint256"}],"anonymous":false},{"type":"event","name":"HexBaseUpdated","inputs":[{"name":"previousHexBase","type":"address","indexed":true,"internalType":"address"},{"name":"newHexBase","type":"address","indexed":true,"internalType":"address"}],"anonymous":false},{"type":"event","name":"OwnerUpdated","inputs":[{"name":"previousOwner","type":"address","indexed":true,"internalType":"address"},{"name":"newOwner","type":"address","indexed":true,"internalType":"address"}],"anonymous":false},{"type":"error","name":"TargetCallFailed","inputs":[{"name":"selector","type":"bytes4","internalType":"bytes4"}]}],"bytecode":{"object":"0x6080346200099557601f6200344638819003918201601f19168301916001600160401b038311848410176200099a578084926020946040528339810103126200099557516001600160a01b0381169081900362000995578015620009505760018060a01b0319338160015416176001556000541617600055601e601755600160185560016019556002601a5561c350601b55610258601c556003601d556019601e5568878678326eac900000601f55670de0b6b3a764000060205569021e19e0c9bab240000060215560016022556005602b5560ff19602c5416602c5561025860c0620000eb620009f0565b6002815260646020820152600160408201526023606082015260646080820152600160a082015201526002600755606460085560016009556023600a556064600b556001600c55610258600d55605a60406200014662000a39565b60198152600a602082015201526019600e55600a600f55605a60105560406200016e62000a39565b6005815260016020820152610168918291015260056011556001601255601355600160a06200019c620009f0565b600481528260208201528260408201528260608201528260808201528260c0820152015260046014556501010101010165ffffffffffff196015541617601555620001e662000a73565b610258606061014092838152600b6020820152600a60408201520152602355600b602455600a60255561025860265561025860606200022462000a73565b60d28152600b6020820152600a6040820152015260d2602755600b602855600a602955610258602a55620002906200025b620009b0565b6000815260006020820152600060408201526000606082015261270f6080820152600080526004602052604060002062000aa9565b620002d46200029e620009b0565b6007815260196020820152600060408201526000606082015261270f608082015260016000526004602052604060002062000aa9565b62000318620002e2620009b0565b6007815260646020820152600060408201526000606082015261270f608082015260026000526004602052604060002062000aa9565b6200035c62000326620009b0565b600781526101f460208201526003604082015260006060820152601e608082015260036000526004602052604060002062000aa9565b620003a06200036a620009b0565b600781526107d060208201526004604082015260006060820152601e608082015260046000526004602052604060002062000aa9565b620003e5620003ae620009b0565b600781526113886020820152600460408201526004606082015261270f608082015260056000526004602052604060002062000aa9565b6200042a620003f3620009b0565b600781526127106020820152600460408201526004606082015261270f608082015260066000526004602052604060002062000aa9565b6200046f62000438620009b0565b600781526161a86020820152600460408201526004606082015261270f608082015260076000526004602052604060002062000aa9565b620004b26200047d620009b0565b600081526006602082015260016040820152600560608201526001608082015260016000526006602052604060002062000aa9565b620004f5620004c0620009b0565b600081526003602082015260016040820152600560608201526001608082015260026000526006602052604060002062000aa9565b6200053862000503620009b0565b60028152600f6020820152600a6040820152600560608201526001608082015260036000526006602052604060002062000aa9565b6200057b62000546620009b0565b60028152600f6020820152600a6040820152600560608201526001608082015260046000526006602052604060002062000aa9565b620005be62000589620009b0565b60028152600f6020820152600a6040820152600560608201526001608082015260056000526006602052604060002062000aa9565b6200084d620005cc620009b0565b60028152604b90816020820152606460408201526200060960fa918260608201526064608082015260066000526006602052604060002062000aa9565b6200064a62000617620009b0565b60028152836020820152606460408201528260608201526064608082015260076000526006602052604060002062000aa9565b6200068b62000658620009b0565b60028152836020820152606460408201528260608201526064608082015260086000526006602052604060002062000aa9565b620006cc62000699620009b0565b60028152836020820152606460408201528260608201526064608082015260096000526006602052604060002062000aa9565b6200070d620006da620009b0565b600281528360208201526064604082015282606082015260646080820152600a6000526006602052604060002062000aa9565b6200074e6200071b620009b0565b600281528360208201526064604082015282606082015260646080820152600b6000526006602052604060002062000aa9565b6200078f6200075c620009b0565b600281528360208201526064604082015282606082015260646080820152600c6000526006602052604060002062000aa9565b620007d06200079d620009b0565b600281528360208201526064604082015282606082015260646080820152600d6000526006602052604060002062000aa9565b62000811620007de620009b0565b600281528360208201526064604082015282606082015260646080820152600e6000526006602052604060002062000aa9565b6200081b620009b0565b9160028352602083015260646040830152606082015260646080820152600f6000526006602052604060002062000aa9565b620008826200085b620009d0565b60128152600a6020820152602d604082015260036000526005602052604060002062000a58565b620008b762000890620009d0565b60128152600a6020820152605a604082015260056000526005602052604060002062000a58565b620008ed620008c5620009d0565b60098152600a602082015261270f604082015260076000526005602052604060002062000a58565b600360205260327fc3a24b0501bd2c13a7e57f2db4369ec4c223447539fc0724a9d55ac4a06ebd4d5560046000526101f47f83ec6a1f0257b830b5e016457c9cf1435391bf56cc98f369a58a54fe937724655560405161296d908162000ad98239f35b60405162461bcd60e51b815260206004820152601360248201527f6f776e2e696e76616c69642e68657862617365000000000000000000000000006044820152606490fd5b600080fd5b634e487b7160e01b600052604160045260246000fd5b6040519060a082016001600160401b038111838210176200099a57604052565b60405190606082016001600160401b038111838210176200099a57604052565b6040519060e082016001600160401b038111838210176200099a576040528160c06000918281528260208201528260408201528260608201528260808201528260a08201520152565b62000a43620009d0565b90600082526000602083015260006040830152565b90604060029180518455602081015160018501550151910155565b60405190608082016001600160401b038111838210176200099a5760405260006060838281528260208201528260408201520152565b90608060049180518455602081015160018501556040810151600285015560608101516003850155015191015556fe60806040526004361015610018575b361561001657005b005b60003560e01c80630609a0e3146103c857806307175c83146103c357806309307c62146103be5780630b225f1a146103b95780630ea0d222146103b457806312065fe0146103af57806314be92a5146103aa57806315a544ed146103a55780631605aed9146103a057806316f0115b1461039b578063192b48ee146103965780631ef6a864146103915780631f185d161461038c57806326c5adae14610387578063298fc460146103825780633688236d1461037d5780633b9b7955146103785780634151331d14610373578063438fe1921461036e57806344ec16bc146103695780634b62954f1461036457806353423e861461035f578063541d76671461035a57806354541683146103555780635640dbfc14610350578063592a02a81461034b5780635962205f146103465780635a0e9038146103415780636b81c82f1461033c5780636c7deb5d146103375780636f092c5e146103325780637687e3711461032d57806378ef376f146103285780637bc908c6146103235780638da5cb5b1461031e57806391fc8aa8146103195780639319d0b514610314578063991bf5cc1461030f5780639d80ab9b1461030a5780639eb8b44e14610305578063a19841dd14610300578063a1f7f539146102fb578063a88fcea6146102f6578063aebcd32a146102f1578063af0b21d3146102ec578063af484526146102e7578063b49c064c146102e2578063b85f1f8d146102dd578063b90306ad146102d8578063c54e44b0146102d3578063c5a136d4146102ce578063e01ad5fd146102c9578063e0a9bc2b146102c4578063eddd0d9c146102bf578063f27c35c6146102ba578063f2a6bbc7146102b5578063f4fe8e3c146102b0578063fc0e74d1146102ab5763fdc10bc90361000e57611f26565b611f03565b611e59565b611db2565b611cd6565b611c2f565b611c14565b611b75565b611a87565b6119eb565b611938565b61190e565b6118eb565b6118ba565b61189c565b611853565b611835565b61178e565b611760565b61159d565b61152a565b611416565b61136f565b611351565b611328565b61130a565b611263565b61119f565b611173565b6110cc565b610ff2565b610faa565b610f61565b610e29565b610d96565b610d78565b610d04565b610ce6565b610c39565b610b92565b610b74565b610b38565b610af9565b610ac8565b610a04565b610940565b61084f565b61078b565b6106e4565b610693565b610676565b610658565b6105b1565b610595565b610577565b610559565b6104ac565b61048e565b34610489576020366003190112610489576103e96103e461213c565b6125b9565b6103f233612264565b801561040d575b610402906125fa565b610016600435601755565b50600054604051630536340960e21b8152906001600160a01b03906020908390600490829085165afa9081156104845761040292600092610454575b5016331490506103f9565b61047691925060203d811161047d575b61046e818361205b565b81019061207e565b9038610449565b503d610464565b612096565b600080fd5b34610489576000366003190112610489576020601e54604051908152f35b34610489576040366003190112610489576104c86103e461213c565b6104d133612264565b80156104f2575b6104e1906125fa565b610016602435600435602055602155565b50600054604051630536340960e21b8152906001600160a01b03906020908390600490829085165afa908115610484576104e192600092610539575b5016331490506104d8565b61055291925060203d811161047d5761046e818361205b565b903861052e565b34610489576000366003190112610489576020602b54604051908152f35b34610489576000366003190112610489576020601c54604051908152f35b3461048957600036600319011261048957602047604051908152f35b34610489576020366003190112610489576105cd6103e461213c565b6105d633612264565b80156105f1575b6105e6906125fa565b610016600435601c55565b50600054604051630536340960e21b8152906001600160a01b03906020908390600490829085165afa908115610484576105e692600092610638575b5016331490506105dd565b61065191925060203d811161047d5761046e818361205b565b903861062d565b34610489576000366003190112610489576020602154604051908152f35b346104895760003660031901126104895760208054604051908152f35b346104895760003660031901126104895760e0600754600854600954600a54600b5490600c5492600d5494604051968752602087015260408601526060850152608084015260a083015260c0820152f35b34610489576020366003190112610489576107006103e461213c565b61070933612264565b8015610724575b610719906125fa565b61001660043561268a565b50600054604051630536340960e21b8152906001600160a01b03906020908390600490829085165afa908115610484576107199260009261076b575b501633149050610710565b61078491925060203d811161047d5761046e818361205b565b9038610760565b346104895760a0366003190112610489576107a76103e461213c565b6107b033612264565b80156107d7575b6107c0906125fa565b61001660843560643560443560243560043561285c565b50600054604051630536340960e21b8152906001600160a01b03906020908390600490829085165afa908115610484576107c09260009261081e575b5016331490506107b7565b61083791925060203d811161047d5761046e818361205b565b9038610813565b6001600160a01b0381160361048957565b3461048957602080600319360112610489576004908135906108708261083e565b60005481906001600160a01b0316604051634bf9c0ad60e11b815294859182905afa918215610484576108c36108fd936108df9261090f9660009261091d575b506108d190604051938491878301610ae6565b03601f19810184528361205b565b6108d96122fe565b906124a5565b919080610913575b6108f09061232b565b8082518301019101612127565b60405190151581529081906020820190565b0390f35b50815181146108e7565b6108d191925061093990863d881161047d5761046e818361205b565b91906108b0565b34610489576020366003190112610489576000546040516369e8d84b60e11b815290602090829060049082906001600160a01b03165afa8015610484576109a86109cc9161090f936000916109dc575b506109996128d1565b906109a26128e9565b9061257b565b6109c7600435916109c26109bd601e54612644565b612644565b612917565b612677565b6040519081529081906020820190565b6109f4915060203d811161047d5761046e818361205b565b38610990565b8015150361048957565b3461048957602036600319011261048957600435610a21816109fa565b610a2c6103e461213c565b610a3533612264565b8015610a5b575b90610a49610016926125fa565b60ff8019602c54169115151617602c55565b50600054604051630536340960e21b81526001600160a01b0392916020908290600490829087165afa80156104845761001693610a4992600092610aa8575b503391161491925050610a3c565b610ac191925060203d811161047d5761046e818361205b565b9038610a9a565b34610489576000366003190112610489576020601b54604051908152f35b6001600160a01b03909116815260200190565b34610489576000366003190112610489576000546040516001600160a01b039091168152602090f35b6040919493926060820195825260208201520152565b346104895760203660031901126104895760043560005260056020526040600020805461090f6002600184015493015460405193849384610b22565b34610489576000366003190112610489576020601954604051908152f35b3461048957602036600319011261048957610bae6103e461213c565b610bb733612264565b8015610bd2575b610bc7906125fa565b610016600435601855565b50600054604051630536340960e21b8152906001600160a01b03906020908390600490829085165afa90811561048457610bc792600092610c19575b501633149050610bbe565b610c3291925060203d811161047d5761046e818361205b565b9038610c0e565b3461048957604036600319011261048957610c556103e461213c565b610c5e33612264565b8015610c7f575b610c6e906125fa565b610016602435600435601a55601b55565b50600054604051630536340960e21b8152906001600160a01b03906020908390600490829085165afa90811561048457610c6e92600092610cc6575b501633149050610c65565b610cdf91925060203d811161047d5761046e818361205b565b9038610cbb565b34610489576000366003190112610489576020601d54604051908152f35b34610489576020366003190112610489576000546040516369e8d84b60e11b815290602090829060049082906001600160a01b03165afa801561048457610d5c6109cc9161090f936000916109dc57506109996128d1565b60043560005260036020526109c26109bd604060002054612644565b34610489576000366003190112610489576020601854604051908152f35b346104895760003660031901126104895760e060145460155460405191825260ff9081811615156020840152818160081c1615156040840152818160101c1615156060840152818160181c1615156080840152818160201c16151560a084015260281c16151560c0820152f35b60c090600319011261048957600435906024359060443590606435906084359060a43590565b3461048957610e3736610e03565b91610e466103e496949661213c565b610e4f33612264565b8015610ed6575b610e5f906125fa565b6010841015610ea1576100169560405195610e7987611fcf565b8652602086015260408501526060840152608083015260005260066020526040600020612698565b60405162461bcd60e51b815260206004820152600d60248201526c1a5b9d985b1a59081b195d995b609a1b6044820152606490fd5b50600054604051630536340960e21b8152906001600160a01b03906020908390600490829085165afa90811561048457610e5f92600092610f1d575b501633149050610e56565b610f3691925060203d811161047d5761046e818361205b565b9038610f12565b9192608093969594919660a084019784526020840152604083015260608201520152565b346104895760203660031901126104895760043560005260066020526040600020805461090f600183015492600281015490600460038201549101549160405195869586610f3d565b3461048957600036600319011261048957600e54600f549061090f60105460405193849384610b22565b60809060031901126104895760043590602435906044359060643590565b346104895761100036610fd4565b9261100f6103e493929361213c565b61101833612264565b8015611060575b9061102b6002926125fa565b611033612815565b506001811461104f575b1461104457005b601155601255601355005b82600e5583600f558460105561103d565b50600054604051630536340960e21b81526001600160a01b0392916020908290600490829087165afa80156104845760029361102b926000926110ac575b50339116149192505061101f565b6110c591925060203d811161047d5761046e818361205b565b903861109e565b34610489576020366003190112610489576110e86103e461213c565b6110f133612264565b801561110c575b611101906125fa565b610016600435601d55565b50600054604051630536340960e21b8152906001600160a01b03906020908390600490829085165afa9081156104845761110192600092611153575b5016331490506110f8565b61116c91925060203d811161047d5761046e818361205b565b9038611148565b346104895760203660031901126104895760043560005260036020526020604060002054604051908152f35b34610489576020366003190112610489576004356111bc816109fa565b6111c76103e461213c565b6111d033612264565b80156111f6575b906111e4610016926125fa565b60ff8019601654169115151617601655565b50600054604051630536340960e21b81526001600160a01b0392916020908290600490829087165afa801561048457610016936111e492600092611243575b5033911614919250506111d7565b61125c91925060203d811161047d5761046e818361205b565b9038611235565b346104895760203660031901126104895761127f6103e461213c565b61128833612264565b80156112a3575b611298906125fa565b610016600435602255565b50600054604051630536340960e21b8152906001600160a01b03906020908390600490829085165afa90811561048457611298926000926112ea575b50163314905061128f565b61130391925060203d811161047d5761046e818361205b565b90386112df565b34610489576000366003190112610489576020602254604051908152f35b34610489576000366003190112610489576001546040516001600160a01b039091168152602090f35b34610489576000366003190112610489576020601f54604051908152f35b346104895760203660031901126104895761138b6103e461213c565b61139433612264565b80156113af575b6113a4906125fa565b610016600435601955565b50600054604051630536340960e21b8152906001600160a01b03906020908390600490829085165afa908115610484576113a4926000926113f6575b50163314905061139b565b61140f91925060203d811161047d5761046e818361205b565b90386113eb565b346104895760e036600319011261048957602435611433816109fa565b60443561143f816109fa565b60643561144b816109fa565b608435611457816109fa565b60a43591611464836109fa565b60c43593611471856109fa565b61147c6103e461213c565b61148533612264565b80156114a1575b95611499610016976125fa565b6004356126c7565b50600054604051630536340960e21b81526001600160a01b039791602090829060049082908c165afa80156104845761001698611499926000926114ee575b50339116149197505061148c565b61150791925060203d811161047d5761046e818361205b565b90386114e0565b9094939260609260808301968352602083015260408201520152565b34610489576000366003190112610489576023546024549061090f602554602654906040519485948561150e565b6102a0810192916000915b6007831061157057505050565b60019060608351918251815260209283810151848301526040809101519082015201920192019190611563565b34610489576000366003190112610489576040516115ba81611fef565b60005b60e0811061174b5761090f6115d06120a2565b600160005260056020526116087f1471eb6eb2c5e789fc3de43f8ce62938c7d1836ec861730447e2ada8fd81017b612834565b612834565b81526002600052600560205261163d7f89832631fb3c3307a103ba2c84ab569c64d6182a18893dcd163f0f1c2090733a612834565b602082015261165a61160360036000526005602052604060002090565b6040820152600460005260056020526116927f3eec716f11ba9e820c81ca75eb978ffb45831ef8b7a53e5e422c26008e1ca6d5612834565b6060820152600560008190526020526116ca7f458b30c2d72bfd2c6317304a4594ecbafe5f729d3111b65fdc3a33bd48e5432d612834565b6080820152600660005260056020526117027f069400f22b28c6c362558d92f66163cec5671cba50b61abd2eecfcd0eaeac518612834565b60a08201526007600052600560205261173a7feddb6698d7c569ff62ff64f1f1492bf14a54594835ba0faac91f84b4f5d81460612834565b60c082015260405191829182611558565b602090611756612815565b81840152016115bd565b34610489576000366003190112610489576027546028549061090f602954602a54906040519485948561150e565b346104895760003660031901126104895760005460405163d1f956b160e01b815290602090829060049082906001600160a01b03165afa9081156104845761090f916109cc91600091611817575b506040516117e981612025565b601381527267657464656c656761746f72436f756e74282960681b60208201526118116120cc565b9161257b565b61182f915060203d811161047d5761046e818361205b565b386117dc565b34610489576000366003190112610489576020601a54604051908152f35b346104895760203660031901126104895760043560005260046020526040600020805461090f600183015492600281015490600460038201549101549160405195869586610f3d565b34610489576000366003190112610489576020601754604051908152f35b346104895760203660031901126104895760206118e16004356118dc8161083e565b612264565b6040519015158152f35b3461048957600036600319011261048957602060ff602c54166040519015158152f35b34610489576000366003190112610489576011546012549061090f60135460405193849384610b22565b3461048957602036600319011261048957600054604051630536340960e21b8152906001600160a01b03906020908390600490829085165afa918215610484576000926119cb575b5033911603611994576100166004356123d4565b60405162461bcd60e51b815260206004820152600f60248201526e6f776e2e6e6f6e617574682e44414f60881b6044820152606490fd5b6119e491925060203d811161047d5761046e818361205b565b9038611980565b3461048957602036600319011261048957600435611a088161083e565b803b6000611a15826120b1565b92611a23604051948561205b565b82845260208401903c602d815110611a4c57602a61090f91015160601c60405191829182610ae6565b60405162461bcd60e51b81526020600482015260136024820152724e6f742061206d696e696d616c2070726f787960681b6044820152606490fd5b3461048957611a9536610fd4565b90611aa46103e494939461213c565b611aad33612264565b8015611b09575b92611ac06002946125fa565b611acc600882106127be565b60405194611ad98661200a565b85526020850191825260408501928352600052600560205260406000209351845551600184015551910155600080f35b50600054604051630536340960e21b81526001600160a01b0394916020908290600490829089165afa801561048457600295611ac092600092611b55575b503391161491945050611ab4565b611b6e91925060203d811161047d5761046e818361205b565b9038611b47565b34610489576020806003193601126104895760048035611b948161083e565b60005460405163d1f956b160e01b81526001600160a01b03949093909182918591829088165afa9081156104845761090f946108fd94600093611bf5575b506040519316818401528252611be782612025565b611bef612370565b9061253f565b611c0d919350823d841161047d5761046e818361205b565b9138611bd2565b346104895760003660031901126104895760206118e161213c565b3461048957602036600319011261048957611c4b6103e461213c565b611c5433612264565b8015611c6f575b611c64906125fa565b610016600435601e55565b50600054604051630536340960e21b8152906001600160a01b03906020908390600490829085165afa90811561048457611c6492600092611cb6575b501633149050611c5b565b611ccf91925060203d811161047d5761046e818361205b565b9038611cab565b3461048957611ce436610e03565b91611cf36103e496949661213c565b611cfc33612264565b8015611d45575b95611d10610016976125fa565b60405195611d1d87611fcf565b8652602086015260408501526060840152608083015260005260046020526040600020612698565b50600054604051630536340960e21b81526001600160a01b039791602090829060049082908c165afa80156104845761001698611d1092600092611d92575b503391161491975050611d03565b611dab91925060203d811161047d5761046e818361205b565b9038611d84565b3461048957602036600319011261048957611dce6103e461213c565b611dd733612264565b8015611df2575b611de7906125fa565b610016600435602b55565b50600054604051630536340960e21b8152906001600160a01b03906020908390600490829085165afa90811561048457611de792600092611e39575b501633149050611dde565b611e5291925060203d811161047d5761046e818361205b565b9038611e2e565b3461048957604036600319011261048957611e756103e461213c565b611e7e33612264565b8015611e9c575b611e8e906125fa565b6100166024356004356127f9565b50600054604051630536340960e21b8152906001600160a01b03906020908390600490829085165afa90811561048457611e8e92600092611ee3575b501633149050611e85565b611efc91925060203d811161047d5761046e818361205b565b9038611ed8565b3461048957600036600319011261048957602060ff601654166040519015158152f35b346104895760003660031901126104895760005460405163111ea8c160e21b815290602090829060049082906001600160a01b03165afa9081156104845761090f916109cc91600091611f9b575b50604051611f8181612025565b6005815264616765282960d81b60208201526118116120cc565b611fb3915060203d811161047d5761046e818361205b565b38611f74565b634e487b7160e01b600052604160045260246000fd5b60a081019081106001600160401b03821117611fea57604052565b611fb9565b60e081019081106001600160401b03821117611fea57604052565b606081019081106001600160401b03821117611fea57604052565b604081019081106001600160401b03821117611fea57604052565b602081019081106001600160401b03821117611fea57604052565b601f909101601f19168101906001600160401b03821190821017611fea57604052565b9081602091031261048957516120938161083e565b90565b6040513d6000823e3d90fd5b604051906120af82611fef565b565b6001600160401b038111611fea57601f01601f191660200190565b604051906120d982612040565b60008252565b156120e657565b60405162461bcd60e51b81526020600482015260196024820152781bdddb8b9cd8599959dd585c990b98d85b1b0b99985a5b1959603a1b6044820152606490fd5b908160209103126104895751612093816109fa565b600054604051634bf9c0ad60e11b8152906020908190839060049082906001600160a01b03165afa91821561048457612093926121b2916000916121cd575b5060405161218881612025565b6008815267697353616665282960c01b84820152604051916121a983612040565b600083526124a5565b9190806121c3575b6108f0906120df565b50815181146121ba565b6121e49150833d851161047d5761046e818361205b565b3861217b565b604051906121f782612025565b601582527469735365637572654261736528616464726573732960581b6020830152565b1561222257565b60405162461bcd60e51b815260206004820152601a6024820152791bdddb8b9cd958dd5c9958985cd94b98d85b1b0b99985a5b195960321b6044820152606490fd5b6000546001600160a01b0316604051918291634bf9c0ad60e11b835282600460209485935afa92831561048457612093936122c0926108c3926000926122db575b506122b890604051938491878301610ae6565b6108d96121ea565b9190806122d1575b6108f09061221b565b50815181146122c8565b6122b89192506122f790863d881161047d5761046e818361205b565b91906122a5565b6040519061230b82612025565b601182527069735369676e657228616464726573732960781b6020830152565b1561233257565b60405162461bcd60e51b81526020600482015260166024820152751bdddb8b9cda59db995c8b98d85b1b0b99985a5b195960521b6044820152606490fd5b6040519061237d82612025565b6018825277697364656c656761746f724e6f646528616464726573732960401b6020830152565b3d156123cf573d906123b5826120b1565b916123c3604051938461205b565b82523d6000602084013e565b606090565b600080546040516311be646b60e21b815290602090829060049082906001600160a01b03165afa908115610484578284819382938391612487575b505af161241a6123a4565b50156124505760405190815233907fcdcc745fe377b103b45fa0cec23ae3ef93d6fc6a84a01f0d18c40b354dd1d5d890602090a2565b60405162461bcd60e51b815260206004820152600f60248201526e1bdddb8b989d5c9b8b99985a5b1959608a1b6044820152606490fd5b61249f915060203d811161047d5761046e818361205b565b3861240f565b9190823b15612526578051906020918263ffffffff60e01b92012016916040519180830193845281519160005b8381106125125750505091816124ff6024826000979596889701878382015203600481018452018261205b565b5191620dbba0fa61250e6123a4565b9091565b8181018301518582016024015282016124d2565b50505060009060405161253881612040565b6000815290565b929161254d916000946124a5565b9080612570575b61255b5750565b61209391925060208082518301019101612127565b506020815114612554565b9291612589916000946124a5565b90806125ae575b6125975750565b909150602081805181010312610489576020015190565b506020815114612590565b156125c057565b60405162461bcd60e51b81526020600482015260126024820152716f776e2e696e76616c69642e69735361666560701b6044820152606490fd5b1561260157565b60405162461bcd60e51b815260206004820152601b60248201527a6f776e2e6e6f6e617574682e44414f6f725365637572656261736560281b6044820152606490fd5b90670de0b6b3a76400009182810292818404149015171561266157565b634e487b7160e01b600052601160045260246000fd5b8181029291811591840414171561266157565b61269390612644565b601f55565b906080600491805184556020810151600185015560408101516002850155606081015160038501550151910155565b61279f946120af9794612738612780956127639460c09a96604051906126ec82611fef565b8282521515928360208301521515948560408301521515958660608301521515978860808301521515998a60a083015215159b8c91015260145560ff8019601554169115151617601555565b6015805462ffff00191660089290921b61ff00169190911791151560101b62ff000016919091179055565b63ff00000060155491151560181b169063ff000000191617601555565b6015805460ff60201b191691151560201b60ff60201b16919091179055565b6015805460ff60281b191691151560281b60ff60281b16919091179055565b156127c557565b60405162461bcd60e51b815260206004820152600c60248201526b696e76616c69642072616e6b60a01b6044820152606490fd5b612805600882106127be565b6000526003602052604060002055565b604051906128228261200a565b60006040838281528260208201520152565b906040516128418161200a565b60406002829480548452600181015460208501520154910152565b6040516080810191906001600160401b03831181841017611fea57606087916002946040528581528660208201528760408201520152600181146128bc575b146128a7575b50505050565b602755602855602955602a55388080806128a1565b8260235583602455846025558560265561289b565b6040516128dd81612040565b60008152906000368137565b604051906128f682612025565b60128252716f7a6f6e655072696365496e55534454282960701b6020830152565b8115612921570490565b634e487b7160e01b600052601260045260246000fdfea264697066735822122090a762038d31c82dfef6997fce011f200d20f0ae2352ab9dca029910f0d8c65864736f6c63430008140033","linkReferences":{}},"methodIdentifiers":{"Burn(uint256)":"b90306ad","NFTSendPerCycle()":"438fe192","_delegatorCount()":"a1f7f539","_getImplementation(address)":"c54e44b0","_isDelegatorNode(address)":"e01ad5fd","_isSafe()":"e0a9bc2b","_isSecureBase(address)":"af484526","_isSigner(address)":"1f185d16","allowForceTransfer()":"b49c064c","capping()":"5640dbfc","computeMintValue(uint256)":"26c5adae","computeTour(uint256)":"541d7667","eachclaimCycle()":"7bc908c6","freeIntervals()":"af0b21d3","getBalance()":"12065fe0","getBatchRoyaltyClauses()":"9eb8b44e","getHexbase()":"3b9b7955","levelClause(uint256)":"5962205f","maxClaimPerDay()":"15a544ed","maxGlobalClaimPerDay()":"91fc8aa8","maxMintQty()":"3688236d","maxMintsPerCycle()":"53423e86","maxNFTSend()":"54541683","minClaimPerDay()":"1605aed9","minMintQty()":"a88fcea6","mintCycleDays()":"0ea0d222","mintFeePerQty()":"07175c83","owner()":"8da5cb5b","pool()":"16f0115b","poolNFT1()":"5a0e9038","poolNFT2()":"b85f1f8d","rankClause(uint256)":"aebcd32a","rankforDAO()":"0b225f1a","royalityClause(uint256)":"4151331d","setAllowForceTransfer(bool)":"298fc460","setCapping(uint256,bool,bool,bool,bool,bool,bool)":"991bf5cc","setClaimPerDay(uint256,uint256)":"09307c62","setFreeIntervals(uint256)":"0609a0e3","setGlobalClaimPerDay(uint256)":"192b48ee","setMaxMintsPerCycle(uint256)":"6c7deb5d","setMaxNFTSend(uint256)":"44ec16bc","setMintCycleDays(uint256)":"14be92a5","setMintFee(uint256)":"eddd0d9c","setMintQty(uint256,uint256)":"4b62954f","setNFTSendPerCycle(uint256)":"9319d0b5","setNftPool(uint256,uint256,uint256,uint256)":"6b81c82f","setRoyalityClause(uint256,uint256,uint256,uint256)":"c5a136d4","setTourClause(uint256,uint256)":"f4fe8e3c","setValidatorPool(uint256,uint256,uint256,uint256,uint256)":"1ef6a864","setclaimCycle(uint256)":"78ef376f","setlevelClause(uint256,uint256,uint256,uint256,uint256,uint256)":"592a02a8","setrankClause(uint256,uint256,uint256,uint256,uint256,uint256)":"f27c35c6","setrankforDAO(uint256)":"f2a6bbc7","setshutdown(bool)":"7687e371","shutdown()":"fc0e74d1","systemAge()":"fdc10bc9","tourClause(uint256)":"6f092c5e","valExternal()":"a19841dd","valInternal()":"9d80ab9b"},"id":36}