{"abi":[{"type":"constructor","inputs":[{"name":"_hex","type":"address","internalType":"address"}],"stateMutability":"nonpayable"},{"type":"fallback","stateMutability":"payable"},{"type":"receive","stateMutability":"payable"},{"type":"function","name":"Burn","inputs":[{"name":"amount","type":"uint256","internalType":"uint256"}],"outputs":[],"stateMutability":"nonpayable"},{"type":"function","name":"NFTAgePointer","inputs":[],"outputs":[{"name":"","type":"uint256","internalType":"uint256"}],"stateMutability":"view"},{"type":"function","name":"NFTSendPerCycle","inputs":[],"outputs":[{"name":"","type":"uint256","internalType":"uint256"}],"stateMutability":"view"},{"type":"function","name":"StartAgePointerLEQ","inputs":[],"outputs":[{"name":"","type":"uint256","internalType":"uint256"}],"stateMutability":"view"},{"type":"function","name":"_delegatorCount","inputs":[],"outputs":[{"name":"","type":"uint256","internalType":"uint256"}],"stateMutability":"view"},{"type":"function","name":"_getImplementation","inputs":[{"name":"clone","type":"address","internalType":"address"}],"outputs":[{"name":"impl","type":"address","internalType":"address"}],"stateMutability":"view"},{"type":"function","name":"_isDelegatorNode","inputs":[{"name":"sender","type":"address","internalType":"address"}],"outputs":[{"name":"","type":"bool","internalType":"bool"}],"stateMutability":"view"},{"type":"function","name":"_isSafe","inputs":[],"outputs":[{"name":"","type":"bool","internalType":"bool"}],"stateMutability":"view"},{"type":"function","name":"_isSecureBase","inputs":[{"name":"sender","type":"address","internalType":"address"}],"outputs":[{"name":"","type":"bool","internalType":"bool"}],"stateMutability":"view"},{"type":"function","name":"_isSigner","inputs":[{"name":"sender","type":"address","internalType":"address"}],"outputs":[{"name":"","type":"bool","internalType":"bool"}],"stateMutability":"view"},{"type":"function","name":"allowForceTransfer","inputs":[],"outputs":[{"name":"","type":"bool","internalType":"bool"}],"stateMutability":"view"},{"type":"function","name":"capping","inputs":[],"outputs":[{"name":"multiple","type":"uint256","internalType":"uint256"},{"name":"rw","type":"bool","internalType":"bool"},{"name":"ry","type":"bool","internalType":"bool"},{"name":"self","type":"bool","internalType":"bool"},{"name":"yei","type":"bool","internalType":"bool"}],"stateMutability":"view"},{"type":"function","name":"computeDollarToOzone","inputs":[{"name":"_dollar","type":"uint256","internalType":"uint256"}],"outputs":[{"name":"","type":"uint256","internalType":"uint256"}],"stateMutability":"view"},{"type":"function","name":"computeMintValue","inputs":[{"name":"_qty","type":"uint256","internalType":"uint256"}],"outputs":[{"name":"","type":"uint256","internalType":"uint256"}],"stateMutability":"view"},{"type":"function","name":"computeOzoneToDollar","inputs":[{"name":"_ozone","type":"uint256","internalType":"uint256"}],"outputs":[{"name":"","type":"uint256","internalType":"uint256"}],"stateMutability":"view"},{"type":"function","name":"computeTour","inputs":[{"name":"_r","type":"uint256","internalType":"uint256"}],"outputs":[{"name":"","type":"uint256","internalType":"uint256"}],"stateMutability":"view"},{"type":"function","name":"eachclaimCycle","inputs":[],"outputs":[{"name":"","type":"uint256","internalType":"uint256"}],"stateMutability":"view"},{"type":"function","name":"freeIntervals","inputs":[],"outputs":[{"name":"","type":"uint256","internalType":"uint256"}],"stateMutability":"view"},{"type":"function","name":"getBalance","inputs":[],"outputs":[{"name":"","type":"uint256","internalType":"uint256"}],"stateMutability":"view"},{"type":"function","name":"getBatchRoyaltyClauses","inputs":[],"outputs":[{"name":"clauses","type":"tuple[7]","internalType":"struct lib741Rules.RoyalityStr[7]","components":[{"name":"rwNum","type":"uint256","internalType":"uint256"},{"name":"rwDen","type":"uint256","internalType":"uint256"},{"name":"rwEnd","type":"uint256","internalType":"uint256"}]}],"stateMutability":"view"},{"type":"function","name":"getHexbase","inputs":[],"outputs":[{"name":"","type":"address","internalType":"address"}],"stateMutability":"view"},{"type":"function","name":"getNftPool","inputs":[{"name":"_type","type":"uint256","internalType":"uint256"},{"name":"_mintage","type":"uint256","internalType":"uint256"}],"outputs":[{"name":"_startfrom","type":"uint256","internalType":"uint256"},{"name":"_roiN","type":"uint256","internalType":"uint256"},{"name":"_roiD","type":"uint256","internalType":"uint256"},{"name":"_roiInt","type":"uint256","internalType":"uint256"}],"stateMutability":"nonpayable"},{"type":"function","name":"levelClause","inputs":[{"name":"","type":"uint256","internalType":"uint256"}],"outputs":[{"name":"rank","type":"uint256","internalType":"uint256"},{"name":"rwNum","type":"uint256","internalType":"uint256"},{"name":"rwrDen","type":"uint256","internalType":"uint256"},{"name":"yeiNum","type":"uint256","internalType":"uint256"},{"name":"yeiDen","type":"uint256","internalType":"uint256"}],"stateMutability":"view"},{"type":"function","name":"maxClaimPerDay","inputs":[],"outputs":[{"name":"","type":"uint256","internalType":"uint256"}],"stateMutability":"view"},{"type":"function","name":"maxGlobalClaimPerDay","inputs":[],"outputs":[{"name":"","type":"uint256","internalType":"uint256"}],"stateMutability":"view"},{"type":"function","name":"maxMintQty","inputs":[],"outputs":[{"name":"","type":"uint256","internalType":"uint256"}],"stateMutability":"view"},{"type":"function","name":"maxMintsPerCycle","inputs":[],"outputs":[{"name":"","type":"uint256","internalType":"uint256"}],"stateMutability":"view"},{"type":"function","name":"maxNFTSend","inputs":[],"outputs":[{"name":"","type":"uint256","internalType":"uint256"}],"stateMutability":"view"},{"type":"function","name":"maxVaultSend","inputs":[],"outputs":[{"name":"","type":"uint256","internalType":"uint256"}],"stateMutability":"view"},{"type":"function","name":"minClaimPerDay","inputs":[],"outputs":[{"name":"","type":"uint256","internalType":"uint256"}],"stateMutability":"view"},{"type":"function","name":"minMintQty","inputs":[],"outputs":[{"name":"","type":"uint256","internalType":"uint256"}],"stateMutability":"view"},{"type":"function","name":"mintCycleDays","inputs":[],"outputs":[{"name":"","type":"uint256","internalType":"uint256"}],"stateMutability":"view"},{"type":"function","name":"mintFeePerQty","inputs":[],"outputs":[{"name":"","type":"uint256","internalType":"uint256"}],"stateMutability":"view"},{"type":"function","name":"owner","inputs":[],"outputs":[{"name":"","type":"address","internalType":"address"}],"stateMutability":"view"},{"type":"function","name":"pool","inputs":[],"outputs":[{"name":"startafter","type":"uint256","internalType":"uint256"},{"name":"stakeN","type":"uint256","internalType":"uint256"},{"name":"stakeD","type":"uint256","internalType":"uint256"},{"name":"roiN","type":"uint256","internalType":"uint256"},{"name":"roiD","type":"uint256","internalType":"uint256"},{"name":"roiInt","type":"uint256","internalType":"uint256"},{"name":"roiEnd","type":"uint256","internalType":"uint256"}],"stateMutability":"view"},{"type":"function","name":"poolNFT1","inputs":[],"outputs":[{"name":"roiN","type":"uint256","internalType":"uint256"},{"name":"roiD","type":"uint256","internalType":"uint256"},{"name":"roiInt","type":"uint256","internalType":"uint256"},{"name":"startfrom","type":"uint256","internalType":"uint256"}],"stateMutability":"view"},{"type":"function","name":"poolNFT2","inputs":[],"outputs":[{"name":"roiN","type":"uint256","internalType":"uint256"},{"name":"roiD","type":"uint256","internalType":"uint256"},{"name":"roiInt","type":"uint256","internalType":"uint256"},{"name":"startfrom","type":"uint256","internalType":"uint256"}],"stateMutability":"view"},{"type":"function","name":"rankClause","inputs":[{"name":"","type":"uint256","internalType":"uint256"}],"outputs":[{"name":"direct","type":"uint256","internalType":"uint256"},{"name":"nftAmount","type":"uint256","internalType":"uint256"},{"name":"eRnk","type":"uint256","internalType":"uint256"},{"name":"gRnk","type":"uint256","internalType":"uint256"},{"name":"gPrd","type":"uint256","internalType":"uint256"}],"stateMutability":"view"},{"type":"function","name":"rankforDAO","inputs":[],"outputs":[{"name":"","type":"uint256","internalType":"uint256"}],"stateMutability":"view"},{"type":"function","name":"royalityClause","inputs":[{"name":"","type":"uint256","internalType":"uint256"}],"outputs":[{"name":"rwNum","type":"uint256","internalType":"uint256"},{"name":"rwDen","type":"uint256","internalType":"uint256"},{"name":"rwEnd","type":"uint256","internalType":"uint256"}],"stateMutability":"view"},{"type":"function","name":"setAllowForceTransfer","inputs":[{"name":"_f","type":"bool","internalType":"bool"}],"outputs":[],"stateMutability":"nonpayable"},{"type":"function","name":"setCapping","inputs":[{"name":"_multiple","type":"uint256","internalType":"uint256"},{"name":"_rw","type":"bool","internalType":"bool"},{"name":"_ry","type":"bool","internalType":"bool"},{"name":"_self","type":"bool","internalType":"bool"},{"name":"_yei","type":"bool","internalType":"bool"}],"outputs":[],"stateMutability":"nonpayable"},{"type":"function","name":"setClaimPerDay","inputs":[{"name":"_min","type":"uint256","internalType":"uint256"},{"name":"_max","type":"uint256","internalType":"uint256"}],"outputs":[],"stateMutability":"nonpayable"},{"type":"function","name":"setCoinPool","inputs":[{"name":"_start","type":"uint256","internalType":"uint256"},{"name":"_stakeN","type":"uint256","internalType":"uint256"},{"name":"_stakeD","type":"uint256","internalType":"uint256"},{"name":"_roiN","type":"uint256","internalType":"uint256"},{"name":"_roiD","type":"uint256","internalType":"uint256"},{"name":"_roiInt","type":"uint256","internalType":"uint256"},{"name":"_roiEnd","type":"uint256","internalType":"uint256"}],"outputs":[],"stateMutability":"nonpayable"},{"type":"function","name":"setFreeIntervals","inputs":[{"name":"_d","type":"uint256","internalType":"uint256"}],"outputs":[],"stateMutability":"nonpayable"},{"type":"function","name":"setGlobalClaimPerDay","inputs":[{"name":"_ac","type":"uint256","internalType":"uint256"}],"outputs":[],"stateMutability":"nonpayable"},{"type":"function","name":"setMaxMintsPerCycle","inputs":[{"name":"_max","type":"uint256","internalType":"uint256"}],"outputs":[],"stateMutability":"nonpayable"},{"type":"function","name":"setMaxNFTSend","inputs":[{"name":"_d","type":"uint256","internalType":"uint256"}],"outputs":[],"stateMutability":"nonpayable"},{"type":"function","name":"setMintCycleDays","inputs":[{"name":"_d","type":"uint256","internalType":"uint256"}],"outputs":[],"stateMutability":"nonpayable"},{"type":"function","name":"setMintFee","inputs":[{"name":"_fe","type":"uint256","internalType":"uint256"}],"outputs":[],"stateMutability":"nonpayable"},{"type":"function","name":"setMintQty","inputs":[{"name":"_min","type":"uint256","internalType":"uint256"},{"name":"_max","type":"uint256","internalType":"uint256"}],"outputs":[],"stateMutability":"nonpayable"},{"type":"function","name":"setNFTAgePointer","inputs":[{"name":"_point","type":"uint256","internalType":"uint256"},{"name":"_leq","type":"uint256","internalType":"uint256"}],"outputs":[],"stateMutability":"nonpayable"},{"type":"function","name":"setNFTSendPerCycle","inputs":[{"name":"_d","type":"uint256","internalType":"uint256"}],"outputs":[],"stateMutability":"nonpayable"},{"type":"function","name":"setNftPool","inputs":[{"name":"_type","type":"uint256","internalType":"uint256"},{"name":"_roiN","type":"uint256","internalType":"uint256"},{"name":"_roiD","type":"uint256","internalType":"uint256"},{"name":"_roiInt","type":"uint256","internalType":"uint256"},{"name":"_startfrom","type":"uint256","internalType":"uint256"}],"outputs":[],"stateMutability":"nonpayable"},{"type":"function","name":"setRoyalityClause","inputs":[{"name":"_rank","type":"uint256","internalType":"uint256"},{"name":"_rwNum","type":"uint256","internalType":"uint256"},{"name":"_rwDen","type":"uint256","internalType":"uint256"},{"name":"_rwEnd","type":"uint256","internalType":"uint256"}],"outputs":[],"stateMutability":"nonpayable"},{"type":"function","name":"setTourClause","inputs":[{"name":"_rank","type":"uint256","internalType":"uint256"},{"name":"_tw","type":"uint256","internalType":"uint256"}],"outputs":[],"stateMutability":"nonpayable"},{"type":"function","name":"setValidatorPool","inputs":[{"name":"_type","type":"uint256","internalType":"uint256"},{"name":"_qty","type":"uint256","internalType":"uint256"},{"name":"_roiN","type":"uint256","internalType":"uint256"},{"name":"_roiD","type":"uint256","internalType":"uint256"},{"name":"_roiInt","type":"uint256","internalType":"uint256"}],"outputs":[],"stateMutability":"nonpayable"},{"type":"function","name":"setVaultData","inputs":[{"name":"_d","type":"uint256","internalType":"uint256"},{"name":"_v","type":"uint256","internalType":"uint256"},{"name":"_c","type":"uint256","internalType":"uint256"}],"outputs":[],"stateMutability":"nonpayable"},{"type":"function","name":"setclaimCycle","inputs":[{"name":"_d","type":"uint256","internalType":"uint256"}],"outputs":[],"stateMutability":"nonpayable"},{"type":"function","name":"setlevelClause","inputs":[{"name":"lvl","type":"uint256","internalType":"uint256"},{"name":"_rank","type":"uint256","internalType":"uint256"},{"name":"_rpernum","type":"uint256","internalType":"uint256"},{"name":"_rperden","type":"uint256","internalType":"uint256"},{"name":"_ypernum","type":"uint256","internalType":"uint256"},{"name":"_yperden","type":"uint256","internalType":"uint256"}],"outputs":[],"stateMutability":"nonpayable"},{"type":"function","name":"setrankClause","inputs":[{"name":"rnk","type":"uint256","internalType":"uint256"},{"name":"dirc","type":"uint256","internalType":"uint256"},{"name":"nftAmt","type":"uint256","internalType":"uint256"},{"name":"ernk","type":"uint256","internalType":"uint256"},{"name":"grnk","type":"uint256","internalType":"uint256"},{"name":"gprd","type":"uint256","internalType":"uint256"}],"outputs":[],"stateMutability":"nonpayable"},{"type":"function","name":"setrankforDAO","inputs":[{"name":"_r","type":"uint256","internalType":"uint256"}],"outputs":[],"stateMutability":"nonpayable"},{"type":"function","name":"setshutdown","inputs":[{"name":"_shutdown","type":"bool","internalType":"bool"}],"outputs":[],"stateMutability":"nonpayable"},{"type":"function","name":"shutdown","inputs":[],"outputs":[{"name":"","type":"bool","internalType":"bool"}],"stateMutability":"view"},{"type":"function","name":"systemAge","inputs":[],"outputs":[{"name":"","type":"uint256","internalType":"uint256"}],"stateMutability":"view"},{"type":"function","name":"tourClause","inputs":[{"name":"","type":"uint256","internalType":"uint256"}],"outputs":[{"name":"","type":"uint256","internalType":"uint256"}],"stateMutability":"view"},{"type":"function","name":"valExternal","inputs":[],"outputs":[{"name":"qtyORmul","type":"uint256","internalType":"uint256"},{"name":"roiN","type":"uint256","internalType":"uint256"},{"name":"roiD","type":"uint256","internalType":"uint256"},{"name":"roiInt","type":"uint256","internalType":"uint256"}],"stateMutability":"view"},{"type":"function","name":"valInternal","inputs":[],"outputs":[{"name":"qtyORmul","type":"uint256","internalType":"uint256"},{"name":"roiN","type":"uint256","internalType":"uint256"},{"name":"roiD","type":"uint256","internalType":"uint256"},{"name":"roiInt","type":"uint256","internalType":"uint256"}],"stateMutability":"view"},{"type":"function","name":"vault","inputs":[],"outputs":[{"name":"qtyORmul","type":"uint256","internalType":"uint256"},{"name":"roiN","type":"uint256","internalType":"uint256"},{"name":"roiD","type":"uint256","internalType":"uint256"},{"name":"roiInt","type":"uint256","internalType":"uint256"}],"stateMutability":"view"},{"type":"function","name":"vaultOnStakeAmt","inputs":[],"outputs":[{"name":"","type":"uint256","internalType":"uint256"}],"stateMutability":"view"},{"type":"function","name":"vaultSendPerCycle","inputs":[],"outputs":[{"name":"","type":"uint256","internalType":"uint256"}],"stateMutability":"view"},{"type":"event","name":"EthBurned","inputs":[{"name":"sender","type":"address","indexed":true,"internalType":"address"},{"name":"amount","type":"uint256","indexed":false,"internalType":"uint256"}],"anonymous":false},{"type":"event","name":"EthTransferred","inputs":[{"name":"to","type":"address","indexed":true,"internalType":"address"},{"name":"amount","type":"uint256","indexed":false,"internalType":"uint256"}],"anonymous":false},{"type":"event","name":"HexBaseUpdated","inputs":[{"name":"previousHexBase","type":"address","indexed":true,"internalType":"address"},{"name":"newHexBase","type":"address","indexed":true,"internalType":"address"}],"anonymous":false},{"type":"event","name":"OwnerUpdated","inputs":[{"name":"previousOwner","type":"address","indexed":true,"internalType":"address"},{"name":"newOwner","type":"address","indexed":true,"internalType":"address"}],"anonymous":false},{"type":"error","name":"CallFailed","inputs":[]},{"type":"error","name":"InvalidAddress","inputs":[]},{"type":"error","name":"InvalidState","inputs":[]},{"type":"error","name":"NotAuthorized","inputs":[]},{"type":"error","name":"NotSafe","inputs":[]},{"type":"error","name":"TargetCallFailed","inputs":[{"name":"selector","type":"bytes4","internalType":"bytes4"}]}],"bytecode":{"object":"0x60803462001afd576001600160401b0390601f62004a8b38819003918201601f19168301918483118484101762001ad55780849260209460405283398101031262001afd57516001600160a01b0381169081900362001afd57801562001aeb5760018060a01b031933816001541617600155600054161760005560a760155561010e601655601e601a556001601b556001601c556002601d5561c350601e55610258601f556003602055601960215568878678326eac900000602255670de0b6b3a764000060235569021e19e0c9bab24000006024556001602555600360265560016027556007602855600560355560ff19603654166036556040519060e08201908282109082111762001ad5576102589160c0916040526002815260646020820152600160408201526023606082015260646080820152600160a0820152015260026006556064600755600160085560236009556064600a556001600b55610258600c5560b460606200017262001b42565b60198152600a6020820152605a604082015201526019600d55600a600e55605a600f5560b4601055620001a462001b42565b600581526001602082015260b460606101689283604082015201526005601155600160125560135560b460145560016080620001df62001b02565b6003815282602082015282604082015282606082015201526003601755630101010163ffffffff1960185416176018556200021962001b42565b610258606061014092838152600b6020820152600a60408201520152602955600b602a55600a602b55610258602c5561025860606200025762001b42565b60d28152600b6020820152600a6040820152015260d2602d55600b602e55600a602f55610258603055600760606200028e62001b42565b60038152600160208201526001604082015201526003603155600160325560016033556007603455620003a5620002c462001b02565b60008082526020808301828152604084018381526060850184815261270f60808701908152948052600390935293517f3617319a054d772f909f7c479a2cebe5066e836a939412e32403c99029b92eff55517f3617319a054d772f909f7c479a2cebe5066e836a939412e32403c99029b92f005591517f3617319a054d772f909f7c479a2cebe5066e836a939412e32403c99029b92f015590517f3617319a054d772f909f7c479a2cebe5066e836a939412e32403c99029b92f0255517f3617319a054d772f909f7c479a2cebe5066e836a939412e32403c99029b92f0355565b6200049a620003b362001b02565b60078152601960208083019182526000604084018181526060850182815261270f608087019081526001909352600390935293517fa15bc60c955c405d20d9149c709e2460f1c2d9a497496a7f46004d1772c3054c5591517fa15bc60c955c405d20d9149c709e2460f1c2d9a497496a7f46004d1772c3054d5591517fa15bc60c955c405d20d9149c709e2460f1c2d9a497496a7f46004d1772c3054e5590517fa15bc60c955c405d20d9149c709e2460f1c2d9a497496a7f46004d1772c3054f55517fa15bc60c955c405d20d9149c709e2460f1c2d9a497496a7f46004d1772c3055055565b6200058f620004a862001b02565b60078152606460208083019182526000604084018181526060850182815261270f608087019081526002909352600390935293517fc3a24b0501bd2c13a7e57f2db4369ec4c223447539fc0724a9d55ac4a06ebd4d5591517fc3a24b0501bd2c13a7e57f2db4369ec4c223447539fc0724a9d55ac4a06ebd4e5591517fc3a24b0501bd2c13a7e57f2db4369ec4c223447539fc0724a9d55ac4a06ebd4f5590517fc3a24b0501bd2c13a7e57f2db4369ec4c223447539fc0724a9d55ac4a06ebd5055517fc3a24b0501bd2c13a7e57f2db4369ec4c223447539fc0724a9d55ac4a06ebd5155565b620006836200059d62001b02565b600781526101f46020808301918252600360408401818152600060608601818152601e60808801908152918490529290935293517fcbc4e5fb02c3d1de23a9f1e014b4d2ee5aeaea9505df5e855c9210bf472495af5591517fcbc4e5fb02c3d1de23a9f1e014b4d2ee5aeaea9505df5e855c9210bf472495b05591517fcbc4e5fb02c3d1de23a9f1e014b4d2ee5aeaea9505df5e855c9210bf472495b155517fcbc4e5fb02c3d1de23a9f1e014b4d2ee5aeaea9505df5e855c9210bf472495b255517fcbc4e5fb02c3d1de23a9f1e014b4d2ee5aeaea9505df5e855c9210bf472495b355565b620007786200069162001b02565b600781526107d06020808301918252600460408401818152600360608601818152601e60808801908152600094909452935293517f83ec6a1f0257b830b5e016457c9cf1435391bf56cc98f369a58a54fe937724655591517f83ec6a1f0257b830b5e016457c9cf1435391bf56cc98f369a58a54fe937724665591517f83ec6a1f0257b830b5e016457c9cf1435391bf56cc98f369a58a54fe937724675590517f83ec6a1f0257b830b5e016457c9cf1435391bf56cc98f369a58a54fe9377246855517f83ec6a1f0257b830b5e016457c9cf1435391bf56cc98f369a58a54fe9377246955565b6200086d6200078662001b02565b6007815261138860208083019182526004604084018181526060850191825261270f608086019081526005600052600390935293517f405aad32e1adbac89bb7f176e338b8fc6e994ca210c9bb7bdca249b4659422505591517f405aad32e1adbac89bb7f176e338b8fc6e994ca210c9bb7bdca249b4659422515591517f405aad32e1adbac89bb7f176e338b8fc6e994ca210c9bb7bdca249b46594225255517f405aad32e1adbac89bb7f176e338b8fc6e994ca210c9bb7bdca249b46594225355517f405aad32e1adbac89bb7f176e338b8fc6e994ca210c9bb7bdca249b46594225455565b620009626200087b62001b02565b6007815261271060208083019182526004604084018181526060850191825261270f608086019081526006600052600390935293517fc69056f16cbaa3c616b828e333ab7d3a32310765507f8f58359e99ebb7a885f35591517fc69056f16cbaa3c616b828e333ab7d3a32310765507f8f58359e99ebb7a885f45591517fc69056f16cbaa3c616b828e333ab7d3a32310765507f8f58359e99ebb7a885f555517fc69056f16cbaa3c616b828e333ab7d3a32310765507f8f58359e99ebb7a885f655517fc69056f16cbaa3c616b828e333ab7d3a32310765507f8f58359e99ebb7a885f755565b62000a596200097062001b02565b60078082526161a860208084019182526004604085018181526060860191825261270f60808701908152600095909552600390925293517ff2c49132ed1cee2a7e75bde50d332a2f81f1d01e5456d8a19d1df09bd561dbd25590517ff2c49132ed1cee2a7e75bde50d332a2f81f1d01e5456d8a19d1df09bd561dbd355517ff2c49132ed1cee2a7e75bde50d332a2f81f1d01e5456d8a19d1df09bd561dbd45590517ff2c49132ed1cee2a7e75bde50d332a2f81f1d01e5456d8a19d1df09bd561dbd555517ff2c49132ed1cee2a7e75bde50d332a2f81f1d01e5456d8a19d1df09bd561dbd655565b62000b4962000a6762001b02565b600080825260066020808401918252600160408501818152600560608701818152608088018481529390965290925293517f1471eb6eb2c5e789fc3de43f8ce62938c7d1836ec861730447e2ada8fd81017b5590517f1471eb6eb2c5e789fc3de43f8ce62938c7d1836ec861730447e2ada8fd81017c55517f1471eb6eb2c5e789fc3de43f8ce62938c7d1836ec861730447e2ada8fd81017d55517f1471eb6eb2c5e789fc3de43f8ce62938c7d1836ec861730447e2ada8fd81017e55517f1471eb6eb2c5e789fc3de43f8ce62938c7d1836ec861730447e2ada8fd81017f55565b62000c3a62000b5762001b02565b60008082526003602080840191825260016040850181815260056060870181815260808801938452600290965290925293517f89832631fb3c3307a103ba2c84ab569c64d6182a18893dcd163f0f1c2090733a5590517f89832631fb3c3307a103ba2c84ab569c64d6182a18893dcd163f0f1c2090733b55517f89832631fb3c3307a103ba2c84ab569c64d6182a18893dcd163f0f1c2090733c55517f89832631fb3c3307a103ba2c84ab569c64d6182a18893dcd163f0f1c2090733d55517f89832631fb3c3307a103ba2c84ab569c64d6182a18893dcd163f0f1c2090733e55565b62000d2e62000c4862001b02565b60028152600f6020808301918252600a6040840190815260056060850181815260016080870190815260036000529190935293517fa9bc9a3a348c357ba16b37005d7e6b3236198c0e939f4af8c5f19b8deeb8ebc05591517fa9bc9a3a348c357ba16b37005d7e6b3236198c0e939f4af8c5f19b8deeb8ebc15590517fa9bc9a3a348c357ba16b37005d7e6b3236198c0e939f4af8c5f19b8deeb8ebc255517fa9bc9a3a348c357ba16b37005d7e6b3236198c0e939f4af8c5f19b8deeb8ebc355517fa9bc9a3a348c357ba16b37005d7e6b3236198c0e939f4af8c5f19b8deeb8ebc455565b62000e2262000d3c62001b02565b60028152600f6020808301918252600a6040840190815260056060850181815260016080870190815260046000529190935293517f3eec716f11ba9e820c81ca75eb978ffb45831ef8b7a53e5e422c26008e1ca6d55591517f3eec716f11ba9e820c81ca75eb978ffb45831ef8b7a53e5e422c26008e1ca6d65590517f3eec716f11ba9e820c81ca75eb978ffb45831ef8b7a53e5e422c26008e1ca6d755517f3eec716f11ba9e820c81ca75eb978ffb45831ef8b7a53e5e422c26008e1ca6d855517f3eec716f11ba9e820c81ca75eb978ffb45831ef8b7a53e5e422c26008e1ca6d955565b62000f1662000e3062001b02565b60028152600f6020808301918252600a6040840190815260056060850181815260016080870190815260008390529190935293517f458b30c2d72bfd2c6317304a4594ecbafe5f729d3111b65fdc3a33bd48e5432d5591517f458b30c2d72bfd2c6317304a4594ecbafe5f729d3111b65fdc3a33bd48e5432e5590517f458b30c2d72bfd2c6317304a4594ecbafe5f729d3111b65fdc3a33bd48e5432f55517f458b30c2d72bfd2c6317304a4594ecbafe5f729d3111b65fdc3a33bd48e5433055517f458b30c2d72bfd2c6317304a4594ecbafe5f729d3111b65fdc3a33bd48e5433155565b6200100a62000f2462001b02565b60028152604b602080830191825260646040840181815260fa60608601908152608086019283526006600052600590935293517f069400f22b28c6c362558d92f66163cec5671cba50b61abd2eecfcd0eaeac5185591517f069400f22b28c6c362558d92f66163cec5671cba50b61abd2eecfcd0eaeac5195591517f069400f22b28c6c362558d92f66163cec5671cba50b61abd2eecfcd0eaeac51a5590517f069400f22b28c6c362558d92f66163cec5671cba50b61abd2eecfcd0eaeac51b55517f069400f22b28c6c362558d92f66163cec5671cba50b61abd2eecfcd0eaeac51c55565b620010fe6200101862001b02565b60028152604b602080830191825260646040840181815260fa60608601908152608086019283526007600052600590935293517feddb6698d7c569ff62ff64f1f1492bf14a54594835ba0faac91f84b4f5d814605591517feddb6698d7c569ff62ff64f1f1492bf14a54594835ba0faac91f84b4f5d814615591517feddb6698d7c569ff62ff64f1f1492bf14a54594835ba0faac91f84b4f5d814625590517feddb6698d7c569ff62ff64f1f1492bf14a54594835ba0faac91f84b4f5d8146355517feddb6698d7c569ff62ff64f1f1492bf14a54594835ba0faac91f84b4f5d8146455565b620011f26200110c62001b02565b60028152604b602080830191825260646040840181815260fa60608601908152608086019283526008600052600590935293517ffb33122aa9f93cc639ebe80a7bc4784c11e6053dde89c6f4f7e268c6a623da1e5591517ffb33122aa9f93cc639ebe80a7bc4784c11e6053dde89c6f4f7e268c6a623da1f5591517ffb33122aa9f93cc639ebe80a7bc4784c11e6053dde89c6f4f7e268c6a623da205590517ffb33122aa9f93cc639ebe80a7bc4784c11e6053dde89c6f4f7e268c6a623da2155517ffb33122aa9f93cc639ebe80a7bc4784c11e6053dde89c6f4f7e268c6a623da2255565b620012e66200120062001b02565b60028152604b602080830191825260646040840181815260fa60608601908152608086019283526009600052600590935293517fc0a4a8be475dfebc377ebef2d7c4ff47656f572a08dd92b81017efcdba0febe15591517fc0a4a8be475dfebc377ebef2d7c4ff47656f572a08dd92b81017efcdba0febe25591517fc0a4a8be475dfebc377ebef2d7c4ff47656f572a08dd92b81017efcdba0febe35590517fc0a4a8be475dfebc377ebef2d7c4ff47656f572a08dd92b81017efcdba0febe455517fc0a4a8be475dfebc377ebef2d7c4ff47656f572a08dd92b81017efcdba0febe555565b620013da620012f462001b02565b60028152604b602080830191825260646040840181815260fa6060860190815260808601928352600a600052600590935293517fa18b128af1c8fc61ff46f02d146e54546f34d340574cf2cef6a753cba6b6701d5591517fa18b128af1c8fc61ff46f02d146e54546f34d340574cf2cef6a753cba6b6701e5591517fa18b128af1c8fc61ff46f02d146e54546f34d340574cf2cef6a753cba6b6701f5590517fa18b128af1c8fc61ff46f02d146e54546f34d340574cf2cef6a753cba6b6702055517fa18b128af1c8fc61ff46f02d146e54546f34d340574cf2cef6a753cba6b6702155565b620014ce620013e862001b02565b60028152604b602080830191825260646040840181815260fa6060860190815260808601928352600b600052600590935293517f40f28f99a40bc9f6beea1013afdbc3cdcc689eb76b82c4de06c0acf1e1932ed55591517f40f28f99a40bc9f6beea1013afdbc3cdcc689eb76b82c4de06c0acf1e1932ed65591517f40f28f99a40bc9f6beea1013afdbc3cdcc689eb76b82c4de06c0acf1e1932ed75590517f40f28f99a40bc9f6beea1013afdbc3cdcc689eb76b82c4de06c0acf1e1932ed855517f40f28f99a40bc9f6beea1013afdbc3cdcc689eb76b82c4de06c0acf1e1932ed955565b620015c2620014dc62001b02565b60028152604b602080830191825260646040840181815260fa6060860190815260808601928352600c600052600590935293517ff907e7e6656fa73566b18c1215272fe9fca2c55c552e62c923e21e000ac4b4e65591517ff907e7e6656fa73566b18c1215272fe9fca2c55c552e62c923e21e000ac4b4e75591517ff907e7e6656fa73566b18c1215272fe9fca2c55c552e62c923e21e000ac4b4e85590517ff907e7e6656fa73566b18c1215272fe9fca2c55c552e62c923e21e000ac4b4e955517ff907e7e6656fa73566b18c1215272fe9fca2c55c552e62c923e21e000ac4b4ea55565b620016b6620015d062001b02565b60028152604b602080830191825260646040840181815260fa6060860190815260808601928352600d600052600590935293517f03145c75015e7a856ecd94c41432ef3cb669d6360af23433588937fefdfac8255591517f03145c75015e7a856ecd94c41432ef3cb669d6360af23433588937fefdfac8265591517f03145c75015e7a856ecd94c41432ef3cb669d6360af23433588937fefdfac8275590517f03145c75015e7a856ecd94c41432ef3cb669d6360af23433588937fefdfac82855517f03145c75015e7a856ecd94c41432ef3cb669d6360af23433588937fefdfac82955565b620017aa620016c462001b02565b60028152604b602080830191825260646040840181815260fa6060860190815260808601928352600e600052600590935293517f783638979e3582b3ffd6d53fc06c949ac31d1ac75a5e2c3531fbe1f91045eb535591517f783638979e3582b3ffd6d53fc06c949ac31d1ac75a5e2c3531fbe1f91045eb545591517f783638979e3582b3ffd6d53fc06c949ac31d1ac75a5e2c3531fbe1f91045eb555590517f783638979e3582b3ffd6d53fc06c949ac31d1ac75a5e2c3531fbe1f91045eb5655517f783638979e3582b3ffd6d53fc06c949ac31d1ac75a5e2c3531fbe1f91045eb5755565b6200189e620017b862001b02565b60028152604b602080830191825260646040840181815260fa6060860190815260808601928352600f600052600590935293517f58f00e8ecc6f5419941dd0bafec65a4cc188d31713fb1fe224257460930df8af5591517f58f00e8ecc6f5419941dd0bafec65a4cc188d31713fb1fe224257460930df8b05591517f58f00e8ecc6f5419941dd0bafec65a4cc188d31713fb1fe224257460930df8b15590517f58f00e8ecc6f5419941dd0bafec65a4cc188d31713fb1fe224257460930df8b255517f58f00e8ecc6f5419941dd0bafec65a4cc188d31713fb1fe224257460930df8b355565b620018a862001b22565b60128152600a6020808301918252602d604084019081526003600052600490915291517f2e174c10e159ea99b867ce3205125c24a42d128804e4070ed6fcc8cc98166aa055517f2e174c10e159ea99b867ce3205125c24a42d128804e4070ed6fcc8cc98166aa155517f2e174c10e159ea99b867ce3205125c24a42d128804e4070ed6fcc8cc98166aa2556200193d62001b22565b60128152600a6020808301918252605a604084019081526005600052600490915291517f04cde762ef08b6b6c5ded8e8c4c0b3f4e5c9ad7342c88fcc93681b4588b73f0555517f04cde762ef08b6b6c5ded8e8c4c0b3f4e5c9ad7342c88fcc93681b4588b73f0655517f04cde762ef08b6b6c5ded8e8c4c0b3f4e5c9ad7342c88fcc93681b4588b73f0755620019d262001b22565b60098152600a602080830182815261270f604080860191825260076000908152600480865296517fbeb3bad75134cb432e5707980e3245c52c5998a1125ee30f2f0dbf3925b1e5515592517fbeb3bad75134cb432e5707980e3245c52c5998a1125ee30f2f0dbf3925b1e5525590517fbeb3bad75134cb432e5707980e3245c52c5998a1125ee30f2f0dbf3925b1e55355600290925260327f679795a0195a1b76cdebb7c51d74e058aee92919b8c3389af86ef24535e8a28c55929092526101f47fee60d0579bcffd98e668647d59fec1ff86a7fb340ce572e844f234ae73a6918f556005600f55601381905560a760155560165551612f12908162001b798239f35b634e487b7160e01b600052604160045260246000fd5b60405163e6c4247b60e01b8152600490fd5b600080fd5b6040519060a082016001600160401b0381118382101762001ad557604052565b60405190606082016001600160401b0381118382101762001ad557604052565b60405190608082016001600160401b0381118382101762001ad5576040526000606083828152826020820152826040820152015256fe60806040526004361015610018575b361561001657005b005b60003560e01c806304ce9f80146104885780630609a0e31461048357806307175c831461047e57806309307c62146104795780630b225f1a146104745780630ea0d2221461046f57806312065fe01461046a57806314be92a51461046557806315a544ed146104605780631605aed91461045b57806316f0115b14610456578063179b570a14610451578063192b48ee1461044c5780631ef6a864146104475780631f185d1614610442578063203bab661461043d57806326c5adae14610438578063298fc460146104335780633688236d1461042e5780633b9b7955146104295780634151331d14610424578063438fe1921461041f57806344ec16bc1461041a5780634b62954f1461041557806353423e8614610410578063541d76671461040b57806354541683146104065780635640dbfc14610401578063592a02a8146103fc5780635962205f146103f75780635a0e9038146103f2578063622fe2ed146103ed57806368400cb3146103e85780636c7deb5d146103e35780636f092c5e146103de5780637687e371146103d957806378ef376f146103d45780637bc908c6146103cf578063840bbc1e146103ca5780638da5cb5b146103c557806391fc8aa8146103c05780639319d0b5146103bb57806395cea094146103b65780639d80ab9b146103b15780639eb8b44e146103ac5780639f70207d146103a7578063a19841dd146103a2578063a1f7f5391461039d578063a88fcea614610398578063aebcd32a14610393578063af0b21d31461038e578063af48452614610389578063b338677514610384578063b49c064c1461037f578063b85f1f8d1461037a578063b90306ad14610375578063c54e44b014610370578063c5a136d41461036b578063dbad649c14610366578063e01ad5fd14610361578063e0a9bc2b1461035c578063e19a5bcf14610357578063eddd0d9c14610352578063f27c35c61461034d578063f2a6bbc714610348578063f4fe8e3c14610343578063f5de7bd21461033e578063f7a9783e14610339578063fbfa77cf14610334578063fc0e74d11461032f5763fdc10bc90361000e576123d6565b6123b3565b612379565b612319565b612262565b6121b4565b612109565b61205f565b611fb4565b611f0a565b611eef565b611e55565b611e37565b611d83565b611cfd565b611c76565b611c3c565b611c19565b611bfb565b611bca565b611bac565b611b44565b611b26565b611a78565b611a3e565b611a20565b611849565b6117ca565b6117ac565b611701565b6116e3565b6116bc565b611643565b611625565b61157a565b6114b8565b61148c565b6113e1565b6113c3565b6112e6565b6112ac565b611244565b61119a565b611122565b611104565b611093565b611076565b610fc5565b610f1a565b610efc565b610eb9565b610e92565b610e74565b610db2565b610cf1565b610c34565b610b0b565b610a50565b610983565b6108d2565b610881565b610863565b610845565b61079a565b61077e565b610760565b610742565b610691565b610673565b61054f565b3461054a57604036600319011261054a57600080808060243560043560018114610514575b6002146104e2575b50906104de91604051948594859094939260609260808301968352602083015260408201520152565b0390f35b6011546012546013546015549297509095506104de945092501161050c576016545b9290916104b5565b601454610504565b935093505050600d5491600e54600f54918060155411156000146105405760026016545b9490506104ad565b6002601054610538565b600080fd5b3461054a57602036600319011261054a5761056f61056b6125d7565b1590565b6106495761057c336126cf565b80156105bd575b1561059357610016600435601a55565b60046040517fea8e4eb5000000000000000000000000000000000000000000000000000000008152fd5b50600460206105e36105d76000546001600160a01b031690565b6001600160a01b031690565b60405192838092630536340960e21b82525afa90811561064457600091610616575b506001600160a01b03163314610583565b610637915060203d811161063d575b61062f818361253e565b810190612560565b38610605565b503d610625565b612578565b60046040517f9dc4246e000000000000000000000000000000000000000000000000000000008152fd5b3461054a57600036600319011261054a576020602154604051908152f35b3461054a57604036600319011261054a576106ad61056b6125d7565b610649576106ba336126cf565b80156106d7575b1561059357610016602435600435602355602455565b50600460206106f16105d76000546001600160a01b031690565b60405192838092630536340960e21b82525afa90811561064457600091610724575b506001600160a01b031633146106c1565b61073c915060203d811161063d5761062f818361253e565b38610713565b3461054a57600036600319011261054a576020603554604051908152f35b3461054a57600036600319011261054a576020601f54604051908152f35b3461054a57600036600319011261054a57602047604051908152f35b3461054a57602036600319011261054a576107b661056b6125d7565b610649576107c3336126cf565b80156107da575b1561059357610016600435601f55565b50600460206107f46105d76000546001600160a01b031690565b60405192838092630536340960e21b82525afa90811561064457600091610827575b506001600160a01b031633146107ca565b61083f915060203d811161063d5761062f818361253e565b38610816565b3461054a57600036600319011261054a576020602454604051908152f35b3461054a57600036600319011261054a576020602354604051908152f35b3461054a57600036600319011261054a5760e0600654600754600854600954600a5490600b5492600c5494604051968752602087015260408601526060850152608084015260a083015260c0820152f35b3461054a57604036600319011261054a576108ee61056b6125d7565b610649576108fb336126cf565b8015610918575b1561059357610016602435600435601555601655565b50600460206109326105d76000546001600160a01b031690565b60405192838092630536340960e21b82525afa90811561064457600091610965575b506001600160a01b03163314610902565b61097d915060203d811161063d5761062f818361253e565b38610954565b3461054a57602036600319011261054a5761099f61056b6125d7565b610649576109ac336126cf565b80156109c3575b1561059357610016600435612aa6565b50600460206109dd6105d76000546001600160a01b031690565b60405192838092630536340960e21b82525afa90811561064457600091610a10575b506001600160a01b031633146109b3565b610a28915060203d811161063d5761062f818361253e565b386109ff565b60a090600319011261054a576004359060243590604435906064359060843590565b3461054a57610a5e36610a2e565b92610a6d61056b9392936125d7565b61064957610a7a336126cf565b8015610a8f575b156105935761001694612de6565b5060046020610aa96105d76000546001600160a01b031690565b60405192838092630536340960e21b82525afa90811561064457600091610adc575b506001600160a01b03163314610a81565b610af4915060203d811161063d5761062f818361253e565b38610acb565b6001600160a01b0381160361054a57565b3461054a5760208060031936011261054a57600435610b2981610afa565b600482610b416105d76000546001600160a01b031690565b60405192838092634bf9c0ad60e11b82525afa801561064457610ba992610b8d92600092610c11575b50610b9b906040519384918783019190916001600160a01b036020820193169052565b03601f19810184528361253e565b610ba3612762565b90612938565b919080610c07575b15610bdd578181610bcb926104de945183010191016125c2565b60405190151581529081906020820190565b60046040517f3204506f000000000000000000000000000000000000000000000000000000008152fd5b5080825114610bb1565b610b9b919250610c2d90863d881161063d5761062f818361253e565b9190610b6a565b3461054a5760e036600319011261054a57610c5061056b6125d7565b61064957610c5d336126cf565b8015610c86575b156105935761001660c43560a435608435606435604435602435600435612cf6565b5060046020610ca06105d76000546001600160a01b031690565b60405192838092630536340960e21b82525afa90811561064457600091610cd3575b506001600160a01b03163314610c64565b610ceb915060203d811161063d5761062f818361253e565b38610cc2565b3461054a57602036600319011261054a57600460206001600160a01b0360005416604051928380926369e8d84b60e11b82525afa801561064457610d56610d7a916104de93600091610d8a575b50610d47612e6b565b90610d50612e83565b90612a22565b610d7560043591610d70610d6b602154612a60565b612a60565b612ebc565b612a93565b6040519081529081906020820190565b610da2915060203d811161063d5761062f818361253e565b38610d3e565b8015150361054a57565b3461054a57602036600319011261054a57600435610dcf81610da8565b610dda61056b6125d7565b61064957610de7336126cf565b8015610e09575b15610593576100169060ff8019603654169115151617603655565b5060046020610e236105d76000546001600160a01b031690565b60405192838092630536340960e21b82525afa90811561064457600091610e56575b506001600160a01b03163314610dee565b610e6e915060203d811161063d5761062f818361253e565b38610e45565b3461054a57600036600319011261054a576020601e54604051908152f35b3461054a57600036600319011261054a5760206001600160a01b0360005416604051908152f35b3461054a57602036600319011261054a57600435600052600460205260606040600020805490600260018201549101549060405192835260208301526040820152f35b3461054a57600036600319011261054a576020601c54604051908152f35b3461054a57602036600319011261054a57610f3661056b6125d7565b61064957610f43336126cf565b8015610f5a575b1561059357610016600435601b55565b5060046020610f746105d76000546001600160a01b031690565b60405192838092630536340960e21b82525afa90811561064457600091610fa7575b506001600160a01b03163314610f4a565b610fbf915060203d811161063d5761062f818361253e565b38610f96565b3461054a57604036600319011261054a57610fe161056b6125d7565b61064957610fee336126cf565b801561100b575b1561059357610016602435600435601d55601e55565b50600460206110256105d76000546001600160a01b031690565b60405192838092630536340960e21b82525afa90811561064457600091611058575b506001600160a01b03163314610ff5565b611070915060203d811161063d5761062f818361253e565b38611047565b3461054a57600036600319011261054a5760208054604051908152f35b3461054a57602036600319011261054a57600460206001600160a01b0360005416604051928380926369e8d84b60e11b82525afa8015610644576110e8610d7a916104de93600091610d8a5750610d47612e6b565b6004356000526002602052610d70610d6b604060002054612a60565b3461054a57600036600319011261054a576020601b54604051908152f35b3461054a57600036600319011261054a5760a060175460ff60185460405192835281811615156020840152818160081c1615156040840152818160101c161515606084015260181c1615156080820152f35b60c090600319011261054a57600435906024359060443590606435906084359060a43590565b3461054a576111a836611174565b936111b761056b9492946125d7565b610649576111c4336126cf565b80156111d9575b156105935761001695612ab4565b50600460206111f36105d76000546001600160a01b031690565b60405192838092630536340960e21b82525afa90811561064457600091611226575b506001600160a01b031633146111cb565b61123e915060203d811161063d5761062f818361253e565b38611215565b3461054a57602036600319011261054a576004356000526005602052604060002080546104de6001830154926002810154906004600382015491015491604051958695869192608093969594919660a084019784526020840152604083015260608201520152565b3461054a57600036600319011261054a57600d54600e54600f54601054604080519485526020850193909352918301526060820152608090f35b3461054a5760a036600319011261054a5760243561130381610da8565b60443561130f81610da8565b60643561131b81610da8565b6084359161132883610da8565b61133361056b6125d7565b61064957611340336126cf565b8015611358575b156105935761001693600435612bd3565b50600460206113726105d76000546001600160a01b031690565b60405192838092630536340960e21b82525afa908115610644576000916113a5575b506001600160a01b03163314611347565b6113bd915060203d811161063d5761062f818361253e565b38611394565b3461054a57600036600319011261054a576020602754604051908152f35b3461054a57602036600319011261054a576113fd61056b6125d7565b6106495761140a336126cf565b8015611421575b1561059357610016600435602055565b506004602061143b6105d76000546001600160a01b031690565b60405192838092630536340960e21b82525afa9081156106445760009161146e575b506001600160a01b03163314611411565b611486915060203d811161063d5761062f818361253e565b3861145d565b3461054a57602036600319011261054a5760043560005260026020526020604060002054604051908152f35b3461054a57602036600319011261054a576004356114d581610da8565b6114e061056b6125d7565b610649576114ed336126cf565b801561150f575b15610593576100169060ff8019601954169115151617601955565b50600460206115296105d76000546001600160a01b031690565b60405192838092630536340960e21b82525afa9081156106445760009161155c575b506001600160a01b031633146114f4565b611574915060203d811161063d5761062f818361253e565b3861154b565b3461054a57602036600319011261054a5761159661056b6125d7565b610649576115a3336126cf565b80156115ba575b1561059357610016600435602555565b50600460206115d46105d76000546001600160a01b031690565b60405192838092630536340960e21b82525afa90811561064457600091611607575b506001600160a01b031633146115aa565b61161f915060203d811161063d5761062f818361253e565b386115f6565b3461054a57600036600319011261054a576020602554604051908152f35b3461054a57602036600319011261054a57600460206001600160a01b0360005416604051928380926369e8d84b60e11b82525afa908115610644576116aa6116a26104de93670de0b6b3a764000093600091610d8a5750610d47612e6b565b600435612a93565b04604051918291829190602083019252565b3461054a57600036600319011261054a5760206001600160a01b0360015416604051908152f35b3461054a57600036600319011261054a576020602254604051908152f35b3461054a57602036600319011261054a5761171d61056b6125d7565b6106495761172a336126cf565b8015611741575b1561059357610016600435601c55565b506004602061175b6105d76000546001600160a01b031690565b60405192838092630536340960e21b82525afa9081156106445760009161178e575b506001600160a01b03163314611731565b6117a6915060203d811161063d5761062f818361253e565b3861177d565b3461054a57600036600319011261054a576020602854604051908152f35b3461054a57600036600319011261054a57602954602a54602b54602c54604080519485526020850193909352918301526060820152608090f35b6102a0810192916000915b6007831061181c57505050565b6001906060835191825181526020928381015184830152604080910151908201520192019201919061180f565b3461054a57600080600319360112611a1d576040908151611869816124ea565b815b60e081106119f8576104de8461187f612584565b60016000526004602052906118b87fabd6e7cb50984ff9c2f3e18a2660c3353dadf4e3291deeb275dae2cd1e44fe05612e43565b612e43565b8252600260005260046020526118ed7f91da3fd0782e51c6b3986e9e672fd566868e71f3dbc2d6c2cd6fbb3e361af2a7612e43565b602083015261190a6118b360036000526004602052604060002090565b82820152600460008190526020526119417f1a1e6821cde7d0159c0d293177871e09677b4e42307c7db3ba94f8648a5a050f612e43565b6060830152600560005260046020526119797f04cde762ef08b6b6c5ded8e8c4c0b3f4e5c9ad7342c88fcc93681b4588b73f05612e43565b6080830152600660005260046020526119b17fc59312466997bb42aaaf719ece141047820e6b34531e1670dc1852a453648f0f612e43565b60a0830152600760005260046020526119e97fbeb3bad75134cb432e5707980e3245c52c5998a1125ee30f2f0dbf3925b1e551612e43565b60c08301525191829182611804565b6020908451611a06816124ad565b84815284838201528486820152818401520161186b565b80fd5b3461054a57600036600319011261054a576020601554604051908152f35b3461054a57600036600319011261054a57602d54602e54602f54603054604080519485526020850193909352918301526060820152608090f35b3461054a57600036600319011261054a57600460206001600160a01b03600054166040519283809263d1f956b160e01b82525afa908115610644576104de91610d7a91600091611b08575b50604051611ad081612506565b601381527f67657464656c656761746f72436f756e742829000000000000000000000000006020820152611b026125af565b91612a22565b611b20915060203d811161063d5761062f818361253e565b38611ac3565b3461054a57600036600319011261054a576020601d54604051908152f35b3461054a57602036600319011261054a576004356000526003602052604060002080546104de6001830154926002810154906004600382015491015491604051958695869192608093969594919660a084019784526020840152604083015260608201520152565b3461054a57600036600319011261054a576020601a54604051908152f35b3461054a57602036600319011261054a576020611bf1600435611bec81610afa565b6126cf565b6040519015158152f35b3461054a57600036600319011261054a576020602654604051908152f35b3461054a57600036600319011261054a57602060ff603654166040519015158152f35b3461054a57600036600319011261054a57601154601254601354601454604080519485526020850193909352918301526060820152608090f35b3461054a57602036600319011261054a5760046001600160a01b036020611ca782600054166001600160a01b031690565b60405193848092630536340960e21b82525afa91821561064457600092611cdd575b503391160361059357610016600435612804565b611cf691925060203d811161063d5761062f818361253e565b9038611cc9565b3461054a57602036600319011261054a57600435611d1a81610afa565b803b6000611d2782612593565b92611d35604051948561253e565b82845260208401903c602d815110611d5957602a602091015160601c604051908152f35b60046040517fbaf3f0f7000000000000000000000000000000000000000000000000000000008152fd5b3461054a57608036600319011261054a57611d9f61056b6125d7565b61064957611dac336126cf565b8015611dcc575b1561059357610016606435604435602435600435612c8d565b5060046020611de66105d76000546001600160a01b031690565b60405192838092630536340960e21b82525afa90811561064457600091611e19575b506001600160a01b03163314611db3565b611e31915060203d811161063d5761062f818361253e565b38611e08565b3461054a57600036600319011261054a576020601654604051908152f35b3461054a5760208060031936011261054a5760048035611e7481610afa565b6001600160a01b03928084600054166040519485809263d1f956b160e01b82525afa908115610644576104de94610bcb94600093611ed0575b506040519316818401528252611ec282612506565b611eca61279b565b906129e6565b611ee8919350823d841161063d5761062f818361253e565b9138611ead565b3461054a57600036600319011261054a576020611bf16125d7565b3461054a57611f1836610a2e565b92611f2761056b9392936125d7565b61064957611f34336126cf565b8015611f49575b156105935761001694612d88565b5060046020611f636105d76000546001600160a01b031690565b60405192838092630536340960e21b82525afa90811561064457600091611f96575b506001600160a01b03163314611f3b565b611fae915060203d811161063d5761062f818361253e565b38611f85565b3461054a57602036600319011261054a57611fd061056b6125d7565b61064957611fdd336126cf565b8015611ff4575b1561059357610016600435602155565b506004602061200e6105d76000546001600160a01b031690565b60405192838092630536340960e21b82525afa90811561064457600091612041575b506001600160a01b03163314611fe4565b612059915060203d811161063d5761062f818361253e565b38612030565b3461054a5761206d36611174565b9361207c61056b9492946125d7565b61064957612089336126cf565b801561209e575b156105935761001695612b6b565b50600460206120b86105d76000546001600160a01b031690565b60405192838092630536340960e21b82525afa908115610644576000916120eb575b506001600160a01b03163314612090565b612103915060203d811161063d5761062f818361253e565b386120da565b3461054a57602036600319011261054a5761212561056b6125d7565b61064957612132336126cf565b8015612149575b1561059357610016600435603555565b50600460206121636105d76000546001600160a01b031690565b60405192838092630536340960e21b82525afa90811561064457600091612196575b506001600160a01b03163314612139565b6121ae915060203d811161063d5761062f818361253e565b38612185565b3461054a57604036600319011261054a576121d061056b6125d7565b610649576121dd336126cf565b80156121f7575b1561059357610016602435600435612cda565b50600460206122116105d76000546001600160a01b031690565b60405192838092630536340960e21b82525afa90811561064457600091612244575b506001600160a01b031633146121e4565b61225c915060203d811161063d5761062f818361253e565b38612233565b3461054a57606036600319011261054a5761227e61056b6125d7565b6106495761228b336126cf565b80156122ae575b1561059357610016604435602435600435602755602655602855565b50600460206122c86105d76000546001600160a01b031690565b60405192838092630536340960e21b82525afa908115610644576000916122fb575b506001600160a01b03163314612292565b612313915060203d811161063d5761062f818361253e565b386122ea565b3461054a57602036600319011261054a57600460206001600160a01b0360005416604051928380926369e8d84b60e11b82525afa80156106445761236e610d7a916104de93600091610d8a5750610d47612e6b565b610d70600435612a60565b3461054a57600036600319011261054a57603154603254603354603454604080519485526020850193909352918301526060820152608090f35b3461054a57600036600319011261054a57602060ff601954166040519015158152f35b3461054a57600036600319011261054a57600460206001600160a01b0360005416604051928380927f447aa3040000000000000000000000000000000000000000000000000000000082525afa908115610644576104de91610d7a91600091612479575b5060405161244781612506565b600581527f61676528290000000000000000000000000000000000000000000000000000006020820152611b026125af565b612491915060203d811161063d5761062f818361253e565b3861243a565b634e487b7160e01b600052604160045260246000fd5b6060810190811067ffffffffffffffff8211176124c957604052565b612497565b60a0810190811067ffffffffffffffff8211176124c957604052565b60e0810190811067ffffffffffffffff8211176124c957604052565b6040810190811067ffffffffffffffff8211176124c957604052565b6020810190811067ffffffffffffffff8211176124c957604052565b90601f8019910116810190811067ffffffffffffffff8211176124c957604052565b9081602091031261054a575161257581610afa565b90565b6040513d6000823e3d90fd5b60405190612591826124ea565b565b67ffffffffffffffff81116124c957601f01601f191660200190565b604051906125bc82612522565b60008252565b9081602091031261054a575161257581610da8565b6001600160a01b03600054166040518091634bf9c0ad60e11b825281600460209485935afa80156106445761265291600091612679575b5060405161261b81612506565b600881527f69735361666528290000000000000000000000000000000000000000000000008482015261264c6125af565b91612938565b908061266f575b15610bdd578161257592825183010191016125c2565b5081815114612659565b6126909150833d851161063d5761062f818361253e565b3861260e565b604051906126a382612506565b601582527f69735365637572654261736528616464726573732900000000000000000000006020830152565b6126e46105d76000546001600160a01b031690565b906040518092634bf9c0ad60e11b825281600460209586935afa80156106445761265292610b8d9260009261273f575b50612737906040519384918783019190916001600160a01b036020820193169052565b610ba3612696565b61273791925061275b90863d881161063d5761062f818361253e565b9190612714565b6040519061276f82612506565b601182527f69735369676e65722861646472657373290000000000000000000000000000006020830152565b604051906127a882612506565b601882527f697364656c656761746f724e6f646528616464726573732900000000000000006020830152565b3d156127ff573d906127e582612593565b916127f3604051938461253e565b82523d6000602084013e565b606090565b600061281a6105d782546001600160a01b031690565b9060405180927f46f991ac00000000000000000000000000000000000000000000000000000000825281600460209586935afa8015610644578280868194938294839161291b575b505af161286d6127d4565b5015610bdd5760048261288a6105d784546001600160a01b031690565b604051928380927f5e09dbe70000000000000000000000000000000000000000000000000000000082525afa908115610644577fcdcc745fe377b103b45fa0cec23ae3ef93d6fc6a84a01f0d18c40b354dd1d5d8936001600160a01b0393926128fe575b50506040519384521691602090a2565b6129149250803d1061063d5761062f818361253e565b38806128ee565b6129329150883d8a1161063d5761062f818361253e565b38612862565b9190823b156129cd577fffffffff00000000000000000000000000000000000000000000000000000000815160208093012016916040519180830193845281519160005b8381106129b95750505091816129a96024826000979596889701878382015203600481018452018261253e565b51915afa6129b56127d4565b9091565b81810183015185820160240152820161297c565b5050506000906040516129df81612522565b6000815290565b92916129f491600094612938565b9080612a17575b612a025750565b612575919250602080825183010191016125c2565b5060208151146129fb565b9291612a3091600094612938565b9080612a55575b612a3e5750565b90915060208180518101031261054a576020015190565b506020815114612a37565b90670de0b6b3a764000091828102928184041490151715612a7d57565b634e487b7160e01b600052601160045260246000fd5b81810292918115918404141715612a7d57565b612aaf90612a60565b602255565b929491949390936010841015612b27576125919560405195612ad5876124ce565b8652602086015260408501526060840152608083015260005260056020526040600020906080600491805184556020810151600185015560408101516002850155606081015160038501550151910155565b606460405162461bcd60e51b815260206004820152600d60248201527f696e76616c6964206c6576656c000000000000000000000000000000000000006044820152fd5b92612591959294919460405195612b81876124ce565b8652602086015260408501526060840152608083015260005260036020526040600020906080600491805184556020810151600185015560408101516002850155606081015160038501550151910155565b608061ff009162ff00009496959360405190612bee826124ce565b8282521515978860208301521515948560408301521515968760608301521515928391015260175560ff63ff0000006018549260181b1696169063ffffffff1916179160081b16179160101b161717601855565b15612c4957565b606460405162461bcd60e51b815260206004820152600c60248201527f696e76616c69642072616e6b00000000000000000000000000000000000000006044820152fd5b91600292939193612ca060088210612c42565b60405194612cad866124ad565b85526020850191825260408501928352600052600460205260406000209351845551600184015551910155565b612ce660088210612c42565b6000526002602052604060002055565b60405160e0810181811067ffffffffffffffff8211176124c957889160c0916040528381528460208201528560408201528660608201528760808201528860a08201520152600655600755600855600955600a55600b55600c55565b604051906080820182811067ffffffffffffffff8211176124c95760405260006060838281528260208201528260408201520152565b600290856060612d96612d52565b858152866020820152876040820152015260018114612dd1575b14612dbc575b50505050565b60115560125560135560145538808080612db6565b82600d5583600e5584600f5585601055612db0565b600290856060612df4612d52565b858152866020820152876040820152015260018114612e2e575b14612e195750505050565b602d55602e55602f5560305538808080612db6565b8260295583602a5584602b5585602c55612e0e565b90604051612e50816124ad565b60406002829480548452600181015460208501520154910152565b604051612e7781612522565b60008152906000368137565b60405190612e9082612506565b601282527f6f7a6f6e655072696365496e55534454282900000000000000000000000000006020830152565b8115612ec6570490565b634e487b7160e01b600052601260045260246000fdfea2646970667358221220017b8908b8cb71bf895b86e6843187e9cb28f2c45294b62e04cb18f1a790df8e64736f6c63430008140033","linkReferences":{}},"methodIdentifiers":{"Burn(uint256)":"b90306ad","NFTAgePointer()":"9f70207d","NFTSendPerCycle()":"438fe192","StartAgePointerLEQ()":"dbad649c","_delegatorCount()":"a1f7f539","_getImplementation(address)":"c54e44b0","_isDelegatorNode(address)":"e01ad5fd","_isSafe()":"e0a9bc2b","_isSecureBase(address)":"af484526","_isSigner(address)":"1f185d16","allowForceTransfer()":"b49c064c","capping()":"5640dbfc","computeDollarToOzone(uint256)":"f7a9783e","computeMintValue(uint256)":"26c5adae","computeOzoneToDollar(uint256)":"840bbc1e","computeTour(uint256)":"541d7667","eachclaimCycle()":"7bc908c6","freeIntervals()":"af0b21d3","getBalance()":"12065fe0","getBatchRoyaltyClauses()":"9eb8b44e","getHexbase()":"3b9b7955","getNftPool(uint256,uint256)":"04ce9f80","levelClause(uint256)":"5962205f","maxClaimPerDay()":"15a544ed","maxGlobalClaimPerDay()":"91fc8aa8","maxMintQty()":"3688236d","maxMintsPerCycle()":"53423e86","maxNFTSend()":"54541683","maxVaultSend()":"68400cb3","minClaimPerDay()":"1605aed9","minMintQty()":"a88fcea6","mintCycleDays()":"0ea0d222","mintFeePerQty()":"07175c83","owner()":"8da5cb5b","pool()":"16f0115b","poolNFT1()":"5a0e9038","poolNFT2()":"b85f1f8d","rankClause(uint256)":"aebcd32a","rankforDAO()":"0b225f1a","royalityClause(uint256)":"4151331d","setAllowForceTransfer(bool)":"298fc460","setCapping(uint256,bool,bool,bool,bool)":"622fe2ed","setClaimPerDay(uint256,uint256)":"09307c62","setCoinPool(uint256,uint256,uint256,uint256,uint256,uint256,uint256)":"203bab66","setFreeIntervals(uint256)":"0609a0e3","setGlobalClaimPerDay(uint256)":"192b48ee","setMaxMintsPerCycle(uint256)":"6c7deb5d","setMaxNFTSend(uint256)":"44ec16bc","setMintCycleDays(uint256)":"14be92a5","setMintFee(uint256)":"eddd0d9c","setMintQty(uint256,uint256)":"4b62954f","setNFTAgePointer(uint256,uint256)":"179b570a","setNFTSendPerCycle(uint256)":"9319d0b5","setNftPool(uint256,uint256,uint256,uint256,uint256)":"e19a5bcf","setRoyalityClause(uint256,uint256,uint256,uint256)":"c5a136d4","setTourClause(uint256,uint256)":"f4fe8e3c","setValidatorPool(uint256,uint256,uint256,uint256,uint256)":"1ef6a864","setVaultData(uint256,uint256,uint256)":"f5de7bd2","setclaimCycle(uint256)":"78ef376f","setlevelClause(uint256,uint256,uint256,uint256,uint256,uint256)":"592a02a8","setrankClause(uint256,uint256,uint256,uint256,uint256,uint256)":"f27c35c6","setrankforDAO(uint256)":"f2a6bbc7","setshutdown(bool)":"7687e371","shutdown()":"fc0e74d1","systemAge()":"fdc10bc9","tourClause(uint256)":"6f092c5e","valExternal()":"a19841dd","valInternal()":"9d80ab9b","vault()":"fbfa77cf","vaultOnStakeAmt()":"b3386775","vaultSendPerCycle()":"95cea094"},"id":71}