{"abi":[{"type":"constructor","inputs":[{"name":"_hex","type":"address","internalType":"address"}],"stateMutability":"nonpayable"},{"type":"fallback","stateMutability":"payable"},{"type":"receive","stateMutability":"payable"},{"type":"function","name":"Burn","inputs":[{"name":"amount","type":"uint256","internalType":"uint256"}],"outputs":[],"stateMutability":"nonpayable"},{"type":"function","name":"NFTSendPerCycle","inputs":[],"outputs":[{"name":"","type":"uint256","internalType":"uint256"}],"stateMutability":"view"},{"type":"function","name":"_delegatorCount","inputs":[],"outputs":[{"name":"","type":"uint256","internalType":"uint256"}],"stateMutability":"view"},{"type":"function","name":"_getImplementation","inputs":[{"name":"clone","type":"address","internalType":"address"}],"outputs":[{"name":"impl","type":"address","internalType":"address"}],"stateMutability":"view"},{"type":"function","name":"_isDelegatorNode","inputs":[{"name":"sender","type":"address","internalType":"address"}],"outputs":[{"name":"","type":"bool","internalType":"bool"}],"stateMutability":"view"},{"type":"function","name":"_isSafe","inputs":[],"outputs":[{"name":"","type":"bool","internalType":"bool"}],"stateMutability":"view"},{"type":"function","name":"_isSecureBase","inputs":[{"name":"sender","type":"address","internalType":"address"}],"outputs":[{"name":"","type":"bool","internalType":"bool"}],"stateMutability":"view"},{"type":"function","name":"_isSigner","inputs":[{"name":"sender","type":"address","internalType":"address"}],"outputs":[{"name":"","type":"bool","internalType":"bool"}],"stateMutability":"view"},{"type":"function","name":"allowForceTransfer","inputs":[],"outputs":[{"name":"","type":"bool","internalType":"bool"}],"stateMutability":"view"},{"type":"function","name":"capOnRank","inputs":[{"name":"","type":"uint256","internalType":"uint256"}],"outputs":[{"name":"maxClaim","type":"uint256","internalType":"uint256"},{"name":"cycleDays","type":"uint256","internalType":"uint256"}],"stateMutability":"view"},{"type":"function","name":"capping","inputs":[],"outputs":[{"name":"multiple","type":"uint256","internalType":"uint256"},{"name":"rw","type":"bool","internalType":"bool"},{"name":"ry","type":"bool","internalType":"bool"},{"name":"self","type":"bool","internalType":"bool"},{"name":"yei","type":"bool","internalType":"bool"},{"name":"val","type":"bool","internalType":"bool"},{"name":"tour","type":"bool","internalType":"bool"}],"stateMutability":"view"},{"type":"function","name":"computeMintValue","inputs":[{"name":"_qty","type":"uint256","internalType":"uint256"}],"outputs":[{"name":"","type":"uint256","internalType":"uint256"}],"stateMutability":"view"},{"type":"function","name":"computeTour","inputs":[{"name":"_r","type":"uint256","internalType":"uint256"}],"outputs":[{"name":"","type":"uint256","internalType":"uint256"}],"stateMutability":"view"},{"type":"function","name":"eachclaimCycle","inputs":[],"outputs":[{"name":"","type":"uint256","internalType":"uint256"}],"stateMutability":"view"},{"type":"function","name":"freeIntervals","inputs":[],"outputs":[{"name":"","type":"uint256","internalType":"uint256"}],"stateMutability":"view"},{"type":"function","name":"getBalance","inputs":[],"outputs":[{"name":"","type":"uint256","internalType":"uint256"}],"stateMutability":"view"},{"type":"function","name":"getBatchRoyaltyClauses","inputs":[],"outputs":[{"name":"clauses","type":"tuple[7]","internalType":"struct lib741Rules.RoyalityStr[7]","components":[{"name":"rwNum","type":"uint256","internalType":"uint256"},{"name":"rwDen","type":"uint256","internalType":"uint256"},{"name":"rwEnd","type":"uint256","internalType":"uint256"}]}],"stateMutability":"view"},{"type":"function","name":"getHexbase","inputs":[],"outputs":[{"name":"","type":"address","internalType":"address"}],"stateMutability":"view"},{"type":"function","name":"getLevelIncomeOnRank","inputs":[],"outputs":[{"name":"","type":"uint256","internalType":"uint256"},{"name":"","type":"uint256","internalType":"uint256"}],"stateMutability":"view"},{"type":"function","name":"levelClause","inputs":[{"name":"","type":"uint256","internalType":"uint256"}],"outputs":[{"name":"rank","type":"uint256","internalType":"uint256"},{"name":"rwNum","type":"uint256","internalType":"uint256"},{"name":"rwrDen","type":"uint256","internalType":"uint256"},{"name":"yeiNum","type":"uint256","internalType":"uint256"},{"name":"yeiDen","type":"uint256","internalType":"uint256"}],"stateMutability":"view"},{"type":"function","name":"lvlincrankmax","inputs":[],"outputs":[{"name":"","type":"uint256","internalType":"uint256"}],"stateMutability":"view"},{"type":"function","name":"lvlincrankmin","inputs":[],"outputs":[{"name":"","type":"uint256","internalType":"uint256"}],"stateMutability":"view"},{"type":"function","name":"maxClaimPerDay","inputs":[],"outputs":[{"name":"","type":"uint256","internalType":"uint256"}],"stateMutability":"view"},{"type":"function","name":"maxGlobalClaimPerDay","inputs":[],"outputs":[{"name":"","type":"uint256","internalType":"uint256"}],"stateMutability":"view"},{"type":"function","name":"maxMintQty","inputs":[],"outputs":[{"name":"","type":"uint256","internalType":"uint256"}],"stateMutability":"view"},{"type":"function","name":"maxMintsPerCycle","inputs":[],"outputs":[{"name":"","type":"uint256","internalType":"uint256"}],"stateMutability":"view"},{"type":"function","name":"maxNFTSend","inputs":[],"outputs":[{"name":"","type":"uint256","internalType":"uint256"}],"stateMutability":"view"},{"type":"function","name":"minClaimPerDay","inputs":[],"outputs":[{"name":"","type":"uint256","internalType":"uint256"}],"stateMutability":"view"},{"type":"function","name":"minMintQty","inputs":[],"outputs":[{"name":"","type":"uint256","internalType":"uint256"}],"stateMutability":"view"},{"type":"function","name":"mintCycleDays","inputs":[],"outputs":[{"name":"","type":"uint256","internalType":"uint256"}],"stateMutability":"view"},{"type":"function","name":"mintFeePerQty","inputs":[],"outputs":[{"name":"","type":"uint256","internalType":"uint256"}],"stateMutability":"view"},{"type":"function","name":"owner","inputs":[],"outputs":[{"name":"","type":"address","internalType":"address"}],"stateMutability":"view"},{"type":"function","name":"pool","inputs":[],"outputs":[{"name":"startafter","type":"uint256","internalType":"uint256"},{"name":"stakeN","type":"uint256","internalType":"uint256"},{"name":"stakeD","type":"uint256","internalType":"uint256"},{"name":"roiN","type":"uint256","internalType":"uint256"},{"name":"roiD","type":"uint256","internalType":"uint256"},{"name":"roiInt","type":"uint256","internalType":"uint256"},{"name":"roiEnd","type":"uint256","internalType":"uint256"}],"stateMutability":"view"},{"type":"function","name":"poolNFT1","inputs":[],"outputs":[{"name":"roiN","type":"uint256","internalType":"uint256"},{"name":"roiD","type":"uint256","internalType":"uint256"},{"name":"roiInt","type":"uint256","internalType":"uint256"}],"stateMutability":"view"},{"type":"function","name":"poolNFT2","inputs":[],"outputs":[{"name":"roiN","type":"uint256","internalType":"uint256"},{"name":"roiD","type":"uint256","internalType":"uint256"},{"name":"roiInt","type":"uint256","internalType":"uint256"}],"stateMutability":"view"},{"type":"function","name":"poolValprivate","inputs":[],"outputs":[{"name":"startafter","type":"uint256","internalType":"uint256"},{"name":"stakeN","type":"uint256","internalType":"uint256"},{"name":"stakeD","type":"uint256","internalType":"uint256"},{"name":"roiN","type":"uint256","internalType":"uint256"},{"name":"roiD","type":"uint256","internalType":"uint256"},{"name":"roiInt","type":"uint256","internalType":"uint256"},{"name":"roiEnd","type":"uint256","internalType":"uint256"}],"stateMutability":"view"},{"type":"function","name":"poolValpublic","inputs":[],"outputs":[{"name":"startafter","type":"uint256","internalType":"uint256"},{"name":"stakeN","type":"uint256","internalType":"uint256"},{"name":"stakeD","type":"uint256","internalType":"uint256"},{"name":"roiN","type":"uint256","internalType":"uint256"},{"name":"roiD","type":"uint256","internalType":"uint256"},{"name":"roiInt","type":"uint256","internalType":"uint256"},{"name":"roiEnd","type":"uint256","internalType":"uint256"}],"stateMutability":"view"},{"type":"function","name":"rankClause","inputs":[{"name":"","type":"uint256","internalType":"uint256"}],"outputs":[{"name":"direct","type":"uint256","internalType":"uint256"},{"name":"nftAmount","type":"uint256","internalType":"uint256"}],"stateMutability":"view"},{"type":"function","name":"rankforDAO","inputs":[],"outputs":[{"name":"","type":"uint256","internalType":"uint256"}],"stateMutability":"view"},{"type":"function","name":"royalityClause","inputs":[{"name":"","type":"uint256","internalType":"uint256"}],"outputs":[{"name":"rwNum","type":"uint256","internalType":"uint256"},{"name":"rwDen","type":"uint256","internalType":"uint256"},{"name":"rwEnd","type":"uint256","internalType":"uint256"}],"stateMutability":"view"},{"type":"function","name":"setAllowForceTransfer","inputs":[{"name":"_f","type":"bool","internalType":"bool"}],"outputs":[],"stateMutability":"nonpayable"},{"type":"function","name":"setCapping","inputs":[{"name":"_multiple","type":"uint256","internalType":"uint256"},{"name":"_rw","type":"bool","internalType":"bool"},{"name":"_ry","type":"bool","internalType":"bool"},{"name":"_self","type":"bool","internalType":"bool"},{"name":"_yei","type":"bool","internalType":"bool"},{"name":"_val","type":"bool","internalType":"bool"},{"name":"_tour","type":"bool","internalType":"bool"}],"outputs":[],"stateMutability":"nonpayable"},{"type":"function","name":"setClaimPerDay","inputs":[{"name":"_min","type":"uint256","internalType":"uint256"},{"name":"_max","type":"uint256","internalType":"uint256"}],"outputs":[],"stateMutability":"nonpayable"},{"type":"function","name":"setCoinPool","inputs":[{"name":"_type","type":"uint256","internalType":"uint256"},{"name":"_start","type":"uint256","internalType":"uint256"},{"name":"_stakeN","type":"uint256","internalType":"uint256"},{"name":"_stakeD","type":"uint256","internalType":"uint256"},{"name":"_roiN","type":"uint256","internalType":"uint256"},{"name":"_roiD","type":"uint256","internalType":"uint256"},{"name":"_roiInt","type":"uint256","internalType":"uint256"},{"name":"_roiEnd","type":"uint256","internalType":"uint256"}],"outputs":[],"stateMutability":"nonpayable"},{"type":"function","name":"setFreeIntervals","inputs":[{"name":"_d","type":"uint256","internalType":"uint256"}],"outputs":[],"stateMutability":"nonpayable"},{"type":"function","name":"setGlobalClaimPerDay","inputs":[{"name":"_ac","type":"uint256","internalType":"uint256"}],"outputs":[],"stateMutability":"nonpayable"},{"type":"function","name":"setLevelIncomeOnRank","inputs":[{"name":"_min","type":"uint256","internalType":"uint256"},{"name":"_max","type":"uint256","internalType":"uint256"}],"outputs":[],"stateMutability":"nonpayable"},{"type":"function","name":"setMaxMintsPerCycle","inputs":[{"name":"_max","type":"uint256","internalType":"uint256"}],"outputs":[],"stateMutability":"nonpayable"},{"type":"function","name":"setMaxNFTSend","inputs":[{"name":"_d","type":"uint256","internalType":"uint256"}],"outputs":[],"stateMutability":"nonpayable"},{"type":"function","name":"setMintCycleDays","inputs":[{"name":"_d","type":"uint256","internalType":"uint256"}],"outputs":[],"stateMutability":"nonpayable"},{"type":"function","name":"setMintFee","inputs":[{"name":"_fe","type":"uint256","internalType":"uint256"}],"outputs":[],"stateMutability":"nonpayable"},{"type":"function","name":"setMintQty","inputs":[{"name":"_min","type":"uint256","internalType":"uint256"},{"name":"_max","type":"uint256","internalType":"uint256"}],"outputs":[],"stateMutability":"nonpayable"},{"type":"function","name":"setNFTSendPerCycle","inputs":[{"name":"_d","type":"uint256","internalType":"uint256"}],"outputs":[],"stateMutability":"nonpayable"},{"type":"function","name":"setNftPool","inputs":[{"name":"_type","type":"uint256","internalType":"uint256"},{"name":"_roiN","type":"uint256","internalType":"uint256"},{"name":"_roiD","type":"uint256","internalType":"uint256"},{"name":"_roiInt","type":"uint256","internalType":"uint256"}],"outputs":[],"stateMutability":"nonpayable"},{"type":"function","name":"setNftPool","inputs":[{"name":"_type","type":"uint256","internalType":"uint256"},{"name":"_qty","type":"uint256","internalType":"uint256"},{"name":"_roiN","type":"uint256","internalType":"uint256"},{"name":"_roiD","type":"uint256","internalType":"uint256"},{"name":"_roiInt","type":"uint256","internalType":"uint256"}],"outputs":[],"stateMutability":"nonpayable"},{"type":"function","name":"setRoyalityClause","inputs":[{"name":"_rank","type":"uint256","internalType":"uint256"},{"name":"_rwNum","type":"uint256","internalType":"uint256"},{"name":"_rwDen","type":"uint256","internalType":"uint256"},{"name":"_rwEnd","type":"uint256","internalType":"uint256"}],"outputs":[],"stateMutability":"nonpayable"},{"type":"function","name":"setTourClause","inputs":[{"name":"_rank","type":"uint256","internalType":"uint256"},{"name":"_tw","type":"uint256","internalType":"uint256"}],"outputs":[],"stateMutability":"nonpayable"},{"type":"function","name":"setclaimCycle","inputs":[{"name":"_d","type":"uint256","internalType":"uint256"}],"outputs":[],"stateMutability":"nonpayable"},{"type":"function","name":"setlevelClause","inputs":[{"name":"lvl","type":"uint256","internalType":"uint256"},{"name":"_rank","type":"uint256","internalType":"uint256"},{"name":"_rpernum","type":"uint256","internalType":"uint256"},{"name":"_rperden","type":"uint256","internalType":"uint256"},{"name":"_ypernum","type":"uint256","internalType":"uint256"},{"name":"_yperden","type":"uint256","internalType":"uint256"}],"outputs":[],"stateMutability":"nonpayable"},{"type":"function","name":"setrankClause","inputs":[{"name":"rank","type":"uint256","internalType":"uint256"},{"name":"direct","type":"uint256","internalType":"uint256"},{"name":"nftAmount","type":"uint256","internalType":"uint256"}],"outputs":[],"stateMutability":"nonpayable"},{"type":"function","name":"setrankforDAO","inputs":[{"name":"_r","type":"uint256","internalType":"uint256"}],"outputs":[],"stateMutability":"nonpayable"},{"type":"function","name":"setshutdown","inputs":[{"name":"_shutdown","type":"bool","internalType":"bool"}],"outputs":[],"stateMutability":"nonpayable"},{"type":"function","name":"shutdown","inputs":[],"outputs":[{"name":"","type":"bool","internalType":"bool"}],"stateMutability":"view"},{"type":"function","name":"systemAge","inputs":[],"outputs":[{"name":"","type":"uint256","internalType":"uint256"}],"stateMutability":"view"},{"type":"function","name":"tourClause","inputs":[{"name":"","type":"uint256","internalType":"uint256"}],"outputs":[{"name":"","type":"uint256","internalType":"uint256"}],"stateMutability":"view"},{"type":"function","name":"valExternal","inputs":[],"outputs":[{"name":"qty","type":"uint256","internalType":"uint256"},{"name":"roiN","type":"uint256","internalType":"uint256"},{"name":"roiD","type":"uint256","internalType":"uint256"},{"name":"roiInt","type":"uint256","internalType":"uint256"}],"stateMutability":"view"},{"type":"function","name":"valInternal","inputs":[],"outputs":[{"name":"qty","type":"uint256","internalType":"uint256"},{"name":"roiN","type":"uint256","internalType":"uint256"},{"name":"roiD","type":"uint256","internalType":"uint256"},{"name":"roiInt","type":"uint256","internalType":"uint256"}],"stateMutability":"view"},{"type":"event","name":"EthBurned","inputs":[{"name":"sender","type":"address","indexed":true,"internalType":"address"},{"name":"amount","type":"uint256","indexed":false,"internalType":"uint256"}],"anonymous":false},{"type":"event","name":"EthTransferred","inputs":[{"name":"to","type":"address","indexed":true,"internalType":"address"},{"name":"amount","type":"uint256","indexed":false,"internalType":"uint256"}],"anonymous":false},{"type":"event","name":"HexBaseUpdated","inputs":[{"name":"previousHexBase","type":"address","indexed":true,"internalType":"address"},{"name":"newHexBase","type":"address","indexed":true,"internalType":"address"}],"anonymous":false},{"type":"event","name":"OwnerUpdated","inputs":[{"name":"previousOwner","type":"address","indexed":true,"internalType":"address"},{"name":"newOwner","type":"address","indexed":true,"internalType":"address"}],"anonymous":false},{"type":"error","name":"TargetCallFailed","inputs":[{"name":"selector","type":"bytes4","internalType":"bytes4"}]}],"bytecode":{"object":"0x6080346200151a57601f620043cd38819003918201601f19168301916001600160401b038311848410176200151f578084926020946040528339810103126200151a57516001600160a01b038116908190036200151a578015620014d55760018060a01b0319338160015416176001556000541617600055601e60255560036026556004602755600160285560016029556002602a5561c350602b55610258602c556003602d556019602e5568878678326eac900000602f55670de0b6b3a764000060315569021e19e0c9bab240000060325560016033556005603c5560ff19603d5416603d5561025860c0620000f5620015b5565b6002815260646020820152600160408201526023606082015260646080820152600160a082015201526002600755606460085560016009556023600a556064600b556001600c55610258600d556200014c62001535565b6002815261025860c06103f29283602082015260016040820152600b6060820152600a6080820152600160a082015201526002600e5580600f556001601055600b601155600a601255600160135561025860145561025860c0620001af62001535565b60028152836020820152600160408201526044606082015260646080820152600160a0820152015260026015556016556001601755604460185560646019556001601a55610258601b55605a604062000207620015ea565b60198152600a602082015201526019601c55600a601d55605a601e5560406200022f620015ea565b600581526001602082015261016891829101526005601f556001602055602155600160a06200025d620015b5565b60048152826020820152826040820152826060820152826080820152600060c08201520152600460225564010101010165ffffffffffff196023541617602355620002a762001624565b610258606061014092838152600b6020820152600a60408201520152603455600b603555600a6036556102586037556102586060620002e562001624565b60a08152600b6020820152600a6040820152015260a0603855600b603955600a603a55610258603b55620003446200031c62001555565b680821ab0d44149800008152601e60208201526001600052603060205260406000206200165a565b6200037a6200035262001555565b681043561a88293000008152601e60208201526002600052603060205260406000206200165a565b620003b06200038862001555565b682086ac3510526000008152601e60208201526003600052603060205260406000206200165a565b620003e6620003be62001555565b6830ca024f987b9000008152601e60208201526004600052603060205260406000206200165a565b6200041c620003f462001555565b685150ae84a8cdf000008152601e60208201526005600052603060205260406000206200165a565b620004526200042a62001555565b6871d75ab9b9205000008152601e60208201526006600052603060205260406000206200165a565b620004886200046062001555565b68a2a15d09519be000008152601e60208201526007600052603060205260406000206200165a565b620004b66200049662001555565b60078152601960208201526001600052600460205260406000206200165a565b620004e4620004c462001555565b60078152606460208201526002600052600460205260406000206200165a565b62000513620004f262001555565b600781526101f460208201526003600052600460205260406000206200165a565b620005426200052162001555565b600781526107d060208201526004600052600460205260406000206200165a565b620005716200055062001555565b6007815261138860208201526005600052600460205260406000206200165a565b620005a06200057f62001555565b6007815261271060208201526006600052600460205260406000206200165a565b620005cf620005ae62001555565b600781526161a860208201526007600052600460205260406000206200165a565b620005d962001575565b60008082526006602080840182815260016040860181815260056060880190815260808801838152929096529390925293517f3e5fec24aa4dc4e5aee2e025e51e1392c72a2500577559fae9665c6d52bd6a315592517f3e5fec24aa4dc4e5aee2e025e51e1392c72a2500577559fae9665c6d52bd6a3255517f3e5fec24aa4dc4e5aee2e025e51e1392c72a2500577559fae9665c6d52bd6a3355517f3e5fec24aa4dc4e5aee2e025e51e1392c72a2500577559fae9665c6d52bd6a3455517f3e5fec24aa4dc4e5aee2e025e51e1392c72a2500577559fae9665c6d52bd6a3555620006c462001575565b600080825260036020808401918252600160408501818152600560608701908152608087019283526002909552600690925293517f8819ef417987f8ae7a81f42cdfb18815282fe989326fbff903d13cf0e03ace295590517f8819ef417987f8ae7a81f42cdfb18815282fe989326fbff903d13cf0e03ace2a55517f8819ef417987f8ae7a81f42cdfb18815282fe989326fbff903d13cf0e03ace2b55517f8819ef417987f8ae7a81f42cdfb18815282fe989326fbff903d13cf0e03ace2c55517f8819ef417987f8ae7a81f42cdfb18815282fe989326fbff903d13cf0e03ace2d55620007b162001575565b60028152600f6020808301918252600a604084019081526005606085019081526001608086019081526003600052600690935293517f75f96ab15d697e93042dc45b5c896c4b27e89bb6eaf39475c5c371cb2513f7d25591517f75f96ab15d697e93042dc45b5c896c4b27e89bb6eaf39475c5c371cb2513f7d35590517f75f96ab15d697e93042dc45b5c896c4b27e89bb6eaf39475c5c371cb2513f7d45590517f75f96ab15d697e93042dc45b5c896c4b27e89bb6eaf39475c5c371cb2513f7d555517f75f96ab15d697e93042dc45b5c896c4b27e89bb6eaf39475c5c371cb2513f7d655620008a162001575565b60028152600f6020808301918252600a604084019081526005606085019081526001608086019081526004600052600690935293517fc5069e24aaadb2addc3e52e868fcf3f4f8acf5a87e24300992fd4540c2a87eed5591517fc5069e24aaadb2addc3e52e868fcf3f4f8acf5a87e24300992fd4540c2a87eee5590517fc5069e24aaadb2addc3e52e868fcf3f4f8acf5a87e24300992fd4540c2a87eef5590517fc5069e24aaadb2addc3e52e868fcf3f4f8acf5a87e24300992fd4540c2a87ef055517fc5069e24aaadb2addc3e52e868fcf3f4f8acf5a87e24300992fd4540c2a87ef1556200099162001575565b60028152600f6020808301918252600a60408401908152600560608501818152600160808701908152600092909252600690935293517fbfd358e93f18da3ed276c3afdbdba00b8f0b6008a03476a6a86bd6320ee6938b5591517fbfd358e93f18da3ed276c3afdbdba00b8f0b6008a03476a6a86bd6320ee6938c5590517fbfd358e93f18da3ed276c3afdbdba00b8f0b6008a03476a6a86bd6320ee6938d55517fbfd358e93f18da3ed276c3afdbdba00b8f0b6008a03476a6a86bd6320ee6938e55517fbfd358e93f18da3ed276c3afdbdba00b8f0b6008a03476a6a86bd6320ee6938f5562000a8162001575565b60028152604b602080830191825260646040840181815260fa60608601908152608086019283526006600081905290935293517f697b2bd7bb2984c4e0dc14c79c987d37818484a62958b9c45a0e8b962f20650f5591517f697b2bd7bb2984c4e0dc14c79c987d37818484a62958b9c45a0e8b962f2065105591517f697b2bd7bb2984c4e0dc14c79c987d37818484a62958b9c45a0e8b962f2065115590517f697b2bd7bb2984c4e0dc14c79c987d37818484a62958b9c45a0e8b962f20651255517f697b2bd7bb2984c4e0dc14c79c987d37818484a62958b9c45a0e8b962f2065135562000b6f62001575565b60028152604b602080830191825260646040840181815260fa60608601908152608086019283526007600052600690935293517f4ced6d0d36392b04cc5d8761b1327b3bbba6e1089c77f60a9a9ca18e05e4f00e5591517f4ced6d0d36392b04cc5d8761b1327b3bbba6e1089c77f60a9a9ca18e05e4f00f5591517f4ced6d0d36392b04cc5d8761b1327b3bbba6e1089c77f60a9a9ca18e05e4f0105590517f4ced6d0d36392b04cc5d8761b1327b3bbba6e1089c77f60a9a9ca18e05e4f01155517f4ced6d0d36392b04cc5d8761b1327b3bbba6e1089c77f60a9a9ca18e05e4f0125562000c5d62001575565b60028152604b602080830191825260646040840181815260fa60608601908152608086019283526008600052600690935293517fb8d683c9d414f481826f3e7fe14b3ac6ae8c73450778287390c4bb8cb9f2e80b5591517fb8d683c9d414f481826f3e7fe14b3ac6ae8c73450778287390c4bb8cb9f2e80c5591517fb8d683c9d414f481826f3e7fe14b3ac6ae8c73450778287390c4bb8cb9f2e80d5590517fb8d683c9d414f481826f3e7fe14b3ac6ae8c73450778287390c4bb8cb9f2e80e55517fb8d683c9d414f481826f3e7fe14b3ac6ae8c73450778287390c4bb8cb9f2e80f5562000d4b62001575565b60028152604b602080830191825260646040840181815260fa60608601908152608086019283526009600052600690935293517fca4d0c6c94a9477136dd41a99cc19ecbe441c8f6609efe7c6fa65be007a473235591517fca4d0c6c94a9477136dd41a99cc19ecbe441c8f6609efe7c6fa65be007a473245591517fca4d0c6c94a9477136dd41a99cc19ecbe441c8f6609efe7c6fa65be007a473255590517fca4d0c6c94a9477136dd41a99cc19ecbe441c8f6609efe7c6fa65be007a4732655517fca4d0c6c94a9477136dd41a99cc19ecbe441c8f6609efe7c6fa65be007a473275562000e3962001575565b60028152604b602080830191825260646040840181815260fa6060860190815260808601928352600a600052600690935293517f4da38fc8e544afc56a4c2a17752b8ddb67d8e23ac4583c9029d2e2d1dbe6c9885591517f4da38fc8e544afc56a4c2a17752b8ddb67d8e23ac4583c9029d2e2d1dbe6c9895591517f4da38fc8e544afc56a4c2a17752b8ddb67d8e23ac4583c9029d2e2d1dbe6c98a5590517f4da38fc8e544afc56a4c2a17752b8ddb67d8e23ac4583c9029d2e2d1dbe6c98b55517f4da38fc8e544afc56a4c2a17752b8ddb67d8e23ac4583c9029d2e2d1dbe6c98c5562000f2762001575565b60028152604b602080830191825260646040840181815260fa6060860190815260808601928352600b600052600690935293517f85291c2e7881182c13e19eca9b58927ebfdc2c5d04882018eeb33d8241d357115591517f85291c2e7881182c13e19eca9b58927ebfdc2c5d04882018eeb33d8241d357125591517f85291c2e7881182c13e19eca9b58927ebfdc2c5d04882018eeb33d8241d357135590517f85291c2e7881182c13e19eca9b58927ebfdc2c5d04882018eeb33d8241d3571455517f85291c2e7881182c13e19eca9b58927ebfdc2c5d04882018eeb33d8241d35715556200101562001575565b60028152604b602080830191825260646040840181815260fa6060860190815260808601928352600c600052600690935293517f0b94fa1b86997cc1f1148bfbe25b674e8cefc7cc6f976aa8d7c7966bd4cca3475591517f0b94fa1b86997cc1f1148bfbe25b674e8cefc7cc6f976aa8d7c7966bd4cca3485591517f0b94fa1b86997cc1f1148bfbe25b674e8cefc7cc6f976aa8d7c7966bd4cca3495590517f0b94fa1b86997cc1f1148bfbe25b674e8cefc7cc6f976aa8d7c7966bd4cca34a55517f0b94fa1b86997cc1f1148bfbe25b674e8cefc7cc6f976aa8d7c7966bd4cca34b556200110362001575565b60028152604b602080830191825260646040840181815260fa6060860190815260808601928352600d600052600690935293517f248457bacb20e239ae314d8db91c0f270e453c28ee138c84f97aea6cfcf9a4995591517f248457bacb20e239ae314d8db91c0f270e453c28ee138c84f97aea6cfcf9a49a5591517f248457bacb20e239ae314d8db91c0f270e453c28ee138c84f97aea6cfcf9a49b5590517f248457bacb20e239ae314d8db91c0f270e453c28ee138c84f97aea6cfcf9a49c55517f248457bacb20e239ae314d8db91c0f270e453c28ee138c84f97aea6cfcf9a49d55620011f162001575565b60028152604b602080830191825260646040840181815260fa6060860190815260808601928352600e600052600690935293517faca6cdb4b5fe0ec50731a73f714dd191dc1911bfeb3f9eeb9e94ed0f6065ef8d5591517faca6cdb4b5fe0ec50731a73f714dd191dc1911bfeb3f9eeb9e94ed0f6065ef8e5591517faca6cdb4b5fe0ec50731a73f714dd191dc1911bfeb3f9eeb9e94ed0f6065ef8f5590517faca6cdb4b5fe0ec50731a73f714dd191dc1911bfeb3f9eeb9e94ed0f6065ef9055517faca6cdb4b5fe0ec50731a73f714dd191dc1911bfeb3f9eeb9e94ed0f6065ef9155620012df62001575565b60028152604b602080830191825260646040840181815260fa6060860190815260808601928352600f600052600690935293517ff130046d53bc87538ab17e4752ba5f5082985eecc06ccb932c5a55e8242dd5025591517ff130046d53bc87538ab17e4752ba5f5082985eecc06ccb932c5a55e8242dd5035591517ff130046d53bc87538ab17e4752ba5f5082985eecc06ccb932c5a55e8242dd5045590517ff130046d53bc87538ab17e4752ba5f5082985eecc06ccb932c5a55e8242dd50555517ff130046d53bc87538ab17e4752ba5f5082985eecc06ccb932c5a55e8242dd50655620013f8620013d162001595565b60128152600a6020820152602d604082015260036000526005602052604060002062001609565b6200142d6200140662001595565b60128152600a6020820152605a604082015260056000526005602052604060002062001609565b620014636200143b62001595565b60098152600a602082015261270f604082015260076000526005602052604060002062001609565b60036020526802b5e3af16b18800007fc3a24b0501bd2c13a7e57f2db4369ec4c223447539fc0724a9d55ac4a06ebd4d556004600052681b1ae4d6e2ef5000007f83ec6a1f0257b830b5e016457c9cf1435391bf56cc98f369a58a54fe9377246555604051612d6190816200166c8239f35b60405162461bcd60e51b815260206004820152601360248201527f6f776e2e696e76616c69642e68657862617365000000000000000000000000006044820152606490fd5b600080fd5b634e487b7160e01b600052604160045260246000fd5b6040519060e082016001600160401b038111838210176200151f57604052565b60408051919082016001600160401b038111838210176200151f57604052565b6040519060a082016001600160401b038111838210176200151f57604052565b60405190606082016001600160401b038111838210176200151f57604052565b620015bf62001535565b9060008083528060208401528060408401528060608401528060808401528060a084015260c0830152565b620015f462001595565b90600082526000602083015260006040830152565b90604060029180518455602081015160018501550151910155565b60405190608082016001600160401b038111838210176200151f5760405260006060838281528260208201528260408201520152565b90602060019180518455015191015556fe60806040526004361015610018575b361561001657005b005b60003560e01c80630609a0e31461044857806307175c831461044357806309307c621461043e5780630b225f1a146104395780630ea0d2221461043457806311df44db1461042f57806312065fe01461042a57806314be92a51461042557806315a544ed146104205780631605aed91461041b57806316f0115b14610416578063192b48ee146104115780631f185d161461040c57806326c5adae14610407578063298fc460146104025780633688236d146103fd5780633b9b7955146103f85780634151331d146103f3578063438fe192146103ee57806343c06bc4146103e957806344ec16bc146103e45780634b62954f146103df5780634dd4396c146103da57806353423e86146103d5578063541d7667146103d057806354541683146103cb5780635640dbfc146103c6578063582003d1146103c1578063592a02a8146103bc5780635962205f146103b75780635a0e9038146103b257806363b2b474146103ad5780636b81c82f146103a85780636c7deb5d146103a35780636f092c5e1461039e5780637687e3711461039957806378ef376f146103945780637bc908c61461038f5780638da5cb5b1461038a5780638e3719e71461038557806391fc8aa8146103805780639319d0b51461037b578063991bf5cc146103765780639ce7ce0f146103715780639d80ab9b1461036c5780639eb8b44e14610367578063a19841dd14610362578063a1f7f5391461035d578063a88fcea614610358578063aebcd32a14610353578063af0b21d31461034e578063af48452614610349578063b49c064c14610344578063b85f1f8d1461033f578063b90306ad1461033a578063bcf71cd814610335578063c54e44b014610330578063c5a136d41461032b578063e01ad5fd14610326578063e0a9bc2b14610321578063e19a5bcf1461031c578063e2a1f69a14610317578063eddd0d9c14610312578063f2a6bbc71461030d578063f4fe8e3c14610308578063fc0e74d1146103035763fdc10bc90361000e57612166565b612143565b612099565b611ff2565b611f4b565b611f13565b611e60565b611e45565b611da6565b611cb8565b611c1c565b611b6f565b611abc565b611a92565b611a6f565b611a3e565b611a20565b6119e8565b6119ca565b611923565b6118f5565b611732565b6116bf565b6115e6565b6114ee565b611447565b611429565b61140b565b6113e2565b6113c4565b61131d565b611259565b61122d565b611186565b6110ac565b611070565b611046565b610fee565b610f38565b610f11565b610ea4565b610e86565b610e15565b610df7565b610dbf565b610d01565b610c5a565b610bad565b610b8f565b610b53565b610b14565b610ae3565b610a1f565b61095b565b61086e565b6107b6565b61077e565b610760565b610742565b61069b565b61067f565b610643565b6105f7565b6105d9565b61052c565b61050e565b3461050957602036600319011261050957610469610464612361565b6127de565b61047233612489565b801561048d575b6104829061281f565b610016600435602555565b50600054604051630536340960e21b8152906001600160a01b03906020908390600490829085165afa90811561050457610482926000926104d4575b501633149050610479565b6104f691925060203d81116104fd575b6104ee8183612280565b8101906122a3565b90386104c9565b503d6104e4565b6122bb565b600080fd5b34610509576000366003190112610509576020602e54604051908152f35b3461050957604036600319011261050957610548610464612361565b61055133612489565b8015610572575b6105619061281f565b610016602435600435603155603255565b50600054604051630536340960e21b8152906001600160a01b03906020908390600490829085165afa90811561050457610561926000926105b9575b501633149050610558565b6105d291925060203d81116104fd576104ee8183612280565b90386105ae565b34610509576000366003190112610509576020603c54604051908152f35b34610509576000366003190112610509576020602c54604051908152f35b93909796959260c0959260e08601998652602086015260408501526060840152608083015260a08201520152565b3461050957600036600319011261050957600e54600f549061067b601054601154601254601354916014549360405197889788610615565b0390f35b3461050957600036600319011261050957602047604051908152f35b34610509576020366003190112610509576106b7610464612361565b6106c033612489565b80156106db575b6106d09061281f565b610016600435602c55565b50600054604051630536340960e21b8152906001600160a01b03906020908390600490829085165afa908115610504576106d092600092610722575b5016331490506106c7565b61073b91925060203d81116104fd576104ee8183612280565b9038610717565b34610509576000366003190112610509576020603254604051908152f35b34610509576000366003190112610509576020603154604051908152f35b34610509576000366003190112610509576007546008549061067b600954600a54600b54600c5491600d549360405197889788610615565b34610509576020366003190112610509576107d2610464612361565b6107db33612489565b80156107f6575b6107eb9061281f565b6100166004356128af565b50600054604051630536340960e21b8152906001600160a01b03906020908390600490829085165afa908115610504576107eb9260009261083d575b5016331490506107e2565b61085691925060203d81116104fd576104ee8183612280565b9038610832565b6001600160a01b0381160361050957565b34610509576020806003193601126105095760049081359061088f8261085d565b60005481906001600160a01b0316604051634bf9c0ad60e11b815294859182905afa918215610504576108e261091c936108fe9261067b96600092610938575b506108f090604051938491878301610b01565b03601f198101845283612280565b6108f8612523565b906126ca565b91908061092e575b61090f90612550565b808251830101910161234c565b60405190151581529081906020820190565b5081518114610906565b6108f091925061095490863d88116104fd576104ee8183612280565b91906108cf565b34610509576020366003190112610509576000546040516369e8d84b60e11b815290602090829060049082906001600160a01b03165afa8015610504576109c36109e79161067b936000916109f7575b506109b4612cc5565b906109bd612cdd565b906127a0565b6109e2600435916109dd6109d8602e54612869565b612869565b612d0b565b61289c565b6040519081529081906020820190565b610a0f915060203d81116104fd576104ee8183612280565b386109ab565b8015150361050957565b3461050957602036600319011261050957600435610a3c81610a15565b610a47610464612361565b610a5033612489565b8015610a76575b90610a646100169261281f565b60ff8019603d54169115151617603d55565b50600054604051630536340960e21b81526001600160a01b0392916020908290600490829087165afa80156105045761001693610a6492600092610ac3575b503391161491925050610a57565b610adc91925060203d81116104fd576104ee8183612280565b9038610ab5565b34610509576000366003190112610509576020602b54604051908152f35b6001600160a01b03909116815260200190565b34610509576000366003190112610509576000546040516001600160a01b039091168152602090f35b6040919493926060820195825260208201520152565b346105095760203660031901126105095760043560005260056020526040600020805461067b6002600184015493015460405193849384610b3d565b34610509576000366003190112610509576020602954604051908152f35b3461050957606036600319011261050957610bc9610464612361565b610bd233612489565b8015610bf3575b610be29061281f565b6100166044356024356004356129b7565b50600054604051630536340960e21b8152906001600160a01b03906020908390600490829085165afa90811561050457610be292600092610c3a575b501633149050610bd9565b610c5391925060203d81116104fd576104ee8183612280565b9038610c2f565b3461050957602036600319011261050957610c76610464612361565b610c7f33612489565b8015610c9a575b610c8f9061281f565b610016600435602855565b50600054604051630536340960e21b8152906001600160a01b03906020908390600490829085165afa90811561050457610c8f92600092610ce1575b501633149050610c86565b610cfa91925060203d81116104fd576104ee8183612280565b9038610cd6565b3461050957604036600319011261050957610d1d610464612361565b610d2633612489565b8015610d47575b610d369061281f565b610016602435600435602a55602b55565b50600054604051630536340960e21b8152906001600160a01b03906020908390600490829085165afa90811561050457610d3692600092610d8e575b501633149050610d2d565b610da791925060203d81116104fd576104ee8183612280565b9038610d83565b908152602081019190915260400190565b346105095760203660031901126105095760043560005260306020526040600020600181549101549061067b60405192839283610dae565b34610509576000366003190112610509576020602d54604051908152f35b34610509576020366003190112610509576000546040516369e8d84b60e11b815290602090829060049082906001600160a01b03165afa801561050457610e6d6109e79161067b936000916109f757506109b4612cc5565b60043560005260036020526109dd604060002054612869565b34610509576000366003190112610509576020602854604051908152f35b346105095760003660031901126105095760e060225460235460405191825260ff9081811615156020840152818160081c1615156040840152818160101c1615156060840152818160181c1615156080840152818160201c16151560a084015260281c16151560c0820152f35b34610509576000366003190112610509576026546027549061067b60405192839283610dae565b346105095760c036600319011261050957610f54610464612361565b610f5d33612489565b8015610f87575b610f6d9061281f565b61001660a4356084356064356044356024356004356128bd565b50600054604051630536340960e21b8152906001600160a01b03906020908390600490829085165afa90811561050457610f6d92600092610fce575b501633149050610f64565b610fe791925060203d81116104fd576104ee8183612280565b9038610fc3565b3461050957602036600319011261050957600435600052600660205260a06040600020805490600181015490600281015460046003830154920154926040519485526020850152604084015260608301526080820152f35b3461050957600036600319011261050957601c54601d549061067b601e5460405193849384610b3d565b34610509576000366003190112610509576020602654604051908152f35b60809060031901126105095760043590602435906044359060643590565b34610509576110ba3661108e565b926110c9610464939293612361565b6110d233612489565b801561111a575b906110e560029261281f565b6110ed612b18565b5060018114611109575b146110fe57005b601f55602055602155005b82601c5583601d5584601e556110f7565b50600054604051630536340960e21b81526001600160a01b0392916020908290600490829087165afa8015610504576002936110e592600092611166575b5033911614919250506110d9565b61117f91925060203d81116104fd576104ee8183612280565b9038611158565b34610509576020366003190112610509576111a2610464612361565b6111ab33612489565b80156111c6575b6111bb9061281f565b610016600435602d55565b50600054604051630536340960e21b8152906001600160a01b03906020908390600490829085165afa908115610504576111bb9260009261120d575b5016331490506111b2565b61122691925060203d81116104fd576104ee8183612280565b9038611202565b346105095760203660031901126105095760043560005260036020526020604060002054604051908152f35b346105095760203660031901126105095760043561127681610a15565b611281610464612361565b61128a33612489565b80156112b0575b9061129e6100169261281f565b60ff8019602454169115151617602455565b50600054604051630536340960e21b81526001600160a01b0392916020908290600490829087165afa8015610504576100169361129e926000926112fd575b503391161491925050611291565b61131691925060203d81116104fd576104ee8183612280565b90386112ef565b3461050957602036600319011261050957611339610464612361565b61134233612489565b801561135d575b6113529061281f565b610016600435603355565b50600054604051630536340960e21b8152906001600160a01b03906020908390600490829085165afa90811561050457611352926000926113a4575b501633149050611349565b6113bd91925060203d81116104fd576104ee8183612280565b9038611399565b34610509576000366003190112610509576020603354604051908152f35b34610509576000366003190112610509576001546040516001600160a01b039091168152602090f35b34610509576000366003190112610509576020602754604051908152f35b34610509576000366003190112610509576020602f54604051908152f35b3461050957602036600319011261050957611463610464612361565b61146c33612489565b8015611487575b61147c9061281f565b610016600435602955565b50600054604051630536340960e21b8152906001600160a01b03906020908390600490829085165afa9081156105045761147c926000926114ce575b501633149050611473565b6114e791925060203d81116104fd576104ee8183612280565b90386114c3565b346105095760e03660031901126105095760243561150b81610a15565b60443561151781610a15565b60643561152381610a15565b60843561152f81610a15565b60a4359161153c83610a15565b60c4359361154985610a15565b611554610464612361565b61155d33612489565b8015611579575b956115716100169761281f565b600435612a05565b50600054604051630536340960e21b81526001600160a01b039791602090829060049082908c165afa80156105045761001698611571926000926115c6575b503391161491975050611564565b6115df91925060203d81116104fd576104ee8183612280565b90386115b8565b346105095761010036600319011261050957611603610464612361565b61160c33612489565b801561163c575b61161c9061281f565b61001660e43560c43560a435608435606435604435602435600435612b5f565b50600054604051630536340960e21b8152906001600160a01b03906020908390600490829085165afa9081156105045761161c92600092611683575b501633149050611613565b61169c91925060203d81116104fd576104ee8183612280565b9038611678565b9094939260609260808301968352602083015260408201520152565b34610509576000366003190112610509576034546035549061067b60365460375490604051948594856116a3565b6102a0810192916000915b6007831061170557505050565b600190606083519182518152602092838101518483015260408091015190820152019201920191906116f8565b346105095760003660031901126105095760405161174f8161220f565b60005b60e081106118e05761067b6117656122c7565b6001600052600560205261179d7f1471eb6eb2c5e789fc3de43f8ce62938c7d1836ec861730447e2ada8fd81017b612b37565b612b37565b8152600260005260056020526117d27f89832631fb3c3307a103ba2c84ab569c64d6182a18893dcd163f0f1c2090733a612b37565b60208201526117ef61179860036000526005602052604060002090565b6040820152600460005260056020526118277f3eec716f11ba9e820c81ca75eb978ffb45831ef8b7a53e5e422c26008e1ca6d5612b37565b60608201526005600081905260205261185f7f458b30c2d72bfd2c6317304a4594ecbafe5f729d3111b65fdc3a33bd48e5432d612b37565b6080820152600660005260056020526118977f069400f22b28c6c362558d92f66163cec5671cba50b61abd2eecfcd0eaeac518612b37565b60a0820152600760005260056020526118cf7feddb6698d7c569ff62ff64f1f1492bf14a54594835ba0faac91f84b4f5d81460612b37565b60c0820152604051918291826116ed565b6020906118eb612b18565b8184015201611752565b34610509576000366003190112610509576038546039549061067b603a54603b5490604051948594856116a3565b346105095760003660031901126105095760005460405163d1f956b160e01b815290602090829060049082906001600160a01b03165afa9081156105045761067b916109e7916000916119ac575b5060405161197e8161224a565b601381527267657464656c656761746f72436f756e74282960681b60208201526119a66122f1565b916127a0565b6119c4915060203d81116104fd576104ee8183612280565b38611971565b34610509576000366003190112610509576020602a54604051908152f35b346105095760203660031901126105095760043560005260046020526040600020600181549101549061067b60405192839283610dae565b34610509576000366003190112610509576020602554604051908152f35b34610509576020366003190112610509576020611a65600435611a608161085d565b612489565b6040519015158152f35b3461050957600036600319011261050957602060ff603d54166040519015158152f35b3461050957600036600319011261050957601f546020549061067b60215460405193849384610b3d565b3461050957602036600319011261050957600054604051630536340960e21b8152906001600160a01b03906020908390600490829085165afa91821561050457600092611b4f575b5033911603611b18576100166004356125f9565b60405162461bcd60e51b815260206004820152600f60248201526e6f776e2e6e6f6e617574682e44414f60881b6044820152606490fd5b611b6891925060203d81116104fd576104ee8183612280565b9038611b04565b3461050957604036600319011261050957611b8b610464612361565b611b9433612489565b8015611bb5575b611ba49061281f565b610016602435600435602655602755565b50600054604051630536340960e21b8152906001600160a01b03906020908390600490829085165afa90811561050457611ba492600092611bfc575b501633149050611b9b565b611c1591925060203d81116104fd576104ee8183612280565b9038611bf1565b3461050957602036600319011261050957600435611c398161085d565b803b6000611c46826122d6565b92611c546040519485612280565b82845260208401903c602d815110611c7d57602a61067b91015160601c60405191829182610b01565b60405162461bcd60e51b81526020600482015260136024820152724e6f742061206d696e696d616c2070726f787960681b6044820152606490fd5b3461050957611cc63661108e565b90611cd5610464949394612361565b611cde33612489565b8015611d3a575b92611cf160029461281f565b611cfd6008821061297c565b60405194611d0a8661222f565b85526020850191825260408501928352600052600560205260406000209351845551600184015551910155600080f35b50600054604051630536340960e21b81526001600160a01b0394916020908290600490829089165afa801561050457600295611cf192600092611d86575b503391161491945050611ce5565b611d9f91925060203d81116104fd576104ee8183612280565b9038611d78565b34610509576020806003193601126105095760048035611dc58161085d565b60005460405163d1f956b160e01b81526001600160a01b03949093909182918591829088165afa9081156105045761067b9461091c94600093611e26575b506040519316818401528252611e188261224a565b611e20612595565b90612764565b611e3e919350823d84116104fd576104ee8183612280565b9138611e03565b34610509576000366003190112610509576020611a65612361565b346105095760a036600319011261050957611e7c610464612361565b611e8533612489565b8015611eac575b611e959061281f565b610016608435606435604435602435600435612c50565b50600054604051630536340960e21b8152906001600160a01b03906020908390600490829085165afa90811561050457611e9592600092611ef3575b501633149050611e8c565b611f0c91925060203d81116104fd576104ee8183612280565b9038611ee8565b34610509576000366003190112610509576015546016549061067b601754601854601954601a5491601b549360405197889788610615565b3461050957602036600319011261050957611f67610464612361565b611f7033612489565b8015611f8b575b611f809061281f565b610016600435602e55565b50600054604051630536340960e21b8152906001600160a01b03906020908390600490829085165afa90811561050457611f8092600092611fd2575b501633149050611f77565b611feb91925060203d81116104fd576104ee8183612280565b9038611fc7565b346105095760203660031901126105095761200e610464612361565b61201733612489565b8015612032575b6120279061281f565b610016600435603c55565b50600054604051630536340960e21b8152906001600160a01b03906020908390600490829085165afa9081156105045761202792600092612079575b50163314905061201e565b61209291925060203d81116104fd576104ee8183612280565b903861206e565b34610509576040366003190112610509576120b5610464612361565b6120be33612489565b80156120dc575b6120ce9061281f565b610016602435600435612afc565b50600054604051630536340960e21b8152906001600160a01b03906020908390600490829085165afa908115610504576120ce92600092612123575b5016331490506120c5565b61213c91925060203d81116104fd576104ee8183612280565b9038612118565b3461050957600036600319011261050957602060ff602454166040519015158152f35b346105095760003660031901126105095760005460405163111ea8c160e21b815290602090829060049082906001600160a01b03165afa9081156105045761067b916109e7916000916121db575b506040516121c18161224a565b6005815264616765282960d81b60208201526119a66122f1565b6121f3915060203d81116104fd576104ee8183612280565b386121b4565b634e487b7160e01b600052604160045260246000fd5b60e081019081106001600160401b0382111761222a57604052565b6121f9565b606081019081106001600160401b0382111761222a57604052565b604081019081106001600160401b0382111761222a57604052565b602081019081106001600160401b0382111761222a57604052565b601f909101601f19168101906001600160401b0382119082101761222a57604052565b9081602091031261050957516122b88161085d565b90565b6040513d6000823e3d90fd5b604051906122d48261220f565b565b6001600160401b03811161222a57601f01601f191660200190565b604051906122fe82612265565b60008252565b1561230b57565b60405162461bcd60e51b81526020600482015260196024820152781bdddb8b9cd8599959dd585c990b98d85b1b0b99985a5b1959603a1b6044820152606490fd5b9081602091031261050957516122b881610a15565b600054604051634bf9c0ad60e11b8152906020908190839060049082906001600160a01b03165afa918215610504576122b8926123d7916000916123f2575b506040516123ad8161224a565b6008815267697353616665282960c01b84820152604051916123ce83612265565b600083526126ca565b9190806123e8575b61090f90612304565b50815181146123df565b6124099150833d85116104fd576104ee8183612280565b386123a0565b6040519061241c8261224a565b601582527469735365637572654261736528616464726573732960581b6020830152565b1561244757565b60405162461bcd60e51b815260206004820152601a6024820152791bdddb8b9cd958dd5c9958985cd94b98d85b1b0b99985a5b195960321b6044820152606490fd5b6000546001600160a01b0316604051918291634bf9c0ad60e11b835282600460209485935afa928315610504576122b8936124e5926108e292600092612500575b506124dd90604051938491878301610b01565b6108f861240f565b9190806124f6575b61090f90612440565b50815181146124ed565b6124dd91925061251c90863d88116104fd576104ee8183612280565b91906124ca565b604051906125308261224a565b601182527069735369676e657228616464726573732960781b6020830152565b1561255757565b60405162461bcd60e51b81526020600482015260166024820152751bdddb8b9cda59db995c8b98d85b1b0b99985a5b195960521b6044820152606490fd5b604051906125a28261224a565b6018825277697364656c656761746f724e6f646528616464726573732960401b6020830152565b3d156125f4573d906125da826122d6565b916125e86040519384612280565b82523d6000602084013e565b606090565b600080546040516311be646b60e21b815290602090829060049082906001600160a01b03165afa9081156105045782848193829383916126ac575b505af161263f6125c9565b50156126755760405190815233907fcdcc745fe377b103b45fa0cec23ae3ef93d6fc6a84a01f0d18c40b354dd1d5d890602090a2565b60405162461bcd60e51b815260206004820152600f60248201526e1bdddb8b989d5c9b8b99985a5b1959608a1b6044820152606490fd5b6126c4915060203d81116104fd576104ee8183612280565b38612634565b9190823b1561274b578051906020918263ffffffff60e01b92012016916040519180830193845281519160005b83811061273757505050918161272460248260009795968897018783820152036004810184520182612280565b5191620dbba0fa6127336125c9565b9091565b8181018301518582016024015282016126f7565b50505060009060405161275d81612265565b6000815290565b9291612772916000946126ca565b9080612795575b6127805750565b6122b89192506020808251830101910161234c565b506020815114612779565b92916127ae916000946126ca565b90806127d3575b6127bc5750565b909150602081805181010312610509576020015190565b5060208151146127b5565b156127e557565b60405162461bcd60e51b81526020600482015260126024820152716f776e2e696e76616c69642e69735361666560701b6044820152606490fd5b1561282657565b60405162461bcd60e51b815260206004820152601b60248201527a6f776e2e6e6f6e617574682e44414f6f725365637572656261736560281b6044820152606490fd5b90670de0b6b3a76400009182810292818404149015171561288657565b634e487b7160e01b600052601160045260246000fd5b8181029291811591840414171561288657565b6128b890612869565b602f55565b9192939490946010831015612947576040519460a08601946001600160401b0386118787101761222a576122d49761291896604052875260208701526040860152606085015260808401526000526006602052604060002090565b906080600491805184556020810151600185015560408101516002850155606081015160038501550151910155565b60405162461bcd60e51b815260206004820152600d60248201526c1a5b9d985b1a59081b195d995b609a1b6044820152606490fd5b1561298357565b60405162461bcd60e51b815260206004820152600c60248201526b696e76616c69642072616e6b60a01b6044820152606490fd5b916129c46008841061297c565b6040805193908401926001600160401b0384118585101761222a57600193604052845260208401918252600052600460205260406000209251835551910155565b612add946122d49794612a76612abe95612aa19460c09a9660405190612a2a8261220f565b8282521515928360208301521515948560408301521515958660608301521515978860808301521515998a60a083015215159b8c91015260225560ff8019602354169115151617602355565b6023805462ffff00191660089290921b61ff00169190911791151560101b62ff000016919091179055565b63ff00000060235491151560181b169063ff000000191617602355565b6023805460ff60201b191691151560201b60ff60201b16919091179055565b6023805460ff60281b191691151560281b60ff60281b16919091179055565b612b086008821061297c565b6000526003602052604060002055565b60405190612b258261222f565b60006040838281528260208201520152565b90604051612b448161222f565b60406002829480548452600181015460208501520154910152565b949192600396939794919760405198612b778a61220f565b808a528160208b01528260408b01528360608b01528460808b01528560a08b01528660c08b015260018814612c2f575b5050505050505060028114612bf5575b14612bbf5750565b8051601555602081015160165560408101516017556060810151601855608081015160195560a0810151601a5560c00151601b55565b8251600e556020830151600f5560408301516010556060830151601155608083015160125560a083015160135560c0830151601455612bb7565b600755600855600955600a55600b55600c55600d5538808080808080612ba7565b6040516080810191906001600160401b0383118184101761222a5760608791600294604052858152866020820152876040820152015260018114612cb0575b14612c9b575b50505050565b603855603955603a55603b5538808080612c95565b82603455836035558460365585603755612c8f565b604051612cd181612265565b60008152906000368137565b60405190612cea8261224a565b60128252716f7a6f6e655072696365496e55534454282960701b6020830152565b8115612d15570490565b634e487b7160e01b600052601260045260246000fdfea2646970667358221220ee96c93c46dbe6883955b2d5e51efce51bd41a706d8a8c90609c97459b24465b64736f6c63430008140033","linkReferences":{}},"methodIdentifiers":{"Burn(uint256)":"b90306ad","NFTSendPerCycle()":"438fe192","_delegatorCount()":"a1f7f539","_getImplementation(address)":"c54e44b0","_isDelegatorNode(address)":"e01ad5fd","_isSafe()":"e0a9bc2b","_isSecureBase(address)":"af484526","_isSigner(address)":"1f185d16","allowForceTransfer()":"b49c064c","capOnRank(uint256)":"4dd4396c","capping()":"5640dbfc","computeMintValue(uint256)":"26c5adae","computeTour(uint256)":"541d7667","eachclaimCycle()":"7bc908c6","freeIntervals()":"af0b21d3","getBalance()":"12065fe0","getBatchRoyaltyClauses()":"9eb8b44e","getHexbase()":"3b9b7955","getLevelIncomeOnRank()":"582003d1","levelClause(uint256)":"5962205f","lvlincrankmax()":"8e3719e7","lvlincrankmin()":"63b2b474","maxClaimPerDay()":"15a544ed","maxGlobalClaimPerDay()":"91fc8aa8","maxMintQty()":"3688236d","maxMintsPerCycle()":"53423e86","maxNFTSend()":"54541683","minClaimPerDay()":"1605aed9","minMintQty()":"a88fcea6","mintCycleDays()":"0ea0d222","mintFeePerQty()":"07175c83","owner()":"8da5cb5b","pool()":"16f0115b","poolNFT1()":"5a0e9038","poolNFT2()":"b85f1f8d","poolValprivate()":"11df44db","poolValpublic()":"e2a1f69a","rankClause(uint256)":"aebcd32a","rankforDAO()":"0b225f1a","royalityClause(uint256)":"4151331d","setAllowForceTransfer(bool)":"298fc460","setCapping(uint256,bool,bool,bool,bool,bool,bool)":"991bf5cc","setClaimPerDay(uint256,uint256)":"09307c62","setCoinPool(uint256,uint256,uint256,uint256,uint256,uint256,uint256,uint256)":"9ce7ce0f","setFreeIntervals(uint256)":"0609a0e3","setGlobalClaimPerDay(uint256)":"192b48ee","setLevelIncomeOnRank(uint256,uint256)":"bcf71cd8","setMaxMintsPerCycle(uint256)":"6c7deb5d","setMaxNFTSend(uint256)":"44ec16bc","setMintCycleDays(uint256)":"14be92a5","setMintFee(uint256)":"eddd0d9c","setMintQty(uint256,uint256)":"4b62954f","setNFTSendPerCycle(uint256)":"9319d0b5","setNftPool(uint256,uint256,uint256,uint256)":"6b81c82f","setNftPool(uint256,uint256,uint256,uint256,uint256)":"e19a5bcf","setRoyalityClause(uint256,uint256,uint256,uint256)":"c5a136d4","setTourClause(uint256,uint256)":"f4fe8e3c","setclaimCycle(uint256)":"78ef376f","setlevelClause(uint256,uint256,uint256,uint256,uint256,uint256)":"592a02a8","setrankClause(uint256,uint256,uint256)":"43c06bc4","setrankforDAO(uint256)":"f2a6bbc7","setshutdown(bool)":"7687e371","shutdown()":"fc0e74d1","systemAge()":"fdc10bc9","tourClause(uint256)":"6f092c5e","valExternal()":"a19841dd","valInternal()":"9d80ab9b"},"id":36}