{"abi":[{"type":"constructor","inputs":[{"name":"_hex","type":"address","internalType":"address"}],"stateMutability":"nonpayable"},{"type":"fallback","stateMutability":"payable"},{"type":"receive","stateMutability":"payable"},{"type":"function","name":"Burn","inputs":[{"name":"amount","type":"uint256","internalType":"uint256"}],"outputs":[],"stateMutability":"nonpayable"},{"type":"function","name":"NFTSendPerCycle","inputs":[],"outputs":[{"name":"","type":"uint256","internalType":"uint256"}],"stateMutability":"view"},{"type":"function","name":"_delegatorCount","inputs":[],"outputs":[{"name":"","type":"uint256","internalType":"uint256"}],"stateMutability":"view"},{"type":"function","name":"_getImplementation","inputs":[{"name":"clone","type":"address","internalType":"address"}],"outputs":[{"name":"impl","type":"address","internalType":"address"}],"stateMutability":"view"},{"type":"function","name":"_isDelegatorNode","inputs":[{"name":"sender","type":"address","internalType":"address"}],"outputs":[{"name":"","type":"bool","internalType":"bool"}],"stateMutability":"view"},{"type":"function","name":"_isSafe","inputs":[],"outputs":[{"name":"","type":"bool","internalType":"bool"}],"stateMutability":"view"},{"type":"function","name":"_isSecureBase","inputs":[{"name":"sender","type":"address","internalType":"address"}],"outputs":[{"name":"","type":"bool","internalType":"bool"}],"stateMutability":"view"},{"type":"function","name":"_isSigner","inputs":[{"name":"sender","type":"address","internalType":"address"}],"outputs":[{"name":"","type":"bool","internalType":"bool"}],"stateMutability":"view"},{"type":"function","name":"allowForceTransfer","inputs":[],"outputs":[{"name":"","type":"bool","internalType":"bool"}],"stateMutability":"view"},{"type":"function","name":"capOnRank","inputs":[{"name":"","type":"uint256","internalType":"uint256"}],"outputs":[{"name":"maxClaim","type":"uint256","internalType":"uint256"},{"name":"cycleDays","type":"uint256","internalType":"uint256"}],"stateMutability":"view"},{"type":"function","name":"capping","inputs":[],"outputs":[{"name":"multiple","type":"uint256","internalType":"uint256"},{"name":"rw","type":"bool","internalType":"bool"},{"name":"ry","type":"bool","internalType":"bool"},{"name":"self","type":"bool","internalType":"bool"},{"name":"yei","type":"bool","internalType":"bool"},{"name":"val","type":"bool","internalType":"bool"}],"stateMutability":"view"},{"type":"function","name":"computeMintValue","inputs":[{"name":"_qty","type":"uint256","internalType":"uint256"}],"outputs":[{"name":"","type":"uint256","internalType":"uint256"}],"stateMutability":"view"},{"type":"function","name":"delegateamtprivate","inputs":[],"outputs":[{"name":"","type":"uint256","internalType":"uint256"}],"stateMutability":"view"},{"type":"function","name":"delegateamtpublic","inputs":[],"outputs":[{"name":"","type":"uint256","internalType":"uint256"}],"stateMutability":"view"},{"type":"function","name":"eachclaimCycle","inputs":[],"outputs":[{"name":"","type":"uint256","internalType":"uint256"}],"stateMutability":"view"},{"type":"function","name":"freeIntervals","inputs":[],"outputs":[{"name":"","type":"uint256","internalType":"uint256"}],"stateMutability":"view"},{"type":"function","name":"getBalance","inputs":[],"outputs":[{"name":"","type":"uint256","internalType":"uint256"}],"stateMutability":"view"},{"type":"function","name":"getBatchRoyaltyClauses","inputs":[],"outputs":[{"name":"clauses","type":"tuple[7]","internalType":"struct lib741Rules.RoyalityStr[7]","components":[{"name":"rwNum","type":"uint256","internalType":"uint256"},{"name":"rwDen","type":"uint256","internalType":"uint256"},{"name":"rwEnd","type":"uint256","internalType":"uint256"}]}],"stateMutability":"view"},{"type":"function","name":"getHexbase","inputs":[],"outputs":[{"name":"","type":"address","internalType":"address"}],"stateMutability":"view"},{"type":"function","name":"levelClause","inputs":[{"name":"","type":"uint256","internalType":"uint256"}],"outputs":[{"name":"rank","type":"uint256","internalType":"uint256"},{"name":"rwNum","type":"uint256","internalType":"uint256"},{"name":"rwrDen","type":"uint256","internalType":"uint256"},{"name":"yeiNum","type":"uint256","internalType":"uint256"},{"name":"yeiDen","type":"uint256","internalType":"uint256"}],"stateMutability":"view"},{"type":"function","name":"maxClaimPerDay","inputs":[],"outputs":[{"name":"","type":"uint256","internalType":"uint256"}],"stateMutability":"view"},{"type":"function","name":"maxGlobalClaimPerDay","inputs":[],"outputs":[{"name":"","type":"uint256","internalType":"uint256"}],"stateMutability":"view"},{"type":"function","name":"maxMintQty","inputs":[],"outputs":[{"name":"","type":"uint256","internalType":"uint256"}],"stateMutability":"view"},{"type":"function","name":"maxMintsPerCycle","inputs":[],"outputs":[{"name":"","type":"uint256","internalType":"uint256"}],"stateMutability":"view"},{"type":"function","name":"maxNFTSend","inputs":[],"outputs":[{"name":"","type":"uint256","internalType":"uint256"}],"stateMutability":"view"},{"type":"function","name":"minClaimPerDay","inputs":[],"outputs":[{"name":"","type":"uint256","internalType":"uint256"}],"stateMutability":"view"},{"type":"function","name":"minMintQty","inputs":[],"outputs":[{"name":"","type":"uint256","internalType":"uint256"}],"stateMutability":"view"},{"type":"function","name":"mintCycleDays","inputs":[],"outputs":[{"name":"","type":"uint256","internalType":"uint256"}],"stateMutability":"view"},{"type":"function","name":"mintFeePerQty","inputs":[],"outputs":[{"name":"","type":"uint256","internalType":"uint256"}],"stateMutability":"view"},{"type":"function","name":"owner","inputs":[],"outputs":[{"name":"","type":"address","internalType":"address"}],"stateMutability":"view"},{"type":"function","name":"pool","inputs":[],"outputs":[{"name":"startafter","type":"uint256","internalType":"uint256"},{"name":"stakeN","type":"uint256","internalType":"uint256"},{"name":"stakeD","type":"uint256","internalType":"uint256"},{"name":"roiN","type":"uint256","internalType":"uint256"},{"name":"roiD","type":"uint256","internalType":"uint256"},{"name":"roiInt","type":"uint256","internalType":"uint256"},{"name":"roiEnd","type":"uint256","internalType":"uint256"}],"stateMutability":"view"},{"type":"function","name":"poolNFT1","inputs":[],"outputs":[{"name":"roiN","type":"uint256","internalType":"uint256"},{"name":"roiD","type":"uint256","internalType":"uint256"},{"name":"roiInt","type":"uint256","internalType":"uint256"}],"stateMutability":"view"},{"type":"function","name":"poolNFT2","inputs":[],"outputs":[{"name":"roiN","type":"uint256","internalType":"uint256"},{"name":"roiD","type":"uint256","internalType":"uint256"},{"name":"roiInt","type":"uint256","internalType":"uint256"}],"stateMutability":"view"},{"type":"function","name":"poolValprivate","inputs":[],"outputs":[{"name":"startafter","type":"uint256","internalType":"uint256"},{"name":"stakeN","type":"uint256","internalType":"uint256"},{"name":"stakeD","type":"uint256","internalType":"uint256"},{"name":"roiN","type":"uint256","internalType":"uint256"},{"name":"roiD","type":"uint256","internalType":"uint256"},{"name":"roiInt","type":"uint256","internalType":"uint256"},{"name":"roiEnd","type":"uint256","internalType":"uint256"}],"stateMutability":"view"},{"type":"function","name":"poolValpublic","inputs":[],"outputs":[{"name":"startafter","type":"uint256","internalType":"uint256"},{"name":"stakeN","type":"uint256","internalType":"uint256"},{"name":"stakeD","type":"uint256","internalType":"uint256"},{"name":"roiN","type":"uint256","internalType":"uint256"},{"name":"roiD","type":"uint256","internalType":"uint256"},{"name":"roiInt","type":"uint256","internalType":"uint256"},{"name":"roiEnd","type":"uint256","internalType":"uint256"}],"stateMutability":"view"},{"type":"function","name":"rankClause","inputs":[{"name":"","type":"uint256","internalType":"uint256"}],"outputs":[{"name":"direct","type":"uint256","internalType":"uint256"},{"name":"nftAmount","type":"uint256","internalType":"uint256"}],"stateMutability":"view"},{"type":"function","name":"rankforDAO","inputs":[],"outputs":[{"name":"","type":"uint256","internalType":"uint256"}],"stateMutability":"view"},{"type":"function","name":"royalityClause","inputs":[{"name":"","type":"uint256","internalType":"uint256"}],"outputs":[{"name":"rwNum","type":"uint256","internalType":"uint256"},{"name":"rwDen","type":"uint256","internalType":"uint256"},{"name":"rwEnd","type":"uint256","internalType":"uint256"}],"stateMutability":"view"},{"type":"function","name":"setAllowForceTransfer","inputs":[{"name":"_f","type":"bool","internalType":"bool"}],"outputs":[],"stateMutability":"nonpayable"},{"type":"function","name":"setCapping","inputs":[{"name":"_multiple","type":"uint256","internalType":"uint256"},{"name":"_rw","type":"bool","internalType":"bool"},{"name":"_ry","type":"bool","internalType":"bool"},{"name":"_self","type":"bool","internalType":"bool"},{"name":"_yei","type":"bool","internalType":"bool"},{"name":"_val","type":"bool","internalType":"bool"}],"outputs":[],"stateMutability":"nonpayable"},{"type":"function","name":"setClaimPerDay","inputs":[{"name":"_min","type":"uint256","internalType":"uint256"},{"name":"_max","type":"uint256","internalType":"uint256"}],"outputs":[],"stateMutability":"nonpayable"},{"type":"function","name":"setCoinPool","inputs":[{"name":"_type","type":"uint256","internalType":"uint256"},{"name":"_start","type":"uint256","internalType":"uint256"},{"name":"_stakeN","type":"uint256","internalType":"uint256"},{"name":"_stakeD","type":"uint256","internalType":"uint256"},{"name":"_roiN","type":"uint256","internalType":"uint256"},{"name":"_roiD","type":"uint256","internalType":"uint256"},{"name":"_roiInt","type":"uint256","internalType":"uint256"},{"name":"_roiEnd","type":"uint256","internalType":"uint256"}],"outputs":[],"stateMutability":"nonpayable"},{"type":"function","name":"setGlobalClaimPerDay","inputs":[{"name":"_ac","type":"uint256","internalType":"uint256"}],"outputs":[],"stateMutability":"nonpayable"},{"type":"function","name":"setMaxMintsPerCycle","inputs":[{"name":"_max","type":"uint256","internalType":"uint256"}],"outputs":[],"stateMutability":"nonpayable"},{"type":"function","name":"setMaxNFTSend","inputs":[{"name":"_d","type":"uint256","internalType":"uint256"}],"outputs":[],"stateMutability":"nonpayable"},{"type":"function","name":"setMintCycleDays","inputs":[{"name":"_d","type":"uint256","internalType":"uint256"}],"outputs":[],"stateMutability":"nonpayable"},{"type":"function","name":"setMintFee","inputs":[{"name":"_fe","type":"uint256","internalType":"uint256"}],"outputs":[],"stateMutability":"nonpayable"},{"type":"function","name":"setMintQty","inputs":[{"name":"_min","type":"uint256","internalType":"uint256"},{"name":"_max","type":"uint256","internalType":"uint256"}],"outputs":[],"stateMutability":"nonpayable"},{"type":"function","name":"setNFTSendPerCycle","inputs":[{"name":"_d","type":"uint256","internalType":"uint256"}],"outputs":[],"stateMutability":"nonpayable"},{"type":"function","name":"setNftPool","inputs":[{"name":"_type","type":"uint256","internalType":"uint256"},{"name":"_roiN","type":"uint256","internalType":"uint256"},{"name":"_roiD","type":"uint256","internalType":"uint256"},{"name":"_roiInt","type":"uint256","internalType":"uint256"}],"outputs":[],"stateMutability":"nonpayable"},{"type":"function","name":"setRoyalityClause","inputs":[{"name":"_rank","type":"uint256","internalType":"uint256"},{"name":"_rwNum","type":"uint256","internalType":"uint256"},{"name":"_rwDen","type":"uint256","internalType":"uint256"},{"name":"_rwEnd","type":"uint256","internalType":"uint256"}],"outputs":[],"stateMutability":"nonpayable"},{"type":"function","name":"setclaimCycle","inputs":[{"name":"_d","type":"uint256","internalType":"uint256"}],"outputs":[],"stateMutability":"nonpayable"},{"type":"function","name":"setlevelClause","inputs":[{"name":"lvl","type":"uint256","internalType":"uint256"},{"name":"_rank","type":"uint256","internalType":"uint256"},{"name":"_rpernum","type":"uint256","internalType":"uint256"},{"name":"_rperden","type":"uint256","internalType":"uint256"},{"name":"_ypernum","type":"uint256","internalType":"uint256"},{"name":"_yperden","type":"uint256","internalType":"uint256"}],"outputs":[],"stateMutability":"nonpayable"},{"type":"function","name":"setrankClause","inputs":[{"name":"rank","type":"uint256","internalType":"uint256"},{"name":"direct","type":"uint256","internalType":"uint256"},{"name":"nftAmount","type":"uint256","internalType":"uint256"}],"outputs":[],"stateMutability":"nonpayable"},{"type":"function","name":"setrankforDAO","inputs":[{"name":"_r","type":"uint256","internalType":"uint256"}],"outputs":[],"stateMutability":"nonpayable"},{"type":"function","name":"setshutdown","inputs":[{"name":"_shutdown","type":"bool","internalType":"bool"}],"outputs":[],"stateMutability":"nonpayable"},{"type":"function","name":"setvalidatorPrice","inputs":[{"name":"_pri","type":"uint256","internalType":"uint256"},{"name":"_pub","type":"uint256","internalType":"uint256"}],"outputs":[],"stateMutability":"nonpayable"},{"type":"function","name":"shutdown","inputs":[],"outputs":[{"name":"","type":"bool","internalType":"bool"}],"stateMutability":"view"},{"type":"function","name":"systemAge","inputs":[],"outputs":[{"name":"","type":"uint256","internalType":"uint256"}],"stateMutability":"view"},{"type":"event","name":"EthBurned","inputs":[{"name":"sender","type":"address","indexed":true,"internalType":"address"},{"name":"amount","type":"uint256","indexed":false,"internalType":"uint256"}],"anonymous":false},{"type":"event","name":"EthTransferred","inputs":[{"name":"to","type":"address","indexed":true,"internalType":"address"},{"name":"amount","type":"uint256","indexed":false,"internalType":"uint256"}],"anonymous":false},{"type":"event","name":"HexBaseUpdated","inputs":[{"name":"previousHexBase","type":"address","indexed":true,"internalType":"address"},{"name":"newHexBase","type":"address","indexed":true,"internalType":"address"}],"anonymous":false},{"type":"event","name":"OwnerUpdated","inputs":[{"name":"previousOwner","type":"address","indexed":true,"internalType":"address"},{"name":"newOwner","type":"address","indexed":true,"internalType":"address"}],"anonymous":false},{"type":"error","name":"TargetCallFailed","inputs":[{"name":"selector","type":"bytes4","internalType":"bytes4"}]}],"bytecode":{"object":"0x60803462001aae57601f6200461938819003918201601f19168301916001600160401b0383118484101762001a535780849260209460405283398101031262001aae57516001600160a01b0381169081900362001aae57801562001a695760018060a01b0319338160015416176001556000541617600055601e6024556001602555600160265560026027556103e86028556102586029556003602a556019602b5568878678326eac900000602c55670de0b6b3a7640000602e5569021e19e0c9bab2400000602f55600160305561014060315560a0603255600560335560ff196034541660345561025860c0620000f662001ab3565b6002815260646020820152600160408201526023606082015260646080820152600160a0820152015260026006556064600755600160085560236009556064600a556001600b55610258600c556200014d62001ab3565b6002815261025860c06103f29283602082015260016040820152600b6060820152600a6080820152600160a082015201526002600d5580600e556001600f55600b601055600a601155600160125561025860135561025860c0620001b062001ab3565b60028152836020820152600160408201526044606082015260646080820152600160a0820152015260026014556015556001601655604460175560646018556001601955610258601a55607860406200020862001b33565b60198152600a602082015201526019601b55600a601c556078601d5560406200023062001b33565b600a8152600160208201526101689182910152600a601e556001601f556020556040518060c081011060018060401b0360c08301111762001a535760a08160c060019301604052600481528260208201528260408201528260608201528260808201520152600460215564010101010164ffffffffff19602254161760225562000325620002bd62001ad3565b680821ab0d44149800008152601e60208083019182526001600052602d905290517f4ac3b22e31fa68474eb1c8f858cd447cf1ee3eef7de8984178a7afa8f4fe0cd055517f4ac3b22e31fa68474eb1c8f858cd447cf1ee3eef7de8984178a7afa8f4fe0cd155565b6200039b6200033362001ad3565b681043561a88293000008152601e60208083019182526002600052602d905290517f3acd642f41c4abca13e6953c1b760d7f24daf271c41106e480dd1fea313ccc7255517f3acd642f41c4abca13e6953c1b760d7f24daf271c41106e480dd1fea313ccc7355565b62000411620003a962001ad3565b682086ac3510526000008152601e60208083019182526003600052602d905290517f1d82e85504d8f49072f846129ecee69c763b08a82ee3d81cda62b57a7576d37b55517f1d82e85504d8f49072f846129ecee69c763b08a82ee3d81cda62b57a7576d37c55565b620004876200041f62001ad3565b6830ca024f987b9000008152601e60208083019182526004600052602d905290517faa2e4aefbe0e8a3f17f0ef1a62898433725e8346722aad5b9b38d3974d21608355517faa2e4aefbe0e8a3f17f0ef1a62898433725e8346722aad5b9b38d3974d21608455565b620004fd6200049562001ad3565b685150ae84a8cdf000008152601e60208083019182526005600052602d905290517ff4e70c5971a4cc8cf9f9f8ecc4b5217b9d5f157385b05a56c54d37f26435621c55517ff4e70c5971a4cc8cf9f9f8ecc4b5217b9d5f157385b05a56c54d37f26435621d55565b620005736200050b62001ad3565b6871d75ab9b9205000008152601e60208083019182526006600052602d905290517fb166da6939c8546909795cbdc2ac7eb95e976cea31f094e55573dbb6ac49f74f55517fb166da6939c8546909795cbdc2ac7eb95e976cea31f094e55573dbb6ac49f75055565b620005e96200058162001ad3565b68a2a15d09519be000008152601e60208083019182526007600052602d905290517f4d73f294a2cb7f5a471fde2e2c5652a46cf819d439af00ca2c7f02d5472b48b855517f4d73f294a2cb7f5a471fde2e2c5652a46cf819d439af00ca2c7f02d5472b48b955565b62000657620005f762001ad3565b600781526019602080830191825260016000526003905290517fa15bc60c955c405d20d9149c709e2460f1c2d9a497496a7f46004d1772c3054c55517fa15bc60c955c405d20d9149c709e2460f1c2d9a497496a7f46004d1772c3054d55565b620006a36200066562001ad3565b600781526064602080830191825260026000526003905290516000805160206200449983398151915255516000805160206200453983398151915255565b620006f0620006b162001ad3565b600781526101f460208083019182526003600081905290529051600080516020620045f983398151915255516000805160206200457983398151915255565b6200073d620006fe62001ad3565b600781526107d060208083019182526004600052600390529051600080516020620044d983398151915255516000805160206200451983398151915255565b6200078a6200074b62001ad3565b6007815261138860208083019182526005600052600390529051600080516020620045d98339815191525551600080516020620045b983398151915255565b620007d76200079862001ad3565b6007815261271060208083019182526006600052600390529051600080516020620044b983398151915255516000805160206200455983398151915255565b62000827620007e562001ad3565b60078082526161a8602080840191825260009290925260039091529051600080516020620045998339815191525551600080516020620044f983398151915255565b6200083162001af3565b600080825260066020808401918252600160408501818152600560608701818152608088018481529390965290925293517f1471eb6eb2c5e789fc3de43f8ce62938c7d1836ec861730447e2ada8fd81017b5590517f1471eb6eb2c5e789fc3de43f8ce62938c7d1836ec861730447e2ada8fd81017c55517f1471eb6eb2c5e789fc3de43f8ce62938c7d1836ec861730447e2ada8fd81017d55517f1471eb6eb2c5e789fc3de43f8ce62938c7d1836ec861730447e2ada8fd81017e55517f1471eb6eb2c5e789fc3de43f8ce62938c7d1836ec861730447e2ada8fd81017f556200091b62001af3565b60018082526003602080840191825260408401838152600560608601818152608087019586526002600052925293517f89832631fb3c3307a103ba2c84ab569c64d6182a18893dcd163f0f1c2090733a5590517f89832631fb3c3307a103ba2c84ab569c64d6182a18893dcd163f0f1c2090733b5591517f89832631fb3c3307a103ba2c84ab569c64d6182a18893dcd163f0f1c2090733c5590517f89832631fb3c3307a103ba2c84ab569c64d6182a18893dcd163f0f1c2090733d55517f89832631fb3c3307a103ba2c84ab569c64d6182a18893dcd163f0f1c2090733e5562000a0562001af3565b60028152600f6020808301918252600a6040840190815260056060850181815260016080870190815260036000529190935293517fa9bc9a3a348c357ba16b37005d7e6b3236198c0e939f4af8c5f19b8deeb8ebc05591517fa9bc9a3a348c357ba16b37005d7e6b3236198c0e939f4af8c5f19b8deeb8ebc15590517fa9bc9a3a348c357ba16b37005d7e6b3236198c0e939f4af8c5f19b8deeb8ebc255517fa9bc9a3a348c357ba16b37005d7e6b3236198c0e939f4af8c5f19b8deeb8ebc355517fa9bc9a3a348c357ba16b37005d7e6b3236198c0e939f4af8c5f19b8deeb8ebc45562000af362001af3565b60028152600f6020808301918252600a6040840190815260056060850181815260016080870190815260046000529190935293517f3eec716f11ba9e820c81ca75eb978ffb45831ef8b7a53e5e422c26008e1ca6d55591517f3eec716f11ba9e820c81ca75eb978ffb45831ef8b7a53e5e422c26008e1ca6d65590517f3eec716f11ba9e820c81ca75eb978ffb45831ef8b7a53e5e422c26008e1ca6d755517f3eec716f11ba9e820c81ca75eb978ffb45831ef8b7a53e5e422c26008e1ca6d855517f3eec716f11ba9e820c81ca75eb978ffb45831ef8b7a53e5e422c26008e1ca6d95562000be162001af3565b60028152600f6020808301918252600a6040840190815260056060850181815260016080870190815260008390529190935293517f458b30c2d72bfd2c6317304a4594ecbafe5f729d3111b65fdc3a33bd48e5432d5591517f458b30c2d72bfd2c6317304a4594ecbafe5f729d3111b65fdc3a33bd48e5432e5590517f458b30c2d72bfd2c6317304a4594ecbafe5f729d3111b65fdc3a33bd48e5432f55517f458b30c2d72bfd2c6317304a4594ecbafe5f729d3111b65fdc3a33bd48e5433055517f458b30c2d72bfd2c6317304a4594ecbafe5f729d3111b65fdc3a33bd48e543315562000ccf62001af3565b60028152604b602080830191825260646040840181815260fa60608601908152608086019283526006600052600590935293517f069400f22b28c6c362558d92f66163cec5671cba50b61abd2eecfcd0eaeac5185591517f069400f22b28c6c362558d92f66163cec5671cba50b61abd2eecfcd0eaeac5195591517f069400f22b28c6c362558d92f66163cec5671cba50b61abd2eecfcd0eaeac51a5590517f069400f22b28c6c362558d92f66163cec5671cba50b61abd2eecfcd0eaeac51b55517f069400f22b28c6c362558d92f66163cec5671cba50b61abd2eecfcd0eaeac51c5562000dbd62001af3565b60028152604b602080830191825260646040840181815260fa60608601908152608086019283526007600052600590935293517feddb6698d7c569ff62ff64f1f1492bf14a54594835ba0faac91f84b4f5d814605591517feddb6698d7c569ff62ff64f1f1492bf14a54594835ba0faac91f84b4f5d814615591517feddb6698d7c569ff62ff64f1f1492bf14a54594835ba0faac91f84b4f5d814625590517feddb6698d7c569ff62ff64f1f1492bf14a54594835ba0faac91f84b4f5d8146355517feddb6698d7c569ff62ff64f1f1492bf14a54594835ba0faac91f84b4f5d814645562000eab62001af3565b60028152604b602080830191825260646040840181815260fa60608601908152608086019283526008600052600590935293517ffb33122aa9f93cc639ebe80a7bc4784c11e6053dde89c6f4f7e268c6a623da1e5591517ffb33122aa9f93cc639ebe80a7bc4784c11e6053dde89c6f4f7e268c6a623da1f5591517ffb33122aa9f93cc639ebe80a7bc4784c11e6053dde89c6f4f7e268c6a623da205590517ffb33122aa9f93cc639ebe80a7bc4784c11e6053dde89c6f4f7e268c6a623da2155517ffb33122aa9f93cc639ebe80a7bc4784c11e6053dde89c6f4f7e268c6a623da225562000f9962001af3565b60028152604b602080830191825260646040840181815260fa60608601908152608086019283526009600052600590935293517fc0a4a8be475dfebc377ebef2d7c4ff47656f572a08dd92b81017efcdba0febe15591517fc0a4a8be475dfebc377ebef2d7c4ff47656f572a08dd92b81017efcdba0febe25591517fc0a4a8be475dfebc377ebef2d7c4ff47656f572a08dd92b81017efcdba0febe35590517fc0a4a8be475dfebc377ebef2d7c4ff47656f572a08dd92b81017efcdba0febe455517fc0a4a8be475dfebc377ebef2d7c4ff47656f572a08dd92b81017efcdba0febe5556200108762001af3565b60028152604b602080830191825260646040840181815260fa6060860190815260808601928352600a600052600590935293517fa18b128af1c8fc61ff46f02d146e54546f34d340574cf2cef6a753cba6b6701d5591517fa18b128af1c8fc61ff46f02d146e54546f34d340574cf2cef6a753cba6b6701e5591517fa18b128af1c8fc61ff46f02d146e54546f34d340574cf2cef6a753cba6b6701f5590517fa18b128af1c8fc61ff46f02d146e54546f34d340574cf2cef6a753cba6b6702055517fa18b128af1c8fc61ff46f02d146e54546f34d340574cf2cef6a753cba6b67021556200117562001af3565b60028152604b602080830191825260646040840181815260fa6060860190815260808601928352600b600052600590935293517f40f28f99a40bc9f6beea1013afdbc3cdcc689eb76b82c4de06c0acf1e1932ed55591517f40f28f99a40bc9f6beea1013afdbc3cdcc689eb76b82c4de06c0acf1e1932ed65591517f40f28f99a40bc9f6beea1013afdbc3cdcc689eb76b82c4de06c0acf1e1932ed75590517f40f28f99a40bc9f6beea1013afdbc3cdcc689eb76b82c4de06c0acf1e1932ed855517f40f28f99a40bc9f6beea1013afdbc3cdcc689eb76b82c4de06c0acf1e1932ed9556200126362001af3565b60028152604b602080830191825260646040840181815260fa6060860190815260808601928352600c600052600590935293517ff907e7e6656fa73566b18c1215272fe9fca2c55c552e62c923e21e000ac4b4e65591517ff907e7e6656fa73566b18c1215272fe9fca2c55c552e62c923e21e000ac4b4e75591517ff907e7e6656fa73566b18c1215272fe9fca2c55c552e62c923e21e000ac4b4e85590517ff907e7e6656fa73566b18c1215272fe9fca2c55c552e62c923e21e000ac4b4e955517ff907e7e6656fa73566b18c1215272fe9fca2c55c552e62c923e21e000ac4b4ea556200135162001af3565b60028152604b602080830191825260646040840181815260fa6060860190815260808601928352600d600052600590935293517f03145c75015e7a856ecd94c41432ef3cb669d6360af23433588937fefdfac8255591517f03145c75015e7a856ecd94c41432ef3cb669d6360af23433588937fefdfac8265591517f03145c75015e7a856ecd94c41432ef3cb669d6360af23433588937fefdfac8275590517f03145c75015e7a856ecd94c41432ef3cb669d6360af23433588937fefdfac82855517f03145c75015e7a856ecd94c41432ef3cb669d6360af23433588937fefdfac829556200143f62001af3565b60028152604b602080830191825260646040840181815260fa6060860190815260808601928352600e600052600590935293517f783638979e3582b3ffd6d53fc06c949ac31d1ac75a5e2c3531fbe1f91045eb535591517f783638979e3582b3ffd6d53fc06c949ac31d1ac75a5e2c3531fbe1f91045eb545591517f783638979e3582b3ffd6d53fc06c949ac31d1ac75a5e2c3531fbe1f91045eb555590517f783638979e3582b3ffd6d53fc06c949ac31d1ac75a5e2c3531fbe1f91045eb5655517f783638979e3582b3ffd6d53fc06c949ac31d1ac75a5e2c3531fbe1f91045eb57556200152d62001af3565b60028152604b602080830191825260646040840181815260fa6060860190815260808601928352600f600052600590935293517f58f00e8ecc6f5419941dd0bafec65a4cc188d31713fb1fe224257460930df8af5591517f58f00e8ecc6f5419941dd0bafec65a4cc188d31713fb1fe224257460930df8b05591517f58f00e8ecc6f5419941dd0bafec65a4cc188d31713fb1fe224257460930df8b15590517f58f00e8ecc6f5419941dd0bafec65a4cc188d31713fb1fe224257460930df8b255517f58f00e8ecc6f5419941dd0bafec65a4cc188d31713fb1fe224257460930df8b355620016ac6200161f62001b13565b60128152600a6020808301918252602d604084019081526003600052600490915291517f2e174c10e159ea99b867ce3205125c24a42d128804e4070ed6fcc8cc98166aa055517f2e174c10e159ea99b867ce3205125c24a42d128804e4070ed6fcc8cc98166aa155517f2e174c10e159ea99b867ce3205125c24a42d128804e4070ed6fcc8cc98166aa255565b62001747620016ba62001b13565b60128152600a6020808301918252605a604084019081526005600052600490915291517f04cde762ef08b6b6c5ded8e8c4c0b3f4e5c9ad7342c88fcc93681b4588b73f0555517f04cde762ef08b6b6c5ded8e8c4c0b3f4e5c9ad7342c88fcc93681b4588b73f0655517f04cde762ef08b6b6c5ded8e8c4c0b3f4e5c9ad7342c88fcc93681b4588b73f0755565b620017e36200175562001b13565b60098152600a602080830191825261270f604084019081526007600052600490915291517fbeb3bad75134cb432e5707980e3245c52c5998a1125ee30f2f0dbf3925b1e55155517fbeb3bad75134cb432e5707980e3245c52c5998a1125ee30f2f0dbf3925b1e55255517fbeb3bad75134cb432e5707980e3245c52c5998a1125ee30f2f0dbf3925b1e55355565b6001603355600160ff19603454161760345566038d7ea4c68000602e55600a602b55620018736200181362001ad3565b600281526019602080830191825260016000526003905290517fa15bc60c955c405d20d9149c709e2460f1c2d9a497496a7f46004d1772c3054c55517fa15bc60c955c405d20d9149c709e2460f1c2d9a497496a7f46004d1772c3054d55565b620018c26200188162001ad3565b600280825260646020808401918252600092909252600390915290516000805160206200449983398151915255516000805160206200453983398151915255565b6200190f620018d062001ad3565b600281526101f460208083019182526003600081905290529051600080516020620045f983398151915255516000805160206200457983398151915255565b6200195c6200191d62001ad3565b600281526107d060208083019182526004600052600390529051600080516020620044d983398151915255516000805160206200451983398151915255565b620019a96200196a62001ad3565b6002815261138860208083019182526005600052600390529051600080516020620045d98339815191525551600080516020620045b983398151915255565b620019f6620019b762001ad3565b6002815261271060208083019182526006600052600390529051600080516020620044b983398151915255516000805160206200455983398151915255565b62001a4362001a0462001ad3565b600281526161a860208083019182526007600052600390529051600080516020620045998339815191525551600080516020620044f983398151915255565b604051612946908162001b538239f35b634e487b7160e01b600052604160045260246000fd5b60405162461bcd60e51b815260206004820152601360248201527f6f776e2e696e76616c69642e68657862617365000000000000000000000000006044820152606490fd5b600080fd5b6040519060e082016001600160401b0381118382101762001a5357604052565b60408051919082016001600160401b0381118382101762001a5357604052565b6040519060a082016001600160401b0381118382101762001a5357604052565b60405190606082016001600160401b0381118382101762001a5357604052565b62001b3d62001b13565b9060008252600060208301526000604083015256fe60806040526004361015610018575b361561001657005b005b60003560e01c806307175c83146103c857806309307c62146103c35780630b225f1a146103be5780630ea0d222146103b957806311df44db146103b457806312065fe0146103af57806314be92a5146103aa57806315a544ed146103a55780631605aed9146103a057806316f0115b1461039b578063192b48ee146103965780631f185d161461039157806326c5adae1461038c578063298fc460146103875780633688236d146103825780633b9b79551461037d5780634151331d14610378578063438fe1921461037357806343c06bc41461036e57806344ec16bc146103695780634b62954f146103645780634dd4396c1461035f57806353423e861461035a57806354541683146103555780635640dbfc14610350578063592a02a81461034b5780635962205f146103465780635a0e9038146103415780636b81c82f1461033c5780636c7deb5d146103375780637687e3711461033257806378ef376f1461032d5780637bc908c61461032857806388ed3bb5146103235780638c62d0861461031e5780638da5cb5b1461031957806391fc8aa8146103145780639319d0b51461030f5780639ce7ce0f1461030a5780639eb8b44e14610305578063a1f7f53914610300578063a88fcea6146102fb578063a9df70b9146102f6578063aebcd32a146102f1578063af0b21d3146102ec578063af484526146102e7578063b49c064c146102e2578063b5939a37146102dd578063b85f1f8d146102d8578063b90306ad146102d3578063c54e44b0146102ce578063c5a136d4146102c9578063e01ad5fd146102c4578063e0a9bc2b146102bf578063e2a1f69a146102ba578063eddd0d9c146102b5578063f2a6bbc7146102b0578063fc0e74d1146102ab5763fdc10bc90361000e57611dd5565b611db2565b611d0b565b611c64565b611c0c565b611bf1565b611b52565b611a64565b6119cb565b611918565b6118e7565b6118c9565b6118a6565b611875565b611857565b611812565b611765565b611747565b6116a0565b6114dd565b6113db565b611334565b611316565b6112ed565b611201565b6111e3565b6111c5565b61111e565b61105a565b610fb3565b610ed9565b610e89565b610e31565b610d7b565b610d1c565b610cfe565b610ce0565b610c9b565b610bee565b610b47565b610a9a565b610a7c565b610a2f565b610a06565b6109e8565b610924565b610858565b610759565b6106a1565b610649565b61062b565b61060d565b610566565b61054a565b6104ee565b6104d0565b6104b2565b6103eb565b346103e65760003660031901126103e6576020602b54604051908152f35b600080fd5b346103e65760403660031901126103e65761040c610407611fd8565b61246f565b61041533612103565b8015610436575b610425906124b0565b610016602435600435602e55602f55565b50600054604051630536340960e21b8152906001600160a01b03906020908390600490829085165afa9081156104ad576104259260009261047d575b50163314905061041c565b61049f91925060203d81116104a6575b6104978183611ef3565b810190611f15565b9038610472565b503d61048d565b611f2d565b346103e65760003660031901126103e6576020603354604051908152f35b346103e65760003660031901126103e6576020602954604051908152f35b346103e65760003660031901126103e657600d54600e54600f54601054601154601254601354604080519788526020880196909652948601939093526060850191909152608084015260a083015260c082015260e090f35b0390f35b346103e65760003660031901126103e657602047604051908152f35b346103e65760203660031901126103e657610582610407611fd8565b61058b33612103565b80156105a6575b61059b906124b0565b610016600435602955565b50600054604051630536340960e21b8152906001600160a01b03906020908390600490829085165afa9081156104ad5761059b926000926105ed575b501633149050610592565b61060691925060203d81116104a6576104978183611ef3565b90386105e2565b346103e65760003660031901126103e6576020602f54604051908152f35b346103e65760003660031901126103e6576020602e54604051908152f35b346103e65760003660031901126103e657600654600754600854600954600a54600b54600c54604080519788526020880196909652948601939093526060850191909152608084015260a083015260c082015260e090f35b346103e65760203660031901126103e6576106bd610407611fd8565b6106c633612103565b80156106e1575b6106d6906124b0565b610016600435612542565b50600054604051630536340960e21b8152906001600160a01b03906020908390600490829085165afa9081156104ad576106d692600092610728575b5016331490506106cd565b61074191925060203d81116104a6576104978183611ef3565b903861071d565b6001600160a01b038116036103e657565b346103e6576020806003193601126103e65760049081359061077a82610748565b60005481906001600160a01b0316604051634bf9c0ad60e11b815294859182905afa9182156104ad576107df610819936107fb9261054696600092610835575b506040516001600160a01b0390911685820190815290926107ed918491602090910190565b03601f198101845283611ef3565b6107f56121af565b9061235b565b91908061082b575b61080c906121dc565b8082518301019101611fc3565b60405190151581529081906020820190565b5081518114610803565b6107ed91925061085190863d88116104a6576104978183611ef3565b91906107ba565b346103e65760203660031901126103e6576000546040516369e8d84b60e11b815290602090829060049082906001600160a01b03165afa80156104ad576108c86108ec91610546936000916108fc575b50604051906108b682611e9f565b600082526108c26128c2565b90612431565b6108e7600435916108e26108dd602b546124fc565b6124fc565b6128f0565b61252f565b6040519081529081906020820190565b610914915060203d81116104a6576104978183611ef3565b386108a8565b801515036103e657565b346103e65760203660031901126103e6576004356109418161091a565b61094c610407611fd8565b61095533612103565b801561097b575b90610969610016926124b0565b60ff8019603454169115151617603455565b50600054604051630536340960e21b81526001600160a01b0392916020908290600490829087165afa80156104ad5761001693610969926000926109c8575b50339116149192505061095c565b6109e191925060203d81116104a6576104978183611ef3565b90386109ba565b346103e65760003660031901126103e6576020602854604051908152f35b346103e65760003660031901126103e6576000546040516001600160a01b039091168152602090f35b346103e65760203660031901126103e65760043560005260046020526040600020805461054660026001840154930154604051938493846040919493926060820195825260208201520152565b346103e65760003660031901126103e6576020602654604051908152f35b346103e65760603660031901126103e657610ab6610407611fd8565b610abf33612103565b8015610ae0575b610acf906124b0565b61001660443560243560043561264b565b50600054604051630536340960e21b8152906001600160a01b03906020908390600490829085165afa9081156104ad57610acf92600092610b27575b501633149050610ac6565b610b4091925060203d81116104a6576104978183611ef3565b9038610b1c565b346103e65760203660031901126103e657610b63610407611fd8565b610b6c33612103565b8015610b87575b610b7c906124b0565b610016600435602555565b50600054604051630536340960e21b8152906001600160a01b03906020908390600490829085165afa9081156104ad57610b7c92600092610bce575b501633149050610b73565b610be791925060203d81116104a6576104978183611ef3565b9038610bc3565b346103e65760403660031901126103e657610c0a610407611fd8565b610c1333612103565b8015610c34575b610c23906124b0565b610016602435600435602755602855565b50600054604051630536340960e21b8152906001600160a01b03906020908390600490829085165afa9081156104ad57610c2392600092610c7b575b501633149050610c1a565b610c9491925060203d81116104a6576104978183611ef3565b9038610c70565b346103e65760203660031901126103e657600435600052602d602052604060002060018154910154906105466040519283928360209093929193604081019481520152565b346103e65760003660031901126103e6576020602a54604051908152f35b346103e65760003660031901126103e6576020602554604051908152f35b346103e65760003660031901126103e65760c060215460ff60225460405192835281811615156020840152818160081c1615156040840152818160101c1615156060840152818160181c161515608084015260201c16151560a0820152f35b346103e65760c03660031901126103e657610d97610407611fd8565b610da033612103565b8015610dca575b610db0906124b0565b61001660a435608435606435604435602435600435612550565b50600054604051630536340960e21b8152906001600160a01b03906020908390600490829085165afa9081156104ad57610db092600092610e11575b501633149050610da7565b610e2a91925060203d81116104a6576104978183611ef3565b9038610e06565b346103e65760203660031901126103e657600435600052600560205260a06040600020805490600181015490600281015460046003830154920154926040519485526020850152604084015260608301526080820152f35b346103e65760003660031901126103e657601b54601c54601d5460408051938452602084019290925290820152606090f35b60809060031901126103e65760043590602435906044359060643590565b346103e657610ee736610ebb565b92610ef6610407939293611fd8565b610eff33612103565b8015610f47575b90610f126002926124b0565b610f1a612779565b5060018114610f36575b14610f2b57005b601e55601f55602055005b82601b5583601c5584601d55610f24565b50600054604051630536340960e21b81526001600160a01b0392916020908290600490829087165afa80156104ad57600293610f1292600092610f93575b503391161491925050610f06565b610fac91925060203d81116104a6576104978183611ef3565b9038610f85565b346103e65760203660031901126103e657610fcf610407611fd8565b610fd833612103565b8015610ff3575b610fe8906124b0565b610016600435602a55565b50600054604051630536340960e21b8152906001600160a01b03906020908390600490829085165afa9081156104ad57610fe89260009261103a575b501633149050610fdf565b61105391925060203d81116104a6576104978183611ef3565b903861102f565b346103e65760203660031901126103e6576004356110778161091a565b611082610407611fd8565b61108b33612103565b80156110b1575b9061109f610016926124b0565b60ff8019602354169115151617602355565b50600054604051630536340960e21b81526001600160a01b0392916020908290600490829087165afa80156104ad576100169361109f926000926110fe575b503391161491925050611092565b61111791925060203d81116104a6576104978183611ef3565b90386110f0565b346103e65760203660031901126103e65761113a610407611fd8565b61114333612103565b801561115e575b611153906124b0565b610016600435603055565b50600054604051630536340960e21b8152906001600160a01b03906020908390600490829085165afa9081156104ad57611153926000926111a5575b50163314905061114a565b6111be91925060203d81116104a6576104978183611ef3565b903861119a565b346103e65760003660031901126103e6576020603054604051908152f35b346103e65760003660031901126103e6576020603154604051908152f35b346103e65760c03660031901126103e65760243561121e8161091a565b60443561122a8161091a565b6064356112368161091a565b608435906112438261091a565b60a435926112508461091a565b61125b610407611fd8565b61126433612103565b8015611280575b94611278610016966124b0565b60043561269a565b50600054604051630536340960e21b81526001600160a01b039691602090829060049082908b165afa80156104ad5761001697611278926000926112cd575b50339116149196505061126b565b6112e691925060203d81116104a6576104978183611ef3565b90386112bf565b346103e65760003660031901126103e6576001546040516001600160a01b039091168152602090f35b346103e65760003660031901126103e6576020602c54604051908152f35b346103e65760203660031901126103e657611350610407611fd8565b61135933612103565b8015611374575b611369906124b0565b610016600435602655565b50600054604051630536340960e21b8152906001600160a01b03906020908390600490829085165afa9081156104ad57611369926000926113bb575b501633149050611360565b6113d491925060203d81116104a6576104978183611ef3565b90386113b0565b346103e6576101003660031901126103e6576113f8610407611fd8565b61140133612103565b8015611431575b611411906124b0565b61001660e43560c43560a4356084356064356044356024356004356127c0565b50600054604051630536340960e21b8152906001600160a01b03906020908390600490829085165afa9081156104ad5761141192600092611478575b501633149050611408565b61149191925060203d81116104a6576104978183611ef3565b903861146d565b6102a0810192916000915b600783106114b057505050565b600190606083519182518152602092838101518483015260408091015190820152019201920191906114a3565b346103e65760003660031901126103e6576040516114fa81611ebb565b60005b60e0811061168b57610546611510611f39565b600160005260046020526115487fabd6e7cb50984ff9c2f3e18a2660c3353dadf4e3291deeb275dae2cd1e44fe05612798565b612798565b81526002600052600460205261157d7f91da3fd0782e51c6b3986e9e672fd566868e71f3dbc2d6c2cd6fbb3e361af2a7612798565b602082015261159a61154360036000526004602052604060002090565b6040820152600460008190526020526115d27f1a1e6821cde7d0159c0d293177871e09677b4e42307c7db3ba94f8648a5a050f612798565b60608201526005600052600460205261160a7f04cde762ef08b6b6c5ded8e8c4c0b3f4e5c9ad7342c88fcc93681b4588b73f05612798565b6080820152600660005260046020526116427fc59312466997bb42aaaf719ece141047820e6b34531e1670dc1852a453648f0f612798565b60a08201526007600052600460205261167a7fbeb3bad75134cb432e5707980e3245c52c5998a1125ee30f2f0dbf3925b1e551612798565b60c082015260405191829182611498565b602090611696612779565b81840152016114fd565b346103e65760003660031901126103e65760005460405163d1f956b160e01b815290602090829060049082906001600160a01b03165afa9081156104ad57610546916108ec91600091611729575b506040516116fb81611ed7565b601381527267657464656c656761746f72436f756e74282960681b6020820152611723611f64565b91612431565b611741915060203d81116104a6576104978183611ef3565b386116ee565b346103e65760003660031901126103e6576020602754604051908152f35b346103e65760403660031901126103e657611781610407611fd8565b61178a33612103565b80156117ab575b61179a906124b0565b610016602435600435603155603255565b50600054604051630536340960e21b8152906001600160a01b03906020908390600490829085165afa9081156104ad5761179a926000926117f2575b501633149050611791565b61180b91925060203d81116104a6576104978183611ef3565b90386117e7565b346103e65760203660031901126103e6576004356000526003602052604060002060018154910154906105466040519283928360209093929193604081019481520152565b346103e65760003660031901126103e6576020602454604051908152f35b346103e65760203660031901126103e657602061189c60043561189781610748565b612103565b6040519015158152f35b346103e65760003660031901126103e657602060ff603454166040519015158152f35b346103e65760003660031901126103e6576020603254604051908152f35b346103e65760003660031901126103e657601e54601f54602080546040805194855291840192909252820152606090f35b346103e65760203660031901126103e657600054604051630536340960e21b8152906001600160a01b03906020908390600490829085165afa9182156104ad576000926119ab575b50339116036119745761001660043561228a565b60405162461bcd60e51b815260206004820152600f60248201526e6f776e2e6e6f6e617574682e44414f60881b6044820152606490fd5b6119c491925060203d81116104a6576104978183611ef3565b9038611960565b346103e65760203660031901126103e6576004356119e881610748565b803b60006119f582611f48565b92611a036040519485611ef3565b82845260208401903c602d815110611a2957602a015160405160609190911c8152602090f35b60405162461bcd60e51b81526020600482015260136024820152724e6f742061206d696e696d616c2070726f787960681b6044820152606490fd5b346103e657611a7236610ebb565b90611a81610407949394611fd8565b611a8a33612103565b8015611ae6575b92611a9d6002946124b0565b611aa960088210612610565b60405194611ab686611e7e565b85526020850191825260408501928352600052600460205260406000209351845551600184015551910155600080f35b50600054604051630536340960e21b81526001600160a01b0394916020908290600490829089165afa80156104ad57600295611a9d92600092611b32575b503391161491945050611a91565b611b4b91925060203d81116104a6576104978183611ef3565b9038611b24565b346103e6576020806003193601126103e65760048035611b7181610748565b60005460405163d1f956b160e01b81526001600160a01b03949093909182918591829088165afa9081156104ad576105469461081994600093611bd2575b506040519316818401528252611bc482611ed7565b611bcc612221565b906123f5565b611bea919350823d84116104a6576104978183611ef3565b9138611baf565b346103e65760003660031901126103e657602061189c611fd8565b346103e65760003660031901126103e657601454601554601654601754601854601954601a54604080519788526020880196909652948601939093526060850191909152608084015260a083015260c082015260e090f35b346103e65760203660031901126103e657611c80610407611fd8565b611c8933612103565b8015611ca4575b611c99906124b0565b610016600435602b55565b50600054604051630536340960e21b8152906001600160a01b03906020908390600490829085165afa9081156104ad57611c9992600092611ceb575b501633149050611c90565b611d0491925060203d81116104a6576104978183611ef3565b9038611ce0565b346103e65760203660031901126103e657611d27610407611fd8565b611d3033612103565b8015611d4b575b611d40906124b0565b610016600435603355565b50600054604051630536340960e21b8152906001600160a01b03906020908390600490829085165afa9081156104ad57611d4092600092611d92575b501633149050611d37565b611dab91925060203d81116104a6576104978183611ef3565b9038611d87565b346103e65760003660031901126103e657602060ff602354166040519015158152f35b346103e65760003660031901126103e65760005460405163111ea8c160e21b815290602090829060049082906001600160a01b03165afa9081156104ad57610546916108ec91600091611e4a575b50604051611e3081611ed7565b6005815264616765282960d81b6020820152611723611f64565b611e62915060203d81116104a6576104978183611ef3565b38611e23565b634e487b7160e01b600052604160045260246000fd5b6060810190811067ffffffffffffffff821117611e9a57604052565b611e68565b6020810190811067ffffffffffffffff821117611e9a57604052565b60e0810190811067ffffffffffffffff821117611e9a57604052565b6040810190811067ffffffffffffffff821117611e9a57604052565b90601f8019910116810190811067ffffffffffffffff821117611e9a57604052565b908160209103126103e65751611f2a81610748565b90565b6040513d6000823e3d90fd5b60405190611f4682611ebb565b565b67ffffffffffffffff8111611e9a57601f01601f191660200190565b60405190611f7182611e9f565b60008252565b15611f7e57565b60405162461bcd60e51b815260206004820152601960248201527f6f776e2e7361666567756172642e63616c6c2e6661696c6564000000000000006044820152606490fd5b908160209103126103e65751611f2a8161091a565b600054604051634bf9c0ad60e11b8152906020908190839060049082906001600160a01b03165afa9182156104ad57611f2a9261204e91600091612069575b5060405161202481611ed7565b6008815267697353616665282960c01b848201526040519161204583611e9f565b6000835261235b565b91908061205f575b61080c90611f77565b5081518114612056565b6120809150833d85116104a6576104978183611ef3565b38612017565b6040519061209382611ed7565b601582527469735365637572654261736528616464726573732960581b6020830152565b156120be57565b60405162461bcd60e51b815260206004820152601a60248201527f6f776e2e736563757265626173652e63616c6c2e6661696c65640000000000006044820152606490fd5b6000546001600160a01b0316604051918291634bf9c0ad60e11b835282600460209485935afa9283156104ad57611f2a93612171926107df9260009261218c575b506040516001600160a01b039091168582019081529092612169918491602090910190565b6107f5612086565b919080612182575b61080c906120b7565b5081518114612179565b6121699192506121a890863d88116104a6576104978183611ef3565b9190612144565b604051906121bc82611ed7565b601182527069735369676e657228616464726573732960781b6020830152565b156121e357565b60405162461bcd60e51b81526020600482015260166024820152751bdddb8b9cda59db995c8b98d85b1b0b99985a5b195960521b6044820152606490fd5b6040519061222e82611ed7565b601882527f697364656c656761746f724e6f646528616464726573732900000000000000006020830152565b3d15612285573d9061226b82611f48565b916122796040519384611ef3565b82523d6000602084013e565b606090565b600080546040516311be646b60e21b815290602090829060049082906001600160a01b03165afa9081156104ad57828481938293839161233d575b505af16122d061225a565b50156123065760405190815233907fcdcc745fe377b103b45fa0cec23ae3ef93d6fc6a84a01f0d18c40b354dd1d5d890602090a2565b60405162461bcd60e51b815260206004820152600f60248201526e1bdddb8b989d5c9b8b99985a5b1959608a1b6044820152606490fd5b612355915060203d81116104a6576104978183611ef3565b386122c5565b9190823b156123dc578051906020918263ffffffff60e01b92012016916040519180830193845281519160005b8381106123c85750505091816123b560248260009795968897018783820152036004810184520182611ef3565b5191620dbba0fa6123c461225a565b9091565b818101830151858201602401528201612388565b5050506000906040516123ee81611e9f565b6000815290565b92916124039160009461235b565b9080612426575b6124115750565b611f2a91925060208082518301019101611fc3565b50602081511461240a565b929161243f9160009461235b565b9080612464575b61244d5750565b9091506020818051810103126103e6576020015190565b506020815114612446565b1561247657565b60405162461bcd60e51b81526020600482015260126024820152716f776e2e696e76616c69642e69735361666560701b6044820152606490fd5b156124b757565b60405162461bcd60e51b815260206004820152601b60248201527f6f776e2e6e6f6e617574682e44414f6f725365637572656261736500000000006044820152606490fd5b90670de0b6b3a76400009182810292818404149015171561251957565b634e487b7160e01b600052601160045260246000fd5b8181029291811591840414171561251957565b61254b906124fc565b602c55565b91929394909460108310156125db576040519460a086019486861067ffffffffffffffff871117611e9a57611f46976125ac96604052875260208701526040860152606085015260808401526000526005602052604060002090565b906080600491805184556020810151600185015560408101516002850155606081015160038501550151910155565b60405162461bcd60e51b815260206004820152600d60248201526c1a5b9d985b1a59081b195d995b609a1b6044820152606490fd5b1561261757565b60405162461bcd60e51b815260206004820152600c60248201526b696e76616c69642072616e6b60a01b6044820152606490fd5b9161265860088410612610565b60405192604084019284841067ffffffffffffffff851117611e9a57600193604052845260208401918252600052600360205260406000209251835551910155565b939491946040519360c0850185811067ffffffffffffffff821117611e9a57611f469760a09761275a9761273d96612712946040528282521515928360208301521515948560408301521515958660608301521515978860808301521515998a91015260215560ff8019602254169115151617602255565b6022805462ffff00191660089290921b61ff00169190911791151560101b62ff000016919091179055565b63ff00000060225491151560181b169063ff000000191617602255565b64ff0000000060225491151560201b169064ff00000000191617602255565b6040519061278682611e7e565b60006040838281528260208201520152565b906040516127a581611e7e565b60406002829480548452600181015460208501520154910152565b949196939095926040519760e089019789891067ffffffffffffffff8a1117611e9a57600398604052808a528160208b01528260408b01528360608b01528460808b01528560a08b01528660c08b0152600188146128a1575b5050505050505060028114612867575b146128315750565b8051601455602081015160155560408101516016556060810151601755608081015160185560a081015160195560c00151601a55565b8251600d556020830151600e556040830151600f556060830151601055608083015160115560a083015160125560c0830151601355612829565b600655600755600855600955600a55600b55600c5538808080808080612819565b604051906128cf82611ed7565b60128252716f7a6f6e655072696365496e55534454282960701b6020830152565b81156128fa570490565b634e487b7160e01b600052601260045260246000fdfea26469706673582212201d7b0f34bfd72292a6b39a87382f7050df41820d3a7b15bcf643316356d9b13b64736f6c63430008140033c3a24b0501bd2c13a7e57f2db4369ec4c223447539fc0724a9d55ac4a06ebd4dc69056f16cbaa3c616b828e333ab7d3a32310765507f8f58359e99ebb7a885f383ec6a1f0257b830b5e016457c9cf1435391bf56cc98f369a58a54fe93772465f2c49132ed1cee2a7e75bde50d332a2f81f1d01e5456d8a19d1df09bd561dbd383ec6a1f0257b830b5e016457c9cf1435391bf56cc98f369a58a54fe93772466c3a24b0501bd2c13a7e57f2db4369ec4c223447539fc0724a9d55ac4a06ebd4ec69056f16cbaa3c616b828e333ab7d3a32310765507f8f58359e99ebb7a885f4cbc4e5fb02c3d1de23a9f1e014b4d2ee5aeaea9505df5e855c9210bf472495b0f2c49132ed1cee2a7e75bde50d332a2f81f1d01e5456d8a19d1df09bd561dbd2405aad32e1adbac89bb7f176e338b8fc6e994ca210c9bb7bdca249b465942251405aad32e1adbac89bb7f176e338b8fc6e994ca210c9bb7bdca249b465942250cbc4e5fb02c3d1de23a9f1e014b4d2ee5aeaea9505df5e855c9210bf472495af","linkReferences":{}},"methodIdentifiers":{"Burn(uint256)":"b90306ad","NFTSendPerCycle()":"438fe192","_delegatorCount()":"a1f7f539","_getImplementation(address)":"c54e44b0","_isDelegatorNode(address)":"e01ad5fd","_isSafe()":"e0a9bc2b","_isSecureBase(address)":"af484526","_isSigner(address)":"1f185d16","allowForceTransfer()":"b49c064c","capOnRank(uint256)":"4dd4396c","capping()":"5640dbfc","computeMintValue(uint256)":"26c5adae","delegateamtprivate()":"88ed3bb5","delegateamtpublic()":"b5939a37","eachclaimCycle()":"7bc908c6","freeIntervals()":"af0b21d3","getBalance()":"12065fe0","getBatchRoyaltyClauses()":"9eb8b44e","getHexbase()":"3b9b7955","levelClause(uint256)":"5962205f","maxClaimPerDay()":"15a544ed","maxGlobalClaimPerDay()":"91fc8aa8","maxMintQty()":"3688236d","maxMintsPerCycle()":"53423e86","maxNFTSend()":"54541683","minClaimPerDay()":"1605aed9","minMintQty()":"a88fcea6","mintCycleDays()":"0ea0d222","mintFeePerQty()":"07175c83","owner()":"8da5cb5b","pool()":"16f0115b","poolNFT1()":"5a0e9038","poolNFT2()":"b85f1f8d","poolValprivate()":"11df44db","poolValpublic()":"e2a1f69a","rankClause(uint256)":"aebcd32a","rankforDAO()":"0b225f1a","royalityClause(uint256)":"4151331d","setAllowForceTransfer(bool)":"298fc460","setCapping(uint256,bool,bool,bool,bool,bool)":"8c62d086","setClaimPerDay(uint256,uint256)":"09307c62","setCoinPool(uint256,uint256,uint256,uint256,uint256,uint256,uint256,uint256)":"9ce7ce0f","setGlobalClaimPerDay(uint256)":"192b48ee","setMaxMintsPerCycle(uint256)":"6c7deb5d","setMaxNFTSend(uint256)":"44ec16bc","setMintCycleDays(uint256)":"14be92a5","setMintFee(uint256)":"eddd0d9c","setMintQty(uint256,uint256)":"4b62954f","setNFTSendPerCycle(uint256)":"9319d0b5","setNftPool(uint256,uint256,uint256,uint256)":"6b81c82f","setRoyalityClause(uint256,uint256,uint256,uint256)":"c5a136d4","setclaimCycle(uint256)":"78ef376f","setlevelClause(uint256,uint256,uint256,uint256,uint256,uint256)":"592a02a8","setrankClause(uint256,uint256,uint256)":"43c06bc4","setrankforDAO(uint256)":"f2a6bbc7","setshutdown(bool)":"7687e371","setvalidatorPrice(uint256,uint256)":"a9df70b9","shutdown()":"fc0e74d1","systemAge()":"fdc10bc9"},"id":36}