{"abi":[{"type":"constructor","inputs":[],"stateMutability":"nonpayable"},{"type":"fallback","stateMutability":"payable"},{"type":"receive","stateMutability":"payable"},{"type":"function","name":"Burn","inputs":[{"name":"amount","type":"uint256","internalType":"uint256"}],"outputs":[],"stateMutability":"payable"},{"type":"function","name":"_setOwner","inputs":[{"name":"own","type":"address","internalType":"address"},{"name":"isApproved","type":"bool","internalType":"bool"}],"outputs":[],"stateMutability":"nonpayable"},{"type":"function","name":"_setReq","inputs":[{"name":"own","type":"address","internalType":"address"}],"outputs":[],"stateMutability":"nonpayable"},{"type":"function","name":"activatemint","inputs":[{"name":"user","type":"address","internalType":"address"}],"outputs":[],"stateMutability":"payable"},{"type":"function","name":"deleteUser","inputs":[{"name":"users","type":"address[]","internalType":"address[]"}],"outputs":[],"stateMutability":"nonpayable"},{"type":"function","name":"getBalance","inputs":[],"outputs":[{"name":"","type":"uint256","internalType":"uint256"}],"stateMutability":"view"},{"type":"function","name":"getNodesCount","inputs":[],"outputs":[{"name":"","type":"uint256","internalType":"uint256"}],"stateMutability":"view"},{"type":"function","name":"hasActivated","inputs":[{"name":"","type":"address","internalType":"address"}],"outputs":[{"name":"","type":"bool","internalType":"bool"}],"stateMutability":"view"},{"type":"function","name":"isExist","inputs":[{"name":"u","type":"address","internalType":"address"}],"outputs":[{"name":"","type":"bool","internalType":"bool"}],"stateMutability":"view"},{"type":"function","name":"isOwnerOrSafeOwner","inputs":[{"name":"sender","type":"address","internalType":"address"}],"outputs":[{"name":"","type":"bool","internalType":"bool"}],"stateMutability":"view"},{"type":"function","name":"nodes","inputs":[{"name":"","type":"uint256","internalType":"uint256"}],"outputs":[{"name":"","type":"address","internalType":"address"}],"stateMutability":"view"},{"type":"function","name":"nodesStr","inputs":[{"name":"","type":"address","internalType":"address"}],"outputs":[{"name":"exist","type":"bool","internalType":"bool"},{"name":"bal","type":"uint256","internalType":"uint256"},{"name":"msgval","type":"uint256","internalType":"uint256"}],"stateMutability":"view"},{"type":"function","name":"ocr1155","inputs":[],"outputs":[{"name":"","type":"address","internalType":"address"}],"stateMutability":"view"},{"type":"function","name":"own_reinit","inputs":[{"name":"_h","type":"address","internalType":"address"}],"outputs":[],"stateMutability":"nonpayable"},{"type":"function","name":"owner","inputs":[],"outputs":[{"name":"","type":"address","internalType":"address"}],"stateMutability":"view"},{"type":"function","name":"req","inputs":[],"outputs":[{"name":"newowner","type":"address","internalType":"address"},{"name":"isReq","type":"bool","internalType":"bool"},{"name":"isVer1","type":"bool","internalType":"bool"},{"name":"isVer2","type":"bool","internalType":"bool"},{"name":"isVer3","type":"bool","internalType":"bool"}],"stateMutability":"view"},{"type":"function","name":"setUser","inputs":[{"name":"users","type":"address[]","internalType":"address[]"},{"name":"_bals","type":"uint256[]","internalType":"uint256[]"},{"name":"_msgval","type":"uint256[]","internalType":"uint256[]"}],"outputs":[],"stateMutability":"nonpayable"},{"type":"function","name":"transfer","inputs":[],"outputs":[{"name":"","type":"address","internalType":"address"}],"stateMutability":"view"},{"type":"function","name":"updateUser","inputs":[{"name":"users","type":"address[]","internalType":"address[]"},{"name":"_bals","type":"uint256[]","internalType":"uint256[]"},{"name":"_msgval","type":"uint256[]","internalType":"uint256[]"},{"name":"_op","type":"bool[]","internalType":"bool[]"}],"outputs":[],"stateMutability":"nonpayable"},{"type":"function","name":"withdraw","inputs":[{"name":"to","type":"address","internalType":"address"},{"name":"amount","type":"uint256","internalType":"uint256"}],"outputs":[],"stateMutability":"payable"}],"bytecode":{"object":"0x6080604052601080546001600160a01b031990811673085052532254e12989413f7c84dd32686bce74e1179091556011805490911673648565deb50c503ef59860d92942eaece0c3e1721790553480156200005957600080fd5b5062000079739b3d18024fd51961230ef88d6a43babdf0f5e8d66200055f565b620000a0604051806060016040528060001515815260200160008152602001600081525090565b60018082526798a7d9b8314c000060208084019182527355464e2df31e770145c6085a5e3874b3bcc5535b6000818152601280845286517fb7dbc22fef39781f6d3ef56c9f0689644cc4f5815df928d4bb2cd55651baf926805460ff1990811692151592909217905594517fb7dbc22fef39781f6d3ef56c9f0689644cc4f5815df928d4bb2cd55651baf927556040968701517fb7dbc22fef39781f6d3ef56c9f0689644cc4f5815df928d4bb2cd55651baf92855600f805480880182557f8d1108e10bcb7c27dddfc02ed9d693a074039d026cf4ea4240b40f7d581ac80290810180546001600160a01b03199081169096179055885160608082018b52818b018681528a8352677ce66c50e2840000838a0190815273761d464d59fc4e5472b2ccfbf077cde7f683121d808952878b5293517f695bea26e6b2e2fff787f69c850843fcceb3523297c262d3feef0c5e1e4095a780548d16911515919091179055517f695bea26e6b2e2fff787f69c850843fcceb3523297c262d3feef0c5e1e4095a855517f695bea26e6b2e2fff787f69c850843fcceb3523297c262d3feef0c5e1e4095a9558354808b01855583018054881690921790915589518082018b52808b018681528a8252671bc16d674ec80000828a01818152737ab9df72fe514f374aa2e1153c0d04621794ab8f808a52888c5293517f10e3d6947c9f83dc74ce5811c680107277de4133dca930e9ec25d8cd5780e57380548e16911515919091179055517f10e3d6947c9f83dc74ce5811c680107277de4133dca930e9ec25d8cd5780e5745590517f10e3d6947c9f83dc74ce5811c680107277de4133dca930e9ec25d8cd5780e575558454808c0186558401805489169092179091558a518083018c52808c018781528b825267d02ab486cedc0000828b01818152732f1614f6190bd3bd5731a8b6b37dae79aad84c15808b52898d5293517f5459a8aa6618c4f84476ff2f14576d0759cc043ea143f346a4a0cc1abca1304180548f16911515919091179055517f5459a8aa6618c4f84476ff2f14576d0759cc043ea143f346a4a0cc1abca130425590517f5459a8aa6618c4f84476ff2f14576d0759cc043ea143f346a4a0cc1abca13043558554808d018755850180548a169092179091558b518084018d52808d018881528c8252818b019283527289188449f0d4119715c9a10ea8955fb26ee308808a52888c5291517f5a0035ea39d61c79a555a882fc6620e8169f8edfc9f87d2e328232d45258177080548e1691151591909117905591517f5a0035ea39d61c79a555a882fc6620e8169f8edfc9f87d2e328232d4525817715590517f5a0035ea39d61c79a555a882fc6620e8169f8edfc9f87d2e328232d452581772558454808c01865584018054891690911790558a519182018b529981018581528982528188019a8b5273dda88b1c86762f7b698f2b458f0ee4c6e92329ec80875294909752517f8127aed9e9291aeb6b630dc0276c41ec41384f3c415fb6f728c0773f1efc781e80549098169015151790965596517f8127aed9e9291aeb6b630dc0276c41ec41384f3c415fb6f728c0773f1efc781f5592517f8127aed9e9291aeb6b630dc0276c41ec41384f3c415fb6f728c0773f1efc78205585549485018655949094529101805490921617905562000bf8565b6000546001600160a01b031615620005b25760405162461bcd60e51b81526020600482015260126024820152711bdddb8b9a195e18985cd94b99985a5b195960721b604482015260640160405180910390fd5b600c8054326001600160a01b031991821617909155600080549091166001600160a01b038316179055620005e5620005e8565b50565b6000546001600160a01b0316620005fb57565b60008054906101000a90046001600160a01b03166001600160a01b0316634162169f6040518163ffffffff1660e01b8152600401602060405180830381865afa1580156200064d573d6000803e3d6000fd5b505050506040513d601f19601f8201168201806040525081019062000673919062000bc6565b600180546001600160a01b0319166001600160a01b0392831617905560005460408051635abedee360e11b81529051919092169163b57dbdc69160048083019260209291908290030181865afa158015620006d2573d6000803e3d6000fd5b505050506040513d601f19601f82011682018060405250810190620006f8919062000bc6565b600280546001600160a01b0319166001600160a01b039283161790556000546040805163cfbffe5360e01b81529051919092169163cfbffe539160048083019260209291908290030181865afa15801562000757573d6000803e3d6000fd5b505050506040513d601f19601f820116820180604052508101906200077d919062000bc6565b600380546001600160a01b0319166001600160a01b039283161790556000546040805163ab6e844f60e01b81529051919092169163ab6e844f9160048083019260209291908290030181865afa158015620007dc573d6000803e3d6000fd5b505050506040513d601f19601f8201168201806040525081019062000802919062000bc6565b600480546001600160a01b0319166001600160a01b0392831617815560005460408051639a7c407760e01b815290519190931692639a7c407792818101926020929091908290030181865afa15801562000860573d6000803e3d6000fd5b505050506040513d601f19601f8201168201806040525081019062000886919062000bc6565b600580546001600160a01b0319166001600160a01b0392831617905560005460408051635506ee0b60e11b81529051919092169163aa0ddc169160048083019260209291908290030181865afa158015620008e5573d6000803e3d6000fd5b505050506040513d601f19601f820116820180604052508101906200090b919062000bc6565b600780546001600160a01b0319166001600160a01b03928316179055600054604080516335a577e360e11b815290519190921691636b4aefc69160048083019260209291908290030181865afa1580156200096a573d6000803e3d6000fd5b505050506040513d601f19601f8201168201806040525081019062000990919062000bc6565b600880546001600160a01b0319166001600160a01b03928316179055600054604080516324768d9160e01b8152905191909216916324768d919160048083019260209291908290030181865afa158015620009ef573d6000803e3d6000fd5b505050506040513d601f19601f8201168201806040525081019062000a15919062000bc6565b600b80546001600160a01b0319166001600160a01b0392831617905560005460408051636402742760e01b81529051919092169163640274279160048083019260209291908290030181865afa15801562000a74573d6000803e3d6000fd5b505050506040513d601f19601f8201168201806040525081019062000a9a919062000bc6565b600980546001600160a01b0319166001600160a01b03928316179055600054604080516330125cf560e01b8152905191909216916330125cf59160048083019260209291908290030181865afa15801562000af9573d6000803e3d6000fd5b505050506040513d601f19601f8201168201806040525081019062000b1f919062000bc6565b600a80546001600160a01b0319166001600160a01b03928316179055600054604080516369e8d84b60e11b81529051919092169163d3d1b0969160048083019260209291908290030181865afa15801562000b7e573d6000803e3d6000fd5b505050506040513d601f19601f8201168201806040525081019062000ba4919062000bc6565b600680546001600160a01b0319166001600160a01b0392909216919091179055565b60006020828403121562000bd957600080fd5b81516001600160a01b038116811462000bf157600080fd5b9392505050565b6129a18062000c086000396000f3fe6080604052600436106101165760003560e01c806373bad20b1161009a578063abb8c96511610061578063abb8c965146103c9578063b7fec78c146103e9578063b90306ad14610409578063d4dfd4561461041c578063f3fef3a31461044c57005b806373bad20b1461032b5780638a4068dd1461034b5780638d2c50c31461036b5780638da5cb5b1461038b57806391bbb2c3146103a957005b8063379a423c116100de578063379a423c146102a357806341ffe7c4146102c35780635edc4a89146102e357806360af454d146102f657806361ea72081461031657005b806213eb4b1461011f5780630d43aaf21461016d57806312065fe0146101f15780631c53c2801461020e5780632172b2d21461024657005b3661011d57005b005b34801561012b57600080fd5b5061015861013a3660046123ea565b6001600160a01b031660009081526012602052604090205460ff1690565b60405190151581526020015b60405180910390f35b34801561017957600080fd5b50600d546101b7906001600160a01b0381169060ff600160a01b8204811691600160a81b8104821691600160b01b8204811691600160b81b90041685565b604080516001600160a01b03909616865293151560208601529115159284019290925290151560608301521515608082015260a001610164565b3480156101fd57600080fd5b50475b604051908152602001610164565b34801561021a57600080fd5b5061022e61022936600461240e565b61045f565b6040516001600160a01b039091168152602001610164565b34801561025257600080fd5b506102866102613660046123ea565b60126020526000908152604090208054600182015460029092015460ff909116919083565b604080519315158452602084019290925290820152606001610164565b3480156102af57600080fd5b506101586102be3660046123ea565b610489565b3480156102cf57600080fd5b5061011d6102de3660046123ea565b610516565b61011d6102f13660046123ea565b6107d6565b34801561030257600080fd5b5061011d6103113660046123ea565b610cf3565b34801561032257600080fd5b50600f54610200565b34801561033757600080fd5b5060105461022e906001600160a01b031681565b34801561035757600080fd5b5060115461022e906001600160a01b031681565b34801561037757600080fd5b5061011d610386366004612506565b610d75565b34801561039757600080fd5b50600c546001600160a01b031661022e565b3480156103b557600080fd5b5061011d6103c436600461259e565b611009565b3480156103d557600080fd5b5061011d6103e4366004612634565b6112c6565b3480156103f557600080fd5b5061011d61040436600461266d565b6116a3565b61011d61041736600461240e565b611a1e565b34801561042857600080fd5b506101586104373660046123ea565b600e6020526000908152604090205460ff1681565b61011d61045a366004612776565b611b2a565b600f818154811061046f57600080fd5b6000918252602090912001546001600160a01b0316905081565b6002546040516319c0642960e01b81526001600160a01b03838116600483015260009216906319c0642990602401602060405180830381865afa1580156104d4573d6000803e3d6000fd5b505050506040513d601f19601f820116820180604052508101906104f891906127a2565b806105105750600c546001600160a01b038381169116145b92915050565b600260009054906101000a90046001600160a01b03166001600160a01b0316636a276f9d6040518163ffffffff1660e01b8152600401602060405180830381865afa158015610569573d6000803e3d6000fd5b505050506040513d601f19601f8201168201806040525081019061058d91906127a2565b6105b25760405162461bcd60e51b81526004016105a9906127bf565b60405180910390fd5b6001546001600160a01b03163314806106325750600254604051637df73e2760e01b81523360048201526001600160a01b0390911690637df73e2790602401602060405180830381865afa15801561060e573d6000803e3d6000fd5b505050506040513d601f19601f8201168201806040525081019061063291906127a2565b6106735760405162461bcd60e51b81526020600482015260126024820152716f776d2e66616b652e2064656c656761746560701b60448201526064016105a9565b6002546040516307612f9160e21b81523360048201526000916001600160a01b031690631d84be4490602401602060405180830381865afa1580156106bc573d6000803e3d6000fd5b505050506040513d601f19601f820116820180604052508101906106e091906127eb565b90506107136040805160a08101825260008082526020820181905291810182905260608101829052608081019190915290565b60016020820181905282900361072b57600160408201525b8160020361073b57600160608201525b8160030361074b57600160808201525b6001600160a01b03909216808352600d80546020850151604086015160608701516080909701511515600160b81b0260ff60b81b19971515600160b01b0260ff60b01b19921515600160a81b029290921661ffff60a81b19931515600160a01b026001600160a81b031990951690961793909317919091169390931792909217939093161790915550565b6001600160a01b0381166000908152600e602052604090205460ff161561083f5760405162461bcd60e51b815260206004820152601960248201527f70726d646174612e616c72656164792e6163746976617465640000000000000060448201526064016105a9565b6001600160a01b03811660009081526012602052604090205460ff1661089b5760405162461bcd60e51b815260206004820152601160248201527070726d646174612e6e6f742e657869747360781b60448201526064016105a9565b346000036108e15760405162461bcd60e51b815260206004820152601360248201527270726d646174612e6e6f2e6d736776616c756560681b60448201526064016105a9565b60008060009054906101000a90046001600160a01b03166001600160a01b031663ab6e844f6040518163ffffffff1660e01b8152600401602060405180830381865afa158015610935573d6000803e3d6000fd5b505050506040513d601f19601f820116820180604052508101906109599190612804565b6040516345145fd760e01b81526001600160a01b03848116600483015291909116906345145fd790602401602060405180830381865afa1580156109a1573d6000803e3d6000fd5b505050506040513d601f19601f820116820180604052508101906109c59190612804565b90506001600160a01b038116610a1d5760405162461bcd60e51b815260206004820152601960248201527f70726d646174612e696e76616c69642e6e65776e65737465640000000000000060448201526064016105a9565b604080518082018252600881526769626b70726d282960c01b6020808301919091528251600080825291810190935291610a58918491611cd0565b9050336001600160a01b03821614610aab5760405162461bcd60e51b8152602060048201526016602482015275383936b230ba309734b73b30b634b21731b0b63632b960511b60448201526064016105a9565b60008060009054906101000a90046001600160a01b03166001600160a01b031663447aa3046040518163ffffffff1660e01b8152600401602060405180830381865afa158015610aff573d6000803e3d6000fd5b505050506040513d601f19601f82011682018060405250810190610b239190612804565b6040516345145fd760e01b81526001600160a01b03868116600483015291909116906345145fd790602401602060405180830381865afa158015610b6b573d6000803e3d6000fd5b505050506040513d601f19601f82011682018060405250810190610b8f9190612804565b90506001600160a01b038116610be75760405162461bcd60e51b815260206004820152601960248201527f70726d646174612e696e76616c69642e6f6c646e65737465640000000000000060448201526064016105a9565b6010546001600160a01b038083169163c107930a9116610c08600a42612821565b610c13906001612859565b6040516001600160e01b031960e085901b1681526001600160a01b0390921660048301526024820152600160448201523460648201526084016020604051808303816000875af1158015610c6b573d6000803e3d6000fd5b505050506040513d601f19601f82011682018060405250810190610c8f919061286c565b506011546040516001600160a01b03909116903480156108fc02916000818181858888f19350505050158015610cc9573d6000803e3d6000fd5b5050506001600160a01b039091166000908152600e60205260409020805460ff1916600117905550565b6000546001600160a01b031615610d415760405162461bcd60e51b81526020600482015260126024820152711bdddb8b9a195e18985cd94b99985a5b195960721b60448201526064016105a9565b600c8054326001600160a01b031991821617909155600080549091166001600160a01b038316179055610d72611d17565b50565b600260009054906101000a90046001600160a01b03166001600160a01b0316636a276f9d6040518163ffffffff1660e01b8152600401602060405180830381865afa158015610dc8573d6000803e3d6000fd5b505050506040513d601f19601f82011682018060405250810190610dec91906127a2565b610e085760405162461bcd60e51b81526004016105a9906127bf565b6002546040516319c0642960e01b81523360048201526001600160a01b03909116906319c0642990602401602060405180830381865afa158015610e50573d6000803e3d6000fd5b505050506040513d601f19601f82011682018060405250810190610e7491906127a2565b610e905760405162461bcd60e51b81526004016105a99061288f565b60005b815181101561100557610ed7828281518110610eb157610eb16128ba565b60200260200101516001600160a01b031660009081526012602052604090205460ff1690565b610f175760405162461bcd60e51b81526020600482015260116024820152701c1c9b59185d184b9b9bdd0b995e1a5cdd607a1b60448201526064016105a9565b600060126000848481518110610f2f57610f2f6128ba565b60200260200101516001600160a01b03166001600160a01b0316815260200190815260200160002060010181905550600060126000848481518110610f7657610f766128ba565b60200260200101516001600160a01b03166001600160a01b031681526020019081526020016000206002018190555060126000838381518110610fbb57610fbb6128ba565b6020908102919091018101516001600160a01b031682528101919091526040016000908120805460ff19168155600181018290556002015580610ffd816128d0565b915050610e93565b5050565b600260009054906101000a90046001600160a01b03166001600160a01b0316636a276f9d6040518163ffffffff1660e01b8152600401602060405180830381865afa15801561105c573d6000803e3d6000fd5b505050506040513d601f19601f8201168201806040525081019061108091906127a2565b61109c5760405162461bcd60e51b81526004016105a9906127bf565b6002546040516319c0642960e01b81523360048201526001600160a01b03909116906319c0642990602401602060405180830381865afa1580156110e4573d6000803e3d6000fd5b505050506040513d601f19601f8201168201806040525081019061110891906127a2565b6111245760405162461bcd60e51b81526004016105a99061288f565b60005b83518110156112c057611145848281518110610eb157610eb16128ba565b1561118a5760405162461bcd60e51b81526020600482015260156024820152741c1c9b59185d184b985b1c9958591e4b995e1a5cdd605a1b60448201526064016105a9565b6111b0604051806060016040528060001515815260200160008152602001600081525090565b6001815283518490839081106111c8576111c86128ba565b60200260200101518160200181815250508282815181106111eb576111eb6128ba565b60200260200101518160400181815250508060126000878581518110611213576112136128ba565b6020908102919091018101516001600160a01b031682528181019290925260409081016000208351815460ff191690151517815591830151600183015591909101516002909101558451600f90869084908110611272576112726128ba565b60209081029190910181015182546001810184556000938452919092200180546001600160a01b0319166001600160a01b0390921691909117905550806112b8816128d0565b915050611127565b50505050565b600260009054906101000a90046001600160a01b03166001600160a01b0316636a276f9d6040518163ffffffff1660e01b8152600401602060405180830381865afa158015611319573d6000803e3d6000fd5b505050506040513d601f19601f8201168201806040525081019061133d91906127a2565b6113595760405162461bcd60e51b81526004016105a9906127bf565b6001546001600160a01b03163314806113d95750600254604051637df73e2760e01b81523360048201526001600160a01b0390911690637df73e2790602401602060405180830381865afa1580156113b5573d6000803e3d6000fd5b505050506040513d601f19601f820116820180604052508101906113d991906127a2565b61141a5760405162461bcd60e51b81526020600482015260126024820152716f776d2e66616b652e2064656c656761746560701b60448201526064016105a9565b8015611668576002546040516307612f9160e21b81523360048201526000916001600160a01b031690631d84be4490602401602060405180830381865afa158015611469573d6000803e3d6000fd5b505050506040513d601f19601f8201168201806040525081019061148d91906127eb565b600d54909150600160a01b900460ff1680156114a95750806001145b80156114c25750600d546001600160a01b038481169116145b156114db57600d805460ff60a81b1916600160a81b1790555b600d54600160a01b900460ff1680156114f45750806002145b801561150d5750600d546001600160a01b038481169116145b1561152657600d805460ff60b01b1916600160b01b1790555b600d54600160a01b900460ff16801561153f5750806003145b80156115585750600d546001600160a01b038481169116145b1561157157600d805460ff60b81b1916600160b81b1790555b600d54600090600160a81b900460ff16156115945780611590816128d0565b9150505b600d54600160b01b900460ff16156115b457806115b0816128d0565b9150505b600d54600160b81b900460ff16156115d457806115d0816128d0565b9150505b600d54600160a01b900460ff1680156115ed5750806002145b80156116065750600d546001600160a01b038581169116145b156112c0575050600c80546001600160a01b0319166001600160a01b039390931692909217909155506040805160a0810182526000808252602082018190529181018290526060810182905260800152600d80546001600160c01b0319169055565b50506040805160a0810182526000808252602082018190529181018290526060810182905260800152600d80546001600160c01b0319169055565b600260009054906101000a90046001600160a01b03166001600160a01b0316636a276f9d6040518163ffffffff1660e01b8152600401602060405180830381865afa1580156116f6573d6000803e3d6000fd5b505050506040513d601f19601f8201168201806040525081019061171a91906127a2565b6117365760405162461bcd60e51b81526004016105a9906127bf565b6002546040516319c0642960e01b81523360048201526001600160a01b03909116906319c0642990602401602060405180830381865afa15801561177e573d6000803e3d6000fd5b505050506040513d601f19601f820116820180604052508101906117a291906127a2565b6117be5760405162461bcd60e51b81526004016105a99061288f565b60005b8451811015611a17576117df858281518110610eb157610eb16128ba565b61181f5760405162461bcd60e51b81526020600482015260116024820152701c1c9b59185d184b9b9bdd0b995e1a5cdd607a1b60448201526064016105a9565b818181518110611831576118316128ba565b60200260200101511561192457838181518110611850576118506128ba565b60200260200101516012600087848151811061186e5761186e6128ba565b60200260200101516001600160a01b03166001600160a01b0316815260200190815260200160002060010160008282546118a89190612859565b925050819055508281815181106118c1576118c16128ba565b6020026020010151601260008784815181106118df576118df6128ba565b60200260200101516001600160a01b03166001600160a01b0316815260200190815260200160002060020160008282546119199190612859565b90915550611a059050565b838181518110611936576119366128ba565b602002602001015160126000878481518110611954576119546128ba565b60200260200101516001600160a01b03166001600160a01b03168152602001908152602001600020600101600082825461198e91906128e9565b925050819055508281815181106119a7576119a76128ba565b6020026020010151601260008784815181106119c5576119c56128ba565b60200260200101516001600160a01b03166001600160a01b0316815260200190815260200160002060020160008282546119ff91906128e9565b90915550505b80611a0f816128d0565b9150506117c1565b5050505050565b600260009054906101000a90046001600160a01b03166001600160a01b0316636a276f9d6040518163ffffffff1660e01b8152600401602060405180830381865afa158015611a71573d6000803e3d6000fd5b505050506040513d601f19601f82011682018060405250810190611a9591906127a2565b611ab15760405162461bcd60e51b81526004016105a9906127bf565b6001546001600160a01b03163314611afd5760405162461bcd60e51b815260206004820152600f60248201526e6f776e2e6e6f6e617574682e44414f60881b60448201526064016105a9565b60405160009082156108fc0290839083818181858288f19350505050158015611005573d6000803e3d6000fd5b816001600160a01b038116611b765760405162461bcd60e51b815260206004820152601260248201527137bbb7173232b330bab63a1739b2b73232b960711b60448201526064016105a9565b600260009054906101000a90046001600160a01b03166001600160a01b0316636a276f9d6040518163ffffffff1660e01b8152600401602060405180830381865afa158015611bc9573d6000803e3d6000fd5b505050506040513d601f19601f82011682018060405250810190611bed91906127a2565b611c095760405162461bcd60e51b81526004016105a9906127bf565b6001546001600160a01b03163314611c555760405162461bcd60e51b815260206004820152600f60248201526e6f776e2e6e6f6e617574682e44414f60881b60448201526064016105a9565b60008211611c9a5760405162461bcd60e51b81526020600482015260126024820152711bdddb8b9a5b9d985b1a590b985b5bdd5b9d60721b60448201526064016105a9565b6040516001600160a01b0384169083156108fc029084906000818181858888f193505050501580156112c0573d6000803e3d6000fd5b6000806000611ce08686866122d3565b91509150818015611cf2575080516020145b15611d0e5780806020019051810190611d0b9190612804565b92505b50509392505050565b6000546001600160a01b0316611d2957565b60008054906101000a90046001600160a01b03166001600160a01b0316634162169f6040518163ffffffff1660e01b8152600401602060405180830381865afa158015611d7a573d6000803e3d6000fd5b505050506040513d601f19601f82011682018060405250810190611d9e9190612804565b600180546001600160a01b0319166001600160a01b0392831617905560005460408051635abedee360e11b81529051919092169163b57dbdc69160048083019260209291908290030181865afa158015611dfc573d6000803e3d6000fd5b505050506040513d601f19601f82011682018060405250810190611e209190612804565b600280546001600160a01b0319166001600160a01b039283161790556000546040805163cfbffe5360e01b81529051919092169163cfbffe539160048083019260209291908290030181865afa158015611e7e573d6000803e3d6000fd5b505050506040513d601f19601f82011682018060405250810190611ea29190612804565b600380546001600160a01b0319166001600160a01b039283161790556000546040805163ab6e844f60e01b81529051919092169163ab6e844f9160048083019260209291908290030181865afa158015611f00573d6000803e3d6000fd5b505050506040513d601f19601f82011682018060405250810190611f249190612804565b600480546001600160a01b0319166001600160a01b0392831617815560005460408051639a7c407760e01b815290519190931692639a7c407792818101926020929091908290030181865afa158015611f81573d6000803e3d6000fd5b505050506040513d601f19601f82011682018060405250810190611fa59190612804565b600580546001600160a01b0319166001600160a01b0392831617905560005460408051635506ee0b60e11b81529051919092169163aa0ddc169160048083019260209291908290030181865afa158015612003573d6000803e3d6000fd5b505050506040513d601f19601f820116820180604052508101906120279190612804565b600780546001600160a01b0319166001600160a01b03928316179055600054604080516335a577e360e11b815290519190921691636b4aefc69160048083019260209291908290030181865afa158015612085573d6000803e3d6000fd5b505050506040513d601f19601f820116820180604052508101906120a99190612804565b600880546001600160a01b0319166001600160a01b03928316179055600054604080516324768d9160e01b8152905191909216916324768d919160048083019260209291908290030181865afa158015612107573d6000803e3d6000fd5b505050506040513d601f19601f8201168201806040525081019061212b9190612804565b600b80546001600160a01b0319166001600160a01b0392831617905560005460408051636402742760e01b81529051919092169163640274279160048083019260209291908290030181865afa158015612189573d6000803e3d6000fd5b505050506040513d601f19601f820116820180604052508101906121ad9190612804565b600980546001600160a01b0319166001600160a01b03928316179055600054604080516330125cf560e01b8152905191909216916330125cf59160048083019260209291908290030181865afa15801561220b573d6000803e3d6000fd5b505050506040513d601f19601f8201168201806040525081019061222f9190612804565b600a80546001600160a01b0319166001600160a01b03928316179055600054604080516369e8d84b60e11b81529051919092169163d3d1b0969160048083019260209291908290030181865afa15801561228d573d6000803e3d6000fd5b505050506040513d601f19601f820116820180604052508101906122b19190612804565b600680546001600160a01b0319166001600160a01b0392909216919091179055565b60006060846001600160a01b03163b60000361230157505060408051602081019091526000808252906123cd565b6040805160048152602481019182905260009161231f908790612920565b60405180910390206001600160e01b0319166020820180516001600160e01b0383818316178352505050508460405160200161235c92919061293c565b6040516020818303038152906040529050856001600160a01b0316816040516123859190612920565b600060405180830381855afa9150503d80600081146123c0576040519150601f19603f3d011682016040523d82523d6000602084013e6123c5565b606091505b509093509150505b935093915050565b6001600160a01b0381168114610d7257600080fd5b6000602082840312156123fc57600080fd5b8135612407816123d5565b9392505050565b60006020828403121561242057600080fd5b5035919050565b634e487b7160e01b600052604160045260246000fd5b604051601f8201601f1916810167ffffffffffffffff8111828210171561246657612466612427565b604052919050565b600067ffffffffffffffff82111561248857612488612427565b5060051b60200190565b600082601f8301126124a357600080fd5b813560206124b86124b38361246e565b61243d565b82815260059290921b840181019181810190868411156124d757600080fd5b8286015b848110156124fb5780356124ee816123d5565b83529183019183016124db565b509695505050505050565b60006020828403121561251857600080fd5b813567ffffffffffffffff81111561252f57600080fd5b61253b84828501612492565b949350505050565b600082601f83011261255457600080fd5b813560206125646124b38361246e565b82815260059290921b8401810191818101908684111561258357600080fd5b8286015b848110156124fb5780358352918301918301612587565b6000806000606084860312156125b357600080fd5b833567ffffffffffffffff808211156125cb57600080fd5b6125d787838801612492565b945060208601359150808211156125ed57600080fd5b6125f987838801612543565b9350604086013591508082111561260f57600080fd5b5061261c86828701612543565b9150509250925092565b8015158114610d7257600080fd5b6000806040838503121561264757600080fd5b8235612652816123d5565b9150602083013561266281612626565b809150509250929050565b6000806000806080858703121561268357600080fd5b843567ffffffffffffffff8082111561269b57600080fd5b6126a788838901612492565b95506020915081870135818111156126be57600080fd5b6126ca89828a01612543565b9550506040870135818111156126df57600080fd5b6126eb89828a01612543565b94505060608701358181111561270057600080fd5b87019050601f8101881361271357600080fd5b80356127216124b38261246e565b81815260059190911b8201830190838101908a83111561274057600080fd5b928401925b8284101561276757833561275881612626565b82529284019290840190612745565b979a9699509497505050505050565b6000806040838503121561278957600080fd5b8235612794816123d5565b946020939093013593505050565b6000602082840312156127b457600080fd5b815161240781612626565b6020808252601290820152716f776e2e696e76616c69642e69735361666560701b604082015260600190565b6000602082840312156127fd57600080fd5b5051919050565b60006020828403121561281657600080fd5b8151612407816123d5565b60008261283e57634e487b7160e01b600052601260045260246000fd5b500690565b634e487b7160e01b600052601160045260246000fd5b8082018082111561051057610510612843565b60006020828403121561287e57600080fd5b81518060000b811461240757600080fd5b60208082526011908201527024b73b30b634b21029b0b332a7bbb732b960791b604082015260600190565b634e487b7160e01b600052603260045260246000fd5b6000600182016128e2576128e2612843565b5060010190565b8181038181111561051057610510612843565b60005b838110156129175781810151838201526020016128ff565b50506000910152565b600082516129328184602087016128fc565b9190910192915050565b6000835161294e8184602088016128fc565b8351908301906129628183602088016128fc565b0194935050505056fea2646970667358221220dfbf066e0bc250fa04bff305243a0193664231508373af62e2f6824bd441230c64736f6c63430008140033","linkReferences":{}},"methodIdentifiers":{"Burn(uint256)":"b90306ad","_setOwner(address,bool)":"abb8c965","_setReq(address)":"41ffe7c4","activatemint(address)":"5edc4a89","deleteUser(address[])":"8d2c50c3","getBalance()":"12065fe0","getNodesCount()":"61ea7208","hasActivated(address)":"d4dfd456","isExist(address)":"0013eb4b","isOwnerOrSafeOwner(address)":"379a423c","nodes(uint256)":"1c53c280","nodesStr(address)":"2172b2d2","ocr1155()":"73bad20b","own_reinit(address)":"60af454d","owner()":"8da5cb5b","req()":"0d43aaf2","setUser(address[],uint256[],uint256[])":"91bbb2c3","transfer()":"8a4068dd","updateUser(address[],uint256[],uint256[],bool[])":"b7fec78c","withdraw(address,uint256)":"f3fef3a3"},"id":5}