{"abi":[{"type":"constructor","inputs":[{"name":"_maxSupply","type":"uint256","internalType":"uint256"},{"name":"_fee","type":"uint256","internalType":"uint256"}],"stateMutability":"nonpayable"},{"type":"fallback","stateMutability":"payable"},{"type":"receive","stateMutability":"payable"},{"type":"function","name":"Burn","inputs":[{"name":"amount","type":"uint256","internalType":"uint256"}],"outputs":[],"stateMutability":"payable"},{"type":"function","name":"_setOwner","inputs":[{"name":"user","type":"address","internalType":"address"}],"outputs":[],"stateMutability":"nonpayable"},{"type":"function","name":"at","inputs":[{"name":"_addr","type":"address","internalType":"address"}],"outputs":[{"name":"o_code","type":"bytes","internalType":"bytes"}],"stateMutability":"view"},{"type":"function","name":"capping","inputs":[],"outputs":[{"name":"multiple","type":"uint256","internalType":"uint256"},{"name":"rw","type":"bool","internalType":"bool"},{"name":"ry","type":"bool","internalType":"bool"},{"name":"self","type":"bool","internalType":"bool"},{"name":"yei","type":"bool","internalType":"bool"}],"stateMutability":"view"},{"type":"function","name":"extractLvlPer","inputs":[{"name":"_rank","type":"uint256","internalType":"uint256"},{"name":"lvl","type":"uint256","internalType":"uint256"},{"name":"insage","type":"uint256","internalType":"uint256"}],"outputs":[{"name":"rwNum","type":"uint256","internalType":"uint256"},{"name":"rwrDen","type":"uint256","internalType":"uint256"},{"name":"yeiNum","type":"uint256","internalType":"uint256"},{"name":"yeiDen","type":"uint256","internalType":"uint256"}],"stateMutability":"view"},{"type":"function","name":"extractRank","inputs":[{"name":"curRnk","type":"uint256","internalType":"uint256"},{"name":"lvl","type":"uint256","internalType":"uint256"},{"name":"direct","type":"uint256","internalType":"uint256"},{"name":"nftamtbylvl","type":"uint256","internalType":"uint256"}],"outputs":[{"name":"","type":"uint256","internalType":"uint256"}],"stateMutability":"view"},{"type":"function","name":"freeDays","inputs":[],"outputs":[{"name":"","type":"uint256","internalType":"uint256"}],"stateMutability":"view"},{"type":"function","name":"getAdd","inputs":[],"outputs":[{"name":"","type":"address","internalType":"address"}],"stateMutability":"view"},{"type":"function","name":"getBalance","inputs":[],"outputs":[{"name":"","type":"uint256","internalType":"uint256"}],"stateMutability":"view"},{"type":"function","name":"levelClause","inputs":[{"name":"","type":"uint256","internalType":"uint256"}],"outputs":[{"name":"rank","type":"uint256","internalType":"uint256"},{"name":"rwNum","type":"uint256","internalType":"uint256"},{"name":"rwrDen","type":"uint256","internalType":"uint256"},{"name":"yeiNum","type":"uint256","internalType":"uint256"},{"name":"yeiDen","type":"uint256","internalType":"uint256"}],"stateMutability":"view"},{"type":"function","name":"maxSupply","inputs":[],"outputs":[{"name":"","type":"uint256","internalType":"uint256"}],"stateMutability":"view"},{"type":"function","name":"mintFee","inputs":[],"outputs":[{"name":"","type":"uint256","internalType":"uint256"}],"stateMutability":"view"},{"type":"function","name":"nftlimit","inputs":[],"outputs":[{"name":"","type":"uint256","internalType":"uint256"}],"stateMutability":"view"},{"type":"function","name":"owner","inputs":[],"outputs":[{"name":"","type":"address","internalType":"address"}],"stateMutability":"view"},{"type":"function","name":"poolA","inputs":[],"outputs":[{"name":"startafter","type":"uint256","internalType":"uint256"},{"name":"stakeN","type":"uint256","internalType":"uint256"},{"name":"stakeD","type":"uint256","internalType":"uint256"},{"name":"roiN","type":"uint256","internalType":"uint256"},{"name":"roiD","type":"uint256","internalType":"uint256"},{"name":"roiInt","type":"uint256","internalType":"uint256"},{"name":"roiEnd","type":"uint256","internalType":"uint256"}],"stateMutability":"view"},{"type":"function","name":"poolB","inputs":[],"outputs":[{"name":"startafter","type":"uint256","internalType":"uint256"},{"name":"stakeN","type":"uint256","internalType":"uint256"},{"name":"stakeD","type":"uint256","internalType":"uint256"},{"name":"roiN","type":"uint256","internalType":"uint256"},{"name":"roiD","type":"uint256","internalType":"uint256"},{"name":"roiInt","type":"uint256","internalType":"uint256"},{"name":"roiEnd","type":"uint256","internalType":"uint256"}],"stateMutability":"view"},{"type":"function","name":"poolNFT1","inputs":[],"outputs":[{"name":"roiN","type":"uint256","internalType":"uint256"},{"name":"roiD","type":"uint256","internalType":"uint256"},{"name":"roiInt","type":"uint256","internalType":"uint256"},{"name":"roiEnd","type":"uint256","internalType":"uint256"}],"stateMutability":"view"},{"type":"function","name":"poolNFT2","inputs":[],"outputs":[{"name":"roiN","type":"uint256","internalType":"uint256"},{"name":"roiD","type":"uint256","internalType":"uint256"},{"name":"roiInt","type":"uint256","internalType":"uint256"},{"name":"roiEnd","type":"uint256","internalType":"uint256"}],"stateMutability":"view"},{"type":"function","name":"rankClause","inputs":[{"name":"","type":"uint256","internalType":"uint256"}],"outputs":[{"name":"direct","type":"uint256","internalType":"uint256"},{"name":"nftAmount","type":"uint256","internalType":"uint256"}],"stateMutability":"view"},{"type":"function","name":"royalityClause","inputs":[{"name":"","type":"uint256","internalType":"uint256"}],"outputs":[{"name":"rwNum","type":"uint256","internalType":"uint256"},{"name":"rwDen","type":"uint256","internalType":"uint256"},{"name":"rwEnd","type":"uint256","internalType":"uint256"}],"stateMutability":"view"},{"type":"function","name":"rylinterwal","inputs":[],"outputs":[{"name":"","type":"uint256","internalType":"uint256"}],"stateMutability":"view"},{"type":"function","name":"setCapping","inputs":[{"name":"_multiple","type":"uint256","internalType":"uint256"},{"name":"_rw","type":"bool","internalType":"bool"},{"name":"_ry","type":"bool","internalType":"bool"},{"name":"_self","type":"bool","internalType":"bool"},{"name":"_yei","type":"bool","internalType":"bool"}],"outputs":[],"stateMutability":"nonpayable"},{"type":"function","name":"setCoinPool","inputs":[{"name":"_type","type":"bytes32","internalType":"bytes32"},{"name":"_start","type":"uint256","internalType":"uint256"},{"name":"_stakeN","type":"uint256","internalType":"uint256"},{"name":"_stakeD","type":"uint256","internalType":"uint256"},{"name":"_roiN","type":"uint256","internalType":"uint256"},{"name":"_roiD","type":"uint256","internalType":"uint256"},{"name":"_roiInt","type":"uint256","internalType":"uint256"},{"name":"_roiEnd","type":"uint256","internalType":"uint256"}],"outputs":[],"stateMutability":"nonpayable"},{"type":"function","name":"setFee","inputs":[{"name":"_fee","type":"uint256","internalType":"uint256"}],"outputs":[],"stateMutability":"nonpayable"},{"type":"function","name":"setNftPool","inputs":[{"name":"_type","type":"uint256","internalType":"uint256"},{"name":"_roiN","type":"uint256","internalType":"uint256"},{"name":"_roiD","type":"uint256","internalType":"uint256"},{"name":"_roiInt","type":"uint256","internalType":"uint256"},{"name":"_roiEnd","type":"uint256","internalType":"uint256"}],"outputs":[],"stateMutability":"nonpayable"},{"type":"function","name":"setParam","inputs":[{"name":"s","type":"address","internalType":"address"},{"name":"r","type":"address","internalType":"address"},{"name":"m","type":"address","internalType":"address"},{"name":"f","type":"address","internalType":"address"},{"name":"cl","type":"address","internalType":"address"}],"outputs":[],"stateMutability":"nonpayable"},{"type":"function","name":"setSupply","inputs":[{"name":"_supply","type":"uint256","internalType":"uint256"}],"outputs":[],"stateMutability":"nonpayable"},{"type":"function","name":"setfreeDays","inputs":[{"name":"_d","type":"uint256","internalType":"uint256"}],"outputs":[],"stateMutability":"nonpayable"},{"type":"function","name":"setlevelClause","inputs":[{"name":"lvl","type":"uint256","internalType":"uint256"},{"name":"_rank","type":"uint256","internalType":"uint256"},{"name":"_rpernum","type":"uint256","internalType":"uint256"},{"name":"_rperden","type":"uint256","internalType":"uint256"},{"name":"_ypernum","type":"uint256","internalType":"uint256"},{"name":"_yperden","type":"uint256","internalType":"uint256"}],"outputs":[],"stateMutability":"nonpayable"},{"type":"function","name":"setnftlimit","inputs":[{"name":"_limit","type":"uint256","internalType":"uint256"}],"outputs":[],"stateMutability":"nonpayable"},{"type":"function","name":"setrankClause","inputs":[{"name":"rank","type":"uint256","internalType":"uint256"},{"name":"direct","type":"uint256","internalType":"uint256"},{"name":"nftAmount","type":"uint256","internalType":"uint256"}],"outputs":[],"stateMutability":"nonpayable"},{"type":"function","name":"setroyalityClause","inputs":[{"name":"_rank","type":"uint256","internalType":"uint256"},{"name":"_rwNum","type":"uint256","internalType":"uint256"},{"name":"_rwDen","type":"uint256","internalType":"uint256"},{"name":"_rwEnd","type":"uint256","internalType":"uint256"}],"outputs":[],"stateMutability":"nonpayable"},{"type":"function","name":"setrylinterwal","inputs":[{"name":"_i","type":"uint256","internalType":"uint256"}],"outputs":[],"stateMutability":"nonpayable"},{"type":"function","name":"setshutdown","inputs":[{"name":"_shutdown","type":"bool","internalType":"bool"}],"outputs":[],"stateMutability":"nonpayable"},{"type":"function","name":"shutdown","inputs":[],"outputs":[{"name":"","type":"bool","internalType":"bool"}],"stateMutability":"view"},{"type":"function","name":"withdraw","inputs":[{"name":"amount","type":"uint256","internalType":"uint256"}],"outputs":[],"stateMutability":"payable"}],"bytecode":{"object":"0x60806040525f80546001600160a01b0319908116734ba1c6ce515736036d50303827b36c5266241ca3178255600180548216739da80bcc7bbb35e17a9c2d1e8a18ad4e92d5202b1781556002805483167310887d7f3dcf709c2ff3f7d8e1e4d18a5ab903ee17905560038054831673ddbf48c1565e675c3d906c0b8653f9a5f99e709317905560048054831673b0813e045cf5a0291e8c72f79466bd937bd947cb1790556005805483167324d623af6203a80e77e54077133658e44e32d3e317905560068054831673d049c98cfc44b53c0d07a711aa2a5603ead96eb21790556007805490921673064c0e620303c998b094519df2be840d28862115179091556064602555602655620f424060275560285562278d0060295534801562000124575f80fd5b5060405162002c7138038062002c7183398101604081905262000147916200104e565b600880546001600160a01b031916321790555f5460408051636a276f9d60e01b815290516001600160a01b039290921691636a276f9d916004808201926020929091908290030181865afa158015620001a2573d5f803e3d5ffd5b505050506040513d601f19601f82011682018060405250810190620001c8919062001071565b6200020a5760405162461bcd60e51b815260206004820152600e60248201526d24b73b30b634b21039b2b73232b960911b604482015260640160405180910390fd5b620002446040518060e001604052805f81526020015f81526020015f81526020015f81526020015f81526020015f81526020015f81525090565b600280825260646020808401829052604080850183905260046060808701829052600a6080808901829052600160a0808b018290526101f460c0808d01829052600c9b909b55600d8a9055600e99909955600f95909555601092909255601191909155601295909555825160e0810184525f80825294810185905292830184905282018390529281018290529182018190529181019190915260028252606460208083018290526040808401839052600e60608086018290526080808701869052600160a088018190526102d060c08901819052885160135560148890556015889055601694909455601796909655601895909555601991909155815193840182525f8085529284018390529083018290528201526019808252600a6020808401829052605a604080860182905261270f6060808801829052601a96909655601b94909455601c91909155601d9290925581516080810183525f80825291810182905291820181905291810191909152600a80825260016020808401829052610168604080860182905261270f6060808801829052601e96909655601f94909455908255602192909255815160a0810183525f80825291810182905291820181905291810182905260808101919091526004815f01818152505060018160200190151590811515815250506001816040019015159081151581525050600181606001901515908115158152505060018160800190151590811515815250508060225f820151815f01556020820151816001015f6101000a81548160ff02191690831515021790555060408201518160010160016101000a81548160ff02191690831515021790555060608201518160010160026101000a81548160ff02191690831515021790555060808201518160010160036101000a81548160ff021916908315150217905550905050604051806040016040528060078152602001601981525060095f600181526020019081526020015f205f820151815f015560208201518160010155905050604051806040016040528060078152602001606481525060095f600281526020019081526020015f205f820151815f0155602082015181600101559050506040518060400160405280600781526020016101f481525060095f600381526020019081526020015f205f820151815f0155602082015181600101559050506040518060400160405280600781526020016109c481525060095f600481526020019081526020015f205f820151815f01556020820151816001015590505060405180604001604052806007815260200161271081525060095f600581526020019081526020015f205f820151815f0155602082015181600101559050506040518060400160405280600781526020016161a881525060095f600681526020019081526020015f205f820151815f01556020820151816001015590505060405180604001604052806007815260200161c35081525060095f600781526020019081526020015f205f820151815f0155602082015181600101559050506040518060a001604052805f81526020016006815260200160018152602001600581526020016001815250600b5f600181526020019081526020015f205f820151815f0155602082015181600101556040820151816002015560608201518160030155608082015181600401559050506040518060a00160405280600181526020016004815260200160018152602001600581526020016001815250600b5f600281526020019081526020015f205f820151815f0155602082015181600101556040820151816002015560608201518160030155608082015181600401559050506040518060a00160405280600281526020016002815260200160018152602001600581526020016001815250600b5f600381526020019081526020015f205f820151815f0155602082015181600101556040820151816002015560608201518160030155608082015181600401559050506040518060a00160405280600281526020016001815260200160018152602001600581526020016001815250600b5f600481526020019081526020015f205f820151815f0155602082015181600101556040820151816002015560608201518160030155608082015181600401559050506040518060a00160405280600281526020016001815260200160018152602001600581526020016001815250600b5f600581526020019081526020015f205f820151815f0155602082015181600101556040820151816002015560608201518160030155608082015181600401559050506040518060a0016040528060028152602001600181526020016001815260200160fa81526020016064815250600b5f600681526020019081526020015f205f820151815f0155602082015181600101556040820151816002015560608201518160030155608082015181600401559050506040518060a0016040528060028152602001600181526020016001815260200160fa81526020016064815250600b5f600781526020019081526020015f205f820151815f0155602082015181600101556040820151816002015560608201518160030155608082015181600401559050506040518060a0016040528060028152602001600181526020016001815260200160fa81526020016064815250600b5f600881526020019081526020015f205f820151815f0155602082015181600101556040820151816002015560608201518160030155608082015181600401559050506040518060a0016040528060028152602001600181526020016001815260200160fa81526020016064815250600b5f600981526020019081526020015f205f820151815f0155602082015181600101556040820151816002015560608201518160030155608082015181600401559050506040518060a0016040528060028152602001600181526020016001815260200160fa81526020016064815250600b5f600a81526020019081526020015f205f820151815f0155602082015181600101556040820151816002015560608201518160030155608082015181600401559050506040518060a0016040528060028152602001600181526020016001815260200160fa81526020016064815250600b5f600b81526020019081526020015f205f820151815f0155602082015181600101556040820151816002015560608201518160030155608082015181600401559050506040518060a0016040528060028152602001600181526020016001815260200160fa81526020016064815250600b5f600c81526020019081526020015f205f820151815f015560208201518160010155604082015181600201556060820151816003015560808201518160040155905050506040805160a0808201835260028083526001602080850182815285870183815260fa606080890182815260646080808c01828152600d5f908152600b808b529d517f0a2216aa9bbf8764f3bfb9fafcef7f625aba82383c1a9d14d721124ff30595815597517f0a2216aa9bbf8764f3bfb9fafcef7f625aba82383c1a9d14d721124ff30595825595517f0a2216aa9bbf8764f3bfb9fafcef7f625aba82383c1a9d14d721124ff30595835591517f0a2216aa9bbf8764f3bfb9fafcef7f625aba82383c1a9d14d721124ff30595845593517f0a2216aa9bbf8764f3bfb9fafcef7f625aba82383c1a9d14d721124ff3059585558a51808a018c52888152808701888152818d01898152828501868152838501888152600e8a528e8b5293517f7ae97ffc8b2fe6ed730ad82f8c44cc0285c7a97ac189e2d88c56200fe9a501ab5591517f7ae97ffc8b2fe6ed730ad82f8c44cc0285c7a97ac189e2d88c56200fe9a501ac55517f7ae97ffc8b2fe6ed730ad82f8c44cc0285c7a97ac189e2d88c56200fe9a501ad55517f7ae97ffc8b2fe6ed730ad82f8c44cc0285c7a97ac189e2d88c56200fe9a501ae55517f7ae97ffc8b2fe6ed730ad82f8c44cc0285c7a97ac189e2d88c56200fe9a501af558a519889018b52878952888601888152898c018881528a8401948552918a01948552600f865299865297517faa4a9a284509ef9fb8de5e34389d7f6e999498a23d3df7e6e3cd60371eeb0d085597517faa4a9a284509ef9fb8de5e34389d7f6e999498a23d3df7e6e3cd60371eeb0d095595517faa4a9a284509ef9fb8de5e34389d7f6e999498a23d3df7e6e3cd60371eeb0d0a5594517faa4a9a284509ef9fb8de5e34389d7f6e999498a23d3df7e6e3cd60371eeb0d0b5593517faa4a9a284509ef9fb8de5e34389d7f6e999498a23d3df7e6e3cd60371eeb0d0c5585518086018752838152808201838152602d828901908152858752600a80855292517fbff4442b8ed600beeb8e26b1279a0f0d14c6edfaec26d968ee13c86f7d4c2ba85590517fbff4442b8ed600beeb8e26b1279a0f0d14c6edfaec26d968ee13c86f7d4c2ba955517fbff4442b8ed600beeb8e26b1279a0f0d14c6edfaec26d968ee13c86f7d4c2baa5586518087018852938452838201838152605a8589019081526004875282845294517fe1eb2b2161a492c07c5a334e48012567cba93ec021043f53c1955516a3c5a84155517fe1eb2b2161a492c07c5a334e48012567cba93ec021043f53c1955516a3c5a8425592517fe1eb2b2161a492c07c5a334e48012567cba93ec021043f53c1955516a3c5a843558551948501865281855284810191825261270f9585019586526007909352915290517f22e39f61d1e4986b4f116cea9067f62cc77d74dff1780ae9c8b5166d1dd2882955517f22e39f61d1e4986b4f116cea9067f62cc77d74dff1780ae9c8b5166d1dd2882a55517f22e39f61d1e4986b4f116cea9067f62cc77d74dff1780ae9c8b5166d1dd2882b555050506027929092556028555062001099565b5f806040838503121562001060575f80fd5b505080516020909101519092909150565b5f6020828403121562001082575f80fd5b8151801515811462001092575f80fd5b9392505050565b611bca80620010a75f395ff3fe6080604052600436106101fa575f3560e01c8063aebcd32a1161010b578063d5abeb0111610099578063f5602c271161006b578063f5602c2714610714578063f5de996114610729578063fc0e74d114610748578063fc20112214610771578063fdcb9dac1461079057005b8063d5abeb0114610695578063dce4a447146106aa578063ddbe7fa9146106d6578063e19a5bcf146106f557005b8063ca57e6bf116100dd578063ca57e6bf146105b4578063cbbf425f146105c9578063ccf93e7d1461062c578063d14d42ba1461064b578063d4a2aa331461066757005b8063aebcd32a14610519578063b075182314610560578063b85f1f8d1461057f578063b90306ad146105a157005b8063592a02a81161018857806369fe0e2d1161015a57806369fe0e2d1461046c5780637135b0301461048b5780637240be3d146104aa5780637687e371146104c95780638da5cb5b146104e857005b8063592a02a81461037c5780635962205f1461039b5780635a0e90381461040b578063622fe2ed1461044d57005b80632e1a7d4d116101cc5780632e1a7d4d1461026d5780633b4c4b25146102805780634151331d1461029f57806343c06bc4146102f45780635640dbfc1461031357005b806306123c331461020357806312065fe0146102225780631254b0431461024357806313966db51461025857005b3661020157005b005b34801561020e575f80fd5b5061020161021d3660046117cb565b6107af565b34801561022d575f80fd5b50475b6040519081526020015b60405180910390f35b34801561024e575f80fd5b5061023060255481565b348015610263575f80fd5b5061023060285481565b61020161027b3660046117cb565b6108e0565b34801561028b575f80fd5b5061020161029a3660046117cb565b61093b565b3480156102aa575f80fd5b506102d96102b93660046117cb565b600a6020525f908152604090208054600182015460029092015490919083565b6040805193845260208401929092529082015260600161023a565b3480156102ff575f80fd5b5061020161030e3660046117e2565b610a55565b34801561031e575f80fd5b5060225460235461034c919060ff808216916101008104821691620100008204811691630100000090041685565b6040805195865293151560208601529115159284019290925290151560608301521515608082015260a00161023a565b348015610387575f80fd5b5061020161039636600461180b565b610b48565b3480156103a6575f80fd5b506103e36103b53660046117cb565b600b6020525f9081526040902080546001820154600283015460038401546004909401549293919290919085565b604080519586526020860194909452928401919091526060830152608082015260a00161023a565b348015610416575f80fd5b50601a54601b54601c54601d5461042d9392919084565b60408051948552602085019390935291830152606082015260800161023a565b348015610458575f80fd5b5061020161046736600461185a565b610c64565b348015610477575f80fd5b506102016104863660046117cb565b610d67565b348015610496575f80fd5b5061042d6104a53660046117e2565b610e81565b3480156104b5575f80fd5b506102016104c43660046118be565b610eee565b3480156104d4575f80fd5b506102016104e33660046118ed565b610fee565b3480156104f3575f80fd5b506008546001600160a01b03165b6040516001600160a01b03909116815260200161023a565b348015610524575f80fd5b5061054b6105333660046117cb565b60096020525f90815260409020805460019091015482565b6040805192835260208301919091520161023a565b34801561056b575f80fd5b5061020161057a36600461192a565b611088565b34801561058a575f80fd5b50601e54601f5460205460215461042d9392919084565b6102016105af3660046117cb565b6111fb565b3480156105bf575f80fd5b5061023060265481565b3480156105d4575f80fd5b50600c54600d54600e54600f546010546011546012546105f79695949392919087565b604080519788526020880196909652948601939093526060850191909152608084015260a083015260c082015260e00161023a565b348015610637575f80fd5b506102016106463660046117cb565b611229565b348015610656575f80fd5b505f546001600160a01b0316610501565b348015610672575f80fd5b506013546014546015546016546017546018546019546105f79695949392919087565b3480156106a0575f80fd5b5061023060275481565b3480156106b5575f80fd5b506106c96106c436600461198b565b611343565b60405161023a91906119c6565b3480156106e1575f80fd5b506102016106f03660046119f8565b611374565b348015610700575f80fd5b5061020161070f366004611a48565b6114ef565b34801561071f575f80fd5b5061023060295481565b348015610734575f80fd5b506102016107433660046117cb565b61160a565b348015610753575f80fd5b506024546107619060ff1681565b604051901515815260200161023a565b34801561077c575f80fd5b5061020161078b36600461198b565b611696565b34801561079b575f80fd5b506102306107aa3660046118be565b61173f565b5f8054906101000a90046001600160a01b03166001600160a01b0316636a276f9d6040518163ffffffff1660e01b8152600401602060405180830381865afa1580156107fd573d5f803e3d5ffd5b505050506040513d601f19601f820116820180604052508101906108219190611a7f565b6108465760405162461bcd60e51b815260040161083d90611a9a565b60405180910390fd5b5f546040516319c0642960e01b81523360048201819052916001600160a01b0316906319c0642990602401602060405180830381865afa15801561088c573d5f803e3d5ffd5b505050506040513d601f19601f820116820180604052508101906108b09190611a7f565b6108cc5760405162461bcd60e51b815260040161083d90611a9a565b6108d98262015180611ad6565b6029555050565b60085432906001600160a01b0316811461090c5760405162461bcd60e51b815260040161083d90611a9a565b604051329083156108fc029084905f818181858888f19350505050158015610936573d5f803e3d5ffd5b505050565b5f8054906101000a90046001600160a01b03166001600160a01b0316636a276f9d6040518163ffffffff1660e01b8152600401602060405180830381865afa158015610989573d5f803e3d5ffd5b505050506040513d601f19601f820116820180604052508101906109ad9190611a7f565b6109c95760405162461bcd60e51b815260040161083d90611a9a565b5f546040516319c0642960e01b81523360048201819052916001600160a01b0316906319c0642990602401602060405180830381865afa158015610a0f573d5f803e3d5ffd5b505050506040513d601f19601f82011682018060405250810190610a339190611a7f565b610a4f5760405162461bcd60e51b815260040161083d90611a9a565b50602755565b5f546040516319c0642960e01b81523360048201819052916001600160a01b0316906319c0642990602401602060405180830381865afa158015610a9b573d5f803e3d5ffd5b505050506040513d601f19601f82011682018060405250810190610abf9190611a7f565b610adb5760405162461bcd60e51b815260040161083d90611a9a565b60088410610b1a5760405162461bcd60e51b815260206004820152600c60248201526b696e76616c69642072616e6b60a01b604482015260640161083d565b5060408051808201825292835260208084019283525f94855260099052909220905181559051600190910155565b5f546040516319c0642960e01b81523360048201819052916001600160a01b0316906319c0642990602401602060405180830381865afa158015610b8e573d5f803e3d5ffd5b505050506040513d601f19601f82011682018060405250810190610bb29190611a7f565b610bce5760405162461bcd60e51b815260040161083d90611a9a565b60108710610c0e5760405162461bcd60e51b815260206004820152600d60248201526c1a5b9d985b1a59081b195d995b609a1b604482015260640161083d565b506040805160a081018252958652602080870195865286820194855260608701938452608087019283525f978852600b905290952093518455915160018401555160028301555160038201559051600490910155565b5f546040516319c0642960e01b81523360048201819052916001600160a01b0316906319c0642990602401602060405180830381865afa158015610caa573d5f803e3d5ffd5b505050506040513d601f19601f82011682018060405250810190610cce9190611a7f565b610cea5760405162461bcd60e51b815260040161083d90611a9a565b506040805160a081018252868152941515602086018190529315159085018190529115156060850181905290151560809094018490526022949094556023805461ffff191661ff0019909316929092176101009091021763ffff000019166201000090930263ff0000001916929092176301000000909102179055565b5f8054906101000a90046001600160a01b03166001600160a01b0316636a276f9d6040518163ffffffff1660e01b8152600401602060405180830381865afa158015610db5573d5f803e3d5ffd5b505050506040513d601f19601f82011682018060405250810190610dd99190611a7f565b610df55760405162461bcd60e51b815260040161083d90611a9a565b5f546040516319c0642960e01b81523360048201819052916001600160a01b0316906319c0642990602401602060405180830381865afa158015610e3b573d5f803e3d5ffd5b505050506040513d601f19601f82011682018060405250810190610e5f9190611a7f565b610e7b5760405162461bcd60e51b815260040161083d90611a9a565b50602855565b5f828152600b602052604081205481908190819087101580610ea557506029548511155b15610ed9575050505f838152600b602052604090206001810154600282015460038301546004909301549193509190610ee5565b505f9250829150819050805b93509350935093565b5f546040516319c0642960e01b81523360048201819052916001600160a01b0316906319c0642990602401602060405180830381865afa158015610f34573d5f803e3d5ffd5b505050506040513d601f19601f82011682018060405250810190610f589190611a7f565b610f745760405162461bcd60e51b815260040161083d90611a9a565b60088510610fb35760405162461bcd60e51b815260206004820152600c60248201526b696e76616c69642072616e6b60a01b604482015260640161083d565b506040805160608101825293845260208085019384528482019283525f958652600a9052909320915182555160018201559051600290910155565b5f546040516319c0642960e01b81523360048201819052916001600160a01b0316906319c0642990602401602060405180830381865afa158015611034573d5f803e3d5ffd5b505050506040513d601f19601f820116820180604052508101906110589190611a7f565b6110745760405162461bcd60e51b815260040161083d90611a9a565b506024805460ff1916911515919091179055565b5f8054906101000a90046001600160a01b03166001600160a01b0316636a276f9d6040518163ffffffff1660e01b8152600401602060405180830381865afa1580156110d6573d5f803e3d5ffd5b505050506040513d601f19601f820116820180604052508101906110fa9190611a7f565b6111165760405162461bcd60e51b815260040161083d90611a9a565b5f546040516319c0642960e01b81523360048201819052916001600160a01b0316906319c0642990602401602060405180830381865afa15801561115c573d5f803e3d5ffd5b505050506040513d601f19601f820116820180604052508101906111809190611a7f565b61119c5760405162461bcd60e51b815260040161083d90611a9a565b505f80546001600160a01b03199081166001600160a01b03978816179091556001805482169587169590951790945560028054851693861693909317909255600780548416918516919091179055600680549092169216919091179055565b6040515f9082156108fc0290839083818181858288f19350505050158015611225573d5f803e3d5ffd5b5050565b5f8054906101000a90046001600160a01b03166001600160a01b0316636a276f9d6040518163ffffffff1660e01b8152600401602060405180830381865afa158015611277573d5f803e3d5ffd5b505050506040513d601f19601f8201168201806040525081019061129b9190611a7f565b6112b75760405162461bcd60e51b815260040161083d90611a9a565b5f546040516319c0642960e01b81523360048201819052916001600160a01b0316906319c0642990602401602060405180830381865afa1580156112fd573d5f803e3d5ffd5b505050506040513d601f19601f820116820180604052508101906113219190611a7f565b61133d5760405162461bcd60e51b815260040161083d90611a9a565b50602655565b606061134e8261179e565b60405160200161135e9190611af3565b6040516020818303038152906040529050919050565b5f546040516319c0642960e01b81523360048201819052916001600160a01b0316906319c0642990602401602060405180830381865afa1580156113ba573d5f803e3d5ffd5b505050506040513d601f19601f820116820180604052508101906113de9190611a7f565b6113fa5760405162461bcd60e51b815260040161083d90611a9a565b6114336040518060e001604052805f81526020015f81526020015f81526020015f81526020015f81526020015f81526020015f81525090565b8881526020810188905260408101879052606081018690526080810185905260a0810184905260c08101839052604160f81b8a90036114a2578051600c556020810151600d556040810151600e556060810151600f55608081015160105560a081015160115560c08101516012555b89602160f91b036114e3578051601355602081015160145560408101516015556060810151601655608081015160175560a081015160185560c08101516019555b50505050505050505050565b5f546040516319c0642960e01b81523360048201819052916001600160a01b0316906319c0642990602401602060405180830381865afa158015611535573d5f803e3d5ffd5b505050506040513d601f19601f820116820180604052508101906115599190611a7f565b6115755760405162461bcd60e51b815260040161083d90611a9a565b61159c60405180608001604052805f81526020015f81526020015f81526020015f81525090565b85815260208101859052604081018490526060810183905260018790036115db578051601a556020810151601b556040810151601c556060810151601d555b86600203611601578051601e55602080820151601f556040820151905560608101516021555b50505050505050565b5f546040516319c0642960e01b81523360048201819052916001600160a01b0316906319c0642990602401602060405180830381865afa158015611650573d5f803e3d5ffd5b505050506040513d601f19601f820116820180604052508101906116749190611a7f565b6116905760405162461bcd60e51b815260040161083d90611a9a565b50602555565b5f546040516319c0642960e01b81523360048201819052916001600160a01b0316906319c0642990602401602060405180830381865afa1580156116dc573d5f803e3d5ffd5b505050506040513d601f19601f820116820180604052508101906117009190611a7f565b61171c5760405162461bcd60e51b815260040161083d90611a9a565b50600880546001600160a01b0319166001600160a01b0392909216919091179055565b5f8361174c866001611b81565b14801561176657505f848152600960205260409020548311155b801561178257505f848152600960205260409020600101548211155b1561179557611792856001611b81565b94505b50929392505050565b6060816001600160a01b0316803b806020016040519081016040528181525f908060200190933c92915050565b5f602082840312156117db575f80fd5b5035919050565b5f805f606084860312156117f4575f80fd5b505081359360208301359350604090920135919050565b5f805f805f8060c08789031215611820575f80fd5b505084359660208601359650604086013595606081013595506080810135945060a0013592509050565b8015158114611857575f80fd5b50565b5f805f805f60a0868803121561186e575f80fd5b8535945060208601356118808161184a565b935060408601356118908161184a565b925060608601356118a08161184a565b915060808601356118b08161184a565b809150509295509295909350565b5f805f80608085870312156118d1575f80fd5b5050823594602084013594506040840135936060013592509050565b5f602082840312156118fd575f80fd5b81356119088161184a565b9392505050565b80356001600160a01b0381168114611925575f80fd5b919050565b5f805f805f60a0868803121561193e575f80fd5b6119478661190f565b94506119556020870161190f565b93506119636040870161190f565b92506119716060870161190f565b915061197f6080870161190f565b90509295509295909350565b5f6020828403121561199b575f80fd5b6119088261190f565b5f5b838110156119be5781810151838201526020016119a6565b50505f910152565b602081525f82518060208401526119e48160408501602087016119a4565b601f01601f19169190910160400192915050565b5f805f805f805f80610100898b031215611a10575f80fd5b505086359860208801359850604088013597606081013597506080810135965060a0810135955060c0810135945060e0013592509050565b5f805f805f60a08688031215611a5c575f80fd5b505083359560208501359550604085013594606081013594506080013592509050565b5f60208284031215611a8f575f80fd5b81516119088161184a565b6020808252600e908201526d24b73b30b634b21039b2b73232b960911b604082015260600190565b634e487b7160e01b5f52601160045260245ffd5b8082028115828204841417611aed57611aed611ac2565b92915050565b5f8251611b048184602087016119a4565b730468e8dc225c4746454419c9dcccb59a581434b160631b92019182525073d416952dc46fce2775e90571d46a79565d04cb2560601b602082015273094c37fb9b5b2065409a5c7cb9bff71c4d49bf4160601b604082015273fe69687ce9c746c10e1c2af1e3f5d1475df4300f60601b6060820152607401919050565b80820180821115611aed57611aed611ac256fea2646970667358221220863b313c5cc001636862d446d9e6ab0bd0c6c7f8a596e7ac9034b18eab863f6a64736f6c63430008140033","linkReferences":{}},"methodIdentifiers":{"Burn(uint256)":"b90306ad","_setOwner(address)":"fc201122","at(address)":"dce4a447","capping()":"5640dbfc","extractLvlPer(uint256,uint256,uint256)":"7135b030","extractRank(uint256,uint256,uint256,uint256)":"fdcb9dac","freeDays()":"f5602c27","getAdd()":"d14d42ba","getBalance()":"12065fe0","levelClause(uint256)":"5962205f","maxSupply()":"d5abeb01","mintFee()":"13966db5","nftlimit()":"1254b043","owner()":"8da5cb5b","poolA()":"cbbf425f","poolB()":"d4a2aa33","poolNFT1()":"5a0e9038","poolNFT2()":"b85f1f8d","rankClause(uint256)":"aebcd32a","royalityClause(uint256)":"4151331d","rylinterwal()":"ca57e6bf","setCapping(uint256,bool,bool,bool,bool)":"622fe2ed","setCoinPool(bytes32,uint256,uint256,uint256,uint256,uint256,uint256,uint256)":"ddbe7fa9","setFee(uint256)":"69fe0e2d","setNftPool(uint256,uint256,uint256,uint256,uint256)":"e19a5bcf","setParam(address,address,address,address,address)":"b0751823","setSupply(uint256)":"3b4c4b25","setfreeDays(uint256)":"06123c33","setlevelClause(uint256,uint256,uint256,uint256,uint256,uint256)":"592a02a8","setnftlimit(uint256)":"f5de9961","setrankClause(uint256,uint256,uint256)":"43c06bc4","setroyalityClause(uint256,uint256,uint256,uint256)":"7240be3d","setrylinterwal(uint256)":"ccf93e7d","setshutdown(bool)":"7687e371","shutdown()":"fc0e74d1","withdraw(uint256)":"2e1a7d4d"},"id":7}