{"abi":[{"type":"constructor","inputs":[{"name":"_contractName","type":"string","internalType":"string"},{"name":"_uri","type":"string","internalType":"string"},{"name":"_supply","type":"uint256","internalType":"uint256"}],"stateMutability":"nonpayable"},{"type":"fallback","stateMutability":"payable"},{"type":"receive","stateMutability":"payable"},{"type":"function","name":"Burn","inputs":[{"name":"amount","type":"uint256","internalType":"uint256"}],"outputs":[],"stateMutability":"payable"},{"type":"function","name":"Init","inputs":[{"name":"account","type":"address","internalType":"address"},{"name":"_id","type":"uint256","internalType":"uint256"},{"name":"qty","type":"uint256","internalType":"uint256"},{"name":"amt","type":"uint256","internalType":"uint256"}],"outputs":[{"name":"","type":"address","internalType":"address"}],"stateMutability":"payable"},{"type":"function","name":"PostInit","inputs":[{"name":"_contractName","type":"string","internalType":"string"},{"name":"_uri","type":"string","internalType":"string"},{"name":"_name","type":"string","internalType":"string"},{"name":"_nid","type":"uint256","internalType":"uint256"},{"name":"account","type":"address","internalType":"address"},{"name":"qty","type":"uint256","internalType":"uint256"},{"name":"amt","type":"uint256","internalType":"uint256"}],"outputs":[],"stateMutability":"nonpayable"},{"type":"function","name":"_getUnlockedNFT","inputs":[],"outputs":[{"name":"_NFT","type":"uint256","internalType":"uint256"}],"stateMutability":"view"},{"type":"function","name":"_setOwner","inputs":[{"name":"own","type":"address","internalType":"address"},{"name":"isApproved","type":"bool","internalType":"bool"}],"outputs":[],"stateMutability":"nonpayable"},{"type":"function","name":"_setReq","inputs":[{"name":"own","type":"address","internalType":"address"}],"outputs":[],"stateMutability":"nonpayable"},{"type":"function","name":"addToken","inputs":[{"name":"_names","type":"string[]","internalType":"string[]"}],"outputs":[],"stateMutability":"nonpayable"},{"type":"function","name":"at","inputs":[{"name":"_addr","type":"address","internalType":"address"}],"outputs":[{"name":"o_code","type":"bytes","internalType":"bytes"}],"stateMutability":"view"},{"type":"function","name":"balanceOf","inputs":[{"name":"account","type":"address","internalType":"address"},{"name":"id","type":"uint256","internalType":"uint256"}],"outputs":[{"name":"","type":"uint256","internalType":"uint256"}],"stateMutability":"view"},{"type":"function","name":"balanceOfBatch","inputs":[{"name":"accounts","type":"address[]","internalType":"address[]"},{"name":"ids","type":"uint256[]","internalType":"uint256[]"}],"outputs":[{"name":"","type":"uint256[]","internalType":"uint256[]"}],"stateMutability":"view"},{"type":"function","name":"baseMetadataURI","inputs":[],"outputs":[{"name":"","type":"string","internalType":"string"}],"stateMutability":"view"},{"type":"function","name":"burn","inputs":[{"name":"from","type":"address","internalType":"address"},{"name":"id","type":"uint256","internalType":"uint256"},{"name":"amount","type":"uint256","internalType":"uint256"}],"outputs":[],"stateMutability":"nonpayable"},{"type":"function","name":"claimed","inputs":[],"outputs":[{"name":"","type":"uint256","internalType":"uint256"}],"stateMutability":"view"},{"type":"function","name":"cloned","inputs":[{"name":"","type":"uint256","internalType":"uint256"},{"name":"","type":"uint256","internalType":"uint256"}],"outputs":[{"name":"","type":"address","internalType":"address"}],"stateMutability":"view"},{"type":"function","name":"curSupply","inputs":[],"outputs":[{"name":"","type":"uint256","internalType":"uint256"}],"stateMutability":"view"},{"type":"function","name":"forceAge","inputs":[{"name":"ag","type":"uint256","internalType":"uint256"}],"outputs":[],"stateMutability":"nonpayable"},{"type":"function","name":"forceTransfer","inputs":[{"name":"to","type":"address","internalType":"address"}],"outputs":[],"stateMutability":"nonpayable"},{"type":"function","name":"getBalance","inputs":[],"outputs":[{"name":"","type":"uint256","internalType":"uint256"}],"stateMutability":"view"},{"type":"function","name":"getCloneCountByToken","inputs":[{"name":"_id","type":"uint256","internalType":"uint256"}],"outputs":[{"name":"","type":"uint256","internalType":"uint256"}],"stateMutability":"view"},{"type":"function","name":"getNames","inputs":[{"name":"inx","type":"uint256","internalType":"uint256"}],"outputs":[{"name":"","type":"string","internalType":"string"}],"stateMutability":"view"},{"type":"function","name":"getTokenCount","inputs":[],"outputs":[{"name":"","type":"uint256","internalType":"uint256"}],"stateMutability":"view"},{"type":"function","name":"idToName","inputs":[{"name":"","type":"uint256","internalType":"uint256"}],"outputs":[{"name":"","type":"string","internalType":"string"}],"stateMutability":"view"},{"type":"function","name":"ids","inputs":[{"name":"","type":"uint256","internalType":"uint256"}],"outputs":[{"name":"","type":"uint256","internalType":"uint256"}],"stateMutability":"view"},{"type":"function","name":"isAccountSafeOwner","inputs":[{"name":"sender","type":"address","internalType":"address"}],"outputs":[{"name":"","type":"bool","internalType":"bool"}],"stateMutability":"view"},{"type":"function","name":"isApprovedForAll","inputs":[{"name":"account","type":"address","internalType":"address"},{"name":"operator","type":"address","internalType":"address"}],"outputs":[{"name":"","type":"bool","internalType":"bool"}],"stateMutability":"view"},{"type":"function","name":"isOwnerOrSafeOwner","inputs":[{"name":"sender","type":"address","internalType":"address"}],"outputs":[{"name":"","type":"bool","internalType":"bool"}],"stateMutability":"view"},{"type":"function","name":"isclone","inputs":[{"name":"","type":"address","internalType":"address"}],"outputs":[{"name":"","type":"bool","internalType":"bool"}],"stateMutability":"view"},{"type":"function","name":"mintAmt","inputs":[],"outputs":[{"name":"","type":"uint256","internalType":"uint256"}],"stateMutability":"view"},{"type":"function","name":"mintedAge","inputs":[],"outputs":[{"name":"","type":"uint256","internalType":"uint256"}],"stateMutability":"view"},{"type":"function","name":"mintedUser","inputs":[],"outputs":[{"name":"","type":"address","internalType":"address"}],"stateMutability":"view"},{"type":"function","name":"mintedqty","inputs":[],"outputs":[{"name":"","type":"uint256","internalType":"uint256"}],"stateMutability":"view"},{"type":"function","name":"name","inputs":[],"outputs":[{"name":"","type":"string","internalType":"string"}],"stateMutability":"view"},{"type":"function","name":"nameToId","inputs":[{"name":"","type":"string","internalType":"string"}],"outputs":[{"name":"","type":"uint256","internalType":"uint256"}],"stateMutability":"view"},{"type":"function","name":"names","inputs":[{"name":"","type":"uint256","internalType":"uint256"}],"outputs":[{"name":"","type":"string","internalType":"string"}],"stateMutability":"view"},{"type":"function","name":"owner","inputs":[],"outputs":[{"name":"","type":"address","internalType":"address"}],"stateMutability":"view"},{"type":"function","name":"req","inputs":[],"outputs":[{"name":"newowner","type":"address","internalType":"address"},{"name":"isReq","type":"bool","internalType":"bool"},{"name":"isVer1","type":"bool","internalType":"bool"},{"name":"isVer2","type":"bool","internalType":"bool"},{"name":"isVer3","type":"bool","internalType":"bool"}],"stateMutability":"view"},{"type":"function","name":"safeBatchTransferFrom","inputs":[{"name":"from","type":"address","internalType":"address"},{"name":"to","type":"address","internalType":"address"},{"name":"ids","type":"uint256[]","internalType":"uint256[]"},{"name":"values","type":"uint256[]","internalType":"uint256[]"},{"name":"data","type":"bytes","internalType":"bytes"}],"outputs":[],"stateMutability":"nonpayable"},{"type":"function","name":"safeTransferFrom","inputs":[{"name":"from","type":"address","internalType":"address"},{"name":"to","type":"address","internalType":"address"},{"name":"id","type":"uint256","internalType":"uint256"},{"name":"value","type":"uint256","internalType":"uint256"},{"name":"data","type":"bytes","internalType":"bytes"}],"outputs":[],"stateMutability":"nonpayable"},{"type":"function","name":"setApprovalForAll","inputs":[{"name":"operator","type":"address","internalType":"address"},{"name":"approved","type":"bool","internalType":"bool"}],"outputs":[],"stateMutability":"nonpayable"},{"type":"function","name":"setFeeAmt","inputs":[{"name":"_fee","type":"uint256","internalType":"uint256"}],"outputs":[],"stateMutability":"nonpayable"},{"type":"function","name":"setParam","inputs":[{"name":"s","type":"address","internalType":"address"},{"name":"r","type":"address","internalType":"address"},{"name":"m","type":"address","internalType":"address"},{"name":"f","type":"address","internalType":"address"},{"name":"t","type":"address","internalType":"address"}],"outputs":[],"stateMutability":"nonpayable"},{"type":"function","name":"setURI","inputs":[{"name":"newuri","type":"string","internalType":"string"}],"outputs":[],"stateMutability":"nonpayable"},{"type":"function","name":"setsupply","inputs":[{"name":"_s","type":"uint256","internalType":"uint256"}],"outputs":[],"stateMutability":"nonpayable"},{"type":"function","name":"supportsInterface","inputs":[{"name":"interfaceId","type":"bytes4","internalType":"bytes4"}],"outputs":[{"name":"","type":"bool","internalType":"bool"}],"stateMutability":"view"},{"type":"function","name":"totSupply","inputs":[],"outputs":[{"name":"","type":"uint256","internalType":"uint256"}],"stateMutability":"view"},{"type":"function","name":"uri","inputs":[{"name":"_tokenid","type":"uint256","internalType":"uint256"}],"outputs":[{"name":"","type":"string","internalType":"string"}],"stateMutability":"view"},{"type":"function","name":"withdraw","inputs":[{"name":"to","type":"address","internalType":"address"},{"name":"amount","type":"uint256","internalType":"uint256"}],"outputs":[],"stateMutability":"payable"},{"type":"event","name":"ApprovalForAll","inputs":[{"name":"account","type":"address","indexed":true,"internalType":"address"},{"name":"operator","type":"address","indexed":true,"internalType":"address"},{"name":"approved","type":"bool","indexed":false,"internalType":"bool"}],"anonymous":false},{"type":"event","name":"TransferBatch","inputs":[{"name":"operator","type":"address","indexed":true,"internalType":"address"},{"name":"from","type":"address","indexed":true,"internalType":"address"},{"name":"to","type":"address","indexed":true,"internalType":"address"},{"name":"ids","type":"uint256[]","indexed":false,"internalType":"uint256[]"},{"name":"values","type":"uint256[]","indexed":false,"internalType":"uint256[]"}],"anonymous":false},{"type":"event","name":"TransferSingle","inputs":[{"name":"operator","type":"address","indexed":true,"internalType":"address"},{"name":"from","type":"address","indexed":true,"internalType":"address"},{"name":"to","type":"address","indexed":true,"internalType":"address"},{"name":"id","type":"uint256","indexed":false,"internalType":"uint256"},{"name":"value","type":"uint256","indexed":false,"internalType":"uint256"}],"anonymous":false},{"type":"event","name":"URI","inputs":[{"name":"value","type":"string","indexed":false,"internalType":"string"},{"name":"id","type":"uint256","indexed":true,"internalType":"uint256"}],"anonymous":false},{"type":"error","name":"ERC1155InsufficientBalance","inputs":[{"name":"sender","type":"address","internalType":"address"},{"name":"balance","type":"uint256","internalType":"uint256"},{"name":"needed","type":"uint256","internalType":"uint256"},{"name":"tokenId","type":"uint256","internalType":"uint256"}]},{"type":"error","name":"ERC1155InvalidApprover","inputs":[{"name":"approver","type":"address","internalType":"address"}]},{"type":"error","name":"ERC1155InvalidArrayLength","inputs":[{"name":"idsLength","type":"uint256","internalType":"uint256"},{"name":"valuesLength","type":"uint256","internalType":"uint256"}]},{"type":"error","name":"ERC1155InvalidOperator","inputs":[{"name":"operator","type":"address","internalType":"address"}]},{"type":"error","name":"ERC1155InvalidReceiver","inputs":[{"name":"receiver","type":"address","internalType":"address"}]},{"type":"error","name":"ERC1155InvalidSender","inputs":[{"name":"sender","type":"address","internalType":"address"}]},{"type":"error","name":"ERC1155MissingApprovalForAll","inputs":[{"name":"operator","type":"address","internalType":"address"},{"name":"owner","type":"address","internalType":"address"}]},{"type":"error","name":"FailedDeployment","inputs":[]},{"type":"error","name":"InsufficientBalance","inputs":[{"name":"balance","type":"uint256","internalType":"uint256"},{"name":"needed","type":"uint256","internalType":"uint256"}]}],"bytecode":{"object":"0x60806040526000601755600060185560006019556000601a553480156200002557600080fd5b50604051620046a5380380620046a5833981016040819052620000489162000457565b816200005481620001f7565b5062000139600380546001600160a01b03199081167360c95eb879eec03a0af4528a16f192e61a198f401790915560048054821673f134e58248ab8380e911d36c21e1015e5e84814117905560058054821673c0cee8b561cc4f60869776ca5b0b7a295e04f5af17905560068054821673b8193c79fc3f1d7dfaa0bae85fe3b1bff0558abb17905560078054821673648565deb50c503ef59860d92942eaece0c3e17217905560088054821673a73f86c17d319780007baa6ffd9ff25031bdb01417905560098054909116736c96f2d0c9a8b7fb472a319b1ecf7e8626c7b2ba179055565b600a80546001600160a01b03191632179055620001568262000209565b600e62000164838262000559565b50600f62000173848262000559565b5060198190556005546040805163262a9dff60e01b815290516001600160a01b039092169163262a9dff916004808201926020929091908290030181865afa158015620001c4573d6000803e3d6000fd5b505050506040513d601f19601f82011682018060405250810190620001ea919062000625565b601655506200066a915050565b600262000205828262000559565b5050565b600360009054906101000a90046001600160a01b03166001600160a01b0316636a276f9d6040518163ffffffff1660e01b8152600401602060405180830381865afa1580156200025d573d6000803e3d6000fd5b505050506040513d601f19601f820116820180604052508101906200028391906200063f565b620002d55760405162461bcd60e51b815260206004820152601a60248201527f496e76616c6964205361666567756172642e697353616665282900000000000060448201526064015b60405180910390fd5b6003546040516319c0642960e01b81523360048201819052916001600160a01b0316906319c0642990602401602060405180830381865afa1580156200031f573d6000803e3d6000fd5b505050506040513d601f19601f820116820180604052508101906200034591906200063f565b620003875760405162461bcd60e51b815260206004820152601160248201527024b73b30b634b21029b0b332a7bbb732b960791b6044820152606401620002cc565b6200020582620001f7565b634e487b7160e01b600052604160045260246000fd5b600082601f830112620003ba57600080fd5b81516001600160401b0380821115620003d757620003d762000392565b604051601f8301601f19908116603f0116810190828211818310171562000402576200040262000392565b816040528381526020925086838588010111156200041f57600080fd5b600091505b8382101562000443578582018301518183018401529082019062000424565b600093810190920192909252949350505050565b6000806000606084860312156200046d57600080fd5b83516001600160401b03808211156200048557600080fd5b6200049387838801620003a8565b94506020860151915080821115620004aa57600080fd5b50620004b986828701620003a8565b925050604084015190509250925092565b600181811c90821680620004df57607f821691505b6020821081036200050057634e487b7160e01b600052602260045260246000fd5b50919050565b601f8211156200055457600081815260208120601f850160051c810160208610156200052f5750805b601f850160051c820191505b8181101562000550578281556001016200053b565b5050505b505050565b81516001600160401b0381111562000575576200057562000392565b6200058d81620005868454620004ca565b8462000506565b602080601f831160018114620005c55760008415620005ac5750858301515b600019600386901b1c1916600185901b17855562000550565b600085815260208120601f198616915b82811015620005f657888601518255948401946001909101908401620005d5565b5085821015620006155787850151600019600388901b60f8161c191681555b5050505050600190811b01905550565b6000602082840312156200063857600080fd5b5051919050565b6000602082840312156200065257600080fd5b815180151581146200066357600080fd5b9392505050565b61402b806200067a6000396000f3fe6080604052600436106102735760003560e01c806381fbf0a51161014e578063d878fe10116100bb578063f3fef3a311610077578063f3fef3a3146107eb578063f5298aca146107fe578063f6d8f2cb1461081e578063f9ffedb714610856578063fac333ac1461086c578063fcf563681461088c57005b8063d878fe101461073f578063d92f24ae1461075f578063dce4a44714610775578063e834a83414610795578063e985e9c5146107ab578063f242432a146107cb57005b8063abb8c9651161010a578063abb8c96514610697578063abbbf8d7146106b7578063b0751823146106d7578063b90306ad146106f7578063c3bd18c31461070a578063d36606231461072a57005b806381fbf0a5146105e35780638d8a761f146105f95780638da5cb5b1461061957806392b31d87146106375780639be02df614610657578063a22cb4651461067757005b8063364410b3116101ec57806357e0e465116101a857806357e0e4651461053d5780635b2bd79e1461056d5780635fac2d9d146105825780636589c252146105985780636c51797b146105b857806378a89567146105ce57005b8063364410b314610470578063379a423c1461049057806341ffe7c4146104b05780634622ab03146104d05780634e1273f4146104f05780635718e17b1461051d57005b80630d43aaf21161023b5780630d43aaf2146103415780630e89341c146103c557806312065fe0146103e55780631f5ae5f3146103f8578063238a4480146104255780632eb2c2d61461045057005b8062fdd58e1461027c57806301ffc9a7146102af57806302fe5305146102df5780630399c93c146102ff57806306fdde031461031f57005b3661027a57005b005b34801561028857600080fd5b5061029c61029736600461328d565b6108ac565b6040519081526020015b60405180910390f35b3480156102bb57600080fd5b506102cf6102ca3660046132cf565b6108d4565b60405190151581526020016102a6565b3480156102eb57600080fd5b5061027a6102fa3660046133aa565b610924565b34801561030b57600080fd5b5061027a61031a3660046133e7565b610a56565b34801561032b57600080fd5b50610334610c0c565b6040516102a69190613454565b34801561034d57600080fd5b50600b5461038b906001600160a01b0381169060ff600160a01b8204811691600160a81b8104821691600160b01b8204811691600160b81b90041685565b604080516001600160a01b03909616865293151560208601529115159284019290925290151560608301521515608082015260a0016102a6565b3480156103d157600080fd5b506103346103e0366004613467565b610c9a565b3480156103f157600080fd5b504761029c565b34801561040457600080fd5b5061029c610413366004613467565b60009081526013602052604090205490565b610438610433366004613480565b610cce565b6040516001600160a01b0390911681526020016102a6565b34801561045c57600080fd5b5061027a61046b36600461354a565b610fae565b34801561047c57600080fd5b5061033461048b366004613467565b611015565b34801561049c57600080fd5b506102cf6104ab3660046133e7565b61102e565b3480156104bc57600080fd5b5061027a6104cb3660046133e7565b6110b8565b3480156104dc57600080fd5b506103346104eb366004613467565b6112c7565b3480156104fc57600080fd5b5061051061050b3660046135f8565b6112f2565b6040516102a691906136f5565b34801561052957600080fd5b50610334610538366004613467565b6113c7565b34801561054957600080fd5b506102cf6105583660046133e7565b60126020526000908152604090205460ff1681565b34801561057957600080fd5b50610334611476565b34801561058e57600080fd5b5061029c601a5481565b3480156105a457600080fd5b5061027a6105b3366004613467565b611483565b3480156105c457600080fd5b5061029c60155481565b3480156105da57600080fd5b50600d5461029c565b3480156105ef57600080fd5b5061029c60195481565b34801561060557600080fd5b5061027a610614366004613708565b611512565b34801561062557600080fd5b50600a546001600160a01b0316610438565b34801561064357600080fd5b506104386106523660046137c1565b6117be565b34801561066357600080fd5b5061027a610672366004613467565b6117f6565b34801561068357600080fd5b5061027a6106923660046137f1565b611925565b3480156106a357600080fd5b5061027a6106b23660046137f1565b611930565b3480156106c357600080fd5b5061027a6106d236600461382a565b611c63565b3480156106e357600080fd5b5061027a6106f23660046138db565b611e63565b61027a610705366004613467565b611fdf565b34801561071657600080fd5b506102cf6107253660046133e7565b612095565b34801561073657600080fd5b5061029c612104565b34801561074b57600080fd5b5061027a61075a366004613467565b6123de565b34801561076b57600080fd5b5061029c60185481565b34801561078157600080fd5b506103346107903660046133e7565b61246d565b3480156107a157600080fd5b5061029c60175481565b3480156107b757600080fd5b506102cf6107c636600461394c565b612488565b3480156107d757600080fd5b5061027a6107e636600461397a565b6124b6565b61027a6107f936600461328d565b612515565b34801561080a57600080fd5b5061027a6108193660046139e3565b6125d9565b34801561082a57600080fd5b5061029c6108393660046133aa565b805160208183018101805160108252928201919093012091525481565b34801561086257600080fd5b5061029c60165481565b34801561087857600080fd5b5061029c610887366004613467565b6126bb565b34801561089857600080fd5b50601454610438906001600160a01b031681565b6000818152602081815260408083206001600160a01b03861684529091529020545b92915050565b60006001600160e01b03198216636cdb3d1360e11b148061090557506001600160e01b031982166303a24d0760e21b145b806108ce57506301ffc9a760e01b6001600160e01b03198316146108ce565b600360009054906101000a90046001600160a01b03166001600160a01b0316636a276f9d6040518163ffffffff1660e01b8152600401602060405180830381865afa158015610977573d6000803e3d6000fd5b505050506040513d601f19601f8201168201806040525081019061099b9190613a18565b6109c05760405162461bcd60e51b81526004016109b790613a35565b60405180910390fd5b6003546040516319c0642960e01b81523360048201819052916001600160a01b0316906319c0642990602401602060405180830381865afa158015610a09573d6000803e3d6000fd5b505050506040513d601f19601f82011682018060405250810190610a2d9190613a18565b610a495760405162461bcd60e51b81526004016109b790613a6c565b610a52826126dc565b5050565b6003546040516319c0642960e01b81523260048201526001600160a01b03909116906319c0642990602401602060405180830381865afa158015610a9e573d6000803e3d6000fd5b505050506040513d601f19601f82011682018060405250810190610ac29190613a18565b80610b3457506003546040516319c0642960e01b81523360048201526001600160a01b03909116906319c0642990602401602060405180830381865afa158015610b10573d6000803e3d6000fd5b505050506040513d601f19601f82011682018060405250810190610b349190613a18565b610b805760405162461bcd60e51b815260206004820152601e60248201527f6f7263313135352e696e76616c69642e736166654f776e65722e63616c6c000060448201526064016109b7565b601b805460ff19166001179055600a54600d8054610bd6926001600160a01b0316918491600090610bb357610bb3613a97565b9060005260206000200154601854604051806020016040528060008152506126e8565b600a80546001600160a01b039092166001600160a01b0319928316811790915560148054909216179055601b805460ff19169055565b600f8054610c1990613aad565b80601f0160208091040260200160405190810160405280929190818152602001828054610c4590613aad565b8015610c925780601f10610c6757610100808354040283529160200191610c92565b820191906000526020600020905b815481529060010190602001808311610c7557829003601f168201915b505050505081565b6060600e610ca78361276d565b604051602001610cb8929190613ae7565b6040516020818303038152906040529050919050565b60035460408051636a276f9d60e01b815290516000926001600160a01b031691636a276f9d9160048083019260209291908290030181865afa158015610d18573d6000803e3d6000fd5b505050506040513d601f19601f82011682018060405250810190610d3c9190613a18565b610d585760405162461bcd60e51b81526004016109b790613a35565b846001600160a01b038116610da05760405162461bcd60e51b815260206004820152600e60248201526d3232b330bab63a1039b2b73232b960911b60448201526064016109b7565b60055460405162ba80a960e11b81523360048201526001600160a01b0390911690630175015290602401602060405180830381865afa158015610de7573d6000803e3d6000fd5b505050506040513d601f19601f82011682018060405250810190610e0b9190613a18565b610e495760405162461bcd60e51b815260206004820152600f60248201526e756e6175746820696e7374616e636560881b60448201526064016109b7565b83601a54610e579190613b94565b6019541015610e9a5760405162461bcd60e51b815260206004820152600f60248201526e1cdd5c1c1b1e48189c995858da1959608a1b60448201526064016109b7565b6000610ea530612800565b90506001600160a01b038116638d8a761f600f600e600c610ec760018c613ba7565b81548110610ed757610ed7613a97565b906000526020600020018a8c8b8b6040518863ffffffff1660e01b8152600401610f079796959493929190613c37565b600060405180830381600087803b158015610f2157600080fd5b505af1158015610f35573d6000803e3d6000fd5b50505060008781526013602090815260408083208054600180820183559185528385200180546001600160a01b0319166001600160a01b038816908117909155845260129092528220805460ff19169091179055601a8054889350909190610f9e908490613b94565b9091555090979650505050505050565b336001600160a01b0386168114801590610fcf5750610fcd8682612488565b155b156110005760405163711bec9160e11b81526001600160a01b038083166004830152871660248201526044016109b7565b61100d868686868661280d565b505050505050565b60116020526000908152604090208054610c1990613aad565b6003546040516319c0642960e01b81526001600160a01b03838116600483015260009216906319c0642990602401602060405180830381865afa158015611079573d6000803e3d6000fd5b505050506040513d601f19601f8201168201806040525081019061109d9190613a18565b806108ce575050600a546001600160a01b0391821691161490565b600354604051637df73e2760e01b81523360048201819052916001600160a01b031690637df73e2790602401602060405180830381865afa158015611101573d6000803e3d6000fd5b505050506040513d601f19601f820116820180604052508101906111259190613a18565b6111615760405162461bcd60e51b815260206004820152600d60248201526c24b73b30b634b21027bbb732b960991b60448201526064016109b7565b6003546040516307612f9160e21b81523360048201526000916001600160a01b031690631d84be44906024016020604051808303816000875af11580156111ac573d6000803e3d6000fd5b505050506040513d601f19601f820116820180604052508101906111d09190613ca0565b90506112036040805160a08101825260008082526020820181905291810182905260608101829052608081019190915290565b60016020820181905282900361121b57600160408201525b8160020361122b57600160608201525b8160030361123b57600160808201525b6001600160a01b03909316808452600b80546020860151604087015160608801516080909801511515600160b81b0260ff60b81b19981515600160b01b0260ff60b01b19921515600160a81b029290921661ffff60a81b19931515600160a01b026001600160a81b03199095169096179390931791909116939093179290921794909416179092555050565b600c81815481106112d757600080fd5b906000526020600020016000915090508054610c1990613aad565b606081518351146113235781518351604051635b05999160e01b8152600481019290925260248201526044016109b7565b6000835167ffffffffffffffff81111561133f5761133f6132f3565b604051908082528060200260200182016040528015611368578160200160208202803683370190505b50905060005b84518110156113bf57602080820286010151611392906020808402870101516108ac565b8282815181106113a4576113a4613a97565b60209081029190910101526113b881613cb9565b905061136e565b509392505050565b6060600c82815481106113dc576113dc613a97565b9060005260206000200180546113f190613aad565b80601f016020809104026020016040519081016040528092919081815260200182805461141d90613aad565b801561146a5780601f1061143f5761010080835404028352916020019161146a565b820191906000526020600020905b81548152906001019060200180831161144d57829003601f168201915b50505050509050919050565b600e8054610c1990613aad565b6003546040516319c0642960e01b81523360048201819052916001600160a01b0316906319c0642990602401602060405180830381865afa1580156114cc573d6000803e3d6000fd5b505050506040513d601f19601f820116820180604052508101906114f09190613a18565b61150c5760405162461bcd60e51b81526004016109b790613a6c565b50601855565b601654156115535760405162461bcd60e51b815260206004820152600e60248201526d185b1c9958591e481b5a5b9d195960921b60448201526064016109b7565b611636600380546001600160a01b03199081167360c95eb879eec03a0af4528a16f192e61a198f401790915560048054821673f134e58248ab8380e911d36c21e1015e5e84814117905560058054821673c0cee8b561cc4f60869776ca5b0b7a295e04f5af17905560068054821673b8193c79fc3f1d7dfaa0bae85fe3b1bff0558abb17905560078054821673648565deb50c503ef59860d92942eaece0c3e17217905560088054821673a73f86c17d319780007baa6ffd9ff25031bdb01417905560098054909116736c96f2d0c9a8b7fb472a319b1ecf7e8626c7b2ba179055565b600a80546001600160a01b0319166001600160a01b03851617905561165a866126dc565b600e6116668782613d18565b50600f6116738882613d18565b50600c80546001810182556000919091527fdf6966c971051c3d54ec59162606531493a51404a002842f56009d7e5cf4a8c7016116b08682613d18565b50600d80546001810182556000919091527fd7b6990105719101dabeb77144f2a3385c8033acd3af97e9423a695e81ad1eb501849055601480546001600160a01b0319166001600160a01b0385811691909117909155601583905560188290556005546040805163262a9dff60e01b81529051919092169163262a9dff9160048083019260209291908290030181865afa158015611752573d6000803e3d6000fd5b505050506040513d601f19601f820116820180604052508101906117769190613ca0565b6016819055506117b583600d60008154811061179457611794613a97565b9060005260206000200154846040518060200160405280600081525061286d565b50505050505050565b601360205281600052604060002081815481106117da57600080fd5b6000918252602090912001546001600160a01b03169150829050565b6003546040516319c0642960e01b81523260048201526001600160a01b03909116906319c0642990602401602060405180830381865afa15801561183e573d6000803e3d6000fd5b505050506040513d601f19601f820116820180604052508101906118629190613a18565b806118d457506003546040516319c0642960e01b81523360048201526001600160a01b03909116906319c0642990602401602060405180830381865afa1580156118b0573d6000803e3d6000fd5b505050506040513d601f19601f820116820180604052508101906118d49190613a18565b6119205760405162461bcd60e51b815260206004820152601e60248201527f6f7263313135352e696e76616c69642e736166654f776e65722e63616c6c000060448201526064016109b7565b601655565b610a523383836128ca565b600354604051637df73e2760e01b81523360048201819052916001600160a01b031690637df73e2790602401602060405180830381865afa158015611979573d6000803e3d6000fd5b505050506040513d601f19601f8201168201806040525081019061199d9190613a18565b6119d95760405162461bcd60e51b815260206004820152600d60248201526c24b73b30b634b21027bbb732b960991b60448201526064016109b7565b8115611c26576003546040516307612f9160e21b81523360048201526000916001600160a01b031690631d84be44906024016020604051808303816000875af1158015611a2a573d6000803e3d6000fd5b505050506040513d601f19601f82011682018060405250810190611a4e9190613ca0565b600b54909150600160a01b900460ff168015611a6a5750806001145b8015611a835750600b546001600160a01b038581169116145b15611a9c57600b805460ff60a81b1916600160a81b1790555b600b54600160a01b900460ff168015611ab55750806002145b8015611ace5750600b546001600160a01b038581169116145b15611ae757600b805460ff60b01b1916600160b01b1790555b600b54600160a01b900460ff168015611b005750806003145b8015611b195750600b546001600160a01b038581169116145b15611b3257600b805460ff60b81b1916600160b81b1790555b600b54600090600160a81b900460ff1615611b555780611b5181613cb9565b9150505b600b54600160b01b900460ff1615611b755780611b7181613cb9565b9150505b600b54600160b81b900460ff1615611b955780611b9181613cb9565b9150505b600b54600160a01b900460ff168015611bae5750806002145b8015611bc75750600b546001600160a01b038681169116145b15611c1f57600a80546001600160a01b0319166001600160a01b0387161790556040805160a0810182526000808252602082018190529181018290526060810182905260800152600b80546001600160c01b03191690555b5050505050565b6040805160a0810182526000808252602082018190529181018290526060810182905260800152600b80546001600160c01b03191690555b505050565b6003546040516319c0642960e01b81523360048201819052916001600160a01b0316906319c0642990602401602060405180830381865afa158015611cac573d6000803e3d6000fd5b505050506040513d601f19601f82011682018060405250810190611cd09190613a18565b611cec5760405162461bcd60e51b81526004016109b790613a6c565b60005b8251811015611c5e576010838281518110611d0c57611d0c613a97565b6020026020010151604051611d219190613dd8565b908152602001604051809103902054600014611d6e5760405162461bcd60e51b815260206004820152600c60248201526b1d1bdad95b8819985a5b195960a21b60448201526064016109b7565b600d8054611d7d906001613b94565b81546001810183556000928352602090922090910155600d548351601090859084908110611dad57611dad613a97565b6020026020010151604051611dc29190613dd8565b908152602001604051809103902081905550828181518110611de657611de6613a97565b602002602001015160116000600d8054905081526020019081526020016000209081611e129190613d18565b50600c838281518110611e2757611e27613a97565b60209081029190910181015182546001810184556000938452919092200190611e509082613d18565b5080611e5b81613cb9565b915050611cef565b600360009054906101000a90046001600160a01b03166001600160a01b0316636a276f9d6040518163ffffffff1660e01b8152600401602060405180830381865afa158015611eb6573d6000803e3d6000fd5b505050506040513d601f19601f82011682018060405250810190611eda9190613a18565b611ef65760405162461bcd60e51b81526004016109b790613a35565b6003546040516319c0642960e01b81523360048201819052916001600160a01b0316906319c0642990602401602060405180830381865afa158015611f3f573d6000803e3d6000fd5b505050506040513d601f19601f82011682018060405250810190611f639190613a18565b611f7f5760405162461bcd60e51b81526004016109b790613a6c565b50600380546001600160a01b03199081166001600160a01b03978816179091556004805482169587169590951790945560058054851693861693909317909255600980548416918516919091179055600780549092169216919091179055565b6003546040516319c0642960e01b81523260048201819052916001600160a01b0316906319c0642990602401602060405180830381865afa158015612028573d6000803e3d6000fd5b505050506040513d601f19601f8201168201806040525081019061204c9190613a18565b6120685760405162461bcd60e51b81526004016109b790613a6c565b60405160009083156108fc0290849083818181858288f19350505050158015611c5e573d6000803e3d6000fd5b600354604051633f978d1f60e11b81526001600160a01b0383811660048301526000921690637f2f1a3e90602401602060405180830381865afa1580156120e0573d6000803e3d6000fd5b505050506040513d601f19601f820116820180604052508101906108ce9190613a18565b6000600460009054906101000a90046001600160a01b03166001600160a01b031663fc0e74d16040518163ffffffff1660e01b8152600401602060405180830381865afa158015612159573d6000803e3d6000fd5b505050506040513d601f19601f8201168201806040525081019061217d9190613a18565b15612189575060155490565b6005546040805163262a9dff60e01b815290516000926001600160a01b03169163262a9dff9160048083019260209291908290030181865afa1580156121d3573d6000803e3d6000fd5b505050506040513d601f19601f820116820180604052508101906121f79190613ca0565b6004805460408051630b41d20760e31b81529051939450600093849384936001600160a01b031692635a0e903892818301926060928290030181865afa158015612245573d6000803e3d6000fd5b505050506040513d601f19601f820116820180604052508101906122699190613df4565b925092509250806016548561227e9190613ba7565b6122889190613e22565b612293836064613e44565b84601554670de0b6b3a76400006122aa9190613e44565b6122b49190613e44565b6122be9190613e22565b6122c89190613e44565b9450600460009054906101000a90046001600160a01b03166001600160a01b031663b85f1f8d6040518163ffffffff1660e01b8152600401606060405180830381865afa15801561231d573d6000803e3d6000fd5b505050506040513d601f19601f820116820180604052508101906123419190613df4565b601654929550909350915081906123589086613ba7565b6123629190613e22565b61236d836064613e44565b84601554670de0b6b3a76400006123849190613e44565b61238e9190613e44565b6123989190613e22565b6123a29190613e44565b6123ac9086613b94565b94506123c0670de0b6b3a764000086613e22565b945060155485116123d157846123d5565b6015545b94505050505090565b6003546040516319c0642960e01b81523360048201819052916001600160a01b0316906319c0642990602401602060405180830381865afa158015612427573d6000803e3d6000fd5b505050506040513d601f19601f8201168201806040525081019061244b9190613a18565b6124675760405162461bcd60e51b81526004016109b790613a6c565b50601955565b606061247882612960565b604051602001610cb89190613e5b565b6001600160a01b03918216600090815260016020908152604080832093909416825291909152205460ff1690565b336001600160a01b03861681148015906124d757506124d58682612488565b155b156125085760405163711bec9160e11b81526001600160a01b038083166004830152871660248201526044016109b7565b61100d86868686866126e8565b600360009054906101000a90046001600160a01b03166001600160a01b0316636a276f9d6040518163ffffffff1660e01b8152600401602060405180830381865afa158015612568573d6000803e3d6000fd5b505050506040513d601f19601f8201168201806040525081019061258c9190613a18565b6125a85760405162461bcd60e51b81526004016109b790613a35565b60405162461bcd60e51b815260206004820152600660248201526519985a5b195960d21b60448201526064016109b7565b6003546040516319c0642960e01b81523360048201819052916001600160a01b0316906319c0642990602401602060405180830381865afa158015612622573d6000803e3d6000fd5b505050506040513d601f19601f820116820180604052508101906126469190613a18565b8061265e5750600a546001600160a01b038281169116145b6126aa5760405162461bcd60e51b815260206004820152601860248201527f496e76616c6964204f776e65724f72536166654f776e6572000000000000000060448201526064016109b7565b6126b584848461298e565b50505050565b600d81815481106126cb57600080fd5b600091825260209091200154905081565b6002610a528282613d18565b6001600160a01b03841661271257604051632bfa23e760e11b8152600060048201526024016109b7565b6001600160a01b03851661273b57604051626a0d4560e21b8152600060048201526024016109b7565b604080516001808252602082018690528183019081526060820185905260808201909252906117b587878484876129f2565b6060600061277a83612a45565b600101905060008167ffffffffffffffff81111561279a5761279a6132f3565b6040519080825280601f01601f1916602001820160405280156127c4576020820181803683370190505b5090508181016020015b600019016f181899199a1a9b1b9c1cb0b131b232b360811b600a86061a8153600a85049450846127ce57509392505050565b60006108ce826000612b1d565b6001600160a01b03841661283757604051632bfa23e760e11b8152600060048201526024016109b7565b6001600160a01b03851661286057604051626a0d4560e21b8152600060048201526024016109b7565b611c1f85858585856129f2565b6001600160a01b03841661289757604051632bfa23e760e11b8152600060048201526024016109b7565b6040805160018082526020820186905281830190815260608201859052608082019092529061100d6000878484876129f2565b6001600160a01b0382166128f35760405162ced3e160e81b8152600060048201526024016109b7565b6001600160a01b03838116600081815260016020908152604080832094871680845294825291829020805460ff191686151590811790915591519182527f17307eab39ab6107e8899845ad3d59bd9653f200f220920489ca2b5937696c31910160405180910390a3505050565b6060816001600160a01b0316803b806020016040519081016040528181526000908060200190933c92915050565b6001600160a01b0383166129b757604051626a0d4560e21b8152600060048201526024016109b7565b604080516001808252602082018590528183019081526060820184905260a08201909252600060808201818152919291611c1f918791859085905b6129fe85858585612bb3565b6001600160a01b03841615611c1f5782513390600103612a375760208481015190840151612a30838989858589612e4b565b505061100d565b61100d818787878787612f6f565b60008072184f03e93ff9f4daa797ed6e38ed64bf6a1f0160401b8310612a845772184f03e93ff9f4daa797ed6e38ed64bf6a1f0160401b830492506040015b6d04ee2d6d415b85acef81000000008310612ab0576d04ee2d6d415b85acef8100000000830492506020015b662386f26fc100008310612ace57662386f26fc10000830492506010015b6305f5e1008310612ae6576305f5e100830492506008015b6127108310612afa57612710830492506004015b60648310612b0c576064830492506002015b600a83106108ce5760010192915050565b600081471015612b495760405163cf47918160e01b8152476004820152602481018390526044016109b7565b763d602d80600a3d3981f3363d3d373d3d3d363d730000008360601b60e81c176000526e5af43d82803e903d91602b57fd5bf38360781b176020526037600983f090506001600160a01b0381166108ce5760405163b06ebf3d60e01b815260040160405180910390fd5b600181600081518110612bc857612bc8613a97565b60200260200101511015612c095760405162461bcd60e51b81526020600482015260086024820152676c6573732071747960c01b60448201526064016109b7565b601b5460ff16612e35576001600160a01b03841615801590612c3357506001600160a01b03831615155b8015612c425750601754601554115b15612e35576005546040516345145fd760e01b81526001600160a01b03868116600483015260009216906345145fd790602401602060405180830381865afa158015612c92573d6000803e3d6000fd5b505050506040513d601f19601f82011682018060405250810190612cb69190613eea565b90506001600160a01b03811615801590612cdd57506014546001600160a01b038681169116145b15612e335760055460405163cf35916560e01b81526001600160a01b0383811660048301529091169063cf35916590602401602060405180830381865afa158015612d2c573d6000803e3d6000fd5b505050506040513d601f19601f82011682018060405250810190612d509190613a18565b15612d885760405162461bcd60e51b8152602060048201526008602482015267696e61637469766560c01b60448201526064016109b7565b6000612d92612104565b9050600081118015612dcb575082600081518110612db257612db2613a97565b602002602001015160175482612dc89190613ba7565b10155b612e005760405162461bcd60e51b81526020600482015260066024820152651b1bd8dad95960d21b60448201526064016109b7565b82600081518110612e1357612e13613a97565b602002602001015160176000828254612e2c9190613b94565b9091555050505b505b601b805460ff191690556126b584848484613058565b6001600160a01b0384163b1561100d5760405163f23a6e6160e01b81526001600160a01b0385169063f23a6e6190612e8f9089908990889088908890600401613f07565b6020604051808303816000875af1925050508015612eca575060408051601f3d908101601f19168201909252612ec791810190613f4c565b60015b612f33573d808015612ef8576040519150601f19603f3d011682016040523d82523d6000602084013e612efd565b606091505b508051600003612f2b57604051632bfa23e760e11b81526001600160a01b03861660048201526024016109b7565b805160208201fd5b6001600160e01b0319811663f23a6e6160e01b146117b557604051632bfa23e760e11b81526001600160a01b03861660048201526024016109b7565b6001600160a01b0384163b1561100d5760405163bc197c8160e01b81526001600160a01b0385169063bc197c8190612fb39089908990889088908890600401613f69565b6020604051808303816000875af1925050508015612fee575060408051601f3d908101601f19168201909252612feb91810190613f4c565b60015b61301c573d808015612ef8576040519150601f19603f3d011682016040523d82523d6000602084013e612efd565b6001600160e01b0319811663bc197c8160e01b146117b557604051632bfa23e760e11b81526001600160a01b03861660048201526024016109b7565b80518251146130875781518151604051635b05999160e01b8152600481019290925260248201526044016109b7565b3360005b8351811015613196576020818102858101820151908501909101516001600160a01b0388161561313e576000828152602081815260408083206001600160a01b038c16845290915290205481811015613117576040516303dee4c560e01b81526001600160a01b038a1660048201526024810182905260448101839052606481018490526084016109b7565b6000838152602081815260408083206001600160a01b038d16845290915290209082900390555b6001600160a01b03871615613183576000828152602081815260408083206001600160a01b038b1684529091528120805483929061317d908490613b94565b90915550505b50508061318f90613cb9565b905061308b565b5082516001036132175760208301516000906020840151909150856001600160a01b0316876001600160a01b0316846001600160a01b03167fc3d58168c5ae7397731d063d5bbf3d657854427343f4c083240f7aacaa2d0f628585604051613208929190918252602082015260400190565b60405180910390a45050611c1f565b836001600160a01b0316856001600160a01b0316826001600160a01b03167f4a39dc06d4c0dbc64b70af90fd698a233a518aa5d07e595d983b8c0526c8f7fb8686604051613266929190613fc7565b60405180910390a45050505050565b6001600160a01b038116811461328a57600080fd5b50565b600080604083850312156132a057600080fd5b82356132ab81613275565b946020939093013593505050565b6001600160e01b03198116811461328a57600080fd5b6000602082840312156132e157600080fd5b81356132ec816132b9565b9392505050565b634e487b7160e01b600052604160045260246000fd5b604051601f8201601f1916810167ffffffffffffffff81118282101715613332576133326132f3565b604052919050565b600082601f83011261334b57600080fd5b813567ffffffffffffffff811115613365576133656132f3565b613378601f8201601f1916602001613309565b81815284602083860101111561338d57600080fd5b816020850160208301376000918101602001919091529392505050565b6000602082840312156133bc57600080fd5b813567ffffffffffffffff8111156133d357600080fd5b6133df8482850161333a565b949350505050565b6000602082840312156133f957600080fd5b81356132ec81613275565b60005b8381101561341f578181015183820152602001613407565b50506000910152565b60008151808452613440816020860160208601613404565b601f01601f19169290920160200192915050565b6020815260006132ec6020830184613428565b60006020828403121561347957600080fd5b5035919050565b6000806000806080858703121561349657600080fd5b84356134a181613275565b966020860135965060408601359560600135945092505050565b600067ffffffffffffffff8211156134d5576134d56132f3565b5060051b60200190565b600082601f8301126134f057600080fd5b81356020613505613500836134bb565b613309565b82815260059290921b8401810191818101908684111561352457600080fd5b8286015b8481101561353f5780358352918301918301613528565b509695505050505050565b600080600080600060a0868803121561356257600080fd5b853561356d81613275565b9450602086013561357d81613275565b9350604086013567ffffffffffffffff8082111561359a57600080fd5b6135a689838a016134df565b945060608801359150808211156135bc57600080fd5b6135c889838a016134df565b935060808801359150808211156135de57600080fd5b506135eb8882890161333a565b9150509295509295909350565b6000806040838503121561360b57600080fd5b823567ffffffffffffffff8082111561362357600080fd5b818501915085601f83011261363757600080fd5b81356020613647613500836134bb565b82815260059290921b8401810191818101908984111561366657600080fd5b948201945b8386101561368d57853561367e81613275565b8252948201949082019061366b565b965050860135925050808211156136a357600080fd5b506136b0858286016134df565b9150509250929050565b600081518084526020808501945080840160005b838110156136ea578151875295820195908201906001016136ce565b509495945050505050565b6020815260006132ec60208301846136ba565b600080600080600080600060e0888a03121561372357600080fd5b873567ffffffffffffffff8082111561373b57600080fd5b6137478b838c0161333a565b985060208a013591508082111561375d57600080fd5b6137698b838c0161333a565b975060408a013591508082111561377f57600080fd5b5061378c8a828b0161333a565b9550506060880135935060808801356137a481613275565b9699959850939692959460a0840135945060c09093013592915050565b600080604083850312156137d457600080fd5b50508035926020909101359150565b801515811461328a57600080fd5b6000806040838503121561380457600080fd5b823561380f81613275565b9150602083013561381f816137e3565b809150509250929050565b6000602080838503121561383d57600080fd5b823567ffffffffffffffff8082111561385557600080fd5b818501915085601f83011261386957600080fd5b8135613877613500826134bb565b81815260059190911b8301840190848101908883111561389657600080fd5b8585015b838110156138ce578035858111156138b25760008081fd5b6138c08b89838a010161333a565b84525091860191860161389a565b5098975050505050505050565b600080600080600060a086880312156138f357600080fd5b85356138fe81613275565b9450602086013561390e81613275565b9350604086013561391e81613275565b9250606086013561392e81613275565b9150608086013561393e81613275565b809150509295509295909350565b6000806040838503121561395f57600080fd5b823561396a81613275565b9150602083013561381f81613275565b600080600080600060a0868803121561399257600080fd5b853561399d81613275565b945060208601356139ad81613275565b93506040860135925060608601359150608086013567ffffffffffffffff8111156139d757600080fd5b6135eb8882890161333a565b6000806000606084860312156139f857600080fd5b8335613a0381613275565b95602085013595506040909401359392505050565b600060208284031215613a2a57600080fd5b81516132ec816137e3565b6020808252601a908201527f496e76616c6964205361666567756172642e6973536166652829000000000000604082015260600190565b60208082526011908201527024b73b30b634b21029b0b332a7bbb732b960791b604082015260600190565b634e487b7160e01b600052603260045260246000fd5b600181811c90821680613ac157607f821691505b602082108103613ae157634e487b7160e01b600052602260045260246000fd5b50919050565b6000808454613af581613aad565b60018281168015613b0d5760018114613b2257613b51565b60ff1984168752821515830287019450613b51565b8860005260208060002060005b85811015613b485781548a820152908401908201613b2f565b50505082870194505b505050508351613b65818360208801613404565b64173539b7b760d91b9101908152600501949350505050565b634e487b7160e01b600052601160045260246000fd5b808201808211156108ce576108ce613b7e565b818103818111156108ce576108ce613b7e565b60008154613bc781613aad565b808552602060018381168015613be45760018114613bfe57613c2c565b60ff1985168884015283151560051b880183019550613c2c565b866000528260002060005b85811015613c245781548a8201860152908301908401613c09565b890184019650505b505050505092915050565b60e081526000613c4a60e083018a613bba565b8281036020840152613c5c818a613bba565b90508281036040840152613c708189613bba565b606084019790975250506001600160a01b0393909316608084015260a083019190915260c0909101529392505050565b600060208284031215613cb257600080fd5b5051919050565b600060018201613ccb57613ccb613b7e565b5060010190565b601f821115611c5e57600081815260208120601f850160051c81016020861015613cf95750805b601f850160051c820191505b8181101561100d57828155600101613d05565b815167ffffffffffffffff811115613d3257613d326132f3565b613d4681613d408454613aad565b84613cd2565b602080601f831160018114613d7b5760008415613d635750858301515b600019600386901b1c1916600185901b17855561100d565b600085815260208120601f198616915b82811015613daa57888601518255948401946001909101908401613d8b565b5085821015613dc85787850151600019600388901b60f8161c191681555b5050505050600190811b01905550565b60008251613dea818460208701613404565b9190910192915050565b600080600060608486031215613e0957600080fd5b8351925060208401519150604084015190509250925092565b600082613e3f57634e487b7160e01b600052601260045260246000fd5b500490565b80820281158282048414176108ce576108ce613b7e565b60008251613e6d818460208701613404565b730468e8dc225c4746454419c9dcccb59a581434b160631b92019182525073d416952dc46fce2775e90571d46a79565d04cb2560601b602082015273094c37fb9b5b2065409a5c7cb9bff71c4d49bf4160601b604082015273fe69687ce9c746c10e1c2af1e3f5d1475df4300f60601b6060820152607401919050565b600060208284031215613efc57600080fd5b81516132ec81613275565b6001600160a01b03868116825285166020820152604081018490526060810183905260a060808201819052600090613f4190830184613428565b979650505050505050565b600060208284031215613f5e57600080fd5b81516132ec816132b9565b6001600160a01b0386811682528516602082015260a060408201819052600090613f95908301866136ba565b8281036060840152613fa781866136ba565b90508281036080840152613fbb8185613428565b98975050505050505050565b604081526000613fda60408301856136ba565b8281036020840152613fec81856136ba565b9594505050505056fea26469706673582212200651cd23ae16bc9a4852e2dd66e9a86949b3a833dd2dcb9bbe2de0f166b5fdcb64736f6c63430008140033","linkReferences":{}},"methodIdentifiers":{"Burn(uint256)":"b90306ad","Init(address,uint256,uint256,uint256)":"238a4480","PostInit(string,string,string,uint256,address,uint256,uint256)":"8d8a761f","_getUnlockedNFT()":"d3660623","_setOwner(address,bool)":"abb8c965","_setReq(address)":"41ffe7c4","addToken(string[])":"abbbf8d7","at(address)":"dce4a447","balanceOf(address,uint256)":"00fdd58e","balanceOfBatch(address[],uint256[])":"4e1273f4","baseMetadataURI()":"5b2bd79e","burn(address,uint256,uint256)":"f5298aca","claimed()":"e834a834","cloned(uint256,uint256)":"92b31d87","curSupply()":"5fac2d9d","forceAge(uint256)":"9be02df6","forceTransfer(address)":"0399c93c","getBalance()":"12065fe0","getCloneCountByToken(uint256)":"1f5ae5f3","getNames(uint256)":"5718e17b","getTokenCount()":"78a89567","idToName(uint256)":"364410b3","ids(uint256)":"fac333ac","isAccountSafeOwner(address)":"c3bd18c3","isApprovedForAll(address,address)":"e985e9c5","isOwnerOrSafeOwner(address)":"379a423c","isclone(address)":"57e0e465","mintAmt()":"d92f24ae","mintedAge()":"f9ffedb7","mintedUser()":"fcf56368","mintedqty()":"6c51797b","name()":"06fdde03","nameToId(string)":"f6d8f2cb","names(uint256)":"4622ab03","owner()":"8da5cb5b","req()":"0d43aaf2","safeBatchTransferFrom(address,address,uint256[],uint256[],bytes)":"2eb2c2d6","safeTransferFrom(address,address,uint256,uint256,bytes)":"f242432a","setApprovalForAll(address,bool)":"a22cb465","setFeeAmt(uint256)":"6589c252","setParam(address,address,address,address,address)":"b0751823","setURI(string)":"02fe5305","setsupply(uint256)":"d878fe10","supportsInterface(bytes4)":"01ffc9a7","totSupply()":"81fbf0a5","uri(uint256)":"0e89341c","withdraw(address,uint256)":"f3fef3a3"},"id":22}