{"abi":[{"type":"constructor","inputs":[{"name":"_contractName","type":"string","internalType":"string"},{"name":"_uri","type":"string","internalType":"string"},{"name":"_names","type":"string[]","internalType":"string[]"},{"name":"_ids","type":"uint256[]","internalType":"uint256[]"}],"stateMutability":"nonpayable"},{"type":"function","name":"_factory","inputs":[],"outputs":[{"name":"","type":"address","internalType":"address"}],"stateMutability":"view"},{"type":"function","name":"balanceOf","inputs":[{"name":"account","type":"address","internalType":"address"},{"name":"id","type":"uint256","internalType":"uint256"}],"outputs":[{"name":"","type":"uint256","internalType":"uint256"}],"stateMutability":"view"},{"type":"function","name":"balanceOfBatch","inputs":[{"name":"accounts","type":"address[]","internalType":"address[]"},{"name":"ids","type":"uint256[]","internalType":"uint256[]"}],"outputs":[{"name":"","type":"uint256[]","internalType":"uint256[]"}],"stateMutability":"view"},{"type":"function","name":"baseMetadataURI","inputs":[],"outputs":[{"name":"","type":"string","internalType":"string"}],"stateMutability":"view"},{"type":"function","name":"getFactory","inputs":[],"outputs":[{"name":"","type":"address","internalType":"address"}],"stateMutability":"view"},{"type":"function","name":"getNames","inputs":[],"outputs":[{"name":"","type":"string[]","internalType":"string[]"}],"stateMutability":"view"},{"type":"function","name":"idToName","inputs":[{"name":"","type":"uint256","internalType":"uint256"}],"outputs":[{"name":"","type":"string","internalType":"string"}],"stateMutability":"view"},{"type":"function","name":"ids","inputs":[{"name":"","type":"uint256","internalType":"uint256"}],"outputs":[{"name":"","type":"uint256","internalType":"uint256"}],"stateMutability":"view"},{"type":"function","name":"isApprovedForAll","inputs":[{"name":"account","type":"address","internalType":"address"},{"name":"operator","type":"address","internalType":"address"}],"outputs":[{"name":"","type":"bool","internalType":"bool"}],"stateMutability":"view"},{"type":"function","name":"mint","inputs":[{"name":"account","type":"address","internalType":"address"},{"name":"_id","type":"uint256","internalType":"uint256"},{"name":"amount","type":"uint256","internalType":"uint256"}],"outputs":[{"name":"","type":"uint256","internalType":"uint256"}],"stateMutability":"payable"},{"type":"function","name":"mintBatch","inputs":[{"name":"to","type":"address","internalType":"address"},{"name":"_ids","type":"uint256[]","internalType":"uint256[]"},{"name":"amounts","type":"uint256[]","internalType":"uint256[]"},{"name":"data","type":"bytes","internalType":"bytes"}],"outputs":[],"stateMutability":"nonpayable"},{"type":"function","name":"mintFee","inputs":[],"outputs":[{"name":"","type":"uint256","internalType":"uint256"}],"stateMutability":"view"},{"type":"function","name":"name","inputs":[],"outputs":[{"name":"","type":"string","internalType":"string"}],"stateMutability":"view"},{"type":"function","name":"nameToId","inputs":[{"name":"","type":"string","internalType":"string"}],"outputs":[{"name":"","type":"uint256","internalType":"uint256"}],"stateMutability":"view"},{"type":"function","name":"names","inputs":[{"name":"","type":"uint256","internalType":"uint256"}],"outputs":[{"name":"","type":"string","internalType":"string"}],"stateMutability":"view"},{"type":"function","name":"onTokenSubscription","inputs":[{"name":"from","type":"address","internalType":"address"},{"name":"to","type":"address","internalType":"address"},{"name":"id","type":"uint256","internalType":"uint256"},{"name":"amount","type":"uint256","internalType":"uint256"},{"name":"data","type":"bytes","internalType":"bytes"}],"outputs":[],"stateMutability":"nonpayable"},{"type":"function","name":"onTokenSubscriptionBatch","inputs":[{"name":"from","type":"address","internalType":"address"},{"name":"to","type":"address","internalType":"address"},{"name":"_ids","type":"uint256[]","internalType":"uint256[]"},{"name":"amounts","type":"uint256[]","internalType":"uint256[]"},{"name":"data","type":"bytes","internalType":"bytes"}],"outputs":[],"stateMutability":"nonpayable"},{"type":"function","name":"owner","inputs":[],"outputs":[{"name":"","type":"address","internalType":"address"}],"stateMutability":"view"},{"type":"function","name":"renounceOwnership","inputs":[],"outputs":[],"stateMutability":"nonpayable"},{"type":"function","name":"safeBatchTransferFrom","inputs":[{"name":"from","type":"address","internalType":"address"},{"name":"to","type":"address","internalType":"address"},{"name":"ids","type":"uint256[]","internalType":"uint256[]"},{"name":"values","type":"uint256[]","internalType":"uint256[]"},{"name":"data","type":"bytes","internalType":"bytes"}],"outputs":[],"stateMutability":"nonpayable"},{"type":"function","name":"safeTransferFrom","inputs":[{"name":"from","type":"address","internalType":"address"},{"name":"to","type":"address","internalType":"address"},{"name":"id","type":"uint256","internalType":"uint256"},{"name":"value","type":"uint256","internalType":"uint256"},{"name":"data","type":"bytes","internalType":"bytes"}],"outputs":[],"stateMutability":"nonpayable"},{"type":"function","name":"setApprovalForAll","inputs":[{"name":"operator","type":"address","internalType":"address"},{"name":"approved","type":"bool","internalType":"bool"}],"outputs":[],"stateMutability":"nonpayable"},{"type":"function","name":"setFee","inputs":[{"name":"_fee","type":"uint256","internalType":"uint256"}],"outputs":[],"stateMutability":"nonpayable"},{"type":"function","name":"setURI","inputs":[{"name":"newuri","type":"string","internalType":"string"}],"outputs":[],"stateMutability":"nonpayable"},{"type":"function","name":"supportsInterface","inputs":[{"name":"interfaceId","type":"bytes4","internalType":"bytes4"}],"outputs":[{"name":"","type":"bool","internalType":"bool"}],"stateMutability":"view"},{"type":"function","name":"transferOwnership","inputs":[{"name":"newOwner","type":"address","internalType":"address"}],"outputs":[],"stateMutability":"nonpayable"},{"type":"function","name":"uri","inputs":[{"name":"_tokenid","type":"uint256","internalType":"uint256"}],"outputs":[{"name":"","type":"string","internalType":"string"}],"stateMutability":"view"},{"type":"event","name":"ApprovalForAll","inputs":[{"name":"account","type":"address","indexed":true,"internalType":"address"},{"name":"operator","type":"address","indexed":true,"internalType":"address"},{"name":"approved","type":"bool","indexed":false,"internalType":"bool"}],"anonymous":false},{"type":"event","name":"OwnershipTransferred","inputs":[{"name":"previousOwner","type":"address","indexed":true,"internalType":"address"},{"name":"newOwner","type":"address","indexed":true,"internalType":"address"}],"anonymous":false},{"type":"event","name":"TransferBatch","inputs":[{"name":"operator","type":"address","indexed":true,"internalType":"address"},{"name":"from","type":"address","indexed":true,"internalType":"address"},{"name":"to","type":"address","indexed":true,"internalType":"address"},{"name":"ids","type":"uint256[]","indexed":false,"internalType":"uint256[]"},{"name":"values","type":"uint256[]","indexed":false,"internalType":"uint256[]"}],"anonymous":false},{"type":"event","name":"TransferSingle","inputs":[{"name":"operator","type":"address","indexed":true,"internalType":"address"},{"name":"from","type":"address","indexed":true,"internalType":"address"},{"name":"to","type":"address","indexed":true,"internalType":"address"},{"name":"id","type":"uint256","indexed":false,"internalType":"uint256"},{"name":"value","type":"uint256","indexed":false,"internalType":"uint256"}],"anonymous":false},{"type":"event","name":"URI","inputs":[{"name":"value","type":"string","indexed":false,"internalType":"string"},{"name":"id","type":"uint256","indexed":true,"internalType":"uint256"}],"anonymous":false},{"type":"error","name":"ERC1155InsufficientBalance","inputs":[{"name":"sender","type":"address","internalType":"address"},{"name":"balance","type":"uint256","internalType":"uint256"},{"name":"needed","type":"uint256","internalType":"uint256"},{"name":"tokenId","type":"uint256","internalType":"uint256"}]},{"type":"error","name":"ERC1155InvalidApprover","inputs":[{"name":"approver","type":"address","internalType":"address"}]},{"type":"error","name":"ERC1155InvalidArrayLength","inputs":[{"name":"idsLength","type":"uint256","internalType":"uint256"},{"name":"valuesLength","type":"uint256","internalType":"uint256"}]},{"type":"error","name":"ERC1155InvalidOperator","inputs":[{"name":"operator","type":"address","internalType":"address"}]},{"type":"error","name":"ERC1155InvalidReceiver","inputs":[{"name":"receiver","type":"address","internalType":"address"}]},{"type":"error","name":"ERC1155InvalidSender","inputs":[{"name":"sender","type":"address","internalType":"address"}]},{"type":"error","name":"ERC1155MissingApprovalForAll","inputs":[{"name":"operator","type":"address","internalType":"address"},{"name":"owner","type":"address","internalType":"address"}]},{"type":"error","name":"OwnableInvalidOwner","inputs":[{"name":"owner","type":"address","internalType":"address"}]},{"type":"error","name":"OwnableUnauthorizedAccount","inputs":[{"name":"account","type":"address","internalType":"address"}]}],"bytecode":{"object":"0x608060405234620007f057620029a0803803806200001d8162000826565b928339810190608081830312620007f05780516001600160401b038111620007f057826200004d9183016200084c565b60208201519092906001600160401b038111620007f05781620000729184016200084c565b60408301519092906001600160401b038111620007f05781019082601f83011215620007f057815190620000b0620000aa83620008be565b62000826565b8281529260208085019360051b8201019083868311620007f05760208201905b838210620007f557505050506060810151906001600160401b038211620007f057019183601f84011215620007f05782519362000111620000aa86620008be565b9360208587815201906020829760051b820101928311620007f057602001905b828210620007df57505050620001478562000aad565b3315620007c65760038054336001600160a01b0319821681179092556001600160a01b03167f8be0079c531659141344cd1fd0a4f28419497f9722a3daafe3b4186f6b6457e0600080a360006008555190680100000000000000008211620004ff576004548260045580831062000729575b50600460009081527f8a35acfbc15ff81a39ae7d344fd709f28e8600b4aa8c65c6b64bfe7fe36bd19b92915b828210620006325750509151929150506001600160401b038211620004ff57680100000000000000008211620004ff5760055482600555808310620005f4575b506005600052602060002060005b838110620005df57600086865b6005548310156200033b5762000256836200096c565b90549060031b1c9262000269816200099e565b5093604051946000908054906200028082620008d6565b9160018116908115620003225750600114620002e9575b50509460208187600a6001979899520301902055620002e0620002ba826200099e565b50620002c6836200096c565b90549060031b1c600052600b6020526040600020620009ba565b01919062000240565b90915060005260206000206000905b8282106200030d575050850160208662000297565b60018160209254848b015201910190620002f8565b60ff191689525050801515028601905060208662000297565b90620003478262000aad565b81516001600160401b038111620004ff5762000365600654620008d6565b601f81116200058c575b50602092601f82116001146200052157620003a59293829160009262000515575b50508160011b916000199060031b1c19161790565b6006555b80516001600160401b038111620004ff57620003c7600754620008d6565b601f8111620004a0575b50602091601f821160011462000436576200040492600091836200042a5750508160011b916000199060031b1c19161790565b6007555b600980546001600160a01b03191633179055604051611dcf908162000bd18239f35b01519050838062000390565b601f19821692600760005260206000209160005b85811062000487575083600195106200046d575b505050811b0160075562000408565b015160001960f88460031b161c191690558280806200045e565b919260206001819286850151815501940192016200044a565b6007600052620004ed907fa66cc928b5edb82af9bd49922954155ab7b0942694bea4ce44661d9a8736c688601f840160051c81019160208510620004f4575b601f0160051c019062000913565b82620003d1565b9091508190620004df565b634e487b7160e01b600052604160045260246000fd5b01519050848062000390565b601f19821693600660005260206000209160005b86811062000573575083600195961062000559575b505050811b01600655620003a9565b015160001960f88460031b161c191690558380806200054a565b9192602060018192868501518155019401920162000535565b6006600052620005d8907ff652222313e28459528d920b65115c16c04f3efc82aaedc97be59f3f377c0d3f601f840160051c81019160208510620004f457601f0160051c019062000913565b836200036f565b60019060208451940193818401550162000233565b60056000526200062b907f036b6384b5eca791c62761152d0c79bb0604c104a5fb6f4eb0703f3154bb3db090810190840162000913565b3862000225565b80518051906001600160401b038211620004ff576200065e82620006578854620008d6565b886200092c565b602090601f8311600114620006b557926200069983600195946020948796600092620006a95750508160011b916000199060031b1c19161790565b87555b01940191019092620001e5565b01519050388062000390565b908660005260206000209160005b601f19851681106200071057509260209260019592869583601f19811610620006f6575b505050831b830187556200069c565b015160001960f88460031b161c19169055388080620006e7565b91926020600181928685015181550194019201620006c3565b60046000527f8a35acfbc15ff81a39ae7d344fd709f28e8600b4aa8c65c6b64bfe7fe36bd19b908382015b818301811062000766575050620001b9565b806200077560019254620008d6565b8062000784575b500162000754565b601f811183146200079c5750600081555b386200077c565b600090828252620007bc601f60208420920160051c820185830162000913565b8183555562000795565b604051631e4fbdf760e01b815260006004820152602490fd5b815181526020918201910162000131565b600080fd5b81516001600160401b038111620007f0576020916200081a8a8480948801016200084c565b815201910190620000d0565b6040519190601f01601f191682016001600160401b03811183821017620004ff57604052565b919080601f84011215620007f05782516001600160401b038111620004ff5760209062000882601f8201601f1916830162000826565b92818452828287010111620007f05760005b818110620008aa57508260009394955001015290565b858101830151848201840152820162000894565b6001600160401b038111620004ff5760051b60200190565b90600182811c9216801562000908575b6020831014620008f257565b634e487b7160e01b600052602260045260246000fd5b91607f1691620008e6565b8181106200091f575050565b6000815560010162000913565b9190601f81116200093c57505050565b6200096a926000526020600020906020601f840160051c83019310620004f457601f0160051c019062000913565b565b6005548110156200098857600560005260206000200190600090565b634e487b7160e01b600052603260045260246000fd5b6004548110156200098857600460005260206000200190600090565b9080821462000aa957620009cf8154620008d6565b906001600160401b038211620004ff57620009f782620009f08554620008d6565b856200092c565b600090601f831160011462000a3a5762000a2a92916000918362000a2e5750508160011b916000199060031b1c19161790565b9055565b01549050388062000390565b815260208082208483528183209291601f1985169083905b82821062000a8f57505090846001959493921062000a75575b505050811b019055565b015460001960f88460031b161c1916905538808062000a6b565b849581929585015481556001809101960194019062000a52565b5050565b80519091906001600160401b038111620004ff5762000ace600254620008d6565b601f811162000b7d575b50602080601f831160011462000b135750819062000b0e9394600092620006a95750508160011b916000199060031b1c19161790565b600255565b90601f1983169460026000526020600020926000905b87821062000b6457505083600195961062000b4a575b505050811b01600255565b015160001960f88460031b161c1916905538808062000b3f565b8060018596829496860151815501950193019062000b29565b600260005262000bc9907f405787fa12a823e0f2b7631cc41b3ba8828b3321ca811111fa75cd3aa3bb5ace601f840160051c81019160208510620004f457601f0160051c019062000913565b3862000ad856fe6080604052600436101561001257600080fd5b60003560e01c8062fdd58e146101c157806301ffc9a7146101bc57806302fe5305146101b757806306fdde03146101b25780630e89341c146101ad57806313966db5146101a8578063156e29f6146101a35780631f7fdffa1461019e5780632eb2c2d614610199578063364410b3146101945780634622ab031461018f5780634e1273f41461018a57806352ba35c7146101855780635b2bd79e1461018057806369fe0e2d1461017b578063715018a614610176578063811311b81461017157806388cc58e4146101625780638da5cb5b1461016c578063a22cb46514610167578063c5cc6b6a14610162578063cd838f0f1461015d578063e985e9c514610158578063f242432a14610153578063f2fde38b1461014e578063f6d8f2cb146101495763fac333ac1461014457600080fd5b611278565b61123e565b611199565b61117f565b61111c565b611035565b610f26565b610f78565b610f4f565b610e91565b610e33565b610e12565b610d6a565b610cdb565b610bca565b610b34565b610af4565b610ada565b6109cc565b610886565b610868565b6106d5565b6105ec565b6103a5565b610254565b6101f5565b600435906001600160a01b03821682036101dc57565b600080fd5b35906001600160a01b03821682036101dc57565b346101dc5760403660031901126101dc5760206102396102136101c6565b6024356000526000835260406000209060018060a01b0316600052602052604060002090565b54604051908152f35b6001600160e01b03198116036101dc57565b346101dc5760203660031901126101dc57602060043561027381610242565b63ffffffff60e01b16636cdb3d1360e11b81149081156102b1575b81156102a0575b506040519015158152f35b6301ffc9a760e01b14905038610295565b6303a24d0760e21b8114915061028e565b634e487b7160e01b600052604160045260246000fd5b67ffffffffffffffff81116102ec57604052565b6102c2565b90601f8019910116810190811067ffffffffffffffff8211176102ec57604052565b67ffffffffffffffff81116102ec57601f01601f191660200190565b92919261033b82610313565b9161034960405193846102f1565b8294818452818301116101dc578281602093846000960137010152565b60206003198201126101dc576004359067ffffffffffffffff82116101dc57806023830112156101dc578160246103a29360040135910161032f565b90565b346101dc576103b336610366565b6103bb61158c565b805167ffffffffffffffff81116102ec576103e0816103db6002546104b4565b6115e5565b602080601f83116001146104225750819061041293600092610417575b50508160011b916000199060031b1c19161790565b600255005b0151905038806103fd565b90601f1983169361045560026000527f405787fa12a823e0f2b7631cc41b3ba8828b3321ca811111fa75cd3aa3bb5ace90565b926000905b8682106104915750508360019510610478575b505050811b01600255005b015160001960f88460031b161c1916905538808061046d565b8060018596829496860151815501950193019061045a565b60009103126101dc57565b90600182811c921680156104e4575b60208310146104ce57565b634e487b7160e01b600052602260045260246000fd5b91607f16916104c3565b90604051918260008254610501816104b4565b908184526020946001916001811690816000146105715750600114610532575b505050610530925003836102f1565b565b600090815285812095935091905b8183106105595750506105309350820101388080610521565b85548884018501529485019487945091830191610540565b9250505061053094925060ff191682840152151560051b820101388080610521565b60005b8381106105a65750506000910152565b8181015183820152602001610596565b906020916105cf81518092818552858086019101610593565b601f01601f1916010190565b9060206103a29281815201906105b6565b346101dc576000806003193601126106d257604051908060075490610610826104b4565b808552916020916001918281169081156106a5575060011461064d575b6106498661063d818803826102f1565b604051918291826105db565b0390f35b9350600784527fa66cc928b5edb82af9bd49922954155ab7b0942694bea4ce44661d9a8736c6885b8385106106925750505050810160200161063d826106493861062d565b8054868601840152938201938101610675565b90508695506106499693506020925061063d94915060ff191682840152151560051b82010192933861062d565b80fd5b346101dc5760203660031901126101dc576000600435807a184f03e93ff9f4daa797ed6e38ed64bf6a1f0100000000000000008082101561085a575b506d04ee2d6d415b85acef81000000008083101561084b575b50662386f26fc100008083101561083c575b506305f5e1008083101561082d575b506127108083101561081e575b50606482101561080e575b600a80921015610804575b60019081602161078060018701611657565b95860101905b6107ce575b6040516106499061063d816107c06107af8a6107a9602085016112c9565b90611227565b64173539b7b760d91b815260050190565b03601f1981018352826102f1565b600019019083906f181899199a1a9b1b9c1cb0b131b232b360811b8282061a8353049182156107ff57919082610786565b61078b565b916001019161076e565b9190606460029104910191610763565b60049193920491019138610758565b6008919392049101913861074b565b6010919392049101913861073c565b6020919392049101913861072a565b604093508104915038610711565b346101dc5760003660031901126101dc576020600854604051908152f35b60603660031901126101dc5761089a6101c6565b6024356108a561158c565b60085434036101dc57604051916020830183811067ffffffffffffffff8211176102ec57604052600083526001600160a01b038116156109205760209261091891610912604435859160405192600184526020840152604083019160018352606084015260808301604052565b916116b5565b604051908152f35b604051632bfa23e760e11b815260006004820152602490fd5b67ffffffffffffffff81116102ec5760051b60200190565b9080601f830112156101dc57602090823561096b81610939565b9361097960405195866102f1565b81855260208086019260051b8201019283116101dc57602001905b8282106109a2575050505090565b81358152908301908301610994565b9080601f830112156101dc578160206103a29335910161032f565b346101dc5760803660031901126101dc576109e56101c6565b67ffffffffffffffff6024358181116101dc57610a06903690600401610951565b906044358181116101dc57610a1f903690600401610951565b906064359081116101dc57610a389036906004016109b1565b91610a4161158c565b6001600160a01b0384161561092057610a59936116b5565b005b60a06003198201126101dc576001600160a01b039160043583811681036101dc579260243590811681036101dc579167ffffffffffffffff916044358381116101dc5782610aab91600401610951565b926064358181116101dc5783610ac391600401610951565b926084359182116101dc576103a2916004016109b1565b346101dc57610a59610aeb36610a5b565b93929092611358565b346101dc5760203660031901126101dc57600435600052600b602052610649610b2060406000206104ee565b6040519182916020835260208301906105b6565b346101dc5760203660031901126101dc576004356004548110156101dc57610b206106499160046000527f8a35acfbc15ff81a39ae7d344fd709f28e8600b4aa8c65c6b64bfe7fe36bd19b016104ee565b90815180825260208080930193019160005b828110610ba5575050505090565b835185529381019392810192600101610b97565b9060206103a2928181520190610b85565b346101dc5760403660031901126101dc5760043567ffffffffffffffff8082116101dc57366023830112156101dc578160040135610c0781610939565b92610c1560405194856102f1565b8184526020916024602086019160051b830101913683116101dc57602401905b828210610c6e57856024358681116101dc5761064991610c5c610c62923690600401610951565b90611418565b60405191829182610bb9565b838091610c7a846101e1565b815201910190610c35565b60a06003198201126101dc576001600160a01b039160043583811681036101dc579260243590811681036101dc579160443591606435916084359067ffffffffffffffff82116101dc576103a2916004016109b1565b346101dc57610cfa610cec36610c85565b8183858796989495976114e3565b6009546001600160a01b0390811693909290843b156101dc57600094608493869286604051998a98899763a29e74c760e01b8952166004880152166024860152604485015260648401525af18015610d6557610d5257005b80610d5f610a59926102d8565b806104a9565b6114d7565b346101dc576000806003193601126106d257604051908060065490610d8e826104b4565b808552916020916001918281169081156106a55750600114610dba576106498661063d818803826102f1565b9350600684527ff652222313e28459528d920b65115c16c04f3efc82aaedc97be59f3f377c0d3f5b838510610dff5750505050810160200161063d826106493861062d565b8054868601840152938201938101610de2565b346101dc5760203660031901126101dc57610e2b61158c565b600435600855005b346101dc576000806003193601126106d257610e4d611689565b600380546001600160a01b0319811690915581906001600160a01b03167f8be0079c531659141344cd1fd0a4f28419497f9722a3daafe3b4186f6b6457e08280a380f35b346101dc57610eaf610ea236610a5b565b8183858798949598611358565b6009546001600160a01b039490851691823b156101dc57600094610f168692610f0489956040519a8b998a988997632aace7bb60e01b8952166004880152166024860152608060448601526084850190610b85565b83810360031901606485015290610b85565b03925af18015610d6557610d5257005b346101dc5760003660031901126101dc576009546040516001600160a01b039091168152602090f35b346101dc5760003660031901126101dc576003546040516001600160a01b039091168152602090f35b346101dc5760403660031901126101dc57610f916101c6565b6024358015158082036101dc576001600160a01b03831692831561101d573360009081526001602090815260408083206001600160a01b039094168352929052209060ff801983541691161790557f17307eab39ab6107e8899845ad3d59bd9653f200f220920489ca2b5937696c3160405180611018339482919091602081019215159052565b0390a3005b60405162ced3e160e81b815260006004820152602490fd5b346101dc576000806003193601126106d25760045461105381610939565b9061106160405192836102f1565b8082526004835260209283830191817f8a35acfbc15ff81a39ae7d344fd709f28e8600b4aa8c65c6b64bfe7fe36bd19b845b8383106110f85750505050604051928484019085855251809152604084019460408260051b8601019392955b8287106110cc5785850386f35b9091929382806110e8600193603f198a820301865288516105b6565b96019201960195929190926110bf565b600188819261110a859b9a989b6104ee565b81520192019201919096939596611093565b346101dc5760403660031901126101dc576111356101c6565b602435906001600160a01b039081831683036101dc571660009081526001602090815260408083206001600160a01b03909416835292815291902060ff9054166040519015158152f35b346101dc57610a5961119036610c85565b939290926114e3565b346101dc5760203660031901126101dc576111b26101c6565b6111ba611689565b6001600160a01b0390811690811561120e57600354826bffffffffffffffffffffffff60a01b821617600355167f8be0079c531659141344cd1fd0a4f28419497f9722a3daafe3b4186f6b6457e0600080a3005b604051631e4fbdf760e01b815260006004820152602490fd5b9061123a60209282815194859201610593565b0190565b346101dc5760206112658161125236610366565b8160405193828580945193849201610593565b8101600a81520301902054604051908152f35b346101dc5760203660031901126101dc576004356005548110156101dc5760209060056000527f036b6384b5eca791c62761152d0c79bb0604c104a5fb6f4eb0703f3154bb3db00154604051908152f35b600654600092916112d9826104b4565b9160019081811690811561134557506001146112f457505050565b909192935060066000527ff652222313e28459528d920b65115c16c04f3efc82aaedc97be59f3f377c0d3f906000915b848310611332575050500190565b8181602092548587015201920191611324565b60ff191683525050811515909102019150565b939291906001600160a01b038086169033821415806113ca575b6113a357821615610920571561138b5761053094611830565b604051626a0d4560e21b815260006004820152602490fd5b60405163711bec9160e11b81523360048201526001600160a01b0388166024820152604490fd5b50600082815260016020908152604080832033845290915290205460ff1615611372565b80518210156114025760209160051b010190565b634e487b7160e01b600052603260045260246000fd5b919091805183518082036114b557505080519061144d61143783610939565b9261144560405194856102f1565b808452610939565b60209190601f1901368484013760005b81518110156114ad57600581901b8281018401519087018401516000908152602081815260408083206001600160a01b0390941683529290522054600191906114a682876113ee565b520161145d565b509193505050565b604051635b05999160e01b815260048101919091526024810191909152604490fd5b6040513d6000823e3d90fd5b92939290916001600160a01b03808316903382141580611568575b61154157841615610920571561138b576105309461153960405192600184526020840152604083019160018352606084015260808301604052565b929091611830565b60405163711bec9160e11b81523360048201526001600160a01b0385166024820152604490fd5b50600082815260016020908152604080832033845290915290205460ff16156114fe565b6009546001600160a01b031633036115a057565b60405162461bcd60e51b815260206004820152601a60248201527f4f6e6c7920666163746f72792063616e2063616c6c20746869730000000000006044820152606490fd5b601f81116115f1575050565b60009060026000527f405787fa12a823e0f2b7631cc41b3ba8828b3321ca811111fa75cd3aa3bb5ace906020601f850160051c8301941061164d575b601f0160051c01915b82811061164257505050565b818155600101611636565b909250829061162d565b9061166182610313565b61166e60405191826102f1565b828152809261167f601f1991610313565b0190602036910137565b6003546001600160a01b0316330361169d57565b60405163118cdaa760e01b8152336004820152602490fd5b9080518351908181036114b557505060005b815181101561174557600581901b82810160209081015191860101516001929185906001600160a01b038216611701575b505050016116c7565b61173b9161171c611733926000526000602052604060002090565b9060018060a01b0316600052602052604060002090565b918254611a29565b90553884816116f8565b508051919392916001036117e7576020818101518382015160408051928352928201526001600160a01b0386169160009133917fc3d58168c5ae7397731d063d5bbf3d657854427343f4c083240f7aacaa2d0f6291a45b6001600160a01b0384166117b1575b50505050565b80516001036117d857906020806117cf959301519101519133611d2d565b388080806117ab565b6117e29333611b33565b6117cf565b6040516001600160a01b0385169060009033907f4a39dc06d4c0dbc64b70af90fd698a233a518aa5d07e595d983b8c0526c8f7fb9080611828888883611a4c565b0390a461179c565b9491909181518451908181036114b557505060005b825181101561193357600581901b83810160209081015191870101516001600160a01b03929186908a85166118ad575b6001948216611888575b50505001611845565b6118a39161171c611733926000526000602052604060002090565b905538858161187f565b91929390506118ca8a61171c846000526000602052604060002090565b548381106118fc57918791846001969594036118f48d61171c856000526000602052604060002090565b559450611875565b6040516303dee4c560e01b81526001600160a01b038c16600482015260248101919091526044810184905260648101839052608490fd5b5094919392909360018551146000146119de576020858101518382015160408051928352928201526001600160a01b03838116929086169133917fc3d58168c5ae7397731d063d5bbf3d657854427343f4c083240f7aacaa2d0f6291a45b6001600160a01b0381166119a7575b5050505050565b84516001036119cd576020806119c39601519201519233611d62565b38808080806119a0565b6119d994919233611c2e565b6119c3565b6040516001600160a01b03828116919085169033907f4a39dc06d4c0dbc64b70af90fd698a233a518aa5d07e595d983b8c0526c8f7fb9080611a21888c83611a4c565b0390a4611991565b91908201809211611a3657565b634e487b7160e01b600052601160045260246000fd5b9091611a636103a293604084526040840190610b85565b916020818403910152610b85565b908160209103126101dc57516103a281610242565b92611ab56103a29593611ac39360018060a01b031686526000602087015260a0604087015260a0860190610b85565b908482036060860152610b85565b9160808184039101526105b6565b93906103a29593611ab591611ac39460018060a01b03809216885216602087015260a0604087015260a0860190610b85565b3d15611b2e573d90611b1482610313565b91611b2260405193846102f1565b82523d6000602084013e565b606090565b9293919093843b611b45575050505050565b602091611b68604051948593849363bc197c8160e01b9889865260048601611a86565b038160006001600160a01b0388165af160009181611bfd575b50611bc05782611b8f611b03565b8051919082611bb957604051632bfa23e760e11b81526001600160a01b0383166004820152602490fd5b6020915001fd5b6001600160e01b03191603611bda575038808080806119a0565b604051632bfa23e760e11b81526001600160a01b03919091166004820152602490fd5b611c2091925060203d602011611c27575b611c1881836102f1565b810190611a71565b9038611b81565b503d611c0e565b939290949194853b611c43575b505050505050565b611c66602093604051958694859463bc197c8160e01b998a875260048701611ad1565b038160006001600160a01b0388165af160009181611ca8575b50611c8d5782611b8f611b03565b6001600160e01b03191603611bda5750388080808080611c3b565b611cc291925060203d602011611c2757611c1881836102f1565b9038611c7f565b909260a0926103a29594600180861b03168352600060208401526040830152606082015281608082015201906105b6565b91926103a295949160a094600180871b0380921685521660208401526040830152606082015281608082015201906105b6565b9293919093843b611d3f575050505050565b602091611b68604051948593849363f23a6e6160e01b9889865260048601611cc9565b939290949194853b611d7657505050505050565b611c66602093604051958694859463f23a6e6160e01b998a875260048701611cfa56fea264697066735822122027942f32e2c4f5d0dc32277e73e28b99020b04c0d04af32980694df7ed759c2664736f6c63430008180033","linkReferences":{}},"methodIdentifiers":{"_factory()":"c5cc6b6a","balanceOf(address,uint256)":"00fdd58e","balanceOfBatch(address[],uint256[])":"4e1273f4","baseMetadataURI()":"5b2bd79e","getFactory()":"88cc58e4","getNames()":"cd838f0f","idToName(uint256)":"364410b3","ids(uint256)":"fac333ac","isApprovedForAll(address,address)":"e985e9c5","mint(address,uint256,uint256)":"156e29f6","mintBatch(address,uint256[],uint256[],bytes)":"1f7fdffa","mintFee()":"13966db5","name()":"06fdde03","nameToId(string)":"f6d8f2cb","names(uint256)":"4622ab03","onTokenSubscription(address,address,uint256,uint256,bytes)":"52ba35c7","onTokenSubscriptionBatch(address,address,uint256[],uint256[],bytes)":"811311b8","owner()":"8da5cb5b","renounceOwnership()":"715018a6","safeBatchTransferFrom(address,address,uint256[],uint256[],bytes)":"2eb2c2d6","safeTransferFrom(address,address,uint256,uint256,bytes)":"f242432a","setApprovalForAll(address,bool)":"a22cb465","setFee(uint256)":"69fe0e2d","setURI(string)":"02fe5305","supportsInterface(bytes4)":"01ffc9a7","transferOwnership(address)":"f2fde38b","uri(uint256)":"0e89341c"},"id":0}