{"abi":[{"type":"constructor","inputs":[{"name":"_hex","type":"address","internalType":"address"}],"stateMutability":"nonpayable"},{"type":"fallback","stateMutability":"payable"},{"type":"receive","stateMutability":"payable"},{"type":"function","name":"Burn","inputs":[{"name":"amount","type":"uint256","internalType":"uint256"}],"outputs":[],"stateMutability":"nonpayable"},{"type":"function","name":"_delegatorCount","inputs":[],"outputs":[{"name":"","type":"uint256","internalType":"uint256"}],"stateMutability":"view"},{"type":"function","name":"_getImplementation","inputs":[{"name":"clone","type":"address","internalType":"address"}],"outputs":[{"name":"impl","type":"address","internalType":"address"}],"stateMutability":"view"},{"type":"function","name":"_isDelegatorNode","inputs":[{"name":"sender","type":"address","internalType":"address"}],"outputs":[{"name":"","type":"bool","internalType":"bool"}],"stateMutability":"view"},{"type":"function","name":"_isSafe","inputs":[],"outputs":[{"name":"","type":"bool","internalType":"bool"}],"stateMutability":"view"},{"type":"function","name":"_isSecureBase","inputs":[{"name":"sender","type":"address","internalType":"address"}],"outputs":[{"name":"","type":"bool","internalType":"bool"}],"stateMutability":"view"},{"type":"function","name":"_isSigner","inputs":[{"name":"sender","type":"address","internalType":"address"}],"outputs":[{"name":"","type":"bool","internalType":"bool"}],"stateMutability":"view"},{"type":"function","name":"callByBusiness","inputs":[{"name":"_amt","type":"uint256","internalType":"uint256"},{"name":"_tvl","type":"uint256","internalType":"uint256"}],"outputs":[],"stateMutability":"payable"},{"type":"function","name":"callByClaim","inputs":[{"name":"p1","type":"uint256","internalType":"uint256"},{"name":"p2","type":"uint256","internalType":"uint256"},{"name":"p3","type":"uint256","internalType":"uint256"},{"name":"p4","type":"uint256","internalType":"uint256"},{"name":"p5","type":"uint256","internalType":"uint256"},{"name":"p6","type":"uint256","internalType":"uint256"},{"name":"p7","type":"uint256","internalType":"uint256"}],"outputs":[],"stateMutability":"nonpayable"},{"type":"function","name":"callByDetachParent","inputs":[{"name":"user","type":"address","internalType":"address"}],"outputs":[],"stateMutability":"nonpayable"},{"type":"function","name":"callByImport","inputs":[{"name":"olduinst","type":"address","internalType":"address"}],"outputs":[],"stateMutability":"payable"},{"type":"function","name":"callByJoin","inputs":[{"name":"user","type":"address","internalType":"address"},{"name":"parent","type":"address","internalType":"address"}],"outputs":[],"stateMutability":"payable"},{"type":"function","name":"getBalance","inputs":[],"outputs":[{"name":"","type":"uint256","internalType":"uint256"}],"stateMutability":"view"},{"type":"function","name":"getbusiness","inputs":[{"name":"ag","type":"uint256","internalType":"uint256"}],"outputs":[{"name":"","type":"uint256","internalType":"uint256"}],"stateMutability":"view"},{"type":"function","name":"getjoining","inputs":[{"name":"ag","type":"uint256","internalType":"uint256"}],"outputs":[{"name":"","type":"uint256","internalType":"uint256"}],"stateMutability":"view"},{"type":"function","name":"getwithdrawn","inputs":[{"name":"ag","type":"uint256","internalType":"uint256"}],"outputs":[{"name":"","type":"uint256","internalType":"uint256"}],"stateMutability":"view"},{"type":"function","name":"importBusiness","inputs":[{"name":"_amt","type":"uint256","internalType":"uint256"},{"name":"_ag","type":"uint256","internalType":"uint256"}],"outputs":[],"stateMutability":"nonpayable"},{"type":"function","name":"importJoining","inputs":[{"name":"_cnt","type":"uint256","internalType":"uint256"},{"name":"_ag","type":"uint256","internalType":"uint256"}],"outputs":[],"stateMutability":"nonpayable"},{"type":"function","name":"importWithdrawal","inputs":[{"name":"_amt","type":"uint256","internalType":"uint256"},{"name":"_ag","type":"uint256","internalType":"uint256"}],"outputs":[],"stateMutability":"nonpayable"},{"type":"function","name":"isNodeStopped","inputs":[{"name":"sender","type":"address","internalType":"address"}],"outputs":[{"name":"","type":"bool","internalType":"bool"}],"stateMutability":"view"},{"type":"function","name":"owner","inputs":[],"outputs":[{"name":"","type":"address","internalType":"address"}],"stateMutability":"view"},{"type":"function","name":"systemAge","inputs":[],"outputs":[{"name":"","type":"uint256","internalType":"uint256"}],"stateMutability":"view"}],"bytecode":{"object":"0x60803461007857601f611ae138819003918201601f19168301916001600160401b0383118484101761007d5780849260209460405283398101031261007857516001600160a01b038116908190036100785760018060a01b031980600154166001556000541617600055604051611a4d90816100948239f35b600080fd5b634e487b7160e01b600052604160045260246000fdfe60806040526004361015610018575b361561001657005b005b60003560e01c806312065fe0146101785780631f185d16146101735780632a687c871461016e57806332ff4eab146101695780633e7844a01461016457806351bfd3ae1461015f57806357d703da1461015a5780638da5cb5b146101555780638e4cddcc1461015057806395f72f491461014b57806398b3f21514610146578063a1f7f53914610141578063af4845261461013c578063b90306ad14610137578063c54e44b014610132578063c655da221461012d578063e01ad5fd14610128578063e0a9bc2b14610123578063eb95c6621461011e578063f3ca712414610119578063fb5b0a6a146101145763fdc10bc90361000e57610be9565b610b6b565b610b3f565b610b13565b610af8565b610a5f565b6109ed565b610970565b6108bd565b61088c565b6107d5565b6107a9565b6106ff565b61067f565b610656565b6105bd565b610465565b6103cd565b610323565b610274565b6101aa565b3461019457600036600319011261019457602047604051908152f35b600080fd5b6001600160a01b0381160361019457565b346101945760208060031936011261019457600480356101c981610199565b600054604051634bf9c0ad60e11b81526001600160a01b03949093909182918591829088165afa90811561026f5761023c9461022a94600093610240575b50604051931681840152825261021c82610c22565b61022461161e565b906118db565b60405190151581529081906020820190565b0390f35b610261919350823d8411610268575b6102598183610c7b565b810190610cf3565b9138610207565b503d61024f565b610d0b565b34610194576040366003190112610194576102956102906114eb565b6113e3565b61029e33611579565b80156102bc575b6102ae90611424565b610016602435600435611470565b50600054604051630536340960e21b8152906001600160a01b03906020908390600490829085165afa90811561026f576102ae92600092610303575b5016331490506102a5565b61031c91925060203d8111610268576102598183610c7b565b90386102f8565b346101945760403660031901126101945761033f6102906114eb565b61034833611579565b8015610366575b61035890611424565b6100166024356004356114c2565b50600054604051630536340960e21b8152906001600160a01b03906020908390600490829085165afa90811561026f57610358926000926103ad575b50163314905061034f565b6103c691925060203d8111610268576102598183610c7b565b90386103a2565b60403660031901126101945760046103e433610ccc565b8051602091820120600054604051631cc3bfab60e31b815293919291849182906001600160a01b03165afa91821561026f576104399261042c91600091610447575b50610ccc565b6020815191012014610d17565b610016602435600435610e8e565b61045f915060203d8111610268576102598183610c7b565b38610426565b34610194576020366003190112610194576004803561048381610199565b6000546020906104a3906001600160a01b03165b6001600160a01b031690565b60405163ab6e844f60e01b815293849182905afa91821561026f5761023c92610511926104f592600092610599575b50604080516001600160a01b039092166020830152909261050391849190820190565b03601f198101845283610c7b565b61050b6116d6565b9061179e565b6001600160a01b038116159061055161053a61052b611705565b610533610cb9565b90846118db565b9161054361172c565b61054b610cb9565b916118db565b8290811561056f575b50506040519115158252509081906020820190565b9192509082610591575b5081610589575b5038808061055a565b905038610580565b915038610579565b6105039192506105b69060203d8111610268576102598183610c7b565b91906104d2565b3461019457602080600319360112610194576004908135906105de82610199565b6105e733610ccc565b805190820120600054604051631cc3bfab60e31b815294839186919082906001600160a01b03165afa91821561026f5761062f61063a936100169660009161063f5750610ccc565b805191012014610d17565b6112c7565b61045f9150833d8511610268576102598183610c7b565b34610194576000366003190112610194576001546040516001600160a01b039091168152602090f35b346101945760e036600319011261019457600461069b33610ccc565b8051602091820120600054604051631cc3bfab60e31b815293919291849182906001600160a01b03165afa91821561026f576106e29261042c916000916104475750610ccc565b61001660c43560a435608435606435604435602435600435610f81565b346101945760403660031901126101945761071b6102906114eb565b61072433611579565b8015610742575b61073490611424565b610016602435600435611499565b50600054604051630536340960e21b8152906001600160a01b03906020908390600490829085165afa90811561026f5761073492600092610789575b50163314905061072b565b6107a291925060203d8111610268576102598183610c7b565b903861077e565b346101945760203660031901126101945760043560005260056020526020604060002054604051908152f35b346101945760003660031901126101945760005460405163d1f956b160e01b815290602090829060049082906001600160a01b03165afa90811561026f5761023c9161085e9160009161086e575b5060405161083081610c22565b601381527267657464656c656761746f72436f756e74282960681b6020820152610858610cb9565b91611922565b6040519081529081906020820190565b610886915060203d8111610268576102598183610c7b565b38610823565b346101945760203660031901126101945760206108b36004356108ae81610199565b611579565b6040519015158152f35b3461019457602036600319011261019457600054604051630536340960e21b8152906001600160a01b03906020908390600490829085165afa91821561026f57600092610950575b50339116036109195761001660043561177d565b60405162461bcd60e51b815260206004820152600f60248201526e6f776e2e6e6f6e617574682e44414f60881b6044820152606490fd5b61096991925060203d8111610268576102598183610c7b565b9038610905565b346101945760203660031901126101945761099560043561099081610199565b610ccc565b602d8151106109b257602a015160405160609190911c8152602090f35b60405162461bcd60e51b81526020600482015260136024820152724e6f742061206d696e696d616c2070726f787960681b6044820152606490fd5b60208060031936011261019457600490813590610a0982610199565b610a1233610ccc565b805190820120600054604051631cc3bfab60e31b815294839186919082906001600160a01b03165afa91821561026f5761062f610a5a936100169660009161063f5750610ccc565b610e05565b34610194576020806003193601126101945760048035610a7e81610199565b60005460405163d1f956b160e01b81526001600160a01b03949093909182918591829088165afa90811561026f5761023c9461022a94600093610ad9575b506040519316818401528252610ad182610c22565b610224611750565b610af1919350823d8411610268576102598183610c7b565b9138610abc565b346101945760003660031901126101945760206108b36114eb565b346101945760203660031901126101945760043560005260036020526020604060002054604051908152f35b346101945760203660031901126101945760043560005260046020526020604060002054604051908152f35b60403660031901126101945760048035610b8481610199565b60243590610b9182610199565b610b9a33610ccc565b8051602091820120600054604051631cc3bfab60e31b815295919291869182906001600160a01b03165afa90811561026f5761042c610be492610016966000916104475750610ccc565b610d59565b34610194576000366003190112610194576020610c0461164b565b604051908152f35b634e487b7160e01b600052604160045260246000fd5b6040810190811067ffffffffffffffff821117610c3e57604052565b610c0c565b6020810190811067ffffffffffffffff821117610c3e57604052565b60c0810190811067ffffffffffffffff821117610c3e57604052565b90601f8019910116810190811067ffffffffffffffff821117610c3e57604052565b67ffffffffffffffff8111610c3e57601f01601f191660200190565b60405190610cc682610c43565b60008252565b90813b6000610cda82610c9d565b93610ce86040519586610c7b565b82855260208501903c565b908160209103126101945751610d0881610199565b90565b6040513d6000823e3d90fd5b15610d1e57565b60405162461bcd60e51b81526020600482015260136024820152726f776e2e756e617574682e696e7374616e636560681b6044820152606490fd5b60005460405163ab6e844f60e01b815292916001600160a01b03916020908590600490829086165afa91821561026f57610dda94600093610de5575b50610d9e61164b565b9181604051956322d625e360e11b6020880152166024860152336044860152166064840152608483015260848252610dd582610c5f565b611960565b50610de3611396565b565b610dfe91935060203d8111610268576102598183610c7b565b9138610d95565b803115610e8b5760405190634fb2e45d60e01b6020830152336024830152602482526060820182811067ffffffffffffffff821117610c3e57610e8b92610e4f9160405282611960565b5060405190630a3e884b60e41b60208301526000602483015261270f6044830152600060648301526007608483015260848252610dd582610c5f565b50565b90610e9761164b565b916000928352610eb1602091600383526040852054610f5e565b610eb961164b565b845260038252604084205581610ece57505050565b8254600491908190610ee8906001600160a01b0316610497565b604051635506ee0b60e11b815293849182905afa91821561026f57610e8b9492610f3b575b5060405163a9059cbb60e01b918101919091523360248201526044810192909252610dd582606481016104f5565b819250610f5790610dd5923d8511610268576102598183610c7b565b9190610f0d565b91908201809211610f6b57565b634e487b7160e01b600052601160045260246000fd5b9091610fa987610fa488610fa489610fa48a610fa4610fae99610fa48d8d610f5e565b610f5e565b61135f565b8061124f575b50806111d7575b508061115f575b50806110e7575b508061106f575b5080610fd95750565b600054600490602090610ff4906001600160a01b0316610497565b6040516313b92d3560e31b815292839182905afa801561026f57610e8b926104f59260009261104b575b5060405163a9059cbb60e01b6020820152336024820152604481019190915291610dd59083906064820190565b610dd59192506110689060203d8111610268576102598183610c7b565b919061101e565b60005460049060209061108a906001600160a01b0316610497565b6040516324768d9160e01b815292839182905afa801561026f576110e0926104f59260009261104b575060405163a9059cbb60e01b6020820152336024820152604481019190915291610dd59083906064820190565b5038610fd0565b600054600490602090611102906001600160a01b0316610497565b6040516324768d9160e01b815292839182905afa801561026f57611158926104f59260009261104b575060405163a9059cbb60e01b6020820152336024820152604481019190915291610dd59083906064820190565b5038610fc9565b60005460049060209061117a906001600160a01b0316610497565b604051635506ee0b60e11b815292839182905afa801561026f576111d0926104f59260009261104b575060405163a9059cbb60e01b6020820152336024820152604481019190915291610dd59083906064820190565b5038610fc2565b6000546004906020906111f2906001600160a01b0316610497565b6040516330125cf560e01b815292839182905afa801561026f57611248926104f59260009261104b575060405163a9059cbb60e01b6020820152336024820152604481019190915291610dd59083906064820190565b5038610fbb565b60005460049060209061126a906001600160a01b0316610497565b604051636402742760e01b815292839182905afa801561026f576112c0926104f59260009261104b575060405163a9059cbb60e01b6020820152336024820152604481019190915291610dd59083906064820190565b5038610fb4565b60005460405163ab6e844f60e01b815291906001600160a01b03906020908490600490829085165afa92831561026f5760009361133f575b5060405191632c96fa0f60e21b602084015216602482015260248152606081019181831067ffffffffffffffff841117610c3e57610e8b92604052611960565b61135891935060203d8111610268576102598183610c7b565b91386112ff565b61137e9061136b61164b565b6000526004602052604060002054610f5e565b61138661164b565b6000526004602052604060002055565b61139e61164b565b60009081526005602052604081205490600182018092116113cf576040906113c461164b565b815260056020522055565b634e487b7160e01b81526011600452602490fd5b156113ea57565b60405162461bcd60e51b81526020600482015260126024820152716f776e2e696e76616c69642e69735361666560701b6044820152606490fd5b1561142b57565b60405162461bcd60e51b815260206004820152601b60248201527f6f776e2e6e6f6e617574682e44414f6f725365637572656261736500000000006044820152606490fd5b61148890826000526003602052604060002054610f5e565b906000526003602052604060002055565b6114b190826000526004602052604060002054610f5e565b906000526004602052604060002055565b6114da90826000526005602052604060002054610f5e565b906000526005602052604060002055565b600054604051634bf9c0ad60e11b815290602090829060049082906001600160a01b03165afa801561026f57610d089160009161155b575b5060405161153081610c22565b6008815267697353616665282960c01b60208201526040519161155283610c43565b600083526118db565b611573915060203d8111610268576102598183610c7b565b38611523565b600054604051634bf9c0ad60e11b815291906020906001600160a01b039082908590600490829085165afa90811561026f57610d08946000926115ff575b506040519316828401528183526115cd83610c22565b7469735365637572654261736528616464726573732960581b604051926115f384610c22565b601584528301526118db565b611617919250833d8511610268576102598183610c7b565b90386115b7565b6040519061162b82610c22565b601182527069735369676e657228616464726573732960781b6020830152565b60005460405163111ea8c160e21b815290602090829060049082906001600160a01b03165afa801561026f57610d08916000916116b8575b5060405161169081610c22565b6005815264616765282960d81b6020820152604051916116af83610c43565b60008352611922565b6116d0915060203d8111610268576102598183610c7b565b38611683565b604051906116e382610c22565b601382527255736572546f496e737428616464726573732960681b6020830152565b6040519061171282610c22565b600b82526a697353757370656e64282960a81b6020830152565b6040519061173982610c22565b600882526769734c6f636b282960c01b6020830152565b6040519061175d82610c22565b6011825270697364656c656761746f724e6f6465282960781b6020830152565b600080808093818115611795575b8290f11561026f57565b506108fc61178b565b92916117ac9160009461183d565b90806117d7575b6117ba5750565b909150602081805181010312610194576020015161049781610199565b5060208151146117b3565b9081519160005b8381106117fa575050016000815290565b80602080928401015181850152016117e9565b3d15611838573d9061181e82610c9d565b9161182c6040519384610c7b565b82523d6000602084013e565b606090565b803b156118c2576040519163ffffffff60e01b9060208151910120169167ffffffffffffffff8111610c3e576118a46118b260009586958460405260208501526004845261188a84610c22565b60405192839161189e6020840180976117e2565b906117e2565b03601f198101835282610c7b565b51915afa6118be61180d565b9091565b5050506000906040516118d481610c43565b6000815290565b92916118e99160009461183d565b9080611917575b6118f75750565b909150602081805181010312610194576020015180151581036101945790565b5060208151146118f0565b92916119309160009461183d565b9080611955575b61193e5750565b909150602081805181010312610194576020015190565b506020815114611937565b6001600160a01b038116156119dd5781600092918360208194519301915af161198761180d565b90156119905790565b80511561199f57805190602001fd5b60405162461bcd60e51b81526020600482015260166024820152751bdddb8b9d185c99d95d0b98d85b1b0b99985a5b195960521b6044820152606490fd5b60405162461bcd60e51b81526020600482015260126024820152711bdddb8b9a5b9d985b1a590b9d185c99d95d60721b6044820152606490fdfea2646970667358221220a54ac15840db40c641b127a24c68f3c0c08872e4b97a0ce694d25033e36d433564736f6c63430008140033","linkReferences":{}},"methodIdentifiers":{"Burn(uint256)":"b90306ad","_delegatorCount()":"a1f7f539","_getImplementation(address)":"c54e44b0","_isDelegatorNode(address)":"e01ad5fd","_isSafe()":"e0a9bc2b","_isSecureBase(address)":"af484526","_isSigner(address)":"1f185d16","callByBusiness(uint256,uint256)":"3e7844a0","callByClaim(uint256,uint256,uint256,uint256,uint256,uint256,uint256)":"8e4cddcc","callByDetachParent(address)":"57d703da","callByImport(address)":"c655da22","callByJoin(address,address)":"fb5b0a6a","getBalance()":"12065fe0","getbusiness(uint256)":"eb95c662","getjoining(uint256)":"98b3f215","getwithdrawn(uint256)":"f3ca7124","importBusiness(uint256,uint256)":"2a687c87","importJoining(uint256,uint256)":"32ff4eab","importWithdrawal(uint256,uint256)":"95f72f49","isNodeStopped(address)":"51bfd3ae","owner()":"8da5cb5b","systemAge()":"fdc10bc9"},"id":46}