{"abi":[{"type":"function","name":"calculateAgStep","inputs":[{"name":"royals","type":"uint256[7]","internalType":"uint256[7]"},{"name":"rank","type":"uint256","internalType":"uint256"},{"name":"rankage","type":"uint256[8]","internalType":"uint256[8]"},{"name":"rwNums","type":"uint256[7]","internalType":"uint256[7]"},{"name":"rwEnds","type":"uint256[7]","internalType":"uint256[7]"},{"name":"ag","type":"uint256","internalType":"uint256"},{"name":"ranges","type":"uint256[6]","internalType":"uint256[6]"}],"outputs":[{"name":"stepP2","type":"uint256","internalType":"uint256"},{"name":"stepF2","type":"uint256","internalType":"uint256"}],"stateMutability":"pure"},{"type":"function","name":"computeFlushDays","inputs":[{"name":"ag","type":"uint256","internalType":"uint256"},{"name":"endage","type":"uint256","internalType":"uint256"},{"name":"ranges","type":"uint256[6]","internalType":"uint256[6]"}],"outputs":[{"name":"flushDays","type":"uint256","internalType":"uint256"}],"stateMutability":"pure"}],"bytecode":{"object":"0x6080806040523461001a576104829081610020823930815050f35b600080fdfe60406080815260048036101561001457600080fd5b600090813560e01c8063194d5efe1461032b57638ccb02d41461003657600080fd5b6104a0366003190112610327573660231215610327576100546103d2565b9160e4833682116102ed5783905b82821061031757505035903661012312156103145784519261010084016001600160401b0381118582101761030157865283610204943686116102d557610104905b8682106102f15750503661022312156102ed576100bf6103d2565b95866102e4963688116102e957905b8782106102d95750503661030312156102d5576100e96103d2565b95866103c4913683116102d157905b8282106102c157505035963661040312156102bd5761011561039d565b6104a4813682116102b9576103e49a99989796959493929a905b8282106102a957505050849885986001985b888a1115610158578c8c8c82519182526020820152f35b909192939495969798996000198b018b811180610296578e8d61017b848a6103f1565b5115908115610254575b5061024b578651861015908161023c575b811561021a575b50156101fe576101eb57906101b56101bc92886103f1565b5190610429565b995b60001981146101d857600101989796959493929190610141565b634e487b7160e01b895260118852602489fd5b634e487b7160e01b8a526011895260248afd5b9c919b9c6101eb57906101b561021492886103f1565b9a6101be565b90508601518510158061022e575b8f61019d565b506060860151851115610228565b60208801518711159150610196565b505050996101be565b61025f91508b610418565b5186101580610270575b158e610185565b50905061027d8d8a610418565b519061028e8c926101b585886103f1565b861115610269565b634e487b7160e01b8b5260118a5260248bfd5b813581526020918201910161012f565b8780fd5b8480fd5b81358152602091820191016100f8565b8680fd5b8380fd5b81358152602091820191016100ce565b8580fd5b8280fd5b81358152602091820191016100a4565b634e487b7160e01b835260418252602483fd5b80fd5b8135815260209182019101610062565b5080fd5b50916101003660031901126103275760243536606312156102ed5761034e61039d565b610104903682116102bd576044905b82821061038d57505050833581031161037a576020925051908152f35b506011602492634e487b7160e01b835252fd5b813581526020918201910161035d565b6040519060c082016001600160401b038111838210176103bc57604052565b634e487b7160e01b600052604160045260246000fd5b6040519060e082016001600160401b038111838210176103bc57604052565b9060078110156104025760051b0190565b634e487b7160e01b600052603260045260246000fd5b9060088110156104025760051b0190565b9190820180921161043657565b634e487b7160e01b600052601160045260246000fdfea2646970667358221220142c16f1600ea3c4a4d5c7623a5ebc1d6d0003819e83d5a093333a0af6aee82364736f6c63430008140033","linkReferences":{}},"methodIdentifiers":{"calculateAgStep(uint256[7],uint256,uint256[8],uint256[7],uint256[7],uint256,uint256[6])":"8ccb02d4","computeFlushDays(uint256,uint256,uint256[6])":"194d5efe"},"id":4}