{"abi":[{"type":"function","name":"capStatusView","inputs":[{"name":"c","type":"tuple","internalType":"struct InstanceLib.CapInput","components":[{"name":"cunpid","type":"uint256","internalType":"uint256"},{"name":"cflush","type":"uint256","internalType":"uint256"},{"name":"invested","type":"uint256","internalType":"uint256"},{"name":"burned","type":"uint256","internalType":"uint256"},{"name":"investedDollar","type":"uint256","internalType":"uint256"},{"name":"burnedDollar","type":"uint256","internalType":"uint256"},{"name":"claimedCapping","type":"uint256","internalType":"uint256"},{"name":"claimedCappingDollar","type":"uint256","internalType":"uint256"},{"name":"capmultiple","type":"uint256","internalType":"uint256"},{"name":"capmultipledollar","type":"uint256","internalType":"uint256"},{"name":"onOzone","type":"bool","internalType":"bool"},{"name":"onDollar","type":"bool","internalType":"bool"},{"name":"rule","type":"address","internalType":"address"}]}],"outputs":[{"name":"totInc","type":"uint256","internalType":"uint256"},{"name":"thresholdx","type":"uint256","internalType":"uint256"},{"name":"minpay","type":"uint256","internalType":"uint256"},{"name":"totIncdollar","type":"uint256","internalType":"uint256"},{"name":"thresholdollarx","type":"uint256","internalType":"uint256"},{"name":"minpaydollar","type":"uint256","internalType":"uint256"},{"name":"capped","type":"bool","internalType":"bool"}],"stateMutability":"view"},{"type":"function","name":"compute","inputs":[{"name":"input","type":"tuple","internalType":"struct InstanceLib.ComputeInput","components":[{"name":"endage","type":"uint256","internalType":"uint256"},{"name":"dage","type":"uint256","internalType":"uint256"},{"name":"rank","type":"uint256","internalType":"uint256"},{"name":"rankage","type":"uint256[8]","internalType":"uint256[8]"},{"name":"shut","type":"bool","internalType":"bool"},{"name":"p1","type":"uint256","internalType":"uint256"},{"name":"p4","type":"uint256","internalType":"uint256"},{"name":"tvl","type":"uint256","internalType":"uint256"},{"name":"unpaidself","type":"uint256","internalType":"uint256"},{"name":"rule","type":"address","internalType":"address"},{"name":"nested","type":"address","internalType":"address"},{"name":"validator","type":"address","internalType":"address"},{"name":"owner","type":"address","internalType":"address"},{"name":"incValPaid","type":"uint256","internalType":"uint256"},{"name":"incTour1Paid","type":"uint256","internalType":"uint256"},{"name":"incTour2Paid","type":"uint256","internalType":"uint256"},{"name":"suspendValLen","type":"uint256","internalType":"uint256"},{"name":"suspendTour1Len","type":"uint256","internalType":"uint256"},{"name":"suspendTour2Len","type":"uint256","internalType":"uint256"},{"name":"cap","type":"tuple","internalType":"struct InstanceLib.CapInput","components":[{"name":"cunpid","type":"uint256","internalType":"uint256"},{"name":"cflush","type":"uint256","internalType":"uint256"},{"name":"invested","type":"uint256","internalType":"uint256"},{"name":"burned","type":"uint256","internalType":"uint256"},{"name":"investedDollar","type":"uint256","internalType":"uint256"},{"name":"burnedDollar","type":"uint256","internalType":"uint256"},{"name":"claimedCapping","type":"uint256","internalType":"uint256"},{"name":"claimedCappingDollar","type":"uint256","internalType":"uint256"},{"name":"capmultiple","type":"uint256","internalType":"uint256"},{"name":"capmultipledollar","type":"uint256","internalType":"uint256"},{"name":"onOzone","type":"bool","internalType":"bool"},{"name":"onDollar","type":"bool","internalType":"bool"},{"name":"rule","type":"address","internalType":"address"}]},{"name":"ranges","type":"tuple","internalType":"struct InstanceLib.ComputeRanges","components":[{"name":"cap","type":"tuple","internalType":"struct InstanceLib.Range","components":[{"name":"from","type":"uint256","internalType":"uint256"},{"name":"to","type":"uint256","internalType":"uint256"}]},{"name":"royal","type":"tuple","internalType":"struct InstanceLib.Range","components":[{"name":"from","type":"uint256","internalType":"uint256"},{"name":"to","type":"uint256","internalType":"uint256"}]},{"name":"self","type":"tuple","internalType":"struct InstanceLib.Range","components":[{"name":"from","type":"uint256","internalType":"uint256"},{"name":"to","type":"uint256","internalType":"uint256"}]}]},{"name":"lsbSlice","type":"int256[]","internalType":"int256[]"}]}],"outputs":[{"name":"r","type":"tuple","internalType":"struct InstanceStorTypes.ComputeResult","components":[{"name":"p1","type":"uint256","internalType":"uint256"},{"name":"p2","type":"uint256","internalType":"uint256"},{"name":"p3","type":"uint256","internalType":"uint256"},{"name":"p4","type":"uint256","internalType":"uint256"},{"name":"p5","type":"uint256","internalType":"uint256"},{"name":"p6","type":"uint256","internalType":"uint256"},{"name":"p7","type":"uint256","internalType":"uint256"},{"name":"f1","type":"uint256","internalType":"uint256"},{"name":"f2","type":"uint256","internalType":"uint256"},{"name":"f3","type":"uint256","internalType":"uint256"},{"name":"f4","type":"uint256","internalType":"uint256"},{"name":"f5","type":"uint256","internalType":"uint256"},{"name":"f6","type":"uint256","internalType":"uint256"},{"name":"f7","type":"uint256","internalType":"uint256"},{"name":"lsb","type":"int256","internalType":"int256"},{"name":"totInc","type":"uint256","internalType":"uint256"},{"name":"thresholdx","type":"uint256","internalType":"uint256"},{"name":"totIncdollar","type":"uint256","internalType":"uint256"},{"name":"thresholdollarx","type":"uint256","internalType":"uint256"},{"name":"minpay","type":"uint256","internalType":"uint256"},{"name":"minpaydollar","type":"uint256","internalType":"uint256"},{"name":"cap","type":"bool","internalType":"bool"},{"name":"capinc","type":"bool","internalType":"bool"},{"name":"capdollar","type":"bool","internalType":"bool"}]}],"stateMutability":"view"}],"bytecode":{"object":"0x6080806040523461001a576114e39081610020823930815050f35b600080fdfe608080604052600436101561001357600080fd5b60003560e01c9081630156e6b8146104ec57506394e6d3bb1461003557600080fd5b6003196020368201126104c1576001600160401b03600435116104c1576105c090600435360301126104c1576040516102c081016001600160401b038111828210176104c6576040526004356004013581526024600435013560208201526044600435013560408201523660836004350112156104c1576040519061010082016001600160401b038111838210176104c65760405260043561016401823682116104c157606460043501935b8285106104dc575060608301526100f790610643565b608082015260043561018481013560a08301526101a481013560c08301526101c481013560e08301526101e48101356101008301526101399061020401610650565b61012082015261014e61022460043501610650565b61014082015261016361024460043501610650565b61016082015261017861026460043501610650565b6101808201526004356102848101356101a0808401919091526102a48201356101c08401526102c48201356101e08401526102e482013561020084015261030482013561022084015261032482013561024084015236919091036103431901126104c1576040516101e8816105e9565b6004356103448101358252610364810135602083015261038481013560408301526103a481013560608301526103c481013560808301526103e481013560a083015261040481013560c083015261042481013560e08301526104448101356101008301526104648101356101208301526102659061048401610643565b61014082015261027a6104a460043501610643565b61016082015261028f6104c460043501610650565b61018082015261026082015260c060043536036104e31901126104c1576040516102b8816105ce565b6102c8366104e460043501610664565b81526102da3661052460043501610664565b60208201526102ef3661056460043501610664565b60408201526102808201526004356105a401356001600160401b0381116104c15736602382600435010112156104c1576001600160401b036004803583010135116104c65760405190600481813501013560051b6103506020820184610620565b6004828135010135835260208301903660248285600435010101116104c1576024836004350101915b6024828560043501010183106104b15761030061039c87876102a082015261078b565b60405190805182526020810151602083015260408101516040830152606081015160608301526080810151608083015260a081015160a083015260c081015160c083015260e081015160e08301526101008101516101008301526101208101516101208301526101408101516101408301526101608101516101608301526101808101516101808301526101a08101516101a08301526101c08101516101c08301526101e08101516101e08301526102008101516102008301526102208101516102208301526102408101516102408301526102608101516102608301526102808101516102808301526102a081015115156102a08301526102c081015115156102c08301526102e080910151151590820152f35b8235815260209283019201610379565b600080fd5b634e487b7160e01b600052604160045260246000fd5b84358152602094850194016100e1565b6101a03660031901126104c157610502816105e9565b6004358152602435602082015260443560408201526064356060820152608435608082015260a43560a082015260c43560c082015260e43560e082015261010435610100820152610124356101208201526101443580151581036104c1576101408201526101643580151581036104c157610160820152610184356001600160a01b03811681036104c1578161059f9161018060e0940152611287565b94604094919493929351968752602087015260408601526060850152608084015260a0830152151560c0820152f35b606081019081106001600160401b038211176104c657604052565b6101a081019081106001600160401b038211176104c657604052565b60e081019081106001600160401b038211176104c657604052565b601f909101601f19168101906001600160401b038211908210176104c657604052565b359081151582036104c157565b35906001600160a01b03821682036104c157565b91908260409103126104c157604080519081016001600160401b038111828210176104c6576040526020808294803584520135910152565b6040519061030082016001600160401b038111838210176104c657604052816102e06000918281528260208201528260408201528260608201528260808201528260a08201528260c08201528260e08201528261010082015282610120820152826101408201528261016082015282610180820152826101a0820152826101c0820152826101e08201528261020082015282610220820152826102408201528261026082015282610280820152826102a0820152826102c08201520152565b9190820391821161076857565b634e487b7160e01b600052601160045260246000fd5b9190820180921161076857565b61079361069c565b60a082810151825260c0830151606083015260405191908201906001600160401b038211838310176104c65760049160405260008352600060208401526000604084015260006060840152600060808401526102a060018060a01b036101208601511660405193848092634f5c5a2760e11b82525afa918215610baf57600092611157575b506020840151905b8451821015610bbb5761014085015160405163074f6ab760e31b815260048101849052969060e090889060249082906001600160a01b03165afa968715610baf57600097610b34575b5060015b604087015181116109ba57806000198101118061076857610892600019830187611213565b515115801561095e575b6109545761028088015180519081518710159182610945575b50811561091e575b50156108f657610768576108f1906108e76108dc60001983018b611213565b51602089015161077e565b6020880152611204565b61086d565b610768576108f19061091761090f60001983018b611213565b51885161077e565b8752611204565b602001518051871015915081610936575b50386108bd565b6020915001518511153861092f565b602001518711159150386108b5565b506108f190611204565b50606088018261096f818351611224565b518710159182610982575b50501561089c565b909150610990925051611224565b516109b060009160406109a760001986018a611213565b5101519061077e565b851115823861097a565b509550906080850151156109d8575b6109d290611204565b90610820565b6102a08501516109ec60208701518361075b565b908051821015610b1e5760209160051b01015190610a0e826040870151611235565b6040860152610a1e81875161075b565b916000906040610280890151015193845194895195868110610ab8575b50506109d29450808311610ab0575b82610a549161075b565b9180610a8e575b5081610a6b575b505090506109c9565b610a8291610a7891611251565b6060870151611235565b60608601523880610a62565b610a9b610aa59183611251565b6080890151611235565b608088015238610a5b565b915081610a4a565b80861115610b18575084955b6020820151600181018111610768576001011115610aff57506109d29489515b81811115610a3b57610af792945061075b565b913880610a3b565b602001519460018601809611610768576109d295610ae4565b95610ac4565b634e487b7160e01b600052603260045260246000fd5b90965060e0903d60e011610ba7575b610b4d8282610620565b60e08183810103126104c157818101601f820112156104c15760405191610b7383610605565b8290820160e08301116104c15781905b60e083018210610b97575050509538610869565b8151815260209182019101610b83565b3d9150610b43565b6040513d6000823e3d90fd5b939291505080516020840152602081015161010084015260408101516101c0840152608082015115156000146111175750610c0060e08201516101008301519061075b565b604083015260006101208301525b610160810151610180820151604051634d81df5360e11b81526001600160a01b0391821660048201529160209183916024918391165afa908115610baf576000916110e5575b506101a0820151908160808501528181116000146110d757610c7c915060808401519061075b565b6080830152600260408201511015806110ca575b61104e575b60046040820151101580611041575b610fc6575b6001806102008301511614610fa3575b6001806102208301511614610f83575b6001806102408301511614610f63575b610d05610cfa610cef845160208601519061077e565b60408501519061077e565b60608401519061077e565b61026082015152610d3e610d32610d2660e08501516101008601519061077e565b6101208501519061077e565b6101408401519061077e565b60206102608301510152610d56610260820151611287565b9594939291908615156102a08a01526102808901526102408801526102208701526102608601526102008501526101e0840152610d91575090565b61012081015160e08201516101009092015191906001600160a01b0316610db661069c565b506102608401516020610280860151602460405180958193637bd4bc1f60e11b835260048301525afa918215610baf57600092610f2b575b5091610e98610e8d610e73610ee396610eab95610ec5976102e06102c08c6101e08101516102008201511091829101528c6102208101516102408201511092839101528080610f24575b15610ef9575050610e6091808210600014610ef257505b60408b01516101208c01519161145a565b9691906101208c015260408b015261075b565b610e8760408901516101208a01519061077e565b9061075b565b61012087015161077e565b610120860152845160e08601519161145a565b919060e0860152845260608401516101408501519161145a565b9190610140850152606084015260208301516101008401519161145a565b50610100830152602082015290565b9050610e4f565b15610f095750610e609150610e4f565b159050610f1957610e6090610e4f565b50610e606000610e4f565b5081610e38565b9150916020823d602011610f5b575b81610f4760209383610620565b810103126104c15790519091610e98610dee565b3d9150610f3a565b600060c083018051610f7b6101a0860191825161077e565b905252610cd9565b600060a083018051610f9b610180860191825161077e565b905252610cc9565b6080820151610fb8610160840191825161077e565b905260006080830152610cb9565b61012081015160405163541d766760e01b815260048082015290602090829060249082906001600160a01b03165afa908115610baf5760009161100f575b5060c0830152610ca9565b90506020813d602011611039575b8161102a60209383610620565b810103126104c1575138611004565b3d915061101d565b506101e081015115610ca4565b61012081015160405163541d766760e01b81526002600482015290602090829060249082906001600160a01b03165afa908115610baf57600091611098575b5060a0830152610c95565b90506020813d6020116110c2575b816110b360209383610620565b810103126104c157513861108d565b3d91506110a6565b506101c081015115610c90565b6110e09161075b565b610c7c565b90506020813d60201161110f575b8161110060209383610620565b810103126104c1575138610c54565b3d91506110f3565b80606060809201516000811360001461114f575b604085015201516000811315611147575b610120830152610c0e565b50600061113c565b50600061112b565b9091506102a03d6102a0116111fd575b6111718183610620565b6102a08282810103126104c157808201601f830112156104c1576040519161119883610605565b82916102a082019181810183116104c15780935b8385106111bf5750505050509038610818565b60608584840103126104c15760206060916040516111dc816105ce565b875181528288015183820152604088015160408201528152019401936111ac565b503d611167565b60001981146107685760010190565b906007811015610b1e5760051b0190565b906008811015610b1e5760051b0190565b9190916000838201938412911290801582169115161761076857565b818102929160008212600160ff1b82141661076857818405149015171561076857565b8181029291811591840414171561076857565b60009160009081928280928192826101408201516113de575b6101608201516112c0575b505085871180156112b95790565b5082841190565b9350935090506112e86112dc608085015160a08601519061077e565b61012085015190611274565b9160e084019384518151611302602084019182519061077e565b156113d15761132560209160018060a01b0361018086015116945190519061077e565b602460405180958193634205de0f60e11b835260048301525afa80156113c657839061138d575b61135792509061077e565b93838511156113865783905b51908181111561137f57611377925061075b565b9038806112ab565b5050611377565b8490611363565b50906020813d82116113be575b816113a760209383610620565b810103126113ba5790611357915161134c565b8280fd5b3d915061139a565b6040513d85823e3d90fd5b506113579150829061077e565b9550965094506114066113fa604088015160608901519061077e565b61010088015190611274565b9460c087019661142761141c895183519061077e565b60208301519061077e565b97878911156114535787905b518082111561144b576114459161075b565b956112a0565b505085611445565b8890611433565b919290821561149a5761148361148861148e9280861160001461149157809283915b829861077e565b61075b565b9361075b565b90565b8592839161147c565b90926114a6925061077e565b600091829056fea26469706673582212205423c9df63404c2bf53488ba611ad5b208795d302d28658352739732f665764f64736f6c63430008140033","linkReferences":{}},"methodIdentifiers":{"capStatusView(InstanceLib.CapInput)":"0156e6b8","compute(InstanceLib.ComputeInput)":"94e6d3bb"},"id":77}