{"abi":[{"type":"constructor","inputs":[{"name":"_contractName","type":"string","internalType":"string"},{"name":"baseURI_","type":"string","internalType":"string"},{"name":"_supply","type":"uint256","internalType":"uint256"},{"name":"_names","type":"string[]","internalType":"string[]"},{"name":"_hex","type":"address","internalType":"address"}],"stateMutability":"nonpayable"},{"type":"fallback","stateMutability":"payable"},{"type":"receive","stateMutability":"payable"},{"type":"function","name":"Burn","inputs":[{"name":"amount","type":"uint256","internalType":"uint256"}],"outputs":[],"stateMutability":"nonpayable"},{"type":"function","name":"_delegatorCount","inputs":[],"outputs":[{"name":"","type":"uint256","internalType":"uint256"}],"stateMutability":"view"},{"type":"function","name":"_getImplementation","inputs":[{"name":"clone","type":"address","internalType":"address"}],"outputs":[{"name":"impl","type":"address","internalType":"address"}],"stateMutability":"view"},{"type":"function","name":"_isDelegatorNode","inputs":[{"name":"sender","type":"address","internalType":"address"}],"outputs":[{"name":"","type":"bool","internalType":"bool"}],"stateMutability":"view"},{"type":"function","name":"_isSafe","inputs":[],"outputs":[{"name":"","type":"bool","internalType":"bool"}],"stateMutability":"view"},{"type":"function","name":"_isSecureBase","inputs":[{"name":"sender","type":"address","internalType":"address"}],"outputs":[{"name":"","type":"bool","internalType":"bool"}],"stateMutability":"view"},{"type":"function","name":"_isSigner","inputs":[{"name":"sender","type":"address","internalType":"address"}],"outputs":[{"name":"","type":"bool","internalType":"bool"}],"stateMutability":"view"},{"type":"function","name":"_uri","inputs":[],"outputs":[{"name":"","type":"string","internalType":"string"}],"stateMutability":"view"},{"type":"function","name":"addToken","inputs":[{"name":"_names","type":"string[]","internalType":"string[]"}],"outputs":[],"stateMutability":"nonpayable"},{"type":"function","name":"balanceOf","inputs":[{"name":"account","type":"address","internalType":"address"},{"name":"id","type":"uint256","internalType":"uint256"}],"outputs":[{"name":"","type":"uint256","internalType":"uint256"}],"stateMutability":"view"},{"type":"function","name":"balanceOfBatch","inputs":[{"name":"accounts","type":"address[]","internalType":"address[]"},{"name":"ids","type":"uint256[]","internalType":"uint256[]"}],"outputs":[{"name":"","type":"uint256[]","internalType":"uint256[]"}],"stateMutability":"view"},{"type":"function","name":"claimed","inputs":[],"outputs":[{"name":"","type":"uint256","internalType":"uint256"}],"stateMutability":"view"},{"type":"function","name":"clonedOf","inputs":[],"outputs":[{"name":"","type":"address","internalType":"address"}],"stateMutability":"view"},{"type":"function","name":"curSupply","inputs":[],"outputs":[{"name":"","type":"uint256","internalType":"uint256"}],"stateMutability":"view"},{"type":"function","name":"getBalance","inputs":[],"outputs":[{"name":"","type":"uint256","internalType":"uint256"}],"stateMutability":"view"},{"type":"function","name":"getHexbase","inputs":[],"outputs":[{"name":"","type":"address","internalType":"address"}],"stateMutability":"view"},{"type":"function","name":"getNames","inputs":[{"name":"inx","type":"uint256","internalType":"uint256"}],"outputs":[{"name":"","type":"string","internalType":"string"}],"stateMutability":"view"},{"type":"function","name":"getTokenCount","inputs":[],"outputs":[{"name":"","type":"uint256","internalType":"uint256"}],"stateMutability":"view"},{"type":"function","name":"getUnlockedNFT","inputs":[],"outputs":[{"name":"_NFT","type":"uint256","internalType":"uint256"}],"stateMutability":"view"},{"type":"function","name":"ids","inputs":[{"name":"","type":"uint256","internalType":"uint256"}],"outputs":[{"name":"","type":"uint256","internalType":"uint256"}],"stateMutability":"view"},{"type":"function","name":"isApprovedForAll","inputs":[{"name":"account","type":"address","internalType":"address"},{"name":"operator","type":"address","internalType":"address"}],"outputs":[{"name":"","type":"bool","internalType":"bool"}],"stateMutability":"view"},{"type":"function","name":"isSecuredNFT","inputs":[{"name":"orc1155","type":"address","internalType":"address"}],"outputs":[{"name":"","type":"bool","internalType":"bool"}],"stateMutability":"view"},{"type":"function","name":"lastTransferDay","inputs":[],"outputs":[{"name":"","type":"uint256","internalType":"uint256"}],"stateMutability":"view"},{"type":"function","name":"mintedAge","inputs":[],"outputs":[{"name":"","type":"uint256","internalType":"uint256"}],"stateMutability":"view"},{"type":"function","name":"mintedUser","inputs":[],"outputs":[{"name":"","type":"address","internalType":"address"}],"stateMutability":"view"},{"type":"function","name":"mintedfee","inputs":[],"outputs":[{"name":"","type":"uint256","internalType":"uint256"}],"stateMutability":"view"},{"type":"function","name":"mintedqty","inputs":[],"outputs":[{"name":"","type":"uint256","internalType":"uint256"}],"stateMutability":"view"},{"type":"function","name":"name","inputs":[],"outputs":[{"name":"","type":"string","internalType":"string"}],"stateMutability":"view"},{"type":"function","name":"names","inputs":[{"name":"","type":"uint256","internalType":"uint256"}],"outputs":[{"name":"","type":"string","internalType":"string"}],"stateMutability":"view"},{"type":"function","name":"onTokenImport","inputs":[{"name":"_to","type":"address","internalType":"address"},{"name":"payload","type":"bytes","internalType":"bytes"}],"outputs":[],"stateMutability":"nonpayable"},{"type":"function","name":"onTokenTransfer","inputs":[{"name":"_from","type":"address","internalType":"address"},{"name":"_to","type":"address","internalType":"address"},{"name":"_id","type":"uint256","internalType":"uint256"},{"name":"_qty","type":"uint256","internalType":"uint256"},{"name":"_byforce","type":"bool","internalType":"bool"},{"name":"payload","type":"bytes","internalType":"bytes"}],"outputs":[],"stateMutability":"nonpayable"},{"type":"function","name":"owner","inputs":[],"outputs":[{"name":"","type":"address","internalType":"address"}],"stateMutability":"view"},{"type":"function","name":"postinit","inputs":[{"name":"_contractName","type":"string","internalType":"string"},{"name":"baseURI_","type":"string","internalType":"string"},{"name":"_nName","type":"string","internalType":"string"},{"name":"_nid","type":"uint256","internalType":"uint256"},{"name":"_account","type":"address","internalType":"address"},{"name":"_qty","type":"uint256","internalType":"uint256"},{"name":"_fee","type":"uint256","internalType":"uint256"},{"name":"_ag","type":"uint256","internalType":"uint256"},{"name":"_hex","type":"address","internalType":"address"}],"outputs":[],"stateMutability":"payable"},{"type":"function","name":"preinit","inputs":[{"name":"_account","type":"address","internalType":"address"},{"name":"_id","type":"uint256","internalType":"uint256"},{"name":"_qty","type":"uint256","internalType":"uint256"},{"name":"_fee","type":"uint256","internalType":"uint256"},{"name":"_ag","type":"uint256","internalType":"uint256"}],"outputs":[{"name":"","type":"address","internalType":"address"}],"stateMutability":"payable"},{"type":"function","name":"safeBatchTransferFrom","inputs":[{"name":"from","type":"address","internalType":"address"},{"name":"to","type":"address","internalType":"address"},{"name":"ids","type":"uint256[]","internalType":"uint256[]"},{"name":"values","type":"uint256[]","internalType":"uint256[]"},{"name":"data","type":"bytes","internalType":"bytes"}],"outputs":[],"stateMutability":"nonpayable"},{"type":"function","name":"safeTransferFrom","inputs":[{"name":"from","type":"address","internalType":"address"},{"name":"to","type":"address","internalType":"address"},{"name":"id","type":"uint256","internalType":"uint256"},{"name":"value","type":"uint256","internalType":"uint256"},{"name":"data","type":"bytes","internalType":"bytes"}],"outputs":[],"stateMutability":"nonpayable"},{"type":"function","name":"setApprovalForAll","inputs":[{"name":"operator","type":"address","internalType":"address"},{"name":"approved","type":"bool","internalType":"bool"}],"outputs":[],"stateMutability":"nonpayable"},{"type":"function","name":"setURI","inputs":[{"name":"newuri","type":"string","internalType":"string"}],"outputs":[],"stateMutability":"nonpayable"},{"type":"function","name":"setcurSupply","inputs":[{"name":"_s","type":"uint256","internalType":"uint256"}],"outputs":[],"stateMutability":"nonpayable"},{"type":"function","name":"setsupply","inputs":[{"name":"_s","type":"uint256","internalType":"uint256"}],"outputs":[],"stateMutability":"nonpayable"},{"type":"function","name":"supportsInterface","inputs":[{"name":"interfaceId","type":"bytes4","internalType":"bytes4"}],"outputs":[{"name":"","type":"bool","internalType":"bool"}],"stateMutability":"view"},{"type":"function","name":"systemAge","inputs":[],"outputs":[{"name":"","type":"uint256","internalType":"uint256"}],"stateMutability":"view"},{"type":"function","name":"totSupply","inputs":[],"outputs":[{"name":"","type":"uint256","internalType":"uint256"}],"stateMutability":"view"},{"type":"function","name":"totalNFTSent","inputs":[],"outputs":[{"name":"","type":"uint256","internalType":"uint256"}],"stateMutability":"view"},{"type":"function","name":"uri","inputs":[{"name":"_tokenid","type":"uint256","internalType":"uint256"}],"outputs":[{"name":"","type":"string","internalType":"string"}],"stateMutability":"view"},{"type":"event","name":"ApprovalForAll","inputs":[{"name":"account","type":"address","indexed":true,"internalType":"address"},{"name":"operator","type":"address","indexed":true,"internalType":"address"},{"name":"approved","type":"bool","indexed":false,"internalType":"bool"}],"anonymous":false},{"type":"event","name":"EthBurned","inputs":[{"name":"sender","type":"address","indexed":true,"internalType":"address"},{"name":"amount","type":"uint256","indexed":false,"internalType":"uint256"}],"anonymous":false},{"type":"event","name":"EthTransferred","inputs":[{"name":"to","type":"address","indexed":true,"internalType":"address"},{"name":"amount","type":"uint256","indexed":false,"internalType":"uint256"}],"anonymous":false},{"type":"event","name":"HexBaseUpdated","inputs":[{"name":"previousHexBase","type":"address","indexed":true,"internalType":"address"},{"name":"newHexBase","type":"address","indexed":true,"internalType":"address"}],"anonymous":false},{"type":"event","name":"OwnerUpdated","inputs":[{"name":"previousOwner","type":"address","indexed":true,"internalType":"address"},{"name":"newOwner","type":"address","indexed":true,"internalType":"address"}],"anonymous":false},{"type":"event","name":"TransferBatch","inputs":[{"name":"operator","type":"address","indexed":true,"internalType":"address"},{"name":"from","type":"address","indexed":true,"internalType":"address"},{"name":"to","type":"address","indexed":true,"internalType":"address"},{"name":"ids","type":"uint256[]","indexed":false,"internalType":"uint256[]"},{"name":"values","type":"uint256[]","indexed":false,"internalType":"uint256[]"}],"anonymous":false},{"type":"event","name":"TransferSingle","inputs":[{"name":"operator","type":"address","indexed":true,"internalType":"address"},{"name":"from","type":"address","indexed":true,"internalType":"address"},{"name":"to","type":"address","indexed":true,"internalType":"address"},{"name":"id","type":"uint256","indexed":false,"internalType":"uint256"},{"name":"value","type":"uint256","indexed":false,"internalType":"uint256"}],"anonymous":false},{"type":"event","name":"URI","inputs":[{"name":"value","type":"string","indexed":false,"internalType":"string"},{"name":"id","type":"uint256","indexed":true,"internalType":"uint256"}],"anonymous":false},{"type":"error","name":"ERC1155InsufficientBalance","inputs":[{"name":"sender","type":"address","internalType":"address"},{"name":"balance","type":"uint256","internalType":"uint256"},{"name":"needed","type":"uint256","internalType":"uint256"},{"name":"tokenId","type":"uint256","internalType":"uint256"}]},{"type":"error","name":"ERC1155InvalidApprover","inputs":[{"name":"approver","type":"address","internalType":"address"}]},{"type":"error","name":"ERC1155InvalidArrayLength","inputs":[{"name":"idsLength","type":"uint256","internalType":"uint256"},{"name":"valuesLength","type":"uint256","internalType":"uint256"}]},{"type":"error","name":"ERC1155InvalidOperator","inputs":[{"name":"operator","type":"address","internalType":"address"}]},{"type":"error","name":"ERC1155InvalidReceiver","inputs":[{"name":"receiver","type":"address","internalType":"address"}]},{"type":"error","name":"ERC1155InvalidSender","inputs":[{"name":"sender","type":"address","internalType":"address"}]},{"type":"error","name":"ERC1155MissingApprovalForAll","inputs":[{"name":"operator","type":"address","internalType":"address"},{"name":"owner","type":"address","internalType":"address"}]},{"type":"error","name":"FailedDeployment","inputs":[]},{"type":"error","name":"InsufficientBalance","inputs":[{"name":"balance","type":"uint256","internalType":"uint256"},{"name":"needed","type":"uint256","internalType":"uint256"}]},{"type":"error","name":"ReentrancyGuardReentrantCall","inputs":[]},{"type":"error","name":"TargetCallFailed","inputs":[{"name":"selector","type":"bytes4","internalType":"bytes4"}]}],"bytecode":{"object":"0x6080604052346200068f5762004e15803803806200001d81620006bd565b92833981019060a0818303126200068f5780516001600160401b0391908281116200068f578362000050918301620006e3565b926020808301518481116200068f57826200006d918501620006e3565b93604084015160608501518281116200068f57850194601f908582880112156200068f57865195848711620006795760059787891b8780620000b1818401620006bd565b809b81520191830101928084116200068f57888301915b84831062000694575050505050608001519460018060a01b0386168096036200068f57875184811162000679576002546001998a82811c921680156200066e575b888310146200065857818584931162000603575b50879085831160011462000599576000926200058d575b5050600019600383901b1c191690891b176002555b8515620005485760018060a01b03199260049633858954161788556003948554161784558860065560b4601055895185811162000533576009548a81811c9116801562000528575b888210146200051357848111620004c9575b50868482116001146200045b5781908b9c60009c9b9c926200044f575b505060001982871b1c191690891b176009559697965b6011556000985b620001f3575b6040516146bf9081620007568239f35b80518910156200044957600880548981019081811162000434576801000000000000000092838210156200041f57828155828210156200040a5760005287600020015581518a1015620003f557858a891b83010151906007805491821015620003cb578a8201808255821015620003e057600052866000200190805190868211620003cb5782548b81811c91168015620003c0575b89821014620003ab5785811162000362575b508790858311600114620002fb576000919083620002ef575b505060001982871b1c1916908a1b1790555b6000198914620002da579787019787620001dd565b601186634e487b7160e01b6000525260246000fd5b015190503880620002b3565b90601f1983169184600052896000209260005b8181106200034c575090848e959493921062000333575b505050811b019055620002c5565b015160001983891b60f8161c1916905538808062000325565b828401518555938e0193928b01928b016200030e565b8360005288600020868085018d1c8201928b8610620003a1575b018c1c01908c905b828110620003945750506200029a565b60008155018c9062000384565b925081926200037c565b60228a634e487b7160e01b6000525260246000fd5b90607f169062000288565b604189634e487b7160e01b6000525260246000fd5b603289634e487b7160e01b6000525260246000fd5b603287634e487b7160e01b6000525260246000fd5b60328a634e487b7160e01b6000525260246000fd5b60418a634e487b7160e01b6000525260246000fd5b601189634e487b7160e01b6000525260246000fd5b620001e3565b015190503880620001c0565b601f1982169b6009600052886000209c60005b818110620004b35750918c9d91848e9d9e9594106200049a575b505050811b01600955979697620001d6565b015160001983891b60f8161c1916905538808062000488565b828401518f559d8d019d928a01928a016200046e565b600960005287600020858084018c1c8201928a851062000509575b018b1c01908b905b828110620004fc575050620001a3565b60008155018b90620004ec565b92508192620004e4565b602289634e487b7160e01b6000525260246000fd5b90607f169062000191565b604188634e487b7160e01b6000525260246000fd5b60405162461bcd60e51b815260048101869052601360248201527f6f776e2e696e76616c69642e68657862617365000000000000000000000000006044820152606490fd5b01519050388062000134565b908b9350601f198316916002600052896000209260005b8b828210620005ec5750508411620005d2575b505050811b0160025562000149565b015160001960f88460031b161c19169055388080620005c3565b8385015186558f97909501949384019301620005b0565b909150600260005287600020858085018c1c8201928a86106200064e575b918d9186959493018d1c01915b8281106200063e5750506200011d565b600081558594508d91016200062e565b9250819262000621565b634e487b7160e01b600052602260045260246000fd5b91607f169162000109565b634e487b7160e01b600052604160045260246000fd5b600080fd5b82518981116200068f578a91620006b184848094890101620006e3565b815201920191620000c8565b6040519190601f01601f191682016001600160401b038111838210176200067957604052565b919080601f840112156200068f5782516001600160401b038111620006795760209062000719601f8201601f19168301620006bd565b928184528282870101116200068f5760005b8181106200074157508260009394955001015290565b85810183015184820184015282016200072b56fe60806040526004361015610018575b361561001657005b005b60003560e01c8062fdd58e146102e757806301ffc9a7146102e257806302fe5305146102dd57806306eb36db146102d857806306fdde03146102d35780630dccc9ad146102ce5780630e89341c146102c957806312065fe0146102c457806318dcfd71146102bf5780631f185d16146102ba5780632796f7c6146102b55780632defa859146102b05780632eb2c2d6146102ab5780633b9b7955146102a65780634622ab03146102a15780634e1273f41461029c5780635718e17b146102975780635fac2d9d146102925780636c51797b1461028d57806378a89567146102885780637eb1a7381461028357806381fbf0a51461027e5780638da5cb5b14610279578063a1f7f53914610274578063a22cb4651461026f578063abbbf8d71461026a578063af48452614610265578063b505c66d14610260578063b90306ad1461025b578063c3c916d914610256578063c54e44b014610251578063c85700fb1461024c578063d878fe1014610247578063e01ad5fd14610242578063e0a9bc2b1461023d578063e834a83414610238578063e985e9c514610233578063edd38c011461022e578063f242432a14610229578063f356eedb14610224578063f526f68a1461021f578063f9ffedb71461021a578063fac333ac14610215578063fcf56368146102105763fdc10bc90361000e57611c7b565b611c54565b611c03565b611be5565b611aaf565b611a91565b6119bf565b611970565b611906565b6118e8565b6118cd565b611833565b6117db565b6116ea565b6116b2565b611694565b61157d565b6114f0565b6114bf565b61141f565b61134b565b61128d565b611266565b611248565b611106565b6110de565b6110c0565b6110a2565b611051565b610f95565b610eeb565b610e3e565b610d01565b610c64565b610c0c565b610afc565b610ade565b610ac2565b61090b565b610864565b610783565b6105b7565b610508565b610376565b610312565b6001600160a01b038116036102fd57565b600080fd5b6101043590610310826102ec565b565b346102fd5760403660031901126102fd57602061035b600435610334816102ec565b602435600052600083526040600020906001600160a01b0316600052602052604060002090565b54604051908152f35b6001600160e01b03198116036102fd57565b346102fd5760203660031901126102fd5760206001600160e01b031960043561039e81610364565b167fd9b67a26000000000000000000000000000000000000000000000000000000008114908115610406575b81156103dc575b506040519015158152f35b7f01ffc9a700000000000000000000000000000000000000000000000000000000915014386103d1565b7f0e89341c00000000000000000000000000000000000000000000000000000000811491506103ca565b634e487b7160e01b600052604160045260246000fd5b6040810190811067ffffffffffffffff82111761046257604052565b610430565b6020810190811067ffffffffffffffff82111761046257604052565b90601f8019910116810190811067ffffffffffffffff82111761046257604052565b67ffffffffffffffff811161046257601f01601f191660200190565b81601f820112156102fd578035906104d8826104a5565b926104e66040519485610483565b828452602083830101116102fd57816000926020809301838601378301015290565b346102fd5760203660031901126102fd5760043567ffffffffffffffff81116102fd576105399036906004016104c1565b6001600160a01b039060046020836003541660405192838092630536340960e21b82525afa80156105b2576100169361057d92600092610582575b501633146124de565b61283a565b6105a491925060203d81116105ab575b61059c8183610483565b8101906124c9565b9038610574565b503d610592565b6121fb565b346102fd5760003660031901126102fd5760046105d26141bd565b60206001600160a01b03600354166040519384809263cfbffe5360e01b82525afa80156105b25761060b9260009161062b575b5061359d565b600f54810390811161062657604051908152602090f35b0390f35b611ccb565b610643915060203d81116105ab5761059c8183610483565b38610605565b90600182811c92168015610679575b602083101461066357565b634e487b7160e01b600052602260045260246000fd5b91607f1691610658565b906040519182600082549261069784610649565b90818452600194858116908160001461070457506001146106c1575b505061031092500383610483565b9093915060005260209081600020936000915b8183106106ec575050610310935082010138806106b3565b855488840185015294850194879450918301916106d4565b91505061031094506020925060ff191682840152151560051b82010138806106b3565b60005b83811061073a5750506000910152565b818101518382015260200161072a565b9060209161076381518092818552858086019101610727565b601f01601f1916010190565b90602061078092818152019061074a565b90565b346102fd576000806003193601126108615760405190806009546107a681610649565b8085529160019180831690811561083757506001146107dc575b610622856107d081870382610483565b6040519182918261076f565b9250600983527f6e1540171b6c0c960b71a7020d9f60077f6af931a8bbf590da0223dacf75c7af5b82841061081f5750505081016020016107d0826106226107c0565b80546020858701810191909152909301928101610804565b869550610622969350602092506107d094915060ff191682840152151560051b82010192936107c0565b80fd5b346102fd5760008060031936011261086157604051908060025461088781610649565b8085529160019180831690811561083757506001146108b057610622856107d081870382610483565b9250600283527f405787fa12a823e0f2b7631cc41b3ba8828b3321ca811111fa75cd3aa3bb5ace5b8284106108f35750505081016020016107d0826106226107c0565b805460208587018101919091529093019281016108d8565b346102fd5760203660031901126102fd576000600435807a184f03e93ff9f4daa797ed6e38ed64bf6a1f01000000000000000080821015610ab4575b506d04ee2d6d415b85acef810000000080831015610aa5575b50662386f26fc1000080831015610a96575b506305f5e10080831015610a87575b5061271080831015610a78575b506064821015610a68575b600a80921015610a5e575b6001908160216109b58287016125cf565b95860101905b610a1b575b604051610622906107d081610a0d6109e48a6109de60208501612529565b906125b8565b7f2e6a736f6e000000000000000000000000000000000000000000000000000000815260050190565b03601f198101835282610483565b600019019083907f30313233343536373839616263646566000000000000000000000000000000008282061a835304918215610a59579190826109bb565b6109c0565b91600101916109a4565b9190606460029104910191610999565b6004919392049101913861098e565b60089193920491019138610981565b60109193920491019138610972565b60209193920491019138610960565b604093508104915038610947565b346102fd5760003660031901126102fd57602047604051908152f35b346102fd5760003660031901126102fd576020601354604051908152f35b346102fd576020806003193601126102fd57600490813590610b1d826102ec565b80610b3f610b336003546001600160a01b031690565b6001600160a01b031690565b60405194858092634bf9c0ad60e11b82525afa9182156105b257610b93610bcd93610baf9261062296600092610be9575b50610ba1906040519384918783019190916001600160a01b036020820193169052565b03601f198101845283610483565b610ba9614139565b906143b6565b919080610bdf575b610bc090614172565b8082518301019101613879565b60405190151581529081906020820190565b5081518114610bb7565b610ba1919250610c0590863d88116105ab5761059c8183610483565b9190610b70565b346102fd5760203660031901126102fd5760046001600160a01b036020816003541660405193848092630536340960e21b82525afa9081156105b257610c5c9260009261058257501633146124de565b600435601255005b346102fd5760003660031901126102fd5760206001600160a01b03600a5416604051908152f35b67ffffffffffffffff81116104625760051b60200190565b81601f820112156102fd57803591610cba83610c8b565b92610cc86040519485610483565b808452602092838086019260051b8201019283116102fd578301905b828210610cf2575050505090565b81358152908301908301610ce4565b346102fd5760a03660031901126102fd5760048035610d1f816102ec565b602435610d2b816102ec565b67ffffffffffffffff906044358281116102fd57610d4c9036908601610ca3565b906064358381116102fd57610d649036908701610ca3565b926084359081116102fd57610d7c90369087016104c1565b936001600160a01b03808216903382141580610e09575b610ddc57831615610dc45715610dad576100169550611e53565b602486600060405191626a0d4560e21b8352820152fd5b602487600060405191632bfa23e760e11b8352820152fd5b6040805163711bec9160e11b815233818b019081526001600160a01b038616602082015290918291010390fd5b5081600052600160205260ff610e36336040600020906001600160a01b0316600052602052604060002090565b541615610d93565b346102fd5760003660031901126102fd5760206001600160a01b0360035416604051908152f35b634e487b7160e01b600052603260045260246000fd5b600754811015610eb25760076000527fa66cc928b5edb82af9bd49922954155ab7b0942694bea4ce44661d9a8736c6880190600090565b610e65565b60085415610eb25760086000527ff3f7a9fe364faab93b216da50a3214154f22a0a2b415b23a84c8169e8b636ee390600090565b346102fd5760203660031901126102fd576004356007548110156102fd57610f3c6106229160076000527fa66cc928b5edb82af9bd49922954155ab7b0942694bea4ce44661d9a8736c68801610683565b60405191829160208352602083019061074a565b90815180825260208080930193019160005b828110610f70575050505090565b835185529381019392810192600101610f62565b906020610780928181520190610f50565b346102fd5760403660031901126102fd5760043567ffffffffffffffff8082116102fd57366023830112156102fd578160040135610fd281610c8b565b92610fe06040519485610483565b81845260209160248386019160051b830101913683116102fd57602401905b82821061103857856024358681116102fd576106229161102661102c923690600401610ca3565b90611d11565b60405191829182610f84565b8380918335611046816102ec565b815201910190610fff565b346102fd5760203660031901126102fd57600435600754811015610eb257610f3c6106229160076000527fa66cc928b5edb82af9bd49922954155ab7b0942694bea4ce44661d9a8736c68801610683565b346102fd5760003660031901126102fd576020601254604051908152f35b346102fd5760003660031901126102fd576020600c54604051908152f35b346102fd5760003660031901126102fd576020600854604051908152f35b801515036102fd57565b346102fd5760c03660031901126102fd57600435611123816102ec565b60243561112f816102ec565b6044356064359060843592611143846110fc565b60a43567ffffffffffffffff81116102fd576111639036906004016104c1565b936111856001600160a01b0361117c8185161515612bab565b87161515612bab565b1561123f5760049460206111a4610b336003546001600160a01b031690565b6040519788809263cfbffe5360e01b82525afa9586156105b2576111fb6111ec6112129861120d93600091611221575b506111dd61347e565b906111e6613840565b9061438b565b60208082518301019101613879565b60ff8019601554169115151617601555565b61388e565b61001660ff1960155416601555565b611239915060203d81116105ab5761059c8183610483565b386111d4565b6100169461388e565b346102fd5760003660031901126102fd576020601154604051908152f35b346102fd5760003660031901126102fd5760206001600160a01b0360045416604051908152f35b346102fd5760003660031901126102fd57600460206001600160a01b03600354166040519283809263d1f956b160e01b82525afa9081156105b2576106229161131d9160009161132d575b506040516112e581610446565b601381527f67657464656c656761746f72436f756e742829000000000000000000000000006020820152611317612207565b916144c1565b6040519081529081906020820190565b611345915060203d81116105ab5761059c8183610483565b386112d8565b346102fd5760403660031901126102fd57600435611368816102ec565b602435611374816110fc565b6001600160a01b0382169182156113ee576113af903360005260016020526040600020906001600160a01b0316600052602052604060002090565b9015159060ff1981541660ff83161790556040519081527f17307eab39ab6107e8899845ad3d59bd9653f200f220920489ca2b5937696c3160203392a3005b60246040517fced3e10000000000000000000000000000000000000000000000000000000000815260006004820152fd5b346102fd576020806003193601126102fd5767ffffffffffffffff6004358181116102fd57366023820112156102fd57806004013561145d81610c8b565b9261146b6040519485610483565b818452848401906024809360051b850101933685116102fd57838101925b8584106114995761001687612621565b83358381116102fd5788916114b483928836918701016104c1565b815201930192611489565b346102fd5760203660031901126102fd5760206114e66004356114e1816102ec565b614086565b6040519015158152f35b6101203660031901126102fd5767ffffffffffffffff6004358181116102fd5761151e9036906004016104c1565b6024358281116102fd576115369036906004016104c1565b906044359283116102fd576115526100169336906004016104c1565b6084359261155f846102ec565b611567610302565b9360e4359360c4359360a435936064359261302b565b346102fd576020806003193601126102fd57600435906001600160a01b0380600354169060405191630536340960e21b83528383600481845afa9283156105b25760049385936115d79260009261167c57501633146124de565b604051928380927f46f991ac0000000000000000000000000000000000000000000000000000000082525afa9182156105b2576000808561162f9582958395849261165f575b50505af161162961221a565b50614340565b60405190815233907fcdcc745fe377b103b45fa0cec23ae3ef93d6fc6a84a01f0d18c40b354dd1d5d890602090a2005b6116759250803d106105ab5761059c8183610483565b388061161d565b6105a4919250853d87116105ab5761059c8183610483565b346102fd5760003660031901126102fd576020601454604051908152f35b346102fd5760203660031901126102fd5760206116d96004356116d4816102ec565b61460e565b6001600160a01b0360405191168152f35b60a03660031901126102fd5760048035611703816102ec565b602061171a610b336003546001600160a01b031690565b6040519384809263ab6e844f60e01b82525afa9081156105b25761178e6117a392610622946000916117bd575b506001600160a01b0361178760405161177781610a0d88602083019190916001600160a01b036020820193169052565b3393611781612b27565b90614434565b1614612b60565b60843590606435906044359060243590612bf6565b6040516001600160a01b0390911681529081906020820190565b6117d5915060203d81116105ab5761059c8183610483565b38611747565b346102fd5760203660031901126102fd5760046001600160a01b036020816003541660405193848092630536340960e21b82525afa9081156105b25761182b9260009261058257501633146124de565b600435601155005b346102fd576020806003193601126102fd5760048035611852816102ec565b6001600160a01b03928084600354166040519485809263d1f956b160e01b82525afa9081156105b25761062294610bcd946000936118ae575b5060405193168184015282526118a082610446565b6118a8614276565b90614485565b6118c6919350823d84116105ab5761059c8183610483565b913861188b565b346102fd5760003660031901126102fd5760206114e6613f42565b346102fd5760003660031901126102fd576020600f54604051908152f35b346102fd5760403660031901126102fd57602060ff61196460043561192a816102ec565b6001600160a01b036024359161193f836102ec565b16600052600184526040600020906001600160a01b0316600052602052604060002090565b54166040519015158152f35b346102fd5760203660031901126102fd5760206119926004356116d4816102ec565b6001600160a01b038116151590816119af57506040519015158152f35b6119b99150614086565b386103d1565b346102fd5760a03660031901126102fd576004356119dc816102ec565b6024356119e8816102ec565b60843567ffffffffffffffff81116102fd57611a089036906004016104c1565b906001600160a01b038316338114159081611a5b575b50611a3457610016926064359160443591611dd5565b60405163711bec9160e11b81523360048201526001600160a01b0384166024820152604490fd5b9050600052600160205260ff611a88336040600020906001600160a01b0316600052602052604060002090565b54161538611a1e565b346102fd5760003660031901126102fd576020600d54604051908152f35b346102fd5760403660031901126102fd57600435611acc816102ec565b60243567ffffffffffffffff81116102fd57611aec9036906004016104c1565b6001600160a01b0391611b028382161515612bab565b611b0a613f42565b15611ba157611b1833614086565b928315611b32575b50611b2d61001693613720565b61376b565b925060046020611b4d610b336003546001600160a01b031690565b60405192838092630536340960e21b82525afa80156105b25761001694611b2d92600092611b81575b501633149350611b20565b611b9a91925060203d81116105ab5761059c8183610483565b9038611b76565b606460405162461bcd60e51b815260206004820152601260248201527f6f776e2e696e76616c69642e69735361666500000000000000000000000000006044820152fd5b346102fd5760003660031901126102fd576020600e54604051908152f35b346102fd5760203660031901126102fd576004356008548110156102fd5760209060086000527ff3f7a9fe364faab93b216da50a3214154f22a0a2b415b23a84c8169e8b636ee30154604051908152f35b346102fd5760003660031901126102fd5760206001600160a01b03600b5416604051908152f35b346102fd5760003660031901126102fd576020611c966141bd565b604051908152f35b611cc79160005260006020526040600020906001600160a01b0316600052602052604060002090565b5490565b634e487b7160e01b600052601160045260246000fd5b60001981146106265760010190565b805115610eb25760200190565b8051821015610eb25760209160051b010190565b91909180518351808203611d9a575050805190611d2d82610c8b565b91611d3b6040519384610483565b808352611d4a601f1991610c8b565b0190602091368385013760005b8151811015611d925780611d7d611d8d9260051b85808287010151918a01015190611c9e565b611d878287611cfd565b52611ce1565b611d57565b509193505050565b6040517f5b05999100000000000000000000000000000000000000000000000000000000815260048101919091526024810191909152604490fd5b90919392936001600160a01b0380841615611e3b57821615611e245761031094611e1c60405192600184526020840152604083019160018352606084015260808301604052565b929091611e53565b6024604051626a0d4560e21b815260006004820152fd5b6024604051632bfa23e760e11b815260006004820152fd5b91939290611e646001865114613a5b565b6001600160a01b038084168015159081612160575b50611ed0575b611e8b83878487613ca2565b8116611e99575b5050505050565b8451600103611ebf57602080611eb59601519201519233612344565b3880808080611e92565b611ecb94919233612492565b611eb5565b600c54600f54809111611ee4575b50611e7f565b611ef7611ef360155460ff1690565b1590565b156121445750611f12610b336003546001600160a01b031690565b6040519063ab6e844f60e01b82526020918281600481855afa80156105b257611ef3611f75610b93611fa793611fac95600091612127575b50611f6d8c6040519384918b83019190916001600160a01b036020820193169052565b611781612b27565b611f828782161515613aa6565b611f96611f8e8a611cf0565b511515613af1565b611f9e61347e565b906118a8613b3c565b613b75565b600482611fb76141bd565b926040519283809263cfbffe5360e01b82525afa9081156105b25761207f9360009261210a575b5050612001611fed838361359d565b611ff8811515613bc0565b600f5490612d16565b9161204161203961202161201361347e565b61201b613c0b565b866144c1565b9361202a61347e565b90612033613c44565b906144c1565b6013546126aa565b8110156120f7575b506014548161206161205a89611cf0565b51836126aa565b116120dd575b505080151590816120c9575b816120b5575b50613bc0565b61209c61209761208e85611cf0565b51600f546126aa565b600f55565b6120af6120aa601454611ce1565b601455565b38611ede565b90506120c085611cf0565b51111538612079565b90506120d485611cf0565b51151590612073565b6120e691612d16565b6120ef86611cf0565b523880612067565b6013556121046000601455565b38612049565b6121209250803d106105ab5761059c8183610483565b3880611fde565b61213e9150883d8a116105ab5761059c8183610483565b38611f4a565b61209761215b9161215486611cf0565b51906126aa565b6120af565b9050612177610b33600b546001600160a01b031690565b1438611e79565b908160209103126102fd575161078081610364565b909260a0926001600160a01b0361078096951683526000602084015260408301526060820152816080820152019061074a565b919261078095949160a0946001600160a01b03809216855216602084015260408301526060820152816080820152019061074a565b6040513d6000823e3d90fd5b6040519061221482610467565b60008252565b3d15612245573d9061222b826104a5565b916122396040519384610483565b82523d6000602084013e565b606090565b9293919093843b61225c575050505050565b60209161227f604051948593849363f23a6e6160e01b9889865260048601612193565b038160006001600160a01b0388165af160009181612314575b506122d757826122a661221a565b80519190826122d057604051632bfa23e760e11b81526001600160a01b0383166004820152602490fd5b9050602001fd5b6001600160e01b031916036122f157503880808080611e92565b604051632bfa23e760e11b81526001600160a01b03919091166004820152602490fd5b61233691925060203d811161233d575b61232e8183610483565b81019061217e565b9038612298565b503d612324565b939290949194853b612359575b505050505050565b61237c602093604051958694859463f23a6e6160e01b998a8752600487016121c6565b038160006001600160a01b0388165af1600091816123be575b506123a357826122a661221a565b6001600160e01b031916036122f15750388080808080612351565b6123d791925060203d811161233d5761232e8183610483565b9038612395565b9261240e61078095936001600160a01b0361241c941686526000602087015260a0604087015260a0860190610f50565b908482036060860152610f50565b91608081840391015261074a565b9390610780959361240e9161241c946001600160a01b03809216885216602087015260a0604087015260a0860190610f50565b9293919093843b61246f575050505050565b60209161227f604051948593849363bc197c8160e01b98898652600486016123de565b939290949194853b6124a657505050505050565b61237c602093604051958694859463bc197c8160e01b998a87526004870161242a565b908160209103126102fd5751610780816102ec565b156124e557565b606460405162461bcd60e51b815260206004820152600f60248201527f6f776e2e6e6f6e617574682e44414f00000000000000000000000000000000006044820152fd5b6002546000929161253982610649565b916001908181169081156125a5575060011461255457505050565b909192935060026000527f405787fa12a823e0f2b7631cc41b3ba8828b3321ca811111fa75cd3aa3bb5ace906000915b848310612592575050500190565b8181602092548587015201920191612584565b60ff191683525050811515909102019150565b906125cb60209282815194859201610727565b0190565b906125d9826104a5565b6125e66040519182610483565b82815280926125f7601f19916104a5565b0190602036910137565b811561260b570490565b634e487b7160e01b600052601260045260246000fd5b9060046001600160a01b036020816003541660405193848092630536340960e21b82525afa9081156105b2576126619260009261058257501633146124de565b60005b82518110156126a5576008549060018201809211610626576126886126a0926126b7565b61269b6126958286611cfd565b51612a0e565b611ce1565b612664565b509050565b9190820180921161062657565b60085468010000000000000000811015610462576001810180600855811015610eb25760086000527ff3f7a9fe364faab93b216da50a3214154f22a0a2b415b23a84c8169e8b636ee30155565b601f8111612710575050565b600090600282527f405787fa12a823e0f2b7631cc41b3ba8828b3321ca811111fa75cd3aa3bb5ace906020601f850160051c8301941061276b575b601f0160051c01915b82811061276057505050565b818155600101612754565b909250829061274b565b601f8111612781575050565b600090600982527f6e1540171b6c0c960b71a7020d9f60077f6af931a8bbf590da0223dacf75c7af906020601f850160051c830194106127dc575b601f0160051c01915b8281106127d157505050565b8181556001016127c5565b90925082906127bc565b90601f81116127f457505050565b600091825260208220906020601f850160051c83019410612830575b601f0160051c01915b82811061282557505050565b818155600101612819565b9092508290612810565b90815167ffffffffffffffff8111610462576128608161285b600254610649565b612704565b602080601f831160011461289c5750819293600092612891575b50508160011b916000199060031b1c191617600255565b01519050388061287a565b90601f198316946128cf60026000527f405787fa12a823e0f2b7631cc41b3ba8828b3321ca811111fa75cd3aa3bb5ace90565b926000905b87821061290c5750508360019596106128f3575b505050811b01600255565b015160001960f88460031b161c191690553880806128e8565b806001859682949686015181550195019301906128d4565b90815167ffffffffffffffff81116104625761294a81612945600954610649565b612775565b602080601f8311600114612986575081929360009261297b575b50508160011b916000199060031b1c191617600955565b015190503880612964565b90601f198316946129b960096000527f6e1540171b6c0c960b71a7020d9f60077f6af931a8bbf590da0223dacf75c7af90565b926000905b8782106129f65750508360019596106129dd575b505050811b01600955565b015160001960f88460031b161c191690553880806129d2565b806001859682949686015181550195019301906129be565b600754680100000000000000008110156104625760019081810180600755811015610eb25760076000527fa66cc928b5edb82af9bd49922954155ab7b0942694bea4ce44661d9a8736c688019180519067ffffffffffffffff821161046257612a8182612a7b8654610649565b866127e6565b60209081601f8411600114612abd5750928293918392600094612ab2575b50501b916000199060031b1c1916179055565b015192503880612a9f565b919083601f198116612ad488600052602060002090565b946000905b88838310612b0d5750505010612af4575b505050811b019055565b015160001960f88460031b161c19169055388080612aea565b858701518855909601959485019487935090810190612ad9565b60405190612b3482610446565b601682527f67657455736572546f53746f72286164647265737329000000000000000000006020830152565b15612b6757565b606460405162461bcd60e51b815260206004820152600f60248201527f6f776e2e756e617574682e73746f7200000000000000000000000000000000006044820152fd5b15612bb257565b606460405162461bcd60e51b815260206004820152601260248201527f6f776e2e64656661756c742e73656e64657200000000000000000000000000006044820152fd5b92939091612c0e6001600160a01b0385161515612bab565b612c16612ff0565b60115460125490828201908183116106265710612cc357612cb894612cb293612c4a612c4585610a0d956126aa565b601255565b612c5330612f70565b97612c65612c6088612d07565b610e7b565b5094612c7c610b336003546001600160a01b031690565b936040519889977fb505c66d0000000000000000000000000000000000000000000000000000000060208a015260248901612e5d565b82614531565b506107806001600655565b606460405162461bcd60e51b815260206004820152601760248201527f6f7263313135352e737570706c792e62726561636865640000000000000000006044820152fd5b60001981019190821161062657565b9190820391821161062657565b60025460009291612d3382610649565b80825291600190818116908115612daa5750600114612d5157505050565b9192935060026000527f405787fa12a823e0f2b7631cc41b3ba8828b3321ca811111fa75cd3aa3bb5ace916000925b848410612d9257505060209250010190565b80546020858501810191909152909301928101612d80565b915050602093945060ff929192191683830152151560051b010190565b9060009291805491612dd883610649565b918282526001938481169081600014612e3a5750600114612dfa575b50505050565b90919394506000526020928360002092846000945b838610612e26575050505001019038808080612df4565b805485870183015294019385908201612e0f565b9294505050602093945060ff191683830152151560051b01019038808080612df4565b9490979591969293610120808752600090600954612e7a81610649565b80928a01526001908181169081600014612f485750600114612eed575b505086979899612eb48261010099612ec2940360208c0152612d23565b9089820360408b0152612dc7565b9860608801526001600160a01b03809516608088015260a087015260c086015260e085015216910152565b6009600090815292507f6e1540171b6c0c960b71a7020d9f60077f6af931a8bbf590da0223dacf75c7af5b828410612f315750505086016101400189612eb4612e97565b8054848b0161014001526020909301928101612f18565b60ff1916610140808c019190915292151560051b8a0190920192508b9150612eb49050612e97565b6e5af43d82803e903d91602b57fd5bf390763d602d80600a3d3981f3363d3d373d3d3d363d7300000062ffffff8260881c161760005260781b17602052603760096000f0906001600160a01b03821615612fc657565b60046040517fb06ebf3d000000000000000000000000000000000000000000000000000000008152fd5b600260065414613001576002600655565b60046040517f3ee5aeb5000000000000000000000000000000000000000000000000000000008152fd5b60a796936130c66130cb926130c16130d0969561057d6131189a6131669f8d9f9d906130856130ab9261305c612ff0565b61307c6001600160a01b0391613075838616151561318f565b15156131da565b84161515613225565b6130a66130a0610b33610b336003546001600160a01b031690565b15613270565b613e66565b6130bc6130b733614086565b6132bb565b6142af565b612924565b6126b7565b612a0e565b6131016130e56004546001600160a01b031690565b6001600160a01b03166001600160a01b0319600b541617600b55565b61310a85600c55565b61311383600e55565b600d55565b61312181601355565b116131825761313661ffff61010e5b16601055565b6004546001600160a01b03169061315861314e610eb7565b90549060031b1c90565b613160612207565b92613306565b600a80546001600160a01b031916331790556103106001600655565b61313661ffff60b4613130565b1561319657565b606460405162461bcd60e51b815260206004820152601660248201527f6f7263313135352e686578626173652e6661696c6564000000000000000000006044820152fd5b156131e157565b606460405162461bcd60e51b815260206004820152601060248201527f6f7263313135352e7174792e7a65726f000000000000000000000000000000006044820152fd5b1561322c57565b606460405162461bcd60e51b815260206004820152601460248201527f6f7263313135352e6163636f756e742e7a65726f0000000000000000000000006044820152fd5b1561327757565b606460405162461bcd60e51b815260206004820152601460248201527f6f7263313135352e616c72656164792e696e69740000000000000000000000006044820152fd5b156132c257565b606460405162461bcd60e51b815260206004820152601760248201527f6f7263313135352e756e7365637572652e6661696c65640000000000000000006044820152fd5b9291906001600160a01b038416918215611e3b5761334160405192600184526020840152604083019160018352606084015260808301604052565b9160019061335182845114613a5b565b8251845190818103611d9a57505081806000905b613413575b508351036133d75760208381015185820151604080519283529282015260009133917fc3d58168c5ae7397731d063d5bbf3d657854427343f4c083240f7aacaa2d0f629190a45b8151036133cd579060208061031095930151910151913361224a565b610310933361245d565b60006040517f4a39dc06d4c0dbc64b70af90fd698a233a518aa5d07e595d983b8c0526c8f7fb33918061340b898983613c7d565b0390a46133b1565b845181101561347957806134739160051b61346c6134648b61344c602080868d010151958d010151946000526000602052604060002090565b906001600160a01b0316600052602052604060002090565b9182546126aa565b9055611ce1565b81613365565b61336a565b60405161348a81610467565b60008152906000368137565b604051906134a382610446565b600a82527f73687574646f776e2829000000000000000000000000000000000000000000006020830152565b604051906134dc82610446565b600a82527f706f6f6c4e4654312829000000000000000000000000000000000000000000006020830152565b908160609103126102fd578051916040602083015192015190565b90670de0b6b3a76400009182810292818404149015171561062657565b908160640291606483040361062657565b8181029291811591840414171561062657565b6040519061357182610446565b600a82527f706f6f6c4e4654322829000000000000000000000000000000000000000000006020830152565b906135b76135a961347e565b6135b1613496565b84614485565b61371857600e5491601054926135cd84826126aa565b831061370f57670de0b6b3a76400009360009261360b6135fc6135ee61347e565b6135f66134cf565b8461438b565b60208082518301019101613508565b806136bc575b5050506135fc61362c9161362361347e565b906111e6613564565b959192909386613652575b5050505050905004600c5480821161364d575090565b905090565b61367292613667613681989361366d936126aa565b90612d16565b612601565b908161368c57505050806126aa565b803880808080613637565b6136b6926136b06136aa6136a5936136a5600c54613523565b613551565b91613540565b90612601565b906126aa565b9161362c9396916136dd6135fc9461366d6136d7898b6126aa565b8c612d16565b91826136ef575050505b949138613611565b61370a9350906136b06136aa6136a5936136a5600c54613523565b6136e7565b50505050600090565b5050600c5490565b1561372757565b606460405162461bcd60e51b815260206004820152601b60248201527f6f776e2e6e6f6e617574682e44414f6f725365637572656261736500000000006044820152fd5b6001600160a01b039182600b5416928216831461383b5760085415610eb25760086000526137ba7ff3f7a9fe364faab93b216da50a3214154f22a0a2b415b23a84c8169e8b636ee35484611c9e565b806137c55750505050565b8261380661382b946138269360ff199760018960155416176015556137e8610eb7565b939054604051946137f886610467565b6000865260031b1c91611dd5565b6130bc816001600160a01b03166001600160a01b0319600b541617600b55565b613993565b6015541660155538808080612df4565b505050565b6040519061384d82610446565b601482527f616c6c6f77466f7263655472616e7366657228290000000000000000000000006020830152565b908160209103126102fd5751610780816110fc565b9493929190816000526000602052826138be876040600020906001600160a01b0316600052602052604060002090565b541061394f57336001600160a01b03871614158061391b575b6138f45791610310949591613826936138ee612207565b93611dd5565b60405163711bec9160e11b81523360048201526001600160a01b0387166024820152604490fd5b5061394a611ef36139433361344c8a6001600160a01b03166000526001602052604060002090565b5460ff1690565b6138d7565b606460405162461bcd60e51b815260206004820152601760248201527f6f7263313135352e7472616e736665722e6661696c65640000000000000000006044820152fd5b805115613a3457600460206139b3610b336003546001600160a01b031690565b604051928380927f43af1d9d0000000000000000000000000000000000000000000000000000000082525afa80156105b257613a3492610b9392600092613a37575b50613a2f906040519384917f9e6c4bd10000000000000000000000000000000000000000000000000000000060208401526024830161076f565b614531565b50565b613a2f919250613a549060203d81116105ab5761059c8183610483565b91906139f5565b15613a6257565b606460405162461bcd60e51b815260206004820152601960248201527f6f7263313135352e62617463682e6e6f742e616c6c6f776564000000000000006044820152fd5b15613aad57565b606460405162461bcd60e51b815260206004820152601460248201527f6f7263313135352e73746f722e696e76616c69640000000000000000000000006044820152fd5b15613af857565b606460405162461bcd60e51b815260206004820152600f60248201527f6f7263313135352e6c65737351747900000000000000000000000000000000006044820152fd5b60405190613b4982610446565b600882527f69734c6f636b28290000000000000000000000000000000000000000000000006020830152565b15613b7c57565b606460405162461bcd60e51b815260206004820152601060248201527f6f7263313135352e696e616374697665000000000000000000000000000000006044820152fd5b15613bc757565b606460405162461bcd60e51b815260206004820152600e60248201527f6f7263313135352e6c6f636b65640000000000000000000000000000000000006044820152fd5b60405190613c1882610446565b600c82527f6d61784e465453656e64282900000000000000000000000000000000000000006020830152565b60405190613c5182610446565b601182527f4e465453656e645065724379636c6528290000000000000000000000000000006020830152565b9091613c9461078093604084526040840190610f50565b916020818403910152610f50565b9392918051835190818103611d9a57505060005b8151811015613dc0578060051b9060208083850101519286010151846001600160a01b0393848a16613d20575b613cf6948216613cfb575b505050611ce1565b613cb6565b613d169161344c613464926000526000602052604060002090565b9055388481613cee565b9192939050613d3d8961344c846000526000602052604060002090565b54838110613d705791869184613cf696959403613d688c61344c856000526000602052604060002090565b559450613ce3565b6040517f03dee4c50000000000000000000000000000000000000000000000000000000081526001600160a01b038b16600482015260248101919091526044810184905260648101839052608490fd5b508051939493919291600103613e23576020908101519181015160408051938452918301526001600160a01b03928316939092169133917fc3d58168c5ae7397731d063d5bbf3d657854427343f4c083240f7aacaa2d0f6291819081015b0390a4565b9091613e1e7f4a39dc06d4c0dbc64b70af90fd698a233a518aa5d07e595d983b8c0526c8f7fb916040519182916001600160a01b03809116971695339583613c7d565b6001600160a01b03809116908115613eb357600354826001600160a01b0319821617600355167fe939feee179e631422bcc8f6e6d7d908cb3f8af38f5372f17c77e15aea5c80ee600080a3565b606460405162461bcd60e51b815260206004820152601360248201527f6f776e2e696e76616c69642e68657862617365000000000000000000000000006044820152fd5b15613efe57565b606460405162461bcd60e51b815260206004820152601960248201527f6f776e2e7361666567756172642e63616c6c2e6661696c6564000000000000006044820152fd5b6001600160a01b03600354166040518091634bf9c0ad60e11b825281600460209384935afa9182156105b25761078092613fca91600091613fe5575b50604051613f8b81610446565b600881527f69735361666528290000000000000000000000000000000000000000000000008482015260405191613fc183610467565b600083526143b6565b919080613fdb575b610bc090613ef7565b5081518114613fd2565b613ffc9150833d85116105ab5761059c8183610483565b38613f7e565b6040519061400f82610446565b601582527f69735365637572654261736528616464726573732900000000000000000000006020830152565b1561404257565b606460405162461bcd60e51b815260206004820152601a60248201527f6f776e2e736563757265626173652e63616c6c2e6661696c65640000000000006044820152fd5b61409b610b336003546001600160a01b031690565b604051918291634bf9c0ad60e11b835282600460209485935afa9283156105b257610780936140fb92610b9392600092614116575b506140f3906040519384918783019190916001600160a01b036020820193169052565b610ba9614002565b91908061410c575b610bc09061403b565b5081518114614103565b6140f391925061413290863d88116105ab5761059c8183610483565b91906140d0565b6040519061414682610446565b601182527f69735369676e65722861646472657373290000000000000000000000000000006020830152565b1561417957565b606460405162461bcd60e51b815260206004820152601660248201527f6f776e2e7369676e65722e63616c6c2e6661696c6564000000000000000000006044820152fd5b600460206001600160a01b0360035416604051928380927f447aa3040000000000000000000000000000000000000000000000000000000082525afa80156105b25761078091600091614258575b5060405161421881610446565b600581527f616765282900000000000000000000000000000000000000000000000000000060208201526040519161424f83610467565b600083526144c1565b614270915060203d81116105ab5761059c8183610483565b3861420b565b6040519061428382610446565b601882527f697364656c656761746f724e6f646528616464726573732900000000000000006020830152565b6001600160a01b038091169081156142fc57600454826001600160a01b0319821617600455167f8292fce18fa69edf4db7b94ea2e58241df0ae57f97e0a6c9b29067028bf92d76600080a3565b606460405162461bcd60e51b815260206004820152601160248201527f6f776e2e696e76616c69642e6f776e65720000000000000000000000000000006044820152fd5b1561434757565b606460405162461bcd60e51b815260206004820152600f60248201527f6f776e2e6275726e2e6661696c656400000000000000000000000000000000006044820152fd5b9061439692916143b6565b90600090156143a3575090565b60405191506143b182610467565b815290565b803b1561441b576000926001600160e01b0319836020869551910120169061440860246040518093602082019586526143f88151809260208686019101610727565b8101036004810184520182610483565b5191620dbba0fa61441761221a565b9091565b50505060009060405161442d81610467565b6000815290565b9291614442916000946143b6565b908061447a575b6144505750565b9091506020818051810103126102fd5760206001600160a01b03910151614476816102ec565b1690565b506020815114614449565b9291614493916000946143b6565b90806144b6575b6144a15750565b61078091925060208082518301019101613879565b50602081511461449a565b92916144cf916000946143b6565b90806144f4575b6144dd5750565b9091506020818051810103126102fd576020015190565b5060208151146144d6565b90602082519201516001600160e01b031990818116936004811061452257505050565b60040360031b82901b16169150565b6001600160a01b038116156145ca57600080918351908260208601915af19061455861221a565b9115614562575090565b8051600091906004116145c45761457991506144ff565b8151156145895750805190602001fd5b6024906001600160e01b0319604051917f21c09d34000000000000000000000000000000000000000000000000000000008352166004820152fd5b50614579565b606460405162461bcd60e51b815260206004820152601260248201527f6f776e2e696e76616c69642e74617267657400000000000000000000000000006044820152fd5b803b600061461b826104a5565b926146296040519485610483565b82845260208401903c602d81511061464557602a015160601c90565b606460405162461bcd60e51b815260206004820152601360248201527f4e6f742061206d696e696d616c2070726f7879000000000000000000000000006044820152fdfea2646970667358221220e77c4c4f3f52b266656d7e4ed87d82c84c67fb7558e79641d2b381da5ba4f47064736f6c63430008140033","linkReferences":{}},"methodIdentifiers":{"Burn(uint256)":"b90306ad","_delegatorCount()":"a1f7f539","_getImplementation(address)":"c54e44b0","_isDelegatorNode(address)":"e01ad5fd","_isSafe()":"e0a9bc2b","_isSecureBase(address)":"af484526","_isSigner(address)":"1f185d16","_uri()":"0dccc9ad","addToken(string[])":"abbbf8d7","balanceOf(address,uint256)":"00fdd58e","balanceOfBatch(address[],uint256[])":"4e1273f4","claimed()":"e834a834","clonedOf()":"2defa859","curSupply()":"5fac2d9d","getBalance()":"12065fe0","getHexbase()":"3b9b7955","getNames(uint256)":"5718e17b","getTokenCount()":"78a89567","getUnlockedNFT()":"06eb36db","ids(uint256)":"fac333ac","isApprovedForAll(address,address)":"e985e9c5","isSecuredNFT(address)":"edd38c01","lastTransferDay()":"18dcfd71","mintedAge()":"f9ffedb7","mintedUser()":"fcf56368","mintedfee()":"f356eedb","mintedqty()":"6c51797b","name()":"06fdde03","names(uint256)":"4622ab03","onTokenImport(address,bytes)":"f526f68a","onTokenTransfer(address,address,uint256,uint256,bool,bytes)":"7eb1a738","owner()":"8da5cb5b","postinit(string,string,string,uint256,address,uint256,uint256,uint256,address)":"b505c66d","preinit(address,uint256,uint256,uint256,uint256)":"c85700fb","safeBatchTransferFrom(address,address,uint256[],uint256[],bytes)":"2eb2c2d6","safeTransferFrom(address,address,uint256,uint256,bytes)":"f242432a","setApprovalForAll(address,bool)":"a22cb465","setURI(string)":"02fe5305","setcurSupply(uint256)":"2796f7c6","setsupply(uint256)":"d878fe10","supportsInterface(bytes4)":"01ffc9a7","systemAge()":"fdc10bc9","totSupply()":"81fbf0a5","totalNFTSent()":"c3c916d9","uri(uint256)":"0e89341c"},"id":59}