{"abi":[{"type":"constructor","inputs":[{"name":"_contractName","type":"string","internalType":"string"},{"name":"baseURI_","type":"string","internalType":"string"},{"name":"_supply","type":"uint256","internalType":"uint256"},{"name":"_names","type":"string[]","internalType":"string[]"},{"name":"_hex","type":"address","internalType":"address"}],"stateMutability":"nonpayable"},{"type":"fallback","stateMutability":"payable"},{"type":"receive","stateMutability":"payable"},{"type":"function","name":"Burn","inputs":[{"name":"amount","type":"uint256","internalType":"uint256"}],"outputs":[],"stateMutability":"nonpayable"},{"type":"function","name":"_delegatorCount","inputs":[],"outputs":[{"name":"","type":"uint256","internalType":"uint256"}],"stateMutability":"view"},{"type":"function","name":"_getImplementation","inputs":[{"name":"clone","type":"address","internalType":"address"}],"outputs":[{"name":"impl","type":"address","internalType":"address"}],"stateMutability":"view"},{"type":"function","name":"_isDelegatorNode","inputs":[{"name":"sender","type":"address","internalType":"address"}],"outputs":[{"name":"","type":"bool","internalType":"bool"}],"stateMutability":"view"},{"type":"function","name":"_isSafe","inputs":[],"outputs":[{"name":"","type":"bool","internalType":"bool"}],"stateMutability":"view"},{"type":"function","name":"_isSecureBase","inputs":[{"name":"sender","type":"address","internalType":"address"}],"outputs":[{"name":"","type":"bool","internalType":"bool"}],"stateMutability":"view"},{"type":"function","name":"_isSigner","inputs":[{"name":"sender","type":"address","internalType":"address"}],"outputs":[{"name":"","type":"bool","internalType":"bool"}],"stateMutability":"view"},{"type":"function","name":"_uri","inputs":[],"outputs":[{"name":"","type":"string","internalType":"string"}],"stateMutability":"view"},{"type":"function","name":"addToken","inputs":[{"name":"_names","type":"string[]","internalType":"string[]"}],"outputs":[],"stateMutability":"nonpayable"},{"type":"function","name":"balanceOf","inputs":[{"name":"account","type":"address","internalType":"address"},{"name":"id","type":"uint256","internalType":"uint256"}],"outputs":[{"name":"","type":"uint256","internalType":"uint256"}],"stateMutability":"view"},{"type":"function","name":"balanceOfBatch","inputs":[{"name":"accounts","type":"address[]","internalType":"address[]"},{"name":"ids","type":"uint256[]","internalType":"uint256[]"}],"outputs":[{"name":"","type":"uint256[]","internalType":"uint256[]"}],"stateMutability":"view"},{"type":"function","name":"claimed","inputs":[],"outputs":[{"name":"","type":"uint256","internalType":"uint256"}],"stateMutability":"view"},{"type":"function","name":"clonedOf","inputs":[],"outputs":[{"name":"","type":"address","internalType":"address"}],"stateMutability":"view"},{"type":"function","name":"curSupply","inputs":[],"outputs":[{"name":"","type":"uint256","internalType":"uint256"}],"stateMutability":"view"},{"type":"function","name":"getBalance","inputs":[],"outputs":[{"name":"","type":"uint256","internalType":"uint256"}],"stateMutability":"view"},{"type":"function","name":"getHexbase","inputs":[],"outputs":[{"name":"","type":"address","internalType":"address"}],"stateMutability":"view"},{"type":"function","name":"getNames","inputs":[{"name":"inx","type":"uint256","internalType":"uint256"}],"outputs":[{"name":"","type":"string","internalType":"string"}],"stateMutability":"view"},{"type":"function","name":"getTokenCount","inputs":[],"outputs":[{"name":"","type":"uint256","internalType":"uint256"}],"stateMutability":"view"},{"type":"function","name":"getUnlockedNFT","inputs":[],"outputs":[{"name":"_NFT","type":"uint256","internalType":"uint256"}],"stateMutability":"view"},{"type":"function","name":"ids","inputs":[{"name":"","type":"uint256","internalType":"uint256"}],"outputs":[{"name":"","type":"uint256","internalType":"uint256"}],"stateMutability":"view"},{"type":"function","name":"isApprovedForAll","inputs":[{"name":"account","type":"address","internalType":"address"},{"name":"operator","type":"address","internalType":"address"}],"outputs":[{"name":"","type":"bool","internalType":"bool"}],"stateMutability":"view"},{"type":"function","name":"isSecuredNFT","inputs":[{"name":"orc1155","type":"address","internalType":"address"}],"outputs":[{"name":"","type":"bool","internalType":"bool"}],"stateMutability":"view"},{"type":"function","name":"lastTransferDay","inputs":[],"outputs":[{"name":"","type":"uint256","internalType":"uint256"}],"stateMutability":"view"},{"type":"function","name":"mintedAge","inputs":[],"outputs":[{"name":"","type":"uint256","internalType":"uint256"}],"stateMutability":"view"},{"type":"function","name":"mintedUser","inputs":[],"outputs":[{"name":"","type":"address","internalType":"address"}],"stateMutability":"view"},{"type":"function","name":"mintedfee","inputs":[],"outputs":[{"name":"","type":"uint256","internalType":"uint256"}],"stateMutability":"view"},{"type":"function","name":"mintedqty","inputs":[],"outputs":[{"name":"","type":"uint256","internalType":"uint256"}],"stateMutability":"view"},{"type":"function","name":"name","inputs":[],"outputs":[{"name":"","type":"string","internalType":"string"}],"stateMutability":"view"},{"type":"function","name":"names","inputs":[{"name":"","type":"uint256","internalType":"uint256"}],"outputs":[{"name":"","type":"string","internalType":"string"}],"stateMutability":"view"},{"type":"function","name":"onTokenImport","inputs":[{"name":"_to","type":"address","internalType":"address"},{"name":"payload","type":"bytes","internalType":"bytes"}],"outputs":[],"stateMutability":"nonpayable"},{"type":"function","name":"onTokenTransfer","inputs":[{"name":"_from","type":"address","internalType":"address"},{"name":"_to","type":"address","internalType":"address"},{"name":"_id","type":"uint256","internalType":"uint256"},{"name":"_qty","type":"uint256","internalType":"uint256"},{"name":"_byforce","type":"bool","internalType":"bool"},{"name":"payload","type":"bytes","internalType":"bytes"}],"outputs":[],"stateMutability":"nonpayable"},{"type":"function","name":"owner","inputs":[],"outputs":[{"name":"","type":"address","internalType":"address"}],"stateMutability":"view"},{"type":"function","name":"postinit","inputs":[{"name":"_contractName","type":"string","internalType":"string"},{"name":"baseURI_","type":"string","internalType":"string"},{"name":"_nName","type":"string","internalType":"string"},{"name":"_nid","type":"uint256","internalType":"uint256"},{"name":"_account","type":"address","internalType":"address"},{"name":"_qty","type":"uint256","internalType":"uint256"},{"name":"_fee","type":"uint256","internalType":"uint256"},{"name":"_ag","type":"uint256","internalType":"uint256"},{"name":"_hex","type":"address","internalType":"address"}],"outputs":[],"stateMutability":"payable"},{"type":"function","name":"preinit","inputs":[{"name":"_account","type":"address","internalType":"address"},{"name":"_id","type":"uint256","internalType":"uint256"},{"name":"_qty","type":"uint256","internalType":"uint256"},{"name":"_fee","type":"uint256","internalType":"uint256"},{"name":"_ag","type":"uint256","internalType":"uint256"}],"outputs":[{"name":"","type":"address","internalType":"address"}],"stateMutability":"payable"},{"type":"function","name":"safeBatchTransferFrom","inputs":[{"name":"from","type":"address","internalType":"address"},{"name":"to","type":"address","internalType":"address"},{"name":"ids","type":"uint256[]","internalType":"uint256[]"},{"name":"values","type":"uint256[]","internalType":"uint256[]"},{"name":"data","type":"bytes","internalType":"bytes"}],"outputs":[],"stateMutability":"nonpayable"},{"type":"function","name":"safeTransferFrom","inputs":[{"name":"from","type":"address","internalType":"address"},{"name":"to","type":"address","internalType":"address"},{"name":"id","type":"uint256","internalType":"uint256"},{"name":"value","type":"uint256","internalType":"uint256"},{"name":"data","type":"bytes","internalType":"bytes"}],"outputs":[],"stateMutability":"nonpayable"},{"type":"function","name":"setApprovalForAll","inputs":[{"name":"operator","type":"address","internalType":"address"},{"name":"approved","type":"bool","internalType":"bool"}],"outputs":[],"stateMutability":"nonpayable"},{"type":"function","name":"setURI","inputs":[{"name":"newuri","type":"string","internalType":"string"}],"outputs":[],"stateMutability":"nonpayable"},{"type":"function","name":"setcurSupply","inputs":[{"name":"_s","type":"uint256","internalType":"uint256"}],"outputs":[],"stateMutability":"nonpayable"},{"type":"function","name":"setsupply","inputs":[{"name":"_s","type":"uint256","internalType":"uint256"}],"outputs":[],"stateMutability":"nonpayable"},{"type":"function","name":"supportsInterface","inputs":[{"name":"interfaceId","type":"bytes4","internalType":"bytes4"}],"outputs":[{"name":"","type":"bool","internalType":"bool"}],"stateMutability":"view"},{"type":"function","name":"systemAge","inputs":[],"outputs":[{"name":"","type":"uint256","internalType":"uint256"}],"stateMutability":"view"},{"type":"function","name":"totSupply","inputs":[],"outputs":[{"name":"","type":"uint256","internalType":"uint256"}],"stateMutability":"view"},{"type":"function","name":"totalNFTSent","inputs":[],"outputs":[{"name":"","type":"uint256","internalType":"uint256"}],"stateMutability":"view"},{"type":"function","name":"uri","inputs":[{"name":"_tokenid","type":"uint256","internalType":"uint256"}],"outputs":[{"name":"","type":"string","internalType":"string"}],"stateMutability":"view"},{"type":"event","name":"ApprovalForAll","inputs":[{"name":"account","type":"address","indexed":true,"internalType":"address"},{"name":"operator","type":"address","indexed":true,"internalType":"address"},{"name":"approved","type":"bool","indexed":false,"internalType":"bool"}],"anonymous":false},{"type":"event","name":"EthBurned","inputs":[{"name":"sender","type":"address","indexed":true,"internalType":"address"},{"name":"amount","type":"uint256","indexed":false,"internalType":"uint256"}],"anonymous":false},{"type":"event","name":"EthTransferred","inputs":[{"name":"to","type":"address","indexed":true,"internalType":"address"},{"name":"amount","type":"uint256","indexed":false,"internalType":"uint256"}],"anonymous":false},{"type":"event","name":"HexBaseUpdated","inputs":[{"name":"previousHexBase","type":"address","indexed":true,"internalType":"address"},{"name":"newHexBase","type":"address","indexed":true,"internalType":"address"}],"anonymous":false},{"type":"event","name":"OwnerUpdated","inputs":[{"name":"previousOwner","type":"address","indexed":true,"internalType":"address"},{"name":"newOwner","type":"address","indexed":true,"internalType":"address"}],"anonymous":false},{"type":"event","name":"TransferBatch","inputs":[{"name":"operator","type":"address","indexed":true,"internalType":"address"},{"name":"from","type":"address","indexed":true,"internalType":"address"},{"name":"to","type":"address","indexed":true,"internalType":"address"},{"name":"ids","type":"uint256[]","indexed":false,"internalType":"uint256[]"},{"name":"values","type":"uint256[]","indexed":false,"internalType":"uint256[]"}],"anonymous":false},{"type":"event","name":"TransferSingle","inputs":[{"name":"operator","type":"address","indexed":true,"internalType":"address"},{"name":"from","type":"address","indexed":true,"internalType":"address"},{"name":"to","type":"address","indexed":true,"internalType":"address"},{"name":"id","type":"uint256","indexed":false,"internalType":"uint256"},{"name":"value","type":"uint256","indexed":false,"internalType":"uint256"}],"anonymous":false},{"type":"event","name":"URI","inputs":[{"name":"value","type":"string","indexed":false,"internalType":"string"},{"name":"id","type":"uint256","indexed":true,"internalType":"uint256"}],"anonymous":false},{"type":"error","name":"ERC1155InsufficientBalance","inputs":[{"name":"sender","type":"address","internalType":"address"},{"name":"balance","type":"uint256","internalType":"uint256"},{"name":"needed","type":"uint256","internalType":"uint256"},{"name":"tokenId","type":"uint256","internalType":"uint256"}]},{"type":"error","name":"ERC1155InvalidApprover","inputs":[{"name":"approver","type":"address","internalType":"address"}]},{"type":"error","name":"ERC1155InvalidArrayLength","inputs":[{"name":"idsLength","type":"uint256","internalType":"uint256"},{"name":"valuesLength","type":"uint256","internalType":"uint256"}]},{"type":"error","name":"ERC1155InvalidOperator","inputs":[{"name":"operator","type":"address","internalType":"address"}]},{"type":"error","name":"ERC1155InvalidReceiver","inputs":[{"name":"receiver","type":"address","internalType":"address"}]},{"type":"error","name":"ERC1155InvalidSender","inputs":[{"name":"sender","type":"address","internalType":"address"}]},{"type":"error","name":"ERC1155MissingApprovalForAll","inputs":[{"name":"operator","type":"address","internalType":"address"},{"name":"owner","type":"address","internalType":"address"}]},{"type":"error","name":"FailedDeployment","inputs":[]},{"type":"error","name":"InsufficientBalance","inputs":[{"name":"balance","type":"uint256","internalType":"uint256"},{"name":"needed","type":"uint256","internalType":"uint256"}]},{"type":"error","name":"ReentrancyGuardReentrantCall","inputs":[]},{"type":"error","name":"TargetCallFailed","inputs":[{"name":"selector","type":"bytes4","internalType":"bytes4"}]}],"bytecode":{"object":"0x6080604052346200068f57620048ca803803806200001d81620006bd565b92833981019060a0818303126200068f5780516001600160401b0391908281116200068f578362000050918301620006e3565b926020808301518481116200068f57826200006d918501620006e3565b93604084015160608501518281116200068f57850194601f908582880112156200068f57865195848711620006795760059787891b8780620000b1818401620006bd565b809b81520191830101928084116200068f57888301915b84831062000694575050505050608001519460018060a01b0386168096036200068f57875184811162000679576002546001998a82811c921680156200066e575b888310146200065857818584931162000603575b50879085831160011462000599576000926200058d575b5050600019600383901b1c191690891b176002555b8515620005485760018060a01b03199260049633858954161788556003948554161784558860065560b4601055895185811162000533576009548a81811c9116801562000528575b888210146200051357848111620004c9575b50868482116001146200045b5781908b9c60009c9b9c926200044f575b505060001982871b1c191690891b176009559697965b6011556000985b620001f3575b6040516141749081620007568239f35b80518910156200044957600880548981019081811162000434576801000000000000000092838210156200041f57828155828210156200040a5760005287600020015581518a1015620003f557858a891b83010151906007805491821015620003cb578a8201808255821015620003e057600052866000200190805190868211620003cb5782548b81811c91168015620003c0575b89821014620003ab5785811162000362575b508790858311600114620002fb576000919083620002ef575b505060001982871b1c1916908a1b1790555b6000198914620002da579787019787620001dd565b601186634e487b7160e01b6000525260246000fd5b015190503880620002b3565b90601f1983169184600052896000209260005b8181106200034c575090848e959493921062000333575b505050811b019055620002c5565b015160001983891b60f8161c1916905538808062000325565b828401518555938e0193928b01928b016200030e565b8360005288600020868085018d1c8201928b8610620003a1575b018c1c01908c905b828110620003945750506200029a565b60008155018c9062000384565b925081926200037c565b60228a634e487b7160e01b6000525260246000fd5b90607f169062000288565b604189634e487b7160e01b6000525260246000fd5b603289634e487b7160e01b6000525260246000fd5b603287634e487b7160e01b6000525260246000fd5b60328a634e487b7160e01b6000525260246000fd5b60418a634e487b7160e01b6000525260246000fd5b601189634e487b7160e01b6000525260246000fd5b620001e3565b015190503880620001c0565b601f1982169b6009600052886000209c60005b818110620004b35750918c9d91848e9d9e9594106200049a575b505050811b01600955979697620001d6565b015160001983891b60f8161c1916905538808062000488565b828401518f559d8d019d928a01928a016200046e565b600960005287600020858084018c1c8201928a851062000509575b018b1c01908b905b828110620004fc575050620001a3565b60008155018b90620004ec565b92508192620004e4565b602289634e487b7160e01b6000525260246000fd5b90607f169062000191565b604188634e487b7160e01b6000525260246000fd5b60405162461bcd60e51b815260048101869052601360248201527f6f776e2e696e76616c69642e68657862617365000000000000000000000000006044820152606490fd5b01519050388062000134565b908b9350601f198316916002600052896000209260005b8b828210620005ec5750508411620005d2575b505050811b0160025562000149565b015160001960f88460031b161c19169055388080620005c3565b8385015186558f97909501949384019301620005b0565b909150600260005287600020858085018c1c8201928a86106200064e575b918d9186959493018d1c01915b8281106200063e5750506200011d565b600081558594508d91016200062e565b9250819262000621565b634e487b7160e01b600052602260045260246000fd5b91607f169162000109565b634e487b7160e01b600052604160045260246000fd5b600080fd5b82518981116200068f578a91620006b184848094890101620006e3565b815201920191620000c8565b6040519190601f01601f191682016001600160401b038111838210176200067957604052565b919080601f840112156200068f5782516001600160401b038111620006795760209062000719601f8201601f19168301620006bd565b928184528282870101116200068f5760005b8181106200074157508260009394955001015290565b85810183015184820184015282016200072b56fe60806040526004361015610018575b361561001657005b005b60003560e01c8062fdd58e146102e757806301ffc9a7146102e257806302fe5305146102dd57806306eb36db146102d857806306fdde03146102d35780630dccc9ad146102ce5780630e89341c146102c957806312065fe0146102c457806318dcfd71146102bf5780631f185d16146102ba5780632796f7c6146102b55780632defa859146102b05780632eb2c2d6146102ab5780633b9b7955146102a65780634622ab03146102a15780634e1273f41461029c5780635718e17b146102975780635fac2d9d146102925780636c51797b1461028d57806378a89567146102885780637eb1a7381461028357806381fbf0a51461027e5780638da5cb5b14610279578063a1f7f53914610274578063a22cb4651461026f578063abbbf8d71461026a578063af48452614610265578063b505c66d14610260578063b90306ad1461025b578063c3c916d914610256578063c54e44b014610251578063c85700fb1461024c578063d878fe1014610247578063e01ad5fd14610242578063e0a9bc2b1461023d578063e834a83414610238578063e985e9c514610233578063edd38c011461022e578063f242432a14610229578063f356eedb14610224578063f526f68a1461021f578063f9ffedb71461021a578063fac333ac14610215578063fcf56368146102105763fdc10bc90361000e57611aa6565b611a7d565b611a3e565b611a20565b6118fb565b6118dd565b61182a565b6117db565b611783565b611765565b61174a565b6116ab565b61164f565b61157e565b611545565b611527565b611425565b611399565b611368565b6112c9565b611221565b61116a565b611141565b611123565b610fe8565b610fc0565b610fa2565b610f84565b610f44565b610e89565b610df0565b610d70565b610c55565b610bb7565b610b48565b610a55565b610a37565b610a1b565b61088f565b6107fd565b610733565b610564565b6104b3565b61036f565b61031e565b6001600160a01b031690565b6001600160a01b0381160361030957565b600080fd5b610104359061031c826102f8565b565b34610309576040366003190112610309576020610354600435610340816102f8565b602435600052600083526040600020611ad9565b54604051908152f35b6001600160e01b031981160361030957565b3461030957602036600319011261030957602060043561038e8161035d565b63ffffffff60e01b16636cdb3d1360e11b81149081156103cc575b81156103bb575b506040519015158152f35b6301ffc9a760e01b149050386103b0565b6303a24d0760e21b811491506103a9565b634e487b7160e01b600052604160045260246000fd5b604081019081106001600160401b0382111761040e57604052565b6103dd565b602081019081106001600160401b0382111761040e57604052565b601f909101601f19168101906001600160401b0382119082101761040e57604052565b6001600160401b03811161040e57601f01601f191660200190565b81601f820112156103095780359061048382610451565b92610491604051948561042e565b8284526020838301011161030957816000926020809301838601378301015290565b34610309576020366003190112610309576004356001600160401b038111610309576104e390369060040161046c565b600354604051630536340960e21b81526001600160a01b0392916020908290600490829087165afa801561055f576100169361052a9260009261052f575b50163314612302565b6125e4565b61055191925060203d8111610558575b610549818361042e565b8101906122ed565b9038610521565b503d61053f565b61202d565b3461030957600036600319011261030957600461057f613c35565b60035460405163cfbffe5360e01b81529260209184919082906001600160a01b03165afa801561055f576105bb926000916105db575b506131a8565b600f5481039081116105d657604051908152602090f35b0390f35b611b1b565b6105f3915060203d811161055857610549818361042e565b386105b5565b90600182811c92168015610629575b602083101461061357565b634e487b7160e01b600052602260045260246000fd5b91607f1691610608565b9060405191826000825492610647846105f9565b9081845260019485811690816000146106b45750600114610671575b505061031c9250038361042e565b9093915060005260209081600020936000915b81831061069c57505061031c93508201013880610663565b85548884018501529485019487945091830191610684565b91505061031c94506020925060ff191682840152151560051b8201013880610663565b60005b8381106106ea5750506000910152565b81810151838201526020016106da565b90602091610713815180928185528580860191016106d7565b601f01601f1916010190565b9060206107309281815201906106fa565b90565b34610309576000806003193601126107fa5760405181600954610755816105f9565b808452906001908181169081156107d2575060011461078b575b6105d28461077f8188038261042e565b6040519182918261071f565b600983526020945060008051602061411f8339815191525b8284106107bf57505050816105d29361077f928201019361076f565b80548585018701529285019281016107a3565b6105d2965061077f9450602092508593915060ff191682840152151560051b8201019361076f565b80fd5b34610309576000806003193601126107fa576040518160025461081f816105f9565b808452906001908181169081156107d25750600114610848576105d28461077f8188038261042e565b60028352602094506000805160206140bf8339815191525b82841061087c57505050816105d29361077f928201019361076f565b8054858501870152928501928101610860565b346103095760203660031901126103095760006004358072184f03e93ff9f4daa797ed6e38ed64bf6a1f0160401b80821015610a0d575b506904ee2d6d415b85acef8160201b808310156109fe575b50662386f26fc10000808310156109ef575b506305f5e100808310156109e0575b50612710808310156109d1575b5060648210156109c1575b600a809210156109b7575b6001908160216109338287016123cb565b95860101905b610981575b6040516105d29061077f816109736109628a61095c60208501612340565b906123b4565b64173539b7b760d91b815260050190565b03601f19810183528261042e565b600019019083906f181899199a1a9b1b9c1cb0b131b232b360811b8282061a8353049182156109b257919082610939565b61093e565b9160010191610922565b9190606460029104910191610917565b6004919392049101913861090c565b600891939204910191386108ff565b601091939204910191386108f0565b602091939204910191386108de565b6040935081049150386108c6565b3461030957600036600319011261030957602047604051908152f35b34610309576000366003190112610309576020601354604051908152f35b346103095760208060031936011261030957600490813590610a76826102f8565b80610a8a610a856003546102ec565b6102ec565b604051634bf9c0ad60e11b815294859182905afa91821561055f57610acf610b0993610aeb926105d296600092610b25575b50610add90604051938491878301610ba4565b03601f19810184528361042e565b610ae5613bc3565b90613de4565b919080610b1b575b610afc90613bf0565b808251830101910161345c565b60405190151581529081906020820190565b5081518114610af3565b610add919250610b4190863d881161055857610549818361042e565b9190610abc565b3461030957602036600319011261030957600354604051630536340960e21b8152906001600160a01b03906020908390600490829085165afa90811561055f57610b9c9260009261052f5750163314612302565b600435601255005b6001600160a01b03909116815260200190565b3461030957600036600319011261030957600a546040516001600160a01b039091168152602090f35b6001600160401b03811161040e5760051b60200190565b81601f8201121561030957803591610c0e83610be0565b92610c1c604051948561042e565b808452602092838086019260051b820101928311610309578301905b828210610c46575050505090565b81358152908301908301610c38565b346103095760a03660031901126103095760048035610c73816102f8565b602435610c7f816102f8565b6001600160401b039060443582811161030957610c9f9036908601610bf7565b9060643583811161030957610cb79036908701610bf7565b9260843590811161030957610ccf903690870161046c565b936001600160a01b03808216903382141580610d4e575b610d2f57831615610d175715610d00576100169550611c82565b604051626a0d4560e21b8152600081880152602490fd5b604051632bfa23e760e11b8152600081890152602490fd5b60405163711bec9160e11b815280610d4a8533838d01611c06565b0390fd5b5081600052600160205260ff610d68336040600020611ad9565b541615610ce6565b34610309576000366003190112610309576003546040516001600160a01b039091168152602090f35b634e487b7160e01b600052603260045260246000fd5b600754811015610dca57600760005260206000200190600090565b610d99565b60085415610dca57600860009081526000805160206140ff83398151915291565b34610309576020366003190112610309576004356007548110156103095760076000526105d290610e30906000805160206140df83398151915201610633565b6040519182916020835260208301906106fa565b90815180825260208080930193019160005b828110610e64575050505090565b835185529381019392810192600101610e56565b906020610730928181520190610e44565b34610309576040366003190112610309576004356001600160401b038082116103095736602383011215610309578160040135610ec581610be0565b92610ed3604051948561042e565b81845260209160248386019160051b8301019136831161030957602401905b828210610f2b5785602435868111610309576105d291610f19610f1f923690600401610bf7565b90611b61565b60405191829182610e78565b8380918335610f39816102f8565b815201910190610ef2565b3461030957602036600319011261030957600435600754811015610dca5760076000526105d290610e30906000805160206140df83398151915201610633565b34610309576000366003190112610309576020601254604051908152f35b34610309576000366003190112610309576020600c54604051908152f35b34610309576000366003190112610309576020600854604051908152f35b8015150361030957565b346103095760c036600319011261030957600435611005816102f8565b602435611011816102f8565b604435606435906084359261102584610fde565b60a4356001600160401b0381116103095761104490369060040161046c565b936110666001600160a01b0361105d8482161515612902565b87161515612902565b1561111a57600494602061107e610a856003546102ec565b60405163cfbffe5360e01b815297889182905afa95861561055f576110d66110c76110ed986110e8936000916110fc575b506110b86130c2565b906110c161342c565b90613db9565b6020808251830101910161345c565b60ff8019601554169115151617601555565b613471565b61001660ff1960155416601555565b611114915060203d811161055857610549818361042e565b386110af565b61001694613471565b34610309576000366003190112610309576020601154604051908152f35b34610309576000366003190112610309576004546040516001600160a01b039091168152602090f35b346103095760003660031901126103095760035460405163d1f956b160e01b815290602090829060049082906001600160a01b03165afa90811561055f576105d2916111f391600091611203575b506040516111c5816103f3565b601381527267657464656c656761746f72436f756e74282960681b60208201526111ed612039565b91613ee2565b6040519081529081906020820190565b61121b915060203d811161055857610549818361042e565b386111b8565b346103095760403660031901126103095760043561123e816102f8565b60243561124a81610fde565b6001600160a01b0382169182156112b157611272903360005260016020526040600020611ad9565b9015159060ff1981541660ff83161790556040519081527f17307eab39ab6107e8899845ad3d59bd9653f200f220920489ca2b5937696c3160203392a3005b60405162ced3e160e81b815260006004820152602490fd5b3461030957602080600319360112610309576001600160401b03600435818111610309573660238201121561030957806004013561130681610be0565b92611314604051948561042e565b818452848401906024809360051b8501019336851161030957838101925b858410611342576100168761241d565b833583811161030957889161135d839288369187010161046c565b815201930192611332565b3461030957602036600319011261030957602061138f60043561138a816102f8565b613b27565b6040519015158152f35b610120366003190112610309576001600160401b03600435818111610309576113c690369060040161046c565b602435828111610309576113de90369060040161046c565b90604435928311610309576113fa61001693369060040161046c565b60843592611407846102f8565b61140f61030e565b9360e4359360c4359360a4359360643592612cf6565b346103095760208060031936011261030957600354604051630536340960e21b81526004803593926001600160a01b0391908216908490849081845afa92831561055f5760049385936114829260009261150f5750163314612302565b6040516311be646b60e21b815292839182905afa91821561055f57600080856114c2958295839584926114f2575b50505af16114bc61204c565b50613d7b565b60405190815233907fcdcc745fe377b103b45fa0cec23ae3ef93d6fc6a84a01f0d18c40b354dd1d5d890602090a2005b6115089250803d1061055857610549818361042e565b38806114b0565b610551919250853d871161055857610549818361042e565b34610309576000366003190112610309576020601454604051908152f35b3461030957602036600319011261030957602061156c600435611567816102f8565b61400c565b6040516001600160a01b039091168152f35b60a03660031901126103095760048035611597816102f8565b60206115a7610a856003546102ec565b60405163ab6e844f60e01b815293849182905afa90811561055f57611610611625926105d294600091611631575b50604051906115eb82610acf8660208301610ba4565b33916001600160a01b03916116099190611603612892565b90613e62565b16146128c4565b60843590606435906044359060243590612943565b60405191829182610ba4565b611649915060203d811161055857610549818361042e565b386115d5565b3461030957602036600319011261030957600354604051630536340960e21b8152906001600160a01b03906020908390600490829085165afa90811561055f576116a39260009261052f5750163314612302565b600435601155005b346103095760208060031936011261030957600480356116ca816102f8565b60035460405163d1f956b160e01b81526001600160a01b03949093909182918591829088165afa90811561055f576105d294610b099460009361172b575b50604051931681840152825261171d826103f3565b611725613cc0565b90613ea6565b611743919350823d841161055857610549818361042e565b9138611708565b3461030957600036600319011261030957602061138f6139ff565b34610309576000366003190112610309576020600f54604051908152f35b3461030957604036600319011261030957602060ff6117cf6004356117a7816102f8565b602435906117b4826102f8565b6001600160a01b031660009081526001855260409020611ad9565b54166040519015158152f35b346103095760203660031901126103095760206117fd600435611567816102f8565b6001600160a01b0381161515908161181a57506040519015158152f35b6118249150613b27565b386103b0565b346103095760a036600319011261030957600435611847816102f8565b602435611853816102f8565b6084356001600160401b0381116103095761187290369060040161046c565b906001600160a01b0383163381141590816118ba575b5061189e57610016926064359160443591611c20565b60405163711bec9160e11b815280610d4a853360048401611c06565b9050600052600160205260ff6118d4336040600020611ad9565b54161538611888565b34610309576000366003190112610309576020600d54604051908152f35b3461030957604036600319011261030957600435611918816102f8565b6024356001600160401b0381116103095761193790369060040161046c565b6001600160a01b039161194d8184161515612902565b6119556139ff565b156119e65761196333613b27565b92831561197d575b506119786100169361332b565b613375565b925060046020611991610a856003546102ec565b604051630536340960e21b815292839182905afa801561055f5761001694611978926000926119c6575b50163314935061196b565b6119df91925060203d811161055857610549818361042e565b90386119bb565b60405162461bcd60e51b81526020600482015260126024820152716f776e2e696e76616c69642e69735361666560701b6044820152606490fd5b34610309576000366003190112610309576020600e54604051908152f35b34610309576020366003190112610309576004356008548110156103095760086000526000805160206140ff8339815191520154604051908152602090f35b3461030957600036600319011261030957600b546040516001600160a01b039091168152602090f35b34610309576000366003190112610309576020611ac1613c35565b604051908152f35b6000526000602052604060002090565b9060018060a01b0316600052602052604060002090565b611b069160005260006020526040600020611ad9565b5490565b908152602081019190915260400190565b634e487b7160e01b600052601160045260246000fd5b60001981146105d65760010190565b805115610dca5760200190565b8051821015610dca5760209160051b010190565b91909180518351808203611bea575050805190611b7d82610be0565b91611b8b604051938461042e565b808352611b9a601f1991610be0565b0190602091368385013760005b8151811015611be25780611bcd611bdd9260051b85808287010151918a01015190611af0565b611bd78287611b4d565b52611b31565b611ba7565b509193505050565b610d4a604051928392635b05999160e01b845260048401611b0a565b6001600160a01b0391821681529116602082015260400190565b92939290916001600160a01b0380841615611c6957821615611c515761031c94611c4991611f8f565b929091611c82565b604051626a0d4560e21b815260006004820152602490fd5b604051632bfa23e760e11b815260006004820152602490fd5b91939290611c9360018651146135e3565b6001600160a01b038381168015159081611f78575b50611cff575b611cba838784876137c6565b8116611cc8575b5050505050565b8451600103611cee57602080611ce4960151920151923361216a565b3880808080611cc1565b611cfa949192336122b6565b611ce4565b600c54600f54809111611d13575b50611cae565b611d26611d2260155460ff1690565b1590565b15611f5c5750611d3a610a856003546102ec565b60405163ab6e844f60e01b8152602091908281600481855afa801561055f57611d22611d8d610acf611dbf93611dc495600091611f3f575b50611d858c6040519384918b8301610ba4565b611603612892565b611d9a878216151561362b565b611dae611da68a611b40565b51151561366e565b611db66130c2565b906117256136ac565b6136d0565b600482611dcf613c35565b926040519283809263cfbffe5360e01b82525afa90811561055f57611e9793600092611f22575b5050611e19611e0583836131a8565b611e1081151561370f565b600f5490612a3e565b91611e59611e51611e39611e2b6130c2565b611e3361374c565b86613ee2565b93611e426130c2565b90611e4b613774565b90613ee2565b6013546124a5565b811015611f0f575b5060145481611e79611e7289611b40565b51836124a5565b11611ef5575b50508015159081611ee1575b81611ecd575b5061370f565b611eb4611eaf611ea685611b40565b51600f546124a5565b600f55565b611ec7611ec2601454611b31565b601455565b38611d0d565b9050611ed885611b40565b51111538611e91565b9050611eec85611b40565b51151590611e8b565b611efe91612a3e565b611f0786611b40565b523880611e7f565b601355611f1c6000601455565b38611e61565b611f389250803d1061055857610549818361042e565b3880611df6565b611f569150883d8a1161055857610549818361042e565b38611d72565b611eaf611f7391611f6c86611b40565b51906124a5565b611ec7565b9050611f88610a85600b546102ec565b1438611ca8565b9160405192600184526020840152604083019160018352606084015260808301604052565b9081602091031261030957516107308161035d565b909260a0926107309594600180861b03168352600060208401526040830152606082015281608082015201906106fa565b919261073095949160a094600180871b0380921685521660208401526040830152606082015281608082015201906106fa565b6040513d6000823e3d90fd5b6040519061204682610413565b60008252565b3d15612077573d9061205d82610451565b9161206b604051938461042e565b82523d6000602084013e565b606090565b9293919093843b61208e575050505050565b6020916120b1604051948593849363f23a6e6160e01b9889865260048601611fc9565b038160006001600160a01b0388165af16000918161213a575b5061210357826120d861204c565b80519190826120fc57604051632bfa23e760e11b815280610d4a8460048301610ba4565b9050602001fd5b6001600160e01b0319160361211d57503880808080611cc1565b604051632bfa23e760e11b8152908190610d4a9060048301610ba4565b61215c91925060203d8111612163575b612154818361042e565b810190611fb4565b90386120ca565b503d61214a565b939290949194853b61217f575b505050505050565b6121a2602093604051958694859463f23a6e6160e01b998a875260048701611ffa565b038160006001600160a01b0388165af1600091816121e4575b506121c957826120d861204c565b6001600160e01b0319160361211d5750388080808080612177565b6121fd91925060203d811161216357612154818361042e565b90386121bb565b9261223361073095936122419360018060a01b031686526000602087015260a0604087015260a0860190610e44565b908482036060860152610e44565b9160808184039101526106fa565b93906107309593612233916122419460018060a01b03809216885216602087015260a0604087015260a0860190610e44565b9293919093843b612293575050505050565b6020916120b1604051948593849363bc197c8160e01b9889865260048601612204565b939290949194853b6122ca57505050505050565b6121a2602093604051958694859463bc197c8160e01b998a87526004870161224f565b908160209103126103095751610730816102f8565b1561230957565b60405162461bcd60e51b815260206004820152600f60248201526e6f776e2e6e6f6e617574682e44414f60881b6044820152606490fd5b60025460009291612350826105f9565b916001908181169081156123a1575060011461236b57505050565b9091929350600260005260209081600020906000915b85831061239057505050500190565b805485840152918301918101612381565b60ff191683525050811515909102019150565b906123c7602092828151948592016106d7565b0190565b906123d582610451565b6123e2604051918261042e565b82815280926123f3601f1991610451565b0190602036910137565b8115612407570490565b634e487b7160e01b600052601260045260246000fd5b90600460018060a01b036020816003541660405193848092630536340960e21b82525afa90811561055f5761245c9260009261052f5750163314612302565b60005b82518110156124a05760085490600182018092116105d65761248361249b926124b2565b6124966124908286611b4d565b5161278e565b611b31565b61245f565b509050565b919082018092116105d657565b600854600160401b81101561040e576001810180600855811015610dca5760086000526000805160206140ff8339815191520155565b601f81116124f4575050565b6000906002825260208220906020601f850160051c83019410612532575b601f0160051c01915b82811061252757505050565b81815560010161251b565b9092508290612512565b601f8111612548575050565b6000906009825260208220906020601f850160051c83019410612586575b601f0160051c01915b82811061257b57505050565b81815560010161256f565b9092508290612566565b90601f811161259e57505050565b600091825260208220906020601f850160051c830194106125da575b601f0160051c01915b8281106125cf57505050565b8181556001016125c3565b90925082906125ba565b80519091906001600160401b03811161040e5761260b816126066002546105f9565b6124e8565b602080601f8311600114612647575081929360009261263c575b50508160011b916000199060031b1c191617600255565b015190503880612625565b6002600052601f198316949091906000805160206140bf833981519152926000905b8782106126a1575050836001959610612688575b505050811b01600255565b015160001960f88460031b161c1916905538808061267d565b80600185968294968601518155019501930190612669565b80519091906001600160401b03811161040e576126e0816126db6009546105f9565b61253c565b602080601f831160011461271c5750819293600092612711575b50508160011b916000199060031b1c191617600955565b0151905038806126fa565b6009600052601f1983169490919060008051602061411f833981519152926000905b87821061277657505083600195961061275d575b505050811b01600955565b015160001960f88460031b161c19169055388080612752565b8060018596829496860151815501950193019061273e565b60075490600160401b82101561040e5760019081830180600755831015610dca57600760005280516000805160206140df83398151915290930192906020906001600160401b03831161040e576127ef836127e987546105f9565b87612590565b81601f8411600114612828575092829391839260009461281d575b50501b916000199060031b1c1916179055565b01519250388061280a565b919083601f19811661283f88600052602060002090565b946000905b88838310612878575050501061285f575b505050811b019055565b015160001960f88460031b161c19169055388080612855565b858701518855909601959485019487935090810190612844565b6040519061289f826103f3565b601682527567657455736572546f53746f7228616464726573732960501b6020830152565b156128cb57565b60405162461bcd60e51b815260206004820152600f60248201526e37bbb7173ab730baba341739ba37b960891b6044820152606490fd5b1561290957565b60405162461bcd60e51b815260206004820152601260248201527137bbb7173232b330bab63a1739b2b73232b960711b6044820152606490fd5b9293909161295b6001600160a01b0385161515612902565b612963612cd3565b60115460125490828201908183116105d657106129f0576129e5946129df9361299761299285610973956124a5565b601255565b6129a030612c6b565b976129b26129ad88612a2f565b610daf565b50946129c2610a856003546102ec565b9360405198899763b505c66d60e01b60208a015260248901612b66565b82613f51565b506107306001600655565b60405162461bcd60e51b81526020600482015260176024820152761bdc98cc4c4d4d4b9cdd5c1c1b1e4b989c995858da1959604a1b6044820152606490fd5b6000198101919082116105d657565b919082039182116105d657565b60025460009291612a5b826105f9565b908181526001928381169081600014612ab55750600114612a7b57505050565b9092935060026000526020928360002092846000945b838610612aa15750505050010190565b805485870183015294019385908201612a91565b91935050602093945060ff191683830152151560051b010190565b9060009291805491612ae1836105f9565b918282526001938481169081600014612b435750600114612b03575b50505050565b90919394506000526020928360002092846000945b838610612b2f575050505001019038808080612afd565b805485870183015294019385908201612b18565b9294505050602093945060ff191683830152151560051b01019038808080612afd565b9490979591969293610120808752600090600954612b83816105f9565b80928a01526001908181169081600014612c435750600114612bf8575b505086979899612bbd8261010099612bcb940360208c0152612a4b565b9089820360408b0152612ad0565b60608801999099526001600160a01b03948516608088015260a087015260c086015260e085015216910152565b60096000908152925060209060008051602061411f8339815191525b838510612c2e575050505086016101400189612bbd612ba0565b8054858c016101400152938201938101612c14565b60ff1916610140808c019190915292151560051b8a0190920192508b9150612bbd9050612ba0565b6e5af43d82803e903d91602b57fd5bf390763d602d80600a3d3981f3363d3d373d3d3d363d7300000062ffffff8260881c161760005260781b17602052603760096000f0906001600160a01b03821615612cc157565b60405163b06ebf3d60e01b8152600490fd5b600260065414612ce4576002600655565b604051633ee5aeb560e01b8152600490fd5b60a79693612d8b612d9092612d86612d95969561052a612dbf9a612e0c9f8d9f9d90612d51612d7092612d27612cd3565b6001600160a01b0390612d4890612d418584161515612e35565b1515612e7a565b84161515612eb9565b612d6b612d65610a85610a856003546102ec565b15612efc565b61392e565b612d81612d7c33613b27565b612f3f565b613cf4565b6126b9565b6124b2565b61278e565b612da8612da36004546102ec565b612f85565b612db185600c55565b612dba83600e55565b600d55565b612dc881601355565b11612e2857612ddd61ffff61010e5b16601055565b612de86004546102ec565b90612dfe612df4610dcf565b90549060031b1c90565b612e06612039565b92612fa7565b600a80546001600160a01b0319163317905561031c6001600655565b612ddd61ffff60b4612dd7565b15612e3c57565b60405162461bcd60e51b81526020600482015260166024820152751bdc98cc4c4d4d4b9a195e18985cd94b99985a5b195960521b6044820152606490fd5b15612e8157565b60405162461bcd60e51b815260206004820152601060248201526f6f7263313135352e7174792e7a65726f60801b6044820152606490fd5b15612ec057565b60405162461bcd60e51b81526020600482015260146024820152736f7263313135352e6163636f756e742e7a65726f60601b6044820152606490fd5b15612f0357565b60405162461bcd60e51b81526020600482015260146024820152731bdc98cc4c4d4d4b985b1c9958591e4b9a5b9a5d60621b6044820152606490fd5b15612f4657565b60405162461bcd60e51b81526020600482015260176024820152761bdc98cc4c4d4d4b9d5b9cd958dd5c994b99985a5b1959604a1b6044820152606490fd5b600b80546001600160a01b0319166001600160a01b0392909216919091179055565b92916001600160a01b03841691908215611c6957612fc491611f8f565b91600190612fd4828451146135e3565b8251845190818103611bea57505081806000905b613075575b5083510361304b576000602084015160008051602061409f8339815191526130216020880151604051918291339583611b0a565b0390a45b815103613041579060208061031c95930151910151913361207c565b61031c9333612281565b600060405160008051602061407f83398151915233918061306d8989836137a1565b0390a4613025565b84518110156130bd57806130b79160051b6130b06130a88b6130a3602080868d010151958d01015194611ac9565b611ad9565b9182546124a5565b9055611b31565b81612fe8565b612fed565b6040516130ce81610413565b60008152906000368137565b604051906130e7826103f3565b600a82526973687574646f776e282960b01b6020830152565b6040519061310d826103f3565b600a825269706f6f6c4e465431282960b01b6020830152565b90816060910312610309578051916040602083015192015190565b90670de0b6b3a7640000918281029281840414901517156105d657565b90816064029160648304036105d657565b818102929181159184041417156105d657565b6040519061318f826103f3565b600a825269706f6f6c4e465432282960b01b6020830152565b906131c26131b46130c2565b6131bc6130da565b84613ea6565b61332357600e5491601054926131d884826124a5565b831061331a57670de0b6b3a7640000936000926132166132076131f96130c2565b613201613100565b84613db9565b60208082518301019101613126565b806132c7575b5050506132076132379161322e6130c2565b906110c1613182565b95919290938661325d575b5050505050905004600c54808211613258575090565b905090565b61327d9261327261328c9893613278936124a5565b90612a3e565b6123fd565b908161329757505050806124a5565b803880808080613242565b6132c1926132bb6132b56132b0936132b0600c54613141565b61316f565b9161315e565b906123fd565b906124a5565b916132379396916132e8613207946132786132e2898b6124a5565b8c612a3e565b91826132fa575050505b94913861321c565b6133159350906132bb6132b56132b0936132b0600c54613141565b6132f2565b50505050600090565b5050600c5490565b1561333257565b60405162461bcd60e51b815260206004820152601b60248201527a6f776e2e6e6f6e617574682e44414f6f725365637572656261736560281b6044820152606490fd5b600b549091906001600160a01b0390811690831681146134275760085415610dca5760086000526000805160206140ff833981519152546133b69082611af0565b92836133c25750505050565b6134018161340f9561340a94600160ff1960155416176015556133e3610dcf565b939054604051946133f386610413565b6000865260031b1c91611c20565b612d8181612f85565b613552565b61341e60ff1960155416601555565b38808080612afd565b505050565b60405190613439826103f3565b6014825273616c6c6f77466f7263655472616e73666572282960601b6020830152565b90816020910312610309575161073081610fde565b94939291908160005260006020528261348e876040600020611ad9565b5410613513576001600160a01b038616331415806134e0575b6134c4579161031c94959161340a936134be612039565b93611c20565b60405163711bec9160e11b815280610d4a883360048401611c06565b5061350e611d22613507336130a38a60018060a01b03166000526001602052604060002090565b5460ff1690565b6134a7565b60405162461bcd60e51b81526020600482015260176024820152761bdc98cc4c4d4d4b9d1c985b9cd9995c8b99985a5b1959604a1b6044820152606490fd5b8051156135bc576004602061356b610a856003546102ec565b6040516343af1d9d60e01b815292839182905afa801561055f576135bc92610acf926000926135bf575b50604051639e6c4bd160e01b6020820152926135b7918491906024830161071f565b613f51565b50565b6135b79192506135dc9060203d811161055857610549818361042e565b9190613595565b156135ea57565b60405162461bcd60e51b81526020600482015260196024820152781bdc98cc4c4d4d4b98985d18da0b9b9bdd0b985b1b1bddd959603a1b6044820152606490fd5b1561363257565b60405162461bcd60e51b81526020600482015260146024820152731bdc98cc4c4d4d4b9cdd1bdc8b9a5b9d985b1a5960621b6044820152606490fd5b1561367557565b60405162461bcd60e51b815260206004820152600f60248201526e6f7263313135352e6c65737351747960881b6044820152606490fd5b604051906136b9826103f3565b600882526769734c6f636b282960c01b6020830152565b156136d757565b60405162461bcd60e51b815260206004820152601060248201526f6f7263313135352e696e61637469766560801b6044820152606490fd5b1561371657565b60405162461bcd60e51b815260206004820152600e60248201526d1bdc98cc4c4d4d4b9b1bd8dad95960921b6044820152606490fd5b60405190613759826103f3565b600c82526b6d61784e465453656e64282960a01b6020830152565b60405190613781826103f3565b60118252704e465453656e645065724379636c65282960781b6020830152565b90916137b861073093604084526040840190610e44565b916020818403910152610e44565b9392918051835190818103611bea57505060005b81518110156138ad57600581901b82810160209081015191860101516001600160a01b039291859089851661383c575b61381d948216613822575b505050611b31565b6137da565b613832916130a36130a892611ac9565b9055388481613815565b919293905061384e896130a384611ac9565b54838110613876579186918461381d9695940361386e8c6130a385611ac9565b55945061380a565b6040516303dee4c560e01b81526001600160a01b038b16600482015260248101919091526044810184905260648101839052608490fd5b5080519394939192916001036138fd576020908101519101516040516001600160a01b039384169490931692339260008051602061409f8339815191529282916138f8919083611b0a565b0390a4565b6040516001600160a01b039384169490931692339260008051602061407f8339815191529282916138f891836137a1565b6001600160a01b0390811690811561397c57600380546001600160a01b031981168417909155167fe939feee179e631422bcc8f6e6d7d908cb3f8af38f5372f17c77e15aea5c80ee600080a3565b60405162461bcd60e51b81526020600482015260136024820152726f776e2e696e76616c69642e6865786261736560681b6044820152606490fd5b156139be57565b60405162461bcd60e51b81526020600482015260196024820152781bdddb8b9cd8599959dd585c990b98d85b1b0b99985a5b1959603a1b6044820152606490fd5b600354604051634bf9c0ad60e11b8152906020908190839060049082906001600160a01b03165afa91821561055f5761073092613a7591600091613a90575b50604051613a4b816103f3565b6008815267697353616665282960c01b8482015260405191613a6c83610413565b60008352613de4565b919080613a86575b610afc906139b7565b5081518114613a7d565b613aa79150833d851161055857610549818361042e565b38613a3e565b60405190613aba826103f3565b601582527469735365637572654261736528616464726573732960581b6020830152565b15613ae557565b60405162461bcd60e51b815260206004820152601a6024820152791bdddb8b9cd958dd5c9958985cd94b98d85b1b0b99985a5b195960321b6044820152606490fd5b613b35610a856003546102ec565b604051918291634bf9c0ad60e11b835282600460209485935afa92831561055f5761073093613b8592610acf92600092613ba0575b50613b7d90604051938491878301610ba4565b610ae5613aad565b919080613b96575b610afc90613ade565b5081518114613b8d565b613b7d919250613bbc90863d881161055857610549818361042e565b9190613b6a565b60405190613bd0826103f3565b601182527069735369676e657228616464726573732960781b6020830152565b15613bf757565b60405162461bcd60e51b81526020600482015260166024820152751bdddb8b9cda59db995c8b98d85b1b0b99985a5b195960521b6044820152606490fd5b60035460405163111ea8c160e21b815290602090829060049082906001600160a01b03165afa801561055f5761073091600091613ca2575b50604051613c7a816103f3565b6005815264616765282960d81b602082015260405191613c9983610413565b60008352613ee2565b613cba915060203d811161055857610549818361042e565b38613c6d565b60405190613ccd826103f3565b6018825277697364656c656761746f724e6f646528616464726573732960401b6020830152565b6001600160a01b03908116908115613d4257600480546001600160a01b031981168417909155167f8292fce18fa69edf4db7b94ea2e58241df0ae57f97e0a6c9b29067028bf92d76600080a3565b60405162461bcd60e51b815260206004820152601160248201527037bbb71734b73b30b634b21737bbb732b960791b6044820152606490fd5b15613d8257565b60405162461bcd60e51b815260206004820152600f60248201526e1bdddb8b989d5c9b8b99985a5b1959608a1b6044820152606490fd5b90613dc49291613de4565b9060009015613dd1575090565b6040519150613ddf82610413565b815290565b803b15613e4957600092839263ffffffff60e01b90602081519101201690613e366024604051809360208201958652613e2681518092602086860191016106d7565b810103600481018452018261042e565b5191620dbba0fa613e4561204c565b9091565b505050600090604051613e5b81610413565b6000815290565b9291613e7091600094613de4565b9080613e9b575b613e7e5750565b90915060208180518101031261030957602001516102ec816102f8565b506020815114613e77565b9291613eb491600094613de4565b9080613ed7575b613ec25750565b6107309192506020808251830101910161345c565b506020815114613ebb565b9291613ef091600094613de4565b9080613f15575b613efe5750565b909150602081805181010312610309576020015190565b506020815114613ef7565b906020825192015163ffffffff60e01b908181169360048110613f4257505050565b60040360031b82901b16169150565b6001600160a01b03811615613fd257600080918351908260208601915af190613f7861204c565b9115613f82575090565b805160009190600411613fcc57613f999150613f20565b815115613fa95750805190602001fd5b604051630870274d60e21b81526001600160e01b03199091166004820152602490fd5b50613f99565b60405162461bcd60e51b81526020600482015260126024820152711bdddb8b9a5b9d985b1a590b9d185c99d95d60721b6044820152606490fd5b803b600061401982610451565b92614027604051948561042e565b82845260208401903c602d81511061404357602a015160601c90565b60405162461bcd60e51b81526020600482015260136024820152724e6f742061206d696e696d616c2070726f787960681b6044820152606490fdfe4a39dc06d4c0dbc64b70af90fd698a233a518aa5d07e595d983b8c0526c8f7fbc3d58168c5ae7397731d063d5bbf3d657854427343f4c083240f7aacaa2d0f62405787fa12a823e0f2b7631cc41b3ba8828b3321ca811111fa75cd3aa3bb5acea66cc928b5edb82af9bd49922954155ab7b0942694bea4ce44661d9a8736c688f3f7a9fe364faab93b216da50a3214154f22a0a2b415b23a84c8169e8b636ee36e1540171b6c0c960b71a7020d9f60077f6af931a8bbf590da0223dacf75c7afa26469706673582212204ce13eb7cb84711b8551a0442a77e5c01a9246627e9b57dd701da0a0dfefe8b264736f6c63430008140033","linkReferences":{}},"methodIdentifiers":{"Burn(uint256)":"b90306ad","_delegatorCount()":"a1f7f539","_getImplementation(address)":"c54e44b0","_isDelegatorNode(address)":"e01ad5fd","_isSafe()":"e0a9bc2b","_isSecureBase(address)":"af484526","_isSigner(address)":"1f185d16","_uri()":"0dccc9ad","addToken(string[])":"abbbf8d7","balanceOf(address,uint256)":"00fdd58e","balanceOfBatch(address[],uint256[])":"4e1273f4","claimed()":"e834a834","clonedOf()":"2defa859","curSupply()":"5fac2d9d","getBalance()":"12065fe0","getHexbase()":"3b9b7955","getNames(uint256)":"5718e17b","getTokenCount()":"78a89567","getUnlockedNFT()":"06eb36db","ids(uint256)":"fac333ac","isApprovedForAll(address,address)":"e985e9c5","isSecuredNFT(address)":"edd38c01","lastTransferDay()":"18dcfd71","mintedAge()":"f9ffedb7","mintedUser()":"fcf56368","mintedfee()":"f356eedb","mintedqty()":"6c51797b","name()":"06fdde03","names(uint256)":"4622ab03","onTokenImport(address,bytes)":"f526f68a","onTokenTransfer(address,address,uint256,uint256,bool,bytes)":"7eb1a738","owner()":"8da5cb5b","postinit(string,string,string,uint256,address,uint256,uint256,uint256,address)":"b505c66d","preinit(address,uint256,uint256,uint256,uint256)":"c85700fb","safeBatchTransferFrom(address,address,uint256[],uint256[],bytes)":"2eb2c2d6","safeTransferFrom(address,address,uint256,uint256,bytes)":"f242432a","setApprovalForAll(address,bool)":"a22cb465","setURI(string)":"02fe5305","setcurSupply(uint256)":"2796f7c6","setsupply(uint256)":"d878fe10","supportsInterface(bytes4)":"01ffc9a7","systemAge()":"fdc10bc9","totSupply()":"81fbf0a5","totalNFTSent()":"c3c916d9","uri(uint256)":"0e89341c"},"id":30}