{"abi":[{"type":"constructor","inputs":[{"name":"_contractName","type":"string","internalType":"string"},{"name":"baseURI_","type":"string","internalType":"string"},{"name":"_supply","type":"uint256","internalType":"uint256"},{"name":"_names","type":"string[]","internalType":"string[]"},{"name":"_hex","type":"address","internalType":"address"}],"stateMutability":"nonpayable"},{"type":"fallback","stateMutability":"payable"},{"type":"receive","stateMutability":"payable"},{"type":"function","name":"Burn","inputs":[{"name":"amount","type":"uint256","internalType":"uint256"}],"outputs":[],"stateMutability":"nonpayable"},{"type":"function","name":"_delegatorCount","inputs":[],"outputs":[{"name":"","type":"uint256","internalType":"uint256"}],"stateMutability":"view"},{"type":"function","name":"_getImplementation","inputs":[{"name":"clone","type":"address","internalType":"address"}],"outputs":[{"name":"impl","type":"address","internalType":"address"}],"stateMutability":"view"},{"type":"function","name":"_isDelegatorNode","inputs":[{"name":"sender","type":"address","internalType":"address"}],"outputs":[{"name":"","type":"bool","internalType":"bool"}],"stateMutability":"view"},{"type":"function","name":"_isSafe","inputs":[],"outputs":[{"name":"","type":"bool","internalType":"bool"}],"stateMutability":"view"},{"type":"function","name":"_isSecureBase","inputs":[{"name":"sender","type":"address","internalType":"address"}],"outputs":[{"name":"","type":"bool","internalType":"bool"}],"stateMutability":"view"},{"type":"function","name":"_isSigner","inputs":[{"name":"sender","type":"address","internalType":"address"}],"outputs":[{"name":"","type":"bool","internalType":"bool"}],"stateMutability":"view"},{"type":"function","name":"_uri","inputs":[],"outputs":[{"name":"","type":"string","internalType":"string"}],"stateMutability":"view"},{"type":"function","name":"addToken","inputs":[{"name":"_names","type":"string[]","internalType":"string[]"}],"outputs":[],"stateMutability":"nonpayable"},{"type":"function","name":"balanceOf","inputs":[{"name":"account","type":"address","internalType":"address"},{"name":"id","type":"uint256","internalType":"uint256"}],"outputs":[{"name":"","type":"uint256","internalType":"uint256"}],"stateMutability":"view"},{"type":"function","name":"balanceOfBatch","inputs":[{"name":"accounts","type":"address[]","internalType":"address[]"},{"name":"ids","type":"uint256[]","internalType":"uint256[]"}],"outputs":[{"name":"","type":"uint256[]","internalType":"uint256[]"}],"stateMutability":"view"},{"type":"function","name":"claimed","inputs":[],"outputs":[{"name":"","type":"uint256","internalType":"uint256"}],"stateMutability":"view"},{"type":"function","name":"clonedOf","inputs":[],"outputs":[{"name":"","type":"address","internalType":"address"}],"stateMutability":"view"},{"type":"function","name":"curSupply","inputs":[],"outputs":[{"name":"","type":"uint256","internalType":"uint256"}],"stateMutability":"view"},{"type":"function","name":"getBalance","inputs":[],"outputs":[{"name":"","type":"uint256","internalType":"uint256"}],"stateMutability":"view"},{"type":"function","name":"getHexbase","inputs":[],"outputs":[{"name":"","type":"address","internalType":"address"}],"stateMutability":"view"},{"type":"function","name":"getNames","inputs":[{"name":"inx","type":"uint256","internalType":"uint256"}],"outputs":[{"name":"","type":"string","internalType":"string"}],"stateMutability":"view"},{"type":"function","name":"getTokenCount","inputs":[],"outputs":[{"name":"","type":"uint256","internalType":"uint256"}],"stateMutability":"view"},{"type":"function","name":"getUnlockedNFT","inputs":[],"outputs":[{"name":"_NFT","type":"uint256","internalType":"uint256"}],"stateMutability":"view"},{"type":"function","name":"ids","inputs":[{"name":"","type":"uint256","internalType":"uint256"}],"outputs":[{"name":"","type":"uint256","internalType":"uint256"}],"stateMutability":"view"},{"type":"function","name":"isApprovedForAll","inputs":[{"name":"account","type":"address","internalType":"address"},{"name":"operator","type":"address","internalType":"address"}],"outputs":[{"name":"","type":"bool","internalType":"bool"}],"stateMutability":"view"},{"type":"function","name":"isSecuredNFT","inputs":[{"name":"orc1155","type":"address","internalType":"address"}],"outputs":[{"name":"","type":"bool","internalType":"bool"}],"stateMutability":"view"},{"type":"function","name":"lastTransferDay","inputs":[],"outputs":[{"name":"","type":"uint256","internalType":"uint256"}],"stateMutability":"view"},{"type":"function","name":"mintedAge","inputs":[],"outputs":[{"name":"","type":"uint256","internalType":"uint256"}],"stateMutability":"view"},{"type":"function","name":"mintedUser","inputs":[],"outputs":[{"name":"","type":"address","internalType":"address"}],"stateMutability":"view"},{"type":"function","name":"mintedfee","inputs":[],"outputs":[{"name":"","type":"uint256","internalType":"uint256"}],"stateMutability":"view"},{"type":"function","name":"mintedqty","inputs":[],"outputs":[{"name":"","type":"uint256","internalType":"uint256"}],"stateMutability":"view"},{"type":"function","name":"name","inputs":[],"outputs":[{"name":"","type":"string","internalType":"string"}],"stateMutability":"view"},{"type":"function","name":"names","inputs":[{"name":"","type":"uint256","internalType":"uint256"}],"outputs":[{"name":"","type":"string","internalType":"string"}],"stateMutability":"view"},{"type":"function","name":"onTokenImport","inputs":[{"name":"_to","type":"address","internalType":"address"},{"name":"payload","type":"bytes","internalType":"bytes"}],"outputs":[],"stateMutability":"nonpayable"},{"type":"function","name":"onTokenTransfer","inputs":[{"name":"_from","type":"address","internalType":"address"},{"name":"_to","type":"address","internalType":"address"},{"name":"_id","type":"uint256","internalType":"uint256"},{"name":"_qty","type":"uint256","internalType":"uint256"},{"name":"_byforce","type":"bool","internalType":"bool"},{"name":"payload","type":"bytes","internalType":"bytes"}],"outputs":[],"stateMutability":"nonpayable"},{"type":"function","name":"owner","inputs":[],"outputs":[{"name":"","type":"address","internalType":"address"}],"stateMutability":"view"},{"type":"function","name":"postinit","inputs":[{"name":"_contractName","type":"string","internalType":"string"},{"name":"baseURI_","type":"string","internalType":"string"},{"name":"_nName","type":"string","internalType":"string"},{"name":"_nid","type":"uint256","internalType":"uint256"},{"name":"_account","type":"address","internalType":"address"},{"name":"_qty","type":"uint256","internalType":"uint256"},{"name":"_fee","type":"uint256","internalType":"uint256"},{"name":"_ag","type":"uint256","internalType":"uint256"},{"name":"_hex","type":"address","internalType":"address"}],"outputs":[],"stateMutability":"payable"},{"type":"function","name":"preinit","inputs":[{"name":"_account","type":"address","internalType":"address"},{"name":"_id","type":"uint256","internalType":"uint256"},{"name":"_qty","type":"uint256","internalType":"uint256"},{"name":"_fee","type":"uint256","internalType":"uint256"},{"name":"_ag","type":"uint256","internalType":"uint256"}],"outputs":[{"name":"","type":"address","internalType":"address"}],"stateMutability":"payable"},{"type":"function","name":"safeBatchTransferFrom","inputs":[{"name":"from","type":"address","internalType":"address"},{"name":"to","type":"address","internalType":"address"},{"name":"ids","type":"uint256[]","internalType":"uint256[]"},{"name":"values","type":"uint256[]","internalType":"uint256[]"},{"name":"data","type":"bytes","internalType":"bytes"}],"outputs":[],"stateMutability":"nonpayable"},{"type":"function","name":"safeTransferFrom","inputs":[{"name":"from","type":"address","internalType":"address"},{"name":"to","type":"address","internalType":"address"},{"name":"id","type":"uint256","internalType":"uint256"},{"name":"value","type":"uint256","internalType":"uint256"},{"name":"data","type":"bytes","internalType":"bytes"}],"outputs":[],"stateMutability":"nonpayable"},{"type":"function","name":"setApprovalForAll","inputs":[{"name":"operator","type":"address","internalType":"address"},{"name":"approved","type":"bool","internalType":"bool"}],"outputs":[],"stateMutability":"nonpayable"},{"type":"function","name":"setURI","inputs":[{"name":"newuri","type":"string","internalType":"string"}],"outputs":[],"stateMutability":"nonpayable"},{"type":"function","name":"setcurSupply","inputs":[{"name":"_s","type":"uint256","internalType":"uint256"}],"outputs":[],"stateMutability":"nonpayable"},{"type":"function","name":"setsupply","inputs":[{"name":"_s","type":"uint256","internalType":"uint256"}],"outputs":[],"stateMutability":"nonpayable"},{"type":"function","name":"supportsInterface","inputs":[{"name":"interfaceId","type":"bytes4","internalType":"bytes4"}],"outputs":[{"name":"","type":"bool","internalType":"bool"}],"stateMutability":"view"},{"type":"function","name":"syncBaseAddr","inputs":[],"outputs":[],"stateMutability":"nonpayable"},{"type":"function","name":"systemAge","inputs":[],"outputs":[{"name":"","type":"uint256","internalType":"uint256"}],"stateMutability":"view"},{"type":"function","name":"totSupply","inputs":[],"outputs":[{"name":"","type":"uint256","internalType":"uint256"}],"stateMutability":"view"},{"type":"function","name":"totalNFTSent","inputs":[],"outputs":[{"name":"","type":"uint256","internalType":"uint256"}],"stateMutability":"view"},{"type":"function","name":"uri","inputs":[{"name":"_tokenid","type":"uint256","internalType":"uint256"}],"outputs":[{"name":"","type":"string","internalType":"string"}],"stateMutability":"view"},{"type":"event","name":"ApprovalForAll","inputs":[{"name":"account","type":"address","indexed":true,"internalType":"address"},{"name":"operator","type":"address","indexed":true,"internalType":"address"},{"name":"approved","type":"bool","indexed":false,"internalType":"bool"}],"anonymous":false},{"type":"event","name":"EthBurned","inputs":[{"name":"sender","type":"address","indexed":true,"internalType":"address"},{"name":"amount","type":"uint256","indexed":false,"internalType":"uint256"}],"anonymous":false},{"type":"event","name":"EthTransferred","inputs":[{"name":"to","type":"address","indexed":true,"internalType":"address"},{"name":"amount","type":"uint256","indexed":false,"internalType":"uint256"}],"anonymous":false},{"type":"event","name":"HexBaseUpdated","inputs":[{"name":"previousHexBase","type":"address","indexed":true,"internalType":"address"},{"name":"newHexBase","type":"address","indexed":true,"internalType":"address"}],"anonymous":false},{"type":"event","name":"OwnerUpdated","inputs":[{"name":"previousOwner","type":"address","indexed":true,"internalType":"address"},{"name":"newOwner","type":"address","indexed":true,"internalType":"address"}],"anonymous":false},{"type":"event","name":"TransferBatch","inputs":[{"name":"operator","type":"address","indexed":true,"internalType":"address"},{"name":"from","type":"address","indexed":true,"internalType":"address"},{"name":"to","type":"address","indexed":true,"internalType":"address"},{"name":"ids","type":"uint256[]","indexed":false,"internalType":"uint256[]"},{"name":"values","type":"uint256[]","indexed":false,"internalType":"uint256[]"}],"anonymous":false},{"type":"event","name":"TransferSingle","inputs":[{"name":"operator","type":"address","indexed":true,"internalType":"address"},{"name":"from","type":"address","indexed":true,"internalType":"address"},{"name":"to","type":"address","indexed":true,"internalType":"address"},{"name":"id","type":"uint256","indexed":false,"internalType":"uint256"},{"name":"value","type":"uint256","indexed":false,"internalType":"uint256"}],"anonymous":false},{"type":"event","name":"URI","inputs":[{"name":"value","type":"string","indexed":false,"internalType":"string"},{"name":"id","type":"uint256","indexed":true,"internalType":"uint256"}],"anonymous":false},{"type":"error","name":"CallFailed","inputs":[]},{"type":"error","name":"ERC1155InsufficientBalance","inputs":[{"name":"sender","type":"address","internalType":"address"},{"name":"balance","type":"uint256","internalType":"uint256"},{"name":"needed","type":"uint256","internalType":"uint256"},{"name":"tokenId","type":"uint256","internalType":"uint256"}]},{"type":"error","name":"ERC1155InvalidApprover","inputs":[{"name":"approver","type":"address","internalType":"address"}]},{"type":"error","name":"ERC1155InvalidArrayLength","inputs":[{"name":"idsLength","type":"uint256","internalType":"uint256"},{"name":"valuesLength","type":"uint256","internalType":"uint256"}]},{"type":"error","name":"ERC1155InvalidOperator","inputs":[{"name":"operator","type":"address","internalType":"address"}]},{"type":"error","name":"ERC1155InvalidReceiver","inputs":[{"name":"receiver","type":"address","internalType":"address"}]},{"type":"error","name":"ERC1155InvalidSender","inputs":[{"name":"sender","type":"address","internalType":"address"}]},{"type":"error","name":"ERC1155MissingApprovalForAll","inputs":[{"name":"operator","type":"address","internalType":"address"},{"name":"owner","type":"address","internalType":"address"}]},{"type":"error","name":"FailedDeployment","inputs":[]},{"type":"error","name":"InsufficientBalance","inputs":[{"name":"balance","type":"uint256","internalType":"uint256"},{"name":"needed","type":"uint256","internalType":"uint256"}]},{"type":"error","name":"InvalidAddress","inputs":[]},{"type":"error","name":"InvalidState","inputs":[]},{"type":"error","name":"NotAuthorized","inputs":[]},{"type":"error","name":"NotSafe","inputs":[]},{"type":"error","name":"ReentrancyGuardReentrantCall","inputs":[]},{"type":"error","name":"TargetCallFailed","inputs":[{"name":"selector","type":"bytes4","internalType":"bytes4"}]}],"bytecode":{"object":"0x60806040523462000657576200506a803803806200001d8162000685565b92833981019060a081830312620006575780516001600160401b03919082811162000657578362000050918301620006ab565b926020808301518481116200065757826200006d918501620006ab565b93604084015160608501518281116200065757850194601f908582880112156200065757865195848711620006415760059787891b8780620000b181840162000685565b809b81520191830101928084116200065757888301915b8483106200065c575050505050608001519460018060a01b0386168096036200065757875184811162000641576002546001998a82811c9216801562000636575b8883101462000620578185849311620005cb575b508790858311600114620005615760009262000555575b5050600019600383901b1c191690891b176002555b8515620005435760018060a01b03199260049633858954161788556003948554161784558860145589518581116200052e576017548a81811c9116801562000523575b888210146200050e57848111620004c4575b5086848211600114620004565781908b9c60009c9b9c926200044a575b505060001982871b1c191690891b176017559697965b601e556000985b620001ee575b60405161494c90816200071e8239f35b8051891015620004445760168054898101908181116200042f576801000000000000000092838210156200041a5782815582821015620004055760005287600020015581518a1015620003f057858a891b83010151906015805491821015620003c6578a8201808255821015620003db57600052866000200190805190868211620003c65782548b81811c91168015620003bb575b89821014620003a6578581116200035d575b508790858311600114620002f6576000919083620002ea575b505060001982871b1c1916908a1b1790555b6000198914620002d5579787019787620001d8565b601186634e487b7160e01b6000525260246000fd5b015190503880620002ae565b90601f1983169184600052896000209260005b81811062000347575090848e95949392106200032e575b505050811b019055620002c0565b015160001983891b60f8161c1916905538808062000320565b828401518555938e0193928b01928b0162000309565b8360005288600020868085018d1c8201928b86106200039c575b018c1c01908c905b8281106200038f57505062000295565b60008155018c906200037f565b9250819262000377565b60228a634e487b7160e01b6000525260246000fd5b90607f169062000283565b604189634e487b7160e01b6000525260246000fd5b603289634e487b7160e01b6000525260246000fd5b603287634e487b7160e01b6000525260246000fd5b60328a634e487b7160e01b6000525260246000fd5b60418a634e487b7160e01b6000525260246000fd5b601189634e487b7160e01b6000525260246000fd5b620001de565b015190503880620001bb565b601f1982169b6017600052886000209c60005b818110620004ae5750918c9d91848e9d9e95941062000495575b505050811b01601755979697620001d1565b015160001983891b60f8161c1916905538808062000483565b828401518f559d8d019d928a01928a0162000469565b601760005287600020858084018c1c8201928a851062000504575b018b1c01908b905b828110620004f75750506200019e565b60008155018b90620004e7565b92508192620004df565b602289634e487b7160e01b6000525260246000fd5b90607f16906200018c565b604188634e487b7160e01b6000525260246000fd5b60405163e6c4247b60e01b8152600490fd5b01519050388062000134565b908b9350601f198316916002600052896000209260005b8b828210620005b457505084116200059a575b505050811b0160025562000149565b015160001960f88460031b161c191690553880806200058b565b8385015186558f9790950194938401930162000578565b909150600260005287600020858085018c1c8201928a861062000616575b918d9186959493018d1c01915b828110620006065750506200011d565b600081558594508d9101620005f6565b92508192620005e9565b634e487b7160e01b600052602260045260246000fd5b91607f169162000109565b634e487b7160e01b600052604160045260246000fd5b600080fd5b825189811162000657578a916200067984848094890101620006ab565b815201920191620000c8565b6040519190601f01601f191682016001600160401b038111838210176200064157604052565b919080601f84011215620006575782516001600160401b0381116200064157602090620006e1601f8201601f1916830162000685565b92818452828287010111620006575760005b8181106200070957508260009394955001015290565b8581018301518482018401528201620006f356fe60806040526004361015610018575b361561001657005b005b60003560e01c8062fdd58e146102f757806301ffc9a7146102f257806302fe5305146102ed57806306eb36db146102e857806306fdde03146102e35780630dccc9ad146102de5780630e89341c146102d957806312065fe0146102d457806318dcfd71146102cf5780631f185d16146102ca5780632796f7c6146102c55780632defa859146102c05780632eb2c2d6146102bb578063339459a6146102b65780633b9b7955146102b15780634622ab03146102ac5780634e1273f4146102a75780635718e17b146102a25780635fac2d9d1461029d5780636c51797b1461029857806378a89567146102935780637eb1a7381461028e57806381fbf0a5146102895780638da5cb5b14610284578063a1f7f5391461027f578063a22cb4651461027a578063abbbf8d714610275578063af48452614610270578063b505c66d1461026b578063b90306ad14610266578063c3c916d914610261578063c54e44b01461025c578063c85700fb14610257578063d878fe1014610252578063e01ad5fd1461024d578063e0a9bc2b14610248578063e834a83414610243578063e985e9c51461023e578063edd38c0114610239578063f242432a14610234578063f356eedb1461022f578063f526f68a1461022a578063f9ffedb714610225578063fac333ac14610220578063fcf563681461021b5763fdc10bc90361000e57611b25565b611afe565b611aad565b611a8f565b6119dd565b6119bf565b6118ed565b61189e565b611834565b611816565b6117fb565b61177b565b611750565b61160c565b6115d4565b6115b6565b611496565b611409565b6113d8565b611338565b611264565b6111ef565b6111c8565b6111aa565b61106f565b611047565b611029565b61100b565b610fba565b610efe565b610e54565b610da7565b610d8e565b610c51565b610bb4565b610b89565b610aa2565b610a85565b610a69565b6108b2565b61080b565b610726565b6105af565b610539565b610386565b610322565b6001600160a01b0381160361030d57565b600080fd5b6101043590610320826102fc565b565b3461030d57604036600319011261030d57602061036b600435610344816102fc565b602435600052600083526040600020906001600160a01b0316600052602052604060002090565b54604051908152f35b6001600160e01b031981160361030d57565b3461030d57602036600319011261030d5760206001600160e01b03196004356103ae81610374565b167fd9b67a26000000000000000000000000000000000000000000000000000000008114908115610416575b81156103ec575b506040519015158152f35b7f01ffc9a700000000000000000000000000000000000000000000000000000000915014386103e1565b7f0e89341c00000000000000000000000000000000000000000000000000000000811491506103da565b634e487b7160e01b600052604160045260246000fd5b6040810190811067ffffffffffffffff82111761047257604052565b610440565b6020810190811067ffffffffffffffff82111761047257604052565b90601f8019910116810190811067ffffffffffffffff82111761047257604052565b604051906101e0820182811067ffffffffffffffff82111761047257604052565b67ffffffffffffffff811161047257601f01601f191660200190565b81601f8201121561030d57803590610509826104d6565b926105176040519485610493565b8284526020838301011161030d57816000926020809301838601378301015290565b3461030d57602036600319011261030d5760043567ffffffffffffffff811161030d5761056a9036906004016104f2565b6001600160a01b0360085416330361058557610016906125de565b60046040517fea8e4eb5000000000000000000000000000000000000000000000000000000008152fd5b3461030d57600036600319011261030d576105d06105cb6145d8565b61319b565b601d5481039081116105e757602090604051908152f35b611b6d565b90600182811c9216801561061c575b602083101461060657565b634e487b7160e01b600052602260045260246000fd5b91607f16916105fb565b906040519182600082549261063a846105ec565b9081845260019485811690816000146106a75750600114610664575b505061032092500383610493565b9093915060005260209081600020936000915b81831061068f57505061032093508201013880610656565b85548884018501529485019487945091830191610677565b91505061032094506020925060ff191682840152151560051b8201013880610656565b60005b8381106106dd5750506000910152565b81810151838201526020016106cd565b90602091610706815180928185528580860191016106ca565b601f01601f1916010190565b9060206107239281815201906106ed565b90565b3461030d57600080600319360112610808576040519080601754610749816105ec565b808552916001918083169081156107de5750600114610783575b61077f8561077381870382610493565b60405191829182610712565b0390f35b9250601783527fc624b66cc0138b8fabc209247f72d758e1cf3343756d543badbf24212bed8c155b8284106107c65750505081016020016107738261077f610763565b805460208587018101919091529093019281016107ab565b86955061077f9693506020925061077394915060ff191682840152151560051b8201019293610763565b80fd5b3461030d5760008060031936011261080857604051908060025461082e816105ec565b808552916001918083169081156107de57506001146108575761077f8561077381870382610493565b9250600283527f405787fa12a823e0f2b7631cc41b3ba8828b3321ca811111fa75cd3aa3bb5ace5b82841061089a5750505081016020016107738261077f610763565b8054602085870181019190915290930192810161087f565b3461030d57602036600319011261030d576000600435807a184f03e93ff9f4daa797ed6e38ed64bf6a1f01000000000000000080821015610a5b575b506d04ee2d6d415b85acef810000000080831015610a4c575b50662386f26fc1000080831015610a3d575b506305f5e10080831015610a2e575b5061271080831015610a1f575b506064821015610a0f575b600a80921015610a05575b60019081602161095c8287016123a0565b95860101905b6109c2575b60405161077f90610773816109b461098b8a610985602085016122fa565b90612389565b7f2e6a736f6e000000000000000000000000000000000000000000000000000000815260050190565b03601f198101835282610493565b600019019083907f30313233343536373839616263646566000000000000000000000000000000008282061a835304918215610a0057919082610962565b610967565b916001019161094b565b9190606460029104910191610940565b60049193920491019138610935565b60089193920491019138610928565b60109193920491019138610919565b60209193920491019138610907565b6040935081049150386108ee565b3461030d57600036600319011261030d57602047604051908152f35b3461030d57600036600319011261030d5760208054604051908152f35b3461030d5760208060031936011261030d57610b21600435610ac3816102fc565b6001600160a01b03806005541690604051921684830152838252610ae682610456565b60405190610af382610456565b601182527f69735369676e6572286164647265737329000000000000000000000000000000858301526146a2565b919080610b7f575b15610b55578181610b439261077f94518301019101613468565b60405190151581529081906020820190565b60046040517f3204506f000000000000000000000000000000000000000000000000000000008152fd5b5080825114610b29565b3461030d57602036600319011261030d576001600160a01b0360085416330361058557600435601f55005b3461030d57600036600319011261030d5760206001600160a01b0360185416604051908152f35b67ffffffffffffffff81116104725760051b60200190565b81601f8201121561030d57803591610c0a83610bdb565b92610c186040519485610493565b808452602092838086019260051b82010192831161030d578301905b828210610c42575050505090565b81358152908301908301610c34565b3461030d5760a036600319011261030d5760048035610c6f816102fc565b602435610c7b816102fc565b67ffffffffffffffff9060443582811161030d57610c9c9036908601610bf3565b9060643583811161030d57610cb49036908701610bf3565b9260843590811161030d57610ccc90369087016104f2565b936001600160a01b03808216903382141580610d59575b610d2c57831615610d145715610cfd576100169550611cf5565b602486600060405191626a0d4560e21b8352820152fd5b602487600060405191632bfa23e760e11b8352820152fd5b6040805163711bec9160e11b815233818b019081526001600160a01b038616602082015290918291010390fd5b5081600052600160205260ff610d86336040600020906001600160a01b0316600052602052604060002090565b541615610ce3565b3461030d57600036600319011261030d57610016613e03565b3461030d57600036600319011261030d5760206001600160a01b0360035416604051908152f35b634e487b7160e01b600052603260045260246000fd5b601554811015610e1b5760156000527f55f448fdea98c4d29eb340757ef0a66cd03dbb9538908a6a81d96026b71ec4750190600090565b610dce565b60165415610e1b5760166000527fd833147d7dc355ba459fc788f669e58cfaf9dc25ddcd0702e87d69c7b512428990600090565b3461030d57602036600319011261030d5760043560155481101561030d57610ea561077f9160156000527f55f448fdea98c4d29eb340757ef0a66cd03dbb9538908a6a81d96026b71ec47501610626565b6040519182916020835260208301906106ed565b90815180825260208080930193019160005b828110610ed9575050505090565b835185529381019392810192600101610ecb565b906020610723928181520190610eb9565b3461030d57604036600319011261030d5760043567ffffffffffffffff80821161030d573660238301121561030d578160040135610f3b81610bdb565b92610f496040519485610493565b81845260209160248386019160051b8301019136831161030d57602401905b828210610fa1578560243586811161030d5761077f91610f8f610f95923690600401610bf3565b90611bb3565b60405191829182610eed565b8380918335610faf816102fc565b815201910190610f68565b3461030d57602036600319011261030d57600435601554811015610e1b57610ea561077f9160156000527f55f448fdea98c4d29eb340757ef0a66cd03dbb9538908a6a81d96026b71ec47501610626565b3461030d57600036600319011261030d576020601f54604051908152f35b3461030d57600036600319011261030d576020601a54604051908152f35b3461030d57600036600319011261030d576020601654604051908152f35b8015150361030d57565b3461030d5760c036600319011261030d5760043561108c816102fc565b602435611098816102fc565b60443560643590608435926110ac84611065565b60a43567ffffffffffffffff811161030d576110cc9036906004016104f2565b936001600160a01b03908183161561118057818716156111805715611176579061115161114261116a96959493600654166111056130ae565b906040519061111382610456565b601482527f616c6c6f77466f7263655472616e7366657228290000000000000000000000006020830152614677565b60208082518301019101613468565b15159560ff199660ff886022541691161760225561347d565b60225416602255600080f35b506100169461347d565b60046040517fe6c4247b000000000000000000000000000000000000000000000000000000008152fd5b3461030d57600036600319011261030d576020601e54604051908152f35b3461030d57600036600319011261030d5760206001600160a01b0360045416604051908152f35b3461030d57600036600319011261030d57602061125c6001600160a01b036009541660405161121d81610456565b601381527f67657464656c656761746f72436f756e74282900000000000000000000000000848201526040519161125383610477565b600083526147aa565b604051908152f35b3461030d57604036600319011261030d57600435611281816102fc565b60243561128d81611065565b6001600160a01b038216918215611307576112c8903360005260016020526040600020906001600160a01b0316600052602052604060002090565b9015159060ff1981541660ff83161790556040519081527f17307eab39ab6107e8899845ad3d59bd9653f200f220920489ca2b5937696c3160203392a3005b60246040517fced3e10000000000000000000000000000000000000000000000000000000000815260006004820152fd5b3461030d5760208060031936011261030d5767ffffffffffffffff60043581811161030d573660238201121561030d57806004013561137681610bdb565b926113846040519485610493565b818452848401906024809360051b8501019336851161030d57838101925b8584106113b257610016876123f2565b833583811161030d5788916113cd83928836918701016104f2565b8152019301926113a2565b3461030d57602036600319011261030d5760206113ff6004356113fa816102fc565b61454e565b6040519015158152f35b61012036600319011261030d5767ffffffffffffffff60043581811161030d576114379036906004016104f2565b60243582811161030d5761144f9036906004016104f2565b9060443592831161030d5761146b6100169336906004016104f2565b60843592611478846102fc565b611480610312565b9360e4359360c4359360a4359360643592612c73565b3461030d57602036600319011261030d576004356001600160a01b0360085416330361058557600460206114e16114d56003546001600160a01b031690565b6001600160a01b031690565b604051928380927f46f991ac0000000000000000000000000000000000000000000000000000000082525afa80156115b1576000808481949382948391611583575b505af161152e61204b565b5015610b55577fcdcc745fe377b103b45fa0cec23ae3ef93d6fc6a84a01f0d18c40b354dd1d5d861157e61156d6114d5600e546001600160a01b031690565b604051938452929081906020820190565b0390a2005b6115a4915060203d81116115aa575b61159c8183610493565b810190613582565b38611523565b503d611592565b61202c565b3461030d57600036600319011261030d576020602154604051908152f35b3461030d57602036600319011261030d5760206115fb6004356115f6816102fc565b6148b5565b6001600160a01b0360405191168152f35b60a036600319011261030d57600435611624816102fc565b6024356044356001600160a01b03806007541660405191611665818716938460208201526020815261165581610456565b339361165f6128cb565b9061471d565b1603610585571561118057611678612c38565b601e5490601f5493818501908186116105e7576116b26116ad8461077f986116a86117259661172b991015612904565b61244e565b601f55565b6109b46116be30612bb8565b956116d06116cb8261294f565b610de4565b50906116e76114d56003546001600160a01b031690565b916040519687957fb505c66d000000000000000000000000000000000000000000000000000000006020880152608435936064359360248901612aa5565b8261481a565b506117366001601455565b6040516001600160a01b0390911681529081906020820190565b3461030d57602036600319011261030d576001600160a01b0360085416330361058557600435601e55005b3461030d57602036600319011261030d5760206113ff60043561179d816102fc565b6001600160a01b038060095416906040519216848301528382526117c082610456565b604051906117cd82610456565b601882527f697364656c656761746f724e6f646528616464726573732900000000000000008583015261476e565b3461030d57600036600319011261030d5760206113ff6144c9565b3461030d57600036600319011261030d576020601d54604051908152f35b3461030d57604036600319011261030d57602060ff611892600435611858816102fc565b6001600160a01b036024359161186d836102fc565b16600052600184526040600020906001600160a01b0316600052602052604060002090565b54166040519015158152f35b3461030d57602036600319011261030d5760206118c06004356115f6816102fc565b6001600160a01b038116151590816118dd57506040519015158152f35b6118e7915061454e565b386103e1565b3461030d5760a036600319011261030d5760043561190a816102fc565b602435611916816102fc565b60843567ffffffffffffffff811161030d576119369036906004016104f2565b906001600160a01b038316338114159081611989575b5061196257610016926064359160443591611c77565b60405163711bec9160e11b81523360048201526001600160a01b0384166024820152604490fd5b9050600052600160205260ff6119b6336040600020906001600160a01b0316600052602052604060002090565b5416153861194c565b3461030d57600036600319011261030d576020601b54604051908152f35b3461030d57604036600319011261030d576004356119fa816102fc565b60243567ffffffffffffffff811161030d57611a1a9036906004016104f2565b6001600160a01b038083161561118057611a326144c9565b15611a6557611a403361454e565b908115611a57575b50156105855761001691613393565b600854163314905038611a48565b60046040517f9dc4246e000000000000000000000000000000000000000000000000000000008152fd5b3461030d57600036600319011261030d576020601c54604051908152f35b3461030d57602036600319011261030d5760043560165481101561030d5760209060166000527fd833147d7dc355ba459fc788f669e58cfaf9dc25ddcd0702e87d69c7b51242890154604051908152f35b3461030d57600036600319011261030d5760206001600160a01b0360195416604051908152f35b3461030d57600036600319011261030d57602061125c6145d8565b611b699160005260006020526040600020906001600160a01b0316600052602052604060002090565b5490565b634e487b7160e01b600052601160045260246000fd5b60001981146105e75760010190565b805115610e1b5760200190565b8051821015610e1b5760209160051b010190565b91909180518351808203611c3c575050805190611bcf82610bdb565b91611bdd6040519384610493565b808352611bec601f1991610bdb565b0190602091368385013760005b8151811015611c345780611c1f611c2f9260051b85808287010151918a01015190611b40565b611c298287611b9f565b52611b83565b611bf9565b509193505050565b6040517f5b05999100000000000000000000000000000000000000000000000000000000815260048101919091526024810191909152604490fd5b90919392936001600160a01b0380841615611cdd57821615611cc65761032094611cbe60405192600184526020840152604083019160018352606084015260808301604052565b929091611cf5565b6024604051626a0d4560e21b815260006004820152fd5b6024604051632bfa23e760e11b815260006004820152fd5b91939290611d06600186511461365f565b6001600160a01b038084168015159081611f91575b50611d72575b611d2d838784876138f1565b8116611d3b575b5050505050565b8451600103611d6157602080611d579601519201519233612175565b3880808080611d34565b611d6d949192336122c3565b611d57565b601a54601d54809111611d86575b50611d21565b611d99611d9560225460ff1690565b1590565b15611f755750611e2e611e29611d95611df1611dbd6007546001600160a01b031690565b604080516001600160a01b038b1660208201529190611de990839081015b03601f198101845283610493565b61165f6128cb565b611dfe85821615156136aa565b611e12611e0a88611b92565b5115156136f5565b611e1a6130ae565b90611e23613740565b9061476e565b613779565b611eea611e396145d8565b611e59611e458261319b565b611e508115156137c4565b601d549061295e565b90611e6c6006546001600160a01b031690565b90611eac611ea4611e8c611e7e6130ae565b611e8661380f565b866147aa565b93611e956130ae565b90611e9e613848565b906147aa565b60205461244e565b811015611f62575b5060215481611ecc611ec589611b92565b518361244e565b11611f48575b50508015159081611f34575b81611f20575b50613881565b611f07611f02611ef985611b92565b51601d5461244e565b601d55565b611f1a611f15602154611b83565b602155565b38611d80565b9050611f2b85611b92565b51111538611ee4565b9050611f3f85611b92565b51151590611ede565b611f519161295e565b611f5a86611b92565b523880611ed2565b602055611f6f6000602155565b38611eb4565b611f02611f8c91611f8586611b92565b519061244e565b611f1a565b9050611fa86114d56019546001600160a01b031690565b1438611d1b565b9081602091031261030d575161072381610374565b909260a0926001600160a01b036107239695168352600060208401526040830152606082015281608082015201906106ed565b919261072395949160a0946001600160a01b0380921685521660208401526040830152606082015281608082015201906106ed565b6040513d6000823e3d90fd5b6040519061204582610477565b60008252565b3d15612076573d9061205c826104d6565b9161206a6040519384610493565b82523d6000602084013e565b606090565b9293919093843b61208d575050505050565b6020916120b0604051948593849363f23a6e6160e01b9889865260048601611fc4565b038160006001600160a01b0388165af160009181612145575b5061210857826120d761204b565b805191908261210157604051632bfa23e760e11b81526001600160a01b0383166004820152602490fd5b9050602001fd5b6001600160e01b0319160361212257503880808080611d34565b604051632bfa23e760e11b81526001600160a01b03919091166004820152602490fd5b61216791925060203d811161216e575b61215f8183610493565b810190611faf565b90386120c9565b503d612155565b939290949194853b61218a575b505050505050565b6121ad602093604051958694859463f23a6e6160e01b998a875260048701611ff7565b038160006001600160a01b0388165af1600091816121ef575b506121d457826120d761204b565b6001600160e01b031916036121225750388080808080612182565b61220891925060203d811161216e5761215f8183610493565b90386121c6565b9261223f61072395936001600160a01b0361224d941686526000602087015260a0604087015260a0860190610eb9565b908482036060860152610eb9565b9160808184039101526106ed565b9390610723959361223f9161224d946001600160a01b03809216885216602087015260a0604087015260a0860190610eb9565b9293919093843b6122a0575050505050565b6020916120b0604051948593849363bc197c8160e01b988986526004860161220f565b939290949194853b6122d757505050505050565b6121ad602093604051958694859463bc197c8160e01b998a87526004870161225b565b6002546000929161230a826105ec565b91600190818116908115612376575060011461232557505050565b909192935060026000527f405787fa12a823e0f2b7631cc41b3ba8828b3321ca811111fa75cd3aa3bb5ace906000915b848310612363575050500190565b8181602092548587015201920191612355565b60ff191683525050811515909102019150565b9061239c602092828151948592016106ca565b0190565b906123aa826104d6565b6123b76040519182610493565b82815280926123c8601f19916104d6565b0190602036910137565b81156123dc570490565b634e487b7160e01b600052601260045260246000fd5b906001600160a01b036008541633036105855760005b82518110156124495760165490600182018092116105e75761242c6124449261245b565b61243f6124398286611b9f565b516127b2565b611b83565b612408565b509050565b919082018092116105e757565b60165468010000000000000000811015610472576001810180601655811015610e1b5760166000527fd833147d7dc355ba459fc788f669e58cfaf9dc25ddcd0702e87d69c7b51242890155565b601f81116124b4575050565b600090600282527f405787fa12a823e0f2b7631cc41b3ba8828b3321ca811111fa75cd3aa3bb5ace906020601f850160051c8301941061250f575b601f0160051c01915b82811061250457505050565b8181556001016124f8565b90925082906124ef565b601f8111612525575050565b600090601782527fc624b66cc0138b8fabc209247f72d758e1cf3343756d543badbf24212bed8c15906020601f850160051c83019410612580575b601f0160051c01915b82811061257557505050565b818155600101612569565b9092508290612560565b90601f811161259857505050565b600091825260208220906020601f850160051c830194106125d4575b601f0160051c01915b8281106125c957505050565b8181556001016125bd565b90925082906125b4565b90815167ffffffffffffffff811161047257612604816125ff6002546105ec565b6124a8565b602080601f83116001146126405750819293600092612635575b50508160011b916000199060031b1c191617600255565b01519050388061261e565b90601f1983169461267360026000527f405787fa12a823e0f2b7631cc41b3ba8828b3321ca811111fa75cd3aa3bb5ace90565b926000905b8782106126b0575050836001959610612697575b505050811b01600255565b015160001960f88460031b161c1916905538808061268c565b80600185968294968601518155019501930190612678565b90815167ffffffffffffffff8111610472576126ee816126e96017546105ec565b612519565b602080601f831160011461272a575081929360009261271f575b50508160011b916000199060031b1c191617601755565b015190503880612708565b90601f1983169461275d60176000527fc624b66cc0138b8fabc209247f72d758e1cf3343756d543badbf24212bed8c1590565b926000905b87821061279a575050836001959610612781575b505050811b01601755565b015160001960f88460031b161c19169055388080612776565b80600185968294968601518155019501930190612762565b601554680100000000000000008110156104725760019081810180601555811015610e1b5760156000527f55f448fdea98c4d29eb340757ef0a66cd03dbb9538908a6a81d96026b71ec475019180519067ffffffffffffffff8211610472576128258261281f86546105ec565b8661258a565b60209081601f84116001146128615750928293918392600094612856575b50501b916000199060031b1c1916179055565b015192503880612843565b919083601f19811661287888600052602060002090565b946000905b888383106128b15750505010612898575b505050811b019055565b015160001960f88460031b161c1916905538808061288e565b85870151885590960195948501948793509081019061287d565b604051906128d882610456565b601682527f67657455736572546f53746f72286164647265737329000000000000000000006020830152565b1561290b57565b606460405162461bcd60e51b815260206004820152601760248201527f6f7263313135352e737570706c792e62726561636865640000000000000000006044820152fd5b6000198101919082116105e757565b919082039182116105e757565b6002546000929161297b826105ec565b808252916001908181169081156129f2575060011461299957505050565b9192935060026000527f405787fa12a823e0f2b7631cc41b3ba8828b3321ca811111fa75cd3aa3bb5ace916000925b8484106129da57505060209250010190565b805460208585018101919091529093019281016129c8565b915050602093945060ff929192191683830152151560051b010190565b9060009291805491612a20836105ec565b918282526001938481169081600014612a825750600114612a42575b50505050565b90919394506000526020928360002092846000945b838610612a6e575050505001019038808080612a3c565b805485870183015294019385908201612a57565b9294505050602093945060ff191683830152151560051b01019038808080612a3c565b9490979591969293610120808752600090601754612ac2816105ec565b80928a01526001908181169081600014612b905750600114612b35575b505086979899612afc8261010099612b0a940360208c015261296b565b9089820360408b0152612a0f565b9860608801526001600160a01b03809516608088015260a087015260c086015260e085015216910152565b6017600090815292507fc624b66cc0138b8fabc209247f72d758e1cf3343756d543badbf24212bed8c155b828410612b795750505086016101400189612afc612adf565b8054848b0161014001526020909301928101612b60565b60ff1916610140808c019190915292151560051b8a0190920192508b9150612afc9050612adf565b6e5af43d82803e903d91602b57fd5bf390763d602d80600a3d3981f3363d3d373d3d3d363d7300000062ffffff8260881c161760005260781b17602052603760096000f0906001600160a01b03821615612c0e57565b60046040517fb06ebf3d000000000000000000000000000000000000000000000000000000008152fd5b600260145414612c49576002601455565b60046040517f3ee5aeb5000000000000000000000000000000000000000000000000000000008152fd5b612d739693612d1c612d2192612d17612d269695612d12612d6e9a612da39f8d9f9d90612cce612cf492612ca5612c38565b612cc56001600160a01b0391612cbe8386161515612dbf565b1515612e0a565b84161515612e55565b612cef612ce96114d56114d56003546001600160a01b031690565b15612ea0565b613ab5565b612cfc613e03565b612d0d612d083361454e565b612eeb565b61462a565b6125de565b6126c8565b61245b565b6127b2565b612d57612d3b6004546001600160a01b031690565b6001600160a01b03166001600160a01b03196019541617601955565b612d6085601a55565b612d6983601c55565b601b55565b602055565b6004546001600160a01b031690612d95612d8b610e20565b90549060031b1c90565b612d9d612038565b92612f36565b601880546001600160a01b031916331790556103206001601455565b15612dc657565b606460405162461bcd60e51b815260206004820152601660248201527f6f7263313135352e686578626173652e6661696c6564000000000000000000006044820152fd5b15612e1157565b606460405162461bcd60e51b815260206004820152601060248201527f6f7263313135352e7174792e7a65726f000000000000000000000000000000006044820152fd5b15612e5c57565b606460405162461bcd60e51b815260206004820152601460248201527f6f7263313135352e6163636f756e742e7a65726f0000000000000000000000006044820152fd5b15612ea757565b606460405162461bcd60e51b815260206004820152601460248201527f6f7263313135352e616c72656164792e696e69740000000000000000000000006044820152fd5b15612ef257565b606460405162461bcd60e51b815260206004820152601760248201527f6f7263313135352e756e7365637572652e6661696c65640000000000000000006044820152fd5b9291906001600160a01b038416918215611cdd57612f7160405192600184526020840152604083019160018352606084015260808301604052565b91600190612f818284511461365f565b8251845190818103611c3c57505081806000905b613043575b508351036130075760208381015185820151604080519283529282015260009133917fc3d58168c5ae7397731d063d5bbf3d657854427343f4c083240f7aacaa2d0f629190a45b815103612ffd579060208061032095930151910151913361207b565b610320933361228e565b60006040517f4a39dc06d4c0dbc64b70af90fd698a233a518aa5d07e595d983b8c0526c8f7fb33918061303b8989836138cc565b0390a4612fe1565b84518110156130a957806130a39160051b61309c6130948b61307c602080868d010151958d010151946000526000602052604060002090565b906001600160a01b0316600052602052604060002090565b91825461244e565b9055611b83565b81612f95565b612f9a565b6040516130ba81610477565b60008152906000368137565b604051906130d382610456565b600a82527f73687574646f776e2829000000000000000000000000000000000000000000006020830152565b6040519061310c82610456565b601b82527f6765744e6674506f6f6c2875696e743235362c75696e743235362900000000006020830152565b919082608091031261030d578151916020810151916060604083015192015190565b90670de0b6b3a7640000918281029281840414901517156105e757565b90816064029160648304036105e757565b818102929181159184041417156105e757565b6006546001600160a01b0316906131c16131b36130ae565b6131bb6130c6565b8461476e565b61338b576000601c5460405160209061321f613211826131ef86868301919060206040840193600181520152565b0392613203601f1994858101835282610493565b61320b6130ff565b89614677565b838082518301019101613138565b61322c84889b959b61244e565b891061337e57670de0b6b3a76400009981613326575b5050505061329692916132899161327b604051928361326f89888301919060206040840193600281520152565b03908101845283610493565b6132836130ff565b90614677565b8051810182019101613138565b9591929093866132bc575b5050505050905004601a548082116132b7575090565b905090565b6132dc926132d16132eb98936132d79361244e565b9061295e565b6123d2565b90816132f6575050508061244e565b8038808080806132a1565b6133209261331a61331461330f9361330f601a5461315a565b613188565b91613177565b906123d2565b9061244e565b91613349613296979694926132d7613343613289989c968c61244e565b8d61295e565b918261335e575050505b959181939438613242565b61337993509061331a61331461330f9361330f601a5461315a565b613353565b5050505050505091505090565b5050601a5490565b6001600160a01b0391826019541692821683146134635760165415610e1b5760166000526133e27fd833147d7dc355ba459fc788f669e58cfaf9dc25ddcd0702e87d69c7b51242895484611b40565b806133ed5750505050565b8261342e6134539461344e9360ff19976001896022541617602255613410610e20565b9390546040519461342086610477565b6000865260031b1c91611c77565b612d0d816001600160a01b03166001600160a01b03196019541617601955565b613597565b6022541660225538808080612a3c565b505050565b9081602091031261030d575161072381611065565b9493929190816000526000602052826134ad876040600020906001600160a01b0316600052602052604060002090565b541061353e57336001600160a01b03871614158061350a575b6134e3579161032094959161344e936134dd612038565b93611c77565b60405163711bec9160e11b81523360048201526001600160a01b0387166024820152604490fd5b50613539611d956135323361307c8a6001600160a01b03166000526001602052604060002090565b5460ff1690565b6134c6565b606460405162461bcd60e51b815260206004820152601760248201527f6f7263313135352e7472616e736665722e6661696c65640000000000000000006044820152fd5b9081602091031261030d5751610723816102fc565b80511561363857600460206135b76114d56003546001600160a01b031690565b604051928380927f43af1d9d0000000000000000000000000000000000000000000000000000000082525afa80156115b15761363892611ddb9260009261363b575b50613633906040519384917f9e6c4bd100000000000000000000000000000000000000000000000000000000602084015260248301610712565b61481a565b50565b6136339192506136589060203d81116115aa5761159c8183610493565b91906135f9565b1561366657565b606460405162461bcd60e51b815260206004820152601960248201527f6f7263313135352e62617463682e6e6f742e616c6c6f776564000000000000006044820152fd5b156136b157565b606460405162461bcd60e51b815260206004820152601460248201527f6f7263313135352e73746f722e696e76616c69640000000000000000000000006044820152fd5b156136fc57565b606460405162461bcd60e51b815260206004820152600f60248201527f6f7263313135352e6c65737351747900000000000000000000000000000000006044820152fd5b6040519061374d82610456565b600882527f69734c6f636b28290000000000000000000000000000000000000000000000006020830152565b1561378057565b606460405162461bcd60e51b815260206004820152601060248201527f6f7263313135352e696e616374697665000000000000000000000000000000006044820152fd5b156137cb57565b606460405162461bcd60e51b815260206004820152600e60248201527f6f7263313135352e6c6f636b65640000000000000000000000000000000000006044820152fd5b6040519061381c82610456565b600c82527f6d61784e465453656e64282900000000000000000000000000000000000000006020830152565b6040519061385582610456565b601182527f4e465453656e645065724379636c6528290000000000000000000000000000006020830152565b1561388857565b606460405162461bcd60e51b815260206004820152601260248201527f6f7263313135352e6c696d69742e6f76657200000000000000000000000000006044820152fd5b90916138e361072393604084526040840190610eb9565b916020818403910152610eb9565b9392918051835190818103611c3c57505060005b8151811015613a0f578060051b9060208083850101519286010151846001600160a01b0393848a1661396f575b61394594821661394a575b505050611b83565b613905565b6139659161307c613094926000526000602052604060002090565b905538848161393d565b919293905061398c8961307c846000526000602052604060002090565b548381106139bf5791869184613945969594036139b78c61307c856000526000602052604060002090565b559450613932565b6040517f03dee4c50000000000000000000000000000000000000000000000000000000081526001600160a01b038b16600482015260248101919091526044810184905260648101839052608490fd5b508051939493919291600103613a72576020908101519181015160408051938452918301526001600160a01b03928316939092169133917fc3d58168c5ae7397731d063d5bbf3d657854427343f4c083240f7aacaa2d0f6291819081015b0390a4565b9091613a6d7f4a39dc06d4c0dbc64b70af90fd698a233a518aa5d07e595d983b8c0526c8f7fb916040519182916001600160a01b038091169716953395836138cc565b6001600160a01b0380911690811561118057600354826001600160a01b0319821617600355167fe939feee179e631422bcc8f6e6d7d908cb3f8af38f5372f17c77e15aea5c80ee600080a3565b613de76101c061032092613b3c613b2082516001600160a01b031690565b6001600160a01b03166001600160a01b03196005541617600555565b613b6f613b5360208301516001600160a01b031690565b6001600160a01b03166001600160a01b03196006541617600655565b613ba2613b8660408301516001600160a01b031690565b6001600160a01b03166001600160a01b03196007541617600755565b613bd5613bb960608301516001600160a01b031690565b6001600160a01b03166001600160a01b03196008541617600855565b613c08613bec60808301516001600160a01b031690565b6001600160a01b03166001600160a01b03196009541617600955565b613c3b613c1f60a08301516001600160a01b031690565b6001600160a01b03166001600160a01b0319600a541617600a55565b613c6e613c5260c08301516001600160a01b031690565b6001600160a01b03166001600160a01b0319600b541617600b55565b613ca1613c8560e08301516001600160a01b031690565b6001600160a01b03166001600160a01b0319600c541617600c55565b613cd5613cb96101008301516001600160a01b031690565b6001600160a01b03166001600160a01b0319600d541617600d55565b613d09613ced6101208301516001600160a01b031690565b6001600160a01b03166001600160a01b0319600e541617600e55565b613d3d613d216101408301516001600160a01b031690565b6001600160a01b03166001600160a01b0319600f541617600f55565b613d71613d556101608301516001600160a01b031690565b6001600160a01b03166001600160a01b03196010541617601055565b613da5613d896101808301516001600160a01b031690565b6001600160a01b03166001600160a01b03196011541617601155565b613dd9613dbd6101a08301516001600160a01b031690565b6001600160a01b03166001600160a01b03196012541617601255565b01516001600160a01b031690565b6001600160a01b03166001600160a01b03196013541617601355565b613e186114d56003546001600160a01b031690565b604051907f97f3815a000000000000000000000000000000000000000000000000000000008252602082600481845afa9182156115b1576000926144a8575b50604051917fcfbffe53000000000000000000000000000000000000000000000000000000008352602083600481855afa9283156115b157600093614487575b50604051907fab6e844f000000000000000000000000000000000000000000000000000000008252602082600481865afa9182156115b157600092614466575b50604051917f14d8d024000000000000000000000000000000000000000000000000000000008352602083600481875afa9283156115b157600093614445575b50604051927fd1f956b1000000000000000000000000000000000000000000000000000000008452602084600481885afa9384156115b157600094614424575b50604051937fe61dfd58000000000000000000000000000000000000000000000000000000008552602085600481895afa9485156115b157600095614403575b506040517fe09d394d0000000000000000000000000000000000000000000000000000000081526020816004818a5afa9081156115b1576000916143e4575b506040517f52b06d640000000000000000000000000000000000000000000000000000000081526020816004818b5afa9081156115b1576000916143c5575b506040517f013cf08b00000000000000000000000000000000000000000000000000000000815260006004820152916020836024818c5afa9283156115b1576000936143a4575b50604051977f5e09dbe70000000000000000000000000000000000000000000000000000000089526020896004818d5afa9485156115b157600499600096614383575b5060208b6040519b8c80927faa0ddc160000000000000000000000000000000000000000000000000000000082525afa9687156115b15760049a600098614362575b5060208c6040519c8d80927f640274270000000000000000000000000000000000000000000000000000000082525afa9889156115b15760049b60009a614341575b5060208d6040519d8e80927f30125cf50000000000000000000000000000000000000000000000000000000082525afa9a8b156115b1578d60049d60009d61431f575b506020906040519e8f80927f24768d910000000000000000000000000000000000000000000000000000000082525afa9c8d156115b15760009d6142fe575b50604051809e81907f9dc969a80000000000000000000000000000000000000000000000000000000082525a92600491602094fa9d8e156115b15760009e6142dd575b506141f16104b5565b6001600160a01b0390911681529d8e906001600160a01b031660208201526040019061422591906001600160a01b03169052565b6001600160a01b031660608d01526001600160a01b031660808c01526001600160a01b031660a08b01526001600160a01b031660c08a01526001600160a01b031660e08901526001600160a01b03166101008801526001600160a01b03166101208701526001600160a01b03166101408601526001600160a01b03166101608501526001600160a01b03166101808401526001600160a01b03166101a08301526001600160a01b03166101c082015261032090613b02565b6142f7919e5060203d6020116115aa5761159c8183610493565b9c386141e8565b614318919d5060203d6020116115aa5761159c8183610493565b9b386141a5565b6020919d5061433a90823d84116115aa5761159c8183610493565b9c90614166565b61435b919a5060203d6020116115aa5761159c8183610493565b9838614123565b61437c91985060203d6020116115aa5761159c8183610493565b96386140e1565b61439d91965060203d6020116115aa5761159c8183610493565b943861409f565b6143be91935060203d6020116115aa5761159c8183610493565b913861405c565b6143de915060203d6020116115aa5761159c8183610493565b38614015565b6143fd915060203d6020116115aa5761159c8183610493565b38613fd6565b61441d91955060203d6020116115aa5761159c8183610493565b9338613f97565b61443e91945060203d6020116115aa5761159c8183610493565b9238613f57565b61445f91935060203d6020116115aa5761159c8183610493565b9138613f17565b61448091925060203d6020116115aa5761159c8183610493565b9038613ed7565b6144a191935060203d6020116115aa5761159c8183610493565b9138613e97565b6144c291925060203d6020116115aa5761159c8183610493565b9038613e57565b6145246001600160a01b03600554166040516144e481610456565b600881527f697353616665282900000000000000000000000000000000000000000000000060208201526040519161451b83610477565b600083526146a2565b9080614543575b15610b55578060208061072393518301019101613468565b50602081511461452b565b6145b16001600160a01b03806005541660405191602094168483015283825261457682610456565b6040519061458382610456565b601582527f6973536563757265426173652861646472657373290000000000000000000000858301526146a2565b90806145ce575b15610b5557816107239282518301019101613468565b50818151146145b8565b6107236001600160a01b03600654166040516145f381610456565b600681527f694167652829000000000000000000000000000000000000000000000000000060208201526040519161125383610477565b6001600160a01b0380911690811561118057600454826001600160a01b0319821617600455167f8292fce18fa69edf4db7b94ea2e58241df0ae57f97e0a6c9b29067028bf92d76600080a3565b9061468292916146a2565b906000901561468f575090565b604051915061469d82610477565b815290565b803b15614704576000926001600160e01b031983602086955191012016906146f460246040518093602082019586526146e481518092602086860191016106ca565b8101036004810184520182610493565b51915afa61470061204b565b9091565b50505060009060405161471681610477565b6000815290565b929161472b916000946146a2565b9080614763575b6147395750565b90915060208180518101031261030d5760206001600160a01b0391015161475f816102fc565b1690565b506020815114614732565b929161477c916000946146a2565b908061479f575b61478a5750565b61072391925060208082518301019101613468565b506020815114614783565b92916147b8916000946146a2565b90806147dd575b6147c65750565b90915060208180518101031261030d576020015190565b5060208151146147bf565b90602082519201516001600160e01b031990818116936004811061480b57505050565b60040360031b82901b16169150565b6001600160a01b0381161561118057600080918351908260208601915af19061484161204b565b911561484b575090565b8051600091906004116148af5761486291506147e8565b8151156148725750805190602001fd5b6040517f21c09d340000000000000000000000000000000000000000000000000000000081526001600160e01b0319919091166004820152602490fd5b50614862565b803b60006148c2826104d6565b926148d06040519485610493565b82845260208401903c602d8151106148ec57602a015160601c90565b60046040517fbaf3f0f7000000000000000000000000000000000000000000000000000000008152fdfea26469706673582212202baf3300fe66f2289debd0d4ef8da0fbc03ca950d3a6bb054259016d6e1e32d764736f6c63430008140033","linkReferences":{}},"methodIdentifiers":{"Burn(uint256)":"b90306ad","_delegatorCount()":"a1f7f539","_getImplementation(address)":"c54e44b0","_isDelegatorNode(address)":"e01ad5fd","_isSafe()":"e0a9bc2b","_isSecureBase(address)":"af484526","_isSigner(address)":"1f185d16","_uri()":"0dccc9ad","addToken(string[])":"abbbf8d7","balanceOf(address,uint256)":"00fdd58e","balanceOfBatch(address[],uint256[])":"4e1273f4","claimed()":"e834a834","clonedOf()":"2defa859","curSupply()":"5fac2d9d","getBalance()":"12065fe0","getHexbase()":"3b9b7955","getNames(uint256)":"5718e17b","getTokenCount()":"78a89567","getUnlockedNFT()":"06eb36db","ids(uint256)":"fac333ac","isApprovedForAll(address,address)":"e985e9c5","isSecuredNFT(address)":"edd38c01","lastTransferDay()":"18dcfd71","mintedAge()":"f9ffedb7","mintedUser()":"fcf56368","mintedfee()":"f356eedb","mintedqty()":"6c51797b","name()":"06fdde03","names(uint256)":"4622ab03","onTokenImport(address,bytes)":"f526f68a","onTokenTransfer(address,address,uint256,uint256,bool,bytes)":"7eb1a738","owner()":"8da5cb5b","postinit(string,string,string,uint256,address,uint256,uint256,uint256,address)":"b505c66d","preinit(address,uint256,uint256,uint256,uint256)":"c85700fb","safeBatchTransferFrom(address,address,uint256[],uint256[],bytes)":"2eb2c2d6","safeTransferFrom(address,address,uint256,uint256,bytes)":"f242432a","setApprovalForAll(address,bool)":"a22cb465","setURI(string)":"02fe5305","setcurSupply(uint256)":"2796f7c6","setsupply(uint256)":"d878fe10","supportsInterface(bytes4)":"01ffc9a7","syncBaseAddr()":"339459a6","systemAge()":"fdc10bc9","totSupply()":"81fbf0a5","totalNFTSent()":"c3c916d9","uri(uint256)":"0e89341c"},"id":58}