{"abi":[{"type":"constructor","inputs":[{"name":"_contractName","type":"string","internalType":"string"},{"name":"baseURI_","type":"string","internalType":"string"},{"name":"_supply","type":"uint256","internalType":"uint256"},{"name":"_names","type":"string[]","internalType":"string[]"},{"name":"_hex","type":"address","internalType":"address"}],"stateMutability":"nonpayable"},{"type":"fallback","stateMutability":"payable"},{"type":"receive","stateMutability":"payable"},{"type":"function","name":"Burn","inputs":[{"name":"amount","type":"uint256","internalType":"uint256"}],"outputs":[],"stateMutability":"nonpayable"},{"type":"function","name":"_delegatorCount","inputs":[],"outputs":[{"name":"","type":"uint256","internalType":"uint256"}],"stateMutability":"view"},{"type":"function","name":"_getImplementation","inputs":[{"name":"clone","type":"address","internalType":"address"}],"outputs":[{"name":"impl","type":"address","internalType":"address"}],"stateMutability":"view"},{"type":"function","name":"_isDelegatorNode","inputs":[{"name":"sender","type":"address","internalType":"address"}],"outputs":[{"name":"","type":"bool","internalType":"bool"}],"stateMutability":"view"},{"type":"function","name":"_isSafe","inputs":[],"outputs":[{"name":"","type":"bool","internalType":"bool"}],"stateMutability":"view"},{"type":"function","name":"_isSecureBase","inputs":[{"name":"sender","type":"address","internalType":"address"}],"outputs":[{"name":"","type":"bool","internalType":"bool"}],"stateMutability":"view"},{"type":"function","name":"_isSigner","inputs":[{"name":"sender","type":"address","internalType":"address"}],"outputs":[{"name":"","type":"bool","internalType":"bool"}],"stateMutability":"view"},{"type":"function","name":"_uri","inputs":[],"outputs":[{"name":"","type":"string","internalType":"string"}],"stateMutability":"view"},{"type":"function","name":"addToken","inputs":[{"name":"_names","type":"string[]","internalType":"string[]"}],"outputs":[],"stateMutability":"nonpayable"},{"type":"function","name":"balanceOf","inputs":[{"name":"account","type":"address","internalType":"address"},{"name":"id","type":"uint256","internalType":"uint256"}],"outputs":[{"name":"","type":"uint256","internalType":"uint256"}],"stateMutability":"view"},{"type":"function","name":"balanceOfBatch","inputs":[{"name":"accounts","type":"address[]","internalType":"address[]"},{"name":"ids","type":"uint256[]","internalType":"uint256[]"}],"outputs":[{"name":"","type":"uint256[]","internalType":"uint256[]"}],"stateMutability":"view"},{"type":"function","name":"claimed","inputs":[],"outputs":[{"name":"","type":"uint256","internalType":"uint256"}],"stateMutability":"view"},{"type":"function","name":"clonedOf","inputs":[],"outputs":[{"name":"","type":"address","internalType":"address"}],"stateMutability":"view"},{"type":"function","name":"curSupply","inputs":[],"outputs":[{"name":"","type":"uint256","internalType":"uint256"}],"stateMutability":"view"},{"type":"function","name":"getBalance","inputs":[],"outputs":[{"name":"","type":"uint256","internalType":"uint256"}],"stateMutability":"view"},{"type":"function","name":"getHexbase","inputs":[],"outputs":[{"name":"","type":"address","internalType":"address"}],"stateMutability":"view"},{"type":"function","name":"getNames","inputs":[{"name":"inx","type":"uint256","internalType":"uint256"}],"outputs":[{"name":"","type":"string","internalType":"string"}],"stateMutability":"view"},{"type":"function","name":"getTokenCount","inputs":[],"outputs":[{"name":"","type":"uint256","internalType":"uint256"}],"stateMutability":"view"},{"type":"function","name":"getUnlockedNFT","inputs":[],"outputs":[{"name":"_NFT","type":"uint256","internalType":"uint256"}],"stateMutability":"view"},{"type":"function","name":"ids","inputs":[{"name":"","type":"uint256","internalType":"uint256"}],"outputs":[{"name":"","type":"uint256","internalType":"uint256"}],"stateMutability":"view"},{"type":"function","name":"isApprovedForAll","inputs":[{"name":"account","type":"address","internalType":"address"},{"name":"operator","type":"address","internalType":"address"}],"outputs":[{"name":"","type":"bool","internalType":"bool"}],"stateMutability":"view"},{"type":"function","name":"isSecuredNFT","inputs":[{"name":"orc1155","type":"address","internalType":"address"}],"outputs":[{"name":"","type":"bool","internalType":"bool"}],"stateMutability":"view"},{"type":"function","name":"lastTransferDay","inputs":[],"outputs":[{"name":"","type":"uint256","internalType":"uint256"}],"stateMutability":"view"},{"type":"function","name":"mintedAge","inputs":[],"outputs":[{"name":"","type":"uint256","internalType":"uint256"}],"stateMutability":"view"},{"type":"function","name":"mintedUser","inputs":[],"outputs":[{"name":"","type":"address","internalType":"address"}],"stateMutability":"view"},{"type":"function","name":"mintedfee","inputs":[],"outputs":[{"name":"","type":"uint256","internalType":"uint256"}],"stateMutability":"view"},{"type":"function","name":"mintedqty","inputs":[],"outputs":[{"name":"","type":"uint256","internalType":"uint256"}],"stateMutability":"view"},{"type":"function","name":"name","inputs":[],"outputs":[{"name":"","type":"string","internalType":"string"}],"stateMutability":"view"},{"type":"function","name":"names","inputs":[{"name":"","type":"uint256","internalType":"uint256"}],"outputs":[{"name":"","type":"string","internalType":"string"}],"stateMutability":"view"},{"type":"function","name":"onTokenImport","inputs":[{"name":"_to","type":"address","internalType":"address"},{"name":"payload","type":"bytes","internalType":"bytes"}],"outputs":[],"stateMutability":"nonpayable"},{"type":"function","name":"onTokenTransfer","inputs":[{"name":"_from","type":"address","internalType":"address"},{"name":"_to","type":"address","internalType":"address"},{"name":"_id","type":"uint256","internalType":"uint256"},{"name":"_qty","type":"uint256","internalType":"uint256"},{"name":"_byforce","type":"bool","internalType":"bool"},{"name":"payload","type":"bytes","internalType":"bytes"}],"outputs":[],"stateMutability":"nonpayable"},{"type":"function","name":"owner","inputs":[],"outputs":[{"name":"","type":"address","internalType":"address"}],"stateMutability":"view"},{"type":"function","name":"postinit","inputs":[{"name":"_contractName","type":"string","internalType":"string"},{"name":"baseURI_","type":"string","internalType":"string"},{"name":"_nName","type":"string","internalType":"string"},{"name":"_nid","type":"uint256","internalType":"uint256"},{"name":"_account","type":"address","internalType":"address"},{"name":"_qty","type":"uint256","internalType":"uint256"},{"name":"_fee","type":"uint256","internalType":"uint256"},{"name":"_ag","type":"uint256","internalType":"uint256"},{"name":"_hex","type":"address","internalType":"address"}],"outputs":[],"stateMutability":"payable"},{"type":"function","name":"preinit","inputs":[{"name":"_account","type":"address","internalType":"address"},{"name":"_id","type":"uint256","internalType":"uint256"},{"name":"_qty","type":"uint256","internalType":"uint256"},{"name":"_fee","type":"uint256","internalType":"uint256"},{"name":"_ag","type":"uint256","internalType":"uint256"}],"outputs":[{"name":"","type":"address","internalType":"address"}],"stateMutability":"payable"},{"type":"function","name":"safeBatchTransferFrom","inputs":[{"name":"from","type":"address","internalType":"address"},{"name":"to","type":"address","internalType":"address"},{"name":"ids","type":"uint256[]","internalType":"uint256[]"},{"name":"values","type":"uint256[]","internalType":"uint256[]"},{"name":"data","type":"bytes","internalType":"bytes"}],"outputs":[],"stateMutability":"nonpayable"},{"type":"function","name":"safeTransferFrom","inputs":[{"name":"from","type":"address","internalType":"address"},{"name":"to","type":"address","internalType":"address"},{"name":"id","type":"uint256","internalType":"uint256"},{"name":"value","type":"uint256","internalType":"uint256"},{"name":"data","type":"bytes","internalType":"bytes"}],"outputs":[],"stateMutability":"nonpayable"},{"type":"function","name":"setApprovalForAll","inputs":[{"name":"operator","type":"address","internalType":"address"},{"name":"approved","type":"bool","internalType":"bool"}],"outputs":[],"stateMutability":"nonpayable"},{"type":"function","name":"setURI","inputs":[{"name":"newuri","type":"string","internalType":"string"}],"outputs":[],"stateMutability":"nonpayable"},{"type":"function","name":"setcurSupply","inputs":[{"name":"_s","type":"uint256","internalType":"uint256"}],"outputs":[],"stateMutability":"nonpayable"},{"type":"function","name":"setsupply","inputs":[{"name":"_s","type":"uint256","internalType":"uint256"}],"outputs":[],"stateMutability":"nonpayable"},{"type":"function","name":"supportsInterface","inputs":[{"name":"interfaceId","type":"bytes4","internalType":"bytes4"}],"outputs":[{"name":"","type":"bool","internalType":"bool"}],"stateMutability":"view"},{"type":"function","name":"syncBaseAddr","inputs":[],"outputs":[],"stateMutability":"nonpayable"},{"type":"function","name":"systemAge","inputs":[],"outputs":[{"name":"","type":"uint256","internalType":"uint256"}],"stateMutability":"view"},{"type":"function","name":"totSupply","inputs":[],"outputs":[{"name":"","type":"uint256","internalType":"uint256"}],"stateMutability":"view"},{"type":"function","name":"totalNFTSent","inputs":[],"outputs":[{"name":"","type":"uint256","internalType":"uint256"}],"stateMutability":"view"},{"type":"function","name":"uri","inputs":[{"name":"_tokenid","type":"uint256","internalType":"uint256"}],"outputs":[{"name":"","type":"string","internalType":"string"}],"stateMutability":"view"},{"type":"event","name":"ApprovalForAll","inputs":[{"name":"account","type":"address","indexed":true,"internalType":"address"},{"name":"operator","type":"address","indexed":true,"internalType":"address"},{"name":"approved","type":"bool","indexed":false,"internalType":"bool"}],"anonymous":false},{"type":"event","name":"EthBurned","inputs":[{"name":"sender","type":"address","indexed":true,"internalType":"address"},{"name":"amount","type":"uint256","indexed":false,"internalType":"uint256"}],"anonymous":false},{"type":"event","name":"EthTransferred","inputs":[{"name":"to","type":"address","indexed":true,"internalType":"address"},{"name":"amount","type":"uint256","indexed":false,"internalType":"uint256"}],"anonymous":false},{"type":"event","name":"HexBaseUpdated","inputs":[{"name":"previousHexBase","type":"address","indexed":true,"internalType":"address"},{"name":"newHexBase","type":"address","indexed":true,"internalType":"address"}],"anonymous":false},{"type":"event","name":"OwnerUpdated","inputs":[{"name":"previousOwner","type":"address","indexed":true,"internalType":"address"},{"name":"newOwner","type":"address","indexed":true,"internalType":"address"}],"anonymous":false},{"type":"event","name":"TransferBatch","inputs":[{"name":"operator","type":"address","indexed":true,"internalType":"address"},{"name":"from","type":"address","indexed":true,"internalType":"address"},{"name":"to","type":"address","indexed":true,"internalType":"address"},{"name":"ids","type":"uint256[]","indexed":false,"internalType":"uint256[]"},{"name":"values","type":"uint256[]","indexed":false,"internalType":"uint256[]"}],"anonymous":false},{"type":"event","name":"TransferSingle","inputs":[{"name":"operator","type":"address","indexed":true,"internalType":"address"},{"name":"from","type":"address","indexed":true,"internalType":"address"},{"name":"to","type":"address","indexed":true,"internalType":"address"},{"name":"id","type":"uint256","indexed":false,"internalType":"uint256"},{"name":"value","type":"uint256","indexed":false,"internalType":"uint256"}],"anonymous":false},{"type":"event","name":"URI","inputs":[{"name":"value","type":"string","indexed":false,"internalType":"string"},{"name":"id","type":"uint256","indexed":true,"internalType":"uint256"}],"anonymous":false},{"type":"error","name":"CallFailed","inputs":[]},{"type":"error","name":"ERC1155InsufficientBalance","inputs":[{"name":"sender","type":"address","internalType":"address"},{"name":"balance","type":"uint256","internalType":"uint256"},{"name":"needed","type":"uint256","internalType":"uint256"},{"name":"tokenId","type":"uint256","internalType":"uint256"}]},{"type":"error","name":"ERC1155InvalidApprover","inputs":[{"name":"approver","type":"address","internalType":"address"}]},{"type":"error","name":"ERC1155InvalidArrayLength","inputs":[{"name":"idsLength","type":"uint256","internalType":"uint256"},{"name":"valuesLength","type":"uint256","internalType":"uint256"}]},{"type":"error","name":"ERC1155InvalidOperator","inputs":[{"name":"operator","type":"address","internalType":"address"}]},{"type":"error","name":"ERC1155InvalidReceiver","inputs":[{"name":"receiver","type":"address","internalType":"address"}]},{"type":"error","name":"ERC1155InvalidSender","inputs":[{"name":"sender","type":"address","internalType":"address"}]},{"type":"error","name":"ERC1155MissingApprovalForAll","inputs":[{"name":"operator","type":"address","internalType":"address"},{"name":"owner","type":"address","internalType":"address"}]},{"type":"error","name":"FailedDeployment","inputs":[]},{"type":"error","name":"InsufficientBalance","inputs":[{"name":"balance","type":"uint256","internalType":"uint256"},{"name":"needed","type":"uint256","internalType":"uint256"}]},{"type":"error","name":"InvalidAddress","inputs":[]},{"type":"error","name":"InvalidState","inputs":[]},{"type":"error","name":"NotAuthorized","inputs":[]},{"type":"error","name":"NotSafe","inputs":[]},{"type":"error","name":"ReentrancyGuardReentrantCall","inputs":[]},{"type":"error","name":"TargetCallFailed","inputs":[{"name":"selector","type":"bytes4","internalType":"bytes4"}]}],"bytecode":{"object":"0x6080604052346200065757620049d5803803806200001d8162000685565b92833981019060a081830312620006575780516001600160401b03919082811162000657578362000050918301620006ab565b926020808301518481116200065757826200006d918501620006ab565b93604084015160608501518281116200065757850194601f908582880112156200065757865195848711620006415760059787891b8780620000b181840162000685565b809b81520191830101928084116200065757888301915b8483106200065c575050505050608001519460018060a01b0386168096036200065757875184811162000641576002546001998a82811c9216801562000636575b8883101462000620578185849311620005cb575b508790858311600114620005615760009262000555575b5050600019600383901b1c191690891b176002555b8515620005435760018060a01b03199260049633858954161788556003948554161784558860145589518581116200052e576017548a81811c9116801562000523575b888210146200050e57848111620004c4575b5086848211600114620004565781908b9c60009c9b9c926200044a575b505060001982871b1c191690891b176017559697965b601e556000985b620001ee575b6040516142b790816200071e8239f35b8051891015620004445760168054898101908181116200042f576801000000000000000092838210156200041a5782815582821015620004055760005287600020015581518a1015620003f057858a891b83010151906015805491821015620003c6578a8201808255821015620003db57600052866000200190805190868211620003c65782548b81811c91168015620003bb575b89821014620003a6578581116200035d575b508790858311600114620002f6576000919083620002ea575b505060001982871b1c1916908a1b1790555b6000198914620002d5579787019787620001d8565b601186634e487b7160e01b6000525260246000fd5b015190503880620002ae565b90601f1983169184600052896000209260005b81811062000347575090848e95949392106200032e575b505050811b019055620002c0565b015160001983891b60f8161c1916905538808062000320565b828401518555938e0193928b01928b0162000309565b8360005288600020868085018d1c8201928b86106200039c575b018c1c01908c905b8281106200038f57505062000295565b60008155018c906200037f565b9250819262000377565b60228a634e487b7160e01b6000525260246000fd5b90607f169062000283565b604189634e487b7160e01b6000525260246000fd5b603289634e487b7160e01b6000525260246000fd5b603287634e487b7160e01b6000525260246000fd5b60328a634e487b7160e01b6000525260246000fd5b60418a634e487b7160e01b6000525260246000fd5b601189634e487b7160e01b6000525260246000fd5b620001de565b015190503880620001bb565b601f1982169b6017600052886000209c60005b818110620004ae5750918c9d91848e9d9e95941062000495575b505050811b01601755979697620001d1565b015160001983891b60f8161c1916905538808062000483565b828401518f559d8d019d928a01928a0162000469565b601760005287600020858084018c1c8201928a851062000504575b018b1c01908b905b828110620004f75750506200019e565b60008155018b90620004e7565b92508192620004df565b602289634e487b7160e01b6000525260246000fd5b90607f16906200018c565b604188634e487b7160e01b6000525260246000fd5b60405163e6c4247b60e01b8152600490fd5b01519050388062000134565b908b9350601f198316916002600052896000209260005b8b828210620005b457505084116200059a575b505050811b0160025562000149565b015160001960f88460031b161c191690553880806200058b565b8385015186558f9790950194938401930162000578565b909150600260005287600020858085018c1c8201928a861062000616575b918d9186959493018d1c01915b828110620006065750506200011d565b600081558594508d9101620005f6565b92508192620005e9565b634e487b7160e01b600052602260045260246000fd5b91607f169162000109565b634e487b7160e01b600052604160045260246000fd5b600080fd5b825189811162000657578a916200067984848094890101620006ab565b815201920191620000c8565b6040519190601f01601f191682016001600160401b038111838210176200064157604052565b919080601f84011215620006575782516001600160401b0381116200064157602090620006e1601f8201601f1916830162000685565b92818452828287010111620006575760005b8181106200070957508260009394955001015290565b8581018301518482018401528201620006f356fe60806040526004361015610018575b361561001657005b005b60003560e01c8062fdd58e146102f757806301ffc9a7146102f257806302fe5305146102ed57806306eb36db146102e857806306fdde03146102e35780630dccc9ad146102de5780630e89341c146102d957806312065fe0146102d457806318dcfd71146102cf5780631f185d16146102ca5780632796f7c6146102c55780632defa859146102c05780632eb2c2d6146102bb578063339459a6146102b65780633b9b7955146102b15780634622ab03146102ac5780634e1273f4146102a75780635718e17b146102a25780635fac2d9d1461029d5780636c51797b1461029857806378a89567146102935780637eb1a7381461028e57806381fbf0a5146102895780638da5cb5b14610284578063a1f7f5391461027f578063a22cb4651461027a578063abbbf8d714610275578063af48452614610270578063b505c66d1461026b578063b90306ad14610266578063c3c916d914610261578063c54e44b01461025c578063c85700fb14610257578063d878fe1014610252578063e01ad5fd1461024d578063e0a9bc2b14610248578063e834a83414610243578063e985e9c51461023e578063edd38c0114610239578063f242432a14610234578063f356eedb1461022f578063f526f68a1461022a578063f9ffedb714610225578063fac333ac14610220578063fcf563681461021b5763fdc10bc90361000e576118cb565b6118a2565b611863565b611845565b6117ac565b61178e565b6116db565b61168c565b611634565b611616565b6115fb565b611580565b611555565b611440565b611407565b6113e9565b6112f5565b611269565b611238565b611199565b6110f1565b611087565b61105e565b611040565b610f27565b610eff565b610ee1565b610ec3565b610e83565b610dc8565b610d2f565b610caf565b610c96565b610b7b565b610add565b610a9f565b6109dc565b6109bf565b6109a3565b610817565b610785565b6106b7565b610540565b6104e3565b61037f565b61032e565b6001600160a01b031690565b6001600160a01b0381160361031957565b600080fd5b610104359061032c82610308565b565b3461031957604036600319011261031957602061036460043561035081610308565b6024356000526000835260406000206118f6565b54604051908152f35b6001600160e01b031981160361031957565b3461031957602036600319011261031957602060043561039e8161036d565b63ffffffff60e01b16636cdb3d1360e11b81149081156103dc575b81156103cb575b506040519015158152f35b6301ffc9a760e01b149050386103c0565b6303a24d0760e21b811491506103b9565b634e487b7160e01b600052604160045260246000fd5b604081019081106001600160401b0382111761041e57604052565b6103ed565b602081019081106001600160401b0382111761041e57604052565b601f909101601f19168101906001600160401b0382119082101761041e57604052565b604051906101e082016001600160401b0381118382101761041e57604052565b6001600160401b03811161041e57601f01601f191660200190565b81601f82011215610319578035906104b382610481565b926104c1604051948561043e565b8284526020838301011161031957816000926020809301838601378301015290565b34610319576020366003190112610319576004356001600160401b0381116103195761051390369060040161049c565b6008546001600160a01b0316330361052e5761001690612313565b60405163ea8e4eb560e01b8152600490fd5b346103195760003660031901126103195761056161055c613ed6565b612d8c565b601d54810390811161057857602090604051908152f35b611938565b90600182811c921680156105ad575b602083101461059757565b634e487b7160e01b600052602260045260246000fd5b91607f169161058c565b90604051918260008254926105cb8461057d565b90818452600194858116908160001461063857506001146105f5575b505061032c9250038361043e565b9093915060005260209081600020936000915b81831061062057505061032c935082010138806105e7565b85548884018501529485019487945091830191610608565b91505061032c94506020925060ff191682840152151560051b82010138806105e7565b60005b83811061066e5750506000910152565b818101518382015260200161065e565b906020916106978151809281855285808601910161065b565b601f01601f1916010190565b9060206106b492818152019061067e565b90565b346103195760008060031936011261078257604051816017546106d98161057d565b8084529060019081811690811561075a5750600114610713575b61070f846107038188038261043e565b604051918291826106a3565b0390f35b60178352602094506000805160206142428339815191525b828410610747575050508161070f9361070392820101936106f3565b805485850187015292850192810161072b565b61070f96506107039450602092508593915060ff191682840152151560051b820101936106f3565b80fd5b346103195760008060031936011261078257604051816002546107a78161057d565b8084529060019081811690811561075a57506001146107d05761070f846107038188038261043e565b60028352602094506000805160206142028339815191525b828410610804575050508161070f9361070392820101936106f3565b80548585018701529285019281016107e8565b346103195760203660031901126103195760006004358072184f03e93ff9f4daa797ed6e38ed64bf6a1f0160401b80821015610995575b506904ee2d6d415b85acef8160201b80831015610986575b50662386f26fc1000080831015610977575b506305f5e10080831015610968575b5061271080831015610959575b506064821015610949575b600a8092101561093f575b6001908160216108bb828701612124565b95860101905b610909575b60405161070f90610703816108fb6108ea8a6108e460208501612099565b9061210d565b64173539b7b760d91b815260050190565b03601f19810183528261043e565b600019019083906f181899199a1a9b1b9c1cb0b131b232b360811b8282061a83530491821561093a579190826108c1565b6108c6565b91600101916108aa565b919060646002910491019161089f565b60049193920491019138610894565b60089193920491019138610887565b60109193920491019138610878565b60209193920491019138610866565b60409350810491503861084e565b3461031957600036600319011261031957602047604051908152f35b346103195760003660031901126103195760208054604051908152f35b346103195760208060031936011261031957610a4f6004356109fd81610308565b6005546040516001600160a01b03928316858201528481529116610a2082610403565b60405190610a2d82610403565b601182527069735369676e657228616464726573732960781b85830152613f8c565b919080610a95575b15610a83578181610a719261070f9451830101910161303a565b60405190151581529081906020820190565b604051633204506f60e01b8152600490fd5b5080825114610a57565b34610319576020366003190112610319576008546001600160a01b0316330361052e57600435601f55005b6001600160a01b03909116815260200190565b34610319576000366003190112610319576018546040516001600160a01b039091168152602090f35b6001600160401b03811161041e5760051b60200190565b81601f8201121561031957803591610b3483610b06565b92610b42604051948561043e565b808452602092838086019260051b820101928311610319578301905b828210610b6c575050505090565b81358152908301908301610b5e565b346103195760a03660031901126103195760048035610b9981610308565b602435610ba581610308565b6001600160401b039060443582811161031957610bc59036908601610b1d565b9060643583811161031957610bdd9036908701610b1d565b9260843590811161031957610bf5903690870161049c565b936001600160a01b03808216903382141580610c74575b610c5557831615610c3d5715610c26576100169550611a9f565b604051626a0d4560e21b8152600081880152602490fd5b604051632bfa23e760e11b8152600081890152602490fd5b60405163711bec9160e11b815280610c708533838d01611a23565b0390fd5b5081600052600160205260ff610c8e3360406000206118f6565b541615610c0c565b34610319576000366003190112610319576100166138b1565b34610319576000366003190112610319576003546040516001600160a01b039091168152602090f35b634e487b7160e01b600052603260045260246000fd5b601554811015610d0957601560005260206000200190600090565b610cd8565b60165415610d09576016600090815260008051602061426283398151915291565b346103195760203660031901126103195760043560155481101561031957601560005261070f90610d6f90600080516020614222833981519152016105b7565b60405191829160208352602083019061067e565b90815180825260208080930193019160005b828110610da3575050505090565b835185529381019392810192600101610d95565b9060206106b4928181520190610d83565b34610319576040366003190112610319576004356001600160401b038082116103195736602383011215610319578160040135610e0481610b06565b92610e12604051948561043e565b81845260209160248386019160051b8301019136831161031957602401905b828210610e6a57856024358681116103195761070f91610e58610e5e923690600401610b1d565b9061197e565b60405191829182610db7565b8380918335610e7881610308565b815201910190610e31565b3461031957602036600319011261031957600435601554811015610d0957601560005261070f90610d6f90600080516020614222833981519152016105b7565b34610319576000366003190112610319576020601f54604051908152f35b34610319576000366003190112610319576020601a54604051908152f35b34610319576000366003190112610319576020601654604051908152f35b8015150361031957565b346103195760c036600319011261031957600435610f4481610308565b602435610f5081610308565b6044356064359060843592610f6484610f1d565b60a4356001600160401b03811161031957610f8390369060040161049c565b936001600160a01b03908282161561102e578187161561102e57156110245790610fff610ff06110189695949360065416610fbc612cb4565b9060405190610fca82610403565b6014825273616c6c6f77466f7263655472616e73666572282960601b6020830152613f61565b6020808251830101910161303a565b15159560ff199660ff886022541691161760225561304f565b60225416602255600080f35b506100169461304f565b60405163e6c4247b60e01b8152600490fd5b34610319576000366003190112610319576020601e54604051908152f35b34610319576000366003190112610319576004546040516001600160a01b039091168152602090f35b346103195760003660031901126103195760206110e960018060a01b03600954166040516110b481610403565b601381527267657464656c656761746f72436f756e74282960681b84820152604051916110e083610423565b60008352614087565b604051908152f35b346103195760403660031901126103195760043561110e81610308565b60243561111a81610f1d565b6001600160a01b038216918215611181576111429033600052600160205260406000206118f6565b9015159060ff1981541660ff83161790556040519081527f17307eab39ab6107e8899845ad3d59bd9653f200f220920489ca2b5937696c3160203392a3005b60405162ced3e160e81b815260006004820152602490fd5b3461031957602080600319360112610319576001600160401b0360043581811161031957366023820112156103195780600401356111d681610b06565b926111e4604051948561043e565b818452848401906024809360051b8501019336851161031957838101925b8584106112125761001687612176565b833583811161031957889161122d839288369187010161049c565b815201930192611202565b3461031957602036600319011261031957602061125f60043561125a81610308565b613e55565b6040519015158152f35b610120366003190112610319576001600160401b036004358181116103195761129690369060040161049c565b602435828111610319576112ae90369060040161049c565b90604435928311610319576112ca61001693369060040161049c565b608435926112d784610308565b6112df61031e565b9360e4359360c4359360a4359360643592612900565b3461031957602036600319011261031957600854600435906001600160a01b0316330361052e576004602061133361132e6003546102fc565b6102fc565b6040516311be646b60e21b815292839182905afa80156113e45760008084819493829483916113b6575b505af1611368611df8565b5015610a83577fcdcc745fe377b103b45fa0cec23ae3ef93d6fc6a84a01f0d18c40b354dd1d5d86113b16113a061132e600e546102fc565b604051938452929081906020820190565b0390a2005b6113d7915060203d81116113dd575b6113cf818361043e565b810190613130565b3861135d565b503d6113c5565b611dd9565b34610319576000366003190112610319576020602154604051908152f35b3461031957602036600319011261031957602061142e60043561142981610308565b614178565b6040516001600160a01b039091168152f35b60a03660031901126103195760043561145881610308565b60243560443560018060a01b03806007541660405191611498818716938460208201526020815261148881610403565b33936114926125c1565b90614007565b160361052e571561102e576114ab6128dd565b601e5490601f549381850190818611610578576114e56114e08461070f986114db6115389661153e9910156125f3565b6121d4565b601f55565b6108fb6114f130612875565b956115036114fe82612639565b610cee565b509061151361132e6003546102fc565b9160405196879563b505c66d60e01b6020880152608435936064359360248901612770565b826140f6565b506115496001601455565b60405191829182610aca565b34610319576020366003190112610319576008546001600160a01b0316330361052e57600435601e55005b3461031957602036600319011261031957602061125f6004356115a281610308565b6009546040516001600160a01b039283168582015284815291166115c582610403565b604051906115d282610403565b6018825277697364656c656761746f724e6f646528616464726573732960401b8583015261404b565b3461031957600036600319011261031957602061125f613de3565b34610319576000366003190112610319576020601d54604051908152f35b3461031957604036600319011261031957602060ff61168060043561165881610308565b6024359061166582610308565b6001600160a01b0316600090815260018552604090206118f6565b54166040519015158152f35b346103195760203660031901126103195760206116ae60043561142981610308565b6001600160a01b038116151590816116cb57506040519015158152f35b6116d59150613e55565b386103c0565b346103195760a0366003190112610319576004356116f881610308565b60243561170481610308565b6084356001600160401b0381116103195761172390369060040161049c565b906001600160a01b03831633811415908161176b575b5061174f57610016926064359160443591611a3d565b60405163711bec9160e11b815280610c70853360048401611a23565b9050600052600160205260ff6117853360406000206118f6565b54161538611739565b34610319576000366003190112610319576020601b54604051908152f35b34610319576040366003190112610319576004356117c981610308565b6024356001600160401b038111610319576117e890369060040161049c565b6001600160a01b038281161561102e57611800613de3565b156118335761180e33613e55565b908115611825575b501561052e5761001691612f83565b600854163314905038611816565b604051634ee2123760e11b8152600490fd5b34610319576000366003190112610319576020601c54604051908152f35b34610319576020366003190112610319576004356016548110156103195760166000526000805160206142628339815191520154604051908152602090f35b34610319576000366003190112610319576019546040516001600160a01b039091168152602090f35b346103195760003660031901126103195760206110e9613ed6565b6000526000602052604060002090565b9060018060a01b0316600052602052604060002090565b61192391600052600060205260406000206118f6565b5490565b908152602081019190915260400190565b634e487b7160e01b600052601160045260246000fd5b60001981146105785760010190565b805115610d095760200190565b8051821015610d095760209160051b010190565b91909180518351808203611a0757505080519061199a82610b06565b916119a8604051938461043e565b8083526119b7601f1991610b06565b0190602091368385013760005b81518110156119ff57806119ea6119fa9260051b85808287010151918a0101519061190d565b6119f4828761196a565b5261194e565b6119c4565b509193505050565b610c70604051928392635b05999160e01b845260048401611927565b6001600160a01b0391821681529116602082015260400190565b92939290916001600160a01b0380841615611a8657821615611a6e5761032c94611a6691611d3b565b929091611a9f565b604051626a0d4560e21b815260006004820152602490fd5b604051632bfa23e760e11b815260006004820152602490fd5b91939290611ab060018651146131d6565b6001600160a01b038381168015159081611d24575b50611b1c575b611ad7838784876133fa565b8116611ae5575b5050505050565b8451600103611b0b57602080611b019601519201519233611f16565b3880808080611ade565b611b1794919233612062565b611b01565b601a54601d54809111611b30575b50611acb565b611b43611b3f60225460ff1690565b1590565b15611d085750611bc8611bc3611b3f611b8b611b606007546102fc565b60405190611b8382611b758c60208301610aca565b03601f19810184528361043e565b6114926125c1565b611b98858216151561321e565b611bac611ba48861195d565b511515613261565b611bb4612cb4565b90611bbd61329f565b9061404b565b6132c3565b611c7d611bd3613ed6565b611bf3611bdf82612d8c565b611bea811515613302565b601d5490612648565b90611bff6006546102fc565b90611c3f611c37611c1f611c11612cb4565b611c1961333f565b86614087565b93611c28612cb4565b90611c31613367565b90614087565b6020546121d4565b811015611cf5575b5060215481611c5f611c588961195d565b51836121d4565b11611cdb575b50508015159081611cc7575b81611cb3575b50613394565b611c9a611c95611c8c8561195d565b51601d546121d4565b601d55565b611cad611ca860215461194e565b602155565b38611b2a565b9050611cbe8561195d565b51111538611c77565b9050611cd28561195d565b51151590611c71565b611ce491612648565b611ced8661195d565b523880611c65565b602055611d026000602155565b38611c47565b611c95611d1f91611d188661195d565b51906121d4565b611cad565b9050611d3461132e6019546102fc565b1438611ac5565b9160405192600184526020840152604083019160018352606084015260808301604052565b9081602091031261031957516106b48161036d565b909260a0926106b49594600180861b031683526000602084015260408301526060820152816080820152019061067e565b91926106b495949160a094600180871b03809216855216602084015260408301526060820152816080820152019061067e565b6040513d6000823e3d90fd5b60405190611df282610423565b60008252565b3d15611e23573d90611e0982610481565b91611e17604051938461043e565b82523d6000602084013e565b606090565b9293919093843b611e3a575050505050565b602091611e5d604051948593849363f23a6e6160e01b9889865260048601611d75565b038160006001600160a01b0388165af160009181611ee6575b50611eaf5782611e84611df8565b8051919082611ea857604051632bfa23e760e11b815280610c708460048301610aca565b9050602001fd5b6001600160e01b03191603611ec957503880808080611ade565b604051632bfa23e760e11b8152908190610c709060048301610aca565b611f0891925060203d8111611f0f575b611f00818361043e565b810190611d60565b9038611e76565b503d611ef6565b939290949194853b611f2b575b505050505050565b611f4e602093604051958694859463f23a6e6160e01b998a875260048701611da6565b038160006001600160a01b0388165af160009181611f90575b50611f755782611e84611df8565b6001600160e01b03191603611ec95750388080808080611f23565b611fa991925060203d8111611f0f57611f00818361043e565b9038611f67565b92611fdf6106b49593611fed9360018060a01b031686526000602087015260a0604087015260a0860190610d83565b908482036060860152610d83565b91608081840391015261067e565b93906106b49593611fdf91611fed9460018060a01b03809216885216602087015260a0604087015260a0860190610d83565b9293919093843b61203f575050505050565b602091611e5d604051948593849363bc197c8160e01b9889865260048601611fb0565b939290949194853b61207657505050505050565b611f4e602093604051958694859463bc197c8160e01b998a875260048701611ffb565b600254600092916120a98261057d565b916001908181169081156120fa57506001146120c457505050565b9091929350600260005260209081600020906000915b8583106120e957505050500190565b8054858401529183019181016120da565b60ff191683525050811515909102019150565b906121206020928281519485920161065b565b0190565b9061212e82610481565b61213b604051918261043e565b828152809261214c601f1991610481565b0190602036910137565b8115612160570490565b634e487b7160e01b600052601260045260246000fd5b6008549091906001600160a01b0316330361052e5760005b82518110156121cf576016549060018201809211610578576121b26121ca926121e1565b6121c56121bf828661196a565b516124bd565b61194e565b61218e565b509050565b9190820180921161057857565b601654600160401b81101561041e576001810180601655811015610d095760166000526000805160206142628339815191520155565b601f8111612223575050565b6000906002825260208220906020601f850160051c83019410612261575b601f0160051c01915b82811061225657505050565b81815560010161224a565b9092508290612241565b601f8111612277575050565b6000906017825260208220906020601f850160051c830194106122b5575b601f0160051c01915b8281106122aa57505050565b81815560010161229e565b9092508290612295565b90601f81116122cd57505050565b600091825260208220906020601f850160051c83019410612309575b601f0160051c01915b8281106122fe57505050565b8181556001016122f2565b90925082906122e9565b80519091906001600160401b03811161041e5761233a8161233560025461057d565b612217565b602080601f8311600114612376575081929360009261236b575b50508160011b916000199060031b1c191617600255565b015190503880612354565b6002600052601f19831694909190600080516020614202833981519152926000905b8782106123d05750508360019596106123b7575b505050811b01600255565b015160001960f88460031b161c191690553880806123ac565b80600185968294968601518155019501930190612398565b80519091906001600160401b03811161041e5761240f8161240a60175461057d565b61226b565b602080601f831160011461244b5750819293600092612440575b50508160011b916000199060031b1c191617601755565b015190503880612429565b6017600052601f19831694909190600080516020614242833981519152926000905b8782106124a557505083600195961061248c575b505050811b01601755565b015160001960f88460031b161c19169055388080612481565b8060018596829496860151815501950193019061246d565b60155490600160401b82101561041e5760019081830180601555831015610d09576015600052805160008051602061422283398151915290930192906020906001600160401b03831161041e5761251e83612518875461057d565b876122bf565b81601f8411600114612557575092829391839260009461254c575b50501b916000199060031b1c1916179055565b015192503880612539565b919083601f19811661256e88600052602060002090565b946000905b888383106125a7575050501061258e575b505050811b019055565b015160001960f88460031b161c19169055388080612584565b858701518855909601959485019487935090810190612573565b604051906125ce82610403565b601682527567657455736572546f53746f7228616464726573732960501b6020830152565b156125fa57565b60405162461bcd60e51b81526020600482015260176024820152761bdc98cc4c4d4d4b9cdd5c1c1b1e4b989c995858da1959604a1b6044820152606490fd5b60001981019190821161057857565b9190820391821161057857565b600254600092916126658261057d565b9081815260019283811690816000146126bf575060011461268557505050565b9092935060026000526020928360002092846000945b8386106126ab5750505050010190565b80548587018301529401938590820161269b565b91935050602093945060ff191683830152151560051b010190565b90600092918054916126eb8361057d565b91828252600193848116908160001461274d575060011461270d575b50505050565b90919394506000526020928360002092846000945b838610612739575050505001019038808080612707565b805485870183015294019385908201612722565b9294505050602093945060ff191683830152151560051b01019038808080612707565b949097959196929361012080875260009060175461278d8161057d565b80928a0152600190818116908160001461284d5750600114612802575b5050869798996127c782610100996127d5940360208c0152612655565b9089820360408b01526126da565b60608801999099526001600160a01b03948516608088015260a087015260c086015260e085015216910152565b6017600090815292506020906000805160206142428339815191525b8385106128385750505050860161014001896127c76127aa565b8054858c01610140015293820193810161281e565b60ff1916610140808c019190915292151560051b8a0190920192508b91506127c790506127aa565b6e5af43d82803e903d91602b57fd5bf390763d602d80600a3d3981f3363d3d373d3d3d363d7300000062ffffff8260881c161760005260781b17602052603760096000f0906001600160a01b038216156128cb57565b60405163b06ebf3d60e01b8152600490fd5b6002601454146128ee576002601455565b604051633ee5aeb560e01b8152600490fd5b6129dc96936129a36129a89261299e6129ad96956129996129d79a612a0b9f8d9f9d9061295c61297b926129326128dd565b6001600160a01b03906129539061294c8584161515612a27565b1515612a6c565b84161515612aab565b61297661297061132e61132e6003546102fc565b15612aee565b613562565b6129836138b1565b61299461298f33613e55565b612b31565b613f13565b612313565b6123e8565b6121e1565b6124bd565b6129c06129bb6004546102fc565b612b77565b6129c985601a55565b6129d283601c55565b601b55565b602055565b6129e76004546102fc565b906129fd6129f3610d0e565b90549060031b1c90565b612a05611de5565b92612b99565b601880546001600160a01b0319163317905561032c6001601455565b15612a2e57565b60405162461bcd60e51b81526020600482015260166024820152751bdc98cc4c4d4d4b9a195e18985cd94b99985a5b195960521b6044820152606490fd5b15612a7357565b60405162461bcd60e51b815260206004820152601060248201526f6f7263313135352e7174792e7a65726f60801b6044820152606490fd5b15612ab257565b60405162461bcd60e51b81526020600482015260146024820152736f7263313135352e6163636f756e742e7a65726f60601b6044820152606490fd5b15612af557565b60405162461bcd60e51b81526020600482015260146024820152731bdc98cc4c4d4d4b985b1c9958591e4b9a5b9a5d60621b6044820152606490fd5b15612b3857565b60405162461bcd60e51b81526020600482015260176024820152761bdc98cc4c4d4d4b9d5b9cd958dd5c994b99985a5b1959604a1b6044820152606490fd5b601980546001600160a01b0319166001600160a01b0392909216919091179055565b92916001600160a01b03841691908215611a8657612bb691611d3b565b91600190612bc6828451146131d6565b8251845190818103611a0757505081806000905b612c67575b50835103612c3d57600060208401516000805160206141e2833981519152612c136020880151604051918291339583611927565b0390a45b815103612c33579060208061032c959301519101519133611e28565b61032c933361202d565b60006040516000805160206141c2833981519152339180612c5f8989836133d5565b0390a4612c17565b8451811015612caf5780612ca99160051b612ca2612c9a8b612c95602080868d010151958d010151946118e6565b6118f6565b9182546121d4565b905561194e565b81612bda565b612bdf565b604051612cc081610423565b60008152906000368137565b60405190612cd982610403565b600a82526973687574646f776e282960b01b6020830152565b60405190612cff82610403565b601b82527a6765744e6674506f6f6c2875696e743235362c75696e743235362960281b6020830152565b9190826080910312610319578151916020810151916060604083015192015190565b90670de0b6b3a76400009182810292818404149015171561057857565b908160640291606483040361057857565b8181029291811591840414171561057857565b612d976006546102fc565b90612db1612da3612cb4565b612dab612ccc565b8461404b565b612f7b576000601c54604051602090612e0f612e0182612ddf86868301919060206040840193600181520152565b0392612df3601f199485810183528261043e565b612dfb612cf2565b89613f61565b838082518301019101612d29565b612e1c84889b959b6121d4565b8910612f6e57670de0b6b3a76400009981612f16575b50505050612e869291612e7991612e6b6040519283612e5f89888301919060206040840193600281520152565b0390810184528361043e565b612e73612cf2565b90613f61565b8051810182019101612d29565b959192909386612eac575b5050505050905004601a54808211612ea7575090565b905090565b612ecc92612ec1612edb9893612ec7936121d4565b90612648565b612156565b9081612ee657505050806121d4565b803880808080612e91565b612f1092612f0a612f04612eff93612eff601a54612d4b565b612d79565b91612d68565b90612156565b906121d4565b91612f39612e8697969492612ec7612f33612e79989c968c6121d4565b8d612648565b9182612f4e575050505b959181939438612e32565b612f69935090612f0a612f04612eff93612eff601a54612d4b565b612f43565b5050505050505091505090565b5050601a5490565b6019549091906001600160a01b0390811690831681146130355760165415610d0957601660005260008051602061426283398151915254612fc4908261190d565b9283612fd05750505050565b61300f8161301d9561301894600160ff196022541617602255612ff1610d0e565b9390546040519461300186610423565b6000865260031b1c91611a3d565b61299481612b77565b613145565b61302c60ff1960225416602255565b38808080612707565b505050565b9081602091031261031957516106b481610f1d565b94939291908160005260006020528261306c8760406000206118f6565b54106130f1576001600160a01b038616331415806130be575b6130a2579161032c9495916130189361309c611de5565b93611a3d565b60405163711bec9160e11b815280610c70883360048401611a23565b506130ec611b3f6130e533612c958a60018060a01b03166000526001602052604060002090565b5460ff1690565b613085565b60405162461bcd60e51b81526020600482015260176024820152761bdc98cc4c4d4d4b9d1c985b9cd9995c8b99985a5b1959604a1b6044820152606490fd5b9081602091031261031957516106b481610308565b8051156131af576004602061315e61132e6003546102fc565b6040516343af1d9d60e01b815292839182905afa80156113e4576131af92611b75926000926131b2575b50604051639e6c4bd160e01b6020820152926131aa91849190602483016106a3565b6140f6565b50565b6131aa9192506131cf9060203d81116113dd576113cf818361043e565b9190613188565b156131dd57565b60405162461bcd60e51b81526020600482015260196024820152781bdc98cc4c4d4d4b98985d18da0b9b9bdd0b985b1b1bddd959603a1b6044820152606490fd5b1561322557565b60405162461bcd60e51b81526020600482015260146024820152731bdc98cc4c4d4d4b9cdd1bdc8b9a5b9d985b1a5960621b6044820152606490fd5b1561326857565b60405162461bcd60e51b815260206004820152600f60248201526e6f7263313135352e6c65737351747960881b6044820152606490fd5b604051906132ac82610403565b600882526769734c6f636b282960c01b6020830152565b156132ca57565b60405162461bcd60e51b815260206004820152601060248201526f6f7263313135352e696e61637469766560801b6044820152606490fd5b1561330957565b60405162461bcd60e51b815260206004820152600e60248201526d1bdc98cc4c4d4d4b9b1bd8dad95960921b6044820152606490fd5b6040519061334c82610403565b600c82526b6d61784e465453656e64282960a01b6020830152565b6040519061337482610403565b60118252704e465453656e645065724379636c65282960781b6020830152565b1561339b57565b60405162461bcd60e51b815260206004820152601260248201527137b93198989a9a973634b6b4ba1737bb32b960711b6044820152606490fd5b90916133ec6106b493604084526040840190610d83565b916020818403910152610d83565b9392918051835190818103611a0757505060005b81518110156134e157600581901b82810160209081015191860101516001600160a01b0392918590898516613470575b613451948216613456575b50505061194e565b61340e565b61346691612c95612c9a926118e6565b9055388481613449565b919293905061348289612c95846118e6565b548381106134aa5791869184613451969594036134a28c612c95856118e6565b55945061343e565b6040516303dee4c560e01b81526001600160a01b038b16600482015260248101919091526044810184905260648101839052608490fd5b508051939493919291600103613531576020908101519101516040516001600160a01b03938416949093169233926000805160206141e283398151915292829161352c919083611927565b0390a4565b6040516001600160a01b03938416949093169233926000805160206141c283398151915292829161352c91836133d5565b6001600160a01b0390811690811561102e57600380546001600160a01b031981168417909155167fe939feee179e631422bcc8f6e6d7d908cb3f8af38f5372f17c77e15aea5c80ee600080a3565b6001600160a01b039091169052565b61388f6101c061032c926135f86135d682516102fc565b600580546001600160a01b0319166001600160a01b0392909216919091179055565b61362a61360860208301516102fc565b600680546001600160a01b0319166001600160a01b0392909216919091179055565b61365c61363a60408301516102fc565b600780546001600160a01b0319166001600160a01b0392909216919091179055565b61368e61366c60608301516102fc565b600880546001600160a01b0319166001600160a01b0392909216919091179055565b6136c061369e60808301516102fc565b600980546001600160a01b0319166001600160a01b0392909216919091179055565b6136f26136d060a08301516102fc565b600a80546001600160a01b0319166001600160a01b0392909216919091179055565b61372461370260c08301516102fc565b600b80546001600160a01b0319166001600160a01b0392909216919091179055565b61375661373460e08301516102fc565b600c80546001600160a01b0319166001600160a01b0392909216919091179055565b6137896137676101008301516102fc565b600d80546001600160a01b0319166001600160a01b0392909216919091179055565b6137bc61379a6101208301516102fc565b600e80546001600160a01b0319166001600160a01b0392909216919091179055565b6137ef6137cd6101408301516102fc565b600f80546001600160a01b0319166001600160a01b0392909216919091179055565b6138226138006101608301516102fc565b601080546001600160a01b0319166001600160a01b0392909216919091179055565b6138556138336101808301516102fc565b601180546001600160a01b0319166001600160a01b0392909216919091179055565b6138886138666101a08301516102fc565b601280546001600160a01b0319166001600160a01b0392909216919091179055565b01516102fc565b601380546001600160a01b0319166001600160a01b0392909216919091179055565b6138bf61132e6003546102fc565b604051634bf9c0ad60e11b815290602082600481845afa9182156113e457600092613dc2575b5060405163cfbffe5360e01b815291602083600481855afa9283156113e457600093613da1575b5060405163ab6e844f60e01b815290602082600481865afa9182156113e457600092613d80575b50604051630536340960e21b815291602083600481875afa9283156113e457600093613d5f575b5060405163d1f956b160e01b815292602084600481885afa9384156113e457600094613d3e575b50604051631cc3bfab60e31b815293602085600481895afa9485156113e457600095613d1d575b5060405163e09d394d60e01b81526020816004818a5afa9081156113e457600091613cfe575b506040516314ac1b5960e21b81526020816004818b5afa9081156113e457600091613cdf575b5060405163013cf08b60e01b815260006004820152916020836024818c5afa9283156113e457600093613cbe575b50604051635e09dbe760e01b8152976020896004818d5afa9485156113e457600499600096613c9d575b50604051635506ee0b60e11b8152996020908b90818e5afa9687156113e45760049a600098613c7c575b50604051636402742760e01b81529a6020908c90818f5afa9889156113e45760049b60009a613c5b575b5060208d6040519d8e80926330125cf560e01b82525afa9a8b156113e4578d60049d60009d613c39575b506020906040519e8f80926324768d9160e01b82525afa9c8d156113e45760009d613c18575b506040516313b92d3560e31b81529d8e9081905a92600491602094fa9d8e156113e45760009e613bf7575b50613b24610461565b9e8f91613b3190836135b0565b613b3e90602083016135b0565b60400190613b4b916135b0565b613b589060608e016135b0565b613b659060808d016135b0565b613b729060a08c016135b0565b613b7f9060c08b016135b0565b613b8c9060e08a016135b0565b613b9a9061010089016135b0565b613ba89061012088016135b0565b613bb69061014087016135b0565b613bc49061016086016135b0565b613bd29061018085016135b0565b613be0906101a084016135b0565b613bee906101c083016135b0565b61032c906135bf565b613c11919e5060203d6020116113dd576113cf818361043e565b9c38613b1b565b613c32919d5060203d6020116113dd576113cf818361043e565b9b38613af0565b6020919d50613c5490823d84116113dd576113cf818361043e565b9c90613aca565b613c75919a5060203d6020116113dd576113cf818361043e565b9838613aa0565b613c9691985060203d6020116113dd576113cf818361043e565b9638613a76565b613cb791965060203d6020116113dd576113cf818361043e565b9438613a4c565b613cd891935060203d6020116113dd576113cf818361043e565b9138613a22565b613cf8915060203d6020116113dd576113cf818361043e565b386139f4565b613d17915060203d6020116113dd576113cf818361043e565b386139ce565b613d3791955060203d6020116113dd576113cf818361043e565b93386139a8565b613d5891945060203d6020116113dd576113cf818361043e565b9238613981565b613d7991935060203d6020116113dd576113cf818361043e565b913861395a565b613d9a91925060203d6020116113dd576113cf818361043e565b9038613933565b613dbb91935060203d6020116113dd576113cf818361043e565b913861390c565b613ddc91925060203d6020116113dd576113cf818361043e565b90386138e5565b600554604051613e2b916001600160a01b031690613e0081610403565b6008815267697353616665282960c01b602082015260405191613e2283610423565b60008352613f8c565b9080613e4a575b15610a8357806020806106b49351830101910161303a565b506020815114613e32565b613eaf60018060a01b038060055416604051916020941684830152838252613e7c82610403565b60405190613e8982610403565b601582527469735365637572654261736528616464726573732960581b85830152613f8c565b9080613ecc575b15610a8357816106b4928251830101910161303a565b5081815114613eb6565b6006546040516106b4916001600160a01b031690613ef381610403565b600681526569416765282960d01b6020820152604051916110e083610423565b6001600160a01b0390811690811561102e57600480546001600160a01b031981168417909155167f8292fce18fa69edf4db7b94ea2e58241df0ae57f97e0a6c9b29067028bf92d76600080a3565b90613f6c9291613f8c565b9060009015613f79575090565b6040519150613f8782610423565b815290565b803b15613fee57600092839263ffffffff60e01b90602081519101201690613fde6024604051809360208201958652613fce815180926020868601910161065b565b810103600481018452018261043e565b51915afa613fea611df8565b9091565b50505060009060405161400081610423565b6000815290565b929161401591600094613f8c565b9080614040575b6140235750565b90915060208180518101031261031957602001516102fc81610308565b50602081511461401c565b929161405991600094613f8c565b908061407c575b6140675750565b6106b49192506020808251830101910161303a565b506020815114614060565b929161409591600094613f8c565b90806140ba575b6140a35750565b909150602081805181010312610319576020015190565b50602081511461409c565b906020825192015163ffffffff60e01b9081811693600481106140e757505050565b60040360031b82901b16169150565b6001600160a01b0381161561102e57600080918351908260208601915af19061411d611df8565b9115614127575090565b8051600091906004116141725761413e91506140c5565b81511561414e5750805190602001fd5b604051630870274d60e21b81526001600160e01b0319919091166004820152602490fd5b5061413e565b803b600061418582610481565b92614193604051948561043e565b82845260208401903c602d8151106141af57602a015160601c90565b60405163baf3f0f760e01b8152600490fdfe4a39dc06d4c0dbc64b70af90fd698a233a518aa5d07e595d983b8c0526c8f7fbc3d58168c5ae7397731d063d5bbf3d657854427343f4c083240f7aacaa2d0f62405787fa12a823e0f2b7631cc41b3ba8828b3321ca811111fa75cd3aa3bb5ace55f448fdea98c4d29eb340757ef0a66cd03dbb9538908a6a81d96026b71ec475c624b66cc0138b8fabc209247f72d758e1cf3343756d543badbf24212bed8c15d833147d7dc355ba459fc788f669e58cfaf9dc25ddcd0702e87d69c7b5124289a26469706673582212201c7b936b0e2ff8703c8e6fe2f9962162bc559a3f44014cc470b6d088d1da6bcb64736f6c63430008140033","linkReferences":{}},"methodIdentifiers":{"Burn(uint256)":"b90306ad","_delegatorCount()":"a1f7f539","_getImplementation(address)":"c54e44b0","_isDelegatorNode(address)":"e01ad5fd","_isSafe()":"e0a9bc2b","_isSecureBase(address)":"af484526","_isSigner(address)":"1f185d16","_uri()":"0dccc9ad","addToken(string[])":"abbbf8d7","balanceOf(address,uint256)":"00fdd58e","balanceOfBatch(address[],uint256[])":"4e1273f4","claimed()":"e834a834","clonedOf()":"2defa859","curSupply()":"5fac2d9d","getBalance()":"12065fe0","getHexbase()":"3b9b7955","getNames(uint256)":"5718e17b","getTokenCount()":"78a89567","getUnlockedNFT()":"06eb36db","ids(uint256)":"fac333ac","isApprovedForAll(address,address)":"e985e9c5","isSecuredNFT(address)":"edd38c01","lastTransferDay()":"18dcfd71","mintedAge()":"f9ffedb7","mintedUser()":"fcf56368","mintedfee()":"f356eedb","mintedqty()":"6c51797b","name()":"06fdde03","names(uint256)":"4622ab03","onTokenImport(address,bytes)":"f526f68a","onTokenTransfer(address,address,uint256,uint256,bool,bytes)":"7eb1a738","owner()":"8da5cb5b","postinit(string,string,string,uint256,address,uint256,uint256,uint256,address)":"b505c66d","preinit(address,uint256,uint256,uint256,uint256)":"c85700fb","safeBatchTransferFrom(address,address,uint256[],uint256[],bytes)":"2eb2c2d6","safeTransferFrom(address,address,uint256,uint256,bytes)":"f242432a","setApprovalForAll(address,bool)":"a22cb465","setURI(string)":"02fe5305","setcurSupply(uint256)":"2796f7c6","setsupply(uint256)":"d878fe10","supportsInterface(bytes4)":"01ffc9a7","syncBaseAddr()":"339459a6","systemAge()":"fdc10bc9","totSupply()":"81fbf0a5","totalNFTSent()":"c3c916d9","uri(uint256)":"0e89341c"},"id":29}