{"abi":[{"type":"constructor","inputs":[{"name":"_contractName","type":"string","internalType":"string"},{"name":"baseURI_","type":"string","internalType":"string"},{"name":"_supply","type":"uint256","internalType":"uint256"},{"name":"_names","type":"string[]","internalType":"string[]"},{"name":"_hex","type":"address","internalType":"address"}],"stateMutability":"nonpayable"},{"type":"fallback","stateMutability":"payable"},{"type":"receive","stateMutability":"payable"},{"type":"function","name":"Burn","inputs":[{"name":"amount","type":"uint256","internalType":"uint256"}],"outputs":[],"stateMutability":"nonpayable"},{"type":"function","name":"_delegatorCount","inputs":[],"outputs":[{"name":"","type":"uint256","internalType":"uint256"}],"stateMutability":"view"},{"type":"function","name":"_getImplementation","inputs":[{"name":"clone","type":"address","internalType":"address"}],"outputs":[{"name":"impl","type":"address","internalType":"address"}],"stateMutability":"view"},{"type":"function","name":"_isDelegatorNode","inputs":[{"name":"sender","type":"address","internalType":"address"}],"outputs":[{"name":"","type":"bool","internalType":"bool"}],"stateMutability":"view"},{"type":"function","name":"_isSafe","inputs":[],"outputs":[{"name":"","type":"bool","internalType":"bool"}],"stateMutability":"view"},{"type":"function","name":"_isSecureBase","inputs":[{"name":"sender","type":"address","internalType":"address"}],"outputs":[{"name":"","type":"bool","internalType":"bool"}],"stateMutability":"view"},{"type":"function","name":"_isSigner","inputs":[{"name":"sender","type":"address","internalType":"address"}],"outputs":[{"name":"","type":"bool","internalType":"bool"}],"stateMutability":"view"},{"type":"function","name":"_uri","inputs":[],"outputs":[{"name":"","type":"string","internalType":"string"}],"stateMutability":"view"},{"type":"function","name":"addToken","inputs":[{"name":"_names","type":"string[]","internalType":"string[]"}],"outputs":[],"stateMutability":"nonpayable"},{"type":"function","name":"balanceOf","inputs":[{"name":"account","type":"address","internalType":"address"},{"name":"id","type":"uint256","internalType":"uint256"}],"outputs":[{"name":"","type":"uint256","internalType":"uint256"}],"stateMutability":"view"},{"type":"function","name":"balanceOfBatch","inputs":[{"name":"accounts","type":"address[]","internalType":"address[]"},{"name":"ids","type":"uint256[]","internalType":"uint256[]"}],"outputs":[{"name":"","type":"uint256[]","internalType":"uint256[]"}],"stateMutability":"view"},{"type":"function","name":"claimed","inputs":[],"outputs":[{"name":"","type":"uint256","internalType":"uint256"}],"stateMutability":"view"},{"type":"function","name":"clonedOf","inputs":[],"outputs":[{"name":"","type":"address","internalType":"address"}],"stateMutability":"view"},{"type":"function","name":"curSupply","inputs":[],"outputs":[{"name":"","type":"uint256","internalType":"uint256"}],"stateMutability":"view"},{"type":"function","name":"getBalance","inputs":[],"outputs":[{"name":"","type":"uint256","internalType":"uint256"}],"stateMutability":"view"},{"type":"function","name":"getHexbase","inputs":[],"outputs":[{"name":"","type":"address","internalType":"address"}],"stateMutability":"view"},{"type":"function","name":"getNames","inputs":[{"name":"inx","type":"uint256","internalType":"uint256"}],"outputs":[{"name":"","type":"string","internalType":"string"}],"stateMutability":"view"},{"type":"function","name":"getTokenCount","inputs":[],"outputs":[{"name":"","type":"uint256","internalType":"uint256"}],"stateMutability":"view"},{"type":"function","name":"getUnlockedNFT","inputs":[],"outputs":[{"name":"_NFT","type":"uint256","internalType":"uint256"}],"stateMutability":"view"},{"type":"function","name":"ids","inputs":[{"name":"","type":"uint256","internalType":"uint256"}],"outputs":[{"name":"","type":"uint256","internalType":"uint256"}],"stateMutability":"view"},{"type":"function","name":"isApprovedForAll","inputs":[{"name":"account","type":"address","internalType":"address"},{"name":"operator","type":"address","internalType":"address"}],"outputs":[{"name":"","type":"bool","internalType":"bool"}],"stateMutability":"view"},{"type":"function","name":"isSecuredNFT","inputs":[{"name":"orc1155","type":"address","internalType":"address"}],"outputs":[{"name":"","type":"bool","internalType":"bool"}],"stateMutability":"view"},{"type":"function","name":"lastTransferDay","inputs":[],"outputs":[{"name":"","type":"uint256","internalType":"uint256"}],"stateMutability":"view"},{"type":"function","name":"mintedAge","inputs":[],"outputs":[{"name":"","type":"uint256","internalType":"uint256"}],"stateMutability":"view"},{"type":"function","name":"mintedUser","inputs":[],"outputs":[{"name":"","type":"address","internalType":"address"}],"stateMutability":"view"},{"type":"function","name":"mintedfee","inputs":[],"outputs":[{"name":"","type":"uint256","internalType":"uint256"}],"stateMutability":"view"},{"type":"function","name":"mintedqty","inputs":[],"outputs":[{"name":"","type":"uint256","internalType":"uint256"}],"stateMutability":"view"},{"type":"function","name":"name","inputs":[],"outputs":[{"name":"","type":"string","internalType":"string"}],"stateMutability":"view"},{"type":"function","name":"names","inputs":[{"name":"","type":"uint256","internalType":"uint256"}],"outputs":[{"name":"","type":"string","internalType":"string"}],"stateMutability":"view"},{"type":"function","name":"onTokenImport","inputs":[{"name":"_from","type":"address","internalType":"address"},{"name":"_to","type":"address","internalType":"address"},{"name":"payload","type":"bytes","internalType":"bytes"}],"outputs":[],"stateMutability":"nonpayable"},{"type":"function","name":"onTokenTransfer","inputs":[{"name":"_from","type":"address","internalType":"address"},{"name":"_to","type":"address","internalType":"address"},{"name":"_id","type":"uint256","internalType":"uint256"},{"name":"_qty","type":"uint256","internalType":"uint256"},{"name":"_byforce","type":"bool","internalType":"bool"},{"name":"payload","type":"bytes","internalType":"bytes"}],"outputs":[],"stateMutability":"nonpayable"},{"type":"function","name":"owner","inputs":[],"outputs":[{"name":"","type":"address","internalType":"address"}],"stateMutability":"view"},{"type":"function","name":"postinit","inputs":[{"name":"_contractName","type":"string","internalType":"string"},{"name":"baseURI_","type":"string","internalType":"string"},{"name":"_nName","type":"string","internalType":"string"},{"name":"_nid","type":"uint256","internalType":"uint256"},{"name":"_account","type":"address","internalType":"address"},{"name":"_qty","type":"uint256","internalType":"uint256"},{"name":"_fee","type":"uint256","internalType":"uint256"},{"name":"_ag","type":"uint256","internalType":"uint256"},{"name":"_hex","type":"address","internalType":"address"}],"outputs":[],"stateMutability":"payable"},{"type":"function","name":"preinit","inputs":[{"name":"_account","type":"address","internalType":"address"},{"name":"_id","type":"uint256","internalType":"uint256"},{"name":"_qty","type":"uint256","internalType":"uint256"},{"name":"_fee","type":"uint256","internalType":"uint256"},{"name":"_ag","type":"uint256","internalType":"uint256"}],"outputs":[{"name":"","type":"address","internalType":"address"}],"stateMutability":"payable"},{"type":"function","name":"safeBatchTransferFrom","inputs":[{"name":"from","type":"address","internalType":"address"},{"name":"to","type":"address","internalType":"address"},{"name":"ids","type":"uint256[]","internalType":"uint256[]"},{"name":"values","type":"uint256[]","internalType":"uint256[]"},{"name":"data","type":"bytes","internalType":"bytes"}],"outputs":[],"stateMutability":"nonpayable"},{"type":"function","name":"safeTransferFrom","inputs":[{"name":"from","type":"address","internalType":"address"},{"name":"to","type":"address","internalType":"address"},{"name":"id","type":"uint256","internalType":"uint256"},{"name":"value","type":"uint256","internalType":"uint256"},{"name":"data","type":"bytes","internalType":"bytes"}],"outputs":[],"stateMutability":"nonpayable"},{"type":"function","name":"setApprovalForAll","inputs":[{"name":"operator","type":"address","internalType":"address"},{"name":"approved","type":"bool","internalType":"bool"}],"outputs":[],"stateMutability":"nonpayable"},{"type":"function","name":"setURI","inputs":[{"name":"newuri","type":"string","internalType":"string"}],"outputs":[],"stateMutability":"nonpayable"},{"type":"function","name":"setcurSupply","inputs":[{"name":"_s","type":"uint256","internalType":"uint256"}],"outputs":[],"stateMutability":"nonpayable"},{"type":"function","name":"setsupply","inputs":[{"name":"_s","type":"uint256","internalType":"uint256"}],"outputs":[],"stateMutability":"nonpayable"},{"type":"function","name":"supportsInterface","inputs":[{"name":"interfaceId","type":"bytes4","internalType":"bytes4"}],"outputs":[{"name":"","type":"bool","internalType":"bool"}],"stateMutability":"view"},{"type":"function","name":"systemAge","inputs":[],"outputs":[{"name":"","type":"uint256","internalType":"uint256"}],"stateMutability":"view"},{"type":"function","name":"totSupply","inputs":[],"outputs":[{"name":"","type":"uint256","internalType":"uint256"}],"stateMutability":"view"},{"type":"function","name":"totalNFTSent","inputs":[],"outputs":[{"name":"","type":"uint256","internalType":"uint256"}],"stateMutability":"view"},{"type":"function","name":"uri","inputs":[{"name":"_tokenid","type":"uint256","internalType":"uint256"}],"outputs":[{"name":"","type":"string","internalType":"string"}],"stateMutability":"view"},{"type":"event","name":"ApprovalForAll","inputs":[{"name":"account","type":"address","indexed":true,"internalType":"address"},{"name":"operator","type":"address","indexed":true,"internalType":"address"},{"name":"approved","type":"bool","indexed":false,"internalType":"bool"}],"anonymous":false},{"type":"event","name":"EthBurned","inputs":[{"name":"sender","type":"address","indexed":true,"internalType":"address"},{"name":"amount","type":"uint256","indexed":false,"internalType":"uint256"}],"anonymous":false},{"type":"event","name":"EthTransferred","inputs":[{"name":"to","type":"address","indexed":true,"internalType":"address"},{"name":"amount","type":"uint256","indexed":false,"internalType":"uint256"}],"anonymous":false},{"type":"event","name":"HexBaseUpdated","inputs":[{"name":"previousHexBase","type":"address","indexed":true,"internalType":"address"},{"name":"newHexBase","type":"address","indexed":true,"internalType":"address"}],"anonymous":false},{"type":"event","name":"OwnerUpdated","inputs":[{"name":"previousOwner","type":"address","indexed":true,"internalType":"address"},{"name":"newOwner","type":"address","indexed":true,"internalType":"address"}],"anonymous":false},{"type":"event","name":"TransferBatch","inputs":[{"name":"operator","type":"address","indexed":true,"internalType":"address"},{"name":"from","type":"address","indexed":true,"internalType":"address"},{"name":"to","type":"address","indexed":true,"internalType":"address"},{"name":"ids","type":"uint256[]","indexed":false,"internalType":"uint256[]"},{"name":"values","type":"uint256[]","indexed":false,"internalType":"uint256[]"}],"anonymous":false},{"type":"event","name":"TransferSingle","inputs":[{"name":"operator","type":"address","indexed":true,"internalType":"address"},{"name":"from","type":"address","indexed":true,"internalType":"address"},{"name":"to","type":"address","indexed":true,"internalType":"address"},{"name":"id","type":"uint256","indexed":false,"internalType":"uint256"},{"name":"value","type":"uint256","indexed":false,"internalType":"uint256"}],"anonymous":false},{"type":"event","name":"URI","inputs":[{"name":"value","type":"string","indexed":false,"internalType":"string"},{"name":"id","type":"uint256","indexed":true,"internalType":"uint256"}],"anonymous":false},{"type":"error","name":"ERC1155InsufficientBalance","inputs":[{"name":"sender","type":"address","internalType":"address"},{"name":"balance","type":"uint256","internalType":"uint256"},{"name":"needed","type":"uint256","internalType":"uint256"},{"name":"tokenId","type":"uint256","internalType":"uint256"}]},{"type":"error","name":"ERC1155InvalidApprover","inputs":[{"name":"approver","type":"address","internalType":"address"}]},{"type":"error","name":"ERC1155InvalidArrayLength","inputs":[{"name":"idsLength","type":"uint256","internalType":"uint256"},{"name":"valuesLength","type":"uint256","internalType":"uint256"}]},{"type":"error","name":"ERC1155InvalidOperator","inputs":[{"name":"operator","type":"address","internalType":"address"}]},{"type":"error","name":"ERC1155InvalidReceiver","inputs":[{"name":"receiver","type":"address","internalType":"address"}]},{"type":"error","name":"ERC1155InvalidSender","inputs":[{"name":"sender","type":"address","internalType":"address"}]},{"type":"error","name":"ERC1155MissingApprovalForAll","inputs":[{"name":"operator","type":"address","internalType":"address"},{"name":"owner","type":"address","internalType":"address"}]},{"type":"error","name":"FailedDeployment","inputs":[]},{"type":"error","name":"InsufficientBalance","inputs":[{"name":"balance","type":"uint256","internalType":"uint256"},{"name":"needed","type":"uint256","internalType":"uint256"}]},{"type":"error","name":"ReentrancyGuardReentrantCall","inputs":[]},{"type":"error","name":"TargetCallFailed","inputs":[{"name":"selector","type":"bytes4","internalType":"bytes4"}]}],"bytecode":{"object":"0x6080604052346200068a5762004e1a803803806200001d81620006b8565b92833981019060a0818303126200068a5780516001600160401b0391908281116200068a578362000050918301620006de565b926020808301518481116200068a57826200006d918501620006de565b93604084015160608501518281116200068a57850194601f908582880112156200068a57865195848711620006745760059787891b8780620000b1818401620006b8565b809b81520191830101928084116200068a57888301915b8483106200068f575050505050608001519460018060a01b0386168096036200068a57875184811162000674576002546001998a82811c9216801562000669575b8883101462000653578185849311620005fe575b508790858311600114620005945760009262000588575b5050600019600383901b1c191690891b176002555b8515620005435760018060a01b03199260049633858954161788556003948554161784558860065589518581116200052e576009548a81811c9116801562000523575b888210146200050e57848111620004c4575b5086848211600114620004565781908b9c60009c9b9c926200044a575b505060001982871b1c191690891b176009559697965b6010556000985b620001ee575b6040516146c99081620007518239f35b8051891015620004445760088054898101908181116200042f576801000000000000000092838210156200041a5782815582821015620004055760005287600020015581518a1015620003f057858a891b83010151906007805491821015620003c6578a8201808255821015620003db57600052866000200190805190868211620003c65782548b81811c91168015620003bb575b89821014620003a6578581116200035d575b508790858311600114620002f6576000919083620002ea575b505060001982871b1c1916908a1b1790555b6000198914620002d5579787019787620001d8565b601186634e487b7160e01b6000525260246000fd5b015190503880620002ae565b90601f1983169184600052896000209260005b81811062000347575090848e95949392106200032e575b505050811b019055620002c0565b015160001983891b60f8161c1916905538808062000320565b828401518555938e0193928b01928b0162000309565b8360005288600020868085018d1c8201928b86106200039c575b018c1c01908c905b8281106200038f57505062000295565b60008155018c906200037f565b9250819262000377565b60228a634e487b7160e01b6000525260246000fd5b90607f169062000283565b604189634e487b7160e01b6000525260246000fd5b603289634e487b7160e01b6000525260246000fd5b603287634e487b7160e01b6000525260246000fd5b60328a634e487b7160e01b6000525260246000fd5b60418a634e487b7160e01b6000525260246000fd5b601189634e487b7160e01b6000525260246000fd5b620001de565b015190503880620001bb565b601f1982169b6009600052886000209c60005b818110620004ae5750918c9d91848e9d9e95941062000495575b505050811b01600955979697620001d1565b015160001983891b60f8161c1916905538808062000483565b828401518f559d8d019d928a01928a0162000469565b600960005287600020858084018c1c8201928a851062000504575b018b1c01908b905b828110620004f75750506200019e565b60008155018b90620004e7565b92508192620004df565b602289634e487b7160e01b6000525260246000fd5b90607f16906200018c565b604188634e487b7160e01b6000525260246000fd5b60405162461bcd60e51b815260048101869052601360248201527f6f776e2e696e76616c69642e68657862617365000000000000000000000000006044820152606490fd5b01519050388062000134565b908b9350601f198316916002600052896000209260005b8b828210620005e75750508411620005cd575b505050811b0160025562000149565b015160001960f88460031b161c19169055388080620005be565b8385015186558f97909501949384019301620005ab565b909150600260005287600020858085018c1c8201928a861062000649575b918d9186959493018d1c01915b828110620006395750506200011d565b600081558594508d910162000629565b925081926200061c565b634e487b7160e01b600052602260045260246000fd5b91607f169162000109565b634e487b7160e01b600052604160045260246000fd5b600080fd5b82518981116200068a578a91620006ac84848094890101620006de565b815201920191620000c8565b6040519190601f01601f191682016001600160401b038111838210176200067457604052565b919080601f840112156200068a5782516001600160401b038111620006745760209062000714601f8201601f19168301620006b8565b928184528282870101116200068a5760005b8181106200073c57508260009394955001015290565b85810183015184820184015282016200072656fe60806040526004361015610018575b361561001657005b005b60003560e01c8062fdd58e146102e757806301ffc9a7146102e257806302fe5305146102dd57806306eb36db146102d857806306fdde03146102d35780630dccc9ad146102ce5780630e89341c146102c957806312065fe0146102c457806318dcfd71146102bf5780631f185d16146102ba5780632796f7c6146102b55780632defa859146102b05780632eb2c2d6146102ab5780633b9b7955146102a65780634622ab03146102a15780634e1273f41461029c5780635718e17b146102975780635fac2d9d146102925780636c51797b1461028d578063717ac4651461028857806378a89567146102835780637eb1a7381461027e57806381fbf0a5146102795780638da5cb5b14610274578063a1f7f5391461026f578063a22cb4651461026a578063abbbf8d714610265578063af48452614610260578063b505c66d1461025b578063b90306ad14610256578063c3c916d914610251578063c54e44b01461024c578063c85700fb14610247578063d878fe1014610242578063e01ad5fd1461023d578063e0a9bc2b14610238578063e834a83414610233578063e985e9c51461022e578063edd38c0114610229578063f242432a14610224578063f356eedb1461021f578063f9ffedb71461021a578063fac333ac14610215578063fcf56368146102105763fdc10bc90361000e57611c95565b611c6e565b611c1d565b611bff565b611be1565b611b0f565b611ac0565b611a56565b611a38565b611a1d565b611983565b61192b565b61183a565b611802565b6117e4565b6116cd565b611640565b61160f565b61156f565b61149b565b6113dd565b6113b6565b611398565b611256565b61122e565b6110de565b6110c0565b6110a2565b611051565b610f95565b610eeb565b610e3e565b610d01565b610c64565b610c0c565b610afc565b610ade565b610ac2565b61090b565b610864565b610783565b6105b7565b610508565b610376565b610312565b6001600160a01b038116036102fd57565b600080fd5b6101043590610310826102ec565b565b346102fd5760403660031901126102fd57602061035b600435610334816102ec565b602435600052600083526040600020906001600160a01b0316600052602052604060002090565b54604051908152f35b6001600160e01b03198116036102fd57565b346102fd5760203660031901126102fd5760206001600160e01b031960043561039e81610364565b167fd9b67a26000000000000000000000000000000000000000000000000000000008114908115610406575b81156103dc575b506040519015158152f35b7f01ffc9a700000000000000000000000000000000000000000000000000000000915014386103d1565b7f0e89341c00000000000000000000000000000000000000000000000000000000811491506103ca565b634e487b7160e01b600052604160045260246000fd5b6040810190811067ffffffffffffffff82111761046257604052565b610430565b6020810190811067ffffffffffffffff82111761046257604052565b90601f8019910116810190811067ffffffffffffffff82111761046257604052565b67ffffffffffffffff811161046257601f01601f191660200190565b81601f820112156102fd578035906104d8826104a5565b926104e66040519485610483565b828452602083830101116102fd57816000926020809301838601378301015290565b346102fd5760203660031901126102fd5760043567ffffffffffffffff81116102fd576105399036906004016104c1565b6001600160a01b039060046020836003541660405192838092630536340960e21b82525afa80156105b2576100169361057d92600092610582575b501633146124f8565b612862565b6105a491925060203d81116105ab575b61059c8183610483565b8101906124e3565b9038610574565b503d610592565b612215565b346102fd5760003660031901126102fd5760046105d26141c7565b60206001600160a01b03600354166040519384809263cfbffe5360e01b82525afa80156105b25761060b9260009161062b575b506135b2565b600f54810390811161062657604051908152602090f35b0390f35b611ce5565b610643915060203d81116105ab5761059c8183610483565b38610605565b90600182811c92168015610679575b602083101461066357565b634e487b7160e01b600052602260045260246000fd5b91607f1691610658565b906040519182600082549261069784610649565b90818452600194858116908160001461070457506001146106c1575b505061031092500383610483565b9093915060005260209081600020936000915b8183106106ec575050610310935082010138806106b3565b855488840185015294850194879450918301916106d4565b91505061031094506020925060ff191682840152151560051b82010138806106b3565b60005b83811061073a5750506000910152565b818101518382015260200161072a565b9060209161076381518092818552858086019101610727565b601f01601f1916010190565b90602061078092818152019061074a565b90565b346102fd576000806003193601126108615760405190806009546107a681610649565b8085529160019180831690811561083757506001146107dc575b610622856107d081870382610483565b6040519182918261076f565b9250600983527f6e1540171b6c0c960b71a7020d9f60077f6af931a8bbf590da0223dacf75c7af5b82841061081f5750505081016020016107d0826106226107c0565b80546020858701810191909152909301928101610804565b869550610622969350602092506107d094915060ff191682840152151560051b82010192936107c0565b80fd5b346102fd5760008060031936011261086157604051908060025461088781610649565b8085529160019180831690811561083757506001146108b057610622856107d081870382610483565b9250600283527f405787fa12a823e0f2b7631cc41b3ba8828b3321ca811111fa75cd3aa3bb5ace5b8284106108f35750505081016020016107d0826106226107c0565b805460208587018101919091529093019281016108d8565b346102fd5760203660031901126102fd576000600435807a184f03e93ff9f4daa797ed6e38ed64bf6a1f01000000000000000080821015610ab4575b506d04ee2d6d415b85acef810000000080831015610aa5575b50662386f26fc1000080831015610a96575b506305f5e10080831015610a87575b5061271080831015610a78575b506064821015610a68575b600a80921015610a5e575b6001908160216109b58287016125e9565b95860101905b610a1b575b604051610622906107d081610a0d6109e48a6109de60208501612543565b906125d2565b7f2e6a736f6e000000000000000000000000000000000000000000000000000000815260050190565b03601f198101835282610483565b600019019083907f30313233343536373839616263646566000000000000000000000000000000008282061a835304918215610a59579190826109bb565b6109c0565b91600101916109a4565b9190606460029104910191610999565b6004919392049101913861098e565b60089193920491019138610981565b60109193920491019138610972565b60209193920491019138610960565b604093508104915038610947565b346102fd5760003660031901126102fd57602047604051908152f35b346102fd5760003660031901126102fd576020601254604051908152f35b346102fd576020806003193601126102fd57600490813590610b1d826102ec565b80610b3f610b336003546001600160a01b031690565b6001600160a01b031690565b60405194858092634bf9c0ad60e11b82525afa9182156105b257610b93610bcd93610baf9261062296600092610be9575b50610ba1906040519384918783019190916001600160a01b036020820193169052565b03601f198101845283610483565b610ba9614143565b906143c0565b919080610bdf575b610bc09061417c565b8082518301019101613883565b60405190151581529081906020820190565b5081518114610bb7565b610ba1919250610c0590863d88116105ab5761059c8183610483565b9190610b70565b346102fd5760203660031901126102fd5760046001600160a01b036020816003541660405193848092630536340960e21b82525afa9081156105b257610c5c9260009261058257501633146124f8565b600435601155005b346102fd5760003660031901126102fd5760206001600160a01b03600a5416604051908152f35b67ffffffffffffffff81116104625760051b60200190565b81601f820112156102fd57803591610cba83610c8b565b92610cc86040519485610483565b808452602092838086019260051b8201019283116102fd578301905b828210610cf2575050505090565b81358152908301908301610ce4565b346102fd5760a03660031901126102fd5760048035610d1f816102ec565b602435610d2b816102ec565b67ffffffffffffffff906044358281116102fd57610d4c9036908601610ca3565b906064358381116102fd57610d649036908701610ca3565b926084359081116102fd57610d7c90369087016104c1565b936001600160a01b03808216903382141580610e09575b610ddc57831615610dc45715610dad576100169550611e6d565b602486600060405191626a0d4560e21b8352820152fd5b602487600060405191632bfa23e760e11b8352820152fd5b6040805163711bec9160e11b815233818b019081526001600160a01b038616602082015290918291010390fd5b5081600052600160205260ff610e36336040600020906001600160a01b0316600052602052604060002090565b541615610d93565b346102fd5760003660031901126102fd5760206001600160a01b0360035416604051908152f35b634e487b7160e01b600052603260045260246000fd5b600754811015610eb25760076000527fa66cc928b5edb82af9bd49922954155ab7b0942694bea4ce44661d9a8736c6880190600090565b610e65565b60085415610eb25760086000527ff3f7a9fe364faab93b216da50a3214154f22a0a2b415b23a84c8169e8b636ee390600090565b346102fd5760203660031901126102fd576004356007548110156102fd57610f3c6106229160076000527fa66cc928b5edb82af9bd49922954155ab7b0942694bea4ce44661d9a8736c68801610683565b60405191829160208352602083019061074a565b90815180825260208080930193019160005b828110610f70575050505090565b835185529381019392810192600101610f62565b906020610780928181520190610f50565b346102fd5760403660031901126102fd5760043567ffffffffffffffff8082116102fd57366023830112156102fd578160040135610fd281610c8b565b92610fe06040519485610483565b81845260209160248386019160051b830101913683116102fd57602401905b82821061103857856024358681116102fd576106229161102661102c923690600401610ca3565b90611d2b565b60405191829182610f84565b8380918335611046816102ec565b815201910190610fff565b346102fd5760203660031901126102fd57600435600754811015610eb257610f3c6106229160076000527fa66cc928b5edb82af9bd49922954155ab7b0942694bea4ce44661d9a8736c68801610683565b346102fd5760003660031901126102fd576020601154604051908152f35b346102fd5760003660031901126102fd576020600c54604051908152f35b346102fd5760603660031901126102fd576004356110fb816102ec565b602435611107816102ec565b60443567ffffffffffffffff81116102fd576111279036906004016104c1565b906001600160a01b039261113e8483161515612bd3565b61114b8482161515612bd3565b611153613f4c565b156111ea5761116133614090565b93841561117b575b506111766100169461372d565b613778565b935060046020611196610b336003546001600160a01b031690565b60405192838092630536340960e21b82525afa80156105b25761001695611176926000926111ca575b501633149450611169565b6111e391925060203d81116105ab5761059c8183610483565b90386111bf565b606460405162461bcd60e51b815260206004820152601260248201527f6f776e2e696e76616c69642e69735361666500000000000000000000000000006044820152fd5b346102fd5760003660031901126102fd576020600854604051908152f35b801515036102fd57565b346102fd5760c03660031901126102fd57600435611273816102ec565b60243561127f816102ec565b60443560643590608435926112938461124c565b60a43567ffffffffffffffff81116102fd576112b39036906004016104c1565b936112d56001600160a01b036112cc8185161515612bd3565b87161515612bd3565b1561138f5760049460206112f4610b336003546001600160a01b031690565b6040519788809263cfbffe5360e01b82525afa9586156105b25761134b61133c6113629861135d93600091611371575b5061132d613481565b9061133661384a565b90614395565b60208082518301019101613883565b60ff8019601454169115151617601455565b613898565b61001660ff1960145416601455565b611389915060203d81116105ab5761059c8183610483565b38611324565b61001694613898565b346102fd5760003660031901126102fd576020601054604051908152f35b346102fd5760003660031901126102fd5760206001600160a01b0360045416604051908152f35b346102fd5760003660031901126102fd57600460206001600160a01b03600354166040519283809263d1f956b160e01b82525afa9081156105b2576106229161146d9160009161147d575b5060405161143581610446565b601381527f67657464656c656761746f72436f756e742829000000000000000000000000006020820152611467612221565b916144cb565b6040519081529081906020820190565b611495915060203d81116105ab5761059c8183610483565b38611428565b346102fd5760403660031901126102fd576004356114b8816102ec565b6024356114c48161124c565b6001600160a01b03821691821561153e576114ff903360005260016020526040600020906001600160a01b0316600052602052604060002090565b9015159060ff1981541660ff83161790556040519081527f17307eab39ab6107e8899845ad3d59bd9653f200f220920489ca2b5937696c3160203392a3005b60246040517fced3e10000000000000000000000000000000000000000000000000000000000815260006004820152fd5b346102fd576020806003193601126102fd5767ffffffffffffffff6004358181116102fd57366023820112156102fd5780600401356115ad81610c8b565b926115bb6040519485610483565b818452848401906024809360051b850101933685116102fd57838101925b8584106115e9576100168761263b565b83358381116102fd57889161160483928836918701016104c1565b8152019301926115d9565b346102fd5760203660031901126102fd576020611636600435611631816102ec565b614090565b6040519015158152f35b6101203660031901126102fd5767ffffffffffffffff6004358181116102fd5761166e9036906004016104c1565b6024358281116102fd576116869036906004016104c1565b906044359283116102fd576116a26100169336906004016104c1565b608435926116af846102ec565b6116b7610302565b9360e4359360c4359360a4359360643592613053565b346102fd576020806003193601126102fd57600435906001600160a01b0380600354169060405191630536340960e21b83528383600481845afa9283156105b2576004938593611727926000926117cc57501633146124f8565b604051928380927f46f991ac0000000000000000000000000000000000000000000000000000000082525afa9182156105b2576000808561177f958295839584926117af575b50505af1611779612234565b5061434a565b60405190815233907fcdcc745fe377b103b45fa0cec23ae3ef93d6fc6a84a01f0d18c40b354dd1d5d890602090a2005b6117c59250803d106105ab5761059c8183610483565b388061176d565b6105a4919250853d87116105ab5761059c8183610483565b346102fd5760003660031901126102fd576020601354604051908152f35b346102fd5760203660031901126102fd576020611829600435611824816102ec565b614618565b6001600160a01b0360405191168152f35b60a03660031901126102fd5760048035611853816102ec565b602061186a610b336003546001600160a01b031690565b6040519384809263ab6e844f60e01b82525afa9081156105b2576118de6118f3926106229460009161190d575b506001600160a01b036118d76040516118c781610a0d88602083019190916001600160a01b036020820193169052565b33936118d1612b4f565b9061443e565b1614612b88565b60843590606435906044359060243590612c1e565b6040516001600160a01b0390911681529081906020820190565b611925915060203d81116105ab5761059c8183610483565b38611897565b346102fd5760203660031901126102fd5760046001600160a01b036020816003541660405193848092630536340960e21b82525afa9081156105b25761197b9260009261058257501633146124f8565b600435601055005b346102fd576020806003193601126102fd57600480356119a2816102ec565b6001600160a01b03928084600354166040519485809263d1f956b160e01b82525afa9081156105b25761062294610bcd946000936119fe575b5060405193168184015282526119f082610446565b6119f8614280565b9061448f565b611a16919350823d84116105ab5761059c8183610483565b91386119db565b346102fd5760003660031901126102fd576020611636613f4c565b346102fd5760003660031901126102fd576020600f54604051908152f35b346102fd5760403660031901126102fd57602060ff611ab4600435611a7a816102ec565b6001600160a01b0360243591611a8f836102ec565b16600052600184526040600020906001600160a01b0316600052602052604060002090565b54166040519015158152f35b346102fd5760203660031901126102fd576020611ae2600435611824816102ec565b6001600160a01b03811615159081611aff57506040519015158152f35b611b099150614090565b386103d1565b346102fd5760a03660031901126102fd57600435611b2c816102ec565b602435611b38816102ec565b60843567ffffffffffffffff81116102fd57611b589036906004016104c1565b906001600160a01b038316338114159081611bab575b50611b8457610016926064359160443591611def565b60405163711bec9160e11b81523360048201526001600160a01b0384166024820152604490fd5b9050600052600160205260ff611bd8336040600020906001600160a01b0316600052602052604060002090565b54161538611b6e565b346102fd5760003660031901126102fd576020600d54604051908152f35b346102fd5760003660031901126102fd576020600e54604051908152f35b346102fd5760203660031901126102fd576004356008548110156102fd5760209060086000527ff3f7a9fe364faab93b216da50a3214154f22a0a2b415b23a84c8169e8b636ee30154604051908152f35b346102fd5760003660031901126102fd5760206001600160a01b03600b5416604051908152f35b346102fd5760003660031901126102fd576020611cb06141c7565b604051908152f35b611ce19160005260006020526040600020906001600160a01b0316600052602052604060002090565b5490565b634e487b7160e01b600052601160045260246000fd5b60001981146106265760010190565b805115610eb25760200190565b8051821015610eb25760209160051b010190565b91909180518351808203611db4575050805190611d4782610c8b565b91611d556040519384610483565b808352611d64601f1991610c8b565b0190602091368385013760005b8151811015611dac5780611d97611da79260051b85808287010151918a01015190611cb8565b611da18287611d17565b52611cfb565b611d71565b509193505050565b6040517f5b05999100000000000000000000000000000000000000000000000000000000815260048101919091526024810191909152604490fd5b90919392936001600160a01b0380841615611e5557821615611e3e5761031094611e3660405192600184526020840152604083019160018352606084015260808301604052565b929091611e6d565b6024604051626a0d4560e21b815260006004820152fd5b6024604051632bfa23e760e11b815260006004820152fd5b91939290611e7e6001865114613a65565b6001600160a01b03808416801515908161217a575b50611eea575b611ea583878487613cac565b8116611eb3575b5050505050565b8451600103611ed957602080611ecf960151920151923361235e565b3880808080611eac565b611ee5949192336124ac565b611ecf565b600c54600f54809111611efe575b50611e99565b611f11611f0d60145460ff1690565b1590565b1561215e5750611f2c610b336003546001600160a01b031690565b6040519063ab6e844f60e01b82526020918281600481855afa80156105b257611f0d611f8f610b93611fc193611fc695600091612141575b50611f878c6040519384918b83019190916001600160a01b036020820193169052565b6118d1612b4f565b611f9c8782161515613ab0565b611fb0611fa88a611d0a565b511515613afb565b611fb8613481565b906119f8613b46565b613b7f565b600482611fd16141c7565b926040519283809263cfbffe5360e01b82525afa9081156105b25761209993600092612124575b505061201b61200783836135b2565b612012811515613bca565b600f5490612d3e565b9161205b61205361203b61202d613481565b612035613c15565b866144cb565b93612044613481565b9061204d613c4e565b906144cb565b6012546126d2565b811015612111575b506013548161207b61207489611d0a565b51836126d2565b116120f7575b505080151590816120e3575b816120cf575b50613bca565b6120b66120b16120a885611d0a565b51600f546126d2565b600f55565b6120c96120c4601354611cfb565b601355565b38611ef8565b90506120da85611d0a565b51111538612093565b90506120ee85611d0a565b5115159061208d565b61210091612d3e565b61210986611d0a565b523880612081565b60125561211e6000601355565b38612063565b61213a9250803d106105ab5761059c8183610483565b3880611ff8565b6121589150883d8a116105ab5761059c8183610483565b38611f64565b6120b16121759161216e86611d0a565b51906126d2565b6120c9565b9050612191610b33600b546001600160a01b031690565b1438611e93565b908160209103126102fd575161078081610364565b909260a0926001600160a01b0361078096951683526000602084015260408301526060820152816080820152019061074a565b919261078095949160a0946001600160a01b03809216855216602084015260408301526060820152816080820152019061074a565b6040513d6000823e3d90fd5b6040519061222e82610467565b60008252565b3d1561225f573d90612245826104a5565b916122536040519384610483565b82523d6000602084013e565b606090565b9293919093843b612276575050505050565b602091612299604051948593849363f23a6e6160e01b98898652600486016121ad565b038160006001600160a01b0388165af16000918161232e575b506122f157826122c0612234565b80519190826122ea57604051632bfa23e760e11b81526001600160a01b0383166004820152602490fd5b9050602001fd5b6001600160e01b0319160361230b57503880808080611eac565b604051632bfa23e760e11b81526001600160a01b03919091166004820152602490fd5b61235091925060203d8111612357575b6123488183610483565b810190612198565b90386122b2565b503d61233e565b939290949194853b612373575b505050505050565b612396602093604051958694859463f23a6e6160e01b998a8752600487016121e0565b038160006001600160a01b0388165af1600091816123d8575b506123bd57826122c0612234565b6001600160e01b0319160361230b575038808080808061236b565b6123f191925060203d8111612357576123488183610483565b90386123af565b9261242861078095936001600160a01b03612436941686526000602087015260a0604087015260a0860190610f50565b908482036060860152610f50565b91608081840391015261074a565b9390610780959361242891612436946001600160a01b03809216885216602087015260a0604087015260a0860190610f50565b9293919093843b612489575050505050565b602091612299604051948593849363bc197c8160e01b98898652600486016123f8565b939290949194853b6124c057505050505050565b612396602093604051958694859463bc197c8160e01b998a875260048701612444565b908160209103126102fd5751610780816102ec565b156124ff57565b606460405162461bcd60e51b815260206004820152600f60248201527f6f776e2e6e6f6e617574682e44414f00000000000000000000000000000000006044820152fd5b6002546000929161255382610649565b916001908181169081156125bf575060011461256e57505050565b909192935060026000527f405787fa12a823e0f2b7631cc41b3ba8828b3321ca811111fa75cd3aa3bb5ace906000915b8483106125ac575050500190565b818160209254858701520192019161259e565b60ff191683525050811515909102019150565b906125e560209282815194859201610727565b0190565b906125f3826104a5565b6126006040519182610483565b8281528092612611601f19916104a5565b0190602036910137565b8115612625570490565b634e487b7160e01b600052601260045260246000fd5b9060046001600160a01b036020816003541660405193848092630536340960e21b82525afa9081156105b25761267b9260009261058257501633146124f8565b60005b82518110156126bf576008549060018201809211610626576126a26126ba926126df565b6126b56126af8286611d17565b51612a36565b611cfb565b61267e565b509050565b906001820180921161062657565b9190820180921161062657565b60085468010000000000000000811015610462576001810180600855811015610eb25760086000527ff3f7a9fe364faab93b216da50a3214154f22a0a2b415b23a84c8169e8b636ee30155565b601f8111612738575050565b600090600282527f405787fa12a823e0f2b7631cc41b3ba8828b3321ca811111fa75cd3aa3bb5ace906020601f850160051c83019410612793575b601f0160051c01915b82811061278857505050565b81815560010161277c565b9092508290612773565b601f81116127a9575050565b600090600982527f6e1540171b6c0c960b71a7020d9f60077f6af931a8bbf590da0223dacf75c7af906020601f850160051c83019410612804575b601f0160051c01915b8281106127f957505050565b8181556001016127ed565b90925082906127e4565b90601f811161281c57505050565b600091825260208220906020601f850160051c83019410612858575b601f0160051c01915b82811061284d57505050565b818155600101612841565b9092508290612838565b90815167ffffffffffffffff81116104625761288881612883600254610649565b61272c565b602080601f83116001146128c457508192936000926128b9575b50508160011b916000199060031b1c191617600255565b0151905038806128a2565b90601f198316946128f760026000527f405787fa12a823e0f2b7631cc41b3ba8828b3321ca811111fa75cd3aa3bb5ace90565b926000905b87821061293457505083600195961061291b575b505050811b01600255565b015160001960f88460031b161c19169055388080612910565b806001859682949686015181550195019301906128fc565b90815167ffffffffffffffff8111610462576129728161296d600954610649565b61279d565b602080601f83116001146129ae57508192936000926129a3575b50508160011b916000199060031b1c191617600955565b01519050388061298c565b90601f198316946129e160096000527f6e1540171b6c0c960b71a7020d9f60077f6af931a8bbf590da0223dacf75c7af90565b926000905b878210612a1e575050836001959610612a05575b505050811b01600955565b015160001960f88460031b161c191690553880806129fa565b806001859682949686015181550195019301906129e6565b600754680100000000000000008110156104625760019081810180600755811015610eb25760076000527fa66cc928b5edb82af9bd49922954155ab7b0942694bea4ce44661d9a8736c688019180519067ffffffffffffffff821161046257612aa982612aa38654610649565b8661280e565b60209081601f8411600114612ae55750928293918392600094612ada575b50501b916000199060031b1c1916179055565b015192503880612ac7565b919083601f198116612afc88600052602060002090565b946000905b88838310612b355750505010612b1c575b505050811b019055565b015160001960f88460031b161c19169055388080612b12565b858701518855909601959485019487935090810190612b01565b60405190612b5c82610446565b601682527f67657455736572546f53746f72286164647265737329000000000000000000006020830152565b15612b8f57565b606460405162461bcd60e51b815260206004820152600f60248201527f6f776e2e756e617574682e73746f7200000000000000000000000000000000006044820152fd5b15612bda57565b606460405162461bcd60e51b815260206004820152601260248201527f6f776e2e64656661756c742e73656e64657200000000000000000000000000006044820152fd5b92939091612c366001600160a01b0385161515612bd3565b612c3e613018565b60105460115490828201908183116106265710612ceb57612ce094612cda93612c72612c6d85610a0d956126d2565b601155565b612c7b30612f98565b97612c8d612c8888612d2f565b610e7b565b5094612ca4610b336003546001600160a01b031690565b936040519889977fb505c66d0000000000000000000000000000000000000000000000000000000060208a015260248901612e85565b8261453b565b506107806001600655565b606460405162461bcd60e51b815260206004820152601760248201527f6f7263313135352e737570706c792e62726561636865640000000000000000006044820152fd5b60001981019190821161062657565b9190820391821161062657565b60025460009291612d5b82610649565b80825291600190818116908115612dd25750600114612d7957505050565b9192935060026000527f405787fa12a823e0f2b7631cc41b3ba8828b3321ca811111fa75cd3aa3bb5ace916000925b848410612dba57505060209250010190565b80546020858501810191909152909301928101612da8565b915050602093945060ff929192191683830152151560051b010190565b9060009291805491612e0083610649565b918282526001938481169081600014612e625750600114612e22575b50505050565b90919394506000526020928360002092846000945b838610612e4e575050505001019038808080612e1c565b805485870183015294019385908201612e37565b9294505050602093945060ff191683830152151560051b01019038808080612e1c565b9490979591969293610120808752600090600954612ea281610649565b80928a01526001908181169081600014612f705750600114612f15575b505086979899612edc8261010099612eea940360208c0152612d4b565b9089820360408b0152612def565b9860608801526001600160a01b03809516608088015260a087015260c086015260e085015216910152565b6009600090815292507f6e1540171b6c0c960b71a7020d9f60077f6af931a8bbf590da0223dacf75c7af5b828410612f595750505086016101400189612edc612ebf565b8054848b0161014001526020909301928101612f40565b60ff1916610140808c019190915292151560051b8a0190920192508b9150612edc9050612ebf565b6e5af43d82803e903d91602b57fd5bf390763d602d80600a3d3981f3363d3d373d3d3d363d7300000062ffffff8260881c161760005260781b17602052603760096000f0906001600160a01b03821615612fee57565b60046040517fb06ebf3d000000000000000000000000000000000000000000000000000000008152fd5b600260065414613029576002600655565b60046040517f3ee5aeb5000000000000000000000000000000000000000000000000000000008152fd5b61314696936130ef6130f4926130ea6130f9969561057d6131419a6131769f8d9f9d906130ae6130d492613085613018565b6130a56001600160a01b039161309e8386161515613192565b15156131dd565b84161515613228565b6130cf6130c9610b33610b336003546001600160a01b031690565b15613273565b613e70565b6130e56130e033614090565b6132be565b6142b9565b61294c565b6126df565b612a36565b61312a61310e6004546001600160a01b031690565b6001600160a01b03166001600160a01b0319600b541617600b55565b61313385600c55565b61313c83600e55565b600d55565b601255565b6004546001600160a01b03169061316861315e610eb7565b90549060031b1c90565b613170612221565b92613309565b600a80546001600160a01b031916331790556103106001600655565b1561319957565b606460405162461bcd60e51b815260206004820152601660248201527f6f7263313135352e686578626173652e6661696c6564000000000000000000006044820152fd5b156131e457565b606460405162461bcd60e51b815260206004820152601060248201527f6f7263313135352e7174792e7a65726f000000000000000000000000000000006044820152fd5b1561322f57565b606460405162461bcd60e51b815260206004820152601460248201527f6f7263313135352e6163636f756e742e7a65726f0000000000000000000000006044820152fd5b1561327a57565b606460405162461bcd60e51b815260206004820152601460248201527f6f7263313135352e616c72656164792e696e69740000000000000000000000006044820152fd5b156132c557565b606460405162461bcd60e51b815260206004820152601760248201527f6f7263313135352e756e7365637572652e6661696c65640000000000000000006044820152fd5b9291906001600160a01b038416918215611e555761334460405192600184526020840152604083019160018352606084015260808301604052565b9160019061335482845114613a65565b8251845190818103611db457505081806000905b613416575b508351036133da5760208381015185820151604080519283529282015260009133917fc3d58168c5ae7397731d063d5bbf3d657854427343f4c083240f7aacaa2d0f629190a45b8151036133d05790602080610310959301519101519133612264565b6103109333612477565b60006040517f4a39dc06d4c0dbc64b70af90fd698a233a518aa5d07e595d983b8c0526c8f7fb33918061340e898983613c87565b0390a46133b4565b845181101561347c57806134769160051b61346f6134678b61344f602080868d010151958d010151946000526000602052604060002090565b906001600160a01b0316600052602052604060002090565b9182546126d2565b9055611cfb565b81613368565b61336d565b60405161348d81610467565b60008152906000368137565b604051906134a682610446565b600a82527f73687574646f776e2829000000000000000000000000000000000000000000006020830152565b604051906134df82610446565b600a82527f706f6f6c4e4654312829000000000000000000000000000000000000000000006020830152565b908160a09103126102fd57805191602082015191604081015191608060608301519201516107808161124c565b90670de0b6b3a76400009182810292818404149015171561062657565b908160640291606483040361062657565b8181029291811591840414171561062657565b6040519061358682610446565b600a82527f706f6f6c4e4654322829000000000000000000000000000000000000000000006020830152565b6000906135ce6135c0613481565b6135c8613499565b8361448f565b61372457670de0b6b3a7640000926136076135f86135ea613481565b6135f26134d2565b85614395565b6020808251830101910161350b565b5091600e959395549561361a84886126d2565b8610156136de575b505050506135f861363e91613635613481565b90611336613579565b509190939261364d83876126d2565b841015613673575b50505050505004600c549081811160001461366e575090565b905090565b936136bd6136d39796946136b76136c7956136b16136c2966136ab6136a56136cd9c6136a0600c54613538565b613566565b91613555565b9061261b565b976126d2565b90612d3e565b61261b565b6126c4565b90613566565b906126d2565b388080808080613655565b61363e9497506136c261371b936136bd61371561370e6135f898966136ab6136a56136c7986136a0600c54613538565b958b6126d2565b89612d3e565b94913880613622565b505050600c5490565b1561373457565b606460405162461bcd60e51b815260206004820152601b60248201527f6f776e2e6e6f6e617574682e44414f6f725365637572656261736500000000006044820152fd5b916001600160a01b03808316908416146138455760085415610eb25760086000526137c47ff3f7a9fe364faab93b216da50a3214154f22a0a2b415b23a84c8169e8b636ee35484611cb8565b806137cf5750505050565b82613810613835946138309360ff199760018960145416176014556137f2610eb7565b9390546040519461380286610467565b6000865260031b1c91611def565b6130e5816001600160a01b03166001600160a01b0319600b541617600b55565b61399d565b6014541660145538808080612e1c565b505050565b6040519061385782610446565b601482527f616c6c6f77466f7263655472616e7366657228290000000000000000000000006020830152565b908160209103126102fd57516107808161124c565b9493929190816000526000602052826138c8876040600020906001600160a01b0316600052602052604060002090565b541061395957336001600160a01b038716141580613925575b6138fe5791610310949591613830936138f8612221565b93611def565b60405163711bec9160e11b81523360048201526001600160a01b0387166024820152604490fd5b50613954611f0d61394d3361344f8a6001600160a01b03166000526001602052604060002090565b5460ff1690565b6138e1565b606460405162461bcd60e51b815260206004820152601760248201527f6f7263313135352e7472616e736665722e6661696c65640000000000000000006044820152fd5b805115613a3e57600460206139bd610b336003546001600160a01b031690565b604051928380927f43af1d9d0000000000000000000000000000000000000000000000000000000082525afa80156105b257613a3e92610b9392600092613a41575b50613a39906040519384917f9e6c4bd10000000000000000000000000000000000000000000000000000000060208401526024830161076f565b61453b565b50565b613a39919250613a5e9060203d81116105ab5761059c8183610483565b91906139ff565b15613a6c57565b606460405162461bcd60e51b815260206004820152601960248201527f6f7263313135352e62617463682e6e6f742e616c6c6f776564000000000000006044820152fd5b15613ab757565b606460405162461bcd60e51b815260206004820152601460248201527f6f7263313135352e73746f722e696e76616c69640000000000000000000000006044820152fd5b15613b0257565b606460405162461bcd60e51b815260206004820152600f60248201527f6f7263313135352e6c65737351747900000000000000000000000000000000006044820152fd5b60405190613b5382610446565b600882527f69734c6f636b28290000000000000000000000000000000000000000000000006020830152565b15613b8657565b606460405162461bcd60e51b815260206004820152601060248201527f6f7263313135352e696e616374697665000000000000000000000000000000006044820152fd5b15613bd157565b606460405162461bcd60e51b815260206004820152600e60248201527f6f7263313135352e6c6f636b65640000000000000000000000000000000000006044820152fd5b60405190613c2282610446565b600c82527f6d61784e465453656e64282900000000000000000000000000000000000000006020830152565b60405190613c5b82610446565b601182527f4e465453656e645065724379636c6528290000000000000000000000000000006020830152565b9091613c9e61078093604084526040840190610f50565b916020818403910152610f50565b9392918051835190818103611db457505060005b8151811015613dca578060051b9060208083850101519286010151846001600160a01b0393848a16613d2a575b613d00948216613d05575b505050611cfb565b613cc0565b613d209161344f613467926000526000602052604060002090565b9055388481613cf8565b9192939050613d478961344f846000526000602052604060002090565b54838110613d7a5791869184613d0096959403613d728c61344f856000526000602052604060002090565b559450613ced565b6040517f03dee4c50000000000000000000000000000000000000000000000000000000081526001600160a01b038b16600482015260248101919091526044810184905260648101839052608490fd5b508051939493919291600103613e2d576020908101519181015160408051938452918301526001600160a01b03928316939092169133917fc3d58168c5ae7397731d063d5bbf3d657854427343f4c083240f7aacaa2d0f6291819081015b0390a4565b9091613e287f4a39dc06d4c0dbc64b70af90fd698a233a518aa5d07e595d983b8c0526c8f7fb916040519182916001600160a01b03809116971695339583613c87565b6001600160a01b03809116908115613ebd57600354826001600160a01b0319821617600355167fe939feee179e631422bcc8f6e6d7d908cb3f8af38f5372f17c77e15aea5c80ee600080a3565b606460405162461bcd60e51b815260206004820152601360248201527f6f776e2e696e76616c69642e68657862617365000000000000000000000000006044820152fd5b15613f0857565b606460405162461bcd60e51b815260206004820152601960248201527f6f776e2e7361666567756172642e63616c6c2e6661696c6564000000000000006044820152fd5b6001600160a01b03600354166040518091634bf9c0ad60e11b825281600460209384935afa9182156105b25761078092613fd491600091613fef575b50604051613f9581610446565b600881527f69735361666528290000000000000000000000000000000000000000000000008482015260405191613fcb83610467565b600083526143c0565b919080613fe5575b610bc090613f01565b5081518114613fdc565b6140069150833d85116105ab5761059c8183610483565b38613f88565b6040519061401982610446565b601582527f69735365637572654261736528616464726573732900000000000000000000006020830152565b1561404c57565b606460405162461bcd60e51b815260206004820152601a60248201527f6f776e2e736563757265626173652e63616c6c2e6661696c65640000000000006044820152fd5b6140a5610b336003546001600160a01b031690565b604051918291634bf9c0ad60e11b835282600460209485935afa9283156105b2576107809361410592610b9392600092614120575b506140fd906040519384918783019190916001600160a01b036020820193169052565b610ba961400c565b919080614116575b610bc090614045565b508151811461410d565b6140fd91925061413c90863d88116105ab5761059c8183610483565b91906140da565b6040519061415082610446565b601182527f69735369676e65722861646472657373290000000000000000000000000000006020830152565b1561418357565b606460405162461bcd60e51b815260206004820152601660248201527f6f776e2e7369676e65722e63616c6c2e6661696c6564000000000000000000006044820152fd5b600460206001600160a01b0360035416604051928380927f447aa3040000000000000000000000000000000000000000000000000000000082525afa80156105b25761078091600091614262575b5060405161422281610446565b600581527f616765282900000000000000000000000000000000000000000000000000000060208201526040519161425983610467565b600083526144cb565b61427a915060203d81116105ab5761059c8183610483565b38614215565b6040519061428d82610446565b601882527f697364656c656761746f724e6f646528616464726573732900000000000000006020830152565b6001600160a01b0380911690811561430657600454826001600160a01b0319821617600455167f8292fce18fa69edf4db7b94ea2e58241df0ae57f97e0a6c9b29067028bf92d76600080a3565b606460405162461bcd60e51b815260206004820152601160248201527f6f776e2e696e76616c69642e6f776e65720000000000000000000000000000006044820152fd5b1561435157565b606460405162461bcd60e51b815260206004820152600f60248201527f6f776e2e6275726e2e6661696c656400000000000000000000000000000000006044820152fd5b906143a092916143c0565b90600090156143ad575090565b60405191506143bb82610467565b815290565b803b15614425576000926001600160e01b0319836020869551910120169061441260246040518093602082019586526144028151809260208686019101610727565b8101036004810184520182610483565b5191620dbba0fa614421612234565b9091565b50505060009060405161443781610467565b6000815290565b929161444c916000946143c0565b9080614484575b61445a5750565b9091506020818051810103126102fd5760206001600160a01b03910151614480816102ec565b1690565b506020815114614453565b929161449d916000946143c0565b90806144c0575b6144ab5750565b61078091925060208082518301019101613883565b5060208151146144a4565b92916144d9916000946143c0565b90806144fe575b6144e75750565b9091506020818051810103126102fd576020015190565b5060208151146144e0565b90602082519201516001600160e01b031990818116936004811061452c57505050565b60040360031b82901b16169150565b6001600160a01b038116156145d457600080918351908260208601915af190614562612234565b911561456c575090565b8051600091906004116145ce576145839150614509565b8151156145935750805190602001fd5b6024906001600160e01b0319604051917f21c09d34000000000000000000000000000000000000000000000000000000008352166004820152fd5b50614583565b606460405162461bcd60e51b815260206004820152601260248201527f6f776e2e696e76616c69642e74617267657400000000000000000000000000006044820152fd5b803b6000614625826104a5565b926146336040519485610483565b82845260208401903c602d81511061464f57602a015160601c90565b606460405162461bcd60e51b815260206004820152601360248201527f4e6f742061206d696e696d616c2070726f7879000000000000000000000000006044820152fdfea26469706673582212201410c0d6ca7b10f51f34d83ba2c296f45b275c2353b89137e5925a711a7b3e1a64736f6c63430008140033","linkReferences":{}},"methodIdentifiers":{"Burn(uint256)":"b90306ad","_delegatorCount()":"a1f7f539","_getImplementation(address)":"c54e44b0","_isDelegatorNode(address)":"e01ad5fd","_isSafe()":"e0a9bc2b","_isSecureBase(address)":"af484526","_isSigner(address)":"1f185d16","_uri()":"0dccc9ad","addToken(string[])":"abbbf8d7","balanceOf(address,uint256)":"00fdd58e","balanceOfBatch(address[],uint256[])":"4e1273f4","claimed()":"e834a834","clonedOf()":"2defa859","curSupply()":"5fac2d9d","getBalance()":"12065fe0","getHexbase()":"3b9b7955","getNames(uint256)":"5718e17b","getTokenCount()":"78a89567","getUnlockedNFT()":"06eb36db","ids(uint256)":"fac333ac","isApprovedForAll(address,address)":"e985e9c5","isSecuredNFT(address)":"edd38c01","lastTransferDay()":"18dcfd71","mintedAge()":"f9ffedb7","mintedUser()":"fcf56368","mintedfee()":"f356eedb","mintedqty()":"6c51797b","name()":"06fdde03","names(uint256)":"4622ab03","onTokenImport(address,address,bytes)":"717ac465","onTokenTransfer(address,address,uint256,uint256,bool,bytes)":"7eb1a738","owner()":"8da5cb5b","postinit(string,string,string,uint256,address,uint256,uint256,uint256,address)":"b505c66d","preinit(address,uint256,uint256,uint256,uint256)":"c85700fb","safeBatchTransferFrom(address,address,uint256[],uint256[],bytes)":"2eb2c2d6","safeTransferFrom(address,address,uint256,uint256,bytes)":"f242432a","setApprovalForAll(address,bool)":"a22cb465","setURI(string)":"02fe5305","setcurSupply(uint256)":"2796f7c6","setsupply(uint256)":"d878fe10","supportsInterface(bytes4)":"01ffc9a7","systemAge()":"fdc10bc9","totSupply()":"81fbf0a5","totalNFTSent()":"c3c916d9","uri(uint256)":"0e89341c"},"id":58}