{"abi":[{"type":"constructor","inputs":[{"name":"_hex","type":"address","internalType":"address"}],"stateMutability":"nonpayable"},{"type":"fallback","stateMutability":"payable"},{"type":"receive","stateMutability":"payable"},{"type":"function","name":"Burn","inputs":[{"name":"amount","type":"uint256","internalType":"uint256"}],"outputs":[],"stateMutability":"nonpayable"},{"type":"function","name":"UserToForm","inputs":[{"name":"","type":"address","internalType":"address"}],"outputs":[{"name":"","type":"uint256","internalType":"uint256"}],"stateMutability":"view"},{"type":"function","name":"_delegatorCount","inputs":[],"outputs":[{"name":"","type":"uint256","internalType":"uint256"}],"stateMutability":"view"},{"type":"function","name":"_getImplementation","inputs":[{"name":"clone","type":"address","internalType":"address"}],"outputs":[{"name":"impl","type":"address","internalType":"address"}],"stateMutability":"view"},{"type":"function","name":"_isDelegatorNode","inputs":[{"name":"sender","type":"address","internalType":"address"}],"outputs":[{"name":"","type":"bool","internalType":"bool"}],"stateMutability":"view"},{"type":"function","name":"_isSafe","inputs":[],"outputs":[{"name":"","type":"bool","internalType":"bool"}],"stateMutability":"view"},{"type":"function","name":"_isSecureBase","inputs":[{"name":"sender","type":"address","internalType":"address"}],"outputs":[{"name":"","type":"bool","internalType":"bool"}],"stateMutability":"view"},{"type":"function","name":"_isSigner","inputs":[{"name":"sender","type":"address","internalType":"address"}],"outputs":[{"name":"","type":"bool","internalType":"bool"}],"stateMutability":"view"},{"type":"function","name":"_lastAge","inputs":[],"outputs":[{"name":"","type":"uint256","internalType":"uint256"}],"stateMutability":"view"},{"type":"function","name":"callback","inputs":[{"name":"formId","type":"uint256","internalType":"uint256"}],"outputs":[],"stateMutability":"nonpayable"},{"type":"function","name":"closeTransferTarget","inputs":[{"name":"to","type":"address","internalType":"address"}],"outputs":[],"stateMutability":"nonpayable"},{"type":"function","name":"forms","inputs":[{"name":"","type":"uint256","internalType":"uint256"}],"outputs":[{"name":"from","type":"address","internalType":"address"},{"name":"to","type":"address","internalType":"address"},{"name":"status","type":"bool","internalType":"bool"},{"name":"proposalId","type":"uint256","internalType":"uint256"},{"name":"resolved","type":"bool","internalType":"bool"},{"name":"closed","type":"bool","internalType":"bool"}],"stateMutability":"view"},{"type":"function","name":"getBalance","inputs":[],"outputs":[{"name":"","type":"uint256","internalType":"uint256"}],"stateMutability":"view"},{"type":"function","name":"getForm","inputs":[{"name":"formId","type":"uint256","internalType":"uint256"}],"outputs":[{"name":"from","type":"address","internalType":"address"},{"name":"to","type":"address","internalType":"address"},{"name":"resolved","type":"bool","internalType":"bool"},{"name":"closed","type":"bool","internalType":"bool"},{"name":"status","type":"bool","internalType":"bool"},{"name":"proposalId","type":"uint256","internalType":"uint256"}],"stateMutability":"view"},{"type":"function","name":"getFormsCount","inputs":[],"outputs":[{"name":"","type":"uint256","internalType":"uint256"}],"stateMutability":"view"},{"type":"function","name":"getHexbase","inputs":[],"outputs":[{"name":"","type":"address","internalType":"address"}],"stateMutability":"view"},{"type":"function","name":"getImportedNodeByIndex","inputs":[{"name":"index","type":"uint256","internalType":"uint256"}],"outputs":[{"name":"node","type":"address","internalType":"address"}],"stateMutability":"view"},{"type":"function","name":"getimportedNodeCount","inputs":[],"outputs":[{"name":"nodesCount","type":"uint256","internalType":"uint256"}],"stateMutability":"view"},{"type":"function","name":"importBusiness","inputs":[{"name":"batchSize","type":"uint256","internalType":"uint256"}],"outputs":[],"stateMutability":"nonpayable"},{"type":"function","name":"importedNode","inputs":[{"name":"","type":"uint256","internalType":"uint256"}],"outputs":[{"name":"","type":"address","internalType":"address"}],"stateMutability":"view"},{"type":"function","name":"importuser","inputs":[{"name":"batchSize","type":"uint256","internalType":"uint256"}],"outputs":[],"stateMutability":"nonpayable"},{"type":"function","name":"owner","inputs":[],"outputs":[{"name":"","type":"address","internalType":"address"}],"stateMutability":"view"},{"type":"function","name":"resolveTransferTarget","inputs":[{"name":"to","type":"address","internalType":"address"}],"outputs":[{"name":"from","type":"address","internalType":"address"}],"stateMutability":"view"},{"type":"function","name":"submitTransferForm","inputs":[{"name":"_from","type":"address","internalType":"address"}],"outputs":[],"stateMutability":"nonpayable"},{"type":"function","name":"systemAge","inputs":[],"outputs":[{"name":"","type":"uint256","internalType":"uint256"}],"stateMutability":"view"},{"type":"event","name":"EthBurned","inputs":[{"name":"sender","type":"address","indexed":true,"internalType":"address"},{"name":"amount","type":"uint256","indexed":false,"internalType":"uint256"}],"anonymous":false},{"type":"event","name":"EthTransferred","inputs":[{"name":"to","type":"address","indexed":true,"internalType":"address"},{"name":"amount","type":"uint256","indexed":false,"internalType":"uint256"}],"anonymous":false},{"type":"event","name":"HexBaseUpdated","inputs":[{"name":"previousHexBase","type":"address","indexed":true,"internalType":"address"},{"name":"newHexBase","type":"address","indexed":true,"internalType":"address"}],"anonymous":false},{"type":"event","name":"OwnerUpdated","inputs":[{"name":"previousOwner","type":"address","indexed":true,"internalType":"address"},{"name":"newOwner","type":"address","indexed":true,"internalType":"address"}],"anonymous":false},{"type":"error","name":"ReentrancyGuardReentrantCall","inputs":[]},{"type":"error","name":"TargetCallFailed","inputs":[{"name":"selector","type":"bytes4","internalType":"bytes4"}]}],"bytecode":{"object":"0x6080346100ca57601f61225f38819003918201601f19168301916001600160401b038311848410176100cf578084926020946040528339810103126100ca57516001600160a01b038116908190036100ca5780156100855760018060a01b0319338160015416176001556000541617600055600160035560405161217990816100e68239f35b60405162461bcd60e51b815260206004820152601360248201527f6f776e2e696e76616c69642e68657862617365000000000000000000000000006044820152606490fd5b600080fd5b634e487b7160e01b600052604160045260246000fdfe60806040526004361015610018575b361561001657005b005b60003560e01c806312065fe0146101a857806318c864e3146101a35780631f185d161461019e57806324480afe146101995780633294adf0146101945780633676bd1f1461018f5780633b9b79551461018a578063479fa2c31461018557806349fbed12146101805780634ef260a91461017b5780638da5cb5b14610176578063a1f7f53914610171578063ab7e46ae1461016c578063ac23334514610167578063af48452614610162578063b8f1759a1461015d578063b90306ad14610158578063c1e6cec214610153578063c54e44b01461014e578063cab3cc8d14610149578063e01ad5fd14610144578063e0a9bc2b1461013f578063e846034a1461013a578063fdc10bc9146101355763ff585caf0361000e57610e0e565b610deb565b610dcd565b610d2b565b610c8c565b610c6e565b610bd5565b610b98565b610a94565b610a3f565b610a0e565b6109d5565b610980565b6108c9565b6108a0565b6107db565b6106b7565b61060e565b6105e5565b6105c0565b6103ff565b6103e1565b6102b8565b610230565b346101c45760003660031901126101c457602047604051908152f35b600080fd5b60209060031901126101c45760043590565b634e487b7160e01b600052603260045260246000fd5b60055481101561022b57600560005260021b7f036b6384b5eca791c62761152d0c79bb0604c104a5fb6f4eb0703f3154bb3db00190600090565b6101db565b346101c45761023e366101c9565b6005548110156101c45761025360c0916101f1565b5060ff60018060a01b03808354169282600182015460036002840154930154936040519687528116602087015260a01c161515604085015260608401528181161515608084015260081c16151560a0820152f35b6001600160a01b038116036101c457565b346101c4576020806003193601126101c4576004908135906102d9826102a7565b60005481906102f8906001600160a01b03165b6001600160a01b031690565b604051634bf9c0ad60e11b815294859182905afa9182156103dc5761034f6103899361036b9261039b966000926103a9575b506040516001600160a01b03909116858201908152909261035d918491602090910190565b03601f198101845283610f5d565b610365611d4e565b90611f1d565b91908061039f575b61037c90611d7b565b8082518301019101611c11565b60405190151581529081906020820190565b0390f35b5081518114610373565b61035d9192506103ce90863d88116103d5575b6103c68183610f5d565b810190610f7f565b919061032a565b503d6103bc565b610f97565b346101c45760003660031901126101c4576020600754604051908152f35b346101c4576020806003193601126101c45760043561041d816102a7565b6001600160a01b0381161561058657336000908152600460205260409020610446905415610e80565b610471610451610ed7565b5080546001600160a01b0319166001600160a01b03909316929092178255565b6001810180546001600160a01b03191633178155600554604051600162a7a35160e01b0319858201526024808201929092529081529092600490601f196104b9604485610f5d565b60005482906104d0906001600160a01b03166102ec565b604051630536340960e21b815294859182905afa9283156103dc57600294610543946105369361052593600092610565575b5060405163d3a3084960e01b878201529391926105319285913060248401610fc6565b03908101845283610f5d565b612088565b8051810182019101611035565b91015560055490546001600160a01b0316600090815260046020526040902055005b610531925061058090873d89116103d5576103c68183610f5d565b91610502565b60405162461bcd60e51b815260048101839052601260248201527137bbb7173232b330bab63a1739b2b73232b960711b6044820152606490fd5b346101c4576105de6105d1366101c9565b6105d9611a27565b6115f4565b6001600355005b346101c45760003660031901126101c4576000546040516001600160a01b039091168152602090f35b346101c45761061c366101c9565b801515806106ab575b61062e90611082565b60001981019081116106a657610643906101f1565b50805460018201546003830154600290930154604080516001600160a01b039485168152938316602085015260ff80861615159185019190915260089490941c84161515606084015260a091821c9093161515608083015281019190915260c090f35b6110ce565b50600554811115610625565b346101c4576106c5366101c9565b6106cd611a27565b6106da606482111561136d565b6106eb6106e630611ca2565b6113b9565b61070a60079161070583546106fe611dc0565b1015611ac9565b611b20565b9060005b82518110156107435761073e9061073961073484548061072e8589611b52565b52611497565b600755565b611497565b61070e565b6000548390600490602090610760906001600160a01b03166102ec565b60405163ab6e844f60e01b815292839182905afa80156103dc576107ac9261034f926000926107b7575b50604051637aefe0bb60e01b6020820152926105319184919060248301611b66565b506100166001600355565b6105319192506107d49060203d81116103d5576103c68183610f5d565b919061078a565b346101c45760203660031901126101c4576004356107f8816102a7565b6001600160a01b031660008181526004602052604081205490919060001981019081116106a65761082a6003916101f1565b500161010061ff00198254161790558082526004602052816040812055600654600160401b81101561089b57600181018060065581101561022b577ff652222313e28459528d920b65115c16c04f3efc82aaedc97be59f3f377c0d3f0180546001600160a01b031916909117905580f35b610ec1565b346101c45760003660031901126101c4576001546040516001600160a01b039091168152602090f35b346101c45760003660031901126101c45760005460405163d1f956b160e01b815290602090829060049082906001600160a01b03165afa9081156103dc5761039b9161095291600091610962575b5060405161092481610f25565b601381527267657464656c656761746f72436f756e74282960681b602082015261094c61110f565b9161201b565b6040519081529081906020820190565b61097a915060203d81116103d5576103c68183610f5d565b38610917565b346101c45761098e366101c9565b6006548110156101c45760066000527ff652222313e28459528d920b65115c16c04f3efc82aaedc97be59f3f377c0d3f01546040516001600160a01b039091168152602090f35b346101c45760203660031901126101c45760206109fc6004356109f7816102a7565b6112a1565b6040516001600160a01b039091168152f35b346101c45760203660031901126101c4576020610a35600435610a30816102a7565b611ca2565b6040519015158152f35b346101c457610a4d366101c9565b60065481101561022b5760066000527ff652222313e28459528d920b65115c16c04f3efc82aaedc97be59f3f377c0d3f01546040516001600160a01b039091168152602090f35b346101c457610aa2366101c9565b60008054604051630536340960e21b81529192916020916001600160a01b039081168383600481845afa9283156103dc576004938593610aec928992610b79575b50163314611044565b6040516311be646b60e21b815292839182905afa9182156103dc57848085610b2b95829583958492610b5c575b50505af1610b25611e84565b50611eb4565b60405190815233907fcdcc745fe377b103b45fa0cec23ae3ef93d6fc6a84a01f0d18c40b354dd1d5d890602090a280f35b610b729250803d106103d5576103c68183610f5d565b3880610b19565b610b91919250853d87116103d5576103c68183610f5d565b9038610ae3565b346101c45760203660031901126101c457600435610bb5816102a7565b60018060a01b031660005260046020526020604060002054604051908152f35b346101c45760203660031901126101c457600435610bf2816102a7565b803b6000610bff826110f3565b92610c0d6040519485610f5d565b82845260208401903c602d815110610c3357602a015160405160609190911c8152602090f35b60405162461bcd60e51b81526020600482015260136024820152724e6f742061206d696e696d616c2070726f787960681b6044820152606490fd5b346101c45760003660031901126101c4576020600554604051908152f35b346101c4576020806003193601126101c45760048035610cab816102a7565b60005460405163d1f956b160e01b81526001600160a01b03949093909182918591829088165afa9081156103dc5761039b9461038994600093610d0c575b506040519316818401528252610cfe82610f25565b610d06611e4b565b90611fdf565b610d24919350823d84116103d5576103c68183610f5d565b9138610ce9565b346101c45760003660031901126101c457600054604051634bf9c0ad60e11b8152906020908190839060049082906001600160a01b03165afa9081156103dc57610d956103899261039b94600091610db0575b50610d87611ba1565b610d8f61110f565b91611f1d565b919080610da6575b61037c90611bc5565b5081518114610d9d565b610dc79150833d85116103d5576103c68183610f5d565b38610d7e565b346101c45760003660031901126101c4576020600654604051908152f35b346101c45760003660031901126101c4576020610e06611dc0565b604051908152f35b346101c457610e1c366101c9565b600054604051630536340960e21b81526001600160a01b0392916020908290600490829087165afa80156103dc5761001693610e6292600092610e675750163314611044565b611196565b610b9191925060203d81116103d5576103c68183610f5d565b15610e8757565b60405162461bcd60e51b815260206004820152601260248201527170726f706f7365722e746f2e65786973747360701b6044820152606490fd5b634e487b7160e01b600052604160045260246000fd5b600554600160401b81101561089b57600181018060055581101561022b57600560005260021b7f036b6384b5eca791c62761152d0c79bb0604c104a5fb6f4eb0703f3154bb3db00190600090565b6040810190811067ffffffffffffffff82111761089b57604052565b6020810190811067ffffffffffffffff82111761089b57604052565b90601f8019910116810190811067ffffffffffffffff82111761089b57604052565b908160209103126101c45751610f94816102a7565b90565b6040513d6000823e3d90fd5b60005b838110610fb65750506000910152565b8181015183820152602001610fa6565b9291608090600a9260a08652600d60a08701526c2ab9b2b9102a3930b739b332b960991b60c087015260018060a01b031660208601526000604086015260e0606086015280518060e087015261102681610100936020858a019101610fa3565b601f8019910116850101930152565b908160209103126101c4575190565b1561104b57565b60405162461bcd60e51b815260206004820152600f60248201526e6f776e2e6e6f6e617574682e44414f60881b6044820152606490fd5b1561108957565b60405162461bcd60e51b815260206004820152601760248201527f70726f706f7365722e696e76616c69642e666f726d69640000000000000000006044820152606490fd5b634e487b7160e01b600052601160045260246000fd5b6000198101919082116106a657565b67ffffffffffffffff811161089b57601f01601f191660200190565b6040519061111c82610f41565b60008252565b6040519061112f82610f25565b6012825271676574526573756c742875696e743235362960701b6020830152565b519081151582036101c457565b91908260c09103126101c457815191602081015191604082015191606081015191610f9460a061118f60808501611150565b9301611150565b801561129e576111b66111bb916111b1600554821115611082565b6110e4565b6101f1565b506000546111d1906001600160a01b03166102ec565b604051918291630536340960e21b835282600460209485935afa9081156103dc5761124561126d9361123861034f60039561127f98600091611281575b5061122a60028701546040519384918783019190602083019252565b611232611122565b90611ef2565b805181018201910161115d565b60018701805460ff60a01b191692151560a01b60ff60a01b1692909217909155969350505050565b019060ff801983541691151516179055565b565b6112989150843d86116103d5576103c68183610f5d565b3861120e565b50565b6001600160a01b0381166000908152600460205260409020548015159081611360575b501561135a576001600160a01b031660009081526004602052604090206112ef906111b690546110e4565b50600181015460a01c60ff169081611344575b81611323575b6000911561131f57546001600160a01b0316905090565b5090565b905061133e61133a600383015460ff9060081c1690565b1590565b90611308565b9050611354600382015460ff1690565b90611302565b50600090565b90506005541015386112c4565b1561137457565b60405162461bcd60e51b815260206004820152601c60248201527f7574696c6974792e62617463682e6c696d69742e6578636565646564000000006044820152606490fd5b156113c057565b60405162461bcd60e51b815260206004820152601760248201527f7574696c6974792e756e7365637572652e6661696c65640000000000000000006044820152606490fd5b60405161141181610f41565b60008152906000368137565b6040519061142a82610f25565b600f82526e6765744e6f646573436f756e74282960881b6020830152565b1561144f57565b60405162461bcd60e51b81526020600482015260136024820152727574696c6974792e696d706f72742e646f6e6560681b6044820152606490fd5b919082018092116106a657565b60001981146106a65760010190565b604051906114b382610f25565b601782527f6765744e6f64654279496e6465782875696e74323536290000000000000000006020830152565b156114e657565b60405162461bcd60e51b815260206004820152601660248201527570726f78792e696e76616c69642e696e7374616e636560501b6044820152606490fd5b6040519061153182610f25565b6013825272496e7374546f5573657228616464726573732960681b6020830152565b1561155a57565b60405162461bcd60e51b815260206004820152601260248201527170726f78792e696e76616c69642e6e6f646560701b6044820152606490fd5b604051906115a182610f25565b601082526f6765744e6f646528616464726573732960801b6020830152565b908160a09103126101c45780519160208201516115dc816102a7565b91604081015191610f94608061118f60608501611150565b611601606482111561136d565b61160d6106e630611ca2565b60008054909190611626906001600160a01b03166102ec565b6040805163111ea8c160e21b808252600495939092916020919082818981855afa80156103dc57611670918791611a10575b50611661611405565b9061166a61141d565b9061201b565b958615611a0657835183818a8163ab6e844f60e01b968782525afa9081156103dc576116bb916116a99189916119e95750611661611405565b916116b5838a11611448565b8261148a565b968088116119e1575b505b8681106116d7575050505050505050565b85546116eb906001600160a01b03166102ec565b90845186815284818b81865afa9283156103dc578a9189946119c2575b50611742875180611720868a83019190602083019252565b0395611734601f1997888101845283610f5d565b61173c6114a6565b90611f9b565b6001600160a01b039061175881831615156114df565b87895180958c825281865afa9384156103dc57818a8f968b8f946117af959261199d575b5091516001600160a01b03909316918301918252906117a79083906020015b038a8101845283610f5d565b61173c611524565b926117bd8385161515611553565b888a5180968d825281845afa80156103dc576118318f9661180f8f6001948f91978f9894611823959261197c575b5091516001600160a01b039092168883019081529192909161181b91849160200190565b038d8101845283610f5d565b611232611594565b8480825183010191016115c0565b5050509490941693611844811515611553565b148015611973575b6118f6575b505061185d8280611a4a565b89548790611873906001600160a01b03166102ec565b8951948580928a82525afa80156103dc576118d0956118ca948c926118d5575b5089516350db85d160e01b8a8201526001600160a01b03938416602482015293909216604484015290610531908360648101610525565b50611497565b6116c6565b61053192506118f0908a3d8c116103d5576103c68183610f5d565b91611893565b8951948580928d82525afa9283156103dc578c936119499261193d928d92611950575b508a516001600160a01b039091168a820190815290926117a7918491602090910190565b03888101845283610f5d565b8638611851565b6117a791925061196c908b3d8d116103d5576103c68183610f5d565b9190611919565b5082151561184c565b61181b9250611997908a3d8c116103d5576103c68183610f5d565b916117eb565b6117a792506119bb61179b91833d85116103d5576103c68183610f5d565b925061177c565b6119da919450863d88116103d5576103c68183610f5d565b9238611708565b9650386116c4565b611a009150863d88116103d5576103c68183610f5d565b38611658565b5050505050505050565b611a009150843d86116103d5576103c68183610f5d565b600260035414611a38576002600355565b604051633ee5aeb560e01b8152600490fd5b60055490600160401b82101561089b57611a6f610451836001600395016005556101f1565b6001810180546001600160a01b0319166001600160a01b038516178155805460ff60a01b1916600160a01b17905501805461ffff191660011790556005546001600160a01b03909116600090815260046020526040902055565b15611ad057565b60405162461bcd60e51b815260206004820152601060248201526f7574696c6974792e6167652e646f6e6560801b6044820152606490fd5b67ffffffffffffffff811161089b5760051b60200190565b90611b2a82611b08565b611b376040519182610f5d565b8281528092611b48601f1991611b08565b0190602036910137565b805182101561022b5760209160051b010190565b6020908160408183019282815285518094520193019160005b828110611b8d575050505090565b835185529381019392810192600101611b7f565b60405190611bae82610f25565b6008825267697353616665282960c01b6020830152565b15611bcc57565b60405162461bcd60e51b815260206004820152601960248201527f6f776e2e7361666567756172642e63616c6c2e6661696c6564000000000000006044820152606490fd5b908160209103126101c457610f9490611150565b60405190611c3282610f25565b601582527469735365637572654261736528616464726573732960581b6020830152565b15611c5d57565b60405162461bcd60e51b815260206004820152601a60248201527f6f776e2e736563757265626173652e63616c6c2e6661696c65640000000000006044820152606490fd5b6000546001600160a01b0316604051918291634bf9c0ad60e11b835282600460209485935afa9283156103dc57610f9493611d109261034f92600092611d2b575b506040516001600160a01b039091168582019081529092611d08918491602090910190565b610365611c25565b919080611d21575b61037c90611c56565b5081518114611d18565b611d08919250611d4790863d88116103d5576103c68183610f5d565b9190611ce3565b60405190611d5b82610f25565b601182527069735369676e657228616464726573732960781b6020830152565b15611d8257565b60405162461bcd60e51b81526020600482015260166024820152751bdddb8b9cda59db995c8b98d85b1b0b99985a5b195960521b6044820152606490fd5b60005460405163111ea8c160e21b815290602090829060049082906001600160a01b03165afa80156103dc57610f9491600091611e2d575b50604051611e0581610f25565b6005815264616765282960d81b602082015260405191611e2483610f41565b6000835261201b565b611e45915060203d81116103d5576103c68183610f5d565b38611df8565b60405190611e5882610f25565b601882527f697364656c656761746f724e6f646528616464726573732900000000000000006020830152565b3d15611eaf573d90611e95826110f3565b91611ea36040519384610f5d565b82523d6000602084013e565b606090565b15611ebb57565b60405162461bcd60e51b815260206004820152600f60248201526e1bdddb8b989d5c9b8b99985a5b1959608a1b6044820152606490fd5b90611efd9291611f1d565b9060009015611f0a575090565b6040519150611f1882610f41565b815290565b803b15611f8257600092839263ffffffff60e01b90602081519101201690611f6f6024604051809360208201958652611f5f8151809260208686019101610fa3565b8101036004810184520182610f5d565b5191620dbba0fa611f7e611e84565b9091565b505050600090604051611f9481610f41565b6000815290565b9291611fa991600094611f1d565b9080611fd4575b611fb75750565b9091506020818051810103126101c457602001516102ec816102a7565b506020815114611fb0565b9291611fed91600094611f1d565b9080612010575b611ffb5750565b610f9491925060208082518301019101611c11565b506020815114611ff4565b929161202991600094611f1d565b908061204c575b6120375750565b610f9491925060208082518301019101611035565b506020815114612030565b906020825192015163ffffffff60e01b90818116936004811061207957505050565b60040360031b82901b16169150565b6001600160a01b0381161561210957600080918351908260208601915af1906120af611e84565b91156120b9575090565b805160009190600411612103576120d09150612057565b8151156120e05750805190602001fd5b604051630870274d60e21b81526001600160e01b03199091166004820152602490fd5b506120d0565b60405162461bcd60e51b81526020600482015260126024820152711bdddb8b9a5b9d985b1a590b9d185c99d95d60721b6044820152606490fdfea26469706673582212207699734b01c0e11f2ffc0136017a1c09e75c317d5cf67746d766e5de91485cca64736f6c63430008140033","linkReferences":{}},"methodIdentifiers":{"Burn(uint256)":"b90306ad","UserToForm(address)":"c1e6cec2","_delegatorCount()":"a1f7f539","_getImplementation(address)":"c54e44b0","_isDelegatorNode(address)":"e01ad5fd","_isSafe()":"e0a9bc2b","_isSecureBase(address)":"af484526","_isSigner(address)":"1f185d16","_lastAge()":"24480afe","callback(uint256)":"ff585caf","closeTransferTarget(address)":"4ef260a9","forms(uint256)":"18c864e3","getBalance()":"12065fe0","getForm(uint256)":"479fa2c3","getFormsCount()":"cab3cc8d","getHexbase()":"3b9b7955","getImportedNodeByIndex(uint256)":"b8f1759a","getimportedNodeCount()":"e846034a","importBusiness(uint256)":"49fbed12","importedNode(uint256)":"ab7e46ae","importuser(uint256)":"3676bd1f","owner()":"8da5cb5b","resolveTransferTarget(address)":"ac233345","submitTransferForm(address)":"3294adf0","systemAge()":"fdc10bc9"},"id":51}