{"abi":[{"type":"constructor","inputs":[{"name":"_hex","type":"address","internalType":"address"}],"stateMutability":"nonpayable"},{"type":"fallback","stateMutability":"payable"},{"type":"receive","stateMutability":"payable"},{"type":"function","name":"Burn","inputs":[{"name":"amount","type":"uint256","internalType":"uint256"}],"outputs":[],"stateMutability":"nonpayable"},{"type":"function","name":"UserToForm","inputs":[{"name":"","type":"address","internalType":"address"}],"outputs":[{"name":"","type":"uint256","internalType":"uint256"}],"stateMutability":"view"},{"type":"function","name":"_delegatorCount","inputs":[],"outputs":[{"name":"","type":"uint256","internalType":"uint256"}],"stateMutability":"view"},{"type":"function","name":"_getImplementation","inputs":[{"name":"clone","type":"address","internalType":"address"}],"outputs":[{"name":"impl","type":"address","internalType":"address"}],"stateMutability":"view"},{"type":"function","name":"_isDelegatorNode","inputs":[{"name":"sender","type":"address","internalType":"address"}],"outputs":[{"name":"","type":"bool","internalType":"bool"}],"stateMutability":"view"},{"type":"function","name":"_isSafe","inputs":[],"outputs":[{"name":"","type":"bool","internalType":"bool"}],"stateMutability":"view"},{"type":"function","name":"_isSecureBase","inputs":[{"name":"sender","type":"address","internalType":"address"}],"outputs":[{"name":"","type":"bool","internalType":"bool"}],"stateMutability":"view"},{"type":"function","name":"_isSigner","inputs":[{"name":"sender","type":"address","internalType":"address"}],"outputs":[{"name":"","type":"bool","internalType":"bool"}],"stateMutability":"view"},{"type":"function","name":"_lastAge","inputs":[],"outputs":[{"name":"","type":"uint256","internalType":"uint256"}],"stateMutability":"view"},{"type":"function","name":"callback","inputs":[{"name":"formId","type":"uint256","internalType":"uint256"}],"outputs":[],"stateMutability":"nonpayable"},{"type":"function","name":"closeTransferTarget","inputs":[{"name":"to","type":"address","internalType":"address"}],"outputs":[],"stateMutability":"nonpayable"},{"type":"function","name":"forms","inputs":[{"name":"","type":"uint256","internalType":"uint256"}],"outputs":[{"name":"from","type":"address","internalType":"address"},{"name":"to","type":"address","internalType":"address"},{"name":"status","type":"bool","internalType":"bool"},{"name":"proposalId","type":"uint256","internalType":"uint256"},{"name":"resolved","type":"bool","internalType":"bool"},{"name":"closed","type":"bool","internalType":"bool"}],"stateMutability":"view"},{"type":"function","name":"getBalance","inputs":[],"outputs":[{"name":"","type":"uint256","internalType":"uint256"}],"stateMutability":"view"},{"type":"function","name":"getForm","inputs":[{"name":"formId","type":"uint256","internalType":"uint256"}],"outputs":[{"name":"from","type":"address","internalType":"address"},{"name":"to","type":"address","internalType":"address"},{"name":"resolved","type":"bool","internalType":"bool"},{"name":"closed","type":"bool","internalType":"bool"},{"name":"status","type":"bool","internalType":"bool"},{"name":"proposalId","type":"uint256","internalType":"uint256"}],"stateMutability":"view"},{"type":"function","name":"getFormsCount","inputs":[],"outputs":[{"name":"","type":"uint256","internalType":"uint256"}],"stateMutability":"view"},{"type":"function","name":"getHexbase","inputs":[],"outputs":[{"name":"","type":"address","internalType":"address"}],"stateMutability":"view"},{"type":"function","name":"getImportedNodeByIndex","inputs":[{"name":"index","type":"uint256","internalType":"uint256"}],"outputs":[{"name":"node","type":"address","internalType":"address"}],"stateMutability":"view"},{"type":"function","name":"getimportedNodeCount","inputs":[],"outputs":[{"name":"nodesCount","type":"uint256","internalType":"uint256"}],"stateMutability":"view"},{"type":"function","name":"importBusiness","inputs":[{"name":"batchSize","type":"uint256","internalType":"uint256"}],"outputs":[],"stateMutability":"nonpayable"},{"type":"function","name":"importedNode","inputs":[{"name":"","type":"uint256","internalType":"uint256"}],"outputs":[{"name":"","type":"address","internalType":"address"}],"stateMutability":"view"},{"type":"function","name":"importuser","inputs":[{"name":"batchSize","type":"uint256","internalType":"uint256"}],"outputs":[],"stateMutability":"nonpayable"},{"type":"function","name":"owner","inputs":[],"outputs":[{"name":"","type":"address","internalType":"address"}],"stateMutability":"view"},{"type":"function","name":"resolveTransferTarget","inputs":[{"name":"to","type":"address","internalType":"address"}],"outputs":[{"name":"from","type":"address","internalType":"address"}],"stateMutability":"view"},{"type":"function","name":"submitTransferForm","inputs":[{"name":"_from","type":"address","internalType":"address"}],"outputs":[],"stateMutability":"nonpayable"},{"type":"function","name":"systemAge","inputs":[],"outputs":[{"name":"","type":"uint256","internalType":"uint256"}],"stateMutability":"view"},{"type":"event","name":"EthBurned","inputs":[{"name":"sender","type":"address","indexed":true,"internalType":"address"},{"name":"amount","type":"uint256","indexed":false,"internalType":"uint256"}],"anonymous":false},{"type":"event","name":"EthTransferred","inputs":[{"name":"to","type":"address","indexed":true,"internalType":"address"},{"name":"amount","type":"uint256","indexed":false,"internalType":"uint256"}],"anonymous":false},{"type":"event","name":"HexBaseUpdated","inputs":[{"name":"previousHexBase","type":"address","indexed":true,"internalType":"address"},{"name":"newHexBase","type":"address","indexed":true,"internalType":"address"}],"anonymous":false},{"type":"event","name":"OwnerUpdated","inputs":[{"name":"previousOwner","type":"address","indexed":true,"internalType":"address"},{"name":"newOwner","type":"address","indexed":true,"internalType":"address"}],"anonymous":false},{"type":"error","name":"ReentrancyGuardReentrantCall","inputs":[]},{"type":"error","name":"TargetCallFailed","inputs":[{"name":"selector","type":"bytes4","internalType":"bytes4"}]}],"bytecode":{"object":"0x6080346100ca57601f6124c938819003918201601f19168301916001600160401b038311848410176100cf578084926020946040528339810103126100ca57516001600160a01b038116908190036100ca5780156100855760018060a01b031933816001541617600155600054161760005560016003556040516123e390816100e68239f35b60405162461bcd60e51b815260206004820152601360248201527f6f776e2e696e76616c69642e68657862617365000000000000000000000000006044820152606490fd5b600080fd5b634e487b7160e01b600052604160045260246000fdfe60806040526004361015610018575b361561001657005b005b60003560e01c806312065fe0146101a857806318c864e3146101a35780631f185d161461019e57806324480afe146101995780633294adf0146101945780633676bd1f1461018f5780633b9b79551461018a578063479fa2c31461018557806349fbed12146101805780634ef260a91461017b5780638da5cb5b14610176578063a1f7f53914610171578063ab7e46ae1461016c578063ac23334514610167578063af48452614610162578063b8f1759a1461015d578063b90306ad14610158578063c1e6cec214610153578063c54e44b01461014e578063cab3cc8d14610149578063e01ad5fd14610144578063e0a9bc2b1461013f578063e846034a1461013a578063fdc10bc9146101355763ff585caf0361000e57610ec8565b610ea5565b610e87565b610de8565b610d4e565b610d30565b610c8e565b610c50565b610b34565b610ae0565b610aaf565b610a77565b610a23565b610965565b61093e565b61086a565b610732565b610689565b610662565b61063d565b610400565b6103e2565b6102b9565b610230565b346101c45760003660031901126101c457602047604051908152f35b600080fd5b60209060031901126101c45760043590565b634e487b7160e01b600052603260045260246000fd5b60055481101561022b57600560005260021b7f036b6384b5eca791c62761152d0c79bb0604c104a5fb6f4eb0703f3154bb3db00190600090565b6101db565b346101c45761023e366101c9565b6005548110156101c45761025360c0916101f1565b5060ff6001600160a01b03808354169282600182015460036002840154930154936040519687528116602087015260a01c161515604085015260608401528181161515608084015260081c16151560a0820152f35b6001600160a01b038116036101c457565b346101c4576020806003193601126101c4576004908135906102da826102a8565b806102fc6102f06000546001600160a01b031690565b6001600160a01b031690565b60405194858092634bf9c0ad60e11b82525afa9182156103dd5761035061038a9361036c9261039c966000926103aa575b5061035e906040519384918783019190916001600160a01b036020820193169052565b03601f198101845283611023565b610366611f0c565b9061210f565b9190806103a0575b61037d90611f45565b8082518301019101611dca565b60405190151581529081906020820190565b0390f35b5081518114610374565b61035e9192506103cf90863d88116103d6575b6103c78183611023565b810190611045565b919061032d565b503d6103bd565b61105d565b346101c45760003660031901126101c4576020600754604051908152f35b346101c4576020806003193601126101c45760043561041e816102a8565b6001600160a01b038116156105f95761045461044d336001600160a01b03166000526004602052604060002090565b5415610f37565b61048a61045f610f98565b509182906001600160a01b031673ffffffffffffffffffffffffffffffffffffffff19825416179055565b60018101805473ffffffffffffffffffffffffffffffffffffffff191633178155916104ef906004906005546040519384917fff585caf0000000000000000000000000000000000000000000000000000000084840152602483019190602083019252565b03610502601f1991828101865285611023565b816105186102f06000546001600160a01b031690565b60405194858092630536340960e21b82525afa9283156103dd576002946105a29461059593610584936000926105d8575b5061059091926040519485917fd3a308490000000000000000000000000000000000000000000000000000000089840152306024840161108c565b03908101845283611023565b6122b8565b805181018201910161110c565b9101556105d56105bc60055492546001600160a01b031690565b6001600160a01b03166000526004602052604060002090565b55005b61059092506105f390873d89116103d6576103c78183611023565b91610549565b6064826040519062461bcd60e51b82526004820152601260248201527f6f776e2e64656661756c742e73656e64657200000000000000000000000000006044820152fd5b346101c45761065b61064e366101c9565b610656611b89565b611752565b6001600355005b346101c45760003660031901126101c45760206001600160a01b0360005416604051908152f35b346101c457610697366101c9565b80151580610726575b6106a990611166565b6000198101908111610721576106be906101f1565b50805460018201546003830154600290930154604080516001600160a01b039485168152938316602085015260ff80861615159185019190915260089490941c84161515606084015260a091821c9093161515608083015281019190915260c090f35b6111b1565b506005548111156106a0565b346101c457610740366101c9565b610748611b89565b610755606482111561148f565b61076661076130611e62565b6114da565b6107856007916107808354610779611f90565b1015611c62565b611cc5565b9060005b82518110156107be576107b9906107b46107af8454806107a98589611cf7565b526115ce565b600755565b6115ce565b610789565b82600460206107d86102f06000546001600160a01b031690565b6040519283809263ab6e844f60e01b82525afa80156103dd5761083b9261035092600092610846575b50610590906040519384917f7aefe0bb00000000000000000000000000000000000000000000000000000000602084015260248301611d0b565b506100166001600355565b6105909192506108639060203d81116103d6576103c78183611023565b9190610801565b346101c45760203660031901126101c4576001600160a01b0360043561088f816102a8565b16600090808252600460205260408220546000198101908111610721576108b76003916101f1565b500161010061ff001982541617905580825260046020528160408120556006546801000000000000000081101561093957600181018060065581101561022b577ff652222313e28459528d920b65115c16c04f3efc82aaedc97be59f3f377c0d3f019073ffffffffffffffffffffffffffffffffffffffff1982541617905580f35b610f82565b346101c45760003660031901126101c45760206001600160a01b0360015416604051908152f35b346101c45760003660031901126101c457600460206001600160a01b03600054166040519283809263d1f956b160e01b82525afa9081156103dd5761039c916109f591600091610a05575b506040516109bd81610feb565b601381527f67657464656c656761746f72436f756e7428290000000000000000000000000060208201526109ef6111f2565b91612232565b6040519081529081906020820190565b610a1d915060203d81116103d6576103c78183611023565b386109b0565b346101c457610a31366101c9565b6006548110156101c4576001600160a01b0360209160066000527ff652222313e28459528d920b65115c16c04f3efc82aaedc97be59f3f377c0d3f015416604051908152f35b346101c45760203660031901126101c4576020610a9e600435610a99816102a8565b6113ba565b6001600160a01b0360405191168152f35b346101c45760203660031901126101c4576020610ad6600435610ad1816102a8565b611e62565b6040519015158152f35b346101c457610aee366101c9565b60065481101561022b576001600160a01b0360209160066000527ff652222313e28459528d920b65115c16c04f3efc82aaedc97be59f3f377c0d3f015416604051908152f35b346101c457610b42366101c9565b6001600160a01b0390600091808354169060405190630536340960e21b82526020928383600481845afa9283156103dd576004938593610b8c928992610c31575b5016331461111b565b604051928380927f46f991ac0000000000000000000000000000000000000000000000000000000082525afa9182156103dd57848085610be395829583958492610c14575b50505af1610bdd612069565b50612099565b60405190815233907fcdcc745fe377b103b45fa0cec23ae3ef93d6fc6a84a01f0d18c40b354dd1d5d890602090a280f35b610c2a9250803d106103d6576103c78183611023565b3880610bd1565b610c49919250853d87116103d6576103c78183611023565b9038610b83565b346101c45760203660031901126101c4576001600160a01b03600435610c75816102a8565b1660005260046020526020604060002054604051908152f35b346101c45760203660031901126101c457600435610cab816102a8565b803b6000610cb8826111d6565b92610cc66040519485611023565b82845260208401903c602d815110610cec57602a015160405160609190911c8152602090f35b606460405162461bcd60e51b815260206004820152601360248201527f4e6f742061206d696e696d616c2070726f7879000000000000000000000000006044820152fd5b346101c45760003660031901126101c4576020600554604051908152f35b346101c4576020806003193601126101c45760048035610d6d816102a8565b6001600160a01b03928084600054166040519485809263d1f956b160e01b82525afa9081156103dd5761039c9461038a94600093610dc9575b506040519316818401528252610dbb82610feb565b610dc3612030565b906121f6565b610de1919350823d84116103d6576103c78183611023565b9138610da6565b346101c45760003660031901126101c4576001600160a01b03600054166040518091634bf9c0ad60e11b825281600460209384935afa9081156103dd57610e4f61038a9261039c94600091610e6a575b50610e41611d46565b610e496111f2565b9161210f565b919080610e60575b61037d90611d7f565b5081518114610e57565b610e819150833d85116103d6576103c78183611023565b38610e38565b346101c45760003660031901126101c4576020600654604051908152f35b346101c45760003660031901126101c4576020610ec0611f90565b604051908152f35b346101c457610ed6366101c9565b6001600160a01b039060046020836000541660405192838092630536340960e21b82525afa80156103dd5761001693610f1992600092610f1e575016331461111b565b611284565b610c4991925060203d81116103d6576103c78183611023565b15610f3e57565b606460405162461bcd60e51b815260206004820152601260248201527f70726f706f7365722e746f2e65786973747300000000000000000000000000006044820152fd5b634e487b7160e01b600052604160045260246000fd5b6005546801000000000000000081101561093957600181018060055581101561022b57600560005260021b7f036b6384b5eca791c62761152d0c79bb0604c104a5fb6f4eb0703f3154bb3db00190600090565b6040810190811067ffffffffffffffff82111761093957604052565b6020810190811067ffffffffffffffff82111761093957604052565b90601f8019910116810190811067ffffffffffffffff82111761093957604052565b908160209103126101c4575161105a816102a8565b90565b6040513d6000823e3d90fd5b60005b83811061107c5750506000910152565b818101518382015260200161106c565b92916080906001600160a01b03600a9360a08752600d60a08801527f55736572205472616e736665720000000000000000000000000000000000000060c08801521660208601526000604086015260e0606086015280518060e08701526110fd81610100936020858a019101611069565b601f8019910116850101930152565b908160209103126101c4575190565b1561112257565b606460405162461bcd60e51b815260206004820152600f60248201527f6f776e2e6e6f6e617574682e44414f00000000000000000000000000000000006044820152fd5b1561116d57565b606460405162461bcd60e51b815260206004820152601760248201527f70726f706f7365722e696e76616c69642e666f726d69640000000000000000006044820152fd5b634e487b7160e01b600052601160045260246000fd5b60001981019190821161072157565b67ffffffffffffffff811161093957601f01601f191660200190565b604051906111ff82611007565b60008252565b6040519061121282610feb565b601282527f676574526573756c742875696e743235362900000000000000000000000000006020830152565b519081151582036101c457565b91908260c09103126101c45781519160208101519160408201519160608101519161105a60a061127d6080850161123e565b930161123e565b80156113b7576112a46112a99161129f600554821115611166565b6111c7565b6101f1565b506112bf6102f06000546001600160a01b031690565b604051918291630536340960e21b835282600460209485935afa9081156103dd57611333611386936113266103506003956113989860009161139a575b5061131860028701546040519384918783019190602083019252565b611320611205565b906120e4565b805181018201910161124b565b9794509250505060018301907fffffffffffffffffffffff00ffffffffffffffffffffffffffffffffffffffff74ff0000000000000000000000000000000000000000835492151560a01b169116179055565b019060ff801983541691151516179055565b565b6113b19150843d86116103d6576103c78183611023565b386112fc565b50565b6113d7816001600160a01b03166000526004602052604060002090565b548015159081611482575b501561147c576112a461140b611411926001600160a01b03166000526004602052604060002090565b546111c7565b50600181015460a01c60ff169081611466575b81611445575b6000911561144157546001600160a01b0316905090565b5090565b905061146061145c600383015460ff9060081c1690565b1590565b9061142a565b9050611476600382015460ff1690565b90611424565b50600090565b90506005541015386113e2565b1561149657565b606460405162461bcd60e51b815260206004820152601c60248201527f7574696c6974792e62617463682e6c696d69742e6578636565646564000000006044820152fd5b156114e157565b606460405162461bcd60e51b815260206004820152601760248201527f7574696c6974792e756e7365637572652e6661696c65640000000000000000006044820152fd5b60405161153181611007565b60008152906000368137565b6040519061154a82610feb565b600f82527f6765744e6f646573436f756e74282900000000000000000000000000000000006020830152565b1561157d57565b606460405162461bcd60e51b815260206004820152601360248201527f7574696c6974792e696d706f72742e646f6e65000000000000000000000000006044820152fd5b9190820180921161072157565b60001981146107215760010190565b604051906115ea82610feb565b601782527f6765744e6f64654279496e6465782875696e74323536290000000000000000006020830152565b1561161d57565b606460405162461bcd60e51b815260206004820152601660248201527f70726f78792e696e76616c69642e696e7374616e6365000000000000000000006044820152fd5b6040519061166e82610feb565b601382527f496e7374546f55736572286164647265737329000000000000000000000000006020830152565b156116a157565b606460405162461bcd60e51b815260206004820152601260248201527f70726f78792e696e76616c69642e6e6f646500000000000000000000000000006044820152fd5b604051906116f282610feb565b601082527f6765744e6f6465286164647265737329000000000000000000000000000000006020830152565b908160a09103126101c457805191602082015161173a816102a8565b9160408101519161105a608061127d6060850161123e565b61175f606482111561148f565b61176b61076130611e62565b6000906117826102f083546001600160a01b031690565b9160409081519163111ea8c160e21b9485845260209060049482818781855afa80156103dd576117cb918691611b72575b506117bc611525565b906117c561153d565b90612232565b958615611b685783518381888163ab6e844f60e01b968782525afa9081156103dd5761181691611804918891611b4b57506117bc611525565b91611810838a11611576565b826115c1565b96808811611b43575b505b868110611832575050505050505050565b6118466102f086546001600160a01b031690565b9084519189835284838981845afa9283156103dd578793611b24575b5061189c86518061187a858983019190602083019252565b039461188e601f1996878101845283611023565b6118966115dd565b906121a5565b906001600160a01b036118b28184161515611616565b87518c815287818c81865afa80156103dd57611907918b91611b07575b508951906118ff826118f3888d83019190916001600160a01b036020820193169052565b03898101845283611023565b611896611661565b91611915828416151561169a565b8851938d855288858d81855afa9485156103dd576119726001928c8f988f611980958f9192611ae2575b5091516001600160a01b039093169183019182529061196a9083906020015b038c8101845283611023565b6113206116e5565b8a808251830101910161171e565b505050939093169261199381151561169a565b148015611ad9575b611a5c575b506119ab8280611bc4565b866119c06102f08b546001600160a01b031690565b8951948580928a82525afa80156103dd57611a3695611a30948b92611a3b575b5089517f50db85d1000000000000000000000000000000000000000000000000000000008a8201526001600160a01b03938416602482015293909216604484015290610590908360648101610584565b506115ce565b611821565b6105909250611a56908a3d8c116103d6576103c78183611023565b916119e0565b928c88918a518096819382525afa9283156103dd578a93611ab092611aa4928c92611ab6575b506118ff908b519384918c83019190916001600160a01b036020820193169052565b03888101845283611023565b386119a0565b6118ff919250611ad2908b3d8d116103d6576103c78183611023565b9190611a82565b5081151561199b565b61196a9250611b0061195e91833d85116103d6576103c78183611023565b925061193f565b611b1e9150893d8b116103d6576103c78183611023565b386118cf565b611b3c919350853d87116103d6576103c78183611023565b9138611862565b96503861181f565b611b629150863d88116103d6576103c78183611023565b386117b3565b5050505050505050565b611b629150843d86116103d6576103c78183611023565b600260035414611b9a576002600355565b60046040517f3ee5aeb5000000000000000000000000000000000000000000000000000000008152fd5b600554906801000000000000000082101561093957611bee61045f836001600395016005556101f1565b600181810180547fffffffffffffffffffffff000000000000000000000000000000000000000000166001600160a01b0395909516948517740100000000000000000000000000000000000000001790559101805461ffff1916909117905560055460009182526004602052604090912055565b15611c6957565b606460405162461bcd60e51b815260206004820152601060248201527f7574696c6974792e6167652e646f6e65000000000000000000000000000000006044820152fd5b67ffffffffffffffff81116109395760051b60200190565b90611ccf82611cad565b611cdc6040519182611023565b8281528092611ced601f1991611cad565b0190602036910137565b805182101561022b5760209160051b010190565b6020908160408183019282815285518094520193019160005b828110611d32575050505090565b835185529381019392810192600101611d24565b60405190611d5382610feb565b600882527f69735361666528290000000000000000000000000000000000000000000000006020830152565b15611d8657565b606460405162461bcd60e51b815260206004820152601960248201527f6f776e2e7361666567756172642e63616c6c2e6661696c6564000000000000006044820152fd5b908160209103126101c45761105a9061123e565b60405190611deb82610feb565b601582527f69735365637572654261736528616464726573732900000000000000000000006020830152565b15611e1e57565b606460405162461bcd60e51b815260206004820152601a60248201527f6f776e2e736563757265626173652e63616c6c2e6661696c65640000000000006044820152fd5b6000546001600160a01b0316604051918291634bf9c0ad60e11b835282600460209485935afa9283156103dd5761105a93611ece9261035092600092611ee9575b50611ec6906040519384918783019190916001600160a01b036020820193169052565b610366611dde565b919080611edf575b61037d90611e17565b5081518114611ed6565b611ec6919250611f0590863d88116103d6576103c78183611023565b9190611ea3565b60405190611f1982610feb565b601182527f69735369676e65722861646472657373290000000000000000000000000000006020830152565b15611f4c57565b606460405162461bcd60e51b815260206004820152601660248201527f6f776e2e7369676e65722e63616c6c2e6661696c6564000000000000000000006044820152fd5b600460206001600160a01b03600054166040519283809263111ea8c160e21b82525afa80156103dd5761105a91600091612012575b50604051611fd281610feb565b600581527f616765282900000000000000000000000000000000000000000000000000000060208201526040519161200983611007565b60008352612232565b61202a915060203d81116103d6576103c78183611023565b38611fc5565b6040519061203d82610feb565b601882527f697364656c656761746f724e6f646528616464726573732900000000000000006020830152565b3d15612094573d9061207a826111d6565b916120886040519384611023565b82523d6000602084013e565b606090565b156120a057565b606460405162461bcd60e51b815260206004820152600f60248201527f6f776e2e6275726e2e6661696c656400000000000000000000000000000000006044820152fd5b906120ef929161210f565b90600090156120fc575090565b604051915061210a82611007565b815290565b803b1561218c576000927fffffffff00000000000000000000000000000000000000000000000000000000836020869551910120169061217960246040518093602082019586526121698151809260208686019101611069565b8101036004810184520182611023565b5191620dbba0fa612188612069565b9091565b50505060009060405161219e81611007565b6000815290565b92916121b39160009461210f565b90806121eb575b6121c15750565b9091506020818051810103126101c45760206001600160a01b039101516121e7816102a8565b1690565b5060208151146121ba565b92916122049160009461210f565b9080612227575b6122125750565b61105a91925060208082518301019101611dca565b50602081511461220b565b92916122409160009461210f565b9080612263575b61224e5750565b61105a9192506020808251830101910161110c565b506020815114612247565b90602082519201517fffffffff000000000000000000000000000000000000000000000000000000009081811693600481106122a957505050565b60040360031b82901b16169150565b6001600160a01b0381161561236957600080918351908260208601915af1906122df612069565b91156122e9575090565b80516000919060041161236357612300915061226e565b8151156123105750805190602001fd5b6024907fffffffff00000000000000000000000000000000000000000000000000000000604051917f21c09d34000000000000000000000000000000000000000000000000000000008352166004820152fd5b50612300565b606460405162461bcd60e51b815260206004820152601260248201527f6f776e2e696e76616c69642e74617267657400000000000000000000000000006044820152fdfea264697066735822122058734db5dbae262f1d75d0148da626c82217ce34a557bc12d302696ee588303b64736f6c63430008140033","linkReferences":{}},"methodIdentifiers":{"Burn(uint256)":"b90306ad","UserToForm(address)":"c1e6cec2","_delegatorCount()":"a1f7f539","_getImplementation(address)":"c54e44b0","_isDelegatorNode(address)":"e01ad5fd","_isSafe()":"e0a9bc2b","_isSecureBase(address)":"af484526","_isSigner(address)":"1f185d16","_lastAge()":"24480afe","callback(uint256)":"ff585caf","closeTransferTarget(address)":"4ef260a9","forms(uint256)":"18c864e3","getBalance()":"12065fe0","getForm(uint256)":"479fa2c3","getFormsCount()":"cab3cc8d","getHexbase()":"3b9b7955","getImportedNodeByIndex(uint256)":"b8f1759a","getimportedNodeCount()":"e846034a","importBusiness(uint256)":"49fbed12","importedNode(uint256)":"ab7e46ae","importuser(uint256)":"3676bd1f","owner()":"8da5cb5b","resolveTransferTarget(address)":"ac233345","submitTransferForm(address)":"3294adf0","systemAge()":"fdc10bc9"},"id":51}