{"abi":[{"type":"constructor","inputs":[{"name":"_hex","type":"address","internalType":"address"}],"stateMutability":"nonpayable"},{"type":"fallback","stateMutability":"payable"},{"type":"receive","stateMutability":"payable"},{"type":"function","name":"Burn","inputs":[{"name":"amount","type":"uint256","internalType":"uint256"}],"outputs":[],"stateMutability":"nonpayable"},{"type":"function","name":"UserToId","inputs":[{"name":"","type":"address","internalType":"address"}],"outputs":[{"name":"","type":"uint256","internalType":"uint256"}],"stateMutability":"view"},{"type":"function","name":"UserToInst","inputs":[{"name":"node","type":"address","internalType":"address"}],"outputs":[{"name":"","type":"address","internalType":"address"}],"stateMutability":"view"},{"type":"function","name":"_ageNow","inputs":[],"outputs":[{"name":"","type":"uint256","internalType":"uint256"}],"stateMutability":"view"},{"type":"function","name":"_delegatorCount","inputs":[],"outputs":[{"name":"","type":"uint256","internalType":"uint256"}],"stateMutability":"view"},{"type":"function","name":"_getImplementation","inputs":[{"name":"clone","type":"address","internalType":"address"}],"outputs":[{"name":"impl","type":"address","internalType":"address"}],"stateMutability":"view"},{"type":"function","name":"_isDelegatorNode","inputs":[{"name":"sender","type":"address","internalType":"address"}],"outputs":[{"name":"","type":"bool","internalType":"bool"}],"stateMutability":"view"},{"type":"function","name":"_isSafe","inputs":[],"outputs":[{"name":"","type":"bool","internalType":"bool"}],"stateMutability":"view"},{"type":"function","name":"_isSecureBase","inputs":[{"name":"sender","type":"address","internalType":"address"}],"outputs":[{"name":"","type":"bool","internalType":"bool"}],"stateMutability":"view"},{"type":"function","name":"_isSigner","inputs":[{"name":"sender","type":"address","internalType":"address"}],"outputs":[{"name":"","type":"bool","internalType":"bool"}],"stateMutability":"view"},{"type":"function","name":"addBusiness","inputs":[{"name":"_id","type":"uint256","internalType":"uint256"},{"name":"_paramAdd","type":"address","internalType":"address"},{"name":"_tokenid","type":"uint256","internalType":"uint256"},{"name":"_qty","type":"uint256","internalType":"uint256"},{"name":"_msgValue","type":"uint256","internalType":"uint256"},{"name":"_type","type":"uint256","internalType":"uint256"}],"outputs":[],"stateMutability":"nonpayable"},{"type":"function","name":"claimIncome","inputs":[{"name":"_id","type":"uint256","internalType":"uint256"},{"name":"_maxint","type":"uint256","internalType":"uint256"}],"outputs":[{"name":"","type":"uint256","internalType":"uint256"},{"name":"","type":"uint256","internalType":"uint256"}],"stateMutability":"nonpayable"},{"type":"function","name":"closemdform","inputs":[{"name":"uid","type":"uint256","internalType":"uint256"}],"outputs":[],"stateMutability":"nonpayable"},{"type":"function","name":"compileRoyality","inputs":[{"name":"prevAge","type":"uint256","internalType":"uint256"},{"name":"_cnt","type":"uint256[7]","internalType":"uint256[7]"}],"outputs":[],"stateMutability":"nonpayable"},{"type":"function","name":"createmdform","inputs":[{"name":"uid","type":"uint256","internalType":"uint256"},{"name":"newpid","type":"uint256","internalType":"uint256"}],"outputs":[],"stateMutability":"nonpayable"},{"type":"function","name":"getBalance","inputs":[],"outputs":[{"name":"","type":"uint256","internalType":"uint256"}],"stateMutability":"view"},{"type":"function","name":"getBatchRankCounts","inputs":[{"name":"ag","type":"uint256","internalType":"uint256"}],"outputs":[{"name":"counts","type":"uint256[8]","internalType":"uint256[8]"}],"stateMutability":"view"},{"type":"function","name":"getDownlineCountByLevel","inputs":[{"name":"uid","type":"uint256","internalType":"uint256"},{"name":"lvl","type":"uint256","internalType":"uint256"}],"outputs":[{"name":"","type":"uint256","internalType":"uint256"}],"stateMutability":"view"},{"type":"function","name":"getEffectiveRank","inputs":[{"name":"uinst","type":"address","internalType":"address"}],"outputs":[{"name":"","type":"uint256","internalType":"uint256"}],"stateMutability":"view"},{"type":"function","name":"getHexbase","inputs":[],"outputs":[{"name":"","type":"address","internalType":"address"}],"stateMutability":"view"},{"type":"function","name":"getMoveDownline","inputs":[{"name":"uid","type":"uint256","internalType":"uint256"}],"outputs":[{"name":"newpid","type":"uint256","internalType":"uint256"},{"name":"exist","type":"bool","internalType":"bool"},{"name":"op","type":"bool","internalType":"bool"}],"stateMutability":"view"},{"type":"function","name":"getNode","inputs":[{"name":"_id","type":"uint256","internalType":"uint256"}],"outputs":[{"name":"_i","type":"uint256","internalType":"uint256"},{"name":"_node","type":"address","internalType":"address"},{"name":"_pid","type":"uint256","internalType":"uint256"},{"name":"_inst","type":"address","internalType":"address"},{"name":"_stor","type":"address","internalType":"address"},{"name":"_active","type":"bool","internalType":"bool"},{"name":"_direcCount","type":"uint256","internalType":"uint256"}],"stateMutability":"view"},{"type":"function","name":"getNodeChild","inputs":[{"name":"_id","type":"uint256","internalType":"uint256"},{"name":"inx","type":"uint256","internalType":"uint256"}],"outputs":[{"name":"child","type":"uint256","internalType":"uint256"}],"stateMutability":"view"},{"type":"function","name":"getNodeDirectsCount","inputs":[{"name":"_id","type":"uint256","internalType":"uint256"}],"outputs":[{"name":"count","type":"uint256","internalType":"uint256"}],"stateMutability":"view"},{"type":"function","name":"getNodeInstStor","inputs":[{"name":"_id","type":"uint256","internalType":"uint256"}],"outputs":[{"name":"_inst","type":"address","internalType":"address"},{"name":"_stor","type":"address","internalType":"address"}],"stateMutability":"view"},{"type":"function","name":"getNodeParent","inputs":[{"name":"_user","type":"address","internalType":"address"}],"outputs":[{"name":"","type":"address","internalType":"address"}],"stateMutability":"view"},{"type":"function","name":"getNodeParentId","inputs":[{"name":"_id","type":"uint256","internalType":"uint256"}],"outputs":[{"name":"","type":"uint256","internalType":"uint256"}],"stateMutability":"view"},{"type":"function","name":"getNodeParentwithId","inputs":[{"name":"_user","type":"address","internalType":"address"}],"outputs":[{"name":"","type":"uint256","internalType":"uint256"},{"name":"","type":"address","internalType":"address"}],"stateMutability":"view"},{"type":"function","name":"getNodesCount","inputs":[],"outputs":[{"name":"nodesCount","type":"uint256","internalType":"uint256"}],"stateMutability":"view"},{"type":"function","name":"getRoyalityAmountBatch","inputs":[{"name":"ag","type":"uint256","internalType":"uint256"}],"outputs":[{"name":"royal","type":"uint256[7]","internalType":"uint256[7]"}],"stateMutability":"view"},{"type":"function","name":"getTeamSize","inputs":[{"name":"uid","type":"uint256","internalType":"uint256"}],"outputs":[{"name":"","type":"uint256","internalType":"uint256"}],"stateMutability":"view"},{"type":"function","name":"getTotalTeamSizeWithLevel","inputs":[{"name":"_user","type":"address","internalType":"address"},{"name":"lvl","type":"uint256","internalType":"uint256"}],"outputs":[{"name":"","type":"uint256","internalType":"uint256"},{"name":"","type":"uint256","internalType":"uint256"}],"stateMutability":"view"},{"type":"function","name":"getUserIdToInst","inputs":[{"name":"_id","type":"uint256","internalType":"uint256"}],"outputs":[{"name":"","type":"address","internalType":"address"}],"stateMutability":"view"},{"type":"function","name":"getUserIdToStor","inputs":[{"name":"_id","type":"uint256","internalType":"uint256"}],"outputs":[{"name":"","type":"address","internalType":"address"}],"stateMutability":"view"},{"type":"function","name":"getUserToInst","inputs":[{"name":"node","type":"address","internalType":"address"}],"outputs":[{"name":"","type":"address","internalType":"address"}],"stateMutability":"view"},{"type":"function","name":"getUserToStor","inputs":[{"name":"_user","type":"address","internalType":"address"}],"outputs":[{"name":"","type":"address","internalType":"address"}],"stateMutability":"view"},{"type":"function","name":"getbusiness","inputs":[{"name":"ag","type":"uint256","internalType":"uint256"}],"outputs":[{"name":"","type":"uint256","internalType":"uint256"}],"stateMutability":"view"},{"type":"function","name":"getjoining","inputs":[{"name":"ag","type":"uint256","internalType":"uint256"}],"outputs":[{"name":"","type":"uint256","internalType":"uint256"}],"stateMutability":"view"},{"type":"function","name":"getrankCount","inputs":[{"name":"ag","type":"uint256","internalType":"uint256"},{"name":"rnk","type":"uint256","internalType":"uint256"}],"outputs":[{"name":"count","type":"uint256","internalType":"uint256"}],"stateMutability":"view"},{"type":"function","name":"gettotqty","inputs":[{"name":"ag","type":"uint256","internalType":"uint256"}],"outputs":[{"name":"","type":"uint256","internalType":"uint256"}],"stateMutability":"view"},{"type":"function","name":"getwithdrawn","inputs":[{"name":"ag","type":"uint256","internalType":"uint256"}],"outputs":[{"name":"","type":"uint256","internalType":"uint256"}],"stateMutability":"view"},{"type":"function","name":"importBusiness","inputs":[{"name":"_amt","type":"uint256","internalType":"uint256"},{"name":"_ag","type":"uint256","internalType":"uint256"},{"name":"_action","type":"bool","internalType":"bool"}],"outputs":[],"stateMutability":"nonpayable"},{"type":"function","name":"importJoining","inputs":[{"name":"_cnt","type":"uint256","internalType":"uint256"},{"name":"_ag","type":"uint256","internalType":"uint256"},{"name":"_action","type":"bool","internalType":"bool"}],"outputs":[],"stateMutability":"nonpayable"},{"type":"function","name":"importOld","inputs":[{"name":"_id","type":"uint256","internalType":"uint256"},{"name":"_limit","type":"uint256","internalType":"uint256"}],"outputs":[],"stateMutability":"payable"},{"type":"function","name":"importRankNBusiness","inputs":[{"name":"from","type":"uint256","internalType":"uint256"},{"name":"to","type":"uint256","internalType":"uint256"}],"outputs":[],"stateMutability":"nonpayable"},{"type":"function","name":"importWithdrawal","inputs":[{"name":"_amt","type":"uint256","internalType":"uint256"},{"name":"_ag","type":"uint256","internalType":"uint256"},{"name":"_action","type":"bool","internalType":"bool"}],"outputs":[],"stateMutability":"nonpayable"},{"type":"function","name":"isNode","inputs":[{"name":"_id","type":"uint256","internalType":"uint256"}],"outputs":[{"name":"","type":"bool","internalType":"bool"}],"stateMutability":"view"},{"type":"function","name":"isStop","inputs":[{"name":"uinst","type":"address","internalType":"address"}],"outputs":[{"name":"","type":"bool","internalType":"bool"}],"stateMutability":"view"},{"type":"function","name":"isUserExists","inputs":[{"name":"node","type":"address","internalType":"address"}],"outputs":[{"name":"","type":"bool","internalType":"bool"}],"stateMutability":"view"},{"type":"function","name":"join","inputs":[{"name":"_parent","type":"address","internalType":"address"},{"name":"_user","type":"address","internalType":"address"}],"outputs":[{"name":"_id","type":"uint256","internalType":"uint256"},{"name":"_stor","type":"address","internalType":"address"}],"stateMutability":"nonpayable"},{"type":"function","name":"joinImport","inputs":[{"name":"_parent","type":"address","internalType":"address"},{"name":"_user","type":"address","internalType":"address"}],"outputs":[{"name":"_id","type":"uint256","internalType":"uint256"},{"name":"_stor","type":"address","internalType":"address"}],"stateMutability":"nonpayable"},{"type":"function","name":"moveDownline","inputs":[{"name":"uid","type":"uint256","internalType":"uint256"}],"outputs":[],"stateMutability":"nonpayable"},{"type":"function","name":"nodes","inputs":[{"name":"","type":"uint256","internalType":"uint256"}],"outputs":[{"name":"","type":"address","internalType":"address"}],"stateMutability":"view"},{"type":"function","name":"owner","inputs":[],"outputs":[{"name":"","type":"address","internalType":"address"}],"stateMutability":"view"},{"type":"function","name":"setBase","inputs":[{"name":"_f","type":"address","internalType":"address"}],"outputs":[],"stateMutability":"nonpayable"},{"type":"function","name":"setDefaultRankCount","inputs":[{"name":"_limit","type":"uint256","internalType":"uint256"}],"outputs":[],"stateMutability":"nonpayable"},{"type":"function","name":"syncBaseAddr","inputs":[],"outputs":[],"stateMutability":"nonpayable"},{"type":"function","name":"systemAge","inputs":[],"outputs":[{"name":"","type":"uint256","internalType":"uint256"}],"stateMutability":"view"},{"type":"function","name":"tokenImport","inputs":[{"name":"_id","type":"uint256","internalType":"uint256"},{"name":"mintid","type":"uint256","internalType":"uint256"}],"outputs":[],"stateMutability":"nonpayable"},{"type":"function","name":"updateUsers","inputs":[{"name":"from","type":"address","internalType":"address"},{"name":"to","type":"address","internalType":"address"}],"outputs":[{"name":"_id","type":"uint256","internalType":"uint256"},{"name":"_stor","type":"address","internalType":"address"},{"name":"_parent","type":"address","internalType":"address"}],"stateMutability":"nonpayable"},{"type":"event","name":"EthBurned","inputs":[{"name":"sender","type":"address","indexed":true,"internalType":"address"},{"name":"amount","type":"uint256","indexed":false,"internalType":"uint256"}],"anonymous":false},{"type":"event","name":"EthTransferred","inputs":[{"name":"to","type":"address","indexed":true,"internalType":"address"},{"name":"amount","type":"uint256","indexed":false,"internalType":"uint256"}],"anonymous":false},{"type":"event","name":"HexBaseUpdated","inputs":[{"name":"previousHexBase","type":"address","indexed":true,"internalType":"address"},{"name":"newHexBase","type":"address","indexed":true,"internalType":"address"}],"anonymous":false},{"type":"event","name":"OwnerUpdated","inputs":[{"name":"previousOwner","type":"address","indexed":true,"internalType":"address"},{"name":"newOwner","type":"address","indexed":true,"internalType":"address"}],"anonymous":false},{"type":"error","name":"FailedDeployment","inputs":[]},{"type":"error","name":"InsufficientBalance","inputs":[{"name":"balance","type":"uint256","internalType":"uint256"},{"name":"needed","type":"uint256","internalType":"uint256"}]},{"type":"error","name":"InvalidAddress","inputs":[]},{"type":"error","name":"InvalidState","inputs":[]},{"type":"error","name":"NestedBadAge","inputs":[]},{"type":"error","name":"NestedBadParent","inputs":[]},{"type":"error","name":"NestedBadSender","inputs":[]},{"type":"error","name":"NestedDetached","inputs":[]},{"type":"error","name":"NestedExists","inputs":[]},{"type":"error","name":"NestedInactive","inputs":[]},{"type":"error","name":"NestedInvalidHexbase","inputs":[]},{"type":"error","name":"NestedInvalidInstance","inputs":[]},{"type":"error","name":"NestedMdExists","inputs":[]},{"type":"error","name":"NestedMdMissing","inputs":[]},{"type":"error","name":"NestedNoSource","inputs":[]},{"type":"error","name":"NestedNoStor","inputs":[]},{"type":"error","name":"NestedNotDetached","inputs":[]},{"type":"error","name":"NestedParentMissing","inputs":[]},{"type":"error","name":"NestedParentNoBiz","inputs":[]},{"type":"error","name":"NestedTargetExists","inputs":[]},{"type":"error","name":"NestedZeroAddr","inputs":[]},{"type":"error","name":"NotAuthorized","inputs":[]},{"type":"error","name":"NotSafe","inputs":[]},{"type":"error","name":"ReentrancyGuardReentrantCall","inputs":[]},{"type":"error","name":"TargetCallFailed","inputs":[{"name":"selector","type":"bytes4","internalType":"bytes4"}]}],"bytecode":{"object":"0x6080346200009e57601f6200486038819003918201601f19168301916001600160401b03831184841017620000a3578084926020946040528339810103126200009e57516001600160a01b038116908190036200009e5780156200008c5760018060a01b03193381600154161760015560005416176000556001600d556040516147a69081620000ba8239f35b60405163e6c4247b60e01b8152600490fd5b600080fd5b634e487b7160e01b600052604160045260246000fdfe60806040526004361015610018575b361561001657005b005b60003560e01c8063033eeffb146103d35780630e5fd00b146103745780631157a849146103ce57806312065fe0146103c957806313508e37146103c45780631bb49f02146103bf5780631c53c280146103ba5780631f185d16146103b55780631f5fa838146103b05780632bbae52e146103ab5780632fefc0bf146103a6578063339459a6146103a157806333b59a5b1461039c5780633a7b55b8146103975780633b9b7955146103925780633baee0ea1461038d578063419cb27b1461038857806342cc9d5714610383578063445850971461037e57806344668f231461037957806345145fd7146103745780634d1ec4521461036f5780634f0f4aa91461036a578063509222cd1461036557806350db85d11461036057806361ea72081461035b578063629d671e1461035657806365d2fbd3146103515780636a8112441461034c5780636b90905b146103475780636fb412ab1461034257806370a75f501461033d57806376fe6c45146103385780637818cdd71461033357806380f85e331461032e578063849c22ad14610329578063896c354a146103245780638d92a51b1461031f5780638da5cb5b1461031a57806398b3f21514610315578063a1f7f53914610310578063a89d693b1461030b578063ab3980b114610306578063af48452614610301578063b1c49079146102fc578063b366335e146102f7578063b90306ad146102f2578063be17fe62146102ed578063c43792e3146102e8578063c54e44b0146102e3578063c871372b146102de578063cf359165146102d9578063d1e0bbc6146102d4578063dcb3fc4a146102cf578063e01ad5fd146102ca578063e0a9bc2b146102c5578063eb95c662146102c0578063f3ca7124146102bb578063fd38093b146102b65763fdc10bc90361000e576129b8565b61294a565b61291e565b6128f2565b6128d7565b612818565b61265a565b612620565b612540565b6124bb565b61245f565b612433565b612380565b612298565b612222565b61214f565b61211e565b61207d565b612014565b611f7b565b611f4f565b611f26565b611e85565b611e45565b611e16565b611ddc565b611d83565b611c3b565b611b9a565b6119ca565b6118a8565b611723565b61132f565b6112f2565b6112ba565b6111aa565b611157565b611096565b611035565b610434565b610ffe565b610fc7565b610f98565b610f64565b610c74565b610c23565b610ba9565b610914565b6108fb565b6108cb565b610886565b610767565b6106a0565b61066c565b6105b3565b61056a565b61054e565b610483565b346103ff5760203660031901126103ff5760043560005260156020526020604060002054604051908152f35b600080fd5b6001600160a01b031690565b6001600160a01b038116036103ff57565b6001600160a01b03909116815260200190565b346103ff5760203660031901126103ff57602060043561045381610410565b60018060a01b03809116600052600e82526040600020546000526011825260046040600020015416604051908152f35b346103ff5760203660031901126103ff5760043561049f612a11565b8060005260116020526104c26104be600160406000200160ff90541690565b1590565b8015610530575b61051e576104e66104be60016104de8461060c565b015460ff1690565b61050c576104f66105029161060c565b60016000918281550155565b6100166001600d55565b604051632564805f60e11b8152600490fd5b604051635dab8f7760e01b8152600490fd5b5061053a336112d8565b548114156104c9565b60009103126103ff57565b346103ff5760003660031901126103ff57602047604051908152f35b346103ff5760203660031901126103ff57600435600052601a6020526060604060002060ff600182549201546040519283528181161515602084015260081c1615156040820152f35b346103ff5760203660031901126103ff5760206004356105d281610410565b6001600160a01b039081166000908152600e8352604080822054825260118452808220600201548252600f84529081902054905191168152f35b600052601a602052604060002090565b6000526012602052604060002090565b6000526011602052604060002090565b600052600f602052604060002090565b6000526014602052604060002090565b6000526015602052604060002090565b346103ff5760203660031901126103ff57600435600052600f602052602060018060a01b0360406000205416604051908152f35b346103ff576020806003193601126103ff576107136004356106c181610410565b6002546040516001600160a01b039283168582015284815291166106e482611cd3565b604051906106f182611cd3565b601182527069735369676e657228616464726573732960781b85830152614606565b91908061075d575b1561074b5781816107359261074794518301019101613e0c565b60405190151581529081906020820190565b0390f35b60405163baf3f0f760e01b8152600490fd5b508082511461071b565b346103ff576020806003193601126103ff5760043561078581610410565b604051632ca05d7160e21b81526001600160a01b039183908290600490829086165afa9081156108285760009161083f575b5016801561082d5781600491604051928380926349a104e760e11b82525afa90811561082857610747926000926107fb575b50506040519081529081906020820190565b61081a9250803d10610821575b6108128183611d40565b810190613141565b38806107e9565b503d610808565b612b35565b604051631a113ba560e21b8152600490fd5b61085f9150833d8511610865575b6108578183611d40565b810190612b20565b386107b7565b503d61084d565b6001600160a01b0391821681529116602082015260400190565b346103ff5760203660031901126103ff576004356000526011602052604060002060018060a01b0360058160048401541692015416906107476040519283928361086c565b346103ff5760203660031901126103ff5760206108e9600435612d66565b6040516001600160a01b039091168152f35b346103ff5760003660031901126103ff57610016614108565b346103ff576040806003193601126103ff576004803590602435906109376144a6565b15610b6d5761094533614518565b8015610b59575b15610b4b576000936109666109618654610404565b610404565b918151809363111ea8c160e21b8252818360209687935afa908115610828578791610b2e575b506001600160a01b0316908515610b28576109a686612a64565b83516380f85e3360e01b80825283820192835260006020840152918690829081906040010381875afa908115610828578991610b0b575b50965b868111156109ec578880f35b84516375cae33160e11b81528381018281528790829081906020010381885afa908115610828578a91610aee575b50610a2f826000526016602052604060002090565b55885b60088110610a495750610a4490612d84565b6109e0565b8551838152878180610a5e85878a8401611712565b0381895afa908115610828578b91610ad1575b508115610aa5575b90610aa091610a9a82610a8b8661061c565b90600052602052604060002090565b55612d84565b610a32565b9890610ab4610aa0928b612a73565b610ac8846000526019602052604060002090565b55905088610a79565b610ae89150883d8a11610821576108128183611d40565b38610a71565b610b059150873d8911610821576108128183611d40565b38610a1a565b610b229150863d8811610821576108128183611d40565b386109dd565b866109a6565b610b459150843d8611610865576108578183611d40565b3861098c565b835163ea8e4eb560e01b8152fd5b506005546001600160a01b0316331461094c565b8351634ee2123760e11b8152fd5b60e0810192916000915b60078310610b9257505050565b600190825181526020809101920192019190610b85565b346103ff576020806003193601126103ff57600435604091825191610bcd83611cee565b60e036843760005b60078110610bea578451806107478682610b7b565b816000526013835284600020906001810191828211610c1e57826000528452610c1886600020549186613db7565b52610bd5565b6129d3565b346103ff5760003660031901126103ff576000546040516001600160a01b039091168152602090f35b60409060031901126103ff57600435610c6481610410565b90602435610c7181610410565b90565b346103ff57610c8236610c4c565b610c8a612a11565b610c92614108565b610c9c8133612b41565b6001600160a01b03818116908115610f5257610cb7836112d8565b54151580610f46575b610f3457610ccd846112d8565b5415610f2257610cf66109616109616005610cf0610cea896112d8565b5461062c565b01612a04565b91823b156103ff5760409160008351809563880cdc3160e01b8252818381610d218b60048301610421565b03925af19384156108285761074794610f09575b50610d4a6109616004610cf0610cea8a6112d8565b610ecf575b610d58866112d8565b54610d62866112d8565b55610d7e85610d79610d73896112d8565b5461063c565b612d93565b610d96336004610d90610cea896112d8565b01612d93565b851614159081610ebe575b610e55610e16610db0866112d8565b5495610dc06005610cf08961062c565b9781610ddf610dda6002610dd38c61062c565b015461063c565b612a04565b9615610e8657610e2991610e24610df7600954610404565b91610e16895194859263e3d1d5bf60e01b60208501526024840161086c565b03601f198101845283611d40565b6146ee565b505b610e24610e39600a54610404565b918551938491634ef260a960e01b602084015260248301610421565b50610e606001600d55565b519283526001600160a01b03938416602084015290921660408201529081906060820190565b50610e16610eb891610e24610e9c600954610404565b918851938491639498d88b60e01b602084015260248301610421565b50610e2b565b6000610ec9866112d8565b55610da1565b610f03610ee36004610cf0610cea8a6112d8565b845162e6724f60e21b602082015290610e2482610e163360248301610421565b50610d4f565b80610f16610f1c92611ca0565b80610543565b38610d35565b60405163a7bc67af60e01b8152600490fd5b604051631bb220a360e21b8152600490fd5b50818185161415610cc0565b6040516398c534a160e01b8152600490fd5b346103ff5760203660031901126103ff576004356000526011602052602060ff600160406000200154166040519015158152f35b346103ff5760203660031901126103ff5760043560005260116020526020600360406000200154604051908152f35b346103ff5760203660031901126103ff576004356000526011602052602060018060a01b0360046040600020015416604051908152f35b346103ff5760003660031901126103ff576020601b54604051908152f35b9081526001600160a01b03909116602082015260400190565b346103ff5760203660031901126103ff5760043561105281610410565b60018060a01b0380600092168252600e60205260408220548252601160205260406002818420015492838152600f602052205416906107476040519283928361101c565b346103ff5760203660031901126103ff57600435806000526011602052604060002054600f60205261074760018060a01b03806040600020541693601160205260406000209160046002840154930154166110f56005610cf08461062c565b90600361110f61110960016104de8761062c565b9461062c565b0154604080519788526001600160a01b03988916602089015287019490945286166060860152909416608084015292151560a083015260c082019290925290819060e0820190565b346103ff5760203660031901126103ff5760043561117481610410565b60018060a01b0316600052600e6020526040600020546000526011602052602060ff600160406000200154166040519015158152f35b346103ff576111b836610c4c565b6111c06144a6565b156112a8576111ce33614518565b8015611294575b15611282576111eb916111e6612a11565b612db2565b80600052601160205260018060a01b03600560406000200154169061123360405163d3abb8a360e01b6020820152600160248201526024815261122d81611cb8565b836146ee565b5061123d82612c61565b61125b575b61124c6001600d55565b6107476040519283928361101c565b61127d6112786005610cf060026112718661062c565b015461062c565b612cd4565b611242565b60405163ea8e4eb560e01b8152600490fd5b506005546001600160a01b031633146111d5565b604051634ee2123760e11b8152600490fd5b346103ff5760003660031901126103ff576020601054604051908152f35b6001600160a01b03166000908152600e6020526040902090565b346103ff5760203660031901126103ff5760043561130f81610410565b60018060a01b0316600052600e6020526020604060002054604051908152f35b346103ff5760203660031901126103ff57600480359061134d612a11565b6001906113606104be836104de8661062c565b80156116ff575b6116f0576113748361060c565b91808301926113876104be855460ff1690565b6116df57611393612a34565b6113a96113a46005610cf08861062c565b612c61565b906113bc6104be865460ff9060081c1690565b156115895750600291826113cf8761062c565b015415611578576000815b61149a575b505061147b575b6113fa6109616109616005610cf08861062c565b803b156103ff57604051631867546560e21b8152600193810193845292600091849182908490829060200103925af18015610828576105029460009361145792611468575b5084546114529060081c60ff1682613287565b61062c565b0155805461ff001916610100179055565b80610f1661147592611ca0565b3861143f565b6114956114906005610cf0846112718961062c565b612d22565b6113e6565b6003806114aa866112718b61062c565b01548210156115725787806114da6114d085856114ca8b6112718761062c565b0161303c565b90549060031b1c90565b146114f05750506114ea90612d84565b816113da565b61156b935061153f8293836114ca896112716115396114d0886115338761152c876112716115589f611525836112718961062c565b019561062c565b0154612a64565b9061303c565b9661062c565b90919082549060031b91821b91600019901b1916179055565b611565846112718961062c565b0161323a565b38806113df565b506113df565b604051634593d2d560e11b81528490fd5b929493915060026115998561062c565b01546116ce576115e0916115da916115cb8660036115c588548060026115be8661062c565b015561062c565b01613059565b6116b7575b5460081c60ff1690565b83613287565b6001600160a01b036115f584610cf08561062c565b16611670575b506116106109616109616005610cf08561062c565b803b156103ff57604051631867546560e21b81526000938101848152909391849182908490829060200103925af190811561082857611658926104f69261165d575b5061060c565b610502565b80610f1661166a92611ca0565b38611652565b610e166116b091610e24611694610dda61168d88610cf08961062c565b935461063c565b604051630a4ce2c960e11b602082015293849160248301610421565b50386115fb565b6116c96112786005610cf0875461062c565b6115d0565b60405163a937c68b60e01b81528590fd5b604051632564805f60e11b81528390fd5b604051635dab8f7760e01b8152fd5b50611709336112d8565b54831415611367565b908152602081019190915260400190565b346103ff576040806003193601126103ff5760043590611741612a11565b6117526104be60016104de8561062c565b611898576117676109616004610cf08561062c565b330361188857600090611778612a34565b60606117b26117916109616109616005610cf08961062c565b601b5484519586809481936350e12e4360e11b835260243560048401611712565b03925af192831561082857600080938195611848575b50836107479392826117e56117e0846117f1966129f7565b613e79565b80611805575b506135b6565b6117fb6001600d55565b5192839283611712565b61184190611814600c54610404565b610e24611823610dda8661063c565b610e16895194859263a9059cbb60e01b60208501526024840161321f565b50386117eb565b6117f1955061074793929450611875915060603d8111611881575b61186d8183611d40565b81019061359b565b955093919250836117c8565b503d611863565b5163e38a47bd60e01b8152600490fd5b5163bf22183960e01b8152600490fd5b346103ff576040806003193601126103ff5760049060243582356118ca6144a6565b156119bb576118d833614518565b80156119a7575b15611998576118ec612a11565b6118fd6104be60016104de8461062c565b611989576119126104be60016104de8561062c565b61197a576119276113a46005610cf08561062c565b1561196b576119359061060c565b6001810192611945845460ff1690565b61195c575055805460ff1916600117905550610502565b516304d2a6fb60e21b81528490fd5b505051630771dfcd60e11b8152fd5b505051630500268160e01b8152fd5b50505163bf22183960e01b8152fd5b50505163ea8e4eb560e01b8152fd5b506005546001600160a01b031633146118df565b505051634ee2123760e11b8152fd5b346103ff576040806003193601126103ff57602435906004356119eb612a11565b6119fc6104be60016104de8461062c565b611b5f57611a0f610961610dda8361063c565b3303611b4e5760046020611a2d6109616109616005610cf08761062c565b8451634b2cc33f60e11b815292839182905afa8015610828578491600091611b30575b501015611a61576100166001600d55565b6080611a9a93611a7b6109616109616005610cf08761062c565b845180809781946331a8596160e11b8352600483019190602083019252565b03915afa90811561082857611ae793600092611af0575b50611ac1610dda610e249261063c565b610e16611acc613193565b9451637a937b4560e11b6020820152948592602484016131ce565b50388080610502565b610e24919250610dda611b1c611ac19260803d8111611b29575b611b148183611d40565b810190613150565b9250505093925050611ab1565b503d611b0a565b611b48915060203d8111610821576108128183611d40565b38611a50565b8151635dab8f7760e01b8152600490fd5b815163bf22183960e01b8152600490fd5b801515036103ff57565b60609060031901126103ff576004359060243590604435610c7181611b70565b346103ff57611ba836611b7a565b611bb06144a6565b156112a857611bbe33614518565b8015611c27575b156112825715611bfb57806000526016602052604060002054918201809211610c1e576000526016602052604060002055600080f35b806000526016602052604060002054918203918211610c1e576000526016602052604060002055600080f35b506005546001600160a01b03163314611bc5565b346103ff5760203660031901126103ff576020600435611c5a81610410565b60018060a01b03809116600052600e82526040600020546000526011825260056040600020015416604051908152f35b634e487b7160e01b600052604160045260246000fd5b6001600160401b038111611cb357604052565b611c8a565b606081019081106001600160401b03821117611cb357604052565b604081019081106001600160401b03821117611cb357604052565b60e081019081106001600160401b03821117611cb357604052565b602081019081106001600160401b03821117611cb357604052565b61010081019081106001600160401b03821117611cb357604052565b601f909101601f19168101906001600160401b03821190821017611cb357604052565b6040519061016082016001600160401b03811183821017611cb357604052565b346103ff576101003660031901126103ff5736604312156103ff57604051611daa81611cee565b610104813682116103ff576024905b828210611dcc5761001684600435613baa565b8135815260209182019101611db9565b346103ff5760403660031901126103ff57600435600052601260205260406000206024356000526020526020604060002054604051908152f35b346103ff5760203660031901126103ff5760043560005260116020526020600260406000200154604051908152f35b346103ff5760403660031901126103ff5760043560005260116020526020611e76602435600360406000200161303c565b90549060031b1c604051908152f35b346103ff57611e9336611b7a565b611e9b6144a6565b156112a857611ea933614518565b8015611f12575b156112825715611ee657806000526018602052604060002054918201809211610c1e576000526018602052604060002055600080f35b806000526018602052604060002054918203918211610c1e576000526018602052604060002055600080f35b506005546001600160a01b03163314611eb0565b346103ff5760003660031901126103ff576001546040516001600160a01b039091168152602090f35b346103ff5760203660031901126103ff5760043560005260196020526020604060002054604051908152f35b346103ff5760003660031901126103ff576020611fdd60018060a01b0360065416604051611fa881611cd3565b601381527267657464656c656761746f72436f756e74282960681b8482015260405191611fd483611d09565b60008352614681565b604051908152f35b610100810192916000915b60088310611ffd57505050565b600190825181526020809101920192019190611ff0565b346103ff576020806003193601126103ff5760043590604080519161203883611d24565b61010036843760005b60088110612056578251806107478682611fe5565b60019085600052601283528360002081600052835283600020548160051b86015201612041565b346103ff5761208b36611b7a565b6120936144a6565b156112a8576120a133614518565b801561210a575b1561128257156120de57806000526019602052604060002054918201809211610c1e576000526019602052604060002055600080f35b806000526019602052604060002054918203918211610c1e576000526019602052604060002055600080f35b506005546001600160a01b031633146120a8565b346103ff5760203660031901126103ff57602061214560043561214081610410565b614518565b6040519015158152f35b346103ff5761215d36610c4c565b612165612a11565b61216f8133612b41565b6121836104be60016104de610cea866112d8565b6122105761219c6113a4612196846112d8565b54612d66565b156121fe576121b4916121ad612a34565b3390612ee6565b6121d16121c2601b5461061c565b60008052602052604060002090565b6121db81546129e9565b90556121e5613ea5565b6121f36005610cf08361062c565b9061124c6001600d55565b604051630771dfcd60e11b8152600490fd5b604051634eeadaa960e11b8152600490fd5b346103ff5760203660031901126103ff5761223b6144a6565b156112a85761224933614518565b8015612284575b156112825761225d614599565b601b5410612274575b610016600435601b54612a80565b61227c614599565b601b55612266565b506005546001600160a01b03163314612250565b346103ff5760203660031901126103ff576004356122b46144a6565b156112a8576005546001600160a01b0316330361128257600090600460206122df6109618554610404565b6040516311be646b60e21b815292839182905afa80156108285783808481949382948391612362575b505af16123136145d6565b501561074b577fcdcc745fe377b103b45fa0cec23ae3ef93d6fc6a84a01f0d18c40b354dd1d5d861235c61234b610961600b54610404565b604051938452929081906020820190565b0390a280f35b61237a915060203d8111610865576108578183611d40565b38612308565b346103ff5760203660031901126103ff5760043561239d81610410565b6123a56144a6565b156112a8576123b333614518565b801561241f575b15611282576001600160a01b03908116801561240d57600080546001600160a01b03198116831782559092167fe939feee179e631422bcc8f6e6d7d908cb3f8af38f5372f17c77e15aea5c80ee8380a380f35b60405163e6c4247b60e01b8152600490fd5b506005546001600160a01b031633146123ba565b346103ff5760203660031901126103ff5760043560005260176020526020604060002054604051908152f35b346103ff5760203660031901126103ff5760043561247c81610410565b803b600061248982613178565b926124976040519485611d40565b82845260208401903c602d81511061074b57602a602091015160601c604051908152f35b60403660031901126103ff576004356124d2612a11565b80600052601160205260ff600160406000200154161561252e576124fd6005610cf06125239361062c565b60405163d3abb8a360e01b6020820152602480359082015290610e248260448101610e16565b506100166001600d55565b60405163bf22183960e01b8152600490fd5b346103ff576020806003193601126103ff5760043561255e81610410565b604051632ca05d7160e21b81526001600160a01b039183908290600490829086165afa90811561082857600091612603575b5016801561082d5781600491604051928380926304ec6d1760e11b82525afa90811561082857610747926000926125d6575b505060405190151581529081906020820190565b6125f59250803d106125fc575b6125ed8183611d40565b810190613e0c565b38806125c2565b503d6125e3565b61261a9150833d8511610865576108578183611d40565b38612590565b346103ff5760403660031901126103ff57600435600052601460205260406000206024356000526020526020604060002054604051908152f35b346103ff5760c03660031901126103ff5760243560043561267a82610410565b606435906084359261268a612a11565b61269b6104be60016104de8561062c565b61252e576126b06109616004610cf08561062c565b330361280657612758936040916126c5612a34565b6126ce82613e21565b6126d785613e4d565b6126e86113a46005610cf08761062c565b156127eb575b6127026109616109616005610cf08861062c565b601b5484516387acdff760e01b81526001600160a01b0390931660048401526044803560248501528301879052606483019390935260a480356084840152820192909252948591908290600090829060c4820190565b03925af1908115610828576105029360009081936127b8575b508061277e575b506137c9565b610e166127b191610e24612793600b54610404565b9160405193849163a9059cbb60e01b6020840152336024840161321f565b5038612778565b90506127dc91925060403d81116127e4575b6127d48183611d40565b810190613209565b919038612771565b503d6127ca565b6128016112786005610cf060026112718961062c565b6126ee565b60405163e38a47bd60e01b8152600490fd5b346103ff576020806003193601126103ff57610747906004359061283b82610410565b6006546040516001600160a01b039384168382015282815292169161289b9061286381611cd3565b60405161286f81611cd3565b6018815277697364656c656761746f724e6f646528616464726573732960401b84820152600094614606565b9190806128cd575b6128bb57505060405190151581529081906020820190565b6125f592508082518301019101613e0c565b50808251146128a3565b346103ff5760003660031901126103ff5760206121456144a6565b346103ff5760203660031901126103ff5760043560005260166020526020604060002054604051908152f35b346103ff5760203660031901126103ff5760043560005260186020526020604060002054604051908152f35b346103ff576040806003193601126103ff5760043561296881610410565b60018060a01b0316610747826000838152600e602052818120548152601560205281812054938152600e602052818120548152601460205281812060243582526020522054925192839283611712565b346103ff5760003660031901126103ff576020611fdd614599565b634e487b7160e01b600052601160045260246000fd5b9060018201809211610c1e57565b91908201809211610c1e57565b546001600160a01b031690565b6002600d5414612a22576002600d55565b604051633ee5aeb560e01b8152600490fd5b612a3c614599565b601b5410612a54575b612a52600a601b54612a80565b565b612a5c614599565b601b55612a45565b600019810191908211610c1e57565b91908203918211610c1e57565b600091818352602092601284526040918282208280528552828220541580612b16575b80612b0d575b612ab5575b5050505050565b612ad190612acb612ac586612a64565b91612a64565b90612a80565b805b6008811015612aae57600190612af0612aeb86612a64565b61061c565b818452865283832054612b0682610a8b8861061c565b5501612ad3565b50801515612aa9565b5060018411612aa3565b908160209103126103ff5751610c7181610410565b6040513d6000823e3d90fd5b604051638da5cb5b60e01b81526020926001600160a01b03928316918481600481865afa918215610828578491600093612bf2575b508116911603612806578260049160405192838092633b9b795560e01b82525afa92831561082857600093612bd3575b5050612bb86109618260005416610404565b911603612bc157565b6040516363ad7db960e11b8152600490fd5b612bea929350803d10610865576108578183611d40565b903880612ba6565b82919350612c0c90873d8911610865576108578183611d40565b9290612b76565b908160809103126103ff576040519060808201906001600160401b03821183831017611cb3576060916040528051835260208101516020840152604081015160408401520151606082015290565b6000906001600160a01b031680612c79575050600090565b60806024916040519283809263da02133560e01b82528660048301525afa9182156108285791612ca857505190565b612cc9915060803d8111612ccd575b612cc18183611d40565b810190612c13565b5190565b503d612cb7565b6001600160a01b031680612ce55750565b803b156103ff5760008091602460405180948193630711e58760e41b8352600160048401525af1801561082857612d195750565b612a5290611ca0565b6001600160a01b031680612d335750565b803b156103ff5760008091602460405180948193630711e58760e41b83528160048401525af1801561082857612d195750565b6000908152601160205260409020600501546001600160a01b031690565b6000198114610c1e5760010190565b80546001600160a01b0319166001600160a01b03909216919091179055565b90612dc460016104de610cea846112d8565b612ed457612e0b612e0592612de2612ddd601054612d84565b601055565b601054938491612df585610d798561063c565b82612dff866112d8565b556112d8565b5461307c565b612e2a6004612e198461062c565b0180546001600160a01b0319169055565b612e4b612e40612e3b600854610404565b612fbe565b6005610d908561062c565b612e5f6109616109616005610cf08661062c565b90612e6e610961600054610404565b823b156103ff5760405163134bd3bd60e11b81526001600160a01b039182166004820152911660248201526044810183905260006064820181905290918290818381608481015b03925af1801561082857612ec7575090565b80610f16610c7192611ca0565b604051634f710b4560e11b8152600490fd5b919091612efa60016104de610cea856112d8565b612ed457612e0592612f34612f3f92612f17612ddd601054612d84565b601054958691612f2a87610d798561063c565b82612dff886112d8565b6004610d908561062c565b612f50612e40612e3b600854610404565b612f646109616109616005610cf08661062c565b90612f73610961600054610404565b823b156103ff5760405163134bd3bd60e11b81526001600160a01b03918216600482015291166024820152604481018390526001606482015290600090829081838160848101612eb5565b6e5af43d82803e903d91602b57fd5bf390763d602d80600a3d3981f3363d3d373d3d3d363d7300000062ffffff8260881c161760005260781b17602052603760096000f0906001600160a01b0382161561301457565b60405163b06ebf3d60e01b8152600490fd5b634e487b7160e01b600052603260045260246000fd5b80548210156130545760005260206000200190600090565b613026565b80549190600160401b831015611cb3578261153f916001612a529501815561303c565b919091600092808452602091601183526040808620956002948386890155846001986130b18a8201600160ff19825416179055565b55876130bc8661064c565b83805282528489858520555b6130d757505050505050509050565b61312461311e828b8a941461312d575b6130f08861064c565b818752855286862061310281546129e9565b905561310d8861065c565b61311781546129e9565b9055612d84565b9561062c565b015493846130c8565b61313c8960036115c58b61062c565b6130e7565b908160209103126103ff575190565b91908260809103126103ff5781519160208101519160606040830151920151610c7181610410565b6001600160401b038111611cb357601f01601f191660200190565b60405161319f81611d09565b60008152906000368137565b60005b8381106131be5750506000910152565b81810151838201526020016131ae565b909160609260018060a01b03168252604060208301526131fd81518092816040860152602086860191016131ab565b601f01601f1916010190565b91908260409103126103ff576020825192015190565b6001600160a01b039091168152602081019190915260400190565b80549081156132645760001991820191613254838361303c565b909182549160031b1b1916905555565b634e487b7160e01b600052603160045260246000fd5b8015610c1e576000190190565b9061329a6132948361065c565b546129e9565b91600290816132a88261062c565b0154906001938492835b6132c0575b50505050505050565b600f8085111580613592575b1561358c57859060056132e561096182610cf08761062c565b613307575b50506132f86133009261062c565b015493612d84565b92856132b2565b865b828111156133c0575050506132f8613300928460001461337e5761334661332f8761064c565b61333889612a64565b600052602052604060002090565b5461335f61335789610a8b8561064c565b9182546129f7565b905561336a8161065c565b6133758b82546129f7565b90555b926132ea565b61338a61332f8761064c565b546133a361339b89610a8b8561064c565b918254612a73565b90556133ae8161065c565b6133b98b8254612a73565b9055613378565b909192506133d761096161096184610cf08a61062c565b6133e18883612a73565b6040805163da02133560e01b81526004808201939093526080939192918490829060249082905afa90811561082857899460009261356f575b5050858882511580613563575b6135545791613443610961610961879694610cf08b999761062c565b9060006020825192015193613491601b998a5488519a8b9889978896637b058ac160e01b8852870193909594919260809360a086019786526020860152604085015260608401521515910152565b03925af1918215610828576000918293613532575b505087156134f3575b8082116134cb575050506134c290612d84565b90879291613309565b6134d490612d84565b6134e281610a8b855461061c565b6134ec81546129e9565b90556134af565b9190915b82811161350a575050506134c290612d84565b8061351c61352d92610a8b855461061c565b6135268154612a64565b905561327a565b6134f7565b61354c935080919250903d106127e4576127d48183611d40565b9038806134a6565b5050505050506134c290612d84565b50602083015115613427565b6135859250803d10612ccd57612cc18183611d40565b388061341a565b506132b7565b508115156132cc565b908160609103126103ff578051916040602083015192015190565b9190600460206135d0610961610961610961600354610404565b60405163af0b21d360e01b815292839182905afa908115610828576000916137aa575b5060009081908283849185985b600f8a1115806137a1575b156137955761361e6005610cf08361062c565b6001600160a01b03811661364a575b50600261363c6136449261062c565b015499612d84565b98613600565b8a151590818061378c575b8015613784575b613667575b5061362d565b93909694919792600095869861371e575b601b5460405163208bffb160e21b8152600481018d905260006024820152604481018f905260648101919091526084810189905296151560a48801526020878060c48101038160006001600160a01b038b165af194851561082857613644998e61363c9860029a6136ee996136ff575b50613a24565b939892975092949293909290613661565b6137179060203d602011610821576108128183611d40565b50386136e8565b604080516314f71a8760e11b8152979950909690816004816001600160a01b038a165afa9889156108285798613762575b5061375c8382888b6139dc565b95613678565b61377c91985060403d6040116127e4576127d48183611d40565b50963861374f565b50600061365c565b50891515613655565b50505050505050509050565b5080151561360b565b6137c3915060203d602011610821576108128183611d40565b386135f3565b929160049160206137e4610961610961610961600354610404565b60405163af0b21d360e01b815294859182905afa928315610828576000936139bb575b5060009182838491859386995b600f8b1115806139b2575b156139a5576138326005610cf08361062c565b6001600160a01b03811661385e575b5060026138506138589261062c565b01549a612d84565b99613814565b8b1515908c828061399c575b8015613993575b61387d575b5050613841565b94848a8d60009d979b969d9a959a99949990819b61391e575b601b5460405163208bffb160e21b815260048101949094526024840194909452604483019990995260648201929092526084810197909752151560a487015260208660c48160006001600160a01b038c165af194851561082857613850988f6002996138589961390a996136ff5750613a24565b97939492959196909695949992508c613876565b50604080516314f71a8760e11b8152949b509398509291508790506004816001600160a01b038b165afa801561082857898f978e928d918c9591613973575b508786829d61396b936139dc565b909192613896565b61398c915060403d6040116127e4576127d48183611d40565b503861395d565b50841515613871565b5089151561386a565b5050505050505050509050565b5080151561381f565b6139d591935060203d602011610821576108128183611d40565b9138613807565b91929082109283918215946139f4575b505050501590565b159350909183613a19575b505081613a11575b50388080806139ec565b905038613a07565b1015915038806139ff565b604080516314f71a8760e11b8152959992989697969592949391839060049082906001600160a01b03165afa908115610828576000928392613af4575b50613a6b906129e9565b8083101580613aeb575b15613a92578061310d613a8d92610a8b601b5461061c565b613a6b565b5090919293949596838311908115613ae2575b50613ab4575b50509493929190565b9550955050915050613ac583613b1c565b613ad9819593959492959693601b54612a73565b11913880613aab565b90501538613aa5565b50881515613a75565b613a6b9350613b1291925060403d81116127e4576127d48183611d40565b9290929190613a61565b60035460405163575e699560e11b8152600481019290925260a090829060249082906001600160a01b03165afa9081156108285760009182918391613b62575b50909192565b9291505060a0823d8211613ba2575b81613b7e60a09383611d40565b81010312613b9f575060408101516080606083015192015190919038613b5c565b80fd5b3d9150613b71565b613bb26144a6565b156112a857613bc033614518565b8015613d26575b1561128257613bd4612a34565b8015613d1457613bee610961610961610961600354610404565b916040518093634f5c5a2760e11b82528160046102a09687935afa93841561082857600094613ce5575b5050613c2e826000526016602052604060002090565b5460005b60078110613c41575050505050565b80613c4e60019285613db7565b51151580613cd1575b613c62575b01613c32565b613cab613c7a613c728389613db7565b515185613dd9565b613ca5613c946020613c8c868c613db7565b510151613dc8565b613c9e8589613db7565b5190613dd9565b90613dec565b613ccb613cc2876000526013602052604060002090565b613338846129e9565b55613c5c565b50613cdc8187613db7565b51511515613c57565b613d05929450803d10613d0d575b613cfd8183611d40565b810190613d3a565b913880613c18565b503d613cf3565b604051632acd142d60e21b8152600490fd5b506005546001600160a01b03163314613bc7565b6102a09081818403126103ff5782601f820112156103ff576040805193613d6085611cee565b84938301928184116103ff57935b838510613d7d57505050505090565b6060858303126103ff578251606091613d9582611cb8565b8651825260209182880151838201528588015186820152815201940193613d6e565b9060078110156130545760051b0190565b9081606402916064830403610c1e57565b81810292918115918404141715610c1e57565b8115613df6570490565b634e487b7160e01b600052601260045260246000fd5b908160209103126103ff5751610c7181611b70565b601b54806000526016602052604060002054918201809211610c1e576000526016602052604060002055565b601b54806000526017602052604060002054918201809211610c1e576000526017602052604060002055565b601b54806000526018602052604060002054918201809211610c1e576000526018602052604060002055565b601b548060005260196020526040600020549060018201809211610c1e576000526019602052604060002055565b6001600160a01b039091169052565b6140e6610140612a5292613f1b613ef98251610404565b600280546001600160a01b0319166001600160a01b0392909216919091179055565b613f4d613f2b6020830151610404565b600380546001600160a01b0319166001600160a01b0392909216919091179055565b613f7f613f5d6040830151610404565b600480546001600160a01b0319166001600160a01b0392909216919091179055565b613fb1613f8f6060830151610404565b600580546001600160a01b0319166001600160a01b0392909216919091179055565b613fe3613fc16080830151610404565b600680546001600160a01b0319166001600160a01b0392909216919091179055565b614015613ff360a0830151610404565b600780546001600160a01b0319166001600160a01b0392909216919091179055565b61404761402560c0830151610404565b600880546001600160a01b0319166001600160a01b0392909216919091179055565b61407961405760e0830151610404565b600980546001600160a01b0319166001600160a01b0392909216919091179055565b6140ac61408a610100830151610404565b600a80546001600160a01b0319166001600160a01b0392909216919091179055565b6140df6140bd610120830151610404565b600b80546001600160a01b0319166001600160a01b0392909216919091179055565b0151610404565b600c80546001600160a01b0319166001600160a01b0392909216919091179055565b60006141176109618254610404565b60408051634bf9c0ad60e11b8152929190600490602080868481875afa958615610828578596614487575b50815163cfbffe5360e01b81529181838581885afa928315610828578693614468575b50805163ab6e844f60e01b815282818681895afa90811561082857879161444b575b508151630536340960e21b8152838187818a5afa90811561082857889161442e575b50825163d1f956b160e01b815291848388818b5afa92831561082857899361440f575b508351631cc3bfab60e31b815293858589818c5afa948515610828578a956143f0575b50805163e09d394d60e01b81529686888a818d5afa9687156108285789988c986143d1575b5082516314ac1b5960e21b81529881908a90818e5afa988915610828578c996143b2575b5082519963013cf08b60e01b8b52818b8d818061425c868201906000602083019252565b03915afa9a8b15610828578d9b614393575b508351635e09dbe760e01b81529b828d8381845afa9c8d15610828578e9d614372575b508290855192838092635506ee0b60e11b82525afa9c8d15610828579c614353575b506142bc611d63565b9c6142c7908e613ed3565b8c01906142d391613ed3565b8a01906142df91613ed3565b6142ec9060608a01613ed3565b6142f99060808901613ed3565b6143069060a08801613ed3565b6143139060c08701613ed3565b6143209060e08601613ed3565b61432e906101008501613ed3565b61433c906101208401613ed3565b61434a906101408301613ed3565b612a5290613ee2565b8161436b929d508d3d10610865576108578183611d40565b9a386142b3565b83919d5061438c90823d8411610865576108578183611d40565b9c90614291565b6143ab919b50823d8411610865576108578183611d40565b993861426e565b816143ca929a503d8b11610865576108578183611d40565b9738614238565b816143e99299503d8a11610865576108578183611d40565b9638614214565b614408919550863d8811610865576108578183611d40565b93386141ef565b614427919350853d8711610865576108578183611d40565b91386141cc565b6144459150843d8611610865576108578183611d40565b386141a9565b6144629150833d8511610865576108578183611d40565b38614187565b614480919350823d8411610865576108578183611d40565b9138614165565b8161449f9297503d8811610865576108578183611d40565b9438614142565b6002546040516144ee916001600160a01b0316906144c381611cd3565b6008815267697353616665282960c01b6020820152604051916144e583611d09565b60008352614606565b908061450d575b1561074b5780602080610c7193518301019101613e0c565b5060208151146144f5565b61457260018060a01b03806002541660405191602094168483015283825261453f82611cd3565b6040519061454c82611cd3565b601582527469735365637572654261736528616464726573732960581b85830152614606565b908061458f575b1561074b5781610c719282518301019101613e0c565b5081815114614579565b600354604051610c71916001600160a01b0316906145b681611cd3565b600681526569416765282960d01b602082015260405191611fd483611d09565b3d15614601573d906145e782613178565b916145f56040519384611d40565b82523d6000602084013e565b606090565b803b1561466857600092839263ffffffff60e01b90602081519101201690614658602460405180936020820195865261464881518092602086860191016131ab565b8101036004810184520182611d40565b51915afa6146646145d6565b9091565b50505060009060405161467a81611d09565b6000815290565b929161468f91600094614606565b90806146b2575b61469d5750565b610c7191925060208082518301019101613141565b506020815114614696565b906020825192015163ffffffff60e01b9081811693600481106146df57505050565b60040360031b82901b16169150565b6001600160a01b0381161561240d57600080918351908260208601915af1906147156145d6565b911561471f575090565b80516000919060041161476a5761473691506146bd565b8151156147465750805190602001fd5b604051630870274d60e21b81526001600160e01b0319919091166004820152602490fd5b5061473656fea2646970667358221220a60dcf07e4fa13e201d9df2bbfe0f4851073fc944f5921d46a3608e84da0228d64736f6c63430008140033","linkReferences":{}},"methodIdentifiers":{"Burn(uint256)":"b90306ad","UserToId(address)":"629d671e","UserToInst(address)":"45145fd7","_ageNow()":"44668f23","_delegatorCount()":"a1f7f539","_getImplementation(address)":"c54e44b0","_isDelegatorNode(address)":"e01ad5fd","_isSafe()":"e0a9bc2b","_isSecureBase(address)":"af484526","_isSigner(address)":"1f185d16","addBusiness(uint256,address,uint256,uint256,uint256,uint256)":"dcb3fc4a","claimIncome(uint256,uint256)":"6a811244","closemdform(uint256)":"1157a849","compileRoyality(uint256,uint256[7])":"7818cdd7","createmdform(uint256,uint256)":"6b90905b","getBalance()":"12065fe0","getBatchRankCounts(uint256)":"a89d693b","getDownlineCountByLevel(uint256,uint256)":"d1e0bbc6","getEffectiveRank(address)":"1f5fa838","getHexbase()":"3b9b7955","getMoveDownline(uint256)":"13508e37","getNode(uint256)":"4f0f4aa9","getNodeChild(uint256,uint256)":"896c354a","getNodeDirectsCount(uint256)":"42cc9d57","getNodeInstStor(uint256)":"2bbae52e","getNodeParent(address)":"1bb49f02","getNodeParentId(uint256)":"849c22ad","getNodeParentwithId(address)":"4d1ec452","getNodesCount()":"61ea7208","getRoyalityAmountBatch(uint256)":"3a7b55b8","getTeamSize(uint256)":"033eeffb","getTotalTeamSizeWithLevel(address,uint256)":"fd38093b","getUserIdToInst(uint256)":"44585097","getUserIdToStor(uint256)":"2fefc0bf","getUserToInst(address)":"0e5fd00b","getUserToStor(address)":"76fe6c45","getbusiness(uint256)":"eb95c662","getjoining(uint256)":"98b3f215","getrankCount(uint256,uint256)":"80f85e33","gettotqty(uint256)":"c43792e3","getwithdrawn(uint256)":"f3ca7124","importBusiness(uint256,uint256,bool)":"70a75f50","importJoining(uint256,uint256,bool)":"ab3980b1","importOld(uint256,uint256)":"c871372b","importRankNBusiness(uint256,uint256)":"33b59a5b","importWithdrawal(uint256,uint256,bool)":"8d92a51b","isNode(uint256)":"419cb27b","isStop(address)":"cf359165","isUserExists(address)":"509222cd","join(address,address)":"b1c49079","joinImport(address,address)":"50db85d1","moveDownline(uint256)":"65d2fbd3","nodes(uint256)":"1c53c280","owner()":"8da5cb5b","setBase(address)":"be17fe62","setDefaultRankCount(uint256)":"b366335e","syncBaseAddr()":"339459a6","systemAge()":"fdc10bc9","tokenImport(uint256,uint256)":"6fb412ab","updateUsers(address,address)":"3baee0ea"},"id":27}