{"abi":[{"type":"constructor","inputs":[{"name":"_price","type":"address","internalType":"address"},{"name":"_nftinit","type":"address","internalType":"address"},{"name":"_treaseryImport","type":"address","internalType":"address"}],"stateMutability":"nonpayable"},{"type":"fallback","stateMutability":"payable"},{"type":"receive","stateMutability":"payable"},{"type":"function","name":"_nftInitializer","inputs":[],"outputs":[{"name":"","type":"address","internalType":"address"}],"stateMutability":"view"},{"type":"function","name":"addOrc1155","inputs":[{"name":"params","type":"bytes","internalType":"bytes"},{"name":"oldAddr","type":"address","internalType":"address"}],"outputs":[],"stateMutability":"nonpayable"},{"type":"function","name":"addOrc1155Prime","inputs":[{"name":"params","type":"bytes","internalType":"bytes"},{"name":"oldAddr","type":"address","internalType":"address"}],"outputs":[],"stateMutability":"nonpayable"},{"type":"function","name":"addProposer","inputs":[{"name":"_a","type":"address","internalType":"address"}],"outputs":[],"stateMutability":"nonpayable"},{"type":"function","name":"compare","inputs":[],"outputs":[{"name":"","type":"bool","internalType":"bool"}],"stateMutability":"view"},{"type":"function","name":"dao","inputs":[],"outputs":[{"name":"","type":"address","internalType":"address"}],"stateMutability":"view"},{"type":"function","name":"getProposalsCount","inputs":[],"outputs":[{"name":"","type":"uint256","internalType":"uint256"}],"stateMutability":"view"},{"type":"function","name":"in741","inputs":[],"outputs":[{"name":"","type":"address","internalType":"address"}],"stateMutability":"view"},{"type":"function","name":"in741Old","inputs":[],"outputs":[{"name":"","type":"address","internalType":"address"}],"stateMutability":"view"},{"type":"function","name":"in741Prime","inputs":[],"outputs":[{"name":"","type":"address","internalType":"address"}],"stateMutability":"view"},{"type":"function","name":"in741PrimeOld","inputs":[],"outputs":[{"name":"","type":"address","internalType":"address"}],"stateMutability":"view"},{"type":"function","name":"in741Primev3Old","inputs":[],"outputs":[{"name":"","type":"address","internalType":"address"}],"stateMutability":"view"},{"type":"function","name":"in741Rule","inputs":[],"outputs":[{"name":"","type":"address","internalType":"address"}],"stateMutability":"view"},{"type":"function","name":"in741RuleOld","inputs":[],"outputs":[{"name":"","type":"address","internalType":"address"}],"stateMutability":"view"},{"type":"function","name":"in741RulePrime","inputs":[],"outputs":[{"name":"","type":"address","internalType":"address"}],"stateMutability":"view"},{"type":"function","name":"in741RulePrimeOld","inputs":[],"outputs":[{"name":"","type":"address","internalType":"address"}],"stateMutability":"view"},{"type":"function","name":"inImportForgePrimeold","inputs":[],"outputs":[{"name":"","type":"address","internalType":"address"}],"stateMutability":"view"},{"type":"function","name":"inInstance","inputs":[],"outputs":[{"name":"","type":"address","internalType":"address"}],"stateMutability":"view"},{"type":"function","name":"inInstancePrime","inputs":[],"outputs":[{"name":"","type":"address","internalType":"address"}],"stateMutability":"view"},{"type":"function","name":"inOrc1155","inputs":[{"name":"","type":"uint256","internalType":"uint256"}],"outputs":[{"name":"","type":"address","internalType":"address"}],"stateMutability":"view"},{"type":"function","name":"inOrc1155Old","inputs":[],"outputs":[{"name":"","type":"address","internalType":"address"}],"stateMutability":"view"},{"type":"function","name":"inOrc1155OldV1","inputs":[],"outputs":[{"name":"","type":"address","internalType":"address"}],"stateMutability":"view"},{"type":"function","name":"inOrc1155Prime","inputs":[{"name":"","type":"uint256","internalType":"uint256"}],"outputs":[{"name":"","type":"address","internalType":"address"}],"stateMutability":"view"},{"type":"function","name":"inOrc1155PrimeOld","inputs":[],"outputs":[{"name":"","type":"address","internalType":"address"}],"stateMutability":"view"},{"type":"function","name":"inOrc1155PrimeOldV1","inputs":[],"outputs":[{"name":"","type":"address","internalType":"address"}],"stateMutability":"view"},{"type":"function","name":"inOrc1155machinebullold","inputs":[],"outputs":[{"name":"","type":"address","internalType":"address"}],"stateMutability":"view"},{"type":"function","name":"inPrice","inputs":[],"outputs":[{"name":"","type":"address","internalType":"address"}],"stateMutability":"view"},{"type":"function","name":"inPrimeData","inputs":[],"outputs":[{"name":"","type":"address","internalType":"address"}],"stateMutability":"view"},{"type":"function","name":"inPrimeProxy","inputs":[],"outputs":[{"name":"","type":"address","internalType":"address"}],"stateMutability":"view"},{"type":"function","name":"inTransferPrimeold","inputs":[],"outputs":[{"name":"","type":"address","internalType":"address"}],"stateMutability":"view"},{"type":"function","name":"inTransferold","inputs":[],"outputs":[{"name":"","type":"address","internalType":"address"}],"stateMutability":"view"},{"type":"function","name":"inTreaseryTVLMining","inputs":[],"outputs":[{"name":"","type":"address","internalType":"address"}],"stateMutability":"view"},{"type":"function","name":"inTreaseryTVLMiningImport","inputs":[],"outputs":[{"name":"","type":"address","internalType":"address"}],"stateMutability":"view"},{"type":"function","name":"inTreaseryTVLMiningPrime","inputs":[],"outputs":[{"name":"","type":"address","internalType":"address"}],"stateMutability":"view"},{"type":"function","name":"inTreaseryTVLReward","inputs":[],"outputs":[{"name":"","type":"address","internalType":"address"}],"stateMutability":"view"},{"type":"function","name":"inTreaseryTVLRoyality","inputs":[],"outputs":[{"name":"","type":"address","internalType":"address"}],"stateMutability":"view"},{"type":"function","name":"inTreaseryTVLTour","inputs":[],"outputs":[{"name":"","type":"address","internalType":"address"}],"stateMutability":"view"},{"type":"function","name":"infactoryold","inputs":[],"outputs":[{"name":"","type":"address","internalType":"address"}],"stateMutability":"view"},{"type":"function","name":"infactoryprimeold","inputs":[],"outputs":[{"name":"","type":"address","internalType":"address"}],"stateMutability":"view"},{"type":"function","name":"initialize","inputs":[{"name":"_insInitializer","type":"address","internalType":"address"}],"outputs":[],"stateMutability":"nonpayable"},{"type":"function","name":"insafeguard","inputs":[],"outputs":[{"name":"","type":"address","internalType":"address"}],"stateMutability":"view"},{"type":"function","name":"insafeguardPrime","inputs":[],"outputs":[{"name":"","type":"address","internalType":"address"}],"stateMutability":"view"},{"type":"function","name":"insafeguardPrimeOld","inputs":[],"outputs":[{"name":"","type":"address","internalType":"address"}],"stateMutability":"view"},{"type":"function","name":"mapOldORC1155","inputs":[{"name":"","type":"address","internalType":"address"}],"outputs":[{"name":"","type":"address","internalType":"address"}],"stateMutability":"view"},{"type":"function","name":"mapOldORC1155Prime","inputs":[{"name":"","type":"address","internalType":"address"}],"outputs":[{"name":"","type":"address","internalType":"address"}],"stateMutability":"view"},{"type":"function","name":"proposals","inputs":[{"name":"","type":"uint256","internalType":"uint256"}],"outputs":[{"name":"","type":"address","internalType":"address"}],"stateMutability":"view"},{"type":"function","name":"s1","inputs":[],"outputs":[{"name":"","type":"address","internalType":"address"}],"stateMutability":"view"},{"type":"function","name":"s2","inputs":[],"outputs":[{"name":"","type":"address","internalType":"address"}],"stateMutability":"view"},{"type":"function","name":"s3","inputs":[],"outputs":[{"name":"","type":"address","internalType":"address"}],"stateMutability":"view"},{"type":"function","name":"update741","inputs":[{"name":"addr","type":"address","internalType":"address"}],"outputs":[],"stateMutability":"nonpayable"},{"type":"function","name":"update741Old","inputs":[{"name":"addr","type":"address","internalType":"address"}],"outputs":[],"stateMutability":"nonpayable"},{"type":"function","name":"update741Prime","inputs":[{"name":"addr","type":"address","internalType":"address"}],"outputs":[],"stateMutability":"nonpayable"},{"type":"function","name":"update741PrimeOld","inputs":[{"name":"addr","type":"address","internalType":"address"}],"outputs":[],"stateMutability":"nonpayable"},{"type":"function","name":"update741Primev3Old","inputs":[{"name":"addr","type":"address","internalType":"address"}],"outputs":[],"stateMutability":"nonpayable"},{"type":"function","name":"update741Rule","inputs":[{"name":"addr","type":"address","internalType":"address"}],"outputs":[],"stateMutability":"nonpayable"},{"type":"function","name":"update741RuleOld","inputs":[{"name":"addr","type":"address","internalType":"address"}],"outputs":[],"stateMutability":"nonpayable"},{"type":"function","name":"update741RulePrime","inputs":[{"name":"addr","type":"address","internalType":"address"}],"outputs":[],"stateMutability":"nonpayable"},{"type":"function","name":"update741RulePrimeOld","inputs":[{"name":"addr","type":"address","internalType":"address"}],"outputs":[],"stateMutability":"nonpayable"},{"type":"function","name":"updateDAO","inputs":[{"name":"_dao","type":"address","internalType":"address"}],"outputs":[],"stateMutability":"nonpayable"},{"type":"function","name":"updateFactoryOld","inputs":[{"name":"addr","type":"address","internalType":"address"}],"outputs":[],"stateMutability":"nonpayable"},{"type":"function","name":"updateFactoryPrimeOld","inputs":[{"name":"addr","type":"address","internalType":"address"}],"outputs":[],"stateMutability":"nonpayable"},{"type":"function","name":"updateImportForgePrimeold","inputs":[{"name":"addr","type":"address","internalType":"address"}],"outputs":[],"stateMutability":"nonpayable"},{"type":"function","name":"updateInTransferOld","inputs":[{"name":"addr","type":"address","internalType":"address"}],"outputs":[],"stateMutability":"nonpayable"},{"type":"function","name":"updateInTransferPrimeOld","inputs":[{"name":"addr","type":"address","internalType":"address"}],"outputs":[],"stateMutability":"nonpayable"},{"type":"function","name":"updateInstance","inputs":[{"name":"addr","type":"address","internalType":"address"}],"outputs":[],"stateMutability":"nonpayable"},{"type":"function","name":"updateInstancePrime","inputs":[{"name":"addr","type":"address","internalType":"address"}],"outputs":[],"stateMutability":"nonpayable"},{"type":"function","name":"updateOrc1155","inputs":[{"name":"_o","type":"address","internalType":"address"},{"name":"oldAddr","type":"address","internalType":"address"},{"name":"idx","type":"uint256","internalType":"uint256"}],"outputs":[],"stateMutability":"nonpayable"},{"type":"function","name":"updateOrc1155MachineBullOld","inputs":[{"name":"addr","type":"address","internalType":"address"}],"outputs":[],"stateMutability":"nonpayable"},{"type":"function","name":"updateOrc1155Old","inputs":[{"name":"addr","type":"address","internalType":"address"}],"outputs":[],"stateMutability":"nonpayable"},{"type":"function","name":"updateOrc1155OldV1","inputs":[{"name":"addr","type":"address","internalType":"address"}],"outputs":[],"stateMutability":"nonpayable"},{"type":"function","name":"updateOrc1155Prime","inputs":[{"name":"_o","type":"address","internalType":"address"},{"name":"oldAddr","type":"address","internalType":"address"},{"name":"idx","type":"uint256","internalType":"uint256"}],"outputs":[],"stateMutability":"nonpayable"},{"type":"function","name":"updateOrc1155PrimeOld","inputs":[{"name":"addr","type":"address","internalType":"address"}],"outputs":[],"stateMutability":"nonpayable"},{"type":"function","name":"updateOrc1155PrimeOldV1","inputs":[{"name":"addr","type":"address","internalType":"address"}],"outputs":[],"stateMutability":"nonpayable"},{"type":"function","name":"updatePrice","inputs":[{"name":"addr","type":"address","internalType":"address"}],"outputs":[],"stateMutability":"nonpayable"},{"type":"function","name":"updatePrimeData","inputs":[{"name":"addr","type":"address","internalType":"address"}],"outputs":[],"stateMutability":"nonpayable"},{"type":"function","name":"updatePrimeProxy","inputs":[{"name":"addr","type":"address","internalType":"address"}],"outputs":[],"stateMutability":"nonpayable"},{"type":"function","name":"updateProposals","inputs":[{"name":"_a","type":"address","internalType":"address"},{"name":"idx","type":"uint256","internalType":"uint256"}],"outputs":[],"stateMutability":"nonpayable"},{"type":"function","name":"updateSafeguard","inputs":[{"name":"addr","type":"address","internalType":"address"}],"outputs":[],"stateMutability":"nonpayable"},{"type":"function","name":"updateSafeguardPrime","inputs":[{"name":"addr","type":"address","internalType":"address"}],"outputs":[],"stateMutability":"nonpayable"},{"type":"function","name":"updateSafeguardPrimeOld","inputs":[{"name":"addr","type":"address","internalType":"address"}],"outputs":[],"stateMutability":"nonpayable"},{"type":"function","name":"updateTreaseryTVLMiningImport","inputs":[{"name":"addr","type":"address","internalType":"address"}],"outputs":[],"stateMutability":"nonpayable"},{"type":"function","name":"updateTreasuryTVLMining","inputs":[{"name":"addr","type":"address","internalType":"address"}],"outputs":[],"stateMutability":"nonpayable"},{"type":"function","name":"updateTreasuryTVLMiningPrime","inputs":[{"name":"addr","type":"address","internalType":"address"}],"outputs":[],"stateMutability":"nonpayable"},{"type":"function","name":"updateTreasuryTVLReward","inputs":[{"name":"addr","type":"address","internalType":"address"}],"outputs":[],"stateMutability":"nonpayable"},{"type":"function","name":"updateTreasuryTVLRoyality","inputs":[{"name":"addr","type":"address","internalType":"address"}],"outputs":[],"stateMutability":"nonpayable"},{"type":"function","name":"updateTreasuryTVLTour","inputs":[{"name":"addr","type":"address","internalType":"address"}],"outputs":[],"stateMutability":"nonpayable"}],"bytecode":{"object":"0x6080604052600080546001600160a01b031990811673301cad03ad5f18e71e0bf6d578820c5e836201c917909155600180548216735731f74dd52839d69b2b4427ce1439431f76a2ce179055600280548216734a516f5916d53ece27c00ab5e3923872ed19f09017905560038054821690556005805482167360c95eb879eec03a0af4528a16f192e61a198f401790556006805482167308ff697696398fac0dcee979bb0f1fb7b7fc380b1790556007805482169055600880548216905560098054821673f134e58248ab8380e911d36c21e1015e5e848141179055600a805482169055600b8054821673882bf41aa8e3fad0695be39e4434af54786eb24a179055600c8054821673c0cee8b561cc4f60869776ca5b0b7a295e04f5af908117909155600d805483169055600e805483169091179055600f80548216739f33b44587a57758c1413dbab6640f6abea5cef417905560108054821673804f8004e7d361ab2a4335685d7c6893e67af7c117905560158054821673d03060e8ed7754aeed63e4e56b0457662d8164aa17905560168054821673b8193c79fc3f1d7dfaa0bae85fe3b1bff0558abb17905560178054821673951a7bbd21b4a6f49e62e040b992eed7120fcdd9179055601880548216732463fc29b8b635c4120c4fe32aadc580d1993480179055601a80548216737e2baf007a3761d33afee572a7e7a08c1499b99d908117909155601e805483167343a87925ba12b33f0e2a40da70e239775db21169179055602280548316730fda18c5b31b5417478c012837909927361143ab179055602380548316730239667fa9f2269e36f32daf2ab391dc1ad9373817905560248054831673648565deb50c503ef59860d92942eaece0c3e172179055602580548316909117905560268054821673085052532254e12989413f7c84dd32686bce74e1179055602780548216736c96f2d0c9a8b7fb472a319b1ecf7e8626c7b2ba179055602880548216739bfc2af8a5e49a72bfb58e22312ce07d61fe77391790556029805482169055602a805490911690553480156200030557600080fd5b506040516201142938038062011429833981016040819052620003289162000637565b602180546001600160a01b038086166001600160a01b031992831617909255602a8054858416908316179055601e8054928416929091169190911790556200036f62000378565b50505062000681565b306040516200038790620005c6565b6001600160a01b039091168152602001604051809103906000f080158015620003b4573d6000803e3d6000fd5b50600a80546001600160a01b0319166001600160a01b03929092169190911790556040513090620003e590620005d4565b6001600160a01b039091168152602001604051809103906000f08015801562000412573d6000803e3d6000fd5b50600d80546001600160a01b0319166001600160a01b039290921691909117905560405130906200044390620005e2565b6001600160a01b039091168152602001604051809103906000f08015801562000470573d6000803e3d6000fd5b50601a80546001600160a01b0319166001600160a01b03929092169190911790556040513090620004a190620005f0565b6001600160a01b039091168152602001604051809103906000f080158015620004ce573d6000803e3d6000fd5b50602980546001600160a01b0319166001600160a01b03929092169190911790556040513090620004ff90620005fe565b6001600160a01b039091168152602001604051809103906000f0801580156200052c573d6000803e3d6000fd5b50600360006101000a8154816001600160a01b0302191690836001600160a01b0316021790555060043060405162000564906200060c565b6001600160a01b039091168152602001604051809103906000f08015801562000591573d6000803e3d6000fd5b5081546001810183556000928352602090922090910180546001600160a01b0319166001600160a01b03909216919091179055565b61242580620042e283390190565b611fc0806200670783390190565b61126980620086c783390190565b6126fa806200993083390190565b61242b806200c02a83390190565b612fd4806200e45583390190565b80516001600160a01b03811681146200063257600080fd5b919050565b6000806000606084860312156200064d57600080fd5b62000658846200061a565b925062000668602085016200061a565b915062000678604085016200061a565b90509250925092565b613c5180620006916000396000f3fe608060405260043610620004ef5760003560e01c8063a0b8cbb81162000287578063bd811bce116200015f578063dcbd0ac811620000cb578063e7531fc0116200008d578063e7531fc01462001051578063ed15cbf71462001073578063ef140ed314620010ad578063efed51bb14620010d2578063f144dff014620010f4578063fc58f353146200111657005b8063dcbd0ac81462000f9e578063e0cf4e9e1462000fc3578063e1f4cd241462000fe8578063e2576819146200100a578063e61dfd58146200102f57005b8063cc7cf18e1162000121578063cc7cf18e1462000eb4578063cfaa1f6c1462000ed9578063cfacc0101462000f13578063cfbffe531462000f38578063d3d1b0961462000f5a578063da1be7d01462000f7c57005b8063bd811bce1462000e04578063c4549b6d1462000e26578063c4d66de81462000e48578063c5a90db11462000e6d578063c7bb7d4d1462000e8f57005b8063aa0ddc1611620001ff578063b03cd41811620001c1578063b03cd4181462000d2c578063b113bd201462000d51578063b3a86ab01462000d76578063b771c8961462000d98578063bb2458961462000dbd578063bcb6c0b51462000ddf57005b8063aa0ddc161462000c7f578063ab6e844f1462000ca1578063aeb140201462000cc3578063af0deb951462000ce8578063af2331901462000d0a57005b8063a66bcbe21162000249578063a66bcbe21462000bcf578063a7a2d5e91462000bf1578063a7acacf81462000c16578063a7d7fa501462000c38578063a9d5ae6f1462000c5a57005b8063a0b8cbb81462000b22578063a2672aa81462000b44578063a314150f1462000b69578063a5b277f21462000b8b578063a5d666a91462000bad57005b806342ac8f7911620003c75780636b4aefc611620003335780638360701d11620002f55780638360701d1462000a4c578063839a47a41462000a715780639669f18f1462000a9657806396e85ced1462000abb57806397f3815a1462000ae057806398e527d31462000b0257005b80636b4aefc614620009995780636cc014de14620009bb57806374dfe23614620009dd57806374fad9f91462000a02578063753e7d331462000a2757005b8063507aa64f1162000389578063507aa64f14620008c1578063595e1dd214620008e65780635960591e146200090b5780635ad64af1146200093057806364027427146200095257806366658584146200097457005b806342ac8f791462000811578063447aa3041462000836578063447bf0e214620008585780634588d010146200087a57806347419c41146200089f57005b80631b67970a116200046757806330125cf5116200042957806330125cf51462000738578063335ab5f2146200075a57806336c24c46146200077f5780633da0ac7914620007a45780634162169f14620007cd578063425ae7c614620007ef57005b80631b67970a146200068557806321c8267714620006aa578063236b040214620006cc57806324768d9114620006f1578063275424d0146200071357005b80630c32145a11620004b15780630c32145a14620005cc5780631162a5b114620005f1578063130fba6d14620006165780631654f331146200063b5780631a47ded5146200066057005b8063013cf08b14620004f9578063014519e6146200053b57806301c0d48b146200056057806305abae0d1462000582578063069f3e7214620005a757005b36620004f757005b005b3480156200050657600080fd5b506200051e62000518366004620023b1565b6200113b565b6040516001600160a01b0390911681526020015b60405180910390f35b3480156200054857600080fd5b50620004f76200055a366004620023e4565b62001166565b3480156200056d57600080fd5b506022546200051e906001600160a01b031681565b3480156200058f57600080fd5b50620004f7620005a1366004620023e4565b620011be565b348015620005b457600080fd5b50620004f7620005c6366004620023e4565b6200120d565b348015620005d957600080fd5b50620004f7620005eb366004620023e4565b6200125c565b348015620005fe57600080fd5b50620004f762000610366004620023e4565b620012ab565b3480156200062357600080fd5b50620004f762000635366004620023e4565b620012fa565b3480156200064857600080fd5b50620004f76200065a366004620023e4565b62001349565b3480156200066d57600080fd5b50620004f76200067f366004620023e4565b62001398565b3480156200069257600080fd5b50620004f7620006a4366004620023e4565b620013e7565b348015620006b757600080fd5b50601e546200051e906001600160a01b031681565b348015620006d957600080fd5b50620004f7620006eb366004620023e4565b62001436565b348015620006fe57600080fd5b50601d546200051e906001600160a01b031681565b3480156200072057600080fd5b50620004f762000732366004620023e4565b62001485565b3480156200074557600080fd5b50601c546200051e906001600160a01b031681565b3480156200076757600080fd5b50620004f762000779366004620023e4565b620014d4565b3480156200078c57600080fd5b50620004f76200079e366004620023e4565b62001523565b348015620007b157600080fd5b50620007bc62001572565b604051901515815260200162000532565b348015620007da57600080fd5b506003546200051e906001600160a01b031681565b348015620007fc57600080fd5b50602a546200051e906001600160a01b031681565b3480156200081e57600080fd5b50620004f762000830366004620023e4565b620015fc565b3480156200084357600080fd5b50600e546200051e906001600160a01b031681565b3480156200086557600080fd5b50600f546200051e906001600160a01b031681565b3480156200088757600080fd5b50620004f762000899366004620023e4565b6200164b565b348015620008ac57600080fd5b506015546200051e906001600160a01b031681565b348015620008ce57600080fd5b50620004f7620008e0366004620023e4565b6200169a565b348015620008f357600080fd5b506200051e62000905366004620023b1565b620016e9565b3480156200091857600080fd5b50620004f76200092a366004620023e4565b620016fa565b3480156200093d57600080fd5b506027546200051e906001600160a01b031681565b3480156200095f57600080fd5b50601b546200051e906001600160a01b031681565b3480156200098157600080fd5b50620004f762000993366004620023e4565b62001749565b348015620009a657600080fd5b50601a546200051e906001600160a01b031681565b348015620009c857600080fd5b506000546200051e906001600160a01b031681565b348015620009ea57600080fd5b50620004f7620009fc366004620023e4565b62001798565b34801562000a0f57600080fd5b50620004f762000a21366004620023e4565b620017e7565b34801562000a3457600080fd5b50620004f762000a46366004620023e4565b62001836565b34801562000a5957600080fd5b50620004f762000a6b366004620023e4565b62001885565b34801562000a7e57600080fd5b50620004f762000a90366004620023e4565b620018d4565b34801562000aa357600080fd5b50620004f762000ab5366004620023e4565b62001923565b34801562000ac857600080fd5b50620004f762000ada366004620023e4565b62001972565b34801562000aed57600080fd5b506005546200051e906001600160a01b031681565b34801562000b0f57600080fd5b5060045460405190815260200162000532565b34801562000b2f57600080fd5b506029546200051e906001600160a01b031681565b34801562000b5157600080fd5b50620004f762000b63366004620023e4565b620019c1565b34801562000b7657600080fd5b506001546200051e906001600160a01b031681565b34801562000b9857600080fd5b506026546200051e906001600160a01b031681565b34801562000bba57600080fd5b506002546200051e906001600160a01b031681565b34801562000bdc57600080fd5b50600d546200051e906001600160a01b031681565b34801562000bfe57600080fd5b50620004f762000c10366004620023e4565b62001a10565b34801562000c2357600080fd5b506017546200051e906001600160a01b031681565b34801562000c4557600080fd5b506006546200051e906001600160a01b031681565b34801562000c6757600080fd5b50620004f762000c79366004620023e4565b62001a5f565b34801562000c8c57600080fd5b506019546200051e906001600160a01b031681565b34801562000cae57600080fd5b50600c546200051e906001600160a01b031681565b34801562000cd057600080fd5b50620004f762000ce2366004620023e4565b62001aae565b34801562000cf557600080fd5b506007546200051e906001600160a01b031681565b34801562000d1757600080fd5b506020546200051e906001600160a01b031681565b34801562000d3957600080fd5b50620004f762000d4b366004620023e4565b62001afd565b34801562000d5e57600080fd5b50620004f762000d7036600462002480565b62001b7c565b34801562000d8357600080fd5b506018546200051e906001600160a01b031681565b34801562000da557600080fd5b506200051e62000db7366004620023b1565b62001bb9565b34801562000dca57600080fd5b506009546200051e906001600160a01b031681565b34801562000dec57600080fd5b50620004f762000dfe366004620023e4565b62001bca565b34801562000e1157600080fd5b506010546200051e906001600160a01b031681565b34801562000e3357600080fd5b506016546200051e906001600160a01b031681565b34801562000e5557600080fd5b50620004f762000e67366004620023e4565b62001c19565b34801562000e7a57600080fd5b506024546200051e906001600160a01b031681565b34801562000e9c57600080fd5b50620004f762000eae366004620023e4565b62001ed6565b34801562000ec157600080fd5b50620004f762000ed33660046200251f565b62001f25565b34801562000ee657600080fd5b506200051e62000ef8366004620023e4565b6013602052600090815260409020546001600160a01b031681565b34801562000f2057600080fd5b50620004f762000f32366004620023e4565b62001fb1565b34801562000f4557600080fd5b506008546200051e906001600160a01b031681565b34801562000f6757600080fd5b506021546200051e906001600160a01b031681565b34801562000f8957600080fd5b506028546200051e906001600160a01b031681565b34801562000fab57600080fd5b50620004f762000fbd36600462002480565b62002000565b34801562000fd057600080fd5b50620004f762000fe236600462002565565b62002039565b34801562000ff557600080fd5b50600a546200051e906001600160a01b031681565b3480156200101757600080fd5b50620004f762001029366004620023e4565b620020af565b3480156200103c57600080fd5b50601f546200051e906001600160a01b031681565b3480156200105e57600080fd5b506023546200051e906001600160a01b031681565b3480156200108057600080fd5b506200051e62001092366004620023e4565b6014602052600090815260409020546001600160a01b031681565b348015620010ba57600080fd5b50620004f7620010cc3660046200251f565b620020fe565b348015620010df57600080fd5b50600b546200051e906001600160a01b031681565b3480156200110157600080fd5b506025546200051e906001600160a01b031681565b3480156200112357600080fd5b50620004f762001135366004620023e4565b6200218a565b600481815481106200114c57600080fd5b6000918252602090912001546001600160a01b0316905081565b6003546001600160a01b031633146200119c5760405162461bcd60e51b8152600401620011939062002594565b60405180910390fd5b601e80546001600160a01b0319166001600160a01b0392909216919091179055565b6003546001600160a01b03163314620011eb5760405162461bcd60e51b8152600401620011939062002594565b601b80546001600160a01b0319166001600160a01b0392909216919091179055565b6003546001600160a01b031633146200123a5760405162461bcd60e51b8152600401620011939062002594565b602580546001600160a01b0319166001600160a01b0392909216919091179055565b6003546001600160a01b03163314620012895760405162461bcd60e51b8152600401620011939062002594565b601880546001600160a01b0319166001600160a01b0392909216919091179055565b6003546001600160a01b03163314620012d85760405162461bcd60e51b8152600401620011939062002594565b600580546001600160a01b0319166001600160a01b0392909216919091179055565b6003546001600160a01b03163314620013275760405162461bcd60e51b8152600401620011939062002594565b601980546001600160a01b0319166001600160a01b0392909216919091179055565b6003546001600160a01b03163314620013765760405162461bcd60e51b8152600401620011939062002594565b602880546001600160a01b0319166001600160a01b0392909216919091179055565b6003546001600160a01b03163314620013c55760405162461bcd60e51b8152600401620011939062002594565b601780546001600160a01b0319166001600160a01b0392909216919091179055565b6003546001600160a01b03163314620014145760405162461bcd60e51b8152600401620011939062002594565b601d80546001600160a01b0319166001600160a01b0392909216919091179055565b6003546001600160a01b03163314620014635760405162461bcd60e51b8152600401620011939062002594565b600e80546001600160a01b0319166001600160a01b0392909216919091179055565b6003546001600160a01b03163314620014b25760405162461bcd60e51b8152600401620011939062002594565b601f80546001600160a01b0319166001600160a01b0392909216919091179055565b6003546001600160a01b03163314620015015760405162461bcd60e51b8152600401620011939062002594565b602280546001600160a01b0319166001600160a01b0392909216919091179055565b6003546001600160a01b03163314620015505760405162461bcd60e51b8152600401620011939062002594565b601a80546001600160a01b0319166001600160a01b0392909216919091179055565b60007339fe0c8cd48856cae4913a3a5a44e1479e34542b6001600160a01b0316803b806020016040519081016040528181526000908060200190933c8051906020012073327f62630b16bc42cc55d2e856b977a353dc4b9e6001600160a01b0316803b806020016040519081016040528181526000908060200190933c8051906020012014905090565b6003546001600160a01b03163314620016295760405162461bcd60e51b8152600401620011939062002594565b602780546001600160a01b0319166001600160a01b0392909216919091179055565b6003546001600160a01b03163314620016785760405162461bcd60e51b8152600401620011939062002594565b602980546001600160a01b0319166001600160a01b0392909216919091179055565b6003546001600160a01b03163314620016c75760405162461bcd60e51b8152600401620011939062002594565b600980546001600160a01b0319166001600160a01b0392909216919091179055565b601281815481106200114c57600080fd5b6003546001600160a01b03163314620017275760405162461bcd60e51b8152600401620011939062002594565b601580546001600160a01b0319166001600160a01b0392909216919091179055565b6003546001600160a01b03163314620017765760405162461bcd60e51b8152600401620011939062002594565b600f80546001600160a01b0319166001600160a01b0392909216919091179055565b6003546001600160a01b03163314620017c55760405162461bcd60e51b8152600401620011939062002594565b600b80546001600160a01b0319166001600160a01b0392909216919091179055565b6003546001600160a01b03163314620018145760405162461bcd60e51b8152600401620011939062002594565b602380546001600160a01b0319166001600160a01b0392909216919091179055565b6003546001600160a01b03163314620018635760405162461bcd60e51b8152600401620011939062002594565b600880546001600160a01b0319166001600160a01b0392909216919091179055565b6003546001600160a01b03163314620018b25760405162461bcd60e51b8152600401620011939062002594565b601080546001600160a01b0319166001600160a01b0392909216919091179055565b6003546001600160a01b03163314620019015760405162461bcd60e51b8152600401620011939062002594565b602080546001600160a01b0319166001600160a01b0392909216919091179055565b6003546001600160a01b03163314620019505760405162461bcd60e51b8152600401620011939062002594565b600680546001600160a01b0319166001600160a01b0392909216919091179055565b6003546001600160a01b031633146200199f5760405162461bcd60e51b8152600401620011939062002594565b602180546001600160a01b0319166001600160a01b0392909216919091179055565b6003546001600160a01b03163314620019ee5760405162461bcd60e51b8152600401620011939062002594565b602480546001600160a01b0319166001600160a01b0392909216919091179055565b6003546001600160a01b0316331462001a3d5760405162461bcd60e51b8152600401620011939062002594565b601680546001600160a01b0319166001600160a01b0392909216919091179055565b6003546001600160a01b0316331462001a8c5760405162461bcd60e51b8152600401620011939062002594565b600780546001600160a01b0319166001600160a01b0392909216919091179055565b6003546001600160a01b0316331462001adb5760405162461bcd60e51b8152600401620011939062002594565b600c80546001600160a01b0319166001600160a01b0392909216919091179055565b6003546001600160a01b0316331462001b2a5760405162461bcd60e51b8152600401620011939062002594565b600480546001810182556000919091527f8a35acfbc15ff81a39ae7d344fd709f28e8600b4aa8c65c6b64bfe7fe36bd19b0180546001600160a01b0319166001600160a01b0392909216919091179055565b6003546001600160a01b0316331462001ba95760405162461bcd60e51b8152600401620011939062002594565b62001bb58282620021d9565b5050565b601181815481106200114c57600080fd5b6003546001600160a01b0316331462001bf75760405162461bcd60e51b8152600401620011939062002594565b600380546001600160a01b0319166001600160a01b0392909216919091179055565b6007546001600160a01b03161562001c745760405162461bcd60e51b815260206004820152601e60248201527f686578626173652e616c72656164792e7361666567756172645072696d650000604482015260640162001193565b602a546040805163145d523f60e01b8152905162001cfd926001600160a01b03169163145d523f9160048083019260009291908290030181865afa15801562001cc1573d6000803e3d6000fd5b505050506040513d6000823e601f3d908101601f1916820160405262001ceb9190810190620025e3565b6018546001600160a01b0316620021d9565b601260008154811062001d145762001d1462002663565b60009182526020808320909101546017546001600160a01b03908116845260149092526040832080546001600160a01b0319169183169190911790558154600154600254601280549385169592851694919091169230929062001d7b5762001d7b62002663565b6000918252602082200154602954600480546001600160a01b03938416949390921692909162001daf5762001daf62002663565b6000918252602090912001546040516001600160a01b039091169062001dd590620023a3565b6001600160a01b03978816815295871660208701529386166040860152918516606085015284166080840152831660a083015290911660c082015260e001604051809103906000f08015801562001e30573d6000803e3d6000fd5b50600780546001600160a01b0319166001600160a01b03928316179055604051634951e93160e11b8152306004820152908216906392a3d262906024016020604051808303816000875af115801562001e8d573d6000803e3d6000fd5b505050506040513d601f19601f8201168201806040525081019062001eb3919062002679565b602080546001600160a01b0319166001600160a01b039290921691909117905550565b6003546001600160a01b0316331462001f035760405162461bcd60e51b8152600401620011939062002594565b602680546001600160a01b0319166001600160a01b0392909216919091179055565b6003546001600160a01b0316331462001f525760405162461bcd60e51b8152600401620011939062002594565b826011828154811062001f695762001f6962002663565b600091825260208083209190910180546001600160a01b03199081166001600160a01b0395861617909155948316825260139052604090208054909316931692909217905550565b6003546001600160a01b0316331462001fde5760405162461bcd60e51b8152600401620011939062002594565b600a80546001600160a01b0319166001600160a01b0392909216919091179055565b6003546001600160a01b031633146200202d5760405162461bcd60e51b8152600401620011939062002594565b62001bb58282620022be565b6003546001600160a01b03163314620020665760405162461bcd60e51b8152600401620011939062002594565b81600482815481106200207d576200207d62002663565b9060005260206000200160006101000a8154816001600160a01b0302191690836001600160a01b031602179055505050565b6003546001600160a01b03163314620020dc5760405162461bcd60e51b8152600401620011939062002594565b601c80546001600160a01b0319166001600160a01b0392909216919091179055565b6003546001600160a01b031633146200212b5760405162461bcd60e51b8152600401620011939062002594565b826012828154811062002142576200214262002663565b600091825260208083209190910180546001600160a01b03199081166001600160a01b0395861617909155948316825260149052604090208054909316931692909217905550565b6003546001600160a01b03163314620021b75760405162461bcd60e51b8152600401620011939062002594565b600d80546001600160a01b0319166001600160a01b0392909216919091179055565b602a5460405163165fd13f60e01b81526000916001600160a01b03169063165fd13f906200220e903090879060040162002699565b6020604051808303816000875af11580156200222e573d6000803e3d6000fd5b505050506040513d601f19601f8201168201806040525081019062002254919062002679565b60128054600181019091557fbb8a6a4669ba250d26cd7a459eca9d215f8307e33aebe50379bc5a3617ec34440180546001600160a01b039283166001600160a01b031991821681179092559390911660009081526014602052604090208054909316179091555050565b602a5460405163165fd13f60e01b81526000916001600160a01b03169063165fd13f90620022f3903090879060040162002699565b6020604051808303816000875af115801562002313573d6000803e3d6000fd5b505050506040513d601f19601f8201168201806040525081019062002339919062002679565b60118054600181019091557f31ecc21a745e3968a04e9570e4425bc18fa8019c68028196b546d1669c200c680180546001600160a01b039283166001600160a01b031991821681179092559390911660009081526013602052604090208054909316179091555050565b61153e80620026de83390190565b600060208284031215620023c457600080fd5b5035919050565b6001600160a01b0381168114620023e157600080fd5b50565b600060208284031215620023f757600080fd5b81356200240481620023cb565b9392505050565b634e487b7160e01b600052604160045260246000fd5b604051601f8201601f1916810167ffffffffffffffff811182821017156200244d576200244d6200240b565b604052919050565b600067ffffffffffffffff8211156200247257620024726200240b565b50601f01601f191660200190565b600080604083850312156200249457600080fd5b823567ffffffffffffffff811115620024ac57600080fd5b8301601f81018513620024be57600080fd5b8035620024d5620024cf8262002455565b62002421565b818152866020838501011115620024eb57600080fd5b8160208401602083013760006020838301015280945050505060208301356200251481620023cb565b809150509250929050565b6000806000606084860312156200253557600080fd5b83356200254281620023cb565b925060208401356200255481620023cb565b929592945050506040919091013590565b600080604083850312156200257957600080fd5b82356200258681620023cb565b946020939093013593505050565b6020808252600f908201526e6f776e2e6e6f6e617574682e44414f60881b604082015260600190565b60005b83811015620025da578181015183820152602001620025c0565b50506000910152565b600060208284031215620025f657600080fd5b815167ffffffffffffffff8111156200260e57600080fd5b8201601f810184136200262057600080fd5b805162002631620024cf8262002455565b8181528560208385010111156200264757600080fd5b6200265a826020830160208601620025bd565b95945050505050565b634e487b7160e01b600052603260045260246000fd5b6000602082840312156200268c57600080fd5b81516200240481620023cb565b60018060a01b03831681526040602082015260008251806040840152620026c8816060850160208701620025bd565b601f01601f191691909101606001939250505056fe60806040526001805460ff60a01b1916600160a01b1790553480156200002457600080fd5b506040516200153e3803806200153e833981016040819052620000479162000105565b600180546001600160a01b03199081168255600080549091166001600160a01b039687161781559785168852600360209081526040808a20805460ff1990811685179091559887168a52808a2080548a1684179055968616895286892080548916831790559385168852600290935284872080548716841790559083168652838620805486168317905590911684529220805490911690911790556200019a565b80516001600160a01b03811681146200010057600080fd5b919050565b600080600080600080600060e0888a0312156200012157600080fd5b6200012c88620000e8565b96506200013c60208901620000e8565b95506200014c60408901620000e8565b94506200015c60608901620000e8565b93506200016c60808901620000e8565b92506200017c60a08901620000e8565b91506200018c60c08901620000e8565b905092959891949750929550565b61139480620001aa6000396000f3fe6080604052600436106100f65760003560e01c8063a1f7f5391161008f578063dc3163e811610061578063dc3163e8146102b0578063e01ad5fd146102d0578063e0a9bc2b146102f0578063ef9eab9d14610305578063fdc10bc91461033e57005b8063a1f7f5391461023b578063af48452614610250578063b90306ad14610270578063c54e44b01461029057005b80636a276f9d116100c85780636a276f9d146101915780637df73e27146101b057806384a8d045146101e95780638da5cb5b1461020957005b806312065fe0146100ff5780631d0c00e4146101215780631f185d161461014157806351bfd3ae1461017157005b366100fd57005b005b34801561010b57600080fd5b50475b6040519081526020015b60405180910390f35b34801561012d57600080fd5b506100fd61013c3660046111bf565b610353565b34801561014d57600080fd5b5061016161015c3660046111f8565b61041a565b6040519015158152602001610118565b34801561017d57600080fd5b5061016161018c3660046111f8565b6104ee565b34801561019d57600080fd5b50600154600160a01b900460ff16610161565b3480156101bc57600080fd5b506101616101cb3660046111f8565b6001600160a01b031660009081526003602052604090205460ff1690565b3480156101f557600080fd5b506100fd61020436600461121c565b61068a565b34801561021557600080fd5b506001546001600160a01b03165b6040516001600160a01b039091168152602001610118565b34801561024757600080fd5b5061010e61073b565b34801561025c57600080fd5b5061016161026b3660046111f8565b6108e7565b34801561027c57600080fd5b506100fd61028b366004611239565b6109a5565b34801561029c57600080fd5b506102236102ab3660046111f8565b610a69565b3480156102bc57600080fd5b506100fd6102cb3660046111bf565b610ae9565b3480156102dc57600080fd5b506101616102eb3660046111f8565b610bb4565b3480156102fc57600080fd5b50610161610e94565b34801561031157600080fd5b506101616103203660046111f8565b6001600160a01b031660009081526002602052604090205460ff1690565b34801561034a57600080fd5b5061010e610f3f565b60005460408051634162169f60e01b8152905133926001600160a01b031691634162169f9160048083019260209291908290030181865afa15801561039c573d6000803e3d6000fd5b505050506040513d601f19601f820116820180604052508101906103c09190611252565b6001600160a01b0316146103ef5760405162461bcd60e51b81526004016103e69061126f565b60405180910390fd5b6001600160a01b03919091166000908152600260205260409020805460ff1916911515919091179055565b600080546040805163af0deb9560e01b815290516104e8926001600160a01b03169163af0deb959160048083019260209291908290030181865afa158015610466573d6000803e3d6000fd5b505050506040513d601f19601f8201168201806040525081019061048a9190611252565b6040518060400160405280601181526020017069735369676e657228616464726573732960781b815250846040516020016104d491906001600160a01b0391909116815260200190565b604051602081830303815290604052610fe2565b92915050565b6000806105c960008054906101000a90046001600160a01b03166001600160a01b031663a66bcbe26040518163ffffffff1660e01b8152600401602060405180830381865afa158015610545573d6000803e3d6000fd5b505050506040513d601f19601f820116820180604052508101906105699190611252565b6040518060400160405280601381526020017255736572546f496e737428616464726573732960681b815250856040516020016105b591906001600160a01b0391909116815260200190565b604051602081830303815290604052611029565b90506000806001600160a01b0316826001600160a01b0316141590506000610624836040518060400160405280600b81526020016a697353757370656e64282960a81b81525060405180602001604052806000815250610fe2565b90506000610662846040518060400160405280600881526020016769734c6f636b282960c01b81525060405180602001604052806000815250610fe2565b905082158061068057508180156106765750805b8015610680575082155b9695505050505050565b60005460408051634162169f60e01b8152905133926001600160a01b031691634162169f9160048083019260209291908290030181865afa1580156106d3573d6000803e3d6000fd5b505050506040513d601f19601f820116820180604052508101906106f79190611252565b6001600160a01b03161461071d5760405162461bcd60e51b81526004016103e69061126f565b60018054911515600160a01b0260ff60a01b19909216919091179055565b6000806107f060008054906101000a90046001600160a01b03166001600160a01b031663e1f4cd246040518163ffffffff1660e01b8152600401602060405180830381865afa158015610792573d6000803e3d6000fd5b505050506040513d601f19601f820116820180604052508101906107b69190611252565b6040518060400160405280600c81526020016b72616e6b666f7244414f282960a01b81525060405180602001604052806000815250611064565b905060006108d360008054906101000a90046001600160a01b03166001600160a01b031663ab6e844f6040518163ffffffff1660e01b8152600401602060405180830381865afa158015610848573d6000803e3d6000fd5b505050506040513d601f19601f8201168201806040525081019061086c9190611252565b6040518060400160405280601d81526020017f67657472616e6b636f756e742875696e743235362c75696e74323536290000008152506108aa610f3f565b60408051602081019290925281018690526060015b604051602081830303815290604052611064565b90506108e0816003611298565b9250505090565b600080546040805163af0deb9560e01b815290516104e8926001600160a01b03169163af0deb959160048083019260209291908290030181865afa158015610933573d6000803e3d6000fd5b505050506040513d601f19601f820116820180604052508101906109579190611252565b6040518060400160405280601581526020017469735365637572654261736528616464726573732960581b815250846040516020016104d491906001600160a01b0391909116815260200190565b60005460408051634162169f60e01b8152905133926001600160a01b031691634162169f9160048083019260209291908290030181865afa1580156109ee573d6000803e3d6000fd5b505050506040513d601f19601f82011682018060405250810190610a129190611252565b6001600160a01b031614610a385760405162461bcd60e51b81526004016103e69061126f565b60405160009082156108fc0290839083818181858288f19350505050158015610a65573d6000803e3d6000fd5b5050565b600080826001600160a01b0316803b806020016040519081016040528181526000908060200190933c9050602d81511015610adc5760405162461bcd60e51b81526020600482015260136024820152724e6f742061206d696e696d616c2070726f787960681b60448201526064016103e6565b602a015160601c92915050565b60005460408051634162169f60e01b8152905133926001600160a01b031691634162169f9160048083019260209291908290030181865afa158015610b32573d6000803e3d6000fd5b505050506040513d601f19601f82011682018060405250810190610b569190611252565b6001600160a01b031614610b7c5760405162461bcd60e51b81526004016103e69061126f565b6001600160a01b03919091166000908152600360205260409020805460ff19169115159190911790556001805460ff60a01b19169055565b600080610c0b60008054906101000a90046001600160a01b03166001600160a01b031663e1f4cd246040518163ffffffff1660e01b8152600401602060405180830381865afa158015610792573d6000803e3d6000fd5b90506000610cd360008054906101000a90046001600160a01b03166001600160a01b031663ab6e844f6040518163ffffffff1660e01b8152600401602060405180830381865afa158015610c63573d6000803e3d6000fd5b505050506040513d601f19601f82011682018060405250810190610c879190611252565b6040518060400160405280601381526020017255736572546f496e737428616464726573732960681b815250866040516020016105b591906001600160a01b0391909116815260200190565b90506000610da560008054906101000a90046001600160a01b03166001600160a01b031663ab6e844f6040518163ffffffff1660e01b8152600401602060405180830381865afa158015610d2b573d6000803e3d6000fd5b505050506040513d601f19601f82011682018060405250810190610d4f9190611252565b6040518060400160405280601981526020017f67657445666665637469766552616e6b28616464726573732900000000000000815250846040516020016108bf91906001600160a01b0391909116815260200190565b90506000610e6960008054906101000a90046001600160a01b03166001600160a01b031663ab6e844f6040518163ffffffff1660e01b8152600401602060405180830381865afa158015610dfd573d6000803e3d6000fd5b505050506040513d601f19601f82011682018060405250810190610e219190611252565b6040518060400160405280600f81526020016e697353746f7028616464726573732960881b815250856040516020016104d491906001600160a01b0391909116815260200190565b90506001600160a01b03831615801590610e835750838210155b801561068057501595945050505050565b600080546040805163af0deb9560e01b81529051610f3a926001600160a01b03169163af0deb959160048083019260209291908290030181865afa158015610ee0573d6000803e3d6000fd5b505050506040513d601f19601f82011682018060405250810190610f049190611252565b60405180604001604052806008815260200167697353616665282960c01b81525060405180602001604052806000815250610fe2565b905090565b600080546040805163223df87160e11b81529051610f3a926001600160a01b03169163447bf0e29160048083019260209291908290030181865afa158015610f8b573d6000803e3d6000fd5b505050506040513d601f19601f82011682018060405250810190610faf9190611252565b60405180604001604052806005815260200164616765282960d81b81525060405180602001604052806000815250611064565b6000806000610ff286868661109f565b91509150818015611004575080516020145b15611020578080602001905181019061101d91906112b9565b92505b50509392505050565b600080600061103986868661109f565b9150915081801561104b575080516020145b15611020578080602001905181019061101d9190611252565b600080600061107486868661109f565b91509150818015611086575080516020145b15611020578080602001905181019061101d91906112d6565b60006060846001600160a01b03163b6000036110cd5750506040805160208101909152600080825290611191565b604080516004815260248101918290526001600160a01b038716916110f3908790611313565b60405180910390206001600160e01b0319166020820180516001600160e01b0383818316178352505050508460405160200161113092919061132f565b60408051601f198184030181529082905261114a91611313565b600060405180830381855afa9150503d8060008114611185576040519150601f19603f3d011682016040523d82523d6000602084013e61118a565b606091505b5090925090505b935093915050565b6001600160a01b03811681146111ae57600080fd5b50565b80151581146111ae57600080fd5b600080604083850312156111d257600080fd5b82356111dd81611199565b915060208301356111ed816111b1565b809150509250929050565b60006020828403121561120a57600080fd5b813561121581611199565b9392505050565b60006020828403121561122e57600080fd5b8135611215816111b1565b60006020828403121561124b57600080fd5b5035919050565b60006020828403121561126457600080fd5b815161121581611199565b6020808252600f908201526e6f776e2e6e6f6e617574682e44414f60881b604082015260600190565b808201808211156104e857634e487b7160e01b600052601160045260246000fd5b6000602082840312156112cb57600080fd5b8151611215816111b1565b6000602082840312156112e857600080fd5b5051919050565b60005b8381101561130a5781810151838201526020016112f2565b50506000910152565b600082516113258184602087016112ef565b9190910192915050565b600083516113418184602088016112ef565b8351908301906113558183602088016112ef565b0194935050505056fea26469706673582212204dbbed72c95f36f3216584264bb7ed5e11b45c6cafb78b63cc74a7d65090d03864736f6c63430008140033a264697066735822122095ccb6e35f1b10fd1e37b24225cee3000bf16cef5dfb41fa8af039928706777a64736f6c634300081400336080604052601e60165560016017556103e86018556002601955671bc16d674ec80000601a55678ac7230489e80000601b55680d8d726b7177a80000601c55670de0b6b3a7640000601d55600f601e556005601f5534801561006057600080fd5b506040516200242538038062002425833981016040819052610081916101e4565b600180546001600160a01b03199081168255600080549091166001600160a01b03939093169290921782556040805160e081018252600280825260646020808401829052838501869052600a6060808601829052608080870185905260a08088018a90526103e860c0988901819052968055600386905560048a8155600585905560069690965560078a9055600896909655875180870189526019808252818601859052605a828b0181905260b48386018190529284018c9052600991909155848055600b55600c55600d805460ff199081168b1790915588518088018a528481528086018b9052610168818b018190526101c28286018190529184018c9052600e95909555600f8b90556010949094556011939093556012805490931690981790915585519485018652908401879052938301869052928201859052928101849052918201929092528190526013556014805464ffffffffff19169055610214565b6000602082840312156101f657600080fd5b81516001600160a01b038116811461020d57600080fd5b9392505050565b61220180620002246000396000f3fe6080604052600436106102325760003560e01c80638e7ee0581161012d578063c32cfa99116100b0578063e0a9bc2b11610077578063e0a9bc2b1461073c578063edcf972114610751578063eddd0d9c14610767578063f54a77c814610787578063fc0e74d11461079d578063fdc10bc9146107b757005b8063c32cfa99146106ba578063c54e44b0146106d0578063c776fdd7146106f0578063db2d8b2614610706578063e01ad5fd1461071c57005b8063af0b21d3116100f4578063af0b21d314610625578063af4845261461063b578063b252fbe11461065b578063b85f1f8d14610670578063b90306ad1461069a57005b80638e7ee05814610590578063901ec0f7146105b0578063a1f7f539146105d0578063a371dfda146105e5578063ace71f481461060557005b806351bfd3ae116101b55780637b76180a1161017c5780637b76180a146104de57806381f00153146104fe5780638c62d0861461051e5780638da5cb5b1461053e5780638da9367f1461057057005b806351bfd3ae146103ad5780635640dbfc146103cd5780635a0e90381461044a5780635eac82251461049e5780637687e371146104be57005b8063203bab66116101f9578063203bab6614610321578063223c0f01146103415780633f43be121461036157806345e8fefd146103775780634b62954f1461038d57005b80630b225f1a1461023b57806312065fe01461026457806316f0115b1461027757806318a7d283146102db5780631f185d16146102f157005b3661023957005b005b34801561024757600080fd5b50610251601f5481565b6040519081526020015b60405180910390f35b34801561027057600080fd5b5047610251565b34801561028357600080fd5b506002546003546004546005546006546007546008546102a69695949392919087565b604080519788526020880196909652948601939093526060850191909152608084015260a083015260c082015260e00161025b565b3480156102e757600080fd5b50610251601d5481565b3480156102fd57600080fd5b5061031161030c366004611eef565b6107cc565b604051901515815260200161025b565b34801561032d57600080fd5b5061023961033c366004611f0c565b6108a0565b34801561034d57600080fd5b5061023961035c366004611f58565b6109c8565b34801561036d57600080fd5b50610251601e5481565b34801561038357600080fd5b50610251601a5481565b34801561039957600080fd5b506102396103a8366004611f71565b610a73565b3480156103b957600080fd5b506103116103c8366004611eef565b610b11565b3480156103d957600080fd5b50601354601454610413919060ff808216916101008104821691620100008204811691630100000081048216916401000000009091041686565b60408051968752941515602087015292151593850193909352151560608401529015156080830152151560a082015260c00161025b565b34801561045657600080fd5b50600954600a54600b54600c54600d54610474949392919060ff1685565b6040805195865260208601949094529284019190915260608301521515608082015260a00161025b565b3480156104aa57600080fd5b506102516104b9366004611f58565b610cad565b3480156104ca57600080fd5b506102396104d9366004611fa1565b610cc4565b3480156104ea57600080fd5b506102396104f9366004611f58565b610d6a565b34801561050a57600080fd5b50610239610519366004611f58565b610e02565b34801561052a57600080fd5b50610239610539366004611fbe565b610ead565b34801561054a57600080fd5b506001546001600160a01b03165b6040516001600160a01b03909116815260200161025b565b34801561057c57600080fd5b5061023961058b366004611f58565b610fdb565b34801561059c57600080fd5b506102396105ab366004611f58565b611073565b3480156105bc57600080fd5b506102396105cb366004612037565b61111e565b3480156105dc57600080fd5b50610251611287565b3480156105f157600080fd5b50610239610600366004611f58565b611433565b34801561061157600080fd5b50610239610620366004611f58565b6114cb565b34801561063157600080fd5b5061025160165481565b34801561064757600080fd5b50610311610656366004611eef565b611563565b34801561066757600080fd5b50610251611621565b34801561067c57600080fd5b50600e54600f54601054601154601254610474949392919060ff1685565b3480156106a657600080fd5b506102396106b5366004611f58565b611703565b3480156106c657600080fd5b5061025160185481565b3480156106dc57600080fd5b506105586106eb366004611eef565b6117c7565b3480156106fc57600080fd5b5061025160195481565b34801561071257600080fd5b50610251601c5481565b34801561072857600080fd5b50610311610737366004611eef565b611847565b34801561074857600080fd5b50610311611b27565b34801561075d57600080fd5b50610251601b5481565b34801561077357600080fd5b50610239610782366004611f58565b611bd2565b34801561079357600080fd5b5061025160175481565b3480156107a957600080fd5b506015546103119060ff1681565b3480156107c357600080fd5b50610251611c7d565b600080546040805163af0deb9560e01b8152905161089a926001600160a01b03169163af0deb959160048083019260209291908290030181865afa158015610818573d6000803e3d6000fd5b505050506040513d601f19601f8201168201806040525081019061083c919061207e565b6040518060400160405280601181526020017069735369676e657228616464726573732960781b8152508460405160200161088691906001600160a01b0391909116815260200190565b604051602081830303815290604052611d20565b92915050565b60005460408051634162169f60e01b8152905133926001600160a01b031691634162169f9160048083019260209291908290030181865afa1580156108e9573d6000803e3d6000fd5b505050506040513d601f19601f8201168201806040525081019061090d919061207e565b6001600160a01b03161461093c5760405162461bcd60e51b81526004016109339061209b565b60405180910390fd5b61097c6040518060e00160405280600081526020016000815260200160008152602001600081526020016000815260200160008152602001600081525090565b8781526020810187905260408101869052606081018590526080810184905260a0810183905260c001819052600296909655600394909455600492909255600555600655600755600855565b60005460408051634162169f60e01b8152905133926001600160a01b031691634162169f9160048083019260209291908290030181865afa158015610a11573d6000803e3d6000fd5b505050506040513d601f19601f82011682018060405250810190610a35919061207e565b6001600160a01b031614610a5b5760405162461bcd60e51b81526004016109339061209b565b610a6d81670de0b6b3a76400006120da565b601c5550565b60005460408051634162169f60e01b8152905133926001600160a01b031691634162169f9160048083019260209291908290030181865afa158015610abc573d6000803e3d6000fd5b505050506040513d601f19601f82011682018060405250810190610ae0919061207e565b6001600160a01b031614610b065760405162461bcd60e51b81526004016109339061209b565b601791909155601855565b600080610bec60008054906101000a90046001600160a01b03166001600160a01b031663a66bcbe26040518163ffffffff1660e01b8152600401602060405180830381865afa158015610b68573d6000803e3d6000fd5b505050506040513d601f19601f82011682018060405250810190610b8c919061207e565b6040518060400160405280601381526020017255736572546f496e737428616464726573732960681b81525085604051602001610bd891906001600160a01b0391909116815260200190565b604051602081830303815290604052611d67565b90506000806001600160a01b0316826001600160a01b0316141590506000610c47836040518060400160405280600b81526020016a697353757370656e64282960a81b81525060405180602001604052806000815250611d20565b90506000610c85846040518060400160405280600881526020016769734c6f636b282960c01b81525060405180602001604052806000815250611d20565b9050821580610ca35750818015610c995750805b8015610ca3575082155b9695505050505050565b601a54600090610cbd83826120da565b9392505050565b60005460408051634162169f60e01b8152905133926001600160a01b031691634162169f9160048083019260209291908290030181865afa158015610d0d573d6000803e3d6000fd5b505050506040513d601f19601f82011682018060405250810190610d31919061207e565b6001600160a01b031614610d575760405162461bcd60e51b81526004016109339061209b565b6015805460ff1916911515919091179055565b60005460408051634162169f60e01b8152905133926001600160a01b031691634162169f9160048083019260209291908290030181865afa158015610db3573d6000803e3d6000fd5b505050506040513d601f19601f82011682018060405250810190610dd7919061207e565b6001600160a01b031614610dfd5760405162461bcd60e51b81526004016109339061209b565b601955565b60005460408051634162169f60e01b8152905133926001600160a01b031691634162169f9160048083019260209291908290030181865afa158015610e4b573d6000803e3d6000fd5b505050506040513d601f19601f82011682018060405250810190610e6f919061207e565b6001600160a01b031614610e955760405162461bcd60e51b81526004016109339061209b565b610ea781670de0b6b3a76400006120da565b601d5550565b60005460408051634162169f60e01b8152905133926001600160a01b031691634162169f9160048083019260209291908290030181865afa158015610ef6573d6000803e3d6000fd5b505050506040513d601f19601f82011682018060405250810190610f1a919061207e565b6001600160a01b031614610f405760405162461bcd60e51b81526004016109339061209b565b6040805160c08101825287815295151560208701819052941515908601819052921515606086018190529115156080860181905290151560a09095018590526013959095556014805461ffff191661ff0019909416939093176101009092029190911763ffff000019166201000090910263ff00000019161763010000009093029290921764ff000000001916640100000000909102179055565b60005460408051634162169f60e01b8152905133926001600160a01b031691634162169f9160048083019260209291908290030181865afa158015611024573d6000803e3d6000fd5b505050506040513d601f19601f82011682018060405250810190611048919061207e565b6001600160a01b03161461106e5760405162461bcd60e51b81526004016109339061209b565b601f55565b60005460408051634162169f60e01b8152905133926001600160a01b031691634162169f9160048083019260209291908290030181865afa1580156110bc573d6000803e3d6000fd5b505050506040513d601f19601f820116820180604052508101906110e0919061207e565b6001600160a01b0316146111065760405162461bcd60e51b81526004016109339061209b565b61111881670de0b6b3a76400006120da565b601b5550565b60005460408051634162169f60e01b8152905133926001600160a01b031691634162169f9160048083019260209291908290030181865afa158015611167573d6000803e3d6000fd5b505050506040513d601f19601f8201168201806040525081019061118b919061207e565b6001600160a01b0316146111b15760405162461bcd60e51b81526004016109339061209b565b6111e56040518060a00160405280600081526020016000815260200160008152602001600081526020016000151581525090565b858152602081018590526040810184905260608101839052811515608082015260018790036112425780516009556020810151600a556040810151600b556060810151600c556080810151600d805460ff19169115159190911790555b8660020361127e578051600e556020810151600f556040810151601055606081015160115560808101516012805460ff19169115159190911790555b50505050505050565b60008061133c60008054906101000a90046001600160a01b03166001600160a01b031663e1f4cd246040518163ffffffff1660e01b8152600401602060405180830381865afa1580156112de573d6000803e3d6000fd5b505050506040513d601f19601f82011682018060405250810190611302919061207e565b6040518060400160405280600c81526020016b72616e6b666f7244414f282960a01b81525060405180602001604052806000815250611da2565b9050600061141f60008054906101000a90046001600160a01b03166001600160a01b031663ab6e844f6040518163ffffffff1660e01b8152600401602060405180830381865afa158015611394573d6000803e3d6000fd5b505050506040513d601f19601f820116820180604052508101906113b8919061207e565b6040518060400160405280601d81526020017f67657472616e6b636f756e742875696e743235362c75696e74323536290000008152506113f6611c7d565b60408051602081019290925281018690526060015b604051602081830303815290604052611da2565b905061142c8160036120f1565b9250505090565b60005460408051634162169f60e01b8152905133926001600160a01b031691634162169f9160048083019260209291908290030181865afa15801561147c573d6000803e3d6000fd5b505050506040513d601f19601f820116820180604052508101906114a0919061207e565b6001600160a01b0316146114c65760405162461bcd60e51b81526004016109339061209b565b601655565b60005460408051634162169f60e01b8152905133926001600160a01b031691634162169f9160048083019260209291908290030181865afa158015611514573d6000803e3d6000fd5b505050506040513d601f19601f82011682018060405250810190611538919061207e565b6001600160a01b03161461155e5760405162461bcd60e51b81526004016109339061209b565b601e55565b600080546040805163af0deb9560e01b8152905161089a926001600160a01b03169163af0deb959160048083019260209291908290030181865afa1580156115af573d6000803e3d6000fd5b505050506040513d601f19601f820116820180604052508101906115d3919061207e565b6040518060400160405280601581526020017469735365637572654261736528616464726573732960581b8152508460405160200161088691906001600160a01b0391909116815260200190565b6000806116da60008054906101000a90046001600160a01b03166001600160a01b031663d3d1b0966040518163ffffffff1660e01b8152600401602060405180830381865afa158015611678573d6000803e3d6000fd5b505050506040513d601f19601f8201168201806040525081019061169c919061207e565b60408051808201825260128152716f7a6f6e655072696365496e55534454282960701b60208083019190915282516000815290810190925290611da2565b905080601b54670de0b6b3a76400006116f391906120da565b6116fd9190612104565b91505090565b60005460408051634162169f60e01b8152905133926001600160a01b031691634162169f9160048083019260209291908290030181865afa15801561174c573d6000803e3d6000fd5b505050506040513d601f19601f82011682018060405250810190611770919061207e565b6001600160a01b0316146117965760405162461bcd60e51b81526004016109339061209b565b60405160009082156108fc0290839083818181858288f193505050501580156117c3573d6000803e3d6000fd5b5050565b600080826001600160a01b0316803b806020016040519081016040528181526000908060200190933c9050602d8151101561183a5760405162461bcd60e51b81526020600482015260136024820152724e6f742061206d696e696d616c2070726f787960681b6044820152606401610933565b602a015160601c92915050565b60008061189e60008054906101000a90046001600160a01b03166001600160a01b031663e1f4cd246040518163ffffffff1660e01b8152600401602060405180830381865afa1580156112de573d6000803e3d6000fd5b9050600061196660008054906101000a90046001600160a01b03166001600160a01b031663ab6e844f6040518163ffffffff1660e01b8152600401602060405180830381865afa1580156118f6573d6000803e3d6000fd5b505050506040513d601f19601f8201168201806040525081019061191a919061207e565b6040518060400160405280601381526020017255736572546f496e737428616464726573732960681b81525086604051602001610bd891906001600160a01b0391909116815260200190565b90506000611a3860008054906101000a90046001600160a01b03166001600160a01b031663ab6e844f6040518163ffffffff1660e01b8152600401602060405180830381865afa1580156119be573d6000803e3d6000fd5b505050506040513d601f19601f820116820180604052508101906119e2919061207e565b6040518060400160405280601981526020017f67657445666665637469766552616e6b286164647265737329000000000000008152508460405160200161140b91906001600160a01b0391909116815260200190565b90506000611afc60008054906101000a90046001600160a01b03166001600160a01b031663ab6e844f6040518163ffffffff1660e01b8152600401602060405180830381865afa158015611a90573d6000803e3d6000fd5b505050506040513d601f19601f82011682018060405250810190611ab4919061207e565b6040518060400160405280600f81526020016e697353746f7028616464726573732960881b8152508560405160200161088691906001600160a01b0391909116815260200190565b90506001600160a01b03831615801590611b165750838210155b8015610ca357501595945050505050565b600080546040805163af0deb9560e01b81529051611bcd926001600160a01b03169163af0deb959160048083019260209291908290030181865afa158015611b73573d6000803e3d6000fd5b505050506040513d601f19601f82011682018060405250810190611b97919061207e565b60405180604001604052806008815260200167697353616665282960c01b81525060405180602001604052806000815250611d20565b905090565b60005460408051634162169f60e01b8152905133926001600160a01b031691634162169f9160048083019260209291908290030181865afa158015611c1b573d6000803e3d6000fd5b505050506040513d601f19601f82011682018060405250810190611c3f919061207e565b6001600160a01b031614611c655760405162461bcd60e51b81526004016109339061209b565b611c7781670de0b6b3a76400006120da565b601a5550565b600080546040805163223df87160e11b81529051611bcd926001600160a01b03169163447bf0e29160048083019260209291908290030181865afa158015611cc9573d6000803e3d6000fd5b505050506040513d601f19601f82011682018060405250810190611ced919061207e565b60405180604001604052806005815260200164616765282960d81b81525060405180602001604052806000815250611da2565b6000806000611d30868686611ddd565b91509150818015611d42575080516020145b15611d5e5780806020019051810190611d5b9190612126565b92505b50509392505050565b6000806000611d77868686611ddd565b91509150818015611d89575080516020145b15611d5e5780806020019051810190611d5b919061207e565b6000806000611db2868686611ddd565b91509150818015611dc4575080516020145b15611d5e5780806020019051810190611d5b9190612143565b60006060846001600160a01b03163b600003611e0b5750506040805160208101909152600080825290611ecf565b604080516004815260248101918290526001600160a01b03871691611e31908790612180565b60405180910390206001600160e01b0319166020820180516001600160e01b03838183161783525050505084604051602001611e6e92919061219c565b60408051601f1981840301815290829052611e8891612180565b600060405180830381855afa9150503d8060008114611ec3576040519150601f19603f3d011682016040523d82523d6000602084013e611ec8565b606091505b5090925090505b935093915050565b6001600160a01b0381168114611eec57600080fd5b50565b600060208284031215611f0157600080fd5b8135610cbd81611ed7565b600080600080600080600060e0888a031215611f2757600080fd5b505085359760208701359750604087013596606081013596506080810135955060a0810135945060c0013592509050565b600060208284031215611f6a57600080fd5b5035919050565b60008060408385031215611f8457600080fd5b50508035926020909101359150565b8015158114611eec57600080fd5b600060208284031215611fb357600080fd5b8135610cbd81611f93565b60008060008060008060c08789031215611fd757600080fd5b863595506020870135611fe981611f93565b94506040870135611ff981611f93565b9350606087013561200981611f93565b9250608087013561201981611f93565b915060a087013561202981611f93565b809150509295509295509295565b60008060008060008060c0878903121561205057600080fd5b863595506020870135945060408701359350606087013592506080870135915060a087013561202981611f93565b60006020828403121561209057600080fd5b8151610cbd81611ed7565b6020808252600f908201526e6f776e2e6e6f6e617574682e44414f60881b604082015260600190565b634e487b7160e01b600052601160045260246000fd5b808202811582820484141761089a5761089a6120c4565b8082018082111561089a5761089a6120c4565b60008261212157634e487b7160e01b600052601260045260246000fd5b500490565b60006020828403121561213857600080fd5b8151610cbd81611f93565b60006020828403121561215557600080fd5b5051919050565b60005b8381101561217757818101518382015260200161215f565b50506000910152565b6000825161219281846020870161215c565b9190910192915050565b600083516121ae81846020880161215c565b8351908301906121c281836020880161215c565b0194935050505056fea264697066735822122055e9dfa4177efcffa1b50a56cfe4c1fe5cc4803cc86e2ea10daad66b2c00539364736f6c63430008140033608060405234801561001057600080fd5b50604051611fc0380380611fc083398101604081905261002f91610060565b600180546001600160a01b0319908116909155600080546001600160a01b0390931692909116919091179055610090565b60006020828403121561007257600080fd5b81516001600160a01b038116811461008957600080fd5b9392505050565b611f218061009f6000396000f3fe6080604052600436106101735760003560e01c8063629d671e116100c8578063b90306ad11610084578063c60c1ec611610061578063c60c1ec614610514578063e01ad5fd14610549578063e0a9bc2b14610569578063fdc10bc91461057e57005b8063b90306ad146104b4578063c4cf0e3f146104d4578063c54e44b0146104f457005b8063629d671e146103f4578063896c354a146104215780638da5cb5b14610441578063965c90e31461045f578063a1f7f5391461047f578063af4845261461049457005b806345ac4bc61161012f578063509222cd1161010c578063509222cd1461036757806351bfd3ae1461039f5780635c1d48b9146103bf57806361ea7208146103df57005b806345ac4bc6146102af57806345ca1257146102cf5780634f0f4aa9146102ff57005b806312065fe01461017c578063175724f61461019e5780631f185d16146101ce578063419cb27b146101fe57806342cc9d571461023157806345145fd71461026157005b3661017a57005b005b34801561018857600080fd5b50475b6040519081526020015b60405180910390f35b3480156101aa57600080fd5b5061018b6101b9366004611cc7565b60009081526005602052604090206002015490565b3480156101da57600080fd5b506101ee6101e9366004611cf8565b610593565b6040519015158152602001610195565b34801561020a57600080fd5b506101ee610219366004611cc7565b60009081526005602052604090206001015460ff1690565b34801561023d57600080fd5b5061018b61024c366004611cc7565b60009081526005602052604090206003015490565b34801561026d57600080fd5b5061029761027c366004611cf8565b6002602052600090815260409020546001600160a01b031681565b6040516001600160a01b039091168152602001610195565b3480156102bb57600080fd5b5061018b6102ca366004611d1c565b610667565b3480156102db57600080fd5b5061018b6102ea366004611cc7565b60009081526005602052604090206004015490565b34801561030b57600080fd5b5061034561031a366004611cc7565b6000908152600560205260409020805460028201546006830154600190930154919390929160ff1690565b6040805194855260208501939093529183015215156060820152608001610195565b34801561037357600080fd5b506101ee610382366004611cf8565b6001600160a01b0316600090815260036020526040902054151590565b3480156103ab57600080fd5b506101ee6103ba366004611cf8565b610876565b3480156103cb57600080fd5b5061017a6103da366004611cf8565b610a12565b3480156103eb57600080fd5b5060045461018b565b34801561040057600080fd5b5061018b61040f366004611cf8565b60036020526000908152604090205481565b34801561042d57600080fd5b5061018b61043c366004611d6d565b610d7d565b34801561044d57600080fd5b506001546001600160a01b0316610297565b34801561046b57600080fd5b5061029761047a366004611cc7565b610db3565b34801561048b57600080fd5b5061018b610de3565b3480156104a057600080fd5b506101ee6104af366004611cf8565b610f8f565b3480156104c057600080fd5b5061017a6104cf366004611cc7565b61104d565b3480156104e057600080fd5b5061017a6104ef366004611d8f565b611111565b34801561050057600080fd5b5061029761050f366004611cf8565b6113f2565b34801561052057600080fd5b5061053461052f366004611d6d565b611472565b60408051928352602083019190915201610195565b34801561055557600080fd5b506101ee610564366004611cf8565b6114e0565b34801561057557600080fd5b506101ee6117c0565b34801561058a57600080fd5b5061018b61186b565b600080546040805163af0deb9560e01b81529051610661926001600160a01b03169163af0deb959160048083019260209291908290030181865afa1580156105df573d6000803e3d6000fd5b505050506040513d601f19601f820116820180604052508101906106039190611dc4565b6040518060400160405280601181526020017069735369676e657228616464726573732960781b8152508460405160200161064d91906001600160a01b0391909116815260200190565b60405160208183030381529060405261190e565b92915050565b60006106716117c0565b6106b75760405162461bcd60e51b81526020600482015260126024820152716f776e2e696e76616c69642e69735361666560701b60448201526064015b60405180910390fd5b6106c033610f8f565b8061073e575060005460408051634162169f60e01b8152905133926001600160a01b031691634162169f9160048083019260209291908290030181865afa15801561070f573d6000803e3d6000fd5b505050506040513d601f19601f820116820180604052508101906107339190611dc4565b6001600160a01b0316145b61075a5760405162461bcd60e51b81526004016106ae90611de1565b6001600160a01b038316600090815260036020526040902054156107b85760405162461bcd60e51b81526020600482015260156024820152746e65737465642e616c72656164792e65786973747360581b60448201526064016106ae565b6001600160a01b03838116600081815260026020908152604080832080546001600160a01b03199081168b881617909155600480546001810182557f8a35acfbc15ff81a39ae7d344fd709f28e8600b4aa8c65c6b64bfe7fe36bd19b0180549092169095179055925460039091528282208190559288168152205461083d8183611955565b506001600160a01b0384166000908152600360209081526040808320849055838352600590915290206006018390559050949350505050565b60008061095160008054906101000a90046001600160a01b03166001600160a01b031663a66bcbe26040518163ffffffff1660e01b8152600401602060405180830381865afa1580156108cd573d6000803e3d6000fd5b505050506040513d601f19601f820116820180604052508101906108f19190611dc4565b6040518060400160405280601381526020017255736572546f496e737428616464726573732960681b8152508560405160200161093d91906001600160a01b0391909116815260200190565b604051602081830303815290604052611af7565b90506000806001600160a01b0316826001600160a01b03161415905060006109ac836040518060400160405280600b81526020016a697353757370656e64282960a81b8152506040518060200160405280600081525061190e565b905060006109ea846040518060400160405280600881526020016769734c6f636b282960c01b8152506040518060200160405280600081525061190e565b9050821580610a0857508180156109fe5750805b8015610a08575082155b9695505050505050565b60008054906101000a90046001600160a01b03166001600160a01b031663af2331906040518163ffffffff1660e01b8152600401602060405180830381865afa158015610a63573d6000803e3d6000fd5b505050506040513d601f19601f82011682018060405250810190610a879190611dc4565b6001600160a01b0316803b806020016040519081016040528181526000908060200190933c80519060200120336001600160a01b0316803b806020016040519081016040528181526000908060200190933c8051906020012014610b235760405162461bcd60e51b81526020600482015260136024820152726f776e2e756e617574682e696e7374616e636560681b60448201526064016106ae565b6000805460405163013cf08b60e01b815260048101839052610be9916001600160a01b03169063013cf08b90602401602060405180830381865afa158015610b6f573d6000803e3d6000fd5b505050506040513d601f19601f82011682018060405250810190610b939190611dc4565b6040518060400160405280601e81526020017f7265736f6c76655472616e7366657254617267657428616464726573732900008152508460405160200161093d91906001600160a01b0391909116815260200190565b90506001600160a01b038116610c415760405162461bcd60e51b815260206004820152601e60248201527f6e65737465642e757064617465557365727328307830292e6661696c6564000060448201526064016106ae565b6001600160a01b03811660009081526003602052604090205415158015610c995750816001600160a01b0316816001600160a01b03161480610c9957506001600160a01b038216600090815260036020526040902054155b610ce55760405162461bcd60e51b815260206004820152601860248201527f6e65737465642e6e6f746578697374732e696e76616c6964000000000000000060448201526064016106ae565b6001600160a01b038082166000818152600360205260408082205493861680835291209290925514610d18576000610d32565b6001600160a01b0381166000908152600360205260409020545b6001600160a01b039182166000908152600360209081526040808320939093556002905281812080546001600160a01b03199081169091559390921682529020805490911633179055565b6000828152600560205260408120600301805483908110610da057610da0611e0a565b9060005260206000200154905092915050565b600060048281548110610dc857610dc8611e0a565b6000918252602090912001546001600160a01b031692915050565b600080610e9860008054906101000a90046001600160a01b03166001600160a01b031663e1f4cd246040518163ffffffff1660e01b8152600401602060405180830381865afa158015610e3a573d6000803e3d6000fd5b505050506040513d601f19601f82011682018060405250810190610e5e9190611dc4565b6040518060400160405280600c81526020016b72616e6b666f7244414f282960a01b81525060405180602001604052806000815250611b32565b90506000610f7b60008054906101000a90046001600160a01b03166001600160a01b031663ab6e844f6040518163ffffffff1660e01b8152600401602060405180830381865afa158015610ef0573d6000803e3d6000fd5b505050506040513d601f19601f82011682018060405250810190610f149190611dc4565b6040518060400160405280601d81526020017f67657472616e6b636f756e742875696e743235362c75696e7432353629000000815250610f5261186b565b60408051602081019290925281018690526060015b604051602081830303815290604052611b32565b9050610f88816003611e20565b9250505090565b600080546040805163af0deb9560e01b81529051610661926001600160a01b03169163af0deb959160048083019260209291908290030181865afa158015610fdb573d6000803e3d6000fd5b505050506040513d601f19601f82011682018060405250810190610fff9190611dc4565b6040518060400160405280601581526020017469735365637572654261736528616464726573732960581b8152508460405160200161064d91906001600160a01b0391909116815260200190565b60005460408051634162169f60e01b8152905133926001600160a01b031691634162169f9160048083019260209291908290030181865afa158015611096573d6000803e3d6000fd5b505050506040513d601f19601f820116820180604052508101906110ba9190611dc4565b6001600160a01b0316146110e05760405162461bcd60e51b81526004016106ae90611de1565b60405160009082156108fc0290839083818181858288f1935050505015801561110d573d6000803e3d6000fd5b5050565b6111196117c0565b61115a5760405162461bcd60e51b81526020600482015260126024820152716f776e2e696e76616c69642e69735361666560701b60448201526064016106ae565b61116333610f8f565b806111e1575060005460408051634162169f60e01b8152905133926001600160a01b031691634162169f9160048083019260209291908290030181865afa1580156111b2573d6000803e3d6000fd5b505050506040513d601f19601f820116820180604052508101906111d69190611dc4565b6001600160a01b0316145b6111fd5760405162461bcd60e51b81526004016106ae90611de1565b6001600160a01b03831660009081526003602052604090205461125a5760405162461bcd60e51b81526020600482015260156024820152746e65737465642e757365722e6e6f7465786973747360581b60448201526064016106ae565b6001600160a01b03831660009081526003602090815260408083205480845260059092529091206001015460ff166112c85760405162461bcd60e51b81526020600482015260116024820152706e65737465642e6e6f742e61637469766560781b60448201526064016106ae565b600081815260056020526040812060040180548592906112ea576112ea611e0a565b9060005260206000200160008282546113039190611e20565b90915550506000818152600560208190526040822001805484929061132a5761132a611e0a565b9060005260206000200160008282546113439190611e20565b909155505060009081526005602052604090206002015480156113ec5760008181526005602052604090206004018054849190600190811061138757611387611e0a565b9060005260206000200160008282546113a09190611e20565b9091555050600081815260056020819052604090912001805483919060019081106113cd576113cd611e0a565b9060005260206000200160008282546113e69190611e20565b90915550505b50505050565b600080826001600160a01b0316803b806020016040519081016040528181526000908060200190933c9050602d815110156114655760405162461bcd60e51b81526020600482015260136024820152724e6f742061206d696e696d616c2070726f787960681b60448201526064016106ae565b602a015160601c92915050565b600082815260056020526040812060040180548291908490811061149857611498611e0a565b90600052602060002001546005600086815260200190815260200160002060050184815481106114ca576114ca611e0a565b9060005260206000200154915091509250929050565b60008061153760008054906101000a90046001600160a01b03166001600160a01b031663e1f4cd246040518163ffffffff1660e01b8152600401602060405180830381865afa158015610e3a573d6000803e3d6000fd5b905060006115ff60008054906101000a90046001600160a01b03166001600160a01b031663ab6e844f6040518163ffffffff1660e01b8152600401602060405180830381865afa15801561158f573d6000803e3d6000fd5b505050506040513d601f19601f820116820180604052508101906115b39190611dc4565b6040518060400160405280601381526020017255736572546f496e737428616464726573732960681b8152508660405160200161093d91906001600160a01b0391909116815260200190565b905060006116d160008054906101000a90046001600160a01b03166001600160a01b031663ab6e844f6040518163ffffffff1660e01b8152600401602060405180830381865afa158015611657573d6000803e3d6000fd5b505050506040513d601f19601f8201168201806040525081019061167b9190611dc4565b6040518060400160405280601981526020017f67657445666665637469766552616e6b2861646472657373290000000000000081525084604051602001610f6791906001600160a01b0391909116815260200190565b9050600061179560008054906101000a90046001600160a01b03166001600160a01b031663ab6e844f6040518163ffffffff1660e01b8152600401602060405180830381865afa158015611729573d6000803e3d6000fd5b505050506040513d601f19601f8201168201806040525081019061174d9190611dc4565b6040518060400160405280600f81526020016e697353746f7028616464726573732960881b8152508560405160200161064d91906001600160a01b0391909116815260200190565b90506001600160a01b038316158015906117af5750838210155b8015610a0857501595945050505050565b600080546040805163af0deb9560e01b81529051611866926001600160a01b03169163af0deb959160048083019260209291908290030181865afa15801561180c573d6000803e3d6000fd5b505050506040513d601f19601f820116820180604052508101906118309190611dc4565b60405180604001604052806008815260200167697353616665282960c01b8152506040518060200160405280600081525061190e565b905090565b600080546040805163223df87160e11b81529051611866926001600160a01b03169163447bf0e29160048083019260209291908290030181865afa1580156118b7573d6000803e3d6000fd5b505050506040513d601f19601f820116820180604052508101906118db9190611dc4565b60405180604001604052806005815260200164616765282960d81b81525060405180602001604052806000815250611b32565b600080600061191e868686611b6d565b91509150818015611930575080516020145b1561194c57808060200190518101906119499190611e41565b92505b50509392505050565b6119976040518060e001604052806000815260200160001515815260200160008152602001606081526020016060815260200160608152602001600081525090565b60408101839052600160208201528215611a1f5760008381526005602052604081206003015490036119fa576000838152600560208181526040832060048101805460018181018355918652838620018590559201805492830181558352822001555b6000838152600560209081526040822060030180546001810182559083529120018290555b600082815260056020908152604091829020835181558382015160018201805460ff191691151591909117905591830151600283015560608301518051849392611a70926003850192910190611c67565b5060808201518051611a8c916004840191602090910190611c67565b5060a08201518051611aa8916005840191602090910190611c67565b5060c09190910151600690910155506000818152600560208181526040832093845560048401805460018181018355918552828520018490559390910180549384018155825281209091015550565b6000806000611b07868686611b6d565b91509150818015611b19575080516020145b1561194c57808060200190518101906119499190611dc4565b6000806000611b42868686611b6d565b91509150818015611b54575080516020145b1561194c57808060200190518101906119499190611e63565b60006060846001600160a01b03163b600003611b9b5750506040805160208101909152600080825290611c5f565b604080516004815260248101918290526001600160a01b03871691611bc1908790611ea0565b60405180910390206001600160e01b0319166020820180516001600160e01b03838183161783525050505084604051602001611bfe929190611ebc565b60408051601f1981840301815290829052611c1891611ea0565b600060405180830381855afa9150503d8060008114611c53576040519150601f19603f3d011682016040523d82523d6000602084013e611c58565b606091505b5090925090505b935093915050565b828054828255906000526020600020908101928215611ca2579160200282015b82811115611ca2578251825591602001919060010190611c87565b50611cae929150611cb2565b5090565b5b80821115611cae5760008155600101611cb3565b600060208284031215611cd957600080fd5b5035919050565b6001600160a01b0381168114611cf557600080fd5b50565b600060208284031215611d0a57600080fd5b8135611d1581611ce0565b9392505050565b60008060008060808587031215611d3257600080fd5b8435611d3d81611ce0565b93506020850135611d4d81611ce0565b92506040850135611d5d81611ce0565b9396929550929360600135925050565b60008060408385031215611d8057600080fd5b50508035926020909101359150565b600080600060608486031215611da457600080fd5b8335611daf81611ce0565b95602085013595506040909401359392505050565b600060208284031215611dd657600080fd5b8151611d1581611ce0565b6020808252600f908201526e6f776e2e6e6f6e617574682e44414f60881b604082015260600190565b634e487b7160e01b600052603260045260246000fd5b8082018082111561066157634e487b7160e01b600052601160045260246000fd5b600060208284031215611e5357600080fd5b81518015158114611d1557600080fd5b600060208284031215611e7557600080fd5b5051919050565b60005b83811015611e97578181015183820152602001611e7f565b50506000910152565b60008251611eb2818460208701611e7c565b9190910192915050565b60008351611ece818460208801611e7c565b835190830190611ee2818360208801611e7c565b0194935050505056fea26469706673582212204c4be24323546fb4f100060f841e4b371c66fa23c174cf3ebecfee9f3db52b7164736f6c63430008140033608060405234801561001057600080fd5b5060405161126938038061126983398101604081905261002f91610060565b600180546001600160a01b0319908116909155600080546001600160a01b0390931692909116919091179055610090565b60006020828403121561007257600080fd5b81516001600160a01b038116811461008957600080fd5b9392505050565b6111ca8061009f6000396000f3fe6080604052600436106100a55760003560e01c8063af48452611610061578063af4845261461017a578063b90306ad1461019a578063c54e44b0146101ba578063e01ad5fd146101da578063e0a9bc2b146101fa578063fdc10bc91461020f57005b806312065fe0146100ae5780631f185d16146100d057806351bfd3ae146101005780638da5cb5b14610120578063a1f7f53914610152578063a9059cbb1461016757005b366100ac57005b005b3480156100ba57600080fd5b50475b6040519081526020015b60405180910390f35b3480156100dc57600080fd5b506100f06100eb366004611043565b610224565b60405190151581526020016100c7565b34801561010c57600080fd5b506100f061011b366004611043565b6102f8565b34801561012c57600080fd5b506001546001600160a01b03165b6040516001600160a01b0390911681526020016100c7565b34801561015e57600080fd5b506100bd610494565b6100ac610175366004611067565b610640565b34801561018657600080fd5b506100f0610195366004611043565b610822565b3480156101a657600080fd5b506100ac6101b5366004611093565b6108e0565b3480156101c657600080fd5b5061013a6101d5366004611043565b6109c6565b3480156101e657600080fd5b506100f06101f5366004611043565b610a46565b34801561020657600080fd5b506100f0610d26565b34801561021b57600080fd5b506100bd610dd1565b600080546040805163af0deb9560e01b815290516102f2926001600160a01b03169163af0deb959160048083019260209291908290030181865afa158015610270573d6000803e3d6000fd5b505050506040513d601f19601f8201168201806040525081019061029491906110ac565b6040518060400160405280601181526020017069735369676e657228616464726573732960781b815250846040516020016102de91906001600160a01b0391909116815260200190565b604051602081830303815290604052610e74565b92915050565b6000806103d360008054906101000a90046001600160a01b03166001600160a01b031663a66bcbe26040518163ffffffff1660e01b8152600401602060405180830381865afa15801561034f573d6000803e3d6000fd5b505050506040513d601f19601f8201168201806040525081019061037391906110ac565b6040518060400160405280601381526020017255736572546f496e737428616464726573732960681b815250856040516020016103bf91906001600160a01b0391909116815260200190565b604051602081830303815290604052610ebb565b90506000806001600160a01b0316826001600160a01b031614159050600061042e836040518060400160405280600b81526020016a697353757370656e64282960a81b81525060405180602001604052806000815250610e74565b9050600061046c846040518060400160405280600881526020016769734c6f636b282960c01b81525060405180602001604052806000815250610e74565b905082158061048a57508180156104805750805b801561048a575082155b9695505050505050565b60008061054960008054906101000a90046001600160a01b03166001600160a01b031663e1f4cd246040518163ffffffff1660e01b8152600401602060405180830381865afa1580156104eb573d6000803e3d6000fd5b505050506040513d601f19601f8201168201806040525081019061050f91906110ac565b6040518060400160405280600c81526020016b72616e6b666f7244414f282960a01b81525060405180602001604052806000815250610ef6565b9050600061062c60008054906101000a90046001600160a01b03166001600160a01b031663ab6e844f6040518163ffffffff1660e01b8152600401602060405180830381865afa1580156105a1573d6000803e3d6000fd5b505050506040513d601f19601f820116820180604052508101906105c591906110ac565b6040518060400160405280601d81526020017f67657472616e6b636f756e742875696e743235362c75696e7432353629000000815250610603610dd1565b60408051602081019290925281018690526060015b604051602081830303815290604052610ef6565b90506106398160036110c9565b9250505090565b816001600160a01b0381166106915760405162461bcd60e51b815260206004820152601260248201527137bbb7173232b330bab63a1739b2b73232b960711b60448201526064015b60405180910390fd5b610699610d26565b6106da5760405162461bcd60e51b81526020600482015260126024820152716f776e2e696e76616c69642e69735361666560701b6044820152606401610688565b6106e333610822565b80610761575060005460408051634162169f60e01b8152905133926001600160a01b031691634162169f9160048083019260209291908290030181865afa158015610732573d6000803e3d6000fd5b505050506040513d601f19601f8201168201806040525081019061075691906110ac565b6001600160a01b0316145b61079f5760405162461bcd60e51b815260206004820152600f60248201526e6f776e2e6e6f6e617574682e44414f60881b6044820152606401610688565b814710156107e65760405162461bcd60e51b81526020600482015260146024820152731d1c99585cd95c9e4b9b195cdccb985b5bdd5b9d60621b6044820152606401610688565b6040516001600160a01b0384169083156108fc029084906000818181858888f1935050505015801561081c573d6000803e3d6000fd5b50505050565b600080546040805163af0deb9560e01b815290516102f2926001600160a01b03169163af0deb959160048083019260209291908290030181865afa15801561086e573d6000803e3d6000fd5b505050506040513d601f19601f8201168201806040525081019061089291906110ac565b6040518060400160405280601581526020017469735365637572654261736528616464726573732960581b815250846040516020016102de91906001600160a01b0391909116815260200190565b60005460408051634162169f60e01b8152905133926001600160a01b031691634162169f9160048083019260209291908290030181865afa158015610929573d6000803e3d6000fd5b505050506040513d601f19601f8201168201806040525081019061094d91906110ac565b6001600160a01b0316146109955760405162461bcd60e51b815260206004820152600f60248201526e6f776e2e6e6f6e617574682e44414f60881b6044820152606401610688565b60405160009082156108fc0290839083818181858288f193505050501580156109c2573d6000803e3d6000fd5b5050565b600080826001600160a01b0316803b806020016040519081016040528181526000908060200190933c9050602d81511015610a395760405162461bcd60e51b81526020600482015260136024820152724e6f742061206d696e696d616c2070726f787960681b6044820152606401610688565b602a015160601c92915050565b600080610a9d60008054906101000a90046001600160a01b03166001600160a01b031663e1f4cd246040518163ffffffff1660e01b8152600401602060405180830381865afa1580156104eb573d6000803e3d6000fd5b90506000610b6560008054906101000a90046001600160a01b03166001600160a01b031663ab6e844f6040518163ffffffff1660e01b8152600401602060405180830381865afa158015610af5573d6000803e3d6000fd5b505050506040513d601f19601f82011682018060405250810190610b1991906110ac565b6040518060400160405280601381526020017255736572546f496e737428616464726573732960681b815250866040516020016103bf91906001600160a01b0391909116815260200190565b90506000610c3760008054906101000a90046001600160a01b03166001600160a01b031663ab6e844f6040518163ffffffff1660e01b8152600401602060405180830381865afa158015610bbd573d6000803e3d6000fd5b505050506040513d601f19601f82011682018060405250810190610be191906110ac565b6040518060400160405280601981526020017f67657445666665637469766552616e6b286164647265737329000000000000008152508460405160200161061891906001600160a01b0391909116815260200190565b90506000610cfb60008054906101000a90046001600160a01b03166001600160a01b031663ab6e844f6040518163ffffffff1660e01b8152600401602060405180830381865afa158015610c8f573d6000803e3d6000fd5b505050506040513d601f19601f82011682018060405250810190610cb391906110ac565b6040518060400160405280600f81526020016e697353746f7028616464726573732960881b815250856040516020016102de91906001600160a01b0391909116815260200190565b90506001600160a01b03831615801590610d155750838210155b801561048a57501595945050505050565b600080546040805163af0deb9560e01b81529051610dcc926001600160a01b03169163af0deb959160048083019260209291908290030181865afa158015610d72573d6000803e3d6000fd5b505050506040513d601f19601f82011682018060405250810190610d9691906110ac565b60405180604001604052806008815260200167697353616665282960c01b81525060405180602001604052806000815250610e74565b905090565b600080546040805163223df87160e11b81529051610dcc926001600160a01b03169163447bf0e29160048083019260209291908290030181865afa158015610e1d573d6000803e3d6000fd5b505050506040513d601f19601f82011682018060405250810190610e4191906110ac565b60405180604001604052806005815260200164616765282960d81b81525060405180602001604052806000815250610ef6565b6000806000610e84868686610f31565b91509150818015610e96575080516020145b15610eb25780806020019051810190610eaf91906110ea565b92505b50509392505050565b6000806000610ecb868686610f31565b91509150818015610edd575080516020145b15610eb25780806020019051810190610eaf91906110ac565b6000806000610f06868686610f31565b91509150818015610f18575080516020145b15610eb25780806020019051810190610eaf919061110c565b60006060846001600160a01b03163b600003610f5f5750506040805160208101909152600080825290611023565b604080516004815260248101918290526001600160a01b03871691610f85908790611149565b60405180910390206001600160e01b0319166020820180516001600160e01b03838183161783525050505084604051602001610fc2929190611165565b60408051601f1981840301815290829052610fdc91611149565b600060405180830381855afa9150503d8060008114611017576040519150601f19603f3d011682016040523d82523d6000602084013e61101c565b606091505b5090925090505b935093915050565b6001600160a01b038116811461104057600080fd5b50565b60006020828403121561105557600080fd5b81356110608161102b565b9392505050565b6000806040838503121561107a57600080fd5b82356110858161102b565b946020939093013593505050565b6000602082840312156110a557600080fd5b5035919050565b6000602082840312156110be57600080fd5b81516110608161102b565b808201808211156102f257634e487b7160e01b600052601160045260246000fd5b6000602082840312156110fc57600080fd5b8151801515811461106057600080fd5b60006020828403121561111e57600080fd5b5051919050565b60005b83811015611140578181015183820152602001611128565b50506000910152565b6000825161115b818460208701611125565b9190910192915050565b60008351611177818460208801611125565b83519083019061118b818360208801611125565b0194935050505056fea2646970667358221220b50ab094d9df6651d4674b23478cefe5613c057ddbca6105e098c3bb790a93b964736f6c6343000814003360806040523480156200001157600080fd5b50604051620026fa380380620026fa833981016040819052620000349162000066565b600180546001600160a01b0319908116909155600080546001600160a01b039093169290911691909117905562000098565b6000602082840312156200007957600080fd5b81516001600160a01b03811681146200009157600080fd5b9392505050565b61265280620000a86000396000f3fe6080604052600436106101395760003560e01c806398b3f215116100ab578063c54e44b01161006f578063c54e44b01461038c578063e01ad5fd146103ac578063e0a9bc2b146103cc578063eb95c662146103e1578063f3ca71241461040e578063fdc10bc91461043b57610140565b806398b3f215146102f55780639eb2688c14610322578063a1f7f53914610337578063af4845261461034c578063b90306ad1461036c57610140565b8063338f842d116100fd578063338f842d1461024a57806334bd99b71461025d57806351bfd3ae1461027057806363e9d8fe146102905780638da5cb5b146102a357806395f72f49146102d557610140565b806312065fe01461019857806316525834146101ba5780631f185d16146101da5780632a687c871461020a57806332ff4eab1461022a57610140565b3661014057005b7f2e2429627af5b449bfe6eeac7ed3f9f5fe0e593a5d296f73d123924e052f3dc16000356368edeb4f60e11b6001600160e01b031982160161019657600435600081815260036020908152604082205480835291f35b005b3480156101a457600080fd5b50475b6040519081526020015b60405180910390f35b3480156101c657600080fd5b506101966101d536600461236c565b610450565b3480156101e657600080fd5b506101fa6101f536600461239a565b610550565b60405190151581526020016101b1565b34801561021657600080fd5b506101966102253660046123be565b610624565b34801561023657600080fd5b506101966102453660046123be565b610718565b6101a761025836600461239a565b61080c565b61019661026b3660046123ee565b610f6f565b34801561027c57600080fd5b506101fa61028b36600461239a565b6110ef565b61019661029e366004612439565b611207565b3480156102af57600080fd5b506001546001600160a01b03165b6040516001600160a01b0390911681526020016101b1565b3480156102e157600080fd5b506101966102f03660046123be565b6113d6565b34801561030157600080fd5b506101a761031036600461236c565b60009081526004602052604090205490565b34801561032e57600080fd5b506101966114ca565b34801561034357600080fd5b506101a761169b565b34801561035857600080fd5b506101fa61036736600461239a565b611837565b34801561037857600080fd5b5061019661038736600461236c565b6118f5565b34801561039857600080fd5b506102bd6103a736600461239a565b6119b9565b3480156103b857600080fd5b506101fa6103c736600461239a565b611a39565b3480156103d857600080fd5b506101fa611d19565b3480156103ed57600080fd5b506101a76103fc36600461236c565b60009081526002602052604090205490565b34801561041a57600080fd5b506101a761042936600461236c565b60009081526003602052604090205490565b34801561044757600080fd5b506101a7611dc4565b60008054906101000a90046001600160a01b03166001600160a01b031663af2331906040518163ffffffff1660e01b8152600401602060405180830381865afa1580156104a1573d6000803e3d6000fd5b505050506040513d601f19601f820116820180604052508101906104c59190612474565b6001600160a01b0316803b806020016040519081016040528181526000908060200190933c80519060200120336001600160a01b0316803b806020016040519081016040528181526000908060200190933c80519060200120146105445760405162461bcd60e51b815260040161053b90612491565b60405180910390fd5b61054d81611e67565b50565b600080546040805163af0deb9560e01b8152905161061e926001600160a01b03169163af0deb959160048083019260209291908290030181865afa15801561059c573d6000803e3d6000fd5b505050506040513d601f19601f820116820180604052508101906105c09190612474565b6040518060400160405280601181526020017069735369676e657228616464726573732960781b8152508460405160200161060a91906001600160a01b0391909116815260200190565b604051602081830303815290604052611ead565b92915050565b61062c611d19565b6106485760405162461bcd60e51b815260040161053b906124be565b61065133611837565b806106cf575060005460408051634162169f60e01b8152905133926001600160a01b031691634162169f9160048083019260209291908290030181865afa1580156106a0573d6000803e3d6000fd5b505050506040513d601f19601f820116820180604052508101906106c49190612474565b6001600160a01b0316145b6106eb5760405162461bcd60e51b815260040161053b906124ea565b600081815260026020526040902054610705908390612529565b6000918252600260205260409091205550565b610720611d19565b61073c5760405162461bcd60e51b815260040161053b906124be565b61074533611837565b806107c3575060005460408051634162169f60e01b8152905133926001600160a01b031691634162169f9160048083019260209291908290030181865afa158015610794573d6000803e3d6000fd5b505050506040513d601f19601f820116820180604052508101906107b89190612474565b6001600160a01b0316145b6107df5760405162461bcd60e51b815260040161053b906124ea565b6000818152600460205260409020546107f9908390612529565b6000918252600460205260409091205550565b60008060009054906101000a90046001600160a01b03166001600160a01b031663af2331906040518163ffffffff1660e01b8152600401602060405180830381865afa158015610860573d6000803e3d6000fd5b505050506040513d601f19601f820116820180604052508101906108849190612474565b6001600160a01b0316803b806020016040519081016040528181526000908060200190933c80519060200120336001600160a01b0316803b806020016040519081016040528181526000908060200190933c80519060200120146108fa5760405162461bcd60e51b815260040161053b90612491565b60005460408051635335e5f160e11b815290516109b7926001600160a01b03169163a66bcbe29160048083019260209291908290030181865afa158015610945573d6000803e3d6000fd5b505050506040513d601f19601f820116820180604052508101906109699190612474565b6040518060400160405280601581526020017469735573657245786973747328616464726573732960581b8152508460405160200161060a91906001600160a01b0391909116815260200190565b156109f85760405162461bcd60e51b815260206004820152601160248201527070726f78792e757365722e65786973747360781b604482015260640161053b565b600080546040805163ab6e844f60e01b81529051610ac8926001600160a01b03169163ab6e844f9160048083019260209291908290030181865afa158015610a44573d6000803e3d6000fd5b505050506040513d601f19601f82011682018060405250810190610a689190612474565b6040518060400160405280601381526020017255736572546f496e737428616464726573732960681b81525085604051602001610ab491906001600160a01b0391909116815260200190565b604051602081830303815290604052611ef4565b90506001600160a01b038116610b205760405162461bcd60e51b815260206004820152601a60248201527f70726f78792e696e76616c69642e7374616e6461726475736572000000000000604482015260640161053b565b3415610d8657600080546040805163387d334960e21b81529051610bd8926001600160a01b03169163e1f4cd249160048083019260209291908290030181865afa158015610b72573d6000803e3d6000fd5b505050506040513d601f19601f82011682018060405250810190610b969190612474565b6040805180820182526016815275636f6d70757465416374697661746556616c7565282960501b60208083019190915282516000815290810190925290611f2f565b9050803410610d48576000546040805163c5a90db160e01b81529051610c56926001600160a01b03169163c5a90db19160048083019260209291908290030181865afa158015610c2c573d6000803e3d6000fd5b505050506040513d601f19601f82011682018060405250810190610c509190612474565b34611f6a565b6000610d408360008054906101000a90046001600160a01b03166001600160a01b031663a5b277f26040518163ffffffff1660e01b8152600401602060405180830381865afa158015610cad573d6000803e3d6000fd5b505050506040513d601f19601f82011682018060405250810190610cd19190612474565b610cdc600a4261253c565b610ce7906001612529565b6040516001600160a01b03909216602483015260448201526001606482015234608482015260a40160408051601f198184030181529190526020810180516001600160e01b0316636083c98560e11b1790526000611fa0565b905050610d84565b60405162461bcd60e51b8152602060048201526011602482015270383937bc3c973632b9b9973a30b93934b360791b604482015260640161053b565b505b6000805460408051635335e5f160e11b81529051610e40926001600160a01b03169163a66bcbe29160048083019260209291908290030181865afa158015610dd2573d6000803e3d6000fd5b505050506040513d601f19601f82011682018060405250810190610df69190612474565b604080518082018252601781527f6765744e6f64654279496e6465782875696e74323536290000000000000000006020808301919091528251600091810191909152909101610ab4565b90506000610f4660008054906101000a90046001600160a01b03166001600160a01b031663a66bcbe26040518163ffffffff1660e01b8152600401602060405180830381865afa158015610e98573d6000803e3d6000fd5b505050506040513d601f19601f82011682018060405250810190610ebc9190612474565b836001600160a01b0316876001600160a01b031614610edb5783610ede565b60005b3388610ee8611dc4565b6040516001600160a01b039485166024820152928416604484015292166064820152608481019190915260a40160408051601f198184030181529190526020810180516001600160e01b03166322d625e360e11b1790526000611fa0565b9050610f5260016120a5565b80806020019051810190610f66919061255e565b95945050505050565b60008054906101000a90046001600160a01b03166001600160a01b031663af2331906040518163ffffffff1660e01b8152600401602060405180830381865afa158015610fc0573d6000803e3d6000fd5b505050506040513d601f19601f82011682018060405250810190610fe49190612474565b6001600160a01b0316803b806020016040519081016040528181526000908060200190933c80519060200120336001600160a01b0316803b806020016040519081016040528181526000908060200190933c805190602001201461105a5760405162461bcd60e51b815260040161053b90612491565b6001600160a01b0382163160008190036110745750505050565b60405160006024820181905261270f60448301526064820152600760848201526110ce90849060a40160408051601f198184030181529190526020810180516001600160e01b0316630a3e884b60e41b1790526000611fa0565b5081156110e8576110de816120d7565b6110e83382612184565b505b505050565b60008061114660008054906101000a90046001600160a01b03166001600160a01b031663a66bcbe26040518163ffffffff1660e01b8152600401602060405180830381865afa158015610a44573d6000803e3d6000fd5b90506000806001600160a01b0316826001600160a01b03161415905060006111a1836040518060400160405280600b81526020016a697353757370656e64282960a81b81525060405180602001604052806000815250611ead565b905060006111df846040518060400160405280600881526020016769734c6f636b282960c01b81525060405180602001604052806000815250611ead565b90508215806111fd57508180156111f35750805b80156111fd575082155b9695505050505050565b60008054906101000a90046001600160a01b03166001600160a01b031663af2331906040518163ffffffff1660e01b8152600401602060405180830381865afa158015611258573d6000803e3d6000fd5b505050506040513d601f19601f8201168201806040525081019061127c9190612474565b6001600160a01b0316803b806020016040519081016040528181526000908060200190933c80519060200120336001600160a01b0316803b806020016040519081016040528181526000908060200190933c80519060200120146112f25760405162461bcd60e51b815260040161053b90612491565b82156113bd5760005460408051635335e5f160e11b815290516113bb926001600160a01b03169163a66bcbe29160048083019260209291908290030181865afa158015611343573d6000803e3d6000fd5b505050506040513d601f19601f820116820180604052508101906113679190612474565b6040516001600160a01b0387166024820152604481018690526064810185905260840160408051601f198184030181529190526020810180516001600160e01b031663c4cf0e3f60e01b1790526000611fa0565b505b80156113cd576113cd3382612184565b6110e883612240565b6113de611d19565b6113fa5760405162461bcd60e51b815260040161053b906124be565b61140333611837565b80611481575060005460408051634162169f60e01b8152905133926001600160a01b031691634162169f9160048083019260209291908290030181865afa158015611452573d6000803e3d6000fd5b505050506040513d601f19601f820116820180604052508101906114769190612474565b6001600160a01b0316145b61149d5760405162461bcd60e51b815260040161053b906124ea565b6000818152600360205260409020546114b7908390612529565b6000918252600360205260409091205550565b607f60005260046020527f5223396cf9abeb9b7dc4cfbacea4c512b02b65d83cdfbd6fd2dce335ed44bc5254156115365760405162461bcd60e51b815260206004820152601060248201526f185b1c9958591e481a5b5c1bdc9d195960821b604482015260640161053b565b607d5b611541611dc4565b811161054d576115b1734895d7c78233390eaf5a7695e38cf245a97216a76040518060400160405280601281526020017167657477697468647261776e2875696e742960701b8152508360405160200161159d91815260200190565b604051602081830303815290604052611f2f565b60008281526003602090815260409182902092909255805180820182526014815273676574627573696e6573732875696e743235362960601b81840152815192830184905261161692734895d7c78233390eaf5a7695e38cf245a97216a7920161159d565b600082815260026020908152604091829020929092558051808201825260138152726765746a6f696e696e672875696e743235362960681b81840152815192830184905261167a92734895d7c78233390eaf5a7695e38cf245a97216a7920161159d565b6000828152600460205260409020558061169381612577565b915050611539565b60008061175060008054906101000a90046001600160a01b03166001600160a01b031663e1f4cd246040518163ffffffff1660e01b8152600401602060405180830381865afa1580156116f2573d6000803e3d6000fd5b505050506040513d601f19601f820116820180604052508101906117169190612474565b6040518060400160405280600c81526020016b72616e6b666f7244414f282960a01b81525060405180602001604052806000815250611f2f565b9050600061182360008054906101000a90046001600160a01b03166001600160a01b031663ab6e844f6040518163ffffffff1660e01b8152600401602060405180830381865afa1580156117a8573d6000803e3d6000fd5b505050506040513d601f19601f820116820180604052508101906117cc9190612474565b6040518060400160405280601d81526020017f67657472616e6b636f756e742875696e743235362c75696e743235362900000081525061180a611dc4565b604080516020810192909252810186905260600161159d565b9050611830816003612529565b9250505090565b600080546040805163af0deb9560e01b8152905161061e926001600160a01b03169163af0deb959160048083019260209291908290030181865afa158015611883573d6000803e3d6000fd5b505050506040513d601f19601f820116820180604052508101906118a79190612474565b6040518060400160405280601581526020017469735365637572654261736528616464726573732960581b8152508460405160200161060a91906001600160a01b0391909116815260200190565b60005460408051634162169f60e01b8152905133926001600160a01b031691634162169f9160048083019260209291908290030181865afa15801561193e573d6000803e3d6000fd5b505050506040513d601f19601f820116820180604052508101906119629190612474565b6001600160a01b0316146119885760405162461bcd60e51b815260040161053b906124ea565b60405160009082156108fc0290839083818181858288f193505050501580156119b5573d6000803e3d6000fd5b5050565b600080826001600160a01b0316803b806020016040519081016040528181526000908060200190933c9050602d81511015611a2c5760405162461bcd60e51b81526020600482015260136024820152724e6f742061206d696e696d616c2070726f787960681b604482015260640161053b565b602a015160601c92915050565b600080611a9060008054906101000a90046001600160a01b03166001600160a01b031663e1f4cd246040518163ffffffff1660e01b8152600401602060405180830381865afa1580156116f2573d6000803e3d6000fd5b90506000611b5860008054906101000a90046001600160a01b03166001600160a01b031663ab6e844f6040518163ffffffff1660e01b8152600401602060405180830381865afa158015611ae8573d6000803e3d6000fd5b505050506040513d601f19601f82011682018060405250810190611b0c9190612474565b6040518060400160405280601381526020017255736572546f496e737428616464726573732960681b81525086604051602001610ab491906001600160a01b0391909116815260200190565b90506000611c2a60008054906101000a90046001600160a01b03166001600160a01b031663ab6e844f6040518163ffffffff1660e01b8152600401602060405180830381865afa158015611bb0573d6000803e3d6000fd5b505050506040513d601f19601f82011682018060405250810190611bd49190612474565b6040518060400160405280601981526020017f67657445666665637469766552616e6b286164647265737329000000000000008152508460405160200161159d91906001600160a01b0391909116815260200190565b90506000611cee60008054906101000a90046001600160a01b03166001600160a01b031663ab6e844f6040518163ffffffff1660e01b8152600401602060405180830381865afa158015611c82573d6000803e3d6000fd5b505050506040513d601f19601f82011682018060405250810190611ca69190612474565b6040518060400160405280600f81526020016e697353746f7028616464726573732960881b8152508560405160200161060a91906001600160a01b0391909116815260200190565b90506001600160a01b03831615801590611d085750838210155b80156111fd57501595945050505050565b600080546040805163af0deb9560e01b81529051611dbf926001600160a01b03169163af0deb959160048083019260209291908290030181865afa158015611d65573d6000803e3d6000fd5b505050506040513d601f19601f82011682018060405250810190611d899190612474565b60405180604001604052806008815260200167697353616665282960c01b81525060405180602001604052806000815250611ead565b905090565b600080546040805163223df87160e11b81529051611dbf926001600160a01b03169163447bf0e29160048083019260209291908290030181865afa158015611e10573d6000803e3d6000fd5b505050506040513d601f19601f82011682018060405250810190611e349190612474565b60405180604001604052806005815260200164616765282960d81b81525060405180602001604052806000815250611f2f565b8060036000611e74611dc4565b815260200190815260200160002054611e8d9190612529565b60036000611e99611dc4565b815260208101919091526040016000205550565b6000806000611ebd868686612272565b91509150818015611ecf575080516020145b15611eeb5780806020019051810190611ee89190612590565b92505b50509392505050565b6000806000611f04868686612272565b91509150818015611f16575080516020145b15611eeb5780806020019051810190611ee89190612474565b6000806000611f3f868686612272565b91509150818015611f51575080516020145b15611eeb5780806020019051810190611ee8919061255e565b6040516001600160a01b0383169082156108fc029083906000818181858888f193505050501580156110ea573d6000803e3d6000fd5b60606001600160a01b038416611fed5760405162461bcd60e51b81526020600482015260126024820152711bdddb8b9a5b9d985b1a590b9d185c99d95d60721b604482015260640161053b565b600080856001600160a01b0316848660405161200991906125d1565b60006040518083038185875af1925050503d8060008114612046576040519150601f19603f3d011682016040523d82523d6000602084013e61204b565b606091505b509150915081610f665780511561206457805181602001fd5b60405162461bcd60e51b81526020600482015260166024820152751bdddb8b9d185c99d95d0b98d85b1b0b99985a5b195960521b604482015260640161053b565b80600460006120b2611dc4565b8152602001908152602001600020546120cb9190612529565b60046000611e99611dc4565b600054604080516321c8267760e01b815290516119b5926001600160a01b0316916321c826779160048083019260209291908290030181865afa158015612122573d6000803e3d6000fd5b505050506040513d601f19601f820116820180604052508101906121469190612474565b6040516024810184905260440160408051601f198184030181529190526020810180516001600160e01b0316632559614b60e21b1790526000611fa0565b600054604080516335a577e360e11b815290516110ea926001600160a01b031691636b4aefc69160048083019260209291908290030181865afa1580156121cf573d6000803e3d6000fd5b505050506040513d601f19601f820116820180604052508101906121f39190612474565b6040516001600160a01b03851660248201526044810184905260640160408051601f198184030181529190526020810180516001600160e01b031663a9059cbb60e01b1790526000611fa0565b806002600061224d611dc4565b8152602001908152602001600020546122669190612529565b60026000611e99611dc4565b60006060846001600160a01b03163b6000036122a05750506040805160208101909152600080825290612364565b604080516004815260248101918290526001600160a01b038716916122c69087906125d1565b60405180910390206001600160e01b0319166020820180516001600160e01b038381831617835250505050846040516020016123039291906125ed565b60408051601f198184030181529082905261231d916125d1565b600060405180830381855afa9150503d8060008114612358576040519150601f19603f3d011682016040523d82523d6000602084013e61235d565b606091505b5090925090505b935093915050565b60006020828403121561237e57600080fd5b5035919050565b6001600160a01b038116811461054d57600080fd5b6000602082840312156123ac57600080fd5b81356123b781612385565b9392505050565b600080604083850312156123d157600080fd5b50508035926020909101359150565b801515811461054d57600080fd5b60008060006060848603121561240357600080fd5b833561240e81612385565b9250602084013561241e81612385565b9150604084013561242e816123e0565b809150509250925092565b6000806000806080858703121561244f57600080fd5b843561245a81612385565b966020860135965060408601359560600135945092505050565b60006020828403121561248657600080fd5b81516123b781612385565b6020808252601390820152726f776e2e756e617574682e696e7374616e636560681b604082015260600190565b6020808252601290820152716f776e2e696e76616c69642e69735361666560701b604082015260600190565b6020808252600f908201526e6f776e2e6e6f6e617574682e44414f60881b604082015260600190565b634e487b7160e01b600052601160045260246000fd5b8082018082111561061e5761061e612513565b60008261255957634e487b7160e01b600052601260045260246000fd5b500690565b60006020828403121561257057600080fd5b5051919050565b60006001820161258957612589612513565b5060010190565b6000602082840312156125a257600080fd5b81516123b7816123e0565b60005b838110156125c85781810151838201526020016125b0565b50506000910152565b600082516125e38184602087016125ad565b9190910192915050565b600083516125ff8184602088016125ad565b8351908301906126138183602088016125ad565b0194935050505056fea2646970667358221220f8ee6292e0c06e180908960707bb04a754ebdcfc7de4f7c685496afa48ab4dd164736f6c634300081400336080604052603360035534801561001557600080fd5b506040516200242b3803806200242b83398101604081905261003691610067565b600180546001600160a01b0319908116909155600080546001600160a01b0390931692909116919091179055610097565b60006020828403121561007957600080fd5b81516001600160a01b038116811461009057600080fd5b9392505050565b61238480620000a76000396000f3fe6080604052600436106101385760003560e01c8063a1f7f539116100b0578063d3a308491161006c578063d3a30849146103e2578063dbac26e914610402578063df49ed7c14610432578063e01ad5fd14610452578063e0a9bc2b14610472578063fdc10bc91461048757005b8063a1f7f5391461031c578063af48452614610331578063b90306ad14610351578063c54e44b014610371578063c7f758a814610391578063c9d27afe146103c257005b806351bfd3ae116100ff57806351bfd3ae1461022d578063604ff4b11461024d57806365153c4b1461026d5780638da5cb5b1461028d57806398e527d3146102bf578063995e4339146102d457005b8063013cf08b1461014157806312065fe0146101815780631f185d161461019e5780633595df1a146101ce578063438596321461020d57005b3661013f57005b005b34801561014d57600080fd5b5061016161015c366004611dd4565b61049c565b6040516101789b9a99989796959493929190611e3d565b60405180910390f35b34801561018d57600080fd5b50475b604051908152602001610178565b3480156101aa57600080fd5b506101be6101b9366004611eda565b610634565b6040519015158152602001610178565b3480156101da57600080fd5b506101ee6101e9366004611dd4565b610708565b6040805193151584529115156020840152151590820152606001610178565b34801561021957600080fd5b506101be610228366004611efe565b610756565b34801561023957600080fd5b506101be610248366004611eda565b6107ab565b34801561025957600080fd5b5061013f610268366004611dd4565b610947565b34801561027957600080fd5b5061013f610288366004611f3c565b6109d9565b34801561029957600080fd5b506001546001600160a01b03165b6040516001600160a01b039091168152602001610178565b3480156102cb57600080fd5b50600454610190565b3480156102e057600080fd5b506102f46102ef366004611dd4565b610b24565b604080519586526020860194909452928401919091526060830152608082015260a001610178565b34801561032857600080fd5b50610190610b85565b34801561033d57600080fd5b506101be61034c366004611eda565b610d31565b34801561035d57600080fd5b5061013f61036c366004611dd4565b610def565b34801561037d57600080fd5b506102a761038c366004611eda565b610ed5565b34801561039d57600080fd5b506103b16103ac366004611dd4565b610f55565b604051610178959493929190611f61565b3480156103ce57600080fd5b5061013f6103dd366004611f3c565b611056565b3480156103ee57600080fd5b506101906103fd366004611ff0565b611366565b34801561040e57600080fd5b506101be61041d366004611eda565b60026020526000908152604090205460ff1681565b34801561043e57600080fd5b5061013f61044d366004612087565b6113d3565b34801561045e57600080fd5b506101be61046d366004611eda565b611486565b34801561047e57600080fd5b506101be611766565b34801561049357600080fd5b50610190611811565b600481815481106104ac57600080fd5b90600052602060002090600b02016000915090508060000180546104cf906120b5565b80601f01602080910402602001604051908101604052809291908181526020018280546104fb906120b5565b80156105485780601f1061051d57610100808354040283529160200191610548565b820191906000526020600020905b81548152906001019060200180831161052b57829003601f168201915b505050506001830154600284015460038501805494956001600160a01b039093169491935090610577906120b5565b80601f01602080910402602001604051908101604052809291908181526020018280546105a3906120b5565b80156105f05780601f106105c5576101008083540402835291602001916105f0565b820191906000526020600020905b8154815290600101906020018083116105d357829003601f168201915b5050505060048301546005840154600685015460078601546008870154600a90970154959693959294509092909160ff81169061010090046001600160a01b03168b565b600080546040805163af0deb9560e01b81529051610702926001600160a01b03169163af0deb959160048083019260209291908290030181865afa158015610680573d6000803e3d6000fd5b505050506040513d601f19601f820116820180604052508101906106a491906120ef565b6040518060400160405280601181526020017069735369676e657228616464726573732960781b815250846040516020016106ee91906001600160a01b0391909116815260200190565b6040516020818303038152906040526118b4565b92915050565b6000808080600461071a600187612122565b8154811061072a5761072a612135565b60009182526020909120600b909102016005015460018114966002821496506003909114945092505050565b6000806004610766600186612122565b8154811061077657610776612135565b600091825260208083206001600160a01b03871684526009600b90930201919091019052604090205460ff1691505092915050565b60008061088660008054906101000a90046001600160a01b03166001600160a01b031663a66bcbe26040518163ffffffff1660e01b8152600401602060405180830381865afa158015610802573d6000803e3d6000fd5b505050506040513d601f19601f8201168201806040525081019061082691906120ef565b6040518060400160405280601381526020017255736572546f496e737428616464726573732960681b8152508560405160200161087291906001600160a01b0391909116815260200190565b6040516020818303038152906040526118fb565b90506000806001600160a01b0316826001600160a01b03161415905060006108e1836040518060400160405280600b81526020016a697353757370656e64282960a81b815250604051806020016040528060008152506118b4565b9050600061091f846040518060400160405280600881526020016769734c6f636b282960c01b815250604051806020016040528060008152506118b4565b905082158061093d57508180156109335750805b801561093d575082155b9695505050505050565b61094f611766565b6109955760405162461bcd60e51b81526020600482015260126024820152716f776e2e696e76616c69642e69735361666560701b60448201526064015b60405180910390fd5b3033146109d45760405162461bcd60e51b815260206004820152600d60248201526c6f776e2e66616b652e636f726560981b604482015260640161098c565b600355565b6109e233610634565b610a235760405162461bcd60e51b815260206004820152601260248201527137bbb71734b73b30b634b21739b4b3b732b960711b604482015260640161098c565b60006004610a32600185612122565b81548110610a4257610a42612135565b60009182526020909120600b90910201600a81015490915060ff16610a9d5760405162461bcd60e51b815260206004820152601160248201527019185bcb9c1c9bdc0b9b9bdd195e1a5cdd607a1b604482015260640161098c565b80600801548160040154101580610abf57508060070154610abc611811565b10155b610b015760405162461bcd60e51b815260206004820152601360248201527264616f2e6265666f72652e646561646c696e6560681b604482015260640161098c565b6002816005015410158015610b135750815b9150610b1f8383611936565b505050565b600080808080806004610b38600189612122565b81548110610b4857610b48612135565b90600052602060002090600b0201905080600401548160060154826007015483600801548460050154955095509550955095505091939590929450565b600080610c3a60008054906101000a90046001600160a01b03166001600160a01b031663e1f4cd246040518163ffffffff1660e01b8152600401602060405180830381865afa158015610bdc573d6000803e3d6000fd5b505050506040513d601f19601f82011682018060405250810190610c0091906120ef565b6040518060400160405280600c81526020016b72616e6b666f7244414f282960a01b81525060405180602001604052806000815250611aa9565b90506000610d1d60008054906101000a90046001600160a01b03166001600160a01b031663ab6e844f6040518163ffffffff1660e01b8152600401602060405180830381865afa158015610c92573d6000803e3d6000fd5b505050506040513d601f19601f82011682018060405250810190610cb691906120ef565b6040518060400160405280601d81526020017f67657472616e6b636f756e742875696e743235362c75696e7432353629000000815250610cf4611811565b60408051602081019290925281018690526060015b604051602081830303815290604052611aa9565b9050610d2a81600361214b565b9250505090565b600080546040805163af0deb9560e01b81529051610702926001600160a01b03169163af0deb959160048083019260209291908290030181865afa158015610d7d573d6000803e3d6000fd5b505050506040513d601f19601f82011682018060405250810190610da191906120ef565b6040518060400160405280601581526020017469735365637572654261736528616464726573732960581b815250846040516020016106ee91906001600160a01b0391909116815260200190565b60005460408051634162169f60e01b8152905133926001600160a01b031691634162169f9160048083019260209291908290030181865afa158015610e38573d6000803e3d6000fd5b505050506040513d601f19601f82011682018060405250810190610e5c91906120ef565b6001600160a01b031614610ea45760405162461bcd60e51b815260206004820152600f60248201526e6f776e2e6e6f6e617574682e44414f60881b604482015260640161098c565b60405160009082156108fc0290839083818181858288f19350505050158015610ed1573d6000803e3d6000fd5b5050565b600080826001600160a01b0316803b806020016040519081016040528181526000908060200190933c9050602d81511015610f485760405162461bcd60e51b81526020600482015260136024820152724e6f742061206d696e696d616c2070726f787960681b604482015260640161098c565b602a015160601c92915050565b60606000808080806004610f6a600189612122565b81548110610f7a57610f7a612135565b60009182526020909120600b9091020160018101546002820154600a830154835493945084936001600160a01b03938416936101008304169160ff16908590610fc2906120b5565b80601f0160208091040260200160405190810160405280929190818152602001828054610fee906120b5565b801561103b5780601f106110105761010080835404028352916020019161103b565b820191906000526020600020905b81548152906001019060200180831161101e57829003601f168201915b50505050509450955095509550955095505091939590929450565b600061106133610634565b9050600061106d611766565b9050600061107a33611486565b905082806110855750815b8015611095575082806110955750805b6110da5760405162461bcd60e51b81526020600482015260166024820152756f776e2e6e6f6e617574682e64656c656761746f727360501b604482015260640161098c565b3360009081526002602052604090205460ff161561112e5760405162461bcd60e51b815260206004820152601160248201527019185bcb9d5b985d5d1a0b99985a5b1959607a1b604482015260640161098c565b6000600461113d600188612122565b8154811061114d5761114d612135565b60009182526020909120600b90910201600a81015490915060ff166111a85760405162461bcd60e51b815260206004820152601160248201527019185bcb9c1c9bdc0b9b9bdd195e1a5cdd607a1b604482015260640161098c565b6111b0611811565b816007015410156111f65760405162461bcd60e51b815260206004820152601060248201526f19185bcb9d9bdd1a5b99cb995b99195960821b604482015260640161098c565b60038160050154106112425760405162461bcd60e51b815260206004820152601560248201527419185bcb985b1c9958591e4b98dbdb5c1b195d1959605a1b604482015260640161098c565b33600090815260098201602052604090205460ff16156112985760405162461bcd60e51b815260206004820152601160248201527019185bcb985b1c9958591e4b9d9bdd1959607a1b604482015260640161098c565b846112a45760006112a7565b60015b60ff168160040160008282546112bd919061214b565b909155505084156112cf5760006112d2565b60015b60ff168160060160008282546112e8919061214b565b90915550503360008181526009830160205260409020805460ff1916600117905561131290610634565b1561135e576005810180549060006113298361215e565b919050555084158061133f575080600501546002145b1561135e5761135e86826005015460021480156113595750865b611936565b505050505050565b6000856001600160a01b0381166113b45760405162461bcd60e51b815260206004820152601260248201527137bbb7173232b330bab63a1739b2b73232b960711b604482015260640161098c565b6113c389898989898989611ae4565b5050600454979650505050505050565b6113db611766565b61141c5760405162461bcd60e51b81526020600482015260126024820152716f776e2e696e76616c69642e69735361666560701b604482015260640161098c565b30331461145b5760405162461bcd60e51b815260206004820152600d60248201526c6f776e2e66616b652e636f726560981b604482015260640161098c565b6001600160a01b03919091166000908152600260205260409020805460ff1916911515919091179055565b6000806114dd60008054906101000a90046001600160a01b03166001600160a01b031663e1f4cd246040518163ffffffff1660e01b8152600401602060405180830381865afa158015610bdc573d6000803e3d6000fd5b905060006115a560008054906101000a90046001600160a01b03166001600160a01b031663ab6e844f6040518163ffffffff1660e01b8152600401602060405180830381865afa158015611535573d6000803e3d6000fd5b505050506040513d601f19601f8201168201806040525081019061155991906120ef565b6040518060400160405280601381526020017255736572546f496e737428616464726573732960681b8152508660405160200161087291906001600160a01b0391909116815260200190565b9050600061167760008054906101000a90046001600160a01b03166001600160a01b031663ab6e844f6040518163ffffffff1660e01b8152600401602060405180830381865afa1580156115fd573d6000803e3d6000fd5b505050506040513d601f19601f8201168201806040525081019061162191906120ef565b6040518060400160405280601981526020017f67657445666665637469766552616e6b2861646472657373290000000000000081525084604051602001610d0991906001600160a01b0391909116815260200190565b9050600061173b60008054906101000a90046001600160a01b03166001600160a01b031663ab6e844f6040518163ffffffff1660e01b8152600401602060405180830381865afa1580156116cf573d6000803e3d6000fd5b505050506040513d601f19601f820116820180604052508101906116f391906120ef565b6040518060400160405280600f81526020016e697353746f7028616464726573732960881b815250856040516020016106ee91906001600160a01b0391909116815260200190565b90506001600160a01b038316158015906117555750838210155b801561093d57501595945050505050565b600080546040805163af0deb9560e01b8152905161180c926001600160a01b03169163af0deb959160048083019260209291908290030181865afa1580156117b2573d6000803e3d6000fd5b505050506040513d601f19601f820116820180604052508101906117d691906120ef565b60405180604001604052806008815260200167697353616665282960c01b815250604051806020016040528060008152506118b4565b905090565b600080546040805163223df87160e11b8152905161180c926001600160a01b03169163447bf0e29160048083019260209291908290030181865afa15801561185d573d6000803e3d6000fd5b505050506040513d601f19601f8201168201806040525081019061188191906120ef565b60405180604001604052806005815260200164616765282960d81b81525060405180602001604052806000815250611aa9565b60008060006118c4868686611bcc565b915091508180156118d6575080516020145b156118f257808060200190518101906118ef9190612177565b92505b50509392505050565b600080600061190b868686611bcc565b9150915081801561191d575080516020145b156118f257808060200190518101906118ef91906120ef565b60006004611945600185612122565b8154811061195557611955612135565b90600052602060002090600b0201905060038160050154106119b15760405162461bcd60e51b815260206004820152601560248201527419185bcb985b1c9958591e4b98dbdb5c1b195d1959605a1b604482015260640161098c565b8180156119c657508060080154816004015410155b80156119d9575080600601548160040154115b6119e45760036119e7565b60045b60ff1660058201819055600403610b1f576001810154600382018054611aa3926001600160a01b03169190611a1b906120b5565b80601f0160208091040260200160405190810160405280929190818152602001828054611a47906120b5565b8015611a945780601f10611a6957610100808354040283529160200191611a94565b820191906000526020600020905b815481529060010190602001808311611a7757829003601f168201915b50505050508360020154611cc6565b50505050565b6000806000611ab9868686611bcc565b91509150818015611acb575080516020145b156118f257808060200190518101906118ef9190612194565b60048054600181018255600091909152600b027f8a35acfbc15ff81a39ae7d344fd709f28e8600b4aa8c65c6b64bfe7fe36bd19b0180611b25888a83612209565b506001810180546001600160a01b0319166001600160a01b0388161790556002810185905560038101611b59848683612209565b506064600354611b67610b85565b611b7191906122ca565b611b7c90606361214b565b611b8691906122e1565b600882015581611b94611811565b611b9e919061214b565b6007820155600a01805460ff196101003302166001600160a81b031990911617600117905550505050505050565b60006060846001600160a01b03163b600003611bfa5750506040805160208101909152600080825290611cbe565b604080516004815260248101918290526001600160a01b03871691611c20908790612303565b60405180910390206001600160e01b0319166020820180516001600160e01b03838183161783525050505084604051602001611c5d92919061231f565b60408051601f1981840301815290829052611c7791612303565b600060405180830381855afa9150503d8060008114611cb2576040519150601f19603f3d011682016040523d82523d6000602084013e611cb7565b606091505b5090925090505b935093915050565b60606001600160a01b038416611d135760405162461bcd60e51b81526020600482015260126024820152711bdddb8b9a5b9d985b1a590b9d185c99d95d60721b604482015260640161098c565b600080856001600160a01b03168486604051611d2f9190612303565b60006040518083038185875af1925050503d8060008114611d6c576040519150601f19603f3d011682016040523d82523d6000602084013e611d71565b606091505b509150915081611dcb57805115611d8a57805181602001fd5b60405162461bcd60e51b81526020600482015260166024820152751bdddb8b9d185c99d95d0b98d85b1b0b99985a5b195960521b604482015260640161098c565b95945050505050565b600060208284031215611de657600080fd5b5035919050565b60005b83811015611e08578181015183820152602001611df0565b50506000910152565b60008151808452611e29816020860160208601611ded565b601f01601f19169290920160200192915050565b6000610160808352611e518184018f611e11565b6001600160a01b038e81166020860152604085018e90528482036060860152909150611e7d828d611e11565b92508a60808501528960a08501528860c08501528760e08501528661010085015285151561012085015280851661014085015250509c9b505050505050505050505050565b6001600160a01b0381168114611ed757600080fd5b50565b600060208284031215611eec57600080fd5b8135611ef781611ec2565b9392505050565b60008060408385031215611f1157600080fd5b823591506020830135611f2381611ec2565b809150509250929050565b8015158114611ed757600080fd5b60008060408385031215611f4f57600080fd5b823591506020830135611f2381611f2e565b60a081526000611f7460a0830188611e11565b6001600160a01b039687166020840152604083019590955250919093166060820152911515608090920191909152919050565b60008083601f840112611fb957600080fd5b50813567ffffffffffffffff811115611fd157600080fd5b602083019150836020828501011115611fe957600080fd5b9250929050565b600080600080600080600060a0888a03121561200b57600080fd5b873567ffffffffffffffff8082111561202357600080fd5b61202f8b838c01611fa7565b909950975060208a0135915061204482611ec2565b909550604089013594506060890135908082111561206157600080fd5b5061206e8a828b01611fa7565b989b979a50959894979596608090950135949350505050565b6000806040838503121561209a57600080fd5b82356120a581611ec2565b91506020830135611f2381611f2e565b600181811c908216806120c957607f821691505b6020821081036120e957634e487b7160e01b600052602260045260246000fd5b50919050565b60006020828403121561210157600080fd5b8151611ef781611ec2565b634e487b7160e01b600052601160045260246000fd5b818103818111156107025761070261210c565b634e487b7160e01b600052603260045260246000fd5b808201808211156107025761070261210c565b6000600182016121705761217061210c565b5060010190565b60006020828403121561218957600080fd5b8151611ef781611f2e565b6000602082840312156121a657600080fd5b5051919050565b634e487b7160e01b600052604160045260246000fd5b601f821115610b1f57600081815260208120601f850160051c810160208610156121ea5750805b601f850160051c820191505b8181101561135e578281556001016121f6565b67ffffffffffffffff831115612221576122216121ad565b6122358361222f83546120b5565b836121c3565b6000601f84116001811461226957600085156122515750838201355b600019600387901b1c1916600186901b1783556122c3565b600083815260209020601f19861690835b8281101561229a578685013582556020948501946001909201910161227a565b50868210156122b75760001960f88860031b161c19848701351681555b505060018560011b0183555b5050505050565b80820281158282048414176107025761070261210c565b6000826122fe57634e487b7160e01b600052601260045260246000fd5b500490565b60008251612315818460208701611ded565b9190910192915050565b60008351612331818460208801611ded565b835190830190612345818360208801611ded565b0194935050505056fea26469706673582212200fa1eb59de853769d794e6d6b67b8a068445360ded160d253107e1f09f8ad24f64736f6c6343000814003360806040523480156200001157600080fd5b5060405162002fd438038062002fd483398101604081905262000034916200027f565b600180546001600160a01b0319908116909155600080549091166001600160a01b03831617905562000278600280546001818101835560008390527f405787fa12a823e0f2b7631cc41b3ba8828b3321ca811111fa75cd3aa3bb5ace91820180546001600160a01b03199081167375c6f8e5306f5403b660ab73023e6dca1cad1c74179091558354808301855583018054821673dc49975b1218f8703bfa90a90aacfcae51dddead17905583548083018555830180548216737999e92e90815217512d45e23078b23e54106e3a179055835480830185558301805482167338e547f16821ef96576090244a7ee296aba22f3a1790558354808301855583018054821673b77f536cd9a66bb60ad8f969af7ccd7a32899e74179055835480830185558301805482167202033c8e5840d60105185d08269cc5f653016d17905583548083018555830180548216734e2e59c2f9222505fd4b61d77108c3c1540b1d53179055835480830185558301805482167306e5cc99c59a74cac85ddf6111d214f85f816ab31790558354808301855583018054821673d7d1874e597511dba70523dcf9345a2a28aa650217905583548083018555830180548216739b21bea411784aa99b1fe4979c08625ec6916a211790558354808301855583018054821673807b8bbb07ddca2cae110d412de615a3236b988617905583548083018555830180548216732253f37395cbafafa44d60c42e8264d90f935ccf179055835491820190935501805490911673deabad12f748300b1f44110e96a88f931f94f972179055565b50620002b1565b6000602082840312156200029257600080fd5b81516001600160a01b0381168114620002aa57600080fd5b9392505050565b612d1380620002c16000396000f3fe60806040526004361061015b5760003560e01c8063ac233345116100c8578063cab3cc8d11610084578063e0a9bc2b11610061578063e0a9bc2b146104a3578063e846034a146104b8578063fdc10bc9146104cd578063ff585caf146104e257005b8063cab3cc8d1461044e578063cb84b34b14610463578063e01ad5fd1461048357005b8063ac23334514610381578063af484526146103a1578063b8f1759a146103c1578063b90306ad146103e1578063c1e6cec214610401578063c54e44b01461042e57005b806351bfd3ae1161011757806351bfd3ae146102b657806376e8217d146102d65780638da5cb5b1461030e578063965a92d81461032c578063a1f7f5391461034c578063ab7e46ae1461036157005b806312065fe01461016457806313a52c8c1461018657806318c864e3146101a65780631f185d1614610206578063479fa2c3146102365780634ef260a91461029657005b3661016257005b005b34801561017057600080fd5b50475b6040519081526020015b60405180910390f35b34801561019257600080fd5b506101626101a13660046128f6565b610502565b3480156101b257600080fd5b506101c66101c13660046129d0565b6107dd565b604080516001600160a01b0397881681529690951660208701529215159385019390935260608401529015156080830152151560a082015260c00161017d565b34801561021257600080fd5b506102266102213660046129e9565b61083b565b604051901515815260200161017d565b34801561024257600080fd5b506102566102513660046129d0565b61090f565b604080516001600160a01b0397881681529690951660208701529215159385019390935215156060840152901515608083015260a082015260c00161017d565b3480156102a257600080fd5b506101626102b13660046129e9565b61098c565b3480156102c257600080fd5b506102266102d13660046129e9565b610a44565b3480156102e257600080fd5b506102f66102f1366004612a06565b610be0565b6040516001600160a01b03909116815260200161017d565b34801561031a57600080fd5b506001546001600160a01b03166102f6565b34801561033857600080fd5b506101626103473660046129d0565b610c42565b34801561035857600080fd5b50610173611943565b34801561036d57600080fd5b506102f661037c3660046129d0565b611adf565b34801561038d57600080fd5b506102f661039c3660046129e9565b611b09565b3480156103ad57600080fd5b506102266103bc3660046129e9565b611bc7565b3480156103cd57600080fd5b506102f66103dc3660046129d0565b611c85565b3480156103ed57600080fd5b506101626103fc3660046129d0565b611cb5565b34801561040d57600080fd5b5061017361041c3660046129e9565b60046020526000908152604090205481565b34801561043a57600080fd5b506102f66104493660046129e9565b611d9b565b34801561045a57600080fd5b50600554610173565b34801561046f57600080fd5b5061017361047e3660046129d0565b611e1b565b34801561048f57600080fd5b5061022661049e3660046129e9565b611e56565b3480156104af57600080fd5b50610226612136565b3480156104c457600080fd5b50600354610173565b3480156104d957600080fd5b506101736121e1565b3480156104ee57600080fd5b506101626104fd3660046129d0565b612284565b816001600160a01b0381166105535760405162461bcd60e51b815260206004820152601260248201527137bbb7173232b330bab63a1739b2b73232b960711b60448201526064015b60405180910390fd5b33600090815260046020526040902054156105a55760405162461bcd60e51b815260206004820152601260248201527170726f706f7365722e746f2e65786973747360701b604482015260640161054a565b600580546001810182556000919091526006027f036b6384b5eca791c62761152d0c79bb0604c104a5fb6f4eb0703f3154bb3db0810180546001600160a01b0386166001600160a01b03199182161782557f036b6384b5eca791c62761152d0c79bb0604c104a5fb6f4eb0703f3154bb3db1830180549091163317905583519091610659917f036b6384b5eca791c62761152d0c79bb0604c104a5fb6f4eb0703f3154bb3db2909101906020860190612841565b5060018054600283018054928301815560009081526020812090920180546001600160a01b0319166001600160a01b039092169190911790556005546040516106a9919060240190815260200190565b60408051601f19818403018152918152602080830180516001600160e01b0316600162a7a35160e01b0319179052600080548351634162169f60e01b815293519495509093610792936001600160a01b0390921692634162169f92600480820193918290030181865afa158015610724573d6000803e3d6000fd5b505050506040513d601f19601f820116820180604052508101906107489190612a28565b3060008560076040516024016107619493929190612a69565b60408051601f198184030181529190526020810180516001600160e01b031663d3a3084960e01b1790526000612472565b9050808060200190518101906107a89190612ae6565b6004808501919091556005546001909401546001600160a01b0316600090815260209190915260409020929092555050505050565b600581815481106107ed57600080fd5b6000918252602090912060069091020180546001820154600383015460048401546005909401546001600160a01b039384169550929091169260ff9182169290918082169161010090041686565b600080546040805163af0deb9560e01b81529051610909926001600160a01b03169163af0deb959160048083019260209291908290030181865afa158015610887573d6000803e3d6000fd5b505050506040513d601f19601f820116820180604052508101906108ab9190612a28565b6040518060400160405280601181526020017069735369676e657228616464726573732960781b815250846040516020016108f591906001600160a01b0391909116815260200190565b604051602081830303815290604052612580565b92915050565b6000808080808080600561092460018a612b15565b8154811061093457610934612b28565b6000918252602090912060069091020180546001820154600583015460038401546004909401546001600160a01b039384169d939092169b5060ff8082169b5061010090910481169950909216965090945092505050565b6001600160a01b0381166000908152600460205260408120546005906109b490600190612b15565b815481106109c4576109c4612b28565b60009182526020808320600560069093020191909101805461ff0019166101001790556001600160a01b039093168082526004909352604081208190556003805460018101825591527fc2575a0e9e593c00f959f8c92f12db2869c3395a3b0502d05e2516446f71f85b0180546001600160a01b03191690921790915550565b600080610b1f60008054906101000a90046001600160a01b03166001600160a01b031663a66bcbe26040518163ffffffff1660e01b8152600401602060405180830381865afa158015610a9b573d6000803e3d6000fd5b505050506040513d601f19601f82011682018060405250810190610abf9190612a28565b6040518060400160405280601381526020017255736572546f496e737428616464726573732960681b81525085604051602001610b0b91906001600160a01b0391909116815260200190565b6040516020818303038152906040526125c7565b90506000806001600160a01b0316826001600160a01b0316141590506000610b7a836040518060400160405280600b81526020016a697353757370656e64282960a81b81525060405180602001604052806000815250612580565b90506000610bb8846040518060400160405280600881526020016769734c6f636b282960c01b81525060405180602001604052806000815250612580565b9050821580610bd65750818015610bcc5750805b8015610bd6575082155b9695505050505050565b6000806005610bf0600186612b15565b81548110610c0057610c00612b28565b90600052602060002090600602019050806002018381548110610c2557610c25612b28565b6000918252602090912001546001600160a01b0316949350505050565b610c4b30611bc7565b610c975760405162461bcd60e51b815260206004820152601760248201527f7574696c6974792e756e7365637572652e6661696c6564000000000000000000604482015260640161054a565b600080546040805163223df87160e11b81529051610d42926001600160a01b03169163447bf0e29160048083019260209291908290030181865afa158015610ce3573d6000803e3d6000fd5b505050506040513d601f19601f82011682018060405250810190610d079190612a28565b604080518082018252600f81526e6765744e6f646573436f756e74282960881b60208083019190915282516000815290810190925290612602565b90506000610d9a60008054906101000a90046001600160a01b03166001600160a01b031663a66bcbe26040518163ffffffff1660e01b8152600401602060405180830381865afa158015610ce3573d6000803e3d6000fd5b600254909150610daa9082612b3e565b9050808211610df15760405162461bcd60e51b81526020600482015260136024820152727574696c6974792e696d706f72742e646f6e6560681b604482015260640161054a565b610dfb8184612b3e565b9250818311610e0a5782610e0c565b815b92506000808060008060008060005b888b118015610e2a57508a8a10155b156119365760009650600095506000925060009150888a1115611057576000546040805163223df87160e11b81529051610ef9926001600160a01b03169163447bf0e29160048083019260209291908290030181865afa158015610e92573d6000803e3d6000fd5b505050506040513d601f19601f82011682018060405250810190610eb69190612a28565b604051806040016040528060178152602001766765744e6f64654279496e6465782875696e743235362960481b8152508b604051602001610b0b91815260200190565b90506001600160a01b038116610f4a5760405162461bcd60e51b815260206004820152601660248201527570726f78792e696e76616c69642e696e7374616e636560501b604482015260640161054a565b6000546040805163223df87160e11b81529051611005926001600160a01b03169163447bf0e29160048083019260209291908290030181865afa158015610f95573d6000803e3d6000fd5b505050506040513d601f19601f82011682018060405250810190610fb99190612a28565b60405180604001604052806013815260200172496e7374546f5573657228616464726573732960681b81525083604051602001610b0b91906001600160a01b0391909116815260200190565b94506001600160a01b0385166110525760405162461bcd60e51b815260206004820152601260248201527170726f78792e696e76616c69642e6e6f646560701b604482015260640161054a565b61108b565b60026110638b8b612b15565b8154811061107357611073612b28565b6000918252602090912001546001600160a01b031694505b60005460408051635ec08de760e11b81529051611158926001600160a01b03169163bd811bce9160048083019260209291908290030181865afa1580156110d6573d6000803e3d6000fd5b505050506040513d601f19601f820116820180604052508101906110fa9190612a28565b6040518060400160405280601181526020017055736572546f496428616464726573732960781b8152508760405160200161114491906001600160a01b0391909116815260200190565b604051602081830303815290604052612602565b91508160000361141657600080546040805163223df87160e11b81529051611247926001600160a01b03169163447bf0e29160048083019260209291908290030181865afa1580156111ae573d6000803e3d6000fd5b505050506040513d601f19601f820116820180604052508101906111d29190612a28565b6040518060400160405280601a81526020017f6765744e6f64654c4228616464726573732c75696e74323536290000000000008152508460006040516020016112339291906001600160a01b0392909216825260ff16602082015260400190565b60405160208183030381529060405261263d565b80519091501561126b57808060200190518101906112659190612b51565b90985096505b600080546040805163223df87160e11b81529051611324926001600160a01b03169163447bf0e29160048083019260209291908290030181865afa1580156112b7573d6000803e3d6000fd5b505050506040513d601f19601f820116820180604052508101906112db9190612a28565b6040518060400160405280601081526020016f6765744e6f646528616464726573732960801b8152508560405160200161123391906001600160a01b0391909116815260200190565b90508080602001905181019061133a9190612b85565b50919850965050506001600160a01b0386161561140f576000546040805163223df87160e11b8152905161140c926001600160a01b03169163447bf0e29160048083019260209291908290030181865afa15801561139c573d6000803e3d6000fd5b505050506040513d601f19601f820116820180604052508101906113c09190612a28565b60405180604001604052806013815260200172496e7374546f5573657228616464726573732960681b81525085604051602001610b0b91906001600160a01b0391909116815260200190565b95505b505061168e565b6000805460408051635ec08de760e11b815290516114dc926001600160a01b03169163bd811bce9160048083019260209291908290030181865afa158015611462573d6000803e3d6000fd5b505050506040513d601f19601f820116820180604052508101906114869190612a28565b6040518060400160405280601a81526020017f6765744e6f64654c422875696e743235362c75696e743235362900000000000081525085600060405160200161123392919091825260ff16602082015260400190565b80519091501561150057808060200190518101906114fa9190612b51565b90985096505b6000805460408051635ec08de760e11b815290516115ac926001600160a01b03169163bd811bce9160048083019260209291908290030181865afa15801561154c573d6000803e3d6000fd5b505050506040513d601f19601f820116820180604052508101906115709190612a28565b6040518060400160405280601081526020016f6765744e6f64652875696e743235362960801b8152508660405160200161123391815260200190565b9050808060200190518101906115c29190612bdf565b509650945050831561168b5760005460408051635ec08de760e11b81529051611688926001600160a01b03169163bd811bce9160048083019260209291908290030181865afa158015611619573d6000803e3d6000fd5b505050506040513d601f19601f8201168201806040525081019061163d9190612a28565b6040805180820190915260178152766765744e6f64654279496e6465782875696e743235362960481b6020820152611676600188612b15565b604051602001610b0b91815260200190565b95505b50505b60005460408051635335e5f160e11b81529051611759926001600160a01b03169163a66bcbe29160048083019260209291908290030181865afa1580156116d9573d6000803e3d6000fd5b505050506040513d601f19601f820116820180604052508101906116fd9190612a28565b6040516001600160a01b03808816602483015260006044830152881660648201526084810186905260a40160408051601f198184030181529190526020810180516001600160e01b03166322d625e360e11b1790526000612472565b5086156118255760005460408051635335e5f160e11b81529051611823926001600160a01b03169163a66bcbe29160048083019260209291908290030181865afa1580156117ab573d6000803e3d6000fd5b505050506040513d601f19601f820116820180604052508101906117cf9190612a28565b6040516001600160a01b0388166024820152604481018a90526064810189905260840160408051601f198184030181529190526020810180516001600160e01b031663c4cf0e3f60e01b1790526000612472565b505b8761182f81612c1e565b600580546001808201835560069091027f036b6384b5eca791c62761152d0c79bb0604c104a5fb6f4eb0703f3154bb3db0810180546001600160a01b038c166001600160a01b031991821681179092557f036b6384b5eca791c62761152d0c79bb0604c104a5fb6f4eb0703f3154bb3db183018054909116821790557f036b6384b5eca791c62761152d0c79bb0604c104a5fb6f4eb0703f3154bb3db38201805460ff1916841790557f036b6384b5eca791c62761152d0c79bb0604c104a5fb6f4eb0703f3154bb3db5909101805461ffff191690921790915590546000918252600460205260409091205598506119249050565b8861192e81612c1e565b995050610e1b565b5050505050505050505050565b6000806119f860008054906101000a90046001600160a01b03166001600160a01b031663e1f4cd246040518163ffffffff1660e01b8152600401602060405180830381865afa15801561199a573d6000803e3d6000fd5b505050506040513d601f19601f820116820180604052508101906119be9190612a28565b6040518060400160405280600c81526020016b72616e6b666f7244414f282960a01b81525060405180602001604052806000815250612602565b90506000611acb60008054906101000a90046001600160a01b03166001600160a01b031663ab6e844f6040518163ffffffff1660e01b8152600401602060405180830381865afa158015611a50573d6000803e3d6000fd5b505050506040513d601f19601f82011682018060405250810190611a749190612a28565b6040518060400160405280601d81526020017f67657472616e6b636f756e742875696e743235362c75696e7432353629000000815250611ab26121e1565b6040805160208101929092528101869052606001611144565b9050611ad8816003612b3e565b9250505090565b60038181548110611aef57600080fd5b6000918252602090912001546001600160a01b0316905081565b6001600160a01b0381166000908152600460205260408120548103611b3057506000919050565b6001600160a01b038216600090815260046020526040812054600590611b5890600190612b15565b81548110611b6857611b68612b28565b60009182526020909120600690910201600381015490915060ff168015611b935750600581015460ff165b8015611ba957506005810154610100900460ff16155b611bb4576000611bc0565b80546001600160a01b03165b9392505050565b600080546040805163af0deb9560e01b81529051610909926001600160a01b03169163af0deb959160048083019260209291908290030181865afa158015611c13573d6000803e3d6000fd5b505050506040513d601f19601f82011682018060405250810190611c379190612a28565b6040518060400160405280601581526020017469735365637572654261736528616464726573732960581b815250846040516020016108f591906001600160a01b0391909116815260200190565b600060038281548110611c9a57611c9a612b28565b6000918252602090912001546001600160a01b031692915050565b60005460408051634162169f60e01b8152905133926001600160a01b031691634162169f9160048083019260209291908290030181865afa158015611cfe573d6000803e3d6000fd5b505050506040513d601f19601f82011682018060405250810190611d229190612a28565b6001600160a01b031614611d6a5760405162461bcd60e51b815260206004820152600f60248201526e6f776e2e6e6f6e617574682e44414f60881b604482015260640161054a565b60405160009082156108fc0290839083818181858288f19350505050158015611d97573d6000803e3d6000fd5b5050565b600080826001600160a01b0316803b806020016040519081016040528181526000908060200190933c9050602d81511015611e0e5760405162461bcd60e51b81526020600482015260136024820152724e6f742061206d696e696d616c2070726f787960681b604482015260640161054a565b602a015160601c92915050565b6000806005611e2b600185612b15565b81548110611e3b57611e3b612b28565b60009182526020909120600260069092020101549392505050565b600080611ead60008054906101000a90046001600160a01b03166001600160a01b031663e1f4cd246040518163ffffffff1660e01b8152600401602060405180830381865afa15801561199a573d6000803e3d6000fd5b90506000611f7560008054906101000a90046001600160a01b03166001600160a01b031663ab6e844f6040518163ffffffff1660e01b8152600401602060405180830381865afa158015611f05573d6000803e3d6000fd5b505050506040513d601f19601f82011682018060405250810190611f299190612a28565b6040518060400160405280601381526020017255736572546f496e737428616464726573732960681b81525086604051602001610b0b91906001600160a01b0391909116815260200190565b9050600061204760008054906101000a90046001600160a01b03166001600160a01b031663ab6e844f6040518163ffffffff1660e01b8152600401602060405180830381865afa158015611fcd573d6000803e3d6000fd5b505050506040513d601f19601f82011682018060405250810190611ff19190612a28565b6040518060400160405280601981526020017f67657445666665637469766552616e6b286164647265737329000000000000008152508460405160200161114491906001600160a01b0391909116815260200190565b9050600061210b60008054906101000a90046001600160a01b03166001600160a01b031663ab6e844f6040518163ffffffff1660e01b8152600401602060405180830381865afa15801561209f573d6000803e3d6000fd5b505050506040513d601f19601f820116820180604052508101906120c39190612a28565b6040518060400160405280600f81526020016e697353746f7028616464726573732960881b815250856040516020016108f591906001600160a01b0391909116815260200190565b90506001600160a01b038316158015906121255750838210155b8015610bd657501595945050505050565b600080546040805163af0deb9560e01b815290516121dc926001600160a01b03169163af0deb959160048083019260209291908290030181865afa158015612182573d6000803e3d6000fd5b505050506040513d601f19601f820116820180604052508101906121a69190612a28565b60405180604001604052806008815260200167697353616665282960c01b81525060405180602001604052806000815250612580565b905090565b600080546040805163223df87160e11b815290516121dc926001600160a01b03169163447bf0e29160048083019260209291908290030181865afa15801561222d573d6000803e3d6000fd5b505050506040513d601f19601f820116820180604052508101906122519190612a28565b60405180604001604052806005815260200164616765282960d81b81525060405180602001604052806000815250612602565b60005460408051634162169f60e01b8152905133926001600160a01b031691634162169f9160048083019260209291908290030181865afa1580156122cd573d6000803e3d6000fd5b505050506040513d601f19601f820116820180604052508101906122f19190612a28565b6001600160a01b0316146123395760405162461bcd60e51b815260206004820152600f60248201526e6f776e2e6e6f6e617574682e44414f60881b604482015260640161054a565b801561246f576000600561234e600184612b15565b8154811061235e5761235e612b28565b90600052602060002090600602019050600061242a60008054906101000a90046001600160a01b03166001600160a01b0316634162169f6040518163ffffffff1660e01b8152600401602060405180830381865afa1580156123c4573d6000803e3d6000fd5b505050506040513d601f19601f820116820180604052508101906123e89190612a28565b60405180604001604052806012815260200171676574526573756c742875696e743235362960701b815250846004015460405160200161123391815260200190565b90506000818060200190518101906124429190612c37565b6003808901805460ff19908116600485141790915560059099018054909916911015179096555050505050505b50565b60606001600160a01b0384166124bf5760405162461bcd60e51b81526020600482015260126024820152711bdddb8b9a5b9d985b1a590b9d185c99d95d60721b604482015260640161054a565b600080856001600160a01b031684866040516124db9190612c77565b60006040518083038185875af1925050503d8060008114612518576040519150601f19603f3d011682016040523d82523d6000602084013e61251d565b606091505b5091509150816125775780511561253657805181602001fd5b60405162461bcd60e51b81526020600482015260166024820152751bdddb8b9d185c99d95d0b98d85b1b0b99985a5b195960521b604482015260640161054a565b95945050505050565b6000806000612590868686612747565b915091508180156125a2575080516020145b156125be57808060200190518101906125bb9190612c93565b92505b50509392505050565b60008060006125d7868686612747565b915091508180156125e9575080516020145b156125be57808060200190518101906125bb9190612a28565b6000806000612612868686612747565b91509150818015612624575080516020145b156125be57808060200190518101906125bb9190612ae6565b6060836001600160a01b03163b6000036126665750604080516020810190915260008152611bc0565b6040805160048152602481019182905260009182916001600160a01b03881691612691908890612c77565b60405180910390206001600160e01b0319166020820180516001600160e01b038381831617835250505050856040516020016126ce929190612cae565b60408051601f19818403018152908290526126e891612c77565b600060405180830381855afa9150503d8060008114612723576040519150601f19603f3d011682016040523d82523d6000602084013e612728565b606091505b50915091508161257757604051806020016040528060008152506125bb565b60006060846001600160a01b03163b6000036127755750506040805160208101909152600080825290612839565b604080516004815260248101918290526001600160a01b0387169161279b908790612c77565b60405180910390206001600160e01b0319166020820180516001600160e01b038381831617835250505050846040516020016127d8929190612cae565b60408051601f19818403018152908290526127f291612c77565b600060405180830381855afa9150503d806000811461282d576040519150601f19603f3d011682016040523d82523d6000602084013e612832565b606091505b5090925090505b935093915050565b828054828255906000526020600020908101928215612896579160200282015b8281111561289657825182546001600160a01b0319166001600160a01b03909116178255602090920191600190910190612861565b506128a29291506128a6565b5090565b5b808211156128a257600081556001016128a7565b6001600160a01b038116811461246f57600080fd5b80356128db816128bb565b919050565b634e487b7160e01b600052604160045260246000fd5b6000806040838503121561290957600080fd5b8235612914816128bb565b915060208381013567ffffffffffffffff8082111561293257600080fd5b818601915086601f83011261294657600080fd5b813581811115612958576129586128e0565b8060051b604051601f19603f8301168101818110858211171561297d5761297d6128e0565b60405291825284820192508381018501918983111561299b57600080fd5b938501935b828510156129c0576129b1856128d0565b845293850193928501926129a0565b8096505050505050509250929050565b6000602082840312156129e257600080fd5b5035919050565b6000602082840312156129fb57600080fd5b8135611bc0816128bb565b60008060408385031215612a1957600080fd5b50508035926020909101359150565b600060208284031215612a3a57600080fd5b8151611bc0816128bb565b60005b83811015612a60578181015183820152602001612a48565b50506000910152565b60a08152600d60a08201526c2ab9b2b9102a3930b739b332b960991b60c082015260018060a01b038516602082015260ff8416604082015260e06060820152600083518060e0840152610100612ac58282860160208901612a45565b60ff949094166080840152601f01601f191691909101909101949350505050565b600060208284031215612af857600080fd5b5051919050565b634e487b7160e01b600052601160045260246000fd5b8181038181111561090957610909612aff565b634e487b7160e01b600052603260045260246000fd5b8082018082111561090957610909612aff565b60008060408385031215612b6457600080fd5b505080516020909101519092909150565b805180151581146128db57600080fd5b600080600080600060a08688031215612b9d57600080fd5b855194506020860151612baf816128bb565b60408701519094509250612bc560608701612b75565b9150612bd360808701612b75565b90509295509295909350565b60008060008060808587031215612bf557600080fd5b845193506020850151925060408501519150612c1360608601612b75565b905092959194509250565b600060018201612c3057612c30612aff565b5060010190565b600080600080600060a08688031215612c4f57600080fd5b5050835160208501516040860151606087015160809097015192989197509594509092509050565b60008251612c89818460208701612a45565b9190910192915050565b600060208284031215612ca557600080fd5b611bc082612b75565b60008351612cc0818460208801612a45565b835190830190612cd4818360208801612a45565b0194935050505056fea2646970667358221220ca4f9015348fe47839c0eae2d4cc425649fe6ae83b877f231c8dd4b4a2d18d8e64736f6c63430008140033","linkReferences":{}},"methodIdentifiers":{"_nftInitializer()":"425ae7c6","addOrc1155(bytes,address)":"dcbd0ac8","addOrc1155Prime(bytes,address)":"b113bd20","addProposer(address)":"b03cd418","compare()":"3da0ac79","dao()":"4162169f","getProposalsCount()":"98e527d3","in741()":"ab6e844f","in741Old()":"447aa304","in741Prime()":"a66bcbe2","in741PrimeOld()":"447bf0e2","in741Primev3Old()":"bd811bce","in741Rule()":"cfbffe53","in741RuleOld()":"bb245896","in741RulePrime()":"e1f4cd24","in741RulePrimeOld()":"efed51bb","inImportForgePrimeold()":"e7531fc0","inInstance()":"e61dfd58","inInstancePrime()":"af233190","inOrc1155(uint256)":"b771c896","inOrc1155Old()":"47419c41","inOrc1155OldV1()":"c4549b6d","inOrc1155Prime(uint256)":"595e1dd2","inOrc1155PrimeOld()":"a7acacf8","inOrc1155PrimeOldV1()":"b3a86ab0","inOrc1155machinebullold()":"a5b277f2","inPrice()":"d3d1b096","inPrimeData()":"01c0d48b","inPrimeProxy()":"a0b8cbb8","inTransferPrimeold()":"f144dff0","inTransferold()":"c5a90db1","inTreaseryTVLMining()":"aa0ddc16","inTreaseryTVLMiningImport()":"21c82677","inTreaseryTVLMiningPrime()":"6b4aefc6","inTreaseryTVLReward()":"64027427","inTreaseryTVLRoyality()":"30125cf5","inTreaseryTVLTour()":"24768d91","infactoryold()":"5ad64af1","infactoryprimeold()":"da1be7d0","initialize(address)":"c4d66de8","insafeguard()":"97f3815a","insafeguardPrime()":"af0deb95","insafeguardPrimeOld()":"a7d7fa50","mapOldORC1155(address)":"cfaa1f6c","mapOldORC1155Prime(address)":"ed15cbf7","proposals(uint256)":"013cf08b","s1()":"6cc014de","s2()":"a314150f","s3()":"a5d666a9","update741(address)":"aeb14020","update741Old(address)":"236b0402","update741Prime(address)":"fc58f353","update741PrimeOld(address)":"66658584","update741Primev3Old(address)":"8360701d","update741Rule(address)":"753e7d33","update741RuleOld(address)":"507aa64f","update741RulePrime(address)":"cfacc010","update741RulePrimeOld(address)":"74dfe236","updateDAO(address)":"bcb6c0b5","updateFactoryOld(address)":"42ac8f79","updateFactoryPrimeOld(address)":"1654f331","updateImportForgePrimeold(address)":"74fad9f9","updateInTransferOld(address)":"a2672aa8","updateInTransferPrimeOld(address)":"069f3e72","updateInstance(address)":"275424d0","updateInstancePrime(address)":"839a47a4","updateOrc1155(address,address,uint256)":"cc7cf18e","updateOrc1155MachineBullOld(address)":"c7bb7d4d","updateOrc1155Old(address)":"5960591e","updateOrc1155OldV1(address)":"a7a2d5e9","updateOrc1155Prime(address,address,uint256)":"ef140ed3","updateOrc1155PrimeOld(address)":"1a47ded5","updateOrc1155PrimeOldV1(address)":"0c32145a","updatePrice(address)":"96e85ced","updatePrimeData(address)":"335ab5f2","updatePrimeProxy(address)":"4588d010","updateProposals(address,uint256)":"e0cf4e9e","updateSafeguard(address)":"1162a5b1","updateSafeguardPrime(address)":"a9d5ae6f","updateSafeguardPrimeOld(address)":"9669f18f","updateTreaseryTVLMiningImport(address)":"014519e6","updateTreasuryTVLMining(address)":"130fba6d","updateTreasuryTVLMiningPrime(address)":"36c24c46","updateTreasuryTVLReward(address)":"05abae0d","updateTreasuryTVLRoyality(address)":"e2576819","updateTreasuryTVLTour(address)":"1b67970a"},"id":31}