{"abi":[{"type":"function","name":"deployNFT","inputs":[{"name":"_hex","type":"address","internalType":"address"},{"name":"params","type":"bytes","internalType":"bytes"}],"outputs":[{"name":"","type":"address","internalType":"address"}],"stateMutability":"nonpayable"},{"type":"function","name":"getDragonNFTParamsEncoded","inputs":[],"outputs":[{"name":"","type":"bytes","internalType":"bytes"}],"stateMutability":"pure"}],"bytecode":{"object":"0x608060405234801561001057600080fd5b5061536e806100206000396000f3fe60806040523480156200001157600080fd5b50600436106200003a5760003560e01c8063145d523f146200003f578063165fd13f1462000061575b600080fd5b6200004962000091565b604051620000589190620003d6565b60405180910390f35b6200007862000072366004620003f2565b62000195565b6040516001600160a01b03909116815260200162000058565b604080516011808252610240820190925260609160009190816020015b6060815260200190600190039081620000ae57905050905060005b60118110156200014157620000ea620000e4826001620004b5565b62000202565b604051602001620000fc9190620004d1565b60405160208183030381529060405282828151811062000120576200012062000503565b60200260200101819052508080620001389062000519565b915050620000c9565b506200018f60405180604001604052806006815260200165223930b3b7b760d11b815250604051806080016040528060448152602001620052f56044913967016345785d8a00008462000326565b91505090565b600080620001a683850185620006b7565b9050806000015181602001518260400151836060015188604051620001cb9062000374565b620001db959493929190620007dd565b604051809103906000f080158015620001f8573d6000803e3d6000fd5b5095945050505050565b6060816000036200022a5750506040805180820190915260018152600360fc1b602082015290565b8160005b81156200025a5780620002418162000519565b9150620002529050600a8362000853565b91506200022e565b60008167ffffffffffffffff81111562000278576200027862000489565b6040519080825280601f01601f191660200182016040528015620002a3576020820181803683370190505b509050815b85156200031d5780620002bb816200086a565b9150620002cc9050600a8762000884565b620002d9906030620004b5565b60f81b828281518110620002f157620002f162000503565b60200101906001600160f81b031916908160001a90535062000315600a8762000853565b9550620002a8565b50949350505050565b60606040518060800160405280868152602001858152602001848152602001838152506040516020016200035b91906200089b565b6040516020818303038152906040529050949350505050565b6149e8806200090d83390190565b60005b838110156200039f57818101518382015260200162000385565b50506000910152565b60008151808452620003c281602086016020860162000382565b601f01601f19169290920160200192915050565b602081526000620003eb6020830184620003a8565b9392505050565b6000806000604084860312156200040857600080fd5b83356001600160a01b03811681146200042057600080fd5b9250602084013567ffffffffffffffff808211156200043e57600080fd5b818601915086601f8301126200045357600080fd5b8135818111156200046357600080fd5b8760208285010111156200047657600080fd5b6020830194508093505050509250925092565b634e487b7160e01b600052604160045260246000fd5b634e487b7160e01b600052601160045260246000fd5b80820180821115620004cb57620004cb6200049f565b92915050565b67447261676f6e5f5f60c01b815260008251620004f681600885016020870162000382565b9190910160080192915050565b634e487b7160e01b600052603260045260246000fd5b6000600182016200052e576200052e6200049f565b5060010190565b6040516080810167ffffffffffffffff811182821017156200055b576200055b62000489565b60405290565b604051601f8201601f1916810167ffffffffffffffff811182821017156200058d576200058d62000489565b604052919050565b600082601f830112620005a757600080fd5b813567ffffffffffffffff811115620005c457620005c462000489565b620005d9601f8201601f191660200162000561565b818152846020838601011115620005ef57600080fd5b816020850160208301376000918101602001919091529392505050565b600082601f8301126200061e57600080fd5b8135602067ffffffffffffffff808311156200063e576200063e62000489565b8260051b6200064f83820162000561565b93845285810183019383810190888611156200066a57600080fd5b84880192505b85831015620006ab578235848111156200068a5760008081fd5b6200069a8a87838c010162000595565b835250918401919084019062000670565b98975050505050505050565b600060208284031215620006ca57600080fd5b813567ffffffffffffffff80821115620006e357600080fd5b9083019060808286031215620006f857600080fd5b6200070262000535565b8235828111156200071257600080fd5b620007208782860162000595565b8252506020830135828111156200073657600080fd5b620007448782860162000595565b602083015250604083013560408201526060830135828111156200076757600080fd5b62000775878286016200060c565b60608301525095945050505050565b600081518084526020808501808196508360051b8101915082860160005b85811015620007d0578284038952620007bd848351620003a8565b98850198935090840190600101620007a2565b5091979650505050505050565b60a081526000620007f260a0830188620003a8565b8281036020840152620008068188620003a8565b9050856040840152828103606084015262000822818662000784565b91505060018060a01b03831660808301529695505050505050565b634e487b7160e01b600052601260045260246000fd5b6000826200086557620008656200083d565b500490565b6000816200087c576200087c6200049f565b506000190190565b6000826200089657620008966200083d565b500690565b602081526000825160806020840152620008b960a0840182620003a8565b90506020840151601f1980858403016040860152620008d98383620003a8565b92506040860151606086015260608601519150808584030160808601525062000903828262000784565b9594505050505056fe60806040526000601055600060115560006012553480156200002057600080fd5b50604051620049e8380380620049e8833981016040819052620000439162000370565b808462000050816200025e565b50600480546001600160a01b0319908116909155600380549091166001600160a01b039290921691909117905562000088846200025e565b600762000096858262000539565b506008620000a5868262000539565b50601183905560005b825181101562000252576009838281518110620000cf57620000cf62000605565b6020026020010151604051620000e691906200061b565b908152602001604051809103902054600014620001495760405162461bcd60e51b815260206004820152601460248201527f6f7263313135352e746f6b656e2e6661696c6564000000000000000000000000604482015260640160405180910390fd5b600680546200015a9060016200064f565b8154600181018355600092835260209092209091015560065483516009908590849081106200018d576200018d62000605565b6020026020010151604051620001a491906200061b565b908152602001604051809103902081905550828181518110620001cb57620001cb62000605565b6020026020010151600a600060068054905081526020019081526020016000209081620001f9919062000539565b50600583828151811062000211576200021162000605565b602090810291909101810151825460018101845560009384529190922001906200023c908262000539565b508062000249816200066b565b915050620000ae565b50505050505062000687565b60026200026c828262000539565b5050565b634e487b7160e01b600052604160045260246000fd5b604051601f8201601f191681016001600160401b0381118282101715620002b157620002b162000270565b604052919050565b60005b83811015620002d6578181015183820152602001620002bc565b50506000910152565b600082601f830112620002f157600080fd5b81516001600160401b038111156200030d576200030d62000270565b62000322601f8201601f191660200162000286565b8181528460208386010111156200033857600080fd5b6200034b826020830160208701620002b9565b949350505050565b80516001600160a01b03811681146200036b57600080fd5b919050565b600080600080600060a086880312156200038957600080fd5b85516001600160401b0380821115620003a157600080fd5b620003af89838a01620002df565b9650602091508188015181811115620003c757600080fd5b620003d58a828b01620002df565b96505060408801519450606088015181811115620003f257600080fd5b8801601f81018a136200040457600080fd5b80518281111562000419576200041962000270565b8060051b6200042a85820162000286565b918252828101850191858101908d8411156200044557600080fd5b86850192505b838310156200048657825186811115620004655760008081fd5b620004758f8983890101620002df565b83525091860191908601906200044b565b809850505050505050506200049e6080870162000353565b90509295509295909350565b600181811c90821680620004bf57607f821691505b602082108103620004e057634e487b7160e01b600052602260045260246000fd5b50919050565b601f8211156200053457600081815260208120601f850160051c810160208610156200050f5750805b601f850160051c820191505b8181101562000530578281556001016200051b565b5050505b505050565b81516001600160401b0381111562000555576200055562000270565b6200056d81620005668454620004aa565b84620004e6565b602080601f831160018114620005a557600084156200058c5750858301515b600019600386901b1c1916600185901b17855562000530565b600085815260208120601f198616915b82811015620005d657888601518255948401946001909101908401620005b5565b5085821015620005f55787850151600019600388901b60f8161c191681555b5050505050600190811b01905550565b634e487b7160e01b600052603260045260246000fd5b600082516200062f818460208701620002b9565b9190910192915050565b634e487b7160e01b600052601160045260246000fd5b8082018082111562000665576200066562000639565b92915050565b60006001820162000680576200068062000639565b5060010190565b61435180620006976000396000f3fe60806040526004361061025d5760003560e01c80638da5cb5b11610143578063d878fe10116100bb578063f356eedb11610077578063f356eedb14610708578063f6d8f2cb1461071e578063f9ffedb714610756578063fac333ac1461076c578063fcf563681461078c578063fdc10bc9146107ac57005b8063d878fe101461065d578063e01ad5fd1461067d578063e0a9bc2b1461069d578063e834a834146106b2578063e985e9c5146106c8578063f242432a146106e857005b8063b390c0ab1161010a578063b390c0ab146105c2578063b505c66d146105e2578063b90306ad146105f5578063c54e44b014610615578063c85700fb14610635578063d36606231461064857005b80638da5cb5b1461052f578063a1f7f5391461054d578063a22cb46514610562578063abbbf8d714610582578063af484526146105a257005b80632eb2c2d6116101d65780635718e17b1161019d5780635718e17b146104a35780635b2bd79e146104c35780635fac2d9d146104d85780636c51797b146104ee57806378a895671461050457806381fbf0a51461051957005b80632eb2c2d6146103f6578063364410b3146104165780634622ab03146104365780634e1273f41461045657806351bfd3ae1461048357005b80630e89341c116102255780630e89341c1461032b57806312065fe01461034b5780631b038e511461035e5780631c0e21e3146103965780631f185d16146103b65780632796f7c6146103d657005b8062fdd58e1461026657806301ffc9a71461029957806302fe5305146102c95780630399c93c146102e957806306fdde031461030957005b3661026457005b005b34801561027257600080fd5b506102866102813660046136a1565b6107c1565b6040519081526020015b60405180910390f35b3480156102a557600080fd5b506102b96102b43660046136e3565b6107e9565b6040519015158152602001610290565b3480156102d557600080fd5b506102646102e43660046137b7565b610839565b3480156102f557600080fd5b506102646103043660046137f4565b6108e1565b34801561031557600080fd5b5061031e610b18565b6040516102909190613861565b34801561033757600080fd5b5061031e610346366004613874565b610ba6565b34801561035757600080fd5b5047610286565b34801561036a57600080fd5b50600b5461037e906001600160a01b031681565b6040516001600160a01b039091168152602001610290565b3480156103a257600080fd5b506102646103b136600461388d565b610bda565b3480156103c257600080fd5b506102b96103d13660046137f4565b610cf8565b3480156103e257600080fd5b506102646103f1366004613874565b610dd2565b34801561040257600080fd5b5061026461041136600461393e565b610e6a565b34801561042257600080fd5b5061031e610431366004613874565b610ed1565b34801561044257600080fd5b5061031e610451366004613874565b610eea565b34801561046257600080fd5b506104766104713660046139ec565b610f15565b6040516102909190613ae9565b34801561048f57600080fd5b506102b961049e3660046137f4565b610fea565b3480156104af57600080fd5b5061031e6104be366004613874565b611174565b3480156104cf57600080fd5b5061031e611223565b3480156104e457600080fd5b5061028660125481565b3480156104fa57600080fd5b50610286600d5481565b34801561051057600080fd5b50600654610286565b34801561052557600080fd5b5061028660115481565b34801561053b57600080fd5b506004546001600160a01b031661037e565b34801561055957600080fd5b50610286611230565b34801561056e57600080fd5b5061026461057d366004613b0a565b6113e0565b34801561058e57600080fd5b5061026461059d366004613b43565b6113ef565b3480156105ae57600080fd5b506102b96105bd3660046137f4565b611601565b3480156105ce57600080fd5b506102646105dd36600461388d565b6116cb565b6102646105f0366004613bf4565b611779565b34801561060157600080fd5b50610264610610366004613874565b611972565b34801561062157600080fd5b5061037e6106303660046137f4565b611a32565b61037e610643366004613cc5565b611ab2565b34801561065457600080fd5b50610286611d2b565b34801561066957600080fd5b50610264610678366004613874565b61210c565b34801561068957600080fd5b506102b96106983660046137f4565b6121a4565b3480156106a957600080fd5b506102b961248c565b3480156106be57600080fd5b5061028660105481565b3480156106d457600080fd5b506102b96106e3366004613d09565b612543565b3480156106f457600080fd5b50610264610703366004613d37565b612571565b34801561071457600080fd5b50610286600e5481565b34801561072a57600080fd5b506102866107393660046137b7565b805160208183018101805160098252928201919093012091525481565b34801561076257600080fd5b50610286600f5481565b34801561077857600080fd5b50610286610787366004613874565b6125d0565b34801561079857600080fd5b50600c5461037e906001600160a01b031681565b3480156107b857600080fd5b506102866125f1565b6000818152602081815260408083206001600160a01b03861684529091529020545b92915050565b60006001600160e01b03198216636cdb3d1360e11b148061081a57506001600160e01b031982166303a24d0760e21b145b806107e357506301ffc9a760e01b6001600160e01b03198316146107e3565b60035460408051634162169f60e01b8152905133926001600160a01b031691634162169f9160048083019260209291908290030181865afa158015610882573d6000803e3d6000fd5b505050506040513d601f19601f820116820180604052508101906108a69190613da0565b6001600160a01b0316146108d55760405162461bcd60e51b81526004016108cc90613dbd565b60405180910390fd5b6108de816126a0565b50565b60035460405163013cf08b60e01b8152600060048201819052916109bf916001600160a01b039091169063013cf08b90602401602060405180830381865afa158015610931573d6000803e3d6000fd5b505050506040513d601f19601f820116820180604052508101906109559190613da0565b6040518060400160405280601e81526020017f7265736f6c76655472616e736665725461726765742861646472657373290000815250846040516020016109ab91906001600160a01b0391909116815260200190565b6040516020818303038152906040526126ac565b6004549091506001600160a01b03808316911614610a295760405162461bcd60e51b815260206004820152602160248201527f6f7263313135352e666f7263655472616e7366657228307830292e6661696c656044820152601960fa1b60648201526084016108cc565b60045460068054610a5e926001600160a01b03169190600090610a4e57610a4e613de6565b90600052602060002001546107c1565b600003610a69575050565b6013805460ff1916600117905560045460068054610ae1926001600160a01b0316918591600090610a9c57610a9c613de6565b6000918252602082200154600454600680549293610acc936001600160a01b0390931692610a4e57610a4e613de6565b604051806020016040528060008152506126f3565b50600c80546001600160a01b039092166001600160a01b03199283168117909155600480549092161790556013805460ff19169055565b60088054610b2590613dfc565b80601f0160208091040260200160405190810160405280929190818152602001828054610b5190613dfc565b8015610b9e5780601f10610b7357610100808354040283529160200191610b9e565b820191906000526020600020905b815481529060010190602001808311610b8157829003601f168201915b505050505081565b60606007610bb383612781565b604051602001610bc4929190613e36565b6040516020818303038152906040529050919050565b610be261248c565b610c235760405162461bcd60e51b81526020600482015260126024820152716f776e2e696e76616c69642e69735361666560701b60448201526064016108cc565b610c2c33611601565b80610caa575060035460408051634162169f60e01b8152905133926001600160a01b031691634162169f9160048083019260209291908290030181865afa158015610c7b573d6000803e3d6000fd5b505050506040513d601f19601f82011682018060405250810190610c9f9190613da0565b6001600160a01b0316145b610cc65760405162461bcd60e51b81526004016108cc90613dbd565b6013805460ff19166001179055600454610cea906001600160a01b03168383612814565b50506013805460ff19169055565b60006107e3600360009054906101000a90046001600160a01b03166001600160a01b031663af0deb956040518163ffffffff1660e01b8152600401602060405180830381865afa158015610d50573d6000803e3d6000fd5b505050506040513d601f19601f82011682018060405250810190610d749190613da0565b6040518060400160405280601181526020017069735369676e657228616464726573732960781b81525084604051602001610dbe91906001600160a01b0391909116815260200190565b604051602081830303815290604052612883565b60035460408051634162169f60e01b8152905133926001600160a01b031691634162169f9160048083019260209291908290030181865afa158015610e1b573d6000803e3d6000fd5b505050506040513d601f19601f82011682018060405250810190610e3f9190613da0565b6001600160a01b031614610e655760405162461bcd60e51b81526004016108cc90613dbd565b601255565b336001600160a01b0386168114801590610e8b5750610e898682612543565b155b15610ebc5760405163711bec9160e11b81526001600160a01b038083166004830152871660248201526044016108cc565b610ec986868686866128be565b505050505050565b600a6020526000908152604090208054610b2590613dfc565b60058181548110610efa57600080fd5b906000526020600020016000915090508054610b2590613dfc565b60608151835114610f465781518351604051635b05999160e01b8152600481019290925260248201526044016108cc565b6000835167ffffffffffffffff811115610f6257610f62613700565b604051908082528060200260200182016040528015610f8b578160200160208202803683370190505b50905060005b8451811015610fe257602080820286010151610fb5906020808402870101516107c1565b828281518110610fc757610fc7613de6565b6020908102919091010152610fdb81613ee3565b9050610f91565b509392505050565b6000806110b3600360009054906101000a90046001600160a01b03166001600160a01b031663a66bcbe26040518163ffffffff1660e01b8152600401602060405180830381865afa158015611043573d6000803e3d6000fd5b505050506040513d601f19601f820116820180604052508101906110679190613da0565b6040518060400160405280601381526020017255736572546f496e737428616464726573732960681b815250856040516020016109ab91906001600160a01b0391909116815260200190565b90506000806001600160a01b0316826001600160a01b031614159050600061110e836040518060400160405280600b81526020016a697353757370656e64282960a81b81525060405180602001604052806000815250612883565b9050600061114c846040518060400160405280600881526020016769734c6f636b282960c01b81525060405180602001604052806000815250612883565b905082158061116a57508180156111605750805b801561116a575082155b9695505050505050565b60606005828154811061118957611189613de6565b90600052602060002001805461119e90613dfc565b80601f01602080910402602001604051908101604052809291908181526020018280546111ca90613dfc565b80156112175780601f106111ec57610100808354040283529160200191611217565b820191906000526020600020905b8154815290600101906020018083116111fa57829003601f168201915b50505050509050919050565b60078054610b2590613dfc565b6000806112e7600360009054906101000a90046001600160a01b03166001600160a01b031663e1f4cd246040518163ffffffff1660e01b8152600401602060405180830381865afa158015611289573d6000803e3d6000fd5b505050506040513d601f19601f820116820180604052508101906112ad9190613da0565b6040518060400160405280600c81526020016b72616e6b666f7244414f282960a01b8152506040518060200160405280600081525061291e565b905060006113cc600360009054906101000a90046001600160a01b03166001600160a01b031663ab6e844f6040518163ffffffff1660e01b8152600401602060405180830381865afa158015611341573d6000803e3d6000fd5b505050506040513d601f19601f820116820180604052508101906113659190613da0565b6040518060400160405280601d81526020017f67657472616e6b636f756e742875696e743235362c75696e74323536290000008152506113a36125f1565b60408051602081019290925281018690526060015b60405160208183030381529060405261291e565b90506113d9816003613efc565b9250505090565b6113eb338383612959565b5050565b60035460408051634162169f60e01b8152905133926001600160a01b031691634162169f9160048083019260209291908290030181865afa158015611438573d6000803e3d6000fd5b505050506040513d601f19601f8201168201806040525081019061145c9190613da0565b6001600160a01b0316146114825760405162461bcd60e51b81526004016108cc90613dbd565b60005b81518110156113eb5760098282815181106114a2576114a2613de6565b60200260200101516040516114b79190613f0f565b90815260200160405180910390205460001461150c5760405162461bcd60e51b81526020600482015260146024820152731bdc98cc4c4d4d4b9d1bdad95b8b99985a5b195960621b60448201526064016108cc565b6006805461151b906001613efc565b81546001810183556000928352602090922090910155600654825160099084908490811061154b5761154b613de6565b60200260200101516040516115609190613f0f565b90815260200160405180910390208190555081818151811061158457611584613de6565b6020026020010151600a6000600680549050815260200190815260200160002090816115b09190613f76565b5060058282815181106115c5576115c5613de6565b602090810291909101810151825460018101845560009384529190922001906115ee9082613f76565b50806115f981613ee3565b915050611485565b60006107e3600360009054906101000a90046001600160a01b03166001600160a01b031663af0deb956040518163ffffffff1660e01b8152600401602060405180830381865afa158015611659573d6000803e3d6000fd5b505050506040513d601f19601f8201168201806040525081019061167d9190613da0565b6040518060400160405280601581526020017469735365637572654261736528616464726573732960581b81525084604051602001610dbe91906001600160a01b0391909116815260200190565b6116d361248c565b6117145760405162461bcd60e51b81526020600482015260126024820152716f776e2e696e76616c69642e69735361666560701b60448201526064016108cc565b6004546001600160a01b031633146117625760405162461bcd60e51b815260206004820152601160248201527037bbb71734b73b30b634b21737bbb732b960791b60448201526064016108cc565b6004546113eb906001600160a01b03168383612814565b600f54156117c25760405162461bcd60e51b81526020600482015260166024820152751bdc98cc4c4d4d4b985b1c9958591e4b9b5a5b9d195960521b60448201526064016108cc565b600480546001600160a01b0319908116909155600380549091166001600160a01b0383161790556117f233611601565b61183e5760405162461bcd60e51b815260206004820152601760248201527f6f7263313135352e756e7365637572652e6661696c656400000000000000000060448201526064016108cc565b600480546001600160a01b0319166001600160a01b038716179055611862886126a0565b600761186e8982613f76565b50600861187b8a82613f76565b50600580546001810182556000919091527f036b6384b5eca791c62761152d0c79bb0604c104a5fb6f4eb0703f3154bb3db0016118b88882613f76565b506006805460018101825560008281527ff652222313e28459528d920b65115c16c04f3efc82aaedc97be59f3f377c0d3f909101889055600454600c80546001600160a01b0319166001600160a01b039092169182179055600d879055600f859055600e86905582546119559391929061193457611934613de6565b906000526020600020015486604051806020016040528060008152506129ef565b5050600b80546001600160a01b0319163317905550505050505050565b60035460408051634162169f60e01b8152905133926001600160a01b031691634162169f9160048083019260209291908290030181865afa1580156119bb573d6000803e3d6000fd5b505050506040513d601f19601f820116820180604052508101906119df9190613da0565b6001600160a01b031614611a055760405162461bcd60e51b81526004016108cc90613dbd565b60405160009082156108fc0290839083818181858288f193505050501580156113eb573d6000803e3d6000fd5b600080826001600160a01b0316803b806020016040519081016040528181526000908060200190933c9050602d81511015611aa55760405162461bcd60e51b81526020600482015260136024820152724e6f742061206d696e696d616c2070726f787960681b60448201526064016108cc565b602a015160601c92915050565b60035460408051630af2331960e41b815290516000926001600160a01b03169163af2331909160048083019260209291908290030181865afa158015611afc573d6000803e3d6000fd5b505050506040513d601f19601f82011682018060405250810190611b209190613da0565b6001600160a01b0316803b806020016040519081016040528181526000908060200190933c80519060200120336001600160a01b0316803b806020016040519081016040528181526000908060200190933c8051906020012014611bbc5760405162461bcd60e51b81526020600482015260136024820152726f776e2e756e617574682e696e7374616e636560681b60448201526064016108cc565b856001600160a01b038116611c085760405162461bcd60e51b815260206004820152601260248201527137bbb7173232b330bab63a1739b2b73232b960711b60448201526064016108cc565b84601254611c169190613efc565b6011541015611c675760405162461bcd60e51b815260206004820152601760248201527f6f7263313135352e737570706c792e627265616368656400000000000000000060448201526064016108cc565b6000611c7230612a4c565b9050611d0781600860076005611c8960018d614036565b81548110611c9957611c99613de6565b906000526020600020018b8d8c8c8c600360009054906101000a90046001600160a01b0316604051602401611cd6999897969594939291906140c6565b60408051601f198184030181529190526020810180516001600160e01b031663b505c66d60e01b1790526000612a59565b508560126000828254611d1a9190613efc565b909155509098975050505050505050565b6000611dfb600360009054906101000a90046001600160a01b03166001600160a01b031663e1f4cd246040518163ffffffff1660e01b8152600401602060405180830381865afa158015611d83573d6000803e3d6000fd5b505050506040513d601f19601f82011682018060405250810190611da79190613da0565b60408051808201909152600a81526973687574646f776e282960b01b602082015260005b6040519080825280601f01601f191660200182016040528015611df5576020820181803683370190505b50612883565b15611e075750600d5490565b6000611e116125f1565b90506000611ee3600360009054906101000a90046001600160a01b03166001600160a01b031663e1f4cd246040518163ffffffff1660e01b8152600401602060405180830381865afa158015611e6b573d6000803e3d6000fd5b505050506040513d601f19601f82011682018060405250810190611e8f9190613da0565b60408051808201909152600a815269706f6f6c4e465431282960b01b602082015260005b6040519080825280601f01601f191660200182016040528015611edd576020820181803683370190505b50612b69565b9050600080600080600085806020019051810190611f019190614142565b9450945094509450945081600f54611f199190613efc565b8710611f90578282600f54611f2e9190613efc565b611f389089614036565b611f42919061418f565b611f4d906001613efc565b611f588560646141b1565b86600d54670de0b6b3a7640000611f6f91906141b1565b611f7991906141b1565b611f83919061418f565b611f8d91906141b1565b97505b6003546040805163387d334960e21b81529051612027926001600160a01b03169163e1f4cd249160048083019260209291908290030181865afa158015611fdb573d6000803e3d6000fd5b505050506040513d601f19601f82011682018060405250810190611fff9190613da0565b60408051808201909152600a815269706f6f6c4e465432282960b01b60208201526000611eb3565b95508580602001905181019061203d9190614142565b600f5494995092975090955093509150612058908390613efc565b87106120d9578282600f5461206d9190613efc565b6120779089614036565b612081919061418f565b61208c906001613efc565b6120978560646141b1565b86600d54670de0b6b3a76400006120ae91906141b1565b6120b891906141b1565b6120c2919061418f565b6120cc91906141b1565b6120d69089613efc565b97505b6120eb670de0b6b3a76400008961418f565b9750600d5488116120fc5787612100565b600d545b97505050505050505090565b60035460408051634162169f60e01b8152905133926001600160a01b031691634162169f9160048083019260209291908290030181865afa158015612155573d6000803e3d6000fd5b505050506040513d601f19601f820116820180604052508101906121799190613da0565b6001600160a01b03161461219f5760405162461bcd60e51b81526004016108cc90613dbd565b601155565b6000806121fd600360009054906101000a90046001600160a01b03166001600160a01b031663e1f4cd246040518163ffffffff1660e01b8152600401602060405180830381865afa158015611289573d6000803e3d6000fd5b905060006122c7600360009054906101000a90046001600160a01b03166001600160a01b031663ab6e844f6040518163ffffffff1660e01b8152600401602060405180830381865afa158015612257573d6000803e3d6000fd5b505050506040513d601f19601f8201168201806040525081019061227b9190613da0565b6040518060400160405280601381526020017255736572546f496e737428616464726573732960681b815250866040516020016109ab91906001600160a01b0391909116815260200190565b9050600061239b600360009054906101000a90046001600160a01b03166001600160a01b031663ab6e844f6040518163ffffffff1660e01b8152600401602060405180830381865afa158015612321573d6000803e3d6000fd5b505050506040513d601f19601f820116820180604052508101906123459190613da0565b6040518060400160405280601981526020017f67657445666665637469766552616e6b28616464726573732900000000000000815250846040516020016113b891906001600160a01b0391909116815260200190565b90506000612461600360009054906101000a90046001600160a01b03166001600160a01b031663ab6e844f6040518163ffffffff1660e01b8152600401602060405180830381865afa1580156123f5573d6000803e3d6000fd5b505050506040513d601f19601f820116820180604052508101906124199190613da0565b6040518060400160405280600f81526020016e697353746f7028616464726573732960881b81525085604051602001610dbe91906001600160a01b0391909116815260200190565b90506001600160a01b0383161580159061247b5750838210155b801561116a57501595945050505050565b600061253e600360009054906101000a90046001600160a01b03166001600160a01b031663af0deb956040518163ffffffff1660e01b8152600401602060405180830381865afa1580156124e4573d6000803e3d6000fd5b505050506040513d601f19601f820116820180604052508101906125089190613da0565b60405180604001604052806008815260200167697353616665282960c01b81525060405180602001604052806000815250612883565b905090565b6001600160a01b03918216600090815260016020908152604080832093909416825291909152205460ff1690565b336001600160a01b038616811480159061259257506125908682612543565b155b156125c35760405163711bec9160e11b81526001600160a01b038083166004830152871660248201526044016108cc565b610ec986868686866126f3565b600681815481106125e057600080fd5b600091825260209091200154905081565b600061253e600360009054906101000a90046001600160a01b03166001600160a01b031663447bf0e26040518163ffffffff1660e01b8152600401602060405180830381865afa158015612649573d6000803e3d6000fd5b505050506040513d601f19601f8201168201806040525081019061266d9190613da0565b60405180604001604052806005815260200164616765282960d81b8152506040518060200160405280600081525061291e565b60026113eb8282613f76565b60008060006126bc868686612c73565b915091508180156126ce575080516020145b156126ea57808060200190518101906126e79190613da0565b92505b50509392505050565b6001600160a01b03841661271d57604051632bfa23e760e11b8152600060048201526024016108cc565b6001600160a01b03851661274657604051626a0d4560e21b8152600060048201526024016108cc565b604080516001808252602082018690528183019081526060820185905260808201909252906127788787848487612d6d565b50505050505050565b6060600061278e83612dc0565b600101905060008167ffffffffffffffff8111156127ae576127ae613700565b6040519080825280601f01601f1916602001820160405280156127d8576020820181803683370190505b5090508181016020015b600019016f181899199a1a9b1b9c1cb0b131b232b360811b600a86061a8153600a85049450846127e257509392505050565b6001600160a01b03831661283d57604051626a0d4560e21b8152600060048201526024016108cc565b604080516001808252602082018590528183019081526060820184905260a0820190925260006080820181815291929161287c91879185908590612d6d565b5050505050565b6000806000612893868686612c73565b915091508180156128a5575080516020145b156126ea57808060200190518101906126e791906141c8565b6001600160a01b0384166128e857604051632bfa23e760e11b8152600060048201526024016108cc565b6001600160a01b03851661291157604051626a0d4560e21b8152600060048201526024016108cc565b61287c8585858585612d6d565b600080600061292e868686612c73565b91509150818015612940575080516020145b156126ea57808060200190518101906126e791906141e5565b6001600160a01b0382166129825760405162ced3e160e81b8152600060048201526024016108cc565b6001600160a01b03838116600081815260016020908152604080832094871680845294825291829020805460ff191686151590811790915591519182527f17307eab39ab6107e8899845ad3d59bd9653f200f220920489ca2b5937696c31910160405180910390a3505050565b6001600160a01b038416612a1957604051632bfa23e760e11b8152600060048201526024016108cc565b60408051600180825260208201869052818301908152606082018590526080820190925290610ec9600087848487612d6d565b60006107e3826000612e98565b60606001600160a01b038416612aa65760405162461bcd60e51b81526020600482015260126024820152711bdddb8b9a5b9d985b1a590b9d185c99d95d60721b60448201526064016108cc565b600080856001600160a01b03168486604051612ac29190613f0f565b60006040518083038185875af1925050503d8060008114612aff576040519150601f19603f3d011682016040523d82523d6000602084013e612b04565b606091505b509150915081612b5e57805115612b1d57805181602001fd5b60405162461bcd60e51b81526020600482015260166024820152751bdddb8b9d185c99d95d0b98d85b1b0b99985a5b195960521b60448201526064016108cc565b9150505b9392505050565b6060836001600160a01b03163b600003612b925750604080516020810190915260008152612b62565b6040805160048152602481019182905260009182916001600160a01b03881691612bbd908890613f0f565b60405180910390206001600160e01b0319166020820180516001600160e01b03838183161783525050505085604051602001612bfa9291906141fe565b60408051601f1981840301815290829052612c1491613f0f565b600060405180830381855afa9150503d8060008114612c4f576040519150601f19603f3d011682016040523d82523d6000602084013e612c54565b606091505b509150915081612b5e57604051806020016040528060008152506126e7565b60006060846001600160a01b03163b600003612ca15750506040805160208101909152600080825290612d65565b604080516004815260248101918290526001600160a01b03871691612cc7908790613f0f565b60405180910390206001600160e01b0319166020820180516001600160e01b03838183161783525050505084604051602001612d049291906141fe565b60408051601f1981840301815290829052612d1e91613f0f565b600060405180830381855afa9150503d8060008114612d59576040519150601f19603f3d011682016040523d82523d6000602084013e612d5e565b606091505b5090925090505b935093915050565b612d7985858585612f2e565b6001600160a01b0384161561287c5782513390600103612db25760208481015190840151612dab838989858589613252565b5050610ec9565b610ec9818787878787613376565b60008072184f03e93ff9f4daa797ed6e38ed64bf6a1f0160401b8310612dff5772184f03e93ff9f4daa797ed6e38ed64bf6a1f0160401b830492506040015b6d04ee2d6d415b85acef81000000008310612e2b576d04ee2d6d415b85acef8100000000830492506020015b662386f26fc100008310612e4957662386f26fc10000830492506010015b6305f5e1008310612e61576305f5e100830492506008015b6127108310612e7557612710830492506004015b60648310612e87576064830492506002015b600a83106107e35760010192915050565b600081471015612ec45760405163cf47918160e01b8152476004820152602481018390526044016108cc565b763d602d80600a3d3981f3363d3d373d3d3d363d730000008360601b60e81c176000526e5af43d82803e903d91602b57fd5bf38360781b176020526037600983f090506001600160a01b0381166107e35760405163b06ebf3d60e01b815260040160405180910390fd5b6001600160a01b03841615801590612f49575060135460ff16155b1561323657601054600d5411156131ca576000613022600360009054906101000a90046001600160a01b03166001600160a01b031663a66bcbe26040518163ffffffff1660e01b8152600401602060405180830381865afa158015612fb2573d6000803e3d6000fd5b505050506040513d601f19601f82011682018060405250810190612fd69190613da0565b6040518060400160405280601381526020017255736572546f496e737428616464726573732960681b815250876040516020016109ab91906001600160a01b0391909116815260200190565b90506001600160a01b038116158015906130495750600c546001600160a01b038681169116145b156131c85760018260008151811061306357613063613de6565b602002602001015110156130ab5760405162461bcd60e51b815260206004820152600f60248201526e6f7263313135352e6c65737351747960881b60448201526064016108cc565b60408051808201909152600681526573746f70282960d01b60208201526130d59082906000611dcb565b156131155760405162461bcd60e51b815260206004820152601060248201526f6f7263313135352e696e61637469766560801b60448201526064016108cc565b600061311f611d2b565b905060008111801561315857508260008151811061313f5761313f613de6565b6020026020010151601054826131559190614036565b10155b6131955760405162461bcd60e51b815260206004820152600e60248201526d1bdc98cc4c4d4d4b9b1bd8dad95960921b60448201526064016108cc565b826000815181106131a8576131a8613de6565b6020026020010151601060008282546131c19190613efc565b9091555050505b505b806000815181106131dd576131dd613de6565b602002602001015160105410156132365760405162461bcd60e51b815260206004820152601c60248201527f6f7263313135352e7472616e7366657228307830292e6661696c65640000000060448201526064016108cc565b6013805460ff1916905561324c8484848461345f565b50505050565b6001600160a01b0384163b15610ec95760405163f23a6e6160e01b81526001600160a01b0385169063f23a6e6190613296908990899088908890889060040161422d565b6020604051808303816000875af19250505080156132d1575060408051601f3d908101601f191682019092526132ce91810190614272565b60015b61333a573d8080156132ff576040519150601f19603f3d011682016040523d82523d6000602084013e613304565b606091505b50805160000361333257604051632bfa23e760e11b81526001600160a01b03861660048201526024016108cc565b805160208201fd5b6001600160e01b0319811663f23a6e6160e01b1461277857604051632bfa23e760e11b81526001600160a01b03861660048201526024016108cc565b6001600160a01b0384163b15610ec95760405163bc197c8160e01b81526001600160a01b0385169063bc197c81906133ba908990899088908890889060040161428f565b6020604051808303816000875af19250505080156133f5575060408051601f3d908101601f191682019092526133f291810190614272565b60015b613423573d8080156132ff576040519150601f19603f3d011682016040523d82523d6000602084013e613304565b6001600160e01b0319811663bc197c8160e01b1461277857604051632bfa23e760e11b81526001600160a01b03861660048201526024016108cc565b805182511461348e5781518151604051635b05999160e01b8152600481019290925260248201526044016108cc565b3360005b835181101561359d576020818102858101820151908501909101516001600160a01b03881615613545576000828152602081815260408083206001600160a01b038c1684529091529020548181101561351e576040516303dee4c560e01b81526001600160a01b038a1660048201526024810182905260448101839052606481018490526084016108cc565b6000838152602081815260408083206001600160a01b038d16845290915290209082900390555b6001600160a01b0387161561358a576000828152602081815260408083206001600160a01b038b16845290915281208054839290613584908490613efc565b90915550505b50508061359690613ee3565b9050613492565b50825160010361361e5760208301516000906020840151909150856001600160a01b0316876001600160a01b0316846001600160a01b03167fc3d58168c5ae7397731d063d5bbf3d657854427343f4c083240f7aacaa2d0f62858560405161360f929190918252602082015260400190565b60405180910390a4505061287c565b836001600160a01b0316856001600160a01b0316826001600160a01b03167f4a39dc06d4c0dbc64b70af90fd698a233a518aa5d07e595d983b8c0526c8f7fb868660405161366d9291906142ed565b60405180910390a45050505050565b6001600160a01b03811681146108de57600080fd5b803561369c8161367c565b919050565b600080604083850312156136b457600080fd5b82356136bf8161367c565b946020939093013593505050565b6001600160e01b0319811681146108de57600080fd5b6000602082840312156136f557600080fd5b8135612b62816136cd565b634e487b7160e01b600052604160045260246000fd5b604051601f8201601f1916810167ffffffffffffffff8111828210171561373f5761373f613700565b604052919050565b600082601f83011261375857600080fd5b813567ffffffffffffffff81111561377257613772613700565b613785601f8201601f1916602001613716565b81815284602083860101111561379a57600080fd5b816020850160208301376000918101602001919091529392505050565b6000602082840312156137c957600080fd5b813567ffffffffffffffff8111156137e057600080fd5b6137ec84828501613747565b949350505050565b60006020828403121561380657600080fd5b8135612b628161367c565b60005b8381101561382c578181015183820152602001613814565b50506000910152565b6000815180845261384d816020860160208601613811565b601f01601f19169290920160200192915050565b602081526000612b626020830184613835565b60006020828403121561388657600080fd5b5035919050565b600080604083850312156138a057600080fd5b50508035926020909101359150565b600067ffffffffffffffff8211156138c9576138c9613700565b5060051b60200190565b600082601f8301126138e457600080fd5b813560206138f96138f4836138af565b613716565b82815260059290921b8401810191818101908684111561391857600080fd5b8286015b84811015613933578035835291830191830161391c565b509695505050505050565b600080600080600060a0868803121561395657600080fd5b85356139618161367c565b945060208601356139718161367c565b9350604086013567ffffffffffffffff8082111561398e57600080fd5b61399a89838a016138d3565b945060608801359150808211156139b057600080fd5b6139bc89838a016138d3565b935060808801359150808211156139d257600080fd5b506139df88828901613747565b9150509295509295909350565b600080604083850312156139ff57600080fd5b823567ffffffffffffffff80821115613a1757600080fd5b818501915085601f830112613a2b57600080fd5b81356020613a3b6138f4836138af565b82815260059290921b84018101918181019089841115613a5a57600080fd5b948201945b83861015613a81578535613a728161367c565b82529482019490820190613a5f565b96505086013592505080821115613a9757600080fd5b50613aa4858286016138d3565b9150509250929050565b600081518084526020808501945080840160005b83811015613ade57815187529582019590820190600101613ac2565b509495945050505050565b602081526000612b626020830184613aae565b80151581146108de57600080fd5b60008060408385031215613b1d57600080fd5b8235613b288161367c565b91506020830135613b3881613afc565b809150509250929050565b60006020808385031215613b5657600080fd5b823567ffffffffffffffff80821115613b6e57600080fd5b818501915085601f830112613b8257600080fd5b8135613b906138f4826138af565b81815260059190911b83018401908481019088831115613baf57600080fd5b8585015b83811015613be757803585811115613bcb5760008081fd5b613bd98b89838a0101613747565b845250918601918601613bb3565b5098975050505050505050565b60008060008060008060008060006101208a8c031215613c1357600080fd5b893567ffffffffffffffff80821115613c2b57600080fd5b613c378d838e01613747565b9a5060208c0135915080821115613c4d57600080fd5b613c598d838e01613747565b995060408c0135915080821115613c6f57600080fd5b50613c7c8c828d01613747565b97505060608a01359550613c9260808b01613691565b945060a08a0135935060c08a0135925060e08a01359150613cb66101008b01613691565b90509295985092959850929598565b600080600080600060a08688031215613cdd57600080fd5b8535613ce88161367c565b97602087013597506040870135966060810135965060800135945092505050565b60008060408385031215613d1c57600080fd5b8235613d278161367c565b91506020830135613b388161367c565b600080600080600060a08688031215613d4f57600080fd5b8535613d5a8161367c565b94506020860135613d6a8161367c565b93506040860135925060608601359150608086013567ffffffffffffffff811115613d9457600080fd5b6139df88828901613747565b600060208284031215613db257600080fd5b8151612b628161367c565b6020808252600f908201526e6f776e2e6e6f6e617574682e44414f60881b604082015260600190565b634e487b7160e01b600052603260045260246000fd5b600181811c90821680613e1057607f821691505b602082108103613e3057634e487b7160e01b600052602260045260246000fd5b50919050565b6000808454613e4481613dfc565b60018281168015613e5c5760018114613e7157613ea0565b60ff1984168752821515830287019450613ea0565b8860005260208060002060005b85811015613e975781548a820152908401908201613e7e565b50505082870194505b505050508351613eb4818360208801613811565b64173539b7b760d91b9101908152600501949350505050565b634e487b7160e01b600052601160045260246000fd5b600060018201613ef557613ef5613ecd565b5060010190565b808201808211156107e3576107e3613ecd565b60008251613f21818460208701613811565b9190910192915050565b601f821115613f7157600081815260208120601f850160051c81016020861015613f525750805b601f850160051c820191505b81811015610ec957828155600101613f5e565b505050565b815167ffffffffffffffff811115613f9057613f90613700565b613fa481613f9e8454613dfc565b84613f2b565b602080601f831160018114613fd95760008415613fc15750858301515b600019600386901b1c1916600185901b178555610ec9565b600085815260208120601f198616915b8281101561400857888601518255948401946001909101908401613fe9565b50858210156140265787850151600019600388901b60f8161c191681555b5050505050600190811b01905550565b818103818111156107e3576107e3613ecd565b6000815461405681613dfc565b808552602060018381168015614073576001811461408d576140bb565b60ff1985168884015283151560051b8801830195506140bb565b866000528260002060005b858110156140b35781548a8201860152908301908401614098565b890184019650505b505050505092915050565b60006101208083526140da8184018d614049565b905082810360208401526140ee818c614049565b90508281036040840152614102818b614049565b606084019990995250506001600160a01b03958616608082015260a081019490945260c084019290925260e0830152909116610100909101529392505050565b600080600080600060a0868803121561415a57600080fd5b85519450602086015193506040860151925060608601519150608086015161418181613afc565b809150509295509295909350565b6000826141ac57634e487b7160e01b600052601260045260246000fd5b500490565b80820281158282048414176107e3576107e3613ecd565b6000602082840312156141da57600080fd5b8151612b6281613afc565b6000602082840312156141f757600080fd5b5051919050565b60008351614210818460208801613811565b835190830190614224818360208801613811565b01949350505050565b6001600160a01b03868116825285166020820152604081018490526060810183905260a06080820181905260009061426790830184613835565b979650505050505050565b60006020828403121561428457600080fd5b8151612b62816136cd565b6001600160a01b0386811682528516602082015260a0604082018190526000906142bb90830186613aae565b82810360608401526142cd8186613aae565b905082810360808401526142e18185613835565b98975050505050505050565b6040815260006143006040830185613aae565b82810360208401526143128185613aae565b9594505050505056fea26469706673582212205b97f7b055955cca208b666c0b3f205acf4ba9435efef67a9471a3fd6bf340dd64736f6c6343000814003368747470733a2f2f6f7a6f6e65363064363663383732316634366534346537353662366130383461663936643830336632623936362e6f7a6f6e6573746f72652e696f2fa26469706673582212205f18438650188e33557dee0019f1e59653f3b6a8e226c668acd42b6c265b2d8864736f6c63430008140033","linkReferences":{}},"methodIdentifiers":{"deployNFT(address,bytes)":"165fd13f","getDragonNFTParamsEncoded()":"145d523f"},"id":31}