{"abi":[{"type":"constructor","inputs":[],"stateMutability":"nonpayable"},{"type":"fallback","stateMutability":"payable"},{"type":"receive","stateMutability":"payable"},{"type":"function","name":"Burn","inputs":[{"name":"amount","type":"uint256","internalType":"uint256"}],"outputs":[],"stateMutability":"payable"},{"type":"function","name":"_setOwner","inputs":[{"name":"own","type":"address","internalType":"address"},{"name":"isApproved","type":"bool","internalType":"bool"}],"outputs":[],"stateMutability":"nonpayable"},{"type":"function","name":"_setReq","inputs":[{"name":"own","type":"address","internalType":"address"}],"outputs":[],"stateMutability":"nonpayable"},{"type":"function","name":"at","inputs":[{"name":"_addr","type":"address","internalType":"address"}],"outputs":[{"name":"o_code","type":"bytes","internalType":"bytes"}],"stateMutability":"view"},{"type":"function","name":"capping","inputs":[],"outputs":[{"name":"multiple","type":"uint256","internalType":"uint256"},{"name":"rw","type":"bool","internalType":"bool"},{"name":"ry","type":"bool","internalType":"bool"},{"name":"self","type":"bool","internalType":"bool"},{"name":"yei","type":"bool","internalType":"bool"},{"name":"tour","type":"bool","internalType":"bool"}],"stateMutability":"view"},{"type":"function","name":"claimMaxLimit","inputs":[],"outputs":[{"name":"","type":"uint256","internalType":"uint256"}],"stateMutability":"view"},{"type":"function","name":"claimMinLimit","inputs":[],"outputs":[{"name":"","type":"uint256","internalType":"uint256"}],"stateMutability":"view"},{"type":"function","name":"freeIntervals","inputs":[],"outputs":[{"name":"","type":"uint256","internalType":"uint256"}],"stateMutability":"view"},{"type":"function","name":"getBalance","inputs":[],"outputs":[{"name":"","type":"uint256","internalType":"uint256"}],"stateMutability":"view"},{"type":"function","name":"isAccountSafeOwner","inputs":[{"name":"sender","type":"address","internalType":"address"}],"outputs":[{"name":"","type":"bool","internalType":"bool"}],"stateMutability":"view"},{"type":"function","name":"isOwnerOrSafeOwner","inputs":[{"name":"sender","type":"address","internalType":"address"}],"outputs":[{"name":"","type":"bool","internalType":"bool"}],"stateMutability":"view"},{"type":"function","name":"levelClause","inputs":[{"name":"","type":"uint256","internalType":"uint256"}],"outputs":[{"name":"rank","type":"uint256","internalType":"uint256"},{"name":"rwNum","type":"uint256","internalType":"uint256"},{"name":"rwrDen","type":"uint256","internalType":"uint256"},{"name":"yeiNum","type":"uint256","internalType":"uint256"},{"name":"yeiDen","type":"uint256","internalType":"uint256"}],"stateMutability":"view"},{"type":"function","name":"mintDailyLimit","inputs":[],"outputs":[{"name":"","type":"uint256","internalType":"uint256"}],"stateMutability":"view"},{"type":"function","name":"mintMax","inputs":[],"outputs":[{"name":"","type":"uint256","internalType":"uint256"}],"stateMutability":"view"},{"type":"function","name":"mintMin","inputs":[],"outputs":[{"name":"","type":"uint256","internalType":"uint256"}],"stateMutability":"view"},{"type":"function","name":"mintfee","inputs":[],"outputs":[{"name":"","type":"uint256","internalType":"uint256"}],"stateMutability":"view"},{"type":"function","name":"owner","inputs":[],"outputs":[{"name":"","type":"address","internalType":"address"}],"stateMutability":"view"},{"type":"function","name":"ozoneprice","inputs":[],"outputs":[{"name":"","type":"uint256","internalType":"uint256"}],"stateMutability":"view"},{"type":"function","name":"pool","inputs":[],"outputs":[{"name":"startafter","type":"uint256","internalType":"uint256"},{"name":"stakeN","type":"uint256","internalType":"uint256"},{"name":"stakeD","type":"uint256","internalType":"uint256"},{"name":"roiN","type":"uint256","internalType":"uint256"},{"name":"roiD","type":"uint256","internalType":"uint256"},{"name":"roiInt","type":"uint256","internalType":"uint256"},{"name":"roiEnd","type":"uint256","internalType":"uint256"}],"stateMutability":"view"},{"type":"function","name":"poolNFT1","inputs":[],"outputs":[{"name":"roiN","type":"uint256","internalType":"uint256"},{"name":"roiD","type":"uint256","internalType":"uint256"},{"name":"roiInt","type":"uint256","internalType":"uint256"}],"stateMutability":"view"},{"type":"function","name":"poolNFT2","inputs":[],"outputs":[{"name":"roiN","type":"uint256","internalType":"uint256"},{"name":"roiD","type":"uint256","internalType":"uint256"},{"name":"roiInt","type":"uint256","internalType":"uint256"}],"stateMutability":"view"},{"type":"function","name":"rankClause","inputs":[{"name":"","type":"uint256","internalType":"uint256"}],"outputs":[{"name":"direct","type":"uint256","internalType":"uint256"},{"name":"nftAmount","type":"uint256","internalType":"uint256"}],"stateMutability":"view"},{"type":"function","name":"req","inputs":[],"outputs":[{"name":"newowner","type":"address","internalType":"address"},{"name":"isReq","type":"bool","internalType":"bool"},{"name":"isVer1","type":"bool","internalType":"bool"},{"name":"isVer2","type":"bool","internalType":"bool"},{"name":"isVer3","type":"bool","internalType":"bool"}],"stateMutability":"view"},{"type":"function","name":"royalityClause","inputs":[{"name":"","type":"uint256","internalType":"uint256"}],"outputs":[{"name":"rwNum","type":"uint256","internalType":"uint256"},{"name":"rwDen","type":"uint256","internalType":"uint256"},{"name":"rwEnd","type":"uint256","internalType":"uint256"}],"stateMutability":"view"},{"type":"function","name":"setCapping","inputs":[{"name":"_multiple","type":"uint256","internalType":"uint256"},{"name":"_rw","type":"bool","internalType":"bool"},{"name":"_ry","type":"bool","internalType":"bool"},{"name":"_self","type":"bool","internalType":"bool"},{"name":"_yei","type":"bool","internalType":"bool"},{"name":"_tour","type":"bool","internalType":"bool"}],"outputs":[],"stateMutability":"nonpayable"},{"type":"function","name":"setClaimlimit","inputs":[{"name":"_min","type":"uint256","internalType":"uint256"},{"name":"_max","type":"uint256","internalType":"uint256"}],"outputs":[],"stateMutability":"nonpayable"},{"type":"function","name":"setCoinPool","inputs":[{"name":"_start","type":"uint256","internalType":"uint256"},{"name":"_stakeN","type":"uint256","internalType":"uint256"},{"name":"_stakeD","type":"uint256","internalType":"uint256"},{"name":"_roiN","type":"uint256","internalType":"uint256"},{"name":"_roiD","type":"uint256","internalType":"uint256"},{"name":"_roiInt","type":"uint256","internalType":"uint256"},{"name":"_roiEnd","type":"uint256","internalType":"uint256"}],"outputs":[],"stateMutability":"nonpayable"},{"type":"function","name":"setMintDailyLimit","inputs":[{"name":"limit","type":"uint256","internalType":"uint256"}],"outputs":[],"stateMutability":"nonpayable"},{"type":"function","name":"setMintFee","inputs":[{"name":"_fe","type":"uint256","internalType":"uint256"}],"outputs":[],"stateMutability":"nonpayable"},{"type":"function","name":"setMintLimit","inputs":[{"name":"min","type":"uint256","internalType":"uint256"},{"name":"max","type":"uint256","internalType":"uint256"}],"outputs":[],"stateMutability":"nonpayable"},{"type":"function","name":"setNftPool","inputs":[{"name":"_type","type":"uint256","internalType":"uint256"},{"name":"_roiN","type":"uint256","internalType":"uint256"},{"name":"_roiD","type":"uint256","internalType":"uint256"},{"name":"_roiInt","type":"uint256","internalType":"uint256"}],"outputs":[],"stateMutability":"nonpayable"},{"type":"function","name":"setOzoneprice","inputs":[{"name":"_prc","type":"uint256","internalType":"uint256"}],"outputs":[],"stateMutability":"nonpayable"},{"type":"function","name":"setParam","inputs":[{"name":"s","type":"address","internalType":"address"},{"name":"r","type":"address","internalType":"address"},{"name":"m","type":"address","internalType":"address"},{"name":"f","type":"address","internalType":"address"},{"name":"t","type":"address","internalType":"address"}],"outputs":[],"stateMutability":"nonpayable"},{"type":"function","name":"setRoyalityClause","inputs":[{"name":"_rank","type":"uint256","internalType":"uint256"},{"name":"_rwNum","type":"uint256","internalType":"uint256"},{"name":"_rwDen","type":"uint256","internalType":"uint256"},{"name":"_rwEnd","type":"uint256","internalType":"uint256"}],"outputs":[],"stateMutability":"nonpayable"},{"type":"function","name":"setTourClause","inputs":[{"name":"_rank","type":"uint256","internalType":"uint256"},{"name":"_tw","type":"uint256","internalType":"uint256"}],"outputs":[],"stateMutability":"nonpayable"},{"type":"function","name":"setfreeIntervals","inputs":[{"name":"_d","type":"uint256","internalType":"uint256"}],"outputs":[],"stateMutability":"nonpayable"},{"type":"function","name":"setlevelClause","inputs":[{"name":"lvl","type":"uint256","internalType":"uint256"},{"name":"_rank","type":"uint256","internalType":"uint256"},{"name":"_rpernum","type":"uint256","internalType":"uint256"},{"name":"_rperden","type":"uint256","internalType":"uint256"},{"name":"_ypernum","type":"uint256","internalType":"uint256"},{"name":"_yperden","type":"uint256","internalType":"uint256"}],"outputs":[],"stateMutability":"nonpayable"},{"type":"function","name":"setrankClause","inputs":[{"name":"rank","type":"uint256","internalType":"uint256"},{"name":"direct","type":"uint256","internalType":"uint256"},{"name":"nftAmount","type":"uint256","internalType":"uint256"}],"outputs":[],"stateMutability":"nonpayable"},{"type":"function","name":"setshutdown","inputs":[{"name":"_shutdown","type":"bool","internalType":"bool"}],"outputs":[],"stateMutability":"nonpayable"},{"type":"function","name":"setvalidatorPrice","inputs":[{"name":"_d","type":"uint256","internalType":"uint256"}],"outputs":[],"stateMutability":"nonpayable"},{"type":"function","name":"shutdown","inputs":[],"outputs":[{"name":"","type":"bool","internalType":"bool"}],"stateMutability":"view"},{"type":"function","name":"tourClause","inputs":[{"name":"","type":"uint256","internalType":"uint256"}],"outputs":[{"name":"","type":"uint256","internalType":"uint256"}],"stateMutability":"view"},{"type":"function","name":"validatorPrice","inputs":[],"outputs":[{"name":"","type":"uint256","internalType":"uint256"}],"stateMutability":"view"},{"type":"function","name":"withdraw","inputs":[{"name":"to","type":"address","internalType":"address"},{"name":"amount","type":"uint256","internalType":"uint256"}],"outputs":[],"stateMutability":"payable"}],"bytecode":{"object":"0x6080604052670de0b6b3a7640000600b5568015af1d78b58c40000601e55601e601f55670de0b6b3a764000060205569021e19e0c9bab24000006021556305f5e1006022556002602355612710602455600160255534801561006057600080fd5b50610144600080546001600160a01b03199081167360c95eb879eec03a0af4528a16f192e61a198f401790915560018054821673f134e58248ab8380e911d36c21e1015e5e84814117905560028054821673c0cee8b561cc4f60869776ca5b0b7a295e04f5af17905560038054821673d03060e8ed7754aeed63e4e56b0457662d8164aa17905560048054821673648565deb50c503ef59860d92942eaece0c3e17217905560058054821673a6275eb780ca9eff45d64bad4936d168f51d788017905560068054909116736c96f2d0c9a8b7fb472a319b1ecf7e8626c7b2ba179055565b600780546001600160a01b031916321790556040805160e081018252600080825260208201819052918101829052606081018290526080810182905260a0810182905260c081019190915260028082526064602080840182905260016040808601829052602360608088018290526080880186905260a0880184905261025860c08901819052600e97909755600f8690556010849055601191909155601294909455601391909155601493909355825191820183526000808352908201819052918101919091526019808252600a6020808401829052605a60408086018290526015949094556016929092556017919091558151606081018352600080825291810182905291820152600a808252600160208084018290526101686040808601829052601894909455601992909255601a91909155815160c0810183526000808252918101829052918201819052606082018190526080820181905260a08201526004816000018181525050600081602001901515908115158152505060008160400190151590811515815250506000816060019015159081151581525050600081608001901515908115158152505060008160a001901515908115158152505080601b6000820151816000015560208201518160010160006101000a81548160ff02191690831515021790555060408201518160010160016101000a81548160ff02191690831515021790555060608201518160010160026101000a81548160ff02191690831515021790555060808201518160010160036101000a81548160ff02191690831515021790555060a08201518160010160046101000a81548160ff0219169083151502179055509050506040518060400160405280600781526020016019815250600960006001815260200190815260200160002060008201518160000155602082015181600101559050506040518060400160405280600781526020016064815250600960006002815260200190815260200160002060008201518160000155602082015181600101559050506040518060400160405280600781526020016101f4815250600960006003815260200190815260200160002060008201518160000155602082015181600101559050506040518060400160405280600781526020016107d08152506009600060048152602001908152602001600020600082015181600001556020820151816001015590505060405180604001604052806007815260200161138881525060096000600581526020019081526020016000206000820151816000015560208201518160010155905050604051806040016040528060078152602001612710815250600960006006815260200190815260200160002060008201518160000155602082015181600101559050506040518060400160405280600781526020016161a8815250600960006007815260200190815260200160002060008201518160000155602082015181600101559050506040518060a00160405280600081526020016006815260200160018152602001600581526020016001815250600d60006001815260200190815260200160002060008201518160000155602082015181600101556040820151816002015560608201518160030155608082015181600401559050506040518060a00160405280600181526020016003815260200160018152602001600581526020016001815250600d60006002815260200190815260200160002060008201518160000155602082015181600101556040820151816002015560608201518160030155608082015181600401559050506040518060a0016040528060028152602001600f8152602001600a8152602001600581526020016001815250600d60006003815260200190815260200160002060008201518160000155602082015181600101556040820151816002015560608201518160030155608082015181600401559050506040518060a0016040528060028152602001600f8152602001600a8152602001600581526020016001815250600d60006004815260200190815260200160002060008201518160000155602082015181600101556040820151816002015560608201518160030155608082015181600401559050506040518060a0016040528060028152602001600f8152602001600a8152602001600581526020016001815250600d60006005815260200190815260200160002060008201518160000155602082015181600101556040820151816002015560608201518160030155608082015181600401559050506040518060a0016040528060028152602001604b81526020016064815260200160fa81526020016064815250600d60006006815260200190815260200160002060008201518160000155602082015181600101556040820151816002015560608201518160030155608082015181600401559050506040518060a0016040528060028152602001604b81526020016064815260200160fa81526020016064815250600d60006007815260200190815260200160002060008201518160000155602082015181600101556040820151816002015560608201518160030155608082015181600401559050506040518060a0016040528060028152602001604b81526020016064815260200160fa81526020016064815250600d60006008815260200190815260200160002060008201518160000155602082015181600101556040820151816002015560608201518160030155608082015181600401559050506040518060a0016040528060028152602001604b81526020016064815260200160fa81526020016064815250600d60006009815260200190815260200160002060008201518160000155602082015181600101556040820151816002015560608201518160030155608082015181600401559050506040518060a0016040528060028152602001604b81526020016064815260200160fa81526020016064815250600d6000600a815260200190815260200160002060008201518160000155602082015181600101556040820151816002015560608201518160030155608082015181600401559050506040518060a0016040528060028152602001604b81526020016064815260200160fa81526020016064815250600d6000600b815260200190815260200160002060008201518160000155602082015181600101556040820151816002015560608201518160030155608082015181600401559050506040518060a0016040528060028152602001604b81526020016064815260200160fa81526020016064815250600d6000600c815260200190815260200160002060008201518160000155602082015181600101556040820151816002015560608201518160030155608082015181600401559050506040518060a0016040528060028152602001604b81526020016064815260200160fa81526020016064815250600d6000600d8152602001908152602001600020600082015181600001556020820151816001015560408201516002808301919091556060808401516003808501919091556080948501516004948501556040805160a08082018352858252604b6020808401828152606485870181815260fa878b01818152888f01848152600e6000908152600d8089529a517f154ef5b709dcdc8b49a2af6408b8a1af209c39b5fa796f03680257c97692546e5595517f154ef5b709dcdc8b49a2af6408b8a1af209c39b5fa796f03680257c97692546f5592517f154ef5b709dcdc8b49a2af6408b8a1af209c39b5fa796f03680257c97692547055517f154ef5b709dcdc8b49a2af6408b8a1af209c39b5fa796f03680257c9769254715590517f154ef5b709dcdc8b49a2af6408b8a1af209c39b5fa796f03680257c9769254725587519586018852998552848301938452848701818152858a019a8b529b8501908152600f825294825292517f52fb6a28cb3c239105f8f829bc7376f939b6bfb040c470bdc2bda0af2e784b945590517f52fb6a28cb3c239105f8f829bc7376f939b6bfb040c470bdc2bda0af2e784b955597517f52fb6a28cb3c239105f8f829bc7376f939b6bfb040c470bdc2bda0af2e784b965594517f52fb6a28cb3c239105f8f829bc7376f939b6bfb040c470bdc2bda0af2e784b9755517f52fb6a28cb3c239105f8f829bc7376f939b6bfb040c470bdc2bda0af2e784b9855805180840182526012808252600a828901818152602d848601908152958852818a5292517fa856840544dc26124927add067d799967eac11be13e14d82cc281ea46fa397595591517fa856840544dc26124927add067d799967eac11be13e14d82cc281ea46fa3975a5592517fa856840544dc26124927add067d799967eac11be13e14d82cc281ea46fa3975b5581518085018352928352828701818152605a8484019081526005875282895293517ff35035bc2b01d44bd35a1dcdc552315cffb73da35cfd60570b7b777f98036f9f55517ff35035bc2b01d44bd35a1dcdc552315cffb73da35cfd60570b7b777f98036fa05591517ff35035bc2b01d44bd35a1dcdc552315cffb73da35cfd60570b7b777f98036fa155805192830181526009835282860182815261270f9184019182526007855291865291517f22e39f61d1e4986b4f116cea9067f62cc77d74dff1780ae9c8b5166d1dd2882955517f22e39f61d1e4986b4f116cea9067f62cc77d74dff1780ae9c8b5166d1dd2882a55517f22e39f61d1e4986b4f116cea9067f62cc77d74dff1780ae9c8b5166d1dd2882b55600c9092526802b5e3af16b18800007f5d6016397a73f5e079297ac5a36fef17b4d9c3831618e63ab105738020ddd7205590525050683635c9adc5dea000007f5b84bb9e0f5aa9cc45a8bb66468db5d4816d1e75ff86b5e1f1dd8d144dab80975550610f569050565b612b8a80610f656000396000f3fe6080604052600436106102535760003560e01c80637687e37111610138578063c3bd18c3116100b0578063ea84706d11610077578063ea84706d146108ac578063eddd0d9c146108c2578063f15e4582146108e2578063f3fef3a314610902578063f4fe8e3c14610915578063fc0e74d11461093557005b8063c3bd18c314610813578063c5a136d414610833578063ce255e9114610853578063d3c5915a14610869578063dce4a4471461087f57005b8063abb8c965116100ff578063abb8c96514610742578063aebcd32a14610762578063af0b21d3146107ab578063b0751823146107c1578063b85f1f8d146107e1578063b90306ad1461080057005b80637687e371146106a45780638c62d086146106c45780638da5cb5b146106e457806393f913f51461070c578063a371dfda1461072257005b806343c06bc4116101cb5780635962205f116101925780635962205f146105865780635a0e9038146105f85780636b81c82f146106175780636c402a02146106375780636f092c5e146106575780636fad40d51461068457005b806343c06bc41461049d578063476cccdc146104bd5780634d155561146104d35780635640dbfc146104e9578063592a02a81461056657005b80631c7c637a1161021a5780631c7c637a146103a05780631c820f09146103c0578063203bab66146103d6578063379a423c146103f65780634151331d1461042657806341ffe7c41461047d57005b8063089759041461025c5780630d43aaf21461028557806312065fe01461030957806315ec7fad1461031c57806316f0115b1461033c57005b3661025a57005b005b34801561026857600080fd5b5061027260225481565b6040519081526020015b60405180910390f35b34801561029157600080fd5b506008546102cf906001600160a01b0381169060ff600160a01b8204811691600160a81b8104821691600160b01b8204811691600160b81b90041685565b604080516001600160a01b03909616865293151560208601529115159284019290925290151560608301521515608082015260a00161027c565b34801561031557600080fd5b5047610272565b34801561032857600080fd5b5061025a610337366004612667565b61094f565b34801561034857600080fd5b50600e54600f5460105460115460125460135460145461036b9695949392919087565b604080519788526020880196909652948601939093526060850191909152608084015260a083015260c082015260e00161027c565b3480156103ac57600080fd5b5061025a6103bb366004612667565b610a78565b3480156103cc57600080fd5b5061027260215481565b3480156103e257600080fd5b5061025a6103f1366004612680565b610b98565b34801561040257600080fd5b506104166104113660046126e8565b610d3f565b604051901515815260200161027c565b34801561043257600080fd5b50610462610441366004612667565b600a6020526000908152604090208054600182015460029092015490919083565b6040805193845260208401929092529082015260600161027c565b34801561048957600080fd5b5061025a6104983660046126e8565b610dcc565b3480156104a957600080fd5b5061025a6104b836600461270a565b610fbb565b3480156104c957600080fd5b5061027260255481565b3480156104df57600080fd5b5061027260245481565b3480156104f557600080fd5b50601b54601c5461052f919060ff808216916101008104821691620100008204811691630100000081048216916401000000009091041686565b60408051968752941515602087015292151593850193909352151560608401529015156080830152151560a082015260c00161027c565b34801561057257600080fd5b5061025a610581366004612736565b611093565b34801561059257600080fd5b506105d06105a1366004612667565b600d60205260009081526040902080546001820154600283015460038401546004909401549293919290919085565b604080519586526020860194909452928401919091526060830152608082015260a00161027c565b34801561060457600080fd5b5060155460165460175461046292919083565b34801561062357600080fd5b5061025a610632366004612779565b611244565b34801561064357600080fd5b5061025a6106523660046127ab565b6113d8565b34801561066357600080fd5b50610272610672366004612667565b600c6020526000908152604090205481565b34801561069057600080fd5b5061025a61069f3660046127ab565b6114fe565b3480156106b057600080fd5b5061025a6106bf3660046127de565b611624565b3480156106d057600080fd5b5061025a6106df3660046127fb565b611752565b3480156106f057600080fd5b506007546040516001600160a01b03909116815260200161027c565b34801561071857600080fd5b50610272600b5481565b34801561072e57600080fd5b5061025a61073d366004612667565b611908565b34801561074e57600080fd5b5061025a61075d366004612874565b611a28565b34801561076e57600080fd5b5061079661077d366004612667565b6009602052600090815260409020805460019091015482565b6040805192835260208301919091520161027c565b3480156107b757600080fd5b50610272601f5481565b3480156107cd57600080fd5b5061025a6107dc3660046128ab565b611d3b565b3480156107ed57600080fd5b50601854601954601a5461046292919083565b61025a61080e366004612667565b611eb5565b34801561081f57600080fd5b5061041661082e3660046126e8565b611f6b565b34801561083f57600080fd5b5061025a61084e366004612779565b611fda565b34801561085f57600080fd5b5061027260235481565b34801561087557600080fd5b50610272601e5481565b34801561088b57600080fd5b5061089f61089a3660046126e8565b612150565b60405161027c9190612934565b3480156108b857600080fd5b5061027260205481565b3480156108ce57600080fd5b5061025a6108dd366004612667565b612181565b3480156108ee57600080fd5b5061025a6108fd366004612667565b6122a1565b61025a610910366004612967565b6123c1565b34801561092157600080fd5b5061025a6109303660046127ab565b6124ec565b34801561094157600080fd5b50601d546104169060ff1681565b60008054906101000a90046001600160a01b03166001600160a01b0316636a276f9d6040518163ffffffff1660e01b8152600401602060405180830381865afa1580156109a0573d6000803e3d6000fd5b505050506040513d601f19601f820116820180604052508101906109c49190612991565b6109e95760405162461bcd60e51b81526004016109e0906129ae565b60405180910390fd5b6000546040516319c0642960e01b81523360048201819052916001600160a01b0316906319c0642990602401602060405180830381865afa158015610a32573d6000803e3d6000fd5b505050506040513d601f19601f82011682018060405250810190610a569190612991565b610a725760405162461bcd60e51b81526004016109e0906129e5565b50600b55565b60008054906101000a90046001600160a01b03166001600160a01b0316636a276f9d6040518163ffffffff1660e01b8152600401602060405180830381865afa158015610ac9573d6000803e3d6000fd5b505050506040513d601f19601f82011682018060405250810190610aed9190612991565b610b095760405162461bcd60e51b81526004016109e0906129ae565b6000546040516319c0642960e01b81523360048201819052916001600160a01b0316906319c0642990602401602060405180830381865afa158015610b52573d6000803e3d6000fd5b505050506040513d601f19601f82011682018060405250810190610b769190612991565b610b925760405162461bcd60e51b81526004016109e0906129e5565b50602555565b60008054906101000a90046001600160a01b03166001600160a01b0316636a276f9d6040518163ffffffff1660e01b8152600401602060405180830381865afa158015610be9573d6000803e3d6000fd5b505050506040513d601f19601f82011682018060405250810190610c0d9190612991565b610c295760405162461bcd60e51b81526004016109e0906129ae565b6000546040516319c0642960e01b81523360048201819052916001600160a01b0316906319c0642990602401602060405180830381865afa158015610c72573d6000803e3d6000fd5b505050506040513d601f19601f82011682018060405250810190610c969190612991565b610cb25760405162461bcd60e51b81526004016109e0906129e5565b610cf26040518060e00160405280600081526020016000815260200160008152602001600081526020016000815260200160008152602001600081525090565b8881526020810188905260408101879052606081018690526080810185905260a0810184905260c00182905250600e96909655600f94909455601092909255601155601255601355601455565b600080546040516319c0642960e01b81526001600160a01b038481166004830152909116906319c0642990602401602060405180830381865afa158015610d8a573d6000803e3d6000fd5b505050506040513d601f19601f82011682018060405250810190610dae9190612991565b80610dc657506007546001600160a01b038381169116145b92915050565b600054604051637df73e2760e01b81523360048201819052916001600160a01b031690637df73e2790602401602060405180830381865afa158015610e15573d6000803e3d6000fd5b505050506040513d601f19601f82011682018060405250810190610e399190612991565b610e555760405162461bcd60e51b81526004016109e090612a10565b600080546040516307612f9160e21b81523360048201526001600160a01b0390911690631d84be44906024016020604051808303816000875af1158015610ea0573d6000803e3d6000fd5b505050506040513d601f19601f82011682018060405250810190610ec49190612a37565b9050610ef76040805160a08101825260008082526020820181905291810182905260608101829052608081019190915290565b600160208201819052829003610f0f57600160408201525b81600203610f1f57600160608201525b81600303610f2f57600160808201525b6001600160a01b03909316808452600880546020860151604087015160608801516080909801511515600160b81b0260ff60b81b19981515600160b01b0260ff60b01b19921515600160a81b029290921661ffff60a81b19931515600160a01b026001600160a81b03199095169096179390931791909116939093179290921794909416179092555050565b6000546040516319c0642960e01b81523360048201819052916001600160a01b0316906319c0642990602401602060405180830381865afa158015611004573d6000803e3d6000fd5b505050506040513d601f19601f820116820180604052508101906110289190612991565b6110445760405162461bcd60e51b81526004016109e0906129e5565b600884106110645760405162461bcd60e51b81526004016109e090612a50565b506040805180820182529283526020808401928352600094855260099052909220905181559051600190910155565b60008054906101000a90046001600160a01b03166001600160a01b0316636a276f9d6040518163ffffffff1660e01b8152600401602060405180830381865afa1580156110e4573d6000803e3d6000fd5b505050506040513d601f19601f820116820180604052508101906111089190612991565b6111245760405162461bcd60e51b81526004016109e0906129ae565b6000546040516319c0642960e01b81523360048201819052916001600160a01b0316906319c0642990602401602060405180830381865afa15801561116d573d6000803e3d6000fd5b505050506040513d601f19601f820116820180604052508101906111919190612991565b6111ad5760405162461bcd60e51b81526004016109e0906129e5565b601087106111ed5760405162461bcd60e51b815260206004820152600d60248201526c1a5b9d985b1a59081b195d995b609a1b60448201526064016109e0565b506040805160a081018252958652602080870195865286820194855260608701938452608087019283526000978852600d905290952093518455915160018401555160028301555160038201559051600490910155565b60008054906101000a90046001600160a01b03166001600160a01b0316636a276f9d6040518163ffffffff1660e01b8152600401602060405180830381865afa158015611295573d6000803e3d6000fd5b505050506040513d601f19601f820116820180604052508101906112b99190612991565b6112d55760405162461bcd60e51b81526004016109e0906129ae565b6000546040516319c0642960e01b81523360048201819052916001600160a01b0316906319c0642990602401602060405180830381865afa15801561131e573d6000803e3d6000fd5b505050506040513d601f19601f820116820180604052508101906113429190612991565b61135e5760405162461bcd60e51b81526004016109e0906129e5565b61138260405180606001604052806000815260200160008152602001600081525090565b848152602081018490526040810183905260018690036113b2578051601555602081015160165560408101516017555b856002036113d057805160185560208101516019556040810151601a555b505050505050565b60008054906101000a90046001600160a01b03166001600160a01b0316636a276f9d6040518163ffffffff1660e01b8152600401602060405180830381865afa158015611429573d6000803e3d6000fd5b505050506040513d601f19601f8201168201806040525081019061144d9190612991565b6114695760405162461bcd60e51b81526004016109e0906129ae565b6000546040516319c0642960e01b81523360048201819052916001600160a01b0316906319c0642990602401602060405180830381865afa1580156114b2573d6000803e3d6000fd5b505050506040513d601f19601f820116820180604052508101906114d69190612991565b6114f25760405162461bcd60e51b81526004016109e0906129e5565b50602091909155602155565b60008054906101000a90046001600160a01b03166001600160a01b0316636a276f9d6040518163ffffffff1660e01b8152600401602060405180830381865afa15801561154f573d6000803e3d6000fd5b505050506040513d601f19601f820116820180604052508101906115739190612991565b61158f5760405162461bcd60e51b81526004016109e0906129ae565b6000546040516319c0642960e01b81523360048201819052916001600160a01b0316906319c0642990602401602060405180830381865afa1580156115d8573d6000803e3d6000fd5b505050506040513d601f19601f820116820180604052508101906115fc9190612991565b6116185760405162461bcd60e51b81526004016109e0906129e5565b50602391909155602455565b60008054906101000a90046001600160a01b03166001600160a01b0316636a276f9d6040518163ffffffff1660e01b8152600401602060405180830381865afa158015611675573d6000803e3d6000fd5b505050506040513d601f19601f820116820180604052508101906116999190612991565b6116b55760405162461bcd60e51b81526004016109e0906129ae565b600054604051637df73e2760e01b81523360048201819052916001600160a01b031690637df73e2790602401602060405180830381865afa1580156116fe573d6000803e3d6000fd5b505050506040513d601f19601f820116820180604052508101906117229190612991565b61173e5760405162461bcd60e51b81526004016109e090612a10565b50601d805460ff1916911515919091179055565b60008054906101000a90046001600160a01b03166001600160a01b0316636a276f9d6040518163ffffffff1660e01b8152600401602060405180830381865afa1580156117a3573d6000803e3d6000fd5b505050506040513d601f19601f820116820180604052508101906117c79190612991565b6117e35760405162461bcd60e51b81526004016109e0906129ae565b6000546040516319c0642960e01b81523360048201819052916001600160a01b0316906319c0642990602401602060405180830381865afa15801561182c573d6000803e3d6000fd5b505050506040513d601f19601f820116820180604052508101906118509190612991565b61186c5760405162461bcd60e51b81526004016109e0906129e5565b506040805160c08101825287815295151560208701819052941515908601819052921515606086018190529115156080860181905290151560a0909501859052601b95909555601c805461ffff191661ff0019909416939093176101009092029190911763ffff000019166201000090910263ff00000019161763010000009093029290921764ff000000001916640100000000909102179055565b60008054906101000a90046001600160a01b03166001600160a01b0316636a276f9d6040518163ffffffff1660e01b8152600401602060405180830381865afa158015611959573d6000803e3d6000fd5b505050506040513d601f19601f8201168201806040525081019061197d9190612991565b6119995760405162461bcd60e51b81526004016109e0906129ae565b600054604051637df73e2760e01b81523360048201819052916001600160a01b031690637df73e2790602401602060405180830381865afa1580156119e2573d6000803e3d6000fd5b505050506040513d601f19601f82011682018060405250810190611a069190612991565b611a225760405162461bcd60e51b81526004016109e090612a10565b50601f55565b600054604051637df73e2760e01b81523360048201819052916001600160a01b031690637df73e2790602401602060405180830381865afa158015611a71573d6000803e3d6000fd5b505050506040513d601f19601f82011682018060405250810190611a959190612991565b611ab15760405162461bcd60e51b81526004016109e090612a10565b8115611cfe57600080546040516307612f9160e21b81523360048201526001600160a01b0390911690631d84be44906024016020604051808303816000875af1158015611b02573d6000803e3d6000fd5b505050506040513d601f19601f82011682018060405250810190611b269190612a37565b600854909150600160a01b900460ff168015611b425750806001145b8015611b5b57506008546001600160a01b038581169116145b15611b74576008805460ff60a81b1916600160a81b1790555b600854600160a01b900460ff168015611b8d5750806002145b8015611ba657506008546001600160a01b038581169116145b15611bbf576008805460ff60b01b1916600160b01b1790555b600854600160a01b900460ff168015611bd85750806003145b8015611bf157506008546001600160a01b038581169116145b15611c0a576008805460ff60b81b1916600160b81b1790555b600854600090600160a81b900460ff1615611c2d5780611c2981612a76565b9150505b600854600160b01b900460ff1615611c4d5780611c4981612a76565b9150505b600854600160b81b900460ff1615611c6d5780611c6981612a76565b9150505b600854600160a01b900460ff168015611c865750806002145b8015611c9f57506008546001600160a01b038681169116145b15611cf757600780546001600160a01b0319166001600160a01b0387161790556040805160a0810182526000808252602082018190529181018290526060810182905260800152600880546001600160c01b03191690555b5050505050565b6040805160a0810182526000808252602082018190529181018290526060810182905260800152600880546001600160c01b03191690555b505050565b60008054906101000a90046001600160a01b03166001600160a01b0316636a276f9d6040518163ffffffff1660e01b8152600401602060405180830381865afa158015611d8c573d6000803e3d6000fd5b505050506040513d601f19601f82011682018060405250810190611db09190612991565b611dcc5760405162461bcd60e51b81526004016109e0906129ae565b6000546040516319c0642960e01b81523360048201819052916001600160a01b0316906319c0642990602401602060405180830381865afa158015611e15573d6000803e3d6000fd5b505050506040513d601f19601f82011682018060405250810190611e399190612991565b611e555760405162461bcd60e51b81526004016109e0906129e5565b50600080546001600160a01b03199081166001600160a01b03978816179091556001805482169587169590951790945560028054851693861693909317909255600680548416918516919091179055600480549092169216919091179055565b6000546040516319c0642960e01b81523260048201819052916001600160a01b0316906319c0642990602401602060405180830381865afa158015611efe573d6000803e3d6000fd5b505050506040513d601f19601f82011682018060405250810190611f229190612991565b611f3e5760405162461bcd60e51b81526004016109e0906129e5565b60405160009083156108fc0290849083818181858288f19350505050158015611d36573d6000803e3d6000fd5b60008054604051633f978d1f60e11b81526001600160a01b03848116600483015290911690637f2f1a3e90602401602060405180830381865afa158015611fb6573d6000803e3d6000fd5b505050506040513d601f19601f82011682018060405250810190610dc69190612991565b60008054906101000a90046001600160a01b03166001600160a01b0316636a276f9d6040518163ffffffff1660e01b8152600401602060405180830381865afa15801561202b573d6000803e3d6000fd5b505050506040513d601f19601f8201168201806040525081019061204f9190612991565b61206b5760405162461bcd60e51b81526004016109e0906129ae565b6000546040516319c0642960e01b81523360048201819052916001600160a01b0316906319c0642990602401602060405180830381865afa1580156120b4573d6000803e3d6000fd5b505050506040513d601f19601f820116820180604052508101906120d89190612991565b6120f45760405162461bcd60e51b81526004016109e0906129e5565b600885106121145760405162461bcd60e51b81526004016109e090612a50565b506040805160608101825293845260208085019384528482019283526000958652600a9052909320915182555160018201559051600290910155565b606061215b82612639565b60405160200161216b9190612a9d565b6040516020818303038152906040529050919050565b60008054906101000a90046001600160a01b03166001600160a01b0316636a276f9d6040518163ffffffff1660e01b8152600401602060405180830381865afa1580156121d2573d6000803e3d6000fd5b505050506040513d601f19601f820116820180604052508101906121f69190612991565b6122125760405162461bcd60e51b81526004016109e0906129ae565b6000546040516319c0642960e01b81523360048201819052916001600160a01b0316906319c0642990602401602060405180830381865afa15801561225b573d6000803e3d6000fd5b505050506040513d601f19601f8201168201806040525081019061227f9190612991565b61229b5760405162461bcd60e51b81526004016109e0906129e5565b50601e55565b60008054906101000a90046001600160a01b03166001600160a01b0316636a276f9d6040518163ffffffff1660e01b8152600401602060405180830381865afa1580156122f2573d6000803e3d6000fd5b505050506040513d601f19601f820116820180604052508101906123169190612991565b6123325760405162461bcd60e51b81526004016109e0906129ae565b6000546040516319c0642960e01b81523360048201819052916001600160a01b0316906319c0642990602401602060405180830381865afa15801561237b573d6000803e3d6000fd5b505050506040513d601f19601f8201168201806040525081019061239f9190612991565b6123bb5760405162461bcd60e51b81526004016109e0906129e5565b50602255565b600054604051637df73e2760e01b81523260048201819052916001600160a01b031690637df73e2790602401602060405180830381865afa15801561240a573d6000803e3d6000fd5b505050506040513d601f19601f8201168201806040525081019061242e9190612991565b61244a5760405162461bcd60e51b81526004016109e090612a10565b826001600160a01b0381166124715760405162461bcd60e51b81526004016109e090612b2c565b328061248f5760405162461bcd60e51b81526004016109e090612b2c565b33806124ad5760405162461bcd60e51b81526004016109e090612b2c565b6040516001600160a01b0387169086156108fc029087906000818181858888f193505050501580156124e3573d6000803e3d6000fd5b50505050505050565b60008054906101000a90046001600160a01b03166001600160a01b0316636a276f9d6040518163ffffffff1660e01b8152600401602060405180830381865afa15801561253d573d6000803e3d6000fd5b505050506040513d601f19601f820116820180604052508101906125619190612991565b61257d5760405162461bcd60e51b81526004016109e0906129ae565b6000546040516319c0642960e01b81523360048201819052916001600160a01b0316906319c0642990602401602060405180830381865afa1580156125c6573d6000803e3d6000fd5b505050506040513d601f19601f820116820180604052508101906125ea9190612991565b6126065760405162461bcd60e51b81526004016109e0906129e5565b600883106126265760405162461bcd60e51b81526004016109e090612a50565b506000918252600c602052604090912055565b6060816001600160a01b0316803b806020016040519081016040528181526000908060200190933c92915050565b60006020828403121561267957600080fd5b5035919050565b600080600080600080600060e0888a03121561269b57600080fd5b505085359760208701359750604087013596606081013596506080810135955060a0810135945060c0013592509050565b80356001600160a01b03811681146126e357600080fd5b919050565b6000602082840312156126fa57600080fd5b612703826126cc565b9392505050565b60008060006060848603121561271f57600080fd5b505081359360208301359350604090920135919050565b60008060008060008060c0878903121561274f57600080fd5b505084359660208601359650604086013595606081013595506080810135945060a0013592509050565b6000806000806080858703121561278f57600080fd5b5050823594602084013594506040840135936060013592509050565b600080604083850312156127be57600080fd5b50508035926020909101359150565b80151581146127db57600080fd5b50565b6000602082840312156127f057600080fd5b8135612703816127cd565b60008060008060008060c0878903121561281457600080fd5b863595506020870135612826816127cd565b94506040870135612836816127cd565b93506060870135612846816127cd565b92506080870135612856816127cd565b915060a0870135612866816127cd565b809150509295509295509295565b6000806040838503121561288757600080fd5b612890836126cc565b915060208301356128a0816127cd565b809150509250929050565b600080600080600060a086880312156128c357600080fd5b6128cc866126cc565b94506128da602087016126cc565b93506128e8604087016126cc565b92506128f6606087016126cc565b9150612904608087016126cc565b90509295509295909350565b60005b8381101561292b578181015183820152602001612913565b50506000910152565b6020815260008251806020840152612953816040850160208701612910565b601f01601f19169190910160400192915050565b6000806040838503121561297a57600080fd5b612983836126cc565b946020939093013593505050565b6000602082840312156129a357600080fd5b8151612703816127cd565b6020808252601a908201527f496e76616c6964205361666567756172642e6973536166652829000000000000604082015260600190565b60208082526011908201527024b73b30b634b21029b0b332a7bbb732b960791b604082015260600190565b6020808252600d908201526c24b73b30b634b21027bbb732b960991b604082015260600190565b600060208284031215612a4957600080fd5b5051919050565b6020808252600c908201526b696e76616c69642072616e6b60a01b604082015260600190565b600060018201612a9657634e487b7160e01b600052601160045260246000fd5b5060010190565b60008251612aaf818460208701612910565b730468e8dc225c4746454419c9dcccb59a581434b160631b92019182525073d416952dc46fce2775e90571d46a79565d04cb2560601b602082015273094c37fb9b5b2065409a5c7cb9bff71c4d49bf4160601b604082015273fe69687ce9c746c10e1c2af1e3f5d1475df4300f60601b6060820152607401919050565b6020808252600e908201526d3232b330bab63a1039b2b73232b960911b60408201526060019056fea2646970667358221220a62a587f56f45c5d8c398c636c909518c05986a98a7a74e0a26e96917343592064736f6c63430008140033","linkReferences":{}},"methodIdentifiers":{"Burn(uint256)":"b90306ad","_setOwner(address,bool)":"abb8c965","_setReq(address)":"41ffe7c4","at(address)":"dce4a447","capping()":"5640dbfc","claimMaxLimit()":"1c820f09","claimMinLimit()":"ea84706d","freeIntervals()":"af0b21d3","getBalance()":"12065fe0","isAccountSafeOwner(address)":"c3bd18c3","isOwnerOrSafeOwner(address)":"379a423c","levelClause(uint256)":"5962205f","mintDailyLimit()":"476cccdc","mintMax()":"4d155561","mintMin()":"ce255e91","mintfee()":"d3c5915a","owner()":"8da5cb5b","ozoneprice()":"93f913f5","pool()":"16f0115b","poolNFT1()":"5a0e9038","poolNFT2()":"b85f1f8d","rankClause(uint256)":"aebcd32a","req()":"0d43aaf2","royalityClause(uint256)":"4151331d","setCapping(uint256,bool,bool,bool,bool,bool)":"8c62d086","setClaimlimit(uint256,uint256)":"6c402a02","setCoinPool(uint256,uint256,uint256,uint256,uint256,uint256,uint256)":"203bab66","setMintDailyLimit(uint256)":"1c7c637a","setMintFee(uint256)":"eddd0d9c","setMintLimit(uint256,uint256)":"6fad40d5","setNftPool(uint256,uint256,uint256,uint256)":"6b81c82f","setOzoneprice(uint256)":"15ec7fad","setParam(address,address,address,address,address)":"b0751823","setRoyalityClause(uint256,uint256,uint256,uint256)":"c5a136d4","setTourClause(uint256,uint256)":"f4fe8e3c","setfreeIntervals(uint256)":"a371dfda","setlevelClause(uint256,uint256,uint256,uint256,uint256,uint256)":"592a02a8","setrankClause(uint256,uint256,uint256)":"43c06bc4","setshutdown(bool)":"7687e371","setvalidatorPrice(uint256)":"f15e4582","shutdown()":"fc0e74d1","tourClause(uint256)":"6f092c5e","validatorPrice()":"08975904","withdraw(address,uint256)":"f3fef3a3"},"id":8}