{"abi":[{"type":"constructor","inputs":[{"name":"_f","type":"address","internalType":"address"}],"stateMutability":"nonpayable"},{"type":"fallback","stateMutability":"payable"},{"type":"receive","stateMutability":"payable"},{"type":"function","name":"Burn","inputs":[{"name":"amount","type":"uint256","internalType":"uint256"}],"outputs":[],"stateMutability":"nonpayable"},{"type":"function","name":"_delegatorCount","inputs":[],"outputs":[{"name":"","type":"uint256","internalType":"uint256"}],"stateMutability":"view"},{"type":"function","name":"_getImplementation","inputs":[{"name":"clone","type":"address","internalType":"address"}],"outputs":[{"name":"impl","type":"address","internalType":"address"}],"stateMutability":"view"},{"type":"function","name":"_isDelegatorNode","inputs":[{"name":"sender","type":"address","internalType":"address"}],"outputs":[{"name":"","type":"bool","internalType":"bool"}],"stateMutability":"view"},{"type":"function","name":"_isSafe","inputs":[],"outputs":[{"name":"","type":"bool","internalType":"bool"}],"stateMutability":"view"},{"type":"function","name":"_isSecureBase","inputs":[{"name":"sender","type":"address","internalType":"address"}],"outputs":[{"name":"","type":"bool","internalType":"bool"}],"stateMutability":"view"},{"type":"function","name":"_isSigner","inputs":[{"name":"sender","type":"address","internalType":"address"}],"outputs":[{"name":"","type":"bool","internalType":"bool"}],"stateMutability":"view"},{"type":"function","name":"getBalance","inputs":[],"outputs":[{"name":"","type":"uint256","internalType":"uint256"}],"stateMutability":"view"},{"type":"function","name":"isNodeStopped","inputs":[{"name":"sender","type":"address","internalType":"address"}],"outputs":[{"name":"","type":"bool","internalType":"bool"}],"stateMutability":"view"},{"type":"function","name":"owner","inputs":[],"outputs":[{"name":"","type":"address","internalType":"address"}],"stateMutability":"view"},{"type":"function","name":"systemAge","inputs":[],"outputs":[{"name":"","type":"uint256","internalType":"uint256"}],"stateMutability":"view"}],"bytecode":{"object":"0x60803461007857601f610efc38819003918201601f19168301916001600160401b0383118484101761007d5780849260209460405283398101031261007857516001600160a01b038116908190036100785760018060a01b031980600154166001556000541617600055604051610e6890816100948239f35b600080fd5b634e487b7160e01b600052604160045260246000fdfe60806040526004361015610018575b361561001657005b005b60003560e01c806312065fe0146100c85780631f185d16146100c357806351bfd3ae146100be5780638da5cb5b146100b9578063a1f7f539146100b4578063af484526146100af578063b90306ad146100aa578063c54e44b0146100a5578063e01ad5fd146100a0578063e0a9bc2b1461009b5763fdc10bc90361000e57610912565b61087c565b610653565b6105ba565b610507565b61046e565b610345565b61031c565b6101c4565b6100fa565b346100e45760003660031901126100e457602047604051908152f35b600080fd5b6001600160a01b038116036100e457565b346100e4576020806003193601126100e45760048035610119816100e9565b60005460405163af0deb9560e01b81526001600160a01b03949093909182918591829088165afa9081156101bf5761018c9461017a94600093610190575b50604051931681840152825261016c82610964565b610174610a42565b90610deb565b60405190151581529081906020820190565b0390f35b6101b1919350823d84116101b8575b6101a9818361099c565b8101906109be565b9138610157565b503d61019f565b6109d6565b346100e45760203660031901126100e457600480356101e2816100e9565b600054602090610202906001600160a01b03165b6001600160a01b031690565b604051635335e5f160e11b815293849182905afa9182156101bf5761018c9261027092610254926000926102f8575b50604080516001600160a01b039092166020830152909261026291849190820190565b03601f19810184528361099c565b61026a610afa565b90610c7e565b6001600160a01b03811615906102b061029961028a610b29565b6102926109fe565b9084610deb565b916102a2610b50565b6102aa6109fe565b91610deb565b829081156102ce575b50506040519115158252509081906020820190565b91925090826102f0575b50816102e8575b503880806102b9565b9050386102df565b9150386102d8565b6102629192506103159060203d81116101b8576101a9818361099c565b9190610231565b346100e45760003660031901126100e4576001546040516001600160a01b039091168152602090f35b346100e45760008060031936011261046b57805461036b906001600160a01b03166101f6565b60405163387d334960e21b815260209290918383600481845afa80156101bf576103b18591600495859161044e575b506103a3610b74565b6103ab6109fe565b91610dad565b916040519485809263ab6e844f60e01b82525afa80156101bf5761018c9461041b94610416949261042b575b50610408906102546103ed610a6f565b94604051958693840160209093929193604081019481520152565b610410610c00565b90610dad565b610c39565b6040519081529081906020820190565b81925061044790610408923d85116101b8576101a9818361099c565b91906103dd565b6104659150833d85116101b8576101a9818361099c565b3861039a565b80fd5b346100e4576020806003193601126100e4576004803561048d816100e9565b60005460405163af0deb9560e01b81526001600160a01b03949093909182918591829088165afa9081156101bf5761018c9461017a946000936104e8575b5060405193168184015282526104e082610964565b610174610a11565b610500919350823d84116101b8576101a9818361099c565b91386104cb565b346100e45760203660031901126100e457600054604051634162169f60e01b8152906001600160a01b03906020908390600490829085165afa9182156101bf5760009261059a575b503391160361056357610016600435610c5d565b60405162461bcd60e51b815260206004820152600f60248201526e6f776e2e6e6f6e617574682e44414f60881b6044820152606490fd5b6105b391925060203d81116101b8576101a9818361099c565b903861054f565b346100e45760203660031901126100e4576004356105d7816100e9565b803b60006105e4826109e2565b926105f2604051948561099c565b82845260208401903c602d81511061061857602a015160405160609190911c8152602090f35b60405162461bcd60e51b81526020600482015260136024820152724e6f742061206d696e696d616c2070726f787960681b6044820152606490fd5b346100e4576020806003193601126100e457600435610671816100e9565b600054610686906001600160a01b03166101f6565b604090815163387d334960e21b81528481600481855afa80156101bf576106b79160009161086557506103a3610b74565b825163ab6e844f60e01b808252948682600481875afa9182156101bf5760009261083e575b5084516001600160a01b0390911687820190815261070f919081906020015b0392610262601f199485810184528361099c565b9284518681528781600481855afa9081156101bf57889161076591600091610821575b5087516001600160a01b03881684820190815290919061075d9083906020010387810184528361099c565b610410610b9c565b96600487518094819382525afa9687156101bf5761018c976107bf938693600092610800575b5087516001600160a01b0390941692840192835290916107b7919084906020010390810184528361099c565b610174610bd5565b6001600160a01b03909216151593846107f5575b5050826107ec575b505190151581529081906020820190565b159150386107db565b1015925038806107d3565b6107b7925061081b90843d86116101b8576101a9818361099c565b9161078b565b6108389150833d85116101b8576101a9818361099c565b38610732565b61070f91925061085d6106fb91893d8b116101b8576101a9818361099c565b9291506106dc565b6104659150863d88116101b8576101a9818361099c565b346100e45760003660031901126100e45760005460405163af0deb9560e01b815290602090829060049082906001600160a01b03165afa9081156101bf5761018c9161017a916000916108f4575b506040516108d781610964565b6008815267697353616665282960c01b60208201526102aa6109fe565b61090c915060203d81116101b8576101a9818361099c565b386108ca565b346100e45760003660031901126100e457602061092d610a6f565b604051908152f35b634e487b7160e01b600052604160045260246000fd5b67ffffffffffffffff811161095f57604052565b610935565b6040810190811067ffffffffffffffff82111761095f57604052565b6020810190811067ffffffffffffffff82111761095f57604052565b90601f8019910116810190811067ffffffffffffffff82111761095f57604052565b908160209103126100e457516109d3816100e9565b90565b6040513d6000823e3d90fd5b67ffffffffffffffff811161095f57601f01601f191660200190565b60405190610a0b82610980565b60008252565b60405190610a1e82610964565b601582527469735365637572654261736528616464726573732960581b6020830152565b60405190610a4f82610964565b601182527069735369676e657228616464726573732960781b6020830152565b60005460405163223df87160e11b815290602090829060049082906001600160a01b03165afa80156101bf576109d391600091610adc575b50604051610ab481610964565b6005815264616765282960d81b602082015260405191610ad383610980565b60008352610dad565b610af4915060203d81116101b8576101a9818361099c565b38610aa7565b60405190610b0782610964565b601382527255736572546f496e737428616464726573732960681b6020830152565b60405190610b3682610964565b600b82526a697353757370656e64282960a81b6020830152565b60405190610b5d82610964565b600882526769734c6f636b282960c01b6020830152565b60405190610b8182610964565b600c82526b72616e6b666f7244414f282960a01b6020830152565b60405190610ba982610964565b601982527f67657445666665637469766552616e6b286164647265737329000000000000006020830152565b60405190610be282610964565b600f82526e697353746f7028616464726573732960881b6020830152565b60405190610c0d82610964565b601d82527f67657472616e6b636f756e742875696e743235362c75696e74323536290000006020830152565b9060038201809211610c4757565b634e487b7160e01b600052601160045260246000fd5b600080808093818115610c75575b8290f1156101bf57565b506108fc610c6b565b9291610c8c91600094610ced565b9080610cb7575b610c9a5750565b9091506020818051810103126100e457602001516101f6816100e9565b506020815114610c93565b9081519160005b838110610cda575050016000815290565b8060208092840101518185015201610cc9565b919091803b15610d9457600092610d50610d5e8594610d206040519463ffffffff60e01b9060208151910120169461094b565b60405193602085015260048452610d3684610964565b604051928391610d4a602084018097610cc2565b90610cc2565b03601f19810183528261099c565b51915afa3d15610d8e573d610d72816109e2565b90610d80604051928361099c565b81523d6000602083013e9091565b60609091565b505050600090604051610da681610980565b6000815290565b9291610dbb91600094610ced565b9080610de0575b610dc95750565b9091506020818051810103126100e4576020015190565b506020815114610dc2565b9291610df991600094610ced565b9080610e27575b610e075750565b9091506020818051810103126100e4576020015180151581036100e45790565b506020815114610e0056fea2646970667358221220182e3ae42724d6b6846b21d1ad1a4455cd40ce225f25008d8bf57916e6bbe59464736f6c63430008140033","linkReferences":{}},"methodIdentifiers":{"Burn(uint256)":"b90306ad","_delegatorCount()":"a1f7f539","_getImplementation(address)":"c54e44b0","_isDelegatorNode(address)":"e01ad5fd","_isSafe()":"e0a9bc2b","_isSecureBase(address)":"af484526","_isSigner(address)":"1f185d16","getBalance()":"12065fe0","isNodeStopped(address)":"51bfd3ae","owner()":"8da5cb5b","systemAge()":"fdc10bc9"},"id":0}