{"abi":[{"type":"constructor","inputs":[{"name":"_hex","type":"address","internalType":"address"}],"stateMutability":"nonpayable"},{"type":"fallback","stateMutability":"payable"},{"type":"receive","stateMutability":"payable"},{"type":"function","name":"Burn","inputs":[{"name":"amount","type":"uint256","internalType":"uint256"}],"outputs":[],"stateMutability":"nonpayable"},{"type":"function","name":"UserToForm","inputs":[{"name":"","type":"address","internalType":"address"}],"outputs":[{"name":"","type":"uint256","internalType":"uint256"}],"stateMutability":"view"},{"type":"function","name":"_delegatorCount","inputs":[],"outputs":[{"name":"","type":"uint256","internalType":"uint256"}],"stateMutability":"view"},{"type":"function","name":"_getImplementation","inputs":[{"name":"clone","type":"address","internalType":"address"}],"outputs":[{"name":"impl","type":"address","internalType":"address"}],"stateMutability":"view"},{"type":"function","name":"_isDelegatorNode","inputs":[{"name":"sender","type":"address","internalType":"address"}],"outputs":[{"name":"","type":"bool","internalType":"bool"}],"stateMutability":"view"},{"type":"function","name":"_isSafe","inputs":[],"outputs":[{"name":"","type":"bool","internalType":"bool"}],"stateMutability":"view"},{"type":"function","name":"_isSecureBase","inputs":[{"name":"sender","type":"address","internalType":"address"}],"outputs":[{"name":"","type":"bool","internalType":"bool"}],"stateMutability":"view"},{"type":"function","name":"_isSigner","inputs":[{"name":"sender","type":"address","internalType":"address"}],"outputs":[{"name":"","type":"bool","internalType":"bool"}],"stateMutability":"view"},{"type":"function","name":"actualTVL","inputs":[],"outputs":[{"name":"","type":"uint256","internalType":"uint256"}],"stateMutability":"view"},{"type":"function","name":"closeTransferTarget","inputs":[{"name":"to","type":"address","internalType":"address"}],"outputs":[],"stateMutability":"nonpayable"},{"type":"function","name":"currentRefreshId","inputs":[],"outputs":[{"name":"","type":"uint256","internalType":"uint256"}],"stateMutability":"view"},{"type":"function","name":"forms","inputs":[{"name":"","type":"uint256","internalType":"uint256"}],"outputs":[{"name":"from","type":"address","internalType":"address"},{"name":"to","type":"address","internalType":"address"}],"stateMutability":"view"},{"type":"function","name":"getBalance","inputs":[],"outputs":[{"name":"","type":"uint256","internalType":"uint256"}],"stateMutability":"view"},{"type":"function","name":"getForm","inputs":[{"name":"formId","type":"uint256","internalType":"uint256"}],"outputs":[{"name":"from","type":"address","internalType":"address"},{"name":"to","type":"address","internalType":"address"}],"stateMutability":"view"},{"type":"function","name":"getFormsCount","inputs":[],"outputs":[{"name":"","type":"uint256","internalType":"uint256"}],"stateMutability":"view"},{"type":"function","name":"getHexbase","inputs":[],"outputs":[{"name":"","type":"address","internalType":"address"}],"stateMutability":"view"},{"type":"function","name":"getImportedNodeByIndex","inputs":[{"name":"index","type":"uint256","internalType":"uint256"}],"outputs":[{"name":"node","type":"address","internalType":"address"}],"stateMutability":"view"},{"type":"function","name":"getimportedNodeCount","inputs":[],"outputs":[{"name":"nodesCount","type":"uint256","internalType":"uint256"}],"stateMutability":"view"},{"type":"function","name":"importRankBusiness","inputs":[{"name":"_fromAge","type":"uint256","internalType":"uint256"},{"name":"_toAge","type":"uint256","internalType":"uint256"}],"outputs":[],"stateMutability":"nonpayable"},{"type":"function","name":"importedNode","inputs":[{"name":"","type":"uint256","internalType":"uint256"}],"outputs":[{"name":"","type":"address","internalType":"address"}],"stateMutability":"view"},{"type":"function","name":"importuser","inputs":[{"name":"batchSize","type":"uint256","internalType":"uint256"}],"outputs":[],"stateMutability":"nonpayable"},{"type":"function","name":"owner","inputs":[],"outputs":[{"name":"","type":"address","internalType":"address"}],"stateMutability":"view"},{"type":"function","name":"refreshusers","inputs":[{"name":"batchSize","type":"uint256","internalType":"uint256"},{"name":"maxintervals","type":"uint256","internalType":"uint256"},{"name":"lastdays","type":"uint256","internalType":"uint256"}],"outputs":[],"stateMutability":"nonpayable"},{"type":"function","name":"resolveParent","inputs":[{"name":"","type":"address","internalType":"address"}],"outputs":[{"name":"","type":"address","internalType":"address"}],"stateMutability":"view"},{"type":"function","name":"resolveTransferTarget","inputs":[{"name":"to","type":"address","internalType":"address"}],"outputs":[{"name":"","type":"address","internalType":"address"}],"stateMutability":"view"},{"type":"function","name":"setsysdata","inputs":[{"name":"price","type":"uint256","internalType":"uint256"},{"name":"prevAge","type":"uint256","internalType":"uint256"},{"name":"cnt","type":"uint256[7]","internalType":"uint256[7]"}],"outputs":[],"stateMutability":"nonpayable"},{"type":"function","name":"setsysdatawithrefresh","inputs":[{"name":"batchSize","type":"uint256","internalType":"uint256"},{"name":"maxintervals","type":"uint256","internalType":"uint256"},{"name":"lastdays","type":"uint256","internalType":"uint256"},{"name":"price","type":"uint256","internalType":"uint256"},{"name":"prevAge","type":"uint256","internalType":"uint256"},{"name":"cnt","type":"uint256[7]","internalType":"uint256[7]"}],"outputs":[],"stateMutability":"nonpayable"},{"type":"function","name":"setuprootuser","inputs":[],"outputs":[],"stateMutability":"nonpayable"},{"type":"function","name":"submitTransferForm","inputs":[{"name":"_from","type":"address","internalType":"address"},{"name":"_to","type":"address","internalType":"address"}],"outputs":[],"stateMutability":"nonpayable"},{"type":"function","name":"syncBaseAddr","inputs":[],"outputs":[],"stateMutability":"nonpayable"},{"type":"function","name":"syncSystem","inputs":[],"outputs":[],"stateMutability":"nonpayable"},{"type":"function","name":"systemAge","inputs":[],"outputs":[{"name":"","type":"uint256","internalType":"uint256"}],"stateMutability":"view"},{"type":"event","name":"EthBurned","inputs":[{"name":"sender","type":"address","indexed":true,"internalType":"address"},{"name":"amount","type":"uint256","indexed":false,"internalType":"uint256"}],"anonymous":false},{"type":"event","name":"EthTransferred","inputs":[{"name":"to","type":"address","indexed":true,"internalType":"address"},{"name":"amount","type":"uint256","indexed":false,"internalType":"uint256"}],"anonymous":false},{"type":"event","name":"HexBaseUpdated","inputs":[{"name":"previousHexBase","type":"address","indexed":true,"internalType":"address"},{"name":"newHexBase","type":"address","indexed":true,"internalType":"address"}],"anonymous":false},{"type":"event","name":"OwnerUpdated","inputs":[{"name":"previousOwner","type":"address","indexed":true,"internalType":"address"},{"name":"newOwner","type":"address","indexed":true,"internalType":"address"}],"anonymous":false},{"type":"error","name":"CallFailed","inputs":[]},{"type":"error","name":"InvalidAddress","inputs":[]},{"type":"error","name":"InvalidState","inputs":[]},{"type":"error","name":"NotAuthorized","inputs":[]},{"type":"error","name":"NotSafe","inputs":[]},{"type":"error","name":"ReentrancyGuardReentrantCall","inputs":[]},{"type":"error","name":"TargetCallFailed","inputs":[{"name":"selector","type":"bytes4","internalType":"bytes4"}]}],"bytecode":{"object":"0x608034620000a357601f6200355138819003918201601f19168301916001600160401b03831184841017620000a857808492602094604052833981010312620000a357516001600160a01b03811690819003620000a3578015620000915760018060a01b0319338160015416176001556000541617600055600160115560016016556040516134929081620000bf8239f35b60405163e6c4247b60e01b8152600490fd5b600080fd5b634e487b7160e01b600052604160045260246000fdfe60806040526004361015610018575b361561001657005b005b60003560e01c806312065fe0146102185780631480a85b1461021357806318c864e31461020e5780631a59ca26146102095780631f185d1614610204578063339459a6146101ff5780633676bd1f146101fa5780633b9b7955146101f5578063479fa2c3146101f05780634ef260a9146101eb57806355ed5fee146101e657806385301b86146101e15780638d6edc14146101dc5780638da5cb5b146101d757806396970c96146101d2578063a1f7f539146101cd578063ab7e46ae146101c8578063ac233345146101c3578063af484526146101be578063b8f1759a146101b9578063b90306ad146101b4578063c1e6cec2146101af578063c54e44b0146101aa578063c9a29150146101a5578063cab3cc8d146101a0578063e01ad5fd1461019b578063e0a9bc2b14610196578063e846034a14610191578063e981bcad1461018c578063ed6c1b5814610187578063f245fe7a146101825763fdc10bc90361000e576120f9565b611936565b611808565b611763565b611745565b61172a565b61165f565b611641565b6115e1565b61155b565b61151d565b61140f565b6113b5565b611384565b61134c565b6112f2565b61127d565b61123d565b611216565b6111f8565b6110cb565b610f5b565b610eb2565b610de4565b610dbd565b610d5c565b6107fc565b610715565b61050d565b6104bc565b61024a565b3461023457600036600319011261023457602047604051908152f35b600080fd5b6001600160a01b0381160361023457565b34610234576040806003193601126102345760043561026881610239565b60243561027481610239565b6001600160a01b0380831615610457578116156104475761041391926102b76102b0836001600160a01b03166000526012602052604060002090565b5415612114565b61040e6103cc6103b860016102ca61215f565b5080546001600160a01b0319166001600160a01b038a161781550180546001600160a01b0319166001600160a01b038716178155966103866103146004546001600160a01b031690565b86516001600160a01b0384166020808301919091528152601f19989161036b9161035191610343604083611004565b61034b6121ce565b906132bf565b916001600160a01b03166000526013602052604060002090565b906001600160a01b03166001600160a01b0319825416179055565b6103c461039b6004546001600160a01b031690565b86516001600160a01b039093166020840152919283906040820190565b03878101845283611004565b61034b612207565b91517f27071121000000000000000000000000000000000000000000000000000000006020820152600160248201529283604481015b03908101845283611004565b613398565b5061044461042b60145492546001600160a01b031690565b6001600160a01b03166000526012602052604060002090565b55005b6004835163e6c4247b60e01b8152fd5b6004845163e6c4247b60e01b8152fd5b634e487b7160e01b600052603260045260246000fd5b6014548110156104b757601460005260011b7fce6d7b5282bd9a3661ae061feed1dbda4e52ab073b1f9285be6e155d9c38d4ec0190600090565b610467565b3461023457602036600319011261023457600435601454811015610234576104e39061047d565b508054600190910154604080516001600160a01b03938416815292909116602083015290f35b0390f35b34610234576000806003193601126107125761052761232c565b61052f613055565b156106e85761053d336130da565b80156106d4575b156106aa57600480546001600160a01b03166105786105726105646123b2565b61056c6123ca565b84613310565b15612cbe565b602061059a61058e85546001600160a01b031690565b6001600160a01b031690565b604051938480927fde433f170000000000000000000000000000000000000000000000000000000082525afa9081156106a557610664928492610671575b506040517f19aecf65000000000000000000000000000000000000000000000000000000006020820152600060248201526001600160a01b038316604480830191909152815261062d9161040e606483611004565b5061065e61064e826001600160a01b03166000526013602052604060002090565b6001600160a01b03198154169055565b80612c39565b61066e6001601155565b80f35b61062d9192506106979060203d811161069e575b61068f8183611004565b81019061273b565b91906105d8565b503d610685565b612750565b60046040517fea8e4eb5000000000000000000000000000000000000000000000000000000008152fd5b50336001600160a01b036005541614610544565b60046040517f9dc4246e000000000000000000000000000000000000000000000000000000008152fd5b80fd5b34610234576020806003193601126102345761079460043561073681610239565b6001600160a01b0380600254169060405192168483015283825261075982610fb0565b6040519061076682610fb0565b601182527f69735369676e657228616464726573732900000000000000000000000000000085830152613211565b9190806107f2575b156107c85781816107b69261050994518301019101613041565b60405190151581529081906020820190565b60046040517f3204506f000000000000000000000000000000000000000000000000000000008152fd5b508082511461079c565b346102345760003660031901126102345761082261058e6000546001600160a01b031690565b60405190634bf9c0ad60e11b8252602082600481845afa9182156106a557600092610d3b575b506040519163cfbffe5360e01b8352602083600481855afa9283156106a557600093610d1a575b506040519063ab6e844f60e01b8252602082600481865afa9182156106a557600092610cf9575b5060405191630536340960e21b8352602083600481875afa9283156106a557600093610cd8575b506040519263d1f956b160e01b8452602084600481885afa9384156106a557600094610cb7575b5060405193631cc3bfab60e31b8552602085600481895afa9485156106a557600095610c96575b5060405163e09d394d60e01b81526020816004818a5afa9081156106a557600091610c77575b506040516314ac1b5960e21b81526020816004818b5afa9081156106a557600091610c58575b5060405163013cf08b60e01b815260006004820152916020836024818c5afa9283156106a557600093610c37575b5060405197635e09dbe760e01b89526020896004818d5afa9485156106a557600499600096610c16575b5060208b6040519b8c8092635506ee0b60e11b82525afa9687156106a55760049a600098610bf5575b5060208c6040519c8d8092636402742760e01b82525afa9889156106a55760049b60009a610bd4575b5060208d6040519d8e80926330125cf560e01b82525afa9a8b156106a5578d60049d60009d610bb2575b506020906040519e8f80926324768d9160e01b82525afa9c8d156106a55760009d610b91575b50604051809e81906313b92d3560e31b82525a92600491602094fa9d8e156106a55760009e610b70575b50610a84611026565b6001600160a01b0390911681529d8e906001600160a01b0316602082015260400190610ab891906001600160a01b03169052565b6001600160a01b031660608d01526001600160a01b031660808c01526001600160a01b031660a08b01526001600160a01b031660c08a01526001600160a01b031660e08901526001600160a01b03166101008801526001600160a01b03166101208701526001600160a01b03166101408601526001600160a01b03166101608501526001600160a01b03166101808401526001600160a01b03166101a08301526001600160a01b03166101c082015261001690612d40565b610b8a919e5060203d60201161069e5761068f8183611004565b9c38610a7b565b610bab919d5060203d60201161069e5761068f8183611004565b9b38610a51565b6020919d50610bcd90823d841161069e5761068f8183611004565b9c90610a2b565b610bee919a5060203d60201161069e5761068f8183611004565b9838610a01565b610c0f91985060203d60201161069e5761068f8183611004565b96386109d8565b610c3091965060203d60201161069e5761068f8183611004565b94386109af565b610c5191935060203d60201161069e5761068f8183611004565b9138610985565b610c71915060203d60201161069e5761068f8183611004565b38610957565b610c90915060203d60201161069e5761068f8183611004565b38610931565b610cb091955060203d60201161069e5761068f8183611004565b933861090b565b610cd191945060203d60201161069e5761068f8183611004565b92386108e4565b610cf291935060203d60201161069e5761068f8183611004565b91386108bd565b610d1391925060203d60201161069e5761068f8183611004565b9038610896565b610d3491935060203d60201161069e5761068f8183611004565b913861086f565b610d5591925060203d60201161069e5761068f8183611004565b9038610848565b3461023457602036600319011261023457610d7561232c565b610d7d613055565b156106e857610d8b336130da565b8015610da9575b156106aa57610da2600435612930565b6001601155005b50336001600160a01b036005541614610d92565b346102345760003660031901126102345760206001600160a01b0360005416604051908152f35b346102345760203660031901126102345760043580151580610ea6575b15610e62576000198101908111610e5d57610e1b9061047d565b50610e416001610e3283546001600160a01b031690565b9201546001600160a01b031690565b604080516001600160a01b039384168152919092166020820152f35b612240565b606460405162461bcd60e51b815260206004820152601760248201527f70726f706f7365722e696e76616c69642e666f726d69640000000000000000006044820152fd5b50601454811115610e01565b3461023457602036600319011261023457600435610ecf81610239565b6001600160a01b038116600091818352601260205260408320549081151580610f4f575b610efb578380f35b6000198201918211610e5d57610f4892610f1761064e9361047d565b505084526012602052836040812055610f2f816122c6565b6001600160a01b03166000526013602052604060002090565b3880808380f35b50601454821115610ef3565b34610234576000366003190112610234576020601654604051908152f35b634e487b7160e01b600052604160045260246000fd5b60e0810190811067ffffffffffffffff821117610fab57604052565b610f79565b6040810190811067ffffffffffffffff821117610fab57604052565b6020810190811067ffffffffffffffff821117610fab57604052565b6080810190811067ffffffffffffffff821117610fab57604052565b90601f8019910116810190811067ffffffffffffffff821117610fab57604052565b604051906101e0820182811067ffffffffffffffff821117610fab57604052565b8060631215610234576040519061105d82610f8f565b81610124918211610234576044905b8282106110795750505090565b813581526020918201910161106c565b8060c31215610234576040519061109f82610f8f565b816101849182116102345760a4905b8282106110bb5750505090565b81358152602091820191016110ae565b3461023457610120366003190112610234576110e636611047565b6110ee61232c565b6110f6613055565b156106e857611104336130da565b80156111e4575b156106aa57600490602061112a61058e6000546001600160a01b031690565b604051938480926369e8d84b60e11b82525afa9081156106a55761040e610402926111bb946000916111c6575b506040516315ec7fad60e01b6020820152600435602482015261118e9080604481015b039261040e601f1994858101845283611004565b506004546001600160a01b031692604051948591637818cdd760e01b602084015260243560248401612d09565b506100166001601155565b6111de915060203d811161069e5761068f8183611004565b38611157565b50336001600160a01b03600554161461110b565b34610234576000366003190112610234576020601754604051908152f35b346102345760003660031901126102345760206001600160a01b0360015416604051908152f35b3461023457602036600319011261023457602060043561125c81610239565b6001600160a01b038091166000526013825260406000205416604051908152f35b346102345760003660031901126102345760206112ea6001600160a01b03600654166040516112ab81610fb0565b601381527f67657464656c656761746f72436f756e7428290000000000000000000000000084820152604051916112e183610fcc565b60008352613310565b604051908152f35b3461023457602036600319011261023457600435601554811015610234576001600160a01b0360209160156000527f55f448fdea98c4d29eb340757ef0a66cd03dbb9538908a6a81d96026b71ec475015416604051908152f35b3461023457602036600319011261023457602061137360043561136e81610239565b612272565b6001600160a01b0360405191168152f35b346102345760203660031901126102345760206113ab6004356113a681610239565b6130da565b6040519015158152f35b34610234576020366003190112610234576004356015548110156104b7576001600160a01b0360209160156000527f55f448fdea98c4d29eb340757ef0a66cd03dbb9538908a6a81d96026b71ec475015416604051908152f35b346102345760203660031901126102345760043561142b613055565b156106e8576001600160a01b036005541633036106aa576000906004602061145d61058e85546001600160a01b031690565b604051928380927f46f991ac0000000000000000000000000000000000000000000000000000000082525afa80156106a557838084819493829483916114ff575b505af16114a96131b6565b50156107c8577fcdcc745fe377b103b45fa0cec23ae3ef93d6fc6a84a01f0d18c40b354dd1d5d86114f96114e861058e600b546001600160a01b031690565b604051938452929081906020820190565b0390a280f35b611517915060203d811161069e5761068f8183611004565b3861149e565b34610234576020366003190112610234576001600160a01b0360043561154281610239565b1660005260126020526020604060002054604051908152f35b346102345760203660031901126102345760043561157881610239565b803b6000611585826121b2565b926115936040519485611004565b82845260208401903c602d8151106115b757602a602091015160601c604051908152f35b60046040517fbaf3f0f7000000000000000000000000000000000000000000000000000000008152fd5b34610234576060366003190112610234576115fa61232c565b611602613055565b156106e857611610336130da565b801561162d575b156106aa57610da26044356024356004356124c7565b50336001600160a01b036005541614611617565b34610234576000366003190112610234576020601454604051908152f35b346102345760208060031936011261023457610509906004359061168282610239565b6116e66001600160a01b03928360065416936040519116838201528281526116a981610fb0565b6040516116b581610fb0565b601881527f697364656c656761746f724e6f6465286164647265737329000000000000000084820152600094613211565b919080611720575b611707575b505060405190151581529081906020820190565b61171992508082518301019101613041565b38806116f3565b50808251146116ee565b346102345760003660031901126102345760206113ab613055565b34610234576000366003190112610234576020601554604051908152f35b346102345760403660031901126102345761177c61232c565b611784613055565b156106e857611792336130da565b80156117f4575b156106aa576111bb6001600160a01b0360045416604051907f33b59a5b000000000000000000000000000000000000000000000000000000006020830152600435602483015260243560448301526044825261040e82610fe8565b50336001600160a01b036005541614611799565b34610234576101803660031901126102345761182336611089565b61182b61232c565b611833613055565b156106e857611841336130da565b8015611922575b156106aa57600490602061186761058e6000546001600160a01b031690565b604051938480926369e8d84b60e11b82525afa9081156106a55761040e610402926118e894600091611904575b506040516315ec7fad60e01b602082015260643560248201526118bb90806044810161117a565b506004546001600160a01b031692604051948591637818cdd760e01b602084015260843560248401612d09565b506118fa6044356024356004356124c7565b6100166001601155565b61191c915060203d811161069e5761068f8183611004565b38611894565b50336001600160a01b036005541614611848565b34610234576000806003193601126107125761195061232c565b61196461058e82546001600160a01b031690565b604090815191828092634bf9c0ad60e11b8252602093849160049687915afa9081156106a55785916120dc575b506119ca82517f339459a60000000000000000000000000000000000000000000000000000000092838683015286825261040e82610fb0565b5083836119e161058e88546001600160a01b031690565b8451928380926369e8d84b60e11b82525afa80156106a557611a199187916120bf575b50835190838683015286825261040e82610fb0565b508383611a3061058e88546001600160a01b031690565b84519283809263ab6e844f60e01b82525afa80156106a557611a679187916120bf5750835190838683015286825261040e82610fb0565b508383611a7e61058e88546001600160a01b031690565b84519283809263cfbffe5360e01b82525afa80156106a557611ab59187916120bf5750835190838683015286825261040e82610fb0565b508383611acc61058e88546001600160a01b031690565b845192838092630536340960e21b82525afa80156106a557611b039187916120bf5750835190838683015286825261040e82610fb0565b508383611b1a61058e88546001600160a01b031690565b84519283809263d1f956b160e01b82525afa80156106a557611b519187916120bf5750835190838683015286825261040e82610fb0565b508383611b6861058e88546001600160a01b031690565b845192838092631cc3bfab60e31b82525afa80156106a557611b9f9187916120bf5750835190838683015286825261040e82610fb0565b508383611bb661058e88546001600160a01b031690565b84519283809263e09d394d60e01b82525afa80156106a557611bed9187916120bf5750835190838683015286825261040e82610fb0565b508383611c0461058e88546001600160a01b031690565b8451928380926314ac1b5960e21b82525afa80156106a557611c3b9187916120bf5750835190838683015286825261040e82610fb0565b50611c5061058e86546001600160a01b031690565b838351809263013cf08b60e01b82528180611c728a8201906000602083019252565b03915afa80156106a557611c9b9187916120bf5750835190838683015286825261040e82610fb0565b50611cb061058e86546001600160a01b031690565b90825184817fb771c89600000000000000000000000000000000000000000000000000000000948582528180611ced8b8201906000602083019252565b03915afa80156106a557611d179188916120a2575b50845190838783015287825261040e82610fb0565b50611d2c61058e87546001600160a01b031690565b84845180928582528180611d478b8201906001602083019252565b03915afa80156106a557611d709188916120a25750845190838783015287825261040e82610fb0565b50611d8561058e87546001600160a01b031690565b84845180928582528180611da08b8201906002602083019252565b03915afa80156106a557611dc99188916120a25750845190838783015287825261040e82610fb0565b50611dde61058e87546001600160a01b031690565b84845180928582528180611df98b8201906003602083019252565b03915afa80156106a557611e229188916120a25750845190838783015287825261040e82610fb0565b5083611e3861058e88546001600160a01b031690565b92845193849182528180611e538a8201906004602083019252565b03915afa9182156106a5578592611e80918891612085575b50845190838783015284825261040e82610fb0565b5083611e9661058e88546001600160a01b031690565b845193848092635e09dbe760e01b82525afa9182156106a5578592611ed09188916120855750845190838783015284825261040e82610fb0565b5083611ee661058e88546001600160a01b031690565b845193848092635506ee0b60e11b82525afa9182156106a5578592611f209188916120855750845190838783015284825261040e82610fb0565b5083611f3661058e88546001600160a01b031690565b845193848092636402742760e01b82525afa9182156106a5578592611f709188916120855750845190838783015284825261040e82610fb0565b5083611f8661058e88546001600160a01b031690565b8451938480926330125cf560e01b82525afa9182156106a5578592611fc09188916120855750845190838783015284825261040e82610fb0565b5083611fd661058e88546001600160a01b031690565b8451938480926324768d9160e01b82525afa9182156106a55785926120109188916120855750845190838783015284825261040e82610fb0565b508361202661058e88546001600160a01b031690565b8451968780926313b92d3560e31b82525afa9283156106a55761205b958794612066575b505193840152825261040e82610fb0565b5061066e6001601155565b61207e919450853d871161069e5761068f8183611004565b923861204a565b61209c9150863d881161069e5761068f8183611004565b38611e6b565b6120b99150863d881161069e5761068f8183611004565b38611d02565b6120d69150853d871161069e5761068f8183611004565b38611a04565b6120f39150833d851161069e5761068f8183611004565b38611991565b346102345760003660031901126102345760206112ea613164565b1561211b57565b606460405162461bcd60e51b815260206004820152601260248201527f70726f706f7365722e746f2e65786973747300000000000000000000000000006044820152fd5b60145468010000000000000000811015610fab5760018101806014558110156104b757601460005260011b7fce6d7b5282bd9a3661ae061feed1dbda4e52ab073b1f9285be6e155d9c38d4ec0190600090565b67ffffffffffffffff8111610fab57601f01601f191660200190565b604051906121db82610fb0565b601682527f6765744e6f6465506172656e74286164647265737329000000000000000000006020830152565b6040519061221482610fb0565b601682527f67657455736572546f496e7374286164647265737329000000000000000000006020830152565b634e487b7160e01b600052601160045260246000fd5b600019810191908211610e5d57565b91908203918211610e5d57565b6001600160a01b038091166000526012602052604060002054801515806122ba575b61229f575050600090565b6000198101908111610e5d576122b49061047d565b50541690565b50601454811115612294565b60155468010000000000000000811015610fab5760018101806015558110156104b7576001600160a01b039060156000527f55f448fdea98c4d29eb340757ef0a66cd03dbb9538908a6a81d96026b71ec4750191166001600160a01b0319825416179055565b60026011541461233d576002601155565b60046040517f3ee5aeb5000000000000000000000000000000000000000000000000000000008152fd5b1561236e57565b606460405162461bcd60e51b815260206004820152601560248201527f7574696c6974792e62617463682e696e76616c696400000000000000000000006044820152fd5b6040516123be81610fcc565b60008152906000368137565b604051906123d782610fb0565b600f82527f6765744e6f646573436f756e74282900000000000000000000000000000000006020830152565b9060018201809211610e5d57565b91908201809211610e5d57565b6000198114610e5d5760010190565b6040519061243a82610fb0565b601882527f6765744e6f6465496e737453746f722875696e743235362900000000000000006020830152565b9190826040910312610234576020825161247f81610239565b92015161248b81610239565b90565b6040519061249b82610fb0565b600682527f64616765282900000000000000000000000000000000000000000000000000006020830152565b8015158061269a575b6124d990612367565b6004906125076124f083546001600160a01b031690565b6124f86123b2565b906125016123ca565b90613310565b928315612693578360165411612684575b61252d6125286016549384612411565b612256565b9484861161267a575b61254790612542613164565b612265565b915b8581111561257b57505050908210905061256a57506125686001601655565b565b61257661256891612403565b601655565b61261f9061259085546001600160a01b031690565b60408051906125e06125d2602093806125b0888783019190602083019252565b03956125c4601f1997888101845283611004565b6125cc61242d565b906131e6565b838082518301019101612466565b6001600160a01b039182169291831561266f5761260f916125ff6123b2565b9161260861248e565b9116613310565b8811612624575b5050505061241e565b612549565b612665937f9c75dd350000000000000000000000000000000000000000000000000000000061040e9251948501528361040289602483019190602083019252565b5038808080612616565b50505050505061241e565b9394508493612536565b61268e6001601655565b612518565b5050505050565b5060648111156124d0565b156126ac57565b606460405162461bcd60e51b815260206004820152601c60248201527f7574696c6974792e62617463682e6c696d69742e6578636565646564000000006044820152fd5b156126f757565b606460405162461bcd60e51b815260206004820152601760248201527f7574696c6974792e756e7365637572652e6661696c65640000000000000000006044820152fd5b90816020910312610234575161248b81610239565b6040513d6000823e3d90fd5b1561276357565b606460405162461bcd60e51b815260206004820152601360248201527f7574696c6974792e696d706f72742e646f6e65000000000000000000000000006044820152fd5b604051906127b482610fb0565b601782527f6765744e6f64654279496e6465782875696e74323536290000000000000000006020830152565b156127e757565b606460405162461bcd60e51b815260206004820152601660248201527f70726f78792e696e76616c69642e696e7374616e6365000000000000000000006044820152fd5b6040519061283882610fb0565b601382527f496e7374546f55736572286164647265737329000000000000000000000000006020830152565b1561286b57565b606460405162461bcd60e51b815260206004820152601260248201527f70726f78792e696e76616c69642e6e6f646500000000000000000000000000006044820152fd5b604051906128bc82610fb0565b601082527f6765744e6f6465286164647265737329000000000000000000000000000000006020830152565b5190811515820361023457565b908160a091031261023457805191602082015161291181610239565b9160408101519161248b6080612929606085016128e8565b93016128e8565b61293d60648211156126a5565b61294e612949306130da565b6126f0565b61296361058e6000546001600160a01b031690565b60405180917f447aa30400000000000000000000000000000000000000000000000000000000825281600460209384935afa9182156106a557600092612c1a575b506129b06105646123b2565b928315612c14576129e16129cf6124f06004546001600160a01b031690565b916129db83871161275c565b82612411565b93808511612c0c575b505b8381106129f95750505050565b612bbf90612bba612bb5604051612bac7f50db85d100000000000000000000000000000000000000000000000000000000612a6183612a3f888b83019190602083019252565b0393612a53601f1995868101835282611004565b612a5b6127a7565b8b6132bf565b6001600160a01b03612a7681831615156127e0565b8131948a8c6001612b1f612b11612af7612b03612acb612ab1612abd8c6040519283918c83019190916001600160a01b036020820193169052565b038b8101835282611004565b612ac561282b565b886132bf565b99612ad98a8c161515612864565b6040519283918983019190916001600160a01b036020820193169052565b03888101835282611004565b612b0b6128af565b856131e6565b8480825183010191016128f5565b5050509590951694612b32811515612864565b148015612c03575b612bc4575b5061040284612b698561036b61040e97986001600160a01b03166000526013602052604060002090565b612b738180612c39565b6004546001600160a01b031695604051978894850152602484019060209093929360408301946001600160a01b03809216845216910152565b50601754612411565b601755565b61241e565b6129ec565b6040516001600160a01b0390941682850190815261040e9461040292612bfa92612bf29083906020016103b8565b61034b61282b565b9350508c612b3f565b50831515612b3a565b9350386129ea565b50505050565b81612c329293503d841161069e5761068f8183611004565b90386129a4565b6014549068010000000000000000821015610fab5760018391612c85612c678584612ca1970160145561047d565b509182906001600160a01b03166001600160a01b0319825416179055565b01906001600160a01b03166001600160a01b0319825416179055565b6001600160a01b0360145491166000526012602052604060002055565b15612cc557565b606460405162461bcd60e51b815260206004820152601260248201527f7574696c6974792e73657475702e646f6e6500000000000000000000000000006044820152fd5b908152610100810192919060209060009082015b60078210612d2b5750505050565b82806001928651815201940191019092612d1d565b6130256101c061256892612d7a612d5e82516001600160a01b031690565b6001600160a01b03166001600160a01b03196002541617600255565b612dad612d9160208301516001600160a01b031690565b6001600160a01b03166001600160a01b03196003541617600355565b612de0612dc460408301516001600160a01b031690565b6001600160a01b03166001600160a01b03196004541617600455565b612e13612df760608301516001600160a01b031690565b6001600160a01b03166001600160a01b03196005541617600555565b612e46612e2a60808301516001600160a01b031690565b6001600160a01b03166001600160a01b03196006541617600655565b612e79612e5d60a08301516001600160a01b031690565b6001600160a01b03166001600160a01b03196007541617600755565b612eac612e9060c08301516001600160a01b031690565b6001600160a01b03166001600160a01b03196008541617600855565b612edf612ec360e08301516001600160a01b031690565b6001600160a01b03166001600160a01b03196009541617600955565b612f13612ef76101008301516001600160a01b031690565b6001600160a01b03166001600160a01b0319600a541617600a55565b612f47612f2b6101208301516001600160a01b031690565b6001600160a01b03166001600160a01b0319600b541617600b55565b612f7b612f5f6101408301516001600160a01b031690565b6001600160a01b03166001600160a01b0319600c541617600c55565b612faf612f936101608301516001600160a01b031690565b6001600160a01b03166001600160a01b0319600d541617600d55565b612fe3612fc76101808301516001600160a01b031690565b6001600160a01b03166001600160a01b0319600e541617600e55565b613017612ffb6101a08301516001600160a01b031690565b6001600160a01b03166001600160a01b0319600f541617600f55565b01516001600160a01b031690565b6001600160a01b03166001600160a01b03196010541617601055565b908160209103126102345761248b906128e8565b6130b06001600160a01b036002541660405161307081610fb0565b600881527f69735361666528290000000000000000000000000000000000000000000000006020820152604051916130a783610fcc565b60008352613211565b90806130cf575b156107c8578060208061248b93518301019101613041565b5060208151146130b7565b61313d6001600160a01b03806002541660405191602094168483015283825261310282610fb0565b6040519061310f82610fb0565b601582527f697353656375726542617365286164647265737329000000000000000000000085830152613211565b908061315a575b156107c8578161248b9282518301019101613041565b5081815114613144565b61248b6001600160a01b036003541660405161317f81610fb0565b600681527f69416765282900000000000000000000000000000000000000000000000000006020820152604051916112e183610fcc565b3d156131e1573d906131c7826121b2565b916131d56040519384611004565b82523d6000602084013e565b606090565b906131f19291613211565b90600090156131fe575090565b604051915061320c82610fcc565b815290565b9190823b156132a6577fffffffff00000000000000000000000000000000000000000000000000000000815160208093012016916040519180830193845281519160005b83811061329257505050918161328260248260009795968897018783820152036004810184520182611004565b51915afa61328e6131b6565b9091565b818101830151858201602401528201613255565b5050506000906040516132b881610fcc565b6000815290565b92916132cd91600094613211565b9080613305575b6132db5750565b9091506020818051810103126102345760206001600160a01b0391015161330181610239565b1690565b5060208151146132d4565b929161331e91600094613211565b9080613343575b61332c5750565b909150602081805181010312610234576020015190565b506020815114613325565b90602082519201517fffffffff0000000000000000000000000000000000000000000000000000000090818116936004811061338957505050565b60040360031b82901b16169150565b6001600160a01b0381161561344b57600080918351908260208601915af1906133bf6131b6565b91156133c9575090565b805160009190600411613445576133e0915061334e565b8151156133f05750805190602001fd5b6040517f21c09d340000000000000000000000000000000000000000000000000000000081527fffffffff00000000000000000000000000000000000000000000000000000000919091166004820152602490fd5b506133e0565b600460405163e6c4247b60e01b8152fdfea2646970667358221220dbae41c2359a8a2b8efcb8e6ac89f738a4cef14293a1875c373e9646ffa567b364736f6c63430008140033","linkReferences":{}},"methodIdentifiers":{"Burn(uint256)":"b90306ad","UserToForm(address)":"c1e6cec2","_delegatorCount()":"a1f7f539","_getImplementation(address)":"c54e44b0","_isDelegatorNode(address)":"e01ad5fd","_isSafe()":"e0a9bc2b","_isSecureBase(address)":"af484526","_isSigner(address)":"1f185d16","actualTVL()":"8d6edc14","closeTransferTarget(address)":"4ef260a9","currentRefreshId()":"55ed5fee","forms(uint256)":"18c864e3","getBalance()":"12065fe0","getForm(uint256)":"479fa2c3","getFormsCount()":"cab3cc8d","getHexbase()":"3b9b7955","getImportedNodeByIndex(uint256)":"b8f1759a","getimportedNodeCount()":"e846034a","importRankBusiness(uint256,uint256)":"e981bcad","importedNode(uint256)":"ab7e46ae","importuser(uint256)":"3676bd1f","owner()":"8da5cb5b","refreshusers(uint256,uint256,uint256)":"c9a29150","resolveParent(address)":"96970c96","resolveTransferTarget(address)":"ac233345","setsysdata(uint256,uint256,uint256[7])":"85301b86","setsysdatawithrefresh(uint256,uint256,uint256,uint256,uint256,uint256[7])":"ed6c1b58","setuprootuser()":"1a59ca26","submitTransferForm(address,address)":"1480a85b","syncBaseAddr()":"339459a6","syncSystem()":"f245fe7a","systemAge()":"fdc10bc9"},"id":80}