{"abi":[{"type":"constructor","inputs":[],"stateMutability":"nonpayable"},{"type":"fallback","stateMutability":"payable"},{"type":"receive","stateMutability":"payable"},{"type":"function","name":"Burn","inputs":[{"name":"amount","type":"uint256","internalType":"uint256"}],"outputs":[],"stateMutability":"payable"},{"type":"function","name":"_isSafe","inputs":[],"outputs":[{"name":"","type":"bool","internalType":"bool"}],"stateMutability":"view"},{"type":"function","name":"_isSafeOwner","inputs":[{"name":"sender","type":"address","internalType":"address"}],"outputs":[{"name":"","type":"bool","internalType":"bool"}],"stateMutability":"view"},{"type":"function","name":"_isSigner","inputs":[{"name":"sender","type":"address","internalType":"address"}],"outputs":[{"name":"","type":"bool","internalType":"bool"}],"stateMutability":"view"},{"type":"function","name":"_nested","inputs":[{"name":"_node","type":"address","internalType":"address"}],"outputs":[],"stateMutability":"nonpayable"},{"type":"function","name":"getBalance","inputs":[],"outputs":[{"name":"","type":"uint256","internalType":"uint256"}],"stateMutability":"view"},{"type":"function","name":"getNodesCount","inputs":[],"outputs":[{"name":"","type":"uint256","internalType":"uint256"}],"stateMutability":"view"},{"type":"function","name":"isNodeStopped","inputs":[{"name":"sender","type":"address","internalType":"address"}],"outputs":[{"name":"","type":"bool","internalType":"bool"}],"stateMutability":"view"},{"type":"function","name":"isOwnerOrSafeOwner","inputs":[{"name":"sender","type":"address","internalType":"address"}],"outputs":[{"name":"","type":"bool","internalType":"bool"}],"stateMutability":"view"},{"type":"function","name":"nodes","inputs":[{"name":"","type":"uint256","internalType":"uint256"}],"outputs":[{"name":"","type":"address","internalType":"address"}],"stateMutability":"view"},{"type":"function","name":"owner","inputs":[],"outputs":[{"name":"","type":"address","internalType":"address"}],"stateMutability":"view"},{"type":"function","name":"reConstruct","inputs":[{"name":"_h","type":"address","internalType":"address"}],"outputs":[],"stateMutability":"nonpayable"},{"type":"function","name":"setOwner","inputs":[{"name":"own","type":"address","internalType":"address"}],"outputs":[],"stateMutability":"nonpayable"},{"type":"function","name":"withdraw","inputs":[{"name":"to","type":"address","internalType":"address"},{"name":"amount","type":"uint256","internalType":"uint256"}],"outputs":[],"stateMutability":"payable"}],"bytecode":{"object":"0x60806040526001805460ff60a01b1916600160a01b17905534801561002357600080fd5b5061005d600180546001600160a01b03199081163217909155600080549091167342a290d71609ce160fd79771ebef3457ef737548179055565b600280546001810182556000919091527f405787fa12a823e0f2b7631cc41b3ba8828b3321ca811111fa75cd3aa3bb5ace0180546001600160a01b03191630179055610df2806100ae6000396000f3fe6080604052600436106100d55760003560e01c806361ea720811610079578063db5b18b211610056578063db5b18b21461022e578063e0a9bc2b1461024e578063f3fef3a314610263578063fcc13d741461027657005b806361ea7208146101e85780638da5cb5b146101fd578063b90306ad1461021b57005b80631f185d16116100b25780631f185d1614610158578063379a423c1461018857806351bfd3ae146101a857806359ab65f7146101c857005b806312065fe0146100de57806313af4035146101005780631c53c2801461012057005b366100dc57005b005b3480156100ea57600080fd5b50475b6040519081526020015b60405180910390f35b34801561010c57600080fd5b506100dc61011b366004610c66565b6102a0565b34801561012c57600080fd5b5061014061013b366004610c8a565b61035e565b6040516001600160a01b0390911681526020016100f7565b34801561016457600080fd5b50610178610173366004610c66565b610388565b60405190151581526020016100f7565b34801561019457600080fd5b506101786101a3366004610c66565b61045c565b3480156101b457600080fd5b506101786101c3366004610c66565b610482565b3480156101d457600080fd5b506100dc6101e3366004610c66565b610636565b3480156101f457600080fd5b506002546100ed565b34801561020957600080fd5b506001546001600160a01b0316610140565b6100dc610229366004610c8a565b610751565b34801561023a57600080fd5b50610178610249366004610c66565b610815565b34801561025a57600080fd5b506101786108d2565b6100dc610271366004610ca3565b61096d565b34801561028257600080fd5b506100dc610291366004610c66565b50600280546001018155600052565b60005460408051634162169f60e01b8152905133926001600160a01b031691634162169f9160048083019260209291908290030181865afa1580156102e9573d6000803e3d6000fd5b505050506040513d601f19601f8201168201806040525081019061030d9190610ccf565b6001600160a01b03161461033c5760405162461bcd60e51b815260040161033390610cec565b60405180910390fd5b600180546001600160a01b0319166001600160a01b0392909216919091179055565b6002818154811061036e57600080fd5b6000918252602090912001546001600160a01b0316905081565b600080546040805163af0deb9560e01b81529051610456926001600160a01b03169163af0deb959160048083019260209291908290030181865afa1580156103d4573d6000803e3d6000fd5b505050506040513d601f19601f820116820180604052508101906103f89190610ccf565b6040518060400160405280601181526020017069735369676e657228616464726573732960781b8152508460405160200161044291906001600160a01b0391909116815260200190565b604051602081830303815290604052610acd565b92915050565b600061046782610815565b806104565750506001546001600160a01b0391821691161490565b60008061055d60008054906101000a90046001600160a01b03166001600160a01b031663a66bcbe26040518163ffffffff1660e01b8152600401602060405180830381865afa1580156104d9573d6000803e3d6000fd5b505050506040513d601f19601f820116820180604052508101906104fd9190610ccf565b6040518060400160405280601381526020017255736572546f496e737428616464726573732960681b8152508560405160200161054991906001600160a01b0391909116815260200190565b604051602081830303815290604052610b14565b60408051808201909152600b81526a697353757370656e64282960a81b60208201529091506001600160a01b0382161515906000906105ca908490835b6040519080825280601f01601f1916602001820160405280156105c4576020820181803683370190505b50610acd565b9050600061060d846040518060400160405280600881526020016769734c6f636b282960c01b815250600067ffffffffffffffff81111561059a5761059a610d15565b90508180156106195750805b8015610623575082155b8061062c575082155b9695505050505050565b61063e6108d2565b61067f5760405162461bcd60e51b81526020600482015260126024820152716f776e2e696e76616c69642e69735361666560701b6044820152606401610333565b61068833610815565b80610706575060005460408051634162169f60e01b8152905133926001600160a01b031691634162169f9160048083019260209291908290030181865afa1580156106d7573d6000803e3d6000fd5b505050506040513d601f19601f820116820180604052508101906106fb9190610ccf565b6001600160a01b0316145b6107225760405162461bcd60e51b815260040161033390610cec565b60018054326001600160a01b031991821617909155600080549091166001600160a01b03831617905550565b50565b60005460408051634162169f60e01b8152905133926001600160a01b031691634162169f9160048083019260209291908290030181865afa15801561079a573d6000803e3d6000fd5b505050506040513d601f19601f820116820180604052508101906107be9190610ccf565b6001600160a01b0316146107e45760405162461bcd60e51b815260040161033390610cec565b60405160009082156108fc0290839083818181858288f19350505050158015610811573d6000803e3d6000fd5b5050565b600080546040805163af0deb9560e01b81529051610456926001600160a01b03169163af0deb959160048083019260209291908290030181865afa158015610861573d6000803e3d6000fd5b505050506040513d601f19601f820116820180604052508101906108859190610ccf565b604051806040016040528060148152602001736973536166654f776e657228616464726573732960601b8152508460405160200161044291906001600160a01b0391909116815260200190565b600080546040805163af0deb9560e01b81529051610968926001600160a01b03169163af0deb959160048083019260209291908290030181865afa15801561091e573d6000803e3d6000fd5b505050506040513d601f19601f820116820180604052508101906109429190610ccf565b604080518082019091526008815267697353616665282960c01b6020820152600061059a565b905090565b816001600160a01b0381166109b95760405162461bcd60e51b815260206004820152601260248201527137bbb7173232b330bab63a1739b2b73232b960711b6044820152606401610333565b60005460408051634162169f60e01b8152905133926001600160a01b031691634162169f9160048083019260209291908290030181865afa158015610a02573d6000803e3d6000fd5b505050506040513d601f19601f82011682018060405250810190610a269190610ccf565b6001600160a01b031614610a4c5760405162461bcd60e51b815260040161033390610cec565b60008211610a915760405162461bcd60e51b81526020600482015260126024820152711bdddb8b9a5b9d985b1a590b985b5bdd5b9d60721b6044820152606401610333565b6040516001600160a01b0384169083156108fc029084906000818181858888f19350505050158015610ac7573d6000803e3d6000fd5b50505050565b6000806000610add868686610b4f565b91509150818015610aef575080516020145b15610b0b5780806020019051810190610b089190610d2b565b92505b50509392505050565b6000806000610b24868686610b4f565b91509150818015610b36575080516020145b15610b0b5780806020019051810190610b089190610ccf565b60006060846001600160a01b03163b600003610b7d5750506040805160208101909152600080825290610c49565b60408051600481526024810191829052600091610b9b908790610d71565b60405180910390206001600160e01b0319166020820180516001600160e01b03838183161783525050505084604051602001610bd8929190610d8d565b6040516020818303038152906040529050856001600160a01b031681604051610c019190610d71565b600060405180830381855afa9150503d8060008114610c3c576040519150601f19603f3d011682016040523d82523d6000602084013e610c41565b606091505b509093509150505b935093915050565b6001600160a01b038116811461074e57600080fd5b600060208284031215610c7857600080fd5b8135610c8381610c51565b9392505050565b600060208284031215610c9c57600080fd5b5035919050565b60008060408385031215610cb657600080fd5b8235610cc181610c51565b946020939093013593505050565b600060208284031215610ce157600080fd5b8151610c8381610c51565b6020808252600f908201526e6f776e2e6e6f6e617574682e44414f60881b604082015260600190565b634e487b7160e01b600052604160045260246000fd5b600060208284031215610d3d57600080fd5b81518015158114610c8357600080fd5b60005b83811015610d68578181015183820152602001610d50565b50506000910152565b60008251610d83818460208701610d4d565b9190910192915050565b60008351610d9f818460208801610d4d565b835190830190610db3818360208801610d4d565b0194935050505056fea2646970667358221220e210c7daa6b6d429072472e47da858f0d5b6587e8fb40f86f2a9e556a3880a9d64736f6c63430008140033","linkReferences":{}},"methodIdentifiers":{"Burn(uint256)":"b90306ad","_isSafe()":"e0a9bc2b","_isSafeOwner(address)":"db5b18b2","_isSigner(address)":"1f185d16","_nested(address)":"fcc13d74","getBalance()":"12065fe0","getNodesCount()":"61ea7208","isNodeStopped(address)":"51bfd3ae","isOwnerOrSafeOwner(address)":"379a423c","nodes(uint256)":"1c53c280","owner()":"8da5cb5b","reConstruct(address)":"59ab65f7","setOwner(address)":"13af4035","withdraw(address,uint256)":"f3fef3a3"},"id":2}