{"abi":[{"type":"constructor","inputs":[{"name":"_hex","type":"address","internalType":"address"}],"stateMutability":"nonpayable"},{"type":"fallback","stateMutability":"payable"},{"type":"receive","stateMutability":"payable"},{"type":"function","name":"Burn","inputs":[{"name":"amount","type":"uint256","internalType":"uint256"}],"outputs":[],"stateMutability":"nonpayable"},{"type":"function","name":"UserToForm","inputs":[{"name":"","type":"address","internalType":"address"}],"outputs":[{"name":"","type":"uint256","internalType":"uint256"}],"stateMutability":"view"},{"type":"function","name":"Withdraw","inputs":[],"outputs":[],"stateMutability":"nonpayable"},{"type":"function","name":"_delegatorCount","inputs":[],"outputs":[{"name":"","type":"uint256","internalType":"uint256"}],"stateMutability":"view"},{"type":"function","name":"_getImplementation","inputs":[{"name":"clone","type":"address","internalType":"address"}],"outputs":[{"name":"impl","type":"address","internalType":"address"}],"stateMutability":"view"},{"type":"function","name":"_isDelegatorNode","inputs":[{"name":"sender","type":"address","internalType":"address"}],"outputs":[{"name":"","type":"bool","internalType":"bool"}],"stateMutability":"view"},{"type":"function","name":"_isSafe","inputs":[],"outputs":[{"name":"","type":"bool","internalType":"bool"}],"stateMutability":"view"},{"type":"function","name":"_isSecureBase","inputs":[{"name":"sender","type":"address","internalType":"address"}],"outputs":[{"name":"","type":"bool","internalType":"bool"}],"stateMutability":"view"},{"type":"function","name":"_isSigner","inputs":[{"name":"sender","type":"address","internalType":"address"}],"outputs":[{"name":"","type":"bool","internalType":"bool"}],"stateMutability":"view"},{"type":"function","name":"actualTVL","inputs":[],"outputs":[{"name":"","type":"uint256","internalType":"uint256"}],"stateMutability":"view"},{"type":"function","name":"closeTransferTarget","inputs":[{"name":"to","type":"address","internalType":"address"}],"outputs":[],"stateMutability":"nonpayable"},{"type":"function","name":"currentRefreshId","inputs":[],"outputs":[{"name":"","type":"uint256","internalType":"uint256"}],"stateMutability":"view"},{"type":"function","name":"forms","inputs":[{"name":"","type":"uint256","internalType":"uint256"}],"outputs":[{"name":"from","type":"address","internalType":"address"},{"name":"to","type":"address","internalType":"address"}],"stateMutability":"view"},{"type":"function","name":"getBalance","inputs":[],"outputs":[{"name":"","type":"uint256","internalType":"uint256"}],"stateMutability":"view"},{"type":"function","name":"getForm","inputs":[{"name":"formId","type":"uint256","internalType":"uint256"}],"outputs":[{"name":"from","type":"address","internalType":"address"},{"name":"to","type":"address","internalType":"address"}],"stateMutability":"view"},{"type":"function","name":"getFormsCount","inputs":[],"outputs":[{"name":"","type":"uint256","internalType":"uint256"}],"stateMutability":"view"},{"type":"function","name":"getHexbase","inputs":[],"outputs":[{"name":"","type":"address","internalType":"address"}],"stateMutability":"view"},{"type":"function","name":"getImportedNodeByIndex","inputs":[{"name":"index","type":"uint256","internalType":"uint256"}],"outputs":[{"name":"node","type":"address","internalType":"address"}],"stateMutability":"view"},{"type":"function","name":"getUserOldData","inputs":[{"name":"user","type":"address","internalType":"address"}],"outputs":[{"name":"uold","type":"tuple","internalType":"struct TransferRequests.UserOldDataStr","components":[{"name":"rwrd","type":"uint256","internalType":"uint256"},{"name":"royl","type":"uint256","internalType":"uint256"},{"name":"self","type":"uint256","internalType":"uint256"},{"name":"yei","type":"uint256","internalType":"uint256"},{"name":"tour1","type":"uint256","internalType":"uint256"},{"name":"tour2","type":"uint256","internalType":"uint256"},{"name":"tvl","type":"uint256","internalType":"uint256"},{"name":"claimeddollar","type":"uint256","internalType":"uint256"},{"name":"oldRWRD","type":"uint256","internalType":"uint256"},{"name":"oldYEILD","type":"uint256","internalType":"uint256"},{"name":"exists","type":"bool","internalType":"bool"}]}],"stateMutability":"view"},{"type":"function","name":"getimportedNodeCount","inputs":[],"outputs":[{"name":"nodesCount","type":"uint256","internalType":"uint256"}],"stateMutability":"view"},{"type":"function","name":"importRankBusiness","inputs":[{"name":"_fromAge","type":"uint256","internalType":"uint256"},{"name":"_toAge","type":"uint256","internalType":"uint256"}],"outputs":[],"stateMutability":"nonpayable"},{"type":"function","name":"importedNode","inputs":[{"name":"","type":"uint256","internalType":"uint256"}],"outputs":[{"name":"","type":"address","internalType":"address"}],"stateMutability":"view"},{"type":"function","name":"owner","inputs":[],"outputs":[{"name":"","type":"address","internalType":"address"}],"stateMutability":"view"},{"type":"function","name":"refreshusers","inputs":[{"name":"batchSize","type":"uint256","internalType":"uint256"},{"name":"maxintervals","type":"uint256","internalType":"uint256"},{"name":"lastdays","type":"uint256","internalType":"uint256"}],"outputs":[],"stateMutability":"nonpayable"},{"type":"function","name":"resolveParent","inputs":[{"name":"","type":"address","internalType":"address"}],"outputs":[{"name":"","type":"address","internalType":"address"}],"stateMutability":"view"},{"type":"function","name":"resolveTransferTarget","inputs":[{"name":"to","type":"address","internalType":"address"}],"outputs":[{"name":"","type":"address","internalType":"address"}],"stateMutability":"view"},{"type":"function","name":"setBase","inputs":[{"name":"_f","type":"address","internalType":"address"}],"outputs":[],"stateMutability":"nonpayable"},{"type":"function","name":"setsysdata","inputs":[{"name":"price","type":"uint256","internalType":"uint256"},{"name":"prevAge","type":"uint256","internalType":"uint256"},{"name":"cnt","type":"uint256[7]","internalType":"uint256[7]"}],"outputs":[],"stateMutability":"nonpayable"},{"type":"function","name":"setsysdatawithrefresh","inputs":[{"name":"batchSize","type":"uint256","internalType":"uint256"},{"name":"maxintervals","type":"uint256","internalType":"uint256"},{"name":"lastdays","type":"uint256","internalType":"uint256"},{"name":"price","type":"uint256","internalType":"uint256"},{"name":"prevAge","type":"uint256","internalType":"uint256"},{"name":"cnt","type":"uint256[7]","internalType":"uint256[7]"}],"outputs":[],"stateMutability":"nonpayable"},{"type":"function","name":"submitTransferForm","inputs":[{"name":"_from","type":"address","internalType":"address"},{"name":"_to","type":"address","internalType":"address"}],"outputs":[],"stateMutability":"nonpayable"},{"type":"function","name":"syncBaseAddr","inputs":[],"outputs":[],"stateMutability":"nonpayable"},{"type":"function","name":"syncSystem","inputs":[],"outputs":[],"stateMutability":"nonpayable"},{"type":"function","name":"syncusers","inputs":[{"name":"batchSize","type":"uint256","internalType":"uint256"}],"outputs":[],"stateMutability":"nonpayable"},{"type":"function","name":"systemAge","inputs":[],"outputs":[{"name":"","type":"uint256","internalType":"uint256"}],"stateMutability":"view"},{"type":"function","name":"updateData1","inputs":[{"name":"users","type":"address[]","internalType":"address[]"},{"name":"tvls","type":"uint256[]","internalType":"uint256[]"},{"name":"claimdollar","type":"uint256[]","internalType":"uint256[]"},{"name":"tour1","type":"uint256[]","internalType":"uint256[]"},{"name":"tour2","type":"uint256[]","internalType":"uint256[]"},{"name":"action","type":"uint256","internalType":"uint256"}],"outputs":[],"stateMutability":"nonpayable"},{"type":"function","name":"updateData2","inputs":[{"name":"users","type":"address[]","internalType":"address[]"},{"name":"rwrd","type":"uint256[]","internalType":"uint256[]"},{"name":"royl","type":"uint256[]","internalType":"uint256[]"},{"name":"self","type":"uint256[]","internalType":"uint256[]"},{"name":"yei","type":"uint256[]","internalType":"uint256[]"},{"name":"action","type":"uint256","internalType":"uint256"}],"outputs":[],"stateMutability":"nonpayable"},{"type":"event","name":"EthBurned","inputs":[{"name":"sender","type":"address","indexed":true,"internalType":"address"},{"name":"amount","type":"uint256","indexed":false,"internalType":"uint256"}],"anonymous":false},{"type":"event","name":"EthTransferred","inputs":[{"name":"to","type":"address","indexed":true,"internalType":"address"},{"name":"amount","type":"uint256","indexed":false,"internalType":"uint256"}],"anonymous":false},{"type":"event","name":"HexBaseUpdated","inputs":[{"name":"previousHexBase","type":"address","indexed":true,"internalType":"address"},{"name":"newHexBase","type":"address","indexed":true,"internalType":"address"}],"anonymous":false},{"type":"event","name":"OwnerUpdated","inputs":[{"name":"previousOwner","type":"address","indexed":true,"internalType":"address"},{"name":"newOwner","type":"address","indexed":true,"internalType":"address"}],"anonymous":false},{"type":"error","name":"InvalidAddress","inputs":[]},{"type":"error","name":"InvalidState","inputs":[]},{"type":"error","name":"NotAuthorized","inputs":[]},{"type":"error","name":"NotSafe","inputs":[]},{"type":"error","name":"ProposerInvalidFormId","inputs":[]},{"type":"error","name":"ProposerToExists","inputs":[]},{"type":"error","name":"ProxyInvalidInstance","inputs":[]},{"type":"error","name":"ProxyInvalidNode","inputs":[]},{"type":"error","name":"ProxyInvalidStor","inputs":[]},{"type":"error","name":"ReentrancyGuardReentrantCall","inputs":[]},{"type":"error","name":"TargetCallFailed","inputs":[{"name":"selector","type":"bytes4","internalType":"bytes4"}]},{"type":"error","name":"UtilityBatchInvalid","inputs":[]},{"type":"error","name":"UtilityBatchLimitExceeded","inputs":[]},{"type":"error","name":"UtilityImportDone","inputs":[]},{"type":"error","name":"UtilityUnsecureFailed","inputs":[]}],"bytecode":{"object":"0x608034620000a357601f6200375838819003918201601f19168301916001600160401b03831184841017620000a857808492602094604052833981010312620000a357516001600160a01b03811690819003620000a3578015620000915760018060a01b03193381600154161760015560005416176000556001600d5560016015556040516136999081620000bf8239f35b60405163e6c4247b60e01b8152600490fd5b600080fd5b634e487b7160e01b600052604160045260246000fdfe60806040526004361015610018575b361561001657005b005b60003560e01c8063083d69381461025857806312065fe0146102535780631480a85b1461024e57806318c864e3146102495780631f185d161461024457806323b0586f1461023f578063339459a61461023a5780633b9b795514610235578063479fa2c3146102305780634ef260a91461022b57806355ed5fee1461022657806357ea89b61461022157806385301b861461021c5780638d6edc14146102175780638da5cb5b1461021257806396970c961461020d578063a1f7f53914610208578063ab7e46ae14610203578063ac233345146101fe578063add43bca146101f9578063af484526146101f4578063b3cea918146101ef578063b8f1759a146101ea578063b90306ad146101e5578063be17fe62146101e0578063c1e6cec2146101db578063c54e44b0146101d6578063c9a29150146101d1578063cab3cc8d146101cc578063e01ad5fd146101c7578063e0a9bc2b146101c2578063e846034a146101bd578063e981bcad146101b8578063ed6c1b58146101b3578063f245fe7a146101ae5763fdc10bc90361000e5761208f565b611bce565b611a74565b6119c1565b6119a3565b611988565b6118c1565b6118a3565b611843565b6117e7565b6117aa565b6116f7565b61160f565b6115c6565b6114f6565b611446565b6113e5565b6113ac565b611363565b6112f9565b6112ba565b61120f565b6111f1565b61109e565b610e81565b610e63565b610d97565b610d3f565b610d16565b610950565b61084a565b610787565b61073a565b6104d4565b61049b565b61032c565b9181601f8401121561028d578235916001600160401b03831161028d576020808501948460051b01011161028d57565b600080fd5b60c060031982011261028d576004906001600160401b03823581811161028d57826102be91850161025d565b9490949360243583811161028d57846102d891830161025d565b9490949360443581811161028d57826102f291850161025d565b9490949360643583811161028d578461030c91830161025d565b9490949360843590811161028d57610324920161025d565b909160a43590565b3461028d5761033a36610292565b9661034b99919693989295996120ce565b61035361325e565b1561047e57610361336132d0565b801561046a575b156104585760049660206103856103806000546104b7565b6104b7565b60405163111ea8c160e21b8152998a9182905afa97881561045357600098610423575b5060005b8381106103bd576100166001600d55565b8061041d8b8f8f8f8b8f938f938f93998b8f938f8f9d61040860019f61041697610401888096936103fb6103f683809761040f9c612bd8565b612be8565b9c612bd8565b359a612bd8565b3598612bd8565b3596612bd8565b3594612ca7565b016103ac565b61044591985060203d811161044c575b61043d8183610fd7565b8101906120aa565b96386103a8565b503d610433565b6120c2565b60405163ea8e4eb560e01b8152600490fd5b506005546001600160a01b03163314610368565b604051634ee2123760e11b8152600490fd5b600091031261028d57565b3461028d57600036600319011261028d57602047604051908152f35b6001600160a01b031690565b6001600160a01b0381160361028d57565b3461028d5760408060031936011261028d576004908135916104f5836104c3565b60243591610502836104c3565b6001600160a01b0384811680156106d757818516156106d757331415806106c1575b806106aa575b61069c5761053784611238565b5461068e576001610546612155565b506105518782612188565b019461055d8587612188565b61056f610380610380848754166104b7565b8351630dda4f8160e11b81526020959186908290818061059188828901610d03565b03915afa80156104535761038087956105c6610380936105e89b6105ce9660009261066b575b506105c190611252565b612188565b8454166104b7565b908451809781948293630e5fd00b60e01b84528301610d03565b03915afa908115610453576106339360009261064c575b505163641657cb60e01b928101929092526001602483015261062e82604481015b03601f198101845283610fd7565b6135c1565b5061064961064460135492546104b7565b611238565b55005b610664919250833d851161044c5761043d8183610fd7565b90386105ff565b6105c1919250610687908b3d8d1161044c5761043d8183610fd7565b91906105b7565b50516314973f6d60e31b8152fd5b505163ea8e4eb560e01b8152fd5b50336106ba6103806005546104b7565b141561052a565b506106d26106ce336132d0565b1590565b610524565b50505163e6c4247b60e01b8152fd5b634e487b7160e01b600052603260045260246000fd5b60135481101561071b57601360005260206000209060011b0190600090565b6106e6565b6001600160a01b0391821681529116602082015260400190565b3461028d57602036600319011261028d5760043560135481101561028d57610761906106fc565b5060018060a01b03600181835416920154169061078360405192839283610720565b0390f35b3461028d5760208060031936011261028d576107fa6004356107a8816104c3565b6002546040516001600160a01b039283168582015284815291166107cb82610f86565b604051906107d882610f86565b601182527069735369676e657228616464726573732960781b85830152613495565b919080610840575b1561082e57818161081c926107839451830101910161324a565b60405190151581529081906020820190565b60405163baf3f0f760e01b8152600490fd5b5080825114610802565b3461028d5761085836610292565b9661086999919693989295996120ce565b61087161325e565b1561047e5761087f336132d0565b801561093c575b1561045857600496602061089e6103806000546104b7565b60405163111ea8c160e21b8152998a9182905afa9788156104535760009861091c575b5060005b8381106108d6576100166001600d55565b806109168b8f8f8f8b8f938f938f93998b8f938f8f9d61040860019f61090f97610401888096936103fb6103f683809761040f9c612bd8565b3594612e35565b016108c5565b61093591985060203d811161044c5761043d8183610fd7565b96386108c1565b506005546001600160a01b03163314610886565b3461028d57600080600319360112610d005761096f61038082546104b7565b60408051634bf9c0ad60e11b81529160049190602080858581855afa948515610453578695610ce1575b50825163cfbffe5360e01b81529281848681865afa938415610453578794610cc2575b50805163ab6e844f60e01b815282818781875afa908115610453578891610ca5575b508151630536340960e21b815283818881885afa908115610453578991610c88575b50825163d1f956b160e01b81529084828981895afa918215610453578a92610c69575b508351631cc3bfab60e31b81529285848a818a5afa938415610453578b94610c4a575b50845163e09d394d60e01b81529486868b818b5afa958615610453578c96610c2b575b5080516314ac1b5960e21b815298878a8c818c5afa97881561045357610ab09a8e99610c0c575b50808c8451809d819263013cf08b60e01b83528201906000602083019252565b03818d5afa998a15610453578c9b8f9b610bed575b50818451809d635e09dbe760e01b825281845afa9b8c15610453578f9c610bcc575b50819084519d8e8092635506ee0b60e11b82525afa9b8c15610453578e9c610bad575b50610b13610ffa565b9c610b1e908e613015565b8c0190610b2a91613015565b8a0190610b3691613015565b610b439060608a01613015565b610b509060808901613015565b610b5d9060a08801613015565b610b6a9060c08701613015565b610b779060e08601613015565b610b85906101008501613015565b610b93906101208401613015565b610ba1906101408301613015565b610baa90613024565b80f35b81610bc5929d508d3d1061044c5761043d8183610fd7565b9a38610b0a565b82919c50610be690823d841161044c5761043d8183610fd7565b9b90610ae7565b610c05919b50823d841161044c5761043d8183610fd7565b9938610ac5565b81610c24929a503d8b1161044c5761043d8183610fd7565b9738610a90565b610c43919650873d891161044c5761043d8183610fd7565b9438610a69565b610c62919450863d881161044c5761043d8183610fd7565b9238610a46565b610c81919250853d871161044c5761043d8183610fd7565b9038610a23565b610c9f9150843d861161044c5761043d8183610fd7565b38610a00565b610cbc9150833d851161044c5761043d8183610fd7565b386109de565b610cda919450823d841161044c5761043d8183610fd7565b92386109bc565b81610cf99296503d871161044c5761043d8183610fd7565b9338610999565b80fd5b6001600160a01b03909116815260200190565b3461028d57600036600319011261028d576000546040516001600160a01b039091168152602090f35b3461028d57602036600319011261028d5760043580158015610d8c575b610d7a576000198101908111610d7557610761906106fc565b6121a7565b604051634ba3caa560e11b8152600490fd5b506013548111610d5c565b3461028d57602036600319011261028d57600435610db4816104c3565b336001600160a01b038216141580610e51575b80610e3a575b61045857610dda81611238565b5480151580610e2e575b610dea57005b61001691610e02610dfd610e1e936121bd565b6106fc565b50506000610e0f82611238565b55610e198161222e565b611252565b80546001600160a01b0319169055565b50601354811115610de4565b5033610e4a6103806005546104b7565b1415610dcd565b50610e5e6106ce336132d0565b610dc7565b3461028d57600036600319011261028d576020601554604051908152f35b3461028d57600080600319360112610d0057610e9b61325e565b1561047e57610ea9336132d0565b8015610f44575b1561045857610ebd6120ce565b60046020610ece61038084546104b7565b60405163de433f1760e01b815292839182905afa908115610453578280809381938291610f26575b50479082908215610f1c575b6001600160a01b031690f11561045357610baa6001600d55565b6108fc9150610f02565b610f3e915060203d811161044c5761043d8183610fd7565b38610ef6565b506005546001600160a01b03163314610eb0565b634e487b7160e01b600052604160045260246000fd5b6001600160401b038111610f8157604052565b610f58565b604081019081106001600160401b03821117610f8157604052565b60e081019081106001600160401b03821117610f8157604052565b602081019081106001600160401b03821117610f8157604052565b601f909101601f19168101906001600160401b03821190821017610f8157604052565b6040519061016082016001600160401b03811183821017610f8157604052565b806063121561028d576040519061103082610fa1565b8161012491821161028d576044905b82821061104c5750505090565b813581526020918201910161103f565b8060c3121561028d576040519061107282610fa1565b8161018491821161028d5760a4905b82821061108e5750505090565b8135815260209182019101611081565b3461028d5761012036600319011261028d576110b93661101a565b6110c16120ce565b6110c961325e565b1561047e576110d7336132d0565b80156111dd575b1561045857600460009160206110f761038085546104b7565b6040516369e8d84b60e11b815293849182905afa9182156104535783926111469184916111bf575b506040516315ec7fad60e01b602082015260043560248201529061062e8260448101610620565b5061115b6103806103806103806004546104b7565b90813b156111bb57829161118891604051948580948193637818cdd760e01b835260243560048401612fde565b03925af18015610453576111a2575b50610baa6001600d55565b806111af6111b592610f6e565b80610490565b38611197565b5050fd5b6111d7915060203d811161044c5761043d8183610fd7565b3861111f565b506005546001600160a01b031633146110de565b3461028d57600036600319011261028d576020601654604051908152f35b3461028d57600036600319011261028d576001546040516001600160a01b039091168152602090f35b6001600160a01b0316600090815260116020526040902090565b6001600160a01b0316600090815260126020526040902090565b6001600160a01b03166000908152600e6020526040902090565b6001600160a01b03166000908152600f6020526040902090565b6001600160a01b0316600090815260106020526040902090565b3461028d57602036600319011261028d5760206004356112d9816104c3565b60018060a01b038091166000526012825260406000205416604051908152f35b3461028d57600036600319011261028d57602061135b60018060a01b036006541660405161132681610f86565b601381527267657464656c656761746f72436f756e74282960681b848201526040519161135283610fbc565b60008352613554565b604051908152f35b3461028d57602036600319011261028d5760043560145481101561028d57601460005260008051602061364483398151915201546040516001600160a01b039091168152602090f35b3461028d57602036600319011261028d5760206113d36004356113ce816104c3565b6121d9565b6040516001600160a01b039091168152f35b3461028d57602036600319011261028d576113fe6120ce565b61140661325e565b1561047e57611414336132d0565b8015611432575b156104585761142b6004356126be565b6001600d55005b506005546001600160a01b0316331461141b565b3461028d57602036600319011261028d57602061146d600435611468816104c3565b6132d0565b6040519015158152f35b6114f490929192610160810193805182526020810151602083015260408101516040830152606081015160608301526080810151608083015260a081015160a083015260c081015160c083015260e081015160e0830152610100808201519083015261012080820151908301526101408091015191019015159052565b565b3461028d57602036600319011261028d57600435611513816104c3565b61151b6120f1565b506001600160a01b03166000908152600e60205260409020610783906115ba6115b0600a611547610ffa565b938054855260018101546020860152600281015460408601526003810154606086015260048101546080860152600581015460a0860152600681015460c0860152600781015460e086015260088101546101008601526009810154610120860152015460ff1690565b1515610140830152565b60405191829182611477565b3461028d57602036600319011261028d5760043560145481101561071b57601460005260008051602061364483398151915201546040516001600160a01b039091168152602090f35b3461028d57602036600319011261028d5760043561162b61325e565b1561047e576005546001600160a01b03163303610458576000906004602061165661038085546104b7565b6040516311be646b60e21b815292839182905afa801561045357838084819493829483916116d9575b505af161168a61338e565b501561082e577fcdcc745fe377b103b45fa0cec23ae3ef93d6fc6a84a01f0d18c40b354dd1d5d86116d36116c2610380600b546104b7565b604051938452929081906020820190565b0390a280f35b6116f1915060203d811161044c5761043d8183610fd7565b3861167f565b3461028d57602036600319011261028d57600435611714816104c3565b61171c61325e565b1561047e5761172a336132d0565b8015611796575b15610458576001600160a01b03908116801561178457600080546001600160a01b03198116831782559092167fe939feee179e631422bcc8f6e6d7d908cb3f8af38f5372f17c77e15aea5c80ee8380a380f35b60405163e6c4247b60e01b8152600490fd5b506005546001600160a01b03163314611731565b3461028d57602036600319011261028d576004356117c7816104c3565b60018060a01b031660005260116020526020604060002054604051908152f35b3461028d57602036600319011261028d57600435611804816104c3565b803b600061181182612530565b9261181f6040519485610fd7565b82845260208401903c602d81511061082e57602a602091015160601c604051908152f35b3461028d57606036600319011261028d5761185c6120ce565b61186461325e565b1561047e57611872336132d0565b801561188f575b156104585761142b6044356024356004356122de565b506005546001600160a01b03163314611879565b3461028d57600036600319011261028d576020601354604051908152f35b3461028d5760208060031936011261028d5761078390600435906118e4826104c3565b6006546040516001600160a01b03938416838201528281529216916119449061190c81610f86565b60405161191881610f86565b6018815277697364656c656761746f724e6f646528616464726573732960401b84820152600094613495565b91908061197e575b611965575b505060405190151581529081906020820190565b6119779250808251830101910161324a565b3880611951565b508082511461194c565b3461028d57600036600319011261028d57602061146d61325e565b3461028d57600036600319011261028d576020601454604051908152f35b3461028d57604036600319011261028d576119da6120ce565b6119e261325e565b1561047e576119f0336132d0565b8015611a60575b15610458576004546001600160a01b0316803b1561028d57600080916044604051809481936333b59a5b60e01b8352600435600484015260243560248401525af1801561045357611a4d575b6100166001600d55565b806111af611a5a92610f6e565b38611a43565b506005546001600160a01b031633146119f7565b3461028d5761018036600319011261028d57611a8f3661105c565b611a976120ce565b611a9f61325e565b1561047e57611aad336132d0565b8015611bba575b156104585760046000916020611acd61038085546104b7565b6040516369e8d84b60e11b815293849182905afa918215610453578392611b1c918491611b9c575b506040516315ec7fad60e01b602082015260643560248201529061062e8260448101610620565b50611b316103806103806103806004546104b7565b90813b156111bb578291611b5e91604051948580948193637818cdd760e01b835260843560048401612fde565b03925af1801561045357611b89575b50611b7f6044356024356004356122de565b610baa6001600d55565b806111af611b9692610f6e565b38611b6d565b611bb4915060203d811161044c5761043d8183610fd7565b38611af5565b506005546001600160a01b03163314611ab4565b3461028d57600080600319360112610d0057611be86120ce565b611bf561038082546104b7565b60408051808093634bf9c0ad60e11b8252602094859160049485915afa801561045357611c29918691612044575b50612f77565b8083611c3861038087546104b7565b84516369e8d84b60e11b815292839182905afa801561045357611c619186916120445750612f77565b8083611c7061038087546104b7565b845163ab6e844f60e01b815292839182905afa801561045357611c999186916120445750612f77565b611ca661038085546104b7565b82518481848163cfbffe5360e01b958682525afa801561045357611cd09187916120615750612f77565b8184611cdf61038088546104b7565b8551630536340960e21b815292839182905afa801561045357611d089187916120615750612f77565b8184611d1761038088546104b7565b855163d1f956b160e01b815292839182905afa801561045357611d409187916120615750612f77565b8184611d4f61038088546104b7565b8551631cc3bfab60e31b815292839182905afa801561045357611d789187916120615750612f77565b8184611d8761038088546104b7565b855163e09d394d60e01b815292839182905afa801561045357611db09187916120615750612f77565b8184611dbf61038088546104b7565b85516314ac1b5960e21b815292839182905afa801561045357611de89187916120615750612f77565b611df561038086546104b7565b848451809263013cf08b60e01b82528180611e17888201906000602083019252565b03915afa801561045357611e319187916120615750612f77565b611e3e61038086546104b7565b83518581635bb8e44b60e11b938482528180611e61898201906000602083019252565b03915afa801561045357611e7b9188916120785750612f77565b611e8861038087546104b7565b85855180928482528180611ea3898201906001602083019252565b03915afa801561045357611ebd9188916120785750612f77565b611eca61038087546104b7565b85855180928482528180611ee5898201906002602083019252565b03915afa801561045357611eff9188916120785750612f77565b611f0c61038087546104b7565b85855180928482528180611f27898201906003602083019252565b03915afa801561045357611f419188916120785750612f77565b84611f4f61038088546104b7565b91855192839182528180611f6a888201906004602083019252565b03915afa801561045357611f849187916120615750612f77565b8184611f9361038088546104b7565b8551635e09dbe760e01b815292839182905afa801561045357611fbc9187916120615750612f77565b8184611fcb61038088546104b7565b8551635506ee0b60e11b815294859182905afa928315610453578593611ff79188916120445750612f77565b61200461038087546104b7565b93518094819382525afa90811561045357611b7f928492612027575b5050612fac565b61203d9250803d1061044c5761043d8183610fd7565b3880612020565b61205b9150853d871161044c5761043d8183610fd7565b38611c23565b61205b9150863d881161044c5761043d8183610fd7565b61205b9150873d891161044c5761043d8183610fd7565b3461028d57600036600319011261028d57602061135b613351565b9081602091031261028d57516120bf816104c3565b90565b6040513d6000823e3d90fd5b6002600d54146120df576002600d55565b604051633ee5aeb560e01b8152600490fd5b6040519061016082016001600160401b03811183821017610f8157604052816101406000918281528260208201528260408201528260608201528260808201528260a08201528260c08201528260e082015282610100820152826101208201520152565b601354600160401b811015610f8157600181018060135581101561071b57601360005260206000209060011b0190600090565b80546001600160a01b0319166001600160a01b03909216919091179055565b634e487b7160e01b600052601160045260246000fd5b600019810191908211610d7557565b91908203918211610d7557565b6001600160a01b0390811660009081526011602052604090205480151580612222575b612207575050600090565b6000198101908111610d755761221c906106fc565b50541690565b506013548111156121fc565b601454600160401b811015610f8157600181018060145581101561071b5760146000526000805160206136448339815191520180546001600160a01b0319166001600160a01b03909216919091179055565b9081602091031261028d575190565b9060018201809211610d7557565b91908201809211610d7557565b6000198114610d755760010190565b919082604091031261028d57602082516122d2816104c3565b9201516120bf816104c3565b9081158015612526575b6125145760049061230261038061038061038085546104b7565b6040918251948592630c3d4e4160e31b8452838660209586935afa958615610453576000966124f5575b5085156124ec5785601554116124dd575b61235261234d601554928361229d565b6121bd565b968688116124d3575b61236c90612367613351565b6121cc565b905b878111156123a25750505050505081101560001461239157506114f46001601555565b61239d6114f49161228f565b601555565b6123b561038061038061038089546104b7565b9085805180936315dd729760e11b825281806123d8868d83019190602083019252565b03915afa9182156104535760009081936124a1575b506001600160a01b0392869082851615612494578989518096819363725b6fff60e01b8352165afa80156104535761243593600091612467575b50841161243a575b506122aa565b61236e565b8651639c75dd3560e01b87820152602481018690526124609161062e8260448101610620565b503861242f565b6124879150873d891161248d575b61247f8183610fd7565b810190612280565b38612427565b503d612475565b50505061243591506122aa565b90506124c4919250863d88116124cc575b6124bc8183610fd7565b8101906122b9565b9190386123ed565b503d6124b2565b959650869561235b565b6124e76001601555565b61233d565b50505050505050565b61250d919650833d851161248d5761247f8183610fd7565b943861232c565b6040516337d5a83360e11b8152600490fd5b50606482116122e8565b6001600160401b038111610f8157601f01601f191660200190565b6040519061255882610f86565b60178252766765744e6f64654279496e6465782875696e743235362960481b6020830152565b6040519061258b82610f86565b6013825272496e7374546f5573657228616464726573732960681b6020830152565b604051906125ba82610f86565b601082526f6765744e6f646528616464726573732960801b6020830152565b5190811515820361028d57565b908160a091031261028d578051916020820151612602816104c3565b916040810151916120bf608061261a606085016125d9565b93016125d9565b6040519061262e82610f86565b601682527567657455736572546f53746f7228616464726573732960501b6020830152565b9060e08282031261028d5780601f8301121561028d576040519161267683610fa1565b829060e0810192831161028d57905b8282106126925750505090565b8151815260209182019101612685565b919082604091031261028d57602082519201516120bf816104c3565b60648111612b70576126d26106ce306132d0565b612b5e576000906126e661038083546104b7565b9160409283519283809263111ea8c160e21b8252602091829160049788915afa928315610453578493612b3f575b508551630c3d4e4160e31b80825290956001600160a01b0393909190838884818989165afa978815610453578798612b20575b508715612b15578361276261038061038061038087546104b7565b92848b518095819382525afa918215610453578792612af6575b5081881115612ae65761278f908261229d565b96808811612ade575b505b8681106127ab575050505050505050565b8751906127e5826127c3838783019190602083019252565b03926127d7601f1994858101835282610fd7565b6127df61254b565b88613546565b85811615612ace5780319261281f8b5161281181612805868b8301610d03565b03848101835282610fd7565b61281961257e565b8a613546565b9187831615612abe576128416106ce600a6128398661126c565b015460ff1690565b612aae5761285b6106ce61285485611286565b5460ff1690565b612aae5761286e6106ce612854856112a0565b612aae57906128b86128aa61289061289c8f958c9796519283918d8301610d03565b03858101835282610fd7565b6128a46125ad565b8c6133be565b8880825183010191016125e6565b50505093909316928015612a9e57908c60018a93148015612a95575b612a5d575b90612909612916926128ee876105c188611252565b5191826128fd878d8301610d03565b03908101835282610fd7565b612911612621565b613503565b16908115612a4d578b519283926294b20960e51b845260e0948591818061294b8c820190600060206040840193600481520152565b03915afa938415610453576129c1948e946060928e92612a20575b50508481015160086129778661126c565b0155015160096129868461126c565b01556129928280612b82565b6129a56103806103806103808a546104b7565b908b84518096819582946350db85d160e01b84528c8401610720565b03925af18015610453576129ef936129ea926129e5926129f4575b5060165461229d565b601655565b6122aa565b61279a565b612a13908d803d10612a19575b612a0b8183610fd7565b8101906126a2565b506129dc565b503d612a01565b612a3f9250803d10612a46575b612a378183610fd7565b810190612653565b3880612966565b503d612a2d565b8b5163216ef5cb60e11b81528690fd5b9390612909612a8b61291693612a7c8c6128908a519384928301610d03565b8d612a8561257e565b90613546565b95919250506128d9565b508415156128d4565b8c5163486bd76360e11b81528790fd5b8b5163baf3f0f760e01b81528690fd5b8b5163486bd76360e11b81528690fd5b895163e7ef22d560e01b81528490fd5b965038612798565b885163017c784560e61b81528390fd5b612b0e919250843d861161248d5761247f8183610fd7565b903861277c565b505050505050505050565b612b38919850843d861161248d5761247f8183610fd7565b9638612747565b81612b579294503d851161044c5761043d8183610fd7565b9138612714565b6040516327e23e1560e11b8152600490fd5b60405163bf2a1c8760e01b8152600490fd5b60135490600160401b821015610f815760018391612bb3612bab8584612bb997016013556106fc565b509182612188565b01612188565b6013546001600160a01b03909116600090815260116020526040902055565b919081101561071b5760051b0190565b356120bf816104c3565b60405190612bff82610f86565b601382527255736572546f496e737428616464726573732960681b6020830152565b600a612c946101406114f494805185556020810151600186015560408101516002860155606081015160038601556080810151600486015560a0810151600586015560c0810151600686015560e08101516007860155610100810151600886015561012081015160098601550151151590565b91019060ff801983541691151516179055565b9594929593919093612ce5604051612cd481612cc68960208301610d03565b03601f198101835282610fd7565b6001600160a01b0392612a85612bf2565b1615610458576114f495612d4895612d046106ce600a6128398961126c565b612e0f575b80612d5557506007612d1a8661126c565b01556006612d278561126c565b01556004612d348461126c565b01556005612d418361126c565b0155611286565b805460ff19166001179055565b60018103612dac5750612d756007612d6c8761126c565b0191825461229d565b9055612d856006612d6c8661126c565b9055612d956004612d6c8561126c565b9055612da56005612d6c8461126c565b9055611286565b600214612dbd575b50505050611286565b612dd46007612dcb8761126c565b019182546121cc565b9055612de46006612dcb8661126c565b9055612df46004612dcb8561126c565b9055612e046005612dcb8461126c565b905538808080612db4565b612e30612e1a6120f1565b6001610140820152612e2b8861126c565b612c21565b612d09565b95949290939195612e53604051612cd481612cc68960208301610d03565b1615610458576114f495612d4895612e726106ce600a6128398961126c565b612f67575b80612eb35750612e868561126c565b556001612e928561126c565b01556002612e9f8461126c565b01556003612eac8361126c565b01556112a0565b60018103612f075750612ed0612ec88661126c565b91825461229d565b9055612ee06001612d6c8661126c565b9055612ef06002612d6c8561126c565b9055612f006003612d6c8461126c565b90556112a0565b600214612f18575b505050506112a0565b612f2c612f248661126c565b9182546121cc565b9055612f3c6001612dcb8661126c565b9055612f4c6002612dcb8561126c565b9055612f5c6003612dcb8461126c565b905538808080612f0f565b612f72612e1a6120f1565b612e77565b6001600160a01b038116612f885750565b6040516319ca2cd360e11b602082015260048152612fa99161062e82610f86565b50565b6001600160a01b038116612fbd5750565b6040516361e1b05d60e11b602082015260048152612fa99161062e82610f86565b908152610100810192919060209060009082015b600782106130005750505050565b82806001928651815201940191019092612ff2565b6001600160a01b039091169052565b6132286101406114f49261305d61303b82516104b7565b600280546001600160a01b0319166001600160a01b0392909216919091179055565b61308f61306d60208301516104b7565b600380546001600160a01b0319166001600160a01b0392909216919091179055565b6130c161309f60408301516104b7565b600480546001600160a01b0319166001600160a01b0392909216919091179055565b6130f36130d160608301516104b7565b600580546001600160a01b0319166001600160a01b0392909216919091179055565b61312561310360808301516104b7565b600680546001600160a01b0319166001600160a01b0392909216919091179055565b61315761313560a08301516104b7565b600780546001600160a01b0319166001600160a01b0392909216919091179055565b61318961316760c08301516104b7565b600880546001600160a01b0319166001600160a01b0392909216919091179055565b6131bb61319960e08301516104b7565b600980546001600160a01b0319166001600160a01b0392909216919091179055565b6131ee6131cc6101008301516104b7565b600a80546001600160a01b0319166001600160a01b0392909216919091179055565b6132216131ff6101208301516104b7565b600b80546001600160a01b0319166001600160a01b0392909216919091179055565b01516104b7565b600c80546001600160a01b0319166001600160a01b0392909216919091179055565b9081602091031261028d576120bf906125d9565b6002546040516132a6916001600160a01b03169061327b81610f86565b6008815267697353616665282960c01b60208201526040519161329d83610fbc565b60008352613495565b90806132c5575b1561082e57806020806120bf9351830101910161324a565b5060208151146132ad565b61332a60018060a01b0380600254166040519160209416848301528382526132f782610f86565b6040519061330482610f86565b601582527469735365637572654261736528616464726573732960581b85830152613495565b9080613347575b1561082e57816120bf928251830101910161324a565b5081815114613331565b6003546040516120bf916001600160a01b03169061336e81610f86565b600681526569416765282960d01b60208201526040519161135283610fbc565b3d156133b9573d9061339f82612530565b916133ad6040519384610fd7565b82523d6000602084013e565b606090565b906133c99291613495565b90600090156133d6575090565b60405191506133e482610fbc565b815290565b9073a4cb3f45f46b3c31780d70568b0627b3339eb76d91823b1561347c578051906020918263ffffffff60e01b92012016916040519180830193845281519160005b83811061346857505050918161345860248260009795968897018783820152036004810184520182610fd7565b51915afa61346461338e565b9091565b81810183015185820160240152820161342b565b50505060009060405161348e81610fbc565b6000815290565b9190823b1561347c578051906020918263ffffffff60e01b92012016916040519180830193845281519160005b8381106134ef57505050918161345860248260009795968897018783820152036004810184520182610fd7565b8181018301518582016024015282016134c2565b60009291613510916133e9565b908061353b575b61351e5750565b90915060208180518101031261028d57602001516104b7816104c3565b506020815114613517565b929161351091600094613495565b929161356291600094613495565b9080613585575b6135705750565b6120bf91925060208082518301019101612280565b506020815114613569565b906020825192015163ffffffff60e01b9081811693600481106135b257505050565b60040360031b82901b16169150565b6001600160a01b0381161561178457600080918351908260208601915af1906135e861338e565b91156135f2575090565b80516000919060041161363d576136099150613590565b8151156136195750805190602001fd5b604051630870274d60e21b81526001600160e01b0319919091166004820152602490fd5b5061360956fece6d7b5282bd9a3661ae061feed1dbda4e52ab073b1f9285be6e155d9c38d4eca2646970667358221220bf538224d1adf91dc91a1067aab0414730ab80271246cf810464efa2b660956764736f6c63430008140033","linkReferences":{}},"methodIdentifiers":{"Burn(uint256)":"b90306ad","UserToForm(address)":"c1e6cec2","Withdraw()":"57ea89b6","_delegatorCount()":"a1f7f539","_getImplementation(address)":"c54e44b0","_isDelegatorNode(address)":"e01ad5fd","_isSafe()":"e0a9bc2b","_isSecureBase(address)":"af484526","_isSigner(address)":"1f185d16","actualTVL()":"8d6edc14","closeTransferTarget(address)":"4ef260a9","currentRefreshId()":"55ed5fee","forms(uint256)":"18c864e3","getBalance()":"12065fe0","getForm(uint256)":"479fa2c3","getFormsCount()":"cab3cc8d","getHexbase()":"3b9b7955","getImportedNodeByIndex(uint256)":"b8f1759a","getUserOldData(address)":"b3cea918","getimportedNodeCount()":"e846034a","importRankBusiness(uint256,uint256)":"e981bcad","importedNode(uint256)":"ab7e46ae","owner()":"8da5cb5b","refreshusers(uint256,uint256,uint256)":"c9a29150","resolveParent(address)":"96970c96","resolveTransferTarget(address)":"ac233345","setBase(address)":"be17fe62","setsysdata(uint256,uint256,uint256[7])":"85301b86","setsysdatawithrefresh(uint256,uint256,uint256,uint256,uint256,uint256[7])":"ed6c1b58","submitTransferForm(address,address)":"1480a85b","syncBaseAddr()":"339459a6","syncSystem()":"f245fe7a","syncusers(uint256)":"add43bca","systemAge()":"fdc10bc9","updateData1(address[],uint256[],uint256[],uint256[],uint256[],uint256)":"083d6938","updateData2(address[],uint256[],uint256[],uint256[],uint256[],uint256)":"23b0586f"},"id":24}