{"abi":[{"type":"constructor","inputs":[{"name":"_backend","type":"address","internalType":"address"},{"name":"_hex","type":"address","internalType":"address"}],"stateMutability":"nonpayable"},{"type":"fallback","stateMutability":"payable"},{"type":"receive","stateMutability":"payable"},{"type":"function","name":"Burn","inputs":[{"name":"amount","type":"uint256","internalType":"uint256"}],"outputs":[],"stateMutability":"nonpayable"},{"type":"function","name":"_delegatorCount","inputs":[],"outputs":[{"name":"","type":"uint256","internalType":"uint256"}],"stateMutability":"view"},{"type":"function","name":"_getImplementation","inputs":[{"name":"clone","type":"address","internalType":"address"}],"outputs":[{"name":"impl","type":"address","internalType":"address"}],"stateMutability":"view"},{"type":"function","name":"_isDelegatorNode","inputs":[{"name":"sender","type":"address","internalType":"address"}],"outputs":[{"name":"","type":"bool","internalType":"bool"}],"stateMutability":"view"},{"type":"function","name":"_isSafe","inputs":[],"outputs":[{"name":"","type":"bool","internalType":"bool"}],"stateMutability":"view"},{"type":"function","name":"_isSecureBase","inputs":[{"name":"sender","type":"address","internalType":"address"}],"outputs":[{"name":"","type":"bool","internalType":"bool"}],"stateMutability":"view"},{"type":"function","name":"_isSigner","inputs":[{"name":"sender","type":"address","internalType":"address"}],"outputs":[{"name":"","type":"bool","internalType":"bool"}],"stateMutability":"view"},{"type":"function","name":"backendSigner","inputs":[],"outputs":[{"name":"","type":"address","internalType":"address"}],"stateMutability":"view"},{"type":"function","name":"getBalance","inputs":[],"outputs":[{"name":"","type":"uint256","internalType":"uint256"}],"stateMutability":"view"},{"type":"function","name":"getHexbase","inputs":[],"outputs":[{"name":"","type":"address","internalType":"address"}],"stateMutability":"view"},{"type":"function","name":"owner","inputs":[],"outputs":[{"name":"","type":"address","internalType":"address"}],"stateMutability":"view"},{"type":"function","name":"sendOzone","inputs":[{"name":"user","type":"address","internalType":"address"},{"name":"amount","type":"uint256","internalType":"uint256"}],"outputs":[],"stateMutability":"nonpayable"},{"type":"function","name":"setBackend","inputs":[{"name":"newBackend","type":"address","internalType":"address"}],"outputs":[],"stateMutability":"nonpayable"},{"type":"function","name":"systemAge","inputs":[],"outputs":[{"name":"","type":"uint256","internalType":"uint256"}],"stateMutability":"view"},{"type":"event","name":"BackendUpdated","inputs":[{"name":"oldBackend","type":"address","indexed":false,"internalType":"address"},{"name":"newBackend","type":"address","indexed":false,"internalType":"address"}],"anonymous":false},{"type":"event","name":"EthBurned","inputs":[{"name":"sender","type":"address","indexed":true,"internalType":"address"},{"name":"amount","type":"uint256","indexed":false,"internalType":"uint256"}],"anonymous":false},{"type":"event","name":"EthTransferred","inputs":[{"name":"to","type":"address","indexed":true,"internalType":"address"},{"name":"amount","type":"uint256","indexed":false,"internalType":"uint256"}],"anonymous":false},{"type":"event","name":"HexBaseUpdated","inputs":[{"name":"previousHexBase","type":"address","indexed":true,"internalType":"address"},{"name":"newHexBase","type":"address","indexed":true,"internalType":"address"}],"anonymous":false},{"type":"event","name":"OwnerUpdated","inputs":[{"name":"previousOwner","type":"address","indexed":true,"internalType":"address"},{"name":"newOwner","type":"address","indexed":true,"internalType":"address"}],"anonymous":false},{"type":"event","name":"OzoneSent","inputs":[{"name":"user","type":"address","indexed":true,"internalType":"address"},{"name":"amount","type":"uint256","indexed":false,"internalType":"uint256"},{"name":"backend","type":"address","indexed":true,"internalType":"address"},{"name":"timestamp","type":"uint256","indexed":false,"internalType":"uint256"}],"anonymous":false},{"type":"error","name":"TargetCallFailed","inputs":[{"name":"selector","type":"bytes4","internalType":"bytes4"}]}],"bytecode":{"object":"0x6080346101515761113b90601f38839003908101601f19168201906001600160401b038211838310176101565780839160409586948552833981010312610151578061004c60209261016c565b6001600160a01b039290918391610063910161016c565b1690811561010d57829060018060a01b03199233846001541617600155836000541617600055169182156100d7577f37f6c561371bb449a598aaf7e5528fc87ad233e82669756cd67fec9c5f665a7b846003549281519084168152856020820152a1161760035551610fba90816101818239f35b835162461bcd60e51b815260206004820152600f60248201526e1253959053125117d09050d2d15391608a1b6044820152606490fd5b835162461bcd60e51b815260206004820152601360248201527f6f776e2e696e76616c69642e68657862617365000000000000000000000000006044820152606490fd5b600080fd5b634e487b7160e01b600052604160045260246000fd5b51906001600160a01b03821682036101515756fe60806040526004361015610018575b361561001657005b005b60003560e01c806312065fe0146100f85780631f185d16146100f35780633b9b7955146100ee57806365d65e86146100e95780638da5cb5b146100e4578063a1f7f539146100df578063a455f523146100da578063af484526146100d5578063b90306ad146100d0578063c54e44b0146100cb578063da7fc24f146100c6578063e01ad5fd146100c1578063e0a9bc2b146100bc5763fdc10bc90361000e5761086b565b610846565b6107a7565b6106ef565b610656565b6105a3565b6104ce565b610385565b6102ce565b6102a5565b61027c565b610253565b61012a565b3461011457600036600319011261011457602047604051908152f35b600080fd5b6001600160a01b0381160361011457565b34610114576020806003193601126101145760049081359061014b82610119565b600054819061016a906001600160a01b03165b6001600160a01b031690565b604051634bf9c0ad60e11b815294859182905afa91821561024e576101c16101fb936101dd9261020d9660009261021b575b506040516001600160a01b0390911685820190815290926101cf918491602090910190565b03601f198101845283610951565b6101d7610b55565b90610cf5565b919080610211575b6101ee90610b82565b8082518301019101610a12565b60405190151581529081906020820190565b0390f35b50815181146101e5565b6101cf91925061024090863d8811610247575b6102388183610951565b810190610973565b919061019c565b503d61022e565b61098b565b34610114576000366003190112610114576000546040516001600160a01b039091168152602090f35b34610114576000366003190112610114576003546040516001600160a01b039091168152602090f35b34610114576000366003190112610114576001546040516001600160a01b039091168152602090f35b346101145760003660031901126101145760005460405163d1f956b160e01b815290602090829060049082906001600160a01b03165afa90811561024e5761020d9161035791600091610367575b5060405161032981610914565b601381527267657464656c656761746f72436f756e74282960681b60208201526103516109b3565b91610dcb565b6040519081529081906020820190565b61037f915060203d8111610247576102388183610951565b3861031c565b34610114576040366003190112610114576004356103a281610119565b600354602435906001600160a01b03908116330361049b57600054600491906020906103d6906001600160a01b031661015e565b604051635e09dbe760e01b815293849182905afa90811561024e5761045c610478927f5c7efd9fe7386a807127cbd8ca38d5a25c41c1399367144da5d403dbe5cd4f729460009161047d575b5060405163a9059cbb60e01b60208201526001600160a01b0388166024820152604481018790529061045782606481016101c1565b610ec8565b5060408051948552426020860152339590911693918291820190565b0390a3005b610495915060203d8111610247576102388183610951565b38610422565b60405162461bcd60e51b815260206004820152600b60248201526a1393d517d09050d2d1539160aa1b6044820152606490fd5b3461011457602080600319360112610114576004908135906104ef82610119565b6000548190610506906001600160a01b031661015e565b604051634bf9c0ad60e11b815294859182905afa91821561024e576101c16101fb936105659261020d96600092610580575b506040516001600160a01b03909116858201908152909261055d918491602090910190565b6101d7610ad8565b919080610576575b6101ee90610b09565b508151811461056d565b61055d91925061059c90863d8811610247576102388183610951565b9190610538565b3461011457602036600319011261011457600054604051630536340960e21b8152906001600160a01b03906020908390600490829085165afa91821561024e57600092610636575b50339116036105ff57610016600435610c24565b60405162461bcd60e51b815260206004820152600f60248201526e6f776e2e6e6f6e617574682e44414f60881b6044820152606490fd5b61064f91925060203d8111610247576102388183610951565b90386105eb565b346101145760203660031901126101145760043561067381610119565b803b600061068082610997565b9261068e6040519485610951565b82845260208401903c602d8151106106b457602a015160405160609190911c8152602090f35b60405162461bcd60e51b81526020600482015260136024820152724e6f742061206d696e696d616c2070726f787960681b6044820152606490fd5b346101145760203660031901126101145760043561070c81610119565b610714610a2a565b1561076d576001546001600160a01b031633036107345761001690610e09565b60405162461bcd60e51b815260206004820152601160248201527037bbb71734b73b30b634b21737bbb732b960791b6044820152606490fd5b60405162461bcd60e51b81526020600482015260126024820152716f776e2e696e76616c69642e69735361666560701b6044820152606490fd5b346101145760208060031936011261011457600480356107c681610119565b60005460405163d1f956b160e01b81526001600160a01b03949093909182918591829088165afa90811561024e5761020d946101fb94600093610827575b50604051931681840152825261081982610914565b610821610bc7565b90610d8f565b61083f919350823d8411610247576102388183610951565b9138610804565b34610114576000366003190112610114576020610861610a2a565b6040519015158152f35b346101145760003660031901126101145760005460405163111ea8c160e21b815290602090829060049082906001600160a01b03165afa90811561024e5761020d91610357916000916108e0575b506040516108c681610914565b6005815264616765282960d81b60208201526103516109b3565b6108f8915060203d8111610247576102388183610951565b386108b9565b634e487b7160e01b600052604160045260246000fd5b6040810190811067ffffffffffffffff82111761093057604052565b6108fe565b6020810190811067ffffffffffffffff82111761093057604052565b90601f8019910116810190811067ffffffffffffffff82111761093057604052565b90816020910312610114575161098881610119565b90565b6040513d6000823e3d90fd5b67ffffffffffffffff811161093057601f01601f191660200190565b604051906109c082610935565b60008252565b156109cd57565b60405162461bcd60e51b815260206004820152601960248201527f6f776e2e7361666567756172642e63616c6c2e6661696c6564000000000000006044820152606490fd5b90816020910312610114575180151581036101145790565b600054604051634bf9c0ad60e11b8152906020908190839060049082906001600160a01b03165afa91821561024e5761098892610aa091600091610abb575b50604051610a7681610914565b6008815267697353616665282960c01b8482015260405191610a9783610935565b60008352610cf5565b919080610ab1575b6101ee906109c6565b5081518114610aa8565b610ad29150833d8511610247576102388183610951565b38610a69565b60405190610ae582610914565b601582527469735365637572654261736528616464726573732960581b6020830152565b15610b1057565b60405162461bcd60e51b815260206004820152601a60248201527f6f776e2e736563757265626173652e63616c6c2e6661696c65640000000000006044820152606490fd5b60405190610b6282610914565b601182527069735369676e657228616464726573732960781b6020830152565b15610b8957565b60405162461bcd60e51b81526020600482015260166024820152751bdddb8b9cda59db995c8b98d85b1b0b99985a5b195960521b6044820152606490fd5b60405190610bd482610914565b6011825270697364656c656761746f724e6f6465282960781b6020830152565b3d15610c1f573d90610c0582610997565b91610c136040519384610951565b82523d6000602084013e565b606090565b600080546040516311be646b60e21b815290602090829060049082906001600160a01b03165afa90811561024e578284819382938391610cd7575b505af1610c6a610bf4565b5015610ca05760405190815233907fcdcc745fe377b103b45fa0cec23ae3ef93d6fc6a84a01f0d18c40b354dd1d5d890602090a2565b60405162461bcd60e51b815260206004820152600f60248201526e1bdddb8b989d5c9b8b99985a5b1959608a1b6044820152606490fd5b610cef915060203d8111610247576102388183610951565b38610c5f565b9190823b15610d76578051906020918263ffffffff60e01b92012016916040519180830193845281519160005b838110610d62575050509181610d4f60248260009795968897018783820152036004810184520182610951565b5191620dbba0fa610d5e610bf4565b9091565b818101830151858201602401528201610d22565b505050600090604051610d8881610935565b6000815290565b9291610d9d91600094610cf5565b9080610dc0575b610dab5750565b61098891925060208082518301019101610a12565b506020815114610da4565b9291610dd991600094610cf5565b9080610dfe575b610de75750565b909150602081805181010312610114576020015190565b506020815114610de0565b6001600160a01b03908116908115610e60577f37f6c561371bb449a598aaf7e5528fc87ad233e82669756cd67fec9c5f665a7b60406003549281519084168152846020820152a16001600160a01b03191617600355565b60405162461bcd60e51b815260206004820152600f60248201526e1253959053125117d09050d2d15391608a1b6044820152606490fd5b906020825192015163ffffffff60e01b908181169360048110610eb957505050565b60040360031b82901b16169150565b6001600160a01b03811615610f4a57600080918351908260208601915af190610eef610bf4565b9115610ef9575090565b805160009190600411610f4457610f109150610e97565b815115610f205750805190602001fd5b604051630870274d60e21b81526001600160e01b0319919091166004820152602490fd5b50610f10565b60405162461bcd60e51b81526020600482015260126024820152711bdddb8b9a5b9d985b1a590b9d185c99d95d60721b6044820152606490fdfea264697066735822122002d6668945d752abc9f7254a33883ad5e970461845453805000ed82e26cffec064736f6c63430008140033","linkReferences":{}},"methodIdentifiers":{"Burn(uint256)":"b90306ad","_delegatorCount()":"a1f7f539","_getImplementation(address)":"c54e44b0","_isDelegatorNode(address)":"e01ad5fd","_isSafe()":"e0a9bc2b","_isSecureBase(address)":"af484526","_isSigner(address)":"1f185d16","backendSigner()":"65d65e86","getBalance()":"12065fe0","getHexbase()":"3b9b7955","owner()":"8da5cb5b","sendOzone(address,uint256)":"a455f523","setBackend(address)":"da7fc24f","systemAge()":"fdc10bc9"},"id":72}