{"abi":[{"type":"constructor","inputs":[{"name":"_backend","type":"address","internalType":"address"},{"name":"_hex","type":"address","internalType":"address"}],"stateMutability":"nonpayable"},{"type":"fallback","stateMutability":"payable"},{"type":"receive","stateMutability":"payable"},{"type":"function","name":"Burn","inputs":[{"name":"amount","type":"uint256","internalType":"uint256"}],"outputs":[],"stateMutability":"nonpayable"},{"type":"function","name":"_delegatorCount","inputs":[],"outputs":[{"name":"","type":"uint256","internalType":"uint256"}],"stateMutability":"view"},{"type":"function","name":"_getImplementation","inputs":[{"name":"clone","type":"address","internalType":"address"}],"outputs":[{"name":"impl","type":"address","internalType":"address"}],"stateMutability":"view"},{"type":"function","name":"_isDelegatorNode","inputs":[{"name":"sender","type":"address","internalType":"address"}],"outputs":[{"name":"","type":"bool","internalType":"bool"}],"stateMutability":"view"},{"type":"function","name":"_isSafe","inputs":[],"outputs":[{"name":"","type":"bool","internalType":"bool"}],"stateMutability":"view"},{"type":"function","name":"_isSecureBase","inputs":[{"name":"sender","type":"address","internalType":"address"}],"outputs":[{"name":"","type":"bool","internalType":"bool"}],"stateMutability":"view"},{"type":"function","name":"_isSigner","inputs":[{"name":"sender","type":"address","internalType":"address"}],"outputs":[{"name":"","type":"bool","internalType":"bool"}],"stateMutability":"view"},{"type":"function","name":"backendSigner","inputs":[],"outputs":[{"name":"","type":"address","internalType":"address"}],"stateMutability":"view"},{"type":"function","name":"getBalance","inputs":[],"outputs":[{"name":"","type":"uint256","internalType":"uint256"}],"stateMutability":"view"},{"type":"function","name":"getHexbase","inputs":[],"outputs":[{"name":"","type":"address","internalType":"address"}],"stateMutability":"view"},{"type":"function","name":"owner","inputs":[],"outputs":[{"name":"","type":"address","internalType":"address"}],"stateMutability":"view"},{"type":"function","name":"sendOzone","inputs":[{"name":"user","type":"address","internalType":"address"},{"name":"amount","type":"uint256","internalType":"uint256"}],"outputs":[],"stateMutability":"nonpayable"},{"type":"function","name":"setBackend","inputs":[{"name":"newBackend","type":"address","internalType":"address"}],"outputs":[],"stateMutability":"nonpayable"},{"type":"function","name":"systemAge","inputs":[],"outputs":[{"name":"","type":"uint256","internalType":"uint256"}],"stateMutability":"view"},{"type":"event","name":"BackendUpdated","inputs":[{"name":"oldBackend","type":"address","indexed":false,"internalType":"address"},{"name":"newBackend","type":"address","indexed":false,"internalType":"address"}],"anonymous":false},{"type":"event","name":"EthBurned","inputs":[{"name":"sender","type":"address","indexed":true,"internalType":"address"},{"name":"amount","type":"uint256","indexed":false,"internalType":"uint256"}],"anonymous":false},{"type":"event","name":"EthTransferred","inputs":[{"name":"to","type":"address","indexed":true,"internalType":"address"},{"name":"amount","type":"uint256","indexed":false,"internalType":"uint256"}],"anonymous":false},{"type":"event","name":"HexBaseUpdated","inputs":[{"name":"previousHexBase","type":"address","indexed":true,"internalType":"address"},{"name":"newHexBase","type":"address","indexed":true,"internalType":"address"}],"anonymous":false},{"type":"event","name":"OwnerUpdated","inputs":[{"name":"previousOwner","type":"address","indexed":true,"internalType":"address"},{"name":"newOwner","type":"address","indexed":true,"internalType":"address"}],"anonymous":false},{"type":"event","name":"OzoneSent","inputs":[{"name":"user","type":"address","indexed":true,"internalType":"address"},{"name":"amount","type":"uint256","indexed":false,"internalType":"uint256"},{"name":"backend","type":"address","indexed":true,"internalType":"address"},{"name":"timestamp","type":"uint256","indexed":false,"internalType":"uint256"}],"anonymous":false},{"type":"error","name":"TargetCallFailed","inputs":[{"name":"selector","type":"bytes4","internalType":"bytes4"}]}],"bytecode":{"object":"0x608034610151576112e290601f38839003908101601f19168201906001600160401b038211838310176101565780839160409586948552833981010312610151578061004c60209261016c565b6001600160a01b039290918391610063910161016c565b1690811561010d57829060018060a01b03199233846001541617600155836000541617600055169182156100d7577f37f6c561371bb449a598aaf7e5528fc87ad233e82669756cd67fec9c5f665a7b846003549281519084168152856020820152a116176003555161116190816101818239f35b835162461bcd60e51b815260206004820152600f60248201526e1253959053125117d09050d2d15391608a1b6044820152606490fd5b835162461bcd60e51b815260206004820152601360248201527f6f776e2e696e76616c69642e68657862617365000000000000000000000000006044820152606490fd5b600080fd5b634e487b7160e01b600052604160045260246000fd5b51906001600160a01b03821682036101515756fe60806040526004361015610018575b361561001657005b005b60003560e01c806312065fe0146100f85780631f185d16146100f35780633b9b7955146100ee57806365d65e86146100e95780638da5cb5b146100e4578063a1f7f539146100df578063a455f523146100da578063af484526146100d5578063b90306ad146100d0578063c54e44b0146100cb578063da7fc24f146100c6578063e01ad5fd146100c1578063e0a9bc2b146100bc5763fdc10bc90361000e576108e1565b6108bc565b610822565b610755565b6106b3565b6105de565b61050d565b610386565b6102c8565b6102a1565b61027a565b610253565b61012a565b3461011457600036600319011261011457602047604051908152f35b600080fd5b6001600160a01b0381160361011457565b34610114576020806003193601126101145760049081359061014b82610119565b8061016d6101616000546001600160a01b031690565b6001600160a01b031690565b60405194858092634bf9c0ad60e11b82525afa91821561024e576101c16101fb936101dd9261020d9660009261021b575b506101cf906040519384918783019190916001600160a01b036020820193169052565b03601f198101845283610a0e565b6101d7610c2a565b90610e0b565b919080610211575b6101ee90610c63565b8082518301019101610ace565b60405190151581529081906020820190565b0390f35b50815181146101e5565b6101cf91925061024090863d8811610247575b6102388183610a0e565b810190610a30565b919061019e565b503d61022e565b610a48565b346101145760003660031901126101145760206001600160a01b0360005416604051908152f35b346101145760003660031901126101145760206001600160a01b0360035416604051908152f35b346101145760003660031901126101145760206001600160a01b0360015416604051908152f35b3461011457600036600319011261011457600460206001600160a01b03600054166040519283809263d1f956b160e01b82525afa90811561024e5761020d9161035891600091610368575b50604051610320816109d1565b601381527f67657464656c656761746f72436f756e742829000000000000000000000000006020820152610352610a70565b91610ef8565b6040519081529081906020820190565b610380915060203d8111610247576102388183610a0e565b38610313565b34610114576040366003190112610114576004356103a381610119565b6024356001600160a01b03806003541633036104c95760049060206103d36101616000546001600160a01b031690565b604051938480927f5e09dbe70000000000000000000000000000000000000000000000000000000082525afa90811561024e5761048a6104a6927f5c7efd9fe7386a807127cbd8ca38d5a25c41c1399367144da5d403dbe5cd4f72946000916104ab575b506040517fa9059cbb0000000000000000000000000000000000000000000000000000000060208201526001600160a01b0388166024820152604481018790529061048582606481016101c1565b611034565b5060408051948552426020860152339590911693918291820190565b0390a3005b6104c3915060203d8111610247576102388183610a0e565b38610437565b606460405162461bcd60e51b815260206004820152600b60248201527f4e4f545f4241434b454e440000000000000000000000000000000000000000006044820152fd5b34610114576020806003193601126101145760049081359061052e82610119565b806105446101616000546001600160a01b031690565b60405194858092634bf9c0ad60e11b82525afa91821561024e576101c16101fb936105a09261020d966000926105bb575b50610598906040519384918783019190916001600160a01b036020820193169052565b6101d7610ba6565b9190806105b1575b6101ee90610bdf565b50815181146105a8565b6105989192506105d790863d8811610247576102388183610a0e565b9190610575565b346101145760203660031901126101145760046001600160a01b0360208160005416604051938480927f14d8d0240000000000000000000000000000000000000000000000000000000082525afa91821561024e57600092610693575b503391160361064f57610016600435610d17565b606460405162461bcd60e51b815260206004820152600f60248201527f6f776e2e6e6f6e617574682e44414f00000000000000000000000000000000006044820152fd5b6106ac91925060203d8111610247576102388183610a0e565b903861063b565b34610114576020366003190112610114576004356106d081610119565b803b60006106dd82610a54565b926106eb6040519485610a0e565b82845260208401903c602d81511061071157602a015160405160609190911c8152602090f35b606460405162461bcd60e51b815260206004820152601360248201527f4e6f742061206d696e696d616c2070726f7879000000000000000000000000006044820152fd5b346101145760203660031901126101145760043561077281610119565b61077a610ae6565b156107de576001600160a01b0360015416330361079a5761001690610f36565b606460405162461bcd60e51b815260206004820152601160248201527f6f776e2e696e76616c69642e6f776e65720000000000000000000000000000006044820152fd5b606460405162461bcd60e51b815260206004820152601260248201527f6f776e2e696e76616c69642e69735361666500000000000000000000000000006044820152fd5b3461011457602080600319360112610114576004803561084181610119565b6001600160a01b03928084600054166040519485809263d1f956b160e01b82525afa90811561024e5761020d946101fb9460009361089d575b50604051931681840152825261088f826109d1565b610897610cae565b90610ebc565b6108b5919350823d8411610247576102388183610a0e565b913861087a565b346101145760003660031901126101145760206108d7610ae6565b6040519015158152f35b3461011457600036600319011261011457600460206001600160a01b0360005416604051928380927f447aa3040000000000000000000000000000000000000000000000000000000082525afa90811561024e5761020d9161035891600091610984575b50604051610952816109d1565b600581527f61676528290000000000000000000000000000000000000000000000000000006020820152610352610a70565b61099c915060203d8111610247576102388183610a0e565b38610945565b7f4e487b7100000000000000000000000000000000000000000000000000000000600052604160045260246000fd5b6040810190811067ffffffffffffffff8211176109ed57604052565b6109a2565b6020810190811067ffffffffffffffff8211176109ed57604052565b90601f8019910116810190811067ffffffffffffffff8211176109ed57604052565b908160209103126101145751610a4581610119565b90565b6040513d6000823e3d90fd5b67ffffffffffffffff81116109ed57601f01601f191660200190565b60405190610a7d826109f2565b60008252565b15610a8a57565b606460405162461bcd60e51b815260206004820152601960248201527f6f776e2e7361666567756172642e63616c6c2e6661696c6564000000000000006044820152fd5b90816020910312610114575180151581036101145790565b6001600160a01b03600054166040518091634bf9c0ad60e11b825281600460209384935afa91821561024e57610a4592610b6e91600091610b89575b50604051610b2f816109d1565b600881527f69735361666528290000000000000000000000000000000000000000000000008482015260405191610b65836109f2565b60008352610e0b565b919080610b7f575b6101ee90610a83565b5081518114610b76565b610ba09150833d8511610247576102388183610a0e565b38610b22565b60405190610bb3826109d1565b601582527f69735365637572654261736528616464726573732900000000000000000000006020830152565b15610be657565b606460405162461bcd60e51b815260206004820152601a60248201527f6f776e2e736563757265626173652e63616c6c2e6661696c65640000000000006044820152fd5b60405190610c37826109d1565b601182527f69735369676e65722861646472657373290000000000000000000000000000006020830152565b15610c6a57565b606460405162461bcd60e51b815260206004820152601660248201527f6f776e2e7369676e65722e63616c6c2e6661696c6564000000000000000000006044820152fd5b60405190610cbb826109d1565b601882527f697364656c656761746f724e6f646528616464726573732900000000000000006020830152565b3d15610d12573d90610cf882610a54565b91610d066040519384610a0e565b82523d6000602084013e565b606090565b6000600460206001600160a01b03835416604051928380927f46f991ac0000000000000000000000000000000000000000000000000000000082525afa90811561024e578284819382938391610ded575b505af1610d73610ce7565b5015610da95760405190815233907fcdcc745fe377b103b45fa0cec23ae3ef93d6fc6a84a01f0d18c40b354dd1d5d890602090a2565b606460405162461bcd60e51b815260206004820152600f60248201527f6f776e2e6275726e2e6661696c656400000000000000000000000000000000006044820152fd5b610e05915060203d8111610247576102388183610a0e565b38610d68565b9190823b15610ea3577fffffffff00000000000000000000000000000000000000000000000000000000815160208093012016916040519180830193845281519160005b838110610e8f575050509181610e7c60248260009795968897018783820152036004810184520182610a0e565b5191620dbba0fa610e8b610ce7565b9091565b818101830151858201602401528201610e4f565b505050600090604051610eb5816109f2565b6000815290565b9291610eca91600094610e0b565b9080610eed575b610ed85750565b610a4591925060208082518301019101610ace565b506020815114610ed1565b9291610f0691600094610e0b565b9080610f2b575b610f145750565b909150602081805181010312610114576020015190565b506020815114610f0d565b6001600160a01b03809116908115610fa6577fffffffffffffffffffffffff0000000000000000000000000000000000000000907f37f6c561371bb449a598aaf7e5528fc87ad233e82669756cd67fec9c5f665a7b60406003549281519084168152856020820152a11617600355565b606460405162461bcd60e51b815260206004820152600f60248201527f494e56414c49445f4241434b454e4400000000000000000000000000000000006044820152fd5b90602082519201517fffffffff0000000000000000000000000000000000000000000000000000000090818116936004811061102557505050565b60040360031b82901b16169150565b6001600160a01b038116156110e757600080918351908260208601915af19061105b610ce7565b9115611065575090565b8051600091906004116110e15761107c9150610fea565b81511561108c5750805190602001fd5b6040517f21c09d340000000000000000000000000000000000000000000000000000000081527fffffffff00000000000000000000000000000000000000000000000000000000919091166004820152602490fd5b5061107c565b606460405162461bcd60e51b815260206004820152601260248201527f6f776e2e696e76616c69642e74617267657400000000000000000000000000006044820152fdfea26469706673582212209a4cae0b51f718a320bdc9e47ef99ffe453704c91c2a4eb940a1018ea873586364736f6c63430008140033","linkReferences":{}},"methodIdentifiers":{"Burn(uint256)":"b90306ad","_delegatorCount()":"a1f7f539","_getImplementation(address)":"c54e44b0","_isDelegatorNode(address)":"e01ad5fd","_isSafe()":"e0a9bc2b","_isSecureBase(address)":"af484526","_isSigner(address)":"1f185d16","backendSigner()":"65d65e86","getBalance()":"12065fe0","getHexbase()":"3b9b7955","owner()":"8da5cb5b","sendOzone(address,uint256)":"a455f523","setBackend(address)":"da7fc24f","systemAge()":"fdc10bc9"},"id":77}