{"abi":[{"type":"constructor","inputs":[{"name":"s1","type":"address","internalType":"address"},{"name":"s2","type":"address","internalType":"address"},{"name":"s3","type":"address","internalType":"address"},{"name":"_hex","type":"address","internalType":"address"},{"name":"_orc1155","type":"address","internalType":"address"},{"name":"_proxy","type":"address","internalType":"address"},{"name":"_utility","type":"address","internalType":"address"}],"stateMutability":"nonpayable"},{"type":"fallback","stateMutability":"payable"},{"type":"receive","stateMutability":"payable"},{"type":"function","name":"Burn","inputs":[{"name":"amount","type":"uint256","internalType":"uint256"}],"outputs":[],"stateMutability":"nonpayable"},{"type":"function","name":"_delegatorCount","inputs":[],"outputs":[{"name":"","type":"uint256","internalType":"uint256"}],"stateMutability":"view"},{"type":"function","name":"_getImplementation","inputs":[{"name":"clone","type":"address","internalType":"address"}],"outputs":[{"name":"impl","type":"address","internalType":"address"}],"stateMutability":"view"},{"type":"function","name":"_isDelegatorNode","inputs":[{"name":"sender","type":"address","internalType":"address"}],"outputs":[{"name":"","type":"bool","internalType":"bool"}],"stateMutability":"view"},{"type":"function","name":"_isSafe","inputs":[],"outputs":[{"name":"","type":"bool","internalType":"bool"}],"stateMutability":"view"},{"type":"function","name":"_isSecureBase","inputs":[{"name":"sender","type":"address","internalType":"address"}],"outputs":[{"name":"","type":"bool","internalType":"bool"}],"stateMutability":"view"},{"type":"function","name":"_isSigner","inputs":[{"name":"sender","type":"address","internalType":"address"}],"outputs":[{"name":"","type":"bool","internalType":"bool"}],"stateMutability":"view"},{"type":"function","name":"approveSafe","inputs":[{"name":"action","type":"bool","internalType":"bool"}],"outputs":[],"stateMutability":"nonpayable"},{"type":"function","name":"getBalance","inputs":[],"outputs":[{"name":"","type":"uint256","internalType":"uint256"}],"stateMutability":"view"},{"type":"function","name":"isNodeStopped","inputs":[{"name":"sender","type":"address","internalType":"address"}],"outputs":[{"name":"","type":"bool","internalType":"bool"}],"stateMutability":"view"},{"type":"function","name":"isSafe","inputs":[],"outputs":[{"name":"","type":"bool","internalType":"bool"}],"stateMutability":"view"},{"type":"function","name":"isSecureBase","inputs":[{"name":"s","type":"address","internalType":"address"}],"outputs":[{"name":"","type":"bool","internalType":"bool"}],"stateMutability":"view"},{"type":"function","name":"isSigner","inputs":[{"name":"s","type":"address","internalType":"address"}],"outputs":[{"name":"","type":"bool","internalType":"bool"}],"stateMutability":"view"},{"type":"function","name":"owner","inputs":[],"outputs":[{"name":"","type":"address","internalType":"address"}],"stateMutability":"view"},{"type":"function","name":"safeSecureBaseCallback","inputs":[{"name":"sender","type":"address","internalType":"address"},{"name":"action","type":"bool","internalType":"bool"}],"outputs":[],"stateMutability":"nonpayable"},{"type":"function","name":"signerCallback","inputs":[{"name":"_singer","type":"address","internalType":"address"},{"name":"action","type":"bool","internalType":"bool"}],"outputs":[],"stateMutability":"nonpayable"},{"type":"function","name":"systemAge","inputs":[],"outputs":[{"name":"","type":"uint256","internalType":"uint256"}],"stateMutability":"view"}],"bytecode":{"object":"0x60806040526001805460ff60a01b1916600160a01b1790553480156200002457600080fd5b506040516200153e3803806200153e833981016040819052620000479162000105565b600180546001600160a01b03199081168255600080549091166001600160a01b039687161781559785168852600360209081526040808a20805460ff1990811685179091559887168a52808a2080548a1684179055968616895286892080548916831790559385168852600290935284872080548716841790559083168652838620805486168317905590911684529220805490911690911790556200019a565b80516001600160a01b03811681146200010057600080fd5b919050565b600080600080600080600060e0888a0312156200012157600080fd5b6200012c88620000e8565b96506200013c60208901620000e8565b95506200014c60408901620000e8565b94506200015c60608901620000e8565b93506200016c60808901620000e8565b92506200017c60a08901620000e8565b91506200018c60c08901620000e8565b905092959891949750929550565b61139480620001aa6000396000f3fe6080604052600436106100f65760003560e01c8063a1f7f5391161008f578063dc3163e811610061578063dc3163e8146102b0578063e01ad5fd146102d0578063e0a9bc2b146102f0578063ef9eab9d14610305578063fdc10bc91461033e57005b8063a1f7f5391461023b578063af48452614610250578063b90306ad14610270578063c54e44b01461029057005b80636a276f9d116100c85780636a276f9d146101915780637df73e27146101b057806384a8d045146101e95780638da5cb5b1461020957005b806312065fe0146100ff5780631d0c00e4146101215780631f185d161461014157806351bfd3ae1461017157005b366100fd57005b005b34801561010b57600080fd5b50475b6040519081526020015b60405180910390f35b34801561012d57600080fd5b506100fd61013c3660046111bf565b610353565b34801561014d57600080fd5b5061016161015c3660046111f8565b61041a565b6040519015158152602001610118565b34801561017d57600080fd5b5061016161018c3660046111f8565b6104ee565b34801561019d57600080fd5b50600154600160a01b900460ff16610161565b3480156101bc57600080fd5b506101616101cb3660046111f8565b6001600160a01b031660009081526003602052604090205460ff1690565b3480156101f557600080fd5b506100fd61020436600461121c565b61068a565b34801561021557600080fd5b506001546001600160a01b03165b6040516001600160a01b039091168152602001610118565b34801561024757600080fd5b5061010e61073b565b34801561025c57600080fd5b5061016161026b3660046111f8565b6108e7565b34801561027c57600080fd5b506100fd61028b366004611239565b6109a5565b34801561029c57600080fd5b506102236102ab3660046111f8565b610a69565b3480156102bc57600080fd5b506100fd6102cb3660046111bf565b610ae9565b3480156102dc57600080fd5b506101616102eb3660046111f8565b610bb4565b3480156102fc57600080fd5b50610161610e94565b34801561031157600080fd5b506101616103203660046111f8565b6001600160a01b031660009081526002602052604090205460ff1690565b34801561034a57600080fd5b5061010e610f3f565b60005460408051634162169f60e01b8152905133926001600160a01b031691634162169f9160048083019260209291908290030181865afa15801561039c573d6000803e3d6000fd5b505050506040513d601f19601f820116820180604052508101906103c09190611252565b6001600160a01b0316146103ef5760405162461bcd60e51b81526004016103e69061126f565b60405180910390fd5b6001600160a01b03919091166000908152600260205260409020805460ff1916911515919091179055565b600080546040805163af0deb9560e01b815290516104e8926001600160a01b03169163af0deb959160048083019260209291908290030181865afa158015610466573d6000803e3d6000fd5b505050506040513d601f19601f8201168201806040525081019061048a9190611252565b6040518060400160405280601181526020017069735369676e657228616464726573732960781b815250846040516020016104d491906001600160a01b0391909116815260200190565b604051602081830303815290604052610fe2565b92915050565b6000806105c960008054906101000a90046001600160a01b03166001600160a01b031663a66bcbe26040518163ffffffff1660e01b8152600401602060405180830381865afa158015610545573d6000803e3d6000fd5b505050506040513d601f19601f820116820180604052508101906105699190611252565b6040518060400160405280601381526020017255736572546f496e737428616464726573732960681b815250856040516020016105b591906001600160a01b0391909116815260200190565b604051602081830303815290604052611029565b90506000806001600160a01b0316826001600160a01b0316141590506000610624836040518060400160405280600b81526020016a697353757370656e64282960a81b81525060405180602001604052806000815250610fe2565b90506000610662846040518060400160405280600881526020016769734c6f636b282960c01b81525060405180602001604052806000815250610fe2565b905082158061068057508180156106765750805b8015610680575082155b9695505050505050565b60005460408051634162169f60e01b8152905133926001600160a01b031691634162169f9160048083019260209291908290030181865afa1580156106d3573d6000803e3d6000fd5b505050506040513d601f19601f820116820180604052508101906106f79190611252565b6001600160a01b03161461071d5760405162461bcd60e51b81526004016103e69061126f565b60018054911515600160a01b0260ff60a01b19909216919091179055565b6000806107f060008054906101000a90046001600160a01b03166001600160a01b031663e1f4cd246040518163ffffffff1660e01b8152600401602060405180830381865afa158015610792573d6000803e3d6000fd5b505050506040513d601f19601f820116820180604052508101906107b69190611252565b6040518060400160405280600c81526020016b72616e6b666f7244414f282960a01b81525060405180602001604052806000815250611064565b905060006108d360008054906101000a90046001600160a01b03166001600160a01b031663ab6e844f6040518163ffffffff1660e01b8152600401602060405180830381865afa158015610848573d6000803e3d6000fd5b505050506040513d601f19601f8201168201806040525081019061086c9190611252565b6040518060400160405280601d81526020017f67657472616e6b636f756e742875696e743235362c75696e74323536290000008152506108aa610f3f565b60408051602081019290925281018690526060015b604051602081830303815290604052611064565b90506108e0816003611298565b9250505090565b600080546040805163af0deb9560e01b815290516104e8926001600160a01b03169163af0deb959160048083019260209291908290030181865afa158015610933573d6000803e3d6000fd5b505050506040513d601f19601f820116820180604052508101906109579190611252565b6040518060400160405280601581526020017469735365637572654261736528616464726573732960581b815250846040516020016104d491906001600160a01b0391909116815260200190565b60005460408051634162169f60e01b8152905133926001600160a01b031691634162169f9160048083019260209291908290030181865afa1580156109ee573d6000803e3d6000fd5b505050506040513d601f19601f82011682018060405250810190610a129190611252565b6001600160a01b031614610a385760405162461bcd60e51b81526004016103e69061126f565b60405160009082156108fc0290839083818181858288f19350505050158015610a65573d6000803e3d6000fd5b5050565b600080826001600160a01b0316803b806020016040519081016040528181526000908060200190933c9050602d81511015610adc5760405162461bcd60e51b81526020600482015260136024820152724e6f742061206d696e696d616c2070726f787960681b60448201526064016103e6565b602a015160601c92915050565b60005460408051634162169f60e01b8152905133926001600160a01b031691634162169f9160048083019260209291908290030181865afa158015610b32573d6000803e3d6000fd5b505050506040513d601f19601f82011682018060405250810190610b569190611252565b6001600160a01b031614610b7c5760405162461bcd60e51b81526004016103e69061126f565b6001600160a01b03919091166000908152600360205260409020805460ff19169115159190911790556001805460ff60a01b19169055565b600080610c0b60008054906101000a90046001600160a01b03166001600160a01b031663e1f4cd246040518163ffffffff1660e01b8152600401602060405180830381865afa158015610792573d6000803e3d6000fd5b90506000610cd360008054906101000a90046001600160a01b03166001600160a01b031663ab6e844f6040518163ffffffff1660e01b8152600401602060405180830381865afa158015610c63573d6000803e3d6000fd5b505050506040513d601f19601f82011682018060405250810190610c879190611252565b6040518060400160405280601381526020017255736572546f496e737428616464726573732960681b815250866040516020016105b591906001600160a01b0391909116815260200190565b90506000610da560008054906101000a90046001600160a01b03166001600160a01b031663ab6e844f6040518163ffffffff1660e01b8152600401602060405180830381865afa158015610d2b573d6000803e3d6000fd5b505050506040513d601f19601f82011682018060405250810190610d4f9190611252565b6040518060400160405280601981526020017f67657445666665637469766552616e6b28616464726573732900000000000000815250846040516020016108bf91906001600160a01b0391909116815260200190565b90506000610e6960008054906101000a90046001600160a01b03166001600160a01b031663ab6e844f6040518163ffffffff1660e01b8152600401602060405180830381865afa158015610dfd573d6000803e3d6000fd5b505050506040513d601f19601f82011682018060405250810190610e219190611252565b6040518060400160405280600f81526020016e697353746f7028616464726573732960881b815250856040516020016104d491906001600160a01b0391909116815260200190565b90506001600160a01b03831615801590610e835750838210155b801561068057501595945050505050565b600080546040805163af0deb9560e01b81529051610f3a926001600160a01b03169163af0deb959160048083019260209291908290030181865afa158015610ee0573d6000803e3d6000fd5b505050506040513d601f19601f82011682018060405250810190610f049190611252565b60405180604001604052806008815260200167697353616665282960c01b81525060405180602001604052806000815250610fe2565b905090565b600080546040805163223df87160e11b81529051610f3a926001600160a01b03169163447bf0e29160048083019260209291908290030181865afa158015610f8b573d6000803e3d6000fd5b505050506040513d601f19601f82011682018060405250810190610faf9190611252565b60405180604001604052806005815260200164616765282960d81b81525060405180602001604052806000815250611064565b6000806000610ff286868661109f565b91509150818015611004575080516020145b15611020578080602001905181019061101d91906112b9565b92505b50509392505050565b600080600061103986868661109f565b9150915081801561104b575080516020145b15611020578080602001905181019061101d9190611252565b600080600061107486868661109f565b91509150818015611086575080516020145b15611020578080602001905181019061101d91906112d6565b60006060846001600160a01b03163b6000036110cd5750506040805160208101909152600080825290611191565b604080516004815260248101918290526001600160a01b038716916110f3908790611313565b60405180910390206001600160e01b0319166020820180516001600160e01b0383818316178352505050508460405160200161113092919061132f565b60408051601f198184030181529082905261114a91611313565b600060405180830381855afa9150503d8060008114611185576040519150601f19603f3d011682016040523d82523d6000602084013e61118a565b606091505b5090925090505b935093915050565b6001600160a01b03811681146111ae57600080fd5b50565b80151581146111ae57600080fd5b600080604083850312156111d257600080fd5b82356111dd81611199565b915060208301356111ed816111b1565b809150509250929050565b60006020828403121561120a57600080fd5b813561121581611199565b9392505050565b60006020828403121561122e57600080fd5b8135611215816111b1565b60006020828403121561124b57600080fd5b5035919050565b60006020828403121561126457600080fd5b815161121581611199565b6020808252600f908201526e6f776e2e6e6f6e617574682e44414f60881b604082015260600190565b808201808211156104e857634e487b7160e01b600052601160045260246000fd5b6000602082840312156112cb57600080fd5b8151611215816111b1565b6000602082840312156112e857600080fd5b5051919050565b60005b8381101561130a5781810151838201526020016112f2565b50506000910152565b600082516113258184602087016112ef565b9190910192915050565b600083516113418184602088016112ef565b8351908301906113558183602088016112ef565b0194935050505056fea2646970667358221220868cadf3482646d5adbd7b2cd0aef7fe73ac000d372cc83dbce729d67dfbaf6064736f6c63430008140033","linkReferences":{}},"methodIdentifiers":{"Burn(uint256)":"b90306ad","_delegatorCount()":"a1f7f539","_getImplementation(address)":"c54e44b0","_isDelegatorNode(address)":"e01ad5fd","_isSafe()":"e0a9bc2b","_isSecureBase(address)":"af484526","_isSigner(address)":"1f185d16","approveSafe(bool)":"84a8d045","getBalance()":"12065fe0","isNodeStopped(address)":"51bfd3ae","isSafe()":"6a276f9d","isSecureBase(address)":"ef9eab9d","isSigner(address)":"7df73e27","owner()":"8da5cb5b","safeSecureBaseCallback(address,bool)":"1d0c00e4","signerCallback(address,bool)":"dc3163e8","systemAge()":"fdc10bc9"},"id":33}