{"abi":[{"type":"constructor","inputs":[{"name":"_hex","type":"address","internalType":"address"}],"stateMutability":"nonpayable"},{"type":"fallback","stateMutability":"payable"},{"type":"receive","stateMutability":"payable"},{"type":"function","name":"Burn","inputs":[{"name":"amount","type":"uint256","internalType":"uint256"}],"outputs":[],"stateMutability":"nonpayable"},{"type":"function","name":"BurnCoin","inputs":[],"outputs":[],"stateMutability":"payable"},{"type":"function","name":"LSB","inputs":[{"name":"","type":"uint256","internalType":"uint256"}],"outputs":[{"name":"","type":"int256","internalType":"int256"}],"stateMutability":"view"},{"type":"function","name":"_delegatorCount","inputs":[],"outputs":[{"name":"","type":"uint256","internalType":"uint256"}],"stateMutability":"view"},{"type":"function","name":"_getImplementation","inputs":[{"name":"clone","type":"address","internalType":"address"}],"outputs":[{"name":"impl","type":"address","internalType":"address"}],"stateMutability":"view"},{"type":"function","name":"_importOld","inputs":[{"name":"limit","type":"uint256","internalType":"uint256"}],"outputs":[{"name":"","type":"uint256","internalType":"uint256"}],"stateMutability":"payable"},{"type":"function","name":"_isDelegatorNode","inputs":[{"name":"sender","type":"address","internalType":"address"}],"outputs":[{"name":"","type":"bool","internalType":"bool"}],"stateMutability":"view"},{"type":"function","name":"_isSafe","inputs":[],"outputs":[{"name":"","type":"bool","internalType":"bool"}],"stateMutability":"view"},{"type":"function","name":"_isSecureBase","inputs":[{"name":"sender","type":"address","internalType":"address"}],"outputs":[{"name":"","type":"bool","internalType":"bool"}],"stateMutability":"view"},{"type":"function","name":"_isSigner","inputs":[{"name":"sender","type":"address","internalType":"address"}],"outputs":[{"name":"","type":"bool","internalType":"bool"}],"stateMutability":"view"},{"type":"function","name":"_txnType7","inputs":[{"name":"_maxint","type":"uint256","internalType":"uint256"},{"name":"_ag","type":"uint256","internalType":"uint256"}],"outputs":[{"name":"CALC_RWRD","type":"uint256","internalType":"uint256"},{"name":"CALC_ROYAL","type":"uint256","internalType":"uint256"},{"name":"CALC_SELF","type":"uint256","internalType":"uint256"},{"name":"CALC_YEILD","type":"uint256","internalType":"uint256"},{"name":"CALC_TOUR1","type":"uint256","internalType":"uint256"},{"name":"CALC_TOUR2","type":"uint256","internalType":"uint256"},{"name":"CALC_VAL","type":"uint256","internalType":"uint256"},{"name":"CALC_SELF_PROPOSED","type":"uint256","internalType":"uint256"}],"stateMutability":"payable"},{"type":"function","name":"_txnType_1_0","inputs":[{"name":"paramAdd","type":"address","internalType":"address"},{"name":"_id_maxint","type":"uint256","internalType":"uint256"},{"name":"_qty","type":"uint256","internalType":"uint256"},{"name":"_msgValue","type":"uint256","internalType":"uint256"},{"name":"_type","type":"uint256","internalType":"uint256"}],"outputs":[{"name":"_tvl","type":"uint256","internalType":"uint256"},{"name":"_amt","type":"uint256","internalType":"uint256"}],"stateMutability":"payable"},{"type":"function","name":"addLevelnGetRank","inputs":[{"name":"_amount","type":"uint256","internalType":"uint256"},{"name":"_qty","type":"uint256","internalType":"uint256"},{"name":"_yeildlevel","type":"uint256","internalType":"uint256"},{"name":"_level","type":"uint256","internalType":"uint256"},{"name":"_epochAge","type":"uint256","internalType":"uint256"},{"name":"_free","type":"uint256","internalType":"uint256"},{"name":"_irank","type":"uint256","internalType":"uint256"}],"outputs":[{"name":"lastrnk","type":"uint256","internalType":"uint256"},{"name":"currentrnk","type":"uint256","internalType":"uint256"}],"stateMutability":"nonpayable"},{"type":"function","name":"burned","inputs":[],"outputs":[{"name":"_burned","type":"uint256","internalType":"uint256"}],"stateMutability":"view"},{"type":"function","name":"cage","inputs":[],"outputs":[{"name":"","type":"uint256","internalType":"uint256"}],"stateMutability":"view"},{"type":"function","name":"compute","inputs":[{"name":"maxinterwal","type":"uint256","internalType":"uint256"}],"outputs":[{"name":"p1","type":"uint256","internalType":"uint256"},{"name":"p2","type":"uint256","internalType":"uint256"},{"name":"p3","type":"uint256","internalType":"uint256"},{"name":"p4","type":"uint256","internalType":"uint256"},{"name":"p5","type":"uint256","internalType":"uint256"},{"name":"p6","type":"uint256","internalType":"uint256"},{"name":"p7","type":"uint256","internalType":"uint256"}],"stateMutability":"view"},{"type":"function","name":"dage","inputs":[],"outputs":[{"name":"","type":"uint256","internalType":"uint256"}],"stateMutability":"view"},{"type":"function","name":"direct","inputs":[],"outputs":[{"name":"","type":"uint256","internalType":"uint256"}],"stateMutability":"view"},{"type":"function","name":"drawn","inputs":[],"outputs":[{"name":"p1","type":"uint256","internalType":"uint256"},{"name":"p2","type":"uint256","internalType":"uint256"},{"name":"p3","type":"uint256","internalType":"uint256"},{"name":"p4","type":"uint256","internalType":"uint256"},{"name":"p5","type":"uint256","internalType":"uint256"},{"name":"p6","type":"uint256","internalType":"uint256"},{"name":"p7","type":"uint256","internalType":"uint256"}],"stateMutability":"view"},{"type":"function","name":"flushed","inputs":[],"outputs":[{"name":"p1","type":"uint256","internalType":"uint256"},{"name":"p2","type":"uint256","internalType":"uint256"},{"name":"p3","type":"uint256","internalType":"uint256"},{"name":"p4","type":"uint256","internalType":"uint256"},{"name":"p5","type":"uint256","internalType":"uint256"},{"name":"p6","type":"uint256","internalType":"uint256"},{"name":"p7","type":"uint256","internalType":"uint256"}],"stateMutability":"view"},{"type":"function","name":"getBalance","inputs":[],"outputs":[{"name":"","type":"uint256","internalType":"uint256"}],"stateMutability":"view"},{"type":"function","name":"getHexbase","inputs":[],"outputs":[{"name":"","type":"address","internalType":"address"}],"stateMutability":"view"},{"type":"function","name":"id","inputs":[],"outputs":[{"name":"","type":"uint256","internalType":"uint256"}],"stateMutability":"view"},{"type":"function","name":"inc","inputs":[{"name":"","type":"uint256","internalType":"uint256"}],"outputs":[{"name":"","type":"uint256","internalType":"uint256"}],"stateMutability":"view"},{"type":"function","name":"isCap","inputs":[],"outputs":[{"name":"","type":"bool","internalType":"bool"}],"stateMutability":"view"},{"type":"function","name":"isLock","inputs":[],"outputs":[{"name":"","type":"bool","internalType":"bool"}],"stateMutability":"view"},{"type":"function","name":"levelRestrictionAge","inputs":[],"outputs":[{"name":"","type":"uint256","internalType":"uint256"}],"stateMutability":"view"},{"type":"function","name":"lvlbs","inputs":[{"name":"","type":"uint256","internalType":"uint256"}],"outputs":[{"name":"","type":"uint256","internalType":"uint256"}],"stateMutability":"view"},{"type":"function","name":"lvlqty","inputs":[{"name":"","type":"uint256","internalType":"uint256"}],"outputs":[{"name":"","type":"uint256","internalType":"uint256"}],"stateMutability":"view"},{"type":"function","name":"lvlrwrd","inputs":[{"name":"","type":"uint256","internalType":"uint256"}],"outputs":[{"name":"","type":"uint256","internalType":"uint256"}],"stateMutability":"view"},{"type":"function","name":"lvlyei","inputs":[{"name":"","type":"uint256","internalType":"uint256"}],"outputs":[{"name":"","type":"uint256","internalType":"uint256"}],"stateMutability":"view"},{"type":"function","name":"mintCount","inputs":[],"outputs":[{"name":"","type":"uint256","internalType":"uint256"}],"stateMutability":"view"},{"type":"function","name":"mintLimitwhenCap","inputs":[],"outputs":[{"name":"","type":"uint256","internalType":"uint256"}],"stateMutability":"view"},{"type":"function","name":"mintToValidator","inputs":[{"name":"","type":"uint256","internalType":"uint256"}],"outputs":[{"name":"","type":"address","internalType":"address"}],"stateMutability":"view"},{"type":"function","name":"mints","inputs":[{"name":"","type":"uint256","internalType":"uint256"}],"outputs":[{"name":"amt","type":"uint256","internalType":"uint256"},{"name":"qty","type":"uint256","internalType":"uint256"},{"name":"nft","type":"address","internalType":"address"},{"name":"mage","type":"uint256","internalType":"uint256"}],"stateMutability":"view"},{"type":"function","name":"moveLvlIncome","inputs":[{"name":"_amount","type":"uint256","internalType":"uint256"},{"name":"_qty","type":"uint256","internalType":"uint256"},{"name":"_level","type":"uint256","internalType":"uint256"},{"name":"_epochAge","type":"uint256","internalType":"uint256"},{"name":"_op","type":"bool","internalType":"bool"}],"outputs":[{"name":"lastrnk","type":"uint256","internalType":"uint256"},{"name":"currentrnk","type":"uint256","internalType":"uint256"}],"stateMutability":"nonpayable"},{"type":"function","name":"owner","inputs":[],"outputs":[{"name":"","type":"address","internalType":"address"}],"stateMutability":"view"},{"type":"function","name":"postInit","inputs":[],"outputs":[{"name":"","type":"bool","internalType":"bool"}],"stateMutability":"view"},{"type":"function","name":"preinit","inputs":[{"name":"_hex","type":"address","internalType":"address"},{"name":"_own","type":"address","internalType":"address"},{"name":"_id","type":"uint256","internalType":"uint256"}],"outputs":[],"stateMutability":"nonpayable"},{"type":"function","name":"rank","inputs":[],"outputs":[{"name":"","type":"uint256","internalType":"uint256"}],"stateMutability":"view"},{"type":"function","name":"rankage","inputs":[{"name":"","type":"uint256","internalType":"uint256"}],"outputs":[{"name":"","type":"uint256","internalType":"uint256"}],"stateMutability":"view"},{"type":"function","name":"selfProposed","inputs":[],"outputs":[{"name":"_selfProposed","type":"uint256","internalType":"uint256"}],"stateMutability":"view"},{"type":"function","name":"setBonus","inputs":[{"name":"b","type":"uint256","internalType":"uint256"}],"outputs":[],"stateMutability":"nonpayable"},{"type":"function","name":"setLock","inputs":[{"name":"flag","type":"bool","internalType":"bool"}],"outputs":[],"stateMutability":"nonpayable"},{"type":"function","name":"setSuspend","inputs":[{"name":"s1","type":"bool","internalType":"bool"},{"name":"s2","type":"bool","internalType":"bool"},{"name":"s3","type":"bool","internalType":"bool"},{"name":"s4","type":"bool","internalType":"bool"},{"name":"s56","type":"bool","internalType":"bool"},{"name":"s7","type":"bool","internalType":"bool"},{"name":"lck","type":"bool","internalType":"bool"}],"outputs":[],"stateMutability":"nonpayable"},{"type":"function","name":"setTourAndGift","inputs":[{"name":"t1","type":"uint256","internalType":"uint256"},{"name":"t2","type":"uint256","internalType":"uint256"}],"outputs":[],"stateMutability":"nonpayable"},{"type":"function","name":"suspendinc","inputs":[{"name":"","type":"uint256","internalType":"uint256"}],"outputs":[{"name":"","type":"bool","internalType":"bool"}],"stateMutability":"view"},{"type":"function","name":"systemAge","inputs":[],"outputs":[{"name":"","type":"uint256","internalType":"uint256"}],"stateMutability":"view"},{"type":"function","name":"unpaid","inputs":[],"outputs":[{"name":"p1","type":"uint256","internalType":"uint256"},{"name":"p2","type":"uint256","internalType":"uint256"},{"name":"p3","type":"uint256","internalType":"uint256"},{"name":"p4","type":"uint256","internalType":"uint256"},{"name":"p5","type":"uint256","internalType":"uint256"},{"name":"p6","type":"uint256","internalType":"uint256"},{"name":"p7","type":"uint256","internalType":"uint256"}],"stateMutability":"view"},{"type":"function","name":"updateOwner","inputs":[{"name":"_newowner","type":"address","internalType":"address"}],"outputs":[],"stateMutability":"nonpayable"},{"type":"function","name":"valIncome","inputs":[{"name":"","type":"uint256","internalType":"uint256"}],"outputs":[{"name":"","type":"uint256","internalType":"uint256"}],"stateMutability":"view"},{"type":"function","name":"valmapAge","inputs":[{"name":"","type":"uint256","internalType":"uint256"}],"outputs":[{"name":"","type":"uint256","internalType":"uint256"}],"stateMutability":"view"},{"type":"function","name":"valsmintsid","inputs":[{"name":"","type":"uint256","internalType":"uint256"}],"outputs":[{"name":"","type":"uint256","internalType":"uint256"}],"stateMutability":"view"},{"type":"function","name":"withdrawlDage","inputs":[],"outputs":[{"name":"","type":"uint256","internalType":"uint256"}],"stateMutability":"view"},{"type":"event","name":"EthBurned","inputs":[{"name":"sender","type":"address","indexed":true,"internalType":"address"},{"name":"amount","type":"uint256","indexed":false,"internalType":"uint256"}],"anonymous":false},{"type":"event","name":"EthTransferred","inputs":[{"name":"to","type":"address","indexed":true,"internalType":"address"},{"name":"amount","type":"uint256","indexed":false,"internalType":"uint256"}],"anonymous":false},{"type":"event","name":"HexBaseUpdated","inputs":[{"name":"previousHexBase","type":"address","indexed":true,"internalType":"address"},{"name":"newHexBase","type":"address","indexed":true,"internalType":"address"}],"anonymous":false},{"type":"event","name":"LogTxns","inputs":[{"name":"from","type":"address","indexed":false,"internalType":"address"},{"name":"orc1155","type":"address","indexed":false,"internalType":"address"},{"name":"_amt","type":"uint256","indexed":false,"internalType":"uint256"},{"name":"_value","type":"uint256","indexed":false,"internalType":"uint256"},{"name":"_time","type":"uint256","indexed":false,"internalType":"uint256"},{"name":"_type","type":"uint256","indexed":false,"internalType":"uint256"}],"anonymous":false},{"type":"event","name":"OwnerUpdated","inputs":[{"name":"previousOwner","type":"address","indexed":true,"internalType":"address"},{"name":"newOwner","type":"address","indexed":true,"internalType":"address"}],"anonymous":false},{"type":"error","name":"ReentrancyGuardReentrantCall","inputs":[]},{"type":"error","name":"TargetCallFailed","inputs":[{"name":"selector","type":"bytes4","internalType":"bytes4"}]}],"bytecode":{"object":"0x608034620000d657601f6200639138819003918201601f19168301916001600160401b03831184841017620000db57808492602094604052833981010312620000d657516001600160a01b03811690819003620000d6578015620000915760018060a01b03193381600154161760015560005416176000556001600355600060185560405161629f9081620000f28239f35b60405162461bcd60e51b815260206004820152601360248201527f6f776e2e696e76616c69642e68657862617365000000000000000000000000006044820152606490fd5b600080fd5b634e487b7160e01b600052604160045260246000fdfe60806040526004361015610018575b361561001657005b005b60003560e01c806302a085f21461037857806309d8da2e146103735780630b98f9751461036e57806312065fe01461036957806313ab4dc514610364578063141ca6601461035f57806318a541981461035a5780631f185d16146103555780631fc9788a14610350578063222b14071461034b5780632bb96697146103465780633b9b79551461034157806340124ece1461033c5780634702c08f1461033757806349f601df146103325780634a65786c1461032d57806352902c59146103285780635ed86d5c146103235780636195685b1461031e578063619d5194146103195780636350b2c214610314578063678a76341461030f578063692450091461030a578063723f0d8514610305578063725b6fff1461030057806373f42561146102fb5780637b058ac1146102f65780637bfbfecb146102f1578063812600df146102ec578063880cdc31146102e75780638da5cb5b146102e2578063901bcdd4146102dd57806391b0d21c146102d8578063932ca2d6146102d3578063934209ce146102ce5780639659867e146102c9578063a1f7f539146102c4578063a45c004a146102bf578063a98bf4f9146102ba578063a9bf285b146102b5578063af484526146102b0578063af640d0f146102ab578063b90306ad146102a6578063bd6bf403146102a1578063c32487aa1461029c578063c4cb291e14610297578063c54e44b014610292578063c6a9c45e1461028d578063d3a1a49914610288578063dcdd04a614610283578063e01ad5fd1461027e578063e0a9bc2b14610279578063fd915ef2146102745763fdc10bc90361000e5761189d565b611820565b611805565b611766565b611664565b611638565b6115e4565b6115ab565b61152e565b61146e565b611450565b61139d565b61137f565b61134e565b611330565b611304565b6112d0565b611229565b61120b565b6111ed565b61111c565b6110f0565b6110bf565b611096565b610fdf565b610fb3565b610e4f565b610d8c565b610d61565b610d43565b610c99565b610c7b565b610c2a565b610bd4565b610b1d565b610acc565b610a65565b610973565b610950565b610924565b6108fe565b6108d2565b6108a9565b61088b565b61086d565b6107a2565b610692565b610655565b6105a0565b610575565b610559565b6104b2565b61048f565b604036600319011261048a5761039360ff6004541615611df2565b6103a361039e6159b2565b611902565b6103ac33615add565b801561040e575b6103bc906119f8565b61040a6103cd602435600435612474565b604080519889526020890197909752958701949094526060860192909252608085015260a084015260c083015260e0820152908190610100820190565b0390f35b50600054604051630536340960e21b8152906001600160a01b03906020908390600490829085165afa908115610485576103bc92600092610455575b5016331490506103b3565b61047791925060203d811161047e575b61046f81836119b2565b8101906119d4565b903861044a565b503d610465565b6119ec565b600080fd5b3461048a57600036600319011261048a57602060ff600454166040519015158152f35b3461048a57602036600319011261048a576104ce61039e6159b2565b6104d733615add565b80156104f2575b6104e7906119f8565b610016600435601755565b50600054604051630536340960e21b8152906001600160a01b03906020908390600490829085165afa908115610485576104e792600092610539575b5016331490506104de565b61055291925060203d811161047e5761046f81836119b2565b903861052e565b3461048a57600036600319011261048a57602047604051908152f35b3461048a57602036600319011261048a57600435600052602080526020604060002054604051908152f35b602036600319011261048a576105b761039e6159b2565b6105c033615add565b80156105ee575b6105d0906119f8565b61040a6105de60043561338f565b6040519081529081906020820190565b50600054604051630536340960e21b8152906001600160a01b03906020908390600490829085165afa908115610485576105d092600092610635575b5016331490506105c7565b61064e91925060203d811161047e5761046f81836119b2565b903861062a565b3461048a57602036600319011261048a5760043560005260226020526020604060002054604051908152f35b6001600160a01b0381160361048a57565b3461048a5760208060031936011261048a576004908135906106b382610681565b60005481906106d2906001600160a01b03165b6001600160a01b031690565b604051634bf9c0ad60e11b815294859182905afa91821561048557610729610763936107459261040a9660009261077f575b506040516001600160a01b039091168582019081529092610737918491602090910190565b03601f1981018452836119b2565b61073f615b89565b90615e6c565b919080610775575b61075690615bb6565b808251830101910161599d565b60405190151581529081906020820190565b508151811461074d565b61073791925061079b90863d881161047e5761046f81836119b2565b9190610704565b3461048a5760e036600319011261048a576107be61039e6159b2565b6107c733615add565b8015610806575b6107d7906119f8565b6107f460c43560a435608435606435604435602435600435614531565b60408051928352602083019190915290f35b50600054604051630536340960e21b8152906001600160a01b03906020908390600490829085165afa908115610485576107d79260009261084d575b5016331490506107ce565b61086691925060203d811161047e5761046f81836119b2565b9038610842565b3461048a57600036600319011261048a576020600c54604051908152f35b3461048a57600036600319011261048a576020602354604051908152f35b3461048a57600036600319011261048a576000546040516001600160a01b039091168152602090f35b3461048a57602036600319011261048a5760043560005260216020526020604060002054604051908152f35b3461048a57600036600319011261048a57602060ff60155460081c166040519015158152f35b3461048a57602036600319011261048a57600435600052601d6020526020604060002054604051908152f35b3461048a57600036600319011261048a57602060ff601554166040519015158152f35b3461048a57606036600319011261048a5760043561099081610681565b60243561099c81610681565b6000546001600160a01b039081169281906109b785156118c0565b16906109d28215916109c983156118c0565b841615156118c0565b610a2a57600080546001600160a01b0319166001600160a01b038316179055610a1f927fe939feee179e631422bcc8f6e6d7d908cb3f8af38f5372f17c77e15aea5c80ee600080a3615cb3565b610016604435600755565b60405162461bcd60e51b81526020600482015260136024820152726f776e2e696e76616c69642e6865786261736560681b6044820152606490fd5b3461048a57602036600319011261048a5761040a610a94610a8f600435610a8a615bfb565b614e8f565b6151fb565b50604080519788526020880196909652948601939093526060850191909152608084015260a083015260c082015290819060e0820190565b3461048a57600036600319011261048a57601f600052600560209081527ff0566fba57f394cfd00b7b328d5cff9d096b0b4609f559321788bcbb79ff612c54604051908152f35b8015150361048a57565b3461048a57602036600319011261048a57600435610b3a81610b13565b610b4561039e6159b2565b610b4e33615add565b8015610b67575b90610b62610016926119f8565b611d09565b50600054604051630536340960e21b81526001600160a01b0392916020908290600490829087165afa80156104855761001693610b6292600092610bb4575b503391161491925050610b55565b610bcd91925060203d811161047e5761046f81836119b2565b9038610ba6565b3461048a57602036600319011261048a57600435600052601960205260806040600020805490600181015490600360018060a01b0360028301541691015491604051938452602084015260408301526060820152f35b3461048a57602036600319011261048a57600435601a5481101561048a57602090601a6000527f057c384a7d1c54f3a1b2e5e67b2617b8224fdfd1ea7234eea573a6ff665ff63e0154604051908152f35b3461048a57600036600319011261048a576020600a54604051908152f35b3461048a57604036600319011261048a57610cb561039e6159b2565b610cbe33615add565b8015610cdc575b610cce906119f8565b610016602435600435611bf9565b50600054604051630536340960e21b8152906001600160a01b03906020908390600490829085165afa90811561048557610cce92600092610d23575b501633149050610cc5565b610d3c91925060203d811161047e5761046f81836119b2565b9038610d18565b3461048a57600036600319011261048a576020600854604051908152f35b3461048a57600080600319360112610d89576040818060209352600583522054604051908152f35b80fd5b3461048a5760a036600319011261048a57608435610da981610b13565b610db461039e6159b2565b610dbd33615add565b8015610de2575b90610dd16107f4926119f8565b6064356044356024356004356143ff565b50600054604051630536340960e21b81526001600160a01b0392916020908290600490829087165afa8015610485576107f493610dd192600092610e2f575b503391161491925050610dc4565b610e4891925060203d811161047e5761046f81836119b2565b9038610e21565b600080600319360112610d8957610e6b60ff6004541615611df2565b610e73612451565b610e83610e7e615bfb565b600255565b8054600490602090610e9d906001600160a01b03166106c6565b6040516311be646b60e21b815292839182905afa908115610485578280809381938291610f95575b50813415610f8c575b34916001600160a01b031690f115610485576000805260056020527f05b8ccbb9d4d8fb16ea74ce3c29a41f1b461fbdaff4714a0d9a8eb05499746bc610f1534825461235f565b9055610f3b610f22614aba565b61ff0060155491151560081b169061ff00191617601555565b600254604080513381526000602082018190529181019190915234606082015260808101919091526103e860a082015260008051602061612a8339815191529060c090a1610f896001600355565b80f35b506108fc610ece565b610fad915060203d811161047e5761046f81836119b2565b38610ec5565b3461048a57602036600319011261048a5760043560005260056020526020604060002054604051908152f35b3461048a57602036600319011261048a57600435610ffc81610681565b61100761039e6159b2565b61101033615add565b8015611029575b90611024610016926119f8565b611d84565b50600054604051630536340960e21b81526001600160a01b0392916020908290600490829087165afa8015610485576100169361102492600092611076575b503391161491925050611017565b61108f91925060203d811161047e5761046f81836119b2565b9038611068565b3461048a57600036600319011261048a576001546040516001600160a01b039091168152602090f35b3461048a57602036600319011261048a576004356000526006602052602060ff604060002054166040519015158152f35b3461048a57602036600319011261048a57600435600052601f6020526020604060002054604051908152f35b60a036600319011261048a5760043561113481610681565b61114360ff6004541615611df2565b61114e61039e6159b2565b61115733615add565b8015611180575b9061116b6107f4926119f8565b60843590606435906044359060243590611e2c565b50600054604051630536340960e21b81526001600160a01b0392916020908290600490829087165afa8015610485576107f49361116b926000926111cd575b50339116149192505061115e565b6111e691925060203d811161047e5761046f81836119b2565b90386111bf565b3461048a57600036600319011261048a576020600b54604051908152f35b3461048a57600036600319011261048a576020601854604051908152f35b3461048a57600036600319011261048a5760005460405163d1f956b160e01b815290602090829060049082906001600160a01b03165afa9081156104855761040a916105de916000916112b2575b5060405161128481611959565b601381527267657464656c656761746f72436f756e74282960681b60208201526112ac612173565b91615f8d565b6112ca915060203d811161047e5761046f81836119b2565b38611277565b3461048a57602036600319011261048a57600435600052601b602052602060018060a01b0360406000205416604051908152f35b3461048a57602036600319011261048a57600435600052601e6020526020604060002054604051908152f35b3461048a57600036600319011261048a576020600954604051908152f35b3461048a57602036600319011261048a57602061137560043561137081610681565b615add565b6040519015158152f35b3461048a57600036600319011261048a576020600754604051908152f35b3461048a57602036600319011261048a57600054604051630536340960e21b8152906001600160a01b03906020908390600490829085165afa91821561048557600092611430575b50339116036113f957610016600435615d70565b60405162461bcd60e51b815260206004820152600f60248201526e6f776e2e6e6f6e617574682e44414f60881b6044820152606490fd5b61144991925060203d811161047e5761046f81836119b2565b90386113e5565b3461048a57600036600319011261048a576020601654604051908152f35b3461048a57600080600319360112610d8957600881526005602052604061040a8183205491600984528084205493600a81528181205490600b8152828082205491600c81522054906114cb600d6000526005602052604060002090565b54600e6000526005602052927f783638979e3582b3ffd6d53fc06c949ac31d1ac75a5e2c3531fbe1f91045eb535b5494519788978893909796959260c0959260e08601998652602086015260408501526060840152608083015260a08201520152565b3461048a57600080600319360112610d8957600f81526005602052604061040a8183205491601084528084205493601181528181205490601281528280822054916013815220549061158b60146000526005602052604060002090565b54601560005260056020529260008051602061614a8339815191526114f9565b3461048a57602036600319011261048a5760206115d26004356115cd81610681565b6160b7565b6040516001600160a01b039091168152f35b3461048a57602036600319011261048a57600435600052601c6020526020604060002054604051908152f35b600881101561162257600d0190600090565b634e487b7160e01b600052603260045260246000fd5b3461048a57602036600319011261048a57600435600881101561048a57602090600d0154604051908152f35b3461048a5760e036600319011261048a5760043561168181610b13565b60243561168d81610b13565b60443561169981610b13565b6064356116a581610b13565b608435906116b282610b13565b60a435926116bf84610b13565b60c435946116cc86610b13565b6116d761039e6159b2565b6116e033615add565b80156116f9575b966116f4610016986119f8565b611a44565b50600054604051630536340960e21b81526001600160a01b039891602090829060049082908d165afa801561048557610016996116f492600092611746575b5033911614919850506116e7565b61175f91925060203d811161047e5761046f81836119b2565b9038611738565b3461048a5760208060031936011261048a576004803561178581610681565b60005460405163d1f956b160e01b81526001600160a01b03949093909182918591829088165afa9081156104855761040a94610763946000936117e6575b5060405193168184015282526117d882611959565b6117e0615c86565b90615f51565b6117fe919350823d841161047e5761046f81836119b2565b91386117c3565b3461048a57600036600319011261048a5760206113756159b2565b3461048a57600080600319360112610d8957600181526005602052604061040a8183205491600284528084205493600381528181205490600481528280822054916005815220549061187d60066000526005602052604060002090565b54600760005260056020529260008051602061618a8339815191526114f9565b3461048a57600036600319011261048a5760206118b8615bfb565b604051908152f35b156118c757565b60405162461bcd60e51b81526020600482015260136024820152721cdd1bdc8b9c1c995a5b9a5d0b99985a5b1959606a1b6044820152606490fd5b1561190957565b60405162461bcd60e51b81526020600482015260126024820152716f776e2e696e76616c69642e69735361666560701b6044820152606490fd5b634e487b7160e01b600052604160045260246000fd5b6040810190811067ffffffffffffffff82111761197557604052565b611943565b6020810190811067ffffffffffffffff82111761197557604052565b60e0810190811067ffffffffffffffff82111761197557604052565b90601f8019910116810190811067ffffffffffffffff82111761197557604052565b9081602091031261048a57516119e981610681565b90565b6040513d6000823e3d90fd5b156119ff57565b60405162461bcd60e51b815260206004820152601b60248201527f6f776e2e6e6f6e617574682e44414f6f725365637572656261736500000000006044820152606490fd5b611bdf969593611b09611b9d94611ad9611bcd9895611a9c611b3996611a68615bfb565b8060025560ff60155460081c1615611be1575b506001600052600660205260406000209060ff801983541691151516179055565b600260005260066020527f8819ef417987f8ae7a81f42cdfb18815282fe989326fbff903d13cf0e03ace295b9060ff801983541691151516179055565b600360005260066020527f75f96ab15d697e93042dc45b5c896c4b27e89bb6eaf39475c5c371cb2513f7d2611ac8565b600460005260066020527fc5069e24aaadb2addc3e52e868fcf3f4f8acf5a87e24300992fd4540c2a87eed611ac8565b60056000526006602052611b6d817fbfd358e93f18da3ed276c3afdbdba00b8f0b6008a03476a6a86bd6320ee6938b611ac8565b600660008190526020527f697b2bd7bb2984c4e0dc14c79c987d37818484a62958b9c45a0e8b962f20650f611ac8565b600760005260066020527f4ced6d0d36392b04cc5d8761b1327b3bbba6e1089c77f60a9a9ca18e05e4f00e611ac8565b60ff8019600454169115151617600455565b565b611bee81611bf392614e8f565b614ead565b38611a7b565b60ff60155460081c1615611c0b575050565b600560005260066020527fbfd358e93f18da3ed276c3afdbdba00b8f0b6008a03476a6a86bd6320ee6938b5460ff1615611cea57600c60005260056020527ff907e7e6656fa73566b18c1215272fe9fca2c55c552e62c923e21e000ac4b4e6555b6006600081905260205260ff7f697b2bd7bb2984c4e0dc14c79c987d37818484a62958b9c45a0e8b962f20650f541615611cce57600d60005260056020527f03145c75015e7a856ecd94c41432ef3cb669d6360af23433588937fefdfac82555565b601460005260056020526000805160206161ca83398151915255565b6013600052600560205260008051602061624a83398151915255611c6c565b600360005260066020527f75f96ab15d697e93042dc45b5c896c4b27e89bb6eaf39475c5c371cb2513f7d25460ff16611d4e5760ff8019600454169115151617600455565b60405162461bcd60e51b815260206004820152600e60248201526d1cdd1bdc8b9cdd5cdc195b99195960921b6044820152606490fd5b6001600160a01b03168015611dad576bffffffffffffffffffffffff60a01b6001541617600155565b60405162461bcd60e51b815260206004820152601760248201527f73746f722e7570646174654f776e65722e6661696c65640000000000000000006044820152606490fd5b15611df957565b60405162461bcd60e51b815260206004820152600b60248201526a1cdd1bdc8b9b1bd8dad95960aa1b6044820152606490fd5b92949390611e38612451565b6000611e45610e7e615bfb565b8054600490602090611e5f906001600160a01b03166106c6565b60405163cfbffe5360e01b815292839182905afa90811561048557611f1b9291612139575b50611ed6611eac611ea4611e96612186565b611e9e61219e565b85615f8d565b6002546121df565b611ed0611ec8611eba612186565b611ec26121ff565b86615f8d565b6018546121df565b1461222d565b611f0a611ef2611ee4612186565b611eec612279565b84615f8d565b91611efb612186565b90611f046122a1565b90615f8d565b90851015908161212e575b506122c9565b611f2c611f2785615add565b612308565b85600183146120ae575b5090611fca6040611fba888660008051602061612a8339815191529796601854156000146120a957611f69600254600855565b611f7c611f776018546123ca565b601855565b611f846123d9565b99838b528260208c015260025460608c0152611fb58b611fb06018546000526019602052604060002090565b61240f565b613109565b6001600160a01b03169501948552565b8351612011906001600160a01b03166002611ff16018546000526019602052604060002090565b0180546001600160a01b0319166001600160a01b03909216919091179055565b61208a61204a61202088613276565b9561203861203460155460ff9060081c1690565b1590565b612099575b516001600160a01b031690565b600254604080513381526001600160a01b03909316602084015282019490945260608101889052608081019390935260a0830191909152819060c0820190565b0390a19190611bdf6001600355565b6120a4610f22614aba565b61203d565b611f69565b6120fd96506040611fba611fca92868096956121076121026120de60008051602061612a8339815191529b614358565b809e819682151580612114575b6120f49061236c565b6017549061235f565b6123bd565b601755565b9596509650505050611f36565b506120f4836121256017548461235f565b101590506120eb565b905084111538611f15565b612151915060203d811161047e5761046f81836119b2565b38611e84565b67ffffffffffffffff811161197557601f01601f191660200190565b604051906121808261197a565b60008252565b6040516121928161197a565b60008152906000368137565b604051906121ab82611959565b600f82526e6d696e744379636c6544617973282960881b6020830152565b634e487b7160e01b600052601160045260246000fd5b81156121e9570490565b634e487b7160e01b600052601260045260246000fd5b6040519061220c82611959565b60128252716d61784d696e74735065724379636c65282960701b6020830152565b1561223457565b60405162461bcd60e51b815260206004820152601760248201527f73746f722e6d696e746c696d69742e65786365656465640000000000000000006044820152606490fd5b6040519061228682611959565b600c82526b6d696e4d696e74517479282960a01b6020830152565b604051906122ae82611959565b600c82526b6d61784d696e74517479282960a01b6020830152565b156122d057565b60405162461bcd60e51b815260206004820152601060248201526f73746f722e6c6f776f6d61782e71747960801b6044820152606490fd5b1561230f57565b60405162461bcd60e51b815260206004820152601560248201527473746f722e756e7365637572652e4f52433131353560581b6044820152606490fd5b906001820180921161235a57565b6121c9565b9190820180921161235a57565b1561237357565b60405162461bcd60e51b815260206004820152601360248201527273746f722e66616b652e6d696e7476616c756560681b6044820152606490fd5b60001981019190821161235a57565b9190820391821161235a57565b600019811461235a5760010190565b604051906080820182811067ffffffffffffffff8211176119755760405260006060838281528260208201528260408201520152565b815181556020820151600182015560408201516002820180546001600160a01b0319166001600160a01b03929092169190911790559060039060600151910155565b600260035414612462576002600355565b604051633ee5aeb560e01b8152600490fd5b9061247d612451565b600092600093849385938693879388936124978a94600255565b89546124ab906001600160a01b03166106c6565b6040805163cfbffe5360e01b815290926020928390839060049082905afa918215610485578d92612f5d575b50611bee612512916124f261203460155460ff9060081c1690565b612f4d575b600254610a8a606461250b600854846123bd565b1115612f84565b612531612528612520612186565b611eec612fd0565b6009549061235f565b9160025492831015612554575b505050509796959493929190611bdf6001600355565b61256761255f612186565b611eec613002565b9261257b612573612186565b611e9e61302e565b600f60005260056020529261265f6126416126236126056125e76125c960008051602061620a83398151915254601060005260056020526000805160206161ea8339815191525b549061235f565b6011600052600560205260008051602061622a8339815191526125c2565b601260005260056020526000805160206161aa8339815191526125c2565b6013600052600560205260008051602061624a8339815191526125c2565b601460005260056020526000805160206161ca8339815191526125c2565b6015600052600560205260008051602061614a8339815191526125c2565b9485101561266f575b505061253e565b949d9b5096509650965096506004929850612696915061268d612186565b90611f0461305a565b865490929084906126af906001600160a01b03166106c6565b8a5163ab6e844f60e01b815293849182905afa8015610485576126fd946126f7938992612f2a575b508a51908101928352916126ef908390602001610729565b611f0461308c565b106130bd565b80821115612f225761270e916123bd565b600f6000526005602052808060008051602061620a8339815191525410612edc5750600f60005260056020526127549060008051602061620a8339815191525b546123bd565b600f60005260056020529060008051602061620a8339815191526127798382546123bd565b90555b60106000526005602052806000805160206161ea8339815191525410612e9357601060005260056020526127be906000805160206161ea83398151915261274e565b60106000526005602052926000805160206161ea8339815191526127e38582546123bd565b905560005b601160005260056020528060008051602061622a8339815191525410612e4a576011600052600560205261282a9060008051602061622a83398151915261274e565b601160005260056020529260008051602061622a83398151915261284f8582546123bd565b905560005b60126000526005602052806000805160206161aa8339815191525410612e015760126000526005602052612896906000805160206161aa83398151915261274e565b60126000526005602052926000805160206161aa8339815191526128bb8582546123bd565b905560005b601360005260056020528060008051602061624a8339815191525410612db857601360005260056020526129029060008051602061624a83398151915261274e565b601360005260056020529260008051602061624a8339815191526129278582546123bd565b905560005b60146000526005602052806000805160206161ca8339815191525410612d6f576014600052600560205261296e906000805160206161ca83398151915261274e565b60146000526005602052926000805160206161ca8339815191526129938582546123bd565b905560005b601560005260056020528060008051602061614a8339815191525410612d2357601560005260056020526129da9060008051602061614a83398151915261274e565b601560005260056020529260008051602061614a8339815191526129ff8582546123bd565b90555b600160005260056020527f1471eb6eb2c5e789fc3de43f8ce62938c7d1836ec861730447e2ada8fd81017b612a3882825461235f565b9055600260005260056020527f89832631fb3c3307a103ba2c84ab569c64d6182a18893dcd163f0f1c2090733a612a708a825461235f565b9055600360005260056020527fa9bc9a3a348c357ba16b37005d7e6b3236198c0e939f4af8c5f19b8deeb8ebc0612aa889825461235f565b9055600460005260056020527f3eec716f11ba9e820c81ca75eb978ffb45831ef8b7a53e5e422c26008e1ca6d5612ae088825461235f565b9055600560008190526020527f458b30c2d72bfd2c6317304a4594ecbafe5f729d3111b65fdc3a33bd48e5432d612b1887825461235f565b9055600660005260056020527f069400f22b28c6c362558d92f66163cec5671cba50b61abd2eecfcd0eaeac518612b5086825461235f565b90556007600052600560205260008051602061618a833981519152612b7685825461235f565b9055601f600052600560205288612d157ff0566fba57f394cfd00b7b328d5cff9d096b0b4609f559321788bcbb79ff612c5494612bb4600254600955565b600954815133815260006020820181905260408201526060810186905260808101829052604760a082015260008051602061612a833981519152949192918591849190839060c090a18351338152600060208201819052604082015260608101919091526080810191909152604860a082015260c090a180513381526000602082018190526040820152606081018d905260808101839052604960a0820152849060c090a180513381526000602082018190526040820152606081018c905260808101839052604a60a0820152849060c090a180513381526000602082018190526040820152606081018b905260808101839052604b60a0820152849060c090a180513381526000602082018190526040820152606081018a905260808101839052604c60a0820152849060c090a1513381526000602082018190526040820152606081018890526080810191909152604d60a082015290819060c0820190565b0390a1388080808080612668565b60156000526005602052612d489060008051602061614a8339815191525b54906123bd565b5060156000908152600560205260008051602061614a833981519152805494919055612a02565b60146000526005602052612d91906000805160206161ca833981519152612d41565b6014600090815260056020526000805160206161ca83398151915280549592919055612998565b60136000526005602052612dda9060008051602061624a833981519152612d41565b60136000908152600560205260008051602061624a8339815191528054959291905561292c565b60126000526005602052612e23906000805160206161aa833981519152612d41565b6012600090815260056020526000805160206161aa833981519152805495929190556128c0565b60116000526005602052612e6c9060008051602061622a833981519152612d41565b60116000908152600560205260008051602061622a83398151915280549592919055612854565b60106000526005602052612eb5906000805160206161ea833981519152612d41565b6010600090815260056020526000805160206161ea833981519152805495929190556127e8565b600f6000526005602052612eff915060008051602061620a833981519152612d41565b600f600052600560205260008051602061620a833981519152805492905561277c565b50508061270e565b819250612f46906126ef923d851161047e5761046f81836119b2565b91906126d7565b612f58610f22614aba565b6124f7565b612512919250612f7c611bee91853d871161047e5761046f81836119b2565b9291506124d7565b15612f8b57565b60405162461bcd60e51b815260206004820152601860248201527f73746f722e6167652e77696e646f772e657863656564656400000000000000006044820152606490fd5b60405190612fdd82611959565b60168252757769746864726177496e74657276616c44617973282960501b6020830152565b6040519061300f82611959565b601082526f6d696e436c61696d506572446179282960801b6020830152565b6040519061303b82611959565b601082526f6d6178436c61696d506572446179282960801b6020830152565b6040519061306782611959565b60168252756d6178476c6f62616c436c61696d506572446179282960501b6020830152565b6040519061309982611959565b601582527467657477697468647261776e2875696e743235362960581b6020830152565b156130c457565b60405162461bcd60e51b815260206004820152601e60248201527f73746f722e676c6f62616c2e706f6f6c2e6c696d69742e7265616368656400006044820152606490fd5b9161316f926131609260018060a01b0395866001541693600254926040519563c85700fb60e01b6020880152602487015260448601526064850152608484015260a483015260a4825261315b82611996565b615ffc565b602080825183010191016119d4565b1680156131795790565b60405162461bcd60e51b815260206004820152601060248201526f1cdd1bdc8b9b5a5b9d0b99985a5b195960821b6044820152606490fd5b604051906131be82611959565b6006825265706f6f6c282960d01b6020830152565b908160e091031261048a5780519160208201519160408101519160608201519160808101519160c060a083015192015190565b906127109182810292818404149015171561235a57565b908160640291606483040361235a57565b8181029291811591840414171561235a57565b9190916000838201938412911290801582169115161761235a57565b8181039291600013801582851316918412161761235a57565b60005460049190602090613292906001600160a01b03166106c6565b60405163cfbffe5360e01b815293849182905afa9081156104855761335f61333561331a61335a61332561330f61331f6132ff6132f06133149a6119e99c600091613371575b506132e1612186565b906132ea6131b1565b90615e41565b602080825183010191016131d3565b9d8e9b969f94989295915061322e565b61322e565b9361322e565b613206565b906121df565b956133456133358260025461235f565b600052601e602052604060002090565b613350888254613241565b905560025461235f565b61235f565b61336a83825461325d565b905561322e565b613389915060203d811161047e5761046f81836119b2565b386132d8565b6133a09061339b612451565b6137e8565b906001600355565b604051906133b582611959565b601382527255736572546f496e737428616464726573732960681b6020830152565b156133de57565b60405162461bcd60e51b815260206004820152601a60248201527f73746f722e696d706f72742e6c696d69742e65786365656465640000000000006044820152606490fd5b6040519061343082611959565b600b82526a6d696e74436f756e74282960a81b6020830152565b6040519061345782611959565b600e82526d6d696e74732875696e743235362960901b6020830152565b6040519061348182611959565b600b82526a6d696e746564416765282960a81b6020830152565b604051906134a882611959565b600b82526a6d696e746564717479282960a81b6020830152565b604051906134cf82611959565b600c82526b6964732875696e743235362960a01b6020830152565b604051906134f782611959565b60098252686d696e74416d74282960b81b6020830152565b6040519061351c82611959565b600a825269647261776e616765282960b01b6020830152565b6040519061354282611959565b600c82526b4c53422875696e743235362960a01b6020830152565b6040519061356a82611959565b6007825266647261776e282960c81b6020830152565b91908260c091031261048a5781519160208101519160408201519160608101519160a0608083015192015190565b604051906135bb82611959565b60138252726765745265776172647328616464726573732960681b6020830152565b919082604091031261048a576020825192015190565b6040519061360082611959565b6007825266626f6e7573282960c81b6020830152565b6040519061362382611959565b600682526563616765282960d01b6020830152565b6040519061364582611959565b601982527f67657445666665637469766552616e6b286164647265737329000000000000006020830152565b6040519061367e82611959565b601c82527f6765744e6f646544697265637473436f756e74286164647265737329000000006020830152565b604051906136b782611959565b601f82527f6765746e6f646572616e6b61676528616464726573732c75696e7432353629006020830152565b604051906136f082611959565b601082526f6765744e6f646528616464726573732960801b6020830152565b908160a091031261048a57805191602082015161372b81610681565b916040810151916080606083015161374281610b13565b9201516119e981610b13565b6040519061375b82611959565b601582527467657444656c656761746f7228616464726573732960581b6020830152565b6040519061378c82611959565b6014825273697344656c656761746f7228616464726573732960601b6020830152565b604051906137bc82611959565b601a82527f77697468647261776e496e636f6d654f662861646472657373290000000000006020830152565b60005460049190602090613804906001600160a01b03166106c6565b60405163111ea8c160e21b815293849182905afa91821561048557600092614337575b50600154604080516001600160a01b039092166020830152613869919061385b90829081015b03601f1981018352826119b2565b6138636133a8565b84615f06565b906001600160a01b03821615801561432b575b6143115761388d600a8211156133d7565b6138a0613898612186565b611eec613423565b906018546138ae818361235f565b831115614309576138be9161235f565b81613fad575b508060185414908115613fa4575b506138e0575b5050600b5490565b6138fb6138f66138ee612186565b611eec61350f565b600a55565b600a546008548111613f56575b50613934613925613917612186565b61391f61355d565b84615e41565b60208082518301019101613580565b600560209081527f1471eb6eb2c5e789fc3de43f8ce62938c7d1836ec861730447e2ada8fd81017b969096557f89832631fb3c3307a103ba2c84ab569c64d6182a18893dcd163f0f1c2090733a949094557fa9bc9a3a348c357ba16b37005d7e6b3236198c0e939f4af8c5f19b8deeb8ebc0929092557f3eec716f11ba9e820c81ca75eb978ffb45831ef8b7a53e5e422c26008e1ca6d5557f458b30c2d72bfd2c6317304a4594ecbafe5f729d3111b65fdc3a33bd48e5432d5560066000527f069400f22b28c6c362558d92f66163cec5671cba50b61abd2eecfcd0eaeac51855604080516001600160a01b03841692810192909252613a5c91613a4d91613a3f908290810161384d565b613a476135ae565b85615e41565b602080825183010191016135dd565b60056020527fed50cf1c6b769936a1389f9984171fc2797dfeb81a902fc7065232d35047710c9190915560686000527fcd69e2f4b8267161edd1e2b94c5e819026b1d505f30e6364ac4752d54b6b658555613ac3612102613abb612186565b611eec6135f3565b613ad96138f6613ad1612186565b611eec613616565b604080516001600160a01b0383166020820152613b0f91613b0a9190613b02908290810161384d565b611e9e613638565b600b55565b604080516001600160a01b0383166020820152613b4591613b409190613b38908290810161384d565b611e9e613671565b600c55565b60005b600f811115613e465750604080516001600160a01b039092166020830152613bb092613b9992613b8a92909190613b829083908101610729565b6132ea6136e3565b6020808251830101910161370f565b935050505060ff8019600454169115151617600455565b613bef613bbf60045460ff1690565b600160005260066020527f3e5fec24aa4dc4e5aee2e025e51e1392c72a2500577559fae9665c6d52bd6a31611ac8565b613bfe611a9c60045460ff1690565b613c0d611ad960045460ff1690565b613c1c611b0960045460ff1690565b613c5b613c2b60045460ff1690565b600560005260066020527fbfd358e93f18da3ed276c3afdbdba00b8f0b6008a03476a6a86bd6320ee6938b611ac8565b613c6a611b6d60045460ff1690565b613c79611b9d60045460ff1690565b600054613c8e906001600160a01b03166106c6565b604051906314ac1b5960e21b808352602083600481855afa92831561048557600093613e25575b50600154613cf7906001600160a01b0316604080516001600160a01b0383166020820152919590613ce99083908101610729565b613cf161374e565b90615f06565b604051828152602081600481875afa801561048557613d479261072992600092613e00575b50604080516001600160a01b0390921660208301529092613d3f91849190820190565b6117e061377f565b613d68575b505050613d61600160ff196015541617601555565b38806138d8565b60209060046040518094819382525afa801561048557613db99261072992600092613ddb575b50604080516001600160a01b0390921660208301529092613db191849190820190565b611f046137af565b6007600052600560205260008051602061618a83398151915255388080613d4c565b613db1919250613df99060203d60201161047e5761046f81836119b2565b9190613d8e565b613d3f919250613e1e9060203d60201161047e5761046f81836119b2565b9190613d1c565b613e3f91935060203d60201161047e5761046f81836119b2565b9138613cb5565b80613e5f91613ee6575b6007811115613e64575b6123ca565b613b48565b600b54808211613ecd5750604080516001600160a01b0385166020820152908101829052613e5a90613eab90613e9d816060810161384d565b613ea56136aa565b87615f8d565b613eb483611610565b90919082549060031b91821b91600019901b1916179055565b613eab613edc613e5a92611610565b90549060031b1c90565b604051632994ed6560e11b60208201526001600160a01b038416602482015260448101829052613f2790613a4d90613f21816064810161384d565b86615ffc565b613f3b83600052601f602052604060002090565b90613f4f8460005260208052604060002090565b5555613e50565b600855613f8761384d613f79600a54604051928391602083019190602083019252565b613f81613535565b83615f8d565b613f9d600854600052601e602052604060002090565b5538613908565b905015386138d2565b6000805260008051602061616a83398151915254602080527f29ab76e7ca72530a8284597fb76b039d796325740b21528d71ade454c6f2dbe9549095909491929091905b601854848110156142bf57611f77614008916123ca565b61403661384d614028601854604051928391602083019190602083019252565b61403061344a565b87615f06565b61404c610e7e614044612186565b611eec613474565b6140e661406261405a612186565b611eec61349b565b9861408760405161407f8161384d60208201906000602083019252565b611e9e6134c2565b986140a461409e614096612186565b613ea56134ea565b946160b7565b6000546020906140bc906001600160a01b03166106c6565b6040516333ea87db60e21b81526001600160a01b0390931660048401529194859081906024820190565b0381845afa908115610485578c9460009261429e575b506001600160a01b03821615614245575b5061411781615add565b61412090612308565b848461412a6123d9565b93828552816020860152600295865460608701528386601854614157906000526019602052604060002090565b906141619161240f565b61416a9161235f565b9e6141749161235f565b9c61417e93613109565b82601854614196906000526019602052604060002090565b0180546001600160a01b0319166001600160a01b039092169190911790556141bd84613276565b50601854600114936141f1604061422e9360008051602061612a83398151915297614236575b01516001600160a01b031690565b9254604080513381526001600160a01b03909516602086015284019490945260608301526080820192909252600060a082015290819060c0820190565b0390a1613ff1565b6142408654600855565b6141e3565b604051635bb8e44b60e11b815260006004820152945060209150849060249082905afa8015610485578b9360009161427f575b503861410d565b614298915060203d60201161047e5761046f81836119b2565b38614278565b6142b891925060203d60201161047e5761046f81836119b2565b90386140fc565b506000805260008051602061616a83398151915296909655602080527f29ab76e7ca72530a8284597fb76b039d796325740b21528d71ade454c6f2dbe994909455939050386138c4565b5050806138be565b505050614326600160ff196015541617601555565b600090565b5060155460ff1661387c565b61435191925060203d60201161047e5761046f81836119b2565b9038613827565b60005460405163cfbffe5360e01b815291906020908190849060049082906001600160a01b03165afa8015610485576119e9936000916143e2575b5060405192828401528183526143a883611959565b7f636f6d707574654d696e7456616c75652875696e743235362900000000000000604051926143d684611959565b60198452830152615f8d565b6143f99150823d841161047e5761046f81836119b2565b38614393565b94939092919283156144a35761446093600b549683600014614475578161443a9161444261443a61445395600052601f602052604060002090565b91825461235f565b905560005260208052604060002090565b90555b156144665761492e565b600b5490565b6144706000600b55565b61492e565b816144949161444261449461449c95600052601f602052604060002090565b9182546123bd565b9055614456565b60405162461bcd60e51b815260206004820152600f60248201526e73746f722e6c6576656c2e7a65726f60881b6044820152606490fd5b604051906144e782611959565b60148252736c6576656c436c617573652875696e743235362960601b6020830152565b908160a091031261048a578051916020820151916040810151916080606083015192015190565b919394909695968315159788614894575b50600b549761455b85600052601f602052604060002090565b61456685825461235f565b905561457b8560005260208052604060002090565b61458683825461235f565b905560008052601f60205260008051602061616a833981519152541515908161488c575b506145bc575b505050505050600b5490565b61487e575b6000546145d6906001600160a01b03166106c6565b604051809163cfbffe5360e01b825281600460209384935afa918215610485576146359261462891600091614861575b5060405190614620826107298a8783019190602083019252565b6132ea6144da565b805181018201910161450a565b949091936002881191821592614834575b5050614654575b50506145b0565b61467461331f9361331f61466e61466e9561467a9961322e565b9161321d565b9661322e565b50600160005260066020526146b17f3e5fec24aa4dc4e5aee2e025e51e1392c72a2500577559fae9665c6d52bd6a315b5460ff1690565b80614825575b156147ff57600860005260056020527ffb33122aa9f93cc639ebe80a7bc4784c11e6053dde89c6f4f7e268c6a623da1e6146f283825461235f565b90555b600460005260066020526147287fc5069e24aaadb2addc3e52e868fcf3f4f8acf5a87e24300992fd4540c2a87eed6146aa565b806147f0575b156147d25750600b60005260056020526147677f40f28f99a40bc9f6beea1013afdbc3cdcc689eb76b82c4de06c0acf1e1932ed561443a565b90555b60155461477b9060081c60ff161590565b61478c575b8080808080808061464d565b6147b990614798614aba565b90816147bf575b5061ff0060155491151560081b169061ff00191617601555565b38614780565b611bee816147cc92614e8f565b3861479f565b61443a6147e9916000526022602052604060002090565b905561476a565b5060155460081c60ff1661472e565b614813816000526021602052604060002090565b61481e83825461235f565b90556146f5565b5060155460081c60ff166146b7565b909150614843600a548b6123bd565b10908115614854575b503880614646565b9050600b5410153861484c565b6148789150833d851161047e5761046f81836119b2565b38614606565b6148878561492e565b6145c1565b9050386145aa565b6004811061454257602354156148f1575b6148ba6148b4602354896123bd565b84111590565b90816148dc575b506148cc5738614542565b5050505050509050600b54908190565b90506148ea600b54916123ae565b11386148c1565b6148fa87602355565b6148a5565b6040519061490c82611959565b601382527272616e6b436c617573652875696e743235362960681b6020830152565b600b61493a815461234c565b6008811061494757505050565b60008054909190614960906001600160a01b03166106c6565b91604092835191829163cfbffe5360e01b835282600460209485935afa8015610485576149e3956149c2946149b59392614a1c575b5051906149ad82610729888783019190602083019252565b6132ea6148ff565b80518101820191016135dd565b90600c54101590816149f6575b506149e8575b613e5a84613eb48554611610565b61493a565b6149f181600b55565b6149d5565b9050614a13614a04836123ae565b60005260208052604060002090565b541015386149cf565b614a34919250843d861161047e5761046f81836119b2565b9038614995565b60405190614a4882611959565b600982526863617070696e67282960b81b6020830152565b908160e091031261048a578051916020820151614a7c81610b13565b916040810151614a8b81610b13565b916060820151614a9a81610b13565b916080810151614aa981610b13565b9160c060a083015161374281610b13565b600054600490602090614ad5906001600160a01b03166106c6565b60405163cfbffe5360e01b815292839182905afa90811561048557614b2691614b1791600091614e71575b50614b09614a3b565b614b11612173565b91615e41565b60208082518301019101614a60565b60008052601f60205293959294929392909160008051602061616a8339815191525495614b53868861322e565b97614b5c615890565b94614e30575b50614dac575b614d46575b614d05575b50614c33575b614bcb575b6000805260056020527f05b8ccbb9d4d8fb16ea74ce3c29a41f1b461fbdaff4714a0d9a8eb05499746bc54614bb19161322e565b80821015614bbe57501190565b614bc7916123bd565b1190565b6007600052600560205290614bb190614c2b90614c2561264160008051602061618a8339815191525b54600e60005260056020527f783638979e3582b3ffd6d53fc06c949ac31d1ac75a5e2c3531fbe1f91045eb536125c2565b9061235f565b919050614b7d565b60056020527f458b30c2d72bfd2c6317304a4594ecbafe5f729d3111b65fdc3a33bd48e5432d5460066000529092614cff91614c2590614ccf90614c9f9061262390612605907f069400f22b28c6c362558d92f66163cec5671cba50b61abd2eecfcd0eaeac5186125c2565b600c60005260056020527ff907e7e6656fa73566b18c1215272fe9fca2c55c552e62c923e21e000ac4b4e66125c2565b600d60005260056020527f03145c75015e7a856ecd94c41432ef3cb669d6360af23433588937fefdfac8256125c2565b91614b78565b600b60005260056020529093614d3f91614c25907f40f28f99a40bc9f6beea1013afdbc3cdcc689eb76b82c4de06c0acf1e1932ed56125c2565b9238614b72565b60056020527fa9bc9a3a348c357ba16b37005d7e6b3236198c0e939f4af8c5f19b8deeb8ebc054600a6000529095614da691614c25906125c9907fa18b128af1c8fc61ff46f02d146e54546f34d340574cf2cef6a753cba6b6701d6125c2565b94614b6d565b60056020527f89832631fb3c3307a103ba2c84ab569c64d6182a18893dcd163f0f1c2090733a5460096000529096614e2a91614c2590614e0c907fc0a4a8be475dfebc377ebef2d7c4ff47656f572a08dd92b81017efcdba0febe16125c2565b601060005260056020526000805160206161ea8339815191526125c2565b95614b68565b600860005260056020529097614e6a91614c25907ffb33122aa9f93cc639ebe80a7bc4784c11e6053dde89c6f4f7e268c6a623da1e6125c2565b9638614b62565b614e89915060203d811161047e5761046f81836119b2565b38614b00565b60085491820180921161235a5781811115614ea8575090565b905090565b611bdf90614eba816151fb565b9593925093959050614eda61443a600f6000526005602052604060002090565b905560126000526005602052614efd6000805160206161aa83398151915261443a565b905560026000526006602052614f327f8819ef417987f8ae7a81f42cdfb18815282fe989326fbff903d13cf0e03ace296146aa565b8061513d575b156151155760096000526005602052614f707fc0a4a8be475dfebc377ebef2d7c4ff47656f572a08dd92b81017efcdba0febe161443a565b90555b60036000526006602052614fa67f75f96ab15d697e93042dc45b5c896c4b27e89bb6eaf39475c5c371cb2513f7d26146aa565b80615106575b156150db57600a60005260056020527fa18b128af1c8fc61ff46f02d146e54546f34d340574cf2cef6a753cba6b6701d614fe784825461235f565b90555b6007600052600660205261501d7f4ced6d0d36392b04cc5d8761b1327b3bbba6e1089c77f60a9a9ca18e05e4f00e6146aa565b806150cc575b156150a457600e600052600560205261505b7f783638979e3582b3ffd6d53fc06c949ac31d1ac75a5e2c3531fbe1f91045eb5361443a565b90555b61507283600052601e602052604060002090565b55601f60005260056020527ff0566fba57f394cfd00b7b328d5cff9d096b0b4609f559321788bcbb79ff612c55600855565b601560005260056020526150c560008051602061614a83398151915261443a565b905561505e565b5060155460081c60ff16615023565b6011600052600560205260008051602061622a8339815191526150ff84825461235f565b9055614fea565b5060155460081c60ff16614fac565b601060005260056020526151366000805160206161ea83398151915261443a565b9055614f73565b5060155460081c60ff16614f38565b6040519061515982611959565b600a82526973687574646f776e282960b01b6020830152565b818102929160008212600160ff1b82141661235a57818405149015171561235a57565b604051906151a282611959565b601882527f676574557365724964546f496e73742875696e743235362900000000000000006020830152565b604051906151db82611959565b6011825270696e636f6d654f6628616464726573732960781b6020830152565b600080549091829182908190819061521b906001600160a01b03166106c6565b946040519763ab6e844f60e01b89526020896004818a5afa98891561048557600099615524575b5060405163cfbffe5360e01b81529860208a6004818b5afa998a156104855760009a615503575b506152866152789a979a612186565b61528061514c565b89615f51565b9661528f61578a565b98909b600092600854915b80831061547a5750505060001461547257506107296152d5916152cd600754604051938491602083019190602083019252565b613cf1615195565b31965b6040516314ac1b5960e21b80825291602082600481845afa91821561048557600092615451575b50600154604080516001600160a01b039092166020808401829052835294601f1994909261533492909190613ce990836119b2565b604051828152602081600481875afa8015610485576153879261537b92600092613e005750604080516001600160a01b0390921660208301529092613d3f91849190820190565b038781018452836119b2565b615392575b50505050565b602091929394965060046040518094819382525afa92831561048557615424936153fa936153e69360009261542e575b50604080516001600160a01b039094166020850152929391926153f2928591820190565b039081018452836119b2565b611f046151ce565b6007600052600560205261541e61264160008051602061618a833981519152614bf4565b906123bd565b913880808061538c565b6153f2925061544b9060203d60201161047e5761046f81836119b2565b916153c2565b61546b91925060203d60201161047e5761046f81836119b2565b90386152ff565b9050966152d8565b90919c61548d90614c258f888691615602565b9c83156154a5575b61549e906123ca565b919061529a565b93966154fb6154cc61549e926154c588600052601e602052604060002090565b5490613241565b986154f56154e488600052601e602052604060002090565b546154ef89876123bd565b90615172565b90613241565b949050615495565b61551d919a5060203d60201161047e5761046f81836119b2565b9838615269565b61553e91995060203d60201161047e5761046f81836119b2565b9738615242565b6040519061555282611959565b6014825273676574627573696e6573732875696e743235362960601b6020830152565b6040519061558282611959565b601d82527f67657472616e6b436f756e742875696e743235362c75696e74323536290000006020830152565b604051906155bb82611959565b601782527f726f79616c697479436c617573652875696e74323536290000000000000000006020830152565b9081606091031261048a578051916040602083015192015190565b60408051602080820184905280825260009695929392601f199290919061563b9061562d87826119b2565b615635615545565b88615f8d565b94851561577d57600b546007811115615772575060079594939291905b6001975b8789111561566f57505050505050505050565b9091929394959697996156b161569d6156a98d86519283918c8a840160209093929193604081019481520152565b038981018352826119b2565b611eec615575565b80156157675783518581018d81526156f8916156ea916156dc908290602001038b81018352826119b2565b6156e46155ae565b89615e41565b8680825183010191016155e7565b8291921561575957615711908f613edc61335a91611610565b8a1161574c576157399261573461573f959361331f61466e8f95614c259661322e565b6121df565b9a6123ca565b979695949392919061565c565b5050509961573f906123ca565b505050509961573f906123ca565b509961573f906123ca565b959493929190615658565b5060009750505050505050565b615792615890565b60056020527f1471eb6eb2c5e789fc3de43f8ce62938c7d1836ec861730447e2ada8fd81017b54600860009081527ffb33122aa9f93cc639ebe80a7bc4784c11e6053dde89c6f4f7e268c6a623da1e5492949392820191821061235a5780600f6040925260056020522054810180911161235a57810390811161235a5760056020527f3eec716f11ba9e820c81ca75eb978ffb45831ef8b7a53e5e422c26008e1ca6d554600b6000527f40f28f99a40bc9f6beea1013afdbc3cdcc689eb76b82c4de06c0acf1e1932ed55491939181019190821061235a57601260005260056020526119e99161541e906000805160206161aa8339815191526125c2565b600090816001815b600f821115615911575050606560005260056020527fed50cf1c6b769936a1389f9984171fc2797dfeb81a902fc7065232d35047710c54810180911161235a5760686000526005602052917fcd69e2f4b8267161edd1e2b94c5e819026b1d505f30e6364ac4752d54b6b658554810180911161235a5790565b90938482526020926021845260409081842054810180911161235a576022909487855252822054810180911161235a5761594b90946123ca565b90615898565b1561595857565b60405162461bcd60e51b815260206004820152601960248201527f6f776e2e7361666567756172642e63616c6c2e6661696c6564000000000000006044820152606490fd5b9081602091031261048a57516119e981610b13565b600054604051634bf9c0ad60e11b8152906020908190839060049082906001600160a01b03165afa918215610485576119e992615a2891600091615a43575b506040516159fe81611959565b6008815267697353616665282960c01b8482015260405191615a1f8361197a565b60008352615e6c565b919080615a39575b61075690615951565b5081518114615a30565b615a5a9150833d851161047e5761046f81836119b2565b386159f1565b60405190615a6d82611959565b601582527469735365637572654261736528616464726573732960581b6020830152565b15615a9857565b60405162461bcd60e51b815260206004820152601a60248201527f6f776e2e736563757265626173652e63616c6c2e6661696c65640000000000006044820152606490fd5b6000546001600160a01b0316604051918291634bf9c0ad60e11b835282600460209485935afa928315610485576119e993615b4b9261072992600092615b66575b506040516001600160a01b039091168582019081529092615b43918491602090910190565b61073f615a60565b919080615b5c575b61075690615a91565b5081518114615b53565b615b43919250615b8290863d881161047e5761046f81836119b2565b9190615b1e565b60405190615b9682611959565b601182527069735369676e657228616464726573732960781b6020830152565b15615bbd57565b60405162461bcd60e51b81526020600482015260166024820152751bdddb8b9cda59db995c8b98d85b1b0b99985a5b195960521b6044820152606490fd5b60005460405163111ea8c160e21b815290602090829060049082906001600160a01b03165afa8015610485576119e991600091615c68575b50604051615c4081611959565b6005815264616765282960d81b602082015260405191615c5f8361197a565b60008352615f8d565b615c80915060203d811161047e5761046f81836119b2565b38615c33565b60405190615c9382611959565b6011825270697364656c656761746f724e6f6465282960781b6020830152565b6001600160a01b03908116908115615d0757600154826bffffffffffffffffffffffff60a01b821617600155167f8292fce18fa69edf4db7b94ea2e58241df0ae57f97e0a6c9b29067028bf92d76600080a3565b60405162461bcd60e51b815260206004820152601160248201527037bbb71734b73b30b634b21737bbb732b960791b6044820152606490fd5b3d15615d6b573d90615d5182612157565b91615d5f60405193846119b2565b82523d6000602084013e565b606090565b600080546040516311be646b60e21b815290602090829060049082906001600160a01b03165afa908115610485578284819382938391615e23575b505af1615db6615d40565b5015615dec5760405190815233907fcdcc745fe377b103b45fa0cec23ae3ef93d6fc6a84a01f0d18c40b354dd1d5d890602090a2565b60405162461bcd60e51b815260206004820152600f60248201526e1bdddb8b989d5c9b8b99985a5b1959608a1b6044820152606490fd5b615e3b915060203d811161047e5761046f81836119b2565b38615dab565b90615e4c9291615e6c565b9060009015615e59575090565b6040519150615e678261197a565b815290565b9190823b15615eed578051906020918263ffffffff60e01b92012016916040519180830193845281519160005b838110615ed9575050509181615ec6602482600097959688970187838201520360048101845201826119b2565b5191620dbba0fa615ed5615d40565b9091565b818101830151858201602401528201615e99565b505050600090604051615eff8161197a565b6000815290565b9291615f1491600094615e6c565b9080615f46575b615f225750565b80519192506001600160a01b0391615f42916020918101820191016119d4565b1690565b506020815114615f1b565b9291615f5f91600094615e6c565b9080615f82575b615f6d5750565b6119e99192506020808251830101910161599d565b506020815114615f66565b9291615f9b91600094615e6c565b9080615fc0575b615fa95750565b90915060208180518101031261048a576020015190565b506020815114615fa2565b906020825192015163ffffffff60e01b908181169360048110615fed57505050565b60040360031b82901b16169150565b6001600160a01b0381161561607d57600080918351908260208601915af190616023615d40565b911561602d575090565b805160009190600411616077576160449150615fcb565b8151156160545750805190602001fd5b604051630870274d60e21b81526001600160e01b03199091166004820152602490fd5b50616044565b60405162461bcd60e51b81526020600482015260126024820152711bdddb8b9a5b9d985b1a590b9d185c99d95d60721b6044820152606490fd5b803b60006160c482612157565b926160d260405194856119b2565b82845260208401903c602d8151106160ee57602a015160601c90565b60405162461bcd60e51b81526020600482015260136024820152724e6f742061206d696e696d616c2070726f787960681b6044820152606490fdfe1517c86fcf2bfb8e3468afcc539b0004955da8027797c497ea51d1f1094ab898dcae836ed36bf3d20474cfcca00229d5b3b00239a2a956d8ca4bf29e25a7143c8c60882dec3cf54096060609fdd16c336781b436ca34f3f27a220dfcfa1d4855eddb6698d7c569ff62ff64f1f1492bf14a54594835ba0faac91f84b4f5d81460d1ccbf1f9f869f51cd81e6f099f905636b057f682c706fe990614b11205169283dfec54401578e5ad10d5cfe74972cfc24c82740aaca9c2d34cbb4be4a761cc58b32256db898364c465749decac34aee435952ffe1739257aa5b0235e266d9c558f00e8ecc6f5419941dd0bafec65a4cc188d31713fb1fe224257460930df8afb4e18992ad424cdedc46668609f2bafcf665a8d99577618d5923c69264d9cf5f872ac8b0ab547ba6ba6686d487265a409b97d09cf043f98287b4b34e7bc04a71a2646970667358221220bd04eba87b5738a2540b8f6e8414b40de72231c6e033dffb7a71d6d758a54f9764736f6c63430008140033","linkReferences":{}},"methodIdentifiers":{"Burn(uint256)":"b90306ad","BurnCoin()":"7bfbfecb","LSB(uint256)":"a98bf4f9","_delegatorCount()":"a1f7f539","_getImplementation(address)":"c54e44b0","_importOld(uint256)":"141ca660","_isDelegatorNode(address)":"e01ad5fd","_isSafe()":"e0a9bc2b","_isSecureBase(address)":"af484526","_isSigner(address)":"1f185d16","_txnType7(uint256,uint256)":"02a085f2","_txnType_1_0(address,uint256,uint256,uint256,uint256)":"932ca2d6","addLevelnGetRank(uint256,uint256,uint256,uint256,uint256,uint256,uint256)":"1fc9788a","burned()":"73f42561","cage()":"69245009","compute(uint256)":"5ed86d5c","dage()":"725b6fff","direct()":"222b1407","drawn()":"fd915ef2","flushed()":"c32487aa","getBalance()":"12065fe0","getHexbase()":"3b9b7955","id()":"af640d0f","inc(uint256)":"812600df","isCap()":"4702c08f","isLock()":"09d8da2e","levelRestrictionAge()":"2bb96697","lvlbs(uint256)":"91b0d21c","lvlqty(uint256)":"13ab4dc5","lvlrwrd(uint256)":"40124ece","lvlyei(uint256)":"18a54198","mintCount()":"9659867e","mintLimitwhenCap()":"bd6bf403","mintToValidator(uint256)":"a45c004a","mints(uint256)":"6350b2c2","moveLvlIncome(uint256,uint256,uint256,uint256,bool)":"7b058ac1","owner()":"8da5cb5b","postInit()":"4a65786c","preinit(address,address,uint256)":"52902c59","rank()":"934209ce","rankage(uint256)":"d3a1a499","selfProposed()":"6195685b","setBonus(uint256)":"0b98f975","setLock(bool)":"619d5194","setSuspend(bool,bool,bool,bool,bool,bool,bool)":"dcdd04a6","setTourAndGift(uint256,uint256)":"723f0d85","suspendinc(uint256)":"901bcdd4","systemAge()":"fdc10bc9","unpaid()":"c4cb291e","updateOwner(address)":"880cdc31","valIncome(uint256)":"c6a9c45e","valmapAge(uint256)":"49f601df","valsmintsid(uint256)":"678a7634","withdrawlDage()":"a9bf285b"},"id":53}