{"abi":[{"type":"constructor","inputs":[{"name":"_contractName","type":"string","internalType":"string"},{"name":"_uri","type":"string","internalType":"string"},{"name":"_supply","type":"uint256","internalType":"uint256"}],"stateMutability":"nonpayable"},{"type":"fallback","stateMutability":"payable"},{"type":"receive","stateMutability":"payable"},{"type":"function","name":"Burn","inputs":[{"name":"amount","type":"uint256","internalType":"uint256"}],"outputs":[],"stateMutability":"payable"},{"type":"function","name":"Init","inputs":[{"name":"account","type":"address","internalType":"address"},{"name":"_id","type":"uint256","internalType":"uint256"},{"name":"qty","type":"uint256","internalType":"uint256"},{"name":"amt","type":"uint256","internalType":"uint256"}],"outputs":[{"name":"","type":"address","internalType":"address"}],"stateMutability":"payable"},{"type":"function","name":"PostInit","inputs":[{"name":"_contractName","type":"string","internalType":"string"},{"name":"_uri","type":"string","internalType":"string"},{"name":"_name","type":"string","internalType":"string"},{"name":"_nid","type":"uint256","internalType":"uint256"},{"name":"account","type":"address","internalType":"address"},{"name":"qty","type":"uint256","internalType":"uint256"},{"name":"amt","type":"uint256","internalType":"uint256"}],"outputs":[],"stateMutability":"nonpayable"},{"type":"function","name":"_getUnlockedNFT","inputs":[],"outputs":[{"name":"_NFT","type":"uint256","internalType":"uint256"}],"stateMutability":"view"},{"type":"function","name":"_setOwner","inputs":[{"name":"own","type":"address","internalType":"address"},{"name":"isApproved","type":"bool","internalType":"bool"}],"outputs":[],"stateMutability":"nonpayable"},{"type":"function","name":"_setReq","inputs":[{"name":"own","type":"address","internalType":"address"}],"outputs":[],"stateMutability":"nonpayable"},{"type":"function","name":"addToken","inputs":[{"name":"_names","type":"string[]","internalType":"string[]"}],"outputs":[],"stateMutability":"nonpayable"},{"type":"function","name":"at","inputs":[{"name":"_addr","type":"address","internalType":"address"}],"outputs":[{"name":"o_code","type":"bytes","internalType":"bytes"}],"stateMutability":"view"},{"type":"function","name":"balanceOf","inputs":[{"name":"account","type":"address","internalType":"address"},{"name":"id","type":"uint256","internalType":"uint256"}],"outputs":[{"name":"","type":"uint256","internalType":"uint256"}],"stateMutability":"view"},{"type":"function","name":"balanceOfBatch","inputs":[{"name":"accounts","type":"address[]","internalType":"address[]"},{"name":"ids","type":"uint256[]","internalType":"uint256[]"}],"outputs":[{"name":"","type":"uint256[]","internalType":"uint256[]"}],"stateMutability":"view"},{"type":"function","name":"baseMetadataURI","inputs":[],"outputs":[{"name":"","type":"string","internalType":"string"}],"stateMutability":"view"},{"type":"function","name":"burn","inputs":[{"name":"from","type":"address","internalType":"address"},{"name":"id","type":"uint256","internalType":"uint256"},{"name":"amount","type":"uint256","internalType":"uint256"}],"outputs":[],"stateMutability":"nonpayable"},{"type":"function","name":"claimed","inputs":[],"outputs":[{"name":"","type":"uint256","internalType":"uint256"}],"stateMutability":"view"},{"type":"function","name":"cloned","inputs":[{"name":"","type":"uint256","internalType":"uint256"},{"name":"","type":"uint256","internalType":"uint256"}],"outputs":[{"name":"","type":"address","internalType":"address"}],"stateMutability":"view"},{"type":"function","name":"curSupply","inputs":[],"outputs":[{"name":"","type":"uint256","internalType":"uint256"}],"stateMutability":"view"},{"type":"function","name":"getBalance","inputs":[],"outputs":[{"name":"","type":"uint256","internalType":"uint256"}],"stateMutability":"view"},{"type":"function","name":"getCloneCountByToken","inputs":[{"name":"_id","type":"uint256","internalType":"uint256"}],"outputs":[{"name":"","type":"uint256","internalType":"uint256"}],"stateMutability":"view"},{"type":"function","name":"getNames","inputs":[{"name":"inx","type":"uint256","internalType":"uint256"}],"outputs":[{"name":"","type":"string","internalType":"string"}],"stateMutability":"view"},{"type":"function","name":"getTokenCount","inputs":[],"outputs":[{"name":"","type":"uint256","internalType":"uint256"}],"stateMutability":"view"},{"type":"function","name":"idToName","inputs":[{"name":"","type":"uint256","internalType":"uint256"}],"outputs":[{"name":"","type":"string","internalType":"string"}],"stateMutability":"view"},{"type":"function","name":"ids","inputs":[{"name":"","type":"uint256","internalType":"uint256"}],"outputs":[{"name":"","type":"uint256","internalType":"uint256"}],"stateMutability":"view"},{"type":"function","name":"isAccountSafeOwner","inputs":[{"name":"sender","type":"address","internalType":"address"}],"outputs":[{"name":"","type":"bool","internalType":"bool"}],"stateMutability":"view"},{"type":"function","name":"isApprovedForAll","inputs":[{"name":"account","type":"address","internalType":"address"},{"name":"operator","type":"address","internalType":"address"}],"outputs":[{"name":"","type":"bool","internalType":"bool"}],"stateMutability":"view"},{"type":"function","name":"isOwnerOrSafeOwner","inputs":[{"name":"sender","type":"address","internalType":"address"}],"outputs":[{"name":"","type":"bool","internalType":"bool"}],"stateMutability":"view"},{"type":"function","name":"isclone","inputs":[{"name":"","type":"address","internalType":"address"}],"outputs":[{"name":"","type":"bool","internalType":"bool"}],"stateMutability":"view"},{"type":"function","name":"mintAmt","inputs":[],"outputs":[{"name":"","type":"uint256","internalType":"uint256"}],"stateMutability":"view"},{"type":"function","name":"mintedAge","inputs":[],"outputs":[{"name":"","type":"uint256","internalType":"uint256"}],"stateMutability":"view"},{"type":"function","name":"mintedUser","inputs":[],"outputs":[{"name":"","type":"address","internalType":"address"}],"stateMutability":"view"},{"type":"function","name":"mintedqty","inputs":[],"outputs":[{"name":"","type":"uint256","internalType":"uint256"}],"stateMutability":"view"},{"type":"function","name":"name","inputs":[],"outputs":[{"name":"","type":"string","internalType":"string"}],"stateMutability":"view"},{"type":"function","name":"nameToId","inputs":[{"name":"","type":"string","internalType":"string"}],"outputs":[{"name":"","type":"uint256","internalType":"uint256"}],"stateMutability":"view"},{"type":"function","name":"names","inputs":[{"name":"","type":"uint256","internalType":"uint256"}],"outputs":[{"name":"","type":"string","internalType":"string"}],"stateMutability":"view"},{"type":"function","name":"owner","inputs":[],"outputs":[{"name":"","type":"address","internalType":"address"}],"stateMutability":"view"},{"type":"function","name":"req","inputs":[],"outputs":[{"name":"newowner","type":"address","internalType":"address"},{"name":"isReq","type":"bool","internalType":"bool"},{"name":"isVer1","type":"bool","internalType":"bool"},{"name":"isVer2","type":"bool","internalType":"bool"},{"name":"isVer3","type":"bool","internalType":"bool"}],"stateMutability":"view"},{"type":"function","name":"safeBatchTransferFrom","inputs":[{"name":"from","type":"address","internalType":"address"},{"name":"to","type":"address","internalType":"address"},{"name":"ids","type":"uint256[]","internalType":"uint256[]"},{"name":"values","type":"uint256[]","internalType":"uint256[]"},{"name":"data","type":"bytes","internalType":"bytes"}],"outputs":[],"stateMutability":"nonpayable"},{"type":"function","name":"safeTransferFrom","inputs":[{"name":"from","type":"address","internalType":"address"},{"name":"to","type":"address","internalType":"address"},{"name":"id","type":"uint256","internalType":"uint256"},{"name":"value","type":"uint256","internalType":"uint256"},{"name":"data","type":"bytes","internalType":"bytes"}],"outputs":[],"stateMutability":"nonpayable"},{"type":"function","name":"setApprovalForAll","inputs":[{"name":"operator","type":"address","internalType":"address"},{"name":"approved","type":"bool","internalType":"bool"}],"outputs":[],"stateMutability":"nonpayable"},{"type":"function","name":"setFeeAmt","inputs":[{"name":"_fee","type":"uint256","internalType":"uint256"}],"outputs":[],"stateMutability":"nonpayable"},{"type":"function","name":"setParam","inputs":[{"name":"s","type":"address","internalType":"address"},{"name":"r","type":"address","internalType":"address"},{"name":"m","type":"address","internalType":"address"},{"name":"f","type":"address","internalType":"address"},{"name":"t","type":"address","internalType":"address"}],"outputs":[],"stateMutability":"nonpayable"},{"type":"function","name":"setURI","inputs":[{"name":"newuri","type":"string","internalType":"string"}],"outputs":[],"stateMutability":"nonpayable"},{"type":"function","name":"setsupply","inputs":[{"name":"_s","type":"uint256","internalType":"uint256"}],"outputs":[],"stateMutability":"nonpayable"},{"type":"function","name":"supportsInterface","inputs":[{"name":"interfaceId","type":"bytes4","internalType":"bytes4"}],"outputs":[{"name":"","type":"bool","internalType":"bool"}],"stateMutability":"view"},{"type":"function","name":"totSupply","inputs":[],"outputs":[{"name":"","type":"uint256","internalType":"uint256"}],"stateMutability":"view"},{"type":"function","name":"uri","inputs":[{"name":"_tokenid","type":"uint256","internalType":"uint256"}],"outputs":[{"name":"","type":"string","internalType":"string"}],"stateMutability":"view"},{"type":"function","name":"withdraw","inputs":[{"name":"to","type":"address","internalType":"address"},{"name":"amount","type":"uint256","internalType":"uint256"}],"outputs":[],"stateMutability":"payable"},{"type":"event","name":"ApprovalForAll","inputs":[{"name":"account","type":"address","indexed":true,"internalType":"address"},{"name":"operator","type":"address","indexed":true,"internalType":"address"},{"name":"approved","type":"bool","indexed":false,"internalType":"bool"}],"anonymous":false},{"type":"event","name":"TransferBatch","inputs":[{"name":"operator","type":"address","indexed":true,"internalType":"address"},{"name":"from","type":"address","indexed":true,"internalType":"address"},{"name":"to","type":"address","indexed":true,"internalType":"address"},{"name":"ids","type":"uint256[]","indexed":false,"internalType":"uint256[]"},{"name":"values","type":"uint256[]","indexed":false,"internalType":"uint256[]"}],"anonymous":false},{"type":"event","name":"TransferSingle","inputs":[{"name":"operator","type":"address","indexed":true,"internalType":"address"},{"name":"from","type":"address","indexed":true,"internalType":"address"},{"name":"to","type":"address","indexed":true,"internalType":"address"},{"name":"id","type":"uint256","indexed":false,"internalType":"uint256"},{"name":"value","type":"uint256","indexed":false,"internalType":"uint256"}],"anonymous":false},{"type":"event","name":"URI","inputs":[{"name":"value","type":"string","indexed":false,"internalType":"string"},{"name":"id","type":"uint256","indexed":true,"internalType":"uint256"}],"anonymous":false},{"type":"error","name":"ERC1155InsufficientBalance","inputs":[{"name":"sender","type":"address","internalType":"address"},{"name":"balance","type":"uint256","internalType":"uint256"},{"name":"needed","type":"uint256","internalType":"uint256"},{"name":"tokenId","type":"uint256","internalType":"uint256"}]},{"type":"error","name":"ERC1155InvalidApprover","inputs":[{"name":"approver","type":"address","internalType":"address"}]},{"type":"error","name":"ERC1155InvalidArrayLength","inputs":[{"name":"idsLength","type":"uint256","internalType":"uint256"},{"name":"valuesLength","type":"uint256","internalType":"uint256"}]},{"type":"error","name":"ERC1155InvalidOperator","inputs":[{"name":"operator","type":"address","internalType":"address"}]},{"type":"error","name":"ERC1155InvalidReceiver","inputs":[{"name":"receiver","type":"address","internalType":"address"}]},{"type":"error","name":"ERC1155InvalidSender","inputs":[{"name":"sender","type":"address","internalType":"address"}]},{"type":"error","name":"ERC1155MissingApprovalForAll","inputs":[{"name":"operator","type":"address","internalType":"address"},{"name":"owner","type":"address","internalType":"address"}]},{"type":"error","name":"FailedDeployment","inputs":[]},{"type":"error","name":"InsufficientBalance","inputs":[{"name":"balance","type":"uint256","internalType":"uint256"},{"name":"needed","type":"uint256","internalType":"uint256"}]}],"bytecode":{"object":"0x60806040526000601755600060185560006019556000601a553480156200002557600080fd5b506040516200435a3803806200435a833981016040819052620000489162000457565b816200005481620001f7565b5062000139600380546001600160a01b03199081167360c95eb879eec03a0af4528a16f192e61a198f401790915560048054821673f134e58248ab8380e911d36c21e1015e5e84814117905560058054821673c0cee8b561cc4f60869776ca5b0b7a295e04f5af17905560068054821673d03060e8ed7754aeed63e4e56b0457662d8164aa17905560078054821673648565deb50c503ef59860d92942eaece0c3e17217905560088054821673a6275eb780ca9eff45d64bad4936d168f51d788017905560098054909116736c96f2d0c9a8b7fb472a319b1ecf7e8626c7b2ba179055565b600a80546001600160a01b03191632179055620001568262000209565b600e62000164838262000559565b50600f62000173848262000559565b5060198190556005546040805163262a9dff60e01b815290516001600160a01b039092169163262a9dff916004808201926020929091908290030181865afa158015620001c4573d6000803e3d6000fd5b505050506040513d601f19601f82011682018060405250810190620001ea919062000625565b601655506200066a915050565b600262000205828262000559565b5050565b600360009054906101000a90046001600160a01b03166001600160a01b0316636a276f9d6040518163ffffffff1660e01b8152600401602060405180830381865afa1580156200025d573d6000803e3d6000fd5b505050506040513d601f19601f820116820180604052508101906200028391906200063f565b620002d55760405162461bcd60e51b815260206004820152601a60248201527f496e76616c6964205361666567756172642e697353616665282900000000000060448201526064015b60405180910390fd5b6003546040516319c0642960e01b81523360048201819052916001600160a01b0316906319c0642990602401602060405180830381865afa1580156200031f573d6000803e3d6000fd5b505050506040513d601f19601f820116820180604052508101906200034591906200063f565b620003875760405162461bcd60e51b815260206004820152601160248201527024b73b30b634b21029b0b332a7bbb732b960791b6044820152606401620002cc565b6200020582620001f7565b634e487b7160e01b600052604160045260246000fd5b600082601f830112620003ba57600080fd5b81516001600160401b0380821115620003d757620003d762000392565b604051601f8301601f19908116603f0116810190828211818310171562000402576200040262000392565b816040528381526020925086838588010111156200041f57600080fd5b600091505b8382101562000443578582018301518183018401529082019062000424565b600093810190920192909252949350505050565b6000806000606084860312156200046d57600080fd5b83516001600160401b03808211156200048557600080fd5b6200049387838801620003a8565b94506020860151915080821115620004aa57600080fd5b50620004b986828701620003a8565b925050604084015190509250925092565b600181811c90821680620004df57607f821691505b6020821081036200050057634e487b7160e01b600052602260045260246000fd5b50919050565b601f8211156200055457600081815260208120601f850160051c810160208610156200052f5750805b601f850160051c820191505b8181101562000550578281556001016200053b565b5050505b505050565b81516001600160401b0381111562000575576200057562000392565b6200058d81620005868454620004ca565b8462000506565b602080601f831160018114620005c55760008415620005ac5750858301515b600019600386901b1c1916600185901b17855562000550565b600085815260208120601f198616915b82811015620005f657888601518255948401946001909101908401620005d5565b5085821015620006155787850151600019600388901b60f8161c191681555b5050505050600190811b01905550565b6000602082840312156200063857600080fd5b5051919050565b6000602082840312156200065257600080fd5b815180151581146200066357600080fd5b9392505050565b613ce0806200067a6000396000f3fe60806040526004361061025d5760003560e01c806381fbf0a511610143578063d878fe10116100bb578063f3fef3a311610077578063f3fef3a314610795578063f5298aca146107a8578063f6d8f2cb146107c8578063f9ffedb714610800578063fac333ac14610816578063fcf563681461083657005b8063d878fe10146106e9578063d92f24ae14610709578063dce4a4471461071f578063e834a8341461073f578063e985e9c514610755578063f242432a1461077557005b8063abb8c9651161010a578063abb8c96514610641578063abbbf8d714610661578063b075182314610681578063b90306ad146106a1578063c3bd18c3146106b4578063d3660623146106d457005b806381fbf0a5146105ad5780638d8a761f146105c35780638da5cb5b146105e357806392b31d8714610601578063a22cb4651461062157005b8063379a423c116101d657806357e0e4651161019d57806357e0e465146105075780635b2bd79e146105375780635fac2d9d1461054c5780636589c252146105625780636c51797b1461058257806378a895671461059857005b8063379a423c1461045a57806341ffe7c41461047a5780634622ab031461049a5780634e1273f4146104ba5780635718e17b146104e757005b80630e89341c116102255780630e89341c1461038f57806312065fe0146103af5780631f5ae5f3146103c2578063238a4480146103ef5780632eb2c2d61461041a578063364410b31461043a57005b8062fdd58e1461026657806301ffc9a71461029957806302fe5305146102c957806306fdde03146102e95780630d43aaf21461030b57005b3661026457005b005b34801561027257600080fd5b50610286610281366004612f42565b610856565b6040519081526020015b60405180910390f35b3480156102a557600080fd5b506102b96102b4366004612f84565b61087e565b6040519015158152602001610290565b3480156102d557600080fd5b506102646102e436600461305f565b6108ce565b3480156102f557600080fd5b506102fe610a00565b60405161029091906130ec565b34801561031757600080fd5b50600b54610355906001600160a01b0381169060ff600160a01b8204811691600160a81b8104821691600160b01b8204811691600160b81b90041685565b604080516001600160a01b03909616865293151560208601529115159284019290925290151560608301521515608082015260a001610290565b34801561039b57600080fd5b506102fe6103aa3660046130ff565b610a8e565b3480156103bb57600080fd5b5047610286565b3480156103ce57600080fd5b506102866103dd3660046130ff565b60009081526013602052604090205490565b6104026103fd366004613118565b610ac2565b6040516001600160a01b039091168152602001610290565b34801561042657600080fd5b506102646104353660046131e2565b610da2565b34801561044657600080fd5b506102fe6104553660046130ff565b610e09565b34801561046657600080fd5b506102b9610475366004613290565b610e22565b34801561048657600080fd5b50610264610495366004613290565b610eac565b3480156104a657600080fd5b506102fe6104b53660046130ff565b6110bb565b3480156104c657600080fd5b506104da6104d53660046132ad565b6110e6565b60405161029091906133aa565b3480156104f357600080fd5b506102fe6105023660046130ff565b6111bb565b34801561051357600080fd5b506102b9610522366004613290565b60126020526000908152604090205460ff1681565b34801561054357600080fd5b506102fe61126a565b34801561055857600080fd5b50610286601a5481565b34801561056e57600080fd5b5061026461057d3660046130ff565b611277565b34801561058e57600080fd5b5061028660155481565b3480156105a457600080fd5b50600d54610286565b3480156105b957600080fd5b5061028660195481565b3480156105cf57600080fd5b506102646105de3660046133bd565b611306565b3480156105ef57600080fd5b50600a546001600160a01b0316610402565b34801561060d57600080fd5b5061040261061c366004613476565b6115b2565b34801561062d57600080fd5b5061026461063c3660046134a6565b6115ea565b34801561064d57600080fd5b5061026461065c3660046134a6565b6115f5565b34801561066d57600080fd5b5061026461067c3660046134df565b611928565b34801561068d57600080fd5b5061026461069c366004613590565b611b28565b6102646106af3660046130ff565b611ca4565b3480156106c057600080fd5b506102b96106cf366004613290565b611d5a565b3480156106e057600080fd5b50610286611dc9565b3480156106f557600080fd5b506102646107043660046130ff565b6120a3565b34801561071557600080fd5b5061028660185481565b34801561072b57600080fd5b506102fe61073a366004613290565b612132565b34801561074b57600080fd5b5061028660175481565b34801561076157600080fd5b506102b9610770366004613601565b61214d565b34801561078157600080fd5b5061026461079036600461362f565b61217b565b6102646107a3366004612f42565b6121da565b3480156107b457600080fd5b506102646107c3366004613698565b61229e565b3480156107d457600080fd5b506102866107e336600461305f565b805160208183018101805160108252928201919093012091525481565b34801561080c57600080fd5b5061028660165481565b34801561082257600080fd5b506102866108313660046130ff565b612380565b34801561084257600080fd5b50601454610402906001600160a01b031681565b6000818152602081815260408083206001600160a01b03861684529091529020545b92915050565b60006001600160e01b03198216636cdb3d1360e11b14806108af57506001600160e01b031982166303a24d0760e21b145b8061087857506301ffc9a760e01b6001600160e01b0319831614610878565b600360009054906101000a90046001600160a01b03166001600160a01b0316636a276f9d6040518163ffffffff1660e01b8152600401602060405180830381865afa158015610921573d6000803e3d6000fd5b505050506040513d601f19601f8201168201806040525081019061094591906136cd565b61096a5760405162461bcd60e51b8152600401610961906136ea565b60405180910390fd5b6003546040516319c0642960e01b81523360048201819052916001600160a01b0316906319c0642990602401602060405180830381865afa1580156109b3573d6000803e3d6000fd5b505050506040513d601f19601f820116820180604052508101906109d791906136cd565b6109f35760405162461bcd60e51b815260040161096190613721565b6109fc826123a1565b5050565b600f8054610a0d9061374c565b80601f0160208091040260200160405190810160405280929190818152602001828054610a399061374c565b8015610a865780601f10610a5b57610100808354040283529160200191610a86565b820191906000526020600020905b815481529060010190602001808311610a6957829003601f168201915b505050505081565b6060600e610a9b836123ad565b604051602001610aac929190613786565b6040516020818303038152906040529050919050565b60035460408051636a276f9d60e01b815290516000926001600160a01b031691636a276f9d9160048083019260209291908290030181865afa158015610b0c573d6000803e3d6000fd5b505050506040513d601f19601f82011682018060405250810190610b3091906136cd565b610b4c5760405162461bcd60e51b8152600401610961906136ea565b846001600160a01b038116610b945760405162461bcd60e51b815260206004820152600e60248201526d3232b330bab63a1039b2b73232b960911b6044820152606401610961565b60055460405162ba80a960e11b81523360048201526001600160a01b0390911690630175015290602401602060405180830381865afa158015610bdb573d6000803e3d6000fd5b505050506040513d601f19601f82011682018060405250810190610bff91906136cd565b610c3d5760405162461bcd60e51b815260206004820152600f60248201526e756e6175746820696e7374616e636560881b6044820152606401610961565b83601a54610c4b9190613833565b6019541015610c8e5760405162461bcd60e51b815260206004820152600f60248201526e1cdd5c1c1b1e48189c995858da1959608a1b6044820152606401610961565b6000610c9930612440565b90506001600160a01b038116638d8a761f600f600e600c610cbb60018c613846565b81548110610ccb57610ccb613859565b906000526020600020018a8c8b8b6040518863ffffffff1660e01b8152600401610cfb97969594939291906138ec565b600060405180830381600087803b158015610d1557600080fd5b505af1158015610d29573d6000803e3d6000fd5b50505060008781526013602090815260408083208054600180820183559185528385200180546001600160a01b0319166001600160a01b038816908117909155845260129092528220805460ff19169091179055601a8054889350909190610d92908490613833565b9091555090979650505050505050565b336001600160a01b0386168114801590610dc35750610dc1868261214d565b155b15610df45760405163711bec9160e11b81526001600160a01b03808316600483015287166024820152604401610961565b610e01868686868661244d565b505050505050565b60116020526000908152604090208054610a0d9061374c565b6003546040516319c0642960e01b81526001600160a01b03838116600483015260009216906319c0642990602401602060405180830381865afa158015610e6d573d6000803e3d6000fd5b505050506040513d601f19601f82011682018060405250810190610e9191906136cd565b80610878575050600a546001600160a01b0391821691161490565b600354604051637df73e2760e01b81523360048201819052916001600160a01b031690637df73e2790602401602060405180830381865afa158015610ef5573d6000803e3d6000fd5b505050506040513d601f19601f82011682018060405250810190610f1991906136cd565b610f555760405162461bcd60e51b815260206004820152600d60248201526c24b73b30b634b21027bbb732b960991b6044820152606401610961565b6003546040516307612f9160e21b81523360048201526000916001600160a01b031690631d84be44906024016020604051808303816000875af1158015610fa0573d6000803e3d6000fd5b505050506040513d601f19601f82011682018060405250810190610fc49190613955565b9050610ff76040805160a08101825260008082526020820181905291810182905260608101829052608081019190915290565b60016020820181905282900361100f57600160408201525b8160020361101f57600160608201525b8160030361102f57600160808201525b6001600160a01b03909316808452600b80546020860151604087015160608801516080909801511515600160b81b0260ff60b81b19981515600160b01b0260ff60b01b19921515600160a81b029290921661ffff60a81b19931515600160a01b026001600160a81b03199095169096179390931791909116939093179290921794909416179092555050565b600c81815481106110cb57600080fd5b906000526020600020016000915090508054610a0d9061374c565b606081518351146111175781518351604051635b05999160e01b815260048101929092526024820152604401610961565b6000835167ffffffffffffffff81111561113357611133612fa8565b60405190808252806020026020018201604052801561115c578160200160208202803683370190505b50905060005b84518110156111b35760208082028601015161118690602080840287010151610856565b82828151811061119857611198613859565b60209081029190910101526111ac8161396e565b9050611162565b509392505050565b6060600c82815481106111d0576111d0613859565b9060005260206000200180546111e59061374c565b80601f01602080910402602001604051908101604052809291908181526020018280546112119061374c565b801561125e5780601f106112335761010080835404028352916020019161125e565b820191906000526020600020905b81548152906001019060200180831161124157829003601f168201915b50505050509050919050565b600e8054610a0d9061374c565b6003546040516319c0642960e01b81523360048201819052916001600160a01b0316906319c0642990602401602060405180830381865afa1580156112c0573d6000803e3d6000fd5b505050506040513d601f19601f820116820180604052508101906112e491906136cd565b6113005760405162461bcd60e51b815260040161096190613721565b50601855565b601654156113475760405162461bcd60e51b815260206004820152600e60248201526d185b1c9958591e481b5a5b9d195960921b6044820152606401610961565b61142a600380546001600160a01b03199081167360c95eb879eec03a0af4528a16f192e61a198f401790915560048054821673f134e58248ab8380e911d36c21e1015e5e84814117905560058054821673c0cee8b561cc4f60869776ca5b0b7a295e04f5af17905560068054821673d03060e8ed7754aeed63e4e56b0457662d8164aa17905560078054821673648565deb50c503ef59860d92942eaece0c3e17217905560088054821673a6275eb780ca9eff45d64bad4936d168f51d788017905560098054909116736c96f2d0c9a8b7fb472a319b1ecf7e8626c7b2ba179055565b600a80546001600160a01b0319166001600160a01b03851617905561144e866123a1565b600e61145a87826139cd565b50600f61146788826139cd565b50600c80546001810182556000919091527fdf6966c971051c3d54ec59162606531493a51404a002842f56009d7e5cf4a8c7016114a486826139cd565b50600d80546001810182556000919091527fd7b6990105719101dabeb77144f2a3385c8033acd3af97e9423a695e81ad1eb501849055601480546001600160a01b0319166001600160a01b0385811691909117909155601583905560188290556005546040805163262a9dff60e01b81529051919092169163262a9dff9160048083019260209291908290030181865afa158015611546573d6000803e3d6000fd5b505050506040513d601f19601f8201168201806040525081019061156a9190613955565b6016819055506115a983600d60008154811061158857611588613859565b906000526020600020015484604051806020016040528060008152506124ad565b50505050505050565b601360205281600052604060002081815481106115ce57600080fd5b6000918252602090912001546001600160a01b03169150829050565b6109fc33838361250a565b600354604051637df73e2760e01b81523360048201819052916001600160a01b031690637df73e2790602401602060405180830381865afa15801561163e573d6000803e3d6000fd5b505050506040513d601f19601f8201168201806040525081019061166291906136cd565b61169e5760405162461bcd60e51b815260206004820152600d60248201526c24b73b30b634b21027bbb732b960991b6044820152606401610961565b81156118eb576003546040516307612f9160e21b81523360048201526000916001600160a01b031690631d84be44906024016020604051808303816000875af11580156116ef573d6000803e3d6000fd5b505050506040513d601f19601f820116820180604052508101906117139190613955565b600b54909150600160a01b900460ff16801561172f5750806001145b80156117485750600b546001600160a01b038581169116145b1561176157600b805460ff60a81b1916600160a81b1790555b600b54600160a01b900460ff16801561177a5750806002145b80156117935750600b546001600160a01b038581169116145b156117ac57600b805460ff60b01b1916600160b01b1790555b600b54600160a01b900460ff1680156117c55750806003145b80156117de5750600b546001600160a01b038581169116145b156117f757600b805460ff60b81b1916600160b81b1790555b600b54600090600160a81b900460ff161561181a57806118168161396e565b9150505b600b54600160b01b900460ff161561183a57806118368161396e565b9150505b600b54600160b81b900460ff161561185a57806118568161396e565b9150505b600b54600160a01b900460ff1680156118735750806002145b801561188c5750600b546001600160a01b038681169116145b156118e457600a80546001600160a01b0319166001600160a01b0387161790556040805160a0810182526000808252602082018190529181018290526060810182905260800152600b80546001600160c01b03191690555b5050505050565b6040805160a0810182526000808252602082018190529181018290526060810182905260800152600b80546001600160c01b03191690555b505050565b6003546040516319c0642960e01b81523360048201819052916001600160a01b0316906319c0642990602401602060405180830381865afa158015611971573d6000803e3d6000fd5b505050506040513d601f19601f8201168201806040525081019061199591906136cd565b6119b15760405162461bcd60e51b815260040161096190613721565b60005b82518110156119235760108382815181106119d1576119d1613859565b60200260200101516040516119e69190613a8d565b908152602001604051809103902054600014611a335760405162461bcd60e51b815260206004820152600c60248201526b1d1bdad95b8819985a5b195960a21b6044820152606401610961565b600d8054611a42906001613833565b81546001810183556000928352602090922090910155600d548351601090859084908110611a7257611a72613859565b6020026020010151604051611a879190613a8d565b908152602001604051809103902081905550828181518110611aab57611aab613859565b602002602001015160116000600d8054905081526020019081526020016000209081611ad791906139cd565b50600c838281518110611aec57611aec613859565b60209081029190910181015182546001810184556000938452919092200190611b1590826139cd565b5080611b208161396e565b9150506119b4565b600360009054906101000a90046001600160a01b03166001600160a01b0316636a276f9d6040518163ffffffff1660e01b8152600401602060405180830381865afa158015611b7b573d6000803e3d6000fd5b505050506040513d601f19601f82011682018060405250810190611b9f91906136cd565b611bbb5760405162461bcd60e51b8152600401610961906136ea565b6003546040516319c0642960e01b81523360048201819052916001600160a01b0316906319c0642990602401602060405180830381865afa158015611c04573d6000803e3d6000fd5b505050506040513d601f19601f82011682018060405250810190611c2891906136cd565b611c445760405162461bcd60e51b815260040161096190613721565b50600380546001600160a01b03199081166001600160a01b03978816179091556004805482169587169590951790945560058054851693861693909317909255600980548416918516919091179055600780549092169216919091179055565b6003546040516319c0642960e01b81523260048201819052916001600160a01b0316906319c0642990602401602060405180830381865afa158015611ced573d6000803e3d6000fd5b505050506040513d601f19601f82011682018060405250810190611d1191906136cd565b611d2d5760405162461bcd60e51b815260040161096190613721565b60405160009083156108fc0290849083818181858288f19350505050158015611923573d6000803e3d6000fd5b600354604051633f978d1f60e11b81526001600160a01b0383811660048301526000921690637f2f1a3e90602401602060405180830381865afa158015611da5573d6000803e3d6000fd5b505050506040513d601f19601f8201168201806040525081019061087891906136cd565b6000600460009054906101000a90046001600160a01b03166001600160a01b031663fc0e74d16040518163ffffffff1660e01b8152600401602060405180830381865afa158015611e1e573d6000803e3d6000fd5b505050506040513d601f19601f82011682018060405250810190611e4291906136cd565b15611e4e575060155490565b6005546040805163262a9dff60e01b815290516000926001600160a01b03169163262a9dff9160048083019260209291908290030181865afa158015611e98573d6000803e3d6000fd5b505050506040513d601f19601f82011682018060405250810190611ebc9190613955565b6004805460408051630b41d20760e31b81529051939450600093849384936001600160a01b031692635a0e903892818301926060928290030181865afa158015611f0a573d6000803e3d6000fd5b505050506040513d601f19601f82011682018060405250810190611f2e9190613aa9565b9250925092508060165485611f439190613846565b611f4d9190613ad7565b611f58836064613af9565b84601554670de0b6b3a7640000611f6f9190613af9565b611f799190613af9565b611f839190613ad7565b611f8d9190613af9565b9450600460009054906101000a90046001600160a01b03166001600160a01b031663b85f1f8d6040518163ffffffff1660e01b8152600401606060405180830381865afa158015611fe2573d6000803e3d6000fd5b505050506040513d601f19601f820116820180604052508101906120069190613aa9565b6016549295509093509150819061201d9086613846565b6120279190613ad7565b612032836064613af9565b84601554670de0b6b3a76400006120499190613af9565b6120539190613af9565b61205d9190613ad7565b6120679190613af9565b6120719086613833565b9450612085670de0b6b3a764000086613ad7565b94506015548511612096578461209a565b6015545b94505050505090565b6003546040516319c0642960e01b81523360048201819052916001600160a01b0316906319c0642990602401602060405180830381865afa1580156120ec573d6000803e3d6000fd5b505050506040513d601f19601f8201168201806040525081019061211091906136cd565b61212c5760405162461bcd60e51b815260040161096190613721565b50601955565b606061213d826125a0565b604051602001610aac9190613b10565b6001600160a01b03918216600090815260016020908152604080832093909416825291909152205460ff1690565b336001600160a01b038616811480159061219c575061219a868261214d565b155b156121cd5760405163711bec9160e11b81526001600160a01b03808316600483015287166024820152604401610961565b610e0186868686866125ce565b600360009054906101000a90046001600160a01b03166001600160a01b0316636a276f9d6040518163ffffffff1660e01b8152600401602060405180830381865afa15801561222d573d6000803e3d6000fd5b505050506040513d601f19601f8201168201806040525081019061225191906136cd565b61226d5760405162461bcd60e51b8152600401610961906136ea565b60405162461bcd60e51b815260206004820152600660248201526519985a5b195960d21b6044820152606401610961565b6003546040516319c0642960e01b81523360048201819052916001600160a01b0316906319c0642990602401602060405180830381865afa1580156122e7573d6000803e3d6000fd5b505050506040513d601f19601f8201168201806040525081019061230b91906136cd565b806123235750600a546001600160a01b038281169116145b61236f5760405162461bcd60e51b815260206004820152601860248201527f496e76616c6964204f776e65724f72536166654f776e657200000000000000006044820152606401610961565b61237a848484612653565b50505050565b600d818154811061239057600080fd5b600091825260209091200154905081565b60026109fc82826139cd565b606060006123ba836126bb565b600101905060008167ffffffffffffffff8111156123da576123da612fa8565b6040519080825280601f01601f191660200182016040528015612404576020820181803683370190505b5090508181016020015b600019016f181899199a1a9b1b9c1cb0b131b232b360811b600a86061a8153600a850494508461240e57509392505050565b6000610878826000612793565b6001600160a01b03841661247757604051632bfa23e760e11b815260006004820152602401610961565b6001600160a01b0385166124a057604051626a0d4560e21b815260006004820152602401610961565b6118e48585858585612829565b6001600160a01b0384166124d757604051632bfa23e760e11b815260006004820152602401610961565b60408051600180825260208201869052818301908152606082018590526080820190925290610e01600087848487612829565b6001600160a01b0382166125335760405162ced3e160e81b815260006004820152602401610961565b6001600160a01b03838116600081815260016020908152604080832094871680845294825291829020805460ff191686151590811790915591519182527f17307eab39ab6107e8899845ad3d59bd9653f200f220920489ca2b5937696c31910160405180910390a3505050565b6060816001600160a01b0316803b806020016040519081016040528181526000908060200190933c92915050565b6001600160a01b0384166125f857604051632bfa23e760e11b815260006004820152602401610961565b6001600160a01b03851661262157604051626a0d4560e21b815260006004820152602401610961565b604080516001808252602082018690528183019081526060820185905260808201909252906115a98787848487612829565b6001600160a01b03831661267c57604051626a0d4560e21b815260006004820152602401610961565b604080516001808252602082018590528183019081526060820184905260a082019092526000608082018181529192916118e491879185908590612829565b60008072184f03e93ff9f4daa797ed6e38ed64bf6a1f0160401b83106126fa5772184f03e93ff9f4daa797ed6e38ed64bf6a1f0160401b830492506040015b6d04ee2d6d415b85acef81000000008310612726576d04ee2d6d415b85acef8100000000830492506020015b662386f26fc10000831061274457662386f26fc10000830492506010015b6305f5e100831061275c576305f5e100830492506008015b612710831061277057612710830492506004015b60648310612782576064830492506002015b600a83106108785760010192915050565b6000814710156127bf5760405163cf47918160e01b815247600482015260248101839052604401610961565b763d602d80600a3d3981f3363d3d373d3d3d363d730000008360601b60e81c176000526e5af43d82803e903d91602b57fd5bf38360781b176020526037600983f090506001600160a01b0381166108785760405163b06ebf3d60e01b815260040160405180910390fd5b6128358585858561287c565b6001600160a01b038416156118e4578251339060010361286e5760208481015190840151612867838989858589612b00565b5050610e01565b610e01818787878787612c24565b60018160008151811061289157612891613859565b602002602001015110156128d25760405162461bcd60e51b81526020600482015260086024820152676c6573732071747960c01b6044820152606401610961565b6001600160a01b038416158015906128f257506001600160a01b03831615155b80156129015750601754601554115b15612af4576005546040516345145fd760e01b81526001600160a01b03868116600483015260009216906345145fd790602401602060405180830381865afa158015612951573d6000803e3d6000fd5b505050506040513d601f19601f820116820180604052508101906129759190613b9f565b90506001600160a01b0381161580159061299c57506014546001600160a01b038681169116145b15612af25760055460405163cf35916560e01b81526001600160a01b0383811660048301529091169063cf35916590602401602060405180830381865afa1580156129eb573d6000803e3d6000fd5b505050506040513d601f19601f82011682018060405250810190612a0f91906136cd565b15612a475760405162461bcd60e51b8152602060048201526008602482015267696e61637469766560c01b6044820152606401610961565b6000612a51611dc9565b9050600081118015612a8a575082600081518110612a7157612a71613859565b602002602001015160175482612a879190613846565b10155b612abf5760405162461bcd60e51b81526020600482015260066024820152651b1bd8dad95960d21b6044820152606401610961565b82600081518110612ad257612ad2613859565b602002602001015160176000828254612aeb9190613833565b9091555050505b505b61237a84848484612d0d565b6001600160a01b0384163b15610e015760405163f23a6e6160e01b81526001600160a01b0385169063f23a6e6190612b449089908990889088908890600401613bbc565b6020604051808303816000875af1925050508015612b7f575060408051601f3d908101601f19168201909252612b7c91810190613c01565b60015b612be8573d808015612bad576040519150601f19603f3d011682016040523d82523d6000602084013e612bb2565b606091505b508051600003612be057604051632bfa23e760e11b81526001600160a01b0386166004820152602401610961565b805160208201fd5b6001600160e01b0319811663f23a6e6160e01b146115a957604051632bfa23e760e11b81526001600160a01b0386166004820152602401610961565b6001600160a01b0384163b15610e015760405163bc197c8160e01b81526001600160a01b0385169063bc197c8190612c689089908990889088908890600401613c1e565b6020604051808303816000875af1925050508015612ca3575060408051601f3d908101601f19168201909252612ca091810190613c01565b60015b612cd1573d808015612bad576040519150601f19603f3d011682016040523d82523d6000602084013e612bb2565b6001600160e01b0319811663bc197c8160e01b146115a957604051632bfa23e760e11b81526001600160a01b0386166004820152602401610961565b8051825114612d3c5781518151604051635b05999160e01b815260048101929092526024820152604401610961565b3360005b8351811015612e4b576020818102858101820151908501909101516001600160a01b03881615612df3576000828152602081815260408083206001600160a01b038c16845290915290205481811015612dcc576040516303dee4c560e01b81526001600160a01b038a166004820152602481018290526044810183905260648101849052608401610961565b6000838152602081815260408083206001600160a01b038d16845290915290209082900390555b6001600160a01b03871615612e38576000828152602081815260408083206001600160a01b038b16845290915281208054839290612e32908490613833565b90915550505b505080612e449061396e565b9050612d40565b508251600103612ecc5760208301516000906020840151909150856001600160a01b0316876001600160a01b0316846001600160a01b03167fc3d58168c5ae7397731d063d5bbf3d657854427343f4c083240f7aacaa2d0f628585604051612ebd929190918252602082015260400190565b60405180910390a450506118e4565b836001600160a01b0316856001600160a01b0316826001600160a01b03167f4a39dc06d4c0dbc64b70af90fd698a233a518aa5d07e595d983b8c0526c8f7fb8686604051612f1b929190613c7c565b60405180910390a45050505050565b6001600160a01b0381168114612f3f57600080fd5b50565b60008060408385031215612f5557600080fd5b8235612f6081612f2a565b946020939093013593505050565b6001600160e01b031981168114612f3f57600080fd5b600060208284031215612f9657600080fd5b8135612fa181612f6e565b9392505050565b634e487b7160e01b600052604160045260246000fd5b604051601f8201601f1916810167ffffffffffffffff81118282101715612fe757612fe7612fa8565b604052919050565b600082601f83011261300057600080fd5b813567ffffffffffffffff81111561301a5761301a612fa8565b61302d601f8201601f1916602001612fbe565b81815284602083860101111561304257600080fd5b816020850160208301376000918101602001919091529392505050565b60006020828403121561307157600080fd5b813567ffffffffffffffff81111561308857600080fd5b61309484828501612fef565b949350505050565b60005b838110156130b757818101518382015260200161309f565b50506000910152565b600081518084526130d881602086016020860161309c565b601f01601f19169290920160200192915050565b602081526000612fa160208301846130c0565b60006020828403121561311157600080fd5b5035919050565b6000806000806080858703121561312e57600080fd5b843561313981612f2a565b966020860135965060408601359560600135945092505050565b600067ffffffffffffffff82111561316d5761316d612fa8565b5060051b60200190565b600082601f83011261318857600080fd5b8135602061319d61319883613153565b612fbe565b82815260059290921b840181019181810190868411156131bc57600080fd5b8286015b848110156131d757803583529183019183016131c0565b509695505050505050565b600080600080600060a086880312156131fa57600080fd5b853561320581612f2a565b9450602086013561321581612f2a565b9350604086013567ffffffffffffffff8082111561323257600080fd5b61323e89838a01613177565b9450606088013591508082111561325457600080fd5b61326089838a01613177565b9350608088013591508082111561327657600080fd5b5061328388828901612fef565b9150509295509295909350565b6000602082840312156132a257600080fd5b8135612fa181612f2a565b600080604083850312156132c057600080fd5b823567ffffffffffffffff808211156132d857600080fd5b818501915085601f8301126132ec57600080fd5b813560206132fc61319883613153565b82815260059290921b8401810191818101908984111561331b57600080fd5b948201945b8386101561334257853561333381612f2a565b82529482019490820190613320565b9650508601359250508082111561335857600080fd5b5061336585828601613177565b9150509250929050565b600081518084526020808501945080840160005b8381101561339f57815187529582019590820190600101613383565b509495945050505050565b602081526000612fa1602083018461336f565b600080600080600080600060e0888a0312156133d857600080fd5b873567ffffffffffffffff808211156133f057600080fd5b6133fc8b838c01612fef565b985060208a013591508082111561341257600080fd5b61341e8b838c01612fef565b975060408a013591508082111561343457600080fd5b506134418a828b01612fef565b95505060608801359350608088013561345981612f2a565b9699959850939692959460a0840135945060c09093013592915050565b6000806040838503121561348957600080fd5b50508035926020909101359150565b8015158114612f3f57600080fd5b600080604083850312156134b957600080fd5b82356134c481612f2a565b915060208301356134d481613498565b809150509250929050565b600060208083850312156134f257600080fd5b823567ffffffffffffffff8082111561350a57600080fd5b818501915085601f83011261351e57600080fd5b813561352c61319882613153565b81815260059190911b8301840190848101908883111561354b57600080fd5b8585015b83811015613583578035858111156135675760008081fd5b6135758b89838a0101612fef565b84525091860191860161354f565b5098975050505050505050565b600080600080600060a086880312156135a857600080fd5b85356135b381612f2a565b945060208601356135c381612f2a565b935060408601356135d381612f2a565b925060608601356135e381612f2a565b915060808601356135f381612f2a565b809150509295509295909350565b6000806040838503121561361457600080fd5b823561361f81612f2a565b915060208301356134d481612f2a565b600080600080600060a0868803121561364757600080fd5b853561365281612f2a565b9450602086013561366281612f2a565b93506040860135925060608601359150608086013567ffffffffffffffff81111561368c57600080fd5b61328388828901612fef565b6000806000606084860312156136ad57600080fd5b83356136b881612f2a565b95602085013595506040909401359392505050565b6000602082840312156136df57600080fd5b8151612fa181613498565b6020808252601a908201527f496e76616c6964205361666567756172642e6973536166652829000000000000604082015260600190565b60208082526011908201527024b73b30b634b21029b0b332a7bbb732b960791b604082015260600190565b600181811c9082168061376057607f821691505b60208210810361378057634e487b7160e01b600052602260045260246000fd5b50919050565b60008084546137948161374c565b600182811680156137ac57600181146137c1576137f0565b60ff19841687528215158302870194506137f0565b8860005260208060002060005b858110156137e75781548a8201529084019082016137ce565b50505082870194505b50505050835161380481836020880161309c565b64173539b7b760d91b9101908152600501949350505050565b634e487b7160e01b600052601160045260246000fd5b808201808211156108785761087861381d565b818103818111156108785761087861381d565b634e487b7160e01b600052603260045260246000fd5b6000815461387c8161374c565b80855260206001838116801561389957600181146138b3576138e1565b60ff1985168884015283151560051b8801830195506138e1565b866000528260002060005b858110156138d95781548a82018601529083019084016138be565b890184019650505b505050505092915050565b60e0815260006138ff60e083018a61386f565b8281036020840152613911818a61386f565b90508281036040840152613925818961386f565b606084019790975250506001600160a01b0393909316608084015260a083019190915260c0909101529392505050565b60006020828403121561396757600080fd5b5051919050565b6000600182016139805761398061381d565b5060010190565b601f82111561192357600081815260208120601f850160051c810160208610156139ae5750805b601f850160051c820191505b81811015610e01578281556001016139ba565b815167ffffffffffffffff8111156139e7576139e7612fa8565b6139fb816139f5845461374c565b84613987565b602080601f831160018114613a305760008415613a185750858301515b600019600386901b1c1916600185901b178555610e01565b600085815260208120601f198616915b82811015613a5f57888601518255948401946001909101908401613a40565b5085821015613a7d5787850151600019600388901b60f8161c191681555b5050505050600190811b01905550565b60008251613a9f81846020870161309c565b9190910192915050565b600080600060608486031215613abe57600080fd5b8351925060208401519150604084015190509250925092565b600082613af457634e487b7160e01b600052601260045260246000fd5b500490565b80820281158282048414176108785761087861381d565b60008251613b2281846020870161309c565b730468e8dc225c4746454419c9dcccb59a581434b160631b92019182525073d416952dc46fce2775e90571d46a79565d04cb2560601b602082015273094c37fb9b5b2065409a5c7cb9bff71c4d49bf4160601b604082015273fe69687ce9c746c10e1c2af1e3f5d1475df4300f60601b6060820152607401919050565b600060208284031215613bb157600080fd5b8151612fa181612f2a565b6001600160a01b03868116825285166020820152604081018490526060810183905260a060808201819052600090613bf6908301846130c0565b979650505050505050565b600060208284031215613c1357600080fd5b8151612fa181612f6e565b6001600160a01b0386811682528516602082015260a060408201819052600090613c4a9083018661336f565b8281036060840152613c5c818661336f565b90508281036080840152613c7081856130c0565b98975050505050505050565b604081526000613c8f604083018561336f565b8281036020840152613ca1818561336f565b9594505050505056fea2646970667358221220f09b6e7a986e1d9a3f51abc8af4a657f1901ca53262e42b2cfb237e47fa063ca64736f6c63430008140033","linkReferences":{}},"methodIdentifiers":{"Burn(uint256)":"b90306ad","Init(address,uint256,uint256,uint256)":"238a4480","PostInit(string,string,string,uint256,address,uint256,uint256)":"8d8a761f","_getUnlockedNFT()":"d3660623","_setOwner(address,bool)":"abb8c965","_setReq(address)":"41ffe7c4","addToken(string[])":"abbbf8d7","at(address)":"dce4a447","balanceOf(address,uint256)":"00fdd58e","balanceOfBatch(address[],uint256[])":"4e1273f4","baseMetadataURI()":"5b2bd79e","burn(address,uint256,uint256)":"f5298aca","claimed()":"e834a834","cloned(uint256,uint256)":"92b31d87","curSupply()":"5fac2d9d","getBalance()":"12065fe0","getCloneCountByToken(uint256)":"1f5ae5f3","getNames(uint256)":"5718e17b","getTokenCount()":"78a89567","idToName(uint256)":"364410b3","ids(uint256)":"fac333ac","isAccountSafeOwner(address)":"c3bd18c3","isApprovedForAll(address,address)":"e985e9c5","isOwnerOrSafeOwner(address)":"379a423c","isclone(address)":"57e0e465","mintAmt()":"d92f24ae","mintedAge()":"f9ffedb7","mintedUser()":"fcf56368","mintedqty()":"6c51797b","name()":"06fdde03","nameToId(string)":"f6d8f2cb","names(uint256)":"4622ab03","owner()":"8da5cb5b","req()":"0d43aaf2","safeBatchTransferFrom(address,address,uint256[],uint256[],bytes)":"2eb2c2d6","safeTransferFrom(address,address,uint256,uint256,bytes)":"f242432a","setApprovalForAll(address,bool)":"a22cb465","setFeeAmt(uint256)":"6589c252","setParam(address,address,address,address,address)":"b0751823","setURI(string)":"02fe5305","setsupply(uint256)":"d878fe10","supportsInterface(bytes4)":"01ffc9a7","totSupply()":"81fbf0a5","uri(uint256)":"0e89341c","withdraw(address,uint256)":"f3fef3a3"},"id":22}