{"abi":[{"type":"constructor","inputs":[{"name":"_hex","type":"address","internalType":"address"}],"stateMutability":"nonpayable"},{"type":"fallback","stateMutability":"payable"},{"type":"receive","stateMutability":"payable"},{"type":"function","name":"Burn","inputs":[{"name":"amount","type":"uint256","internalType":"uint256"}],"outputs":[],"stateMutability":"nonpayable"},{"type":"function","name":"UserToId","inputs":[{"name":"","type":"address","internalType":"address"}],"outputs":[{"name":"","type":"uint256","internalType":"uint256"}],"stateMutability":"view"},{"type":"function","name":"UserToInst","inputs":[{"name":"","type":"address","internalType":"address"}],"outputs":[{"name":"","type":"address","internalType":"address"}],"stateMutability":"view"},{"type":"function","name":"_delegatorCount","inputs":[],"outputs":[{"name":"","type":"uint256","internalType":"uint256"}],"stateMutability":"view"},{"type":"function","name":"_getImplementation","inputs":[{"name":"clone","type":"address","internalType":"address"}],"outputs":[{"name":"impl","type":"address","internalType":"address"}],"stateMutability":"view"},{"type":"function","name":"_isDelegatorNode","inputs":[{"name":"sender","type":"address","internalType":"address"}],"outputs":[{"name":"","type":"bool","internalType":"bool"}],"stateMutability":"view"},{"type":"function","name":"_isSafe","inputs":[],"outputs":[{"name":"","type":"bool","internalType":"bool"}],"stateMutability":"view"},{"type":"function","name":"_isSecureBase","inputs":[{"name":"sender","type":"address","internalType":"address"}],"outputs":[{"name":"","type":"bool","internalType":"bool"}],"stateMutability":"view"},{"type":"function","name":"_isSigner","inputs":[{"name":"sender","type":"address","internalType":"address"}],"outputs":[{"name":"","type":"bool","internalType":"bool"}],"stateMutability":"view"},{"type":"function","name":"_nested","inputs":[{"name":"parent","type":"address","internalType":"address"},{"name":"uinst","type":"address","internalType":"address"},{"name":"user","type":"address","internalType":"address"},{"name":"_cage","type":"uint256","internalType":"uint256"}],"outputs":[{"name":"_uid","type":"uint256","internalType":"uint256"}],"stateMutability":"nonpayable"},{"type":"function","name":"_updateUsers","inputs":[{"name":"to","type":"address","internalType":"address"}],"outputs":[],"stateMutability":"nonpayable"},{"type":"function","name":"addLvlIncome","inputs":[{"name":"_id","type":"uint256","internalType":"uint256"},{"name":"_amount","type":"uint256","internalType":"uint256"},{"name":"_yeildlevel","type":"uint256","internalType":"uint256"},{"name":"_qty","type":"uint256","internalType":"uint256"}],"outputs":[],"stateMutability":"nonpayable"},{"type":"function","name":"getBalance","inputs":[],"outputs":[{"name":"","type":"uint256","internalType":"uint256"}],"stateMutability":"view"},{"type":"function","name":"getNode","inputs":[{"name":"_id","type":"uint256","internalType":"uint256"}],"outputs":[{"name":"i","type":"uint256","internalType":"uint256"},{"name":"pid","type":"uint256","internalType":"uint256"},{"name":"cage","type":"uint256","internalType":"uint256"},{"name":"active","type":"bool","internalType":"bool"}],"stateMutability":"view"},{"type":"function","name":"getNodeChild","inputs":[{"name":"_id","type":"uint256","internalType":"uint256"},{"name":"inx","type":"uint256","internalType":"uint256"}],"outputs":[{"name":"child","type":"uint256","internalType":"uint256"}],"stateMutability":"view"},{"type":"function","name":"getNodeDirectsCount","inputs":[{"name":"_id","type":"uint256","internalType":"uint256"}],"outputs":[{"name":"count","type":"uint256","internalType":"uint256"}],"stateMutability":"view"},{"type":"function","name":"getNodeParent","inputs":[{"name":"_id","type":"uint256","internalType":"uint256"}],"outputs":[{"name":"","type":"uint256","internalType":"uint256"}],"stateMutability":"view"},{"type":"function","name":"getNodesCount","inputs":[],"outputs":[{"name":"nodesCount","type":"uint256","internalType":"uint256"}],"stateMutability":"view"},{"type":"function","name":"getrankCount","inputs":[{"name":"rnk","type":"uint256","internalType":"uint256"}],"outputs":[{"name":"count","type":"uint256","internalType":"uint256"}],"stateMutability":"view"},{"type":"function","name":"isDaoSafe","inputs":[],"outputs":[{"name":"","type":"bool","internalType":"bool"}],"stateMutability":"view"},{"type":"function","name":"isNode","inputs":[{"name":"_id","type":"uint256","internalType":"uint256"}],"outputs":[{"name":"","type":"bool","internalType":"bool"}],"stateMutability":"view"},{"type":"function","name":"isNodeStopped","inputs":[{"name":"sender","type":"address","internalType":"address"}],"outputs":[{"name":"","type":"bool","internalType":"bool"}],"stateMutability":"view"},{"type":"function","name":"isUserExists","inputs":[{"name":"node","type":"address","internalType":"address"}],"outputs":[{"name":"","type":"bool","internalType":"bool"}],"stateMutability":"view"},{"type":"function","name":"nodes","inputs":[{"name":"","type":"uint256","internalType":"uint256"}],"outputs":[{"name":"","type":"address","internalType":"address"}],"stateMutability":"view"},{"type":"function","name":"owner","inputs":[],"outputs":[{"name":"","type":"address","internalType":"address"}],"stateMutability":"view"},{"type":"function","name":"systemAge","inputs":[],"outputs":[{"name":"","type":"uint256","internalType":"uint256"}],"stateMutability":"view"}],"bytecode":{"object":"0x60806040523462000037576200001e6200001862000110565b62000136565b620000286200003d565b613499620002ab823961349990f35b62000043565b60405190565b5f80fd5b601f801991011690565b634e487b7160e01b5f52604160045260245ffd5b90620000719062000047565b810190811060018060401b038211176200008a57604052565b62000051565b90620000a76200009f6200003d565b928362000065565b565b5f80fd5b60018060a01b031690565b620000c390620000ad565b90565b620000d181620000b8565b03620000d957565b5f80fd5b90505190620000ec82620000c6565b565b906020828203126200010a5762000107915f01620000dd565b90565b620000a9565b620001336200374480380380620001278162000090565b928339810190620000ee565b90565b620001419062000271565b565b90565b90565b620001626200015c620001689262000143565b62000146565b620000ad565b90565b620001769062000149565b90565b5f1b90565b906200019160018060a01b039162000179565b9181191691161790565b620001b4620001ae620001ba92620000ad565b62000146565b620000ad565b90565b620001c8906200019b565b90565b620001d690620001bd565b90565b90565b90620001f6620001f0620001fe92620001cb565b620001d9565b82546200017e565b9055565b6200020d906200019b565b90565b6200021b9062000202565b90565b62000229906200019b565b90565b62000237906200021e565b90565b62000245906200021e565b90565b90565b90620002656200025f6200026d926200023a565b62000248565b82546200017e565b9055565b620002a16200029b620002a892620002956200028d5f6200016b565b6001620001dc565b62000210565b6200022c565b5f6200024b565b56fe60806040526004361015610018575b361561001657005b005b6100225f356101c1565b806312065fe0146101bc578063175724f6146101b75780631c53c280146101b25780631f185d16146101ad578063419cb27b146101a857806342a78b15146101a357806342cc9d571461019e57806345145fd71461019957806345ac4bc6146101945780634f0f4aa91461018f578063509222cd1461018a57806351bfd3ae146101855780635c1a494a146101805780635c1d48b91461017b57806361ea720814610176578063629d671e146101715780638954eb7a1461016c578063896c354a146101675780638da5cb5b14610162578063a1f7f5391461015d578063af48452614610158578063b90306ad14610153578063c54e44b01461014e578063e01ad5fd14610149578063e0a9bc2b146101445763fdc10bc90361000e57610a59565b610a24565b6109ef565b6109ba565b610987565b610952565b61091d565b6108e8565b6108b2565b610850565b61081b565b61078e565b61075b565b610726565b6106f1565b6106bc565b610683565b61060c565b610591565b6104f9565b6104c2565b610442565b61040d565b610370565b61027f565b610209565b60e01c90565b60405190565b5f80fd5b5f80fd5b5f9103126101df57565b6101d1565b90565b6101f0906101e4565b9052565b9190610207905f602085019401906101e7565b565b34610239576102193660046101d5565b610235610224610a9e565b61022c6101c7565b918291826101f4565b0390f35b6101cd565b610247816101e4565b0361024e57565b5f80fd5b9050359061025f8261023e565b565b9060208282031261027a57610277915f01610252565b90565b6101d1565b346102af576102ab61029a610295366004610261565b610af0565b6102a26101c7565b918291826101f4565b0390f35b6101cd565b90565b6102cb6102c66102d0926101e4565b6102b4565b6101e4565b90565b906102dd906102b7565b5f5260205260405f2090565b1c90565b60018060a01b031690565b61030890600861030d93026102e9565b6102ed565b90565b9061031b91546102f8565b90565b6103349061032f6004915f926102d3565b610310565b90565b60018060a01b031690565b61034b90610337565b90565b61035790610342565b9052565b919061036e905f6020850194019061034e565b565b346103a05761039c61038b610386366004610261565b61031e565b6103936101c7565b9182918261035b565b0390f35b6101cd565b6103ae81610342565b036103b557565b5f80fd5b905035906103c6826103a5565b565b906020828203126103e1576103de915f016103b9565b90565b6101d1565b151590565b6103f4906103e6565b9052565b919061040b905f602085019401906103eb565b565b3461043d576104396104286104233660046103c8565b610c72565b6104306101c7565b918291826103f8565b0390f35b6101cd565b346104725761046e61045d610458366004610261565b610d69565b6104656101c7565b918291826103f8565b0390f35b6101cd565b6080818303126104b85761048d825f8301610252565b926104b561049e8460208501610252565b936104ac8160408601610252565b93606001610252565b90565b6101d1565b5f0190565b346104f4576104de6104d5366004610477565b92919091611010565b6104e66101c7565b806104f0816104bd565b0390f35b6101cd565b346105295761052561051461050f366004610261565b611022565b61051c6101c7565b918291826101f4565b0390f35b6101cd565b61054261053d61054792610337565b6102b4565b610337565b90565b6105539061052e565b90565b61055f9061054a565b90565b9061056c90610556565b5f5260205260405f2090565b61058e906105896002915f92610562565b610310565b90565b346105c1576105bd6105ac6105a73660046103c8565b610578565b6105b46101c7565b9182918261035b565b0390f35b6101cd565b608081830312610607576105dc825f83016103b9565b926106046105ed84602085016103b9565b936105fb81604086016103b9565b93606001610252565b90565b6101d1565b346106405761063c61062b6106223660046105c6565b929190916114b1565b6106336101c7565b918291826101f4565b0390f35b6101cd565b61067a61068194610670606094989795610666608086019a5f8701906101e7565b60208501906101e7565b60408301906101e7565b01906103eb565b565b346106b7576106b361069e610699366004610261565b6114c8565b906106aa9492946101c7565b94859485610645565b0390f35b6101cd565b346106ec576106e86106d76106d23660046103c8565b61154e565b6106df6101c7565b918291826103f8565b0390f35b6101cd565b346107215761071d61070c6107073660046103c8565b6116a4565b6107146101c7565b918291826103f8565b0390f35b6101cd565b34610756576107363660046101d5565b61075261074161185a565b6107496101c7565b918291826103f8565b0390f35b6101cd565b346107895761077361076e3660046103c8565b611c76565b61077b6101c7565b80610785816104bd565b0390f35b6101cd565b346107be5761079e3660046101d5565b6107ba6107a9611c81565b6107b16101c7565b918291826101f4565b0390f35b6101cd565b906107cd90610556565b5f5260205260405f2090565b90565b6107ec9060086107f193026102e9565b6107d9565b90565b906107ff91546107dc565b90565b610818906108136003915f926107c3565b6107f4565b90565b3461084b576108476108366108313660046103c8565b610802565b61083e6101c7565b918291826101f4565b0390f35b6101cd565b346108805761087c61086b610866366004610261565b611cad565b6108736101c7565b918291826101f4565b0390f35b6101cd565b91906040838203126108ad57806108a16108aa925f8601610252565b93602001610252565b90565b6101d1565b346108e3576108df6108ce6108c8366004610885565b90611d11565b6108d66101c7565b918291826101f4565b0390f35b6101cd565b34610918576108f83660046101d5565b610914610903611d62565b61090b6101c7565b9182918261035b565b0390f35b6101cd565b3461094d5761092d3660046101d5565b610949610938611e50565b6109406101c7565b918291826101f4565b0390f35b6101cd565b346109825761097e61096d6109683660046103c8565b61201b565b6109756101c7565b918291826103f8565b0390f35b6101cd565b346109b55761099f61099a366004610261565b612277565b6109a76101c7565b806109b1816104bd565b0390f35b6101cd565b346109ea576109e66109d56109d03660046103c8565b61234d565b6109dd6101c7565b9182918261035b565b0390f35b6101cd565b34610a1f57610a1b610a0a610a053660046103c8565b612433565b610a126101c7565b918291826103f8565b0390f35b6101cd565b34610a5457610a343660046101d5565b610a50610a3f6127c8565b610a476101c7565b918291826103f8565b0390f35b6101cd565b34610a8957610a693660046101d5565b610a85610a746128ba565b610a7c6101c7565b918291826101f4565b0390f35b6101cd565b5f90565b610a9b9061054a565b90565b610aa6610a8e565b50610ab030610a92565b3190565b90610abe906102b7565b5f5260205260405f2090565b5f1c90565b610adb610ae091610aca565b6107d9565b90565b610aed9054610acf565b90565b6002610b09610b0f92610b01610a8e565b506006610ab4565b01610ae3565b90565b5f90565b60018060a01b031690565b610b2d610b3291610aca565b610b16565b90565b610b3f9054610b21565b90565b610b4b9061054a565b90565b601f801991011690565b634e487b7160e01b5f52604160045260245ffd5b90610b7690610b4e565b810190811067ffffffffffffffff821117610b9057604052565b610b58565b60e01b90565b90505190610ba8826103a5565b565b90602082820312610bc357610bc0915f01610b9b565b90565b6101d1565b610bd06101c7565b3d5f823e3d90fd5b90610beb610be46101c7565b9283610b6c565b565b67ffffffffffffffff8111610c0b57610c07602091610b4e565b0190565b610b58565b90610c22610c1d83610bed565b610bd8565b918252565b5f7f69735369676e6572286164647265737329000000000000000000000000000000910152565b610c586011610c10565b90610c6560208301610c27565b565b610c6f610c4e565b90565b610c7a610b12565b50610ca76020610c91610c8c5f610b35565b610b42565b6397f3815a90610c9f6101c7565b938492610b95565b82528180610cb7600482016104bd565b03915afa8015610d3d57610d0692610ce9925f92610d09575b50610cf890610cdd6101c7565b9384916020830161035b565b60208201810382520383610b6c565b610d00610c67565b906129c1565b90565b610cf8919250610d2f9060203d8111610d36575b610d278183610b6c565b810190610baa565b9190610cd0565b503d610d1d565b610bc8565b60ff1690565b610d54610d5991610aca565b610d42565b90565b610d669054610d48565b90565b6001610d82610d8892610d7a610b12565b506006610ab4565b01610d5c565b90565b67ffffffffffffffff8111610da957610da5602091610b4e565b0190565b610b58565b90610dc0610dbb83610d8b565b610bd8565b918252565b90813b5f610dd282610dae565b9360208501903c565b60200190565b5190565b90565b60209181520190565b5f7f6f776e2e756e617574682e696e7374616e636500000000000000000000000000910152565b610e256013602092610de8565b610e2e81610df1565b0190565b610e479060208101905f818303910152610e18565b90565b15610e5157565b610e596101c7565b62461bcd60e51b815280610e6f60048201610e32565b0390fd5b90610ebf939291610e8333610dc5565b610e95610e8f82610de1565b91610ddb565b206020610ea9610ea45f610b35565b610b42565b63e61dfd5890610eb76101c7565b988992610b95565b82528180610ecf600482016104bd565b03915afa908115610f5157610f16610f10610ef8610f1c94610f219a5f91610f23575b50610dc5565b610f0a610f0482610de1565b91610ddb565b20610de5565b91610de5565b14610e4a565b610fd8565b565b610f44915060203d8111610f4a575b610f3c8183610b6c565b810190610baa565b5f610ef2565b503d610f32565b610bc8565b5f7f6e65737465642e757365722e6e6f746163746976650000000000000000000000910152565b610f8a6015602092610de8565b610f9381610f56565b0190565b610fac9060208101905f818303910152610f7d565b90565b15610fb657565b610fbe6101c7565b62461bcd60e51b815280610fd460048201610f97565b0390fd5b916110056002610fff61100e969495610ff8610ff382610d69565b610faf565b6006610ab4565b01610ae3565b92909192612b12565b565b9061101c939291610e73565b565b5490565b600361103b61104192611033610a8e565b506006610ab4565b0161101e565b90565b5f7f6f776e2e696e76616c69642e6973536166650000000000000000000000000000910152565b6110786012602092610de8565b61108181611044565b0190565b61109a9060208101905f81830391015261106b565b90565b156110a457565b6110ac6101c7565b62461bcd60e51b8152806110c260048201611085565b0390fd5b5f7f6f776e2e6e6f6e617574682e44414f6f72536563757265626173650000000000910152565b6110fa601b602092610de8565b611103816110c6565b0190565b61111c9060208101905f8183039101526110ed565b90565b1561112657565b61112e6101c7565b62461bcd60e51b81528061114460048201611107565b0390fd5b9392919061115c6111576127c8565b61109d565b6111653361201b565b948515611181575b61117961117e9661111f565b6113cf565b90565b6111af955060206111996111945f610b35565b610b42565b634162169f906111a76101c7565b988992610b95565b825281806111bf600482016104bd565b03915afa9586156112235761117e96611179915f916111f5575b506111ec6111e633610342565b91610342565b1496505061116d565b611216915060203d811161121c575b61120e8183610b6c565b810190610baa565b5f6111d9565b503d611204565b610bc8565b5f7f6e65737465642e616c72656164792e6578697374730000000000000000000000910152565b61125c6015602092610de8565b61126581611228565b0190565b61127e9060208101905f81830391015261124f565b90565b1561128857565b6112906101c7565b62461bcd60e51b8152806112a660048201611269565b0390fd5b5f1b90565b906112c060018060a01b03916112aa565b9181191691161790565b90565b906112e26112dd6112e992610556565b6112ca565b82546112af565b9055565b634e487b7160e01b5f52601160045260245ffd5b61130a906101e4565b5f1981146113185760010190565b6112ed565b906113295f19916112aa565b9181191691161790565b90565b9061134b611346611352926102b7565b611333565b825461131d565b9055565b90565b61136d61136861137292611356565b6102b4565b6101e4565b90565b90565b61138c61138761139192611375565b6102b4565b6101e4565b90565b9061139e90611378565b5f5260205260405f2090565b6113b96113bf919392936101e4565b926101e4565b82018092116113ca57565b6112ed565b61145d61149a9261140f6114ae96979561146294506113fe6113f96113f38b61154e565b156103e6565b611281565b61140a60028a90610562565b6112cd565b61145661142461141f6005610ae3565b611301565b61142f816005611336565b976114458161144060048c906102d3565b6112cd565b611451899160036107c3565b611336565b60036107c3565b610ae3565b61149361146f6001611359565b61148d61147e60075f90611394565b9161148883610ae3565b6113aa565b90611336565b8490612f7a565b60046114a860068590610ab4565b01611336565b90565b906114c59392916114c0610a8e565b611148565b90565b6114d0610a8e565b506114d9610a8e565b506114e2610a8e565b506114eb610b12565b506115025f6114fc60068490610ab4565b01610ae3565b611519600261151360068590610ab4565b01610ae3565b926115476001611541611539600461153360068990610ab4565b01610ae3565b956006610ab4565b01610d5c565b9193929190565b600161157b6115819261155f610b12565b5061157561157060069260036107c3565b610ae3565b90610ab4565b01610d5c565b90565b5f7f55736572546f496e737428616464726573732900000000000000000000000000910152565b6115b56013610c10565b906115c260208301611584565b565b6115cc6115ab565b90565b6115e36115de6115e892611375565b6102b4565b610337565b90565b6115f4906115cf565b90565b5f7f697353757370656e642829000000000000000000000000000000000000000000910152565b611628600b610c10565b90611635602083016115f7565b565b61163f61161e565b90565b61164b5f610c10565b90565b611656611642565b90565b5f7f69734c6f636b2829000000000000000000000000000000000000000000000000910152565b61168a6008610c10565b9061169760208301611659565b565b6116a1611680565b90565b6116ac610b12565b506116d960206116c36116be5f610b35565b610b42565b63ab6e844f906116d16101c7565b938492610b95565b825281806116e9600482016104bd565b03915afa801561180a576117389261171b925f926117d6575b5061172a9061170f6101c7565b9384916020830161035b565b60208201810382520383610b6c565b6117326115c4565b90613058565b8061175361174d6117485f6115eb565b610342565b91610342565b141561178961177283611764611637565b61176c61164e565b916129c1565b9261177b611699565b61178361164e565b916129c1565b61179382156103e6565b9283156117a1575b50505090565b9091925090816117ce575b5090816117bd575b505f808061179b565b6117c89150156103e6565b5f6117b4565b90505f6117ac565b61172a9192506117fc9060203d8111611803575b6117f48183610b6c565b810190610baa565b9190611702565b503d6117ea565b610bc8565b5f7f64616f7361666561646472657373286164647265737329000000000000000000910152565b6118406017610c10565b9061184d6020830161180f565b565b611857611836565b90565b611862610b12565b5061188f60206118796118745f610b35565b610b42565b634162169f906118876101c7565b938492610b95565b8252818061189f600482016104bd565b03915afa908115611920576118ef916118d2915f916118f2575b506118e1336118c66101c7565b9384916020830161035b565b60208201810382520383610b6c565b6118e961184f565b906129c1565b90565b611913915060203d8111611919575b61190b8183610b6c565b810190610baa565b5f6118b9565b503d611901565b610bc8565b61196e9061193233610dc5565b61194461193e82610de1565b91610ddb565b2060206119586119535f610b35565b610b42565b63e61dfd58906119666101c7565b958692610b95565b8252818061197e600482016104bd565b03915afa908115611a00576119c56119bf6119a76119cb946119d0975f916119d2575b50610dc5565b6119b96119b382610de1565b91610ddb565b20610de5565b91610de5565b14610e4a565b611af4565b565b6119f3915060203d81116119f9575b6119eb8183610b6c565b810190610baa565b5f6119a1565b503d6119e1565b610bc8565b611a0e90611378565b9052565b9190611a25905f60208501940190611a05565b565b5f7f7265736f6c76655472616e736665725461726765742861646472657373290000910152565b611a58601e610c10565b90611a6560208301611a27565b565b611a6f611a4e565b90565b5f7f6e65737465642e7472616e73666572726571756573742e6e756c6c0000000000910152565b611aa6601b602092610de8565b611aaf81611a72565b0190565b611ac89060208101905f818303910152611a99565b90565b15611ad257565b611ada6101c7565b62461bcd60e51b815280611af060048201611ab3565b0390fd5b611b346020611b0a611b055f610b35565b610b42565b63013cf08b90611b295f92611b1d6101c7565b95869485938493610b95565b835260048301611a12565b03915afa908115611c7157611b8491611b67915f91611c43575b50611b7684611b5b6101c7565b9384916020830161035b565b60208201810382520383610b6c565b611b7e611a67565b90613058565b611ba981611ba2611b9c611b975f6115eb565b610342565b91610342565b1415611acb565b611bc6611bb55f6115eb565b611bc160028490610562565b6112cd565b611bdb33611bd660028590610562565b6112cd565b80611bee611be884610342565b91610342565b03611bf8575b5050565b611c23611c3c92611c1e611c16611c11600386906107c3565b610ae3565b9160036107c3565b611336565b611c37611c2f5f611378565b9160036107c3565b611336565b5f80611bf4565b611c64915060203d8111611c6a575b611c5c8183610b6c565b810190610baa565b5f611b4e565b503d611c52565b610bc8565b611c7f90611925565b565b611c89610a8e565b50611c946005610ae3565b90565b90611ca1906102b7565b5f5260205260405f2090565b611cc4611cc991611cbc610a8e565b506007611c97565b610ae3565b90565b634e487b7160e01b5f52603260045260245ffd5b5f5260205f2090565b611cf28161101e565b821015611d0c57611d04600191611ce0565b910201905f90565b611ccc565b611d3a916003611d2e611d3493611d26610a8e565b506006610ab4565b01611ce9565b906107f4565b90565b5f90565b611d4d611d5291610aca565b6102ed565b90565b611d5f9054611d41565b90565b611d6a611d3d565b50611d756001611d55565b90565b5f7f72616e6b666f7244414f28290000000000000000000000000000000000000000910152565b611da9600c610c10565b90611db660208301611d78565b565b611dc0611d9f565b90565b916020611de4929493611ddd60408201965f8301906101e7565b01906101e7565b565b5f7f67657472616e6b636f756e742875696e743235362c75696e7432353629000000910152565b611e17601d610c10565b90611e2460208301611de6565b565b611e2e611e0d565b90565b90565b611e48611e43611e4d92611e31565b6102b4565b6101e4565b90565b611e58610a8e565b50611e856020611e6f611e6a5f610b35565b610b42565b63cfbffe5390611e7d6101c7565b938492610b95565b82528180611e95600482016104bd565b03915afa8015611fcb57611ec1915f91611f9d575b50611eb3611db8565b611ebb61164e565b916130ce565b611eed6020611ed7611ed25f610b35565b610b42565b63ab6e844f90611ee56101c7565b938492610b95565b82528180611efd600482016104bd565b03915afa918215611f9857611f6792611f57925f91611f6a575b50611f49611f2361313b565b611f3a611f2e6101c7565b94859260208401611dc3565b60208201810382520383610b6c565b611f51611e26565b906130ce565b611f616003611e34565b906113aa565b90565b611f8b915060203d8111611f91575b611f838183610b6c565b810190610baa565b5f611f17565b503d611f79565b610bc8565b611fbe915060203d8111611fc4575b611fb68183610b6c565b810190610baa565b5f611eaa565b503d611fac565b610bc8565b5f7f6973536563757265426173652861646472657373290000000000000000000000910152565b6120016015610c10565b9061200e60208301611fd0565b565b612018611ff7565b90565b612023610b12565b50612050602061203a6120355f610b35565b610b42565b6397f3815a906120486101c7565b938492610b95565b82528180612060600482016104bd565b03915afa80156120e6576120af92612092925f926120b2575b506120a1906120866101c7565b9384916020830161035b565b60208201810382520383610b6c565b6120a9612010565b906129c1565b90565b6120a19192506120d89060203d81116120df575b6120d08183610b6c565b810190610baa565b9190612079565b503d6120c6565b610bc8565b5f7f6f776e2e6e6f6e617574682e44414f0000000000000000000000000000000000910152565b61211f600f602092610de8565b612128816120eb565b0190565b6121419060208101905f818303910152612112565b90565b1561214b57565b6121536101c7565b62461bcd60e51b8152806121696004820161212c565b0390fd5b61219a90602061218461217f5f610b35565b610b42565b634162169f906121926101c7565b948592610b95565b825281806121aa600482016104bd565b03915afa918215612212576121e2926121dd915f916121e4575b506121d76121d133610342565b91610342565b14612144565b61223b565b565b612205915060203d811161220b575b6121fd8183610b6c565b810190610baa565b5f6121c4565b503d6121f3565b610bc8565b6122209061052e565b90565b61222c90612217565b90565b6122389061054a565b90565b5f8080809361225961225461224f846115eb565b612223565b61222f565b82821561226e575bf11561226957565b610bc8565b506108fc612261565b6122809061216d565b565b90565b61229961229461229e92612282565b6102b4565b6101e4565b90565b5f7f4e6f742061206d696e696d616c2070726f787900000000000000000000000000910152565b6122d56013602092610de8565b6122de816122a1565b0190565b6122f79060208101905f8183039101526122c8565b90565b1561230157565b6123096101c7565b62461bcd60e51b81528061231f600482016122e2565b0390fd5b5f90565b60601c90565b61233961233e91612327565b61052e565b90565b61234a9061232d565b90565b602a61236461239a9261235e611d3d565b50610dc5565b61238a61237082610de1565b61238361237d602d612285565b916101e4565b10156122fa565b612392612323565b500151612341565b90565b5f7f67657445666665637469766552616e6b28616464726573732900000000000000910152565b6123ce6019610c10565b906123db6020830161239d565b565b6123e56123c4565b90565b5f7f697353746f702861646472657373290000000000000000000000000000000000910152565b612419600f610c10565b90612426602083016123e8565b565b61243061240f565b90565b61243b610b12565b50612468602061245261244d5f610b35565b610b42565b63cfbffe53906124606101c7565b938492610b95565b82528180612478600482016104bd565b03915afa8015612778576124a4915f9161274a575b50612496611db8565b61249e61164e565b916130ce565b906124d160206124bb6124b65f610b35565b610b42565b63ab6e844f906124c96101c7565b938492610b95565b825281806124e1600482016104bd565b03915afa80156127455761253092612513925f92612711575b50612522906125076101c7565b9384916020830161035b565b60208201810382520383610b6c565b61252a6115c4565b90613058565b9061255d60206125476125425f610b35565b610b42565b63ab6e844f906125556101c7565b938492610b95565b8252818061256d600482016104bd565b03915afa90811561270c576125bd916125a0915f916126de575b506125af856125946101c7565b9384916020830161035b565b60208201810382520383610b6c565b6125b76123dd565b906130ce565b906125ea60206125d46125cf5f610b35565b610b42565b63ab6e844f906125e26101c7565b938492610b95565b825281806125fa600482016104bd565b03915afa9081156126d95761264a9161262d915f916126ab575b5061263c866126216101c7565b9384916020830161035b565b60208201810382520383610b6c565b612644612428565b906129c1565b9261266561265f61265a5f6115eb565b610342565b91610342565b1415918261268c575b5050908161267b575b5090565b6126869150156103e6565b5f612677565b6126a291925061269c90926101e4565b916101e4565b10155f8061266e565b6126cc915060203d81116126d2575b6126c48183610b6c565b810190610baa565b5f612614565b503d6126ba565b610bc8565b6126ff915060203d8111612705575b6126f78183610b6c565b810190610baa565b5f612587565b503d6126ed565b610bc8565b6125229192506127379060203d811161273e575b61272f8183610b6c565b810190610baa565b91906124fa565b503d612725565b610bc8565b61276b915060203d8111612771575b6127638183610b6c565b810190610baa565b5f61248d565b503d612759565b610bc8565b5f7f6973536166652829000000000000000000000000000000000000000000000000910152565b6127ae6008610c10565b906127bb6020830161277d565b565b6127c56127a4565b90565b6127d0610b12565b506127fd60206127e76127e25f610b35565b610b42565b6397f3815a906127f56101c7565b938492610b95565b8252818061280d600482016104bd565b03915afa801561286a57612839915f9161283c575b5061282b6127bd565b61283361164e565b916129c1565b90565b61285d915060203d8111612863575b6128558183610b6c565b810190610baa565b5f612822565b503d61284b565b610bc8565b5f7f6167652829000000000000000000000000000000000000000000000000000000910152565b6128a06005610c10565b906128ad6020830161286f565b565b6128b7612896565b90565b6128c2610a8e565b506128ef60206128d96128d45f610b35565b610b42565b63447aa304906128e76101c7565b938492610b95565b825281806128ff600482016104bd565b03915afa801561295c5761292b915f9161292e575b5061291d6128af565b61292561164e565b916130ce565b90565b61294f915060203d8111612955575b6129478183610b6c565b810190610baa565b5f612914565b503d61293d565b610bc8565b90565b61297861297361297d92612961565b6102b4565b6101e4565b90565b612989816103e6565b0361299057565b5f80fd5b905051906129a182612980565b565b906020828203126129bc576129b9915f01612994565b90565b6101d1565b9291906129d9916129d0610b12565b94919091613200565b9080612a0b575b6129e8575b50565b612a0491925060206129f982610de1565b8183010191016129a3565b905f6129e5565b50612a1581610de1565b612a28612a226020612964565b916101e4565b146129e0565b60ff1690565b612a48612a43612a4d92611356565b6102b4565b612a2e565b90565b612a5990612a2e565b60ff8114612a675760010190565b6112ed565b90565b612a83612a7e612a8892612a6c565b6102b4565b612a2e565b90565b612a9490612a2e565b9052565b90959492612ae394612ad2612adc92612ac8608096612abe60a088019c5f8901906101e7565b60208701906101e7565b60408501906101e7565b6060830190612a8b565b01906101e7565b565b90505190612af28261023e565b565b90602082820312612b0d57612b0a915f01612ae5565b90565b6101d1565b9392919091612b1f61313b565b612b296001612a34565b955b86612b3f612b39600f612a6f565b91612a2e565b111580612bfc575b15612bf357612be76002612be1612bed93612bd9612bc38a8a612bb48f612ba58d918d612b7e612b7960048c906102d3565b611d55565b969395919091612b8c6101c7565b968795600460208801633e8c232f60e11b815201612a98565b60208201810382520382610b6c565b612bbd5f611378565b916133c0565b6020612bce82610de1565b818301019101612af4565b506006610ab4565b01610ae3565b96612a50565b95612b2b565b50505050509050565b5080612c10612c0a5f611378565b916101e4565b1415612b47565b612c2160a0610bd8565b90565b5f90565b5f90565b606090565b612c39612c17565b9060208080808086612c49612c24565b815201612c54612c28565b815201612c5f612c24565b815201612c6a612c2c565b815201612c75612c24565b81525050565b612c83612c31565b90565b90612c90906101e4565b9052565b90612c9e906103e6565b9052565b90565b5f5260205f2090565b5490565b612cbb81612cae565b821015612cd557612ccd600191612ca5565b910201905f90565b611ccc565b1b90565b91906008612cf9910291612cf35f1984612cda565b92612cda565b9181191691161790565b9190612d19612d14612d21936102b7565b611333565b908354612cde565b9055565b9081549168010000000000000000831015612d555782612d4d916001612d5395018155612cb2565b90612d03565b565b610b58565b612d6490516101e4565b90565b612d7190516103e6565b90565b90612d8060ff916112aa565b9181191691161790565b612d93906103e6565b90565b90565b90612dae612da9612db592612d8a565b612d96565b8254612d74565b9055565b5190565b600190818003010490565b612dda91612dd4610a8e565b91612d03565b565b5b818110612de8575050565b80612df55f600193612dc8565b01612ddd565b9091828110612e0a575b505050565b612e28612e22612e1c612e3395612dbd565b92612dbd565b92611ce0565b918201910190612ddc565b5f8080612e05565b90680100000000000000008111612e645781612e59612e629361101e565b90828155612dfb565b565b610b58565b5190565b60200190565b612e7c82612e69565b9167ffffffffffffffff8311612edf57612eaa612ea4600192612e9f8686612e3b565b612e6d565b92611ce0565b9204915f5b838110612ebc5750505050565b6001906020612ed2612ecd86612d5a565b611333565b9401938184015501612eaf565b610b58565b90612eee91612e73565b565b90612f6660806004612f6c94612f135f8201612f0d5f8801612d5a565b90611336565b612f2c60018201612f2660208801612d67565b90612d99565b612f4560028201612f3f60408801612d5a565b90611336565b612f5e60038201612f5860608801612db9565b90612ee4565b019201612d5a565b90611336565b565b90612f7891612ef0565b565b90612fd1612fe392612f8a612c7b565b90612f988160408401612c86565b612fa6600160208401612c94565b80612fb9612fb35f611378565b916101e4565b03612fe5575b50612fcc60068490610ab4565b612f6e565b5f612fdd826006610ab4565b01611336565b565b612ffe6003612ff8613005936006610ab4565b01612ca2565b8490612d25565b5f612fbf565b61301490610337565b90565b6130208161300b565b0361302757565b5f80fd5b9050519061303882613017565b565b9060208282031261305357613050915f0161302b565b90565b6101d1565b92919061307091613067611d3d565b94919091613200565b90806130ab575b61307f575b50565b6130a491925061309f90602061309482610de1565b81830101910161303a565b61222f565b905f61307c565b506130b581610de1565b6130c86130c26020612964565b916101e4565b14613077565b9291906130e6916130dd610a8e565b94919091613200565b9080613118575b6130f5575b50565b613111919250602061310682610de1565b818301019101612af4565b905f6130f2565b5061312281610de1565b61313561312f6020612964565b916101e4565b146130ed565b613143610a8e565b5061314c6128ba565b90565b606090565b90565b63ffffffff60e01b1690565b61316c90613157565b90565b905090565b5f5b838110613186575050905f910152565b806020918301518185015201613176565b6131bc6131b3926020926131aa81610de1565b9485809361316f565b93849101613174565b0190565b6131ce906131d49392613197565b90613197565b90565b3d5f146131f2576131e73d610dae565b903d5f602084013e5b565b6131fa61314f565b906131f0565b90613209610b12565b5061321261314f565b50813b6132276132215f611378565b916101e4565b146132d55760046132c05f9461329986959461326f8761326961325161324b6101c7565b94613154565b61326361325d82610de1565b91610ddb565b20613163565b92610b6c565b61328a61327a6101c7565b95869260208401908152016104bd565b60208201810382520384610b6c565b916132b16132a56101c7565b938492602084016131c0565b60208201810382520382610b6c565b602081019051915afa6132d16131d7565b9091565b5050505f906132e261164e565b90565b5f7f6f776e2e696e76616c69642e7461726765740000000000000000000000000000910152565b6133196012602092610de8565b613322816132e5565b0190565b61333b9060208101905f81830391015261330c565b90565b1561334557565b61334d6101c7565b62461bcd60e51b81528061336360048201613326565b0390fd5b5f7f6f776e2e7461726765742e63616c6c2e6661696c656400000000000000000000910152565b61339b6016602092610de8565b6133a481613367565b0190565b6133bd9060208101905f81830391015261338e565b90565b915f929183926133ce61314f565b506133f4816133ed6133e76133e2886115eb565b610342565b91610342565b141561333e565b91602082019151925af16134106134096131d7565b91156103e6565b6134175790565b61342081610de1565b61343261342c5f611378565b916101e4565b115f1461344157805190602001fd5b6134496101c7565b62461bcd60e51b81528061345f600482016133a8565b0390fdfea264697066735822122071d252ce37ef50ea07c52d63f872f9e651679fd13b889a4f5c1cb9cf347c28eb64736f6c63430008180033","linkReferences":{}},"methodIdentifiers":{"Burn(uint256)":"b90306ad","UserToId(address)":"629d671e","UserToInst(address)":"45145fd7","_delegatorCount()":"a1f7f539","_getImplementation(address)":"c54e44b0","_isDelegatorNode(address)":"e01ad5fd","_isSafe()":"e0a9bc2b","_isSecureBase(address)":"af484526","_isSigner(address)":"1f185d16","_nested(address,address,address,uint256)":"45ac4bc6","_updateUsers(address)":"5c1d48b9","addLvlIncome(uint256,uint256,uint256,uint256)":"42a78b15","getBalance()":"12065fe0","getNode(uint256)":"4f0f4aa9","getNodeChild(uint256,uint256)":"896c354a","getNodeDirectsCount(uint256)":"42cc9d57","getNodeParent(uint256)":"175724f6","getNodesCount()":"61ea7208","getrankCount(uint256)":"8954eb7a","isDaoSafe()":"5c1a494a","isNode(uint256)":"419cb27b","isNodeStopped(address)":"51bfd3ae","isUserExists(address)":"509222cd","nodes(uint256)":"1c53c280","owner()":"8da5cb5b","systemAge()":"fdc10bc9"},"id":47}