{"abi":[{"type":"constructor","inputs":[{"name":"_hex","type":"address","internalType":"address"}],"stateMutability":"nonpayable"},{"type":"fallback","stateMutability":"payable"},{"type":"receive","stateMutability":"payable"},{"type":"function","name":"Burn","inputs":[{"name":"amount","type":"uint256","internalType":"uint256"}],"outputs":[],"stateMutability":"nonpayable"},{"type":"function","name":"_delegatorCount","inputs":[],"outputs":[{"name":"","type":"uint256","internalType":"uint256"}],"stateMutability":"view"},{"type":"function","name":"_getImplementation","inputs":[{"name":"clone","type":"address","internalType":"address"}],"outputs":[{"name":"impl","type":"address","internalType":"address"}],"stateMutability":"view"},{"type":"function","name":"_isDelegatorNode","inputs":[{"name":"sender","type":"address","internalType":"address"}],"outputs":[{"name":"","type":"bool","internalType":"bool"}],"stateMutability":"view"},{"type":"function","name":"_isSafe","inputs":[],"outputs":[{"name":"","type":"bool","internalType":"bool"}],"stateMutability":"view"},{"type":"function","name":"_isSecureBase","inputs":[{"name":"sender","type":"address","internalType":"address"}],"outputs":[{"name":"","type":"bool","internalType":"bool"}],"stateMutability":"view"},{"type":"function","name":"_isSigner","inputs":[{"name":"sender","type":"address","internalType":"address"}],"outputs":[{"name":"","type":"bool","internalType":"bool"}],"stateMutability":"view"},{"type":"function","name":"getBalance","inputs":[],"outputs":[{"name":"","type":"uint256","internalType":"uint256"}],"stateMutability":"view"},{"type":"function","name":"getHexbase","inputs":[],"outputs":[{"name":"","type":"address","internalType":"address"}],"stateMutability":"view"},{"type":"function","name":"owner","inputs":[],"outputs":[{"name":"","type":"address","internalType":"address"}],"stateMutability":"view"},{"type":"function","name":"syncBaseAddr","inputs":[],"outputs":[],"stateMutability":"nonpayable"},{"type":"function","name":"systemAge","inputs":[],"outputs":[{"name":"","type":"uint256","internalType":"uint256"}],"stateMutability":"view"},{"type":"function","name":"updateUsers","inputs":[{"name":"inst","type":"address","internalType":"address"},{"name":"user","type":"address","internalType":"address"}],"outputs":[],"stateMutability":"nonpayable"},{"type":"event","name":"EthBurned","inputs":[{"name":"sender","type":"address","indexed":true,"internalType":"address"},{"name":"amount","type":"uint256","indexed":false,"internalType":"uint256"}],"anonymous":false},{"type":"event","name":"EthTransferred","inputs":[{"name":"to","type":"address","indexed":true,"internalType":"address"},{"name":"amount","type":"uint256","indexed":false,"internalType":"uint256"}],"anonymous":false},{"type":"event","name":"HexBaseUpdated","inputs":[{"name":"previousHexBase","type":"address","indexed":true,"internalType":"address"},{"name":"newHexBase","type":"address","indexed":true,"internalType":"address"}],"anonymous":false},{"type":"event","name":"OwnerUpdated","inputs":[{"name":"previousOwner","type":"address","indexed":true,"internalType":"address"},{"name":"newOwner","type":"address","indexed":true,"internalType":"address"}],"anonymous":false},{"type":"error","name":"CallFailed","inputs":[]},{"type":"error","name":"InvalidAddress","inputs":[]},{"type":"error","name":"InvalidState","inputs":[]},{"type":"error","name":"NotAuthorized","inputs":[]},{"type":"error","name":"NotSafe","inputs":[]},{"type":"error","name":"ReentrancyGuardReentrantCall","inputs":[]},{"type":"error","name":"TargetCallFailed","inputs":[{"name":"selector","type":"bytes4","internalType":"bytes4"}]}],"bytecode":{"object":"0x60803461009757601f6115f938819003918201601f19168301916001600160401b0383118484101761009c5780849260209460405283398101031261009757516001600160a01b038116908190036100975780156100855760018060a01b0319338160015416176001556000541617600055600160115560405161154690816100b38239f35b60405163e6c4247b60e01b8152600490fd5b600080fd5b634e487b7160e01b600052604160045260246000fdfe60806040526004361015610018575b361561001657005b005b60003560e01c806312065fe0146100e85780631f185d16146100e3578063339459a6146100de5780633b9b7955146100d95780633baee0ea146100d45780638da5cb5b146100cf578063a1f7f539146100ca578063af484526146100c5578063b90306ad146100c0578063c54e44b0146100bb578063e01ad5fd146100b6578063e0a9bc2b146100b15763fdc10bc90361000e57610e9b565b610e76565b610dab565b610d25565b610bc3565b610b44565b610acf565b610aa8565b610924565b6108fd565b610205565b61011a565b3461010457600036600319011261010457602047604051908152f35b600080fd5b6001600160a01b0381160361010457565b34610104576020806003193601126101045761019960043561013b81610109565b6001600160a01b0380600254169060405192168483015283825261015e82610f2e565b6040519061016b82610f2e565b601182527f69735369676e6572286164647265737329000000000000000000000000000000858301526113da565b9190806101fb575b156101d15781816101bb926101cd9451830101910161130d565b60405190151581529081906020820190565b0390f35b60046040517f3204506f000000000000000000000000000000000000000000000000000000008152fd5b50808251146101a1565b346101045760003660031901126101045761023761022b6000546001600160a01b031690565b6001600160a01b031690565b604051907f97f3815a000000000000000000000000000000000000000000000000000000008252602082600481845afa91821561072d576000926108dc575b50604051917fcfbffe53000000000000000000000000000000000000000000000000000000008352602083600481855afa92831561072d576000936108bb575b50604051907fab6e844f000000000000000000000000000000000000000000000000000000008252602082600481865afa91821561072d5760009261089a575b50604051917f14d8d024000000000000000000000000000000000000000000000000000000008352602083600481875afa92831561072d57600093610879575b50604051927fd1f956b1000000000000000000000000000000000000000000000000000000008452602084600481885afa93841561072d57600094610858575b50604051937fe61dfd58000000000000000000000000000000000000000000000000000000008552602085600481895afa94851561072d57600095610837575b506040517fe09d394d0000000000000000000000000000000000000000000000000000000081526020816004818a5afa90811561072d57600091610818575b506040517f52b06d640000000000000000000000000000000000000000000000000000000081526020816004818b5afa90811561072d576000916107f9575b506040517f013cf08b00000000000000000000000000000000000000000000000000000000815260006004820152916020836024818c5afa92831561072d576000936107d8575b50604051977f5e09dbe70000000000000000000000000000000000000000000000000000000089526020896004818d5afa94851561072d576004996000966107b7575b5060208b6040519b8c80927faa0ddc160000000000000000000000000000000000000000000000000000000082525afa96871561072d5760049a600098610796575b5060208c6040519c8d80927f640274270000000000000000000000000000000000000000000000000000000082525afa98891561072d5760049b60009a610775575b5060208d6040519d8e80927f30125cf50000000000000000000000000000000000000000000000000000000082525afa9a8b1561072d578d60049d60009d610753575b506020906040519e8f80927f24768d910000000000000000000000000000000000000000000000000000000082525afa9c8d1561072d5760009d610732575b50604051809e81907f9dc969a80000000000000000000000000000000000000000000000000000000082525a92600491602094fa9d8e1561072d5760009e6106fc575b50610610610fcd565b6001600160a01b0390911681529d8e906001600160a01b031660208201526040019061064491906001600160a01b03169052565b6001600160a01b031660608d01526001600160a01b031660808c01526001600160a01b031660a08b01526001600160a01b031660c08a01526001600160a01b031660e08901526001600160a01b03166101008801526001600160a01b03166101208701526001600160a01b03166101408601526001600160a01b03166101608501526001600160a01b03166101808401526001600160a01b03166101a08301526001600160a01b03166101c082015261001690610fee565b61071f919e5060203d602011610726575b6107178183610f87565b810190610fa9565b9c38610607565b503d61070d565b610fc1565b61074c919d5060203d602011610726576107178183610f87565b9b386105c4565b6020919d5061076e90823d8411610726576107178183610f87565b9c90610585565b61078f919a5060203d602011610726576107178183610f87565b9838610542565b6107b091985060203d602011610726576107178183610f87565b9638610500565b6107d191965060203d602011610726576107178183610f87565b94386104be565b6107f291935060203d602011610726576107178183610f87565b913861047b565b610812915060203d602011610726576107178183610f87565b38610434565b610831915060203d602011610726576107178183610f87565b386103f5565b61085191955060203d602011610726576107178183610f87565b93386103b6565b61087291945060203d602011610726576107178183610f87565b9238610376565b61089391935060203d602011610726576107178183610f87565b9138610336565b6108b491925060203d602011610726576107178183610f87565b90386102f6565b6108d591935060203d602011610726576107178183610f87565b91386102b6565b6108f691925060203d602011610726576107178183610f87565b9038610276565b346101045760003660031901126101045760206001600160a01b0360005416604051908152f35b346101045760403660031901126101045760043561094181610109565b6024359061094e82610109565b600260115414610a7e5760026011556040519160208301907f0399c93c0000000000000000000000000000000000000000000000000000000082526001600160a01b038091166024850152602484526109a684610f4f565b821615610a5457600080928192828651925af1916109c26113aa565b92156109d657506109d36001601155565b80f35b8051600411610a4e576109e991506114c6565b8151156109f95750805190602001fd5b6040517f21c09d340000000000000000000000000000000000000000000000000000000081527fffffffff00000000000000000000000000000000000000000000000000000000919091166004820152602490fd5b506109e9565b60046040517fe6c4247b000000000000000000000000000000000000000000000000000000008152fd5b60046040517f3ee5aeb5000000000000000000000000000000000000000000000000000000008152fd5b346101045760003660031901126101045760206001600160a01b0360015416604051908152f35b34610104576000366003190112610104576020610b3c6001600160a01b0360065416604051610afd81610f2e565b601381527f67657464656c656761746f72436f756e742829000000000000000000000000008482015260405191610b3383610f6b565b60008352611488565b604051908152f35b346101045760208060031936011261010457610199600435610b6581610109565b6001600160a01b03806002541690604051921684830152838252610b8882610f2e565b60405190610b9582610f2e565b601582527f6973536563757265426173652861646472657373290000000000000000000000858301526113da565b3461010457602036600319011261010457600435610bdf611325565b15610cfb576001600160a01b03600554163303610cd15760009060046020610c1161022b85546001600160a01b031690565b604051928380927f46f991ac0000000000000000000000000000000000000000000000000000000082525afa801561072d5783808481949382948391610cb3575b505af1610c5d6113aa565b50156101d1577fcdcc745fe377b103b45fa0cec23ae3ef93d6fc6a84a01f0d18c40b354dd1d5d8610cad610c9c61022b600b546001600160a01b031690565b604051938452929081906020820190565b0390a280f35b610ccb915060203d8111610726576107178183610f87565b38610c52565b60046040517fea8e4eb5000000000000000000000000000000000000000000000000000000008152fd5b60046040517f9dc4246e000000000000000000000000000000000000000000000000000000008152fd5b3461010457602036600319011261010457600435610d4281610109565b803b6000610d4f826112f1565b92610d5d6040519485610f87565b82845260208401903c602d815110610d8157602a602091015160601c604051908152f35b60046040517fbaf3f0f7000000000000000000000000000000000000000000000000000000008152fd5b3461010457602080600319360112610104576101cd9060043590610dce82610109565b610e326001600160a01b0392836006541693604051911683820152828152610df581610f2e565b604051610e0181610f2e565b601881527f697364656c656761746f724e6f64652861646472657373290000000000000000848201526000946113da565b919080610e6c575b610e53575b505060405190151581529081906020820190565b610e659250808251830101910161130d565b3880610e3f565b5080825114610e3a565b34610104576000366003190112610104576020610e91611325565b6040519015158152f35b34610104576000366003190112610104576020610b3c6001600160a01b0360035416604051610ec981610f2e565b600681527f69416765282900000000000000000000000000000000000000000000000000008482015260405191610b3383610f6b565b7f4e487b7100000000000000000000000000000000000000000000000000000000600052604160045260246000fd5b6040810190811067ffffffffffffffff821117610f4a57604052565b610eff565b6060810190811067ffffffffffffffff821117610f4a57604052565b6020810190811067ffffffffffffffff821117610f4a57604052565b90601f8019910116810190811067ffffffffffffffff821117610f4a57604052565b908160209103126101045751610fbe81610109565b90565b6040513d6000823e3d90fd5b604051906101e0820182811067ffffffffffffffff821117610f4a57604052565b6112d36101c06112ef9261102861100c82516001600160a01b031690565b6001600160a01b03166001600160a01b03196002541617600255565b61105b61103f60208301516001600160a01b031690565b6001600160a01b03166001600160a01b03196003541617600355565b61108e61107260408301516001600160a01b031690565b6001600160a01b03166001600160a01b03196004541617600455565b6110c16110a560608301516001600160a01b031690565b6001600160a01b03166001600160a01b03196005541617600555565b6110f46110d860808301516001600160a01b031690565b6001600160a01b03166001600160a01b03196006541617600655565b61112761110b60a08301516001600160a01b031690565b6001600160a01b03166001600160a01b03196007541617600755565b61115a61113e60c08301516001600160a01b031690565b6001600160a01b03166001600160a01b03196008541617600855565b61118d61117160e08301516001600160a01b031690565b6001600160a01b03166001600160a01b03196009541617600955565b6111c16111a56101008301516001600160a01b031690565b6001600160a01b03166001600160a01b0319600a541617600a55565b6111f56111d96101208301516001600160a01b031690565b6001600160a01b03166001600160a01b0319600b541617600b55565b61122961120d6101408301516001600160a01b031690565b6001600160a01b03166001600160a01b0319600c541617600c55565b61125d6112416101608301516001600160a01b031690565b6001600160a01b03166001600160a01b0319600d541617600d55565b6112916112756101808301516001600160a01b031690565b6001600160a01b03166001600160a01b0319600e541617600e55565b6112c56112a96101a08301516001600160a01b031690565b6001600160a01b03166001600160a01b0319600f541617600f55565b01516001600160a01b031690565b6001600160a01b03166001600160a01b03196010541617601055565b565b67ffffffffffffffff8111610f4a57601f01601f191660200190565b90816020910312610104575180151581036101045790565b6113806001600160a01b036002541660405161134081610f2e565b600881527f697353616665282900000000000000000000000000000000000000000000000060208201526040519161137783610f6b565b600083526113da565b908061139f575b156101d15780602080610fbe9351830101910161130d565b506020815114611387565b3d156113d5573d906113bb826112f1565b916113c96040519384610f87565b82523d6000602084013e565b606090565b9190823b1561146f577fffffffff00000000000000000000000000000000000000000000000000000000815160208093012016916040519180830193845281519160005b83811061145b57505050918161144b60248260009795968897018783820152036004810184520182610f87565b51915afa6114576113aa565b9091565b81810183015185820160240152820161141e565b50505060009060405161148181610f6b565b6000815290565b9291611496916000946113da565b90806114bb575b6114a45750565b909150602081805181010312610104576020015190565b50602081511461149d565b90602082519201517fffffffff0000000000000000000000000000000000000000000000000000000090818116936004811061150157505050565b60040360031b82901b1616915056fea26469706673582212204abddbc01fcec2ecd18c9ba07c56adaebfe79987506f9edcea8ee38f30f4ccd264736f6c63430008140033","linkReferences":{}},"methodIdentifiers":{"Burn(uint256)":"b90306ad","_delegatorCount()":"a1f7f539","_getImplementation(address)":"c54e44b0","_isDelegatorNode(address)":"e01ad5fd","_isSafe()":"e0a9bc2b","_isSecureBase(address)":"af484526","_isSigner(address)":"1f185d16","getBalance()":"12065fe0","getHexbase()":"3b9b7955","owner()":"8da5cb5b","syncBaseAddr()":"339459a6","systemAge()":"fdc10bc9","updateUsers(address,address)":"3baee0ea"},"id":62}