{"abi":[{"type":"constructor","inputs":[{"name":"_hex","type":"address","internalType":"address"}],"stateMutability":"nonpayable"},{"type":"fallback","stateMutability":"payable"},{"type":"receive","stateMutability":"payable"},{"type":"function","name":"Burn","inputs":[{"name":"amount","type":"uint256","internalType":"uint256"}],"outputs":[],"stateMutability":"nonpayable"},{"type":"function","name":"_delegatorCount","inputs":[],"outputs":[{"name":"","type":"uint256","internalType":"uint256"}],"stateMutability":"view"},{"type":"function","name":"_getImplementation","inputs":[{"name":"clone","type":"address","internalType":"address"}],"outputs":[{"name":"impl","type":"address","internalType":"address"}],"stateMutability":"view"},{"type":"function","name":"_isDelegatorNode","inputs":[{"name":"sender","type":"address","internalType":"address"}],"outputs":[{"name":"","type":"bool","internalType":"bool"}],"stateMutability":"view"},{"type":"function","name":"_isSafe","inputs":[],"outputs":[{"name":"","type":"bool","internalType":"bool"}],"stateMutability":"view"},{"type":"function","name":"_isSecureBase","inputs":[{"name":"sender","type":"address","internalType":"address"}],"outputs":[{"name":"","type":"bool","internalType":"bool"}],"stateMutability":"view"},{"type":"function","name":"_isSigner","inputs":[{"name":"sender","type":"address","internalType":"address"}],"outputs":[{"name":"","type":"bool","internalType":"bool"}],"stateMutability":"view"},{"type":"function","name":"getBalance","inputs":[],"outputs":[{"name":"","type":"uint256","internalType":"uint256"}],"stateMutability":"view"},{"type":"function","name":"getHexbase","inputs":[],"outputs":[{"name":"","type":"address","internalType":"address"}],"stateMutability":"view"},{"type":"function","name":"owner","inputs":[],"outputs":[{"name":"","type":"address","internalType":"address"}],"stateMutability":"view"},{"type":"function","name":"syncBaseAddr","inputs":[],"outputs":[],"stateMutability":"nonpayable"},{"type":"function","name":"systemAge","inputs":[],"outputs":[{"name":"","type":"uint256","internalType":"uint256"}],"stateMutability":"view"},{"type":"function","name":"updateUsers","inputs":[{"name":"inst","type":"address","internalType":"address"},{"name":"user","type":"address","internalType":"address"}],"outputs":[],"stateMutability":"nonpayable"},{"type":"event","name":"EthBurned","inputs":[{"name":"sender","type":"address","indexed":true,"internalType":"address"},{"name":"amount","type":"uint256","indexed":false,"internalType":"uint256"}],"anonymous":false},{"type":"event","name":"EthTransferred","inputs":[{"name":"to","type":"address","indexed":true,"internalType":"address"},{"name":"amount","type":"uint256","indexed":false,"internalType":"uint256"}],"anonymous":false},{"type":"event","name":"HexBaseUpdated","inputs":[{"name":"previousHexBase","type":"address","indexed":true,"internalType":"address"},{"name":"newHexBase","type":"address","indexed":true,"internalType":"address"}],"anonymous":false},{"type":"event","name":"OwnerUpdated","inputs":[{"name":"previousOwner","type":"address","indexed":true,"internalType":"address"},{"name":"newOwner","type":"address","indexed":true,"internalType":"address"}],"anonymous":false},{"type":"error","name":"CallFailed","inputs":[]},{"type":"error","name":"InvalidAddress","inputs":[]},{"type":"error","name":"InvalidState","inputs":[]},{"type":"error","name":"NotAuthorized","inputs":[]},{"type":"error","name":"NotSafe","inputs":[]},{"type":"error","name":"ReentrancyGuardReentrantCall","inputs":[]},{"type":"error","name":"TargetCallFailed","inputs":[{"name":"selector","type":"bytes4","internalType":"bytes4"}]}],"bytecode":{"object":"0x60803461009757601f61132c38819003918201601f19168301916001600160401b0383118484101761009c5780849260209460405283398101031261009757516001600160a01b038116908190036100975780156100855760018060a01b03193381600154161760015560005416176000556001600d5560405161127990816100b38239f35b60405163e6c4247b60e01b8152600490fd5b600080fd5b634e487b7160e01b600052604160045260246000fdfe60806040526004361015610018575b361561001657005b005b60003560e01c806312065fe0146100e85780631f185d16146100e3578063339459a6146100de5780633b9b7955146100d95780633baee0ea146100d45780638da5cb5b146100cf578063a1f7f539146100ca578063af484526146100c5578063b90306ad146100c0578063c54e44b0146100bb578063e01ad5fd146100b6578063e0a9bc2b146100b15763fdc10bc90361000e57610c9e565b610c79565b610bae565b610b28565b6109c6565b610947565b6108d2565b6108ab565b61072a565b610703565b610205565b61011a565b3461010457600036600319011261010457602047604051908152f35b600080fd5b6001600160a01b0381160361010457565b34610104576020806003193601126101045761019960043561013b81610109565b6001600160a01b0380600254169060405192168483015283825261015e82610d31565b6040519061016b82610d31565b601182527f69735369676e65722861646472657373290000000000000000000000000000008583015261110d565b9190806101fb575b156101d15781816101bb926101cd94518301019101611040565b60405190151581529081906020820190565b0390f35b60046040517f3204506f000000000000000000000000000000000000000000000000000000008152fd5b50808251146101a1565b34610104576000806003193601126107005761023761022b82546001600160a01b031690565b6001600160a01b031690565b604080517f97f3815a0000000000000000000000000000000000000000000000000000000081529160049190602080858581855afa9485156105c75786956106e1575b508251927fcfbffe5300000000000000000000000000000000000000000000000000000000845281848681865afa9384156105c75787946106c2575b5080517fab6e844f00000000000000000000000000000000000000000000000000000000815282818781875afa9081156105c75788916106a5575b5081517f14d8d02400000000000000000000000000000000000000000000000000000000815283818881885afa9081156105c7578991610688575b508251907fd1f956b100000000000000000000000000000000000000000000000000000000825284828981895afa9182156105c7578a92610669575b508351927fe61dfd5800000000000000000000000000000000000000000000000000000000845285848a818a5afa9384156105c7578b9461064a575b508451947fe09d394d00000000000000000000000000000000000000000000000000000000865286868b818b5afa9586156105c7578c9661062b575b508051987f52b06d64000000000000000000000000000000000000000000000000000000008a52878a8c818c5afa9788156105c7576104599a8e9961060c575b50808c8451809d81927f013cf08b0000000000000000000000000000000000000000000000000000000083528201906000602083019252565b03818d5afa998a156105c7578c9b8f9b6105ed575b50818451809d7f5e09dbe700000000000000000000000000000000000000000000000000000000825281845afa9b8c156105c7578f9c6105cc575b50819084519d8e80927faa0ddc160000000000000000000000000000000000000000000000000000000082525afa9b8c156105c7578e9c610598575b506104ee610dd0565b6001600160a01b03909d168d526001600160a01b03909116908c01526001600160a01b03909116908a01526001600160a01b031660608901526001600160a01b031660808801526001600160a01b031660a08701526001600160a01b031660c08601526001600160a01b031660e08501526001600160a01b03166101008401526001600160a01b03166101208301526001600160a01b031661014082015261059590610df1565b80f35b816105b9929d508d3d106105c0575b6105b18183610d8a565b810190610dac565b9a386104e5565b503d6105a7565b610dc4565b82919c506105e690823d84116105c0576105b18183610d8a565b9b906104a9565b610605919b50823d84116105c0576105b18183610d8a565b993861046e565b81610624929a503d8b116105c0576105b18183610d8a565b9738610420565b610643919650873d89116105c0576105b18183610d8a565b94386103e0565b610662919450863d88116105c0576105b18183610d8a565b92386103a4565b610681919250853d87116105c0576105b18183610d8a565b9038610368565b61069f9150843d86116105c0576105b18183610d8a565b3861032c565b6106bc9150833d85116105c0576105b18183610d8a565b386102f1565b6106da919450823d84116105c0576105b18183610d8a565b92386102b6565b816106f99296503d87116105c0576105b18183610d8a565b933861027a565b80fd5b346101045760003660031901126101045760206001600160a01b0360005416604051908152f35b346101045760403660031901126101045760043561074781610109565b6024359061075482610109565b6002600d5414610881576002600d556040519160208301907f0399c93c0000000000000000000000000000000000000000000000000000000082526001600160a01b038091166024850152602484526107ac84610d52565b82161561085757600080928192828651925af1916107c86110dd565b92156107d957506105956001600d55565b8051600411610851576107ec91506111f9565b8151156107fc5750805190602001fd5b6040517f21c09d340000000000000000000000000000000000000000000000000000000081527fffffffff00000000000000000000000000000000000000000000000000000000919091166004820152602490fd5b506107ec565b60046040517fe6c4247b000000000000000000000000000000000000000000000000000000008152fd5b60046040517f3ee5aeb5000000000000000000000000000000000000000000000000000000008152fd5b346101045760003660031901126101045760206001600160a01b0360015416604051908152f35b3461010457600036600319011261010457602061093f6001600160a01b036006541660405161090081610d31565b601381527f67657464656c656761746f72436f756e74282900000000000000000000000000848201526040519161093683610d6e565b600083526111bb565b604051908152f35b34610104576020806003193601126101045761019960043561096881610109565b6001600160a01b0380600254169060405192168483015283825261098b82610d31565b6040519061099882610d31565b601582527f69735365637572654261736528616464726573732900000000000000000000008583015261110d565b34610104576020366003190112610104576004356109e2611058565b15610afe576001600160a01b03600554163303610ad45760009060046020610a1461022b85546001600160a01b031690565b604051928380927f46f991ac0000000000000000000000000000000000000000000000000000000082525afa80156105c75783808481949382948391610ab6575b505af1610a606110dd565b50156101d1577fcdcc745fe377b103b45fa0cec23ae3ef93d6fc6a84a01f0d18c40b354dd1d5d8610ab0610a9f61022b600b546001600160a01b031690565b604051938452929081906020820190565b0390a280f35b610ace915060203d81116105c0576105b18183610d8a565b38610a55565b60046040517fea8e4eb5000000000000000000000000000000000000000000000000000000008152fd5b60046040517f9dc4246e000000000000000000000000000000000000000000000000000000008152fd5b3461010457602036600319011261010457600435610b4581610109565b803b6000610b5282611024565b92610b606040519485610d8a565b82845260208401903c602d815110610b8457602a602091015160601c604051908152f35b60046040517fbaf3f0f7000000000000000000000000000000000000000000000000000000008152fd5b3461010457602080600319360112610104576101cd9060043590610bd182610109565b610c356001600160a01b0392836006541693604051911683820152828152610bf881610d31565b604051610c0481610d31565b601881527f697364656c656761746f724e6f646528616464726573732900000000000000008482015260009461110d565b919080610c6f575b610c56575b505060405190151581529081906020820190565b610c6892508082518301019101611040565b3880610c42565b5080825114610c3d565b34610104576000366003190112610104576020610c94611058565b6040519015158152f35b3461010457600036600319011261010457602061093f6001600160a01b0360035416604051610ccc81610d31565b600681527f6941676528290000000000000000000000000000000000000000000000000000848201526040519161093683610d6e565b7f4e487b7100000000000000000000000000000000000000000000000000000000600052604160045260246000fd5b6040810190811067ffffffffffffffff821117610d4d57604052565b610d02565b6060810190811067ffffffffffffffff821117610d4d57604052565b6020810190811067ffffffffffffffff821117610d4d57604052565b90601f8019910116810190811067ffffffffffffffff821117610d4d57604052565b908160209103126101045751610dc181610109565b90565b6040513d6000823e3d90fd5b60405190610160820182811067ffffffffffffffff821117610d4d57604052565b61100661014061102292610e2b610e0f82516001600160a01b031690565b6001600160a01b03166001600160a01b03196002541617600255565b610e5e610e4260208301516001600160a01b031690565b6001600160a01b03166001600160a01b03196003541617600355565b610e91610e7560408301516001600160a01b031690565b6001600160a01b03166001600160a01b03196004541617600455565b610ec4610ea860608301516001600160a01b031690565b6001600160a01b03166001600160a01b03196005541617600555565b610ef7610edb60808301516001600160a01b031690565b6001600160a01b03166001600160a01b03196006541617600655565b610f2a610f0e60a08301516001600160a01b031690565b6001600160a01b03166001600160a01b03196007541617600755565b610f5d610f4160c08301516001600160a01b031690565b6001600160a01b03166001600160a01b03196008541617600855565b610f90610f7460e08301516001600160a01b031690565b6001600160a01b03166001600160a01b03196009541617600955565b610fc4610fa86101008301516001600160a01b031690565b6001600160a01b03166001600160a01b0319600a541617600a55565b610ff8610fdc6101208301516001600160a01b031690565b6001600160a01b03166001600160a01b0319600b541617600b55565b01516001600160a01b031690565b6001600160a01b03166001600160a01b0319600c541617600c55565b565b67ffffffffffffffff8111610d4d57601f01601f191660200190565b90816020910312610104575180151581036101045790565b6110b36001600160a01b036002541660405161107381610d31565b600881527f69735361666528290000000000000000000000000000000000000000000000006020820152604051916110aa83610d6e565b6000835261110d565b90806110d2575b156101d15780602080610dc193518301019101611040565b5060208151146110ba565b3d15611108573d906110ee82611024565b916110fc6040519384610d8a565b82523d6000602084013e565b606090565b9190823b156111a2577fffffffff00000000000000000000000000000000000000000000000000000000815160208093012016916040519180830193845281519160005b83811061118e57505050918161117e60248260009795968897018783820152036004810184520182610d8a565b51915afa61118a6110dd565b9091565b818101830151858201602401528201611151565b5050506000906040516111b481610d6e565b6000815290565b92916111c99160009461110d565b90806111ee575b6111d75750565b909150602081805181010312610104576020015190565b5060208151146111d0565b90602082519201517fffffffff0000000000000000000000000000000000000000000000000000000090818116936004811061123457505050565b60040360031b82901b1616915056fea264697066735822122059797f751c570119340f89b73a45796689911a81ab0b89505c540e2a0224e9ff64736f6c63430008140033","linkReferences":{}},"methodIdentifiers":{"Burn(uint256)":"b90306ad","_delegatorCount()":"a1f7f539","_getImplementation(address)":"c54e44b0","_isDelegatorNode(address)":"e01ad5fd","_isSafe()":"e0a9bc2b","_isSecureBase(address)":"af484526","_isSigner(address)":"1f185d16","getBalance()":"12065fe0","getHexbase()":"3b9b7955","owner()":"8da5cb5b","syncBaseAddr()":"339459a6","systemAge()":"fdc10bc9","updateUsers(address,address)":"3baee0ea"},"id":63}