{"abi":[{"type":"constructor","inputs":[{"name":"_hex","type":"address","internalType":"address"}],"stateMutability":"nonpayable"},{"type":"fallback","stateMutability":"payable"},{"type":"receive","stateMutability":"payable"},{"type":"function","name":"Burn","inputs":[{"name":"amount","type":"uint256","internalType":"uint256"}],"outputs":[],"stateMutability":"nonpayable"},{"type":"function","name":"NFTAgePointer","inputs":[],"outputs":[{"name":"","type":"uint256","internalType":"uint256"}],"stateMutability":"view"},{"type":"function","name":"NFTSendPerCycle","inputs":[],"outputs":[{"name":"","type":"uint256","internalType":"uint256"}],"stateMutability":"view"},{"type":"function","name":"StartAgePointerLEQ","inputs":[],"outputs":[{"name":"","type":"uint256","internalType":"uint256"}],"stateMutability":"view"},{"type":"function","name":"_delegatorCount","inputs":[],"outputs":[{"name":"","type":"uint256","internalType":"uint256"}],"stateMutability":"view"},{"type":"function","name":"_getImplementation","inputs":[{"name":"clone","type":"address","internalType":"address"}],"outputs":[{"name":"impl","type":"address","internalType":"address"}],"stateMutability":"view"},{"type":"function","name":"_isDelegatorNode","inputs":[{"name":"sender","type":"address","internalType":"address"}],"outputs":[{"name":"","type":"bool","internalType":"bool"}],"stateMutability":"view"},{"type":"function","name":"_isSafe","inputs":[],"outputs":[{"name":"","type":"bool","internalType":"bool"}],"stateMutability":"view"},{"type":"function","name":"_isSecureBase","inputs":[{"name":"sender","type":"address","internalType":"address"}],"outputs":[{"name":"","type":"bool","internalType":"bool"}],"stateMutability":"view"},{"type":"function","name":"_isSigner","inputs":[{"name":"sender","type":"address","internalType":"address"}],"outputs":[{"name":"","type":"bool","internalType":"bool"}],"stateMutability":"view"},{"type":"function","name":"allowForceTransfer","inputs":[],"outputs":[{"name":"","type":"bool","internalType":"bool"}],"stateMutability":"view"},{"type":"function","name":"burncnfg","inputs":[],"outputs":[{"name":"target1","type":"address","internalType":"address"},{"name":"roiN1","type":"uint256","internalType":"uint256"},{"name":"roiD1","type":"uint256","internalType":"uint256"},{"name":"target2","type":"address","internalType":"address"},{"name":"roiN2","type":"uint256","internalType":"uint256"},{"name":"roiD2","type":"uint256","internalType":"uint256"}],"stateMutability":"view"},{"type":"function","name":"capping","inputs":[],"outputs":[{"name":"multiple","type":"uint256","internalType":"uint256"},{"name":"multipledollar","type":"uint256","internalType":"uint256"}],"stateMutability":"view"},{"type":"function","name":"computeDollarToOzone","inputs":[{"name":"_dollar","type":"uint256","internalType":"uint256"}],"outputs":[{"name":"","type":"uint256","internalType":"uint256"}],"stateMutability":"view"},{"type":"function","name":"computeMintValue","inputs":[{"name":"_qty","type":"uint256","internalType":"uint256"}],"outputs":[{"name":"","type":"uint256","internalType":"uint256"}],"stateMutability":"view"},{"type":"function","name":"computeOzoneToDollar","inputs":[{"name":"_ozone","type":"uint256","internalType":"uint256"}],"outputs":[{"name":"","type":"uint256","internalType":"uint256"}],"stateMutability":"view"},{"type":"function","name":"computeTour","inputs":[{"name":"_r","type":"uint256","internalType":"uint256"}],"outputs":[{"name":"","type":"uint256","internalType":"uint256"}],"stateMutability":"view"},{"type":"function","name":"eachclaimCycle","inputs":[],"outputs":[{"name":"","type":"uint256","internalType":"uint256"}],"stateMutability":"view"},{"type":"function","name":"freeIntervals","inputs":[],"outputs":[{"name":"","type":"uint256","internalType":"uint256"}],"stateMutability":"view"},{"type":"function","name":"getBalance","inputs":[],"outputs":[{"name":"","type":"uint256","internalType":"uint256"}],"stateMutability":"view"},{"type":"function","name":"getBatchRoyaltyClauses","inputs":[],"outputs":[{"name":"clauses","type":"tuple[7]","internalType":"struct lib741Rules.RoyalityStr[7]","components":[{"name":"rwNum","type":"uint256","internalType":"uint256"},{"name":"rwDen","type":"uint256","internalType":"uint256"},{"name":"rwEnd","type":"uint256","internalType":"uint256"}]}],"stateMutability":"view"},{"type":"function","name":"getHexbase","inputs":[],"outputs":[{"name":"","type":"address","internalType":"address"}],"stateMutability":"view"},{"type":"function","name":"getNftPool","inputs":[{"name":"_type","type":"uint256","internalType":"uint256"},{"name":"_mintage","type":"uint256","internalType":"uint256"}],"outputs":[{"name":"_startfrom","type":"uint256","internalType":"uint256"},{"name":"_roiN","type":"uint256","internalType":"uint256"},{"name":"_roiD","type":"uint256","internalType":"uint256"},{"name":"_roiInt","type":"uint256","internalType":"uint256"}],"stateMutability":"nonpayable"},{"type":"function","name":"iAge","inputs":[],"outputs":[{"name":"","type":"uint256","internalType":"uint256"}],"stateMutability":"view"},{"type":"function","name":"levelClause","inputs":[{"name":"","type":"uint256","internalType":"uint256"}],"outputs":[{"name":"rank","type":"uint256","internalType":"uint256"},{"name":"rwNum","type":"uint256","internalType":"uint256"},{"name":"rwrDen","type":"uint256","internalType":"uint256"},{"name":"yeiNum","type":"uint256","internalType":"uint256"},{"name":"yeiDen","type":"uint256","internalType":"uint256"}],"stateMutability":"view"},{"type":"function","name":"maxClaimPerDay","inputs":[],"outputs":[{"name":"","type":"uint256","internalType":"uint256"}],"stateMutability":"view"},{"type":"function","name":"maxGlobalClaimPerDay","inputs":[],"outputs":[{"name":"","type":"uint256","internalType":"uint256"}],"stateMutability":"view"},{"type":"function","name":"maxMintQty","inputs":[],"outputs":[{"name":"","type":"uint256","internalType":"uint256"}],"stateMutability":"view"},{"type":"function","name":"maxMintsPerCycle","inputs":[],"outputs":[{"name":"","type":"uint256","internalType":"uint256"}],"stateMutability":"view"},{"type":"function","name":"maxNFTSend","inputs":[],"outputs":[{"name":"","type":"uint256","internalType":"uint256"}],"stateMutability":"view"},{"type":"function","name":"minClaimPerDay","inputs":[],"outputs":[{"name":"","type":"uint256","internalType":"uint256"}],"stateMutability":"view"},{"type":"function","name":"minMintQty","inputs":[],"outputs":[{"name":"","type":"uint256","internalType":"uint256"}],"stateMutability":"view"},{"type":"function","name":"mintCycleDays","inputs":[],"outputs":[{"name":"","type":"uint256","internalType":"uint256"}],"stateMutability":"view"},{"type":"function","name":"mintFeePerQty","inputs":[],"outputs":[{"name":"","type":"uint256","internalType":"uint256"}],"stateMutability":"view"},{"type":"function","name":"owner","inputs":[],"outputs":[{"name":"","type":"address","internalType":"address"}],"stateMutability":"view"},{"type":"function","name":"pool","inputs":[],"outputs":[{"name":"startafter","type":"uint256","internalType":"uint256"},{"name":"stakeN","type":"uint256","internalType":"uint256"},{"name":"stakeD","type":"uint256","internalType":"uint256"},{"name":"roiN","type":"uint256","internalType":"uint256"},{"name":"roiD","type":"uint256","internalType":"uint256"},{"name":"roiInt","type":"uint256","internalType":"uint256"},{"name":"roiEnd","type":"uint256","internalType":"uint256"}],"stateMutability":"view"},{"type":"function","name":"poolNFT1","inputs":[],"outputs":[{"name":"roiN","type":"uint256","internalType":"uint256"},{"name":"roiD","type":"uint256","internalType":"uint256"},{"name":"roiInt","type":"uint256","internalType":"uint256"},{"name":"startfrom","type":"uint256","internalType":"uint256"}],"stateMutability":"view"},{"type":"function","name":"poolNFT2","inputs":[],"outputs":[{"name":"roiN","type":"uint256","internalType":"uint256"},{"name":"roiD","type":"uint256","internalType":"uint256"},{"name":"roiInt","type":"uint256","internalType":"uint256"},{"name":"startfrom","type":"uint256","internalType":"uint256"}],"stateMutability":"view"},{"type":"function","name":"rankClause","inputs":[{"name":"","type":"uint256","internalType":"uint256"}],"outputs":[{"name":"direct","type":"uint256","internalType":"uint256"},{"name":"nftAmount","type":"uint256","internalType":"uint256"},{"name":"eRnk","type":"uint256","internalType":"uint256"},{"name":"gRnk","type":"uint256","internalType":"uint256"},{"name":"gPrd","type":"uint256","internalType":"uint256"}],"stateMutability":"view"},{"type":"function","name":"rankforDAO","inputs":[],"outputs":[{"name":"","type":"uint256","internalType":"uint256"}],"stateMutability":"view"},{"type":"function","name":"royalityClause","inputs":[{"name":"","type":"uint256","internalType":"uint256"}],"outputs":[{"name":"rwNum","type":"uint256","internalType":"uint256"},{"name":"rwDen","type":"uint256","internalType":"uint256"},{"name":"rwEnd","type":"uint256","internalType":"uint256"}],"stateMutability":"view"},{"type":"function","name":"sessionTTLSeconds","inputs":[],"outputs":[{"name":"","type":"uint256","internalType":"uint256"}],"stateMutability":"view"},{"type":"function","name":"setAllowForceTransfer","inputs":[{"name":"_f","type":"bool","internalType":"bool"}],"outputs":[],"stateMutability":"nonpayable"},{"type":"function","name":"setBurnConfig","inputs":[{"name":"_target1","type":"address","internalType":"address"},{"name":"_roiN1","type":"uint256","internalType":"uint256"},{"name":"_roiD1","type":"uint256","internalType":"uint256"},{"name":"_target2","type":"address","internalType":"address"},{"name":"_roiN2","type":"uint256","internalType":"uint256"},{"name":"_roiD2","type":"uint256","internalType":"uint256"}],"outputs":[],"stateMutability":"nonpayable"},{"type":"function","name":"setCapping","inputs":[{"name":"_multiple","type":"uint256","internalType":"uint256"},{"name":"_multipledollar","type":"uint256","internalType":"uint256"}],"outputs":[],"stateMutability":"nonpayable"},{"type":"function","name":"setClaimPerDay","inputs":[{"name":"_min","type":"uint256","internalType":"uint256"},{"name":"_max","type":"uint256","internalType":"uint256"}],"outputs":[],"stateMutability":"nonpayable"},{"type":"function","name":"setCoinPool","inputs":[{"name":"_start","type":"uint256","internalType":"uint256"},{"name":"_stakeN","type":"uint256","internalType":"uint256"},{"name":"_stakeD","type":"uint256","internalType":"uint256"},{"name":"_roiN","type":"uint256","internalType":"uint256"},{"name":"_roiD","type":"uint256","internalType":"uint256"},{"name":"_roiInt","type":"uint256","internalType":"uint256"},{"name":"_roiEnd","type":"uint256","internalType":"uint256"}],"outputs":[],"stateMutability":"nonpayable"},{"type":"function","name":"setFreeIntervals","inputs":[{"name":"_d","type":"uint256","internalType":"uint256"}],"outputs":[],"stateMutability":"nonpayable"},{"type":"function","name":"setGlobalClaimPerDay","inputs":[{"name":"_ac","type":"uint256","internalType":"uint256"}],"outputs":[],"stateMutability":"nonpayable"},{"type":"function","name":"setMaxMintsPerCycle","inputs":[{"name":"_max","type":"uint256","internalType":"uint256"}],"outputs":[],"stateMutability":"nonpayable"},{"type":"function","name":"setMaxNFTSend","inputs":[{"name":"_d","type":"uint256","internalType":"uint256"}],"outputs":[],"stateMutability":"nonpayable"},{"type":"function","name":"setMintCycleDays","inputs":[{"name":"_d","type":"uint256","internalType":"uint256"}],"outputs":[],"stateMutability":"nonpayable"},{"type":"function","name":"setMintFee","inputs":[{"name":"_fe","type":"uint256","internalType":"uint256"}],"outputs":[],"stateMutability":"nonpayable"},{"type":"function","name":"setMintQty","inputs":[{"name":"_min","type":"uint256","internalType":"uint256"},{"name":"_max","type":"uint256","internalType":"uint256"}],"outputs":[],"stateMutability":"nonpayable"},{"type":"function","name":"setNFTAgePointer","inputs":[{"name":"_point","type":"uint256","internalType":"uint256"},{"name":"_leq","type":"uint256","internalType":"uint256"}],"outputs":[],"stateMutability":"nonpayable"},{"type":"function","name":"setNFTSendPerCycle","inputs":[{"name":"_d","type":"uint256","internalType":"uint256"}],"outputs":[],"stateMutability":"nonpayable"},{"type":"function","name":"setNftPool","inputs":[{"name":"_type","type":"uint256","internalType":"uint256"},{"name":"_roiN","type":"uint256","internalType":"uint256"},{"name":"_roiD","type":"uint256","internalType":"uint256"},{"name":"_roiInt","type":"uint256","internalType":"uint256"},{"name":"_startfrom","type":"uint256","internalType":"uint256"}],"outputs":[],"stateMutability":"nonpayable"},{"type":"function","name":"setRoyalityClause","inputs":[{"name":"_rank","type":"uint256","internalType":"uint256"},{"name":"_rwNum","type":"uint256","internalType":"uint256"},{"name":"_rwDen","type":"uint256","internalType":"uint256"},{"name":"_rwEnd","type":"uint256","internalType":"uint256"}],"outputs":[],"stateMutability":"nonpayable"},{"type":"function","name":"setSessionTTL","inputs":[{"name":"_s","type":"uint256","internalType":"uint256"}],"outputs":[],"stateMutability":"nonpayable"},{"type":"function","name":"setTourClause","inputs":[{"name":"_rank","type":"uint256","internalType":"uint256"},{"name":"_tw","type":"uint256","internalType":"uint256"}],"outputs":[],"stateMutability":"nonpayable"},{"type":"function","name":"setValidatorPool","inputs":[{"name":"_type","type":"uint256","internalType":"uint256"},{"name":"_qty","type":"uint256","internalType":"uint256"},{"name":"_roiN","type":"uint256","internalType":"uint256"},{"name":"_roiD","type":"uint256","internalType":"uint256"},{"name":"_roiInt","type":"uint256","internalType":"uint256"}],"outputs":[],"stateMutability":"nonpayable"},{"type":"function","name":"setclaimCycle","inputs":[{"name":"_d","type":"uint256","internalType":"uint256"}],"outputs":[],"stateMutability":"nonpayable"},{"type":"function","name":"setlevelClause","inputs":[{"name":"lvl","type":"uint256","internalType":"uint256"},{"name":"_rank","type":"uint256","internalType":"uint256"},{"name":"_rpernum","type":"uint256","internalType":"uint256"},{"name":"_rperden","type":"uint256","internalType":"uint256"},{"name":"_ypernum","type":"uint256","internalType":"uint256"},{"name":"_yperden","type":"uint256","internalType":"uint256"}],"outputs":[],"stateMutability":"nonpayable"},{"type":"function","name":"setrankClause","inputs":[{"name":"rnk","type":"uint256","internalType":"uint256"},{"name":"dirc","type":"uint256","internalType":"uint256"},{"name":"nftAmt","type":"uint256","internalType":"uint256"},{"name":"ernk","type":"uint256","internalType":"uint256"},{"name":"grnk","type":"uint256","internalType":"uint256"},{"name":"gprd","type":"uint256","internalType":"uint256"}],"outputs":[],"stateMutability":"nonpayable"},{"type":"function","name":"setrankforDAO","inputs":[{"name":"_r","type":"uint256","internalType":"uint256"}],"outputs":[],"stateMutability":"nonpayable"},{"type":"function","name":"setshutdown","inputs":[{"name":"_shutdown","type":"bool","internalType":"bool"}],"outputs":[],"stateMutability":"nonpayable"},{"type":"function","name":"shutdown","inputs":[],"outputs":[{"name":"","type":"bool","internalType":"bool"}],"stateMutability":"view"},{"type":"function","name":"syncBaseAddr","inputs":[],"outputs":[],"stateMutability":"nonpayable"},{"type":"function","name":"systemAge","inputs":[],"outputs":[{"name":"","type":"uint256","internalType":"uint256"}],"stateMutability":"view"},{"type":"function","name":"tourClause","inputs":[{"name":"","type":"uint256","internalType":"uint256"}],"outputs":[{"name":"","type":"uint256","internalType":"uint256"}],"stateMutability":"view"},{"type":"function","name":"valExternal","inputs":[],"outputs":[{"name":"qtyORmul","type":"uint256","internalType":"uint256"},{"name":"roiN","type":"uint256","internalType":"uint256"},{"name":"roiD","type":"uint256","internalType":"uint256"},{"name":"roiInt","type":"uint256","internalType":"uint256"}],"stateMutability":"view"},{"type":"function","name":"valInternal","inputs":[],"outputs":[{"name":"qtyORmul","type":"uint256","internalType":"uint256"},{"name":"roiN","type":"uint256","internalType":"uint256"},{"name":"roiD","type":"uint256","internalType":"uint256"},{"name":"roiInt","type":"uint256","internalType":"uint256"}],"stateMutability":"view"},{"type":"event","name":"EthBurned","inputs":[{"name":"sender","type":"address","indexed":true,"internalType":"address"},{"name":"amount","type":"uint256","indexed":false,"internalType":"uint256"}],"anonymous":false},{"type":"event","name":"EthTransferred","inputs":[{"name":"to","type":"address","indexed":true,"internalType":"address"},{"name":"amount","type":"uint256","indexed":false,"internalType":"uint256"}],"anonymous":false},{"type":"event","name":"HexBaseUpdated","inputs":[{"name":"previousHexBase","type":"address","indexed":true,"internalType":"address"},{"name":"newHexBase","type":"address","indexed":true,"internalType":"address"}],"anonymous":false},{"type":"event","name":"OwnerUpdated","inputs":[{"name":"previousOwner","type":"address","indexed":true,"internalType":"address"},{"name":"newOwner","type":"address","indexed":true,"internalType":"address"}],"anonymous":false},{"type":"error","name":"CallFailed","inputs":[]},{"type":"error","name":"InvalidAddress","inputs":[]},{"type":"error","name":"InvalidState","inputs":[]},{"type":"error","name":"NotAuthorized","inputs":[]},{"type":"error","name":"NotSafe","inputs":[]},{"type":"error","name":"TargetCallFailed","inputs":[{"name":"selector","type":"bytes4","internalType":"bytes4"}]}],"bytecode":{"object":"0x60a08060405234620015215762000039620044509182380380936200002582846200155e565b82396001600160a01b039281019062001582565b1680156200150f573360018060a01b031960015416176001558060018060a01b031960005416176000554260115560a760255560b4602655601e602a556001602b556001602c556002602d5561c350602e55610258602f556003603055601960315569054b40b1f852bda00000603255670de0b6b3a764000060335569021e19e0c9bab24000006034556001603555610384603655600560455560ff1960465416604655614d584201804211620014f957610258900460805260405160e081016001600160401b03811182821017620014e3576102589160c0916040526002815260646020820152600160408201526023606082015260646080820152600160a0820152015260026016556064601755600160185560236019556064601a556001601b55610258601c55605a606062000171620015a3565b60198152600a602082015282604082015201526019601d55600a601e55605a601f55605a602055620001a2620015a3565b6005815260016020820152605a606061016892836040820152015260056021556001602255602355605a60245560405180604081011060018060401b03604083011117620014e3576020816040600393016040528281520152600360275560036028556200020f620015a3565b610258606061014092838152600b6020820152600a60408201520152603755600b603855600a603955610258603a5561025860606200024d620015a3565b60d28152600b6020820152600a6040820152015260d2603b55600b603c55600a603d55610258603e556040519060c0820182811060018060401b03821117620014e3576040526000825260006020830152600060408301526000606083015260006080830152600060a0830152604051635e09dbe760e01b8152602081600481855afa918215620014b557600492602092600091620014c1575b506001600160a01b03168452605f828501526001604080860191909152516311be646b60e21b815292839182905afa8015620014b5576040916000916200147f575b5060018060a01b03169182606082015260056080820152600160a082015260018060a01b0381511660018060a01b0319603f541617603f5560208101518255015160415560018060a01b03196042541617604255600560435560016044556200047a604051620003998162001526565b60008082526020808301828152604084018381526060850184815261270f60808701908152948052601390935293517f8fa6efc3be94b5b348b21fea823fe8d100408cee9b7f90524494500445d8ff6c55517f8fa6efc3be94b5b348b21fea823fe8d100408cee9b7f90524494500445d8ff6d5591517f8fa6efc3be94b5b348b21fea823fe8d100408cee9b7f90524494500445d8ff6e5590517f8fa6efc3be94b5b348b21fea823fe8d100408cee9b7f90524494500445d8ff6f55517f8fa6efc3be94b5b348b21fea823fe8d100408cee9b7f90524494500445d8ff7055565b620005736040516200048c8162001526565b60078152601960208083019182526000604084018181526060850182815261270f608087019081526001909352601390935293517f4155c2f711f2cdd34f8262ab8fb9b7020a700fe7b6948222152f7670d1fdf34d5591517f4155c2f711f2cdd34f8262ab8fb9b7020a700fe7b6948222152f7670d1fdf34e5591517f4155c2f711f2cdd34f8262ab8fb9b7020a700fe7b6948222152f7670d1fdf34f5590517f4155c2f711f2cdd34f8262ab8fb9b7020a700fe7b6948222152f7670d1fdf35055517f4155c2f711f2cdd34f8262ab8fb9b7020a700fe7b6948222152f7670d1fdf35155565b6200066c604051620005858162001526565b60078152606460208083019182526000604084018181526060850182815261270f608087019081526002909352601390935293517f0b9d2c0c271bb30544eb78c59bdaebdae2728e5f65814c07768a0abe90ed19235591517f0b9d2c0c271bb30544eb78c59bdaebdae2728e5f65814c07768a0abe90ed19245591517f0b9d2c0c271bb30544eb78c59bdaebdae2728e5f65814c07768a0abe90ed19255590517f0b9d2c0c271bb30544eb78c59bdaebdae2728e5f65814c07768a0abe90ed192655517f0b9d2c0c271bb30544eb78c59bdaebdae2728e5f65814c07768a0abe90ed192755565b620007666040516200067e8162001526565b600781526101f46020808301918252600360408401818152600060608601818152601e6080880190815293909152601390935293517f0d2a6872ef858a7f8ead18dc4f3f2e8d35c853d47e2816cbb9cdd49202554e0c5591517f0d2a6872ef858a7f8ead18dc4f3f2e8d35c853d47e2816cbb9cdd49202554e0d5591517f0d2a6872ef858a7f8ead18dc4f3f2e8d35c853d47e2816cbb9cdd49202554e0e5590517f0d2a6872ef858a7f8ead18dc4f3f2e8d35c853d47e2816cbb9cdd49202554e0f55517f0d2a6872ef858a7f8ead18dc4f3f2e8d35c853d47e2816cbb9cdd49202554e1055565b62000862604051620007788162001526565b600781526107d06020808301918252600460408401818152600360608601908152601e60808701908152600093909352601390935293517f01413ff7a3b1d5b6c016c061d48e2c7014700c777a29fcd068fff04265813d5d5591517f01413ff7a3b1d5b6c016c061d48e2c7014700c777a29fcd068fff04265813d5e5591517f01413ff7a3b1d5b6c016c061d48e2c7014700c777a29fcd068fff04265813d5f5590517f01413ff7a3b1d5b6c016c061d48e2c7014700c777a29fcd068fff04265813d6055517f01413ff7a3b1d5b6c016c061d48e2c7014700c777a29fcd068fff04265813d6155565b6200095b604051620008748162001526565b6007815261138860208083019182526004604084018181526060850191825261270f608086019081526005600052601390935293517ff4b2859895858d6aa26d656e4999d552f6a869b74c43bba7d2a941c4d22c35595591517ff4b2859895858d6aa26d656e4999d552f6a869b74c43bba7d2a941c4d22c355a5591517ff4b2859895858d6aa26d656e4999d552f6a869b74c43bba7d2a941c4d22c355b55517ff4b2859895858d6aa26d656e4999d552f6a869b74c43bba7d2a941c4d22c355c55517ff4b2859895858d6aa26d656e4999d552f6a869b74c43bba7d2a941c4d22c355d55565b62000a546040516200096d8162001526565b6007815261271060208083019182526004604084018181526060850191825261270f608086019081526006600052601390935293517f709d0e3cf89777a1e1f9c99632e4494f29b0327befd0df15e277a12d948257955591517f709d0e3cf89777a1e1f9c99632e4494f29b0327befd0df15e277a12d948257965591517f709d0e3cf89777a1e1f9c99632e4494f29b0327befd0df15e277a12d9482579755517f709d0e3cf89777a1e1f9c99632e4494f29b0327befd0df15e277a12d9482579855517f709d0e3cf89777a1e1f9c99632e4494f29b0327befd0df15e277a12d9482579955565b62000b4f60405162000a668162001526565b60078082526161a860208084019182526004604085018181526060860191825261270f60808701908152600095909552601390925293517f8ba6fb577925b0796671c737df59b8aaae861b630513fb12823699e3e0e3ee605590517f8ba6fb577925b0796671c737df59b8aaae861b630513fb12823699e3e0e3ee6155517f8ba6fb577925b0796671c737df59b8aaae861b630513fb12823699e3e0e3ee625590517f8ba6fb577925b0796671c737df59b8aaae861b630513fb12823699e3e0e3ee6355517f8ba6fb577925b0796671c737df59b8aaae861b630513fb12823699e3e0e3ee6455565b6200124560405162000b618162001526565b600080825260066020808401918252600160408501818152600560608701908152608087018381529290955260159283905294517f27739e4bb5e6f8b5e4b57a047dca8767cc9b982a011081e086cbb0dfa9de818d5591517f27739e4bb5e6f8b5e4b57a047dca8767cc9b982a011081e086cbb0dfa9de818e5592517f27739e4bb5e6f8b5e4b57a047dca8767cc9b982a011081e086cbb0dfa9de818f5590517f27739e4bb5e6f8b5e4b57a047dca8767cc9b982a011081e086cbb0dfa9de819055517f27739e4bb5e6f8b5e4b57a047dca8767cc9b982a011081e086cbb0dfa9de81915562000cb560405162000c588162001526565b60008152600360208201526001604082015260056060820152600160808201526002600052826020526040600020906080600491805184556020810151600185015560408101516002850155606081015160038501550151910155565b62000d2460405162000cc78162001526565b60028152600f6020820152600a604082015260056060820152600160808201526003600052826020526040600020906080600491805184556020810151600185015560408101516002850155606081015160038501550151910155565b62000d9360405162000d368162001526565b60028152600f6020820152600a604082015260056060820152600160808201526004600052826020526040600020906080600491805184556020810151600185015560408101516002850155606081015160038501550151910155565b62000e0260405162000da58162001526565b60028152600f6020820152600a604082015260056060820152600160808201526005600052826020526040600020906080600491805184556020810151600185015560408101516002850155606081015160038501550151910155565b6040519062000e118262001526565b60028252604b918260208201526064604082015262000e7660fa91826060820152606460808201526006600052836020526040600020906080600491805184556020810151600185015560408101516002850155606081015160038501550151910155565b62000ee360405162000e888162001526565b6002815284602082015260646040820152826060820152606460808201526007600052836020526040600020906080600491805184556020810151600185015560408101516002850155606081015160038501550151910155565b62000f5060405162000ef58162001526565b6002815284602082015260646040820152826060820152606460808201526008600052836020526040600020906080600491805184556020810151600185015560408101516002850155606081015160038501550151910155565b62000fbd60405162000f628162001526565b6002815284602082015260646040820152826060820152606460808201526009600052836020526040600020906080600491805184556020810151600185015560408101516002850155606081015160038501550151910155565b6200102a60405162000fcf8162001526565b600281528460208201526064604082015282606082015260646080820152600a600052836020526040600020906080600491805184556020810151600185015560408101516002850155606081015160038501550151910155565b620010976040516200103c8162001526565b600281528460208201526064604082015282606082015260646080820152600b600052836020526040600020906080600491805184556020810151600185015560408101516002850155606081015160038501550151910155565b62001104604051620010a98162001526565b600281528460208201526064604082015282606082015260646080820152600c600052836020526040600020906080600491805184556020810151600185015560408101516002850155606081015160038501550151910155565b62001171604051620011168162001526565b600281528460208201526064604082015282606082015260646080820152600d600052836020526040600020906080600491805184556020810151600185015560408101516002850155606081015160038501550151910155565b620011de604051620011838162001526565b600281528460208201526064604082015282606082015260646080820152600e600052836020526040600020906080600491805184556020810151600185015560408101516002850155606081015160038501550151910155565b60405192620011ed8462001526565b60028452602084015260646040840152606083015260646080830152600f6000526020526040600020906080600491805184556020810151600185015560408101516002850155606081015160038501550151910155565b604051620012538162001542565b60128152600a6020808301918252602d60408085019182526003600052601490925292517f63d87a887046e0430be80fdeb014107d7198c879cbf2cddf39a6df195c86cb385590517f63d87a887046e0430be80fdeb014107d7198c879cbf2cddf39a6df195c86cb395590517f63d87a887046e0430be80fdeb014107d7198c879cbf2cddf39a6df195c86cb3a5551620012ed8162001542565b60128152600a6020808301918252605a60408085019182526005600052601490925292517f116126bec5aaa49b347e966c49378cf0c441de9121e306ea3d824584a9615aa25590517f116126bec5aaa49b347e966c49378cf0c441de9121e306ea3d824584a9615aa35590517f116126bec5aaa49b347e966c49378cf0c441de9121e306ea3d824584a9615aa45551620013878162001542565b60098152600a602080830191825261270f6040808501918252600760009081526014845294517f904977a779b22381a36c6463d4166ef55ee8cb3392c83093cb1750f1a00c9d945592517f904977a779b22381a36c6463d4166ef55ee8cb3392c83093cb1750f1a00c9d9555517f904977a779b22381a36c6463d4166ef55ee8cb3392c83093cb1750f1a00c9d96556012905260327f8e1fee8c88a9e04123b21e90cae2727a7715bf522a1e46eb5934ccd05203a6b25560049091526101f47fb4fcd034df3d20faa1c133b66d862ce92732727d40916b48ffb4020cb00fe0535551612e769081620015da823960805181611e160152f35b620014a6915060203d602011620014ad575b6200149d81836200155e565b81019062001582565b3862000329565b503d62001491565b6040513d6000823e3d90fd5b620014dc9150833d8511620014ad576200149d81836200155e565b38620002e7565b634e487b7160e01b600052604160045260246000fd5b634e487b7160e01b600052601160045260246000fd5b60405163e6c4247b60e01b8152600490fd5b600080fd5b60a081019081106001600160401b03821117620014e357604052565b606081019081106001600160401b03821117620014e357604052565b601f909101601f19168101906001600160401b03821190821017620014e357604052565b908160209103126200152157516001600160a01b0381168103620015215790565b60405190608082016001600160401b03811183821017620014e3576040526000606083828152826020820152826040820152015256fe60806040526004361015610018575b361561001657005b005b60003560e01c806304ce9f80146104985780630609a0e31461049357806307175c831461048e57806309307c62146104895780630aa4b750146104845780630b225f1a1461047f5780630ea0d2221461047a57806312065fe01461047557806314be92a51461047057806315a544ed1461046b5780631605aed91461046657806316f0115b14610461578063179b570a1461045c578063192b48ee146104575780631ef6a864146104525780631f185d161461044d578063203bab661461044857806326c5adae14610443578063298fc4601461043e578063339459a6146104395780633688236d146104345780633b9b79551461042f5780633eb71c061461042a5780634151331d14610425578063438fe1921461042057806344ec16bc1461041b5780634b62954f1461041657806353423e8614610411578063541d76671461040c57806354541683146104075780635640dbfc14610402578063592a02a8146103fd5780635962205f146103f85780635a0e9038146103f35780636c7deb5d146103ee5780636f092c5e146103e95780637687e371146103e457806378ef376f146103df5780637bc908c6146103da57806382a3c503146103d5578063840bbc1e146103d05780638da5cb5b146103cb57806391fc8aa8146103c65780639319d0b5146103c15780639d80ab9b146103bc5780639eb8b44e146103b75780639f70207d146103b2578063a03cbb20146103ad578063a19841dd146103a8578063a1f7f539146103a3578063a88fcea61461039e578063ac14611a14610399578063aebcd32a14610394578063af0b21d31461038f578063af4845261461038a578063b49c064c14610385578063b85f1f8d14610380578063b90306ad1461037b578063c54e44b014610376578063c5a136d414610371578063d0bb2ddf1461036c578063dbad649c14610367578063e01ad5fd14610362578063e0a9bc2b1461035d578063e19a5bcf14610358578063eddd0d9c14610353578063f27c35c61461034e578063f2a6bbc714610349578063f4fe8e3c14610344578063f7a9783e1461033f578063fc0e74d11461033a5763fdc10bc90361000e57612602565b6125df565b612566565b6124fa565b6124ab565b612400565b6123b1565b6122f5565b6122da565b61220f565b6121f1565b61219b565b6120fe565b612078565b611f6a565b611f30565b611f0d565b611edc565b611ebe565b611e56565b611df2565b611dd4565b611d5f565b611d25565b611cc5565b611ca7565b611ad0565b611a51565b611a02565b6119e4565b6119bd565b611944565b6118a0565b611882565b611833565b6117cb565b61179f565b611750565b611717565b6116af565b6115b0565b611565565b611547565b6114d1565b6114b3565b61145e565b61140f565b6113f1565b6113ae565b61135f565b611338565b61131a565b610c37565b610bcf565b610ae5565b610a5a565b610973565b6108ac565b61081c565b6107c7565b610776565b610758565b61073a565b6106eb565b6106cf565b6106b1565b610693565b610675565b610620565b610602565b61055f565b3461055a57604036600319011261055a57600080808060243560043560018114610524575b6002146104f2575b50906104ee91604051948594859094939260609260808301968352602083015260408201520152565b0390f35b6021546022546023546025549297509095506104ee945092501061051c576026545b9290916104c5565b602454610514565b935093505050601d5491601e54601f54918060255410156000146105505760026026545b9490506104bd565b6002602054610548565b600080fd5b3461055a57602036600319011261055a57610578612ab5565b156105d85761058633612b3a565b80156105c4575b1561059a57600435602a55005b60046040517fea8e4eb5000000000000000000000000000000000000000000000000000000008152fd5b50336001600160a01b03600554161461058d565b60046040517f9dc4246e000000000000000000000000000000000000000000000000000000008152fd5b3461055a57600036600319011261055a576020603154604051908152f35b3461055a57604036600319011261055a57610639612ab5565b156105d85761064733612b3a565b8015610661575b1561059a57600435603355602435603455005b50336001600160a01b03600554161461064e565b3461055a57600036600319011261055a576020603654604051908152f35b3461055a57600036600319011261055a576020604554604051908152f35b3461055a57600036600319011261055a576020602f54604051908152f35b3461055a57600036600319011261055a57602047604051908152f35b3461055a57602036600319011261055a57610704612ab5565b156105d85761071233612b3a565b8015610726575b1561059a57600435602f55005b50336001600160a01b036005541614610719565b3461055a57600036600319011261055a576020603454604051908152f35b3461055a57600036600319011261055a576020603354604051908152f35b3461055a57600036600319011261055a5760e0601654601754601854601954601a5490601b5492601c5494604051968752602087015260408601526060850152608084015260a083015260c0820152f35b3461055a57604036600319011261055a576107e0612ab5565b156105d8576107ee33612b3a565b8015610808575b1561059a57600435602555602435602655005b50336001600160a01b0360055416146107f5565b3461055a57602036600319011261055a57600435610838612ab5565b156105d85761084633612b3a565b8015610876575b1561059a57670de0b6b3a76400009081810291818304149015171561087157603255005b612ce0565b50336001600160a01b03600554161461084d565b60a090600319011261055a576004359060243590604435906064359060843590565b3461055a576108ba3661088a565b906108c794929394612ab5565b156105d8576108d533612b3a565b801561094e575b1561059a576002936108ec612d91565b9586526020860152604085015260608401526001811461092c575b1461090e57005b8051603b556020810151603c556040810151603d5560600151603e55005b8251603755602083015160385560408301516039556060830151603a55610907565b50336001600160a01b0360055416146108dc565b6001600160a01b0381160361055a57565b3461055a5760208060031936011261055a576109f260043561099481610962565b6001600160a01b038060025416906040519216848301528382526109b7826126d5565b604051906109c4826126d5565b601182527f69735369676e657228616464726573732900000000000000000000000000000085830152612bf4565b919080610a50575b15610a26578181610a14926104ee94518301019101612aa0565b60405190151581529081906020820190565b60046040517f3204506f000000000000000000000000000000000000000000000000000000008152fd5b50808251146109fa565b3461055a5760e036600319011261055a57610a73612ab5565b156105d857610a8133612b3a565b8015610ad1575b1561059a57610a9860405161267c565b600435601655602435601755604435601855606435601955610abb608435601a55565b610ac660a435601b55565b61001660c435601c55565b50336001600160a01b036005541614610a88565b3461055a57602036600319011261055a57600460206001600160a01b0360005416604051928380926369e8d84b60e11b82525afa8015610bc057610b4391600091610b92575b50610b34612def565b90610b3d612e07565b90612ca2565b60315490670de0b6b3a764000091828102928184041490151715610871576104ee91610b7d610b8292610b7860043593612d16565b612cf6565b612d33565b6040519081529081906020820190565b610bb3915060203d8111610bb9575b610bab818361270d565b81019061272f565b38610b2b565b503d610ba1565b612747565b8015150361055a57565b3461055a57602036600319011261055a57600435610bec81610bc5565b610bf4612ab5565b156105d857610c0233612b3a565b8015610c23575b1561059a5760ff8019604654169115151617604655600080f35b50336001600160a01b036005541614610c09565b3461055a57600036600319011261055a57610c69610c5d6000546001600160a01b031690565b6001600160a01b031690565b604051907f97f3815a000000000000000000000000000000000000000000000000000000008252602082600481845afa918215610bc0576000926112f9575b50604051917fcfbffe53000000000000000000000000000000000000000000000000000000008352602083600481855afa928315610bc0576000936112d8575b50604051907fab6e844f000000000000000000000000000000000000000000000000000000008252602082600481865afa918215610bc0576000926112b7575b50604051917f14d8d024000000000000000000000000000000000000000000000000000000008352602083600481875afa928315610bc057600093611296575b50604051927fd1f956b1000000000000000000000000000000000000000000000000000000008452602084600481885afa938415610bc057600094611275575b50604051937fe61dfd58000000000000000000000000000000000000000000000000000000008552602085600481895afa948515610bc057600095611254575b506040517fe09d394d0000000000000000000000000000000000000000000000000000000081526020816004818a5afa908115610bc057600091611235575b506040517f52b06d640000000000000000000000000000000000000000000000000000000081526020816004818b5afa908115610bc057600091611216575b506040517f013cf08b00000000000000000000000000000000000000000000000000000000815260006004820152916020836024818c5afa928315610bc0576000936111f5575b50604051977f5e09dbe70000000000000000000000000000000000000000000000000000000089526020896004818d5afa948515610bc0576004996000966111d4575b5060208b6040519b8c80927faa0ddc160000000000000000000000000000000000000000000000000000000082525afa968715610bc05760049a6000986111b3575b5060208c6040519c8d80927f640274270000000000000000000000000000000000000000000000000000000082525afa988915610bc05760049b60009a611192575b5060208d6040519d8e80927f30125cf50000000000000000000000000000000000000000000000000000000082525afa9a8b15610bc0578d60049d60009d611170575b506020906040519e8f80927f24768d910000000000000000000000000000000000000000000000000000000082525afa9c8d15610bc05760009d61114f575b50604051809e81907f9dc969a80000000000000000000000000000000000000000000000000000000082525a92600491602094fa9d8e15610bc05760009e61112e575b50611042612753565b6001600160a01b0390911681529d8e906001600160a01b031660208201526040019061107691906001600160a01b03169052565b6001600160a01b031660608d01526001600160a01b031660808c01526001600160a01b031660a08b01526001600160a01b031660c08a01526001600160a01b031660e08901526001600160a01b03166101008801526001600160a01b03166101208701526001600160a01b03166101408601526001600160a01b03166101608501526001600160a01b03166101808401526001600160a01b03166101a08301526001600160a01b03166101c082015261001690612783565b611148919e5060203d602011610bb957610bab818361270d565b9c38611039565b611169919d5060203d602011610bb957610bab818361270d565b9b38610ff6565b6020919d5061118b90823d8411610bb957610bab818361270d565b9c90610fb7565b6111ac919a5060203d602011610bb957610bab818361270d565b9838610f74565b6111cd91985060203d602011610bb957610bab818361270d565b9638610f32565b6111ee91965060203d602011610bb957610bab818361270d565b9438610ef0565b61120f91935060203d602011610bb957610bab818361270d565b9138610ead565b61122f915060203d602011610bb957610bab818361270d565b38610e66565b61124e915060203d602011610bb957610bab818361270d565b38610e27565b61126e91955060203d602011610bb957610bab818361270d565b9338610de8565b61128f91945060203d602011610bb957610bab818361270d565b9238610da8565b6112b091935060203d602011610bb957610bab818361270d565b9138610d68565b6112d191925060203d602011610bb957610bab818361270d565b9038610d28565b6112f291935060203d602011610bb957610bab818361270d565b9138610ce8565b61131391925060203d602011610bb957610bab818361270d565b9038610ca8565b3461055a57600036600319011261055a576020602e54604051908152f35b3461055a57600036600319011261055a5760206001600160a01b0360005416604051908152f35b3461055a57602036600319011261055a57611378612ab5565b156105d85761138633612b3a565b801561139a575b1561059a57600435603655005b50336001600160a01b03600554161461138d565b3461055a57602036600319011261055a57600435600052601460205260606040600020805490600260018201549101549060405192835260208301526040820152f35b3461055a57600036600319011261055a576020602c54604051908152f35b3461055a57602036600319011261055a57611428612ab5565b156105d85761143633612b3a565b801561144a575b1561059a57600435602b55005b50336001600160a01b03600554161461143d565b3461055a57604036600319011261055a57611477612ab5565b156105d85761148533612b3a565b801561149f575b1561059a57600435602d55602435602e55005b50336001600160a01b03600554161461148c565b3461055a57600036600319011261055a576020603054604051908152f35b3461055a57602036600319011261055a57600460206001600160a01b0360005416604051928380926369e8d84b60e11b82525afa8015610bc057611526610b82916104ee93600091610b925750610b34612def565b6004356000526012602052610b78611542604060002054612d16565b612d16565b3461055a57600036600319011261055a576020602b54604051908152f35b3461055a57600036600319011261055a57604060275460285482519182526020820152f35b60c090600319011261055a57600435906024359060443590606435906084359060a43590565b3461055a576115be3661158a565b906115ca959295612ab5565b156105d8576115d833612b3a565b801561169b575b1561059a576010831015611657576100169561162894604051966116028861269d565b875260208701526040860152606085015260808401526000526015602052604060002090565b906080600491805184556020810151600185015560408101516002850155606081015160038501550151910155565b606460405162461bcd60e51b815260206004820152600d60248201527f696e76616c6964206c6576656c000000000000000000000000000000000000006044820152fd5b50336001600160a01b0360055416146115df565b3461055a57602036600319011261055a576004356000526015602052604060002080546104ee6001830154926002810154906004600382015491015491604051958695869192608093969594919660a084019784526020840152604083015260608201520152565b3461055a57600036600319011261055a57601d54601e54601f546020805460408051958652918501939093528301526060820152608090f35b3461055a57602036600319011261055a57611769612ab5565b156105d85761177733612b3a565b801561178b575b1561059a57600435603055005b50336001600160a01b03600554161461177e565b3461055a57602036600319011261055a5760043560005260126020526020604060002054604051908152f35b3461055a57602036600319011261055a576004356117e881610bc5565b6117f0612ab5565b156105d8576117fe33612b3a565b801561181f575b1561059a5760ff8019602954169115151617602955600080f35b50336001600160a01b036005541614611805565b3461055a57602036600319011261055a5761184c612ab5565b156105d85761185a33612b3a565b801561186e575b1561059a57600435603555005b50336001600160a01b036005541614611861565b3461055a57600036600319011261055a576020603554604051908152f35b3461055a5760c036600319011261055a576004356118bd81610962565b6064356118c981610962565b6118d1612ab5565b156105d8576118df33612b3a565b8015611930575b1561059a576001600160a01b0390816001600160a01b0319931683603f541617603f556024356040556044356041551690604254161760425560843560435560a435604455600080f35b50336001600160a01b0360055416146118e6565b3461055a57602036600319011261055a57600460206001600160a01b0360005416604051928380926369e8d84b60e11b82525afa908115610bc0576119ab6119a36104ee93670de0b6b3a764000093600091610b925750610b34612def565b600435612d33565b04604051918291829190602083019252565b3461055a57600036600319011261055a5760206001600160a01b0360015416604051908152f35b3461055a57600036600319011261055a576020603254604051908152f35b3461055a57602036600319011261055a57611a1b612ab5565b156105d857611a2933612b3a565b8015611a3d575b1561059a57600435602c55005b50336001600160a01b036005541614611a30565b3461055a57600036600319011261055a57603754603854603954603a54604080519485526020850193909352918301526060820152608090f35b6102a0810192916000915b60078310611aa357505050565b60019060608351918251815260209283810151848301526040809101519082015201920192019190611a96565b3461055a57600080600319360112611ca4576040908151611af08161267c565b815b60e08110611c7f576104ee84611b06612774565b6001600052601460205290611b3f7fb6c61a840592cc84133e4b25bd509abf4659307c57b160799b38490a5aa48f2c612dc7565b612dc7565b825260026000526014602052611b747fa1930aa930426c54c34daad2b9ada7c5d0ef0c96078a3c5bb79f6fa6602c4a7a612dc7565b6020830152611b91611b3a60036000526014602052604060002090565b8282015260046000526014602052611bc87f52102136546d97ed3f65ec1070a32935d3048ea12f310d29c378dc9d6555c0d6612dc7565b606083015260056000526014602052611c007f116126bec5aaa49b347e966c49378cf0c441de9121e306ea3d824584a9615aa2612dc7565b608083015260066000526014602052611c387fe1f6b6a5fb7e47dad87547d4b0671e7e995a1dae22fbe5b3b5d10e2a77ed7aff612dc7565b60a083015260076000526014602052611c707f904977a779b22381a36c6463d4166ef55ee8cb3392c83093cb1750f1a00c9d94612dc7565b60c08301525191829182611a8b565b6020908451611c8d816126b9565b848152848382015284868201528184015201611af2565b80fd5b3461055a57600036600319011261055a576020602554604051908152f35b3461055a57604036600319011261055a57611cde612ab5565b156105d857611cec33612b3a565b8015611d11575b1561059a57611d036040516126d5565b600435602755602435602855005b50336001600160a01b036005541614611cf3565b3461055a57600036600319011261055a57603b54603c54603d54603e54604080519485526020850193909352918301526060820152608090f35b3461055a57600036600319011261055a576020611dcc6001600160a01b0360065416604051611d8d816126d5565b601381527f67657464656c656761746f72436f756e742829000000000000000000000000008482015260405191611dc3836126f1565b60008352612ca2565b604051908152f35b3461055a57600036600319011261055a576020602d54604051908152f35b3461055a57600036600319011261055a57614d5842018042116108715761025890047f000000000000000000000000000000000000000000000000000000000000000081039081116108715761012b90810180911161087157602090604051908152f35b3461055a57602036600319011261055a576004356000526013602052604060002080546104ee6001830154926002810154906004600382015491015491604051958695869192608093969594919660a084019784526020840152604083015260608201520152565b3461055a57600036600319011261055a576020602a54604051908152f35b3461055a57602036600319011261055a576020611f03600435611efe81610962565b612b3a565b6040519015158152f35b3461055a57600036600319011261055a57602060ff604654166040519015158152f35b3461055a57600036600319011261055a57602154602254602354602454604080519485526020850193909352918301526060820152608090f35b3461055a57602036600319011261055a57600435611f86612ab5565b156105d8576001600160a01b0360055416330361059a5760009060046020611fb8610c5d85546001600160a01b031690565b604051928380927f46f991ac0000000000000000000000000000000000000000000000000000000082525afa8015610bc0578380848194938294839161205a575b505af1612004612bc4565b5015610a26577fcdcc745fe377b103b45fa0cec23ae3ef93d6fc6a84a01f0d18c40b354dd1d5d8612054612043610c5d600b546001600160a01b031690565b604051938452929081906020820190565b0390a280f35b612072915060203d8111610bb957610bab818361270d565b38611ff9565b3461055a57602036600319011261055a5760043561209581610962565b803b60006120a282612a84565b926120b0604051948561270d565b82845260208401903c602d8151106120d457602a602091015160601c604051908152f35b60046040517fbaf3f0f7000000000000000000000000000000000000000000000000000000008152fd5b3461055a57608036600319011261055a5760043561211a612ab5565b156105d85761212833612b3a565b8015612187575b1561059a5761214060088210612d46565b60026040519161214f836126b9565b602435835260208301604435815260408401916064358352600052601460205260406000209351845551600184015551910155600080f35b50336001600160a01b03600554161461212f565b3461055a57600036600319011261055a5760c06001600160a01b0380603f5416906040549060415490604254166043549160445493604051958652602086015260408501526060840152608083015260a0820152f35b3461055a57600036600319011261055a576020602654604051908152f35b3461055a5760208060031936011261055a576104ee906004359061223282610962565b6122966001600160a01b0392836006541693604051911683820152828152612259816126d5565b604051612265816126d5565b601881527f697364656c656761746f724e6f6465286164647265737329000000000000000084820152600094612bf4565b9190806122d0575b6122b7575b505060405190151581529081906020820190565b6122c992508082518301019101612aa0565b38806122a3565b508082511461229e565b3461055a57600036600319011261055a576020611f03612ab5565b3461055a576123033661088a565b9061231094929394612ab5565b156105d85761231e33612b3a565b801561239d575b1561059a57600293612335612d91565b95865260208601526040850152606084015260018114612375575b1461235757005b80516021556020810151602255604081015160235560600151602455005b612398836060908051601d556020810151601e556040810151601f550151602055565b612350565b50336001600160a01b036005541614612325565b3461055a57602036600319011261055a576123ca612ab5565b156105d8576123d833612b3a565b80156123ec575b1561059a57600435603155005b50336001600160a01b0360055416146123df565b3461055a5761240e3661158a565b9161241a959395612ab5565b156105d85761242833612b3a565b8015612497575b1561059a5761001695604051956124458761269d565b8652602086015260408501526060840152608083015260005260136020526040600020906080600491805184556020810151600185015560408101516002850155606081015160038501550151910155565b50336001600160a01b03600554161461242f565b3461055a57602036600319011261055a576124c4612ab5565b156105d8576124d233612b3a565b80156124e6575b1561059a57600435604555005b50336001600160a01b0360055416146124d9565b3461055a57604036600319011261055a57600435612516612ab5565b156105d85761252433612b3a565b8015612552575b1561059a5761253c60088210612d46565b6000526012602052602435604060002055600080f35b50336001600160a01b03600554161461252b565b3461055a57602036600319011261055a57600435600460206001600160a01b0360005416604051928380926369e8d84b60e11b82525afa8015610bc0576125b791600091610b925750610b34612def565b90670de0b6b3a764000090818102918183041490151715610871576104ee91610b8291612cf6565b3461055a57600036600319011261055a57602060ff602954166040519015158152f35b3461055a57600036600319011261055a576020611dcc6001600160a01b0360035416604051612630816126d5565b600681527f69416765282900000000000000000000000000000000000000000000000000008482015260405191611dc3836126f1565b634e487b7160e01b600052604160045260246000fd5b60e0810190811067ffffffffffffffff82111761269857604052565b612666565b60a0810190811067ffffffffffffffff82111761269857604052565b6060810190811067ffffffffffffffff82111761269857604052565b6040810190811067ffffffffffffffff82111761269857604052565b6020810190811067ffffffffffffffff82111761269857604052565b90601f8019910116810190811067ffffffffffffffff82111761269857604052565b9081602091031261055a575161274481610962565b90565b6040513d6000823e3d90fd5b604051906101e0820182811067ffffffffffffffff82111761269857604052565b604051906127818261267c565b565b612a686101c0612781926127bd6127a182516001600160a01b031690565b6001600160a01b03166001600160a01b03196002541617600255565b6127f06127d460208301516001600160a01b031690565b6001600160a01b03166001600160a01b03196003541617600355565b61282361280760408301516001600160a01b031690565b6001600160a01b03166001600160a01b03196004541617600455565b61285661283a60608301516001600160a01b031690565b6001600160a01b03166001600160a01b03196005541617600555565b61288961286d60808301516001600160a01b031690565b6001600160a01b03166001600160a01b03196006541617600655565b6128bc6128a060a08301516001600160a01b031690565b6001600160a01b03166001600160a01b03196007541617600755565b6128ef6128d360c08301516001600160a01b031690565b6001600160a01b03166001600160a01b03196008541617600855565b61292261290660e08301516001600160a01b031690565b6001600160a01b03166001600160a01b03196009541617600955565b61295661293a6101008301516001600160a01b031690565b6001600160a01b03166001600160a01b0319600a541617600a55565b61298a61296e6101208301516001600160a01b031690565b6001600160a01b03166001600160a01b0319600b541617600b55565b6129be6129a26101408301516001600160a01b031690565b6001600160a01b03166001600160a01b0319600c541617600c55565b6129f26129d66101608301516001600160a01b031690565b6001600160a01b03166001600160a01b0319600d541617600d55565b612a26612a0a6101808301516001600160a01b031690565b6001600160a01b03166001600160a01b0319600e541617600e55565b612a5a612a3e6101a08301516001600160a01b031690565b6001600160a01b03166001600160a01b0319600f541617600f55565b01516001600160a01b031690565b6001600160a01b03166001600160a01b03196010541617601055565b67ffffffffffffffff811161269857601f01601f191660200190565b9081602091031261055a575161274481610bc5565b612b106001600160a01b0360025416604051612ad0816126d5565b600881527f6973536166652829000000000000000000000000000000000000000000000000602082015260405191612b07836126f1565b60008352612bf4565b9080612b2f575b15610a26578060208061274493518301019101612aa0565b506020815114612b17565b612b9d6001600160a01b038060025416604051916020941684830152838252612b62826126d5565b60405190612b6f826126d5565b601582527f697353656375726542617365286164647265737329000000000000000000000085830152612bf4565b9080612bba575b15610a2657816127449282518301019101612aa0565b5081815114612ba4565b3d15612bef573d90612bd582612a84565b91612be3604051938461270d565b82523d6000602084013e565b606090565b9190823b15612c89577fffffffff00000000000000000000000000000000000000000000000000000000815160208093012016916040519180830193845281519160005b838110612c75575050509181612c656024826000979596889701878382015203600481018452018261270d565b51915afa612c71612bc4565b9091565b818101830151858201602401528201612c38565b505050600090604051612c9b816126f1565b6000815290565b9291612cb091600094612bf4565b9080612cd5575b612cbe5750565b90915060208180518101031261055a576020015190565b506020815114612cb7565b634e487b7160e01b600052601160045260246000fd5b8115612d00570490565b634e487b7160e01b600052601260045260246000fd5b90670de0b6b3a76400009182810292818404149015171561087157565b8181029291811591840414171561087157565b15612d4d57565b606460405162461bcd60e51b815260206004820152600c60248201527f696e76616c69642072616e6b00000000000000000000000000000000000000006044820152fd5b604051906080820182811067ffffffffffffffff8211176126985760405260006060838281528260208201528260408201520152565b90604051612dd4816126b9565b60406002829480548452600181015460208501520154910152565b604051612dfb816126f1565b60008152906000368137565b60405190612e14826126d5565b601282527f6f7a6f6e655072696365496e5553445428290000000000000000000000000000602083015256fea264697066735822122055c84c8522c2fa0c533a5e5cb46feb5f713e9a2077b9c31d76f65a299127c1b964736f6c63430008140033","linkReferences":{}},"methodIdentifiers":{"Burn(uint256)":"b90306ad","NFTAgePointer()":"9f70207d","NFTSendPerCycle()":"438fe192","StartAgePointerLEQ()":"dbad649c","_delegatorCount()":"a1f7f539","_getImplementation(address)":"c54e44b0","_isDelegatorNode(address)":"e01ad5fd","_isSafe()":"e0a9bc2b","_isSecureBase(address)":"af484526","_isSigner(address)":"1f185d16","allowForceTransfer()":"b49c064c","burncnfg()":"d0bb2ddf","capping()":"5640dbfc","computeDollarToOzone(uint256)":"f7a9783e","computeMintValue(uint256)":"26c5adae","computeOzoneToDollar(uint256)":"840bbc1e","computeTour(uint256)":"541d7667","eachclaimCycle()":"7bc908c6","freeIntervals()":"af0b21d3","getBalance()":"12065fe0","getBatchRoyaltyClauses()":"9eb8b44e","getHexbase()":"3b9b7955","getNftPool(uint256,uint256)":"04ce9f80","iAge()":"ac14611a","levelClause(uint256)":"5962205f","maxClaimPerDay()":"15a544ed","maxGlobalClaimPerDay()":"91fc8aa8","maxMintQty()":"3688236d","maxMintsPerCycle()":"53423e86","maxNFTSend()":"54541683","minClaimPerDay()":"1605aed9","minMintQty()":"a88fcea6","mintCycleDays()":"0ea0d222","mintFeePerQty()":"07175c83","owner()":"8da5cb5b","pool()":"16f0115b","poolNFT1()":"5a0e9038","poolNFT2()":"b85f1f8d","rankClause(uint256)":"aebcd32a","rankforDAO()":"0b225f1a","royalityClause(uint256)":"4151331d","sessionTTLSeconds()":"0aa4b750","setAllowForceTransfer(bool)":"298fc460","setBurnConfig(address,uint256,uint256,address,uint256,uint256)":"82a3c503","setCapping(uint256,uint256)":"a03cbb20","setClaimPerDay(uint256,uint256)":"09307c62","setCoinPool(uint256,uint256,uint256,uint256,uint256,uint256,uint256)":"203bab66","setFreeIntervals(uint256)":"0609a0e3","setGlobalClaimPerDay(uint256)":"192b48ee","setMaxMintsPerCycle(uint256)":"6c7deb5d","setMaxNFTSend(uint256)":"44ec16bc","setMintCycleDays(uint256)":"14be92a5","setMintFee(uint256)":"eddd0d9c","setMintQty(uint256,uint256)":"4b62954f","setNFTAgePointer(uint256,uint256)":"179b570a","setNFTSendPerCycle(uint256)":"9319d0b5","setNftPool(uint256,uint256,uint256,uint256,uint256)":"e19a5bcf","setRoyalityClause(uint256,uint256,uint256,uint256)":"c5a136d4","setSessionTTL(uint256)":"3eb71c06","setTourClause(uint256,uint256)":"f4fe8e3c","setValidatorPool(uint256,uint256,uint256,uint256,uint256)":"1ef6a864","setclaimCycle(uint256)":"78ef376f","setlevelClause(uint256,uint256,uint256,uint256,uint256,uint256)":"592a02a8","setrankClause(uint256,uint256,uint256,uint256,uint256,uint256)":"f27c35c6","setrankforDAO(uint256)":"f2a6bbc7","setshutdown(bool)":"7687e371","shutdown()":"fc0e74d1","syncBaseAddr()":"339459a6","systemAge()":"fdc10bc9","tourClause(uint256)":"6f092c5e","valExternal()":"a19841dd","valInternal()":"9d80ab9b"},"id":117}