{"abi":[{"type":"constructor","inputs":[],"stateMutability":"nonpayable"},{"type":"fallback","stateMutability":"payable"},{"type":"receive","stateMutability":"payable"},{"type":"function","name":"Burn","inputs":[{"name":"amount","type":"uint256","internalType":"uint256"}],"outputs":[],"stateMutability":"payable"},{"type":"function","name":"_setOwner","inputs":[{"name":"own","type":"address","internalType":"address"},{"name":"isApproved","type":"bool","internalType":"bool"}],"outputs":[],"stateMutability":"nonpayable"},{"type":"function","name":"_setReq","inputs":[{"name":"own","type":"address","internalType":"address"}],"outputs":[],"stateMutability":"nonpayable"},{"type":"function","name":"at","inputs":[{"name":"_addr","type":"address","internalType":"address"}],"outputs":[{"name":"o_code","type":"bytes","internalType":"bytes"}],"stateMutability":"view"},{"type":"function","name":"getBalance","inputs":[],"outputs":[{"name":"","type":"uint256","internalType":"uint256"}],"stateMutability":"view"},{"type":"function","name":"isAccountSafeOwner","inputs":[{"name":"sender","type":"address","internalType":"address"}],"outputs":[{"name":"","type":"bool","internalType":"bool"}],"stateMutability":"view"},{"type":"function","name":"isOwnerOrSafeOwner","inputs":[{"name":"sender","type":"address","internalType":"address"}],"outputs":[{"name":"","type":"bool","internalType":"bool"}],"stateMutability":"view"},{"type":"function","name":"owner","inputs":[],"outputs":[{"name":"","type":"address","internalType":"address"}],"stateMutability":"view"},{"type":"function","name":"req","inputs":[],"outputs":[{"name":"newowner","type":"address","internalType":"address"},{"name":"isReq","type":"bool","internalType":"bool"},{"name":"isVer1","type":"bool","internalType":"bool"},{"name":"isVer2","type":"bool","internalType":"bool"},{"name":"isVer3","type":"bool","internalType":"bool"}],"stateMutability":"view"},{"type":"function","name":"setParam","inputs":[{"name":"s","type":"address","internalType":"address"},{"name":"r","type":"address","internalType":"address"},{"name":"m","type":"address","internalType":"address"},{"name":"f","type":"address","internalType":"address"},{"name":"t","type":"address","internalType":"address"}],"outputs":[],"stateMutability":"nonpayable"},{"type":"function","name":"withdraw","inputs":[{"name":"to","type":"address","internalType":"address"},{"name":"amount","type":"uint256","internalType":"uint256"}],"outputs":[],"stateMutability":"payable"}],"bytecode":{"object":"0x608060405234801561001057600080fd5b506100f4600080546001600160a01b03199081167360c95eb879eec03a0af4528a16f192e61a198f401790915560018054821673f134e58248ab8380e911d36c21e1015e5e84814117905560028054821673c0cee8b561cc4f60869776ca5b0b7a295e04f5af17905560038054821673d03060e8ed7754aeed63e4e56b0457662d8164aa17905560048054821673648565deb50c503ef59860d92942eaece0c3e17217905560058054821673a6275eb780ca9eff45d64bad4936d168f51d788017905560068054909116736c96f2d0c9a8b7fb472a319b1ecf7e8626c7b2ba179055565b600780546001600160a01b03191632179055610fa1806101156000396000f3fe60806040526004361061009a5760003560e01c8063abb8c96511610061578063abb8c965146101bf578063b0751823146101df578063b90306ad146101ff578063c3bd18c314610212578063dce4a44714610232578063f3fef3a31461025f57005b80630d43aaf2146100a357806312065fe01461012c578063379a423c1461014757806341ffe7c4146101775780638da5cb5b1461019757005b366100a157005b005b3480156100af57600080fd5b506008546100ed906001600160a01b0381169060ff600160a01b8204811691600160a81b8104821691600160b01b8204811691600160b81b90041685565b604080516001600160a01b03909616865293151560208601529115159284019290925290151560608301521515608082015260a0015b60405180910390f35b34801561013857600080fd5b50604051478152602001610123565b34801561015357600080fd5b50610167610162366004610cc7565b610272565b6040519015158152602001610123565b34801561018357600080fd5b506100a1610192366004610cc7565b6102ff565b3480156101a357600080fd5b506007546040516001600160a01b039091168152602001610123565b3480156101cb57600080fd5b506100a16101da366004610cfa565b6104f7565b3480156101eb57600080fd5b506100a16101fa366004610d31565b61080a565b6100a161020d366004610d96565b6109d8565b34801561021e57600080fd5b5061016761022d366004610cc7565b610ab2565b34801561023e57600080fd5b5061025261024d366004610cc7565b610b21565b6040516101239190610dd3565b6100a161026d366004610e06565b610b52565b600080546040516319c0642960e01b81526001600160a01b038481166004830152909116906319c0642990602401602060405180830381865afa1580156102bd573d6000803e3d6000fd5b505050506040513d601f19601f820116820180604052508101906102e19190610e30565b806102f957506007546001600160a01b038381169116145b92915050565b600054604051637df73e2760e01b81523360048201819052916001600160a01b031690637df73e2790602401602060405180830381865afa158015610348573d6000803e3d6000fd5b505050506040513d601f19601f8201168201806040525081019061036c9190610e30565b6103915760405162461bcd60e51b815260040161038890610e4d565b60405180910390fd5b600080546040516307612f9160e21b81523360048201526001600160a01b0390911690631d84be44906024016020604051808303816000875af11580156103dc573d6000803e3d6000fd5b505050506040513d601f19601f820116820180604052508101906104009190610e74565b90506104336040805160a08101825260008082526020820181905291810182905260608101829052608081019190915290565b60016020820181905282900361044b57600160408201525b8160020361045b57600160608201525b8160030361046b57600160808201525b6001600160a01b03909316808452600880546020860151604087015160608801516080909801511515600160b81b0260ff60b81b19981515600160b01b0260ff60b01b19921515600160a81b029290921661ffff60a81b19931515600160a01b026001600160a81b03199095169096179390931791909116939093179290921794909416179092555050565b600054604051637df73e2760e01b81523360048201819052916001600160a01b031690637df73e2790602401602060405180830381865afa158015610540573d6000803e3d6000fd5b505050506040513d601f19601f820116820180604052508101906105649190610e30565b6105805760405162461bcd60e51b815260040161038890610e4d565b81156107cd57600080546040516307612f9160e21b81523360048201526001600160a01b0390911690631d84be44906024016020604051808303816000875af11580156105d1573d6000803e3d6000fd5b505050506040513d601f19601f820116820180604052508101906105f59190610e74565b600854909150600160a01b900460ff1680156106115750806001145b801561062a57506008546001600160a01b038581169116145b15610643576008805460ff60a81b1916600160a81b1790555b600854600160a01b900460ff16801561065c5750806002145b801561067557506008546001600160a01b038581169116145b1561068e576008805460ff60b01b1916600160b01b1790555b600854600160a01b900460ff1680156106a75750806003145b80156106c057506008546001600160a01b038581169116145b156106d9576008805460ff60b81b1916600160b81b1790555b600854600090600160a81b900460ff16156106fc57806106f881610e8d565b9150505b600854600160b01b900460ff161561071c578061071881610e8d565b9150505b600854600160b81b900460ff161561073c578061073881610e8d565b9150505b600854600160a01b900460ff1680156107555750806002145b801561076e57506008546001600160a01b038681169116145b156107c657600780546001600160a01b0319166001600160a01b0387161790556040805160a0810182526000808252602082018190529181018290526060810182905260800152600880546001600160c01b03191690555b5050505050565b6040805160a0810182526000808252602082018190529181018290526060810182905260800152600880546001600160c01b03191690555b505050565b60008054906101000a90046001600160a01b03166001600160a01b0316636a276f9d6040518163ffffffff1660e01b8152600401602060405180830381865afa15801561085b573d6000803e3d6000fd5b505050506040513d601f19601f8201168201806040525081019061087f9190610e30565b6108cb5760405162461bcd60e51b815260206004820152601a60248201527f496e76616c6964205361666567756172642e69735361666528290000000000006044820152606401610388565b6000546040516319c0642960e01b81523360048201819052916001600160a01b0316906319c0642990602401602060405180830381865afa158015610914573d6000803e3d6000fd5b505050506040513d601f19601f820116820180604052508101906109389190610e30565b6109785760405162461bcd60e51b815260206004820152601160248201527024b73b30b634b21029b0b332a7bbb732b960791b6044820152606401610388565b50600080546001600160a01b03199081166001600160a01b03978816179091556001805482169587169590951790945560028054851693861693909317909255600680548416918516919091179055600480549092169216919091179055565b6000546040516319c0642960e01b81523260048201819052916001600160a01b0316906319c0642990602401602060405180830381865afa158015610a21573d6000803e3d6000fd5b505050506040513d601f19601f82011682018060405250810190610a459190610e30565b610a855760405162461bcd60e51b815260206004820152601160248201527024b73b30b634b21029b0b332a7bbb732b960791b6044820152606401610388565b60405160009083156108fc0290849083818181858288f19350505050158015610805573d6000803e3d6000fd5b60008054604051633f978d1f60e11b81526001600160a01b03848116600483015290911690637f2f1a3e90602401602060405180830381865afa158015610afd573d6000803e3d6000fd5b505050506040513d601f19601f820116820180604052508101906102f99190610e30565b6060610b2c82610c7d565b604051602001610b3c9190610eb4565b6040516020818303038152906040529050919050565b600054604051637df73e2760e01b81523260048201819052916001600160a01b031690637df73e2790602401602060405180830381865afa158015610b9b573d6000803e3d6000fd5b505050506040513d601f19601f82011682018060405250810190610bbf9190610e30565b610bdb5760405162461bcd60e51b815260040161038890610e4d565b826001600160a01b038116610c025760405162461bcd60e51b815260040161038890610f43565b3280610c205760405162461bcd60e51b815260040161038890610f43565b3380610c3e5760405162461bcd60e51b815260040161038890610f43565b6040516001600160a01b0387169086156108fc029087906000818181858888f19350505050158015610c74573d6000803e3d6000fd5b50505050505050565b6060816001600160a01b0316803b806020016040519081016040528181526000908060200190933c92915050565b80356001600160a01b0381168114610cc257600080fd5b919050565b600060208284031215610cd957600080fd5b610ce282610cab565b9392505050565b8015158114610cf757600080fd5b50565b60008060408385031215610d0d57600080fd5b610d1683610cab565b91506020830135610d2681610ce9565b809150509250929050565b600080600080600060a08688031215610d4957600080fd5b610d5286610cab565b9450610d6060208701610cab565b9350610d6e60408701610cab565b9250610d7c60608701610cab565b9150610d8a60808701610cab565b90509295509295909350565b600060208284031215610da857600080fd5b5035919050565b60005b83811015610dca578181015183820152602001610db2565b50506000910152565b6020815260008251806020840152610df2816040850160208701610daf565b601f01601f19169190910160400192915050565b60008060408385031215610e1957600080fd5b610e2283610cab565b946020939093013593505050565b600060208284031215610e4257600080fd5b8151610ce281610ce9565b6020808252600d908201526c24b73b30b634b21027bbb732b960991b604082015260600190565b600060208284031215610e8657600080fd5b5051919050565b600060018201610ead57634e487b7160e01b600052601160045260246000fd5b5060010190565b60008251610ec6818460208701610daf565b730468e8dc225c4746454419c9dcccb59a581434b160631b92019182525073d416952dc46fce2775e90571d46a79565d04cb2560601b602082015273094c37fb9b5b2065409a5c7cb9bff71c4d49bf4160601b604082015273fe69687ce9c746c10e1c2af1e3f5d1475df4300f60601b6060820152607401919050565b6020808252600e908201526d3232b330bab63a1039b2b73232b960911b60408201526060019056fea264697066735822122084748561ac1078b99cd318bc4da5e4a07c162e8af5bd48165e175bf0f589c53a64736f6c63430008140033","linkReferences":{}},"methodIdentifiers":{"Burn(uint256)":"b90306ad","_setOwner(address,bool)":"abb8c965","_setReq(address)":"41ffe7c4","at(address)":"dce4a447","getBalance()":"12065fe0","isAccountSafeOwner(address)":"c3bd18c3","isOwnerOrSafeOwner(address)":"379a423c","owner()":"8da5cb5b","req()":"0d43aaf2","setParam(address,address,address,address,address)":"b0751823","withdraw(address,uint256)":"f3fef3a3"},"id":1}