{"abi":[{"type":"constructor","inputs":[{"name":"_hex","type":"address","internalType":"address"}],"stateMutability":"nonpayable"},{"type":"function","name":"instanceStor","inputs":[],"outputs":[{"name":"","type":"address","internalType":"address"}],"stateMutability":"view"}],"bytecode":{"object":"0x6080346100c5576001600160401b0390601f6170cc38819003918201601f1916830191848311848410176100af578084926020946040528339810103126100c557516001600160a01b039190828116908190036100c55760405191616f7390818401908111848210176100af576020928492610159843981520301906000f080156100a3571660018060a01b03196000541617600055604051608e90816100cb8239f35b6040513d6000823e3d90fd5b634e487b7160e01b600052604160045260246000fd5b600080fdfe6080806040526004361015601257600080fd5b600090813560e01c63131c73ad14602857600080fd5b346054578160031936011260545773ffffffffffffffffffffffffffffffffffffffff60209254168152f35b5080fdfea264697066735822122093f3aa83ecb1d775de2e5f7321dc2bd421a01d8eb6b0dbdd8907be8fcbae879964736f6c63430008140033608034620000b757601f62006f7338819003918201601f19168301916001600160401b03831184841017620000bc57808492602094604052833981010312620000b757516001600160a01b03811690819003620000b7578015620000a55760018060a01b0319903382600154161760015560009182541617815560016011558060125580601355806014558060155580601655601755604051616ea09081620000d38239f35b60405163e6c4247b60e01b8152600490fd5b600080fd5b634e487b7160e01b600052604160045260246000fdfe60806040526004361015610018575b361561001657005b005b60003560e01c806302a085f214610338578063043719b41461033357806309d8da2e1461032e5780630b98f9751461032957806312065fe014610324578063129641201461031f578063141ca6601461031a578063143ec3b7146103155780631f185d161461031057806329ee350e1461030b578063339459a61461030657806339b4d61b146103015780633b9b7955146102fc57806343a1b5ab146102f75780634a65786c146102f257806352902c59146102ed5780635640dbfc146102e85780635ecf6a8a146102e3578063619d5194146102de5780636350b2c2146102d957806369245009146102d45780636de97c66146102cf5780636f493aad146102ca57806370878d04146102c5578063725b6fff146102c0578063759f22bd146102bb57806375b4d78c146102b65780637b058ac1146102b1578063822ffec4146102ac578063880cdc31146102a75780638da5cb5b146102a2578063934209ce1461029d5780639659867e14610298578063a1f7f53914610293578063a5d7cda41461028e578063a663030414610289578063a9bf285b14610284578063af4845261461027f578063af640d0f1461027a578063b90306ad14610275578063bab2f55214610270578063c54e44b01461026b578063c8ef7b1a14610266578063d2a1590414610261578063d3a1a4991461025c578063da02133514610257578063deb1ba1e14610252578063e01ad5fd1461024d578063e0a9bc2b146102485763fdc10bc90361000e57611f44565b611f29565b611ea9565b611e2f565b611da8565b611d7c565b611d37565b611cd0565b611c98565b611c7a565b611b79565b611b5b565b611b2a565b611b0c565b611520565b611154565b6110df565b6110c1565b6110a3565b61107c565b611000565b610dc3565b610c92565b610c74565b610bbe565b610b3a565b610b1e565b610ae4565b610a52565b6109f9565b6109a2565b61093a565b610917565b6108bc565b6107d1565b6107ab565b61078d565b610766565b61073a565b610721565b6106e8565b610601565b6105c4565b610568565b61051c565b610500565b61048f565b61046c565b610430565b61036c565b610120810192916000915b6009831061035557505050565b600190825181526020809101920192019190610348565b60408060031936011261042b5780519061038582611fb2565b61012036833760ff6018541661041b5761039d6168da565b1561040b576103ab3361695f565b80156103f7575b156103e7576103d36103e3926103c661276d565b6024359060043590612932565b906001601155519182918261033d565b0390f35b6004905163ea8e4eb560e01b8152fd5b50336001600160a01b0360055416146103b2565b60049051634ee2123760e11b8152fd5b600490516334c2d01160e11b8152fd5b600080fd5b3461042b57604036600319011261042b576004356000526030602052602061045e6024356040600020612289565b90546040519160031b1c8152f35b3461042b57600036600319011261042b57602060ff601854166040519015158152f35b3461042b57602036600319011261042b576104a86168da565b156104ef576104b63361695f565b80156104db575b156104ca57600435601955005b600460405163ea8e4eb560e01b8152fd5b50336001600160a01b0360055416146104bd565b6004604051634ee2123760e11b8152fd5b3461042b57600036600319011261042b57602047604051908152f35b3461042b57604036600319011261042b5761053b602435600435615a9d565b60405190600090825b600783106105515760e084f35b600190825181526020809101920192019190610544565b602036600319011261042b5761057c6168da565b156104ef5761058a3361695f565b80156105b0575b156104ca5761059e61276d565b6105a960043561342b565b6001601155005b50336001600160a01b036005541614610591565b3461042b57602036600319011261042b5760043560005260306020526020604060002054604051908152f35b6001600160a01b0381160361042b57565b3461042b5760208060031936011261042b57610680600435610622816105f0565b6001600160a01b0380600254169060405192168483015283825261064582611fcf565b6040519061065282611fcf565b601182527f69735369676e657228616464726573732900000000000000000000000000000085830152616b3f565b9190806106de575b156106b45781816106a2926103e3945183010191016168c5565b60405190151581529081906020820190565b60046040517f3204506f000000000000000000000000000000000000000000000000000000008152fd5b5080825114610688565b3461042b57600036600319011261042b57601f54600881101561071c57602181015460408051928352602083019190915290f35b611d54565b3461042b57600036600319011261042b576100166161ff565b3461042b57602036600319011261042b57600435600052602a6020526020604060002054604051908152f35b3461042b57600036600319011261042b5760206001600160a01b0360005416604051908152f35b3461042b57600036600319011261042b576020602d54604051908152f35b3461042b57600036600319011261042b57602060ff60185460081c166040519015158152f35b3461042b57606036600319011261042b576004356107ee816105f0565b6024356107fa816105f0565b6001600160a01b038092169081158080156108b2575b61089a5761087057610862916000938454826001600160a01b03198216178655167fe939feee179e631422bcc8f6e6d7d908cb3f8af38f5372f17c77e15aea5c80ee8580a361085d612124565b616a3b565b61086d604435601b55565b80f35b60046040517fe6c4247b000000000000000000000000000000000000000000000000000000008152fd5b6024604051635258db5f60e01b815260016004820152fd5b5083821615610810565b3461042b57600036600319011261042b5760c060315460ff60325460335490604051938452602084015281811615156040840152818160081c1615156060840152818160101c161515608084015260181c16151560a0820152f35b3461042b57600036600319011261042b57610016612124565b8015150361042b57565b3461042b57602036600319011261042b5760043561095781610930565b61095f6168da565b156104ef5761096d3361695f565b801561098e575b156104ca5760ff8019601854169115151617601855600080f35b50336001600160a01b036005541614610974565b3461042b57602036600319011261042b57600435600052602c602052608060406000208054906001810154906001600160a01b03600360028301549201541691604051938452602084015260408301526060820152f35b3461042b57600036600319011261042b576020601e54604051908152f35b6020908160408183019282815285518094520193019160005b828110610a3e575050505090565b835185529381019392810192600101610a30565b3461042b57600036600319011261042b57601f546001810190818111610adf57610a7b82615e82565b91610a896040519384612023565b808352610a98601f1991615e82565b0136602084013760005b81811115610ab857604051806103e38582610a17565b600881101561071c5780610ada9160210154610ad48286615eea565b5261237a565b610aa2565b612364565b3461042b57604036600319011261042b57600435600052602e60205260406000206024356000526020526020604060002054604051908152f35b3461042b57602036600319011261042b576100166004356123b2565b3461042b57600036600319011261042b576020601c54604051908152f35b6020908160408183019282815285518094520193019160005b828110610b7f575050505090565b9091929382608082610bb26001948951606080918051845260208101516020850152604081015160408501520151910152565b01950193929101610b71565b3461042b57604036600319011261042b57600435602435808211610c5c57818103908111610adf5760018101809111610adf57610bfa81615e9a565b9160005b828110610c1357604051806103e38682610b58565b80610c3c610c37610c27610c5794866123a5565b600052602f602052604060002090565b615e50565b610c468287615eea565b52610c518186615eea565b5061237a565b610bfe565b6024604051635258db5f60e01b8152600d6004820152fd5b3461042b57600036600319011261042b576020601954604051908152f35b3461042b5760a036600319011261042b57604435602435600435608435610cb881610930565b610cc06168da565b156104ef57610cce3361695f565b8015610daf575b156104ca5760009260009480610cf6575b6040805186815260208101889052f35b9091929350601f549483600014610d6757506001610d4682610d5a96610d34610d2c610d4f96600052602f602052604060002090565b9182546123a5565b9055600052602f602052604060002090565b019182546123a5565b90555b606435614152565b601f549038808080610ce6565b808260409252602f60205220938454908103908111610adf57610d9f610da892600192610d5a9755600052602f602052604060002090565b019182546125a5565b9055610d52565b50336001600160a01b036005541614610cd5565b3461042b5760c036600319011261042b5760643560a435602435600435604435610dec84610930565b610df46168da565b156104ef57610e023361695f565b8015610fec575b156104ca57610e2281600052602f602052604060002090565b610e2d8382546123a5565b90556001610e4582600052602f602052604060002090565b01610e518482546123a5565b905560008052602f6020527fc11d2605466dd88923799a61d7f94d6c8cc580bae52b24870f6853eaa13cc4d654151580610fe3575b610e99575b601f54604051908152602090f35b610f1692159485159283610fd5575b610f05610ef6610ec06003546001600160a01b031690565b60405190610ee882610eda89602083019190602083019252565b03601f198101845283612023565b610ef0613fb1565b90616b14565b60208082518301019101613fea565b9493929991989095601e54906125a5565b60843511918215610fc8575b5081610fbf575b50610f37575b505050610e8b565b610f9d96600396610d469660009015610fb65750610f61610f5b610f6793856126b9565b91612648565b90612483565b975b60009015610fac5750610f5b610f8293610f61926126b9565b945b610d346002610d4684600052602f602052604060002090565b90553880808080808080610f2f565b9250505094610f84565b91505097610f69565b90501538610f29565b601f541015915038610f22565b610fde8261404a565b610ea8565b50801515610e86565b50336001600160a01b036005541614610e09565b3461042b57602036600319011261042b5760043561101d816105f0565b6110256168da565b156104ef576110333361695f565b8015611068575b156104ca576001600160a01b038116156110575761001690616a3b565b600460405163055c501b60e51b8152fd5b50336001600160a01b03600554161461103a565b3461042b57600036600319011261042b5760206001600160a01b0360015416604051908152f35b3461042b57600036600319011261042b576020601f54604051908152f35b3461042b57600036600319011261042b576020601a54604051908152f35b3461042b57600036600319011261042b57602061114c6001600160a01b036006541660405161110d81611fcf565b601381527f67657464656c656761746f72436f756e74282900000000000000000000000000848201526040519161114383611feb565b60008352616c72565b604051908152f35b60408060031936011261042b5760185460048035926024359260ff166115135761117c61276d565b6111846169e9565b83601c5461119282826123a5565b83111561150b576111a392506123a5565b925b6111e26111dd6111d76111c06003546001600160a01b031690565b6111c8612432565b906111d161244a565b90616c72565b86612483565b602955565b6111f8602954600052602a602052604060002090565b549461120c6003546001600160a01b031690565b95611226611218612432565b6112206124a3565b89616c72565b036114ee576103e7600052603060205260016112647f42e4ed8a28bd93bfb836b3bd3996ada35ff866e155b2ce135e767e31acbdb63f5b5460011690565b14806114b9575b61149c578251602080820183905296906112a49061129681604081015b03601f198101835282612023565b61129e612f2d565b83616c72565b340361147f5761132a92916112d86112ca611325936112c1612432565b90610ef0612f66565b898082518301019101612f9f565b946001600160a01b0392831694919392169080151580611476575b61145a575b50505080151580611451575b611429575b50505061132061131b346012546123a5565b601255565b601355565b6123b2565b508361134d6113416000546001600160a01b031690565b6001600160a01b031690565b8251938480927f1b4fc17b0000000000000000000000000000000000000000000000000000000082525afa918215611424577f1517c86fcf2bfb8e3468afcc539b0004955da8027797c497ea51d1f1094ab898946000936113ef575b5050513381526001600160a01b0390911660208201526000604082015234606082015260808101919091526103e860a08201528060c081015b0390a16100166001601155565b6113e2929350908161141592903d1061141d575b61140d8183612023565b8101906125fa565b9190386113a9565b503d611403565b612fdf565b61144992610f6161143d61144393346126b9565b91612659565b90616ab8565b388080611309565b50811515611304565b61146e92610f6161143d61144393346126b9565b3880806112f8565b508115156112f3565b835163cdab4c8760e01b8152600981870190815281906020010390fd5b8251635258db5f60e01b8152600681860190815281906020010390fd5b50601b54835160208101919091526114e6906114d88160408101611288565b6114e06123f9565b88616bed565b31151561126b565b825163cdab4c8760e01b8152600581860190815281906020010390fd5b5050926111a5565b516334c2d01160e11b8152fd5b60c036600319011261042b5760048035611539816105f0565b6064359060443560a43560843561154e6168da565b15611afc5761155c3361695f565b8015611ae8575b15611ad85760ff60185416611a805761157a61276d565b6103e7600052603060205260016115b07f42e4ed8a28bd93bfb836b3bd3996ada35ff866e155b2ce135e767e31acbdb63f61125d565b1480611a90575b611a80576115cb6115c78561695f565b1590565b611a70576003936115f26111dd6115ec6111c088546001600160a01b031690565b85612483565b60295461160981600052602a602052604060002090565b5486546001600160a01b03169061162f611621612432565b6116296124a3565b84616c72565b1190811591611a2c575b50611a0e5761165290600052602a602052604060002090565b8054600101905560018214958615611a075761169a61167887546001600160a01b031690565b6040519061169282610eda8a602083019190602083019252565b6111d161254e565b965b6119b4575b50601a541561199d575b601a546116b79061237a565b601a556116c2612045565b948686526020918583880152846040880152606087019660008852601a546116f490600052602c602052604060002090565b906116fe916125b2565b60015460405163c85700fb60e01b858201526001600160a01b03909116602480830191909152356044820152606481018790526084810189905260a4808201879052815261174d60c482612023565b61175691616d36565b82808251830101910190611769916125fa565b6001600160a01b03168087521561197f5786975061191661189161188c61190461189c8a9b610f6161189761187d6119619b9a7f1517c86fcf2bfb8e3468afcc539b0004955da8027797c497ea51d1f1094ab8989f8f6119249c61185261184d61184561185f9461181a6117e761187098516001600160a01b031690565b866117fe601a54600052602c602052604060002090565b01906001600160a01b03166001600160a01b0319825416179055565b61183f61182e86546001600160a01b031690565b611836612432565b906111d161260f565b906126b9565b6015546123a5565b601555565b546001600160a01b031690565b611867612432565b90610ef06126cc565b8051810182019101612705565b9c9491959b92939890506126b9565b6126b9565b936126b9565b61266f565b916118ce6118b6602d54600052602e602052604060002090565b6118c0838c6123a5565b600052602052604060002090565b6118d9848254612738565b90556118c0846118ff6118f8602d54600052602e602052604060002090565b938c6123a5565b6123a5565b61190f828254612754565b90556126b9565b96516001600160a01b031690565b604080513381526001600160a01b03909216602083015281019490945260608401879052608084019290925260a0830191909152819060c0820190565b0390a161196e6001601155565b604080519182526020820192909252f35b604051635258db5f60e01b81526002818a0190815281906020010390fd5b6119a683601c55565b6119af83601d55565b6116ab565b60195490876119c383836123a5565b106119e957876119d96119e3936119de936123a5565b6125a5565b601955565b386116a1565b604051635258db5f60e01b81526005818b0190815281906020010390fd5b809661169c565b60405163cdab4c8760e01b81526001818a0190815281906020010390fd5b9050611a41611a39612432565b61129e6124dc565b8610908115611a52575b5038611639565b611a689150611a5f612432565b906111d1612515565b851138611a4b565b8560405163055c501b60e51b8152fd5b856040516334c2d01160e11b8152fd5b50611ad0610eda611aa888546001600160a01b031690565b611ac2601b54604051938491602083019190602083019252565b611aca6123f9565b90616bed565b3115156115b7565b8560405163ea8e4eb560e01b8152fd5b50336001600160a01b036005541614611563565b85604051634ee2123760e11b8152fd5b3461042b57600036600319011261042b576020601d54604051908152f35b3461042b57602036600319011261042b576020611b51600435611b4c816105f0565b61695f565b6040519015158152f35b3461042b57600036600319011261042b576020601b54604051908152f35b3461042b57602036600319011261042b576004356001600160a01b036005541633036104ca5760009060046020611bba61134185546001600160a01b031690565b604051928380927f46f991ac0000000000000000000000000000000000000000000000000000000082525afa80156114245783808481949382948391611c5c575b505af1611c06616a88565b50156106b4577fcdcc745fe377b103b45fa0cec23ae3ef93d6fc6a84a01f0d18c40b354dd1d5d8611c56611c45611341600b546001600160a01b031690565b604051938452929081906020820190565b0390a280f35b611c74915060203d811161141d5761140d8183612023565b38611bfb565b3461042b57600036600319011261042b576020602954604051908152f35b3461042b57602036600319011261042b576020611cbf600435611cba816105f0565b616de9565b6001600160a01b0360405191168152f35b3461042b57604036600319011261042b57602435611ced81610930565b611cf56168da565b156104ef57611d033361695f565b8015611d23575b156104ca5761001690600435611d1e6169e9565b612336565b50336001600160a01b036005541614611d0a565b3461042b57600036600319011261042b5760208054604051908152f35b634e487b7160e01b600052603260045260246000fd5b600881101561071c5760210190600090565b3461042b57602036600319011261042b57600435600881101561042b5760209060210154604051908152f35b3461042b57602036600319011261042b57611dc1615e2b565b50600435600052602f60205260806040600020600360405191611de383611f75565b80548352600181015460208401526002810154604084015201546060820152611e2d6040518092606080918051845260208101516020850152604081015160408501520151910152565bf35b3461042b57602036600319011261042b57600435611e4c81610930565b611e546168da565b156104ef57611e623361695f565b8015611e95575b156104ca5715611e8357611e7e60205461237a565b602055005b6020548015610adf5760001901602055005b50336001600160a01b036005541614611e69565b3461042b57602036600319011261042b576020611b51600435611ecb816105f0565b6001600160a01b03806006541690604051921684830152838252611eee82611fcf565b60405190611efb82611fcf565b601882527f697364656c656761746f724e6f6465286164647265737329000000000000000085830152616c36565b3461042b57600036600319011261042b576020611b516168da565b3461042b57600036600319011261042b57602061114c6169e9565b634e487b7160e01b600052604160045260246000fd5b6080810190811067ffffffffffffffff821117611f9157604052565b611f5f565b6060810190811067ffffffffffffffff821117611f9157604052565b610120810190811067ffffffffffffffff821117611f9157604052565b6040810190811067ffffffffffffffff821117611f9157604052565b6020810190811067ffffffffffffffff821117611f9157604052565b60e0810190811067ffffffffffffffff821117611f9157604052565b90601f8019910116810190811067ffffffffffffffff821117611f9157604052565b6040519061205282611f75565b565b604051906102c0820182811067ffffffffffffffff821117611f9157604052565b604051906101e0820182811067ffffffffffffffff821117611f9157604052565b6040519061205282612007565b67ffffffffffffffff8111611f9157601f01601f191660200190565b604051906120cc82611feb565b60008252565b91908260c091031261042b5781519160208101519160408201516120f581610930565b91606081015161210481610930565b9160a0608083015161211581610930565b92015161212181610930565b90565b61212c6161ff565b6121886001600160a01b03600354166040519061214882611feb565b600082526040519061215982611fcf565b600982527f63617070696e67282900000000000000000000000000000000000000000000006020830152616b14565b80511561222b5761220f6122266121f66122216121db6121b486602080612052995183010191016120d2565b9994999792959091939763ff00000060335491151560181b169063ff000000191617603355565b62ff000060335491151560101b169062ff0000191617603355565b61ff0060335491151560081b169061ff00191617603355565b60ff8019603354169115151617603355565b603255565b603155565b60646040517f08c379a000000000000000000000000000000000000000000000000000000000815260206004820152601460248201527f43617070696e67206665746368206661696c65640000000000000000000000006044820152fd5b805482101561071c5760005260206000200190600090565b9081549168010000000000000000831015611f9157826122c991600161205295018155612289565b90919082549060031b91821b91600019901b1916179055565b6103e76000526030602052604060002091825480158061232e575b612328576001911561231d571615612314575b5050565b612052916122a1565b811614612314575050565b50505050565b5081156122fd565b906000526030602052604060002091825480158061232e57612328576001911561231d571615612314575050565b634e487b7160e01b600052601160045260246000fd5b6000198114610adf5760010190565b6046019081604611610adf57565b9060018201809211610adf57565b91908201809211610adf57565b6123ba6169e9565b601c54918201809211610adf57818111156123f257505b6123ec6102a06123e0836147a0565b019182511515906122e2565b51151590565b90506123d1565b6040519061240682611fcf565b601882527f676574557365724964546f496e73742875696e743235362900000000000000006020830152565b60405161243e81611feb565b60008152906000368137565b6040519061245782611fcf565b600f82527f6d696e744379636c6544617973282900000000000000000000000000000000006020830152565b811561248d570490565b634e487b7160e01b600052601260045260246000fd5b604051906124b082611fcf565b601282527f6d61784d696e74735065724379636c65282900000000000000000000000000006020830152565b604051906124e982611fcf565b600c82527f6d696e4d696e74517479282900000000000000000000000000000000000000006020830152565b6040519061252282611fcf565b600c82527f6d61784d696e74517479282900000000000000000000000000000000000000006020830152565b6040519061255b82611fcf565b601982527f636f6d707574654d696e7456616c75652875696e7432353629000000000000006020830152565b600019810191908211610adf57565b600119810191908211610adf57565b91908203918211610adf57565b60036001600160a01b036060612052948051855560208101516001860155604081015160028601550151169101906001600160a01b03166001600160a01b0319825416179055565b9081602091031261042b5751612121816105f0565b6040519061261c82611fcf565b600f82527f6d696e74466565506572517479282900000000000000000000000000000000006020830152565b9081606402916064830403610adf57565b90606482029180830460641490151715610adf57565b9061271091828102928184041490151715610adf57565b90601982029180830460191490151715610adf57565b90670de0b6b3a764000091828102928184041490151715610adf57565b81810292918115918404141715610adf57565b604051906126d982611fcf565b600682527f706f6f6c282900000000000000000000000000000000000000000000000000006020830152565b908160e091031261042b5780519160208201519160408101519160608201519160808101519160c060a083015192015190565b91909160008382019384129112908015821691151617610adf57565b81810392916000138015828513169184121617610adf57565b60026011541461277e576002601155565b60046040517f3ee5aeb5000000000000000000000000000000000000000000000000000000008152fd5b604051906127b582612007565b60e0368337565b604051906127c982611fcf565b601082527f65616368636c61696d4379636c652829000000000000000000000000000000006020830152565b6040519061280282611fcf565b601082527f6d6178436c61696d5065724461792829000000000000000000000000000000006020830152565b6040519061283b82611fcf565b601082527f6d696e436c61696d5065724461792829000000000000000000000000000000006020830152565b6040519061287482611fcf565b601682527f6d6178476c6f62616c436c61696d5065724461792829000000000000000000006020830152565b604051906128ad82611fcf565b601582527f67657477697468647261776e2875696e743235362900000000000000000000006020830152565b90600981101561071c5760051b0190565b604051906128f782611fcf565b601d82527f636f6d707574654f7a6f6e65546f446f6c6c61722875696e74323536290000006020830152565b9081602091031261042b575190565b9291838115612f275750601c549161294a81846123a5565b821115612f1a57612968612960603292856123a5565b935b846125a5565b1161231057600380546001600160a01b0316612999612990612988612432565b6116296127bc565b601d54906123a5565b8310612f01576129b76129bd916129ae612432565b906111d16127f5565b936142c4565b6001600052602b60205292612b16612ae5612ab4612a83612a52612a21877ffcc3d43705633578a5e8f1b6d6f38d08eb8cb891174edcc94b1a54972a1aebbd01546004600052602b60205288600080516020616e4b8339815191525b0154906123a5565b6002600052602b602052877fbd6c10e6ce287735500a1c033be76c57d5e632addc2ff6eff6bb587b8ee0d95c612a19565b6003600052602b602052867fd3904653c5d0f9b122879aa13f7287465a10522aedd588dbbd607cf6f8b2147f612a19565b6005600052602b602052857f4b5b933abde5416303ae4347d7fcdf5a17e8022e0fefc2b31c7609ebd3c32fe9612a19565b6006600052602b602052847f5ac1f6ea00ad8b0f699e3a293cc93d6fdaf7ee608fbc40ffef54db3fb7ebb943612a19565b6007600052602b602052837f455b6dea826802a5b6200d61a7810fccbd36f05c878743e3ac0e0e7aff3a46e8612a19565b91612b2881546001600160a01b031690565b612b3b612b33612432565b61129e61282e565b8410801590612efa575b15612ee157612b5f90612b56612432565b906111d1612867565b92612b726004546001600160a01b031690565b92604094612baa865180612b8e8a602083019190602083019252565b0396612ba2601f1998898101845283612023565b6111d16128a0565b1015612eca5760009181811115612ec357612bc592506125a5565b9087600092600190815b6007811115612cc6575050505092612c8c92612c879261205297969560165460e08c0152876101008c601754918291015281612cbc575b50612ca4575b612c166000601655565b612c206000601755565b60008215612c9a575092612c68612c7093612c5c93612c49612c7f97546001600160a01b031690565b9351948591602083019190602083019252565b03908101845283612023565b610ef06128ea565b60208082518301019101612923565b6014546123a5565b601455565b612c9581601d55565b6122e2565b9350505050612c7f565b612cb7612cb2602d5461237a565b602d55565b612c0c565b9050151538612c06565b8885612ce08398959698600052602b602052604060002090565b015483612de65790612d8e612d7e612ddd95967f1517c86fcf2bfb8e3468afcc539b0004955da8027797c497ea51d1f1094ab8989489612d2a88600052602b602052604060002090565b01612d368282546123a5565b905560008b612d4f89600052602b602052604060002090565b0155612d63612d5d88612587565b8d6128d9565b525b612d77612d7187612587565b8c6128d9565b51906123a5565b98612d8885612587565b906128d9565b51612dd5612d9b85612389565b8c5193849333859094939260a0926001600160a01b0360c08401971683526000602084015260006040840152606083015260808201520152565b0390a161237a565b908a9291612bcf565b9280841115612e7f5790612d8e612d7e8596612e53612e297f1517c86fcf2bfb8e3468afcc539b0004955da8027797c497ea51d1f1094ab89896612ddd996125a5565b80998b612e408a600052602b602052604060002090565b01612e4c8382546123a5565b90556125a5565b8a612e6888600052602b602052604060002090565b0155600097612e79612d5d88612587565b52612d65565b90612d8e612d7e612eb4612ddd967f1517c86fcf2bfb8e3468afcc539b0004955da8027797c497ea51d1f1094ab898956125a5565b966000612e79612d5d88612587565b5050612bc5565b845163cdab4c8760e01b8152600480820152602490fd5b60405163cdab4c8760e01b8152600a6004820152602490fd5b5085612b45565b60405163cdab4c8760e01b815260026004820152602490fd5b5060326129688293612962565b93505050565b60405190612f3a82611fcf565b601d82527f636f6d70757465446f6c6c6172546f4f7a6f6e652875696e74323536290000006020830152565b60405190612f7382611fcf565b600a82527f6275726e636e66672829000000000000000000000000000000000000000000006020830152565b91908260c091031261042b578151612fb6816105f0565b916020810151916040820151916060810151612fd1816105f0565b9160a0608083015192015190565b6040513d6000823e3d90fd5b60405190612ff882611fcf565b601382527f55736572546f496e7374286164647265737329000000000000000000000000006020830152565b6040519061303182611fcf565b600b82527f6d696e74436f756e7428290000000000000000000000000000000000000000006020830152565b6040519061306a82611fcf565b600e82527f6d696e74732875696e74323536290000000000000000000000000000000000006020830152565b604051906130a382611fcf565b600b82527f6d696e74656441676528290000000000000000000000000000000000000000006020830152565b604051906130dc82611fcf565b600b82527f6d696e74656471747928290000000000000000000000000000000000000000006020830152565b6040519061311582611fcf565b600c82527f6964732875696e743235362900000000000000000000000000000000000000006020830152565b6040519061314e82611fcf565b600982527f6d696e74416d74282900000000000000000000000000000000000000000000006020830152565b6040519061318782611fcf565b600a82527f647261776e6167652829000000000000000000000000000000000000000000006020830152565b604051906131c082611fcf565b600c82527f4c53422875696e743235362900000000000000000000000000000000000000006020830152565b604051906131f982611fcf565b600782527f647261776e2829000000000000000000000000000000000000000000000000006020830152565b91908260c091031261042b5781519160208101519160408201519160608101519160a0608083015192015190565b6040519061326082611fcf565b601382527f67657452657761726473286164647265737329000000000000000000000000006020830152565b919082604091031261042b576020825192015190565b604051906132af82611fcf565b600782527f626f6e75732829000000000000000000000000000000000000000000000000006020830152565b604051906132e882611fcf565b600682527f63616765282900000000000000000000000000000000000000000000000000006020830152565b6040519061332182611fcf565b601982527f67657445666665637469766552616e6b286164647265737329000000000000006020830152565b6040519061335a82611fcf565b601f82527f6765746e6f646572616e6b61676528616464726573732c75696e7432353629006020830152565b6040519061339382611fcf565b601082527f6765744e6f6465286164647265737329000000000000000000000000000000006020830152565b908160a091031261042b5780519160208201516133db816105f0565b916040810151916080606083015161211581610930565b604051906133ff82611fcf565b601a82527f77697468647261776e496e636f6d654f662861646472657373290000000000006020830152565b60185460081c60ff16613fae5760049060206134526113416000546001600160a01b031690565b604051938480927f447aa3040000000000000000000000000000000000000000000000000000000082525afa91821561142457600092613f8d575b506134d46112886134c66134a96001546001600160a01b031690565b604080516001600160a01b03909216602083015290928391820190565b6134ce612feb565b84616bed565b906001600160a01b03821615613f695760058111613f50576134ff6134f7612432565b611629613024565b90601a5461350d81836123a5565b831115613f485761351d916123a5565b81613a47575b5080601a5414908115613a3e575b5061353a575050565b613555613550613548612432565b61162961317a565b601e55565b601e54601c5481116139dc575b5061358e61357f613571612432565b6135796131ec565b84616b14565b60208082518301019101613225565b9460016135ac9592959493946001600052602b602052604060002090565b01557fbd6c10e6ce287735500a1c033be76c57d5e632addc2ff6eff6bb587b8ee0d95d557fd3904653c5d0f9b122879aa13f7287465a10522aedd588dbbd607cf6f8b21480557f8bd115fc6ec81ad72d5ca8a8b3bd3d0177f1b615af6ad35644a4e24a7bed08bd557f5ac1f6ea00ad8b0f699e3a293cc93d6fdaf7ee608fbc40ffef54db3fb7ebb944557f455b6dea826802a5b6200d61a7810fccbd36f05c878743e3ac0e0e7aff3a46e95560008052602f6020527fc11d2605466dd88923799a61d7f94d6c8cc580bae52b24870f6853eaa13cc4d7546136909061184d90612686565b6136d76136c86040516136ba8161128886602083019190916001600160a01b036020820193169052565b6136c2613253565b85616b14565b6020808251830101910161328c565b602b6020527ffcc3d43705633578a5e8f1b6d6f38d08eb8cb891174edcc94b1a54972a1aebbd919091556004600052600080516020616e4b8339815191525561372c6119de613724612432565b6116296132a2565b61374261355061373a612432565b6116296132db565b61377f61377a60405161376c8161128886602083019190916001600160a01b036020820193169052565b613774613314565b85616c72565b601f55565b60005b600f8111156138e757506137c4610eda6137ea936137bc6137d394604051938491602083019190916001600160a01b036020820193169052565b610ef0613386565b602080825183010191016133bf565b935050505060ff8019601854169115151617601855565b600460206138036113416000546001600160a01b031690565b604051928380927f6325dd040000000000000000000000000000000000000000000000000000000082525afa9081156114245761388191610eda916000916138c8575b5061387961385c6001546001600160a01b031690565b604080516001600160a01b03909216602083015290938491820190565b6111d16133f2565b6005600052602b6020527f4b5b933abde5416303ae4347d7fcdf5a17e8022e0fefc2b31c7609ebd3c32fea55601c54601d555b61205261010061ff00196018541617601855565b6138e1915060203d60201161141d5761140d8183612023565b38613846565b806139009161394f575b601f548111156139055761237a565b613782565b604080516001600160a01b038516602082015290810182905261394a90613941906139338160608101611288565b61393b61334d565b87616c72565b6122c983611d6a565b61237a565b6040517f5329daca0000000000000000000000000000000000000000000000000000000060208201526001600160a01b0384166024820152604481018290526139a9906136c8906139a38160648101611288565b86616d36565b906139be83600052602f602052604060002090565b5560016139d583600052602f602052604060002090565b01556138f1565b601c55613a0d6112886139ff601e54604051928391602083019190602083019252565b613a076131b3565b83616cae565b613a37613a26602d54600052602e602052604060002090565b601c54600052602052604060002090565b5538613562565b90501538613531565b60008052602f6020527fc11d2605466dd88923799a61d7f94d6c8cc580bae52b24870f6853eaa13cc4d6547fc11d2605466dd88923799a61d7f94d6c8cc580bae52b24870f6853eaa13cc4d7549395909491929091905b601a5484811015613ee957613ab5613aba9161237a565b601a55565b601a5495613ae8604051613ada816112888b602083019190602083019252565b613ae261305d565b8a616bed565b90613afc613af4612432565b611629613096565b91613b10613b08612432565b61129e6130cf565b91613b35604051613b2d8161128860208201906000602083019252565b611629613108565b90613b58613b52613b44612432565b613b4c613141565b86616c72565b93616de9565b9a613b6e6113416000546001600160a01b031690565b6040517fcfaa1f6c0000000000000000000000000000000000000000000000000000000081526001600160a01b039d909d1660048e015260208d602481845afa9c8d156114245760009d613ec8575b506001600160a01b038d1615613e56575b50613bdb6115c78d61695f565b61105757613cba92613c4986613c43876113419681613c07613cab98600052602c602052604060002090565b55836001613c21601a54600052602c602052604060002090565b01558b6002613c3c601a54600052602c602052604060002090565b01556123a5565b9d6123a5565b9c613ca6613c5f6001546001600160a01b031690565b60405163c85700fb60e01b60208201526001600160a01b0390911660248201526044810193909352606483018890526084830187905260a483018990528260c48101610eda565b616d36565b602080825183010191016125fa565b6001600160a01b03811615613e3d577f1517c86fcf2bfb8e3468afcc539b0004955da8027797c497ea51d1f1094ab89893613de7613e2492613d0f600391826117fe601a54600052602c602052604060002090565b611891613db6613dae61188c6118c0613d5d8a610f61611897613d4e613d3f61185f8c546001600160a01b031690565b60208082518301019101612705565b9e9491959b92939890506126b9565b946118ff613da7602d613d898c6118c088613d838554600052602e602052604060002090565b926123a5565b613d948a8254612738565b905554600052602e602052604060002090565b938a6123a5565b918254612754565b90556001601a5414613e2f575b613dd9601a54600052602c602052604060002090565b01546001600160a01b031690565b604080513381526001600160a01b03909216602083015281019490945260608401929092526080830191909152600060a0830152819060c0820190565b0390a1949394613a9e565b613e3883601c55565b613dc3565b604051635258db5f60e01b815260026004820152602490fd5b6040517fb771c89600000000000000000000000000000000000000000000000000000000815260006004820152919c50602090829060249082905afa90811561142457600091613ea9575b509a38613bce565b613ec2915060203d60201161141d5761140d8183612023565b38613ea1565b613ee2919d5060203d60201161141d5761140d8183612023565b9b38613bbd565b5060008052602f6020527fc11d2605466dd88923799a61d7f94d6c8cc580bae52b24870f6853eaa13cc4d6959095557fc11d2605466dd88923799a61d7f94d6c8cc580bae52b24870f6853eaa13cc4d793909355939192905038613523565b50508061351d565b60405163cdab4c8760e01b815260036004820152602490fd5b505050613f776135506169e9565b613f82601e54601c55565b6138b4601e54601d55565b613fa791925060203d60201161141d5761140d8183612023565b903861348d565b50565b60405190613fbe82611fcf565b601482527f6c6576656c436c617573652875696e74323536290000000000000000000000006020830152565b908160a091031261042b578051916020820151916040810151916080606083015192015190565b6040519061401e82611fcf565b601382527f72616e6b436c617573652875696e7432353629000000000000000000000000006020830152565b90601f6140578154612397565b925b600884106140675750509050565b6003546001600160a01b0316936040946140ad61409f875160209361409782610eda888883019190602083019252565b610ef0614011565b828082518301019101613fea565b505050918215801561414a575b614132576140e094959697505410159081614110575b50806140fe575b6140e85761237a565b929190614059565b6140f181601f55565b61394a836122c983611d6a565b50835461410a82612587565b146140d7565b9050600161412883600052602f602052604060002090565b01541015386140d0565b8751635258db5f60e01b815260036004820152602490fd5b5081156140ba565b90156141e65790601f6141658154612397565b925b600884106141755750509050565b6003546001600160a01b0316936040946141a561409f875160209361409782610eda888883019190602083019252565b50505091821580156141de575b614132576141d6949596975054101590816141105750806140fe576140e85761237a565b929190614167565b5081156141b2565b506000905b601f5482116142c0576003546001600160a01b03169160409261422461409f855160209361409782610eda888883019190602083019252565b50505091831515806142b0575b614299576142549495505410159081614277575b501561425a5761394a81601f55565b906141eb565b61394a61426682611d6a565b8154906000199060031b1b19169055565b9050600161428f83600052602f602052604060002090565b0154101538614245565b8551635258db5f60e01b8152600480820152602490fd5b5082158061423157508115614231565b9050565b6102a0612121916146536142d7826147a0565b9161464e61464984516003906142fc82610d466001600052602b602052604060002090565b905560608601516004600052602b60205261432582600080516020616e4b833981519152610d46565b90556020868101516002600052602b909152614361827fbd6c10e6ce287735500a1c033be76c57d5e632addc2ff6eff6bb587b8ee0d95c610d46565b90556040860180516003600052602b6020529091906143a0827fd3904653c5d0f9b122879aa13f7287465a10522aedd588dbbd607cf6f8b2147f610d46565b905560808701516005600052602b6020526143db827f4b5b933abde5416303ae4347d7fcdf5a17e8022e0fefc2b31c7609ebd3c32fe9610d46565b905560a08701516006600052602b602052614416827f5ac1f6ea00ad8b0f699e3a293cc93d6fdaf7ee608fbc40ffef54db3fb7ebb943610d46565b905560c08701516007600052602b60205290614452907f455b6dea826802a5b6200d61a7810fccbd36f05c878743e3ac0e0e7aff3a46e8610d46565b905560e08601516001600052602b6020526002916146409161463b9190614499857ffcc3d43705633578a5e8f1b6d6f38d08eb8cb891174edcc94b1a54972a1aebbd610d46565b90556101408901516004600052602b6020526144c385600080516020616e4b833981519152610d46565b90556101008901516002600052602b6020526144ff857fbd6c10e6ce287735500a1c033be76c57d5e632addc2ff6eff6bb587b8ee0d95c610d46565b9055610120890180516003600052602b60205290949061453f827fd3904653c5d0f9b122879aa13f7287465a10522aedd588dbbd607cf6f8b2147f610d46565b90556101608a01516005600052602b60205261457b827f4b5b933abde5416303ae4347d7fcdf5a17e8022e0fefc2b31c7609ebd3c32fe9610d46565b90556101808a01516006600052602b6020526145b7827f5ac1f6ea00ad8b0f699e3a293cc93d6fdaf7ee608fbc40ffef54db3fb7ebb943610d46565b90556101a08a01516007600052602b602052906145f4907f455b6dea826802a5b6200d61a7810fccbd36f05c878743e3ac0e0e7aff3a46e8610d46565b90556101c089015161463061462889614619602d54600052602e602052604060002090565b90600052602052604060002090565b918254612738565b9055516016546123a5565b601655565b516017546123a5565b601755565b601c55565b0151151590565b614662612054565b9060008083528060208401528060408401528060608401528060808401528060a08401528060c08401528060e08401528061010084015280610120840152806101408401528061016084015280610180840152806101a0840152806101c0840152806101e084015280610200840152806102208401528061024084015280610260840152806102808401526102a0830152565b6040519061470282611fcf565b600a82527f73687574646f776e2829000000000000000000000000000000000000000000006020830152565b6040519061473b82611fcf565b601182527f696e636f6d654f662861646472657373290000000000000000000000000000006020830152565b6040519061477482611fcf565b601482527f636f6d70757465546f75722875696e74323536290000000000000000000000006020830152565b906147a961465a565b916003906147be82546001600160a01b031690565b916147d96147ca6146f5565b6147d26120bf565b9085616c36565b6103e760005260306020526147ec6159ea565b60608893929301528187526148ed8160019561488c61484d8861481a6001600052602b602052604060002090565b01546001600052602b602052887ffcc3d43705633578a5e8f1b6d6f38d08eb8cb891174edcc94b1a54972a1aebbd612a19565b6001600052602b6020526002969061488690887ffcc3d43705633578a5e8f1b6d6f38d08eb8cb891174edcc94b1a54972a1aebbd612a19565b906125a5565b8a5260608a01516004600052602b602052600080516020616e4b833981519152808901546148e39291614886916148c4918b90612a19565b6004600052602b60205288600080516020616e4b833981519152612a19565b60608b0152615132565b94929093916101c08c01526101008b015260208a0152600014614f36575050614924610eda611aa86004546001600160a01b031690565b3160408701525b61495f610eda6149436009546001600160a01b031690565b61495761385c87546001600160a01b031690565b6111d161472e565b6005600052602b602052916149f66149c5857f4b5b933abde5416303ae4347d7fcdf5a17e8022e0fefc2b31c7609ebd3c32fe901546005600052602b602052847f4b5b933abde5416303ae4347d7fcdf5a17e8022e0fefc2b31c7609ebd3c32fe9612a19565b6005600052602b602052827f4b5b933abde5416303ae4347d7fcdf5a17e8022e0fefc2b31c7609ebd3c32fe9612a19565b608088018181529381811115614f2857614a1391508451906125a5565b83526004601f548381101580614ee2575b614eb4575b10159182614e3c575b5050614e0e575b6005600052603060205281614a6d7f9d0b70a39d4b3569f175af8ea51ae318eac80460c467ee4a16ee63ec5720706e61125d565b14614df0575b506006600052603060205280614aa87fd558ed0e54509c62efb2aedb46e6ad1b04c7bdca351e3613e136c946b91686d861125d565b14614dd0575b60076000526030602052614ae17f4ebb69666752feecd656ebf5f8cd3c2f1c70bb06a0c3d3744be479e4a580c23361125d565b14614db0575b614b61614b51614b19614b0e614b0387516020890151906123a5565b6040880151906123a5565b6060870151906123a5565b614b4b614b3f614b3360e08901516101008a0151906123a5565b610120890151906123a5565b610140880151906123a5565b90615662565b15156102a08b0152929591929091565b61028089015261024088015261022087015261026086019283526102008601526101e08501526102a0840151614b95575050565b614bad610eda611aa86004546001600160a01b031690565b316040850152519061022084015161024085015110614d79575b50825181614d3757614bdd9060e08501516123a5565b60e0840152600083525b602083015181614ced57614c00906101008501516123a5565b610100840152600060208401525b604083015181614ca357614c27906101208501516123a5565b610120840152600060408401525b60608301519080614c5f5750614c50906101408401516123a5565b61014083015260006060830152565b614c8b614c80613fae93808411600014614c9c57805b8160608901526125a5565b6101408601516123a5565b6101408501526060840151906125a5565b8390614c75565b90614cd0614cc5614ce193808411600014614ce657805b8160408901526125a5565b6101208601516123a5565b6101208501526040840151906125a5565b614c35565b8390614cba565b90614d1a614d0f614d2b93808411600014614d3057805b8160208901526125a5565b6101008601516123a5565b6101008501526020840151906125a5565b614c0e565b8390614d04565b90614d60614d56614d6d93808411600014614d7257805b8188526125a5565b60e08601516123a5565b60e08501528351906125a5565b614be7565b8390614d4e565b614daa9150610eda612c7091614da2610280870151604051938491602083019190602083019252565b610ef0612f2d565b38614bc7565b600060c084018051614dc86101a087019182516123a5565b905252614ae7565b600060a085018051614de861018088019182516123a5565b905252614aae565b8060009151614e0561016088019182516123a5565b90525238614a73565b614e32604051614e2a8161128860208201906004602083019252565b613774614767565b60c0860152614a39565b6007600052602b6020527f455b6dea826802a5b6200d61a7810fccbd36f05c878743e3ac0e0e7aff3a46e880860154614eac9450614e7b929091612a19565b6007600052602b602052907f455b6dea826802a5b6200d61a7810fccbd36f05c878743e3ac0e0e7aff3a46e8612a19565b153880614a32565b614ed8604051614ed08161128860208201906002602083019252565b611220614767565b60a08a0152614a29565b506006600052602b6020527f5ac1f6ea00ad8b0f699e3a293cc93d6fdaf7ee608fbc40ffef54db3fb7ebb94380870154614f2291612ab491908790612a19565b15614a24565b614f31916125a5565b614a13565b604088015261012087015261492b565b604051906040820182811067ffffffffffffffff821117611f915760405260006020838281520152565b60405190614f7d82611f96565b81614f86614f46565b8152614f90614f46565b60208201526040614f9f614f46565b910152565b60405190614fb182611fcf565b601882527f6765744261746368526f79616c7479436c6175736573282900000000000000006020830152565b6102a090818184031261042b5782601f8201121561042b57604080519361500385612007565b849383019281841161042b57935b83851061502057505050505090565b60608583031261042b57825160609161503882611f96565b8651825260209182880151838201528588015186820152815201940193615011565b6040519061506782611fcf565b601f82527f676574526f79616c697479416d6f756e7442617463682875696e7432353629006020830152565b9060e08282031261042b5780601f8301121561042b57604051916150b683612007565b829060e0810192831161042b57905b8282106150d25750505090565b81518152602091820191016150c5565b90600781101561071c5760051b0190565b8181029291600082127f8000000000000000000000000000000000000000000000000000000000000000821416610adf578184051490151715610adf57565b9160009260009260009260009260009261514a614f70565b6151538361546e565b82519060208201525261516583615535565b60208301519060208201525261517a836155c0565b6040830151906020820152526151c36151b461519e6003546001600160a01b031690565b6151a6614fa4565b6151ae6120bf565b91616b14565b60208082518301019101614fdd565b92601c54926151da6004546001600160a01b031690565b93601f54905b8381106151f05750505050505050565b61522c61521d60405161520f8161128886602083019190602083019252565b61521761505a565b89616b14565b60208082518301019101615093565b6001905b8382111561534f575050821561524f575b61524a9061237a565b6151e0565b61527461526c82614619602d54600052602e602052604060002090565b54809c612738565b9a61527f82866125a5565b90600091604088015180518881106152f9575b50508083116152f1575b826152a6916125a5565b91806152db575b50816152bb575b5050615241565b9a6152cd6152d39261524a949d6150f3565b90612738565b9990386152b4565b9a6152cd829c6152ea936150f3565b99386152ad565b91508161529c565b808611156153465750602085915b016153128151612397565b8910156153375750875b818111156152925761532f9294506125a5565b913880615292565b6153419051612397565b61531c565b60209091615307565b909c61536361535d8f612587565b8a6150e2565b515115801561540e575b615404578651805184101590816153f5575b5080156153ce575b156153b2576153a66153ac918f6153a0612d7791612587565b856150e2565b9d61237a565b90615230565b9c9d6153c88f91612d776153a06153ac94612587565b9e61237a565b506020870151805184101590816153e6575b50615387565b602091500151831115386153e0565b6020915001518311153861537f565b9c6153ac9061237a565b508d61542661541c82611d6a565b90549060031b1c90565b8410159081615437575b501561536d565b6154659150604061545c61545661545061541c85611d6a565b93612587565b8d6150e2565b510151906123a5565b8311158e615430565b6103e7600081905260306020527f42e4ed8a28bd93bfb836b3bd3996ada35ff866e155b2ce135e767e31acbdb63f8054939290841561552d5760018516615512575050600052603060205261541c6154d360406000206154cd85612596565b90612289565b90546103e7600052603060205260039190911b1c926154cd7f42e4ed8a28bd93bfb836b3bd3996ada35ff866e155b2ce135e767e31acbdb63f91612587565b909361552292506154cd90612587565b90549060031b1c9190565b509250508190565b6002600090815260306020527f89a47dfbb363dd4e64da56b4585033c9abd8a425d24b94630469c44bee7189c2805491939290821561552d57600183166155b157505061541c906002845260306020526154cd60406155998187206154cd85612596565b90549060031b1c956002815260306020522091612587565b9093506154cd61552292612587565b6003600081815260306020527f11a30d68d5ffd3a101d3683e9a6997d49d9351e95dc004c6a4e652b897626df7805491949390821561565957600183166156415750506156399082855260306020526154cd60406156238188206154cd85612596565b905490861b1c9685815260306020522091612587565b9054911b1c90565b9094506154cd61565092612587565b9054911b1c9190565b50935050508190565b6000808052602f602052919082906157096156ad6156a47fc11d2605466dd88923799a61d7f94d6c8cc580bae52b24870f6853eaa13cc4d654601254906123a5565b603154906126b9565b946156b66159ea565b505060335460ff811661595f575b60ff8160081c166158c3575b60ff8160101c16615823575b60181c60ff166157af575b808611156157a6576157036156fc82886125a5565b95846123a5565b906123a5565b9182958561578661573361572e615725601554601354906123a5565b603254906126b9565b61269c565b6014549095818711156157a05761574a82886125a5565b9581156157985750612c70610eda61570392612c686157716003546001600160a01b031690565b91604051938491602083019190602083019252565b941180156157915790565b5082841190565b9050906123a5565b8561574a565b615703846156fc565b6004600052602b6020527f8bd115fc6ec81ad72d5ca8a8b3bd3d0177f1b615af6ad35644a4e24a7bed08bd5461581e9190615703906157fe906002600080516020616e4b833981519152612a19565b6004600052602b6020526003600080516020616e4b833981519152612a19565b6156e7565b6003600052602b6020527fd3904653c5d0f9b122879aa13f7287465a10522aedd588dbbd607cf6f8b2148054909160ff916158bb9190615703906158899060027fd3904653c5d0f9b122879aa13f7287465a10522aedd588dbbd607cf6f8b2147f612a19565b60036000819052602b6020527fd3904653c5d0f9b122879aa13f7287465a10522aedd588dbbd607cf6f8b2147f612a19565b9190506156dc565b60026000819052602b6020527fbd6c10e6ce287735500a1c033be76c57d5e632addc2ff6eff6bb587b8ee0d95d54919261595992909161570391615927917fbd6c10e6ce287735500a1c033be76c57d5e632addc2ff6eff6bb587b8ee0d95c612a19565b6002600052602b60205260037fbd6c10e6ce287735500a1c033be76c57d5e632addc2ff6eff6bb587b8ee0d95c612a19565b906156d0565b90506159e46159b2600161597e6001600052602b602052604060002090565b01546001600052602b60205260027ffcc3d43705633578a5e8f1b6d6f38d08eb8cb891174edcc94b1a54972a1aebbd612a19565b6001600052602b60205260037ffcc3d43705633578a5e8f1b6d6f38d08eb8cb891174edcc94b1a54972a1aebbd612a19565b906156c4565b600090816001815b600f821115615a575750506001600052602b6020527ffcc3d43705633578a5e8f1b6d6f38d08eb8cb891174edcc94b1a54972a1aebbd548101809111610adf576004600052602b6020529161212190600080516020616e4b83398151915254906123a5565b9093848252602f92602093808552604090600282862001548301809311610adf576003929588865252832001548101809111610adf57615a97909461237a565b906159f2565b9190615aa76127a8565b92600191828214615e1e576002808314615cf557506003808314615cf5575060048214615c895760058214615c4757615b0690615ae26169e9565b90601c54615af082826123a5565b831115615c4057615b0192506123a5565b6147a0565b9060068114615bf05760078114615b9757600814615b22575050565b6102809192935060ff615b33612096565b936101e08301518552610200830151602086015261022083015160408601526102408301516060860152615b6b6102a0840151151590565b60009015615b9057505b16608084015261026081015160a0840152015160c082015290565b9050615b75565b50919250506101a0615ba7612096565b9160e08101518352610100810151602084015261012081015160408401526101408101516060840152610160810151608084015261018081015160a0840152015160c082015290565b509192505060c0615bff612096565b91805183526020810151602084015260408101516040840152606081015160608401526080810151608084015260a081015160a0840152015160c082015290565b50506147a0565b5050509050615c54612096565b601254815260135460208201526015546040820152601454606082015260006080820152600060a0820152600060c082015290565b5050509050615c96612096565b60165481526017546020820152615cb86001600052602b602052604060002090565b5460408201526004600052602b602052600080516020616e4b83398151915254606082015260006080820152600060a0820152600060c082015290565b939450505050615d03612096565b7ffcc3d43705633578a5e8f1b6d6f38d08eb8cb891174edcc94b1a54972a1aebbd82015481527fbd6c10e6ce287735500a1c033be76c57d5e632addc2ff6eff6bb587b8ee0d95c8201546020808301919091527fd3904653c5d0f9b122879aa13f7287465a10522aedd588dbbd607cf6f8b2147f8301546040830152600080516020616e4b83398151915283015460608301527f4b5b933abde5416303ae4347d7fcdf5a17e8022e0fefc2b31c7609ebd3c32fe983015460808301527f5ac1f6ea00ad8b0f699e3a293cc93d6fdaf7ee608fbc40ffef54db3fb7ebb94383015460a08301526007600052602b90527f455b6dea826802a5b6200d61a7810fccbd36f05c878743e3ac0e0e7aff3a46e89091015460c082015290565b5050909150615d03612096565b60405190615e3882611f75565b60006060838281528260208201528260408201520152565b90604051615e5d81611f75565b6060600382948054845260018101546020850152600281015460408501520154910152565b67ffffffffffffffff8111611f915760051b60200190565b90615ea482615e82565b615eb16040519182612023565b8281528092615ec2601f1991615e82565b019060005b828110615ed357505050565b602090615ede615e2b565b82828501015201615ec7565b805182101561071c5760209160051b010190565b6161e36101c061205292615f38615f1c82516001600160a01b031690565b6001600160a01b03166001600160a01b03196002541617600255565b615f6b615f4f60208301516001600160a01b031690565b6001600160a01b03166001600160a01b03196003541617600355565b615f9e615f8260408301516001600160a01b031690565b6001600160a01b03166001600160a01b03196004541617600455565b615fd1615fb560608301516001600160a01b031690565b6001600160a01b03166001600160a01b03196005541617600555565b616004615fe860808301516001600160a01b031690565b6001600160a01b03166001600160a01b03196006541617600655565b61603761601b60a08301516001600160a01b031690565b6001600160a01b03166001600160a01b03196007541617600755565b61606a61604e60c08301516001600160a01b031690565b6001600160a01b03166001600160a01b03196008541617600855565b61609d61608160e08301516001600160a01b031690565b6001600160a01b03166001600160a01b03196009541617600955565b6160d16160b56101008301516001600160a01b031690565b6001600160a01b03166001600160a01b0319600a541617600a55565b6161056160e96101208301516001600160a01b031690565b6001600160a01b03166001600160a01b0319600b541617600b55565b61613961611d6101408301516001600160a01b031690565b6001600160a01b03166001600160a01b0319600c541617600c55565b61616d6161516101608301516001600160a01b031690565b6001600160a01b03166001600160a01b0319600d541617600d55565b6161a16161856101808301516001600160a01b031690565b6001600160a01b03166001600160a01b0319600e541617600e55565b6161d56161b96101a08301516001600160a01b031690565b6001600160a01b03166001600160a01b0319600f541617600f55565b01516001600160a01b031690565b6001600160a01b03166001600160a01b03196010541617601055565b6162146113416000546001600160a01b031690565b604051907f97f3815a000000000000000000000000000000000000000000000000000000008252602082600481845afa918215611424576000926168a4575b50604051917fcfbffe53000000000000000000000000000000000000000000000000000000008352602083600481855afa92831561142457600093616883575b50604051907fab6e844f000000000000000000000000000000000000000000000000000000008252602082600481865afa91821561142457600092616862575b50604051917f14d8d024000000000000000000000000000000000000000000000000000000008352602083600481875afa92831561142457600093616841575b50604051927fd1f956b1000000000000000000000000000000000000000000000000000000008452602084600481885afa93841561142457600094616820575b50604051937fe61dfd58000000000000000000000000000000000000000000000000000000008552602085600481895afa948515611424576000956167ff575b506040517fe09d394d0000000000000000000000000000000000000000000000000000000081526020816004818a5afa908115611424576000916167e0575b506040517f52b06d640000000000000000000000000000000000000000000000000000000081526020816004818b5afa908115611424576000916167c1575b506040517f013cf08b00000000000000000000000000000000000000000000000000000000815260006004820152916020836024818c5afa928315611424576000936167a0575b50604051977f5e09dbe70000000000000000000000000000000000000000000000000000000089526020896004818d5afa9485156114245760049960009661677f575b5060208b6040519b8c80927faa0ddc160000000000000000000000000000000000000000000000000000000082525afa9687156114245760049a60009861675e575b5060208c6040519c8d80927f640274270000000000000000000000000000000000000000000000000000000082525afa9889156114245760049b60009a61673d575b5060208d6040519d8e80927f30125cf50000000000000000000000000000000000000000000000000000000082525afa9a8b15611424578d60049d60009d61671b575b506020906040519e8f80927f24768d910000000000000000000000000000000000000000000000000000000082525afa9c8d156114245760009d6166fa575b50604051809e81907f9dc969a80000000000000000000000000000000000000000000000000000000082525a92600491602094fa9d8e156114245760009e6166d9575b506165ed612075565b6001600160a01b0390911681529d8e906001600160a01b031660208201526040019061662191906001600160a01b03169052565b6001600160a01b031660608d01526001600160a01b031660808c01526001600160a01b031660a08b01526001600160a01b031660c08a01526001600160a01b031660e08901526001600160a01b03166101008801526001600160a01b03166101208701526001600160a01b03166101408601526001600160a01b03166101608501526001600160a01b03166101808401526001600160a01b03166101a08301526001600160a01b03166101c082015261205290615efe565b6166f3919e5060203d60201161141d5761140d8183612023565b9c386165e4565b616714919d5060203d60201161141d5761140d8183612023565b9b386165a1565b6020919d5061673690823d841161141d5761140d8183612023565b9c90616562565b616757919a5060203d60201161141d5761140d8183612023565b983861651f565b61677891985060203d60201161141d5761140d8183612023565b96386164dd565b61679991965060203d60201161141d5761140d8183612023565b943861649b565b6167ba91935060203d60201161141d5761140d8183612023565b9138616458565b6167da915060203d60201161141d5761140d8183612023565b38616411565b6167f9915060203d60201161141d5761140d8183612023565b386163d2565b61681991955060203d60201161141d5761140d8183612023565b9338616393565b61683a91945060203d60201161141d5761140d8183612023565b9238616353565b61685b91935060203d60201161141d5761140d8183612023565b9138616313565b61687c91925060203d60201161141d5761140d8183612023565b90386162d3565b61689d91935060203d60201161141d5761140d8183612023565b9138616293565b6168be91925060203d60201161141d5761140d8183612023565b9038616253565b9081602091031261042b575161212181610930565b6169356001600160a01b03600254166040516168f581611fcf565b600881527f697353616665282900000000000000000000000000000000000000000000000060208201526040519161692c83611feb565b60008352616b3f565b9080616954575b156106b45780602080612121935183010191016168c5565b50602081511461693c565b6169c26001600160a01b03806002541660405191602094168483015283825261698782611fcf565b6040519061699482611fcf565b601582527f697353656375726542617365286164647265737329000000000000000000000085830152616b3f565b90806169df575b156106b4578161212192825183010191016168c5565b50818151146169c9565b6121216001600160a01b0360035416604051616a0481611fcf565b600681527f694167652829000000000000000000000000000000000000000000000000000060208201526040519161114383611feb565b6001600160a01b0380911690811561087057600154826001600160a01b0319821617600155167f8292fce18fa69edf4db7b94ea2e58241df0ae57f97e0a6c9b29067028bf92d76600080a3565b3d15616ab3573d90616a99826120a3565b91616aa76040519384612023565b82523d6000602084013e565b606090565b908015612310576001600160a01b03821691821561087057600080808481945af1616ae1616a88565b50156106b45760207fcec1f18c3ab8ddaaa107a1591e3c369667eec613626611a8deaedef43069fcdd91604051908152a2565b90616b1f9291616b3f565b9060009015616b2c575090565b6040519150616b3a82611feb565b815290565b9190823b15616bd4577fffffffff00000000000000000000000000000000000000000000000000000000815160208093012016916040519180830193845281519160005b838110616bc0575050509181616bb060248260009795968897018783820152036004810184520182612023565b51915afa616bbc616a88565b9091565b818101830151858201602401528201616b83565b505050600090604051616be681611feb565b6000815290565b9291616bfb91600094616b3f565b9080616c2b575b616c095750565b6001600160a01b0391925080602080616c27935183010191016125fa565b1690565b506020815114616c02565b9291616c4491600094616b3f565b9080616c67575b616c525750565b612121919250602080825183010191016168c5565b506020815114616c4b565b9291616c8091600094616b3f565b9080616ca3575b616c8e5750565b61212191925060208082518301019101612923565b506020815114616c87565b9291616cbc91600094616b3f565b9080616ce1575b616cca5750565b90915060208180518101031261042b576020015190565b506020815114616cc3565b90602082519201517fffffffff00000000000000000000000000000000000000000000000000000000908181169360048110616d2757505050565b60040360031b82901b16169150565b6001600160a01b0381161561087057600080918351908260208601915af190616d5d616a88565b9115616d67575090565b805160009190600411616de357616d7e9150616cec565b815115616d8e5750805190602001fd5b6040517f21c09d340000000000000000000000000000000000000000000000000000000081527fffffffff00000000000000000000000000000000000000000000000000000000919091166004820152602490fd5b50616d7e565b803b6000616df6826120a3565b92616e046040519485612023565b82845260208401903c602d815110616e2057602a015160601c90565b60046040517fbaf3f0f7000000000000000000000000000000000000000000000000000000008152fdfe8bd115fc6ec81ad72d5ca8a8b3bd3d0177f1b615af6ad35644a4e24a7bed08bca26469706673582212204c30e734e5bb508afb8c603caceb7906f0874334fd84b8594191fc53ac0124c164736f6c63430008140033","linkReferences":{}},"methodIdentifiers":{"instanceStor()":"131c73ad"},"id":78}