{"abi":[{"type":"constructor","inputs":[{"name":"_hex","type":"address","internalType":"address"}],"stateMutability":"nonpayable"},{"type":"function","name":"instanceStor","inputs":[],"outputs":[{"name":"","type":"address","internalType":"address"}],"stateMutability":"view"}],"bytecode":{"object":"0x6080346100c5576001600160401b0390601f61721e38819003918201601f1916830191848311848410176100af578084926020946040528339810103126100c557516001600160a01b039190828116908190036100c557604051916170c590818401908111848210176100af576020928492610159843981520301906000f080156100a3571660018060a01b03196000541617600055604051608e90816100cb8239f35b6040513d6000823e3d90fd5b634e487b7160e01b600052604160045260246000fd5b600080fdfe6080806040526004361015601257600080fd5b600090813560e01c63131c73ad14602857600080fd5b346054578160031936011260545773ffffffffffffffffffffffffffffffffffffffff60209254168152f35b5080fdfea264697066735822122092b6791a6e0434e621443d47d71aa25b077ba3d232d454652ef56727cf52a11e64736f6c63430008140033608034620000b757601f620070c538819003918201601f19168301916001600160401b03831184841017620000bc57808492602094604052833981010312620000b757516001600160a01b03811690819003620000b7578015620000a55760018060a01b0319903382600154161760015560009182541617815560016011558060125580601355806014558060155580601655601755604051616ff29081620000d38239f35b60405163e6c4247b60e01b8152600490fd5b600080fd5b634e487b7160e01b600052604160045260246000fdfe60806040526004361015610018575b361561001657005b005b60003560e01c806302a085f214610338578063043719b41461033357806309d8da2e1461032e5780630b98f9751461032957806312065fe014610324578063129641201461031f578063141ca6601461031a578063143ec3b7146103155780631f185d161461031057806329ee350e1461030b578063339459a61461030657806339b4d61b146103015780633b9b7955146102fc57806343a1b5ab146102f75780634a65786c146102f257806352902c59146102ed5780635640dbfc146102e85780635ecf6a8a146102e3578063619d5194146102de5780636350b2c2146102d9578063654c668e146102d457806369245009146102cf5780636de97c66146102ca5780636f493aad146102c5578063725b6fff146102c0578063759f22bd146102bb57806375b4d78c146102b65780637b058ac1146102b1578063822ffec4146102ac578063880cdc31146102a75780638da5cb5b146102a2578063934209ce1461029d5780639659867e14610298578063a1f7f53914610293578063a5d7cda41461028e578063a663030414610289578063a9bf285b14610284578063af4845261461027f578063af640d0f1461027a578063b90306ad14610275578063bab2f55214610270578063c54e44b01461026b578063c8ef7b1a14610266578063d2a1590414610261578063d3a1a4991461025c578063da02133514610257578063deb1ba1e14610252578063e01ad5fd1461024d578063e0a9bc2b146102485763fdc10bc90361000e57612055565b61203a565b611fba565b611f40565b611eb9565b611e8d565b611e48565b611d4d565b611d15565b611cf7565b611be9565b611bcb565b611b9a565b611b7c565b611577565b611193565b61111e565b611100565b6110e2565b6110bb565b611050565b610e13565b610ce2565b610cc4565b610bfe565b610b7a565b610b40565b610aae565b610a55565b610a00565b6109a9565b610941565b61091e565b6108c3565b6107d8565b6107b2565b610794565b61076d565b610741565b610728565b6106ef565b610608565b6105cb565b61056f565b610523565b610507565b610496565b610473565b610437565b61036c565b610120810192916000915b6009831061035557505050565b600190825181526020809101920192019190610348565b60408060031936011261043257805190610385826120be565b61012036833760ff6018541661041b5761039d616a2c565b1561040b576103ab33616ab1565b80156103f7575b156103e7576103d36103e3926103c66127f7565b6024359060043590612cd3565b906001601155519182918261033d565b0390f35b6004905163ea8e4eb560e01b8152fd5b50336001600160a01b0360055416146103b2565b60049051634ee2123760e11b8152fd5b60249051635258db5f60e01b8152600a6004820152fd5b600080fd5b3461043257604036600319011261043257600435600052603060205260206104656024356040600020612395565b90546040519160031b1c8152f35b3461043257600036600319011261043257602060ff601854166040519015158152f35b34610432576020366003190112610432576104af616a2c565b156104f6576104bd33616ab1565b80156104e2575b156104d157600435601955005b600460405163ea8e4eb560e01b8152fd5b50336001600160a01b0360055416146104c4565b6004604051634ee2123760e11b8152fd5b3461043257600036600319011261043257602047604051908152f35b3461043257604036600319011261043257610542602435600435615bef565b60405190600090825b600783106105585760e084f35b60019082518152602080910192019201919061054b565b602036600319011261043257610583616a2c565b156104f65761059133616ab1565b80156105b7575b156104d1576105a56127f7565b6105b06004356137f8565b6001601155005b50336001600160a01b036005541614610598565b346104325760203660031901126104325760043560005260306020526020604060002054604051908152f35b6001600160a01b0381160361043257565b346104325760208060031936011261043257610687600435610629816105f7565b6001600160a01b0380600254169060405192168483015283825261064c826120db565b60405190610659826120db565b601182527f69735369676e657228616464726573732900000000000000000000000000000085830152616c91565b9190806106e5575b156106bb5781816106a9926103e394518301019101616a17565b60405190151581529081906020820190565b60046040517f3204506f000000000000000000000000000000000000000000000000000000008152fd5b508082511461068f565b3461043257600036600319011261043257601f54600881101561072357602181015460408051928352602083019190915290f35b611e65565b3461043257600036600319011261043257610016616351565b3461043257602036600319011261043257600435600052602a6020526020604060002054604051908152f35b346104325760003660031901126104325760206001600160a01b0360005416604051908152f35b34610432576000366003190112610432576020602d54604051908152f35b3461043257600036600319011261043257602060ff60185460081c166040519015158152f35b34610432576060366003190112610432576004356107f5816105f7565b602435610801816105f7565b6001600160a01b038092169081158080156108b9575b6108a15761087757610869916000938454826001600160a01b03198216178655167fe939feee179e631422bcc8f6e6d7d908cb3f8af38f5372f17c77e15aea5c80ee8580a3610864612230565b616b8d565b610874604435601b55565b80f35b60046040517fe6c4247b000000000000000000000000000000000000000000000000000000008152fd5b6024604051635258db5f60e01b815260016004820152fd5b5083821615610817565b346104325760003660031901126104325760c060315460ff60325460335490604051938452602084015281811615156040840152818160081c1615156060840152818160101c161515608084015260181c16151560a0820152f35b3461043257600036600319011261043257610016612230565b8015150361043257565b346104325760203660031901126104325760043561095e81610937565b610966616a2c565b156104f65761097433616ab1565b8015610995575b156104d15760ff8019601854169115151617601855600080f35b50336001600160a01b03600554161461097b565b3461043257602036600319011261043257600435600052602c602052608060406000208054906001810154906001600160a01b03600360028301549201541691604051938452602084015260408301526060820152f35b3461043257604036600319011261043257610a19616a2c565b156104f657610a2733616ab1565b8015610a41575b156104d157600435601455602435601355005b50336001600160a01b036005541614610a2e565b34610432576000366003190112610432576020601e54604051908152f35b6020908160408183019282815285518094520193019160005b828110610a9a575050505090565b835185529381019392810192600101610a8c565b3461043257600036600319011261043257601f546001810190818111610b3b57610ad782615fd4565b91610ae5604051938461212f565b808352610af4601f1991615fd4565b0136602084013760005b81811115610b1457604051806103e38582610a73565b60088110156107235780610b369160210154610b30828661603c565b5261245a565b610afe565b612444565b3461043257604036600319011261043257600435600052602e60205260406000206024356000526020526020604060002054604051908152f35b34610432576000366003190112610432576020601c54604051908152f35b6020908160408183019282815285518094520193019160005b828110610bbf575050505090565b9091929382608082610bf26001948951606080918051845260208101516020850152604081015160408501520151910152565b01950193929101610bb1565b3461043257604036600319011261043257600435602435808211610cac57818103908111610b3b57600190818101809111610b3b57610c3c90615fec565b916000825b610c54575b604051806103e38682610b98565b8351811015610ca75780610c86610c81610c71610ca19486612613565b600052602f602052604060002090565b615fa2565b610c90828761603c565b52610c9b818661603c565b5061245a565b82610c41565b610c46565b6024604051635258db5f60e01b8152600d6004820152fd5b34610432576000366003190112610432576020601954604051908152f35b346104325760a036600319011261043257604435602435600435608435610d0881610937565b610d10616a2c565b156104f657610d1e33616ab1565b8015610dff575b156104d15760009260009480610d46575b6040805186815260208101889052f35b9091929350601f549483600014610db757506001610d9682610daa96610d84610d7c610d9f96600052602f602052604060002090565b918254612613565b9055600052602f602052604060002090565b01918254612613565b90555b60643561451c565b601f549038808080610d36565b808260409252602f60205220938454908103908111610b3b57610def610df892600192610daa9755600052602f602052604060002090565b0191825461262f565b9055610da2565b50336001600160a01b036005541614610d25565b346104325760c03660031901126104325760643560a435602435600435604435610e3c84610937565b610e44616a2c565b156104f657610e5233616ab1565b801561103c575b156104d157610e7281600052602f602052604060002090565b610e7d838254612613565b90556001610e9582600052602f602052604060002090565b01610ea1848254612613565b905560008052602f6020527fc11d2605466dd88923799a61d7f94d6c8cc580bae52b24870f6853eaa13cc4d654151580611033575b610ee9575b601f54604051908152602090f35b610f6692159485159283611025575b610f55610f46610f106003546001600160a01b031690565b60405190610f3882610f2a89602083019190602083019252565b03601f19810184528361212f565b610f40614364565b90616c66565b6020808251830101910161439d565b9493929991989095601e549061262f565b60843511918215611018575b508161100f575b50610f87575b505050610edb565b610fed96600396610d9696600090156110065750610fb1610fab610fb79385612743565b916126d2565b906124f3565b975b60009015610ffc5750610fab610fd293610fb192612743565b945b610d846002610d9684600052602f602052604060002090565b90553880808080808080610f7f565b9250505094610fd4565b91505097610fb9565b90501538610f79565b601f541015915038610f72565b61102e826143fd565b610ef8565b50801515610ed6565b50336001600160a01b036005541614610e59565b346104325760203660031901126104325760043561106d816105f7565b611075616a2c565b156104f65761108333616ab1565b80156110a7575b156104d1576001600160a01b038116156104d15761001690616b8d565b50336001600160a01b03600554161461108a565b346104325760003660031901126104325760206001600160a01b0360015416604051908152f35b34610432576000366003190112610432576020601f54604051908152f35b34610432576000366003190112610432576020601a54604051908152f35b3461043257600036600319011261043257602061118b6001600160a01b036006541660405161114c816120db565b601381527f67657464656c656761746f72436f756e742829000000000000000000000000008482015260405191611182836120f7565b60008352616dc4565b604051908152f35b6040806003193601126104325760049081359160243560ff60185416611560576111bb6127f7565b6111c3616b3b565b90601c546111d18282612613565b831115611558576111e29250612613565b915b61122161121c6112166111ff6003546001600160a01b031690565b6112076124a2565b906112106124ba565b90616dc4565b856124f3565b602955565b611237602954600052602a602052604060002090565b549361124b6003546001600160a01b031690565b946112656112576124a2565b61125f612513565b88616dc4565b0361153b576103e7600052603060205260016112a37f42e4ed8a28bd93bfb836b3bd3996ada35ff866e155b2ce135e767e31acbdb63f5b5460011690565b1480611506575b6114e9578151602080820183905295906112e3906112d581604081015b03601f19810183528261212f565b6112dd6132c1565b83616dc4565b34036114c85761136b91611316611308611366936112ff6124a2565b90610f406132fa565b888082518301019101613333565b946001600160a01b03928316949193921690801515806114bf575b6114a3575b5050508015158061149a575b611472575b50505061135e61135934601254612613565b601255565b601354612613565b601355565b61137483612832565b8361139661138a6000546001600160a01b031690565b6001600160a01b031690565b8251938480927f1b4fc17b0000000000000000000000000000000000000000000000000000000082525afa91821561146d577f1517c86fcf2bfb8e3468afcc539b0004955da8027797c497ea51d1f1094ab89894600093611438575b5050513381526001600160a01b0390911660208201526000604082015234606082015260808101919091526103e860a08201528060c081015b0390a16100166001601155565b61142b929350908161145e92903d10611466575b611456818361212f565b810190612684565b9190386113f2565b503d61144c565b613373565b61149292610fb161148661148c9334612743565b916126e3565b90616c0a565b388080611347565b50811515611342565b6114b792610fb161148661148c9334612743565b388080611336565b50811515611331565b825163cdab4c8760e01b8152600981860190815281906020010390fd5b0390fd5b8151635258db5f60e01b8152600681850190815281906020010390fd5b50601b54825160208101919091526115339061152581604081016112c7565b61152d612469565b87616d3f565b3115156112aa565b815163cdab4c8760e01b8152600581850190815281906020010390fd5b5050916111e4565b50600a6024925191635258db5f60e01b8352820152fd5b60c03660031901126104325760048035611590816105f7565b6064359060443560a4356084356115a5616a2c565b15611b6c576115b333616ab1565b8015611b58575b15611aca5760ff60185416611b40576115d16127f7565b6103e7600052603060205260016116077f42e4ed8a28bd93bfb836b3bd3996ada35ff866e155b2ce135e767e31acbdb63f61129c565b1480611af8575b611ada5761162261161e85616ab1565b1590565b611aca5760039361164361121c6112166111ff88546001600160a01b031690565b60295461165a81600052602a602052604060002090565b5486546001600160a01b0316906116806116726124a2565b61167a612513565b84616dc4565b1190811591611a86575b50611a68576116a390600052602a602052604060002090565b8054600101905560018214958615611a61576116eb6116c987546001600160a01b031690565b604051906116e382610f2a8a602083019190602083019252565b6112106125be565b965b611a0e575b50601a54156119f7575b601a546117089061245a565b601a55611713612151565b948686526020918583880152846040880152606087019660008852601a5461174590600052602c602052604060002090565b9061174f9161263c565b60015460405163c85700fb60e01b858201526001600160a01b03909116602480830191909152356044820152606481018790526084810189905260a4808201879052815261179e60c48261212f565b6117a791616e88565b828082518301019101906117ba91612684565b6001600160a01b0316808752156119d9578697506119676118e26118dd6119556118ed8a9b610fb16118e86118ce6119bb9b9a7f1517c86fcf2bfb8e3468afcc539b0004955da8027797c497ea51d1f1094ab8989f8f61197e9c6118a361189e6118966118b09461186b6118386118c198516001600160a01b031690565b8661184f601a54600052602c602052604060002090565b01906001600160a01b03166001600160a01b0319825416179055565b61189061187f86546001600160a01b031690565b6118876124a2565b90611210612699565b90612743565b601554612613565b601555565b546001600160a01b031690565b6118b86124a2565b90610f40612756565b805181018201910161278f565b9c9491959b9293989050612743565b612743565b93612743565b6126f9565b9161191f611907602d54600052602e602052604060002090565b611911838c612613565b600052602052604060002090565b61192a8482546127c2565b905561191184611950611949602d54600052602e602052604060002090565b938c612613565b612613565b6119608282546127de565b9055612743565b9661197185612832565b516001600160a01b031690565b604080513381526001600160a01b03909216602083015281019490945260608401879052608084019290925260a0830191909152819060c0820190565b0390a16119c86001601155565b604080519182526020820192909252f35b604051635258db5f60e01b81526002818a0190815281906020010390fd5b611a0083601c55565b611a0983601d55565b6116fc565b6019549087611a1d8383612613565b10611a435787611a33611a3d93611a3893612613565b61262f565b601955565b386116f2565b604051635258db5f60e01b81526005818b0190815281906020010390fd5b80966116ed565b60405163cdab4c8760e01b81526001818a0190815281906020010390fd5b9050611a9b611a936124a2565b6112dd61254c565b8610908115611aac575b503861168a565b611ac29150611ab96124a2565b90611210612585565b851138611aa5565b8560405163ea8e4eb560e01b8152fd5b604051635258db5f60e01b8152600b81880190815281906020010390fd5b50611b38610f2a611b1088546001600160a01b031690565b611b2a601b54604051938491602083019190602083019252565b611b32612469565b90616d3f565b31151561160e565b602486600a60405191635258db5f60e01b8352820152fd5b50336001600160a01b0360055416146115ba565b85604051634ee2123760e11b8152fd5b34610432576000366003190112610432576020601d54604051908152f35b34610432576020366003190112610432576020611bc1600435611bbc816105f7565b616ab1565b6040519015158152f35b34610432576000366003190112610432576020601b54604051908152f35b3461043257602036600319011261043257600435611c05616a2c565b156104f6576001600160a01b036005541633036104d15760009060046020611c3761138a85546001600160a01b031690565b604051928380927f46f991ac0000000000000000000000000000000000000000000000000000000082525afa801561146d5783808481949382948391611cd9575b505af1611c83616bda565b50156106bb577fcdcc745fe377b103b45fa0cec23ae3ef93d6fc6a84a01f0d18c40b354dd1d5d8611cd3611cc261138a600b546001600160a01b031690565b604051938452929081906020820190565b0390a280f35b611cf1915060203d811161146657611456818361212f565b38611c78565b34610432576000366003190112610432576020602954604051908152f35b34610432576020366003190112610432576020611d3c600435611d37816105f7565b616f3b565b6001600160a01b0360405191168152f35b3461043257604036600319011261043257602435611d6a81610937565b611d72616a2c565b156104f657611d8033616ab1565b8015611e34575b156104d157611d94616b3b565b906000916004358352603060205260408320805492831590811591611e2c575b81611e0c575b50611dc3578380f35b68010000000000000000831015611e075782611de7916001611e0095018155612395565b90919082549060031b91821b91600019901b1916179055565b3880808380f35b612070565b159050611e235760ff845b16600184161438611dba565b60ff6001611e17565b905080611db4565b50336001600160a01b036005541614611d87565b346104325760003660031901126104325760208054604051908152f35b634e487b7160e01b600052603260045260246000fd5b60088110156107235760210190600090565b346104325760203660031901126104325760043560088110156104325760209060210154604051908152f35b3461043257602036600319011261043257611ed2615f7d565b50600435600052602f60205260806040600020600360405191611ef483612086565b80548352600181015460208401526002810154604084015201546060820152611f3e6040518092606080918051845260208101516020850152604081015160408501520151910152565bf35b3461043257602036600319011261043257600435611f5d81610937565b611f65616a2c565b156104f657611f7333616ab1565b8015611fa6575b156104d15715611f9457611f8f60205461245a565b602055005b6020548015610b3b5760001901602055005b50336001600160a01b036005541614611f7a565b34610432576020366003190112610432576020611bc1600435611fdc816105f7565b6001600160a01b03806006541690604051921684830152838252611fff826120db565b6040519061200c826120db565b601882527f697364656c656761746f724e6f6465286164647265737329000000000000000085830152616d88565b34610432576000366003190112610432576020611bc1616a2c565b3461043257600036600319011261043257602061118b616b3b565b634e487b7160e01b600052604160045260246000fd5b6080810190811067ffffffffffffffff821117611e0757604052565b6060810190811067ffffffffffffffff821117611e0757604052565b610120810190811067ffffffffffffffff821117611e0757604052565b6040810190811067ffffffffffffffff821117611e0757604052565b6020810190811067ffffffffffffffff821117611e0757604052565b60e0810190811067ffffffffffffffff821117611e0757604052565b90601f8019910116810190811067ffffffffffffffff821117611e0757604052565b6040519061215e82612086565b565b604051906102c0820182811067ffffffffffffffff821117611e0757604052565b604051906101e0820182811067ffffffffffffffff821117611e0757604052565b6040519061215e82612113565b67ffffffffffffffff8111611e0757601f01601f191660200190565b604051906121d8826120f7565b60008252565b91908260c091031261043257815191602081015191604082015161220181610937565b91606081015161221081610937565b9160a0608083015161222181610937565b92015161222d81610937565b90565b612238616351565b6122946001600160a01b036003541660405190612254826120f7565b6000825260405190612265826120db565b600982527f63617070696e67282900000000000000000000000000000000000000000000006020830152616c66565b8051156123375761231b61233261230261232d6122e76122c08660208061215e995183010191016121de565b9994999792959091939763ff00000060335491151560181b169063ff000000191617603355565b62ff000060335491151560101b169062ff0000191617603355565b61ff0060335491151560081b169061ff00191617603355565b60ff8019603354169115151617603355565b603255565b603155565b60646040517f08c379a000000000000000000000000000000000000000000000000000000000815260206004820152601460248201527f43617070696e67206665746368206661696c65640000000000000000000000006044820152fd5b80548210156107235760005260206000200190600090565b6103e760005260306020527f42e4ed8a28bd93bfb836b3bd3996ada35ff866e155b2ce135e767e31acbdb63f80549283158015919061243c575b8161241b575b506123f757505050565b68010000000000000000831015611e075782611de791600161215e95018155612395565b1590506124335760ff60005b166001841614386123ed565b60ff6001612427565b9050806123e7565b634e487b7160e01b600052601160045260246000fd5b6000198114610b3b5760010190565b60405190612476826120db565b601882527f676574557365724964546f496e73742875696e743235362900000000000000006020830152565b6040516124ae816120f7565b60008152906000368137565b604051906124c7826120db565b600f82527f6d696e744379636c6544617973282900000000000000000000000000000000006020830152565b81156124fd570490565b634e487b7160e01b600052601260045260246000fd5b60405190612520826120db565b601282527f6d61784d696e74735065724379636c65282900000000000000000000000000006020830152565b60405190612559826120db565b600c82527f6d696e4d696e74517479282900000000000000000000000000000000000000006020830152565b60405190612592826120db565b600c82527f6d61784d696e74517479282900000000000000000000000000000000000000006020830152565b604051906125cb826120db565b601982527f636f6d707574654d696e7456616c75652875696e7432353629000000000000006020830152565b6046019081604611610b3b57565b9060018201809211610b3b57565b91908201809211610b3b57565b600019810191908211610b3b57565b91908203918211610b3b57565b60036001600160a01b03606061215e948051855560208101516001860155604081015160028601550151169101906001600160a01b03166001600160a01b0319825416179055565b90816020910312610432575161222d816105f7565b604051906126a6826120db565b600f82527f6d696e74466565506572517479282900000000000000000000000000000000006020830152565b9081606402916064830403610b3b57565b90606482029180830460641490151715610b3b57565b9061271091828102928184041490151715610b3b57565b90601982029180830460191490151715610b3b57565b90670de0b6b3a764000091828102928184041490151715610b3b57565b81810292918115918404141715610b3b57565b60405190612763826120db565b600682527f706f6f6c282900000000000000000000000000000000000000000000000000006020830152565b908160e09103126104325780519160208201519160408101519160608201519160808101519160c060a083015192015190565b91909160008382019384129112908015821691151617610b3b57565b81810392916000138015828513169184121617610b3b57565b600260115414612808576002601155565b60046040517f3ee5aeb5000000000000000000000000000000000000000000000000000000008152fd5b6000808052602f60205261215e9161287b6128727fc11d2605466dd88923799a61d7f94d6c8cc580bae52b24870f6853eaa13cc4d65b5460125490612613565b60315490612743565b612883615b3c565b505060335460ff8116612abe575b60ff8160081c16612a19575b60ff8160101c1661296f575b60181c60ff166128f6575b6128d76128d26128c960155460135490612613565b60325490612743565b612726565b9060145493119283156128ec575b50506123ad565b11915038806128e5565b6004600052602b60205291612969906129636129436001600080516020616f9d8339815191525b01546004600052602b6020526002600080516020616f9d8339815191525b015490612613565b6004600052602b6020526003600080516020616f9d83398151915261293b565b90612613565b916128b4565b6003600052602b6020529260ff90612a11906129636129df60017fd3904653c5d0f9b122879aa13f7287465a10522aedd588dbbd607cf6f8b2147f5b01546003600052602b60205260027fd3904653c5d0f9b122879aa13f7287465a10522aedd588dbbd607cf6f8b2147f61293b565b60036000819052602b6020527fd3904653c5d0f9b122879aa13f7287465a10522aedd588dbbd607cf6f8b2147f61293b565b9390506128a9565b6002600052602b60205292612ab890612963612a8660017fbd6c10e6ce287735500a1c033be76c57d5e632addc2ff6eff6bb587b8ee0d95c5b015460026000819052602b6020527fbd6c10e6ce287735500a1c033be76c57d5e632addc2ff6eff6bb587b8ee0d95c61293b565b6002600052602b60205260037fbd6c10e6ce287735500a1c033be76c57d5e632addc2ff6eff6bb587b8ee0d95c61293b565b9261289d565b9250612b43612b116001612add6001600052602b602052604060002090565b01546001600052602b60205260027ffcc3d43705633578a5e8f1b6d6f38d08eb8cb891174edcc94b1a54972a1aebbd61293b565b6001600052602b60205260037ffcc3d43705633578a5e8f1b6d6f38d08eb8cb891174edcc94b1a54972a1aebbd61293b565b92612891565b60405190612b5682612113565b60e0368337565b60405190612b6a826120db565b601082527f65616368636c61696d4379636c652829000000000000000000000000000000006020830152565b60405190612ba3826120db565b601082527f6d6178436c61696d5065724461792829000000000000000000000000000000006020830152565b60405190612bdc826120db565b601082527f6d696e436c61696d5065724461792829000000000000000000000000000000006020830152565b60405190612c15826120db565b601682527f6d6178476c6f62616c436c61696d5065724461792829000000000000000000006020830152565b60405190612c4e826120db565b601582527f67657477697468647261776e2875696e743235362900000000000000000000006020830152565b9060098110156107235760051b0190565b60405190612c98826120db565b601d82527f636f6d707574654f7a6f6e65546f446f6c6c61722875696e74323536290000006020830152565b90816020910312610432575190565b9291908382156132bb5750601c5490612cec8183612613565b8311156132ae57612d0a612d0260329284612613565b925b8361262f565b116132aa57600391612d2383546001600160a01b031690565b612d42612d39612d316124a2565b61167a612b5d565b601d5490612613565b821015612d50575b50505050565b612d6590612d5c6124a2565b90611210612b96565b92612d6f83614672565b6001600052602b60205293612ec5612e94612e63612e32612e01612dd0877ffcc3d43705633578a5e8f1b6d6f38d08eb8cb891174edcc94b1a54972a1aebbd5b01546004600052602b60205288600080516020616f9d83398151915261293b565b6002600052602b602052877fbd6c10e6ce287735500a1c033be76c57d5e632addc2ff6eff6bb587b8ee0d95c61293b565b6003600052602b602052867fd3904653c5d0f9b122879aa13f7287465a10522aedd588dbbd607cf6f8b2147f61293b565b6005600052602b602052857f4b5b933abde5416303ae4347d7fcdf5a17e8022e0fefc2b31c7609ebd3c32fe961293b565b6006600052602b602052847f5ac1f6ea00ad8b0f699e3a293cc93d6fdaf7ee608fbc40ffef54db3fb7ebb94361293b565b6007600052602b602052837f455b6dea826802a5b6200d61a7810fccbd36f05c878743e3ac0e0e7aff3a46e861293b565b91612ed781546001600160a01b031690565b612eea612ee26124a2565b6112dd612bcf565b84108015906132a3575b612f01575b505050612d4a565b612f1690612f0d6124a2565b90611210612c08565b92612f296004546001600160a01b031690565b92604094612f61865180612f458a602083019190602083019252565b0396612f59601f199889810184528361212f565b611210612c41565b101561328c576000918181111561328557612f7c925061262f565b9088600092600190815b600781111561308857505050938796959361304693613041936130509a61010061304b9960165460e082015260175491829101528161307e575b50613066575b612fd06000601655565b612fda6000601755565b6000821561305c57509261302261302a936130169361300361303997546001600160a01b031690565b9351948591602083019190602083019252565b0390810184528361212f565b610f40612c8b565b60208082518301019101612cc4565b601454612613565b601455565b601d55565b6123ad565b38808080808080612ef9565b9350505050613039565b613079613074602d5461245a565b602d55565b612fc6565b9050151538612fc0565b88856130a28398959698600052602b602052604060002090565b0154836131a8579061315061314061319f95967f1517c86fcf2bfb8e3468afcc539b0004955da8027797c497ea51d1f1094ab89894896130ec88600052602b602052604060002090565b016130f8828254612613565b905560008b61311189600052602b602052604060002090565b015561312561311f88612620565b8d612c7a565b525b61313961313387612620565b8c612c7a565b5190612613565b9861314a85612620565b90612c7a565b5161319761315d856125f7565b8c5193849333859094939260a0926001600160a01b0360c08401971683526000602084015260006040840152606083015260808201520152565b0390a161245a565b908b9291612f86565b9280841115613241579061315061314085966132156131eb7f1517c86fcf2bfb8e3468afcc539b0004955da8027797c497ea51d1f1094ab8989661319f9961262f565b80998b6132028a600052602b602052604060002090565b0161320e838254612613565b905561262f565b8a61322a88600052602b602052604060002090565b015560009761323b61311f88612620565b52613127565b9061315061314061327661319f967f1517c86fcf2bfb8e3468afcc539b0004955da8027797c497ea51d1f1094ab8989561262f565b96600061323b61311f88612620565b5050612f7c565b845163cdab4c8760e01b8152600480820152602490fd5b5086612ef4565b5050565b506032612d0a8392612d04565b93505050565b604051906132ce826120db565b601d82527f636f6d70757465446f6c6c6172546f4f7a6f6e652875696e74323536290000006020830152565b60405190613307826120db565b600a82527f6275726e636e66672829000000000000000000000000000000000000000000006020830152565b91908260c091031261043257815161334a816105f7565b916020810151916040820151916060810151613365816105f7565b9160a0608083015192015190565b6040513d6000823e3d90fd5b6040519061338c826120db565b601382527f55736572546f496e7374286164647265737329000000000000000000000000006020830152565b604051906133c5826120db565b600b82527f6d696e74436f756e7428290000000000000000000000000000000000000000006020830152565b604051906133fe826120db565b600e82527f6d696e74732875696e74323536290000000000000000000000000000000000006020830152565b60405190613437826120db565b600b82527f6d696e74656441676528290000000000000000000000000000000000000000006020830152565b60405190613470826120db565b600b82527f6d696e74656471747928290000000000000000000000000000000000000000006020830152565b604051906134a9826120db565b600c82527f6964732875696e743235362900000000000000000000000000000000000000006020830152565b604051906134e2826120db565b600982527f6d696e74416d74282900000000000000000000000000000000000000000000006020830152565b6040519061351b826120db565b600a82527f647261776e6167652829000000000000000000000000000000000000000000006020830152565b60405190613554826120db565b600c82527f4c53422875696e743235362900000000000000000000000000000000000000006020830152565b6040519061358d826120db565b600782527f647261776e2829000000000000000000000000000000000000000000000000006020830152565b91908260c09103126104325781519160208101519160408201519160608101519160a0608083015192015190565b604051906135f4826120db565b601382527f67657452657761726473286164647265737329000000000000000000000000006020830152565b9190826040910312610432576020825192015190565b60405190613643826120db565b600782527f626f6e75732829000000000000000000000000000000000000000000000000006020830152565b6040519061367c826120db565b600682527f63616765282900000000000000000000000000000000000000000000000000006020830152565b604051906136b5826120db565b601982527f67657445666665637469766552616e6b286164647265737329000000000000006020830152565b604051906136ee826120db565b601882527f6765744e6f64654c766c446570746828616464726573732900000000000000006020830152565b60405190613727826120db565b601e82527f6765746e6f6465526e6b41676528616464726573732c75696e743235362900006020830152565b60405190613760826120db565b601082527f6765744e6f6465286164647265737329000000000000000000000000000000006020830152565b908160a09103126104325780519160208201516137a8816105f7565b916040810151916080606083015161222181610937565b604051906137cc826120db565b601a82527f77697468647261776e496e636f6d654f662861646472657373290000000000006020830152565b60185460081c60ff1661436157600490602061381f61138a6000546001600160a01b031690565b604051938480927f447aa3040000000000000000000000000000000000000000000000000000000082525afa91821561146d57600092614340575b506138a16112c76138936138766001546001600160a01b031690565b604080516001600160a01b03909216602083015290928391820190565b61389b61337f565b84616d3f565b906001600160a01b0382161561431c5760058111614303576138cc6138c46124a2565b61167a6133b8565b90601a546138da8183612613565b8311156142fb576138ea91612613565b81613e39575b5080601a5414908115613e30575b50613907575050565b61392261391d6139156124a2565b61167a61350e565b601e55565b601e54601c548111613dce575b5061395b61394c61393e6124a2565b613946613580565b84616c66565b602080825183010191016135b9565b9460016139799592959493946001600052602b602052604060002090565b01557fbd6c10e6ce287735500a1c033be76c57d5e632addc2ff6eff6bb587b8ee0d95d557fd3904653c5d0f9b122879aa13f7287465a10522aedd588dbbd607cf6f8b21480557f8bd115fc6ec81ad72d5ca8a8b3bd3d0177f1b615af6ad35644a4e24a7bed08bd557f5ac1f6ea00ad8b0f699e3a293cc93d6fdaf7ee608fbc40ffef54db3fb7ebb944557f455b6dea826802a5b6200d61a7810fccbd36f05c878743e3ac0e0e7aff3a46e95560008052602f6020527fc11d2605466dd88923799a61d7f94d6c8cc580bae52b24870f6853eaa13cc4d754613a5d9061189e90612710565b613aa4613a95604051613a87816112c786602083019190916001600160a01b036020820193169052565b613a8f6135e7565b85616c66565b60208082518301019101613620565b602b6020527ffcc3d43705633578a5e8f1b6d6f38d08eb8cb891174edcc94b1a54972a1aebbd919091556004600052600080516020616f9d83398151915255613af9611a38613af16124a2565b61167a613636565b613b0f61391d613b076124a2565b61167a61366f565b613b4c613b47604051613b39816112c786602083019190916001600160a01b036020820193169052565b613b416136a8565b85616dc4565b601f55565b604080516001600160a01b0383166020820152613b7891613b7090829081016112c7565b61167a6136e1565b60005b818110613cdf575050613bbc610f2a613be293613bb4613bcb94604051938491602083019190916001600160a01b036020820193169052565b610f40613753565b6020808251830101910161378c565b935050505060ff8019601854169115151617601855565b60046020613bfb61138a6000546001600160a01b031690565b604051928380927f6325dd040000000000000000000000000000000000000000000000000000000082525afa90811561146d57613c7991610f2a91600091613cc0575b50613c71613c546001546001600160a01b031690565b604080516001600160a01b03909216602083015290938491820190565b6112106137bf565b6005600052602b6020527f4b5b933abde5416303ae4347d7fcdf5a17e8022e0fefc2b31c7609ebd3c32fea55601c54601d555b61215e61010061ff00196018541617601855565b613cd9915060203d60201161146657611456818361212f565b38613c3e565b80613cf891613d41575b601f54811115613cfd5761245a565b613b7b565b604080516001600160a01b0386166020820152908101829052613d3c90613d3390613d2b81606081016112c7565b61125f61371a565b611de783611e7b565b61245a565b6040517f5329daca0000000000000000000000000000000000000000000000000000000060208201526001600160a01b038516602482015260448101829052613d9b90613a9590613d9581606481016112c7565b87616e88565b90613db083600052602f602052604060002090565b556001613dc783600052602f602052604060002090565b0155613ce9565b601c55613dff6112c7613df1601e54604051928391602083019190602083019252565b613df9613547565b83616e00565b613e29613e18602d54600052602e602052604060002090565b601c54600052602052604060002090565b553861392f565b905015386138fe565b60008052602f6020527fc11d2605466dd88923799a61d7f94d6c8cc580bae52b24870f6853eaa13cc4d6547fc11d2605466dd88923799a61d7f94d6c8cc580bae52b24870f6853eaa13cc4d7549395909491929091905b601a548481101561429c57613ea7613eac9161245a565b601a55565b60008052602a6020527f25a1a901705ed15d5376e82511cff743d9474883c82d145cebcc7811e0424a9c613ee0815461245a565b9055601a5495613f10604051613f02816112c78b602083019190602083019252565b613f0a6133f1565b8a616d3f565b90613f24613f1c6124a2565b61167a61342a565b91613f38613f306124a2565b6112dd613463565b91613f5d604051613f55816112c760208201906000602083019252565b61167a61349c565b90613f80613f7a613f6c6124a2565b613f746134d5565b86616dc4565b93616f3b565b9a6020613fe0613f9b61138a6000546001600160a01b031690565b6040519e8f809381927fcfaa1f6c000000000000000000000000000000000000000000000000000000008352600483019190916001600160a01b036020820193169052565b03915afa9b8c1561146d5760009c61427b575b5061400061161e8d616ab1565b6104d1576140df9261406e866140688761138a968161402c6140d098600052602c602052604060002090565b55836001614046601a54600052602c602052604060002090565b01558b6002614061601a54600052602c602052604060002090565b0155612613565b9d612613565b9c6140cb6140846001546001600160a01b031690565b60405163c85700fb60e01b60208201526001600160a01b0390911660248201526044810193909352606483018890526084830187905260a483018990528260c48101610f2a565b616e88565b60208082518301019101612684565b6001600160a01b03811615614262577f1517c86fcf2bfb8e3468afcc539b0004955da8027797c497ea51d1f1094ab8989361420c614249926141346003918261184f601a54600052602c602052604060002090565b6118e26141db6141d36118dd6119116141828a610fb16118e86141736141646118b08c546001600160a01b031690565b6020808251830101910161278f565b9e9491959b9293989050612743565b946119506141cc602d6141ae8c611911886141a88554600052602e602052604060002090565b92612613565b6141b98a82546127c2565b905554600052602e602052604060002090565b938a612613565b9182546127de565b90556001601a5414614254575b6141fe601a54600052602c602052604060002090565b01546001600160a01b031690565b604080513381526001600160a01b03909216602083015281019490945260608401929092526080830191909152600060a0830152819060c0820190565b0390a1949394613e90565b61425d83601c55565b6141e8565b604051635258db5f60e01b815260026004820152602490fd5b614295919c5060203d60201161146657611456818361212f565b9a38613ff3565b5060008052602f6020527fc11d2605466dd88923799a61d7f94d6c8cc580bae52b24870f6853eaa13cc4d6959095557fc11d2605466dd88923799a61d7f94d6c8cc580bae52b24870f6853eaa13cc4d7939093559391929050386138f0565b5050806138ea565b60405163cdab4c8760e01b815260036004820152602490fd5b50505061432a61391d616b3b565b614335601e54601c55565b613cac601e54601d55565b61435a91925060203d60201161146657611456818361212f565b903861385a565b50565b60405190614371826120db565b601482527f6c6576656c436c617573652875696e74323536290000000000000000000000006020830152565b908160a0910312610432578051916020820151916040810151916080606083015192015190565b604051906143d1826120db565b601382527f72616e6b436c617573652875696e7432353629000000000000000000000000006020830152565b90601f61440a8154612605565b925b6008841061441a5750509050565b6003546001600160a01b031693604094614460614452875160209361444a82610f2a888883019190602083019252565b610f406143c4565b82808251830101910161439d565b505050918315801590614514575b80614504575b6144ec5761449a949596975054101590816144ca575b50806144b8575b6144a25761245a565b92919061440c565b6144ab81601f55565b613d3c83611de783611e7b565b5083546144c482612620565b14614491565b905060016144e283600052602f602052604060002090565b015410153861448a565b8751635258db5f60e01b815260036004820152602490fd5b5081158061447457508215614474565b50600161446e565b909190600083156145b65750614533601f54612605565b831561466757600881105b1561466157600380546001600160a01b031690604091614574614452845160209361444a82610f2a8a8883019190602083019252565b505050939092851580159061465a575b8061464a575b614615575050906145b693929154101590816145f3575b5085156145c857806145bb576144a25761245a565b614533565b50601f546144c482612620565b156145d657613d3c81601f55565b613d3c6145e282611e7b565b8154906000199060031b1b19169055565b9050600161460b83600052602f602052604060002090565b01541015386145a1565b6114e59250881561464157905b51635258db5f60e01b815260ff90911660048201529081906024820190565b50600490614622565b5083158061458a5750841561458a565b5088614584565b50509050565b601f5481111561453e565b6102a061222d91614a0161468582614b4e565b916149fc6149f784516003906146aa82610d966001600052602b602052604060002090565b905560608601516004600052602b6020526146d382600080516020616f9d833981519152610d96565b90556020868101516002600052602b90915261470f827fbd6c10e6ce287735500a1c033be76c57d5e632addc2ff6eff6bb587b8ee0d95c610d96565b90556040860180516003600052602b60205290919061474e827fd3904653c5d0f9b122879aa13f7287465a10522aedd588dbbd607cf6f8b2147f610d96565b905560808701516005600052602b602052614789827f4b5b933abde5416303ae4347d7fcdf5a17e8022e0fefc2b31c7609ebd3c32fe9610d96565b905560a08701516006600052602b6020526147c4827f5ac1f6ea00ad8b0f699e3a293cc93d6fdaf7ee608fbc40ffef54db3fb7ebb943610d96565b905560c08701516007600052602b60205290614800907f455b6dea826802a5b6200d61a7810fccbd36f05c878743e3ac0e0e7aff3a46e8610d96565b905560e08601516001600052602b6020526002916149ee916149e99190614847857ffcc3d43705633578a5e8f1b6d6f38d08eb8cb891174edcc94b1a54972a1aebbd610d96565b90556101408901516004600052602b60205261487185600080516020616f9d833981519152610d96565b90556101008901516002600052602b6020526148ad857fbd6c10e6ce287735500a1c033be76c57d5e632addc2ff6eff6bb587b8ee0d95c610d96565b9055610120890180516003600052602b6020529094906148ed827fd3904653c5d0f9b122879aa13f7287465a10522aedd588dbbd607cf6f8b2147f610d96565b90556101608a01516005600052602b602052614929827f4b5b933abde5416303ae4347d7fcdf5a17e8022e0fefc2b31c7609ebd3c32fe9610d96565b90556101808a01516006600052602b602052614965827f5ac1f6ea00ad8b0f699e3a293cc93d6fdaf7ee608fbc40ffef54db3fb7ebb943610d96565b90556101a08a01516007600052602b602052906149a2907f455b6dea826802a5b6200d61a7810fccbd36f05c878743e3ac0e0e7aff3a46e8610d96565b90556101c08901516149de6149d6896149c7602d54600052602e602052604060002090565b90600052602052604060002090565b9182546127c2565b905551601654612613565b601655565b51601754612613565b601755565b601c55565b0151151590565b614a10612160565b9060008083528060208401528060408401528060608401528060808401528060a08401528060c08401528060e08401528061010084015280610120840152806101408401528061016084015280610180840152806101a0840152806101c0840152806101e084015280610200840152806102208401528061024084015280610260840152806102808401526102a0830152565b60405190614ab0826120db565b600a82527f73687574646f776e2829000000000000000000000000000000000000000000006020830152565b60405190614ae9826120db565b601182527f696e636f6d654f662861646472657373290000000000000000000000000000006020830152565b60405190614b22826120db565b601482527f636f6d70757465546f75722875696e74323536290000000000000000000000006020830152565b90614b57614a08565b9160039083614b6d83546001600160a01b031690565b92614b88614b79614aa3565b614b816121cb565b9086616d88565b90614b91615b3c565b94909160608501958652828552614c8684600193614c33614bf486614bc16001600052602b602052604060002090565b01546001600052602b602052867ffcc3d43705633578a5e8f1b6d6f38d08eb8cb891174edcc94b1a54972a1aebbd61293b565b6001600052602b60205260029790614c2d90897ffcc3d43705633578a5e8f1b6d6f38d08eb8cb891174edcc94b1a54972a1aebbd61293b565b9061262f565b885288516004600052602b602052614c7f90614c2d614c6088600080516020616f9d833981519152612daf565b6004600052602b60205289600080516020616f9d83398151915261293b565b8952615516565b93909260208a99939901986101c06101008c019b01528952875260001461531a575050614cc1610f2a611b106004546001600160a01b031690565b3160408a01525b6009546001600160a01b031692614d25614d09614cec85546001600160a01b031690565b604080516001600160a01b03909216602083015290918291820190565b0395614d1d601f199788810184528361212f565b611210614adc565b6005600052602b60205291614dbc614d8b857f4b5b933abde5416303ae4347d7fcdf5a17e8022e0fefc2b31c7609ebd3c32fe901546005600052602b602052847f4b5b933abde5416303ae4347d7fcdf5a17e8022e0fefc2b31c7609ebd3c32fe961293b565b6005600052602b602052827f4b5b933abde5416303ae4347d7fcdf5a17e8022e0fefc2b31c7609ebd3c32fe961293b565b60808c01818152938181111561530c57614dd9915084519061262f565b83526004601f5483811015806152c6575b615289575b10159182615211575b50506151d1575b6005600052603060205281614e337f9d0b70a39d4b3569f175af8ea51ae318eac80460c467ee4a16ee63ec5720706e61129c565b146151b3575b506006600052603060205280614e6e7fd558ed0e54509c62efb2aedb46e6ad1b04c7bdca351e3613e136c946b91686d861129c565b14615193575b60076000526030602052614ea77f4ebb69666752feecd656ebf5f8cd3c2f1c70bb06a0c3d3744be479e4a580c23361129c565b14615173575b86518251614eba91612613565b9160408801928351614ecb91612613565b8551614ed691612613565b938860e081019788518351614eea91612613565b94826101208101968751614efd91612613565b986101408201998a51614f0f91612613565b614f189161593e565b919398946101e088999497929901996102008901976102608a01966102208b019b6102408c019b610280019e8f906102a00197614f5790899015159052565b528a528a5285528652885251614f79575b505050505050505050505050505050565b614fcf92614fc76130169261302a948f614fad614fa1611b106004546001600160a01b031690565b0387810184528361212f565b319052519a51604051948591602083019190602083019252565b610f406132c1565b9351905110915190511081809261516a575b60009215615145575050508082101561513e57505b965b8951888b8161510257505061500e908251612613565b9052600089525b8151876150db579061502b600093928251612613565b9052525b8151856150b45790615045600093928251612613565b9052525b81519280615077575061505f6000938251612613565b9052525b388080808080808080808080808080614f68565b919061509e6150976150a7958086116000146150ad57805b81865261262f565b8251612613565b9052519061262f565b50615063565b859061508f565b9061509e6150976150d5959794938086116000146150ad578081865261262f565b91615049565b9061509e6150976150fc959994938086116000146150ad578081865261262f565b9361502f565b615130949a5061509790615126929493808611600014615136578080925b5261262f565b905289519061262f565b95615015565b858092615120565b9050614ff6565b15615154575050505b96614ff8565b9192509015615163575061514e565b905061514e565b91508091614fe1565b600060c08801805161518b6101a08b01918251612613565b905252614ead565b600060a0890180516151ab6101808c01918251612613565b905252614e74565b80600091516151c86101608c01918251612613565b90525238614e39565b6152076040516151f9816151ed60208201906004602083019252565b0386810183528261212f565b615201614b15565b89616dc4565b60c08a0152614dff565b6007600052602b6020527f455b6dea826802a5b6200d61a7810fccbd36f05c878743e3ac0e0e7aff3a46e880860154615281945061525092909161293b565b6007600052602b602052907f455b6dea826802a5b6200d61a7810fccbd36f05c878743e3ac0e0e7aff3a46e861293b565b153880614df8565b8c60a06152be8d604051906152b6826152aa60208201906002602083019252565b038d810184528361212f565b611210614b15565b910152614def565b506006600052602b6020527f5ac1f6ea00ad8b0f699e3a293cc93d6fdaf7ee608fbc40ffef54db3fb7ebb9438087015461530691612e639190879061293b565b15614dea565b6153159161262f565b614dd9565b60408b01526101208a0152614cc8565b604051906040820182811067ffffffffffffffff821117611e075760405260006020838281520152565b60405190615361826120a2565b8161536a61532a565b815261537461532a565b6020820152604061538361532a565b910152565b60405190615395826120db565b601882527f6765744261746368526f79616c7479436c6175736573282900000000000000006020830152565b6102a09081818403126104325782601f820112156104325760408051936153e785612113565b849383019281841161043257935b83851061540457505050505090565b60608583031261043257825160609161541c826120a2565b86518252602091828801518382015285880151868201528152019401936153f5565b6040519061544b826120db565b601f82527f676574526f79616c697479416d6f756e7442617463682875696e7432353629006020830152565b9060e0828203126104325780601f83011215610432576040519161549a83612113565b829060e0810192831161043257905b8282106154b65750505090565b81518152602091820191016154a9565b9060078110156107235760051b0190565b8181029291600082127f8000000000000000000000000000000000000000000000000000000000000000821416610b3b578184051490151715610b3b57565b9160009260009260009260009260009261552e615354565b61553783615852565b825190602082015252615549836158c8565b60208301519060208201525261555e83615903565b6040830151906020820152526155a76155986155826003546001600160a01b031690565b61558a615388565b6155926121cb565b91616c66565b602080825183010191016153c1565b92601c54926155be6004546001600160a01b031690565b93601f54905b8381106155d45750505050505050565b6156106156016040516155f3816112c786602083019190602083019252565b6155fb61543e565b89616c66565b60208082518301019101615477565b6001905b838211156157335750508215615633575b61562e9061245a565b6155c4565b615658615650826149c7602d54600052602e602052604060002090565b54809c6127c2565b9a615663828661262f565b90600091604088015180518881106156dd575b50508083116156d5575b8261568a9161262f565b91806156bf575b508161569f575b5050615625565b9a6156b16156b79261562e949d6154d7565b906127c2565b999038615698565b9a6156b1829c6156ce936154d7565b9938615691565b915081615680565b8086111561572a5750602085915b016156f68151612605565b89101561571b5750875b818111156156765761571392945061262f565b913880615676565b6157259051612605565b615700565b602090916156eb565b909c6157476157418f612620565b8a6154c6565b51511580156157f2575b6157e8578651805184101590816157d9575b5080156157b2575b156157965761578a615790918f61578461313991612620565b856154c6565b9d61245a565b90615614565b9c9d6157ac8f9161313961578461579094612620565b9e61245a565b506020870151805184101590816157ca575b5061576b565b602091500151831115386157c4565b60209150015183111538615763565b9c6157909061245a565b508d61580a61580082611e7b565b90549060031b1c90565b841015908161581b575b5015615751565b6158499150604061584061583a61583461580085611e7b565b93612620565b8d6154c6565b51015190612613565b8311158e615814565b906103e76000526030602052604060002080549081156158c25760018216159384156158b95760ff60025b168303838111610b3b576158919083612395565b90549060031b1c946000146158b357506158ad61580092612620565b90612395565b91505090565b60ff600161587d565b50508190565b9060026000526030602052604060002080549081156158c25760018216159384156158b9576001198301838111610b3b576158919083612395565b9060036000526030602052604060002080549081156158c25760018216159384156158b9576001198301838111610b3b576158919083612395565b6000808052602f60205290929091906159ca61597c6128727fc11d2605466dd88923799a61d7f94d6c8cc580bae52b24870f6853eaa13cc4d6612868565b93615985615b3c565b505060335460ff8116615b17575b60ff8160081c16615ad4575b60ff8160101c16615a8c575b60181c60ff16615a5d575b84811115615a5457612963855b9487612613565b9081946159e26128d26128c960155460135490612613565b9185615a34601454858111600014615a4e57855b9460008115615a46575061302a610f2a61296392613022615a1f6003546001600160a01b031690565b91604051938491602083019190602083019252565b94118015615a3f5790565b5082841190565b905090612613565b806159f6565b612963816159c3565b6004600052602b602052615a87906129636129436001600080516020616f9d83398151915261291d565b6159b6565b6003600052602b6020529060ff90615acc906129636129df60017fd3904653c5d0f9b122879aa13f7287465a10522aedd588dbbd607cf6f8b2147f6129ab565b9190506159ab565b6002600052602b60205290615b1190612963612a8660017fbd6c10e6ce287735500a1c033be76c57d5e632addc2ff6eff6bb587b8ee0d95c612a52565b9061599f565b9050615b36612b116001612add6001600052602b602052604060002090565b90615993565b600090816001815b600f821115615ba95750506001600052602b6020527ffcc3d43705633578a5e8f1b6d6f38d08eb8cb891174edcc94b1a54972a1aebbd548101809111610b3b576004600052602b6020529161222d90600080516020616f9d8339815191525490612613565b9093848252602f92602093808552604090600282862001548301809311610b3b576003929588865252832001548101809111610b3b57615be9909461245a565b90615b44565b9190615bf9612b49565b92600191828214615f70576002808314615e4757506003808314615e47575060048214615ddb5760058214615d9957615c5890615c34616b3b565b90601c54615c428282612613565b831115615d9257615c539250612613565b614b4e565b9060068114615d425760078114615ce957600814615c74575050565b6102809192935060ff615c856121a2565b936101e08301518552610200830151602086015261022083015160408601526102408301516060860152615cbd6102a0840151151590565b60009015615ce257505b16608084015261026081015160a0840152015160c082015290565b9050615cc7565b50919250506101a0615cf96121a2565b9160e08101518352610100810151602084015261012081015160408401526101408101516060840152610160810151608084015261018081015160a0840152015160c082015290565b509192505060c0615d516121a2565b91805183526020810151602084015260408101516040840152606081015160608401526080810151608084015260a081015160a0840152015160c082015290565b5050614b4e565b5050509050615da66121a2565b601254815260135460208201526015546040820152601454606082015260006080820152600060a0820152600060c082015290565b5050509050615de86121a2565b60165481526017546020820152615e0a6001600052602b602052604060002090565b5460408201526004600052602b602052600080516020616f9d83398151915254606082015260006080820152600060a0820152600060c082015290565b939450505050615e556121a2565b7ffcc3d43705633578a5e8f1b6d6f38d08eb8cb891174edcc94b1a54972a1aebbd82015481527fbd6c10e6ce287735500a1c033be76c57d5e632addc2ff6eff6bb587b8ee0d95c8201546020808301919091527fd3904653c5d0f9b122879aa13f7287465a10522aedd588dbbd607cf6f8b2147f8301546040830152600080516020616f9d83398151915283015460608301527f4b5b933abde5416303ae4347d7fcdf5a17e8022e0fefc2b31c7609ebd3c32fe983015460808301527f5ac1f6ea00ad8b0f699e3a293cc93d6fdaf7ee608fbc40ffef54db3fb7ebb94383015460a08301526007600052602b90527f455b6dea826802a5b6200d61a7810fccbd36f05c878743e3ac0e0e7aff3a46e89091015460c082015290565b5050909150615e556121a2565b60405190615f8a82612086565b60006060838281528260208201528260408201520152565b90604051615faf81612086565b6060600382948054845260018101546020850152600281015460408501520154910152565b67ffffffffffffffff8111611e075760051b60200190565b90615ff682615fd4565b616003604051918261212f565b8281528092616014601f1991615fd4565b019060005b82811061602557505050565b602090616030615f7d565b82828501015201616019565b80518210156107235760209160051b010190565b6163356101c061215e9261608a61606e82516001600160a01b031690565b6001600160a01b03166001600160a01b03196002541617600255565b6160bd6160a160208301516001600160a01b031690565b6001600160a01b03166001600160a01b03196003541617600355565b6160f06160d460408301516001600160a01b031690565b6001600160a01b03166001600160a01b03196004541617600455565b61612361610760608301516001600160a01b031690565b6001600160a01b03166001600160a01b03196005541617600555565b61615661613a60808301516001600160a01b031690565b6001600160a01b03166001600160a01b03196006541617600655565b61618961616d60a08301516001600160a01b031690565b6001600160a01b03166001600160a01b03196007541617600755565b6161bc6161a060c08301516001600160a01b031690565b6001600160a01b03166001600160a01b03196008541617600855565b6161ef6161d360e08301516001600160a01b031690565b6001600160a01b03166001600160a01b03196009541617600955565b6162236162076101008301516001600160a01b031690565b6001600160a01b03166001600160a01b0319600a541617600a55565b61625761623b6101208301516001600160a01b031690565b6001600160a01b03166001600160a01b0319600b541617600b55565b61628b61626f6101408301516001600160a01b031690565b6001600160a01b03166001600160a01b0319600c541617600c55565b6162bf6162a36101608301516001600160a01b031690565b6001600160a01b03166001600160a01b0319600d541617600d55565b6162f36162d76101808301516001600160a01b031690565b6001600160a01b03166001600160a01b0319600e541617600e55565b61632761630b6101a08301516001600160a01b031690565b6001600160a01b03166001600160a01b0319600f541617600f55565b01516001600160a01b031690565b6001600160a01b03166001600160a01b03196010541617601055565b61636661138a6000546001600160a01b031690565b604051907f97f3815a000000000000000000000000000000000000000000000000000000008252602082600481845afa91821561146d576000926169f6575b50604051917fcfbffe53000000000000000000000000000000000000000000000000000000008352602083600481855afa92831561146d576000936169d5575b50604051907fab6e844f000000000000000000000000000000000000000000000000000000008252602082600481865afa91821561146d576000926169b4575b50604051917f14d8d024000000000000000000000000000000000000000000000000000000008352602083600481875afa92831561146d57600093616993575b50604051927fd1f956b1000000000000000000000000000000000000000000000000000000008452602084600481885afa93841561146d57600094616972575b50604051937fe61dfd58000000000000000000000000000000000000000000000000000000008552602085600481895afa94851561146d57600095616951575b506040517fe09d394d0000000000000000000000000000000000000000000000000000000081526020816004818a5afa90811561146d57600091616932575b506040517f52b06d640000000000000000000000000000000000000000000000000000000081526020816004818b5afa90811561146d57600091616913575b506040517f013cf08b00000000000000000000000000000000000000000000000000000000815260006004820152916020836024818c5afa92831561146d576000936168f2575b50604051977f5e09dbe70000000000000000000000000000000000000000000000000000000089526020896004818d5afa94851561146d576004996000966168d1575b5060208b6040519b8c80927faa0ddc160000000000000000000000000000000000000000000000000000000082525afa96871561146d5760049a6000986168b0575b5060208c6040519c8d80927f640274270000000000000000000000000000000000000000000000000000000082525afa98891561146d5760049b60009a61688f575b5060208d6040519d8e80927f30125cf50000000000000000000000000000000000000000000000000000000082525afa9a8b1561146d578d60049d60009d61686d575b506020906040519e8f80927f24768d910000000000000000000000000000000000000000000000000000000082525afa9c8d1561146d5760009d61684c575b50604051809e81907f9dc969a80000000000000000000000000000000000000000000000000000000082525a92600491602094fa9d8e1561146d5760009e61682b575b5061673f612181565b6001600160a01b0390911681529d8e906001600160a01b031660208201526040019061677391906001600160a01b03169052565b6001600160a01b031660608d01526001600160a01b031660808c01526001600160a01b031660a08b01526001600160a01b031660c08a01526001600160a01b031660e08901526001600160a01b03166101008801526001600160a01b03166101208701526001600160a01b03166101408601526001600160a01b03166101608501526001600160a01b03166101808401526001600160a01b03166101a08301526001600160a01b03166101c082015261215e90616050565b616845919e5060203d60201161146657611456818361212f565b9c38616736565b616866919d5060203d60201161146657611456818361212f565b9b386166f3565b6020919d5061688890823d841161146657611456818361212f565b9c906166b4565b6168a9919a5060203d60201161146657611456818361212f565b9838616671565b6168ca91985060203d60201161146657611456818361212f565b963861662f565b6168eb91965060203d60201161146657611456818361212f565b94386165ed565b61690c91935060203d60201161146657611456818361212f565b91386165aa565b61692c915060203d60201161146657611456818361212f565b38616563565b61694b915060203d60201161146657611456818361212f565b38616524565b61696b91955060203d60201161146657611456818361212f565b93386164e5565b61698c91945060203d60201161146657611456818361212f565b92386164a5565b6169ad91935060203d60201161146657611456818361212f565b9138616465565b6169ce91925060203d60201161146657611456818361212f565b9038616425565b6169ef91935060203d60201161146657611456818361212f565b91386163e5565b616a1091925060203d60201161146657611456818361212f565b90386163a5565b90816020910312610432575161222d81610937565b616a876001600160a01b0360025416604051616a47816120db565b600881527f6973536166652829000000000000000000000000000000000000000000000000602082015260405191616a7e836120f7565b60008352616c91565b9080616aa6575b156106bb578060208061222d93518301019101616a17565b506020815114616a8e565b616b146001600160a01b038060025416604051916020941684830152838252616ad9826120db565b60405190616ae6826120db565b601582527f697353656375726542617365286164647265737329000000000000000000000085830152616c91565b9080616b31575b156106bb578161222d9282518301019101616a17565b5081815114616b1b565b61222d6001600160a01b0360035416604051616b56816120db565b600681527f6941676528290000000000000000000000000000000000000000000000000000602082015260405191611182836120f7565b6001600160a01b0380911690811561087757600154826001600160a01b0319821617600155167f8292fce18fa69edf4db7b94ea2e58241df0ae57f97e0a6c9b29067028bf92d76600080a3565b3d15616c05573d90616beb826121af565b91616bf9604051938461212f565b82523d6000602084013e565b606090565b9080156132aa576001600160a01b03821691821561087757600080808481945af1616c33616bda565b50156106bb5760207fcec1f18c3ab8ddaaa107a1591e3c369667eec613626611a8deaedef43069fcdd91604051908152a2565b90616c719291616c91565b9060009015616c7e575090565b6040519150616c8c826120f7565b815290565b9190823b15616d26577fffffffff00000000000000000000000000000000000000000000000000000000815160208093012016916040519180830193845281519160005b838110616d12575050509181616d026024826000979596889701878382015203600481018452018261212f565b51915afa616d0e616bda565b9091565b818101830151858201602401528201616cd5565b505050600090604051616d38816120f7565b6000815290565b9291616d4d91600094616c91565b9080616d7d575b616d5b5750565b6001600160a01b0391925080602080616d7993518301019101612684565b1690565b506020815114616d54565b9291616d9691600094616c91565b9080616db9575b616da45750565b61222d91925060208082518301019101616a17565b506020815114616d9d565b9291616dd291600094616c91565b9080616df5575b616de05750565b61222d91925060208082518301019101612cc4565b506020815114616dd9565b9291616e0e91600094616c91565b9080616e33575b616e1c5750565b909150602081805181010312610432576020015190565b506020815114616e15565b90602082519201517fffffffff00000000000000000000000000000000000000000000000000000000908181169360048110616e7957505050565b60040360031b82901b16169150565b6001600160a01b0381161561087757600080918351908260208601915af190616eaf616bda565b9115616eb9575090565b805160009190600411616f3557616ed09150616e3e565b815115616ee05750805190602001fd5b6040517f21c09d340000000000000000000000000000000000000000000000000000000081527fffffffff00000000000000000000000000000000000000000000000000000000919091166004820152602490fd5b50616ed0565b803b6000616f48826121af565b92616f56604051948561212f565b82845260208401903c602d815110616f7257602a015160601c90565b60046040517fbaf3f0f7000000000000000000000000000000000000000000000000000000008152fdfe8bd115fc6ec81ad72d5ca8a8b3bd3d0177f1b615af6ad35644a4e24a7bed08bca264697066735822122089a729f06b78e10022e4640305ea91d028703aea2817b644d9a3d860360ead2b64736f6c63430008140033","linkReferences":{}},"methodIdentifiers":{"instanceStor()":"131c73ad"},"id":81}