{"abi":[{"type":"constructor","inputs":[{"name":"_hex","type":"address","internalType":"address"}],"stateMutability":"nonpayable"},{"type":"function","name":"instanceStor","inputs":[],"outputs":[{"name":"","type":"address","internalType":"address"}],"stateMutability":"view"}],"bytecode":{"object":"0x6080346100c5576001600160401b0390601f61716338819003918201601f1916830191848311848410176100af578084926020946040528339810103126100c557516001600160a01b039190828116908190036100c5576040519161700a90818401908111848210176100af576020928492610159843981520301906000f080156100a3571660018060a01b03196000541617600055604051608e90816100cb8239f35b6040513d6000823e3d90fd5b634e487b7160e01b600052604160045260246000fd5b600080fdfe6080806040526004361015601257600080fd5b600090813560e01c63131c73ad14602857600080fd5b346054578160031936011260545773ffffffffffffffffffffffffffffffffffffffff60209254168152f35b5080fdfea26469706673582212204842080ea816ff41c70e0b5938d16e6e8e11b1972d502409e6070db0a324626564736f6c63430008140033608034620000b757601f6200700a38819003918201601f19168301916001600160401b03831184841017620000bc57808492602094604052833981010312620000b757516001600160a01b03811690819003620000b7578015620000a55760018060a01b0319903382600154161760015560009182541617815560016011558060125580601355806014558060155580601655601755604051616f379081620000d38239f35b60405163e6c4247b60e01b8152600490fd5b600080fd5b634e487b7160e01b600052604160045260246000fdfe60806040526004361015610018575b361561001657005b005b60003560e01c806302a085f214610348578063043719b41461034357806309d8da2e1461033e5780630b98f9751461033957806312065fe014610334578063129641201461032f578063141ca6601461032a578063143ec3b7146103255780631f185d161461032057806329ee350e1461031b578063339459a61461031657806339b4d61b146103115780633b9b79551461030c57806343a1b5ab146103075780634a65786c1461030257806352902c59146102fd5780635640dbfc146102f85780635ecf6a8a146102f3578063619d5194146102ee5780636350b2c2146102e9578063654c668e146102e457806369245009146102df5780636de97c66146102da5780636f493aad146102d557806370878d04146102d0578063725b6fff146102cb578063759f22bd146102c657806375b4d78c146102c15780637b058ac1146102bc578063822ffec4146102b7578063880cdc31146102b25780638da5cb5b146102ad578063934209ce146102a85780639659867e146102a3578063a1f7f5391461029e578063a5d7cda414610299578063a663030414610294578063a9bf285b1461028f578063af4845261461028a578063af640d0f14610285578063b90306ad14610280578063bab2f5521461027b578063c54e44b014610276578063c8ef7b1a14610271578063d2a159041461026c578063d3a1a49914610267578063da02133514610262578063deb1ba1e1461025d578063e01ad5fd14610258578063e0a9bc2b146102535763fdc10bc90361000e57611fb6565b611f9b565b611f1b565b611ea1565b611e1a565b611dee565b611da9565b611d42565b611d0a565b611cec565b611bde565b611bc0565b611b8f565b611b71565b611585565b6111b9565b611144565b611126565b611108565b6110e1565b611065565b610e28565b610cf7565b610cd9565b610c23565b610b9f565b610b83565b610b49565b610ab7565b610a5e565b610a09565b6109b2565b61094a565b610927565b6108cc565b6107e1565b6107bb565b61079d565b610776565b61074a565b610731565b6106f8565b610611565b6105d4565b610578565b61052c565b610510565b61049f565b61047c565b610440565b61037c565b610120810192916000915b6009831061036557505050565b600190825181526020809101920192019190610358565b60408060031936011261043b5780519061039582612024565b61012036833760ff6018541661042b576103ad616971565b1561041b576103bb336169f6565b8015610407575b156103f7576103e36103f3926103d66127df565b60243590600435906129a4565b906001601155519182918261034d565b0390f35b6004905163ea8e4eb560e01b8152fd5b50336001600160a01b0360055416146103c2565b60049051634ee2123760e11b8152fd5b600490516334c2d01160e11b8152fd5b600080fd5b3461043b57604036600319011261043b576004356000526030602052602061046e60243560406000206122fb565b90546040519160031b1c8152f35b3461043b57600036600319011261043b57602060ff601854166040519015158152f35b3461043b57602036600319011261043b576104b8616971565b156104ff576104c6336169f6565b80156104eb575b156104da57600435601955005b600460405163ea8e4eb560e01b8152fd5b50336001600160a01b0360055416146104cd565b6004604051634ee2123760e11b8152fd5b3461043b57600036600319011261043b57602047604051908152f35b3461043b57604036600319011261043b5761054b602435600435615b34565b60405190600090825b600783106105615760e084f35b600190825181526020809101920192019190610554565b602036600319011261043b5761058c616971565b156104ff5761059a336169f6565b80156105c0575b156104da576105ae6127df565b6105b96004356134d6565b6001601155005b50336001600160a01b0360055416146105a1565b3461043b57602036600319011261043b5760043560005260306020526020604060002054604051908152f35b6001600160a01b0381160361043b57565b3461043b5760208060031936011261043b5761069060043561063281610600565b6001600160a01b0380600254169060405192168483015283825261065582612041565b6040519061066282612041565b601182527f69735369676e657228616464726573732900000000000000000000000000000085830152616bd6565b9190806106ee575b156106c45781816106b2926103f39451830101910161695c565b60405190151581529081906020820190565b60046040517f3204506f000000000000000000000000000000000000000000000000000000008152fd5b5080825114610698565b3461043b57600036600319011261043b57601f54600881101561072c57602181015460408051928352602083019190915290f35b611dc6565b3461043b57600036600319011261043b57610016616296565b3461043b57602036600319011261043b57600435600052602a6020526020604060002054604051908152f35b3461043b57600036600319011261043b5760206001600160a01b0360005416604051908152f35b3461043b57600036600319011261043b576020602d54604051908152f35b3461043b57600036600319011261043b57602060ff60185460081c166040519015158152f35b3461043b57606036600319011261043b576004356107fe81610600565b60243561080a81610600565b6001600160a01b038092169081158080156108c2575b6108aa5761088057610872916000938454826001600160a01b03198216178655167fe939feee179e631422bcc8f6e6d7d908cb3f8af38f5372f17c77e15aea5c80ee8580a361086d612196565b616ad2565b61087d604435601b55565b80f35b60046040517fe6c4247b000000000000000000000000000000000000000000000000000000008152fd5b6024604051635258db5f60e01b815260016004820152fd5b5083821615610820565b3461043b57600036600319011261043b5760c060315460ff60325460335490604051938452602084015281811615156040840152818160081c1615156060840152818160101c161515608084015260181c16151560a0820152f35b3461043b57600036600319011261043b57610016612196565b8015150361043b57565b3461043b57602036600319011261043b5760043561096781610940565b61096f616971565b156104ff5761097d336169f6565b801561099e575b156104da5760ff8019601854169115151617601855600080f35b50336001600160a01b036005541614610984565b3461043b57602036600319011261043b57600435600052602c602052608060406000208054906001810154906001600160a01b03600360028301549201541691604051938452602084015260408301526060820152f35b3461043b57604036600319011261043b57610a22616971565b156104ff57610a30336169f6565b8015610a4a575b156104da57600435601455602435601355005b50336001600160a01b036005541614610a37565b3461043b57600036600319011261043b576020601e54604051908152f35b6020908160408183019282815285518094520193019160005b828110610aa3575050505090565b835185529381019392810192600101610a95565b3461043b57600036600319011261043b57601f546001810190818111610b4457610ae082615f19565b91610aee6040519384612095565b808352610afd601f1991615f19565b0136602084013760005b81811115610b1d57604051806103f38582610a7c565b600881101561072c5780610b3f9160210154610b398286615f81565b526123ec565b610b07565b6123d6565b3461043b57604036600319011261043b57600435600052602e60205260406000206024356000526020526020604060002054604051908152f35b3461043b57602036600319011261043b57610016600435612424565b3461043b57600036600319011261043b576020601c54604051908152f35b6020908160408183019282815285518094520193019160005b828110610be4575050505090565b9091929382608082610c176001948951606080918051845260208101516020850152604081015160408501520151910152565b01950193929101610bd6565b3461043b57604036600319011261043b57600435602435808211610cc157818103908111610b445760018101809111610b4457610c5f81615f31565b9160005b828110610c7857604051806103f38682610bbd565b80610ca1610c9c610c8c610cbc9486612417565b600052602f602052604060002090565b615ee7565b610cab8287615f81565b52610cb68186615f81565b506123ec565b610c63565b6024604051635258db5f60e01b8152600d6004820152fd5b3461043b57600036600319011261043b576020601954604051908152f35b3461043b5760a036600319011261043b57604435602435600435608435610d1d81610940565b610d25616971565b156104ff57610d33336169f6565b8015610e14575b156104da5760009260009480610d5b575b6040805186815260208101889052f35b9091929350601f549483600014610dcc57506001610dab82610dbf96610d99610d91610db496600052602f602052604060002090565b918254612417565b9055600052602f602052604060002090565b01918254612417565b90555b6064356141e9565b601f549038808080610d4b565b808260409252602f60205220938454908103908111610b4457610e04610e0d92600192610dbf9755600052602f602052604060002090565b01918254612617565b9055610db7565b50336001600160a01b036005541614610d3a565b3461043b5760c036600319011261043b5760643560a435602435600435604435610e5184610940565b610e59616971565b156104ff57610e67336169f6565b8015611051575b156104da57610e8781600052602f602052604060002090565b610e92838254612417565b90556001610eaa82600052602f602052604060002090565b01610eb6848254612417565b905560008052602f6020527fc11d2605466dd88923799a61d7f94d6c8cc580bae52b24870f6853eaa13cc4d654151580611048575b610efe575b601f54604051908152602090f35b610f7b9215948515928361103a575b610f6a610f5b610f256003546001600160a01b031690565b60405190610f4d82610f3f89602083019190602083019252565b03601f198101845283612095565b610f55614048565b90616bab565b60208082518301019101614081565b9493929991989095601e5490612617565b6084351191821561102d575b5081611024575b50610f9c575b505050610ef0565b61100296600396610dab966000901561101b5750610fc6610fc0610fcc938561272b565b916126ba565b906124f5565b975b600090156110115750610fc0610fe793610fc69261272b565b945b610d996002610dab84600052602f602052604060002090565b90553880808080808080610f94565b9250505094610fe9565b91505097610fce565b90501538610f8e565b601f541015915038610f87565b611043826140e1565b610f0d565b50801515610eeb565b50336001600160a01b036005541614610e6e565b3461043b57602036600319011261043b5760043561108281610600565b61108a616971565b156104ff57611098336169f6565b80156110cd575b156104da576001600160a01b038116156110bc5761001690616ad2565b600460405163055c501b60e51b8152fd5b50336001600160a01b03600554161461109f565b3461043b57600036600319011261043b5760206001600160a01b0360015416604051908152f35b3461043b57600036600319011261043b576020601f54604051908152f35b3461043b57600036600319011261043b576020601a54604051908152f35b3461043b57600036600319011261043b5760206111b16001600160a01b036006541660405161117281612041565b601381527f67657464656c656761746f72436f756e7428290000000000000000000000000084820152604051916111a88361205d565b60008352616d09565b604051908152f35b60408060031936011261043b5760185460048035926024359260ff16611578576111e16127df565b6111e9616a80565b83601c546111f78282612417565b831115611570576112089250612417565b925b61124761124261123c6112256003546001600160a01b031690565b61122d6124a4565b906112366124bc565b90616d09565b866124f5565b602955565b61125d602954600052602a602052604060002090565b54946112716003546001600160a01b031690565b9561128b61127d6124a4565b611285612515565b89616d09565b03611553576103e7600052603060205260016112c97f42e4ed8a28bd93bfb836b3bd3996ada35ff866e155b2ce135e767e31acbdb63f5b5460011690565b148061151e575b61150157825160208082018390529690611309906112fb81604081015b03601f198101835282612095565b611303612f9f565b83616d09565b34036114e45761138f929161133d61132f61138a936113266124a4565b90610f55612fd8565b898082518301019101613011565b946001600160a01b03928316949193921690801515806114db575b6114bf575b505050801515806114b6575b61148e575b50505061138561138034601254612417565b601255565b601355565b612424565b50836113b26113a66000546001600160a01b031690565b6001600160a01b031690565b8251938480927f1b4fc17b0000000000000000000000000000000000000000000000000000000082525afa918215611489577f1517c86fcf2bfb8e3468afcc539b0004955da8027797c497ea51d1f1094ab89894600093611454575b5050513381526001600160a01b0390911660208201526000604082015234606082015260808101919091526103e860a08201528060c081015b0390a16100166001601155565b611447929350908161147a92903d10611482575b6114728183612095565b81019061266c565b91903861140e565b503d611468565b613051565b6114ae92610fc66114a26114a8933461272b565b916126cb565b90616b4f565b38808061136e565b50811515611369565b6114d392610fc66114a26114a8933461272b565b38808061135d565b50811515611358565b835163cdab4c8760e01b8152600981870190815281906020010390fd5b8251635258db5f60e01b8152600681860190815281906020010390fd5b50601b548351602081019190915261154b9061153d81604081016112ed565b61154561246b565b88616c84565b3115156112d0565b825163cdab4c8760e01b8152600581860190815281906020010390fd5b50509261120a565b516334c2d01160e11b8152fd5b60c036600319011261043b576004803561159e81610600565b6064359060443560a4356084356115b3616971565b15611b61576115c1336169f6565b8015611b4d575b15611b3d5760ff60185416611ae5576115df6127df565b6103e7600052603060205260016116157f42e4ed8a28bd93bfb836b3bd3996ada35ff866e155b2ce135e767e31acbdb63f6112c2565b1480611af5575b611ae55761163061162c856169f6565b1590565b611ad55760039361165761124261165161122588546001600160a01b031690565b856124f5565b60295461166e81600052602a602052604060002090565b5486546001600160a01b0316906116946116866124a4565b61168e612515565b84616d09565b1190811591611a91575b50611a73576116b790600052602a602052604060002090565b8054600101905560018214958615611a6c576116ff6116dd87546001600160a01b031690565b604051906116f782610f3f8a602083019190602083019252565b6112366125c0565b965b611a19575b50601a5415611a02575b601a5461171c906123ec565b601a556117276120b7565b948686526020918583880152846040880152606087019660008852601a5461175990600052602c602052604060002090565b9061176391612624565b60015460405163c85700fb60e01b858201526001600160a01b03909116602480830191909152356044820152606481018790526084810189905260a480820187905281526117b260c482612095565b6117bb91616dcd565b828082518301019101906117ce9161266c565b6001600160a01b0316808752156119e45786975061197b6118f66118f16119696119018a9b610fc66118fc6118e26119c69b9a7f1517c86fcf2bfb8e3468afcc539b0004955da8027797c497ea51d1f1094ab8989f8f6119899c6118b76118b26118aa6118c49461187f61184c6118d598516001600160a01b031690565b86611863601a54600052602c602052604060002090565b01906001600160a01b03166001600160a01b0319825416179055565b6118a461189386546001600160a01b031690565b61189b6124a4565b90611236612681565b9061272b565b601554612417565b601555565b546001600160a01b031690565b6118cc6124a4565b90610f5561273e565b8051810182019101612777565b9c9491959b929398905061272b565b61272b565b9361272b565b6126e1565b9161193361191b602d54600052602e602052604060002090565b611925838c612417565b600052602052604060002090565b61193e8482546127aa565b90556119258461196461195d602d54600052602e602052604060002090565b938c612417565b612417565b6119748282546127c6565b905561272b565b96516001600160a01b031690565b604080513381526001600160a01b03909216602083015281019490945260608401879052608084019290925260a0830191909152819060c0820190565b0390a16119d36001601155565b604080519182526020820192909252f35b604051635258db5f60e01b81526002818a0190815281906020010390fd5b611a0b83601c55565b611a1483601d55565b611710565b6019549087611a288383612417565b10611a4e5787611a3e611a4893611a4393612417565b612617565b601955565b38611706565b604051635258db5f60e01b81526005818b0190815281906020010390fd5b8096611701565b60405163cdab4c8760e01b81526001818a0190815281906020010390fd5b9050611aa6611a9e6124a4565b61130361254e565b8610908115611ab7575b503861169e565b611acd9150611ac46124a4565b90611236612587565b851138611ab0565b8560405163055c501b60e51b8152fd5b856040516334c2d01160e11b8152fd5b50611b35610f3f611b0d88546001600160a01b031690565b611b27601b54604051938491602083019190602083019252565b611b2f61246b565b90616c84565b31151561161c565b8560405163ea8e4eb560e01b8152fd5b50336001600160a01b0360055416146115c8565b85604051634ee2123760e11b8152fd5b3461043b57600036600319011261043b576020601d54604051908152f35b3461043b57602036600319011261043b576020611bb6600435611bb181610600565b6169f6565b6040519015158152f35b3461043b57600036600319011261043b576020601b54604051908152f35b3461043b57602036600319011261043b57600435611bfa616971565b156104ff576001600160a01b036005541633036104da5760009060046020611c2c6113a685546001600160a01b031690565b604051928380927f46f991ac0000000000000000000000000000000000000000000000000000000082525afa80156114895783808481949382948391611cce575b505af1611c78616b1f565b50156106c4577fcdcc745fe377b103b45fa0cec23ae3ef93d6fc6a84a01f0d18c40b354dd1d5d8611cc8611cb76113a6600b546001600160a01b031690565b604051938452929081906020820190565b0390a280f35b611ce6915060203d8111611482576114728183612095565b38611c6d565b3461043b57600036600319011261043b576020602954604051908152f35b3461043b57602036600319011261043b576020611d31600435611d2c81610600565b616e80565b6001600160a01b0360405191168152f35b3461043b57604036600319011261043b57602435611d5f81610940565b611d67616971565b156104ff57611d75336169f6565b8015611d95575b156104da5761001690600435611d90616a80565b6123a8565b50336001600160a01b036005541614611d7c565b3461043b57600036600319011261043b5760208054604051908152f35b634e487b7160e01b600052603260045260246000fd5b600881101561072c5760210190600090565b3461043b57602036600319011261043b57600435600881101561043b5760209060210154604051908152f35b3461043b57602036600319011261043b57611e33615ec2565b50600435600052602f60205260806040600020600360405191611e5583611fe7565b80548352600181015460208401526002810154604084015201546060820152611e9f6040518092606080918051845260208101516020850152604081015160408501520151910152565bf35b3461043b57602036600319011261043b57600435611ebe81610940565b611ec6616971565b156104ff57611ed4336169f6565b8015611f07575b156104da5715611ef557611ef06020546123ec565b602055005b6020548015610b445760001901602055005b50336001600160a01b036005541614611edb565b3461043b57602036600319011261043b576020611bb6600435611f3d81610600565b6001600160a01b03806006541690604051921684830152838252611f6082612041565b60405190611f6d82612041565b601882527f697364656c656761746f724e6f6465286164647265737329000000000000000085830152616ccd565b3461043b57600036600319011261043b576020611bb6616971565b3461043b57600036600319011261043b5760206111b1616a80565b634e487b7160e01b600052604160045260246000fd5b6080810190811067ffffffffffffffff82111761200357604052565b611fd1565b6060810190811067ffffffffffffffff82111761200357604052565b610120810190811067ffffffffffffffff82111761200357604052565b6040810190811067ffffffffffffffff82111761200357604052565b6020810190811067ffffffffffffffff82111761200357604052565b60e0810190811067ffffffffffffffff82111761200357604052565b90601f8019910116810190811067ffffffffffffffff82111761200357604052565b604051906120c482611fe7565b565b604051906102c0820182811067ffffffffffffffff82111761200357604052565b604051906101e0820182811067ffffffffffffffff82111761200357604052565b604051906120c482612079565b67ffffffffffffffff811161200357601f01601f191660200190565b6040519061213e8261205d565b60008252565b91908260c091031261043b57815191602081015191604082015161216781610940565b91606081015161217681610940565b9160a0608083015161218781610940565b92015161219381610940565b90565b61219e616296565b6121fa6001600160a01b0360035416604051906121ba8261205d565b60008252604051906121cb82612041565b600982527f63617070696e67282900000000000000000000000000000000000000000000006020830152616bab565b80511561229d5761228161229861226861229361224d612226866020806120c499518301019101612144565b9994999792959091939763ff00000060335491151560181b169063ff000000191617603355565b62ff000060335491151560101b169062ff0000191617603355565b61ff0060335491151560081b169061ff00191617603355565b60ff8019603354169115151617603355565b603255565b603155565b60646040517f08c379a000000000000000000000000000000000000000000000000000000000815260206004820152601460248201527f43617070696e67206665746368206661696c65640000000000000000000000006044820152fd5b805482101561072c5760005260206000200190600090565b9081549168010000000000000000831015612003578261233b9160016120c4950181556122fb565b90919082549060031b91821b91600019901b1916179055565b6103e7600052603060205260406000209182548015806123a0575b61239a576001911561238f571615612386575b5050565b6120c491612313565b811614612386575050565b50505050565b50811561236f565b90600052603060205260406000209182548015806123a05761239a576001911561238f571615612386575050565b634e487b7160e01b600052601160045260246000fd5b6000198114610b445760010190565b6046019081604611610b4457565b9060018201809211610b4457565b91908201809211610b4457565b61242c616a80565b601c54918201809211610b44578181111561246457505b61245e6102a061245283614837565b01918251151590612354565b51151590565b9050612443565b6040519061247882612041565b601882527f676574557365724964546f496e73742875696e743235362900000000000000006020830152565b6040516124b08161205d565b60008152906000368137565b604051906124c982612041565b600f82527f6d696e744379636c6544617973282900000000000000000000000000000000006020830152565b81156124ff570490565b634e487b7160e01b600052601260045260246000fd5b6040519061252282612041565b601282527f6d61784d696e74735065724379636c65282900000000000000000000000000006020830152565b6040519061255b82612041565b600c82527f6d696e4d696e74517479282900000000000000000000000000000000000000006020830152565b6040519061259482612041565b600c82527f6d61784d696e74517479282900000000000000000000000000000000000000006020830152565b604051906125cd82612041565b601982527f636f6d707574654d696e7456616c75652875696e7432353629000000000000006020830152565b600019810191908211610b4457565b600119810191908211610b4457565b91908203918211610b4457565b60036001600160a01b0360606120c4948051855560208101516001860155604081015160028601550151169101906001600160a01b03166001600160a01b0319825416179055565b9081602091031261043b575161219381610600565b6040519061268e82612041565b600f82527f6d696e74466565506572517479282900000000000000000000000000000000006020830152565b9081606402916064830403610b4457565b90606482029180830460641490151715610b4457565b9061271091828102928184041490151715610b4457565b90601982029180830460191490151715610b4457565b90670de0b6b3a764000091828102928184041490151715610b4457565b81810292918115918404141715610b4457565b6040519061274b82612041565b600682527f706f6f6c282900000000000000000000000000000000000000000000000000006020830152565b908160e091031261043b5780519160208201519160408101519160608201519160808101519160c060a083015192015190565b91909160008382019384129112908015821691151617610b4457565b81810392916000138015828513169184121617610b4457565b6002601154146127f0576002601155565b60046040517f3ee5aeb5000000000000000000000000000000000000000000000000000000008152fd5b6040519061282782612079565b60e0368337565b6040519061283b82612041565b601082527f65616368636c61696d4379636c652829000000000000000000000000000000006020830152565b6040519061287482612041565b601082527f6d6178436c61696d5065724461792829000000000000000000000000000000006020830152565b604051906128ad82612041565b601082527f6d696e436c61696d5065724461792829000000000000000000000000000000006020830152565b604051906128e682612041565b601682527f6d6178476c6f62616c436c61696d5065724461792829000000000000000000006020830152565b6040519061291f82612041565b601582527f67657477697468647261776e2875696e743235362900000000000000000000006020830152565b90600981101561072c5760051b0190565b6040519061296982612041565b601d82527f636f6d707574654f7a6f6e65546f446f6c6c61722875696e74323536290000006020830152565b9081602091031261043b575190565b9291838115612f995750601c54916129bc8184612417565b821115612f8c576129da6129d260329285612417565b935b84612617565b1161238257600380546001600160a01b0316612a0b612a026129fa6124a4565b61168e61282e565b601d5490612417565b8310612f7357612a29612a2f91612a206124a4565b90611236612867565b9361435b565b6001600052602b60205292612b88612b57612b26612af5612ac4612a93877ffcc3d43705633578a5e8f1b6d6f38d08eb8cb891174edcc94b1a54972a1aebbd01546004600052602b60205288600080516020616ee28339815191525b015490612417565b6002600052602b602052877fbd6c10e6ce287735500a1c033be76c57d5e632addc2ff6eff6bb587b8ee0d95c612a8b565b6003600052602b602052867fd3904653c5d0f9b122879aa13f7287465a10522aedd588dbbd607cf6f8b2147f612a8b565b6005600052602b602052857f4b5b933abde5416303ae4347d7fcdf5a17e8022e0fefc2b31c7609ebd3c32fe9612a8b565b6006600052602b602052847f5ac1f6ea00ad8b0f699e3a293cc93d6fdaf7ee608fbc40ffef54db3fb7ebb943612a8b565b6007600052602b602052837f455b6dea826802a5b6200d61a7810fccbd36f05c878743e3ac0e0e7aff3a46e8612a8b565b91612b9a81546001600160a01b031690565b612bad612ba56124a4565b6113036128a0565b8410801590612f6c575b15612f5357612bd190612bc86124a4565b906112366128d9565b92612be46004546001600160a01b031690565b92604094612c1c865180612c008a602083019190602083019252565b0396612c14601f1998898101845283612095565b611236612912565b1015612f3c5760009181811115612f3557612c379250612617565b9087600092600190815b6007811115612d38575050505092612cfe92612cf9926120c497969560165460e08c0152876101008c601754918291015281612d2e575b50612d16575b612c886000601655565b612c926000601755565b60008215612d0c575092612cda612ce293612cce93612cbb612cf197546001600160a01b031690565b9351948591602083019190602083019252565b03908101845283612095565b610f5561295c565b60208082518301019101612995565b601454612417565b601455565b612d0781601d55565b612354565b9350505050612cf1565b612d29612d24602d546123ec565b602d55565b612c7e565b9050151538612c78565b8885612d528398959698600052602b602052604060002090565b015483612e585790612e00612df0612e4f95967f1517c86fcf2bfb8e3468afcc539b0004955da8027797c497ea51d1f1094ab8989489612d9c88600052602b602052604060002090565b01612da8828254612417565b905560008b612dc189600052602b602052604060002090565b0155612dd5612dcf886125f9565b8d61294b565b525b612de9612de3876125f9565b8c61294b565b5190612417565b98612dfa856125f9565b9061294b565b51612e47612e0d856123fb565b8c5193849333859094939260a0926001600160a01b0360c08401971683526000602084015260006040840152606083015260808201520152565b0390a16123ec565b908a9291612c41565b9280841115612ef15790612e00612df08596612ec5612e9b7f1517c86fcf2bfb8e3468afcc539b0004955da8027797c497ea51d1f1094ab89896612e4f99612617565b80998b612eb28a600052602b602052604060002090565b01612ebe838254612417565b9055612617565b8a612eda88600052602b602052604060002090565b0155600097612eeb612dcf886125f9565b52612dd7565b90612e00612df0612f26612e4f967f1517c86fcf2bfb8e3468afcc539b0004955da8027797c497ea51d1f1094ab89895612617565b966000612eeb612dcf886125f9565b5050612c37565b845163cdab4c8760e01b8152600480820152602490fd5b60405163cdab4c8760e01b8152600a6004820152602490fd5b5085612bb7565b60405163cdab4c8760e01b815260026004820152602490fd5b5060326129da82936129d4565b93505050565b60405190612fac82612041565b601d82527f636f6d70757465446f6c6c6172546f4f7a6f6e652875696e74323536290000006020830152565b60405190612fe582612041565b600a82527f6275726e636e66672829000000000000000000000000000000000000000000006020830152565b91908260c091031261043b57815161302881610600565b91602081015191604082015191606081015161304381610600565b9160a0608083015192015190565b6040513d6000823e3d90fd5b6040519061306a82612041565b601382527f55736572546f496e7374286164647265737329000000000000000000000000006020830152565b604051906130a382612041565b600b82527f6d696e74436f756e7428290000000000000000000000000000000000000000006020830152565b604051906130dc82612041565b600e82527f6d696e74732875696e74323536290000000000000000000000000000000000006020830152565b6040519061311582612041565b600b82527f6d696e74656441676528290000000000000000000000000000000000000000006020830152565b6040519061314e82612041565b600b82527f6d696e74656471747928290000000000000000000000000000000000000000006020830152565b6040519061318782612041565b600c82527f6964732875696e743235362900000000000000000000000000000000000000006020830152565b604051906131c082612041565b600982527f6d696e74416d74282900000000000000000000000000000000000000000000006020830152565b604051906131f982612041565b600a82527f647261776e6167652829000000000000000000000000000000000000000000006020830152565b6040519061323282612041565b600c82527f4c53422875696e743235362900000000000000000000000000000000000000006020830152565b6040519061326b82612041565b600782527f647261776e2829000000000000000000000000000000000000000000000000006020830152565b91908260c091031261043b5781519160208101519160408201519160608101519160a0608083015192015190565b604051906132d282612041565b601382527f67657452657761726473286164647265737329000000000000000000000000006020830152565b919082604091031261043b576020825192015190565b6040519061332182612041565b600782527f626f6e75732829000000000000000000000000000000000000000000000000006020830152565b6040519061335a82612041565b600682527f63616765282900000000000000000000000000000000000000000000000000006020830152565b6040519061339382612041565b601982527f67657445666665637469766552616e6b286164647265737329000000000000006020830152565b604051906133cc82612041565b601882527f6765744e6f64654c766c446570746828616464726573732900000000000000006020830152565b6040519061340582612041565b601e82527f6765746e6f6465526e6b41676528616464726573732c75696e743235362900006020830152565b6040519061343e82612041565b601082527f6765744e6f6465286164647265737329000000000000000000000000000000006020830152565b908160a091031261043b57805191602082015161348681610600565b916040810151916080606083015161218781610940565b604051906134aa82612041565b601a82527f77697468647261776e496e636f6d654f662861646472657373290000000000006020830152565b60185460081c60ff166140455760049060206134fd6113a66000546001600160a01b031690565b604051938480927f447aa3040000000000000000000000000000000000000000000000000000000082525afa91821561148957600092614024575b5061357f6112ed6135716135546001546001600160a01b031690565b604080516001600160a01b03909216602083015290928391820190565b61357961305d565b84616c84565b906001600160a01b038216156140005760058111613fe7576135aa6135a26124a4565b61168e613096565b90601a546135b88183612417565b831115613fdf576135c891612417565b81613b1d575b5080601a5414908115613b14575b506135e5575050565b6136006135fb6135f36124a4565b61168e6131ec565b601e55565b601e54601c548111613ab2575b5061363961362a61361c6124a4565b61362461325e565b84616bab565b60208082518301019101613297565b9460016136579592959493946001600052602b602052604060002090565b01557fbd6c10e6ce287735500a1c033be76c57d5e632addc2ff6eff6bb587b8ee0d95d557fd3904653c5d0f9b122879aa13f7287465a10522aedd588dbbd607cf6f8b21480557f8bd115fc6ec81ad72d5ca8a8b3bd3d0177f1b615af6ad35644a4e24a7bed08bd557f5ac1f6ea00ad8b0f699e3a293cc93d6fdaf7ee608fbc40ffef54db3fb7ebb944557f455b6dea826802a5b6200d61a7810fccbd36f05c878743e3ac0e0e7aff3a46e95560008052602f6020527fc11d2605466dd88923799a61d7f94d6c8cc580bae52b24870f6853eaa13cc4d75461373b906118b2906126f8565b613782613773604051613765816112ed86602083019190916001600160a01b036020820193169052565b61376d6132c5565b85616bab565b602080825183010191016132fe565b602b6020527ffcc3d43705633578a5e8f1b6d6f38d08eb8cb891174edcc94b1a54972a1aebbd919091556004600052600080516020616ee2833981519152556137d7611a436137cf6124a4565b61168e613314565b6137ed6135fb6137e56124a4565b61168e61334d565b61382a613825604051613817816112ed86602083019190916001600160a01b036020820193169052565b61381f613386565b85616d09565b601f55565b604080516001600160a01b03831660208201526138569161384e90829081016112ed565b61168e6133bf565b60005b8181106139bd57505061389a610f3f6138c0936138926138a994604051938491602083019190916001600160a01b036020820193169052565b610f55613431565b6020808251830101910161346a565b935050505060ff8019601854169115151617601855565b600460206138d96113a66000546001600160a01b031690565b604051928380927f6325dd040000000000000000000000000000000000000000000000000000000082525afa9081156114895761395791610f3f9160009161399e575b5061394f6139326001546001600160a01b031690565b604080516001600160a01b03909216602083015290938491820190565b61123661349d565b6005600052602b6020527f4b5b933abde5416303ae4347d7fcdf5a17e8022e0fefc2b31c7609ebd3c32fea55601c54601d555b6120c461010061ff00196018541617601855565b6139b7915060203d602011611482576114728183612095565b3861391c565b806139d691613a25575b601f548111156139db576123ec565b613859565b604080516001600160a01b0386166020820152908101829052613a2090613a1790613a0981606081016112ed565b613a116133f8565b88616d09565b61233b83611ddc565b6123ec565b6040517f5329daca0000000000000000000000000000000000000000000000000000000060208201526001600160a01b038516602482015260448101829052613a7f9061377390613a7981606481016112ed565b87616dcd565b90613a9483600052602f602052604060002090565b556001613aab83600052602f602052604060002090565b01556139c7565b601c55613ae36112ed613ad5601e54604051928391602083019190602083019252565b613add613225565b83616d45565b613b0d613afc602d54600052602e602052604060002090565b601c54600052602052604060002090565b553861360d565b905015386135dc565b60008052602f6020527fc11d2605466dd88923799a61d7f94d6c8cc580bae52b24870f6853eaa13cc4d6547fc11d2605466dd88923799a61d7f94d6c8cc580bae52b24870f6853eaa13cc4d7549395909491929091905b601a5484811015613f8057613b8b613b90916123ec565b601a55565b60008052602a6020527f25a1a901705ed15d5376e82511cff743d9474883c82d145cebcc7811e0424a9c613bc481546123ec565b9055601a5495613bf4604051613be6816112ed8b602083019190602083019252565b613bee6130cf565b8a616c84565b90613c08613c006124a4565b61168e613108565b91613c1c613c146124a4565b611303613141565b91613c41604051613c39816112ed60208201906000602083019252565b61168e61317a565b90613c64613c5e613c506124a4565b613c586131b3565b86616d09565b93616e80565b9a6020613cc4613c7f6113a66000546001600160a01b031690565b6040519e8f809381927fcfaa1f6c000000000000000000000000000000000000000000000000000000008352600483019190916001600160a01b036020820193169052565b03915afa9b8c156114895760009c613f5f575b50613ce461162c8d6169f6565b6110bc57613dc392613d5286613d4c876113a69681613d10613db498600052602c602052604060002090565b55836001613d2a601a54600052602c602052604060002090565b01558b6002613d45601a54600052602c602052604060002090565b0155612417565b9d612417565b9c613daf613d686001546001600160a01b031690565b60405163c85700fb60e01b60208201526001600160a01b0390911660248201526044810193909352606483018890526084830187905260a483018990528260c48101610f3f565b616dcd565b6020808251830101910161266c565b6001600160a01b03811615613f46577f1517c86fcf2bfb8e3468afcc539b0004955da8027797c497ea51d1f1094ab89893613ef0613f2d92613e1860039182611863601a54600052602c602052604060002090565b6118f6613ebf613eb76118f1611925613e668a610fc66118fc613e57613e486118c48c546001600160a01b031690565b60208082518301019101612777565b9e9491959b929398905061272b565b94611964613eb0602d613e928c61192588613e8c8554600052602e602052604060002090565b92612417565b613e9d8a82546127aa565b905554600052602e602052604060002090565b938a612417565b9182546127c6565b90556001601a5414613f38575b613ee2601a54600052602c602052604060002090565b01546001600160a01b031690565b604080513381526001600160a01b03909216602083015281019490945260608401929092526080830191909152600060a0830152819060c0820190565b0390a1949394613b74565b613f4183601c55565b613ecc565b604051635258db5f60e01b815260026004820152602490fd5b613f79919c5060203d602011611482576114728183612095565b9a38613cd7565b5060008052602f6020527fc11d2605466dd88923799a61d7f94d6c8cc580bae52b24870f6853eaa13cc4d6959095557fc11d2605466dd88923799a61d7f94d6c8cc580bae52b24870f6853eaa13cc4d7939093559391929050386135ce565b5050806135c8565b60405163cdab4c8760e01b815260036004820152602490fd5b50505061400e6135fb616a80565b614019601e54601c55565b61398a601e54601d55565b61403e91925060203d602011611482576114728183612095565b9038613538565b50565b6040519061405582612041565b601482527f6c6576656c436c617573652875696e74323536290000000000000000000000006020830152565b908160a091031261043b578051916020820151916040810151916080606083015192015190565b604051906140b582612041565b601382527f72616e6b436c617573652875696e7432353629000000000000000000000000006020830152565b90601f6140ee8154612409565b925b600884106140fe5750509050565b6003546001600160a01b031693604094614144614136875160209361412e82610f3f888883019190602083019252565b610f556140a8565b828082518301019101614081565b50505091821580156141e1575b6141c957614177949596975054101590816141a7575b5080614195575b61417f576123ec565b9291906140f0565b61418881601f55565b613a208361233b83611ddc565b5083546141a1826125f9565b1461416e565b905060016141bf83600052602f602052604060002090565b0154101538614167565b8751635258db5f60e01b815260036004820152602490fd5b508115614151565b901561427d5790601f6141fc8154612409565b925b6008841061420c5750509050565b6003546001600160a01b03169360409461423c614136875160209361412e82610f3f888883019190602083019252565b5050509182158015614275575b6141c95761426d949596975054101590816141a75750806141955761417f576123ec565b9291906141fe565b508115614249565b506000905b601f548211614357576003546001600160a01b0316916040926142bb614136855160209361412e82610f3f888883019190602083019252565b5050509183151580614347575b614330576142eb949550541015908161430e575b50156142f157613a2081601f55565b90614282565b613a206142fd82611ddc565b8154906000199060031b1b19169055565b9050600161432683600052602f602052604060002090565b01541015386142dc565b8551635258db5f60e01b8152600480820152602490fd5b508215806142c8575081156142c8565b9050565b6102a0612193916146ea61436e82614837565b916146e56146e0845160039061439382610dab6001600052602b602052604060002090565b905560608601516004600052602b6020526143bc82600080516020616ee2833981519152610dab565b90556020868101516002600052602b9091526143f8827fbd6c10e6ce287735500a1c033be76c57d5e632addc2ff6eff6bb587b8ee0d95c610dab565b90556040860180516003600052602b602052909190614437827fd3904653c5d0f9b122879aa13f7287465a10522aedd588dbbd607cf6f8b2147f610dab565b905560808701516005600052602b602052614472827f4b5b933abde5416303ae4347d7fcdf5a17e8022e0fefc2b31c7609ebd3c32fe9610dab565b905560a08701516006600052602b6020526144ad827f5ac1f6ea00ad8b0f699e3a293cc93d6fdaf7ee608fbc40ffef54db3fb7ebb943610dab565b905560c08701516007600052602b602052906144e9907f455b6dea826802a5b6200d61a7810fccbd36f05c878743e3ac0e0e7aff3a46e8610dab565b905560e08601516001600052602b6020526002916146d7916146d29190614530857ffcc3d43705633578a5e8f1b6d6f38d08eb8cb891174edcc94b1a54972a1aebbd610dab565b90556101408901516004600052602b60205261455a85600080516020616ee2833981519152610dab565b90556101008901516002600052602b602052614596857fbd6c10e6ce287735500a1c033be76c57d5e632addc2ff6eff6bb587b8ee0d95c610dab565b9055610120890180516003600052602b6020529094906145d6827fd3904653c5d0f9b122879aa13f7287465a10522aedd588dbbd607cf6f8b2147f610dab565b90556101608a01516005600052602b602052614612827f4b5b933abde5416303ae4347d7fcdf5a17e8022e0fefc2b31c7609ebd3c32fe9610dab565b90556101808a01516006600052602b60205261464e827f5ac1f6ea00ad8b0f699e3a293cc93d6fdaf7ee608fbc40ffef54db3fb7ebb943610dab565b90556101a08a01516007600052602b6020529061468b907f455b6dea826802a5b6200d61a7810fccbd36f05c878743e3ac0e0e7aff3a46e8610dab565b90556101c08901516146c76146bf896146b0602d54600052602e602052604060002090565b90600052602052604060002090565b9182546127aa565b905551601654612417565b601655565b51601754612417565b601755565b601c55565b0151151590565b6146f96120c6565b9060008083528060208401528060408401528060608401528060808401528060a08401528060c08401528060e08401528061010084015280610120840152806101408401528061016084015280610180840152806101a0840152806101c0840152806101e084015280610200840152806102208401528061024084015280610260840152806102808401526102a0830152565b6040519061479982612041565b600a82527f73687574646f776e2829000000000000000000000000000000000000000000006020830152565b604051906147d282612041565b601182527f696e636f6d654f662861646472657373290000000000000000000000000000006020830152565b6040519061480b82612041565b601482527f636f6d70757465546f75722875696e74323536290000000000000000000000006020830152565b906148406146f1565b9160039061485582546001600160a01b031690565b9161487061486161478c565b614869612131565b9085616ccd565b6103e76000526030602052614883615a81565b6060889392930152818752614984816001956149236148e4886148b16001600052602b602052604060002090565b01546001600052602b602052887ffcc3d43705633578a5e8f1b6d6f38d08eb8cb891174edcc94b1a54972a1aebbd612a8b565b6001600052602b6020526002969061491d90887ffcc3d43705633578a5e8f1b6d6f38d08eb8cb891174edcc94b1a54972a1aebbd612a8b565b90612617565b8a5260608a01516004600052602b602052600080516020616ee28339815191528089015461497a929161491d9161495b918b90612a8b565b6004600052602b60205288600080516020616ee2833981519152612a8b565b60608b01526151c9565b94929093916101c08c01526101008b015260208a0152600014614fcd5750506149bb610f3f611b0d6004546001600160a01b031690565b3160408701525b6149f6610f3f6149da6009546001600160a01b031690565b6149ee61393287546001600160a01b031690565b6112366147c5565b6005600052602b60205291614a8d614a5c857f4b5b933abde5416303ae4347d7fcdf5a17e8022e0fefc2b31c7609ebd3c32fe901546005600052602b602052847f4b5b933abde5416303ae4347d7fcdf5a17e8022e0fefc2b31c7609ebd3c32fe9612a8b565b6005600052602b602052827f4b5b933abde5416303ae4347d7fcdf5a17e8022e0fefc2b31c7609ebd3c32fe9612a8b565b608088018181529381811115614fbf57614aaa9150845190612617565b83526004601f548381101580614f79575b614f4b575b10159182614ed3575b5050614ea5575b6005600052603060205281614b047f9d0b70a39d4b3569f175af8ea51ae318eac80460c467ee4a16ee63ec5720706e6112c2565b14614e87575b506006600052603060205280614b3f7fd558ed0e54509c62efb2aedb46e6ad1b04c7bdca351e3613e136c946b91686d86112c2565b14614e67575b60076000526030602052614b787f4ebb69666752feecd656ebf5f8cd3c2f1c70bb06a0c3d3744be479e4a580c2336112c2565b14614e47575b614bf8614be8614bb0614ba5614b9a8751602089015190612417565b604088015190612417565b606087015190612417565b614be2614bd6614bca60e08901516101008a015190612417565b61012089015190612417565b61014088015190612417565b906156f9565b15156102a08b0152929591929091565b61028089015261024088015261022087015261026086019283526102008601526101e08501526102a0840151614c2c575050565b614c44610f3f611b0d6004546001600160a01b031690565b316040850152519061022084015161024085015110614e10575b50825181614dce57614c749060e0850151612417565b60e0840152600083525b602083015181614d8457614c9790610100850151612417565b610100840152600060208401525b604083015181614d3a57614cbe90610120850151612417565b610120840152600060408401525b60608301519080614cf65750614ce790610140840151612417565b61014083015260006060830152565b614d22614d1761404593808411600014614d3357805b816060890152612617565b610140860151612417565b610140850152606084015190612617565b8390614d0c565b90614d67614d5c614d7893808411600014614d7d57805b816040890152612617565b610120860151612417565b610120850152604084015190612617565b614ccc565b8390614d51565b90614db1614da6614dc293808411600014614dc757805b816020890152612617565b610100860151612417565b610100850152602084015190612617565b614ca5565b8390614d9b565b90614df7614ded614e0493808411600014614e0957805b818852612617565b60e0860151612417565b60e0850152835190612617565b614c7e565b8390614de5565b614e419150610f3f612ce291614e39610280870151604051938491602083019190602083019252565b610f55612f9f565b38614c5e565b600060c084018051614e5f6101a08701918251612417565b905252614b7e565b600060a085018051614e7f6101808801918251612417565b905252614b45565b8060009151614e9c6101608801918251612417565b90525238614b0a565b614ec9604051614ec1816112ed60208201906004602083019252565b61381f6147fe565b60c0860152614ad0565b6007600052602b6020527f455b6dea826802a5b6200d61a7810fccbd36f05c878743e3ac0e0e7aff3a46e880860154614f439450614f12929091612a8b565b6007600052602b602052907f455b6dea826802a5b6200d61a7810fccbd36f05c878743e3ac0e0e7aff3a46e8612a8b565b153880614ac9565b614f6f604051614f67816112ed60208201906002602083019252565b6112856147fe565b60a08a0152614ac0565b506006600052602b6020527f5ac1f6ea00ad8b0f699e3a293cc93d6fdaf7ee608fbc40ffef54db3fb7ebb94380870154614fb991612b2691908790612a8b565b15614abb565b614fc891612617565b614aaa565b60408801526101208701526149c2565b604051906040820182811067ffffffffffffffff8211176120035760405260006020838281520152565b6040519061501482612008565b8161501d614fdd565b8152615027614fdd565b60208201526040615036614fdd565b910152565b6040519061504882612041565b601882527f6765744261746368526f79616c7479436c6175736573282900000000000000006020830152565b6102a090818184031261043b5782601f8201121561043b57604080519361509a85612079565b849383019281841161043b57935b8385106150b757505050505090565b60608583031261043b5782516060916150cf82612008565b86518252602091828801518382015285880151868201528152019401936150a8565b604051906150fe82612041565b601f82527f676574526f79616c697479416d6f756e7442617463682875696e7432353629006020830152565b9060e08282031261043b5780601f8301121561043b576040519161514d83612079565b829060e0810192831161043b57905b8282106151695750505090565b815181526020918201910161515c565b90600781101561072c5760051b0190565b8181029291600082127f8000000000000000000000000000000000000000000000000000000000000000821416610b44578184051490151715610b4457565b916000926000926000926000926000926151e1615007565b6151ea83615505565b8251906020820152526151fc836155cc565b60208301519060208201525261521183615657565b60408301519060208201525261525a61524b6152356003546001600160a01b031690565b61523d61503b565b615245612131565b91616bab565b60208082518301019101615074565b92601c54926152716004546001600160a01b031690565b93601f54905b8381106152875750505050505050565b6152c36152b46040516152a6816112ed86602083019190602083019252565b6152ae6150f1565b89616bab565b6020808251830101910161512a565b6001905b838211156153e657505082156152e6575b6152e1906123ec565b615277565b61530b615303826146b0602d54600052602e602052604060002090565b54809c6127aa565b9a6153168286612617565b9060009160408801518051888110615390575b5050808311615388575b8261533d91612617565b9180615372575b5081615352575b50506152d8565b9a61536461536a926152e1949d61518a565b906127aa565b99903861534b565b9a615364829c6153819361518a565b9938615344565b915081615333565b808611156153dd5750602085915b016153a98151612409565b8910156153ce5750875b81811115615329576153c6929450612617565b913880615329565b6153d89051612409565b6153b3565b6020909161539e565b909c6153fa6153f48f6125f9565b8a615179565b51511580156154a5575b61549b5786518051841015908161548c575b508015615465575b156154495761543d615443918f615437612de9916125f9565b85615179565b9d6123ec565b906152c7565b9c9d61545f8f91612de9615437615443946125f9565b9e6123ec565b5060208701518051841015908161547d575b5061541e565b60209150015183111538615477565b60209150015183111538615416565b9c615443906123ec565b508d6154bd6154b382611ddc565b90549060031b1c90565b84101590816154ce575b5015615404565b6154fc915060406154f36154ed6154e76154b385611ddc565b936125f9565b8d615179565b51015190612417565b8311158e6154c7565b6103e7600081905260306020527f42e4ed8a28bd93bfb836b3bd3996ada35ff866e155b2ce135e767e31acbdb63f805493929084156155c457600185166155a957505060005260306020526154b361556a604060002061556485612608565b906122fb565b90546103e7600052603060205260039190911b1c926155647f42e4ed8a28bd93bfb836b3bd3996ada35ff866e155b2ce135e767e31acbdb63f916125f9565b90936155b99250615564906125f9565b90549060031b1c9190565b509250508190565b6002600090815260306020527f89a47dfbb363dd4e64da56b4585033c9abd8a425d24b94630469c44bee7189c280549193929082156155c457600183166156485750506154b390600284526030602052615564604061563081872061556485612608565b90549060031b1c9560028152603060205220916125f9565b9093506155646155b9926125f9565b6003600081815260306020527f11a30d68d5ffd3a101d3683e9a6997d49d9351e95dc004c6a4e652b897626df780549194939082156156f057600183166156d85750506156d090828552603060205261556460406156ba81882061556485612608565b905490861b1c96858152603060205220916125f9565b9054911b1c90565b9094506155646156e7926125f9565b9054911b1c9190565b50935050508190565b6000808052602f602052919082906157a061574461573b7fc11d2605466dd88923799a61d7f94d6c8cc580bae52b24870f6853eaa13cc4d65460125490612417565b6031549061272b565b9461574d615a81565b505060335460ff81166159f6575b60ff8160081c1661595a575b60ff8160101c166158ba575b60181c60ff16615846575b8086111561583d5761579a6157938288612617565b9584612417565b90612417565b9182958561581d6157ca6157c56157bc60155460135490612417565b6032549061272b565b61270e565b601454909581871115615837576157e18288612617565b95811561582f5750612ce2610f3f61579a92612cda6158086003546001600160a01b031690565b91604051938491602083019190602083019252565b941180156158285790565b5082841190565b905090612417565b856157e1565b61579a84615793565b6004600052602b6020527f8bd115fc6ec81ad72d5ca8a8b3bd3d0177f1b615af6ad35644a4e24a7bed08bd546158b5919061579a90615895906002600080516020616ee2833981519152612a8b565b6004600052602b6020526003600080516020616ee2833981519152612a8b565b61577e565b6003600052602b6020527fd3904653c5d0f9b122879aa13f7287465a10522aedd588dbbd607cf6f8b2148054909160ff91615952919061579a906159209060027fd3904653c5d0f9b122879aa13f7287465a10522aedd588dbbd607cf6f8b2147f612a8b565b60036000819052602b6020527fd3904653c5d0f9b122879aa13f7287465a10522aedd588dbbd607cf6f8b2147f612a8b565b919050615773565b60026000819052602b6020527fbd6c10e6ce287735500a1c033be76c57d5e632addc2ff6eff6bb587b8ee0d95d5491926159f092909161579a916159be917fbd6c10e6ce287735500a1c033be76c57d5e632addc2ff6eff6bb587b8ee0d95c612a8b565b6002600052602b60205260037fbd6c10e6ce287735500a1c033be76c57d5e632addc2ff6eff6bb587b8ee0d95c612a8b565b90615767565b9050615a7b615a496001615a156001600052602b602052604060002090565b01546001600052602b60205260027ffcc3d43705633578a5e8f1b6d6f38d08eb8cb891174edcc94b1a54972a1aebbd612a8b565b6001600052602b60205260037ffcc3d43705633578a5e8f1b6d6f38d08eb8cb891174edcc94b1a54972a1aebbd612a8b565b9061575b565b600090816001815b600f821115615aee5750506001600052602b6020527ffcc3d43705633578a5e8f1b6d6f38d08eb8cb891174edcc94b1a54972a1aebbd548101809111610b44576004600052602b6020529161219390600080516020616ee28339815191525490612417565b9093848252602f92602093808552604090600282862001548301809311610b44576003929588865252832001548101809111610b4457615b2e90946123ec565b90615a89565b9190615b3e61281a565b92600191828214615eb5576002808314615d8c57506003808314615d8c575060048214615d205760058214615cde57615b9d90615b79616a80565b90601c54615b878282612417565b831115615cd757615b989250612417565b614837565b9060068114615c875760078114615c2e57600814615bb9575050565b6102809192935060ff615bca612108565b936101e08301518552610200830151602086015261022083015160408601526102408301516060860152615c026102a0840151151590565b60009015615c2757505b16608084015261026081015160a0840152015160c082015290565b9050615c0c565b50919250506101a0615c3e612108565b9160e08101518352610100810151602084015261012081015160408401526101408101516060840152610160810151608084015261018081015160a0840152015160c082015290565b509192505060c0615c96612108565b91805183526020810151602084015260408101516040840152606081015160608401526080810151608084015260a081015160a0840152015160c082015290565b5050614837565b5050509050615ceb612108565b601254815260135460208201526015546040820152601454606082015260006080820152600060a0820152600060c082015290565b5050509050615d2d612108565b60165481526017546020820152615d4f6001600052602b602052604060002090565b5460408201526004600052602b602052600080516020616ee283398151915254606082015260006080820152600060a0820152600060c082015290565b939450505050615d9a612108565b7ffcc3d43705633578a5e8f1b6d6f38d08eb8cb891174edcc94b1a54972a1aebbd82015481527fbd6c10e6ce287735500a1c033be76c57d5e632addc2ff6eff6bb587b8ee0d95c8201546020808301919091527fd3904653c5d0f9b122879aa13f7287465a10522aedd588dbbd607cf6f8b2147f8301546040830152600080516020616ee283398151915283015460608301527f4b5b933abde5416303ae4347d7fcdf5a17e8022e0fefc2b31c7609ebd3c32fe983015460808301527f5ac1f6ea00ad8b0f699e3a293cc93d6fdaf7ee608fbc40ffef54db3fb7ebb94383015460a08301526007600052602b90527f455b6dea826802a5b6200d61a7810fccbd36f05c878743e3ac0e0e7aff3a46e89091015460c082015290565b5050909150615d9a612108565b60405190615ecf82611fe7565b60006060838281528260208201528260408201520152565b90604051615ef481611fe7565b6060600382948054845260018101546020850152600281015460408501520154910152565b67ffffffffffffffff81116120035760051b60200190565b90615f3b82615f19565b615f486040519182612095565b8281528092615f59601f1991615f19565b019060005b828110615f6a57505050565b602090615f75615ec2565b82828501015201615f5e565b805182101561072c5760209160051b010190565b61627a6101c06120c492615fcf615fb382516001600160a01b031690565b6001600160a01b03166001600160a01b03196002541617600255565b616002615fe660208301516001600160a01b031690565b6001600160a01b03166001600160a01b03196003541617600355565b61603561601960408301516001600160a01b031690565b6001600160a01b03166001600160a01b03196004541617600455565b61606861604c60608301516001600160a01b031690565b6001600160a01b03166001600160a01b03196005541617600555565b61609b61607f60808301516001600160a01b031690565b6001600160a01b03166001600160a01b03196006541617600655565b6160ce6160b260a08301516001600160a01b031690565b6001600160a01b03166001600160a01b03196007541617600755565b6161016160e560c08301516001600160a01b031690565b6001600160a01b03166001600160a01b03196008541617600855565b61613461611860e08301516001600160a01b031690565b6001600160a01b03166001600160a01b03196009541617600955565b61616861614c6101008301516001600160a01b031690565b6001600160a01b03166001600160a01b0319600a541617600a55565b61619c6161806101208301516001600160a01b031690565b6001600160a01b03166001600160a01b0319600b541617600b55565b6161d06161b46101408301516001600160a01b031690565b6001600160a01b03166001600160a01b0319600c541617600c55565b6162046161e86101608301516001600160a01b031690565b6001600160a01b03166001600160a01b0319600d541617600d55565b61623861621c6101808301516001600160a01b031690565b6001600160a01b03166001600160a01b0319600e541617600e55565b61626c6162506101a08301516001600160a01b031690565b6001600160a01b03166001600160a01b0319600f541617600f55565b01516001600160a01b031690565b6001600160a01b03166001600160a01b03196010541617601055565b6162ab6113a66000546001600160a01b031690565b604051907f97f3815a000000000000000000000000000000000000000000000000000000008252602082600481845afa9182156114895760009261693b575b50604051917fcfbffe53000000000000000000000000000000000000000000000000000000008352602083600481855afa9283156114895760009361691a575b50604051907fab6e844f000000000000000000000000000000000000000000000000000000008252602082600481865afa918215611489576000926168f9575b50604051917f14d8d024000000000000000000000000000000000000000000000000000000008352602083600481875afa928315611489576000936168d8575b50604051927fd1f956b1000000000000000000000000000000000000000000000000000000008452602084600481885afa938415611489576000946168b7575b50604051937fe61dfd58000000000000000000000000000000000000000000000000000000008552602085600481895afa94851561148957600095616896575b506040517fe09d394d0000000000000000000000000000000000000000000000000000000081526020816004818a5afa90811561148957600091616877575b506040517f52b06d640000000000000000000000000000000000000000000000000000000081526020816004818b5afa90811561148957600091616858575b506040517f013cf08b00000000000000000000000000000000000000000000000000000000815260006004820152916020836024818c5afa92831561148957600093616837575b50604051977f5e09dbe70000000000000000000000000000000000000000000000000000000089526020896004818d5afa94851561148957600499600096616816575b5060208b6040519b8c80927faa0ddc160000000000000000000000000000000000000000000000000000000082525afa9687156114895760049a6000986167f5575b5060208c6040519c8d80927f640274270000000000000000000000000000000000000000000000000000000082525afa9889156114895760049b60009a6167d4575b5060208d6040519d8e80927f30125cf50000000000000000000000000000000000000000000000000000000082525afa9a8b15611489578d60049d60009d6167b2575b506020906040519e8f80927f24768d910000000000000000000000000000000000000000000000000000000082525afa9c8d156114895760009d616791575b50604051809e81907f9dc969a80000000000000000000000000000000000000000000000000000000082525a92600491602094fa9d8e156114895760009e616770575b506166846120e7565b6001600160a01b0390911681529d8e906001600160a01b03166020820152604001906166b891906001600160a01b03169052565b6001600160a01b031660608d01526001600160a01b031660808c01526001600160a01b031660a08b01526001600160a01b031660c08a01526001600160a01b031660e08901526001600160a01b03166101008801526001600160a01b03166101208701526001600160a01b03166101408601526001600160a01b03166101608501526001600160a01b03166101808401526001600160a01b03166101a08301526001600160a01b03166101c08201526120c490615f95565b61678a919e5060203d602011611482576114728183612095565b9c3861667b565b6167ab919d5060203d602011611482576114728183612095565b9b38616638565b6020919d506167cd90823d8411611482576114728183612095565b9c906165f9565b6167ee919a5060203d602011611482576114728183612095565b98386165b6565b61680f91985060203d602011611482576114728183612095565b9638616574565b61683091965060203d602011611482576114728183612095565b9438616532565b61685191935060203d602011611482576114728183612095565b91386164ef565b616871915060203d602011611482576114728183612095565b386164a8565b616890915060203d602011611482576114728183612095565b38616469565b6168b091955060203d602011611482576114728183612095565b933861642a565b6168d191945060203d602011611482576114728183612095565b92386163ea565b6168f291935060203d602011611482576114728183612095565b91386163aa565b61691391925060203d602011611482576114728183612095565b903861636a565b61693491935060203d602011611482576114728183612095565b913861632a565b61695591925060203d602011611482576114728183612095565b90386162ea565b9081602091031261043b575161219381610940565b6169cc6001600160a01b036002541660405161698c81612041565b600881527f69735361666528290000000000000000000000000000000000000000000000006020820152604051916169c38361205d565b60008352616bd6565b90806169eb575b156106c457806020806121939351830101910161695c565b5060208151146169d3565b616a596001600160a01b038060025416604051916020941684830152838252616a1e82612041565b60405190616a2b82612041565b601582527f697353656375726542617365286164647265737329000000000000000000000085830152616bd6565b9080616a76575b156106c45781612193928251830101910161695c565b5081815114616a60565b6121936001600160a01b0360035416604051616a9b81612041565b600681527f69416765282900000000000000000000000000000000000000000000000000006020820152604051916111a88361205d565b6001600160a01b0380911690811561088057600154826001600160a01b0319821617600155167f8292fce18fa69edf4db7b94ea2e58241df0ae57f97e0a6c9b29067028bf92d76600080a3565b3d15616b4a573d90616b3082612115565b91616b3e6040519384612095565b82523d6000602084013e565b606090565b908015612382576001600160a01b03821691821561088057600080808481945af1616b78616b1f565b50156106c45760207fcec1f18c3ab8ddaaa107a1591e3c369667eec613626611a8deaedef43069fcdd91604051908152a2565b90616bb69291616bd6565b9060009015616bc3575090565b6040519150616bd18261205d565b815290565b9190823b15616c6b577fffffffff00000000000000000000000000000000000000000000000000000000815160208093012016916040519180830193845281519160005b838110616c57575050509181616c4760248260009795968897018783820152036004810184520182612095565b51915afa616c53616b1f565b9091565b818101830151858201602401528201616c1a565b505050600090604051616c7d8161205d565b6000815290565b9291616c9291600094616bd6565b9080616cc2575b616ca05750565b6001600160a01b0391925080602080616cbe9351830101910161266c565b1690565b506020815114616c99565b9291616cdb91600094616bd6565b9080616cfe575b616ce95750565b6121939192506020808251830101910161695c565b506020815114616ce2565b9291616d1791600094616bd6565b9080616d3a575b616d255750565b61219391925060208082518301019101612995565b506020815114616d1e565b9291616d5391600094616bd6565b9080616d78575b616d615750565b90915060208180518101031261043b576020015190565b506020815114616d5a565b90602082519201517fffffffff00000000000000000000000000000000000000000000000000000000908181169360048110616dbe57505050565b60040360031b82901b16169150565b6001600160a01b0381161561088057600080918351908260208601915af190616df4616b1f565b9115616dfe575090565b805160009190600411616e7a57616e159150616d83565b815115616e255750805190602001fd5b6040517f21c09d340000000000000000000000000000000000000000000000000000000081527fffffffff00000000000000000000000000000000000000000000000000000000919091166004820152602490fd5b50616e15565b803b6000616e8d82612115565b92616e9b6040519485612095565b82845260208401903c602d815110616eb757602a015160601c90565b60046040517fbaf3f0f7000000000000000000000000000000000000000000000000000000008152fdfe8bd115fc6ec81ad72d5ca8a8b3bd3d0177f1b615af6ad35644a4e24a7bed08bca26469706673582212209122329b1b3aa6a3e351cc6245e5267540a376ed8779eb961f69373bd6d104d764736f6c63430008140033","linkReferences":{}},"methodIdentifiers":{"instanceStor()":"131c73ad"},"id":80}