{"abi":[{"type":"constructor","inputs":[{"name":"_hex","type":"address","internalType":"address"}],"stateMutability":"nonpayable"},{"type":"function","name":"instanceStor","inputs":[],"outputs":[{"name":"","type":"address","internalType":"address"}],"stateMutability":"view"}],"bytecode":{"object":"0x6080346100c5576001600160401b0390601f61719138819003918201601f1916830191848311848410176100af578084926020946040528339810103126100c557516001600160a01b039190828116908190036100c5576040519161703890818401908111848210176100af576020928492610159843981520301906000f080156100a3571660018060a01b03196000541617600055604051608e90816100cb8239f35b6040513d6000823e3d90fd5b634e487b7160e01b600052604160045260246000fd5b600080fdfe6080806040526004361015601257600080fd5b600090813560e01c63131c73ad14602857600080fd5b346054578160031936011260545773ffffffffffffffffffffffffffffffffffffffff60209254168152f35b5080fdfea2646970667358221220fc352f32eee5177d595b9b439e93bb5304b75103bbe73976d4cec3ef5f87cead64736f6c63430008140033608034620000b757601f6200703838819003918201601f19168301916001600160401b03831184841017620000bc57808492602094604052833981010312620000b757516001600160a01b03811690819003620000b7578015620000a55760018060a01b0319903382600154161760015560009182541617815560016011558060125580601355806014558060155580601655601755604051616f659081620000d38239f35b60405163e6c4247b60e01b8152600490fd5b600080fd5b634e487b7160e01b600052604160045260246000fdfe60806040526004361015610018575b361561001657005b005b60003560e01c806302a085f214610338578063043719b41461033357806309d8da2e1461032e5780630b98f975146103295780630c19aef81461032457806312065fe01461031f578063129641201461031a578063141ca66014610315578063143ec3b7146103105780631f185d161461030b57806329ee350e14610306578063339459a61461030157806339b4d61b146102fc5780633b9b7955146102f757806343a1b5ab146102f25780634a65786c146102ed57806352902c59146102e85780635640dbfc146102e35780635ecf6a8a146102de578063619d5194146102d95780636350b2c2146102d457806369245009146102cf5780636de97c66146102ca5780636f493aad146102c5578063725b6fff146102c0578063759f22bd146102bb57806375b4d78c146102b65780637b058ac1146102b1578063822ffec4146102ac578063880cdc31146102a75780638da5cb5b146102a2578063934209ce1461029d5780639659867e14610298578063a1f7f53914610293578063a66303041461028e578063a9bf285b14610289578063af48452614610284578063af640d0f1461027f578063b90306ad1461027a578063bab2f55214610275578063c54e44b014610270578063c8ef7b1a1461026b578063ce6e73ac14610266578063d2a1590414610261578063d3a1a4991461025c578063da02133514610257578063deb1ba1e14610252578063e01ad5fd1461024d578063e0a9bc2b146102485763fdc10bc90361000e5761203a565b61201f565b611f9f565b611f25565b611e9e565b611e72565b611e2d565b611aea565b611a83565b611a4b565b611a2d565b61190b565b6118ed565b6118bc565b61189e565b611276565b611201565b6111e3565b6111c5565b61119e565b611122565b610dd6565b610ca5565b610c87565b610bd1565b610b4d565b610b13565b610a81565b610a28565b6109d1565b610969565b610946565b6108eb565b610800565b6107da565b6107bc565b610795565b610769565b610750565b610717565b610630565b6105f3565b610597565b61054b565b61052f565b610500565b61048f565b61046c565b610430565b61036c565b610120810192916000915b6009831061035557505050565b600190825181526020809101920192019190610348565b60408060031936011261042b57805190610385826120a8565b61012036833760ff6018541661041b5761039d61699f565b1561040b576103ab33616a24565b80156103f7575b156103e7576103d36103e3926103c6612834565b60243590600435906129f9565b906001601155519182918261033d565b0390f35b6004905163ea8e4eb560e01b8152fd5b50336001600160a01b0360055416146103b2565b60049051634ee2123760e11b8152fd5b600490516334c2d01160e11b8152fd5b600080fd5b3461042b57604036600319011261042b576004356000526030602052602061045e602435604060002061237f565b90546040519160031b1c8152f35b3461042b57600036600319011261042b57602060ff601854166040519015158152f35b3461042b57602036600319011261042b576104a861699f565b156104ef576104b633616a24565b80156104db575b156104ca57600435601955005b600460405163ea8e4eb560e01b8152fd5b50336001600160a01b0360055416146104bd565b6004604051634ee2123760e11b8152fd5b3461042b57600036600319011261042b5761001661051c616aae565b6105246155d6565b9493505050506123d8565b3461042b57600036600319011261042b57602047604051908152f35b3461042b57604036600319011261042b5761056a602435600435615b69565b60405190600090825b600783106105805760e084f35b600190825181526020809101920192019190610573565b602036600319011261042b576105ab61699f565b156104ef576105b933616a24565b80156105df575b156104ca576105cd612834565b6105d86004356134fc565b6001601155005b50336001600160a01b0360055416146105c0565b3461042b57602036600319011261042b5760043560005260306020526020604060002054604051908152f35b6001600160a01b0381160361042b57565b3461042b5760208060031936011261042b576106af6004356106518161061f565b6001600160a01b03806002541690604051921684830152838252610674826120c5565b60405190610681826120c5565b601182527f69735369676e657228616464726573732900000000000000000000000000000085830152616c04565b91908061070d575b156106e35781816106d1926103e39451830101910161698a565b60405190151581529081906020820190565b60046040517f3204506f000000000000000000000000000000000000000000000000000000008152fd5b50808251146106b7565b3461042b57600036600319011261042b57601f54600881101561074b57602181015460408051928352602083019190915290f35b611e4a565b3461042b57600036600319011261042b576100166162c4565b3461042b57602036600319011261042b57600435600052602a6020526020604060002054604051908152f35b3461042b57600036600319011261042b5760206001600160a01b0360005416604051908152f35b3461042b57600036600319011261042b576020602d54604051908152f35b3461042b57600036600319011261042b57602060ff60185460081c166040519015158152f35b3461042b57606036600319011261042b5760043561081d8161061f565b6024356108298161061f565b6001600160a01b038092169081158080156108e1575b6108c95761089f57610891916000938454826001600160a01b03198216178655167fe939feee179e631422bcc8f6e6d7d908cb3f8af38f5372f17c77e15aea5c80ee8580a361088c61221a565b616b00565b61089c604435601b55565b80f35b60046040517fe6c4247b000000000000000000000000000000000000000000000000000000008152fd5b6024604051635258db5f60e01b815260016004820152fd5b508382161561083f565b3461042b57600036600319011261042b5760c060315460ff60325460335490604051938452602084015281811615156040840152818160081c1615156060840152818160101c161515608084015260181c16151560a0820152f35b3461042b57600036600319011261042b5761001661221a565b8015150361042b57565b3461042b57602036600319011261042b576004356109868161095f565b61098e61699f565b156104ef5761099c33616a24565b80156109bd575b156104ca5760ff8019601854169115151617601855600080f35b50336001600160a01b0360055416146109a3565b3461042b57602036600319011261042b57600435600052602c602052608060406000208054906001810154906001600160a01b03600360028301549201541691604051938452602084015260408301526060820152f35b3461042b57600036600319011261042b576020601e54604051908152f35b6020908160408183019282815285518094520193019160005b828110610a6d575050505090565b835185529381019392810192600101610a5f565b3461042b57600036600319011261042b57601f546001810190818111610b0e57610aaa82615f47565b91610ab86040519384612119565b808352610ac7601f1991615f47565b0136602084013760005b81811115610ae757604051806103e38582610a46565b600881101561074b5780610b099160210154610b038286615faf565b52612470565b610ad1565b61245a565b3461042b57604036600319011261042b57600435600052602e60205260406000206024356000526020526020604060002054604051908152f35b3461042b57600036600319011261042b576020601c54604051908152f35b6020908160408183019282815285518094520193019160005b828110610b92575050505090565b9091929382608082610bc56001948951606080918051845260208101516020850152604081015160408501520151910152565b01950193929101610b84565b3461042b57604036600319011261042b57600435602435808211610c6f57818103908111610b0e5760018101809111610b0e57610c0d81615f5f565b9160005b828110610c2657604051806103e38682610b6b565b80610c4f610c4a610c3a610c6a9486612641565b600052602f602052604060002090565b615f15565b610c598287615faf565b52610c648186615faf565b50612470565b610c11565b6024604051635258db5f60e01b8152600d6004820152fd5b3461042b57600036600319011261042b576020601954604051908152f35b3461042b5760a036600319011261042b57604435602435600435608435610ccb8161095f565b610cd361699f565b156104ef57610ce133616a24565b8015610dc2575b156104ca5760009260009480610d09575b6040805186815260208101889052f35b9091929350601f549483600014610d7a57506001610d5982610d6d96610d47610d3f610d6296600052602f602052604060002090565b918254612641565b9055600052602f602052604060002090565b01918254612641565b90555b606435614223565b601f549038808080610cf9565b808260409252602f60205220938454908103908111610b0e57610db2610dbb92600192610d6d9755600052602f602052604060002090565b0191825461266c565b9055610d65565b50336001600160a01b036005541614610ce8565b3461042b5760c036600319011261042b5760043560643560443560a435602435610dff8261095f565b610e0761699f565b156104ef57610e1533616a24565b801561110e575b156104ca57610e3583600052602f602052604060002090565b610e40868254612641565b90556001610e5884600052602f602052604060002090565b01610e64828254612641565b905560008052602f6020527fc11d2605466dd88923799a61d7f94d6c8cc580bae52b24870f6853eaa13cc4d654151580611105575b610eac575b601f54604051908152602090f35b15908115806110f7575b610f13610f04610ece6003546001600160a01b031690565b60405190610ef682610ee88a602083019190602083019252565b03601f198101845283612119565b610efe614082565b90616bd9565b602080825183010191016140bb565b92999195610f26601e959295548b61266c565b608435119182156110ea575b50816110e1575b50610f48575b50505050610e9e565b61104898600395610fb795600090156110d85750610f72610f6c610f789385612780565b9161270f565b90612521565b955b600090156110ce5750610f6c610f9393610f7292612780565b935b6002610fab82600052602f602052604060002090565b01610d47858254612641565b01610fc3838254612641565b9055610fce8361247f565b906001610ff0610fe960016000526030602052604060002090565b5460011690565b1480156110c7575b61108a575b506004600052603060205260016110337f2f780f5a40ea4901ca784926540b83b7459f13a98fc8f78e5634eb2a01df3af5610fe9565b14908115611082575b50611057575b5061247f565b50388080808080808080610f3f565b6004600052602b60205261107a6002600080516020616f10833981519152610d59565b905538611042565b90503861103c565b6001600052602b6020526110bf60027ffcc3d43705633578a5e8f1b6d6f38d08eb8cb891174edcc94b1a54972a1aebbd610d59565b905538610ffd565b5081610ff8565b9250505093610f95565b91505095610f7a565b90501538610f39565b601f541015915038610f32565b6111008561411b565b610eb6565b50821515610e99565b50336001600160a01b036005541614610e1c565b3461042b57602036600319011261042b5760043561113f8161061f565b61114761699f565b156104ef5761115533616a24565b801561118a575b156104ca576001600160a01b038116156111795761001690616b00565b600460405163055c501b60e51b8152fd5b50336001600160a01b03600554161461115c565b3461042b57600036600319011261042b5760206001600160a01b0360015416604051908152f35b3461042b57600036600319011261042b576020601f54604051908152f35b3461042b57600036600319011261042b576020601a54604051908152f35b3461042b57600036600319011261042b57602061126e6001600160a01b036006541660405161122f816120c5565b601381527f67657464656c656761746f72436f756e742829000000000000000000000000008482015260405191611265836120e1565b60008352616d37565b604051908152f35b60c036600319011261042b5760048035906112908261061f565b60443560643592608435906112a361699f565b1561188e576112b133616a24565b801561187a575b1561186a5760ff60185416611812576112cf612834565b6103e7600052603060205260016113057f42e4ed8a28bd93bfb836b3bd3996ada35ff866e155b2ce135e767e31acbdb63f610fe9565b1480611822575b6118125761132061131c82616a24565b1590565b61180257600361136461135f61135761134084546001600160a01b031690565b6113486124d0565b906113516124e8565b90616d37565b60a435612521565b602955565b60295461137b81600052602a602052604060002090565b5482546001600160a01b0316906113a16113936124d0565b61139b612541565b84616d37565b11908115916117b8575b5061179a576113c490600052602a602052604060002090565b80546001019055600183149586156117935761140c6113ea83546001600160a01b031690565b6040519061140482610ee88a602083019190602083019252565b6113516125ec565b965b611740575b50601a5415611725575b601a5461142990612470565b601a5561143461213b565b94868652602092858488015260a4356040880152606087019660008852601a5461146890600052602c602052604060002090565b9061147291612679565b60015460405163c85700fb60e01b868201526001600160a01b03909116602480830191909152356044820152606481018790526084810189905260a480358183015281526114c160c482612119565b6114ca91616dfb565b838082518301019101906114dd916126c1565b6001600160a01b0316808752156117065750859261169d61168f61160661160161167d61161189610f7261160c6115f28f9c7f1517c86fcf2bfb8e3468afcc539b0004955da8027797c497ea51d1f1094ab8989f9d6115d48f9e6116dc9f6115c26115ba6115c79261158f61155c6115e598516001600160a01b031690565b86611573601a54600052602c602052604060002090565b01906001600160a01b03166001600160a01b0319825416179055565b6115b46115a386546001600160a01b031690565b6115ab6124d0565b906113516126d6565b90612780565b601554612641565b601555565b546001600160a01b031690565b6115dc6124d0565b90610efe612793565b80518101820191016127cc565b9c9491959b9293989050612780565b612780565b93612780565b612720565b9161164561162b602d54600052602e602052604060002090565b6116378360a435612641565b600052602052604060002090565b6116508482546127ff565b90556116378461167861166f602d54600052602e602052604060002090565b9360a435612641565b612641565b61168882825461281b565b9055612780565b96516001600160a01b031690565b604080513381526001600160a01b039092166020830152810193909352606083019390935260a435608083015260a082019290925290819060c0820190565b0390a16116ea60a43561247f565b506116f56001601155565b604080519182526020820192909252f35b604051635258db5f60e01b815260029181019182529081906020010390fd5b61173060a435601c55565b61173b60a435601d55565b61141d565b601954908761174f8383612641565b10611775578761176561176f9361176a93612641565b61266c565b601955565b38611413565b604051635258db5f60e01b8152600581890190815281906020010390fd5b809661140e565b60405163cdab4c8760e01b8152600181880190815281906020010390fd5b90506117d36117c56124d0565b6117cd61257a565b83616d37565b86109081156117e4575b50386113ab565b6117fa91506117f16124d0565b906113516125b3565b8511386117dd565b8360405163055c501b60e51b8152fd5b836040516334c2d01160e11b8152fd5b50611862610ee861183a86546001600160a01b031690565b611854601b54604051938491602083019190602083019252565b61185c612497565b90616cb2565b31151561130c565b8360405163ea8e4eb560e01b8152fd5b50336001600160a01b0360055416146112b8565b83604051634ee2123760e11b8152fd5b3461042b57600036600319011261042b576020601d54604051908152f35b3461042b57602036600319011261042b5760206118e36004356118de8161061f565b616a24565b6040519015158152f35b3461042b57600036600319011261042b576020601b54604051908152f35b3461042b57602036600319011261042b576004356001600160a01b036005541633036104ca576000906004602061195861194c85546001600160a01b031690565b6001600160a01b031690565b604051928380927f46f991ac0000000000000000000000000000000000000000000000000000000082525afa8015611a2857838084819493829483916119fa575b505af16119a4616b4d565b50156106e3577fcdcc745fe377b103b45fa0cec23ae3ef93d6fc6a84a01f0d18c40b354dd1d5d86119f46119e361194c600b546001600160a01b031690565b604051938452929081906020820190565b0390a280f35b611a1b915060203d8111611a21575b611a138183612119565b8101906126c1565b38611999565b503d611a09565b6130b0565b3461042b57600036600319011261042b576020602954604051908152f35b3461042b57602036600319011261042b576020611a72600435611a6d8161061f565b616eae565b6001600160a01b0360405191168152f35b3461042b57604036600319011261042b57602435611aa08161095f565b611aa861699f565b156104ef57611ab633616a24565b8015611ad6575b156104ca5761001690600435611ad1616aae565b61242c565b50336001600160a01b036005541614611abd565b60208060031936011261042b57600480359060ff60185416611e1e57611b0e612834565b611b16616aae565b91611b3861135f611b326113406003546001600160a01b031690565b85612521565b611b4e602954600052602a602052604060002090565b546003546001600160a01b031690611b676113936124d0565b03611e00576103e760005260306020526001611ba27f42e4ed8a28bd93bfb836b3bd3996ada35ff866e155b2ce135e767e31acbdb63f610fe9565b1480611dcb575b611dad57611bde604051611bd681611bc8868a83019190602083019252565b03601f198101835282612119565b6117cd612ffe565b3403611d8f5790611c0e611c00611c5b93611bf76124d0565b90610efe613037565b868082518301019101613070565b946001600160a01b0392831694919392169080151580611d86575b611d6a575b50505080151580611d61575b611d39575b505050611c56611c5134601254612641565b601255565b601355565b611c648261247f565b5082611c7b61194c6000546001600160a01b031690565b604051928380927f1b4fc17b0000000000000000000000000000000000000000000000000000000082525afa908115611a28577f1517c86fcf2bfb8e3468afcc539b0004955da8027797c497ea51d1f1094ab89893600092611d1c575b5050604080513381526001600160a01b0392909216602083015260009082015234606082015260808101919091526103e860a082015260c090a16100166001601155565b611d329250803d10611a2157611a138183612119565b3880611cd8565b611d5992610f72611d4d611d539334612780565b91612737565b90616b7d565b388080611c3f565b50811515611c3a565b611d7e92610f72611d4d611d539334612780565b388080611c2e565b50811515611c29565b60405163cdab4c8760e01b8152600981850190815281906020010390fd5b604051635258db5f60e01b8152600681850190815281906020010390fd5b50601b54604051868101918252611df891611dea908290602001611bc8565b611df2612497565b83616cb2565b311515611ba9565b60405163cdab4c8760e01b8152600581850190815281906020010390fd5b6040516334c2d01160e11b8152fd5b3461042b57600036600319011261042b5760208054604051908152f35b634e487b7160e01b600052603260045260246000fd5b600881101561074b5760210190600090565b3461042b57602036600319011261042b57600435600881101561042b5760209060210154604051908152f35b3461042b57602036600319011261042b57611eb7615ef0565b50600435600052602f60205260806040600020600360405191611ed98361206b565b80548352600181015460208401526002810154604084015201546060820152611f236040518092606080918051845260208101516020850152604081015160408501520151910152565bf35b3461042b57602036600319011261042b57600435611f428161095f565b611f4a61699f565b156104ef57611f5833616a24565b8015611f8b575b156104ca5715611f7957611f74602054612470565b602055005b6020548015610b0e5760001901602055005b50336001600160a01b036005541614611f5f565b3461042b57602036600319011261042b5760206118e3600435611fc18161061f565b6001600160a01b03806006541690604051921684830152838252611fe4826120c5565b60405190611ff1826120c5565b601882527f697364656c656761746f724e6f6465286164647265737329000000000000000085830152616cfb565b3461042b57600036600319011261042b5760206118e361699f565b3461042b57600036600319011261042b57602061126e616aae565b634e487b7160e01b600052604160045260246000fd5b6080810190811067ffffffffffffffff82111761208757604052565b612055565b6060810190811067ffffffffffffffff82111761208757604052565b610120810190811067ffffffffffffffff82111761208757604052565b6040810190811067ffffffffffffffff82111761208757604052565b6020810190811067ffffffffffffffff82111761208757604052565b60e0810190811067ffffffffffffffff82111761208757604052565b90601f8019910116810190811067ffffffffffffffff82111761208757604052565b604051906121488261206b565b565b60405190610280820182811067ffffffffffffffff82111761208757604052565b604051906101e0820182811067ffffffffffffffff82111761208757604052565b60405190612148826120fd565b67ffffffffffffffff811161208757601f01601f191660200190565b604051906121c2826120e1565b60008252565b91908260c091031261042b5781519160208101519160408201516121eb8161095f565b9160608101516121fa8161095f565b9160a0608083015161220b8161095f565b9201516122178161095f565b90565b6122226162c4565b61227e6001600160a01b03600354166040519061223e826120e1565b600082526040519061224f826120c5565b600982527f63617070696e67282900000000000000000000000000000000000000000000006020830152616bd9565b8051156123215761230561231c6122ec6123176122d16122aa86602080612148995183010191016121c8565b9994999792959091939763ff00000060335491151560181b169063ff000000191617603355565b62ff000060335491151560101b169062ff0000191617603355565b61ff0060335491151560081b169061ff00191617603355565b60ff8019603354169115151617603355565b603255565b603155565b60646040517f08c379a000000000000000000000000000000000000000000000000000000000815260206004820152601460248201527f43617070696e67206665746368206661696c65640000000000000000000000006044820152fd5b805482101561074b5760005260206000200190600090565b908154916801000000000000000083101561208757826123bf9160016121489501815561237f565b90919082549060031b91821b91600019901b1916179055565b6103e760005260306020526040600020918254801580612424575b61241e576001911561241357161561240a575b5050565b61214891612397565b81161461240a575050565b50505050565b5081156123f3565b90600052603060205260406000209182548015806124245761241e576001911561241357161561240a575050565b634e487b7160e01b600052601160045260246000fd5b6000198114610b0e5760010190565b61221761248a6155d6565b95925050508391506123d8565b604051906124a4826120c5565b601882527f676574557365724964546f496e73742875696e743235362900000000000000006020830152565b6040516124dc816120e1565b60008152906000368137565b604051906124f5826120c5565b600f82527f6d696e744379636c6544617973282900000000000000000000000000000000006020830152565b811561252b570490565b634e487b7160e01b600052601260045260246000fd5b6040519061254e826120c5565b601282527f6d61784d696e74735065724379636c65282900000000000000000000000000006020830152565b60405190612587826120c5565b600c82527f6d696e4d696e74517479282900000000000000000000000000000000000000006020830152565b604051906125c0826120c5565b600c82527f6d61784d696e74517479282900000000000000000000000000000000000000006020830152565b604051906125f9826120c5565b601982527f636f6d707574654d696e7456616c75652875696e7432353629000000000000006020830152565b6046019081604611610b0e57565b9060018201809211610b0e57565b91908201809211610b0e57565b600019810191908211610b0e57565b600119810191908211610b0e57565b91908203918211610b0e57565b60036001600160a01b036060612148948051855560208101516001860155604081015160028601550151169101906001600160a01b03166001600160a01b0319825416179055565b9081602091031261042b57516122178161061f565b604051906126e3826120c5565b600f82527f6d696e74466565506572517479282900000000000000000000000000000000006020830152565b9081606402916064830403610b0e57565b9061271091828102928184041490151715610b0e57565b90606482029180830460641490151715610b0e57565b90601982029180830460191490151715610b0e57565b90670de0b6b3a764000091828102928184041490151715610b0e57565b81810292918115918404141715610b0e57565b604051906127a0826120c5565b600682527f706f6f6c282900000000000000000000000000000000000000000000000000006020830152565b908160e091031261042b5780519160208201519160408101519160608201519160808101519160c060a083015192015190565b91909160008382019384129112908015821691151617610b0e57565b81810392916000138015828513169184121617610b0e57565b600260115414612845576002601155565b60046040517f3ee5aeb5000000000000000000000000000000000000000000000000000000008152fd5b6040519061287c826120fd565b60e0368337565b60405190612890826120c5565b601082527f65616368636c61696d4379636c652829000000000000000000000000000000006020830152565b604051906128c9826120c5565b601082527f6d6178436c61696d5065724461792829000000000000000000000000000000006020830152565b60405190612902826120c5565b601082527f6d696e436c61696d5065724461792829000000000000000000000000000000006020830152565b6040519061293b826120c5565b601682527f6d6178476c6f62616c436c61696d5065724461792829000000000000000000006020830152565b60405190612974826120c5565b601582527f67657477697468647261776e2875696e743235362900000000000000000000006020830152565b90600981101561074b5760051b0190565b604051906129be826120c5565b601d82527f636f6d707574654f7a6f6e65546f446f6c6c61722875696e74323536290000006020830152565b9081602091031261042b575190565b9291838115612ff85750612a0c8161247f565b50601c5491612a1b8184612641565b821115612feb57612a39612a3160329285612641565b935b8461266c565b1161240657600380546001600160a01b0316612a6a612a61612a596124d0565b61139b612883565b601d5490612641565b8310612fd257612a88612a8e91612a7f6124d0565b906113516128bc565b93614395565b6001600052602b60205292612be7612bb6612b85612b54612b23612af2877ffcc3d43705633578a5e8f1b6d6f38d08eb8cb891174edcc94b1a54972a1aebbd01546004600052602b60205288600080516020616f108339815191525b015490612641565b6002600052602b602052877fbd6c10e6ce287735500a1c033be76c57d5e632addc2ff6eff6bb587b8ee0d95c612aea565b6003600052602b602052867fd3904653c5d0f9b122879aa13f7287465a10522aedd588dbbd607cf6f8b2147f612aea565b6005600052602b602052857f4b5b933abde5416303ae4347d7fcdf5a17e8022e0fefc2b31c7609ebd3c32fe9612aea565b6006600052602b602052847f5ac1f6ea00ad8b0f699e3a293cc93d6fdaf7ee608fbc40ffef54db3fb7ebb943612aea565b6007600052602b602052837f455b6dea826802a5b6200d61a7810fccbd36f05c878743e3ac0e0e7aff3a46e8612aea565b91612bf981546001600160a01b031690565b612c0c612c046124d0565b6117cd6128f5565b8410801590612fcb575b15612fb257612c3090612c276124d0565b9061135161292e565b92612c436004546001600160a01b031690565b92604094612c7b865180612c5f8a602083019190602083019252565b0396612c73601f1998898101845283612119565b611351612967565b1015612f9b5760009181811115612f9457612c96925061266c565b9087600092600190815b6007811115612d97575050505092612d5d92612d589261214897969560165460e08c0152876101008c601754918291015281612d8d575b50612d75575b612ce76000601655565b612cf16000601755565b60008215612d6b575092612d39612d4193612d2d93612d1a612d5097546001600160a01b031690565b9351948591602083019190602083019252565b03908101845283612119565b610efe6129b1565b602080825183010191016129ea565b601454612641565b601455565b612d6681601d55565b6123d8565b9350505050612d50565b612d88612d83602d54612470565b602d55565b612cdd565b9050151538612cd7565b8885612db18398959698600052602b602052604060002090565b015483612eb75790612e5f612e4f612eae95967f1517c86fcf2bfb8e3468afcc539b0004955da8027797c497ea51d1f1094ab8989489612dfb88600052602b602052604060002090565b01612e07828254612641565b905560008b612e2089600052602b602052604060002090565b0155612e34612e2e8861264e565b8d6129a0565b525b612e48612e428761264e565b8c6129a0565b5190612641565b98612e598561264e565b906129a0565b51612ea6612e6c85612625565b8c5193849333859094939260a0926001600160a01b0360c08401971683526000602084015260006040840152606083015260808201520152565b0390a1612470565b908a9291612ca0565b9280841115612f505790612e5f612e4f8596612f24612efa7f1517c86fcf2bfb8e3468afcc539b0004955da8027797c497ea51d1f1094ab89896612eae9961266c565b80998b612f118a600052602b602052604060002090565b01612f1d838254612641565b905561266c565b8a612f3988600052602b602052604060002090565b0155600097612f4a612e2e8861264e565b52612e36565b90612e5f612e4f612f85612eae967f1517c86fcf2bfb8e3468afcc539b0004955da8027797c497ea51d1f1094ab8989561266c565b966000612f4a612e2e8861264e565b5050612c96565b845163cdab4c8760e01b8152600480820152602490fd5b60405163cdab4c8760e01b8152600a6004820152602490fd5b5085612c16565b60405163cdab4c8760e01b815260026004820152602490fd5b506032612a398293612a33565b93505050565b6040519061300b826120c5565b601d82527f636f6d70757465446f6c6c6172546f4f7a6f6e652875696e74323536290000006020830152565b60405190613044826120c5565b600a82527f6275726e636e66672829000000000000000000000000000000000000000000006020830152565b91908260c091031261042b5781516130878161061f565b9160208101519160408201519160608101516130a28161061f565b9160a0608083015192015190565b6040513d6000823e3d90fd5b604051906130c9826120c5565b601382527f55736572546f496e7374286164647265737329000000000000000000000000006020830152565b60405190613102826120c5565b600b82527f6d696e74436f756e7428290000000000000000000000000000000000000000006020830152565b6040519061313b826120c5565b600e82527f6d696e74732875696e74323536290000000000000000000000000000000000006020830152565b60405190613174826120c5565b600b82527f6d696e74656441676528290000000000000000000000000000000000000000006020830152565b604051906131ad826120c5565b600b82527f6d696e74656471747928290000000000000000000000000000000000000000006020830152565b604051906131e6826120c5565b600c82527f6964732875696e743235362900000000000000000000000000000000000000006020830152565b6040519061321f826120c5565b600982527f6d696e74416d74282900000000000000000000000000000000000000000000006020830152565b60405190613258826120c5565b600a82527f647261776e6167652829000000000000000000000000000000000000000000006020830152565b60405190613291826120c5565b600c82527f4c53422875696e743235362900000000000000000000000000000000000000006020830152565b604051906132ca826120c5565b600782527f647261776e2829000000000000000000000000000000000000000000000000006020830152565b91908260c091031261042b5781519160208101519160408201519160608101519160a0608083015192015190565b60405190613331826120c5565b601382527f67657452657761726473286164647265737329000000000000000000000000006020830152565b919082604091031261042b576020825192015190565b60405190613380826120c5565b600782527f626f6e75732829000000000000000000000000000000000000000000000000006020830152565b604051906133b9826120c5565b600682527f63616765282900000000000000000000000000000000000000000000000000006020830152565b604051906133f2826120c5565b601982527f67657445666665637469766552616e6b286164647265737329000000000000006020830152565b6040519061342b826120c5565b601f82527f6765746e6f646572616e6b61676528616464726573732c75696e7432353629006020830152565b60405190613464826120c5565b601082527f6765744e6f6465286164647265737329000000000000000000000000000000006020830152565b908160a091031261042b5780519160208201516134ac8161061f565b916040810151916080606083015161220b8161095f565b604051906134d0826120c5565b601a82527f77697468647261776e496e636f6d654f662861646472657373290000000000006020830152565b60185460081c60ff1661407f57600490602061352361194c6000546001600160a01b031690565b604051938480927f447aa3040000000000000000000000000000000000000000000000000000000082525afa918215611a285760009261405e575b506135a5611bc861359761357a6001546001600160a01b031690565b604080516001600160a01b03909216602083015290928391820190565b61359f6130bc565b84616cb2565b906001600160a01b0382161561403a5760058111614021576135d06135c86124d0565b61139b6130f5565b90601a546135de8183612641565b831115614019576135ee91612641565b81613b18575b5080601a5414908115613b0f575b5061360b575050565b6136266136216136196124d0565b61139b61324b565b601e55565b601e54601c548111613aad575b5061365f6136506136426124d0565b61364a6132bd565b84616bd9565b602080825183010191016132f6565b94600161367d9592959493946001600052602b602052604060002090565b01557fbd6c10e6ce287735500a1c033be76c57d5e632addc2ff6eff6bb587b8ee0d95d557fd3904653c5d0f9b122879aa13f7287465a10522aedd588dbbd607cf6f8b21480557f8bd115fc6ec81ad72d5ca8a8b3bd3d0177f1b615af6ad35644a4e24a7bed08bd557f5ac1f6ea00ad8b0f699e3a293cc93d6fdaf7ee608fbc40ffef54db3fb7ebb944557f455b6dea826802a5b6200d61a7810fccbd36f05c878743e3ac0e0e7aff3a46e95560008052602f6020527fc11d2605466dd88923799a61d7f94d6c8cc580bae52b24870f6853eaa13cc4d754613761906115c29061274d565b6137a861379960405161378b81611bc886602083019190916001600160a01b036020820193169052565b613793613324565b85616bd9565b6020808251830101910161335d565b602b6020527ffcc3d43705633578a5e8f1b6d6f38d08eb8cb891174edcc94b1a54972a1aebbd919091556004600052600080516020616f10833981519152556137fd61176a6137f56124d0565b61139b613373565b61381361362161380b6124d0565b61139b6133ac565b61385061384b60405161383d81611bc886602083019190916001600160a01b036020820193169052565b6138456133e5565b85616d37565b601f55565b60005b600f8111156139b85750613895610ee86138bb9361388d6138a494604051938491602083019190916001600160a01b036020820193169052565b610efe613457565b60208082518301019101613490565b935050505060ff8019601854169115151617601855565b600460206138d461194c6000546001600160a01b031690565b604051928380927f6325dd040000000000000000000000000000000000000000000000000000000082525afa908115611a285761395291610ee891600091613999575b5061394a61392d6001546001600160a01b031690565b604080516001600160a01b03909216602083015290938491820190565b6113516134c3565b6005600052602b6020527f4b5b933abde5416303ae4347d7fcdf5a17e8022e0fefc2b31c7609ebd3c32fea55601c54601d555b61214861010061ff00196018541617601855565b6139b2915060203d602011611a2157611a138183612119565b38613917565b806139d191613a20575b601f548111156139d657612470565b613853565b604080516001600160a01b0385166020820152908101829052613a1b90613a1290613a048160608101611bc8565b613a0c61341e565b87616d37565b6123bf83611e60565b612470565b6040517f5329daca0000000000000000000000000000000000000000000000000000000060208201526001600160a01b038416602482015260448101829052613a7a9061379990613a748160648101611bc8565b86616dfb565b90613a8f83600052602f602052604060002090565b556001613aa683600052602f602052604060002090565b01556139c2565b601c55613ade611bc8613ad0601e54604051928391602083019190602083019252565b613ad8613284565b83616d73565b613b08613af7602d54600052602e602052604060002090565b601c54600052602052604060002090565b5538613633565b90501538613602565b60008052602f6020527fc11d2605466dd88923799a61d7f94d6c8cc580bae52b24870f6853eaa13cc4d6547fc11d2605466dd88923799a61d7f94d6c8cc580bae52b24870f6853eaa13cc4d7549395909491929091905b601a5484811015613fba57613b86613b8b91612470565b601a55565b601a5495613bb9604051613bab81611bc88b602083019190602083019252565b613bb361312e565b8a616cb2565b90613bcd613bc56124d0565b61139b613167565b91613be1613bd96124d0565b6117cd6131a0565b91613c06604051613bfe81611bc860208201906000602083019252565b61139b6131d9565b90613c29613c23613c156124d0565b613c1d613212565b86616d37565b93616eae565b9a613c3f61194c6000546001600160a01b031690565b6040517fcfaa1f6c0000000000000000000000000000000000000000000000000000000081526001600160a01b039d909d1660048e015260208d602481845afa9c8d15611a285760009d613f99575b506001600160a01b038d1615613f27575b50613cac61131c8d616a24565b61117957613d8b92613d1a86613d148761194c9681613cd8613d7c98600052602c602052604060002090565b55836001613cf2601a54600052602c602052604060002090565b01558b6002613d0d601a54600052602c602052604060002090565b0155612641565b9d612641565b9c613d77613d306001546001600160a01b031690565b60405163c85700fb60e01b60208201526001600160a01b0390911660248201526044810193909352606483018890526084830187905260a483018990528260c48101610ee8565b616dfb565b602080825183010191016126c1565b6001600160a01b03811615613f0e577f1517c86fcf2bfb8e3468afcc539b0004955da8027797c497ea51d1f1094ab89893613eb8613ef592613de060039182611573601a54600052602c602052604060002090565b611606613e87613e7f611601611637613e2e8a610f7261160c613e1f613e106115d48c546001600160a01b031690565b602080825183010191016127cc565b9e9491959b9293989050612780565b94611678613e78602d613e5a8c61163788613e548554600052602e602052604060002090565b92612641565b613e658a82546127ff565b905554600052602e602052604060002090565b938a612641565b91825461281b565b90556001601a5414613f00575b613eaa601a54600052602c602052604060002090565b01546001600160a01b031690565b604080513381526001600160a01b03909216602083015281019490945260608401929092526080830191909152600060a0830152819060c0820190565b0390a1949394613b6f565b613f0983601c55565b613e94565b604051635258db5f60e01b815260026004820152602490fd5b6040517fb771c89600000000000000000000000000000000000000000000000000000000815260006004820152919c50602090829060249082905afa908115611a2857600091613f7a575b509a38613c9f565b613f93915060203d602011611a2157611a138183612119565b38613f72565b613fb3919d5060203d602011611a2157611a138183612119565b9b38613c8e565b5060008052602f6020527fc11d2605466dd88923799a61d7f94d6c8cc580bae52b24870f6853eaa13cc4d6959095557fc11d2605466dd88923799a61d7f94d6c8cc580bae52b24870f6853eaa13cc4d7939093559391929050386135f4565b5050806135ee565b60405163cdab4c8760e01b815260036004820152602490fd5b505050614048613621616aae565b614053601e54601c55565b613985601e54601d55565b61407891925060203d602011611a2157611a138183612119565b903861355e565b50565b6040519061408f826120c5565b601482527f6c6576656c436c617573652875696e74323536290000000000000000000000006020830152565b908160a091031261042b578051916020820151916040810151916080606083015192015190565b604051906140ef826120c5565b601382527f72616e6b436c617573652875696e7432353629000000000000000000000000006020830152565b90601f6141288154612633565b925b600884106141385750509050565b6003546001600160a01b03169360409461417e614170875160209361416882610ee8888883019190602083019252565b610efe6140e2565b8280825183010191016140bb565b505050918215801561421b575b614203576141b1949596975054101590816141e1575b50806141cf575b6141b957612470565b92919061412a565b6141c281601f55565b613a1b836123bf83611e60565b5083546141db8261264e565b146141a8565b905060016141f983600052602f602052604060002090565b01541015386141a1565b8751635258db5f60e01b815260036004820152602490fd5b50811561418b565b90156142b75790601f6142368154612633565b925b600884106142465750509050565b6003546001600160a01b031693604094614276614170875160209361416882610ee8888883019190602083019252565b50505091821580156142af575b614203576142a7949596975054101590816141e15750806141cf576141b957612470565b929190614238565b508115614283565b506000905b601f548211614391576003546001600160a01b0316916040926142f5614170855160209361416882610ee8888883019190602083019252565b5050509183151580614381575b61436a576143259495505410159081614348575b501561432b57613a1b81601f55565b906142bc565b613a1b61433782611e60565b8154906000199060031b1b19169055565b9050600161436083600052602f602052604060002090565b0154101538614316565b8551635258db5f60e01b8152600480820152602490fd5b5082158061430257508115614302565b9050565b610260612217916147246143a882614863565b9161471f61471a84516003906143cd82610d596001600052602b602052604060002090565b905560608601516004600052602b6020526143f682600080516020616f10833981519152610d59565b90556020868101516002600052602b909152614432827fbd6c10e6ce287735500a1c033be76c57d5e632addc2ff6eff6bb587b8ee0d95c610d59565b90556040860180516003600052602b602052909190614471827fd3904653c5d0f9b122879aa13f7287465a10522aedd588dbbd607cf6f8b2147f610d59565b905560808701516005600052602b6020526144ac827f4b5b933abde5416303ae4347d7fcdf5a17e8022e0fefc2b31c7609ebd3c32fe9610d59565b905560a08701516006600052602b6020526144e7827f5ac1f6ea00ad8b0f699e3a293cc93d6fdaf7ee608fbc40ffef54db3fb7ebb943610d59565b905560c08701516007600052602b60205290614523907f455b6dea826802a5b6200d61a7810fccbd36f05c878743e3ac0e0e7aff3a46e8610d59565b905560e08601516001600052602b6020526002916147119161470c919061456a857ffcc3d43705633578a5e8f1b6d6f38d08eb8cb891174edcc94b1a54972a1aebbd610d59565b90556101408901516004600052602b60205261459485600080516020616f10833981519152610d59565b90556101008901516002600052602b6020526145d0857fbd6c10e6ce287735500a1c033be76c57d5e632addc2ff6eff6bb587b8ee0d95c610d59565b9055610120890180516003600052602b602052909490614610827fd3904653c5d0f9b122879aa13f7287465a10522aedd588dbbd607cf6f8b2147f610d59565b90556101608a01516005600052602b60205261464c827f4b5b933abde5416303ae4347d7fcdf5a17e8022e0fefc2b31c7609ebd3c32fe9610d59565b90556101808a01516006600052602b602052614688827f5ac1f6ea00ad8b0f699e3a293cc93d6fdaf7ee608fbc40ffef54db3fb7ebb943610d59565b90556101a08a01516007600052602b602052906146c5907f455b6dea826802a5b6200d61a7810fccbd36f05c878743e3ac0e0e7aff3a46e8610d59565b90556101c08901516147016146f9896146ea602d54600052602e602052604060002090565b90600052602052604060002090565b9182546127ff565b905551601654612641565b601655565b51601754612641565b601755565b601c55565b0151151590565b61473361214a565b9060008083528060208401528060408401528060608401528060808401528060a08401528060c08401528060e08401528061010084015280610120840152806101408401528061016084015280610180840152806101a0840152806101c0840152806101e0840152806102008401528061022084015280610240840152610260830152565b604051906147c5826120c5565b600a82527f73687574646f776e2829000000000000000000000000000000000000000000006020830152565b604051906147fe826120c5565b601182527f696e636f6d654f662861646472657373290000000000000000000000000000006020830152565b60405190614837826120c5565b601482527f636f6d70757465546f75722875696e74323536290000000000000000000000006020830152565b9061486c61472b565b91610100836003614c798261488883546001600160a01b031690565b956148a36148946147b8565b61489c6121b5565b9089616cfb565b6103e76000526030602052936148b7615ab6565b98909560608501998a528685526149b48160019561495961491a886148e76001600052602b602052604060002090565b01546001600052602b602052887ffcc3d43705633578a5e8f1b6d6f38d08eb8cb891174edcc94b1a54972a1aebbd612aea565b6001600052602b60205260029b90614953908d7ffcc3d43705633578a5e8f1b6d6f38d08eb8cb891174edcc94b1a54972a1aebbd612aea565b9061266c565b88528c516004600052602b602052600080516020616f10833981519152808901546149ad92916149539161498e918b90612aea565b6004600052602b6020528d600080516020616f10833981519152612aea565b8d52615191565b94929093916101c060209e8f8c019b019d01528b528752600014614f95575050614a056149e96004546001600160a01b031690565b601b54604051808c019182529190611854908390602001610ee8565b3160408c01525b6009546001600160a01b031695614a6a614a4e614a3086546001600160a01b031690565b6040519182918d83019190916001600160a01b036020820193169052565b0398614a62601f199a8b8101845283612119565b6113516147f1565b6005600052602b602052928c6080614b04614ad3887f4b5b933abde5416303ae4347d7fcdf5a17e8022e0fefc2b31c7609ebd3c32fe901546005600052602b602052867f4b5b933abde5416303ae4347d7fcdf5a17e8022e0fefc2b31c7609ebd3c32fe9612aea565b6005600052602b602052847f4b5b933abde5416303ae4347d7fcdf5a17e8022e0fefc2b31c7609ebd3c32fe9612aea565b91018181529481811115614f8757614b1f915085519061266c565b845260048d601f54908a8d8684101580614f10575b614ecb575b50505010159182614e53575b5050614e17575b506001600052603060205281614b817fc7874712a1c7fb891b421aa6c0d42dbf3cd912d7a18f183783fb32e938cbaa01610fe9565b14614dfb575b6004600052603060205281614bbb7f2f780f5a40ea4901ca784926540b83b7459f13a98fc8f78e5634eb2a01df3af5610fe9565b14614de0575b6005600052603060205281614bf57f9d0b70a39d4b3569f175af8ea51ae318eac80460c467ee4a16ee63ec5720706e610fe9565b14614dc2575b506006600052603060205280614c307fd558ed0e54509c62efb2aedb46e6ad1b04c7bdca351e3613e136c946b91686d8610fe9565b14614da2575b60076000526030602052614c697f4ebb69666752feecd656ebf5f8cd3c2f1c70bb06a0c3d3744be479e4a580c233610fe9565b14614d82575b8751905190612641565b92614c95614c8d6040890195865190612641565b865190612641565b91614ca860e08901948551905190612641565b93614d0d6102208a614cdc614cc46101208301998a5190612641565b97614cd66101408401998a5190612641565b906158de565b959192939490614cf3610260830197889015159052565b61024082015201526102008d01526101e08c015251151590565b614d1b575b50505050505050565b600096614d72948892614d308c518251612641565b9052828b52614d4182518251612641565b905252611854614d596004546001600160a01b031690565b601b546040519485019081529092908490602001612d2d565b3190525238808080808080614d12565b600060c089018051614d9a6101a08c01918251612641565b905252614c6f565b600060a08a018051614dba6101808d01918251612641565b905252614c36565b8060009151614dd76101608d01918251612641565b90525238614bfb565b60008851614df46101408d01918251612641565b5052614bc1565b8951614e0c60e08c01918251612641565b905260008a52614b87565b614e489060405190614e4082614e348c8201906004602083019252565b03898101845283612119565b61135161482a565b60c08b015238614b4c565b6007600052602b6020527f455b6dea826802a5b6200d61a7810fccbd36f05c878743e3ac0e0e7aff3a46e880870154614ec39450614e92929091612aea565b6007600052602b602052907f455b6dea826802a5b6200d61a7810fccbd36f05c878743e3ac0e0e7aff3a46e8612aea565b153880614b45565b614eeb614ef760a093614f05936040519384918201906002602083019252565b03908101835282612119565b614eff61482a565b89616d37565b9101528e8a8d614b39565b506006600052602b6020527f5ac1f6ea00ad8b0f699e3a293cc93d6fdaf7ee608fbc40ffef54db3fb7ebb943808b0154614f8191614f5091908a90612aea565b6006600052602b602052877f5ac1f6ea00ad8b0f699e3a293cc93d6fdaf7ee608fbc40ffef54db3fb7ebb943612aea565b15614b34565b614f909161266c565b614b1f565b60408d01526101208c0152614a0c565b604051906040820182811067ffffffffffffffff8211176120875760405260006020838281520152565b60405190614fdc8261208c565b81614fe5614fa5565b8152614fef614fa5565b60208201526040614ffe614fa5565b910152565b60405190615010826120c5565b601882527f6765744261746368526f79616c7479436c6175736573282900000000000000006020830152565b6102a090818184031261042b5782601f8201121561042b576040805193615062856120fd565b849383019281841161042b57935b83851061507f57505050505090565b60608583031261042b5782516060916150978261208c565b8651825260209182880151838201528588015186820152815201940193615070565b604051906150c6826120c5565b601f82527f676574526f79616c697479416d6f756e7442617463682875696e7432353629006020830152565b9060e08282031261042b5780601f8301121561042b5760405191615115836120fd565b829060e0810192831161042b57905b8282106151315750505090565b8151815260209182019101615124565b90600781101561074b5760051b0190565b8181029291600082127f8000000000000000000000000000000000000000000000000000000000000000821416610b0e578184051490151715610b0e57565b916000926000926000926000926000926151a9614fcf565b6151b283615490565b6020830151906020820152526151c783615534565b6040830151906020820152526152106152016151eb6003546001600160a01b031690565b6151f3615003565b6151fb6121b5565b91616bd9565b6020808251830101910161503c565b92601c54926152276004546001600160a01b031690565b93601f54905b83811061523d5750505050505050565b61527961526a60405161525c81611bc886602083019190602083019252565b6152646150b9565b89616bd9565b602080825183010191016150f2565b6001905b8382111561539c575050821561529c575b61529790612470565b61522d565b6152c16152b9826146ea602d54600052602e602052604060002090565b54809c6127ff565b9a6152cc828661266c565b9060009160408801518051888110615346575b505080831161533e575b826152f39161266c565b9180615328575b5081615308575b505061528e565b9a61531a61532092615297949d615152565b906127ff565b999038615301565b9a61531a829c61533793615152565b99386152fa565b9150816152e9565b808611156153935750602085915b0161535f8151612633565b8910156153845750875b818111156152df5761537c92945061266c565b9138806152df565b61538e9051612633565b615369565b60209091615354565b909c6153b06153aa8f61264e565b8a615141565b5151158015615430575b61542657602087015180518410159081615417575b50156153fb576153ef6153f5918f6153e9612e489161264e565b85615141565b9d612470565b9061527d565b9c9d6154118f91612e486153e96153f59461264e565b9e612470565b602091500151831115386153cf565b9c6153f590612470565b508d61544861543e82611e60565b90549060031b1c90565b8410159081615459575b50156153ba565b6154879150604061547e61547861547261543e85611e60565b9361264e565b8d615141565b51015190612641565b8311158e615452565b6002600090815260306020527f89a47dfbb363dd4e64da56b4585033c9abd8a425d24b94630469c44bee7189c2805491939290821561552c576001831661551257505061543e906002845260306020526154f460406154fa8187206154f48561265d565b9061237f565b90549060031b1c95600281526030602052209161264e565b9093506154f46155219261264e565b90549060031b1c9190565b509250508190565b6003600081815260306020527f11a30d68d5ffd3a101d3683e9a6997d49d9351e95dc004c6a4e652b897626df780549194939082156155cd57600183166155b55750506155ad9082855260306020526154f460406155978188206154f48561265d565b905490861b1c968581526030602052209161264e565b9054911b1c90565b9094506154f46155c49261264e565b9054911b1c9190565b50935050508190565b6000808052602f60205261561b6156127fc11d2605466dd88923799a61d7f94d6c8cc580bae52b24870f6853eaa13cc4d65b5460125490612641565b60315490612780565b90615624615ab6565b505060335460ff8116615853575b60ff8160081c166157ae575b60ff8160101c16615704575b60181c60ff16615691575b809261567a61567561566c60155460135490612641565b60325490612780565b612763565b90836014549311801561568a5790565b5081831190565b6004600052602b6020526156ff906156f96156d96001600080516020616f108339815191525b01546004600052602b6020526002600080516020616f10833981519152612aea565b6004600052602b6020526003600080516020616f10833981519152612aea565b90612641565b615655565b6003600052602b6020529060ff906157a6906156f961577460017fd3904653c5d0f9b122879aa13f7287465a10522aedd588dbbd607cf6f8b2147f5b01546003600052602b60205260027fd3904653c5d0f9b122879aa13f7287465a10522aedd588dbbd607cf6f8b2147f612aea565b60036000819052602b6020527fd3904653c5d0f9b122879aa13f7287465a10522aedd588dbbd607cf6f8b2147f612aea565b91905061564a565b6002600052602b6020529061584d906156f961581b60017fbd6c10e6ce287735500a1c033be76c57d5e632addc2ff6eff6bb587b8ee0d95c5b015460026000819052602b6020527fbd6c10e6ce287735500a1c033be76c57d5e632addc2ff6eff6bb587b8ee0d95c612aea565b6002600052602b60205260037fbd6c10e6ce287735500a1c033be76c57d5e632addc2ff6eff6bb587b8ee0d95c612aea565b9061563e565b90506158d86158a660016158726001600052602b602052604060002090565b01546001600052602b60205260027ffcc3d43705633578a5e8f1b6d6f38d08eb8cb891174edcc94b1a54972a1aebbd612aea565b6001600052602b60205260037ffcc3d43705633578a5e8f1b6d6f38d08eb8cb891174edcc94b1a54972a1aebbd612aea565b90615632565b6000808052602f60205261595c906159186156127fc11d2605466dd88923799a61d7f94d6c8cc580bae52b24870f6853eaa13cc4d6615608565b93615921615ab6565b505060335460ff8116615a91575b60ff8160081c16615a4e575b60ff8160101c16615a06575b60181c60ff166159d1575b6156f99084612641565b908193836159bf61597861567561566c60155460135490612641565b93600081156159ca5750612d41610ee86159b692612d396159a16003546001600160a01b031690565b91604051938491602083019190602083019252565b60145490612641565b9311801561568a5790565b90506159b6565b6004600052602b602052906156f9906159fe90826156d96001600080516020616f108339815191526156b7565b919050615952565b6003600052602b6020529160ff90615a46906156f961577460017fd3904653c5d0f9b122879aa13f7287465a10522aedd588dbbd607cf6f8b2147f615740565b929050615947565b6002600052602b60205291615a8b906156f961581b60017fbd6c10e6ce287735500a1c033be76c57d5e632addc2ff6eff6bb587b8ee0d95c6157e7565b9161593b565b9150615ab06158a660016158726001600052602b602052604060002090565b9161592f565b600090816001815b600f821115615b235750506001600052602b6020527ffcc3d43705633578a5e8f1b6d6f38d08eb8cb891174edcc94b1a54972a1aebbd548101809111610b0e576004600052602b6020529161221790600080516020616f108339815191525490612641565b9093848252602f92602093808552604090600282862001548301809311610b0e576003929588865252832001548101809111610b0e57615b639094612470565b90615abe565b919091615b7461286f565b92600190818314615ee3576002808414615dba57506003808414615dba575060048314615d4e5760058314615d0c57615bd390615baf616aae565b90601c54615bbd8282612641565b831115615d0557615bce9250612641565b614863565b9160068114615cb55760078114615c5c57600814615bef575050565b60ff91929350615c34610260615c0361218c565b946101e081015186526102008101516020870152610220810151604087015261024081015160608701520151151590565b60009015615c5557505b166080820152600060a0820152600060c082015290565b9050615c3e565b50509091506101a0615c6c61218c565b9160e08101518352610100810151602084015261012081015160408401526101408101516060840152610160810151608084015261018081015160a0840152015160c082015290565b505090915060c0615cc461218c565b91805183526020810151602084015260408101516040840152606081015160608401526080810151608084015260a081015160a0840152015160c082015290565b5050614863565b5050509050615d1961218c565b601254815260135460208201526015546040820152601454606082015260006080820152600060a0820152600060c082015290565b5050509050615d5b61218c565b60165481526017546020820152615d7d6001600052602b602052604060002090565b5460408201526004600052602b602052600080516020616f1083398151915254606082015260006080820152600060a0820152600060c082015290565b939450505050615dc861218c565b7ffcc3d43705633578a5e8f1b6d6f38d08eb8cb891174edcc94b1a54972a1aebbd82015481527fbd6c10e6ce287735500a1c033be76c57d5e632addc2ff6eff6bb587b8ee0d95c8201546020808301919091527fd3904653c5d0f9b122879aa13f7287465a10522aedd588dbbd607cf6f8b2147f8301546040830152600080516020616f1083398151915283015460608301527f4b5b933abde5416303ae4347d7fcdf5a17e8022e0fefc2b31c7609ebd3c32fe983015460808301527f5ac1f6ea00ad8b0f699e3a293cc93d6fdaf7ee608fbc40ffef54db3fb7ebb94383015460a08301526007600052602b90527f455b6dea826802a5b6200d61a7810fccbd36f05c878743e3ac0e0e7aff3a46e89091015460c082015290565b5091925050615dc861218c565b60405190615efd8261206b565b60006060838281528260208201528260408201520152565b90604051615f228161206b565b6060600382948054845260018101546020850152600281015460408501520154910152565b67ffffffffffffffff81116120875760051b60200190565b90615f6982615f47565b615f766040519182612119565b8281528092615f87601f1991615f47565b019060005b828110615f9857505050565b602090615fa3615ef0565b82828501015201615f8c565b805182101561074b5760209160051b010190565b6162a86101c061214892615ffd615fe182516001600160a01b031690565b6001600160a01b03166001600160a01b03196002541617600255565b61603061601460208301516001600160a01b031690565b6001600160a01b03166001600160a01b03196003541617600355565b61606361604760408301516001600160a01b031690565b6001600160a01b03166001600160a01b03196004541617600455565b61609661607a60608301516001600160a01b031690565b6001600160a01b03166001600160a01b03196005541617600555565b6160c96160ad60808301516001600160a01b031690565b6001600160a01b03166001600160a01b03196006541617600655565b6160fc6160e060a08301516001600160a01b031690565b6001600160a01b03166001600160a01b03196007541617600755565b61612f61611360c08301516001600160a01b031690565b6001600160a01b03166001600160a01b03196008541617600855565b61616261614660e08301516001600160a01b031690565b6001600160a01b03166001600160a01b03196009541617600955565b61619661617a6101008301516001600160a01b031690565b6001600160a01b03166001600160a01b0319600a541617600a55565b6161ca6161ae6101208301516001600160a01b031690565b6001600160a01b03166001600160a01b0319600b541617600b55565b6161fe6161e26101408301516001600160a01b031690565b6001600160a01b03166001600160a01b0319600c541617600c55565b6162326162166101608301516001600160a01b031690565b6001600160a01b03166001600160a01b0319600d541617600d55565b61626661624a6101808301516001600160a01b031690565b6001600160a01b03166001600160a01b0319600e541617600e55565b61629a61627e6101a08301516001600160a01b031690565b6001600160a01b03166001600160a01b0319600f541617600f55565b01516001600160a01b031690565b6001600160a01b03166001600160a01b03196010541617601055565b6162d961194c6000546001600160a01b031690565b604051907f97f3815a000000000000000000000000000000000000000000000000000000008252602082600481845afa918215611a2857600092616969575b50604051917fcfbffe53000000000000000000000000000000000000000000000000000000008352602083600481855afa928315611a2857600093616948575b50604051907fab6e844f000000000000000000000000000000000000000000000000000000008252602082600481865afa918215611a2857600092616927575b50604051917f14d8d024000000000000000000000000000000000000000000000000000000008352602083600481875afa928315611a2857600093616906575b50604051927fd1f956b1000000000000000000000000000000000000000000000000000000008452602084600481885afa938415611a28576000946168e5575b50604051937fe61dfd58000000000000000000000000000000000000000000000000000000008552602085600481895afa948515611a28576000956168c4575b506040517fe09d394d0000000000000000000000000000000000000000000000000000000081526020816004818a5afa908115611a28576000916168a5575b506040517f52b06d640000000000000000000000000000000000000000000000000000000081526020816004818b5afa908115611a2857600091616886575b506040517f013cf08b00000000000000000000000000000000000000000000000000000000815260006004820152916020836024818c5afa928315611a2857600093616865575b50604051977f5e09dbe70000000000000000000000000000000000000000000000000000000089526020896004818d5afa948515611a2857600499600096616844575b5060208b6040519b8c80927faa0ddc160000000000000000000000000000000000000000000000000000000082525afa968715611a285760049a600098616823575b5060208c6040519c8d80927f640274270000000000000000000000000000000000000000000000000000000082525afa988915611a285760049b60009a616802575b5060208d6040519d8e80927f30125cf50000000000000000000000000000000000000000000000000000000082525afa9a8b15611a28578d60049d60009d6167e0575b506020906040519e8f80927f24768d910000000000000000000000000000000000000000000000000000000082525afa9c8d15611a285760009d6167bf575b50604051809e81907f9dc969a80000000000000000000000000000000000000000000000000000000082525a92600491602094fa9d8e15611a285760009e61679e575b506166b261216b565b6001600160a01b0390911681529d8e906001600160a01b03166020820152604001906166e691906001600160a01b03169052565b6001600160a01b031660608d01526001600160a01b031660808c01526001600160a01b031660a08b01526001600160a01b031660c08a01526001600160a01b031660e08901526001600160a01b03166101008801526001600160a01b03166101208701526001600160a01b03166101408601526001600160a01b03166101608501526001600160a01b03166101808401526001600160a01b03166101a08301526001600160a01b03166101c082015261214890615fc3565b6167b8919e5060203d602011611a2157611a138183612119565b9c386166a9565b6167d9919d5060203d602011611a2157611a138183612119565b9b38616666565b6020919d506167fb90823d8411611a2157611a138183612119565b9c90616627565b61681c919a5060203d602011611a2157611a138183612119565b98386165e4565b61683d91985060203d602011611a2157611a138183612119565b96386165a2565b61685e91965060203d602011611a2157611a138183612119565b9438616560565b61687f91935060203d602011611a2157611a138183612119565b913861651d565b61689f915060203d602011611a2157611a138183612119565b386164d6565b6168be915060203d602011611a2157611a138183612119565b38616497565b6168de91955060203d602011611a2157611a138183612119565b9338616458565b6168ff91945060203d602011611a2157611a138183612119565b9238616418565b61692091935060203d602011611a2157611a138183612119565b91386163d8565b61694191925060203d602011611a2157611a138183612119565b9038616398565b61696291935060203d602011611a2157611a138183612119565b9138616358565b61698391925060203d602011611a2157611a138183612119565b9038616318565b9081602091031261042b57516122178161095f565b6169fa6001600160a01b03600254166040516169ba816120c5565b600881527f69735361666528290000000000000000000000000000000000000000000000006020820152604051916169f1836120e1565b60008352616c04565b9080616a19575b156106e357806020806122179351830101910161698a565b506020815114616a01565b616a876001600160a01b038060025416604051916020941684830152838252616a4c826120c5565b60405190616a59826120c5565b601582527f697353656375726542617365286164647265737329000000000000000000000085830152616c04565b9080616aa4575b156106e35781612217928251830101910161698a565b5081815114616a8e565b6122176001600160a01b0360035416604051616ac9816120c5565b600681527f6941676528290000000000000000000000000000000000000000000000000000602082015260405191611265836120e1565b6001600160a01b0380911690811561089f57600154826001600160a01b0319821617600155167f8292fce18fa69edf4db7b94ea2e58241df0ae57f97e0a6c9b29067028bf92d76600080a3565b3d15616b78573d90616b5e82612199565b91616b6c6040519384612119565b82523d6000602084013e565b606090565b908015612406576001600160a01b03821691821561089f57600080808481945af1616ba6616b4d565b50156106e35760207fcec1f18c3ab8ddaaa107a1591e3c369667eec613626611a8deaedef43069fcdd91604051908152a2565b90616be49291616c04565b9060009015616bf1575090565b6040519150616bff826120e1565b815290565b9190823b15616c99577fffffffff00000000000000000000000000000000000000000000000000000000815160208093012016916040519180830193845281519160005b838110616c85575050509181616c7560248260009795968897018783820152036004810184520182612119565b51915afa616c81616b4d565b9091565b818101830151858201602401528201616c48565b505050600090604051616cab816120e1565b6000815290565b9291616cc091600094616c04565b9080616cf0575b616cce5750565b6001600160a01b0391925080602080616cec935183010191016126c1565b1690565b506020815114616cc7565b9291616d0991600094616c04565b9080616d2c575b616d175750565b6122179192506020808251830101910161698a565b506020815114616d10565b9291616d4591600094616c04565b9080616d68575b616d535750565b612217919250602080825183010191016129ea565b506020815114616d4c565b9291616d8191600094616c04565b9080616da6575b616d8f5750565b90915060208180518101031261042b576020015190565b506020815114616d88565b90602082519201517fffffffff00000000000000000000000000000000000000000000000000000000908181169360048110616dec57505050565b60040360031b82901b16169150565b6001600160a01b0381161561089f57600080918351908260208601915af190616e22616b4d565b9115616e2c575090565b805160009190600411616ea857616e439150616db1565b815115616e535750805190602001fd5b6040517f21c09d340000000000000000000000000000000000000000000000000000000081527fffffffff00000000000000000000000000000000000000000000000000000000919091166004820152602490fd5b50616e43565b803b6000616ebb82612199565b92616ec96040519485612119565b82845260208401903c602d815110616ee557602a015160601c90565b60046040517fbaf3f0f7000000000000000000000000000000000000000000000000000000008152fdfe8bd115fc6ec81ad72d5ca8a8b3bd3d0177f1b615af6ad35644a4e24a7bed08bca26469706673582212201cc7f45464ac80999381983b67fdc39862cf5c7e8b13939d9d89cfce20af556264736f6c63430008140033","linkReferences":{}},"methodIdentifiers":{"instanceStor()":"131c73ad"},"id":78}