{"abi":[{"type":"constructor","inputs":[{"name":"_hex","type":"address","internalType":"address"}],"stateMutability":"nonpayable"},{"type":"function","name":"instanceStor","inputs":[],"outputs":[{"name":"","type":"address","internalType":"address"}],"stateMutability":"view"}],"bytecode":{"object":"0x6080346100c5576001600160401b0390601f616be138819003918201601f1916830191848311848410176100af578084926020946040528339810103126100c557516001600160a01b039190828116908190036100c55760405191616a8890818401908111848210176100af576020928492610159843981520301906000f080156100a3571660018060a01b03196000541617600055604051608e90816100cb8239f35b6040513d6000823e3d90fd5b634e487b7160e01b600052604160045260246000fd5b600080fdfe6080806040526004361015601257600080fd5b600090813560e01c63131c73ad14602857600080fd5b346054578160031936011260545773ffffffffffffffffffffffffffffffffffffffff60209254168152f35b5080fdfea2646970667358221220f539854ae86ad7059e6e79fb5f8b0aad9ffcf92fff946d21d16d5e0dee45040e64736f6c63430008140033608034620000b757601f62006a8838819003918201601f19168301916001600160401b03831184841017620000bc57808492602094604052833981010312620000b757516001600160a01b03811690819003620000b7578015620000a55760018060a01b03199033826001541617600155600091825416178155600160115580601255806013558060145580601555806016556017556040516169b59081620000d38239f35b60405163e6c4247b60e01b8152600490fd5b600080fd5b634e487b7160e01b600052604160045260246000fdfe60806040526004361015610018575b361561001657005b005b60003560e01c806302a085f214610328578063043719b41461032357806309d8da2e1461031e5780630b98f975146103195780630c19aef81461031457806312065fe01461030f578063141ca6601461030a578063143ec3b7146103055780631f185d161461030057806329ee350e146102fb578063339459a6146102f657806339b4d61b146102f15780633b9b7955146102ec57806343a1b5ab146102e75780634a65786c146102e257806352902c59146102dd578063619d5194146102d85780636350b2c2146102d357806369245009146102ce5780636de97c66146102c95780636f493aad146102c4578063725b6fff146102bf578063759f22bd146102ba57806375b4d78c146102b55780637b058ac1146102b0578063822ffec4146102ab578063880cdc31146102a65780638da5cb5b146102a1578063934209ce1461029c5780639659867e14610297578063a1f7f53914610292578063a20199ac1461028d578063a663030414610288578063a9bf285b14610283578063aaa65a9c1461027e578063af48452614610279578063af640d0f14610274578063b90306ad1461026f578063bab2f5521461026a578063c54e44b014610265578063c8ef7b1a14610260578063ce6e73ac1461025b578063d2a1590414610256578063d3a1a49914610251578063da0213351461024c578063deb1ba1e14610247578063e01ad5fd14610242578063e0a9bc2b1461023d5763fdc10bc90361000e57611fbf565b611fa4565b611f24565b611eaa565b611e23565b611df7565b611db2565b611ac5565b611a5e565b611a26565b611a08565b6118e6565b6118c8565b611897565b611838565b61181a565b6111f2565b6111a6565b611131565b611113565b6110f5565b6110ce565b611052565b610d06565b610bd5565b610bb7565b610b01565b610a7d565b610a43565b6109b1565b610958565b610901565b610899565b6107a4565b61077e565b610760565b610739565b61070d565b6106f4565b6106bb565b6105d4565b610597565b61053b565b61051f565b6104f0565b61047f565b61045c565b610420565b61035c565b610120810192916000915b6009831061034557505050565b600190825181526020809101920192019190610338565b60408060031936011261041b578051906103758261214a565b61012036833760ff6018541661040b5761038d6163ef565b156103fb5761039b33616474565b80156103e7575b156103d7576103c36103d3926103b66125ce565b6024359060043590612793565b906001601155519182918261032d565b0390f35b6004905163ea8e4eb560e01b8152fd5b50336001600160a01b0360055416146103a2565b60049051634ee2123760e11b8152fd5b600490516334c2d01160e11b8152fd5b600080fd5b3461041b57604036600319011261041b576004356000526030602052602061044e6024356040600020611ff0565b90546040519160031b1c8152f35b3461041b57600036600319011261041b57602060ff601854166040519015158152f35b3461041b57602036600319011261041b576104986163ef565b156104df576104a633616474565b80156104cb575b156104ba57600435601955005b600460405163ea8e4eb560e01b8152fd5b50336001600160a01b0360055416146104ad565b6004604051634ee2123760e11b8152fd5b3461041b57600036600319011261041b5761001661050c6164fe565b610515816151f5565b9392505050612050565b3461041b57600036600319011261041b57602047604051908152f35b602036600319011261041b5761054f6163ef565b156104df5761055d33616474565b8015610583575b156104ba576105716125ce565b61057c6004356131db565b6001601155005b50336001600160a01b036005541614610564565b3461041b57602036600319011261041b5760043560005260306020526020604060002054604051908152f35b6001600160a01b0381160361041b57565b3461041b5760208060031936011261041b576106536004356105f5816105c3565b6001600160a01b0380600254169060405192168483015283825261061882612167565b6040519061062582612167565b601182527f69735369676e657228616464726573732900000000000000000000000000000085830152616654565b9190806106b1575b15610687578181610675926103d3945183010191016163da565b60405190151581529081906020820190565b60046040517f3204506f000000000000000000000000000000000000000000000000000000008152fd5b508082511461065b565b3461041b57600036600319011261041b57601f5460088110156106ef57602181015460408051928352602083019190915290f35b611dcf565b3461041b57600036600319011261041b57610016615d14565b3461041b57602036600319011261041b57600435600052602a6020526020604060002054604051908152f35b3461041b57600036600319011261041b5760206001600160a01b0360005416604051908152f35b3461041b57600036600319011261041b576020602d54604051908152f35b3461041b57600036600319011261041b57602060ff60185460081c166040519015158152f35b3461041b57606036600319011261041b576004356107c1816105c3565b6024356107cd816105c3565b6001600160a01b03809216908115808015610885575b61086d5761084357610835916000938454826001600160a01b0319821617865561080b615d14565b167fe939feee179e631422bcc8f6e6d7d908cb3f8af38f5372f17c77e15aea5c80ee8580a3616550565b610840604435601b55565b80f35b60046040517fe6c4247b000000000000000000000000000000000000000000000000000000008152fd5b6024604051635258db5f60e01b815260016004820152fd5b50838216156107e3565b8015150361041b57565b3461041b57602036600319011261041b576004356108b68161088f565b6108be6163ef565b156104df576108cc33616474565b80156108ed575b156104ba5760ff8019601854169115151617601855600080f35b50336001600160a01b0360055416146108d3565b3461041b57602036600319011261041b57600435600052602c602052608060406000208054906001810154906001600160a01b03600360028301549201541691604051938452602084015260408301526060820152f35b3461041b57600036600319011261041b576020601e54604051908152f35b6020908160408183019282815285518094520193019160005b82811061099d575050505090565b83518552938101939281019260010161098f565b3461041b57600036600319011261041b57601f546001810190818111610a3e576109da82615997565b916109e860405193846121bb565b8083526109f7601f1991615997565b0136602084013760005b81811115610a1757604051806103d38582610976565b60088110156106ef5780610a399160210154610a3382866159ff565b526120e8565b610a01565b6120d2565b3461041b57604036600319011261041b57600435600052602e60205260406000206024356000526020526020604060002054604051908152f35b3461041b57600036600319011261041b576020601c54604051908152f35b6020908160408183019282815285518094520193019160005b828110610ac2575050505090565b9091929382608082610af56001948951606080918051845260208101516020850152604081015160408501520151910152565b01950193929101610ab4565b3461041b57604036600319011261041b57600435602435808211610b9f57818103908111610a3e5760018101809111610a3e57610b3d816159af565b9160005b828110610b5657604051806103d38682610a9b565b80610b7f610b7a610b6a610b9a94866123f1565b600052602f602052604060002090565b615965565b610b8982876159ff565b52610b9481866159ff565b506120e8565b610b41565b6024604051635258db5f60e01b8152600d6004820152fd5b3461041b57600036600319011261041b576020601954604051908152f35b3461041b5760a036600319011261041b57604435602435600435608435610bfb8161088f565b610c036163ef565b156104df57610c1133616474565b8015610cf2575b156104ba5760009260009480610c39575b6040805186815260208101889052f35b9091929350601f549483600014610caa57506001610c8982610c9d96610c77610c6f610c9296600052602f602052604060002090565b9182546123f1565b9055600052602f602052604060002090565b019182546123f1565b90555b606435613f02565b601f549038808080610c29565b808260409252602f60205220938454908103908111610a3e57610ce2610ceb92600192610c9d9755600052602f602052604060002090565b0191825461241c565b9055610c95565b50336001600160a01b036005541614610c18565b3461041b5760c036600319011261041b5760043560643560443560a435602435610d2f8261088f565b610d376163ef565b156104df57610d4533616474565b801561103e575b156104ba57610d6583600052602f602052604060002090565b610d708682546123f1565b90556001610d8884600052602f602052604060002090565b01610d948282546123f1565b905560008052602f6020527fc11d2605466dd88923799a61d7f94d6c8cc580bae52b24870f6853eaa13cc4d654151580611035575b610ddc575b601f54604051908152602090f35b1590811580611027575b610e43610e34610dfe6003546001600160a01b031690565b60405190610e2682610e188a602083019190602083019252565b03601f1981018452836121bb565b610e2e613d61565b90616629565b60208082518301019101613d9a565b92999195610e56601e959295548b61241c565b6084351191821561101a575b5081611011575b50610e78575b50505050610dce565b610f7898600395610ee795600090156110085750610ea2610e9c610ea8938561251a565b916124bf565b906122d1565b955b60009015610ffe5750610e9c610ec393610ea29261251a565b935b6002610edb82600052602f602052604060002090565b01610c778582546123f1565b01610ef38382546123f1565b9055610efe836120f7565b906001610f20610f1960016000526030602052604060002090565b5460011690565b148015610ff7575b610fba575b50600460005260306020526001610f637f2f780f5a40ea4901ca784926540b83b7459f13a98fc8f78e5634eb2a01df3af5610f19565b14908115610fb2575b50610f87575b506120f7565b50388080808080808080610e6f565b6004600052602b602052610faa6002600080516020616960833981519152610c89565b905538610f72565b905038610f6c565b6001600052602b602052610fef60027ffcc3d43705633578a5e8f1b6d6f38d08eb8cb891174edcc94b1a54972a1aebbd610c89565b905538610f2d565b5081610f28565b9250505093610ec5565b91505095610eaa565b90501538610e69565b601f541015915038610e62565b61103085613dfa565b610de6565b50821515610dc9565b50336001600160a01b036005541614610d4c565b3461041b57602036600319011261041b5760043561106f816105c3565b6110776163ef565b156104df5761108533616474565b80156110ba575b156104ba576001600160a01b038116156110a95761001690616550565b600460405163055c501b60e51b8152fd5b50336001600160a01b03600554161461108c565b3461041b57600036600319011261041b5760206001600160a01b0360015416604051908152f35b3461041b57600036600319011261041b576020601f54604051908152f35b3461041b57600036600319011261041b576020601a54604051908152f35b3461041b57600036600319011261041b57602061119e6001600160a01b036006541660405161115f81612167565b601381527f67657464656c656761746f72436f756e74282900000000000000000000000000848201526040519161119583612183565b60008352616787565b604051908152f35b3461041b57604036600319011261041b576111c5602435600435615642565b60405190600090825b600783106111db5760e084f35b6001908251815260208091019201920191906111ce565b60c036600319011261041b57600480359061120c826105c3565b604435606435926084359061121f6163ef565b1561180a5761122d33616474565b80156117f6575b156117e65760ff6018541661178e5761124b6125ce565b6103e7600052603060205260016112817f42e4ed8a28bd93bfb836b3bd3996ada35ff866e155b2ce135e767e31acbdb63f610f19565b148061179e575b61178e5761129c61129882616474565b1590565b61177e5760036112e06112db6112d36112bc84546001600160a01b031690565b6112c4612280565b906112cd612298565b90616787565b60a4356122d1565b602955565b6029546112f781600052602a602052604060002090565b5482546001600160a01b03169061131d61130f612280565b6113176122f1565b84616787565b1190811591611734575b506117165761134090600052602a602052604060002090565b805460010190556001831495861561170f5761138861136683546001600160a01b031690565b6040519061138082610e188a602083019190602083019252565b6112cd61239c565b965b6116bc575b50601a54156116a1575b601a546113a5906120e8565b601a556113b06121dd565b94868652602092858488015260a4356040880152606087019660008852601a546113e490600052602c602052604060002090565b906113ee91612429565b60015460405163c85700fb60e01b868201526001600160a01b03909116602480830191909152356044820152606481018790526084810189905260a4803581830152815261143d60c4826121bb565b6114469161684b565b8380825183010191019061145991612471565b6001600160a01b0316808752156116825750859261161961160b61158261157d6115f961158d89610ea261158861156e8f9c7f1517c86fcf2bfb8e3468afcc539b0004955da8027797c497ea51d1f1094ab8989f9d6115508f9e6116589f61153e6115366115439261150b6114d861156198516001600160a01b031690565b866114ef601a54600052602c602052604060002090565b01906001600160a01b03166001600160a01b0319825416179055565b61153061151f86546001600160a01b031690565b611527612280565b906112cd612486565b9061251a565b6015546123f1565b601555565b546001600160a01b031690565b611558612280565b90610e2e61252d565b8051810182019101612566565b9c9491959b929398905061251a565b61251a565b9361251a565b6124d0565b916115c16115a7602d54600052602e602052604060002090565b6115b38360a4356123f1565b600052602052604060002090565b6115cc848254612599565b90556115b3846115f46115eb602d54600052602e602052604060002090565b9360a4356123f1565b6123f1565b6116048282546125b5565b905561251a565b96516001600160a01b031690565b604080513381526001600160a01b039092166020830152810193909352606083019390935260a435608083015260a082019290925290819060c0820190565b0390a161166660a4356120f7565b506116716001601155565b604080519182526020820192909252f35b604051635258db5f60e01b815260029181019182529081906020010390fd5b6116ac60a435601c55565b6116b760a435601d55565b611399565b60195490876116cb83836123f1565b106116f157876116e16116eb936116e6936123f1565b61241c565b601955565b3861138f565b604051635258db5f60e01b8152600581890190815281906020010390fd5b809661138a565b60405163cdab4c8760e01b8152600181880190815281906020010390fd5b905061174f611741612280565b61174961232a565b83616787565b8610908115611760575b5038611327565b611776915061176d612280565b906112cd612363565b851138611759565b8360405163055c501b60e51b8152fd5b836040516334c2d01160e11b8152fd5b506117de610e186117b686546001600160a01b031690565b6117d0601b54604051938491602083019190602083019252565b6117d8612247565b90616702565b311515611288565b8360405163ea8e4eb560e01b8152fd5b50336001600160a01b036005541614611234565b83604051634ee2123760e11b8152fd5b3461041b57600036600319011261041b576020601d54604051908152f35b3461041b57602036600319011261041b576118516164fe565b601c54906004358201809211610a3e57608091611876918181111561189057506151f5565b916040519384526020840152604083015215156060820152f35b90506151f5565b3461041b57602036600319011261041b5760206118be6004356118b9816105c3565b616474565b6040519015158152f35b3461041b57600036600319011261041b576020601b54604051908152f35b3461041b57602036600319011261041b576004356001600160a01b036005541633036104ba576000906004602061193361192785546001600160a01b031690565b6001600160a01b031690565b604051928380927f46f991ac0000000000000000000000000000000000000000000000000000000082525afa8015611a0357838084819493829483916119d5575b505af161197f61659d565b5015610687577fcdcc745fe377b103b45fa0cec23ae3ef93d6fc6a84a01f0d18c40b354dd1d5d86119cf6119be611927600b546001600160a01b031690565b604051938452929081906020820190565b0390a280f35b6119f6915060203d81116119fc575b6119ee81836121bb565b810190612471565b38611974565b503d6119e4565b612d83565b3461041b57600036600319011261041b576020602954604051908152f35b3461041b57602036600319011261041b576020611a4d600435611a48816105c3565b6168fe565b6001600160a01b0360405191168152f35b3461041b57604036600319011261041b57602435611a7b8161088f565b611a836163ef565b156104df57611a9133616474565b8015611ab1575b156104ba5761001690600435611aac6164fe565b6120a4565b50336001600160a01b036005541614611a98565b60208060031936011261041b5760049081359160ff60185416611da357611aea6125ce565b611af26164fe565b90611b146112db611b0e6112bc6003546001600160a01b031690565b846122d1565b611b2a602954600052602a602052604060002090565b546003546001600160a01b031690611b4361130f612280565b03611d85576103e760005260306020526001611b7e7f42e4ed8a28bd93bfb836b3bd3996ada35ff866e155b2ce135e767e31acbdb63f610f19565b1480611d46575b611d2857604051848101868152611bad9290611ba5908390602001610e18565b6112cd612d4a565b3403611d0957600093611bca61192786546001600160a01b031690565b60405191858385817f1b4fc17b00000000000000000000000000000000000000000000000000000000958682525afa908115611a0357611c18611c319288958a91611cec575b5034906165cd565b611c2c611c27346012546123f1565b601255565b601355565b611c3a846120f7565b50611c4f61192787546001600160a01b031690565b926040518094819382525afa908115611a03577f1517c86fcf2bfb8e3468afcc539b0004955da8027797c497ea51d1f1094ab898938592611ccf575b5050604080513381526001600160a01b0392909216602083015260009082015234606082015260808101919091526103e860a082015260c090a16108406001601155565b611ce59250803d106119fc576119ee81836121bb565b3880611c8b565b611d039150863d88116119fc576119ee81836121bb565b38611c10565b60405163cdab4c8760e01b815260099181019182529081906020010390fd5b604051635258db5f60e01b8152600681840190815281906020010390fd5b50601b54604051858101918252611d7d91611d6f9082906020015b03601f1981018352826121bb565b611d77612247565b83616702565b311515611b85565b60405163cdab4c8760e01b8152600581840190815281906020010390fd5b6040516334c2d01160e11b8152fd5b3461041b57600036600319011261041b5760208054604051908152f35b634e487b7160e01b600052603260045260246000fd5b60088110156106ef5760210190600090565b3461041b57602036600319011261041b57600435600881101561041b5760209060210154604051908152f35b3461041b57602036600319011261041b57611e3c615940565b50600435600052602f60205260806040600020600360405191611e5e83612112565b80548352600181015460208401526002810154604084015201546060820152611ea86040518092606080918051845260208101516020850152604081015160408501520151910152565bf35b3461041b57602036600319011261041b57600435611ec78161088f565b611ecf6163ef565b156104df57611edd33616474565b8015611f10575b156104ba5715611efe57611ef96020546120e8565b602055005b6020548015610a3e5760001901602055005b50336001600160a01b036005541614611ee4565b3461041b57602036600319011261041b5760206118be600435611f46816105c3565b6001600160a01b03806006541690604051921684830152838252611f6982612167565b60405190611f7682612167565b601882527f697364656c656761746f724e6f646528616464726573732900000000000000008583015261674b565b3461041b57600036600319011261041b5760206118be6163ef565b3461041b57600036600319011261041b57602061119e6164fe565b634e487b7160e01b600052604160045260246000fd5b80548210156106ef5760005260206000200190600090565b908154916801000000000000000083101561204b578261203091600161204995018155611ff0565b90919082549060031b91821b91600019901b1916179055565b565b611fda565b6103e76000526030602052604060002091825480158061209c575b612096576001911561208b571615612082575b5050565b61204991612008565b811614612082575050565b50505050565b50811561206b565b906000526030602052604060002091825480158061209c57612096576001911561208b571615612082575050565b634e487b7160e01b600052601160045260246000fd5b6000198114610a3e5760010190565b61210f612103826151f5565b94915050839150612050565b90565b6080810190811067ffffffffffffffff82111761204b57604052565b6060810190811067ffffffffffffffff82111761204b57604052565b610120810190811067ffffffffffffffff82111761204b57604052565b6040810190811067ffffffffffffffff82111761204b57604052565b6020810190811067ffffffffffffffff82111761204b57604052565b60e0810190811067ffffffffffffffff82111761204b57604052565b90601f8019910116810190811067ffffffffffffffff82111761204b57604052565b6040519061204982612112565b604051906101e0820182811067ffffffffffffffff82111761204b57604052565b604051906120498261219f565b67ffffffffffffffff811161204b57601f01601f191660200190565b6040519061224182612183565b60008252565b6040519061225482612167565b601882527f676574557365724964546f496e73742875696e743235362900000000000000006020830152565b60405161228c81612183565b60008152906000368137565b604051906122a582612167565b600f82527f6d696e744379636c6544617973282900000000000000000000000000000000006020830152565b81156122db570490565b634e487b7160e01b600052601260045260246000fd5b604051906122fe82612167565b601282527f6d61784d696e74735065724379636c65282900000000000000000000000000006020830152565b6040519061233782612167565b600c82527f6d696e4d696e74517479282900000000000000000000000000000000000000006020830152565b6040519061237082612167565b600c82527f6d61784d696e74517479282900000000000000000000000000000000000000006020830152565b604051906123a982612167565b601982527f636f6d707574654d696e7456616c75652875696e7432353629000000000000006020830152565b6046019081604611610a3e57565b9060018201809211610a3e57565b91908201809211610a3e57565b600019810191908211610a3e57565b600119810191908211610a3e57565b91908203918211610a3e57565b60036001600160a01b036060612049948051855560208101516001860155604081015160028601550151169101906001600160a01b03166001600160a01b0319825416179055565b9081602091031261041b575161210f816105c3565b6040519061249382612167565b600f82527f6d696e74466565506572517479282900000000000000000000000000000000006020830152565b9081606402916064830403610a3e57565b9061271091828102928184041490151715610a3e57565b90601982029180830460191490151715610a3e57565b90670de0b6b3a764000091828102928184041490151715610a3e57565b81810292918115918404141715610a3e57565b6040519061253a82612167565b600682527f706f6f6c282900000000000000000000000000000000000000000000000000006020830152565b908160e091031261041b5780519160208201519160408101519160608201519160808101519160c060a083015192015190565b91909160008382019384129112908015821691151617610a3e57565b81810392916000138015828513169184121617610a3e57565b6002601154146125df576002601155565b60046040517f3ee5aeb5000000000000000000000000000000000000000000000000000000008152fd5b604051906126168261219f565b60e0368337565b6040519061262a82612167565b601082527f65616368636c61696d4379636c652829000000000000000000000000000000006020830152565b6040519061266382612167565b601082527f6d6178436c61696d5065724461792829000000000000000000000000000000006020830152565b6040519061269c82612167565b601082527f6d696e436c61696d5065724461792829000000000000000000000000000000006020830152565b604051906126d582612167565b601682527f6d6178476c6f62616c436c61696d5065724461792829000000000000000000006020830152565b6040519061270e82612167565b601582527f67657477697468647261776e2875696e743235362900000000000000000000006020830152565b9060098110156106ef5760051b0190565b6040519061275882612167565b601d82527f636f6d707574654f7a6f6e65546f446f6c6c61722875696e74323536290000006020830152565b9081602091031261041b575190565b91929092828115612d4257506127a8816120f7565b601c54946127b681876123f1565b831115612d35576127d46127cc603292886123f1565b965b8761241c565b11612d2e576003906127ed82546001600160a01b031690565b61280c6128036127fb612280565b61131761261d565b601d54906123f1565b8410612d155761282a61283091612821612280565b906112cd612656565b96614074565b6001600052602b6020526129886129576129266128f56128c4612893877ffcc3d43705633578a5e8f1b6d6f38d08eb8cb891174edcc94b1a54972a1aebbd01546004600052602b602052886000805160206169608339815191525b0154906123f1565b6002600052602b602052877fbd6c10e6ce287735500a1c033be76c57d5e632addc2ff6eff6bb587b8ee0d95c61288b565b6003600052602b602052867fd3904653c5d0f9b122879aa13f7287465a10522aedd588dbbd607cf6f8b2147f61288b565b6005600052602b602052857f4b5b933abde5416303ae4347d7fcdf5a17e8022e0fefc2b31c7609ebd3c32fe961288b565b6006600052602b602052847f5ac1f6ea00ad8b0f699e3a293cc93d6fdaf7ee608fbc40ffef54db3fb7ebb94361288b565b6007600052602b602052837f455b6dea826802a5b6200d61a7810fccbd36f05c878743e3ac0e0e7aff3a46e861288b565b9161299a81546001600160a01b031690565b6129ad6129a5612280565b61174961268f565b8410801590612d0e575b15612cf5576129d1906129c8612280565b906112cd6126c8565b926129e46004546001600160a01b031690565b97604094612a1c865180612a008a602083019190602083019252565b039b612a14601f199d8e81018452836121bb565b6112cd612701565b1015612cde5760009181811115612cd757612a37925061241c565b91600092600180915b6007831115612b2b5750505096612af592612afa949261204997989960165460e08c0152601754806101008d015281612b21575b50612b09575b612a846000601655565b612a8e6000601755565b60008215612aff575092612ad6612ade93612aca93612ab7612aed97546001600160a01b031690565b9351948591602083019190602083019252565b039081018452836121bb565b610e2e61274b565b60208082518301019101612784565b6014546123f1565b601455565b601d55565b9350505050612aed565b612b1c612b17602d546120e8565b602d55565b612a7a565b9050151538612a74565b90919484612b4387600052602b602052604060002090565b015482612c4257612c3b91612bbc9185612b678a600052602b602052604060002090565b01612b738282546123f1565b9055600088612b8c8b600052602b602052604060002090565b0155612ba18d612b9b8b6123fe565b9061273a565b525b612bb5612baf896123fe565b8d61273a565b51906123f1565b957f1517c86fcf2bfb8e3468afcc539b0004955da8027797c497ea51d1f1094ab89889612bec8d612b9b856123fe565b51612c33612bf9856123d5565b8c5193849333859094939260a0926001600160a01b0360c08401971683526000602084015260006040840152606083015260808201520152565b0390a16120e8565b9190612a40565b9180831115612cb657612c3b91612c89612c5f612bbc938661241c565b809587612c768c600052602b602052604060002090565b01612c828382546123f1565b905561241c565b87612c9e8a600052602b602052604060002090565b0155600093612cb08d612b9b8b6123fe565b52612ba3565b612cc7612c3b9293612bbc9261241c565b926000612cb08d612b9b8b6123fe565b5050612a37565b845163cdab4c8760e01b8152600480820152602490fd5b60405163cdab4c8760e01b8152600a6004820152602490fd5b50826129b7565b60405163cdab4c8760e01b815260026004820152602490fd5b5050915090565b5060326127d483966127ce565b925050915090565b60405190612d5782612167565b601d82527f636f6d70757465446f6c6c6172546f4f7a6f6e652875696e74323536290000006020830152565b6040513d6000823e3d90fd5b60405190612d9c82612167565b601382527f55736572546f496e7374286164647265737329000000000000000000000000006020830152565b60405190612dd582612167565b600b82527f6d696e74436f756e7428290000000000000000000000000000000000000000006020830152565b60405190612e0e82612167565b600e82527f6d696e74732875696e74323536290000000000000000000000000000000000006020830152565b60405190612e4782612167565b600b82527f6d696e74656441676528290000000000000000000000000000000000000000006020830152565b60405190612e8082612167565b600b82527f6d696e74656471747928290000000000000000000000000000000000000000006020830152565b60405190612eb982612167565b600c82527f6964732875696e743235362900000000000000000000000000000000000000006020830152565b60405190612ef282612167565b600982527f6d696e74416d74282900000000000000000000000000000000000000000000006020830152565b60405190612f2b82612167565b600a82527f647261776e6167652829000000000000000000000000000000000000000000006020830152565b60405190612f6482612167565b600c82527f4c53422875696e743235362900000000000000000000000000000000000000006020830152565b60405190612f9d82612167565b600782527f647261776e2829000000000000000000000000000000000000000000000000006020830152565b91908260c091031261041b5781519160208101519160408201519160608101519160a0608083015192015190565b6040519061300482612167565b601382527f67657452657761726473286164647265737329000000000000000000000000006020830152565b919082604091031261041b576020825192015190565b6040519061305382612167565b600782527f626f6e75732829000000000000000000000000000000000000000000000000006020830152565b6040519061308c82612167565b600682527f63616765282900000000000000000000000000000000000000000000000000006020830152565b604051906130c582612167565b601982527f67657445666665637469766552616e6b286164647265737329000000000000006020830152565b604051906130fe82612167565b601f82527f6765746e6f646572616e6b61676528616464726573732c75696e7432353629006020830152565b6040519061313782612167565b601082527f6765744e6f6465286164647265737329000000000000000000000000000000006020830152565b908160a091031261041b57805191602082015161317f816105c3565b91604081015191608060608301516131968161088f565b92015161210f8161088f565b604051906131af82612167565b601a82527f77697468647261776e496e636f6d654f662861646472657373290000000000006020830152565b60185460081c60ff16613d5e5760049060206132026119276000546001600160a01b031690565b604051938480927f447aa3040000000000000000000000000000000000000000000000000000000082525afa918215611a0357600092613d3d575b50613284611d616132766132596001546001600160a01b031690565b604080516001600160a01b03909216602083015290928391820190565b61327e612d8f565b84616702565b906001600160a01b03821615613d195760058111613d00576132af6132a7612280565b611317612dc8565b90601a546132bd81836123f1565b831115613cf8576132cd916123f1565b816137f7575b5080601a54149081156137ee575b506132ea575050565b6133056133006132f8612280565b611317612f1e565b601e55565b601e54601c54811161378c575b5061333e61332f613321612280565b613329612f90565b84616629565b60208082518301019101612fc9565b94600161335c9592959493946001600052602b602052604060002090565b01557fbd6c10e6ce287735500a1c033be76c57d5e632addc2ff6eff6bb587b8ee0d95d557fd3904653c5d0f9b122879aa13f7287465a10522aedd588dbbd607cf6f8b21480557f8bd115fc6ec81ad72d5ca8a8b3bd3d0177f1b615af6ad35644a4e24a7bed08bd557f5ac1f6ea00ad8b0f699e3a293cc93d6fdaf7ee608fbc40ffef54db3fb7ebb944557f455b6dea826802a5b6200d61a7810fccbd36f05c878743e3ac0e0e7aff3a46e95560008052602f6020527fc11d2605466dd88923799a61d7f94d6c8cc580bae52b24870f6853eaa13cc4d7546134409061153e906124e7565b61348761347860405161346a81611d6186602083019190916001600160a01b036020820193169052565b613472612ff7565b85616629565b60208082518301019101613030565b602b6020527ffcc3d43705633578a5e8f1b6d6f38d08eb8cb891174edcc94b1a54972a1aebbd919091556004600052600080516020616960833981519152556134dc6116e66134d4612280565b611317613046565b6134f26133006134ea612280565b61131761307f565b61352f61352a60405161351c81611d6186602083019190916001600160a01b036020820193169052565b6135246130b8565b85616787565b601f55565b60005b600f8111156136975750613574610e1861359a9361356c61358394604051938491602083019190916001600160a01b036020820193169052565b610e2e61312a565b60208082518301019101613163565b935050505060ff8019601854169115151617601855565b600460206135b36119276000546001600160a01b031690565b604051928380927f6325dd040000000000000000000000000000000000000000000000000000000082525afa908115611a035761363191610e1891600091613678575b5061362961360c6001546001600160a01b031690565b604080516001600160a01b03909216602083015290938491820190565b6112cd6131a2565b6005600052602b6020527f4b5b933abde5416303ae4347d7fcdf5a17e8022e0fefc2b31c7609ebd3c32fea55601c54601d555b61204961010061ff00196018541617601855565b613691915060203d6020116119fc576119ee81836121bb565b386135f6565b806136b0916136ff575b601f548111156136b5576120e8565b613532565b604080516001600160a01b03851660208201529081018290526136fa906136f1906136e38160608101611d61565b6136eb6130f1565b87616787565b61203083611de5565b6120e8565b6040517f5329daca0000000000000000000000000000000000000000000000000000000060208201526001600160a01b03841660248201526044810182905261375990613478906137538160648101611d61565b8661684b565b9061376e83600052602f602052604060002090565b55600161378583600052602f602052604060002090565b01556136a1565b601c556137bd611d616137af601e54604051928391602083019190602083019252565b6137b7612f57565b836167c3565b6137e76137d6602d54600052602e602052604060002090565b601c54600052602052604060002090565b5538613312565b905015386132e1565b60008052602f6020527fc11d2605466dd88923799a61d7f94d6c8cc580bae52b24870f6853eaa13cc4d6547fc11d2605466dd88923799a61d7f94d6c8cc580bae52b24870f6853eaa13cc4d7549395909491929091905b601a5484811015613c995761386561386a916120e8565b601a55565b601a549561389860405161388a81611d618b602083019190602083019252565b613892612e01565b8a616702565b906138ac6138a4612280565b611317612e3a565b916138c06138b8612280565b611749612e73565b916138e56040516138dd81611d6160208201906000602083019252565b611317612eac565b906139086139026138f4612280565b6138fc612ee5565b86616787565b936168fe565b9a61391e6119276000546001600160a01b031690565b6040517fcfaa1f6c0000000000000000000000000000000000000000000000000000000081526001600160a01b039d909d1660048e015260208d602481845afa9c8d15611a035760009d613c78575b506001600160a01b038d1615613c06575b5061398b6112988d616474565b6110a957613a6a926139f9866139f38761192796816139b7613a5b98600052602c602052604060002090565b558360016139d1601a54600052602c602052604060002090565b01558b60026139ec601a54600052602c602052604060002090565b01556123f1565b9d6123f1565b9c613a56613a0f6001546001600160a01b031690565b60405163c85700fb60e01b60208201526001600160a01b0390911660248201526044810193909352606483018890526084830187905260a483018990528260c48101610e18565b61684b565b60208082518301019101612471565b6001600160a01b03811615613bed577f1517c86fcf2bfb8e3468afcc539b0004955da8027797c497ea51d1f1094ab89893613b97613bd492613abf600391826114ef601a54600052602c602052604060002090565b611582613b66613b5e61157d6115b3613b0d8a610ea2611588613afe613aef6115508c546001600160a01b031690565b60208082518301019101612566565b9e9491959b929398905061251a565b946115f4613b57602d613b398c6115b388613b338554600052602e602052604060002090565b926123f1565b613b448a8254612599565b905554600052602e602052604060002090565b938a6123f1565b9182546125b5565b90556001601a5414613bdf575b613b89601a54600052602c602052604060002090565b01546001600160a01b031690565b604080513381526001600160a01b03909216602083015281019490945260608401929092526080830191909152600060a0830152819060c0820190565b0390a194939461384e565b613be883601c55565b613b73565b604051635258db5f60e01b815260026004820152602490fd5b6040517fb771c89600000000000000000000000000000000000000000000000000000000815260006004820152919c50602090829060249082905afa908115611a0357600091613c59575b509a3861397e565b613c72915060203d6020116119fc576119ee81836121bb565b38613c51565b613c92919d5060203d6020116119fc576119ee81836121bb565b9b3861396d565b5060008052602f6020527fc11d2605466dd88923799a61d7f94d6c8cc580bae52b24870f6853eaa13cc4d6959095557fc11d2605466dd88923799a61d7f94d6c8cc580bae52b24870f6853eaa13cc4d7939093559391929050386132d3565b5050806132cd565b60405163cdab4c8760e01b815260036004820152602490fd5b505050613d276133006164fe565b613d32601e54601c55565b613664601e54601d55565b613d5791925060203d6020116119fc576119ee81836121bb565b903861323d565b50565b60405190613d6e82612167565b601482527f6c6576656c436c617573652875696e74323536290000000000000000000000006020830152565b908160a091031261041b578051916020820151916040810151916080606083015192015190565b60405190613dce82612167565b601382527f72616e6b436c617573652875696e7432353629000000000000000000000000006020830152565b90601f613e0781546123e3565b925b60088410613e175750509050565b6003546001600160a01b031693604094613e5d613e4f8751602093613e4782610e18888883019190602083019252565b610e2e613dc1565b828082518301019101613d9a565b5050509182158015613efa575b613ee257613e9094959697505410159081613ec0575b5080613eae575b613e98576120e8565b929190613e09565b613ea181601f55565b6136fa8361203083611de5565b508354613eba826123fe565b14613e87565b90506001613ed883600052602f602052604060002090565b0154101538613e80565b8751635258db5f60e01b815260036004820152602490fd5b508115613e6a565b9015613f965790601f613f1581546123e3565b925b60088410613f255750509050565b6003546001600160a01b031693604094613f55613e4f8751602093613e4782610e18888883019190602083019252565b5050509182158015613f8e575b613ee257613f8694959697505410159081613ec0575080613eae57613e98576120e8565b929190613f17565b508115613f62565b506000905b601f548211614070576003546001600160a01b031691604092613fd4613e4f8551602093613e4782610e18888883019190602083019252565b5050509183151580614060575b614049576140049495505410159081614027575b501561400a576136fa81601f55565b90613f9b565b6136fa61401682611de5565b8154906000199060031b1b19169055565b9050600161403f83600052602f602052604060002090565b0154101538613ff5565b8551635258db5f60e01b8152600480820152602490fd5b50821580613fe157508115613fe1565b9050565b612049906143ad6143a8614087836144de565b80516001600052602b60205261439f9061439a906003906140c8827ffcc3d43705633578a5e8f1b6d6f38d08eb8cb891174edcc94b1a54972a1aebbd610c89565b905560608401516004600052602b6020526140f182600080516020616960833981519152610c89565b90556020848101516002600052602b90915261412d827fbd6c10e6ce287735500a1c033be76c57d5e632addc2ff6eff6bb587b8ee0d95c610c89565b90556040840180516003600052602b60205290919061416c827fd3904653c5d0f9b122879aa13f7287465a10522aedd588dbbd607cf6f8b2147f610c89565b905560808501516005600052602b6020526141a7827f4b5b933abde5416303ae4347d7fcdf5a17e8022e0fefc2b31c7609ebd3c32fe9610c89565b905560a08501516006600052602b6020526141e2827f5ac1f6ea00ad8b0f699e3a293cc93d6fdaf7ee608fbc40ffef54db3fb7ebb943610c89565b905560c08501516007600052602b6020529061421e907f455b6dea826802a5b6200d61a7810fccbd36f05c878743e3ac0e0e7aff3a46e8610c89565b905561010084015160026000819052602b60205261425c907fbd6c10e6ce287735500a1c033be76c57d5e632addc2ff6eff6bb587b8ee0d95c610c89565b9055610120840180516003600052602b60205290946101c0916142a060027fd3904653c5d0f9b122879aa13f7287465a10522aedd588dbbd607cf6f8b2147f610c89565b90556101608101516005600052602b6020526142dd60027f4b5b933abde5416303ae4347d7fcdf5a17e8022e0fefc2b31c7609ebd3c32fe9610c89565b90556101808101516006600052602b60205261431a60027f5ac1f6ea00ad8b0f699e3a293cc93d6fdaf7ee608fbc40ffef54db3fb7ebb943610c89565b90556101a08101516007600052602b60205261435760027f455b6dea826802a5b6200d61a7810fccbd36f05c878743e3ac0e0e7aff3a46e8610c89565b9055015161438f61438789614378602d54600052602e602052604060002090565b90600052602052604060002090565b918254612599565b9055516016546123f1565b601655565b516017546123f1565b601755565b601c55565b604051906101e0820182811067ffffffffffffffff82111761204b57604052816101c06000918281528260208201528260408201528260608201528260808201528260a08201528260c08201528260e08201528261010082015282610120820152826101408201528261016082015282610180820152826101a08201520152565b6040519061444082612167565b600a82527f73687574646f776e2829000000000000000000000000000000000000000000006020830152565b6040519061447982612167565b601182527f696e636f6d654f662861646472657373290000000000000000000000000000006020830152565b604051906144b282612167565b601482527f636f6d70757465546f75722875696e74323536290000000000000000000000006020830152565b906144e76143b2565b9160038381546144fd906001600160a01b031690565b92614506614433565b61450e612234565b614518918661674b565b6103e76000526030602052600194857f42e4ed8a28bd93bfb836b3bd3996ada35ff866e155b2ce135e767e31acbdb63f54600116149161455661558f565b606087019081528187526001600052602b6020527ffcc3d43705633578a5e8f1b6d6f38d08eb8cb891174edcc94b1a54972a1aebbd808a01549089015491979295916145a1916123f1565b6001600052602b6020527ffcc3d43705633578a5e8f1b6d6f38d08eb8cb891174edcc94b1a54972a1aebbf54600296916145db91906123f1565b6145e49161241c565b825286516004600052602b602052600080516020616960833981519152808b0154908a0154839286929091614618916123f1565b6004600052602b60205288600080516020616960833981519152015461463d916123f1565b6146469161241c565b89526101c09761465992614b1457614d34565b969399909501526101008d0152602096878d0152600014614ad9575050506146a8610e1861468f6004546001600160a01b031690565b6117d0601b546040519384918983019190602083019252565b3160408901525b6009546001600160a01b03169161470d6146f16146d389546001600160a01b031690565b6040519182918883019190916001600160a01b036020820193169052565b0394614705601f19968781018452836121bb565b6112cd61446c565b6005600052602b602052956147a4614773897f4b5b933abde5416303ae4347d7fcdf5a17e8022e0fefc2b31c7609ebd3c32fe901546005600052602b602052847f4b5b933abde5416303ae4347d7fcdf5a17e8022e0fefc2b31c7609ebd3c32fe961288b565b6005600052602b602052827f4b5b933abde5416303ae4347d7fcdf5a17e8022e0fefc2b31c7609ebd3c32fe961288b565b60808b018181529781811115614acb576147c1915088519061241c565b87526004601f548381101580614a85575b614a4c575b101591826149d4575b50506149a1575b505060016000525060306020528261481e7fc7874712a1c7fb891b421aa6c0d42dbf3cd912d7a18f183783fb32e938cbaa01610f19565b14614985575b60046000526030602052826148587f2f780f5a40ea4901ca784926540b83b7459f13a98fc8f78e5634eb2a01df3af5610f19565b14614969575b5060056000526030602052816148937f9d0b70a39d4b3569f175af8ea51ae318eac80460c467ee4a16ee63ec5720706e610f19565b1461494b575b5060066000526030602052806148ce7fd558ed0e54509c62efb2aedb46e6ad1b04c7bdca351e3613e136c946b91686d8610f19565b1461492b575b600760005260306020526149077f4ebb69666752feecd656ebf5f8cd3c2f1c70bb06a0c3d3744be479e4a580c233610f19565b1461490e57565b600060c0830180516149266101a086019182516123f1565b905252565b600060a08401805161494361018087019182516123f1565b9052526148d4565b806000915161496061016087019182516123f1565b90525238614899565b6000905161497d61014087019182516123f1565b50523861485e565b845161499660e087019182516123f1565b905260008552614824565b6149bf612aca926149c7946040519485918201906004602083019252565b6112cd6144a5565b60c08601523880806147e7565b6007600052602b6020527f455b6dea826802a5b6200d61a7810fccbd36f05c878743e3ac0e0e7aff3a46e8808a0154614a449450614a1392909161288b565b6007600052602b602052907f455b6dea826802a5b6200d61a7810fccbd36f05c878743e3ac0e0e7aff3a46e861288b565b1538806147e0565b614a7b604051614a7381614a678b8201906002602083019252565b038981018352826121bb565b6136eb6144a5565b60a08d01526147d7565b506006600052602b6020527f5ac1f6ea00ad8b0f699e3a293cc93d6fdaf7ee608fbc40ffef54db3fb7ebb943808b0154614ac5916129269190879061288b565b156147d2565b614ad49161241c565b6147c1565b15614b04575050614af8610e1861468f6004546001600160a01b031690565b316101208901526146af565b60408a01526101208901526146af565b8451614b2560e087019182516123f1565b9052600085528951614b3d61014087019182516123f1565b905260008a52614d34565b604051906040820182811067ffffffffffffffff82111761204b5760405260006020838281520152565b60405190614b7f8261212e565b81614b88614b48565b8152614b92614b48565b60208201526040614ba1614b48565b910152565b60405190614bb382612167565b601882527f6765744261746368526f79616c7479436c6175736573282900000000000000006020830152565b6102a090818184031261041b5782601f8201121561041b576040805193614c058561219f565b849383019281841161041b57935b838510614c2257505050505090565b60608583031261041b578251606091614c3a8261212e565b8651825260209182880151838201528588015186820152815201940193614c13565b60405190614c6982612167565b601f82527f676574526f79616c697479416d6f756e7442617463682875696e7432353629006020830152565b9060e08282031261041b5780601f8301121561041b5760405191614cb88361219f565b829060e0810192831161041b57905b828210614cd45750505090565b8151815260209182019101614cc7565b9060078110156106ef5760051b0190565b8181029291600082127f8000000000000000000000000000000000000000000000000000000000000000821416610a3e578184051490151715610a3e57565b91600092600092600092600092600092614d4c614b72565b614d5583615033565b602083015190602082015252614d6a836150d7565b604083015190602082015252614db3614da4614d8e6003546001600160a01b031690565b614d96614ba6565b614d9e612234565b91616629565b60208082518301019101614bdf565b92601c5492614dca6004546001600160a01b031690565b93601f54905b838110614de05750505050505050565b614e1c614e0d604051614dff81611d6186602083019190602083019252565b614e07614c5c565b89616629565b60208082518301019101614c95565b6001905b83821115614f3f5750508215614e3f575b614e3a906120e8565b614dd0565b614e64614e5c82614378602d54600052602e602052604060002090565b54809c612599565b9a614e6f828661241c565b9060009160408801518051888110614ee9575b5050808311614ee1575b82614e969161241c565b9180614ecb575b5081614eab575b5050614e31565b9a614ebd614ec392614e3a949d614cf5565b90612599565b999038614ea4565b9a614ebd829c614eda93614cf5565b9938614e9d565b915081614e8c565b80861115614f365750602085915b01614f0281516123e3565b891015614f275750875b81811115614e8257614f1f92945061241c565b913880614e82565b614f3190516123e3565b614f0c565b60209091614ef7565b909c614f53614f4d8f6123fe565b8a614ce4565b5151158015614fd3575b614fc957602087015180518410159081614fba575b5015614f9e57614f92614f98918f614f8c612bb5916123fe565b85614ce4565b9d6120e8565b90614e20565b9c9d614fb48f91612bb5614f8c614f98946123fe565b9e6120e8565b60209150015183111538614f72565b9c614f98906120e8565b508d614feb614fe182611de5565b90549060031b1c90565b8410159081614ffc575b5015614f5d565b61502a9150604061502161501b615015614fe185611de5565b936123fe565b8d614ce4565b510151906123f1565b8311158e614ff5565b6002600090815260306020527f89a47dfbb363dd4e64da56b4585033c9abd8a425d24b94630469c44bee7189c280549193929082156150cf57600183166150b5575050614fe190600284526030602052615097604061509d8187206150978561240d565b90611ff0565b90549060031b1c9560028152603060205220916123fe565b9093506150976150c4926123fe565b90549060031b1c9190565b509250508190565b6003600081815260306020527f11a30d68d5ffd3a101d3683e9a6997d49d9351e95dc004c6a4e652b897626df780549194939082156151705760018316615158575050615150908285526030602052615097604061513a8188206150978561240d565b905490861b1c96858152603060205220916123fe565b9054911b1c90565b909450615097615167926123fe565b9054911b1c9190565b50935050508190565b6040519061518682612167565b600982527f63617070696e67282900000000000000000000000000000000000000000000006020830152565b91908260c091031261041b5781519160208101519160408201516151d58161088f565b9160608101516151e48161088f565b9160a060808301516131968161088f565b90615274906152056000936144de565b61523461522561521d6003546001600160a01b031690565b614d96615179565b602080825183010191016151b2565b60008052602f60205292979395949293909261157d7fc11d2605466dd88923799a61d7f94d6c8cc580bae52b24870f6853eaa13cc4d654601254906123f1565b9661527d61558f565b50506154d8575b61541a575b61535c575b6152c5575b506152aa6152af9161157d601554601354906123f1565b6124fd565b9082841180156152bc5790565b50816014541190565b6153546152af929561534e61532e61530e6152ee8661014060606152aa990151910151906123f1565b6004600052602b602052600160008051602061696083398151915261288b565b6004600052602b602052600260008051602061696083398151915261288b565b6004600052602b602052600360008051602061696083398151915261288b565b906123f1565b949150615293565b946154149061534e6153e26153b061537e6040870151610120880151906123f1565b6003600052602b60205260017fd3904653c5d0f9b122879aa13f7287465a10522aedd588dbbd607cf6f8b2147f61288b565b6003600052602b60205260027fd3904653c5d0f9b122879aa13f7287465a10522aedd588dbbd607cf6f8b2147f61288b565b60036000819052602b6020527fd3904653c5d0f9b122879aa13f7287465a10522aedd588dbbd607cf6f8b2147f61288b565b9461528e565b956154d29061534e6154a061546e61543c6020880151610100890151906123f1565b6002600052602b60205260017fbd6c10e6ce287735500a1c033be76c57d5e632addc2ff6eff6bb587b8ee0d95c61288b565b60026000819052602b6020527fbd6c10e6ce287735500a1c033be76c57d5e632addc2ff6eff6bb587b8ee0d95c61288b565b6002600052602b60205260037fbd6c10e6ce287735500a1c033be76c57d5e632addc2ff6eff6bb587b8ee0d95c61288b565b95615289565b96506155896155576155256154f3865160e0880151906123f1565b60016000819052602b6020527ffcc3d43705633578a5e8f1b6d6f38d08eb8cb891174edcc94b1a54972a1aebbd61288b565b6001600052602b60205260027ffcc3d43705633578a5e8f1b6d6f38d08eb8cb891174edcc94b1a54972a1aebbd61288b565b6001600052602b60205260037ffcc3d43705633578a5e8f1b6d6f38d08eb8cb891174edcc94b1a54972a1aebbd61288b565b96615284565b600090816001815b600f8211156155fc5750506001600052602b6020527ffcc3d43705633578a5e8f1b6d6f38d08eb8cb891174edcc94b1a54972a1aebbd548101809111610a3e576004600052602b6020529161210f9060008051602061696083398151915254906123f1565b9093848252602f92602093808552604090600282862001548301809311610a3e576003929588865252832001548101809111610a3e5761563c90946120e8565b90615597565b91909161564d612609565b92600180831461581857506002808314615818575060038083146158185750600482146157ad576005821461576c576156ac906156886164fe565b90601c5461569682826123f1565b831115615765576156a792506123f1565b6144de565b9060068114615716576007146156bf5750565b9091506101a06156cd61220b565b9160e08101518352610100810151602084015261012081015160408401526101408101516060840152610160810151608084015261018081015160a0840152015160c082015290565b5090915060c061572461220b565b91805183526020810151602084015260408101516040840152606081015160608401526080810151608084015260a081015160a0840152015160c082015290565b50506144de565b5050905061577861220b565b601254815260135460208201526015546040820152601454606082015260006080820152600060a0820152600060c082015290565b505090506157b961220b565b601654815260175460208201526157db6001600052602b602052604060002090565b5460408201526004600052602b60205260008051602061696083398151915254606082015260006080820152600060a0820152600060c082015290565b929350505061582561220b565b7ffcc3d43705633578a5e8f1b6d6f38d08eb8cb891174edcc94b1a54972a1aebbd82015481527fbd6c10e6ce287735500a1c033be76c57d5e632addc2ff6eff6bb587b8ee0d95c8201546020808301919091527fd3904653c5d0f9b122879aa13f7287465a10522aedd588dbbd607cf6f8b2147f830154604083015260008051602061696083398151915283015460608301527f4b5b933abde5416303ae4347d7fcdf5a17e8022e0fefc2b31c7609ebd3c32fe983015460808301527f5ac1f6ea00ad8b0f699e3a293cc93d6fdaf7ee608fbc40ffef54db3fb7ebb94383015460a08301526007600052602b90527f455b6dea826802a5b6200d61a7810fccbd36f05c878743e3ac0e0e7aff3a46e89091015460c082015290565b6040519061594d82612112565b60006060838281528260208201528260408201520152565b9060405161597281612112565b6060600382948054845260018101546020850152600281015460408501520154910152565b67ffffffffffffffff811161204b5760051b60200190565b906159b982615997565b6159c660405191826121bb565b82815280926159d7601f1991615997565b019060005b8281106159e857505050565b6020906159f3615940565b828285010152016159dc565b80518210156106ef5760209160051b010190565b615cf86101c061204992615a4d615a3182516001600160a01b031690565b6001600160a01b03166001600160a01b03196002541617600255565b615a80615a6460208301516001600160a01b031690565b6001600160a01b03166001600160a01b03196003541617600355565b615ab3615a9760408301516001600160a01b031690565b6001600160a01b03166001600160a01b03196004541617600455565b615ae6615aca60608301516001600160a01b031690565b6001600160a01b03166001600160a01b03196005541617600555565b615b19615afd60808301516001600160a01b031690565b6001600160a01b03166001600160a01b03196006541617600655565b615b4c615b3060a08301516001600160a01b031690565b6001600160a01b03166001600160a01b03196007541617600755565b615b7f615b6360c08301516001600160a01b031690565b6001600160a01b03166001600160a01b03196008541617600855565b615bb2615b9660e08301516001600160a01b031690565b6001600160a01b03166001600160a01b03196009541617600955565b615be6615bca6101008301516001600160a01b031690565b6001600160a01b03166001600160a01b0319600a541617600a55565b615c1a615bfe6101208301516001600160a01b031690565b6001600160a01b03166001600160a01b0319600b541617600b55565b615c4e615c326101408301516001600160a01b031690565b6001600160a01b03166001600160a01b0319600c541617600c55565b615c82615c666101608301516001600160a01b031690565b6001600160a01b03166001600160a01b0319600d541617600d55565b615cb6615c9a6101808301516001600160a01b031690565b6001600160a01b03166001600160a01b0319600e541617600e55565b615cea615cce6101a08301516001600160a01b031690565b6001600160a01b03166001600160a01b0319600f541617600f55565b01516001600160a01b031690565b6001600160a01b03166001600160a01b03196010541617601055565b615d296119276000546001600160a01b031690565b604051907f97f3815a000000000000000000000000000000000000000000000000000000008252602082600481845afa918215611a03576000926163b9575b50604051917fcfbffe53000000000000000000000000000000000000000000000000000000008352602083600481855afa928315611a0357600093616398575b50604051907fab6e844f000000000000000000000000000000000000000000000000000000008252602082600481865afa918215611a0357600092616377575b50604051917f14d8d024000000000000000000000000000000000000000000000000000000008352602083600481875afa928315611a0357600093616356575b50604051927fd1f956b1000000000000000000000000000000000000000000000000000000008452602084600481885afa938415611a0357600094616335575b50604051937fe61dfd58000000000000000000000000000000000000000000000000000000008552602085600481895afa948515611a0357600095616314575b506040517fe09d394d0000000000000000000000000000000000000000000000000000000081526020816004818a5afa908115611a03576000916162f5575b506040517f52b06d640000000000000000000000000000000000000000000000000000000081526020816004818b5afa908115611a03576000916162d6575b506040517f013cf08b00000000000000000000000000000000000000000000000000000000815260006004820152916020836024818c5afa928315611a03576000936162b5575b50604051977f5e09dbe70000000000000000000000000000000000000000000000000000000089526020896004818d5afa948515611a0357600499600096616294575b5060208b6040519b8c80927faa0ddc160000000000000000000000000000000000000000000000000000000082525afa968715611a035760049a600098616273575b5060208c6040519c8d80927f640274270000000000000000000000000000000000000000000000000000000082525afa988915611a035760049b60009a616252575b5060208d6040519d8e80927f30125cf50000000000000000000000000000000000000000000000000000000082525afa9a8b15611a03578d60049d60009d616230575b506020906040519e8f80927f24768d910000000000000000000000000000000000000000000000000000000082525afa9c8d15611a035760009d61620f575b50604051809e81907f9dc969a80000000000000000000000000000000000000000000000000000000082525a92600491602094fa9d8e15611a035760009e6161ee575b506161026121ea565b6001600160a01b0390911681529d8e906001600160a01b031660208201526040019061613691906001600160a01b03169052565b6001600160a01b031660608d01526001600160a01b031660808c01526001600160a01b031660a08b01526001600160a01b031660c08a01526001600160a01b031660e08901526001600160a01b03166101008801526001600160a01b03166101208701526001600160a01b03166101408601526001600160a01b03166101608501526001600160a01b03166101808401526001600160a01b03166101a08301526001600160a01b03166101c082015261204990615a13565b616208919e5060203d6020116119fc576119ee81836121bb565b9c386160f9565b616229919d5060203d6020116119fc576119ee81836121bb565b9b386160b6565b6020919d5061624b90823d84116119fc576119ee81836121bb565b9c90616077565b61626c919a5060203d6020116119fc576119ee81836121bb565b9838616034565b61628d91985060203d6020116119fc576119ee81836121bb565b9638615ff2565b6162ae91965060203d6020116119fc576119ee81836121bb565b9438615fb0565b6162cf91935060203d6020116119fc576119ee81836121bb565b9138615f6d565b6162ef915060203d6020116119fc576119ee81836121bb565b38615f26565b61630e915060203d6020116119fc576119ee81836121bb565b38615ee7565b61632e91955060203d6020116119fc576119ee81836121bb565b9338615ea8565b61634f91945060203d6020116119fc576119ee81836121bb565b9238615e68565b61637091935060203d6020116119fc576119ee81836121bb565b9138615e28565b61639191925060203d6020116119fc576119ee81836121bb565b9038615de8565b6163b291935060203d6020116119fc576119ee81836121bb565b9138615da8565b6163d391925060203d6020116119fc576119ee81836121bb565b9038615d68565b9081602091031261041b575161210f8161088f565b61644a6001600160a01b036002541660405161640a81612167565b600881527f697353616665282900000000000000000000000000000000000000000000000060208201526040519161644183612183565b60008352616654565b9080616469575b15610687578060208061210f935183010191016163da565b506020815114616451565b6164d76001600160a01b03806002541660405191602094168483015283825261649c82612167565b604051906164a982612167565b601582527f697353656375726542617365286164647265737329000000000000000000000085830152616654565b90806164f4575b15610687578161210f92825183010191016163da565b50818151146164de565b61210f6001600160a01b036003541660405161651981612167565b600681527f694167652829000000000000000000000000000000000000000000000000000060208201526040519161119583612183565b6001600160a01b0380911690811561084357600154826001600160a01b0319821617600155167f8292fce18fa69edf4db7b94ea2e58241df0ae57f97e0a6c9b29067028bf92d76600080a3565b3d156165c8573d906165ae82612218565b916165bc60405193846121bb565b82523d6000602084013e565b606090565b90801561207e576001600160a01b03821691821561084357600080808481945af16165f661659d565b50156106875760207fcec1f18c3ab8ddaaa107a1591e3c369667eec613626611a8deaedef43069fcdd91604051908152a2565b906166349291616654565b9060009015616641575090565b604051915061664f82612183565b815290565b9190823b156166e9577fffffffff00000000000000000000000000000000000000000000000000000000815160208093012016916040519180830193845281519160005b8381106166d55750505091816166c5602482600097959688970187838201520360048101845201826121bb565b51915afa6166d161659d565b9091565b818101830151858201602401528201616698565b5050506000906040516166fb81612183565b6000815290565b929161671091600094616654565b9080616740575b61671e5750565b6001600160a01b039192508060208061673c93518301019101612471565b1690565b506020815114616717565b929161675991600094616654565b908061677c575b6167675750565b61210f919250602080825183010191016163da565b506020815114616760565b929161679591600094616654565b90806167b8575b6167a35750565b61210f91925060208082518301019101612784565b50602081511461679c565b92916167d191600094616654565b90806167f6575b6167df5750565b90915060208180518101031261041b576020015190565b5060208151146167d8565b90602082519201517fffffffff0000000000000000000000000000000000000000000000000000000090818116936004811061683c57505050565b60040360031b82901b16169150565b6001600160a01b0381161561084357600080918351908260208601915af19061687261659d565b911561687c575090565b8051600091906004116168f8576168939150616801565b8151156168a35750805190602001fd5b6040517f21c09d340000000000000000000000000000000000000000000000000000000081527fffffffff00000000000000000000000000000000000000000000000000000000919091166004820152602490fd5b50616893565b803b600061690b82612218565b9261691960405194856121bb565b82845260208401903c602d81511061693557602a015160601c90565b60046040517fbaf3f0f7000000000000000000000000000000000000000000000000000000008152fdfe8bd115fc6ec81ad72d5ca8a8b3bd3d0177f1b615af6ad35644a4e24a7bed08bca264697066735822122070d2e08cac92f9eff9d7382fb9538c95a1338feb078eb32a06f99d3d3d8d27a364736f6c63430008140033","linkReferences":{}},"methodIdentifiers":{"instanceStor()":"131c73ad"},"id":78}