{"abi":[{"type":"constructor","inputs":[{"name":"_hex","type":"address","internalType":"address"}],"stateMutability":"nonpayable"},{"type":"function","name":"instanceStor","inputs":[],"outputs":[{"name":"","type":"address","internalType":"address"}],"stateMutability":"view"}],"bytecode":{"object":"0x6080346100c5576001600160401b0390601f61712038819003918201601f1916830191848311848410176100af578084926020946040528339810103126100c557516001600160a01b039190828116908190036100c55760405191616fc790818401908111848210176100af576020928492610159843981520301906000f080156100a3571660018060a01b03196000541617600055604051608e90816100cb8239f35b6040513d6000823e3d90fd5b634e487b7160e01b600052604160045260246000fd5b600080fdfe6080806040526004361015601257600080fd5b600090813560e01c63131c73ad14602857600080fd5b346054578160031936011260545773ffffffffffffffffffffffffffffffffffffffff60209254168152f35b5080fdfea26469706673582212205a26da9fc7c1ccc7d1a1c23730ad9ce19592568dbc1d0f2c09c89196302fa7de64736f6c63430008140033608034620000b757601f62006fc738819003918201601f19168301916001600160401b03831184841017620000bc57808492602094604052833981010312620000b757516001600160a01b03811690819003620000b7578015620000a55760018060a01b0319903382600154161760015560009182541617815560016011558060125580601355806014558060155580601655601755604051616ef49081620000d38239f35b60405163e6c4247b60e01b8152600490fd5b600080fd5b634e487b7160e01b600052604160045260246000fdfe60806040526004361015610018575b361561001657005b005b60003560e01c806302a085f214610348578063043719b41461034357806309d8da2e1461033e5780630b98f9751461033957806312065fe014610334578063129641201461032f578063141ca6601461032a578063143ec3b7146103255780631f185d161461032057806329ee350e1461031b578063339459a61461031657806339b4d61b146103115780633b9b79551461030c57806343a1b5ab146103075780634a65786c1461030257806352902c59146102fd5780635640dbfc146102f85780635ecf6a8a146102f3578063619d5194146102ee5780636350b2c2146102e9578063654c668e146102e457806369245009146102df5780636de97c66146102da5780636f493aad146102d557806370878d04146102d0578063725b6fff146102cb578063759f22bd146102c657806375b4d78c146102c15780637b058ac1146102bc578063822ffec4146102b7578063880cdc31146102b25780638da5cb5b146102ad578063934209ce146102a85780639659867e146102a3578063a1f7f5391461029e578063a5d7cda414610299578063a663030414610294578063a9bf285b1461028f578063af4845261461028a578063af640d0f14610285578063b90306ad14610280578063bab2f5521461027b578063c54e44b014610276578063c8ef7b1a14610271578063d2a159041461026c578063d3a1a49914610267578063da02133514610262578063deb1ba1e1461025d578063e01ad5fd14610258578063e0a9bc2b146102535763fdc10bc90361000e57611fa9565b611f8e565b611f0e565b611e94565b611e0d565b611de1565b611d9c565b611d35565b611cfd565b611cdf565b611bde565b611bc0565b611b8f565b611b71565b611585565b6111b9565b611144565b611126565b611108565b6110e1565b611065565b610e28565b610cf7565b610cd9565b610c23565b610b9f565b610b83565b610b49565b610ab7565b610a5e565b610a09565b6109b2565b61094a565b610927565b6108cc565b6107e1565b6107bb565b61079d565b610776565b61074a565b610731565b6106f8565b610611565b6105d4565b610578565b61052c565b610510565b61049f565b61047c565b610440565b61037c565b610120810192916000915b6009831061036557505050565b600190825181526020809101920192019190610358565b60408060031936011261043b5780519061039582612017565b61012036833760ff6018541661042b576103ad61692e565b1561041b576103bb336169b3565b8015610407575b156103f7576103e36103f3926103d66127d2565b6024359060043590612997565b906001601155519182918261034d565b0390f35b6004905163ea8e4eb560e01b8152fd5b50336001600160a01b0360055416146103c2565b60049051634ee2123760e11b8152fd5b600490516334c2d01160e11b8152fd5b600080fd5b3461043b57604036600319011261043b576004356000526030602052602061046e60243560406000206122ee565b90546040519160031b1c8152f35b3461043b57600036600319011261043b57602060ff601854166040519015158152f35b3461043b57602036600319011261043b576104b861692e565b156104ff576104c6336169b3565b80156104eb575b156104da57600435601955005b600460405163ea8e4eb560e01b8152fd5b50336001600160a01b0360055416146104cd565b6004604051634ee2123760e11b8152fd5b3461043b57600036600319011261043b57602047604051908152f35b3461043b57604036600319011261043b5761054b602435600435615af1565b60405190600090825b600783106105615760e084f35b600190825181526020809101920192019190610554565b602036600319011261043b5761058c61692e565b156104ff5761059a336169b3565b80156105c0575b156104da576105ae6127d2565b6105b96004356134c9565b6001601155005b50336001600160a01b0360055416146105a1565b3461043b57602036600319011261043b5760043560005260306020526020604060002054604051908152f35b6001600160a01b0381160361043b57565b3461043b5760208060031936011261043b5761069060043561063281610600565b6001600160a01b0380600254169060405192168483015283825261065582612034565b6040519061066282612034565b601182527f69735369676e657228616464726573732900000000000000000000000000000085830152616b93565b9190806106ee575b156106c45781816106b2926103f394518301019101616919565b60405190151581529081906020820190565b60046040517f3204506f000000000000000000000000000000000000000000000000000000008152fd5b5080825114610698565b3461043b57600036600319011261043b57601f54600881101561072c57602181015460408051928352602083019190915290f35b611db9565b3461043b57600036600319011261043b57610016616253565b3461043b57602036600319011261043b57600435600052602a6020526020604060002054604051908152f35b3461043b57600036600319011261043b5760206001600160a01b0360005416604051908152f35b3461043b57600036600319011261043b576020602d54604051908152f35b3461043b57600036600319011261043b57602060ff60185460081c166040519015158152f35b3461043b57606036600319011261043b576004356107fe81610600565b60243561080a81610600565b6001600160a01b038092169081158080156108c2575b6108aa5761088057610872916000938454826001600160a01b03198216178655167fe939feee179e631422bcc8f6e6d7d908cb3f8af38f5372f17c77e15aea5c80ee8580a361086d612189565b616a8f565b61087d604435601b55565b80f35b60046040517fe6c4247b000000000000000000000000000000000000000000000000000000008152fd5b6024604051635258db5f60e01b815260016004820152fd5b5083821615610820565b3461043b57600036600319011261043b5760c060315460ff60325460335490604051938452602084015281811615156040840152818160081c1615156060840152818160101c161515608084015260181c16151560a0820152f35b3461043b57600036600319011261043b57610016612189565b8015150361043b57565b3461043b57602036600319011261043b5760043561096781610940565b61096f61692e565b156104ff5761097d336169b3565b801561099e575b156104da5760ff8019601854169115151617601855600080f35b50336001600160a01b036005541614610984565b3461043b57602036600319011261043b57600435600052602c602052608060406000208054906001810154906001600160a01b03600360028301549201541691604051938452602084015260408301526060820152f35b3461043b57604036600319011261043b57610a2261692e565b156104ff57610a30336169b3565b8015610a4a575b156104da57600435601455602435601355005b50336001600160a01b036005541614610a37565b3461043b57600036600319011261043b576020601e54604051908152f35b6020908160408183019282815285518094520193019160005b828110610aa3575050505090565b835185529381019392810192600101610a95565b3461043b57600036600319011261043b57601f546001810190818111610b4457610ae082615ed6565b91610aee6040519384612088565b808352610afd601f1991615ed6565b0136602084013760005b81811115610b1d57604051806103f38582610a7c565b600881101561072c5780610b3f9160210154610b398286615f3e565b526123df565b610b07565b6123c9565b3461043b57604036600319011261043b57600435600052602e60205260406000206024356000526020526020604060002054604051908152f35b3461043b57602036600319011261043b57610016600435612417565b3461043b57600036600319011261043b576020601c54604051908152f35b6020908160408183019282815285518094520193019160005b828110610be4575050505090565b9091929382608082610c176001948951606080918051845260208101516020850152604081015160408501520151910152565b01950193929101610bd6565b3461043b57604036600319011261043b57600435602435808211610cc157818103908111610b445760018101809111610b4457610c5f81615eee565b9160005b828110610c7857604051806103f38682610bbd565b80610ca1610c9c610c8c610cbc948661240a565b600052602f602052604060002090565b615ea4565b610cab8287615f3e565b52610cb68186615f3e565b506123df565b610c63565b6024604051635258db5f60e01b8152600d6004820152fd5b3461043b57600036600319011261043b576020601954604051908152f35b3461043b5760a036600319011261043b57604435602435600435608435610d1d81610940565b610d2561692e565b156104ff57610d33336169b3565b8015610e14575b156104da5760009260009480610d5b575b6040805186815260208101889052f35b9091929350601f549483600014610dcc57506001610dab82610dbf96610d99610d91610db496600052602f602052604060002090565b91825461240a565b9055600052602f602052604060002090565b0191825461240a565b90555b6064356141a6565b601f549038808080610d4b565b808260409252602f60205220938454908103908111610b4457610e04610e0d92600192610dbf9755600052602f602052604060002090565b0191825461260a565b9055610db7565b50336001600160a01b036005541614610d3a565b3461043b5760c036600319011261043b5760643560a435602435600435604435610e5184610940565b610e5961692e565b156104ff57610e67336169b3565b8015611051575b156104da57610e8781600052602f602052604060002090565b610e9283825461240a565b90556001610eaa82600052602f602052604060002090565b01610eb684825461240a565b905560008052602f6020527fc11d2605466dd88923799a61d7f94d6c8cc580bae52b24870f6853eaa13cc4d654151580611048575b610efe575b601f54604051908152602090f35b610f7b9215948515928361103a575b610f6a610f5b610f256003546001600160a01b031690565b60405190610f4d82610f3f89602083019190602083019252565b03601f198101845283612088565b610f55614005565b90616b68565b6020808251830101910161403e565b9493929991989095601e549061260a565b6084351191821561102d575b5081611024575b50610f9c575b505050610ef0565b61100296600396610dab966000901561101b5750610fc6610fc0610fcc938561271e565b916126ad565b906124e8565b975b600090156110115750610fc0610fe793610fc69261271e565b945b610d996002610dab84600052602f602052604060002090565b90553880808080808080610f94565b9250505094610fe9565b91505097610fce565b90501538610f8e565b601f541015915038610f87565b6110438261409e565b610f0d565b50801515610eeb565b50336001600160a01b036005541614610e6e565b3461043b57602036600319011261043b5760043561108281610600565b61108a61692e565b156104ff57611098336169b3565b80156110cd575b156104da576001600160a01b038116156110bc5761001690616a8f565b600460405163055c501b60e51b8152fd5b50336001600160a01b03600554161461109f565b3461043b57600036600319011261043b5760206001600160a01b0360015416604051908152f35b3461043b57600036600319011261043b576020601f54604051908152f35b3461043b57600036600319011261043b576020601a54604051908152f35b3461043b57600036600319011261043b5760206111b16001600160a01b036006541660405161117281612034565b601381527f67657464656c656761746f72436f756e7428290000000000000000000000000084820152604051916111a883612050565b60008352616cc6565b604051908152f35b60408060031936011261043b5760185460048035926024359260ff16611578576111e16127d2565b6111e9616a3d565b83601c546111f7828261240a565b83111561157057611208925061240a565b925b61124761124261123c6112256003546001600160a01b031690565b61122d612497565b906112366124af565b90616cc6565b866124e8565b602955565b61125d602954600052602a602052604060002090565b54946112716003546001600160a01b031690565b9561128b61127d612497565b611285612508565b89616cc6565b03611553576103e7600052603060205260016112c97f42e4ed8a28bd93bfb836b3bd3996ada35ff866e155b2ce135e767e31acbdb63f5b5460011690565b148061151e575b61150157825160208082018390529690611309906112fb81604081015b03601f198101835282612088565b611303612f92565b83616cc6565b34036114e45761138f929161133d61132f61138a93611326612497565b90610f55612fcb565b898082518301019101613004565b946001600160a01b03928316949193921690801515806114db575b6114bf575b505050801515806114b6575b61148e575b5050506113856113803460125461240a565b601255565b601355565b612417565b50836113b26113a66000546001600160a01b031690565b6001600160a01b031690565b8251938480927f1b4fc17b0000000000000000000000000000000000000000000000000000000082525afa918215611489577f1517c86fcf2bfb8e3468afcc539b0004955da8027797c497ea51d1f1094ab89894600093611454575b5050513381526001600160a01b0390911660208201526000604082015234606082015260808101919091526103e860a08201528060c081015b0390a16100166001601155565b611447929350908161147a92903d10611482575b6114728183612088565b81019061265f565b91903861140e565b503d611468565b613044565b6114ae92610fc66114a26114a8933461271e565b916126be565b90616b0c565b38808061136e565b50811515611369565b6114d392610fc66114a26114a8933461271e565b38808061135d565b50811515611358565b835163cdab4c8760e01b8152600981870190815281906020010390fd5b8251635258db5f60e01b8152600681860190815281906020010390fd5b50601b548351602081019190915261154b9061153d81604081016112ed565b61154561245e565b88616c41565b3115156112d0565b825163cdab4c8760e01b8152600581860190815281906020010390fd5b50509261120a565b516334c2d01160e11b8152fd5b60c036600319011261043b576004803561159e81610600565b6064359060443560a4356084356115b361692e565b15611b61576115c1336169b3565b8015611b4d575b15611b3d5760ff60185416611ae5576115df6127d2565b6103e7600052603060205260016116157f42e4ed8a28bd93bfb836b3bd3996ada35ff866e155b2ce135e767e31acbdb63f6112c2565b1480611af5575b611ae55761163061162c856169b3565b1590565b611ad55760039361165761124261165161122588546001600160a01b031690565b856124e8565b60295461166e81600052602a602052604060002090565b5486546001600160a01b031690611694611686612497565b61168e612508565b84616cc6565b1190811591611a91575b50611a73576116b790600052602a602052604060002090565b8054600101905560018214958615611a6c576116ff6116dd87546001600160a01b031690565b604051906116f782610f3f8a602083019190602083019252565b6112366125b3565b965b611a19575b50601a5415611a02575b601a5461171c906123df565b601a556117276120aa565b948686526020918583880152846040880152606087019660008852601a5461175990600052602c602052604060002090565b9061176391612617565b60015460405163c85700fb60e01b858201526001600160a01b03909116602480830191909152356044820152606481018790526084810189905260a480820187905281526117b260c482612088565b6117bb91616d8a565b828082518301019101906117ce9161265f565b6001600160a01b0316808752156119e45786975061197b6118f66118f16119696119018a9b610fc66118fc6118e26119c69b9a7f1517c86fcf2bfb8e3468afcc539b0004955da8027797c497ea51d1f1094ab8989f8f6119899c6118b76118b26118aa6118c49461187f61184c6118d598516001600160a01b031690565b86611863601a54600052602c602052604060002090565b01906001600160a01b03166001600160a01b0319825416179055565b6118a461189386546001600160a01b031690565b61189b612497565b90611236612674565b9061271e565b60155461240a565b601555565b546001600160a01b031690565b6118cc612497565b90610f55612731565b805181018201910161276a565b9c9491959b929398905061271e565b61271e565b9361271e565b6126d4565b9161193361191b602d54600052602e602052604060002090565b611925838c61240a565b600052602052604060002090565b61193e84825461279d565b90556119258461196461195d602d54600052602e602052604060002090565b938c61240a565b61240a565b6119748282546127b9565b905561271e565b96516001600160a01b031690565b604080513381526001600160a01b03909216602083015281019490945260608401879052608084019290925260a0830191909152819060c0820190565b0390a16119d36001601155565b604080519182526020820192909252f35b604051635258db5f60e01b81526002818a0190815281906020010390fd5b611a0b83601c55565b611a1483601d55565b611710565b6019549087611a28838361240a565b10611a4e5787611a3e611a4893611a439361240a565b61260a565b601955565b38611706565b604051635258db5f60e01b81526005818b0190815281906020010390fd5b8096611701565b60405163cdab4c8760e01b81526001818a0190815281906020010390fd5b9050611aa6611a9e612497565b611303612541565b8610908115611ab7575b503861169e565b611acd9150611ac4612497565b9061123661257a565b851138611ab0565b8560405163055c501b60e51b8152fd5b856040516334c2d01160e11b8152fd5b50611b35610f3f611b0d88546001600160a01b031690565b611b27601b54604051938491602083019190602083019252565b611b2f61245e565b90616c41565b31151561161c565b8560405163ea8e4eb560e01b8152fd5b50336001600160a01b0360055416146115c8565b85604051634ee2123760e11b8152fd5b3461043b57600036600319011261043b576020601d54604051908152f35b3461043b57602036600319011261043b576020611bb6600435611bb181610600565b6169b3565b6040519015158152f35b3461043b57600036600319011261043b576020601b54604051908152f35b3461043b57602036600319011261043b576004356001600160a01b036005541633036104da5760009060046020611c1f6113a685546001600160a01b031690565b604051928380927f46f991ac0000000000000000000000000000000000000000000000000000000082525afa80156114895783808481949382948391611cc1575b505af1611c6b616adc565b50156106c4577fcdcc745fe377b103b45fa0cec23ae3ef93d6fc6a84a01f0d18c40b354dd1d5d8611cbb611caa6113a6600b546001600160a01b031690565b604051938452929081906020820190565b0390a280f35b611cd9915060203d8111611482576114728183612088565b38611c60565b3461043b57600036600319011261043b576020602954604051908152f35b3461043b57602036600319011261043b576020611d24600435611d1f81610600565b616e3d565b6001600160a01b0360405191168152f35b3461043b57604036600319011261043b57602435611d5281610940565b611d5a61692e565b156104ff57611d68336169b3565b8015611d88575b156104da5761001690600435611d83616a3d565b61239b565b50336001600160a01b036005541614611d6f565b3461043b57600036600319011261043b5760208054604051908152f35b634e487b7160e01b600052603260045260246000fd5b600881101561072c5760210190600090565b3461043b57602036600319011261043b57600435600881101561043b5760209060210154604051908152f35b3461043b57602036600319011261043b57611e26615e7f565b50600435600052602f60205260806040600020600360405191611e4883611fda565b80548352600181015460208401526002810154604084015201546060820152611e926040518092606080918051845260208101516020850152604081015160408501520151910152565bf35b3461043b57602036600319011261043b57600435611eb181610940565b611eb961692e565b156104ff57611ec7336169b3565b8015611efa575b156104da5715611ee857611ee36020546123df565b602055005b6020548015610b445760001901602055005b50336001600160a01b036005541614611ece565b3461043b57602036600319011261043b576020611bb6600435611f3081610600565b6001600160a01b03806006541690604051921684830152838252611f5382612034565b60405190611f6082612034565b601882527f697364656c656761746f724e6f6465286164647265737329000000000000000085830152616c8a565b3461043b57600036600319011261043b576020611bb661692e565b3461043b57600036600319011261043b5760206111b1616a3d565b634e487b7160e01b600052604160045260246000fd5b6080810190811067ffffffffffffffff821117611ff657604052565b611fc4565b6060810190811067ffffffffffffffff821117611ff657604052565b610120810190811067ffffffffffffffff821117611ff657604052565b6040810190811067ffffffffffffffff821117611ff657604052565b6020810190811067ffffffffffffffff821117611ff657604052565b60e0810190811067ffffffffffffffff821117611ff657604052565b90601f8019910116810190811067ffffffffffffffff821117611ff657604052565b604051906120b782611fda565b565b604051906102c0820182811067ffffffffffffffff821117611ff657604052565b604051906101e0820182811067ffffffffffffffff821117611ff657604052565b604051906120b78261206c565b67ffffffffffffffff8111611ff657601f01601f191660200190565b6040519061213182612050565b60008252565b91908260c091031261043b57815191602081015191604082015161215a81610940565b91606081015161216981610940565b9160a0608083015161217a81610940565b92015161218681610940565b90565b612191616253565b6121ed6001600160a01b0360035416604051906121ad82612050565b60008252604051906121be82612034565b600982527f63617070696e67282900000000000000000000000000000000000000000000006020830152616b68565b8051156122905761227461228b61225b612286612240612219866020806120b799518301019101612137565b9994999792959091939763ff00000060335491151560181b169063ff000000191617603355565b62ff000060335491151560101b169062ff0000191617603355565b61ff0060335491151560081b169061ff00191617603355565b60ff8019603354169115151617603355565b603255565b603155565b60646040517f08c379a000000000000000000000000000000000000000000000000000000000815260206004820152601460248201527f43617070696e67206665746368206661696c65640000000000000000000000006044820152fd5b805482101561072c5760005260206000200190600090565b9081549168010000000000000000831015611ff6578261232e9160016120b7950181556122ee565b90919082549060031b91821b91600019901b1916179055565b6103e760005260306020526040600020918254801580612393575b61238d5760019115612382571615612379575b5050565b6120b791612306565b811614612379575050565b50505050565b508115612362565b90600052603060205260406000209182548015806123935761238d5760019115612382571615612379575050565b634e487b7160e01b600052601160045260246000fd5b6000198114610b445760010190565b6046019081604611610b4457565b9060018201809211610b4457565b91908201809211610b4457565b61241f616a3d565b601c54918201809211610b44578181111561245757505b6124516102a0612445836147f4565b01918251151590612347565b51151590565b9050612436565b6040519061246b82612034565b601882527f676574557365724964546f496e73742875696e743235362900000000000000006020830152565b6040516124a381612050565b60008152906000368137565b604051906124bc82612034565b600f82527f6d696e744379636c6544617973282900000000000000000000000000000000006020830152565b81156124f2570490565b634e487b7160e01b600052601260045260246000fd5b6040519061251582612034565b601282527f6d61784d696e74735065724379636c65282900000000000000000000000000006020830152565b6040519061254e82612034565b600c82527f6d696e4d696e74517479282900000000000000000000000000000000000000006020830152565b6040519061258782612034565b600c82527f6d61784d696e74517479282900000000000000000000000000000000000000006020830152565b604051906125c082612034565b601982527f636f6d707574654d696e7456616c75652875696e7432353629000000000000006020830152565b600019810191908211610b4457565b600119810191908211610b4457565b91908203918211610b4457565b60036001600160a01b0360606120b7948051855560208101516001860155604081015160028601550151169101906001600160a01b03166001600160a01b0319825416179055565b9081602091031261043b575161218681610600565b6040519061268182612034565b600f82527f6d696e74466565506572517479282900000000000000000000000000000000006020830152565b9081606402916064830403610b4457565b90606482029180830460641490151715610b4457565b9061271091828102928184041490151715610b4457565b90601982029180830460191490151715610b4457565b90670de0b6b3a764000091828102928184041490151715610b4457565b81810292918115918404141715610b4457565b6040519061273e82612034565b600682527f706f6f6c282900000000000000000000000000000000000000000000000000006020830152565b908160e091031261043b5780519160208201519160408101519160608201519160808101519160c060a083015192015190565b91909160008382019384129112908015821691151617610b4457565b81810392916000138015828513169184121617610b4457565b6002601154146127e3576002601155565b60046040517f3ee5aeb5000000000000000000000000000000000000000000000000000000008152fd5b6040519061281a8261206c565b60e0368337565b6040519061282e82612034565b601082527f65616368636c61696d4379636c652829000000000000000000000000000000006020830152565b6040519061286782612034565b601082527f6d6178436c61696d5065724461792829000000000000000000000000000000006020830152565b604051906128a082612034565b601082527f6d696e436c61696d5065724461792829000000000000000000000000000000006020830152565b604051906128d982612034565b601682527f6d6178476c6f62616c436c61696d5065724461792829000000000000000000006020830152565b6040519061291282612034565b601582527f67657477697468647261776e2875696e743235362900000000000000000000006020830152565b90600981101561072c5760051b0190565b6040519061295c82612034565b601d82527f636f6d707574654f7a6f6e65546f446f6c6c61722875696e74323536290000006020830152565b9081602091031261043b575190565b9291838115612f8c5750601c54916129af818461240a565b821115612f7f576129cd6129c56032928561240a565b935b8461260a565b1161237557600380546001600160a01b03166129fe6129f56129ed612497565b61168e612821565b601d549061240a565b8310612f6657612a1c612a2291612a13612497565b9061123661285a565b93614318565b6001600052602b60205292612b7b612b4a612b19612ae8612ab7612a86877ffcc3d43705633578a5e8f1b6d6f38d08eb8cb891174edcc94b1a54972a1aebbd01546004600052602b60205288600080516020616e9f8339815191525b01549061240a565b6002600052602b602052877fbd6c10e6ce287735500a1c033be76c57d5e632addc2ff6eff6bb587b8ee0d95c612a7e565b6003600052602b602052867fd3904653c5d0f9b122879aa13f7287465a10522aedd588dbbd607cf6f8b2147f612a7e565b6005600052602b602052857f4b5b933abde5416303ae4347d7fcdf5a17e8022e0fefc2b31c7609ebd3c32fe9612a7e565b6006600052602b602052847f5ac1f6ea00ad8b0f699e3a293cc93d6fdaf7ee608fbc40ffef54db3fb7ebb943612a7e565b6007600052602b602052837f455b6dea826802a5b6200d61a7810fccbd36f05c878743e3ac0e0e7aff3a46e8612a7e565b91612b8d81546001600160a01b031690565b612ba0612b98612497565b611303612893565b8410801590612f5f575b15612f4657612bc490612bbb612497565b906112366128cc565b92612bd76004546001600160a01b031690565b92604094612c0f865180612bf38a602083019190602083019252565b0396612c07601f1998898101845283612088565b611236612905565b1015612f2f5760009181811115612f2857612c2a925061260a565b9087600092600190815b6007811115612d2b575050505092612cf192612cec926120b797969560165460e08c0152876101008c601754918291015281612d21575b50612d09575b612c7b6000601655565b612c856000601755565b60008215612cff575092612ccd612cd593612cc193612cae612ce497546001600160a01b031690565b9351948591602083019190602083019252565b03908101845283612088565b610f5561294f565b60208082518301019101612988565b60145461240a565b601455565b612cfa81601d55565b612347565b9350505050612ce4565b612d1c612d17602d546123df565b602d55565b612c71565b9050151538612c6b565b8885612d458398959698600052602b602052604060002090565b015483612e4b5790612df3612de3612e4295967f1517c86fcf2bfb8e3468afcc539b0004955da8027797c497ea51d1f1094ab8989489612d8f88600052602b602052604060002090565b01612d9b82825461240a565b905560008b612db489600052602b602052604060002090565b0155612dc8612dc2886125ec565b8d61293e565b525b612ddc612dd6876125ec565b8c61293e565b519061240a565b98612ded856125ec565b9061293e565b51612e3a612e00856123ee565b8c5193849333859094939260a0926001600160a01b0360c08401971683526000602084015260006040840152606083015260808201520152565b0390a16123df565b908a9291612c34565b9280841115612ee45790612df3612de38596612eb8612e8e7f1517c86fcf2bfb8e3468afcc539b0004955da8027797c497ea51d1f1094ab89896612e429961260a565b80998b612ea58a600052602b602052604060002090565b01612eb183825461240a565b905561260a565b8a612ecd88600052602b602052604060002090565b0155600097612ede612dc2886125ec565b52612dca565b90612df3612de3612f19612e42967f1517c86fcf2bfb8e3468afcc539b0004955da8027797c497ea51d1f1094ab8989561260a565b966000612ede612dc2886125ec565b5050612c2a565b845163cdab4c8760e01b8152600480820152602490fd5b60405163cdab4c8760e01b8152600a6004820152602490fd5b5085612baa565b60405163cdab4c8760e01b815260026004820152602490fd5b5060326129cd82936129c7565b93505050565b60405190612f9f82612034565b601d82527f636f6d70757465446f6c6c6172546f4f7a6f6e652875696e74323536290000006020830152565b60405190612fd882612034565b600a82527f6275726e636e66672829000000000000000000000000000000000000000000006020830152565b91908260c091031261043b57815161301b81610600565b91602081015191604082015191606081015161303681610600565b9160a0608083015192015190565b6040513d6000823e3d90fd5b6040519061305d82612034565b601382527f55736572546f496e7374286164647265737329000000000000000000000000006020830152565b6040519061309682612034565b600b82527f6d696e74436f756e7428290000000000000000000000000000000000000000006020830152565b604051906130cf82612034565b600e82527f6d696e74732875696e74323536290000000000000000000000000000000000006020830152565b6040519061310882612034565b600b82527f6d696e74656441676528290000000000000000000000000000000000000000006020830152565b6040519061314182612034565b600b82527f6d696e74656471747928290000000000000000000000000000000000000000006020830152565b6040519061317a82612034565b600c82527f6964732875696e743235362900000000000000000000000000000000000000006020830152565b604051906131b382612034565b600982527f6d696e74416d74282900000000000000000000000000000000000000000000006020830152565b604051906131ec82612034565b600a82527f647261776e6167652829000000000000000000000000000000000000000000006020830152565b6040519061322582612034565b600c82527f4c53422875696e743235362900000000000000000000000000000000000000006020830152565b6040519061325e82612034565b600782527f647261776e2829000000000000000000000000000000000000000000000000006020830152565b91908260c091031261043b5781519160208101519160408201519160608101519160a0608083015192015190565b604051906132c582612034565b601382527f67657452657761726473286164647265737329000000000000000000000000006020830152565b919082604091031261043b576020825192015190565b6040519061331482612034565b600782527f626f6e75732829000000000000000000000000000000000000000000000000006020830152565b6040519061334d82612034565b600682527f63616765282900000000000000000000000000000000000000000000000000006020830152565b6040519061338682612034565b601982527f67657445666665637469766552616e6b286164647265737329000000000000006020830152565b604051906133bf82612034565b601682527f6765744e6f64654c766c44657074682875696e737429000000000000000000006020830152565b604051906133f882612034565b601e82527f6765746e6f6465526e6b41676528616464726573732c75696e743235362900006020830152565b6040519061343182612034565b601082527f6765744e6f6465286164647265737329000000000000000000000000000000006020830152565b908160a091031261043b57805191602082015161347981610600565b916040810151916080606083015161217a81610940565b6040519061349d82612034565b601a82527f77697468647261776e496e636f6d654f662861646472657373290000000000006020830152565b60185460081c60ff166140025760049060206134f06113a66000546001600160a01b031690565b604051938480927f447aa3040000000000000000000000000000000000000000000000000000000082525afa91821561148957600092613fe1575b506135726112ed6135646135476001546001600160a01b031690565b604080516001600160a01b03909216602083015290928391820190565b61356c613050565b84616c41565b906001600160a01b03821615613fbd5760058111613fa45761359d613595612497565b61168e613089565b90601a546135ab818361240a565b831115613f9c576135bb9161240a565b81613b10575b5080601a5414908115613b07575b506135d8575050565b6135f36135ee6135e6612497565b61168e6131df565b601e55565b601e54601c548111613aa5575b5061362c61361d61360f612497565b613617613251565b84616b68565b6020808251830101910161328a565b94600161364a9592959493946001600052602b602052604060002090565b01557fbd6c10e6ce287735500a1c033be76c57d5e632addc2ff6eff6bb587b8ee0d95d557fd3904653c5d0f9b122879aa13f7287465a10522aedd588dbbd607cf6f8b21480557f8bd115fc6ec81ad72d5ca8a8b3bd3d0177f1b615af6ad35644a4e24a7bed08bd557f5ac1f6ea00ad8b0f699e3a293cc93d6fdaf7ee608fbc40ffef54db3fb7ebb944557f455b6dea826802a5b6200d61a7810fccbd36f05c878743e3ac0e0e7aff3a46e95560008052602f6020527fc11d2605466dd88923799a61d7f94d6c8cc580bae52b24870f6853eaa13cc4d75461372e906118b2906126eb565b613775613766604051613758816112ed86602083019190916001600160a01b036020820193169052565b6137606132b8565b85616b68565b602080825183010191016132f1565b602b6020527ffcc3d43705633578a5e8f1b6d6f38d08eb8cb891174edcc94b1a54972a1aebbd919091556004600052600080516020616e9f833981519152556137ca611a436137c2612497565b61168e613307565b6137e06135ee6137d8612497565b61168e613340565b61381d61381860405161380a816112ed86602083019190916001600160a01b036020820193169052565b613812613379565b85616cc6565b601f55565b604080516001600160a01b03831660208201526138499161384190829081016112ed565b61168e6133b2565b60005b8181106139b057505061388d610f3f6138b39361388561389c94604051938491602083019190916001600160a01b036020820193169052565b610f55613424565b6020808251830101910161345d565b935050505060ff8019601854169115151617601855565b600460206138cc6113a66000546001600160a01b031690565b604051928380927f6325dd040000000000000000000000000000000000000000000000000000000082525afa9081156114895761394a91610f3f91600091613991575b506139426139256001546001600160a01b031690565b604080516001600160a01b03909216602083015290938491820190565b611236613490565b6005600052602b6020527f4b5b933abde5416303ae4347d7fcdf5a17e8022e0fefc2b31c7609ebd3c32fea55601c54601d555b6120b761010061ff00196018541617601855565b6139aa915060203d602011611482576114728183612088565b3861390f565b806139c991613a18575b601f548111156139ce576123df565b61384c565b604080516001600160a01b0386166020820152908101829052613a1390613a0a906139fc81606081016112ed565b613a046133eb565b88616cc6565b61232e83611dcf565b6123df565b6040517f5329daca0000000000000000000000000000000000000000000000000000000060208201526001600160a01b038516602482015260448101829052613a729061376690613a6c81606481016112ed565b87616d8a565b90613a8783600052602f602052604060002090565b556001613a9e83600052602f602052604060002090565b01556139ba565b601c55613ad66112ed613ac8601e54604051928391602083019190602083019252565b613ad0613218565b83616d02565b613b00613aef602d54600052602e602052604060002090565b601c54600052602052604060002090565b5538613600565b905015386135cf565b60008052602f6020527fc11d2605466dd88923799a61d7f94d6c8cc580bae52b24870f6853eaa13cc4d6547fc11d2605466dd88923799a61d7f94d6c8cc580bae52b24870f6853eaa13cc4d7549395909491929091905b601a5484811015613f3d57613b7e613b83916123df565b601a55565b601a5495613bb1604051613ba3816112ed8b602083019190602083019252565b613bab6130c2565b8a616c41565b90613bc5613bbd612497565b61168e6130fb565b91613bd9613bd1612497565b611303613134565b91613bfe604051613bf6816112ed60208201906000602083019252565b61168e61316d565b90613c21613c1b613c0d612497565b613c156131a6565b86616cc6565b93616e3d565b9a6020613c81613c3c6113a66000546001600160a01b031690565b6040519e8f809381927fcfaa1f6c000000000000000000000000000000000000000000000000000000008352600483019190916001600160a01b036020820193169052565b03915afa9b8c156114895760009c613f1c575b50613ca161162c8d6169b3565b6110bc57613d8092613d0f86613d09876113a69681613ccd613d7198600052602c602052604060002090565b55836001613ce7601a54600052602c602052604060002090565b01558b6002613d02601a54600052602c602052604060002090565b015561240a565b9d61240a565b9c613d6c613d256001546001600160a01b031690565b60405163c85700fb60e01b60208201526001600160a01b0390911660248201526044810193909352606483018890526084830187905260a483018990528260c48101610f3f565b616d8a565b6020808251830101910161265f565b6001600160a01b03811615613f03577f1517c86fcf2bfb8e3468afcc539b0004955da8027797c497ea51d1f1094ab89893613ead613eea92613dd560039182611863601a54600052602c602052604060002090565b6118f6613e7c613e746118f1611925613e238a610fc66118fc613e14613e056118c48c546001600160a01b031690565b6020808251830101910161276a565b9e9491959b929398905061271e565b94611964613e6d602d613e4f8c61192588613e498554600052602e602052604060002090565b9261240a565b613e5a8a825461279d565b905554600052602e602052604060002090565b938a61240a565b9182546127b9565b90556001601a5414613ef5575b613e9f601a54600052602c602052604060002090565b01546001600160a01b031690565b604080513381526001600160a01b03909216602083015281019490945260608401929092526080830191909152600060a0830152819060c0820190565b0390a1949394613b67565b613efe83601c55565b613e89565b604051635258db5f60e01b815260026004820152602490fd5b613f36919c5060203d602011611482576114728183612088565b9a38613c94565b5060008052602f6020527fc11d2605466dd88923799a61d7f94d6c8cc580bae52b24870f6853eaa13cc4d6959095557fc11d2605466dd88923799a61d7f94d6c8cc580bae52b24870f6853eaa13cc4d7939093559391929050386135c1565b5050806135bb565b60405163cdab4c8760e01b815260036004820152602490fd5b505050613fcb6135ee616a3d565b613fd6601e54601c55565b61397d601e54601d55565b613ffb91925060203d602011611482576114728183612088565b903861352b565b50565b6040519061401282612034565b601482527f6c6576656c436c617573652875696e74323536290000000000000000000000006020830152565b908160a091031261043b578051916020820151916040810151916080606083015192015190565b6040519061407282612034565b601382527f72616e6b436c617573652875696e7432353629000000000000000000000000006020830152565b90601f6140ab81546123fc565b925b600884106140bb5750509050565b6003546001600160a01b0316936040946141016140f387516020936140eb82610f3f888883019190602083019252565b610f55614065565b82808251830101910161403e565b505050918215801561419e575b6141865761413494959697505410159081614164575b5080614152575b61413c576123df565b9291906140ad565b61414581601f55565b613a138361232e83611dcf565b50835461415e826125ec565b1461412b565b9050600161417c83600052602f602052604060002090565b0154101538614124565b8751635258db5f60e01b815260036004820152602490fd5b50811561410e565b901561423a5790601f6141b981546123fc565b925b600884106141c95750509050565b6003546001600160a01b0316936040946141f96140f387516020936140eb82610f3f888883019190602083019252565b5050509182158015614232575b6141865761422a949596975054101590816141645750806141525761413c576123df565b9291906141bb565b508115614206565b506000905b601f548211614314576003546001600160a01b0316916040926142786140f385516020936140eb82610f3f888883019190602083019252565b5050509183151580614304575b6142ed576142a894955054101590816142cb575b50156142ae57613a1381601f55565b9061423f565b613a136142ba82611dcf565b8154906000199060031b1b19169055565b905060016142e383600052602f602052604060002090565b0154101538614299565b8551635258db5f60e01b8152600480820152602490fd5b5082158061428557508115614285565b9050565b6102a0612186916146a761432b826147f4565b916146a261469d845160039061435082610dab6001600052602b602052604060002090565b905560608601516004600052602b60205261437982600080516020616e9f833981519152610dab565b90556020868101516002600052602b9091526143b5827fbd6c10e6ce287735500a1c033be76c57d5e632addc2ff6eff6bb587b8ee0d95c610dab565b90556040860180516003600052602b6020529091906143f4827fd3904653c5d0f9b122879aa13f7287465a10522aedd588dbbd607cf6f8b2147f610dab565b905560808701516005600052602b60205261442f827f4b5b933abde5416303ae4347d7fcdf5a17e8022e0fefc2b31c7609ebd3c32fe9610dab565b905560a08701516006600052602b60205261446a827f5ac1f6ea00ad8b0f699e3a293cc93d6fdaf7ee608fbc40ffef54db3fb7ebb943610dab565b905560c08701516007600052602b602052906144a6907f455b6dea826802a5b6200d61a7810fccbd36f05c878743e3ac0e0e7aff3a46e8610dab565b905560e08601516001600052602b6020526002916146949161468f91906144ed857ffcc3d43705633578a5e8f1b6d6f38d08eb8cb891174edcc94b1a54972a1aebbd610dab565b90556101408901516004600052602b60205261451785600080516020616e9f833981519152610dab565b90556101008901516002600052602b602052614553857fbd6c10e6ce287735500a1c033be76c57d5e632addc2ff6eff6bb587b8ee0d95c610dab565b9055610120890180516003600052602b602052909490614593827fd3904653c5d0f9b122879aa13f7287465a10522aedd588dbbd607cf6f8b2147f610dab565b90556101608a01516005600052602b6020526145cf827f4b5b933abde5416303ae4347d7fcdf5a17e8022e0fefc2b31c7609ebd3c32fe9610dab565b90556101808a01516006600052602b60205261460b827f5ac1f6ea00ad8b0f699e3a293cc93d6fdaf7ee608fbc40ffef54db3fb7ebb943610dab565b90556101a08a01516007600052602b60205290614648907f455b6dea826802a5b6200d61a7810fccbd36f05c878743e3ac0e0e7aff3a46e8610dab565b90556101c089015161468461467c8961466d602d54600052602e602052604060002090565b90600052602052604060002090565b91825461279d565b90555160165461240a565b601655565b5160175461240a565b601755565b601c55565b0151151590565b6146b66120b9565b9060008083528060208401528060408401528060608401528060808401528060a08401528060c08401528060e08401528061010084015280610120840152806101408401528061016084015280610180840152806101a0840152806101c0840152806101e084015280610200840152806102208401528061024084015280610260840152806102808401526102a0830152565b6040519061475682612034565b600a82527f73687574646f776e2829000000000000000000000000000000000000000000006020830152565b6040519061478f82612034565b601182527f696e636f6d654f662861646472657373290000000000000000000000000000006020830152565b604051906147c882612034565b601482527f636f6d70757465546f75722875696e74323536290000000000000000000000006020830152565b906147fd6146ae565b9160039061481282546001600160a01b031690565b9161482d61481e614749565b614826612124565b9085616c8a565b6103e76000526030602052614840615a3e565b6060889392930152818752614941816001956148e06148a18861486e6001600052602b602052604060002090565b01546001600052602b602052887ffcc3d43705633578a5e8f1b6d6f38d08eb8cb891174edcc94b1a54972a1aebbd612a7e565b6001600052602b602052600296906148da90887ffcc3d43705633578a5e8f1b6d6f38d08eb8cb891174edcc94b1a54972a1aebbd612a7e565b9061260a565b8a5260608a01516004600052602b602052600080516020616e9f8339815191528089015461493792916148da91614918918b90612a7e565b6004600052602b60205288600080516020616e9f833981519152612a7e565b60608b0152615186565b94929093916101c08c01526101008b015260208a0152600014614f8a575050614978610f3f611b0d6004546001600160a01b031690565b3160408701525b6149b3610f3f6149976009546001600160a01b031690565b6149ab61392587546001600160a01b031690565b611236614782565b6005600052602b60205291614a4a614a19857f4b5b933abde5416303ae4347d7fcdf5a17e8022e0fefc2b31c7609ebd3c32fe901546005600052602b602052847f4b5b933abde5416303ae4347d7fcdf5a17e8022e0fefc2b31c7609ebd3c32fe9612a7e565b6005600052602b602052827f4b5b933abde5416303ae4347d7fcdf5a17e8022e0fefc2b31c7609ebd3c32fe9612a7e565b608088018181529381811115614f7c57614a67915084519061260a565b83526004601f548381101580614f36575b614f08575b10159182614e90575b5050614e62575b6005600052603060205281614ac17f9d0b70a39d4b3569f175af8ea51ae318eac80460c467ee4a16ee63ec5720706e6112c2565b14614e44575b506006600052603060205280614afc7fd558ed0e54509c62efb2aedb46e6ad1b04c7bdca351e3613e136c946b91686d86112c2565b14614e24575b60076000526030602052614b357f4ebb69666752feecd656ebf5f8cd3c2f1c70bb06a0c3d3744be479e4a580c2336112c2565b14614e04575b614bb5614ba5614b6d614b62614b57875160208901519061240a565b60408801519061240a565b60608701519061240a565b614b9f614b93614b8760e08901516101008a01519061240a565b6101208901519061240a565b6101408801519061240a565b906156b6565b15156102a08b0152929591929091565b61028089015261024088015261022087015261026086019283526102008601526101e08501526102a0840151614be9575050565b614c01610f3f611b0d6004546001600160a01b031690565b316040850152519061022084015161024085015110614dcd575b50825181614d8b57614c319060e085015161240a565b60e0840152600083525b602083015181614d4157614c549061010085015161240a565b610100840152600060208401525b604083015181614cf757614c7b9061012085015161240a565b610120840152600060408401525b60608301519080614cb35750614ca49061014084015161240a565b61014083015260006060830152565b614cdf614cd461400293808411600014614cf057805b81606089015261260a565b61014086015161240a565b61014085015260608401519061260a565b8390614cc9565b90614d24614d19614d3593808411600014614d3a57805b81604089015261260a565b61012086015161240a565b61012085015260408401519061260a565b614c89565b8390614d0e565b90614d6e614d63614d7f93808411600014614d8457805b81602089015261260a565b61010086015161240a565b61010085015260208401519061260a565b614c62565b8390614d58565b90614db4614daa614dc193808411600014614dc657805b81885261260a565b60e086015161240a565b60e085015283519061260a565b614c3b565b8390614da2565b614dfe9150610f3f612cd591614df6610280870151604051938491602083019190602083019252565b610f55612f92565b38614c1b565b600060c084018051614e1c6101a0870191825161240a565b905252614b3b565b600060a085018051614e3c610180880191825161240a565b905252614b02565b8060009151614e59610160880191825161240a565b90525238614ac7565b614e86604051614e7e816112ed60208201906004602083019252565b6138126147bb565b60c0860152614a8d565b6007600052602b6020527f455b6dea826802a5b6200d61a7810fccbd36f05c878743e3ac0e0e7aff3a46e880860154614f009450614ecf929091612a7e565b6007600052602b602052907f455b6dea826802a5b6200d61a7810fccbd36f05c878743e3ac0e0e7aff3a46e8612a7e565b153880614a86565b614f2c604051614f24816112ed60208201906002602083019252565b6112856147bb565b60a08a0152614a7d565b506006600052602b6020527f5ac1f6ea00ad8b0f699e3a293cc93d6fdaf7ee608fbc40ffef54db3fb7ebb94380870154614f7691612b1991908790612a7e565b15614a78565b614f859161260a565b614a67565b604088015261012087015261497f565b604051906040820182811067ffffffffffffffff821117611ff65760405260006020838281520152565b60405190614fd182611ffb565b81614fda614f9a565b8152614fe4614f9a565b60208201526040614ff3614f9a565b910152565b6040519061500582612034565b601882527f6765744261746368526f79616c7479436c6175736573282900000000000000006020830152565b6102a090818184031261043b5782601f8201121561043b5760408051936150578561206c565b849383019281841161043b57935b83851061507457505050505090565b60608583031261043b57825160609161508c82611ffb565b8651825260209182880151838201528588015186820152815201940193615065565b604051906150bb82612034565b601f82527f676574526f79616c697479416d6f756e7442617463682875696e7432353629006020830152565b9060e08282031261043b5780601f8301121561043b576040519161510a8361206c565b829060e0810192831161043b57905b8282106151265750505090565b8151815260209182019101615119565b90600781101561072c5760051b0190565b8181029291600082127f8000000000000000000000000000000000000000000000000000000000000000821416610b44578184051490151715610b4457565b9160009260009260009260009260009261519e614fc4565b6151a7836154c2565b8251906020820152526151b983615589565b6020830151906020820152526151ce83615614565b6040830151906020820152526152176152086151f26003546001600160a01b031690565b6151fa614ff8565b615202612124565b91616b68565b60208082518301019101615031565b92601c549261522e6004546001600160a01b031690565b93601f54905b8381106152445750505050505050565b615280615271604051615263816112ed86602083019190602083019252565b61526b6150ae565b89616b68565b602080825183010191016150e7565b6001905b838211156153a357505082156152a3575b61529e906123df565b615234565b6152c86152c08261466d602d54600052602e602052604060002090565b54809c61279d565b9a6152d3828661260a565b906000916040880151805188811061534d575b5050808311615345575b826152fa9161260a565b918061532f575b508161530f575b5050615295565b9a6153216153279261529e949d615147565b9061279d565b999038615308565b9a615321829c61533e93615147565b9938615301565b9150816152f0565b8086111561539a5750602085915b0161536681516123fc565b89101561538b5750875b818111156152e65761538392945061260a565b9138806152e6565b61539590516123fc565b615370565b6020909161535b565b909c6153b76153b18f6125ec565b8a615136565b5151158015615462575b61545857865180518410159081615449575b508015615422575b15615406576153fa615400918f6153f4612ddc916125ec565b85615136565b9d6123df565b90615284565b9c9d61541c8f91612ddc6153f4615400946125ec565b9e6123df565b5060208701518051841015908161543a575b506153db565b60209150015183111538615434565b602091500151831115386153d3565b9c615400906123df565b508d61547a61547082611dcf565b90549060031b1c90565b841015908161548b575b50156153c1565b6154b9915060406154b06154aa6154a461547085611dcf565b936125ec565b8d615136565b5101519061240a565b8311158e615484565b6103e7600081905260306020527f42e4ed8a28bd93bfb836b3bd3996ada35ff866e155b2ce135e767e31acbdb63f80549392908415615581576001851661556657505060005260306020526154706155276040600020615521856125fb565b906122ee565b90546103e7600052603060205260039190911b1c926155217f42e4ed8a28bd93bfb836b3bd3996ada35ff866e155b2ce135e767e31acbdb63f916125ec565b90936155769250615521906125ec565b90549060031b1c9190565b509250508190565b6002600090815260306020527f89a47dfbb363dd4e64da56b4585033c9abd8a425d24b94630469c44bee7189c2805491939290821561558157600183166156055750506154709060028452603060205261552160406155ed818720615521856125fb565b90549060031b1c9560028152603060205220916125ec565b909350615521615576926125ec565b6003600081815260306020527f11a30d68d5ffd3a101d3683e9a6997d49d9351e95dc004c6a4e652b897626df780549194939082156156ad576001831661569557505061568d9082855260306020526155216040615677818820615521856125fb565b905490861b1c96858152603060205220916125ec565b9054911b1c90565b9094506155216156a4926125ec565b9054911b1c9190565b50935050508190565b6000808052602f6020529190829061575d6157016156f87fc11d2605466dd88923799a61d7f94d6c8cc580bae52b24870f6853eaa13cc4d6546012549061240a565b6031549061271e565b9461570a615a3e565b505060335460ff81166159b3575b60ff8160081c16615917575b60ff8160101c16615877575b60181c60ff16615803575b808611156157fa57615757615750828861260a565b958461240a565b9061240a565b918295856157da6157876157826157796015546013549061240a565b6032549061271e565b612701565b6014549095818711156157f45761579e828861260a565b9581156157ec5750612cd5610f3f61575792612ccd6157c56003546001600160a01b031690565b91604051938491602083019190602083019252565b941180156157e55790565b5082841190565b90509061240a565b8561579e565b61575784615750565b6004600052602b6020527f8bd115fc6ec81ad72d5ca8a8b3bd3d0177f1b615af6ad35644a4e24a7bed08bd54615872919061575790615852906002600080516020616e9f833981519152612a7e565b6004600052602b6020526003600080516020616e9f833981519152612a7e565b61573b565b6003600052602b6020527fd3904653c5d0f9b122879aa13f7287465a10522aedd588dbbd607cf6f8b2148054909160ff9161590f9190615757906158dd9060027fd3904653c5d0f9b122879aa13f7287465a10522aedd588dbbd607cf6f8b2147f612a7e565b60036000819052602b6020527fd3904653c5d0f9b122879aa13f7287465a10522aedd588dbbd607cf6f8b2147f612a7e565b919050615730565b60026000819052602b6020527fbd6c10e6ce287735500a1c033be76c57d5e632addc2ff6eff6bb587b8ee0d95d5491926159ad9290916157579161597b917fbd6c10e6ce287735500a1c033be76c57d5e632addc2ff6eff6bb587b8ee0d95c612a7e565b6002600052602b60205260037fbd6c10e6ce287735500a1c033be76c57d5e632addc2ff6eff6bb587b8ee0d95c612a7e565b90615724565b9050615a38615a0660016159d26001600052602b602052604060002090565b01546001600052602b60205260027ffcc3d43705633578a5e8f1b6d6f38d08eb8cb891174edcc94b1a54972a1aebbd612a7e565b6001600052602b60205260037ffcc3d43705633578a5e8f1b6d6f38d08eb8cb891174edcc94b1a54972a1aebbd612a7e565b90615718565b600090816001815b600f821115615aab5750506001600052602b6020527ffcc3d43705633578a5e8f1b6d6f38d08eb8cb891174edcc94b1a54972a1aebbd548101809111610b44576004600052602b6020529161218690600080516020616e9f833981519152549061240a565b9093848252602f92602093808552604090600282862001548301809311610b44576003929588865252832001548101809111610b4457615aeb90946123df565b90615a46565b9190615afb61280d565b92600191828214615e72576002808314615d4957506003808314615d49575060048214615cdd5760058214615c9b57615b5a90615b36616a3d565b90601c54615b44828261240a565b831115615c9457615b55925061240a565b6147f4565b9060068114615c445760078114615beb57600814615b76575050565b6102809192935060ff615b876120fb565b936101e08301518552610200830151602086015261022083015160408601526102408301516060860152615bbf6102a0840151151590565b60009015615be457505b16608084015261026081015160a0840152015160c082015290565b9050615bc9565b50919250506101a0615bfb6120fb565b9160e08101518352610100810151602084015261012081015160408401526101408101516060840152610160810151608084015261018081015160a0840152015160c082015290565b509192505060c0615c536120fb565b91805183526020810151602084015260408101516040840152606081015160608401526080810151608084015260a081015160a0840152015160c082015290565b50506147f4565b5050509050615ca86120fb565b601254815260135460208201526015546040820152601454606082015260006080820152600060a0820152600060c082015290565b5050509050615cea6120fb565b60165481526017546020820152615d0c6001600052602b602052604060002090565b5460408201526004600052602b602052600080516020616e9f83398151915254606082015260006080820152600060a0820152600060c082015290565b939450505050615d576120fb565b7ffcc3d43705633578a5e8f1b6d6f38d08eb8cb891174edcc94b1a54972a1aebbd82015481527fbd6c10e6ce287735500a1c033be76c57d5e632addc2ff6eff6bb587b8ee0d95c8201546020808301919091527fd3904653c5d0f9b122879aa13f7287465a10522aedd588dbbd607cf6f8b2147f8301546040830152600080516020616e9f83398151915283015460608301527f4b5b933abde5416303ae4347d7fcdf5a17e8022e0fefc2b31c7609ebd3c32fe983015460808301527f5ac1f6ea00ad8b0f699e3a293cc93d6fdaf7ee608fbc40ffef54db3fb7ebb94383015460a08301526007600052602b90527f455b6dea826802a5b6200d61a7810fccbd36f05c878743e3ac0e0e7aff3a46e89091015460c082015290565b5050909150615d576120fb565b60405190615e8c82611fda565b60006060838281528260208201528260408201520152565b90604051615eb181611fda565b6060600382948054845260018101546020850152600281015460408501520154910152565b67ffffffffffffffff8111611ff65760051b60200190565b90615ef882615ed6565b615f056040519182612088565b8281528092615f16601f1991615ed6565b019060005b828110615f2757505050565b602090615f32615e7f565b82828501015201615f1b565b805182101561072c5760209160051b010190565b6162376101c06120b792615f8c615f7082516001600160a01b031690565b6001600160a01b03166001600160a01b03196002541617600255565b615fbf615fa360208301516001600160a01b031690565b6001600160a01b03166001600160a01b03196003541617600355565b615ff2615fd660408301516001600160a01b031690565b6001600160a01b03166001600160a01b03196004541617600455565b61602561600960608301516001600160a01b031690565b6001600160a01b03166001600160a01b03196005541617600555565b61605861603c60808301516001600160a01b031690565b6001600160a01b03166001600160a01b03196006541617600655565b61608b61606f60a08301516001600160a01b031690565b6001600160a01b03166001600160a01b03196007541617600755565b6160be6160a260c08301516001600160a01b031690565b6001600160a01b03166001600160a01b03196008541617600855565b6160f16160d560e08301516001600160a01b031690565b6001600160a01b03166001600160a01b03196009541617600955565b6161256161096101008301516001600160a01b031690565b6001600160a01b03166001600160a01b0319600a541617600a55565b61615961613d6101208301516001600160a01b031690565b6001600160a01b03166001600160a01b0319600b541617600b55565b61618d6161716101408301516001600160a01b031690565b6001600160a01b03166001600160a01b0319600c541617600c55565b6161c16161a56101608301516001600160a01b031690565b6001600160a01b03166001600160a01b0319600d541617600d55565b6161f56161d96101808301516001600160a01b031690565b6001600160a01b03166001600160a01b0319600e541617600e55565b61622961620d6101a08301516001600160a01b031690565b6001600160a01b03166001600160a01b0319600f541617600f55565b01516001600160a01b031690565b6001600160a01b03166001600160a01b03196010541617601055565b6162686113a66000546001600160a01b031690565b604051907f97f3815a000000000000000000000000000000000000000000000000000000008252602082600481845afa918215611489576000926168f8575b50604051917fcfbffe53000000000000000000000000000000000000000000000000000000008352602083600481855afa928315611489576000936168d7575b50604051907fab6e844f000000000000000000000000000000000000000000000000000000008252602082600481865afa918215611489576000926168b6575b50604051917f14d8d024000000000000000000000000000000000000000000000000000000008352602083600481875afa92831561148957600093616895575b50604051927fd1f956b1000000000000000000000000000000000000000000000000000000008452602084600481885afa93841561148957600094616874575b50604051937fe61dfd58000000000000000000000000000000000000000000000000000000008552602085600481895afa94851561148957600095616853575b506040517fe09d394d0000000000000000000000000000000000000000000000000000000081526020816004818a5afa90811561148957600091616834575b506040517f52b06d640000000000000000000000000000000000000000000000000000000081526020816004818b5afa90811561148957600091616815575b506040517f013cf08b00000000000000000000000000000000000000000000000000000000815260006004820152916020836024818c5afa928315611489576000936167f4575b50604051977f5e09dbe70000000000000000000000000000000000000000000000000000000089526020896004818d5afa948515611489576004996000966167d3575b5060208b6040519b8c80927faa0ddc160000000000000000000000000000000000000000000000000000000082525afa9687156114895760049a6000986167b2575b5060208c6040519c8d80927f640274270000000000000000000000000000000000000000000000000000000082525afa9889156114895760049b60009a616791575b5060208d6040519d8e80927f30125cf50000000000000000000000000000000000000000000000000000000082525afa9a8b15611489578d60049d60009d61676f575b506020906040519e8f80927f24768d910000000000000000000000000000000000000000000000000000000082525afa9c8d156114895760009d61674e575b50604051809e81907f9dc969a80000000000000000000000000000000000000000000000000000000082525a92600491602094fa9d8e156114895760009e61672d575b506166416120da565b6001600160a01b0390911681529d8e906001600160a01b031660208201526040019061667591906001600160a01b03169052565b6001600160a01b031660608d01526001600160a01b031660808c01526001600160a01b031660a08b01526001600160a01b031660c08a01526001600160a01b031660e08901526001600160a01b03166101008801526001600160a01b03166101208701526001600160a01b03166101408601526001600160a01b03166101608501526001600160a01b03166101808401526001600160a01b03166101a08301526001600160a01b03166101c08201526120b790615f52565b616747919e5060203d602011611482576114728183612088565b9c38616638565b616768919d5060203d602011611482576114728183612088565b9b386165f5565b6020919d5061678a90823d8411611482576114728183612088565b9c906165b6565b6167ab919a5060203d602011611482576114728183612088565b9838616573565b6167cc91985060203d602011611482576114728183612088565b9638616531565b6167ed91965060203d602011611482576114728183612088565b94386164ef565b61680e91935060203d602011611482576114728183612088565b91386164ac565b61682e915060203d602011611482576114728183612088565b38616465565b61684d915060203d602011611482576114728183612088565b38616426565b61686d91955060203d602011611482576114728183612088565b93386163e7565b61688e91945060203d602011611482576114728183612088565b92386163a7565b6168af91935060203d602011611482576114728183612088565b9138616367565b6168d091925060203d602011611482576114728183612088565b9038616327565b6168f191935060203d602011611482576114728183612088565b91386162e7565b61691291925060203d602011611482576114728183612088565b90386162a7565b9081602091031261043b575161218681610940565b6169896001600160a01b036002541660405161694981612034565b600881527f697353616665282900000000000000000000000000000000000000000000000060208201526040519161698083612050565b60008352616b93565b90806169a8575b156106c4578060208061218693518301019101616919565b506020815114616990565b616a166001600160a01b0380600254166040519160209416848301528382526169db82612034565b604051906169e882612034565b601582527f697353656375726542617365286164647265737329000000000000000000000085830152616b93565b9080616a33575b156106c457816121869282518301019101616919565b5081815114616a1d565b6121866001600160a01b0360035416604051616a5881612034565b600681527f69416765282900000000000000000000000000000000000000000000000000006020820152604051916111a883612050565b6001600160a01b0380911690811561088057600154826001600160a01b0319821617600155167f8292fce18fa69edf4db7b94ea2e58241df0ae57f97e0a6c9b29067028bf92d76600080a3565b3d15616b07573d90616aed82612108565b91616afb6040519384612088565b82523d6000602084013e565b606090565b908015612375576001600160a01b03821691821561088057600080808481945af1616b35616adc565b50156106c45760207fcec1f18c3ab8ddaaa107a1591e3c369667eec613626611a8deaedef43069fcdd91604051908152a2565b90616b739291616b93565b9060009015616b80575090565b6040519150616b8e82612050565b815290565b9190823b15616c28577fffffffff00000000000000000000000000000000000000000000000000000000815160208093012016916040519180830193845281519160005b838110616c14575050509181616c0460248260009795968897018783820152036004810184520182612088565b51915afa616c10616adc565b9091565b818101830151858201602401528201616bd7565b505050600090604051616c3a81612050565b6000815290565b9291616c4f91600094616b93565b9080616c7f575b616c5d5750565b6001600160a01b0391925080602080616c7b9351830101910161265f565b1690565b506020815114616c56565b9291616c9891600094616b93565b9080616cbb575b616ca65750565b61218691925060208082518301019101616919565b506020815114616c9f565b9291616cd491600094616b93565b9080616cf7575b616ce25750565b61218691925060208082518301019101612988565b506020815114616cdb565b9291616d1091600094616b93565b9080616d35575b616d1e5750565b90915060208180518101031261043b576020015190565b506020815114616d17565b90602082519201517fffffffff00000000000000000000000000000000000000000000000000000000908181169360048110616d7b57505050565b60040360031b82901b16169150565b6001600160a01b0381161561088057600080918351908260208601915af190616db1616adc565b9115616dbb575090565b805160009190600411616e3757616dd29150616d40565b815115616de25750805190602001fd5b6040517f21c09d340000000000000000000000000000000000000000000000000000000081527fffffffff00000000000000000000000000000000000000000000000000000000919091166004820152602490fd5b50616dd2565b803b6000616e4a82612108565b92616e586040519485612088565b82845260208401903c602d815110616e7457602a015160601c90565b60046040517fbaf3f0f7000000000000000000000000000000000000000000000000000000008152fdfe8bd115fc6ec81ad72d5ca8a8b3bd3d0177f1b615af6ad35644a4e24a7bed08bca2646970667358221220377904ac77d628972cf75f9bae3fa06d778a22d9a76db91b2522337130cccff964736f6c63430008140033","linkReferences":{}},"methodIdentifiers":{"instanceStor()":"131c73ad"},"id":78}