{"abi":[{"type":"constructor","inputs":[{"name":"_hex","type":"address","internalType":"address"}],"stateMutability":"nonpayable"},{"type":"function","name":"instanceStor","inputs":[],"outputs":[{"name":"","type":"address","internalType":"address"}],"stateMutability":"view"}],"bytecode":{"object":"0x6080346100c5576001600160401b0390601f6171cf38819003918201601f1916830191848311848410176100af578084926020946040528339810103126100c557516001600160a01b039190828116908190036100c5576040519161707690818401908111848210176100af576020928492610159843981520301906000f080156100a3571660018060a01b03196000541617600055604051608e90816100cb8239f35b6040513d6000823e3d90fd5b634e487b7160e01b600052604160045260246000fd5b600080fdfe6080806040526004361015601257600080fd5b600090813560e01c63131c73ad14602857600080fd5b346054578160031936011260545773ffffffffffffffffffffffffffffffffffffffff60209254168152f35b5080fdfea26469706673582212204e78006748dbf7d681ce8f81cc6ac9592f82cd1d91c7e7aa1bd36836f386bf9864736f6c63430008140033608034620000b757601f6200707638819003918201601f19168301916001600160401b03831184841017620000bc57808492602094604052833981010312620000b757516001600160a01b03811690819003620000b7578015620000a55760018060a01b0319903382600154161760015560009182541617815560016011558060125580601355806014558060155580601655601755604051616fa39081620000d38239f35b60405163e6c4247b60e01b8152600490fd5b600080fd5b634e487b7160e01b600052604160045260246000fdfe60806040526004361015610018575b361561001657005b005b60003560e01c806302a085f214610328578063043719b41461032357806309d8da2e1461031e5780630b98f9751461031957806312065fe014610314578063129641201461030f578063143ec3b71461030a5780631f185d161461030557806329ee350e14610300578063339459a6146102fb57806339b4d61b146102f65780633b9b7955146102f157806343a1b5ab146102ec5780634a65786c146102e757806352902c59146102e25780635640dbfc146102dd5780635ecf6a8a146102d8578063619d5194146102d35780636350b2c2146102ce578063654c668e146102c957806369245009146102c45780636de97c66146102bf5780636f493aad146102ba578063725b6fff146102b5578063759f22bd146102b057806375b4d78c146102ab5780637b058ac1146102a6578063822ffec4146102a1578063880cdc311461029c5780638da5cb5b14610297578063934209ce146102925780639659867e1461028d578063a1f7f53914610288578063a5d7cda414610283578063a66303041461027e578063a9bf285b14610279578063af48452614610274578063af640d0f1461026f578063b90306ad1461026a578063b9f1a39414610265578063c54e44b014610260578063c8ef7b1a1461025b578063d2a1590414610256578063d3abb8a314610251578063da0213351461024c578063deb1ba1e14610247578063e01ad5fd14610242578063e0a9bc2b1461023d5763fdc10bc90361000e5761212f565b612114565b612094565b61201a565b611f95565b611f39565b611f1c565b611e21565b611de9565b611c88565b611b7a565b611b5c565b611b2b565b611b0d565b611508565b611124565b6110af565b611091565b611073565b61104c565b610fe1565b610da4565b610c73565b610c55565b610b8f565b610b0b565b610ad1565b610a3f565b6109e6565b610991565b61093a565b6108d2565b6108af565b610854565b610769565b610743565b610725565b6106fe565b6106d2565b6106b9565b610680565b610599565b61055c565b610513565b6104f7565b610486565b610463565b610427565b61035c565b610120810192916000915b6009831061034557505050565b600190825181526020809101920192019190610338565b6040806003193601126104225780519061037582612198565b61012036833760ff6018541661040b5761038d6169d9565b156103fb5761039b33616a5e565b80156103e7575b156103d7576103c36103d3926103b66128f5565b6024359060043590612dcd565b906001601155519182918261032d565b0390f35b6004905163ea8e4eb560e01b8152fd5b50336001600160a01b0360055416146103a2565b60049051634ee2123760e11b8152fd5b60249051635258db5f60e01b8152600a6004820152fd5b600080fd5b3461042257604036600319011261042257600435600052603060205260206104556024356040600020612485565b90546040519160031b1c8152f35b3461042257600036600319011261042257602060ff601854166040519015158152f35b346104225760203660031901126104225761049f6169d9565b156104e6576104ad33616a5e565b80156104d2575b156104c157600435601955005b600460405163ea8e4eb560e01b8152fd5b50336001600160a01b0360055416146104b4565b6004604051634ee2123760e11b8152fd5b3461042257600036600319011261042257602047604051908152f35b346104225760403660031901126104225761052f600435615d21565b60405190600090825b600783106105455760e084f35b600190825181526020809101920192019190610538565b346104225760203660031901126104225760043560005260306020526020604060002054604051908152f35b6001600160a01b0381160361042257565b3461042257602080600319360112610422576106186004356105ba81610588565b6001600160a01b038060025416906040519216848301528382526105dd826121b5565b604051906105ea826121b5565b601182527f69735369676e657228616464726573732900000000000000000000000000000085830152616c42565b919080610676575b1561064c57818161063a926103d3945183010191016169c4565b60405190151581529081906020820190565b60046040517f3204506f000000000000000000000000000000000000000000000000000000008152fd5b5080825114610620565b3461042257600036600319011261042257601f5460088110156106b457602181015460408051928352602083019190915290f35b61246f565b34610422576000366003190112610422576100166162fe565b3461042257602036600319011261042257600435600052602a6020526020604060002054604051908152f35b346104225760003660031901126104225760206001600160a01b0360005416604051908152f35b34610422576000366003190112610422576020602d54604051908152f35b3461042257600036600319011261042257602060ff60185460081c166040519015158152f35b346104225760603660031901126104225760043561078681610588565b60243561079281610588565b6001600160a01b0380921690811580801561084a575b61083257610808576107fa916000938454826001600160a01b03198216178655167fe939feee179e631422bcc8f6e6d7d908cb3f8af38f5372f17c77e15aea5c80ee8580a36107f561230a565b616b3a565b610805604435601b55565b80f35b60046040517fe6c4247b000000000000000000000000000000000000000000000000000000008152fd5b6024604051635258db5f60e01b815260016004820152fd5b50838216156107a8565b346104225760003660031901126104225760c060315460ff60325460335490604051938452602084015281811615156040840152818160081c1615156060840152818160101c161515608084015260181c16151560a0820152f35b346104225760003660031901126104225761001661230a565b8015150361042257565b34610422576020366003190112610422576004356108ef816108c8565b6108f76169d9565b156104e65761090533616a5e565b8015610926575b156104c15760ff8019601854169115151617601855600080f35b50336001600160a01b03600554161461090c565b3461042257602036600319011261042257600435600052602c602052608060406000208054906001810154906001600160a01b03600360028301549201541691604051938452602084015260408301526060820152f35b34610422576040366003190112610422576109aa6169d9565b156104e6576109b833616a5e565b80156109d2575b156104c157600435601455602435601355005b50336001600160a01b0360055416146109bf565b34610422576000366003190112610422576020601e54604051908152f35b6020908160408183019282815285518094520193019160005b828110610a2b575050505090565b835185529381019392810192600101610a1d565b3461042257600036600319011261042257601f546001810190818111610acc57610a6882615f81565b91610a766040519384612209565b808352610a85601f1991615f81565b0136602084013760005b81811115610aa557604051806103d38582610a04565b60088110156106b45780610ac79160210154610ac18286615fe9565b5261254a565b610a8f565b612534565b3461042257604036600319011261042257600435600052602e60205260406000206024356000526020526020604060002054604051908152f35b34610422576000366003190112610422576020601c54604051908152f35b6020908160408183019282815285518094520193019160005b828110610b50575050505090565b9091929382608082610b836001948951606080918051845260208101516020850152604081015160408501520151910152565b01950193929101610b42565b3461042257604036600319011261042257600435602435808211610c3d57818103908111610acc57600190818101809111610acc57610bcd90615f99565b916000825b610be5575b604051806103d38682610b29565b8351811015610c385780610c17610c12610c02610c329486612711565b600052602f602052604060002090565b615f4f565b610c218287615fe9565b52610c2c8186615fe9565b5061254a565b82610bd2565b610bd7565b6024604051635258db5f60e01b8152600d6004820152fd5b34610422576000366003190112610422576020601954604051908152f35b346104225760a036600319011261042257604435602435600435608435610c99816108c8565b610ca16169d9565b156104e657610caf33616a5e565b8015610d90575b156104c15760009260009480610cd7575b6040805186815260208101889052f35b9091929350601f549483600014610d4857506001610d2782610d3b96610d15610d0d610d3096600052602f602052604060002090565b918254612711565b9055600052602f602052604060002090565b01918254612711565b90555b6064356145fe565b601f549038808080610cc7565b808260409252602f60205220938454908103908111610acc57610d80610d8992600192610d3b9755600052602f602052604060002090565b0191825461272d565b9055610d33565b50336001600160a01b036005541614610cb6565b346104225760c03660031901126104225760643560a435602435600435604435610dcd846108c8565b610dd56169d9565b156104e657610de333616a5e565b8015610fcd575b156104c157610e0381600052602f602052604060002090565b610e0e838254612711565b90556001610e2682600052602f602052604060002090565b01610e32848254612711565b905560008052602f6020527fc11d2605466dd88923799a61d7f94d6c8cc580bae52b24870f6853eaa13cc4d654151580610fc4575b610e7a575b601f54604051908152602090f35b610ef792159485159283610fb6575b610ee6610ed7610ea16003546001600160a01b031690565b60405190610ec982610ebb89602083019190602083019252565b03601f198101845283612209565b610ed1614446565b90616c17565b6020808251830101910161447f565b9493929991989095601e549061272d565b60843511918215610fa9575b5081610fa0575b50610f18575b505050610e6c565b610f7e96600396610d279660009015610f975750610f42610f3c610f489385612841565b916127d0565b906125e3565b975b60009015610f8d5750610f3c610f6393610f4292612841565b945b610d156002610d2784600052602f602052604060002090565b90553880808080808080610f10565b9250505094610f65565b91505097610f4a565b90501538610f0a565b601f541015915038610f03565b610fbf826144df565b610e89565b50801515610e67565b50336001600160a01b036005541614610dea565b3461042257602036600319011261042257600435610ffe81610588565b6110066169d9565b156104e65761101433616a5e565b8015611038575b156104c1576001600160a01b038116156104c15761001690616b3a565b50336001600160a01b03600554161461101b565b346104225760003660031901126104225760206001600160a01b0360015416604051908152f35b34610422576000366003190112610422576020601f54604051908152f35b34610422576000366003190112610422576020601a54604051908152f35b3461042257600036600319011261042257602061111c6001600160a01b03600654166040516110dd816121b5565b601381527f67657464656c656761746f72436f756e742829000000000000000000000000008482015260405191611113836121d1565b60008352616d75565b604051908152f35b6040806003193601126104225760049081359160243560ff601854166114f15761114c6128f5565b611154616ae8565b90601c546111628282612711565b8311156114e9576111739250612711565b915b6111b26111ad6111a76111906003546001600160a01b031690565b611198612592565b906111a16125aa565b90616d75565b856125e3565b602955565b6111c8602954600052602a602052604060002090565b54936111dc6003546001600160a01b031690565b946111f66111e8612592565b6111f0612603565b88616d75565b036114cc576103e7600052603060205260016112347f42e4ed8a28bd93bfb836b3bd3996ada35ff866e155b2ce135e767e31acbdb63f5b5460011690565b1480611497575b61147a578151602080820183905295906112749061126681604081015b03601f198101835282612209565b61126e613366565b83616d75565b3403611459576112fc916112a76112996112f793611290612592565b90610ed161339f565b8880825183010191016133d8565b946001600160a01b0392831694919392169080151580611450575b611434575b5050508015158061142b575b611403575b5050506112ef6112ea34601254612711565b601255565b601354612711565b601355565b61130583612930565b8361132761131b6000546001600160a01b031690565b6001600160a01b031690565b8251938480927f1b4fc17b0000000000000000000000000000000000000000000000000000000082525afa9182156113fe577f1517c86fcf2bfb8e3468afcc539b0004955da8027797c497ea51d1f1094ab898946000936113c9575b5050513381526001600160a01b0390911660208201526000604082015234606082015260808101919091526103e860a08201528060c081015b0390a16100166001601155565b6113bc92935090816113ef92903d106113f7575b6113e78183612209565b810190612782565b919038611383565b503d6113dd565b613418565b61142392610f4261141761141d9334612841565b916127e1565b90616bb7565b3880806112d8565b508115156112d3565b61144892610f4261141761141d9334612841565b3880806112c7565b508115156112c2565b825163cdab4c8760e01b8152600981860190815281906020010390fd5b0390fd5b8151635258db5f60e01b8152600681850190815281906020010390fd5b50601b54825160208101919091526114c4906114b68160408101611258565b6114be612559565b87616cf0565b31151561123b565b815163cdab4c8760e01b8152600581850190815281906020010390fd5b505091611175565b50600a6024925191635258db5f60e01b8352820152fd5b60c0366003190112610422576004803561152181610588565b6064359060443560a4356084356115366169d9565b15611afd5761154433616a5e565b8015611ae9575b15611a5b5760ff60185416611ad1576115626128f5565b6103e7600052603060205260016115987f42e4ed8a28bd93bfb836b3bd3996ada35ff866e155b2ce135e767e31acbdb63f61122d565b1480611a89575b611a6b576115b36115af85616a5e565b1590565b611a5b576003936115d46111ad6111a761119088546001600160a01b031690565b6029546115eb81600052602a602052604060002090565b5486546001600160a01b031690611611611603612592565b61160b612603565b84616d75565b1190811591611a17575b506119f95761163490600052602a602052604060002090565b80546001019055600182149586156119f25761167c61165a87546001600160a01b031690565b6040519061167482610ebb8a602083019190602083019252565b6111a16126ae565b965b61199f575b50601a5415611988575b601a546116999061254a565b601a556116a461222b565b948686526020918583880152846040880152606087019660008852601a546116d690600052602c602052604060002090565b906116e09161273a565b60015460405163c85700fb60e01b858201526001600160a01b03909116602480830191909152356044820152606481018790526084810189905260a4808201879052815261172f60c482612209565b61173891616e39565b8280825183010191019061174b91612782565b6001600160a01b03168087521561196a578697506118f861187361186e6118e661187e8a9b610f4261187961185f61194c9b9a7f1517c86fcf2bfb8e3468afcc539b0004955da8027797c497ea51d1f1094ab8989f8f61190f9c61183461182f611827611841946117fc6117c961185298516001600160a01b031690565b866117e0601a54600052602c602052604060002090565b01906001600160a01b03166001600160a01b0319825416179055565b61182161181086546001600160a01b031690565b611818612592565b906111a1612797565b90612841565b601554612711565b601555565b546001600160a01b031690565b611849612592565b90610ed1612854565b805181018201910161288d565b9c9491959b9293989050612841565b612841565b93612841565b6127f7565b916118b0611898602d54600052602e602052604060002090565b6118a2838c612711565b600052602052604060002090565b6118bb8482546128c0565b90556118a2846118e16118da602d54600052602e602052604060002090565b938c612711565b612711565b6118f18282546128dc565b9055612841565b9661190285612930565b516001600160a01b031690565b604080513381526001600160a01b03909216602083015281019490945260608401879052608084019290925260a0830191909152819060c0820190565b0390a16119596001601155565b604080519182526020820192909252f35b604051635258db5f60e01b81526002818a0190815281906020010390fd5b61199183601c55565b61199a83601d55565b61168d565b60195490876119ae8383612711565b106119d457876119c46119ce936119c993612711565b61272d565b601955565b38611683565b604051635258db5f60e01b81526005818b0190815281906020010390fd5b809661167e565b60405163cdab4c8760e01b81526001818a0190815281906020010390fd5b9050611a2c611a24612592565b61126e61263c565b8610908115611a3d575b503861161b565b611a539150611a4a612592565b906111a1612675565b851138611a36565b8560405163ea8e4eb560e01b8152fd5b604051635258db5f60e01b8152600b81880190815281906020010390fd5b50611ac9610ebb611aa188546001600160a01b031690565b611abb601b54604051938491602083019190602083019252565b611ac3612559565b90616cf0565b31151561159f565b602486600a60405191635258db5f60e01b8352820152fd5b50336001600160a01b03600554161461154b565b85604051634ee2123760e11b8152fd5b34610422576000366003190112610422576020601d54604051908152f35b34610422576020366003190112610422576020611b52600435611b4d81610588565b616a5e565b6040519015158152f35b34610422576000366003190112610422576020601b54604051908152f35b3461042257602036600319011261042257600435611b966169d9565b156104e6576001600160a01b036005541633036104c15760009060046020611bc861131b85546001600160a01b031690565b604051928380927f46f991ac0000000000000000000000000000000000000000000000000000000082525afa80156113fe5783808481949382948391611c6a575b505af1611c14616b87565b501561064c577fcdcc745fe377b103b45fa0cec23ae3ef93d6fc6a84a01f0d18c40b354dd1d5d8611c64611c5361131b600b546001600160a01b031690565b604051938452929081906020820190565b0390a280f35b611c82915060203d81116113f7576113e78183612209565b38611c09565b3461042257602036600319011261042257611ca1614aea565b50611caa616ae8565b601c54906004358201809211610acc5761030091611cd09181811115611de25750614c3e565b611de060405191805183526020810151602084015260408101516040840152606081015160608401526080810151608084015260a081015160a084015260c081015160c084015260e081015160e0840152610100808201519084015261012080820151908401526101408082015190840152610160808201519084015261018080820151908401526101a080820151908401526101c080820151908401526101e0808201519084015261020080820151908401526102208082015190840152610240808201519084015261026080820151908401526102808082015190840152611dc46102a0808301519085019015159052565b6102c0818101511515908401526102e090810151151590830152565bf35b9050614c3e565b34610422576020366003190112610422576020611e10600435611e0b81610588565b616eec565b6001600160a01b0360405191168152f35b3461042257604036600319011261042257602435611e3e816108c8565b611e466169d9565b156104e657611e5433616a5e565b8015611f08575b156104c157611e68616ae8565b906000916004358352603060205260408320805492831590811591611f00575b81611ee0575b50611e97578380f35b68010000000000000000831015611edb5782611ebb916001611ed495018155612485565b90919082549060031b91821b91600019901b1916179055565b3880808380f35b61214a565b159050611ef75760ff845b16600184161438611e8e565b60ff6001611eeb565b905080611e88565b50336001600160a01b036005541614611e5b565b346104225760003660031901126104225760208054604051908152f35b602036600319011261042257611f4d6169d9565b156104e657611f5b33616a5e565b8015611f81575b156104c157611f6f6128f5565b611f7a6004356138af565b6001601155005b50336001600160a01b036005541614611f62565b3461042257602036600319011261042257611fae615f2a565b50600435600052602f60205260806040600020600360405191611fd083612160565b80548352600181015460208401526002810154604084015201546060820152611de06040518092606080918051845260208101516020850152604081015160408501520151910152565b3461042257602036600319011261042257600435612037816108c8565b61203f6169d9565b156104e65761204d33616a5e565b8015612080575b156104c1571561206e5761206960205461254a565b602055005b6020548015610acc5760001901602055005b50336001600160a01b036005541614612054565b34610422576020366003190112610422576020611b526004356120b681610588565b6001600160a01b038060065416906040519216848301528382526120d9826121b5565b604051906120e6826121b5565b601882527f697364656c656761746f724e6f6465286164647265737329000000000000000085830152616d39565b34610422576000366003190112610422576020611b526169d9565b3461042257600036600319011261042257602061111c616ae8565b634e487b7160e01b600052604160045260246000fd5b6080810190811067ffffffffffffffff821117611edb57604052565b6060810190811067ffffffffffffffff821117611edb57604052565b610120810190811067ffffffffffffffff821117611edb57604052565b6040810190811067ffffffffffffffff821117611edb57604052565b6020810190811067ffffffffffffffff821117611edb57604052565b60e0810190811067ffffffffffffffff821117611edb57604052565b90601f8019910116810190811067ffffffffffffffff821117611edb57604052565b6040519061223882612160565b565b60405190610300820182811067ffffffffffffffff821117611edb57604052565b604051906101e0820182811067ffffffffffffffff821117611edb57604052565b60405190612238826121ed565b67ffffffffffffffff8111611edb57601f01601f191660200190565b604051906122b2826121d1565b60008252565b91908260c09103126104225781519160208101519160408201516122db816108c8565b9160608101516122ea816108c8565b9160a060808301516122fb816108c8565b920151612307816108c8565b90565b6123126162fe565b61236e6001600160a01b03600354166040519061232e826121d1565b600082526040519061233f826121b5565b600982527f63617070696e67282900000000000000000000000000000000000000000000006020830152616c17565b805115612411576123f561240c6123dc6124076123c161239a86602080612238995183010191016122b8565b9994999792959091939763ff00000060335491151560181b169063ff000000191617603355565b62ff000060335491151560101b169062ff0000191617603355565b61ff0060335491151560081b169061ff00191617603355565b60ff8019603354169115151617603355565b603255565b603155565b60646040517f08c379a000000000000000000000000000000000000000000000000000000000815260206004820152601460248201527f43617070696e67206665746368206661696c65640000000000000000000000006044820152fd5b634e487b7160e01b600052603260045260246000fd5b80548210156106b45760005260206000200190600090565b6103e760005260306020527f42e4ed8a28bd93bfb836b3bd3996ada35ff866e155b2ce135e767e31acbdb63f80549283158015919061252c575b8161250b575b506124e757505050565b68010000000000000000831015611edb5782611ebb91600161223895018155612485565b1590506125235760ff60005b166001841614386124dd565b60ff6001612517565b9050806124d7565b634e487b7160e01b600052601160045260246000fd5b6000198114610acc5760010190565b60405190612566826121b5565b601882527f676574557365724964546f496e73742875696e743235362900000000000000006020830152565b60405161259e816121d1565b60008152906000368137565b604051906125b7826121b5565b600f82527f6d696e744379636c6544617973282900000000000000000000000000000000006020830152565b81156125ed570490565b634e487b7160e01b600052601260045260246000fd5b60405190612610826121b5565b601282527f6d61784d696e74735065724379636c65282900000000000000000000000000006020830152565b60405190612649826121b5565b600c82527f6d696e4d696e74517479282900000000000000000000000000000000000000006020830152565b60405190612682826121b5565b600c82527f6d61784d696e74517479282900000000000000000000000000000000000000006020830152565b604051906126bb826121b5565b601982527f636f6d707574654d696e7456616c75652875696e7432353629000000000000006020830152565b6046019081604611610acc57565b90601e8201809211610acc57565b9060018201809211610acc57565b91908201809211610acc57565b600019810191908211610acc57565b91908203918211610acc57565b60036001600160a01b036060612238948051855560208101516001860155604081015160028601550151169101906001600160a01b03166001600160a01b0319825416179055565b90816020910312610422575161230781610588565b604051906127a4826121b5565b600f82527f6d696e74466565506572517479282900000000000000000000000000000000006020830152565b9081606402916064830403610acc57565b90606482029180830460641490151715610acc57565b9061271091828102928184041490151715610acc57565b90601982029180830460191490151715610acc57565b90670de0b6b3a764000091828102928184041490151715610acc57565b81810292918115918404141715610acc57565b60405190612861826121b5565b600682527f706f6f6c282900000000000000000000000000000000000000000000000000006020830152565b908160e09103126104225780519160208201519160408101519160608201519160808101519160c060a083015192015190565b91909160008382019384129112908015821691151617610acc57565b81810392916000138015828513169184121617610acc57565b600260115414612906576002601155565b60046040517f3ee5aeb5000000000000000000000000000000000000000000000000000000008152fd5b6000808052602f602052612238919061297a6129717fc11d2605466dd88923799a61d7f94d6c8cc580bae52b24870f6853eaa13cc4d65b5460125490612711565b60315490612841565b90612983615c6e565b505060335460ff8116612bb8575b60ff8160081c16612b13575b60ff8160101c16612a69575b60181c60ff166129f2575b11906129d96129d46129cb60155460135490612711565b60325490612841565b612824565b6014541182156129ea575b5061249d565b9150386129e4565b6004600052602b602052612a6490612a5e612a3e6001600080516020616f4e8339815191525b01546004600052602b6020526002600080516020616f4e8339815191525b015490612711565b6004600052602b6020526003600080516020616f4e833981519152612a36565b90612711565b6129b4565b6003600052602b6020529060ff90612b0b90612a5e612ad960017fd3904653c5d0f9b122879aa13f7287465a10522aedd588dbbd607cf6f8b2147f5b01546003600052602b60205260027fd3904653c5d0f9b122879aa13f7287465a10522aedd588dbbd607cf6f8b2147f612a36565b60036000819052602b6020527fd3904653c5d0f9b122879aa13f7287465a10522aedd588dbbd607cf6f8b2147f612a36565b9190506129a9565b6002600052602b60205290612bb290612a5e612b8060017fbd6c10e6ce287735500a1c033be76c57d5e632addc2ff6eff6bb587b8ee0d95c5b015460026000819052602b6020527fbd6c10e6ce287735500a1c033be76c57d5e632addc2ff6eff6bb587b8ee0d95c612a36565b6002600052602b60205260037fbd6c10e6ce287735500a1c033be76c57d5e632addc2ff6eff6bb587b8ee0d95c612a36565b9061299d565b9050612c3d612c0b6001612bd76001600052602b602052604060002090565b01546001600052602b60205260027ffcc3d43705633578a5e8f1b6d6f38d08eb8cb891174edcc94b1a54972a1aebbd612a36565b6001600052602b60205260037ffcc3d43705633578a5e8f1b6d6f38d08eb8cb891174edcc94b1a54972a1aebbd612a36565b90612991565b60405190612c50826121ed565b60e0368337565b60405190612c64826121b5565b601082527f65616368636c61696d4379636c652829000000000000000000000000000000006020830152565b60405190612c9d826121b5565b601082527f6d6178436c61696d5065724461792829000000000000000000000000000000006020830152565b60405190612cd6826121b5565b601082527f6d696e436c61696d5065724461792829000000000000000000000000000000006020830152565b60405190612d0f826121b5565b601682527f6d6178476c6f62616c436c61696d5065724461792829000000000000000000006020830152565b60405190612d48826121b5565b601582527f67657477697468647261776e2875696e743235362900000000000000000000006020830152565b9060098110156106b45760051b0190565b60405190612d92826121b5565b601d82527f636f6d707574654f7a6f6e65546f446f6c6c61722875696e74323536290000006020830152565b90816020910312610422575190565b9192909282811561335e5750601c5493612de78186612711565b82111561335157612e05612dfd60329287612711565b955b8661272d565b1161334b57600393612e3e612e35612e2487546001600160a01b031690565b612e2c612592565b906111a1612c57565b601d5490612711565b821015612e4d575b5050909150565b612e60612e5982614754565b809261249d565b84546001600160a01b031690612e7f612e77612592565b61160b612c90565b6001600052602b60205295612fd4612fa3612f72612f41612f10612edf867ffcc3d43705633578a5e8f1b6d6f38d08eb8cb891174edcc94b1a54972a1aebbd01546004600052602b60205287600080516020616f4e833981519152612a36565b6002600052602b602052867fbd6c10e6ce287735500a1c033be76c57d5e632addc2ff6eff6bb587b8ee0d95c612a36565b6003600052602b602052857fd3904653c5d0f9b122879aa13f7287465a10522aedd588dbbd607cf6f8b2147f612a36565b6005600052602b602052847f4b5b933abde5416303ae4347d7fcdf5a17e8022e0fefc2b31c7609ebd3c32fe9612a36565b6006600052602b602052837f5ac1f6ea00ad8b0f699e3a293cc93d6fdaf7ee608fbc40ffef54db3fb7ebb943612a36565b6007600052602b602052827f455b6dea826802a5b6200d61a7810fccbd36f05c878743e3ac0e0e7aff3a46e8612a36565b92612fe8612fe0612592565b61126e612cc9565b8410801590613344575b612fff575b505050612e46565b6130149061300b612592565b906111a1612d02565b926130276004546001600160a01b031690565b9760409461305f8651806130438a602083019190602083019252565b039b613057601f199d8e8101845283612209565b6111a1612d3b565b101561332d57600091818111156133265761307a925061272d565b91600092600180915b600783111561317a57505050966131389261313d949261314297989960165460e08c0152601754806101008d015281613170575b50613158575b6130c76000601655565b6130d16000601755565b6000821561314e5750926131196131219361310d936130fa61313097546001600160a01b031690565b9351948591602083019190602083019252565b03908101845283612209565b610ed1612d85565b60208082518301019101612dbe565b601454612711565b601455565b601d55565b81903880808080612ff7565b9350505050613130565b61316b613166602d5461254a565b602d55565b6130bd565b90501515386130b7565b9091948461319287600052602b602052604060002090565b0154826132915761328a9161320b91856131b68a600052602b602052604060002090565b016131c2828254612711565b90556000886131db8b600052602b602052604060002090565b01556131f08d6131ea8b61271e565b90612d74565b525b6132046131fe8961271e565b8d612d74565b5190612711565b957f1517c86fcf2bfb8e3468afcc539b0004955da8027797c497ea51d1f1094ab8988961323b8d6131ea8561271e565b51613282613248856126e7565b8c5193849333859094939260a0926001600160a01b0360c08401971683526000602084015260006040840152606083015260808201520152565b0390a161254a565b9190613083565b91808311156133055761328a916132d86132ae61320b938661272d565b8095876132c58c600052602b602052604060002090565b016132d1838254612711565b905561272d565b876132ed8a600052602b602052604060002090565b01556000936132ff8d6131ea8b61271e565b526131f2565b61331661328a929361320b9261272d565b9260006132ff8d6131ea8b61271e565b505061307a565b845163cdab4c8760e01b8152600480820152602490fd5b5082612ff2565b50915090565b506032612e058295612dff565b925050915090565b60405190613373826121b5565b601d82527f636f6d70757465446f6c6c6172546f4f7a6f6e652875696e74323536290000006020830152565b604051906133ac826121b5565b600a82527f6275726e636e66672829000000000000000000000000000000000000000000006020830152565b91908260c09103126104225781516133ef81610588565b91602081015191604082015191606081015161340a81610588565b9160a0608083015192015190565b6040513d6000823e3d90fd5b60405190613431826121b5565b601382527f55736572546f496e7374286164647265737329000000000000000000000000006020830152565b6040519061346a826121b5565b600b82527f6d696e74436f756e7428290000000000000000000000000000000000000000006020830152565b604051906134a3826121b5565b600e82527f6d696e74732875696e74323536290000000000000000000000000000000000006020830152565b604051906134dc826121b5565b600b82527f6d696e74656441676528290000000000000000000000000000000000000000006020830152565b60405190613515826121b5565b600b82527f6d696e74656471747928290000000000000000000000000000000000000000006020830152565b6040519061354e826121b5565b600c82527f6964732875696e743235362900000000000000000000000000000000000000006020830152565b60405190613587826121b5565b600982527f6d696e74416d74282900000000000000000000000000000000000000000000006020830152565b604051906135c0826121b5565b600a82527f647261776e6167652829000000000000000000000000000000000000000000006020830152565b604051906135f9826121b5565b600c82527f4c53422875696e743235362900000000000000000000000000000000000000006020830152565b60405190613632826121b5565b600782527f647261776e2829000000000000000000000000000000000000000000000000006020830152565b91908260c09103126104225781519160208101519160408201519160608101519160a0608083015192015190565b60405190613699826121b5565b601382527f67657452657761726473286164647265737329000000000000000000000000006020830152565b9190826040910312610422576020825192015190565b604051906136e8826121b5565b600782527f626f6e75732829000000000000000000000000000000000000000000000000006020830152565b60405190613721826121b5565b600682527f63616765282900000000000000000000000000000000000000000000000000006020830152565b6040519061375a826121b5565b601982527f67657445666665637469766552616e6b286164647265737329000000000000006020830152565b60405190613793826121b5565b601882527f6765744e6f64654c766c446570746828616464726573732900000000000000006020830152565b604051906137cc826121b5565b601e82527f6765746e6f6465526e6b41676528616464726573732c75696e743235362900006020830152565b60088110156106b45760210190600090565b60405190613817826121b5565b601082527f6765744e6f6465286164647265737329000000000000000000000000000000006020830152565b908160a091031261042257805191602082015161385f81610588565b91604081015191608060608301516122fb816108c8565b60405190613883826121b5565b601a82527f77697468647261776e496e636f6d654f662861646472657373290000000000006020830152565b60185460081c60ff166144435760049060206138d661131b6000546001600160a01b031690565b604051938480927f447aa3040000000000000000000000000000000000000000000000000000000082525afa9182156113fe57600092614422575b5061395861125861394a61392d6001546001600160a01b031690565b604080516001600160a01b03909216602083015290928391820190565b613952613424565b84616cf0565b926001600160a01b038416156143fd57600582116143e45761398961397b612592565b61398361345d565b86616d75565b91601a546139978183612711565b8411156143d8576139a791612711565b909291925b60008052602f6020527fc11d2605466dd88923799a61d7f94d6c8cc580bae52b24870f6853eaa13cc4d6547fc11d2605466dd88923799a61d7f94d6c8cc580bae52b24870f6853eaa13cc4d754909490935b601a5484811015613e0457613a15613a1a9161254a565b601a55565b60008052602a6020527f25a1a901705ed15d5376e82511cff743d9474883c82d145cebcc7811e0424a9c613a4e815461254a565b9055601a5495613a7e604051613a70816112588b602083019190602083019252565b613a78613496565b8a616cf0565b90613a92613a8a612592565b61160b6134cf565b91613aa6613a9e612592565b61126e613508565b91613acb604051613ac38161125860208201906000602083019252565b61160b613541565b90613ae8613ae2613ada612592565b61398361357a565b93616eec565b9a6020613b48613b0361131b6000546001600160a01b031690565b6040519e8f809381927fcfaa1f6c000000000000000000000000000000000000000000000000000000008352600483019190916001600160a01b036020820193169052565b03915afa9b8c156113fe5760009c613de3575b50613b686115af8d616a5e565b6104c157613c4792613bd686613bd08761131b9681613b94613c3898600052602c602052604060002090565b55836001613bae601a54600052602c602052604060002090565b01558b6002613bc9601a54600052602c602052604060002090565b0155612711565b9d612711565b9c613c33613bec6001546001600160a01b031690565b60405163c85700fb60e01b60208201526001600160a01b0390911660248201526044810193909352606483018890526084830187905260a483018990528260c48101610ebb565b616e39565b60208082518301019101612782565b6001600160a01b03811615613dca577f1517c86fcf2bfb8e3468afcc539b0004955da8027797c497ea51d1f1094ab89893613d74613db192613c9c600391826117e0601a54600052602c602052604060002090565b611873613d43613d3b61186e6118a2613cea8a610f42611879613cdb613ccc6118418c546001600160a01b031690565b6020808251830101910161288d565b9e9491959b9293989050612841565b946118e1613d34602d613d168c6118a288613d108554600052602e602052604060002090565b92612711565b613d218a82546128c0565b905554600052602e602052604060002090565b938a612711565b9182546128dc565b90556001601a5414613dbc575b613d66601a54600052602c602052604060002090565b01546001600160a01b031690565b604080513381526001600160a01b03909216602083015281019490945260608401929092526080830191909152600060a0830152819060c0820190565b0390a19493946139fe565b613dc583601c55565b613d50565b604051635258db5f60e01b815260026004820152602490fd5b613dfd919c5060203d6020116113f7576113e78183612209565b9a38613b5b565b50939195925093613e1f60008052602f602052604060002090565b5560008052602f6020527fc11d2605466dd88923799a61d7f94d6c8cc580bae52b24870f6853eaa13cc4d755601a548381149384156143ce575b5060011015613ed6575b5050613e6b57565b60008052602f602052613ea461182f60017fc11d2605466dd88923799a61d7f94d6c8cc580bae52b24870f6853eaa13cc4d6015461280e565b613eaf601c54601d55565b613ec2613ebd601c546126f5565b612930565b61223861010061ff00196018541617601855565b613ef1613eec613ee4612592565b61160b6135b3565b601e55565b601e54601c54811161436c575b50613f2a613f1b613f0d612592565b613f15613625565b84616c17565b6020808251830101910161365e565b946001613f489592959493946001600052602b602052604060002090565b0155602b60209081527fbd6c10e6ce287735500a1c033be76c57d5e632addc2ff6eff6bb587b8ee0d95d919091557fd3904653c5d0f9b122879aa13f7287465a10522aedd588dbbd607cf6f8b21480919091557f8bd115fc6ec81ad72d5ca8a8b3bd3d0177f1b615af6ad35644a4e24a7bed08bd919091557f5ac1f6ea00ad8b0f699e3a293cc93d6fdaf7ee608fbc40ffef54db3fb7ebb9449190915560076000527f455b6dea826802a5b6200d61a7810fccbd36f05c878743e3ac0e0e7aff3a46e991909155604080516001600160a01b0384169281019290925261405691614047916140399082908101611258565b61404161368c565b85616c17565b602080825183010191016136c5565b602b6020527ffcc3d43705633578a5e8f1b6d6f38d08eb8cb891174edcc94b1a54972a1aebbd919091556004600052600080516020616f4e833981519152556140ab6119c96140a3612592565b61160b6136db565b6140c1613eec6140b9612592565b61160b613714565b6140fe6140f96040516140eb8161125886602083019190916001600160a01b036020820193169052565b6140f361374d565b85616d75565b601f55565b604080516001600160a01b038316602082015261412a916141229082908101611258565b61160b613786565b60005b81811061427d57505061416e610ebb6141949361416661417d94604051938491602083019190916001600160a01b036020820193169052565b610ed161380a565b60208082518301019101613843565b935050505060ff8019601854169115151617601855565b600460206141ad61131b6000546001600160a01b031690565b604051928380927f6325dd040000000000000000000000000000000000000000000000000000000082525afa9081156113fe5761422b91610ebb9160009161425e575b506142236142066001546001600160a01b031690565b604080516001600160a01b03909216602083015290938491820190565b6111a1613876565b6005600052602b6020527f4b5b933abde5416303ae4347d7fcdf5a17e8022e0fefc2b31c7609ebd3c32fea553880613e63565b614277915060203d6020116113f7576113e78183612209565b386141f0565b80614296916142df575b601f5481111561429b5761254a565b61412d565b604080516001600160a01b03861660208201529081018290526142da906142d1906142c98160608101611258565b6111f06137bf565b611ebb836137f8565b61254a565b6040517f5329daca0000000000000000000000000000000000000000000000000000000060208201526001600160a01b03851660248201526044810182905261433990614047906143338160648101611258565b87616e39565b9061434e83600052602f602052604060002090565b55600161436583600052602f602052604060002090565b0155614287565b601c5561439d61125861438f601e54604051928391602083019190602083019252565b6143976135ec565b83616db1565b6143c76143b6602d54600052602e602052604060002090565b601c54600052602052604060002090565b5538613efe565b1593506001613e59565b505081909291926139ac565b60405163cdab4c8760e01b815260036004820152602490fd5b9250505061440c613eec616ae8565b614417601e54601c55565b613ec2601e54601d55565b61443c91925060203d6020116113f7576113e78183612209565b9038613911565b50565b60405190614453826121b5565b601482527f6c6576656c436c617573652875696e74323536290000000000000000000000006020830152565b908160a0910312610422578051916020820151916040810151916080606083015192015190565b604051906144b3826121b5565b601382527f72616e6b436c617573652875696e7432353629000000000000000000000000006020830152565b90601f6144ec8154612703565b925b600884106144fc5750509050565b6003546001600160a01b031693604094614542614534875160209361452c82610ebb888883019190602083019252565b610ed16144a6565b82808251830101910161447f565b5050509183158015906145f6575b806145e6575b6145ce5761457c949596975054101590816145ac575b508061459a575b6145845761254a565b9291906144ee565b61458d81601f55565b6142da83611ebb836137f8565b5083546145a68261271e565b14614573565b905060016145c483600052602f602052604060002090565b015410153861456c565b8751635258db5f60e01b815260036004820152602490fd5b5081158061455657508215614556565b506001614550565b909190600083156146985750614615601f54612703565b831561474957600881105b1561474357600380546001600160a01b031690604091614656614534845160209361452c82610ebb8a8883019190602083019252565b505050939092851580159061473c575b8061472c575b6146f75750509061469893929154101590816146d5575b5085156146aa578061469d576145845761254a565b614615565b50601f546145a68261271e565b156146b8576142da81601f55565b6142da6146c4826137f8565b8154906000199060031b1b19169055565b905060016146ed83600052602f602052604060002090565b0154101538614683565b6114769250881561472357905b51635258db5f60e01b815260ff90911660048201529081906024820190565b50600490614704565b5083158061466c5750841561466c565b5088614666565b50509050565b601f54811115614620565b6102a061230791614ae361476782614c3e565b91614ade614ad9845160039061478c82610d276001600052602b602052604060002090565b905560608601516004600052602b6020526147b582600080516020616f4e833981519152610d27565b90556020868101516002600052602b9091526147f1827fbd6c10e6ce287735500a1c033be76c57d5e632addc2ff6eff6bb587b8ee0d95c610d27565b90556040860180516003600052602b602052909190614830827fd3904653c5d0f9b122879aa13f7287465a10522aedd588dbbd607cf6f8b2147f610d27565b905560808701516005600052602b60205261486b827f4b5b933abde5416303ae4347d7fcdf5a17e8022e0fefc2b31c7609ebd3c32fe9610d27565b905560a08701516006600052602b6020526148a6827f5ac1f6ea00ad8b0f699e3a293cc93d6fdaf7ee608fbc40ffef54db3fb7ebb943610d27565b905560c08701516007600052602b602052906148e2907f455b6dea826802a5b6200d61a7810fccbd36f05c878743e3ac0e0e7aff3a46e8610d27565b905560e08601516001600052602b602052600291614ad091614acb9190614929857ffcc3d43705633578a5e8f1b6d6f38d08eb8cb891174edcc94b1a54972a1aebbd610d27565b90556101408901516004600052602b60205261495385600080516020616f4e833981519152610d27565b90556101008901516002600052602b60205261498f857fbd6c10e6ce287735500a1c033be76c57d5e632addc2ff6eff6bb587b8ee0d95c610d27565b9055610120890180516003600052602b6020529094906149cf827fd3904653c5d0f9b122879aa13f7287465a10522aedd588dbbd607cf6f8b2147f610d27565b90556101608a01516005600052602b602052614a0b827f4b5b933abde5416303ae4347d7fcdf5a17e8022e0fefc2b31c7609ebd3c32fe9610d27565b90556101808a01516006600052602b602052614a47827f5ac1f6ea00ad8b0f699e3a293cc93d6fdaf7ee608fbc40ffef54db3fb7ebb943610d27565b90556101a08a01516007600052602b60205290614a84907f455b6dea826802a5b6200d61a7810fccbd36f05c878743e3ac0e0e7aff3a46e8610d27565b90556101c0890151614ac0614ab889614aa9602d54600052602e602052604060002090565b90600052602052604060002090565b9182546128c0565b905551601654612711565b601655565b51601754612711565b601755565b601c55565b0151151590565b614af261223a565b9060008083528060208401528060408401528060608401528060808401528060a08401528060c08401528060e08401528061010084015280610120840152806101408401528061016084015280610180840152806101a0840152806101c0840152806101e08401528061020084015280610220840152806102408401528061026084015280610280840152806102a0840152806102c08401526102e0830152565b60405190614ba0826121b5565b600a82527f73687574646f776e2829000000000000000000000000000000000000000000006020830152565b60405190614bd9826121b5565b601182527f696e636f6d654f662861646472657373290000000000000000000000000000006020830152565b60405190614c12826121b5565b601482527f636f6d70757465546f75722875696e74323536290000000000000000000000006020830152565b90614c47614aea565b9160039083614c5d83546001600160a01b031690565b92614c78614c69614b93565b614c716122a5565b9086616d39565b90614c81615c6e565b94909160608501958652828552614d7e84600193614d23614ce486614cb16001600052602b602052604060002090565b01546001600052602b602052867ffcc3d43705633578a5e8f1b6d6f38d08eb8cb891174edcc94b1a54972a1aebbd612a36565b6001600052602b60205260029790614d1d90897ffcc3d43705633578a5e8f1b6d6f38d08eb8cb891174edcc94b1a54972a1aebbd612a36565b9061272d565b885288516004600052602b602052600080516020616f4e83398151915280870154614d779291614d1d91614d58918990612a36565b6004600052602b60205289600080516020616f4e833981519152612a36565b8952615662565b93909260208a99939901986101c06101008c019b015289528752600014615466575050614db9610ebb611aa16004546001600160a01b031690565b3160408a01525b6009546001600160a01b031692614e1d614e01614de485546001600160a01b031690565b604080516001600160a01b03909216602083015290918291820190565b0395614e15601f1997888101845283612209565b6111a1614bcc565b6005600052602b60205291614eb4614e83857f4b5b933abde5416303ae4347d7fcdf5a17e8022e0fefc2b31c7609ebd3c32fe901546005600052602b602052847f4b5b933abde5416303ae4347d7fcdf5a17e8022e0fefc2b31c7609ebd3c32fe9612a36565b6005600052602b602052827f4b5b933abde5416303ae4347d7fcdf5a17e8022e0fefc2b31c7609ebd3c32fe9612a36565b60808c01818152938181111561545857614ed1915084519061272d565b83526004601f5483811015806153e1575b6153a4575b1015918261532c575b50506152ec575b6005600052603060205281614f2b7f9d0b70a39d4b3569f175af8ea51ae318eac80460c467ee4a16ee63ec5720706e61122d565b146152ce575b506006600052603060205280614f667fd558ed0e54509c62efb2aedb46e6ad1b04c7bdca351e3613e136c946b91686d861122d565b146152ae575b60076000526030602052614f9f7f4ebb69666752feecd656ebf5f8cd3c2f1c70bb06a0c3d3744be479e4a580c23361122d565b1461528e575b86518251614fb291612711565b9160408801928351614fc391612711565b8551614fce91612711565b9360e089019687518251614fe191612711565b938a6101208101958651614ff491612711565b97610140820198895161500691612711565b61500f91615a8a565b15156102a08801819052610280880191825261024088019283526102208801938452610260880194855261020088019586526101e088019687529098959792949293929061506a575b50505050505050505050505050505050565b6150ca61312161310d8f986150c26150e3986102e0986150e99c6150a861509c611aa16004546001600160a01b031690565b03878101845283612209565b319052519e51604051948591602083019190602083019252565b610ed1613366565b97519051106102c0870190815293519051109401938452565b51151590565b90818061527c575b60009215615256575050508082101561524f57505b965b8951888b8161521357505061511e908251612711565b9052600089525b8151876151ec579061513b600093928251612711565b9052525b8151856151c55790615155600093928251612711565b9052525b81519280615188575061516f6000938251612711565b9052525b3880808080808080808a818080808080615058565b91906151af6151a86151b8958086116000146151be57805b81865261272d565b8251612711565b9052519061272d565b50615173565b85906151a0565b906151af6151a86151e6959794938086116000146151be578081865261272d565b91615159565b906151af6151a861520d959994938086116000146151be578081865261272d565b9361513f565b615241949a506151a890615237929493808611600014615247578080925b5261272d565b905289519061272d565b95615125565b858092615231565b9050615106565b15615265575050505b96615108565b519192509015615275575061525f565b905061525f565b91506152888151151590565b916150f1565b600060c0880180516152a66101a08b01918251612711565b905252614fa5565b600060a0890180516152c66101808c01918251612711565b905252614f6c565b80600091516152e36101608c01918251612711565b90525238614f31565b6153226040516153148161530860208201906004602083019252565b03868101835282612209565b61531c614c05565b89616d75565b60c08a0152614ef7565b6007600052602b6020527f455b6dea826802a5b6200d61a7810fccbd36f05c878743e3ac0e0e7aff3a46e88086015461539c945061536b929091612a36565b6007600052602b602052907f455b6dea826802a5b6200d61a7810fccbd36f05c878743e3ac0e0e7aff3a46e8612a36565b153880614ef0565b8c60a06153d98d604051906153d1826153c560208201906002602083019252565b038d8101845283612209565b6111a1614c05565b910152614ee7565b506006600052602b6020527f5ac1f6ea00ad8b0f699e3a293cc93d6fdaf7ee608fbc40ffef54db3fb7ebb943808701546154529161542191908790612a36565b6006600052602b602052847f5ac1f6ea00ad8b0f699e3a293cc93d6fdaf7ee608fbc40ffef54db3fb7ebb943612a36565b15614ee2565b6154619161272d565b614ed1565b60408b01526101208a0152614dc0565b604051906040820182811067ffffffffffffffff821117611edb5760405260006020838281520152565b604051906154ad8261217c565b816154b6615476565b81526154c0615476565b602082015260406154cf615476565b910152565b604051906154e1826121b5565b601882527f6765744261746368526f79616c7479436c6175736573282900000000000000006020830152565b6102a09081818403126104225782601f82011215610422576040805193615533856121ed565b849383019281841161042257935b83851061555057505050505090565b6060858303126104225782516060916155688261217c565b8651825260209182880151838201528588015186820152815201940193615541565b60405190615597826121b5565b601f82527f676574526f79616c697479416d6f756e7442617463682875696e7432353629006020830152565b9060e0828203126104225780601f8301121561042257604051916155e6836121ed565b829060e0810192831161042257905b8282106156025750505090565b81518152602091820191016155f5565b9060078110156106b45760051b0190565b8181029291600082127f8000000000000000000000000000000000000000000000000000000000000000821416610acc578184051490151715610acc57565b9160009260009260009260009260009261567a6154a0565b6156838361599e565b82519060208201525261569583615a14565b6020830151906020820152526156aa83615a4f565b6040830151906020820152526156f36156e46156ce6003546001600160a01b031690565b6156d66154d4565b6156de6122a5565b91616c17565b6020808251830101910161550d565b92601c549261570a6004546001600160a01b031690565b93601f54905b8381106157205750505050505050565b61575c61574d60405161573f8161125886602083019190602083019252565b61574761558a565b89616c17565b602080825183010191016155c3565b6001905b8382111561587f575050821561577f575b61577a9061254a565b615710565b6157a461579c82614aa9602d54600052602e602052604060002090565b54809c6128c0565b9a6157af828661272d565b9060009160408801518051888110615829575b5050808311615821575b826157d69161272d565b918061580b575b50816157eb575b5050615771565b9a6157fd6158039261577a949d615623565b906128c0565b9990386157e4565b9a6157fd829c61581a93615623565b99386157dd565b9150816157cc565b808611156158765750602085915b016158428151612703565b8910156158675750875b818111156157c25761585f92945061272d565b9138806157c2565b6158719051612703565b61584c565b60209091615837565b909c61589361588d8f61271e565b8a615612565b515115801561593e575b61593457865180518410159081615925575b5080156158fe575b156158e2576158d66158dc918f6158d06132049161271e565b85615612565b9d61254a565b90615760565b9c9d6158f88f916132046158d06158dc9461271e565b9e61254a565b50602087015180518410159081615916575b506158b7565b60209150015183111538615910565b602091500151831115386158af565b9c6158dc9061254a565b508d61595661594c826137f8565b90549060031b1c90565b8410159081615967575b501561589d565b6159959150604061598c61598661598061594c856137f8565b9361271e565b8d615612565b51015190612711565b8311158e615960565b906103e7600052603060205260406000208054908115615a0e576001821615938415615a055760ff60025b168303838111610acc576159dd9083612485565b90549060031b1c946000146159ff57506159f961594c9261271e565b90612485565b91505090565b60ff60016159c9565b50508190565b906002600052603060205260406000208054908115615a0e576001821615938415615a05576001198301838111610acc576159dd9083612485565b906003600052603060205260406000208054908115615a0e576001821615938415615a05576001198301838111610acc576159dd9083612485565b91615aee6000615aaa61297161296760008052602f602052604060002090565b93615ab3615c6e565b505060335460ff8116615c49575b60ff8160081c16615c06575b60ff8160101c16615bbe575b60181c60ff16615b89575b612a5e9086612711565b928284119190848315615b845750835b92615b59615b176129d46129cb60155460135490612711565b601454909360008115615b7c5750613121610ebb612a5e92613119615b446003546001600160a01b031690565b91604051938491602083019190602083019252565b92828411918215615b7657835b928115615b71575090565b905090565b84615b66565b905090612711565b615afe565b6004600052602b60205290612a5e90615bb69082612a3e6001600080516020616f4e833981519152612a18565b919050615ae4565b6003600052602b6020529160ff90615bfe90612a5e612ad960017fd3904653c5d0f9b122879aa13f7287465a10522aedd588dbbd607cf6f8b2147f612aa5565b929050615ad9565b6002600052602b60205291615c4390612a5e612b8060017fbd6c10e6ce287735500a1c033be76c57d5e632addc2ff6eff6bb587b8ee0d95c612b4c565b91615acd565b9150615c68612c0b6001612bd76001600052602b602052604060002090565b91615ac1565b600090816001815b600f821115615cdb5750506001600052602b6020527ffcc3d43705633578a5e8f1b6d6f38d08eb8cb891174edcc94b1a54972a1aebbd548101809111610acc576004600052602b6020529161230790600080516020616f4e8339815191525490612711565b9093848252602f92602093808552604090600282862001548301809311610acc576003929588865252832001548101809111610acc57615d1b909461254a565b90615c76565b90615d2a612c43565b916001808214615e0357506002808214615e0357506003808214615e03575060048114615d9957600514615d5a57565b9050615d6461227c565b601254815260135460208201526015546040820152601454606082015260006080820152600060a0820152600060c082015290565b509050615da461227c565b60165481526017546020820152615dc66001600052602b602052604060002090565b5460408201526004600052602b602052600080516020616f4e83398151915254606082015260006080820152600060a0820152600060c082015290565b91925050615e0f61227c565b7ffcc3d43705633578a5e8f1b6d6f38d08eb8cb891174edcc94b1a54972a1aebbd82015481527fbd6c10e6ce287735500a1c033be76c57d5e632addc2ff6eff6bb587b8ee0d95c8201546020808301919091527fd3904653c5d0f9b122879aa13f7287465a10522aedd588dbbd607cf6f8b2147f8301546040830152600080516020616f4e83398151915283015460608301527f4b5b933abde5416303ae4347d7fcdf5a17e8022e0fefc2b31c7609ebd3c32fe983015460808301527f5ac1f6ea00ad8b0f699e3a293cc93d6fdaf7ee608fbc40ffef54db3fb7ebb94383015460a08301526007600052602b90527f455b6dea826802a5b6200d61a7810fccbd36f05c878743e3ac0e0e7aff3a46e89091015460c082015290565b60405190615f3782612160565b60006060838281528260208201528260408201520152565b90604051615f5c81612160565b6060600382948054845260018101546020850152600281015460408501520154910152565b67ffffffffffffffff8111611edb5760051b60200190565b90615fa382615f81565b615fb06040519182612209565b8281528092615fc1601f1991615f81565b019060005b828110615fd257505050565b602090615fdd615f2a565b82828501015201615fc6565b80518210156106b45760209160051b010190565b6162e26101c06122389261603761601b82516001600160a01b031690565b6001600160a01b03166001600160a01b03196002541617600255565b61606a61604e60208301516001600160a01b031690565b6001600160a01b03166001600160a01b03196003541617600355565b61609d61608160408301516001600160a01b031690565b6001600160a01b03166001600160a01b03196004541617600455565b6160d06160b460608301516001600160a01b031690565b6001600160a01b03166001600160a01b03196005541617600555565b6161036160e760808301516001600160a01b031690565b6001600160a01b03166001600160a01b03196006541617600655565b61613661611a60a08301516001600160a01b031690565b6001600160a01b03166001600160a01b03196007541617600755565b61616961614d60c08301516001600160a01b031690565b6001600160a01b03166001600160a01b03196008541617600855565b61619c61618060e08301516001600160a01b031690565b6001600160a01b03166001600160a01b03196009541617600955565b6161d06161b46101008301516001600160a01b031690565b6001600160a01b03166001600160a01b0319600a541617600a55565b6162046161e86101208301516001600160a01b031690565b6001600160a01b03166001600160a01b0319600b541617600b55565b61623861621c6101408301516001600160a01b031690565b6001600160a01b03166001600160a01b0319600c541617600c55565b61626c6162506101608301516001600160a01b031690565b6001600160a01b03166001600160a01b0319600d541617600d55565b6162a06162846101808301516001600160a01b031690565b6001600160a01b03166001600160a01b0319600e541617600e55565b6162d46162b86101a08301516001600160a01b031690565b6001600160a01b03166001600160a01b0319600f541617600f55565b01516001600160a01b031690565b6001600160a01b03166001600160a01b03196010541617601055565b61631361131b6000546001600160a01b031690565b604051907f97f3815a000000000000000000000000000000000000000000000000000000008252602082600481845afa9182156113fe576000926169a3575b50604051917fcfbffe53000000000000000000000000000000000000000000000000000000008352602083600481855afa9283156113fe57600093616982575b50604051907fab6e844f000000000000000000000000000000000000000000000000000000008252602082600481865afa9182156113fe57600092616961575b50604051917f14d8d024000000000000000000000000000000000000000000000000000000008352602083600481875afa9283156113fe57600093616940575b50604051927fd1f956b1000000000000000000000000000000000000000000000000000000008452602084600481885afa9384156113fe5760009461691f575b50604051937fe61dfd58000000000000000000000000000000000000000000000000000000008552602085600481895afa9485156113fe576000956168fe575b506040517fe09d394d0000000000000000000000000000000000000000000000000000000081526020816004818a5afa9081156113fe576000916168df575b506040517f52b06d640000000000000000000000000000000000000000000000000000000081526020816004818b5afa9081156113fe576000916168c0575b506040517f013cf08b00000000000000000000000000000000000000000000000000000000815260006004820152916020836024818c5afa9283156113fe5760009361689f575b50604051977f5e09dbe70000000000000000000000000000000000000000000000000000000089526020896004818d5afa9485156113fe5760049960009661687e575b5060208b6040519b8c80927faa0ddc160000000000000000000000000000000000000000000000000000000082525afa9687156113fe5760049a60009861685d575b5060208c6040519c8d80927f640274270000000000000000000000000000000000000000000000000000000082525afa9889156113fe5760049b60009a61683c575b5060208d6040519d8e80927f30125cf50000000000000000000000000000000000000000000000000000000082525afa9a8b156113fe578d60049d60009d61681a575b506020906040519e8f80927f24768d910000000000000000000000000000000000000000000000000000000082525afa9c8d156113fe5760009d6167f9575b50604051809e81907f9dc969a80000000000000000000000000000000000000000000000000000000082525a92600491602094fa9d8e156113fe5760009e6167d8575b506166ec61225b565b6001600160a01b0390911681529d8e906001600160a01b031660208201526040019061672091906001600160a01b03169052565b6001600160a01b031660608d01526001600160a01b031660808c01526001600160a01b031660a08b01526001600160a01b031660c08a01526001600160a01b031660e08901526001600160a01b03166101008801526001600160a01b03166101208701526001600160a01b03166101408601526001600160a01b03166101608501526001600160a01b03166101808401526001600160a01b03166101a08301526001600160a01b03166101c082015261223890615ffd565b6167f2919e5060203d6020116113f7576113e78183612209565b9c386166e3565b616813919d5060203d6020116113f7576113e78183612209565b9b386166a0565b6020919d5061683590823d84116113f7576113e78183612209565b9c90616661565b616856919a5060203d6020116113f7576113e78183612209565b983861661e565b61687791985060203d6020116113f7576113e78183612209565b96386165dc565b61689891965060203d6020116113f7576113e78183612209565b943861659a565b6168b991935060203d6020116113f7576113e78183612209565b9138616557565b6168d9915060203d6020116113f7576113e78183612209565b38616510565b6168f8915060203d6020116113f7576113e78183612209565b386164d1565b61691891955060203d6020116113f7576113e78183612209565b9338616492565b61693991945060203d6020116113f7576113e78183612209565b9238616452565b61695a91935060203d6020116113f7576113e78183612209565b9138616412565b61697b91925060203d6020116113f7576113e78183612209565b90386163d2565b61699c91935060203d6020116113f7576113e78183612209565b9138616392565b6169bd91925060203d6020116113f7576113e78183612209565b9038616352565b908160209103126104225751612307816108c8565b616a346001600160a01b03600254166040516169f4816121b5565b600881527f6973536166652829000000000000000000000000000000000000000000000000602082015260405191616a2b836121d1565b60008352616c42565b9080616a53575b1561064c5780602080612307935183010191016169c4565b506020815114616a3b565b616ac16001600160a01b038060025416604051916020941684830152838252616a86826121b5565b60405190616a93826121b5565b601582527f697353656375726542617365286164647265737329000000000000000000000085830152616c42565b9080616ade575b1561064c578161230792825183010191016169c4565b5081815114616ac8565b6123076001600160a01b0360035416604051616b03816121b5565b600681527f6941676528290000000000000000000000000000000000000000000000000000602082015260405191611113836121d1565b6001600160a01b0380911690811561080857600154826001600160a01b0319821617600155167f8292fce18fa69edf4db7b94ea2e58241df0ae57f97e0a6c9b29067028bf92d76600080a3565b3d15616bb2573d90616b9882612289565b91616ba66040519384612209565b82523d6000602084013e565b606090565b908015616c13576001600160a01b03821691821561080857600080808481945af1616be0616b87565b501561064c5760207fcec1f18c3ab8ddaaa107a1591e3c369667eec613626611a8deaedef43069fcdd91604051908152a2565b5050565b90616c229291616c42565b9060009015616c2f575090565b6040519150616c3d826121d1565b815290565b9190823b15616cd7577fffffffff00000000000000000000000000000000000000000000000000000000815160208093012016916040519180830193845281519160005b838110616cc3575050509181616cb360248260009795968897018783820152036004810184520182612209565b51915afa616cbf616b87565b9091565b818101830151858201602401528201616c86565b505050600090604051616ce9816121d1565b6000815290565b9291616cfe91600094616c42565b9080616d2e575b616d0c5750565b6001600160a01b0391925080602080616d2a93518301019101612782565b1690565b506020815114616d05565b9291616d4791600094616c42565b9080616d6a575b616d555750565b612307919250602080825183010191016169c4565b506020815114616d4e565b9291616d8391600094616c42565b9080616da6575b616d915750565b61230791925060208082518301019101612dbe565b506020815114616d8a565b9291616dbf91600094616c42565b9080616de4575b616dcd5750565b909150602081805181010312610422576020015190565b506020815114616dc6565b90602082519201517fffffffff00000000000000000000000000000000000000000000000000000000908181169360048110616e2a57505050565b60040360031b82901b16169150565b6001600160a01b0381161561080857600080918351908260208601915af190616e60616b87565b9115616e6a575090565b805160009190600411616ee657616e819150616def565b815115616e915750805190602001fd5b6040517f21c09d340000000000000000000000000000000000000000000000000000000081527fffffffff00000000000000000000000000000000000000000000000000000000919091166004820152602490fd5b50616e81565b803b6000616ef982612289565b92616f076040519485612209565b82845260208401903c602d815110616f2357602a015160601c90565b60046040517fbaf3f0f7000000000000000000000000000000000000000000000000000000008152fdfe8bd115fc6ec81ad72d5ca8a8b3bd3d0177f1b615af6ad35644a4e24a7bed08bca2646970667358221220c652aa56b6f0bb1df647c08046acf768733b7ce314495a6c156cb44d6e7a9cc764736f6c63430008140033","linkReferences":{}},"methodIdentifiers":{"instanceStor()":"131c73ad"},"id":82}