{"abi":[{"type":"constructor","inputs":[{"name":"_hex","type":"address","internalType":"address"}],"stateMutability":"nonpayable"},{"type":"function","name":"instanceStor","inputs":[],"outputs":[{"name":"","type":"address","internalType":"address"}],"stateMutability":"view"}],"bytecode":{"object":"0x6080346100c5576001600160401b0390601f61705c38819003918201601f1916830191848311848410176100af578084926020946040528339810103126100c557516001600160a01b039190828116908190036100c55760405191616f0390818401908111848210176100af576020928492610159843981520301906000f080156100a3571660018060a01b03196000541617600055604051608e90816100cb8239f35b6040513d6000823e3d90fd5b634e487b7160e01b600052604160045260246000fd5b600080fdfe6080806040526004361015601257600080fd5b600090813560e01c63131c73ad14602857600080fd5b346054578160031936011260545773ffffffffffffffffffffffffffffffffffffffff60209254168152f35b5080fdfea26469706673582212200e871ae3ad738be2a314d5ac34a2a69e0fa9a6e5ba0454eb5a1e50d6d923157a64736f6c63430008140033608034620000bf57601f62006f0338819003918201601f19168301916001600160401b03831184841017620000c457808492602094604052833981010312620000bf57516001600160a01b03811690819003620000bf578015620000ad5760018060a01b03199033826001541617600155600091825416178155600160115580601255806013558060145580601555806016558060175580601855601955604051616e289081620000db8239f35b60405163e6c4247b60e01b8152600490fd5b600080fd5b634e487b7160e01b600052604160045260246000fdfe60806040526004361015610018575b361561001657005b005b60003560e01c806302a085f214610328578063043719b41461032357806309d8da2e1461031e5780630b98f9751461031957806312065fe014610314578063129641201461030f578063143ec3b71461030a5780631f185d16146103055780632697a77a1461030057806329ee350e146102fb578063339459a6146102f657806339b4d61b146102f15780633b9b7955146102ec57806343a1b5ab146102e75780634a65786c146102e25780635ecf6a8a146102dd578063619d5194146102d85780636350b2c2146102d3578063654c668e146102ce57806369245009146102c95780636de97c66146102c45780636f493aad146102bf578063711e5870146102ba578063725b6fff146102b5578063759f22bd146102b057806375b4d78c146102ab578063799e4c45146102a65780637b058ac1146102a1578063822ffec41461029c578063880cdc31146102975780638da5cb5b14610292578063934209ce1461028d5780639659867e14610288578063a1f7f53914610283578063a5d7cda41461027e578063a663030414610279578063a9bf285b14610274578063ab57c03a1461026f578063af4845261461026a578063af640d0f14610265578063b90306ad14610260578063b9f1a3941461025b578063c54e44b014610256578063c8ef7b1a14610251578063d3abb8a31461024c578063da02133514610247578063e01ad5fd14610242578063e0a9bc2b1461023d5763fdc10bc90361000e57612429565b61240e565b61238e565b612309565b6122ad565b6121cb565b612193565b612032565b611f03565b611ee5565b611eb4565b611d86565b611d68565b611725565b611328565b6112b3565b611295565b611277565b611250565b6111e5565b610e30565b610cff565b610ce1565b610cc3565b610bd4565b610b50565b610ad6565b610a9c565b610a0a565b6109b2565b61095d565b610906565b61089e565b610885565b61085f565b610841565b61081a565b6107ee565b6107d5565b61079c565b61066a565b610592565b610555565b61050c565b6104f0565b61047f565b61045c565b610420565b61035c565b610120810192916000915b6009831061034557505050565b600190825181526020809101920192019190610338565b60408060031936011261041b5780519061037582612492565b61012036833760ff601a541661040b5761038d6168ac565b156103fb5761039b33616931565b80156103e7575b156103d7576103c36103d3926103b6612bd9565b6024359060043590612d75565b906001601155519182918261032d565b0390f35b6004905163ea8e4eb560e01b8152fd5b50336001600160a01b0360055416146103a2565b60049051634ee2123760e11b8152fd5b6004905163baf3f0f760e01b8152fd5b600080fd5b3461041b57604036600319011261041b576004356000526032602052602061044e602435604060002061289b565b90546040519160031b1c8152f35b3461041b57600036600319011261041b57602060ff601a54166040519015158152f35b3461041b57602036600319011261041b576104986168ac565b156104df576104a633616931565b80156104cb575b156104ba57600435601b55005b600460405163ea8e4eb560e01b8152fd5b50336001600160a01b0360055416146104ad565b6004604051634ee2123760e11b8152fd5b3461041b57600036600319011261041b57602047604051908152f35b3461041b57604036600319011261041b57610528600435615c1e565b60405190600090825b6007831061053e5760e084f35b600190825181526020809101920192019190610531565b3461041b57602036600319011261041b5760043560005260326020526020604060002054604051908152f35b6001600160a01b0381160361041b57565b3461041b5760208060031936011261041b576106116004356105b381610581565b6001600160a01b038060025416906040519216848301528382526105d6826124af565b604051906105e3826124af565b601182527f69735369676e657228616464726573732900000000000000000000000000000085830152616b11565b919080610656575b15610645578181610633926103d394518301019101616897565b60405190151581529081906020820190565b6004604051633204506f60e01b8152fd5b5080825114610619565b8015150361041b57565b3461041b57608036600319011261041b5760043561068781610581565b60243561069381610581565b606435906106a082610660565b6001600160a01b03809316908115808015610792575b6107815761075757610708916000948554826001600160a01b03198216178755167fe939feee179e631422bcc8f6e6d7d908cb3f8af38f5372f17c77e15aea5c80ee8680a3610703612757565b616a0d565b610713604435601d55565b61071a5780f35b61072a6107256169bb565b602055565b610735602054601e55565b610740602054601f55565b61075461010061ff0019601a541617601a55565b80f35b60046040517fe6c4247b000000000000000000000000000000000000000000000000000000008152fd5b600460405163baf3f0f760e01b8152fd5b50848216156106b6565b3461041b57600036600319011261041b5760215460088110156107d057602381015460408051928352602083019190915290f35b612885565b3461041b57600036600319011261041b576100166161d1565b3461041b57602036600319011261041b57600435600052602c6020526020604060002054604051908152f35b3461041b57600036600319011261041b5760206001600160a01b0360005416604051908152f35b3461041b57600036600319011261041b576020602f54604051908152f35b3461041b57600036600319011261041b57602060ff601a5460081c166040519015158152f35b3461041b57600036600319011261041b57610016612757565b3461041b57602036600319011261041b576004356108bb81610660565b6108c36168ac565b156104df576108d133616931565b80156108f2575b156104ba5760ff8019601a54169115151617601a55600080f35b50336001600160a01b0360055416146108d8565b3461041b57602036600319011261041b57600435600052602e602052608060406000208054906001810154906001600160a01b03600360028301549201541691604051938452602084015260408301526060820152f35b3461041b57604036600319011261041b576109766168ac565b156104df5761098433616931565b801561099e575b156104ba57600435601455602435601655005b50336001600160a01b03600554161461098b565b3461041b57600036600319011261041b5760208054604051908152f35b6020908160408183019282815285518094520193019160005b8281106109f6575050505090565b8351855293810193928101926001016109e8565b3461041b57600036600319011261041b576021546001810190818111610a9757610a3382615ea4565b91610a416040519384612503565b808352610a50601f1991615ea4565b0136602084013760005b81811115610a7057604051806103d385826109cf565b60088110156107d05780610a929160230154610a8c8286615ebc565b52612960565b610a5a565b61294a565b3461041b57604036600319011261041b57600435600052603060205260406000206024356000526020526020604060002054604051908152f35b3461041b57602036600319011261041b57600435610af381610660565b610afb6168ac565b156104df57610b0933616931565b8015610b3c575b156104ba5715610b2a57610b25602254612960565b602255005b6022548015610a975760001901602255005b50336001600160a01b036005541614610b10565b3461041b57600036600319011261041b576020601e54604051908152f35b6020908160408183019282815285518094520193019160005b828110610b95575050505090565b9091929382608082610bc86001948951606080918051845260208101516020850152604081015160408501520151910152565b01950193929101610b87565b3461041b57604036600319011261041b5760243560043581811161078157808203918211610a9757600190818301809311610a9757610c1283615ea4565b92610c206040519485612503565b808452610c2f601f1991615ea4565b0160005b818110610cac575050816000905b610c54575b604051806103d38682610b6e565b8351811015610ca75780610c86610c81610c71610ca19486612a2b565b6000526031602052604060002090565b615e72565b610c908287615ebc565b52610c9b8186615ebc565b50612960565b82610c41565b610c46565b602090610cb7615e4d565b82828801015201610c33565b3461041b57600036600319011261041b576020601b54604051908152f35b3461041b57600036600319011261041b576020602254604051908152f35b3461041b5760a036600319011261041b57604435602435600435608435610d2581610660565b610d2d6168ac565b156104df57610d3b33616931565b8015610e1c575b156104ba5760009260009480610d63575b6040805186815260208101889052f35b90919293506021549483600014610dd457506001610db382610dc796610da1610d99610dbc966000526031602052604060002090565b918254612a2b565b90556000526031602052604060002090565b01918254612a2b565b90555b606435614418565b6021549038808080610d53565b808260409252603160205220938454908103908111610a9757610e0c610e1592600192610dc797556000526031602052604060002090565b01918254612a47565b9055610dbf565b50336001600160a01b036005541614610d42565b3461041b5760c036600319011261041b5760443560643560a435602435600435610e5983610660565b610e616168ac565b156104df57610e6f33616931565b80156111d1575b156104ba57610e8f856000526031602052604060002090565b610e9a828254612a2b565b905560019384610eb4876000526031602052604060002090565b01610ec0848254612a2b565b90556000805260316020527f346dc135129bcc5b8e8f6ff902940f16dc0729d02b27118b912aa326da88b831541515806111c8575b610f08575b602154604051908152602090f35b610f86921593841592836111ba575b610f75610f66610f4a610f326003546001600160a01b031690565b610f588c604051938491602083019190602083019252565b03601f198101845283612503565b610f60614294565b90616ae6565b602080825183010191016142cd565b959198909660209493945490612a47565b608435119182156111ad575b50816111a4575b50610fa7575b505050610efa565b600395611012956000901561119b5750610fcd610fc7610fd39385612b25565b91612ab4565b906129a8565b955b600090156111915750610fc7610fee93610fcd92612b25565b945b6002611006826000526031602052604060002090565b01610da1858254612a2b565b0161101e848254612a2b565b90556001600052603260205281807f0d07fe408fa264e656a9c06e272928e4d4bb400d93cd5b5e74ac592f6170c2fd541614801561115a575b61111d575b506004600052603260205280807f3f52cf82629296489b84e1dbb72f035157400392aa100335795b652755f8cdda5416149081156110e5575b506110a8575b8080808080808080610f9f565b6004600052602d6020526110dd60027faa2e4aefbe0e8a3f17f0ef1a62898433725e8346722aad5b9b38d3974d216083610db3565b90553861109b565b6103e760005260326020529050807f4a392a5ba0654924db65f19538db6461a3d6763bf0797df25c3b2d5e7c8c7cef54161438611095565b6001600052602d60205261115260027f4ac3b22e31fa68474eb1c8f858cd447cf1ee3eef7de8984178a7afa8f4fe0cd0610db3565b90553861105c565b506103e7600052603260205281807f4a392a5ba0654924db65f19538db6461a3d6763bf0797df25c3b2d5e7c8c7cef541614611057565b9250505094610ff0565b91505095610fd5565b90501538610f99565b6021541015915038610f92565b6111c38361432d565b610f17565b50851515610ef5565b50336001600160a01b036005541614610e76565b3461041b57602036600319011261041b5760043561120281610581565b61120a6168ac565b156104df5761121833616931565b801561123c575b156104ba576001600160a01b038116156104ba5761001690616a0d565b50336001600160a01b03600554161461121f565b3461041b57600036600319011261041b5760206001600160a01b0360015416604051908152f35b3461041b57600036600319011261041b576020602154604051908152f35b3461041b57600036600319011261041b576020601c54604051908152f35b3461041b57600036600319011261041b5760206113206001600160a01b03600654166040516112e1816124af565b601381527f67657464656c656761746f72436f756e742829000000000000000000000000008482015260405191611317836124cb565b60008352616c44565b604051908152f35b60408060031936011261041b576004803560243560ff601a54166117165761134e612bd9565b6113566169bb565b90601e546113648282612a2b565b83111561170e576113759250612a2b565b925b6113b46113af6113a96113926003546001600160a01b031690565b61139a613235565b906113a36125b2565b90616c44565b866129a8565b602b55565b6113ca602b54600052602c602052604060002090565b546113f16113e06003546001600160a01b031690565b6113e8613235565b906113a36125eb565b116116ff578254601d548251602080820192909252908152601f199161143491906001600160a01b0316611426604083612503565b61142e61296f565b90616bbf565b936001600160a01b0394858116156116f0576103e760005260326020526001807f4a392a5ba0654924db65f19538db6461a3d6763bf0797df25c3b2d5e7c8c7cef541614611624575b506114bd6114936003546001600160a01b031690565b8451602081018790526040948501815290936114af9082612503565b6114b761324d565b84616c44565b34036116165750936115ae91846115176115087f1517c86fcf2bfb8e3468afcc539b0004955da8027797c497ea51d1f1094ab898986114fa613286565b61150261259f565b91616ae6565b602080825183010191016132bf565b95919a909394169916928015158061160d575b6115ec575b5050801515806115e3575b6115bb575b50505061155661155134601254612a2b565b601255565b61156a61156585601554612a2b565b601555565b61157382612c14565b513381526001600160a01b039094166020850152604084019290925234606084015260808301919091526103e860a0830152819060c0820190565b0390a16100166001601155565b6115db92610fcd6115cf6115d59334612b25565b91612ac5565b90616a8a565b38808061153f565b5081151561153a565b61160691610fcd6115cf6116009334612b25565b89616a8a565b388061152f565b5089151561152a565b8251633204506f60e01b8152fd5b909592949293919031156116415785855163baf3f0f760e01b8152fd5b6013546014546016546017546012546015548a51958652602086019490945260408501929092526060840152608083015260a082015260c08101859052939592949193919290917fb359d8408cffc6b8788774a87b59f0d5be825576ea5fdd7b0917fed6a07e80309060e090a16116b86000601355565b6116c26000601455565b6116cc6000601655565b6116d66000601755565b6116e06000601255565b6116ea6000601555565b3861147d565b50825163baf3f0f760e01b8152fd5b905051633204506f60e01b8152fd5b505092611377565b82845163baf3f0f760e01b8152fd5b60c036600319011261041b57600480359061173f82610581565b6064359160443560a4356084356117546168ac565b15611d585761176233616931565b8015611d44575b15611d345760ff601a5416611d2457611780612bd9565b84546001600160a01b031694601d54906040956117c08751806117ac6020968783019190602083019252565b0399611426601f199b8c8101845283612503565b6001600160a01b03811615611d15576103e760005260326020526001807f4a392a5ba0654924db65f19538db6461a3d6763bf0797df25c3b2d5e7c8c7cef541614611c45575b5061181761181382616931565b1590565b611c365761182a6113af603354876129a8565b602b5461184181600052602c602052604060002090565b5460345411801590611c20575b611c115761186690600052602c602052604060002090565b8054600101905560018414988915611c0a576118b961188d6003546001600160a01b031690565b8951906118b1826118a58c8a83019190602083019252565b038d8101845283612503565b6113a36129c8565b995b611bc6575b50601c5415611baf575b601c546118d690612960565b601c556118e1612525565b9789895286848a015285888a0152606089019860008a52601c5461190f90600052602e602052604060002090565b9061191991612a54565b600154885163c85700fb60e01b868201526001600160a01b0390911660248083019190915235604482015260648101889052608481018b905260a4810187905260c491820181529061196b9082612503565b61197491616d08565b8280825183010191019061198791612a9c565b6001600160a01b031680885215611ba1575091611b7e8492611b41611b2a611aa5611aa0611b18611ab08e610fcd8f6103d39f9e7f1517c86fcf2bfb8e3468afcc539b0004955da8027797c497ea51d1f1094ab8989e611a67611a62611a5a611a55611a9195611a38611a04611aab99516001600160a01b031690565b6003611a1c601c54600052602e602052604060002090565b01906001600160a01b03166001600160a01b0319825416179055565b611a4c611a478b601354612a2b565b601355565b60375490612b25565b612adb565b601754612a2b565b601755565b611a84611a7c6003546001600160a01b031690565b6114fa612b38565b8051810182019101612b71565b9c9491959b9293989050612b25565b612b25565b93612b25565b612af8565b91611ae2611aca602f546000526030602052604060002090565b611ad4838c612a2b565b600052602052604060002090565b611aed848254612ba4565b9055611ad484611b13611b0c602f546000526030602052604060002090565b938c612a2b565b612a2b565b611b23828254612bc0565b9055612b25565b98611b3485612c14565b516001600160a01b031690565b86513381526001600160a01b039091166020820152604081019490945260608401899052608084019290925260a0830191909152819060c0820190565b0390a1611b8b6001601155565b5191825260208201929092529081906040820190565b855163baf3f0f760e01b8152fd5b611bb885601e55565b611bc185601f55565b6118ca565b601b54908a611bd58383612a2b565b10611bfb578a611beb611bf593611bf093612a2b565b612a47565b601b55565b386118c0565b83895163baf3f0f760e01b8152fd5b80996118bb565b828851633204506f60e01b8152fd5b5060355487108061184e5750603654871161184e565b50855163ea8e4eb560e01b8152fd5b9198969795949392913115611c635788885163baf3f0f760e01b8152fd5b6013546014546016546017546012546015548d51958652602086019490945260408501929092526060840152608083015260a082015260c08101859052969895979694959394929391927fb359d8408cffc6b8788774a87b59f0d5be825576ea5fdd7b0917fed6a07e80309060e090a1611cdd6000601355565b611ce76000601455565b611cf16000601655565b611cfb6000601755565b611d056000601255565b611d0f6000601555565b38611806565b82885163baf3f0f760e01b8152fd5b8460405163baf3f0f760e01b8152fd5b8460405163ea8e4eb560e01b8152fd5b50336001600160a01b036005541614611769565b84604051634ee2123760e11b8152fd5b3461041b57600036600319011261041b576020601f54604051908152f35b3461041b57600036600319011261041b576021611da38154612a01565b60088110611dad57005b611e5e90611df9611dc66003546001600160a01b031690565b611dec604051602092611de482610f4a888783019190602083019252565b610f606142f4565b80518101820191016142cd565b5050509060225410159081611e92575b5080611e80575b15611e6357611e59611e2e611e2483613690565b90549060031b1c90565b611e3783602155565b611e4083613690565b90919082549060031b91821b91600019901b1916179055565b612960565b611da3565b611e59611e6f82613690565b8154906000199060031b1b19169055565b508254611e8c82612a38565b14611e10565b90506001611eaa836000526031602052604060002090565b0154101538611e09565b3461041b57602036600319011261041b576020611edb600435611ed681610581565b616931565b6040519015158152f35b3461041b57600036600319011261041b576020601d54604051908152f35b3461041b57602036600319011261041b57600435611f1f6168ac565b156104df576001600160a01b036005541633036104ba5760009060046020611f5d611f5185546001600160a01b031690565b6001600160a01b031690565b604051928380927f46f991ac0000000000000000000000000000000000000000000000000000000082525afa801561202d5783808481949382948391611fff575b505af1611fa9616a5a565b5015610645577fcdcc745fe377b103b45fa0cec23ae3ef93d6fc6a84a01f0d18c40b354dd1d5d8611ff9611fe8611f51600b546001600160a01b031690565b604051938452929081906020820190565b0390a280f35b612020915060203d8111612026575b6120188183612503565b810190612a9c565b38611f9e565b503d61200e565b6132ff565b3461041b57602036600319011261041b5761204b614a98565b506120546169bb565b601e54906004358201809211610a97576103009161207a918181111561218c5750614bec565b61218a60405191805183526020810151602084015260408101516040840152606081015160608401526080810151608084015260a081015160a084015260c081015160c084015260e081015160e0840152610100808201519084015261012080820151908401526101408082015190840152610160808201519084015261018080820151908401526101a080820151908401526101c080820151908401526101e080820151908401526102008082015190840152610220808201519084015261024080820151908401526102608082015190840152610280808201519084015261216e6102a0808301519085019015159052565b6102c0818101511515908401526102e090810151151590830152565bf35b9050614bec565b3461041b57602036600319011261041b5760206121ba6004356121b581610581565b616dbb565b6001600160a01b0360405191168152f35b3461041b57604036600319011261041b576024356121e881610660565b6121f06168ac565b156104df576121fe33616931565b8015612299575b156104ba576122126169bb565b906000916004358352603260205260408320805492831590811591612291575b81612271575b50612241578380f35b6801000000000000000083101561226c5782611e409160016122659501815561289b565b3880808380f35b612444565b1590506122885760ff845b16600184161438612238565b60ff600161227c565b905080612232565b50336001600160a01b036005541614612205565b602036600319011261041b576122c16168ac565b156104df576122cf33616931565b80156122f5575b156104ba576122e3612bd9565b6122ee600435613753565b6001601155005b50336001600160a01b0360055416146122d6565b3461041b57602036600319011261041b57612322615e4d565b506004356000526031602052608060406000206003604051916123448361245a565b8054835260018101546020840152600281015460408401520154606082015261218a6040518092606080918051845260208101516020850152604081015160408501520151910152565b3461041b57602036600319011261041b576020611edb6004356123b081610581565b6001600160a01b038060065416906040519216848301528382526123d3826124af565b604051906123e0826124af565b601882527f697364656c656761746f724e6f6465286164647265737329000000000000000085830152616c08565b3461041b57600036600319011261041b576020611edb6168ac565b3461041b57600036600319011261041b5760206113206169bb565b634e487b7160e01b600052604160045260246000fd5b6080810190811067ffffffffffffffff82111761226c57604052565b6060810190811067ffffffffffffffff82111761226c57604052565b610120810190811067ffffffffffffffff82111761226c57604052565b6040810190811067ffffffffffffffff82111761226c57604052565b6020810190811067ffffffffffffffff82111761226c57604052565b60e0810190811067ffffffffffffffff82111761226c57604052565b90601f8019910116810190811067ffffffffffffffff82111761226c57604052565b604051906125328261245a565b565b60405190610300820182811067ffffffffffffffff82111761226c57604052565b604051906101e0820182811067ffffffffffffffff82111761226c57604052565b60405190612532826124e7565b67ffffffffffffffff811161226c57601f01601f191660200190565b604051906125ac826124cb565b60008252565b604051906125bf826124af565b600f82527f6d696e744379636c6544617973282900000000000000000000000000000000006020830152565b604051906125f8826124af565b601282527f6d61784d696e74735065724379636c65282900000000000000000000000000006020830152565b60405190612631826124af565b600c82527f6d696e4d696e74517479282900000000000000000000000000000000000000006020830152565b6040519061266a826124af565b600c82527f6d61784d696e74517479282900000000000000000000000000000000000000006020830152565b604051906126a3826124af565b600f82527f6d696e74466565506572517479282900000000000000000000000000000000006020830152565b604051906126dc826124af565b601082527f65616368636c61696d4379636c652829000000000000000000000000000000006020830152565b60405190612715826124af565b600982527f63617070696e67282900000000000000000000000000000000000000000000006020830152565b919082604091031261041b576020825192015190565b61275f6161d1565b61253261288061287a61286b61286360036127a261279d61278783546001600160a01b031690565b61278f6125b2565b61279761259f565b91616c44565b603355565b6127c66127c16127b983546001600160a01b031690565b61278f6125eb565b603455565b6127ea6127e56127dd83546001600160a01b031690565b61278f612624565b603555565b61280e61280961280183546001600160a01b031690565b61278f61265d565b603655565b61283261282d61282583546001600160a01b031690565b61278f612696565b603755565b61285661285161284983546001600160a01b031690565b61278f6126cf565b603855565b546001600160a01b031690565b6114fa612708565b60208082518301019101612741565b603a5590565b603955565b634e487b7160e01b600052603260045260246000fd5b80548210156107d05760005260206000200190600090565b6103e760005260326020527f4a392a5ba0654924db65f19538db6461a3d6763bf0797df25c3b2d5e7c8c7cef805492831580159190612942575b81612921575b506128fd57505050565b6801000000000000000083101561226c5782611e409160016125329501815561289b565b1590506129395760ff60005b166001841614386128f3565b60ff600161292d565b9050806128ed565b634e487b7160e01b600052601160045260246000fd5b6000198114610a975760010190565b6040519061297c826124af565b601882527f676574557365724964546f496e73742875696e743235362900000000000000006020830152565b81156129b2570490565b634e487b7160e01b600052601260045260246000fd5b604051906129d5826124af565b601982527f636f6d707574654d696e7456616c75652875696e7432353629000000000000006020830152565b9060018201809211610a9757565b6046019081604611610a9757565b90601e8201809211610a9757565b91908201809211610a9757565b600019810191908211610a9757565b91908203918211610a9757565b60036001600160a01b036060612532948051855560208101516001860155604081015160028601550151169101906001600160a01b03166001600160a01b0319825416179055565b9081602091031261041b5751612ab181610581565b90565b9081606402916064830403610a9757565b90606482029180830460641490151715610a9757565b90670de0b6b3a764000091828102928184041490151715610a9757565b9061271091828102928184041490151715610a9757565b90601982029180830460191490151715610a9757565b81810292918115918404141715610a9757565b60405190612b45826124af565b600682527f706f6f6c282900000000000000000000000000000000000000000000000000006020830152565b908160e091031261041b5780519160208201519160408101519160608201519160808101519160c060a083015192015190565b91909160008382019384129112908015821691151617610a9757565b81810392916000138015828513169184121617610a9757565b600260115414612bea576002601155565b60046040517f3ee5aeb5000000000000000000000000000000000000000000000000000000008152fd5b6013546012548101809111610a9757603954612c2f91612b25565b60145411601754916015548301809311610a9757612c5361253293603a5490612b25565b601654118215612c64575b506128b3565b915038612c5e565b60405190612c79826124e7565b60e0368337565b60405190612c8d826124af565b601082527f6d6178436c61696d5065724461792829000000000000000000000000000000006020830152565b60405190612cc6826124af565b601082527f6d696e436c61696d5065724461792829000000000000000000000000000000006020830152565b60405190612cff826124af565b601682527f6d6178476c6f62616c436c61696d5065724461792829000000000000000000006020830152565b60405190612d38826124af565b601582527f67657477697468647261776e2875696e743235362900000000000000000000006020830152565b9060098110156107d05760051b0190565b92919083821561322f5750601a54612d919060081c60ff161590565b61321e57601e5490612da38183612a2b565b83111561322257612dc1612db960329284612a2b565b925b83612a47565b1161321e57612dd5603854601f5490612a2b565b821015612de0575050565b612de990614560565b600380546001600160a01b0316612e10612e01612c80565b612e0961259f565b9083616c44565b6001600052602d60205290612f7b612f4a612f19612ee8612eb7612e86887f4ac3b22e31fa68474eb1c8f858cd447cf1ee3eef7de8984178a7afa8f4fe0cd001546004600052602d602052897faa2e4aefbe0e8a3f17f0ef1a62898433725e8346722aad5b9b38d3974d2160835b015490612a2b565b6002600052602d602052887f3acd642f41c4abca13e6953c1b760d7f24daf271c41106e480dd1fea313ccc72612e7e565b6003600052602d602052877f1d82e85504d8f49072f846129ecee69c763b08a82ee3d81cda62b57a7576d37b612e7e565b6005600052602d602052867ff4e70c5971a4cc8cf9f9f8ecc4b5217b9d5f157385b05a56c54d37f26435621c612e7e565b6006600052602d602052857fb166da6939c8546909795cbdc2ac7eb95e976cea31f094e55573dbb6ac49f74f612e7e565b6007600052602d602052847f4d73f294a2cb7f5a471fde2e2c5652a46cf819d439af00ca2c7f02d5472b48b8612e7e565b90612f87612e01612cb9565b821015612f96575b5050505050565b612fa29061278f612cf2565b91612fb56004546001600160a01b031690565b92612fdd604094855190612fd582610f4a8b602083019190602083019252565b6113a3612d2b565b10613023575b505050505060195480612ffa575b80808080612f8f565b61010083015261301361300e602f54612960565b602f55565b61301d6000601955565b38612ff1565b60009181811115613217576130389250612a47565b6001908160005b6007841115613073575050505050506130699060185460e08501526130646000601855565b601f55565b3880808080612fe3565b8561308885600052602d602052604060002090565b0154836131845761317e9161310091846130ac88600052602d602052604060002090565b016130b8828254612a2b565b90556000896130d189600052602d602052604060002090565b01556130e56130df88612a38565b8d612d64565b525b6130f96130f387612a38565b8c612d64565b5190612a2b565b937f1517c86fcf2bfb8e3468afcc539b0004955da8027797c497ea51d1f1094ab8988861312f6130df84612a38565b5161317661313c85612a0f565b8a5193849333859094939260a0926001600160a01b0360c08401971683526000602084015260006040840152606083015260808201520152565b0390a1612960565b9261303f565b92808411156131f75761317e916131cb6131a16131009387612a47565b8096866131b88a600052602d602052604060002090565b016131c4838254612a2b565b9055612a47565b886131e088600052602d602052604060002090565b01556000946131f16130df88612a38565b526130e7565b61320861317e929461310092612a47565b9360006131f16130df88612a38565b5050613038565b5050565b506032612dc18392612dbb565b93505050565b604051613241816124cb565b60008152906000368137565b6040519061325a826124af565b601d82527f636f6d70757465446f6c6c6172546f4f7a6f6e652875696e74323536290000006020830152565b60405190613293826124af565b600a82527f6275726e636e66672829000000000000000000000000000000000000000000006020830152565b91908260c091031261041b5781516132d681610581565b9160208101519160408201519160608101516132f181610581565b9160a0608083015192015190565b6040513d6000823e3d90fd5b60405190613318826124af565b601382527f55736572546f496e7374286164647265737329000000000000000000000000006020830152565b60405190613351826124af565b600b82527f6d696e74436f756e7428290000000000000000000000000000000000000000006020830152565b6040519061338a826124af565b600e82527f6d696e74732875696e74323536290000000000000000000000000000000000006020830152565b604051906133c3826124af565b600b82527f6d696e74656441676528290000000000000000000000000000000000000000006020830152565b604051906133fc826124af565b600b82527f6d696e74656471747928290000000000000000000000000000000000000000006020830152565b60405190613435826124af565b600c82527f6964732875696e743235362900000000000000000000000000000000000000006020830152565b6040519061346e826124af565b600982527f6d696e74416d74282900000000000000000000000000000000000000000000006020830152565b604051906134a7826124af565b600a82527f647261776e6167652829000000000000000000000000000000000000000000006020830152565b604051906134e0826124af565b600c82527f4c53422875696e743235362900000000000000000000000000000000000000006020830152565b60405190613519826124af565b600782527f647261776e2829000000000000000000000000000000000000000000000000006020830152565b91908260c091031261041b5781519160208101519160408201519160608101519160a0608083015192015190565b60405190613580826124af565b601382527f67657452657761726473286164647265737329000000000000000000000000006020830152565b604051906135b9826124af565b600782527f626f6e75732829000000000000000000000000000000000000000000000000006020830152565b604051906135f2826124af565b600682527f63616765282900000000000000000000000000000000000000000000000000006020830152565b6040519061362b826124af565b601882527f6765744e6f64654c766c446570746828616464726573732900000000000000006020830152565b60405190613664826124af565b601e82527f6765746e6f6465526e6b41676528616464726573732c75696e743235362900006020830152565b60088110156107d05760230190600090565b604051906136af826124af565b601082527f6765744e6f6465286164647265737329000000000000000000000000000000006020830152565b908160a091031261041b5780519160208201516136f781610581565b916040810151916080606083015161370e81610660565b920151612ab181610660565b60405190613727826124af565b601a82527f77697468647261776e496e636f6d654f662861646472657373290000000000006020830152565b601a5460081c60ff1661429157600490602061377a611f516000546001600160a01b031690565b604051938480927f447aa3040000000000000000000000000000000000000000000000000000000082525afa91821561202d57600092614270575b5061380a6137ee6137fc6137d16001546001600160a01b031690565b604080516001600160a01b03909216602083015290928391820190565b03601f198101835282612503565b61380461330b565b84616bbf565b926001600160a01b0384161561424b57600582116106455761383c61382d613344565b61383561259f565b9086616c44565b91601c5461384a8183612a2b565b84111561423f5761385a91612a2b565b909291925b6000805260316020527f346dc135129bcc5b8e8f6ff902940f16dc0729d02b27118b912aa326da88b831547f346dc135129bcc5b8e8f6ff902940f16dc0729d02b27118b912aa326da88b83254909490935b601c5484811015613c95576138c86138cd91612960565b601c55565b60008052602c6020527f4bd6275b77b7e49eb0792b10b407951644bbdba590ba83c6764fe2c9da0b9bef6139018154612960565b9055601c5495613931604051613923816137ee8b602083019190602083019252565b61392b61337d565b8a616bbf565b9061394c61393d6133b6565b61394561259f565b9084616c44565b91613958612e016133ef565b9161397d604051613975816137ee60208201906000602083019252565b6114b7613428565b9061399261398c61382d613461565b93616dbb565b9a60206139f26139ad611f516000546001600160a01b031690565b6040519e8f809381927fcfaa1f6c000000000000000000000000000000000000000000000000000000008352600483019190916001600160a01b036020820193169052565b03915afa9b8c1561202d5760009c613c74575b50613a126118138d616931565b6104ba57613af192613a8086613a7a87611f519681613a3e613ae298600052602e602052604060002090565b55836001613a58601c54600052602e602052604060002090565b01558b6002613a73601c54600052602e602052604060002090565b0155612a2b565b9d612a2b565b9c613add613a966001546001600160a01b031690565b60405163c85700fb60e01b60208201526001600160a01b0390911660248201526044810193909352606483018890526084830187905260a483018990528260c48101610f4a565b616d08565b60208082518301019101612a9c565b6001600160a01b03811615610781577f1517c86fcf2bfb8e3468afcc539b0004955da8027797c497ea51d1f1094ab89893613c1e613c5b92613b4660039182611a1c601c54600052602e602052604060002090565b611aa5613bed613be5611aa0611ad4613b948a610fcd611aab613b85613b76611a7c8c546001600160a01b031690565b60208082518301019101612b71565b9e9491959b9293989050612b25565b94611b13613bde602f613bc08c611ad488613bba85546000526030602052604060002090565b92612a2b565b613bcb8a8254612ba4565b9055546000526030602052604060002090565b938a612a2b565b918254612bc0565b90556001601c5414613c66575b613c10601c54600052602e602052604060002090565b01546001600160a01b031690565b604080513381526001600160a01b03909216602083015281019490945260608401929092526080830191909152600060a0830152819060c0820190565b0390a19493946138b1565b613c6f83601e55565b613bfa565b613c8e919c5060203d602011612026576120188183612503565b9a38613a05565b50939195925093613cb0600080526031602052604060002090565b556000805260316020527f346dc135129bcc5b8e8f6ff902940f16dc0729d02b27118b912aa326da88b83255601c54838114938415614235575b5060011015613d9d575b5050613cfc57565b600080526031602052613d38611a62611a5560017f346dc135129bcc5b8e8f6ff902940f16dc0729d02b27118b912aa326da88b8310154612b0f565b600080526031602052613d6b7f346dc135129bcc5b8e8f6ff902940f16dc0729d02b27118b912aa326da88b83154601355565b613d76601e54601f55565b613d89613d84601e54612a1d565b612c14565b61253261010061ff0019601a541617601a55565b613dab61072561393d61349a565b602054601e5481116141d3575b50613de5613dd6613dc761350c565b613dcf61259f565b9084616ae6565b60208082518301019101613545565b946001613e039592959493946001600052602d602052604060002090565b0155602d60209081527f3acd642f41c4abca13e6953c1b760d7f24daf271c41106e480dd1fea313ccc73919091557f1d82e85504d8f49072f846129ecee69c763b08a82ee3d81cda62b57a7576d37c919091557faa2e4aefbe0e8a3f17f0ef1a62898433725e8346722aad5b9b38d3974d216084919091557fb166da6939c8546909795cbdc2ac7eb95e976cea31f094e55573dbb6ac49f7509190915560076000527f4d73f294a2cb7f5a471fde2e2c5652a46cf819d439af00ca2c7f02d5472b48b991909155604080516001600160a01b03841692810192909252613f029161286b91613ef490829081016137ee565b613efc613573565b85616ae6565b602d6020527f4ac3b22e31fa68474eb1c8f858cd447cf1ee3eef7de8984178a7afa8f4fe0cd09190915560046000527faa2e4aefbe0e8a3f17f0ef1a62898433725e8346722aad5b9b38d3974d21608355613f61611bf061393d6135ac565b613f6f61072561393d6135e5565b604080516001600160a01b0383166020820152613f9b91613f9390829081016137ee565b6114b761361e565b60005b8181106140ee575050613fdf610f4a61400593613fd7613fee94604051938491602083019190916001600160a01b036020820193169052565b610f606136a2565b602080825183010191016136db565b935050505060ff8019601a54169115151617601a55565b6004602061401e611f516000546001600160a01b031690565b604051928380927f6325dd040000000000000000000000000000000000000000000000000000000082525afa90811561202d5761409c91610f4a916000916140cf575b506140946140776001546001600160a01b031690565b604080516001600160a01b03909216602083015290938491820190565b6113a361371a565b6005600052602d6020527ff4e70c5971a4cc8cf9f9f8ecc4b5217b9d5f157385b05a56c54d37f26435621d553880613cf4565b6140e8915060203d602011612026576120188183612503565b38614061565b8061410591614146575b6008811061410a57612960565b613f9e565b604080516001600160a01b0386166020820152908101829052611e5990611e379061413881606081016137ee565b614140613657565b88616c44565b6040517f5329daca0000000000000000000000000000000000000000000000000000000060208201526001600160a01b0385166024820152604481018290526141a09061286b9061419a81606481016137ee565b87616d08565b906141b5836000526031602052604060002090565b5560016141cc836000526031602052604060002090565b01556140f8565b601e556142046137ee6141f6602054604051928391602083019190602083019252565b6141fe6134d3565b83616c80565b61422e61421d602f546000526030602052604060002090565b601e54600052602052604060002090565b5538613db8565b1593506001613cea565b5050819092919261385f565b9250505061425a6107256169bb565b614265602054601e55565b613d89602054601f55565b61428a91925060203d602011612026576120188183612503565b90386137b5565b50565b604051906142a1826124af565b601482527f6c6576656c436c617573652875696e74323536290000000000000000000000006020830152565b908160a091031261041b578051916020820151916040810151916080606083015192015190565b60405190614301826124af565b601382527f72616e6b436c617573652875696e7432353629000000000000000000000000006020830152565b60219061433a8254612a01565b6008811061434757505050565b6003546001600160a01b0316614376604091611dec8351602092611de482610f4a898783019190602083019252565b505050918315801590614410575b80614400575b61040b5750906143b19291602254101590816143de575b50806143cc575b6143b657612960565b61433a565b6143bf81602155565b611e5983611e4083613690565b5083546143d882612a38565b146143a8565b905060016143f6836000526031602052604060002090565b01541015386143a1565b5081158061438a5750821561438a565b506001614384565b909190600083156144ae575061442f602154612a01565b831561450d57600881105b15614507576003546001600160a01b031661446e604091611dec8351602092611de482610f4a898783019190602083019252565b505050918315801590614500575b806144f0575b61040b5750906144ae9291602254101590816144ce575b5085156144c057806144b3576143b657612960565b61442f565b506021546143d882612a38565b15611e6357611e5981602155565b905060016144e6836000526031602052604060002090565b0154101538614499565b5081158061448257508215614482565b508661447c565b50509050565b60215481111561443a565b60405190614525826124af565b601d82527f636f6d707574654f7a6f6e65546f446f6c6c61722875696e74323536290000006020830152565b9081602091031261041b575190565b61456981614bec565b908151916020810192835161457d91612a2b565b906040810191825161458e91612a2b565b916060820192835161459f91612a2b565b90608083019182516145b091612a2b565b9160a084019283516145c191612a2b565b9060c085019182516145d291612a2b565b9060e0860194855161010088019081516145eb91612a2b565b9661012089019788516145fd91612a2b565b956101408a0196875161460f91612a2b565b936101608b0194855161462191612a2b565b956101808c0196875161463391612a2b565b976101a08d0198895161464591612a2b565b61464e91612a2b565b9e8c5160039e8f918261466c6001600052602d602052604060002090565b019081549061467a91612a2b565b9055516004600052602d602052907faa2e4aefbe0e8a3f17f0ef1a62898433725e8346722aad5b9b38d3974d21608301908154906146b791612a2b565b9055516002600052602d6020528d7f3acd642f41c4abca13e6953c1b760d7f24daf271c41106e480dd1fea313ccc7201908154906146f491612a2b565b905589516003600052602d6020528d7f1d82e85504d8f49072f846129ecee69c763b08a82ee3d81cda62b57a7576d37b019081549061473291612a2b565b9055516005600052602d6020528c7ff4e70c5971a4cc8cf9f9f8ecc4b5217b9d5f157385b05a56c54d37f26435621c019081549061476f91612a2b565b9055516006600052602d6020528b7fb166da6939c8546909795cbdc2ac7eb95e976cea31f094e55573dbb6ac49f74f01908154906147ac91612a2b565b9055516007600052602d6020528a7f4d73f294a2cb7f5a471fde2e2c5652a46cf819d439af00ca2c7f02d5472b48b801908154906147e991612a2b565b9055516001600052602d6020527f4ac3b22e31fa68474eb1c8f858cd447cf1ee3eef7de8984178a7afa8f4fe0cd280546002979261482691612a2b565b9055516004600052602d602052857faa2e4aefbe0e8a3f17f0ef1a62898433725e8346722aad5b9b38d3974d216083019081549061486391612a2b565b9055516002600052602d602052847f3acd642f41c4abca13e6953c1b760d7f24daf271c41106e480dd1fea313ccc7201908154906148a091612a2b565b905585516003600052602d602052847f1d82e85504d8f49072f846129ecee69c763b08a82ee3d81cda62b57a7576d37b01908154906148de91612a2b565b9055516005600052602d602052837ff4e70c5971a4cc8cf9f9f8ecc4b5217b9d5f157385b05a56c54d37f26435621c019081549061491b91612a2b565b9055516006600052602d602052827fb166da6939c8546909795cbdc2ac7eb95e976cea31f094e55573dbb6ac49f74f019081549061495891612a2b565b9055516007600052602d602052907f4d73f294a2cb7f5a471fde2e2c5652a46cf819d439af00ca2c7f02d5472b48b8019081549061499591612a2b565b90556101c083015185602f546149b5906000526030602052604060002090565b600091825260205260409020908154906149ce91612ba4565b905551601854906149de91612a2b565b60185551601954906149ef91612a2b565b6019556149fb83601e55565b600090841515600014614a7f61253296614a77614a72614a8b976102a097614a8496614a915750614a5b614a39614a6a92546001600160a01b031690565b60405190614a5382610f4a89602083019190602083019252565b610f60614518565b60208082518301019101614551565b601654612a2b565b601655565b601454612a2b565b601455565b0151151590565b906128b3565b9050614a6a565b614aa0612534565b9060008083528060208401528060408401528060608401528060808401528060a08401528060c08401528060e08401528061010084015280610120840152806101408401528061016084015280610180840152806101a0840152806101c0840152806101e08401528061020084015280610220840152806102408401528061026084015280610280840152806102a0840152806102c08401526102e0830152565b60405190614b4e826124af565b600a82527f73687574646f776e2829000000000000000000000000000000000000000000006020830152565b60405190614b87826124af565b601182527f696e636f6d654f662861646472657373290000000000000000000000000000006020830152565b60405190614bc0826124af565b601482527f636f6d70757465546f75722875696e74323536290000000000000000000000006020830152565b90614bf5614a98565b9160039083614c0b83546001600160a01b031690565b92614c26614c17614b41565b614c1f61259f565b9086616c08565b90614c2f615b59565b94909160608501958652828552614d5084600193614cd1614c9286614c5f6001600052602d602052604060002090565b01546001600052602d602052867f4ac3b22e31fa68474eb1c8f858cd447cf1ee3eef7de8984178a7afa8f4fe0cd0612e7e565b6001600052602d60205260029790614ccb90897f4ac3b22e31fa68474eb1c8f858cd447cf1ee3eef7de8984178a7afa8f4fe0cd0612e7e565b90612a47565b885288516004600052602d6020527faa2e4aefbe0e8a3f17f0ef1a62898433725e8346722aad5b9b38d3974d21608380870154614d499291614ccb91614d18918990612e7e565b6004600052602d602052897faa2e4aefbe0e8a3f17f0ef1a62898433725e8346722aad5b9b38d3974d216083612e7e565b8952615651565b93909260208a99939901986101c06101008c019b015289528752600014615455575050614da5610f4a614d8b6004546001600160a01b031690565b611426601d54604051938491602083019190602083019252565b3160408a01525b6009546001600160a01b031692614e09614ded614dd085546001600160a01b031690565b604080516001600160a01b03909216602083015290918291820190565b0395614e01601f1997888101845283612503565b6113a3614b7a565b6005600052602d60205291614ea0614e6f857ff4e70c5971a4cc8cf9f9f8ecc4b5217b9d5f157385b05a56c54d37f26435621c01546005600052602d602052847ff4e70c5971a4cc8cf9f9f8ecc4b5217b9d5f157385b05a56c54d37f26435621c612e7e565b6005600052602d602052827ff4e70c5971a4cc8cf9f9f8ecc4b5217b9d5f157385b05a56c54d37f26435621c612e7e565b60808c01818152938181111561544757614ebd9150845190612a47565b8352600460215483811015806153d0575b61539f575b10159182615327575b50506152e7575b6005600052603260205281614f1a7ff1229d5c96a3de3bdb5814fe87c3432b211770fda268ddcd390c87c4a4feb8e75b5460011690565b146152c9575b506006600052603260205280614f557f125f38041639e32c103ab47aba064e25405a1fb08d2d6ee74cd07eb22ba6e040614f13565b146152a9575b60076000526032602052614f8e7f46bf7effec7da617c09fb0f99690c7f788a904e44d0053fc402fa3db73b36725614f13565b14615289575b86518251614fa191612a2b565b9160408801928351614fb291612a2b565b8551614fbd91612a2b565b9360e089019687518251614fd091612a2b565b938a6101208101958651614fe391612a2b565b976101408201988951614ff591612a2b565b614ffe91615a70565b15156102a08801819052610280880191825261024088019283526102208801938452610260880194855261020088019586526101e0880196875290989597929492939290615059575b50505050505050505050505050505050565b6150c5614a5b6150b18f986150bd6150de986102e0986150e49c61509761508b614d8b6004546001600160a01b031690565b03878101845283612503565b319052519e51604051948591602083019190602083019252565b03908101845283612503565b610f6061324d565b97519051106102c0870190815293519051109401938452565b51151590565b908180615277575b60009215615251575050508082101561524a57505b965b8951888b8161520e575050615119908251612a2b565b9052600089525b8151876151e75790615136600093928251612a2b565b9052525b8151856151c05790615150600093928251612a2b565b9052525b81519280615183575061516a6000938251612a2b565b9052525b3880808080808080808a818080808080615047565b91906151aa6151a36151b3958086116000146151b957805b818652612a47565b8251612a2b565b90525190612a47565b5061516e565b859061519b565b906151aa6151a36151e1959794938086116000146151b95780818652612a47565b91615154565b906151aa6151a3615208959994938086116000146151b95780818652612a47565b9361513a565b61523c949a506151a390615232929493808611600014615242578080925b52612a47565b9052895190612a47565b95615120565b85809261522c565b9050615101565b15615260575050505b96615103565b519192509015615270575061525a565b905061525a565b91506152838151151590565b916150ec565b600060c0880180516152a16101a08b01918251612a2b565b905252614f94565b600060a0890180516152c16101808c01918251612a2b565b905252614f5b565b80600091516152de6101608c01918251612a2b565b90525238614f20565b61531d60405161530f8161530360208201906004602083019252565b03868101835282612503565b615317614bb3565b89616c44565b60c08a0152614ee3565b6007600052602d6020527f4d73f294a2cb7f5a471fde2e2c5652a46cf819d439af00ca2c7f02d5472b48b8808601546153979450615366929091612e7e565b6007600052602d602052907f4d73f294a2cb7f5a471fde2e2c5652a46cf819d439af00ca2c7f02d5472b48b8612e7e565b153880614edc565b8c60a06153c88d604051906153c0826118a560208201906002602083019252565b6113a3614bb3565b910152614ed3565b506006600052602d6020527fb166da6939c8546909795cbdc2ac7eb95e976cea31f094e55573dbb6ac49f74f808701546154419161541091908790612e7e565b6006600052602d602052847fb166da6939c8546909795cbdc2ac7eb95e976cea31f094e55573dbb6ac49f74f612e7e565b15614ece565b61545091612a47565b614ebd565b60408b01526101208a0152614dac565b604051906040820182811067ffffffffffffffff82111761226c5760405260006020838281520152565b6040519061549c82612476565b816154a5615465565b81526154af615465565b602082015260406154be615465565b910152565b604051906154d0826124af565b601882527f6765744261746368526f79616c7479436c6175736573282900000000000000006020830152565b6102a090818184031261041b5782601f8201121561041b576040805193615522856124e7565b849383019281841161041b57935b83851061553f57505050505090565b60608583031261041b57825160609161555782612476565b8651825260209182880151838201528588015186820152815201940193615530565b60405190615586826124af565b601f82527f676574526f79616c697479416d6f756e7442617463682875696e7432353629006020830152565b9060e08282031261041b5780601f8301121561041b57604051916155d5836124e7565b829060e0810192831161041b57905b8282106155f15750505090565b81518152602091820191016155e4565b9060078110156107d05760051b0190565b8181029291600082127f8000000000000000000000000000000000000000000000000000000000000000821416610a97578184051490151715610a9757565b9160009260009260009260009260009261566961548f565b61567283615984565b825190602082015252615684836159fa565b60208301519060208201525261569983615a35565b6040830151906020820152526156d46156c56156bd6003546001600160a01b031690565b6114fa6154c3565b602080825183010191016154fc565b92601e54926156eb6004546001600160a01b031690565b93602154905b8381106157015750505050505050565b61573d61572e604051615720816137ee86602083019190602083019252565b615728615579565b89616ae6565b602080825183010191016155b2565b6001905b8382111561586f5750508215615760575b61575b90612960565b6156f1565b61579461578c8261577d602f546000526030602052604060002090565b90600052602052604060002090565b54809c612ba4565b9a61579f8286612a47565b9060009160408801518051888110615819575b5050808311615811575b826157c691612a47565b91806157fb575b50816157db575b5050615752565b9a6157ed6157f39261575b949d615612565b90612ba4565b9990386157d4565b9a6157ed829c61580a93615612565b99386157cd565b9150816157bc565b808611156158665750602085915b016158328151612a01565b8910156158575750875b818111156157b25761584f929450612a47565b9138806157b2565b6158619051612a01565b61583c565b60209091615827565b909c61588361587d8f612a38565b8a615601565b515115801561592e575b61592457865180518410159081615915575b5080156158ee575b156158d2576158c66158cc918f6158c06130f991612a38565b85615601565b9d612960565b90615741565b9c9d6158e88f916130f96158c06158cc94612a38565b9e612960565b50602087015180518410159081615906575b506158a7565b60209150015183111538615900565b6020915001518311153861589f565b9c6158cc90612960565b508d61593c611e2482613690565b841015908161594d575b501561588d565b61597b9150604061597261596c615966611e2485613690565b93612a38565b8d615601565b51015190612a2b565b8311158e615946565b906103e76000526032602052604060002080549081156159f45760018216159384156159eb5760ff60025b168303838111610a97576159c3908361289b565b90549060031b1c946000146159e557506159df611e2492612a38565b9061289b565b91505090565b60ff60016159af565b50508190565b9060026000526032602052604060002080549081156159f45760018216159384156159eb576001198301838111610a97576159c3908361289b565b9060036000526032602052604060002080549081156159f45760018216159384156159eb576001198301838111610a97576159c3908361289b565b9190615a8d615a8460135460125490612a2b565b60395490612b25565b91615a9e82611b1386601454612a2b565b938385118015615b5057615b24855b94615ac9615ac060175460155490612a2b565b603a5490612b25565b9360165491615ad88183612a2b565b60009015615b475750610f4a615b1e92614a53615b0a614a5b94615b046003546001600160a01b031690565b93612a2b565b604051938491602083019190602083019252565b90612a2b565b92828411918215615b4157835b928115615b3c575090565b905090565b84615b31565b91505090612a2b565b615b2486615aad565b600090816001815b600f821115615bd85750506001600052602d6020527f4ac3b22e31fa68474eb1c8f858cd447cf1ee3eef7de8984178a7afa8f4fe0cd0548101809111610a97576004600052602d60205291612ab1907faa2e4aefbe0e8a3f17f0ef1a62898433725e8346722aad5b9b38d3974d2160835490612a2b565b9093848252603192602093808552604090600282862001548301809311610a97576003929588865252832001548101809111610a9757615c189094612960565b90615b61565b90615c27612c6c565b916001808214615d1457506002808214615d1457506003808214615d14575060048114615c9857600514615c5757565b9050615c61612576565b6013548152601754602082015260145460408201526016546060820152601254608082015260155460a0820152600060c082015290565b509050615ca3612576565b60185481526019546020820152615cc56001600052602d602052604060002090565b5460408201526004600052602d6020527faa2e4aefbe0e8a3f17f0ef1a62898433725e8346722aad5b9b38d3974d21608354606082015260006080820152600060a0820152600060c082015290565b91925050615d20612576565b7f4ac3b22e31fa68474eb1c8f858cd447cf1ee3eef7de8984178a7afa8f4fe0cd082015481527f3acd642f41c4abca13e6953c1b760d7f24daf271c41106e480dd1fea313ccc728201546020808301919091527f1d82e85504d8f49072f846129ecee69c763b08a82ee3d81cda62b57a7576d37b83015460408301527faa2e4aefbe0e8a3f17f0ef1a62898433725e8346722aad5b9b38d3974d21608383015460608301527ff4e70c5971a4cc8cf9f9f8ecc4b5217b9d5f157385b05a56c54d37f26435621c83015460808301527fb166da6939c8546909795cbdc2ac7eb95e976cea31f094e55573dbb6ac49f74f83015460a08301526007600052602d90527f4d73f294a2cb7f5a471fde2e2c5652a46cf819d439af00ca2c7f02d5472b48b89091015460c082015290565b60405190615e5a8261245a565b60006060838281528260208201528260408201520152565b90604051615e7f8161245a565b6060600382948054845260018101546020850152600281015460408501520154910152565b67ffffffffffffffff811161226c5760051b60200190565b80518210156107d05760209160051b010190565b6161b56101c061253292615f0a615eee82516001600160a01b031690565b6001600160a01b03166001600160a01b03196002541617600255565b615f3d615f2160208301516001600160a01b031690565b6001600160a01b03166001600160a01b03196003541617600355565b615f70615f5460408301516001600160a01b031690565b6001600160a01b03166001600160a01b03196004541617600455565b615fa3615f8760608301516001600160a01b031690565b6001600160a01b03166001600160a01b03196005541617600555565b615fd6615fba60808301516001600160a01b031690565b6001600160a01b03166001600160a01b03196006541617600655565b616009615fed60a08301516001600160a01b031690565b6001600160a01b03166001600160a01b03196007541617600755565b61603c61602060c08301516001600160a01b031690565b6001600160a01b03166001600160a01b03196008541617600855565b61606f61605360e08301516001600160a01b031690565b6001600160a01b03166001600160a01b03196009541617600955565b6160a36160876101008301516001600160a01b031690565b6001600160a01b03166001600160a01b0319600a541617600a55565b6160d76160bb6101208301516001600160a01b031690565b6001600160a01b03166001600160a01b0319600b541617600b55565b61610b6160ef6101408301516001600160a01b031690565b6001600160a01b03166001600160a01b0319600c541617600c55565b61613f6161236101608301516001600160a01b031690565b6001600160a01b03166001600160a01b0319600d541617600d55565b6161736161576101808301516001600160a01b031690565b6001600160a01b03166001600160a01b0319600e541617600e55565b6161a761618b6101a08301516001600160a01b031690565b6001600160a01b03166001600160a01b0319600f541617600f55565b01516001600160a01b031690565b6001600160a01b03166001600160a01b03196010541617601055565b6161e6611f516000546001600160a01b031690565b604051907f97f3815a000000000000000000000000000000000000000000000000000000008252602082600481845afa91821561202d57600092616876575b50604051917fcfbffe53000000000000000000000000000000000000000000000000000000008352602083600481855afa92831561202d57600093616855575b50604051907fab6e844f000000000000000000000000000000000000000000000000000000008252602082600481865afa91821561202d57600092616834575b50604051917f14d8d024000000000000000000000000000000000000000000000000000000008352602083600481875afa92831561202d57600093616813575b50604051927fd1f956b1000000000000000000000000000000000000000000000000000000008452602084600481885afa93841561202d576000946167f2575b50604051937fe61dfd58000000000000000000000000000000000000000000000000000000008552602085600481895afa94851561202d576000956167d1575b506040517fe09d394d0000000000000000000000000000000000000000000000000000000081526020816004818a5afa90811561202d576000916167b2575b506040517f52b06d640000000000000000000000000000000000000000000000000000000081526020816004818b5afa90811561202d57600091616793575b506040517f013cf08b00000000000000000000000000000000000000000000000000000000815260006004820152916020836024818c5afa92831561202d57600093616772575b50604051977f5e09dbe70000000000000000000000000000000000000000000000000000000089526020896004818d5afa94851561202d57600499600096616751575b5060208b6040519b8c80927faa0ddc160000000000000000000000000000000000000000000000000000000082525afa96871561202d5760049a600098616730575b5060208c6040519c8d80927f640274270000000000000000000000000000000000000000000000000000000082525afa98891561202d5760049b60009a61670f575b5060208d6040519d8e80927f30125cf50000000000000000000000000000000000000000000000000000000082525afa9a8b1561202d578d60049d60009d6166ed575b506020906040519e8f80927f24768d910000000000000000000000000000000000000000000000000000000082525afa9c8d1561202d5760009d6166cc575b50604051809e81907f9dc969a80000000000000000000000000000000000000000000000000000000082525a92600491602094fa9d8e1561202d5760009e6166ab575b506165bf612555565b6001600160a01b0390911681529d8e906001600160a01b03166020820152604001906165f391906001600160a01b03169052565b6001600160a01b031660608d01526001600160a01b031660808c01526001600160a01b031660a08b01526001600160a01b031660c08a01526001600160a01b031660e08901526001600160a01b03166101008801526001600160a01b03166101208701526001600160a01b03166101408601526001600160a01b03166101608501526001600160a01b03166101808401526001600160a01b03166101a08301526001600160a01b03166101c082015261253290615ed0565b6166c5919e5060203d602011612026576120188183612503565b9c386165b6565b6166e6919d5060203d602011612026576120188183612503565b9b38616573565b6020919d5061670890823d8411612026576120188183612503565b9c90616534565b616729919a5060203d602011612026576120188183612503565b98386164f1565b61674a91985060203d602011612026576120188183612503565b96386164af565b61676b91965060203d602011612026576120188183612503565b943861646d565b61678c91935060203d602011612026576120188183612503565b913861642a565b6167ac915060203d602011612026576120188183612503565b386163e3565b6167cb915060203d602011612026576120188183612503565b386163a4565b6167eb91955060203d602011612026576120188183612503565b9338616365565b61680c91945060203d602011612026576120188183612503565b9238616325565b61682d91935060203d602011612026576120188183612503565b91386162e5565b61684e91925060203d602011612026576120188183612503565b90386162a5565b61686f91935060203d602011612026576120188183612503565b9138616265565b61689091925060203d602011612026576120188183612503565b9038616225565b9081602091031261041b5751612ab181610660565b6169076001600160a01b03600254166040516168c7816124af565b600881527f69735361666528290000000000000000000000000000000000000000000000006020820152604051916168fe836124cb565b60008352616b11565b9080616926575b156106455780602080612ab193518301019101616897565b50602081511461690e565b6169946001600160a01b038060025416604051916020941684830152838252616959826124af565b60405190616966826124af565b601582527f697353656375726542617365286164647265737329000000000000000000000085830152616b11565b90806169b1575b156106455781612ab19282518301019101616897565b508181511461699b565b612ab16001600160a01b03600354166040516169d6816124af565b600681527f6941676528290000000000000000000000000000000000000000000000000000602082015260405191611317836124cb565b6001600160a01b0380911690811561075757600154826001600160a01b0319821617600155167f8292fce18fa69edf4db7b94ea2e58241df0ae57f97e0a6c9b29067028bf92d76600080a3565b3d15616a85573d90616a6b82612583565b91616a796040519384612503565b82523d6000602084013e565b606090565b90801561321e576001600160a01b03821691821561075757600080808481945af1616ab3616a5a565b50156106455760207fcec1f18c3ab8ddaaa107a1591e3c369667eec613626611a8deaedef43069fcdd91604051908152a2565b90616af19291616b11565b9060009015616afe575090565b6040519150616b0c826124cb565b815290565b9190823b15616ba6577fffffffff00000000000000000000000000000000000000000000000000000000815160208093012016916040519180830193845281519160005b838110616b92575050509181616b8260248260009795968897018783820152036004810184520182612503565b51915afa616b8e616a5a565b9091565b818101830151858201602401528201616b55565b505050600090604051616bb8816124cb565b6000815290565b9291616bcd91600094616b11565b9080616bfd575b616bdb5750565b6001600160a01b0391925080602080616bf993518301019101612a9c565b1690565b506020815114616bd4565b9291616c1691600094616b11565b9080616c39575b616c245750565b612ab191925060208082518301019101616897565b506020815114616c1d565b9291616c5291600094616b11565b9080616c75575b616c605750565b612ab191925060208082518301019101614551565b506020815114616c59565b9291616c8e91600094616b11565b9080616cb3575b616c9c5750565b90915060208180518101031261041b576020015190565b506020815114616c95565b90602082519201517fffffffff00000000000000000000000000000000000000000000000000000000908181169360048110616cf957505050565b60040360031b82901b16169150565b6001600160a01b0381161561075757600080918351908260208601915af190616d2f616a5a565b9115616d39575090565b805160009190600411616db557616d509150616cbe565b815115616d605750805190602001fd5b6040517f21c09d340000000000000000000000000000000000000000000000000000000081527fffffffff00000000000000000000000000000000000000000000000000000000919091166004820152602490fd5b50616d50565b803b6000616dc882612583565b92616dd66040519485612503565b82845260208401903c602d81511061078157602a015160601c9056fea26469706673582212201169ec91eeeaf03787cf75b09d2e923dcd0c25a4c40144d26501526c8afdf77864736f6c63430008140033","linkReferences":{}},"methodIdentifiers":{"instanceStor()":"131c73ad"},"id":85}