{"abi":[{"type":"constructor","inputs":[{"name":"_hex","type":"address","internalType":"address"}],"stateMutability":"nonpayable"},{"type":"function","name":"instanceStor","inputs":[],"outputs":[{"name":"","type":"address","internalType":"address"}],"stateMutability":"view"}],"bytecode":{"object":"0x6080346100c5576001600160401b0390601f61715638819003918201601f1916830191848311848410176100af578084926020946040528339810103126100c557516001600160a01b039190828116908190036100c55760405191616ffd90818401908111848210176100af576020928492610159843981520301906000f080156100a3571660018060a01b03196000541617600055604051608e90816100cb8239f35b6040513d6000823e3d90fd5b634e487b7160e01b600052604160045260246000fd5b600080fdfe6080806040526004361015601257600080fd5b600090813560e01c63131c73ad14602857600080fd5b346054578160031936011260545773ffffffffffffffffffffffffffffffffffffffff60209254168152f35b5080fdfea2646970667358221220a4f7ab73b5896edd9dfab08b128a2e337bf71553be17cfc98d7f010e2435f60364736f6c63430008140033608034620000b757601f62006ffd38819003918201601f19168301916001600160401b03831184841017620000bc57808492602094604052833981010312620000b757516001600160a01b03811690819003620000b7578015620000a55760018060a01b0319903382600154161760015560009182541617815560016011558060125580601355806014558060155580601655601755604051616f2a9081620000d38239f35b60405163e6c4247b60e01b8152600490fd5b600080fd5b634e487b7160e01b600052604160045260246000fdfe60806040526004361015610018575b361561001657005b005b60003560e01c806302a085f214610348578063043719b41461034357806309d8da2e1461033e5780630b98f9751461033957806312065fe014610334578063129641201461032f578063141ca6601461032a578063143ec3b7146103255780631f185d161461032057806329ee350e1461031b578063339459a61461031657806339b4d61b146103115780633b9b79551461030c57806343a1b5ab146103075780634a65786c1461030257806352902c59146102fd5780635640dbfc146102f85780635ecf6a8a146102f3578063619d5194146102ee5780636350b2c2146102e9578063654c668e146102e457806369245009146102df5780636de97c66146102da5780636f493aad146102d557806370878d04146102d0578063725b6fff146102cb578063759f22bd146102c657806375b4d78c146102c15780637b058ac1146102bc578063822ffec4146102b7578063880cdc31146102b25780638da5cb5b146102ad578063934209ce146102a85780639659867e146102a3578063a1f7f5391461029e578063a5d7cda414610299578063a663030414610294578063a9bf285b1461028f578063af4845261461028a578063af640d0f14610285578063b90306ad14610280578063bab2f5521461027b578063c54e44b014610276578063c8ef7b1a14610271578063d2a159041461026c578063d3a1a49914610267578063da02133514610262578063deb1ba1e1461025d578063e01ad5fd14610258578063e0a9bc2b146102535763fdc10bc90361000e57611fa9565b611f8e565b611f0e565b611e94565b611e0d565b611de1565b611d9c565b611d35565b611cfd565b611cdf565b611bde565b611bc0565b611b8f565b611b71565b611585565b6111b9565b611144565b611126565b611108565b6110e1565b611065565b610e28565b610cf7565b610cd9565b610c23565b610b9f565b610b83565b610b49565b610ab7565b610a5e565b610a09565b6109b2565b61094a565b610927565b6108cc565b6107e1565b6107bb565b61079d565b610776565b61074a565b610731565b6106f8565b610611565b6105d4565b610578565b61052c565b610510565b61049f565b61047c565b610440565b61037c565b610120810192916000915b6009831061036557505050565b600190825181526020809101920192019190610358565b60408060031936011261043b5780519061039582612017565b61012036833760ff6018541661042b576103ad616964565b1561041b576103bb336169e9565b8015610407575b156103f7576103e36103f3926103d66127d2565b6024359060043590612997565b906001601155519182918261034d565b0390f35b6004905163ea8e4eb560e01b8152fd5b50336001600160a01b0360055416146103c2565b60049051634ee2123760e11b8152fd5b600490516334c2d01160e11b8152fd5b600080fd5b3461043b57604036600319011261043b576004356000526030602052602061046e60243560406000206122ee565b90546040519160031b1c8152f35b3461043b57600036600319011261043b57602060ff601854166040519015158152f35b3461043b57602036600319011261043b576104b8616964565b156104ff576104c6336169e9565b80156104eb575b156104da57600435601955005b600460405163ea8e4eb560e01b8152fd5b50336001600160a01b0360055416146104cd565b6004604051634ee2123760e11b8152fd5b3461043b57600036600319011261043b57602047604051908152f35b3461043b57604036600319011261043b5761054b602435600435615b27565b60405190600090825b600783106105615760e084f35b600190825181526020809101920192019190610554565b602036600319011261043b5761058c616964565b156104ff5761059a336169e9565b80156105c0575b156104da576105ae6127d2565b6105b96004356134c9565b6001601155005b50336001600160a01b0360055416146105a1565b3461043b57602036600319011261043b5760043560005260306020526020604060002054604051908152f35b6001600160a01b0381160361043b57565b3461043b5760208060031936011261043b5761069060043561063281610600565b6001600160a01b0380600254169060405192168483015283825261065582612034565b6040519061066282612034565b601182527f69735369676e657228616464726573732900000000000000000000000000000085830152616bc9565b9190806106ee575b156106c45781816106b2926103f39451830101910161694f565b60405190151581529081906020820190565b60046040517f3204506f000000000000000000000000000000000000000000000000000000008152fd5b5080825114610698565b3461043b57600036600319011261043b57601f54600881101561072c57602181015460408051928352602083019190915290f35b611db9565b3461043b57600036600319011261043b57610016616289565b3461043b57602036600319011261043b57600435600052602a6020526020604060002054604051908152f35b3461043b57600036600319011261043b5760206001600160a01b0360005416604051908152f35b3461043b57600036600319011261043b576020602d54604051908152f35b3461043b57600036600319011261043b57602060ff60185460081c166040519015158152f35b3461043b57606036600319011261043b576004356107fe81610600565b60243561080a81610600565b6001600160a01b038092169081158080156108c2575b6108aa5761088057610872916000938454826001600160a01b03198216178655167fe939feee179e631422bcc8f6e6d7d908cb3f8af38f5372f17c77e15aea5c80ee8580a361086d612189565b616ac5565b61087d604435601b55565b80f35b60046040517fe6c4247b000000000000000000000000000000000000000000000000000000008152fd5b6024604051635258db5f60e01b815260016004820152fd5b5083821615610820565b3461043b57600036600319011261043b5760c060315460ff60325460335490604051938452602084015281811615156040840152818160081c1615156060840152818160101c161515608084015260181c16151560a0820152f35b3461043b57600036600319011261043b57610016612189565b8015150361043b57565b3461043b57602036600319011261043b5760043561096781610940565b61096f616964565b156104ff5761097d336169e9565b801561099e575b156104da5760ff8019601854169115151617601855600080f35b50336001600160a01b036005541614610984565b3461043b57602036600319011261043b57600435600052602c602052608060406000208054906001810154906001600160a01b03600360028301549201541691604051938452602084015260408301526060820152f35b3461043b57604036600319011261043b57610a22616964565b156104ff57610a30336169e9565b8015610a4a575b156104da57600435601455602435601355005b50336001600160a01b036005541614610a37565b3461043b57600036600319011261043b576020601e54604051908152f35b6020908160408183019282815285518094520193019160005b828110610aa3575050505090565b835185529381019392810192600101610a95565b3461043b57600036600319011261043b57601f546001810190818111610b4457610ae082615f0c565b91610aee6040519384612088565b808352610afd601f1991615f0c565b0136602084013760005b81811115610b1d57604051806103f38582610a7c565b600881101561072c5780610b3f9160210154610b398286615f74565b526123df565b610b07565b6123c9565b3461043b57604036600319011261043b57600435600052602e60205260406000206024356000526020526020604060002054604051908152f35b3461043b57602036600319011261043b57610016600435612417565b3461043b57600036600319011261043b576020601c54604051908152f35b6020908160408183019282815285518094520193019160005b828110610be4575050505090565b9091929382608082610c176001948951606080918051845260208101516020850152604081015160408501520151910152565b01950193929101610bd6565b3461043b57604036600319011261043b57600435602435808211610cc157818103908111610b445760018101809111610b4457610c5f81615f24565b9160005b828110610c7857604051806103f38682610bbd565b80610ca1610c9c610c8c610cbc948661240a565b600052602f602052604060002090565b615eda565b610cab8287615f74565b52610cb68186615f74565b506123df565b610c63565b6024604051635258db5f60e01b8152600d6004820152fd5b3461043b57600036600319011261043b576020601954604051908152f35b3461043b5760a036600319011261043b57604435602435600435608435610d1d81610940565b610d25616964565b156104ff57610d33336169e9565b8015610e14575b156104da5760009260009480610d5b575b6040805186815260208101889052f35b9091929350601f549483600014610dcc57506001610dab82610dbf96610d99610d91610db496600052602f602052604060002090565b91825461240a565b9055600052602f602052604060002090565b0191825461240a565b90555b6064356141dc565b601f549038808080610d4b565b808260409252602f60205220938454908103908111610b4457610e04610e0d92600192610dbf9755600052602f602052604060002090565b0191825461260a565b9055610db7565b50336001600160a01b036005541614610d3a565b3461043b5760c036600319011261043b5760643560a435602435600435604435610e5184610940565b610e59616964565b156104ff57610e67336169e9565b8015611051575b156104da57610e8781600052602f602052604060002090565b610e9283825461240a565b90556001610eaa82600052602f602052604060002090565b01610eb684825461240a565b905560008052602f6020527fc11d2605466dd88923799a61d7f94d6c8cc580bae52b24870f6853eaa13cc4d654151580611048575b610efe575b601f54604051908152602090f35b610f7b9215948515928361103a575b610f6a610f5b610f256003546001600160a01b031690565b60405190610f4d82610f3f89602083019190602083019252565b03601f198101845283612088565b610f5561403b565b90616b9e565b60208082518301019101614074565b9493929991989095601e549061260a565b6084351191821561102d575b5081611024575b50610f9c575b505050610ef0565b61100296600396610dab966000901561101b5750610fc6610fc0610fcc938561271e565b916126ad565b906124e8565b975b600090156110115750610fc0610fe793610fc69261271e565b945b610d996002610dab84600052602f602052604060002090565b90553880808080808080610f94565b9250505094610fe9565b91505097610fce565b90501538610f8e565b601f541015915038610f87565b611043826140d4565b610f0d565b50801515610eeb565b50336001600160a01b036005541614610e6e565b3461043b57602036600319011261043b5760043561108281610600565b61108a616964565b156104ff57611098336169e9565b80156110cd575b156104da576001600160a01b038116156110bc5761001690616ac5565b600460405163055c501b60e51b8152fd5b50336001600160a01b03600554161461109f565b3461043b57600036600319011261043b5760206001600160a01b0360015416604051908152f35b3461043b57600036600319011261043b576020601f54604051908152f35b3461043b57600036600319011261043b576020601a54604051908152f35b3461043b57600036600319011261043b5760206111b16001600160a01b036006541660405161117281612034565b601381527f67657464656c656761746f72436f756e7428290000000000000000000000000084820152604051916111a883612050565b60008352616cfc565b604051908152f35b60408060031936011261043b5760185460048035926024359260ff16611578576111e16127d2565b6111e9616a73565b83601c546111f7828261240a565b83111561157057611208925061240a565b925b61124761124261123c6112256003546001600160a01b031690565b61122d612497565b906112366124af565b90616cfc565b866124e8565b602955565b61125d602954600052602a602052604060002090565b54946112716003546001600160a01b031690565b9561128b61127d612497565b611285612508565b89616cfc565b03611553576103e7600052603060205260016112c97f42e4ed8a28bd93bfb836b3bd3996ada35ff866e155b2ce135e767e31acbdb63f5b5460011690565b148061151e575b61150157825160208082018390529690611309906112fb81604081015b03601f198101835282612088565b611303612f92565b83616cfc565b34036114e45761138f929161133d61132f61138a93611326612497565b90610f55612fcb565b898082518301019101613004565b946001600160a01b03928316949193921690801515806114db575b6114bf575b505050801515806114b6575b61148e575b5050506113856113803460125461240a565b601255565b601355565b612417565b50836113b26113a66000546001600160a01b031690565b6001600160a01b031690565b8251938480927f1b4fc17b0000000000000000000000000000000000000000000000000000000082525afa918215611489577f1517c86fcf2bfb8e3468afcc539b0004955da8027797c497ea51d1f1094ab89894600093611454575b5050513381526001600160a01b0390911660208201526000604082015234606082015260808101919091526103e860a08201528060c081015b0390a16100166001601155565b611447929350908161147a92903d10611482575b6114728183612088565b81019061265f565b91903861140e565b503d611468565b613044565b6114ae92610fc66114a26114a8933461271e565b916126be565b90616b42565b38808061136e565b50811515611369565b6114d392610fc66114a26114a8933461271e565b38808061135d565b50811515611358565b835163cdab4c8760e01b8152600981870190815281906020010390fd5b8251635258db5f60e01b8152600681860190815281906020010390fd5b50601b548351602081019190915261154b9061153d81604081016112ed565b61154561245e565b88616c77565b3115156112d0565b825163cdab4c8760e01b8152600581860190815281906020010390fd5b50509261120a565b516334c2d01160e11b8152fd5b60c036600319011261043b576004803561159e81610600565b6064359060443560a4356084356115b3616964565b15611b61576115c1336169e9565b8015611b4d575b15611b3d5760ff60185416611ae5576115df6127d2565b6103e7600052603060205260016116157f42e4ed8a28bd93bfb836b3bd3996ada35ff866e155b2ce135e767e31acbdb63f6112c2565b1480611af5575b611ae55761163061162c856169e9565b1590565b611ad55760039361165761124261165161122588546001600160a01b031690565b856124e8565b60295461166e81600052602a602052604060002090565b5486546001600160a01b031690611694611686612497565b61168e612508565b84616cfc565b1190811591611a91575b50611a73576116b790600052602a602052604060002090565b8054600101905560018214958615611a6c576116ff6116dd87546001600160a01b031690565b604051906116f782610f3f8a602083019190602083019252565b6112366125b3565b965b611a19575b50601a5415611a02575b601a5461171c906123df565b601a556117276120aa565b948686526020918583880152846040880152606087019660008852601a5461175990600052602c602052604060002090565b9061176391612617565b60015460405163c85700fb60e01b858201526001600160a01b03909116602480830191909152356044820152606481018790526084810189905260a480820187905281526117b260c482612088565b6117bb91616dc0565b828082518301019101906117ce9161265f565b6001600160a01b0316808752156119e45786975061197b6118f66118f16119696119018a9b610fc66118fc6118e26119c69b9a7f1517c86fcf2bfb8e3468afcc539b0004955da8027797c497ea51d1f1094ab8989f8f6119899c6118b76118b26118aa6118c49461187f61184c6118d598516001600160a01b031690565b86611863601a54600052602c602052604060002090565b01906001600160a01b03166001600160a01b0319825416179055565b6118a461189386546001600160a01b031690565b61189b612497565b90611236612674565b9061271e565b60155461240a565b601555565b546001600160a01b031690565b6118cc612497565b90610f55612731565b805181018201910161276a565b9c9491959b929398905061271e565b61271e565b9361271e565b6126d4565b9161193361191b602d54600052602e602052604060002090565b611925838c61240a565b600052602052604060002090565b61193e84825461279d565b90556119258461196461195d602d54600052602e602052604060002090565b938c61240a565b61240a565b6119748282546127b9565b905561271e565b96516001600160a01b031690565b604080513381526001600160a01b03909216602083015281019490945260608401879052608084019290925260a0830191909152819060c0820190565b0390a16119d36001601155565b604080519182526020820192909252f35b604051635258db5f60e01b81526002818a0190815281906020010390fd5b611a0b83601c55565b611a1483601d55565b611710565b6019549087611a28838361240a565b10611a4e5787611a3e611a4893611a439361240a565b61260a565b601955565b38611706565b604051635258db5f60e01b81526005818b0190815281906020010390fd5b8096611701565b60405163cdab4c8760e01b81526001818a0190815281906020010390fd5b9050611aa6611a9e612497565b611303612541565b8610908115611ab7575b503861169e565b611acd9150611ac4612497565b9061123661257a565b851138611ab0565b8560405163055c501b60e51b8152fd5b856040516334c2d01160e11b8152fd5b50611b35610f3f611b0d88546001600160a01b031690565b611b27601b54604051938491602083019190602083019252565b611b2f61245e565b90616c77565b31151561161c565b8560405163ea8e4eb560e01b8152fd5b50336001600160a01b0360055416146115c8565b85604051634ee2123760e11b8152fd5b3461043b57600036600319011261043b576020601d54604051908152f35b3461043b57602036600319011261043b576020611bb6600435611bb181610600565b6169e9565b6040519015158152f35b3461043b57600036600319011261043b576020601b54604051908152f35b3461043b57602036600319011261043b576004356001600160a01b036005541633036104da5760009060046020611c1f6113a685546001600160a01b031690565b604051928380927f46f991ac0000000000000000000000000000000000000000000000000000000082525afa80156114895783808481949382948391611cc1575b505af1611c6b616b12565b50156106c4577fcdcc745fe377b103b45fa0cec23ae3ef93d6fc6a84a01f0d18c40b354dd1d5d8611cbb611caa6113a6600b546001600160a01b031690565b604051938452929081906020820190565b0390a280f35b611cd9915060203d8111611482576114728183612088565b38611c60565b3461043b57600036600319011261043b576020602954604051908152f35b3461043b57602036600319011261043b576020611d24600435611d1f81610600565b616e73565b6001600160a01b0360405191168152f35b3461043b57604036600319011261043b57602435611d5281610940565b611d5a616964565b156104ff57611d68336169e9565b8015611d88575b156104da5761001690600435611d83616a73565b61239b565b50336001600160a01b036005541614611d6f565b3461043b57600036600319011261043b5760208054604051908152f35b634e487b7160e01b600052603260045260246000fd5b600881101561072c5760210190600090565b3461043b57602036600319011261043b57600435600881101561043b5760209060210154604051908152f35b3461043b57602036600319011261043b57611e26615eb5565b50600435600052602f60205260806040600020600360405191611e4883611fda565b80548352600181015460208401526002810154604084015201546060820152611e926040518092606080918051845260208101516020850152604081015160408501520151910152565bf35b3461043b57602036600319011261043b57600435611eb181610940565b611eb9616964565b156104ff57611ec7336169e9565b8015611efa575b156104da5715611ee857611ee36020546123df565b602055005b6020548015610b445760001901602055005b50336001600160a01b036005541614611ece565b3461043b57602036600319011261043b576020611bb6600435611f3081610600565b6001600160a01b03806006541690604051921684830152838252611f5382612034565b60405190611f6082612034565b601882527f697364656c656761746f724e6f6465286164647265737329000000000000000085830152616cc0565b3461043b57600036600319011261043b576020611bb6616964565b3461043b57600036600319011261043b5760206111b1616a73565b634e487b7160e01b600052604160045260246000fd5b6080810190811067ffffffffffffffff821117611ff657604052565b611fc4565b6060810190811067ffffffffffffffff821117611ff657604052565b610120810190811067ffffffffffffffff821117611ff657604052565b6040810190811067ffffffffffffffff821117611ff657604052565b6020810190811067ffffffffffffffff821117611ff657604052565b60e0810190811067ffffffffffffffff821117611ff657604052565b90601f8019910116810190811067ffffffffffffffff821117611ff657604052565b604051906120b782611fda565b565b604051906102c0820182811067ffffffffffffffff821117611ff657604052565b604051906101e0820182811067ffffffffffffffff821117611ff657604052565b604051906120b78261206c565b67ffffffffffffffff8111611ff657601f01601f191660200190565b6040519061213182612050565b60008252565b91908260c091031261043b57815191602081015191604082015161215a81610940565b91606081015161216981610940565b9160a0608083015161217a81610940565b92015161218681610940565b90565b612191616289565b6121ed6001600160a01b0360035416604051906121ad82612050565b60008252604051906121be82612034565b600982527f63617070696e67282900000000000000000000000000000000000000000000006020830152616b9e565b8051156122905761227461228b61225b612286612240612219866020806120b799518301019101612137565b9994999792959091939763ff00000060335491151560181b169063ff000000191617603355565b62ff000060335491151560101b169062ff0000191617603355565b61ff0060335491151560081b169061ff00191617603355565b60ff8019603354169115151617603355565b603255565b603155565b60646040517f08c379a000000000000000000000000000000000000000000000000000000000815260206004820152601460248201527f43617070696e67206665746368206661696c65640000000000000000000000006044820152fd5b805482101561072c5760005260206000200190600090565b9081549168010000000000000000831015611ff6578261232e9160016120b7950181556122ee565b90919082549060031b91821b91600019901b1916179055565b6103e760005260306020526040600020918254801580612393575b61238d5760019115612382571615612379575b5050565b6120b791612306565b811614612379575050565b50505050565b508115612362565b90600052603060205260406000209182548015806123935761238d5760019115612382571615612379575050565b634e487b7160e01b600052601160045260246000fd5b6000198114610b445760010190565b6046019081604611610b4457565b9060018201809211610b4457565b91908201809211610b4457565b61241f616a73565b601c54918201809211610b44578181111561245757505b6124516102a06124458361482a565b01918251151590612347565b51151590565b9050612436565b6040519061246b82612034565b601882527f676574557365724964546f496e73742875696e743235362900000000000000006020830152565b6040516124a381612050565b60008152906000368137565b604051906124bc82612034565b600f82527f6d696e744379636c6544617973282900000000000000000000000000000000006020830152565b81156124f2570490565b634e487b7160e01b600052601260045260246000fd5b6040519061251582612034565b601282527f6d61784d696e74735065724379636c65282900000000000000000000000000006020830152565b6040519061254e82612034565b600c82527f6d696e4d696e74517479282900000000000000000000000000000000000000006020830152565b6040519061258782612034565b600c82527f6d61784d696e74517479282900000000000000000000000000000000000000006020830152565b604051906125c082612034565b601982527f636f6d707574654d696e7456616c75652875696e7432353629000000000000006020830152565b600019810191908211610b4457565b600119810191908211610b4457565b91908203918211610b4457565b60036001600160a01b0360606120b7948051855560208101516001860155604081015160028601550151169101906001600160a01b03166001600160a01b0319825416179055565b9081602091031261043b575161218681610600565b6040519061268182612034565b600f82527f6d696e74466565506572517479282900000000000000000000000000000000006020830152565b9081606402916064830403610b4457565b90606482029180830460641490151715610b4457565b9061271091828102928184041490151715610b4457565b90601982029180830460191490151715610b4457565b90670de0b6b3a764000091828102928184041490151715610b4457565b81810292918115918404141715610b4457565b6040519061273e82612034565b600682527f706f6f6c282900000000000000000000000000000000000000000000000000006020830152565b908160e091031261043b5780519160208201519160408101519160608201519160808101519160c060a083015192015190565b91909160008382019384129112908015821691151617610b4457565b81810392916000138015828513169184121617610b4457565b6002601154146127e3576002601155565b60046040517f3ee5aeb5000000000000000000000000000000000000000000000000000000008152fd5b6040519061281a8261206c565b60e0368337565b6040519061282e82612034565b601082527f65616368636c61696d4379636c652829000000000000000000000000000000006020830152565b6040519061286782612034565b601082527f6d6178436c61696d5065724461792829000000000000000000000000000000006020830152565b604051906128a082612034565b601082527f6d696e436c61696d5065724461792829000000000000000000000000000000006020830152565b604051906128d982612034565b601682527f6d6178476c6f62616c436c61696d5065724461792829000000000000000000006020830152565b6040519061291282612034565b601582527f67657477697468647261776e2875696e743235362900000000000000000000006020830152565b90600981101561072c5760051b0190565b6040519061295c82612034565b601d82527f636f6d707574654f7a6f6e65546f446f6c6c61722875696e74323536290000006020830152565b9081602091031261043b575190565b9291838115612f8c5750601c54916129af818461240a565b821115612f7f576129cd6129c56032928561240a565b935b8461260a565b1161237557600380546001600160a01b03166129fe6129f56129ed612497565b61168e612821565b601d549061240a565b8310612f6657612a1c612a2291612a13612497565b9061123661285a565b9361434e565b6001600052602b60205292612b7b612b4a612b19612ae8612ab7612a86877ffcc3d43705633578a5e8f1b6d6f38d08eb8cb891174edcc94b1a54972a1aebbd01546004600052602b60205288600080516020616ed58339815191525b01549061240a565b6002600052602b602052877fbd6c10e6ce287735500a1c033be76c57d5e632addc2ff6eff6bb587b8ee0d95c612a7e565b6003600052602b602052867fd3904653c5d0f9b122879aa13f7287465a10522aedd588dbbd607cf6f8b2147f612a7e565b6005600052602b602052857f4b5b933abde5416303ae4347d7fcdf5a17e8022e0fefc2b31c7609ebd3c32fe9612a7e565b6006600052602b602052847f5ac1f6ea00ad8b0f699e3a293cc93d6fdaf7ee608fbc40ffef54db3fb7ebb943612a7e565b6007600052602b602052837f455b6dea826802a5b6200d61a7810fccbd36f05c878743e3ac0e0e7aff3a46e8612a7e565b91612b8d81546001600160a01b031690565b612ba0612b98612497565b611303612893565b8410801590612f5f575b15612f4657612bc490612bbb612497565b906112366128cc565b92612bd76004546001600160a01b031690565b92604094612c0f865180612bf38a602083019190602083019252565b0396612c07601f1998898101845283612088565b611236612905565b1015612f2f5760009181811115612f2857612c2a925061260a565b9087600092600190815b6007811115612d2b575050505092612cf192612cec926120b797969560165460e08c0152876101008c601754918291015281612d21575b50612d09575b612c7b6000601655565b612c856000601755565b60008215612cff575092612ccd612cd593612cc193612cae612ce497546001600160a01b031690565b9351948591602083019190602083019252565b03908101845283612088565b610f5561294f565b60208082518301019101612988565b60145461240a565b601455565b612cfa81601d55565b612347565b9350505050612ce4565b612d1c612d17602d546123df565b602d55565b612c71565b9050151538612c6b565b8885612d458398959698600052602b602052604060002090565b015483612e4b5790612df3612de3612e4295967f1517c86fcf2bfb8e3468afcc539b0004955da8027797c497ea51d1f1094ab8989489612d8f88600052602b602052604060002090565b01612d9b82825461240a565b905560008b612db489600052602b602052604060002090565b0155612dc8612dc2886125ec565b8d61293e565b525b612ddc612dd6876125ec565b8c61293e565b519061240a565b98612ded856125ec565b9061293e565b51612e3a612e00856123ee565b8c5193849333859094939260a0926001600160a01b0360c08401971683526000602084015260006040840152606083015260808201520152565b0390a16123df565b908a9291612c34565b9280841115612ee45790612df3612de38596612eb8612e8e7f1517c86fcf2bfb8e3468afcc539b0004955da8027797c497ea51d1f1094ab89896612e429961260a565b80998b612ea58a600052602b602052604060002090565b01612eb183825461240a565b905561260a565b8a612ecd88600052602b602052604060002090565b0155600097612ede612dc2886125ec565b52612dca565b90612df3612de3612f19612e42967f1517c86fcf2bfb8e3468afcc539b0004955da8027797c497ea51d1f1094ab8989561260a565b966000612ede612dc2886125ec565b5050612c2a565b845163cdab4c8760e01b8152600480820152602490fd5b60405163cdab4c8760e01b8152600a6004820152602490fd5b5085612baa565b60405163cdab4c8760e01b815260026004820152602490fd5b5060326129cd82936129c7565b93505050565b60405190612f9f82612034565b601d82527f636f6d70757465446f6c6c6172546f4f7a6f6e652875696e74323536290000006020830152565b60405190612fd882612034565b600a82527f6275726e636e66672829000000000000000000000000000000000000000000006020830152565b91908260c091031261043b57815161301b81610600565b91602081015191604082015191606081015161303681610600565b9160a0608083015192015190565b6040513d6000823e3d90fd5b6040519061305d82612034565b601382527f55736572546f496e7374286164647265737329000000000000000000000000006020830152565b6040519061309682612034565b600b82527f6d696e74436f756e7428290000000000000000000000000000000000000000006020830152565b604051906130cf82612034565b600e82527f6d696e74732875696e74323536290000000000000000000000000000000000006020830152565b6040519061310882612034565b600b82527f6d696e74656441676528290000000000000000000000000000000000000000006020830152565b6040519061314182612034565b600b82527f6d696e74656471747928290000000000000000000000000000000000000000006020830152565b6040519061317a82612034565b600c82527f6964732875696e743235362900000000000000000000000000000000000000006020830152565b604051906131b382612034565b600982527f6d696e74416d74282900000000000000000000000000000000000000000000006020830152565b604051906131ec82612034565b600a82527f647261776e6167652829000000000000000000000000000000000000000000006020830152565b6040519061322582612034565b600c82527f4c53422875696e743235362900000000000000000000000000000000000000006020830152565b6040519061325e82612034565b600782527f647261776e2829000000000000000000000000000000000000000000000000006020830152565b91908260c091031261043b5781519160208101519160408201519160608101519160a0608083015192015190565b604051906132c582612034565b601382527f67657452657761726473286164647265737329000000000000000000000000006020830152565b919082604091031261043b576020825192015190565b6040519061331482612034565b600782527f626f6e75732829000000000000000000000000000000000000000000000000006020830152565b6040519061334d82612034565b600682527f63616765282900000000000000000000000000000000000000000000000000006020830152565b6040519061338682612034565b601982527f67657445666665637469766552616e6b286164647265737329000000000000006020830152565b604051906133bf82612034565b601882527f6765744e6f64654c766c446570746828616464726573732900000000000000006020830152565b604051906133f882612034565b601e82527f6765746e6f6465526e6b41676528616464726573732c75696e743235362900006020830152565b6040519061343182612034565b601082527f6765744e6f6465286164647265737329000000000000000000000000000000006020830152565b908160a091031261043b57805191602082015161347981610600565b916040810151916080606083015161217a81610940565b6040519061349d82612034565b601a82527f77697468647261776e496e636f6d654f662861646472657373290000000000006020830152565b60185460081c60ff166140385760049060206134f06113a66000546001600160a01b031690565b604051938480927f447aa3040000000000000000000000000000000000000000000000000000000082525afa91821561148957600092614017575b506135726112ed6135646135476001546001600160a01b031690565b604080516001600160a01b03909216602083015290928391820190565b61356c613050565b84616c77565b906001600160a01b03821615613ff35760058111613fda5761359d613595612497565b61168e613089565b90601a546135ab818361240a565b831115613fd2576135bb9161240a565b81613b10575b5080601a5414908115613b07575b506135d8575050565b6135f36135ee6135e6612497565b61168e6131df565b601e55565b601e54601c548111613aa5575b5061362c61361d61360f612497565b613617613251565b84616b9e565b6020808251830101910161328a565b94600161364a9592959493946001600052602b602052604060002090565b01557fbd6c10e6ce287735500a1c033be76c57d5e632addc2ff6eff6bb587b8ee0d95d557fd3904653c5d0f9b122879aa13f7287465a10522aedd588dbbd607cf6f8b21480557f8bd115fc6ec81ad72d5ca8a8b3bd3d0177f1b615af6ad35644a4e24a7bed08bd557f5ac1f6ea00ad8b0f699e3a293cc93d6fdaf7ee608fbc40ffef54db3fb7ebb944557f455b6dea826802a5b6200d61a7810fccbd36f05c878743e3ac0e0e7aff3a46e95560008052602f6020527fc11d2605466dd88923799a61d7f94d6c8cc580bae52b24870f6853eaa13cc4d75461372e906118b2906126eb565b613775613766604051613758816112ed86602083019190916001600160a01b036020820193169052565b6137606132b8565b85616b9e565b602080825183010191016132f1565b602b6020527ffcc3d43705633578a5e8f1b6d6f38d08eb8cb891174edcc94b1a54972a1aebbd919091556004600052600080516020616ed5833981519152556137ca611a436137c2612497565b61168e613307565b6137e06135ee6137d8612497565b61168e613340565b61381d61381860405161380a816112ed86602083019190916001600160a01b036020820193169052565b613812613379565b85616cfc565b601f55565b604080516001600160a01b03831660208201526138499161384190829081016112ed565b61168e6133b2565b60005b8181106139b057505061388d610f3f6138b39361388561389c94604051938491602083019190916001600160a01b036020820193169052565b610f55613424565b6020808251830101910161345d565b935050505060ff8019601854169115151617601855565b600460206138cc6113a66000546001600160a01b031690565b604051928380927f6325dd040000000000000000000000000000000000000000000000000000000082525afa9081156114895761394a91610f3f91600091613991575b506139426139256001546001600160a01b031690565b604080516001600160a01b03909216602083015290938491820190565b611236613490565b6005600052602b6020527f4b5b933abde5416303ae4347d7fcdf5a17e8022e0fefc2b31c7609ebd3c32fea55601c54601d555b6120b761010061ff00196018541617601855565b6139aa915060203d602011611482576114728183612088565b3861390f565b806139c991613a18575b601f548111156139ce576123df565b61384c565b604080516001600160a01b0386166020820152908101829052613a1390613a0a906139fc81606081016112ed565b613a046133eb565b88616cfc565b61232e83611dcf565b6123df565b6040517f5329daca0000000000000000000000000000000000000000000000000000000060208201526001600160a01b038516602482015260448101829052613a729061376690613a6c81606481016112ed565b87616dc0565b90613a8783600052602f602052604060002090565b556001613a9e83600052602f602052604060002090565b01556139ba565b601c55613ad66112ed613ac8601e54604051928391602083019190602083019252565b613ad0613218565b83616d38565b613b00613aef602d54600052602e602052604060002090565b601c54600052602052604060002090565b5538613600565b905015386135cf565b60008052602f6020527fc11d2605466dd88923799a61d7f94d6c8cc580bae52b24870f6853eaa13cc4d6547fc11d2605466dd88923799a61d7f94d6c8cc580bae52b24870f6853eaa13cc4d7549395909491929091905b601a5484811015613f7357613b7e613b83916123df565b601a55565b60008052602a6020527f25a1a901705ed15d5376e82511cff743d9474883c82d145cebcc7811e0424a9c613bb781546123df565b9055601a5495613be7604051613bd9816112ed8b602083019190602083019252565b613be16130c2565b8a616c77565b90613bfb613bf3612497565b61168e6130fb565b91613c0f613c07612497565b611303613134565b91613c34604051613c2c816112ed60208201906000602083019252565b61168e61316d565b90613c57613c51613c43612497565b613c4b6131a6565b86616cfc565b93616e73565b9a6020613cb7613c726113a66000546001600160a01b031690565b6040519e8f809381927fcfaa1f6c000000000000000000000000000000000000000000000000000000008352600483019190916001600160a01b036020820193169052565b03915afa9b8c156114895760009c613f52575b50613cd761162c8d6169e9565b6110bc57613db692613d4586613d3f876113a69681613d03613da798600052602c602052604060002090565b55836001613d1d601a54600052602c602052604060002090565b01558b6002613d38601a54600052602c602052604060002090565b015561240a565b9d61240a565b9c613da2613d5b6001546001600160a01b031690565b60405163c85700fb60e01b60208201526001600160a01b0390911660248201526044810193909352606483018890526084830187905260a483018990528260c48101610f3f565b616dc0565b6020808251830101910161265f565b6001600160a01b03811615613f39577f1517c86fcf2bfb8e3468afcc539b0004955da8027797c497ea51d1f1094ab89893613ee3613f2092613e0b60039182611863601a54600052602c602052604060002090565b6118f6613eb2613eaa6118f1611925613e598a610fc66118fc613e4a613e3b6118c48c546001600160a01b031690565b6020808251830101910161276a565b9e9491959b929398905061271e565b94611964613ea3602d613e858c61192588613e7f8554600052602e602052604060002090565b9261240a565b613e908a825461279d565b905554600052602e602052604060002090565b938a61240a565b9182546127b9565b90556001601a5414613f2b575b613ed5601a54600052602c602052604060002090565b01546001600160a01b031690565b604080513381526001600160a01b03909216602083015281019490945260608401929092526080830191909152600060a0830152819060c0820190565b0390a1949394613b67565b613f3483601c55565b613ebf565b604051635258db5f60e01b815260026004820152602490fd5b613f6c919c5060203d602011611482576114728183612088565b9a38613cca565b5060008052602f6020527fc11d2605466dd88923799a61d7f94d6c8cc580bae52b24870f6853eaa13cc4d6959095557fc11d2605466dd88923799a61d7f94d6c8cc580bae52b24870f6853eaa13cc4d7939093559391929050386135c1565b5050806135bb565b60405163cdab4c8760e01b815260036004820152602490fd5b5050506140016135ee616a73565b61400c601e54601c55565b61397d601e54601d55565b61403191925060203d602011611482576114728183612088565b903861352b565b50565b6040519061404882612034565b601482527f6c6576656c436c617573652875696e74323536290000000000000000000000006020830152565b908160a091031261043b578051916020820151916040810151916080606083015192015190565b604051906140a882612034565b601382527f72616e6b436c617573652875696e7432353629000000000000000000000000006020830152565b90601f6140e181546123fc565b925b600884106140f15750509050565b6003546001600160a01b031693604094614137614129875160209361412182610f3f888883019190602083019252565b610f5561409b565b828082518301019101614074565b50505091821580156141d4575b6141bc5761416a9495969750541015908161419a575b5080614188575b614172576123df565b9291906140e3565b61417b81601f55565b613a138361232e83611dcf565b508354614194826125ec565b14614161565b905060016141b283600052602f602052604060002090565b015410153861415a565b8751635258db5f60e01b815260036004820152602490fd5b508115614144565b90156142705790601f6141ef81546123fc565b925b600884106141ff5750509050565b6003546001600160a01b03169360409461422f614129875160209361412182610f3f888883019190602083019252565b5050509182158015614268575b6141bc576142609495969750541015908161419a57508061418857614172576123df565b9291906141f1565b50811561423c565b506000905b601f54821161434a576003546001600160a01b0316916040926142ae614129855160209361412182610f3f888883019190602083019252565b505050918315158061433a575b614323576142de9495505410159081614301575b50156142e457613a1381601f55565b90614275565b613a136142f082611dcf565b8154906000199060031b1b19169055565b9050600161431983600052602f602052604060002090565b01541015386142cf565b8551635258db5f60e01b8152600480820152602490fd5b508215806142bb575081156142bb565b9050565b6102a0612186916146dd6143618261482a565b916146d86146d3845160039061438682610dab6001600052602b602052604060002090565b905560608601516004600052602b6020526143af82600080516020616ed5833981519152610dab565b90556020868101516002600052602b9091526143eb827fbd6c10e6ce287735500a1c033be76c57d5e632addc2ff6eff6bb587b8ee0d95c610dab565b90556040860180516003600052602b60205290919061442a827fd3904653c5d0f9b122879aa13f7287465a10522aedd588dbbd607cf6f8b2147f610dab565b905560808701516005600052602b602052614465827f4b5b933abde5416303ae4347d7fcdf5a17e8022e0fefc2b31c7609ebd3c32fe9610dab565b905560a08701516006600052602b6020526144a0827f5ac1f6ea00ad8b0f699e3a293cc93d6fdaf7ee608fbc40ffef54db3fb7ebb943610dab565b905560c08701516007600052602b602052906144dc907f455b6dea826802a5b6200d61a7810fccbd36f05c878743e3ac0e0e7aff3a46e8610dab565b905560e08601516001600052602b6020526002916146ca916146c59190614523857ffcc3d43705633578a5e8f1b6d6f38d08eb8cb891174edcc94b1a54972a1aebbd610dab565b90556101408901516004600052602b60205261454d85600080516020616ed5833981519152610dab565b90556101008901516002600052602b602052614589857fbd6c10e6ce287735500a1c033be76c57d5e632addc2ff6eff6bb587b8ee0d95c610dab565b9055610120890180516003600052602b6020529094906145c9827fd3904653c5d0f9b122879aa13f7287465a10522aedd588dbbd607cf6f8b2147f610dab565b90556101608a01516005600052602b602052614605827f4b5b933abde5416303ae4347d7fcdf5a17e8022e0fefc2b31c7609ebd3c32fe9610dab565b90556101808a01516006600052602b602052614641827f5ac1f6ea00ad8b0f699e3a293cc93d6fdaf7ee608fbc40ffef54db3fb7ebb943610dab565b90556101a08a01516007600052602b6020529061467e907f455b6dea826802a5b6200d61a7810fccbd36f05c878743e3ac0e0e7aff3a46e8610dab565b90556101c08901516146ba6146b2896146a3602d54600052602e602052604060002090565b90600052602052604060002090565b91825461279d565b90555160165461240a565b601655565b5160175461240a565b601755565b601c55565b0151151590565b6146ec6120b9565b9060008083528060208401528060408401528060608401528060808401528060a08401528060c08401528060e08401528061010084015280610120840152806101408401528061016084015280610180840152806101a0840152806101c0840152806101e084015280610200840152806102208401528061024084015280610260840152806102808401526102a0830152565b6040519061478c82612034565b600a82527f73687574646f776e2829000000000000000000000000000000000000000000006020830152565b604051906147c582612034565b601182527f696e636f6d654f662861646472657373290000000000000000000000000000006020830152565b604051906147fe82612034565b601482527f636f6d70757465546f75722875696e74323536290000000000000000000000006020830152565b906148336146e4565b9160039061484882546001600160a01b031690565b9161486361485461477f565b61485c612124565b9085616cc0565b6103e76000526030602052614876615a74565b6060889392930152818752614977816001956149166148d7886148a46001600052602b602052604060002090565b01546001600052602b602052887ffcc3d43705633578a5e8f1b6d6f38d08eb8cb891174edcc94b1a54972a1aebbd612a7e565b6001600052602b6020526002969061491090887ffcc3d43705633578a5e8f1b6d6f38d08eb8cb891174edcc94b1a54972a1aebbd612a7e565b9061260a565b8a5260608a01516004600052602b602052600080516020616ed58339815191528089015461496d92916149109161494e918b90612a7e565b6004600052602b60205288600080516020616ed5833981519152612a7e565b60608b01526151bc565b94929093916101c08c01526101008b015260208a0152600014614fc05750506149ae610f3f611b0d6004546001600160a01b031690565b3160408701525b6149e9610f3f6149cd6009546001600160a01b031690565b6149e161392587546001600160a01b031690565b6112366147b8565b6005600052602b60205291614a80614a4f857f4b5b933abde5416303ae4347d7fcdf5a17e8022e0fefc2b31c7609ebd3c32fe901546005600052602b602052847f4b5b933abde5416303ae4347d7fcdf5a17e8022e0fefc2b31c7609ebd3c32fe9612a7e565b6005600052602b602052827f4b5b933abde5416303ae4347d7fcdf5a17e8022e0fefc2b31c7609ebd3c32fe9612a7e565b608088018181529381811115614fb257614a9d915084519061260a565b83526004601f548381101580614f6c575b614f3e575b10159182614ec6575b5050614e98575b6005600052603060205281614af77f9d0b70a39d4b3569f175af8ea51ae318eac80460c467ee4a16ee63ec5720706e6112c2565b14614e7a575b506006600052603060205280614b327fd558ed0e54509c62efb2aedb46e6ad1b04c7bdca351e3613e136c946b91686d86112c2565b14614e5a575b60076000526030602052614b6b7f4ebb69666752feecd656ebf5f8cd3c2f1c70bb06a0c3d3744be479e4a580c2336112c2565b14614e3a575b614beb614bdb614ba3614b98614b8d875160208901519061240a565b60408801519061240a565b60608701519061240a565b614bd5614bc9614bbd60e08901516101008a01519061240a565b6101208901519061240a565b6101408801519061240a565b906156ec565b15156102a08b0152929591929091565b61028089015261024088015261022087015261026086019283526102008601526101e08501526102a0840151614c1f575050565b614c37610f3f611b0d6004546001600160a01b031690565b316040850152519061022084015161024085015110614e03575b50825181614dc157614c679060e085015161240a565b60e0840152600083525b602083015181614d7757614c8a9061010085015161240a565b610100840152600060208401525b604083015181614d2d57614cb19061012085015161240a565b610120840152600060408401525b60608301519080614ce95750614cda9061014084015161240a565b61014083015260006060830152565b614d15614d0a61403893808411600014614d2657805b81606089015261260a565b61014086015161240a565b61014085015260608401519061260a565b8390614cff565b90614d5a614d4f614d6b93808411600014614d7057805b81604089015261260a565b61012086015161240a565b61012085015260408401519061260a565b614cbf565b8390614d44565b90614da4614d99614db593808411600014614dba57805b81602089015261260a565b61010086015161240a565b61010085015260208401519061260a565b614c98565b8390614d8e565b90614dea614de0614df793808411600014614dfc57805b81885261260a565b60e086015161240a565b60e085015283519061260a565b614c71565b8390614dd8565b614e349150610f3f612cd591614e2c610280870151604051938491602083019190602083019252565b610f55612f92565b38614c51565b600060c084018051614e526101a0870191825161240a565b905252614b71565b600060a085018051614e72610180880191825161240a565b905252614b38565b8060009151614e8f610160880191825161240a565b90525238614afd565b614ebc604051614eb4816112ed60208201906004602083019252565b6138126147f1565b60c0860152614ac3565b6007600052602b6020527f455b6dea826802a5b6200d61a7810fccbd36f05c878743e3ac0e0e7aff3a46e880860154614f369450614f05929091612a7e565b6007600052602b602052907f455b6dea826802a5b6200d61a7810fccbd36f05c878743e3ac0e0e7aff3a46e8612a7e565b153880614abc565b614f62604051614f5a816112ed60208201906002602083019252565b6112856147f1565b60a08a0152614ab3565b506006600052602b6020527f5ac1f6ea00ad8b0f699e3a293cc93d6fdaf7ee608fbc40ffef54db3fb7ebb94380870154614fac91612b1991908790612a7e565b15614aae565b614fbb9161260a565b614a9d565b60408801526101208701526149b5565b604051906040820182811067ffffffffffffffff821117611ff65760405260006020838281520152565b6040519061500782611ffb565b81615010614fd0565b815261501a614fd0565b60208201526040615029614fd0565b910152565b6040519061503b82612034565b601882527f6765744261746368526f79616c7479436c6175736573282900000000000000006020830152565b6102a090818184031261043b5782601f8201121561043b57604080519361508d8561206c565b849383019281841161043b57935b8385106150aa57505050505090565b60608583031261043b5782516060916150c282611ffb565b865182526020918288015183820152858801518682015281520194019361509b565b604051906150f182612034565b601f82527f676574526f79616c697479416d6f756e7442617463682875696e7432353629006020830152565b9060e08282031261043b5780601f8301121561043b57604051916151408361206c565b829060e0810192831161043b57905b82821061515c5750505090565b815181526020918201910161514f565b90600781101561072c5760051b0190565b8181029291600082127f8000000000000000000000000000000000000000000000000000000000000000821416610b44578184051490151715610b4457565b916000926000926000926000926000926151d4614ffa565b6151dd836154f8565b8251906020820152526151ef836155bf565b6020830151906020820152526152048361564a565b60408301519060208201525261524d61523e6152286003546001600160a01b031690565b61523061502e565b615238612124565b91616b9e565b60208082518301019101615067565b92601c54926152646004546001600160a01b031690565b93601f54905b83811061527a5750505050505050565b6152b66152a7604051615299816112ed86602083019190602083019252565b6152a16150e4565b89616b9e565b6020808251830101910161511d565b6001905b838211156153d957505082156152d9575b6152d4906123df565b61526a565b6152fe6152f6826146a3602d54600052602e602052604060002090565b54809c61279d565b9a615309828661260a565b9060009160408801518051888110615383575b505080831161537b575b826153309161260a565b9180615365575b5081615345575b50506152cb565b9a61535761535d926152d4949d61517d565b9061279d565b99903861533e565b9a615357829c6153749361517d565b9938615337565b915081615326565b808611156153d05750602085915b0161539c81516123fc565b8910156153c15750875b8181111561531c576153b992945061260a565b91388061531c565b6153cb90516123fc565b6153a6565b60209091615391565b909c6153ed6153e78f6125ec565b8a61516c565b5151158015615498575b61548e5786518051841015908161547f575b508015615458575b1561543c57615430615436918f61542a612ddc916125ec565b8561516c565b9d6123df565b906152ba565b9c9d6154528f91612ddc61542a615436946125ec565b9e6123df565b50602087015180518410159081615470575b50615411565b6020915001518311153861546a565b60209150015183111538615409565b9c615436906123df565b508d6154b06154a682611dcf565b90549060031b1c90565b84101590816154c1575b50156153f7565b6154ef915060406154e66154e06154da6154a685611dcf565b936125ec565b8d61516c565b5101519061240a565b8311158e6154ba565b6103e7600081905260306020527f42e4ed8a28bd93bfb836b3bd3996ada35ff866e155b2ce135e767e31acbdb63f805493929084156155b7576001851661559c57505060005260306020526154a661555d6040600020615557856125fb565b906122ee565b90546103e7600052603060205260039190911b1c926155577f42e4ed8a28bd93bfb836b3bd3996ada35ff866e155b2ce135e767e31acbdb63f916125ec565b90936155ac9250615557906125ec565b90549060031b1c9190565b509250508190565b6002600090815260306020527f89a47dfbb363dd4e64da56b4585033c9abd8a425d24b94630469c44bee7189c280549193929082156155b7576001831661563b5750506154a6906002845260306020526155576040615623818720615557856125fb565b90549060031b1c9560028152603060205220916125ec565b9093506155576155ac926125ec565b6003600081815260306020527f11a30d68d5ffd3a101d3683e9a6997d49d9351e95dc004c6a4e652b897626df780549194939082156156e357600183166156cb5750506156c390828552603060205261555760406156ad818820615557856125fb565b905490861b1c96858152603060205220916125ec565b9054911b1c90565b9094506155576156da926125ec565b9054911b1c9190565b50935050508190565b6000808052602f6020529190829061579361573761572e7fc11d2605466dd88923799a61d7f94d6c8cc580bae52b24870f6853eaa13cc4d6546012549061240a565b6031549061271e565b94615740615a74565b505060335460ff81166159e9575b60ff8160081c1661594d575b60ff8160101c166158ad575b60181c60ff16615839575b808611156158305761578d615786828861260a565b958461240a565b9061240a565b918295856158106157bd6157b86157af6015546013549061240a565b6032549061271e565b612701565b60145490958187111561582a576157d4828861260a565b9581156158225750612cd5610f3f61578d92612ccd6157fb6003546001600160a01b031690565b91604051938491602083019190602083019252565b9411801561581b5790565b5082841190565b90509061240a565b856157d4565b61578d84615786565b6004600052602b6020527f8bd115fc6ec81ad72d5ca8a8b3bd3d0177f1b615af6ad35644a4e24a7bed08bd546158a8919061578d90615888906002600080516020616ed5833981519152612a7e565b6004600052602b6020526003600080516020616ed5833981519152612a7e565b615771565b6003600052602b6020527fd3904653c5d0f9b122879aa13f7287465a10522aedd588dbbd607cf6f8b2148054909160ff91615945919061578d906159139060027fd3904653c5d0f9b122879aa13f7287465a10522aedd588dbbd607cf6f8b2147f612a7e565b60036000819052602b6020527fd3904653c5d0f9b122879aa13f7287465a10522aedd588dbbd607cf6f8b2147f612a7e565b919050615766565b60026000819052602b6020527fbd6c10e6ce287735500a1c033be76c57d5e632addc2ff6eff6bb587b8ee0d95d5491926159e392909161578d916159b1917fbd6c10e6ce287735500a1c033be76c57d5e632addc2ff6eff6bb587b8ee0d95c612a7e565b6002600052602b60205260037fbd6c10e6ce287735500a1c033be76c57d5e632addc2ff6eff6bb587b8ee0d95c612a7e565b9061575a565b9050615a6e615a3c6001615a086001600052602b602052604060002090565b01546001600052602b60205260027ffcc3d43705633578a5e8f1b6d6f38d08eb8cb891174edcc94b1a54972a1aebbd612a7e565b6001600052602b60205260037ffcc3d43705633578a5e8f1b6d6f38d08eb8cb891174edcc94b1a54972a1aebbd612a7e565b9061574e565b600090816001815b600f821115615ae15750506001600052602b6020527ffcc3d43705633578a5e8f1b6d6f38d08eb8cb891174edcc94b1a54972a1aebbd548101809111610b44576004600052602b6020529161218690600080516020616ed5833981519152549061240a565b9093848252602f92602093808552604090600282862001548301809311610b44576003929588865252832001548101809111610b4457615b2190946123df565b90615a7c565b9190615b3161280d565b92600191828214615ea8576002808314615d7f57506003808314615d7f575060048214615d135760058214615cd157615b9090615b6c616a73565b90601c54615b7a828261240a565b831115615cca57615b8b925061240a565b61482a565b9060068114615c7a5760078114615c2157600814615bac575050565b6102809192935060ff615bbd6120fb565b936101e08301518552610200830151602086015261022083015160408601526102408301516060860152615bf56102a0840151151590565b60009015615c1a57505b16608084015261026081015160a0840152015160c082015290565b9050615bff565b50919250506101a0615c316120fb565b9160e08101518352610100810151602084015261012081015160408401526101408101516060840152610160810151608084015261018081015160a0840152015160c082015290565b509192505060c0615c896120fb565b91805183526020810151602084015260408101516040840152606081015160608401526080810151608084015260a081015160a0840152015160c082015290565b505061482a565b5050509050615cde6120fb565b601254815260135460208201526015546040820152601454606082015260006080820152600060a0820152600060c082015290565b5050509050615d206120fb565b60165481526017546020820152615d426001600052602b602052604060002090565b5460408201526004600052602b602052600080516020616ed583398151915254606082015260006080820152600060a0820152600060c082015290565b939450505050615d8d6120fb565b7ffcc3d43705633578a5e8f1b6d6f38d08eb8cb891174edcc94b1a54972a1aebbd82015481527fbd6c10e6ce287735500a1c033be76c57d5e632addc2ff6eff6bb587b8ee0d95c8201546020808301919091527fd3904653c5d0f9b122879aa13f7287465a10522aedd588dbbd607cf6f8b2147f8301546040830152600080516020616ed583398151915283015460608301527f4b5b933abde5416303ae4347d7fcdf5a17e8022e0fefc2b31c7609ebd3c32fe983015460808301527f5ac1f6ea00ad8b0f699e3a293cc93d6fdaf7ee608fbc40ffef54db3fb7ebb94383015460a08301526007600052602b90527f455b6dea826802a5b6200d61a7810fccbd36f05c878743e3ac0e0e7aff3a46e89091015460c082015290565b5050909150615d8d6120fb565b60405190615ec282611fda565b60006060838281528260208201528260408201520152565b90604051615ee781611fda565b6060600382948054845260018101546020850152600281015460408501520154910152565b67ffffffffffffffff8111611ff65760051b60200190565b90615f2e82615f0c565b615f3b6040519182612088565b8281528092615f4c601f1991615f0c565b019060005b828110615f5d57505050565b602090615f68615eb5565b82828501015201615f51565b805182101561072c5760209160051b010190565b61626d6101c06120b792615fc2615fa682516001600160a01b031690565b6001600160a01b03166001600160a01b03196002541617600255565b615ff5615fd960208301516001600160a01b031690565b6001600160a01b03166001600160a01b03196003541617600355565b61602861600c60408301516001600160a01b031690565b6001600160a01b03166001600160a01b03196004541617600455565b61605b61603f60608301516001600160a01b031690565b6001600160a01b03166001600160a01b03196005541617600555565b61608e61607260808301516001600160a01b031690565b6001600160a01b03166001600160a01b03196006541617600655565b6160c16160a560a08301516001600160a01b031690565b6001600160a01b03166001600160a01b03196007541617600755565b6160f46160d860c08301516001600160a01b031690565b6001600160a01b03166001600160a01b03196008541617600855565b61612761610b60e08301516001600160a01b031690565b6001600160a01b03166001600160a01b03196009541617600955565b61615b61613f6101008301516001600160a01b031690565b6001600160a01b03166001600160a01b0319600a541617600a55565b61618f6161736101208301516001600160a01b031690565b6001600160a01b03166001600160a01b0319600b541617600b55565b6161c36161a76101408301516001600160a01b031690565b6001600160a01b03166001600160a01b0319600c541617600c55565b6161f76161db6101608301516001600160a01b031690565b6001600160a01b03166001600160a01b0319600d541617600d55565b61622b61620f6101808301516001600160a01b031690565b6001600160a01b03166001600160a01b0319600e541617600e55565b61625f6162436101a08301516001600160a01b031690565b6001600160a01b03166001600160a01b0319600f541617600f55565b01516001600160a01b031690565b6001600160a01b03166001600160a01b03196010541617601055565b61629e6113a66000546001600160a01b031690565b604051907f97f3815a000000000000000000000000000000000000000000000000000000008252602082600481845afa9182156114895760009261692e575b50604051917fcfbffe53000000000000000000000000000000000000000000000000000000008352602083600481855afa9283156114895760009361690d575b50604051907fab6e844f000000000000000000000000000000000000000000000000000000008252602082600481865afa918215611489576000926168ec575b50604051917f14d8d024000000000000000000000000000000000000000000000000000000008352602083600481875afa928315611489576000936168cb575b50604051927fd1f956b1000000000000000000000000000000000000000000000000000000008452602084600481885afa938415611489576000946168aa575b50604051937fe61dfd58000000000000000000000000000000000000000000000000000000008552602085600481895afa94851561148957600095616889575b506040517fe09d394d0000000000000000000000000000000000000000000000000000000081526020816004818a5afa9081156114895760009161686a575b506040517f52b06d640000000000000000000000000000000000000000000000000000000081526020816004818b5afa9081156114895760009161684b575b506040517f013cf08b00000000000000000000000000000000000000000000000000000000815260006004820152916020836024818c5afa9283156114895760009361682a575b50604051977f5e09dbe70000000000000000000000000000000000000000000000000000000089526020896004818d5afa94851561148957600499600096616809575b5060208b6040519b8c80927faa0ddc160000000000000000000000000000000000000000000000000000000082525afa9687156114895760049a6000986167e8575b5060208c6040519c8d80927f640274270000000000000000000000000000000000000000000000000000000082525afa9889156114895760049b60009a6167c7575b5060208d6040519d8e80927f30125cf50000000000000000000000000000000000000000000000000000000082525afa9a8b15611489578d60049d60009d6167a5575b506020906040519e8f80927f24768d910000000000000000000000000000000000000000000000000000000082525afa9c8d156114895760009d616784575b50604051809e81907f9dc969a80000000000000000000000000000000000000000000000000000000082525a92600491602094fa9d8e156114895760009e616763575b506166776120da565b6001600160a01b0390911681529d8e906001600160a01b03166020820152604001906166ab91906001600160a01b03169052565b6001600160a01b031660608d01526001600160a01b031660808c01526001600160a01b031660a08b01526001600160a01b031660c08a01526001600160a01b031660e08901526001600160a01b03166101008801526001600160a01b03166101208701526001600160a01b03166101408601526001600160a01b03166101608501526001600160a01b03166101808401526001600160a01b03166101a08301526001600160a01b03166101c08201526120b790615f88565b61677d919e5060203d602011611482576114728183612088565b9c3861666e565b61679e919d5060203d602011611482576114728183612088565b9b3861662b565b6020919d506167c090823d8411611482576114728183612088565b9c906165ec565b6167e1919a5060203d602011611482576114728183612088565b98386165a9565b61680291985060203d602011611482576114728183612088565b9638616567565b61682391965060203d602011611482576114728183612088565b9438616525565b61684491935060203d602011611482576114728183612088565b91386164e2565b616864915060203d602011611482576114728183612088565b3861649b565b616883915060203d602011611482576114728183612088565b3861645c565b6168a391955060203d602011611482576114728183612088565b933861641d565b6168c491945060203d602011611482576114728183612088565b92386163dd565b6168e591935060203d602011611482576114728183612088565b913861639d565b61690691925060203d602011611482576114728183612088565b903861635d565b61692791935060203d602011611482576114728183612088565b913861631d565b61694891925060203d602011611482576114728183612088565b90386162dd565b9081602091031261043b575161218681610940565b6169bf6001600160a01b036002541660405161697f81612034565b600881527f69735361666528290000000000000000000000000000000000000000000000006020820152604051916169b683612050565b60008352616bc9565b90806169de575b156106c457806020806121869351830101910161694f565b5060208151146169c6565b616a4c6001600160a01b038060025416604051916020941684830152838252616a1182612034565b60405190616a1e82612034565b601582527f697353656375726542617365286164647265737329000000000000000000000085830152616bc9565b9080616a69575b156106c45781612186928251830101910161694f565b5081815114616a53565b6121866001600160a01b0360035416604051616a8e81612034565b600681527f69416765282900000000000000000000000000000000000000000000000000006020820152604051916111a883612050565b6001600160a01b0380911690811561088057600154826001600160a01b0319821617600155167f8292fce18fa69edf4db7b94ea2e58241df0ae57f97e0a6c9b29067028bf92d76600080a3565b3d15616b3d573d90616b2382612108565b91616b316040519384612088565b82523d6000602084013e565b606090565b908015612375576001600160a01b03821691821561088057600080808481945af1616b6b616b12565b50156106c45760207fcec1f18c3ab8ddaaa107a1591e3c369667eec613626611a8deaedef43069fcdd91604051908152a2565b90616ba99291616bc9565b9060009015616bb6575090565b6040519150616bc482612050565b815290565b9190823b15616c5e577fffffffff00000000000000000000000000000000000000000000000000000000815160208093012016916040519180830193845281519160005b838110616c4a575050509181616c3a60248260009795968897018783820152036004810184520182612088565b51915afa616c46616b12565b9091565b818101830151858201602401528201616c0d565b505050600090604051616c7081612050565b6000815290565b9291616c8591600094616bc9565b9080616cb5575b616c935750565b6001600160a01b0391925080602080616cb19351830101910161265f565b1690565b506020815114616c8c565b9291616cce91600094616bc9565b9080616cf1575b616cdc5750565b6121869192506020808251830101910161694f565b506020815114616cd5565b9291616d0a91600094616bc9565b9080616d2d575b616d185750565b61218691925060208082518301019101612988565b506020815114616d11565b9291616d4691600094616bc9565b9080616d6b575b616d545750565b90915060208180518101031261043b576020015190565b506020815114616d4d565b90602082519201517fffffffff00000000000000000000000000000000000000000000000000000000908181169360048110616db157505050565b60040360031b82901b16169150565b6001600160a01b0381161561088057600080918351908260208601915af190616de7616b12565b9115616df1575090565b805160009190600411616e6d57616e089150616d76565b815115616e185750805190602001fd5b6040517f21c09d340000000000000000000000000000000000000000000000000000000081527fffffffff00000000000000000000000000000000000000000000000000000000919091166004820152602490fd5b50616e08565b803b6000616e8082612108565b92616e8e6040519485612088565b82845260208401903c602d815110616eaa57602a015160601c90565b60046040517fbaf3f0f7000000000000000000000000000000000000000000000000000000008152fdfe8bd115fc6ec81ad72d5ca8a8b3bd3d0177f1b615af6ad35644a4e24a7bed08bca264697066735822122037f21c2e0e79d0b8ecf527049edf27d15e6643e885e7934e9b155bd9e7b06ba264736f6c63430008140033","linkReferences":{}},"methodIdentifiers":{"instanceStor()":"131c73ad"},"id":78}