{"abi":[{"type":"constructor","inputs":[{"name":"_hex","type":"address","internalType":"address"}],"stateMutability":"nonpayable"},{"type":"function","name":"instanceStor","inputs":[],"outputs":[{"name":"","type":"address","internalType":"address"}],"stateMutability":"view"}],"bytecode":{"object":"0x6080346100c5576001600160401b0390601f6170c538819003918201601f1916830191848311848410176100af578084926020946040528339810103126100c557516001600160a01b039190828116908190036100c55760405191616f6c90818401908111848210176100af576020928492610159843981520301906000f080156100a3571660018060a01b03196000541617600055604051608e90816100cb8239f35b6040513d6000823e3d90fd5b634e487b7160e01b600052604160045260246000fd5b600080fdfe6080806040526004361015601257600080fd5b600090813560e01c63131c73ad14602857600080fd5b346054578160031936011260545773ffffffffffffffffffffffffffffffffffffffff60209254168152f35b5080fdfea26469706673582212202741aa32fa9ec3dfdd8d8b7cd6678b079d059845f101e494744d289bf930465564736f6c63430008140033608034620000bf57601f62006f6c38819003918201601f19168301916001600160401b03831184841017620000c457808492602094604052833981010312620000bf57516001600160a01b03811690819003620000bf578015620000ad5760018060a01b03199033826001541617600155600091825416178155600160115580601255806013558060145580601555806016558060175580601855601955604051616e919081620000db8239f35b60405163e6c4247b60e01b8152600490fd5b600080fd5b634e487b7160e01b600052604160045260246000fdfe60806040526004361015610018575b361561001657005b005b60003560e01c806302a085f214610338578063043719b41461033357806309d8da2e1461032e5780630b98f9751461032957806312065fe014610324578063129641201461031f578063143ec3b71461031a5780631f185d16146103155780632697a77a1461031057806329ee350e1461030b578063339459a61461030657806339b4d61b146103015780633b9b7955146102fc57806343a1b5ab146102f75780634a65786c146102f25780635ecf6a8a146102ed578063619d5194146102e85780636350b2c2146102e3578063654c668e146102de57806369245009146102d95780636de97c66146102d45780636f493aad146102cf578063711e5870146102ca578063725b6fff146102c5578063759f22bd146102c057806375b4d78c146102bb578063799e4c45146102b65780637b058ac1146102b1578063822ffec4146102ac578063880cdc31146102a75780638da5cb5b146102a2578063934209ce1461029d5780639659867e14610298578063a1f7f53914610293578063a5d7cda41461028e578063a663030414610289578063a9bf285b14610284578063ab57c03a1461027f578063af4845261461027a578063af640d0f14610275578063b90306ad14610270578063b9f1a3941461026b578063bab2f55214610266578063c54e44b014610261578063c8ef7b1a1461025c578063d3abb8a314610257578063da02133514610252578063e01ad5fd1461024d578063e0a9bc2b146102485763fdc10bc90361000e57612457565b61243c565b6123bc565b612337565b6122db565b6121f9565b6121c1565b6121a3565b612042565b611f13565b611ef5565b611ec4565b611d96565b611d78565b611735565b611338565b6112c3565b6112a5565b611287565b611260565b6111f5565b610e40565b610d0f565b610cf1565b610cd3565b610be4565b610b60565b610ae6565b610aac565b610a1a565b6109c2565b61096d565b610916565b6108ae565b610895565b61086f565b610851565b61082a565b6107fe565b6107e5565b6107ac565b61067a565b6105a2565b610565565b61051c565b610500565b61048f565b61046c565b610430565b61036c565b610120810192916000915b6009831061035557505050565b600190825181526020809101920192019190610348565b60408060031936011261042b57805190610385826124c0565b61012036833760ff601a541661041b5761039d616915565b1561040b576103ab3361699a565b80156103f7575b156103e7576103d36103e3926103c6612bf9565b6024359060043590612d95565b906001601155519182918261033d565b0390f35b6004905163ea8e4eb560e01b8152fd5b50336001600160a01b0360055416146103b2565b60049051634ee2123760e11b8152fd5b6004905163baf3f0f760e01b8152fd5b600080fd5b3461042b57604036600319011261042b576004356000526032602052602061045e60243560406000206128c9565b90546040519160031b1c8152f35b3461042b57600036600319011261042b57602060ff601a54166040519015158152f35b3461042b57602036600319011261042b576104a8616915565b156104ef576104b63361699a565b80156104db575b156104ca57600435601b55005b600460405163ea8e4eb560e01b8152fd5b50336001600160a01b0360055416146104bd565b6004604051634ee2123760e11b8152fd5b3461042b57600036600319011261042b57602047604051908152f35b3461042b57604036600319011261042b57610538600435615c87565b60405190600090825b6007831061054e5760e084f35b600190825181526020809101920192019190610541565b3461042b57602036600319011261042b5760043560005260326020526020604060002054604051908152f35b6001600160a01b0381160361042b57565b3461042b5760208060031936011261042b576106216004356105c381610591565b6001600160a01b038060025416906040519216848301528382526105e6826124dd565b604051906105f3826124dd565b601182527f69735369676e657228616464726573732900000000000000000000000000000085830152616b7a565b919080610666575b15610655578181610643926103e394518301019101616900565b60405190151581529081906020820190565b6004604051633204506f60e01b8152fd5b5080825114610629565b8015150361042b57565b3461042b57608036600319011261042b5760043561069781610591565b6024356106a381610591565b606435906106b082610670565b6001600160a01b038093169081158080156107a2575b6107915761076757610718916000948554826001600160a01b03198216178755167fe939feee179e631422bcc8f6e6d7d908cb3f8af38f5372f17c77e15aea5c80ee8680a3610713612785565b616a76565b610723604435601d55565b61072a5780f35b61073a610735616a24565b602055565b610745602054601e55565b610750602054601f55565b61076461010061ff0019601a541617601a55565b80f35b60046040517fe6c4247b000000000000000000000000000000000000000000000000000000008152fd5b600460405163baf3f0f760e01b8152fd5b50848216156106c6565b3461042b57600036600319011261042b5760215460088110156107e057602381015460408051928352602083019190915290f35b6128b3565b3461042b57600036600319011261042b5761001661623a565b3461042b57602036600319011261042b57600435600052602c6020526020604060002054604051908152f35b3461042b57600036600319011261042b5760206001600160a01b0360005416604051908152f35b3461042b57600036600319011261042b576020602f54604051908152f35b3461042b57600036600319011261042b57602060ff601a5460081c166040519015158152f35b3461042b57600036600319011261042b57610016612785565b3461042b57602036600319011261042b576004356108cb81610670565b6108d3616915565b156104ef576108e13361699a565b8015610902575b156104ca5760ff8019601a54169115151617601a55600080f35b50336001600160a01b0360055416146108e8565b3461042b57602036600319011261042b57600435600052602e602052608060406000208054906001810154906001600160a01b03600360028301549201541691604051938452602084015260408301526060820152f35b3461042b57604036600319011261042b57610986616915565b156104ef576109943361699a565b80156109ae575b156104ca57600435601455602435601655005b50336001600160a01b03600554161461099b565b3461042b57600036600319011261042b5760208054604051908152f35b6020908160408183019282815285518094520193019160005b828110610a06575050505090565b8351855293810193928101926001016109f8565b3461042b57600036600319011261042b576021546001810190818111610aa757610a4382615f0d565b91610a516040519384612531565b808352610a60601f1991615f0d565b0136602084013760005b81811115610a8057604051806103e385826109df565b60088110156107e05780610aa29160230154610a9c8286615f25565b5261298e565b610a6a565b612978565b3461042b57604036600319011261042b57600435600052603060205260406000206024356000526020526020604060002054604051908152f35b3461042b57602036600319011261042b57600435610b0381610670565b610b0b616915565b156104ef57610b193361699a565b8015610b4c575b156104ca5715610b3a57610b3560225461298e565b602255005b6022548015610aa75760001901602255005b50336001600160a01b036005541614610b20565b3461042b57600036600319011261042b576020601e54604051908152f35b6020908160408183019282815285518094520193019160005b828110610ba5575050505090565b9091929382608082610bd86001948951606080918051845260208101516020850152604081015160408501520151910152565b01950193929101610b97565b3461042b57604036600319011261042b5760243560043581811161079157808203918211610aa757600190818301809311610aa757610c2283615f0d565b92610c306040519485612531565b808452610c3f601f1991615f0d565b0160005b818110610cbc575050816000905b610c64575b604051806103e38682610b7e565b8351811015610cb75780610c96610c91610c81610cb19486612a4b565b6000526031602052604060002090565b615edb565b610ca08287615f25565b52610cab8186615f25565b5061298e565b82610c51565b610c56565b602090610cc7615eb6565b82828801015201610c43565b3461042b57600036600319011261042b576020601b54604051908152f35b3461042b57600036600319011261042b576020602254604051908152f35b3461042b5760a036600319011261042b57604435602435600435608435610d3581610670565b610d3d616915565b156104ef57610d4b3361699a565b8015610e2c575b156104ca5760009260009480610d73575b6040805186815260208101889052f35b90919293506021549483600014610de457506001610dc382610dd796610db1610da9610dcc966000526031602052604060002090565b918254612a4b565b90556000526031602052604060002090565b01918254612a4b565b90555b60643561440f565b6021549038808080610d63565b808260409252603160205220938454908103908111610aa757610e1c610e2592600192610dd797556000526031602052604060002090565b01918254612a67565b9055610dcf565b50336001600160a01b036005541614610d52565b3461042b5760c036600319011261042b5760443560643560a435602435600435610e6983610670565b610e71616915565b156104ef57610e7f3361699a565b80156111e1575b156104ca57610e9f856000526031602052604060002090565b610eaa828254612a4b565b905560019384610ec4876000526031602052604060002090565b01610ed0848254612a4b565b90556000805260316020527f346dc135129bcc5b8e8f6ff902940f16dc0729d02b27118b912aa326da88b831541515806111d8575b610f18575b602154604051908152602090f35b610f96921593841592836111ca575b610f85610f76610f5a610f426003546001600160a01b031690565b610f688c604051938491602083019190602083019252565b03601f198101845283612531565b610f7061428b565b90616b4f565b602080825183010191016142c4565b959198909660209493945490612a67565b608435119182156111bd575b50816111b4575b50610fb7575b505050610f0a565b60039561102295600090156111ab5750610fdd610fd7610fe39385612b45565b91612ad4565b906129d6565b955b600090156111a15750610fd7610ffe93610fdd92612b45565b945b6002611016826000526031602052604060002090565b01610db1858254612a4b565b0161102e848254612a4b565b90556001600052603260205281807f0d07fe408fa264e656a9c06e272928e4d4bb400d93cd5b5e74ac592f6170c2fd541614801561116a575b61112d575b506004600052603260205280807f3f52cf82629296489b84e1dbb72f035157400392aa100335795b652755f8cdda5416149081156110f5575b506110b8575b8080808080808080610faf565b6004600052602d6020526110ed60027faa2e4aefbe0e8a3f17f0ef1a62898433725e8346722aad5b9b38d3974d216083610dc3565b9055386110ab565b6103e760005260326020529050807f4a392a5ba0654924db65f19538db6461a3d6763bf0797df25c3b2d5e7c8c7cef541614386110a5565b6001600052602d60205261116260027f4ac3b22e31fa68474eb1c8f858cd447cf1ee3eef7de8984178a7afa8f4fe0cd0610dc3565b90553861106c565b506103e7600052603260205281807f4a392a5ba0654924db65f19538db6461a3d6763bf0797df25c3b2d5e7c8c7cef541614611067565b9250505094611000565b91505095610fe5565b90501538610fa9565b6021541015915038610fa2565b6111d383614324565b610f27565b50851515610f05565b50336001600160a01b036005541614610e86565b3461042b57602036600319011261042b5760043561121281610591565b61121a616915565b156104ef576112283361699a565b801561124c575b156104ca576001600160a01b038116156104ca5761001690616a76565b50336001600160a01b03600554161461122f565b3461042b57600036600319011261042b5760206001600160a01b0360015416604051908152f35b3461042b57600036600319011261042b576020602154604051908152f35b3461042b57600036600319011261042b576020601c54604051908152f35b3461042b57600036600319011261042b5760206113306001600160a01b03600654166040516112f1816124dd565b601381527f67657464656c656761746f72436f756e742829000000000000000000000000008482015260405191611327836124f9565b60008352616cad565b604051908152f35b60408060031936011261042b576004803560243560ff601a54166117265761135e612bf9565b611366616a24565b90601e546113748282612a4b565b83111561171e576113859250612a4b565b925b6113c46113bf6113b96113a26003546001600160a01b031690565b6113aa613242565b906113b36125e0565b90616cad565b866129d6565b602b55565b6113da602b54600052602c602052604060002090565b546114016113f06003546001600160a01b031690565b6113f8613242565b906113b3612619565b1161170f578254601d548251602080820192909252908152601f199161144491906001600160a01b0316611436604083612531565b61143e61299d565b90616c28565b936001600160a01b039485811615611700576103e760005260326020526001807f4a392a5ba0654924db65f19538db6461a3d6763bf0797df25c3b2d5e7c8c7cef541614611634575b506114cd6114a36003546001600160a01b031690565b8451602081018790526040948501815290936114bf9082612531565b6114c761325a565b84616cad565b34036116265750936115be91846115276115187f1517c86fcf2bfb8e3468afcc539b0004955da8027797c497ea51d1f1094ab8989861150a613293565b6115126125cd565b91616b4f565b602080825183010191016132cc565b95919a909394169916928015158061161d575b6115fc575b5050801515806115f3575b6115cb575b50505061156661156134601254612a4b565b601255565b61157a61157585601554612a4b565b601555565b61158382612c34565b513381526001600160a01b039094166020850152604084019290925234606084015260808301919091526103e860a0830152819060c0820190565b0390a16100166001601155565b6115eb92610fdd6115df6115e59334612b45565b91612ae5565b90616af3565b38808061154f565b5081151561154a565b61161691610fdd6115df6116109334612b45565b89616af3565b388061153f565b5089151561153a565b8251633204506f60e01b8152fd5b909592949293919031156116515785855163baf3f0f760e01b8152fd5b6013546014546016546017546012546015548a51958652602086019490945260408501929092526060840152608083015260a082015260c08101859052939592949193919290917fb359d8408cffc6b8788774a87b59f0d5be825576ea5fdd7b0917fed6a07e80309060e090a16116c86000601355565b6116d26000601455565b6116dc6000601655565b6116e66000601755565b6116f06000601255565b6116fa6000601555565b3861148d565b50825163baf3f0f760e01b8152fd5b905051633204506f60e01b8152fd5b505092611387565b82845163baf3f0f760e01b8152fd5b60c036600319011261042b57600480359061174f82610591565b6064359160443560a435608435611764616915565b15611d68576117723361699a565b8015611d54575b15611d445760ff601a5416611d3457611790612bf9565b84546001600160a01b031694601d54906040956117d08751806117bc6020968783019190602083019252565b0399611436601f199b8c8101845283612531565b6001600160a01b03811615611d25576103e760005260326020526001807f4a392a5ba0654924db65f19538db6461a3d6763bf0797df25c3b2d5e7c8c7cef541614611c55575b506118276118238261699a565b1590565b611c465761183a6113bf603354876129d6565b602b5461185181600052602c602052604060002090565b5460345411801590611c30575b611c215761187690600052602c602052604060002090565b8054600101905560018414988915611c1a576118c961189d6003546001600160a01b031690565b8951906118c1826118b58c8a83019190602083019252565b038d8101845283612531565b6113b36129f6565b995b611bd6575b50601c5415611bbf575b601c546118e69061298e565b601c556118f1612553565b9789895286848a015285888a0152606089019860008a52601c5461191f90600052602e602052604060002090565b9061192991612a74565b600154885163c85700fb60e01b868201526001600160a01b0390911660248083019190915235604482015260648101889052608481018b905260a4810187905260c491820181529061197b9082612531565b61198491616d71565b8280825183010191019061199791612abc565b6001600160a01b031680885215611bb1575091611b8e8492611b51611b3a611ab5611ab0611b28611ac08e610fdd8f6103e39f9e7f1517c86fcf2bfb8e3468afcc539b0004955da8027797c497ea51d1f1094ab8989e611a77611a72611a6a611a65611aa195611a48611a14611abb99516001600160a01b031690565b6003611a2c601c54600052602e602052604060002090565b01906001600160a01b03166001600160a01b0319825416179055565b611a5c611a578b601354612a4b565b601355565b60375490612b45565b612afb565b601754612a4b565b601755565b611a94611a8c6003546001600160a01b031690565b61150a612b58565b8051810182019101612b91565b9c9491959b9293989050612b45565b612b45565b93612b45565b612b18565b91611af2611ada602f546000526030602052604060002090565b611ae4838c612a4b565b600052602052604060002090565b611afd848254612bc4565b9055611ae484611b23611b1c602f546000526030602052604060002090565b938c612a4b565b612a4b565b611b33828254612be0565b9055612b45565b98611b4485612c34565b516001600160a01b031690565b86513381526001600160a01b039091166020820152604081019490945260608401899052608084019290925260a0830191909152819060c0820190565b0390a1611b9b6001601155565b5191825260208201929092529081906040820190565b855163baf3f0f760e01b8152fd5b611bc885601e55565b611bd185601f55565b6118da565b601b54908a611be58383612a4b565b10611c0b578a611bfb611c0593611c0093612a4b565b612a67565b601b55565b386118d0565b83895163baf3f0f760e01b8152fd5b80996118cb565b828851633204506f60e01b8152fd5b5060355487108061185e5750603654871161185e565b50855163ea8e4eb560e01b8152fd5b9198969795949392913115611c735788885163baf3f0f760e01b8152fd5b6013546014546016546017546012546015548d51958652602086019490945260408501929092526060840152608083015260a082015260c08101859052969895979694959394929391927fb359d8408cffc6b8788774a87b59f0d5be825576ea5fdd7b0917fed6a07e80309060e090a1611ced6000601355565b611cf76000601455565b611d016000601655565b611d0b6000601755565b611d156000601255565b611d1f6000601555565b38611816565b82885163baf3f0f760e01b8152fd5b8460405163baf3f0f760e01b8152fd5b8460405163ea8e4eb560e01b8152fd5b50336001600160a01b036005541614611779565b84604051634ee2123760e11b8152fd5b3461042b57600036600319011261042b576020601f54604051908152f35b3461042b57600036600319011261042b576021611db38154612a2f565b60088110611dbd57005b611e6e90611e09611dd66003546001600160a01b031690565b611dfc604051602092611df482610f5a888783019190602083019252565b610f706142eb565b80518101820191016142c4565b5050509060225410159081611ea2575b5080611e90575b15611e7357611e69611e3e611e348361369d565b90549060031b1c90565b611e4783602155565b611e508361369d565b90919082549060031b91821b91600019901b1916179055565b61298e565b611db3565b611e69611e7f8261369d565b8154906000199060031b1b19169055565b508254611e9c82612a58565b14611e20565b90506001611eba836000526031602052604060002090565b0154101538611e19565b3461042b57602036600319011261042b576020611eeb600435611ee681610591565b61699a565b6040519015158152f35b3461042b57600036600319011261042b576020601d54604051908152f35b3461042b57602036600319011261042b57600435611f2f616915565b156104ef576001600160a01b036005541633036104ca5760009060046020611f6d611f6185546001600160a01b031690565b6001600160a01b031690565b604051928380927f46f991ac0000000000000000000000000000000000000000000000000000000082525afa801561203d578380848194938294839161200f575b505af1611fb9616ac3565b5015610655577fcdcc745fe377b103b45fa0cec23ae3ef93d6fc6a84a01f0d18c40b354dd1d5d8612009611ff8611f61600b546001600160a01b031690565b604051938452929081906020820190565b0390a280f35b612030915060203d8111612036575b6120288183612531565b810190612abc565b38611fae565b503d61201e565b61330c565b3461042b57602036600319011261042b5761205b614a8f565b50612064616a24565b601e54906004358201809211610aa7576103009161208a918181111561219c5750614be3565b61219a60405191805183526020810151602084015260408101516040840152606081015160608401526080810151608084015260a081015160a084015260c081015160c084015260e081015160e0840152610100808201519084015261012080820151908401526101408082015190840152610160808201519084015261018080820151908401526101a080820151908401526101c080820151908401526101e080820151908401526102008082015190840152610220808201519084015261024080820151908401526102608082015190840152610280808201519084015261217e6102a0808301519085019015159052565b6102c0818101511515908401526102e090810151151590830152565bf35b9050614be3565b3461042b57600036600319011261042b576020602b54604051908152f35b3461042b57602036600319011261042b5760206121e86004356121e381610591565b616e24565b6001600160a01b0360405191168152f35b3461042b57604036600319011261042b5760243561221681610670565b61221e616915565b156104ef5761222c3361699a565b80156122c7575b156104ca57612240616a24565b9060009160043583526032602052604083208054928315908115916122bf575b8161229f575b5061226f578380f35b6801000000000000000083101561229a5782611e50916001612293950181556128c9565b3880808380f35b612472565b1590506122b65760ff845b16600184161438612266565b60ff60016122aa565b905080612260565b50336001600160a01b036005541614612233565b602036600319011261042b576122ef616915565b156104ef576122fd3361699a565b8015612323575b156104ca57612311612bf9565b61231c600435613760565b6001601155005b50336001600160a01b036005541614612304565b3461042b57602036600319011261042b57612350615eb6565b5060043560005260316020526080604060002060036040519161237283612488565b8054835260018101546020840152600281015460408401520154606082015261219a6040518092606080918051845260208101516020850152604081015160408501520151910152565b3461042b57602036600319011261042b576020611eeb6004356123de81610591565b6001600160a01b03806006541690604051921684830152838252612401826124dd565b6040519061240e826124dd565b601882527f697364656c656761746f724e6f6465286164647265737329000000000000000085830152616c71565b3461042b57600036600319011261042b576020611eeb616915565b3461042b57600036600319011261042b576020611330616a24565b634e487b7160e01b600052604160045260246000fd5b6080810190811067ffffffffffffffff82111761229a57604052565b6060810190811067ffffffffffffffff82111761229a57604052565b610120810190811067ffffffffffffffff82111761229a57604052565b6040810190811067ffffffffffffffff82111761229a57604052565b6020810190811067ffffffffffffffff82111761229a57604052565b60e0810190811067ffffffffffffffff82111761229a57604052565b90601f8019910116810190811067ffffffffffffffff82111761229a57604052565b6040519061256082612488565b565b60405190610300820182811067ffffffffffffffff82111761229a57604052565b604051906101e0820182811067ffffffffffffffff82111761229a57604052565b6040519061256082612515565b67ffffffffffffffff811161229a57601f01601f191660200190565b604051906125da826124f9565b60008252565b604051906125ed826124dd565b600f82527f6d696e744379636c6544617973282900000000000000000000000000000000006020830152565b60405190612626826124dd565b601282527f6d61784d696e74735065724379636c65282900000000000000000000000000006020830152565b6040519061265f826124dd565b600c82527f6d696e4d696e74517479282900000000000000000000000000000000000000006020830152565b60405190612698826124dd565b600c82527f6d61784d696e74517479282900000000000000000000000000000000000000006020830152565b604051906126d1826124dd565b600f82527f6d696e74466565506572517479282900000000000000000000000000000000006020830152565b6040519061270a826124dd565b601082527f65616368636c61696d4379636c652829000000000000000000000000000000006020830152565b60405190612743826124dd565b600982527f63617070696e67282900000000000000000000000000000000000000000000006020830152565b919082604091031261042b576020825192015190565b61278d61623a565b6125606128ae6128a861289961289160036127d06127cb6127b583546001600160a01b031690565b6127bd6125e0565b6127c56125cd565b91616cad565b603355565b6127f46127ef6127e783546001600160a01b031690565b6127bd612619565b603455565b61281861281361280b83546001600160a01b031690565b6127bd612652565b603555565b61283c61283761282f83546001600160a01b031690565b6127bd61268b565b603655565b61286061285b61285383546001600160a01b031690565b6127bd6126c4565b603755565b61288461287f61287783546001600160a01b031690565b6127bd6126fd565b603855565b546001600160a01b031690565b61150a612736565b6020808251830101910161276f565b603a5590565b603955565b634e487b7160e01b600052603260045260246000fd5b80548210156107e05760005260206000200190600090565b6103e760005260326020527f4a392a5ba0654924db65f19538db6461a3d6763bf0797df25c3b2d5e7c8c7cef805492831580159190612970575b8161294f575b5061292b57505050565b6801000000000000000083101561229a5782611e50916001612560950181556128c9565b1590506129675760ff60005b16600184161438612921565b60ff600161295b565b90508061291b565b634e487b7160e01b600052601160045260246000fd5b6000198114610aa75760010190565b604051906129aa826124dd565b601882527f676574557365724964546f496e73742875696e743235362900000000000000006020830152565b81156129e0570490565b634e487b7160e01b600052601260045260246000fd5b60405190612a03826124dd565b601982527f636f6d707574654d696e7456616c75652875696e7432353629000000000000006020830152565b9060018201809211610aa757565b6046019081604611610aa757565b91908201809211610aa757565b600019810191908211610aa757565b91908203918211610aa757565b60036001600160a01b036060612560948051855560208101516001860155604081015160028601550151169101906001600160a01b03166001600160a01b0319825416179055565b9081602091031261042b5751612ad181610591565b90565b9081606402916064830403610aa757565b90606482029180830460641490151715610aa757565b90670de0b6b3a764000091828102928184041490151715610aa757565b9061271091828102928184041490151715610aa757565b90601982029180830460191490151715610aa757565b81810292918115918404141715610aa757565b60405190612b65826124dd565b600682527f706f6f6c282900000000000000000000000000000000000000000000000000006020830152565b908160e091031261042b5780519160208201519160408101519160608201519160808101519160c060a083015192015190565b91909160008382019384129112908015821691151617610aa757565b81810392916000138015828513169184121617610aa757565b600260115414612c0a576002601155565b60046040517f3ee5aeb5000000000000000000000000000000000000000000000000000000008152fd5b6013546012548101809111610aa757603954612c4f91612b45565b60145411601754916015548301809311610aa757612c7361256093603a5490612b45565b601654118215612c84575b506128e1565b915038612c7e565b60405190612c9982612515565b60e0368337565b60405190612cad826124dd565b601082527f6d6178436c61696d5065724461792829000000000000000000000000000000006020830152565b60405190612ce6826124dd565b601082527f6d696e436c61696d5065724461792829000000000000000000000000000000006020830152565b60405190612d1f826124dd565b601682527f6d6178476c6f62616c436c61696d5065724461792829000000000000000000006020830152565b60405190612d58826124dd565b601582527f67657477697468647261776e2875696e743235362900000000000000000000006020830152565b9060098110156107e05760051b0190565b92919083821561323c5750601a54612db19060081c60ff161590565b61322b57601e5490612dc38183612a4b565b83111561322f57612de1612dd960329284612a4b565b925b83612a67565b1161322b57612df5603854601f5490612a4b565b821015612e00575050565b612e0990614557565b600380546001600160a01b0316612e30612e21612ca0565b612e296125cd565b9083616cad565b6001600052602d60205290612f9b612f6a612f39612f08612ed7612ea6887f4ac3b22e31fa68474eb1c8f858cd447cf1ee3eef7de8984178a7afa8f4fe0cd001546004600052602d602052897faa2e4aefbe0e8a3f17f0ef1a62898433725e8346722aad5b9b38d3974d2160835b015490612a4b565b6002600052602d602052887f3acd642f41c4abca13e6953c1b760d7f24daf271c41106e480dd1fea313ccc72612e9e565b6003600052602d602052877f1d82e85504d8f49072f846129ecee69c763b08a82ee3d81cda62b57a7576d37b612e9e565b6005600052602d602052867ff4e70c5971a4cc8cf9f9f8ecc4b5217b9d5f157385b05a56c54d37f26435621c612e9e565b6006600052602d602052857fb166da6939c8546909795cbdc2ac7eb95e976cea31f094e55573dbb6ac49f74f612e9e565b6007600052602d602052847f4d73f294a2cb7f5a471fde2e2c5652a46cf819d439af00ca2c7f02d5472b48b8612e9e565b90612fa7612e21612cd9565b821015612fe3575b505050505060195480612fc0575b50565b610100830152612fd9612fd4602f5461298e565b602f55565b6125606000601955565b612fef906127bd612d12565b916130026004546001600160a01b031690565b9261302a60409485519061302282610f5a8b602083019190602083019252565b6113b3612d4b565b1015612faf5760009181811115613224576130459250612a67565b6001908160005b6007841115613080575050505050506130769060185460e08501526130716000601855565b601f55565b3880808080612faf565b8561309585600052602d602052604060002090565b0154836131915761318b9161310d91846130b988600052602d602052604060002090565b016130c5828254612a4b565b90556000896130de89600052602d602052604060002090565b01556130f26130ec88612a58565b8d612d84565b525b61310661310087612a58565b8c612d84565b5190612a4b565b937f1517c86fcf2bfb8e3468afcc539b0004955da8027797c497ea51d1f1094ab8988861313c6130ec84612a58565b5161318361314985612a3d565b8a5193849333859094939260a0926001600160a01b0360c08401971683526000602084015260006040840152606083015260808201520152565b0390a161298e565b9261304c565b92808411156132045761318b916131d86131ae61310d9387612a67565b8096866131c58a600052602d602052604060002090565b016131d1838254612a4b565b9055612a67565b886131ed88600052602d602052604060002090565b01556000946131fe6130ec88612a58565b526130f4565b61321561318b929461310d92612a67565b9360006131fe6130ec88612a58565b5050613045565b5050565b506032612de18392612ddb565b93505050565b60405161324e816124f9565b60008152906000368137565b60405190613267826124dd565b601d82527f636f6d70757465446f6c6c6172546f4f7a6f6e652875696e74323536290000006020830152565b604051906132a0826124dd565b600a82527f6275726e636e66672829000000000000000000000000000000000000000000006020830152565b91908260c091031261042b5781516132e381610591565b9160208101519160408201519160608101516132fe81610591565b9160a0608083015192015190565b6040513d6000823e3d90fd5b60405190613325826124dd565b601382527f55736572546f496e7374286164647265737329000000000000000000000000006020830152565b6040519061335e826124dd565b600b82527f6d696e74436f756e7428290000000000000000000000000000000000000000006020830152565b60405190613397826124dd565b600e82527f6d696e74732875696e74323536290000000000000000000000000000000000006020830152565b604051906133d0826124dd565b600b82527f6d696e74656441676528290000000000000000000000000000000000000000006020830152565b60405190613409826124dd565b600b82527f6d696e74656471747928290000000000000000000000000000000000000000006020830152565b60405190613442826124dd565b600c82527f6964732875696e743235362900000000000000000000000000000000000000006020830152565b6040519061347b826124dd565b600982527f6d696e74416d74282900000000000000000000000000000000000000000000006020830152565b604051906134b4826124dd565b600a82527f647261776e6167652829000000000000000000000000000000000000000000006020830152565b604051906134ed826124dd565b600c82527f4c53422875696e743235362900000000000000000000000000000000000000006020830152565b60405190613526826124dd565b600782527f647261776e2829000000000000000000000000000000000000000000000000006020830152565b91908260c091031261042b5781519160208101519160408201519160608101519160a0608083015192015190565b6040519061358d826124dd565b601382527f67657452657761726473286164647265737329000000000000000000000000006020830152565b604051906135c6826124dd565b600782527f626f6e75732829000000000000000000000000000000000000000000000000006020830152565b604051906135ff826124dd565b600682527f63616765282900000000000000000000000000000000000000000000000000006020830152565b60405190613638826124dd565b601882527f6765744e6f64654c766c446570746828616464726573732900000000000000006020830152565b60405190613671826124dd565b601e82527f6765746e6f6465526e6b41676528616464726573732c75696e743235362900006020830152565b60088110156107e05760230190600090565b604051906136bc826124dd565b601082527f6765744e6f6465286164647265737329000000000000000000000000000000006020830152565b908160a091031261042b57805191602082015161370481610591565b916040810151916080606083015161371b81610670565b920151612ad181610670565b60405190613734826124dd565b601a82527f77697468647261776e496e636f6d654f662861646472657373290000000000006020830152565b601a5460081c60ff16612fbd576004906020613787611f616000546001600160a01b031690565b604051938480927f447aa3040000000000000000000000000000000000000000000000000000000082525afa91821561203d5760009261426a575b506138176137fb6138096137de6001546001600160a01b031690565b604080516001600160a01b03909216602083015290928391820190565b03601f198101835282612531565b613811613318565b84616c28565b926001600160a01b0384161561424557600582116106555761384961383a613351565b6138426125cd565b9086616cad565b91601c546138578183612a4b565b8411156142395761386791612a4b565b909291925b6000805260316020527f346dc135129bcc5b8e8f6ff902940f16dc0729d02b27118b912aa326da88b831547f346dc135129bcc5b8e8f6ff902940f16dc0729d02b27118b912aa326da88b83254909490935b601c5484811015613ca2576138d56138da9161298e565b601c55565b60008052602c6020527f4bd6275b77b7e49eb0792b10b407951644bbdba590ba83c6764fe2c9da0b9bef61390e815461298e565b9055601c549561393e604051613930816137fb8b602083019190602083019252565b61393861338a565b8a616c28565b9061395961394a6133c3565b6139526125cd565b9084616cad565b91613965612e216133fc565b9161398a604051613982816137fb60208201906000602083019252565b6114c7613435565b9061399f61399961383a61346e565b93616e24565b9a60206139ff6139ba611f616000546001600160a01b031690565b6040519e8f809381927fcfaa1f6c000000000000000000000000000000000000000000000000000000008352600483019190916001600160a01b036020820193169052565b03915afa9b8c1561203d5760009c613c81575b50613a1f6118238d61699a565b6104ca57613afe92613a8d86613a8787611f619681613a4b613aef98600052602e602052604060002090565b55836001613a65601c54600052602e602052604060002090565b01558b6002613a80601c54600052602e602052604060002090565b0155612a4b565b9d612a4b565b9c613aea613aa36001546001600160a01b031690565b60405163c85700fb60e01b60208201526001600160a01b0390911660248201526044810193909352606483018890526084830187905260a483018990528260c48101610f5a565b616d71565b60208082518301019101612abc565b6001600160a01b03811615610791577f1517c86fcf2bfb8e3468afcc539b0004955da8027797c497ea51d1f1094ab89893613c2b613c6892613b5360039182611a2c601c54600052602e602052604060002090565b611ab5613bfa613bf2611ab0611ae4613ba18a610fdd611abb613b92613b83611a8c8c546001600160a01b031690565b60208082518301019101612b91565b9e9491959b9293989050612b45565b94611b23613beb602f613bcd8c611ae488613bc785546000526030602052604060002090565b92612a4b565b613bd88a8254612bc4565b9055546000526030602052604060002090565b938a612a4b565b918254612be0565b90556001601c5414613c73575b613c1d601c54600052602e602052604060002090565b01546001600160a01b031690565b604080513381526001600160a01b03909216602083015281019490945260608401929092526080830191909152600060a0830152819060c0820190565b0390a19493946138be565b613c7c83601e55565b613c07565b613c9b919c5060203d602011612036576120288183612531565b9a38613a12565b50939195925093613cbd600080526031602052604060002090565b556000805260316020527f346dc135129bcc5b8e8f6ff902940f16dc0729d02b27118b912aa326da88b83255601c5483811493841561422f575b5060011015613d97575b5050613d0957565b600080526031602052613d45611a72611a6560017f346dc135129bcc5b8e8f6ff902940f16dc0729d02b27118b912aa326da88b8310154612b2f565b600080526031602052613d787f346dc135129bcc5b8e8f6ff902940f16dc0729d02b27118b912aa326da88b83154601355565b613d83601e54601f55565b61256061010061ff0019601a541617601a55565b613da561073561394a6134a7565b602054601e5481116141cd575b50613ddf613dd0613dc1613519565b613dc96125cd565b9084616b4f565b60208082518301019101613552565b946001613dfd9592959493946001600052602d602052604060002090565b0155602d60209081527f3acd642f41c4abca13e6953c1b760d7f24daf271c41106e480dd1fea313ccc73919091557f1d82e85504d8f49072f846129ecee69c763b08a82ee3d81cda62b57a7576d37c919091557faa2e4aefbe0e8a3f17f0ef1a62898433725e8346722aad5b9b38d3974d216084919091557fb166da6939c8546909795cbdc2ac7eb95e976cea31f094e55573dbb6ac49f7509190915560076000527f4d73f294a2cb7f5a471fde2e2c5652a46cf819d439af00ca2c7f02d5472b48b991909155604080516001600160a01b03841692810192909252613efc9161289991613eee90829081016137fb565b613ef6613580565b85616b4f565b602d6020527f4ac3b22e31fa68474eb1c8f858cd447cf1ee3eef7de8984178a7afa8f4fe0cd09190915560046000527faa2e4aefbe0e8a3f17f0ef1a62898433725e8346722aad5b9b38d3974d21608355613f5b611c0061394a6135b9565b613f6961073561394a6135f2565b604080516001600160a01b0383166020820152613f9591613f8d90829081016137fb565b6114c761362b565b60005b8181106140e8575050613fd9610f5a613fff93613fd1613fe894604051938491602083019190916001600160a01b036020820193169052565b610f706136af565b602080825183010191016136e8565b935050505060ff8019601a54169115151617601a55565b60046020614018611f616000546001600160a01b031690565b604051928380927f6325dd040000000000000000000000000000000000000000000000000000000082525afa90811561203d5761409691610f5a916000916140c9575b5061408e6140716001546001600160a01b031690565b604080516001600160a01b03909216602083015290938491820190565b6113b3613727565b6005600052602d6020527ff4e70c5971a4cc8cf9f9f8ecc4b5217b9d5f157385b05a56c54d37f26435621d553880613d01565b6140e2915060203d602011612036576120288183612531565b3861405b565b806140ff91614140575b600881106141045761298e565b613f98565b604080516001600160a01b0386166020820152908101829052611e6990611e479061413281606081016137fb565b61413a613664565b88616cad565b6040517f5329daca0000000000000000000000000000000000000000000000000000000060208201526001600160a01b03851660248201526044810182905261419a906128999061419481606481016137fb565b87616d71565b906141af836000526031602052604060002090565b5560016141c6836000526031602052604060002090565b01556140f2565b601e556141fe6137fb6141f0602054604051928391602083019190602083019252565b6141f86134e0565b83616ce9565b614228614217602f546000526030602052604060002090565b601e54600052602052604060002090565b5538613db2565b1593506001613cf7565b5050819092919261386c565b92505050614254610735616a24565b61425f602054601e55565b613d83602054601f55565b61428491925060203d602011612036576120288183612531565b90386137c2565b60405190614298826124dd565b601482527f6c6576656c436c617573652875696e74323536290000000000000000000000006020830152565b908160a091031261042b578051916020820151916040810151916080606083015192015190565b604051906142f8826124dd565b601382527f72616e6b436c617573652875696e7432353629000000000000000000000000006020830152565b6021906143318254612a2f565b6008811061433e57505050565b6003546001600160a01b031661436d604091611dfc8351602092611df482610f5a898783019190602083019252565b505050918315801590614407575b806143f7575b61041b5750906143a89291602254101590816143d5575b50806143c3575b6143ad5761298e565b614331565b6143b681602155565b611e6983611e508361369d565b5083546143cf82612a58565b1461439f565b905060016143ed836000526031602052604060002090565b0154101538614398565b5081158061438157508215614381565b50600161437b565b909190600083156144a55750614426602154612a2f565b831561450457600881105b156144fe576003546001600160a01b0316614465604091611dfc8351602092611df482610f5a898783019190602083019252565b5050509183158015906144f7575b806144e7575b61041b5750906144a59291602254101590816144c5575b5085156144b757806144aa576143ad5761298e565b614426565b506021546143cf82612a58565b15611e7357611e6981602155565b905060016144dd836000526031602052604060002090565b0154101538614490565b5081158061447957508215614479565b5086614473565b50509050565b602154811115614431565b6040519061451c826124dd565b601d82527f636f6d707574654f7a6f6e65546f446f6c6c61722875696e74323536290000006020830152565b9081602091031261042b575190565b61456081614be3565b908151916020810192835161457491612a4b565b906040810191825161458591612a4b565b916060820192835161459691612a4b565b90608083019182516145a791612a4b565b9160a084019283516145b891612a4b565b9060c085019182516145c991612a4b565b9060e0860194855161010088019081516145e291612a4b565b9661012089019788516145f491612a4b565b956101408a0196875161460691612a4b565b936101608b0194855161461891612a4b565b956101808c0196875161462a91612a4b565b976101a08d0198895161463c91612a4b565b61464591612a4b565b9e8c5160039e8f91826146636001600052602d602052604060002090565b019081549061467191612a4b565b9055516004600052602d602052907faa2e4aefbe0e8a3f17f0ef1a62898433725e8346722aad5b9b38d3974d21608301908154906146ae91612a4b565b9055516002600052602d6020528d7f3acd642f41c4abca13e6953c1b760d7f24daf271c41106e480dd1fea313ccc7201908154906146eb91612a4b565b905589516003600052602d6020528d7f1d82e85504d8f49072f846129ecee69c763b08a82ee3d81cda62b57a7576d37b019081549061472991612a4b565b9055516005600052602d6020528c7ff4e70c5971a4cc8cf9f9f8ecc4b5217b9d5f157385b05a56c54d37f26435621c019081549061476691612a4b565b9055516006600052602d6020528b7fb166da6939c8546909795cbdc2ac7eb95e976cea31f094e55573dbb6ac49f74f01908154906147a391612a4b565b9055516007600052602d6020528a7f4d73f294a2cb7f5a471fde2e2c5652a46cf819d439af00ca2c7f02d5472b48b801908154906147e091612a4b565b9055516001600052602d6020527f4ac3b22e31fa68474eb1c8f858cd447cf1ee3eef7de8984178a7afa8f4fe0cd280546002979261481d91612a4b565b9055516004600052602d602052857faa2e4aefbe0e8a3f17f0ef1a62898433725e8346722aad5b9b38d3974d216083019081549061485a91612a4b565b9055516002600052602d602052847f3acd642f41c4abca13e6953c1b760d7f24daf271c41106e480dd1fea313ccc72019081549061489791612a4b565b905585516003600052602d602052847f1d82e85504d8f49072f846129ecee69c763b08a82ee3d81cda62b57a7576d37b01908154906148d591612a4b565b9055516005600052602d602052837ff4e70c5971a4cc8cf9f9f8ecc4b5217b9d5f157385b05a56c54d37f26435621c019081549061491291612a4b565b9055516006600052602d602052827fb166da6939c8546909795cbdc2ac7eb95e976cea31f094e55573dbb6ac49f74f019081549061494f91612a4b565b9055516007600052602d602052907f4d73f294a2cb7f5a471fde2e2c5652a46cf819d439af00ca2c7f02d5472b48b8019081549061498c91612a4b565b90556101c083015185602f546149ac906000526030602052604060002090565b600091825260205260409020908154906149c591612bc4565b905551601854906149d591612a4b565b60185551601954906149e691612a4b565b6019556149f283601e55565b600090841515600014614a7661256096614a6e614a69614a82976102a097614a7b96614a885750614a52614a30614a6192546001600160a01b031690565b60405190614a4a82610f5a89602083019190602083019252565b610f7061450f565b60208082518301019101614548565b601654612a4b565b601655565b601454612a4b565b601455565b0151151590565b906128e1565b9050614a61565b614a97612562565b9060008083528060208401528060408401528060608401528060808401528060a08401528060c08401528060e08401528061010084015280610120840152806101408401528061016084015280610180840152806101a0840152806101c0840152806101e08401528061020084015280610220840152806102408401528061026084015280610280840152806102a0840152806102c08401526102e0830152565b60405190614b45826124dd565b600a82527f73687574646f776e2829000000000000000000000000000000000000000000006020830152565b60405190614b7e826124dd565b601182527f696e636f6d654f662861646472657373290000000000000000000000000000006020830152565b60405190614bb7826124dd565b601482527f636f6d70757465546f75722875696e74323536290000000000000000000000006020830152565b90614bec614a8f565b91614bff6003546001600160a01b031690565b90614d5f614c1d614c0e614b38565b614c166125cd565b9085616c71565b8092614cbb614c2a615bc2565b60608a0152808952614cb5614c836001614c4f6001600052602d602052604060002090565b01546001600052602d60205260037f4ac3b22e31fa68474eb1c8f858cd447cf1ee3eef7de8984178a7afa8f4fe0cd0612e9e565b6001600052602d60205260027f4ac3b22e31fa68474eb1c8f858cd447cf1ee3eef7de8984178a7afa8f4fe0cd0612e9e565b90612a67565b875260608701516004600052602d6020527faa2e4aefbe0e8a3f17f0ef1a62898433725e8346722aad5b9b38d3974d21608454614d559190614cb590614d239060037faa2e4aefbe0e8a3f17f0ef1a62898433725e8346722aad5b9b38d3974d216083612e9e565b6004600052602d60205260027faa2e4aefbe0e8a3f17f0ef1a62898433725e8346722aad5b9b38d3974d216083612e9e565b60608801526156ba565b94929093916101c089015261010088015260208701526000146154be575050614db0610f5a614d966004546001600160a01b031690565b611436601d54604051938491602083019190602083019252565b3160408401525b614dec610f5a614dcf6009546001600160a01b031690565b614de46140716001546001600160a01b031690565b6113b3614b71565b6005600052602d6020527ff4e70c5971a4cc8cf9f9f8ecc4b5217b9d5f157385b05a56c54d37f26435621d54614e7a90614e489060027ff4e70c5971a4cc8cf9f9f8ecc4b5217b9d5f157385b05a56c54d37f26435621c612e9e565b6005600052602d60205260037ff4e70c5971a4cc8cf9f9f8ecc4b5217b9d5f157385b05a56c54d37f26435621c612e9e565b6080850181815291818111156154b057614e979150825190612a67565b8152600460215460028110158061541b575b6153e7575b101580615352575b615324575b600560005260326020526001614ef37ff1229d5c96a3de3bdb5814fe87c3432b211770fda268ddcd390c87c4a4feb8e75b5460011690565b14615306575b50600660005260326020526001614f2f7f125f38041639e32c103ab47aba064e25405a1fb08d2d6ee74cd07eb22ba6e040614eec565b146152e6575b600760005260326020526001614f6a7f46bf7effec7da617c09fb0f99690c7f788a904e44d0053fc402fa3db73b36725614eec565b146152c6575b614f9c614f91614f868551602087015190612a4b565b604086015190612a4b565b606085015190612a4b565b9061501b614fdd60e0860193614fd7614fcb614fbf87516101008b015190612a4b565b6101208a015190612a4b565b61014089015190612a4b565b90615ad9565b15156102a08c0190815295969594939291906102808c01526102408b01526102208a01526102608901526102008801526101e0870192835251151590565b61502457505050565b61505f61503f610f5a614d966004546001600160a01b031690565b3160036150576003600052602d602052604060002090565b015490612a67565b6040860152615099614a52610f5a610260880151946150916102808a0151604051938491602083019190602083019252565b610f7061325a565b9051610200860151106102c08601819052610220860151610240870151106102e0870190815281806152b4575b6000921561528e575050508082101561528757505b905b8351828061524857506150f1908251612a4b565b9052600083525b6020830151816151fe5761511190610100850151612a4b565b610100840152600060208401525b6040830151816151b45761513890610120850151612a4b565b610120840152600060408401525b60608301519080615170575061516190610140840151612a4b565b61014083015260006060830152565b61519c615191612fbd938084116000146151ad57805b816060890152612a67565b610140860151612a4b565b610140850152606084015190612a67565b8390615186565b906151e16151d66151f2938084116000146151f757805b816040890152612a67565b610120860151612a4b565b610120850152604084015190612a67565b615146565b83906151cb565b9061522b61522061523c9380841160001461524157805b816020890152612a67565b610100860151612a4b565b610100850152602084015190612a67565b61511f565b8390615215565b919061527b935061526a6152719180851160001461528057805b818952612a67565b8251612a4b565b9052835190612a67565b6150f8565b8490615262565b90506150db565b1561529d575050505b906150dd565b5191925090156152ad5750615297565b9050615297565b91506152c08151151590565b916150c6565b600060c0840180516152de6101a08701918251612a4b565b905252614f70565b600060a0840180516152fe6101808701918251612a4b565b905252614f35565b806000915161531b6101608701918251612a4b565b90525238614ef9565b615348604051615340816137fb60208201906004602083019252565b6114c7614baa565b60c0850152614ebb565b506007600052602d6020527f4d73f294a2cb7f5a471fde2e2c5652a46cf819d439af00ca2c7f02d5472b48b9546153e1906153af9060027f4d73f294a2cb7f5a471fde2e2c5652a46cf819d439af00ca2c7f02d5472b48b8612e9e565b6007600052602d60205260037f4d73f294a2cb7f5a471fde2e2c5652a46cf819d439af00ca2c7f02d5472b48b8612e9e565b15614eb6565b615411604051615403816137fb60208201906002602083019252565b61540b614baa565b86616cad565b60a0870152614eae565b506006600052602d6020527fb166da6939c8546909795cbdc2ac7eb95e976cea31f094e55573dbb6ac49f750546154aa906154789060027fb166da6939c8546909795cbdc2ac7eb95e976cea31f094e55573dbb6ac49f74f612e9e565b6006600052602d60205260037fb166da6939c8546909795cbdc2ac7eb95e976cea31f094e55573dbb6ac49f74f612e9e565b15614ea9565b6154b991612a67565b614e97565b6040850152610120840152614db7565b604051906040820182811067ffffffffffffffff82111761229a5760405260006020838281520152565b60405190615505826124a4565b8161550e6154ce565b81526155186154ce565b602082015260406155276154ce565b910152565b60405190615539826124dd565b601882527f6765744261746368526f79616c7479436c6175736573282900000000000000006020830152565b6102a090818184031261042b5782601f8201121561042b57604080519361558b85612515565b849383019281841161042b57935b8385106155a857505050505090565b60608583031261042b5782516060916155c0826124a4565b8651825260209182880151838201528588015186820152815201940193615599565b604051906155ef826124dd565b601f82527f676574526f79616c697479416d6f756e7442617463682875696e7432353629006020830152565b9060e08282031261042b5780601f8301121561042b576040519161563e83612515565b829060e0810192831161042b57905b82821061565a5750505090565b815181526020918201910161564d565b9060078110156107e05760051b0190565b8181029291600082127f8000000000000000000000000000000000000000000000000000000000000000821416610aa7578184051490151715610aa757565b916000926000926000926000926000926156d26154f8565b6156db836159ed565b8251906020820152526156ed83615a63565b60208301519060208201525261570283615a9e565b60408301519060208201525261573d61572e6157266003546001600160a01b031690565b61150a61552c565b60208082518301019101615565565b92601e54926157546004546001600160a01b031690565b93602154905b83811061576a5750505050505050565b6157a6615797604051615789816137fb86602083019190602083019252565b6157916155e2565b89616b4f565b6020808251830101910161561b565b6001905b838211156158d857505082156157c9575b6157c49061298e565b61575a565b6157fd6157f5826157e6602f546000526030602052604060002090565b90600052602052604060002090565b54809c612bc4565b9a6158088286612a67565b9060009160408801518051888110615882575b505080831161587a575b8261582f91612a67565b9180615864575b5081615844575b50506157bb565b9a61585661585c926157c4949d61567b565b90612bc4565b99903861583d565b9a615856829c6158739361567b565b9938615836565b915081615825565b808611156158cf5750602085915b0161589b8151612a2f565b8910156158c05750875b8181111561581b576158b8929450612a67565b91388061581b565b6158ca9051612a2f565b6158a5565b60209091615890565b909c6158ec6158e68f612a58565b8a61566a565b5151158015615997575b61598d5786518051841015908161597e575b508015615957575b1561593b5761592f615935918f61592961310691612a58565b8561566a565b9d61298e565b906157aa565b9c9d6159518f9161310661592961593594612a58565b9e61298e565b5060208701518051841015908161596f575b50615910565b60209150015183111538615969565b60209150015183111538615908565b9c6159359061298e565b508d6159a5611e348261369d565b84101590816159b6575b50156158f6565b6159e4915060406159db6159d56159cf611e348561369d565b93612a58565b8d61566a565b51015190612a4b565b8311158e6159af565b906103e7600052603260205260406000208054908115615a5d576001821615938415615a545760ff60025b168303838111610aa757615a2c90836128c9565b90549060031b1c94600014615a4e5750615a48611e3492612a58565b906128c9565b91505090565b60ff6001615a18565b50508190565b906002600052603260205260406000208054908115615a5d576001821615938415615a54576001198301838111610aa757615a2c90836128c9565b906003600052603260205260406000208054908115615a5d576001821615938415615a54576001198301838111610aa757615a2c90836128c9565b9190615af6615aed60135460125490612a4b565b60395490612b45565b91615b0782611b2386601454612a4b565b938385118015615bb957615b8d855b94615b32615b2960175460155490612a4b565b603a5490612b45565b9360165491615b418183612a4b565b60009015615bb05750610f5a615b8792614a4a615b73614a5294615b6d6003546001600160a01b031690565b93612a4b565b604051938491602083019190602083019252565b90612a4b565b92828411918215615baa57835b928115615ba5575090565b905090565b84615b9a565b91505090612a4b565b615b8d86615b16565b600090816001815b600f821115615c415750506001600052602d6020527f4ac3b22e31fa68474eb1c8f858cd447cf1ee3eef7de8984178a7afa8f4fe0cd0548101809111610aa7576004600052602d60205291612ad1907faa2e4aefbe0e8a3f17f0ef1a62898433725e8346722aad5b9b38d3974d2160835490612a4b565b9093848252603192602093808552604090600282862001548301809311610aa7576003929588865252832001548101809111610aa757615c81909461298e565b90615bca565b90615c90612c8c565b916001808214615d7d57506002808214615d7d57506003808214615d7d575060048114615d0157600514615cc057565b9050615cca6125a4565b6013548152601754602082015260145460408201526016546060820152601254608082015260155460a0820152600060c082015290565b509050615d0c6125a4565b60185481526019546020820152615d2e6001600052602d602052604060002090565b5460408201526004600052602d6020527faa2e4aefbe0e8a3f17f0ef1a62898433725e8346722aad5b9b38d3974d21608354606082015260006080820152600060a0820152600060c082015290565b91925050615d896125a4565b7f4ac3b22e31fa68474eb1c8f858cd447cf1ee3eef7de8984178a7afa8f4fe0cd082015481527f3acd642f41c4abca13e6953c1b760d7f24daf271c41106e480dd1fea313ccc728201546020808301919091527f1d82e85504d8f49072f846129ecee69c763b08a82ee3d81cda62b57a7576d37b83015460408301527faa2e4aefbe0e8a3f17f0ef1a62898433725e8346722aad5b9b38d3974d21608383015460608301527ff4e70c5971a4cc8cf9f9f8ecc4b5217b9d5f157385b05a56c54d37f26435621c83015460808301527fb166da6939c8546909795cbdc2ac7eb95e976cea31f094e55573dbb6ac49f74f83015460a08301526007600052602d90527f4d73f294a2cb7f5a471fde2e2c5652a46cf819d439af00ca2c7f02d5472b48b89091015460c082015290565b60405190615ec382612488565b60006060838281528260208201528260408201520152565b90604051615ee881612488565b6060600382948054845260018101546020850152600281015460408501520154910152565b67ffffffffffffffff811161229a5760051b60200190565b80518210156107e05760209160051b010190565b61621e6101c061256092615f73615f5782516001600160a01b031690565b6001600160a01b03166001600160a01b03196002541617600255565b615fa6615f8a60208301516001600160a01b031690565b6001600160a01b03166001600160a01b03196003541617600355565b615fd9615fbd60408301516001600160a01b031690565b6001600160a01b03166001600160a01b03196004541617600455565b61600c615ff060608301516001600160a01b031690565b6001600160a01b03166001600160a01b03196005541617600555565b61603f61602360808301516001600160a01b031690565b6001600160a01b03166001600160a01b03196006541617600655565b61607261605660a08301516001600160a01b031690565b6001600160a01b03166001600160a01b03196007541617600755565b6160a561608960c08301516001600160a01b031690565b6001600160a01b03166001600160a01b03196008541617600855565b6160d86160bc60e08301516001600160a01b031690565b6001600160a01b03166001600160a01b03196009541617600955565b61610c6160f06101008301516001600160a01b031690565b6001600160a01b03166001600160a01b0319600a541617600a55565b6161406161246101208301516001600160a01b031690565b6001600160a01b03166001600160a01b0319600b541617600b55565b6161746161586101408301516001600160a01b031690565b6001600160a01b03166001600160a01b0319600c541617600c55565b6161a861618c6101608301516001600160a01b031690565b6001600160a01b03166001600160a01b0319600d541617600d55565b6161dc6161c06101808301516001600160a01b031690565b6001600160a01b03166001600160a01b0319600e541617600e55565b6162106161f46101a08301516001600160a01b031690565b6001600160a01b03166001600160a01b0319600f541617600f55565b01516001600160a01b031690565b6001600160a01b03166001600160a01b03196010541617601055565b61624f611f616000546001600160a01b031690565b604051907f97f3815a000000000000000000000000000000000000000000000000000000008252602082600481845afa91821561203d576000926168df575b50604051917fcfbffe53000000000000000000000000000000000000000000000000000000008352602083600481855afa92831561203d576000936168be575b50604051907fab6e844f000000000000000000000000000000000000000000000000000000008252602082600481865afa91821561203d5760009261689d575b50604051917f14d8d024000000000000000000000000000000000000000000000000000000008352602083600481875afa92831561203d5760009361687c575b50604051927fd1f956b1000000000000000000000000000000000000000000000000000000008452602084600481885afa93841561203d5760009461685b575b50604051937fe61dfd58000000000000000000000000000000000000000000000000000000008552602085600481895afa94851561203d5760009561683a575b506040517fe09d394d0000000000000000000000000000000000000000000000000000000081526020816004818a5afa90811561203d5760009161681b575b506040517f52b06d640000000000000000000000000000000000000000000000000000000081526020816004818b5afa90811561203d576000916167fc575b506040517f013cf08b00000000000000000000000000000000000000000000000000000000815260006004820152916020836024818c5afa92831561203d576000936167db575b50604051977f5e09dbe70000000000000000000000000000000000000000000000000000000089526020896004818d5afa94851561203d576004996000966167ba575b5060208b6040519b8c80927faa0ddc160000000000000000000000000000000000000000000000000000000082525afa96871561203d5760049a600098616799575b5060208c6040519c8d80927f640274270000000000000000000000000000000000000000000000000000000082525afa98891561203d5760049b60009a616778575b5060208d6040519d8e80927f30125cf50000000000000000000000000000000000000000000000000000000082525afa9a8b1561203d578d60049d60009d616756575b506020906040519e8f80927f24768d910000000000000000000000000000000000000000000000000000000082525afa9c8d1561203d5760009d616735575b50604051809e81907f9dc969a80000000000000000000000000000000000000000000000000000000082525a92600491602094fa9d8e1561203d5760009e616714575b50616628612583565b6001600160a01b0390911681529d8e906001600160a01b031660208201526040019061665c91906001600160a01b03169052565b6001600160a01b031660608d01526001600160a01b031660808c01526001600160a01b031660a08b01526001600160a01b031660c08a01526001600160a01b031660e08901526001600160a01b03166101008801526001600160a01b03166101208701526001600160a01b03166101408601526001600160a01b03166101608501526001600160a01b03166101808401526001600160a01b03166101a08301526001600160a01b03166101c082015261256090615f39565b61672e919e5060203d602011612036576120288183612531565b9c3861661f565b61674f919d5060203d602011612036576120288183612531565b9b386165dc565b6020919d5061677190823d8411612036576120288183612531565b9c9061659d565b616792919a5060203d602011612036576120288183612531565b983861655a565b6167b391985060203d602011612036576120288183612531565b9638616518565b6167d491965060203d602011612036576120288183612531565b94386164d6565b6167f591935060203d602011612036576120288183612531565b9138616493565b616815915060203d602011612036576120288183612531565b3861644c565b616834915060203d602011612036576120288183612531565b3861640d565b61685491955060203d602011612036576120288183612531565b93386163ce565b61687591945060203d602011612036576120288183612531565b923861638e565b61689691935060203d602011612036576120288183612531565b913861634e565b6168b791925060203d602011612036576120288183612531565b903861630e565b6168d891935060203d602011612036576120288183612531565b91386162ce565b6168f991925060203d602011612036576120288183612531565b903861628e565b9081602091031261042b5751612ad181610670565b6169706001600160a01b0360025416604051616930816124dd565b600881527f6973536166652829000000000000000000000000000000000000000000000000602082015260405191616967836124f9565b60008352616b7a565b908061698f575b156106555780602080612ad193518301019101616900565b506020815114616977565b6169fd6001600160a01b0380600254166040519160209416848301528382526169c2826124dd565b604051906169cf826124dd565b601582527f697353656375726542617365286164647265737329000000000000000000000085830152616b7a565b9080616a1a575b156106555781612ad19282518301019101616900565b5081815114616a04565b612ad16001600160a01b0360035416604051616a3f816124dd565b600681527f6941676528290000000000000000000000000000000000000000000000000000602082015260405191611327836124f9565b6001600160a01b0380911690811561076757600154826001600160a01b0319821617600155167f8292fce18fa69edf4db7b94ea2e58241df0ae57f97e0a6c9b29067028bf92d76600080a3565b3d15616aee573d90616ad4826125b1565b91616ae26040519384612531565b82523d6000602084013e565b606090565b90801561322b576001600160a01b03821691821561076757600080808481945af1616b1c616ac3565b50156106555760207fcec1f18c3ab8ddaaa107a1591e3c369667eec613626611a8deaedef43069fcdd91604051908152a2565b90616b5a9291616b7a565b9060009015616b67575090565b6040519150616b75826124f9565b815290565b9190823b15616c0f577fffffffff00000000000000000000000000000000000000000000000000000000815160208093012016916040519180830193845281519160005b838110616bfb575050509181616beb60248260009795968897018783820152036004810184520182612531565b51915afa616bf7616ac3565b9091565b818101830151858201602401528201616bbe565b505050600090604051616c21816124f9565b6000815290565b9291616c3691600094616b7a565b9080616c66575b616c445750565b6001600160a01b0391925080602080616c6293518301019101612abc565b1690565b506020815114616c3d565b9291616c7f91600094616b7a565b9080616ca2575b616c8d5750565b612ad191925060208082518301019101616900565b506020815114616c86565b9291616cbb91600094616b7a565b9080616cde575b616cc95750565b612ad191925060208082518301019101614548565b506020815114616cc2565b9291616cf791600094616b7a565b9080616d1c575b616d055750565b90915060208180518101031261042b576020015190565b506020815114616cfe565b90602082519201517fffffffff00000000000000000000000000000000000000000000000000000000908181169360048110616d6257505050565b60040360031b82901b16169150565b6001600160a01b0381161561076757600080918351908260208601915af190616d98616ac3565b9115616da2575090565b805160009190600411616e1e57616db99150616d27565b815115616dc95750805190602001fd5b6040517f21c09d340000000000000000000000000000000000000000000000000000000081527fffffffff00000000000000000000000000000000000000000000000000000000919091166004820152602490fd5b50616db9565b803b6000616e31826125b1565b92616e3f6040519485612531565b82845260208401903c602d81511061079157602a015160601c9056fea26469706673582212203a045578b2985d36d955673068d080c147317720e3a19fafec6eebb43824f50064736f6c63430008140033","linkReferences":{}},"methodIdentifiers":{"instanceStor()":"131c73ad"},"id":85}