{"abi":[{"type":"constructor","inputs":[{"name":"_hex","type":"address","internalType":"address"}],"stateMutability":"nonpayable"},{"type":"function","name":"instanceStor","inputs":[],"outputs":[{"name":"","type":"address","internalType":"address"}],"stateMutability":"view"}],"bytecode":{"object":"0x6080346100c5576001600160401b0390601f61723f38819003918201601f1916830191848311848410176100af578084926020946040528339810103126100c557516001600160a01b039190828116908190036100c557604051916170e690818401908111848210176100af576020928492610159843981520301906000f080156100a3571660018060a01b03196000541617600055604051608e90816100cb8239f35b6040513d6000823e3d90fd5b634e487b7160e01b600052604160045260246000fd5b600080fdfe6080806040526004361015601257600080fd5b600090813560e01c63131c73ad14602857600080fd5b346054578160031936011260545773ffffffffffffffffffffffffffffffffffffffff60209254168152f35b5080fdfea2646970667358221220512f734eb885d7df350b005b74ce1f7529f15923c6a91adc34354442ee629e6064736f6c63430008140033608034620000b757601f620070e638819003918201601f19168301916001600160401b03831184841017620000bc57808492602094604052833981010312620000b757516001600160a01b03811690819003620000b7578015620000a55760018060a01b03199033826001541617600155600091825416178155600160115580601255806013558060145580601555806016556017556040516170139081620000d38239f35b60405163e6c4247b60e01b8152600490fd5b600080fd5b634e487b7160e01b600052604160045260246000fdfe60806040526004361015610018575b361561001657005b005b60003560e01c806302a085f214610338578063043719b41461033357806309d8da2e1461032e5780630b98f9751461032957806312065fe014610324578063129641201461031f578063143ec3b71461031a5780631f185d161461031557806329ee350e14610310578063339459a61461030b57806339b4d61b146103065780633b9b79551461030157806343a1b5ab146102fc5780634a65786c146102f757806352902c59146102f25780635640dbfc146102ed5780635ecf6a8a146102e8578063619d5194146102e35780636350b2c2146102de578063654c668e146102d957806369245009146102d45780636de97c66146102cf5780636f493aad146102ca578063725b6fff146102c5578063759f22bd146102c057806375b4d78c146102bb5780637b058ac1146102b6578063822ffec4146102b1578063880cdc31146102ac5780638da5cb5b146102a7578063934209ce146102a25780639659867e1461029d578063a1f7f53914610298578063a5d7cda414610293578063a66303041461028e578063a9bf285b14610289578063af48452614610284578063af640d0f1461027f578063b90306ad1461027a578063bab2f55214610275578063c54e44b014610270578063c8ef7b1a1461026b578063d2a1590414610266578063d3a1a49914610261578063d3abb8a31461025c578063da02133514610257578063deb1ba1e14610252578063e01ad5fd1461024d578063e0a9bc2b146102485763fdc10bc90361000e57612055565b61203a565b611fba565b611f40565b611eb9565b611e5d565b611e31565b611dec565b611cf1565b611cb9565b611c9b565b611b8d565b611b6f565b611b3e565b611b20565b61151b565b611137565b6110c2565b6110a4565b611086565b61105f565b610ff4565b610db7565b610c86565b610c68565b610ba2565b610b1e565b610ae4565b610a52565b6109f9565b6109a4565b61094d565b6108e5565b6108c2565b610867565b61077c565b610756565b610738565b610711565b6106e5565b6106cc565b610693565b6105ac565b61056f565b610523565b610507565b610496565b610473565b610437565b61036c565b610120810192916000915b6009831061035557505050565b600190825181526020809101920192019190610348565b60408060031936011261043257805190610385826120be565b61012036833760ff6018541661041b5761039d616a49565b1561040b576103ab33616ace565b80156103f7575b156103e7576103d36103e3926103c6612805565b6024359060043590612ce1565b906001601155519182918261033d565b0390f35b6004905163ea8e4eb560e01b8152fd5b50336001600160a01b0360055416146103b2565b60049051634ee2123760e11b8152fd5b60249051635258db5f60e01b8152600a6004820152fd5b600080fd5b3461043257604036600319011261043257600435600052603060205260206104656024356040600020612395565b90546040519160031b1c8152f35b3461043257600036600319011261043257602060ff601854166040519015158152f35b34610432576020366003190112610432576104af616a49565b156104f6576104bd33616ace565b80156104e2575b156104d157600435601955005b600460405163ea8e4eb560e01b8152fd5b50336001600160a01b0360055416146104c4565b6004604051634ee2123760e11b8152fd5b3461043257600036600319011261043257602047604051908152f35b3461043257604036600319011261043257610542602435600435615c0c565b60405190600090825b600783106105585760e084f35b60019082518152602080910192019201919061054b565b346104325760203660031901126104325760043560005260306020526020604060002054604051908152f35b6001600160a01b0381160361043257565b34610432576020806003193601126104325761062b6004356105cd8161059b565b6001600160a01b038060025416906040519216848301528382526105f0826120db565b604051906105fd826120db565b601182527f69735369676e657228616464726573732900000000000000000000000000000085830152616cb2565b919080610689575b1561065f57818161064d926103e394518301019101616a34565b60405190151581529081906020820190565b60046040517f3204506f000000000000000000000000000000000000000000000000000000008152fd5b5080825114610633565b3461043257600036600319011261043257601f5460088110156106c757602181015460408051928352602083019190915290f35b611e09565b346104325760003660031901126104325761001661636e565b3461043257602036600319011261043257600435600052602a6020526020604060002054604051908152f35b346104325760003660031901126104325760206001600160a01b0360005416604051908152f35b34610432576000366003190112610432576020602d54604051908152f35b3461043257600036600319011261043257602060ff60185460081c166040519015158152f35b34610432576060366003190112610432576004356107998161059b565b6024356107a58161059b565b6001600160a01b0380921690811580801561085d575b6108455761081b5761080d916000938454826001600160a01b03198216178655167fe939feee179e631422bcc8f6e6d7d908cb3f8af38f5372f17c77e15aea5c80ee8580a3610808612230565b616baa565b610818604435601b55565b80f35b60046040517fe6c4247b000000000000000000000000000000000000000000000000000000008152fd5b6024604051635258db5f60e01b815260016004820152fd5b50838216156107bb565b346104325760003660031901126104325760c060315460ff60325460335490604051938452602084015281811615156040840152818160081c1615156060840152818160101c161515608084015260181c16151560a0820152f35b3461043257600036600319011261043257610016612230565b8015150361043257565b3461043257602036600319011261043257600435610902816108db565b61090a616a49565b156104f65761091833616ace565b8015610939575b156104d15760ff8019601854169115151617601855600080f35b50336001600160a01b03600554161461091f565b3461043257602036600319011261043257600435600052602c602052608060406000208054906001810154906001600160a01b03600360028301549201541691604051938452602084015260408301526060820152f35b34610432576040366003190112610432576109bd616a49565b156104f6576109cb33616ace565b80156109e5575b156104d157600435601455602435601355005b50336001600160a01b0360055416146109d2565b34610432576000366003190112610432576020601e54604051908152f35b6020908160408183019282815285518094520193019160005b828110610a3e575050505090565b835185529381019392810192600101610a30565b3461043257600036600319011261043257601f546001810190818111610adf57610a7b82615ff1565b91610a89604051938461212f565b808352610a98601f1991615ff1565b0136602084013760005b81811115610ab857604051806103e38582610a17565b60088110156106c75780610ada9160210154610ad48286616059565b5261245a565b610aa2565b612444565b3461043257604036600319011261043257600435600052602e60205260406000206024356000526020526020604060002054604051908152f35b34610432576000366003190112610432576020601c54604051908152f35b6020908160408183019282815285518094520193019160005b828110610b63575050505090565b9091929382608082610b966001948951606080918051845260208101516020850152604081015160408501520151910152565b01950193929101610b55565b3461043257604036600319011261043257600435602435808211610c5057818103908111610adf57600190818101809111610adf57610be090616009565b916000825b610bf8575b604051806103e38682610b3c565b8351811015610c4b5780610c2a610c25610c15610c459486612621565b600052602f602052604060002090565b615fbf565b610c348287616059565b52610c3f8186616059565b5061245a565b82610be5565b610bea565b6024604051635258db5f60e01b8152600d6004820152fd5b34610432576000366003190112610432576020601954604051908152f35b346104325760a036600319011261043257604435602435600435608435610cac816108db565b610cb4616a49565b156104f657610cc233616ace565b8015610da3575b156104d15760009260009480610cea575b6040805186815260208101889052f35b9091929350601f549483600014610d5b57506001610d3a82610d4e96610d28610d20610d4396600052602f602052604060002090565b918254612621565b9055600052602f602052604060002090565b01918254612621565b90555b606435614500565b601f549038808080610cda565b808260409252602f60205220938454908103908111610adf57610d93610d9c92600192610d4e9755600052602f602052604060002090565b0191825461263d565b9055610d46565b50336001600160a01b036005541614610cc9565b346104325760c03660031901126104325760643560a435602435600435604435610de0846108db565b610de8616a49565b156104f657610df633616ace565b8015610fe0575b156104d157610e1681600052602f602052604060002090565b610e21838254612621565b90556001610e3982600052602f602052604060002090565b01610e45848254612621565b905560008052602f6020527fc11d2605466dd88923799a61d7f94d6c8cc580bae52b24870f6853eaa13cc4d654151580610fd7575b610e8d575b601f54604051908152602090f35b610f0a92159485159283610fc9575b610ef9610eea610eb46003546001600160a01b031690565b60405190610edc82610ece89602083019190602083019252565b03601f19810184528361212f565b610ee4614348565b90616c87565b60208082518301019101614381565b9493929991989095601e549061263d565b60843511918215610fbc575b5081610fb3575b50610f2b575b505050610e7f565b610f9196600396610d3a9660009015610faa5750610f55610f4f610f5b9385612751565b916126e0565b906124f3565b975b60009015610fa05750610f4f610f7693610f5592612751565b945b610d286002610d3a84600052602f602052604060002090565b90553880808080808080610f23565b9250505094610f78565b91505097610f5d565b90501538610f1d565b601f541015915038610f16565b610fd2826143e1565b610e9c565b50801515610e7a565b50336001600160a01b036005541614610dfd565b34610432576020366003190112610432576004356110118161059b565b611019616a49565b156104f65761102733616ace565b801561104b575b156104d1576001600160a01b038116156104d15761001690616baa565b50336001600160a01b03600554161461102e565b346104325760003660031901126104325760206001600160a01b0360015416604051908152f35b34610432576000366003190112610432576020601f54604051908152f35b34610432576000366003190112610432576020601a54604051908152f35b3461043257600036600319011261043257602061112f6001600160a01b03600654166040516110f0816120db565b601381527f67657464656c656761746f72436f756e742829000000000000000000000000008482015260405191611126836120f7565b60008352616de5565b604051908152f35b6040806003193601126104325760049081359160243560ff601854166115045761115f612805565b611167616b58565b90601c546111758282612621565b8311156114fc576111869250612621565b915b6111c56111c06111ba6111a36003546001600160a01b031690565b6111ab6124a2565b906111b46124ba565b90616de5565b856124f3565b602955565b6111db602954600052602a602052604060002090565b54936111ef6003546001600160a01b031690565b946112096111fb6124a2565b611203612513565b88616de5565b036114df576103e7600052603060205260016112477f42e4ed8a28bd93bfb836b3bd3996ada35ff866e155b2ce135e767e31acbdb63f5b5460011690565b14806114aa575b61148d578151602080820183905295906112879061127981604081015b03601f19810183528261212f565b61128161327a565b83616de5565b340361146c5761130f916112ba6112ac61130a936112a36124a2565b90610ee46132b3565b8880825183010191016132ec565b946001600160a01b0392831694919392169080151580611463575b611447575b5050508015158061143e575b611416575b5050506113026112fd34601254612621565b601255565b601354612621565b601355565b61131883612840565b8361133a61132e6000546001600160a01b031690565b6001600160a01b031690565b8251938480927f1b4fc17b0000000000000000000000000000000000000000000000000000000082525afa918215611411577f1517c86fcf2bfb8e3468afcc539b0004955da8027797c497ea51d1f1094ab898946000936113dc575b5050513381526001600160a01b0390911660208201526000604082015234606082015260808101919091526103e860a08201528060c081015b0390a16100166001601155565b6113cf929350908161140292903d1061140a575b6113fa818361212f565b810190612692565b919038611396565b503d6113f0565b61332c565b61143692610f5561142a6114309334612751565b916126f1565b90616c27565b3880806112eb565b508115156112e6565b61145b92610f5561142a6114309334612751565b3880806112da565b508115156112d5565b825163cdab4c8760e01b8152600981860190815281906020010390fd5b0390fd5b8151635258db5f60e01b8152600681850190815281906020010390fd5b50601b54825160208101919091526114d7906114c9816040810161126b565b6114d1612469565b87616d60565b31151561124e565b815163cdab4c8760e01b8152600581850190815281906020010390fd5b505091611188565b50600a6024925191635258db5f60e01b8352820152fd5b60c036600319011261043257600480356115348161059b565b6064359060443560a435608435611549616a49565b15611b105761155733616ace565b8015611afc575b15611a6e5760ff60185416611ae457611575612805565b6103e7600052603060205260016115ab7f42e4ed8a28bd93bfb836b3bd3996ada35ff866e155b2ce135e767e31acbdb63f611240565b1480611a9c575b611a7e576115c66115c285616ace565b1590565b611a6e576003936115e76111c06111ba6111a388546001600160a01b031690565b6029546115fe81600052602a602052604060002090565b5486546001600160a01b0316906116246116166124a2565b61161e612513565b84616de5565b1190811591611a2a575b50611a0c5761164790600052602a602052604060002090565b8054600101905560018214958615611a055761168f61166d87546001600160a01b031690565b6040519061168782610ece8a602083019190602083019252565b6111b46125be565b965b6119b2575b50601a541561199b575b601a546116ac9061245a565b601a556116b7612151565b948686526020918583880152846040880152606087019660008852601a546116e990600052602c602052604060002090565b906116f39161264a565b60015460405163c85700fb60e01b858201526001600160a01b03909116602480830191909152356044820152606481018790526084810189905260a4808201879052815261174260c48261212f565b61174b91616ea9565b8280825183010191019061175e91612692565b6001600160a01b03168087521561197d5786975061190b6118866118816118f96118918a9b610f5561188c61187261195f9b9a7f1517c86fcf2bfb8e3468afcc539b0004955da8027797c497ea51d1f1094ab8989f8f6119229c61184761184261183a6118549461180f6117dc61186598516001600160a01b031690565b866117f3601a54600052602c602052604060002090565b01906001600160a01b03166001600160a01b0319825416179055565b61183461182386546001600160a01b031690565b61182b6124a2565b906111b46126a7565b90612751565b601554612621565b601555565b546001600160a01b031690565b61185c6124a2565b90610ee4612764565b805181018201910161279d565b9c9491959b9293989050612751565b612751565b93612751565b612707565b916118c36118ab602d54600052602e602052604060002090565b6118b5838c612621565b600052602052604060002090565b6118ce8482546127d0565b90556118b5846118f46118ed602d54600052602e602052604060002090565b938c612621565b612621565b6119048282546127ec565b9055612751565b9661191585612840565b516001600160a01b031690565b604080513381526001600160a01b03909216602083015281019490945260608401879052608084019290925260a0830191909152819060c0820190565b0390a161196c6001601155565b604080519182526020820192909252f35b604051635258db5f60e01b81526002818a0190815281906020010390fd5b6119a483601c55565b6119ad83601d55565b6116a0565b60195490876119c18383612621565b106119e757876119d76119e1936119dc93612621565b61263d565b601955565b38611696565b604051635258db5f60e01b81526005818b0190815281906020010390fd5b8096611691565b60405163cdab4c8760e01b81526001818a0190815281906020010390fd5b9050611a3f611a376124a2565b61128161254c565b8610908115611a50575b503861162e565b611a669150611a5d6124a2565b906111b4612585565b851138611a49565b8560405163ea8e4eb560e01b8152fd5b604051635258db5f60e01b8152600b81880190815281906020010390fd5b50611adc610ece611ab488546001600160a01b031690565b611ace601b54604051938491602083019190602083019252565b611ad6612469565b90616d60565b3115156115b2565b602486600a60405191635258db5f60e01b8352820152fd5b50336001600160a01b03600554161461155e565b85604051634ee2123760e11b8152fd5b34610432576000366003190112610432576020601d54604051908152f35b34610432576020366003190112610432576020611b65600435611b608161059b565b616ace565b6040519015158152f35b34610432576000366003190112610432576020601b54604051908152f35b3461043257602036600319011261043257600435611ba9616a49565b156104f6576001600160a01b036005541633036104d15760009060046020611bdb61132e85546001600160a01b031690565b604051928380927f46f991ac0000000000000000000000000000000000000000000000000000000082525afa80156114115783808481949382948391611c7d575b505af1611c27616bf7565b501561065f577fcdcc745fe377b103b45fa0cec23ae3ef93d6fc6a84a01f0d18c40b354dd1d5d8611c77611c6661132e600b546001600160a01b031690565b604051938452929081906020820190565b0390a280f35b611c95915060203d811161140a576113fa818361212f565b38611c1c565b34610432576000366003190112610432576020602954604051908152f35b34610432576020366003190112610432576020611ce0600435611cdb8161059b565b616f5c565b6001600160a01b0360405191168152f35b3461043257604036600319011261043257602435611d0e816108db565b611d16616a49565b156104f657611d2433616ace565b8015611dd8575b156104d157611d38616b58565b906000916004358352603060205260408320805492831590811591611dd0575b81611db0575b50611d67578380f35b68010000000000000000831015611dab5782611d8b916001611da495018155612395565b90919082549060031b91821b91600019901b1916179055565b3880808380f35b612070565b159050611dc75760ff845b16600184161438611d5e565b60ff6001611dbb565b905080611d58565b50336001600160a01b036005541614611d2b565b346104325760003660031901126104325760208054604051908152f35b634e487b7160e01b600052603260045260246000fd5b60088110156106c75760210190600090565b346104325760203660031901126104325760043560088110156104325760209060210154604051908152f35b602036600319011261043257611e71616a49565b156104f657611e7f33616ace565b8015611ea5575b156104d157611e93612805565b611e9e6004356137b1565b6001601155005b50336001600160a01b036005541614611e86565b3461043257602036600319011261043257611ed2615f9a565b50600435600052602f60205260806040600020600360405191611ef483612086565b80548352600181015460208401526002810154604084015201546060820152611f3e6040518092606080918051845260208101516020850152604081015160408501520151910152565bf35b3461043257602036600319011261043257600435611f5d816108db565b611f65616a49565b156104f657611f7333616ace565b8015611fa6575b156104d15715611f9457611f8f60205461245a565b602055005b6020548015610adf5760001901602055005b50336001600160a01b036005541614611f7a565b34610432576020366003190112610432576020611b65600435611fdc8161059b565b6001600160a01b03806006541690604051921684830152838252611fff826120db565b6040519061200c826120db565b601882527f697364656c656761746f724e6f6465286164647265737329000000000000000085830152616da9565b34610432576000366003190112610432576020611b65616a49565b3461043257600036600319011261043257602061112f616b58565b634e487b7160e01b600052604160045260246000fd5b6080810190811067ffffffffffffffff821117611dab57604052565b6060810190811067ffffffffffffffff821117611dab57604052565b610120810190811067ffffffffffffffff821117611dab57604052565b6040810190811067ffffffffffffffff821117611dab57604052565b6020810190811067ffffffffffffffff821117611dab57604052565b60e0810190811067ffffffffffffffff821117611dab57604052565b90601f8019910116810190811067ffffffffffffffff821117611dab57604052565b6040519061215e82612086565b565b604051906102c0820182811067ffffffffffffffff821117611dab57604052565b604051906101e0820182811067ffffffffffffffff821117611dab57604052565b6040519061215e82612113565b67ffffffffffffffff8111611dab57601f01601f191660200190565b604051906121d8826120f7565b60008252565b91908260c0910312610432578151916020810151916040820151612201816108db565b916060810151612210816108db565b9160a06080830151612221816108db565b92015161222d816108db565b90565b61223861636e565b6122946001600160a01b036003541660405190612254826120f7565b6000825260405190612265826120db565b600982527f63617070696e67282900000000000000000000000000000000000000000000006020830152616c87565b8051156123375761231b61233261230261232d6122e76122c08660208061215e995183010191016121de565b9994999792959091939763ff00000060335491151560181b169063ff000000191617603355565b62ff000060335491151560101b169062ff0000191617603355565b61ff0060335491151560081b169061ff00191617603355565b60ff8019603354169115151617603355565b603255565b603155565b60646040517f08c379a000000000000000000000000000000000000000000000000000000000815260206004820152601460248201527f43617070696e67206665746368206661696c65640000000000000000000000006044820152fd5b80548210156106c75760005260206000200190600090565b6103e760005260306020527f42e4ed8a28bd93bfb836b3bd3996ada35ff866e155b2ce135e767e31acbdb63f80549283158015919061243c575b8161241b575b506123f757505050565b68010000000000000000831015611dab5782611d8b91600161215e95018155612395565b1590506124335760ff60005b166001841614386123ed565b60ff6001612427565b9050806123e7565b634e487b7160e01b600052601160045260246000fd5b6000198114610adf5760010190565b60405190612476826120db565b601882527f676574557365724964546f496e73742875696e743235362900000000000000006020830152565b6040516124ae816120f7565b60008152906000368137565b604051906124c7826120db565b600f82527f6d696e744379636c6544617973282900000000000000000000000000000000006020830152565b81156124fd570490565b634e487b7160e01b600052601260045260246000fd5b60405190612520826120db565b601282527f6d61784d696e74735065724379636c65282900000000000000000000000000006020830152565b60405190612559826120db565b600c82527f6d696e4d696e74517479282900000000000000000000000000000000000000006020830152565b60405190612592826120db565b600c82527f6d61784d696e74517479282900000000000000000000000000000000000000006020830152565b604051906125cb826120db565b601982527f636f6d707574654d696e7456616c75652875696e7432353629000000000000006020830152565b6046019081604611610adf57565b90601e8201809211610adf57565b9060018201809211610adf57565b91908201809211610adf57565b600019810191908211610adf57565b91908203918211610adf57565b60036001600160a01b03606061215e948051855560208101516001860155604081015160028601550151169101906001600160a01b03166001600160a01b0319825416179055565b90816020910312610432575161222d8161059b565b604051906126b4826120db565b600f82527f6d696e74466565506572517479282900000000000000000000000000000000006020830152565b9081606402916064830403610adf57565b90606482029180830460641490151715610adf57565b9061271091828102928184041490151715610adf57565b90601982029180830460191490151715610adf57565b90670de0b6b3a764000091828102928184041490151715610adf57565b81810292918115918404141715610adf57565b60405190612771826120db565b600682527f706f6f6c282900000000000000000000000000000000000000000000000000006020830152565b908160e09103126104325780519160208201519160408101519160608201519160808101519160c060a083015192015190565b91909160008382019384129112908015821691151617610adf57565b81810392916000138015828513169184121617610adf57565b600260115414612816576002601155565b60046040517f3ee5aeb5000000000000000000000000000000000000000000000000000000008152fd5b6000808052602f60205261215e916128896128807fc11d2605466dd88923799a61d7f94d6c8cc580bae52b24870f6853eaa13cc4d65b5460125490612621565b60315490612751565b612891615b59565b505060335460ff8116612acc575b60ff8160081c16612a27575b60ff8160101c1661297d575b60181c60ff16612904575b6128e56128e06128d760155460135490612621565b60325490612751565b612734565b9060145493119283156128fa575b50506123ad565b11915038806128f3565b6004600052602b60205291612977906129716129516001600080516020616fbe8339815191525b01546004600052602b6020526002600080516020616fbe8339815191525b015490612621565b6004600052602b6020526003600080516020616fbe833981519152612949565b90612621565b916128c2565b6003600052602b6020529260ff90612a1f906129716129ed60017fd3904653c5d0f9b122879aa13f7287465a10522aedd588dbbd607cf6f8b2147f5b01546003600052602b60205260027fd3904653c5d0f9b122879aa13f7287465a10522aedd588dbbd607cf6f8b2147f612949565b60036000819052602b6020527fd3904653c5d0f9b122879aa13f7287465a10522aedd588dbbd607cf6f8b2147f612949565b9390506128b7565b6002600052602b60205292612ac690612971612a9460017fbd6c10e6ce287735500a1c033be76c57d5e632addc2ff6eff6bb587b8ee0d95c5b015460026000819052602b6020527fbd6c10e6ce287735500a1c033be76c57d5e632addc2ff6eff6bb587b8ee0d95c612949565b6002600052602b60205260037fbd6c10e6ce287735500a1c033be76c57d5e632addc2ff6eff6bb587b8ee0d95c612949565b926128ab565b9250612b51612b1f6001612aeb6001600052602b602052604060002090565b01546001600052602b60205260027ffcc3d43705633578a5e8f1b6d6f38d08eb8cb891174edcc94b1a54972a1aebbd612949565b6001600052602b60205260037ffcc3d43705633578a5e8f1b6d6f38d08eb8cb891174edcc94b1a54972a1aebbd612949565b9261289f565b60405190612b6482612113565b60e0368337565b60405190612b78826120db565b601082527f65616368636c61696d4379636c652829000000000000000000000000000000006020830152565b60405190612bb1826120db565b601082527f6d6178436c61696d5065724461792829000000000000000000000000000000006020830152565b60405190612bea826120db565b601082527f6d696e436c61696d5065724461792829000000000000000000000000000000006020830152565b60405190612c23826120db565b601682527f6d6178476c6f62616c436c61696d5065724461792829000000000000000000006020830152565b60405190612c5c826120db565b601582527f67657477697468647261776e2875696e743235362900000000000000000000006020830152565b9060098110156106c75760051b0190565b60405190612ca6826120db565b601d82527f636f6d707574654f7a6f6e65546f446f6c6c61722875696e74323536290000006020830152565b90816020910312610432575190565b919290928281156132725750601c5493612cfb8186612621565b82111561326557612d19612d1160329287612621565b955b8661263d565b1161325f57600393612d52612d49612d3887546001600160a01b031690565b612d406124a2565b906111b4612b6b565b601d5490612621565b821015612d61575b5050909150565b612d74612d6d82614656565b80926123ad565b84546001600160a01b031690612d93612d8b6124a2565b61161e612ba4565b6001600052602b60205295612ee8612eb7612e86612e55612e24612df3867ffcc3d43705633578a5e8f1b6d6f38d08eb8cb891174edcc94b1a54972a1aebbd01546004600052602b60205287600080516020616fbe833981519152612949565b6002600052602b602052867fbd6c10e6ce287735500a1c033be76c57d5e632addc2ff6eff6bb587b8ee0d95c612949565b6003600052602b602052857fd3904653c5d0f9b122879aa13f7287465a10522aedd588dbbd607cf6f8b2147f612949565b6005600052602b602052847f4b5b933abde5416303ae4347d7fcdf5a17e8022e0fefc2b31c7609ebd3c32fe9612949565b6006600052602b602052837f5ac1f6ea00ad8b0f699e3a293cc93d6fdaf7ee608fbc40ffef54db3fb7ebb943612949565b6007600052602b602052827f455b6dea826802a5b6200d61a7810fccbd36f05c878743e3ac0e0e7aff3a46e8612949565b92612efc612ef46124a2565b611281612bdd565b8410801590613258575b612f13575b505050612d5a565b612f2890612f1f6124a2565b906111b4612c16565b92612f3b6004546001600160a01b031690565b97604094612f73865180612f578a602083019190602083019252565b039b612f6b601f199d8e810184528361212f565b6111b4612c4f565b1015613241576000918181111561323a57612f8e925061263d565b91600092600180915b600783111561308e575050509661304c92613051949261305697989960165460e08c0152601754806101008d015281613084575b5061306c575b612fdb6000601655565b612fe56000601755565b6000821561306257509261302d613035936130219361300e61304497546001600160a01b031690565b9351948591602083019190602083019252565b0390810184528361212f565b610ee4612c99565b60208082518301019101612cd2565b601454612621565b601455565b601d55565b81903880808080612f0b565b9350505050613044565b61307f61307a602d5461245a565b602d55565b612fd1565b9050151538612fcb565b909194846130a687600052602b602052604060002090565b0154826131a55761319e9161311f91856130ca8a600052602b602052604060002090565b016130d6828254612621565b90556000886130ef8b600052602b602052604060002090565b01556131048d6130fe8b61262e565b90612c88565b525b6131186131128961262e565b8d612c88565b5190612621565b957f1517c86fcf2bfb8e3468afcc539b0004955da8027797c497ea51d1f1094ab8988961314f8d6130fe8561262e565b5161319661315c856125f7565b8c5193849333859094939260a0926001600160a01b0360c08401971683526000602084015260006040840152606083015260808201520152565b0390a161245a565b9190612f97565b91808311156132195761319e916131ec6131c261311f938661263d565b8095876131d98c600052602b602052604060002090565b016131e5838254612621565b905561263d565b876132018a600052602b602052604060002090565b01556000936132138d6130fe8b61262e565b52613106565b61322a61319e929361311f9261263d565b9260006132138d6130fe8b61262e565b5050612f8e565b845163cdab4c8760e01b8152600480820152602490fd5b5082612f06565b50915090565b506032612d198295612d13565b925050915090565b60405190613287826120db565b601d82527f636f6d70757465446f6c6c6172546f4f7a6f6e652875696e74323536290000006020830152565b604051906132c0826120db565b600a82527f6275726e636e66672829000000000000000000000000000000000000000000006020830152565b91908260c09103126104325781516133038161059b565b91602081015191604082015191606081015161331e8161059b565b9160a0608083015192015190565b6040513d6000823e3d90fd5b60405190613345826120db565b601382527f55736572546f496e7374286164647265737329000000000000000000000000006020830152565b6040519061337e826120db565b600b82527f6d696e74436f756e7428290000000000000000000000000000000000000000006020830152565b604051906133b7826120db565b600e82527f6d696e74732875696e74323536290000000000000000000000000000000000006020830152565b604051906133f0826120db565b600b82527f6d696e74656441676528290000000000000000000000000000000000000000006020830152565b60405190613429826120db565b600b82527f6d696e74656471747928290000000000000000000000000000000000000000006020830152565b60405190613462826120db565b600c82527f6964732875696e743235362900000000000000000000000000000000000000006020830152565b6040519061349b826120db565b600982527f6d696e74416d74282900000000000000000000000000000000000000000000006020830152565b604051906134d4826120db565b600a82527f647261776e6167652829000000000000000000000000000000000000000000006020830152565b6040519061350d826120db565b600c82527f4c53422875696e743235362900000000000000000000000000000000000000006020830152565b60405190613546826120db565b600782527f647261776e2829000000000000000000000000000000000000000000000000006020830152565b91908260c09103126104325781519160208101519160408201519160608101519160a0608083015192015190565b604051906135ad826120db565b601382527f67657452657761726473286164647265737329000000000000000000000000006020830152565b9190826040910312610432576020825192015190565b604051906135fc826120db565b600782527f626f6e75732829000000000000000000000000000000000000000000000000006020830152565b60405190613635826120db565b600682527f63616765282900000000000000000000000000000000000000000000000000006020830152565b6040519061366e826120db565b601982527f67657445666665637469766552616e6b286164647265737329000000000000006020830152565b604051906136a7826120db565b601882527f6765744e6f64654c766c446570746828616464726573732900000000000000006020830152565b604051906136e0826120db565b601e82527f6765746e6f6465526e6b41676528616464726573732c75696e743235362900006020830152565b60405190613719826120db565b601082527f6765744e6f6465286164647265737329000000000000000000000000000000006020830152565b908160a09103126104325780519160208201516137618161059b565b9160408101519160806060830151612221816108db565b60405190613785826120db565b601a82527f77697468647261776e496e636f6d654f662861646472657373290000000000006020830152565b60185460081c60ff166143455760049060206137d861132e6000546001600160a01b031690565b604051938480927f447aa3040000000000000000000000000000000000000000000000000000000082525afa91821561141157600092614324575b5061385a61126b61384c61382f6001546001600160a01b031690565b604080516001600160a01b03909216602083015290928391820190565b613854613338565b84616d60565b926001600160a01b038416156142ff57600582116142e65761388b61387d6124a2565b613885613371565b86616de5565b91601a546138998183612621565b8411156142da576138a991612621565b909291925b60008052602f6020527fc11d2605466dd88923799a61d7f94d6c8cc580bae52b24870f6853eaa13cc4d6547fc11d2605466dd88923799a61d7f94d6c8cc580bae52b24870f6853eaa13cc4d754909490935b601a5484811015613d065761391761391c9161245a565b601a55565b60008052602a6020527f25a1a901705ed15d5376e82511cff743d9474883c82d145cebcc7811e0424a9c613950815461245a565b9055601a54956139806040516139728161126b8b602083019190602083019252565b61397a6133aa565b8a616d60565b9061399461398c6124a2565b61161e6133e3565b916139a86139a06124a2565b61128161341c565b916139cd6040516139c58161126b60208201906000602083019252565b61161e613455565b906139ea6139e46139dc6124a2565b61388561348e565b93616f5c565b9a6020613a4a613a0561132e6000546001600160a01b031690565b6040519e8f809381927fcfaa1f6c000000000000000000000000000000000000000000000000000000008352600483019190916001600160a01b036020820193169052565b03915afa9b8c156114115760009c613ce5575b50613a6a6115c28d616ace565b6104d157613b4992613ad886613ad28761132e9681613a96613b3a98600052602c602052604060002090565b55836001613ab0601a54600052602c602052604060002090565b01558b6002613acb601a54600052602c602052604060002090565b0155612621565b9d612621565b9c613b35613aee6001546001600160a01b031690565b60405163c85700fb60e01b60208201526001600160a01b0390911660248201526044810193909352606483018890526084830187905260a483018990528260c48101610ece565b616ea9565b60208082518301019101612692565b6001600160a01b03811615613ccc577f1517c86fcf2bfb8e3468afcc539b0004955da8027797c497ea51d1f1094ab89893613c76613cb392613b9e600391826117f3601a54600052602c602052604060002090565b611886613c45613c3d6118816118b5613bec8a610f5561188c613bdd613bce6118548c546001600160a01b031690565b6020808251830101910161279d565b9e9491959b9293989050612751565b946118f4613c36602d613c188c6118b588613c128554600052602e602052604060002090565b92612621565b613c238a82546127d0565b905554600052602e602052604060002090565b938a612621565b9182546127ec565b90556001601a5414613cbe575b613c68601a54600052602c602052604060002090565b01546001600160a01b031690565b604080513381526001600160a01b03909216602083015281019490945260608401929092526080830191909152600060a0830152819060c0820190565b0390a1949394613900565b613cc783601c55565b613c52565b604051635258db5f60e01b815260026004820152602490fd5b613cff919c5060203d60201161140a576113fa818361212f565b9a38613a5d565b50939195925093613d2160008052602f602052604060002090565b5560008052602f6020527fc11d2605466dd88923799a61d7f94d6c8cc580bae52b24870f6853eaa13cc4d755601a548381149384156142d0575b5060011015613dd8575b5050613d6d57565b60008052602f602052613da661184260017fc11d2605466dd88923799a61d7f94d6c8cc580bae52b24870f6853eaa13cc4d6015461271e565b613db1601c54601d55565b613dc4613dbf601c54612605565b612840565b61215e61010061ff00196018541617601855565b613df3613dee613de66124a2565b61161e6134c7565b601e55565b601e54601c54811161426e575b50613e2c613e1d613e0f6124a2565b613e17613539565b84616c87565b60208082518301019101613572565b946001613e4a9592959493946001600052602b602052604060002090565b0155602b60209081527fbd6c10e6ce287735500a1c033be76c57d5e632addc2ff6eff6bb587b8ee0d95d919091557fd3904653c5d0f9b122879aa13f7287465a10522aedd588dbbd607cf6f8b21480919091557f8bd115fc6ec81ad72d5ca8a8b3bd3d0177f1b615af6ad35644a4e24a7bed08bd919091557f5ac1f6ea00ad8b0f699e3a293cc93d6fdaf7ee608fbc40ffef54db3fb7ebb9449190915560076000527f455b6dea826802a5b6200d61a7810fccbd36f05c878743e3ac0e0e7aff3a46e991909155604080516001600160a01b03841692810192909252613f5891613f4991613f3b908290810161126b565b613f436135a0565b85616c87565b602080825183010191016135d9565b602b6020527ffcc3d43705633578a5e8f1b6d6f38d08eb8cb891174edcc94b1a54972a1aebbd919091556004600052600080516020616fbe83398151915255613fad6119dc613fa56124a2565b61161e6135ef565b613fc3613dee613fbb6124a2565b61161e613628565b614000613ffb604051613fed8161126b86602083019190916001600160a01b036020820193169052565b613ff5613661565b85616de5565b601f55565b604080516001600160a01b038316602082015261402c91614024908290810161126b565b61161e61369a565b60005b81811061417f575050614070610ece6140969361406861407f94604051938491602083019190916001600160a01b036020820193169052565b610ee461370c565b60208082518301019101613745565b935050505060ff8019601854169115151617601855565b600460206140af61132e6000546001600160a01b031690565b604051928380927f6325dd040000000000000000000000000000000000000000000000000000000082525afa9081156114115761412d91610ece91600091614160575b506141256141086001546001600160a01b031690565b604080516001600160a01b03909216602083015290938491820190565b6111b4613778565b6005600052602b6020527f4b5b933abde5416303ae4347d7fcdf5a17e8022e0fefc2b31c7609ebd3c32fea553880613d65565b614179915060203d60201161140a576113fa818361212f565b386140f2565b80614198916141e1575b601f5481111561419d5761245a565b61402f565b604080516001600160a01b03861660208201529081018290526141dc906141d3906141cb816060810161126b565b6112036136d3565b611d8b83611e1f565b61245a565b6040517f5329daca0000000000000000000000000000000000000000000000000000000060208201526001600160a01b03851660248201526044810182905261423b90613f4990614235816064810161126b565b87616ea9565b9061425083600052602f602052604060002090565b55600161426783600052602f602052604060002090565b0155614189565b601c5561429f61126b614291601e54604051928391602083019190602083019252565b614299613500565b83616e21565b6142c96142b8602d54600052602e602052604060002090565b601c54600052602052604060002090565b5538613e00565b1593506001613d5b565b505081909291926138ae565b60405163cdab4c8760e01b815260036004820152602490fd5b9250505061430e613dee616b58565b614319601e54601c55565b613dc4601e54601d55565b61433e91925060203d60201161140a576113fa818361212f565b9038613813565b50565b60405190614355826120db565b601482527f6c6576656c436c617573652875696e74323536290000000000000000000000006020830152565b908160a0910312610432578051916020820151916040810151916080606083015192015190565b604051906143b5826120db565b601382527f72616e6b436c617573652875696e7432353629000000000000000000000000006020830152565b90601f6143ee8154612613565b925b600884106143fe5750509050565b6003546001600160a01b031693604094614444614436875160209361442e82610ece888883019190602083019252565b610ee46143a8565b828082518301019101614381565b5050509183158015906144f8575b806144e8575b6144d05761447e949596975054101590816144ae575b508061449c575b6144865761245a565b9291906143f0565b61448f81601f55565b6141dc83611d8b83611e1f565b5083546144a88261262e565b14614475565b905060016144c683600052602f602052604060002090565b015410153861446e565b8751635258db5f60e01b815260036004820152602490fd5b5081158061445857508215614458565b506001614452565b9091906000831561459a5750614517601f54612613565b831561464b57600881105b1561464557600380546001600160a01b031690604091614558614436845160209361442e82610ece8a8883019190602083019252565b505050939092851580159061463e575b8061462e575b6145f95750509061459a93929154101590816145d7575b5085156145ac578061459f576144865761245a565b614517565b50601f546144a88261262e565b156145ba576141dc81601f55565b6141dc6145c682611e1f565b8154906000199060031b1b19169055565b905060016145ef83600052602f602052604060002090565b0154101538614585565b6114899250881561462557905b51635258db5f60e01b815260ff90911660048201529081906024820190565b50600490614606565b5083158061456e5750841561456e565b5088614568565b50509050565b601f54811115614522565b6102a061222d916149e561466982614b32565b916149e06149db845160039061468e82610d3a6001600052602b602052604060002090565b905560608601516004600052602b6020526146b782600080516020616fbe833981519152610d3a565b90556020868101516002600052602b9091526146f3827fbd6c10e6ce287735500a1c033be76c57d5e632addc2ff6eff6bb587b8ee0d95c610d3a565b90556040860180516003600052602b602052909190614732827fd3904653c5d0f9b122879aa13f7287465a10522aedd588dbbd607cf6f8b2147f610d3a565b905560808701516005600052602b60205261476d827f4b5b933abde5416303ae4347d7fcdf5a17e8022e0fefc2b31c7609ebd3c32fe9610d3a565b905560a08701516006600052602b6020526147a8827f5ac1f6ea00ad8b0f699e3a293cc93d6fdaf7ee608fbc40ffef54db3fb7ebb943610d3a565b905560c08701516007600052602b602052906147e4907f455b6dea826802a5b6200d61a7810fccbd36f05c878743e3ac0e0e7aff3a46e8610d3a565b905560e08601516001600052602b6020526002916149d2916149cd919061482b857ffcc3d43705633578a5e8f1b6d6f38d08eb8cb891174edcc94b1a54972a1aebbd610d3a565b90556101408901516004600052602b60205261485585600080516020616fbe833981519152610d3a565b90556101008901516002600052602b602052614891857fbd6c10e6ce287735500a1c033be76c57d5e632addc2ff6eff6bb587b8ee0d95c610d3a565b9055610120890180516003600052602b6020529094906148d1827fd3904653c5d0f9b122879aa13f7287465a10522aedd588dbbd607cf6f8b2147f610d3a565b90556101608a01516005600052602b60205261490d827f4b5b933abde5416303ae4347d7fcdf5a17e8022e0fefc2b31c7609ebd3c32fe9610d3a565b90556101808a01516006600052602b602052614949827f5ac1f6ea00ad8b0f699e3a293cc93d6fdaf7ee608fbc40ffef54db3fb7ebb943610d3a565b90556101a08a01516007600052602b60205290614986907f455b6dea826802a5b6200d61a7810fccbd36f05c878743e3ac0e0e7aff3a46e8610d3a565b90556101c08901516149c26149ba896149ab602d54600052602e602052604060002090565b90600052602052604060002090565b9182546127d0565b905551601654612621565b601655565b51601754612621565b601755565b601c55565b0151151590565b6149f4612160565b9060008083528060208401528060408401528060608401528060808401528060a08401528060c08401528060e08401528061010084015280610120840152806101408401528061016084015280610180840152806101a0840152806101c0840152806101e084015280610200840152806102208401528061024084015280610260840152806102808401526102a0830152565b60405190614a94826120db565b600a82527f73687574646f776e2829000000000000000000000000000000000000000000006020830152565b60405190614acd826120db565b601182527f696e636f6d654f662861646472657373290000000000000000000000000000006020830152565b60405190614b06826120db565b601482527f636f6d70757465546f75722875696e74323536290000000000000000000000006020830152565b90614b3b6149ec565b9160039083614b5183546001600160a01b031690565b92614b6c614b5d614a87565b614b656121cb565b9086616da9565b90614b75615b59565b94909160608501958652828552614c7284600193614c17614bd886614ba56001600052602b602052604060002090565b01546001600052602b602052867ffcc3d43705633578a5e8f1b6d6f38d08eb8cb891174edcc94b1a54972a1aebbd612949565b6001600052602b60205260029790614c1190897ffcc3d43705633578a5e8f1b6d6f38d08eb8cb891174edcc94b1a54972a1aebbd612949565b9061263d565b885288516004600052602b602052600080516020616fbe83398151915280870154614c6b9291614c1191614c4c918990612949565b6004600052602b60205289600080516020616fbe833981519152612949565b8952615533565b93909260208a99939901986101c06101008c019b015289528752600014615337575050614cad610ece611ab46004546001600160a01b031690565b3160408a01525b6009546001600160a01b031692614d11614cf5614cd885546001600160a01b031690565b604080516001600160a01b03909216602083015290918291820190565b0395614d09601f199788810184528361212f565b6111b4614ac0565b6005600052602b60205291614da8614d77857f4b5b933abde5416303ae4347d7fcdf5a17e8022e0fefc2b31c7609ebd3c32fe901546005600052602b602052847f4b5b933abde5416303ae4347d7fcdf5a17e8022e0fefc2b31c7609ebd3c32fe9612949565b6005600052602b602052827f4b5b933abde5416303ae4347d7fcdf5a17e8022e0fefc2b31c7609ebd3c32fe9612949565b60808c01818152938181111561532957614dc5915084519061263d565b83526004601f5483811015806152b2575b615275575b101591826151fd575b50506151bd575b6005600052603060205281614e1f7f9d0b70a39d4b3569f175af8ea51ae318eac80460c467ee4a16ee63ec5720706e611240565b1461519f575b506006600052603060205280614e5a7fd558ed0e54509c62efb2aedb46e6ad1b04c7bdca351e3613e136c946b91686d8611240565b1461517f575b60076000526030602052614e937f4ebb69666752feecd656ebf5f8cd3c2f1c70bb06a0c3d3744be479e4a580c233611240565b1461515f575b86518251614ea691612621565b9160408801928351614eb791612621565b8551614ec291612621565b938860e081019788518351614ed691612621565b94826101208101968751614ee991612621565b986101408201998a51614efb91612621565b614f049161595b565b919398946101e088999497929901996102008901976102608a01966102208b019b6102408c019b610280019e8f906102a00197614f4390899015159052565b528a528a5285528652885251614f65575b505050505050505050505050505050565b614fbb92614fb361302192613035948f614f99614f8d611ab46004546001600160a01b031690565b0387810184528361212f565b319052519a51604051948591602083019190602083019252565b610ee461327a565b93519051109151905110818092615156575b60009215615131575050508082101561512a57505b965b8951888b816150ee575050614ffa908251612621565b9052600089525b8151876150c75790615017600093928251612621565b9052525b8151856150a05790615031600093928251612621565b9052525b81519280615063575061504b6000938251612621565b9052525b388080808080808080808080808080614f54565b919061508a6150836150939580861160001461509957805b81865261263d565b8251612621565b9052519061263d565b5061504f565b859061507b565b9061508a6150836150c195979493808611600014615099578081865261263d565b91615035565b9061508a6150836150e895999493808611600014615099578081865261263d565b9361501b565b61511c949a5061508390615112929493808611600014615122578080925b5261263d565b905289519061263d565b95615001565b85809261510c565b9050614fe2565b15615140575050505b96614fe4565b919250901561514f575061513a565b905061513a565b91508091614fcd565b600060c0880180516151776101a08b01918251612621565b905252614e99565b600060a0890180516151976101808c01918251612621565b905252614e60565b80600091516151b46101608c01918251612621565b90525238614e25565b6151f36040516151e5816151d960208201906004602083019252565b0386810183528261212f565b6151ed614af9565b89616de5565b60c08a0152614deb565b6007600052602b6020527f455b6dea826802a5b6200d61a7810fccbd36f05c878743e3ac0e0e7aff3a46e88086015461526d945061523c929091612949565b6007600052602b602052907f455b6dea826802a5b6200d61a7810fccbd36f05c878743e3ac0e0e7aff3a46e8612949565b153880614de4565b8c60a06152aa8d604051906152a28261529660208201906002602083019252565b038d810184528361212f565b6111b4614af9565b910152614ddb565b506006600052602b6020527f5ac1f6ea00ad8b0f699e3a293cc93d6fdaf7ee608fbc40ffef54db3fb7ebb94380870154615323916152f291908790612949565b6006600052602b602052847f5ac1f6ea00ad8b0f699e3a293cc93d6fdaf7ee608fbc40ffef54db3fb7ebb943612949565b15614dd6565b6153329161263d565b614dc5565b60408b01526101208a0152614cb4565b604051906040820182811067ffffffffffffffff821117611dab5760405260006020838281520152565b6040519061537e826120a2565b81615387615347565b8152615391615347565b602082015260406153a0615347565b910152565b604051906153b2826120db565b601882527f6765744261746368526f79616c7479436c6175736573282900000000000000006020830152565b6102a09081818403126104325782601f8201121561043257604080519361540485612113565b849383019281841161043257935b83851061542157505050505090565b606085830312610432578251606091615439826120a2565b8651825260209182880151838201528588015186820152815201940193615412565b60405190615468826120db565b601f82527f676574526f79616c697479416d6f756e7442617463682875696e7432353629006020830152565b9060e0828203126104325780601f8301121561043257604051916154b783612113565b829060e0810192831161043257905b8282106154d35750505090565b81518152602091820191016154c6565b9060078110156106c75760051b0190565b8181029291600082127f8000000000000000000000000000000000000000000000000000000000000000821416610adf578184051490151715610adf57565b9160009260009260009260009260009261554b615371565b6155548361586f565b825190602082015252615566836158e5565b60208301519060208201525261557b83615920565b6040830151906020820152526155c46155b561559f6003546001600160a01b031690565b6155a76153a5565b6155af6121cb565b91616c87565b602080825183010191016153de565b92601c54926155db6004546001600160a01b031690565b93601f54905b8381106155f15750505050505050565b61562d61561e6040516156108161126b86602083019190602083019252565b61561861545b565b89616c87565b60208082518301019101615494565b6001905b838211156157505750508215615650575b61564b9061245a565b6155e1565b61567561566d826149ab602d54600052602e602052604060002090565b54809c6127d0565b9a615680828661263d565b90600091604088015180518881106156fa575b50508083116156f2575b826156a79161263d565b91806156dc575b50816156bc575b5050615642565b9a6156ce6156d49261564b949d6154f4565b906127d0565b9990386156b5565b9a6156ce829c6156eb936154f4565b99386156ae565b91508161569d565b808611156157475750602085915b016157138151612613565b8910156157385750875b818111156156935761573092945061263d565b913880615693565b6157429051612613565b61571d565b60209091615708565b909c61576461575e8f61262e565b8a6154e3565b515115801561580f575b615805578651805184101590816157f6575b5080156157cf575b156157b3576157a76157ad918f6157a16131189161262e565b856154e3565b9d61245a565b90615631565b9c9d6157c98f916131186157a16157ad9461262e565b9e61245a565b506020870151805184101590816157e7575b50615788565b602091500151831115386157e1565b60209150015183111538615780565b9c6157ad9061245a565b508d61582761581d82611e1f565b90549060031b1c90565b8410159081615838575b501561576e565b6158669150604061585d61585761585161581d85611e1f565b9361262e565b8d6154e3565b51015190612621565b8311158e615831565b906103e76000526030602052604060002080549081156158df5760018216159384156158d65760ff60025b168303838111610adf576158ae9083612395565b90549060031b1c946000146158d057506158ca61581d9261262e565b90612395565b91505090565b60ff600161589a565b50508190565b9060026000526030602052604060002080549081156158df5760018216159384156158d6576001198301838111610adf576158ae9083612395565b9060036000526030602052604060002080549081156158df5760018216159384156158d6576001198301838111610adf576158ae9083612395565b6000808052602f60205290929091906159e76159996128807fc11d2605466dd88923799a61d7f94d6c8cc580bae52b24870f6853eaa13cc4d6612876565b936159a2615b59565b505060335460ff8116615b34575b60ff8160081c16615af1575b60ff8160101c16615aa9575b60181c60ff16615a7a575b84811115615a7157612971855b9487612621565b9081946159ff6128e06128d760155460135490612621565b9185615a51601454858111600014615a6b57855b9460008115615a635750613035610ece6129719261302d615a3c6003546001600160a01b031690565b91604051938491602083019190602083019252565b94118015615a5c5790565b5082841190565b905090612621565b80615a13565b612971816159e0565b6004600052602b602052615aa4906129716129516001600080516020616fbe83398151915261292b565b6159d3565b6003600052602b6020529060ff90615ae9906129716129ed60017fd3904653c5d0f9b122879aa13f7287465a10522aedd588dbbd607cf6f8b2147f6129b9565b9190506159c8565b6002600052602b60205290615b2e90612971612a9460017fbd6c10e6ce287735500a1c033be76c57d5e632addc2ff6eff6bb587b8ee0d95c612a60565b906159bc565b9050615b53612b1f6001612aeb6001600052602b602052604060002090565b906159b0565b600090816001815b600f821115615bc65750506001600052602b6020527ffcc3d43705633578a5e8f1b6d6f38d08eb8cb891174edcc94b1a54972a1aebbd548101809111610adf576004600052602b6020529161222d90600080516020616fbe8339815191525490612621565b9093848252602f92602093808552604090600282862001548301809311610adf576003929588865252832001548101809111610adf57615c06909461245a565b90615b61565b9190615c16612b57565b92600191828214615f8d576002808314615e6457506003808314615e64575060048214615df85760058214615db657615c7590615c51616b58565b90601c54615c5f8282612621565b831115615daf57615c709250612621565b614b32565b9060068114615d5f5760078114615d0657600814615c91575050565b6102809192935060ff615ca26121a2565b936101e08301518552610200830151602086015261022083015160408601526102408301516060860152615cda6102a0840151151590565b60009015615cff57505b16608084015261026081015160a0840152015160c082015290565b9050615ce4565b50919250506101a0615d166121a2565b9160e08101518352610100810151602084015261012081015160408401526101408101516060840152610160810151608084015261018081015160a0840152015160c082015290565b509192505060c0615d6e6121a2565b91805183526020810151602084015260408101516040840152606081015160608401526080810151608084015260a081015160a0840152015160c082015290565b5050614b32565b5050509050615dc36121a2565b601254815260135460208201526015546040820152601454606082015260006080820152600060a0820152600060c082015290565b5050509050615e056121a2565b60165481526017546020820152615e276001600052602b602052604060002090565b5460408201526004600052602b602052600080516020616fbe83398151915254606082015260006080820152600060a0820152600060c082015290565b939450505050615e726121a2565b7ffcc3d43705633578a5e8f1b6d6f38d08eb8cb891174edcc94b1a54972a1aebbd82015481527fbd6c10e6ce287735500a1c033be76c57d5e632addc2ff6eff6bb587b8ee0d95c8201546020808301919091527fd3904653c5d0f9b122879aa13f7287465a10522aedd588dbbd607cf6f8b2147f8301546040830152600080516020616fbe83398151915283015460608301527f4b5b933abde5416303ae4347d7fcdf5a17e8022e0fefc2b31c7609ebd3c32fe983015460808301527f5ac1f6ea00ad8b0f699e3a293cc93d6fdaf7ee608fbc40ffef54db3fb7ebb94383015460a08301526007600052602b90527f455b6dea826802a5b6200d61a7810fccbd36f05c878743e3ac0e0e7aff3a46e89091015460c082015290565b5050909150615e726121a2565b60405190615fa782612086565b60006060838281528260208201528260408201520152565b90604051615fcc81612086565b6060600382948054845260018101546020850152600281015460408501520154910152565b67ffffffffffffffff8111611dab5760051b60200190565b9061601382615ff1565b616020604051918261212f565b8281528092616031601f1991615ff1565b019060005b82811061604257505050565b60209061604d615f9a565b82828501015201616036565b80518210156106c75760209160051b010190565b6163526101c061215e926160a761608b82516001600160a01b031690565b6001600160a01b03166001600160a01b03196002541617600255565b6160da6160be60208301516001600160a01b031690565b6001600160a01b03166001600160a01b03196003541617600355565b61610d6160f160408301516001600160a01b031690565b6001600160a01b03166001600160a01b03196004541617600455565b61614061612460608301516001600160a01b031690565b6001600160a01b03166001600160a01b03196005541617600555565b61617361615760808301516001600160a01b031690565b6001600160a01b03166001600160a01b03196006541617600655565b6161a661618a60a08301516001600160a01b031690565b6001600160a01b03166001600160a01b03196007541617600755565b6161d96161bd60c08301516001600160a01b031690565b6001600160a01b03166001600160a01b03196008541617600855565b61620c6161f060e08301516001600160a01b031690565b6001600160a01b03166001600160a01b03196009541617600955565b6162406162246101008301516001600160a01b031690565b6001600160a01b03166001600160a01b0319600a541617600a55565b6162746162586101208301516001600160a01b031690565b6001600160a01b03166001600160a01b0319600b541617600b55565b6162a861628c6101408301516001600160a01b031690565b6001600160a01b03166001600160a01b0319600c541617600c55565b6162dc6162c06101608301516001600160a01b031690565b6001600160a01b03166001600160a01b0319600d541617600d55565b6163106162f46101808301516001600160a01b031690565b6001600160a01b03166001600160a01b0319600e541617600e55565b6163446163286101a08301516001600160a01b031690565b6001600160a01b03166001600160a01b0319600f541617600f55565b01516001600160a01b031690565b6001600160a01b03166001600160a01b03196010541617601055565b61638361132e6000546001600160a01b031690565b604051907f97f3815a000000000000000000000000000000000000000000000000000000008252602082600481845afa91821561141157600092616a13575b50604051917fcfbffe53000000000000000000000000000000000000000000000000000000008352602083600481855afa928315611411576000936169f2575b50604051907fab6e844f000000000000000000000000000000000000000000000000000000008252602082600481865afa918215611411576000926169d1575b50604051917f14d8d024000000000000000000000000000000000000000000000000000000008352602083600481875afa928315611411576000936169b0575b50604051927fd1f956b1000000000000000000000000000000000000000000000000000000008452602084600481885afa9384156114115760009461698f575b50604051937fe61dfd58000000000000000000000000000000000000000000000000000000008552602085600481895afa9485156114115760009561696e575b506040517fe09d394d0000000000000000000000000000000000000000000000000000000081526020816004818a5afa9081156114115760009161694f575b506040517f52b06d640000000000000000000000000000000000000000000000000000000081526020816004818b5afa90811561141157600091616930575b506040517f013cf08b00000000000000000000000000000000000000000000000000000000815260006004820152916020836024818c5afa9283156114115760009361690f575b50604051977f5e09dbe70000000000000000000000000000000000000000000000000000000089526020896004818d5afa948515611411576004996000966168ee575b5060208b6040519b8c80927faa0ddc160000000000000000000000000000000000000000000000000000000082525afa9687156114115760049a6000986168cd575b5060208c6040519c8d80927f640274270000000000000000000000000000000000000000000000000000000082525afa9889156114115760049b60009a6168ac575b5060208d6040519d8e80927f30125cf50000000000000000000000000000000000000000000000000000000082525afa9a8b15611411578d60049d60009d61688a575b506020906040519e8f80927f24768d910000000000000000000000000000000000000000000000000000000082525afa9c8d156114115760009d616869575b50604051809e81907f9dc969a80000000000000000000000000000000000000000000000000000000082525a92600491602094fa9d8e156114115760009e616848575b5061675c612181565b6001600160a01b0390911681529d8e906001600160a01b031660208201526040019061679091906001600160a01b03169052565b6001600160a01b031660608d01526001600160a01b031660808c01526001600160a01b031660a08b01526001600160a01b031660c08a01526001600160a01b031660e08901526001600160a01b03166101008801526001600160a01b03166101208701526001600160a01b03166101408601526001600160a01b03166101608501526001600160a01b03166101808401526001600160a01b03166101a08301526001600160a01b03166101c082015261215e9061606d565b616862919e5060203d60201161140a576113fa818361212f565b9c38616753565b616883919d5060203d60201161140a576113fa818361212f565b9b38616710565b6020919d506168a590823d841161140a576113fa818361212f565b9c906166d1565b6168c6919a5060203d60201161140a576113fa818361212f565b983861668e565b6168e791985060203d60201161140a576113fa818361212f565b963861664c565b61690891965060203d60201161140a576113fa818361212f565b943861660a565b61692991935060203d60201161140a576113fa818361212f565b91386165c7565b616949915060203d60201161140a576113fa818361212f565b38616580565b616968915060203d60201161140a576113fa818361212f565b38616541565b61698891955060203d60201161140a576113fa818361212f565b9338616502565b6169a991945060203d60201161140a576113fa818361212f565b92386164c2565b6169ca91935060203d60201161140a576113fa818361212f565b9138616482565b6169eb91925060203d60201161140a576113fa818361212f565b9038616442565b616a0c91935060203d60201161140a576113fa818361212f565b9138616402565b616a2d91925060203d60201161140a576113fa818361212f565b90386163c2565b90816020910312610432575161222d816108db565b616aa46001600160a01b0360025416604051616a64816120db565b600881527f6973536166652829000000000000000000000000000000000000000000000000602082015260405191616a9b836120f7565b60008352616cb2565b9080616ac3575b1561065f578060208061222d93518301019101616a34565b506020815114616aab565b616b316001600160a01b038060025416604051916020941684830152838252616af6826120db565b60405190616b03826120db565b601582527f697353656375726542617365286164647265737329000000000000000000000085830152616cb2565b9080616b4e575b1561065f578161222d9282518301019101616a34565b5081815114616b38565b61222d6001600160a01b0360035416604051616b73816120db565b600681527f6941676528290000000000000000000000000000000000000000000000000000602082015260405191611126836120f7565b6001600160a01b0380911690811561081b57600154826001600160a01b0319821617600155167f8292fce18fa69edf4db7b94ea2e58241df0ae57f97e0a6c9b29067028bf92d76600080a3565b3d15616c22573d90616c08826121af565b91616c16604051938461212f565b82523d6000602084013e565b606090565b908015616c83576001600160a01b03821691821561081b57600080808481945af1616c50616bf7565b501561065f5760207fcec1f18c3ab8ddaaa107a1591e3c369667eec613626611a8deaedef43069fcdd91604051908152a2565b5050565b90616c929291616cb2565b9060009015616c9f575090565b6040519150616cad826120f7565b815290565b9190823b15616d47577fffffffff00000000000000000000000000000000000000000000000000000000815160208093012016916040519180830193845281519160005b838110616d33575050509181616d236024826000979596889701878382015203600481018452018261212f565b51915afa616d2f616bf7565b9091565b818101830151858201602401528201616cf6565b505050600090604051616d59816120f7565b6000815290565b9291616d6e91600094616cb2565b9080616d9e575b616d7c5750565b6001600160a01b0391925080602080616d9a93518301019101612692565b1690565b506020815114616d75565b9291616db791600094616cb2565b9080616dda575b616dc55750565b61222d91925060208082518301019101616a34565b506020815114616dbe565b9291616df391600094616cb2565b9080616e16575b616e015750565b61222d91925060208082518301019101612cd2565b506020815114616dfa565b9291616e2f91600094616cb2565b9080616e54575b616e3d5750565b909150602081805181010312610432576020015190565b506020815114616e36565b90602082519201517fffffffff00000000000000000000000000000000000000000000000000000000908181169360048110616e9a57505050565b60040360031b82901b16169150565b6001600160a01b0381161561081b57600080918351908260208601915af190616ed0616bf7565b9115616eda575090565b805160009190600411616f5657616ef19150616e5f565b815115616f015750805190602001fd5b6040517f21c09d340000000000000000000000000000000000000000000000000000000081527fffffffff00000000000000000000000000000000000000000000000000000000919091166004820152602490fd5b50616ef1565b803b6000616f69826121af565b92616f77604051948561212f565b82845260208401903c602d815110616f9357602a015160601c90565b60046040517fbaf3f0f7000000000000000000000000000000000000000000000000000000008152fdfe8bd115fc6ec81ad72d5ca8a8b3bd3d0177f1b615af6ad35644a4e24a7bed08bca2646970667358221220e36827174f6a919fda26ff7e1ca26837a37b0d96f64b51265c0e2db8530edbb064736f6c63430008140033","linkReferences":{}},"methodIdentifiers":{"instanceStor()":"131c73ad"},"id":81}