{"abi":[{"type":"constructor","inputs":[{"name":"_main","type":"address","internalType":"address"},{"name":"_rules","type":"address","internalType":"address"}],"stateMutability":"nonpayable"},{"type":"function","name":"claimQueue","inputs":[{"name":"","type":"uint256","internalType":"uint256"},{"name":"","type":"uint256","internalType":"uint256"}],"outputs":[{"name":"user","type":"address","internalType":"address"},{"name":"amount","type":"uint256","internalType":"uint256"},{"name":"processed","type":"bool","internalType":"bool"}],"stateMutability":"view"},{"type":"function","name":"claimedPerDay","inputs":[{"name":"","type":"uint256","internalType":"uint256"}],"outputs":[{"name":"","type":"uint256","internalType":"uint256"}],"stateMutability":"view"},{"type":"function","name":"getQueue","inputs":[{"name":"day","type":"uint256","internalType":"uint256"}],"outputs":[{"name":"","type":"tuple[]","internalType":"struct ClaimQueue.ClaimRequest[]","components":[{"name":"user","type":"address","internalType":"address"},{"name":"amount","type":"uint256","internalType":"uint256"},{"name":"processed","type":"bool","internalType":"bool"}]}],"stateMutability":"view"},{"type":"function","name":"main","inputs":[],"outputs":[{"name":"","type":"address","internalType":"contract IMain"}],"stateMutability":"view"},{"type":"function","name":"pendingClaims","inputs":[{"name":"","type":"address","internalType":"address"}],"outputs":[{"name":"","type":"uint256","internalType":"uint256"}],"stateMutability":"view"},{"type":"function","name":"processQueue","inputs":[{"name":"day","type":"uint256","internalType":"uint256"}],"outputs":[],"stateMutability":"nonpayable"},{"type":"function","name":"requestClaim","inputs":[{"name":"amount","type":"uint256","internalType":"uint256"}],"outputs":[],"stateMutability":"nonpayable"},{"type":"function","name":"rules","inputs":[],"outputs":[{"name":"","type":"address","internalType":"contract IRULES"}],"stateMutability":"view"},{"type":"event","name":"ClaimProcessed","inputs":[{"name":"user","type":"address","indexed":true,"internalType":"address"},{"name":"amount","type":"uint256","indexed":false,"internalType":"uint256"},{"name":"day","type":"uint256","indexed":false,"internalType":"uint256"}],"anonymous":false},{"type":"event","name":"ClaimQueued","inputs":[{"name":"user","type":"address","indexed":true,"internalType":"address"},{"name":"amount","type":"uint256","indexed":false,"internalType":"uint256"},{"name":"day","type":"uint256","indexed":false,"internalType":"uint256"}],"anonymous":false}],"bytecode":{"object":"0x60806040523462000038576200001f6200001862000122565b9062000236565b620000296200003e565b61132462000266823961132490f35b62000044565b60405190565b5f80fd5b601f801991011690565b634e487b7160e01b5f52604160045260245ffd5b90620000729062000048565b810190811060018060401b038211176200008b57604052565b62000052565b90620000a8620000a06200003e565b928362000066565b565b5f80fd5b60018060a01b031690565b620000c490620000ae565b90565b620000d281620000b9565b03620000da57565b5f80fd5b90505190620000ed82620000c7565b565b91906040838203126200011c57806200010f62000119925f8601620000de565b93602001620000de565b90565b620000aa565b620001456200158a80380380620001398162000091565b928339810190620000ef565b9091565b90565b620001656200015f6200016b92620000ae565b62000149565b620000ae565b90565b62000179906200014c565b90565b62000187906200016e565b90565b5f1b90565b90620001a260018060a01b03916200018a565b9181191691161790565b620001b7906200016e565b90565b90565b90620001d7620001d1620001df92620001ac565b620001ba565b82546200018f565b9055565b620001ee906200014c565b90565b620001fc90620001e3565b90565b6200020a90620001e3565b90565b90565b906200022a620002246200023292620001ff565b6200020d565b82546200018f565b9055565b6200026391620002556200024e6200025b936200017c565b5f620001bd565b620001f1565b600162000210565b56fe60806040526004361015610013575b610778565b61001d5f3561009c565b80630be8fffc14610097578063270c83ca1461009257806352f6747a1461008d5780638279d47a14610088578063ca78533d14610083578063dc9007651461007e578063dffeadd0146100795763e00b288a0361000e57610745565b610710565b610671565b610637565b610586565b6104e7565b610405565b6101ff565b60e01c90565b60405190565b5f80fd5b5f80fd5b90565b6100bc816100b0565b036100c357565b5f80fd5b905035906100d4826100b3565b565b906020828203126100ef576100ec915f016100c7565b90565b6100ac565b5190565b60209181520190565b60200190565b60018060a01b031690565b61011b90610107565b90565b61012790610112565b9052565b610134906100b0565b9052565b151590565b61014690610138565b9052565b9060408061017e936101625f8201515f86019061011e565b6101746020820151602086019061012b565b015191019061013d565b565b9061018d8160609361014a565b0190565b60200190565b906101b46101ae6101a7846100f4565b80936100f8565b92610101565b905f5b8181106101c45750505090565b9091926101dd6101d76001928651610180565b94610191565b91019190916101b7565b6101fc9160208201915f818403910152610197565b90565b3461022f5761022b61021a6102153660046100d6565b610900565b6102226100a2565b918291826101e7565b0390f35b6100a8565b919060408382031261025c5780610250610259925f86016100c7565b936020016100c7565b90565b6100ac565b90565b61027861027361027d926100b0565b610261565b6100b0565b90565b9061028a90610264565b5f5260205260405f2090565b634e487b7160e01b5f52603260045260245ffd5b5490565b5f5260205f2090565b6102c0816102aa565b8210156102da576102d26003916102ae565b910201905f90565b610296565b5f1c90565b60018060a01b031690565b6102fb610300916102df565b6102e4565b90565b61030d90546102ef565b90565b90565b61031f610324916102df565b610310565b90565b6103319054610313565b90565b60ff1690565b61034661034b916102df565b610334565b90565b610358905461033a565b90565b610366906003610280565b90610370826102aa565b8110156103a857610380916102b7565b5061038c5f8201610303565b916103a5600261039e60018501610327565b930161034e565b90565b5f80fd5b6103b590610112565b9052565b6103c2906100b0565b9052565b6103cf90610138565b9052565b6040906103fc61040394969593966103f260608401985f8501906103ac565b60208301906103b9565b01906103c6565b565b346104395761043561042161041b366004610234565b9061035b565b61042c9391936100a2565b938493846103d3565b0390f35b6100a8565b5f91031261044857565b6100ac565b1c90565b60018060a01b031690565b61046c906008610471930261044d565b610451565b90565b9061047f915461045c565b90565b61048e60015f90610474565b90565b6104a56104a06104aa92610107565b610261565b610107565b90565b6104b690610491565b90565b6104c2906104ad565b90565b6104ce906104b9565b9052565b91906104e5905f602085019401906104c5565b565b34610517576104f736600461043e565b610513610502610482565b61050a6100a2565b918291826104d2565b0390f35b6100a8565b9061052690610264565b5f5260205260405f2090565b610542906008610547930261044d565b610310565b90565b906105559154610532565b90565b61056e906105696002915f9261051c565b61054a565b90565b9190610584905f602085019401906103b9565b565b346105b6576105b26105a161059c3660046100d6565b610558565b6105a96100a2565b91829182610571565b0390f35b6100a8565b6105c481610112565b036105cb57565b5f80fd5b905035906105dc826105bb565b565b906020828203126105f7576105f4915f016105cf565b90565b6100ac565b610605906104ad565b90565b90610612906105fc565b5f5260205260405f2090565b6106349061062f6004915f92610608565b61054a565b90565b346106675761066361065261064d3660046105de565b61061e565b61065a6100a2565b91829182610571565b0390f35b6100a8565b5f0190565b3461069f576106896106843660046100d6565b610bd2565b6106916100a2565b8061069b8161066c565b0390f35b6100a8565b60018060a01b031690565b6106bf9060086106c4930261044d565b6106a4565b90565b906106d291546106af565b90565b6106df5f806106c7565b90565b6106eb906104ad565b90565b6106f7906106e2565b9052565b919061070e905f602085019401906106ee565b565b346107405761072036600461043e565b61073c61072b6106d5565b6107336100a2565b918291826106fb565b0390f35b6100a8565b346107735761075d6107583660046100d6565b610ff2565b6107656100a2565b8061076f8161066c565b0390f35b6100a8565b5f80fd5b606090565b601f801991011690565b634e487b7160e01b5f52604160045260245ffd5b906107a990610781565b810190811067ffffffffffffffff8211176107c357604052565b61078b565b906107db6107d46100a2565b928361079f565b565b67ffffffffffffffff81116107f55760208091020190565b61078b565b9061080c610807836107dd565b6107c8565b918252565b9061081b90610112565b9052565b90610829906100b0565b9052565b9061083790610138565b9052565b61084560606107c8565b90565b9061089761088e600261085961083b565b946108706108685f8301610303565b5f8801610811565b61088861087f60018301610327565b6020880161081f565b0161034e565b6040840161082d565b565b6108a290610848565b90565b906108af826102aa565b6108b8816107fa565b926108c660208501916102ae565b5f915b8383106108d65750505050565b600360206001926108e685610899565b8152019201920191906108c9565b6108fd906108a5565b90565b61091761091c9161090f61077c565b506003610280565b6108f4565b90565b60209181520190565b5f7f43616e206f6e6c792070726f6365737320706173742064617973000000000000910152565b61095c601a60209261091f565b61096581610928565b0190565b61097e9060208101905f81830391015261094f565b90565b1561098857565b6109906100a2565b62461bcd60e51b8152806109a660048201610969565b0390fd5b90565b6109b96109be916102df565b610451565b90565b6109cb90546109ad565b90565b5f80fd5b60e01b90565b905051906109e5826100b3565b565b90602082820312610a00576109fd915f016109d8565b90565b6100ac565b610a0d6100a2565b3d5f823e3d90fd5b90565b610a2c610a27610a3192610a15565b610261565b6100b0565b90565b6001610a4091016100b0565b90565b5490565b5f5260205f2090565b610a5981610a43565b821015610a7357610a6b600391610a47565b910201905f90565b610296565b90565b634e487b7160e01b5f52601160045260245ffd5b610a9e610aa4919392936100b0565b926100b0565b8201809211610aaf57565b610a7b565b5f1b90565b90610ac560ff91610ab4565b9181191691161790565b610ad890610138565b90565b90565b90610af3610aee610afa92610acf565b610adb565b8254610ab9565b9055565b90610b0a5f1991610ab4565b9181191691161790565b90565b90610b2c610b27610b3392610264565b610b14565b8254610afe565b9055565b610b46610b4c919392936100b0565b926100b0565b8203918211610b5757565b610a7b565b610b68610b6d916102df565b6106a4565b90565b610b7a9054610b5c565b90565b5f910312610b8757565b6100ac565b916020610bad929493610ba660408201965f8301906103ac565b01906103b9565b565b916020610bd0929493610bc960408201965f8301906103b9565b01906103b9565b565b610c03610c0891610bfc81610bf6610bf0610beb6112cc565b6100b0565b916100b0565b10610981565b6003610280565b6109aa565b90610c366020610c20610c1b60016109c1565b6104b9565b63db2d8b2690610c2e6100a2565b9384926109d2565b82528180610c466004820161066c565b03915afa908115610ed1575f91610ea3575b5091610c626112cc565b90610c6c5f610a18565b5b80610c88610c82610c7d85610a43565b6100b0565b916100b0565b1015610e9c57610ca2610c9c838390610a50565b50610a78565b90610cb8610cb26002840161034e565b15610138565b80610e59575b610cd2575b610ccd9150610a34565b610c6d565b610ce0600160028401610ade565b610d13610cef60018401610327565b610d0d610cfe6002889061051c565b91610d0883610327565b610a8f565b90610b17565b610d50610d2260018401610327565b610d4a610d3b6004610d355f8801610303565b90610608565b91610d4583610327565b610b37565b90610b17565b610d61610d5c5f610b70565b6106e2565b91637e71d99f610d725f8301610303565b610d7e60018401610327565b94803b15610e5457610da35f8094610dae610d976100a2565b998a96879586946109d2565b845260048401610b8c565b03925af1928315610e4f57610ccd93610e23575b50610dda6001610dd35f8401610303565b9201610327565b9085610e067f127926f9f9c57357941976fd23caadfc51770270b445a56dc7a26841f633048f926105fc565b92610e1b610e126100a2565b92839283610baf565b0390a2610cc3565b610e42905f3d8111610e48575b610e3a818361079f565b810190610b7d565b5f610dc2565b503d610e30565b610a05565b6109ce565b50610e83610e71610e6c6002879061051c565b610327565b610e7d60018501610327565b90610a8f565b610e95610e8f886100b0565b916100b0565b1115610cbe565b5050509050565b610ec4915060203d8111610eca575b610ebc818361079f565b8101906109e7565b5f610c58565b503d610eb2565b610a05565b610ee060606107c8565b90565b634e487b7160e01b5f525f60045260245ffd5b610f009051610112565b90565b90610f1460018060a01b0391610ab4565b9181191691161790565b90565b90610f36610f31610f3d926105fc565b610f1e565b8254610f03565b9055565b610f4b90516100b0565b90565b610f589051610138565b90565b90610f9f60406002610fa594610f7e5f8201610f785f8801610ef6565b90610f21565b610f9760018201610f9160208801610f41565b90610b17565b019201610f4e565b90610ade565b565b9190610fb857610fb691610f5b565b565b610ee3565b9081549168010000000000000000831015610fed5782610fe5916001610feb95018155610a50565b90610fa7565b565b61078b565b610ffa6112cc565b90611028602061101261100d60016109c1565b6104b9565b63db2d8b26906110206100a2565b9384926109d2565b825281806110386004820161066c565b03915afa90811561126e575f91611240575b5061107b61107561106f6110686110636002889061051c565b610327565b8590610a8f565b926100b0565b916100b0565b11155f14611181576110ab816110a56110966002869061051c565b916110a083610327565b610a8f565b90610b17565b6110bc6110b75f610b70565b6106e2565b637e71d99f338392803b1561117c576110e85f80946110f36110dc6100a2565b978896879586946109d2565b845260048401610b8c565b03925af180156111775761114b575b503390916111307f127926f9f9c57357941976fd23caadfc51770270b445a56dc7a26841f633048f926105fc565b9261114561113c6100a2565b92839283610baf565b0390a25b565b61116a905f3d8111611170575b611162818361079f565b810190610b7d565b5f611102565b503d611158565b610a05565b6109ce565b6111ce61119861119360038590610280565b6109aa565b33906111c9846111c05f916111b76111ae610ed6565b965f8801610811565b6020860161081f565b6040840161082d565b610fbd565b6111f6816111f06111e160043390610608565b916111eb83610327565b610a8f565b90610b17565b3390916112237f0c3f2eb284cc33c20d6832723b035b6fe541e279a617200f125e1bfabaffd173926105fc565b9261123861122f6100a2565b92839283610baf565b0390a2611149565b611261915060203d8111611267575b611259818361079f565b8101906109e7565b5f61104a565b503d61124f565b610a05565b5f90565b90565b61128e61128961129392611277565b610261565b6100b0565b90565b634e487b7160e01b5f52601260045260245ffd5b6112b66112bc916100b0565b916100b0565b9081156112c7570490565b611296565b6112d4611273565b506112eb426112e56201518061127a565b906112aa565b9056fea2646970667358221220dfe21ebc3df6dd0edc77d9fd968625b02ac4950d82600749fda2889bc5385c6b64736f6c63430008180033","linkReferences":{}},"methodIdentifiers":{"claimQueue(uint256,uint256)":"270c83ca","claimedPerDay(uint256)":"8279d47a","getQueue(uint256)":"0be8fffc","main()":"dffeadd0","pendingClaims(address)":"ca78533d","processQueue(uint256)":"dc900765","requestClaim(uint256)":"e00b288a","rules()":"52f6747a"},"id":42}