{"abi":[{"type":"constructor","inputs":[{"name":"s1","type":"address","internalType":"address"},{"name":"s2","type":"address","internalType":"address"},{"name":"s3","type":"address","internalType":"address"}],"stateMutability":"nonpayable"},{"type":"function","name":"gethexbAdd","inputs":[],"outputs":[{"name":"","type":"address","internalType":"address"}],"stateMutability":"view"}],"bytecode":{"object":"0x60806040523462000038576200001f6200001862000131565b916200031c565b620000296200003e565b61018062000cb1823961018090f35b62000044565b60405190565b5f80fd5b601f801991011690565b634e487b7160e01b5f52604160045260245ffd5b90620000729062000048565b810190811060018060401b038211176200008b57604052565b62000052565b90620000a8620000a06200003e565b928362000066565b565b5f80fd5b60018060a01b031690565b620000c490620000ae565b90565b620000d281620000b9565b03620000da57565b5f80fd5b90505190620000ed82620000c7565b565b90916060828403126200012b57620001286200010e845f8501620000de565b936200011e8160208601620000de565b93604001620000de565b90565b620000aa565b620001546201d16280380380620001488162000091565b928339810190620000ef565b909192565b5f0190565b620001686200003e565b3d5f823e3d90fd5b5f1b90565b906200018860018060a01b039162000170565b9181191691161790565b90565b620001ae620001a8620001b492620000ae565b62000192565b620000ae565b90565b620001c29062000195565b90565b620001d090620001b7565b90565b90565b90620001f0620001ea620001f892620001c5565b620001d3565b825462000175565b9055565b5f1c90565b60018060a01b031690565b6200021b6200022191620001fc565b62000201565b90565b6200023090546200020c565b90565b6200023e9062000195565b90565b6200024c9062000233565b90565b6200025a9062000233565b90565b5f80fd5b60e01b90565b5f9103126200027257565b620000aa565b6200028390620000b9565b9052565b91906200029c905f6020850194019062000278565b565b604090620002cc620002d49496959396620002c160608401985f85019062000278565b602083019062000278565b019062000278565b565b620002e19062000233565b90565b620002ef9062000233565b90565b620002fd9062000233565b90565b6200030b9062000233565b90565b620003199062000233565b90565b9190620003286200003e565b611c5c810181811060018060401b0382111762000caa57620003548291611c5c6200e638843962000159565b03905ff0801562000ca4576200036b905f620001d6565b620003756200003e565b6158a4810181811060018060401b0382111762000c9e57620003a182916158a462008d94843962000159565b03905ff0801562000c985792620003c2620003bc5f62000224565b62000241565b63d05a5651620003d2866200024f565b823b1562000c92576200040992620003fd5f8094620003f06200003e565b9687958694859362000261565b83526004830162000287565b03925af1801562000c8c5762000c59575b5090620004266200003e565b92611c8a84019184831060018060401b0384111762000c535784936200045593611c8a6201029487396200029e565b03905ff0801562000c4d57620004756200046f5f62000224565b62000241565b9062000486631162a5b191620002d6565b823b1562000c4757620004bd92620004b15f8094620004a46200003e565b9687958694859362000261565b83526004830162000287565b03925af1801562000c415762000c0e575b50620004d96200003e565b614587810181811060018060401b0382111762000c08576200050582916145876200480d843962000159565b03905ff0801562000c0257620005256200051f5f62000224565b62000241565b9063bcb6c0b56200053682620002e4565b833b1562000bfc576200056d93620005615f8094620005546200003e565b9788958694859362000261565b83526004830162000287565b03925af191821562000bf6576200058b9262000bc3575b50620002e4565b6360af454d620005a56200059f5f62000224565b62000241565b823b1562000bbd57620005dc92620005d05f8094620005c36200003e565b9687958694859362000261565b83526004830162000287565b03925af1801562000bb75762000b84575b50620005f86200003e565b612492810181811060018060401b0382111762000b7e5762000624829161249262011f1e843962000159565b03905ff0801562000b7857620006446200063e5f62000224565b62000241565b906396e85ced6200065582620002f2565b833b1562000b72576200068c93620006805f8094620006736200003e565b9788958694859362000261565b83526004830162000287565b03925af191821562000b6c57620006aa9262000b39575b50620002f2565b6360af454d620006c4620006be5f62000224565b62000241565b823b1562000b3357620006fb92620006ef5f8094620006e26200003e565b9687958694859362000261565b83526004830162000287565b03925af1801562000b2d5762000afa575b50620007176200003e565b618db2810181811060018060401b0382111762000af457620007438291618db2620143b0843962000159565b03905ff0801562000aee57620007636200075d5f62000224565b62000241565b9063753e7d33620007748262000300565b833b1562000ae857620007ab936200079f5f8094620007926200003e565b9788958694859362000261565b83526004830162000287565b03925af191821562000ae257620007c99262000aaf575b5062000300565b906360af454d620007e4620007de5f62000224565b62000241565b833b1562000aa9576200081b936200080f5f8094620008026200003e565b9788958694859362000261565b83526004830162000287565b03925af191821562000aa357620008399262000a70575b506200024f565b6360af454d620008536200084d5f62000224565b62000241565b823b1562000a6a576200088a926200087e5f8094620008716200003e565b9687958694859362000261565b83526004830162000287565b03925af1801562000a645762000a31575b50620008a66200003e565b6139dc810181811060018060401b0382111762000a2b57620008d282916139dc62000e31843962000159565b03905ff0801562000a2557620008e8816200030e565b906360af454d62000903620008fd5f62000224565b62000241565b833b1562000a1f576200093a936200092e5f8094620009216200003e565b9788958694859362000261565b83526004830162000287565b03925af191821562000a19576200095892620009e6575b506200030e565b63f4e52ae890803b15620009e05762000980915f91620009776200003e565b93849262000261565b8252818381620009936004820162000159565b03925af18015620009da57620009a7575b50565b620009cb905f3d8111620009d2575b620009c2818362000066565b81019062000267565b5f620009a4565b503d620009b6565b6200015e565b6200025d565b62000a0a905f3d811162000a11575b62000a01818362000066565b81019062000267565b5f62000951565b503d620009f5565b6200015e565b6200025d565b6200015e565b62000052565b62000a55905f3d811162000a5c575b62000a4c818362000066565b81019062000267565b5f6200089b565b503d62000a40565b6200015e565b6200025d565b62000a94905f3d811162000a9b575b62000a8b818362000066565b81019062000267565b5f62000832565b503d62000a7f565b6200015e565b6200025d565b62000ad3905f3d811162000ada575b62000aca818362000066565b81019062000267565b5f620007c2565b503d62000abe565b6200015e565b6200025d565b6200015e565b62000052565b62000b1e905f3d811162000b25575b62000b15818362000066565b81019062000267565b5f6200070c565b503d62000b09565b6200015e565b6200025d565b62000b5d905f3d811162000b64575b62000b54818362000066565b81019062000267565b5f620006a3565b503d62000b48565b6200015e565b6200025d565b6200015e565b62000052565b62000ba8905f3d811162000baf575b62000b9f818362000066565b81019062000267565b5f620005ed565b503d62000b93565b6200015e565b6200025d565b62000be7905f3d811162000bee575b62000bde818362000066565b81019062000267565b5f62000584565b503d62000bd2565b6200015e565b6200025d565b6200015e565b62000052565b62000c32905f3d811162000c39575b62000c29818362000066565b81019062000267565b5f620004ce565b503d62000c1d565b6200015e565b6200025d565b6200015e565b62000052565b62000c7d905f3d811162000c84575b62000c74818362000066565b81019062000267565b5f6200041a565b503d62000c68565b6200015e565b6200025d565b6200015e565b62000052565b6200015e565b6200005256fe60806040526004361015610013575b6100bd565b61001d5f3561002c565b6321dc78510361000e57610088565b60e01c90565b60405190565b5f80fd5b5f80fd5b5f91031261004a57565b61003c565b60018060a01b031690565b6100639061004f565b90565b61006f9061005a565b9052565b9190610086905f60208501940190610066565b565b346100b857610098366004610040565b6100b46100a361012d565b6100ab610032565b91829182610073565b0390f35b610038565b5f80fd5b5f90565b5f1c90565b60018060a01b031690565b6100e16100e6916100c5565b6100ca565b90565b6100f390546100d5565b90565b90565b61010d6101086101129261004f565b6100f6565b61004f565b90565b61011e906100f9565b90565b61012a90610115565b90565b6101356100c1565b506101476101425f6100e9565b610121565b9056fea26469706673582212207bcb30974474837e2dbddb237fcfd47281cd2a2e7e01643bbe4e352d4da5318564736f6c634300081800336080604052346200002d5762000014620000ae565b6200001e62000033565b613911620000cb823961391190f35b62000039565b60405190565b5f80fd5b5f1b90565b90620000505f19916200003d565b9181191691161790565b90565b90565b90565b6200007c6200007662000082926200005a565b62000060565b6200005d565b90565b90565b90620000a26200009c620000aa9262000063565b62000085565b825462000042565b9055565b620000bb5f601262000088565b620000c85f601362000088565b56fe60806040526004361015610018575b361561001657005b005b6100225f35610161565b80630be8fffc1461015c5780630d43aaf21461015757806312065fe014610152578063166b6d361461014d578063265a652214610148578063379a423c1461014357806341ffe7c41461013e578063490b16f21461013957806360af454d146101345780638da5cb5b1461012f57806390d7f7891461012a578063abb8c96514610125578063b90306ad14610120578063c44db3cb1461011b578063ceddc02114610116578063dc90076514610111578063eab23ccc1461010c578063f1d2443314610107578063f3fef3a3146101025763f4e52ae80361000e57610a91565b610a67565b610a05565b6109c1565b61098e565b61095b565b610926565b6108ee565b6108ba565b610832565b61072e565b6106e6565b6106b0565b61061f565b6105e5565b61059b565b6104e8565b610440565b6103e5565b610228565b60e01c90565b60405190565b5f80fd5b5f80fd5b90565b61018181610175565b0361018857565b5f80fd5b9050359061019982610178565b565b906020828203126101b4576101b1915f0161018c565b90565b610171565b60018060a01b031690565b6101cd906101b9565b90565b6101d9906101c4565b9052565b151590565b6101eb906101dd565b9052565b90602080610211936102075f8201515f8601906101d0565b01519101906101e2565b565b9190610226905f604085019401906101ef565b565b346102585761025461024361023e36600461019b565b610bc6565b61024b610167565b91829182610213565b0390f35b61016d565b5f91031261026757565b610171565b5f1c90565b60018060a01b031690565b61028861028d9161026c565b610271565b90565b61029a905461027c565b90565b60a01c90565b60ff1690565b6102b56102ba9161029d565b6102a3565b90565b6102c790546102a9565b90565b60a81c90565b6102dc6102e1916102ca565b6102a3565b90565b6102ee90546102d0565b90565b60b01c90565b610303610308916102f1565b6102a3565b90565b61031590546102f7565b90565b60b81c90565b61032a61032f91610318565b6102a3565b90565b61033c905461031e565b90565b600d61034c5f8201610290565b916103585f83016102bd565b916103645f82016102e4565b9161037b5f61037481850161030b565b9301610332565b90565b610387906101c4565b9052565b610394906101dd565b9052565b909594926103e3946103d26103dc926103c86080966103be60a088019c5f89019061037e565b602087019061038b565b604085019061038b565b606083019061038b565b019061038b565b565b34610419576103f536600461025d565b61041561040061033f565b9161040c959395610167565b95869586610398565b0390f35b61016d565b61042790610175565b9052565b919061043e905f6020850194019061041e565b565b346104705761045036600461025d565b61046c61045b610bf5565b610463610167565b9182918261042b565b0390f35b61016d565b61047e816101c4565b0361048557565b5f80fd5b9050359061049682610475565b565b906020828203126104b1576104ae915f01610489565b90565b610171565b6040906104df6104e694969593966104d560608401985f85019061038b565b602083019061041e565b019061041e565b565b3461051b576105176105036104fe366004610498565b610e7d565b61050e939193610167565b938493846104b6565b0390f35b61016d565b90565b61053761053261053c92610175565b610520565b610175565b90565b9061054990610523565b5f5260205260405f2090565b1c90565b90565b61056c9060086105719302610555565b610559565b90565b9061057f915461055c565b90565b610598906105936014915f9261053f565b610574565b90565b346105cb576105c76105b66105b136600461019b565b610582565b6105be610167565b9182918261042b565b0390f35b61016d565b91906105e3905f6020850194019061038b565b565b34610615576106116106006105fb366004610498565b6112be565b610608610167565b918291826105d0565b0390f35b61016d565b5f0190565b3461064d57610637610632366004610498565b6119e0565b61063f610167565b806106498161061a565b0390f35b61016d565b9061065c90610523565b5f5260205260405f2090565b610673906016610652565b9061068a5f610683818501610290565b93016102bd565b90565b9160206106ae9294936106a760408201965f83019061037e565b019061038b565b565b346106e1576106c86106c336600461019b565b610668565b906106dd6106d4610167565b9283928361068d565b0390f35b61016d565b34610714576106fe6106f9366004610498565b611acc565b610706610167565b806107108161061a565b0390f35b61016d565b919061072c905f6020850194019061037e565b565b3461075e5761073e36600461025d565b61075a610749611b33565b610751610167565b91829182610719565b0390f35b61016d565b61077761077261077c926101b9565b610520565b6101b9565b90565b61078890610763565b90565b6107949061077f565b90565b906107a19061078b565b5f5260205260405f2090565b6107b96107be9161026c565b610559565b90565b6107cb90546107ad565b90565b6107d9906015610797565b6107e45f82016107c1565b916107fd60026107f6600185016107c1565b93016107c1565b90565b604090610829610830949695939661081f60608401985f85019061041e565b602083019061041e565b019061041e565b565b346108655761086161084d610848366004610498565b6107ce565b610858939193610167565b93849384610800565b0390f35b61016d565b610873816101dd565b0361087a57565b5f80fd5b9050359061088b8261086a565b565b91906040838203126108b557806108a96108b2925f8601610489565b9360200161087e565b90565b610171565b346108e9576108d36108cd36600461088d565b90611fb0565b6108db610167565b806108e58161061a565b0390f35b61016d565b6109016108fc36600461019b565b61214b565b610909610167565b806109138161061a565b0390f35b61092360135f90610574565b90565b346109565761093636600461025d565b610952610941610917565b610949610167565b9182918261042b565b0390f35b61016d565b346109895761096b36600461025d565b61097361225c565b61097b610167565b806109858161061a565b0390f35b61016d565b346109bc576109a66109a136600461019b565b61255f565b6109ae610167565b806109b88161061a565b0390f35b61016d565b346109f1576109d136600461025d565b6109ed6109dc612a36565b6109e4610167565b918291826105d0565b0390f35b61016d565b610a0260125f90610574565b90565b34610a3557610a1536600461025d565b610a31610a206109f6565b610a28610167565b9182918261042b565b0390f35b61016d565b9190604083820312610a625780610a56610a5f925f8601610489565b9360200161018c565b90565b610171565b610a7b610a75366004610a3a565b90612cc4565b610a83610167565b80610a8d8161061a565b0390f35b34610abf57610aa136600461025d565b610aa9612d08565b610ab1610167565b80610abb8161061a565b0390f35b61016d565b601f801991011690565b634e487b7160e01b5f52604160045260245ffd5b90610aec90610ac4565b810190811067ffffffffffffffff821117610b0657604052565b610ace565b90610b1e610b17610167565b9283610ae2565b565b610b2a6040610b0b565b90565b5f90565b5f90565b610b3d610b20565b9060208083610b4a610b2d565b815201610b55610b31565b81525050565b610b63610b35565b90565b90610b70906101c4565b9052565b90610b7e906101dd565b9052565b90610bb8610baf5f610b92610b20565b94610ba9610ba1838301610290565b838801610b66565b016102bd565b60208401610b74565b565b610bc390610b82565b90565b610bdd610be291610bd5610b5b565b506016610652565b610bba565b90565b5f90565b610bf29061077f565b90565b610bfd610be5565b50610c0730610be9565b3190565b5f90565b90565b610c26610c21610c2b92610c0f565b610520565b610175565b90565b90565b610c45610c40610c4a92610c2e565b610520565b610175565b90565b60018060a01b031690565b610c64610c699161026c565b610c4d565b90565b610c769054610c58565b90565b610c829061077f565b90565b60e01b90565b90505190610c9882610475565b565b90602082820312610cb357610cb0915f01610c8b565b90565b610171565b610cc0610167565b3d5f823e3d90fd5b610cd190610763565b90565b610cdd90610cc8565b90565b610ce99061077f565b90565b610d00610cfb610d0592610c2e565b610520565b6101b9565b90565b610d1190610cec565b90565b60209181520190565b5f7f70726d646174612e696e76616c69642e6f6c646e657374656400000000000000910152565b610d516019602092610d14565b610d5a81610d1d565b0190565b610d739060208101905f818303910152610d44565b90565b90505190610d8382610178565b565b90602082820312610d9e57610d9b915f01610d76565b90565b610171565b610dac90610763565b90565b610db890610da3565b90565b610dc49061077f565b90565b90505190610dd48261086a565b565b9190604083820312610dfe5780610df2610dfb925f8601610d76565b93602001610dc7565b90565b610171565b90565b610e1a610e15610e1f92610e03565b610520565b610175565b90565b610e2b90610e06565b9052565b9190610e42905f60208501940190610e22565b565b634e487b7160e01b5f52601160045260245ffd5b610e67610e6d91939293610175565b92610175565b8203918211610e7857565b610e44565b90610e86610c0b565b50610e8f610be5565b50610e98610be5565b91610eb06002610eaa60153390610797565b016107c1565b610ec3610ebd6003610c12565b91610175565b1461124b57610ef46020610ede610ed95f610c6c565b610c79565b63447bf0e290610eec610167565b938492610c85565b82528180610f046004820161061a565b03915afa91821561124657610f2e610f29610f55946020945f91611219575b50610cd4565b610ce0565b610f4a6345145fd7610f3e610167565b95869485938493610c85565b835260048301610719565b03915afa908115611214575f916111e6575b509081610f84610f7e610f795f610d08565b6101c4565b916101c4565b146111c457610fb56020610f9f610f9a5f610c6c565b610c79565b63447bf0e290610fad610167565b938492610c85565b82528180610fc56004820161061a565b03915afa9081156111bf57610fef610fea611005936020935f91611192575b50610cd4565b610ce0565b63262a9dff90610ffd610167565b938492610c85565b825281806110156004820161061a565b03915afa801561118d57611069915f9161115f575b50604061103e61103986610daf565b610dbb565b635ed86d5c9061105e600192611052610167565b96879485938493610c85565b835260048301610e2f565b03915afa801561115a5761109c6110976110906020936110b2965f9161112d575b50612fb2565b5096610daf565b610dbb565b6366fb5f7a906110aa610167565b948592610c85565b825281806110c26004820161061a565b03915afa8015611128576110de925f916110fa575b5090610e58565b6110f06110ea84610175565b91610175565b1015919291929190565b61111b915060203d8111611121575b6111138183610ae2565b810190610d85565b5f6110d7565b503d611109565b610cb8565b61114e915060403d8111611153575b6111468183610ae2565b810190610dd6565b61108a565b503d61113c565b610cb8565b611180915060203d8111611186575b6111788183610ae2565b810190610d85565b5f61102a565b503d61116e565b610cb8565b6111b29150843d81116111b8575b6111aa8183610ae2565b810190610c9a565b5f610fe4565b503d6111a0565b610cb8565b6111cc610167565b62461bcd60e51b8152806111e260048201610d5e565b0390fd5b611207915060203d811161120d575b6111ff8183610ae2565b810190610c9a565b5f610f67565b503d6111f5565b610cb8565b6112399150853d811161123f575b6112318183610ae2565b810190610c9a565b5f610f23565b503d611227565b610cb8565b5090505f809161126561125f5f9394610c31565b92610c31565b90565b60018060a01b031690565b61127f6112849161026c565b611268565b90565b6112919054611273565b90565b61129d9061077f565b90565b906020828203126112b9576112b6915f01610dc7565b90565b610171565b6112c6610c0b565b5061130860206112de6112d96002611287565b611294565b6319c06429906112fd85926112f1610167565b95869485938493610c85565b835260048301610719565b03915afa90811561137a575f9161134c575b50908115611327575b5090565b905061134561133f611339600c610290565b926101c4565b916101c4565b145f611323565b61136d915060203d8111611373575b6113658183610ae2565b8101906112a0565b5f61131a565b503d61135b565b610cb8565b5f7f6f776e2e696e76616c69642e6973536166650000000000000000000000000000910152565b6113b36012602092610d14565b6113bc8161137f565b0190565b6113d59060208101905f8183039101526113a6565b90565b156113df57565b6113e7610167565b62461bcd60e51b8152806113fd600482016113c0565b0390fd5b60018060a01b031690565b61141861141d9161026c565b611401565b90565b61142a905461140c565b90565b6114369061077f565b90565b5f7f6f776d2e66616b652e2064656c65676174650000000000000000000000000000910152565b61146d6012602092610d14565b61147681611439565b0190565b61148f9060208101905f818303910152611460565b90565b1561149957565b6114a1610167565b62461bcd60e51b8152806114b76004820161147a565b0390fd5b6114e860206114d26114cd6002611287565b611294565b636a276f9d906114e0610167565b938492610c85565b825281806114f86004820161061a565b03915afa801561161a57611513915f916115ec575b506113d8565b6115256115206001611420565b61142d565b611537611531336101c4565b916101c4565b14908115611553575b61154c61155192611492565b6118a1565b565b6115969150602061156c6115676002611287565b611294565b637df73e279061158b339261157f610167565b96879485938493610c85565b835260048301610719565b03915afa9182156115e7576115519261154c915f916115b9575b50925050611540565b6115da915060203d81116115e0575b6115d28183610ae2565b8101906112a0565b5f6115b0565b503d6115c8565b610cb8565b61160d915060203d8111611613575b6116058183610ae2565b8101906112a0565b5f61150d565b503d6115fb565b610cb8565b61162960a0610b0b565b90565b61163461161f565b9060208080808086611644610b2d565b81520161164f610b31565b81520161165a610b31565b815201611665610b31565b815201611670610b31565b81525050565b61167e61162c565b90565b90565b61169861169361169d92611681565b610520565b610175565b90565b634e487b7160e01b5f525f60045260245ffd5b6116bd90516101c4565b90565b5f1b90565b906116d660018060a01b03916116c0565b9181191691161790565b90565b906116f86116f36116ff9261078b565b6116e0565b82546116c5565b9055565b61170d90516101dd565b90565b60a01b90565b9061172560ff60a01b91611710565b9181191691161790565b611738906101dd565b90565b90565b9061175361174e61175a9261172f565b61173b565b8254611716565b9055565b60a81b90565b9061177360ff60a81b9161175e565b9181191691161790565b9061179261178d6117999261172f565b61173b565b8254611764565b9055565b60b01b90565b906117b260ff60b01b9161179d565b9181191691161790565b906117d16117cc6117d89261172f565b61173b565b82546117a3565b9055565b60b81b90565b906117f160ff60b81b916117dc565b9181191691161790565b9061181061180b6118179261172f565b61173b565b82546117e2565b9055565b9061188d60805f6118939461183d8282016118378488016116b3565b906116e3565b61185582820161184f60208801611703565b9061173e565b61186d82820161186760408801611703565b9061177d565b61188582820161187f60608801611703565b906117bc565b019201611703565b906117fb565b565b9061189f9161181b565b565b6118e39060206118b96118b46002611287565b611294565b631d84be44906118d833926118cc610167565b96879485938493610c85565b835260048301610719565b03915afa9182156119db576119729261196b915f916119ad575b5091611907611676565b92611916600160208601610b74565b8061192a6119246001610e06565b91610175565b1461199a575b8061194461193e6002611684565b91610175565b14611987575b61195d6119576003610c12565b91610175565b14611974575b5f8301610b66565b600d611895565b565b611982600160808501610b74565b611963565b611995600160608601610b74565b61194a565b6119a8600160408601610b74565b611930565b6119ce915060203d81116119d4575b6119c68183610ae2565b810190610d85565b5f6118fd565b503d6119bc565b610cb8565b6119e9906114bb565b565b5f7f6f776e2e686578626173652e6661696c65640000000000000000000000000000910152565b611a1f6012602092610d14565b611a28816119eb565b0190565b611a419060208101905f818303910152611a12565b90565b15611a4b57565b611a53610167565b62461bcd60e51b815280611a6960048201611a2c565b0390fd5b611a7690610763565b90565b611a8290611a6d565b90565b611a8e90610763565b90565b611a9a90611a85565b90565b611aa690611a85565b90565b90565b90611ac1611abc611ac892611a9d565b611aa9565b82546116c5565b9055565b611b1f611b1a611b2592611b0a611aea611ae55f610c6c565b610c79565b611b04611afe611af95f610d08565b6101c4565b916101c4565b14611a44565b611b1532600c6116e3565b611a79565b611a91565b5f611aac565b611b2d6131e2565b565b5f90565b611b3b611b2f565b50611b46600c610290565b90565b90611b776020611b61611b5c6002611287565b611294565b636a276f9d90611b6f610167565b938492610c85565b82528180611b876004820161061a565b03915afa8015611ca957611ba2915f91611c7b575b506113d8565b611bb4611baf6001611420565b61142d565b611bc6611bc0336101c4565b916101c4565b14918215611be2575b611bdb611be093611492565b611cca565b565b611c2592506020611bfb611bf66002611287565b611294565b637df73e2790611c1a3392611c0e610167565b97889485938493610c85565b835260048301610719565b03915afa928315611c7657611be093611bdb915f91611c48575b50935050611bcf565b611c69915060203d8111611c6f575b611c618183610ae2565b8101906112a0565b5f611c3f565b503d611c57565b610cb8565b611c9c915060203d8111611ca2575b611c948183610ae2565b8101906112a0565b5f611b9c565b503d611c8a565b610cb8565b611cb790610175565b5f198114611cc55760010190565b610e44565b905f14611f9857611d126020611ce8611ce36002611287565b611294565b631d84be4490611d073392611cfb610167565b95869485938493610c85565b835260048301610719565b03915afa908115611f93575f91611f65575b50611d315f600d016102bd565b80611f4a575b80611f25575b611f12575b611d4e5f600d016102bd565b80611ef7575b80611ed2575b611ebf575b611d6b5f600d016102bd565b9081611ea3575b5080611e7e575b611e6b575b611d875f610c31565b611d935f600d016102e4565b611e5d575b611da45f600d0161030b565b611e4f575b611db55f600d01610332565b611e41575b611dc65f600d016102bd565b9081611e25575b5080611e00575b611ddd575b505b565b611de890600c6116e3565b611dfa611df3611676565b600d611895565b5f611dd9565b50611e0d5f600d01610290565b611e1f611e19836101c4565b916101c4565b14611dd4565b9050611e3a611e346002611684565b91610175565b145f611dcd565b611e4a90611cae565b611dba565b611e5890611cae565b611da9565b611e6690611cae565b611d98565b611e7960015f600d016117fb565b611d7e565b50611e8b5f600d01610290565b611e9d611e97836101c4565b916101c4565b14611d79565b9050611eb8611eb26003610c12565b91610175565b145f611d72565b611ecd60015f600d016117bc565b611d5f565b50611edf5f600d01610290565b611ef1611eeb846101c4565b916101c4565b14611d5a565b5080611f0c611f066002611684565b91610175565b14611d54565b611f2060015f600d0161177d565b611d42565b50611f325f600d01610290565b611f44611f3e846101c4565b916101c4565b14611d3d565b5080611f5f611f596001610e06565b91610175565b14611d37565b611f86915060203d8111611f8c575b611f7e8183610ae2565b810190610d85565b5f611d24565b503d611f74565b610cb8565b50611fab611fa4611676565b600d611895565b611ddb565b90611fba91611b49565b565b5f7f6f776e2e6e6f6e617574682e44414f0000000000000000000000000000000000910152565b611ff0600f602092610d14565b611ff981611fbc565b0190565b6120129060208101905f818303910152611fe3565b90565b1561201c57565b612024610167565b62461bcd60e51b81528061203a60048201611ffd565b0390fd5b61206c9060206120566120516002611287565b611294565b636a276f9d90612064610167565b948592610c85565b8252818061207c6004820161061a565b03915afa9182156120fe576120ce9261209c915f916120d0575b506113d8565b6120c96120b16120ac6001611420565b61142d565b6120c36120bd336101c4565b916101c4565b14612015565b61210f565b565b6120f1915060203d81116120f7575b6120e98183610ae2565b8101906112a0565b5f612096565b503d6120df565b610cb8565b61210c9061077f565b90565b5f8080809361212d61212861212384610d08565b611a79565b612103565b828215612142575bf11561213d57565b610cb8565b506108fc612135565b6121549061203e565b565b5f7f696e71756575652e6e6f74656c6967626c650000000000000000000000000000910152565b61218a6012602092610d14565b61219381612156565b0190565b6121ac9060208101905f81830391015261217d565b90565b156121b657565b6121be610167565b62461bcd60e51b8152806121d460048201612197565b0390fd5b906121e45f19916116c0565b9181191691161790565b90565b9061220661220161220d92610523565b6121ee565b82546121d8565b9055565b61221b6040610b0b565b90565b9061224860205f61224e9461224082820161223a8488016116b3565b906116e3565b019201611703565b9061173e565b565b9061225a9161221e565b565b61226f61226833610e7d565b50506121af565b61229061227c6003610c12565b600261228a60153390610797565b016121f1565b6122ae61229b61384c565b5f6122a860153390610797565b016121f1565b6122b661384c565b6122dd6122d76122d25f6122cc60153390610797565b016107c1565b610175565b91610175565b10612337575b612335336123085f6122ff6122f6612211565b935f8501610b66565b60208301610b74565b612330601661231760126107c1565b61232a61232382611cae565b60126121f1565b90610652565b612250565b565b6123576123435f610c31565b600161235160153390610797565b016121f1565b6122e3565b5f7f71756f74612e7265616368656400000000000000000000000000000000000000910152565b612390600d602092610d14565b6123998161235c565b0190565b6123b29060208101905f818303910152612383565b90565b156123bc57565b6123c4610167565b62461bcd60e51b8152806123da6004820161239d565b0390fd5b90565b6123f56123f06123fa926123de565b610520565b610175565b90565b61240c61241291939293610175565b92610175565b820180921161241d57565b610e44565b90565b5f0b90565b61243381612425565b0361243a57565b5f80fd5b9050519061244b8261242a565b565b9060208282031261246657612463915f0161243e565b90565b610171565b61247490610c31565b9052565b90565b61248f61248a61249492612478565b610520565b610175565b90565b6124a09061247b565b9052565b6124d96124e0946124cf6060949897956124c5608086019a5f87019061037e565b602085019061041e565b604083019061246b565b0190612497565b565b5f80910155565b905f036124fb576124f9906124e2565b565b6116a0565b1b90565b9190600861251f9102916125195f1984612500565b92612500565b9181191691161790565b919061253f61253a61254793610523565b6121ee565b908354612504565b9055565b61255d91612557610be5565b91612529565b565b5061257061256b612a36565b6123b5565b61257a60136107c1565b5b806125aa6125a461259f61258f60136107c1565b612599600a6123e1565b906123fd565b610175565b91610175565b1080612a0a575b156129d8576125ca6125c560168390610652565b612422565b906125df6125d95f84016102bd565b156101dd565b612625575b61262091506125fe5f6125f960168490610652565b6124e9565b61261a61261361260e60136107c1565b611cae565b60136121f1565b5b611cae565b61257b565b612651602061263b6126365f610c6c565b610c79565b63447bf0e290612649610167565b938492610c85565b825281806126616004820161061a565b03915afa9081156129d35761268b6126866126bf936020935f916129a6575b50610cd4565b610ce0565b6345145fd7906126b461269f5f8801610290565b926126a8610167565b95869485938493610c85565b835260048301610719565b03915afa9081156129a1575f91612973575b5091826126ee6126e86126e35f610d08565b6101c4565b916101c4565b14155f14612947576127045f6127099201610290565b610e7d565b939190505f1461291b57612753604061272961272484610daf565b610dbb565b635ed86d5c90612748879261273c610167565b95869485938493610c85565b83526004830161042b565b03915afa908115612916575f916128e9575b5090612788612781600161277b60153390610797565b016107c1565b83906123fd565b6127a361279d61279860116107c1565b610175565b91610175565b116128dd576127bb6127b6602092610daf565b610dbb565b9363a3e884b0946127ec5f6127cf81610d08565b93976127f7826007906127e0610167565b9b8c9889978896610c85565b8652600486016124a4565b03925af19081156128d85761262093612884926128ac575b5061283f8161283961282a601461282461384c565b9061053f565b91612834836107c1565b6123fd565b906121f1565b61285d61284a61384c565b5f61285760153390610797565b016121f1565b61287e600161286e60153390610797565b0191612879836107c1565b6123fd565b906121f1565b6128a56128916001610e06565b600261289f60153390610797565b016121f1565b5b5b6125e4565b6128cc9060203d81116128d1575b6128c48183610ae2565b81019061244d565b61280f565b503d6128ba565b610cb8565b5050612620915061261b565b61290a915060403d811161290f575b6129028183610ae2565b810190610dd6565b612765565b503d6128f8565b610cb8565b50612620915061294261292e6002611684565b600261293c60153390610797565b016121f1565b6128a6565b50612620915061296e61295a6002611684565b600261296860153390610797565b016121f1565b6128a7565b612994915060203d811161299a575b61298c8183610ae2565b810190610c9a565b5f6126d1565b503d612982565b610cb8565b6129c69150843d81116129cc575b6129be8183610ae2565b810190610c9a565b5f612680565b503d6129b4565b610cb8565b50612a085f612a0360146129fd6129ed61384c565b6129f7600761247b565b90610e58565b9061053f565b61254b565b565b50612a1560126107c1565b612a30612a2a612a2560136107c1565b610175565b91610175565b116125b1565b612a3e610c0b565b50612a5a612a556014612a4f61384c565b9061053f565b6107c1565b612a75612a6f612a6a600f6107c1565b610175565b91610175565b1190565b5f7f6f776e2e64656661756c742e73656e6465720000000000000000000000000000910152565b612aad6012602092610d14565b612ab681612a79565b0190565b612acf9060208101905f818303910152612aa0565b90565b15612ad957565b612ae1610167565b62461bcd60e51b815280612af760048201612aba565b0390fd5b90612b2a91612b2581612b1e612b18612b135f610d08565b6101c4565b916101c4565b1415612ad2565b612b2c565b565b90612b5b916020612b45612b406002611287565b611294565b636a276f9d90612b53610167565b958692610c85565b82528180612b6b6004820161061a565b03915afa928315612bed57612bbd93612b8b915f91612bbf575b506113d8565b612bb8612ba0612b9b6001611420565b61142d565b612bb2612bac336101c4565b916101c4565b14612015565b612c74565b565b612be0915060203d8111612be6575b612bd88183610ae2565b8101906112a0565b5f612b85565b503d612bce565b610cb8565b5f7f6f776e2e696e76616c69642e616d6f756e740000000000000000000000000000910152565b612c266012602092610d14565b612c2f81612bf2565b0190565b612c489060208101905f818303910152612c19565b90565b15612c5257565b612c5a610167565b62461bcd60e51b815280612c7060048201612c33565b0390fd5b5f808093612ca6612ca18395612c9c84612c96612c9088610c31565b91610175565b11612c4b565b611a79565b612103565b828215612cbb575bf115612cb657565b610cb8565b506108fc612cae565b90612cce91612afb565b565b60018060a01b031690565b612ce7612cec9161026c565b612cd0565b90565b612cf99054612cdb565b90565b612d059061077f565b90565b612d356020612d1f612d1a6003612cef565b612cfc565b63db2d8b2690612d2d610167565b938492610c85565b82528180612d456004820161061a565b03915afa8015612f3957612d62915f91612f0b575b50600f6121f1565b612d8f6020612d79612d746003612cef565b612cfc565b632e040b9d90612d87610167565b938492610c85565b82528180612d9f6004820161061a565b03915afa8015612f0657612dbc915f91612ed8575b50600e6121f1565b612de96020612dd3612dce6003612cef565b612cfc565b635a9bac0390612de1610167565b938492610c85565b82528180612df96004820161061a565b03915afa8015612ed357612e16915f91612ea5575b5060116121f1565b612e436020612e2d612e286003612cef565b612cfc565b632bfc2e0790612e3b610167565b938492610c85565b82528180612e536004820161061a565b03915afa8015612ea057612e70915f91612e72575b5060106121f1565b565b612e93915060203d8111612e99575b612e8b8183610ae2565b810190610d85565b5f612e68565b503d612e81565b610cb8565b612ec6915060203d8111612ecc575b612ebe8183610ae2565b810190610d85565b5f612e0e565b503d612eb4565b610cb8565b612ef9915060203d8111612eff575b612ef18183610ae2565b810190610d85565b5f612db4565b503d612ee7565b610cb8565b612f2c915060203d8111612f32575b612f248183610ae2565b810190610d85565b5f612d5a565b503d612f1a565b610cb8565b90565b612f55612f50612f5a92612f3e565b610520565b610175565b90565b90565b612f74612f6f612f7992612f5d565b610520565b610175565b90565b634e487b7160e01b5f52601260045260245ffd5b612f9c612fa291610175565b91610175565b908115612fad570490565b612f7c565b612fba610be5565b50612fc3610be5565b50612fd5670c7d713b49da0000612f41565b612fe6670de0b6b3a7640000612f60565b82612ff9612ff384610175565b91610175565b105f1461302d5750906130236130136130289383906123fd565b61301d6001610e06565b90610e58565b612f90565b908190565b90508161304261303c83610175565b91610175565b115f1461307d5761306a61305a61306f9383906123fd565b6130646001610e06565b90610e58565b612f90565b9061307a6001610e06565b90565b50506130896001610e06565b906130946001610e06565b90565b6130a090610763565b90565b6130ac90613097565b90565b6130b890613097565b90565b90565b906130d36130ce6130da926130af565b6130bb565b82546116c5565b9055565b6130e790610763565b90565b6130f3906130de565b90565b6130ff906130de565b90565b90565b9061311a613115613121926130f6565b613102565b82546116c5565b9055565b61312e90610763565b90565b61313a90613125565b90565b61314690613125565b90565b90565b9061316161315c6131689261313d565b613149565b82546116c5565b9055565b61317590610cc8565b90565b90565b9061319061318b6131979261316c565b613178565b82546116c5565b9055565b6131a490610763565b90565b6131b09061319b565b90565b6131bc9061319b565b90565b90565b906131d76131d26131de926131b3565b6131bf565b82546116c5565b9055565b6131f36131ee5f610c6c565b610c79565b61320d6132076132025f610d08565b6101c4565b916101c4565b1461384a5761323e60206132286132235f610c6c565b610c79565b634162169f90613236610167565b938492610c85565b8252818061324e6004820161061a565b03915afa908115613845576132759161326e915f91613817575b506130a3565b60016130be565b6132a1602061328b6132865f610c6c565b610c79565b63b57dbdc690613299610167565b938492610c85565b825281806132b16004820161061a565b03915afa908115613812576132d8916132d1915f916137e4575b506130ea565b6002613105565b61330460206132ee6132e95f610c6c565b610c79565b63cfbffe53906132fc610167565b938492610c85565b825281806133146004820161061a565b03915afa9081156137df5761333b91613334915f916137b1575b50613131565b600361314c565b613367602061335161334c5f610c6c565b610c79565b63ab6e844f9061335f610167565b938492610c85565b825281806133776004820161061a565b03915afa9081156137ac5761339e91613397915f9161377e575b50610cd4565b600461317b565b6133ca60206133b46133af5f610c6c565b610c79565b639a7c4077906133c2610167565b938492610c85565b825281806133da6004820161061a565b03915afa90811561377957613401916133fa915f9161374b575b506131a7565b60056131c2565b61342d60206134176134125f610c6c565b610c79565b63aa0ddc1690613425610167565b938492610c85565b8252818061343d6004820161061a565b03915afa80156137465761345a915f91613718575b5060076116e3565b613486602061347061346b5f610c6c565b610c79565b636b4aefc69061347e610167565b938492610c85565b825281806134966004820161061a565b03915afa8015613713576134b3915f916136e5575b5060086116e3565b6134df60206134c96134c45f610c6c565b610c79565b6324768d91906134d7610167565b938492610c85565b825281806134ef6004820161061a565b03915afa80156136e05761350c915f916136b2575b50600b6116e3565b613538602061352261351d5f610c6c565b610c79565b636402742790613530610167565b938492610c85565b825281806135486004820161061a565b03915afa80156136ad57613565915f9161367f575b5060096116e3565b613591602061357b6135765f610c6c565b610c79565b6330125cf590613589610167565b938492610c85565b825281806135a16004820161061a565b03915afa801561367a576135be915f9161364c575b50600a6116e3565b6135ea60206135d46135cf5f610c6c565b610c79565b63d3d1b096906135e2610167565b938492610c85565b825281806135fa6004820161061a565b03915afa801561364757613617915f91613619575b5060066116e3565b565b61363a915060203d8111613640575b6136328183610ae2565b810190610c9a565b5f61360f565b503d613628565b610cb8565b61366d915060203d8111613673575b6136658183610ae2565b810190610c9a565b5f6135b6565b503d61365b565b610cb8565b6136a0915060203d81116136a6575b6136988183610ae2565b810190610c9a565b5f61355d565b503d61368e565b610cb8565b6136d3915060203d81116136d9575b6136cb8183610ae2565b810190610c9a565b5f613504565b503d6136c1565b610cb8565b613706915060203d811161370c575b6136fe8183610ae2565b810190610c9a565b5f6134ab565b503d6136f4565b610cb8565b613739915060203d811161373f575b6137318183610ae2565b810190610c9a565b5f613452565b503d613727565b610cb8565b61376c915060203d8111613772575b6137648183610ae2565b810190610c9a565b5f6133f4565b503d61375a565b610cb8565b61379f915060203d81116137a5575b6137978183610ae2565b810190610c9a565b5f613391565b503d61378d565b610cb8565b6137d2915060203d81116137d8575b6137ca8183610ae2565b810190610c9a565b5f61332e565b503d6137c0565b610cb8565b613805915060203d811161380b575b6137fd8183610ae2565b810190610c9a565b5f6132cb565b503d6137f3565b610cb8565b613838915060203d811161383e575b6138308183610ae2565b810190610c9a565b5f613268565b503d613826565b610cb8565b565b613854610be5565b50613882602061386c6138676002611287565b611294565b63262a9dff9061387a610167565b938492610c85565b825281806138926004820161061a565b03915afa9081156138d6575f916138a8575b5090565b6138c9915060203d81116138cf575b6138c18183610ae2565b810190610d85565b5f6138a4565b503d6138b7565b610cb856fea26469706673582212203198f7a05a2f37080ad233e280790d384734f0ccf1ad0f05ad9cad96508720db64736f6c634300081800336080604052346200002d5762000014620000ae565b6200001e62000033565b6144c8620000bf82396144c890f35b62000039565b60405190565b5f80fd5b5f1b90565b90620000505f19916200003d565b9181191691161790565b90565b90565b90565b6200007c6200007662000082926200005a565b62000060565b6200005d565b90565b90565b90620000a26200009c620000aa9262000063565b62000085565b825462000042565b9055565b620000bc6033601062000088565b56fe60806040526004361015610018575b361561001657005b005b6100225f35610181565b8063013cf08b1461017c57806307ad4055146101775780630d43aaf21461017257806312065fe01461016d578063379a423c1461016857806341ffe7c4146101635780635be612c71461015e578063604ff4b11461015957806360af454d1461015457806368fd1f511461014f5780638da5cb5b1461014a57806398e527d314610145578063a065974414610140578063abb8c9651461013b578063b90306ad14610136578063c1ce0e9b14610131578063c7f758a81461012c578063c9d27afe14610127578063cbf0b0c014610122578063d3325a2c1461011d578063f3fef3a3146101185763fe0d94c10361000e576110a7565b61107d565b611016565b610ecf565b610e9b565b610e2f565b610d6f565b610d46565b610d12565b610cdd565b610c73565b610c3e565b610c09565b610b4a565b610b17565b610ae2565b610a0f565b6109da565b610972565b610924565b6107b9565b6106ff565b60e01c90565b60405190565b5f80fd5b5f80fd5b5f80fd5b90565b6101a581610199565b036101ac57565b5f80fd5b905035906101bd8261019c565b565b906020828203126101d8576101d5915f016101b0565b90565b610191565b634e487b7160e01b5f52603260045260245ffd5b5490565b5f5260205f2090565b610207816101f1565b82101561022157610219600c916101f5565b910201905f90565b6101dd565b634e487b7160e01b5f52602260045260245ffd5b906001600283049216801561025a575b602083101461025557565b610226565b91607f169161024a565b60209181520190565b5f5260205f2090565b905f92918054906102906102898361023a565b8094610264565b916001811690815f146102e757506001146102ab575b505050565b6102b8919293945061026d565b915f925b8184106102cf57505001905f80806102a6565b600181602092959395548486015201910192906102bc565b92949550505060ff19168252151560200201905f80806102a6565b9061030c91610276565b90565b601f801991011690565b634e487b7160e01b5f52604160045260245ffd5b906103379061030f565b810190811067ffffffffffffffff82111761035157604052565b610319565b9061037661036f92610366610187565b93848092610302565b038361032d565b565b5f1c90565b60018060a01b031690565b61039461039991610378565b61037d565b90565b6103a69054610388565b90565b90565b6103b86103bd91610378565b6103a9565b90565b6103ca90546103ac565b90565b60209181520190565b5f5260205f2090565b905f92918054906103f96103f28361023a565b80946103cd565b916001811690815f146104505750600114610414575b505050565b61042191929394506103d6565b915f925b81841061043857505001905f808061040f565b60018160209295939554848601520191019290610425565b92949550505060ff19168252151560200201905f808061040f565b90610475916103df565b90565b9061049861049192610488610187565b9384809261046b565b038361032d565b565b60ff1690565b6104ac6104b191610378565b61049a565b90565b6104be90546104a0565b90565b6011906104cd826101f1565b81101561056d576104dd916101fe565b506104e95f8201610356565b916104f66001830161039c565b91610503600282016103c0565b9161051060038301610478565b9161051d600482016103c0565b9161052a600583016103c0565b91610537600682016103c0565b91610544600783016104b4565b91610551600882016103c0565b9161056a600b610563600985016104b4565b93016104b4565b90565b5f80fd5b5190565b60209181520190565b5f5b838110610590575050905f910152565b806020918301518185015201610580565b6105c06105c96020936105ce936105b781610571565b93848093610575565b9586910161057e565b61030f565b0190565b60018060a01b031690565b6105e6906105d2565b90565b6105f2906105dd565b9052565b6105ff90610199565b9052565b5190565b60209181520190565b61062f61063860209361063d9361062681610603565b93848093610607565b9586910161057e565b61030f565b0190565b151590565b61064f90610641565b9052565b9896949b9a9997959392906101608a018a81035f8c0152610673916105a1565b9160208a01610681916105e9565b6040890161068e916105f6565b878103606089015261069f91610610565b98608087016106ad916105f6565b60a086016106ba916105f6565b60c085016106c7916105f6565b60e084016106d491610646565b61010083016106e2916105f6565b61012082016106f091610646565b610140016106fd91610646565b565b3461073c5761073861071a6107153660046101bf565b6104c1565b9761072f9b999b979197969296959395610187565b9b8c9b8c610653565b0390f35b61018d565b61074a816105dd565b0361075157565b5f80fd5b9050359061076282610741565b565b61076d81610641565b0361077457565b5f80fd5b9050359061078582610764565b565b91906040838203126107af57806107a36107ac925f8601610755565b93602001610778565b90565b610191565b5f0190565b346107e8576107d26107cc366004610787565b906117cf565b6107da610187565b806107e4816107b4565b0390f35b61018d565b5f9103126107f757565b610191565b60a01c90565b61080e610813916107fc565b61049a565b90565b6108209054610802565b90565b60a81c90565b61083561083a91610823565b61049a565b90565b6108479054610829565b90565b60b01c90565b61085c6108619161084a565b61049a565b90565b61086e9054610850565b90565b60b81c90565b61088361088891610871565b61049a565b90565b6108959054610877565b90565b600d6108a55f820161039c565b916108b15f8301610816565b916108bd5f820161083d565b916108d45f6108cd818501610864565b930161088b565b90565b909594926109229461091161091b926109076080966108fd60a088019c5f8901906105e9565b6020870190610646565b6040850190610646565b6060830190610646565b0190610646565b565b34610958576109343660046107ed565b61095461093f610898565b9161094b959395610187565b958695866108d7565b0390f35b61018d565b9190610970905f602085019401906105f6565b565b346109a2576109823660046107ed565b61099e61098d6117eb565b610995610187565b9182918261095d565b0390f35b61018d565b906020828203126109c0576109bd915f01610755565b90565b610191565b91906109d8905f60208501940190610646565b565b34610a0a57610a066109f56109f03660046109a7565b611805565b6109fd610187565b918291826109c5565b0390f35b61018d565b34610a3d57610a27610a223660046109a7565b611f82565b610a2f610187565b80610a39816107b4565b0390f35b61018d565b5490565b5f5260205f2090565b610a5881610a42565b821015610a7257610a6a600191610a46565b910201905f90565b6101dd565b1c90565b610a8b906008610a909302610a77565b61037d565b90565b90610a9e9154610a7b565b90565b600e610aac81610a42565b821015610ac957610ac691610ac091610a4f565b90610a93565b90565b5f80fd5b9190610ae0905f602085019401906105e9565b565b34610b1257610b0e610afd610af83660046101bf565b610aa1565b610b05610187565b91829182610acd565b0390f35b61018d565b34610b4557610b2f610b2a3660046101bf565b6120ab565b610b37610187565b80610b41816107b4565b0390f35b61018d565b34610b7857610b62610b5d3660046109a7565b6121f7565b610b6a610187565b80610b74816107b4565b0390f35b61018d565b90565b610b94610b8f610b99926105d2565b610b7d565b6105d2565b90565b610ba590610b80565b90565b610bb190610b9c565b90565b90610bbe90610ba8565b5f5260205260405f2090565b610bda906008610bdf9302610a77565b61049a565b90565b90610bed9154610bca565b90565b610c0690610c01600f915f92610bb4565b610be2565b90565b34610c3957610c35610c24610c1f3660046109a7565b610bf0565b610c2c610187565b918291826109c5565b0390f35b61018d565b34610c6e57610c4e3660046107ed565b610c6a610c5961225a565b610c61610187565b91829182610acd565b0390f35b61018d565b34610ca357610c833660046107ed565b610c9f610c8e612270565b610c96610187565b9182918261095d565b0390f35b61018d565b610cb8906008610cbd9302610a77565b6103a9565b90565b90610ccb9154610ca8565b90565b610cda60105f90610cc0565b90565b34610d0d57610ced3660046107ed565b610d09610cf8610cce565b610d00610187565b9182918261095d565b0390f35b61018d565b34610d4157610d2b610d25366004610787565b906126ed565b610d33610187565b80610d3d816107b4565b0390f35b61018d565b610d59610d543660046101bf565b612888565b610d61610187565b80610d6b816107b4565b0390f35b34610d9f57610d7f3660046107ed565b610d9b610d8a612893565b610d92610187565b9182918261095d565b0390f35b61018d565b969492909998979593919961012088018881035f8a0152610dc4916105a1565b9960208801610dd2916105e9565b60408701610ddf916105f6565b60608601610dec916105f6565b60808501610df9916105f6565b60a08401610e06916105f6565b60c08301610e1391610646565b60e08201610e20916105f6565b61010001610e2d91610646565b565b34610e6957610e65610e4a610e453660046101bf565b6128bd565b95610e5c999799959195949294610187565b998a998a610da4565b0390f35b61018d565b9190604083820312610e965780610e8a610e93925f86016101b0565b93602001610778565b90565b610191565b34610eca57610eb4610eae366004610e6e565b90612dfc565b610ebc610187565b80610ec6816107b4565b0390f35b61018d565b34610efd57610ee7610ee23660046109a7565b612e08565b610eef610187565b80610ef9816107b4565b0390f35b61018d565b5f80fd5b5f80fd5b5f80fd5b909182601f83011215610f485781359167ffffffffffffffff8311610f43576020019260018302840111610f3e57565b610f0a565b610f06565b610f02565b909182601f83011215610f875781359167ffffffffffffffff8311610f82576020019260018302840111610f7d57565b610f0a565b610f06565b610f02565b919060a083820312611011575f83013567ffffffffffffffff811161100c5781610fb7918501610f0e565b929093610fc78360208301610755565b92610fd581604084016101b0565b92606083013567ffffffffffffffff811161100757610ff983611004928601610f4d565b9390946080016101b0565b90565b610195565b610195565b610191565b3461104b57611035611029366004610f8c565b959490949391936133fb565b61103d610187565b80611047816107b4565b0390f35b61018d565b9190604083820312611078578061106c611075925f8601610755565b936020016101b0565b90565b610191565b61109161108b366004611050565b906135d5565b611099610187565b806110a3816107b4565b0390f35b346110d5576110bf6110ba3660046101bf565b613a9e565b6110c7610187565b806110d1816107b4565b0390f35b61018d565b60018060a01b031690565b6110f16110f691610378565b6110da565b90565b61110390546110e5565b90565b61110f90610b9c565b90565b60e01b90565b9050519061112582610764565b565b906020828203126111405761113d915f01611118565b90565b610191565b61114d610187565b3d5f823e3d90fd5b5f7f496e76616c696420697353616665000000000000000000000000000000000000910152565b611189600e602092610575565b61119281611155565b0190565b6111ab9060208101905f81830391015261117c565b90565b156111b557565b6111bd610187565b62461bcd60e51b8152806111d360048201611196565b0390fd5b6111e090610b9c565b90565b5f7f66616b652064616f20636f726500000000000000000000000000000000000000910152565b611217600d602092610575565b611220816111e3565b0190565b6112399060208101905f81830391015261120a565b90565b1561124357565b61124b610187565b62461bcd60e51b81528061126160048201611224565b0390fd5b9061129491602061127e61127960026110f9565b611106565b636a276f9d9061128c610187565b958692611112565b825281806112a4600482016107b4565b03915afa92831561131d576112ed936112c4915f916112ef575b506111ae565b6112e86112d0306111d7565b6112e26112dc336105dd565b916105dd565b1461123c565b611636565b565b611310915060203d8111611316575b611308818361032d565b810190611127565b5f6112be565b503d6112fe565b611145565b5f7f6e6f742065786973747300000000000000000000000000000000000000000000910152565b611356600a602092610575565b61135f81611322565b0190565b6113789060208101905f818303910152611349565b90565b1561138257565b61138a610187565b62461bcd60e51b8152806113a060048201611363565b0390fd5b90565b6113bb6113b66113c0926113a4565b610b7d565b610199565b90565b60016113cf9101610199565b90565b90565b6113e96113e46113ee926113d2565b610b7d565b610199565b90565b634e487b7160e01b5f52601160045260245ffd5b61141461141a91939293610199565b92610199565b820391821161142557565b6113f1565b61143961143f91939293610199565b92610199565b820180921161144a57565b6113f1565b1b90565b9190600861147391029161146d60018060a01b038461144f565b9261144f565b9181191691161790565b90565b919061149661149161149e93610ba8565b61147d565b908354611453565b9055565b90565b634e487b7160e01b5f52603160045260245ffd5b5490565b5f5260205f2090565b6114cf816114b9565b8210156114e9576114e16001916114bd565b910201905f90565b6101dd565b5f90565b611504916114fe6114ee565b91611480565b565b61150f816114b9565b801561153057600190039061152d61152783836114c6565b906114f2565b55565b6114a5565b5f1b90565b9061154660ff91611535565b9181191691161790565b61155990610641565b90565b90565b9061157461156f61157b92611550565b61155c565b825461153a565b9055565b5f7f416c726561647920657869737473000000000000000000000000000000000000910152565b6115b3600e602092610575565b6115bc8161157f565b0190565b6115d59060208101905f8183039101526115a6565b90565b156115df57565b6115e7610187565b62461bcd60e51b8152806115fd600482016115c0565b0390fd5b9081549168010000000000000000831015611631578261162991600161162f950181556114c6565b90611480565b565b610319565b905f1461168f5761168c9061166661166161165b611656600f8590610bb4565b6104b4565b15610641565b6115d8565b61167a611673600e6114a2565b8290611601565b611687600191600f610bb4565b61155f565b5b565b6116ab6116a66116a1600f8490610bb4565b6104b4565b61137b565b6116b45f6113a7565b5b806116d16116cb6116c6600e610a42565b610199565b91610199565b10156117b457816116fe6116f86116f36116ed600e8690610a4f565b90610a93565b6105dd565b916105dd565b14611712575b61170d906113c3565b6116b5565b91825b8061174461173e611739611729600e610a42565b61173360016113d5565b90611405565b610199565b91610199565b1015611795576117909061178b611779611773600e61176d8561176760016113d5565b9061142a565b90610a4f565b90610a93565b611785600e8490610a4f565b90611480565b6113c3565b611715565b509161170d906117ad6117a8600e6114a2565b611506565b9050611704565b506117ca906117c55f91600f610bb4565b61155f565b61168d565b906117d991611265565b565b5f90565b6117e890610b9c565b90565b6117f36117db565b506117fd306117df565b3190565b5f90565b61180d611801565b5061184f602061182561182060026110f9565b611106565b6319c06429906118448592611838610187565b95869485938493611112565b835260048301610acd565b03915afa9081156118c1575f91611893575b5090811561186e575b5090565b905061188c611886611880600c61039c565b926105dd565b916105dd565b145f61186a565b6118b4915060203d81116118ba575b6118ac818361032d565b810190611127565b5f611861565b503d6118a2565b611145565b5f7f6f776e2e696e76616c69642e6973536166650000000000000000000000000000910152565b6118fa6012602092610575565b611903816118c6565b0190565b61191c9060208101905f8183039101526118ed565b90565b1561192657565b61192e610187565b62461bcd60e51b81528061194460048201611907565b0390fd5b60018060a01b031690565b61195f61196491610378565b611948565b90565b6119719054611953565b90565b61197d90610b9c565b90565b5f7f6f776d2e66616b652e2064656c65676174650000000000000000000000000000910152565b6119b46012602092610575565b6119bd81611980565b0190565b6119d69060208101905f8183039101526119a7565b90565b156119e057565b6119e8610187565b62461bcd60e51b8152806119fe600482016119c1565b0390fd5b611a2f6020611a19611a1460026110f9565b611106565b636a276f9d90611a27610187565b938492611112565b82528180611a3f600482016107b4565b03915afa8015611b6157611a5a915f91611b33575b5061191f565b611a6c611a676001611967565b611974565b611a7e611a78336105dd565b916105dd565b14908115611a9a575b611a93611a98926119d9565b611e43565b565b611add91506020611ab3611aae60026110f9565b611106565b637df73e2790611ad23392611ac6610187565b96879485938493611112565b835260048301610acd565b03915afa918215611b2e57611a9892611a93915f91611b00575b50925050611a87565b611b21915060203d8111611b27575b611b19818361032d565b810190611127565b5f611af7565b503d611b0f565b611145565b611b54915060203d8111611b5a575b611b4c818361032d565b810190611127565b5f611a54565b503d611b42565b611145565b90505190611b738261019c565b565b90602082820312611b8e57611b8b915f01611b66565b90565b610191565b90611ba6611b9f610187565b928361032d565b565b611bb260a0611b93565b90565b5f90565b5f90565b611bc5611ba8565b9060208080808086611bd5611bb5565b815201611be0611bb9565b815201611beb611bb9565b815201611bf6611bb9565b815201611c01611bb9565b81525050565b611c0f611bbd565b90565b90611c1c90610641565b9052565b90565b611c37611c32611c3c92611c20565b610b7d565b610199565b90565b90565b611c56611c51611c5b92611c3f565b610b7d565b610199565b90565b90611c68906105dd565b9052565b611c7690516105dd565b90565b90611c8a60018060a01b0391611535565b9181191691161790565b90611ca9611ca4611cb092610ba8565b61147d565b8254611c79565b9055565b611cbe9051610641565b90565b60a01b90565b90611cd660ff60a01b91611cc1565b9181191691161790565b90611cf5611cf0611cfc92611550565b61155c565b8254611cc7565b9055565b60a81b90565b90611d1560ff60a81b91611d00565b9181191691161790565b90611d34611d2f611d3b92611550565b61155c565b8254611d06565b9055565b60b01b90565b90611d5460ff60b01b91611d3f565b9181191691161790565b90611d73611d6e611d7a92611550565b61155c565b8254611d45565b9055565b60b81b90565b90611d9360ff60b81b91611d7e565b9181191691161790565b90611db2611dad611db992611550565b61155c565b8254611d84565b9055565b90611e2f60805f611e3594611ddf828201611dd9848801611c6c565b90611c94565b611df7828201611df160208801611cb4565b90611ce0565b611e0f828201611e0960408801611cb4565b90611d1f565b611e27828201611e2160608801611cb4565b90611d5e565b019201611cb4565b90611d9d565b565b90611e4191611dbd565b565b611e85906020611e5b611e5660026110f9565b611106565b631d84be4490611e7a3392611e6e610187565b96879485938493611112565b835260048301610acd565b03915afa918215611f7d57611f1492611f0d915f91611f4f575b5091611ea9611c07565b92611eb8600160208601611c12565b80611ecc611ec660016113d5565b91610199565b14611f3c575b80611ee6611ee06002611c23565b91610199565b14611f29575b611eff611ef96003611c42565b91610199565b14611f16575b5f8301611c5e565b600d611e37565b565b611f24600160808501611c12565b611f05565b611f37600160608601611c12565b611eec565b611f4a600160408601611c12565b611ed2565b611f70915060203d8111611f76575b611f68818361032d565b810190611b75565b5f611e9f565b503d611f5e565b611145565b611f8b90611a02565b565b611fbb906020611fa5611fa060026110f9565b611106565b636a276f9d90611fb3610187565b948592611112565b82528180611fcb600482016107b4565b03915afa9182156120445761201492611feb915f91612016575b506111ae565b61200f611ff7306111d7565b612009612003336105dd565b916105dd565b1461123c565b61209e565b565b612037915060203d811161203d575b61202f818361032d565b810190611127565b5f611fe5565b503d612025565b611145565b906120555f1991611535565b9181191691161790565b61207361206e61207892610199565b610b7d565b610199565b90565b90565b9061209361208e61209a9261205f565b61207b565b8254612049565b9055565b6120a990601061207e565b565b6120b490611f8d565b565b60018060a01b031690565b6120cd6120d291610378565b6120b6565b90565b6120df90546120c1565b90565b6120eb90610b9c565b90565b6121026120fd612107926113a4565b610b7d565b6105d2565b90565b612113906120ee565b90565b5f7f6f776e2e686578626173652e6661696c65640000000000000000000000000000910152565b61214a6012602092610575565b61215381612116565b0190565b61216c9060208101905f81830391015261213d565b90565b1561217657565b61217e610187565b62461bcd60e51b81528061219460048201612157565b0390fd5b6121a190610b80565b90565b6121ad90612198565b90565b6121b990610b80565b90565b6121c5906121b0565b90565b6121d1906121b0565b90565b90565b906121ec6121e76121f3926121c8565b6121d4565b8254611c79565b9055565b61224a612245612250926122356122156122105f6120d5565b6120e2565b61222f6122296122245f61210a565b6105dd565b916105dd565b1461216f565b61224032600c611c94565b6121a4565b6121bc565b5f6121d7565b612258613c39565b565b6122626114ee565b5061226d600c61039c565b90565b6122786117db565b5061228360116101f1565b90565b906122b4602061229e61229960026110f9565b611106565b636a276f9d906122ac610187565b938492611112565b825281806122c4600482016107b4565b03915afa80156123e6576122df915f916123b8575b5061191f565b6122f16122ec6001611967565b611974565b6123036122fd336105dd565b916105dd565b1491821561231f575b61231861231d936119d9565b612407565b565b6123629250602061233861233360026110f9565b611106565b637df73e2790612357339261234b610187565b97889485938493611112565b835260048301610acd565b03915afa9283156123b35761231d93612318915f91612385575b5093505061230c565b6123a6915060203d81116123ac575b61239e818361032d565b810190611127565b5f61237c565b503d612394565b611145565b6123d9915060203d81116123df575b6123d1818361032d565b810190611127565b5f6122d9565b503d6123c7565b611145565b6123f490610199565b5f1981146124025760010190565b6113f1565b905f146126d55761244f602061242561242060026110f9565b611106565b631d84be44906124443392612438610187565b95869485938493611112565b835260048301610acd565b03915afa9081156126d0575f916126a2575b5061246e5f600d01610816565b80612687575b80612662575b61264f575b61248b5f600d01610816565b80612634575b8061260f575b6125fc575b6124a85f600d01610816565b90816125e0575b50806125bb575b6125a8575b6124c45f6113a7565b6124d05f600d0161083d565b61259a575b6124e15f600d01610864565b61258c575b6124f25f600d0161088b565b61257e575b6125035f600d01610816565b9081612562575b508061253d575b61251a575b505b565b61252590600c611c94565b612537612530611c07565b600d611e37565b5f612516565b5061254a5f600d0161039c565b61255c612556836105dd565b916105dd565b14612511565b90506125776125716002611c23565b91610199565b145f61250a565b612587906123eb565b6124f7565b612595906123eb565b6124e6565b6125a3906123eb565b6124d5565b6125b660015f600d01611d9d565b6124bb565b506125c85f600d0161039c565b6125da6125d4836105dd565b916105dd565b146124b6565b90506125f56125ef6003611c42565b91610199565b145f6124af565b61260a60015f600d01611d5e565b61249c565b5061261c5f600d0161039c565b61262e612628846105dd565b916105dd565b14612497565b50806126496126436002611c23565b91610199565b14612491565b61265d60015f600d01611d1f565b61247f565b5061266f5f600d0161039c565b61268161267b846105dd565b916105dd565b1461247a565b508061269c61269660016113d5565b91610199565b14612474565b6126c3915060203d81116126c9575b6126bb818361032d565b810190611b75565b5f612461565b503d6126b1565b611145565b506126e86126e1611c07565b600d611e37565b612518565b906126f791612286565b565b5f7f6f776e2e6e6f6e617574682e44414f0000000000000000000000000000000000910152565b61272d600f602092610575565b612736816126f9565b0190565b61274f9060208101905f818303910152612720565b90565b1561275957565b612761610187565b62461bcd60e51b8152806127776004820161273a565b0390fd5b6127a990602061279361278e60026110f9565b611106565b636a276f9d906127a1610187565b948592611112565b825281806127b9600482016107b4565b03915afa91821561283b5761280b926127d9915f9161280d575b5061191f565b6128066127ee6127e96001611967565b611974565b6128006127fa336105dd565b916105dd565b14612752565b61284c565b565b61282e915060203d8111612834575b612826818361032d565b810190611127565b5f6127d3565b503d61281c565b611145565b61284990610b9c565b90565b5f8080809361286a6128656128608461210a565b6121a4565b612840565b82821561287f575bf11561287a57565b611145565b506108fc612872565b6128919061277b565b565b61289b6117db565b506128a6600e610a42565b90565b606090565b90565b6128ba90610356565b90565b61291c612922916128cc6128a9565b506128d56114ee565b506128de6117db565b506128e76117db565b506128f06117db565b506128f96117db565b50612902611801565b5061290b6117db565b50612914611801565b5060116101fe565b506128ae565b905f8201906129336001840161039c565b92612940600282016103c0565b9261294d600483016103c0565b9261295a600584016103c0565b92612967600682016103c0565b92612974600783016104b4565b926129966129906009612989600887016103c0565b95016104b4565b926128b1565b989796959493929190565b5f7f66616b652064656c656761746500000000000000000000000000000000000000910152565b6129d5600d602092610575565b6129de816129a1565b0190565b6129f79060208101905f8183039101526129c8565b90565b15612a0157565b612a09610187565b62461bcd60e51b815280612a1f600482016129e2565b0390fd5b90612a516020612a3b612a3660026110f9565b611106565b636a276f9d90612a49610187565b938492611112565b82528180612a61600482016107b4565b03915afa8015612b7257612a7c915f91612b44575b506111ae565b612a90612a8b600f3390610bb4565b6104b4565b918215612aab575b612aa4612aa9936129fa565b612cd5565b565b612aee92506020612ac4612abf60026110f9565b611106565b637df73e2790612ae33392612ad7610187565b97889485938493611112565b835260048301610acd565b03915afa928315612b3f57612aa993612aa4915f91612b11575b50935050612a98565b612b32915060203d8111612b38575b612b2a818361032d565b810190611127565b5f612b08565b503d612b20565b611145565b612b65915060203d8111612b6b575b612b5d818361032d565b810190611127565b5f612a76565b503d612b53565b611145565b5f7f566f74696e6720656e6465640000000000000000000000000000000000000000910152565b612bab600c602092610575565b612bb481612b77565b0190565b612bcd9060208101905f818303910152612b9e565b90565b15612bd757565b612bdf610187565b62461bcd60e51b815280612bf560048201612bb8565b0390fd5b5f7f416c726561647920766f74656400000000000000000000000000000000000000910152565b612c2d600d602092610575565b612c3681612bf9565b0190565b612c4f9060208101905f818303910152612c20565b90565b15612c5957565b612c61610187565b62461bcd60e51b815280612c7760048201612c3a565b0390fd5b60ff1690565b612c95612c90612c9a926113a4565b610b7d565b612c7b565b90565b612cb1612cac612cb6926113d2565b610b7d565b612c7b565b90565b612ccd612cc8612cd292612c7b565b610b7d565b610199565b90565b90612d85612cf0612cea612dd29460116101fe565b506128ae565b91612d1f612cfc6142a3565b612d19612d13612d0e600688016103c0565b610199565b91610199565b10612bd0565b612d46612d41612d3b612d36600a87013390610bb4565b6104b4565b15610641565b612c52565b805f14612de857612d7f612d63612d5d6001612c9d565b5b612cb9565b612d796004860191612d74836103c0565b61142a565b9061207e565b15610641565b5f14612dd457612dbd612da1612d9b6001612c9d565b5b612cb9565b612db76005840191612db2836103c0565b61142a565b9061207e565b612dcd600a600192013390610bb4565b61155f565b565b612dbd612da1612de35f612c81565b612d9c565b612d7f612d63612df75f612c81565b612d5e565b90612e0691612a23565b565b612e1190614487565b565b5f7f6f776e2e696e76616c69642e73696e6765720000000000000000000000000000910152565b612e476012602092610575565b612e5081612e13565b0190565b612e699060208101905f818303910152612e3a565b90565b15612e7357565b612e7b610187565b62461bcd60e51b815280612e9160048201612e54565b0390fd5b90612edd9695949392916020612eb3612eae60026110f9565b611106565b637df73e2790612ed23392612ec6610187565b9c8d9485938493611112565b835260048301610acd565b03915afa978815612f3257612f0298612efd915f91612f04575b50612e6c565b612fb9565b565b612f25915060203d8111612f2b575b612f1d818361032d565b810190611127565b5f612ef7565b503d612f13565b611145565b5f7f6f776e2e64656661756c742e73656e6465720000000000000000000000000000910152565b612f6b6012602092610575565b612f7481612f37565b0190565b612f8d9060208101905f818303910152612f5e565b90565b15612f9757565b612f9f610187565b62461bcd60e51b815280612fb560048201612f78565b0390fd5b90612fed969594939291612fe883612fe1612fdb612fd65f61210a565b6105dd565b916105dd565b1415612f90565b613372565b565b90565b5490565b5f5260205f2090565b61300881612ff2565b8210156130225761301a600c91612ff6565b910201905f90565b6101dd565b61303081612ff2565b680100000000000000008110156130545761305091600182018155612fff565b9091565b610319565b5090565b601f602091010490565b9190600861308291029161307c5f198461144f565b9261144f565b9181191691161790565b91906130a261309d6130aa9361205f565b61207b565b908354613067565b9055565b6130c0916130ba6117db565b9161308c565b565b5b8181106130ce575050565b806130db5f6001936130ae565b016130c3565b9190601f81116130f1575b505050565b6130fd6131229361026d565b9060206131098461305d565b8301931061312a575b61311b9061305d565b01906130c2565b5f80806130ec565b915061311b81929050613112565b90613148905f1990600802610a77565b191690565b8161315791613138565b906002021790565b9161316a9082613059565b9067ffffffffffffffff82116132295761318e82613188855461023a565b856130e1565b5f90601f83116001146131c1579180916131b0935f926131b5575b505061314d565b90555b565b90915001355f806131a9565b601f198316916131d08561026d565b925f5b818110613211575091600293918560019694106131f7575b505050020190556131b3565b613207910135601f841690613138565b90555f80806131eb565b919360206001819287870135815501950192016131d3565b610319565b90613239929161315f565b565b5090565b9190601f811161324f575b505050565b61325b613280936103d6565b9060206132678461305d565b83019310613288575b6132799061305d565b01906130c2565b5f808061324a565b915061327981929050613270565b916132a1908261323b565b9067ffffffffffffffff8211613360576132c5826132bf855461023a565b8561323f565b5f90601f83116001146132f8579180916132e7935f926132ec575b505061314d565b90555b565b90915001355f806132e0565b601f19831691613307856103d6565b925f5b8181106133485750916002939185600196941061332e575b505050020190556132ea565b61333e910135601f841690613138565b90555f8080613322565b9193602060018192878701358155019501920161330a565b610319565b906133709291613296565b565b946006946133c66133f2956133bd6133f99a966133b45f9b6133cf986133a96133a361339e6011612fef565b613027565b506128ae565b9d8e9291920161322e565b60018b01611c94565b6002890161207e565b60038701613365565b6133e56133dc60106103c0565b6008860161207e565b6133ed6142a3565b61142a565b910161207e565b565b9061340a969594939291612e95565b565b9061343b916134368161342f6134296134245f61210a565b6105dd565b916105dd565b1415612f90565b61343d565b565b9061346c91602061345661345160026110f9565b611106565b636a276f9d90613464610187565b958692611112565b8252818061347c600482016107b4565b03915afa9283156134fe576134ce9361349c915f916134d0575b5061191f565b6134c96134b16134ac6001611967565b611974565b6134c36134bd336105dd565b916105dd565b14612752565b613585565b565b6134f1915060203d81116134f7575b6134e9818361032d565b810190611127565b5f613496565b503d6134df565b611145565b5f7f6f776e2e696e76616c69642e616d6f756e740000000000000000000000000000910152565b6135376012602092610575565b61354081613503565b0190565b6135599060208101905f81830391015261352a565b90565b1561356357565b61356b610187565b62461bcd60e51b81528061358160048201613544565b0390fd5b5f8080936135b76135b283956135ad846135a76135a1886113a7565b91610199565b1161355c565b6121a4565b612840565b8282156135cc575bf1156135c757565b611145565b506108fc6135bf565b906135df9161340c565b565b6136239060206135f96135f460026110f9565b611106565b637df73e2790613618339261360c610187565b96879485938493611112565b835260048301610acd565b03915afa9182156136785761364892613643915f9161364a575b50612e6c565b61398c565b565b61366b915060203d8111613671575b613663818361032d565b810190611127565b5f61363d565b503d613659565b611145565b5f7f5374696c6c206163746976650000000000000000000000000000000000000000910152565b6136b1600c602092610575565b6136ba8161367d565b0190565b6136d39060208101905f8183039101526136a4565b90565b156136dd57565b6136e5610187565b62461bcd60e51b8152806136fb600482016136be565b0390fd5b5f7f416c726561647920657865637574656400000000000000000000000000000000910152565b6137336010602092610575565b61373c816136ff565b0190565b6137559060208101905f818303910152613726565b90565b1561375f57565b613767610187565b62461bcd60e51b81528061377d60048201613740565b0390fd5b61379061379691939293610199565b92610199565b916137a2838202610199565b9281840414901517156137b157565b6113f1565b90565b6137cd6137c86137d2926137b6565b610b7d565b610199565b90565b634e487b7160e01b5f52601260045260245ffd5b6137f56137fb91610199565b91610199565b908115613806570490565b6137d5565b905090565b905f929180549061382a6138238361023a565b809461380b565b916001811690815f1461387c5750600114613845575b505050565b61385291929394506103d6565b5f905b83821061386857505001905f8080613840565b600181602092548486015201910190613855565b92949550505060ff191682528015150201905f8080613840565b61389f91613810565b90565b67ffffffffffffffff81116138c0576138bc60209161030f565b0190565b610319565b906138d76138d2836138a2565b611b93565b918252565b606090565b3d5f146138fc576138f13d6138c5565b903d5f602084013e5b565b6139046138dc565b906138fa565b5f7f457865637574696f6e206661696c656400000000000000000000000000000000910152565b61393e6010602092610575565b6139478161390a565b0190565b6139609060208101905f818303910152613931565b90565b1561396a57565b613972610187565b62461bcd60e51b8152806139886004820161394b565b0390fd5b5f806139a561399f613a9c9460116101fe565b506128ae565b6139d36139b06142a3565b6139cd6139c76139c2600686016103c0565b610199565b91610199565b116136d6565b6139f06139eb6139e5600784016104b4565b15610641565b613758565b613a4b6139ff600483016103c0565b613a40613a3a613a35613a25613a17600888016103c0565b613a1f612893565b90613781565b613a2f60646137b9565b906137e9565b610199565b91610199565b10156009830161155f565b613a5960016007830161155f565b613a8a613a686001830161039c565b916003613a77600283016103c0565b9101613a81610187565b92839182613896565b03925af1613a966138e1565b50613963565b565b613aa7906135e1565b565b90505190613ab682610741565b565b90602082820312613ad157613ace915f01613aa9565b90565b610191565b613adf90610b80565b90565b613aeb90613ad6565b90565b613af790613ad6565b90565b90565b90613b12613b0d613b1992613aee565b613afa565b8254611c79565b9055565b613b2690610b80565b90565b613b3290613b1d565b90565b613b3e90613b1d565b90565b90565b90613b59613b54613b6092613b35565b613b41565b8254611c79565b9055565b613b6d90610b80565b90565b613b7990613b64565b90565b613b8590613b64565b90565b90565b90613ba0613b9b613ba792613b7c565b613b88565b8254611c79565b9055565b613bb490610b80565b90565b613bc090613bab565b90565b613bcc90613bab565b90565b90565b90613be7613be2613bee92613bc3565b613bcf565b8254611c79565b9055565b613bfb90610b80565b90565b613c0790613bf2565b90565b613c1390613bf2565b90565b90565b90613c2e613c29613c3592613c0a565b613c16565b8254611c79565b9055565b613c4a613c455f6120d5565b6120e2565b613c64613c5e613c595f61210a565b6105dd565b916105dd565b146142a157613c956020613c7f613c7a5f6120d5565b6120e2565b634162169f90613c8d610187565b938492611112565b82528180613ca5600482016107b4565b03915afa90811561429c57613ccc91613cc5915f9161426e575b50613ae2565b6001613afd565b613cf86020613ce2613cdd5f6120d5565b6120e2565b63b57dbdc690613cf0610187565b938492611112565b82528180613d08600482016107b4565b03915afa90811561426957613d2f91613d28915f9161423b575b50613b29565b6002613b44565b613d5b6020613d45613d405f6120d5565b6120e2565b63cfbffe5390613d53610187565b938492611112565b82528180613d6b600482016107b4565b03915afa90811561423657613d9291613d8b915f91614208575b50613b70565b6003613b8b565b613dbe6020613da8613da35f6120d5565b6120e2565b63ab6e844f90613db6610187565b938492611112565b82528180613dce600482016107b4565b03915afa90811561420357613df591613dee915f916141d5575b50613bb7565b6004613bd2565b613e216020613e0b613e065f6120d5565b6120e2565b639a7c407790613e19610187565b938492611112565b82528180613e31600482016107b4565b03915afa9081156141d057613e5891613e51915f916141a2575b50613bfe565b6005613c19565b613e846020613e6e613e695f6120d5565b6120e2565b63aa0ddc1690613e7c610187565b938492611112565b82528180613e94600482016107b4565b03915afa801561419d57613eb1915f9161416f575b506007611c94565b613edd6020613ec7613ec25f6120d5565b6120e2565b636b4aefc690613ed5610187565b938492611112565b82528180613eed600482016107b4565b03915afa801561416a57613f0a915f9161413c575b506008611c94565b613f366020613f20613f1b5f6120d5565b6120e2565b6324768d9190613f2e610187565b938492611112565b82528180613f46600482016107b4565b03915afa801561413757613f63915f91614109575b50600b611c94565b613f8f6020613f79613f745f6120d5565b6120e2565b636402742790613f87610187565b938492611112565b82528180613f9f600482016107b4565b03915afa801561410457613fbc915f916140d6575b506009611c94565b613fe86020613fd2613fcd5f6120d5565b6120e2565b6330125cf590613fe0610187565b938492611112565b82528180613ff8600482016107b4565b03915afa80156140d157614015915f916140a3575b50600a611c94565b614041602061402b6140265f6120d5565b6120e2565b63d3d1b09690614039610187565b938492611112565b82528180614051600482016107b4565b03915afa801561409e5761406e915f91614070575b506006611c94565b565b614091915060203d8111614097575b614089818361032d565b810190613ab8565b5f614066565b503d61407f565b611145565b6140c4915060203d81116140ca575b6140bc818361032d565b810190613ab8565b5f61400d565b503d6140b2565b611145565b6140f7915060203d81116140fd575b6140ef818361032d565b810190613ab8565b5f613fb4565b503d6140e5565b611145565b61412a915060203d8111614130575b614122818361032d565b810190613ab8565b5f613f5b565b503d614118565b611145565b61415d915060203d8111614163575b614155818361032d565b810190613ab8565b5f613f02565b503d61414b565b611145565b614190915060203d8111614196575b614188818361032d565b810190613ab8565b5f613ea9565b503d61417e565b611145565b6141c3915060203d81116141c9575b6141bb818361032d565b810190613ab8565b5f613e4b565b503d6141b1565b611145565b6141f6915060203d81116141fc575b6141ee818361032d565b810190613ab8565b5f613de8565b503d6141e4565b611145565b614229915060203d811161422f575b614221818361032d565b810190613ab8565b5f613d85565b503d614217565b611145565b61425c915060203d8111614262575b614254818361032d565b810190613ab8565b5f613d22565b503d61424a565b611145565b61428f915060203d8111614295575b614287818361032d565b810190613ab8565b5f613cbf565b503d61427d565b611145565b565b6142ab6117db565b506142d960206142c36142be60026110f9565b611106565b63262a9dff906142d1610187565b938492611112565b825281806142e9600482016107b4565b03915afa90811561432d575f916142ff575b5090565b614320915060203d8111614326575b614318818361032d565b810190611b75565b5f6142fb565b503d61430e565b611145565b50614360602061434a61434560026110f9565b611106565b636a276f9d90614358610187565b938492611112565b82528180614370600482016107b4565b03915afa80156144825761438b915f91614454575b5061191f565b6143cc60206143a261439d60026110f9565b611106565b6319c06429906143c133926143b5610187565b95869485938493611112565b835260048301610acd565b03915afa90811561444f575f91614421575b5080156143f1575b6143ef90612752565b565b506143ef6144076144026001611967565b611974565b614419614413336105dd565b916105dd565b1490506143e6565b614442915060203d8111614448575b61443a818361032d565b810190611127565b5f6143de565b503d614430565b611145565b614475915060203d811161447b575b61446d818361032d565b810190611127565b5f614385565b503d614463565b611145565b61449090614332565b56fea264697066735822122014f641bf272d6f93b67bf1754994a5300bc0d5552afe7b2a964b745eb66595f564736f6c634300081800336080604052346200002d576200001462000442565b6200001e62000033565b61506362000841823961506390f35b62000039565b60405190565b5f80fd5b601f801991011690565b634e487b7160e01b5f52604160045260245ffd5b9062000067906200003d565b810190811060018060401b038211176200008057604052565b62000047565b906200009d6200009562000033565b92836200005b565b565b620000ab606062000086565b90565b5f90565b5f90565b620000c06200009f565b906020808084620000d0620000ae565b815201620000dd620000b2565b815201620000ea620000b2565b81525050565b620000fa620000b6565b90565b151590565b906200010e90620000fd565b9052565b90565b90565b90565b620001346200012e6200013a9262000112565b62000118565b62000115565b90565b90620001499062000115565b9052565b60018060a01b031690565b620001716200016b62000177926200014d565b62000118565b6200014d565b90565b620001859062000158565b90565b62000193906200017a565b90565b90620001a29062000188565b5f5260205260405f2090565b620001ba9051620000fd565b90565b5f1b90565b90620001d060ff91620001bd565b9181191691161790565b620001e590620000fd565b90565b90565b9062000205620001ff6200020d92620001da565b620001e8565b8254620001c2565b9055565b6200021d905162000115565b90565b906200022e5f1991620001bd565b9181191691161790565b620002516200024b620002579262000115565b62000118565b62000115565b90565b90565b9062000277620002716200027f9262000238565b6200025a565b825462000220565b9055565b90620002d260406002620002d994620002ac5f8201620002a55f8801620001ae565b90620001eb565b620002c960018201620002c26020880162000211565b906200025d565b01920162000211565b906200025d565b565b90620002e79162000283565b565b90565b5f5260205f2090565b634e487b7160e01b5f52603260045260245ffd5b5490565b620003188162000309565b82101562000335576200032d600191620002ec565b910201905f90565b620002f5565b1b90565b91906008620003639102916200035c60018060a01b03846200033b565b926200033b565b9181191691161790565b90565b91906200038b62000385620003949362000188565b6200036d565b9083546200033f565b9055565b9081549168010000000000000000831015620003cd5782620003c4916001620003cb950181556200030d565b9062000370565b565b62000047565b90565b620003ef620003e9620003f592620003d3565b62000118565b62000115565b90565b90565b620004146200040e6200041a92620003f8565b62000118565b62000115565b90565b90565b62000439620004336200043f926200041d565b62000118565b62000115565b90565b620004a862000450620000f0565b6200045f60015f830162000102565b620004806200047667a688906bd8b000006200011b565b602083016200013d565b620004a260107355464e2df31e770145c6085a5e3874b3bcc5535b9062000196565b620002db565b620004d4620004b8600f620002e9565b7355464e2df31e770145c6085a5e3874b3bcc5535b9062000398565b6200053a620004e2620000f0565b620004f160015f830162000102565b6200051262000508677ce66c50e2840000620003d6565b602083016200013d565b62000534601073761d464d59fc4e5472b2ccfbf077cde7f683121d9062000196565b620002db565b620005666200054a600f620002e9565b73761d464d59fc4e5472b2ccfbf077cde7f683121d9062000398565b620005cc62000574620000f0565b6200058360015f830162000102565b620005a46200059a671bc16d674ec80000620003fb565b602083016200013d565b620005c66010737ab9df72fe514f374aa2e1153c0d04621794ab8f9062000196565b620002db565b620005f8620005dc600f620002e9565b737ab9df72fe514f374aa2e1153c0d04621794ab8f9062000398565b6200065e62000606620000f0565b6200061560015f830162000102565b620006366200062c67d02ab486cedc000062000420565b602083016200013d565b620006586010732f1614f6190bd3bd5731a8b6b37dae79aad84c159062000196565b620002db565b6200068a6200066e600f620002e9565b732f1614f6190bd3bd5731a8b6b37dae79aad84c159062000398565b620006ef62000698620000f0565b620006a760015f830162000102565b620006c8620006be67d02ab486cedc000062000420565b602083016200013d565b620006e960107289188449f0d4119715c9a10ea8955fb26ee3089062000196565b620002db565b6200071a620006ff600f620002e9565b7289188449f0d4119715c9a10ea8955fb26ee3089062000398565b6200078062000728620000f0565b6200073760015f830162000102565b620007586200074e671bc16d674ec80000620003fb565b602083016200013d565b6200077a601073dda88b1c86762f7b698f2b458f0ee4c6e92329ec9062000196565b620002db565b620007ac62000790600f620002e9565b73dda88b1c86762f7b698f2b458f0ee4c6e92329ec9062000398565b62000812620007ba620000f0565b620007c960015f830162000102565b620007ea620007e067a688906bd8b000006200011b565b602083016200013d565b6200080c601073610fdc323bf441e94d389ac0b33fd3eff3ea3bad9062000196565b620002db565b6200083e62000822600f620002e9565b73610fdc323bf441e94d389ac0b33fd3eff3ea3bad9062000398565b56fe60806040526004361015610018575b361561001657005b005b6100225f35610170565b806213eb4b1461016b5780630a1a0925146101665780630d43aaf21461016157806312065fe01461015c5780631c53c280146101575780632172b2d2146101525780632314c58e1461014d578063379a423c1461014857806341ffe7c4146101435780635edc4a891461013e57806360af454d1461013957806361ea7208146101345780638d2c50c31461012f5780638da5cb5b1461012a57806391bbb2c314610125578063abb8c96514610120578063b7fec78c1461011b578063b90306ad14610116578063d4dfd45614610111578063f31865cd1461010c5763f3fef3a30361000e57610ded565b610d8c565b610d57565b610cd9565b610ca2565b610b30565b610aac565b61095f565b61092c565b6107c7565b610794565b61076b565b610738565b610703565b6106da565b6106a2565b610577565b61044d565b6103ef565b610241565b610207565b60e01c90565b60405190565b5f80fd5b5f80fd5b5f80fd5b60018060a01b031690565b61019c90610188565b90565b6101a881610193565b036101af57565b5f80fd5b905035906101c08261019f565b565b906020828203126101db576101d8915f016101b3565b90565b610180565b151590565b6101ee906101e0565b9052565b9190610205905f602085019401906101e5565b565b346102375761023361022261021d3660046101c2565b610e1b565b61022a610176565b918291826101f2565b0390f35b61017c565b5f0190565b3461026f576102596102543660046101c2565b6110ec565b610261610176565b8061026b8161023c565b0390f35b61017c565b5f91031261027e57565b610180565b5f1c90565b60018060a01b031690565b61029f6102a491610283565b610288565b90565b6102b19054610293565b90565b60a01c90565b60ff1690565b6102cc6102d1916102b4565b6102ba565b90565b6102de90546102c0565b90565b60a81c90565b6102f36102f8916102e1565b6102ba565b90565b61030590546102e7565b90565b60b01c90565b61031a61031f91610308565b6102ba565b90565b61032c905461030e565b90565b60b81c90565b6103416103469161032f565b6102ba565b90565b6103539054610335565b90565b600d6103635f82016102a7565b9161036f5f83016102d4565b9161037b5f82016102fb565b916103925f61038b818501610322565b9301610349565b90565b61039e90610193565b9052565b909594926103ed946103dc6103e6926103d26080966103c860a088019c5f890190610395565b60208701906101e5565b60408501906101e5565b60608301906101e5565b01906101e5565b565b34610423576103ff366004610274565b61041f61040a610356565b91610416959395610176565b958695866103a2565b0390f35b61017c565b90565b61043490610428565b9052565b919061044b905f6020850194019061042b565b565b3461047d5761045d366004610274565b610479610468611514565b610470610176565b91829182610438565b0390f35b61017c565b61048b81610428565b0361049257565b5f80fd5b905035906104a382610482565b565b906020828203126104be576104bb915f01610496565b90565b610180565b634e487b7160e01b5f52603260045260245ffd5b5490565b5f5260205f2090565b6104ed816104d7565b821015610507576104ff6001916104db565b910201905f90565b6104c3565b1c90565b610520906008610525930261050c565b610288565b90565b906105339154610510565b90565b600f610541816104d7565b82101561055e5761055b91610555916104e4565b90610528565b90565b5f80fd5b9190610575905f60208501940190610395565b565b346105a7576105a361059261058d3660046104a5565b610536565b61059a610176565b91829182610562565b0390f35b61017c565b90565b6105c36105be6105c892610188565b6105ac565b610188565b90565b6105d4906105af565b90565b6105e0906105cb565b90565b906105ed906105d7565b5f5260205260405f2090565b61060561060a91610283565b6102ba565b90565b61061790546105f9565b90565b90565b61062961062e91610283565b61061a565b90565b61063b905461061d565b90565b6106499060106105e3565b6106545f820161060d565b9161066d600261066660018501610631565b9301610631565b90565b6040906106996106a0949695939661068f60608401985f8501906101e5565b602083019061042b565b019061042b565b565b346106d5576106d16106bd6106b83660046101c2565b61063e565b6106c8939193610176565b93849384610670565b0390f35b61017c565b6106ed6106e83660046101c2565b611978565b6106f5610176565b806106ff8161023c565b0390f35b346107335761072f61071e6107193660046101c2565b61206e565b610726610176565b918291826101f2565b0390f35b61017c565b346107665761075061074b3660046101c2565b6127bf565b610758610176565b806107628161023c565b0390f35b61017c565b61077e6107793660046101c2565b612a08565b610786610176565b806107908161023c565b0390f35b346107c2576107ac6107a73660046101c2565b612ea0565b6107b4610176565b806107be8161023c565b0390f35b61017c565b346107f7576107d7366004610274565b6107f36107e2612f03565b6107ea610176565b91829182610438565b0390f35b61017c565b5f80fd5b601f801991011690565b634e487b7160e01b5f52604160045260245ffd5b9061082890610800565b810190811067ffffffffffffffff82111761084257604052565b61080a565b9061085a610853610176565b928361081e565b565b67ffffffffffffffff81116108745760208091020190565b61080a565b5f80fd5b9092919261089261088d8261085c565b610847565b93818552602080860192028301928184116108cf57915b8383106108b65750505050565b602080916108c484866101b3565b8152019201916108a9565b610879565b9080601f830112156108f2578160206108ef9335910161087d565b90565b6107fc565b90602082820312610927575f82013567ffffffffffffffff81116109225761091f92016108d4565b90565b610184565b610180565b3461095a5761094461093f3660046108f7565b6132d0565b61094c610176565b806109568161023c565b0390f35b61017c565b3461098f5761096f366004610274565b61098b61097a6132df565b610982610176565b91829182610562565b0390f35b61017c565b67ffffffffffffffff81116109ac5760208091020190565b61080a565b909291926109c66109c182610994565b610847565b9381855260208086019202830192818411610a0357915b8383106109ea5750505050565b602080916109f88486610496565b8152019201916109dd565b610879565b9080601f83011215610a2657816020610a23933591016109b1565b90565b6107fc565b91606083830312610aa7575f83013567ffffffffffffffff8111610aa25782610a559185016108d4565b92602081013567ffffffffffffffff8111610a9d5783610a76918301610a08565b92604082013567ffffffffffffffff8111610a9857610a959201610a08565b90565b610184565b610184565b610184565b610180565b34610adb57610ac5610abf366004610a2b565b9161374d565b610acd610176565b80610ad78161023c565b0390f35b61017c565b610ae9816101e0565b03610af057565b5f80fd5b90503590610b0182610ae0565b565b9190604083820312610b2b5780610b1f610b28925f86016101b3565b93602001610af4565b90565b610180565b34610b5f57610b49610b43366004610b03565b90613ba5565b610b51610176565b80610b5b8161023c565b0390f35b61017c565b67ffffffffffffffff8111610b7c5760208091020190565b61080a565b90929192610b96610b9182610b64565b610847565b9381855260208086019202830192818411610bd357915b838310610bba5750505050565b60208091610bc88486610af4565b815201920191610bad565b610879565b9080601f83011215610bf657816020610bf393359101610b81565b90565b6107fc565b90608082820312610c9d575f82013567ffffffffffffffff8111610c985781610c259184016108d4565b92602083013567ffffffffffffffff8111610c935782610c46918501610a08565b92604081013567ffffffffffffffff8111610c8e5783610c67918301610a08565b92606082013567ffffffffffffffff8111610c8957610c869201610bd8565b90565b610184565b610184565b610184565b610184565b610180565b34610cd457610cbe610cb5366004610bfb565b92919091613ec3565b610cc6610176565b80610cd08161023c565b0390f35b61017c565b610cec610ce73660046104a5565b614054565b610cf4610176565b80610cfe8161023c565b0390f35b90610d0c906105d7565b5f5260205260405f2090565b610d28906008610d2d930261050c565b6102ba565b90565b90610d3b9154610d18565b90565b610d5490610d4f600e915f92610d02565b610d30565b90565b34610d8757610d83610d72610d6d3660046101c2565b610d3e565b610d7a610176565b918291826101f2565b0390f35b61017c565b34610dbb57610da5610d9f366004610a2b565b91614310565b610dad610176565b80610db78161023c565b0390f35b61017c565b9190604083820312610de85780610ddc610de5925f86016101b3565b93602001610496565b90565b610180565b610e01610dfb366004610dc0565b90614568565b610e09610176565b80610e138161023c565b0390f35b5f90565b5f610e33610e3992610e2b610e17565b5060106105e3565b0161060d565b90565b60209181520190565b5f7f70726d646174612e6e6f742e6578697374000000000000000000000000000000910152565b610e796011602092610e3c565b610e8281610e45565b0190565b610e9b9060208101905f818303910152610e6c565b90565b15610ea557565b610ead610176565b62461bcd60e51b815280610ec360048201610e86565b0390fd5b60018060a01b031690565b610ede610ee391610283565b610ec7565b90565b610ef09054610ed2565b90565b610efc906105cb565b90565b5f80fd5b60e01b90565b90505190610f168261019f565b565b90602082820312610f3157610f2e915f01610f09565b90565b610180565b610f3e610176565b3d5f823e3d90fd5b67ffffffffffffffff8111610f6457610f60602091610800565b0190565b61080a565b90610f7b610f7683610f46565b610847565b918252565b5f7f55736572546f496e737428616464726573732900000000000000000000000000910152565b610fb16013610f69565b90610fbe60208301610f80565b565b610fc8610fa7565b90565b610fd4906105af565b90565b610fe090610fcb565b90565b610fec906105cb565b90565b90505190610ffc82610482565b565b9060208282031261101757611014915f01610fef565b90565b610180565b5f90565b90565b61103761103261103c92611020565b6105ac565b610428565b90565b634e487b7160e01b5f52601160045260245ffd5b61105c90610428565b5f19811461106a5760010190565b61103f565b611078906105af565b90565b6110849061106f565b90565b611090906105cb565b90565b6110a26110a891939293610428565b92610428565b82018092116110b357565b61103f565b6110c76110cd91939293610428565b92610428565b82039182116110d857565b61103f565b5f9103126110e757565b610180565b906110fe6110f983610e1b565b610e9e565b61112a602061111461110f5f610ee6565b610ef3565b63447bf0e290611122610176565b938492610f03565b8252818061113a6004820161023c565b03915afa80156115035761116f61118c91611191935f916114d5575b5061117e86611163610176565b93849160208301610562565b6020820181038252038361081e565b611186610fc0565b906145e4565b610fd7565b6111b5602061119f83610fe3565b639659867e906111ad610176565b938492610f03565b825281806111c56004820161023c565b03915afa9081156114d0575f916114a2575b50916111e161101c565b936111ec6001611023565b945b856112016111fb87610428565b91610428565b116113205761123e602061121486610fe3565b636350b2c2906112338a92611227610176565b95869485938493610f03565b835260048301610438565b03915afa90811561131b5761126861126361127e936020935f916112ee575b5061107b565b611087565b63d92f24ae90611276610176565b938492610f03565b8252818061128e6004820161023c565b03915afa80156112e9576112b3926112ad925f926112b9575b50611093565b95611053565b946111ee565b6112db91925060203d81116112e2575b6112d3818361081e565b810190610ffe565b905f6112a7565b503d6112c9565b610f36565b61130e9150843d8111611314575b611306818361081e565b810190610f18565b5f61125d565b503d6112fc565b610f36565b92919450925061134a602061133483610fe3565b6375b4d78c90611342610176565b938492610f03565b8252818061135a6004820161023c565b03915afa90811561149d576113b19161137d915f9161146f575b50938490611093565b936113ab60026113a561139d6001611397601087906105e3565b01610631565b9360106105e3565b01610631565b90611093565b806113c46113be86610428565b91610428565b116113d0575b50505050565b6113ec6113df6113f293610fe3565b94630b98f97594926110b8565b90611093565b823b1561146a57611422926114175f809461140b610176565b96879586948593610f03565b835260048301610438565b03925af1801561146557611439575b8080806113ca565b611458905f3d811161145e575b611450818361081e565b8101906110dd565b5f611431565b503d611446565b610f36565b610eff565b611490915060203d8111611496575b611488818361081e565b810190610ffe565b5f611374565b503d61147e565b610f36565b6114c3915060203d81116114c9575b6114bb818361081e565b810190610ffe565b5f6111d7565b503d6114b1565b610f36565b6114f6915060203d81116114fc575b6114ee818361081e565b810190610f18565b5f611156565b503d6114e4565b610f36565b611511906105cb565b90565b61151c61101c565b5061152630611508565b3190565b5f7f6861734163746976617465642861646472657373290000000000000000000000910152565b61155b6015610f69565b906115686020830161152a565b565b611572611551565b90565b5f7f666f7267652e616c72656164792e616374697661746564000000000000000000910152565b6115a96017602092610e3c565b6115b281611575565b0190565b6115cb9060208101905f81830391015261159c565b90565b156115d557565b6115dd610176565b62461bcd60e51b8152806115f3600482016115b6565b0390fd5b5f7f70726d646174612e616c72656164792e61637469766174656400000000000000910152565b61162b6019602092610e3c565b611634816115f7565b0190565b61164d9060208101905f81830391015261161e565b90565b1561165757565b61165f610176565b62461bcd60e51b81528061167560048201611638565b0390fd5b5f7f70726d646174612e6e6f742e6578697473000000000000000000000000000000910152565b6116ad6011602092610e3c565b6116b681611679565b0190565b6116cf9060208101905f8183039101526116a0565b90565b60018060a01b031690565b6116e96116ee91610283565b6116d2565b90565b6116fb90546116dd565b90565b611707906105cb565b90565b611713906105af565b90565b61171f9061170a565b90565b61172b906105cb565b90565b90565b61174561174061174a9261172e565b6105ac565b610188565b90565b61175690611731565b90565b5f7f70726d646174612e696e76616c69642e6f6c646e657374656400000000000000910152565b61178d6019602092610e3c565b61179681611759565b0190565b6117af9060208101905f818303910152611780565b90565b90565b6117c96117c46117ce926117b2565b6105ac565b610428565b90565b634e487b7160e01b5f52601260045260245ffd5b6117f16117f791610428565b91610428565b908115611802570690565b6117d1565b5f0b90565b61181581611807565b0361181c57565b5f80fd5b9050519061182d8261180c565b565b9060208282031261184857611845915f01611820565b90565b610180565b61185690611023565b9052565b61188f6118969461188560609498979561187b608086019a5f870190610395565b602085019061042b565b604083019061184d565b019061042b565b565b6118ac6118a76118b19261172e565b6105ac565b610428565b90565b6118bd906105af565b90565b6118c9906118b4565b90565b6118d5906105cb565b90565b6118e1906105af565b90565b6118ed906118d8565b90565b6118f9906105cb565b90565b60409061192561192c949695939661191b60608401985f850190610395565b6020830190610395565b019061042b565b565b5f1b90565b9061193f60ff9161192e565b9181191691161790565b611952906101e0565b90565b90565b9061196d61196861197492611949565b611955565b8254611933565b9055565b6119a4602061198e6119895f610ee6565b610ef3565b63e7531fc09061199c610176565b938492610f03565b825281806119b46004820161023c565b03915afa90811561200457611a0a6119ed611a1593611a10935f91611fd6575b506119fc866119e1610176565b93849160208301610562565b6020820181038252038361081e565b611a0461156a565b9061465a565b156101e0565b6115ce565b611a3a611a35611a2f611a2a600e8590610d02565b61060d565b156101e0565b611650565b611a59611a535f611a4d601085906105e3565b0161060d565b156101e0565b611fb457611a8a6020611a74611a6f60036116f1565b6116fe565b63b252fbe190611a82610176565b938492610f03565b82528180611a9a6004820161023c565b03915afa908115611faf575f91611f81575b50611ac0611aba3492610428565b91610428565b1015611d02575b34611ada611ad45f611898565b91610428565b11611c4d575b611b0c6020611af6611af15f610ee6565b610ef3565b639623997590611b04610176565b938492610f03565b82528180611b1c6004820161023c565b03915afa908115611c4857611b4191611b3c915f91611c1a575b506118e4565b6118f0565b9063ece318c981611b52600c6102a7565b93611b8a611b6d6001611b67601088906105e3565b01610631565b611b846002611b7e601089906105e3565b01610631565b90611093565b92813b15611c15575f611bb091611bbb8296611ba4610176565b998a9788968795610f03565b8552600485016118fc565b03925af1918215611c1057611be292611be4575b50611bdd600191600e610d02565b611958565b565b611c03905f3d8111611c09575b611bfb818361081e565b8101906110dd565b5f611bcf565b503d611bf1565b610f36565b610eff565b611c3b915060203d8111611c41575b611c33818361081e565b810190610f18565b5f611b36565b503d611c29565b610f36565b611c796020611c63611c5e5f610ee6565b610ef3565b63c5a90db190611c71610176565b938492610f03565b82528180611c896004820161023c565b03915afa908115611cfd575f80611cb2611cad829583958491611ccf575b506118c0565b6118cc565b3490828215611cc6575bf1611ae057610f36565b506108fc611cbc565b611cf0915060203d8111611cf6575b611ce8818361081e565b810190610f18565b5f611ca7565b503d611cde565b610f36565b611d2e6020611d18611d135f610ee6565b610ef3565b63447aa30490611d26610176565b938492610f03565b82528180611d3e6004820161023c565b03915afa908115611f7c57611d68611d63611d92936020935f91611f4f575b50611716565b611722565b6345145fd790611d878592611d7b610176565b95869485938493610f03565b835260048301610562565b03915afa908115611f4a575f91611f1c575b5080611dc0611dba611db55f61174d565b610193565b91610193565b14611efa57611dd1611dd691610fd7565b610fe3565b611e0863c107930a916020611df2611ded5f610ee6565b610ef3565b63a5b277f290611e00610176565b948592610f03565b82528180611e186004820161023c565b03915afa908115611ef5576020925f92611ec6575b50611e755f611e59611e4942611e43600a6117b5565b906117e5565b611e536001611023565b90611093565b95611e8060013490611e69610176565b998a9889978896610f03565b86526004860161185a565b03925af18015611ec157611e95575b50611ac7565b611eb59060203d8111611eba575b611ead818361081e565b81019061182f565b611e8f565b503d611ea3565b610f36565b611ee7919250833d8111611eee575b611edf818361081e565b810190610f18565b905f611e2d565b503d611ed5565b610f36565b611f02610176565b62461bcd60e51b815280611f186004820161179a565b0390fd5b611f3d915060203d8111611f43575b611f35818361081e565b810190610f18565b5f611da4565b503d611f2b565b610f36565b611f6f9150843d8111611f75575b611f67818361081e565b810190610f18565b5f611d5d565b503d611f5d565b610f36565b611fa2915060203d8111611fa8575b611f9a818361081e565b810190610ffe565b5f611aac565b503d611f90565b610f36565b611fbc610176565b62461bcd60e51b815280611fd2600482016116ba565b0390fd5b611ff7915060203d8111611ffd575b611fef818361081e565b810190610f18565b5f6119d4565b503d611fe5565b610f36565b60018060a01b031690565b61202061202591610283565b612009565b90565b6120329054612014565b90565b61203e906105cb565b90565b9050519061204e82610ae0565b565b9060208282031261206957612066915f01612041565b90565b610180565b612076610e17565b506120b8602061208e6120896002612028565b612035565b6319c06429906120ad85926120a1610176565b95869485938493610f03565b835260048301610562565b03915afa90811561212a575f916120fc575b509081156120d7575b5090565b90506120f56120ef6120e9600c6102a7565b92610193565b91610193565b145f6120d3565b61211d915060203d8111612123575b612115818361081e565b810190612050565b5f6120ca565b503d61210b565b610f36565b5f7f6f776e2e696e76616c69642e6973536166650000000000000000000000000000910152565b6121636012602092610e3c565b61216c8161212f565b0190565b6121859060208101905f818303910152612156565b90565b1561218f57565b612197610176565b62461bcd60e51b8152806121ad60048201612170565b0390fd5b60018060a01b031690565b6121c86121cd91610283565b6121b1565b90565b6121da90546121bc565b90565b6121e6906105cb565b90565b5f7f6f776d2e66616b652e2064656c65676174650000000000000000000000000000910152565b61221d6012602092610e3c565b612226816121e9565b0190565b61223f9060208101905f818303910152612210565b90565b1561224957565b612251610176565b62461bcd60e51b8152806122676004820161222a565b0390fd5b612298602061228261227d6002612028565b612035565b636a276f9d90612290610176565b938492610f03565b825281806122a86004820161023c565b03915afa80156123ca576122c3915f9161239c575b50612188565b6122d56122d060016121d0565b6121dd565b6122e76122e133610193565b91610193565b14908115612303575b6122fc61230192612242565b612680565b565b6123469150602061231c6123176002612028565b612035565b637df73e279061233b339261232f610176565b96879485938493610f03565b835260048301610562565b03915afa91821561239757612301926122fc915f91612369575b509250506122f0565b61238a915060203d8111612390575b612382818361081e565b810190612050565b5f612360565b503d612378565b610f36565b6123bd915060203d81116123c3575b6123b5818361081e565b810190612050565b5f6122bd565b503d6123ab565b610f36565b6123d960a0610847565b90565b5f90565b5f90565b6123ec6123cf565b90602080808080866123fc6123dc565b8152016124076123e0565b8152016124126123e0565b81520161241d6123e0565b8152016124286123e0565b81525050565b6124366123e4565b90565b90612443906101e0565b9052565b90565b61245e61245961246392612447565b6105ac565b610428565b90565b90565b61247d61247861248292612466565b6105ac565b610428565b90565b9061248f90610193565b9052565b634e487b7160e01b5f525f60045260245ffd5b6124b09051610193565b90565b906124c460018060a01b039161192e565b9181191691161790565b90565b906124e66124e16124ed926105d7565b6124ce565b82546124b3565b9055565b6124fb90516101e0565b90565b60a01b90565b9061251360ff60a01b916124fe565b9181191691161790565b9061253261252d61253992611949565b611955565b8254612504565b9055565b60a81b90565b9061255260ff60a81b9161253d565b9181191691161790565b9061257161256c61257892611949565b611955565b8254612543565b9055565b60b01b90565b9061259160ff60b01b9161257c565b9181191691161790565b906125b06125ab6125b792611949565b611955565b8254612582565b9055565b60b81b90565b906125d060ff60b81b916125bb565b9181191691161790565b906125ef6125ea6125f692611949565b611955565b82546125c1565b9055565b9061266c60805f6126729461261c8282016126168488016124a6565b906124d1565b61263482820161262e602088016124f1565b9061251d565b61264c828201612646604088016124f1565b9061255c565b61266482820161265e606088016124f1565b9061259b565b0192016124f1565b906125da565b565b9061267e916125fa565b565b6126c29060206126986126936002612028565b612035565b631d84be44906126b733926126ab610176565b96879485938493610f03565b835260048301610562565b03915afa9182156127ba576127519261274a915f9161278c575b50916126e661242e565b926126f5600160208601612439565b806127096127036001611023565b91610428565b14612779575b8061272361271d600261244a565b91610428565b14612766575b61273c6127366003612469565b91610428565b14612753575b5f8301612485565b600d612674565b565b612761600160808501612439565b612742565b612774600160608601612439565b612729565b612787600160408601612439565b61270f565b6127ad915060203d81116127b3575b6127a5818361081e565b810190610ffe565b5f6126dc565b503d61279b565b610f36565b6127c89061226b565b565b5f7f70726d646174612e6e6f2e6d736776616c756500000000000000000000000000910152565b6127fe6013602092610e3c565b612807816127ca565b0190565b6128209060208101905f8183039101526127f1565b90565b5f7f70726d646174612e696e76616c69642e74617272696600000000000000000000910152565b6128576016602092610e3c565b61286081612823565b0190565b6128799060208101905f81830391015261284a565b90565b1561288357565b61288b610176565b62461bcd60e51b8152806128a160048201612864565b0390fd5b5f7f70726d646174612e696e76616c69642e6e65776e657374656400000000000000910152565b6128d96019602092610e3c565b6128e2816128a5565b0190565b6128fb9060208101905f8183039101526128cc565b90565b67ffffffffffffffff811161291c57612918602091610800565b0190565b61080a565b9061293361292e836128fe565b610847565b918252565b369037565b9061296261294a83612921565b9260208061295886936128fe565b9201910390612938565b565b5f7f69626b70726d2829000000000000000000000000000000000000000000000000910152565b6129956008610f69565b906129a260208301612964565b565b6129ac61298b565b90565b5f7f70726d646174612e696e76616c69642e63616c6c657200000000000000000000910152565b6129e36016602092610e3c565b6129ec816129af565b0190565b612a059060208101905f8183039101526129d6565b90565b612a1c612a17600e8390610d02565b61060d565b612db557612a3f612a395f612a33601085906105e3565b0161060d565b156101e0565b612d935734612a56612a505f611898565b91610428565b14612d7157612a886020612a72612a6d60036116f1565b6116fe565b63b252fbe190612a80610176565b938492610f03565b82528180612a986004820161023c565b03915afa8015612d6c57612ac8915f91612d3e575b50612ac1612abb3492610428565b91610428565b101561287c565b612af46020612ade612ad95f610ee6565b610ef3565b63ab6e844f90612aec610176565b938492610f03565b82528180612b046004820161023c565b03915afa908115612d3957612b2e612b29612b58936020935f91612d0c575b50611716565b611722565b6345145fd790612b4d8592612b41610176565b95869485938493610f03565b835260048301610562565b03915afa908115612d07575f91612cd9575b5080612b86612b80612b7b5f61174d565b610193565b91610193565b14612cb757612baf90612ba0612b9b5f611898565b61293d565b90612ba96129a4565b906145e4565b612bc2612bbc3392610193565b91610193565b03612c9557612bf36020612bdd612bd85f610ee6565b610ef3565b63c5a90db190612beb610176565b938492610f03565b82528180612c036004820161023c565b03915afa908115612c90575f80612c2c612c27829583958491612c62575b506118c0565b6118cc565b3490828215612c59575bf115612c5457612c5290612c4d600191600e610d02565b611958565b565b610f36565b506108fc612c36565b612c83915060203d8111612c89575b612c7b818361081e565b810190610f18565b5f612c21565b503d612c71565b610f36565b612c9d610176565b62461bcd60e51b815280612cb3600482016129f0565b0390fd5b612cbf610176565b62461bcd60e51b815280612cd5600482016128e6565b0390fd5b612cfa915060203d8111612d00575b612cf2818361081e565b810190610f18565b5f612b6a565b503d612ce8565b610f36565b612d2c9150843d8111612d32575b612d24818361081e565b810190610f18565b5f612b23565b503d612d1a565b610f36565b612d5f915060203d8111612d65575b612d57818361081e565b810190610ffe565b5f612aad565b503d612d4d565b610f36565b612d79610176565b62461bcd60e51b815280612d8f6004820161280b565b0390fd5b612d9b610176565b62461bcd60e51b815280612db1600482016116ba565b0390fd5b612dbd610176565b62461bcd60e51b815280612dd360048201611638565b0390fd5b5f7f6f776e2e686578626173652e6661696c65640000000000000000000000000000910152565b612e0b6012602092610e3c565b612e1481612dd7565b0190565b612e2d9060208101905f818303910152612dfe565b90565b15612e3757565b612e3f610176565b62461bcd60e51b815280612e5560048201612e18565b0390fd5b612e62906105af565b90565b612e6e90612e59565b90565b612e7a90612e59565b90565b90565b90612e95612e90612e9c92612e71565b612e7d565b82546124b3565b9055565b612ef3612eee612ef992612ede612ebe612eb95f610ee6565b610ef3565b612ed8612ed2612ecd5f61174d565b610193565b91610193565b14612e30565b612ee932600c6124d1565b6118c0565b612e65565b5f612e80565b612f01614812565b565b612f0b61101c565b50612f16600f6104d7565b90565b5f7f496e76616c696420536166654f776e6572000000000000000000000000000000910152565b612f4d6011602092610e3c565b612f5681612f19565b0190565b612f6f9060208101905f818303910152612f40565b90565b15612f7957565b612f81610176565b62461bcd60e51b815280612f9760048201612f5a565b0390fd5b612fc9906020612fb3612fae6002612028565b612035565b636a276f9d90612fc1610176565b948592610f03565b82528180612fd96004820161023c565b03915afa9182156130bf5761303792612ff9915f91613091575b50612188565b602061300d6130086002612028565b612035565b6319c064299061302c3392613020610176565b96879485938493610f03565b835260048301610562565b03915afa91821561308c5761305c92613057915f9161305e575b50612f72565b6131e3565b565b61307f915060203d8111613085575b613077818361081e565b810190612050565b5f613051565b503d61306d565b610f36565b6130b2915060203d81116130b8575b6130aa818361081e565b810190612050565b5f612ff3565b503d6130a0565b610f36565b60016130d09101610428565b90565b5190565b906130e1826130d3565b8110156130f2576020809102010190565b6104c3565b906131035f199161192e565b9181191691161790565b61312161311c61312692610428565b6105ac565b610428565b90565b90565b9061314161313c6131489261310d565b613129565b82546130f7565b9055565b1b90565b9190600861316b9102916131655f198461314c565b9261314c565b9181191691161790565b919061318b6131866131939361310d565b613129565b908354613150565b9055565b6131a9916131a361101c565b91613175565b565b5f60026131ca9282808201556131c48360018301613197565b01613197565b565b905f036131de576131dc906131ab565b565b612493565b906131ed5f611898565b5b806132096132036131fe866130d3565b610428565b91610428565b10156132cb576132c69061323661323161322c6132278785906130d7565b6124a6565b610e1b565b610e9e565b6132686132425f611898565b6001613262601061325c6132578a88906130d7565b6124a6565b906105e3565b0161312c565b61329a6132745f611898565b6002613294601061328e6132898a88906130d7565b6124a6565b906105e3565b0161312c565b6132c15f6132bc60106132b66132b18987906130d7565b6124a6565b906105e3565b6131cc565b6130c4565b6131ee565b509050565b6132d990612f9b565b565b5f90565b6132e76132db565b506132f2600c6102a7565b90565b906133259291602061330f61330a6002612028565b612035565b636a276f9d9061331d610176565b968792610f03565b825281806133356004820161023c565b03915afa93841561341b5761339394613355915f916133ed575b50612188565b60206133696133646002612028565b612035565b6319c0642990613388339261337c610176565b98899485938493610f03565b835260048301610562565b03915afa9384156133e8576133b8946133b3915f916133ba575b50612f72565b613640565b565b6133db915060203d81116133e1575b6133d3818361081e565b810190612050565b5f6133ad565b503d6133c9565b610f36565b61340e915060203d8111613414575b613406818361081e565b810190612050565b5f61334f565b503d6133fc565b610f36565b5f7f70726d646174612e616c72656164792e65786973740000000000000000000000910152565b6134546015602092610e3c565b61345d81613420565b0190565b6134769060208101905f818303910152613447565b90565b1561348057565b613488610176565b62461bcd60e51b81528061349e60048201613461565b0390fd5b6134ac6060610847565b90565b5f90565b6134bb6134a2565b9060208080846134c96123e0565b8152016134d46134af565b8152016134df6134af565b81525050565b6134ed6134b3565b90565b5190565b906134fe826134f0565b81101561350f576020809102010190565b6104c3565b61351e9051610428565b90565b9061352b90610428565b9052565b9061357360406002613579946135525f820161354c5f88016124f1565b90611958565b61356b6001820161356560208801613514565b9061312c565b019201613514565b9061312c565b565b906135859161352f565b565b90565b5f5260205f2090565b5490565b6135a081613593565b8210156135ba576135b260019161358a565b910201905f90565b6104c3565b919060086135df9102916135d960018060a01b038461314c565b9261314c565b9181191691161790565b91906135ff6135fa613607936105d7565b6124ce565b9083546135bf565b9055565b908154916801000000000000000083101561363b578261363391600161363995018155613597565b906135e9565b565b61080a565b929161364b5f611898565b5b8061366761366161365c886130d3565b610428565b91610428565b1015613746576137419061369d61369861369261368d6136888a86906130d7565b6124a6565b610e1b565b156101e0565b613479565b6137166136a86134e5565b6136b560015f8301612439565b6136d46136cb6136c68886906134f4565b613514565b60208301613521565b6136f36136ea6136e58786906134f4565b613514565b60408301613521565b613711601061370b6137068b87906130d7565b6124a6565b906105e3565b61357b565b61373c613723600f613587565b6137366137318985906130d7565b6124a6565b9061360b565b6130c4565b61364c565b5050509050565b9061375892916132f5565b565b90613788602061377261376d6002612028565b612035565b636a276f9d90613780610176565b938492610f03565b825281806137986004820161023c565b03915afa80156138ba576137b3915f9161388c575b50612188565b6137c56137c060016121d0565b6121dd565b6137d76137d133610193565b91610193565b149182156137f3575b6137ec6137f193612242565b6138bf565b565b6138369250602061380c6138076002612028565b612035565b637df73e279061382b339261381f610176565b97889485938493610f03565b835260048301610562565b03915afa928315613887576137f1936137ec915f91613859575b509350506137e0565b61387a915060203d8111613880575b613872818361081e565b810190612050565b5f613850565b503d613868565b610f36565b6138ad915060203d81116138b3575b6138a5818361081e565b810190612050565b5f6137ad565b503d61389b565b610f36565b905f14613b8d5761390760206138dd6138d86002612028565b612035565b631d84be44906138fc33926138f0610176565b95869485938493610f03565b835260048301610562565b03915afa908115613b88575f91613b5a575b506139265f600d016102d4565b80613b3f575b80613b1a575b613b07575b6139435f600d016102d4565b80613aec575b80613ac7575b613ab4575b6139605f600d016102d4565b9081613a98575b5080613a73575b613a60575b61397c5f611898565b6139885f600d016102fb565b613a52575b6139995f600d01610322565b613a44575b6139aa5f600d01610349565b613a36575b6139bb5f600d016102d4565b9081613a1a575b50806139f5575b6139d2575b505b565b6139dd90600c6124d1565b6139ef6139e861242e565b600d612674565b5f6139ce565b50613a025f600d016102a7565b613a14613a0e83610193565b91610193565b146139c9565b9050613a2f613a29600261244a565b91610428565b145f6139c2565b613a3f90611053565b6139af565b613a4d90611053565b61399e565b613a5b90611053565b61398d565b613a6e60015f600d016125da565b613973565b50613a805f600d016102a7565b613a92613a8c83610193565b91610193565b1461396e565b9050613aad613aa76003612469565b91610428565b145f613967565b613ac260015f600d0161259b565b613954565b50613ad45f600d016102a7565b613ae6613ae084610193565b91610193565b1461394f565b5080613b01613afb600261244a565b91610428565b14613949565b613b1560015f600d0161255c565b613937565b50613b275f600d016102a7565b613b39613b3384610193565b91610193565b14613932565b5080613b54613b4e6001611023565b91610428565b1461392c565b613b7b915060203d8111613b81575b613b73818361081e565b810190610ffe565b5f613919565b503d613b69565b610f36565b50613ba0613b9961242e565b600d612674565b6139d0565b90613baf9161375a565b565b90613be29392916020613bcc613bc76002612028565b612035565b636a276f9d90613bda610176565b978892610f03565b82528180613bf26004820161023c565b03915afa948515613cd857613c5095613c12915f91613caa575b50612188565b6020613c26613c216002612028565b612035565b6319c0642990613c453392613c39610176565b998a9485938493610f03565b835260048301610562565b03915afa948515613ca557613c7595613c70915f91613c77575b50612f72565b613d01565b565b613c98915060203d8111613c9e575b613c90818361081e565b810190612050565b5f613c6a565b503d613c86565b610f36565b613ccb915060203d8111613cd1575b613cc3818361081e565b810190612050565b5f613c0c565b503d613cb9565b610f36565b5190565b90613ceb82613cdd565b811015613cfc576020809102010190565b6104c3565b909392613d0d5f611898565b5b80613d29613d23613d1e866130d3565b610428565b91610428565b1015613ebb57613e1390613d56613d51613d4c613d478785906130d7565b6124a6565b610e1b565b610e9e565b613d69613d64848390613ce1565b6124f1565b5f14613e1857613dbe613d85613d808984906134f4565b613514565b613db86001613da86010613da2613d9d8b89906130d7565b6124a6565b906105e3565b0191613db383610631565b611093565b9061312c565b613e0d613dd4613dcf8784906134f4565b613514565b613e076002613df76010613df1613dec8b89906130d7565b6124a6565b906105e3565b0191613e0283610631565b611093565b9061312c565b5b6130c4565b613d0e565b613e67613e2e613e298984906134f4565b613514565b613e616001613e516010613e4b613e468b89906130d7565b6124a6565b906105e3565b0191613e5c83610631565b6110b8565b9061312c565b613eb6613e7d613e788784906134f4565b613514565b613eb06002613ea06010613e9a613e958b89906130d7565b6124a6565b906105e3565b0191613eab83610631565b6110b8565b9061312c565b613e0e565b505050509050565b90613ecf939291613bb1565b565b5f7f6f776e2e6e6f6e617574682e44414f0000000000000000000000000000000000910152565b613f05600f602092610e3c565b613f0e81613ed1565b0190565b613f279060208101905f818303910152613ef8565b90565b15613f3157565b613f39610176565b62461bcd60e51b815280613f4f60048201613f12565b0390fd5b613f81906020613f6b613f666002612028565b612035565b636a276f9d90613f79610176565b948592610f03565b82528180613f916004820161023c565b03915afa91821561401357613fe392613fb1915f91613fe5575b50612188565b613fde613fc6613fc160016121d0565b6121dd565b613fd8613fd233610193565b91610193565b14613f2a565b614018565b565b614006915060203d811161400c575b613ffe818361081e565b810190612050565b5f613fab565b503d613ff4565b610f36565b5f8080809361403661403161402c8461174d565b6118c0565b6118cc565b82821561404b575bf11561404657565b610f36565b506108fc61403e565b61405d90613f53565b565b9061408f929160206140796140746002612028565b612035565b636a276f9d90614087610176565b968792610f03565b8252818061409f6004820161023c565b03915afa938415614185576140fd946140bf915f91614157575b50612188565b60206140d36140ce6002612028565b612035565b6319c06429906140f233926140e6610176565b98899485938493610f03565b835260048301610562565b03915afa938415614152576141229461411d915f91614124575b50612f72565b61418a565b565b614145915060203d811161414b575b61413d818361081e565b810190612050565b5f614117565b503d614133565b610f36565b614178915060203d811161417e575b614170818361081e565b810190612050565b5f6140b9565b503d614166565b610f36565b6141935f611898565b5b806141af6141a96141a4856130d3565b610428565b91610428565b101561430a57614288906141dd6141d76141d26141cd8685906130d7565b6124a6565b610e1b565b156101e0565b5f1461428d5761425c6141ee6134e5565b6141fb60015f8301612439565b61421a61421161420c8886906134f4565b613514565b60208301613521565b61423961423061422b8986906134f4565b613514565b60408301613521565b614257601061425161424c8887906130d7565b6124a6565b906105e3565b61357b565b614282614269600f613587565b61427c6142778685906130d7565b6124a6565b9061360b565b5b6130c4565b614194565b6142c96142a361429e8684906134f4565b613514565b60016142c360106142bd6142b88988906130d7565b6124a6565b906105e3565b0161312c565b6143056142df6142da8784906134f4565b613514565b60026142ff60106142f96142f48988906130d7565b6124a6565b906105e3565b0161312c565b614283565b50505050565b9061431b929161405f565b565b5f7f6f776e2e64656661756c742e73656e6465720000000000000000000000000000910152565b6143516012602092610e3c565b61435a8161431d565b0190565b6143739060208101905f818303910152614344565b90565b1561437d57565b614385610176565b62461bcd60e51b81528061439b6004820161435e565b0390fd5b906143ce916143c9816143c26143bc6143b75f61174d565b610193565b91610193565b1415614376565b6143d0565b565b906143ff9160206143e96143e46002612028565b612035565b636a276f9d906143f7610176565b958692610f03565b8252818061440f6004820161023c565b03915afa928315614491576144619361442f915f91614463575b50612188565b61445c61444461443f60016121d0565b6121dd565b61445661445033610193565b91610193565b14613f2a565b614518565b565b614484915060203d811161448a575b61447c818361081e565b810190612050565b5f614429565b503d614472565b610f36565b5f7f6f776e2e696e76616c69642e616d6f756e740000000000000000000000000000910152565b6144ca6012602092610e3c565b6144d381614496565b0190565b6144ec9060208101905f8183039101526144bd565b90565b156144f657565b6144fe610176565b62461bcd60e51b815280614514600482016144d7565b0390fd5b5f80809361454a61454583956145408461453a61453488611898565b91610428565b116144ef565b6118c0565b6118cc565b82821561455f575bf11561455a57565b610f36565b506108fc614552565b906145729161439f565b565b5190565b90565b61458f61458a61459492614578565b6105ac565b610428565b90565b6145a090610188565b90565b6145ac81614597565b036145b357565b5f80fd5b905051906145c4826145a3565b565b906020828203126145df576145dc915f016145b7565b90565b610180565b9291906145fc916145f36132db565b94919091614f4a565b9080614637575b61460b575b50565b61463091925061462b90602061462082614574565b8183010191016145c6565b6118cc565b905f614608565b5061464181614574565b61465461464e602061457b565b91610428565b14614603565b92919061467291614669610e17565b94919091614f4a565b90806146a4575b614681575b50565b61469d919250602061469282614574565b818301019101612050565b905f61467e565b506146ae81614574565b6146c16146bb602061457b565b91610428565b14614679565b6146d0906105af565b90565b6146dc906146c7565b90565b6146e8906146c7565b90565b90565b906147036146fe61470a926146df565b6146eb565b82546124b3565b9055565b614717906105af565b90565b6147239061470e565b90565b61472f9061470e565b90565b90565b9061474a61474561475192614726565b614732565b82546124b3565b9055565b61475e906105af565b90565b61476a90614755565b90565b61477690614755565b90565b90565b9061479161478c6147989261476d565b614779565b82546124b3565b9055565b6147a59061170a565b90565b90565b906147c06147bb6147c79261479c565b6147a8565b82546124b3565b9055565b6147d4906105af565b90565b6147e0906147cb565b90565b6147ec906147cb565b90565b90565b9061480761480261480e926147e3565b6147ef565b82546124b3565b9055565b61482361481e5f610ee6565b610ef3565b61483d6148376148325f61174d565b610193565b91610193565b14614e7a5761486e60206148586148535f610ee6565b610ef3565b634162169f90614866610176565b938492610f03565b8252818061487e6004820161023c565b03915afa908115614e75576148a59161489e915f91614e47575b506146d3565b60016146ee565b6148d160206148bb6148b65f610ee6565b610ef3565b63b57dbdc6906148c9610176565b938492610f03565b825281806148e16004820161023c565b03915afa908115614e425761490891614901915f91614e14575b5061471a565b6002614735565b614934602061491e6149195f610ee6565b610ef3565b63cfbffe539061492c610176565b938492610f03565b825281806149446004820161023c565b03915afa908115614e0f5761496b91614964915f91614de1575b50614761565b600361477c565b614997602061498161497c5f610ee6565b610ef3565b63ab6e844f9061498f610176565b938492610f03565b825281806149a76004820161023c565b03915afa908115614ddc576149ce916149c7915f91614dae575b50611716565b60046147ab565b6149fa60206149e46149df5f610ee6565b610ef3565b639a7c4077906149f2610176565b938492610f03565b82528180614a0a6004820161023c565b03915afa908115614da957614a3191614a2a915f91614d7b575b506147d7565b60056147f2565b614a5d6020614a47614a425f610ee6565b610ef3565b63aa0ddc1690614a55610176565b938492610f03565b82528180614a6d6004820161023c565b03915afa8015614d7657614a8a915f91614d48575b5060076124d1565b614ab66020614aa0614a9b5f610ee6565b610ef3565b636b4aefc690614aae610176565b938492610f03565b82528180614ac66004820161023c565b03915afa8015614d4357614ae3915f91614d15575b5060086124d1565b614b0f6020614af9614af45f610ee6565b610ef3565b6324768d9190614b07610176565b938492610f03565b82528180614b1f6004820161023c565b03915afa8015614d1057614b3c915f91614ce2575b50600b6124d1565b614b686020614b52614b4d5f610ee6565b610ef3565b636402742790614b60610176565b938492610f03565b82528180614b786004820161023c565b03915afa8015614cdd57614b95915f91614caf575b5060096124d1565b614bc16020614bab614ba65f610ee6565b610ef3565b6330125cf590614bb9610176565b938492610f03565b82528180614bd16004820161023c565b03915afa8015614caa57614bee915f91614c7c575b50600a6124d1565b614c1a6020614c04614bff5f610ee6565b610ef3565b63d3d1b09690614c12610176565b938492610f03565b82528180614c2a6004820161023c565b03915afa8015614c7757614c47915f91614c49575b5060066124d1565b565b614c6a915060203d8111614c70575b614c62818361081e565b810190610f18565b5f614c3f565b503d614c58565b610f36565b614c9d915060203d8111614ca3575b614c95818361081e565b810190610f18565b5f614be6565b503d614c8b565b610f36565b614cd0915060203d8111614cd6575b614cc8818361081e565b810190610f18565b5f614b8d565b503d614cbe565b610f36565b614d03915060203d8111614d09575b614cfb818361081e565b810190610f18565b5f614b34565b503d614cf1565b610f36565b614d36915060203d8111614d3c575b614d2e818361081e565b810190610f18565b5f614adb565b503d614d24565b610f36565b614d69915060203d8111614d6f575b614d61818361081e565b810190610f18565b5f614a82565b503d614d57565b610f36565b614d9c915060203d8111614da2575b614d94818361081e565b810190610f18565b5f614a24565b503d614d8a565b610f36565b614dcf915060203d8111614dd5575b614dc7818361081e565b810190610f18565b5f6149c1565b503d614dbd565b610f36565b614e02915060203d8111614e08575b614dfa818361081e565b810190610f18565b5f61495e565b503d614df0565b610f36565b614e35915060203d8111614e3b575b614e2d818361081e565b810190610f18565b5f6148fb565b503d614e23565b610f36565b614e68915060203d8111614e6e575b614e60818361081e565b810190610f18565b5f614898565b503d614e56565b610f36565b565b606090565b614e8a5f610f69565b90565b614e95614e81565b90565b90565b60200190565b63ffffffff60e01b1690565b614eb690614ea1565b90565b905090565b5f5b838110614ed0575050905f910152565b806020918301518185015201614ec0565b614f06614efd92602092614ef481614574565b94858093614eb9565b93849101614ebe565b0190565b614f1890614f1e9392614ee1565b90614ee1565b90565b3d5f14614f3c57614f313d612921565b903d5f602084013e5b565b614f44614e7c565b90614f3a565b614f52610e17565b50614f5b614e7c565b50803b614f70614f6a5f611898565b91610428565b1461501d5760046150085f94614fe18695614fb787614fb1614f99614f93610176565b94614e98565b614fab614fa582614574565b91614e9b565b20614ead565b9261081e565b614fd2614fc2610176565b958692602084019081520161023c565b6020820181038252038461081e565b91614ff9614fed610176565b93849260208401614f0a565b6020820181038252038261081e565b602081019051915afa615019614f21565b9091565b5050505f9061502a614e8d565b9056fea26469706673582212200a690df18340782db796f39ecf6c2d4a8ebdf04d2d268e408b63f45cac41e8da64736f6c634300081800336080604052346200002d576200001462000140565b6200001e62000033565b611a1f6200023d8239611a1f90f35b62000039565b60405190565b5f80fd5b5f1b90565b906200005560018060a01b03916200003d565b9181191691161790565b60018060a01b031690565b90565b62000086620000806200008c926200005f565b6200006a565b6200005f565b90565b6200009a906200006d565b90565b620000a8906200008f565b90565b90565b90620000c8620000c2620000d0926200009d565b620000ab565b825462000042565b9055565b90620000e0906200009d565b5f5260205260405f2090565b90620000fa60ff916200003d565b9181191691161790565b151590565b620001149062000104565b90565b90565b90620001346200012e6200013c9262000109565b62000117565b8254620000ec565b9055565b6200016173c0cee8b561cc4f60869776ca5b0b7a295e04f5af6011620000ae565b62000182739f33b44587a57758c1413dbab6640f6abea5cef46012620000ae565b620001a3730239667fa9f2269e36f32daf2ab391dc1ad937386013620000ae565b620001c473648565deb50c503ef59860d92942eaece0c3e1726014620000ae565b620001e573085052532254e12989413f7c84dd32686bce74e16015620000ae565b620002067379e98cabb23b776a61983e13bf8753c2106cafae6016620000ae565b6200022060016200021a60173290620000d4565b6200011a565b6200023a60016200023460173390620000d4565b6200011a565b56fe60806040526004361015610018575b361561001657005b005b6100225f35610341565b806301c0d48b1461033c57806305abae0d146103375780630c46c9e9146103325780631162a5b11461032d578063130fba6d146103285780631b67970a14610323578063236b04021461031e57806323d02da214610319578063242fca551461031457806324768d911461030f578063275424d01461030a57806328b3ab9c146103055780632f54bf6e1461030057806330125cf5146102fb578063313c5fdc146102f657806336c24c46146102f15780634162169f146102ec578063447aa304146102e7578063447bf0e2146102e25780635f7ba561146102dd57806364027427146102d857806364d93c62146102d357806366658584146102ce5780636b4aefc6146102c95780637065cb48146102c457806374fad9f9146102bf578063753e7d33146102ba5780637c27dd0c146102b5578063839a47a4146102b05780638852b1eb146102ab57806396239975146102a657806396e85ced146102a15780639a7c40771461029c5780639f56383e14610297578063a5b277f214610292578063aa0ddc161461028d578063ab6e844f14610288578063aeb1402014610283578063af2331901461027e578063b0788f8414610279578063b57dbdc614610274578063bcb6c0b51461026f578063c5a90db11461026a578063cfbffe5314610265578063d05a565114610260578063d3d1b0961461025b578063d62bab3414610256578063e257681914610251578063e61dfd581461024c5763e7531fc00361000e57611090565b61104c565b61100a565b610fd5565b610f91565b610f4f565b610f1a565b610ed6565b610e94565b610e5f565b610e1d565b610de8565b610da6565b610d71565b610d2d565b610ce9565b610ca5565b610c61565b610c1f565b610bea565b610ba8565b610b75565b610b40565b610afe565b610acb565b610a98565b610a63565b610a21565b6109e5565b610955565b610913565b6108de565b61089a565b610856565b610816565b6107e3565b6107ae565b61076a565b610701565b610638565b610603565b6105c1565b61058e565b61055b565b610528565b6104f5565b6104c2565b61048f565b61045c565b6103e1565b60e01c90565b60405190565b5f80fd5b5f80fd5b5f91031261035f57565b610351565b1c90565b60018060a01b031690565b6103839060086103889302610364565b610368565b90565b906103969154610373565b90565b6103a5600e5f9061038b565b90565b60018060a01b031690565b6103bc906103a8565b90565b6103c8906103b3565b9052565b91906103df905f602085019401906103bf565b565b34610411576103f1366004610355565b61040d6103fc610399565b610404610347565b918291826103cc565b0390f35b61034d565b61041f816103b3565b0361042657565b5f80fd5b9050359061043782610416565b565b906020828203126104525761044f915f0161042a565b90565b610351565b5f0190565b3461048a5761047461046f366004610439565b611240565b61047c610347565b8061048681610457565b0390f35b61034d565b346104bd576104a76104a2366004610439565b61127f565b6104af610347565b806104b981610457565b0390f35b61034d565b346104f0576104da6104d5366004610439565b6112be565b6104e2610347565b806104ec81610457565b0390f35b61034d565b346105235761050d610508366004610439565b6112fd565b610515610347565b8061051f81610457565b0390f35b61034d565b346105565761054061053b366004610439565b61133c565b610548610347565b8061055281610457565b0390f35b61034d565b346105895761057361056e366004610439565b61137b565b61057b610347565b8061058581610457565b0390f35b61034d565b346105bc576105a66105a1366004610439565b6113ba565b6105ae610347565b806105b881610457565b0390f35b61034d565b346105ef576105d96105d4366004610439565b6113f9565b6105e1610347565b806105eb81610457565b0390f35b61034d565b610600600a5f9061038b565b90565b3461063357610613366004610355565b61062f61061e6105f4565b610626610347565b918291826103cc565b0390f35b61034d565b346106665761065061064b366004610439565b611438565b610658610347565b8061066281610457565b0390f35b61034d565b979593919a9998969492909a61014089019b5f8a01610689916103bf565b60208901610696916103bf565b604088016106a3916103bf565b606087016106b0916103bf565b608086016106bd916103bf565b60a085016106ca916103bf565b60c084016106d7916103bf565b60e083016106e4916103bf565b61010082016106f2916103bf565b610120016106ff916103bf565b565b3461073e57610711366004610355565b61073a61071c611474565b966107319a989a969196959295949394610347565b9a8b9a8b61066b565b0390f35b61034d565b151590565b61075190610743565b9052565b9190610768905f60208501940190610748565b565b3461079a57610796610785610780366004610439565b61154a565b61078d610347565b91829182610755565b0390f35b61034d565b6107ab60095f9061038b565b90565b346107de576107be366004610355565b6107da6107c961079f565b6107d1610347565b918291826103cc565b0390f35b61034d565b34610811576107fb6107f6366004610439565b61159d565b610803610347565b8061080d81610457565b0390f35b61034d565b346108445761082e610829366004610439565b6115dc565b610836610347565b8061084081610457565b0390f35b61034d565b6108535f8061038b565b90565b3461088657610866366004610355565b610882610871610849565b610879610347565b918291826103cc565b0390f35b61034d565b61089760115f9061038b565b90565b346108ca576108aa366004610355565b6108c66108b561088b565b6108bd610347565b918291826103cc565b0390f35b61034d565b6108db60125f9061038b565b90565b3461090e576108ee366004610355565b61090a6108f96108cf565b610901610347565b918291826103cc565b0390f35b61034d565b346109415761092b610926366004610439565b61161b565b610933610347565b8061093d81610457565b0390f35b61034d565b61095260085f9061038b565b90565b3461098557610965366004610355565b610981610970610946565b610978610347565b918291826103cc565b0390f35b61034d565b91946109d26109dc929897956109c860a0966109be6109e39a6109b460c08a019e5f8b01906103bf565b60208901906103bf565b60408701906103bf565b60608501906103bf565b60808301906103bf565b01906103bf565b565b34610a1c576109f5366004610355565b610a18610a00611626565b92610a0f969496929192610347565b9687968761098a565b0390f35b61034d565b34610a4f57610a39610a34366004610439565b6116da565b610a41610347565b80610a4b81610457565b0390f35b61034d565b610a6060075f9061038b565b90565b34610a9357610a73366004610355565b610a8f610a7e610a54565b610a86610347565b918291826103cc565b0390f35b61034d565b34610ac657610ab0610aab366004610439565b611769565b610ab8610347565b80610ac281610457565b0390f35b61034d565b34610af957610ae3610ade366004610439565b6117a8565b610aeb610347565b80610af581610457565b0390f35b61034d565b34610b2c57610b16610b11366004610439565b6117e7565b610b1e610347565b80610b2881610457565b0390f35b61034d565b610b3d60105f9061038b565b90565b34610b7057610b50366004610355565b610b6c610b5b610b31565b610b63610347565b918291826103cc565b0390f35b61034d565b34610ba357610b8d610b88366004610439565b611826565b610b95610347565b80610b9f81610457565b0390f35b61034d565b34610bd657610bc0610bbb366004610439565b611865565b610bc8610347565b80610bd281610457565b0390f35b61034d565b610be760165f9061038b565b90565b34610c1a57610bfa366004610355565b610c16610c05610bdb565b610c0d610347565b918291826103cc565b0390f35b61034d565b34610c4d57610c37610c32366004610439565b6118a4565b610c3f610347565b80610c4981610457565b0390f35b61034d565b610c5e60045f9061038b565b90565b34610c9157610c71366004610355565b610c8d610c7c610c52565b610c84610347565b918291826103cc565b0390f35b61034d565b610ca2600f5f9061038b565b90565b34610cd557610cb5366004610355565b610cd1610cc0610c96565b610cc8610347565b918291826103cc565b0390f35b61034d565b610ce660155f9061038b565b90565b34610d1957610cf9366004610355565b610d15610d04610cda565b610d0c610347565b918291826103cc565b0390f35b61034d565b610d2a60065f9061038b565b90565b34610d5d57610d3d366004610355565b610d59610d48610d1e565b610d50610347565b918291826103cc565b0390f35b61034d565b610d6e60035f9061038b565b90565b34610da157610d81366004610355565b610d9d610d8c610d62565b610d94610347565b918291826103cc565b0390f35b61034d565b34610dd457610dbe610db9366004610439565b6118e3565b610dc6610347565b80610dd081610457565b0390f35b61034d565b610de5600c5f9061038b565b90565b34610e1857610df8366004610355565b610e14610e03610dd9565b610e0b610347565b918291826103cc565b0390f35b61034d565b34610e4b57610e35610e30366004610439565b611922565b610e3d610347565b80610e4781610457565b0390f35b61034d565b610e5c60015f9061038b565b90565b34610e8f57610e6f366004610355565b610e8b610e7a610e50565b610e82610347565b918291826103cc565b0390f35b61034d565b34610ec257610eac610ea7366004610439565b611960565b610eb4610347565b80610ebe81610457565b0390f35b61034d565b610ed360145f9061038b565b90565b34610f0657610ee6366004610355565b610f02610ef1610ec7565b610ef9610347565b918291826103cc565b0390f35b61034d565b610f1760025f9061038b565b90565b34610f4a57610f2a366004610355565b610f46610f35610f0b565b610f3d610347565b918291826103cc565b0390f35b61034d565b34610f7d57610f67610f62366004610439565b61199f565b610f6f610347565b80610f7981610457565b0390f35b61034d565b610f8e600d5f9061038b565b90565b34610fc157610fa1366004610355565b610fbd610fac610f82565b610fb4610347565b918291826103cc565b0390f35b61034d565b610fd260055f9061038b565b90565b3461100557610fe5366004610355565b611001610ff0610fc6565b610ff8610347565b918291826103cc565b0390f35b61034d565b346110385761102261101d366004610439565b6119de565b61102a610347565b8061103481610457565b0390f35b61034d565b611049600b5f9061038b565b90565b3461107c5761105c366004610355565b61107861106761103d565b61106f610347565b918291826103cc565b0390f35b61034d565b61108d60135f9061038b565b90565b346110c0576110a0366004610355565b6110bc6110ab611081565b6110b3610347565b918291826103cc565b0390f35b61034d565b90565b6110dc6110d76110e1926103a8565b6110c5565b6103a8565b90565b6110ed906110c8565b90565b6110f9906110e4565b90565b90611106906110f0565b5f5260205260405f2090565b5f1c90565b60ff1690565b61112961112e91611112565b611117565b90565b61113b905461111d565b90565b60209181520190565b5f7f496e76616c6964206f776e657200000000000000000000000000000000000000910152565b61117b600d60209261113e565b61118481611147565b0190565b61119d9060208101905f81830391015261116e565b90565b156111a757565b6111af610347565b62461bcd60e51b8152806111c560048201611188565b0390fd5b6111ee906111e96111e46111df601733906110fc565b611131565b6111a0565b611233565b565b5f1b90565b9061120660018060a01b03916111f0565b9181191691161790565b90565b9061122861122361122f926110f0565b611210565b82546111f5565b9055565b61123e906008611213565b565b611249906111c9565b565b6112709061126b611266611261601733906110fc565b611131565b6111a0565b611272565b565b61127d906015611213565b565b6112889061124b565b565b6112af906112aa6112a56112a0601733906110fc565b611131565b6111a0565b6112b1565b565b6112bc906001611213565b565b6112c79061128a565b565b6112ee906112e96112e46112df601733906110fc565b611131565b6111a0565b6112f0565b565b6112fb906006611213565b565b611306906112c9565b565b61132d9061132861132361131e601733906110fc565b611131565b6111a0565b61132f565b565b61133a90600a611213565b565b61134590611308565b565b61136c9061136761136261135d601733906110fc565b611131565b6111a0565b61136e565b565b611379906011611213565b565b61138490611347565b565b6113ab906113a66113a161139c601733906110fc565b611131565b6111a0565b6113ad565b565b6113b8906016611213565b565b6113c390611386565b565b6113ea906113e56113e06113db601733906110fc565b611131565b6111a0565b6113ec565b565b6113f7906010611213565b565b611402906113c5565b565b6114299061142461141f61141a601733906110fc565b611131565b6111a0565b61142b565b565b61143690600b611213565b565b61144190611404565b565b5f90565b611450906110e4565b90565b61145f61146491611112565b610368565b90565b6114719054611453565b90565b61147c611443565b50611485611443565b5061148e611443565b50611497611443565b506114a0611443565b506114a9611443565b506114b2611443565b506114bb611443565b506114c4611443565b506114cd611443565b506114d730611447565b906114e26001611467565b916114ec5f611467565b916114f76002611467565b91611502600d611467565b9161150d600b611467565b916115186003611467565b916115236004611467565b9161152e600e611467565b916115396010611467565b9199989796959493929190565b5f90565b61156161156691611559611546565b5060176110fc565b611131565b90565b61158e9061158961158461157f601733906110fc565b611131565b6111a0565b611590565b565b61159b906004611213565b565b6115a690611569565b565b6115cd906115c86115c36115be601733906110fc565b611131565b6111a0565b6115cf565b565b6115da906007611213565b565b6115e5906115a8565b565b61160c906116076116026115fd601733906110fc565b611131565b6111a0565b61160e565b565b611619906005611213565b565b611624906115e7565b565b61162e611443565b50611637611443565b50611640611443565b50611649611443565b50611652611443565b5061165b611443565b506116666006611467565b906116716007611467565b9161167c6008611467565b916116876009611467565b91611692600a611467565b9161169d600e611467565b91959493929190565b6116cb906116c66116c16116bc601733906110fc565b611131565b6111a0565b6116cd565b565b6116d8906012611213565b565b6116e3906116a6565b565b61170a906117056117006116fb601733906110fc565b611131565b6111a0565b611751565b565b9061171860ff916111f0565b9181191691161790565b61172b90610743565b90565b90565b9061174661174161174d92611722565b61172e565b825461170c565b9055565b6117679061176260019160176110fc565b611731565b565b611772906116e5565b565b6117999061179461178f61178a601733906110fc565b611131565b6111a0565b61179b565b565b6117a6906013611213565b565b6117b190611774565b565b6117d8906117d36117ce6117c9601733906110fc565b611131565b6111a0565b6117da565b565b6117e5906002611213565b565b6117f0906117b3565b565b6118179061181261180d611808601733906110fc565b611131565b6111a0565b611819565b565b61182490600c611213565b565b61182f906117f2565b565b6118569061185161184c611847601733906110fc565b611131565b6111a0565b611858565b565b61186390600f611213565b565b61186e90611831565b565b6118959061189061188b611886601733906110fc565b611131565b6111a0565b611897565b565b6118a290600d611213565b565b6118ad90611870565b565b6118d4906118cf6118ca6118c5601733906110fc565b611131565b6111a0565b6118d6565b565b6118e1906003611213565b565b6118ec906118af565b565b6119139061190e611909611904601733906110fc565b611131565b6111a0565b611915565b565b611920906014611213565b565b61192b906118ee565b565b6119529061194d611948611943601733906110fc565b611131565b6111a0565b611954565b565b61195e905f611213565b565b6119699061192d565b565b6119909061198b611986611981601733906110fc565b611131565b6111a0565b611992565b565b61199d90600e611213565b565b6119a89061196b565b565b6119cf906119ca6119c56119c0601733906110fc565b611131565b6111a0565b6119d1565b565b6119dc906009611213565b565b6119e7906119aa565b56fea2646970667358221220650b3e7056848219860531a4957ad835450e89b4a066ece3a839cd4f808eb51e64736f6c6343000818003360806040523462000038576200001f6200001862000131565b91620003bf565b620000296200003e565b6117ba620004d082396117ba90f35b62000044565b60405190565b5f80fd5b601f801991011690565b634e487b7160e01b5f52604160045260245ffd5b90620000729062000048565b810190811060018060401b038211176200008b57604052565b62000052565b90620000a8620000a06200003e565b928362000066565b565b5f80fd5b60018060a01b031690565b620000c490620000ae565b90565b620000d281620000b9565b03620000da57565b5f80fd5b90505190620000ed82620000c7565b565b90916060828403126200012b57620001286200010e845f8501620000de565b936200011e8160208601620000de565b93604001620000de565b90565b620000aa565b6200015462001c8a80380380620001488162000091565b928339810190620000ef565b909192565b60a01b90565b906200017060ff60a01b9162000159565b9181191691161790565b151590565b6200018a906200017a565b90565b90565b90620001aa620001a4620001b2926200017f565b6200018d565b82546200015f565b9055565b60a81b90565b90620001cd60ff60a81b91620001b6565b9181191691161790565b90620001f1620001eb620001f9926200017f565b6200018d565b8254620001bc565b9055565b60b01b90565b906200021460ff60b01b91620001fd565b9181191691161790565b90620002386200023262000240926200017f565b6200018d565b825462000203565b9055565b5f1b90565b906200025c60018060a01b039162000244565b9181191691161790565b90565b620002826200027c6200028892620000ae565b62000266565b620000ae565b90565b620002969062000269565b90565b620002a4906200028b565b90565b90565b90620002c4620002be620002cc9262000299565b620002a7565b825462000249565b9055565b90620002dc9062000299565b5f5260205260405f2090565b90620002f660ff9162000244565b9181191691161790565b906200031a6200031462000322926200017f565b6200018d565b8254620002e8565b9055565b62000331906200028b565b90565b90565b90565b620003536200034d620003599262000334565b62000266565b62000337565b90565b906200036a5f199162000244565b9181191691161790565b6200038d62000387620003939262000337565b62000266565b62000337565b90565b90565b90620003b3620003ad620003bb9262000374565b62000396565b82546200035c565b9055565b6200045b9291620004316200044692620003db5f600362000190565b620003e85f6003620001d7565b620003f55f60036200021e565b62000402816001620002aa565b6200040f836002620002aa565b6200041c856003620002aa565b6200042b6001916004620002d0565b62000300565b620004406001916004620002d0565b62000300565b620004556001916004620002d0565b62000300565b6200047560016200046f60043390620002d0565b62000300565b6200048f60016200048960043290620002d0565b62000300565b620004b36001620004ad6004620004a63062000326565b90620002d0565b62000300565b620004cd620004c663687956c76200033a565b5f62000399565b56fe60806040526004361015610013575b61071e565b61001d5f356100ec565b80630d43aaf2146100e757806319c06429146100e25780631d84be44146100dd578063262a9dff146100d85780633587e1dc146100d357806369463ba1146100ce5780636a276f9d146100c95780637df73e27146100c45780639608060f146100bf5780639f2ce594146100ba578063b593a441146100b5578063d5ff5d37146100b05763f6d3378f0361000e576106ea565b61067d565b61064a565b610615565b6105a7565b610538565b610503565b6104d0565b610455565b610420565b6103eb565b610391565b6102ff565b60e01c90565b60405190565b5f80fd5b5f80fd5b5f91031261010a57565b6100fc565b5f1c90565b60018060a01b031690565b61012b6101309161010f565b610114565b90565b61013d905461011f565b90565b60a01c90565b60ff1690565b61015861015d91610140565b610146565b90565b61016a905461014c565b90565b60a81c90565b61017f6101849161016d565b610146565b90565b6101919054610173565b90565b60b01c90565b6101a66101ab91610194565b610146565b90565b6101b8905461019a565b90565b60b81c90565b6101cd6101d2916101bb565b610146565b90565b6101df90546101c1565b90565b60c01c90565b6101f46101f9916101e2565b610146565b90565b61020690546101e8565b90565b60056102165f8201610133565b916102225f8301610160565b9161022e5f8201610187565b9161023a5f83016101ae565b916102465f82016101d5565b9161025e60016102575f85016101fc565b9301610133565b90565b60018060a01b031690565b61027590610261565b90565b6102819061026c565b9052565b151590565b61029390610285565b9052565b949290979695939160e08601985f87016102b091610278565b602086016102bd9161028a565b604085016102ca9161028a565b606084016102d79161028a565b608083016102e49161028a565b60a082016102f19161028a565b60c0016102fd91610278565b565b346103365761030f366004610100565b61033261031a610209565b936103299795979391936100f2565b97889788610297565b0390f35b6100f8565b6103448161026c565b0361034b57565b5f80fd5b9050359061035c8261033b565b565b9060208282031261037757610374915f0161034f565b90565b6100fc565b919061038f905f6020850194019061028a565b565b346103c1576103bd6103ac6103a736600461035e565b610794565b6103b46100f2565b9182918261037c565b0390f35b6100f8565b90565b6103d2906103c6565b9052565b91906103e9905f602085019401906103c9565b565b3461041b5761041761040661040136600461035e565b610833565b61040e6100f2565b918291826103d6565b0390f35b6100f8565b3461045057610430366004610100565b61044c61043b6108d4565b6104436100f2565b918291826103d6565b0390f35b6100f8565b3461048557610465366004610100565b6104816104706108e8565b6104786100f2565b9182918261037c565b0390f35b6100f8565b61049381610285565b0361049a57565b5f80fd5b905035906104ab8261048a565b565b906020828203126104c6576104c3915f0161049e565b90565b6100fc565b5f0190565b346104fe576104e86104e33660046104ad565b610993565b6104f06100f2565b806104fa816104cb565b0390f35b6100f8565b3461053357610513366004610100565b61052f61051e61099e565b6105266100f2565b9182918261037c565b0390f35b6100f8565b346105685761056461055361054e36600461035e565b6109e0565b61055b6100f2565b9182918261037c565b0390f35b6100f8565b90916060828403126105a25761059f610588845f850161034f565b93610596816020860161049e565b9360400161034f565b90565b6100fc565b346105d6576105c06105ba36600461056d565b9161102b565b6105c86100f2565b806105d2816104cb565b0390f35b6100f8565b1c90565b90565b6105f29060086105f793026105db565b6105df565b90565b9061060591546105e2565b90565b6106125f806105fa565b90565b3461064557610625366004610100565b610641610630610608565b6106386100f2565b918291826103d6565b0390f35b6100f8565b346106785761066261065d3660046104ad565b611075565b61066a6100f2565b80610674816104cb565b0390f35b6100f8565b346106ab576106956106903660046104ad565b6110bd565b61069d6100f2565b806106a7816104cb565b0390f35b6100f8565b90916060828403126106e5576106e26106cb845f850161034f565b936106d9816020860161049e565b9360400161049e565b90565b6100fc565b34610719576107036106fd3660046106b0565b916115f5565b61070b6100f2565b80610715816104cb565b0390f35b6100f8565b5f80fd5b5f90565b90565b61073d61073861074292610261565b610726565b610261565b90565b61074e90610729565b90565b61075a90610745565b90565b9061076790610751565b5f5260205260405f2090565b61077f6107849161010f565b610146565b90565b6107919054610773565b90565b6107ab6107b0916107a3610722565b50600461075d565b610787565b90565b5f90565b90565b6107ce6107c96107d3926107b7565b610726565b6103c6565b90565b90565b6107ed6107e86107f2926107d6565b610726565b6103c6565b90565b90565b61080c610807610811926107f5565b610726565b6103c6565b90565b90565b61082b61082661083092610814565b610726565b6103c6565b90565b61083b6107b3565b506108466001610133565b6108586108528361026c565b9161026c565b146108c6576108676002610133565b6108796108738361026c565b9161026c565b146108b85761089a61089461088e6003610133565b9261026c565b9161026c565b146108ab576108a85f610817565b90565b6108b560036107f8565b90565b506108c360026107d9565b90565b506108d160016107ba565b90565b6108dc6107b3565b506108e561166d565b90565b6108f0610722565b506108fa336109e0565b90565b1561090457565b5f80fd5b610936906109313361092b6109256109206001610133565b61026c565b9161026c565b146108fd565b610986565b565b60a01b90565b9061094d60ff60a01b91610938565b9181191691161790565b61096090610285565b90565b90565b9061097b61097661098292610957565b610963565b825461093e565b9055565b610991906003610966565b565b61099c90610908565b565b6109a6610722565b506109b16003610160565b806109d0575b806109c0575b90565b506109cb60036101ae565b6109bd565b506109db6003610187565b6109b7565b6109e8610722565b506109f36001610133565b610a056109ff8361026c565b9161026c565b148015610a3e575b908115610a19575b5090565b9050610a37610a31610a2b6003610133565b9261026c565b9161026c565b145f610a15565b50610a496002610133565b610a5b610a558361026c565b9161026c565b14610a0d565b60209181520190565b5f7f66616b65207369676e6572000000000000000000000000000000000000000000910152565b610a9e600b602092610a61565b610aa781610a6a565b0190565b610ac09060208101905f818303910152610a91565b90565b15610aca57565b610ad26100f2565b62461bcd60e51b815280610ae860048201610aab565b0390fd5b90610b089291610b03610afe336109e0565b610ac3565b610ebe565b565b610b1e610b19610b2392610814565b610726565b610261565b90565b610b2f90610b0a565b90565b5f7f73656c6620746172676574206661696c65640000000000000000000000000000910152565b610b666012602092610a61565b610b6f81610b32565b0190565b610b889060208101905f818303910152610b59565b90565b15610b9257565b610b9a6100f2565b62461bcd60e51b815280610bb060048201610b73565b0390fd5b601f801991011690565b634e487b7160e01b5f52604160045260245ffd5b90610bdc90610bb4565b810190811067ffffffffffffffff821117610bf657604052565b610bbe565b90610c0e610c076100f2565b9283610bd2565b565b610c1a60e0610bfb565b90565b5f90565b5f90565b610c2d610c10565b90602080808080808088610c3f610c1d565b815201610c4a610c21565b815201610c55610c21565b815201610c60610c21565b815201610c6b610c21565b815201610c76610c21565b815201610c81610c1d565b81525050565b610c8f610c25565b90565b90610c9c90610285565b9052565b90610caa9061026c565b9052565b610cb8905161026c565b90565b5f1b90565b90610cd160018060a01b0391610cbb565b9181191691161790565b90565b90610cf3610cee610cfa92610751565b610cdb565b8254610cc0565b9055565b610d089051610285565b90565b60a81b90565b90610d2060ff60a81b91610d0b565b9181191691161790565b90610d3f610d3a610d4692610957565b610963565b8254610d11565b9055565b60b01b90565b90610d5f60ff60b01b91610d4a565b9181191691161790565b90610d7e610d79610d8592610957565b610963565b8254610d50565b9055565b60b81b90565b90610d9e60ff60b81b91610d89565b9181191691161790565b90610dbd610db8610dc492610957565b610963565b8254610d8f565b9055565b60c01b90565b90610ddd60ff60c01b91610dc8565b9181191691161790565b90610dfc610df7610e0392610957565b610963565b8254610dce565b9055565b90610eaa60c06001610eb094610e2a5f8201610e245f8801610cae565b90610cde565b610e425f8201610e3c60208801610cfe565b90610966565b610e5a5f8201610e5460408801610cfe565b90610d2a565b610e725f8201610e6c60608801610cfe565b90610d69565b610e8a5f8201610e8460808801610cfe565b90610da8565b610ea25f8201610e9c60a08801610cfe565b90610de7565b019201610cae565b90610cde565b565b90610ebc91610e07565b565b610f8792610f77610f809282610ee4610ede610ed95f610b26565b61026c565b9161026c565b148015610fc2575b610ef590610b8b565b610f6f610f0133610833565b95610f0a610c87565b9680610f1f610f1960016107ba565b916103c6565b14610faf575b80610f39610f3360026107d9565b916103c6565b14610f9c575b610f52610f4c60036107f8565b916103c6565b14610f89575b610f66600160208901610c92565b60a08701610c92565b5f8501610ca0565b60c08301610ca0565b6005610eb2565b565b610f97600160808901610c92565b610f58565b610faa600160608a01610c92565b610f3f565b610fbd600160408a01610c92565b610f25565b50610fcc83610833565b610fde610fd85f610817565b916103c6565b1180611010575b80610ff0575b610eec565b50610ef5836110076110013361026c565b9161026c565b14159050610feb565b508061102461101e3361026c565b9161026c565b1415610fe5565b906110369291610aec565b565b611066906110613361105b6110556110506003610133565b61026c565b9161026c565b146108fd565b611068565b565b611073906003610d69565b565b61107e90611038565b565b6110ae906110a9336110a361109d6110986002610133565b61026c565b9161026c565b146108fd565b6110b0565b565b6110bb906003610d2a565b565b6110c690611080565b565b906110e492916110df6110da336109e0565b610ac3565b61114c565b565b634e487b7160e01b5f52601160045260245ffd5b611103906103c6565b5f1981146111115760010190565b6110e6565b9061112260ff91610cbb565b9181191691161790565b9061114161113c61114892610957565b610963565b8254611116565b9055565b9161115a6001600501610133565b61117461116e6111695f610b26565b61026c565b9161026c565b148015611595575b61118590610b8b565b5f1461157c5761119433610833565b6111a05f600501610160565b80611561575b8061153c575b80611517575b611504575b6111c35f600501610160565b806114e9575b806114c4575b8061149f575b61148c575b6111e65f600501610160565b9081611470575b508061144b575b80611426575b611413575b6112085f610817565b6112145f600501610187565b611405575b6112255f6005016101ae565b6113f7575b6112365f6005016101d5565b6113e9575b6112475f600501610160565b90816113cd575b50806113a8575b80611383575b611265575b50505b565b6112726001600501610133565b61128c6112866112815f610b26565b61026c565b9161026c565b145f146112c257906112a36112a89291600461075d565b61112c565b5b6112bb6112b4610c87565b6005610eb2565b5f80611260565b506112d86112d36001600501610133565b610833565b806112ec6112e660016107ba565b916103c6565b145f1461132657506112ff906001610cde565b5b61130b5f6003610966565b6113165f6003610d2a565b6113215f6003610d69565b6112a9565b8061133a61133460026107d9565b916103c6565b145f14611353575061134d906002610cde565b5b611300565b61136661136060036107f8565b916103c6565b14611372575b5061134e565b61137d906003610cde565b5f61136c565b506113905f6005016101fc565b6113a261139c83610285565b91610285565b1461125b565b506113b55f600501610133565b6113c76113c18461026c565b9161026c565b14611255565b90506113e26113dc60026107d9565b916103c6565b145f61124e565b6113f2906110fa565b61123b565b611400906110fa565b61122a565b61140e906110fa565b611219565b61142160015f600501610da8565b6111ff565b506114335f6005016101fc565b61144561143f83610285565b91610285565b146111fa565b506114585f600501610133565b61146a6114648461026c565b9161026c565b146111f4565b905061148561147f60036107f8565b916103c6565b145f6111ed565b61149a60015f600501610d69565b6111da565b506114ac5f6005016101fc565b6114be6114b884610285565b91610285565b146111d5565b506114d15f600501610133565b6114e36114dd8561026c565b9161026c565b146111cf565b50806114fe6114f860026107d9565b916103c6565b146111c9565b61151260015f600501610d2a565b6111b7565b506115245f6005016101fc565b61153661153084610285565b91610285565b146111b2565b506115495f600501610133565b61155b6115558561026c565b9161026c565b146111ac565b508061157661157060016107ba565b916103c6565b146111a6565b5050611590611589610c87565b6005610eb2565b611263565b506115ab6115a66001600501610133565b610833565b6115bd6115b75f610817565b916103c6565b11806115c9575b61117c565b506111856115da6001600501610133565b6115ec6115e63361026c565b9161026c565b141590506115c4565b9061160092916110c8565b565b61160e6116139161010f565b6105df565b90565b6116209054611602565b90565b611632611638919392936103c6565b926103c6565b820391821161164357565b6110e6565b61165761165d919392936103c6565b926103c6565b820180921161166857565b6110e6565b6116756107b3565b506116ac61169c61168542611766565b6116966116915f611616565b611766565b90611623565b6116a660016107ba565b90611648565b90565b90565b6116c66116c16116cb926116af565b610726565b6103c6565b90565b6116da620151806116b2565b90565b6116ec6116f2919392936103c6565b926103c6565b916116fe8382026103c6565b92818404149015171561170d57565b6110e6565b61172d60016117286117226116ce565b916107ba565b6116dd565b90565b634e487b7160e01b5f52601260045260245ffd5b611750611756916103c6565b916103c6565b908115611761570490565b611730565b611781906117726107b3565b5061177b611712565b90611744565b9056fea2646970667358221220923d1b6673ba14aa3f3b64d74d6fa99d3cca587d8cdb4bb4d364c74b02c25ac764736f6c634300081800336080604052346200002d5762000014620000ae565b6200001e62000033565b6123cc620000c682396123cc90f35b62000039565b60405190565b5f80fd5b5f1b90565b90620000505f19916200003d565b9181191691161790565b90565b90565b90565b6200007c6200007662000082926200005a565b62000060565b6200005d565b90565b90565b90620000a26200009c620000aa9262000063565b62000085565b825462000042565b9055565b620000c3674563918244f40000600e62000088565b56fe60806040526004361015610018575b361561001657005b005b6100225f356100d1565b80630d43aaf2146100cc57806312065fe0146100c757806315ec7fad146100c2578063379a423c146100bd57806341ffe7c4146100b857806360af454d146100b35780637d8ec03a146100ae5780638da5cb5b146100a9578063abb8c965146100a4578063b90306ad1461009f5763f3fef3a30361000e5761061b565b6105c5565b610591565b61050c565b6104c2565b610453565b610420565b6103eb565b610362565b6102e7565b610289565b60e01c90565b60405190565b5f80fd5b5f80fd5b5f9103126100ef57565b6100e1565b5f1c90565b60018060a01b031690565b610110610115916100f4565b6100f9565b90565b6101229054610104565b90565b60a01c90565b60ff1690565b61013d61014291610125565b61012b565b90565b61014f9054610131565b90565b60a81c90565b61016461016991610152565b61012b565b90565b6101769054610158565b90565b60b01c90565b61018b61019091610179565b61012b565b90565b61019d905461017f565b90565b60b81c90565b6101b26101b7916101a0565b61012b565b90565b6101c490546101a6565b90565b600d6101d45f8201610118565b916101e05f8301610145565b916101ec5f820161016c565b916102035f6101fc818501610193565b93016101ba565b90565b60018060a01b031690565b61021a90610206565b90565b61022690610211565b9052565b151590565b6102389061022a565b9052565b90959492610287946102766102809261026c60809661026260a088019c5f89019061021d565b602087019061022f565b604085019061022f565b606083019061022f565b019061022f565b565b346102bd576102993660046100e5565b6102b96102a46101c7565b916102b09593956100d7565b9586958661023c565b0390f35b6100dd565b90565b6102ce906102c2565b9052565b91906102e5905f602085019401906102c5565b565b34610317576102f73660046100e5565b610313610302610680565b61030a6100d7565b918291826102d2565b0390f35b6100dd565b610325816102c2565b0361032c57565b5f80fd5b9050359061033d8261031c565b565b9060208282031261035857610355915f01610330565b90565b6100e1565b5f0190565b346103905761037a61037536600461033f565b6109f5565b6103826100d7565b8061038c8161035d565b0390f35b6100dd565b61039e81610211565b036103a557565b5f80fd5b905035906103b682610395565b565b906020828203126103d1576103ce915f016103a9565b90565b6100e1565b91906103e9905f6020850194019061022f565b565b3461041b576104176104066104013660046103b8565b610a04565b61040e6100d7565b918291826103d6565b0390f35b6100dd565b3461044e576104386104333660046103b8565b61113c565b6104406100d7565b8061044a8161035d565b0390f35b6100dd565b346104815761046b6104663660046103b8565b61128b565b6104736100d7565b8061047d8161035d565b0390f35b6100dd565b1c90565b90565b61049d9060086104a29302610486565b61048a565b90565b906104b0915461048d565b90565b6104bf600e5f906104a5565b90565b346104f2576104d23660046100e5565b6104ee6104dd6104b3565b6104e56100d7565b918291826102d2565b0390f35b6100dd565b919061050a905f6020850194019061021d565b565b3461053c5761051c3660046100e5565b6105386105276112f2565b61052f6100d7565b918291826104f7565b0390f35b6100dd565b61054a8161022a565b0361055157565b5f80fd5b9050359061056282610541565b565b919060408382031261058c5780610580610589925f86016103a9565b93602001610555565b90565b6100e1565b346105c0576105aa6105a4366004610564565b9061179f565b6105b26100d7565b806105bc8161035d565b0390f35b6100dd565b6105d86105d336600461033f565b61193a565b6105e06100d7565b806105ea8161035d565b0390f35b9190604083820312610616578061060a610613925f86016103a9565b93602001610330565b90565b6100e1565b61062f6106293660046105ee565b90611b90565b6106376100d7565b806106418161035d565b0390f35b5f90565b90565b61066061065b61066592610206565b610649565b610206565b90565b6106719061064c565b90565b61067d90610668565b90565b610688610645565b5061069230610674565b3190565b60018060a01b031690565b6106ad6106b2916100f4565b610696565b90565b6106bf90546106a1565b90565b6106cb90610668565b90565b601f801991011690565b634e487b7160e01b5f52604160045260245ffd5b906106f6906106ce565b810190811067ffffffffffffffff82111761071057604052565b6106d8565b60e01b90565b9050519061072882610541565b565b9060208282031261074357610740915f0161071b565b90565b6100e1565b6107506100d7565b3d5f823e3d90fd5b60209181520190565b5f7f6f776e2e696e76616c69642e6973536166650000000000000000000000000000910152565b6107956012602092610758565b61079e81610761565b0190565b6107b79060208101905f818303910152610788565b90565b156107c157565b6107c96100d7565b62461bcd60e51b8152806107df600482016107a2565b0390fd5b5f7f496e76616c696420536166654f776e6572000000000000000000000000000000910152565b6108176011602092610758565b610820816107e3565b0190565b6108399060208101905f81830391015261080a565b90565b1561084357565b61084b6100d7565b62461bcd60e51b81528061086160048201610824565b0390fd5b61089390602061087d61087860026106b5565b6106c2565b636a276f9d9061088b6100d7565b948592610715565b825281806108a36004820161035d565b03915afa91821561098957610901926108c3915f9161095b575b506107ba565b60206108d76108d260026106b5565b6106c2565b6319c06429906108f633926108ea6100d7565b96879485938493610715565b8352600483016104f7565b03915afa9182156109565761092692610921915f91610928575b5061083c565b6109e8565b565b610949915060203d811161094f575b61094181836106ec565b81019061072a565b5f61091b565b503d610937565b610748565b61097c915060203d8111610982575b61097481836106ec565b81019061072a565b5f6108bd565b503d61096a565b610748565b5f1b90565b9061099f5f199161098e565b9181191691161790565b6109bd6109b86109c2926102c2565b610649565b6102c2565b90565b90565b906109dd6109d86109e4926109a9565b6109c5565b8254610993565b9055565b6109f390600e6109c8565b565b6109fe90610865565b565b5f90565b610a0c610a00565b50610a4e6020610a24610a1f60026106b5565b6106c2565b6319c0642990610a438592610a376100d7565b95869485938493610715565b8352600483016104f7565b03915afa908115610ac0575f91610a92575b50908115610a6d575b5090565b9050610a8b610a85610a7f600c610118565b92610211565b91610211565b145f610a69565b610ab3915060203d8111610ab9575b610aab81836106ec565b81019061072a565b5f610a60565b503d610aa1565b610748565b60018060a01b031690565b610adc610ae1916100f4565b610ac5565b90565b610aee9054610ad0565b90565b610afa90610668565b90565b5f7f6f776d2e66616b652e2064656c65676174650000000000000000000000000000910152565b610b316012602092610758565b610b3a81610afd565b0190565b610b539060208101905f818303910152610b24565b90565b15610b5d57565b610b656100d7565b62461bcd60e51b815280610b7b60048201610b3e565b0390fd5b610bac6020610b96610b9160026106b5565b6106c2565b636a276f9d90610ba46100d7565b938492610715565b82528180610bbc6004820161035d565b03915afa8015610cde57610bd7915f91610cb0575b506107ba565b610be9610be46001610ae4565b610af1565b610bfb610bf533610211565b91610211565b14908115610c17575b610c10610c1592610b56565b610ffd565b565b610c5a91506020610c30610c2b60026106b5565b6106c2565b637df73e2790610c4f3392610c436100d7565b96879485938493610715565b8352600483016104f7565b03915afa918215610cab57610c1592610c10915f91610c7d575b50925050610c04565b610c9e915060203d8111610ca4575b610c9681836106ec565b81019061072a565b5f610c74565b503d610c8c565b610748565b610cd1915060203d8111610cd7575b610cc981836106ec565b81019061072a565b5f610bd1565b503d610cbf565b610748565b90505190610cf08261031c565b565b90602082820312610d0b57610d08915f01610ce3565b90565b6100e1565b90610d23610d1c6100d7565b92836106ec565b565b610d2f60a0610d10565b90565b5f90565b5f90565b610d42610d25565b9060208080808086610d52610d32565b815201610d5d610d36565b815201610d68610d36565b815201610d73610d36565b815201610d7e610d36565b81525050565b610d8c610d3a565b90565b90610d999061022a565b9052565b90565b610db4610daf610db992610d9d565b610649565b6102c2565b90565b90565b610dd3610dce610dd892610dbc565b610649565b6102c2565b90565b90565b610df2610ded610df792610ddb565b610649565b6102c2565b90565b90610e0490610211565b9052565b610e129051610211565b90565b90610e2660018060a01b039161098e565b9181191691161790565b610e3990610668565b90565b90565b90610e54610e4f610e5b92610e30565b610e3c565b8254610e15565b9055565b610e69905161022a565b90565b60a01b90565b90610e8160ff60a01b91610e6c565b9181191691161790565b610e949061022a565b90565b90565b90610eaf610eaa610eb692610e8b565b610e97565b8254610e72565b9055565b60a81b90565b90610ecf60ff60a81b91610eba565b9181191691161790565b90610eee610ee9610ef592610e8b565b610e97565b8254610ec0565b9055565b60b01b90565b90610f0e60ff60b01b91610ef9565b9181191691161790565b90610f2d610f28610f3492610e8b565b610e97565b8254610eff565b9055565b60b81b90565b90610f4d60ff60b81b91610f38565b9181191691161790565b90610f6c610f67610f7392610e8b565b610e97565b8254610f3e565b9055565b90610fe960805f610fef94610f99828201610f93848801610e08565b90610e3f565b610fb1828201610fab60208801610e5f565b90610e9a565b610fc9828201610fc360408801610e5f565b90610ed9565b610fe1828201610fdb60608801610e5f565b90610f18565b019201610e5f565b90610f57565b565b90610ffb91610f77565b565b61103f90602061101561101060026106b5565b6106c2565b631d84be449061103433926110286100d7565b96879485938493610715565b8352600483016104f7565b03915afa918215611137576110ce926110c7915f91611109575b5091611063610d84565b92611072600160208601610d8f565b806110866110806001610da0565b916102c2565b146110f6575b806110a061109a6002610dbf565b916102c2565b146110e3575b6110b96110b36003610dde565b916102c2565b146110d0575b5f8301610dfa565b600d610ff1565b565b6110de600160808501610d8f565b6110bf565b6110f1600160608601610d8f565b6110a6565b611104600160408601610d8f565b61108c565b61112a915060203d8111611130575b61112281836106ec565b810190610cf2565b5f611059565b503d611118565b610748565b61114590610b7f565b565b60018060a01b031690565b61115e611163916100f4565b611147565b90565b6111709054611152565b90565b61117c90610668565b90565b90565b61119661119161119b9261117f565b610649565b610206565b90565b6111a790611182565b90565b5f7f6f776e2e686578626173652e6661696c65640000000000000000000000000000910152565b6111de6012602092610758565b6111e7816111aa565b0190565b6112009060208101905f8183039101526111d1565b90565b1561120a57565b6112126100d7565b62461bcd60e51b815280611228600482016111eb565b0390fd5b6112359061064c565b90565b6112419061122c565b90565b61124d9061064c565b90565b61125990611244565b90565b61126590611244565b90565b90565b9061128061127b6112879261125c565b611268565b8254610e15565b9055565b6112de6112d96112e4926112c96112a96112a45f611166565b611173565b6112c36112bd6112b85f61119e565b610211565b91610211565b14611203565b6112d432600c610e3f565b611238565b611250565b5f61126b565b6112ec611d2c565b565b5f90565b6112fa6112ee565b50611305600c610118565b90565b90611336602061132061131b60026106b5565b6106c2565b636a276f9d9061132e6100d7565b938492610715565b825281806113466004820161035d565b03915afa801561146857611361915f9161143a575b506107ba565b61137361136e6001610ae4565b610af1565b61138561137f33610211565b91610211565b149182156113a1575b61139a61139f93610b56565b6114b9565b565b6113e4925060206113ba6113b560026106b5565b6106c2565b637df73e27906113d933926113cd6100d7565b97889485938493610715565b8352600483016104f7565b03915afa9283156114355761139f9361139a915f91611407575b5093505061138e565b611428915060203d811161142e575b61142081836106ec565b81019061072a565b5f6113fe565b503d611416565b610748565b61145b915060203d8111611461575b61145381836106ec565b81019061072a565b5f61135b565b503d611449565b610748565b61148161147c6114869261117f565b610649565b6102c2565b90565b634e487b7160e01b5f52601160045260245ffd5b6114a6906102c2565b5f1981146114b45760010190565b611489565b905f146117875761150160206114d76114d260026106b5565b6106c2565b631d84be44906114f633926114ea6100d7565b95869485938493610715565b8352600483016104f7565b03915afa908115611782575f91611754575b506115205f600d01610145565b80611739575b80611714575b611701575b61153d5f600d01610145565b806116e6575b806116c1575b6116ae575b61155a5f600d01610145565b9081611692575b508061166d575b61165a575b6115765f61146d565b6115825f600d0161016c565b61164c575b6115935f600d01610193565b61163e575b6115a45f600d016101ba565b611630575b6115b55f600d01610145565b9081611614575b50806115ef575b6115cc575b505b565b6115d790600c610e3f565b6115e96115e2610d84565b600d610ff1565b5f6115c8565b506115fc5f600d01610118565b61160e61160883610211565b91610211565b146115c3565b90506116296116236002610dbf565b916102c2565b145f6115bc565b6116399061149d565b6115a9565b6116479061149d565b611598565b6116559061149d565b611587565b61166860015f600d01610f57565b61156d565b5061167a5f600d01610118565b61168c61168683610211565b91610211565b14611568565b90506116a76116a16003610dde565b916102c2565b145f611561565b6116bc60015f600d01610f18565b61154e565b506116ce5f600d01610118565b6116e06116da84610211565b91610211565b14611549565b50806116fb6116f56002610dbf565b916102c2565b14611543565b61170f60015f600d01610ed9565b611531565b506117215f600d01610118565b61173361172d84610211565b91610211565b1461152c565b508061174e6117486001610da0565b916102c2565b14611526565b611775915060203d811161177b575b61176d81836106ec565b810190610cf2565b5f611513565b503d611763565b610748565b5061179a611793610d84565b600d610ff1565b6115ca565b906117a991611308565b565b5f7f6f776e2e6e6f6e617574682e44414f0000000000000000000000000000000000910152565b6117df600f602092610758565b6117e8816117ab565b0190565b6118019060208101905f8183039101526117d2565b90565b1561180b57565b6118136100d7565b62461bcd60e51b815280611829600482016117ec565b0390fd5b61185b90602061184561184060026106b5565b6106c2565b636a276f9d906118536100d7565b948592610715565b8252818061186b6004820161035d565b03915afa9182156118ed576118bd9261188b915f916118bf575b506107ba565b6118b86118a061189b6001610ae4565b610af1565b6118b26118ac33610211565b91610211565b14611804565b6118fe565b565b6118e0915060203d81116118e6575b6118d881836106ec565b81019061072a565b5f611885565b503d6118ce565b610748565b6118fb90610668565b90565b5f8080809361191c6119176119128461119e565b611238565b6118f2565b828215611931575bf11561192c57565b610748565b506108fc611924565b6119439061182d565b565b5f7f6f776e2e64656661756c742e73656e6465720000000000000000000000000000910152565b6119796012602092610758565b61198281611945565b0190565b61199b9060208101905f81830391015261196c565b90565b156119a557565b6119ad6100d7565b62461bcd60e51b8152806119c360048201611986565b0390fd5b906119f6916119f1816119ea6119e46119df5f61119e565b610211565b91610211565b141561199e565b6119f8565b565b90611a27916020611a11611a0c60026106b5565b6106c2565b636a276f9d90611a1f6100d7565b958692610715565b82528180611a376004820161035d565b03915afa928315611ab957611a8993611a57915f91611a8b575b506107ba565b611a84611a6c611a676001610ae4565b610af1565b611a7e611a7833610211565b91610211565b14611804565b611b40565b565b611aac915060203d8111611ab2575b611aa481836106ec565b81019061072a565b5f611a51565b503d611a9a565b610748565b5f7f6f776e2e696e76616c69642e616d6f756e740000000000000000000000000000910152565b611af26012602092610758565b611afb81611abe565b0190565b611b149060208101905f818303910152611ae5565b90565b15611b1e57565b611b266100d7565b62461bcd60e51b815280611b3c60048201611aff565b0390fd5b5f808093611b72611b6d8395611b6884611b62611b5c8861146d565b916102c2565b11611b17565b611238565b6118f2565b828215611b87575bf115611b8257565b610748565b506108fc611b7a565b90611b9a916119c7565b565b90505190611ba982610395565b565b90602082820312611bc457611bc1915f01611b9c565b90565b6100e1565b611bd29061064c565b90565b611bde90611bc9565b90565b611bea90611bc9565b90565b90565b90611c05611c00611c0c92611be1565b611bed565b8254610e15565b9055565b611c199061064c565b90565b611c2590611c10565b90565b611c3190611c10565b90565b90565b90611c4c611c47611c5392611c28565b611c34565b8254610e15565b9055565b611c609061064c565b90565b611c6c90611c57565b90565b611c7890611c57565b90565b90565b90611c93611c8e611c9a92611c6f565b611c7b565b8254610e15565b9055565b611ca79061064c565b90565b611cb390611c9e565b90565b611cbf90611c9e565b90565b90565b90611cda611cd5611ce192611cb6565b611cc2565b8254610e15565b9055565b611cee9061064c565b90565b611cfa90611ce5565b90565b611d0690611ce5565b90565b90565b90611d21611d1c611d2892611cfd565b611d09565b8254610e15565b9055565b611d3d611d385f611166565b611173565b611d57611d51611d4c5f61119e565b610211565b91610211565b1461239457611d886020611d72611d6d5f611166565b611173565b634162169f90611d806100d7565b938492610715565b82528180611d986004820161035d565b03915afa90811561238f57611dbf91611db8915f91612361575b50611bd5565b6001611bf0565b611deb6020611dd5611dd05f611166565b611173565b63b57dbdc690611de36100d7565b938492610715565b82528180611dfb6004820161035d565b03915afa90811561235c57611e2291611e1b915f9161232e575b50611c1c565b6002611c37565b611e4e6020611e38611e335f611166565b611173565b63cfbffe5390611e466100d7565b938492610715565b82528180611e5e6004820161035d565b03915afa90811561232957611e8591611e7e915f916122fb575b50611c63565b6003611c7e565b611eb16020611e9b611e965f611166565b611173565b63ab6e844f90611ea96100d7565b938492610715565b82528180611ec16004820161035d565b03915afa9081156122f657611ee891611ee1915f916122c8575b50611caa565b6004611cc5565b611f146020611efe611ef95f611166565b611173565b639a7c407790611f0c6100d7565b938492610715565b82528180611f246004820161035d565b03915afa9081156122c357611f4b91611f44915f91612295575b50611cf1565b6005611d0c565b611f776020611f61611f5c5f611166565b611173565b63aa0ddc1690611f6f6100d7565b938492610715565b82528180611f876004820161035d565b03915afa801561229057611fa4915f91612262575b506007610e3f565b611fd06020611fba611fb55f611166565b611173565b636b4aefc690611fc86100d7565b938492610715565b82528180611fe06004820161035d565b03915afa801561225d57611ffd915f9161222f575b506008610e3f565b612029602061201361200e5f611166565b611173565b6324768d91906120216100d7565b938492610715565b825281806120396004820161035d565b03915afa801561222a57612056915f916121fc575b50600b610e3f565b612082602061206c6120675f611166565b611173565b63640274279061207a6100d7565b938492610715565b825281806120926004820161035d565b03915afa80156121f7576120af915f916121c9575b506009610e3f565b6120db60206120c56120c05f611166565b611173565b6330125cf5906120d36100d7565b938492610715565b825281806120eb6004820161035d565b03915afa80156121c457612108915f91612196575b50600a610e3f565b612134602061211e6121195f611166565b611173565b63d3d1b0969061212c6100d7565b938492610715565b825281806121446004820161035d565b03915afa801561219157612161915f91612163575b506006610e3f565b565b612184915060203d811161218a575b61217c81836106ec565b810190611bab565b5f612159565b503d612172565b610748565b6121b7915060203d81116121bd575b6121af81836106ec565b810190611bab565b5f612100565b503d6121a5565b610748565b6121ea915060203d81116121f0575b6121e281836106ec565b810190611bab565b5f6120a7565b503d6121d8565b610748565b61221d915060203d8111612223575b61221581836106ec565b810190611bab565b5f61204e565b503d61220b565b610748565b612250915060203d8111612256575b61224881836106ec565b810190611bab565b5f611ff5565b503d61223e565b610748565b612283915060203d8111612289575b61227b81836106ec565b810190611bab565b5f611f9c565b503d612271565b610748565b6122b6915060203d81116122bc575b6122ae81836106ec565b810190611bab565b5f611f3e565b503d6122a4565b610748565b6122e9915060203d81116122ef575b6122e181836106ec565b810190611bab565b5f611edb565b503d6122d7565b610748565b61231c915060203d8111612322575b61231481836106ec565b810190611bab565b5f611e78565b503d61230a565b610748565b61234f915060203d8111612355575b61234781836106ec565b810190611bab565b5f611e15565b503d61233d565b610748565b612382915060203d8111612388575b61237a81836106ec565b810190611bab565b5f611db2565b503d612370565b610748565b56fea26469706673582212200cf83e19018f884b39c8fed8114fa34790cf62122304d32c223a283549a6660c64736f6c634300081800336080604052346300000033576300000017630000149f565b6300000023630000003a565b6161976300002c1b823961619790f35b6300000040565b60405190565b5f80fd5b5f1b90565b9063000000595f19916300000044565b9181191691161790565b90565b90565b90565b630000008a63000000836300000091926300000063565b6300000069565b6300000066565b90565b90565b9063000000b663000000af63000000bf92630000006c565b6300000094565b82546300000049565b9055565b90565b63000000e463000000dd63000000eb9263000000c3565b6300000069565b6300000066565b90565b90630000010d630000010663000001169263000000c6565b6300000094565b82546300000049565b9055565b90565b630000013b6300000134630000014292630000011a565b6300000069565b6300000066565b90565b906300000164630000015d630000016d92630000011d565b6300000094565b82546300000049565b9055565b90565b6300000192630000018b6300000199926300000171565b6300000069565b6300000066565b90565b9063000001bb63000001b463000001c4926300000174565b6300000094565b82546300000049565b9055565b90565b63000001e963000001e263000001f09263000001c8565b6300000069565b6300000066565b90565b906300000212630000020b630000021b9263000001cb565b6300000094565b82546300000049565b9055565b90565b63000002406300000239630000024792630000021f565b6300000069565b6300000066565b90565b90630000026963000002626300000272926300000222565b6300000094565b82546300000049565b9055565b90565b63000002976300000290630000029e926300000276565b6300000069565b6300000066565b90565b9063000002c063000002b963000002c9926300000279565b6300000094565b82546300000049565b9055565b90565b63000002ee63000002e763000002f59263000002cd565b6300000069565b6300000066565b90565b906300000317630000031063000003209263000002d0565b6300000094565b82546300000049565b9055565b90565b6300000345630000033e630000034c926300000324565b6300000069565b6300000066565b90565b90630000036e63000003676300000377926300000327565b6300000094565b82546300000049565b9055565b90565b630000039c630000039563000003a392630000037b565b6300000069565b6300000066565b90565b9063000003c563000003be63000003ce92630000037e565b6300000094565b82546300000049565b9055565b90565b63000003f363000003ec63000003fa9263000003d2565b6300000069565b6300000066565b90565b90630000041c630000041563000004259263000003d5565b6300000094565b82546300000049565b9055565b90565b630000044a63000004436300000451926300000429565b6300000069565b6300000066565b90565b906300000473630000046c630000047c92630000042c565b6300000094565b82546300000049565b9055565b90565b63000004a1630000049a63000004a8926300000480565b6300000069565b6300000066565b90565b9063000004ca63000004c363000004d3926300000483565b6300000094565b82546300000049565b9055565b90565b63000004f863000004f163000004ff9263000004d7565b6300000069565b6300000066565b90565b906300000521630000051a630000052a9263000004da565b6300000094565b82546300000049565b9055565b601f801991011690565b634e487b7160e01b5f52604160045260245ffd5b90630000055a90630000052e565b810190811060018060401b03821117630000057457604052565b6300000538565b906300000596630000058d630000003a565b9283630000054c565b565b63000005a660e0630000057b565b90565b5f90565b63000005b96300000598565b9060208080808080808863000005cf63000005a9565b81520163000005de63000005a9565b81520163000005ed63000005a9565b81520163000005fc63000005a9565b815201630000060b63000005a9565b815201630000061a63000005a9565b815201630000062963000005a9565b81525050565b630000063b63000005ad565b90565b90630000064c906300000066565b9052565b90565b6300000671630000066a6300000678926300000650565b6300000069565b6300000066565b90565b90565b630000069c630000069563000006a392630000067b565b6300000069565b6300000066565b90565b90565b63000006c763000006c063000006ce9263000006a6565b6300000069565b6300000066565b90565b63000006df90516300000066565b90565b630000070063000006f96300000707926300000066565b6300000069565b6300000066565b90565b906300000729630000072263000007329263000006e2565b6300000094565b82546300000049565b9055565b90630000081460c06006630000081c9463000007655f8201630000075d5f880163000006d1565b90630000070a565b630000078660018201630000077e6020880163000006d1565b90630000070a565b63000007a760028201630000079f6040880163000006d1565b90630000070a565b63000007c86003820163000007c06060880163000006d1565b90630000070a565b63000007e96004820163000007e16080880163000006d1565b90630000070a565b630000080a60058201630000080260a0880163000006d1565b90630000070a565b01920163000006d1565b90630000070a565b565b90630000082c916300000736565b565b90565b630000084f6300000848630000085692630000082e565b6300000069565b6300000066565b90565b90565b630000087a63000008736300000881926300000859565b6300000069565b6300000066565b90565b63000008926060630000057b565b90565b63000008a16300000884565b90602080808463000008b363000005a9565b81520163000008c263000005a9565b81520163000008d163000005a9565b81525050565b63000008e36300000895565b90565b90565b63000009076300000900630000090e9263000008e6565b6300000069565b6300000066565b90565b90565b6300000932630000092b6300000939926300000911565b6300000069565b6300000066565b90565b90630000099660406002630000099e94630000096b5f820163000009635f880163000006d1565b90630000070a565b630000098c6001820163000009846020880163000006d1565b90630000070a565b01920163000006d1565b90630000070a565b565b9063000009ae91630000093c565b565b90565b63000009d163000009ca63000009d89263000009b0565b6300000069565b6300000066565b90565b63000009e960a0630000057b565b90565b5f90565b63000009fc63000009db565b90602080808080866300000a1063000005a9565b8152016300000a1f63000009ec565b8152016300000a2e63000009ec565b8152016300000a3d63000009ec565b8152016300000a4c63000009ec565b81525050565b6300000a5e63000009f0565b90565b90565b6300000a826300000a7b6300000a89926300000a61565b6300000069565b6300000066565b90565b151590565b906300000a9f906300000a8c565b9052565b6300000ab190516300000a8c565b90565b906300000ac460ff916300000044565b9181191691161790565b6300000adb906300000a8c565b90565b90565b906300000b006300000af96300000b09926300000ace565b6300000ade565b82546300000ab4565b9055565b60081b90565b906300000b2461ff00916300000b0d565b9181191691161790565b906300000b4d6300000b466300000b56926300000ace565b6300000ade565b82546300000b13565b9055565b60101b90565b906300000b7262ff0000916300000b5a565b9181191691161790565b906300000b9b6300000b946300000ba4926300000ace565b6300000ade565b82546300000b60565b9055565b60181b90565b906300000bc163ff000000916300000ba8565b9181191691161790565b906300000bea6300000be36300000bf3926300000ace565b6300000ade565b82546300000bae565b9055565b906300000c90608060016300000c98946300000c265f82016300000c1e5f880163000006d1565b90630000070a565b6300000c468282016300000c3e602088016300000aa3565b906300000ae1565b6300000c668282016300000c5e604088016300000aa3565b906300000b2e565b6300000c868282016300000c7e606088016300000aa3565b906300000b7c565b0192016300000aa3565b906300000bcb565b565b906300000ca8916300000bf7565b565b6300000cb86040630000057b565b90565b90565b6300000cdc6300000cd56300000ce3926300000cbb565b6300000069565b6300000066565b90565b906300000cf49063000003d5565b5f5260205260405f2090565b906300000d39602060016300000d41946300000d2f5f82016300000d275f880163000006d1565b90630000070a565b01920163000006d1565b90630000070a565b565b906300000d51916300000d00565b565b906300000d6190630000042c565b5f5260205260405f2090565b90565b6300000d8e6300000d876300000d95926300000d6d565b6300000069565b6300000066565b90565b90565b6300000db96300000db26300000dc0926300000d98565b6300000069565b6300000066565b90565b906300000dd1906300000d9b565b5f5260205260405f2090565b90565b6300000dfe6300000df76300000e05926300000ddd565b6300000069565b6300000066565b90565b906300000e16906300000a64565b5f5260205260405f2090565b90565b6300000e436300000e3c6300000e4a926300000e22565b6300000069565b6300000066565b90565b90565b6300000e6e6300000e676300000e75926300000e4d565b6300000069565b6300000066565b90565b906300000e86906300000e50565b5f5260205260405f2090565b90565b6300000eb36300000eac6300000eba926300000e92565b6300000069565b6300000066565b90565b906300000ecb906300000e95565b5f5260205260405f2090565b90565b6300000ef86300000ef16300000eff926300000ed7565b6300000069565b6300000066565b90565b906300000f10906300000cbe565b5f5260205260405f2090565b6300000f2a60a0630000057b565b90565b90565b6300000f4e6300000f476300000f55926300000f2d565b6300000069565b6300000066565b90565b906300000f669063000003d5565b5f5260205260405f2090565b90630000100e608060046300001016946300000fa15f82016300000f995f880163000006d1565b90630000070a565b6300000fc2600182016300000fba6020880163000006d1565b90630000070a565b6300000fe3600282016300000fdb6040880163000006d1565b90630000070a565b6300001004600382016300000ffc6060880163000006d1565b90630000070a565b01920163000006d1565b90630000070a565b565b906300001026916300000f72565b565b90630000103690630000042c565b5f5260205260405f2090565b90565b6300001063630000105c630000106a926300001042565b6300000069565b6300000066565b90565b90630000107b906300000d9b565b5f5260205260405f2090565b906300001095906300000a64565b5f5260205260405f2090565b9063000010af906300000e50565b5f5260205260405f2090565b90565b63000010dc63000010d563000010e39263000010bb565b6300000069565b6300000066565b90565b90565b63000011076300001100630000110e9263000010e6565b6300000069565b6300000066565b90565b90630000111f906300000e95565b5f5260205260405f2090565b906300001139906300000cbe565b5f5260205260405f2090565b90565b6300001166630000115f630000116d926300001145565b6300000069565b6300000066565b90565b90630000117e906300001148565b5f5260205260405f2090565b90630000119890630000085c565b5f5260205260405f2090565b9063000011b29063000004da565b5f5260205260405f2090565b90565b63000011df63000011d863000011e69263000011be565b6300000069565b6300000066565b90565b9063000011f79063000011c1565b5f5260205260405f2090565b90565b6300001224630000121d630000122b926300001203565b6300000069565b6300000066565b90565b90630000123c906300001206565b5f5260205260405f2090565b90565b630000126963000012626300001270926300001248565b6300000069565b6300000066565b90565b90630000128190630000124b565b5f5260205260405f2090565b90565b63000012ae63000012a763000012b592630000128d565b6300000069565b6300000066565b90565b9063000012c6906300001290565b5f5260205260405f2090565b9063000012e0906300001045565b5f5260205260405f2090565b63000012fa6060630000057b565b90565b90565b630000131e630000131763000013259263000012fd565b6300000069565b6300000066565b90565b90565b630000134963000013426300001350926300001328565b6300000069565b6300000066565b90565b906300001361906300000d9b565b5f5260205260405f2090565b9063000013c76040600263000013cf94630000139c5f820163000013945f880163000006d1565b90630000070a565b63000013bd6001820163000013b56020880163000006d1565b90630000070a565b01920163000006d1565b90630000070a565b565b9063000013df91630000136d565b565b9063000013ef906300000e50565b5f5260205260405f2090565b90565b630000141c630000141563000014239263000013fb565b6300000069565b6300000066565b90565b906300001434906300000cbe565b5f5260205260405f2090565b90565b6300001461630000145a6300001468926300001440565b6300000069565b6300000066565b90565b90630000147990630000042c565b5f5260205260405f2090565b906300001493906300000a64565b5f5260205260405f2090565b68015af1d78b58c4000063000014b89060306300000097565b671bc16d674ec8000063000014d090603163000000ee565b678ac7230489e8000063000014e89060326300000145565b601e63000014f9906033630000019c565b670de0b6b3a7640000630000151190603463000001f3565b686c6b935b8bbd400000630000152a906035630000024a565b670de0b6b3a7640000630000154290603663000001f3565b683635c9adc5dea00000630000155b90603763000002a1565b670de0b6b3a7640000630000157390603863000001f3565b69010f0cf064dd59200000630000158d90603963000002f8565b610140630000159f90603a630000034f565b601463000015b090603b63000003a6565b600163000015c190603c63000003fd565b600263000015d290603d6300000454565b61271063000015e490603e63000004ab565b600163000015f590603f63000003fd565b6001630000160690604063000003fd565b612710630000161890604163000004ab565b600a63000016299060426300000502565b6300001635630000062f565b600163000016449063000003d5565b815f0190630000165591630000063e565b60646300001664906300000653565b8160200190630000167691630000063e565b600163000016859063000003d5565b8160400190630000169791630000063e565b602363000016a690630000067e565b816060019063000016b891630000063e565b606463000016c7906300000653565b816080019063000016d991630000063e565b600163000016e89063000003d5565b8160a0019063000016fa91630000063e565b610258630000170a9063000006a9565b8160c00190630000171c91630000063e565b630000172b906012630000081e565b6300001737630000062f565b600163000017469063000003d5565b815f0190630000175791630000063e565b60646300001766906300000653565b8160200190630000177891630000063e565b600163000017879063000003d5565b8160400190630000179991630000063e565b600a63000017a89063000004da565b816060019063000017ba91630000063e565b606463000017c9906300000653565b816080019063000017db91630000063e565b600163000017ea9063000003d5565b8160a0019063000017fc91630000063e565b6103e8630000180c906300000831565b8160c00190630000181e91630000063e565b630000182d906019630000081e565b6300001839630000062f565b600163000018489063000003d5565b815f0190630000185991630000063e565b60646300001868906300000653565b8160200190630000187a91630000063e565b600163000018899063000003d5565b8160400190630000189b91630000063e565b600963000018aa90630000085c565b816060019063000018bc91630000063e565b600a63000018cb9063000004da565b816080019063000018dd91630000063e565b600163000018ec9063000003d5565b8160a0019063000018fe91630000063e565b610258630000190e9063000006a9565b8160c00190630000192091630000063e565b630000192f906020630000081e565b630000193b63000008d7565b6019630000194a9063000008e9565b815f0190630000195b91630000063e565b600a630000196a9063000004da565b8160200190630000197c91630000063e565b605a630000198b906300000914565b8160400190630000199d91630000063e565b63000019ac90602763000009a0565b63000019b863000008d7565b600a63000019c79063000004da565b815f019063000019d891630000063e565b600163000019e79063000003d5565b816020019063000019f991630000063e565b6101686300001a099063000009b3565b81604001906300001a1b91630000063e565b6300001a2a90602a63000009a0565b6300001a366300000a52565b60046300001a45906300000a64565b815f01906300001a5691630000063e565b5f81602001906300001a69916300000a91565b5f81604001906300001a7c916300000a91565b5f81606001906300001a8f916300000a91565b5f81608001906300001aa2916300000a91565b6300001ab190602d6300000c9a565b600760196300001ac16300000caa565b916300001acf906300000cbe565b5f8301906300001ae091630000063e565b6300001aed9063000008e9565b60208201906300001aff91630000063e565b600e60016300001b10916300000ce6565b906300001b1e916300000d43565b600760646300001b2e6300000caa565b916300001b3c906300000cbe565b5f8301906300001b4d91630000063e565b6300001b5a906300000653565b60208201906300001b6c91630000063e565b600e60026300001b7d916300000d53565b906300001b8b916300000d43565b60076101f46300001b9c6300000caa565b916300001baa906300000cbe565b5f8301906300001bbb91630000063e565b6300001bc8906300000d70565b60208201906300001bda91630000063e565b600e60036300001beb916300000dc3565b906300001bf9916300000d43565b60076107d06300001c0a6300000caa565b916300001c18906300000cbe565b5f8301906300001c2991630000063e565b6300001c36906300000de0565b60208201906300001c4891630000063e565b600e60046300001c59916300000e08565b906300001c67916300000d43565b60076113886300001c786300000caa565b916300001c86906300000cbe565b5f8301906300001c9791630000063e565b6300001ca4906300000e25565b60208201906300001cb691630000063e565b600e60056300001cc7916300000e78565b906300001cd5916300000d43565b60076127106300001ce66300000caa565b916300001cf4906300000cbe565b5f8301906300001d0591630000063e565b6300001d12906300000483565b60208201906300001d2491630000063e565b600e60066300001d35916300000ebd565b906300001d43916300000d43565b60076161a86300001d546300000caa565b916300001d62906300000cbe565b5f8301906300001d7391630000063e565b6300001d80906300000eda565b60208201906300001d9291630000063e565b600e60076300001da3916300000f02565b906300001db1916300000d43565b5f600660016005906001926300001dc86300000f1c565b946300001dd6906300000f30565b5f8601906300001de791630000063e565b6300001df4906300000e95565b60208501906300001e0691630000063e565b6300001e139063000003d5565b60408401906300001e2591630000063e565b6300001e32906300000e50565b60608301906300001e4491630000063e565b6300001e519063000003d5565b60808201906300001e6391630000063e565b601160016300001e74916300000f58565b906300001e82916300001018565b6001600360016005906001926300001e9a6300000f1c565b946300001ea89063000003d5565b5f8601906300001eb991630000063e565b6300001ec6906300000d9b565b60208501906300001ed891630000063e565b6300001ee59063000003d5565b60408401906300001ef791630000063e565b6300001f04906300000e50565b60608301906300001f1691630000063e565b6300001f239063000003d5565b60808201906300001f3591630000063e565b601160026300001f46916300001028565b906300001f54916300001018565b6002600f600a6005906001926300001f6c6300000f1c565b946300001f7a90630000042c565b5f8601906300001f8b91630000063e565b6300001f98906300001045565b60208501906300001faa91630000063e565b6300001fb79063000004da565b60408401906300001fc991630000063e565b6300001fd6906300000e50565b60608301906300001fe891630000063e565b6300001ff59063000003d5565b6080820190630000200791630000063e565b60116003630000201891630000106d565b906300002026916300001018565b6002600f600a600590600192630000203e6300000f1c565b94630000204c90630000042c565b5f860190630000205d91630000063e565b630000206a906300001045565b6020850190630000207c91630000063e565b63000020899063000004da565b6040840190630000209b91630000063e565b63000020a8906300000e50565b606083019063000020ba91630000063e565b63000020c79063000003d5565b608082019063000020d991630000063e565b6011600463000020ea916300001087565b9063000020f8916300001018565b6002600f600a60059060019263000021106300000f1c565b94630000211e90630000042c565b5f860190630000212f91630000063e565b630000213c906300001045565b6020850190630000214e91630000063e565b630000215b9063000004da565b6040840190630000216d91630000063e565b630000217a906300000e50565b6060830190630000218c91630000063e565b63000021999063000003d5565b608082019063000021ab91630000063e565b6011600563000021bc9163000010a1565b9063000021ca916300001018565b6002604b606460fa9060649263000021e26300000f1c565b9463000021f090630000042c565b5f860190630000220191630000063e565b630000220e9063000010be565b6020850190630000222091630000063e565b630000222d906300000653565b6040840190630000223f91630000063e565b630000224c9063000010e9565b6060830190630000225e91630000063e565b630000226b906300000653565b6080820190630000227d91630000063e565b60116006630000228e916300001111565b90630000229c916300001018565b6002604b606460fa9060649263000022b46300000f1c565b9463000022c290630000042c565b5f86019063000022d391630000063e565b63000022e09063000010be565b602085019063000022f291630000063e565b63000022ff906300000653565b6040840190630000231191630000063e565b630000231e9063000010e9565b6060830190630000233091630000063e565b630000233d906300000653565b6080820190630000234f91630000063e565b60116007630000236091630000112b565b90630000236e916300001018565b6002604b606460fa9060649263000023866300000f1c565b94630000239490630000042c565b5f86019063000023a591630000063e565b63000023b29063000010be565b602085019063000023c491630000063e565b63000023d1906300000653565b604084019063000023e391630000063e565b63000023f09063000010e9565b6060830190630000240291630000063e565b630000240f906300000653565b6080820190630000242191630000063e565b601160086300002432916300001170565b906300002440916300001018565b6002604b606460fa9060649263000024586300000f1c565b94630000246690630000042c565b5f860190630000247791630000063e565b63000024849063000010be565b6020850190630000249691630000063e565b63000024a3906300000653565b604084019063000024b591630000063e565b63000024c29063000010e9565b606083019063000024d491630000063e565b63000024e1906300000653565b608082019063000024f391630000063e565b60116009630000250491630000118a565b906300002512916300001018565b6002604b606460fa90606492630000252a6300000f1c565b94630000253890630000042c565b5f860190630000254991630000063e565b63000025569063000010be565b6020850190630000256891630000063e565b6300002575906300000653565b6040840190630000258791630000063e565b63000025949063000010e9565b606083019063000025a691630000063e565b63000025b3906300000653565b608082019063000025c591630000063e565b6011600a63000025d69163000011a4565b9063000025e4916300001018565b6002604b606460fa9060649263000025fc6300000f1c565b94630000260a90630000042c565b5f860190630000261b91630000063e565b63000026289063000010be565b6020850190630000263a91630000063e565b6300002647906300000653565b6040840190630000265991630000063e565b63000026669063000010e9565b6060830190630000267891630000063e565b6300002685906300000653565b6080820190630000269791630000063e565b6011600b63000026a89163000011e9565b9063000026b6916300001018565b6002604b606460fa9060649263000026ce6300000f1c565b9463000026dc90630000042c565b5f86019063000026ed91630000063e565b63000026fa9063000010be565b6020850190630000270c91630000063e565b6300002719906300000653565b6040840190630000272b91630000063e565b63000027389063000010e9565b6060830190630000274a91630000063e565b6300002757906300000653565b6080820190630000276991630000063e565b6011600c630000277a91630000122e565b906300002788916300001018565b6002604b606460fa9060649263000027a06300000f1c565b9463000027ae90630000042c565b5f86019063000027bf91630000063e565b63000027cc9063000010be565b602085019063000027de91630000063e565b63000027eb906300000653565b604084019063000027fd91630000063e565b630000280a9063000010e9565b6060830190630000281c91630000063e565b6300002829906300000653565b6080820190630000283b91630000063e565b6011600d630000284c916300001273565b90630000285a916300001018565b6002604b606460fa9060649263000028726300000f1c565b94630000288090630000042c565b5f860190630000289191630000063e565b630000289e9063000010be565b602085019063000028b091630000063e565b63000028bd906300000653565b604084019063000028cf91630000063e565b63000028dc9063000010e9565b606083019063000028ee91630000063e565b63000028fb906300000653565b6080820190630000290d91630000063e565b6011600e630000291e9163000012b8565b90630000292c916300001018565b6002604b606460fa9060649263000029446300000f1c565b94630000295290630000042c565b5f860190630000296391630000063e565b63000029709063000010be565b6020850190630000298291630000063e565b630000298f906300000653565b604084019063000029a191630000063e565b63000029ae9063000010e9565b606083019063000029c091630000063e565b63000029cd906300000653565b608082019063000029df91630000063e565b6011600f63000029f09163000012d2565b9063000029fe916300001018565b6012600a602d906300002a1163000012ec565b926300002a1f906300001300565b5f8401906300002a3091630000063e565b6300002a3d9063000004da565b60208301906300002a4f91630000063e565b6300002a5c90630000132b565b60408201906300002a6e91630000063e565b600f60036300002a7f916300001353565b906300002a8d9163000013d1565b6012600a605a906300002aa063000012ec565b926300002aae906300001300565b5f8401906300002abf91630000063e565b6300002acc9063000004da565b60208301906300002ade91630000063e565b6300002aeb906300000914565b60408201906300002afd91630000063e565b600f60056300002b0e9163000013e1565b906300002b1c9163000013d1565b6009600a61270f906300002b3063000012ec565b926300002b3e90630000085c565b5f8401906300002b4f91630000063e565b6300002b5c9063000004da565b60208301906300002b6e91630000063e565b6300002b7b9063000013fe565b60408201906300002b8d91630000063e565b600f60076300002b9e916300001426565b906300002bac9163000013d1565b6802b5e3af16b18800006300002bc3906300001443565b601060026300002bd491630000146b565b906300002be291630000070a565b683635c9adc5dea000006300002bf9906300000279565b601060046300002c0a916300001485565b906300002c1891630000070a565b56fe60806040526004361015610018575b361561001657005b005b6100225f35610421565b806307175c831461041c5780630d43aaf21461041757806312065fe01461041257806315a544ed1461040d5780631605aed91461040857806316f0115b1461040357806319e2ae96146103fe578063208ad1e3146103f9578063223c0f01146103f457806323b1a7ce146103ef57806326c5adae146103ea5780632b0ada45146103e55780632bfc2e07146103e05780632e040b9d146103db57806332557e8f146103d65780633688236d146103d1578063379a423c146103cc5780634151331d146103c757806341ffe7c4146103c257806343c06bc4146103bd57806345e8fefd146103b85780634c05b4a8146103b35780635640dbfc146103ae578063592a02a8146103a95780635962205f146103a45780635a0e90381461039f5780635a9bac031461039a5780635b7585b2146103955780635eac82251461039057806360af454d1461038b578063622fe2ed146103865780636368c1ce1461038157806366c8c3de1461037c578063675f3eb1146103775780636b81c82f146103725780636f092c5e1461036d57806370d694f014610368578063768f3180146103635780638a3ed6411461035e5780638da5cb5b146103595780638e7ee05814610354578063a112b7a41461034f578063a371dfda1461034a578063a88fcea614610345578063abb8c96514610340578063ac4e57591461033b578063ad822db414610336578063aebcd32a14610331578063aecb710b1461032c578063af0b21d314610327578063b252fbe114610322578063b85f1f8d1461031d578063b90306ad14610318578063c32cfa9914610313578063c5a136d41461030e578063c776fdd714610309578063db2d8b2614610304578063e72f1fbf146102ff578063edcf9721146102fa578063ef93b640146102f5578063f3fef3a3146102f0578063f4fe8e3c146102eb578063f54a77c8146102e65763fc0e74d10361000e57611cd8565b611c94565b611c51565b611c27565b611bc5565b611b90565b611b4d565b611b18565b611ad4565b611a8e565b611a59565b611a21565b6119e9565b61198b565b611956565b61190d565b6118d7565b611841565b61180c565b6117a2565b611740565b6116fe565b6116ca565b61166a565b611635565b6115e9565b6115b4565b611570565b61152c565b6114c6565b61144b565b61140f565b61137d565b611346565b61129a565b611265565b61122b565b6111f6565b6111af565b61114d565b611064565b610fc7565b610e66565b610dd4565b610d91565b610d5e565b610d26565b610c58565b610bcd565b610b89565b610b45565b610b01565b610abe565b610a4f565b610a1b565b6109bb565b610968565b61091f565b61084b565b610730565b6106ec565b6106a8565b61066f565b6104a5565b60e01c90565b60405190565b5f80fd5b5f80fd5b5f91031261043f57565b610431565b1c90565b90565b61045b9060086104609302610444565b610448565b90565b9061046e915461044b565b90565b61047d60305f90610463565b90565b90565b61048c90610480565b9052565b91906104a3905f60208501940190610483565b565b346104d5576104b5366004610435565b6104d16104c0610471565b6104c8610427565b91829182610490565b0390f35b61042d565b5f1c90565b60018060a01b031690565b6104f66104fb916104da565b6104df565b90565b61050890546104ea565b90565b60a01c90565b60ff1690565b6105236105289161050b565b610511565b90565b6105359054610517565b90565b60a81c90565b61054a61054f91610538565b610511565b90565b61055c905461053e565b90565b60b01c90565b6105716105769161055f565b610511565b90565b6105839054610565565b90565b60b81c90565b61059861059d91610586565b610511565b90565b6105aa905461058c565b90565b600d6105ba5f82016104fe565b916105c65f830161052b565b916105d25f8201610552565b916105e95f6105e2818501610579565b93016105a0565b90565b60018060a01b031690565b610600906105ec565b90565b61060c906105f7565b9052565b151590565b61061e90610610565b9052565b9095949261066d9461065c6106669261065260809661064860a088019c5f890190610603565b6020870190610615565b6040850190610615565b6060830190610615565b0190610615565b565b346106a35761067f366004610435565b61069f61068a6105ad565b91610696959395610427565b95869586610622565b0390f35b61042d565b346106d8576106b8366004610435565b6106d46106c3611d45565b6106cb610427565b91829182610490565b0390f35b61042d565b6106e960355f90610463565b90565b3461071c576106fc366004610435565b6107186107076106dd565b61070f610427565b91829182610490565b0390f35b61042d565b61072d60345f90610463565b90565b3461076057610740366004610435565b61075c61074b610721565b610753610427565b91829182610490565b0390f35b61042d565b610771610776916104da565b610448565b90565b6107839054610765565b90565b60126107935f8201610779565b916107a060018301610779565b916107ad60028201610779565b916107ba60038301610779565b916107c760048201610779565b916107e060066107d960058501610779565b9301610779565b90565b949290979695939160e08601985f87016107fc91610483565b6020860161080991610483565b6040850161081691610483565b6060840161082391610483565b6080830161083091610483565b60a0820161083d91610483565b60c00161084991610483565b565b346108825761085b366004610435565b61087e610866610786565b93610875979597939193610427565b978897886107e3565b0390f35b61042d565b61089081610480565b0361089757565b5f80fd5b905035906108a882610887565b565b60e081830312610915576108c0825f830161089b565b926108ce836020840161089b565b926108dc816040850161089b565b926108ea826060830161089b565b926109126108fb846080850161089b565b936109098160a0860161089b565b9360c00161089b565b90565b610431565b5f0190565b346109545761093e6109323660046108aa565b959490949391936122de565b610946610427565b806109508161091a565b0390f35b61042d565b610965603c5f90610463565b90565b3461099857610978366004610435565b610994610983610959565b61098b610427565b91829182610490565b0390f35b61042d565b906020828203126109b6576109b3915f0161089b565b90565b610431565b346109e9576109d36109ce36600461099d565b6124dd565b6109db610427565b806109e58161091a565b0390f35b61042d565b9190604083820312610a165780610a0a610a13925f860161089b565b9360200161089b565b90565b610431565b34610a4a57610a34610a2e3660046109ee565b90612694565b610a3c610427565b80610a468161091a565b0390f35b61042d565b34610a7f57610a7b610a6a610a6536600461099d565b612727565b610a72610427565b91829182610490565b0390f35b61042d565b9091606082840312610ab957610ab6610a9f845f850161089b565b93610aad816020860161089b565b9360400161089b565b90565b610431565b34610aed57610ad7610ad1366004610a84565b9161297a565b610adf610427565b80610ae98161091a565b0390f35b61042d565b610afe60365f90610463565b90565b34610b3157610b11366004610435565b610b2d610b1c610af2565b610b24610427565b91829182610490565b0390f35b61042d565b610b4260385f90610463565b90565b34610b7557610b55366004610435565b610b71610b60610b36565b610b68610427565b91829182610490565b0390f35b61042d565b610b86603f5f90610463565b90565b34610bb957610b99366004610435565b610bb5610ba4610b7a565b610bac610427565b91829182610490565b0390f35b61042d565b610bca603e5f90610463565b90565b34610bfd57610bdd366004610435565b610bf9610be8610bbe565b610bf0610427565b91829182610490565b0390f35b61042d565b610c0b816105f7565b03610c1257565b5f80fd5b90503590610c2382610c02565b565b90602082820312610c3e57610c3b915f01610c16565b90565b610431565b9190610c56905f60208501940190610615565b565b34610c8857610c84610c73610c6e366004610c25565b61298b565b610c7b610427565b91829182610c43565b0390f35b61042d565b90565b610ca4610c9f610ca992610480565b610c8d565b610480565b90565b90610cb690610c90565b5f5260205260405f2090565b610ccd90600f610cac565b610cd85f8201610779565b91610cf16002610cea60018501610779565b9301610779565b90565b604090610d1d610d249496959396610d1360608401985f850190610483565b6020830190610483565b0190610483565b565b34610d5957610d55610d41610d3c36600461099d565b610cc2565b610d4c939193610427565b93849384610cf4565b0390f35b61042d565b34610d8c57610d76610d71366004610c25565b613049565b610d7e610427565b80610d888161091a565b0390f35b61042d565b34610dc057610daa610da4366004610a84565b916132f7565b610db2610427565b80610dbc8161091a565b0390f35b61042d565b610dd160315f90610463565b90565b34610e0457610de4366004610435565b610e00610def610dc5565b610df7610427565b91829182610490565b0390f35b61042d565b6019610e165f8201610779565b91610e2360018301610779565b91610e3060028201610779565b91610e3d60038301610779565b91610e4a60048201610779565b91610e636006610e5c60058501610779565b9301610779565b90565b34610e9d57610e76366004610435565b610e99610e81610e09565b93610e90979597939193610427565b978897886107e3565b0390f35b61042d565b610eae610eb3916104da565b610511565b90565b610ec09054610ea2565b90565b60081c90565b610ed5610eda91610ec3565b610511565b90565b610ee79054610ec9565b90565b60101c90565b610efc610f0191610eea565b610511565b90565b610f0e9054610ef0565b90565b60181c90565b610f23610f2891610f11565b610511565b90565b610f359054610f17565b90565b602d610f455f8201610779565b91610f5260018301610eb6565b91610f5f60018201610edd565b91610f776001610f70818501610f04565b9301610f2b565b90565b90959492610fc594610fb4610fbe92610faa608096610fa060a088019c5f890190610483565b6020870190610615565b6040850190610615565b6060830190610615565b0190610615565b565b34610ffb57610fd7366004610435565b610ff7610fe2610f38565b91610fee959395610427565b95869586610f7a565b0390f35b61042d565b909160c08284031261105f57611018835f840161089b565b92611026816020850161089b565b92611034826040830161089b565b9261105c611045846060850161089b565b93611053816080860161089b565b9360a00161089b565b90565b610431565b3461109957611083611077366004611000565b94939093929192613620565b61108b610427565b806110958161091a565b0390f35b61042d565b906110a890610c90565b5f5260205260405f2090565b6110bf90601161109e565b6110ca5f8201610779565b916110d760018301610779565b916110e460028201610779565b916110fd60046110f660038501610779565b9301610779565b90565b9095949261114b9461113a6111449261113060809661112660a088019c5f890190610483565b6020870190610483565b6040850190610483565b6060830190610483565b0190610483565b565b346111815761117d61116861116336600461099d565b6110b4565b91611174959395610427565b95869586611100565b0390f35b61042d565b60276111935f8201610779565b916111ac60026111a560018501610779565b9301610779565b90565b346111e2576111bf366004610435565b6111de6111ca611186565b6111d5939193610427565b93849384610cf4565b0390f35b61042d565b6111f360375f90610463565b90565b3461122657611206366004610435565b6112226112116111e7565b611219610427565b91829182610490565b0390f35b61042d565b346112605761124a61123e3660046108aa565b95949094939193613804565b611252610427565b8061125c8161091a565b0390f35b61042d565b346112955761129161128061127b36600461099d565b613815565b611288610427565b91829182610490565b0390f35b61042d565b346112c8576112b26112ad366004610c25565b613978565b6112ba610427565b806112c48161091a565b0390f35b61042d565b6112d681610610565b036112dd57565b5f80fd5b905035906112ee826112cd565b565b919060a08382031261134157611308815f850161089b565b9261131682602083016112e1565b9261133e61132784604085016112e1565b9361133581606086016112e1565b936080016112e1565b90565b610431565b34611378576113626113593660046112f0565b93929092613d1c565b61136a610427565b806113748161091a565b0390f35b61042d565b346113ad576113a961139861139336600461099d565b613d4a565b6113a0610427565b91829182610490565b0390f35b61042d565b60206113bf5f8201610779565b916113cc60018301610779565b916113d960028201610779565b916113e660038301610779565b916113f360048201610779565b9161140c600661140560058501610779565b9301610779565b90565b346114465761141f366004610435565b61144261142a6113b2565b93611439979597939193610427565b978897886107e3565b0390f35b61042d565b3461147b5761147761146661146136600461099d565b613dd5565b61146e610427565b91829182610490565b0390f35b61042d565b6080818303126114c157611496825f830161089b565b926114be6114a7846020850161089b565b936114b5816040860161089b565b9360600161089b565b90565b610431565b346114f8576114e26114d9366004611480565b929190916140eb565b6114ea610427565b806114f48161091a565b0390f35b61042d565b9061150790610c90565b5f5260205260405f2090565b611529906115246010915f926114fd565b610463565b90565b3461155c5761155861154761154236600461099d565b611513565b61154f610427565b91829182610490565b0390f35b61042d565b61156d603a5f90610463565b90565b346115a057611580366004610435565b61159c61158b611561565b611593610427565b91829182610490565b0390f35b61042d565b6115b1603b5f90610463565b90565b346115e4576115c4366004610435565b6115e06115cf6115a5565b6115d7610427565b91829182610490565b0390f35b61042d565b3461161b576116056115fc366004611480565b92919091614289565b61160d610427565b806116178161091a565b0390f35b61042d565b9190611633905f60208501940190610603565b565b3461166557611645366004610435565b61166161165061429b565b611658610427565b91829182611620565b0390f35b61042d565b346116985761168261167d36600461099d565b614437565b61168a610427565b806116948161091a565b0390f35b61042d565b91906040838203126116c557806116b96116c2925f86016112e1565b936020016112e1565b90565b610431565b346116f9576116e36116dd36600461169d565b906145ba565b6116eb610427565b806116f58161091a565b0390f35b61042d565b3461172c5761171661171136600461099d565b614732565b61171e610427565b806117288161091a565b0390f35b61042d565b61173d603d5f90610463565b90565b3461177057611750366004610435565b61176c61175b611731565b611763610427565b91829182610490565b0390f35b61042d565b919060408382031261179d578061179161179a925f8601610c16565b936020016112e1565b90565b610431565b346117d1576117bb6117b5366004611775565b90614bc0565b6117c3610427565b806117cd8161091a565b0390f35b61042d565b6117e69060086117eb9302610444565b610511565b90565b906117f991546117d6565b90565b611809602f6001906117ee565b90565b3461183c5761181c366004610435565b6118386118276117fc565b61182f610427565b91829182610c43565b0390f35b61042d565b346118735761185d611854366004611480565b92919091614d5c565b611865610427565b8061186f8161091a565b0390f35b61042d565b9061188290610c90565b5f5260205260405f2090565b61189990600e611878565b906118b160016118aa5f8501610779565b9301610779565b90565b9160206118d59294936118ce60408201965f830190610483565b0190610483565b565b34611908576118ef6118ea36600461099d565b61188e565b906119046118fb610427565b928392836118b4565b0390f35b61042d565b346119425761192c6119203660046108aa565b95949094939193614f3e565b611934610427565b8061193e8161091a565b0390f35b61042d565b61195360335f90610463565b90565b3461198657611966366004610435565b611982611971611947565b611979610427565b91829182610490565b0390f35b61042d565b346119bb5761199b366004610435565b6119b76119a6614f4f565b6119ae610427565b91829182610490565b0390f35b61042d565b602a6119cd5f8201610779565b916119e660026119df60018501610779565b9301610779565b90565b34611a1c576119f9366004610435565b611a18611a046119c0565b611a0f939193610427565b93849384610cf4565b0390f35b61042d565b611a34611a2f36600461099d565b615122565b611a3c610427565b80611a468161091a565b0390f35b611a5660415f90610463565b90565b34611a8957611a69366004610435565b611a85611a74611a4a565b611a7c610427565b91829182610490565b0390f35b61042d565b34611ac057611aaa611aa1366004611480565b92919091615354565b611ab2610427565b80611abc8161091a565b0390f35b61042d565b611ad160425f90610463565b90565b34611b0457611ae4366004610435565b611b00611aef611ac5565b611af7610427565b91829182610490565b0390f35b61042d565b611b1560395f90610463565b90565b34611b4857611b28366004610435565b611b44611b33611b09565b611b3b610427565b91829182610490565b0390f35b61042d565b34611b7c57611b66611b603660046109ee565b906154da565b611b6e610427565b80611b788161091a565b0390f35b61042d565b611b8d60325f90610463565b90565b34611bc057611ba0366004610435565b611bbc611bab611b81565b611bb3610427565b91829182610490565b0390f35b61042d565b34611bf557611bf1611be0611bdb36600461099d565b6154e6565b611be8610427565b91829182610490565b0390f35b61042d565b9190604083820312611c225780611c16611c1f925f8601610c16565b9360200161089b565b90565b610431565b611c3b611c35366004611bfa565b906157bc565b611c43610427565b80611c4d8161091a565b0390f35b34611c8057611c6a611c643660046109ee565b9061595b565b611c72610427565b80611c7c8161091a565b0390f35b61042d565b611c9160405f90610463565b90565b34611cc457611ca4366004610435565b611cc0611caf611c85565b611cb7610427565b91829182610490565b0390f35b61042d565b611cd5602f5f906117ee565b90565b34611d0857611ce8366004610435565b611d04611cf3611cc9565b611cfb610427565b91829182610c43565b0390f35b61042d565b5f90565b611d25611d20611d2a926105ec565b610c8d565b6105ec565b90565b611d3690611d11565b90565b611d4290611d2d565b90565b611d4d611d0d565b50611d5730611d39565b3190565b60018060a01b031690565b611d72611d77916104da565b611d5b565b90565b611d849054611d66565b90565b611d9090611d2d565b90565b601f801991011690565b634e487b7160e01b5f52604160045260245ffd5b90611dbb90611d93565b810190811067ffffffffffffffff821117611dd557604052565b611d9d565b60e01b90565b90505190611ded826112cd565b565b90602082820312611e0857611e05915f01611de0565b90565b610431565b611e15610427565b3d5f823e3d90fd5b60209181520190565b5f7f6f776e2e696e76616c69642e6973536166650000000000000000000000000000910152565b611e5a6012602092611e1d565b611e6381611e26565b0190565b611e7c9060208101905f818303910152611e4d565b90565b15611e8657565b611e8e610427565b62461bcd60e51b815280611ea460048201611e67565b0390fd5b60018060a01b031690565b611ebf611ec4916104da565b611ea8565b90565b611ed19054611eb3565b90565b611edd90611d2d565b90565b5f7f6f776e2e6e6f6e617574682e44414f0000000000000000000000000000000000910152565b611f14600f602092611e1d565b611f1d81611ee0565b0190565b611f369060208101905f818303910152611f07565b90565b15611f4057565b611f48610427565b62461bcd60e51b815280611f5e60048201611f21565b0390fd5b90611f969695949392916020611f80611f7b6002611d7a565b611d87565b636a276f9d90611f8e610427565b9a8b92611dda565b82528180611fa66004820161091a565b03915afa9788156120c25761200498611fc6915f91612094575b50611e7f565b6020611fda611fd56002611d7a565b611d87565b6319c0642990611ff93392611fed610427565b9c8d9485938493611dda565b835260048301611620565b03915afa801561208f5761202f985f91612061575b508015612031575b61202a90611f39565b61226f565b565b5061202a6120476120426001611ec7565b611ed4565b612059612053336105f7565b916105f7565b149050612021565b612082915060203d8111612088575b61207a8183611db1565b810190611def565b5f612019565b503d612070565b611e0d565b6120b5915060203d81116120bb575b6120ad8183611db1565b810190611def565b5f611fc0565b503d6120a3565b611e0d565b906120da6120d3610427565b9283611db1565b565b6120e660e06120c7565b90565b5f90565b6120f56120dc565b906020808080808080886121076120e9565b8152016121126120e9565b81520161211d6120e9565b8152016121286120e9565b8152016121336120e9565b81520161213e6120e9565b8152016121496120e9565b81525050565b6121576120ed565b90565b9061216490610480565b9052565b6121729051610480565b90565b5f1b90565b906121865f1991612175565b9181191691161790565b90565b906121a86121a36121af92610c90565b612190565b825461217a565b9055565b9061225b60c06006612261946121d65f82016121d05f8801612168565b90612193565b6121ef600182016121e960208801612168565b90612193565b6122086002820161220260408801612168565b90612193565b6122216003820161221b60608801612168565b90612193565b61223a6004820161223460808801612168565b90612193565b6122536005820161224d60a08801612168565b90612193565b019201612168565b90612193565b565b9061226d916121b3565b565b6122d5946122ba6122dc98956122b16122cc966122a85f9b9761229f6122c39861229761214f565b9e8f0161215a565b60208d0161215a565b60408b0161215a565b6060890161215a565b6080870161215a565b60a0850161215a565b60c0830161215a565b6019612263565b565b906122ed969594939291611f62565b565b61231d9060206123076123026002611d7a565b611d87565b636a276f9d90612315610427565b948592611dda565b8252818061232d6004820161091a565b03915afa9182156124495761238b9261234d915f9161241b575b50611e7f565b602061236161235c6002611d7a565b611d87565b6319c06429906123803392612374610427565b96879485938493611dda565b835260048301611620565b03915afa8015612416576123b6925f916123e8575b5080156123b8575b6123b190611f39565b6124b6565b565b506123b16123ce6123c96001611ec7565b611ed4565b6123e06123da336105f7565b916105f7565b1490506123a8565b612409915060203d811161240f575b6124018183611db1565b810190611def565b5f6123a0565b503d6123f7565b611e0d565b61243c915060203d8111612442575b6124348183611db1565b810190611def565b5f612347565b503d61242a565b611e0d565b90565b61246561246061246a9261244e565b610c8d565b610480565b90565b634e487b7160e01b5f52601160045260245ffd5b61249061249691939293610480565b92610480565b916124a2838202610480565b9281840414901517156124b157565b61246d565b6124d46124db916124ce670de0b6b3a7640000612451565b90612481565b6039612193565b565b6124e6906122ef565b565b906125179160206125016124fc6002611d7a565b611d87565b636a276f9d9061250f610427565b958692611dda565b825281806125276004820161091a565b03915afa9283156126435761258593612547915f91612615575b50611e7f565b602061255b6125566002611d7a565b611d87565b6319c064299061257a339261256e610427565b97889485938493611dda565b835260048301611620565b03915afa8015612610576125b0935f916125e2575b5080156125b2575b6125ab90611f39565b612648565b565b506125ab6125c86125c36001611ec7565b611ed4565b6125da6125d4336105f7565b916105f7565b1490506125a2565b612603915060203d8111612609575b6125fb8183611db1565b810190611def565b5f61259a565b503d6125f1565b611e0d565b612636915060203d811161263c575b61262e8183611db1565b810190611def565b5f612541565b503d612624565b611e0d565b6126929161267461266d61268b93612667670de0b6b3a7640000612451565b90612481565b6030612193565b612685670de0b6b3a7640000612451565b90612481565b6031612193565b565b9061269e916124e8565b565b6126a990611d11565b90565b6126b5906126a0565b90565b6126c190611d2d565b90565b905051906126d182610887565b565b906020828203126126ec576126e9915f016126c4565b90565b610431565b634e487b7160e01b5f52601260045260245ffd5b61271161271791610480565b91610480565b908115612722570490565b6126f1565b61272f611d0d565b5061275461273d6030610779565b61274e670de0b6b3a7640000612451565b90612481565b9061278a602061277461276f61276a60066104fe565b6126ac565b6126b8565b637d8ec03a90612782610427565b938492611dda565b8252818061279a6004820161091a565b03915afa80156127f1576127be936127b9925f926127c1575b50612705565b612481565b90565b6127e391925060203d81116127ea575b6127db8183611db1565b8101906126d3565b905f6127b3565b503d6127d1565b611e0d565b906128269291602061281061280b6002611d7a565b611d87565b636a276f9d9061281e610427565b968792611dda565b825281806128366004820161091a565b03915afa9384156129525761289494612856915f91612924575b50611e7f565b602061286a6128656002611d7a565b611d87565b6319c0642990612889339261287d610427565b98899485938493611dda565b835260048301611620565b03915afa801561291f576128bf945f916128f1575b5080156128c1575b6128ba90611f39565b612957565b565b506128ba6128d76128d26001611ec7565b611ed4565b6128e96128e3336105f7565b916105f7565b1490506128b1565b612912915060203d8111612918575b61290a8183611db1565b810190611def565b5f6128a9565b503d612900565b611e0d565b612945915060203d811161294b575b61293d8183611db1565b810190611def565b5f612850565b503d612933565b611e0d565b612978929161296a61297192603a612193565b603b612193565b603c612193565b565b9061298592916127f6565b565b5f90565b612993612987565b506129d560206129ab6129a66002611d7a565b611d87565b6319c06429906129ca85926129be610427565b95869485938493611dda565b835260048301611620565b03915afa908115612a47575f91612a19575b509081156129f4575b5090565b9050612a12612a0c612a06600c6104fe565b926105f7565b916105f7565b145f6129f0565b612a3a915060203d8111612a40575b612a328183611db1565b810190611def565b5f6129e7565b503d612a28565b611e0d565b5f7f6f776d2e66616b652e2064656c65676174650000000000000000000000000000910152565b612a806012602092611e1d565b612a8981612a4c565b0190565b612aa29060208101905f818303910152612a73565b90565b15612aac57565b612ab4610427565b62461bcd60e51b815280612aca60048201612a8d565b0390fd5b612afb6020612ae5612ae06002611d7a565b611d87565b636a276f9d90612af3610427565b938492611dda565b82528180612b0b6004820161091a565b03915afa8015612c2d57612b26915f91612bff575b50611e7f565b612b38612b336001611ec7565b611ed4565b612b4a612b44336105f7565b916105f7565b14908115612b66575b612b5f612b6492612aa5565b612f0a565b565b612ba991506020612b7f612b7a6002611d7a565b611d87565b637df73e2790612b9e3392612b92610427565b96879485938493611dda565b835260048301611620565b03915afa918215612bfa57612b6492612b5f915f91612bcc575b50925050612b53565b612bed915060203d8111612bf3575b612be58183611db1565b810190611def565b5f612bc3565b503d612bdb565b611e0d565b612c20915060203d8111612c26575b612c188183611db1565b810190611def565b5f612b20565b503d612c0e565b611e0d565b612c3c60a06120c7565b90565b5f90565b5f90565b612c4f612c32565b9060208080808086612c5f612c3f565b815201612c6a612c43565b815201612c75612c43565b815201612c80612c43565b815201612c8b612c43565b81525050565b612c99612c47565b90565b90612ca690610610565b9052565b90565b612cc1612cbc612cc692612caa565b610c8d565b610480565b90565b90565b612ce0612cdb612ce592612cc9565b610c8d565b610480565b90565b90565b612cff612cfa612d0492612ce8565b610c8d565b610480565b90565b90612d11906105f7565b9052565b612d1f90516105f7565b90565b90612d3360018060a01b0391612175565b9181191691161790565b612d4690611d2d565b90565b90565b90612d61612d5c612d6892612d3d565b612d49565b8254612d22565b9055565b612d769051610610565b90565b60a01b90565b90612d8e60ff60a01b91612d79565b9181191691161790565b612da190610610565b90565b90565b90612dbc612db7612dc392612d98565b612da4565b8254612d7f565b9055565b60a81b90565b90612ddc60ff60a81b91612dc7565b9181191691161790565b90612dfb612df6612e0292612d98565b612da4565b8254612dcd565b9055565b60b01b90565b90612e1b60ff60b01b91612e06565b9181191691161790565b90612e3a612e35612e4192612d98565b612da4565b8254612e0c565b9055565b60b81b90565b90612e5a60ff60b81b91612e45565b9181191691161790565b90612e79612e74612e8092612d98565b612da4565b8254612e4b565b9055565b90612ef660805f612efc94612ea6828201612ea0848801612d15565b90612d4c565b612ebe828201612eb860208801612d6c565b90612da7565b612ed6828201612ed060408801612d6c565b90612de6565b612eee828201612ee860608801612d6c565b90612e25565b019201612d6c565b90612e64565b565b90612f0891612e84565b565b612f4c906020612f22612f1d6002611d7a565b611d87565b631d84be4490612f413392612f35610427565b96879485938493611dda565b835260048301611620565b03915afa91821561304457612fdb92612fd4915f91613016575b5091612f70612c91565b92612f7f600160208601612c9c565b80612f93612f8d6001612cad565b91610480565b14613003575b80612fad612fa76002612ccc565b91610480565b14612ff0575b612fc6612fc06003612ceb565b91610480565b14612fdd575b5f8301612d07565b600d612efe565b565b612feb600160808501612c9c565b612fcc565b612ffe600160608601612c9c565b612fb3565b613011600160408601612c9c565b612f99565b613037915060203d811161303d575b61302f8183611db1565b8101906126d3565b5f612f66565b503d613025565b611e0d565b61305290612ace565b565b906130849291602061306e6130696002611d7a565b611d87565b636a276f9d9061307c610427565b968792611dda565b825281806130946004820161091a565b03915afa9384156131b0576130f2946130b4915f91613182575b50611e7f565b60206130c86130c36002611d7a565b611d87565b6319c06429906130e733926130db610427565b98899485938493611dda565b835260048301611620565b03915afa801561317d5761311d945f9161314f575b50801561311f575b61311890611f39565b6132a2565b565b506131186131356131306001611ec7565b611ed4565b613147613141336105f7565b916105f7565b14905061310f565b613170915060203d8111613176575b6131688183611db1565b810190611def565b5f613107565b503d61315e565b611e0d565b6131a3915060203d81116131a9575b61319b8183611db1565b810190611def565b5f6130ae565b503d613191565b611e0d565b90565b6131cc6131c76131d1926131b5565b610c8d565b610480565b90565b5f7f696e76616c69642072616e6b0000000000000000000000000000000000000000910152565b613208600c602092611e1d565b613211816131d4565b0190565b61322a9060208101905f8183039101526131fb565b90565b1561323457565b61323c610427565b62461bcd60e51b81528061325260048201613215565b0390fd5b61326060406120c7565b90565b9061328e60206001613294946132865f82016132805f8801612168565b90612193565b019201612168565b90612193565b565b906132a091613263565b565b6132f0906132e96132f594936132cb836132c56132bf60086131b8565b91610480565b1061322d565b936132e06132d7613256565b955f870161215a565b6020850161215a565b600e611878565b613296565b565b906133029291613054565b565b906133379594939291602061332161331c6002611d7a565b611d87565b636a276f9d9061332f610427565b998a92611dda565b825281806133476004820161091a565b03915afa968715613463576133a597613367915f91613435575b50611e7f565b602061337b6133766002611d7a565b611d87565b6319c064299061339a339261338e610427565b9b8c9485938493611dda565b835260048301611620565b03915afa8015613430576133d0975f91613402575b5080156133d2575b6133cb90611f39565b6135a0565b565b506133cb6133e86133e36001611ec7565b611ed4565b6133fa6133f4336105f7565b916105f7565b1490506133c2565b613423915060203d8111613429575b61341b8183611db1565b810190611def565b5f6133ba565b503d613411565b611e0d565b613456915060203d811161345c575b61344e8183611db1565b810190611def565b5f613361565b503d613444565b611e0d565b90565b61347f61347a61348492613468565b610c8d565b610480565b90565b5f7f696e76616c6964206c6576656c00000000000000000000000000000000000000910152565b6134bb600d602092611e1d565b6134c481613487565b0190565b6134dd9060208101905f8183039101526134ae565b90565b156134e757565b6134ef610427565b62461bcd60e51b815280613505600482016134c8565b0390fd5b61351360a06120c7565b90565b9061358c60806004613592946135395f82016135335f8801612168565b90612193565b6135526001820161354c60208801612168565b90612193565b61356b6002820161356560408801612168565b90612193565b6135846003820161357e60608801612168565b90612193565b019201612168565b90612193565b565b9061359e91613516565b565b91939261360961361e96613600613619966135f7613612966135d5896135cf6135c9601061346b565b91610480565b106134e0565b99959193956135ee6135e5613509565b9b5f8d0161215a565b60208b0161215a565b6040890161215a565b6060870161215a565b6080850161215a565b601161109e565b613594565b565b9061362e9594939291613304565b565b90613664969594939291602061364e6136496002611d7a565b611d87565b636a276f9d9061365c610427565b9a8b92611dda565b825281806136746004820161091a565b03915afa978815613790576136d298613694915f91613762575b50611e7f565b60206136a86136a36002611d7a565b611d87565b6319c06429906136c733926136bb610427565b9c8d9485938493611dda565b835260048301611620565b03915afa801561375d576136fd985f9161372f575b5080156136ff575b6136f890611f39565b613795565b565b506136f86137156137106001611ec7565b611ed4565b613727613721336105f7565b916105f7565b1490506136ef565b613750915060203d8111613756575b6137488183611db1565b810190611def565b5f6136e7565b503d61373e565b611e0d565b613783915060203d8111613789575b61377b8183611db1565b810190611def565b5f61368e565b503d613771565b611e0d565b6137fb946137e061380298956137d76137f2966137ce5f9b976137c56137e9986137bd61214f565b9e8f0161215a565b60208d0161215a565b60408b0161215a565b6060890161215a565b6080870161215a565b60a0850161215a565b60c0830161215a565b6020612263565b565b90613813969594939291613630565b565b61383190613821611d0d565b5061382c6031610779565b612481565b90565b60018060a01b031690565b61384b613850916104da565b613834565b90565b61385d905461383f565b90565b61386990611d2d565b90565b90565b61388361387e6138889261386c565b610c8d565b6105ec565b90565b6138949061386f565b90565b5f7f6f776e2e686578626173652e6661696c65640000000000000000000000000000910152565b6138cb6012602092611e1d565b6138d481613897565b0190565b6138ed9060208101905f8183039101526138be565b90565b156138f757565b6138ff610427565b62461bcd60e51b815280613915600482016138d8565b0390fd5b61392290611d11565b90565b61392e90613919565b90565b61393a90611d11565b90565b61394690613931565b90565b61395290613931565b90565b90565b9061396d61396861397492613949565b613955565b8254612d22565b9055565b6139cb6139c66139d1926139b66139966139915f613853565b613860565b6139b06139aa6139a55f61388b565b6105f7565b916105f7565b146138f0565b6139c132600c612d4c565b613925565b61393d565b5f613958565b6139d9615af7565b565b90613a0d9493929160206139f76139f26002611d7a565b611d87565b636a276f9d90613a05610427565b988992611dda565b82528180613a1d6004820161091a565b03915afa958615613b3957613a7b96613a3d915f91613b0b575b50611e7f565b6020613a51613a4c6002611d7a565b611d87565b6319c0642990613a703392613a64610427565b9a8b9485938493611dda565b835260048301611620565b03915afa8015613b0657613aa6965f91613ad8575b508015613aa8575b613aa190611f39565b613cc2565b565b50613aa1613abe613ab96001611ec7565b611ed4565b613ad0613aca336105f7565b916105f7565b149050613a98565b613af9915060203d8111613aff575b613af18183611db1565b810190611def565b5f613a90565b503d613ae7565b611e0d565b613b2c915060203d8111613b32575b613b248183611db1565b810190611def565b5f613a37565b503d613b1a565b611e0d565b613b4860a06120c7565b90565b90613b5760ff91612175565b9181191691161790565b90613b76613b71613b7d92612d98565b612da4565b8254613b4b565b9055565b60081b90565b90613b9461ff0091613b81565b9181191691161790565b90613bb3613bae613bba92612d98565b612da4565b8254613b87565b9055565b60101b90565b90613bd262ff000091613bbe565b9181191691161790565b90613bf1613bec613bf892612d98565b612da4565b8254613bc4565b9055565b60181b90565b90613c1163ff00000091613bfc565b9181191691161790565b90613c30613c2b613c3792612d98565b612da4565b8254613c02565b9055565b90613cae60806001613cb494613c5e5f8201613c585f8801612168565b90612193565b613c76828201613c7060208801612d6c565b90613b61565b613c8e828201613c8860408801612d6c565b90613b9e565b613ca6828201613ca060608801612d6c565b90613bdc565b019201612d6c565b90613c1b565b565b90613cc091613c3b565b565b613d1a94613d01613d13949395613cf8613d0a949795919395613cef613ce6613b3e565b995f8b0161215a565b60208901612c9c565b60408701612c9c565b60608501612c9c565b60808301612c9c565b602d613cb6565b565b90613d29949392916139db565b565b90565b613d42613d3d613d4792613d2b565b610c8d565b610480565b90565b613dac613d99613d73613dd293613d5f611d0d565b50613d6d6001601901610779565b90612481565b613d93613d836002601901610779565b613d8d6064613d2e565b90612481565b90612705565b613da66003601901610779565b90612481565b613dcc613dbc6004601901610779565b613dc66064613d2e565b90612481565b90612705565b90565b613e37613e24613dfe613e5d93613dea611d0d565b50613df86001601201610779565b90612481565b613e1e613e0e6002601201610779565b613e186064613d2e565b90612481565b90612705565b613e316003601201610779565b90612481565b613e57613e476004601201610779565b613e516064613d2e565b90612481565b90612705565b90565b90613e919392916020613e7b613e766002611d7a565b611d87565b636a276f9d90613e89610427565b978892611dda565b82528180613ea16004820161091a565b03915afa948515613fbd57613eff95613ec1915f91613f8f575b50611e7f565b6020613ed5613ed06002611d7a565b611d87565b6319c0642990613ef43392613ee8610427565b998a9485938493611dda565b835260048301611620565b03915afa8015613f8a57613f2a955f91613f5c575b508015613f2c575b613f2590611f39565b614064565b565b50613f25613f42613f3d6001611ec7565b611ed4565b613f54613f4e336105f7565b916105f7565b149050613f1c565b613f7d915060203d8111613f83575b613f758183611db1565b810190611def565b5f613f14565b503d613f6b565b611e0d565b613fb0915060203d8111613fb6575b613fa88183611db1565b810190611def565b5f613ebb565b503d613f9e565b611e0d565b613fcc60606120c7565b90565b613fd7613fc2565b906020808084613fe56120e9565b815201613ff06120e9565b815201613ffb6120e9565b81525050565b614009613fcf565b90565b90614050604060026140569461402f5f82016140295f8801612168565b90612193565b6140486001820161404260208801612168565b90612193565b019201612168565b90612193565b565b906140629161400c565b565b919261408b6140949294614082614079614001565b965f880161215a565b6020860161215a565b6040840161215a565b806140a86140a26001612cad565b91610480565b146140db575b6140c16140bb6002612ccc565b91610480565b146140ca575b50565b6140d590602a614058565b5f6140c7565b6140e6826027614058565b6140ae565b906140f7939291613e60565b565b9061412a939291602061411461410f6002611d7a565b611d87565b636a276f9d90614122610427565b978892611dda565b8252818061413a6004820161091a565b03915afa948515614256576141989561415a915f91614228575b50611e7f565b602061416e6141696002611d7a565b611d87565b6319c064299061418d3392614181610427565b998a9485938493611dda565b835260048301611620565b03915afa8015614223576141c3955f916141f5575b5080156141c5575b6141be90611f39565b61425b565b565b506141be6141db6141d66001611ec7565b611ed4565b6141ed6141e7336105f7565b916105f7565b1490506141b5565b614216915060203d811161421c575b61420e8183611db1565b810190611def565b5f6141ad565b503d614204565b611e0d565b614249915060203d811161424f575b6142418183611db1565b810190611def565b5f614154565b503d614237565b611e0d565b916142796142809261427261428796956034612193565b6035612193565b6036612193565b6037612193565b565b906142959392916140f9565b565b5f90565b6142a3614297565b506142ae600c6104fe565b90565b6142df9060206142c96142c46002611d7a565b611d87565b636a276f9d906142d7610427565b948592611dda565b825281806142ef6004820161091a565b03915afa91821561440b5761434d9261430f915f916143dd575b50611e7f565b602061432361431e6002611d7a565b611d87565b6319c06429906143423392614336610427565b96879485938493611dda565b835260048301611620565b03915afa80156143d857614378925f916143aa575b50801561437a575b61437390611f39565b614410565b565b5061437361439061438b6001611ec7565b611ed4565b6143a261439c336105f7565b916105f7565b14905061436a565b6143cb915060203d81116143d1575b6143c38183611db1565b810190611def565b5f614362565b503d6143b9565b611e0d565b6143fe915060203d8111614404575b6143f68183611db1565b810190611def565b5f614309565b503d6143ec565b611e0d565b61442e61443591614428670de0b6b3a7640000612451565b90612481565b6032612193565b565b614440906142b1565b565b9061447191602061445b6144566002611d7a565b611d87565b636a276f9d90614469610427565b958692611dda565b825281806144816004820161091a565b03915afa92831561459d576144df936144a1915f9161456f575b50611e7f565b60206144b56144b06002611d7a565b611d87565b6319c06429906144d433926144c8610427565b97889485938493611dda565b835260048301611620565b03915afa801561456a5761450a935f9161453c575b50801561450c575b61450590611f39565b6145a2565b565b5061450561452261451d6001611ec7565b611ed4565b61453461452e336105f7565b916105f7565b1490506144fc565b61455d915060203d8111614563575b6145558183611db1565b810190611def565b5f6144f4565b503d61454b565b611e0d565b614590915060203d8111614596575b6145888183611db1565b810190611def565b5f61449b565b503d61457e565b611e0d565b906145b16145b892602f613b61565b602f613b9e565b565b906145c491614442565b565b6145f49060206145de6145d96002611d7a565b611d87565b636a276f9d906145ec610427565b948592611dda565b825281806146046004820161091a565b03915afa9182156147205761466292614624915f916146f2575b50611e7f565b60206146386146336002611d7a565b611d87565b6319c0642990614657339261464b610427565b96879485938493611dda565b835260048301611620565b03915afa80156146ed5761468d925f916146bf575b50801561468f575b61468890611f39565b614725565b565b506146886146a56146a06001611ec7565b611ed4565b6146b76146b1336105f7565b916105f7565b14905061467f565b6146e0915060203d81116146e6575b6146d88183611db1565b810190611def565b5f614677565b503d6146ce565b611e0d565b614713915060203d8111614719575b61470b8183611db1565b810190611def565b5f61461e565b503d614701565b611e0d565b614730906033612193565b565b61473b906145c6565b565b9061476b60206147556147506002611d7a565b611d87565b636a276f9d90614763610427565b938492611dda565b8252818061477b6004820161091a565b03915afa801561489d57614796915f9161486f575b50611e7f565b6147a86147a36001611ec7565b611ed4565b6147ba6147b4336105f7565b916105f7565b149182156147d6575b6147cf6147d493612aa5565b6148da565b565b614819925060206147ef6147ea6002611d7a565b611d87565b637df73e279061480e3392614802610427565b97889485938493611dda565b835260048301611620565b03915afa92831561486a576147d4936147cf915f9161483c575b509350506147c3565b61485d915060203d8111614863575b6148558183611db1565b810190611def565b5f614833565b503d61484b565b611e0d565b614890915060203d8111614896575b6148888183611db1565b810190611def565b5f614790565b503d61487e565b611e0d565b6148b66148b16148bb9261386c565b610c8d565b610480565b90565b6148c790610480565b5f1981146148d55760010190565b61246d565b905f14614ba85761492260206148f86148f36002611d7a565b611d87565b631d84be4490614917339261490b610427565b95869485938493611dda565b835260048301611620565b03915afa908115614ba3575f91614b75575b506149415f600d0161052b565b80614b5a575b80614b35575b614b22575b61495e5f600d0161052b565b80614b07575b80614ae2575b614acf575b61497b5f600d0161052b565b9081614ab3575b5080614a8e575b614a7b575b6149975f6148a2565b6149a35f600d01610552565b614a6d575b6149b45f600d01610579565b614a5f575b6149c55f600d016105a0565b614a51575b6149d65f600d0161052b565b9081614a35575b5080614a10575b6149ed575b505b565b6149f890600c612d4c565b614a0a614a03612c91565b600d612efe565b5f6149e9565b50614a1d5f600d016104fe565b614a2f614a29836105f7565b916105f7565b146149e4565b9050614a4a614a446002612ccc565b91610480565b145f6149dd565b614a5a906148be565b6149ca565b614a68906148be565b6149b9565b614a76906148be565b6149a8565b614a8960015f600d01612e64565b61498e565b50614a9b5f600d016104fe565b614aad614aa7836105f7565b916105f7565b14614989565b9050614ac8614ac26003612ceb565b91610480565b145f614982565b614add60015f600d01612e25565b61496f565b50614aef5f600d016104fe565b614b01614afb846105f7565b916105f7565b1461496a565b5080614b1c614b166002612ccc565b91610480565b14614964565b614b3060015f600d01612de6565b614952565b50614b425f600d016104fe565b614b54614b4e846105f7565b916105f7565b1461494d565b5080614b6f614b696001612cad565b91610480565b14614947565b614b96915060203d8111614b9c575b614b8e8183611db1565b8101906126d3565b5f614934565b503d614b84565b611e0d565b50614bbb614bb4612c91565b600d612efe565b6149eb565b90614bca9161473d565b565b90614bfd9392916020614be7614be26002611d7a565b611d87565b636a276f9d90614bf5610427565b978892611dda565b82528180614c0d6004820161091a565b03915afa948515614d2957614c6b95614c2d915f91614cfb575b50611e7f565b6020614c41614c3c6002611d7a565b611d87565b6319c0642990614c603392614c54610427565b998a9485938493611dda565b835260048301611620565b03915afa8015614cf657614c96955f91614cc8575b508015614c98575b614c9190611f39565b614d2e565b565b50614c91614cae614ca96001611ec7565b611ed4565b614cc0614cba336105f7565b916105f7565b149050614c88565b614ce9915060203d8111614cef575b614ce18183611db1565b810190611def565b5f614c80565b503d614cd7565b611e0d565b614d1c915060203d8111614d22575b614d148183611db1565b810190611def565b5f614c27565b503d614d0a565b611e0d565b91614d4c614d5392614d45614d5a9695603d612193565b603e612193565b6040612193565b6041612193565b565b90614d68939291614bcc565b565b90614d9e9695949392916020614d88614d836002611d7a565b611d87565b636a276f9d90614d96610427565b9a8b92611dda565b82528180614dae6004820161091a565b03915afa978815614eca57614e0c98614dce915f91614e9c575b50611e7f565b6020614de2614ddd6002611d7a565b611d87565b6319c0642990614e013392614df5610427565b9c8d9485938493611dda565b835260048301611620565b03915afa8015614e9757614e37985f91614e69575b508015614e39575b614e3290611f39565b614ecf565b565b50614e32614e4f614e4a6001611ec7565b611ed4565b614e61614e5b336105f7565b916105f7565b149050614e29565b614e8a915060203d8111614e90575b614e828183611db1565b810190611def565b5f614e21565b503d614e78565b611e0d565b614ebd915060203d8111614ec3575b614eb58183611db1565b810190611def565b5f614dc8565b503d614eab565b611e0d565b614f3594614f1a614f3c9895614f11614f2c96614f085f9b97614eff614f2398614ef761214f565b9e8f0161215a565b60208d0161215a565b60408b0161215a565b6060890161215a565b6080870161215a565b60a0850161215a565b60c0830161215a565b6012612263565b565b90614f4d969594939291614d6a565b565b614f57611d0d565b50614fb1614f7f614f686032610779565b614f79670de0b6b3a7640000612451565b90612481565b6020614f9b614f96614f9160066104fe565b6126ac565b6126b8565b637d8ec03a90614fa9610427565b948592611dda565b82528180614fc16004820161091a565b03915afa90811561501057614fdd925f92614fe0575b50612705565b90565b61500291925060203d8111615009575b614ffa8183611db1565b8101906126d3565b905f614fd7565b503d614ff0565b611e0d565b61504390602061502d6150286002611d7a565b611d87565b636a276f9d9061503b610427565b948592611dda565b825281806150536004820161091a565b03915afa9182156150d5576150a592615073915f916150a7575b50611e7f565b6150a06150886150836001611ec7565b611ed4565b61509a615094336105f7565b916105f7565b14611f39565b6150e6565b565b6150c8915060203d81116150ce575b6150c08183611db1565b810190611def565b5f61506d565b503d6150b6565b611e0d565b6150e390611d2d565b90565b5f808080936151046150ff6150fa8461388b565b613925565b6150da565b828215615119575bf11561511457565b611e0d565b506108fc61510c565b61512b90615015565b565b9061515e93929160206151486151436002611d7a565b611d87565b636a276f9d90615156610427565b978892611dda565b8252818061516e6004820161091a565b03915afa94851561528a576151cc9561518e915f9161525c575b50611e7f565b60206151a261519d6002611d7a565b611d87565b6319c06429906151c133926151b5610427565b998a9485938493611dda565b835260048301611620565b03915afa8015615257576151f7955f91615229575b5080156151f9575b6151f290611f39565b6152f4565b565b506151f261520f61520a6001611ec7565b611ed4565b61522161521b336105f7565b916105f7565b1490506151e9565b61524a915060203d8111615250575b6152428183611db1565b810190611def565b5f6151e1565b503d615238565b611e0d565b61527d915060203d8111615283575b6152758183611db1565b810190611def565b5f615188565b503d61526b565b611e0d565b61529960606120c7565b90565b906152e0604060026152e6946152bf5f82016152b95f8801612168565b90612193565b6152d8600182016152d260208801612168565b90612193565b019201612168565b90612193565b565b906152f29161529c565b565b6153466153529461533d61534d9461531f8561531961531360086131b8565b91610480565b1061322d565b9561533461532b61528f565b975f890161215a565b6020870161215a565b6040850161215a565b600f610cac565b6152e8565b565b9061536093929161512d565b565b9061539191602061537b6153766002611d7a565b611d87565b636a276f9d90615389610427565b958692611dda565b825281806153a16004820161091a565b03915afa9283156154bd576153ff936153c1915f9161548f575b50611e7f565b60206153d56153d06002611d7a565b611d87565b6319c06429906153f433926153e8610427565b97889485938493611dda565b835260048301611620565b03915afa801561548a5761542a935f9161545c575b50801561542c575b61542590611f39565b6154c2565b565b5061542561544261543d6001611ec7565b611ed4565b61545461544e336105f7565b916105f7565b14905061541c565b61547d915060203d8111615483575b6154758183611db1565b810190611def565b5f615414565b503d61546b565b611e0d565b6154b0915060203d81116154b6575b6154a88183611db1565b810190611def565b5f6153bb565b503d61549e565b611e0d565b906154d16154d892603f612193565b6042612193565b565b906154e491615362565b565b61554861553561550f61556e936154fb611d0d565b506155096001602001610779565b90612481565b61552f61551f6002602001610779565b6155296064613d2e565b90612481565b90612705565b6155426003602001610779565b90612481565b6155686155586004602001610779565b6155626064613d2e565b90612481565b90612705565b90565b5f7f6f776e2e64656661756c742e73656e6465720000000000000000000000000000910152565b6155a56012602092611e1d565b6155ae81615571565b0190565b6155c79060208101905f818303910152615598565b90565b156155d157565b6155d9610427565b62461bcd60e51b8152806155ef600482016155b2565b0390fd5b906156229161561d8161561661561061560b5f61388b565b6105f7565b916105f7565b14156155ca565b615624565b565b9061565391602061563d6156386002611d7a565b611d87565b636a276f9d9061564b610427565b958692611dda565b825281806156636004820161091a565b03915afa9283156156e5576156b593615683915f916156b7575b50611e7f565b6156b06156986156936001611ec7565b611ed4565b6156aa6156a4336105f7565b916105f7565b14611f39565b61576c565b565b6156d8915060203d81116156de575b6156d08183611db1565b810190611def565b5f61567d565b503d6156c6565b611e0d565b5f7f6f776e2e696e76616c69642e616d6f756e740000000000000000000000000000910152565b61571e6012602092611e1d565b615727816156ea565b0190565b6157409060208101905f818303910152615711565b90565b1561574a57565b615752610427565b62461bcd60e51b8152806157686004820161572b565b0390fd5b5f80809361579e61579983956157948461578e615788886148a2565b91610480565b11615743565b613925565b6150da565b8282156157b3575bf1156157ae57565b611e0d565b506108fc6157a6565b906157c6916155f3565b565b906157f79160206157e16157dc6002611d7a565b611d87565b636a276f9d906157ef610427565b958692611dda565b825281806158076004820161091a565b03915afa9283156159235761586593615827915f916158f5575b50611e7f565b602061583b6158366002611d7a565b611d87565b6319c064299061585a339261584e610427565b97889485938493611dda565b835260048301611620565b03915afa80156158f057615890935f916158c2575b508015615892575b61588b90611f39565b615928565b565b5061588b6158a86158a36001611ec7565b611ed4565b6158ba6158b4336105f7565b916105f7565b149050615882565b6158e3915060203d81116158e9575b6158db8183611db1565b810190611def565b5f61587a565b503d6158d1565b611e0d565b615916915060203d811161591c575b61590e8183611db1565b810190611def565b5f615821565b503d615904565b611e0d565b6159546159599261594c8361594661594060086131b8565b91610480565b1061322d565b9160106114fd565b612193565b565b90615965916157c8565b565b9050519061597482610c02565b565b9060208282031261598f5761598c915f01615967565b90565b610431565b61599d90611d11565b90565b6159a990615994565b90565b6159b590615994565b90565b90565b906159d06159cb6159d7926159ac565b6159b8565b8254612d22565b9055565b6159e490611d11565b90565b6159f0906159db565b90565b6159fc906159db565b90565b90565b90615a17615a12615a1e926159f3565b6159ff565b8254612d22565b9055565b615a2b90611d11565b90565b615a3790615a22565b90565b615a4390615a22565b90565b90565b90615a5e615a59615a6592615a3a565b615a46565b8254612d22565b9055565b615a7290611d11565b90565b615a7e90615a69565b90565b615a8a90615a69565b90565b90565b90615aa5615aa0615aac92615a81565b615a8d565b8254612d22565b9055565b615ab990611d11565b90565b615ac590615ab0565b90565b615ad190615ab0565b90565b90565b90615aec615ae7615af392615ac8565b615ad4565b8254612d22565b9055565b615b08615b035f613853565b613860565b615b22615b1c615b175f61388b565b6105f7565b916105f7565b1461615f57615b536020615b3d615b385f613853565b613860565b634162169f90615b4b610427565b938492611dda565b82528180615b636004820161091a565b03915afa90811561615a57615b8a91615b83915f9161612c575b506159a0565b60016159bb565b615bb66020615ba0615b9b5f613853565b613860565b63b57dbdc690615bae610427565b938492611dda565b82528180615bc66004820161091a565b03915afa90811561612757615bed91615be6915f916160f9575b506159e7565b6002615a02565b615c196020615c03615bfe5f613853565b613860565b63cfbffe5390615c11610427565b938492611dda565b82528180615c296004820161091a565b03915afa9081156160f457615c5091615c49915f916160c6575b50615a2e565b6003615a49565b615c7c6020615c66615c615f613853565b613860565b63ab6e844f90615c74610427565b938492611dda565b82528180615c8c6004820161091a565b03915afa9081156160c157615cb391615cac915f91616093575b50615a75565b6004615a90565b615cdf6020615cc9615cc45f613853565b613860565b639a7c407790615cd7610427565b938492611dda565b82528180615cef6004820161091a565b03915afa90811561608e57615d1691615d0f915f91616060575b50615abc565b6005615ad7565b615d426020615d2c615d275f613853565b613860565b63aa0ddc1690615d3a610427565b938492611dda565b82528180615d526004820161091a565b03915afa801561605b57615d6f915f9161602d575b506007612d4c565b615d9b6020615d85615d805f613853565b613860565b636b4aefc690615d93610427565b938492611dda565b82528180615dab6004820161091a565b03915afa801561602857615dc8915f91615ffa575b506008612d4c565b615df46020615dde615dd95f613853565b613860565b6324768d9190615dec610427565b938492611dda565b82528180615e046004820161091a565b03915afa8015615ff557615e21915f91615fc7575b50600b612d4c565b615e4d6020615e37615e325f613853565b613860565b636402742790615e45610427565b938492611dda565b82528180615e5d6004820161091a565b03915afa8015615fc257615e7a915f91615f94575b506009612d4c565b615ea66020615e90615e8b5f613853565b613860565b6330125cf590615e9e610427565b938492611dda565b82528180615eb66004820161091a565b03915afa8015615f8f57615ed3915f91615f61575b50600a612d4c565b615eff6020615ee9615ee45f613853565b613860565b63d3d1b09690615ef7610427565b938492611dda565b82528180615f0f6004820161091a565b03915afa8015615f5c57615f2c915f91615f2e575b506006612d4c565b565b615f4f915060203d8111615f55575b615f478183611db1565b810190615976565b5f615f24565b503d615f3d565b611e0d565b615f82915060203d8111615f88575b615f7a8183611db1565b810190615976565b5f615ecb565b503d615f70565b611e0d565b615fb5915060203d8111615fbb575b615fad8183611db1565b810190615976565b5f615e72565b503d615fa3565b611e0d565b615fe8915060203d8111615fee575b615fe08183611db1565b810190615976565b5f615e19565b503d615fd6565b611e0d565b61601b915060203d8111616021575b6160138183611db1565b810190615976565b5f615dc0565b503d616009565b611e0d565b61604e915060203d8111616054575b6160468183611db1565b810190615976565b5f615d67565b503d61603c565b611e0d565b616081915060203d8111616087575b6160798183611db1565b810190615976565b5f615d09565b503d61606f565b611e0d565b6160b4915060203d81116160ba575b6160ac8183611db1565b810190615976565b5f615ca6565b503d6160a2565b611e0d565b6160e7915060203d81116160ed575b6160df8183611db1565b810190615976565b5f615c43565b503d6160d5565b611e0d565b61611a915060203d8111616120575b6161128183611db1565b810190615976565b5f615be0565b503d616108565b611e0d565b61614d915060203d8111616153575b6161458183611db1565b810190615976565b5f615b7d565b503d61613b565b611e0d565b56fea26469706673582212204f8ad0648d0806af2e14c7ad523c2d163e471197e889f47073eb5ef62e82561764736f6c63430008180033","linkReferences":{}},"methodIdentifiers":{"gethexbAdd()":"21dc7851"},"id":69}