{"abi":[{"type":"constructor","inputs":[{"name":"_hex","type":"address","internalType":"address"}],"stateMutability":"nonpayable"},{"type":"fallback","stateMutability":"payable"},{"type":"receive","stateMutability":"payable"},{"type":"function","name":"Burn","inputs":[{"name":"amount","type":"uint256","internalType":"uint256"}],"outputs":[],"stateMutability":"nonpayable"},{"type":"function","name":"UserToWithdraw","inputs":[{"name":"","type":"address","internalType":"address"}],"outputs":[{"name":"","type":"uint256","internalType":"uint256"}],"stateMutability":"view"},{"type":"function","name":"UserToWithdrawDollar","inputs":[{"name":"","type":"address","internalType":"address"}],"outputs":[{"name":"","type":"uint256","internalType":"uint256"}],"stateMutability":"view"},{"type":"function","name":"_delegatorCount","inputs":[],"outputs":[{"name":"","type":"uint256","internalType":"uint256"}],"stateMutability":"view"},{"type":"function","name":"_getImplementation","inputs":[{"name":"clone","type":"address","internalType":"address"}],"outputs":[{"name":"impl","type":"address","internalType":"address"}],"stateMutability":"view"},{"type":"function","name":"_isDelegatorNode","inputs":[{"name":"sender","type":"address","internalType":"address"}],"outputs":[{"name":"","type":"bool","internalType":"bool"}],"stateMutability":"view"},{"type":"function","name":"_isSafe","inputs":[],"outputs":[{"name":"","type":"bool","internalType":"bool"}],"stateMutability":"view"},{"type":"function","name":"_isSecureBase","inputs":[{"name":"sender","type":"address","internalType":"address"}],"outputs":[{"name":"","type":"bool","internalType":"bool"}],"stateMutability":"view"},{"type":"function","name":"_isSigner","inputs":[{"name":"sender","type":"address","internalType":"address"}],"outputs":[{"name":"","type":"bool","internalType":"bool"}],"stateMutability":"view"},{"type":"function","name":"currentnode","inputs":[],"outputs":[{"name":"","type":"uint256","internalType":"uint256"}],"stateMutability":"view"},{"type":"function","name":"getBalance","inputs":[],"outputs":[{"name":"","type":"uint256","internalType":"uint256"}],"stateMutability":"view"},{"type":"function","name":"getClaimInfo","inputs":[{"name":"user","type":"address","internalType":"address"}],"outputs":[{"name":"","type":"uint256","internalType":"uint256"},{"name":"","type":"uint256","internalType":"uint256"}],"stateMutability":"view"},{"type":"function","name":"getHexbase","inputs":[],"outputs":[{"name":"","type":"address","internalType":"address"}],"stateMutability":"view"},{"type":"function","name":"gettotalClaim","inputs":[{"name":"uid","type":"uint256","internalType":"uint256"}],"outputs":[{"name":"total","type":"uint256","internalType":"uint256"}],"stateMutability":"view"},{"type":"function","name":"owner","inputs":[],"outputs":[{"name":"","type":"address","internalType":"address"}],"stateMutability":"view"},{"type":"function","name":"setClaimAndPush","inputs":[{"name":"batch","type":"uint256","internalType":"uint256"}],"outputs":[],"stateMutability":"nonpayable"},{"type":"function","name":"syncBaseAddr","inputs":[],"outputs":[],"stateMutability":"nonpayable"},{"type":"function","name":"systemAge","inputs":[],"outputs":[{"name":"","type":"uint256","internalType":"uint256"}],"stateMutability":"view"},{"type":"function","name":"updateClaimedAndDollar_NotNeed","inputs":[{"name":"users","type":"address[]","internalType":"address[]"},{"name":"claimed","type":"uint256[]","internalType":"uint256[]"},{"name":"dollar","type":"uint256[]","internalType":"uint256[]"}],"outputs":[],"stateMutability":"nonpayable"},{"type":"function","name":"updateDollarOnly","inputs":[{"name":"users","type":"address[]","internalType":"address[]"},{"name":"dollar","type":"uint256[]","internalType":"uint256[]"}],"outputs":[],"stateMutability":"nonpayable"},{"type":"event","name":"EthBurned","inputs":[{"name":"sender","type":"address","indexed":true,"internalType":"address"},{"name":"amount","type":"uint256","indexed":false,"internalType":"uint256"}],"anonymous":false},{"type":"event","name":"EthTransferred","inputs":[{"name":"to","type":"address","indexed":true,"internalType":"address"},{"name":"amount","type":"uint256","indexed":false,"internalType":"uint256"}],"anonymous":false},{"type":"event","name":"HexBaseUpdated","inputs":[{"name":"previousHexBase","type":"address","indexed":true,"internalType":"address"},{"name":"newHexBase","type":"address","indexed":true,"internalType":"address"}],"anonymous":false},{"type":"event","name":"OwnerUpdated","inputs":[{"name":"previousOwner","type":"address","indexed":true,"internalType":"address"},{"name":"newOwner","type":"address","indexed":true,"internalType":"address"}],"anonymous":false},{"type":"error","name":"CallFailed","inputs":[]},{"type":"error","name":"InvalidAddress","inputs":[]},{"type":"error","name":"InvalidState","inputs":[]},{"type":"error","name":"NotAuthorized","inputs":[]},{"type":"error","name":"NotSafe","inputs":[]},{"type":"error","name":"TargetCallFailed","inputs":[{"name":"selector","type":"bytes4","internalType":"bytes4"}]}],"bytecode":{"object":"0x60803461009257601f611f1038819003918201601f19168301916001600160401b038311848410176100975780849260209460405283398101031261009257516001600160a01b038116908190036100925780156100805760018060a01b0319338160015416176001556000541617600055604051611e6290816100ae8239f35b60405163e6c4247b60e01b8152600490fd5b600080fd5b634e487b7160e01b600052604160045260246000fdfe60806040526004361015610018575b361561001657005b005b60003560e01c80630835fe471461015857806312065fe0146101535780631f185d161461014e578063339459a6146101495780633b9b7955146101445780634a509a9b1461013f57806360aabd801461013a57806365d8eccf146101355780638da5cb5b14610130578063a1f7f5391461012b578063a3c9b33514610126578063af48452614610121578063b90306ad1461011c578063bce486eb14610117578063c54e44b014610112578063e01ad5fd1461010d578063e0a9bc2b14610108578063edd3ceb614610103578063fbb89b1d146100fe5763fdc10bc90361000e576115d0565b6114d5565b6114b7565b61149c565b6113d1565b61134b565b61130d565b6111ff565b6111ce565b610fb0565b610f3b565b610f14565b610dbd565b610c0b565b6107e2565b6107bb565b6102bd565b6101ef565b6101d3565b610173565b6001600160a01b0381160361016e57565b600080fd5b3461016e57602036600319011261016e576001600160a01b036004356101988161015d565b16600052600e602052604060002054600d602052604060002054906101cf6040519283928360209093929193604081019481520152565b0390f35b3461016e57600036600319011261016e57602047604051908152f35b3461016e5760208060031936011261016e5761026e6004356102108161015d565b6001600160a01b0380600254169060405192168483015283825261023382610c5f565b6040519061024082610c5f565b601182527f69735369676e657228616464726573732900000000000000000000000000000085830152611c19565b9190806102b3575b156102a2578181610290926101cf94518301019101611a9b565b60405190151581529081906020820190565b6004604051633204506f60e01b8152fd5b5080825114610276565b3461016e576000806003193601126107b8576102ef6102e382546001600160a01b031690565b6001600160a01b031690565b604080517f97f3815a0000000000000000000000000000000000000000000000000000000081529160049190602080858581855afa94851561067f578695610799575b508251927fcfbffe5300000000000000000000000000000000000000000000000000000000845281848681865afa93841561067f57879461077a575b5080517fab6e844f00000000000000000000000000000000000000000000000000000000815282818781875afa90811561067f57889161075d575b5081517f14d8d02400000000000000000000000000000000000000000000000000000000815283818881885afa90811561067f578991610740575b508251907fd1f956b100000000000000000000000000000000000000000000000000000000825284828981895afa91821561067f578a92610721575b508351927fe61dfd5800000000000000000000000000000000000000000000000000000000845285848a818a5afa93841561067f578b94610702575b508451947fe09d394d00000000000000000000000000000000000000000000000000000000865286868b818b5afa95861561067f578c966106e3575b508051987f52b06d64000000000000000000000000000000000000000000000000000000008a52878a8c818c5afa97881561067f576105119a8e996106c4575b50808c8451809d81927f013cf08b0000000000000000000000000000000000000000000000000000000083528201906000602083019252565b03818d5afa998a1561067f578c9b8f9b6106a5575b50818451809d7f5e09dbe700000000000000000000000000000000000000000000000000000000825281845afa9b8c1561067f578f9c610684575b50819084519d8e80927faa0ddc160000000000000000000000000000000000000000000000000000000082525afa9b8c1561067f578e9c610650575b506105a6610cbe565b6001600160a01b03909d168d526001600160a01b03909116908c01526001600160a01b03909116908a01526001600160a01b031660608901526001600160a01b031660808801526001600160a01b031660a08701526001600160a01b031660c08601526001600160a01b031660e08501526001600160a01b03166101008401526001600160a01b03166101208301526001600160a01b031661014082015261064d90611868565b80f35b81610671929d508d3d10610678575b6106698183610c9c565b810190611844565b9a3861059d565b503d61065f565b61185c565b82919c5061069e90823d8411610678576106698183610c9c565b9b90610561565b6106bd919b50823d8411610678576106698183610c9c565b9938610526565b816106dc929a503d8b11610678576106698183610c9c565b97386104d8565b6106fb919650873d8911610678576106698183610c9c565b9438610498565b61071a919450863d8811610678576106698183610c9c565b923861045c565b610739919250853d8711610678576106698183610c9c565b9038610420565b6107579150843d8611610678576106698183610c9c565b386103e4565b6107749150833d8511610678576106698183610c9c565b386103a9565b610792919450823d8411610678576106698183610c9c565b923861036e565b816107b19296503d8711610678576106698183610c9c565b9338610332565b80fd5b3461016e57600036600319011261016e5760206001600160a01b0360005416604051908152f35b3461016e5760208060031936011261016e576107fc611aaf565b15610bfa5761080a33611b34565b8015610be6575b15610bd55760049061084461082d83546001600160a01b031690565b61083561167a565b9061083e611692565b90611cc7565b600f92610853813585546116f4565b91808311610bcd575b505b8354828110156100165761088261087c83546001600160a01b031690565b916116e1565b906108d16108c36108a160409485519182918a83019190602083019252565b03936108b5601f1995868101845283610c9c565b6108bd611701565b90611bee565b868082518301019101611747565b505094935050506001600160a01b0380911692169283151580610bc4575b61090f575b5050505061090a6109058554611835565b600f55565b61085e565b805180888101610929600060206040840193600181520152565b0383810182526109399082610c9c565b61094161179c565b9061094c9186611bee565b8780825183010191019061095f916117d5565b80518882015161096e916116f4565b8282015161097b916116f4565b906060918282015161098c916116f4565b6080908183015161099c916116f4565b9060a091828401516109ad916116f4565b60c0809401516109bc916116f4565b838c8751809181016109d8600060206040840193600281520152565b0389810182526109e89082610c9c565b6109f061179c565b906109fb918c611bee565b8d808251830101910190610a0e916117d5565b918251610a1a916116f4565b8d830151610a27916116f4565b87830151610a34916116f4565b86830151610a41916116f4565b83830151610a4e916116f4565b84830151610a5b916116f4565b910151610a67916116f4565b938551808d8101610a82600060206040840193600381520152565b038881018252610a929082610c9c565b610a9a61179c565b90610aa5918b611bee565b8c808251830101910190610ab8916117d5565b948551610ac4916116f4565b8c860151610ad1916116f4565b86860151610ade916116f4565b90850151610aeb916116f4565b90840151610af8916116f4565b90830151610b05916116f4565b910151610b11916116f4565b610b2e846001600160a01b0316600052600e602052604060002090565b55610b4c836001600160a01b0316600052600e602052604060002090565b5492610b6b906001600160a01b0316600052600d602052604060002090565b5490517f654c668e00000000000000000000000000000000000000000000000000000000888201526024810193909352604483015260649081018252610bb19082610c9c565b610bba91611d4f565b50388080806108f4565b508215156108ef565b91503861085c565b600460405163ea8e4eb560e01b8152fd5b50336001600160a01b036005541614610811565b6004604051634ee2123760e11b8152fd5b3461016e57602036600319011261016e576001600160a01b03600435610c308161015d565b16600052600d6020526020604060002054604051908152f35b634e487b7160e01b600052604160045260246000fd5b6040810190811067ffffffffffffffff821117610c7b57604052565b610c49565b6020810190811067ffffffffffffffff821117610c7b57604052565b90601f8019910116810190811067ffffffffffffffff821117610c7b57604052565b60405190610160820182811067ffffffffffffffff821117610c7b57604052565b67ffffffffffffffff8111610c7b5760051b60200190565b81601f8201121561016e57803591610d0e83610cdf565b92610d1c6040519485610c9c565b808452602092838086019260051b82010192831161016e578301905b828210610d46575050505090565b8380918335610d548161015d565b815201910190610d38565b81601f8201121561016e57803591610d7683610cdf565b92610d846040519485610c9c565b808452602092838086019260051b82010192831161016e578301905b828210610dae575050505090565b81358152908301908301610da0565b3461016e57606036600319011261016e5767ffffffffffffffff6004803582811161016e57610def9036908301610cf7565b60243583811161016e57610e069036908401610d5f565b9260443590811161016e57610e1e9036908401610d5f565b92610e27611aaf565b15610f0457610e3533611b34565b8015610ef0575b15610ee05781519284518403610ed1575060005b838110610e5957005b80610e6660019287611634565b516001600160a01b03610e798387611634565b5116600052600d602052604060002055610e938184611634565b51610eca610eb1610ea48488611634565b516001600160a01b031690565b6001600160a01b0316600052600e602052604060002090565b5501610e50565b604051633204506f60e01b8152fd5b8260405163ea8e4eb560e01b8152fd5b50336001600160a01b036005541614610e3c565b82604051634ee2123760e11b8152fd5b3461016e57600036600319011261016e5760206001600160a01b0360015416604051908152f35b3461016e57600036600319011261016e576020610fa86001600160a01b0360065416604051610f6981610c5f565b601381527f67657464656c656761746f72436f756e742829000000000000000000000000008482015260405191610f9f83610c80565b60008352611cc7565b604051908152f35b3461016e5760208060031936011261016e576004546101cf916000916001600160a01b03169061101561100760405180610ff36004358683019190602083019252565b03946108b5601f1996878101845283610c9c565b828082518301019101611747565b505095935050506001600160a01b038094169384151591826111c2575b505061104c575b5050604051918252509081906020820190565b6111ba935061111761110c6111016110f6856111b06111a7611199886111788c60c0611122611117829f6111229f6110f661116e61116561110c946111586111019561112b6110da6110cc8e604051906110c4826110b88a820190600060206040840193600181520152565b03878101845283610c9c565b6108bd61179c565b8580825183010191016117d5565b8c61112261111761110c6111016110f686518b880151906116f4565b6040870151906116f4565b6060860151906116f4565b6080850151906116f4565b60a0840151906116f4565b910151906116f4565b9b6110c4604051928361114c87820190600060206040840193600281520152565b03908101845283610c9c565b80518101820191016117d5565b978851906116f4565b8d880151906116f4565b9b6110c4604051928361114c89820190600060206040840193600381520152565b8380825183010191016117d5565b988951906116f4565b90880151906116f4565b388080611039565b16151590503880611032565b3461016e57602036600319011261016e5760206111f56004356111f08161015d565b611b34565b6040519015158152f35b3461016e57602036600319011261016e5760043561121b611aaf565b15610bfa576001600160a01b03600554163303610bd5576000906004602061124d6102e385546001600160a01b031690565b604051928380927f46f991ac0000000000000000000000000000000000000000000000000000000082525afa801561067f57838084819493829483916112ef575b505af1611299611bbe565b50156102a2577fcdcc745fe377b103b45fa0cec23ae3ef93d6fc6a84a01f0d18c40b354dd1d5d86112e96112d86102e3600b546001600160a01b031690565b604051938452929081906020820190565b0390a280f35b611307915060203d8111610678576106698183610c9c565b3861128e565b3461016e57602036600319011261016e576001600160a01b036004356113328161015d565b16600052600e6020526020604060002054604051908152f35b3461016e57602036600319011261016e576004356113688161015d565b803b60006113758261165e565b926113836040519485610c9c565b82845260208401903c602d8151106113a757602a602091015160601c604051908152f35b60046040517fbaf3f0f7000000000000000000000000000000000000000000000000000000008152fd5b3461016e5760208060031936011261016e576101cf90600435906113f48261015d565b6114586001600160a01b039283600654169360405191168382015282815261141b81610c5f565b60405161142781610c5f565b601881527f697364656c656761746f724e6f6465286164647265737329000000000000000084820152600094611c19565b919080611492575b611479575b505060405190151581529081906020820190565b61148b92508082518301019101611a9b565b3880611465565b5080825114611460565b3461016e57600036600319011261016e5760206111f5611aaf565b3461016e57600036600319011261016e576020600f54604051908152f35b3461016e5760408060031936011261016e57600467ffffffffffffffff813581811161016e576115089036908401610cf7565b9060243590811161016e576115209036908401610d5f565b92611529611aaf565b156115c15761153733611b34565b80156115ad575b1561159e5781519284518403611590575060005b83811061155b57005b8061156860019287611634565b516001600160a01b0361157b8387611634565b5116600052600d602052836000205501611552565b9051633204506f60e01b8152fd5b90505163ea8e4eb560e01b8152fd5b50336001600160a01b03600554161461153e565b905051634ee2123760e11b8152fd5b3461016e57600036600319011261016e576020610fa86001600160a01b03600354166040516115fe81610c5f565b600681527f69416765282900000000000000000000000000000000000000000000000000008482015260405191610f9f83610c80565b80518210156116485760209160051b010190565b634e487b7160e01b600052603260045260246000fd5b67ffffffffffffffff8111610c7b57601f01601f191660200190565b60405161168681610c80565b60008152906000368137565b6040519061169f82610c5f565b600f82527f6765744e6f646573436f756e74282900000000000000000000000000000000006020830152565b634e487b7160e01b600052601160045260246000fd5b90600182018092116116ef57565b6116cb565b919082018092116116ef57565b6040519061170e82610c5f565b601082527f6765744e6f64652875696e7432353629000000000000000000000000000000006020830152565b5190811515820361016e57565b908160e091031261016e5780519160208201516117638161015d565b9160408101519160608201516117788161015d565b9160808101516117878161015d565b9160c061179660a0840161173a565b92015190565b604051906117a982610c5f565b601b82527f676574416c6c446174612875696e743235362c75696e743235362900000000006020830152565b9060e08282031261016e5780601f8301121561016e576040519160e0830183811067ffffffffffffffff821117610c7b57604052829060e0810192831161016e57905b8282106118255750505090565b8151815260209182019101611818565b60001981146116ef5760010190565b9081602091031261016e57516118598161015d565b90565b6040513d6000823e3d90fd5b611a7d610140611a99926118a261188682516001600160a01b031690565b6001600160a01b03166001600160a01b03196002541617600255565b6118d56118b960208301516001600160a01b031690565b6001600160a01b03166001600160a01b03196003541617600355565b6119086118ec60408301516001600160a01b031690565b6001600160a01b03166001600160a01b03196004541617600455565b61193b61191f60608301516001600160a01b031690565b6001600160a01b03166001600160a01b03196005541617600555565b61196e61195260808301516001600160a01b031690565b6001600160a01b03166001600160a01b03196006541617600655565b6119a161198560a08301516001600160a01b031690565b6001600160a01b03166001600160a01b03196007541617600755565b6119d46119b860c08301516001600160a01b031690565b6001600160a01b03166001600160a01b03196008541617600855565b611a076119eb60e08301516001600160a01b031690565b6001600160a01b03166001600160a01b03196009541617600955565b611a3b611a1f6101008301516001600160a01b031690565b6001600160a01b03166001600160a01b0319600a541617600a55565b611a6f611a536101208301516001600160a01b031690565b6001600160a01b03166001600160a01b0319600b541617600b55565b01516001600160a01b031690565b6001600160a01b03166001600160a01b0319600c541617600c55565b565b9081602091031261016e576118599061173a565b611b0a6001600160a01b0360025416604051611aca81610c5f565b600881527f6973536166652829000000000000000000000000000000000000000000000000602082015260405191611b0183610c80565b60008352611c19565b9080611b29575b156102a2578060208061185993518301019101611a9b565b506020815114611b11565b611b976001600160a01b038060025416604051916020941684830152838252611b5c82610c5f565b60405190611b6982610c5f565b601582527f697353656375726542617365286164647265737329000000000000000000000085830152611c19565b9080611bb4575b156102a257816118599282518301019101611a9b565b5081815114611b9e565b3d15611be9573d90611bcf8261165e565b91611bdd6040519384610c9c565b82523d6000602084013e565b606090565b90611bf99291611c19565b9060009015611c06575090565b6040519150611c1482610c80565b815290565b9190823b15611cae577fffffffff00000000000000000000000000000000000000000000000000000000815160208093012016916040519180830193845281519160005b838110611c9a575050509181611c8a60248260009795968897018783820152036004810184520182610c9c565b51915afa611c96611bbe565b9091565b818101830151858201602401528201611c5d565b505050600090604051611cc081610c80565b6000815290565b9291611cd591600094611c19565b9080611cfa575b611ce35750565b90915060208180518101031261016e576020015190565b506020815114611cdc565b90602082519201517fffffffff00000000000000000000000000000000000000000000000000000000908181169360048110611d4057505050565b60040360031b82901b16169150565b6001600160a01b03811615611e0257600080918351908260208601915af190611d76611bbe565b9115611d80575090565b805160009190600411611dfc57611d979150611d05565b815115611da75750805190602001fd5b6040517f21c09d340000000000000000000000000000000000000000000000000000000081527fffffffff00000000000000000000000000000000000000000000000000000000919091166004820152602490fd5b50611d97565b60046040517fe6c4247b000000000000000000000000000000000000000000000000000000008152fdfea26469706673582212207f70442b3f0950a450b55df5740003e6f8f1d4d8adb8754ad62eceacfb033b8a64736f6c63430008140033","linkReferences":{}},"methodIdentifiers":{"Burn(uint256)":"b90306ad","UserToWithdraw(address)":"bce486eb","UserToWithdrawDollar(address)":"60aabd80","_delegatorCount()":"a1f7f539","_getImplementation(address)":"c54e44b0","_isDelegatorNode(address)":"e01ad5fd","_isSafe()":"e0a9bc2b","_isSecureBase(address)":"af484526","_isSigner(address)":"1f185d16","currentnode()":"edd3ceb6","getBalance()":"12065fe0","getClaimInfo(address)":"0835fe47","getHexbase()":"3b9b7955","gettotalClaim(uint256)":"a3c9b335","owner()":"8da5cb5b","setClaimAndPush(uint256)":"4a509a9b","syncBaseAddr()":"339459a6","systemAge()":"fdc10bc9","updateClaimedAndDollar_NotNeed(address[],uint256[],uint256[])":"65d8eccf","updateDollarOnly(address[],uint256[])":"fbb89b1d"},"id":55}