{"abi":[{"type":"constructor","inputs":[{"name":"_hex","type":"address","internalType":"address"},{"name":"_parent","type":"address","internalType":"address"}],"stateMutability":"nonpayable"},{"type":"fallback","stateMutability":"payable"},{"type":"receive","stateMutability":"payable"},{"type":"function","name":"Burn","inputs":[{"name":"amount","type":"uint256","internalType":"uint256"}],"outputs":[],"stateMutability":"nonpayable"},{"type":"function","name":"LSB","inputs":[{"name":"","type":"uint256","internalType":"uint256"}],"outputs":[{"name":"","type":"int256","internalType":"int256"}],"stateMutability":"view"},{"type":"function","name":"LSBVal","inputs":[{"name":"","type":"uint256","internalType":"uint256"}],"outputs":[{"name":"","type":"int256","internalType":"int256"}],"stateMutability":"view"},{"type":"function","name":"Txn","inputs":[{"name":"paramAdd","type":"address","internalType":"address"},{"name":"_id_maxint","type":"uint256","internalType":"uint256"},{"name":"_qty","type":"uint256","internalType":"uint256"},{"name":"_level","type":"uint256","internalType":"uint256"}],"outputs":[],"stateMutability":"payable"},{"type":"function","name":"_computeRoyality","inputs":[{"name":"ag","type":"uint256","internalType":"uint256"}],"outputs":[{"name":"p2","type":"uint256","internalType":"uint256"}],"stateMutability":"view"},{"type":"function","name":"_computeSelf","inputs":[{"name":"_maxage","type":"uint256","internalType":"uint256"}],"outputs":[{"name":"p3","type":"uint256","internalType":"uint256"}],"stateMutability":"view"},{"type":"function","name":"_computeValidator","inputs":[{"name":"_maxage","type":"uint256","internalType":"uint256"}],"outputs":[{"name":"p7","type":"uint256","internalType":"uint256"}],"stateMutability":"view"},{"type":"function","name":"_computelevelInc","inputs":[],"outputs":[{"name":"p1","type":"uint256","internalType":"uint256"},{"name":"p4","type":"uint256","internalType":"uint256"}],"stateMutability":"view"},{"type":"function","name":"_delegatorCount","inputs":[],"outputs":[{"name":"","type":"uint256","internalType":"uint256"}],"stateMutability":"view"},{"type":"function","name":"_getImplementation","inputs":[{"name":"clone","type":"address","internalType":"address"}],"outputs":[{"name":"impl","type":"address","internalType":"address"}],"stateMutability":"view"},{"type":"function","name":"_isDelegatorNode","inputs":[{"name":"sender","type":"address","internalType":"address"}],"outputs":[{"name":"","type":"bool","internalType":"bool"}],"stateMutability":"view"},{"type":"function","name":"_isSafe","inputs":[],"outputs":[{"name":"","type":"bool","internalType":"bool"}],"stateMutability":"view"},{"type":"function","name":"_isSecureBase","inputs":[{"name":"sender","type":"address","internalType":"address"}],"outputs":[{"name":"","type":"bool","internalType":"bool"}],"stateMutability":"view"},{"type":"function","name":"_isSigner","inputs":[{"name":"sender","type":"address","internalType":"address"}],"outputs":[{"name":"","type":"bool","internalType":"bool"}],"stateMutability":"view"},{"type":"function","name":"addLevelnGetRank","inputs":[{"name":"_amount","type":"uint256","internalType":"uint256"},{"name":"_qty","type":"uint256","internalType":"uint256"},{"name":"_yeildlevel","type":"uint256","internalType":"uint256"},{"name":"_level","type":"uint256","internalType":"uint256"},{"name":"_age","type":"uint256","internalType":"uint256"}],"outputs":[{"name":"","type":"uint256","internalType":"uint256"}],"stateMutability":"nonpayable"},{"type":"function","name":"burned","inputs":[],"outputs":[{"name":"p1","type":"uint256","internalType":"uint256"}],"stateMutability":"view"},{"type":"function","name":"cage","inputs":[],"outputs":[{"name":"","type":"uint256","internalType":"uint256"}],"stateMutability":"view"},{"type":"function","name":"dage","inputs":[],"outputs":[{"name":"","type":"uint256","internalType":"uint256"}],"stateMutability":"view"},{"type":"function","name":"drawn","inputs":[],"outputs":[{"name":"p1","type":"uint256","internalType":"uint256"},{"name":"p2","type":"uint256","internalType":"uint256"},{"name":"p3","type":"uint256","internalType":"uint256"},{"name":"p4","type":"uint256","internalType":"uint256"},{"name":"p5","type":"uint256","internalType":"uint256"},{"name":"p6","type":"uint256","internalType":"uint256"},{"name":"p7","type":"uint256","internalType":"uint256"}],"stateMutability":"view"},{"type":"function","name":"flushed","inputs":[],"outputs":[{"name":"p1","type":"uint256","internalType":"uint256"},{"name":"p2","type":"uint256","internalType":"uint256"},{"name":"p3","type":"uint256","internalType":"uint256"},{"name":"p4","type":"uint256","internalType":"uint256"},{"name":"p5","type":"uint256","internalType":"uint256"},{"name":"p6","type":"uint256","internalType":"uint256"},{"name":"p7","type":"uint256","internalType":"uint256"}],"stateMutability":"view"},{"type":"function","name":"forceTransfer","inputs":[{"name":"_acct","type":"address","internalType":"address"}],"outputs":[],"stateMutability":"nonpayable"},{"type":"function","name":"getBalance","inputs":[],"outputs":[{"name":"","type":"uint256","internalType":"uint256"}],"stateMutability":"view"},{"type":"function","name":"getmint","inputs":[{"name":"_orc","type":"address","internalType":"address"},{"name":"_id","type":"uint256","internalType":"uint256"},{"name":"_qty","type":"uint256","internalType":"uint256"},{"name":"_amt","type":"uint256","internalType":"uint256"},{"name":"mintage","type":"uint256","internalType":"uint256"}],"outputs":[{"name":"","type":"address","internalType":"address"}],"stateMutability":"nonpayable"},{"type":"function","name":"ibk","inputs":[],"outputs":[{"name":"","type":"address","internalType":"address"}],"stateMutability":"view"},{"type":"function","name":"id","inputs":[],"outputs":[{"name":"","type":"uint256","internalType":"uint256"}],"stateMutability":"view"},{"type":"function","name":"inc","inputs":[{"name":"","type":"uint256","internalType":"uint256"}],"outputs":[{"name":"","type":"uint256","internalType":"uint256"}],"stateMutability":"view"},{"type":"function","name":"initValidator","inputs":[{"name":"_val","type":"address","internalType":"address"},{"name":"_op","type":"bool","internalType":"bool"}],"outputs":[],"stateMutability":"nonpayable"},{"type":"function","name":"init_import","inputs":[{"name":"limit","type":"uint256","internalType":"uint256"}],"outputs":[],"stateMutability":"payable"},{"type":"function","name":"isCap","inputs":[],"outputs":[{"name":"","type":"bool","internalType":"bool"}],"stateMutability":"view"},{"type":"function","name":"isDaoSafe","inputs":[],"outputs":[{"name":"","type":"bool","internalType":"bool"}],"stateMutability":"view"},{"type":"function","name":"isLock","inputs":[],"outputs":[{"name":"","type":"bool","internalType":"bool"}],"stateMutability":"view"},{"type":"function","name":"isNodeStopped","inputs":[{"name":"sender","type":"address","internalType":"address"}],"outputs":[{"name":"","type":"bool","internalType":"bool"}],"stateMutability":"view"},{"type":"function","name":"isSuspend","inputs":[],"outputs":[{"name":"","type":"bool","internalType":"bool"}],"stateMutability":"view"},{"type":"function","name":"lvlbs","inputs":[{"name":"","type":"uint256","internalType":"uint256"}],"outputs":[{"name":"","type":"uint256","internalType":"uint256"}],"stateMutability":"view"},{"type":"function","name":"lvlqty","inputs":[{"name":"","type":"uint256","internalType":"uint256"}],"outputs":[{"name":"","type":"uint256","internalType":"uint256"}],"stateMutability":"view"},{"type":"function","name":"lvlrwrd","inputs":[{"name":"","type":"uint256","internalType":"uint256"}],"outputs":[{"name":"","type":"uint256","internalType":"uint256"}],"stateMutability":"view"},{"type":"function","name":"lvlyei","inputs":[{"name":"","type":"uint256","internalType":"uint256"}],"outputs":[{"name":"","type":"uint256","internalType":"uint256"}],"stateMutability":"view"},{"type":"function","name":"mintCount","inputs":[],"outputs":[{"name":"","type":"uint256","internalType":"uint256"}],"stateMutability":"view"},{"type":"function","name":"mintDailyCount","inputs":[],"outputs":[{"name":"","type":"uint256","internalType":"uint256"}],"stateMutability":"view"},{"type":"function","name":"mintToValidator","inputs":[{"name":"","type":"uint256","internalType":"uint256"}],"outputs":[{"name":"","type":"address","internalType":"address"}],"stateMutability":"view"},{"type":"function","name":"mints","inputs":[{"name":"","type":"uint256","internalType":"uint256"}],"outputs":[{"name":"","type":"address","internalType":"address"}],"stateMutability":"view"},{"type":"function","name":"owner","inputs":[],"outputs":[{"name":"","type":"address","internalType":"address"}],"stateMutability":"view"},{"type":"function","name":"parent","inputs":[],"outputs":[{"name":"","type":"address","internalType":"address"}],"stateMutability":"view"},{"type":"function","name":"rank","inputs":[],"outputs":[{"name":"","type":"uint256","internalType":"uint256"}],"stateMutability":"view"},{"type":"function","name":"rankage","inputs":[{"name":"","type":"uint256","internalType":"uint256"}],"outputs":[{"name":"","type":"uint256","internalType":"uint256"}],"stateMutability":"view"},{"type":"function","name":"royaldage","inputs":[{"name":"","type":"uint256","internalType":"uint256"}],"outputs":[{"name":"","type":"uint256","internalType":"uint256"}],"stateMutability":"view"},{"type":"function","name":"setBonus","inputs":[{"name":"b","type":"uint256","internalType":"uint256"}],"outputs":[],"stateMutability":"nonpayable"},{"type":"function","name":"setLock","inputs":[{"name":"flag","type":"bool","internalType":"bool"}],"outputs":[],"stateMutability":"nonpayable"},{"type":"function","name":"setSuspend","inputs":[{"name":"s1","type":"bool","internalType":"bool"},{"name":"s2","type":"bool","internalType":"bool"},{"name":"s3","type":"bool","internalType":"bool"},{"name":"s4","type":"bool","internalType":"bool"},{"name":"lck","type":"bool","internalType":"bool"}],"outputs":[],"stateMutability":"nonpayable"},{"type":"function","name":"suspendinc","inputs":[{"name":"","type":"uint256","internalType":"uint256"}],"outputs":[{"name":"","type":"bool","internalType":"bool"}],"stateMutability":"view"},{"type":"function","name":"systemAge","inputs":[],"outputs":[{"name":"","type":"uint256","internalType":"uint256"}],"stateMutability":"view"},{"type":"function","name":"unpaid","inputs":[],"outputs":[{"name":"p1","type":"uint256","internalType":"uint256"},{"name":"p2","type":"uint256","internalType":"uint256"},{"name":"p3","type":"uint256","internalType":"uint256"},{"name":"p4","type":"uint256","internalType":"uint256"},{"name":"p5","type":"uint256","internalType":"uint256"},{"name":"p6","type":"uint256","internalType":"uint256"},{"name":"p7","type":"uint256","internalType":"uint256"}],"stateMutability":"view"},{"type":"function","name":"valIncome","inputs":[{"name":"","type":"uint256","internalType":"uint256"}],"outputs":[{"name":"","type":"uint256","internalType":"uint256"}],"stateMutability":"view"},{"type":"function","name":"valmapAge","inputs":[{"name":"","type":"uint256","internalType":"uint256"}],"outputs":[{"name":"","type":"uint256","internalType":"uint256"}],"stateMutability":"view"},{"type":"function","name":"valsmintsid","inputs":[{"name":"","type":"uint256","internalType":"uint256"}],"outputs":[{"name":"","type":"uint256","internalType":"uint256"}],"stateMutability":"view"},{"type":"function","name":"withdrawlDage","inputs":[],"outputs":[{"name":"","type":"uint256","internalType":"uint256"}],"stateMutability":"view"},{"type":"event","name":"LogTxns","inputs":[{"name":"from","type":"address","indexed":false,"internalType":"address"},{"name":"orc1155","type":"address","indexed":false,"internalType":"address"},{"name":"_amt","type":"uint256","indexed":false,"internalType":"uint256"},{"name":"_value","type":"uint256","indexed":false,"internalType":"uint256"},{"name":"_time","type":"uint256","indexed":false,"internalType":"uint256"},{"name":"_type","type":"uint256","indexed":false,"internalType":"uint256"}],"anonymous":false}],"bytecode":{"object":"0x60806040523462000038576200001f6200001862000122565b906200023e565b620000296200003e565b61bda662000358823961bda690f35b62000044565b60405190565b5f80fd5b601f801991011690565b634e487b7160e01b5f52604160045260245ffd5b90620000729062000048565b810190811060018060401b038211176200008b57604052565b62000052565b90620000a8620000a06200003e565b928362000066565b565b5f80fd5b60018060a01b031690565b620000c490620000ae565b90565b620000d281620000b9565b03620000da57565b5f80fd5b90505190620000ed82620000c7565b565b91906040838203126200011c57806200010f62000119925f8601620000de565b93602001620000de565b90565b620000aa565b620001456200c0fe80380380620001398162000091565b928339810190620000ef565b9091565b5f1b90565b906200015c5f199162000149565b9181191691161790565b90565b90565b90565b62000188620001826200018e9262000166565b6200016c565b62000169565b90565b90565b90620001ae620001a8620001b6926200016f565b62000191565b82546200014e565b9055565b90620001cd60018060a01b039162000149565b9181191691161790565b620001f0620001ea620001f692620000ae565b6200016c565b620000ae565b90565b6200020490620001d7565b90565b6200021290620001f9565b90565b90565b90620002326200022c6200023a9262000207565b62000215565b8254620001ba565b9055565b906200024e6200027d926200031e565b6200025b5f601662000194565b620002685f601762000194565b6200027533600162000218565b600362000218565b565b62000298620002926200029e9262000166565b6200016c565b620000ae565b90565b620002ac906200027f565b90565b620002ba90620001d7565b90565b620002c890620002af565b90565b620002d690620001d7565b90565b620002e490620002cb565b90565b620002f290620002cb565b90565b90565b90620003126200030c6200031a92620002e7565b620002f5565b8254620001ba565b9055565b6200034e620003486200035592620003426200033a5f620002a1565b600162000218565b620002bd565b620002d9565b5f620002f8565b56fe60806040526004361015610018575b361561001657005b005b6100225f356103a1565b8063035c1ad51461039c5780630399c93c1461039757806309d8da2e146103925780630b98f9751461038d57806312065fe0146103885780631348065f1461038357806313ab4dc51461037e57806318a54198146103795780631f185d161461037457806327bfab881461036f5780632c45f3241461036a5780633062cebd1461036557806340124ece146103605780634702c08f1461035b57806349f601df1461035657806351bfd3ae146103515780635c1a494a1461034c57806360f96a8f14610347578063619d5194146103425780636350b2c21461033d57806363519d5914610338578063678a7634146103335780636921d53a1461032e5780636924500914610329578063725b6fff1461032457806373f425611461031f578063798aecb41461031a5780637d18465e14610315578063812600df146103105780638da5cb5b1461030b578063901bcdd41461030657806391730a281461030157806391b0d21c146102fc578063934209ce146102f75780639659867e146102f2578063a1f7f539146102ed578063a3e884b0146102e8578063a45c004a146102e3578063a98bf4f9146102de578063a9bf285b146102d9578063af484526146102d4578063af640d0f146102cf578063b8b6c856146102ca578063b90306ad146102c5578063c32487aa146102c0578063c4cb291e146102bb578063c54e44b0146102b6578063c6a9c45e146102b1578063c9ce1e28146102ac578063d3a1a499146102a7578063dee1a74b146102a2578063e01ad5fd1461029d578063e0a9bc2b14610298578063edd279d814610293578063fd915ef21461028e5763fdc10bc90361000e57611693565b611657565b61162e565b6115f9565b6115c4565b61158b565b611500565b61146e565b61142a565b6113dc565b6113a0565b611364565b6112c9565b611294565b61124f565b61120b565b6111d6565b611192565b611144565b6110fe565b611083565b61104e565b61100a565b610fc6565b610f78565b610f43565b610edf565b610eaa565b610e58565b610dcb565b610d40565b610d0b565b610cc7565b610c83565b610c4e565b610ba5565b610b43565b610ae1565b610a6b565b6109d4565b61099f565b61096a565b61091c565b6108d8565b61088a565b610854565b6107fc565b6107b8565b610783565b610735565b6106e7565b61065a565b610605565b6105d0565b61052b565b610499565b60e01c90565b60405190565b5f80fd5b5f80fd5b90565b6103c1816103b5565b036103c857565b5f80fd5b905035906103d9826103b8565b565b906020828203126103f4576103f1915f016103cc565b90565b6103b1565b90565b61041061040b610415926103b5565b6103f9565b6103b5565b90565b90610422906103fc565b5f5260205260405f2090565b1c90565b90565b61044590600861044a930261042e565b610432565b90565b906104589154610435565b90565b6104719061046c601d915f92610418565b61044d565b90565b90565b61048090610474565b9052565b9190610497905f60208501940190610477565b565b346104c9576104c56104b46104af3660046103db565b61045b565b6104bc6103a7565b91829182610484565b0390f35b6103ad565b60018060a01b031690565b6104e2906104ce565b90565b6104ee816104d9565b036104f557565b5f80fd5b90503590610506826104e5565b565b906020828203126105215761051e915f016104f9565b90565b6103b1565b5f0190565b346105595761054361053e366004610508565b611a03565b61054b6103a7565b8061055581610526565b0390f35b6103ad565b5f91031261056857565b6103b1565b60ff1690565b610583906008610588930261042e565b61056d565b90565b906105969154610573565b90565b6105a6600360149061058b565b90565b151590565b6105b7906105a9565b9052565b91906105ce905f602085019401906105ae565b565b34610600576105e036600461055e565b6105fc6105eb610599565b6105f36103a7565b918291826105bb565b0390f35b6103ad565b346106335761061d6106183660046103db565b611d2a565b6106256103a7565b8061062f81610526565b0390f35b6103ad565b610641906103b5565b9052565b9190610658905f60208501940190610638565b565b3461068a5761066a36600461055e565b610686610675611d45565b61067d6103a7565b91829182610645565b0390f35b6103ad565b90610699906103fc565b5f5260205260405f2090565b90565b6106b89060086106bd930261042e565b6106a5565b90565b906106cb91546106a8565b90565b6106e4906106df6014915f9261068f565b6106c0565b90565b34610717576107136107026106fd3660046103db565b6106ce565b61070a6103a7565b91829182610645565b0390f35b6103ad565b6107329061072d6021915f9261068f565b6106c0565b90565b346107655761076161075061074b3660046103db565b61071c565b6107586103a7565b91829182610645565b0390f35b6103ad565b6107809061077b6023915f9261068f565b6106c0565b90565b346107b3576107af61079e6107993660046103db565b61076a565b6107a66103a7565b91829182610645565b0390f35b6103ad565b346107e8576107e46107d36107ce366004610508565b611de4565b6107db6103a7565b918291826105bb565b0390f35b6103ad565b6107f960175f906106c0565b90565b3461082c5761080c36600461055e565b6108286108176107ed565b61081f6103a7565b91829182610645565b0390f35b6103ad565b91602061085292949361084b60408201965f830190610638565b0190610638565b565b346108855761086436600461055e565b61086c612021565b906108816108786103a7565b92839283610831565b0390f35b6103ad565b346108ba576108b66108a56108a03660046103db565b6121e4565b6108ad6103a7565b91829182610645565b0390f35b6103ad565b6108d5906108d06022915f9261068f565b6106c0565b90565b34610908576109046108f36108ee3660046103db565b6108bf565b6108fb6103a7565b91829182610645565b0390f35b6103ad565b61091960125f9061058b565b90565b3461094c5761092c36600461055e565b61094861093761090d565b61093f6103a7565b918291826105bb565b0390f35b6103ad565b61096790610962601c915f9261068f565b6106c0565b90565b3461099a576109966109856109803660046103db565b610951565b61098d6103a7565b91829182610645565b0390f35b6103ad565b346109cf576109cb6109ba6109b5366004610508565b61246a565b6109c26103a7565b918291826105bb565b0390f35b6103ad565b34610a04576109e436600461055e565b610a006109ef612620565b6109f76103a7565b918291826105bb565b0390f35b6103ad565b60018060a01b031690565b610a24906008610a29930261042e565b610a09565b90565b90610a379154610a14565b90565b610a4660035f90610a2c565b90565b610a52906104d9565b9052565b9190610a69905f60208501940190610a49565b565b34610a9b57610a7b36600461055e565b610a97610a86610a3a565b610a8e6103a7565b91829182610a56565b0390f35b6103ad565b610aa9816105a9565b03610ab057565b5f80fd5b90503590610ac182610aa0565b565b90602082820312610adc57610ad9915f01610ab4565b90565b6103b1565b34610b0f57610af9610af4366004610ac3565b61294f565b610b016103a7565b80610b0b81610526565b0390f35b6103ad565b90610b1e906103fc565b5f5260205260405f2090565b610b4090610b3b6018915f92610b14565b610a2c565b90565b34610b7357610b6f610b5e610b593660046103db565b610b2a565b610b666103a7565b91829182610a56565b0390f35b6103ad565b9190604083820312610ba05780610b94610b9d925f86016104f9565b93602001610ab4565b90565b6103b1565b34610bd457610bbe610bb8366004610b78565b90612ba1565b610bc66103a7565b80610bd081610526565b0390f35b6103ad565b634e487b7160e01b5f52603260045260245ffd5b5490565b5f5260205f2090565b610c0381610bed565b821015610c1d57610c15600191610bf1565b910201905f90565b610bd9565b6019610c2d81610bed565b821015610c4a57610c4791610c4191610bfa565b906106c0565b90565b5f80fd5b34610c7e57610c7a610c69610c643660046103db565b610c22565b610c716103a7565b91829182610645565b0390f35b6103ad565b34610cb357610caf610c9e610c993660046103db565b612d61565b610ca66103a7565b91829182610645565b0390f35b6103ad565b610cc460095f906106c0565b90565b34610cf757610cd736600461055e565b610cf3610ce2610cb8565b610cea6103a7565b91829182610645565b0390f35b6103ad565b610d0860075f906106c0565b90565b34610d3b57610d1b36600461055e565b610d37610d26610cfc565b610d2e6103a7565b91829182610645565b0390f35b6103ad565b34610d7057610d5036600461055e565b610d6c610d5b6130bd565b610d636103a7565b91829182610645565b0390f35b6103ad565b919060a083820312610dc657610d8d815f8501610ab4565b92610d9b8260208301610ab4565b92610dc3610dac8460408501610ab4565b93610dba8160608601610ab4565b93608001610ab4565b90565b6103b1565b34610dfd57610de7610dde366004610d75565b939290926134dc565b610def6103a7565b80610df981610526565b0390f35b6103ad565b919060a083820312610e5357610e1a815f85016103cc565b92610e2882602083016103cc565b92610e50610e3984604085016103cc565b93610e4781606086016103cc565b936080016103cc565b90565b6103b1565b34610e8c57610e88610e77610e6e366004610e02565b93929092613b84565b610e7f6103a7565b91829182610645565b0390f35b6103ad565b610ea790610ea26004915f9261068f565b6106c0565b90565b34610eda57610ed6610ec5610ec03660046103db565b610e91565b610ecd6103a7565b91829182610645565b0390f35b6103ad565b34610f0f57610eef36600461055e565b610f0b610efa613ba0565b610f026103a7565b91829182610a56565b0390f35b6103ad565b90610f1e906103fc565b5f5260205260405f2090565b610f4090610f3b6005915f92610f14565b61058b565b90565b34610f7357610f6f610f5e610f593660046103db565b610f2a565b610f666103a7565b918291826105bb565b0390f35b6103ad565b34610fa857610fa4610f93610f8e3660046103db565b613c6b565b610f9b6103a7565b91829182610645565b0390f35b6103ad565b610fc390610fbe6020915f9261068f565b6106c0565b90565b34610ff657610ff2610fe1610fdc3660046103db565b610fad565b610fe96103a7565b91829182610645565b0390f35b6103ad565b611007600a5f906106c0565b90565b3461103a5761101a36600461055e565b611036611025610ffb565b61102d6103a7565b91829182610645565b0390f35b6103ad565b61104b60165f906106c0565b90565b3461107e5761105e36600461055e565b61107a61106961103f565b6110716103a7565b91829182610645565b0390f35b6103ad565b346110b35761109336600461055e565b6110af61109e613f4b565b6110a66103a7565b91829182610645565b0390f35b6103ad565b6080818303126110f9576110ce825f83016104f9565b926110f66110df84602085016103cc565b936110ed81604086016103cc565b936060016103cc565b90565b6103b1565b61111561110c3660046110b8565b92919091616968565b61111d6103a7565b8061112781610526565b0390f35b6111419061113c601a915f92610b14565b610a2c565b90565b346111745761117061115f61115a3660046103db565b61112b565b6111676103a7565b91829182610a56565b0390f35b6103ad565b61118f9061118a601e915f92610418565b61044d565b90565b346111c2576111be6111ad6111a83660046103db565b611179565b6111b56103a7565b91829182610484565b0390f35b6103ad565b6111d360085f906106c0565b90565b34611206576111e636600461055e565b6112026111f16111c7565b6111f96103a7565b91829182610645565b0390f35b6103ad565b3461123b57611237611226611221366004610508565b6169c1565b61122e6103a7565b918291826105bb565b0390f35b6103ad565b61124c60065f906106c0565b90565b3461127f5761125f36600461055e565b61127b61126a611240565b6112726103a7565b91829182610645565b0390f35b6103ad565b611291600360159061058b565b90565b346112c4576112a436600461055e565b6112c06112af611284565b6112b76103a7565b918291826105bb565b0390f35b6103ad565b346112f7576112e16112dc3660046103db565b616bf9565b6112e96103a7565b806112f381610526565b0390f35b6103ad565b949290979695939160e08601985f870161131591610638565b6020860161132291610638565b6040850161132f91610638565b6060840161133c91610638565b6080830161134991610638565b60a0820161135691610638565b60c00161136291610638565b565b3461139b5761137436600461055e565b61139761137f616cee565b9361138e9795979391936103a7565b978897886112fc565b0390f35b6103ad565b346113d7576113b036600461055e565b6113d36113bb616dcf565b936113ca9795979391936103a7565b978897886112fc565b0390f35b6103ad565b3461140c576114086113f76113f2366004610508565b616f5c565b6113ff6103a7565b91829182610a56565b0390f35b6103ad565b61142790611422601b915f9261068f565b6106c0565b90565b3461145a576114566114456114403660046103db565b611411565b61144d6103a7565b91829182610645565b0390f35b6103ad565b61146b60025f90610a2c565b90565b3461149e5761147e36600461055e565b61149a61148961145f565b6114916103a7565b91829182610a56565b0390f35b6103ad565b50600790565b90565b6114b5816114a3565b8210156114cf576114c76001916114a9565b910201905f90565b610bd9565b600b6114df816114a3565b8210156114fc576114f9916114f3916114ac565b906106c0565b90565b5f80fd5b346115305761152c61151b6115163660046103db565b6114d4565b6115236103a7565b91829182610645565b0390f35b6103ad565b919060a0838203126115865761154d815f85016104f9565b9261155b82602083016103cc565b9261158361156c84604085016103cc565b9361157a81606086016103cc565b936080016103cc565b90565b6103b1565b346115bf576115bb6115aa6115a1366004611535565b93929092617046565b6115b26103a7565b91829182610a56565b0390f35b6103ad565b346115f4576115f06115df6115da366004610508565b617166565b6115e76103a7565b918291826105bb565b0390f35b6103ad565b346116295761160936600461055e565b6116256116146174fb565b61161c6103a7565b918291826105bb565b0390f35b6103ad565b61164161163c3660046103db565b6175a2565b6116496103a7565b8061165381610526565b0390f35b3461168e5761166736600461055e565b61168a611672617659565b936116819795979391936103a7565b978897886112fc565b0390f35b6103ad565b346116c3576116a336600461055e565b6116bf6116ae617783565b6116b66103a7565b91829182610645565b0390f35b6103ad565b601f801991011690565b634e487b7160e01b5f52604160045260245ffd5b906116f0906116c8565b810190811067ffffffffffffffff82111761170a57604052565b6116d2565b9061172261171b6103a7565b92836116e6565b565b67ffffffffffffffff81116117425761173e6020916116c8565b0190565b6116d2565b9061175961175483611724565b61170f565b918252565b90813b5f61176b82611747565b9360208501903c565b60200190565b5190565b5f1c90565b60018060a01b031690565b61179a61179f9161177e565b611783565b90565b6117ac905461178e565b90565b6117c36117be6117c8926104ce565b6103f9565b6104ce565b90565b6117d4906117af565b90565b6117e0906117cb565b90565b60e01b90565b905051906117f6826104e5565b565b906020828203126118115761180e915f016117e9565b90565b6103b1565b61181e6103a7565b3d5f823e3d90fd5b90565b60209181520190565b5f7f6f776e2e756e617574682e696e7374616e636500000000000000000000000000910152565b6118666013602092611829565b61186f81611832565b0190565b6118889060208101905f818303910152611859565b90565b1561189257565b61189a6103a7565b62461bcd60e51b8152806118b060048201611873565b0390fd5b6118fd906118c13361175e565b6118d36118cd8261177a565b91611774565b2060206118e76118e25f6117a2565b6117d7565b63e61dfd58906118f56103a7565b9586926117e3565b8252818061190d60048201610526565b03915afa90811561198f5761195461194e61193661195a9461195f975f91611961575b5061175e565b6119486119428261177a565b91611774565b20611826565b91611826565b1461188b565b6119c4565b565b611982915060203d8111611988575b61197a81836116e6565b8101906117f8565b5f611930565b503d611970565b611816565b61199d906117af565b90565b6119a990611994565b90565b6119b5906117cb565b90565b6119c1906117cb565b90565b505f8080806119da6119d5336119a0565b6119ac565b6119e3306119b8565b31908282156119fa575bf1156119f557565b611816565b506108fc6119ed565b611a0c906118b4565b565b5f7f6f776e2e696e76616c69642e6973536166650000000000000000000000000000910152565b611a426012602092611829565b611a4b81611a0e565b0190565b611a649060208101905f818303910152611a35565b90565b15611a6e57565b611a766103a7565b62461bcd60e51b815280611a8c60048201611a4f565b0390fd5b5f7f6f776e2e6e6f6e617574682e44414f6f72536563757265626173650000000000910152565b611ac4601b602092611829565b611acd81611a90565b0190565b611ae69060208101905f818303910152611ab7565b90565b15611af057565b611af86103a7565b62461bcd60e51b815280611b0e60048201611ad1565b0390fd5b611b22611b1d6174fb565b611a67565b611b2b336169c1565b908115611b46575b611b3f611b4492611ae9565b611caf565b565b611b7491506020611b5e611b595f6117a2565b6117d7565b634162169f90611b6c6103a7565b9485926117e3565b82528180611b8460048201610526565b03915afa918215611be857611b4492611b3f915f91611bba575b50611bb1611bab336104d9565b916104d9565b14925050611b33565b611bdb915060203d8111611be1575b611bd381836116e6565b8101906117f8565b5f611b9e565b503d611bc9565b611816565b611bf9611bfe9161177e565b6106a5565b90565b611c0b9054611bed565b90565b90565b611c25611c20611c2a92611c0e565b6103f9565b6103b5565b90565b5f7f6d652e696e76616c69642e696e69740000000000000000000000000000000000910152565b611c61600f602092611829565b611c6a81611c2d565b0190565b611c839060208101905f818303910152611c54565b90565b15611c8d57565b611c956103a7565b62461bcd60e51b815280611cab60048201611c6e565b0390fd5b611cdd90611cd8611cc06006611c01565b611cd2611ccc5f611c11565b916103b5565b11611c86565b611d1d565b565b5f1b90565b90611cf05f1991611cdf565b9181191691161790565b90565b90611d12611d0d611d19926103fc565b611cfa565b8254611ce4565b9055565b611d28906013611cfd565b565b611d3390611b12565b565b5f90565b611d42906117cb565b90565b611d4d611d35565b50611d5730611d39565b3190565b5f90565b67ffffffffffffffff8111611d7d57611d796020916116c8565b0190565b6116d2565b90611d94611d8f83611d5f565b61170f565b918252565b5f7f69735369676e6572286164647265737329000000000000000000000000000000910152565b611dca6011611d82565b90611dd760208301611d99565b565b611de1611dc0565b90565b611dec611d5b565b50611e196020611e03611dfe5f6117a2565b6117d7565b6397f3815a90611e116103a7565b9384926117e3565b82528180611e2960048201610526565b03915afa8015611eaf57611e7892611e5b925f92611e7b575b50611e6a90611e4f6103a7565b93849160208301610a56565b602082018103825203836116e6565b611e72611dd9565b90617876565b90565b611e6a919250611ea19060203d8111611ea8575b611e9981836116e6565b8101906117f8565b9190611e42565b503d611e8f565b611816565b90565b611ecb611ec6611ed092611eb4565b6103f9565b6103b5565b90565b634e487b7160e01b5f52601160045260245ffd5b611ef0906103b5565b5f198114611efe5760010190565b611ed3565b90565b611f1a611f15611f1f92611f03565b6103f9565b6103b5565b90565b611f31611f37919392936103b5565b926103b5565b8201809211611f4257565b611ed3565b90611f5190611eb7565b5f5260205260405f2090565b90565b611f74611f6f611f7992611f5d565b6103f9565b6103b5565b90565b90611f8690611f60565b5f5260205260405f2090565b611fa1611fa7919392936103b5565b926103b5565b8203918211611fb257565b611ed3565b90565b611fce611fc9611fd392611fb7565b6103f9565b6103b5565b90565b90611fe090611fba565b5f5260205260405f2090565b90565b612003611ffe61200892611fec565b6103f9565b6103b5565b90565b9061201590611fef565b5f5260205260405f2090565b612029611d35565b90612032611d35565b61203c6001611eb7565b925b8361205261204c600f611f06565b916103b5565b116120a35761209661207b61209c926120756120706022899061068f565b611c01565b90611f22565b9261209061208b6023889061068f565b611c01565b90611f22565b93611ee7565b929061203e565b61211e9193506120e6906120e06120c56120c06004600190611f47565b611c01565b6120da6120d56004600890611f7c565b611c01565b90611f22565b90611f92565b926121186120fd6120f8600480611fd6565b611c01565b61211261210d6004600b9061200b565b611c01565b90611f22565b90611f92565b90565b369037565b9061214b61213383611747565b926020806121418693611724565b9201910390612121565b565b5f7f73687574646f776e282900000000000000000000000000000000000000000000910152565b61217e600a611d82565b9061218b6020830161214d565b565b612195612174565b90565b60016121a491016103b5565b90565b6121b36121b89161177e565b610432565b90565b6121c590546121a7565b90565b6121dc6121d76121e192610474565b6103f9565b6103b5565b90565b6121ec611d35565b9161221960206122036121fe5f6117a2565b6117d7565b63cfbffe53906122116103a7565b9384926117e3565b8252818061222960048201610526565b03915afa80156123455761225f915f91612317575b5061225061224b5f611c11565b612126565b9061225961218d565b90617876565b6122fe579161226c611d35565b926122776007611c01565b915b8261228c612286866103b5565b916103b5565b10156122f7576122ea6122c86122f0926122c26122bb6122b66122b1601e8a90610418565b6121bb565b6121c8565b8990611f22565b90611f22565b956122e56122e06122db601e8890610418565b6121bb565b6121c8565b611f22565b92612198565b9193612279565b9350915050565b91505061230a306119b8565b506123145f611c11565b90565b612338915060203d811161233e575b61233081836116e6565b8101906117f8565b5f61223e565b503d612326565b611816565b5f7f55736572546f496e737428616464726573732900000000000000000000000000910152565b61237b6013611d82565b906123886020830161234a565b565b612392612371565b90565b6123a96123a46123ae92611c0e565b6103f9565b6104ce565b90565b6123ba90612395565b90565b5f7f697353757370656e642829000000000000000000000000000000000000000000910152565b6123ee600b611d82565b906123fb602083016123bd565b565b6124056123e4565b90565b6124115f611d82565b90565b61241c612408565b90565b5f7f69734c6f636b2829000000000000000000000000000000000000000000000000910152565b6124506008611d82565b9061245d6020830161241f565b565b612467612446565b90565b612472611d5b565b5061249f60206124896124845f6117a2565b6117d7565b63ab6e844f906124976103a7565b9384926117e3565b825281806124af60048201610526565b03915afa80156125d0576124fe926124e1925f9261259c575b506124f0906124d56103a7565b93849160208301610a56565b602082018103825203836116e6565b6124f861238a565b906178e3565b8061251961251361250e5f6123b1565b6104d9565b916104d9565b141561254f6125388361252a6123fd565b612532612414565b91617876565b9261254161245f565b612549612414565b91617876565b61255982156105a9565b928315612567575b50505090565b909192509081612594575b509081612583575b505f8080612561565b61258e9150156105a9565b5f61257a565b90505f612572565b6124f09192506125c29060203d81116125c9575b6125ba81836116e6565b8101906117f8565b91906124c8565b503d6125b0565b611816565b5f7f64616f7361666561646472657373286164647265737329000000000000000000910152565b6126066017611d82565b90612613602083016125d5565b565b61261d6125fc565b90565b612628611d5b565b50612655602061263f61263a5f6117a2565b6117d7565b634162169f9061264d6103a7565b9384926117e3565b8252818061266560048201610526565b03915afa9081156126e6576126b591612698915f916126b8575b506126a73361268c6103a7565b93849160208301610a56565b602082018103825203836116e6565b6126af612615565b90617876565b90565b6126d9915060203d81116126df575b6126d181836116e6565b8101906117f8565b5f61267f565b503d6126c7565b611816565b6126fb6126f66174fb565b611a67565b612704336169c1565b90811561271f575b61271861271d92611ae9565b6127c6565b565b61274d915060206127376127325f6117a2565b6117d7565b634162169f906127456103a7565b9485926117e3565b8252818061275d60048201610526565b03915afa9182156127c15761271d92612718915f91612793575b5061278a612784336104d9565b916104d9565b1492505061270c565b6127b4915060203d81116127ba575b6127ac81836116e6565b8101906117f8565b5f612777565b503d6127a2565b611816565b6127f4906127ef6127d76006611c01565b6127e96127e35f611c11565b916103b5565b11611c86565b61291c565b565b90565b61280d612808612812926127f6565b6103f9565b6103b5565b90565b9061281f906127f9565b5f5260205260405f2090565b61283761283c9161177e565b61056d565b90565b612849905461282b565b90565b5f7f6d652e73757370656e6465640000000000000000000000000000000000000000910152565b612880600c602092611829565b6128898161284c565b0190565b6128a29060208101905f818303910152612873565b90565b156128ac57565b6128b46103a7565b62461bcd60e51b8152806128ca6004820161288d565b0390fd5b60a01b90565b906128e360ff60a01b916128ce565b9181191691161790565b6128f6906105a9565b90565b90565b9061291161290c612918926128ed565b6128f9565b82546128d4565b9055565b61294d9061294661294161293b6129366005600390612815565b61283f565b156105a9565b6128a5565b60036128fc565b565b612958906126eb565b565b61296661296b9161177e565b610a09565b90565b612978905461295a565b90565b5f7f6f776e2e6e6f6e617574682e44414f6f72536563757265626173654f776e6572910152565b6129ae60208092611829565b6129b78161297b565b0190565b6129d09060208101905f8183039101526129a2565b90565b156129da57565b6129e26103a7565b62461bcd60e51b8152806129f8600482016129bb565b0390fd5b90612a0d612a086174fb565b611a67565b612a16336169c1565b918215612a61575b612a37928015612a39575b612a32906129d3565b612b02565b565b50612a32612a47600161296e565b612a59612a53336104d9565b916104d9565b149050612a29565b612a8f92506020612a79612a745f6117a2565b6117d7565b634162169f90612a876103a7565b9586926117e3565b82528180612a9f60048201610526565b03915afa8015612afd57612a37935f91612acf575b50612ac7612ac1336104d9565b916104d9565b149250612a1e565b612af0915060203d8111612af6575b612ae881836116e6565b8101906117f8565b5f612ab4565b503d612ade565b611816565b90612b3191612b2c612b146006611c01565b612b26612b205f611c11565b916103b5565b11611c86565b612b8b565b565b612b3c906117cb565b90565b90612b4990612b33565b5f5260205260405f2090565b90612b6160ff91611cdf565b9181191691161790565b90612b80612b7b612b87926128ed565b6128f9565b8254612b55565b9055565b612b9a612b9f92916024612b3f565b612b6b565b565b90612bab916129fc565b565b5f7f726f79616c697479436c617573652875696e7432353629000000000000000000910152565b612bde6017611d82565b90612beb60208301612bad565b565b612bf5612bd4565b90565b90505190612c05826103b8565b565b9091606082840312612c3c57612c39612c22845f8501612bf8565b93612c308160208601612bf8565b93604001612bf8565b90565b6103b1565b90565b612c58612c53612c5d92612c41565b6103f9565b6103b5565b90565b612c6f612c75919392936103b5565b926103b5565b91612c818382026103b5565b928184041490151715612c9057565b611ed3565b5f7f676574627573696e6573732875696e7432353629000000000000000000000000910152565b612cc66014611d82565b90612cd360208301612c95565b565b612cdd612cbc565b90565b5f7f67657472616e6b636f756e742875696e743235362c75696e7432353629000000910152565b612d11601d611d82565b90612d1e60208301612ce0565b565b612d28612d07565b90565b634e487b7160e01b5f52601260045260245ffd5b612d4b612d51916103b5565b916103b5565b908115612d5c570490565b612d2b565b90612d6a611d35565b612d746001611eb7565b905b81612d92612d8c612d87600a611c01565b6103b5565b916103b5565b116130a257612dc36020612dad612da85f6117a2565b6117d7565b63cfbffe5390612dbb6103a7565b9384926117e3565b82528180612dd360048201610526565b03915afa801561309d57612e08612e2591612e3b935f9161306f575b50612e1786612dfc6103a7565b93849160208301610645565b602082018103825203836116e6565b612e1f612bed565b90617a0a565b6020612e308261177a565b818301019101612c07565b909291929083612e53612e4d5f611c11565b916103b5565b1461306257612e88612e82612e7d8993612e78612e72600b8b906114ac565b906106c0565b611f22565b6103b5565b916103b5565b116130565790612ea4612ece92612e9f6064612c44565b612c60565b926020612eb8612eb35f6117a2565b6117d7565b63538f9c0090612ec66103a7565b9586926117e3565b82528180612ede60048201610526565b03915afa801561305157612f13612f3091612f59955f91613023575b50612f228a612f076103a7565b93849160208301610645565b602082018103825203836116e6565b612f2a612cd5565b90617b17565b6020612f43612f3e5f6117a2565b6117d7565b63ab6e844f90612f516103a7565b9687926117e3565b82528180612f6960048201610526565b03915afa93841561301e57612fea95612fd3612fdd94612fcd612fe398612fd8955f91612ff0575b508d90612fbf8d92612fb0612fa46103a7565b94859260208401610831565b602082018103825203836116e6565b612fc7612d20565b90617b17565b94612c60565b612d3f565b612d3f565b90611f22565b915b611ee7565b90612d76565b613011915060203d8111613017575b61300981836116e6565b8101906117f8565b5f612f91565b503d612fff565b611816565b613044915060203d811161304a575b61303c81836116e6565b8101906117f8565b5f612efa565b503d613032565b611816565b5091612fea9150612fe5565b505091612fea9150612fe5565b613090915060203d8111613096575b61308881836116e6565b8101906117f8565b5f612def565b503d61307e565b611816565b925050565b906130b190611c11565b5f5260205260405f2090565b6130c5611d35565b506130da6130d560045f906130a7565b611c01565b90565b939291906130f16130ec6174fb565b611a67565b6130fa336169c1565b948515613115575b61310e61311396611ae9565b6131bc565b565b6131439550602061312d6131285f6117a2565b6117d7565b634162169f9061313b6103a7565b9889926117e3565b8252818061315360048201610526565b03915afa9586156131b7576131139661310e915f91613189575b5061318061317a336104d9565b916104d9565b14965050613102565b6131aa915060203d81116131b0575b6131a281836116e6565b8101906117f8565b5f61316d565b503d613198565b611816565b906131ee949392916131e96131d16006611c01565b6131e36131dd5f611c11565b916103b5565b11611c86565b6132e5565b565b90565b61320761320261320c926131f0565b6103f9565b6103b5565b90565b61321890611c11565b9052565b61322590611f60565b9052565b919461327161327b9298979561326760a09661325d6132829a61325360c08a019e5f8b0190610a49565b6020890190610a49565b604087019061320f565b6060850190610638565b6080830190610638565b019061321c565b565b9061328e90611eb7565b5f5260205260405f2090565b90565b6132b16132ac6132b69261329a565b6103f9565b6103b5565b90565b906132c39061329d565b5f5260205260405f2090565b906132d990611fba565b5f5260205260405f2090565b93929190936132fc6132f5617b84565b601f611cfd565b61330f61330a6103e96131f3565b617cd1565b61332461331f6005600390612815565b61283f565b806134cc575b613394575b5061338b929161336761339296613355613379946133506005600190613284565b612b6b565b61336260056002906132b9565b612b6b565b6133746005600390612815565b612b6b565b61338660056004906132cf565b612b6b565b60036128fc565b565b6133a193929193306119b8565b316133b46133ae836103b5565b916103b5565b115f146134bc575b906133e960206133d36133ce5f6117a2565b6117d7565b63aa0ddc16906133e16103a7565b9384926117e3565b825281806133f960048201610526565b03915afa9687156134b75761335561338b96613379956134296133929b613367965f91613489575b5082906185fa565b336134335f6123b1565b906134795f93613443601f611c01565b6008917f1517c86fcf2bfb8e3468afcc539b0004955da8027797c497ea51d1f1094ab898966134706103a7565b96879687613229565b0390a1945050965050919261332f565b6134aa915060203d81116134b0575b6134a281836116e6565b8101906117f8565b5f613421565b503d613498565b611816565b506134c6306119b8565b316133bc565b506134d783156105a9565b61332a565b906134e9949392916130dd565b565b94939291906135006134fb6174fb565b611a67565b613509336169c1565b958615613525575b61351d61352297611ae9565b6136b8565b90565b6135539650602061353d6135385f6117a2565b6117d7565b634162169f9061354b6103a7565b998a926117e3565b8252818061356360048201610526565b03915afa9687156135c7576135229761351d915f91613599575b5061359061358a336104d9565b916104d9565b14975050613511565b6135ba915060203d81116135c0575b6135b281836116e6565b8101906117f8565b5f61357d565b503d6135a8565b611816565b5f7f66726565496e74657276616c7328290000000000000000000000000000000000910152565b6135fd600f611d82565b9061360a602083016135cc565b565b6136146135f3565b90565b5f7f6c6576656c436c617573652875696e7432353629000000000000000000000000910152565b6136486014611d82565b9061365560208301613617565b565b61365f61363e565b90565b919060a0838203126136b35761367a815f8501612bf8565b926136888260208301612bf8565b926136b06136998460408501612bf8565b936136a78160608601612bf8565b93608001612bf8565b90565b6103b1565b949194939293506136eb60206136d56136d05f6117a2565b6117d7565b63cfbffe53906136e36103a7565b9384926117e3565b825281806136fb60048201610526565b03915afa908115613b7f5761378391613736915f91613b51575b506137276137225f611c11565b612126565b9061373061360c565b90617b17565b9561375f8361375961374a6020899061068f565b9161375483611c01565b611f22565b90611cfd565b61377d61376e6021879061068f565b9161377883611c01565b611f22565b90611cfd565b61379761379260205f906130a7565b611c01565b6137a96137a35f611c11565b916103b5565b116137ca575b50505050506137bc618979565b506137c7600a611c01565b90565b6137f660206137e06137db5f6117a2565b6117d7565b63cfbffe53906137ee6103a7565b9384926117e3565b8252818061380660048201610526565b03915afa8015613b4c5761383b6138589161386e935f91613b1e575b5061384a8761382f6103a7565b93849160208301610645565b602082018103825203836116e6565b613852613657565b90617a0a565b60206138638261177a565b818301019101613662565b959398919892909290989295938761388f613889600261329d565b916103b5565b1115928315613abc575b5050506138a8575b50506137af565b6138e5613992946138df6138f5936138d96138c9613a379c6138fb99612c60565b916138d46064612c44565b612c60565b90612d3f565b97612c60565b916138f06064612c44565b612c60565b90612d3f565b9161391a61391461390f6005600190613284565b61283f565b156105a9565b5f14613aab57613949845b6139436139346022859061068f565b9161393e83611c01565b611f22565b90611cfd565b61396761396161395c60056004906132cf565b61283f565b156105a9565b5f14613a965761398c61397d84925b602361068f565b9161398783611c01565b611f22565b90611cfd565b6139a76139a26005600190613284565b61283f565b5f14613a85576139d7825b6139d16139c26004600890611f7c565b916139cc83611c01565b611f22565b90611cfd565b6139ec6139e760056004906132cf565b61283f565b5f14613a7457613a1c815b613a16613a076004600b9061200b565b91613a1183611c01565b611f22565b90611cfd565b613a26601261283f565b918215613a43575b50506012612b6b565b5f8080808080806138a1565b613a6d9250905f80613a67613a61613a5b5f94611c11565b92611c11565b92611c11565b9361862e565b5f80613a2e565b613a1c613a805f611c11565b6139f7565b6139d7613a915f611c11565b6139b2565b61398c61397d613aa55f611c11565b92613976565b613949613ab75f611c11565b613925565b613ae691929350613adb613ae09193613ad56009611c01565b90611f92565b6103b5565b916103b5565b11908115613af8575b505f8080613899565b9050613b16613b10613b0a600a611c01565b926103b5565b916103b5565b10155f613aef565b613b3f915060203d8111613b45575b613b3781836116e6565b8101906117f8565b5f613822565b503d613b2d565b611816565b613b72915060203d8111613b78575b613b6a81836116e6565b8101906117f8565b5f613715565b503d613b60565b611816565b90613b9994939291613b94611d35565b6134eb565b90565b5f90565b613ba8613b9c565b50613bb3600161296e565b90565b5f7f6d696e7465646665652829000000000000000000000000000000000000000000910152565b613be7600b611d82565b90613bf460208301613bb6565b565b613bfe613bdd565b90565b5f7f6765745368617265285f64656c656761746f7229000000000000000000000000910152565b613c326014611d82565b90613c3f60208301613c01565b565b613c49613c28565b90565b90565b613c63613c5e613c6892613c4c565b6103f9565b6103b5565b90565b613c73611d35565b613c7d6007611c01565b915b82613c92613c8c836103b5565b916103b5565b1015613efa57613ca15f611c11565b915b82613cbf613cb9613cb46019610bed565b6103b5565b916103b5565b1015613ee457613ced613ce8601a613ce2613cdc60198890610bfa565b906106c0565b90610b14565b61296e565b613d07613d01613cfc5f6123b1565b6104d9565b916104d9565b14613eda5783613d46613d40613d3b613d36601c613d30613d2a60198b90610bfa565b906106c0565b9061068f565b611c01565b6103b5565b916103b5565b11613ed057613dc490613d9a613d7a613d756018613d6f613d6960198a90610bfa565b906106c0565b90610b14565b61296e565b613d8b613d865f611c11565b612126565b90613d94613bf6565b90617b17565b906020613dae613da95f6117a2565b6117d7565b6381d4126490613dbc6103a7565b9586926117e3565b82528180613dd460048201610526565b03915afa918215613ecb57613e4a613e44613e3f613e2f613e1e613e8197613e88995f91613e9d575b50613e0f613e0a5f611c11565b612126565b90613e18613c41565b90617b17565b94613e296019613c4f565b90612c60565b613e396064612c44565b90612d3f565b6103b5565b916103b5565b10155f14613e8e57613e7a613e75601b613e6f613e6960198a90610bfa565b906106c0565b9061068f565b611c01565b905b611f22565b925b612198565b91613ca3565b613e975f611c11565b90613e7c565b613ebe915060203d8111613ec4575b613eb681836116e6565b8101906117f8565b5f613dfd565b503d613eac565b611816565b91613e8890613e83565b91613e8890613e83565b93915091613ef190612198565b91929092613c7f565b50919050565b5f7f72616e6b666f7244414f28290000000000000000000000000000000000000000910152565b613f31600c611d82565b90613f3e60208301613f00565b565b613f48613f27565b90565b613f53611d35565b50613f806020613f6a613f655f6117a2565b6117d7565b63cfbffe5390613f786103a7565b9384926117e3565b82528180613f9060048201610526565b03915afa80156140c657613fbc915f91614098575b50613fae613f40565b613fb6612414565b91617b17565b613fe86020613fd2613fcd5f6117a2565b6117d7565b63ab6e844f90613fe06103a7565b9384926117e3565b82528180613ff860048201610526565b03915afa9182156140935761406292614052925f91614065575b5061404461401e617b84565b6140356140296103a7565b94859260208401610831565b602082018103825203836116e6565b61404c612d20565b90617b17565b61405c60036127f9565b90611f22565b90565b614086915060203d811161408c575b61407e81836116e6565b8101906117f8565b5f614012565b503d614074565b611816565b6140b9915060203d81116140bf575b6140b181836116e6565b8101906117f8565b5f613fa5565b503d6140a7565b611816565b906140fc9392916140f76140df6006611c01565b6140f16140eb5f611c11565b916103b5565b11611c86565b614edd565b565b60a01c90565b614110614115916140fe565b61056d565b90565b6141229054614104565b90565b5f7f6d652e6c6f636b65640000000000000000000000000000000000000000000000910152565b6141596009602092611829565b61416281614125565b0190565b61417b9060208101905f81830391015261414c565b90565b1561418557565b61418d6103a7565b62461bcd60e51b8152806141a360048201614166565b0390fd5b5f7f6d696e744c696d69745065724461792829000000000000000000000000000000910152565b6141d86011611d82565b906141e5602083016141a7565b565b6141ef6141ce565b90565b5f7f6d696e4d696e7451747928290000000000000000000000000000000000000000910152565b614223600c611d82565b90614230602083016141f2565b565b61423a614219565b90565b5f7f6d61784d696e7451747928290000000000000000000000000000000000000000910152565b61426e600c611d82565b9061427b6020830161423d565b565b614285614264565b90565b5f7f6d652e6272656163682e6461696c796c696d6974000000000000000000000000910152565b6142bc6014602092611829565b6142c581614288565b0190565b6142de9060208101905f8183039101526142af565b90565b156142e857565b6142f06103a7565b62461bcd60e51b815280614306600482016142c9565b0390fd5b5f7f6d652e6c6f776f6d61782e717479000000000000000000000000000000000000910152565b61433e600e602092611829565b6143478161430a565b0190565b6143609060208101905f818303910152614331565b90565b1561436a57565b6143726103a7565b62461bcd60e51b8152806143886004820161434b565b0390fd5b5f7f6d652e756e7365637572652e4f52433131353500000000000000000000000000910152565b6143c06013602092611829565b6143c98161438c565b0190565b6143e29060208101905f8183039101526143b3565b90565b156143ec57565b6143f46103a7565b62461bcd60e51b81528061440a600482016143cd565b0390fd5b5f7f6d652e66616b652e6d696e7476616c7565000000000000000000000000000000910152565b6144426011602092611829565b61444b8161440e565b0190565b6144649060208101905f818303910152614435565b90565b1561446e57565b6144766103a7565b62461bcd60e51b81528061448c6004820161444f565b0390fd5b906144a160018060a01b0391611cdf565b9181191691161790565b90565b906144c36144be6144ca92612b33565b6144ab565b8254614490565b9055565b90565b6144e56144e06144ea926144ce565b6103f9565b6103b5565b90565b90565b6145046144ff614509926144ed565b6103f9565b6103b5565b90565b90565b61452361451e6145289261450c565b6103f9565b6103b5565b90565b90565b61454261453d6145479261452b565b6103f9565b6103b5565b90565b61455390611eb7565b9052565b919461459f6145a99298979561459560a09661458b6145b09a61458160c08a019e5f8b0190610a49565b6020890190610a49565b6040870190610638565b6060850190610638565b6080830190610638565b019061454a565b565b90565b6145c96145c46145ce926145b2565b6103f9565b6103b5565b90565b906145db90611f06565b5f5260205260405f2090565b90565b6145fe6145f9614603926145e7565b6103f9565b6103b5565b90565b90614610906145ea565b5f5260205260405f2090565b90565b61463361462e6146389261461c565b6103f9565b6103b5565b90565b906146459061461f565b5f5260205260405f2090565b90565b61466861466361466d92614651565b6103f9565b6103b5565b90565b9061467a90614654565b5f5260205260405f2090565b90565b61469d6146986146a292614686565b6103f9565b6103b5565b90565b906146af90614689565b5f5260205260405f2090565b90565b6146d26146cd6146d7926146bb565b6103f9565b6103b5565b90565b906146e4906146be565b5f5260205260405f2090565b906146fa906144f0565b5f5260205260405f2090565b5f7f7769746864726177496e74657276616c44617973282900000000000000000000910152565b6147376016611d82565b9061474460208301614706565b565b61474e61472d565b90565b5f7f6d696e436c61696d506572446179282900000000000000000000000000000000910152565b6147826010611d82565b9061478f60208301614751565b565b614799614778565b90565b5f7f6d6178436c61696d506572446179282900000000000000000000000000000000910152565b6147cd6010611d82565b906147da6020830161479c565b565b6147e46147c3565b90565b5f7f6d6178476c6f62616c436c61696d506572446179282900000000000000000000910152565b6148186016611d82565b90614825602083016147e7565b565b61482f61480e565b90565b5f7f67657477697468647261776e2875696e74323536290000000000000000000000910152565b6148636015611d82565b9061487060208301614832565b565b61487a614859565b90565b5f7f6d652e676c6f62616c2e706f6f6c2e6c696d69742e7265616368656400000000910152565b6148b1601c602092611829565b6148ba8161487d565b0190565b6148d39060208101905f8183039101526148a4565b90565b156148dd57565b6148e56103a7565b62461bcd60e51b8152806148fb600482016148be565b0390fd5b90565b61491661491161491b926148ff565b6103f9565b6103b5565b90565b9061492890614902565b5f5260205260405f2090565b90565b61494b61494661495092614934565b6103f9565b6103b5565b90565b9061495d90614937565b5f5260205260405f2090565b90565b61498061497b61498592614969565b6103f9565b6103b5565b90565b906149929061496c565b5f5260205260405f2090565b906149a890613c4f565b5f5260205260405f2090565b90565b6149cb6149c66149d0926149b4565b6103f9565b6103b5565b90565b906149dd906149b7565b5f5260205260405f2090565b90565b614a006149fb614a05926149e9565b6103f9565b6103b5565b90565b90614a12906149ec565b5f5260205260405f2090565b5f7f6d652e62616c616e63652e6e6f7473756666696369656e740000000000000000910152565b614a526018602092611829565b614a5b81614a1e565b0190565b614a749060208101905f818303910152614a45565b90565b15614a7e57565b614a866103a7565b62461bcd60e51b815280614a9c60048201614a5f565b0390fd5b90565b614ab7614ab2614abc92614aa0565b6103f9565b6103b5565b90565b90614ac990614aa3565b5f5260205260405f2090565b90959492614b2094614b0f614b1992614b05608096614afb60a088019c5f890190610638565b6020870190610638565b6040850190610638565b6060830190610638565b0190610638565b565b614b2b906145b5565b9052565b9194614b77614b8192989795614b6d60a096614b63614b889a614b5960c08a019e5f8b0190610a49565b6020890190610a49565b604087019061320f565b6060850190610638565b6080830190610638565b0190614b22565b565b90565b614ba1614b9c614ba692614b8a565b6103f9565b6103b5565b90565b916020614bca929493614bc360408201965f830190610a49565b0190610a49565b565b60207f7329000000000000000000000000000000000000000000000000000000000000917f697344656c546f56616c7345786973747328616464726573732c6164647265735f8201520152565b614c236022611d82565b90614c3060208301614bcc565b565b614c3a614c19565b90565b5f7f6d652e64656c696461746f722e76616c696461746f722e6e6f742e6578697374910152565b614c7060208092611829565b614c7981614c3d565b0190565b614c929060208101905f818303910152614c64565b90565b15614c9c57565b614ca46103a7565b62461bcd60e51b815280614cba60048201614c7d565b0390fd5b5f7f6d652e76616c696461746f722e616c72656164792e6d61707065640000000000910152565b614cf2601b602092611829565b614cfb81614cbe565b0190565b614d149060208101905f818303910152614ce5565b90565b15614d1e57565b614d266103a7565b62461bcd60e51b815280614d3c60048201614cff565b0390fd5b5f7f697356616c52756e6e696e672861646472657373290000000000000000000000910152565b614d716015611d82565b90614d7e60208301614d40565b565b614d88614d67565b90565b5f7f6d652e76616c696461746f722e6e6f742e626f6e646564000000000000000000910152565b614dbf6017602092611829565b614dc881614d8b565b0190565b614de19060208101905f818303910152614db2565b90565b15614deb57565b614df36103a7565b62461bcd60e51b815280614e0960048201614dcc565b0390fd5b614e1690614b8d565b9052565b9194614e62614e6c92989795614e5860a096614e4e614e739a614e4460c08a019e5f8b0190610a49565b6020890190610a49565b604087019061320f565b6060850190610638565b6080830190610638565b0190614e0d565b565b614e7e9061452e565b9052565b9194614eca614ed492989795614ec060a096614eb6614edb9a614eac60c08a019e5f8b0190610a49565b6020890190610a49565b604087019061320f565b6060850190610638565b6080830190610638565b0190614e75565b565b91614ef9614ef4614eee6003614118565b156105a9565b61417e565b614f01617b84565b614f1c614f16614f11601f611c01565b6103b5565b916103b5565b1161693e575b83614f36614f306001611eb7565b916103b5565b14616128575b5082614f51614f4b60076145b5565b916103b5565b146152cf575b82614f6b614f656009614b8d565b916103b5565b14615090575b5050614f87614f816103e861452e565b916103b5565b14614f8f575b565b5f808080614fac614fa7614fa2836123b1565b6119a0565b6119ac565b3490828215615087575bf11561508257614fe434614fde614fcf60045f906130a7565b91614fd983611c01565b611f22565b90611cfd565b6150296150225f805f8061501c61501661501061500a6150045f97611c11565b97611c11565b93611c11565b93611c11565b93611c11565b9361862e565b6012612b6b565b336150335f6123b1565b5f9161507a34615043601f611c01565b6103e8917f1517c86fcf2bfb8e3468afcc539b0004955da8027797c497ea51d1f1094ab898966150716103a7565b96879687614e82565b0390a1614f8d565b611816565b506108fc614fb6565b6150bd9160206150a76150a25f6117a2565b6117d7565b6381d41264906150b56103a7565b9586926117e3565b825281806150cd60048201610526565b03915afa80156152ca5761512561512a9161518a955f9161529c575b50339061511785926151086150fc6103a7565b94859260208401614ba9565b602082018103825203836116e6565b61511f614c32565b90617876565b614c95565b61516161514161513c601a8590610b14565b61296e565b61515b6151556151505f6123b1565b6104d9565b916104d9565b14614d17565b602061517461516f5f6117a2565b6117d7565b6381d41264906151826103a7565b9586926117e3565b8252818061519a60048201610526565b03915afa908115615297576151f86151f36151d66152099461520e975f91615269575b506151e5856151ca6103a7565b93849160208301610a56565b602082018103825203836116e6565b6151ed614d80565b90617876565b614de4565b615204601a8490610b14565b6144ae565b6196c7565b50336152195f6123b1565b5f9161525f34615229601f611c01565b6009917f1517c86fcf2bfb8e3468afcc539b0004955da8027797c497ea51d1f1094ab898966152566103a7565b96879687614e1a565b0390a15f80614f71565b61528a915060203d8111615290575b61528281836116e6565b8101906117f8565b5f6151bd565b503d615278565b611816565b6152bd915060203d81116152c3575b6152b581836116e6565b8101906117f8565b5f6150e9565b503d6152ab565b611816565b6152d881617cd1565b506153a261538761536c61535161533661531b6153006152fb6004600f906145d1565b611c01565b6153156153106004601090614606565b611c01565b90611f22565b61533061532b600460119061463b565b611c01565b90611f22565b61534b6153466004601290614670565b611c01565b90611f22565b61536661536160046013906146a5565b611c01565b90611f22565b61538161537c60046014906146da565b611c01565b90611f22565b61539c61539760046015906146f0565b611c01565b90611f22565b6153ce60206153b86153b35f6117a2565b6117d7565b63cfbffe53906153c66103a7565b9384926117e3565b825281806153de60048201610526565b03915afa9081156161235761542991615419915f916160f5575b5061540a6154055f611c11565b612126565b90615413614746565b90617b17565b6154236008611c01565b90611f22565b61544561543f615439601f611c01565b926103b5565b916103b5565b1015615637575b5033825f9161555d61551d6155026154e76154cc6154b161549661547b615476600460169061491e565b611c01565b61549061548b6004601790614953565b611c01565b90611f22565b6154ab6154a66004601890614988565b611c01565b90611f22565b6154c66154c1600460199061499e565b611c01565b90611f22565b6154e16154dc6004601a906149d3565b611c01565b90611f22565b6154fc6154f76004601b90614a08565b611c01565b90611f22565b6155176155126004601c90614abf565b611c01565b90611f22565b615527601f611c01565b6007917f1517c86fcf2bfb8e3468afcc539b0004955da8027797c497ea51d1f1094ab898966155546103a7565b96879687614b2f565b0390a161557e61556c5f611c11565b615579600460169061491e565b611cfd565b61559c61558a5f611c11565b6155976004601790614953565b611cfd565b6155ba6155a85f611c11565b6155b56004601890614988565b611cfd565b6155d86155c65f611c11565b6155d3600460199061499e565b611cfd565b6155f66155e45f611c11565b6155f16004601a906149d3565b611cfd565b6156146156025f611c11565b61560f6004601b90614a08565b611cfd565b6156326156205f611c11565b61562d6004601c90614abf565b611cfd565b614f57565b615663602061564d6156485f6117a2565b6117d7565b63cfbffe539061565b6103a7565b9384926117e3565b8252818061567360048201610526565b03915afa80156160f0576156a9915f916160c2575b5061569a6156955f611c11565b612126565b906156a3614791565b90617b17565b6156d560206156bf6156ba5f6117a2565b6117d7565b63cfbffe53906156cd6103a7565b9384926117e3565b825281806156e560048201610526565b03915afa80156160bd5761571b915f9161608f575b5061570c6157075f611c11565b612126565b906157156147dc565b90617b17565b9061572f61572984926103b5565b916103b5565b101561573c575b5061544c565b615768602061575261574d5f6117a2565b6117d7565b63cfbffe53906157606103a7565b9384926117e3565b8252818061577860048201610526565b03915afa90811561608a576157dc916157b3915f9161605c575b506157a461579f5f611c11565b612126565b906157ad614827565b90617b17565b60206157c66157c15f6117a2565b6117d7565b63538f9c00906157d46103a7565b9485926117e3565b825281806157ec60048201610526565b03915afa80156160575761585261584d6158306158589361585e965f91616029575b5061583f61581c601f611c01565b6158246103a7565b93849160208301610645565b602082018103825203836116e6565b615847614872565b90617b17565b6103b5565b916103b5565b116148d6565b8161587161586b836103b5565b916103b5565b115f146160195761588191611f92565b5b6158976158926004600f906145d1565b611c01565b6158a96158a3836103b5565b916103b5565b10155f14615fb95761590e906158e96158d76158d06158cb6004600f906145d1565b611c01565b8390611f92565b6158e4600460169061491e565b611cfd565b6159086158f96004600f906145d1565b9161590383611c01565b611f92565b90611cfd565b6159175f611c11565b5b61592d6159286004601090614606565b611c01565b61593f615939836103b5565b916103b5565b10155f14615f59576159a49061597f61596d6159666159616004601090614606565b611c01565b8390611f92565b61597a6004601790614953565b611cfd565b61599e61598f6004601090614606565b9161599983611c01565b611f92565b90611cfd565b6159ad5f611c11565b5b6159c36159be600460119061463b565b611c01565b6159d56159cf836103b5565b916103b5565b10155f14615ef957615a3a90615a15615a036159fc6159f7600460119061463b565b611c01565b8390611f92565b615a106004601890614988565b611cfd565b615a34615a25600460119061463b565b91615a2f83611c01565b611f92565b90611cfd565b615a435f611c11565b5b615a59615a546004601290614670565b611c01565b615a6b615a65836103b5565b916103b5565b10155f14615e9957615ad090615aab615a99615a92615a8d6004601290614670565b611c01565b8390611f92565b615aa6600460199061499e565b611cfd565b615aca615abb6004601290614670565b91615ac583611c01565b611f92565b90611cfd565b615ad95f611c11565b5b615aef615aea60046013906146a5565b611c01565b615b01615afb836103b5565b916103b5565b10155f14615e3957615b6690615b41615b2f615b28615b2360046013906146a5565b611c01565b8390611f92565b615b3c6004601a906149d3565b611cfd565b615b60615b5160046013906146a5565b91615b5b83611c01565b611f92565b90611cfd565b615b6f5f611c11565b5b615b85615b8060046014906146da565b611c01565b615b97615b91836103b5565b916103b5565b10155f14615dd857615bfc90615bd7615bc5615bbe615bb960046014906146da565b611c01565b8390611f92565b615bd26004601b90614a08565b611cfd565b615bf6615be760046014906146da565b91615bf183611c01565b611f92565b90611cfd565b615c055f611c11565b505b615c41615c13306119b8565b31615c3a615c34615c2f615c2a6004601890614988565b611c01565b6103b5565b916103b5565b1015614a77565b615c69615c4e600161296e565b615c63615c5e6004601890614988565b611c01565b906185fa565b615c956020615c7f615c7a5f6117a2565b6117d7565b63538f9c0090615c8d6103a7565b9384926117e3565b82528180615ca560048201610526565b03915afa8015615dd357615d89915f91615da5575b50615cd0615ccb600460169061491e565b611c01565b615d7a615ce8615ce36004601790614953565b611c01565b91615d6b615d01615cfc600460199061499e565b611c01565b615d34615d19615d146004601a906149d3565b611c01565b615d2e615d296004601b90614a08565b611c01565b90611f22565b615d49615d446004601c90614abf565b611c01565b91615d526103a7565b96879560046020880163b233d95b60e01b815201614ad5565b602082018103825203826116e6565b615d835f611c11565b9161958e565b50615d9e615d97601f611c01565b6008611cfd565b5f80615736565b615dc6915060203d8111615dcc575b615dbe81836116e6565b8101906117f8565b5f615cba565b503d615db4565b611816565b615df790615df1615dec60046014906146da565b611c01565b90611f92565b50615e16615e045f611c11565b615e116004601b90614a08565b611cfd565b615e34615e225f611c11565b615e2f60046014906146da565b611cfd565b615c07565b615e5890615e52615e4d60046013906146a5565b611c01565b90611f92565b615e76615e645f611c11565b615e716004601a906149d3565b611cfd565b615e94615e825f611c11565b615e8f60046013906146a5565b611cfd565b615b70565b615eb890615eb2615ead6004601290614670565b611c01565b90611f92565b615ed6615ec45f611c11565b615ed1600460199061499e565b611cfd565b615ef4615ee25f611c11565b615eef6004601290614670565b611cfd565b615ada565b615f1890615f12615f0d600460119061463b565b611c01565b90611f92565b615f36615f245f611c11565b615f316004601890614988565b611cfd565b615f54615f425f611c11565b615f4f600460119061463b565b611cfd565b615a44565b615f7890615f72615f6d6004601090614606565b611c01565b90611f92565b615f96615f845f611c11565b615f916004601790614953565b611cfd565b615fb4615fa25f611c11565b615faf6004601090614606565b611cfd565b6159ae565b615fd890615fd2615fcd6004600f906145d1565b611c01565b90611f92565b615ff6615fe45f611c11565b615ff1600460169061491e565b611cfd565b6160146160025f611c11565b61600f6004600f906145d1565b611cfd565b615918565b50506160245f611c11565b615882565b61604a915060203d8111616050575b61604281836116e6565b8101906117f8565b5f61580e565b503d616038565b611816565b61607d915060203d8111616083575b61607581836116e6565b8101906117f8565b5f615792565b503d61606b565b611816565b6160b0915060203d81116160b6575b6160a881836116e6565b8101906117f8565b5f6156fa565b503d61609e565b611816565b6160e3915060203d81116160e9575b6160db81836116e6565b8101906117f8565b5f615688565b503d6160d1565b611816565b616116915060203d811161611c575b61610e81836116e6565b8101906117f8565b5f6153f8565b503d616104565b611816565b616154602061613e6161395f6117a2565b6117d7565b63cfbffe539061614c6103a7565b9384926117e3565b8252818061616460048201610526565b03915afa908115616939576161c89161619f915f9161690b575b5061619061618b5f611c11565b612126565b906161996141e7565b90617b17565b60206161b26161ad5f6117a2565b6117d7565b63cfbffe53906161c06103a7565b9485926117e3565b825281806161d860048201610526565b03915afa9182156169065761623c92616213915f916168d8575b506162046161ff5f611c11565b612126565b9061620d614232565b90617b17565b60206162266162215f6117a2565b6117d7565b63cfbffe53906162346103a7565b9586926117e3565b8252818061624c60048201610526565b03915afa80156168d3576162896162ad916162cf955f916168a5575b5061627a6162755f611c11565b612126565b9061628361427d565b90617b17565b926162a66162a061629a6017611c01565b926103b5565b916103b5565b11156142e1565b6162c06162ba85926103b5565b916103b5565b10159081616888575b50614363565b6162e06162db846169c1565b6143e5565b6162e981618c67565b90816162fd6162f75f611c11565b916103b5565b1180616855575b61630d90614467565b61633561632e616327346163216013611c01565b90611f22565b8490611f92565b6013611cfd565b61635161634a6163456017611c01565b611ee7565b6017611cfd565b61635b6016611c01565b61636d6163675f611c11565b916103b5565b145f1461684357616389616381601f611c01565b5b6007611cfd565b6163d16163a4858584869161639e601f611c01565b93618db9565b6163cc60186163bb6163b66016611c01565b611ee7565b6163c6816016611cfd565b90610b14565b6144ae565b6164126163e983836163e3601f611c01565b916190aa565b60206163fc6163f75f6117a2565b6117d7565b635e09dbe79061640a6103a7565b9485926117e3565b8252818061642260048201610526565b03915afa91821561683e576164939261646a915f91616810575b506164646164543461644e60466144d1565b90612c60565b61645e6064612c44565b90612d3f565b906185fa565b602061647d6164785f6117a2565b6117d7565b63640274279061648b6103a7565b9485926117e3565b825281806164a360048201610526565b03915afa91821561680b57616514926164eb915f916167dd575b506164e56164d5346164cf60156144f0565b90612c60565b6164df6064612c44565b90612d3f565b906185fa565b60206164fe6164f95f6117a2565b6117d7565b6330125cf59061650c6103a7565b9485926117e3565b8252818061652460048201610526565b03915afa9182156167d8576165969261656d915f916167aa575b5061656761655634616550602d61450f565b90612c60565b6165616103e861452e565b90612d3f565b906185fa565b602061658061657b5f6117a2565b6117d7565b6324768d919061658e6103a7565b9485926117e3565b825281806165a660048201610526565b03915afa9182156167a557616618926165ef915f91616777575b506165e96165d8346165d2602d61450f565b90612c60565b6165e36103e861452e565b90612d3f565b906185fa565b60206166026165fd5f6117a2565b6117d7565b63538f9c00906166106103a7565b9485926117e3565b8252818061662860048201610526565b03915afa90811561677257616685925f92616742575b506166768561666761664e6103a7565b9384926004602085016301f3c22560e51b815201610831565b602082018103825203826116e6565b61667f5f611c11565b9161958e565b506166ae826166a861669960205f906130a7565b916166a383611c01565b611f22565b90611cfd565b6166d6816166d06166c160215f906130a7565b916166cb83611c01565b611f22565b90611cfd565b336167396166f76166f260186166ec6016611c01565b90610b14565b61296e565b9293616703601f611c01565b6001917f1517c86fcf2bfb8e3468afcc539b0004955da8027797c497ea51d1f1094ab898966167306103a7565b96879687614557565b0390a15f614f3c565b61676491925060203d811161676b575b61675c81836116e6565b8101906117f8565b905f61663e565b503d616752565b611816565b616798915060203d811161679e575b61679081836116e6565b8101906117f8565b5f6165c0565b503d616786565b611816565b6167cb915060203d81116167d1575b6167c381836116e6565b8101906117f8565b5f61653e565b503d6167b9565b611816565b6167fe915060203d8111616804575b6167f681836116e6565b8101906117f8565b5f6164bd565b503d6167ec565b611816565b616831915060203d8111616837575b61682981836116e6565b8101906117f8565b5f61643c565b503d61681f565b611816565b6163896168506007611c01565b616382565b5061630d61686d346168676013611c01565b90611f22565b61687f616879856103b5565b916103b5565b10159050616304565b905061689d61689784926103b5565b916103b5565b11155f6162c9565b6168c6915060203d81116168cc575b6168be81836116e6565b8101906117f8565b5f616268565b503d6168b4565b611816565b6168f9915060203d81116168ff575b6168f181836116e6565b8101906117f8565b5f6161f2565b503d6168e7565b611816565b61692c915060203d8111616932575b61692481836116e6565b8101906117f8565b5f61617e565b503d61691a565b611816565b61695161694a5f611c11565b6017611cfd565b61696361695c617b84565b601f611cfd565b614f22565b906169749392916140cb565b565b5f7f6973536563757265426173652861646472657373290000000000000000000000910152565b6169a76015611d82565b906169b460208301616976565b565b6169be61699d565b90565b6169c9611d5b565b506169f660206169e06169db5f6117a2565b6117d7565b6397f3815a906169ee6103a7565b9384926117e3565b82528180616a0660048201610526565b03915afa8015616a8c57616a5592616a38925f92616a58575b50616a4790616a2c6103a7565b93849160208301610a56565b602082018103825203836116e6565b616a4f6169b6565b90617876565b90565b616a47919250616a7e9060203d8111616a85575b616a7681836116e6565b8101906117f8565b9190616a1f565b503d616a6c565b611816565b5f7f6f776e2e6e6f6e617574682e44414f0000000000000000000000000000000000910152565b616ac5600f602092611829565b616ace81616a91565b0190565b616ae79060208101905f818303910152616ab8565b90565b15616af157565b616af96103a7565b62461bcd60e51b815280616b0f60048201616ad2565b0390fd5b616b40906020616b2a616b255f6117a2565b6117d7565b634162169f90616b386103a7565b9485926117e3565b82528180616b5060048201610526565b03915afa918215616bb857616b8892616b83915f91616b8a575b50616b7d616b77336104d9565b916104d9565b14616aea565b616bbd565b565b616bab915060203d8111616bb1575b616ba381836116e6565b8101906117f8565b5f616b6a565b503d616b99565b611816565b5f80808093616bdb616bd6616bd1846123b1565b6119a0565b6119ac565b828215616bf0575bf115616beb57565b611816565b506108fc616be3565b616c0290616b13565b565b90616c0e90614b8d565b5f5260205260405f2090565b90565b616c31616c2c616c3692616c1a565b6103f9565b6103b5565b90565b90616c4390616c1d565b5f5260205260405f2090565b90565b616c66616c61616c6b92616c4f565b6103f9565b6103b5565b90565b90616c7890616c52565b5f5260205260405f2090565b90565b616c9b616c96616ca092616c84565b6103f9565b6103b5565b90565b90616cad90616c87565b5f5260205260405f2090565b90565b616cd0616ccb616cd592616cb9565b6103f9565b6103b5565b90565b90616ce290616cbc565b5f5260205260405f2090565b616cf6611d35565b50616cff611d35565b50616d08611d35565b50616d11611d35565b50616d1a611d35565b50616d23611d35565b50616d2c611d35565b50616d42616d3d6004600890611f7c565b611c01565b616d57616d526004600990616c04565b611c01565b91616d6d616d686004600a90616c39565b611c01565b91616d83616d7e6004600b9061200b565b611c01565b91616d99616d946004600c90616c6e565b611c01565b91616daf616daa6004600d90616ca3565b611c01565b91616dc5616dc06004600e90616cd8565b611c01565b9196959493929190565b616dd7611d35565b50616de0611d35565b50616de9611d35565b50616df2611d35565b50616dfb611d35565b50616e04611d35565b50616e0d611d35565b50616e23616e1e6004600f906145d1565b611c01565b616e38616e336004601090614606565b611c01565b91616e4e616e49600460119061463b565b611c01565b91616e64616e5f6004601290614670565b611c01565b91616e7a616e7560046013906146a5565b611c01565b91616e90616e8b60046014906146da565b611c01565b91616ea6616ea160046015906146f0565b611c01565b9196959493929190565b5f7f4e6f742061206d696e696d616c2070726f787900000000000000000000000000910152565b616ee46013602092611829565b616eed81616eb0565b0190565b616f069060208101905f818303910152616ed7565b90565b15616f1057565b616f186103a7565b62461bcd60e51b815280616f2e60048201616ef1565b0390fd5b5f90565b60601c90565b616f48616f4d91616f36565b6117af565b90565b616f5990616f3c565b90565b602a616f73616fa992616f6d613b9c565b5061175e565b616f99616f7f8261177a565b616f92616f8c602d61450f565b916103b5565b1015616f09565b616fa1616f32565b500151616f50565b90565b90959492616ff794616fe6616ff092616fdc608096616fd260a088019c5f890190610a49565b6020870190610638565b6040850190610638565b6060830190610638565b0190610638565b565b617002906104ce565b90565b61700e81616ff9565b0361701557565b5f80fd5b9050519061702682617005565b565b906020828203126170415761703e915f01617019565b90565b6103b1565b916170a36170cd95926170946170c8966170b296617062613b9c565b509561706e600161296e565b939591909161707b6103a7565b96879560046020880163c6c9873d60e01b815201616fac565b602082018103825203826116e6565b6170ac5f611c11565b9161958e565b60206170bd8261177a565b818301019101617028565b6119ac565b90565b5f7f67657445666665637469766552616e6b28616464726573732900000000000000910152565b6171016019611d82565b9061710e602083016170d0565b565b6171186170f7565b90565b5f7f697353746f702861646472657373290000000000000000000000000000000000910152565b61714c600f611d82565b906171596020830161711b565b565b617163617142565b90565b61716e611d5b565b5061719b60206171856171805f6117a2565b6117d7565b63cfbffe53906171936103a7565b9384926117e3565b825281806171ab60048201610526565b03915afa80156174ab576171d7915f9161747d575b506171c9613f40565b6171d1612414565b91617b17565b9061720460206171ee6171e95f6117a2565b6117d7565b63ab6e844f906171fc6103a7565b9384926117e3565b8252818061721460048201610526565b03915afa80156174785761726392617246925f92617444575b506172559061723a6103a7565b93849160208301610a56565b602082018103825203836116e6565b61725d61238a565b906178e3565b90617290602061727a6172755f6117a2565b6117d7565b63ab6e844f906172886103a7565b9384926117e3565b825281806172a060048201610526565b03915afa90811561743f576172f0916172d3915f91617411575b506172e2856172c76103a7565b93849160208301610a56565b602082018103825203836116e6565b6172ea617110565b90617b17565b9061731d60206173076173025f6117a2565b6117d7565b63ab6e844f906173156103a7565b9384926117e3565b8252818061732d60048201610526565b03915afa90811561740c5761737d91617360915f916173de575b5061736f866173546103a7565b93849160208301610a56565b602082018103825203836116e6565b61737761715b565b90617876565b9261739861739261738d5f6123b1565b6104d9565b916104d9565b141591826173bf575b505090816173ae575b5090565b6173b99150156105a9565b5f6173aa565b6173d59192506173cf90926103b5565b916103b5565b10155f806173a1565b6173ff915060203d8111617405575b6173f781836116e6565b8101906117f8565b5f617347565b503d6173ed565b611816565b617432915060203d8111617438575b61742a81836116e6565b8101906117f8565b5f6172ba565b503d617420565b611816565b61725591925061746a9060203d8111617471575b61746281836116e6565b8101906117f8565b919061722d565b503d617458565b611816565b61749e915060203d81116174a4575b61749681836116e6565b8101906117f8565b5f6171c0565b503d61748c565b611816565b5f7f6973536166652829000000000000000000000000000000000000000000000000910152565b6174e16008611d82565b906174ee602083016174b0565b565b6174f86174d7565b90565b617503611d5b565b50617530602061751a6175155f6117a2565b6117d7565b6397f3815a906175286103a7565b9384926117e3565b8252818061754060048201610526565b03915afa801561759d5761756c915f9161756f575b5061755e6174f0565b617566612414565b91617876565b90565b617590915060203d8111617596575b61758881836116e6565b8101906117f8565b5f617555565b503d61757e565b611816565b6175ab90619c56565b565b906175b79061329d565b5f5260205260405f2090565b906175cd906127f9565b5f5260205260405f2090565b90565b6175f06175eb6175f5926175d9565b6103f9565b6103b5565b90565b90617602906175dc565b5f5260205260405f2090565b90565b61762561762061762a9261760e565b6103f9565b6103b5565b90565b9061763790617611565b5f5260205260405f2090565b9061764d906145b5565b5f5260205260405f2090565b617661611d35565b5061766a611d35565b50617673611d35565b5061767c611d35565b50617685611d35565b5061768e611d35565b50617697611d35565b506176ad6176a86004600190611f47565b611c01565b6176c26176bd60046002906175ad565b611c01565b916176d86176d360046003906175c3565b611c01565b916176ec6176e7600480611fd6565b611c01565b916177026176fd60046005906175f8565b611c01565b91617718617713600460069061762d565b611c01565b9161772e6177296004600790617643565b611c01565b9196959493929190565b5f7f6167652829000000000000000000000000000000000000000000000000000000910152565b6177696005611d82565b9061777660208301617738565b565b61778061775f565b90565b61778b611d35565b506177b860206177a261779d5f6117a2565b6117d7565b63447aa304906177b06103a7565b9384926117e3565b825281806177c860048201610526565b03915afa8015617825576177f4915f916177f7575b506177e6617778565b6177ee612414565b91617b17565b90565b617818915060203d811161781e575b61781081836116e6565b8101906117f8565b5f6177dd565b503d617806565b611816565b90565b61784161783c6178469261782a565b6103f9565b6103b5565b90565b9050519061785682610aa0565b565b906020828203126178715761786e915f01617849565b90565b6103b1565b92919061788e91617885611d5b565b9491909161a3ac565b90806178c0575b61789d575b50565b6178b991925060206178ae8261177a565b818301019101617858565b905f61789a565b506178ca8161177a565b6178dd6178d7602061782d565b916103b5565b14617895565b9291906178fb916178f2613b9c565b9491909161a3ac565b9080617936575b61790a575b50565b61792f91925061792a90602061791f8261177a565b818301019101617028565b6119ac565b905f617907565b506179408161177a565b61795361794d602061782d565b916103b5565b14617902565b606090565b90565b63ffffffff60e01b1690565b61797690617961565b90565b905090565b5f5b838110617990575050905f910152565b806020918301518185015201617980565b6179c66179bd926020926179b48161177a565b94858093617979565b9384910161797e565b0190565b6179d8906179de93926179a1565b906179a1565b90565b3d5f146179fc576179f13d611747565b903d5f602084013e5b565b617a04617959565b906179fa565b90617a13617959565b50813b617a28617a225f611c11565b916103b5565b14617aeb576004617ac15f94617a9a869594617a7087617a6a617a52617a4c6103a7565b9461795e565b617a64617a5e8261177a565b91611774565b2061796d565b926116e6565b617a8b617a7b6103a7565b9586926020840190815201610526565b602082018103825203846116e6565b91617ab2617aa66103a7565b938492602084016179ca565b602082018103825203826116e6565b602081019051915afa617ad26179e1565b905f14617add575b90565b50617ae6612414565b617ada565b505050617af6612414565b90565b90602082820312617b1257617b0f915f01612bf8565b90565b6103b1565b929190617b2f91617b26611d35565b9491909161a3ac565b9080617b61575b617b3e575b50565b617b5a9192506020617b4f8261177a565b818301019101617af9565b905f617b3b565b50617b6b8161177a565b617b7e617b78602061782d565b916103b5565b14617b36565b617b8c611d35565b50617b95617783565b90565b5f7f63617070696e6728290000000000000000000000000000000000000000000000910152565b617bc96009611d82565b90617bd660208301617b98565b565b617be0617bbf565b90565b909160c082840312617c4257617bfb835f8401612bf8565b92617c098160208501617849565b92617c178260408301617849565b92617c3f617c288460608501617849565b93617c368160808601617849565b9360a001617849565b90565b6103b1565b90617c51906145b5565b5f5260205260405f2090565b617c6c617c7291939293610474565b92610474565b808301925f82851215818312169285129112151617617c8d57565b611ed3565b617ca6617ca1617cab92610474565b6103f9565b610474565b90565b90565b90617cc6617cc1617ccd92617c92565b617cae565b8254611ce4565b9055565b617cd9611d35565b90617d066020617cf0617ceb5f6117a2565b6117d7565b63cfbffe5390617cfe6103a7565b9384926117e3565b82528180617d1660048201610526565b03915afa80156185f557617d4c915f916185c7575b50617d3d617d385f611c11565b612126565b90617d4661218d565b90617876565b617d786020617d62617d5d5f6117a2565b6117d7565b63cfbffe5390617d706103a7565b9384926117e3565b82528180617d8860048201610526565b03915afa9081156185c257617dd991617dc3915f91618594575b50617db4617daf5f611c11565b612126565b90617dbd617bd8565b90617a0a565b6020617dce8261177a565b818301019101617be3565b9450919490929492919395617dee601f611c01565b617e13617e0d617e08617e016007611c01565b8590611f22565b6103b5565b916103b5565b115f1461858457617e2d90617e286007611c01565b611f22565b5b90617e39601261283f565b80618578575b617e4990156105a9565b80618571575b5f1461855a57617e5e306119b8565b319794929097959391955b617e736007611c01565b985b89617e88617e828a6103b5565b916103b5565b101561846057617e9881156105a9565b618407575b617ea7601261283f565b80618400575b5f146183f257617ebc5f611c11565b5b617ec5612021565b90617ed0601261283f565b806183eb575b5f146183e65750617ee65f611c11565b5b90617ef2601261283f565b806183df575b5f146183da5750617f085f611c11565b5b90617f1f617f1a6005600190613284565b61283f565b5f146183d15750617f58617f325f611c11565b5b617f52617f436004600e90616cd8565b91617f4d83611c01565b611f22565b90611cfd565b617f6d617f6860056002906132b9565b61283f565b5f146183c857617fa5617f7f5f611c11565b5b617f9f617f906004600f906145d1565b91617f9a83611c01565b611f22565b90611cfd565b617fba617fb560056004906132cf565b61283f565b5f146183bf5750617ff3617fcd5f611c11565b5b617fed617fde600460119061463b565b91617fe883611c01565b611f22565b90611cfd565b61800861800360056002906132b9565b61283f565b5f146183ad57618038905b6180326180236004600990616c04565b9161802d83611c01565b611f22565b90611cfd565b6180415f611c11565b5b8061805e6180586180536019610bed565b6103b5565b916103b5565b101561833e5761808c618087601a61808161807b60198690610bfa565b906106c0565b90610b14565b61296e565b6180a66180a061809b5f6123b1565b6104d9565b916104d9565b14618335578a6180e56180df6180da6180d5601c6180cf6180c960198990610bfa565b906106c0565b9061068f565b611c01565b6103b5565b916103b5565b1161832c576180f4601261283f565b80618325575b61830e5761812b9060206181156181105f6117a2565b6117d7565b6381d41264906181236103a7565b9485926117e3565b8252818061813b60048201610526565b03915afa9182156183095761825d92618176915f916182db575b506181676181625f611c11565b612126565b90618170613c41565b90617b17565b6181f86181f26181ed6181dd6181cd6181ad6181a860186181a261819c60198c90610bfa565b906106c0565b90610b14565b61296e565b6181be6181b95f611c11565b612126565b906181c7613bf6565b90617b17565b6181d76019613c4f565b90612c60565b6181e76064612c44565b90612d3f565b6103b5565b916103b5565b1015806182b7575b5f146182625761825661823161822c601b61822661822060198790610bfa565b906106c0565b9061068f565b611c01565b61825061824160046015906146f0565b9161824b83611c01565b611f22565b90611cfd565b5b5b612198565b618042565b6182b261828d618288601b61828261827c60198790610bfa565b906106c0565b9061068f565b611c01565b6182ac61829d6004600e90616cd8565b916182a783611c01565b611f22565b90611cfd565b618257565b506182d66182d06182cb6005600790617c47565b61283f565b156105a9565b618200565b6182fc915060203d8111618302575b6182f481836116e6565b8101906117f8565b5f618155565b503d6182ea565b611816565b50505050505050505050506183225f611c11565b90565b50896180fa565b61825d90618258565b61825d90618258565b509193959861839f90979193959761839a61836361835e601e8490610418565b6121bb565b618394618385601e61837f866183796001611eb7565b90611f22565b90610418565b9161838f836121bb565b617c5d565b90617cb1565b612198565b989593919694929096617e75565b506180386183ba5f611c11565b618013565b617ff390617fce565b617fa582617f80565b617f5890617f33565b617f09565b5087617ef8565b617ee7565b5088617ed6565b6183fb8a612d61565b617ebd565b5083617ead565b9061843290618416601261283f565b80618459575b5f146184385761842b5f611c11565b905b611f22565b90617e9d565b61845361844e6184498d601e610418565b6121bb565b6121c8565b9061842d565b508361841c565b5093505050506185269295945061852e93506184876184826005600390612815565b61283f565b5f14618551576184bf6184995f611c11565b5b6184b96184aa6004601090614606565b916184b483611c01565b611f22565b90611cfd565b6184d46184cf6005600390612815565b61283f565b5f1461854057618504815b6184fe6184ef6004600a90616c39565b916184f983611c01565b611f22565b90611cfd565b6185196185146005600390612815565b61283f565b5f1461853057905b611f22565b926007611cfd565b565b5061853a5f611c11565b90618521565b61850461854c5f611c11565b6184df565b6184bf8161849a565b6185635f611c11565b979492909795939195617e69565b5080617e4f565b50617e49839050617e3f565b5061858f601f611c01565b617e2e565b6185b5915060203d81116185bb575b6185ad81836116e6565b8101906117f8565b5f617da2565b503d6185a3565b611816565b6185e8915060203d81116185ee575b6185e081836116e6565b8101906117f8565b5f617d2b565b503d6185d6565b611816565b5f80809361861061860b83956119a0565b6119ac565b828215618625575bf11561862057565b611816565b506108fc618618565b9193906186679161863d611d5b565b50602061865161864c5f6117a2565b6117d7565b63cfbffe539061865f6103a7565b9586926117e3565b8252818061867760048201610526565b03915afa93841561886657618743956186d26186bc61873d97618737975f91618838575b506186ad6186a85f611c11565b612126565b906186b6617bd8565b90617a0a565b60206186c78261177a565b818301019101617be3565b949c93989190929c989c909294966186fe6186f76186f260205f906130a7565b611c01565b9a8b612c60565b9d618807575b506187d6575b506187a5575b50618776575b50618747575b5061873161872c60045f906130a7565b611c01565b90611f92565b926103b5565b916103b5565b1190565b9061876a6187709261876461875f6004600790617643565b611c01565b90611f22565b90611f22565b5f61871c565b9261879861879e929461879261878d600480611fd6565b611c01565b90611f22565b90611f22565b915f618716565b946187c96187cf92966187c36187be60046003906175c3565b611c01565b90611f22565b90611f22565b935f618710565b966187fa61880092986187f46187ef60046002906175ad565b611c01565b90611f22565b90611f22565b955f61870a565b9861882b618831929a6188256188206004600190611f47565b611c01565b90611f22565b90611f22565b975f618704565b618859915060203d811161885f575b61885181836116e6565b8101906117f8565b5f61869b565b503d618847565b611816565b5f7f6765744e6f646544697265637473436f756e742875696e743235362900000000910152565b61889c601c611d82565b906188a96020830161886b565b565b6188b3618892565b90565b5f7f72616e6b436c617573652875696e743235362900000000000000000000000000910152565b6188e76013611d82565b906188f4602083016188b6565b565b6188fe6188dd565b90565b9190604083820312618929578061891d618926925f8601612bf8565b93602001612bf8565b90565b6103b1565b1b90565b9190600861894d9102916189475f198461892e565b9261892e565b9181191691161790565b919061896d618968618975936103fc565b611cfa565b908354618932565b9055565b618981611d35565b906189ae60206189986189935f6117a2565b6117d7565b63ab6e844f906189a66103a7565b9384926117e3565b825281806189be60048201610526565b03915afa908115618c1757618a17916189fa915f91618be9575b50618a096189e66006611c01565b6189ee6103a7565b93849160208301610645565b602082018103825203836116e6565b618a116188ab565b90617b17565b91618a20611d35565b50618a29611d35565b50618a47618a37600a611c01565b618a416001611eb7565b90611f22565b5b80618a5c618a566008611f60565b916103b5565b1015618be457618a8f906020618a79618a745f6117a2565b6117d7565b63cfbffe5390618a876103a7565b9485926117e3565b82528180618a9f60048201610526565b03915afa918215618bdf57618af5618ad8618b5994618b0b935f91618bb1575b50618ae785618acc6103a7565b93849160208301610645565b602082018103825203836116e6565b618aef6188f6565b90617a0a565b6020618b008261177a565b818301019101618901565b90618b1f618b1988926103b5565b916103b5565b10159081618b6e575b50618b5e575b618b54618b39617b84565b618b4e600b618b48600a611c01565b906114ac565b90618957565b612198565b618a48565b618b6981600a611cfd565b618b2e565b9050618ba9618ba3618b9d618b986021618b9287618b8c6001611eb7565b90611f92565b9061068f565b611c01565b926103b5565b916103b5565b10155f618b28565b618bd2915060203d8111618bd8575b618bca81836116e6565b8101906117f8565b5f618abf565b503d618bc0565b611816565b509150565b618c0a915060203d8111618c10575b618c0281836116e6565b8101906117f8565b5f6189d8565b503d618bf8565b611816565b5f7f636f6d707574654d696e7456616c75652875696e743235362900000000000000910152565b618c4d6019611d82565b90618c5a60208301618c1c565b565b618c64618c43565b90565b618c6f611d35565b50618c9c6020618c86618c815f6117a2565b6117d7565b63cfbffe5390618c946103a7565b9384926117e3565b82528180618cac60048201610526565b03915afa8015618d3257618cfb92618cde925f92618cfe575b50618ced90618cd26103a7565b93849160208301610645565b602082018103825203836116e6565b618cf5618c5c565b90617b17565b90565b618ced919250618d249060203d8111618d2b575b618d1c81836116e6565b8101906117f8565b9190618cc5565b503d618d12565b611816565b5f7f6d652e6d696e742e6661696c6564000000000000000000000000000000000000910152565b618d6b600e602092611829565b618d7481618d37565b0190565b618d8d9060208101905f818303910152618d5e565b90565b15618d9757565b618d9f6103a7565b62461bcd60e51b815280618db560048201618d78565b0390fd5b91618e16618e409592618e07618e3b96618e2596618dd5613b9c565b5095618de1600161296e565b9395919091618dee6103a7565b96879560046020880163c85700fb60e01b815201616fac565b602082018103825203826116e6565b618e1f5f611c11565b9161958e565b6020618e308261177a565b818301019101617028565b6119ac565b618e6581618e5e618e58618e535f6123b1565b6104d9565b916104d9565b1415618d90565b90565b5f7f706f6f6c28290000000000000000000000000000000000000000000000000000910152565b618e996006611d82565b90618ea660208301618e68565b565b618eb0618e8f565b90565b60e081830312618f1e57618ec9825f8301612bf8565b92618ed78360208401612bf8565b92618ee58160408501612bf8565b92618ef38260608301612bf8565b92618f1b618f048460808501612bf8565b93618f128160a08601612bf8565b9360c001612bf8565b90565b6103b1565b618f37618f32618f3c926103b5565b6103f9565b610474565b90565b90565b618f56618f51618f5b92618f3f565b6103f9565b610474565b90565b618f6d618f7391939293610474565b92610474565b91618f7f838202610474565b92600160ff1b81145f831216618fa2578184051490151715618f9d57565b611ed3565b611ed3565b5f7f706f6f6c56616c70726976617465282900000000000000000000000000000000910152565b618fd86010611d82565b90618fe560208301618fa7565b565b618fef618fce565b90565b5f7f706f6f6c56616c7075626c696328290000000000000000000000000000000000910152565b619023600f611d82565b9061903060208301618ff2565b565b61903a619019565b90565b90565b5f5260205f2090565b5490565b61905681619049565b82101561907057619068600191619040565b910201905f90565b610bd9565b90815491680100000000000000008310156190a5578261909d9160016190a39501815561904d565b90618957565b565b6116d2565b916190e39193926190b9611d35565b5060206190cd6190c85f6117a2565b6117d7565b63cfbffe53906190db6103a7565b9586926117e3565b825281806190f360048201610526565b03915afa9283156194ae576191876192676192586191a961918d6191a361919261917661916261914c6192729d61926d9b5f91619480575b5061913d6191385f611c11565b612126565b90619146618ea8565b90617a0a565b60206191578261177a565b818301019101618eb3565b9099959d939196929491949699509e612c60565b916191816064612c44565b90612c60565b90612d3f565b612c60565b9161919d6064612c44565b90612c60565b90612d3f565b956191e66191df5f808a5f6191d96191d36191cd6191c75f96611c11565b96611c11565b92611c11565b93611c11565b9361862e565b6012612b6b565b6192206191f288618f23565b61921a61920b601e619205868a90611f22565b90610418565b91619215836121bb565b617c5d565b90617cb1565b61925261924b6192425f1961923d6192378c618f23565b91618f42565b618f5e565b95601e93611f22565b8790611f22565b90610418565b91619262836121bb565b617c5d565b90617cb1565b612c60565b9161929f60206192896192845f6117a2565b6117d7565b63cfbffe53906192976103a7565b9384926117e3565b825281806192af60048201610526565b03915afa90811561947b57619300916192ea915f9161944d575b506192db6192d65f611c11565b612126565b906192e4618fe7565b90617a0a565b60206192f58261177a565b818301019101618eb3565b5050505050905061931a61931483926103b5565b916103b5565b10155f146193435750619340619330601961903d565b61933a6016611c01565b90619075565b5b565b61936f60206193596193545f6117a2565b6117d7565b63cfbffe53906193676103a7565b9384926117e3565b8252818061937f60048201610526565b03915afa908115619448576193d66193c06193ec936193e6935f9161941a575b506193b16193ac5f611c11565b612126565b906193ba619032565b90617a0a565b60206193cb8261177a565b818301019101618eb3565b98959850505050509350926103b5565b916103b5565b10156193f8575b619341565b619415619405601961903d565b61940f6016611c01565b90619075565b6193f3565b61943b915060203d8111619441575b61943381836116e6565b8101906117f8565b5f61939f565b503d619429565b611816565b61946e915060203d8111619474575b61946681836116e6565b8101906117f8565b5f6192c9565b503d61945c565b611816565b6194a1915060203d81116194a7575b61949981836116e6565b8101906117f8565b5f61912b565b503d61948f565b611816565b5f7f6f776e2e696e76616c69642e7461726765740000000000000000000000000000910152565b6194e76012602092611829565b6194f0816194b3565b0190565b6195099060208101905f8183039101526194da565b90565b1561951357565b61951b6103a7565b62461bcd60e51b815280619531600482016194f4565b0390fd5b5f7f6f776e2e7461726765742e63616c6c2e6661696c656400000000000000000000910152565b6195696016602092611829565b61957281619535565b0190565b61958b9060208101905f81830391015261955c565b90565b915f9291839261959c617959565b506195c2816195bb6195b56195b0886123b1565b6104d9565b916104d9565b141561950c565b91602082019151925af16195de6195d76179e1565b91156105a9565b6195e55790565b6195ee8161177a565b6196006195fa5f611c11565b916103b5565b115f1461960f57805190602001fd5b6196176103a7565b62461bcd60e51b81528061962d60048201619576565b0390fd5b5f7f6d696e7465647174792829000000000000000000000000000000000000000000910152565b619662600b611d82565b9061966f60208301619631565b565b619679619658565b90565b5f7f6765745368617265286d73672e73656e64657229000000000000000000000000910152565b6196ad6014611d82565b906196ba6020830161967c565b565b6196c46196a3565b90565b906196d0611d35565b916197086196e86196e360188490610b14565b61296e565b6196f96196f45f611c11565b612126565b90619702613bf6565b90617b17565b61973f61971f61971a60188590610b14565b61296e565b61973061972b5f611c11565b612126565b90619739619671565b90617b17565b9061976c60206197566197515f6117a2565b6117d7565b6381d41264906197646103a7565b9384926117e3565b8252818061977c60048201610526565b03915afa8015619b24576197b2915f91619af6575b506197a361979e5f611c11565b612126565b906197ac6196bc565b90617b17565b906197df60206197c96197c45f6117a2565b6117d7565b63cfbffe53906197d76103a7565b9384926117e3565b825281806197ef60048201610526565b03915afa908115619af1576198409161982a915f91619ac3575b5061981b6198165f611c11565b612126565b90619824618fe7565b90617a0a565b60206198358261177a565b818301019101618eb3565b92919795989490985092509596505061986261985c83926103b5565b916103b5565b10155f1461991857506198a461989e619898619888856198826019613c4f565b90612c60565b6198926064612c44565b90612d3f565b926103b5565b916103b5565b116199065761990393926198d26198c16198e9946198d894612c60565b916198cc6064612c44565b90612c60565b90612d3f565b6198e4601b849061068f565b611cfd565b6198fe6198f6601f611c01565b91601c61068f565b611cfd565b5b565b5050505090506199155f611c11565b90565b92506199489350602061993261992d5f6117a2565b6117d7565b63cfbffe53906199406103a7565b9687926117e3565b8252818061995860048201610526565b03915afa938415619abe576199af6199996199cb966199c5935f91619a90575b5061998a6199855f611c11565b612126565b90619993619032565b90617a0a565b60206199a48261177a565b818301019101618eb3565b9a959694929a99939950509897509350926103b5565b916103b5565b10156199dc575b5050505050619904565b619a15619a0f619a096199f9856199f36019613c4f565b90612c60565b619a036064612c44565b90612d3f565b926103b5565b916103b5565b11619a7e57619a749392619a43619a32619a5a94619a4994612c60565b91619a3d6064612c44565b90612c60565b90612d3f565b619a55601b849061068f565b611cfd565b619a6f619a67601f611c01565b91601c61068f565b611cfd565b5f808080806199d2565b505050509050619a8d5f611c11565b90565b619ab1915060203d8111619ab7575b619aa981836116e6565b8101906117f8565b5f619978565b503d619a9f565b611816565b619ae4915060203d8111619aea575b619adc81836116e6565b8101906117f8565b5f619809565b503d619ad2565b611816565b619b17915060203d8111619b1d575b619b0f81836116e6565b8101906117f8565b5f619791565b503d619b05565b611816565b5f7f6d652e69642e6578697374730000000000000000000000000000000000000000910152565b619b5d600c602092611829565b619b6681619b29565b0190565b619b7f9060208101905f818303910152619b50565b90565b15619b8957565b619b916103a7565b62461bcd60e51b815280619ba760048201619b6a565b0390fd5b9190619bbe905f6020850194019061320f565b565b5f7f7265736f6c76655472616e736665725461726765742861646472657373290000910152565b619bf1601e611d82565b90619bfe60208301619bc0565b565b619c08619be7565b90565b5f7f6973496e7374616e636528616464726573732900000000000000000000000000910152565b619c3c6013611d82565b90619c4960208301619c0b565b565b619c53619c32565b90565b619c7b619c636006611c01565b619c75619c6f5f611c11565b916103b5565b14619b82565b619c8d619c86617b84565b601f611cfd565b619c97600261296e565b619cb1619cab619ca65f6123b1565b6104d9565b916104d9565b14619ed0575b619cc1600261296e565b619cdb619cd5619cd0306119b8565b6104d9565b916104d9565b03619ce4575b50565b619d106020619cfa619cf55f6117a2565b6117d7565b63447aa30490619d086103a7565b9384926117e3565b82528180619d2060048201610526565b03915afa908115619ecb57619d7991619d5c915f91619e9d575b50619d6b619d48600261296e565b619d506103a7565b93849160208301610a56565b602082018103825203836116e6565b619d73619c4b565b90617876565b5f14619e8f57619d889061b3fb565b5b619d936006611c01565b619da5619d9f5f611c11565b916103b5565b03619db1575b5f619ce1565b619df16020619dc7619dc25f6117a2565b6117d7565b63013cf08b90619de65f92619dda6103a7565b958694859384936117e3565b835260048301619bab565b03915afa8015619e8a57619e56915f91619e5c575b50619e38619e47619e17600161296e565b619e1f6103a7565b928391600460208401634ef260a960e01b815201610a56565b602082018103825203826116e6565b619e505f611c11565b9161958e565b50619dab565b619e7d915060203d8111619e83575b619e7581836116e6565b8101906117f8565b5f619e06565b503d619e6b565b611816565b619e989061a8af565b619d89565b619ebe915060203d8111619ec4575b619eb681836116e6565b8101906117f8565b5f619d3a565b503d619eac565b611816565b619f106020619ee6619ee15f6117a2565b6117d7565b63013cf08b90619f055f92619ef96103a7565b958694859384936117e3565b835260048301619bab565b03915afa90811561a3a757619f6991619f4c915f9161a379575b50619f5b619f38600161296e565b619f406103a7565b93849160208301610a56565b602082018103825203836116e6565b619f63619c00565b906178e3565b80619f84619f7e619f795f6123b1565b6104d9565b916104d9565b14155f1461a25d57619fb86020619fa2619f9d5f6117a2565b6117d7565b63ab6e844f90619fb06103a7565b9384926117e3565b82528180619fc860048201610526565b03915afa90811561a2585761a01891619ffb915f9161a22a575b5061a00a84619fef6103a7565b93849160208301610a56565b602082018103825203836116e6565b61a01261238a565b906178e3565b908161a03461a02e61a0295f6123b1565b6104d9565b916104d9565b14155f1461a1265761a04a61a0749260026144ae565b5b602061a05e61a0595f6117a2565b6117d7565b63ab6e844f9061a06c6103a7565b9485926117e3565b8252818061a08460048201610526565b03915afa90811561a1215761a0ea925f9261a0f1575b5061a0db61a0a8600161296e565b61a0cc61a0b36103a7565b93849260046020850163956db5cd60e01b815201614ba9565b602082018103825203826116e6565b61a0e45f611c11565b9161958e565b505b619cb7565b61a11391925060203d811161a11a575b61a10b81836116e6565b8101906117f8565b905f61a09a565b503d61a101565b611816565b61a1549150602061a13e61a1395f6117a2565b6117d7565b63447aa3049061a14c6103a7565b9485926117e3565b8252818061a16460048201610526565b03915afa801561a2255761a1a261a1bf9161a074945f9161a1f7575b5061a1b161a18e600161296e565b61a1966103a7565b93849160208301610a56565b602082018103825203836116e6565b61a1b961238a565b906178e3565b8061a1da61a1d461a1cf5f6123b1565b6104d9565b916104d9565b0361a1e6575b5061a04b565b61a1f19060026144ae565b5f61a1e0565b61a218915060203d811161a21e575b61a21081836116e6565b8101906117f8565b5f61a180565b503d61a206565b611816565b61a24b915060203d811161a251575b61a24381836116e6565b8101906117f8565b5f619fe2565b503d61a239565b611816565b5061a27161a26a306119b8565b60026144ae565b61a29d602061a28761a2825f6117a2565b6117d7565b63538f9c009061a2956103a7565b9384926117e3565b8252818061a2ad60048201610526565b03915afa801561a3745761a32461a33a9161a341935f9161a346575b5061a2d4600161296e565b61a31561a2e1600361296e565b9161a30661a2ed6103a7565b938492600460208501637dad853560e11b815201614ba9565b602082018103825203826116e6565b61a31e5f611c11565b9161958e565b602061a32f8261177a565b818301019101617af9565b6006611cfd565b61a0ec565b61a367915060203d811161a36d575b61a35f81836116e6565b8101906117f8565b5f61a2c9565b503d61a355565b611816565b61a39a915060203d811161a3a0575b61a39281836116e6565b8101906117f8565b5f619f2a565b503d61a388565b611816565b9061a3b5611d5b565b5061a3be617959565b50813b61a3d361a3cd5f611c11565b916103b5565b1461a48157600461a46c5f9461a44586959461a41b8761a41561a3fd61a3f76103a7565b9461795e565b61a40f61a4098261177a565b91611774565b2061796d565b926116e6565b61a43661a4266103a7565b9586926020840190815201610526565b602082018103825203846116e6565b9161a45d61a4516103a7565b938492602084016179ca565b602082018103825203826116e6565b602081019051915afa61a47d6179e1565b9091565b5050505f9061a48e612414565b90565b5f7f6d696e74436f756e742829000000000000000000000000000000000000000000910152565b61a4c2600b611d82565b9061a4cf6020830161a491565b565b61a4d961a4b8565b90565b5f7f6d696e74732875696e7432353629000000000000000000000000000000000000910152565b61a50d600e611d82565b9061a51a6020830161a4dc565b565b61a52461a503565b90565b5f7f6d696e7465644167652829000000000000000000000000000000000000000000910152565b61a558600b611d82565b9061a5656020830161a527565b565b61a56f61a54e565b90565b919461a5ba61a5c49298979561a5b060a09661a5a661a5cb9a61a59c60c08a019e5f8b0190610a49565b6020890190610a49565b6040870190610638565b6060850190610638565b6080830190610638565b019061320f565b565b5f7f6461676528290000000000000000000000000000000000000000000000000000910152565b61a5fe6006611d82565b9061a60b6020830161a5cd565b565b61a61561a5f4565b90565b5f7f4c53422875696e74323536290000000000000000000000000000000000000000910152565b61a649600c611d82565b9061a6566020830161a618565b565b61a66061a63f565b90565b5f7f647261776e282900000000000000000000000000000000000000000000000000910152565b61a6946007611d82565b9061a6a16020830161a663565b565b61a6ab61a68a565b90565b5f7f666c757368656428290000000000000000000000000000000000000000000000910152565b61a6df6009611d82565b9061a6ec6020830161a6ae565b565b61a6f661a6d5565b90565b5f7f756e706169642829000000000000000000000000000000000000000000000000910152565b61a72a6008611d82565b9061a7376020830161a6f9565b565b61a74161a720565b90565b5f7f6275726e65642829000000000000000000000000000000000000000000000000910152565b61a7756008611d82565b9061a7826020830161a744565b565b61a78c61a76b565b90565b5f7f626f6e7573282900000000000000000000000000000000000000000000000000910152565b61a7c06007611d82565b9061a7cd6020830161a78f565b565b61a7d761a7b6565b90565b5f7f6361676528290000000000000000000000000000000000000000000000000000910152565b61a80b6006611d82565b9061a8186020830161a7da565b565b61a82261a801565b90565b60a81b90565b9061a83a60ff60a81b9161a825565b9181191691161790565b9061a85961a85461a860926128ed565b6128f9565b825461a82b565b9055565b5f7f55736572546f4964286164647265737329000000000000000000000000000000910152565b61a8956011611d82565b9061a8a26020830161a864565b565b61a8ac61a88b565b90565b61a8dc61a8bc600261296e565b61a8cd61a8c85f611c11565b612126565b9061a8d661a4d1565b90617b17565b908161a90361a8fd61a8f88461a8f26016611c01565b90611f22565b6103b5565b916103b5565b115f1461b1ee5761a91e9061a9186016611c01565b90611f22565b5b8161a93261a92c5f611c11565b916103b5565b1161af8a575b5061a95561a94f61a9496016611c01565b926103b5565b916103b5565b148061af67575b61a963575b565b61a99a61a99361a973600261296e565b61a98461a97f5f611c11565b612126565b9061a98d61a60d565b90617b17565b6009611cfd565b61a9a46009611c01565b61a9bf61a9b961a9b46007611c01565b6103b5565b916103b5565b1161aee3575b61aaad61aa5561aa9b61aa6761aa8961aa4361aa7761aa2061aa0a61a9ea600261296e565b61a9fb61a9f65f611c11565b612126565b9061aa0461a6a3565b90617a0a565b602061aa158261177a565b818301019101618eb3565b99949b929391959790979b91939597999b61aa3e6004600190611f47565b611cfd565b61aa5060046002906175ad565b611cfd565b61aa6260046003906175c3565b611cfd565b61aa72600480611fd6565b611cfd565b61aa8460046005906175f8565b611cfd565b61aa96600460069061762d565b611cfd565b61aaa86004600790617643565b611cfd565b61ab9461ab4c61ab8261ab3a61ab7061ab2861ab5e61ab0861aaf261aad2600261296e565b61aae361aade5f611c11565b612126565b9061aaec61a6ee565b90617a0a565b602061aafd8261177a565b818301019101618eb3565b9b9493959199929790999795939161ab236004600890611f7c565b611cfd565b61ab356004600990616c04565b611cfd565b61ab476004600a90616c39565b611cfd565b61ab596004600b9061200b565b611cfd565b61ab6b6004600c90616c6e565b611cfd565b61ab7d6004600d90616ca3565b611cfd565b61ab8f6004600e90616cd8565b611cfd565b61ac7b61ac3361ac6961ac2161ac5761ac0f61ac4561abef61abd961abb9600261296e565b61abca61abc55f611c11565b612126565b9061abd361a739565b90617a0a565b602061abe48261177a565b818301019101618eb3565b9b9493959199929790999795939161ac0a6004600f906145d1565b611cfd565b61ac1c6004601090614606565b611cfd565b61ac2e600460119061463b565b611cfd565b61ac406004601290614670565b611cfd565b61ac5260046013906146a5565b611cfd565b61ac6460046014906146da565b611cfd565b61ac7660046015906146f0565b611cfd565b61acd561acc461acae61ac8e600261296e565b61ac9f61ac9a5f611c11565b612126565b9061aca861a784565b90617a0a565b602061acb98261177a565b818301019101617af9565b61acd060045f906130a7565b611cfd565b61ad0c61ad0561ace5600261296e565b61acf661acf15f611c11565b612126565b9061acff61a7cf565b90617b17565b6013611cfd565b61ad4361ad3c61ad1c600261296e565b61ad2d61ad285f611c11565b612126565b9061ad3661a81a565b90617b17565b6009611cfd565b61ad7a61ad7361ad53600261296e565b61ad6461ad5f5f611c11565b612126565b9061ad6d6123fd565b90617876565b600361a844565b61adb161adaa61ad8a600261296e565b61ad9b61ad965f611c11565b612126565b9061ada461245f565b90617876565b60036128fc565b61addd602061adc761adc25f6117a2565b6117d7565b63ab6e844f9061add56103a7565b9384926117e3565b8252818061aded60048201610526565b03915afa801561aede5761ae2b61ae489161ae4f935f9161aeb0575b5061ae3a61ae17600161296e565b61ae1f6103a7565b93849160208301610a56565b602082018103825203836116e6565b61ae4261a8a4565b90617b17565b6006611cfd565b61aeaa61ae5c600261296e565b61ae8c61ae9b61ae6c600161296e565b61ae746103a7565b92839160046020840162e6724f60e21b815201610a56565b602082018103825203826116e6565b61aea45f611c11565b9161958e565b5061a961565b61aed1915060203d811161aed7575b61aec981836116e6565b8101906117f8565b5f61ae09565b503d61aebf565b611816565b61aef761aef06009611c01565b6007611cfd565b61af6261af4861af2b61af0a600261296e565b61af3a61af176009611c01565b61af1f6103a7565b93849160208301610645565b602082018103825203836116e6565b61af4261a658565b9061bd03565b61af5d601e61af576007611c01565b90610418565b617cb1565b61a9c5565b5061af726006611c01565b61af8461af7e5f611c11565b916103b5565b1461a95c565b5b61af956016611c01565b61afa761afa1836103b5565b916103b5565b101561b1e75761afc961afc261afbd6016611c01565b611ee7565b6016611cfd565b61b01761affa61afd9600261296e565b61b00961afe66016611c01565b61afee6103a7565b93849160208301610645565b602082018103825203836116e6565b61b01161a51c565b906178e3565b61b03b8161b02c61b0275f611c11565b612126565b9061b03561a567565b90617b17565b61b05f8261b05061b04b5f611c11565b612126565b9061b059619671565b90617b17565b9061b12461b0878461b07861b0735f611c11565b612126565b9061b081613bf6565b90617b17565b9361b0a68161b0a1601861b09b6016611c01565b90610b14565b6144ae565b61b0b2858585916190aa565b5061b0bd6016611c01565b61b0d061b0ca6001611eb7565b916103b5565b1461b1d7575b61b10661b11561b0e6600161296e565b61b0ee6103a7565b92839160046020840162e6724f60e21b815201610a56565b602082018103825203826116e6565b61b11e5f611c11565b9161958e565b5061b14d8361b14761b13860205f906130a7565b9161b14283611c01565b611f22565b90611cfd565b61b1758261b16f61b16060215f906130a7565b9161b16a83611c01565b611f22565b90611cfd565b61b1cf339161b19761b192601861b18c6016611c01565b90610b14565b61296e565b9394905f917f1517c86fcf2bfb8e3468afcc539b0004955da8027797c497ea51d1f1094ab8989661b1c66103a7565b9687968761a572565b0390a161af8b565b61b1e2836007611cfd565b61b0d6565b505f61a938565b508061a91f565b60ff1690565b61b20f61b20a61b21492611c0e565b6103f9565b61b1f5565b90565b61b2209061b1fb565b9052565b919061b237905f6020850194019061b217565b565b5f7f6964732875696e74323536290000000000000000000000000000000000000000910152565b61b26a600c611d82565b9061b2776020830161b239565b565b61b28161b260565b90565b5f7f647261776e616765282900000000000000000000000000000000000000000000910152565b61b2b5600a611d82565b9061b2c26020830161b284565b565b61b2cc61b2ab565b90565b909160c08284031261b32e5761b2e7835f8401612bf8565b9261b2f58160208501612bf8565b9261b3038260408301612bf8565b9261b32b61b3148460608501612bf8565b9361b3228160808601612bf8565b9360a001612bf8565b90565b6103b1565b5f7f6765744e6f646528616464726573732900000000000000000000000000000000910152565b61b3646010611d82565b9061b3716020830161b333565b565b61b37b61b35a565b90565b919060a08382031261b3cf5761b396815f8501612bf8565b9261b3a48260208301617019565b9261b3cc61b3b58460408501612bf8565b9361b3c38160608601617849565b93608001617849565b90565b6103b1565b60a81c90565b61b3e661b3eb9161b3d4565b61056d565b90565b61b3f8905461b3da565b90565b61b42861b408600261296e565b61b41961b4145f611c11565b612126565b9061b42261a4d1565b90617b17565b908161b44f61b44961b4448461b43e6016611c01565b90611f22565b6103b5565b916103b5565b115f1461bcb75761b46a9061b4646016611c01565b90611f22565b5b8161b47e61b4785f611c11565b916103b5565b1161b9d9575b5061b4a161b49b61b4956016611c01565b926103b5565b916103b5565b148061b9b6575b61b4af575b565b61b4e661b4df61b4bf600261296e565b61b4d061b4cb5f611c11565b612126565b9061b4d961b2c4565b90617b17565b6009611cfd565b61b4f06009611c01565b61b50b61b50561b5006007611c01565b6103b5565b916103b5565b1161b932575b61b5e361b59d61b5d161b5af61b5bf61b58b61b56961b55361b533600261296e565b61b54461b53f5f611c11565b612126565b9061b54d61a6a3565b90617a0a565b602061b55e8261177a565b81830101910161b2cf565b9794999291939995909599919395979961b5866004600190611f47565b611cfd565b61b59860046002906175ad565b611cfd565b61b5aa60046003906175c3565b611cfd565b61b5ba600480611fd6565b611cfd565b61b5cc60046005906175f8565b611cfd565b61b5de600460069061762d565b611cfd565b61b61a61b61361b5f3600261296e565b61b60461b5ff5f611c11565b612126565b9061b60d61a7cf565b90617b17565b6013611cfd565b61b65161b64a61b62a600261296e565b61b63b61b6365f611c11565b612126565b9061b64461a81a565b90617b17565b6009611cfd565b61b67d602061b66761b6625f6117a2565b6117d7565b63447aa3049061b6756103a7565b9384926117e3565b8252818061b68d60048201610526565b03915afa90811561b92d5761b6ec61b6cf61b70e9361b702935f9161b8ff575b5061b6de61b6bb600261296e565b61b6c36103a7565b93849160208301610a56565b602082018103825203836116e6565b61b6e661b373565b90617a0a565b602061b6f78261177a565b81830101910161b37e565b9350505050600361a844565b61b72261b71b600361b3ee565b60036128fc565b61b74e602061b73861b7335f6117a2565b6117d7565b63ab6e844f9061b7466103a7565b9384926117e3565b8252818061b75e60048201610526565b03915afa801561b8fa5761b79c61b7b99161b7c0935f9161b8cc575b5061b7ab61b788600161296e565b61b7906103a7565b93849160208301610a56565b602082018103825203836116e6565b61b7b361a8a4565b90617b17565b6006611cfd565b61b7ca6016611c01565b61b7dc61b7d65f611c11565b916103b5565b1161b7e7575b61b4ad565b61b813602061b7fd61b7f85f6117a2565b6117d7565b63538f9c009061b80b6103a7565b9384926117e3565b8252818061b82360048201610526565b03915afa801561b8c75761b893915f9161b899575b5061b843600161296e565b61b88461b850600261296e565b9161b87561b85c6103a7565b93849260046020850163102c96fd60e01b815201614ba9565b602082018103825203826116e6565b61b88d5f611c11565b9161958e565b5061b7e2565b61b8ba915060203d811161b8c0575b61b8b281836116e6565b8101906117f8565b5f61b838565b503d61b8a8565b611816565b61b8ed915060203d811161b8f3575b61b8e581836116e6565b8101906117f8565b5f61b77a565b503d61b8db565b611816565b61b920915060203d811161b926575b61b91881836116e6565b8101906117f8565b5f61b6ad565b503d61b90e565b611816565b61b94661b93f6009611c01565b6007611cfd565b61b9b161b99761b97a61b959600261296e565b61b98961b9666009611c01565b61b96e6103a7565b93849160208301610645565b602082018103825203836116e6565b61b99161a658565b9061bd03565b61b9ac601e61b9a66007611c01565b90610418565b617cb1565b61b511565b5061b9c16006611c01565b61b9d361b9cd5f611c11565b916103b5565b1461b4a8565b5b61b9e46016611c01565b61b9f661b9f0836103b5565b916103b5565b101561bcb05761ba1861ba1161ba0c6016611c01565b611ee7565b6016611cfd565b61ba6661ba4961ba28600261296e565b61ba5861ba356016611c01565b61ba3d6103a7565b93849160208301610645565b602082018103825203836116e6565b61ba6061a51c565b906178e3565b61ba8a8161ba7b61ba765f611c11565b612126565b9061ba8461a567565b90617b17565b61baae8261ba9f61ba9a5f611c11565b612126565b9061baa8619671565b90617b17565b9061bb2f602061baf761baf161bad58761bae35f61baca6103a7565b93849188830161b224565b8782018103825203836116e6565b61baeb61b279565b90617b17565b95616f5c565b61bb0861bb035f6117a2565b6117d7565b61bb2463cfaa1f6c61bb186103a7565b958694859384936117e3565b835260048301610a56565b03915afa90811561bcab5761bb8b9161bb71915f9161bc7d575b509461bb5c61bb57876169c1565b6143e5565b61bb6585618c67565b95908587918693618db9565b61bb86601861bb806016611c01565b90610b14565b6144ae565b61bb97838383916190aa565b5061bba26016611c01565b61bbb561bbaf6001611eb7565b916103b5565b1461bc6d575b61bbe38361bbdd61bbce60205f906130a7565b9161bbd883611c01565b611f22565b90611cfd565b61bc0b8261bc0561bbf660215f906130a7565b9161bc0083611c01565b611f22565b90611cfd565b61bc65339161bc2d61bc28601861bc226016611c01565b90610b14565b61296e565b9394905f917f1517c86fcf2bfb8e3468afcc539b0004955da8027797c497ea51d1f1094ab8989661bc5c6103a7565b9687968761a572565b0390a161b9da565b61bc78816007611cfd565b61bbbb565b61bc9e915060203d811161bca4575b61bc9681836116e6565b8101906117f8565b5f61bb49565b503d61bc8c565b611816565b505f61b484565b508061b46b565b5f90565b61bccb81610474565b0361bcd257565b5f80fd5b9050519061bce38261bcc2565b565b9060208282031261bcfe5761bcfb915f0161bcd6565b90565b6103b1565b92919061bd1b9161bd1261bcbe565b9491909161a3ac565b908061bd4d575b61bd2a575b50565b61bd46919250602061bd3b8261177a565b81830101910161bce5565b905f61bd27565b5061bd578161177a565b61bd6a61bd64602061782d565b916103b5565b1461bd2256fea2646970667358221220ad4e2a75bf090ed622465b052a66860bd452a483aafbe5b1eea44e202138d43d64736f6c63430008180033","linkReferences":{}},"methodIdentifiers":{"Burn(uint256)":"b90306ad","LSB(uint256)":"a98bf4f9","LSBVal(uint256)":"035c1ad5","Txn(address,uint256,uint256,uint256)":"a3e884b0","_computeRoyality(uint256)":"6921d53a","_computeSelf(uint256)":"3062cebd","_computeValidator(uint256)":"91730a28","_computelevelInc()":"2c45f324","_delegatorCount()":"a1f7f539","_getImplementation(address)":"c54e44b0","_isDelegatorNode(address)":"e01ad5fd","_isSafe()":"e0a9bc2b","_isSecureBase(address)":"af484526","_isSigner(address)":"1f185d16","addLevelnGetRank(uint256,uint256,uint256,uint256,uint256)":"7d18465e","burned()":"73f42561","cage()":"69245009","dage()":"725b6fff","drawn()":"fd915ef2","flushed()":"c32487aa","forceTransfer(address)":"0399c93c","getBalance()":"12065fe0","getmint(address,uint256,uint256,uint256,uint256)":"dee1a74b","ibk()":"c9ce1e28","id()":"af640d0f","inc(uint256)":"812600df","initValidator(address,bool)":"63519d59","init_import(uint256)":"edd279d8","isCap()":"4702c08f","isDaoSafe()":"5c1a494a","isLock()":"09d8da2e","isNodeStopped(address)":"51bfd3ae","isSuspend()":"b8b6c856","lvlbs(uint256)":"91b0d21c","lvlqty(uint256)":"13ab4dc5","lvlrwrd(uint256)":"40124ece","lvlyei(uint256)":"18a54198","mintCount()":"9659867e","mintDailyCount()":"27bfab88","mintToValidator(uint256)":"a45c004a","mints(uint256)":"6350b2c2","owner()":"8da5cb5b","parent()":"60f96a8f","rank()":"934209ce","rankage(uint256)":"d3a1a499","royaldage(uint256)":"1348065f","setBonus(uint256)":"0b98f975","setLock(bool)":"619d5194","setSuspend(bool,bool,bool,bool,bool)":"798aecb4","suspendinc(uint256)":"901bcdd4","systemAge()":"fdc10bc9","unpaid()":"c4cb291e","valIncome(uint256)":"c6a9c45e","valmapAge(uint256)":"49f601df","valsmintsid(uint256)":"678a7634","withdrawlDage()":"a9bf285b"},"id":43}