{"abi":[{"type":"constructor","inputs":[],"stateMutability":"nonpayable"},{"type":"function","name":"ozonePriceInUSDT","inputs":[],"outputs":[{"name":"","type":"uint256","internalType":"uint256"}],"stateMutability":"view"},{"type":"function","name":"setAddRemoveOwner","inputs":[{"name":"_owner","type":"address","internalType":"address"},{"name":"action","type":"bool","internalType":"bool"}],"outputs":[],"stateMutability":"nonpayable"},{"type":"function","name":"setOzoneprice","inputs":[{"name":"_prc","type":"uint256","internalType":"uint256"}],"outputs":[],"stateMutability":"nonpayable"}],"bytecode":{"object":"0x60806040523461002757610011610138565b61001961002c565b610476610163823961047690f35b610032565b60405190565b5f80fd5b5f1b90565b906100475f1991610036565b9181191691161790565b90565b90565b90565b61006e61006961007392610051565b610057565b610054565b90565b90565b9061008e6100896100959261005a565b610076565b825461003b565b9055565b60018060a01b031690565b6100b86100b36100bd92610099565b610057565b610099565b90565b6100c9906100a4565b90565b6100d5906100c0565b90565b906100e2906100cc565b5f5260205260405f2090565b906100fa60ff91610036565b9181191691161790565b151590565b61011290610104565b90565b90565b9061012d61012861013492610109565b610115565b82546100ee565b9055565b61014b674563918244f400006001610079565b610160600161015b5f33906100d8565b610118565b56fe60806040526004361015610013575b610241565b61001d5f3561004c565b806315ec7fad146100475780637d8ec03a146100425763bae9486c0361000e5761020d565b610149565b6100a9565b60e01c90565b60405190565b5f80fd5b5f80fd5b90565b61006c81610060565b0361007357565b5f80fd5b9050359061008482610063565b565b9060208282031261009f5761009c915f01610077565b90565b61005c565b5f0190565b346100d7576100c16100bc366004610086565b6103a3565b6100c9610052565b806100d3816100a4565b0390f35b610058565b5f9103126100e657565b61005c565b1c90565b90565b61010290600861010793026100eb565b6100ef565b90565b9061011591546100f2565b90565b61012460015f9061010a565b90565b61013090610060565b9052565b9190610147905f60208501940190610127565b565b34610179576101593660046100dc565b610175610164610118565b61016c610052565b91829182610134565b0390f35b610058565b60018060a01b031690565b6101929061017e565b90565b61019e81610189565b036101a557565b5f80fd5b905035906101b682610195565b565b151590565b6101c6816101b8565b036101cd57565b5f80fd5b905035906101de826101bd565b565b919060408382031261020857806101fc610205925f86016101a9565b936020016101d1565b90565b61005c565b3461023c576102266102203660046101e0565b90610410565b61022e610052565b80610238816100a4565b0390f35b610058565b5f80fd5b90565b61025c6102576102619261017e565b610245565b61017e565b90565b61026d90610248565b90565b61027990610264565b90565b9061028690610270565b5f5260205260405f2090565b5f1c90565b60ff1690565b6102a96102ae91610292565b610297565b90565b6102bb905461029d565b90565b60209181520190565b5f7f70726963652e696e76616c69642e73656e646572000000000000000000000000910152565b6102fb60146020926102be565b610304816102c7565b0190565b61031d9060208101905f8183039101526102ee565b90565b1561032757565b61032f610052565b62461bcd60e51b81528061034560048201610308565b0390fd5b5f1b90565b9061035a5f1991610349565b9181191691161790565b61037861037361037d92610060565b610245565b610060565b90565b90565b9061039861039361039f92610364565b610380565b825461034e565b9055565b6103c9906103c26103bd6103b85f339061027c565b6102b1565b610320565b6001610383565b565b906103d760ff91610349565b9181191691161790565b6103ea906101b8565b90565b90565b9061040561040061040c926103e1565b6103ed565b82546103cb565b9055565b61043961043e9261043261042d6104285f339061027c565b6102b1565b610320565b915f61027c565b6103f0565b56fea264697066735822122094d99212faba366202b2ce35adfd5e635d2f32a6a173147716025425428e5d4a64736f6c63430008180033","linkReferences":{}},"methodIdentifiers":{"ozonePriceInUSDT()":"7d8ec03a","setAddRemoveOwner(address,bool)":"bae9486c","setOzoneprice(uint256)":"15ec7fad"},"id":51}